8=FIX.4.4|9=91|35=A|34=1|49=T1Kauaiblk5|52=20211102-15:38:03.371|56=MA|98=0|108=90|95=8|96=3.0.0rc5|141=Y|10=033|
8=FIX.4.4|9=74|35=A|34=1|49=MA|52=20211102-15:38:04.017|56=T1Kauaiblk5|98=0|108=90|141=Y|10=150|
8=FIX.4.4|9=56|35=5|34=2|49=T1Kauaiblk5|52=20211102-15:38:17.371|56=MA|10=070|
8=FIX.4.4|9=56|35=5|34=2|49=MA|52=20211102-15:38:17.431|56=T1Kauaiblk5|10=067|
