8=FIX.4.4|9=91|35=A|34=1|49=T1Kauaiblk4|52=20210215-14:52:37.080|56=MA|98=0|108=90|95=8|96=3.0.0rc5|141=Y|10=035|
8=FIX.4.4|9=74|35=A|34=1|49=MA|52=20210215-14:52:37.688|56=T1Kauaiblk4|98=0|108=90|141=Y|10=168|
8=FIX.4.4|9=718|35=E|34=2|49=T1Kauaiblk4|52=20210215-14:53:04.679|56=MA|66=ListID-B110222-1258|394=2|68=5|73=5|11=ClOrdID-1259|22=4|38=1000000|44=100.261|48=US06051GEN51|54=1|55=[N/A/]|63=3|67=1|423=1|29726=100.262|453=1|448=T1Kauaiblk4|447=C|452=11|11=ClOrdID-1260|22=4|38=2000000|44=101|48=US40434AAB52|54=1|55=[N/A]|63=3|67=2|29726=101.25|11=ClOrdID-1261|22=4|38=1300000|44=102.251|48=US95709TAH32|54=1|55=[N/A/]|63=3|67=1|29726=102.25|453=1|448=T1Kauaiblk4|447=C|452=11|11=ClOrdID-1262|22=4|38=250000|44=103.1|48=US427866AZ15|54=1|55=[N/A/]|63=3|67=1|29726=103.25|453=1|448=T1Kauaiblk4|447=C|452=11|11=ClOrdID-1263|22=4|38=350000|44=104.231|48=US29379VAW37|54=1|55=[N/A/]|63=3|67=1|29726=104.25|453=1|448=T1Kauaiblk4|447=C|452=11|10=053|
8=FIX.4.4|9=503|35=8|49=MA|56=T1Kauaiblk4|34=2|52=20210215-14:53:05.050|453=2|448=T1Kauaiblk4|447=C|452=11|448=Kauai blkrock company4|447=D|452=13|37=898356|11=ClOrdID-1259|66=ListID-B110222-1258|17=898356-gtqd|150=0|39=0|55=[N/A]|54=1|48=US06051GEN51|22=4|454=1|455=06051GEN5|456=1|460=3|167=CORP|541=20420207|223=0.05875|106=BOFAML|225=20120207|873=20120207|107=BAC  5.875  2/7/42|64=20210217|151=1000000|15=USD|120=USD|38=1000000|14=0|6=0|60=20210215-14:53:04|126=20210215-14:53:04|75=20210215|20117=7167309|30=MTXX|10=240|
8=FIX.4.4|9=512|35=8|49=MA|56=T1Kauaiblk4|34=3|52=20210215-14:53:05.071|453=2|448=T1Kauaiblk4|447=C|452=11|448=Kauai blkrock company4|447=D|452=13|37=898357|11=ClOrdID-1260|66=ListID-B110222-1258|17=898357-gtqs|150=0|39=0|55=[N/A]|54=1|48=US40434AAB52|22=4|454=1|455=40434AAB5|456=1|460=3|167=CORP|541=20260225|223=0.032|106=HSBC BK USA|225=20130225|873=20130225|107=HSBC  3.200  2/25/26 c22|64=20210217|151=2000000|15=USD|120=USD|38=2000000|14=0|6=0|60=20210215-14:53:04|126=20210215-14:53:04|75=20210215|20117=7167310|30=MTXX|10=230|
8=FIX.4.4|9=515|35=8|49=MA|56=T1Kauaiblk4|34=4|52=20210215-14:53:05.085|453=2|448=T1Kauaiblk4|447=C|452=11|448=Kauai blkrock company4|447=D|452=13|37=898358|11=ClOrdID-1261|66=ListID-B110222-1258|17=898358-gtqr|150=0|39=0|55=[N/A]|54=1|48=US95709TAH32|22=4|454=1|455=95709TAH3|456=1|460=3|167=CORP|541=20420301|223=0.04125|106=EVERGY KANSAS|225=20120301|873=20120301|107=EVRG  4.125  3/1/42 c41|64=20210217|151=1300000|15=USD|120=USD|38=1300000|14=0|6=0|60=20210215-14:53:04|126=20210215-14:53:04|75=20210215|20117=7167311|30=MTXX|10=088|
8=FIX.4.4|9=507|35=8|49=MA|56=T1Kauaiblk4|34=5|52=20210215-14:53:05.096|453=2|448=T1Kauaiblk4|447=C|452=11|448=Kauai blkrock company4|447=D|452=13|37=898359|11=ClOrdID-1262|66=ListID-B110222-1258|17=898359-gtqz|150=0|39=0|55=[N/A]|54=1|48=US427866AZ15|22=4|454=1|455=427866AZ1|456=1|460=3|167=CORP|541=20230515|223=0.03375|106=HERSHEY|225=20180510|873=20180510|107=HSY  3.375  5/15/23 c23|64=20210217|151=250000|15=USD|120=USD|38=250000|14=0|6=0|60=20210215-14:53:04|126=20210215-14:53:04|75=20210215|20117=7167312|30=MTXX|10=108|
8=FIX.4.4|9=514|35=8|49=MA|56=T1Kauaiblk4|34=6|52=20210215-14:53:05.109|453=2|448=T1Kauaiblk4|447=C|452=11|448=Kauai blkrock company4|447=D|452=13|37=898360|11=ClOrdID-1263|66=ListID-B110222-1258|17=898360-gtr9|150=0|39=0|55=[N/A]|54=1|48=US29379VAW37|22=4|454=1|455=29379VAW3|456=1|460=3|167=CORP|541=20420815|223=0.0485|106=ENTERPRISE PROD|225=20120215|873=20120215|107=EPD  4.850  8/15/42 c42|64=20210217|151=350000|15=USD|120=USD|38=350000|14=0|6=0|60=20210215-14:53:04|126=20210215-14:53:04|75=20210215|20117=7167313|30=MTXX|10=082|
8=FIX.4.4|9=56|35=0|34=3|49=T1Kauaiblk4|52=20210215-14:54:35.074|56=MA|10=066|
8=FIX.4.4|9=56|35=0|34=7|49=MA|52=20210215-14:54:35.146|56=T1Kauaiblk4|10=070|
8=FIX.4.4|9=718|35=E|34=4|49=T1Kauaiblk4|52=20210215-14:54:38.967|56=MA|66=ListID-B150221-1264|394=2|68=5|73=5|11=ClOrdID-1265|22=4|38=1000000|44=100.261|48=US06051GEN51|54=1|55=[N/A/]|63=3|67=1|423=1|29726=100.262|453=1|448=T1Kauaiblk4|447=C|452=11|11=ClOrdID-1266|22=4|38=2000000|44=101|48=US40434AAB52|54=1|55=[N/A]|63=3|67=2|29726=101.25|11=ClOrdID-1267|22=4|38=1300000|44=102.251|48=US95709TAH32|54=1|55=[N/A/]|63=3|67=1|29726=102.25|453=1|448=T1Kauaiblk4|447=C|452=11|11=ClOrdID-1268|22=4|38=250000|44=103.1|48=US427866AZ15|54=1|55=[N/A/]|63=3|67=1|29726=103.25|453=1|448=T1Kauaiblk4|447=C|452=11|11=ClOrdID-1269|22=4|38=350000|44=104.231|48=US29379VAW37|54=1|55=[N/A/]|63=3|67=1|29726=104.25|453=1|448=T1Kauaiblk4|447=C|452=11|10=084|
8=FIX.4.4|9=512|35=8|49=MA|56=T1Kauaiblk4|34=8|52=20210215-14:54:39.245|453=2|448=T1Kauaiblk4|447=C|452=11|448=Kauai blkrock company4|447=D|452=13|37=898363|11=ClOrdID-1266|66=ListID-B150221-1264|17=898363-iuer|150=0|39=0|55=[N/A]|54=1|48=US40434AAB52|22=4|454=1|455=40434AAB5|456=1|460=3|167=CORP|541=20260225|223=0.032|106=HSBC BK USA|225=20130225|873=20130225|107=HSBC  3.200  2/25/26 c22|64=20210217|151=2000000|15=USD|120=USD|38=2000000|14=0|6=0|60=20210215-14:54:39|126=20210215-14:54:39|75=20210215|20117=7167316|30=MTXX|10=004|
8=FIX.4.4|9=503|35=8|49=MA|56=T1Kauaiblk4|34=9|52=20210215-14:54:39.261|453=2|448=T1Kauaiblk4|447=C|452=11|448=Kauai blkrock company4|447=D|452=13|37=898362|11=ClOrdID-1265|66=ListID-B150221-1264|17=898362-iuew|150=0|39=0|55=[N/A]|54=1|48=US06051GEN51|22=4|454=1|455=06051GEN5|456=1|460=3|167=CORP|541=20420207|223=0.05875|106=BOFAML|225=20120207|873=20120207|107=BAC  5.875  2/7/42|64=20210217|151=1000000|15=USD|120=USD|38=1000000|14=0|6=0|60=20210215-14:54:39|126=20210215-14:54:39|75=20210215|20117=7167315|30=MTXX|10=019|
8=FIX.4.4|9=508|35=8|49=MA|56=T1Kauaiblk4|34=10|52=20210215-14:54:39.276|453=2|448=T1Kauaiblk4|447=C|452=11|448=Kauai blkrock company4|447=D|452=13|37=898365|11=ClOrdID-1268|66=ListID-B150221-1264|17=898365-iufh|150=0|39=0|55=[N/A]|54=1|48=US427866AZ15|22=4|454=1|455=427866AZ1|456=1|460=3|167=CORP|541=20230515|223=0.03375|106=HERSHEY|225=20180510|873=20180510|107=HSY  3.375  5/15/23 c23|64=20210217|151=250000|15=USD|120=USD|38=250000|14=0|6=0|60=20210215-14:54:39|126=20210215-14:54:39|75=20210215|20117=7167318|30=MTXX|10=159|
8=FIX.4.4|9=516|35=8|49=MA|56=T1Kauaiblk4|34=11|52=20210215-14:54:39.281|453=2|448=T1Kauaiblk4|447=C|452=11|448=Kauai blkrock company4|447=D|452=13|37=898364|11=ClOrdID-1267|66=ListID-B150221-1264|17=898364-iuf2|150=0|39=0|55=[N/A]|54=1|48=US95709TAH32|22=4|454=1|455=95709TAH3|456=1|460=3|167=CORP|541=20420301|223=0.04125|106=EVERGY KANSAS|225=20120301|873=20120301|107=EVRG  4.125  3/1/42 c41|64=20210217|151=1300000|15=USD|120=USD|38=1300000|14=0|6=0|60=20210215-14:54:39|126=20210215-14:54:39|75=20210215|20117=7167317|30=MTXX|10=093|
8=FIX.4.4|9=515|35=8|49=MA|56=T1Kauaiblk4|34=12|52=20210215-14:54:39.287|453=2|448=T1Kauaiblk4|447=C|452=11|448=Kauai blkrock company4|447=D|452=13|37=898366|11=ClOrdID-1269|66=ListID-B150221-1264|17=898366-iufq|150=0|39=0|55=[N/A]|54=1|48=US29379VAW37|22=4|454=1|455=29379VAW3|456=1|460=3|167=CORP|541=20420815|223=0.0485|106=ENTERPRISE PROD|225=20120215|873=20120215|107=EPD  4.850  8/15/42 c42|64=20210217|151=350000|15=USD|120=USD|38=350000|14=0|6=0|60=20210215-14:54:39|126=20210215-14:54:39|75=20210215|20117=7167319|30=MTXX|10=232|
8=FIX.4.4|9=718|35=E|34=5|49=T1Kauaiblk4|52=20210215-14:55:10.093|56=MA|66=ListID-B150221-1270|394=2|68=5|73=5|11=ClOrdID-1271|22=4|38=1000000|44=100.261|48=US06051GEN51|54=1|55=[N/A/]|63=3|67=1|423=1|29726=100.262|453=1|448=T1Kauaiblk4|447=C|452=11|11=ClOrdID-1272|22=4|38=2000000|44=101|48=US40434AAB52|54=1|55=[N/A]|63=3|67=2|29726=101.25|11=ClOrdID-1273|22=4|38=1300000|44=102.251|48=US95709TAH32|54=1|55=[N/A/]|63=3|67=1|29726=102.25|453=1|448=T1Kauaiblk4|447=C|452=11|11=ClOrdID-1274|22=4|38=250000|44=103.1|48=US427866AZ15|54=1|55=[N/A/]|63=3|67=1|29726=103.25|453=1|448=T1Kauaiblk4|447=C|452=11|11=ClOrdID-1275|22=4|38=350000|44=104.231|48=US29379VAW37|54=1|55=[N/A/]|63=3|67=1|29726=104.25|453=1|448=T1Kauaiblk4|447=C|452=11|10=048|
8=FIX.4.4|9=504|35=8|49=MA|56=T1Kauaiblk4|34=13|52=20210215-14:55:10.563|453=2|448=T1Kauaiblk4|447=C|452=11|448=Kauai blkrock company4|447=D|452=13|37=898368|11=ClOrdID-1271|66=ListID-B150221-1270|17=898368-jil0|150=0|39=0|55=[N/A]|54=1|48=US06051GEN51|22=4|454=1|455=06051GEN5|456=1|460=3|167=CORP|541=20420207|223=0.05875|106=BOFAML|225=20120207|873=20120207|107=BAC  5.875  2/7/42|64=20210217|151=1000000|15=USD|120=USD|38=1000000|14=0|6=0|60=20210215-14:55:10|126=20210215-14:55:10|75=20210215|20117=7167321|30=MTXX|10=222|
8=FIX.4.4|9=516|35=8|49=MA|56=T1Kauaiblk4|34=14|52=20210215-14:55:10.572|453=2|448=T1Kauaiblk4|447=C|452=11|448=Kauai blkrock company4|447=D|452=13|37=898370|11=ClOrdID-1273|66=ListID-B150221-1270|17=898370-jiks|150=0|39=0|55=[N/A]|54=1|48=US95709TAH32|22=4|454=1|455=95709TAH3|456=1|460=3|167=CORP|541=20420301|223=0.04125|106=EVERGY KANSAS|225=20120301|873=20120301|107=EVRG  4.125  3/1/42 c41|64=20210217|151=1300000|15=USD|120=USD|38=1300000|14=0|6=0|60=20210215-14:55:10|126=20210215-14:55:10|75=20210215|20117=7167323|30=MTXX|10=113|
8=FIX.4.4|9=508|35=8|49=MA|56=T1Kauaiblk4|34=15|52=20210215-14:55:10.577|453=2|448=T1Kauaiblk4|447=C|452=11|448=Kauai blkrock company4|447=D|452=13|37=898371|11=ClOrdID-1274|66=ListID-B150221-1270|17=898371-jil9|150=0|39=0|55=[N/A]|54=1|48=US427866AZ15|22=4|454=1|455=427866AZ1|456=1|460=3|167=CORP|541=20230515|223=0.03375|106=HERSHEY|225=20180510|873=20180510|107=HSY  3.375  5/15/23 c23|64=20210217|151=250000|15=USD|120=USD|38=250000|14=0|6=0|60=20210215-14:55:10|126=20210215-14:55:10|75=20210215|20117=7167324|30=MTXX|10=071|
8=FIX.4.4|9=513|35=8|49=MA|56=T1Kauaiblk4|34=16|52=20210215-14:55:10.582|453=2|448=T1Kauaiblk4|447=C|452=11|448=Kauai blkrock company4|447=D|452=13|37=898369|11=ClOrdID-1272|66=ListID-B150221-1270|17=898369-jil5|150=0|39=0|55=[N/A]|54=1|48=US40434AAB52|22=4|454=1|455=40434AAB5|456=1|460=3|167=CORP|541=20260225|223=0.032|106=HSBC BK USA|225=20130225|873=20130225|107=HSBC  3.200  2/25/26 c22|64=20210217|151=2000000|15=USD|120=USD|38=2000000|14=0|6=0|60=20210215-14:55:10|126=20210215-14:55:10|75=20210215|20117=7167322|30=MTXX|10=220|
8=FIX.4.4|9=515|35=8|49=MA|56=T1Kauaiblk4|34=17|52=20210215-14:55:10.585|453=2|448=T1Kauaiblk4|447=C|452=11|448=Kauai blkrock company4|447=D|452=13|37=898372|11=ClOrdID-1275|66=ListID-B150221-1270|17=898372-jilf|150=0|39=0|55=[N/A]|54=1|48=US29379VAW37|22=4|454=1|455=29379VAW3|456=1|460=3|167=CORP|541=20420815|223=0.0485|106=ENTERPRISE PROD|225=20120215|873=20120215|107=EPD  4.850  8/15/42 c42|64=20210217|151=350000|15=USD|120=USD|38=350000|14=0|6=0|60=20210215-14:55:10|126=20210215-14:55:10|75=20210215|20117=7167325|30=MTXX|10=177|
8=FIX.4.4|9=718|35=E|34=6|49=T1Kauaiblk4|52=20210215-14:55:10.690|56=MA|66=ListID-B150221-1276|394=2|68=5|73=5|11=ClOrdID-1277|22=4|38=1000000|44=100.261|48=US06051GEN51|54=1|55=[N/A/]|63=3|67=1|423=1|29726=100.262|453=1|448=T1Kauaiblk4|447=C|452=11|11=ClOrdID-1278|22=4|38=2000000|44=101|48=US40434AAB52|54=1|55=[N/A]|63=3|67=2|29726=101.25|11=ClOrdID-1279|22=4|38=1300000|44=102.251|48=US95709TAH32|54=1|55=[N/A/]|63=3|67=1|29726=102.25|453=1|448=T1Kauaiblk4|447=C|452=11|11=ClOrdID-1280|22=4|38=250000|44=103.1|48=US427866AZ15|54=1|55=[N/A/]|63=3|67=1|29726=103.25|453=1|448=T1Kauaiblk4|447=C|452=11|11=ClOrdID-1281|22=4|38=350000|44=104.231|48=US29379VAW37|54=1|55=[N/A/]|63=3|67=1|29726=104.25|453=1|448=T1Kauaiblk4|447=C|452=11|10=070|
8=FIX.4.4|9=513|35=8|49=MA|56=T1Kauaiblk4|34=18|52=20210215-14:55:10.930|453=2|448=T1Kauaiblk4|447=C|452=11|448=Kauai blkrock company4|447=D|452=13|37=898375|11=ClOrdID-1278|66=ListID-B150221-1276|17=898375-jivb|150=0|39=0|55=[N/A]|54=1|48=US40434AAB52|22=4|454=1|455=40434AAB5|456=1|460=3|167=CORP|541=20260225|223=0.032|106=HSBC BK USA|225=20130225|873=20130225|107=HSBC  3.200  2/25/26 c22|64=20210217|151=2000000|15=USD|120=USD|38=2000000|14=0|6=0|60=20210215-14:55:10|126=20210215-14:55:10|75=20210215|20117=7167328|30=MTXX|10=030|
8=FIX.4.4|9=516|35=8|49=MA|56=T1Kauaiblk4|34=19|52=20210215-14:55:10.937|453=2|448=T1Kauaiblk4|447=C|452=11|448=Kauai blkrock company4|447=D|452=13|37=898376|11=ClOrdID-1279|66=ListID-B150221-1276|17=898376-jivh|150=0|39=0|55=[N/A]|54=1|48=US95709TAH32|22=4|454=1|455=95709TAH3|456=1|460=3|167=CORP|541=20420301|223=0.04125|106=EVERGY KANSAS|225=20120301|873=20120301|107=EVRG  4.125  3/1/42 c41|64=20210217|151=1300000|15=USD|120=USD|38=1300000|14=0|6=0|60=20210215-14:55:10|126=20210215-14:55:10|75=20210215|20117=7167329|30=MTXX|10=153|
8=FIX.4.4|9=504|35=8|49=MA|56=T1Kauaiblk4|34=20|52=20210215-14:55:10.957|453=2|448=T1Kauaiblk4|447=C|452=11|448=Kauai blkrock company4|447=D|452=13|37=898374|11=ClOrdID-1277|66=ListID-B150221-1276|17=898374-jivt|150=0|39=0|55=[N/A]|54=1|48=US06051GEN51|22=4|454=1|455=06051GEN5|456=1|460=3|167=CORP|541=20420207|223=0.05875|106=BOFAML|225=20120207|873=20120207|107=BAC  5.875  2/7/42|64=20210217|151=1000000|15=USD|120=USD|38=1000000|14=0|6=0|60=20210215-14:55:10|126=20210215-14:55:10|75=20210215|20117=7167327|30=MTXX|10=061|
8=FIX.4.4|9=515|35=8|49=MA|56=T1Kauaiblk4|34=21|52=20210215-14:55:10.961|453=2|448=T1Kauaiblk4|447=C|452=11|448=Kauai blkrock company4|447=D|452=13|37=898378|11=ClOrdID-1281|66=ListID-B150221-1276|17=898378-jivx|150=0|39=0|55=[N/A]|54=1|48=US29379VAW37|22=4|454=1|455=29379VAW3|456=1|460=3|167=CORP|541=20420815|223=0.0485|106=ENTERPRISE PROD|225=20120215|873=20120215|107=EPD  4.850  8/15/42 c42|64=20210217|151=350000|15=USD|120=USD|38=350000|14=0|6=0|60=20210215-14:55:10|126=20210215-14:55:10|75=20210215|20117=7167331|30=MTXX|10=210|
8=FIX.4.4|9=508|35=8|49=MA|56=T1Kauaiblk4|34=22|52=20210215-14:55:10.964|453=2|448=T1Kauaiblk4|447=C|452=11|448=Kauai blkrock company4|447=D|452=13|37=898377|11=ClOrdID-1280|66=ListID-B150221-1276|17=898377-jiw8|150=0|39=0|55=[N/A]|54=1|48=US427866AZ15|22=4|454=1|455=427866AZ1|456=1|460=3|167=CORP|541=20230515|223=0.03375|106=HERSHEY|225=20180510|873=20180510|107=HSY  3.375  5/15/23 c23|64=20210217|151=250000|15=USD|120=USD|38=250000|14=0|6=0|60=20210215-14:55:10|126=20210215-14:55:10|75=20210215|20117=7167330|30=MTXX|10=091|
8=FIX.4.4|9=718|35=E|34=7|49=T1Kauaiblk4|52=20210215-14:55:11.206|56=MA|66=ListID-B150221-1282|394=2|68=5|73=5|11=ClOrdID-1283|22=4|38=1000000|44=100.261|48=US06051GEN51|54=1|55=[N/A/]|63=3|67=1|423=1|29726=100.262|453=1|448=T1Kauaiblk4|447=C|452=11|11=ClOrdID-1284|22=4|38=2000000|44=101|48=US40434AAB52|54=1|55=[N/A]|63=3|67=2|29726=101.25|11=ClOrdID-1285|22=4|38=1300000|44=102.251|48=US95709TAH32|54=1|55=[N/A/]|63=3|67=1|29726=102.25|453=1|448=T1Kauaiblk4|447=C|452=11|11=ClOrdID-1286|22=4|38=250000|44=103.1|48=US427866AZ15|54=1|55=[N/A/]|63=3|67=1|29726=103.25|453=1|448=T1Kauaiblk4|447=C|452=11|11=ClOrdID-1287|22=4|38=350000|44=104.231|48=US29379VAW37|54=1|55=[N/A/]|63=3|67=1|29726=104.25|453=1|448=T1Kauaiblk4|447=C|452=11|10=065|
8=FIX.4.4|9=508|35=8|49=MA|56=T1Kauaiblk4|34=23|52=20210215-14:55:11.459|453=2|448=T1Kauaiblk4|447=C|452=11|448=Kauai blkrock company4|447=D|452=13|37=898383|11=ClOrdID-1286|66=ListID-B150221-1282|17=898383-jja3|150=0|39=0|55=[N/A]|54=1|48=US427866AZ15|22=4|454=1|455=427866AZ1|456=1|460=3|167=CORP|541=20230515|223=0.03375|106=HERSHEY|225=20180510|873=20180510|107=HSY  3.375  5/15/23 c23|64=20210217|151=250000|15=USD|120=USD|38=250000|14=0|6=0|60=20210215-14:55:11|126=20210215-14:55:11|75=20210215|20117=7167336|30=MTXX|10=071|
8=FIX.4.4|9=504|35=8|49=MA|56=T1Kauaiblk4|34=24|52=20210215-14:55:11.468|453=2|448=T1Kauaiblk4|447=C|452=11|448=Kauai blkrock company4|447=D|452=13|37=898380|11=ClOrdID-1283|66=ListID-B150221-1282|17=898380-jja8|150=0|39=0|55=[N/A]|54=1|48=US06051GEN51|22=4|454=1|455=06051GEN5|456=1|460=3|167=CORP|541=20420207|223=0.05875|106=BOFAML|225=20120207|873=20120207|107=BAC  5.875  2/7/42|64=20210217|151=1000000|15=USD|120=USD|38=1000000|14=0|6=0|60=20210215-14:55:11|126=20210215-14:55:11|75=20210215|20117=7167333|30=MTXX|10=226|
8=FIX.4.4|9=515|35=8|49=MA|56=T1Kauaiblk4|34=25|52=20210215-14:55:11.484|453=2|448=T1Kauaiblk4|447=C|452=11|448=Kauai blkrock company4|447=D|452=13|37=898384|11=ClOrdID-1287|66=ListID-B150221-1282|17=898384-jjag|150=0|39=0|55=[N/A]|54=1|48=US29379VAW37|22=4|454=1|455=29379VAW3|456=1|460=3|167=CORP|541=20420815|223=0.0485|106=ENTERPRISE PROD|225=20120215|873=20120215|107=EPD  4.850  8/15/42 c42|64=20210217|151=350000|15=USD|120=USD|38=350000|14=0|6=0|60=20210215-14:55:11|126=20210215-14:55:11|75=20210215|20117=7167337|30=MTXX|10=183|
8=FIX.4.4|9=516|35=8|49=MA|56=T1Kauaiblk4|34=26|52=20210215-14:55:11.489|453=2|448=T1Kauaiblk4|447=C|452=11|448=Kauai blkrock company4|447=D|452=13|37=898382|11=ClOrdID-1285|66=ListID-B150221-1282|17=898382-jjas|150=0|39=0|55=[N/A]|54=1|48=US95709TAH32|22=4|454=1|455=95709TAH3|456=1|460=3|167=CORP|541=20420301|223=0.04125|106=EVERGY KANSAS|225=20120301|873=20120301|107=EVRG  4.125  3/1/42 c41|64=20210217|151=1300000|15=USD|120=USD|38=1300000|14=0|6=0|60=20210215-14:55:11|126=20210215-14:55:11|75=20210215|20117=7167335|30=MTXX|10=132|
8=FIX.4.4|9=513|35=8|49=MA|56=T1Kauaiblk4|34=27|52=20210215-14:55:11.494|453=2|448=T1Kauaiblk4|447=C|452=11|448=Kauai blkrock company4|447=D|452=13|37=898381|11=ClOrdID-1284|66=ListID-B150221-1282|17=898381-jjak|150=0|39=0|55=[N/A]|54=1|48=US40434AAB52|22=4|454=1|455=40434AAB5|456=1|460=3|167=CORP|541=20260225|223=0.032|106=HSBC BK USA|225=20130225|873=20130225|107=HSBC  3.200  2/25/26 c22|64=20210217|151=2000000|15=USD|120=USD|38=2000000|14=0|6=0|60=20210215-14:55:11|126=20210215-14:55:11|75=20210215|20117=7167334|30=MTXX|10=012|
8=FIX.4.4|9=56|35=0|34=8|49=T1Kauaiblk4|52=20210215-14:56:42.075|56=MA|10=072|
8=FIX.4.4|9=57|35=0|34=28|49=MA|52=20210215-14:56:42.147|56=T1Kauaiblk4|10=123|
8=FIX.4.4|9=56|35=0|34=9|49=T1Kauaiblk4|52=20210215-14:58:12.076|56=MA|10=073|
8=FIX.4.4|9=57|35=0|34=29|49=MA|52=20210215-14:58:12.146|56=T1Kauaiblk4|10=122|
8=FIX.4.4|9=57|35=0|34=10|49=T1Kauaiblk4|52=20210215-14:59:42.076|56=MA|10=118|
8=FIX.4.4|9=57|35=0|34=30|49=MA|52=20210215-14:59:42.150|56=T1Kauaiblk4|10=113|
8=FIX.4.4|9=57|35=0|34=31|49=MA|52=20210215-15:01:12.462|56=T1Kauaiblk4|10=105|
8=FIX.4.4|9=57|35=0|34=11|49=T1Kauaiblk4|52=20210215-15:01:12.479|56=MA|10=111|
8=FIX.4.4|9=57|35=0|34=12|49=T1Kauaiblk4|52=20210215-15:02:43.075|56=MA|10=109|
8=FIX.4.4|9=57|35=0|34=32|49=MA|52=20210215-15:02:43.148|56=T1Kauaiblk4|10=112|
8=FIX.4.4|9=57|35=0|34=13|49=T1Kauaiblk4|52=20210215-15:04:13.076|56=MA|10=110|
8=FIX.4.4|9=57|35=0|34=33|49=MA|52=20210215-15:04:13.150|56=T1Kauaiblk4|10=105|
8=FIX.4.4|9=79|35=5|34=14|49=T1Kauaiblk4|52=20210215-15:04:57.075|56=MA|58=Session Tab Closed|10=191|
8=FIX.4.4|9=57|35=5|34=34|49=MA|52=20210215-15:04:57.146|56=T1Kauaiblk4|10=124|
8=FIX.4.4|9=91|35=A|34=1|49=T1Kauaiblk4|52=20210216-09:19:41.980|56=MA|98=0|108=90|95=8|96=3.0.0rc5|141=Y|10=047|
8=FIX.4.4|9=91|35=A|34=1|49=T1Kauaiblk4|52=20210216-09:20:04.979|56=MA|98=0|108=90|95=8|96=3.0.0rc5|141=Y|10=046|
8=FIX.4.4|9=74|35=A|34=1|49=MA|52=20210216-09:20:05.561|56=T1Kauaiblk4|98=0|108=90|141=Y|10=153|
8=FIX.4.4|9=56|35=5|34=2|49=T1Kauaiblk4|52=20210216-09:20:23.979|56=MA|10=079|
8=FIX.4.4|9=56|35=5|34=2|49=MA|52=20210216-09:20:24.042|56=T1Kauaiblk4|10=061|
8=FIX.4.4|9=91|35=A|34=1|49=T1Kauaiblk4|52=20210216-09:20:25.980|56=MA|98=0|108=90|95=8|96=3.0.0rc5|141=Y|10=041|
8=FIX.4.4|9=74|35=A|34=1|49=MA|52=20210216-09:20:26.551|56=T1Kauaiblk4|98=0|108=90|141=Y|10=155|
8=FIX.4.4|9=699|35=E|34=2|49=T1Kauaiblk4|52=20210216-09:21:49.858|56=MA|66=ListID-160221-1414|394=2|68=5|73=5|11=ClOrdID-1415|22=4|38=100000|44=100|48=US06051GEN51|54=1|55=[N/A/]|63=3|67=1|423=1|29726=100.25|453=1|448=T1Kauaiblk4|447=C|452=11|11=ClOrdID-1416|22=4|38=100000|44=101|48=US40434AAB52|54=1|55=[N/A]|63=3|67=2|29726=101.25|11=ClOrdID-1417|22=4|38=130000|44=102|48=US95709TAH32|54=1|55=[N/A/]|63=3|67=1|29726=102.25|453=1|448=T1Kauaiblk4|447=C|452=11|11=ClOrdID-1418|22=4|38=250000|44=103|48=US427866AZ15|54=1|55=[N/A/]|63=3|67=1|29726=103.25|453=1|448=T1Kauaiblk4|447=C|452=11|11=ClOrdID-1419|22=4|38=350000|44=104|48=US29379VAW37|54=1|55=[N/A/]|63=3|67=1|29726=104.25|453=1|448=T1Kauaiblk4|447=C|452=11|10=147|
8=FIX.4.4|9=511|35=8|49=MA|56=T1Kauaiblk4|34=2|52=20210216-09:21:50.212|453=2|448=T1Kauaiblk4|447=C|452=11|448=Kauai blkrock company4|447=D|452=13|37=898857|11=ClOrdID-1416|66=ListID-160221-1414|17=898857-142ouu|150=0|39=0|55=[N/A]|54=1|48=US40434AAB52|22=4|454=1|455=40434AAB5|456=1|460=3|167=CORP|541=20260225|223=0.032|106=HSBC BK USA|225=20130225|873=20130225|107=HSBC  3.200  2/25/26 c22|64=20210218|151=100000|15=USD|120=USD|38=100000|14=0|6=0|60=20210216-09:21:50|126=20210216-09:21:50|75=20210216|20117=7169246|30=MTXX|10=135|
8=FIX.4.4|9=502|35=8|49=MA|56=T1Kauaiblk4|34=3|52=20210216-09:21:50.221|453=2|448=T1Kauaiblk4|447=C|452=11|448=Kauai blkrock company4|447=D|452=13|37=898856|11=ClOrdID-1415|66=ListID-160221-1414|17=898856-142ov6|150=0|39=0|55=[N/A]|54=1|48=US06051GEN51|22=4|454=1|455=06051GEN5|456=1|460=3|167=CORP|541=20420207|223=0.05875|106=BOFAML|225=20120207|873=20120207|107=BAC  5.875  2/7/42|64=20210218|151=100000|15=USD|120=USD|38=100000|14=0|6=0|60=20210216-09:21:50|126=20210216-09:21:50|75=20210216|20117=7169245|30=MTXX|10=087|
8=FIX.4.4|9=508|35=8|49=MA|56=T1Kauaiblk4|34=4|52=20210216-09:21:50.225|453=2|448=T1Kauaiblk4|447=C|452=11|448=Kauai blkrock company4|447=D|452=13|37=898859|11=ClOrdID-1418|66=ListID-160221-1414|17=898859-142ove|150=0|39=0|55=[N/A]|54=1|48=US427866AZ15|22=4|454=1|455=427866AZ1|456=1|460=3|167=CORP|541=20230515|223=0.03375|106=HERSHEY|225=20180510|873=20180510|107=HSY  3.375  5/15/23 c23|64=20210218|151=250000|15=USD|120=USD|38=250000|14=0|6=0|60=20210216-09:21:50|126=20210216-09:21:50|75=20210216|20117=7169248|30=MTXX|10=088|
8=FIX.4.4|9=515|35=8|49=MA|56=T1Kauaiblk4|34=5|52=20210216-09:21:50.237|453=2|448=T1Kauaiblk4|447=C|452=11|448=Kauai blkrock company4|447=D|452=13|37=898860|11=ClOrdID-1419|66=ListID-160221-1414|17=898860-142ow4|150=0|39=0|55=[N/A]|54=1|48=US29379VAW37|22=4|454=1|455=29379VAW3|456=1|460=3|167=CORP|541=20420815|223=0.0485|106=ENTERPRISE PROD|225=20120215|873=20120215|107=EPD  4.850  8/15/42 c42|64=20210218|151=350000|15=USD|120=USD|38=350000|14=0|6=0|60=20210216-09:21:50|126=20210216-09:21:50|75=20210216|20117=7169249|30=MTXX|10=086|
8=FIX.4.4|9=514|35=8|49=MA|56=T1Kauaiblk4|34=6|52=20210216-09:21:50.249|453=2|448=T1Kauaiblk4|447=C|452=11|448=Kauai blkrock company4|447=D|452=13|37=898858|11=ClOrdID-1417|66=ListID-160221-1414|17=898858-142ovt|150=0|39=0|55=[N/A]|54=1|48=US95709TAH32|22=4|454=1|455=95709TAH3|456=1|460=3|167=CORP|541=20420301|223=0.04125|106=EVERGY KANSAS|225=20120301|873=20120301|107=EVRG  4.125  3/1/42 c41|64=20210218|151=130000|15=USD|120=USD|38=130000|14=0|6=0|60=20210216-09:21:50|126=20210216-09:21:50|75=20210216|20117=7169247|30=MTXX|10=004|
8=FIX.4.4|9=699|35=E|34=3|49=T1Kauaiblk4|52=20210216-09:21:52.983|56=MA|66=ListID-160221-1420|394=2|68=5|73=5|11=ClOrdID-1421|22=4|38=100000|44=100|48=US06051GEN51|54=1|55=[N/A/]|63=3|67=1|423=1|29726=100.25|453=1|448=T1Kauaiblk4|447=C|452=11|11=ClOrdID-1422|22=4|38=100000|44=101|48=US40434AAB52|54=1|55=[N/A]|63=3|67=2|29726=101.25|11=ClOrdID-1423|22=4|38=130000|44=102|48=US95709TAH32|54=1|55=[N/A/]|63=3|67=1|29726=102.25|453=1|448=T1Kauaiblk4|447=C|452=11|11=ClOrdID-1424|22=4|38=250000|44=103|48=US427866AZ15|54=1|55=[N/A/]|63=3|67=1|29726=103.25|453=1|448=T1Kauaiblk4|447=C|452=11|11=ClOrdID-1425|22=4|38=350000|44=104|48=US29379VAW37|54=1|55=[N/A/]|63=3|67=1|29726=104.25|453=1|448=T1Kauaiblk4|447=C|452=11|10=123|
8=FIX.4.4|9=502|35=8|49=MA|56=T1Kauaiblk4|34=7|52=20210216-09:21:53.255|453=2|448=T1Kauaiblk4|447=C|452=11|448=Kauai blkrock company4|447=D|452=13|37=898862|11=ClOrdID-1421|66=ListID-160221-1420|17=898862-142r83|150=0|39=0|55=[N/A]|54=1|48=US06051GEN51|22=4|454=1|455=06051GEN5|456=1|460=3|167=CORP|541=20420207|223=0.05875|106=BOFAML|225=20120207|873=20120207|107=BAC  5.875  2/7/42|64=20210218|151=100000|15=USD|120=USD|38=100000|14=0|6=0|60=20210216-09:21:53|126=20210216-09:21:53|75=20210216|20117=7169251|30=MTXX|10=030|
8=FIX.4.4|9=511|35=8|49=MA|56=T1Kauaiblk4|34=8|52=20210216-09:21:53.274|453=2|448=T1Kauaiblk4|447=C|452=11|448=Kauai blkrock company4|447=D|452=13|37=898863|11=ClOrdID-1422|66=ListID-160221-1420|17=898863-142r8d|150=0|39=0|55=[N/A]|54=1|48=US40434AAB52|22=4|454=1|455=40434AAB5|456=1|460=3|167=CORP|541=20260225|223=0.032|106=HSBC BK USA|225=20130225|873=20130225|107=HSBC  3.200  2/25/26 c22|64=20210218|151=100000|15=USD|120=USD|38=100000|14=0|6=0|60=20210216-09:21:53|126=20210216-09:21:53|75=20210216|20117=7169252|30=MTXX|10=068|
8=FIX.4.4|9=514|35=8|49=MA|56=T1Kauaiblk4|34=9|52=20210216-09:21:53.278|453=2|448=T1Kauaiblk4|447=C|452=11|448=Kauai blkrock company4|447=D|452=13|37=898864|11=ClOrdID-1423|66=ListID-160221-1420|17=898864-142r8h|150=0|39=0|55=[N/A]|54=1|48=US95709TAH32|22=4|454=1|455=95709TAH3|456=1|460=3|167=CORP|541=20420301|223=0.04125|106=EVERGY KANSAS|225=20120301|873=20120301|107=EVRG  4.125  3/1/42 c41|64=20210218|151=130000|15=USD|120=USD|38=130000|14=0|6=0|60=20210216-09:21:53|126=20210216-09:21:53|75=20210216|20117=7169253|30=MTXX|10=188|
8=FIX.4.4|9=516|35=8|49=MA|56=T1Kauaiblk4|34=10|52=20210216-09:21:53.282|453=2|448=T1Kauaiblk4|447=C|452=11|448=Kauai blkrock company4|447=D|452=13|37=898866|11=ClOrdID-1425|66=ListID-160221-1420|17=898866-142r8o|150=0|39=0|55=[N/A]|54=1|48=US29379VAW37|22=4|454=1|455=29379VAW3|456=1|460=3|167=CORP|541=20420815|223=0.0485|106=ENTERPRISE PROD|225=20120215|873=20120215|107=EPD  4.850  8/15/42 c42|64=20210218|151=350000|15=USD|120=USD|38=350000|14=0|6=0|60=20210216-09:21:53|126=20210216-09:21:53|75=20210216|20117=7169255|30=MTXX|10=142|
8=FIX.4.4|9=509|35=8|49=MA|56=T1Kauaiblk4|34=11|52=20210216-09:21:53.285|453=2|448=T1Kauaiblk4|447=C|452=11|448=Kauai blkrock company4|447=D|452=13|37=898865|11=ClOrdID-1424|66=ListID-160221-1420|17=898865-142r91|150=0|39=0|55=[N/A]|54=1|48=US427866AZ15|22=4|454=1|455=427866AZ1|456=1|460=3|167=CORP|541=20230515|223=0.03375|106=HERSHEY|225=20180510|873=20180510|107=HSY  3.375  5/15/23 c23|64=20210218|151=250000|15=USD|120=USD|38=250000|14=0|6=0|60=20210216-09:21:53|126=20210216-09:21:53|75=20210216|20117=7169254|30=MTXX|10=025|
8=FIX.4.4|9=699|35=E|34=4|49=T1Kauaiblk4|52=20210216-09:21:54.432|56=MA|66=ListID-160221-1426|394=2|68=5|73=5|11=ClOrdID-1427|22=4|38=100000|44=100|48=US06051GEN51|54=1|55=[N/A/]|63=3|67=1|423=1|29726=100.25|453=1|448=T1Kauaiblk4|447=C|452=11|11=ClOrdID-1428|22=4|38=100000|44=101|48=US40434AAB52|54=1|55=[N/A]|63=3|67=2|29726=101.25|11=ClOrdID-1429|22=4|38=130000|44=102|48=US95709TAH32|54=1|55=[N/A/]|63=3|67=1|29726=102.25|453=1|448=T1Kauaiblk4|447=C|452=11|11=ClOrdID-1430|22=4|38=250000|44=103|48=US427866AZ15|54=1|55=[N/A/]|63=3|67=1|29726=103.25|453=1|448=T1Kauaiblk4|447=C|452=11|11=ClOrdID-1431|22=4|38=350000|44=104|48=US29379VAW37|54=1|55=[N/A/]|63=3|67=1|29726=104.25|453=1|448=T1Kauaiblk4|447=C|452=11|10=133|
8=FIX.4.4|9=512|35=8|49=MA|56=T1Kauaiblk4|34=12|52=20210216-09:21:54.687|453=2|448=T1Kauaiblk4|447=C|452=11|448=Kauai blkrock company4|447=D|452=13|37=898869|11=ClOrdID-1428|66=ListID-160221-1426|17=898869-142sc1|150=0|39=0|55=[N/A]|54=1|48=US40434AAB52|22=4|454=1|455=40434AAB5|456=1|460=3|167=CORP|541=20260225|223=0.032|106=HSBC BK USA|225=20130225|873=20130225|107=HSBC  3.200  2/25/26 c22|64=20210218|151=100000|15=USD|120=USD|38=100000|14=0|6=0|60=20210216-09:21:54|126=20210216-09:21:54|75=20210216|20117=7169258|30=MTXX|10=146|
8=FIX.4.4|9=515|35=8|49=MA|56=T1Kauaiblk4|34=13|52=20210216-09:21:54.706|453=2|448=T1Kauaiblk4|447=C|452=11|448=Kauai blkrock company4|447=D|452=13|37=898870|11=ClOrdID-1429|66=ListID-160221-1426|17=898870-142sc6|150=0|39=0|55=[N/A]|54=1|48=US95709TAH32|22=4|454=1|455=95709TAH3|456=1|460=3|167=CORP|541=20420301|223=0.04125|106=EVERGY KANSAS|225=20120301|873=20120301|107=EVRG  4.125  3/1/42 c41|64=20210218|151=130000|15=USD|120=USD|38=130000|14=0|6=0|60=20210216-09:21:54|126=20210216-09:21:54|75=20210216|20117=7169259|30=MTXX|10=237|
8=FIX.4.4|9=516|35=8|49=MA|56=T1Kauaiblk4|34=14|52=20210216-09:21:54.710|453=2|448=T1Kauaiblk4|447=C|452=11|448=Kauai blkrock company4|447=D|452=13|37=898872|11=ClOrdID-1431|66=ListID-160221-1426|17=898872-142scc|150=0|39=0|55=[N/A]|54=1|48=US29379VAW37|22=4|454=1|455=29379VAW3|456=1|460=3|167=CORP|541=20420815|223=0.0485|106=ENTERPRISE PROD|225=20120215|873=20120215|107=EPD  4.850  8/15/42 c42|64=20210218|151=350000|15=USD|120=USD|38=350000|14=0|6=0|60=20210216-09:21:54|126=20210216-09:21:54|75=20210216|20117=7169261|30=MTXX|10=171|
8=FIX.4.4|9=509|35=8|49=MA|56=T1Kauaiblk4|34=15|52=20210216-09:21:54.716|453=2|448=T1Kauaiblk4|447=C|452=11|448=Kauai blkrock company4|447=D|452=13|37=898871|11=ClOrdID-1430|66=ListID-160221-1426|17=898871-142scq|150=0|39=0|55=[N/A]|54=1|48=US427866AZ15|22=4|454=1|455=427866AZ1|456=1|460=3|167=CORP|541=20230515|223=0.03375|106=HERSHEY|225=20180510|873=20180510|107=HSY  3.375  5/15/23 c23|64=20210218|151=250000|15=USD|120=USD|38=250000|14=0|6=0|60=20210216-09:21:54|126=20210216-09:21:54|75=20210216|20117=7169260|30=MTXX|10=132|
8=FIX.4.4|9=503|35=8|49=MA|56=T1Kauaiblk4|34=16|52=20210216-09:21:54.720|453=2|448=T1Kauaiblk4|447=C|452=11|448=Kauai blkrock company4|447=D|452=13|37=898868|11=ClOrdID-1427|66=ListID-160221-1426|17=898868-142scv|150=0|39=0|55=[N/A]|54=1|48=US06051GEN51|22=4|454=1|455=06051GEN5|456=1|460=3|167=CORP|541=20420207|223=0.05875|106=BOFAML|225=20120207|873=20120207|107=BAC  5.875  2/7/42|64=20210218|151=100000|15=USD|120=USD|38=100000|14=0|6=0|60=20210216-09:21:54|126=20210216-09:21:54|75=20210216|20117=7169257|30=MTXX|10=220|
8=FIX.4.4|9=56|35=0|34=5|49=T1Kauaiblk4|52=20210216-09:23:24.982|56=MA|10=075|
8=FIX.4.4|9=57|35=0|34=17|49=MA|52=20210216-09:23:25.043|56=T1Kauaiblk4|10=116|
8=FIX.4.4|9=56|35=0|34=6|49=T1Kauaiblk4|52=20210216-09:24:54.984|56=MA|10=082|
8=FIX.4.4|9=57|35=0|34=18|49=MA|52=20210216-09:24:55.044|56=T1Kauaiblk4|10=122|
8=FIX.4.4|9=57|35=0|34=19|49=MA|52=20210216-09:26:25.561|56=T1Kauaiblk4|10=126|
8=FIX.4.4|9=56|35=0|34=7|49=T1Kauaiblk4|52=20210216-09:26:25.593|56=MA|10=079|
8=FIX.4.4|9=56|35=0|34=8|49=T1Kauaiblk4|52=20210216-09:27:55.982|56=MA|10=086|
8=FIX.4.4|9=57|35=0|34=20|49=MA|52=20210216-09:27:56.044|56=T1Kauaiblk4|10=119|
8=FIX.4.4|9=56|35=0|34=9|49=T1Kauaiblk4|52=20210216-09:29:25.984|56=MA|10=088|
8=FIX.4.4|9=57|35=0|34=21|49=MA|52=20210216-09:29:26.047|56=T1Kauaiblk4|10=122|
8=FIX.4.4|9=57|35=0|34=22|49=MA|52=20210216-09:30:56.488|56=T1Kauaiblk4|10=127|
8=FIX.4.4|9=57|35=0|34=10|49=T1Kauaiblk4|52=20210216-09:30:56.516|56=MA|10=116|
8=FIX.4.4|9=57|35=0|34=23|49=MA|52=20210216-09:32:26.490|56=T1Kauaiblk4|10=120|
8=FIX.4.4|9=57|35=0|34=11|49=T1Kauaiblk4|52=20210216-09:32:26.518|56=MA|10=118|
8=FIX.4.4|9=57|35=0|34=24|49=MA|52=20210216-09:33:56.491|56=T1Kauaiblk4|10=126|
8=FIX.4.4|9=57|35=0|34=12|49=T1Kauaiblk4|52=20210216-09:33:56.518|56=MA|10=123|
8=FIX.4.4|9=57|35=0|34=25|49=MA|52=20210216-09:35:26.513|56=T1Kauaiblk4|10=121|
8=FIX.4.4|9=57|35=0|34=13|49=T1Kauaiblk4|52=20210216-09:35:26.539|56=MA|10=126|
8=FIX.4.4|9=57|35=0|34=26|49=MA|52=20210216-09:36:56.556|56=T1Kauaiblk4|10=133|
8=FIX.4.4|9=57|35=0|34=14|49=T1Kauaiblk4|52=20210216-09:36:56.585|56=MA|10=132|
8=FIX.4.4|9=57|35=0|34=15|49=T1Kauaiblk4|52=20210216-09:38:26.989|56=MA|10=140|
8=FIX.4.4|9=57|35=0|34=27|49=MA|52=20210216-09:38:27.049|56=T1Kauaiblk4|10=131|
8=FIX.4.4|9=57|35=0|34=16|49=T1Kauaiblk4|52=20210216-09:39:56.993|56=MA|10=140|
8=FIX.4.4|9=57|35=0|34=28|49=MA|52=20210216-09:39:57.050|56=T1Kauaiblk4|10=128|
8=FIX.4.4|9=57|35=0|34=17|49=T1Kauaiblk4|52=20210216-09:41:26.996|56=MA|10=134|
8=FIX.4.4|9=57|35=0|34=29|49=MA|52=20210216-09:41:27.050|56=T1Kauaiblk4|10=119|
8=FIX.4.4|9=57|35=0|34=18|49=T1Kauaiblk4|52=20210216-09:42:56.996|56=MA|10=139|
8=FIX.4.4|9=57|35=0|34=30|49=MA|52=20210216-09:42:57.053|56=T1Kauaiblk4|10=118|
8=FIX.4.4|9=57|35=0|34=31|49=MA|52=20210216-09:44:27.553|56=T1Kauaiblk4|10=123|
8=FIX.4.4|9=57|35=0|34=19|49=T1Kauaiblk4|52=20210216-09:44:27.589|56=MA|10=138|
8=FIX.4.4|9=57|35=0|34=32|49=MA|52=20210216-09:45:57.554|56=T1Kauaiblk4|10=129|
8=FIX.4.4|9=57|35=0|34=20|49=T1Kauaiblk4|52=20210216-09:45:57.589|56=MA|10=134|
8=FIX.4.4|9=57|35=0|34=21|49=T1Kauaiblk4|52=20210216-09:47:27.994|56=MA|10=134|
8=FIX.4.4|9=57|35=0|34=33|49=MA|52=20210216-09:47:28.050|56=T1Kauaiblk4|10=121|
8=FIX.4.4|9=57|35=0|34=22|49=T1Kauaiblk4|52=20210216-09:48:57.995|56=MA|10=140|
8=FIX.4.4|9=57|35=0|34=34|49=MA|52=20210216-09:48:58.052|56=T1Kauaiblk4|10=128|
8=FIX.4.4|9=57|35=0|34=35|49=MA|52=20210216-09:50:28.488|56=T1Kauaiblk4|10=132|
8=FIX.4.4|9=57|35=0|34=23|49=T1Kauaiblk4|52=20210216-09:50:28.522|56=MA|10=118|
8=FIX.4.4|9=57|35=0|34=36|49=MA|52=20210216-09:51:58.550|56=T1Kauaiblk4|10=127|
8=FIX.4.4|9=57|35=0|34=24|49=T1Kauaiblk4|52=20210216-09:51:58.586|56=MA|10=133|
8=FIX.4.4|9=57|35=0|34=25|49=T1Kauaiblk4|52=20210216-09:53:28.996|56=MA|10=138|
8=FIX.4.4|9=57|35=0|34=37|49=MA|52=20210216-09:53:29.057|56=T1Kauaiblk4|10=130|
8=FIX.4.4|9=57|35=0|34=26|49=T1Kauaiblk4|52=20210216-09:54:58.999|56=MA|10=146|
8=FIX.4.4|9=57|35=0|34=38|49=MA|52=20210216-09:54:59.558|56=T1Kauaiblk4|10=141|
8=FIX.4.4|9=57|35=0|34=27|49=T1Kauaiblk4|52=20210216-09:56:28.999|56=MA|10=146|
8=FIX.4.4|9=57|35=0|34=39|49=MA|52=20210216-09:56:29.566|56=T1Kauaiblk4|10=140|
8=FIX.4.4|9=57|35=0|34=28|49=T1Kauaiblk4|52=20210216-09:57:59.003|56=MA|10=128|
8=FIX.4.4|9=57|35=0|34=40|49=MA|52=20210216-09:58:00.605|56=T1Kauaiblk4|10=117|
8=FIX.4.4|9=57|35=0|34=29|49=T1Kauaiblk4|52=20210216-09:59:30.002|56=MA|10=119|
8=FIX.4.4|9=57|35=0|34=41|49=MA|52=20210216-09:59:31.503|56=T1Kauaiblk4|10=120|
8=FIX.4.4|9=838|35=8|49=MA|56=T1Kauaiblk4|34=42|52=20210216-10:00:05.273|453=2|448=T1Kauaiblk4|447=C|452=11|448=Kauai blkrock company4|447=D|452=13|37=898871|11=ClOrdID-1430|66=ListID-160221-1426|17=898871-15fvr4|150=4|19=898871-142scq|39=4|55=[N/A]|54=1|48=427866AZ1|22=1|454=1|455=US427866AZ15|456=4|460=3|167=CORP|541=20230515|223=0.03375|106=HERSHEY|225=20180510|873=20180510|107=HSY  3.375  5/15/23 c23|64=20210218|9690=5|9691=MTGSUS6S|9692=B|9697=Timed Out|7761=1|9691=BRSE|9692=B|9697=Timed Out|7761=2|9691=JCSIUS331|9692=B|9697=Timed Out|7761=3|9691=AASIUS33|9692=B|9697=Timed Out|7761=4|9691=SLHIUS3X|9692=B|9697=Timed Out|7761=5|151=0|15=USD|120=USD|38=250000|14=0|6=0.0|761=1|699=91282CBG5|60=20210216-10:00:05|126=20210216-09:22:11|75=20210216|20117=7169260|29706=117.166|29707=117.303|29708=8.14|29709=2.08|30=MTXX|29798=7169260|29799=0.000|10=185|
8=FIX.4.4|9=846|35=8|49=MA|56=T1Kauaiblk4|34=43|52=20210216-10:00:05.283|453=2|448=T1Kauaiblk4|447=C|452=11|448=Kauai blkrock company4|447=D|452=13|37=898870|11=ClOrdID-1429|66=ListID-160221-1426|17=898870-15fvqs|150=4|19=898870-142sc6|39=4|55=[N/A]|54=1|48=95709TAH3|22=1|454=1|455=US95709TAH32|456=4|460=3|167=CORP|541=20420301|223=0.04125|106=EVERGY KANSAS|225=20120301|873=20120301|107=EVRG  4.125  3/1/42 c41|64=20210218|9690=5|9691=MTGSUS6S|9692=B|9697=Timed Out|7761=1|9691=BRSE|9692=B|9697=Timed Out|7761=2|9691=JCSIUS331|9692=B|9697=Timed Out|7761=3|9691=AASIUS33|9692=B|9697=Timed Out|7761=4|9691=SLHIUS3X|9692=B|9697=Timed Out|7761=5|151=0|15=USD|120=USD|38=130000|14=0|6=0.0|761=1|699=912810SS8|60=20210216-10:00:05|126=20210216-09:22:11|75=20210216|20117=7169259|29706=136.165|29707=136.606|29708=82.58|29709=79.99|30=MTXX|29798=7169259|29799=0.000|10=006|
8=FIX.4.4|9=791|35=8|49=MA|56=T1Kauaiblk4|34=44|52=20210216-10:00:05.289|453=2|448=T1Kauaiblk4|447=C|452=11|448=Kauai blkrock company4|447=D|452=13|37=898869|11=ClOrdID-1428|66=ListID-160221-1426|17=898869-15fvrl|150=4|19=898869-142sc1|39=4|55=[N/A]|54=1|48=40434AAB5|22=1|454=1|455=US40434AAB52|456=4|460=3|167=CORP|541=20260225|223=0.032|106=HSBC BK USA|225=20130225|873=20130225|107=HSBC  3.200  2/25/26 c22|64=20210218|9690=5|9691=MTGSUS6S|9692=B|9697=Timed Out|7761=1|9691=BRSE|9692=B|9697=Timed Out|7761=2|9691=JCSIUS331|9692=B|9697=Timed Out|7761=3|9691=AASIUS33|9692=B|9697=Timed Out|7761=4|9691=SLHIUS3X|9692=B|9697=Timed Out|7761=5|151=0|15=USD|120=USD|38=100000|14=0|6=0.0|761=1|699=91282CBH3|60=20210216-10:00:05|126=20210216-09:22:11|75=20210216|20117=7169258|30=MTXX|29798=7169258|29799=0.000|10=169|
8=FIX.4.4|9=848|35=8|49=MA|56=T1Kauaiblk4|34=45|52=20210216-10:00:05.297|453=2|448=T1Kauaiblk4|447=C|452=11|448=Kauai blkrock company4|447=D|452=13|37=898872|11=ClOrdID-1431|66=ListID-160221-1426|17=898872-15fvs1|150=4|19=898872-142scc|39=4|55=[N/A]|54=1|48=29379VAW3|22=1|454=1|455=US29379VAW37|456=4|460=3|167=CORP|541=20420815|223=0.0485|106=ENTERPRISE PROD|225=20120215|873=20120215|107=EPD  4.850  8/15/42 c42|64=20210218|9690=5|9691=MTGSUS6S|9692=B|9697=Timed Out|7761=1|9691=BRSE|9692=B|9697=Timed Out|7761=2|9691=JCSIUS331|9692=B|9697=Timed Out|7761=3|9691=AASIUS33|9692=B|9697=Timed Out|7761=4|9691=SLHIUS3X|9692=B|9697=Timed Out|7761=5|151=0|15=USD|120=USD|38=350000|14=0|6=0.0|761=1|699=912810SS8|60=20210216-10:00:05|126=20210216-09:22:11|75=20210216|20117=7169261|29706=133.43|29707=133.717|29708=148.47|29709=146.73|30=MTXX|29798=7169261|29799=0.000|10=163|
8=FIX.4.4|9=57|35=0|34=30|49=T1Kauaiblk4|52=20210216-10:01:00.002|56=MA|10=087|
8=FIX.4.4|9=57|35=0|34=46|49=MA|52=20210216-10:01:35.492|56=T1Kauaiblk4|10=115|
8=FIX.4.4|9=57|35=0|34=31|49=T1Kauaiblk4|52=20210216-10:02:30.003|56=MA|10=093|
8=FIX.4.4|9=57|35=0|34=47|49=MA|52=20210216-10:03:05.570|56=T1Kauaiblk4|10=112|
8=FIX.4.4|9=57|35=0|34=32|49=T1Kauaiblk4|52=20210216-10:04:00.003|56=MA|10=093|
8=FIX.4.4|9=57|35=0|34=48|49=MA|52=20210216-10:04:36.555|56=T1Kauaiblk4|10=121|
8=FIX.4.4|9=57|35=0|34=33|49=T1Kauaiblk4|52=20210216-10:05:30.004|56=MA|10=099|
8=FIX.4.4|9=57|35=0|34=49|49=MA|52=20210216-10:06:07.570|56=T1Kauaiblk4|10=119|
8=FIX.4.4|9=57|35=0|34=34|49=T1Kauaiblk4|52=20210216-10:07:01.002|56=MA|10=098|
8=FIX.4.4|9=57|35=0|34=50|49=MA|52=20210216-10:07:38.491|56=T1Kauaiblk4|10=118|
8=FIX.4.4|9=57|35=0|34=35|49=T1Kauaiblk4|52=20210216-10:08:31.002|56=MA|10=103|
8=FIX.4.4|9=57|35=0|34=51|49=MA|52=20210216-10:09:08.501|56=T1Kauaiblk4|10=110|
8=FIX.4.4|9=857|35=8|49=MA|56=T1Kauaiblk4|34=52|52=20210216-10:10:00.225|453=2|448=T1Kauaiblk4|447=C|452=11|448=Kauai blkrock company4|447=D|452=13|37=898868|11=ClOrdID-1427|66=ListID-160221-1426|17=898868-15smtm|150=4|19=898868-142scv|39=4|55=[N/A]|54=1|48=06051GEN5|22=1|454=1|455=US06051GEN51|456=4|460=3|167=CORP|541=20420207|223=0.05875|106=BOFAML|225=20120207|873=20120207|107=BAC  5.875  2/7/42|64=20210218|9690=5|9691=MTGSUS6S|9692=B|9694=99.700|9693=6|9695=100000|9697=DNT|7761=1|9691=BRSE|9692=B|9697=Timed Out|7761=2|9691=JCSIUS331|9692=B|9697=Timed Out|7761=3|9691=AASIUS33|9692=B|9697=Timed Out|7761=4|9691=SLHIUS3X|9692=B|9697=Timed Out|7761=5|151=0|15=USD|120=USD|38=100000|14=0|6=0.0|761=1|699=912810SS8|60=20210216-10:10:00|126=20210216-09:22:11|75=20210216|20117=7169257|29706=152.4|29707=153.452|29708=95.09|29709=89.81|30=MTXX|29798=7169257|29799=0.000|10=251|
8=FIX.4.4|9=57|35=0|34=36|49=T1Kauaiblk4|52=20210216-10:10:01.002|56=MA|10=094|
8=FIX.4.4|9=57|35=0|34=53|49=MA|52=20210216-10:11:30.488|56=T1Kauaiblk4|10=114|
8=FIX.4.4|9=57|35=0|34=37|49=T1Kauaiblk4|52=20210216-10:11:31.002|56=MA|10=099|
8=FIX.4.4|9=57|35=0|34=54|49=MA|52=20210216-10:13:00.570|56=T1Kauaiblk4|10=106|
8=FIX.4.4|9=57|35=0|34=38|49=T1Kauaiblk4|52=20210216-10:13:02.000|56=MA|10=098|
8=FIX.4.4|9=57|35=0|34=55|49=MA|52=20210216-10:14:31.532|56=T1Kauaiblk4|10=110|
8=FIX.4.4|9=57|35=0|34=39|49=T1Kauaiblk4|52=20210216-10:14:32.001|56=MA|10=104|
8=FIX.4.4|9=57|35=0|34=56|49=MA|52=20210216-10:16:02.602|56=T1Kauaiblk4|10=109|
8=FIX.4.4|9=57|35=0|34=40|49=T1Kauaiblk4|52=20210216-10:16:02.635|56=MA|10=108|
8=FIX.4.4|9=57|35=0|34=41|49=T1Kauaiblk4|52=20210216-10:17:33.000|56=MA|10=100|
8=FIX.4.4|9=57|35=0|34=57|49=MA|52=20210216-10:17:33.064|56=T1Kauaiblk4|10=117|
8=FIX.4.4|9=57|35=0|34=42|49=T1Kauaiblk4|52=20210216-10:19:03.000|56=MA|10=100|
8=FIX.4.4|9=57|35=0|34=58|49=MA|52=20210216-10:19:03.493|56=T1Kauaiblk4|10=123|
8=FIX.4.4|9=57|35=0|34=59|49=MA|52=20210216-10:20:33.554|56=T1Kauaiblk4|10=117|
8=FIX.4.4|9=57|35=0|34=43|49=T1Kauaiblk4|52=20210216-10:20:33.585|56=MA|10=114|
8=FIX.4.4|9=57|35=0|34=44|49=T1Kauaiblk4|52=20210216-10:22:04.000|56=MA|10=097|
8=FIX.4.4|9=57|35=0|34=60|49=MA|52=20210216-10:22:04.064|56=T1Kauaiblk4|10=105|
8=FIX.4.4|9=57|35=0|34=45|49=T1Kauaiblk4|52=20210216-10:23:34.000|56=MA|10=102|
8=FIX.4.4|9=57|35=0|34=61|49=MA|52=20210216-10:23:34.067|56=T1Kauaiblk4|10=113|
8=FIX.4.4|9=57|35=0|34=62|49=MA|52=20210216-10:25:04.566|56=T1Kauaiblk4|10=117|
8=FIX.4.4|9=57|35=0|34=46|49=T1Kauaiblk4|52=20210216-10:25:04.595|56=MA|10=121|
8=FIX.4.4|9=57|35=0|34=63|49=MA|52=20210216-10:26:34.586|56=T1Kauaiblk4|10=124|
8=FIX.4.4|9=57|35=0|34=47|49=T1Kauaiblk4|52=20210216-10:26:34.614|56=MA|10=118|
8=FIX.4.4|9=57|35=0|34=48|49=T1Kauaiblk4|52=20210216-10:28:04.998|56=MA|10=133|
8=FIX.4.4|9=57|35=0|34=64|49=MA|52=20210216-10:28:05.061|56=T1Kauaiblk4|10=113|
8=FIX.4.4|9=57|35=0|34=49|49=T1Kauaiblk4|52=20210216-10:29:35.000|56=MA|10=113|
8=FIX.4.4|9=57|35=0|34=65|49=MA|52=20210216-10:29:35.069|56=T1Kauaiblk4|10=126|
8=FIX.4.4|9=57|35=0|34=50|49=T1Kauaiblk4|52=20210216-10:31:05.000|56=MA|10=095|
8=FIX.4.4|9=57|35=0|34=66|49=MA|52=20210216-10:31:05.070|56=T1Kauaiblk4|10=109|
8=FIX.4.4|9=791|35=8|49=MA|56=T1Kauaiblk4|34=67|52=20210216-10:31:05.170|453=2|448=T1Kauaiblk4|447=C|452=11|448=Kauai blkrock company4|447=D|452=13|37=898863|11=ClOrdID-1422|66=ListID-160221-1420|17=898863-16jquw|150=4|19=898863-142r8d|39=4|55=[N/A]|54=1|48=40434AAB5|22=1|454=1|455=US40434AAB52|456=4|460=3|167=CORP|541=20260225|223=0.032|106=HSBC BK USA|225=20130225|873=20130225|107=HSBC  3.200  2/25/26 c22|64=20210218|9690=5|9691=MTGSUS6S|9692=B|9697=Timed Out|7761=1|9691=BRSE|9692=B|9697=Timed Out|7761=2|9691=JCSIUS331|9692=B|9697=Timed Out|7761=3|9691=AASIUS33|9692=B|9697=Timed Out|7761=4|9691=SLHIUS3X|9692=B|9697=Timed Out|7761=5|151=0|15=USD|120=USD|38=100000|14=0|6=0.0|761=1|699=91282CBH3|60=20210216-10:31:05|126=20210216-10:26:25|75=20210216|20117=7169252|30=MTXX|29798=7169252|29799=0.000|10=151|
8=FIX.4.4|9=838|35=8|49=MA|56=T1Kauaiblk4|34=68|52=20210216-10:31:05.174|453=2|448=T1Kauaiblk4|447=C|452=11|448=Kauai blkrock company4|447=D|452=13|37=898865|11=ClOrdID-1424|66=ListID-160221-1420|17=898865-16jqv8|150=4|19=898865-142r91|39=4|55=[N/A]|54=1|48=427866AZ1|22=1|454=1|455=US427866AZ15|456=4|460=3|167=CORP|541=20230515|223=0.03375|106=HERSHEY|225=20180510|873=20180510|107=HSY  3.375  5/15/23 c23|64=20210218|9690=5|9691=MTGSUS6S|9692=B|9697=Timed Out|7761=1|9691=BRSE|9692=B|9697=Timed Out|7761=2|9691=JCSIUS331|9692=B|9697=Timed Out|7761=3|9691=AASIUS33|9692=B|9697=Timed Out|7761=4|9691=SLHIUS3X|9692=B|9697=Timed Out|7761=5|151=0|15=USD|120=USD|38=250000|14=0|6=0.0|761=1|699=91282CBG5|60=20210216-10:31:05|126=20210216-10:26:25|75=20210216|20117=7169254|29706=116.036|29707=116.173|29708=9.27|29709=3.21|30=MTXX|29798=7169254|29799=0.000|10=115|
8=FIX.4.4|9=848|35=8|49=MA|56=T1Kauaiblk4|34=69|52=20210216-10:31:05.182|453=2|448=T1Kauaiblk4|447=C|452=11|448=Kauai blkrock company4|447=D|452=13|37=898866|11=ClOrdID-1425|66=ListID-160221-1420|17=898866-16jqvg|150=4|19=898866-142r8o|39=4|55=[N/A]|54=1|48=29379VAW3|22=1|454=1|455=US29379VAW37|456=4|460=3|167=CORP|541=20420815|223=0.0485|106=ENTERPRISE PROD|225=20120215|873=20120215|107=EPD  4.850  8/15/42 c42|64=20210218|9690=5|9691=MTGSUS6S|9692=B|9697=Timed Out|7761=1|9691=BRSE|9692=B|9697=Timed Out|7761=2|9691=JCSIUS331|9692=B|9697=Timed Out|7761=3|9691=AASIUS33|9692=B|9697=Timed Out|7761=4|9691=SLHIUS3X|9692=B|9697=Timed Out|7761=5|151=0|15=USD|120=USD|38=350000|14=0|6=0.0|761=1|699=912810SS8|60=20210216-10:31:05|126=20210216-10:26:25|75=20210216|20117=7169255|29706=132.55|29707=132.837|29708=149.35|29709=147.61|30=MTXX|29798=7169255|29799=0.000|10=208|
8=FIX.4.4|9=846|35=8|49=MA|56=T1Kauaiblk4|34=70|52=20210216-10:31:05.195|453=2|448=T1Kauaiblk4|447=C|452=11|448=Kauai blkrock company4|447=D|452=13|37=898864|11=ClOrdID-1423|66=ListID-160221-1420|17=898864-16jqvk|150=4|19=898864-142r8h|39=4|55=[N/A]|54=1|48=95709TAH3|22=1|454=1|455=US95709TAH32|456=4|460=3|167=CORP|541=20420301|223=0.04125|106=EVERGY KANSAS|225=20120301|873=20120301|107=EVRG  4.125  3/1/42 c41|64=20210218|9690=5|9691=MTGSUS6S|9692=B|9697=Timed Out|7761=1|9691=BRSE|9692=B|9697=Timed Out|7761=2|9691=JCSIUS331|9692=B|9697=Timed Out|7761=3|9691=AASIUS33|9692=B|9697=Timed Out|7761=4|9691=SLHIUS3X|9692=B|9697=Timed Out|7761=5|151=0|15=USD|120=USD|38=130000|14=0|6=0.0|761=1|699=912810SS8|60=20210216-10:31:05|126=20210216-10:26:25|75=20210216|20117=7169253|29706=135.005|29707=135.446|29708=83.74|29709=81.15|30=MTXX|29798=7169253|29799=0.000|10=234|
8=FIX.4.4|9=57|35=0|34=71|49=MA|52=20210216-10:32:35.488|56=T1Kauaiblk4|10=122|
8=FIX.4.4|9=57|35=0|34=51|49=T1Kauaiblk4|52=20210216-10:32:35.514|56=MA|10=110|
8=FIX.4.4|9=57|35=0|34=72|49=MA|52=20210216-10:34:05.552|56=T1Kauaiblk4|10=114|
8=FIX.4.4|9=57|35=0|34=52|49=T1Kauaiblk4|52=20210216-10:34:05.578|56=MA|10=120|
8=FIX.4.4|9=57|35=0|34=53|49=T1Kauaiblk4|52=20210216-10:35:35.999|56=MA|10=132|
8=FIX.4.4|9=57|35=0|34=73|49=MA|52=20210216-10:35:36.063|56=T1Kauaiblk4|10=117|
8=FIX.4.4|9=57|35=0|34=54|49=T1Kauaiblk4|52=20210216-10:37:05.999|56=MA|10=132|
8=FIX.4.4|9=57|35=0|34=74|49=MA|52=20210216-10:37:06.065|56=T1Kauaiblk4|10=119|
8=FIX.4.4|9=57|35=0|34=55|49=T1Kauaiblk4|52=20210216-10:38:35.999|56=MA|10=137|
8=FIX.4.4|9=57|35=0|34=75|49=MA|52=20210216-10:38:36.067|56=T1Kauaiblk4|10=126|
8=FIX.4.4|9=57|35=0|34=56|49=T1Kauaiblk4|52=20210216-10:40:05.999|56=MA|10=128|
8=FIX.4.4|9=57|35=0|34=76|49=MA|52=20210216-10:40:06.068|56=T1Kauaiblk4|10=118|
8=FIX.4.4|9=859|35=8|49=MA|56=T1Kauaiblk4|34=77|52=20210216-10:41:00.281|453=2|448=T1Kauaiblk4|447=C|452=11|448=Kauai blkrock company4|447=D|452=13|37=898862|11=ClOrdID-1421|66=ListID-160221-1420|17=898862-16wi12|150=4|19=898862-142r83|39=4|55=[N/A]|54=1|48=06051GEN5|22=1|454=1|455=US06051GEN51|456=4|460=3|167=CORP|541=20420207|223=0.05875|106=BOFAML|225=20120207|873=20120207|107=BAC  5.875  2/7/42|64=20210218|9690=5|9691=MTGSUS6S|9692=B|9694=100.700|9693=6|9695=100000|9697=DNT|7761=1|9691=BRSE|9692=B|9697=Timed Out|7761=2|9691=JCSIUS331|9692=B|9697=Timed Out|7761=3|9691=AASIUS33|9692=B|9697=Timed Out|7761=4|9691=SLHIUS3X|9692=B|9697=Timed Out|7761=5|151=0|15=USD|120=USD|38=100000|14=0|6=0.0|761=1|699=912810SS8|60=20210216-10:41:00|126=20210216-10:26:25|75=20210216|20117=7169251|29706=152.72|29707=153.773|29708=94.77|29709=89.49|30=MTXX|29798=7169251|29799=0.000|10=091|
8=FIX.4.4|9=57|35=0|34=57|49=T1Kauaiblk4|52=20210216-10:41:35.999|56=MA|10=133|
8=FIX.4.4|9=57|35=0|34=78|49=MA|52=20210216-10:42:30.560|56=T1Kauaiblk4|10=116|
8=FIX.4.4|9=57|35=0|34=58|49=T1Kauaiblk4|52=20210216-10:43:05.999|56=MA|10=133|
8=FIX.4.4|9=57|35=0|34=79|49=MA|52=20210216-10:44:00.565|56=T1Kauaiblk4|10=121|
8=FIX.4.4|9=57|35=0|34=59|49=T1Kauaiblk4|52=20210216-10:44:36.001|56=MA|10=113|
8=FIX.4.4|9=57|35=0|34=80|49=MA|52=20210216-10:45:31.553|56=T1Kauaiblk4|10=115|
8=FIX.4.4|9=57|35=0|34=60|49=T1Kauaiblk4|52=20210216-10:46:06.001|56=MA|10=104|
8=FIX.4.4|9=57|35=0|34=81|49=MA|52=20210216-10:47:02.557|56=T1Kauaiblk4|10=120|
8=FIX.4.4|9=57|35=0|34=61|49=T1Kauaiblk4|52=20210216-10:47:36.003|56=MA|10=111|
8=FIX.4.4|9=57|35=0|34=82|49=MA|52=20210216-10:48:33.563|56=T1Kauaiblk4|10=123|
8=FIX.4.4|9=57|35=0|34=62|49=T1Kauaiblk4|52=20210216-10:49:06.004|56=MA|10=112|
8=FIX.4.4|9=57|35=0|34=83|49=MA|52=20210216-10:50:04.565|56=T1Kauaiblk4|10=117|
8=FIX.4.4|9=57|35=0|34=63|49=T1Kauaiblk4|52=20210216-10:50:36.005|56=MA|10=109|
8=FIX.4.4|9=57|35=0|34=84|49=MA|52=20210216-10:51:34.583|56=T1Kauaiblk4|10=122|
8=FIX.4.4|9=57|35=0|34=64|49=T1Kauaiblk4|52=20210216-10:52:06.007|56=MA|10=111|
8=FIX.4.4|9=57|35=0|34=85|49=MA|52=20210216-10:53:05.562|56=T1Kauaiblk4|10=120|
8=FIX.4.4|9=57|35=0|34=65|49=T1Kauaiblk4|52=20210216-10:53:37.008|56=MA|10=118|
8=FIX.4.4|9=57|35=0|34=86|49=MA|52=20210216-10:54:36.489|56=T1Kauaiblk4|10=134|
8=FIX.4.4|9=57|35=0|34=66|49=T1Kauaiblk4|52=20210216-10:55:08.006|56=MA|10=117|
8=FIX.4.4|9=57|35=0|34=87|49=MA|52=20210216-10:56:06.559|56=T1Kauaiblk4|10=132|
8=FIX.4.4|9=57|35=0|34=67|49=T1Kauaiblk4|52=20210216-10:56:38.007|56=MA|10=123|
8=FIX.4.4|9=57|35=0|34=88|49=MA|52=20210216-10:57:37.489|56=T1Kauaiblk4|10=140|
8=FIX.4.4|9=57|35=0|34=68|49=T1Kauaiblk4|52=20210216-10:58:08.007|56=MA|10=123|
8=FIX.4.4|9=57|35=0|34=89|49=MA|52=20210216-10:59:07.500|56=T1Kauaiblk4|10=124|
8=FIX.4.4|9=57|35=0|34=69|49=T1Kauaiblk4|52=20210216-10:59:38.007|56=MA|10=128|
8=FIX.4.4|9=57|35=0|34=90|49=MA|52=20210216-11:00:37.551|56=T1Kauaiblk4|10=112|
8=FIX.4.4|9=57|35=0|34=70|49=T1Kauaiblk4|52=20210216-11:01:08.008|56=MA|10=106|
8=FIX.4.4|9=57|35=0|34=91|49=MA|52=20210216-11:02:07.564|56=T1Kauaiblk4|10=116|
8=FIX.4.4|9=57|35=0|34=71|49=T1Kauaiblk4|52=20210216-11:02:38.008|56=MA|10=111|
8=FIX.4.4|9=57|35=0|34=92|49=MA|52=20210216-11:03:38.595|56=T1Kauaiblk4|10=126|
8=FIX.4.4|9=57|35=0|34=72|49=T1Kauaiblk4|52=20210216-11:04:08.009|56=MA|10=112|
8=FIX.4.4|9=57|35=0|34=93|49=MA|52=20210216-11:05:09.562|56=T1Kauaiblk4|10=121|
8=FIX.4.4|9=57|35=0|34=73|49=T1Kauaiblk4|52=20210216-11:05:38.011|56=MA|10=110|
8=FIX.4.4|9=57|35=0|34=94|49=MA|52=20210216-11:06:40.489|56=T1Kauaiblk4|10=126|
8=FIX.4.4|9=57|35=0|34=74|49=T1Kauaiblk4|52=20210216-11:07:08.011|56=MA|10=110|
8=FIX.4.4|9=57|35=0|34=95|49=MA|52=20210216-11:08:10.560|56=T1Kauaiblk4|10=116|
8=FIX.4.4|9=57|35=0|34=75|49=T1Kauaiblk4|52=20210216-11:08:38.011|56=MA|10=115|
8=FIX.4.4|9=57|35=0|34=96|49=MA|52=20210216-11:09:40.568|56=T1Kauaiblk4|10=129|
8=FIX.4.4|9=57|35=0|34=76|49=T1Kauaiblk4|52=20210216-11:10:08.012|56=MA|10=107|
8=FIX.4.4|9=57|35=0|34=97|49=MA|52=20210216-11:11:11.558|56=T1Kauaiblk4|10=120|
8=FIX.4.4|9=57|35=0|34=77|49=T1Kauaiblk4|52=20210216-11:11:39.013|56=MA|10=114|
8=FIX.4.4|9=57|35=0|34=98|49=MA|52=20210216-11:12:42.560|56=T1Kauaiblk4|10=119|
8=FIX.4.4|9=57|35=0|34=78|49=T1Kauaiblk4|52=20210216-11:13:10.012|56=MA|10=105|
8=FIX.4.4|9=57|35=0|34=99|49=MA|52=20210216-11:14:13.555|56=T1Kauaiblk4|10=124|
8=FIX.4.4|9=57|35=0|34=79|49=T1Kauaiblk4|52=20210216-11:14:41.011|56=MA|10=110|
8=FIX.4.4|9=58|35=0|34=100|49=MA|52=20210216-11:15:44.562|56=T1Kauaiblk4|10=159|
8=FIX.4.4|9=57|35=0|34=80|49=T1Kauaiblk4|52=20210216-11:16:11.012|56=MA|10=102|
8=FIX.4.4|9=58|35=0|34=101|49=MA|52=20210216-11:17:15.488|56=T1Kauaiblk4|10=167|
8=FIX.4.4|9=57|35=0|34=81|49=T1Kauaiblk4|52=20210216-11:17:41.012|56=MA|10=107|
8=FIX.4.4|9=58|35=0|34=102|49=MA|52=20210216-11:18:45.598|56=T1Kauaiblk4|10=174|
8=FIX.4.4|9=57|35=0|34=82|49=T1Kauaiblk4|52=20210216-11:19:11.015|56=MA|10=110|
8=FIX.4.4|9=58|35=0|34=103|49=MA|52=20210216-11:20:16.560|56=T1Kauaiblk4|10=155|
8=FIX.4.4|9=57|35=0|34=83|49=T1Kauaiblk4|52=20210216-11:20:41.018|56=MA|10=109|
8=FIX.4.4|9=58|35=0|34=104|49=MA|52=20210216-11:21:47.490|56=T1Kauaiblk4|10=163|
8=FIX.4.4|9=57|35=0|34=84|49=T1Kauaiblk4|52=20210216-11:22:11.020|56=MA|10=102|
8=FIX.4.4|9=58|35=0|34=105|49=MA|52=20210216-11:23:17.554|56=T1Kauaiblk4|10=164|
8=FIX.4.4|9=57|35=0|34=85|49=T1Kauaiblk4|52=20210216-11:23:41.021|56=MA|10=108|
8=FIX.4.4|9=58|35=0|34=106|49=MA|52=20210216-11:24:47.557|56=T1Kauaiblk4|10=172|
8=FIX.4.4|9=57|35=0|34=86|49=T1Kauaiblk4|52=20210216-11:25:11.023|56=MA|10=110|
8=FIX.4.4|9=58|35=0|34=107|49=MA|52=20210216-11:26:18.554|56=T1Kauaiblk4|10=170|
8=FIX.4.4|9=57|35=0|34=87|49=T1Kauaiblk4|52=20210216-11:26:41.023|56=MA|10=115|
8=FIX.4.4|9=58|35=0|34=108|49=MA|52=20210216-11:27:48.556|56=T1Kauaiblk4|10=177|
8=FIX.4.4|9=57|35=0|34=88|49=T1Kauaiblk4|52=20210216-11:28:11.023|56=MA|10=115|
8=FIX.4.4|9=58|35=0|34=109|49=MA|52=20210216-11:29:19.552|56=T1Kauaiblk4|10=174|
8=FIX.4.4|9=57|35=0|34=89|49=T1Kauaiblk4|52=20210216-11:29:41.025|56=MA|10=122|
8=FIX.4.4|9=58|35=0|34=110|49=MA|52=20210216-11:30:49.608|56=T1Kauaiblk4|10=163|
8=FIX.4.4|9=57|35=0|34=90|49=T1Kauaiblk4|52=20210216-11:31:12.025|56=MA|10=105|
8=FIX.4.4|9=58|35=0|34=111|49=MA|52=20210216-11:32:20.493|56=T1Kauaiblk4|10=157|
8=FIX.4.4|9=57|35=0|34=91|49=T1Kauaiblk4|52=20210216-11:32:42.026|56=MA|10=111|
8=FIX.4.4|9=58|35=0|34=112|49=MA|52=20210216-11:33:51.556|56=T1Kauaiblk4|10=163|
8=FIX.4.4|9=57|35=0|34=92|49=T1Kauaiblk4|52=20210216-11:34:12.026|56=MA|10=111|
8=FIX.4.4|9=58|35=0|34=113|49=MA|52=20210216-11:35:22.564|56=T1Kauaiblk4|10=163|
8=FIX.4.4|9=57|35=0|34=93|49=T1Kauaiblk4|52=20210216-11:35:43.027|56=MA|10=118|
8=FIX.4.4|9=58|35=0|34=114|49=MA|52=20210216-11:36:53.555|56=T1Kauaiblk4|10=169|
8=FIX.4.4|9=57|35=0|34=94|49=T1Kauaiblk4|52=20210216-11:37:14.024|56=MA|10=116|
8=FIX.4.4|9=58|35=0|34=115|49=MA|52=20210216-11:38:24.585|56=T1Kauaiblk4|10=173|
8=FIX.4.4|9=57|35=0|34=95|49=T1Kauaiblk4|52=20210216-11:38:45.023|56=MA|10=121|
8=FIX.4.4|9=58|35=0|34=116|49=MA|52=20210216-11:39:55.520|56=T1Kauaiblk4|10=168|
8=FIX.4.4|9=57|35=0|34=96|49=T1Kauaiblk4|52=20210216-11:40:16.022|56=MA|10=112|
8=FIX.4.4|9=58|35=0|34=117|49=MA|52=20210216-11:41:25.555|56=T1Kauaiblk4|10=167|
8=FIX.4.4|9=57|35=0|34=97|49=T1Kauaiblk4|52=20210216-11:41:46.023|56=MA|10=118|
8=FIX.4.4|9=58|35=0|34=118|49=MA|52=20210216-11:42:56.554|56=T1Kauaiblk4|10=172|
8=FIX.4.4|9=57|35=0|34=98|49=T1Kauaiblk4|52=20210216-11:43:17.022|56=MA|10=118|
8=FIX.4.4|9=58|35=0|34=119|49=MA|52=20210216-11:44:27.590|56=T1Kauaiblk4|10=173|
8=FIX.4.4|9=57|35=0|34=99|49=T1Kauaiblk4|52=20210216-11:44:47.022|56=MA|10=123|
8=FIX.4.4|9=58|35=0|34=120|49=MA|52=20210216-11:45:58.665|56=T1Kauaiblk4|10=173|
8=FIX.4.4|9=58|35=0|34=100|49=T1Kauaiblk4|52=20210216-11:46:18.021|56=MA|10=154|
8=FIX.4.4|9=58|35=0|34=121|49=MA|52=20210216-11:47:29.490|56=T1Kauaiblk4|10=170|
8=FIX.4.4|9=58|35=0|34=101|49=T1Kauaiblk4|52=20210216-11:47:49.021|56=MA|10=160|
8=FIX.4.4|9=58|35=0|34=122|49=MA|52=20210216-11:48:59.564|56=T1Kauaiblk4|10=177|
8=FIX.4.4|9=58|35=0|34=102|49=T1Kauaiblk4|52=20210216-11:49:20.020|56=MA|10=151|
8=FIX.4.4|9=58|35=0|34=123|49=MA|52=20210216-11:50:29.565|56=T1Kauaiblk4|10=169|
8=FIX.4.4|9=58|35=0|34=103|49=T1Kauaiblk4|52=20210216-11:50:50.020|56=MA|10=147|
8=FIX.4.4|9=58|35=0|34=124|49=MA|52=20210216-11:52:00.560|56=T1Kauaiblk4|10=156|
8=FIX.4.4|9=58|35=0|34=104|49=T1Kauaiblk4|52=20210216-11:52:20.022|56=MA|10=149|
8=FIX.4.4|9=58|35=0|34=125|49=MA|52=20210216-11:53:30.562|56=T1Kauaiblk4|10=163|
8=FIX.4.4|9=58|35=0|34=105|49=T1Kauaiblk4|52=20210216-11:53:50.025|56=MA|10=157|
8=FIX.4.4|9=58|35=0|34=126|49=MA|52=20210216-11:55:00.584|56=T1Kauaiblk4|10=167|
8=FIX.4.4|9=58|35=0|34=106|49=T1Kauaiblk4|52=20210216-11:55:20.031|56=MA|10=154|
8=FIX.4.4|9=58|35=0|34=127|49=MA|52=20210216-11:56:31.557|56=T1Kauaiblk4|10=173|
8=FIX.4.4|9=58|35=0|34=107|49=T1Kauaiblk4|52=20210216-11:56:50.036|56=MA|10=164|
8=FIX.4.4|9=58|35=0|34=128|49=MA|52=20210216-11:58:02.592|56=T1Kauaiblk4|10=173|
8=FIX.4.4|9=58|35=0|34=108|49=T1Kauaiblk4|52=20210216-11:58:20.038|56=MA|10=166|
8=FIX.4.4|9=58|35=0|34=129|49=MA|52=20210216-11:59:33.540|56=T1Kauaiblk4|10=172|
8=FIX.4.4|9=58|35=0|34=109|49=T1Kauaiblk4|52=20210216-11:59:50.041|56=MA|10=165|
8=FIX.4.4|9=58|35=5|34=130|49=MA|52=20210216-11:59:56.537|56=T1Kauaiblk4|10=180|
8=FIX.4.4|9=58|35=5|34=110|49=T1Kauaiblk4|52=20210216-11:59:56.590|56=MA|10=177|
8=FIX.4.4|9=91|35=A|34=1|49=T1Kauaiblk4|52=20210216-17:45:22.122|56=MA|98=0|108=90|95=8|96=3.0.0rc5|141=Y|10=032|
8=FIX.4.4|9=74|35=A|34=1|49=MA|52=20210216-17:45:22.818|56=T1Kauaiblk4|98=0|108=90|141=Y|10=163|
8=FIX.4.4|9=699|35=E|34=2|49=T1Kauaiblk4|52=20210216-17:45:27.591|56=MA|66=ListID-160221-1432|394=2|68=5|73=5|11=ClOrdID-1433|22=4|38=100000|44=100|48=US06051GEN51|54=1|55=[N/A/]|63=3|67=1|423=1|29726=100.25|453=1|448=T1Kauaiblk4|447=C|452=11|11=ClOrdID-1434|22=4|38=100000|44=101|48=US40434AAB52|54=1|55=[N/A]|63=3|67=2|29726=101.25|11=ClOrdID-1435|22=4|38=130000|44=102|48=US95709TAH32|54=1|55=[N/A/]|63=3|67=1|29726=102.25|453=1|448=T1Kauaiblk4|447=C|452=11|11=ClOrdID-1436|22=4|38=250000|44=103|48=US427866AZ15|54=1|55=[N/A/]|63=3|67=1|29726=103.25|453=1|448=T1Kauaiblk4|447=C|452=11|11=ClOrdID-1437|22=4|38=350000|44=104|48=US29379VAW37|54=1|55=[N/A/]|63=3|67=1|29726=104.25|453=1|448=T1Kauaiblk4|447=C|452=11|10=142|
8=FIX.4.4|9=502|35=8|49=MA|56=T1Kauaiblk4|34=2|52=20210216-17:45:27.882|453=2|448=T1Kauaiblk4|447=C|452=11|448=Kauai blkrock company4|447=D|452=13|37=899931|11=ClOrdID-1433|66=ListID-160221-1432|17=899931-1m2czh|150=0|39=0|55=[N/A]|54=1|48=US06051GEN51|22=4|454=1|455=06051GEN5|456=1|460=3|167=CORP|541=20420207|223=0.05875|106=BOFAML|225=20120207|873=20120207|107=BAC  5.875  2/7/42|64=20210218|151=100000|15=USD|120=USD|38=100000|14=0|6=0|60=20210216-17:45:27|126=20210216-17:45:27|75=20210216|20117=7173910|30=MTXX|10=209|
8=FIX.4.4|9=515|35=8|49=MA|56=T1Kauaiblk4|34=3|52=20210216-17:45:27.890|453=2|448=T1Kauaiblk4|447=C|452=11|448=Kauai blkrock company4|447=D|452=13|37=899935|11=ClOrdID-1437|66=ListID-160221-1432|17=899935-1m2czn|150=0|39=0|55=[N/A]|54=1|48=US29379VAW37|22=4|454=1|455=29379VAW3|456=1|460=3|167=CORP|541=20420815|223=0.0485|106=ENTERPRISE PROD|225=20120215|873=20120215|107=EPD  4.850  8/15/42 c42|64=20210218|151=350000|15=USD|120=USD|38=350000|14=0|6=0|60=20210216-17:45:27|126=20210216-17:45:27|75=20210216|20117=7173914|30=MTXX|10=224|
8=FIX.4.4|9=514|35=8|49=MA|56=T1Kauaiblk4|34=4|52=20210216-17:45:27.901|453=2|448=T1Kauaiblk4|447=C|452=11|448=Kauai blkrock company4|447=D|452=13|37=899933|11=ClOrdID-1435|66=ListID-160221-1432|17=899933-1m2czm|150=0|39=0|55=[N/A]|54=1|48=US95709TAH32|22=4|454=1|455=95709TAH3|456=1|460=3|167=CORP|541=20420301|223=0.04125|106=EVERGY KANSAS|225=20120301|873=20120301|107=EVRG  4.125  3/1/42 c41|64=20210218|151=130000|15=USD|120=USD|38=130000|14=0|6=0|60=20210216-17:45:27|126=20210216-17:45:27|75=20210216|20117=7173912|30=MTXX|10=050|
8=FIX.4.4|9=508|35=8|49=MA|56=T1Kauaiblk4|34=5|52=20210216-17:45:27.908|453=2|448=T1Kauaiblk4|447=C|452=11|448=Kauai blkrock company4|447=D|452=13|37=899934|11=ClOrdID-1436|66=ListID-160221-1432|17=899934-1m2czq|150=0|39=0|55=[N/A]|54=1|48=US427866AZ15|22=4|454=1|455=427866AZ1|456=1|460=3|167=CORP|541=20230515|223=0.03375|106=HERSHEY|225=20180510|873=20180510|107=HSY  3.375  5/15/23 c23|64=20210218|151=250000|15=USD|120=USD|38=250000|14=0|6=0|60=20210216-17:45:27|126=20210216-17:45:27|75=20210216|20117=7173913|30=MTXX|10=169|
8=FIX.4.4|9=511|35=8|49=MA|56=T1Kauaiblk4|34=6|52=20210216-17:45:27.912|453=2|448=T1Kauaiblk4|447=C|452=11|448=Kauai blkrock company4|447=D|452=13|37=899932|11=ClOrdID-1434|66=ListID-160221-1432|17=899932-1m2czr|150=0|39=0|55=[N/A]|54=1|48=US40434AAB52|22=4|454=1|455=40434AAB5|456=1|460=3|167=CORP|541=20260225|223=0.032|106=HSBC BK USA|225=20130225|873=20130225|107=HSBC  3.200  2/25/26 c22|64=20210218|151=100000|15=USD|120=USD|38=100000|14=0|6=0|60=20210216-17:45:27|126=20210216-17:45:27|75=20210216|20117=7173911|30=MTXX|10=204|
8=FIX.4.4|9=699|35=E|34=3|49=T1Kauaiblk4|52=20210216-17:45:30.403|56=MA|66=ListID-160221-1438|394=2|68=5|73=5|11=ClOrdID-1439|22=4|38=100000|44=100|48=US06051GEN51|54=1|55=[N/A/]|63=3|67=1|423=1|29726=100.25|453=1|448=T1Kauaiblk4|447=C|452=11|11=ClOrdID-1440|22=4|38=100000|44=101|48=US40434AAB52|54=1|55=[N/A]|63=3|67=2|29726=101.25|11=ClOrdID-1441|22=4|38=130000|44=102|48=US95709TAH32|54=1|55=[N/A/]|63=3|67=1|29726=102.25|453=1|448=T1Kauaiblk4|447=C|452=11|11=ClOrdID-1442|22=4|38=250000|44=103|48=US427866AZ15|54=1|55=[N/A/]|63=3|67=1|29726=103.25|453=1|448=T1Kauaiblk4|447=C|452=11|11=ClOrdID-1443|22=4|38=350000|44=104|48=US29379VAW37|54=1|55=[N/A/]|63=3|67=1|29726=104.25|453=1|448=T1Kauaiblk4|447=C|452=11|10=129|
8=FIX.4.4|9=502|35=8|49=MA|56=T1Kauaiblk4|34=7|52=20210216-17:45:30.647|453=2|448=T1Kauaiblk4|447=C|452=11|448=Kauai blkrock company4|447=D|452=13|37=899937|11=ClOrdID-1439|66=ListID-160221-1438|17=899937-1m2f4b|150=0|39=0|55=[N/A]|54=1|48=US06051GEN51|22=4|454=1|455=06051GEN5|456=1|460=3|167=CORP|541=20420207|223=0.05875|106=BOFAML|225=20120207|873=20120207|107=BAC  5.875  2/7/42|64=20210218|151=100000|15=USD|120=USD|38=100000|14=0|6=0|60=20210216-17:45:30|126=20210216-17:45:30|75=20210216|20117=7173916|30=MTXX|10=152|
8=FIX.4.4|9=515|35=8|49=MA|56=T1Kauaiblk4|34=8|52=20210216-17:45:30.653|453=2|448=T1Kauaiblk4|447=C|452=11|448=Kauai blkrock company4|447=D|452=13|37=899941|11=ClOrdID-1443|66=ListID-160221-1438|17=899941-1m2f4g|150=0|39=0|55=[N/A]|54=1|48=US29379VAW37|22=4|454=1|455=29379VAW3|456=1|460=3|167=CORP|541=20420815|223=0.0485|106=ENTERPRISE PROD|225=20120215|873=20120215|107=EPD  4.850  8/15/42 c42|64=20210218|151=350000|15=USD|120=USD|38=350000|14=0|6=0|60=20210216-17:45:30|126=20210216-17:45:30|75=20210216|20117=7173920|30=MTXX|10=128|
8=FIX.4.4|9=514|35=8|49=MA|56=T1Kauaiblk4|34=9|52=20210216-17:45:30.657|453=2|448=T1Kauaiblk4|447=C|452=11|448=Kauai blkrock company4|447=D|452=13|37=899939|11=ClOrdID-1441|66=ListID-160221-1438|17=899939-1m2f4j|150=0|39=0|55=[N/A]|54=1|48=US95709TAH32|22=4|454=1|455=95709TAH3|456=1|460=3|167=CORP|541=20420301|223=0.04125|106=EVERGY KANSAS|225=20120301|873=20120301|107=EVRG  4.125  3/1/42 c41|64=20210218|151=130000|15=USD|120=USD|38=130000|14=0|6=0|60=20210216-17:45:30|126=20210216-17:45:30|75=20210216|20117=7173918|30=MTXX|10=252|
8=FIX.4.4|9=509|35=8|49=MA|56=T1Kauaiblk4|34=10|52=20210216-17:45:30.662|453=2|448=T1Kauaiblk4|447=C|452=11|448=Kauai blkrock company4|447=D|452=13|37=899940|11=ClOrdID-1442|66=ListID-160221-1438|17=899940-1m2f4h|150=0|39=0|55=[N/A]|54=1|48=US427866AZ15|22=4|454=1|455=427866AZ1|456=1|460=3|167=CORP|541=20230515|223=0.03375|106=HERSHEY|225=20180510|873=20180510|107=HSY  3.375  5/15/23 c23|64=20210218|151=250000|15=USD|120=USD|38=250000|14=0|6=0|60=20210216-17:45:30|126=20210216-17:45:30|75=20210216|20117=7173919|30=MTXX|10=120|
8=FIX.4.4|9=512|35=8|49=MA|56=T1Kauaiblk4|34=11|52=20210216-17:45:30.677|453=2|448=T1Kauaiblk4|447=C|452=11|448=Kauai blkrock company4|447=D|452=13|37=899938|11=ClOrdID-1440|66=ListID-160221-1438|17=899938-1m2f4m|150=0|39=0|55=[N/A]|54=1|48=US40434AAB52|22=4|454=1|455=40434AAB5|456=1|460=3|167=CORP|541=20260225|223=0.032|106=HSBC BK USA|225=20130225|873=20130225|107=HSBC  3.200  2/25/26 c22|64=20210218|151=100000|15=USD|120=USD|38=100000|14=0|6=0|60=20210216-17:45:30|126=20210216-17:45:30|75=20210216|20117=7173917|30=MTXX|10=188|
8=FIX.4.4|9=699|35=E|34=4|49=T1Kauaiblk4|52=20210216-17:45:32.111|56=MA|66=ListID-160221-1444|394=2|68=5|73=5|11=ClOrdID-1445|22=4|38=100000|44=100|48=US06051GEN51|54=1|55=[N/A/]|63=3|67=1|423=1|29726=100.25|453=1|448=T1Kauaiblk4|447=C|452=11|11=ClOrdID-1446|22=4|38=100000|44=101|48=US40434AAB52|54=1|55=[N/A]|63=3|67=2|29726=101.25|11=ClOrdID-1447|22=4|38=130000|44=102|48=US95709TAH32|54=1|55=[N/A/]|63=3|67=1|29726=102.25|453=1|448=T1Kauaiblk4|447=C|452=11|11=ClOrdID-1448|22=4|38=250000|44=103|48=US427866AZ15|54=1|55=[N/A/]|63=3|67=1|29726=103.25|453=1|448=T1Kauaiblk4|447=C|452=11|11=ClOrdID-1449|22=4|38=350000|44=104|48=US29379VAW37|54=1|55=[N/A/]|63=3|67=1|29726=104.25|453=1|448=T1Kauaiblk4|447=C|452=11|10=146|
8=FIX.4.4|9=516|35=8|49=MA|56=T1Kauaiblk4|34=12|52=20210216-17:45:32.397|453=2|448=T1Kauaiblk4|447=C|452=11|448=Kauai blkrock company4|447=D|452=13|37=899947|11=ClOrdID-1449|66=ListID-160221-1444|17=899947-1m2gh2|150=0|39=0|55=[N/A]|54=1|48=US29379VAW37|22=4|454=1|455=29379VAW3|456=1|460=3|167=CORP|541=20420815|223=0.0485|106=ENTERPRISE PROD|225=20120215|873=20120215|107=EPD  4.850  8/15/42 c42|64=20210218|151=350000|15=USD|120=USD|38=350000|14=0|6=0|60=20210216-17:45:32|126=20210216-17:45:32|75=20210216|20117=7173926|30=MTXX|10=204|
8=FIX.4.4|9=503|35=8|49=MA|56=T1Kauaiblk4|34=13|52=20210216-17:45:32.410|453=2|448=T1Kauaiblk4|447=C|452=11|448=Kauai blkrock company4|447=D|452=13|37=899943|11=ClOrdID-1445|66=ListID-160221-1444|17=899943-1m2gh6|150=0|39=0|55=[N/A]|54=1|48=US06051GEN51|22=4|454=1|455=06051GEN5|456=1|460=3|167=CORP|541=20420207|223=0.05875|106=BOFAML|225=20120207|873=20120207|107=BAC  5.875  2/7/42|64=20210218|151=100000|15=USD|120=USD|38=100000|14=0|6=0|60=20210216-17:45:32|126=20210216-17:45:32|75=20210216|20117=7173922|30=MTXX|10=186|
8=FIX.4.4|9=512|35=8|49=MA|56=T1Kauaiblk4|34=14|52=20210216-17:45:32.447|453=2|448=T1Kauaiblk4|447=C|452=11|448=Kauai blkrock company4|447=D|452=13|37=899944|11=ClOrdID-1446|66=ListID-160221-1444|17=899944-1m2ghb|150=0|39=0|55=[N/A]|54=1|48=US40434AAB52|22=4|454=1|455=40434AAB5|456=1|460=3|167=CORP|541=20260225|223=0.032|106=HSBC BK USA|225=20130225|873=20130225|107=HSBC  3.200  2/25/26 c22|64=20210218|151=100000|15=USD|120=USD|38=100000|14=0|6=0|60=20210216-17:45:32|126=20210216-17:45:32|75=20210216|20117=7173923|30=MTXX|10=228|
8=FIX.4.4|9=515|35=8|49=MA|56=T1Kauaiblk4|34=15|52=20210216-17:45:32.453|453=2|448=T1Kauaiblk4|447=C|452=11|448=Kauai blkrock company4|447=D|452=13|37=899945|11=ClOrdID-1447|66=ListID-160221-1444|17=899945-1m2ghd|150=0|39=0|55=[N/A]|54=1|48=US95709TAH32|22=4|454=1|455=95709TAH3|456=1|460=3|167=CORP|541=20420301|223=0.04125|106=EVERGY KANSAS|225=20120301|873=20120301|107=EVRG  4.125  3/1/42 c41|64=20210218|151=130000|15=USD|120=USD|38=130000|14=0|6=0|60=20210216-17:45:32|126=20210216-17:45:32|75=20210216|20117=7173924|30=MTXX|10=083|
8=FIX.4.4|9=509|35=8|49=MA|56=T1Kauaiblk4|34=16|52=20210216-17:45:32.457|453=2|448=T1Kauaiblk4|447=C|452=11|448=Kauai blkrock company4|447=D|452=13|37=899946|11=ClOrdID-1448|66=ListID-160221-1444|17=899946-1m2ghg|150=0|39=0|55=[N/A]|54=1|48=US427866AZ15|22=4|454=1|455=427866AZ1|456=1|460=3|167=CORP|541=20230515|223=0.03375|106=HERSHEY|225=20180510|873=20180510|107=HSY  3.375  5/15/23 c23|64=20210218|151=250000|15=USD|120=USD|38=250000|14=0|6=0|60=20210216-17:45:32|126=20210216-17:45:32|75=20210216|20117=7173925|30=MTXX|10=198|
8=FIX.4.4|9=56|35=0|34=5|49=T1Kauaiblk4|52=20210216-17:47:02.123|56=MA|10=063|
8=FIX.4.4|9=57|35=0|34=17|49=MA|52=20210216-17:47:02.651|56=T1Kauaiblk4|10=121|
8=FIX.4.4|9=56|35=0|34=6|49=T1Kauaiblk4|52=20210216-17:48:32.124|56=MA|10=069|
8=FIX.4.4|9=57|35=0|34=18|49=MA|52=20210216-17:48:33.646|56=T1Kauaiblk4|10=131|
8=FIX.4.4|9=846|35=8|49=MA|56=T1Kauaiblk4|34=19|52=20210216-17:50:00.240|453=2|448=T1Kauaiblk4|447=C|452=11|448=Kauai blkrock company4|447=D|452=13|37=899945|11=ClOrdID-1447|66=ListID-160221-1444|17=899945-1m874w|150=4|19=899945-1m2ghd|39=4|55=[N/A]|54=1|48=95709TAH3|22=1|454=1|455=US95709TAH32|456=4|460=3|167=CORP|541=20420301|223=0.04125|106=EVERGY KANSAS|225=20120301|873=20120301|107=EVRG  4.125  3/1/42 c41|64=20210218|9690=5|9691=MTGSUS6S|9692=B|9697=Timed Out|7761=1|9691=AASIUS33|9692=B|9697=Timed Out|7761=2|9691=BRSE|9692=B|9697=Timed Out|7761=3|9691=JCSIUS331|9692=B|9697=Timed Out|7761=4|9691=SLHIUS3X|9692=B|9697=Timed Out|7761=5|151=0|15=USD|120=USD|38=130000|14=0|6=0.0|761=1|699=912810SS8|60=20210216-17:50:00|126=20210216-17:45:50|75=20210216|20117=7173924|29706=126.775|29707=127.216|29708=91.97|29709=89.38|30=MTXX|29798=7173924|29799=0.000|10=009|
8=FIX.4.4|9=791|35=8|49=MA|56=T1Kauaiblk4|34=20|52=20210216-17:50:00.246|453=2|448=T1Kauaiblk4|447=C|452=11|448=Kauai blkrock company4|447=D|452=13|37=899944|11=ClOrdID-1446|66=ListID-160221-1444|17=899944-1m874u|150=4|19=899944-1m2ghb|39=4|55=[N/A]|54=1|48=40434AAB5|22=1|454=1|455=US40434AAB52|456=4|460=3|167=CORP|541=20260225|223=0.032|106=HSBC BK USA|225=20130225|873=20130225|107=HSBC  3.200  2/25/26 c22|64=20210218|9690=5|9691=MTGSUS6S|9692=B|9697=Timed Out|7761=1|9691=AASIUS33|9692=B|9697=Timed Out|7761=2|9691=BRSE|9692=B|9697=Timed Out|7761=3|9691=JCSIUS331|9692=B|9697=Timed Out|7761=4|9691=SLHIUS3X|9692=B|9697=Timed Out|7761=5|151=0|15=USD|120=USD|38=100000|14=0|6=0.0|761=1|699=91282CBH3|60=20210216-17:50:00|126=20210216-17:45:50|75=20210216|20117=7173923|30=MTXX|29798=7173923|29799=0.000|10=143|
8=FIX.4.4|9=838|35=8|49=MA|56=T1Kauaiblk4|34=21|52=20210216-17:50:00.254|453=2|448=T1Kauaiblk4|447=C|452=11|448=Kauai blkrock company4|447=D|452=13|37=899946|11=ClOrdID-1448|66=ListID-160221-1444|17=899946-1m875g|150=4|19=899946-1m2ghg|39=4|55=[N/A]|54=1|48=427866AZ1|22=1|454=1|455=US427866AZ15|456=4|460=3|167=CORP|541=20230515|223=0.03375|106=HERSHEY|225=20180510|873=20180510|107=HSY  3.375  5/15/23 c23|64=20210218|9690=5|9691=MTGSUS6S|9692=B|9697=Timed Out|7761=1|9691=AASIUS33|9692=B|9697=Timed Out|7761=2|9691=BRSE|9692=B|9697=Timed Out|7761=3|9691=JCSIUS331|9692=B|9697=Timed Out|7761=4|9691=SLHIUS3X|9692=B|9697=Timed Out|7761=5|151=0|15=USD|120=USD|38=250000|14=0|6=0.0|761=1|699=91282CBG5|60=20210216-17:50:00|126=20210216-17:45:50|75=20210216|20117=7173925|29706=116.736|29707=116.873|29708=8.57|29709=2.51|30=MTXX|29798=7173925|29799=0.000|10=224|
8=FIX.4.4|9=848|35=8|49=MA|56=T1Kauaiblk4|34=22|52=20210216-17:50:00.261|453=2|448=T1Kauaiblk4|447=C|452=11|448=Kauai blkrock company4|447=D|452=13|37=899947|11=ClOrdID-1449|66=ListID-160221-1444|17=899947-1m8757|150=4|19=899947-1m2gh2|39=4|55=[N/A]|54=1|48=29379VAW3|22=1|454=1|455=US29379VAW37|456=4|460=3|167=CORP|541=20420815|223=0.0485|106=ENTERPRISE PROD|225=20120215|873=20120215|107=EPD  4.850  8/15/42 c42|64=20210218|9690=5|9691=MTGSUS6S|9692=B|9697=Timed Out|7761=1|9691=AASIUS33|9692=B|9697=Timed Out|7761=2|9691=BRSE|9692=B|9697=Timed Out|7761=3|9691=JCSIUS331|9692=B|9697=Timed Out|7761=4|9691=SLHIUS3X|9692=B|9697=Timed Out|7761=5|151=0|15=USD|120=USD|38=350000|14=0|6=0.0|761=1|699=912810SS8|60=20210216-17:50:00|126=20210216-17:45:50|75=20210216|20117=7173926|29706=137.87|29707=138.157|29708=144.03|29709=142.29|30=MTXX|29798=7173926|29799=0.000|10=089|
8=FIX.4.4|9=56|35=0|34=7|49=T1Kauaiblk4|52=20210216-17:50:02.124|56=MA|10=060|
8=FIX.4.4|9=57|35=0|34=23|49=MA|52=20210216-17:51:31.036|56=T1Kauaiblk4|10=112|
8=FIX.4.4|9=56|35=0|34=8|49=T1Kauaiblk4|52=20210216-17:51:33.123|56=MA|10=065|
8=FIX.4.4|9=929|35=8|49=MA|56=T1Kauaiblk4|34=24|52=20210216-17:52:06.168|453=2|448=T1Kauaiblk4|447=C|452=11|448=Kauai blkrock company4|447=D|452=13|37=899943|11=ClOrdID-1445|66=ListID-160221-1444|17=899943-1mawb3|150=4|19=899943-1m2gh6|39=4|55=[N/A]|54=1|48=06051GEN5|22=1|454=1|455=US06051GEN51|456=4|460=3|167=CORP|541=20420207|223=0.05875|106=BOFAML|225=20120207|873=20120207|107=BAC  5.875  2/7/42|64=20210218|9690=5|9691=AASIUS33|9692=B|9694=98.500|9693=6|5691=143.135|9695=100000|9697=Client Passed|7761=1|9691=MTGSUS6S|9692=B|9694=97.700|9693=6|5691=143.291|9695=100000|9697=Client Passed|7761=2|9691=BRSE|9692=B|9697=Timed Out|7761=3|9691=JCSIUS331|9692=B|9697=Timed Out|7761=4|9691=SLHIUS3X|9692=B|9697=Timed Out|7761=5|151=0|15=USD|120=USD|38=100000|14=0|6=0.0|761=1|699=912810SS8|60=20210216-17:52:06|126=20210216-17:45:50|75=20210216|20117=7173922|29706=158.66|29707=159.712|29708=88.83|29709=83.55|30=MTXX|29798=7173922|29799=0.000|10=117|
8=FIX.4.4|9=56|35=0|34=9|49=T1Kauaiblk4|52=20210216-17:53:03.123|56=MA|10=065|
8=FIX.4.4|9=57|35=0|34=25|49=MA|52=20210216-17:53:36.622|56=T1Kauaiblk4|10=122|
8=FIX.4.4|9=57|35=0|34=10|49=T1Kauaiblk4|52=20210216-17:54:33.123|56=MA|10=110|
8=FIX.4.4|9=848|35=8|49=MA|56=T1Kauaiblk4|34=26|52=20210216-17:55:00.403|453=2|448=T1Kauaiblk4|447=C|452=11|448=Kauai blkrock company4|447=D|452=13|37=899085|11=ClOrdID-M1414|66=ListID-160221-M1411|17=899085-1memqx|150=4|19=899085-1bohh2|39=4|55=[N/A]|54=1|48=95709TAH3|22=1|454=1|455=US95709TAH32|456=4|460=3|167=CORP|541=20420301|223=0.04125|106=EVERGY KANSAS|225=20120301|873=20120301|107=EVRG  4.125  3/1/42 c41|64=20210218|9690=5|9691=MTGSUS6S|9692=B|9697=Timed Out|7761=1|9691=AASIUS33|9692=B|9697=Timed Out|7761=2|9691=SLHIUS3X|9692=B|9697=Timed Out|7761=3|9691=BRSE|9692=B|9697=Timed Out|7761=4|9691=JCSIUS331|9692=B|9697=Timed Out|7761=5|151=0|15=USD|120=USD|38=130000|14=0|6=0.0|761=1|699=912810SS8|60=20210216-17:55:00|126=20210216-17:52:46|75=20210216|20117=7171997|29706=126.775|29707=127.216|29708=91.97|29709=89.38|30=MTXX|29798=7171997|29799=0.000|10=072|
8=FIX.4.4|9=793|35=8|49=MA|56=T1Kauaiblk4|34=27|52=20210216-17:55:00.407|453=2|448=T1Kauaiblk4|447=C|452=11|448=Kauai blkrock company4|447=D|452=13|37=899084|11=ClOrdID-M1413|66=ListID-160221-M1411|17=899084-1memqy|150=4|19=899084-1bohh7|39=4|55=[N/A]|54=1|48=40434AAB5|22=1|454=1|455=US40434AAB52|456=4|460=3|167=CORP|541=20260225|223=0.032|106=HSBC BK USA|225=20130225|873=20130225|107=HSBC  3.200  2/25/26 c22|64=20210218|9690=5|9691=MTGSUS6S|9692=B|9697=Timed Out|7761=1|9691=AASIUS33|9692=B|9697=Timed Out|7761=2|9691=SLHIUS3X|9692=B|9697=Timed Out|7761=3|9691=BRSE|9692=B|9697=Timed Out|7761=4|9691=JCSIUS331|9692=B|9697=Timed Out|7761=5|151=0|15=USD|120=USD|38=100000|14=0|6=0.0|761=1|699=91282CBH3|60=20210216-17:55:00|126=20210216-17:52:46|75=20210216|20117=7171996|30=MTXX|29798=7171996|29799=0.000|10=223|
8=FIX.4.4|9=850|35=8|49=MA|56=T1Kauaiblk4|34=28|52=20210216-17:55:00.410|453=2|448=T1Kauaiblk4|447=C|452=11|448=Kauai blkrock company4|447=D|452=13|37=899087|11=ClOrdID-M1416|66=ListID-160221-M1411|17=899087-1memr3|150=4|19=899087-1bohgz|39=4|55=[N/A]|54=1|48=29379VAW3|22=1|454=1|455=US29379VAW37|456=4|460=3|167=CORP|541=20420815|223=0.0485|106=ENTERPRISE PROD|225=20120215|873=20120215|107=EPD  4.850  8/15/42 c42|64=20210218|9690=5|9691=MTGSUS6S|9692=B|9697=Timed Out|7761=1|9691=AASIUS33|9692=B|9697=Timed Out|7761=2|9691=SLHIUS3X|9692=B|9697=Timed Out|7761=3|9691=BRSE|9692=B|9697=Timed Out|7761=4|9691=JCSIUS331|9692=B|9697=Timed Out|7761=5|151=0|15=USD|120=USD|38=350000|14=0|6=0.0|761=1|699=912810SS8|60=20210216-17:55:00|126=20210216-17:52:46|75=20210216|20117=7171999|29706=137.87|29707=138.157|29708=144.03|29709=142.29|30=MTXX|29798=7171999|29799=0.000|10=006|
8=FIX.4.4|9=840|35=8|49=MA|56=T1Kauaiblk4|34=29|52=20210216-17:55:00.416|453=2|448=T1Kauaiblk4|447=C|452=11|448=Kauai blkrock company4|447=D|452=13|37=899086|11=ClOrdID-M1415|66=ListID-160221-M1411|17=899086-1memr5|150=4|19=899086-1bohh5|39=4|55=[N/A]|54=1|48=427866AZ1|22=1|454=1|455=US427866AZ15|456=4|460=3|167=CORP|541=20230515|223=0.03375|106=HERSHEY|225=20180510|873=20180510|107=HSY  3.375  5/15/23 c23|64=20210218|9690=5|9691=MTGSUS6S|9692=B|9697=Timed Out|7761=1|9691=AASIUS33|9692=B|9697=Timed Out|7761=2|9691=SLHIUS3X|9692=B|9697=Timed Out|7761=3|9691=BRSE|9692=B|9697=Timed Out|7761=4|9691=JCSIUS331|9692=B|9697=Timed Out|7761=5|151=0|15=USD|120=USD|38=250000|14=0|6=0.0|761=1|699=91282CBG5|60=20210216-17:55:00|126=20210216-17:52:46|75=20210216|20117=7171998|29706=116.736|29707=116.873|29708=8.57|29709=2.51|30=MTXX|29798=7171998|29799=0.000|10=236|
8=FIX.4.4|9=57|35=0|34=11|49=T1Kauaiblk4|52=20210216-17:56:03.124|56=MA|10=111|
8=FIX.4.4|9=57|35=0|34=30|49=MA|52=20210216-17:56:30.854|56=T1Kauaiblk4|10=122|
8=FIX.4.4|9=57|35=0|34=12|49=T1Kauaiblk4|52=20210216-17:57:34.123|56=MA|10=116|
8=FIX.4.4|9=57|35=0|34=31|49=MA|52=20210216-17:58:01.535|56=T1Kauaiblk4|10=119|
8=FIX.4.4|9=57|35=0|34=13|49=T1Kauaiblk4|52=20210216-17:59:04.125|56=MA|10=118|
8=FIX.4.4|9=57|35=0|34=32|49=MA|52=20210216-17:59:32.610|56=T1Kauaiblk4|10=119|
8=FIX.4.4|9=57|35=0|34=14|49=T1Kauaiblk4|52=20210216-18:00:35.124|56=MA|10=109|
8=FIX.4.4|9=1336|35=8|49=MA|56=T1Kauaiblk4|34=33|52=20210216-18:01:02.100|453=5|448=T1Kauaiblk4|447=C|452=11|448=Kauai blkrock company4|447=D|452=13|448=kd_jpm_us|447=D|452=12|448=AASIUS33|447=B|452=1|802=1|523=0187|803=17|448=MTXX|447=G|452=73|761=1|699=912810SS8|662=100.000|663=1|218=102.500|6707=1.625|236=2.650|235=MATURITY|9690=5|9691=AASIUS33|9692=B|9694=102.500|9693=6|5691=151.626|9695=10000000|9697=Done|7761=1|9691=MTGSUS6S|9692=B|9694=97.900|9693=6|5691=152.596|9695=10000000|9697=Covered|7761=2|9691=SLHIUS3X|9692=B|9697=Passed|7761=3|9691=BRSE|9692=B|9697=Timed Out|7761=4|9691=JCSIUS331|9692=B|9697=Timed Out|7761=5|17=One-USD_AGN-22205902-0-0-1mmdtn|37=899083|11=ClOrdID-M1412|66=ListID-160221-M1411|527=22205902-0|19=899083-1bohgx|150=F|39=2|64=20210218|55=[N/A]|15=USD|460=3|167=CORP|762=USD_HGD|541=20420207|223=0.05875|106=BOFAML|107=BAC  5.875  2/7/42|54=1|9872=1|22=1|48=06051GEN5|454=1|455=US06051GEN51|456=4|225=20120207|873=20120207|423=6|120=USD|38=10000000|6655=10000000|32=10000000|31=102.500|151=0|14=10000000|6=151.626|5961=Spread|669=151.626|9805=83.264|9806=77.005|5645=93.268|9804=93.268|75=20210216|381=15162600.00|157=11|159=17951.39|118=15180551.39|60=20210216-18:01:01.995|9714=20210216-17:52:46|851=2|21004=72.725|30=MTXX|20117=7171995|29706=158.66|29707=159.712|29708=88.83|29709=83.55|29798=7171995|29799=151.626|10=101|
8=FIX.4.4|9=57|35=0|34=15|49=T1Kauaiblk4|52=20210216-18:02:05.125|56=MA|10=110|
8=FIX.4.4|9=57|35=0|34=34|49=MA|52=20210216-18:02:32.676|56=T1Kauaiblk4|10=122|
8=FIX.4.4|9=57|35=0|34=16|49=T1Kauaiblk4|52=20210216-18:03:35.126|56=MA|10=116|
8=FIX.4.4|9=57|35=0|34=35|49=MA|52=20210216-18:04:03.550|56=T1Kauaiblk4|10=114|
8=FIX.4.4|9=57|35=0|34=17|49=T1Kauaiblk4|52=20210216-18:05:05.126|56=MA|10=116|
8=FIX.4.4|9=57|35=0|34=36|49=MA|52=20210216-18:05:33.632|56=T1Kauaiblk4|10=120|
8=FIX.4.4|9=57|35=0|34=18|49=T1Kauaiblk4|52=20210216-18:06:35.126|56=MA|10=121|
8=FIX.4.4|9=57|35=0|34=37|49=MA|52=20210216-18:07:04.534|56=T1Kauaiblk4|10=122|
8=FIX.4.4|9=57|35=0|34=19|49=T1Kauaiblk4|52=20210216-18:08:06.126|56=MA|10=122|
8=FIX.4.4|9=57|35=0|34=38|49=MA|52=20210216-18:08:34.568|56=T1Kauaiblk4|10=134|
8=FIX.4.4|9=57|35=0|34=20|49=T1Kauaiblk4|52=20210216-18:09:36.126|56=MA|10=118|
8=FIX.4.4|9=791|35=8|49=MA|56=T1Kauaiblk4|34=39|52=20210216-18:10:00.280|453=2|448=T1Kauaiblk4|447=C|452=11|448=Kauai blkrock company4|447=D|452=13|37=899938|11=ClOrdID-1440|66=ListID-160221-1438|17=899938-1mxx3f|150=4|19=899938-1m2f4m|39=4|55=[N/A]|54=1|48=40434AAB5|22=1|454=1|455=US40434AAB52|456=4|460=3|167=CORP|541=20260225|223=0.032|106=HSBC BK USA|225=20130225|873=20130225|107=HSBC  3.200  2/25/26 c22|64=20210218|9690=5|9691=MTGSUS6S|9692=B|9697=Timed Out|7761=1|9691=JCSIUS331|9692=B|9697=Timed Out|7761=2|9691=BRSE|9692=B|9697=Timed Out|7761=3|9691=AASIUS33|9692=B|9697=Timed Out|7761=4|9691=SLHIUS3X|9692=B|9697=Timed Out|7761=5|151=0|15=USD|120=USD|38=100000|14=0|6=0.0|761=1|699=91282CBH3|60=20210216-18:10:00|126=20210216-18:08:06|75=20210216|20117=7173917|30=MTXX|29798=7173917|29799=0.000|10=229|
8=FIX.4.4|9=846|35=8|49=MA|56=T1Kauaiblk4|34=40|52=20210216-18:10:00.286|453=2|448=T1Kauaiblk4|447=C|452=11|448=Kauai blkrock company4|447=D|452=13|37=899939|11=ClOrdID-1441|66=ListID-160221-1438|17=899939-1mxx3k|150=4|19=899939-1m2f4j|39=4|55=[N/A]|54=1|48=95709TAH3|22=1|454=1|455=US95709TAH32|456=4|460=3|167=CORP|541=20420301|223=0.04125|106=EVERGY KANSAS|225=20120301|873=20120301|107=EVRG  4.125  3/1/42 c41|64=20210218|9690=5|9691=MTGSUS6S|9692=B|9697=Timed Out|7761=1|9691=JCSIUS331|9692=B|9697=Timed Out|7761=2|9691=BRSE|9692=B|9697=Timed Out|7761=3|9691=AASIUS33|9692=B|9697=Timed Out|7761=4|9691=SLHIUS3X|9692=B|9697=Timed Out|7761=5|151=0|15=USD|120=USD|38=130000|14=0|6=0.0|761=1|699=912810SS8|60=20210216-18:10:00|126=20210216-18:08:06|75=20210216|20117=7173918|29706=126.535|29707=126.976|29708=92.21|29709=89.62|30=MTXX|29798=7173918|29799=0.000|10=080|
8=FIX.4.4|9=838|35=8|49=MA|56=T1Kauaiblk4|34=41|52=20210216-18:10:00.290|453=2|448=T1Kauaiblk4|447=C|452=11|448=Kauai blkrock company4|447=D|452=13|37=899940|11=ClOrdID-1442|66=ListID-160221-1438|17=899940-1mxx3m|150=4|19=899940-1m2f4h|39=4|55=[N/A]|54=1|48=427866AZ1|22=1|454=1|455=US427866AZ15|456=4|460=3|167=CORP|541=20230515|223=0.03375|106=HERSHEY|225=20180510|873=20180510|107=HSY  3.375  5/15/23 c23|64=20210218|9690=5|9691=MTGSUS6S|9692=B|9697=Timed Out|7761=1|9691=JCSIUS331|9692=B|9697=Timed Out|7761=2|9691=BRSE|9692=B|9697=Timed Out|7761=3|9691=AASIUS33|9692=B|9697=Timed Out|7761=4|9691=SLHIUS3X|9692=B|9697=Timed Out|7761=5|151=0|15=USD|120=USD|38=250000|14=0|6=0.0|761=1|699=91282CBG5|60=20210216-18:10:00|126=20210216-18:08:06|75=20210216|20117=7173919|29706=116.576|29707=116.713|29708=8.73|29709=2.67|30=MTXX|29798=7173919|29799=0.000|10=031|
8=FIX.4.4|9=848|35=8|49=MA|56=T1Kauaiblk4|34=42|52=20210216-18:10:00.297|453=2|448=T1Kauaiblk4|447=C|452=11|448=Kauai blkrock company4|447=D|452=13|37=899941|11=ClOrdID-1443|66=ListID-160221-1438|17=899941-1mxx3o|150=4|19=899941-1m2f4g|39=4|55=[N/A]|54=1|48=29379VAW3|22=1|454=1|455=US29379VAW37|456=4|460=3|167=CORP|541=20420815|223=0.0485|106=ENTERPRISE PROD|225=20120215|873=20120215|107=EPD  4.850  8/15/42 c42|64=20210218|9690=5|9691=MTGSUS6S|9692=B|9697=Timed Out|7761=1|9691=JCSIUS331|9692=B|9697=Timed Out|7761=2|9691=BRSE|9692=B|9697=Timed Out|7761=3|9691=AASIUS33|9692=B|9697=Timed Out|7761=4|9691=SLHIUS3X|9692=B|9697=Timed Out|7761=5|151=0|15=USD|120=USD|38=350000|14=0|6=0.0|761=1|699=912810SS8|60=20210216-18:10:00|126=20210216-18:08:06|75=20210216|20117=7173920|29706=137.04|29707=137.327|29708=144.86|29709=143.12|30=MTXX|29798=7173920|29799=0.000|10=236|
8=FIX.4.4|9=57|35=0|34=21|49=T1Kauaiblk4|52=20210216-18:11:06.127|56=MA|10=110|
8=FIX.4.4|9=57|35=0|34=43|49=MA|52=20210216-18:11:30.642|56=T1Kauaiblk4|10=113|
8=FIX.4.4|9=57|35=0|34=22|49=T1Kauaiblk4|52=20210216-18:12:36.128|56=MA|10=116|
8=FIX.4.4|9=57|35=0|34=44|49=MA|52=20210216-18:13:01.527|56=T1Kauaiblk4|10=116|
8=FIX.4.4|9=57|35=0|34=23|49=T1Kauaiblk4|52=20210216-18:14:06.129|56=MA|10=117|
8=FIX.4.4|9=57|35=0|34=45|49=MA|52=20210216-18:14:32.599|56=T1Kauaiblk4|10=131|
8=FIX.4.4|9=57|35=0|34=24|49=T1Kauaiblk4|52=20210216-18:15:36.131|56=MA|10=115|
8=FIX.4.4|9=57|35=0|34=46|49=MA|52=20210216-18:16:03.643|56=T1Kauaiblk4|10=122|
8=FIX.4.4|9=57|35=0|34=25|49=T1Kauaiblk4|52=20210216-18:17:06.131|56=MA|10=115|
8=FIX.4.4|9=57|35=0|34=47|49=MA|52=20210216-18:17:34.615|56=T1Kauaiblk4|10=127|
8=FIX.4.4|9=57|35=0|34=26|49=T1Kauaiblk4|52=20210216-18:18:36.131|56=MA|10=120|
8=FIX.4.4|9=57|35=0|34=48|49=MA|52=20210216-18:19:05.891|56=T1Kauaiblk4|10=134|
8=FIX.4.4|9=872|35=8|49=MA|56=T1Kauaiblk4|34=49|52=20210216-18:20:00.120|453=2|448=T1Kauaiblk4|447=C|452=11|448=Kauai blkrock company4|447=D|452=13|37=899937|11=ClOrdID-1439|66=ListID-160221-1438|17=899937-1narxl|150=4|19=899937-1m2f4b|39=4|55=[N/A]|54=1|48=06051GEN5|22=1|454=1|455=US06051GEN51|456=4|460=3|167=CORP|541=20420207|223=0.05875|106=BOFAML|225=20120207|873=20120207|107=BAC  5.875  2/7/42|64=20210218|9690=5|9691=JCSIUS331|9692=B|9694=100.700|9693=6|5691=142.715|9695=100000|9697=DNT|7761=1|9691=MTGSUS6S|9692=B|9697=Timed Out|7761=2|9691=BRSE|9692=B|9697=Timed Out|7761=3|9691=AASIUS33|9692=B|9697=Timed Out|7761=4|9691=SLHIUS3X|9692=B|9697=Timed Out|7761=5|151=0|15=USD|120=USD|38=100000|14=0|6=0.0|761=1|699=912810SS8|60=20210216-18:20:00|126=20210216-18:08:06|75=20210216|20117=7173916|29706=157.75|29707=158.802|29708=89.74|29709=84.46|30=MTXX|29798=7173916|29799=0.000|10=250|
8=FIX.4.4|9=57|35=0|34=27|49=T1Kauaiblk4|52=20210216-18:20:06.133|56=MA|10=113|
8=FIX.4.4|9=57|35=0|34=50|49=MA|52=20210216-18:21:30.630|56=T1Kauaiblk4|10=109|
8=FIX.4.4|9=57|35=0|34=28|49=T1Kauaiblk4|52=20210216-18:21:36.135|56=MA|10=120|
8=FIX.4.4|9=57|35=0|34=51|49=MA|52=20210216-18:23:01.544|56=T1Kauaiblk4|10=114|
8=FIX.4.4|9=57|35=0|34=29|49=T1Kauaiblk4|52=20210216-18:23:06.135|56=MA|10=120|
8=FIX.4.4|9=91|35=A|34=1|49=T1Kauaiblk4|52=20210216-18:23:47.922|56=MA|98=0|108=90|95=8|96=3.0.0rc5|141=Y|10=044|
8=FIX.4.4|9=74|35=A|34=1|49=MA|52=20210216-18:23:48.524|56=T1Kauaiblk4|98=0|108=90|141=Y|10=162|
8=FIX.4.4|9=699|35=E|34=2|49=T1Kauaiblk4|52=20210216-18:24:04.992|56=MA|66=ListID-160221-1402|394=2|68=5|73=5|11=ClOrdID-1403|22=4|38=100000|44=100|48=US06051GEN51|54=1|55=[N/A/]|63=3|67=1|423=1|29726=100.25|453=1|448=T1Kauaiblk4|447=C|452=11|11=ClOrdID-1404|22=4|38=100000|44=101|48=US40434AAB52|54=1|55=[N/A]|63=3|67=2|29726=101.25|11=ClOrdID-1405|22=4|38=130000|44=102|48=US95709TAH32|54=1|55=[N/A/]|63=3|67=1|29726=102.25|453=1|448=T1Kauaiblk4|447=C|452=11|11=ClOrdID-1406|22=4|38=250000|44=103|48=US427866AZ15|54=1|55=[N/A/]|63=3|67=1|29726=103.25|453=1|448=T1Kauaiblk4|447=C|452=11|11=ClOrdID-1407|22=4|38=350000|44=104|48=US29379VAW37|54=1|55=[N/A/]|63=3|67=1|29726=104.25|453=1|448=T1Kauaiblk4|447=C|452=11|10=122|
8=FIX.4.4|9=502|35=8|49=MA|56=T1Kauaiblk4|34=2|52=20210216-18:24:05.377|453=2|448=T1Kauaiblk4|447=C|452=11|448=Kauai blkrock company4|447=D|452=13|37=899993|11=ClOrdID-1403|66=ListID-160221-1402|17=899993-1ng165|150=0|39=0|55=[N/A]|54=1|48=US06051GEN51|22=4|454=1|455=06051GEN5|456=1|460=3|167=CORP|541=20420207|223=0.05875|106=BOFAML|225=20120207|873=20120207|107=BAC  5.875  2/7/42|64=20210218|151=100000|15=USD|120=USD|38=100000|14=0|6=0|60=20210216-18:24:05|126=20210216-18:24:05|75=20210216|20117=7174066|30=MTXX|10=088|
8=FIX.4.4|9=514|35=8|49=MA|56=T1Kauaiblk4|34=3|52=20210216-18:24:05.389|453=2|448=T1Kauaiblk4|447=C|452=11|448=Kauai blkrock company4|447=D|452=13|37=899995|11=ClOrdID-1405|66=ListID-160221-1402|17=899995-1ng168|150=0|39=0|55=[N/A]|54=1|48=US95709TAH32|22=4|454=1|455=95709TAH3|456=1|460=3|167=CORP|541=20420301|223=0.04125|106=EVERGY KANSAS|225=20120301|873=20120301|107=EVRG  4.125  3/1/42 c41|64=20210218|151=130000|15=USD|120=USD|38=130000|14=0|6=0|60=20210216-18:24:05|126=20210216-18:24:05|75=20210216|20117=7174068|30=MTXX|10=193|
8=FIX.4.4|9=515|35=8|49=MA|56=T1Kauaiblk4|34=4|52=20210216-18:24:05.396|453=2|448=T1Kauaiblk4|447=C|452=11|448=Kauai blkrock company4|447=D|452=13|37=899997|11=ClOrdID-1407|66=ListID-160221-1402|17=899997-1ng169|150=0|39=0|55=[N/A]|54=1|48=US29379VAW37|22=4|454=1|455=29379VAW3|456=1|460=3|167=CORP|541=20420815|223=0.0485|106=ENTERPRISE PROD|225=20120215|873=20120215|107=EPD  4.850  8/15/42 c42|64=20210218|151=350000|15=USD|120=USD|38=350000|14=0|6=0|60=20210216-18:24:05|126=20210216-18:24:05|75=20210216|20117=7174070|30=MTXX|10=095|
8=FIX.4.4|9=511|35=8|49=MA|56=T1Kauaiblk4|34=5|52=20210216-18:24:05.401|453=2|448=T1Kauaiblk4|447=C|452=11|448=Kauai blkrock company4|447=D|452=13|37=899994|11=ClOrdID-1404|66=ListID-160221-1402|17=899994-1ng16e|150=0|39=0|55=[N/A]|54=1|48=US40434AAB52|22=4|454=1|455=40434AAB5|456=1|460=3|167=CORP|541=20260225|223=0.032|106=HSBC BK USA|225=20130225|873=20130225|107=HSBC  3.200  2/25/26 c22|64=20210218|151=100000|15=USD|120=USD|38=100000|14=0|6=0|60=20210216-18:24:05|126=20210216-18:24:05|75=20210216|20117=7174067|30=MTXX|10=114|
8=FIX.4.4|9=508|35=8|49=MA|56=T1Kauaiblk4|34=6|52=20210216-18:24:05.408|453=2|448=T1Kauaiblk4|447=C|452=11|448=Kauai blkrock company4|447=D|452=13|37=899996|11=ClOrdID-1406|66=ListID-160221-1402|17=899996-1ng16b|150=0|39=0|55=[N/A]|54=1|48=US427866AZ15|22=4|454=1|455=427866AZ1|456=1|460=3|167=CORP|541=20230515|223=0.03375|106=HERSHEY|225=20180510|873=20180510|107=HSY  3.375  5/15/23 c23|64=20210218|151=250000|15=USD|120=USD|38=250000|14=0|6=0|60=20210216-18:24:05|126=20210216-18:24:05|75=20210216|20117=7174069|30=MTXX|10=081|
8=FIX.4.4|9=699|35=E|34=3|49=T1Kauaiblk4|52=20210216-18:24:07.764|56=MA|66=ListID-160221-1408|394=2|68=5|73=5|11=ClOrdID-1409|22=4|38=100000|44=100|48=US06051GEN51|54=1|55=[N/A/]|63=3|67=1|423=1|29726=100.25|453=1|448=T1Kauaiblk4|447=C|452=11|11=ClOrdID-1410|22=4|38=100000|44=101|48=US40434AAB52|54=1|55=[N/A]|63=3|67=2|29726=101.25|11=ClOrdID-1411|22=4|38=130000|44=102|48=US95709TAH32|54=1|55=[N/A/]|63=3|67=1|29726=102.25|453=1|448=T1Kauaiblk4|447=C|452=11|11=ClOrdID-1412|22=4|38=250000|44=103|48=US427866AZ15|54=1|55=[N/A/]|63=3|67=1|29726=103.25|453=1|448=T1Kauaiblk4|447=C|452=11|11=ClOrdID-1413|22=4|38=350000|44=104|48=US29379VAW37|54=1|55=[N/A/]|63=3|67=1|29726=104.25|453=1|448=T1Kauaiblk4|447=C|452=11|10=123|
8=FIX.4.4|9=511|35=8|49=MA|56=T1Kauaiblk4|34=7|52=20210216-18:24:08.021|453=2|448=T1Kauaiblk4|447=C|452=11|448=Kauai blkrock company4|447=D|452=13|37=900000|11=ClOrdID-1410|66=ListID-160221-1408|17=900000-1ng37y|150=0|39=0|55=[N/A]|54=1|48=US40434AAB52|22=4|454=1|455=40434AAB5|456=1|460=3|167=CORP|541=20260225|223=0.032|106=HSBC BK USA|225=20130225|873=20130225|107=HSBC  3.200  2/25/26 c22|64=20210218|151=100000|15=USD|120=USD|38=100000|14=0|6=0|60=20210216-18:24:07|126=20210216-18:24:07|75=20210216|20117=7174073|30=MTXX|10=066|
8=FIX.4.4|9=502|35=8|49=MA|56=T1Kauaiblk4|34=8|52=20210216-18:24:08.026|453=2|448=T1Kauaiblk4|447=C|452=11|448=Kauai blkrock company4|447=D|452=13|37=899999|11=ClOrdID-1409|66=ListID-160221-1408|17=899999-1ng382|150=0|39=0|55=[N/A]|54=1|48=US06051GEN51|22=4|454=1|455=06051GEN5|456=1|460=3|167=CORP|541=20420207|223=0.05875|106=BOFAML|225=20120207|873=20120207|107=BAC  5.875  2/7/42|64=20210218|151=100000|15=USD|120=USD|38=100000|14=0|6=0|60=20210216-18:24:07|126=20210216-18:24:07|75=20210216|20117=7174072|30=MTXX|10=114|
8=FIX.4.4|9=514|35=8|49=MA|56=T1Kauaiblk4|34=9|52=20210216-18:24:08.030|453=2|448=T1Kauaiblk4|447=C|452=11|448=Kauai blkrock company4|447=D|452=13|37=900001|11=ClOrdID-1411|66=ListID-160221-1408|17=900001-1ng384|150=0|39=0|55=[N/A]|54=1|48=US95709TAH32|22=4|454=1|455=95709TAH3|456=1|460=3|167=CORP|541=20420301|223=0.04125|106=EVERGY KANSAS|225=20120301|873=20120301|107=EVRG  4.125  3/1/42 c41|64=20210218|151=130000|15=USD|120=USD|38=130000|14=0|6=0|60=20210216-18:24:07|126=20210216-18:24:07|75=20210216|20117=7174074|30=MTXX|10=111|
8=FIX.4.4|9=509|35=8|49=MA|56=T1Kauaiblk4|34=10|52=20210216-18:24:08.033|453=2|448=T1Kauaiblk4|447=C|452=11|448=Kauai blkrock company4|447=D|452=13|37=900002|11=ClOrdID-1412|66=ListID-160221-1408|17=900002-1ng386|150=0|39=0|55=[N/A]|54=1|48=US427866AZ15|22=4|454=1|455=427866AZ1|456=1|460=3|167=CORP|541=20230515|223=0.03375|106=HERSHEY|225=20180510|873=20180510|107=HSY  3.375  5/15/23 c23|64=20210218|151=250000|15=USD|120=USD|38=250000|14=0|6=0|60=20210216-18:24:07|126=20210216-18:24:07|75=20210216|20117=7174075|30=MTXX|10=008|
8=FIX.4.4|9=516|35=8|49=MA|56=T1Kauaiblk4|34=11|52=20210216-18:24:08.036|453=2|448=T1Kauaiblk4|447=C|452=11|448=Kauai blkrock company4|447=D|452=13|37=900003|11=ClOrdID-1413|66=ListID-160221-1408|17=900003-1ng388|150=0|39=0|55=[N/A]|54=1|48=US29379VAW37|22=4|454=1|455=29379VAW3|456=1|460=3|167=CORP|541=20420815|223=0.0485|106=ENTERPRISE PROD|225=20120215|873=20120215|107=EPD  4.850  8/15/42 c42|64=20210218|151=350000|15=USD|120=USD|38=350000|14=0|6=0|60=20210216-18:24:07|126=20210216-18:24:07|75=20210216|20117=7174076|30=MTXX|10=074|
8=FIX.4.4|9=56|35=0|34=4|49=T1Kauaiblk4|52=20210216-18:25:37.917|56=MA|10=078|
8=FIX.4.4|9=57|35=0|34=12|49=MA|52=20210216-18:25:38.604|56=T1Kauaiblk4|10=120|
8=FIX.4.4|9=843|35=8|49=MA|56=T1Kauaiblk4|34=13|52=20210216-18:27:00.218|453=2|448=T1Kauaiblk4|447=C|452=11|448=Kauai blkrock company4|447=D|452=13|37=900001|11=ClOrdID-1411|66=ListID-160221-1408|17=900001-fla|150=4|19=900001-1ng384|39=4|55=[N/A]|54=1|48=95709TAH3|22=1|454=1|455=US95709TAH32|456=4|460=3|167=CORP|541=20420301|223=0.04125|106=EVERGY KANSAS|225=20120301|873=20120301|107=EVRG  4.125  3/1/42 c41|64=20210218|9690=5|9691=JCSIUS331|9692=B|9697=Timed Out|7761=1|9691=BRSE|9692=B|9697=Timed Out|7761=2|9691=MTGSUS6S|9692=B|9697=Timed Out|7761=3|9691=AASIUS33|9692=B|9697=Timed Out|7761=4|9691=SLHIUS3X|9692=B|9697=Timed Out|7761=5|151=0|15=USD|120=USD|38=130000|14=0|6=0.0|761=1|699=912810SS8|60=20210216-18:27:00|126=20210216-18:26:06|75=20210216|20117=7174074|29706=125.525|29707=125.966|29708=93.22|29709=90.63|30=MTXX|29798=7174074|29799=0.000|10=166|
8=FIX.4.4|9=788|35=8|49=MA|56=T1Kauaiblk4|34=14|52=20210216-18:27:00.226|453=2|448=T1Kauaiblk4|447=C|452=11|448=Kauai blkrock company4|447=D|452=13|37=900000|11=ClOrdID-1410|66=ListID-160221-1408|17=900000-fle|150=4|19=900000-1ng37y|39=4|55=[N/A]|54=1|48=40434AAB5|22=1|454=1|455=US40434AAB52|456=4|460=3|167=CORP|541=20260225|223=0.032|106=HSBC BK USA|225=20130225|873=20130225|107=HSBC  3.200  2/25/26 c22|64=20210218|9690=5|9691=JCSIUS331|9692=B|9697=Timed Out|7761=1|9691=BRSE|9692=B|9697=Timed Out|7761=2|9691=MTGSUS6S|9692=B|9697=Timed Out|7761=3|9691=AASIUS33|9692=B|9697=Timed Out|7761=4|9691=SLHIUS3X|9692=B|9697=Timed Out|7761=5|151=0|15=USD|120=USD|38=100000|14=0|6=0.0|761=1|699=91282CBH3|60=20210216-18:27:00|126=20210216-18:26:06|75=20210216|20117=7174073|30=MTXX|29798=7174073|29799=0.000|10=149|
8=FIX.4.4|9=845|35=8|49=MA|56=T1Kauaiblk4|34=15|52=20210216-18:27:00.233|453=2|448=T1Kauaiblk4|447=C|452=11|448=Kauai blkrock company4|447=D|452=13|37=900003|11=ClOrdID-1413|66=ListID-160221-1408|17=900003-flc|150=4|19=900003-1ng388|39=4|55=[N/A]|54=1|48=29379VAW3|22=1|454=1|455=US29379VAW37|456=4|460=3|167=CORP|541=20420815|223=0.0485|106=ENTERPRISE PROD|225=20120215|873=20120215|107=EPD  4.850  8/15/42 c42|64=20210218|9690=5|9691=JCSIUS331|9692=B|9697=Timed Out|7761=1|9691=BRSE|9692=B|9697=Timed Out|7761=2|9691=MTGSUS6S|9692=B|9697=Timed Out|7761=3|9691=AASIUS33|9692=B|9697=Timed Out|7761=4|9691=SLHIUS3X|9692=B|9697=Timed Out|7761=5|151=0|15=USD|120=USD|38=350000|14=0|6=0.0|761=1|699=912810SS8|60=20210216-18:27:00|126=20210216-18:26:06|75=20210216|20117=7174076|29706=138.17|29707=138.457|29708=143.73|29709=141.99|30=MTXX|29798=7174076|29799=0.000|10=138|
8=FIX.4.4|9=834|35=8|49=MA|56=T1Kauaiblk4|34=16|52=20210216-18:27:00.237|453=2|448=T1Kauaiblk4|447=C|452=11|448=Kauai blkrock company4|447=D|452=13|37=900002|11=ClOrdID-1412|66=ListID-160221-1408|17=900002-flg|150=4|19=900002-1ng386|39=4|55=[N/A]|54=1|48=427866AZ1|22=1|454=1|455=US427866AZ15|456=4|460=3|167=CORP|541=20230515|223=0.03375|106=HERSHEY|225=20180510|873=20180510|107=HSY  3.375  5/15/23 c23|64=20210218|9690=5|9691=JCSIUS331|9692=B|9697=Timed Out|7761=1|9691=BRSE|9692=B|9697=Timed Out|7761=2|9691=MTGSUS6S|9692=B|9697=Timed Out|7761=3|9691=AASIUS33|9692=B|9697=Timed Out|7761=4|9691=SLHIUS3X|9692=B|9697=Timed Out|7761=5|151=0|15=USD|120=USD|38=250000|14=0|6=0.0|761=1|699=91282CBG5|60=20210216-18:27:00|126=20210216-18:26:06|75=20210216|20117=7174075|29706=117.606|29707=117.743|29708=7.7|29709=1.64|30=MTXX|29798=7174075|29799=0.000|10=111|
8=FIX.4.4|9=56|35=0|34=5|49=T1Kauaiblk4|52=20210216-18:27:07.919|56=MA|10=080|
8=FIX.4.4|9=1349|35=8|49=MA|56=T1Kauaiblk4|34=17|52=20210216-18:28:29.504|453=6|448=T1Kauaiblk4|447=C|452=11|448=Kauai blkrock company4|447=D|452=13|448=kc_hsbc_us|447=D|452=12|448=JCSIUS331|447=B|452=1|802=1|523=2467|803=17|448=000000000HSBCUSLEI00|447=N|452=1|448=MTXX|447=G|452=73|761=1|699=912810SS8|662=89.875|663=1|218=100.700|6707=2.084|236=3.091|235=MATURITY|9690=5|9691=JCSIUS331|9692=B|9694=100.700|9693=6|5691=142.727|9695=100000|9697=Done-ABC|7761=1|9691=BRSE|9692=B|9697=Timed Out|7761=2|9691=MTGSUS6S|9692=B|9697=Timed Out|7761=3|9691=AASIUS33|9692=B|9697=Timed Out|7761=4|9691=SLHIUS3X|9692=B|9697=Timed Out|7761=5|17=One-USD_HGD-22205925-0-0-2ch2|37=899999|11=ClOrdID-1409|66=ListID-160221-1408|527=22205925-0|19=899999-1ng382|150=F|39=2|64=20210218|55=[N/A]|15=USD|460=3|167=CORP|762=USD_HGD|541=20420207|223=0.05875|106=BOFAML|107=BAC  5.875  2/7/42|54=1|9872=1|22=1|48=06051GEN5|454=1|455=US06051GEN51|456=4|225=20120207|873=20120207|423=6|120=USD|38=100000|6655=100000|32=100000|31=100.700|151=0|14=100000|6=142.727|5961=Spread|669=142.727|9805=127.450|9806=116.612|5645=138.230|9804=138.230|75=20210216|381=142727.00|157=11|159=179.51|118=142906.51|60=20210216-18:28:29.325|9714=20210216-18:26:06|851=2|21004=116.821|30=MTXX|22211=000000000HSBCUSLEI00|20117=7174072|29706=157.32|29707=158.372|29708=90.17|29709=84.89|29798=7174072|29799=142.727|10=224|
8=FIX.4.4|9=56|35=0|34=6|49=T1Kauaiblk4|52=20210216-18:28:38.919|56=MA|10=086|
8=FIX.4.4|9=57|35=0|34=18|49=MA|52=20210216-18:29:59.527|56=T1Kauaiblk4|10=137|
8=FIX.4.4|9=789|35=8|49=MA|56=T1Kauaiblk4|34=19|52=20210216-18:30:00.199|453=2|448=T1Kauaiblk4|447=C|452=11|448=Kauai blkrock company4|447=D|452=13|37=899994|11=ClOrdID-1404|66=ListID-160221-1402|17=899994-4agu|150=4|19=899994-1ng16e|39=4|55=[N/A]|54=1|48=40434AAB5|22=1|454=1|455=US40434AAB52|456=4|460=3|167=CORP|541=20260225|223=0.032|106=HSBC BK USA|225=20130225|873=20130225|107=HSBC  3.200  2/25/26 c22|64=20210218|9690=5|9691=JCSIUS331|9692=B|9697=Timed Out|7761=1|9691=BRSE|9692=B|9697=Timed Out|7761=2|9691=MTGSUS6S|9692=B|9697=Timed Out|7761=3|9691=AASIUS33|9692=B|9697=Timed Out|7761=4|9691=SLHIUS3X|9692=B|9697=Timed Out|7761=5|151=0|15=USD|120=USD|38=100000|14=0|6=0.0|761=1|699=91282CBH3|60=20210216-18:30:00|126=20210216-18:28:48|75=20210216|20117=7174067|30=MTXX|29798=7174067|29799=0.000|10=059|
8=FIX.4.4|9=844|35=8|49=MA|56=T1Kauaiblk4|34=20|52=20210216-18:30:00.210|453=2|448=T1Kauaiblk4|447=C|452=11|448=Kauai blkrock company4|447=D|452=13|37=899995|11=ClOrdID-1405|66=ListID-160221-1402|17=899995-4agx|150=4|19=899995-1ng168|39=4|55=[N/A]|54=1|48=95709TAH3|22=1|454=1|455=US95709TAH32|456=4|460=3|167=CORP|541=20420301|223=0.04125|106=EVERGY KANSAS|225=20120301|873=20120301|107=EVRG  4.125  3/1/42 c41|64=20210218|9690=5|9691=JCSIUS331|9692=B|9697=Timed Out|7761=1|9691=BRSE|9692=B|9697=Timed Out|7761=2|9691=MTGSUS6S|9692=B|9697=Timed Out|7761=3|9691=AASIUS33|9692=B|9697=Timed Out|7761=4|9691=SLHIUS3X|9692=B|9697=Timed Out|7761=5|151=0|15=USD|120=USD|38=130000|14=0|6=0.0|761=1|699=912810SS8|60=20210216-18:30:00|126=20210216-18:28:48|75=20210216|20117=7174068|29706=125.525|29707=125.966|29708=93.22|29709=90.63|30=MTXX|29798=7174068|29799=0.000|10=082|
8=FIX.4.4|9=846|35=8|49=MA|56=T1Kauaiblk4|34=21|52=20210216-18:30:00.215|453=2|448=T1Kauaiblk4|447=C|452=11|448=Kauai blkrock company4|447=D|452=13|37=899997|11=ClOrdID-1407|66=ListID-160221-1402|17=899997-4ah1|150=4|19=899997-1ng169|39=4|55=[N/A]|54=1|48=29379VAW3|22=1|454=1|455=US29379VAW37|456=4|460=3|167=CORP|541=20420815|223=0.0485|106=ENTERPRISE PROD|225=20120215|873=20120215|107=EPD  4.850  8/15/42 c42|64=20210218|9690=5|9691=JCSIUS331|9692=B|9697=Timed Out|7761=1|9691=BRSE|9692=B|9697=Timed Out|7761=2|9691=MTGSUS6S|9692=B|9697=Timed Out|7761=3|9691=AASIUS33|9692=B|9697=Timed Out|7761=4|9691=SLHIUS3X|9692=B|9697=Timed Out|7761=5|151=0|15=USD|120=USD|38=350000|14=0|6=0.0|761=1|699=912810SS8|60=20210216-18:30:00|126=20210216-18:28:48|75=20210216|20117=7174070|29706=138.17|29707=138.457|29708=143.73|29709=141.99|30=MTXX|29798=7174070|29799=0.000|10=224|
8=FIX.4.4|9=835|35=8|49=MA|56=T1Kauaiblk4|34=22|52=20210216-18:30:00.219|453=2|448=T1Kauaiblk4|447=C|452=11|448=Kauai blkrock company4|447=D|452=13|37=899996|11=ClOrdID-1406|66=ListID-160221-1402|17=899996-4agz|150=4|19=899996-1ng16b|39=4|55=[N/A]|54=1|48=427866AZ1|22=1|454=1|455=US427866AZ15|456=4|460=3|167=CORP|541=20230515|223=0.03375|106=HERSHEY|225=20180510|873=20180510|107=HSY  3.375  5/15/23 c23|64=20210218|9690=5|9691=JCSIUS331|9692=B|9697=Timed Out|7761=1|9691=BRSE|9692=B|9697=Timed Out|7761=2|9691=MTGSUS6S|9692=B|9697=Timed Out|7761=3|9691=AASIUS33|9692=B|9697=Timed Out|7761=4|9691=SLHIUS3X|9692=B|9697=Timed Out|7761=5|151=0|15=USD|120=USD|38=250000|14=0|6=0.0|761=1|699=91282CBG5|60=20210216-18:30:00|126=20210216-18:28:48|75=20210216|20117=7174069|29706=117.606|29707=117.743|29708=7.7|29709=1.64|30=MTXX|29798=7174069|29799=0.000|10=070|
8=FIX.4.4|9=56|35=0|34=7|49=T1Kauaiblk4|52=20210216-18:30:08.920|56=MA|10=069|
8=FIX.4.4|9=57|35=0|34=23|49=MA|52=20210216-18:31:30.617|56=T1Kauaiblk4|10=115|
8=FIX.4.4|9=56|35=0|34=8|49=T1Kauaiblk4|52=20210216-18:31:38.921|56=MA|10=075|
8=FIX.4.4|9=57|35=0|34=24|49=MA|52=20210216-18:33:01.527|56=T1Kauaiblk4|10=116|
8=FIX.4.4|9=56|35=0|34=9|49=T1Kauaiblk4|52=20210216-18:33:09.921|56=MA|10=076|
8=FIX.4.4|9=57|35=0|34=25|49=MA|52=20210216-18:34:32.670|56=T1Kauaiblk4|10=121|
8=FIX.4.4|9=57|35=0|34=10|49=T1Kauaiblk4|52=20210216-18:34:39.921|56=MA|10=121|
8=FIX.4.4|9=57|35=0|34=26|49=MA|52=20210216-18:36:03.527|56=T1Kauaiblk4|10=123|
8=FIX.4.4|9=57|35=0|34=11|49=T1Kauaiblk4|52=20210216-18:36:09.922|56=MA|10=122|
8=FIX.4.4|9=57|35=0|34=27|49=MA|52=20210216-18:37:33.612|56=T1Kauaiblk4|10=123|
8=FIX.4.4|9=57|35=0|34=12|49=T1Kauaiblk4|52=20210216-18:37:39.922|56=MA|10=127|
8=FIX.4.4|9=57|35=0|34=28|49=MA|52=20210216-18:39:04.532|56=T1Kauaiblk4|10=125|
8=FIX.4.4|9=57|35=0|34=13|49=T1Kauaiblk4|52=20210216-18:39:09.922|56=MA|10=127|
8=FIX.4.4|9=870|35=8|49=MA|56=T1Kauaiblk4|34=29|52=20210216-18:40:00.166|453=2|448=T1Kauaiblk4|447=C|452=11|448=Kauai blkrock company4|447=D|452=13|37=899993|11=ClOrdID-1403|66=ListID-160221-1402|17=899993-h5eg|150=4|19=899993-1ng165|39=4|55=[N/A]|54=1|48=06051GEN5|22=1|454=1|455=US06051GEN51|456=4|460=3|167=CORP|541=20420207|223=0.05875|106=BOFAML|225=20120207|873=20120207|107=BAC  5.875  2/7/42|64=20210218|9690=5|9691=JCSIUS331|9692=B|9694=101.700|9693=6|5691=142.492|9695=100000|9697=DNT|7761=1|9691=BRSE|9692=B|9697=Timed Out|7761=2|9691=MTGSUS6S|9692=B|9697=Timed Out|7761=3|9691=AASIUS33|9692=B|9697=Timed Out|7761=4|9691=SLHIUS3X|9692=B|9697=Timed Out|7761=5|151=0|15=USD|120=USD|38=100000|14=0|6=0.0|761=1|699=912810SS8|60=20210216-18:40:00|126=20210216-18:28:48|75=20210216|20117=7174066|29706=157.32|29707=158.372|29708=90.17|29709=84.89|30=MTXX|29798=7174066|29799=0.000|10=221|
8=FIX.4.4|9=57|35=0|34=14|49=T1Kauaiblk4|52=20210216-18:40:39.922|56=MA|10=123|
