8=FIX.4.4|9=91|35=A|34=1|49=T2Kauaiblk6|52=20210910-13:37:08.427|56=MA|98=0|108=90|95=8|96=3.0.0rc5|141=Y|10=045|
8=FIX.4.4|9=74|35=A|34=1|49=MA|52=20210910-13:37:09.085|56=T2Kauaiblk6|98=0|108=90|141=Y|10=165|
8=FIX.4.4|9=713|35=E|34=2|49=T2Kauaiblk6|52=20210910-13:37:09.602|56=MA|66=ListID-041321-rodrigo-17831|394=2|68=5|73=5|11=ClOrdID-17832|22=4|38=100000|44=100|48=US06051GEN51|54=1|55=[N/A/]|63=3|67=1|423=1|29726=100.25|453=1|448=T2Kauaiblk6|447=C|452=11|11=ClOrdID-17833|22=4|38=100000|44=101|48=US40434AAB52|54=1|55=[N/A]|63=3|67=2|29726=101.25|11=ClOrdID-17834|22=4|38=130000|44=102|48=US95709TAH32|54=1|55=[N/A/]|63=3|67=1|29726=102.25|453=1|448=T2Kauaiblk6|447=C|452=11|11=ClOrdID-17835|22=4|38=250000|44=103|48=US427866AZ15|54=1|55=[N/A/]|63=3|67=1|29726=103.25|453=1|448=T2Kauaiblk6|447=C|452=11|11=ClOrdID-17836|22=4|38=350000|44=104|48=US29379VAW37|54=1|55=[N/A/]|63=3|67=1|29726=104.25|453=1|448=T2Kauaiblk6|447=C|452=11|10=005|
8=FIX.4.4|9=713|35=E|34=3|49=T2Kauaiblk6|52=20210910-13:37:09.883|56=MA|66=ListID-041321-rodrigo-17837|394=2|68=5|73=5|11=ClOrdID-17838|22=4|38=100000|44=100|48=US06051GEN51|54=1|55=[N/A/]|63=3|67=1|423=1|29726=100.25|453=1|448=T2Kauaiblk6|447=C|452=11|11=ClOrdID-17839|22=4|38=100000|44=101|48=US40434AAB52|54=1|55=[N/A]|63=3|67=2|29726=101.25|11=ClOrdID-17840|22=4|38=130000|44=102|48=US95709TAH32|54=1|55=[N/A/]|63=3|67=1|29726=102.25|453=1|448=T2Kauaiblk6|447=C|452=11|11=ClOrdID-17841|22=4|38=250000|44=103|48=US427866AZ15|54=1|55=[N/A/]|63=3|67=1|29726=103.25|453=1|448=T2Kauaiblk6|447=C|452=11|11=ClOrdID-17842|22=4|38=350000|44=104|48=US29379VAW37|54=1|55=[N/A/]|63=3|67=1|29726=104.25|453=1|448=T2Kauaiblk6|447=C|452=11|10=026|
8=FIX.4.4|9=713|35=E|34=4|49=T2Kauaiblk6|52=20210910-13:37:10.140|56=MA|66=ListID-041321-rodrigo-17843|394=2|68=5|73=5|11=ClOrdID-17844|22=4|38=100000|44=100|48=US06051GEN51|54=1|55=[N/A/]|63=3|67=1|423=1|29726=100.25|453=1|448=T2Kauaiblk6|447=C|452=11|11=ClOrdID-17845|22=4|38=100000|44=101|48=US40434AAB52|54=1|55=[N/A]|63=3|67=2|29726=101.25|11=ClOrdID-17846|22=4|38=130000|44=102|48=US95709TAH32|54=1|55=[N/A/]|63=3|67=1|29726=102.25|453=1|448=T2Kauaiblk6|447=C|452=11|11=ClOrdID-17847|22=4|38=250000|44=103|48=US427866AZ15|54=1|55=[N/A/]|63=3|67=1|29726=103.25|453=1|448=T2Kauaiblk6|447=C|452=11|11=ClOrdID-17848|22=4|38=350000|44=104|48=US29379VAW37|54=1|55=[N/A/]|63=3|67=1|29726=104.25|453=1|448=T2Kauaiblk6|447=C|452=11|10=014|
8=FIX.4.4|9=390|35=8|49=MA|56=T2Kauaiblk6|34=2|52=20210910-13:37:10.588|453=1|448=T2Kauaiblk6|447=C|452=11|37=100003004-ClOrdID-17836|11=ClOrdID-17836|66=ListID-041321-rodrigo-17831|17=100003004-ClOrdID-17836-1c8rfq|150=8|39=8|103=99|55=[N/A]|54=1|48=US29379VAW37|22=4|5214=104|151=0|38=350000|14=0|6=0|58=EPD 4.850 08/15/42 c42 : MarketAxess Corporation (MTXX) Trading Day is currently closed|75=20210910|10=022|
8=FIX.4.4|9=391|35=8|49=MA|56=T2Kauaiblk6|34=3|52=20210910-13:37:10.616|453=1|448=T2Kauaiblk6|447=C|452=11|37=100003004-ClOrdID-17834|11=ClOrdID-17834|66=ListID-041321-rodrigo-17831|17=100003004-ClOrdID-17834-1c8rft|150=8|39=8|103=99|55=[N/A]|54=1|48=US95709TAH32|22=4|5214=102|151=0|38=130000|14=0|6=0|58=EVRG 4.125 03/01/42 c41 : MarketAxess Corporation (MTXX) Trading Day is currently closed|75=20210910|10=060|
8=FIX.4.4|9=390|35=8|49=MA|56=T2Kauaiblk6|34=4|52=20210910-13:37:10.631|453=1|448=T2Kauaiblk6|447=C|452=11|37=100003004-ClOrdID-17835|11=ClOrdID-17835|66=ListID-041321-rodrigo-17831|17=100003004-ClOrdID-17835-1c8rfr|150=8|39=8|103=99|55=[N/A]|54=1|48=US427866AZ15|22=4|5214=103|151=0|38=250000|14=0|6=0|58=HSY 3.375 05/15/23 c23 : MarketAxess Corporation (MTXX) Trading Day is currently closed|75=20210910|10=252|
8=FIX.4.4|9=386|35=8|49=MA|56=T2Kauaiblk6|34=5|52=20210910-13:37:10.646|453=1|448=T2Kauaiblk6|447=C|452=11|37=100003004-ClOrdID-17838|11=ClOrdID-17838|66=ListID-041321-rodrigo-17837|17=100003004-ClOrdID-17838-1c8rfp|150=8|39=8|103=99|55=[N/A]|54=1|48=US06051GEN51|22=4|5214=100|151=0|38=100000|14=0|6=0|58=BAC 5.875 02/07/42 : MarketAxess Corporation (MTXX) Trading Day is currently closed|75=20210910|10=246|
8=FIX.4.4|9=390|35=8|49=MA|56=T2Kauaiblk6|34=6|52=20210910-13:37:10.658|453=1|448=T2Kauaiblk6|447=C|452=11|37=100003004-ClOrdID-17842|11=ClOrdID-17842|66=ListID-041321-rodrigo-17837|17=100003004-ClOrdID-17842-1c8rfo|150=8|39=8|103=99|55=[N/A]|54=1|48=US29379VAW37|22=4|5214=104|151=0|38=350000|14=0|6=0|58=EPD 4.850 08/15/42 c42 : MarketAxess Corporation (MTXX) Trading Day is currently closed|75=20210910|10=019|
8=FIX.4.4|9=391|35=8|49=MA|56=T2Kauaiblk6|34=7|52=20210910-13:37:10.672|453=1|448=T2Kauaiblk6|447=C|452=11|37=100003004-ClOrdID-17833|11=ClOrdID-17833|66=ListID-041321-rodrigo-17831|17=100003004-ClOrdID-17833-1c8rft|150=8|39=8|103=99|55=[N/A]|54=1|48=US40434AAB52|22=4|5214=101|151=0|38=100000|14=0|6=0|58=HSBC 3.200 02/25/26 c22 : MarketAxess Corporation (MTXX) Trading Day is currently closed|75=20210910|10=000|
8=FIX.4.4|9=390|35=8|49=MA|56=T2Kauaiblk6|34=8|52=20210910-13:37:10.680|453=1|448=T2Kauaiblk6|447=C|452=11|37=100003004-ClOrdID-17841|11=ClOrdID-17841|66=ListID-041321-rodrigo-17837|17=100003004-ClOrdID-17841-1c8rfo|150=8|39=8|103=99|55=[N/A]|54=1|48=US427866AZ15|22=4|5214=103|151=0|38=250000|14=0|6=0|58=HSY 3.375 05/15/23 c23 : MarketAxess Corporation (MTXX) Trading Day is currently closed|75=20210910|10=254|
8=FIX.4.4|9=391|35=8|49=MA|56=T2Kauaiblk6|34=9|52=20210910-13:37:10.689|453=1|448=T2Kauaiblk6|447=C|452=11|37=100003004-ClOrdID-17839|11=ClOrdID-17839|66=ListID-041321-rodrigo-17837|17=100003004-ClOrdID-17839-1c8rfp|150=8|39=8|103=99|55=[N/A]|54=1|48=US40434AAB52|22=4|5214=101|151=0|38=100000|14=0|6=0|58=HSBC 3.200 02/25/26 c22 : MarketAxess Corporation (MTXX) Trading Day is currently closed|75=20210910|10=030|
8=FIX.4.4|9=387|35=8|49=MA|56=T2Kauaiblk6|34=10|52=20210910-13:37:10.696|453=1|448=T2Kauaiblk6|447=C|452=11|37=100003004-ClOrdID-17832|11=ClOrdID-17832|66=ListID-041321-rodrigo-17831|17=100003004-ClOrdID-17832-1c8rfn|150=8|39=8|103=99|55=[N/A]|54=1|48=US06051GEN51|22=4|5214=100|151=0|38=100000|14=0|6=0|58=BAC 5.875 02/07/42 : MarketAxess Corporation (MTXX) Trading Day is currently closed|75=20210910|10=014|
8=FIX.4.4|9=392|35=8|49=MA|56=T2Kauaiblk6|34=11|52=20210910-13:37:10.712|453=1|448=T2Kauaiblk6|447=C|452=11|37=100003004-ClOrdID-17840|11=ClOrdID-17840|66=ListID-041321-rodrigo-17837|17=100003004-ClOrdID-17840-1c8rfp|150=8|39=8|103=99|55=[N/A]|54=1|48=US95709TAH32|22=4|5214=102|151=0|38=130000|14=0|6=0|58=EVRG 4.125 03/01/42 c41 : MarketAxess Corporation (MTXX) Trading Day is currently closed|75=20210910|10=098|
8=FIX.4.4|9=387|35=8|49=MA|56=T2Kauaiblk6|34=12|52=20210910-13:37:10.780|453=1|448=T2Kauaiblk6|447=C|452=11|37=100003004-ClOrdID-17844|11=ClOrdID-17844|66=ListID-041321-rodrigo-17843|17=100003004-ClOrdID-17844-1c8rq4|150=8|39=8|103=99|55=[N/A]|54=1|48=US06051GEN51|22=4|5214=100|151=0|38=100000|14=0|6=0|58=BAC 5.875 02/07/42 : MarketAxess Corporation (MTXX) Trading Day is currently closed|75=20210910|10=231|
8=FIX.4.4|9=392|35=8|49=MA|56=T2Kauaiblk6|34=13|52=20210910-13:37:10.788|453=1|448=T2Kauaiblk6|447=C|452=11|37=100003004-ClOrdID-17845|11=ClOrdID-17845|66=ListID-041321-rodrigo-17843|17=100003004-ClOrdID-17845-1c8rqa|150=8|39=8|103=99|55=[N/A]|54=1|48=US40434AAB52|22=4|5214=101|151=0|38=100000|14=0|6=0|58=HSBC 3.200 02/25/26 c22 : MarketAxess Corporation (MTXX) Trading Day is currently closed|75=20210910|10=058|
8=FIX.4.4|9=392|35=8|49=MA|56=T2Kauaiblk6|34=14|52=20210910-13:37:10.793|453=1|448=T2Kauaiblk6|447=C|452=11|37=100003004-ClOrdID-17846|11=ClOrdID-17846|66=ListID-041321-rodrigo-17843|17=100003004-ClOrdID-17846-1c8rqg|150=8|39=8|103=99|55=[N/A]|54=1|48=US95709TAH32|22=4|5214=102|151=0|38=130000|14=0|6=0|58=EVRG 4.125 03/01/42 c41 : MarketAxess Corporation (MTXX) Trading Day is currently closed|75=20210910|10=127|
8=FIX.4.4|9=391|35=8|49=MA|56=T2Kauaiblk6|34=15|52=20210910-13:37:10.798|453=1|448=T2Kauaiblk6|447=C|452=11|37=100003004-ClOrdID-17847|11=ClOrdID-17847|66=ListID-041321-rodrigo-17843|17=100003004-ClOrdID-17847-1c8rqp|150=8|39=8|103=99|55=[N/A]|54=1|48=US427866AZ15|22=4|5214=103|151=0|38=250000|14=0|6=0|58=HSY 3.375 05/15/23 c23 : MarketAxess Corporation (MTXX) Trading Day is currently closed|75=20210910|10=082|
8=FIX.4.4|9=391|35=8|49=MA|56=T2Kauaiblk6|34=16|52=20210910-13:37:10.810|453=1|448=T2Kauaiblk6|447=C|452=11|37=100003004-ClOrdID-17848|11=ClOrdID-17848|66=ListID-041321-rodrigo-17843|17=100003004-ClOrdID-17848-1c8rqw|150=8|39=8|103=99|55=[N/A]|54=1|48=US29379VAW37|22=4|5214=104|151=0|38=350000|14=0|6=0|58=EPD 4.850 08/15/42 c42 : MarketAxess Corporation (MTXX) Trading Day is currently closed|75=20210910|10=093|
8=FIX.4.4|9=713|35=E|34=5|49=T2Kauaiblk6|52=20210910-13:37:42.635|56=MA|66=ListID-041321-rodrigo-17849|394=2|68=5|73=5|11=ClOrdID-17850|22=4|38=100000|44=100|48=US06051GEN51|54=1|55=[N/A/]|63=3|67=1|423=1|29726=100.25|453=1|448=T2Kauaiblk6|447=C|452=11|11=ClOrdID-17851|22=4|38=100000|44=101|48=US40434AAB52|54=1|55=[N/A]|63=3|67=2|29726=101.25|11=ClOrdID-17852|22=4|38=130000|44=102|48=US95709TAH32|54=1|55=[N/A/]|63=3|67=1|29726=102.25|453=1|448=T2Kauaiblk6|447=C|452=11|11=ClOrdID-17853|22=4|38=250000|44=103|48=US427866AZ15|54=1|55=[N/A/]|63=3|67=1|29726=103.25|453=1|448=T2Kauaiblk6|447=C|452=11|11=ClOrdID-17854|22=4|38=350000|44=104|48=US29379VAW37|54=1|55=[N/A/]|63=3|67=1|29726=104.25|453=1|448=T2Kauaiblk6|447=C|452=11|10=020|
8=FIX.4.4|9=387|35=8|49=MA|56=T2Kauaiblk6|34=17|52=20210910-13:37:42.897|453=1|448=T2Kauaiblk6|447=C|452=11|37=100003004-ClOrdID-17850|11=ClOrdID-17850|66=ListID-041321-rodrigo-17849|17=100003004-ClOrdID-17850-1c9gid|150=8|39=8|103=99|55=[N/A]|54=1|48=US06051GEN51|22=4|5214=100|151=0|38=100000|14=0|6=0|58=BAC 5.875 02/07/42 : MarketAxess Corporation (MTXX) Trading Day is currently closed|75=20210910|10=021|
8=FIX.4.4|9=391|35=8|49=MA|56=T2Kauaiblk6|34=18|52=20210910-13:37:42.910|453=1|448=T2Kauaiblk6|447=C|452=11|37=100003004-ClOrdID-17853|11=ClOrdID-17853|66=ListID-041321-rodrigo-17849|17=100003004-ClOrdID-17853-1c9gis|150=8|39=8|103=99|55=[N/A]|54=1|48=US427866AZ15|22=4|5214=103|151=0|38=250000|14=0|6=0|58=HSY 3.375 05/15/23 c23 : MarketAxess Corporation (MTXX) Trading Day is currently closed|75=20210910|10=058|
8=FIX.4.4|9=392|35=8|49=MA|56=T2Kauaiblk6|34=19|52=20210910-13:37:42.923|453=1|448=T2Kauaiblk6|447=C|452=11|37=100003004-ClOrdID-17851|11=ClOrdID-17851|66=ListID-041321-rodrigo-17849|17=100003004-ClOrdID-17851-1c9gid|150=8|39=8|103=99|55=[N/A]|54=1|48=US40434AAB52|22=4|5214=101|151=0|38=100000|14=0|6=0|58=HSBC 3.200 02/25/26 c22 : MarketAxess Corporation (MTXX) Trading Day is currently closed|75=20210910|10=042|
8=FIX.4.4|9=392|35=8|49=MA|56=T2Kauaiblk6|34=20|52=20210910-13:37:42.934|453=1|448=T2Kauaiblk6|447=C|452=11|37=100003004-ClOrdID-17852|11=ClOrdID-17852|66=ListID-041321-rodrigo-17849|17=100003004-ClOrdID-17852-1c9gig|150=8|39=8|103=99|55=[N/A]|54=1|48=US95709TAH32|22=4|5214=102|151=0|38=130000|14=0|6=0|58=EVRG 4.125 03/01/42 c41 : MarketAxess Corporation (MTXX) Trading Day is currently closed|75=20210910|10=105|
8=FIX.4.4|9=391|35=8|49=MA|56=T2Kauaiblk6|34=21|52=20210910-13:37:42.942|453=1|448=T2Kauaiblk6|447=C|452=11|37=100003004-ClOrdID-17854|11=ClOrdID-17854|66=ListID-041321-rodrigo-17849|17=100003004-ClOrdID-17854-1c9gj0|150=8|39=8|103=99|55=[N/A]|54=1|48=US29379VAW37|22=4|5214=104|151=0|38=350000|14=0|6=0|58=EPD 4.850 08/15/42 c42 : MarketAxess Corporation (MTXX) Trading Day is currently closed|75=20210910|10=009|
8=FIX.4.4|9=713|35=E|34=6|49=T2Kauaiblk6|52=20210910-13:37:43.259|56=MA|66=ListID-041321-rodrigo-17855|394=2|68=5|73=5|11=ClOrdID-17856|22=4|38=100000|44=100|48=US06051GEN51|54=1|55=[N/A/]|63=3|67=1|423=1|29726=100.25|453=1|448=T2Kauaiblk6|447=C|452=11|11=ClOrdID-17857|22=4|38=100000|44=101|48=US40434AAB52|54=1|55=[N/A]|63=3|67=2|29726=101.25|11=ClOrdID-17858|22=4|38=130000|44=102|48=US95709TAH32|54=1|55=[N/A/]|63=3|67=1|29726=102.25|453=1|448=T2Kauaiblk6|447=C|452=11|11=ClOrdID-17859|22=4|38=250000|44=103|48=US427866AZ15|54=1|55=[N/A/]|63=3|67=1|29726=103.25|453=1|448=T2Kauaiblk6|447=C|452=11|11=ClOrdID-17860|22=4|38=350000|44=104|48=US29379VAW37|54=1|55=[N/A/]|63=3|67=1|29726=104.25|453=1|448=T2Kauaiblk6|447=C|452=11|10=042|
8=FIX.4.4|9=387|35=8|49=MA|56=T2Kauaiblk6|34=22|52=20210910-13:37:43.449|453=1|448=T2Kauaiblk6|447=C|452=11|37=100003004-ClOrdID-17856|11=ClOrdID-17856|66=ListID-041321-rodrigo-17855|17=100003004-ClOrdID-17856-1c9gxp|150=8|39=8|103=99|55=[N/A]|54=1|48=US06051GEN51|22=4|5214=100|151=0|38=100000|14=0|6=0|58=BAC 5.875 02/07/42 : MarketAxess Corporation (MTXX) Trading Day is currently closed|75=20210910|10=053|
8=FIX.4.4|9=391|35=8|49=MA|56=T2Kauaiblk6|34=23|52=20210910-13:37:43.464|453=1|448=T2Kauaiblk6|447=C|452=11|37=100003004-ClOrdID-17860|11=ClOrdID-17860|66=ListID-041321-rodrigo-17855|17=100003004-ClOrdID-17860-1c9gya|150=8|39=8|103=99|55=[N/A]|54=1|48=US29379VAW37|22=4|5214=104|151=0|38=350000|14=0|6=0|58=EPD 4.850 08/15/42 c42 : MarketAxess Corporation (MTXX) Trading Day is currently closed|75=20210910|10=063|
8=FIX.4.4|9=392|35=8|49=MA|56=T2Kauaiblk6|34=24|52=20210910-13:37:43.473|453=1|448=T2Kauaiblk6|447=C|452=11|37=100003004-ClOrdID-17857|11=ClOrdID-17857|66=ListID-041321-rodrigo-17855|17=100003004-ClOrdID-17857-1c9gy0|150=8|39=8|103=99|55=[N/A]|54=1|48=US40434AAB52|22=4|5214=101|151=0|38=100000|14=0|6=0|58=HSBC 3.200 02/25/26 c22 : MarketAxess Corporation (MTXX) Trading Day is currently closed|75=20210910|10=018|
8=FIX.4.4|9=392|35=8|49=MA|56=T2Kauaiblk6|34=25|52=20210910-13:37:43.479|453=1|448=T2Kauaiblk6|447=C|452=11|37=100003004-ClOrdID-17858|11=ClOrdID-17858|66=ListID-041321-rodrigo-17855|17=100003004-ClOrdID-17858-1c9gya|150=8|39=8|103=99|55=[N/A]|54=1|48=US95709TAH32|22=4|5214=102|151=0|38=130000|14=0|6=0|58=EVRG 4.125 03/01/42 c41 : MarketAxess Corporation (MTXX) Trading Day is currently closed|75=20210910|10=140|
8=FIX.4.4|9=391|35=8|49=MA|56=T2Kauaiblk6|34=26|52=20210910-13:37:43.484|453=1|448=T2Kauaiblk6|447=C|452=11|37=100003004-ClOrdID-17859|11=ClOrdID-17859|66=ListID-041321-rodrigo-17855|17=100003004-ClOrdID-17859-1c9gyd|150=8|39=8|103=99|55=[N/A]|54=1|48=US427866AZ15|22=4|5214=103|151=0|38=250000|14=0|6=0|58=HSY 3.375 05/15/23 c23 : MarketAxess Corporation (MTXX) Trading Day is currently closed|75=20210910|10=080|
8=FIX.4.4|9=56|35=0|34=7|49=T2Kauaiblk6|52=20210910-13:39:13.415|56=MA|10=072|
8=FIX.4.4|9=57|35=0|34=27|49=MA|52=20210910-13:39:14.212|56=T2Kauaiblk6|10=119|
8=FIX.4.4|9=57|35=0|34=28|49=MA|52=20210910-13:40:44.264|56=T2Kauaiblk6|10=122|
8=FIX.4.4|9=56|35=0|34=8|49=T2Kauaiblk6|52=20210910-13:40:44.292|56=MA|10=072|
8=FIX.4.4|9=57|35=0|34=29|49=MA|52=20210910-13:42:14.271|56=T2Kauaiblk6|10=120|
8=FIX.4.4|9=56|35=0|34=9|49=T2Kauaiblk6|52=20210910-13:42:14.299|56=MA|10=079|
8=FIX.4.4|9=57|35=0|34=10|49=T2Kauaiblk6|52=20210910-13:43:44.416|56=MA|10=115|
8=FIX.4.4|9=57|35=0|34=30|49=MA|52=20210910-13:43:44.480|56=T2Kauaiblk6|10=118|
8=FIX.4.4|9=57|35=0|34=11|49=T2Kauaiblk6|52=20210910-13:45:14.416|56=MA|10=115|
8=FIX.4.4|9=57|35=0|34=31|49=MA|52=20210910-13:45:14.481|56=T2Kauaiblk6|10=119|
8=FIX.4.4|9=57|35=0|34=12|49=T2Kauaiblk6|52=20210910-13:46:44.417|56=MA|10=121|
8=FIX.4.4|9=57|35=0|34=32|49=MA|52=20210910-13:46:44.482|56=T2Kauaiblk6|10=125|
8=FIX.4.4|9=57|35=0|34=13|49=T2Kauaiblk6|52=20210910-13:48:14.418|56=MA|10=122|
8=FIX.4.4|9=57|35=0|34=33|49=MA|52=20210910-13:48:15.264|56=T2Kauaiblk6|10=124|
8=FIX.4.4|9=91|35=A|34=1|49=T2Kauaiblk6|52=20210916-09:23:23.593|56=MA|98=0|108=90|95=8|96=3.0.0rc5|141=Y|10=052|
8=FIX.4.4|9=74|35=A|34=1|49=MA|52=20210916-09:23:24.162|56=T2Kauaiblk6|98=0|108=90|141=Y|10=164|
8=FIX.4.4|9=56|35=5|34=2|49=T2Kauaiblk6|52=20210916-09:23:30.591|56=MA|10=080|
8=FIX.4.4|9=56|35=5|34=2|49=MA|52=20210916-09:23:30.642|56=T2Kauaiblk6|10=077|
8=FIX.4.4|9=91|35=A|34=1|49=T2Kauaiblk6|52=20210923-10:02:25.921|56=MA|98=0|108=90|95=8|96=3.0.0rc5|141=Y|10=036|
8=FIX.4.4|9=74|35=A|34=1|49=MA|52=20210923-10:02:26.582|56=T2Kauaiblk6|98=0|108=90|141=Y|10=159|
8=FIX.4.4|9=832|35=8|49=MA|56=T2Kauaiblk6|34=2|52=20210923-10:02:26.667|453=2|448=T2Kauaiblk6|447=C|452=11|448=Kauai blkrock company6|447=D|452=13|37=1324765|11=ClOrdID-2851|66=ListID-230921-SR-2848|17=1324765-1idviv|150=4|19=1324765-1ebd3z|39=4|55=[N/A]|54=1|48=95709TAH3|22=1|454=1|455=US95709TAH32|456=4|460=3|167=CORP|541=20420301|223=0.04125|106=EVERGY KANSAS|225=20120301|873=20120301|107=EVRG  4.125  3/1/42 c41|64=20210927|9690=5|9691=SLHIUS3X|9692=B|9694=99.700|9693=6|9695=130000|9697=DNT|7761=1|9691=BRSE|9692=B|9697=Timed Out|7761=2|9691=MTGSUS6S|9692=B|9697=Timed Out|7761=3|9691=JCSIUS331|9692=B|9697=Timed Out|7761=4|9691=AASIUS33|9692=B|9697=Timed Out|7761=5|151=0|15=USD|120=USD|38=130000|14=0|6=0.0|761=1|699=91282CCJ8|60=20210923-09:36:00|126=20210923-09:32:25|75=20210923|20117=8334349|29749=1|30=MTXX|29798=8334349|29799=0.000|10=217|
8=FIX.4.4|9=834|35=8|49=MA|56=T2Kauaiblk6|34=3|52=20210923-10:02:26.672|453=2|448=T2Kauaiblk6|447=C|452=11|448=Kauai blkrock company6|447=D|452=13|37=1324764|11=ClOrdID-2850|66=ListID-230921-SR-2848|17=1324764-1idviv|150=4|19=1324764-1ebd3w|39=4|55=[N/A]|54=1|48=40434AAB5|22=1|454=1|455=US40434AAB52|456=4|460=3|167=CORP|541=20260225|223=0.032|106=HSBC BK USA|225=20130225|873=20130225|107=HSBC  3.200  2/25/26 c22|64=20210927|9690=5|9691=SLHIUS3X|9692=B|9694=99.700|9693=6|5691=100.526|9695=100000|9697=DNT|7761=1|9691=BRSE|9692=B|9697=Timed Out|7761=2|9691=MTGSUS6S|9692=B|9697=Timed Out|7761=3|9691=JCSIUS331|9692=B|9697=Timed Out|7761=4|9691=AASIUS33|9692=B|9697=Timed Out|7761=5|151=0|15=USD|120=USD|38=100000|14=0|6=0.0|761=1|699=91282CCW9|60=20210923-09:36:00|126=20210923-09:32:25|75=20210923|20117=8334348|30=MTXX|29798=8334348|29799=0.000|10=102|
8=FIX.4.4|9=901|35=8|49=MA|56=T2Kauaiblk6|34=4|52=20210923-10:02:26.676|453=2|448=T2Kauaiblk6|447=C|452=11|448=Kauai blkrock company6|447=D|452=13|37=1324767|11=ClOrdID-2853|66=ListID-230921-SR-2848|17=1324767-1idviy|150=4|19=1324767-1ebd3y|39=4|55=[N/A]|54=1|48=29379VAW3|22=1|454=1|455=US29379VAW37|456=4|460=3|167=CORP|541=20420815|223=0.0485|106=ENTERPRISE PROD|225=20120215|873=20120215|107=EPD  4.850  8/15/42 c42|64=20210927|9690=5|9691=SLHIUS3X|9692=B|9694=103.700|9693=6|5691=131.145|9695=350000|9697=DNT|7761=1|9691=BRSE|9692=B|9697=Timed Out|7761=2|9691=MTGSUS6S|9692=B|9697=Timed Out|7761=3|9691=JCSIUS331|9692=B|9697=Timed Out|7761=4|9691=AASIUS33|9692=B|9697=Timed Out|7761=5|151=0|15=USD|120=USD|38=350000|14=0|6=0.0|761=1|699=912810TA6|60=20210923-09:36:00|126=20210923-09:32:25|75=20210923|20117=8334351|29749=3|29706=124.427|29707=124.943|29708=141.12|29709=138.09|30=MTXX|29798=8334351|29799=0.000|10=055|
8=FIX.4.4|9=864|35=8|49=MA|56=T2Kauaiblk6|34=5|52=20210923-10:02:26.680|453=2|448=T2Kauaiblk6|447=C|452=11|448=Kauai blkrock company6|447=D|452=13|37=1324766|11=ClOrdID-2852|66=ListID-230921-SR-2848|17=1324766-1idvj5|150=4|19=1324766-1ebd3z|39=4|55=[N/A]|54=1|48=427866AZ1|22=1|454=1|455=US427866AZ15|456=4|460=3|167=CORP|541=20230515|223=0.03375|106=HERSHEY|225=20180510|873=20180510|107=HSY  3.375  5/15/23 c23|64=20210927|9690=5|9691=SLHIUS3X|9692=B|9694=99.700|9693=6|5691=103.262|9695=250000|9697=DNT|7761=1|9691=BRSE|9692=B|9697=Timed Out|7761=2|9691=MTGSUS6S|9692=B|9697=Timed Out|7761=3|9691=JCSIUS331|9692=B|9697=Timed Out|7761=4|9691=AASIUS33|9692=B|9697=Timed Out|7761=5|151=0|15=USD|120=USD|38=250000|14=0|6=0.0|761=1|699=91282CCU3|60=20210923-09:36:00|126=20210923-09:32:25|75=20210923|20117=8334350|29749=5|29707=104.977|29709=2.41|30=MTXX|29798=8334350|29799=0.000|10=044|
8=FIX.4.4|9=1376|35=8|49=MA|56=T2Kauaiblk6|34=6|52=20210923-10:02:26.686|453=6|448=T2Kauaiblk6|447=C|452=11|448=Kauai blkrock company6|447=D|452=13|448=jztestdr|447=D|452=12|448=SLHIUS3X|447=B|452=1|802=1|523=0074|803=17|448=549300Y4YDVMR0NMEA51|447=N|452=1|448=MTXX|447=G|452=73|761=1|699=912810TA6|662=99.328125|663=1|218=554.700|6707=1.790|236=7.337|235=MATURITY|9690=5|9691=SLHIUS3X|9692=B|9694=554.700|9693=6|5691=73.623|9695=350000|9697=Done-ABC|7761=1|9691=BRSE|9692=B|9697=Timed Out|7761=2|9691=MTGSUS6S|9692=B|9697=Timed Out|7761=3|9691=JCSIUS331|9692=B|9697=Timed Out|7761=4|9691=AASIUS33|9692=B|9697=Timed Out|7761=5|17=One-USD_HGD-22548280-0-0-1idvjc|37=1324767|11=ClOrdID-2853|66=ListID-230921-SR-2848|527=22548280-0|19=1324767-1idviy|150=F|39=2|64=20210927|55=[N/A]|15=USD|460=3|167=CORP|762=USD_HGD|541=20420815|223=0.0485|106=ENTERPRISE PROD|107=EPD  4.850  8/15/42 c42|54=1|9872=1|22=1|48=29379VAW3|454=1|455=US29379VAW37|456=4|225=20120215|873=20120215|423=6|120=USD|38=350000|6655=350000|32=350000|31=554.700|151=0|14=350000|6=73.623|5961=Spread|669=73.623|9805=574.220|9806=634.914|5645=586.921|9804=583.666|75=20210923|381=257680.50|157=42|159=1980.42|118=259660.92|60=20210923-09:58:29.285|9714=20210923-09:55:25|851=2|21004=554.112|30=MTXX|22211=549300Y4YDVMR0NMEA51|20117=8334665|29749=3|29706=124.497|29707=125.013|29708=141.05|29709=138.02|29798=8334665|29799=73.623|10=043|
8=FIX.4.4|9=1341|35=8|49=MA|56=T2Kauaiblk6|34=7|52=20210923-10:02:26.690|453=6|448=T2Kauaiblk6|447=C|452=11|448=Kauai blkrock company6|447=D|452=13|448=jztestdr|447=D|452=12|448=SLHIUS3X|447=B|452=1|802=1|523=0074|803=17|448=549300Y4YDVMR0NMEA51|447=N|452=1|448=MTXX|447=G|452=73|761=1|699=91282CCU3|662=99.765625|663=1|218=554.700|6707=0.247|236=5.794|235=MATURITY|9690=5|9691=SLHIUS3X|9692=B|9694=554.700|9693=6|5691=96.277|9695=250000|9697=Done-ABC|7761=1|9691=BRSE|9692=B|9697=Timed Out|7761=2|9691=MTGSUS6S|9692=B|9697=Timed Out|7761=3|9691=JCSIUS331|9692=B|9697=Timed Out|7761=4|9691=AASIUS33|9692=B|9697=Timed Out|7761=5|17=One-USD_HGD-22548281-0-0-1idvjf|37=1324766|11=ClOrdID-2852|66=ListID-230921-SR-2848|527=22548281-0|19=1324766-1idvj5|150=F|39=2|64=20210927|55=[N/A]|15=USD|460=3|167=CORP|762=USD_HGD|541=20230515|223=0.03375|106=HERSHEY|107=HSY  3.375  5/15/23 c23|54=1|9872=1|22=1|48=427866AZ1|454=1|455=US427866AZ15|456=4|225=20180510|873=20180510|423=6|120=USD|38=250000|6655=250000|32=250000|31=554.700|151=0|14=250000|6=96.277|5961=Spread|669=96.277|9805=549.340|9806=550.055|5645=549.722|9804=549.722|75=20210923|381=240692.50|157=132|159=3093.75|118=243786.25|60=20210923-09:58:29.372|9714=20210923-09:55:25|851=2|21004=560.655|30=MTXX|22211=549300Y4YDVMR0NMEA51|20117=8334666|29749=5|29707=104.997|29709=2.39|29798=8334666|29799=96.277|10=167|
8=FIX.4.4|9=1375|35=8|49=MA|56=T2Kauaiblk6|34=8|52=20210923-10:02:26.695|453=6|448=T2Kauaiblk6|447=C|452=11|448=Kauai blkrock company6|447=D|452=13|448=jztestdr|447=D|452=12|448=SLHIUS3X|447=B|452=1|802=1|523=0074|803=17|448=549300Y4YDVMR0NMEA51|447=N|452=1|448=MTXX|447=G|452=73|761=1|699=91282CCW9|662=99.359375|663=1|218=554.700|6707=0.883|236=6.430|235=MATURITY|9690=6|9691=MKTX|9692=C|9694=10.700|9693=6|5691=100.896|9695=100000|9697=Covered|7761=1|9691=SLHIUS3X|9692=B|9694=554.700|9693=6|5691=91.468|9695=100000|9697=Done-ABC|7761=2|9691=BRSE|9692=B|9697=Timed Out|7761=3|9691=MTGSUS6S|9692=B|9697=Timed Out|7761=4|9691=JCSIUS331|9692=B|9697=Timed Out|7761=5|9691=AASIUS33|9692=B|9697=Timed Out|7761=6|17=One-USD_HGD-22548283-0-0-1idvje|37=1324764|11=ClOrdID-2850|66=ListID-230921-SR-2848|527=22548283-0|19=1324764-1idviv|150=F|39=2|64=20210927|55=[N/A]|15=USD|460=3|167=CORP|762=USD_HGD|541=20260225|223=0.032|106=HSBC BK USA|107=HSBC  3.200  2/25/26 c22|54=1|9872=1|22=1|48=40434AAB5|454=1|455=US40434AAB52|456=4|225=20130225|873=20130225|423=6|120=USD|38=100000|6655=100000|32=100000|31=554.700|151=0|14=100000|6=91.468|5961=Spread|669=91.468|9805=449.422|9806=463.864|5645=2617.182|9804=450.671|75=20210923|381=91468.00|157=33|159=289.32|118=91757.32|60=20210923-09:58:29.741|9714=20210923-09:55:25|851=2|30=MTXX|22211=549300Y4YDVMR0NMEA51|20117=8334668|29798=8334668|29799=91.468|10=188|
8=FIX.4.4|9=1315|35=8|49=MA|56=T2Kauaiblk6|34=9|52=20210923-10:02:26.699|453=6|448=T2Kauaiblk6|447=C|452=11|448=Kauai blkrock company6|447=D|452=13|448=jztestdr|447=D|452=12|448=SLHIUS3X|447=B|452=1|802=1|523=0074|803=17|448=549300Y4YDVMR0NMEA51|447=N|452=1|448=MTXX|447=G|452=73|761=1|699=91282CCJ8|662=96.000|663=1|218=554.700|6707=1.753|236=7.300|235=MATURITY|9690=5|9691=SLHIUS3X|9692=B|9694=554.700|9693=6|5691=66.556|9695=130000|9697=Done-ABC|7761=1|9691=BRSE|9692=B|9697=Timed Out|7761=2|9691=MTGSUS6S|9692=B|9697=Timed Out|7761=3|9691=JCSIUS331|9692=B|9697=Timed Out|7761=4|9691=AASIUS33|9692=B|9697=Timed Out|7761=5|17=One-USD_HGD-22548282-0-0-1idvjd|37=1324765|11=ClOrdID-2851|66=ListID-230921-SR-2848|527=22548282-0|19=1324765-1idviv|150=F|39=2|64=20210927|55=[N/A]|15=USD|460=3|167=CORP|762=USD_HGD|541=20420301|223=0.04125|106=EVERGY KANSAS|107=EVRG  4.125  3/1/42 c41|54=1|9872=1|22=1|48=95709TAH3|454=1|455=US95709TAH32|456=4|225=20120301|873=20120301|423=6|120=USD|38=130000|6655=130000|32=130000|31=554.700|151=0|14=130000|6=66.556|5961=Spread|669=66.556|9805=570.568|9806=660.208|5645=583.756|9804=578.952|75=20210923|381=86522.80|157=26|159=387.29|118=86910.09|60=20210923-09:58:29.651|9714=20210923-09:55:25|851=2|21004=550.645|30=MTXX|22211=549300Y4YDVMR0NMEA51|20117=8334667|29749=1|29798=8334667|29799=66.556|10=062|
8=FIX.4.4|9=56|35=5|34=2|49=T2Kauaiblk6|52=20210923-10:02:28.923|56=MA|10=073|
8=FIX.4.4|9=57|35=5|34=10|49=MA|52=20210923-10:02:29.048|56=T2Kauaiblk6|10=120|
8=FIX.4.4|9=91|35=A|34=1|49=T2Kauaiblk6|52=20210927-17:15:14.103|56=MA|98=0|108=90|95=8|96=3.0.0rc5|141=Y|10=041|
8=FIX.4.4|9=74|35=A|34=1|49=MA|52=20210927-17:15:14.719|56=T2Kauaiblk6|98=0|108=90|141=Y|10=173|
8=FIX.4.4|9=976|35=8|49=MA|56=T2Kauaiblk6|34=2|52=20210927-17:15:14.815|453=2|448=T2Kauaiblk6|447=C|452=11|448=Kauai blkrock company6|447=D|452=13|37=1330873|11=ClOrdID-2781|66=ListID-270921-SR-2776|17=1330873-11ghd8|150=4|19=1330873-i886e|39=4|55=[N/A]|54=1|48=29379VAW3|22=1|454=1|455=US29379VAW37|456=4|460=3|167=CORP|541=20420815|223=0.0485|106=ENTERPRISE PROD|225=20120215|873=20120215|107=EPD  4.850  8/15/42 c42|64=20210929|9690=5|9691=SLHIUS3X|9692=B|9694=103.700|9693=6|5691=128.342|9695=350000|9697=DNT|7761=1|9691=BRSE|9692=B|9694=67.210|9693=6|5691=135.060|9695=350000|9697=DNT|7761=2|9691=JCSIUS331|9692=B|9694=51.120|9693=6|5691=138.165|9695=350000|9697=DNT|7761=3|9691=MTGSUS6S|9692=B|9697=Timed Out|7761=4|9691=AASIUS33|9692=B|9697=Timed Out|7761=5|151=0|15=USD|120=USD|38=350000|14=0|6=0.0|761=1|699=912810TA6|60=20210927-15:40:00|126=20210927-14:38:56|75=20210927|20117=8354152|29749=3|29706=124.437|29707=124.953|29708=141.11|29709=138.08|30=MTXX|29798=8354152|29799=0.000|10=255|
8=FIX.4.4|9=730|35=8|49=MA|56=T2Kauaiblk6|34=3|52=20210927-17:15:14.825|453=2|448=T2Kauaiblk6|447=C|452=11|448=Kauai blkrock company6|447=D|452=13|37=1330856|11=ClOrdID-2766|66=ListID-270921-SR-2764|17=1330856-11ghds|150=4|19=1330856-i87eu|39=4|55=[N/A]|54=1|48=40434AAB5|22=1|454=1|455=US40434AAB52|456=4|460=3|167=CORP|541=20260225|223=0.032|106=HSBC BK USA|225=20130225|873=20130225|107=HSBC  3.200  2/25/26 c22|64=20210929|9690=1|9691=MKTX|9692=C|9694=104.100|9693=6|5691=100.463|9695=100000|9697=DNT|7761=1|151=0|15=USD|120=USD|38=100000|14=0|6=0.0|761=1|699=91282CCW9|60=20210927-15:56:00|126=20210927-15:52:40|75=20210927|20117=8354138|29706=98.0|29707=103.0|29708=400.0|29709=350.0|29750=20.0|29751=18.0|30=MTXX|29798=8354138|29799=0.000|10=003|
8=FIX.4.4|9=979|35=8|49=MA|56=T2Kauaiblk6|34=4|52=20210927-17:15:14.870|453=2|448=T2Kauaiblk6|447=C|452=11|448=Kauai blkrock company6|447=D|452=13|37=1330870|11=ClOrdID-2778|66=ListID-270921-SR-2776|17=1330870-11ghcz|150=4|19=1330870-i886c|39=4|55=[N/A]|54=1|48=40434AAB5|22=1|454=1|455=US40434AAB52|456=4|460=3|167=CORP|541=20260225|223=0.032|106=HSBC BK USA|225=20130225|873=20130225|107=HSBC  3.200  2/25/26 c22|64=20210929|9690=5|9691=SLHIUS3X|9692=B|9694=103.700|9693=6|5691=100.466|9695=100000|9697=DNT|7761=1|9691=JCSIUS331|9692=B|9694=60.330|9693=6|5691=100.643|9695=100000|9697=DNT|7761=2|9691=BRSE|9692=B|9694=50.870|9693=6|5691=100.682|9695=100000|9697=DNT|7761=3|9691=MTGSUS6S|9692=B|9697=Timed Out|7761=4|9691=AASIUS33|9692=B|9697=Timed Out|7761=5|151=0|15=USD|120=USD|38=100000|14=0|6=0.0|761=1|699=91282CCW9|60=20210927-15:40:00|126=20210927-14:38:56|75=20210927|20117=8354149|29706=98.0|29707=103.0|29708=400.0|29709=350.0|29750=20.0|29751=18.0|30=MTXX|29798=8354149|29799=0.000|10=107|
8=FIX.4.4|9=940|35=8|49=MA|56=T2Kauaiblk6|34=5|52=20210927-17:15:14.902|453=2|448=T2Kauaiblk6|447=C|452=11|448=Kauai blkrock company6|447=D|452=13|37=1330872|11=ClOrdID-2780|66=ListID-270921-SR-2776|17=1330872-11ghd8|150=4|19=1330872-i886d|39=4|55=[N/A]|54=1|48=427866AZ1|22=1|454=1|455=US427866AZ15|456=4|460=3|167=CORP|541=20230515|223=0.03375|106=HERSHEY|225=20180510|873=20180510|107=HSY  3.375  5/15/23 c23|64=20210929|9690=5|9691=SLHIUS3X|9692=B|9694=103.700|9693=6|5691=103.136|9695=250000|9697=DNT|7761=1|9691=BRSE|9692=B|9694=83.420|9693=6|5691=103.452|9695=250000|9697=DNT|7761=2|9691=JCSIUS331|9692=B|9694=55.260|9693=6|5691=103.893|9695=250000|9697=DNT|7761=3|9691=MTGSUS6S|9692=B|9697=Timed Out|7761=4|9691=AASIUS33|9692=B|9697=Timed Out|7761=5|151=0|15=USD|120=USD|38=250000|14=0|6=0.0|761=1|699=91282CCU3|60=20210927-15:40:00|126=20210927-14:38:56|75=20210927|20117=8354151|29749=4|29707=104.967|29709=2.42|30=MTXX|29798=8354151|29799=0.000|10=076|
8=FIX.4.4|9=951|35=8|49=MA|56=T2Kauaiblk6|34=6|52=20210927-17:15:14.936|453=2|448=T2Kauaiblk6|447=C|452=11|448=Kauai blkrock company6|447=D|452=13|37=1330871|11=ClOrdID-2779|66=ListID-270921-SR-2776|17=1330871-11ghde|150=4|19=1330871-i886b|39=4|55=[N/A]|54=1|48=95709TAH3|22=1|454=1|455=US95709TAH32|456=4|460=3|167=CORP|541=20420301|223=0.04125|106=EVERGY KANSAS|225=20120301|873=20120301|107=EVRG  4.125  3/1/42 c41|64=20210929|9690=5|9691=SLHIUS3X|9692=B|9694=103.700|9693=6|9695=130000|9697=DNT|7761=1|9691=BRSE|9692=B|9694=83.810|9693=6|9695=130000|9697=DNT|7761=2|9691=JCSIUS331|9692=B|9694=83.790|9693=6|9695=130000|9697=DNT|7761=3|9691=MTGSUS6S|9692=B|9697=Timed Out|7761=4|9691=AASIUS33|9692=B|9697=Timed Out|7761=5|151=0|15=USD|120=USD|38=130000|14=0|6=0.0|761=1|699=91282CCJ8|60=20210927-15:40:00|126=20210927-14:38:56|75=20210927|20117=8354150|29749=1|29706=98.0|29707=103.0|29708=400.0|29709=350.0|29750=20.0|29751=18.0|30=MTXX|29798=8354150|29799=0.000|10=223|
8=FIX.4.4|9=806|35=8|49=MA|56=T2Kauaiblk6|34=7|52=20210927-17:15:14.960|453=2|448=T2Kauaiblk6|447=C|452=11|448=Kauai blkrock company6|447=D|452=13|37=1330808|11=ClOrdID-2725|66=ListID-270921-SR-2722|17=1330808-11ghe3|150=4|19=1330808-i83up|39=4|55=[N/A]|54=1|48=95709TAH3|22=1|454=1|455=US95709TAH32|456=4|460=3|167=CORP|541=20420301|223=0.04125|106=EVERGY KANSAS|225=20120301|873=20120301|107=EVRG  4.125  3/1/42 c41|64=20210929|9690=5|9691=AASIUS33|9692=B|9697=Timed Out|7761=1|9691=BRSE|9692=B|9697=Timed Out|7761=2|9691=MTGSUS6S|9692=B|9697=Timed Out|7761=3|9691=JCSIUS331|9692=B|9697=Timed Out|7761=4|9691=SLHIUS3X|9692=B|9697=Timed Out|7761=5|151=0|15=USD|120=USD|38=130000|14=0|6=0.0|761=1|699=91282CCJ8|60=20210927-16:27:00|126=20210927-08:17:30|75=20210927|20117=8354104|29749=1|30=MTXX|29798=8354104|29799=0.000|10=119|
8=FIX.4.4|9=808|35=8|49=MA|56=T2Kauaiblk6|34=8|52=20210927-17:15:14.974|453=2|448=T2Kauaiblk6|447=C|452=11|448=Kauai blkrock company6|447=D|452=13|37=1330831|11=ClOrdID-2745|66=ListID-270921-SR-2740|17=1330831-11ghh9|150=4|19=1330831-i86gw|39=4|55=[N/A]|54=1|48=29379VAW3|22=1|454=1|455=US29379VAW37|456=4|460=3|167=CORP|541=20420815|223=0.0485|106=ENTERPRISE PROD|225=20120215|873=20120215|107=EPD  4.850  8/15/42 c42|64=20210929|9690=2|9691=BRSE|9692=B|9694=84.520|9693=6|5691=131.925|9695=350000|9697=DNT|7761=1|9691=JCSIUS331|9692=B|9694=74.150|9693=6|5691=133.857|9695=350000|9697=DNT|7761=2|151=0|15=USD|120=USD|38=350000|14=0|6=0.0|761=1|699=912810TA6|60=20210927-16:57:00|126=20210927-15:54:24|75=20210927|20117=8354121|29749=3|29706=124.887|29707=125.403|29708=140.66|29709=137.63|30=MTXX|29798=8354121|29799=0.000|10=213|
8=FIX.4.4|9=728|35=8|49=MA|56=T2Kauaiblk6|34=9|52=20210927-17:15:14.985|453=2|448=T2Kauaiblk6|447=C|452=11|448=Kauai blkrock company6|447=D|452=13|37=1330857|11=ClOrdID-2767|66=ListID-270921-SR-2764|17=1330857-11ghh8|150=4|19=1330857-i87ev|39=4|55=[N/A]|54=1|48=95709TAH3|22=1|454=1|455=US95709TAH32|456=4|460=3|167=CORP|541=20420301|223=0.04125|106=EVERGY KANSAS|225=20120301|873=20120301|107=EVRG  4.125  3/1/42 c41|64=20210929|9690=1|9691=MKTX|9692=C|9694=104.100|9693=6|9695=130000|9697=DNT|7761=1|151=0|15=USD|120=USD|38=130000|14=0|6=0.0|761=1|699=91282CCJ8|60=20210927-15:56:00|126=20210927-15:52:40|75=20210927|20117=8354139|29749=1|29706=98.0|29707=103.0|29708=400.0|29709=350.0|29750=20.0|29751=18.0|30=MTXX|29798=8354139|29799=0.000|10=080|
8=FIX.4.4|9=826|35=8|49=MA|56=T2Kauaiblk6|34=10|52=20210927-17:15:14.989|453=2|448=T2Kauaiblk6|447=C|452=11|448=Kauai blkrock company6|447=D|452=13|37=1330809|11=ClOrdID-2726|66=ListID-270921-SR-2722|17=1330809-11ghh9|150=4|19=1330809-i83uo|39=4|55=[N/A]|54=1|48=427866AZ1|22=1|454=1|455=US427866AZ15|456=4|460=3|167=CORP|541=20230515|223=0.03375|106=HERSHEY|225=20180510|873=20180510|107=HSY  3.375  5/15/23 c23|64=20210929|9690=5|9691=AASIUS33|9692=B|9697=Timed Out|7761=1|9691=BRSE|9692=B|9697=Timed Out|7761=2|9691=MTGSUS6S|9692=B|9697=Timed Out|7761=3|9691=JCSIUS331|9692=B|9697=Timed Out|7761=4|9691=SLHIUS3X|9692=B|9697=Timed Out|7761=5|151=0|15=USD|120=USD|38=250000|14=0|6=0.0|761=1|699=91282CCU3|60=20210927-16:27:00|126=20210927-08:17:30|75=20210927|20117=8354105|29749=4|29707=105.637|29709=1.75|30=MTXX|29798=8354105|29799=0.000|10=229|
8=FIX.4.4|9=728|35=8|49=MA|56=T2Kauaiblk6|34=11|52=20210927-17:15:14.995|453=2|448=T2Kauaiblk6|447=C|452=11|448=Kauai blkrock company6|447=D|452=13|37=1330859|11=ClOrdID-2769|66=ListID-270921-SR-2764|17=1330859-11ghh9|150=4|19=1330859-i87ew|39=4|55=[N/A]|54=1|48=29379VAW3|22=1|454=1|455=US29379VAW37|456=4|460=3|167=CORP|541=20420815|223=0.0485|106=ENTERPRISE PROD|225=20120215|873=20120215|107=EPD  4.850  8/15/42 c42|64=20210929|9690=1|9691=MKTX|9692=C|9694=104.100|9693=6|5691=128.374|9695=350000|9697=DNT|7761=1|151=0|15=USD|120=USD|38=350000|14=0|6=0.0|761=1|699=912810TA6|60=20210927-15:56:00|126=20210927-15:52:40|75=20210927|20117=8354141|29749=3|29706=124.887|29707=125.403|29708=140.66|29709=137.63|30=MTXX|29798=8354141|29799=0.000|10=241|
8=FIX.4.4|9=797|35=8|49=MA|56=T2Kauaiblk6|34=12|52=20210927-17:15:15.002|453=2|448=T2Kauaiblk6|447=C|452=11|448=Kauai blkrock company6|447=D|452=13|37=1330829|11=ClOrdID-2743|66=ListID-270921-SR-2740|17=1330829-11ghhh|150=4|19=1330829-i86gz|39=4|55=[N/A]|54=1|48=95709TAH3|22=1|454=1|455=US95709TAH32|456=4|460=3|167=CORP|541=20420301|223=0.04125|106=EVERGY KANSAS|225=20120301|873=20120301|107=EVRG  4.125  3/1/42 c41|64=20210929|9690=2|9691=BRSE|9692=B|9694=61.320|9693=6|9695=130000|9697=DNT|7761=1|9691=JCSIUS331|9692=B|9694=59.060|9693=6|9695=130000|9697=DNT|7761=2|151=0|15=USD|120=USD|38=130000|14=0|6=0.0|761=1|699=91282CCJ8|60=20210927-16:57:00|126=20210927-15:54:24|75=20210927|20117=8354119|29749=1|29706=98.0|29707=103.0|29708=400.0|29709=350.0|29750=20.0|29751=18.0|30=MTXX|29798=8354119|29799=0.000|10=078|
8=FIX.4.4|9=773|35=8|49=MA|56=T2Kauaiblk6|34=13|52=20210927-17:15:15.008|453=2|448=T2Kauaiblk6|447=C|452=11|448=Kauai blkrock company6|447=D|452=13|37=1330830|11=ClOrdID-2744|66=ListID-270921-SR-2740|17=1330830-11ghh8|150=4|19=1330830-i86gy|39=4|55=[N/A]|54=1|48=427866AZ1|22=1|454=1|455=US427866AZ15|456=4|460=3|167=CORP|541=20230515|223=0.03375|106=HERSHEY|225=20180510|873=20180510|107=HSY  3.375  5/15/23 c23|64=20210929|9690=2|9691=BRSE|9692=B|9694=82.380|9693=6|5691=103.475|9695=250000|9697=DNT|7761=1|9691=JCSIUS331|9692=B|9694=73.580|9693=6|5691=103.612|9695=250000|9697=DNT|7761=2|151=0|15=USD|120=USD|38=250000|14=0|6=0.0|761=1|699=91282CCU3|60=20210927-16:57:00|126=20210927-15:54:24|75=20210927|20117=8354120|29749=4|29707=104.637|29709=2.75|30=MTXX|29798=8354120|29799=0.000|10=060|
8=FIX.4.4|9=796|35=8|49=MA|56=T2Kauaiblk6|34=14|52=20210927-17:15:15.014|453=2|448=T2Kauaiblk6|447=C|452=11|448=Kauai blkrock company6|447=D|452=13|37=1330807|11=ClOrdID-2724|66=ListID-270921-SR-2722|17=1330807-11ghhe|150=4|19=1330807-i83un|39=4|55=[N/A]|54=1|48=40434AAB5|22=1|454=1|455=US40434AAB52|456=4|460=3|167=CORP|541=20260225|223=0.032|106=HSBC BK USA|225=20130225|873=20130225|107=HSBC  3.200  2/25/26 c22|64=20210929|9690=5|9691=AASIUS33|9692=B|9697=Timed Out|7761=1|9691=BRSE|9692=B|9697=Timed Out|7761=2|9691=MTGSUS6S|9692=B|9697=Timed Out|7761=3|9691=JCSIUS331|9692=B|9697=Timed Out|7761=4|9691=SLHIUS3X|9692=B|9697=Timed Out|7761=5|151=0|15=USD|120=USD|38=100000|14=0|6=0.0|761=1|699=91282CCW9|60=20210927-16:27:00|126=20210927-08:17:30|75=20210927|20117=8354103|30=MTXX|29798=8354103|29799=0.000|10=252|
8=FIX.4.4|9=862|35=8|49=MA|56=T2Kauaiblk6|34=15|52=20210927-17:15:15.019|453=2|448=T2Kauaiblk6|447=C|452=11|448=Kauai blkrock company6|447=D|452=13|37=1330810|11=ClOrdID-2727|66=ListID-270921-SR-2722|17=1330810-11ghht|150=4|19=1330810-i83up|39=4|55=[N/A]|54=1|48=29379VAW3|22=1|454=1|455=US29379VAW37|456=4|460=3|167=CORP|541=20420815|223=0.0485|106=ENTERPRISE PROD|225=20120215|873=20120215|107=EPD  4.850  8/15/42 c42|64=20210929|9690=5|9691=AASIUS33|9692=B|9697=Timed Out|7761=1|9691=BRSE|9692=B|9697=Timed Out|7761=2|9691=MTGSUS6S|9692=B|9697=Timed Out|7761=3|9691=JCSIUS331|9692=B|9697=Timed Out|7761=4|9691=SLHIUS3X|9692=B|9697=Timed Out|7761=5|151=0|15=USD|120=USD|38=350000|14=0|6=0.0|761=1|699=912810TA6|60=20210927-16:27:00|126=20210927-08:17:30|75=20210927|20117=8354106|29749=3|29706=124.067|29707=124.583|29708=141.48|29709=138.45|30=MTXX|29798=8354106|29799=0.000|10=175|
8=FIX.4.4|9=941|35=8|49=MA|56=T2Kauaiblk6|34=16|52=20210927-17:15:15.029|453=2|448=T2Kauaiblk6|447=C|452=11|448=Kauai blkrock company6|447=D|452=13|37=1330828|11=ClOrdID-2742|66=ListID-270921-SR-2740|17=1330828-11ghe4|150=4|19=1330828-i86gx|39=4|55=[N/A]|54=1|48=40434AAB5|22=1|454=1|455=US40434AAB52|456=4|460=3|167=CORP|541=20260225|223=0.032|106=HSBC BK USA|225=20130225|873=20130225|107=HSBC  3.200  2/25/26 c22|64=20210929|9690=5|9691=JCSIUS331|9692=B|9694=82.260|9693=6|5691=100.551|9695=100000|9697=DNT|7761=1|9691=BRSE|9692=B|9694=56.010|9693=6|5691=100.658|9695=100000|9697=DNT|7761=2|9691=MTGSUS6S|9692=B|9697=Timed Out|7761=3|9691=AASIUS33|9692=B|9697=Timed Out|7761=4|9691=SLHIUS3X|9692=B|9697=Timed Out|7761=5|151=0|15=USD|120=USD|38=100000|14=0|6=0.0|761=1|699=91282CCW9|60=20210927-16:57:00|126=20210927-15:54:24|75=20210927|20117=8354118|29706=98.0|29707=103.0|29708=400.0|29709=350.0|29750=20.0|29751=18.0|30=MTXX|29798=8354118|29799=0.000|10=118|
8=FIX.4.4|9=692|35=8|49=MA|56=T2Kauaiblk6|34=17|52=20210927-17:15:15.040|453=2|448=T2Kauaiblk6|447=C|452=11|448=Kauai blkrock company6|447=D|452=13|37=1330858|11=ClOrdID-2768|66=ListID-270921-SR-2764|17=1330858-11ghhk|150=4|19=1330858-i87ex|39=4|55=[N/A]|54=1|48=427866AZ1|22=1|454=1|455=US427866AZ15|456=4|460=3|167=CORP|541=20230515|223=0.03375|106=HERSHEY|225=20180510|873=20180510|107=HSY  3.375  5/15/23 c23|64=20210929|9690=1|9691=MKTX|9692=C|9694=149.100|9693=6|5691=102.445|9695=250000|9697=DNT|7761=1|151=0|15=USD|120=USD|38=250000|14=0|6=0.0|761=1|699=91282CCU3|60=20210927-15:56:00|126=20210927-15:52:40|75=20210927|20117=8354140|29749=4|29707=104.637|29709=2.75|30=MTXX|29798=8354140|29799=0.000|10=100|
8=FIX.4.4|9=713|35=E|34=2|49=T2Kauaiblk6|52=20210927-17:15:17.654|56=MA|66=ListID-041321-rodrigo-19119|394=2|68=5|73=5|11=ClOrdID-19120|22=4|38=100000|44=100|48=US06051GEN51|54=1|55=[N/A/]|63=3|67=1|423=1|29726=100.25|453=1|448=T2Kauaiblk6|447=C|452=11|11=ClOrdID-19121|22=4|38=100000|44=101|48=US40434AAB52|54=1|55=[N/A]|63=3|67=2|29726=101.25|11=ClOrdID-19122|22=4|38=130000|44=102|48=US95709TAH32|54=1|55=[N/A/]|63=3|67=1|29726=102.25|453=1|448=T2Kauaiblk6|447=C|452=11|11=ClOrdID-19123|22=4|38=250000|44=103|48=US427866AZ15|54=1|55=[N/A/]|63=3|67=1|29726=103.25|453=1|448=T2Kauaiblk6|447=C|452=11|11=ClOrdID-19124|22=4|38=350000|44=104|48=US29379VAW37|54=1|55=[N/A/]|63=3|67=1|29726=104.25|453=1|448=T2Kauaiblk6|447=C|452=11|10=236|
8=FIX.4.4|9=383|35=8|49=MA|56=T2Kauaiblk6|34=18|52=20210927-17:15:17.820|453=1|448=T2Kauaiblk6|447=C|452=11|37=100003004-ClOrdID-19120|11=ClOrdID-19120|66=ListID-041321-rodrigo-19119|17=100003004-ClOrdID-19120-11gjoz|150=8|39=8|103=1|55=[N/A]|54=1|48=US06051GEN51|22=4|5214=100|151=0|38=100000|14=0|6=0|58=MarketAxess does not recognize the CUSIP/ISIN in one or more legs of the inquiry|75=20210927|10=141|
8=FIX.4.4|9=527|35=8|49=MA|56=T2Kauaiblk6|34=19|52=20210927-17:15:17.894|453=2|448=T2Kauaiblk6|447=C|452=11|448=Kauai blkrock company6|447=D|452=13|37=1337526|11=ClOrdID-19122|66=ListID-041321-rodrigo-19119|17=1337526-11gjqz|150=0|39=0|55=[N/A]|54=1|48=US95709TAH32|22=4|454=1|455=95709TAH3|456=1|460=3|167=CORP|541=20420301|223=0.04125|106=EVERGY KANSAS|225=20120301|873=20120301|107=EVRG  4.125  3/1/42 c41|64=20210929|151=130000|15=USD|120=USD|38=130000|14=0|6=0|60=20210927-17:15:17|126=20210927-17:15:17|75=20210927|20117=8364975|30=MTXX|10=131|
8=FIX.4.4|9=524|35=8|49=MA|56=T2Kauaiblk6|34=20|52=20210927-17:15:17.900|453=2|448=T2Kauaiblk6|447=C|452=11|448=Kauai blkrock company6|447=D|452=13|37=1337525|11=ClOrdID-19121|66=ListID-041321-rodrigo-19119|17=1337525-11gjr1|150=0|39=0|55=[N/A]|54=1|48=US40434AAB52|22=4|454=1|455=40434AAB5|456=1|460=3|167=CORP|541=20260225|223=0.032|106=HSBC BK USA|225=20130225|873=20130225|107=HSBC  3.200  2/25/26 c22|64=20210929|151=100000|15=USD|120=USD|38=100000|14=0|6=0|60=20210927-17:15:17|126=20210927-17:15:17|75=20210927|20117=8364974|30=MTXX|10=184|
8=FIX.4.4|9=528|35=8|49=MA|56=T2Kauaiblk6|34=21|52=20210927-17:15:17.905|453=2|448=T2Kauaiblk6|447=C|452=11|448=Kauai blkrock company6|447=D|452=13|37=1337528|11=ClOrdID-19124|66=ListID-041321-rodrigo-19119|17=1337528-11gjr0|150=0|39=0|55=[N/A]|54=1|48=US29379VAW37|22=4|454=1|455=29379VAW3|456=1|460=3|167=CORP|541=20420815|223=0.0485|106=ENTERPRISE PROD|225=20120215|873=20120215|107=EPD  4.850  8/15/42 c42|64=20210929|151=350000|15=USD|120=USD|38=350000|14=0|6=0|60=20210927-17:15:17|126=20210927-17:15:17|75=20210927|20117=8364977|30=MTXX|10=211|
8=FIX.4.4|9=521|35=8|49=MA|56=T2Kauaiblk6|34=22|52=20210927-17:15:17.909|453=2|448=T2Kauaiblk6|447=C|452=11|448=Kauai blkrock company6|447=D|452=13|37=1337527|11=ClOrdID-19123|66=ListID-041321-rodrigo-19119|17=1337527-11gjr2|150=0|39=0|55=[N/A]|54=1|48=US427866AZ15|22=4|454=1|455=427866AZ1|456=1|460=3|167=CORP|541=20230515|223=0.03375|106=HERSHEY|225=20180510|873=20180510|107=HSY  3.375  5/15/23 c23|64=20210929|151=250000|15=USD|120=USD|38=250000|14=0|6=0|60=20210927-17:15:17|126=20210927-17:15:17|75=20210927|20117=8364976|30=MTXX|10=149|
8=FIX.4.4|9=56|35=0|34=3|49=T2Kauaiblk6|52=20210927-17:16:48.093|56=MA|10=085|
8=FIX.4.4|9=57|35=0|34=23|49=MA|52=20210927-17:16:48.165|56=T2Kauaiblk6|10=136|
8=FIX.4.4|9=713|35=E|34=4|49=T2Kauaiblk6|52=20210927-17:17:11.565|56=MA|66=ListID-041321-rodrigo-19125|394=2|68=5|73=5|11=ClOrdID-19126|22=4|38=100000|44=100|48=US06051GEN51|54=1|55=[N/A/]|63=3|67=1|423=1|29726=100.25|453=1|448=T2Kauaiblk6|447=C|452=11|11=ClOrdID-19127|22=4|38=100000|44=101|48=US40434AAB52|54=1|55=[N/A]|63=3|67=2|29726=101.25|11=ClOrdID-19128|22=4|38=130000|44=102|48=US95709TAH32|54=1|55=[N/A/]|63=3|67=1|29726=102.25|453=1|448=T2Kauaiblk6|447=C|452=11|11=ClOrdID-19129|22=4|38=250000|44=103|48=US427866AZ15|54=1|55=[N/A/]|63=3|67=1|29726=103.25|453=1|448=T2Kauaiblk6|447=C|452=11|11=ClOrdID-19130|22=4|38=350000|44=104|48=US29379VAW37|54=1|55=[N/A/]|63=3|67=1|29726=104.25|453=1|448=T2Kauaiblk6|447=C|452=11|10=253|
8=FIX.4.4|9=383|35=8|49=MA|56=T2Kauaiblk6|34=24|52=20210927-17:17:11.716|453=1|448=T2Kauaiblk6|447=C|452=11|37=100003004-ClOrdID-19126|11=ClOrdID-19126|66=ListID-041321-rodrigo-19125|17=100003004-ClOrdID-19126-11izku|150=8|39=8|103=1|55=[N/A]|54=1|48=US06051GEN51|22=4|5214=100|151=0|38=100000|14=0|6=0|58=MarketAxess does not recognize the CUSIP/ISIN in one or more legs of the inquiry|75=20210927|10=162|
8=FIX.4.4|9=527|35=8|49=MA|56=T2Kauaiblk6|34=25|52=20210927-17:17:11.828|453=2|448=T2Kauaiblk6|447=C|452=11|448=Kauai blkrock company6|447=D|452=13|37=1337540|11=ClOrdID-19128|66=ListID-041321-rodrigo-19125|17=1337540-11izn9|150=0|39=0|55=[N/A]|54=1|48=US95709TAH32|22=4|454=1|455=95709TAH3|456=1|460=3|167=CORP|541=20420301|223=0.04125|106=EVERGY KANSAS|225=20120301|873=20120301|107=EVRG  4.125  3/1/42 c41|64=20210929|151=130000|15=USD|120=USD|38=130000|14=0|6=0|60=20210927-17:17:11|126=20210927-17:17:11|75=20210927|20117=8364987|30=MTXX|10=061|
8=FIX.4.4|9=521|35=8|49=MA|56=T2Kauaiblk6|34=26|52=20210927-17:17:11.833|453=2|448=T2Kauaiblk6|447=C|452=11|448=Kauai blkrock company6|447=D|452=13|37=1337541|11=ClOrdID-19129|66=ListID-041321-rodrigo-19125|17=1337541-11iznb|150=0|39=0|55=[N/A]|54=1|48=US427866AZ15|22=4|454=1|455=427866AZ1|456=1|460=3|167=CORP|541=20230515|223=0.03375|106=HERSHEY|225=20180510|873=20180510|107=HSY  3.375  5/15/23 c23|64=20210929|151=250000|15=USD|120=USD|38=250000|14=0|6=0|60=20210927-17:17:11|126=20210927-17:17:11|75=20210927|20117=8364988|30=MTXX|10=197|
8=FIX.4.4|9=528|35=8|49=MA|56=T2Kauaiblk6|34=27|52=20210927-17:17:11.842|453=2|448=T2Kauaiblk6|447=C|452=11|448=Kauai blkrock company6|447=D|452=13|37=1337542|11=ClOrdID-19130|66=ListID-041321-rodrigo-19125|17=1337542-11iznc|150=0|39=0|55=[N/A]|54=1|48=US29379VAW37|22=4|454=1|455=29379VAW3|456=1|460=3|167=CORP|541=20420815|223=0.0485|106=ENTERPRISE PROD|225=20120215|873=20120215|107=EPD  4.850  8/15/42 c42|64=20210929|151=350000|15=USD|120=USD|38=350000|14=0|6=0|60=20210927-17:17:11|126=20210927-17:17:11|75=20210927|20117=8364989|30=MTXX|10=003|
8=FIX.4.4|9=524|35=8|49=MA|56=T2Kauaiblk6|34=28|52=20210927-17:17:11.848|453=2|448=T2Kauaiblk6|447=C|452=11|448=Kauai blkrock company6|447=D|452=13|37=1337539|11=ClOrdID-19127|66=ListID-041321-rodrigo-19125|17=1337539-11izna|150=0|39=0|55=[N/A]|54=1|48=US40434AAB52|22=4|454=1|455=40434AAB5|456=1|460=3|167=CORP|541=20260225|223=0.032|106=HSBC BK USA|225=20130225|873=20130225|107=HSBC  3.200  2/25/26 c22|64=20210929|151=100000|15=USD|120=USD|38=100000|14=0|6=0|60=20210927-17:17:11|126=20210927-17:17:11|75=20210927|20117=8364986|30=MTXX|10=013|
8=FIX.4.4|9=713|35=E|34=5|49=T2Kauaiblk6|52=20210927-17:17:12.092|56=MA|66=ListID-041321-rodrigo-19131|394=2|68=5|73=5|11=ClOrdID-19132|22=4|38=100000|44=100|48=US06051GEN51|54=1|55=[N/A/]|63=3|67=1|423=1|29726=100.25|453=1|448=T2Kauaiblk6|447=C|452=11|11=ClOrdID-19133|22=4|38=100000|44=101|48=US40434AAB52|54=1|55=[N/A]|63=3|67=2|29726=101.25|11=ClOrdID-19134|22=4|38=130000|44=102|48=US95709TAH32|54=1|55=[N/A/]|63=3|67=1|29726=102.25|453=1|448=T2Kauaiblk6|447=C|452=11|11=ClOrdID-19135|22=4|38=250000|44=103|48=US427866AZ15|54=1|55=[N/A/]|63=3|67=1|29726=103.25|453=1|448=T2Kauaiblk6|447=C|452=11|11=ClOrdID-19136|22=4|38=350000|44=104|48=US29379VAW37|54=1|55=[N/A/]|63=3|67=1|29726=104.25|453=1|448=T2Kauaiblk6|447=C|452=11|10=241|
8=FIX.4.4|9=383|35=8|49=MA|56=T2Kauaiblk6|34=29|52=20210927-17:17:12.265|453=1|448=T2Kauaiblk6|447=C|452=11|37=100003004-ClOrdID-19132|11=ClOrdID-19132|66=ListID-041321-rodrigo-19131|17=100003004-ClOrdID-19132-11j002|150=8|39=8|103=1|55=[N/A]|54=1|48=US06051GEN51|22=4|5214=100|151=0|38=100000|14=0|6=0|58=MarketAxess does not recognize the CUSIP/ISIN in one or more legs of the inquiry|75=20210927|10=212|
8=FIX.4.4|9=524|35=8|49=MA|56=T2Kauaiblk6|34=30|52=20210927-17:17:12.343|453=2|448=T2Kauaiblk6|447=C|452=11|448=Kauai blkrock company6|447=D|452=13|37=1337546|11=ClOrdID-19133|66=ListID-041321-rodrigo-19131|17=1337546-11j01w|150=0|39=0|55=[N/A]|54=1|48=US40434AAB52|22=4|454=1|455=40434AAB5|456=1|460=3|167=CORP|541=20260225|223=0.032|106=HSBC BK USA|225=20130225|873=20130225|107=HSBC  3.200  2/25/26 c22|64=20210929|151=100000|15=USD|120=USD|38=100000|14=0|6=0|60=20210927-17:17:12|126=20210927-17:17:12|75=20210927|20117=8364991|30=MTXX|10=129|
8=FIX.4.4|9=527|35=8|49=MA|56=T2Kauaiblk6|34=31|52=20210927-17:17:12.352|453=2|448=T2Kauaiblk6|447=C|452=11|448=Kauai blkrock company6|447=D|452=13|37=1337547|11=ClOrdID-19134|66=ListID-041321-rodrigo-19131|17=1337547-11j01x|150=0|39=0|55=[N/A]|54=1|48=US95709TAH32|22=4|454=1|455=95709TAH3|456=1|460=3|167=CORP|541=20420301|223=0.04125|106=EVERGY KANSAS|225=20120301|873=20120301|107=EVRG  4.125  3/1/42 c41|64=20210929|151=130000|15=USD|120=USD|38=130000|14=0|6=0|60=20210927-17:17:12|126=20210927-17:17:12|75=20210927|20117=8364992|30=MTXX|10=242|
8=FIX.4.4|9=521|35=8|49=MA|56=T2Kauaiblk6|34=32|52=20210927-17:17:12.358|453=2|448=T2Kauaiblk6|447=C|452=11|448=Kauai blkrock company6|447=D|452=13|37=1337548|11=ClOrdID-19135|66=ListID-041321-rodrigo-19131|17=1337548-11j01y|150=0|39=0|55=[N/A]|54=1|48=US427866AZ15|22=4|454=1|455=427866AZ1|456=1|460=3|167=CORP|541=20230515|223=0.03375|106=HERSHEY|225=20180510|873=20180510|107=HSY  3.375  5/15/23 c23|64=20210929|151=250000|15=USD|120=USD|38=250000|14=0|6=0|60=20210927-17:17:12|126=20210927-17:17:12|75=20210927|20117=8364993|30=MTXX|10=092|
8=FIX.4.4|9=528|35=8|49=MA|56=T2Kauaiblk6|34=33|52=20210927-17:17:12.363|453=2|448=T2Kauaiblk6|447=C|452=11|448=Kauai blkrock company6|447=D|452=13|37=1337549|11=ClOrdID-19136|66=ListID-041321-rodrigo-19131|17=1337549-11j01z|150=0|39=0|55=[N/A]|54=1|48=US29379VAW37|22=4|454=1|455=29379VAW3|456=1|460=3|167=CORP|541=20420815|223=0.0485|106=ENTERPRISE PROD|225=20120215|873=20120215|107=EPD  4.850  8/15/42 c42|64=20210929|151=350000|15=USD|120=USD|38=350000|14=0|6=0|60=20210927-17:17:12|126=20210927-17:17:12|75=20210927|20117=8364994|30=MTXX|10=159|
8=FIX.4.4|9=56|35=0|34=6|49=T2Kauaiblk6|52=20210927-17:18:42.094|56=MA|10=085|
8=FIX.4.4|9=57|35=0|34=34|49=MA|52=20210927-17:18:42.606|56=T2Kauaiblk6|10=134|
8=FIX.4.4|9=724|35=E|34=7|49=T2Kauaiblk6|52=20210927-17:19:19.300|56=MA|66=ListID-B150221-19137|394=2|68=5|73=5|11=ClOrdID-19138|22=4|38=1000000|44=100.261|48=US06051GEN51|54=1|55=[N/A/]|63=3|67=1|423=1|29726=100.262|453=1|448=T2Kauaiblk6|447=C|452=11|11=ClOrdID-19139|22=4|38=2000000|44=101|48=US40434AAB52|54=1|55=[N/A]|63=3|67=2|29726=101.25|11=ClOrdID-19140|22=4|38=1300000|44=102.251|48=US95709TAH32|54=1|55=[N/A/]|63=3|67=1|29726=102.25|453=1|448=T2Kauaiblk6|447=C|452=11|11=ClOrdID-19141|22=4|38=250000|44=103.1|48=US427866AZ15|54=1|55=[N/A/]|63=3|67=1|29726=103.25|453=1|448=T2Kauaiblk6|447=C|452=11|11=ClOrdID-19142|22=4|38=350000|44=104.231|48=US29379VAW37|54=1|55=[N/A/]|63=3|67=1|29726=104.25|453=1|448=T2Kauaiblk6|447=C|452=11|10=146|
8=FIX.4.4|9=381|35=8|49=MA|56=T2Kauaiblk6|34=35|52=20210927-17:19:19.459|453=1|448=T2Kauaiblk6|447=C|452=11|37=100003004-ClOrdID-19138|11=ClOrdID-19138|66=ListID-B150221-19137|17=100003004-ClOrdID-19138-11lq59|150=8|39=8|103=1|55=[N/A]|54=1|48=US06051GEN51|22=4|5214=100.261|151=0|38=1000000|14=0|6=0|58=MarketAxess does not recognize the CUSIP/ISIN in one or more legs of the inquiry|75=20210927|10=090|
8=FIX.4.4|9=514|35=8|49=MA|56=T2Kauaiblk6|34=36|52=20210927-17:19:19.533|453=2|448=T2Kauaiblk6|447=C|452=11|448=Kauai blkrock company6|447=D|452=13|37=1337555|11=ClOrdID-19141|66=ListID-B150221-19137|17=1337555-11lq78|150=0|39=0|55=[N/A]|54=1|48=US427866AZ15|22=4|454=1|455=427866AZ1|456=1|460=3|167=CORP|541=20230515|223=0.03375|106=HERSHEY|225=20180510|873=20180510|107=HSY  3.375  5/15/23 c23|64=20210929|151=250000|15=USD|120=USD|38=250000|14=0|6=0|60=20210927-17:19:19|126=20210927-17:19:19|75=20210927|20117=8364998|30=MTXX|10=163|
8=FIX.4.4|9=519|35=8|49=MA|56=T2Kauaiblk6|34=37|52=20210927-17:19:19.537|453=2|448=T2Kauaiblk6|447=C|452=11|448=Kauai blkrock company6|447=D|452=13|37=1337553|11=ClOrdID-19139|66=ListID-B150221-19137|17=1337553-11lq79|150=0|39=0|55=[N/A]|54=1|48=US40434AAB52|22=4|454=1|455=40434AAB5|456=1|460=3|167=CORP|541=20260225|223=0.032|106=HSBC BK USA|225=20130225|873=20130225|107=HSBC  3.200  2/25/26 c22|64=20210929|151=2000000|15=USD|120=USD|38=2000000|14=0|6=0|60=20210927-17:19:19|126=20210927-17:19:19|75=20210927|20117=8364996|30=MTXX|10=069|
8=FIX.4.4|9=521|35=8|49=MA|56=T2Kauaiblk6|34=38|52=20210927-17:19:19.541|453=2|448=T2Kauaiblk6|447=C|452=11|448=Kauai blkrock company6|447=D|452=13|37=1337556|11=ClOrdID-19142|66=ListID-B150221-19137|17=1337556-11lq7d|150=0|39=0|55=[N/A]|54=1|48=US29379VAW37|22=4|454=1|455=29379VAW3|456=1|460=3|167=CORP|541=20420815|223=0.0485|106=ENTERPRISE PROD|225=20120215|873=20120215|107=EPD  4.850  8/15/42 c42|64=20210929|151=350000|15=USD|120=USD|38=350000|14=0|6=0|60=20210927-17:19:19|126=20210927-17:19:19|75=20210927|20117=8364999|30=MTXX|10=012|
8=FIX.4.4|9=522|35=8|49=MA|56=T2Kauaiblk6|34=39|52=20210927-17:19:19.545|453=2|448=T2Kauaiblk6|447=C|452=11|448=Kauai blkrock company6|447=D|452=13|37=1337554|11=ClOrdID-19140|66=ListID-B150221-19137|17=1337554-11lq7d|150=0|39=0|55=[N/A]|54=1|48=US95709TAH32|22=4|454=1|455=95709TAH3|456=1|460=3|167=CORP|541=20420301|223=0.04125|106=EVERGY KANSAS|225=20120301|873=20120301|107=EVRG  4.125  3/1/42 c41|64=20210929|151=1300000|15=USD|120=USD|38=1300000|14=0|6=0|60=20210927-17:19:19|126=20210927-17:19:19|75=20210927|20117=8364997|30=MTXX|10=204|
8=FIX.4.4|9=724|35=E|34=8|49=T2Kauaiblk6|52=20210927-17:19:19.911|56=MA|66=ListID-S150221-19143|394=2|68=5|73=5|11=ClOrdID-19144|22=4|38=1000000|44=100.261|48=US06051GEN51|54=2|55=[N/A/]|63=3|67=1|423=1|29726=100.262|453=1|448=T2Kauaiblk6|447=C|452=11|11=ClOrdID-19145|22=4|38=2000000|44=101|48=US40434AAB52|54=2|55=[N/A]|63=3|67=2|29726=101.25|11=ClOrdID-19146|22=4|38=1300000|44=102.251|48=US95709TAH32|54=2|55=[N/A/]|63=3|67=1|29726=102.25|453=1|448=T2Kauaiblk6|447=C|452=11|11=ClOrdID-19147|22=4|38=250000|44=103.1|48=US427866AZ15|54=2|55=[N/A/]|63=3|67=1|29726=103.25|453=1|448=T2Kauaiblk6|447=C|452=11|11=ClOrdID-19148|22=4|38=350000|44=104.231|48=US29379VAW37|54=2|55=[N/A/]|63=3|67=1|29726=104.25|453=1|448=T2Kauaiblk6|447=C|452=11|10=186|
8=FIX.4.4|9=381|35=8|49=MA|56=T2Kauaiblk6|34=40|52=20210927-17:19:20.112|453=1|448=T2Kauaiblk6|447=C|452=11|37=100003004-ClOrdID-19144|11=ClOrdID-19144|66=ListID-S150221-19143|17=100003004-ClOrdID-19144-11lqne|150=8|39=8|103=1|55=[N/A]|54=2|48=US06051GEN51|22=4|5214=100.261|151=0|38=1000000|14=0|6=0|58=MarketAxess does not recognize the CUSIP/ISIN in one or more legs of the inquiry|75=20210927|10=171|
8=FIX.4.4|9=514|35=8|49=MA|56=T2Kauaiblk6|34=41|52=20210927-17:19:20.193|453=2|448=T2Kauaiblk6|447=C|452=11|448=Kauai blkrock company6|447=D|452=13|37=1337562|11=ClOrdID-19147|66=ListID-S150221-19143|17=1337562-11lqpk|150=0|39=0|55=[N/A]|54=2|48=US427866AZ15|22=4|454=1|455=427866AZ1|456=1|460=3|167=CORP|541=20230515|223=0.03375|106=HERSHEY|225=20180510|873=20180510|107=HSY  3.375  5/15/23 c23|64=20210929|151=250000|15=USD|120=USD|38=250000|14=0|6=0|60=20210927-17:19:20|126=20210927-17:19:20|75=20210927|20117=8365003|30=MTXX|10=240|
8=FIX.4.4|9=519|35=8|49=MA|56=T2Kauaiblk6|34=42|52=20210927-17:19:20.197|453=2|448=T2Kauaiblk6|447=C|452=11|448=Kauai blkrock company6|447=D|452=13|37=1337560|11=ClOrdID-19145|66=ListID-S150221-19143|17=1337560-11lqpi|150=0|39=0|55=[N/A]|54=2|48=US40434AAB52|22=4|454=1|455=40434AAB5|456=1|460=3|167=CORP|541=20260225|223=0.032|106=HSBC BK USA|225=20130225|873=20130225|107=HSBC  3.200  2/25/26 c22|64=20210929|151=2000000|15=USD|120=USD|38=2000000|14=0|6=0|60=20210927-17:19:20|126=20210927-17:19:20|75=20210927|20117=8365001|30=MTXX|10=134|
8=FIX.4.4|9=522|35=8|49=MA|56=T2Kauaiblk6|34=43|52=20210927-17:19:20.200|453=2|448=T2Kauaiblk6|447=C|452=11|448=Kauai blkrock company6|447=D|452=13|37=1337561|11=ClOrdID-19146|66=ListID-S150221-19143|17=1337561-11lqpj|150=0|39=0|55=[N/A]|54=2|48=US95709TAH32|22=4|454=1|455=95709TAH3|456=1|460=3|167=CORP|541=20420301|223=0.04125|106=EVERGY KANSAS|225=20120301|873=20120301|107=EVRG  4.125  3/1/42 c41|64=20210929|151=1300000|15=USD|120=USD|38=1300000|14=0|6=0|60=20210927-17:19:20|126=20210927-17:19:20|75=20210927|20117=8365002|30=MTXX|10=221|
8=FIX.4.4|9=521|35=8|49=MA|56=T2Kauaiblk6|34=44|52=20210927-17:19:20.203|453=2|448=T2Kauaiblk6|447=C|452=11|448=Kauai blkrock company6|447=D|452=13|37=1337563|11=ClOrdID-19148|66=ListID-S150221-19143|17=1337563-11lqpk|150=0|39=0|55=[N/A]|54=2|48=US29379VAW37|22=4|454=1|455=29379VAW3|456=1|460=3|167=CORP|541=20420815|223=0.0485|106=ENTERPRISE PROD|225=20120215|873=20120215|107=EPD  4.850  8/15/42 c42|64=20210929|151=350000|15=USD|120=USD|38=350000|14=0|6=0|60=20210927-17:19:20|126=20210927-17:19:20|75=20210927|20117=8365004|30=MTXX|10=039|
8=FIX.4.4|9=681|35=E|34=9|49=T2Kauaiblk6|52=20210927-17:20:33.198|56=MA|66=MMAD-FIX44-ListID-111120-19149|394=2|68=5|73=5|11=FIX44-List-ClOrdID-19150|22=4|38=100000|48=US06051GEN51|54=1|55=[N/A/]|67=1|423=1|453=1|448=T2Kauaiblk6|447=C|452=11|11=FIX44-List-ClOrdID-19151|22=4|38=100000|48=US40434AAB52|54=1|55=[N/A]|67=2|453=1|448=T2Kauaiblk6|447=C|452=11|11=FIX44-List-ClOrdID-19152|22=4|38=130000|48=US06738JYZ10|54=1|55=[N/A/]|67=1|453=1|448=T2Kauaiblk6|447=C|452=11|11=FIX44-List-ClOrdID-19153|22=4|38=250000|48=US95709TAH32|54=1|55=[N/A/]|67=1|453=1|448=T2Kauaiblk6|447=C|452=11|11=FIX44-List-ClOrdID-19154|22=4|38=350000|48=US29379VAW37|54=1|55=[N/A/]|67=1|453=1|448=T2Kauaiblk6|447=C|452=11|10=184|
8=FIX.4.4|9=410|35=8|49=MA|56=T2Kauaiblk6|34=45|52=20210927-17:20:33.361|453=1|448=T2Kauaiblk6|447=C|452=11|37=100003004-FIX44-List-ClOrdID-19150|11=FIX44-List-ClOrdID-19150|66=MMAD-FIX44-ListID-111120-19149|17=100003004-FIX44-List-ClOrdID-19150-11nb64|150=8|39=8|103=1|55=[N/A]|54=1|48=US06051GEN51|22=4|151=0|38=100000|14=0|6=0|58=MarketAxess does not recognize the CUSIP/ISIN in one or more legs of the inquiry|75=20210927|10=222|
8=FIX.4.4|9=538|35=8|49=MA|56=T2Kauaiblk6|34=46|52=20210927-17:20:33.433|453=2|448=T2Kauaiblk6|447=C|452=11|448=Kauai blkrock company6|447=D|452=13|37=1337568|11=FIX44-List-ClOrdID-19152|66=MMAD-FIX44-ListID-111120-19149|17=1337568-11nb7z|150=0|39=0|55=[N/A]|54=1|48=US06738JYZ10|22=4|454=1|455=06738JYZ1|456=1|460=3|167=CORP|541=20270202|223=0.045|106=BARCLAYS BNK PLC|225=20120202|873=20120202|107=BACR  4.500  2/2/27|64=20210929|151=130000|15=USD|120=USD|38=130000|14=0|6=0|60=20210927-17:20:33|126=20210927-17:20:33|75=20210927|20117=8365008|30=MTXX|10=122|
8=FIX.4.4|9=542|35=8|49=MA|56=T2Kauaiblk6|34=47|52=20210927-17:20:33.438|453=2|448=T2Kauaiblk6|447=C|452=11|448=Kauai blkrock company6|447=D|452=13|37=1337570|11=FIX44-List-ClOrdID-19154|66=MMAD-FIX44-ListID-111120-19149|17=1337570-11nb82|150=0|39=0|55=[N/A]|54=1|48=US29379VAW37|22=4|454=1|455=29379VAW3|456=1|460=3|167=CORP|541=20420815|223=0.0485|106=ENTERPRISE PROD|225=20120215|873=20120215|107=EPD  4.850  8/15/42 c42|64=20210929|151=350000|15=USD|120=USD|38=350000|14=0|6=0|60=20210927-17:20:33|126=20210927-17:20:33|75=20210927|20117=8365010|30=MTXX|10=093|
8=FIX.4.4|9=541|35=8|49=MA|56=T2Kauaiblk6|34=48|52=20210927-17:20:33.442|453=2|448=T2Kauaiblk6|447=C|452=11|448=Kauai blkrock company6|447=D|452=13|37=1337569|11=FIX44-List-ClOrdID-19153|66=MMAD-FIX44-ListID-111120-19149|17=1337569-11nb82|150=0|39=0|55=[N/A]|54=1|48=US95709TAH32|22=4|454=1|455=95709TAH3|456=1|460=3|167=CORP|541=20420301|223=0.04125|106=EVERGY KANSAS|225=20120301|873=20120301|107=EVRG  4.125  3/1/42 c41|64=20210929|151=250000|15=USD|120=USD|38=250000|14=0|6=0|60=20210927-17:20:33|126=20210927-17:20:33|75=20210927|20117=8365009|30=MTXX|10=215|
8=FIX.4.4|9=538|35=8|49=MA|56=T2Kauaiblk6|34=49|52=20210927-17:20:33.445|453=2|448=T2Kauaiblk6|447=C|452=11|448=Kauai blkrock company6|447=D|452=13|37=1337567|11=FIX44-List-ClOrdID-19151|66=MMAD-FIX44-ListID-111120-19149|17=1337567-11nb81|150=0|39=0|55=[N/A]|54=1|48=US40434AAB52|22=4|454=1|455=40434AAB5|456=1|460=3|167=CORP|541=20260225|223=0.032|106=HSBC BK USA|225=20130225|873=20130225|107=HSBC  3.200  2/25/26 c22|64=20210929|151=100000|15=USD|120=USD|38=100000|14=0|6=0|60=20210927-17:20:33|126=20210927-17:20:33|75=20210927|20117=8365007|30=MTXX|10=106|
8=FIX.4.4|9=612|35=E|34=10|49=T2Kauaiblk6|52=20210927-17:20:35.955|56=MA|66=ListID-200421-M19155|394=2|68=5|73=5|11=ClOrdID-M19156|22=4|38=100000|48=US06051GEN51|54=1|55=[N/A/]|63=3|67=1|423=1|453=1|448=T2Kauaiblk6|447=C|452=11|11=ClOrdID-M19157|22=4|38=100000|48=US40434AAB52|54=1|55=[N/A]|63=3|67=2|11=ClOrdID-M19158|22=4|38=130000|48=US95709TAH32|54=1|55=[N/A/]|63=3|67=1|453=1|448=T2Kauaiblk6|447=C|452=11|11=ClOrdID-M19159|22=4|38=250000|48=US427866AZ15|54=1|55=[N/A/]|63=3|67=1|453=1|448=T2Kauaiblk6|447=C|452=11|11=ClOrdID-M19160|22=4|38=350000|48=US29379VAW37|54=1|55=[N/A/]|63=3|67=1|453=1|448=T2Kauaiblk6|447=C|452=11|10=153|
8=FIX.4.4|9=370|35=8|49=MA|56=T2Kauaiblk6|34=50|52=20210927-17:20:36.115|453=1|448=T2Kauaiblk6|447=C|452=11|37=100003004-ClOrdID-M19156|11=ClOrdID-M19156|66=ListID-200421-M19155|17=100003004-ClOrdID-M19156-11ndam|150=8|39=8|103=1|55=[N/A]|54=1|48=US06051GEN51|22=4|151=0|38=100000|14=0|6=0|58=MarketAxess does not recognize the CUSIP/ISIN in one or more legs of the inquiry|75=20210927|10=244|
8=FIX.4.4|9=521|35=8|49=MA|56=T2Kauaiblk6|34=51|52=20210927-17:20:36.191|453=2|448=T2Kauaiblk6|447=C|452=11|448=Kauai blkrock company6|447=D|452=13|37=1337575|11=ClOrdID-M19158|66=ListID-200421-M19155|17=1337575-11ndch|150=0|39=0|55=[N/A]|54=1|48=US95709TAH32|22=4|454=1|455=95709TAH3|456=1|460=3|167=CORP|541=20420301|223=0.04125|106=EVERGY KANSAS|225=20120301|873=20120301|107=EVRG  4.125  3/1/42 c41|64=20210929|151=130000|15=USD|120=USD|38=130000|14=0|6=0|60=20210927-17:20:36|126=20210927-17:20:36|75=20210927|20117=8365013|30=MTXX|10=189|
8=FIX.4.4|9=518|35=8|49=MA|56=T2Kauaiblk6|34=52|52=20210927-17:20:36.194|453=2|448=T2Kauaiblk6|447=C|452=11|448=Kauai blkrock company6|447=D|452=13|37=1337574|11=ClOrdID-M19157|66=ListID-200421-M19155|17=1337574-11ndcg|150=0|39=0|55=[N/A]|54=1|48=US40434AAB52|22=4|454=1|455=40434AAB5|456=1|460=3|167=CORP|541=20260225|223=0.032|106=HSBC BK USA|225=20130225|873=20130225|107=HSBC  3.200  2/25/26 c22|64=20210929|151=100000|15=USD|120=USD|38=100000|14=0|6=0|60=20210927-17:20:36|126=20210927-17:20:36|75=20210927|20117=8365012|30=MTXX|10=090|
8=FIX.4.4|9=522|35=8|49=MA|56=T2Kauaiblk6|34=53|52=20210927-17:20:36.199|453=2|448=T2Kauaiblk6|447=C|452=11|448=Kauai blkrock company6|447=D|452=13|37=1337577|11=ClOrdID-M19160|66=ListID-200421-M19155|17=1337577-11ndci|150=0|39=0|55=[N/A]|54=1|48=US29379VAW37|22=4|454=1|455=29379VAW3|456=1|460=3|167=CORP|541=20420815|223=0.0485|106=ENTERPRISE PROD|225=20120215|873=20120215|107=EPD  4.850  8/15/42 c42|64=20210929|151=350000|15=USD|120=USD|38=350000|14=0|6=0|60=20210927-17:20:36|126=20210927-17:20:36|75=20210927|20117=8365015|30=MTXX|10=102|
8=FIX.4.4|9=515|35=8|49=MA|56=T2Kauaiblk6|34=54|52=20210927-17:20:36.203|453=2|448=T2Kauaiblk6|447=C|452=11|448=Kauai blkrock company6|447=D|452=13|37=1337576|11=ClOrdID-M19159|66=ListID-200421-M19155|17=1337576-11ndcj|150=0|39=0|55=[N/A]|54=1|48=US427866AZ15|22=4|454=1|455=427866AZ1|456=1|460=3|167=CORP|541=20230515|223=0.03375|106=HERSHEY|225=20180510|873=20180510|107=HSY  3.375  5/15/23 c23|64=20210929|151=250000|15=USD|120=USD|38=250000|14=0|6=0|60=20210927-17:20:36|126=20210927-17:20:36|75=20210927|20117=8365014|30=MTXX|10=039|
8=FIX.4.4|9=2374|35=E|34=11|49=T2Kauaiblk6|52=20210927-17:20:47.884|56=MA|66=ListID-050221-19161|394=2|68=20|73=20|11=ClOrdID-19162|22=4|38=1000000|44=100.202|48=US06051GEN51|54=1|55=[N/A/]|67=1|423=1|29726=100.262|453=1|448=T2Kauaiblk6|447=C|452=11|11=ClOrdID-19163|22=4|38=2000000|44=99.23|48=US40434AAB52|54=1|55=[N/A]|67=2|423=1|29726=100.262|11=ClOrdID-19164|22=4|38=1300000|44=100.1|48=US06738JYZ10|54=1|55=[N/A/]|67=3|423=1|29726=99.555|453=1|448=T2Kauaiblk6|447=C|452=11|11=ClOrdID-19165|22=4|38=2500000|44=98.253|48=US95709TAH32|54=1|55=[N/A/]|67=4|423=1|29726=101.225|453=1|448=T2Kauaiblk6|447=C|452=11|11=ClOrdID-19166|22=4|38=3000000|44=100.235|48=US29379VAW37|54=1|55=[N/A/]|67=5|423=1|29726=99.66|453=1|448=T2Kauaiblk6|447=C|452=11|11=ClOrdID-19167|22=4|38=1000000|44=101.123|48=US48121ECC49|54=1|55=[N/A/]|67=6|423=1|29726=100.601|453=1|448=T2Kauaiblk6|447=C|452=11|11=ClOrdID-19168|22=4|38=3500000|44=102.32|48=US983024AL46|54=1|55=[N/A/]|67=7|423=1|453=1|448=T2Kauaiblk6|447=C|452=11|11=ClOrdID-19169|22=4|38=4500000|48=US61166WAE12|54=1|55=[N/A/]|67=8|453=1|448=T2Kauaiblk6|447=C|452=11|11=ClOrdID-19170|22=4|38=350000|48=US000828JAM09|54=1|55=[N/A/]|67=9|453=1|448=T2Kauaiblk6|447=C|452=11|11=ClOrdID-19171|22=4|38=1000000|48=US62630CAR25|54=1|55=[N/A/]|67=10|453=1|448=T2Kauaiblk6|447=C|452=11|11=ClOrdID-19172|22=4|38=1000000|48=US05379BAK35|54=1|55=[N/A/]|67=11|453=1|448=T2Kauaiblk6|447=C|452=11|11=ClOrdID-19173|22=4|38=1000000|48=US368710AC32|54=1|55=[N/A/]|67=12|453=1|448=T2Kauaiblk6|447=C|452=11|11=ClOrdID-19174|22=4|38=200000|48=XS1186833239|54=1|55=[N/A/]|67=13|453=1|448=T2Kauaiblk6|447=C|452=11|11=ClOrdID-19175|22=4|38=350000|48=US842400FC28|54=1|55=[N/A/]|67=14|453=1|448=T2Kauaiblk6|447=C|452=11|11=ClOrdID-19176|22=4|38=5000000|48=US927804FA70|54=1|55=[N/A/]|67=15|453=1|448=T2Kauaiblk6|447=C|452=11|11=ClOrdID-19177|22=4|38=500000|48=US472319AC60|54=1|55=[N/A/]|67=16|453=1|448=T2Kauaiblk6|447=C|452=11|11=ClOrdID-19178|22=4|38=700000|44=99.992|48=US93884PDN78|54=1|55=[N/A/]|67=17|423=1|453=1|448=T2Kauaiblk6|447=C|452=11|11=ClOrdID-19179|22=4|38=8000000|48=US06050XWS88|54=1|55=[N/A/]|67=8|453=1|448=T2Kauaiblk6|447=C|452=11|11=ClOrdID-19180|22=4|38=1000000|44=98.985|48=US87425EAJ29|54=1|55=[N/A/]|67=19|423=1|453=1|448=T2Kauaiblk6|447=C|452=11|11=ClOrdID-19181|22=4|38=2000000|48=US816300AG24|54=1|55=[N/A/]|67=20|453=1|448=T2Kauaiblk6|447=C|452=11|10=159|
8=FIX.4.4|9=380|35=8|49=MA|56=T2Kauaiblk6|34=55|52=20210927-17:20:48.332|453=1|448=T2Kauaiblk6|447=C|452=11|37=100003004-ClOrdID-19162|11=ClOrdID-19162|66=ListID-050221-19161|17=100003004-ClOrdID-19162-11nmpy|150=8|39=8|103=1|55=[N/A]|54=1|48=US06051GEN51|22=4|5214=100.202|151=0|38=1000000|14=0|6=0|58=MarketAxess does not recognize the CUSIP/ISIN in one or more legs of the inquiry|75=20210927|10=112|
8=FIX.4.4|9=367|35=8|49=MA|56=T2Kauaiblk6|34=56|52=20210927-17:20:48.337|453=1|448=T2Kauaiblk6|447=C|452=11|37=100003004-ClOrdID-19170|11=ClOrdID-19170|66=ListID-050221-19161|17=100003004-ClOrdID-19170-11nmpz|150=8|39=8|103=1|55=[N/A]|54=1|48=US000828JAM09|22=4|151=0|38=350000|14=0|6=0|58=MarketAxess does not recognize the CUSIP/ISIN in one or more legs of the inquiry|75=20210927|10=042|
8=FIX.4.4|9=367|35=8|49=MA|56=T2Kauaiblk6|34=57|52=20210927-17:20:48.345|453=1|448=T2Kauaiblk6|447=C|452=11|37=100003004-ClOrdID-19171|11=ClOrdID-19171|66=ListID-050221-19161|17=100003004-ClOrdID-19171-11nmq0|150=8|39=8|103=1|55=[N/A]|54=1|48=US62630CAR25|22=4|151=0|38=1000000|14=0|6=0|58=MarketAxess does not recognize the CUSIP/ISIN in one or more legs of the inquiry|75=20210927|10=216|
8=FIX.4.4|9=522|35=8|49=MA|56=T2Kauaiblk6|34=58|52=20210927-17:20:48.593|453=2|448=T2Kauaiblk6|447=C|452=11|448=Kauai blkrock company6|447=D|452=13|37=1337586|11=ClOrdID-19166|66=ListID-050221-19161|17=1337586-11nmwp|150=0|39=0|55=[N/A]|54=1|48=US29379VAW37|22=4|454=1|455=29379VAW3|456=1|460=3|167=CORP|541=20420815|223=0.0485|106=ENTERPRISE PROD|225=20120215|873=20120215|107=EPD  4.850  8/15/42 c42|64=20210929|151=3000000|15=USD|120=USD|38=3000000|14=0|6=0|60=20210927-17:20:48|126=20210927-17:20:48|75=20210927|20117=8365021|30=MTXX|10=083|
8=FIX.4.4|9=518|35=8|49=MA|56=T2Kauaiblk6|34=59|52=20210927-17:20:48.604|453=2|448=T2Kauaiblk6|447=C|452=11|448=Kauai blkrock company6|447=D|452=13|37=1337583|11=ClOrdID-19163|66=ListID-050221-19161|17=1337583-11nmws|150=0|39=0|55=[N/A]|54=1|48=US40434AAB52|22=4|454=1|455=40434AAB5|456=1|460=3|167=CORP|541=20260225|223=0.032|106=HSBC BK USA|225=20130225|873=20130225|107=HSBC  3.200  2/25/26 c22|64=20210929|151=2000000|15=USD|120=USD|38=2000000|14=0|6=0|60=20210927-17:20:48|126=20210927-17:20:48|75=20210927|20117=8365018|30=MTXX|10=088|
8=FIX.4.4|9=521|35=8|49=MA|56=T2Kauaiblk6|34=60|52=20210927-17:20:48.609|453=2|448=T2Kauaiblk6|447=C|452=11|448=Kauai blkrock company6|447=D|452=13|37=1337585|11=ClOrdID-19165|66=ListID-050221-19161|17=1337585-11nmwr|150=0|39=0|55=[N/A]|54=1|48=US95709TAH32|22=4|454=1|455=95709TAH3|456=1|460=3|167=CORP|541=20420301|223=0.04125|106=EVERGY KANSAS|225=20120301|873=20120301|107=EVRG  4.125  3/1/42 c41|64=20210929|151=2500000|15=USD|120=USD|38=2500000|14=0|6=0|60=20210927-17:20:48|126=20210927-17:20:48|75=20210927|20117=8365020|30=MTXX|10=185|
8=FIX.4.4|9=506|35=8|49=MA|56=T2Kauaiblk6|34=61|52=20210927-17:20:48.615|453=2|448=T2Kauaiblk6|447=C|452=11|448=Kauai blkrock company6|447=D|452=13|37=1337588|11=ClOrdID-19168|66=ListID-050221-19161|17=1337588-11nmwv|150=0|39=0|55=[N/A]|54=1|48=US983024AL46|22=4|454=1|455=983024AL4|456=1|460=3|167=CORP|541=20360215|223=0.06|106=WYETH|225=20060207|873=20051114|107=PFE  6.000  2/15/36|64=20210929|151=3500000|15=USD|120=USD|38=3500000|14=0|6=0|60=20210927-17:20:48|126=20210927-17:20:48|75=20210927|20117=8365023|30=MTXX|10=214|
8=FIX.4.4|9=518|35=8|49=MA|56=T2Kauaiblk6|34=62|52=20210927-17:20:48.619|453=2|448=T2Kauaiblk6|447=C|452=11|448=Kauai blkrock company6|447=D|452=13|37=1337584|11=ClOrdID-19164|66=ListID-050221-19161|17=1337584-11nmwt|150=0|39=0|55=[N/A]|54=1|48=US06738JYZ10|22=4|454=1|455=06738JYZ1|456=1|460=3|167=CORP|541=20270202|223=0.045|106=BARCLAYS BNK PLC|225=20120202|873=20120202|107=BACR  4.500  2/2/27|64=20210929|151=1300000|15=USD|120=USD|38=1300000|14=0|6=0|60=20210927-17:20:48|126=20210927-17:20:48|75=20210927|20117=8365019|30=MTXX|10=037|
8=FIX.4.4|9=514|35=8|49=MA|56=T2Kauaiblk6|34=63|52=20210927-17:20:48.623|453=2|448=T2Kauaiblk6|447=C|452=11|448=Kauai blkrock company6|447=D|452=13|37=1337595|11=ClOrdID-19177|66=ListID-050221-19161|17=1337595-11nmww|150=0|39=0|55=[N/A]|54=1|48=US472319AC60|22=4|454=1|455=472319AC6|456=1|460=3|167=CORP|541=20360115|223=0.0625|106=JEFFERIES GRP|225=20060126|873=20060126|107=JEF  6.250  1/15/36|64=20210929|151=500000|15=USD|120=USD|38=500000|14=0|6=0|60=20210927-17:20:48|126=20210927-17:20:48|75=20210927|20117=8365030|30=MTXX|10=203|
8=FIX.4.4|9=512|35=8|49=MA|56=T2Kauaiblk6|34=64|52=20210927-17:20:48.627|453=2|448=T2Kauaiblk6|447=C|452=11|448=Kauai blkrock company6|447=D|452=13|37=1337593|11=ClOrdID-19175|66=ListID-050221-19161|17=1337593-11nmwx|150=0|39=0|55=[N/A]|54=1|48=US842400FC28|22=4|454=1|455=842400FC2|456=1|460=3|167=CORP|541=20360201|223=0.05625|106=SOUTHERN CA|225=20060131|873=20060131|107=EIX  5.625  2/1/36|64=20210929|151=350000|15=USD|120=USD|38=350000|14=0|6=0|60=20210927-17:20:48|126=20210927-17:20:48|75=20210927|20117=8365028|30=MTXX|10=091|
8=FIX.4.4|9=514|35=8|49=MA|56=T2Kauaiblk6|34=65|52=20210927-17:20:48.634|453=2|448=T2Kauaiblk6|447=C|452=11|448=Kauai blkrock company6|447=D|452=13|37=1337594|11=ClOrdID-19176|66=ListID-050221-19161|17=1337594-11nmx3|150=0|39=0|55=[N/A]|54=1|48=US927804FA70|22=4|454=1|455=927804FA7|456=1|460=3|167=CORP|541=20360115|223=0.06|106=VIRGINIA E&P CO|225=20060113|873=20060113|107=D  6.000  1/15/36|64=20210929|151=5000000|15=USD|120=USD|38=5000000|14=0|6=0|60=20210927-17:20:48|126=20210927-17:20:48|75=20210927|20117=8365029|30=MTXX|10=068|
8=FIX.4.4|9=489|35=8|49=MA|56=T2Kauaiblk6|34=66|52=20210927-17:20:48.639|453=2|448=T2Kauaiblk6|447=C|452=11|448=Kauai blkrock company6|447=D|452=13|37=1337592|11=ClOrdID-19174|66=ListID-050221-19161|17=1337592-11nmx3|150=0|39=0|55=[N/A]|54=1|48=XS1186833239|22=4|460=3|167=CORP|541=20220104|223=0.0342|106=BNP PARIBAS ISS|225=20161031|873=20161030|107=BNP  3.420  1/4/22|64=20210929|151=200000|15=USD|120=USD|38=200000|14=0|6=0|60=20210927-17:20:48|126=20210927-17:20:48|75=20210927|20117=8365027|30=MTXX|10=200|
8=FIX.4.4|9=516|35=8|49=MA|56=T2Kauaiblk6|34=67|52=20210927-17:20:48.644|453=2|448=T2Kauaiblk6|447=C|452=11|448=Kauai blkrock company6|447=D|452=13|37=1337596|11=ClOrdID-19178|66=ListID-050221-19161|17=1337596-11nmwx|150=0|39=0|55=[N/A]|54=1|48=US93884PDN78|22=4|454=1|455=93884PDN7|456=1|460=3|167=CORP|541=20360118|223=0.057|106=WASHIN GAS LIGHT|225=20060118|873=20060118|107=WGL  5.700  1/18/36|64=20210929|151=700000|15=USD|120=USD|38=700000|14=0|6=0|60=20210927-17:20:48|126=20210927-17:20:48|75=20210927|20117=8365031|30=MTXX|10=251|
8=FIX.4.4|9=520|35=8|49=MA|56=T2Kauaiblk6|34=68|52=20210927-17:20:48.652|453=2|448=T2Kauaiblk6|447=C|452=11|448=Kauai blkrock company6|447=D|452=13|37=1337587|11=ClOrdID-19167|66=ListID-050221-19161|17=1337587-11nmx4|150=0|39=0|55=[N/A]|54=1|48=US48121ECC49|22=4|454=1|455=48121ECC4|456=1|460=3|167=CORP|541=20450515|223=0.06|106=JP MORGAN CHASE|225=20060224|873=20060224|107=JPM  6.000  5/45 (144a)|64=20210929|151=1000000|15=USD|120=USD|38=1000000|14=0|6=0|60=20210927-17:20:48|126=20210927-17:20:48|75=20210927|20117=8365022|30=MTXX|10=236|
8=FIX.4.4|9=512|35=8|49=MA|56=T2Kauaiblk6|34=69|52=20210927-17:20:48.656|453=2|448=T2Kauaiblk6|447=C|452=11|448=Kauai blkrock company6|447=D|452=13|37=1337597|11=ClOrdID-19179|66=ListID-050221-19161|17=1337597-11nmx4|150=0|39=0|55=[N/A]|54=1|48=US06050XWS88|22=4|454=1|455=06050XWS8|456=1|460=3|167=CORP|541=20260215|223=0.055|106=BOFAML|225=20060202|873=20060202|107=BAC  5.500  2/15/26 c21|64=20210929|151=8000000|15=USD|120=USD|38=8000000|14=0|6=0|60=20210927-17:20:48|126=20210927-17:20:48|75=20210927|20117=8365032|30=MTXX|10=055|
8=FIX.4.4|9=512|35=8|49=MA|56=T2Kauaiblk6|34=70|52=20210927-17:20:48.685|453=2|448=T2Kauaiblk6|447=C|452=11|448=Kauai blkrock company6|447=D|452=13|37=1337590|11=ClOrdID-19172|66=ListID-050221-19161|17=1337590-11nmyb|150=0|39=0|55=[N/A]|54=1|48=US05379BAK35|22=4|454=1|455=05379BAK3|456=1|460=3|167=CORP|541=20351201|223=0.0625|106=AVISTA US|225=20051117|873=20051117|107=AVA  6.250  12/1/35|64=20210929|151=1000000|15=USD|120=USD|38=1000000|14=0|6=0|60=20210927-17:20:48|126=20210927-17:20:48|75=20210927|20117=8365025|30=MTXX|10=039|
8=FIX.4.4|9=513|35=8|49=MA|56=T2Kauaiblk6|34=71|52=20210927-17:20:48.691|453=2|448=T2Kauaiblk6|447=C|452=11|448=Kauai blkrock company6|447=D|452=13|37=1337591|11=ClOrdID-19173|66=ListID-050221-19161|17=1337591-11nmyd|150=0|39=0|55=[N/A]|54=1|48=US368710AC32|22=4|454=1|455=368710AC3|456=1|460=3|167=CORP|541=20350715|223=0.0525|106=GENENTECH|225=20051121|873=20050718|107=ROSW  5.250  7/15/35|64=20210929|151=1000000|15=USD|120=USD|38=1000000|14=0|6=0|60=20210927-17:20:48|126=20210927-17:20:48|75=20210927|20117=8365026|30=MTXX|10=124|
8=FIX.4.4|9=517|35=8|49=MA|56=T2Kauaiblk6|34=72|52=20210927-17:20:48.695|453=2|448=T2Kauaiblk6|447=C|452=11|448=Kauai blkrock company6|447=D|452=13|37=1337598|11=ClOrdID-19180|66=ListID-050221-19161|17=1337598-11nmyf|150=0|39=0|55=[N/A]|54=1|48=US87425EAJ29|22=4|454=1|455=87425EAJ2|456=1|460=3|167=CORP|541=20370201|223=0.0585|106=REPSOL OIL CA|225=20060127|873=20060127|107=REPSM  5.850  2/1/37|64=20210929|151=1000000|15=USD|120=USD|38=1000000|14=0|6=0|60=20210927-17:20:48|126=20210927-17:20:48|75=20210927|20117=8365033|30=MTXX|10=197|
8=FIX.4.4|9=510|35=8|49=MA|56=T2Kauaiblk6|34=73|52=20210927-17:20:48.699|453=2|448=T2Kauaiblk6|447=C|452=11|448=Kauai blkrock company6|447=D|452=13|37=1337589|11=ClOrdID-19169|66=ListID-050221-19161|17=1337589-11nmyp|150=0|39=0|55=[N/A]|54=1|48=US61166WAE12|22=4|454=1|455=61166WAE1|456=1|460=3|167=CORP|541=20250815|223=0.055|106=MONSANTO|225=20060210|873=20050825|107=MON  5.500  8/15/25|64=20210929|151=4500000|15=USD|120=USD|38=4500000|14=0|6=0|60=20210927-17:20:48|126=20210927-17:20:48|75=20210927|20117=8365024|30=MTXX|10=059|
8=FIX.4.4|9=516|35=8|49=MA|56=T2Kauaiblk6|34=74|52=20210927-17:20:48.703|453=2|448=T2Kauaiblk6|447=C|452=11|448=Kauai blkrock company6|447=D|452=13|37=1337599|11=ClOrdID-19181|66=ListID-050221-19161|17=1337599-11nmyq|150=0|39=0|55=[N/A]|54=1|48=US816300AG24|22=4|454=1|455=816300AG2|456=1|460=3|167=CORP|541=20351101|223=0.067|106=SELECTIVE INS|225=20060109|873=20051103|107=SIGI  6.700  11/1/35|64=20210929|151=2000000|15=USD|120=USD|38=2000000|14=0|6=0|60=20210927-17:20:48|126=20210927-17:20:48|75=20210927|20117=8365034|30=MTXX|10=074|
8=FIX.4.4|9=57|35=0|34=12|49=T2Kauaiblk6|52=20210927-17:22:18.094|56=MA|10=129|
8=FIX.4.4|9=57|35=0|34=75|49=MA|52=20210927-17:22:19.522|56=T2Kauaiblk6|10=135|
8=FIX.4.4|9=647|35=E|34=13|49=T2Kauaiblk6|52=20210927-17:22:19.978|56=MA|66=MMAD-FIX44-ListID-061020-19182|394=2|68=5|73=5|11=FIX44-List-ClOrdID-19183|22=4|38=100000|48=XS0542534192|54=1|55=[N/A/]|67=1|423=1|453=1|448=T2Kauaiblk6|447=C|452=11|11=FIX44-List-ClOrdID-19184|22=4|38=100000|48=FR0013241536|54=1|55=[N/A]|67=2|11=FIX44-List-ClOrdID-19185|22=4|38=130000|48=DE000HLB4D56|54=1|55=[N/A/]|67=1|453=1|448=T2Kauaiblk6|447=C|452=11|11=FIX44-List-ClOrdID-19186|22=4|38=250000|48=XS0987936076|54=1|55=[N/A/]|67=1|453=1|448=T2Kauaiblk6|447=C|452=11|11=FIX44-List-ClOrdID-19187|22=4|38=350000|48=XS0401048102|54=1|55=[N/A/]|67=1|453=1|448=T2Kauaiblk6|447=C|452=11|10=147|
8=FIX.4.4|9=381|35=8|49=MA|56=T2Kauaiblk6|34=76|52=20210927-17:22:20.174|453=1|448=T2Kauaiblk6|447=C|452=11|37=100003004-FIX44-List-ClOrdID-19183|11=FIX44-List-ClOrdID-19183|66=MMAD-FIX44-ListID-061020-19182|17=100003004-FIX44-List-ClOrdID-19183-11pll3|150=8|39=8|103=99|55=[N/A]|54=1|48=XS0542534192|22=4|151=0|38=100000|14=0|6=0|58=User k6_trader2 does not have trading permissions.|75=20210927|10=093|
8=FIX.4.4|9=381|35=8|49=MA|56=T2Kauaiblk6|34=77|52=20210927-17:22:20.180|453=1|448=T2Kauaiblk6|447=C|452=11|37=100003004-FIX44-List-ClOrdID-19184|11=FIX44-List-ClOrdID-19184|66=MMAD-FIX44-ListID-061020-19182|17=100003004-FIX44-List-ClOrdID-19184-11pll4|150=8|39=8|103=99|55=[N/A]|54=1|48=FR0013241536|22=4|151=0|38=100000|14=0|6=0|58=User k6_trader2 does not have trading permissions.|75=20210927|10=066|
8=FIX.4.4|9=381|35=8|49=MA|56=T2Kauaiblk6|34=78|52=20210927-17:22:20.183|453=1|448=T2Kauaiblk6|447=C|452=11|37=100003004-FIX44-List-ClOrdID-19185|11=FIX44-List-ClOrdID-19185|66=MMAD-FIX44-ListID-061020-19182|17=100003004-FIX44-List-ClOrdID-19185-11pll6|150=8|39=8|103=99|55=[N/A]|54=1|48=DE000HLB4D56|22=4|151=0|38=130000|14=0|6=0|58=User k6_trader2 does not have trading permissions.|75=20210927|10=143|
8=FIX.4.4|9=381|35=8|49=MA|56=T2Kauaiblk6|34=79|52=20210927-17:22:20.187|453=1|448=T2Kauaiblk6|447=C|452=11|37=100003004-FIX44-List-ClOrdID-19187|11=FIX44-List-ClOrdID-19187|66=MMAD-FIX44-ListID-061020-19182|17=100003004-FIX44-List-ClOrdID-19187-11pll9|150=8|39=8|103=99|55=[N/A]|54=1|48=XS0401048102|22=4|151=0|38=350000|14=0|6=0|58=User k6_trader2 does not have trading permissions.|75=20210927|10=110|
8=FIX.4.4|9=381|35=8|49=MA|56=T2Kauaiblk6|34=80|52=20210927-17:22:20.192|453=1|448=T2Kauaiblk6|447=C|452=11|37=100003004-FIX44-List-ClOrdID-19186|11=FIX44-List-ClOrdID-19186|66=MMAD-FIX44-ListID-061020-19182|17=100003004-FIX44-List-ClOrdID-19186-11pll7|150=8|39=8|103=99|55=[N/A]|54=1|48=XS0987936076|22=4|151=0|38=250000|14=0|6=0|58=User k6_trader2 does not have trading permissions.|75=20210927|10=127|
8=FIX.4.4|9=663|35=E|34=14|49=T2Kauaiblk6|52=20210927-17:22:23.400|56=MA|66=ListID-070521-VT19188|394=2|68=5|73=5|11=ClOrdID-M19189|22=4|38=100000|44=111.11|48=US69354NAB29|54=1|55=[N/A/]|63=3|67=1|423=1|453=1|448=T2Kauaiblk6|447=C|452=11|11=ClOrdID-M19190|22=4|38=100000|44=111.11|48=US084423AC66|54=1|55=[N/A]|63=3|67=2|11=ClOrdID-M19191|22=4|38=130000|44=111.11|48=US06744CT508|54=1|55=[N/A/]|63=3|67=1|453=1|448=T2Kauaiblk6|447=C|452=11|11=ClOrdID-M19192|22=4|38=250000|44=111.11|48=US95709TAH32|54=1|55=[N/A/]|63=3|67=1|453=1|448=T2Kauaiblk6|447=C|452=11|11=ClOrdID-M19193|22=4|38=350000|44=111.11|48=US29379VAW37|54=1|55=[N/A/]|63=3|67=1|453=1|448=T2Kauaiblk6|447=C|452=11|10=233|
8=FIX.4.4|9=519|35=8|49=MA|56=T2Kauaiblk6|34=81|52=20210927-17:22:23.672|453=2|448=T2Kauaiblk6|447=C|452=11|448=Kauai blkrock company6|447=D|452=13|37=1337607|11=ClOrdID-M19189|66=ListID-070521-VT19188|17=1337607-11poa4|150=0|39=0|55=[N/A]|54=1|48=US69354NAB29|22=4|454=1|455=69354NAB2|456=1|460=3|167=CORP|541=20230601|223=0.035|106=PRA GROUP|225=20170526|873=20170526|107=PRAA  3.500  6/1/23 CALLED|64=20210929|151=100000|15=USD|120=USD|38=100000|14=0|6=0|60=20210927-17:22:23|126=20210927-17:22:23|75=20210927|20117=8365039|30=MTXX|10=076|
8=FIX.4.4|9=544|35=8|49=MA|56=T2Kauaiblk6|34=82|52=20210927-17:22:23.676|453=2|448=T2Kauaiblk6|447=C|452=11|448=Kauai blkrock company6|447=D|452=13|37=1337609|11=ClOrdID-M19191|66=ListID-070521-VT19188|17=1337609-11poa5|150=0|39=0|55=[N/A]|54=1|48=US06744CT508|22=4|454=1|455=06744CT50|456=1|460=3|167=CORP|541=20280126|223=0.01363|106=BARCLAYS BK PLC MED TERM NTS BOOK ENTRY|225=20180126|873=20180126|107=BACR  1/26/28 (FRN)|64=20210929|151=130000|15=USD|120=USD|38=130000|14=0|6=0|60=20210927-17:22:23|126=20210927-17:22:23|75=20210927|20117=8365041|30=MTXX|10=235|
8=FIX.4.4|9=523|35=8|49=MA|56=T2Kauaiblk6|34=83|52=20210927-17:22:23.680|453=2|448=T2Kauaiblk6|447=C|452=11|448=Kauai blkrock company6|447=D|452=13|37=1337611|11=ClOrdID-M19193|66=ListID-070521-VT19188|17=1337611-11poa4|150=0|39=0|55=[N/A]|54=1|48=US29379VAW37|22=4|454=1|455=29379VAW3|456=1|460=3|167=CORP|541=20420815|223=0.0485|106=ENTERPRISE PROD|225=20120215|873=20120215|107=EPD  4.850  8/15/42 c42|64=20210929|151=350000|15=USD|120=USD|38=350000|14=0|6=0|60=20210927-17:22:23|126=20210927-17:22:23|75=20210927|20117=8365043|30=MTXX|10=143|
8=FIX.4.4|9=522|35=8|49=MA|56=T2Kauaiblk6|34=84|52=20210927-17:22:23.684|453=2|448=T2Kauaiblk6|447=C|452=11|448=Kauai blkrock company6|447=D|452=13|37=1337610|11=ClOrdID-M19192|66=ListID-070521-VT19188|17=1337610-11poa7|150=0|39=0|55=[N/A]|54=1|48=US95709TAH32|22=4|454=1|455=95709TAH3|456=1|460=3|167=CORP|541=20420301|223=0.04125|106=EVERGY KANSAS|225=20120301|873=20120301|107=EVRG  4.125  3/1/42 c41|64=20210929|151=250000|15=USD|120=USD|38=250000|14=0|6=0|60=20210927-17:22:23|126=20210927-17:22:23|75=20210927|20117=8365042|30=MTXX|10=250|
8=FIX.4.4|9=513|35=8|49=MA|56=T2Kauaiblk6|34=85|52=20210927-17:22:23.690|453=2|448=T2Kauaiblk6|447=C|452=11|448=Kauai blkrock company6|447=D|452=13|37=1337608|11=ClOrdID-M19190|66=ListID-070521-VT19188|17=1337608-11poa6|150=0|39=0|55=[N/A]|54=1|48=US084423AC66|22=4|454=1|455=084423AC6|456=1|460=3|167=CORP|541=20220101|223=0.087|106=W R BERKLEY|225=19920114|873=19920101|107=WRB  8.700  1/1/22|64=20210929|151=100000|15=USD|120=USD|38=100000|14=0|6=0|60=20210927-17:22:23|126=20210927-17:22:23|75=20210927|20117=8365040|30=MTXX|10=108|
8=FIX.4.4|9=57|35=5|34=86|49=MA|52=20210927-17:23:14.544|56=T2Kauaiblk6|10=142|
8=FIX.4.4|9=57|35=5|34=15|49=T2Kauaiblk6|52=20210927-17:23:14.595|56=MA|10=140|
8=FIX.4.4|9=91|35=A|34=1|49=T2Kauaiblk6|52=20210928-09:42:34.380|56=MA|98=0|108=90|95=8|96=3.0.0rc5|141=Y|10=052|
8=FIX.4.4|9=74|35=A|34=1|49=MA|52=20210928-09:42:35.175|56=T2Kauaiblk6|98=0|108=90|141=Y|10=174|
8=FIX.4.4|9=713|35=E|34=2|49=T2Kauaiblk6|52=20210928-09:42:38.075|56=MA|66=ListID-041321-rodrigo-19212|394=2|68=5|73=5|11=ClOrdID-19213|22=4|38=100000|44=100|48=US06051GEN51|54=1|55=[N/A/]|63=3|67=1|423=1|29726=100.25|453=1|448=T2Kauaiblk6|447=C|452=11|11=ClOrdID-19214|22=4|38=100000|44=101|48=US40434AAB52|54=1|55=[N/A]|63=3|67=2|29726=101.25|11=ClOrdID-19215|22=4|38=130000|44=102|48=US95709TAH32|54=1|55=[N/A/]|63=3|67=1|29726=102.25|453=1|448=T2Kauaiblk6|447=C|452=11|11=ClOrdID-19216|22=4|38=250000|44=103|48=US427866AZ15|54=1|55=[N/A/]|63=3|67=1|29726=103.25|453=1|448=T2Kauaiblk6|447=C|452=11|11=ClOrdID-19217|22=4|38=350000|44=104|48=US29379VAW37|54=1|55=[N/A/]|63=3|67=1|29726=104.25|453=1|448=T2Kauaiblk6|447=C|452=11|10=247|
8=FIX.4.4|9=381|35=8|49=MA|56=T2Kauaiblk6|34=2|52=20210928-09:42:38.346|453=1|448=T2Kauaiblk6|447=C|452=11|37=100003004-ClOrdID-19213|11=ClOrdID-19213|66=ListID-041321-rodrigo-19212|17=100003004-ClOrdID-19213-d6xhc|150=8|39=8|103=1|55=[N/A]|54=1|48=US06051GEN51|22=4|5214=100|151=0|38=100000|14=0|6=0|58=MarketAxess does not recognize the CUSIP/ISIN in one or more legs of the inquiry|75=20210928|10=033|
8=FIX.4.4|9=526|35=8|49=MA|56=T2Kauaiblk6|34=3|52=20210928-09:42:38.646|453=2|448=T2Kauaiblk6|447=C|452=11|448=Kauai blkrock company6|447=D|452=13|37=1338478|11=ClOrdID-19217|66=ListID-041321-rodrigo-19212|17=1338478-d6xpi|150=0|39=0|55=[N/A]|54=1|48=US29379VAW37|22=4|454=1|455=29379VAW3|456=1|460=3|167=CORP|541=20420815|223=0.0485|106=ENTERPRISE PROD|225=20120215|873=20120215|107=EPD  4.850  8/15/42 c42|64=20210930|151=350000|15=USD|120=USD|38=350000|14=0|6=0|60=20210928-09:42:38|126=20210928-09:42:38|75=20210928|20117=8369062|30=MTXX|10=190|
8=FIX.4.4|9=519|35=8|49=MA|56=T2Kauaiblk6|34=4|52=20210928-09:42:38.651|453=2|448=T2Kauaiblk6|447=C|452=11|448=Kauai blkrock company6|447=D|452=13|37=1338477|11=ClOrdID-19216|66=ListID-041321-rodrigo-19212|17=1338477-d6xpj|150=0|39=0|55=[N/A]|54=1|48=US427866AZ15|22=4|454=1|455=427866AZ1|456=1|460=3|167=CORP|541=20230515|223=0.03375|106=HERSHEY|225=20180510|873=20180510|107=HSY  3.375  5/15/23 c23|64=20210930|151=250000|15=USD|120=USD|38=250000|14=0|6=0|60=20210928-09:42:38|126=20210928-09:42:38|75=20210928|20117=8369061|30=MTXX|10=128|
8=FIX.4.4|9=522|35=8|49=MA|56=T2Kauaiblk6|34=5|52=20210928-09:42:38.655|453=2|448=T2Kauaiblk6|447=C|452=11|448=Kauai blkrock company6|447=D|452=13|37=1338475|11=ClOrdID-19214|66=ListID-041321-rodrigo-19212|17=1338475-d6xpk|150=0|39=0|55=[N/A]|54=1|48=US40434AAB52|22=4|454=1|455=40434AAB5|456=1|460=3|167=CORP|541=20260225|223=0.032|106=HSBC BK USA|225=20130225|873=20130225|107=HSBC  3.200  2/25/26 c22|64=20210930|151=100000|15=USD|120=USD|38=100000|14=0|6=0|60=20210928-09:42:38|126=20210928-09:42:38|75=20210928|20117=8369059|30=MTXX|10=181|
8=FIX.4.4|9=525|35=8|49=MA|56=T2Kauaiblk6|34=6|52=20210928-09:42:38.856|453=2|448=T2Kauaiblk6|447=C|452=11|448=Kauai blkrock company6|447=D|452=13|37=1338476|11=ClOrdID-19215|66=ListID-041321-rodrigo-19212|17=1338476-d6xvh|150=0|39=0|55=[N/A]|54=1|48=US95709TAH32|22=4|454=1|455=95709TAH3|456=1|460=3|167=CORP|541=20420301|223=0.04125|106=EVERGY KANSAS|225=20120301|873=20120301|107=EVRG  4.125  3/1/42 c41|64=20210930|151=130000|15=USD|120=USD|38=130000|14=0|6=0|60=20210928-09:42:38|126=20210928-09:42:38|75=20210928|20117=8369060|30=MTXX|10=034|
8=FIX.4.4|9=56|35=0|34=3|49=T2Kauaiblk6|52=20210928-09:44:08.379|56=MA|10=091|
8=FIX.4.4|9=56|35=0|34=7|49=MA|52=20210928-09:44:09.180|56=T2Kauaiblk6|10=086|
8=FIX.4.4|9=56|35=0|34=4|49=T2Kauaiblk6|52=20210928-09:45:39.387|56=MA|10=096|
8=FIX.4.4|9=56|35=0|34=8|49=MA|52=20210928-09:45:39.515|56=T2Kauaiblk6|10=093|
8=FIX.4.4|9=56|35=0|34=5|49=T2Kauaiblk6|52=20210928-09:47:09.390|56=MA|10=090|
8=FIX.4.4|9=56|35=0|34=9|49=MA|52=20210928-09:47:09.520|56=T2Kauaiblk6|10=089|
8=FIX.4.4|9=56|35=5|34=6|49=T2Kauaiblk6|52=20210928-09:47:43.387|56=MA|10=100|
8=FIX.4.4|9=57|35=5|34=10|49=MA|52=20210928-09:47:43.512|56=T2Kauaiblk6|10=134|
