8=FIX.4.4|9=96|35=A|34=1|49=omblckrcktrader2|52=20211030-10:47:52.266|56=MA|98=0|108=90|95=8|96=3.0.0rc5|141=Y|10=182|
8=FIX.4.4|9=79|35=A|34=1|49=MA|52=20211030-10:47:52.970|56=omblckrcktrader2|98=0|108=90|141=Y|10=047|
8=FIX.4.4|9=903|35=E|34=2|49=omblckrcktrader2|52=20211030-10:47:56.122|56=MA|66=FIX44-ListID-20777|394=2|68=10|73=10|11=FIX44-List-ClOrdID-20778|22=1|38=1000000|48=852061AA8|54=1|55=[N/A/]|67=1|453=1|448=omblckrcktrader2|447=C|452=11|11=FIX44-List-ClOrdID-20779|22=1|38=2000000|48=55616XAB3|54=1|55=[N/A]|67=2|11=FIX44-List-ClOrdID-20780|22=1|38=2000000|48=31410HAQ4|54=1|55=[N/A]|67=3|11=FIX44-List-ClOrdID-20781|22=1|38=2000000|48=345397FL2|54=1|55=[N/A]|67=4|11=FIX44-List-ClOrdID-20782|22=1|38=2000000|48=69352JAK3|54=1|55=[N/A]|67=5|11=FIX44-List-ClOrdID-20783|22=1|38=2000000|48=577081AU6|54=1|55=[N/A]|67=6|11=FIX44-List-ClOrdID-20784|22=1|38=2000000|48=455434BQ2|54=1|55=[N/A]|67=7|11=FIX44-List-ClOrdID-20785|22=1|38=2000000|48=87422VAA6|54=1|55=[N/A]|67=8|11=FIX44-List-ClOrdID-20786|22=1|38=2000000|48=345397XA6|54=1|55=[N/A]|67=9|11=FIX44-List-ClOrdID-20787|22=1|38=2000000|48=25470XAW5|54=1|55=[N/A]|67=10|10=240|
8=FIX.4.4|9=377|35=8|49=MA|56=omblckrcktrader2|34=2|52=20211030-10:47:56.633|453=1|448=omblckrcktrader2|447=C|452=11|37=100002784-FIX44-List-ClOrdID-20778|11=FIX44-List-ClOrdID-20778|66=FIX44-ListID-20777|17=100002784-FIX44-List-ClOrdID-20778-1i3suo|150=8|39=8|103=99|55=[N/A]|54=1|48=852061AA8|22=1|151=0|38=1000000|14=0|6=0|58=This Bond is not available to trade on MarketAxess.|75=20211030|10=045|
8=FIX.4.4|9=515|35=8|49=MA|56=omblckrcktrader2|34=3|52=20211030-10:47:56.754|453=2|448=omblckrcktrader2|447=C|452=11|448=NewOM blkrock company|447=D|452=13|37=8584700|11=FIX44-List-ClOrdID-20783|66=8584698|17=8584700-1i3sxm|150=0|39=0|55=[N/A]|54=1|48=577081AU6|22=1|454=1|455=US577081AU60|456=4|460=3|167=CORP|541=20401001|223=0.062|106=MATTEL|225=20100928|873=20100928|107=MAT  6.200  10/1/40|64=20211102|151=2000000|15=USD|120=USD|38=2000000|14=0|6=0|60=20211030-10:47:56|126=20211030-10:47:56|75=20211030|20117=8584700|30=MTXX|10=153|
8=FIX.4.4|9=528|35=8|49=MA|56=omblckrcktrader2|34=4|52=20211030-10:47:56.764|453=2|448=omblckrcktrader2|447=C|452=11|448=NewOM blkrock company|447=D|452=13|37=8584701|11=FIX44-List-ClOrdID-20785|66=8584698|17=8584701-1i3sxg|150=0|39=0|55=[N/A]|54=1|48=87422VAA6|22=1|454=1|455=US87422VAA61|456=4|460=3|167=CORP|541=20250601|223=0.065|106=TALEN ENERGY SUP|225=20160122|873=20151201|107=TLN  6.500  6/1/25 c21|64=20211102|151=2000000|15=USD|120=USD|38=2000000|14=0|6=0|60=20211030-10:47:56|126=20211030-10:47:56|75=20211030|20117=8584701|30=MTXX|10=046|
8=FIX.4.4|9=525|35=8|49=MA|56=omblckrcktrader2|34=5|52=20211030-10:47:56.783|453=2|448=omblckrcktrader2|447=C|452=11|448=NewOM blkrock company|447=D|452=13|37=8584699|11=FIX44-List-ClOrdID-20782|66=8584698|17=8584699-1i3sxj|150=0|39=0|55=[N/A]|54=1|48=69352JAK3|22=1|454=1|455=US69352JAK34|456=4|460=3|167=CORP|541=20361215|223=0.06|106=TALEN ENERGY SUP|225=20061214|873=20061214|107=PPL  6.000  12/15/36|64=20211102|151=2000000|15=USD|120=USD|38=2000000|14=0|6=0|60=20211030-10:47:56|126=20211030-10:47:56|75=20211030|20117=8584699|30=MTXX|10=166|
8=FIX.4.4|9=523|35=8|49=MA|56=omblckrcktrader2|34=6|52=20211030-10:47:56.847|453=2|448=omblckrcktrader2|447=C|452=11|448=NewOM blkrock company|447=D|452=13|37=1420957|11=FIX44-List-ClOrdID-20780|66=FIX44-ListID-20777|17=1420957-1i3szv|150=0|39=0|55=[N/A]|54=1|48=31410HAQ4|22=1|454=1|455=US31410HAQ48|456=4|460=3|167=CORP|541=20290401|223=0.069|106=MACY'S|225=19990614|873=19990324|107=M  6.900  4/1/29|64=20211102|151=2000000|15=USD|120=USD|38=2000000|14=0|6=0|60=20211030-10:47:56|126=20211030-10:47:56|75=20211030|20117=8584704|30=MTXX|10=091|
8=FIX.4.4|9=534|35=8|49=MA|56=omblckrcktrader2|34=7|52=20211030-10:47:56.864|453=2|448=omblckrcktrader2|447=C|452=11|448=NewOM blkrock company|447=D|452=13|37=1420960|11=FIX44-List-ClOrdID-20786|66=FIX44-ListID-20777|17=1420960-1i3t04|150=0|39=0|55=[N/A]|54=1|48=345397XA6|22=1|454=1|455=US345397XA68|456=4|460=3|167=CORP|541=20220109|223=0.03219|106=FORD MOTOR CRED|225=20150109|873=20150109|107=F  3.219  1/9/22|64=20211102|151=2000000|15=USD|120=USD|38=2000000|14=0|6=0|60=20211030-10:47:56|126=20211030-10:47:56|75=20211030|20117=8584707|30=MTXX|10=128|
8=FIX.4.4|9=536|35=8|49=MA|56=omblckrcktrader2|34=8|52=20211030-10:47:56.873|453=2|448=omblckrcktrader2|447=C|452=11|448=NewOM blkrock company|447=D|452=13|37=1420956|11=FIX44-List-ClOrdID-20779|66=FIX44-ListID-20777|17=1420956-1i3t03|150=0|39=0|55=[N/A]|54=1|48=55616XAB3|22=1|454=1|455=US55616XAB38|456=4|460=3|167=CORP|541=20270715|223=0.0679|106=MACY'S RET HLDG|225=19970714|873=19970714|107=M  6.790  7/15/27 p|64=20211102|151=2000000|15=USD|120=USD|38=2000000|14=0|6=0|60=20211030-10:47:56|126=20211030-10:47:56|75=20211030|20117=8584703|30=MTXX|10=073|
8=FIX.4.4|9=545|35=8|49=MA|56=omblckrcktrader2|34=9|52=20211030-10:47:56.878|453=2|448=omblckrcktrader2|447=C|452=11|448=NewOM blkrock company|447=D|452=13|37=1420959|11=FIX44-List-ClOrdID-20784|66=FIX44-ListID-20777|17=1420959-1i3t04|150=0|39=0|55=[N/A]|54=1|48=455434BQ2|22=1|454=1|455=US455434BQ27|456=4|460=3|167=CORP|541=20430601|223=0.0465|106=INDIANAPOLIS PWR|225=20130606|873=20130606|107=AES  4.650  6/43 c42 (144a)|64=20211102|151=2000000|15=USD|120=USD|38=2000000|14=0|6=0|60=20211030-10:47:56|126=20211030-10:47:56|75=20211030|20117=8584706|30=MTXX|10=070|
8=FIX.4.4|9=533|35=8|49=MA|56=omblckrcktrader2|34=10|52=20211030-10:47:56.896|453=2|448=omblckrcktrader2|447=C|452=11|448=NewOM blkrock company|447=D|452=13|37=1420961|11=FIX44-List-ClOrdID-20787|66=FIX44-ListID-20777|17=1420961-1i3t04|150=0|39=0|55=[N/A]|54=1|48=25470XAW5|22=1|454=1|455=US25470XAW56|456=4|460=3|167=CORP|541=20241115|223=0.05875|106=DISH DBS|225=20150129|873=20141120|107=DISH  5.875  11/15/24|64=20211102|151=2000000|15=USD|120=USD|38=2000000|14=0|6=0|60=20211030-10:47:56|126=20211030-10:47:56|75=20211030|20117=8584708|30=MTXX|10=058|
8=FIX.4.4|9=543|35=8|49=MA|56=omblckrcktrader2|34=11|52=20211030-10:47:56.908|453=2|448=omblckrcktrader2|447=C|452=11|448=NewOM blkrock company|447=D|452=13|37=1420958|11=FIX44-List-ClOrdID-20781|66=FIX44-ListID-20777|17=1420958-1i3t08|150=0|39=0|55=[N/A]|54=1|48=345397FL2|22=1|454=1|455=US345397FL26|456=4|460=3|167=CORP|541=20480915|223=0.00578477|106=FORD MOTOR CRED|225=19880922|873=19880922|107=F  9/15/48 cp22 (FRN)|64=20211102|151=2000000|15=USD|120=USD|38=2000000|14=0|6=0|60=20211030-10:47:56|126=20211030-10:47:56|75=20211030|20117=8584705|30=MTXX|10=041|
8=FIX.4.4|9=61|35=0|34=3|49=omblckrcktrader2|52=20211030-10:49:26.306|56=MA|10=199|
8=FIX.4.4|9=62|35=0|34=12|49=MA|52=20211030-10:49:27.694|56=omblckrcktrader2|10=003|
8=FIX.4.4|9=61|35=0|34=4|49=omblckrcktrader2|52=20211030-10:50:56.354|56=MA|10=198|
8=FIX.4.4|9=62|35=0|34=13|49=MA|52=20211030-10:50:58.674|56=omblckrcktrader2|10=254|
8=FIX.4.4|9=61|35=0|34=5|49=omblckrcktrader2|52=20211030-10:52:26.410|56=MA|10=191|
8=FIX.4.4|9=62|35=0|34=14|49=MA|52=20211030-10:52:29.696|56=omblckrcktrader2|10=003|
8=FIX.4.4|9=61|35=0|34=6|49=omblckrcktrader2|52=20211030-10:53:57.400|56=MA|10=196|
8=FIX.4.4|9=62|35=0|34=15|49=MA|52=20211030-10:54:00.705|56=omblckrcktrader2|10=242|
8=FIX.4.4|9=61|35=0|34=7|49=omblckrcktrader2|52=20211030-10:55:28.403|56=MA|10=200|
8=FIX.4.4|9=62|35=0|34=16|49=MA|52=20211030-10:55:31.686|56=omblckrcktrader2|10=000|
8=FIX.4.4|9=61|35=0|34=8|49=omblckrcktrader2|52=20211030-10:56:58.410|56=MA|10=203|
8=FIX.4.4|9=62|35=0|34=17|49=MA|52=20211030-10:57:02.693|56=omblckrcktrader2|10=255|
8=FIX.4.4|9=61|35=0|34=9|49=omblckrcktrader2|52=20211030-10:58:29.392|56=MA|10=213|
8=FIX.4.4|9=62|35=0|34=18|49=MA|52=20211030-10:58:33.664|56=omblckrcktrader2|10=003|
8=FIX.4.4|9=62|35=0|34=10|49=omblckrcktrader2|52=20211030-10:59:59.406|56=MA|10=254|
8=FIX.4.4|9=62|35=0|34=19|49=MA|52=20211030-11:00:04.695|56=omblckrcktrader2|10=250|
8=FIX.4.4|9=62|35=0|34=11|49=omblckrcktrader2|52=20211030-11:01:29.409|56=MA|10=243|
8=FIX.4.4|9=62|35=0|34=20|49=MA|52=20211030-11:01:34.699|56=omblckrcktrader2|10=250|
8=FIX.4.4|9=62|35=0|34=12|49=omblckrcktrader2|52=20211030-11:02:59.409|56=MA|10=248|
8=FIX.4.4|9=62|35=0|34=21|49=MA|52=20211030-11:03:05.664|56=omblckrcktrader2|10=243|
8=FIX.4.4|9=62|35=0|34=13|49=omblckrcktrader2|52=20211030-11:04:29.411|56=MA|10=241|
8=FIX.4.4|9=62|35=0|34=22|49=MA|52=20211030-11:04:35.695|56=omblckrcktrader2|10=252|
8=FIX.4.4|9=62|35=0|34=14|49=omblckrcktrader2|52=20211030-11:06:00.402|56=MA|10=233|
8=FIX.4.4|9=62|35=0|34=23|49=MA|52=20211030-11:06:06.662|56=omblckrcktrader2|10=247|
8=FIX.4.4|9=62|35=0|34=15|49=omblckrcktrader2|52=20211030-11:07:31.393|56=MA|10=248|
8=FIX.4.4|9=62|35=0|34=24|49=MA|52=20211030-11:07:36.693|56=omblckrcktrader2|10=000|
8=FIX.4.4|9=62|35=0|34=16|49=omblckrcktrader2|52=20211030-11:09:01.404|56=MA|10=241|
8=FIX.4.4|9=62|35=0|34=25|49=MA|52=20211030-11:09:07.696|56=omblckrcktrader2|10=004|
8=FIX.4.4|9=62|35=0|34=17|49=omblckrcktrader2|52=20211030-11:10:32.409|56=MA|10=243|
8=FIX.4.4|9=62|35=0|34=26|49=MA|52=20211030-11:10:38.663|56=omblckrcktrader2|10=251|
8=FIX.4.4|9=62|35=0|34=18|49=omblckrcktrader2|52=20211030-11:12:02.410|56=MA|10=235|
8=FIX.4.4|9=62|35=0|34=27|49=MA|52=20211030-11:12:09.695|56=omblckrcktrader2|10=001|
8=FIX.4.4|9=62|35=0|34=19|49=omblckrcktrader2|52=20211030-11:13:33.407|56=MA|10=247|
8=FIX.4.4|9=62|35=0|34=28|49=MA|52=20211030-11:13:40.664|56=omblckrcktrader2|10=250|
8=FIX.4.4|9=62|35=0|34=20|49=omblckrcktrader2|52=20211030-11:15:04.398|56=MA|10=248|
8=FIX.4.4|9=62|35=0|34=29|49=MA|52=20211030-11:15:10.695|56=omblckrcktrader2|10=254|
8=FIX.4.4|9=62|35=0|34=21|49=omblckrcktrader2|52=20211030-11:16:35.395|56=MA|10=251|
8=FIX.4.4|9=62|35=0|34=30|49=MA|52=20211030-11:16:41.693|56=omblckrcktrader2|10=249|
8=FIX.4.4|9=62|35=0|34=22|49=omblckrcktrader2|52=20211030-11:18:05.408|56=MA|10=246|
8=FIX.4.4|9=62|35=0|34=31|49=MA|52=20211030-11:18:12.695|56=omblckrcktrader2|10=252|
8=FIX.4.4|9=62|35=0|34=23|49=omblckrcktrader2|52=20211030-11:19:36.410|56=MA|10=245|
8=FIX.4.4|9=62|35=0|34=32|49=MA|52=20211030-11:19:42.695|56=omblckrcktrader2|10=001|
8=FIX.4.4|9=62|35=0|34=24|49=omblckrcktrader2|52=20211030-11:21:07.396|56=MA|10=250|
8=FIX.4.4|9=62|35=0|34=33|49=MA|52=20211030-11:21:13.696|56=omblckrcktrader2|10=250|
8=FIX.4.4|9=62|35=0|34=25|49=omblckrcktrader2|52=20211030-11:22:37.407|56=MA|10=248|
8=FIX.4.4|9=62|35=0|34=34|49=MA|52=20211030-11:22:44.693|56=omblckrcktrader2|10=253|
8=FIX.4.4|9=62|35=0|34=26|49=omblckrcktrader2|52=20211030-11:24:08.410|56=MA|10=243|
8=FIX.4.4|9=62|35=0|34=35|49=MA|52=20211030-11:24:15.693|56=omblckrcktrader2|10=254|
8=FIX.4.4|9=62|35=0|34=27|49=omblckrcktrader2|52=20211030-11:25:39.408|56=MA|10=000|
8=FIX.4.4|9=62|35=0|34=36|49=MA|52=20211030-11:25:46.693|56=omblckrcktrader2|10=004|
8=FIX.4.4|9=62|35=0|34=28|49=omblckrcktrader2|52=20211030-11:27:09.410|56=MA|10=249|
8=FIX.4.4|9=62|35=0|34=37|49=MA|52=20211030-11:27:16.693|56=omblckrcktrader2|10=004|
8=FIX.4.4|9=62|35=0|34=29|49=omblckrcktrader2|52=20211030-11:28:40.408|56=MA|10=253|
8=FIX.4.4|9=62|35=0|34=38|49=MA|52=20211030-11:28:46.694|56=omblckrcktrader2|10=010|
8=FIX.4.4|9=62|35=0|34=30|49=omblckrcktrader2|52=20211030-11:30:11.406|56=MA|10=234|
8=FIX.4.4|9=62|35=0|34=39|49=MA|52=20211030-11:30:16.696|56=omblckrcktrader2|10=003|
8=FIX.4.4|9=62|35=0|34=31|49=omblckrcktrader2|52=20211030-11:31:42.406|56=MA|10=240|
8=FIX.4.4|9=62|35=0|34=40|49=MA|52=20211030-11:31:47.671|56=omblckrcktrader2|10=249|
8=FIX.4.4|9=62|35=0|34=32|49=omblckrcktrader2|52=20211030-11:33:13.408|56=MA|10=243|
8=FIX.4.4|9=62|35=0|34=41|49=MA|52=20211030-11:33:18.694|56=omblckrcktrader2|10=255|
8=FIX.4.4|9=62|35=0|34=33|49=omblckrcktrader2|52=20211030-11:34:44.394|56=MA|10=253|
8=FIX.4.4|9=62|35=0|34=42|49=MA|52=20211030-11:34:49.694|56=omblckrcktrader2|10=005|
8=FIX.4.4|9=62|35=0|34=34|49=omblckrcktrader2|52=20211030-11:36:14.396|56=MA|10=255|
8=FIX.4.4|9=62|35=0|34=43|49=MA|52=20211030-11:36:19.697|56=omblckrcktrader2|10=008|
8=FIX.4.4|9=62|35=0|34=35|49=omblckrcktrader2|52=20211030-11:37:44.399|56=MA|10=007|
8=FIX.4.4|9=62|35=0|34=44|49=MA|52=20211030-11:37:50.662|56=omblckrcktrader2|10=253|
8=FIX.4.4|9=62|35=0|34=36|49=omblckrcktrader2|52=20211030-11:39:14.416|56=MA|10=253|
8=FIX.4.4|9=62|35=0|34=45|49=MA|52=20211030-11:39:20.691|56=omblckrcktrader2|10=255|
8=FIX.4.4|9=62|35=0|34=37|49=omblckrcktrader2|52=20211030-11:40:45.415|56=MA|10=249|
8=FIX.4.4|9=62|35=0|34=46|49=MA|52=20211030-11:40:50.693|56=omblckrcktrader2|10=253|
8=FIX.4.4|9=62|35=0|34=38|49=omblckrcktrader2|52=20211030-11:42:15.415|56=MA|10=249|
8=FIX.4.4|9=62|35=0|34=47|49=MA|52=20211030-11:42:21.692|56=omblckrcktrader2|10=253|
8=FIX.4.4|9=62|35=0|34=39|49=omblckrcktrader2|52=20211030-11:43:46.407|56=MA|10=000|
8=FIX.4.4|9=62|35=0|34=48|49=MA|52=20211030-11:43:52.689|56=omblckrcktrader2|10=009|
8=FIX.4.4|9=62|35=0|34=40|49=omblckrcktrader2|52=20211030-11:45:17.414|56=MA|10=246|
8=FIX.4.4|9=62|35=0|34=49|49=MA|52=20211030-11:45:22.694|56=omblckrcktrader2|10=005|
8=FIX.4.4|9=62|35=0|34=41|49=omblckrcktrader2|52=20211030-11:46:48.399|56=MA|10=008|
8=FIX.4.4|9=62|35=0|34=50|49=MA|52=20211030-11:46:52.695|56=omblckrcktrader2|10=002|
8=FIX.4.4|9=62|35=0|34=42|49=omblckrcktrader2|52=20211030-11:48:19.412|56=MA|10=251|
8=FIX.4.4|9=62|35=0|34=51|49=MA|52=20211030-11:48:23.694|56=omblckrcktrader2|10=002|
8=FIX.4.4|9=62|35=0|34=43|49=omblckrcktrader2|52=20211030-11:49:50.412|56=MA|10=248|
8=FIX.4.4|9=62|35=0|34=52|49=MA|52=20211030-11:49:54.694|56=omblckrcktrader2|10=008|
8=FIX.4.4|9=62|35=0|34=44|49=omblckrcktrader2|52=20211030-11:51:21.402|56=MA|10=239|
8=FIX.4.4|9=62|35=0|34=53|49=MA|52=20211030-11:51:24.697|56=omblckrcktrader2|10=002|
8=FIX.4.4|9=62|35=0|34=45|49=omblckrcktrader2|52=20211030-11:52:52.396|56=MA|10=001|
8=FIX.4.4|9=62|35=0|34=54|49=MA|52=20211030-11:52:55.694|56=omblckrcktrader2|10=005|
8=FIX.4.4|9=62|35=0|34=46|49=omblckrcktrader2|52=20211030-11:54:22.410|56=MA|10=244|
8=FIX.4.4|9=62|35=0|34=55|49=MA|52=20211030-11:54:26.694|56=omblckrcktrader2|10=006|
8=FIX.4.4|9=62|35=0|34=47|49=omblckrcktrader2|52=20211030-11:55:53.402|56=MA|10=251|
8=FIX.4.4|9=62|35=0|34=56|49=MA|52=20211030-11:55:57.693|56=omblckrcktrader2|10=011|
8=FIX.4.4|9=62|35=0|34=48|49=omblckrcktrader2|52=20211030-11:57:23.403|56=MA|10=252|
8=FIX.4.4|9=62|35=0|34=57|49=MA|52=20211030-11:57:28.693|56=omblckrcktrader2|10=012|
8=FIX.4.4|9=62|35=0|34=49|49=omblckrcktrader2|52=20211030-11:58:53.412|56=MA|10=001|
8=FIX.4.4|9=62|35=0|34=58|49=MA|52=20211030-11:58:59.694|56=omblckrcktrader2|10=019|
8=FIX.4.4|9=62|35=0|34=50|49=omblckrcktrader2|52=20211030-12:00:24.401|56=MA|10=233|
8=FIX.4.4|9=62|35=0|34=59|49=MA|52=20211030-12:00:29.697|56=omblckrcktrader2|10=008|
8=FIX.4.4|9=62|35=0|34=51|49=omblckrcktrader2|52=20211030-12:01:54.408|56=MA|10=245|
8=FIX.4.4|9=62|35=0|34=60|49=MA|52=20211030-12:02:00.692|56=omblckrcktrader2|10=242|
8=FIX.4.4|9=62|35=0|34=52|49=omblckrcktrader2|52=20211030-12:03:24.409|56=MA|10=246|
8=FIX.4.4|9=62|35=0|34=61|49=MA|52=20211030-12:03:31.690|56=omblckrcktrader2|10=246|
8=FIX.4.4|9=62|35=0|34=53|49=omblckrcktrader2|52=20211030-12:04:55.397|56=MA|10=002|
8=FIX.4.4|9=62|35=0|34=62|49=MA|52=20211030-12:05:02.694|56=omblckrcktrader2|10=251|
8=FIX.4.4|9=62|35=0|34=54|49=omblckrcktrader2|52=20211030-12:06:26.404|56=MA|10=248|
8=FIX.4.4|9=62|35=0|34=63|49=MA|52=20211030-12:06:33.693|56=omblckrcktrader2|10=000|
8=FIX.4.4|9=62|35=0|34=55|49=omblckrcktrader2|52=20211030-12:07:56.410|56=MA|10=250|
8=FIX.4.4|9=62|35=0|34=64|49=MA|52=20211030-12:08:04.693|56=omblckrcktrader2|10=001|
8=FIX.4.4|9=62|35=0|34=56|49=omblckrcktrader2|52=20211030-12:09:27.403|56=MA|10=253|
8=FIX.4.4|9=62|35=0|34=65|49=MA|52=20211030-12:09:35.694|56=omblckrcktrader2|10=008|
8=FIX.4.4|9=62|35=0|34=57|49=omblckrcktrader2|52=20211030-12:10:57.407|56=MA|10=253|
8=FIX.4.4|9=62|35=0|34=66|49=MA|52=20211030-12:11:05.695|56=omblckrcktrader2|10=000|
8=FIX.4.4|9=62|35=0|34=58|49=omblckrcktrader2|52=20211030-12:12:27.421|56=MA|10=249|
8=FIX.4.4|9=62|35=0|34=67|49=MA|52=20211030-12:12:36.662|56=omblckrcktrader2|10=000|
8=FIX.4.4|9=62|35=0|34=59|49=omblckrcktrader2|52=20211030-12:13:58.415|56=MA|10=002|
8=FIX.4.4|9=62|35=0|34=68|49=MA|52=20211030-12:14:06.662|56=omblckrcktrader2|10=000|
8=FIX.4.4|9=62|35=0|34=60|49=omblckrcktrader2|52=20211030-12:15:28.424|56=MA|10=249|
8=FIX.4.4|9=62|35=0|34=69|49=MA|52=20211030-12:15:36.695|56=omblckrcktrader2|10=011|
8=FIX.4.4|9=62|35=0|34=61|49=omblckrcktrader2|52=20211030-12:16:59.425|56=MA|10=000|
8=FIX.4.4|9=62|35=0|34=70|49=MA|52=20211030-12:17:07.694|56=omblckrcktrader2|10=002|
8=FIX.4.4|9=62|35=0|34=62|49=omblckrcktrader2|52=20211030-12:18:30.427|56=MA|10=250|
8=FIX.4.4|9=62|35=0|34=71|49=MA|52=20211030-12:18:38.694|56=omblckrcktrader2|10=008|
8=FIX.4.4|9=62|35=0|34=63|49=omblckrcktrader2|52=20211030-12:20:00.427|56=MA|10=241|
8=FIX.4.4|9=62|35=0|34=72|49=MA|52=20211030-12:20:08.695|56=omblckrcktrader2|10=000|
8=FIX.4.4|9=62|35=0|34=64|49=omblckrcktrader2|52=20211030-12:21:31.413|56=MA|10=242|
8=FIX.4.4|9=62|35=0|34=73|49=MA|52=20211030-12:21:39.693|56=omblckrcktrader2|10=004|
8=FIX.4.4|9=62|35=0|34=65|49=omblckrcktrader2|52=20211030-12:23:01.425|56=MA|10=245|
8=FIX.4.4|9=62|35=0|34=74|49=MA|52=20211030-12:23:09.694|56=omblckrcktrader2|10=005|
8=FIX.4.4|9=62|35=0|34=66|49=omblckrcktrader2|52=20211030-12:24:31.429|56=MA|10=254|
8=FIX.4.4|9=62|35=0|34=75|49=MA|52=20211030-12:24:40.692|56=omblckrcktrader2|10=000|
8=FIX.4.4|9=62|35=0|34=67|49=omblckrcktrader2|52=20211030-12:26:02.418|56=MA|10=253|
8=FIX.4.4|9=62|35=0|34=76|49=MA|52=20211030-12:26:11.700|56=omblckrcktrader2|10=247|
8=FIX.4.4|9=62|35=0|34=68|49=omblckrcktrader2|52=20211030-12:27:32.422|56=MA|10=253|
8=FIX.4.4|9=62|35=0|34=77|49=MA|52=20211030-12:27:42.662|56=omblckrcktrader2|10=004|
8=FIX.4.4|9=62|35=0|34=69|49=omblckrcktrader2|52=20211030-12:29:02.434|56=MA|10=000|
8=FIX.4.4|9=62|35=0|34=78|49=MA|52=20211030-12:29:12.689|56=omblckrcktrader2|10=013|
8=FIX.4.4|9=62|35=0|34=70|49=omblckrcktrader2|52=20211030-12:30:33.434|56=MA|10=244|
8=FIX.4.4|9=62|35=0|34=79|49=MA|52=20211030-12:30:43.694|56=omblckrcktrader2|10=006|
8=FIX.4.4|9=62|35=0|34=71|49=omblckrcktrader2|52=20211030-12:32:04.430|56=MA|10=241|
8=FIX.4.4|9=62|35=0|34=80|49=MA|52=20211030-12:32:13.695|56=omblckrcktrader2|10=254|
8=FIX.4.4|9=62|35=0|34=72|49=omblckrcktrader2|52=20211030-12:33:35.420|56=MA|10=246|
8=FIX.4.4|9=62|35=0|34=81|49=MA|52=20211030-12:33:44.696|56=omblckrcktrader2|10=005|
8=FIX.4.4|9=62|35=0|34=73|49=omblckrcktrader2|52=20211030-12:35:05.425|56=MA|10=251|
8=FIX.4.4|9=62|35=0|34=82|49=MA|52=20211030-12:35:15.662|56=omblckrcktrader2|10=255|
8=FIX.4.4|9=62|35=0|34=74|49=omblckrcktrader2|52=20211030-12:36:35.426|56=MA|10=001|
8=FIX.4.4|9=62|35=0|34=83|49=MA|52=20211030-12:36:45.697|56=omblckrcktrader2|10=012|
8=FIX.4.4|9=62|35=0|34=75|49=omblckrcktrader2|52=20211030-12:38:05.426|56=MA|10=001|
8=FIX.4.4|9=62|35=0|34=84|49=MA|52=20211030-12:38:16.695|56=omblckrcktrader2|10=011|
8=FIX.4.4|9=62|35=0|34=76|49=omblckrcktrader2|52=20211030-12:39:36.431|56=MA|10=003|
8=FIX.4.4|9=62|35=0|34=85|49=MA|52=20211030-12:39:46.696|56=omblckrcktrader2|10=017|
8=FIX.4.4|9=62|35=0|34=77|49=omblckrcktrader2|52=20211030-12:41:07.431|56=MA|10=251|
8=FIX.4.4|9=62|35=0|34=86|49=MA|52=20211030-12:41:17.662|56=omblckrcktrader2|10=002|
8=FIX.4.4|9=62|35=0|34=78|49=omblckrcktrader2|52=20211030-12:42:38.418|56=MA|10=006|
8=FIX.4.4|9=62|35=0|34=87|49=MA|52=20211030-12:42:47.663|56=omblckrcktrader2|10=008|
8=FIX.4.4|9=62|35=0|34=79|49=omblckrcktrader2|52=20211030-12:44:08.423|56=MA|10=002|
8=FIX.4.4|9=62|35=0|34=88|49=MA|52=20211030-12:44:17.693|56=omblckrcktrader2|10=011|
8=FIX.4.4|9=62|35=0|34=80|49=omblckrcktrader2|52=20211030-12:45:38.428|56=MA|10=003|
8=FIX.4.4|9=62|35=0|34=89|49=MA|52=20211030-12:45:48.696|56=omblckrcktrader2|10=020|
8=FIX.4.4|9=62|35=0|34=81|49=omblckrcktrader2|52=20211030-12:47:09.429|56=MA|10=005|
8=FIX.4.4|9=62|35=0|34=90|49=MA|52=20211030-12:47:19.662|56=omblckrcktrader2|10=005|
8=FIX.4.4|9=62|35=0|34=82|49=omblckrcktrader2|52=20211030-12:48:40.430|56=MA|10=250|
8=FIX.4.4|9=62|35=0|34=91|49=MA|52=20211030-12:48:49.694|56=omblckrcktrader2|10=015|
8=FIX.4.4|9=62|35=0|34=83|49=omblckrcktrader2|52=20211030-12:50:11.423|56=MA|10=244|
8=FIX.4.4|9=62|35=0|34=92|49=MA|52=20211030-12:50:20.697|56=omblckrcktrader2|10=001|
8=FIX.4.4|9=62|35=0|34=84|49=omblckrcktrader2|52=20211030-12:51:41.431|56=MA|10=248|
8=FIX.4.4|9=62|35=0|34=93|49=MA|52=20211030-12:51:51.663|56=omblckrcktrader2|10=000|
8=FIX.4.4|9=62|35=0|34=85|49=omblckrcktrader2|52=20211030-12:53:11.432|56=MA|10=249|
8=FIX.4.4|9=62|35=0|34=94|49=MA|52=20211030-12:53:21.695|56=omblckrcktrader2|10=005|
8=FIX.4.4|9=62|35=0|34=86|49=omblckrcktrader2|52=20211030-12:54:42.433|56=MA|10=000|
8=FIX.4.4|9=62|35=0|34=95|49=MA|52=20211030-12:54:52.684|56=omblckrcktrader2|10=009|
8=FIX.4.4|9=62|35=0|34=87|49=omblckrcktrader2|52=20211030-12:56:13.431|56=MA|10=255|
8=FIX.4.4|9=62|35=0|34=96|49=MA|52=20211030-12:56:22.695|56=omblckrcktrader2|10=011|
8=FIX.4.4|9=62|35=0|34=88|49=omblckrcktrader2|52=20211030-12:57:44.435|56=MA|10=009|
8=FIX.4.4|9=62|35=0|34=97|49=MA|52=20211030-12:57:53.694|56=omblckrcktrader2|10=016|
8=FIX.4.4|9=62|35=0|34=89|49=omblckrcktrader2|52=20211030-12:59:15.427|56=MA|10=011|
8=FIX.4.4|9=62|35=0|34=98|49=MA|52=20211030-12:59:24.694|56=omblckrcktrader2|10=017|
8=FIX.4.4|9=62|35=0|34=90|49=omblckrcktrader2|52=20211030-13:00:46.433|56=MA|10=247|
8=FIX.4.4|9=62|35=0|34=99|49=MA|52=20211030-13:00:55.695|56=omblckrcktrader2|10=010|
8=FIX.4.4|9=62|35=0|34=91|49=omblckrcktrader2|52=20211030-13:02:16.438|56=MA|10=252|
8=FIX.4.4|9=63|35=0|34=100|49=MA|52=20211030-13:02:26.693|56=omblckrcktrader2|10=040|
8=FIX.4.4|9=62|35=0|34=92|49=omblckrcktrader2|52=20211030-13:03:46.444|56=MA|10=254|
8=FIX.4.4|9=63|35=0|34=101|49=MA|52=20211030-13:03:57.692|56=omblckrcktrader2|10=045|
8=FIX.4.4|9=62|35=0|34=93|49=omblckrcktrader2|52=20211030-13:05:16.444|56=MA|10=254|
8=FIX.4.4|9=63|35=0|34=102|49=MA|52=20211030-13:05:27.694|56=omblckrcktrader2|10=047|
8=FIX.4.4|9=62|35=0|34=94|49=omblckrcktrader2|52=20211030-13:06:46.446|56=MA|10=005|
8=FIX.4.4|9=63|35=0|34=103|49=MA|52=20211030-13:06:58.720|56=omblckrcktrader2|10=043|
8=FIX.4.4|9=62|35=0|34=95|49=omblckrcktrader2|52=20211030-13:08:17.428|56=MA|10=006|
8=FIX.4.4|9=63|35=0|34=104|49=MA|52=20211030-13:08:29.697|56=omblckrcktrader2|10=057|
8=FIX.4.4|9=62|35=0|34=96|49=omblckrcktrader2|52=20211030-13:09:47.432|56=MA|10=006|
8=FIX.4.4|9=63|35=0|34=105|49=MA|52=20211030-13:09:59.699|56=omblckrcktrader2|10=064|
8=FIX.4.4|9=62|35=0|34=97|49=omblckrcktrader2|52=20211030-13:11:17.445|56=MA|10=001|
8=FIX.4.4|9=63|35=0|34=106|49=MA|52=20211030-13:11:30.681|56=omblckrcktrader2|10=038|
8=FIX.4.4|9=62|35=0|34=98|49=omblckrcktrader2|52=20211030-13:12:48.444|56=MA|10=006|
8=FIX.4.4|9=63|35=0|34=107|49=MA|52=20211030-13:13:00.683|56=omblckrcktrader2|10=040|
8=FIX.4.4|9=62|35=0|34=99|49=omblckrcktrader2|52=20211030-13:14:19.444|56=MA|10=007|
8=FIX.4.4|9=63|35=0|34=108|49=MA|52=20211030-13:14:31.684|56=omblckrcktrader2|10=047|
8=FIX.4.4|9=63|35=0|34=100|49=omblckrcktrader2|52=20211030-13:15:50.438|56=MA|10=038|
8=FIX.4.4|9=63|35=0|34=109|49=MA|52=20211030-13:16:02.693|56=omblckrcktrader2|10=048|
8=FIX.4.4|9=63|35=0|34=101|49=omblckrcktrader2|52=20211030-13:17:20.440|56=MA|10=031|
8=FIX.4.4|9=63|35=0|34=110|49=MA|52=20211030-13:17:32.694|56=omblckrcktrader2|10=045|
8=FIX.4.4|9=63|35=0|34=102|49=omblckrcktrader2|52=20211030-13:18:50.440|56=MA|10=036|
8=FIX.4.4|9=63|35=0|34=111|49=MA|52=20211030-13:19:02.694|56=omblckrcktrader2|10=045|
8=FIX.4.4|9=63|35=0|34=103|49=omblckrcktrader2|52=20211030-13:20:20.441|56=MA|10=028|
8=FIX.4.4|9=63|35=0|34=112|49=MA|52=20211030-13:20:33.694|56=omblckrcktrader2|10=042|
8=FIX.4.4|9=63|35=0|34=104|49=omblckrcktrader2|52=20211030-13:21:50.448|56=MA|10=040|
8=FIX.4.4|9=63|35=0|34=113|49=MA|52=20211030-13:22:03.694|56=omblckrcktrader2|10=042|
8=FIX.4.4|9=63|35=0|34=105|49=omblckrcktrader2|52=20211030-13:23:21.433|56=MA|10=035|
8=FIX.4.4|9=63|35=0|34=114|49=MA|52=20211030-13:23:33.699|56=omblckrcktrader2|10=052|
8=FIX.4.4|9=63|35=0|34=106|49=omblckrcktrader2|52=20211030-13:24:51.444|56=MA|10=042|
8=FIX.4.4|9=63|35=0|34=115|49=MA|52=20211030-13:25:04.663|56=omblckrcktrader2|10=044|
8=FIX.4.4|9=63|35=0|34=107|49=omblckrcktrader2|52=20211030-13:26:22.443|56=MA|10=042|
8=FIX.4.4|9=63|35=0|34=116|49=MA|52=20211030-13:26:35.693|56=omblckrcktrader2|10=053|
8=FIX.4.4|9=63|35=0|34=108|49=omblckrcktrader2|52=20211030-13:27:53.439|56=MA|10=053|
8=FIX.4.4|9=63|35=0|34=117|49=MA|52=20211030-13:28:06.695|56=omblckrcktrader2|10=056|
8=FIX.4.4|9=63|35=0|34=109|49=omblckrcktrader2|52=20211030-13:29:23.442|56=MA|10=047|
8=FIX.4.4|9=63|35=0|34=118|49=MA|52=20211030-13:29:37.694|56=omblckrcktrader2|10=061|
8=FIX.4.4|9=63|35=0|34=110|49=omblckrcktrader2|52=20211030-13:30:54.437|56=MA|10=039|
8=FIX.4.4|9=63|35=0|34=119|49=MA|52=20211030-13:31:08.692|56=omblckrcktrader2|10=051|
8=FIX.4.4|9=63|35=0|34=111|49=omblckrcktrader2|52=20211030-13:32:24.443|56=MA|10=036|
8=FIX.4.4|9=63|35=0|34=120|49=MA|52=20211030-13:32:38.695|56=omblckrcktrader2|10=050|
8=FIX.4.4|9=63|35=0|34=112|49=omblckrcktrader2|52=20211030-13:33:55.448|56=MA|10=047|
8=FIX.4.4|9=63|35=0|34=121|49=MA|52=20211030-13:34:09.694|56=omblckrcktrader2|10=050|
8=FIX.4.4|9=63|35=0|34=113|49=omblckrcktrader2|52=20211030-13:35:26.447|56=MA|10=047|
8=FIX.4.4|9=63|35=0|34=122|49=MA|52=20211030-13:35:40.693|56=omblckrcktrader2|10=046|
8=FIX.4.4|9=63|35=0|34=114|49=omblckrcktrader2|52=20211030-13:36:57.445|56=MA|10=051|
8=FIX.4.4|9=63|35=0|34=123|49=MA|52=20211030-13:37:10.695|56=omblckrcktrader2|10=048|
8=FIX.4.4|9=63|35=0|34=115|49=omblckrcktrader2|52=20211030-13:38:27.445|56=MA|10=051|
8=FIX.4.4|9=63|35=0|34=124|49=MA|52=20211030-13:38:41.662|56=omblckrcktrader2|10=048|
8=FIX.4.4|9=63|35=0|34=116|49=omblckrcktrader2|52=20211030-13:39:57.449|56=MA|10=060|
8=FIX.4.4|9=63|35=0|34=125|49=MA|52=20211030-13:40:11.694|56=omblckrcktrader2|10=044|
8=FIX.4.4|9=63|35=0|34=117|49=omblckrcktrader2|52=20211030-13:41:28.441|56=MA|10=044|
8=FIX.4.4|9=63|35=0|34=126|49=MA|52=20211030-13:41:41.694|56=omblckrcktrader2|10=049|
8=FIX.4.4|9=63|35=0|34=118|49=omblckrcktrader2|52=20211030-13:42:58.441|56=MA|10=049|
8=FIX.4.4|9=63|35=0|34=127|49=MA|52=20211030-13:43:12.694|56=omblckrcktrader2|10=050|
8=FIX.4.4|9=63|35=0|34=119|49=omblckrcktrader2|52=20211030-13:44:28.453|56=MA|10=052|
8=FIX.4.4|9=63|35=0|34=128|49=MA|52=20211030-13:44:42.695|56=omblckrcktrader2|10=056|
8=FIX.4.4|9=63|35=0|34=120|49=omblckrcktrader2|52=20211030-13:45:58.458|56=MA|10=053|
8=FIX.4.4|9=63|35=0|34=129|49=MA|52=20211030-13:46:12.695|56=omblckrcktrader2|10=056|
8=FIX.4.4|9=63|35=0|34=121|49=omblckrcktrader2|52=20211030-13:47:29.453|56=MA|10=049|
8=FIX.4.4|9=63|35=0|34=130|49=MA|52=20211030-13:47:42.696|56=omblckrcktrader2|10=053|
8=FIX.4.4|9=63|35=0|34=122|49=omblckrcktrader2|52=20211030-13:49:00.449|56=MA|10=046|
8=FIX.4.4|9=63|35=0|34=131|49=MA|52=20211030-13:49:12.696|56=omblckrcktrader2|10=053|
8=FIX.4.4|9=63|35=0|34=123|49=omblckrcktrader2|52=20211030-13:50:31.444|56=MA|10=038|
8=FIX.4.4|9=63|35=0|34=132|49=MA|52=20211030-13:50:42.697|56=omblckrcktrader2|10=050|
8=FIX.4.4|9=63|35=0|34=124|49=omblckrcktrader2|52=20211030-13:52:01.454|56=MA|10=039|
8=FIX.4.4|9=63|35=0|34=133|49=MA|52=20211030-13:52:13.665|56=omblckrcktrader2|10=046|
8=FIX.4.4|9=63|35=0|34=125|49=omblckrcktrader2|52=20211030-13:53:32.441|56=MA|10=041|
8=FIX.4.4|9=63|35=0|34=134|49=MA|52=20211030-13:53:43.695|56=omblckrcktrader2|10=054|
8=FIX.4.4|9=63|35=0|34=126|49=omblckrcktrader2|52=20211030-13:55:02.447|56=MA|10=047|
8=FIX.4.4|9=63|35=0|34=135|49=MA|52=20211030-13:55:14.696|56=omblckrcktrader2|10=056|
8=FIX.4.4|9=63|35=0|34=127|49=omblckrcktrader2|52=20211030-13:56:32.448|56=MA|10=053|
8=FIX.4.4|9=63|35=0|34=136|49=MA|52=20211030-13:56:45.663|56=omblckrcktrader2|10=056|
8=FIX.4.4|9=63|35=0|34=128|49=omblckrcktrader2|52=20211030-13:58:02.454|56=MA|10=050|
8=FIX.4.4|9=63|35=0|34=137|49=MA|52=20211030-13:58:15.693|56=omblckrcktrader2|10=059|
8=FIX.4.4|9=63|35=0|34=129|49=omblckrcktrader2|52=20211030-13:59:33.443|56=MA|10=054|
8=FIX.4.4|9=63|35=0|34=138|49=MA|52=20211030-13:59:46.696|56=omblckrcktrader2|10=068|
8=FIX.4.4|9=63|35=0|34=130|49=omblckrcktrader2|52=20211030-14:01:03.454|56=MA|10=033|
8=FIX.4.4|9=63|35=0|34=139|49=MA|52=20211030-14:01:17.695|56=omblckrcktrader2|10=054|
8=FIX.4.4|9=63|35=0|34=131|49=omblckrcktrader2|52=20211030-14:02:34.454|56=MA|10=039|
8=FIX.4.4|9=63|35=0|34=140|49=MA|52=20211030-14:02:48.693|56=omblckrcktrader2|10=049|
8=FIX.4.4|9=63|35=0|34=132|49=omblckrcktrader2|52=20211030-14:04:05.450|56=MA|10=036|
8=FIX.4.4|9=63|35=0|34=141|49=MA|52=20211030-14:04:18.699|56=omblckrcktrader2|10=055|
8=FIX.4.4|9=63|35=0|34=133|49=omblckrcktrader2|52=20211030-14:05:35.454|56=MA|10=045|
8=FIX.4.4|9=63|35=0|34=142|49=MA|52=20211030-14:05:49.695|56=omblckrcktrader2|10=057|
8=FIX.4.4|9=63|35=0|34=134|49=omblckrcktrader2|52=20211030-14:07:06.446|56=MA|10=047|
8=FIX.4.4|9=63|35=0|34=143|49=MA|52=20211030-14:07:20.698|56=omblckrcktrader2|10=052|
8=FIX.4.4|9=63|35=0|34=135|49=omblckrcktrader2|52=20211030-14:08:36.451|56=MA|10=048|
8=FIX.4.4|9=63|35=0|34=144|49=MA|52=20211030-14:08:51.692|56=omblckrcktrader2|10=052|
8=FIX.4.4|9=63|35=0|34=136|49=omblckrcktrader2|52=20211030-14:10:07.450|56=MA|10=039|
8=FIX.4.4|9=63|35=0|34=145|49=MA|52=20211030-14:10:22.689|56=omblckrcktrader2|10=050|
8=FIX.4.4|9=63|35=0|34=137|49=omblckrcktrader2|52=20211030-14:11:38.456|56=MA|10=051|
8=FIX.4.4|9=63|35=0|34=146|49=MA|52=20211030-14:11:52.695|56=omblckrcktrader2|10=052|
8=FIX.4.4|9=63|35=0|34=138|49=omblckrcktrader2|52=20211030-14:13:09.449|56=MA|10=054|
8=FIX.4.4|9=63|35=0|34=147|49=MA|52=20211030-14:13:23.662|56=omblckrcktrader2|10=047|
8=FIX.4.4|9=63|35=0|34=139|49=omblckrcktrader2|52=20211030-14:14:40.444|56=MA|10=046|
8=FIX.4.4|9=63|35=0|34=148|49=MA|52=20211030-14:14:53.663|56=omblckrcktrader2|10=053|
8=FIX.4.4|9=63|35=0|34=140|49=omblckrcktrader2|52=20211030-14:16:10.448|56=MA|10=041|
8=FIX.4.4|9=63|35=0|34=149|49=MA|52=20211030-14:16:23.694|56=omblckrcktrader2|10=057|
8=FIX.4.4|9=63|35=0|34=141|49=omblckrcktrader2|52=20211030-14:17:40.454|56=MA|10=043|
8=FIX.4.4|9=63|35=0|34=150|49=MA|52=20211030-14:17:53.694|56=omblckrcktrader2|10=053|
8=FIX.4.4|9=63|35=0|34=142|49=omblckrcktrader2|52=20211030-14:19:11.459|56=MA|10=049|
8=FIX.4.4|9=63|35=0|34=151|49=MA|52=20211030-14:19:24.695|56=omblckrcktrader2|10=055|
8=FIX.4.4|9=63|35=0|34=143|49=omblckrcktrader2|52=20211030-14:20:42.459|56=MA|10=046|
8=FIX.4.4|9=63|35=0|34=152|49=MA|52=20211030-14:20:55.697|56=omblckrcktrader2|10=054|
8=FIX.4.4|9=63|35=0|34=144|49=omblckrcktrader2|52=20211030-14:22:13.456|56=MA|10=044|
8=FIX.4.4|9=63|35=0|34=153|49=MA|52=20211030-14:22:26.694|56=omblckrcktrader2|10=052|
8=FIX.4.4|9=63|35=0|34=145|49=omblckrcktrader2|52=20211030-14:23:44.448|56=MA|10=051|
8=FIX.4.4|9=63|35=0|34=154|49=MA|52=20211030-14:23:57.695|56=omblckrcktrader2|10=059|
8=FIX.4.4|9=63|35=0|34=146|49=omblckrcktrader2|52=20211030-14:25:14.460|56=MA|10=045|
8=FIX.4.4|9=63|35=0|34=155|49=MA|52=20211030-14:25:27.695|56=omblckrcktrader2|10=059|
8=FIX.4.4|9=63|35=0|34=147|49=omblckrcktrader2|52=20211030-14:26:45.460|56=MA|10=051|
8=FIX.4.4|9=63|35=0|34=156|49=MA|52=20211030-14:26:57.697|56=omblckrcktrader2|10=066|
8=FIX.4.4|9=63|35=0|34=148|49=omblckrcktrader2|52=20211030-14:28:15.460|56=MA|10=051|
8=FIX.4.4|9=63|35=0|34=157|49=MA|52=20211030-14:28:28.664|56=omblckrcktrader2|10=061|
8=FIX.4.4|9=63|35=0|34=149|49=omblckrcktrader2|52=20211030-14:29:46.457|56=MA|10=063|
8=FIX.4.4|9=63|35=0|34=158|49=MA|52=20211030-14:29:58.693|56=omblckrcktrader2|10=068|
8=FIX.4.4|9=63|35=0|34=150|49=omblckrcktrader2|52=20211030-14:31:17.461|56=MA|10=041|
8=FIX.4.4|9=63|35=0|34=159|49=MA|52=20211030-14:31:28.693|56=omblckrcktrader2|10=059|
8=FIX.4.4|9=63|35=0|34=151|49=omblckrcktrader2|52=20211030-14:32:48.455|56=MA|10=050|
8=FIX.4.4|9=63|35=0|34=160|49=MA|52=20211030-14:32:58.695|56=omblckrcktrader2|10=057|
8=FIX.4.4|9=63|35=0|34=152|49=omblckrcktrader2|52=20211030-14:34:18.464|56=MA|10=050|
8=FIX.4.4|9=63|35=0|34=161|49=MA|52=20211030-14:34:29.662|56=omblckrcktrader2|10=052|
8=FIX.4.4|9=63|35=0|34=153|49=omblckrcktrader2|52=20211030-14:35:49.453|56=MA|10=054|
8=FIX.4.4|9=63|35=0|34=162|49=MA|52=20211030-14:35:59.697|56=omblckrcktrader2|10=065|
8=FIX.4.4|9=63|35=0|34=154|49=omblckrcktrader2|52=20211030-14:37:19.461|56=MA|10=053|
8=FIX.4.4|9=63|35=0|34=163|49=MA|52=20211030-14:37:30.694|56=omblckrcktrader2|10=054|
8=FIX.4.4|9=63|35=0|34=155|49=omblckrcktrader2|52=20211030-14:38:49.463|56=MA|10=060|
8=FIX.4.4|9=63|35=0|34=164|49=MA|52=20211030-14:39:00.697|56=omblckrcktrader2|10=057|
8=FIX.4.4|9=63|35=0|34=156|49=omblckrcktrader2|52=20211030-14:40:20.457|56=MA|10=046|
8=FIX.4.4|9=63|35=0|34=165|49=MA|52=20211030-14:40:31.693|56=omblckrcktrader2|10=050|
8=FIX.4.4|9=63|35=0|34=157|49=omblckrcktrader2|52=20211030-14:41:50.462|56=MA|10=047|
8=FIX.4.4|9=63|35=0|34=166|49=MA|52=20211030-14:42:01.695|56=omblckrcktrader2|10=052|
8=FIX.4.4|9=63|35=0|34=158|49=omblckrcktrader2|52=20211030-14:43:20.466|56=MA|10=051|
8=FIX.4.4|9=63|35=0|34=167|49=MA|52=20211030-14:43:32.672|56=omblckrcktrader2|10=053|
8=FIX.4.4|9=63|35=0|34=159|49=omblckrcktrader2|52=20211030-14:44:51.453|56=MA|10=053|
8=FIX.4.4|9=63|35=0|34=168|49=MA|52=20211030-14:45:02.696|56=omblckrcktrader2|10=059|
8=FIX.4.4|9=63|35=0|34=160|49=omblckrcktrader2|52=20211030-14:46:21.463|56=MA|10=045|
8=FIX.4.4|9=63|35=0|34=169|49=MA|52=20211030-14:46:33.694|56=omblckrcktrader2|10=063|
8=FIX.4.4|9=63|35=0|34=161|49=omblckrcktrader2|52=20211030-14:47:52.458|56=MA|10=055|
8=FIX.4.4|9=63|35=0|34=170|49=MA|52=20211030-14:48:03.695|56=omblckrcktrader2|10=055|
8=FIX.4.4|9=63|35=0|34=162|49=omblckrcktrader2|52=20211030-14:49:22.464|56=MA|10=052|
8=FIX.4.4|9=63|35=0|34=171|49=MA|52=20211030-14:49:34.692|56=omblckrcktrader2|10=058|
8=FIX.4.4|9=63|35=0|34=163|49=omblckrcktrader2|52=20211030-14:50:53.467|56=MA|10=052|
8=FIX.4.4|9=63|35=0|34=172|49=MA|52=20211030-14:51:04.695|56=omblckrcktrader2|10=052|
8=FIX.4.4|9=63|35=0|34=164|49=omblckrcktrader2|52=20211030-14:52:23.468|56=MA|10=053|
8=FIX.4.4|9=63|35=0|34=173|49=MA|52=20211030-14:52:35.695|56=omblckrcktrader2|10=058|
8=FIX.4.4|9=63|35=0|34=165|49=omblckrcktrader2|52=20211030-14:53:54.467|56=MA|10=058|
8=FIX.4.4|9=63|35=0|34=174|49=MA|52=20211030-14:54:06.665|56=omblckrcktrader2|10=056|
8=FIX.4.4|9=63|35=0|34=166|49=omblckrcktrader2|52=20211030-14:55:25.466|56=MA|10=058|
8=FIX.4.4|9=63|35=0|34=175|49=MA|52=20211030-14:55:36.694|56=omblckrcktrader2|10=063|
8=FIX.4.4|9=63|35=0|34=167|49=omblckrcktrader2|52=20211030-14:56:56.457|56=MA|10=064|
8=FIX.4.4|9=63|35=0|34=176|49=MA|52=20211030-14:57:07.694|56=omblckrcktrader2|10=064|
8=FIX.4.4|9=63|35=0|34=168|49=omblckrcktrader2|52=20211030-14:58:26.464|56=MA|10=062|
8=FIX.4.4|9=63|35=0|34=177|49=MA|52=20211030-14:58:38.693|56=omblckrcktrader2|10=069|
8=FIX.4.4|9=63|35=0|34=169|49=omblckrcktrader2|52=20211030-14:59:56.466|56=MA|10=069|
8=FIX.4.4|9=63|35=0|34=178|49=MA|52=20211030-15:00:08.695|56=omblckrcktrader2|10=057|
8=FIX.4.4|9=63|35=0|34=170|49=omblckrcktrader2|52=20211030-15:01:26.469|56=MA|10=049|
8=FIX.4.4|9=63|35=0|34=179|49=MA|52=20211030-15:01:39.694|56=omblckrcktrader2|10=062|
8=FIX.4.4|9=63|35=0|34=171|49=omblckrcktrader2|52=20211030-15:02:57.464|56=MA|10=050|
8=FIX.4.4|9=63|35=0|34=180|49=MA|52=20211030-15:03:10.693|56=omblckrcktrader2|10=044|
8=FIX.4.4|9=63|35=0|34=172|49=omblckrcktrader2|52=20211030-15:04:28.467|56=MA|10=054|
8=FIX.4.4|9=63|35=0|34=181|49=MA|52=20211030-15:04:41.665|56=omblckrcktrader2|10=049|
8=FIX.4.4|9=63|35=0|34=173|49=omblckrcktrader2|52=20211030-15:05:59.463|56=MA|10=056|
8=FIX.4.4|9=63|35=0|34=182|49=MA|52=20211030-15:06:11.694|56=omblckrcktrader2|10=051|
8=FIX.4.4|9=63|35=0|34=174|49=omblckrcktrader2|52=20211030-15:07:29.470|56=MA|10=054|
8=FIX.4.4|9=63|35=0|34=183|49=MA|52=20211030-15:07:41.695|56=omblckrcktrader2|10=057|
8=FIX.4.4|9=63|35=0|34=175|49=omblckrcktrader2|52=20211030-15:08:59.470|56=MA|10=059|
8=FIX.4.4|9=63|35=0|34=184|49=MA|52=20211030-15:09:12.680|56=omblckrcktrader2|10=052|
8=FIX.4.4|9=63|35=0|34=176|49=omblckrcktrader2|52=20211030-15:10:29.472|56=MA|10=052|
8=FIX.4.4|9=63|35=0|34=185|49=MA|52=20211030-15:10:43.693|56=omblckrcktrader2|10=053|
8=FIX.4.4|9=63|35=0|34=177|49=omblckrcktrader2|52=20211030-15:12:00.460|56=MA|10=041|
8=FIX.4.4|9=63|35=0|34=186|49=MA|52=20211030-15:12:13.696|56=omblckrcktrader2|10=056|
8=FIX.4.4|9=63|35=0|34=178|49=omblckrcktrader2|52=20211030-15:13:30.462|56=MA|10=048|
8=FIX.4.4|9=63|35=0|34=187|49=MA|52=20211030-15:13:44.663|56=omblckrcktrader2|10=056|
8=FIX.4.4|9=63|35=0|34=179|49=omblckrcktrader2|52=20211030-15:15:00.468|56=MA|10=054|
8=FIX.4.4|9=63|35=0|34=188|49=MA|52=20211030-15:15:14.700|56=omblckrcktrader2|10=048|
8=FIX.4.4|9=63|35=0|34=180|49=omblckrcktrader2|52=20211030-15:16:31.469|56=MA|10=052|
8=FIX.4.4|9=63|35=0|34=189|49=MA|52=20211030-15:16:45.694|56=omblckrcktrader2|10=066|
8=FIX.4.4|9=63|35=0|34=181|49=omblckrcktrader2|52=20211030-15:18:01.472|56=MA|10=046|
8=FIX.4.4|9=63|35=0|34=190|49=MA|52=20211030-15:18:15.694|56=omblckrcktrader2|10=057|
8=FIX.4.4|9=63|35=0|34=182|49=omblckrcktrader2|52=20211030-15:19:32.474|56=MA|10=054|
8=FIX.4.4|9=63|35=0|34=191|49=MA|52=20211030-15:19:45.695|56=omblckrcktrader2|10=063|
8=FIX.4.4|9=63|35=0|34=183|49=omblckrcktrader2|52=20211030-15:21:02.475|56=MA|10=046|
8=FIX.4.4|9=63|35=0|34=192|49=MA|52=20211030-15:21:16.695|56=omblckrcktrader2|10=055|
8=FIX.4.4|9=63|35=0|34=184|49=omblckrcktrader2|52=20211030-15:22:33.473|56=MA|10=050|
8=FIX.4.4|9=63|35=0|34=193|49=MA|52=20211030-15:22:47.693|56=omblckrcktrader2|10=059|
8=FIX.4.4|9=63|35=0|34=185|49=omblckrcktrader2|52=20211030-15:24:04.475|56=MA|10=053|
8=FIX.4.4|9=63|35=0|34=194|49=MA|52=20211030-15:24:17.696|56=omblckrcktrader2|10=062|
8=FIX.4.4|9=63|35=0|34=186|49=omblckrcktrader2|52=20211030-15:25:35.467|56=MA|10=060|
8=FIX.4.4|9=63|35=0|34=195|49=MA|52=20211030-15:25:48.695|56=omblckrcktrader2|10=067|
8=FIX.4.4|9=63|35=0|34=187|49=omblckrcktrader2|52=20211030-15:27:05.471|56=MA|10=055|
8=FIX.4.4|9=63|35=0|34=196|49=MA|52=20211030-15:27:18.695|56=omblckrcktrader2|10=067|
8=FIX.4.4|9=63|35=0|34=188|49=omblckrcktrader2|52=20211030-15:28:35.472|56=MA|10=061|
8=FIX.4.4|9=63|35=0|34=197|49=MA|52=20211030-15:28:48.695|56=omblckrcktrader2|10=072|
8=FIX.4.4|9=63|35=0|34=189|49=omblckrcktrader2|52=20211030-15:30:05.481|56=MA|10=052|
8=FIX.4.4|9=63|35=0|34=198|49=MA|52=20211030-15:30:19.683|56=omblckrcktrader2|10=061|
8=FIX.4.4|9=63|35=0|34=190|49=omblckrcktrader2|52=20211030-15:31:36.479|56=MA|10=056|
8=FIX.4.4|9=63|35=0|34=199|49=MA|52=20211030-15:31:49.696|56=omblckrcktrader2|10=070|
8=FIX.4.4|9=63|35=0|34=191|49=omblckrcktrader2|52=20211030-15:33:07.473|56=MA|10=051|
8=FIX.4.4|9=63|35=0|34=200|49=MA|52=20211030-15:33:20.664|56=omblckrcktrader2|10=039|
8=FIX.4.4|9=63|35=0|34=192|49=omblckrcktrader2|52=20211030-15:34:38.473|56=MA|10=057|
8=FIX.4.4|9=63|35=0|34=201|49=MA|52=20211030-15:34:50.695|56=omblckrcktrader2|10=048|
8=FIX.4.4|9=63|35=0|34=193|49=omblckrcktrader2|52=20211030-15:36:08.473|56=MA|10=057|
8=FIX.4.4|9=63|35=0|34=202|49=MA|52=20211030-15:36:21.694|56=omblckrcktrader2|10=048|
8=FIX.4.4|9=63|35=0|34=194|49=omblckrcktrader2|52=20211030-15:37:38.476|56=MA|10=065|
8=FIX.4.4|9=63|35=0|34=203|49=MA|52=20211030-15:37:52.694|56=omblckrcktrader2|10=054|
8=FIX.4.4|9=63|35=0|34=195|49=omblckrcktrader2|52=20211030-15:39:08.482|56=MA|10=062|
8=FIX.4.4|9=63|35=0|34=204|49=MA|52=20211030-15:39:22.701|56=omblckrcktrader2|10=043|
8=FIX.4.4|9=63|35=0|34=196|49=omblckrcktrader2|52=20211030-15:40:39.473|56=MA|10=059|
8=FIX.4.4|9=63|35=0|34=205|49=MA|52=20211030-15:40:53.694|56=omblckrcktrader2|10=051|
8=FIX.4.4|9=63|35=0|34=197|49=omblckrcktrader2|52=20211030-15:42:09.482|56=MA|10=059|
8=FIX.4.4|9=63|35=0|34=206|49=MA|52=20211030-15:42:24.695|56=omblckrcktrader2|10=053|
8=FIX.4.4|9=63|35=0|34=198|49=omblckrcktrader2|52=20211030-15:43:40.481|56=MA|10=055|
8=FIX.4.4|9=63|35=0|34=207|49=MA|52=20211030-15:43:55.662|56=omblckrcktrader2|10=053|
8=FIX.4.4|9=63|35=0|34=199|49=omblckrcktrader2|52=20211030-15:45:11.475|56=MA|10=059|
8=FIX.4.4|9=63|35=0|34=208|49=MA|52=20211030-15:45:25.691|56=omblckrcktrader2|10=055|
8=FIX.4.4|9=63|35=0|34=200|49=omblckrcktrader2|52=20211030-15:46:42.472|56=MA|10=044|
8=FIX.4.4|9=63|35=0|34=209|49=MA|52=20211030-15:46:55.695|56=omblckrcktrader2|10=064|
8=FIX.4.4|9=63|35=0|34=201|49=omblckrcktrader2|52=20211030-15:48:13.483|56=MA|10=047|
8=FIX.4.4|9=63|35=0|34=210|49=MA|52=20211030-15:48:26.662|56=omblckrcktrader2|10=050|
8=FIX.4.4|9=63|35=0|34=202|49=omblckrcktrader2|52=20211030-15:49:44.477|56=MA|10=056|
8=FIX.4.4|9=63|35=0|34=211|49=MA|52=20211030-15:49:56.679|56=omblckrcktrader2|10=063|
8=FIX.4.4|9=63|35=0|34=203|49=omblckrcktrader2|52=20211030-15:51:15.478|56=MA|10=049|
8=FIX.4.4|9=63|35=0|34=212|49=MA|52=20211030-15:51:26.694|56=omblckrcktrader2|10=051|
8=FIX.4.4|9=63|35=0|34=204|49=omblckrcktrader2|52=20211030-15:52:45.479|56=MA|10=055|
8=FIX.4.4|9=63|35=0|34=213|49=MA|52=20211030-15:52:57.693|56=omblckrcktrader2|10=056|
8=FIX.4.4|9=63|35=0|34=205|49=omblckrcktrader2|52=20211030-15:54:16.478|56=MA|10=055|
8=FIX.4.4|9=63|35=0|34=214|49=MA|52=20211030-15:54:28.694|56=omblckrcktrader2|10=058|
8=FIX.4.4|9=63|35=0|34=206|49=omblckrcktrader2|52=20211030-15:55:46.483|56=MA|10=056|
8=FIX.4.4|9=63|35=0|34=215|49=MA|52=20211030-15:55:59.692|56=omblckrcktrader2|10=062|
8=FIX.4.4|9=63|35=0|34=207|49=omblckrcktrader2|52=20211030-15:57:17.479|56=MA|10=062|
8=FIX.4.4|9=63|35=0|34=216|49=MA|52=20211030-15:57:30.693|56=omblckrcktrader2|10=055|
8=FIX.4.4|9=63|35=0|34=208|49=omblckrcktrader2|52=20211030-15:58:48.478|56=MA|10=067|
8=FIX.4.4|9=63|35=0|34=217|49=MA|52=20211030-15:59:01.693|56=omblckrcktrader2|10=056|
8=FIX.4.4|9=63|35=0|34=209|49=omblckrcktrader2|52=20211030-16:00:18.478|56=MA|10=053|
8=FIX.4.4|9=63|35=0|34=218|49=MA|52=20211030-16:00:32.690|56=omblckrcktrader2|10=045|
8=FIX.4.4|9=63|35=0|34=210|49=omblckrcktrader2|52=20211030-16:01:48.484|56=MA|10=046|
8=FIX.4.4|9=63|35=0|34=219|49=MA|52=20211030-16:02:02.697|56=omblckrcktrader2|10=052|
8=FIX.4.4|9=63|35=0|34=211|49=omblckrcktrader2|52=20211030-16:03:19.484|56=MA|10=047|
8=FIX.4.4|9=63|35=0|34=220|49=MA|52=20211030-16:03:33.694|56=omblckrcktrader2|10=046|
8=FIX.4.4|9=63|35=0|34=212|49=omblckrcktrader2|52=20211030-16:04:50.479|56=MA|10=048|
8=FIX.4.4|9=63|35=0|34=221|49=MA|52=20211030-16:05:03.696|56=omblckrcktrader2|10=048|
8=FIX.4.4|9=63|35=0|34=213|49=omblckrcktrader2|52=20211030-16:06:20.483|56=MA|10=043|
8=FIX.4.4|9=63|35=0|34=222|49=MA|52=20211030-16:06:34.693|56=omblckrcktrader2|10=051|
8=FIX.4.4|9=63|35=0|34=214|49=omblckrcktrader2|52=20211030-16:07:50.483|56=MA|10=048|
8=FIX.4.4|9=63|35=0|34=223|49=MA|52=20211030-16:08:05.694|56=omblckrcktrader2|10=053|
8=FIX.4.4|9=63|35=0|34=215|49=omblckrcktrader2|52=20211030-16:09:21.472|56=MA|10=047|
8=FIX.4.4|9=63|35=0|34=224|49=MA|52=20211030-16:09:35.695|56=omblckrcktrader2|10=059|
8=FIX.4.4|9=63|35=0|34=216|49=omblckrcktrader2|52=20211030-16:10:51.478|56=MA|10=049|
8=FIX.4.4|9=63|35=0|34=225|49=MA|52=20211030-16:11:05.694|56=omblckrcktrader2|10=049|
8=FIX.4.4|9=63|35=0|34=217|49=omblckrcktrader2|52=20211030-16:12:22.475|56=MA|10=047|
8=FIX.4.4|9=63|35=0|34=226|49=MA|52=20211030-16:12:36.686|56=omblckrcktrader2|10=056|
8=FIX.4.4|9=63|35=0|34=218|49=omblckrcktrader2|52=20211030-16:13:53.472|56=MA|10=050|
8=FIX.4.4|9=63|35=0|34=227|49=MA|52=20211030-16:14:07.688|56=omblckrcktrader2|10=059|
8=FIX.4.4|9=63|35=0|34=219|49=omblckrcktrader2|52=20211030-16:15:23.472|56=MA|10=050|
8=FIX.4.4|9=63|35=0|34=228|49=MA|52=20211030-16:15:38.694|56=omblckrcktrader2|10=062|
8=FIX.4.4|9=63|35=0|34=220|49=omblckrcktrader2|52=20211030-16:16:53.473|56=MA|10=047|
8=FIX.4.4|9=63|35=0|34=229|49=MA|52=20211030-16:17:08.696|56=omblckrcktrader2|10=064|
8=FIX.4.4|9=63|35=0|34=221|49=omblckrcktrader2|52=20211030-16:18:23.474|56=MA|10=048|
8=FIX.4.4|9=63|35=0|34=230|49=MA|52=20211030-16:18:38.697|56=omblckrcktrader2|10=061|
8=FIX.4.4|9=63|35=0|34=222|49=omblckrcktrader2|52=20211030-16:19:53.477|56=MA|10=056|
8=FIX.4.4|9=63|35=0|34=231|49=MA|52=20211030-16:20:09.697|56=omblckrcktrader2|10=053|
8=FIX.4.4|9=63|35=0|34=223|49=omblckrcktrader2|52=20211030-16:21:23.482|56=MA|10=043|
8=FIX.4.4|9=63|35=0|34=232|49=MA|52=20211030-16:21:40.692|56=omblckrcktrader2|10=045|
8=FIX.4.4|9=63|35=0|34=224|49=omblckrcktrader2|52=20211030-16:22:54.472|56=MA|10=048|
8=FIX.4.4|9=63|35=0|34=233|49=MA|52=20211030-16:23:11.695|56=omblckrcktrader2|10=049|
8=FIX.4.4|9=63|35=0|34=225|49=omblckrcktrader2|52=20211030-16:24:24.473|56=MA|10=049|
8=FIX.4.4|9=63|35=0|34=234|49=MA|52=20211030-16:24:42.662|56=omblckrcktrader2|10=049|
8=FIX.4.4|9=63|35=0|34=226|49=omblckrcktrader2|52=20211030-16:25:54.473|56=MA|10=054|
8=FIX.4.4|9=63|35=0|34=235|49=MA|52=20211030-16:26:12.666|56=omblckrcktrader2|10=053|
8=FIX.4.4|9=63|35=0|34=227|49=omblckrcktrader2|52=20211030-16:27:24.486|56=MA|10=058|
8=FIX.4.4|9=63|35=0|34=236|49=MA|52=20211030-16:27:43.693|56=omblckrcktrader2|10=059|
8=FIX.4.4|9=63|35=0|34=228|49=omblckrcktrader2|52=20211030-16:28:55.486|56=MA|10=064|
8=FIX.4.4|9=63|35=0|34=237|49=MA|52=20211030-16:29:13.696|56=omblckrcktrader2|10=062|
8=FIX.4.4|9=63|35=0|34=229|49=omblckrcktrader2|52=20211030-16:30:26.473|56=MA|10=052|
8=FIX.4.4|9=63|35=0|34=238|49=MA|52=20211030-16:30:43.696|56=omblckrcktrader2|10=058|
8=FIX.4.4|9=63|35=0|34=230|49=omblckrcktrader2|52=20211030-16:31:56.485|56=MA|10=051|
8=FIX.4.4|9=63|35=0|34=239|49=MA|52=20211030-16:32:14.665|56=omblckrcktrader2|10=055|
8=FIX.4.4|9=63|35=0|34=231|49=omblckrcktrader2|52=20211030-16:33:27.478|56=MA|10=054|
8=FIX.4.4|9=63|35=0|34=240|49=MA|52=20211030-16:33:45.695|56=omblckrcktrader2|10=055|
8=FIX.4.4|9=63|35=0|34=232|49=omblckrcktrader2|52=20211030-16:34:57.479|56=MA|10=060|
8=FIX.4.4|9=63|35=0|34=241|49=MA|52=20211030-16:35:15.697|56=omblckrcktrader2|10=057|
8=FIX.4.4|9=63|35=0|34=233|49=omblckrcktrader2|52=20211030-16:36:27.486|56=MA|10=058|
8=FIX.4.4|9=63|35=0|34=242|49=MA|52=20211030-16:36:46.697|56=omblckrcktrader2|10=063|
8=FIX.4.4|9=63|35=0|34=234|49=omblckrcktrader2|52=20211030-16:37:58.479|56=MA|10=066|
8=FIX.4.4|9=63|35=0|34=243|49=MA|52=20211030-16:38:17.694|56=omblckrcktrader2|10=061|
8=FIX.4.4|9=63|35=0|34=235|49=omblckrcktrader2|52=20211030-16:39:28.486|56=MA|10=064|
8=FIX.4.4|9=63|35=0|34=244|49=MA|52=20211030-16:39:48.695|56=omblckrcktrader2|10=068|
8=FIX.4.4|9=63|35=0|34=236|49=omblckrcktrader2|52=20211030-16:40:59.480|56=MA|10=055|
8=FIX.4.4|9=63|35=0|34=245|49=MA|52=20211030-16:41:19.694|56=omblckrcktrader2|10=059|
8=FIX.4.4|9=63|35=0|34=237|49=omblckrcktrader2|52=20211030-16:42:30.489|56=MA|10=056|
8=FIX.4.4|9=63|35=0|34=246|49=MA|52=20211030-16:42:49.697|56=omblckrcktrader2|10=067|
8=FIX.4.4|9=63|35=0|34=238|49=omblckrcktrader2|52=20211030-16:44:01.478|56=MA|10=055|
8=FIX.4.4|9=63|35=0|34=247|49=MA|52=20211030-16:44:19.697|56=omblckrcktrader2|10=067|
8=FIX.4.4|9=63|35=0|34=239|49=omblckrcktrader2|52=20211030-16:45:32.485|56=MA|10=059|
8=FIX.4.4|9=63|35=0|34=248|49=MA|52=20211030-16:45:50.662|56=omblckrcktrader2|10=056|
8=FIX.4.4|9=63|35=0|34=240|49=omblckrcktrader2|52=20211030-16:47:03.479|56=MA|10=054|
8=FIX.4.4|9=63|35=0|34=249|49=MA|52=20211030-16:47:20.694|56=omblckrcktrader2|10=061|
8=FIX.4.4|9=63|35=0|34=241|49=omblckrcktrader2|52=20211030-16:48:33.485|56=MA|10=056|
8=FIX.4.4|9=63|35=0|34=250|49=MA|52=20211030-16:48:51.689|56=omblckrcktrader2|10=062|
8=FIX.4.4|9=63|35=0|34=242|49=omblckrcktrader2|52=20211030-16:50:04.486|56=MA|10=049|
8=FIX.4.4|9=63|35=0|34=251|49=MA|52=20211030-16:50:22.695|56=omblckrcktrader2|10=051|
8=FIX.4.4|9=63|35=0|34=243|49=omblckrcktrader2|52=20211030-16:51:35.486|56=MA|10=055|
8=FIX.4.4|9=63|35=0|34=252|49=MA|52=20211030-16:51:53.693|56=omblckrcktrader2|10=055|
8=FIX.4.4|9=63|35=0|34=244|49=omblckrcktrader2|52=20211030-16:53:06.484|56=MA|10=054|
8=FIX.4.4|9=63|35=0|34=253|49=MA|52=20211030-16:53:23.695|56=omblckrcktrader2|10=057|
8=FIX.4.4|9=63|35=0|34=245|49=omblckrcktrader2|52=20211030-16:54:37.490|56=MA|10=057|
8=FIX.4.4|9=63|35=0|34=254|49=MA|52=20211030-16:54:53.695|56=omblckrcktrader2|10=062|
8=FIX.4.4|9=63|35=0|34=246|49=omblckrcktrader2|52=20211030-16:56:08.491|56=MA|10=059|
8=FIX.4.4|9=63|35=0|34=255|49=MA|52=20211030-16:56:24.696|56=omblckrcktrader2|10=064|
8=FIX.4.4|9=63|35=0|34=247|49=omblckrcktrader2|52=20211030-16:57:39.483|56=MA|10=066|
8=FIX.4.4|9=63|35=0|34=256|49=MA|52=20211030-16:57:55.696|56=omblckrcktrader2|10=070|
8=FIX.4.4|9=63|35=0|34=248|49=omblckrcktrader2|52=20211030-16:59:09.487|56=MA|10=070|
8=FIX.4.4|9=63|35=0|34=257|49=MA|52=20211030-16:59:26.695|56=omblckrcktrader2|10=070|
8=FIX.4.4|9=63|35=0|34=249|49=omblckrcktrader2|52=20211030-17:00:40.481|56=MA|10=047|
8=FIX.4.4|9=63|35=0|34=258|49=MA|52=20211030-17:00:57.665|56=omblckrcktrader2|10=059|
8=FIX.4.4|9=63|35=0|34=250|49=omblckrcktrader2|52=20211030-17:02:10.487|56=MA|10=044|
8=FIX.4.4|9=63|35=0|34=259|49=MA|52=20211030-17:02:27.667|56=omblckrcktrader2|10=061|
8=FIX.4.4|9=63|35=0|34=251|49=omblckrcktrader2|52=20211030-17:03:41.486|56=MA|10=049|
8=FIX.4.4|9=63|35=0|34=260|49=MA|52=20211030-17:03:57.694|56=omblckrcktrader2|10=057|
8=FIX.4.4|9=63|35=0|34=252|49=omblckrcktrader2|52=20211030-17:05:12.480|56=MA|10=044|
8=FIX.4.4|9=63|35=0|34=261|49=MA|52=20211030-17:05:28.697|56=omblckrcktrader2|10=061|
8=FIX.4.4|9=63|35=0|34=253|49=omblckrcktrader2|52=20211030-17:06:42.489|56=MA|10=058|
8=FIX.4.4|9=63|35=0|34=262|49=MA|52=20211030-17:06:59.678|56=omblckrcktrader2|10=066|
8=FIX.4.4|9=63|35=0|34=254|49=omblckrcktrader2|52=20211030-17:08:13.482|56=MA|10=052|
8=FIX.4.4|9=63|35=0|34=263|49=MA|52=20211030-17:08:29.700|56=omblckrcktrader2|10=052|
8=FIX.4.4|9=63|35=0|34=255|49=omblckrcktrader2|52=20211030-17:09:43.488|56=MA|10=063|
8=FIX.4.4|9=63|35=0|34=264|49=MA|52=20211030-17:10:00.696|56=omblckrcktrader2|10=049|
8=FIX.4.4|9=63|35=0|34=256|49=omblckrcktrader2|52=20211030-17:11:13.490|56=MA|10=047|
8=FIX.4.4|9=63|35=0|34=265|49=MA|52=20211030-17:11:31.693|56=omblckrcktrader2|10=052|
8=FIX.4.4|9=63|35=0|34=257|49=omblckrcktrader2|52=20211030-17:12:43.490|56=MA|10=052|
8=FIX.4.4|9=63|35=0|34=266|49=MA|52=20211030-17:13:02.694|56=omblckrcktrader2|10=054|
8=FIX.4.4|9=63|35=0|34=258|49=omblckrcktrader2|52=20211030-17:14:14.492|56=MA|10=055|
8=FIX.4.4|9=63|35=0|34=267|49=MA|52=20211030-17:14:32.698|56=omblckrcktrader2|10=063|
8=FIX.4.4|9=63|35=0|34=259|49=omblckrcktrader2|52=20211030-17:15:45.487|56=MA|10=065|
8=FIX.4.4|9=63|35=0|34=268|49=MA|52=20211030-17:16:03.697|56=omblckrcktrader2|10=063|
8=FIX.4.4|9=63|35=0|34=260|49=omblckrcktrader2|52=20211030-17:17:15.490|56=MA|10=050|
8=FIX.4.4|9=63|35=0|34=269|49=MA|52=20211030-17:17:34.664|56=omblckrcktrader2|10=063|
8=FIX.4.4|9=63|35=0|34=261|49=omblckrcktrader2|52=20211030-17:18:46.484|56=MA|10=059|
8=FIX.4.4|9=63|35=0|34=270|49=MA|52=20211030-17:19:04.692|56=omblckrcktrader2|10=055|
8=FIX.4.4|9=63|35=0|34=262|49=omblckrcktrader2|52=20211030-17:20:16.487|56=MA|10=053|
8=FIX.4.4|9=63|35=0|34=271|49=MA|52=20211030-17:20:35.694|56=omblckrcktrader2|10=054|
8=FIX.4.4|9=63|35=0|34=263|49=omblckrcktrader2|52=20211030-17:21:46.488|56=MA|10=059|
8=FIX.4.4|9=63|35=0|34=272|49=MA|52=20211030-17:22:05.694|56=omblckrcktrader2|10=054|
8=FIX.4.4|9=63|35=0|34=264|49=omblckrcktrader2|52=20211030-17:23:16.488|56=MA|10=059|
8=FIX.4.4|9=63|35=0|34=273|49=MA|52=20211030-17:23:36.666|56=omblckrcktrader2|10=059|
8=FIX.4.4|9=63|35=0|34=265|49=omblckrcktrader2|52=20211030-17:24:47.479|56=MA|10=065|
8=FIX.4.4|9=63|35=0|34=274|49=MA|52=20211030-17:25:06.699|56=omblckrcktrader2|10=065|
8=FIX.4.4|9=63|35=0|34=266|49=omblckrcktrader2|52=20211030-17:26:17.485|56=MA|10=062|
8=FIX.4.4|9=63|35=0|34=275|49=MA|52=20211030-17:26:37.695|56=omblckrcktrader2|10=067|
8=FIX.4.4|9=63|35=0|34=267|49=omblckrcktrader2|52=20211030-17:27:48.491|56=MA|10=065|
8=FIX.4.4|9=63|35=0|34=276|49=MA|52=20211030-17:28:08.663|56=omblckrcktrader2|10=063|
8=FIX.4.4|9=63|35=0|34=268|49=omblckrcktrader2|52=20211030-17:29:19.477|56=MA|10=070|
8=FIX.4.4|9=63|35=0|34=277|49=MA|52=20211030-17:29:38.693|56=omblckrcktrader2|10=071|
8=FIX.4.4|9=63|35=0|34=269|49=omblckrcktrader2|52=20211030-17:30:49.488|56=MA|10=068|
8=FIX.4.4|9=63|35=0|34=278|49=MA|52=20211030-17:31:08.695|56=omblckrcktrader2|10=064|
8=FIX.4.4|9=63|35=0|34=270|49=omblckrcktrader2|52=20211030-17:32:19.490|56=MA|10=052|
8=FIX.4.4|9=63|35=0|34=279|49=MA|52=20211030-17:32:39.695|56=omblckrcktrader2|10=070|
8=FIX.4.4|9=63|35=0|34=271|49=omblckrcktrader2|52=20211030-17:33:50.487|56=MA|10=055|
8=FIX.4.4|9=63|35=0|34=280|49=MA|52=20211030-17:34:10.696|56=omblckrcktrader2|10=054|
8=FIX.4.4|9=63|35=0|34=272|49=omblckrcktrader2|52=20211030-17:35:20.491|56=MA|10=050|
8=FIX.4.4|9=63|35=0|34=281|49=MA|52=20211030-17:35:41.694|56=omblckrcktrader2|10=058|
8=FIX.4.4|9=63|35=0|34=273|49=omblckrcktrader2|52=20211030-17:36:51.496|56=MA|10=061|
8=FIX.4.4|9=63|35=0|34=282|49=MA|52=20211030-17:37:11.694|56=omblckrcktrader2|10=058|
8=FIX.4.4|9=63|35=0|34=274|49=omblckrcktrader2|52=20211030-17:38:22.495|56=MA|10=061|
8=FIX.4.4|9=63|35=0|34=283|49=MA|52=20211030-17:38:41.695|56=omblckrcktrader2|10=064|
8=FIX.4.4|9=63|35=0|34=275|49=omblckrcktrader2|52=20211030-17:39:52.502|56=MA|10=055|
8=FIX.4.4|9=63|35=0|34=284|49=MA|52=20211030-17:40:12.694|56=omblckrcktrader2|10=055|
8=FIX.4.4|9=63|35=0|34=276|49=omblckrcktrader2|52=20211030-17:41:22.509|56=MA|10=053|
8=FIX.4.4|9=63|35=0|34=285|49=MA|52=20211030-17:41:43.694|56=omblckrcktrader2|10=061|
8=FIX.4.4|9=63|35=0|34=277|49=omblckrcktrader2|52=20211030-17:42:53.499|56=MA|10=067|
8=FIX.4.4|9=63|35=0|34=286|49=MA|52=20211030-17:43:14.695|56=omblckrcktrader2|10=063|
8=FIX.4.4|9=63|35=0|34=278|49=omblckrcktrader2|52=20211030-17:44:23.502|56=MA|10=052|
8=FIX.4.4|9=63|35=0|34=287|49=MA|52=20211030-17:44:44.695|56=omblckrcktrader2|10=068|
8=FIX.4.4|9=63|35=0|34=279|49=omblckrcktrader2|52=20211030-17:45:54.504|56=MA|10=060|
8=FIX.4.4|9=63|35=0|34=288|49=MA|52=20211030-17:46:15.691|56=omblckrcktrader2|10=065|
8=FIX.4.4|9=63|35=0|34=280|49=omblckrcktrader2|52=20211030-17:47:24.508|56=MA|10=055|
8=FIX.4.4|9=63|35=0|34=289|49=MA|52=20211030-17:47:46.694|56=omblckrcktrader2|10=074|
8=FIX.4.4|9=63|35=0|34=281|49=omblckrcktrader2|52=20211030-17:48:55.513|56=MA|10=057|
8=FIX.4.4|9=63|35=0|34=290|49=MA|52=20211030-17:49:17.698|56=omblckrcktrader2|10=070|
8=FIX.4.4|9=63|35=0|34=282|49=omblckrcktrader2|52=20211030-17:50:26.517|56=MA|10=053|
8=FIX.4.4|9=63|35=0|34=291|49=MA|52=20211030-17:50:48.662|56=omblckrcktrader2|10=058|
8=FIX.4.4|9=63|35=0|34=283|49=omblckrcktrader2|52=20211030-17:51:57.519|56=MA|10=061|
8=FIX.4.4|9=63|35=0|34=292|49=MA|52=20211030-17:52:18.694|56=omblckrcktrader2|10=063|
8=FIX.4.4|9=63|35=0|34=284|49=omblckrcktrader2|52=20211030-17:53:28.510|56=MA|10=053|
8=FIX.4.4|9=63|35=0|34=293|49=MA|52=20211030-17:53:48.695|56=omblckrcktrader2|10=069|
8=FIX.4.4|9=63|35=0|34=285|49=omblckrcktrader2|52=20211030-17:54:59.518|56=MA|10=067|
8=FIX.4.4|9=63|35=0|34=294|49=MA|52=20211030-17:55:18.696|56=omblckrcktrader2|10=070|
8=FIX.4.4|9=63|35=0|34=286|49=omblckrcktrader2|52=20211030-17:56:30.519|56=MA|10=060|
8=FIX.4.4|9=63|35=0|34=295|49=MA|52=20211030-17:56:49.701|56=omblckrcktrader2|10=063|
8=FIX.4.4|9=63|35=0|34=287|49=omblckrcktrader2|52=20211030-17:58:01.517|56=MA|10=059|
8=FIX.4.4|9=63|35=0|34=296|49=MA|52=20211030-17:58:20.694|56=omblckrcktrader2|10=066|
8=FIX.4.4|9=63|35=0|34=288|49=omblckrcktrader2|52=20211030-17:59:32.520|56=MA|10=059|
8=FIX.4.4|9=63|35=0|34=297|49=MA|52=20211030-17:59:51.694|56=omblckrcktrader2|10=072|
8=FIX.4.4|9=63|35=0|34=289|49=omblckrcktrader2|52=20211030-18:01:03.510|56=MA|10=045|
8=FIX.4.4|9=63|35=0|34=298|49=MA|52=20211030-18:01:22.693|56=omblckrcktrader2|10=058|
8=FIX.4.4|9=63|35=0|34=290|49=omblckrcktrader2|52=20211030-18:02:33.518|56=MA|10=049|
8=FIX.4.4|9=63|35=0|34=299|49=MA|52=20211030-18:02:53.694|56=omblckrcktrader2|10=065|
8=FIX.4.4|9=63|35=0|34=291|49=omblckrcktrader2|52=20211030-18:04:04.523|56=MA|10=046|
8=FIX.4.4|9=63|35=0|34=300|49=MA|52=20211030-18:04:24.693|56=omblckrcktrader2|10=047|
8=FIX.4.4|9=63|35=0|34=292|49=omblckrcktrader2|52=20211030-18:05:35.523|56=MA|10=052|
8=FIX.4.4|9=63|35=0|34=301|49=MA|52=20211030-18:05:54.694|56=omblckrcktrader2|10=053|
8=FIX.4.4|9=63|35=0|34=293|49=omblckrcktrader2|52=20211030-18:07:06.515|56=MA|10=054|
8=FIX.4.4|9=63|35=0|34=302|49=MA|52=20211030-18:07:24.697|56=omblckrcktrader2|10=056|
8=FIX.4.4|9=63|35=0|34=294|49=omblckrcktrader2|52=20211030-18:08:37.523|56=MA|10=059|
8=FIX.4.4|9=63|35=0|34=303|49=MA|52=20211030-18:08:55.698|56=omblckrcktrader2|10=063|
8=FIX.4.4|9=63|35=0|34=295|49=omblckrcktrader2|52=20211030-18:10:08.524|56=MA|10=052|
8=FIX.4.4|9=63|35=0|34=304|49=MA|52=20211030-18:10:26.665|56=omblckrcktrader2|10=049|
8=FIX.4.4|9=63|35=0|34=296|49=omblckrcktrader2|52=20211030-18:11:38.524|56=MA|10=057|
8=FIX.4.4|9=63|35=0|34=305|49=MA|52=20211030-18:11:56.696|56=omblckrcktrader2|10=058|
8=FIX.4.4|9=63|35=0|34=297|49=omblckrcktrader2|52=20211030-18:13:09.514|56=MA|10=057|
8=FIX.4.4|9=63|35=0|34=306|49=MA|52=20211030-18:13:27.662|56=omblckrcktrader2|10=052|
8=FIX.4.4|9=63|35=0|34=298|49=omblckrcktrader2|52=20211030-18:14:40.522|56=MA|10=053|
8=FIX.4.4|9=63|35=0|34=307|49=MA|52=20211030-18:14:57.693|56=omblckrcktrader2|10=061|
8=FIX.4.4|9=63|35=0|34=299|49=omblckrcktrader2|52=20211030-18:16:11.526|56=MA|10=058|
8=FIX.4.4|9=63|35=0|34=308|49=MA|52=20211030-18:16:27.695|56=omblckrcktrader2|10=063|
8=FIX.4.4|9=63|35=0|34=300|49=omblckrcktrader2|52=20211030-18:17:42.525|56=MA|10=045|
8=FIX.4.4|9=63|35=0|34=309|49=MA|52=20211030-18:17:58.693|56=omblckrcktrader2|10=067|
8=FIX.4.4|9=63|35=0|34=301|49=omblckrcktrader2|52=20211030-18:19:13.518|56=MA|10=048|
8=FIX.4.4|9=63|35=0|34=310|49=MA|52=20211030-18:19:29.697|56=omblckrcktrader2|10=063|
8=FIX.4.4|9=63|35=0|34=302|49=omblckrcktrader2|52=20211030-18:20:44.522|56=MA|10=040|
8=FIX.4.4|9=63|35=0|34=311|49=MA|52=20211030-18:21:00.694|56=omblckrcktrader2|10=043|
8=FIX.4.4|9=63|35=0|34=303|49=omblckrcktrader2|52=20211030-18:22:15.527|56=MA|10=046|
8=FIX.4.4|9=63|35=0|34=312|49=MA|52=20211030-18:22:30.695|56=omblckrcktrader2|10=049|
8=FIX.4.4|9=63|35=0|34=304|49=omblckrcktrader2|52=20211030-18:23:45.527|56=MA|10=051|
8=FIX.4.4|9=63|35=0|34=313|49=MA|52=20211030-18:24:01.679|56=omblckrcktrader2|10=052|
8=FIX.4.4|9=63|35=0|34=305|49=omblckrcktrader2|52=20211030-18:25:15.527|56=MA|10=051|
8=FIX.4.4|9=63|35=0|34=314|49=MA|52=20211030-18:25:31.684|56=omblckrcktrader2|10=053|
8=FIX.4.4|9=63|35=0|34=306|49=omblckrcktrader2|52=20211030-18:26:46.522|56=MA|10=052|
8=FIX.4.4|9=63|35=0|34=315|49=MA|52=20211030-18:27:01.695|56=omblckrcktrader2|10=055|
8=FIX.4.4|9=63|35=0|34=307|49=omblckrcktrader2|52=20211030-18:28:17.522|56=MA|10=053|
8=FIX.4.4|9=63|35=0|34=316|49=MA|52=20211030-18:28:32.689|56=omblckrcktrader2|10=064|
8=FIX.4.4|9=63|35=0|34=308|49=omblckrcktrader2|52=20211030-18:29:48.528|56=MA|10=065|
8=FIX.4.4|9=63|35=0|34=317|49=MA|52=20211030-18:30:02.694|56=omblckrcktrader2|10=051|
8=FIX.4.4|9=63|35=0|34=309|49=omblckrcktrader2|52=20211030-18:31:19.513|56=MA|10=051|
8=FIX.4.4|9=63|35=0|34=318|49=MA|52=20211030-18:31:32.695|56=omblckrcktrader2|10=057|
8=FIX.4.4|9=63|35=0|34=310|49=omblckrcktrader2|52=20211030-18:32:49.528|56=MA|10=053|
8=FIX.4.4|9=63|35=0|34=319|49=MA|52=20211030-18:33:03.662|56=omblckrcktrader2|10=052|
8=FIX.4.4|9=63|35=0|34=311|49=omblckrcktrader2|52=20211030-18:34:20.528|56=MA|10=045|
8=FIX.4.4|9=63|35=0|34=320|49=MA|52=20211030-18:34:33.663|56=omblckrcktrader2|10=049|
8=FIX.4.4|9=63|35=0|34=312|49=omblckrcktrader2|52=20211030-18:35:51.515|56=MA|10=047|
8=FIX.4.4|9=63|35=0|34=321|49=MA|52=20211030-18:36:03.694|56=omblckrcktrader2|10=053|
8=FIX.4.4|9=63|35=0|34=313|49=omblckrcktrader2|52=20211030-18:37:21.523|56=MA|10=046|
8=FIX.4.4|9=63|35=0|34=322|49=MA|52=20211030-18:37:34.695|56=omblckrcktrader2|10=060|
8=FIX.4.4|9=63|35=0|34=314|49=omblckrcktrader2|52=20211030-18:38:51.524|56=MA|10=052|
8=FIX.4.4|9=63|35=0|34=323|49=MA|52=20211030-18:39:05.668|56=omblckrcktrader2|10=061|
8=FIX.4.4|9=63|35=0|34=315|49=omblckrcktrader2|52=20211030-18:40:22.525|56=MA|10=045|
8=FIX.4.4|9=63|35=0|34=324|49=MA|52=20211030-18:40:36.695|56=omblckrcktrader2|10=058|
8=FIX.4.4|9=63|35=0|34=316|49=omblckrcktrader2|52=20211030-18:41:53.518|56=MA|10=053|
8=FIX.4.4|9=63|35=0|34=325|49=MA|52=20211030-18:42:06.695|56=omblckrcktrader2|10=058|
8=FIX.4.4|9=63|35=0|34=317|49=omblckrcktrader2|52=20211030-18:43:23.524|56=MA|10=050|
8=FIX.4.4|9=63|35=0|34=326|49=MA|52=20211030-18:43:37.694|56=omblckrcktrader2|10=063|
8=FIX.4.4|9=63|35=0|34=318|49=omblckrcktrader2|52=20211030-18:44:54.527|56=MA|10=059|
8=FIX.4.4|9=63|35=0|34=327|49=MA|52=20211030-18:45:08.693|56=omblckrcktrader2|10=063|
8=FIX.4.4|9=63|35=0|34=319|49=omblckrcktrader2|52=20211030-18:46:24.531|56=MA|10=054|
8=FIX.4.4|9=63|35=0|34=328|49=MA|52=20211030-18:46:38.693|56=omblckrcktrader2|10=068|
8=FIX.4.4|9=63|35=0|34=320|49=omblckrcktrader2|52=20211030-18:47:55.526|56=MA|10=055|
8=FIX.4.4|9=63|35=0|34=329|49=MA|52=20211030-18:48:09.696|56=omblckrcktrader2|10=072|
8=FIX.4.4|9=63|35=0|34=321|49=omblckrcktrader2|52=20211030-18:49:25.531|56=MA|10=051|
8=FIX.4.4|9=63|35=0|34=330|49=MA|52=20211030-18:49:40.692|56=omblckrcktrader2|10=056|
8=FIX.4.4|9=63|35=0|34=322|49=omblckrcktrader2|52=20211030-18:50:56.530|56=MA|10=047|
8=FIX.4.4|9=63|35=0|34=331|49=MA|52=20211030-18:51:11.694|56=omblckrcktrader2|10=050|
8=FIX.4.4|9=63|35=0|34=323|49=omblckrcktrader2|52=20211030-18:52:27.528|56=MA|10=055|
8=FIX.4.4|9=63|35=0|34=332|49=MA|52=20211030-18:52:41.694|56=omblckrcktrader2|10=055|
8=FIX.4.4|9=63|35=0|34=324|49=omblckrcktrader2|52=20211030-18:53:57.534|56=MA|10=057|
8=FIX.4.4|9=63|35=0|34=333|49=MA|52=20211030-18:54:11.695|56=omblckrcktrader2|10=056|
8=FIX.4.4|9=63|35=0|34=325|49=omblckrcktrader2|52=20211030-18:55:28.531|56=MA|10=055|
8=FIX.4.4|9=63|35=0|34=334|49=MA|52=20211030-18:55:41.694|56=omblckrcktrader2|10=060|
8=FIX.4.4|9=63|35=0|34=326|49=omblckrcktrader2|52=20211030-18:56:59.524|56=MA|10=063|
8=FIX.4.4|9=63|35=0|34=335|49=MA|52=20211030-18:57:12.694|56=omblckrcktrader2|10=061|
8=FIX.4.4|9=63|35=0|34=327|49=omblckrcktrader2|52=20211030-18:58:29.530|56=MA|10=060|
8=FIX.4.4|9=63|35=0|34=336|49=MA|52=20211030-18:58:43.694|56=omblckrcktrader2|10=067|
8=FIX.4.4|9=63|35=0|34=328|49=omblckrcktrader2|52=20211030-18:59:59.533|56=MA|10=068|
8=FIX.4.4|9=63|35=0|34=337|49=MA|52=20211030-19:00:13.697|56=omblckrcktrader2|10=056|
8=FIX.4.4|9=63|35=0|34=329|49=omblckrcktrader2|52=20211030-19:01:30.531|56=MA|10=044|
8=FIX.4.4|9=63|35=0|34=338|49=MA|52=20211030-19:01:44.694|56=omblckrcktrader2|10=059|
8=FIX.4.4|9=63|35=0|34=330|49=omblckrcktrader2|52=20211030-19:03:00.531|56=MA|10=035|
8=FIX.4.4|9=63|35=0|34=339|49=MA|52=20211030-19:03:14.695|56=omblckrcktrader2|10=060|
8=FIX.4.4|9=63|35=0|34=331|49=omblckrcktrader2|52=20211030-19:04:31.535|56=MA|10=045|
8=FIX.4.4|9=63|35=0|34=340|49=MA|52=20211030-19:04:45.699|56=omblckrcktrader2|10=061|
8=FIX.4.4|9=63|35=0|34=332|49=omblckrcktrader2|52=20211030-19:06:02.535|56=MA|10=046|
8=FIX.4.4|9=63|35=0|34=341|49=MA|52=20211030-19:06:16.663|56=omblckrcktrader2|10=053|
8=FIX.4.4|9=63|35=0|34=333|49=omblckrcktrader2|52=20211030-19:07:33.529|56=MA|10=055|
8=FIX.4.4|9=63|35=0|34=342|49=MA|52=20211030-19:07:46.694|56=omblckrcktrader2|10=062|
8=FIX.4.4|9=63|35=0|34=334|49=omblckrcktrader2|52=20211030-19:09:04.527|56=MA|10=054|
8=FIX.4.4|9=63|35=0|34=343|49=MA|52=20211030-19:09:17.699|56=omblckrcktrader2|10=068|
8=FIX.4.4|9=63|35=0|34=335|49=omblckrcktrader2|52=20211030-19:10:34.536|56=MA|10=050|
8=FIX.4.4|9=63|35=0|34=344|49=MA|52=20211030-19:10:48.696|56=omblckrcktrader2|10=062|
8=FIX.4.4|9=63|35=0|34=336|49=omblckrcktrader2|52=20211030-19:12:05.541|56=MA|10=047|
8=FIX.4.4|9=63|35=0|34=345|49=MA|52=20211030-19:12:18.698|56=omblckrcktrader2|10=064|
8=FIX.4.4|9=63|35=0|34=337|49=omblckrcktrader2|52=20211030-19:13:36.528|56=MA|10=058|
8=FIX.4.4|9=63|35=0|34=346|49=MA|52=20211030-19:13:49.696|56=omblckrcktrader2|10=068|
8=FIX.4.4|9=63|35=0|34=338|49=omblckrcktrader2|52=20211030-19:15:06.534|56=MA|10=055|
8=FIX.4.4|9=63|35=0|34=347|49=MA|52=20211030-19:15:20.697|56=omblckrcktrader2|10=061|
8=FIX.4.4|9=63|35=0|34=339|49=omblckrcktrader2|52=20211030-19:16:36.539|56=MA|10=065|
8=FIX.4.4|9=63|35=0|34=348|49=MA|52=20211030-19:16:51.695|56=omblckrcktrader2|10=065|
8=FIX.4.4|9=63|35=0|34=340|49=omblckrcktrader2|52=20211030-19:18:07.529|56=MA|10=056|
8=FIX.4.4|9=63|35=0|34=349|49=MA|52=20211030-19:18:22.663|56=omblckrcktrader2|10=061|
8=FIX.4.4|9=63|35=0|34=341|49=omblckrcktrader2|52=20211030-19:19:37.541|56=MA|10=055|
8=FIX.4.4|9=63|35=0|34=350|49=MA|52=20211030-19:19:53.694|56=omblckrcktrader2|10=062|
8=FIX.4.4|9=63|35=0|34=342|49=omblckrcktrader2|52=20211030-19:21:08.533|56=MA|10=048|
8=FIX.4.4|9=63|35=0|34=351|49=MA|52=20211030-19:21:23.695|56=omblckrcktrader2|10=054|
8=FIX.4.4|9=63|35=0|34=343|49=omblckrcktrader2|52=20211030-19:22:38.535|56=MA|10=055|
8=FIX.4.4|9=63|35=0|34=352|49=MA|52=20211030-19:22:54.694|56=omblckrcktrader2|10=059|
8=FIX.4.4|9=63|35=0|34=344|49=omblckrcktrader2|52=20211030-19:24:08.535|56=MA|10=055|
8=FIX.4.4|9=63|35=0|34=353|49=MA|52=20211030-19:24:24.695|56=omblckrcktrader2|10=060|
8=FIX.4.4|9=63|35=0|34=345|49=omblckrcktrader2|52=20211030-19:25:38.541|56=MA|10=057|
8=FIX.4.4|9=63|35=0|34=354|49=MA|52=20211030-19:25:54.697|56=omblckrcktrader2|10=067|
8=FIX.4.4|9=63|35=0|34=346|49=omblckrcktrader2|52=20211030-19:27:09.534|56=MA|10=060|
8=FIX.4.4|9=63|35=0|34=355|49=MA|52=20211030-19:27:25.663|56=omblckrcktrader2|10=061|
8=FIX.4.4|9=63|35=0|34=347|49=omblckrcktrader2|52=20211030-19:28:39.540|56=MA|10=062|
8=FIX.4.4|9=63|35=0|34=356|49=MA|52=20211030-19:28:56.693|56=omblckrcktrader2|10=070|
8=FIX.4.4|9=63|35=0|34=348|49=omblckrcktrader2|52=20211030-19:30:10.534|56=MA|10=048|
8=FIX.4.4|9=63|35=0|34=357|49=MA|52=20211030-19:30:27.694|56=omblckrcktrader2|10=063|
8=FIX.4.4|9=63|35=0|34=349|49=omblckrcktrader2|52=20211030-19:31:40.538|56=MA|10=057|
8=FIX.4.4|9=63|35=0|34=358|49=MA|52=20211030-19:31:58.694|56=omblckrcktrader2|10=069|
8=FIX.4.4|9=63|35=0|34=350|49=omblckrcktrader2|52=20211030-19:33:10.540|56=MA|10=041|
8=FIX.4.4|9=63|35=0|34=359|49=MA|52=20211030-19:33:29.693|56=omblckrcktrader2|10=069|
8=FIX.4.4|9=63|35=0|34=351|49=omblckrcktrader2|52=20211030-19:34:41.545|56=MA|10=052|
8=FIX.4.4|9=63|35=0|34=360|49=MA|52=20211030-19:35:00.990|56=omblckrcktrader2|10=052|
8=FIX.4.4|9=63|35=0|34=352|49=omblckrcktrader2|52=20211030-19:36:12.546|56=MA|10=054|
8=FIX.4.4|9=63|35=0|34=361|49=MA|52=20211030-19:36:31.684|56=omblckrcktrader2|10=058|
8=FIX.4.4|9=63|35=0|34=353|49=omblckrcktrader2|52=20211030-19:37:43.538|56=MA|10=061|
8=FIX.4.4|9=63|35=0|34=362|49=MA|52=20211030-19:38:01.694|56=omblckrcktrader2|10=059|
8=FIX.4.4|9=63|35=0|34=354|49=omblckrcktrader2|52=20211030-19:39:13.546|56=MA|10=060|
8=FIX.4.4|9=63|35=0|34=363|49=MA|52=20211030-19:39:32.693|56=omblckrcktrader2|10=064|
8=FIX.4.4|9=63|35=0|34=355|49=omblckrcktrader2|52=20211030-19:40:44.546|56=MA|10=057|
8=FIX.4.4|9=63|35=0|34=364|49=MA|52=20211030-19:41:03.695|56=omblckrcktrader2|10=058|
8=FIX.4.4|9=63|35=0|34=356|49=omblckrcktrader2|52=20211030-19:42:15.539|56=MA|10=060|
8=FIX.4.4|9=63|35=0|34=365|49=MA|52=20211030-19:42:34.662|56=omblckrcktrader2|10=058|
8=FIX.4.4|9=63|35=0|34=357|49=omblckrcktrader2|52=20211030-19:43:45.544|56=MA|10=061|
8=FIX.4.4|9=63|35=0|34=366|49=MA|52=20211030-19:44:04.672|56=omblckrcktrader2|10=059|
8=FIX.4.4|9=63|35=0|34=358|49=omblckrcktrader2|52=20211030-19:45:15.544|56=MA|10=061|
8=FIX.4.4|9=63|35=0|34=367|49=MA|52=20211030-19:45:34.696|56=omblckrcktrader2|10=070|
8=FIX.4.4|9=63|35=0|34=359|49=omblckrcktrader2|52=20211030-19:46:46.534|56=MA|10=066|
8=FIX.4.4|9=63|35=0|34=368|49=MA|52=20211030-19:47:05.694|56=omblckrcktrader2|10=069|
8=FIX.4.4|9=63|35=0|34=360|49=omblckrcktrader2|52=20211030-19:48:17.532|56=MA|10=056|
8=FIX.4.4|9=63|35=0|34=369|49=MA|52=20211030-19:48:36.674|56=omblckrcktrader2|10=073|
8=FIX.4.4|9=63|35=0|34=361|49=omblckrcktrader2|52=20211030-19:49:47.533|56=MA|10=062|
8=FIX.4.4|9=63|35=0|34=370|49=MA|52=20211030-19:50:06.695|56=omblckrcktrader2|10=058|
8=FIX.4.4|9=63|35=0|34=362|49=omblckrcktrader2|52=20211030-19:51:17.544|56=MA|10=055|
8=FIX.4.4|9=63|35=0|34=371|49=MA|52=20211030-19:51:37.695|56=omblckrcktrader2|10=064|
8=FIX.4.4|9=63|35=0|34=363|49=omblckrcktrader2|52=20211030-19:52:47.545|56=MA|10=061|
8=FIX.4.4|9=63|35=0|34=372|49=MA|52=20211030-19:53:07.696|56=omblckrcktrader2|10=065|
8=FIX.4.4|9=63|35=0|34=364|49=omblckrcktrader2|52=20211030-19:54:18.536|56=MA|10=062|
8=FIX.4.4|9=63|35=0|34=373|49=MA|52=20211030-19:54:38.694|56=omblckrcktrader2|10=069|
8=FIX.4.4|9=63|35=0|34=365|49=omblckrcktrader2|52=20211030-19:55:48.545|56=MA|10=067|
8=FIX.4.4|9=63|35=0|34=374|49=MA|52=20211030-19:56:08.696|56=omblckrcktrader2|10=071|
8=FIX.4.4|9=63|35=0|34=366|49=omblckrcktrader2|52=20211030-19:57:19.551|56=MA|10=065|
8=FIX.4.4|9=63|35=0|34=375|49=MA|52=20211030-19:57:39.693|56=omblckrcktrader2|10=074|
8=FIX.4.4|9=63|35=0|34=367|49=omblckrcktrader2|52=20211030-19:58:50.543|56=MA|10=063|
8=FIX.4.4|9=63|35=0|34=376|49=MA|52=20211030-19:59:10.701|56=omblckrcktrader2|10=056|
8=FIX.4.4|9=63|35=0|34=368|49=omblckrcktrader2|52=20211030-20:00:20.545|56=MA|10=042|
8=FIX.4.4|9=63|35=0|34=377|49=MA|52=20211030-20:00:41.663|56=omblckrcktrader2|10=046|
8=FIX.4.4|9=63|35=0|34=369|49=omblckrcktrader2|52=20211030-20:01:51.556|56=MA|10=050|
8=FIX.4.4|9=63|35=0|34=378|49=MA|52=20211030-20:02:11.695|56=omblckrcktrader2|10=051|
8=FIX.4.4|9=63|35=0|34=370|49=omblckrcktrader2|52=20211030-20:03:22.556|56=MA|10=042|
8=FIX.4.4|9=63|35=0|34=379|49=MA|52=20211030-20:03:42.695|56=omblckrcktrader2|10=057|
8=FIX.4.4|9=63|35=0|34=371|49=omblckrcktrader2|52=20211030-20:04:53.548|56=MA|10=049|
8=FIX.4.4|9=63|35=0|34=380|49=MA|52=20211030-20:05:13.697|56=omblckrcktrader2|10=051|
8=FIX.4.4|9=63|35=0|34=372|49=omblckrcktrader2|52=20211030-20:06:24.545|56=MA|10=047|
8=FIX.4.4|9=63|35=0|34=381|49=MA|52=20211030-20:06:44.694|56=omblckrcktrader2|10=054|
8=FIX.4.4|9=63|35=0|34=373|49=omblckrcktrader2|52=20211030-20:07:54.549|56=MA|10=056|
8=FIX.4.4|9=63|35=0|34=382|49=MA|52=20211030-20:08:15.692|56=omblckrcktrader2|10=053|
8=FIX.4.4|9=63|35=0|34=374|49=omblckrcktrader2|52=20211030-20:09:24.554|56=MA|10=052|
8=FIX.4.4|9=63|35=0|34=383|49=MA|52=20211030-20:09:45.695|56=omblckrcktrader2|10=061|
8=FIX.4.4|9=63|35=0|34=375|49=omblckrcktrader2|52=20211030-20:10:55.550|56=MA|10=045|
8=FIX.4.4|9=63|35=0|34=384|49=MA|52=20211030-20:11:15.696|56=omblckrcktrader2|10=053|
8=FIX.4.4|9=63|35=0|34=376|49=omblckrcktrader2|52=20211030-20:12:25.550|56=MA|10=045|
8=FIX.4.4|9=63|35=0|34=385|49=MA|52=20211030-20:12:46.693|56=omblckrcktrader2|10=056|
8=FIX.4.4|9=63|35=0|34=377|49=omblckrcktrader2|52=20211030-20:13:56.546|56=MA|10=056|
8=FIX.4.4|9=63|35=0|34=386|49=MA|52=20211030-20:14:16.695|56=omblckrcktrader2|10=058|
8=FIX.4.4|9=63|35=0|34=378|49=omblckrcktrader2|52=20211030-20:15:26.549|56=MA|10=059|
8=FIX.4.4|9=63|35=0|34=387|49=MA|52=20211030-20:15:46.696|56=omblckrcktrader2|10=064|
8=FIX.4.4|9=63|35=0|34=379|49=omblckrcktrader2|52=20211030-20:16:57.545|56=MA|10=061|
8=FIX.4.4|9=63|35=0|34=388|49=MA|52=20211030-20:17:17.702|56=omblckrcktrader2|10=053|
8=FIX.4.4|9=63|35=0|34=380|49=omblckrcktrader2|52=20211030-20:18:27.559|56=MA|10=057|
8=FIX.4.4|9=63|35=0|34=389|49=MA|52=20211030-20:18:48.687|56=omblckrcktrader2|10=071|
8=FIX.4.4|9=63|35=0|34=381|49=omblckrcktrader2|52=20211030-20:19:57.567|56=MA|10=061|
8=FIX.4.4|9=63|35=0|34=390|49=MA|52=20211030-20:20:18.698|56=omblckrcktrader2|10=055|
8=FIX.4.4|9=63|35=0|34=382|49=omblckrcktrader2|52=20211030-20:21:27.584|56=MA|10=051|
8=FIX.4.4|9=63|35=0|34=391|49=MA|52=20211030-20:21:49.674|56=omblckrcktrader2|10=055|
8=FIX.4.4|9=63|35=0|34=383|49=omblckrcktrader2|52=20211030-20:22:57.585|56=MA|10=057|
8=FIX.4.4|9=63|35=0|34=392|49=MA|52=20211030-20:23:19.695|56=omblckrcktrader2|10=058|
8=FIX.4.4|9=63|35=0|34=384|49=omblckrcktrader2|52=20211030-20:24:28.596|56=MA|10=060|
8=FIX.4.4|9=63|35=0|34=393|49=MA|52=20211030-20:24:50.694|56=omblckrcktrader2|10=054|
8=FIX.4.4|9=63|35=0|34=385|49=omblckrcktrader2|52=20211030-20:25:59.582|56=MA|10=061|
8=FIX.4.4|9=63|35=0|34=394|49=MA|52=20211030-20:26:21.698|56=omblckrcktrader2|10=059|
8=FIX.4.4|9=63|35=0|34=386|49=omblckrcktrader2|52=20211030-20:27:29.592|56=MA|10=062|
8=FIX.4.4|9=63|35=0|34=395|49=MA|52=20211030-20:27:52.663|56=omblckrcktrader2|10=057|
8=FIX.4.4|9=63|35=0|34=387|49=omblckrcktrader2|52=20211030-20:29:00.588|56=MA|10=059|
8=FIX.4.4|9=63|35=0|34=396|49=MA|52=20211030-20:29:22.669|56=omblckrcktrader2|10=063|
8=FIX.4.4|9=63|35=0|34=388|49=omblckrcktrader2|52=20211030-20:30:30.593|56=MA|10=051|
8=FIX.4.4|9=63|35=0|34=397|49=MA|52=20211030-20:30:53.694|56=omblckrcktrader2|10=058|
8=FIX.4.4|9=63|35=0|34=389|49=omblckrcktrader2|52=20211030-20:32:01.580|56=MA|10=048|
8=FIX.4.4|9=63|35=0|34=398|49=MA|52=20211030-20:32:24.694|56=omblckrcktrader2|10=059|
8=FIX.4.4|9=63|35=0|34=390|49=omblckrcktrader2|52=20211030-20:33:32.575|56=MA|10=049|
8=FIX.4.4|9=63|35=0|34=399|49=MA|52=20211030-20:33:54.695|56=omblckrcktrader2|10=065|
8=FIX.4.4|9=63|35=0|34=391|49=omblckrcktrader2|52=20211030-20:35:03.559|56=MA|10=052|
8=FIX.4.4|9=63|35=0|34=400|49=MA|52=20211030-20:35:25.665|56=omblckrcktrader2|10=045|
8=FIX.4.4|9=63|35=0|34=392|49=omblckrcktrader2|52=20211030-20:36:33.565|56=MA|10=054|
8=FIX.4.4|9=63|35=0|34=401|49=MA|52=20211030-20:36:56.698|56=omblckrcktrader2|10=057|
8=FIX.4.4|9=63|35=0|34=393|49=omblckrcktrader2|52=20211030-20:38:04.564|56=MA|10=054|
8=FIX.4.4|9=63|35=0|34=402|49=MA|52=20211030-20:38:26.700|56=omblckrcktrader2|10=041|
8=FIX.4.4|9=63|35=0|34=394|49=omblckrcktrader2|52=20211030-20:39:35.561|56=MA|10=057|
8=FIX.4.4|9=63|35=0|34=403|49=MA|52=20211030-20:39:57.695|56=omblckrcktrader2|10=060|
8=FIX.4.4|9=63|35=0|34=395|49=omblckrcktrader2|52=20211030-20:41:05.566|56=MA|10=053|
8=FIX.4.4|9=63|35=0|34=404|49=MA|52=20211030-20:41:28.693|56=omblckrcktrader2|10=050|
8=FIX.4.4|9=63|35=0|34=396|49=omblckrcktrader2|52=20211030-20:42:36.556|56=MA|10=058|
8=FIX.4.4|9=63|35=0|34=405|49=MA|52=20211030-20:42:58.696|56=omblckrcktrader2|10=058|
8=FIX.4.4|9=63|35=0|34=397|49=omblckrcktrader2|52=20211030-20:44:06.559|56=MA|10=061|
8=FIX.4.4|9=63|35=0|34=406|49=MA|52=20211030-20:44:29.697|56=omblckrcktrader2|10=060|
8=FIX.4.4|9=63|35=0|34=398|49=omblckrcktrader2|52=20211030-20:45:37.567|56=MA|10=066|
8=FIX.4.4|9=63|35=0|34=407|49=MA|52=20211030-20:46:01.145|56=omblckrcktrader2|10=041|
8=FIX.4.4|9=63|35=0|34=399|49=omblckrcktrader2|52=20211030-20:47:08.563|56=MA|10=063|
8=FIX.4.4|9=63|35=0|34=408|49=MA|52=20211030-20:47:31.662|56=omblckrcktrader2|10=050|
8=FIX.4.4|9=63|35=0|34=400|49=omblckrcktrader2|52=20211030-20:48:39.560|56=MA|10=048|
8=FIX.4.4|9=63|35=0|34=409|49=MA|52=20211030-20:49:01.693|56=omblckrcktrader2|10=054|
8=FIX.4.4|9=63|35=0|34=401|49=omblckrcktrader2|52=20211030-20:50:09.572|56=MA|10=042|
8=FIX.4.4|9=63|35=0|34=410|49=MA|52=20211030-20:50:32.694|56=omblckrcktrader2|10=043|
8=FIX.4.4|9=63|35=0|34=402|49=omblckrcktrader2|52=20211030-20:51:39.574|56=MA|10=049|
8=FIX.4.4|9=63|35=0|34=411|49=MA|52=20211030-20:52:02.694|56=omblckrcktrader2|10=043|
8=FIX.4.4|9=63|35=0|34=403|49=omblckrcktrader2|52=20211030-20:53:10.567|56=MA|10=043|
8=FIX.4.4|9=63|35=0|34=412|49=MA|52=20211030-20:53:32.696|56=omblckrcktrader2|10=050|
8=FIX.4.4|9=63|35=0|34=404|49=omblckrcktrader2|52=20211030-20:54:40.575|56=MA|10=047|
8=FIX.4.4|9=63|35=0|34=413|49=MA|52=20211030-20:55:03.696|56=omblckrcktrader2|10=051|
8=FIX.4.4|9=63|35=0|34=405|49=omblckrcktrader2|52=20211030-20:56:11.570|56=MA|10=043|
8=FIX.4.4|9=63|35=0|34=414|49=MA|52=20211030-20:56:34.694|56=omblckrcktrader2|10=055|
8=FIX.4.4|9=63|35=0|34=406|49=omblckrcktrader2|52=20211030-20:57:41.570|56=MA|10=048|
8=FIX.4.4|9=63|35=0|34=415|49=MA|52=20211030-20:58:04.694|56=omblckrcktrader2|10=055|
8=FIX.4.4|9=63|35=0|34=407|49=omblckrcktrader2|52=20211030-20:59:12.566|56=MA|10=054|
8=FIX.4.4|9=63|35=0|34=416|49=MA|52=20211030-20:59:34.695|56=omblckrcktrader2|10=061|
8=FIX.4.4|9=63|35=0|34=408|49=omblckrcktrader2|52=20211030-21:00:42.569|56=MA|10=048|
8=FIX.4.4|9=63|35=0|34=417|49=MA|52=20211030-21:01:04.699|56=omblckrcktrader2|10=051|
8=FIX.4.4|9=63|35=0|34=409|49=omblckrcktrader2|52=20211030-21:02:13.566|56=MA|10=046|
8=FIX.4.4|9=63|35=0|34=418|49=MA|52=20211030-21:02:35.662|56=omblckrcktrader2|10=047|
8=FIX.4.4|9=63|35=0|34=410|49=omblckrcktrader2|52=20211030-21:03:43.588|56=MA|10=046|
8=FIX.4.4|9=63|35=0|34=419|49=MA|52=20211030-21:04:05.694|56=omblckrcktrader2|10=052|
8=FIX.4.4|9=63|35=0|34=411|49=omblckrcktrader2|52=20211030-21:05:14.576|56=MA|10=044|
8=FIX.4.4|9=63|35=0|34=420|49=MA|52=20211030-21:05:36.697|56=omblckrcktrader2|10=052|
8=FIX.4.4|9=63|35=0|34=412|49=omblckrcktrader2|52=20211030-21:06:45.572|56=MA|10=046|
8=FIX.4.4|9=63|35=0|34=421|49=MA|52=20211030-21:07:07.696|56=omblckrcktrader2|10=052|
8=FIX.4.4|9=63|35=0|34=413|49=omblckrcktrader2|52=20211030-21:08:15.574|56=MA|10=048|
8=FIX.4.4|9=63|35=0|34=422|49=MA|52=20211030-21:08:37.699|56=omblckrcktrader2|10=060|
8=FIX.4.4|9=63|35=0|34=414|49=omblckrcktrader2|52=20211030-21:09:46.569|56=MA|10=058|
8=FIX.4.4|9=63|35=0|34=423|49=MA|52=20211030-21:10:08.671|56=omblckrcktrader2|10=042|
8=FIX.4.4|9=63|35=0|34=415|49=omblckrcktrader2|52=20211030-21:11:17.564|56=MA|10=045|
8=FIX.4.4|9=63|35=0|34=424|49=MA|52=20211030-21:11:39.701|56=omblckrcktrader2|10=042|
8=FIX.4.4|9=96|35=A|34=1|49=omblckrcktrader2|52=20211101-08:35:23.057|56=MA|98=0|108=90|95=8|96=3.0.0rc5|141=Y|10=181|
8=FIX.4.4|9=79|35=A|34=1|49=MA|52=20211101-08:35:24.958|56=omblckrcktrader2|98=0|108=90|141=Y|10=055|
8=FIX.4.4|9=903|35=E|34=2|49=omblckrcktrader2|52=20211101-08:35:26.150|56=MA|66=FIX44-ListID-20777|394=2|68=10|73=10|11=FIX44-List-ClOrdID-20778|22=1|38=1000000|48=852061AA8|54=1|55=[N/A/]|67=1|453=1|448=omblckrcktrader2|447=C|452=11|11=FIX44-List-ClOrdID-20779|22=1|38=2000000|48=55616XAB3|54=1|55=[N/A]|67=2|11=FIX44-List-ClOrdID-20780|22=1|38=2000000|48=31410HAQ4|54=1|55=[N/A]|67=3|11=FIX44-List-ClOrdID-20781|22=1|38=2000000|48=345397FL2|54=1|55=[N/A]|67=4|11=FIX44-List-ClOrdID-20782|22=1|38=2000000|48=69352JAK3|54=1|55=[N/A]|67=5|11=FIX44-List-ClOrdID-20783|22=1|38=2000000|48=577081AU6|54=1|55=[N/A]|67=6|11=FIX44-List-ClOrdID-20784|22=1|38=2000000|48=455434BQ2|54=1|55=[N/A]|67=7|11=FIX44-List-ClOrdID-20785|22=1|38=2000000|48=87422VAA6|54=1|55=[N/A]|67=8|11=FIX44-List-ClOrdID-20786|22=1|38=2000000|48=345397XA6|54=1|55=[N/A]|67=9|11=FIX44-List-ClOrdID-20787|22=1|38=2000000|48=25470XAW5|54=1|55=[N/A]|67=10|10=241|
8=FIX.4.4|9=376|35=8|49=MA|56=omblckrcktrader2|34=2|52=20211101-08:35:27.555|453=1|448=omblckrcktrader2|447=C|452=11|37=100002784-FIX44-List-ClOrdID-20778|11=FIX44-List-ClOrdID-20778|66=FIX44-ListID-20777|17=100002784-FIX44-List-ClOrdID-20778-x6fnh|150=8|39=8|103=99|55=[N/A]|54=1|48=852061AA8|22=1|151=0|38=1000000|14=0|6=0|58=This Bond is not available to trade on MarketAxess.|75=20211101|10=245|
8=FIX.4.4|9=514|35=8|49=MA|56=omblckrcktrader2|34=3|52=20211101-08:35:27.655|453=2|448=omblckrcktrader2|447=C|452=11|448=NewOM blkrock company|447=D|452=13|37=8588617|11=FIX44-List-ClOrdID-20783|66=8588615|17=8588617-x6fq1|150=0|39=0|55=[N/A]|54=1|48=577081AU6|22=1|454=1|455=US577081AU60|456=4|460=3|167=CORP|541=20401001|223=0.062|106=MATTEL|225=20100928|873=20100928|107=MAT  6.200  10/1/40|64=20211103|151=2000000|15=USD|120=USD|38=2000000|14=0|6=0|60=20211101-08:35:27|126=20211101-08:35:27|75=20211101|20117=8588617|30=MTXX|10=070|
8=FIX.4.4|9=527|35=8|49=MA|56=omblckrcktrader2|34=4|52=20211101-08:35:27.659|453=2|448=omblckrcktrader2|447=C|452=11|448=NewOM blkrock company|447=D|452=13|37=8588618|11=FIX44-List-ClOrdID-20785|66=8588615|17=8588618-x6fq6|150=0|39=0|55=[N/A]|54=1|48=87422VAA6|22=1|454=1|455=US87422VAA61|456=4|460=3|167=CORP|541=20250601|223=0.065|106=TALEN ENERGY SUP|225=20160122|873=20151201|107=TLN  6.500  6/1/25 c21|64=20211103|151=2000000|15=USD|120=USD|38=2000000|14=0|6=0|60=20211101-08:35:27|126=20211101-08:35:27|75=20211101|20117=8588618|30=MTXX|10=233|
8=FIX.4.4|9=524|35=8|49=MA|56=omblckrcktrader2|34=5|52=20211101-08:35:27.666|453=2|448=omblckrcktrader2|447=C|452=11|448=NewOM blkrock company|447=D|452=13|37=8588616|11=FIX44-List-ClOrdID-20782|66=8588615|17=8588616-x6fq1|150=0|39=0|55=[N/A]|54=1|48=69352JAK3|22=1|454=1|455=US69352JAK34|456=4|460=3|167=CORP|541=20361215|223=0.06|106=TALEN ENERGY SUP|225=20061214|873=20061214|107=PPL  6.000  12/15/36|64=20211103|151=2000000|15=USD|120=USD|38=2000000|14=0|6=0|60=20211101-08:35:27|126=20211101-08:35:27|75=20211101|20117=8588616|30=MTXX|10=032|
8=FIX.4.4|9=535|35=8|49=MA|56=omblckrcktrader2|34=6|52=20211101-08:35:27.776|453=2|448=omblckrcktrader2|447=C|452=11|448=NewOM blkrock company|447=D|452=13|37=1421199|11=FIX44-List-ClOrdID-20779|66=FIX44-ListID-20777|17=1421199-x6fsy|150=0|39=0|55=[N/A]|54=1|48=55616XAB3|22=1|454=1|455=US55616XAB38|456=4|460=3|167=CORP|541=20270715|223=0.0679|106=MACY'S RET HLDG|225=19970714|873=19970714|107=M  6.790  7/15/27 p|64=20211103|151=2000000|15=USD|120=USD|38=2000000|14=0|6=0|60=20211101-08:35:27|126=20211101-08:35:27|75=20211101|20117=8588620|30=MTXX|10=169|
8=FIX.4.4|9=541|35=8|49=MA|56=omblckrcktrader2|34=7|52=20211101-08:35:27.781|453=2|448=omblckrcktrader2|447=C|452=11|448=NewOM blkrock company|447=D|452=13|37=1421201|11=FIX44-List-ClOrdID-20781|66=FIX44-ListID-20777|17=1421201-x6ft9|150=0|39=0|55=[N/A]|54=1|48=345397FL2|22=1|454=1|455=US345397FL26|456=4|460=3|167=CORP|541=20480915|223=0.00578477|106=FORD MOTOR CRED|225=19880922|873=19880922|107=F  9/15/48 cp22 (FRN)|64=20211103|151=2000000|15=USD|120=USD|38=2000000|14=0|6=0|60=20211101-08:35:27|126=20211101-08:35:27|75=20211101|20117=8588622|30=MTXX|10=244|
8=FIX.4.4|9=533|35=8|49=MA|56=omblckrcktrader2|34=8|52=20211101-08:35:27.790|453=2|448=omblckrcktrader2|447=C|452=11|448=NewOM blkrock company|447=D|452=13|37=1421203|11=FIX44-List-ClOrdID-20786|66=FIX44-ListID-20777|17=1421203-x6ft6|150=0|39=0|55=[N/A]|54=1|48=345397XA6|22=1|454=1|455=US345397XA68|456=4|460=3|167=CORP|541=20220109|223=0.03219|106=FORD MOTOR CRED|225=20150109|873=20150109|107=F  3.219  1/9/22|64=20211103|151=2000000|15=USD|120=USD|38=2000000|14=0|6=0|60=20211101-08:35:27|126=20211101-08:35:27|75=20211101|20117=8588624|30=MTXX|10=138|
8=FIX.4.4|9=544|35=8|49=MA|56=omblckrcktrader2|34=9|52=20211101-08:35:27.804|453=2|448=omblckrcktrader2|447=C|452=11|448=NewOM blkrock company|447=D|452=13|37=1421202|11=FIX44-List-ClOrdID-20784|66=FIX44-ListID-20777|17=1421202-x6ftj|150=0|39=0|55=[N/A]|54=1|48=455434BQ2|22=1|454=1|455=US455434BQ27|456=4|460=3|167=CORP|541=20430601|223=0.0465|106=INDIANAPOLIS PWR|225=20130606|873=20130606|107=AES  4.650  6/43 c42 (144a)|64=20211103|151=2000000|15=USD|120=USD|38=2000000|14=0|6=0|60=20211101-08:35:27|126=20211101-08:35:27|75=20211101|20117=8588623|30=MTXX|10=104|
8=FIX.4.4|9=532|35=8|49=MA|56=omblckrcktrader2|34=10|52=20211101-08:35:27.816|453=2|448=omblckrcktrader2|447=C|452=11|448=NewOM blkrock company|447=D|452=13|37=1421204|11=FIX44-List-ClOrdID-20787|66=FIX44-ListID-20777|17=1421204-x6ft6|150=0|39=0|55=[N/A]|54=1|48=25470XAW5|22=1|454=1|455=US25470XAW56|456=4|460=3|167=CORP|541=20241115|223=0.05875|106=DISH DBS|225=20150129|873=20141120|107=DISH  5.875  11/15/24|64=20211103|151=2000000|15=USD|120=USD|38=2000000|14=0|6=0|60=20211101-08:35:27|126=20211101-08:35:27|75=20211101|20117=8588625|30=MTXX|10=061|
8=FIX.4.4|9=523|35=8|49=MA|56=omblckrcktrader2|34=11|52=20211101-08:35:27.835|453=2|448=omblckrcktrader2|447=C|452=11|448=NewOM blkrock company|447=D|452=13|37=1421200|11=FIX44-List-ClOrdID-20780|66=FIX44-ListID-20777|17=1421200-x6ftl|150=0|39=0|55=[N/A]|54=1|48=31410HAQ4|22=1|454=1|455=US31410HAQ48|456=4|460=3|167=CORP|541=20290401|223=0.069|106=MACY'S|225=19990614|873=19990324|107=M  6.900  4/1/29|64=20211103|151=2000000|15=USD|120=USD|38=2000000|14=0|6=0|60=20211101-08:35:27|126=20211101-08:35:27|75=20211101|20117=8588621|30=MTXX|10=041|
8=FIX.4.4|9=903|35=E|34=3|49=omblckrcktrader2|52=20211101-08:35:51.576|56=MA|66=FIX44-ListID-20788|394=2|68=10|73=10|11=FIX44-List-ClOrdID-20789|22=1|38=1000000|48=852061AA8|54=1|55=[N/A/]|67=1|453=1|448=omblckrcktrader2|447=C|452=11|11=FIX44-List-ClOrdID-20790|22=1|38=2000000|48=55616XAB3|54=1|55=[N/A]|67=2|11=FIX44-List-ClOrdID-20791|22=1|38=2000000|48=31410HAQ4|54=1|55=[N/A]|67=3|11=FIX44-List-ClOrdID-20792|22=1|38=2000000|48=345397FL2|54=1|55=[N/A]|67=4|11=FIX44-List-ClOrdID-20793|22=1|38=2000000|48=69352JAK3|54=1|55=[N/A]|67=5|11=FIX44-List-ClOrdID-20794|22=1|38=2000000|48=577081AU6|54=1|55=[N/A]|67=6|11=FIX44-List-ClOrdID-20795|22=1|38=2000000|48=455434BQ2|54=1|55=[N/A]|67=7|11=FIX44-List-ClOrdID-20796|22=1|38=2000000|48=87422VAA6|54=1|55=[N/A]|67=8|11=FIX44-List-ClOrdID-20797|22=1|38=2000000|48=345397XA6|54=1|55=[N/A]|67=9|11=FIX44-List-ClOrdID-20798|22=1|38=2000000|48=25470XAW5|54=1|55=[N/A]|67=10|10=009|
8=FIX.4.4|9=377|35=8|49=MA|56=omblckrcktrader2|34=12|52=20211101-08:35:52.894|453=1|448=omblckrcktrader2|447=C|452=11|37=100002784-FIX44-List-ClOrdID-20789|11=FIX44-List-ClOrdID-20789|66=FIX44-ListID-20788|17=100002784-FIX44-List-ClOrdID-20789-x6z7c|150=8|39=8|103=99|55=[N/A]|54=1|48=852061AA8|22=1|151=0|38=1000000|14=0|6=0|58=This Bond is not available to trade on MarketAxess.|75=20211101|10=011|
8=FIX.4.4|9=515|35=8|49=MA|56=omblckrcktrader2|34=13|52=20211101-08:35:52.968|453=2|448=omblckrcktrader2|447=C|452=11|448=NewOM blkrock company|447=D|452=13|37=8588628|11=FIX44-List-ClOrdID-20794|66=8588626|17=8588628-x6z97|150=0|39=0|55=[N/A]|54=1|48=577081AU6|22=1|454=1|455=US577081AU60|456=4|460=3|167=CORP|541=20401001|223=0.062|106=MATTEL|225=20100928|873=20100928|107=MAT  6.200  10/1/40|64=20211103|151=2000000|15=USD|120=USD|38=2000000|14=0|6=0|60=20211101-08:35:52|126=20211101-08:35:52|75=20211101|20117=8588628|30=MTXX|10=101|
8=FIX.4.4|9=525|35=8|49=MA|56=omblckrcktrader2|34=14|52=20211101-08:35:52.972|453=2|448=omblckrcktrader2|447=C|452=11|448=NewOM blkrock company|447=D|452=13|37=8588627|11=FIX44-List-ClOrdID-20793|66=8588626|17=8588627-x6z93|150=0|39=0|55=[N/A]|54=1|48=69352JAK3|22=1|454=1|455=US69352JAK34|456=4|460=3|167=CORP|541=20361215|223=0.06|106=TALEN ENERGY SUP|225=20061214|873=20061214|107=PPL  6.000  12/15/36|64=20211103|151=2000000|15=USD|120=USD|38=2000000|14=0|6=0|60=20211101-08:35:52|126=20211101-08:35:52|75=20211101|20117=8588627|30=MTXX|10=051|
8=FIX.4.4|9=528|35=8|49=MA|56=omblckrcktrader2|34=15|52=20211101-08:35:52.979|453=2|448=omblckrcktrader2|447=C|452=11|448=NewOM blkrock company|447=D|452=13|37=8588629|11=FIX44-List-ClOrdID-20796|66=8588626|17=8588629-x6z9g|150=0|39=0|55=[N/A]|54=1|48=87422VAA6|22=1|454=1|455=US87422VAA61|456=4|460=3|167=CORP|541=20250601|223=0.065|106=TALEN ENERGY SUP|225=20160122|873=20151201|107=TLN  6.500  6/1/25 c21|64=20211103|151=2000000|15=USD|120=USD|38=2000000|14=0|6=0|60=20211101-08:35:52|126=20211101-08:35:52|75=20211101|20117=8588629|30=MTXX|10=050|
8=FIX.4.4|9=536|35=8|49=MA|56=omblckrcktrader2|34=16|52=20211101-08:35:53.069|453=2|448=omblckrcktrader2|447=C|452=11|448=NewOM blkrock company|447=D|452=13|37=1421213|11=FIX44-List-ClOrdID-20790|66=FIX44-ListID-20788|17=1421213-x6zbu|150=0|39=0|55=[N/A]|54=1|48=55616XAB3|22=1|454=1|455=US55616XAB38|456=4|460=3|167=CORP|541=20270715|223=0.0679|106=MACY'S RET HLDG|225=19970714|873=19970714|107=M  6.790  7/15/27 p|64=20211103|151=2000000|15=USD|120=USD|38=2000000|14=0|6=0|60=20211101-08:35:53|126=20211101-08:35:52|75=20211101|20117=8588631|30=MTXX|10=180|
8=FIX.4.4|9=532|35=8|49=MA|56=omblckrcktrader2|34=17|52=20211101-08:35:53.075|453=2|448=omblckrcktrader2|447=C|452=11|448=NewOM blkrock company|447=D|452=13|37=1421218|11=FIX44-List-ClOrdID-20798|66=FIX44-ListID-20788|17=1421218-x6zc0|150=0|39=0|55=[N/A]|54=1|48=25470XAW5|22=1|454=1|455=US25470XAW56|456=4|460=3|167=CORP|541=20241115|223=0.05875|106=DISH DBS|225=20150129|873=20141120|107=DISH  5.875  11/15/24|64=20211103|151=2000000|15=USD|120=USD|38=2000000|14=0|6=0|60=20211101-08:35:53|126=20211101-08:35:52|75=20211101|20117=8588636|30=MTXX|10=074|
8=FIX.4.4|9=542|35=8|49=MA|56=omblckrcktrader2|34=18|52=20211101-08:35:53.081|453=2|448=omblckrcktrader2|447=C|452=11|448=NewOM blkrock company|447=D|452=13|37=1421215|11=FIX44-List-ClOrdID-20792|66=FIX44-ListID-20788|17=1421215-x6zc0|150=0|39=0|55=[N/A]|54=1|48=345397FL2|22=1|454=1|455=US345397FL26|456=4|460=3|167=CORP|541=20480915|223=0.00578477|106=FORD MOTOR CRED|225=19880922|873=19880922|107=F  9/15/48 cp22 (FRN)|64=20211103|151=2000000|15=USD|120=USD|38=2000000|14=0|6=0|60=20211101-08:35:53|126=20211101-08:35:52|75=20211101|20117=8588633|30=MTXX|10=038|
8=FIX.4.4|9=523|35=8|49=MA|56=omblckrcktrader2|34=19|52=20211101-08:35:53.085|453=2|448=omblckrcktrader2|447=C|452=11|448=NewOM blkrock company|447=D|452=13|37=1421214|11=FIX44-List-ClOrdID-20791|66=FIX44-ListID-20788|17=1421214-x6zbu|150=0|39=0|55=[N/A]|54=1|48=31410HAQ4|22=1|454=1|455=US31410HAQ48|456=4|460=3|167=CORP|541=20290401|223=0.069|106=MACY'S|225=19990614|873=19990324|107=M  6.900  4/1/29|64=20211103|151=2000000|15=USD|120=USD|38=2000000|14=0|6=0|60=20211101-08:35:53|126=20211101-08:35:52|75=20211101|20117=8588632|30=MTXX|10=069|
8=FIX.4.4|9=534|35=8|49=MA|56=omblckrcktrader2|34=20|52=20211101-08:35:53.090|453=2|448=omblckrcktrader2|447=C|452=11|448=NewOM blkrock company|447=D|452=13|37=1421217|11=FIX44-List-ClOrdID-20797|66=FIX44-ListID-20788|17=1421217-x6zc3|150=0|39=0|55=[N/A]|54=1|48=345397XA6|22=1|454=1|455=US345397XA68|456=4|460=3|167=CORP|541=20220109|223=0.03219|106=FORD MOTOR CRED|225=20150109|873=20150109|107=F  3.219  1/9/22|64=20211103|151=2000000|15=USD|120=USD|38=2000000|14=0|6=0|60=20211101-08:35:53|126=20211101-08:35:52|75=20211101|20117=8588635|30=MTXX|10=186|
8=FIX.4.4|9=545|35=8|49=MA|56=omblckrcktrader2|34=21|52=20211101-08:35:53.093|453=2|448=omblckrcktrader2|447=C|452=11|448=NewOM blkrock company|447=D|452=13|37=1421216|11=FIX44-List-ClOrdID-20795|66=FIX44-ListID-20788|17=1421216-x6zc7|150=0|39=0|55=[N/A]|54=1|48=455434BQ2|22=1|454=1|455=US455434BQ27|456=4|460=3|167=CORP|541=20430601|223=0.0465|106=INDIANAPOLIS PWR|225=20130606|873=20130606|107=AES  4.650  6/43 c42 (144a)|64=20211103|151=2000000|15=USD|120=USD|38=2000000|14=0|6=0|60=20211101-08:35:53|126=20211101-08:35:52|75=20211101|20117=8588634|30=MTXX|10=111|
8=FIX.4.4|9=61|35=0|34=4|49=omblckrcktrader2|52=20211101-08:37:21.656|56=MA|10=206|
8=FIX.4.4|9=62|35=0|34=22|49=MA|52=20211101-08:37:23.101|56=omblckrcktrader2|10=242|
8=FIX.4.4|9=903|35=E|34=5|49=omblckrcktrader2|52=20211101-08:38:04.257|56=MA|66=FIX44-ListID-20799|394=2|68=10|73=10|11=FIX44-List-ClOrdID-20800|22=1|38=1000000|48=852061AA8|54=1|55=[N/A/]|67=1|453=1|448=omblckrcktrader2|447=C|452=11|11=FIX44-List-ClOrdID-20801|22=1|38=2000000|48=55616XAB3|54=1|55=[N/A]|67=2|11=FIX44-List-ClOrdID-20802|22=1|38=2000000|48=31410HAQ4|54=1|55=[N/A]|67=3|11=FIX44-List-ClOrdID-20803|22=1|38=2000000|48=345397FL2|54=1|55=[N/A]|67=4|11=FIX44-List-ClOrdID-20804|22=1|38=2000000|48=69352JAK3|54=1|55=[N/A]|67=5|11=FIX44-List-ClOrdID-20805|22=1|38=2000000|48=577081AU6|54=1|55=[N/A]|67=6|11=FIX44-List-ClOrdID-20806|22=1|38=2000000|48=455434BQ2|54=1|55=[N/A]|67=7|11=FIX44-List-ClOrdID-20807|22=1|38=2000000|48=87422VAA6|54=1|55=[N/A]|67=8|11=FIX44-List-ClOrdID-20808|22=1|38=2000000|48=345397XA6|54=1|55=[N/A]|67=9|11=FIX44-List-ClOrdID-20809|22=1|38=2000000|48=25470XAW5|54=1|55=[N/A]|67=10|10=187|
8=FIX.4.4|9=377|35=8|49=MA|56=omblckrcktrader2|34=23|52=20211101-08:38:05.565|453=1|448=omblckrcktrader2|447=C|452=11|37=100002784-FIX44-List-ClOrdID-20800|11=FIX44-List-ClOrdID-20800|66=FIX44-ListID-20799|17=100002784-FIX44-List-ClOrdID-20800-x9tkn|150=8|39=8|103=99|55=[N/A]|54=1|48=852061AA8|22=1|151=0|38=1000000|14=0|6=0|58=This Bond is not available to trade on MarketAxess.|75=20211101|10=023|
8=FIX.4.4|9=539|35=8|49=MA|56=omblckrcktrader2|34=24|52=20211101-08:38:05.866|453=2|448=omblckrcktrader2|447=C|452=11|448=NewOM blkrock company|447=D|452=13|37=1421226|11=FIX44-List-ClOrdID-20807|66=FIX44-ListID-20799|17=1421226-x9tsw|150=0|39=0|55=[N/A]|54=1|48=87422VAA6|22=1|454=1|455=US87422VAA61|456=4|460=3|167=CORP|541=20250601|223=0.065|106=TALEN ENERGY SUP|225=20160122|873=20151201|107=TLN  6.500  6/1/25 c21|64=20211103|151=2000000|15=USD|120=USD|38=2000000|14=0|6=0|60=20211101-08:38:05|126=20211101-08:38:05|75=20211101|20117=8588648|30=MTXX|10=157|
8=FIX.4.4|9=526|35=8|49=MA|56=omblckrcktrader2|34=25|52=20211101-08:38:05.873|453=2|448=omblckrcktrader2|447=C|452=11|448=NewOM blkrock company|447=D|452=13|37=1421225|11=FIX44-List-ClOrdID-20805|66=FIX44-ListID-20799|17=1421225-x9tsm|150=0|39=0|55=[N/A]|54=1|48=577081AU6|22=1|454=1|455=US577081AU60|456=4|460=3|167=CORP|541=20401001|223=0.062|106=MATTEL|225=20100928|873=20100928|107=MAT  6.200  10/1/40|64=20211103|151=2000000|15=USD|120=USD|38=2000000|14=0|6=0|60=20211101-08:38:05|126=20211101-08:38:05|75=20211101|20117=8588647|30=MTXX|10=249|
8=FIX.4.4|9=525|35=8|49=MA|56=omblckrcktrader2|34=26|52=20211101-08:38:05.876|453=2|448=omblckrcktrader2|447=C|452=11|448=NewOM blkrock company|447=D|452=13|37=1421224|11=FIX44-List-ClOrdID-20804|66=8588645|17=1421224-x9tsq|150=0|39=0|55=[N/A]|54=1|48=69352JAK3|22=1|454=1|455=US69352JAK34|456=4|460=3|167=CORP|541=20361215|223=0.06|106=TALEN ENERGY SUP|225=20061214|873=20061214|107=PPL  6.000  12/15/36|64=20211103|151=2000000|15=USD|120=USD|38=2000000|14=0|6=0|60=20211101-08:38:05|126=20211101-08:38:05|75=20211101|20117=8588646|30=MTXX|10=116|
8=FIX.4.4|9=903|35=E|34=6|49=omblckrcktrader2|52=20211101-08:38:04.874|56=MA|66=FIX44-ListID-20810|394=2|68=10|73=10|11=FIX44-List-ClOrdID-20811|22=1|38=1000000|48=852061AA8|54=1|55=[N/A/]|67=1|453=1|448=omblckrcktrader2|447=C|452=11|11=FIX44-List-ClOrdID-20812|22=1|38=2000000|48=55616XAB3|54=1|55=[N/A]|67=2|11=FIX44-List-ClOrdID-20813|22=1|38=2000000|48=31410HAQ4|54=1|55=[N/A]|67=3|11=FIX44-List-ClOrdID-20814|22=1|38=2000000|48=345397FL2|54=1|55=[N/A]|67=4|11=FIX44-List-ClOrdID-20815|22=1|38=2000000|48=69352JAK3|54=1|55=[N/A]|67=5|11=FIX44-List-ClOrdID-20816|22=1|38=2000000|48=577081AU6|54=1|55=[N/A]|67=6|11=FIX44-List-ClOrdID-20817|22=1|38=2000000|48=455434BQ2|54=1|55=[N/A]|67=7|11=FIX44-List-ClOrdID-20818|22=1|38=2000000|48=87422VAA6|54=1|55=[N/A]|67=8|11=FIX44-List-ClOrdID-20819|22=1|38=2000000|48=345397XA6|54=1|55=[N/A]|67=9|11=FIX44-List-ClOrdID-20820|22=1|38=2000000|48=25470XAW5|54=1|55=[N/A]|67=10|10=188|
8=FIX.4.4|9=536|35=8|49=MA|56=omblckrcktrader2|34=27|52=20211101-08:38:05.961|453=2|448=omblckrcktrader2|447=C|452=11|448=NewOM blkrock company|447=D|452=13|37=1421228|11=FIX44-List-ClOrdID-20801|66=FIX44-ListID-20799|17=1421228-x9tv1|150=0|39=0|55=[N/A]|54=1|48=55616XAB3|22=1|454=1|455=US55616XAB38|456=4|460=3|167=CORP|541=20270715|223=0.0679|106=MACY'S RET HLDG|225=19970714|873=19970714|107=M  6.790  7/15/27 p|64=20211103|151=2000000|15=USD|120=USD|38=2000000|14=0|6=0|60=20211101-08:38:05|126=20211101-08:38:05|75=20211101|20117=8588650|30=MTXX|10=141|
8=FIX.4.4|9=523|35=8|49=MA|56=omblckrcktrader2|34=28|52=20211101-08:38:05.964|453=2|448=omblckrcktrader2|447=C|452=11|448=NewOM blkrock company|447=D|452=13|37=1421229|11=FIX44-List-ClOrdID-20802|66=FIX44-ListID-20799|17=1421229-x9tvg|150=0|39=0|55=[N/A]|54=1|48=31410HAQ4|22=1|454=1|455=US31410HAQ48|456=4|460=3|167=CORP|541=20290401|223=0.069|106=MACY'S|225=19990614|873=19990324|107=M  6.900  4/1/29|64=20211103|151=2000000|15=USD|120=USD|38=2000000|14=0|6=0|60=20211101-08:38:05|126=20211101-08:38:05|75=20211101|20117=8588651|30=MTXX|10=087|
8=FIX.4.4|9=532|35=8|49=MA|56=omblckrcktrader2|34=29|52=20211101-08:38:05.979|453=2|448=omblckrcktrader2|447=C|452=11|448=NewOM blkrock company|447=D|452=13|37=1421233|11=FIX44-List-ClOrdID-20809|66=FIX44-ListID-20799|17=1421233-x9tvo|150=0|39=0|55=[N/A]|54=1|48=25470XAW5|22=1|454=1|455=US25470XAW56|456=4|460=3|167=CORP|541=20241115|223=0.05875|106=DISH DBS|225=20150129|873=20141120|107=DISH  5.875  11/15/24|64=20211103|151=2000000|15=USD|120=USD|38=2000000|14=0|6=0|60=20211101-08:38:05|126=20211101-08:38:05|75=20211101|20117=8588655|30=MTXX|10=160|
8=FIX.4.4|9=545|35=8|49=MA|56=omblckrcktrader2|34=30|52=20211101-08:38:05.990|453=2|448=omblckrcktrader2|447=C|452=11|448=NewOM blkrock company|447=D|452=13|37=1421231|11=FIX44-List-ClOrdID-20806|66=FIX44-ListID-20799|17=1421231-x9tvo|150=0|39=0|55=[N/A]|54=1|48=455434BQ2|22=1|454=1|455=US455434BQ27|456=4|460=3|167=CORP|541=20430601|223=0.0465|106=INDIANAPOLIS PWR|225=20130606|873=20130606|107=AES  4.650  6/43 c42 (144a)|64=20211103|151=2000000|15=USD|120=USD|38=2000000|14=0|6=0|60=20211101-08:38:05|126=20211101-08:38:05|75=20211101|20117=8588653|30=MTXX|10=180|
8=FIX.4.4|9=542|35=8|49=MA|56=omblckrcktrader2|34=31|52=20211101-08:38:05.998|453=2|448=omblckrcktrader2|447=C|452=11|448=NewOM blkrock company|447=D|452=13|37=1421230|11=FIX44-List-ClOrdID-20803|66=FIX44-ListID-20799|17=1421230-x9tv8|150=0|39=0|55=[N/A]|54=1|48=345397FL2|22=1|454=1|455=US345397FL26|456=4|460=3|167=CORP|541=20480915|223=0.00578477|106=FORD MOTOR CRED|225=19880922|873=19880922|107=F  9/15/48 cp22 (FRN)|64=20211103|151=2000000|15=USD|120=USD|38=2000000|14=0|6=0|60=20211101-08:38:05|126=20211101-08:38:05|75=20211101|20117=8588652|30=MTXX|10=065|
8=FIX.4.4|9=534|35=8|49=MA|56=omblckrcktrader2|34=32|52=20211101-08:38:06.002|453=2|448=omblckrcktrader2|447=C|452=11|448=NewOM blkrock company|447=D|452=13|37=1421232|11=FIX44-List-ClOrdID-20808|66=FIX44-ListID-20799|17=1421232-x9tv9|150=0|39=0|55=[N/A]|54=1|48=345397XA6|22=1|454=1|455=US345397XA68|456=4|460=3|167=CORP|541=20220109|223=0.03219|106=FORD MOTOR CRED|225=20150109|873=20150109|107=F  3.219  1/9/22|64=20211103|151=2000000|15=USD|120=USD|38=2000000|14=0|6=0|60=20211101-08:38:05|126=20211101-08:38:05|75=20211101|20117=8588654|30=MTXX|10=196|
8=FIX.4.4|9=377|35=8|49=MA|56=omblckrcktrader2|34=33|52=20211101-08:38:06.461|453=1|448=omblckrcktrader2|447=C|452=11|37=100002784-FIX44-List-ClOrdID-20811|11=FIX44-List-ClOrdID-20811|66=FIX44-ListID-20810|17=100002784-FIX44-List-ClOrdID-20811-x9u9i|150=8|39=8|103=99|55=[N/A]|54=1|48=852061AA8|22=1|151=0|38=1000000|14=0|6=0|58=This Bond is not available to trade on MarketAxess.|75=20211101|10=212|
8=FIX.4.4|9=515|35=8|49=MA|56=omblckrcktrader2|34=34|52=20211101-08:38:06.543|453=2|448=omblckrcktrader2|447=C|452=11|448=NewOM blkrock company|447=D|452=13|37=8588658|11=FIX44-List-ClOrdID-20816|66=8588656|17=8588658-x9ubn|150=0|39=0|55=[N/A]|54=1|48=577081AU6|22=1|454=1|455=US577081AU60|456=4|460=3|167=CORP|541=20401001|223=0.062|106=MATTEL|225=20100928|873=20100928|107=MAT  6.200  10/1/40|64=20211103|151=2000000|15=USD|120=USD|38=2000000|14=0|6=0|60=20211101-08:38:06|126=20211101-08:38:06|75=20211101|20117=8588658|30=MTXX|10=200|
8=FIX.4.4|9=525|35=8|49=MA|56=omblckrcktrader2|34=35|52=20211101-08:38:06.549|453=2|448=omblckrcktrader2|447=C|452=11|448=NewOM blkrock company|447=D|452=13|37=8588657|11=FIX44-List-ClOrdID-20815|66=8588656|17=8588657-x9ubn|150=0|39=0|55=[N/A]|54=1|48=69352JAK3|22=1|454=1|455=US69352JAK34|456=4|460=3|167=CORP|541=20361215|223=0.06|106=TALEN ENERGY SUP|225=20061214|873=20061214|107=PPL  6.000  12/15/36|64=20211103|151=2000000|15=USD|120=USD|38=2000000|14=0|6=0|60=20211101-08:38:06|126=20211101-08:38:06|75=20211101|20117=8588657|30=MTXX|10=165|
8=FIX.4.4|9=528|35=8|49=MA|56=omblckrcktrader2|34=36|52=20211101-08:38:06.553|453=2|448=omblckrcktrader2|447=C|452=11|448=NewOM blkrock company|447=D|452=13|37=8588659|11=FIX44-List-ClOrdID-20818|66=8588656|17=8588659-x9ubr|150=0|39=0|55=[N/A]|54=1|48=87422VAA6|22=1|454=1|455=US87422VAA61|456=4|460=3|167=CORP|541=20250601|223=0.065|106=TALEN ENERGY SUP|225=20160122|873=20151201|107=TLN  6.500  6/1/25 c21|64=20211103|151=2000000|15=USD|120=USD|38=2000000|14=0|6=0|60=20211101-08:38:06|126=20211101-08:38:06|75=20211101|20117=8588659|30=MTXX|10=104|
