8=FIX.4.4|9=91|35=A|34=1|49=T1Kauaiblk4|52=20210924-09:20:49.645|56=MA|98=0|108=90|95=8|96=3.0.0rc5|141=Y|10=051|
8=FIX.4.4|9=74|35=A|34=1|49=MA|52=20210924-09:20:50.246|56=T1Kauaiblk4|98=0|108=90|141=Y|10=159|
8=FIX.4.4|9=713|35=E|34=2|49=T1Kauaiblk4|52=20210924-09:21:04.113|56=MA|66=ListID-041321-rodrigo-18131|394=2|68=5|73=5|11=ClOrdID-18132|22=4|38=100000|44=100|48=US06051GEN51|54=1|55=[N/A/]|63=3|67=1|423=1|29726=100.25|453=1|448=T1Kauaiblk4|447=C|452=11|11=ClOrdID-18133|22=4|38=100000|44=101|48=US40434AAB52|54=1|55=[N/A]|63=3|67=2|29726=101.25|11=ClOrdID-18134|22=4|38=130000|44=102|48=US95709TAH32|54=1|55=[N/A/]|63=3|67=1|29726=102.25|453=1|448=T1Kauaiblk4|447=C|452=11|11=ClOrdID-18135|22=4|38=250000|44=103|48=US427866AZ15|54=1|55=[N/A/]|63=3|67=1|29726=103.25|453=1|448=T1Kauaiblk4|447=C|452=11|11=ClOrdID-18136|22=4|38=350000|44=104|48=US29379VAW37|54=1|55=[N/A/]|63=3|67=1|29726=104.25|453=1|448=T1Kauaiblk4|447=C|452=11|10=205|
8=FIX.4.4|9=382|35=8|49=MA|56=T1Kauaiblk4|34=2|52=20210924-09:21:04.304|453=1|448=T1Kauaiblk4|447=C|452=11|37=100002766-ClOrdID-18132|11=ClOrdID-18132|66=ListID-041321-rodrigo-18131|17=100002766-ClOrdID-18132-18t6ay|150=8|39=8|103=1|55=[N/A]|54=1|48=US06051GEN51|22=4|5214=100|151=0|38=100000|14=0|6=0|58=MarketAxess does not recognize the CUSIP/ISIN in one or more legs of the inquiry|75=20210924|10=044|
8=FIX.4.4|9=523|35=8|49=MA|56=T1Kauaiblk4|34=3|52=20210924-09:21:04.384|453=2|448=T1Kauaiblk4|447=C|452=11|448=Kauai blkrock company4|447=D|452=13|37=1328282|11=ClOrdID-18133|66=ListID-041321-rodrigo-18131|17=1328282-18t6d5|150=0|39=0|55=[N/A]|54=1|48=US40434AAB52|22=4|454=1|455=40434AAB5|456=1|460=3|167=CORP|541=20260225|223=0.032|106=HSBC BK USA|225=20130225|873=20130225|107=HSBC  3.200  2/25/26 c22|64=20210928|151=100000|15=USD|120=USD|38=100000|14=0|6=0|60=20210924-09:21:04|126=20210924-09:21:04|75=20210924|20117=8346039|30=MTXX|10=048|
8=FIX.4.4|9=526|35=8|49=MA|56=T1Kauaiblk4|34=4|52=20210924-09:21:04.388|453=2|448=T1Kauaiblk4|447=C|452=11|448=Kauai blkrock company4|447=D|452=13|37=1328283|11=ClOrdID-18134|66=ListID-041321-rodrigo-18131|17=1328283-18t6d6|150=0|39=0|55=[N/A]|54=1|48=US95709TAH32|22=4|454=1|455=95709TAH3|456=1|460=3|167=CORP|541=20420301|223=0.04125|106=EVERGY KANSAS|225=20120301|873=20120301|107=EVRG  4.125  3/1/42 c41|64=20210928|151=130000|15=USD|120=USD|38=130000|14=0|6=0|60=20210924-09:21:04|126=20210924-09:21:04|75=20210924|20117=8346040|30=MTXX|10=156|
8=FIX.4.4|9=520|35=8|49=MA|56=T1Kauaiblk4|34=5|52=20210924-09:21:04.399|453=2|448=T1Kauaiblk4|447=C|452=11|448=Kauai blkrock company4|447=D|452=13|37=1328284|11=ClOrdID-18135|66=ListID-041321-rodrigo-18131|17=1328284-18t6d7|150=0|39=0|55=[N/A]|54=1|48=US427866AZ15|22=4|454=1|455=427866AZ1|456=1|460=3|167=CORP|541=20230515|223=0.03375|106=HERSHEY|225=20180510|873=20180510|107=HSY  3.375  5/15/23 c23|64=20210928|151=250000|15=USD|120=USD|38=250000|14=0|6=0|60=20210924-09:21:04|126=20210924-09:21:04|75=20210924|20117=8346041|30=MTXX|10=002|
8=FIX.4.4|9=527|35=8|49=MA|56=T1Kauaiblk4|34=6|52=20210924-09:21:04.407|453=2|448=T1Kauaiblk4|447=C|452=11|448=Kauai blkrock company4|447=D|452=13|37=1328285|11=ClOrdID-18136|66=ListID-041321-rodrigo-18131|17=1328285-18t6d7|150=0|39=0|55=[N/A]|54=1|48=US29379VAW37|22=4|454=1|455=29379VAW3|456=1|460=3|167=CORP|541=20420815|223=0.0485|106=ENTERPRISE PROD|225=20120215|873=20120215|107=EPD  4.850  8/15/42 c42|64=20210928|151=350000|15=USD|120=USD|38=350000|14=0|6=0|60=20210924-09:21:04|126=20210924-09:21:04|75=20210924|20117=8346042|30=MTXX|10=062|
8=FIX.4.4|9=56|35=0|34=3|49=T1Kauaiblk4|52=20210924-09:22:34.654|56=MA|10=075|
8=FIX.4.4|9=56|35=0|34=7|49=MA|52=20210924-09:22:34.758|56=T1Kauaiblk4|10=084|
8=FIX.4.4|9=56|35=0|34=4|49=T1Kauaiblk4|52=20210924-09:24:05.661|56=MA|10=074|
8=FIX.4.4|9=56|35=0|34=8|49=MA|52=20210924-09:24:05.748|56=T1Kauaiblk4|10=084|
8=FIX.4.4|9=56|35=0|34=5|49=T1Kauaiblk4|52=20210924-09:25:36.659|56=MA|10=087|
8=FIX.4.4|9=56|35=0|34=9|49=MA|52=20210924-09:25:36.744|56=T1Kauaiblk4|10=086|
8=FIX.4.4|9=56|35=0|34=6|49=T1Kauaiblk4|52=20210924-09:27:07.649|56=MA|10=087|
8=FIX.4.4|9=57|35=0|34=10|49=MA|52=20210924-09:27:07.742|56=T1Kauaiblk4|10=125|
8=FIX.4.4|9=713|35=E|34=7|49=T1Kauaiblk4|52=20210924-09:28:12.729|56=MA|66=ListID-041321-rodrigo-18137|394=2|68=5|73=5|11=ClOrdID-18138|22=4|38=100000|44=100|48=US06051GEN51|54=1|55=[N/A/]|63=3|67=1|423=1|29726=100.25|453=1|448=T1Kauaiblk4|447=C|452=11|11=ClOrdID-18139|22=4|38=100000|44=101|48=US40434AAB52|54=1|55=[N/A]|63=3|67=2|29726=101.25|11=ClOrdID-18140|22=4|38=130000|44=102|48=US95709TAH32|54=1|55=[N/A/]|63=3|67=1|29726=102.25|453=1|448=T1Kauaiblk4|447=C|452=11|11=ClOrdID-18141|22=4|38=250000|44=103|48=US427866AZ15|54=1|55=[N/A/]|63=3|67=1|29726=103.25|453=1|448=T1Kauaiblk4|447=C|452=11|11=ClOrdID-18142|22=4|38=350000|44=104|48=US29379VAW37|54=1|55=[N/A/]|63=3|67=1|29726=104.25|453=1|448=T1Kauaiblk4|447=C|452=11|10=238|
8=FIX.4.4|9=383|35=8|49=MA|56=T1Kauaiblk4|34=11|52=20210924-09:28:12.908|453=1|448=T1Kauaiblk4|447=C|452=11|37=100002766-ClOrdID-18138|11=ClOrdID-18138|66=ListID-041321-rodrigo-18137|17=100002766-ClOrdID-18138-192d0m|150=8|39=8|103=1|55=[N/A]|54=1|48=US06051GEN51|22=4|5214=100|151=0|38=100000|14=0|6=0|58=MarketAxess does not recognize the CUSIP/ISIN in one or more legs of the inquiry|75=20210924|10=053|
8=FIX.4.4|9=527|35=8|49=MA|56=T1Kauaiblk4|34=12|52=20210924-09:28:13.000|453=2|448=T1Kauaiblk4|447=C|452=11|448=Kauai blkrock company4|447=D|452=13|37=1328303|11=ClOrdID-18140|66=ListID-041321-rodrigo-18137|17=1328303-192d35|150=0|39=0|55=[N/A]|54=1|48=US95709TAH32|22=4|454=1|455=95709TAH3|456=1|460=3|167=CORP|541=20420301|223=0.04125|106=EVERGY KANSAS|225=20120301|873=20120301|107=EVRG  4.125  3/1/42 c41|64=20210928|151=130000|15=USD|120=USD|38=130000|14=0|6=0|60=20210924-09:28:12|126=20210924-09:28:12|75=20210924|20117=8346063|30=MTXX|10=129|
8=FIX.4.4|9=521|35=8|49=MA|56=T1Kauaiblk4|34=13|52=20210924-09:28:13.011|453=2|448=T1Kauaiblk4|447=C|452=11|448=Kauai blkrock company4|447=D|452=13|37=1328304|11=ClOrdID-18141|66=ListID-041321-rodrigo-18137|17=1328304-192d34|150=0|39=0|55=[N/A]|54=1|48=US427866AZ15|22=4|454=1|455=427866AZ1|456=1|460=3|167=CORP|541=20230515|223=0.03375|106=HERSHEY|225=20180510|873=20180510|107=HSY  3.375  5/15/23 c23|64=20210928|151=250000|15=USD|120=USD|38=250000|14=0|6=0|60=20210924-09:28:12|126=20210924-09:28:12|75=20210924|20117=8346064|30=MTXX|10=229|
8=FIX.4.4|9=528|35=8|49=MA|56=T1Kauaiblk4|34=14|52=20210924-09:28:13.016|453=2|448=T1Kauaiblk4|447=C|452=11|448=Kauai blkrock company4|447=D|452=13|37=1328305|11=ClOrdID-18142|66=ListID-041321-rodrigo-18137|17=1328305-192d36|150=0|39=0|55=[N/A]|54=1|48=US29379VAW37|22=4|454=1|455=29379VAW3|456=1|460=3|167=CORP|541=20420815|223=0.0485|106=ENTERPRISE PROD|225=20120215|873=20120215|107=EPD  4.850  8/15/42 c42|64=20210928|151=350000|15=USD|120=USD|38=350000|14=0|6=0|60=20210924-09:28:12|126=20210924-09:28:12|75=20210924|20117=8346065|30=MTXX|10=050|
8=FIX.4.4|9=524|35=8|49=MA|56=T1Kauaiblk4|34=15|52=20210924-09:28:13.025|453=2|448=T1Kauaiblk4|447=C|452=11|448=Kauai blkrock company4|447=D|452=13|37=1328302|11=ClOrdID-18139|66=ListID-041321-rodrigo-18137|17=1328302-192d33|150=0|39=0|55=[N/A]|54=1|48=US40434AAB52|22=4|454=1|455=40434AAB5|456=1|460=3|167=CORP|541=20260225|223=0.032|106=HSBC BK USA|225=20130225|873=20130225|107=HSBC  3.200  2/25/26 c22|64=20210928|151=100000|15=USD|120=USD|38=100000|14=0|6=0|60=20210924-09:28:12|126=20210924-09:28:12|75=20210924|20117=8346062|30=MTXX|10=035|
8=FIX.4.4|9=56|35=0|34=8|49=T1Kauaiblk4|52=20210924-09:29:43.653|56=MA|10=086|
8=FIX.4.4|9=57|35=0|34=16|49=MA|52=20210924-09:29:43.739|56=T1Kauaiblk4|10=139|
8=FIX.4.4|9=56|35=0|34=9|49=T1Kauaiblk4|52=20210924-09:31:14.657|56=MA|10=082|
8=FIX.4.4|9=57|35=0|34=17|49=MA|52=20210924-09:31:14.751|56=T1Kauaiblk4|10=125|
8=FIX.4.4|9=57|35=0|34=18|49=MA|52=20210924-09:32:44.905|56=T1Kauaiblk4|10=131|
8=FIX.4.4|9=57|35=0|34=10|49=T1Kauaiblk4|52=20210924-09:32:44.931|56=MA|10=122|
8=FIX.4.4|9=57|35=0|34=11|49=T1Kauaiblk4|52=20210924-09:34:15.647|56=MA|10=127|
8=FIX.4.4|9=57|35=0|34=19|49=MA|52=20210924-09:34:15.606|56=T1Kauaiblk4|10=130|
8=FIX.4.4|9=57|35=0|34=12|49=T1Kauaiblk4|52=20210924-09:35:45.648|56=MA|10=133|
8=FIX.4.4|9=57|35=0|34=20|49=MA|52=20210924-09:35:45.746|56=T1Kauaiblk4|10=131|
8=FIX.4.4|9=57|35=0|34=13|49=T1Kauaiblk4|52=20210924-09:37:15.648|56=MA|10=133|
8=FIX.4.4|9=57|35=0|34=21|49=MA|52=20210924-09:37:16.769|56=T1Kauaiblk4|10=137|
8=FIX.4.4|9=57|35=0|34=14|49=T1Kauaiblk4|52=20210924-09:38:45.651|56=MA|10=132|
8=FIX.4.4|9=57|35=0|34=22|49=MA|52=20210924-09:38:47.926|56=T1Kauaiblk4|10=138|
8=FIX.4.4|9=57|35=0|34=15|49=T1Kauaiblk4|52=20210924-09:40:16.647|56=MA|10=129|
8=FIX.4.4|9=57|35=0|34=23|49=MA|52=20210924-09:40:18.666|56=T1Kauaiblk4|10=131|
8=FIX.4.4|9=57|35=0|34=16|49=T1Kauaiblk4|52=20210924-09:41:46.647|56=MA|10=134|
8=FIX.4.4|9=57|35=0|34=24|49=MA|52=20210924-09:41:48.835|56=T1Kauaiblk4|10=134|
8=FIX.4.4|9=57|35=0|34=17|49=T1Kauaiblk4|52=20210924-09:43:16.648|56=MA|10=135|
8=FIX.4.4|9=57|35=0|34=25|49=MA|52=20210924-09:43:19.985|56=T1Kauaiblk4|10=141|
8=FIX.4.4|9=57|35=0|34=18|49=T1Kauaiblk4|52=20210924-09:44:46.648|56=MA|10=140|
8=FIX.4.4|9=57|35=0|34=26|49=MA|52=20210924-09:44:50.899|56=T1Kauaiblk4|10=142|
8=FIX.4.4|9=57|35=0|34=19|49=T1Kauaiblk4|52=20210924-09:46:16.651|56=MA|10=134|
8=FIX.4.4|9=57|35=0|34=27|49=MA|52=20210924-09:46:21.948|56=T1Kauaiblk4|10=138|
8=FIX.4.4|9=714|35=E|34=20|49=T1Kauaiblk4|52=20210924-09:47:21.451|56=MA|66=ListID-041321-rodrigo-18143|394=2|68=5|73=5|11=ClOrdID-18144|22=4|38=100000|44=100|48=US06051GEN51|54=1|55=[N/A/]|63=3|67=1|423=1|29726=100.25|453=1|448=T1Kauaiblk4|447=C|452=11|11=ClOrdID-18145|22=4|38=100000|44=101|48=US40434AAB52|54=1|55=[N/A]|63=3|67=2|29726=101.25|11=ClOrdID-18146|22=4|38=130000|44=102|48=US95709TAH32|54=1|55=[N/A/]|63=3|67=1|29726=102.25|453=1|448=T1Kauaiblk4|447=C|452=11|11=ClOrdID-18147|22=4|38=250000|44=103|48=US427866AZ15|54=1|55=[N/A/]|63=3|67=1|29726=103.25|453=1|448=T1Kauaiblk4|447=C|452=11|11=ClOrdID-18148|22=4|38=350000|44=104|48=US29379VAW37|54=1|55=[N/A/]|63=3|67=1|29726=104.25|453=1|448=T1Kauaiblk4|447=C|452=11|10=028|
8=FIX.4.4|9=383|35=8|49=MA|56=T1Kauaiblk4|34=28|52=20210924-09:47:21.651|453=1|448=T1Kauaiblk4|447=C|452=11|37=100002766-ClOrdID-18144|11=ClOrdID-18144|66=ListID-041321-rodrigo-18143|17=100002766-ClOrdID-18144-19qze4|150=8|39=8|103=1|55=[N/A]|54=1|48=US06051GEN51|22=4|5214=100|151=0|38=100000|14=0|6=0|58=MarketAxess does not recognize the CUSIP/ISIN in one or more legs of the inquiry|75=20210924|10=126|
8=FIX.4.4|9=524|35=8|49=MA|56=T1Kauaiblk4|34=29|52=20210924-09:47:21.742|453=2|448=T1Kauaiblk4|447=C|452=11|448=Kauai blkrock company4|447=D|452=13|37=1328354|11=ClOrdID-18145|66=ListID-041321-rodrigo-18143|17=1328354-19qzgk|150=0|39=0|55=[N/A]|54=1|48=US40434AAB52|22=4|454=1|455=40434AAB5|456=1|460=3|167=CORP|541=20260225|223=0.032|106=HSBC BK USA|225=20130225|873=20130225|107=HSBC  3.200  2/25/26 c22|64=20210928|151=100000|15=USD|120=USD|38=100000|14=0|6=0|60=20210924-09:47:21|126=20210924-09:47:21|75=20210924|20117=8346144|30=MTXX|10=250|
8=FIX.4.4|9=521|35=8|49=MA|56=T1Kauaiblk4|34=30|52=20210924-09:47:21.747|453=2|448=T1Kauaiblk4|447=C|452=11|448=Kauai blkrock company4|447=D|452=13|37=1328356|11=ClOrdID-18147|66=ListID-041321-rodrigo-18143|17=1328356-19qzgl|150=0|39=0|55=[N/A]|54=1|48=US427866AZ15|22=4|454=1|455=427866AZ1|456=1|460=3|167=CORP|541=20230515|223=0.03375|106=HERSHEY|225=20180510|873=20180510|107=HSY  3.375  5/15/23 c23|64=20210928|151=250000|15=USD|120=USD|38=250000|14=0|6=0|60=20210924-09:47:21|126=20210924-09:47:21|75=20210924|20117=8346146|30=MTXX|10=201|
8=FIX.4.4|9=528|35=8|49=MA|56=T1Kauaiblk4|34=31|52=20210924-09:47:21.752|453=2|448=T1Kauaiblk4|447=C|452=11|448=Kauai blkrock company4|447=D|452=13|37=1328357|11=ClOrdID-18148|66=ListID-041321-rodrigo-18143|17=1328357-19qzgn|150=0|39=0|55=[N/A]|54=1|48=US29379VAW37|22=4|454=1|455=29379VAW3|456=1|460=3|167=CORP|541=20420815|223=0.0485|106=ENTERPRISE PROD|225=20120215|873=20120215|107=EPD  4.850  8/15/42 c42|64=20210928|151=350000|15=USD|120=USD|38=350000|14=0|6=0|60=20210924-09:47:21|126=20210924-09:47:21|75=20210924|20117=8346147|30=MTXX|10=013|
8=FIX.4.4|9=527|35=8|49=MA|56=T1Kauaiblk4|34=32|52=20210924-09:47:21.761|453=2|448=T1Kauaiblk4|447=C|452=11|448=Kauai blkrock company4|447=D|452=13|37=1328355|11=ClOrdID-18146|66=ListID-041321-rodrigo-18143|17=1328355-19qzgm|150=0|39=0|55=[N/A]|54=1|48=US95709TAH32|22=4|454=1|455=95709TAH3|456=1|460=3|167=CORP|541=20420301|223=0.04125|106=EVERGY KANSAS|225=20120301|873=20120301|107=EVRG  4.125  3/1/42 c41|64=20210928|151=130000|15=USD|120=USD|38=130000|14=0|6=0|60=20210924-09:47:21|126=20210924-09:47:21|75=20210924|20117=8346145|30=MTXX|10=102|
8=FIX.4.4|9=57|35=0|34=21|49=T1Kauaiblk4|52=20210924-09:48:51.653|56=MA|10=130|
8=FIX.4.4|9=57|35=0|34=33|49=MA|52=20210924-09:48:52.798|56=T1Kauaiblk4|10=144|
8=FIX.4.4|9=714|35=E|34=22|49=T1Kauaiblk4|52=20210924-09:49:14.970|56=MA|66=ListID-041321-rodrigo-18149|394=2|68=5|73=5|11=ClOrdID-18150|22=4|38=100000|44=100|48=US06051GEN51|54=1|55=[N/A/]|63=3|67=1|423=1|29726=100.25|453=1|448=T1Kauaiblk4|447=C|452=11|11=ClOrdID-18151|22=4|38=100000|44=101|48=US40434AAB52|54=1|55=[N/A]|63=3|67=2|29726=101.25|11=ClOrdID-18152|22=4|38=130000|44=102|48=US95709TAH32|54=1|55=[N/A/]|63=3|67=1|29726=102.25|453=1|448=T1Kauaiblk4|447=C|452=11|11=ClOrdID-18153|22=4|38=250000|44=103|48=US427866AZ15|54=1|55=[N/A/]|63=3|67=1|29726=103.25|453=1|448=T1Kauaiblk4|447=C|452=11|11=ClOrdID-18154|22=4|38=350000|44=104|48=US29379VAW37|54=1|55=[N/A/]|63=3|67=1|29726=104.25|453=1|448=T1Kauaiblk4|447=C|452=11|10=031|
8=FIX.4.4|9=383|35=8|49=MA|56=T1Kauaiblk4|34=34|52=20210924-09:49:15.188|453=1|448=T1Kauaiblk4|447=C|452=11|37=100002766-ClOrdID-18150|11=ClOrdID-18150|66=ListID-041321-rodrigo-18149|17=100002766-ClOrdID-18150-19tezy|150=8|39=8|103=1|55=[N/A]|54=1|48=US06051GEN51|22=4|5214=100|151=0|38=100000|14=0|6=0|58=MarketAxess does not recognize the CUSIP/ISIN in one or more legs of the inquiry|75=20210924|10=202|
8=FIX.4.4|9=527|35=8|49=MA|56=T1Kauaiblk4|34=35|52=20210924-09:49:15.284|453=2|448=T1Kauaiblk4|447=C|452=11|448=Kauai blkrock company4|447=D|452=13|37=1328362|11=ClOrdID-18152|66=ListID-041321-rodrigo-18149|17=1328362-19tf2g|150=0|39=0|55=[N/A]|54=1|48=US95709TAH32|22=4|454=1|455=95709TAH3|456=1|460=3|167=CORP|541=20420301|223=0.04125|106=EVERGY KANSAS|225=20120301|873=20120301|107=EVRG  4.125  3/1/42 c41|64=20210928|151=130000|15=USD|120=USD|38=130000|14=0|6=0|60=20210924-09:49:15|126=20210924-09:49:15|75=20210924|20117=8346159|30=MTXX|10=048|
8=FIX.4.4|9=528|35=8|49=MA|56=T1Kauaiblk4|34=36|52=20210924-09:49:15.288|453=2|448=T1Kauaiblk4|447=C|452=11|448=Kauai blkrock company4|447=D|452=13|37=1328364|11=ClOrdID-18154|66=ListID-041321-rodrigo-18149|17=1328364-19tf2h|150=0|39=0|55=[N/A]|54=1|48=US29379VAW37|22=4|454=1|455=29379VAW3|456=1|460=3|167=CORP|541=20420815|223=0.0485|106=ENTERPRISE PROD|225=20120215|873=20120215|107=EPD  4.850  8/15/42 c42|64=20210928|151=350000|15=USD|120=USD|38=350000|14=0|6=0|60=20210924-09:49:15|126=20210924-09:49:15|75=20210924|20117=8346161|30=MTXX|10=212|
8=FIX.4.4|9=521|35=8|49=MA|56=T1Kauaiblk4|34=37|52=20210924-09:49:15.296|453=2|448=T1Kauaiblk4|447=C|452=11|448=Kauai blkrock company4|447=D|452=13|37=1328363|11=ClOrdID-18153|66=ListID-041321-rodrigo-18149|17=1328363-19tf2i|150=0|39=0|55=[N/A]|54=1|48=US427866AZ15|22=4|454=1|455=427866AZ1|456=1|460=3|167=CORP|541=20230515|223=0.03375|106=HERSHEY|225=20180510|873=20180510|107=HSY  3.375  5/15/23 c23|64=20210928|151=250000|15=USD|120=USD|38=250000|14=0|6=0|60=20210924-09:49:15|126=20210924-09:49:15|75=20210924|20117=8346160|30=MTXX|10=144|
8=FIX.4.4|9=524|35=8|49=MA|56=T1Kauaiblk4|34=38|52=20210924-09:49:15.305|453=2|448=T1Kauaiblk4|447=C|452=11|448=Kauai blkrock company4|447=D|452=13|37=1328361|11=ClOrdID-18151|66=ListID-041321-rodrigo-18149|17=1328361-19tf2f|150=0|39=0|55=[N/A]|54=1|48=US40434AAB52|22=4|454=1|455=40434AAB5|456=1|460=3|167=CORP|541=20260225|223=0.032|106=HSBC BK USA|225=20130225|873=20130225|107=HSBC  3.200  2/25/26 c22|64=20210928|151=100000|15=USD|120=USD|38=100000|14=0|6=0|60=20210924-09:49:15|126=20210924-09:49:15|75=20210924|20117=8346158|30=MTXX|10=189|
8=FIX.4.4|9=57|35=0|34=23|49=T1Kauaiblk4|52=20210924-09:50:45.657|56=MA|10=132|
8=FIX.4.4|9=57|35=0|34=39|49=MA|52=20210924-09:50:45.749|56=T1Kauaiblk4|10=141|
8=FIX.4.4|9=57|35=0|34=24|49=T1Kauaiblk4|52=20210924-09:52:15.659|56=MA|10=134|
8=FIX.4.4|9=57|35=0|34=40|49=MA|52=20210924-09:52:15.752|56=T1Kauaiblk4|10=126|
8=FIX.4.4|9=57|35=0|34=25|49=T1Kauaiblk4|52=20210924-09:53:45.661|56=MA|10=132|
8=FIX.4.4|9=57|35=0|34=41|49=MA|52=20210924-09:53:45.752|56=T1Kauaiblk4|10=131|
8=FIX.4.4|9=57|35=0|34=26|49=T1Kauaiblk4|52=20210924-09:55:15.661|56=MA|10=132|
8=FIX.4.4|9=57|35=0|34=42|49=MA|52=20210924-09:55:15.754|56=T1Kauaiblk4|10=133|
8=FIX.4.4|9=57|35=0|34=27|49=T1Kauaiblk4|52=20210924-09:56:45.664|56=MA|10=140|
8=FIX.4.4|9=57|35=0|34=43|49=MA|52=20210924-09:56:45.784|56=T1Kauaiblk4|10=141|
8=FIX.4.4|9=57|35=0|34=28|49=T1Kauaiblk4|52=20210924-09:58:15.666|56=MA|10=142|
8=FIX.4.4|9=57|35=0|34=44|49=MA|52=20210924-09:58:16.036|56=T1Kauaiblk4|10=132|
8=FIX.4.4|9=57|35=0|34=45|49=MA|52=20210924-09:59:46.061|56=T1Kauaiblk4|10=135|
8=FIX.4.4|9=57|35=0|34=29|49=T1Kauaiblk4|52=20210924-09:59:46.065|56=MA|10=141|
8=FIX.4.4|9=57|35=0|34=30|49=T1Kauaiblk4|52=20210924-10:01:16.668|56=MA|10=118|
8=FIX.4.4|9=57|35=0|34=46|49=MA|52=20210924-10:01:17.157|56=T1Kauaiblk4|10=119|
8=FIX.4.4|9=57|35=0|34=31|49=T1Kauaiblk4|52=20210924-10:02:46.668|56=MA|10=123|
8=FIX.4.4|9=57|35=0|34=47|49=MA|52=20210924-10:02:47.680|56=T1Kauaiblk4|10=125|
8=FIX.4.4|9=57|35=0|34=32|49=T1Kauaiblk4|52=20210924-10:04:16.671|56=MA|10=117|
8=FIX.4.4|9=57|35=0|34=48|49=MA|52=20210924-10:04:18.507|56=T1Kauaiblk4|10=124|
8=FIX.4.4|9=57|35=0|34=33|49=T1Kauaiblk4|52=20210924-10:05:46.681|56=MA|10=123|
8=FIX.4.4|9=57|35=0|34=49|49=MA|52=20210924-10:05:48.716|56=T1Kauaiblk4|10=131|
8=FIX.4.4|9=57|35=0|34=34|49=T1Kauaiblk4|52=20210924-10:07:16.685|56=MA|10=127|
8=FIX.4.4|9=57|35=0|34=50|49=MA|52=20210924-10:07:27.456|56=T1Kauaiblk4|10=123|
8=FIX.4.4|9=57|35=0|34=35|49=T1Kauaiblk4|52=20210924-10:08:46.685|56=MA|10=132|
8=FIX.4.4|9=57|35=0|34=51|49=MA|52=20210924-10:08:57.627|56=T1Kauaiblk4|10=128|
8=FIX.4.4|9=714|35=E|34=36|49=T1Kauaiblk4|52=20210924-10:09:47.035|56=MA|66=ListID-041321-rodrigo-18155|394=2|68=5|73=5|11=ClOrdID-18156|22=4|38=100000|44=100|48=US06051GEN51|54=1|55=[N/A/]|63=3|67=1|423=1|29726=100.25|453=1|448=T1Kauaiblk4|447=C|452=11|11=ClOrdID-18157|22=4|38=100000|44=101|48=US40434AAB52|54=1|55=[N/A]|63=3|67=2|29726=101.25|11=ClOrdID-18158|22=4|38=130000|44=102|48=US95709TAH32|54=1|55=[N/A/]|63=3|67=1|29726=102.25|453=1|448=T1Kauaiblk4|447=C|452=11|11=ClOrdID-18159|22=4|38=250000|44=103|48=US427866AZ15|54=1|55=[N/A/]|63=3|67=1|29726=103.25|453=1|448=T1Kauaiblk4|447=C|452=11|11=ClOrdID-18160|22=4|38=350000|44=104|48=US29379VAW37|54=1|55=[N/A/]|63=3|67=1|29726=104.25|453=1|448=T1Kauaiblk4|447=C|452=11|10=040|
8=FIX.4.4|9=383|35=8|49=MA|56=T1Kauaiblk4|34=52|52=20210924-10:09:51.649|453=1|448=T1Kauaiblk4|447=C|452=11|37=100002766-ClOrdID-18156|11=ClOrdID-18156|66=ListID-041321-rodrigo-18155|17=100002766-ClOrdID-18156-1ajx22|150=8|39=8|103=1|55=[N/A]|54=1|48=US06051GEN51|22=4|5214=100|151=0|38=100000|14=0|6=0|58=MarketAxess does not recognize the CUSIP/ISIN in one or more legs of the inquiry|75=20210924|10=113|
8=FIX.4.4|9=524|35=8|49=MA|56=T1Kauaiblk4|34=53|52=20210924-10:09:51.949|453=2|448=T1Kauaiblk4|447=C|452=11|448=Kauai blkrock company4|447=D|452=13|37=1328729|11=ClOrdID-18157|66=ListID-041321-rodrigo-18155|17=1328729-1ajx4s|150=0|39=0|55=[N/A]|54=1|48=US40434AAB52|22=4|454=1|455=40434AAB5|456=1|460=3|167=CORP|541=20260225|223=0.032|106=HSBC BK USA|225=20130225|873=20130225|107=HSBC  3.200  2/25/26 c22|64=20210928|151=100000|15=USD|120=USD|38=100000|14=0|6=0|60=20210924-10:09:51|126=20210924-10:09:51|75=20210924|20117=8346574|30=MTXX|10=248|
8=FIX.4.4|9=521|35=8|49=MA|56=T1Kauaiblk4|34=54|52=20210924-10:09:51.957|453=2|448=T1Kauaiblk4|447=C|452=11|448=Kauai blkrock company4|447=D|452=13|37=1328731|11=ClOrdID-18159|66=ListID-041321-rodrigo-18155|17=1328731-1ajx4u|150=0|39=0|55=[N/A]|54=1|48=US427866AZ15|22=4|454=1|455=427866AZ1|456=1|460=3|167=CORP|541=20230515|223=0.03375|106=HERSHEY|225=20180510|873=20180510|107=HSY  3.375  5/15/23 c23|64=20210928|151=250000|15=USD|120=USD|38=250000|14=0|6=0|60=20210924-10:09:51|126=20210924-10:09:51|75=20210924|20117=8346576|30=MTXX|10=185|
8=FIX.4.4|9=528|35=8|49=MA|56=T1Kauaiblk4|34=55|52=20210924-10:09:51.966|453=2|448=T1Kauaiblk4|447=C|452=11|448=Kauai blkrock company4|447=D|452=13|37=1328732|11=ClOrdID-18160|66=ListID-041321-rodrigo-18155|17=1328732-1ajx4t|150=0|39=0|55=[N/A]|54=1|48=US29379VAW37|22=4|454=1|455=29379VAW3|456=1|460=3|167=CORP|541=20420815|223=0.0485|106=ENTERPRISE PROD|225=20120215|873=20120215|107=EPD  4.850  8/15/42 c42|64=20210928|151=350000|15=USD|120=USD|38=350000|14=0|6=0|60=20210924-10:09:51|126=20210924-10:09:51|75=20210924|20117=8346577|30=MTXX|10=245|
8=FIX.4.4|9=527|35=8|49=MA|56=T1Kauaiblk4|34=56|52=20210924-10:09:51.974|453=2|448=T1Kauaiblk4|447=C|452=11|448=Kauai blkrock company4|447=D|452=13|37=1328730|11=ClOrdID-18158|66=ListID-041321-rodrigo-18155|17=1328730-1ajx4s|150=0|39=0|55=[N/A]|54=1|48=US95709TAH32|22=4|454=1|455=95709TAH3|456=1|460=3|167=CORP|541=20420301|223=0.04125|106=EVERGY KANSAS|225=20120301|873=20120301|107=EVRG  4.125  3/1/42 c41|64=20210928|151=130000|15=USD|120=USD|38=130000|14=0|6=0|60=20210924-10:09:51|126=20210924-10:09:51|75=20210924|20117=8346575|30=MTXX|10=086|
8=FIX.4.4|9=57|35=0|34=37|49=T1Kauaiblk4|52=20210924-10:11:17.681|56=MA|10=122|
8=FIX.4.4|9=57|35=0|34=57|49=MA|52=20210924-10:11:25.703|56=T1Kauaiblk4|10=118|
8=FIX.4.4|9=57|35=0|34=38|49=T1Kauaiblk4|52=20210924-10:12:47.684|56=MA|10=130|
8=FIX.4.4|9=57|35=0|34=58|49=MA|52=20210924-10:12:55.847|56=T1Kauaiblk4|10=132|
8=FIX.4.4|9=57|35=0|34=39|49=T1Kauaiblk4|52=20210924-10:14:17.687|56=MA|10=133|
8=FIX.4.4|9=57|35=0|34=59|49=MA|52=20210924-10:14:26.812|56=T1Kauaiblk4|10=125|
8=FIX.4.4|9=714|35=E|34=40|49=T1Kauaiblk4|52=20210924-10:15:36.498|56=MA|66=ListID-041321-rodrigo-18161|394=2|68=5|73=5|11=ClOrdID-18162|22=4|38=100000|44=100|48=US06051GEN51|54=1|55=[N/A/]|63=3|67=1|423=1|29726=100.25|453=1|448=T1Kauaiblk4|447=C|452=11|11=ClOrdID-18163|22=4|38=100000|44=101|48=US40434AAB52|54=1|55=[N/A]|63=3|67=2|29726=101.25|11=ClOrdID-18164|22=4|38=130000|44=102|48=US95709TAH32|54=1|55=[N/A/]|63=3|67=1|29726=102.25|453=1|448=T1Kauaiblk4|447=C|452=11|11=ClOrdID-18165|22=4|38=250000|44=103|48=US427866AZ15|54=1|55=[N/A/]|63=3|67=1|29726=103.25|453=1|448=T1Kauaiblk4|447=C|452=11|11=ClOrdID-18166|22=4|38=350000|44=104|48=US29379VAW37|54=1|55=[N/A/]|63=3|67=1|29726=104.25|453=1|448=T1Kauaiblk4|447=C|452=11|10=034|
8=FIX.4.4|9=383|35=8|49=MA|56=T1Kauaiblk4|34=60|52=20210924-10:15:36.659|453=1|448=T1Kauaiblk4|447=C|452=11|37=100002766-ClOrdID-18162|11=ClOrdID-18162|66=ListID-041321-rodrigo-18161|17=100002766-ClOrdID-18162-1arb9p|150=8|39=8|103=1|55=[N/A]|54=1|48=US06051GEN51|22=4|5214=100|151=0|38=100000|14=0|6=0|58=MarketAxess does not recognize the CUSIP/ISIN in one or more legs of the inquiry|75=20210924|10=156|
8=FIX.4.4|9=524|35=8|49=MA|56=T1Kauaiblk4|34=61|52=20210924-10:15:36.730|453=2|448=T1Kauaiblk4|447=C|452=11|448=Kauai blkrock company4|447=D|452=13|37=1328737|11=ClOrdID-18163|66=ListID-041321-rodrigo-18161|17=1328737-1arbbn|150=0|39=0|55=[N/A]|54=1|48=US40434AAB52|22=4|454=1|455=40434AAB5|456=1|460=3|167=CORP|541=20260225|223=0.032|106=HSBC BK USA|225=20130225|873=20130225|107=HSBC  3.200  2/25/26 c22|64=20210928|151=100000|15=USD|120=USD|38=100000|14=0|6=0|60=20210924-10:15:36|126=20210924-10:15:36|75=20210924|20117=8346587|30=MTXX|10=002|
8=FIX.4.4|9=527|35=8|49=MA|56=T1Kauaiblk4|34=62|52=20210924-10:15:36.735|453=2|448=T1Kauaiblk4|447=C|452=11|448=Kauai blkrock company4|447=D|452=13|37=1328738|11=ClOrdID-18164|66=ListID-041321-rodrigo-18161|17=1328738-1arbbo|150=0|39=0|55=[N/A]|54=1|48=US95709TAH32|22=4|454=1|455=95709TAH3|456=1|460=3|167=CORP|541=20420301|223=0.04125|106=EVERGY KANSAS|225=20120301|873=20120301|107=EVRG  4.125  3/1/42 c41|64=20210928|151=130000|15=USD|120=USD|38=130000|14=0|6=0|60=20210924-10:15:36|126=20210924-10:15:36|75=20210924|20117=8346588|30=MTXX|10=120|
8=FIX.4.4|9=521|35=8|49=MA|56=T1Kauaiblk4|34=63|52=20210924-10:15:36.739|453=2|448=T1Kauaiblk4|447=C|452=11|448=Kauai blkrock company4|447=D|452=13|37=1328739|11=ClOrdID-18165|66=ListID-041321-rodrigo-18161|17=1328739-1arbbp|150=0|39=0|55=[N/A]|54=1|48=US427866AZ15|22=4|454=1|455=427866AZ1|456=1|460=3|167=CORP|541=20230515|223=0.03375|106=HERSHEY|225=20180510|873=20180510|107=HSY  3.375  5/15/23 c23|64=20210928|151=250000|15=USD|120=USD|38=250000|14=0|6=0|60=20210924-10:15:36|126=20210924-10:15:36|75=20210924|20117=8346589|30=MTXX|10=224|
8=FIX.4.4|9=528|35=8|49=MA|56=T1Kauaiblk4|34=64|52=20210924-10:15:36.748|453=2|448=T1Kauaiblk4|447=C|452=11|448=Kauai blkrock company4|447=D|452=13|37=1328740|11=ClOrdID-18166|66=ListID-041321-rodrigo-18161|17=1328740-1arbbq|150=0|39=0|55=[N/A]|54=1|48=US29379VAW37|22=4|454=1|455=29379VAW3|456=1|460=3|167=CORP|541=20420815|223=0.0485|106=ENTERPRISE PROD|225=20120215|873=20120215|107=EPD  4.850  8/15/42 c42|64=20210928|151=350000|15=USD|120=USD|38=350000|14=0|6=0|60=20210924-10:15:36|126=20210924-10:15:36|75=20210924|20117=8346590|30=MTXX|10=012|
8=FIX.4.4|9=57|35=0|34=41|49=T1Kauaiblk4|52=20210924-10:17:06.689|56=MA|10=129|
8=FIX.4.4|9=57|35=0|34=65|49=MA|52=20210924-10:17:06.766|56=T1Kauaiblk4|10=131|
8=FIX.4.4|9=57|35=0|34=42|49=T1Kauaiblk4|52=20210924-10:18:37.691|56=MA|10=128|
8=FIX.4.4|9=57|35=0|34=66|49=MA|52=20210924-10:18:37.739|56=T1Kauaiblk4|10=137|
8=FIX.4.4|9=714|35=E|34=43|49=T1Kauaiblk4|52=20210924-10:18:41.727|56=MA|66=ListID-041321-rodrigo-18167|394=2|68=5|73=5|11=ClOrdID-18168|22=4|38=100000|44=100|48=US06051GEN51|54=1|55=[N/A/]|63=3|67=1|423=1|29726=100.25|453=1|448=T1Kauaiblk4|447=C|452=11|11=ClOrdID-18169|22=4|38=100000|44=101|48=US40434AAB52|54=1|55=[N/A]|63=3|67=2|29726=101.25|11=ClOrdID-18170|22=4|38=130000|44=102|48=US95709TAH32|54=1|55=[N/A/]|63=3|67=1|29726=102.25|453=1|448=T1Kauaiblk4|447=C|452=11|11=ClOrdID-18171|22=4|38=250000|44=103|48=US427866AZ15|54=1|55=[N/A/]|63=3|67=1|29726=103.25|453=1|448=T1Kauaiblk4|447=C|452=11|11=ClOrdID-18172|22=4|38=350000|44=104|48=US29379VAW37|54=1|55=[N/A/]|63=3|67=1|29726=104.25|453=1|448=T1Kauaiblk4|447=C|452=11|10=040|
8=FIX.4.4|9=383|35=8|49=MA|56=T1Kauaiblk4|34=67|52=20210924-10:18:41.911|453=1|448=T1Kauaiblk4|447=C|452=11|37=100002766-ClOrdID-18168|11=ClOrdID-18168|66=ListID-041321-rodrigo-18167|17=100002766-ClOrdID-18168-1ava7j|150=8|39=8|103=1|55=[N/A]|54=1|48=US06051GEN51|22=4|5214=100|151=0|38=100000|14=0|6=0|58=MarketAxess does not recognize the CUSIP/ISIN in one or more legs of the inquiry|75=20210924|10=172|
8=FIX.4.4|9=528|35=8|49=MA|56=T1Kauaiblk4|34=68|52=20210924-10:18:41.996|453=2|448=T1Kauaiblk4|447=C|452=11|448=Kauai blkrock company4|447=D|452=13|37=1328747|11=ClOrdID-18172|66=ListID-041321-rodrigo-18167|17=1328747-1ava9x|150=0|39=0|55=[N/A]|54=1|48=US29379VAW37|22=4|454=1|455=29379VAW3|456=1|460=3|167=CORP|541=20420815|223=0.0485|106=ENTERPRISE PROD|225=20120215|873=20120215|107=EPD  4.850  8/15/42 c42|64=20210928|151=350000|15=USD|120=USD|38=350000|14=0|6=0|60=20210924-10:18:41|126=20210924-10:18:41|75=20210924|20117=8346595|30=MTXX|10=009|
8=FIX.4.4|9=524|35=8|49=MA|56=T1Kauaiblk4|34=69|52=20210924-10:18:42.009|453=2|448=T1Kauaiblk4|447=C|452=11|448=Kauai blkrock company4|447=D|452=13|37=1328744|11=ClOrdID-18169|66=ListID-041321-rodrigo-18167|17=1328744-1ava9x|150=0|39=0|55=[N/A]|54=1|48=US40434AAB52|22=4|454=1|455=40434AAB5|456=1|460=3|167=CORP|541=20260225|223=0.032|106=HSBC BK USA|225=20130225|873=20130225|107=HSBC  3.200  2/25/26 c22|64=20210928|151=100000|15=USD|120=USD|38=100000|14=0|6=0|60=20210924-10:18:41|126=20210924-10:18:41|75=20210924|20117=8346592|30=MTXX|10=239|
8=FIX.4.4|9=527|35=8|49=MA|56=T1Kauaiblk4|34=70|52=20210924-10:18:42.020|453=2|448=T1Kauaiblk4|447=C|452=11|448=Kauai blkrock company4|447=D|452=13|37=1328745|11=ClOrdID-18170|66=ListID-041321-rodrigo-18167|17=1328745-1ava9w|150=0|39=0|55=[N/A]|54=1|48=US95709TAH32|22=4|454=1|455=95709TAH3|456=1|460=3|167=CORP|541=20420301|223=0.04125|106=EVERGY KANSAS|225=20120301|873=20120301|107=EVRG  4.125  3/1/42 c41|64=20210928|151=130000|15=USD|120=USD|38=130000|14=0|6=0|60=20210924-10:18:41|126=20210924-10:18:41|75=20210924|20117=8346593|30=MTXX|10=069|
8=FIX.4.4|9=521|35=8|49=MA|56=T1Kauaiblk4|34=71|52=20210924-10:18:42.028|453=2|448=T1Kauaiblk4|447=C|452=11|448=Kauai blkrock company4|447=D|452=13|37=1328746|11=ClOrdID-18171|66=ListID-041321-rodrigo-18167|17=1328746-1ava9v|150=0|39=0|55=[N/A]|54=1|48=US427866AZ15|22=4|454=1|455=427866AZ1|456=1|460=3|167=CORP|541=20230515|223=0.03375|106=HERSHEY|225=20180510|873=20180510|107=HSY  3.375  5/15/23 c23|64=20210928|151=250000|15=USD|120=USD|38=250000|14=0|6=0|60=20210924-10:18:41|126=20210924-10:18:41|75=20210924|20117=8346594|30=MTXX|10=175|
8=FIX.4.4|9=57|35=0|34=44|49=T1Kauaiblk4|52=20210924-10:20:12.691|56=MA|10=116|
8=FIX.4.4|9=57|35=0|34=72|49=MA|52=20210924-10:20:12.685|56=T1Kauaiblk4|10=120|
8=FIX.4.4|9=57|35=0|34=45|49=T1Kauaiblk4|52=20210924-10:21:43.684|56=MA|10=124|
8=FIX.4.4|9=57|35=0|34=73|49=MA|52=20210924-10:21:43.760|56=T1Kauaiblk4|10=120|
8=FIX.4.4|9=57|35=0|34=46|49=T1Kauaiblk4|52=20210924-10:23:13.691|56=MA|10=122|
8=FIX.4.4|9=57|35=0|34=74|49=MA|52=20210924-10:23:13.798|56=T1Kauaiblk4|10=131|
8=FIX.4.4|9=57|35=0|34=47|49=T1Kauaiblk4|52=20210924-10:24:44.696|56=MA|10=133|
8=FIX.4.4|9=57|35=0|34=75|49=MA|52=20210924-10:24:44.774|56=T1Kauaiblk4|10=131|
8=FIX.4.4|9=57|35=0|34=76|49=MA|52=20210924-10:26:14.830|56=T1Kauaiblk4|10=124|
8=FIX.4.4|9=57|35=0|34=48|49=T1Kauaiblk4|52=20210924-10:26:14.857|56=MA|10=132|
8=FIX.4.4|9=57|35=0|34=49|49=T1Kauaiblk4|52=20210924-10:27:45.697|56=MA|10=140|
8=FIX.4.4|9=57|35=0|34=77|49=MA|52=20210924-10:27:45.793|56=T1Kauaiblk4|10=138|
8=FIX.4.4|9=714|35=E|34=50|49=T1Kauaiblk4|52=20210924-10:29:11.865|56=MA|66=ListID-041321-rodrigo-18173|394=2|68=5|73=5|11=ClOrdID-18174|22=4|38=100000|44=100|48=US06051GEN51|54=1|55=[N/A/]|63=3|67=1|423=1|29726=100.25|453=1|448=T1Kauaiblk4|447=C|452=11|11=ClOrdID-18175|22=4|38=100000|44=101|48=US40434AAB52|54=1|55=[N/A]|63=3|67=2|29726=101.25|11=ClOrdID-18176|22=4|38=130000|44=102|48=US95709TAH32|54=1|55=[N/A/]|63=3|67=1|29726=102.25|453=1|448=T1Kauaiblk4|447=C|452=11|11=ClOrdID-18177|22=4|38=250000|44=103|48=US427866AZ15|54=1|55=[N/A/]|63=3|67=1|29726=103.25|453=1|448=T1Kauaiblk4|447=C|452=11|11=ClOrdID-18178|22=4|38=350000|44=104|48=US29379VAW37|54=1|55=[N/A/]|63=3|67=1|29726=104.25|453=1|448=T1Kauaiblk4|447=C|452=11|10=049|
8=FIX.4.4|9=383|35=8|49=MA|56=T1Kauaiblk4|34=78|52=20210924-10:29:12.024|453=1|448=T1Kauaiblk4|447=C|452=11|37=100002766-ClOrdID-18174|11=ClOrdID-18174|66=ListID-041321-rodrigo-18173|17=100002766-ClOrdID-18174-1b8ser|150=8|39=8|103=1|55=[N/A]|54=1|48=US06051GEN51|22=4|5214=100|151=0|38=100000|14=0|6=0|58=MarketAxess does not recognize the CUSIP/ISIN in one or more legs of the inquiry|75=20210924|10=168|
8=FIX.4.4|9=524|35=8|49=MA|56=T1Kauaiblk4|34=79|52=20210924-10:29:12.108|453=2|448=T1Kauaiblk4|447=C|452=11|448=Kauai blkrock company4|447=D|452=13|37=1328766|11=ClOrdID-18175|66=ListID-041321-rodrigo-18173|17=1328766-1b8sgz|150=0|39=0|55=[N/A]|54=1|48=US40434AAB52|22=4|454=1|455=40434AAB5|456=1|460=3|167=CORP|541=20260225|223=0.032|106=HSBC BK USA|225=20130225|873=20130225|107=HSBC  3.200  2/25/26 c22|64=20210928|151=100000|15=USD|120=USD|38=100000|14=0|6=0|60=20210924-10:29:12|126=20210924-10:29:12|75=20210924|20117=8346628|30=MTXX|10=246|
8=FIX.4.4|9=521|35=8|49=MA|56=T1Kauaiblk4|34=80|52=20210924-10:29:12.114|453=2|448=T1Kauaiblk4|447=C|452=11|448=Kauai blkrock company4|447=D|452=13|37=1328768|11=ClOrdID-18177|66=ListID-041321-rodrigo-18173|17=1328768-1b8sh0|150=0|39=0|55=[N/A]|54=1|48=US427866AZ15|22=4|454=1|455=427866AZ1|456=1|460=3|167=CORP|541=20230515|223=0.03375|106=HERSHEY|225=20180510|873=20180510|107=HSY  3.375  5/15/23 c23|64=20210928|151=250000|15=USD|120=USD|38=250000|14=0|6=0|60=20210924-10:29:12|126=20210924-10:29:12|75=20210924|20117=8346630|30=MTXX|10=106|
8=FIX.4.4|9=527|35=8|49=MA|56=T1Kauaiblk4|34=81|52=20210924-10:29:12.121|453=2|448=T1Kauaiblk4|447=C|452=11|448=Kauai blkrock company4|447=D|452=13|37=1328767|11=ClOrdID-18176|66=ListID-041321-rodrigo-18173|17=1328767-1b8sh1|150=0|39=0|55=[N/A]|54=1|48=US95709TAH32|22=4|454=1|455=95709TAH3|456=1|460=3|167=CORP|541=20420301|223=0.04125|106=EVERGY KANSAS|225=20120301|873=20120301|107=EVRG  4.125  3/1/42 c41|64=20210928|151=130000|15=USD|120=USD|38=130000|14=0|6=0|60=20210924-10:29:12|126=20210924-10:29:12|75=20210924|20117=8346629|30=MTXX|10=017|
8=FIX.4.4|9=528|35=8|49=MA|56=T1Kauaiblk4|34=82|52=20210924-10:29:12.130|453=2|448=T1Kauaiblk4|447=C|452=11|448=Kauai blkrock company4|447=D|452=13|37=1328769|11=ClOrdID-18178|66=ListID-041321-rodrigo-18173|17=1328769-1b8sh2|150=0|39=0|55=[N/A]|54=1|48=US29379VAW37|22=4|454=1|455=29379VAW3|456=1|460=3|167=CORP|541=20420815|223=0.0485|106=ENTERPRISE PROD|225=20120215|873=20120215|107=EPD  4.850  8/15/42 c42|64=20210928|151=350000|15=USD|120=USD|38=350000|14=0|6=0|60=20210924-10:29:12|126=20210924-10:29:12|75=20210924|20117=8346631|30=MTXX|10=177|
8=FIX.4.4|9=57|35=0|34=51|49=T1Kauaiblk4|52=20210924-10:30:42.696|56=MA|10=123|
8=FIX.4.4|9=57|35=0|34=83|49=MA|52=20210924-10:30:42.717|56=T1Kauaiblk4|10=122|
8=FIX.4.4|9=57|35=0|34=52|49=T1Kauaiblk4|52=20210924-10:32:13.688|56=MA|10=125|
8=FIX.4.4|9=57|35=0|34=84|49=MA|52=20210924-10:32:13.715|56=T1Kauaiblk4|10=121|
8=FIX.4.4|9=57|35=0|34=53|49=T1Kauaiblk4|52=20210924-10:33:43.700|56=MA|10=115|
8=FIX.4.4|9=57|35=0|34=85|49=MA|52=20210924-10:33:43.777|56=T1Kauaiblk4|10=134|
8=FIX.4.4|9=714|35=E|34=54|49=T1Kauaiblk4|52=20210924-10:35:12.953|56=MA|66=ListID-041321-rodrigo-18179|394=2|68=5|73=5|11=ClOrdID-18180|22=4|38=100000|44=100|48=US06051GEN51|54=1|55=[N/A/]|63=3|67=1|423=1|29726=100.25|453=1|448=T1Kauaiblk4|447=C|452=11|11=ClOrdID-18181|22=4|38=100000|44=101|48=US40434AAB52|54=1|55=[N/A]|63=3|67=2|29726=101.25|11=ClOrdID-18182|22=4|38=130000|44=102|48=US95709TAH32|54=1|55=[N/A/]|63=3|67=1|29726=102.25|453=1|448=T1Kauaiblk4|447=C|452=11|11=ClOrdID-18183|22=4|38=250000|44=103|48=US427866AZ15|54=1|55=[N/A/]|63=3|67=1|29726=103.25|453=1|448=T1Kauaiblk4|447=C|452=11|11=ClOrdID-18184|22=4|38=350000|44=104|48=US29379VAW37|54=1|55=[N/A/]|63=3|67=1|29726=104.25|453=1|448=T1Kauaiblk4|447=C|452=11|10=040|
8=FIX.4.4|9=383|35=8|49=MA|56=T1Kauaiblk4|34=86|52=20210924-10:35:13.107|453=1|448=T1Kauaiblk4|447=C|452=11|37=100002766-ClOrdID-18180|11=ClOrdID-18180|66=ListID-041321-rodrigo-18179|17=100002766-ClOrdID-18180-1bgj0t|150=8|39=8|103=1|55=[N/A]|54=1|48=US06051GEN51|22=4|5214=100|151=0|38=100000|14=0|6=0|58=MarketAxess does not recognize the CUSIP/ISIN in one or more legs of the inquiry|75=20210924|10=151|
8=FIX.4.4|9=527|35=8|49=MA|56=T1Kauaiblk4|34=87|52=20210924-10:35:13.191|453=2|448=T1Kauaiblk4|447=C|452=11|448=Kauai blkrock company4|447=D|452=13|37=1328780|11=ClOrdID-18182|66=ListID-041321-rodrigo-18179|17=1328780-1bgj32|150=0|39=0|55=[N/A]|54=1|48=US95709TAH32|22=4|454=1|455=95709TAH3|456=1|460=3|167=CORP|541=20420301|223=0.04125|106=EVERGY KANSAS|225=20120301|873=20120301|107=EVRG  4.125  3/1/42 c41|64=20210928|151=130000|15=USD|120=USD|38=130000|14=0|6=0|60=20210924-10:35:13|126=20210924-10:35:13|75=20210924|20117=8346657|30=MTXX|10=004|
8=FIX.4.4|9=524|35=8|49=MA|56=T1Kauaiblk4|34=88|52=20210924-10:35:13.194|453=2|448=T1Kauaiblk4|447=C|452=11|448=Kauai blkrock company4|447=D|452=13|37=1328779|11=ClOrdID-18181|66=ListID-041321-rodrigo-18179|17=1328779-1bgj31|150=0|39=0|55=[N/A]|54=1|48=US40434AAB52|22=4|454=1|455=40434AAB5|456=1|460=3|167=CORP|541=20260225|223=0.032|106=HSBC BK USA|225=20130225|873=20130225|107=HSBC  3.200  2/25/26 c22|64=20210928|151=100000|15=USD|120=USD|38=100000|14=0|6=0|60=20210924-10:35:13|126=20210924-10:35:13|75=20210924|20117=8346656|30=MTXX|10=170|
8=FIX.4.4|9=528|35=8|49=MA|56=T1Kauaiblk4|34=89|52=20210924-10:35:13.201|453=2|448=T1Kauaiblk4|447=C|452=11|448=Kauai blkrock company4|447=D|452=13|37=1328782|11=ClOrdID-18184|66=ListID-041321-rodrigo-18179|17=1328782-1bgj32|150=0|39=0|55=[N/A]|54=1|48=US29379VAW37|22=4|454=1|455=29379VAW3|456=1|460=3|167=CORP|541=20420815|223=0.0485|106=ENTERPRISE PROD|225=20120215|873=20120215|107=EPD  4.850  8/15/42 c42|64=20210928|151=350000|15=USD|120=USD|38=350000|14=0|6=0|60=20210924-10:35:13|126=20210924-10:35:13|75=20210924|20117=8346659|30=MTXX|10=165|
8=FIX.4.4|9=521|35=8|49=MA|56=T1Kauaiblk4|34=90|52=20210924-10:35:13.209|453=2|448=T1Kauaiblk4|447=C|452=11|448=Kauai blkrock company4|447=D|452=13|37=1328781|11=ClOrdID-18183|66=ListID-041321-rodrigo-18179|17=1328781-1bgj33|150=0|39=0|55=[N/A]|54=1|48=US427866AZ15|22=4|454=1|455=427866AZ1|456=1|460=3|167=CORP|541=20230515|223=0.03375|106=HERSHEY|225=20180510|873=20180510|107=HSY  3.375  5/15/23 c23|64=20210928|151=250000|15=USD|120=USD|38=250000|14=0|6=0|60=20210924-10:35:13|126=20210924-10:35:13|75=20210924|20117=8346658|30=MTXX|10=097|
8=FIX.4.4|9=57|35=0|34=91|49=MA|52=20210924-10:36:43.614|56=T1Kauaiblk4|10=124|
8=FIX.4.4|9=57|35=0|34=55|49=T1Kauaiblk4|52=20210924-10:36:43.626|56=MA|10=127|
8=FIX.4.4|9=57|35=0|34=92|49=MA|52=20210924-10:38:13.615|56=T1Kauaiblk4|10=125|
8=FIX.4.4|9=57|35=0|34=56|49=T1Kauaiblk4|52=20210924-10:38:13.649|56=MA|10=132|
8=FIX.4.4|9=57|35=0|34=57|49=T1Kauaiblk4|52=20210924-10:39:43.693|56=MA|10=136|
8=FIX.4.4|9=57|35=0|34=93|49=MA|52=20210924-10:39:43.761|56=T1Kauaiblk4|10=132|
8=FIX.4.4|9=57|35=0|34=58|49=T1Kauaiblk4|52=20210924-10:41:13.703|56=MA|10=119|
8=FIX.4.4|9=57|35=0|34=94|49=MA|52=20210924-10:41:13.791|56=T1Kauaiblk4|10=126|
8=FIX.4.4|9=57|35=0|34=59|49=T1Kauaiblk4|52=20210924-10:42:44.691|56=MA|10=131|
8=FIX.4.4|9=57|35=0|34=95|49=MA|52=20210924-10:42:44.772|56=T1Kauaiblk4|10=131|
8=FIX.4.4|9=57|35=0|34=60|49=T1Kauaiblk4|52=20210924-10:44:14.696|56=MA|10=127|
8=FIX.4.4|9=57|35=0|34=96|49=MA|52=20210924-10:44:15.746|56=T1Kauaiblk4|10=133|
8=FIX.4.4|9=714|35=E|34=61|49=T1Kauaiblk4|52=20210924-10:45:43.157|56=MA|66=ListID-041321-rodrigo-18185|394=2|68=5|73=5|11=ClOrdID-18186|22=4|38=100000|44=100|48=US06051GEN51|54=1|55=[N/A/]|63=3|67=1|423=1|29726=100.25|453=1|448=T1Kauaiblk4|447=C|452=11|11=ClOrdID-18187|22=4|38=100000|44=101|48=US40434AAB52|54=1|55=[N/A]|63=3|67=2|29726=101.25|11=ClOrdID-18188|22=4|38=130000|44=102|48=US95709TAH32|54=1|55=[N/A/]|63=3|67=1|29726=102.25|453=1|448=T1Kauaiblk4|447=C|452=11|11=ClOrdID-18189|22=4|38=250000|44=103|48=US427866AZ15|54=1|55=[N/A/]|63=3|67=1|29726=103.25|453=1|448=T1Kauaiblk4|447=C|452=11|11=ClOrdID-18190|22=4|38=350000|44=104|48=US29379VAW37|54=1|55=[N/A/]|63=3|67=1|29726=104.25|453=1|448=T1Kauaiblk4|447=C|452=11|10=057|
8=FIX.4.4|9=383|35=8|49=MA|56=T1Kauaiblk4|34=97|52=20210924-10:45:43.333|453=1|448=T1Kauaiblk4|447=C|452=11|37=100002766-ClOrdID-18186|11=ClOrdID-18186|66=ListID-041321-rodrigo-18185|17=100002766-ClOrdID-18186-1bu1b3|150=8|39=8|103=1|55=[N/A]|54=1|48=US06051GEN51|22=4|5214=100|151=0|38=100000|14=0|6=0|58=MarketAxess does not recognize the CUSIP/ISIN in one or more legs of the inquiry|75=20210924|10=115|
8=FIX.4.4|9=521|35=8|49=MA|56=T1Kauaiblk4|34=98|52=20210924-10:45:43.424|453=2|448=T1Kauaiblk4|447=C|452=11|448=Kauai blkrock company4|447=D|452=13|37=1328788|11=ClOrdID-18189|66=ListID-041321-rodrigo-18185|17=1328788-1bu1dl|150=0|39=0|55=[N/A]|54=1|48=US427866AZ15|22=4|454=1|455=427866AZ1|456=1|460=3|167=CORP|541=20230515|223=0.03375|106=HERSHEY|225=20180510|873=20180510|107=HSY  3.375  5/15/23 c23|64=20210928|151=250000|15=USD|120=USD|38=250000|14=0|6=0|60=20210924-10:45:43|126=20210924-10:45:43|75=20210924|20117=8346665|30=MTXX|10=194|
8=FIX.4.4|9=524|35=8|49=MA|56=T1Kauaiblk4|34=99|52=20210924-10:45:43.427|453=2|448=T1Kauaiblk4|447=C|452=11|448=Kauai blkrock company4|447=D|452=13|37=1328786|11=ClOrdID-18187|66=ListID-041321-rodrigo-18185|17=1328786-1bu1dl|150=0|39=0|55=[N/A]|54=1|48=US40434AAB52|22=4|454=1|455=40434AAB5|456=1|460=3|167=CORP|541=20260225|223=0.032|106=HSBC BK USA|225=20130225|873=20130225|107=HSBC  3.200  2/25/26 c22|64=20210928|151=100000|15=USD|120=USD|38=100000|14=0|6=0|60=20210924-10:45:43|126=20210924-10:45:43|75=20210924|20117=8346663|30=MTXX|10=245|
8=FIX.4.4|9=528|35=8|49=MA|56=T1Kauaiblk4|34=100|52=20210924-10:45:43.431|453=2|448=T1Kauaiblk4|447=C|452=11|448=Kauai blkrock company4|447=D|452=13|37=1328787|11=ClOrdID-18188|66=ListID-041321-rodrigo-18185|17=1328787-1bu1dn|150=0|39=0|55=[N/A]|54=1|48=US95709TAH32|22=4|454=1|455=95709TAH3|456=1|460=3|167=CORP|541=20420301|223=0.04125|106=EVERGY KANSAS|225=20120301|873=20120301|107=EVRG  4.125  3/1/42 c41|64=20210928|151=130000|15=USD|120=USD|38=130000|14=0|6=0|60=20210924-10:45:43|126=20210924-10:45:43|75=20210924|20117=8346664|30=MTXX|10=129|
8=FIX.4.4|9=529|35=8|49=MA|56=T1Kauaiblk4|34=101|52=20210924-10:45:43.438|453=2|448=T1Kauaiblk4|447=C|452=11|448=Kauai blkrock company4|447=D|452=13|37=1328789|11=ClOrdID-18190|66=ListID-041321-rodrigo-18185|17=1328789-1bu1dm|150=0|39=0|55=[N/A]|54=1|48=US29379VAW37|22=4|454=1|455=29379VAW3|456=1|460=3|167=CORP|541=20420815|223=0.0485|106=ENTERPRISE PROD|225=20120215|873=20120215|107=EPD  4.850  8/15/42 c42|64=20210928|151=350000|15=USD|120=USD|38=350000|14=0|6=0|60=20210924-10:45:43|126=20210924-10:45:43|75=20210924|20117=8346666|30=MTXX|10=038|
8=FIX.4.4|9=58|35=0|34=102|49=MA|52=20210924-10:47:13.623|56=T1Kauaiblk4|10=165|
8=FIX.4.4|9=57|35=0|34=62|49=T1Kauaiblk4|52=20210924-10:47:13.636|56=MA|10=125|
8=FIX.4.4|9=57|35=0|34=63|49=T1Kauaiblk4|52=20210924-10:48:43.702|56=MA|10=124|
8=FIX.4.4|9=58|35=0|34=103|49=MA|52=20210924-10:48:43.745|56=T1Kauaiblk4|10=175|
8=FIX.4.4|9=57|35=0|34=64|49=T1Kauaiblk4|52=20210924-10:50:13.705|56=MA|10=118|
8=FIX.4.4|9=58|35=0|34=104|49=MA|52=20210924-10:50:13.748|56=T1Kauaiblk4|10=169|
8=FIX.4.4|9=58|35=0|34=105|49=MA|52=20210924-10:51:44.610|56=T1Kauaiblk4|10=163|
8=FIX.4.4|9=57|35=0|34=65|49=T1Kauaiblk4|52=20210924-10:51:44.629|56=MA|10=129|
8=FIX.4.4|9=714|35=E|34=66|49=T1Kauaiblk4|52=20210924-10:52:57.316|56=MA|66=ListID-041321-rodrigo-18191|394=2|68=5|73=5|11=ClOrdID-18192|22=4|38=100000|44=100|48=US06051GEN51|54=1|55=[N/A/]|63=3|67=1|423=1|29726=100.25|453=1|448=T1Kauaiblk4|447=C|452=11|11=ClOrdID-18193|22=4|38=100000|44=101|48=US40434AAB52|54=1|55=[N/A]|63=3|67=2|29726=101.25|11=ClOrdID-18194|22=4|38=130000|44=102|48=US95709TAH32|54=1|55=[N/A/]|63=3|67=1|29726=102.25|453=1|448=T1Kauaiblk4|447=C|452=11|11=ClOrdID-18195|22=4|38=250000|44=103|48=US427866AZ15|54=1|55=[N/A/]|63=3|67=1|29726=103.25|453=1|448=T1Kauaiblk4|447=C|452=11|11=ClOrdID-18196|22=4|38=350000|44=104|48=US29379VAW37|54=1|55=[N/A/]|63=3|67=1|29726=104.25|453=1|448=T1Kauaiblk4|447=C|452=11|10=053|
8=FIX.4.4|9=384|35=8|49=MA|56=T1Kauaiblk4|34=106|52=20210924-10:52:57.476|453=1|448=T1Kauaiblk4|447=C|452=11|37=100002766-ClOrdID-18192|11=ClOrdID-18192|66=ListID-041321-rodrigo-18191|17=100002766-ClOrdID-18192-1c3can|150=8|39=8|103=1|55=[N/A]|54=1|48=US06051GEN51|22=4|5214=100|151=0|38=100000|14=0|6=0|58=MarketAxess does not recognize the CUSIP/ISIN in one or more legs of the inquiry|75=20210924|10=197|
8=FIX.4.4|9=525|35=8|49=MA|56=T1Kauaiblk4|34=107|52=20210924-10:52:57.558|453=2|448=T1Kauaiblk4|447=C|452=11|448=Kauai blkrock company4|447=D|452=13|37=1328795|11=ClOrdID-18193|66=ListID-041321-rodrigo-18191|17=1328795-1c3ccv|150=0|39=0|55=[N/A]|54=1|48=US40434AAB52|22=4|454=1|455=40434AAB5|456=1|460=3|167=CORP|541=20260225|223=0.032|106=HSBC BK USA|225=20130225|873=20130225|107=HSBC  3.200  2/25/26 c22|64=20210928|151=100000|15=USD|120=USD|38=100000|14=0|6=0|60=20210924-10:52:57|126=20210924-10:52:57|75=20210924|20117=8346682|30=MTXX|10=031|
8=FIX.4.4|9=522|35=8|49=MA|56=T1Kauaiblk4|34=108|52=20210924-10:52:57.561|453=2|448=T1Kauaiblk4|447=C|452=11|448=Kauai blkrock company4|447=D|452=13|37=1328797|11=ClOrdID-18195|66=ListID-041321-rodrigo-18191|17=1328797-1c3ccw|150=0|39=0|55=[N/A]|54=1|48=US427866AZ15|22=4|454=1|455=427866AZ1|456=1|460=3|167=CORP|541=20230515|223=0.03375|106=HERSHEY|225=20180510|873=20180510|107=HSY  3.375  5/15/23 c23|64=20210928|151=250000|15=USD|120=USD|38=250000|14=0|6=0|60=20210924-10:52:57|126=20210924-10:52:57|75=20210924|20117=8346684|30=MTXX|10=236|
8=FIX.4.4|9=529|35=8|49=MA|56=T1Kauaiblk4|34=109|52=20210924-10:52:57.568|453=2|448=T1Kauaiblk4|447=C|452=11|448=Kauai blkrock company4|447=D|452=13|37=1328798|11=ClOrdID-18196|66=ListID-041321-rodrigo-18191|17=1328798-1c3ccx|150=0|39=0|55=[N/A]|54=1|48=US29379VAW37|22=4|454=1|455=29379VAW3|456=1|460=3|167=CORP|541=20420815|223=0.0485|106=ENTERPRISE PROD|225=20120215|873=20120215|107=EPD  4.850  8/15/42 c42|64=20210928|151=350000|15=USD|120=USD|38=350000|14=0|6=0|60=20210924-10:52:57|126=20210924-10:52:57|75=20210924|20117=8346685|30=MTXX|10=058|
8=FIX.4.4|9=528|35=8|49=MA|56=T1Kauaiblk4|34=110|52=20210924-10:52:57.575|453=2|448=T1Kauaiblk4|447=C|452=11|448=Kauai blkrock company4|447=D|452=13|37=1328796|11=ClOrdID-18194|66=ListID-041321-rodrigo-18191|17=1328796-1c3ccy|150=0|39=0|55=[N/A]|54=1|48=US95709TAH32|22=4|454=1|455=95709TAH3|456=1|460=3|167=CORP|541=20420301|223=0.04125|106=EVERGY KANSAS|225=20120301|873=20120301|107=EVRG  4.125  3/1/42 c41|64=20210928|151=130000|15=USD|120=USD|38=130000|14=0|6=0|60=20210924-10:52:57|126=20210924-10:52:57|75=20210924|20117=8346683|30=MTXX|10=138|
8=FIX.4.4|9=58|35=0|34=111|49=MA|52=20210924-10:54:27.606|56=T1Kauaiblk4|10=169|
8=FIX.4.4|9=57|35=0|34=67|49=T1Kauaiblk4|52=20210924-10:54:27.617|56=MA|10=132|
8=FIX.4.4|9=57|35=0|34=68|49=T1Kauaiblk4|52=20210924-10:55:57.696|56=MA|10=144|
8=FIX.4.4|9=58|35=0|34=112|49=MA|52=20210924-10:55:57.746|56=T1Kauaiblk4|10=179|
8=FIX.4.4|9=57|35=0|34=69|49=T1Kauaiblk4|52=20210924-10:57:27.705|56=MA|10=135|
8=FIX.4.4|9=58|35=0|34=113|49=MA|52=20210924-10:57:27.797|56=T1Kauaiblk4|10=185|
8=FIX.4.4|9=57|35=0|34=70|49=T1Kauaiblk4|52=20210924-10:58:57.707|56=MA|10=133|
8=FIX.4.4|9=58|35=0|34=114|49=MA|52=20210924-10:58:58.611|56=T1Kauaiblk4|10=176|
8=FIX.4.4|9=57|35=0|34=71|49=T1Kauaiblk4|52=20210924-11:00:28.693|56=MA|10=124|
8=FIX.4.4|9=58|35=0|34=115|49=MA|52=20210924-11:00:28.788|56=T1Kauaiblk4|10=177|
8=FIX.4.4|9=57|35=0|34=72|49=T1Kauaiblk4|52=20210924-11:01:58.704|56=MA|10=122|
8=FIX.4.4|9=58|35=0|34=116|49=MA|52=20210924-11:01:59.747|56=T1Kauaiblk4|10=178|
8=FIX.4.4|9=57|35=0|34=73|49=T1Kauaiblk4|52=20210924-11:03:29.694|56=MA|10=131|
8=FIX.4.4|9=58|35=0|34=117|49=MA|52=20210924-11:03:29.747|56=T1Kauaiblk4|10=178|
8=FIX.4.4|9=57|35=0|34=74|49=T1Kauaiblk4|52=20210924-11:04:59.704|56=MA|10=128|
8=FIX.4.4|9=58|35=0|34=118|49=MA|52=20210924-11:04:59.783|56=T1Kauaiblk4|10=183|
8=FIX.4.4|9=57|35=0|34=75|49=T1Kauaiblk4|52=20210924-11:06:29.706|56=MA|10=130|
8=FIX.4.4|9=58|35=0|34=119|49=MA|52=20210924-11:06:29.796|56=T1Kauaiblk4|10=187|
8=FIX.4.4|9=57|35=0|34=76|49=T1Kauaiblk4|52=20210924-11:08:00.697|56=MA|10=131|
8=FIX.4.4|9=58|35=0|34=120|49=MA|52=20210924-11:08:00.755|56=T1Kauaiblk4|10=165|
8=FIX.4.4|9=714|35=E|34=77|49=T1Kauaiblk4|52=20210924-11:08:49.053|56=MA|66=ListID-041321-rodrigo-18197|394=2|68=5|73=5|11=ClOrdID-18198|22=4|38=100000|44=100|48=US06051GEN51|54=1|55=[N/A/]|63=3|67=1|423=1|29726=100.25|453=1|448=T1Kauaiblk4|447=C|452=11|11=ClOrdID-18199|22=4|38=100000|44=101|48=US40434AAB52|54=1|55=[N/A]|63=3|67=2|29726=101.25|11=ClOrdID-18200|22=4|38=130000|44=102|48=US95709TAH32|54=1|55=[N/A/]|63=3|67=1|29726=102.25|453=1|448=T1Kauaiblk4|447=C|452=11|11=ClOrdID-18201|22=4|38=250000|44=103|48=US427866AZ15|54=1|55=[N/A/]|63=3|67=1|29726=103.25|453=1|448=T1Kauaiblk4|447=C|452=11|11=ClOrdID-18202|22=4|38=350000|44=104|48=US29379VAW37|54=1|55=[N/A/]|63=3|67=1|29726=104.25|453=1|448=T1Kauaiblk4|447=C|452=11|10=038|
8=FIX.4.4|9=384|35=8|49=MA|56=T1Kauaiblk4|34=121|52=20210924-11:08:49.229|453=1|448=T1Kauaiblk4|447=C|452=11|37=100002766-ClOrdID-18198|11=ClOrdID-18198|66=ListID-041321-rodrigo-18197|17=100002766-ClOrdID-18198-1cnqo6|150=8|39=8|103=1|55=[N/A]|54=1|48=US06051GEN51|22=4|5214=100|151=0|38=100000|14=0|6=0|58=MarketAxess does not recognize the CUSIP/ISIN in one or more legs of the inquiry|75=20210924|10=248|
8=FIX.4.4|9=525|35=8|49=MA|56=T1Kauaiblk4|34=122|52=20210924-11:08:49.324|453=2|448=T1Kauaiblk4|447=C|452=11|448=Kauai blkrock company4|447=D|452=13|37=1328875|11=ClOrdID-18199|66=ListID-041321-rodrigo-18197|17=1328875-1cnqqo|150=0|39=0|55=[N/A]|54=1|48=US40434AAB52|22=4|454=1|455=40434AAB5|456=1|460=3|167=CORP|541=20260225|223=0.032|106=HSBC BK USA|225=20130225|873=20130225|107=HSBC  3.200  2/25/26 c22|64=20210928|151=100000|15=USD|120=USD|38=100000|14=0|6=0|60=20210924-11:08:49|126=20210924-11:08:49|75=20210924|20117=8346752|30=MTXX|10=116|
8=FIX.4.4|9=529|35=8|49=MA|56=T1Kauaiblk4|34=123|52=20210924-11:08:49.329|453=2|448=T1Kauaiblk4|447=C|452=11|448=Kauai blkrock company4|447=D|452=13|37=1328878|11=ClOrdID-18202|66=ListID-041321-rodrigo-18197|17=1328878-1cnqqq|150=0|39=0|55=[N/A]|54=1|48=US29379VAW37|22=4|454=1|455=29379VAW3|456=1|460=3|167=CORP|541=20420815|223=0.0485|106=ENTERPRISE PROD|225=20120215|873=20120215|107=EPD  4.850  8/15/42 c42|64=20210928|151=350000|15=USD|120=USD|38=350000|14=0|6=0|60=20210924-11:08:49|126=20210924-11:08:49|75=20210924|20117=8346755|30=MTXX|10=128|
8=FIX.4.4|9=528|35=8|49=MA|56=T1Kauaiblk4|34=124|52=20210924-11:08:49.341|453=2|448=T1Kauaiblk4|447=C|452=11|448=Kauai blkrock company4|447=D|452=13|37=1328876|11=ClOrdID-18200|66=ListID-041321-rodrigo-18197|17=1328876-1cnqqp|150=0|39=0|55=[N/A]|54=1|48=US95709TAH32|22=4|454=1|455=95709TAH3|456=1|460=3|167=CORP|541=20420301|223=0.04125|106=EVERGY KANSAS|225=20120301|873=20120301|107=EVRG  4.125  3/1/42 c41|64=20210928|151=130000|15=USD|120=USD|38=130000|14=0|6=0|60=20210924-11:08:49|126=20210924-11:08:49|75=20210924|20117=8346753|30=MTXX|10=211|
8=FIX.4.4|9=522|35=8|49=MA|56=T1Kauaiblk4|34=125|52=20210924-11:08:49.350|453=2|448=T1Kauaiblk4|447=C|452=11|448=Kauai blkrock company4|447=D|452=13|37=1328877|11=ClOrdID-18201|66=ListID-041321-rodrigo-18197|17=1328877-1cnqqr|150=0|39=0|55=[N/A]|54=1|48=US427866AZ15|22=4|454=1|455=427866AZ1|456=1|460=3|167=CORP|541=20230515|223=0.03375|106=HERSHEY|225=20180510|873=20180510|107=HSY  3.375  5/15/23 c23|64=20210928|151=250000|15=USD|120=USD|38=250000|14=0|6=0|60=20210924-11:08:49|126=20210924-11:08:49|75=20210924|20117=8346754|30=MTXX|10=056|
8=FIX.4.4|9=57|35=0|34=78|49=T1Kauaiblk4|52=20210924-11:10:19.698|56=MA|10=137|
8=FIX.4.4|9=58|35=0|34=126|49=MA|52=20210924-11:10:19.749|56=T1Kauaiblk4|10=177|
8=FIX.4.4|9=57|35=0|34=79|49=T1Kauaiblk4|52=20210924-11:11:49.699|56=MA|10=143|
8=FIX.4.4|9=58|35=0|34=127|49=MA|52=20210924-11:11:49.780|56=T1Kauaiblk4|10=177|
8=FIX.4.4|9=57|35=0|34=80|49=T1Kauaiblk4|52=20210924-11:13:20.708|56=MA|10=117|
8=FIX.4.4|9=58|35=0|34=128|49=MA|52=20210924-11:13:20.720|56=T1Kauaiblk4|10=163|
8=FIX.4.4|9=57|35=0|34=81|49=T1Kauaiblk4|52=20210924-11:14:51.699|56=MA|10=132|
8=FIX.4.4|9=58|35=0|34=129|49=MA|52=20210924-11:14:51.713|56=T1Kauaiblk4|10=171|
8=FIX.4.4|9=57|35=0|34=82|49=T1Kauaiblk4|52=20210924-11:16:21.700|56=MA|10=115|
8=FIX.4.4|9=58|35=0|34=130|49=MA|52=20210924-11:16:21.853|56=T1Kauaiblk4|10=167|
8=FIX.4.4|9=57|35=0|34=83|49=T1Kauaiblk4|52=20210924-11:17:51.701|56=MA|10=121|
8=FIX.4.4|9=58|35=0|34=131|49=MA|52=20210924-11:17:52.738|56=T1Kauaiblk4|10=175|
8=FIX.4.4|9=714|35=E|34=84|49=T1Kauaiblk4|52=20210924-11:19:10.838|56=MA|66=ListID-041321-rodrigo-18203|394=2|68=5|73=5|11=ClOrdID-18204|22=4|38=100000|44=100|48=US06051GEN51|54=1|55=[N/A/]|63=3|67=1|423=1|29726=100.25|453=1|448=T1Kauaiblk4|447=C|452=11|11=ClOrdID-18205|22=4|38=100000|44=101|48=US40434AAB52|54=1|55=[N/A]|63=3|67=2|29726=101.25|11=ClOrdID-18206|22=4|38=130000|44=102|48=US95709TAH32|54=1|55=[N/A/]|63=3|67=1|29726=102.25|453=1|448=T1Kauaiblk4|447=C|452=11|11=ClOrdID-18207|22=4|38=250000|44=103|48=US427866AZ15|54=1|55=[N/A/]|63=3|67=1|29726=103.25|453=1|448=T1Kauaiblk4|447=C|452=11|11=ClOrdID-18208|22=4|38=350000|44=104|48=US29379VAW37|54=1|55=[N/A/]|63=3|67=1|29726=104.25|453=1|448=T1Kauaiblk4|447=C|452=11|10=019|
8=FIX.4.4|9=384|35=8|49=MA|56=T1Kauaiblk4|34=132|52=20210924-11:19:11.007|453=1|448=T1Kauaiblk4|447=C|452=11|37=100002766-ClOrdID-18204|11=ClOrdID-18204|66=ListID-041321-rodrigo-18203|17=100002766-ClOrdID-18204-1d12ft|150=8|39=8|103=1|55=[N/A]|54=1|48=US06051GEN51|22=4|5214=100|151=0|38=100000|14=0|6=0|58=MarketAxess does not recognize the CUSIP/ISIN in one or more legs of the inquiry|75=20210924|10=117|
8=FIX.4.4|9=529|35=8|49=MA|56=T1Kauaiblk4|34=133|52=20210924-11:19:11.088|453=2|448=T1Kauaiblk4|447=C|452=11|448=Kauai blkrock company4|447=D|452=13|37=1328890|11=ClOrdID-18208|66=ListID-041321-rodrigo-18203|17=1328890-1d12hy|150=0|39=0|55=[N/A]|54=1|48=US29379VAW37|22=4|454=1|455=29379VAW3|456=1|460=3|167=CORP|541=20420815|223=0.0485|106=ENTERPRISE PROD|225=20120215|873=20120215|107=EPD  4.850  8/15/42 c42|64=20210928|151=350000|15=USD|120=USD|38=350000|14=0|6=0|60=20210924-11:19:11|126=20210924-11:19:11|75=20210924|20117=8346788|30=MTXX|10=224|
8=FIX.4.4|9=522|35=8|49=MA|56=T1Kauaiblk4|34=134|52=20210924-11:19:11.092|453=2|448=T1Kauaiblk4|447=C|452=11|448=Kauai blkrock company4|447=D|452=13|37=1328889|11=ClOrdID-18207|66=ListID-041321-rodrigo-18203|17=1328889-1d12hz|150=0|39=0|55=[N/A]|54=1|48=US427866AZ15|22=4|454=1|455=427866AZ1|456=1|460=3|167=CORP|541=20230515|223=0.03375|106=HERSHEY|225=20180510|873=20180510|107=HSY  3.375  5/15/23 c23|64=20210928|151=250000|15=USD|120=USD|38=250000|14=0|6=0|60=20210924-11:19:11|126=20210924-11:19:11|75=20210924|20117=8346787|30=MTXX|10=170|
8=FIX.4.4|9=525|35=8|49=MA|56=T1Kauaiblk4|34=135|52=20210924-11:19:11.096|453=2|448=T1Kauaiblk4|447=C|452=11|448=Kauai blkrock company4|447=D|452=13|37=1328887|11=ClOrdID-18205|66=ListID-041321-rodrigo-18203|17=1328887-1d12i0|150=0|39=0|55=[N/A]|54=1|48=US40434AAB52|22=4|454=1|455=40434AAB5|456=1|460=3|167=CORP|541=20260225|223=0.032|106=HSBC BK USA|225=20130225|873=20130225|107=HSBC  3.200  2/25/26 c22|64=20210928|151=100000|15=USD|120=USD|38=100000|14=0|6=0|60=20210924-11:19:11|126=20210924-11:19:11|75=20210924|20117=8346785|30=MTXX|10=149|
8=FIX.4.4|9=528|35=8|49=MA|56=T1Kauaiblk4|34=136|52=20210924-11:19:11.103|453=2|448=T1Kauaiblk4|447=C|452=11|448=Kauai blkrock company4|447=D|452=13|37=1328888|11=ClOrdID-18206|66=ListID-041321-rodrigo-18203|17=1328888-1d12i1|150=0|39=0|55=[N/A]|54=1|48=US95709TAH32|22=4|454=1|455=95709TAH3|456=1|460=3|167=CORP|541=20420301|223=0.04125|106=EVERGY KANSAS|225=20120301|873=20120301|107=EVRG  4.125  3/1/42 c41|64=20210928|151=130000|15=USD|120=USD|38=130000|14=0|6=0|60=20210924-11:19:11|126=20210924-11:19:11|75=20210924|20117=8346786|30=MTXX|10=251|
8=FIX.4.4|9=58|35=0|34=137|49=MA|52=20210924-11:20:41.608|56=T1Kauaiblk4|10=169|
8=FIX.4.4|9=57|35=0|34=85|49=T1Kauaiblk4|52=20210924-11:20:41.614|56=MA|10=119|
8=FIX.4.4|9=58|35=0|34=138|49=MA|52=20210924-11:22:11.616|56=T1Kauaiblk4|10=168|
8=FIX.4.4|9=57|35=0|34=86|49=T1Kauaiblk4|52=20210924-11:22:11.630|56=MA|10=117|
8=FIX.4.4|9=714|35=E|34=87|49=T1Kauaiblk4|52=20210924-11:22:41.775|56=MA|66=ListID-041321-rodrigo-18209|394=2|68=5|73=5|11=ClOrdID-18210|22=4|38=100000|44=100|48=US06051GEN51|54=1|55=[N/A/]|63=3|67=1|423=1|29726=100.25|453=1|448=T1Kauaiblk4|447=C|452=11|11=ClOrdID-18211|22=4|38=100000|44=101|48=US40434AAB52|54=1|55=[N/A]|63=3|67=2|29726=101.25|11=ClOrdID-18212|22=4|38=130000|44=102|48=US95709TAH32|54=1|55=[N/A/]|63=3|67=1|29726=102.25|453=1|448=T1Kauaiblk4|447=C|452=11|11=ClOrdID-18213|22=4|38=250000|44=103|48=US427866AZ15|54=1|55=[N/A/]|63=3|67=1|29726=103.25|453=1|448=T1Kauaiblk4|447=C|452=11|11=ClOrdID-18214|22=4|38=350000|44=104|48=US29379VAW37|54=1|55=[N/A/]|63=3|67=1|29726=104.25|453=1|448=T1Kauaiblk4|447=C|452=11|10=011|
8=FIX.4.4|9=384|35=8|49=MA|56=T1Kauaiblk4|34=139|52=20210924-11:22:41.954|453=1|448=T1Kauaiblk4|447=C|452=11|37=100002766-ClOrdID-18210|11=ClOrdID-18210|66=ListID-041321-rodrigo-18209|17=100002766-ClOrdID-18210-1d5l7e|150=8|39=8|103=1|55=[N/A]|54=1|48=US06051GEN51|22=4|5214=100|151=0|38=100000|14=0|6=0|58=MarketAxess does not recognize the CUSIP/ISIN in one or more legs of the inquiry|75=20210924|10=129|
8=FIX.4.4|9=525|35=8|49=MA|56=T1Kauaiblk4|34=140|52=20210924-11:22:42.023|453=2|448=T1Kauaiblk4|447=C|452=11|448=Kauai blkrock company4|447=D|452=13|37=1328915|11=ClOrdID-18211|66=ListID-041321-rodrigo-18209|17=1328915-1d5l9a|150=0|39=0|55=[N/A]|54=1|48=US40434AAB52|22=4|454=1|455=40434AAB5|456=1|460=3|167=CORP|541=20260225|223=0.032|106=HSBC BK USA|225=20130225|873=20130225|107=HSBC  3.200  2/25/26 c22|64=20210928|151=100000|15=USD|120=USD|38=100000|14=0|6=0|60=20210924-11:22:42|126=20210924-11:22:41|75=20210924|20117=8346825|30=MTXX|10=173|
8=FIX.4.4|9=529|35=8|49=MA|56=T1Kauaiblk4|34=141|52=20210924-11:22:42.028|453=2|448=T1Kauaiblk4|447=C|452=11|448=Kauai blkrock company4|447=D|452=13|37=1328918|11=ClOrdID-18214|66=ListID-041321-rodrigo-18209|17=1328918-1d5l9b|150=0|39=0|55=[N/A]|54=1|48=US29379VAW37|22=4|454=1|455=29379VAW3|456=1|460=3|167=CORP|541=20420815|223=0.0485|106=ENTERPRISE PROD|225=20120215|873=20120215|107=EPD  4.850  8/15/42 c42|64=20210928|151=350000|15=USD|120=USD|38=350000|14=0|6=0|60=20210924-11:22:42|126=20210924-11:22:41|75=20210924|20117=8346828|30=MTXX|10=202|
8=FIX.4.4|9=522|35=8|49=MA|56=T1Kauaiblk4|34=142|52=20210924-11:22:42.034|453=2|448=T1Kauaiblk4|447=C|452=11|448=Kauai blkrock company4|447=D|452=13|37=1328917|11=ClOrdID-18213|66=ListID-041321-rodrigo-18209|17=1328917-1d5l9c|150=0|39=0|55=[N/A]|54=1|48=US427866AZ15|22=4|454=1|455=427866AZ1|456=1|460=3|167=CORP|541=20230515|223=0.03375|106=HERSHEY|225=20180510|873=20180510|107=HSY  3.375  5/15/23 c23|64=20210928|151=250000|15=USD|120=USD|38=250000|14=0|6=0|60=20210924-11:22:42|126=20210924-11:22:41|75=20210924|20117=8346827|30=MTXX|10=132|
8=FIX.4.4|9=528|35=8|49=MA|56=T1Kauaiblk4|34=143|52=20210924-11:22:42.042|453=2|448=T1Kauaiblk4|447=C|452=11|448=Kauai blkrock company4|447=D|452=13|37=1328916|11=ClOrdID-18212|66=ListID-041321-rodrigo-18209|17=1328916-1d5l9d|150=0|39=0|55=[N/A]|54=1|48=US95709TAH32|22=4|454=1|455=95709TAH3|456=1|460=3|167=CORP|541=20420301|223=0.04125|106=EVERGY KANSAS|225=20120301|873=20120301|107=EVRG  4.125  3/1/42 c41|64=20210928|151=130000|15=USD|120=USD|38=130000|14=0|6=0|60=20210924-11:22:42|126=20210924-11:22:41|75=20210924|20117=8346826|30=MTXX|10=035|
8=FIX.4.4|9=57|35=0|34=88|49=T1Kauaiblk4|52=20210924-11:24:12.710|56=MA|10=121|
8=FIX.4.4|9=58|35=0|34=144|49=MA|52=20210924-11:24:12.770|56=T1Kauaiblk4|10=169|
8=FIX.4.4|9=714|35=E|34=89|49=T1Kauaiblk4|52=20210924-11:24:24.176|56=MA|66=ListID-041321-rodrigo-18215|394=2|68=5|73=5|11=ClOrdID-18216|22=4|38=100000|44=100|48=US06051GEN51|54=1|55=[N/A/]|63=3|67=1|423=1|29726=100.25|453=1|448=T1Kauaiblk4|447=C|452=11|11=ClOrdID-18217|22=4|38=100000|44=101|48=US40434AAB52|54=1|55=[N/A]|63=3|67=2|29726=101.25|11=ClOrdID-18218|22=4|38=130000|44=102|48=US95709TAH32|54=1|55=[N/A/]|63=3|67=1|29726=102.25|453=1|448=T1Kauaiblk4|447=C|452=11|11=ClOrdID-18219|22=4|38=250000|44=103|48=US427866AZ15|54=1|55=[N/A/]|63=3|67=1|29726=103.25|453=1|448=T1Kauaiblk4|447=C|452=11|11=ClOrdID-18220|22=4|38=350000|44=104|48=US29379VAW37|54=1|55=[N/A/]|63=3|67=1|29726=104.25|453=1|448=T1Kauaiblk4|447=C|452=11|10=029|
8=FIX.4.4|9=384|35=8|49=MA|56=T1Kauaiblk4|34=145|52=20210924-11:24:24.376|453=1|448=T1Kauaiblk4|447=C|452=11|37=100002766-ClOrdID-18216|11=ClOrdID-18216|66=ListID-041321-rodrigo-18215|17=100002766-ClOrdID-18216-1d7s8d|150=8|39=8|103=1|55=[N/A]|54=1|48=US06051GEN51|22=4|5214=100|151=0|38=100000|14=0|6=0|58=MarketAxess does not recognize the CUSIP/ISIN in one or more legs of the inquiry|75=20210924|10=151|
8=FIX.4.4|9=525|35=8|49=MA|56=T1Kauaiblk4|34=146|52=20210924-11:24:24.477|453=2|448=T1Kauaiblk4|447=C|452=11|448=Kauai blkrock company4|447=D|452=13|37=1328923|11=ClOrdID-18217|66=ListID-041321-rodrigo-18215|17=1328923-1d7sb9|150=0|39=0|55=[N/A]|54=1|48=US40434AAB52|22=4|454=1|455=40434AAB5|456=1|460=3|167=CORP|541=20260225|223=0.032|106=HSBC BK USA|225=20130225|873=20130225|107=HSBC  3.200  2/25/26 c22|64=20210928|151=100000|15=USD|120=USD|38=100000|14=0|6=0|60=20210924-11:24:24|126=20210924-11:24:24|75=20210924|20117=8346835|30=MTXX|10=211|
8=FIX.4.4|9=522|35=8|49=MA|56=T1Kauaiblk4|34=147|52=20210924-11:24:24.483|453=2|448=T1Kauaiblk4|447=C|452=11|448=Kauai blkrock company4|447=D|452=13|37=1328925|11=ClOrdID-18219|66=ListID-041321-rodrigo-18215|17=1328925-1d7sbb|150=0|39=0|55=[N/A]|54=1|48=US427866AZ15|22=4|454=1|455=427866AZ1|456=1|460=3|167=CORP|541=20230515|223=0.03375|106=HERSHEY|225=20180510|873=20180510|107=HSY  3.375  5/15/23 c23|64=20210928|151=250000|15=USD|120=USD|38=250000|14=0|6=0|60=20210924-11:24:24|126=20210924-11:24:24|75=20210924|20117=8346837|30=MTXX|10=203|
8=FIX.4.4|9=529|35=8|49=MA|56=T1Kauaiblk4|34=148|52=20210924-11:24:24.488|453=2|448=T1Kauaiblk4|447=C|452=11|448=Kauai blkrock company4|447=D|452=13|37=1328926|11=ClOrdID-18220|66=ListID-041321-rodrigo-18215|17=1328926-1d7sbc|150=0|39=0|55=[N/A]|54=1|48=US29379VAW37|22=4|454=1|455=29379VAW3|456=1|460=3|167=CORP|541=20420815|223=0.0485|106=ENTERPRISE PROD|225=20120215|873=20120215|107=EPD  4.850  8/15/42 c42|64=20210928|151=350000|15=USD|120=USD|38=350000|14=0|6=0|60=20210924-11:24:24|126=20210924-11:24:24|75=20210924|20117=8346838|30=MTXX|10=014|
8=FIX.4.4|9=528|35=8|49=MA|56=T1Kauaiblk4|34=149|52=20210924-11:24:24.498|453=2|448=T1Kauaiblk4|447=C|452=11|448=Kauai blkrock company4|447=D|452=13|37=1328924|11=ClOrdID-18218|66=ListID-041321-rodrigo-18215|17=1328924-1d7sbd|150=0|39=0|55=[N/A]|54=1|48=US95709TAH32|22=4|454=1|455=95709TAH3|456=1|460=3|167=CORP|541=20420301|223=0.04125|106=EVERGY KANSAS|225=20120301|873=20120301|107=EVRG  4.125  3/1/42 c41|64=20210928|151=130000|15=USD|120=USD|38=130000|14=0|6=0|60=20210924-11:24:24|126=20210924-11:24:24|75=20210924|20117=8346836|30=MTXX|10=115|
8=FIX.4.4|9=58|35=0|34=150|49=MA|52=20210924-11:25:54.608|56=T1Kauaiblk4|10=173|
8=FIX.4.4|9=57|35=0|34=90|49=T1Kauaiblk4|52=20210924-11:25:54.621|56=MA|10=122|
8=FIX.4.4|9=57|35=0|34=91|49=T1Kauaiblk4|52=20210924-11:27:24.700|56=MA|10=120|
8=FIX.4.4|9=58|35=0|34=151|49=MA|52=20210924-11:27:24.783|56=T1Kauaiblk4|10=177|
8=FIX.4.4|9=58|35=0|34=152|49=MA|52=20210924-11:28:54.845|56=T1Kauaiblk4|10=181|
8=FIX.4.4|9=57|35=0|34=92|49=T1Kauaiblk4|52=20210924-11:28:54.847|56=MA|10=137|
8=FIX.4.4|9=57|35=0|34=93|49=T1Kauaiblk4|52=20210924-11:30:25.711|56=MA|10=119|
8=FIX.4.4|9=58|35=0|34=153|49=MA|52=20210924-11:30:25.795|56=T1Kauaiblk4|10=177|
8=FIX.4.4|9=57|35=0|34=94|49=T1Kauaiblk4|52=20210924-11:31:55.713|56=MA|10=126|
8=FIX.4.4|9=58|35=0|34=154|49=MA|52=20210924-11:31:55.797|56=T1Kauaiblk4|10=184|
8=FIX.4.4|9=57|35=0|34=95|49=T1Kauaiblk4|52=20210924-11:33:26.704|56=MA|10=127|
8=FIX.4.4|9=58|35=0|34=155|49=MA|52=20210924-11:33:26.746|56=T1Kauaiblk4|10=179|
8=FIX.4.4|9=57|35=0|34=96|49=T1Kauaiblk4|52=20210924-11:34:56.710|56=MA|10=129|
8=FIX.4.4|9=58|35=0|34=156|49=MA|52=20210924-11:34:56.795|56=T1Kauaiblk4|10=188|
8=FIX.4.4|9=58|35=0|34=157|49=MA|52=20210924-11:36:27.609|56=T1Kauaiblk4|10=183|
8=FIX.4.4|9=57|35=0|34=97|49=T1Kauaiblk4|52=20210924-11:36:27.611|56=MA|10=130|
8=FIX.4.4|9=57|35=0|34=98|49=T1Kauaiblk4|52=20210924-11:37:57.701|56=MA|10=135|
8=FIX.4.4|9=58|35=0|34=158|49=MA|52=20210924-11:37:57.699|56=T1Kauaiblk4|10=197|
8=FIX.4.4|9=58|35=0|34=159|49=MA|52=20210924-11:39:27.770|56=T1Kauaiblk4|10=187|
8=FIX.4.4|9=57|35=0|34=99|49=T1Kauaiblk4|52=20210924-11:39:27.769|56=MA|10=149|
8=FIX.4.4|9=58|35=0|34=100|49=T1Kauaiblk4|52=20210924-11:40:58.712|56=MA|10=165|
8=FIX.4.4|9=58|35=0|34=160|49=MA|52=20210924-11:40:58.744|56=T1Kauaiblk4|10=176|
8=FIX.4.4|9=58|35=0|34=161|49=MA|52=20210924-11:42:28.758|56=T1Kauaiblk4|10=181|
8=FIX.4.4|9=58|35=0|34=101|49=T1Kauaiblk4|52=20210924-11:42:28.752|56=MA|10=169|
8=FIX.4.4|9=58|35=0|34=162|49=MA|52=20210924-11:43:59.609|56=T1Kauaiblk4|10=182|
8=FIX.4.4|9=58|35=0|34=102|49=T1Kauaiblk4|52=20210924-11:43:59.610|56=MA|10=168|
8=FIX.4.4|9=58|35=0|34=103|49=T1Kauaiblk4|52=20210924-11:45:29.711|56=MA|10=170|
8=FIX.4.4|9=58|35=0|34=163|49=MA|52=20210924-11:45:29.752|56=T1Kauaiblk4|10=181|
8=FIX.4.4|9=58|35=0|34=104|49=T1Kauaiblk4|52=20210924-11:46:59.714|56=MA|10=178|
8=FIX.4.4|9=58|35=0|34=164|49=MA|52=20210924-11:46:59.802|56=T1Kauaiblk4|10=182|
8=FIX.4.4|9=58|35=0|34=105|49=T1Kauaiblk4|52=20210924-11:48:30.710|56=MA|10=166|
8=FIX.4.4|9=58|35=0|34=165|49=MA|52=20210924-11:48:30.711|56=T1Kauaiblk4|10=173|
8=FIX.4.4|9=58|35=0|34=106|49=T1Kauaiblk4|52=20210924-11:50:00.714|56=MA|10=161|
8=FIX.4.4|9=58|35=0|34=166|49=MA|52=20210924-11:50:00.804|56=T1Kauaiblk4|10=167|
8=FIX.4.4|9=58|35=0|34=167|49=MA|52=20210924-11:51:31.614|56=T1Kauaiblk4|10=172|
8=FIX.4.4|9=58|35=0|34=107|49=T1Kauaiblk4|52=20210924-11:51:31.612|56=MA|10=164|
8=FIX.4.4|9=58|35=0|34=108|49=T1Kauaiblk4|52=20210924-11:53:01.710|56=MA|10=163|
8=FIX.4.4|9=58|35=0|34=168|49=MA|52=20210924-11:53:01.799|56=T1Kauaiblk4|10=186|
8=FIX.4.4|9=58|35=0|34=169|49=MA|52=20210924-11:54:32.609|56=T1Kauaiblk4|10=182|
8=FIX.4.4|9=58|35=0|34=109|49=T1Kauaiblk4|52=20210924-11:54:32.601|56=MA|10=168|
8=FIX.4.4|9=58|35=0|34=110|49=T1Kauaiblk4|52=20210924-11:56:02.704|56=MA|10=163|
8=FIX.4.4|9=58|35=0|34=170|49=MA|52=20210924-11:56:02.731|56=T1Kauaiblk4|10=169|
8=FIX.4.4|9=58|35=0|34=111|49=T1Kauaiblk4|52=20210924-11:57:32.705|56=MA|10=169|
8=FIX.4.4|9=58|35=0|34=171|49=MA|52=20210924-11:57:32.799|56=T1Kauaiblk4|10=188|
8=FIX.4.4|9=58|35=0|34=172|49=MA|52=20210924-11:59:03.616|56=T1Kauaiblk4|10=177|
8=FIX.4.4|9=58|35=0|34=112|49=T1Kauaiblk4|52=20210924-11:59:03.648|56=MA|10=176|
8=FIX.4.4|9=58|35=0|34=113|49=T1Kauaiblk4|52=20210924-12:00:33.701|56=MA|10=157|
8=FIX.4.4|9=58|35=0|34=173|49=MA|52=20210924-12:00:33.794|56=T1Kauaiblk4|10=175|
8=FIX.4.4|9=58|35=0|34=114|49=T1Kauaiblk4|52=20210924-12:02:03.704|56=MA|10=160|
8=FIX.4.4|9=58|35=0|34=174|49=MA|52=20210924-12:02:03.795|56=T1Kauaiblk4|10=176|
8=FIX.4.4|9=58|35=0|34=115|49=T1Kauaiblk4|52=20210924-12:03:33.712|56=MA|10=164|
8=FIX.4.4|9=58|35=0|34=175|49=MA|52=20210924-12:03:33.803|56=T1Kauaiblk4|10=171|
8=FIX.4.4|9=58|35=0|34=116|49=T1Kauaiblk4|52=20210924-12:05:04.702|56=MA|10=164|
8=FIX.4.4|9=58|35=0|34=176|49=MA|52=20210924-12:05:04.793|56=T1Kauaiblk4|10=180|
8=FIX.4.4|9=58|35=0|34=117|49=T1Kauaiblk4|52=20210924-12:06:34.705|56=MA|10=172|
8=FIX.4.4|9=58|35=0|34=177|49=MA|52=20210924-12:06:34.795|56=T1Kauaiblk4|10=187|
8=FIX.4.4|9=58|35=0|34=178|49=MA|52=20210924-12:08:04.930|56=T1Kauaiblk4|10=178|
8=FIX.4.4|9=58|35=0|34=118|49=T1Kauaiblk4|52=20210924-12:08:04.927|56=MA|10=178|
8=FIX.4.4|9=58|35=0|34=119|49=T1Kauaiblk4|52=20210924-12:09:35.705|56=MA|10=178|
8=FIX.4.4|9=58|35=0|34=179|49=MA|52=20210924-12:09:35.739|56=T1Kauaiblk4|10=191|
8=FIX.4.4|9=58|35=0|34=120|49=T1Kauaiblk4|52=20210924-12:11:05.706|56=MA|10=161|
8=FIX.4.4|9=58|35=0|34=180|49=MA|52=20210924-12:11:05.794|56=T1Kauaiblk4|10=174|
8=FIX.4.4|9=58|35=0|34=121|49=T1Kauaiblk4|52=20210924-12:12:35.707|56=MA|10=167|
8=FIX.4.4|9=58|35=0|34=181|49=MA|52=20210924-12:12:35.796|56=T1Kauaiblk4|10=181|
8=FIX.4.4|9=58|35=0|34=122|49=T1Kauaiblk4|52=20210924-12:14:05.707|56=MA|10=167|
8=FIX.4.4|9=58|35=0|34=182|49=MA|52=20210924-12:14:05.796|56=T1Kauaiblk4|10=181|
8=FIX.4.4|9=58|35=0|34=123|49=T1Kauaiblk4|52=20210924-12:15:35.708|56=MA|10=173|
8=FIX.4.4|9=58|35=0|34=183|49=MA|52=20210924-12:15:35.796|56=T1Kauaiblk4|10=186|
8=FIX.4.4|9=58|35=0|34=124|49=T1Kauaiblk4|52=20210924-12:17:05.709|56=MA|10=174|
8=FIX.4.4|9=58|35=0|34=184|49=MA|52=20210924-12:17:05.797|56=T1Kauaiblk4|10=187|
8=FIX.4.4|9=58|35=0|34=125|49=T1Kauaiblk4|52=20210924-12:18:35.710|56=MA|10=171|
8=FIX.4.4|9=58|35=0|34=185|49=MA|52=20210924-12:18:35.799|56=T1Kauaiblk4|10=194|
8=FIX.4.4|9=58|35=0|34=126|49=T1Kauaiblk4|52=20210924-12:20:05.712|56=MA|10=164|
8=FIX.4.4|9=58|35=0|34=186|49=MA|52=20210924-12:20:05.799|56=T1Kauaiblk4|10=185|
8=FIX.4.4|9=58|35=0|34=127|49=T1Kauaiblk4|52=20210924-12:21:36.713|56=MA|10=171|
8=FIX.4.4|9=58|35=0|34=187|49=MA|52=20210924-12:21:36.742|56=T1Kauaiblk4|10=179|
8=FIX.4.4|9=58|35=0|34=128|49=T1Kauaiblk4|52=20210924-12:23:06.713|56=MA|10=171|
8=FIX.4.4|9=58|35=0|34=188|49=MA|52=20210924-12:23:06.747|56=T1Kauaiblk4|10=184|
8=FIX.4.4|9=58|35=0|34=129|49=T1Kauaiblk4|52=20210924-12:24:36.714|56=MA|10=177|
8=FIX.4.4|9=58|35=0|34=189|49=MA|52=20210924-12:24:36.802|56=T1Kauaiblk4|10=181|
8=FIX.4.4|9=58|35=0|34=190|49=MA|52=20210924-12:26:07.605|56=T1Kauaiblk4|10=174|
8=FIX.4.4|9=58|35=0|34=130|49=T1Kauaiblk4|52=20210924-12:26:07.617|56=MA|10=171|
8=FIX.4.4|9=58|35=0|34=131|49=T1Kauaiblk4|52=20210924-12:27:37.714|56=MA|10=174|
8=FIX.4.4|9=58|35=0|34=191|49=MA|52=20210924-12:27:37.853|56=T1Kauaiblk4|10=184|
8=FIX.4.4|9=58|35=0|34=132|49=T1Kauaiblk4|52=20210924-12:29:07.716|56=MA|10=176|
8=FIX.4.4|9=58|35=0|34=192|49=MA|52=20210924-12:29:08.606|56=T1Kauaiblk4|10=181|
8=FIX.4.4|9=58|35=0|34=133|49=T1Kauaiblk4|52=20210924-12:30:37.716|56=MA|10=172|
8=FIX.4.4|9=58|35=0|34=193|49=MA|52=20210924-12:30:38.755|56=T1Kauaiblk4|10=182|
8=FIX.4.4|9=58|35=0|34=134|49=T1Kauaiblk4|52=20210924-12:32:07.716|56=MA|10=172|
8=FIX.4.4|9=58|35=0|34=194|49=MA|52=20210924-12:32:09.607|56=T1Kauaiblk4|10=179|
8=FIX.4.4|9=58|35=0|34=135|49=T1Kauaiblk4|52=20210924-12:33:37.719|56=MA|10=180|
8=FIX.4.4|9=58|35=0|34=195|49=MA|52=20210924-12:33:39.607|56=T1Kauaiblk4|10=184|
8=FIX.4.4|9=58|35=0|34=136|49=T1Kauaiblk4|52=20210924-12:35:08.730|56=MA|10=174|
8=FIX.4.4|9=58|35=0|34=196|49=MA|52=20210924-12:35:09.608|56=T1Kauaiblk4|10=185|
8=FIX.4.4|9=715|35=E|34=137|49=T1Kauaiblk4|52=20210924-12:36:30.368|56=MA|66=ListID-041321-rodrigo-18221|394=2|68=5|73=5|11=ClOrdID-18222|22=4|38=100000|44=100|48=US06051GEN51|54=1|55=[N/A/]|63=3|67=1|423=1|29726=100.25|453=1|448=T1Kauaiblk4|447=C|452=11|11=ClOrdID-18223|22=4|38=100000|44=101|48=US40434AAB52|54=1|55=[N/A]|63=3|67=2|29726=101.25|11=ClOrdID-18224|22=4|38=130000|44=102|48=US95709TAH32|54=1|55=[N/A/]|63=3|67=1|29726=102.25|453=1|448=T1Kauaiblk4|447=C|452=11|11=ClOrdID-18225|22=4|38=250000|44=103|48=US427866AZ15|54=1|55=[N/A/]|63=3|67=1|29726=103.25|453=1|448=T1Kauaiblk4|447=C|452=11|11=ClOrdID-18226|22=4|38=350000|44=104|48=US29379VAW37|54=1|55=[N/A/]|63=3|67=1|29726=104.25|453=1|448=T1Kauaiblk4|447=C|452=11|10=067|
8=FIX.4.4|9=384|35=8|49=MA|56=T1Kauaiblk4|34=197|52=20210924-12:36:30.531|453=1|448=T1Kauaiblk4|447=C|452=11|37=100002766-ClOrdID-18222|11=ClOrdID-18222|66=ListID-041321-rodrigo-18221|17=100002766-ClOrdID-18222-1fsibh|150=8|39=8|103=1|55=[N/A]|54=1|48=US06051GEN51|22=4|5214=100|151=0|38=100000|14=0|6=0|58=MarketAxess does not recognize the CUSIP/ISIN in one or more legs of the inquiry|75=20210924|10=238|
8=FIX.4.4|9=525|35=8|49=MA|56=T1Kauaiblk4|34=198|52=20210924-12:36:30.612|453=2|448=T1Kauaiblk4|447=C|452=11|448=Kauai blkrock company4|447=D|452=13|37=1329272|11=ClOrdID-18223|66=ListID-041321-rodrigo-18221|17=1329272-1fsidn|150=0|39=0|55=[N/A]|54=1|48=US40434AAB52|22=4|454=1|455=40434AAB5|456=1|460=3|167=CORP|541=20260225|223=0.032|106=HSBC BK USA|225=20130225|873=20130225|107=HSBC  3.200  2/25/26 c22|64=20210928|151=100000|15=USD|120=USD|38=100000|14=0|6=0|60=20210924-12:36:30|126=20210924-12:36:30|75=20210924|20117=8347386|30=MTXX|10=055|
8=FIX.4.4|9=529|35=8|49=MA|56=T1Kauaiblk4|34=199|52=20210924-12:36:30.616|453=2|448=T1Kauaiblk4|447=C|452=11|448=Kauai blkrock company4|447=D|452=13|37=1329275|11=ClOrdID-18226|66=ListID-041321-rodrigo-18221|17=1329275-1fsidq|150=0|39=0|55=[N/A]|54=1|48=US29379VAW37|22=4|454=1|455=29379VAW3|456=1|460=3|167=CORP|541=20420815|223=0.0485|106=ENTERPRISE PROD|225=20120215|873=20120215|107=EPD  4.850  8/15/42 c42|64=20210928|151=350000|15=USD|120=USD|38=350000|14=0|6=0|60=20210924-12:36:30|126=20210924-12:36:30|75=20210924|20117=8347389|30=MTXX|10=085|
8=FIX.4.4|9=528|35=8|49=MA|56=T1Kauaiblk4|34=200|52=20210924-12:36:30.625|453=2|448=T1Kauaiblk4|447=C|452=11|448=Kauai blkrock company4|447=D|452=13|37=1329273|11=ClOrdID-18224|66=ListID-041321-rodrigo-18221|17=1329273-1fsidp|150=0|39=0|55=[N/A]|54=1|48=US95709TAH32|22=4|454=1|455=95709TAH3|456=1|460=3|167=CORP|541=20420301|223=0.04125|106=EVERGY KANSAS|225=20120301|873=20120301|107=EVRG  4.125  3/1/42 c41|64=20210928|151=130000|15=USD|120=USD|38=130000|14=0|6=0|60=20210924-12:36:30|126=20210924-12:36:30|75=20210924|20117=8347387|30=MTXX|10=156|
8=FIX.4.4|9=522|35=8|49=MA|56=T1Kauaiblk4|34=201|52=20210924-12:36:30.633|453=2|448=T1Kauaiblk4|447=C|452=11|448=Kauai blkrock company4|447=D|452=13|37=1329274|11=ClOrdID-18225|66=ListID-041321-rodrigo-18221|17=1329274-1fsidp|150=0|39=0|55=[N/A]|54=1|48=US427866AZ15|22=4|454=1|455=427866AZ1|456=1|460=3|167=CORP|541=20230515|223=0.03375|106=HERSHEY|225=20180510|873=20180510|107=HSY  3.375  5/15/23 c23|64=20210928|151=250000|15=USD|120=USD|38=250000|14=0|6=0|60=20210924-12:36:30|126=20210924-12:36:30|75=20210924|20117=8347388|30=MTXX|10=254|
8=FIX.4.4|9=58|35=0|34=138|49=T1Kauaiblk4|52=20210924-12:38:00.728|56=MA|10=178|
8=FIX.4.4|9=58|35=0|34=202|49=MA|52=20210924-12:38:00.748|56=T1Kauaiblk4|10=172|
8=FIX.4.4|9=58|35=0|34=139|49=T1Kauaiblk4|52=20210924-12:39:30.730|56=MA|10=176|
8=FIX.4.4|9=58|35=0|34=203|49=MA|52=20210924-12:39:30.866|56=T1Kauaiblk4|10=178|
8=FIX.4.4|9=715|35=E|34=140|49=T1Kauaiblk4|52=20210924-12:39:41.220|56=MA|66=ListID-041321-rodrigo-18227|394=2|68=5|73=5|11=ClOrdID-18228|22=4|38=100000|44=100|48=US06051GEN51|54=1|55=[N/A/]|63=3|67=1|423=1|29726=100.25|453=1|448=T1Kauaiblk4|447=C|452=11|11=ClOrdID-18229|22=4|38=100000|44=101|48=US40434AAB52|54=1|55=[N/A]|63=3|67=2|29726=101.25|11=ClOrdID-18230|22=4|38=130000|44=102|48=US95709TAH32|54=1|55=[N/A/]|63=3|67=1|29726=102.25|453=1|448=T1Kauaiblk4|447=C|452=11|11=ClOrdID-18231|22=4|38=250000|44=103|48=US427866AZ15|54=1|55=[N/A/]|63=3|67=1|29726=103.25|453=1|448=T1Kauaiblk4|447=C|452=11|11=ClOrdID-18232|22=4|38=350000|44=104|48=US29379VAW37|54=1|55=[N/A/]|63=3|67=1|29726=104.25|453=1|448=T1Kauaiblk4|447=C|452=11|10=062|
8=FIX.4.4|9=384|35=8|49=MA|56=T1Kauaiblk4|34=204|52=20210924-12:39:41.390|453=1|448=T1Kauaiblk4|447=C|452=11|37=100002766-ClOrdID-18228|11=ClOrdID-18228|66=ListID-041321-rodrigo-18227|17=100002766-ClOrdID-18228-1fwll3|150=8|39=8|103=1|55=[N/A]|54=1|48=US06051GEN51|22=4|5214=100|151=0|38=100000|14=0|6=0|58=MarketAxess does not recognize the CUSIP/ISIN in one or more legs of the inquiry|75=20210924|10=223|
8=FIX.4.4|9=528|35=8|49=MA|56=T1Kauaiblk4|34=205|52=20210924-12:39:41.499|453=2|448=T1Kauaiblk4|447=C|452=11|448=Kauai blkrock company4|447=D|452=13|37=1329282|11=ClOrdID-18230|66=ListID-041321-rodrigo-18227|17=1329282-1fwlo4|150=0|39=0|55=[N/A]|54=1|48=US95709TAH32|22=4|454=1|455=95709TAH3|456=1|460=3|167=CORP|541=20420301|223=0.04125|106=EVERGY KANSAS|225=20120301|873=20120301|107=EVRG  4.125  3/1/42 c41|64=20210928|151=130000|15=USD|120=USD|38=130000|14=0|6=0|60=20210924-12:39:41|126=20210924-12:39:41|75=20210924|20117=8347405|30=MTXX|10=137|
8=FIX.4.4|9=525|35=8|49=MA|56=T1Kauaiblk4|34=206|52=20210924-12:39:41.503|453=2|448=T1Kauaiblk4|447=C|452=11|448=Kauai blkrock company4|447=D|452=13|37=1329281|11=ClOrdID-18229|66=ListID-041321-rodrigo-18227|17=1329281-1fwlo5|150=0|39=0|55=[N/A]|54=1|48=US40434AAB52|22=4|454=1|455=40434AAB5|456=1|460=3|167=CORP|541=20260225|223=0.032|106=HSBC BK USA|225=20130225|873=20130225|107=HSBC  3.200  2/25/26 c22|64=20210928|151=100000|15=USD|120=USD|38=100000|14=0|6=0|60=20210924-12:39:41|126=20210924-12:39:41|75=20210924|20117=8347404|30=MTXX|10=023|
8=FIX.4.4|9=529|35=8|49=MA|56=T1Kauaiblk4|34=207|52=20210924-12:39:41.507|453=2|448=T1Kauaiblk4|447=C|452=11|448=Kauai blkrock company4|447=D|452=13|37=1329284|11=ClOrdID-18232|66=ListID-041321-rodrigo-18227|17=1329284-1fwlo6|150=0|39=0|55=[N/A]|54=1|48=US29379VAW37|22=4|454=1|455=29379VAW3|456=1|460=3|167=CORP|541=20420815|223=0.0485|106=ENTERPRISE PROD|225=20120215|873=20120215|107=EPD  4.850  8/15/42 c42|64=20210928|151=350000|15=USD|120=USD|38=350000|14=0|6=0|60=20210924-12:39:41|126=20210924-12:39:41|75=20210924|20117=8347407|30=MTXX|10=042|
8=FIX.4.4|9=522|35=8|49=MA|56=T1Kauaiblk4|34=208|52=20210924-12:39:41.516|453=2|448=T1Kauaiblk4|447=C|452=11|448=Kauai blkrock company4|447=D|452=13|37=1329283|11=ClOrdID-18231|66=ListID-041321-rodrigo-18227|17=1329283-1fwlo7|150=0|39=0|55=[N/A]|54=1|48=US427866AZ15|22=4|454=1|455=427866AZ1|456=1|460=3|167=CORP|541=20230515|223=0.03375|106=HERSHEY|225=20180510|873=20180510|107=HSY  3.375  5/15/23 c23|64=20210928|151=250000|15=USD|120=USD|38=250000|14=0|6=0|60=20210924-12:39:41|126=20210924-12:39:41|75=20210924|20117=8347406|30=MTXX|10=231|
8=FIX.4.4|9=58|35=0|34=209|49=MA|52=20210924-12:41:11.649|56=T1Kauaiblk4|10=175|
8=FIX.4.4|9=58|35=0|34=141|49=T1Kauaiblk4|52=20210924-12:41:11.660|56=MA|10=163|
8=FIX.4.4|9=58|35=0|34=142|49=T1Kauaiblk4|52=20210924-12:42:41.733|56=MA|10=169|
8=FIX.4.4|9=58|35=0|34=210|49=MA|52=20210924-12:42:41.745|56=T1Kauaiblk4|10=168|
8=FIX.4.4|9=58|35=0|34=211|49=MA|52=20210924-12:44:11.748|56=T1Kauaiblk4|10=171|
8=FIX.4.4|9=58|35=0|34=143|49=T1Kauaiblk4|52=20210924-12:44:11.753|56=MA|10=171|
8=FIX.4.4|9=58|35=0|34=212|49=MA|52=20210924-12:45:41.752|56=T1Kauaiblk4|10=171|
8=FIX.4.4|9=58|35=0|34=144|49=T1Kauaiblk4|52=20210924-12:45:41.761|56=MA|10=175|
8=FIX.4.4|9=58|35=0|34=145|49=T1Kauaiblk4|52=20210924-12:47:12.721|56=MA|10=172|
8=FIX.4.4|9=58|35=0|34=213|49=MA|52=20210924-12:47:12.754|56=T1Kauaiblk4|10=174|
8=FIX.4.4|9=58|35=0|34=146|49=T1Kauaiblk4|52=20210924-12:48:42.722|56=MA|10=178|
8=FIX.4.4|9=58|35=0|34=214|49=MA|52=20210924-12:48:42.809|56=T1Kauaiblk4|10=180|
8=FIX.4.4|9=58|35=0|34=147|49=T1Kauaiblk4|52=20210924-12:50:12.724|56=MA|10=171|
8=FIX.4.4|9=58|35=0|34=215|49=MA|52=20210924-12:50:12.809|56=T1Kauaiblk4|10=171|
8=FIX.4.4|9=58|35=0|34=148|49=T1Kauaiblk4|52=20210924-12:51:42.724|56=MA|10=176|
8=FIX.4.4|9=58|35=0|34=216|49=MA|52=20210924-12:51:42.809|56=T1Kauaiblk4|10=176|
8=FIX.4.4|9=58|35=0|34=149|49=T1Kauaiblk4|52=20210924-12:53:13.725|56=MA|10=178|
8=FIX.4.4|9=58|35=0|34=217|49=MA|52=20210924-12:53:13.798|56=T1Kauaiblk4|10=184|
8=FIX.4.4|9=58|35=0|34=150|49=T1Kauaiblk4|52=20210924-12:54:43.725|56=MA|10=174|
8=FIX.4.4|9=58|35=0|34=218|49=MA|52=20210924-12:54:43.812|56=T1Kauaiblk4|10=176|
8=FIX.4.4|9=58|35=0|34=151|49=T1Kauaiblk4|52=20210924-12:56:13.733|56=MA|10=173|
8=FIX.4.4|9=58|35=0|34=219|49=MA|52=20210924-12:56:13.818|56=T1Kauaiblk4|10=182|
8=FIX.4.4|9=58|35=0|34=152|49=T1Kauaiblk4|52=20210924-12:57:44.736|56=MA|10=182|
8=FIX.4.4|9=58|35=0|34=220|49=MA|52=20210924-12:57:44.742|56=T1Kauaiblk4|10=175|
8=FIX.4.4|9=58|35=0|34=153|49=T1Kauaiblk4|52=20210924-12:59:14.738|56=MA|10=184|
8=FIX.4.4|9=58|35=0|34=221|49=MA|52=20210924-12:59:14.824|56=T1Kauaiblk4|10=176|
8=FIX.4.4|9=58|35=0|34=154|49=T1Kauaiblk4|52=20210924-13:00:44.740|56=MA|10=168|
8=FIX.4.4|9=58|35=0|34=222|49=MA|52=20210924-13:00:44.826|56=T1Kauaiblk4|10=169|
8=FIX.4.4|9=58|35=0|34=155|49=T1Kauaiblk4|52=20210924-13:02:14.740|56=MA|10=168|
8=FIX.4.4|9=58|35=0|34=223|49=MA|52=20210924-13:02:14.843|56=T1Kauaiblk4|10=168|
8=FIX.4.4|9=58|35=0|34=224|49=MA|52=20210924-13:03:45.606|56=T1Kauaiblk4|10=171|
8=FIX.4.4|9=58|35=0|34=156|49=T1Kauaiblk4|52=20210924-13:03:45.615|56=MA|10=175|
8=FIX.4.4|9=58|35=0|34=225|49=MA|52=20210924-13:05:15.645|56=T1Kauaiblk4|10=174|
8=FIX.4.4|9=58|35=0|34=157|49=T1Kauaiblk4|52=20210924-13:05:15.648|56=MA|10=181|
8=FIX.4.4|9=58|35=0|34=158|49=T1Kauaiblk4|52=20210924-13:06:45.731|56=MA|10=179|
8=FIX.4.4|9=58|35=0|34=226|49=MA|52=20210924-13:06:45.736|56=T1Kauaiblk4|10=180|
8=FIX.4.4|9=58|35=0|34=227|49=MA|52=20210924-13:08:15.740|56=T1Kauaiblk4|10=175|
8=FIX.4.4|9=58|35=0|34=159|49=T1Kauaiblk4|52=20210924-13:08:15.741|56=MA|10=180|
8=FIX.4.4|9=715|35=E|34=160|49=T1Kauaiblk4|52=20210924-13:09:04.374|56=MA|66=ListID-041321-rodrigo-18233|394=2|68=5|73=5|11=ClOrdID-18234|22=4|38=100000|44=100|48=US06051GEN51|54=1|55=[N/A/]|63=3|67=1|423=1|29726=100.25|453=1|448=T1Kauaiblk4|447=C|452=11|11=ClOrdID-18235|22=4|38=100000|44=101|48=US40434AAB52|54=1|55=[N/A]|63=3|67=2|29726=101.25|11=ClOrdID-18236|22=4|38=130000|44=102|48=US95709TAH32|54=1|55=[N/A/]|63=3|67=1|29726=102.25|453=1|448=T1Kauaiblk4|447=C|452=11|11=ClOrdID-18237|22=4|38=250000|44=103|48=US427866AZ15|54=1|55=[N/A/]|63=3|67=1|29726=103.25|453=1|448=T1Kauaiblk4|447=C|452=11|11=ClOrdID-18238|22=4|38=350000|44=104|48=US29379VAW37|54=1|55=[N/A/]|63=3|67=1|29726=104.25|453=1|448=T1Kauaiblk4|447=C|452=11|10=080|
8=FIX.4.4|9=384|35=8|49=MA|56=T1Kauaiblk4|34=228|52=20210924-13:09:04.589|453=1|448=T1Kauaiblk4|447=C|452=11|37=100002766-ClOrdID-18234|11=ClOrdID-18234|66=ListID-041321-rodrigo-18233|17=100002766-ClOrdID-18234-1gye2w|150=8|39=8|103=1|55=[N/A]|54=1|48=US06051GEN51|22=4|5214=100|151=0|38=100000|14=0|6=0|58=MarketAxess does not recognize the CUSIP/ISIN in one or more legs of the inquiry|75=20210924|10=230|
8=FIX.4.4|9=529|35=8|49=MA|56=T1Kauaiblk4|34=229|52=20210924-13:09:04.660|453=2|448=T1Kauaiblk4|447=C|452=11|448=Kauai blkrock company4|447=D|452=13|37=1329387|11=ClOrdID-18238|66=ListID-041321-rodrigo-18233|17=1329387-1gye4r|150=0|39=0|55=[N/A]|54=1|48=US29379VAW37|22=4|454=1|455=29379VAW3|456=1|460=3|167=CORP|541=20420815|223=0.0485|106=ENTERPRISE PROD|225=20120215|873=20120215|107=EPD  4.850  8/15/42 c42|64=20210928|151=350000|15=USD|120=USD|38=350000|14=0|6=0|60=20210924-13:09:04|126=20210924-13:09:04|75=20210924|20117=8347568|30=MTXX|10=053|
8=FIX.4.4|9=525|35=8|49=MA|56=T1Kauaiblk4|34=230|52=20210924-13:09:04.664|453=2|448=T1Kauaiblk4|447=C|452=11|448=Kauai blkrock company4|447=D|452=13|37=1329384|11=ClOrdID-18235|66=ListID-041321-rodrigo-18233|17=1329384-1gye4q|150=0|39=0|55=[N/A]|54=1|48=US40434AAB52|22=4|454=1|455=40434AAB5|456=1|460=3|167=CORP|541=20260225|223=0.032|106=HSBC BK USA|225=20130225|873=20130225|107=HSBC  3.200  2/25/26 c22|64=20210928|151=100000|15=USD|120=USD|38=100000|14=0|6=0|60=20210924-13:09:04|126=20210924-13:09:04|75=20210924|20117=8347565|30=MTXX|10=026|
8=FIX.4.4|9=528|35=8|49=MA|56=T1Kauaiblk4|34=231|52=20210924-13:09:04.668|453=2|448=T1Kauaiblk4|447=C|452=11|448=Kauai blkrock company4|447=D|452=13|37=1329385|11=ClOrdID-18236|66=ListID-041321-rodrigo-18233|17=1329385-1gye4s|150=0|39=0|55=[N/A]|54=1|48=US95709TAH32|22=4|454=1|455=95709TAH3|456=1|460=3|167=CORP|541=20420301|223=0.04125|106=EVERGY KANSAS|225=20120301|873=20120301|107=EVRG  4.125  3/1/42 c41|64=20210928|151=130000|15=USD|120=USD|38=130000|14=0|6=0|60=20210924-13:09:04|126=20210924-13:09:04|75=20210924|20117=8347566|30=MTXX|10=144|
8=FIX.4.4|9=522|35=8|49=MA|56=T1Kauaiblk4|34=232|52=20210924-13:09:04.677|453=2|448=T1Kauaiblk4|447=C|452=11|448=Kauai blkrock company4|447=D|452=13|37=1329386|11=ClOrdID-18237|66=ListID-041321-rodrigo-18233|17=1329386-1gye4t|150=0|39=0|55=[N/A]|54=1|48=US427866AZ15|22=4|454=1|455=427866AZ1|456=1|460=3|167=CORP|541=20230515|223=0.03375|106=HERSHEY|225=20180510|873=20180510|107=HSY  3.375  5/15/23 c23|64=20210928|151=250000|15=USD|120=USD|38=250000|14=0|6=0|60=20210924-13:09:04|126=20210924-13:09:04|75=20210924|20117=8347567|30=MTXX|10=244|
8=FIX.4.4|9=58|35=0|34=161|49=T1Kauaiblk4|52=20210924-13:10:34.742|56=MA|10=168|
8=FIX.4.4|9=58|35=0|34=233|49=MA|52=20210924-13:10:34.872|56=T1Kauaiblk4|10=172|
8=FIX.4.4|9=58|35=0|34=162|49=T1Kauaiblk4|52=20210924-13:12:04.742|56=MA|10=168|
8=FIX.4.4|9=58|35=0|34=234|49=MA|52=20210924-13:12:05.626|56=T1Kauaiblk4|10=170|
8=FIX.4.4|9=58|35=0|34=163|49=T1Kauaiblk4|52=20210924-13:13:34.743|56=MA|10=174|
8=FIX.4.4|9=58|35=0|34=235|49=MA|52=20210924-13:13:35.940|56=T1Kauaiblk4|10=174|
8=FIX.4.4|9=58|35=0|34=164|49=T1Kauaiblk4|52=20210924-13:15:05.730|56=MA|10=171|
8=FIX.4.4|9=58|35=0|34=236|49=MA|52=20210924-13:15:06.605|56=T1Kauaiblk4|10=173|
8=FIX.4.4|9=58|35=0|34=165|49=T1Kauaiblk4|52=20210924-13:16:35.738|56=MA|10=184|
8=FIX.4.4|9=58|35=0|34=237|49=MA|52=20210924-13:16:36.606|56=T1Kauaiblk4|10=179|
8=FIX.4.4|9=58|35=0|34=166|49=T1Kauaiblk4|52=20210924-13:18:05.742|56=MA|10=179|
8=FIX.4.4|9=58|35=0|34=238|49=MA|52=20210924-13:18:06.745|56=T1Kauaiblk4|10=183|
8=FIX.4.4|9=58|35=0|34=167|49=T1Kauaiblk4|52=20210924-13:19:36.744|56=MA|10=187|
8=FIX.4.4|9=58|35=0|34=239|49=MA|52=20210924-13:19:36.857|56=T1Kauaiblk4|10=192|
8=FIX.4.4|9=58|35=0|34=240|49=MA|52=20210924-13:21:07.622|56=T1Kauaiblk4|10=165|
8=FIX.4.4|9=58|35=0|34=168|49=T1Kauaiblk4|52=20210924-13:21:07.623|56=MA|10=175|
8=FIX.4.4|9=58|35=0|34=169|49=T1Kauaiblk4|52=20210924-13:22:37.732|56=MA|10=181|
8=FIX.4.4|9=58|35=0|34=241|49=MA|52=20210924-13:22:37.754|56=T1Kauaiblk4|10=176|
8=FIX.4.4|9=58|35=0|34=170|49=T1Kauaiblk4|52=20210924-13:24:07.733|56=MA|10=173|
8=FIX.4.4|9=58|35=0|34=242|49=MA|52=20210924-13:24:07.834|56=T1Kauaiblk4|10=175|
8=FIX.4.4|9=58|35=0|34=171|49=T1Kauaiblk4|52=20210924-13:25:37.733|56=MA|10=178|
8=FIX.4.4|9=58|35=0|34=243|49=MA|52=20210924-13:25:38.946|56=T1Kauaiblk4|10=185|
8=FIX.4.4|9=58|35=0|34=172|49=T1Kauaiblk4|52=20210924-13:27:07.733|56=MA|10=178|
8=FIX.4.4|9=58|35=0|34=244|49=MA|52=20210924-13:27:09.645|56=T1Kauaiblk4|10=182|
8=FIX.4.4|9=58|35=0|34=173|49=T1Kauaiblk4|52=20210924-13:28:37.734|56=MA|10=184|
8=FIX.4.4|9=58|35=0|34=245|49=MA|52=20210924-13:28:40.788|56=T1Kauaiblk4|10=187|
8=FIX.4.4|9=715|35=E|34=174|49=T1Kauaiblk4|52=20210924-13:29:22.704|56=MA|66=ListID-041321-rodrigo-18239|394=2|68=5|73=5|11=ClOrdID-18240|22=4|38=100000|44=100|48=US06051GEN51|54=1|55=[N/A/]|63=3|67=1|423=1|29726=100.25|453=1|448=T1Kauaiblk4|447=C|452=11|11=ClOrdID-18241|22=4|38=100000|44=101|48=US40434AAB52|54=1|55=[N/A]|63=3|67=2|29726=101.25|11=ClOrdID-18242|22=4|38=130000|44=102|48=US95709TAH32|54=1|55=[N/A/]|63=3|67=1|29726=102.25|453=1|448=T1Kauaiblk4|447=C|452=11|11=ClOrdID-18243|22=4|38=250000|44=103|48=US427866AZ15|54=1|55=[N/A/]|63=3|67=1|29726=103.25|453=1|448=T1Kauaiblk4|447=C|452=11|11=ClOrdID-18244|22=4|38=350000|44=104|48=US29379VAW37|54=1|55=[N/A/]|63=3|67=1|29726=104.25|453=1|448=T1Kauaiblk4|447=C|452=11|10=075|
8=FIX.4.4|9=384|35=8|49=MA|56=T1Kauaiblk4|34=246|52=20210924-13:29:22.876|453=1|448=T1Kauaiblk4|447=C|452=11|37=100002766-ClOrdID-18240|11=ClOrdID-18240|66=ListID-041321-rodrigo-18239|17=100002766-ClOrdID-18240-1hoi48|150=8|39=8|103=1|55=[N/A]|54=1|48=US06051GEN51|22=4|5214=100|151=0|38=100000|14=0|6=0|58=MarketAxess does not recognize the CUSIP/ISIN in one or more legs of the inquiry|75=20210924|10=162|
8=FIX.4.4|9=529|35=8|49=MA|56=T1Kauaiblk4|34=247|52=20210924-13:29:22.957|453=2|448=T1Kauaiblk4|447=C|452=11|448=Kauai blkrock company4|447=D|452=13|37=1329421|11=ClOrdID-18244|66=ListID-041321-rodrigo-18239|17=1329421-1hoi68|150=0|39=0|55=[N/A]|54=1|48=US29379VAW37|22=4|454=1|455=29379VAW3|456=1|460=3|167=CORP|541=20420815|223=0.0485|106=ENTERPRISE PROD|225=20120215|873=20120215|107=EPD  4.850  8/15/42 c42|64=20210928|151=350000|15=USD|120=USD|38=350000|14=0|6=0|60=20210924-13:29:22|126=20210924-13:29:22|75=20210924|20117=8347648|30=MTXX|10=243|
8=FIX.4.4|9=525|35=8|49=MA|56=T1Kauaiblk4|34=248|52=20210924-13:29:22.964|453=2|448=T1Kauaiblk4|447=C|452=11|448=Kauai blkrock company4|447=D|452=13|37=1329418|11=ClOrdID-18241|66=ListID-041321-rodrigo-18239|17=1329418-1hoi67|150=0|39=0|55=[N/A]|54=1|48=US40434AAB52|22=4|454=1|455=40434AAB5|456=1|460=3|167=CORP|541=20260225|223=0.032|106=HSBC BK USA|225=20130225|873=20130225|107=HSBC  3.200  2/25/26 c22|64=20210928|151=100000|15=USD|120=USD|38=100000|14=0|6=0|60=20210924-13:29:22|126=20210924-13:29:22|75=20210924|20117=8347645|30=MTXX|10=237|
8=FIX.4.4|9=522|35=8|49=MA|56=T1Kauaiblk4|34=249|52=20210924-13:29:22.970|453=2|448=T1Kauaiblk4|447=C|452=11|448=Kauai blkrock company4|447=D|452=13|37=1329420|11=ClOrdID-18243|66=ListID-041321-rodrigo-18239|17=1329420-1hoi69|150=0|39=0|55=[N/A]|54=1|48=US427866AZ15|22=4|454=1|455=427866AZ1|456=1|460=3|167=CORP|541=20230515|223=0.03375|106=HERSHEY|225=20180510|873=20180510|107=HSY  3.375  5/15/23 c23|64=20210928|151=250000|15=USD|120=USD|38=250000|14=0|6=0|60=20210924-13:29:22|126=20210924-13:29:22|75=20210924|20117=8347647|30=MTXX|10=172|
8=FIX.4.4|9=528|35=8|49=MA|56=T1Kauaiblk4|34=250|52=20210924-13:29:22.978|453=2|448=T1Kauaiblk4|447=C|452=11|448=Kauai blkrock company4|447=D|452=13|37=1329419|11=ClOrdID-18242|66=ListID-041321-rodrigo-18239|17=1329419-1hoi6a|150=0|39=0|55=[N/A]|54=1|48=US95709TAH32|22=4|454=1|455=95709TAH3|456=1|460=3|167=CORP|541=20420301|223=0.04125|106=EVERGY KANSAS|225=20120301|873=20120301|107=EVRG  4.125  3/1/42 c41|64=20210928|151=130000|15=USD|120=USD|38=130000|14=0|6=0|60=20210924-13:29:22|126=20210924-13:29:22|75=20210924|20117=8347646|30=MTXX|10=132|
8=FIX.4.4|9=715|35=E|34=175|49=T1Kauaiblk4|52=20210924-13:30:30.930|56=MA|66=ListID-041321-rodrigo-18245|394=2|68=5|73=5|11=ClOrdID-18246|22=4|38=100000|44=100|48=US06051GEN51|54=1|55=[N/A/]|63=3|67=1|423=1|29726=100.25|453=1|448=T1Kauaiblk4|447=C|452=11|11=ClOrdID-18247|22=4|38=100000|44=101|48=US40434AAB52|54=1|55=[N/A]|63=3|67=2|29726=101.25|11=ClOrdID-18248|22=4|38=130000|44=102|48=US95709TAH32|54=1|55=[N/A/]|63=3|67=1|29726=102.25|453=1|448=T1Kauaiblk4|447=C|452=11|11=ClOrdID-18249|22=4|38=250000|44=103|48=US427866AZ15|54=1|55=[N/A/]|63=3|67=1|29726=103.25|453=1|448=T1Kauaiblk4|447=C|452=11|11=ClOrdID-18250|22=4|38=350000|44=104|48=US29379VAW37|54=1|55=[N/A/]|63=3|67=1|29726=104.25|453=1|448=T1Kauaiblk4|447=C|452=11|10=086|
8=FIX.4.4|9=384|35=8|49=MA|56=T1Kauaiblk4|34=251|52=20210924-13:30:31.100|453=1|448=T1Kauaiblk4|447=C|452=11|37=100002766-ClOrdID-18246|11=ClOrdID-18246|66=ListID-041321-rodrigo-18245|17=100002766-ClOrdID-18246-1hpyra|150=8|39=8|103=1|55=[N/A]|54=1|48=US06051GEN51|22=4|5214=100|151=0|38=100000|14=0|6=0|58=MarketAxess does not recognize the CUSIP/ISIN in one or more legs of the inquiry|75=20210924|10=009|
8=FIX.4.4|9=525|35=8|49=MA|56=T1Kauaiblk4|34=252|52=20210924-13:30:31.190|453=2|448=T1Kauaiblk4|447=C|452=11|448=Kauai blkrock company4|447=D|452=13|37=1329425|11=ClOrdID-18247|66=ListID-041321-rodrigo-18245|17=1329425-1hpytb|150=0|39=0|55=[N/A]|54=1|48=US40434AAB52|22=4|454=1|455=40434AAB5|456=1|460=3|167=CORP|541=20260225|223=0.032|106=HSBC BK USA|225=20130225|873=20130225|107=HSBC  3.200  2/25/26 c22|64=20210928|151=100000|15=USD|120=USD|38=100000|14=0|6=0|60=20210924-13:30:31|126=20210924-13:30:31|75=20210924|20117=8347651|30=MTXX|10=061|
8=FIX.4.4|9=528|35=8|49=MA|56=T1Kauaiblk4|34=253|52=20210924-13:30:31.194|453=2|448=T1Kauaiblk4|447=C|452=11|448=Kauai blkrock company4|447=D|452=13|37=1329426|11=ClOrdID-18248|66=ListID-041321-rodrigo-18245|17=1329426-1hpytd|150=0|39=0|55=[N/A]|54=1|48=US95709TAH32|22=4|454=1|455=95709TAH3|456=1|460=3|167=CORP|541=20420301|223=0.04125|106=EVERGY KANSAS|225=20120301|873=20120301|107=EVRG  4.125  3/1/42 c41|64=20210928|151=130000|15=USD|120=USD|38=130000|14=0|6=0|60=20210924-13:30:31|126=20210924-13:30:31|75=20210924|20117=8347652|30=MTXX|10=179|
8=FIX.4.4|9=522|35=8|49=MA|56=T1Kauaiblk4|34=254|52=20210924-13:30:31.206|453=2|448=T1Kauaiblk4|447=C|452=11|448=Kauai blkrock company4|447=D|452=13|37=1329427|11=ClOrdID-18249|66=ListID-041321-rodrigo-18245|17=1329427-1hpytd|150=0|39=0|55=[N/A]|54=1|48=US427866AZ15|22=4|454=1|455=427866AZ1|456=1|460=3|167=CORP|541=20230515|223=0.03375|106=HERSHEY|225=20180510|873=20180510|107=HSY  3.375  5/15/23 c23|64=20210928|151=250000|15=USD|120=USD|38=250000|14=0|6=0|60=20210924-13:30:31|126=20210924-13:30:31|75=20210924|20117=8347653|30=MTXX|10=016|
8=FIX.4.4|9=529|35=8|49=MA|56=T1Kauaiblk4|34=255|52=20210924-13:30:31.214|453=2|448=T1Kauaiblk4|447=C|452=11|448=Kauai blkrock company4|447=D|452=13|37=1329428|11=ClOrdID-18250|66=ListID-041321-rodrigo-18245|17=1329428-1hpyte|150=0|39=0|55=[N/A]|54=1|48=US29379VAW37|22=4|454=1|455=29379VAW3|456=1|460=3|167=CORP|541=20420815|223=0.0485|106=ENTERPRISE PROD|225=20120215|873=20120215|107=EPD  4.850  8/15/42 c42|64=20210928|151=350000|15=USD|120=USD|38=350000|14=0|6=0|60=20210924-13:30:31|126=20210924-13:30:31|75=20210924|20117=8347654|30=MTXX|10=077|
8=FIX.4.4|9=715|35=E|34=176|49=T1Kauaiblk4|52=20210924-13:31:21.886|56=MA|66=ListID-041321-rodrigo-18251|394=2|68=5|73=5|11=ClOrdID-18252|22=4|38=100000|44=100|48=US06051GEN51|54=1|55=[N/A/]|63=3|67=1|423=1|29726=100.25|453=1|448=T1Kauaiblk4|447=C|452=11|11=ClOrdID-18253|22=4|38=100000|44=101|48=US40434AAB52|54=1|55=[N/A]|63=3|67=2|29726=101.25|11=ClOrdID-18254|22=4|38=130000|44=102|48=US95709TAH32|54=1|55=[N/A/]|63=3|67=1|29726=102.25|453=1|448=T1Kauaiblk4|447=C|452=11|11=ClOrdID-18255|22=4|38=250000|44=103|48=US427866AZ15|54=1|55=[N/A/]|63=3|67=1|29726=103.25|453=1|448=T1Kauaiblk4|447=C|452=11|11=ClOrdID-18256|22=4|38=350000|44=104|48=US29379VAW37|54=1|55=[N/A/]|63=3|67=1|29726=104.25|453=1|448=T1Kauaiblk4|447=C|452=11|10=089|
8=FIX.4.4|9=384|35=8|49=MA|56=T1Kauaiblk4|34=256|52=20210924-13:31:22.081|453=1|448=T1Kauaiblk4|447=C|452=11|37=100002766-ClOrdID-18252|11=ClOrdID-18252|66=ListID-041321-rodrigo-18251|17=100002766-ClOrdID-18252-1hr23f|150=8|39=8|103=1|55=[N/A]|54=1|48=US06051GEN51|22=4|5214=100|151=0|38=100000|14=0|6=0|58=MarketAxess does not recognize the CUSIP/ISIN in one or more legs of the inquiry|75=20210924|10=140|
8=FIX.4.4|9=525|35=8|49=MA|56=T1Kauaiblk4|34=257|52=20210924-13:31:22.150|453=2|448=T1Kauaiblk4|447=C|452=11|448=Kauai blkrock company4|447=D|452=13|37=1329438|11=ClOrdID-18253|66=ListID-041321-rodrigo-18251|17=1329438-1hr259|150=0|39=0|55=[N/A]|54=1|48=US40434AAB52|22=4|454=1|455=40434AAB5|456=1|460=3|167=CORP|541=20260225|223=0.032|106=HSBC BK USA|225=20130225|873=20130225|107=HSBC  3.200  2/25/26 c22|64=20210928|151=100000|15=USD|120=USD|38=100000|14=0|6=0|60=20210924-13:31:22|126=20210924-13:31:22|75=20210924|20117=8347665|30=MTXX|10=155|
8=FIX.4.4|9=528|35=8|49=MA|56=T1Kauaiblk4|34=258|52=20210924-13:31:22.161|453=2|448=T1Kauaiblk4|447=C|452=11|448=Kauai blkrock company4|447=D|452=13|37=1329439|11=ClOrdID-18254|66=ListID-041321-rodrigo-18251|17=1329439-1hr25b|150=0|39=0|55=[N/A]|54=1|48=US95709TAH32|22=4|454=1|455=95709TAH3|456=1|460=3|167=CORP|541=20420301|223=0.04125|106=EVERGY KANSAS|225=20120301|873=20120301|107=EVRG  4.125  3/1/42 c41|64=20210928|151=130000|15=USD|120=USD|38=130000|14=0|6=0|60=20210924-13:31:22|126=20210924-13:31:22|75=20210924|20117=8347666|30=MTXX|10=054|
8=FIX.4.4|9=529|35=8|49=MA|56=T1Kauaiblk4|34=259|52=20210924-13:31:22.168|453=2|448=T1Kauaiblk4|447=C|452=11|448=Kauai blkrock company4|447=D|452=13|37=1329441|11=ClOrdID-18256|66=ListID-041321-rodrigo-18251|17=1329441-1hr25c|150=0|39=0|55=[N/A]|54=1|48=US29379VAW37|22=4|454=1|455=29379VAW3|456=1|460=3|167=CORP|541=20420815|223=0.0485|106=ENTERPRISE PROD|225=20120215|873=20120215|107=EPD  4.850  8/15/42 c42|64=20210928|151=350000|15=USD|120=USD|38=350000|14=0|6=0|60=20210924-13:31:22|126=20210924-13:31:22|75=20210924|20117=8347668|30=MTXX|10=212|
8=FIX.4.4|9=522|35=8|49=MA|56=T1Kauaiblk4|34=260|52=20210924-13:31:22.174|453=2|448=T1Kauaiblk4|447=C|452=11|448=Kauai blkrock company4|447=D|452=13|37=1329440|11=ClOrdID-18255|66=ListID-041321-rodrigo-18251|17=1329440-1hr25a|150=0|39=0|55=[N/A]|54=1|48=US427866AZ15|22=4|454=1|455=427866AZ1|456=1|460=3|167=CORP|541=20230515|223=0.03375|106=HERSHEY|225=20180510|873=20180510|107=HSY  3.375  5/15/23 c23|64=20210928|151=250000|15=USD|120=USD|38=250000|14=0|6=0|60=20210924-13:31:22|126=20210924-13:31:22|75=20210924|20117=8347667|30=MTXX|10=130|
8=FIX.4.4|9=58|35=0|34=261|49=MA|52=20210924-13:32:52.630|56=T1Kauaiblk4|10=169|
8=FIX.4.4|9=58|35=0|34=177|49=T1Kauaiblk4|52=20210924-13:32:52.694|56=MA|10=185|
8=FIX.4.4|9=58|35=0|34=178|49=T1Kauaiblk4|52=20210924-13:34:22.734|56=MA|10=180|
8=FIX.4.4|9=58|35=0|34=262|49=MA|52=20210924-13:34:22.824|56=T1Kauaiblk4|10=174|
8=FIX.4.4|9=58|35=0|34=179|49=T1Kauaiblk4|52=20210924-13:35:52.735|56=MA|10=186|
8=FIX.4.4|9=58|35=0|34=263|49=MA|52=20210924-13:35:52.830|56=T1Kauaiblk4|10=176|
8=FIX.4.4|9=58|35=0|34=180|49=T1Kauaiblk4|52=20210924-13:37:22.735|56=MA|10=177|
8=FIX.4.4|9=58|35=0|34=264|49=MA|52=20210924-13:37:22.869|56=T1Kauaiblk4|10=188|
8=FIX.4.4|9=715|35=E|34=181|49=T1Kauaiblk4|52=20210924-13:37:45.883|56=MA|66=ListID-041321-rodrigo-18257|394=2|68=5|73=5|11=ClOrdID-18258|22=4|38=100000|44=100|48=US06051GEN51|54=1|55=[N/A/]|63=3|67=1|423=1|29726=100.25|453=1|448=T1Kauaiblk4|447=C|452=11|11=ClOrdID-18259|22=4|38=100000|44=101|48=US40434AAB52|54=1|55=[N/A]|63=3|67=2|29726=101.25|11=ClOrdID-18260|22=4|38=130000|44=102|48=US95709TAH32|54=1|55=[N/A/]|63=3|67=1|29726=102.25|453=1|448=T1Kauaiblk4|447=C|452=11|11=ClOrdID-18261|22=4|38=250000|44=103|48=US427866AZ15|54=1|55=[N/A/]|63=3|67=1|29726=103.25|453=1|448=T1Kauaiblk4|447=C|452=11|11=ClOrdID-18262|22=4|38=350000|44=104|48=US29379VAW37|54=1|55=[N/A/]|63=3|67=1|29726=104.25|453=1|448=T1Kauaiblk4|447=C|452=11|10=103|
8=FIX.4.4|9=384|35=8|49=MA|56=T1Kauaiblk4|34=265|52=20210924-13:37:46.057|453=1|448=T1Kauaiblk4|447=C|452=11|37=100002766-ClOrdID-18258|11=ClOrdID-18258|66=ListID-041321-rodrigo-18257|17=100002766-ClOrdID-18258-1hzade|150=8|39=8|103=1|55=[N/A]|54=1|48=US06051GEN51|22=4|5214=100|151=0|38=100000|14=0|6=0|58=MarketAxess does not recognize the CUSIP/ISIN in one or more legs of the inquiry|75=20210924|10=026|
8=FIX.4.4|9=525|35=8|49=MA|56=T1Kauaiblk4|34=266|52=20210924-13:37:46.140|453=2|448=T1Kauaiblk4|447=C|452=11|448=Kauai blkrock company4|447=D|452=13|37=1329446|11=ClOrdID-18259|66=ListID-041321-rodrigo-18257|17=1329446-1hzafn|150=0|39=0|55=[N/A]|54=1|48=US40434AAB52|22=4|454=1|455=40434AAB5|456=1|460=3|167=CORP|541=20260225|223=0.032|106=HSBC BK USA|225=20130225|873=20130225|107=HSBC  3.200  2/25/26 c22|64=20210928|151=100000|15=USD|120=USD|38=100000|14=0|6=0|60=20210924-13:37:46|126=20210924-13:37:46|75=20210924|20117=8347690|30=MTXX|10=099|
8=FIX.4.4|9=522|35=8|49=MA|56=T1Kauaiblk4|34=267|52=20210924-13:37:46.144|453=2|448=T1Kauaiblk4|447=C|452=11|448=Kauai blkrock company4|447=D|452=13|37=1329448|11=ClOrdID-18261|66=ListID-041321-rodrigo-18257|17=1329448-1hzafp|150=0|39=0|55=[N/A]|54=1|48=US427866AZ15|22=4|454=1|455=427866AZ1|456=1|460=3|167=CORP|541=20230515|223=0.03375|106=HERSHEY|225=20180510|873=20180510|107=HSY  3.375  5/15/23 c23|64=20210928|151=250000|15=USD|120=USD|38=250000|14=0|6=0|60=20210924-13:37:46|126=20210924-13:37:46|75=20210924|20117=8347692|30=MTXX|10=050|
8=FIX.4.4|9=529|35=8|49=MA|56=T1Kauaiblk4|34=268|52=20210924-13:37:46.147|453=2|448=T1Kauaiblk4|447=C|452=11|448=Kauai blkrock company4|447=D|452=13|37=1329449|11=ClOrdID-18262|66=ListID-041321-rodrigo-18257|17=1329449-1hzafq|150=0|39=0|55=[N/A]|54=1|48=US29379VAW37|22=4|454=1|455=29379VAW3|456=1|460=3|167=CORP|541=20420815|223=0.0485|106=ENTERPRISE PROD|225=20120215|873=20120215|107=EPD  4.850  8/15/42 c42|64=20210928|151=350000|15=USD|120=USD|38=350000|14=0|6=0|60=20210924-13:37:46|126=20210924-13:37:46|75=20210924|20117=8347693|30=MTXX|10=124|
8=FIX.4.4|9=528|35=8|49=MA|56=T1Kauaiblk4|34=269|52=20210924-13:37:46.156|453=2|448=T1Kauaiblk4|447=C|452=11|448=Kauai blkrock company4|447=D|452=13|37=1329447|11=ClOrdID-18260|66=ListID-041321-rodrigo-18257|17=1329447-1hzafy|150=0|39=0|55=[N/A]|54=1|48=US95709TAH32|22=4|454=1|455=95709TAH3|456=1|460=3|167=CORP|541=20420301|223=0.04125|106=EVERGY KANSAS|225=20120301|873=20120301|107=EVRG  4.125  3/1/42 c41|64=20210928|151=130000|15=USD|120=USD|38=130000|14=0|6=0|60=20210924-13:37:46|126=20210924-13:37:46|75=20210924|20117=8347691|30=MTXX|10=222|
8=FIX.4.4|9=715|35=E|34=182|49=T1Kauaiblk4|52=20210924-13:38:15.748|56=MA|66=ListID-041321-rodrigo-18263|394=2|68=5|73=5|11=ClOrdID-18264|22=4|38=100000|44=100|48=US06051GEN51|54=1|55=[N/A/]|63=3|67=1|423=1|29726=100.25|453=1|448=T1Kauaiblk4|447=C|452=11|11=ClOrdID-18265|22=4|38=100000|44=101|48=US40434AAB52|54=1|55=[N/A]|63=3|67=2|29726=101.25|11=ClOrdID-18266|22=4|38=130000|44=102|48=US95709TAH32|54=1|55=[N/A/]|63=3|67=1|29726=102.25|453=1|448=T1Kauaiblk4|447=C|452=11|11=ClOrdID-18267|22=4|38=250000|44=103|48=US427866AZ15|54=1|55=[N/A/]|63=3|67=1|29726=103.25|453=1|448=T1Kauaiblk4|447=C|452=11|11=ClOrdID-18268|22=4|38=350000|44=104|48=US29379VAW37|54=1|55=[N/A/]|63=3|67=1|29726=104.25|453=1|448=T1Kauaiblk4|447=C|452=11|10=111|
