8=FIX.4.4|9=91|35=A|34=1|49=T2Kauaiblk2|52=20210304-11:46:10.860|56=MA|98=0|108=90|95=8|96=3.0.0rc5|141=Y|10=030|
8=FIX.4.4|9=74|35=A|34=1|49=MA|52=20210304-11:46:11.430|56=T2Kauaiblk2|98=0|108=90|141=Y|10=143|
8=FIX.4.4|9=707|35=E|34=2|49=T2Kauaiblk2|52=20210304-11:46:26.023|56=MA|66=ListID-040321-rodrigo-1708|394=2|68=5|73=5|11=ClOrdID-1709|22=4|38=100000|44=100|48=US06051GEN51|54=1|55=[N/A/]|63=3|67=1|423=1|29726=100.25|453=1|448=T2Kauaiblk2|447=C|452=11|11=ClOrdID-1710|22=4|38=100000|44=101|48=US40434AAB52|54=1|55=[N/A]|63=3|67=2|29726=101.25|11=ClOrdID-1711|22=4|38=130000|44=102|48=US95709TAH32|54=1|55=[N/A/]|63=3|67=1|29726=102.25|453=1|448=T2Kauaiblk2|447=C|452=11|11=ClOrdID-1712|22=4|38=250000|44=103|48=US427866AZ15|54=1|55=[N/A/]|63=3|67=1|29726=103.25|453=1|448=T2Kauaiblk2|447=C|452=11|11=ClOrdID-1713|22=4|38=350000|44=104|48=US29379VAW37|54=1|55=[N/A/]|63=3|67=1|29726=104.25|453=1|448=T2Kauaiblk2|447=C|452=11|10=142|
8=FIX.4.4|9=707|35=E|34=3|49=T2Kauaiblk2|52=20210304-11:46:26.371|56=MA|66=ListID-040321-rodrigo-1714|394=2|68=5|73=5|11=ClOrdID-1715|22=4|38=100000|44=100|48=US06051GEN51|54=1|55=[N/A/]|63=3|67=1|423=1|29726=100.25|453=1|448=T2Kauaiblk2|447=C|452=11|11=ClOrdID-1716|22=4|38=100000|44=101|48=US40434AAB52|54=1|55=[N/A]|63=3|67=2|29726=101.25|11=ClOrdID-1717|22=4|38=130000|44=102|48=US95709TAH32|54=1|55=[N/A/]|63=3|67=1|29726=102.25|453=1|448=T2Kauaiblk2|447=C|452=11|11=ClOrdID-1718|22=4|38=250000|44=103|48=US427866AZ15|54=1|55=[N/A/]|63=3|67=1|29726=103.25|453=1|448=T2Kauaiblk2|447=C|452=11|11=ClOrdID-1719|22=4|38=350000|44=104|48=US29379VAW37|54=1|55=[N/A/]|63=3|67=1|29726=104.25|453=1|448=T2Kauaiblk2|447=C|452=11|10=167|
8=FIX.4.4|9=518|35=8|49=MA|56=T2Kauaiblk2|34=2|52=20210304-11:46:26.382|453=2|448=T2Kauaiblk2|447=C|452=11|448=Kauai blkrock company2|447=D|452=13|37=907331|11=ClOrdID-1710|66=ListID-040321-rodrigo-1708|17=907331-yrf7i|150=0|39=0|55=[N/A]|54=1|48=US40434AAB52|22=4|454=1|455=40434AAB5|456=1|460=3|167=CORP|541=20260225|223=0.032|106=HSBC BK USA|225=20130225|873=20130225|107=HSBC  3.200  2/25/26 c22|64=20210308|151=100000|15=USD|120=USD|38=100000|14=0|6=0|60=20210304-11:46:26|126=20210304-11:46:26|75=20210304|20117=7199263|30=MTXX|10=142|
8=FIX.4.4|9=509|35=8|49=MA|56=T2Kauaiblk2|34=3|52=20210304-11:46:26.391|453=2|448=T2Kauaiblk2|447=C|452=11|448=Kauai blkrock company2|447=D|452=13|37=907330|11=ClOrdID-1709|66=ListID-040321-rodrigo-1708|17=907330-yrf7i|150=0|39=0|55=[N/A]|54=1|48=US06051GEN51|22=4|454=1|455=06051GEN5|456=1|460=3|167=CORP|541=20420207|223=0.05875|106=BOFAML|225=20120207|873=20120207|107=BAC  5.875  2/7/42|64=20210308|151=100000|15=USD|120=USD|38=100000|14=0|6=0|60=20210304-11:46:26|126=20210304-11:46:26|75=20210304|20117=7199262|30=MTXX|10=165|
8=FIX.4.4|9=521|35=8|49=MA|56=T2Kauaiblk2|34=4|52=20210304-11:46:26.400|453=2|448=T2Kauaiblk2|447=C|452=11|448=Kauai blkrock company2|447=D|452=13|37=907332|11=ClOrdID-1711|66=ListID-040321-rodrigo-1708|17=907332-yrf7p|150=0|39=0|55=[N/A]|54=1|48=US95709TAH32|22=4|454=1|455=95709TAH3|456=1|460=3|167=CORP|541=20420301|223=0.04125|106=EVERGY KANSAS|225=20120301|873=20120301|107=EVRG  4.125  3/1/42 c41|64=20210308|151=130000|15=USD|120=USD|38=130000|14=0|6=0|60=20210304-11:46:26|126=20210304-11:46:26|75=20210304|20117=7199264|30=MTXX|10=244|
8=FIX.4.4|9=522|35=8|49=MA|56=T2Kauaiblk2|34=5|52=20210304-11:46:26.408|453=2|448=T2Kauaiblk2|447=C|452=11|448=Kauai blkrock company2|447=D|452=13|37=907334|11=ClOrdID-1713|66=ListID-040321-rodrigo-1708|17=907334-yrf7z|150=0|39=0|55=[N/A]|54=1|48=US29379VAW37|22=4|454=1|455=29379VAW3|456=1|460=3|167=CORP|541=20420815|223=0.0485|106=ENTERPRISE PROD|225=20120215|873=20120215|107=EPD  4.850  8/15/42 c42|64=20210308|151=350000|15=USD|120=USD|38=350000|14=0|6=0|60=20210304-11:46:26|126=20210304-11:46:26|75=20210304|20117=7199266|30=MTXX|10=174|
8=FIX.4.4|9=515|35=8|49=MA|56=T2Kauaiblk2|34=6|52=20210304-11:46:26.412|453=2|448=T2Kauaiblk2|447=C|452=11|448=Kauai blkrock company2|447=D|452=13|37=907333|11=ClOrdID-1712|66=ListID-040321-rodrigo-1708|17=907333-yrf7v|150=0|39=0|55=[N/A]|54=1|48=US427866AZ15|22=4|454=1|455=427866AZ1|456=1|460=3|167=CORP|541=20230515|223=0.03375|106=HERSHEY|225=20180510|873=20180510|107=HSY  3.375  5/15/23 c23|64=20210308|151=250000|15=USD|120=USD|38=250000|14=0|6=0|60=20210304-11:46:26|126=20210304-11:46:26|75=20210304|20117=7199265|30=MTXX|10=106|
8=FIX.4.4|9=518|35=8|49=MA|56=T2Kauaiblk2|34=7|52=20210304-11:46:26.619|453=2|448=T2Kauaiblk2|447=C|452=11|448=Kauai blkrock company2|447=D|452=13|37=907337|11=ClOrdID-1716|66=ListID-040321-rodrigo-1714|17=907337-yrfe6|150=0|39=0|55=[N/A]|54=1|48=US40434AAB52|22=4|454=1|455=40434AAB5|456=1|460=3|167=CORP|541=20260225|223=0.032|106=HSBC BK USA|225=20130225|873=20130225|107=HSBC  3.200  2/25/26 c22|64=20210308|151=100000|15=USD|120=USD|38=100000|14=0|6=0|60=20210304-11:46:26|126=20210304-11:46:26|75=20210304|20117=7199269|30=MTXX|10=166|
8=FIX.4.4|9=521|35=8|49=MA|56=T2Kauaiblk2|34=8|52=20210304-11:46:26.628|453=2|448=T2Kauaiblk2|447=C|452=11|448=Kauai blkrock company2|447=D|452=13|37=907338|11=ClOrdID-1717|66=ListID-040321-rodrigo-1714|17=907338-yrfef|150=0|39=0|55=[N/A]|54=1|48=US95709TAH32|22=4|454=1|455=95709TAH3|456=1|460=3|167=CORP|541=20420301|223=0.04125|106=EVERGY KANSAS|225=20120301|873=20120301|107=EVRG  4.125  3/1/42 c41|64=20210308|151=130000|15=USD|120=USD|38=130000|14=0|6=0|60=20210304-11:46:26|126=20210304-11:46:26|75=20210304|20117=7199270|30=MTXX|10=052|
8=FIX.4.4|9=509|35=8|49=MA|56=T2Kauaiblk2|34=9|52=20210304-11:46:26.632|453=2|448=T2Kauaiblk2|447=C|452=11|448=Kauai blkrock company2|447=D|452=13|37=907336|11=ClOrdID-1715|66=ListID-040321-rodrigo-1714|17=907336-yrfei|150=0|39=0|55=[N/A]|54=1|48=US06051GEN51|22=4|454=1|455=06051GEN5|456=1|460=3|167=CORP|541=20420207|223=0.05875|106=BOFAML|225=20120207|873=20120207|107=BAC  5.875  2/7/42|64=20210308|151=100000|15=USD|120=USD|38=100000|14=0|6=0|60=20210304-11:46:26|126=20210304-11:46:26|75=20210304|20117=7199268|30=MTXX|10=227|
8=FIX.4.4|9=523|35=8|49=MA|56=T2Kauaiblk2|34=10|52=20210304-11:46:26.637|453=2|448=T2Kauaiblk2|447=C|452=11|448=Kauai blkrock company2|447=D|452=13|37=907340|11=ClOrdID-1719|66=ListID-040321-rodrigo-1714|17=907340-yrfem|150=0|39=0|55=[N/A]|54=1|48=US29379VAW37|22=4|454=1|455=29379VAW3|456=1|460=3|167=CORP|541=20420815|223=0.0485|106=ENTERPRISE PROD|225=20120215|873=20120215|107=EPD  4.850  8/15/42 c42|64=20210308|151=350000|15=USD|120=USD|38=350000|14=0|6=0|60=20210304-11:46:26|126=20210304-11:46:26|75=20210304|20117=7199272|30=MTXX|10=250|
8=FIX.4.4|9=516|35=8|49=MA|56=T2Kauaiblk2|34=11|52=20210304-11:46:26.640|453=2|448=T2Kauaiblk2|447=C|452=11|448=Kauai blkrock company2|447=D|452=13|37=907339|11=ClOrdID-1718|66=ListID-040321-rodrigo-1714|17=907339-yrfer|150=0|39=0|55=[N/A]|54=1|48=US427866AZ15|22=4|454=1|455=427866AZ1|456=1|460=3|167=CORP|541=20230515|223=0.03375|106=HERSHEY|225=20180510|873=20180510|107=HSY  3.375  5/15/23 c23|64=20210308|151=250000|15=USD|120=USD|38=250000|14=0|6=0|60=20210304-11:46:26|126=20210304-11:46:26|75=20210304|20117=7199271|30=MTXX|10=208|
8=FIX.4.4|9=707|35=E|34=4|49=T2Kauaiblk2|52=20210304-11:46:26.818|56=MA|66=ListID-040321-rodrigo-1720|394=2|68=5|73=5|11=ClOrdID-1721|22=4|38=100000|44=100|48=US06051GEN51|54=1|55=[N/A/]|63=3|67=1|423=1|29726=100.25|453=1|448=T2Kauaiblk2|447=C|452=11|11=ClOrdID-1722|22=4|38=100000|44=101|48=US40434AAB52|54=1|55=[N/A]|63=3|67=2|29726=101.25|11=ClOrdID-1723|22=4|38=130000|44=102|48=US95709TAH32|54=1|55=[N/A/]|63=3|67=1|29726=102.25|453=1|448=T2Kauaiblk2|447=C|452=11|11=ClOrdID-1724|22=4|38=250000|44=103|48=US427866AZ15|54=1|55=[N/A/]|63=3|67=1|29726=103.25|453=1|448=T2Kauaiblk2|447=C|452=11|11=ClOrdID-1725|22=4|38=350000|44=104|48=US29379VAW37|54=1|55=[N/A/]|63=3|67=1|29726=104.25|453=1|448=T2Kauaiblk2|447=C|452=11|10=156|
8=FIX.4.4|9=510|35=8|49=MA|56=T2Kauaiblk2|34=12|52=20210304-11:46:27.067|453=2|448=T2Kauaiblk2|447=C|452=11|448=Kauai blkrock company2|447=D|452=13|37=907342|11=ClOrdID-1721|66=ListID-040321-rodrigo-1720|17=907342-yrfqo|150=0|39=0|55=[N/A]|54=1|48=US06051GEN51|22=4|454=1|455=06051GEN5|456=1|460=3|167=CORP|541=20420207|223=0.05875|106=BOFAML|225=20120207|873=20120207|107=BAC  5.875  2/7/42|64=20210308|151=100000|15=USD|120=USD|38=100000|14=0|6=0|60=20210304-11:46:27|126=20210304-11:46:26|75=20210304|20117=7199274|30=MTXX|10=012|
8=FIX.4.4|9=522|35=8|49=MA|56=T2Kauaiblk2|34=13|52=20210304-11:46:27.074|453=2|448=T2Kauaiblk2|447=C|452=11|448=Kauai blkrock company2|447=D|452=13|37=907344|11=ClOrdID-1723|66=ListID-040321-rodrigo-1720|17=907344-yrfqv|150=0|39=0|55=[N/A]|54=1|48=US95709TAH32|22=4|454=1|455=95709TAH3|456=1|460=3|167=CORP|541=20420301|223=0.04125|106=EVERGY KANSAS|225=20120301|873=20120301|107=EVRG  4.125  3/1/42 c41|64=20210308|151=130000|15=USD|120=USD|38=130000|14=0|6=0|60=20210304-11:46:27|126=20210304-11:46:26|75=20210304|20117=7199276|30=MTXX|10=116|
8=FIX.4.4|9=516|35=8|49=MA|56=T2Kauaiblk2|34=14|52=20210304-11:46:27.110|453=2|448=T2Kauaiblk2|447=C|452=11|448=Kauai blkrock company2|447=D|452=13|37=907345|11=ClOrdID-1724|66=ListID-040321-rodrigo-1720|17=907345-yrfr4|150=0|39=0|55=[N/A]|54=1|48=US427866AZ15|22=4|454=1|455=427866AZ1|456=1|460=3|167=CORP|541=20230515|223=0.03375|106=HERSHEY|225=20180510|873=20180510|107=HSY  3.375  5/15/23 c23|64=20210308|151=250000|15=USD|120=USD|38=250000|14=0|6=0|60=20210304-11:46:27|126=20210304-11:46:26|75=20210304|20117=7199277|30=MTXX|10=150|
8=FIX.4.4|9=519|35=8|49=MA|56=T2Kauaiblk2|34=15|52=20210304-11:46:27.121|453=2|448=T2Kauaiblk2|447=C|452=11|448=Kauai blkrock company2|447=D|452=13|37=907343|11=ClOrdID-1722|66=ListID-040321-rodrigo-1720|17=907343-yrfrr|150=0|39=0|55=[N/A]|54=1|48=US40434AAB52|22=4|454=1|455=40434AAB5|456=1|460=3|167=CORP|541=20260225|223=0.032|106=HSBC BK USA|225=20130225|873=20130225|107=HSBC  3.200  2/25/26 c22|64=20210308|151=100000|15=USD|120=USD|38=100000|14=0|6=0|60=20210304-11:46:27|126=20210304-11:46:26|75=20210304|20117=7199275|30=MTXX|10=006|
8=FIX.4.4|9=523|35=8|49=MA|56=T2Kauaiblk2|34=16|52=20210304-11:46:27.125|453=2|448=T2Kauaiblk2|447=C|452=11|448=Kauai blkrock company2|447=D|452=13|37=907346|11=ClOrdID-1725|66=ListID-040321-rodrigo-1720|17=907346-yrfro|150=0|39=0|55=[N/A]|54=1|48=US29379VAW37|22=4|454=1|455=29379VAW3|456=1|460=3|167=CORP|541=20420815|223=0.0485|106=ENTERPRISE PROD|225=20120215|873=20120215|107=EPD  4.850  8/15/42 c42|64=20210308|151=350000|15=USD|120=USD|38=350000|14=0|6=0|60=20210304-11:46:27|126=20210304-11:46:26|75=20210304|20117=7199278|30=MTXX|10=021|
8=FIX.4.4|9=56|35=0|34=5|49=T2Kauaiblk2|52=20210304-11:47:56.860|56=MA|10=071|
8=FIX.4.4|9=57|35=0|34=17|49=MA|52=20210304-11:47:57.773|56=T2Kauaiblk2|10=127|
8=FIX.4.4|9=56|35=0|34=6|49=T2Kauaiblk2|52=20210304-11:49:26.860|56=MA|10=071|
8=FIX.4.4|9=57|35=0|34=18|49=MA|52=20210304-11:49:27.816|56=T2Kauaiblk2|10=125|
8=FIX.4.4|9=624|35=8|49=MA|56=T2Kauaiblk2|34=19|52=20210304-11:50:00.351|453=2|448=T2Kauaiblk2|447=C|452=11|448=Kauai blkrock company2|447=D|452=13|37=907343|11=ClOrdID-1722|66=ListID-040321-rodrigo-1720|17=907343-yw0ak|150=4|19=907343-yrfrr|39=4|55=[N/A]|54=1|48=US40434AAB52|22=4|454=1|455=40434AAB5|456=1|460=3|167=CORP|541=20260225|223=0.032|106=HSBC BK USA|225=20130225|873=20130225|107=HSBC  3.200  2/25/26 c22|64=20210308|9690=1|9691=BRSE|9692=B|9697=Timed Out|7761=1|151=0|15=USD|120=USD|38=100000|14=0|6=0.0|761=1|699=912810SS8|60=20210304-11:50:00|126=20210304-11:47:14|75=20210304|20117=7199275|30=MTXX|29798=7199275|29799=0.000|10=253|
8=FIX.4.4|9=672|35=8|49=MA|56=T2Kauaiblk2|34=20|52=20210304-11:50:00.363|453=2|448=T2Kauaiblk2|447=C|452=11|448=Kauai blkrock company2|447=D|452=13|37=907345|11=ClOrdID-1724|66=ListID-040321-rodrigo-1720|17=907345-yw0b4|150=4|19=907345-yrfr4|39=4|55=[N/A]|54=1|48=US427866AZ15|22=4|454=1|455=427866AZ1|456=1|460=3|167=CORP|541=20230515|223=0.03375|106=HERSHEY|225=20180510|873=20180510|107=HSY  3.375  5/15/23 c23|64=20210308|9690=1|9691=BRSE|9692=B|9697=Timed Out|7761=1|151=0|15=USD|120=USD|38=250000|14=0|6=0.0|761=1|699=912810SS8|60=20210304-11:50:00|126=20210304-11:47:14|75=20210304|20117=7199277|29706=120.316|29707=120.453|29708=4.99|29709=-1.07|30=MTXX|29798=7199277|29799=0.000|10=246|
8=FIX.4.4|9=679|35=8|49=MA|56=T2Kauaiblk2|34=21|52=20210304-11:50:00.371|453=2|448=T2Kauaiblk2|447=C|452=11|448=Kauai blkrock company2|447=D|452=13|37=907344|11=ClOrdID-1723|66=ListID-040321-rodrigo-1720|17=907344-yw0ah|150=4|19=907344-yrfqv|39=4|55=[N/A]|54=1|48=US95709TAH32|22=4|454=1|455=95709TAH3|456=1|460=3|167=CORP|541=20420301|223=0.04125|106=EVERGY KANSAS|225=20120301|873=20120301|107=EVRG  4.125  3/1/42 c41|64=20210308|9690=1|9691=BRSE|9692=B|9697=Timed Out|7761=1|151=0|15=USD|120=USD|38=130000|14=0|6=0.0|761=1|699=912810SS8|60=20210304-11:50:00|126=20210304-11:47:14|75=20210304|20117=7199276|29706=132.576|29707=133.016|29708=86.17|29709=83.58|30=MTXX|29798=7199276|29799=0.000|10=087|
8=FIX.4.4|9=680|35=8|49=MA|56=T2Kauaiblk2|34=22|52=20210304-11:50:00.376|453=2|448=T2Kauaiblk2|447=C|452=11|448=Kauai blkrock company2|447=D|452=13|37=907346|11=ClOrdID-1725|66=ListID-040321-rodrigo-1720|17=907346-yw0be|150=4|19=907346-yrfro|39=4|55=[N/A]|54=1|48=US29379VAW37|22=4|454=1|455=29379VAW3|456=1|460=3|167=CORP|541=20420815|223=0.0485|106=ENTERPRISE PROD|225=20120215|873=20120215|107=EPD  4.850  8/15/42 c42|64=20210308|9690=1|9691=BRSE|9692=B|9697=Timed Out|7761=1|151=0|15=USD|120=USD|38=350000|14=0|6=0.0|761=1|699=912810SS8|60=20210304-11:50:00|126=20210304-11:47:14|75=20210304|20117=7199278|29706=134.76|29707=135.047|29708=147.14|29709=145.4|30=MTXX|29798=7199278|29799=0.000|10=231|
8=FIX.4.4|9=56|35=0|34=7|49=T2Kauaiblk2|52=20210304-11:50:56.860|56=MA|10=067|
8=FIX.4.4|9=57|35=0|34=23|49=MA|52=20210304-11:51:30.689|56=T2Kauaiblk2|10=116|
8=FIX.4.4|9=56|35=0|34=8|49=T2Kauaiblk2|52=20210304-11:52:26.860|56=MA|10=067|
8=FIX.4.4|9=57|35=0|34=24|49=MA|52=20210304-11:53:00.823|56=T2Kauaiblk2|10=106|
8=FIX.4.4|9=56|35=0|34=9|49=T2Kauaiblk2|52=20210304-11:53:56.861|56=MA|10=073|
8=FIX.4.4|9=57|35=0|34=25|49=MA|52=20210304-11:54:31.819|56=T2Kauaiblk2|10=117|
8=FIX.4.4|9=57|35=0|34=10|49=T2Kauaiblk2|52=20210304-11:55:27.858|56=MA|10=120|
8=FIX.4.4|9=57|35=0|34=26|49=MA|52=20210304-11:56:01.824|56=T2Kauaiblk2|10=113|
8=FIX.4.4|9=57|35=0|34=11|49=T2Kauaiblk2|52=20210304-11:56:57.858|56=MA|10=125|
8=FIX.4.4|9=57|35=0|34=27|49=MA|52=20210304-11:57:31.826|56=T2Kauaiblk2|10=120|
8=FIX.4.4|9=57|35=0|34=12|49=T2Kauaiblk2|52=20210304-11:58:27.858|56=MA|10=125|
8=FIX.4.4|9=57|35=0|34=28|49=MA|52=20210304-11:59:02.701|56=T2Kauaiblk2|10=113|
8=FIX.4.4|9=57|35=0|34=13|49=T2Kauaiblk2|52=20210304-11:59:57.859|56=MA|10=131|
8=FIX.4.4|9=704|35=8|49=MA|56=T2Kauaiblk2|34=29|52=20210304-12:00:00.248|453=2|448=T2Kauaiblk2|447=C|452=11|448=Kauai blkrock company2|447=D|452=13|37=907342|11=ClOrdID-1721|66=ListID-040321-rodrigo-1720|17=907342-z8v66|150=4|19=907342-yrfqo|39=4|55=[N/A]|54=1|48=US06051GEN51|22=4|454=1|455=06051GEN5|456=1|460=3|167=CORP|541=20420207|223=0.05875|106=BOFAML|225=20120207|873=20120207|107=BAC  5.875  2/7/42|64=20210308|9690=1|9691=BRSE|9692=B|9694=110.700|9693=6|5691=137.667|9695=100000|9697=DNT|7761=1|151=0|15=USD|120=USD|38=100000|14=0|6=0.0|761=1|699=912810SS8|60=20210304-12:00:00|126=20210304-11:47:14|75=20210304|20117=7199274|29706=161.31|29707=162.362|29708=86.18|29709=80.9|30=MTXX|29798=7199274|29799=0.000|10=061|
8=FIX.4.4|9=57|35=0|34=14|49=T2Kauaiblk2|52=20210304-12:01:28.859|56=MA|10=118|
8=FIX.4.4|9=57|35=0|34=30|49=MA|52=20210304-12:01:30.822|56=T2Kauaiblk2|10=099|
8=FIX.4.4|9=57|35=0|34=15|49=T2Kauaiblk2|52=20210304-12:02:58.859|56=MA|10=123|
8=FIX.4.4|9=57|35=0|34=31|49=MA|52=20210304-12:03:01.823|56=T2Kauaiblk2|10=101|
8=FIX.4.4|9=57|35=0|34=16|49=T2Kauaiblk2|52=20210304-12:04:28.859|56=MA|10=123|
8=FIX.4.4|9=57|35=0|34=32|49=MA|52=20210304-12:04:32.818|56=T2Kauaiblk2|10=111|
8=FIX.4.4|9=57|35=0|34=17|49=T2Kauaiblk2|52=20210304-12:05:59.857|56=MA|10=127|
8=FIX.4.4|9=57|35=0|34=33|49=MA|52=20210304-12:06:03.825|56=T2Kauaiblk2|10=110|
8=FIX.4.4|9=57|35=0|34=18|49=T2Kauaiblk2|52=20210304-12:07:29.857|56=MA|10=127|
8=FIX.4.4|9=57|35=0|34=34|49=MA|52=20210304-12:07:33.838|56=T2Kauaiblk2|10=119|
8=FIX.4.4|9=57|35=0|34=19|49=T2Kauaiblk2|52=20210304-12:08:59.857|56=MA|10=132|
8=FIX.4.4|9=57|35=0|34=35|49=MA|52=20210304-12:09:04.841|56=T2Kauaiblk2|10=114|
8=FIX.4.4|9=57|35=0|34=20|49=T2Kauaiblk2|52=20210304-12:10:29.857|56=MA|10=114|
8=FIX.4.4|9=57|35=0|34=36|49=MA|52=20210304-12:10:35.682|56=T2Kauaiblk2|10=114|
8=FIX.4.4|9=57|35=0|34=21|49=T2Kauaiblk2|52=20210304-12:11:59.859|56=MA|10=121|
8=FIX.4.4|9=57|35=0|34=37|49=MA|52=20210304-12:12:05.835|56=T2Kauaiblk2|10=114|
8=FIX.4.4|9=57|35=0|34=22|49=T2Kauaiblk2|52=20210304-12:13:30.857|56=MA|10=111|
8=FIX.4.4|9=57|35=0|34=38|49=MA|52=20210304-12:13:36.854|56=T2Kauaiblk2|10=121|
8=FIX.4.4|9=681|35=8|49=MA|56=T2Kauaiblk2|34=39|52=20210304-12:15:00.441|453=2|448=T2Kauaiblk2|447=C|452=11|448=Kauai blkrock company2|447=D|452=13|37=907340|11=ClOrdID-1719|66=ListID-040321-rodrigo-1714|17=907340-zs5sd|150=4|19=907340-yrfem|39=4|55=[N/A]|54=1|48=US29379VAW37|22=4|454=1|455=29379VAW3|456=1|460=3|167=CORP|541=20420815|223=0.0485|106=ENTERPRISE PROD|225=20120215|873=20120215|107=EPD  4.850  8/15/42 c42|64=20210308|9690=1|9691=BRSE|9692=B|9697=Timed Out|7761=1|151=0|15=USD|120=USD|38=350000|14=0|6=0.0|761=1|699=912810SS8|60=20210304-12:15:00|126=20210304-12:12:03|75=20210304|20117=7199272|29706=133.77|29707=134.057|29708=148.13|29709=146.39|30=MTXX|29798=7199272|29799=0.000|10=008|
8=FIX.4.4|9=678|35=8|49=MA|56=T2Kauaiblk2|34=40|52=20210304-12:15:00.454|453=2|448=T2Kauaiblk2|447=C|452=11|448=Kauai blkrock company2|447=D|452=13|37=907338|11=ClOrdID-1717|66=ListID-040321-rodrigo-1714|17=907338-zs5sk|150=4|19=907338-yrfef|39=4|55=[N/A]|54=1|48=US95709TAH32|22=4|454=1|455=95709TAH3|456=1|460=3|167=CORP|541=20420301|223=0.04125|106=EVERGY KANSAS|225=20120301|873=20120301|107=EVRG  4.125  3/1/42 c41|64=20210308|9690=1|9691=BRSE|9692=B|9697=Timed Out|7761=1|151=0|15=USD|120=USD|38=130000|14=0|6=0.0|761=1|699=912810SS8|60=20210304-12:15:00|126=20210304-12:12:03|75=20210304|20117=7199270|29706=130.446|29707=130.886|29708=88.3|29709=85.71|30=MTXX|29798=7199270|29799=0.000|10=034|
8=FIX.4.4|9=624|35=8|49=MA|56=T2Kauaiblk2|34=41|52=20210304-12:15:00.468|453=2|448=T2Kauaiblk2|447=C|452=11|448=Kauai blkrock company2|447=D|452=13|37=907337|11=ClOrdID-1716|66=ListID-040321-rodrigo-1714|17=907337-zs5sy|150=4|19=907337-yrfe6|39=4|55=[N/A]|54=1|48=US40434AAB52|22=4|454=1|455=40434AAB5|456=1|460=3|167=CORP|541=20260225|223=0.032|106=HSBC BK USA|225=20130225|873=20130225|107=HSBC  3.200  2/25/26 c22|64=20210308|9690=1|9691=BRSE|9692=B|9697=Timed Out|7761=1|151=0|15=USD|120=USD|38=100000|14=0|6=0.0|761=1|699=912810SS8|60=20210304-12:15:00|126=20210304-12:12:03|75=20210304|20117=7199269|30=MTXX|29798=7199269|29799=0.000|10=234|
8=FIX.4.4|9=672|35=8|49=MA|56=T2Kauaiblk2|34=42|52=20210304-12:15:00.474|453=2|448=T2Kauaiblk2|447=C|452=11|448=Kauai blkrock company2|447=D|452=13|37=907339|11=ClOrdID-1718|66=ListID-040321-rodrigo-1714|17=907339-zs5t6|150=4|19=907339-yrfer|39=4|55=[N/A]|54=1|48=US427866AZ15|22=4|454=1|455=427866AZ1|456=1|460=3|167=CORP|541=20230515|223=0.03375|106=HERSHEY|225=20180510|873=20180510|107=HSY  3.375  5/15/23 c23|64=20210308|9690=1|9691=BRSE|9692=B|9697=Timed Out|7761=1|151=0|15=USD|120=USD|38=250000|14=0|6=0.0|761=1|699=912810SS8|60=20210304-12:15:00|126=20210304-12:12:03|75=20210304|20117=7199271|29706=121.396|29707=121.533|29708=3.91|29709=-2.15|30=MTXX|29798=7199271|29799=0.000|10=066|
8=FIX.4.4|9=57|35=0|34=23|49=T2Kauaiblk2|52=20210304-12:15:00.859|56=MA|10=113|
8=FIX.4.4|9=57|35=0|34=43|49=MA|52=20210304-12:16:30.724|56=T2Kauaiblk2|10=110|
8=FIX.4.4|9=57|35=0|34=24|49=T2Kauaiblk2|52=20210304-12:16:30.859|56=MA|10=118|
8=FIX.4.4|9=57|35=0|34=44|49=MA|52=20210304-12:18:00.827|56=T2Kauaiblk2|10=114|
8=FIX.4.4|9=57|35=0|34=25|49=T2Kauaiblk2|52=20210304-12:18:00.859|56=MA|10=118|
8=FIX.4.4|9=57|35=0|34=26|49=T2Kauaiblk2|52=20210304-12:19:30.859|56=MA|10=123|
8=FIX.4.4|9=57|35=0|34=45|49=MA|52=20210304-12:19:30.922|56=T2Kauaiblk2|10=115|
8=FIX.4.4|9=57|35=0|34=46|49=MA|52=20210304-12:21:01.687|56=T2Kauaiblk2|10=115|
8=FIX.4.4|9=57|35=0|34=27|49=T2Kauaiblk2|52=20210304-12:21:01.715|56=MA|10=106|
8=FIX.4.4|9=57|35=0|34=28|49=T2Kauaiblk2|52=20210304-12:22:31.859|56=MA|10=120|
8=FIX.4.4|9=57|35=0|34=47|49=MA|52=20210304-12:22:31.833|56=T2Kauaiblk2|10=113|
8=FIX.4.4|9=57|35=0|34=48|49=MA|52=20210304-12:24:01.840|56=T2Kauaiblk2|10=111|
8=FIX.4.4|9=57|35=0|34=29|49=T2Kauaiblk2|52=20210304-12:24:01.867|56=MA|10=119|
8=FIX.4.4|9=706|35=8|49=MA|56=T2Kauaiblk2|34=49|52=20210304-12:25:00.177|453=2|448=T2Kauaiblk2|447=C|452=11|448=Kauai blkrock company2|447=D|452=13|37=907336|11=ClOrdID-1715|66=ListID-040321-rodrigo-1714|17=907336-1050js|150=4|19=907336-yrfei|39=4|55=[N/A]|54=1|48=US06051GEN51|22=4|454=1|455=06051GEN5|456=1|460=3|167=CORP|541=20420207|223=0.05875|106=BOFAML|225=20120207|873=20120207|107=BAC  5.875  2/7/42|64=20210308|9690=1|9691=BRSE|9692=B|9694=110.700|9693=6|5691=137.617|9695=100000|9697=DNT|7761=1|151=0|15=USD|120=USD|38=100000|14=0|6=0.0|761=1|699=912810SS8|60=20210304-12:25:00|126=20210304-12:12:03|75=20210304|20117=7199268|29706=162.64|29707=163.692|29708=84.85|29709=79.57|30=MTXX|29798=7199268|29799=0.000|10=159|
8=FIX.4.4|9=57|35=0|34=30|49=T2Kauaiblk2|52=20210304-12:25:32.858|56=MA|10=116|
8=FIX.4.4|9=57|35=0|34=50|49=MA|52=20210304-12:26:30.683|56=T2Kauaiblk2|10=113|
8=FIX.4.4|9=57|35=0|34=31|49=T2Kauaiblk2|52=20210304-12:27:02.859|56=MA|10=117|
8=FIX.4.4|9=57|35=0|34=51|49=MA|52=20210304-12:28:00.851|56=T2Kauaiblk2|10=110|
8=FIX.4.4|9=57|35=0|34=32|49=T2Kauaiblk2|52=20210304-12:28:33.859|56=MA|10=123|
8=FIX.4.4|9=57|35=0|34=52|49=MA|52=20210304-12:29:31.036|56=T2Kauaiblk2|10=111|
8=FIX.4.4|9=57|35=0|34=33|49=T2Kauaiblk2|52=20210304-12:30:03.860|56=MA|10=106|
8=FIX.4.4|9=651|35=8|49=MA|56=T2Kauaiblk2|34=53|52=20210304-12:31:00.199|453=2|448=T2Kauaiblk2|447=C|452=11|448=Kauai blkrock company2|447=D|452=13|37=907331|11=ClOrdID-1710|66=ListID-040321-rodrigo-1708|17=907331-10cqc7|150=4|19=907331-yrf7i|39=4|55=[N/A]|54=1|48=US40434AAB52|22=4|454=1|455=40434AAB5|456=1|460=3|167=CORP|541=20260225|223=0.032|106=HSBC BK USA|225=20130225|873=20130225|107=HSBC  3.200  2/25/26 c22|64=20210308|9690=1|9691=BRSE|9692=B|9694=113.700|9693=6|9695=100000|9697=DNT|7761=1|151=0|15=USD|120=USD|38=100000|14=0|6=0.0|761=1|699=912810SS8|60=20210304-12:31:00|126=20210304-12:17:09|75=20210304|20117=7199263|30=MTXX|29798=7199263|29799=0.000|10=052|
8=FIX.4.4|9=721|35=8|49=MA|56=T2Kauaiblk2|34=54|52=20210304-12:31:00.227|453=2|448=T2Kauaiblk2|447=C|452=11|448=Kauai blkrock company2|447=D|452=13|37=907334|11=ClOrdID-1713|66=ListID-040321-rodrigo-1708|17=907334-10cqc6|150=4|19=907334-yrf7z|39=4|55=[N/A]|54=1|48=US29379VAW37|22=4|454=1|455=29379VAW3|456=1|460=3|167=CORP|541=20420815|223=0.0485|106=ENTERPRISE PROD|225=20120215|873=20120215|107=EPD  4.850  8/15/42 c42|64=20210308|9690=1|9691=BRSE|9692=B|9694=110.700|9693=6|5691=122.734|9695=350000|9697=DNT|7761=1|151=0|15=USD|120=USD|38=350000|14=0|6=0.0|761=1|699=912810SS8|60=20210304-12:31:00|126=20210304-12:17:09|75=20210304|20117=7199266|29706=133.77|29707=134.057|29708=148.13|29709=146.39|30=MTXX|29798=7199266|29799=0.000|10=219|
8=FIX.4.4|9=718|35=8|49=MA|56=T2Kauaiblk2|34=55|52=20210304-12:31:00.243|453=2|448=T2Kauaiblk2|447=C|452=11|448=Kauai blkrock company2|447=D|452=13|37=907332|11=ClOrdID-1711|66=ListID-040321-rodrigo-1708|17=907332-10cqci|150=4|19=907332-yrf7p|39=4|55=[N/A]|54=1|48=US95709TAH32|22=4|454=1|455=95709TAH3|456=1|460=3|167=CORP|541=20420301|223=0.04125|106=EVERGY KANSAS|225=20120301|873=20120301|107=EVRG  4.125  3/1/42 c41|64=20210308|9690=1|9691=BRSE|9692=B|9694=112.700|9693=6|5691=111.222|9695=130000|9697=DNT|7761=1|151=0|15=USD|120=USD|38=130000|14=0|6=0.0|761=1|699=912810SS8|60=20210304-12:31:00|126=20210304-12:17:09|75=20210304|20117=7199264|29706=130.446|29707=130.886|29708=88.3|29709=85.71|30=MTXX|29798=7199264|29799=0.000|10=250|
8=FIX.4.4|9=712|35=8|49=MA|56=T2Kauaiblk2|34=56|52=20210304-12:31:00.250|453=2|448=T2Kauaiblk2|447=C|452=11|448=Kauai blkrock company2|447=D|452=13|37=907333|11=ClOrdID-1712|66=ListID-040321-rodrigo-1708|17=907333-10cqcu|150=4|19=907333-yrf7v|39=4|55=[N/A]|54=1|48=US427866AZ15|22=4|454=1|455=427866AZ1|456=1|460=3|167=CORP|541=20230515|223=0.03375|106=HERSHEY|225=20180510|873=20180510|107=HSY  3.375  5/15/23 c23|64=20210308|9690=1|9691=BRSE|9692=B|9694=111.700|9693=6|5691=100.019|9695=250000|9697=DNT|7761=1|151=0|15=USD|120=USD|38=250000|14=0|6=0.0|761=1|699=912810SS8|60=20210304-12:31:00|126=20210304-12:17:09|75=20210304|20117=7199265|29706=121.396|29707=121.533|29708=3.91|29709=-2.15|30=MTXX|29798=7199265|29799=0.000|10=083|
8=FIX.4.4|9=706|35=8|49=MA|56=T2Kauaiblk2|34=57|52=20210304-12:31:00.261|453=2|448=T2Kauaiblk2|447=C|452=11|448=Kauai blkrock company2|447=D|452=13|37=907330|11=ClOrdID-1709|66=ListID-040321-rodrigo-1708|17=907330-10cqdb|150=4|19=907330-yrf7i|39=4|55=[N/A]|54=1|48=US06051GEN51|22=4|454=1|455=06051GEN5|456=1|460=3|167=CORP|541=20420207|223=0.05875|106=BOFAML|225=20120207|873=20120207|107=BAC  5.875  2/7/42|64=20210308|9690=1|9691=BRSE|9692=B|9694=114.700|9693=6|5691=136.931|9695=100000|9697=DNT|7761=1|151=0|15=USD|120=USD|38=100000|14=0|6=0.0|761=1|699=912810SS8|60=20210304-12:31:00|126=20210304-12:17:09|75=20210304|20117=7199262|29706=162.64|29707=163.692|29708=84.85|29709=79.57|30=MTXX|29798=7199262|29799=0.000|10=177|
8=FIX.4.4|9=57|35=0|34=34|49=T2Kauaiblk2|52=20210304-12:31:34.859|56=MA|10=120|
8=FIX.4.4|9=57|35=0|34=58|49=MA|52=20210304-12:32:30.683|56=T2Kauaiblk2|10=118|
8=FIX.4.4|9=57|35=5|34=35|49=T2Kauaiblk2|52=20210304-12:32:48.859|56=MA|10=132|
8=FIX.4.4|9=57|35=5|34=59|49=MA|52=20210304-12:32:48.925|56=T2Kauaiblk2|10=132|
8=FIX.4.4|9=91|35=A|34=1|49=T2Kauaiblk2|52=20210304-12:32:50.860|56=MA|98=0|108=90|95=8|96=3.0.0rc5|141=Y|10=030|
8=FIX.4.4|9=74|35=A|34=1|49=MA|52=20210304-12:32:51.434|56=T2Kauaiblk2|98=0|108=90|141=Y|10=147|
8=FIX.4.4|9=707|35=E|34=2|49=T2Kauaiblk2|52=20210304-12:32:55.336|56=MA|66=ListID-040321-rodrigo-1726|394=2|68=5|73=5|11=ClOrdID-1727|22=4|38=100000|44=100|48=US06051GEN51|54=1|55=[N/A/]|63=3|67=1|423=1|29726=100.25|453=1|448=T2Kauaiblk2|447=C|452=11|11=ClOrdID-1728|22=4|38=100000|44=101|48=US40434AAB52|54=1|55=[N/A]|63=3|67=2|29726=101.25|11=ClOrdID-1729|22=4|38=130000|44=102|48=US95709TAH32|54=1|55=[N/A/]|63=3|67=1|29726=102.25|453=1|448=T2Kauaiblk2|447=C|452=11|11=ClOrdID-1730|22=4|38=250000|44=103|48=US427866AZ15|54=1|55=[N/A/]|63=3|67=1|29726=103.25|453=1|448=T2Kauaiblk2|447=C|452=11|11=ClOrdID-1731|22=4|38=350000|44=104|48=US29379VAW37|54=1|55=[N/A/]|63=3|67=1|29726=104.25|453=1|448=T2Kauaiblk2|447=C|452=11|10=165|
8=FIX.4.4|9=510|35=8|49=MA|56=T2Kauaiblk2|34=2|52=20210304-12:32:55.640|453=2|448=T2Kauaiblk2|447=C|452=11|448=Kauai blkrock company2|447=D|452=13|37=907357|11=ClOrdID-1727|66=ListID-040321-rodrigo-1726|17=907357-10f7f0|150=0|39=0|55=[N/A]|54=1|48=US06051GEN51|22=4|454=1|455=06051GEN5|456=1|460=3|167=CORP|541=20420207|223=0.05875|106=BOFAML|225=20120207|873=20120207|107=BAC  5.875  2/7/42|64=20210308|151=100000|15=USD|120=USD|38=100000|14=0|6=0|60=20210304-12:32:55|126=20210304-12:32:55|75=20210304|20117=7199397|30=MTXX|10=081|
8=FIX.4.4|9=519|35=8|49=MA|56=T2Kauaiblk2|34=3|52=20210304-12:32:55.659|453=2|448=T2Kauaiblk2|447=C|452=11|448=Kauai blkrock company2|447=D|452=13|37=907358|11=ClOrdID-1728|66=ListID-040321-rodrigo-1726|17=907358-10f7f2|150=0|39=0|55=[N/A]|54=1|48=US40434AAB52|22=4|454=1|455=40434AAB5|456=1|460=3|167=CORP|541=20260225|223=0.032|106=HSBC BK USA|225=20130225|873=20130225|107=HSBC  3.200  2/25/26 c22|64=20210308|151=100000|15=USD|120=USD|38=100000|14=0|6=0|60=20210304-12:32:55|126=20210304-12:32:55|75=20210304|20117=7199398|30=MTXX|10=090|
8=FIX.4.4|9=516|35=8|49=MA|56=T2Kauaiblk2|34=4|52=20210304-12:32:55.664|453=2|448=T2Kauaiblk2|447=C|452=11|448=Kauai blkrock company2|447=D|452=13|37=907360|11=ClOrdID-1730|66=ListID-040321-rodrigo-1726|17=907360-10f7f9|150=0|39=0|55=[N/A]|54=1|48=US427866AZ15|22=4|454=1|455=427866AZ1|456=1|460=3|167=CORP|541=20230515|223=0.03375|106=HERSHEY|225=20180510|873=20180510|107=HSY  3.375  5/15/23 c23|64=20210308|151=250000|15=USD|120=USD|38=250000|14=0|6=0|60=20210304-12:32:55|126=20210304-12:32:55|75=20210304|20117=7199400|30=MTXX|10=002|
8=FIX.4.4|9=522|35=8|49=MA|56=T2Kauaiblk2|34=5|52=20210304-12:32:55.677|453=2|448=T2Kauaiblk2|447=C|452=11|448=Kauai blkrock company2|447=D|452=13|37=907359|11=ClOrdID-1729|66=ListID-040321-rodrigo-1726|17=907359-10f7fc|150=0|39=0|55=[N/A]|54=1|48=US95709TAH32|22=4|454=1|455=95709TAH3|456=1|460=3|167=CORP|541=20420301|223=0.04125|106=EVERGY KANSAS|225=20120301|873=20120301|107=EVRG  4.125  3/1/42 c41|64=20210308|151=130000|15=USD|120=USD|38=130000|14=0|6=0|60=20210304-12:32:55|126=20210304-12:32:55|75=20210304|20117=7199399|30=MTXX|10=243|
8=FIX.4.4|9=523|35=8|49=MA|56=T2Kauaiblk2|34=6|52=20210304-12:32:55.684|453=2|448=T2Kauaiblk2|447=C|452=11|448=Kauai blkrock company2|447=D|452=13|37=907361|11=ClOrdID-1731|66=ListID-040321-rodrigo-1726|17=907361-10f7fv|150=0|39=0|55=[N/A]|54=1|48=US29379VAW37|22=4|454=1|455=29379VAW3|456=1|460=3|167=CORP|541=20420815|223=0.0485|106=ENTERPRISE PROD|225=20120215|873=20120215|107=EPD  4.850  8/15/42 c42|64=20210308|151=350000|15=USD|120=USD|38=350000|14=0|6=0|60=20210304-12:32:55|126=20210304-12:32:55|75=20210304|20117=7199401|30=MTXX|10=127|
8=FIX.4.4|9=707|35=E|34=3|49=T2Kauaiblk2|52=20210304-12:32:56.078|56=MA|66=ListID-040321-rodrigo-1732|394=2|68=5|73=5|11=ClOrdID-1733|22=4|38=100000|44=100|48=US06051GEN51|54=1|55=[N/A/]|63=3|67=1|423=1|29726=100.25|453=1|448=T2Kauaiblk2|447=C|452=11|11=ClOrdID-1734|22=4|38=100000|44=101|48=US40434AAB52|54=1|55=[N/A]|63=3|67=2|29726=101.25|11=ClOrdID-1735|22=4|38=130000|44=102|48=US95709TAH32|54=1|55=[N/A/]|63=3|67=1|29726=102.25|453=1|448=T2Kauaiblk2|447=C|452=11|11=ClOrdID-1736|22=4|38=250000|44=103|48=US427866AZ15|54=1|55=[N/A/]|63=3|67=1|29726=103.25|453=1|448=T2Kauaiblk2|447=C|452=11|11=ClOrdID-1737|22=4|38=350000|44=104|48=US29379VAW37|54=1|55=[N/A/]|63=3|67=1|29726=104.25|453=1|448=T2Kauaiblk2|447=C|452=11|10=170|
8=FIX.4.4|9=519|35=8|49=MA|56=T2Kauaiblk2|34=7|52=20210304-12:32:56.382|453=2|448=T2Kauaiblk2|447=C|452=11|448=Kauai blkrock company2|447=D|452=13|37=907364|11=ClOrdID-1734|66=ListID-040321-rodrigo-1732|17=907364-10f7z4|150=0|39=0|55=[N/A]|54=1|48=US40434AAB52|22=4|454=1|455=40434AAB5|456=1|460=3|167=CORP|541=20260225|223=0.032|106=HSBC BK USA|225=20130225|873=20130225|107=HSBC  3.200  2/25/26 c22|64=20210308|151=100000|15=USD|120=USD|38=100000|14=0|6=0|60=20210304-12:32:56|126=20210304-12:32:56|75=20210304|20117=7199404|30=MTXX|10=088|
8=FIX.4.4|9=522|35=8|49=MA|56=T2Kauaiblk2|34=8|52=20210304-12:32:56.396|453=2|448=T2Kauaiblk2|447=C|452=11|448=Kauai blkrock company2|447=D|452=13|37=907365|11=ClOrdID-1735|66=ListID-040321-rodrigo-1732|17=907365-10f7z8|150=0|39=0|55=[N/A]|54=1|48=US95709TAH32|22=4|454=1|455=95709TAH3|456=1|460=3|167=CORP|541=20420301|223=0.04125|106=EVERGY KANSAS|225=20120301|873=20120301|107=EVRG  4.125  3/1/42 c41|64=20210308|151=130000|15=USD|120=USD|38=130000|14=0|6=0|60=20210304-12:32:56|126=20210304-12:32:56|75=20210304|20117=7199405|30=MTXX|10=200|
8=FIX.4.4|9=510|35=8|49=MA|56=T2Kauaiblk2|34=9|52=20210304-12:32:56.401|453=2|448=T2Kauaiblk2|447=C|452=11|448=Kauai blkrock company2|447=D|452=13|37=907363|11=ClOrdID-1733|66=ListID-040321-rodrigo-1732|17=907363-10f7zu|150=0|39=0|55=[N/A]|54=1|48=US06051GEN51|22=4|454=1|455=06051GEN5|456=1|460=3|167=CORP|541=20420207|223=0.05875|106=BOFAML|225=20120207|873=20120207|107=BAC  5.875  2/7/42|64=20210308|151=100000|15=USD|120=USD|38=100000|14=0|6=0|60=20210304-12:32:56|126=20210304-12:32:56|75=20210304|20117=7199403|30=MTXX|10=151|
8=FIX.4.4|9=517|35=8|49=MA|56=T2Kauaiblk2|34=10|52=20210304-12:32:56.407|453=2|448=T2Kauaiblk2|447=C|452=11|448=Kauai blkrock company2|447=D|452=13|37=907366|11=ClOrdID-1736|66=ListID-040321-rodrigo-1732|17=907366-10f7zh|150=0|39=0|55=[N/A]|54=1|48=US427866AZ15|22=4|454=1|455=427866AZ1|456=1|460=3|167=CORP|541=20230515|223=0.03375|106=HERSHEY|225=20180510|873=20180510|107=HSY  3.375  5/15/23 c23|64=20210308|151=250000|15=USD|120=USD|38=250000|14=0|6=0|60=20210304-12:32:56|126=20210304-12:32:56|75=20210304|20117=7199406|30=MTXX|10=134|
8=FIX.4.4|9=524|35=8|49=MA|56=T2Kauaiblk2|34=11|52=20210304-12:32:56.414|453=2|448=T2Kauaiblk2|447=C|452=11|448=Kauai blkrock company2|447=D|452=13|37=907367|11=ClOrdID-1737|66=ListID-040321-rodrigo-1732|17=907367-10f7zp|150=0|39=0|55=[N/A]|54=1|48=US29379VAW37|22=4|454=1|455=29379VAW3|456=1|460=3|167=CORP|541=20420815|223=0.0485|106=ENTERPRISE PROD|225=20120215|873=20120215|107=EPD  4.850  8/15/42 c42|64=20210308|151=350000|15=USD|120=USD|38=350000|14=0|6=0|60=20210304-12:32:56|126=20210304-12:32:56|75=20210304|20117=7199407|30=MTXX|10=201|
8=FIX.4.4|9=707|35=E|34=4|49=T2Kauaiblk2|52=20210304-12:32:56.855|56=MA|66=ListID-040321-rodrigo-1738|394=2|68=5|73=5|11=ClOrdID-1739|22=4|38=100000|44=100|48=US06051GEN51|54=1|55=[N/A/]|63=3|67=1|423=1|29726=100.25|453=1|448=T2Kauaiblk2|447=C|452=11|11=ClOrdID-1740|22=4|38=100000|44=101|48=US40434AAB52|54=1|55=[N/A]|63=3|67=2|29726=101.25|11=ClOrdID-1741|22=4|38=130000|44=102|48=US95709TAH32|54=1|55=[N/A/]|63=3|67=1|29726=102.25|453=1|448=T2Kauaiblk2|447=C|452=11|11=ClOrdID-1742|22=4|38=250000|44=103|48=US427866AZ15|54=1|55=[N/A/]|63=3|67=1|29726=103.25|453=1|448=T2Kauaiblk2|447=C|452=11|11=ClOrdID-1743|22=4|38=350000|44=104|48=US29379VAW37|54=1|55=[N/A/]|63=3|67=1|29726=104.25|453=1|448=T2Kauaiblk2|447=C|452=11|10=174|
8=FIX.4.4|9=707|35=E|34=5|49=T2Kauaiblk2|52=20210304-12:32:57.062|56=MA|66=ListID-040321-rodrigo-1744|394=2|68=5|73=5|11=ClOrdID-1745|22=4|38=100000|44=100|48=US06051GEN51|54=1|55=[N/A/]|63=3|67=1|423=1|29726=100.25|453=1|448=T2Kauaiblk2|447=C|452=11|11=ClOrdID-1746|22=4|38=100000|44=101|48=US40434AAB52|54=1|55=[N/A]|63=3|67=2|29726=101.25|11=ClOrdID-1747|22=4|38=130000|44=102|48=US95709TAH32|54=1|55=[N/A/]|63=3|67=1|29726=102.25|453=1|448=T2Kauaiblk2|447=C|452=11|11=ClOrdID-1748|22=4|38=250000|44=103|48=US427866AZ15|54=1|55=[N/A/]|63=3|67=1|29726=103.25|453=1|448=T2Kauaiblk2|447=C|452=11|11=ClOrdID-1749|22=4|38=350000|44=104|48=US29379VAW37|54=1|55=[N/A/]|63=3|67=1|29726=104.25|453=1|448=T2Kauaiblk2|447=C|452=11|10=184|
8=FIX.4.4|9=520|35=8|49=MA|56=T2Kauaiblk2|34=12|52=20210304-12:32:57.132|453=2|448=T2Kauaiblk2|447=C|452=11|448=Kauai blkrock company2|447=D|452=13|37=907370|11=ClOrdID-1740|66=ListID-040321-rodrigo-1738|17=907370-10f8k9|150=0|39=0|55=[N/A]|54=1|48=US40434AAB52|22=4|454=1|455=40434AAB5|456=1|460=3|167=CORP|541=20260225|223=0.032|106=HSBC BK USA|225=20130225|873=20130225|107=HSBC  3.200  2/25/26 c22|64=20210308|151=100000|15=USD|120=USD|38=100000|14=0|6=0|60=20210304-12:32:57|126=20210304-12:32:57|75=20210304|20117=7199410|30=MTXX|10=105|
8=FIX.4.4|9=511|35=8|49=MA|56=T2Kauaiblk2|34=13|52=20210304-12:32:57.139|453=2|448=T2Kauaiblk2|447=C|452=11|448=Kauai blkrock company2|447=D|452=13|37=907369|11=ClOrdID-1739|66=ListID-040321-rodrigo-1738|17=907369-10f8k8|150=0|39=0|55=[N/A]|54=1|48=US06051GEN51|22=4|454=1|455=06051GEN5|456=1|460=3|167=CORP|541=20420207|223=0.05875|106=BOFAML|225=20120207|873=20120207|107=BAC  5.875  2/7/42|64=20210308|151=100000|15=USD|120=USD|38=100000|14=0|6=0|60=20210304-12:32:57|126=20210304-12:32:57|75=20210304|20117=7199409|30=MTXX|10=161|
8=FIX.4.4|9=517|35=8|49=MA|56=T2Kauaiblk2|34=14|52=20210304-12:32:57.148|453=2|448=T2Kauaiblk2|447=C|452=11|448=Kauai blkrock company2|447=D|452=13|37=907372|11=ClOrdID-1742|66=ListID-040321-rodrigo-1738|17=907372-10f8kd|150=0|39=0|55=[N/A]|54=1|48=US427866AZ15|22=4|454=1|455=427866AZ1|456=1|460=3|167=CORP|541=20230515|223=0.03375|106=HERSHEY|225=20180510|873=20180510|107=HSY  3.375  5/15/23 c23|64=20210308|151=250000|15=USD|120=USD|38=250000|14=0|6=0|60=20210304-12:32:57|126=20210304-12:32:57|75=20210304|20117=7199412|30=MTXX|10=119|
8=FIX.4.4|9=524|35=8|49=MA|56=T2Kauaiblk2|34=15|52=20210304-12:32:57.154|453=2|448=T2Kauaiblk2|447=C|452=11|448=Kauai blkrock company2|447=D|452=13|37=907373|11=ClOrdID-1743|66=ListID-040321-rodrigo-1738|17=907373-10f8ki|150=0|39=0|55=[N/A]|54=1|48=US29379VAW37|22=4|454=1|455=29379VAW3|456=1|460=3|167=CORP|541=20420815|223=0.0485|106=ENTERPRISE PROD|225=20120215|873=20120215|107=EPD  4.850  8/15/42 c42|64=20210308|151=350000|15=USD|120=USD|38=350000|14=0|6=0|60=20210304-12:32:57|126=20210304-12:32:57|75=20210304|20117=7199413|30=MTXX|10=182|
8=FIX.4.4|9=523|35=8|49=MA|56=T2Kauaiblk2|34=16|52=20210304-12:32:57.209|453=2|448=T2Kauaiblk2|447=C|452=11|448=Kauai blkrock company2|447=D|452=13|37=907371|11=ClOrdID-1741|66=ListID-040321-rodrigo-1738|17=907371-10f8kt|150=0|39=0|55=[N/A]|54=1|48=US95709TAH32|22=4|454=1|455=95709TAH3|456=1|460=3|167=CORP|541=20420301|223=0.04125|106=EVERGY KANSAS|225=20120301|873=20120301|107=EVRG  4.125  3/1/42 c41|64=20210308|151=130000|15=USD|120=USD|38=130000|14=0|6=0|60=20210304-12:32:57|126=20210304-12:32:57|75=20210304|20117=7199411|30=MTXX|10=028|
8=FIX.4.4|9=523|35=8|49=MA|56=T2Kauaiblk2|34=17|52=20210304-12:32:57.347|453=2|448=T2Kauaiblk2|447=C|452=11|448=Kauai blkrock company2|447=D|452=13|37=907377|11=ClOrdID-1747|66=ListID-040321-rodrigo-1744|17=907377-10f8q9|150=0|39=0|55=[N/A]|54=1|48=US95709TAH32|22=4|454=1|455=95709TAH3|456=1|460=3|167=CORP|541=20420301|223=0.04125|106=EVERGY KANSAS|225=20120301|873=20120301|107=EVRG  4.125  3/1/42 c41|64=20210308|151=130000|15=USD|120=USD|38=130000|14=0|6=0|60=20210304-12:32:57|126=20210304-12:32:57|75=20210304|20117=7199417|30=MTXX|10=000|
8=FIX.4.4|9=511|35=8|49=MA|56=T2Kauaiblk2|34=18|52=20210304-12:32:57.356|453=2|448=T2Kauaiblk2|447=C|452=11|448=Kauai blkrock company2|447=D|452=13|37=907375|11=ClOrdID-1745|66=ListID-040321-rodrigo-1744|17=907375-10f8qd|150=0|39=0|55=[N/A]|54=1|48=US06051GEN51|22=4|454=1|455=06051GEN5|456=1|460=3|167=CORP|541=20420207|223=0.05875|106=BOFAML|225=20120207|873=20120207|107=BAC  5.875  2/7/42|64=20210308|151=100000|15=USD|120=USD|38=100000|14=0|6=0|60=20210304-12:32:57|126=20210304-12:32:57|75=20210304|20117=7199415|30=MTXX|10=202|
8=FIX.4.4|9=524|35=8|49=MA|56=T2Kauaiblk2|34=19|52=20210304-12:32:57.360|453=2|448=T2Kauaiblk2|447=C|452=11|448=Kauai blkrock company2|447=D|452=13|37=907379|11=ClOrdID-1749|66=ListID-040321-rodrigo-1744|17=907379-10f8qf|150=0|39=0|55=[N/A]|54=1|48=US29379VAW37|22=4|454=1|455=29379VAW3|456=1|460=3|167=CORP|541=20420815|223=0.0485|106=ENTERPRISE PROD|225=20120215|873=20120215|107=EPD  4.850  8/15/42 c42|64=20210308|151=350000|15=USD|120=USD|38=350000|14=0|6=0|60=20210304-12:32:57|126=20210304-12:32:57|75=20210304|20117=7199419|30=MTXX|10=209|
8=FIX.4.4|9=520|35=8|49=MA|56=T2Kauaiblk2|34=20|52=20210304-12:32:57.365|453=2|448=T2Kauaiblk2|447=C|452=11|448=Kauai blkrock company2|447=D|452=13|37=907376|11=ClOrdID-1746|66=ListID-040321-rodrigo-1744|17=907376-10f8qk|150=0|39=0|55=[N/A]|54=1|48=US40434AAB52|22=4|454=1|455=40434AAB5|456=1|460=3|167=CORP|541=20260225|223=0.032|106=HSBC BK USA|225=20130225|873=20130225|107=HSBC  3.200  2/25/26 c22|64=20210308|151=100000|15=USD|120=USD|38=100000|14=0|6=0|60=20210304-12:32:57|126=20210304-12:32:57|75=20210304|20117=7199416|30=MTXX|10=189|
8=FIX.4.4|9=517|35=8|49=MA|56=T2Kauaiblk2|34=21|52=20210304-12:32:57.368|453=2|448=T2Kauaiblk2|447=C|452=11|448=Kauai blkrock company2|447=D|452=13|37=907378|11=ClOrdID-1748|66=ListID-040321-rodrigo-1744|17=907378-10f8qp|150=0|39=0|55=[N/A]|54=1|48=US427866AZ15|22=4|454=1|455=427866AZ1|456=1|460=3|167=CORP|541=20230515|223=0.03375|106=HERSHEY|225=20180510|873=20180510|107=HSY  3.375  5/15/23 c23|64=20210308|151=250000|15=USD|120=USD|38=250000|14=0|6=0|60=20210304-12:32:57|126=20210304-12:32:57|75=20210304|20117=7199418|30=MTXX|10=160|
8=FIX.4.4|9=57|35=0|34=22|49=MA|52=20210304-12:34:27.826|56=T2Kauaiblk2|10=116|
8=FIX.4.4|9=56|35=0|34=6|49=T2Kauaiblk2|52=20210304-12:34:27.853|56=MA|10=069|
8=FIX.4.4|9=57|35=0|34=23|49=MA|52=20210304-12:35:57.827|56=T2Kauaiblk2|10=122|
8=FIX.4.4|9=56|35=0|34=7|49=T2Kauaiblk2|52=20210304-12:35:57.856|56=MA|10=077|
8=FIX.4.4|9=56|35=0|34=8|49=T2Kauaiblk2|52=20210304-12:37:27.861|56=MA|10=073|
8=FIX.4.4|9=57|35=0|34=24|49=MA|52=20210304-12:37:27.930|56=T2Kauaiblk2|10=117|
8=FIX.4.4|9=56|35=0|34=9|49=T2Kauaiblk2|52=20210304-12:38:57.861|56=MA|10=078|
8=FIX.4.4|9=57|35=0|34=25|49=MA|52=20210304-12:38:58.816|56=T2Kauaiblk2|10=126|
8=FIX.4.4|9=57|35=0|34=10|49=T2Kauaiblk2|52=20210304-12:40:28.860|56=MA|10=109|
8=FIX.4.4|9=57|35=0|34=26|49=MA|52=20210304-12:40:28.925|56=T2Kauaiblk2|10=118|
8=FIX.4.4|9=57|35=0|34=11|49=T2Kauaiblk2|52=20210304-12:41:58.860|56=MA|10=114|
8=FIX.4.4|9=57|35=0|34=27|49=MA|52=20210304-12:41:58.926|56=T2Kauaiblk2|10=124|
8=FIX.4.4|9=668|35=8|49=MA|56=T2Kauaiblk2|34=28|52=20210304-12:42:00.409|453=2|448=T2Kauaiblk2|447=C|452=11|448=Kauai blkrock company2|447=D|452=13|37=907375|11=ClOrdID-1745|66=ListID-040321-rodrigo-1744|17=907375-10qvrh|150=4|19=907375-10f8qd|39=4|55=[N/A]|54=1|48=US06051GEN51|22=4|454=1|455=06051GEN5|456=1|460=3|167=CORP|541=20420207|223=0.05875|106=BOFAML|225=20120207|873=20120207|107=BAC  5.875  2/7/42|64=20210308|9690=1|9691=BRSE|9692=B|9697=Timed Out|7761=1|151=0|15=USD|120=USD|38=100000|14=0|6=0.0|761=1|699=912810SS8|60=20210304-12:42:00|126=20210304-12:38:01|75=20210304|20117=7199415|29706=163.97|29707=165.022|29708=83.52|29709=78.24|30=MTXX|29798=7199415|29799=0.000|10=185|
8=FIX.4.4|9=57|35=0|34=12|49=T2Kauaiblk2|52=20210304-12:43:28.861|56=MA|10=115|
8=FIX.4.4|9=57|35=0|34=29|49=MA|52=20210304-12:43:30.834|56=T2Kauaiblk2|10=116|
8=FIX.4.4|9=57|35=0|34=13|49=T2Kauaiblk2|52=20210304-12:44:58.861|56=MA|10=120|
8=FIX.4.4|9=57|35=0|34=30|49=MA|52=20210304-12:45:01.830|56=T2Kauaiblk2|10=104|
8=FIX.4.4|9=57|35=0|34=14|49=T2Kauaiblk2|52=20210304-12:46:28.862|56=MA|10=121|
8=FIX.4.4|9=57|35=0|34=31|49=MA|52=20210304-12:46:31.836|56=T2Kauaiblk2|10=115|
8=FIX.4.4|9=57|35=0|34=15|49=T2Kauaiblk2|52=20210304-12:47:59.861|56=MA|10=126|
8=FIX.4.4|9=57|35=0|34=32|49=MA|52=20210304-12:48:02.829|56=T2Kauaiblk2|10=118|
8=FIX.4.4|9=57|35=0|34=16|49=T2Kauaiblk2|52=20210304-12:49:29.861|56=MA|10=126|
8=FIX.4.4|9=57|35=0|34=33|49=MA|52=20210304-12:49:33.815|56=T2Kauaiblk2|10=119|
8=FIX.4.4|9=57|35=0|34=17|49=T2Kauaiblk2|52=20210304-12:50:59.862|56=MA|10=123|
8=FIX.4.4|9=57|35=0|34=34|49=MA|52=20210304-12:51:03.817|56=T2Kauaiblk2|10=112|
8=FIX.4.4|9=722|35=8|49=MA|56=T2Kauaiblk2|34=35|52=20210304-12:52:00.172|453=2|448=T2Kauaiblk2|447=C|452=11|448=Kauai blkrock company2|447=D|452=13|37=907379|11=ClOrdID-1749|66=ListID-040321-rodrigo-1744|17=907379-113qji|150=4|19=907379-10f8qf|39=4|55=[N/A]|54=1|48=US29379VAW37|22=4|454=1|455=29379VAW3|456=1|460=3|167=CORP|541=20420815|223=0.0485|106=ENTERPRISE PROD|225=20120215|873=20120215|107=EPD  4.850  8/15/42 c42|64=20210308|9690=1|9691=BRSE|9692=B|9694=111.700|9693=6|5691=122.567|9695=350000|9697=DNT|7761=1|151=0|15=USD|120=USD|38=350000|14=0|6=0.0|761=1|699=912810SS8|60=20210304-12:52:00|126=20210304-12:38:01|75=20210304|20117=7199419|29706=133.22|29707=133.507|29708=148.68|29709=146.94|30=MTXX|29798=7199419|29799=0.000|10=227|
8=FIX.4.4|9=712|35=8|49=MA|56=T2Kauaiblk2|34=36|52=20210304-12:52:00.180|453=2|448=T2Kauaiblk2|447=C|452=11|448=Kauai blkrock company2|447=D|452=13|37=907378|11=ClOrdID-1748|66=ListID-040321-rodrigo-1744|17=907378-113qjq|150=4|19=907378-10f8qp|39=4|55=[N/A]|54=1|48=US427866AZ15|22=4|454=1|455=427866AZ1|456=1|460=3|167=CORP|541=20230515|223=0.03375|106=HERSHEY|225=20180510|873=20180510|107=HSY  3.375  5/15/23 c23|64=20210308|9690=1|9691=BRSE|9692=B|9694=112.700|9693=6|5691=99.999|9695=250000|9697=DNT|7761=1|151=0|15=USD|120=USD|38=250000|14=0|6=0.0|761=1|699=912810SS8|60=20210304-12:52:00|126=20210304-12:38:01|75=20210304|20117=7199418|29706=120.416|29707=120.553|29708=4.89|29709=-1.17|30=MTXX|29798=7199418|29799=0.000|10=035|
8=FIX.4.4|9=652|35=8|49=MA|56=T2Kauaiblk2|34=37|52=20210304-12:52:00.208|453=2|448=T2Kauaiblk2|447=C|452=11|448=Kauai blkrock company2|447=D|452=13|37=907376|11=ClOrdID-1746|66=ListID-040321-rodrigo-1744|17=907376-113qk2|150=4|19=907376-10f8qk|39=4|55=[N/A]|54=1|48=US40434AAB52|22=4|454=1|455=40434AAB5|456=1|460=3|167=CORP|541=20260225|223=0.032|106=HSBC BK USA|225=20130225|873=20130225|107=HSBC  3.200  2/25/26 c22|64=20210308|9690=1|9691=BRSE|9692=B|9694=222.700|9693=6|9695=100000|9697=DNT|7761=1|151=0|15=USD|120=USD|38=100000|14=0|6=0.0|761=1|699=912810SS8|60=20210304-12:52:00|126=20210304-12:38:01|75=20210304|20117=7199416|30=MTXX|29798=7199416|29799=0.000|10=018|
8=FIX.4.4|9=720|35=8|49=MA|56=T2Kauaiblk2|34=38|52=20210304-12:52:00.219|453=2|448=T2Kauaiblk2|447=C|452=11|448=Kauai blkrock company2|447=D|452=13|37=907377|11=ClOrdID-1747|66=ListID-040321-rodrigo-1744|17=907377-113qka|150=4|19=907377-10f8q9|39=4|55=[N/A]|54=1|48=US95709TAH32|22=4|454=1|455=95709TAH3|456=1|460=3|167=CORP|541=20420301|223=0.04125|106=EVERGY KANSAS|225=20120301|873=20120301|107=EVRG  4.125  3/1/42 c41|64=20210308|9690=1|9691=BRSE|9692=B|9694=113.700|9693=6|5691=111.069|9695=130000|9697=DNT|7761=1|151=0|15=USD|120=USD|38=130000|14=0|6=0.0|761=1|699=912810SS8|60=20210304-12:52:00|126=20210304-12:38:01|75=20210304|20117=7199417|29706=131.486|29707=131.926|29708=87.26|29709=84.67|30=MTXX|29798=7199417|29799=0.000|10=225|
8=FIX.4.4|9=57|35=0|34=18|49=T2Kauaiblk2|52=20210304-12:52:29.862|56=MA|10=123|
8=FIX.4.4|9=57|35=0|34=39|49=MA|52=20210304-12:53:30.806|56=T2Kauaiblk2|10=117|
8=FIX.4.4|9=57|35=0|34=19|49=T2Kauaiblk2|52=20210304-12:53:59.862|56=MA|10=128|
8=FIX.4.4|9=57|35=0|34=40|49=MA|52=20210304-12:55:01.827|56=T2Kauaiblk2|10=112|
8=FIX.4.4|9=57|35=0|34=20|49=T2Kauaiblk2|52=20210304-12:55:29.862|56=MA|10=119|
8=FIX.4.4|9=57|35=0|34=41|49=MA|52=20210304-12:56:32.710|56=T2Kauaiblk2|10=109|
8=FIX.4.4|9=57|35=0|34=21|49=T2Kauaiblk2|52=20210304-12:56:59.862|56=MA|10=124|
8=FIX.4.4|9=57|35=0|34=42|49=MA|52=20210304-12:58:02.817|56=T2Kauaiblk2|10=117|
8=FIX.4.4|9=57|35=0|34=22|49=T2Kauaiblk2|52=20210304-12:58:29.863|56=MA|10=125|
8=FIX.4.4|9=57|35=0|34=43|49=MA|52=20210304-12:59:33.814|56=T2Kauaiblk2|10=120|
8=FIX.4.4|9=57|35=0|34=23|49=T2Kauaiblk2|52=20210304-12:59:59.863|56=MA|10=130|
8=FIX.4.4|9=57|35=0|34=44|49=MA|52=20210304-13:01:04.819|56=T2Kauaiblk2|10=112|
8=FIX.4.4|9=57|35=0|34=24|49=T2Kauaiblk2|52=20210304-13:01:29.863|56=MA|10=116|
8=FIX.4.4|9=57|35=0|34=45|49=MA|52=20210304-13:02:35.830|56=T2Kauaiblk2|10=111|
8=FIX.4.4|9=57|35=0|34=25|49=T2Kauaiblk2|52=20210304-13:02:59.865|56=MA|10=123|
8=FIX.4.4|9=57|35=0|34=46|49=MA|52=20210304-13:04:06.825|56=T2Kauaiblk2|10=116|
8=FIX.4.4|9=57|35=0|34=26|49=T2Kauaiblk2|52=20210304-13:04:29.865|56=MA|10=123|
8=FIX.4.4|9=57|35=0|34=47|49=MA|52=20210304-13:05:37.815|56=T2Kauaiblk2|10=121|
8=FIX.4.4|9=57|35=0|34=27|49=T2Kauaiblk2|52=20210304-13:05:59.866|56=MA|10=129|
8=FIX.4.4|9=57|35=0|34=48|49=MA|52=20210304-13:07:07.823|56=T2Kauaiblk2|10=120|
8=FIX.4.4|9=57|35=0|34=28|49=T2Kauaiblk2|52=20210304-13:07:29.868|56=MA|10=131|
8=FIX.4.4|9=708|35=E|34=29|49=T2Kauaiblk2|52=20210304-13:08:34.521|56=MA|66=ListID-040321-rodrigo-1750|394=2|68=5|73=5|11=ClOrdID-1751|22=4|38=100000|44=100|48=US06051GEN51|54=1|55=[N/A/]|63=3|67=1|423=1|29726=100.25|453=1|448=T2Kauaiblk2|447=C|452=11|11=ClOrdID-1752|22=4|38=100000|44=101|48=US40434AAB52|54=1|55=[N/A]|63=3|67=2|29726=101.25|11=ClOrdID-1753|22=4|38=130000|44=102|48=US95709TAH32|54=1|55=[N/A/]|63=3|67=1|29726=102.25|453=1|448=T2Kauaiblk2|447=C|452=11|11=ClOrdID-1754|22=4|38=250000|44=103|48=US427866AZ15|54=1|55=[N/A/]|63=3|67=1|29726=103.25|453=1|448=T2Kauaiblk2|447=C|452=11|11=ClOrdID-1755|22=4|38=350000|44=104|48=US29379VAW37|54=1|55=[N/A/]|63=3|67=1|29726=104.25|453=1|448=T2Kauaiblk2|447=C|452=11|10=220|
8=FIX.4.4|9=511|35=8|49=MA|56=T2Kauaiblk2|34=49|52=20210304-13:08:34.778|453=2|448=T2Kauaiblk2|447=C|452=11|448=Kauai blkrock company2|447=D|452=13|37=907381|11=ClOrdID-1751|66=ListID-040321-rodrigo-1750|17=907381-11p1zi|150=0|39=0|55=[N/A]|54=1|48=US06051GEN51|22=4|454=1|455=06051GEN5|456=1|460=3|167=CORP|541=20420207|223=0.05875|106=BOFAML|225=20120207|873=20120207|107=BAC  5.875  2/7/42|64=20210308|151=100000|15=USD|120=USD|38=100000|14=0|6=0|60=20210304-13:08:34|126=20210304-13:08:34|75=20210304|20117=7199479|30=MTXX|10=227|
8=FIX.4.4|9=523|35=8|49=MA|56=T2Kauaiblk2|34=50|52=20210304-13:08:34.787|453=2|448=T2Kauaiblk2|447=C|452=11|448=Kauai blkrock company2|447=D|452=13|37=907383|11=ClOrdID-1753|66=ListID-040321-rodrigo-1750|17=907383-11p1zn|150=0|39=0|55=[N/A]|54=1|48=US95709TAH32|22=4|454=1|455=95709TAH3|456=1|460=3|167=CORP|541=20420301|223=0.04125|106=EVERGY KANSAS|225=20120301|873=20120301|107=EVRG  4.125  3/1/42 c41|64=20210308|151=130000|15=USD|120=USD|38=130000|14=0|6=0|60=20210304-13:08:34|126=20210304-13:08:34|75=20210304|20117=7199481|30=MTXX|10=057|
8=FIX.4.4|9=520|35=8|49=MA|56=T2Kauaiblk2|34=51|52=20210304-13:08:34.799|453=2|448=T2Kauaiblk2|447=C|452=11|448=Kauai blkrock company2|447=D|452=13|37=907382|11=ClOrdID-1752|66=ListID-040321-rodrigo-1750|17=907382-11p200|150=0|39=0|55=[N/A]|54=1|48=US40434AAB52|22=4|454=1|455=40434AAB5|456=1|460=3|167=CORP|541=20260225|223=0.032|106=HSBC BK USA|225=20130225|873=20130225|107=HSBC  3.200  2/25/26 c22|64=20210308|151=100000|15=USD|120=USD|38=100000|14=0|6=0|60=20210304-13:08:34|126=20210304-13:08:34|75=20210304|20117=7199480|30=MTXX|10=071|
8=FIX.4.4|9=517|35=8|49=MA|56=T2Kauaiblk2|34=52|52=20210304-13:08:34.808|453=2|448=T2Kauaiblk2|447=C|452=11|448=Kauai blkrock company2|447=D|452=13|37=907384|11=ClOrdID-1754|66=ListID-040321-rodrigo-1750|17=907384-11p205|150=0|39=0|55=[N/A]|54=1|48=US427866AZ15|22=4|454=1|455=427866AZ1|456=1|460=3|167=CORP|541=20230515|223=0.03375|106=HERSHEY|225=20180510|873=20180510|107=HSY  3.375  5/15/23 c23|64=20210308|151=250000|15=USD|120=USD|38=250000|14=0|6=0|60=20210304-13:08:34|126=20210304-13:08:34|75=20210304|20117=7199482|30=MTXX|10=030|
8=FIX.4.4|9=524|35=8|49=MA|56=T2Kauaiblk2|34=53|52=20210304-13:08:34.819|453=2|448=T2Kauaiblk2|447=C|452=11|448=Kauai blkrock company2|447=D|452=13|37=907385|11=ClOrdID-1755|66=ListID-040321-rodrigo-1750|17=907385-11p20a|150=0|39=0|55=[N/A]|54=1|48=US29379VAW37|22=4|454=1|455=29379VAW3|456=1|460=3|167=CORP|541=20420815|223=0.0485|106=ENTERPRISE PROD|225=20120215|873=20120215|107=EPD  4.850  8/15/42 c42|64=20210308|151=350000|15=USD|120=USD|38=350000|14=0|6=0|60=20210304-13:08:34|126=20210304-13:08:34|75=20210304|20117=7199483|30=MTXX|10=137|
8=FIX.4.4|9=708|35=E|34=30|49=T2Kauaiblk2|52=20210304-13:08:35.082|56=MA|66=ListID-040321-rodrigo-1756|394=2|68=5|73=5|11=ClOrdID-1757|22=4|38=100000|44=100|48=US06051GEN51|54=1|55=[N/A/]|63=3|67=1|423=1|29726=100.25|453=1|448=T2Kauaiblk2|447=C|452=11|11=ClOrdID-1758|22=4|38=100000|44=101|48=US40434AAB52|54=1|55=[N/A]|63=3|67=2|29726=101.25|11=ClOrdID-1759|22=4|38=130000|44=102|48=US95709TAH32|54=1|55=[N/A/]|63=3|67=1|29726=102.25|453=1|448=T2Kauaiblk2|447=C|452=11|11=ClOrdID-1760|22=4|38=250000|44=103|48=US427866AZ15|54=1|55=[N/A/]|63=3|67=1|29726=103.25|453=1|448=T2Kauaiblk2|447=C|452=11|11=ClOrdID-1761|22=4|38=350000|44=104|48=US29379VAW37|54=1|55=[N/A/]|63=3|67=1|29726=104.25|453=1|448=T2Kauaiblk2|447=C|452=11|10=233|
8=FIX.4.4|9=511|35=8|49=MA|56=T2Kauaiblk2|34=54|52=20210304-13:08:35.320|453=2|448=T2Kauaiblk2|447=C|452=11|448=Kauai blkrock company2|447=D|452=13|37=907387|11=ClOrdID-1757|66=ListID-040321-rodrigo-1756|17=907387-11p2eq|150=0|39=0|55=[N/A]|54=1|48=US06051GEN51|22=4|454=1|455=06051GEN5|456=1|460=3|167=CORP|541=20420207|223=0.05875|106=BOFAML|225=20120207|873=20120207|107=BAC  5.875  2/7/42|64=20210308|151=100000|15=USD|120=USD|38=100000|14=0|6=0|60=20210304-13:08:35|126=20210304-13:08:35|75=20210304|20117=7199485|30=MTXX|10=218|
8=FIX.4.4|9=523|35=8|49=MA|56=T2Kauaiblk2|34=55|52=20210304-13:08:35.335|453=2|448=T2Kauaiblk2|447=C|452=11|448=Kauai blkrock company2|447=D|452=13|37=907389|11=ClOrdID-1759|66=ListID-040321-rodrigo-1756|17=907389-11p2ex|150=0|39=0|55=[N/A]|54=1|48=US95709TAH32|22=4|454=1|455=95709TAH3|456=1|460=3|167=CORP|541=20420301|223=0.04125|106=EVERGY KANSAS|225=20120301|873=20120301|107=EVRG  4.125  3/1/42 c41|64=20210308|151=130000|15=USD|120=USD|38=130000|14=0|6=0|60=20210304-13:08:35|126=20210304-13:08:35|75=20210304|20117=7199487|30=MTXX|10=074|
8=FIX.4.4|9=517|35=8|49=MA|56=T2Kauaiblk2|34=56|52=20210304-13:08:35.355|453=2|448=T2Kauaiblk2|447=C|452=11|448=Kauai blkrock company2|447=D|452=13|37=907390|11=ClOrdID-1760|66=ListID-040321-rodrigo-1756|17=907390-11p2f5|150=0|39=0|55=[N/A]|54=1|48=US427866AZ15|22=4|454=1|455=427866AZ1|456=1|460=3|167=CORP|541=20230515|223=0.03375|106=HERSHEY|225=20180510|873=20180510|107=HSY  3.375  5/15/23 c23|64=20210308|151=250000|15=USD|120=USD|38=250000|14=0|6=0|60=20210304-13:08:35|126=20210304-13:08:35|75=20210304|20117=7199488|30=MTXX|10=091|
8=FIX.4.4|9=520|35=8|49=MA|56=T2Kauaiblk2|34=57|52=20210304-13:08:35.361|453=2|448=T2Kauaiblk2|447=C|452=11|448=Kauai blkrock company2|447=D|452=13|37=907388|11=ClOrdID-1758|66=ListID-040321-rodrigo-1756|17=907388-11p2f7|150=0|39=0|55=[N/A]|54=1|48=US40434AAB52|22=4|454=1|455=40434AAB5|456=1|460=3|167=CORP|541=20260225|223=0.032|106=HSBC BK USA|225=20130225|873=20130225|107=HSBC  3.200  2/25/26 c22|64=20210308|151=100000|15=USD|120=USD|38=100000|14=0|6=0|60=20210304-13:08:35|126=20210304-13:08:35|75=20210304|20117=7199486|30=MTXX|10=156|
8=FIX.4.4|9=524|35=8|49=MA|56=T2Kauaiblk2|34=58|52=20210304-13:08:35.365|453=2|448=T2Kauaiblk2|447=C|452=11|448=Kauai blkrock company2|447=D|452=13|37=907391|11=ClOrdID-1761|66=ListID-040321-rodrigo-1756|17=907391-11p2fq|150=0|39=0|55=[N/A]|54=1|48=US29379VAW37|22=4|454=1|455=29379VAW3|456=1|460=3|167=CORP|541=20420815|223=0.0485|106=ENTERPRISE PROD|225=20120215|873=20120215|107=EPD  4.850  8/15/42 c42|64=20210308|151=350000|15=USD|120=USD|38=350000|14=0|6=0|60=20210304-13:08:35|126=20210304-13:08:35|75=20210304|20117=7199489|30=MTXX|10=214|
8=FIX.4.4|9=708|35=E|34=31|49=T2Kauaiblk2|52=20210304-13:08:35.708|56=MA|66=ListID-040321-rodrigo-1762|394=2|68=5|73=5|11=ClOrdID-1763|22=4|38=100000|44=100|48=US06051GEN51|54=1|55=[N/A/]|63=3|67=1|423=1|29726=100.25|453=1|448=T2Kauaiblk2|447=C|452=11|11=ClOrdID-1764|22=4|38=100000|44=101|48=US40434AAB52|54=1|55=[N/A]|63=3|67=2|29726=101.25|11=ClOrdID-1765|22=4|38=130000|44=102|48=US95709TAH32|54=1|55=[N/A/]|63=3|67=1|29726=102.25|453=1|448=T2Kauaiblk2|447=C|452=11|11=ClOrdID-1766|22=4|38=250000|44=103|48=US427866AZ15|54=1|55=[N/A/]|63=3|67=1|29726=103.25|453=1|448=T2Kauaiblk2|447=C|452=11|11=ClOrdID-1767|22=4|38=350000|44=104|48=US29379VAW37|54=1|55=[N/A/]|63=3|67=1|29726=104.25|453=1|448=T2Kauaiblk2|447=C|452=11|10=239|
8=FIX.4.4|9=708|35=E|34=32|49=T2Kauaiblk2|52=20210304-13:08:35.881|56=MA|66=ListID-040321-rodrigo-1768|394=2|68=5|73=5|11=ClOrdID-1769|22=4|38=100000|44=100|48=US06051GEN51|54=1|55=[N/A/]|63=3|67=1|423=1|29726=100.25|453=1|448=T2Kauaiblk2|447=C|452=11|11=ClOrdID-1770|22=4|38=100000|44=101|48=US40434AAB52|54=1|55=[N/A]|63=3|67=2|29726=101.25|11=ClOrdID-1771|22=4|38=130000|44=102|48=US95709TAH32|54=1|55=[N/A/]|63=3|67=1|29726=102.25|453=1|448=T2Kauaiblk2|447=C|452=11|11=ClOrdID-1772|22=4|38=250000|44=103|48=US427866AZ15|54=1|55=[N/A/]|63=3|67=1|29726=103.25|453=1|448=T2Kauaiblk2|447=C|452=11|11=ClOrdID-1773|22=4|38=350000|44=104|48=US29379VAW37|54=1|55=[N/A/]|63=3|67=1|29726=104.25|453=1|448=T2Kauaiblk2|447=C|452=11|10=242|
8=FIX.4.4|9=523|35=8|49=MA|56=T2Kauaiblk2|34=59|52=20210304-13:08:35.968|453=2|448=T2Kauaiblk2|447=C|452=11|448=Kauai blkrock company2|447=D|452=13|37=907395|11=ClOrdID-1765|66=ListID-040321-rodrigo-1762|17=907395-11p2wl|150=0|39=0|55=[N/A]|54=1|48=US95709TAH32|22=4|454=1|455=95709TAH3|456=1|460=3|167=CORP|541=20420301|223=0.04125|106=EVERGY KANSAS|225=20120301|873=20120301|107=EVRG  4.125  3/1/42 c41|64=20210308|151=130000|15=USD|120=USD|38=130000|14=0|6=0|60=20210304-13:08:35|126=20210304-13:08:35|75=20210304|20117=7199493|30=MTXX|10=081|
8=FIX.4.4|9=520|35=8|49=MA|56=T2Kauaiblk2|34=60|52=20210304-13:08:35.976|453=2|448=T2Kauaiblk2|447=C|452=11|448=Kauai blkrock company2|447=D|452=13|37=907394|11=ClOrdID-1764|66=ListID-040321-rodrigo-1762|17=907394-11p2ws|150=0|39=0|55=[N/A]|54=1|48=US40434AAB52|22=4|454=1|455=40434AAB5|456=1|460=3|167=CORP|541=20260225|223=0.032|106=HSBC BK USA|225=20130225|873=20130225|107=HSBC  3.200  2/25/26 c22|64=20210308|151=100000|15=USD|120=USD|38=100000|14=0|6=0|60=20210304-13:08:35|126=20210304-13:08:35|75=20210304|20117=7199492|30=MTXX|10=224|
8=FIX.4.4|9=511|35=8|49=MA|56=T2Kauaiblk2|34=61|52=20210304-13:08:35.988|453=2|448=T2Kauaiblk2|447=C|452=11|448=Kauai blkrock company2|447=D|452=13|37=907393|11=ClOrdID-1763|66=ListID-040321-rodrigo-1762|17=907393-11p2x6|150=0|39=0|55=[N/A]|54=1|48=US06051GEN51|22=4|454=1|455=06051GEN5|456=1|460=3|167=CORP|541=20420207|223=0.05875|106=BOFAML|225=20120207|873=20120207|107=BAC  5.875  2/7/42|64=20210308|151=100000|15=USD|120=USD|38=100000|14=0|6=0|60=20210304-13:08:35|126=20210304-13:08:35|75=20210304|20117=7199491|30=MTXX|10=181|
8=FIX.4.4|9=517|35=8|49=MA|56=T2Kauaiblk2|34=62|52=20210304-13:08:35.992|453=2|448=T2Kauaiblk2|447=C|452=11|448=Kauai blkrock company2|447=D|452=13|37=907396|11=ClOrdID-1766|66=ListID-040321-rodrigo-1762|17=907396-11p2xc|150=0|39=0|55=[N/A]|54=1|48=US427866AZ15|22=4|454=1|455=427866AZ1|456=1|460=3|167=CORP|541=20230515|223=0.03375|106=HERSHEY|225=20180510|873=20180510|107=HSY  3.375  5/15/23 c23|64=20210308|151=250000|15=USD|120=USD|38=250000|14=0|6=0|60=20210304-13:08:35|126=20210304-13:08:35|75=20210304|20117=7199494|30=MTXX|10=171|
8=FIX.4.4|9=524|35=8|49=MA|56=T2Kauaiblk2|34=63|52=20210304-13:08:35.999|453=2|448=T2Kauaiblk2|447=C|452=11|448=Kauai blkrock company2|447=D|452=13|37=907397|11=ClOrdID-1767|66=ListID-040321-rodrigo-1762|17=907397-11p2x1|150=0|39=0|55=[N/A]|54=1|48=US29379VAW37|22=4|454=1|455=29379VAW3|456=1|460=3|167=CORP|541=20420815|223=0.0485|106=ENTERPRISE PROD|225=20120215|873=20120215|107=EPD  4.850  8/15/42 c42|64=20210308|151=350000|15=USD|120=USD|38=350000|14=0|6=0|60=20210304-13:08:35|126=20210304-13:08:35|75=20210304|20117=7199495|30=MTXX|10=189|
8=FIX.4.4|9=511|35=8|49=MA|56=T2Kauaiblk2|34=64|52=20210304-13:08:36.144|453=2|448=T2Kauaiblk2|447=C|452=11|448=Kauai blkrock company2|447=D|452=13|37=907399|11=ClOrdID-1769|66=ListID-040321-rodrigo-1768|17=907399-11p31f|150=0|39=0|55=[N/A]|54=1|48=US06051GEN51|22=4|454=1|455=06051GEN5|456=1|460=3|167=CORP|541=20420207|223=0.05875|106=BOFAML|225=20120207|873=20120207|107=BAC  5.875  2/7/42|64=20210308|151=100000|15=USD|120=USD|38=100000|14=0|6=0|60=20210304-13:08:36|126=20210304-13:08:36|75=20210304|20117=7199497|30=MTXX|10=179|
8=FIX.4.4|9=520|35=8|49=MA|56=T2Kauaiblk2|34=65|52=20210304-13:08:36.150|453=2|448=T2Kauaiblk2|447=C|452=11|448=Kauai blkrock company2|447=D|452=13|37=907400|11=ClOrdID-1770|66=ListID-040321-rodrigo-1768|17=907400-11p31l|150=0|39=0|55=[N/A]|54=1|48=US40434AAB52|22=4|454=1|455=40434AAB5|456=1|460=3|167=CORP|541=20260225|223=0.032|106=HSBC BK USA|225=20130225|873=20130225|107=HSBC  3.200  2/25/26 c22|64=20210308|151=100000|15=USD|120=USD|38=100000|14=0|6=0|60=20210304-13:08:36|126=20210304-13:08:36|75=20210304|20117=7199498|30=MTXX|10=125|
8=FIX.4.4|9=517|35=8|49=MA|56=T2Kauaiblk2|34=66|52=20210304-13:08:36.154|453=2|448=T2Kauaiblk2|447=C|452=11|448=Kauai blkrock company2|447=D|452=13|37=907402|11=ClOrdID-1772|66=ListID-040321-rodrigo-1768|17=907402-11p31o|150=0|39=0|55=[N/A]|54=1|48=US427866AZ15|22=4|454=1|455=427866AZ1|456=1|460=3|167=CORP|541=20230515|223=0.03375|106=HERSHEY|225=20180510|873=20180510|107=HSY  3.375  5/15/23 c23|64=20210308|151=250000|15=USD|120=USD|38=250000|14=0|6=0|60=20210304-13:08:36|126=20210304-13:08:36|75=20210304|20117=7199500|30=MTXX|10=077|
8=FIX.4.4|9=524|35=8|49=MA|56=T2Kauaiblk2|34=67|52=20210304-13:08:36.158|453=2|448=T2Kauaiblk2|447=C|452=11|448=Kauai blkrock company2|447=D|452=13|37=907403|11=ClOrdID-1773|66=ListID-040321-rodrigo-1768|17=907403-11p31r|150=0|39=0|55=[N/A]|54=1|48=US29379VAW37|22=4|454=1|455=29379VAW3|456=1|460=3|167=CORP|541=20420815|223=0.0485|106=ENTERPRISE PROD|225=20120215|873=20120215|107=EPD  4.850  8/15/42 c42|64=20210308|151=350000|15=USD|120=USD|38=350000|14=0|6=0|60=20210304-13:08:36|126=20210304-13:08:36|75=20210304|20117=7199501|30=MTXX|10=145|
8=FIX.4.4|9=523|35=8|49=MA|56=T2Kauaiblk2|34=68|52=20210304-13:08:36.163|453=2|448=T2Kauaiblk2|447=C|452=11|448=Kauai blkrock company2|447=D|452=13|37=907401|11=ClOrdID-1771|66=ListID-040321-rodrigo-1768|17=907401-11p31v|150=0|39=0|55=[N/A]|54=1|48=US95709TAH32|22=4|454=1|455=95709TAH3|456=1|460=3|167=CORP|541=20420301|223=0.04125|106=EVERGY KANSAS|225=20120301|873=20120301|107=EVRG  4.125  3/1/42 c41|64=20210308|151=130000|15=USD|120=USD|38=130000|14=0|6=0|60=20210304-13:08:36|126=20210304-13:08:36|75=20210304|20117=7199499|30=MTXX|10=253|
8=FIX.4.4|9=57|35=0|34=69|49=MA|52=20210304-13:10:06.825|56=T2Kauaiblk2|10=118|
8=FIX.4.4|9=57|35=0|34=33|49=T2Kauaiblk2|52=20210304-13:10:06.853|56=MA|10=110|
8=FIX.4.4|9=57|35=0|34=34|49=T2Kauaiblk2|52=20210304-13:11:36.870|56=MA|10=114|
8=FIX.4.4|9=57|35=0|34=70|49=MA|52=20210304-13:11:36.934|56=T2Kauaiblk2|10=115|
8=FIX.4.4|9=57|35=0|34=71|49=MA|52=20210304-13:13:07.816|56=T2Kauaiblk2|10=115|
8=FIX.4.4|9=57|35=0|34=35|49=T2Kauaiblk2|52=20210304-13:13:07.845|56=MA|10=117|
8=FIX.4.4|9=57|35=0|34=36|49=T2Kauaiblk2|52=20210304-13:14:37.871|56=MA|10=121|
8=FIX.4.4|9=57|35=0|34=72|49=MA|52=20210304-13:14:37.937|56=T2Kauaiblk2|10=124|
8=FIX.4.4|9=626|35=8|49=MA|56=T2Kauaiblk2|34=73|52=20210304-13:15:00.598|453=2|448=T2Kauaiblk2|447=C|452=11|448=Kauai blkrock company2|447=D|452=13|37=907400|11=ClOrdID-1770|66=ListID-040321-rodrigo-1768|17=907400-11xbos|150=4|19=907400-11p31l|39=4|55=[N/A]|54=1|48=US40434AAB52|22=4|454=1|455=40434AAB5|456=1|460=3|167=CORP|541=20260225|223=0.032|106=HSBC BK USA|225=20130225|873=20130225|107=HSBC  3.200  2/25/26 c22|64=20210308|9690=1|9691=BRSE|9692=B|9697=Timed Out|7761=1|151=0|15=USD|120=USD|38=100000|14=0|6=0.0|761=1|699=912810SS8|60=20210304-13:15:00|126=20210304-13:10:49|75=20210304|20117=7199498|30=MTXX|29798=7199498|29799=0.000|10=188|
8=FIX.4.4|9=681|35=8|49=MA|56=T2Kauaiblk2|34=74|52=20210304-13:15:00.604|453=2|448=T2Kauaiblk2|447=C|452=11|448=Kauai blkrock company2|447=D|452=13|37=907401|11=ClOrdID-1771|66=ListID-040321-rodrigo-1768|17=907401-11xbou|150=4|19=907401-11p31v|39=4|55=[N/A]|54=1|48=US95709TAH32|22=4|454=1|455=95709TAH3|456=1|460=3|167=CORP|541=20420301|223=0.04125|106=EVERGY KANSAS|225=20120301|873=20120301|107=EVRG  4.125  3/1/42 c41|64=20210308|9690=1|9691=BRSE|9692=B|9697=Timed Out|7761=1|151=0|15=USD|120=USD|38=130000|14=0|6=0.0|761=1|699=912810SS8|60=20210304-13:15:00|126=20210304-13:10:49|75=20210304|20117=7199499|29706=132.236|29707=132.676|29708=86.51|29709=83.92|30=MTXX|29798=7199499|29799=0.000|10=019|
8=FIX.4.4|9=57|35=0|34=37|49=T2Kauaiblk2|52=20210304-13:16:07.871|56=MA|10=121|
8=FIX.4.4|9=57|35=0|34=75|49=MA|52=20210304-13:16:30.682|56=T2Kauaiblk2|10=119|
8=FIX.4.4|9=57|35=0|34=38|49=T2Kauaiblk2|52=20210304-13:17:37.871|56=MA|10=126|
8=FIX.4.4|9=57|35=0|34=76|49=MA|52=20210304-13:18:00.726|56=T2Kauaiblk2|10=118|
8=FIX.4.4|9=57|35=0|34=39|49=T2Kauaiblk2|52=20210304-13:19:08.871|56=MA|10=127|
8=FIX.4.4|9=57|35=0|34=77|49=MA|52=20210304-13:19:30.819|56=T2Kauaiblk2|10=126|
8=FIX.4.4|9=57|35=0|34=40|49=T2Kauaiblk2|52=20210304-13:20:38.871|56=MA|10=114|
8=FIX.4.4|9=57|35=0|34=78|49=MA|52=20210304-13:21:00.828|56=T2Kauaiblk2|10=117|
8=FIX.4.4|9=91|35=A|34=1|49=T2Kauaiblk2|52=20210304-16:16:45.889|56=MA|98=0|108=90|95=8|96=3.0.0rc5|141=Y|10=051|
8=FIX.4.4|9=74|35=A|34=1|49=MA|52=20210304-16:16:46.498|56=T2Kauaiblk2|98=0|108=90|141=Y|10=167|
8=FIX.4.4|9=707|35=E|34=2|49=T2Kauaiblk2|52=20210304-16:16:51.530|56=MA|66=ListID-040321-rodrigo-1774|394=2|68=5|73=5|11=ClOrdID-1775|22=4|38=100000|44=100|48=US06051GEN51|54=1|55=[N/A/]|63=3|67=1|423=1|29726=100.25|453=1|448=T2Kauaiblk2|447=C|452=11|11=ClOrdID-1776|22=4|38=100000|44=101|48=US40434AAB52|54=1|55=[N/A]|63=3|67=2|29726=101.25|11=ClOrdID-1777|22=4|38=130000|44=102|48=US95709TAH32|54=1|55=[N/A/]|63=3|67=1|29726=102.25|453=1|448=T2Kauaiblk2|447=C|452=11|11=ClOrdID-1778|22=4|38=250000|44=103|48=US427866AZ15|54=1|55=[N/A/]|63=3|67=1|29726=103.25|453=1|448=T2Kauaiblk2|447=C|452=11|11=ClOrdID-1779|22=4|38=350000|44=104|48=US29379VAW37|54=1|55=[N/A/]|63=3|67=1|29726=104.25|453=1|448=T2Kauaiblk2|447=C|452=11|10=199|
8=FIX.4.4|9=510|35=8|49=MA|56=T2Kauaiblk2|34=2|52=20210304-16:16:51.802|453=2|448=T2Kauaiblk2|447=C|452=11|448=Kauai blkrock company2|447=D|452=13|37=907664|11=ClOrdID-1775|66=ListID-040321-rodrigo-1774|17=907664-18f6tt|150=0|39=0|55=[N/A]|54=1|48=US06051GEN51|22=4|454=1|455=06051GEN5|456=1|460=3|167=CORP|541=20420207|223=0.05875|106=BOFAML|225=20120207|873=20120207|107=BAC  5.875  2/7/42|64=20210308|151=100000|15=USD|120=USD|38=100000|14=0|6=0|60=20210304-16:16:51|126=20210304-16:16:51|75=20210304|20117=7200131|30=MTXX|10=153|
8=FIX.4.4|9=519|35=8|49=MA|56=T2Kauaiblk2|34=3|52=20210304-16:16:51.813|453=2|448=T2Kauaiblk2|447=C|452=11|448=Kauai blkrock company2|447=D|452=13|37=907665|11=ClOrdID-1776|66=ListID-040321-rodrigo-1774|17=907665-18f6tw|150=0|39=0|55=[N/A]|54=1|48=US40434AAB52|22=4|454=1|455=40434AAB5|456=1|460=3|167=CORP|541=20260225|223=0.032|106=HSBC BK USA|225=20130225|873=20130225|107=HSBC  3.200  2/25/26 c22|64=20210308|151=100000|15=USD|120=USD|38=100000|14=0|6=0|60=20210304-16:16:51|126=20210304-16:16:51|75=20210304|20117=7200132|30=MTXX|10=155|
8=FIX.4.4|9=522|35=8|49=MA|56=T2Kauaiblk2|34=4|52=20210304-16:16:51.822|453=2|448=T2Kauaiblk2|447=C|452=11|448=Kauai blkrock company2|447=D|452=13|37=907666|11=ClOrdID-1777|66=ListID-040321-rodrigo-1774|17=907666-18f6tx|150=0|39=0|55=[N/A]|54=1|48=US95709TAH32|22=4|454=1|455=95709TAH3|456=1|460=3|167=CORP|541=20420301|223=0.04125|106=EVERGY KANSAS|225=20120301|873=20120301|107=EVRG  4.125  3/1/42 c41|64=20210308|151=130000|15=USD|120=USD|38=130000|14=0|6=0|60=20210304-16:16:51|126=20210304-16:16:51|75=20210304|20117=7200133|30=MTXX|10=003|
8=FIX.4.4|9=523|35=8|49=MA|56=T2Kauaiblk2|34=5|52=20210304-16:16:51.827|453=2|448=T2Kauaiblk2|447=C|452=11|448=Kauai blkrock company2|447=D|452=13|37=907668|11=ClOrdID-1779|66=ListID-040321-rodrigo-1774|17=907668-18f6u2|150=0|39=0|55=[N/A]|54=1|48=US29379VAW37|22=4|454=1|455=29379VAW3|456=1|460=3|167=CORP|541=20420815|223=0.0485|106=ENTERPRISE PROD|225=20120215|873=20120215|107=EPD  4.850  8/15/42 c42|64=20210308|151=350000|15=USD|120=USD|38=350000|14=0|6=0|60=20210304-16:16:51|126=20210304-16:16:51|75=20210304|20117=7200135|30=MTXX|10=107|
8=FIX.4.4|9=516|35=8|49=MA|56=T2Kauaiblk2|34=6|52=20210304-16:16:51.836|453=2|448=T2Kauaiblk2|447=C|452=11|448=Kauai blkrock company2|447=D|452=13|37=907667|11=ClOrdID-1778|66=ListID-040321-rodrigo-1774|17=907667-18f6u3|150=0|39=0|55=[N/A]|54=1|48=US427866AZ15|22=4|454=1|455=427866AZ1|456=1|460=3|167=CORP|541=20230515|223=0.03375|106=HERSHEY|225=20180510|873=20180510|107=HSY  3.375  5/15/23 c23|64=20210308|151=250000|15=USD|120=USD|38=250000|14=0|6=0|60=20210304-16:16:51|126=20210304-16:16:51|75=20210304|20117=7200134|30=MTXX|10=049|
8=FIX.4.4|9=707|35=E|34=3|49=T2Kauaiblk2|52=20210304-16:16:52.242|56=MA|66=ListID-040321-rodrigo-1780|394=2|68=5|73=5|11=ClOrdID-1781|22=4|38=100000|44=100|48=US06051GEN51|54=1|55=[N/A/]|63=3|67=1|423=1|29726=100.25|453=1|448=T2Kauaiblk2|447=C|452=11|11=ClOrdID-1782|22=4|38=100000|44=101|48=US40434AAB52|54=1|55=[N/A]|63=3|67=2|29726=101.25|11=ClOrdID-1783|22=4|38=130000|44=102|48=US95709TAH32|54=1|55=[N/A/]|63=3|67=1|29726=102.25|453=1|448=T2Kauaiblk2|447=C|452=11|11=ClOrdID-1784|22=4|38=250000|44=103|48=US427866AZ15|54=1|55=[N/A/]|63=3|67=1|29726=103.25|453=1|448=T2Kauaiblk2|447=C|452=11|11=ClOrdID-1785|22=4|38=350000|44=104|48=US29379VAW37|54=1|55=[N/A/]|63=3|67=1|29726=104.25|453=1|448=T2Kauaiblk2|447=C|452=11|10=183|
8=FIX.4.4|9=519|35=8|49=MA|56=T2Kauaiblk2|34=7|52=20210304-16:16:52.513|453=2|448=T2Kauaiblk2|447=C|452=11|448=Kauai blkrock company2|447=D|452=13|37=907671|11=ClOrdID-1782|66=ListID-040321-rodrigo-1780|17=907671-18f7dg|150=0|39=0|55=[N/A]|54=1|48=US40434AAB52|22=4|454=1|455=40434AAB5|456=1|460=3|167=CORP|541=20260225|223=0.032|106=HSBC BK USA|225=20130225|873=20130225|107=HSBC  3.200  2/25/26 c22|64=20210308|151=100000|15=USD|120=USD|38=100000|14=0|6=0|60=20210304-16:16:52|126=20210304-16:16:52|75=20210304|20117=7200138|30=MTXX|10=122|
8=FIX.4.4|9=523|35=8|49=MA|56=T2Kauaiblk2|34=8|52=20210304-16:16:52.526|453=2|448=T2Kauaiblk2|447=C|452=11|448=Kauai blkrock company2|447=D|452=13|37=907674|11=ClOrdID-1785|66=ListID-040321-rodrigo-1780|17=907674-18f7dj|150=0|39=0|55=[N/A]|54=1|48=US29379VAW37|22=4|454=1|455=29379VAW3|456=1|460=3|167=CORP|541=20420815|223=0.0485|106=ENTERPRISE PROD|225=20120215|873=20120215|107=EPD  4.850  8/15/42 c42|64=20210308|151=350000|15=USD|120=USD|38=350000|14=0|6=0|60=20210304-16:16:52|126=20210304-16:16:52|75=20210304|20117=7200141|30=MTXX|10=134|
8=FIX.4.4|9=516|35=8|49=MA|56=T2Kauaiblk2|34=9|52=20210304-16:16:52.532|453=2|448=T2Kauaiblk2|447=C|452=11|448=Kauai blkrock company2|447=D|452=13|37=907673|11=ClOrdID-1784|66=ListID-040321-rodrigo-1780|17=907673-18f7dm|150=0|39=0|55=[N/A]|54=1|48=US427866AZ15|22=4|454=1|455=427866AZ1|456=1|460=3|167=CORP|541=20230515|223=0.03375|106=HERSHEY|225=20180510|873=20180510|107=HSY  3.375  5/15/23 c23|64=20210308|151=250000|15=USD|120=USD|38=250000|14=0|6=0|60=20210304-16:16:52|126=20210304-16:16:52|75=20210304|20117=7200140|30=MTXX|10=075|
8=FIX.4.4|9=523|35=8|49=MA|56=T2Kauaiblk2|34=10|52=20210304-16:16:52.540|453=2|448=T2Kauaiblk2|447=C|452=11|448=Kauai blkrock company2|447=D|452=13|37=907672|11=ClOrdID-1783|66=ListID-040321-rodrigo-1780|17=907672-18f7do|150=0|39=0|55=[N/A]|54=1|48=US95709TAH32|22=4|454=1|455=95709TAH3|456=1|460=3|167=CORP|541=20420301|223=0.04125|106=EVERGY KANSAS|225=20120301|873=20120301|107=EVRG  4.125  3/1/42 c41|64=20210308|151=130000|15=USD|120=USD|38=130000|14=0|6=0|60=20210304-16:16:52|126=20210304-16:16:52|75=20210304|20117=7200139|30=MTXX|10=019|
8=FIX.4.4|9=511|35=8|49=MA|56=T2Kauaiblk2|34=11|52=20210304-16:16:52.546|453=2|448=T2Kauaiblk2|447=C|452=11|448=Kauai blkrock company2|447=D|452=13|37=907670|11=ClOrdID-1781|66=ListID-040321-rodrigo-1780|17=907670-18f7dp|150=0|39=0|55=[N/A]|54=1|48=US06051GEN51|22=4|454=1|455=06051GEN5|456=1|460=3|167=CORP|541=20420207|223=0.05875|106=BOFAML|225=20120207|873=20120207|107=BAC  5.875  2/7/42|64=20210308|151=100000|15=USD|120=USD|38=100000|14=0|6=0|60=20210304-16:16:52|126=20210304-16:16:52|75=20210304|20117=7200137|30=MTXX|10=185|
8=FIX.4.4|9=707|35=E|34=4|49=T2Kauaiblk2|52=20210304-16:16:52.730|56=MA|66=ListID-040321-rodrigo-1786|394=2|68=5|73=5|11=ClOrdID-1787|22=4|38=100000|44=100|48=US06051GEN51|54=1|55=[N/A/]|63=3|67=1|423=1|29726=100.25|453=1|448=T2Kauaiblk2|447=C|452=11|11=ClOrdID-1788|22=4|38=100000|44=101|48=US40434AAB52|54=1|55=[N/A]|63=3|67=2|29726=101.25|11=ClOrdID-1789|22=4|38=130000|44=102|48=US95709TAH32|54=1|55=[N/A/]|63=3|67=1|29726=102.25|453=1|448=T2Kauaiblk2|447=C|452=11|11=ClOrdID-1790|22=4|38=250000|44=103|48=US427866AZ15|54=1|55=[N/A/]|63=3|67=1|29726=103.25|453=1|448=T2Kauaiblk2|447=C|452=11|11=ClOrdID-1791|22=4|38=350000|44=104|48=US29379VAW37|54=1|55=[N/A/]|63=3|67=1|29726=104.25|453=1|448=T2Kauaiblk2|447=C|452=11|10=204|
8=FIX.4.4|9=520|35=8|49=MA|56=T2Kauaiblk2|34=12|52=20210304-16:16:53.028|453=2|448=T2Kauaiblk2|447=C|452=11|448=Kauai blkrock company2|447=D|452=13|37=907677|11=ClOrdID-1788|66=ListID-040321-rodrigo-1786|17=907677-18f7ri|150=0|39=0|55=[N/A]|54=1|48=US40434AAB52|22=4|454=1|455=40434AAB5|456=1|460=3|167=CORP|541=20260225|223=0.032|106=HSBC BK USA|225=20130225|873=20130225|107=HSBC  3.200  2/25/26 c22|64=20210308|151=100000|15=USD|120=USD|38=100000|14=0|6=0|60=20210304-16:16:52|126=20210304-16:16:52|75=20210304|20117=7200144|30=MTXX|10=197|
8=FIX.4.4|9=511|35=8|49=MA|56=T2Kauaiblk2|34=13|52=20210304-16:16:53.040|453=2|448=T2Kauaiblk2|447=C|452=11|448=Kauai blkrock company2|447=D|452=13|37=907676|11=ClOrdID-1787|66=ListID-040321-rodrigo-1786|17=907676-18f7rk|150=0|39=0|55=[N/A]|54=1|48=US06051GEN51|22=4|454=1|455=06051GEN5|456=1|460=3|167=CORP|541=20420207|223=0.05875|106=BOFAML|225=20120207|873=20120207|107=BAC  5.875  2/7/42|64=20210308|151=100000|15=USD|120=USD|38=100000|14=0|6=0|60=20210304-16:16:52|126=20210304-16:16:52|75=20210304|20117=7200143|30=MTXX|10=207|
8=FIX.4.4|9=524|35=8|49=MA|56=T2Kauaiblk2|34=14|52=20210304-16:16:53.050|453=2|448=T2Kauaiblk2|447=C|452=11|448=Kauai blkrock company2|447=D|452=13|37=907680|11=ClOrdID-1791|66=ListID-040321-rodrigo-1786|17=907680-18f7rm|150=0|39=0|55=[N/A]|54=1|48=US29379VAW37|22=4|454=1|455=29379VAW3|456=1|460=3|167=CORP|541=20420815|223=0.0485|106=ENTERPRISE PROD|225=20120215|873=20120215|107=EPD  4.850  8/15/42 c42|64=20210308|151=350000|15=USD|120=USD|38=350000|14=0|6=0|60=20210304-16:16:52|126=20210304-16:16:52|75=20210304|20117=7200147|30=MTXX|10=193|
8=FIX.4.4|9=517|35=8|49=MA|56=T2Kauaiblk2|34=15|52=20210304-16:16:53.058|453=2|448=T2Kauaiblk2|447=C|452=11|448=Kauai blkrock company2|447=D|452=13|37=907679|11=ClOrdID-1790|66=ListID-040321-rodrigo-1786|17=907679-18f7rp|150=0|39=0|55=[N/A]|54=1|48=US427866AZ15|22=4|454=1|455=427866AZ1|456=1|460=3|167=CORP|541=20230515|223=0.03375|106=HERSHEY|225=20180510|873=20180510|107=HSY  3.375  5/15/23 c23|64=20210308|151=250000|15=USD|120=USD|38=250000|14=0|6=0|60=20210304-16:16:52|126=20210304-16:16:52|75=20210304|20117=7200146|30=MTXX|10=163|
8=FIX.4.4|9=523|35=8|49=MA|56=T2Kauaiblk2|34=16|52=20210304-16:16:53.062|453=2|448=T2Kauaiblk2|447=C|452=11|448=Kauai blkrock company2|447=D|452=13|37=907678|11=ClOrdID-1789|66=ListID-040321-rodrigo-1786|17=907678-18f7rn|150=0|39=0|55=[N/A]|54=1|48=US95709TAH32|22=4|454=1|455=95709TAH3|456=1|460=3|167=CORP|541=20420301|223=0.04125|106=EVERGY KANSAS|225=20120301|873=20120301|107=EVRG  4.125  3/1/42 c41|64=20210308|151=130000|15=USD|120=USD|38=130000|14=0|6=0|60=20210304-16:16:52|126=20210304-16:16:52|75=20210304|20117=7200145|30=MTXX|10=059|
8=FIX.4.4|9=707|35=E|34=5|49=T2Kauaiblk2|52=20210304-16:16:53.229|56=MA|66=ListID-040321-rodrigo-1792|394=2|68=5|73=5|11=ClOrdID-1793|22=4|38=100000|44=100|48=US06051GEN51|54=1|55=[N/A/]|63=3|67=1|423=1|29726=100.25|453=1|448=T2Kauaiblk2|447=C|452=11|11=ClOrdID-1794|22=4|38=100000|44=101|48=US40434AAB52|54=1|55=[N/A]|63=3|67=2|29726=101.25|11=ClOrdID-1795|22=4|38=130000|44=102|48=US95709TAH32|54=1|55=[N/A/]|63=3|67=1|29726=102.25|453=1|448=T2Kauaiblk2|447=C|452=11|11=ClOrdID-1796|22=4|38=250000|44=103|48=US427866AZ15|54=1|55=[N/A/]|63=3|67=1|29726=103.25|453=1|448=T2Kauaiblk2|447=C|452=11|11=ClOrdID-1797|22=4|38=350000|44=104|48=US29379VAW37|54=1|55=[N/A/]|63=3|67=1|29726=104.25|453=1|448=T2Kauaiblk2|447=C|452=11|10=209|
8=FIX.4.4|9=520|35=8|49=MA|56=T2Kauaiblk2|34=17|52=20210304-16:16:53.497|453=2|448=T2Kauaiblk2|447=C|452=11|448=Kauai blkrock company2|447=D|452=13|37=907683|11=ClOrdID-1794|66=ListID-040321-rodrigo-1792|17=907683-18f84u|150=0|39=0|55=[N/A]|54=1|48=US40434AAB52|22=4|454=1|455=40434AAB5|456=1|460=3|167=CORP|541=20260225|223=0.032|106=HSBC BK USA|225=20130225|873=20130225|107=HSBC  3.200  2/25/26 c22|64=20210308|151=100000|15=USD|120=USD|38=100000|14=0|6=0|60=20210304-16:16:53|126=20210304-16:16:53|75=20210304|20117=7200150|30=MTXX|10=150|
8=FIX.4.4|9=517|35=8|49=MA|56=T2Kauaiblk2|34=18|52=20210304-16:16:53.502|453=2|448=T2Kauaiblk2|447=C|452=11|448=Kauai blkrock company2|447=D|452=13|37=907685|11=ClOrdID-1796|66=ListID-040321-rodrigo-1792|17=907685-18f84w|150=0|39=0|55=[N/A]|54=1|48=US427866AZ15|22=4|454=1|455=427866AZ1|456=1|460=3|167=CORP|541=20230515|223=0.03375|106=HERSHEY|225=20180510|873=20180510|107=HSY  3.375  5/15/23 c23|64=20210308|151=250000|15=USD|120=USD|38=250000|14=0|6=0|60=20210304-16:16:53|126=20210304-16:16:53|75=20210304|20117=7200152|30=MTXX|10=102|
8=FIX.4.4|9=524|35=8|49=MA|56=T2Kauaiblk2|34=19|52=20210304-16:16:53.513|453=2|448=T2Kauaiblk2|447=C|452=11|448=Kauai blkrock company2|447=D|452=13|37=907686|11=ClOrdID-1797|66=ListID-040321-rodrigo-1792|17=907686-18f84y|150=0|39=0|55=[N/A]|54=1|48=US29379VAW37|22=4|454=1|455=29379VAW3|456=1|460=3|167=CORP|541=20420815|223=0.0485|106=ENTERPRISE PROD|225=20120215|873=20120215|107=EPD  4.850  8/15/42 c42|64=20210308|151=350000|15=USD|120=USD|38=350000|14=0|6=0|60=20210304-16:16:53|126=20210304-16:16:53|75=20210304|20117=7200153|30=MTXX|10=167|
8=FIX.4.4|9=511|35=8|49=MA|56=T2Kauaiblk2|34=20|52=20210304-16:16:53.517|453=2|448=T2Kauaiblk2|447=C|452=11|448=Kauai blkrock company2|447=D|452=13|37=907682|11=ClOrdID-1793|66=ListID-040321-rodrigo-1792|17=907682-18f852|150=0|39=0|55=[N/A]|54=1|48=US06051GEN51|22=4|454=1|455=06051GEN5|456=1|460=3|167=CORP|541=20420207|223=0.05875|106=BOFAML|225=20120207|873=20120207|107=BAC  5.875  2/7/42|64=20210308|151=100000|15=USD|120=USD|38=100000|14=0|6=0|60=20210304-16:16:53|126=20210304-16:16:53|75=20210304|20117=7200149|30=MTXX|10=093|
8=FIX.4.4|9=523|35=8|49=MA|56=T2Kauaiblk2|34=21|52=20210304-16:16:53.522|453=2|448=T2Kauaiblk2|447=C|452=11|448=Kauai blkrock company2|447=D|452=13|37=907684|11=ClOrdID-1795|66=ListID-040321-rodrigo-1792|17=907684-18f851|150=0|39=0|55=[N/A]|54=1|48=US95709TAH32|22=4|454=1|455=95709TAH3|456=1|460=3|167=CORP|541=20420301|223=0.04125|106=EVERGY KANSAS|225=20120301|873=20120301|107=EVRG  4.125  3/1/42 c41|64=20210308|151=130000|15=USD|120=USD|38=130000|14=0|6=0|60=20210304-16:16:53|126=20210304-16:16:53|75=20210304|20117=7200151|30=MTXX|10=178|
8=FIX.4.4|9=57|35=0|34=22|49=MA|52=20210304-16:18:23.767|56=T2Kauaiblk2|10=122|
8=FIX.4.4|9=56|35=0|34=6|49=T2Kauaiblk2|52=20210304-16:18:23.775|56=MA|10=074|
8=FIX.4.4|9=56|35=0|34=7|49=T2Kauaiblk2|52=20210304-16:19:53.888|56=MA|10=084|
8=FIX.4.4|9=57|35=0|34=23|49=MA|52=20210304-16:19:53.915|56=T2Kauaiblk2|10=122|
8=FIX.4.4|9=675|35=8|49=MA|56=T2Kauaiblk2|34=24|52=20210304-16:21:00.365|453=2|448=T2Kauaiblk2|447=C|452=11|448=Kauai blkrock company2|447=D|452=13|37=907667|11=ClOrdID-1778|66=ListID-040321-rodrigo-1774|17=907667-18kimc|150=4|19=907667-18f6u3|39=4|55=[N/A]|54=1|48=US427866AZ15|22=4|454=1|455=427866AZ1|456=1|460=3|167=CORP|541=20230515|223=0.03375|106=HERSHEY|225=20180510|873=20180510|107=HSY  3.375  5/15/23 c23|64=20210308|9690=1|9691=BRSE|9692=B|9697=Timed Out|7761=1|151=0|15=USD|120=USD|38=250000|14=0|6=0.0|761=1|699=912810SS8|60=20210304-16:21:00|126=20210304-16:18:31|75=20210304|20117=7200134|29706=125.576|29707=125.713|29708=-0.27|29709=-6.33|30=MTXX|29798=7200134|29799=0.000|10=062|
8=FIX.4.4|9=681|35=8|49=MA|56=T2Kauaiblk2|34=25|52=20210304-16:21:00.370|453=2|448=T2Kauaiblk2|447=C|452=11|448=Kauai blkrock company2|447=D|452=13|37=907666|11=ClOrdID-1777|66=ListID-040321-rodrigo-1774|17=907666-18kima|150=4|19=907666-18f6tx|39=4|55=[N/A]|54=1|48=US95709TAH32|22=4|454=1|455=95709TAH3|456=1|460=3|167=CORP|541=20420301|223=0.04125|106=EVERGY KANSAS|225=20120301|873=20120301|107=EVRG  4.125  3/1/42 c41|64=20210308|9690=1|9691=BRSE|9692=B|9697=Timed Out|7761=1|151=0|15=USD|120=USD|38=130000|14=0|6=0.0|761=1|699=912810SS8|60=20210304-16:21:00|126=20210304-16:18:31|75=20210304|20117=7200133|29706=127.096|29707=127.536|29708=91.65|29709=89.06|30=MTXX|29798=7200133|29799=0.000|10=052|
8=FIX.4.4|9=56|35=0|34=8|49=T2Kauaiblk2|52=20210304-16:21:23.888|56=MA|10=075|
8=FIX.4.4|9=57|35=0|34=26|49=MA|52=20210304-16:22:30.904|56=T2Kauaiblk2|10=112|
8=FIX.4.4|9=56|35=0|34=9|49=T2Kauaiblk2|52=20210304-16:22:53.890|56=MA|10=073|
8=FIX.4.4|9=57|35=0|34=27|49=MA|52=20210304-16:24:01.782|56=T2Kauaiblk2|10=117|
8=FIX.4.4|9=57|35=0|34=10|49=T2Kauaiblk2|52=20210304-16:24:24.889|56=MA|10=122|
8=FIX.4.4|9=57|35=0|34=28|49=MA|52=20210304-16:25:31.902|56=T2Kauaiblk2|10=116|
8=FIX.4.4|9=57|35=0|34=11|49=T2Kauaiblk2|52=20210304-16:25:54.890|56=MA|10=119|
8=FIX.4.4|9=57|35=0|34=29|49=MA|52=20210304-16:27:02.782|56=T2Kauaiblk2|10=123|
8=FIX.4.4|9=57|35=0|34=12|49=T2Kauaiblk2|52=20210304-16:27:25.888|56=MA|10=127|
8=FIX.4.4|9=57|35=0|34=30|49=MA|52=20210304-16:28:32.892|56=T2Kauaiblk2|10=121|
8=FIX.4.4|9=57|35=0|34=13|49=T2Kauaiblk2|52=20210304-16:28:55.890|56=MA|10=125|
8=FIX.4.4|9=57|35=0|34=31|49=MA|52=20210304-16:30:03.906|56=T2Kauaiblk2|10=109|
8=FIX.4.4|9=57|35=0|34=14|49=T2Kauaiblk2|52=20210304-16:30:25.890|56=MA|10=116|
8=FIX.4.4|9=707|35=8|49=MA|56=T2Kauaiblk2|34=32|52=20210304-16:31:00.190|453=2|448=T2Kauaiblk2|447=C|452=11|448=Kauai blkrock company2|447=D|452=13|37=907664|11=ClOrdID-1775|66=ListID-040321-rodrigo-1774|17=907664-18xdg4|150=4|19=907664-18f6tt|39=4|55=[N/A]|54=1|48=US06051GEN51|22=4|454=1|455=06051GEN5|456=1|460=3|167=CORP|541=20420207|223=0.05875|106=BOFAML|225=20120207|873=20120207|107=BAC  5.875  2/7/42|64=20210308|9690=1|9691=BRSE|9692=B|9694=1111.700|9693=6|5691=47.610|9695=100000|9697=DNT|7761=1|151=0|15=USD|120=USD|38=100000|14=0|6=0.0|761=1|699=912810SS8|60=20210304-16:31:00|126=20210304-16:18:31|75=20210304|20117=7200131|29706=158.03|29707=159.083|29708=89.46|29709=84.18|30=MTXX|29798=7200131|29799=0.000|10=126|
8=FIX.4.4|9=722|35=8|49=MA|56=T2Kauaiblk2|34=33|52=20210304-16:31:00.199|453=2|448=T2Kauaiblk2|447=C|452=11|448=Kauai blkrock company2|447=D|452=13|37=907668|11=ClOrdID-1779|66=ListID-040321-rodrigo-1774|17=907668-18xdg6|150=4|19=907668-18f6u2|39=4|55=[N/A]|54=1|48=US29379VAW37|22=4|454=1|455=29379VAW3|456=1|460=3|167=CORP|541=20420815|223=0.0485|106=ENTERPRISE PROD|225=20120215|873=20120215|107=EPD  4.850  8/15/42 c42|64=20210308|9690=1|9691=BRSE|9692=B|9694=220.700|9693=6|5691=105.118|9695=350000|9697=DNT|7761=1|151=0|15=USD|120=USD|38=350000|14=0|6=0.0|761=1|699=912810SS8|60=20210304-16:31:00|126=20210304-16:18:31|75=20210304|20117=7200135|29706=130.73|29707=131.017|29708=151.17|29709=149.43|30=MTXX|29798=7200135|29799=0.000|10=149|
8=FIX.4.4|9=652|35=8|49=MA|56=T2Kauaiblk2|34=34|52=20210304-16:31:00.202|453=2|448=T2Kauaiblk2|447=C|452=11|448=Kauai blkrock company2|447=D|452=13|37=907665|11=ClOrdID-1776|66=ListID-040321-rodrigo-1774|17=907665-18xdg7|150=4|19=907665-18f6tw|39=4|55=[N/A]|54=1|48=US40434AAB52|22=4|454=1|455=40434AAB5|456=1|460=3|167=CORP|541=20260225|223=0.032|106=HSBC BK USA|225=20130225|873=20130225|107=HSBC  3.200  2/25/26 c22|64=20210308|9690=1|9691=BRSE|9692=B|9694=111.700|9693=6|9695=100000|9697=DNT|7761=1|151=0|15=USD|120=USD|38=100000|14=0|6=0.0|761=1|699=912810SS8|60=20210304-16:31:00|126=20210304-16:18:31|75=20210304|20117=7200132|30=MTXX|29798=7200132|29799=0.000|10=063|
8=FIX.4.4|9=57|35=0|34=15|49=T2Kauaiblk2|52=20210304-16:31:55.890|56=MA|10=121|
8=FIX.4.4|9=57|35=0|34=35|49=MA|52=20210304-16:32:30.907|56=T2Kauaiblk2|10=116|
8=FIX.4.4|9=57|35=0|34=16|49=T2Kauaiblk2|52=20210304-16:33:25.890|56=MA|10=121|
8=FIX.4.4|9=57|35=0|34=36|49=MA|52=20210304-16:34:01.784|56=T2Kauaiblk2|10=120|
8=FIX.4.4|9=57|35=0|34=17|49=T2Kauaiblk2|52=20210304-16:34:55.890|56=MA|10=126|
8=FIX.4.4|9=57|35=0|34=37|49=MA|52=20210304-16:35:31.910|56=T2Kauaiblk2|10=116|
8=FIX.4.4|9=57|35=0|34=18|49=T2Kauaiblk2|52=20210304-16:36:26.890|56=MA|10=127|
8=FIX.4.4|9=57|35=0|34=38|49=MA|52=20210304-16:37:02.901|56=T2Kauaiblk2|10=117|
8=FIX.4.4|9=57|35=0|34=19|49=T2Kauaiblk2|52=20210304-16:37:57.889|56=MA|10=141|
8=FIX.4.4|9=57|35=0|34=39|49=MA|52=20210304-16:38:33.896|56=T2Kauaiblk2|10=136|
8=FIX.4.4|9=57|35=0|34=20|49=T2Kauaiblk2|52=20210304-16:39:28.888|56=MA|10=132|
8=FIX.4.4|9=57|35=0|34=40|49=MA|52=20210304-16:40:04.902|56=T2Kauaiblk2|10=107|
8=FIX.4.4|9=57|35=0|34=21|49=T2Kauaiblk2|52=20210304-16:40:58.888|56=MA|10=128|
8=FIX.4.4|9=57|35=0|34=41|49=MA|52=20210304-16:41:35.905|56=T2Kauaiblk2|10=116|
8=FIX.4.4|9=57|35=0|34=22|49=T2Kauaiblk2|52=20210304-16:42:28.889|56=MA|10=129|
8=FIX.4.4|9=57|35=0|34=42|49=MA|52=20210304-16:43:06.765|56=T2Kauaiblk2|10=121|
8=FIX.4.4|9=57|35=0|34=23|49=T2Kauaiblk2|52=20210304-16:43:58.890|56=MA|10=126|
8=FIX.4.4|9=57|35=0|34=43|49=MA|52=20210304-16:44:36.776|56=T2Kauaiblk2|10=128|
8=FIX.4.4|9=57|35=0|34=24|49=T2Kauaiblk2|52=20210304-16:45:28.890|56=MA|10=126|
8=FIX.4.4|9=57|35=0|34=44|49=MA|52=20210304-16:46:06.894|56=T2Kauaiblk2|10=129|
8=FIX.4.4|9=57|35=0|34=25|49=T2Kauaiblk2|52=20210304-16:46:59.889|56=MA|10=140|
8=FIX.4.4|9=57|35=0|34=45|49=MA|52=20210304-16:47:36.904|56=T2Kauaiblk2|10=126|
8=FIX.4.4|9=57|35=0|34=26|49=T2Kauaiblk2|52=20210304-16:48:29.889|56=MA|10=140|
8=FIX.4.4|9=57|35=0|34=46|49=MA|52=20210304-16:49:07.864|56=T2Kauaiblk2|10=132|
8=FIX.4.4|9=57|35=0|34=27|49=T2Kauaiblk2|52=20210304-16:49:59.889|56=MA|10=145|
8=FIX.4.4|9=57|35=0|34=47|49=MA|52=20210304-16:50:38.902|56=T2Kauaiblk2|10=122|
8=FIX.4.4|9=57|35=0|34=28|49=T2Kauaiblk2|52=20210304-16:51:29.889|56=MA|10=136|
8=FIX.4.4|9=57|35=0|34=48|49=MA|52=20210304-16:52:09.907|56=T2Kauaiblk2|10=128|
8=FIX.4.4|9=57|35=0|34=29|49=T2Kauaiblk2|52=20210304-16:52:59.889|56=MA|10=141|
8=FIX.4.4|9=57|35=0|34=49|49=MA|52=20210304-16:53:40.787|56=T2Kauaiblk2|10=131|
8=FIX.4.4|9=57|35=0|34=30|49=T2Kauaiblk2|52=20210304-16:54:29.889|56=MA|10=132|
8=FIX.4.4|9=57|35=0|34=50|49=MA|52=20210304-16:55:10.915|56=T2Kauaiblk2|10=115|
8=FIX.4.4|9=57|35=0|34=31|49=T2Kauaiblk2|52=20210304-16:55:59.890|56=MA|10=129|
8=FIX.4.4|9=57|35=0|34=51|49=MA|52=20210304-16:56:41.766|56=T2Kauaiblk2|10=125|
8=FIX.4.4|9=57|35=0|34=32|49=T2Kauaiblk2|52=20210304-16:57:30.890|56=MA|10=121|
8=FIX.4.4|9=57|35=0|34=52|49=MA|52=20210304-16:58:11.769|56=T2Kauaiblk2|10=128|
8=FIX.4.4|9=57|35=0|34=33|49=T2Kauaiblk2|52=20210304-16:59:01.890|56=MA|10=122|
8=FIX.4.4|9=57|35=0|34=53|49=MA|52=20210304-16:59:41.895|56=T2Kauaiblk2|10=133|
8=FIX.4.4|9=57|35=0|34=34|49=T2Kauaiblk2|52=20210304-17:00:31.890|56=MA|10=113|
8=FIX.4.4|9=57|35=0|34=54|49=MA|52=20210304-17:01:12.904|56=T2Kauaiblk2|10=111|
8=FIX.4.4|9=57|35=0|34=35|49=T2Kauaiblk2|52=20210304-17:02:01.894|56=MA|10=117|
8=FIX.4.4|9=57|35=0|34=55|49=MA|52=20210304-17:02:43.897|56=T2Kauaiblk2|10=128|
8=FIX.4.4|9=57|35=0|34=36|49=T2Kauaiblk2|52=20210304-17:03:31.894|56=MA|10=122|
8=FIX.4.4|9=57|35=0|34=56|49=MA|52=20210304-17:04:14.914|56=T2Kauaiblk2|10=119|
8=FIX.4.4|9=57|35=0|34=37|49=T2Kauaiblk2|52=20210304-17:05:01.896|56=MA|10=124|
8=FIX.4.4|9=57|35=0|34=57|49=MA|52=20210304-17:05:45.766|56=T2Kauaiblk2|10=130|
8=FIX.4.4|9=57|35=0|34=38|49=T2Kauaiblk2|52=20210304-17:06:31.896|56=MA|10=129|
8=FIX.4.4|9=57|35=0|34=58|49=MA|52=20210304-17:07:15.914|56=T2Kauaiblk2|10=125|
8=FIX.4.4|9=57|35=0|34=39|49=T2Kauaiblk2|52=20210304-17:08:01.898|56=MA|10=131|
8=FIX.4.4|9=57|35=0|34=59|49=MA|52=20210304-17:08:46.772|56=T2Kauaiblk2|10=133|
8=FIX.4.4|9=57|35=0|34=40|49=T2Kauaiblk2|52=20210304-17:09:31.899|56=MA|10=128|
8=FIX.4.4|9=57|35=0|34=60|49=MA|52=20210304-17:10:17.902|56=T2Kauaiblk2|10=111|
8=FIX.4.4|9=57|35=0|34=41|49=T2Kauaiblk2|52=20210304-17:11:01.901|56=MA|10=103|
8=FIX.4.4|9=57|35=0|34=61|49=MA|52=20210304-17:11:48.769|56=T2Kauaiblk2|10=128|
8=FIX.4.4|9=57|35=0|34=42|49=T2Kauaiblk2|52=20210304-17:12:31.902|56=MA|10=109|
8=FIX.4.4|9=57|35=0|34=62|49=MA|52=20210304-17:13:18.908|56=T2Kauaiblk2|10=123|
8=FIX.4.4|9=57|35=0|34=43|49=T2Kauaiblk2|52=20210304-17:14:02.903|56=MA|10=111|
8=FIX.4.4|9=57|35=0|34=63|49=MA|52=20210304-17:14:49.836|56=T2Kauaiblk2|10=129|
8=FIX.4.4|9=57|35=0|34=44|49=T2Kauaiblk2|52=20210304-17:15:32.904|56=MA|10=117|
8=FIX.4.4|9=57|35=0|34=64|49=MA|52=20210304-17:16:19.893|56=T2Kauaiblk2|10=132|
8=FIX.4.4|9=57|35=0|34=45|49=T2Kauaiblk2|52=20210304-17:17:03.905|56=MA|10=119|
8=FIX.4.4|9=57|35=0|34=65|49=MA|52=20210304-17:17:50.915|56=T2Kauaiblk2|10=124|
8=FIX.4.4|9=57|35=0|34=46|49=T2Kauaiblk2|52=20210304-17:18:33.905|56=MA|10=124|
8=FIX.4.4|9=57|35=0|34=66|49=MA|52=20210304-17:19:21.765|56=T2Kauaiblk2|10=128|
8=FIX.4.4|9=57|35=0|34=47|49=T2Kauaiblk2|52=20210304-17:20:03.905|56=MA|10=115|
8=FIX.4.4|9=57|35=0|34=67|49=MA|52=20210304-17:20:51.816|56=T2Kauaiblk2|10=121|
8=FIX.4.4|9=57|35=0|34=48|49=T2Kauaiblk2|52=20210304-17:21:33.906|56=MA|10=121|
8=FIX.4.4|9=57|35=0|34=68|49=MA|52=20210304-17:22:22.897|56=T2Kauaiblk2|10=131|
8=FIX.4.4|9=57|35=0|34=49|49=T2Kauaiblk2|52=20210304-17:23:03.906|56=MA|10=121|
8=FIX.4.4|9=57|35=0|34=69|49=MA|52=20210304-17:23:53.766|56=T2Kauaiblk2|10=132|
8=FIX.4.4|9=57|35=0|34=50|49=T2Kauaiblk2|52=20210304-17:24:33.907|56=MA|10=118|
8=FIX.4.4|9=57|35=0|34=70|49=MA|52=20210304-17:25:23.767|56=T2Kauaiblk2|10=124|
8=FIX.4.4|9=57|35=0|34=51|49=T2Kauaiblk2|52=20210304-17:26:03.909|56=MA|10=120|
8=FIX.4.4|9=57|35=0|34=71|49=MA|52=20210304-17:26:53.895|56=T2Kauaiblk2|10=131|
8=FIX.4.4|9=57|35=0|34=52|49=T2Kauaiblk2|52=20210304-17:27:33.910|56=MA|10=117|
8=FIX.4.4|9=57|35=0|34=72|49=MA|52=20210304-17:28:24.898|56=T2Kauaiblk2|10=135|
8=FIX.4.4|9=57|35=0|34=53|49=T2Kauaiblk2|52=20210304-17:29:03.910|56=MA|10=117|
8=FIX.4.4|9=57|35=0|34=73|49=MA|52=20210304-17:29:55.891|56=T2Kauaiblk2|10=134|
8=FIX.4.4|9=57|35=0|34=54|49=T2Kauaiblk2|52=20210304-17:30:33.910|56=MA|10=113|
8=FIX.4.4|9=57|35=0|34=74|49=MA|52=20210304-17:31:25.895|56=T2Kauaiblk2|10=129|
8=FIX.4.4|9=57|35=0|34=55|49=T2Kauaiblk2|52=20210304-17:32:03.911|56=MA|10=114|
8=FIX.4.4|9=57|35=0|34=75|49=MA|52=20210304-17:32:55.899|56=T2Kauaiblk2|10=138|
8=FIX.4.4|9=57|35=0|34=56|49=T2Kauaiblk2|52=20210304-17:33:34.911|56=MA|10=120|
8=FIX.4.4|9=57|35=0|34=76|49=MA|52=20210304-17:34:26.897|56=T2Kauaiblk2|10=137|
8=FIX.4.4|9=57|35=0|34=57|49=T2Kauaiblk2|52=20210304-17:35:04.911|56=MA|10=120|
8=FIX.4.4|9=57|35=0|34=77|49=MA|52=20210304-17:35:57.895|56=T2Kauaiblk2|10=141|
8=FIX.4.4|9=57|35=0|34=58|49=T2Kauaiblk2|52=20210304-17:36:34.912|56=MA|10=126|
8=FIX.4.4|9=57|35=0|34=78|49=MA|52=20210304-17:37:28.896|56=T2Kauaiblk2|10=143|
8=FIX.4.4|9=57|35=0|34=59|49=T2Kauaiblk2|52=20210304-17:38:04.912|56=MA|10=126|
8=FIX.4.4|9=57|35=0|34=79|49=MA|52=20210304-17:38:59.873|56=T2Kauaiblk2|10=144|
8=FIX.4.4|9=57|35=0|34=60|49=T2Kauaiblk2|52=20210304-17:39:34.914|56=MA|10=124|
8=FIX.4.4|9=57|35=0|34=80|49=MA|52=20210304-17:40:30.898|56=T2Kauaiblk2|10=125|
8=FIX.4.4|9=57|35=0|34=61|49=T2Kauaiblk2|52=20210304-17:41:04.914|56=MA|10=115|
8=FIX.4.4|9=57|35=0|34=81|49=MA|52=20210304-17:42:01.902|56=T2Kauaiblk2|10=112|
8=FIX.4.4|9=57|35=0|34=62|49=T2Kauaiblk2|52=20210304-17:42:35.915|56=MA|10=122|
8=FIX.4.4|9=57|35=0|34=82|49=MA|52=20210304-17:43:32.913|56=T2Kauaiblk2|10=120|
8=FIX.4.4|9=57|35=0|34=63|49=T2Kauaiblk2|52=20210304-17:44:05.915|56=MA|10=122|
8=FIX.4.4|9=57|35=0|34=83|49=MA|52=20210304-17:45:03.775|56=T2Kauaiblk2|10=127|
8=FIX.4.4|9=57|35=0|34=64|49=T2Kauaiblk2|52=20210304-17:45:35.915|56=MA|10=127|
8=FIX.4.4|9=57|35=0|34=84|49=MA|52=20210304-17:46:34.898|56=T2Kauaiblk2|10=139|
8=FIX.4.4|9=57|35=0|34=65|49=T2Kauaiblk2|52=20210304-17:47:05.915|56=MA|10=127|
8=FIX.4.4|9=57|35=0|34=85|49=MA|52=20210304-17:48:05.903|56=T2Kauaiblk2|10=127|
8=FIX.4.4|9=57|35=0|34=66|49=T2Kauaiblk2|52=20210304-17:48:35.915|56=MA|10=132|
8=FIX.4.4|9=57|35=0|34=86|49=MA|52=20210304-17:49:36.895|56=T2Kauaiblk2|10=143|
8=FIX.4.4|9=57|35=0|34=67|49=T2Kauaiblk2|52=20210304-17:50:05.915|56=MA|10=123|
8=FIX.4.4|9=57|35=0|34=87|49=MA|52=20210304-17:51:07.879|56=T2Kauaiblk2|10=137|
8=FIX.4.4|9=57|35=0|34=68|49=T2Kauaiblk2|52=20210304-17:51:35.915|56=MA|10=128|
8=FIX.4.4|9=57|35=0|34=88|49=MA|52=20210304-17:52:37.894|56=T2Kauaiblk2|10=139|
8=FIX.4.4|9=57|35=0|34=69|49=T2Kauaiblk2|52=20210304-17:53:05.916|56=MA|10=129|
8=FIX.4.4|9=57|35=0|34=89|49=MA|52=20210304-17:54:08.891|56=T2Kauaiblk2|10=137|
8=FIX.4.4|9=57|35=0|34=70|49=T2Kauaiblk2|52=20210304-17:54:35.930|56=MA|10=121|
8=FIX.4.4|9=57|35=0|34=90|49=MA|52=20210304-17:55:39.894|56=T2Kauaiblk2|10=137|
8=FIX.4.4|9=57|35=0|34=71|49=T2Kauaiblk2|52=20210304-17:56:06.917|56=MA|10=127|
8=FIX.4.4|9=57|35=0|34=91|49=MA|52=20210304-17:57:10.907|56=T2Kauaiblk2|10=124|
8=FIX.4.4|9=57|35=0|34=72|49=T2Kauaiblk2|52=20210304-17:57:37.917|56=MA|10=133|
8=FIX.4.4|9=57|35=0|34=92|49=MA|52=20210304-17:58:41.893|56=T2Kauaiblk2|10=134|
8=FIX.4.4|9=57|35=0|34=73|49=T2Kauaiblk2|52=20210304-17:59:07.917|56=MA|10=133|
8=FIX.4.4|9=75|35=5|34=74|49=T2Kauaiblk2|52=20210304-18:00:02.917|56=MA|58=user requested|10=213|
8=FIX.4.4|9=57|35=5|34=93|49=MA|52=20210304-18:00:02.991|56=T2Kauaiblk2|10=124|
8=FIX.4.4|9=91|35=A|34=1|49=T2Kauaiblk2|52=20210305-10:36:25.887|56=MA|98=0|108=90|95=8|96=3.0.0rc5|141=Y|10=044|
8=FIX.4.4|9=74|35=A|34=1|49=MA|52=20210305-10:36:26.474|56=T2Kauaiblk2|98=0|108=90|141=Y|10=156|
8=FIX.4.4|9=699|35=E|34=2|49=T2Kauaiblk2|52=20210305-10:36:37.055|56=MA|66=ListID-050321-1798|394=2|68=5|73=5|11=ClOrdID-1799|22=4|38=100000|44=100|48=US06051GEN51|54=1|55=[N/A/]|63=3|67=1|423=1|29726=100.25|453=1|448=T2Kauaiblk2|447=C|452=11|11=ClOrdID-1800|22=4|38=100000|44=101|48=US40434AAB52|54=1|55=[N/A]|63=3|67=2|29726=101.25|11=ClOrdID-1801|22=4|38=130000|44=102|48=US95709TAH32|54=1|55=[N/A/]|63=3|67=1|29726=102.25|453=1|448=T2Kauaiblk2|447=C|452=11|11=ClOrdID-1802|22=4|38=250000|44=103|48=US427866AZ15|54=1|55=[N/A/]|63=3|67=1|29726=103.25|453=1|448=T2Kauaiblk2|447=C|452=11|11=ClOrdID-1803|22=4|38=350000|44=104|48=US29379VAW37|54=1|55=[N/A/]|63=3|67=1|29726=104.25|453=1|448=T2Kauaiblk2|447=C|452=11|10=142|
8=FIX.4.4|9=510|35=8|49=MA|56=T2Kauaiblk2|34=2|52=20210305-10:36:37.374|453=2|448=T2Kauaiblk2|447=C|452=11|448=Kauai blkrock company2|447=D|452=13|37=908032|11=ClOrdID-1800|66=ListID-050321-1798|17=908032-o654c|150=0|39=0|55=[N/A]|54=1|48=US40434AAB52|22=4|454=1|455=40434AAB5|456=1|460=3|167=CORP|541=20260225|223=0.032|106=HSBC BK USA|225=20130225|873=20130225|107=HSBC  3.200  2/25/26 c22|64=20210309|151=100000|15=USD|120=USD|38=100000|14=0|6=0|60=20210305-10:36:37|126=20210305-10:36:37|75=20210305|20117=7201471|30=MTXX|10=226|
8=FIX.4.4|9=507|35=8|49=MA|56=T2Kauaiblk2|34=3|52=20210305-10:36:37.386|453=2|448=T2Kauaiblk2|447=C|452=11|448=Kauai blkrock company2|447=D|452=13|37=908034|11=ClOrdID-1802|66=ListID-050321-1798|17=908034-o654i|150=0|39=0|55=[N/A]|54=1|48=US427866AZ15|22=4|454=1|455=427866AZ1|456=1|460=3|167=CORP|541=20230515|223=0.03375|106=HERSHEY|225=20180510|873=20180510|107=HSY  3.375  5/15/23 c23|64=20210309|151=250000|15=USD|120=USD|38=250000|14=0|6=0|60=20210305-10:36:37|126=20210305-10:36:37|75=20210305|20117=7201473|30=MTXX|10=198|
8=FIX.4.4|9=501|35=8|49=MA|56=T2Kauaiblk2|34=4|52=20210305-10:36:37.405|453=2|448=T2Kauaiblk2|447=C|452=11|448=Kauai blkrock company2|447=D|452=13|37=908031|11=ClOrdID-1799|66=ListID-050321-1798|17=908031-o6548|150=0|39=0|55=[N/A]|54=1|48=US06051GEN51|22=4|454=1|455=06051GEN5|456=1|460=3|167=CORP|541=20420207|223=0.05875|106=BOFAML|225=20120207|873=20120207|107=BAC  5.875  2/7/42|64=20210309|151=100000|15=USD|120=USD|38=100000|14=0|6=0|60=20210305-10:36:37|126=20210305-10:36:37|75=20210305|20117=7201470|30=MTXX|10=211|
8=FIX.4.4|9=513|35=8|49=MA|56=T2Kauaiblk2|34=5|52=20210305-10:36:37.424|453=2|448=T2Kauaiblk2|447=C|452=11|448=Kauai blkrock company2|447=D|452=13|37=908033|11=ClOrdID-1801|66=ListID-050321-1798|17=908033-o654d|150=0|39=0|55=[N/A]|54=1|48=US95709TAH32|22=4|454=1|455=95709TAH3|456=1|460=3|167=CORP|541=20420301|223=0.04125|106=EVERGY KANSAS|225=20120301|873=20120301|107=EVRG  4.125  3/1/42 c41|64=20210309|151=130000|15=USD|120=USD|38=130000|14=0|6=0|60=20210305-10:36:37|126=20210305-10:36:37|75=20210305|20117=7201472|30=MTXX|10=081|
8=FIX.4.4|9=514|35=8|49=MA|56=T2Kauaiblk2|34=6|52=20210305-10:36:37.444|453=2|448=T2Kauaiblk2|447=C|452=11|448=Kauai blkrock company2|447=D|452=13|37=908035|11=ClOrdID-1803|66=ListID-050321-1798|17=908035-o654l|150=0|39=0|55=[N/A]|54=1|48=US29379VAW37|22=4|454=1|455=29379VAW3|456=1|460=3|167=CORP|541=20420815|223=0.0485|106=ENTERPRISE PROD|225=20120215|873=20120215|107=EPD  4.850  8/15/42 c42|64=20210309|151=350000|15=USD|120=USD|38=350000|14=0|6=0|60=20210305-10:36:37|126=20210305-10:36:37|75=20210305|20117=7201474|30=MTXX|10=003|
8=FIX.4.4|9=699|35=E|34=3|49=T2Kauaiblk2|52=20210305-10:36:37.765|56=MA|66=ListID-050321-1804|394=2|68=5|73=5|11=ClOrdID-1805|22=4|38=100000|44=100|48=US06051GEN51|54=1|55=[N/A/]|63=3|67=1|423=1|29726=100.25|453=1|448=T2Kauaiblk2|447=C|452=11|11=ClOrdID-1806|22=4|38=100000|44=101|48=US40434AAB52|54=1|55=[N/A]|63=3|67=2|29726=101.25|11=ClOrdID-1807|22=4|38=130000|44=102|48=US95709TAH32|54=1|55=[N/A/]|63=3|67=1|29726=102.25|453=1|448=T2Kauaiblk2|447=C|452=11|11=ClOrdID-1808|22=4|38=250000|44=103|48=US427866AZ15|54=1|55=[N/A/]|63=3|67=1|29726=103.25|453=1|448=T2Kauaiblk2|447=C|452=11|11=ClOrdID-1809|22=4|38=350000|44=104|48=US29379VAW37|54=1|55=[N/A/]|63=3|67=1|29726=104.25|453=1|448=T2Kauaiblk2|447=C|452=11|10=151|
8=FIX.4.4|9=507|35=8|49=MA|56=T2Kauaiblk2|34=7|52=20210305-10:36:38.125|453=2|448=T2Kauaiblk2|447=C|452=11|448=Kauai blkrock company2|447=D|452=13|37=908040|11=ClOrdID-1808|66=ListID-050321-1804|17=908040-o65ph|150=0|39=0|55=[N/A]|54=1|48=US427866AZ15|22=4|454=1|455=427866AZ1|456=1|460=3|167=CORP|541=20230515|223=0.03375|106=HERSHEY|225=20180510|873=20180510|107=HSY  3.375  5/15/23 c23|64=20210309|151=250000|15=USD|120=USD|38=250000|14=0|6=0|60=20210305-10:36:38|126=20210305-10:36:38|75=20210305|20117=7201479|30=MTXX|10=249|
8=FIX.4.4|9=514|35=8|49=MA|56=T2Kauaiblk2|34=8|52=20210305-10:36:38.137|453=2|448=T2Kauaiblk2|447=C|452=11|448=Kauai blkrock company2|447=D|452=13|37=908041|11=ClOrdID-1809|66=ListID-050321-1804|17=908041-o65pk|150=0|39=0|55=[N/A]|54=1|48=US29379VAW37|22=4|454=1|455=29379VAW3|456=1|460=3|167=CORP|541=20420815|223=0.0485|106=ENTERPRISE PROD|225=20120215|873=20120215|107=EPD  4.850  8/15/42 c42|64=20210309|151=350000|15=USD|120=USD|38=350000|14=0|6=0|60=20210305-10:36:38|126=20210305-10:36:38|75=20210305|20117=7201480|30=MTXX|10=051|
8=FIX.4.4|9=501|35=8|49=MA|56=T2Kauaiblk2|34=9|52=20210305-10:36:38.144|453=2|448=T2Kauaiblk2|447=C|452=11|448=Kauai blkrock company2|447=D|452=13|37=908037|11=ClOrdID-1805|66=ListID-050321-1804|17=908037-o65pe|150=0|39=0|55=[N/A]|54=1|48=US06051GEN51|22=4|454=1|455=06051GEN5|456=1|460=3|167=CORP|541=20420207|223=0.05875|106=BOFAML|225=20120207|873=20120207|107=BAC  5.875  2/7/42|64=20210309|151=100000|15=USD|120=USD|38=100000|14=0|6=0|60=20210305-10:36:38|126=20210305-10:36:38|75=20210305|20117=7201476|30=MTXX|10=062|
8=FIX.4.4|9=511|35=8|49=MA|56=T2Kauaiblk2|34=10|52=20210305-10:36:38.156|453=2|448=T2Kauaiblk2|447=C|452=11|448=Kauai blkrock company2|447=D|452=13|37=908038|11=ClOrdID-1806|66=ListID-050321-1804|17=908038-o65pm|150=0|39=0|55=[N/A]|54=1|48=US40434AAB52|22=4|454=1|455=40434AAB5|456=1|460=3|167=CORP|541=20260225|223=0.032|106=HSBC BK USA|225=20130225|873=20130225|107=HSBC  3.200  2/25/26 c22|64=20210309|151=100000|15=USD|120=USD|38=100000|14=0|6=0|60=20210305-10:36:38|126=20210305-10:36:38|75=20210305|20117=7201477|30=MTXX|10=101|
8=FIX.4.4|9=514|35=8|49=MA|56=T2Kauaiblk2|34=11|52=20210305-10:36:38.162|453=2|448=T2Kauaiblk2|447=C|452=11|448=Kauai blkrock company2|447=D|452=13|37=908039|11=ClOrdID-1807|66=ListID-050321-1804|17=908039-o65po|150=0|39=0|55=[N/A]|54=1|48=US95709TAH32|22=4|454=1|455=95709TAH3|456=1|460=3|167=CORP|541=20420301|223=0.04125|106=EVERGY KANSAS|225=20120301|873=20120301|107=EVRG  4.125  3/1/42 c41|64=20210309|151=130000|15=USD|120=USD|38=130000|14=0|6=0|60=20210305-10:36:38|126=20210305-10:36:38|75=20210305|20117=7201478|30=MTXX|10=212|
8=FIX.4.4|9=699|35=E|34=4|49=T2Kauaiblk2|52=20210305-10:36:38.424|56=MA|66=ListID-050321-1810|394=2|68=5|73=5|11=ClOrdID-1811|22=4|38=100000|44=100|48=US06051GEN51|54=1|55=[N/A/]|63=3|67=1|423=1|29726=100.25|453=1|448=T2Kauaiblk2|447=C|452=11|11=ClOrdID-1812|22=4|38=100000|44=101|48=US40434AAB52|54=1|55=[N/A]|63=3|67=2|29726=101.25|11=ClOrdID-1813|22=4|38=130000|44=102|48=US95709TAH32|54=1|55=[N/A/]|63=3|67=1|29726=102.25|453=1|448=T2Kauaiblk2|447=C|452=11|11=ClOrdID-1814|22=4|38=250000|44=103|48=US427866AZ15|54=1|55=[N/A/]|63=3|67=1|29726=103.25|453=1|448=T2Kauaiblk2|447=C|452=11|11=ClOrdID-1815|22=4|38=350000|44=104|48=US29379VAW37|54=1|55=[N/A/]|63=3|67=1|29726=104.25|453=1|448=T2Kauaiblk2|447=C|452=11|10=127|
