8=FIX.4.4|9=91|35=A|34=1|49=T1Kauaiblk3|52=20201130-08:29:59.424|56=MA|98=0|108=90|95=8|96=3.0.0rc5|141=Y|10=043|8=FIX.4.4|9=640|35=E|34=2|49=T1Kauaiblk3|52=20201130-08:30:35.486|56=MA|66=MMAD-FIX44-ListID-301120-1216|394=2|68=5|73=5|11=FIX44-List-ClOrdID-1217|22=4|38=100000|48=US06051GEN51|54=1|55=[N/A/]|67=1|423=1|453=1|448=T1Kauaiblk3|447=C|452=11|11=FIX44-List-ClOrdID-1218|22=4|38=100000|48=US40434AAB52|54=1|55=[N/A]|67=2|11=FIX44-List-ClOrdID-1219|22=4|38=130000|48=US06738JYZ10|54=1|55=[N/A/]|67=1|453=1|448=T1Kauaiblk3|447=C|452=11|11=FIX44-List-ClOrdID-1220|22=4|38=250000|48=US95709TAH32|54=1|55=[N/A/]|67=1|453=1|448=T1Kauaiblk3|447=C|452=11|11=FIX44-List-ClOrdID-1221|22=4|38=350000|48=US29379VAW37|54=1|55=[N/A/]|67=1|453=1|448=T1Kauaiblk3|447=C|452=11|10=017|8=FIX.4.4|9=56|35=0|34=3|49=T1Kauaiblk3|52=20201130-08:32:06.409|56=MA|10=060|8=FIX.4.4|9=56|35=0|34=4|49=T1Kauaiblk3|52=20201130-08:33:36.409|56=MA|10=065|8=FIX.4.4|9=56|35=0|34=5|49=T1Kauaiblk3|52=20201130-08:35:07.408|56=MA|10=065|8=FIX.4.4|9=56|35=0|34=6|49=T1Kauaiblk3|52=20201130-08:36:37.409|56=MA|10=071|8=FIX.4.4|9=56|35=0|34=7|49=T1Kauaiblk3|52=20201130-08:38:07.409|56=MA|10=071|8=FIX.4.4|9=56|35=0|34=8|49=T1Kauaiblk3|52=20201130-08:39:38.408|56=MA|10=076|8=FIX.4.4|9=56|35=0|34=9|49=T1Kauaiblk3|52=20201130-08:41:09.407|56=MA|10=067|8=FIX.4.4|9=57|35=0|34=10|49=T1Kauaiblk3|52=20201130-08:42:40.405|56=MA|10=102|8=FIX.4.4|9=57|35=0|34=11|49=T1Kauaiblk3|52=20201130-08:44:10.405|56=MA|10=102|8=FIX.4.4|9=57|35=0|34=12|49=T1Kauaiblk3|52=20201130-08:45:41.405|56=MA|10=108|8=FIX.4.4|9=57|35=0|34=13|49=T1Kauaiblk3|52=20201130-08:47:11.405|56=MA|10=108|8=FIX.4.4|9=57|35=0|34=14|49=T1Kauaiblk3|52=20201130-08:48:42.404|56=MA|10=113|8=FIX.4.4|9=57|35=0|34=15|49=T1Kauaiblk3|52=20201130-08:50:12.404|56=MA|10=104|8=FIX.4.4|9=57|35=0|34=16|49=T1Kauaiblk3|52=20201130-08:51:42.405|56=MA|10=110|8=FIX.4.4|9=57|35=0|34=17|49=T1Kauaiblk3|52=20201130-08:53:13.404|56=MA|10=110|8=FIX.4.4|9=57|35=0|34=18|49=T1Kauaiblk3|52=20201130-08:54:43.408|56=MA|10=119|8=FIX.4.4|9=57|35=0|34=19|49=T1Kauaiblk3|52=20201130-08:56:13.411|56=MA|10=113|8=FIX.4.4|9=57|35=0|34=20|49=T1Kauaiblk3|52=20201130-08:57:43.415|56=MA|10=113|8=FIX.4.4|9=57|35=0|34=21|49=T1Kauaiblk3|52=20201130-08:59:13.416|56=MA|10=114|8=FIX.4.4|9=57|35=0|34=22|49=T1Kauaiblk3|52=20201130-09:00:43.417|56=MA|10=106|8=FIX.4.4|9=57|35=0|34=23|49=T1Kauaiblk3|52=20201130-09:02:13.417|56=MA|10=106|8=FIX.4.4|9=57|35=0|34=24|49=T1Kauaiblk3|52=20201130-09:03:44.416|56=MA|10=111|8=FIX.4.4|9=57|35=0|34=25|49=T1Kauaiblk3|52=20201130-09:05:15.416|56=MA|10=112|8=FIX.4.4|9=57|35=0|34=26|49=T1Kauaiblk3|52=20201130-09:06:45.416|56=MA|10=117|8=FIX.4.4|9=57|35=0|34=27|49=T1Kauaiblk3|52=20201130-09:08:15.416|56=MA|10=117|8=FIX.4.4|9=57|35=0|34=28|49=T1Kauaiblk3|52=20201130-09:09:46.415|56=MA|10=122|8=FIX.4.4|9=57|35=0|34=29|49=T1Kauaiblk3|52=20201130-09:11:16.415|56=MA|10=113|8=FIX.4.4|9=57|35=0|34=30|49=T1Kauaiblk3|52=20201130-09:12:46.416|56=MA|10=110|8=FIX.4.4|9=57|35=0|34=31|49=T1Kauaiblk3|52=20201130-09:14:16.418|56=MA|10=112|8=FIX.4.4|9=57|35=0|34=32|49=T1Kauaiblk3|52=20201130-09:15:46.418|56=MA|10=117|8=FIX.4.4|9=57|35=0|34=33|49=T1Kauaiblk3|52=20201130-09:17:16.418|56=MA|10=117|8=FIX.4.4|9=57|35=0|34=34|49=T1Kauaiblk3|52=20201130-09:18:46.420|56=MA|10=115|8=FIX.4.4|9=57|35=0|34=35|49=T1Kauaiblk3|52=20201130-09:20:16.420|56=MA|10=106|8=FIX.4.4|9=57|35=0|34=36|49=T1Kauaiblk3|52=20201130-09:21:47.419|56=MA|10=120|8=FIX.4.4|9=57|35=0|34=37|49=T1Kauaiblk3|52=20201130-09:23:17.419|56=MA|10=120|8=FIX.4.4|9=57|35=0|34=38|49=T1Kauaiblk3|52=20201130-09:24:47.419|56=MA|10=125|8=FIX.4.4|9=57|35=0|34=39|49=T1Kauaiblk3|52=20201130-09:26:17.419|56=MA|10=125|8=FIX.4.4|9=57|35=0|34=40|49=T1Kauaiblk3|52=20201130-09:27:47.420|56=MA|10=113|8=FIX.4.4|9=57|35=0|34=41|49=T1Kauaiblk3|52=20201130-09:29:17.423|56=MA|10=116|8=FIX.4.4|9=57|35=0|34=42|49=T1Kauaiblk3|52=20201130-09:30:47.425|56=MA|10=114|8=FIX.4.4|9=57|35=0|34=43|49=T1Kauaiblk3|52=20201130-09:32:17.428|56=MA|10=117|8=FIX.4.4|9=57|35=0|34=44|49=T1Kauaiblk3|52=20201130-09:33:47.429|56=MA|10=123|8=FIX.4.4|9=57|35=0|34=45|49=T1Kauaiblk3|52=20201130-09:35:17.430|56=MA|10=115|8=FIX.4.4|9=57|35=0|34=46|49=T1Kauaiblk3|52=20201130-09:36:47.431|56=MA|10=121|8=FIX.4.4|9=57|35=0|34=47|49=T1Kauaiblk3|52=20201130-09:38:17.431|56=MA|10=121|8=FIX.4.4|9=57|35=0|34=48|49=T1Kauaiblk3|52=20201130-09:39:47.432|56=MA|10=127|8=FIX.4.4|9=57|35=0|34=49|49=T1Kauaiblk3|52=20201130-09:41:17.432|56=MA|10=118|8=FIX.4.4|9=57|35=0|34=50|49=T1Kauaiblk3|52=20201130-09:42:48.431|56=MA|10=114|8=FIX.4.4|9=57|35=0|34=51|49=T1Kauaiblk3|52=20201130-09:44:18.431|56=MA|10=114|8=FIX.4.4|9=57|35=0|34=52|49=T1Kauaiblk3|52=20201130-09:45:48.434|56=MA|10=122|8=FIX.4.4|9=57|35=0|34=53|49=T1Kauaiblk3|52=20201130-09:47:18.436|56=MA|10=124|8=FIX.4.4|9=57|35=0|34=54|49=T1Kauaiblk3|52=20201130-09:48:48.438|56=MA|10=131|8=FIX.4.4|9=57|35=0|34=55|49=T1Kauaiblk3|52=20201130-09:50:18.440|56=MA|10=115|8=FIX.4.4|9=57|35=0|34=56|49=T1Kauaiblk3|52=20201130-09:51:48.442|56=MA|10=122|8=FIX.4.4|9=57|35=0|34=57|49=T1Kauaiblk3|52=20201130-09:53:19.441|56=MA|10=122|8=FIX.4.4|9=57|35=0|34=58|49=T1Kauaiblk3|52=20201130-09:54:49.442|56=MA|10=128|8=FIX.4.4|9=57|35=0|34=59|49=T1Kauaiblk3|52=20201130-09:56:19.442|56=MA|10=128|8=FIX.4.4|9=57|35=0|34=60|49=T1Kauaiblk3|52=20201130-09:57:49.442|56=MA|10=124|8=FIX.4.4|9=57|35=0|34=61|49=T1Kauaiblk3|52=20201130-09:59:19.443|56=MA|10=125|8=FIX.4.4|9=57|35=0|34=62|49=T1Kauaiblk3|52=20201130-10:00:50.443|56=MA|10=099|8=FIX.4.4|9=57|35=0|34=63|49=T1Kauaiblk3|52=20201130-10:02:20.446|56=MA|10=102|8=FIX.4.4|9=57|35=0|34=64|49=T1Kauaiblk3|52=20201130-10:03:50.448|56=MA|10=109|8=FIX.4.4|9=57|35=0|34=65|49=T1Kauaiblk3|52=20201130-10:05:20.450|56=MA|10=102|8=FIX.4.4|9=57|35=0|34=66|49=T1Kauaiblk3|52=20201130-10:06:50.454|56=MA|10=111|8=FIX.4.4|9=57|35=0|34=67|49=T1Kauaiblk3|52=20201130-10:08:20.454|56=MA|10=111|8=FIX.4.4|9=57|35=0|34=68|49=T1Kauaiblk3|52=20201130-10:09:50.456|56=MA|10=118|8=FIX.4.4|9=57|35=0|34=69|49=T1Kauaiblk3|52=20201130-10:11:20.457|56=MA|10=110|8=FIX.4.4|9=57|35=0|34=70|49=T1Kauaiblk3|52=20201130-10:12:50.458|56=MA|10=107|8=FIX.4.4|9=57|35=0|34=71|49=T1Kauaiblk3|52=20201130-10:14:20.458|56=MA|10=107|8=FIX.4.4|9=57|35=0|34=72|49=T1Kauaiblk3|52=20201130-10:15:50.458|56=MA|10=112|8=FIX.4.4|9=57|35=0|34=73|49=T1Kauaiblk3|52=20201130-10:17:20.458|56=MA|10=112|8=FIX.4.4|9=57|35=0|34=74|49=T1Kauaiblk3|52=20201130-10:18:50.459|56=MA|10=118|8=FIX.4.4|9=57|35=0|34=75|49=T1Kauaiblk3|52=20201130-10:20:20.462|56=MA|10=103|8=FIX.4.4|9=57|35=0|34=76|49=T1Kauaiblk3|52=20201130-10:21:50.465|56=MA|10=111|8=FIX.4.4|9=57|35=0|34=77|49=T1Kauaiblk3|52=20201130-10:23:20.469|56=MA|10=115|8=FIX.4.4|9=57|35=0|34=78|49=T1Kauaiblk3|52=20201130-10:24:50.472|56=MA|10=114|8=FIX.4.4|9=57|35=0|34=79|49=T1Kauaiblk3|52=20201130-10:26:21.472|56=MA|10=115|8=FIX.4.4|9=57|35=0|34=80|49=T1Kauaiblk3|52=20201130-10:27:51.473|56=MA|10=112|8=FIX.4.4|9=57|35=0|34=81|49=T1Kauaiblk3|52=20201130-10:29:21.475|56=MA|10=114|8=FIX.4.4|9=57|35=0|34=82|49=T1Kauaiblk3|52=20201130-10:30:51.475|56=MA|10=110|8=FIX.4.4|9=57|35=0|34=83|49=T1Kauaiblk3|52=20201130-10:32:21.475|56=MA|10=110|8=FIX.4.4|9=57|35=0|34=84|49=T1Kauaiblk3|52=20201130-10:33:51.475|56=MA|10=115|8=FIX.4.4|9=57|35=0|34=85|49=T1Kauaiblk3|52=20201130-10:35:21.475|56=MA|10=115|8=FIX.4.4|9=57|35=0|34=86|49=T1Kauaiblk3|52=20201130-10:36:51.475|56=MA|10=120|8=FIX.4.4|9=57|35=0|34=87|49=T1Kauaiblk3|52=20201130-10:38:21.477|56=MA|10=122|8=FIX.4.4|9=57|35=0|34=88|49=T1Kauaiblk3|52=20201130-10:39:52.477|56=MA|10=128|8=FIX.4.4|9=57|35=0|34=89|49=T1Kauaiblk3|52=20201130-10:41:22.477|56=MA|10=119|8=FIX.4.4|9=57|35=0|34=90|49=T1Kauaiblk3|52=20201130-10:42:52.478|56=MA|10=116|8=FIX.4.4|9=57|35=0|34=91|49=T1Kauaiblk3|52=20201130-10:44:22.478|56=MA|10=116|8=FIX.4.4|9=57|35=0|34=92|49=T1Kauaiblk3|52=20201130-10:45:53.478|56=MA|10=122|8=FIX.4.4|9=57|35=0|34=93|49=T1Kauaiblk3|52=20201130-10:47:24.477|56=MA|10=122|8=FIX.4.4|9=57|35=0|34=94|49=T1Kauaiblk3|52=20201130-10:48:54.478|56=MA|10=128|8=FIX.4.4|9=57|35=0|34=95|49=T1Kauaiblk3|52=20201130-10:50:24.478|56=MA|10=119|8=FIX.4.4|9=57|35=0|34=96|49=T1Kauaiblk3|52=20201130-10:51:55.477|56=MA|10=124|8=FIX.4.4|9=57|35=0|34=97|49=T1Kauaiblk3|52=20201130-10:53:25.479|56=MA|10=126|8=FIX.4.4|9=57|35=0|34=98|49=T1Kauaiblk3|52=20201130-10:54:55.480|56=MA|10=123|8=FIX.4.4|9=57|35=0|34=99|49=T1Kauaiblk3|52=20201130-10:56:25.482|56=MA|10=125|8=FIX.4.4|9=58|35=0|34=100|49=T1Kauaiblk3|52=20201130-10:57:55.485|56=MA|10=164|8=FIX.4.4|9=58|35=0|34=101|49=T1Kauaiblk3|52=20201130-10:59:25.485|56=MA|10=164|8=FIX.4.4|9=58|35=0|34=102|49=T1Kauaiblk3|52=20201130-11:00:55.488|56=MA|10=158|8=FIX.4.4|9=58|35=0|34=103|49=T1Kauaiblk3|52=20201130-11:02:26.487|56=MA|10=158|8=FIX.4.4|9=58|35=0|34=104|49=T1Kauaiblk3|52=20201130-11:03:56.487|56=MA|10=163|8=FIX.4.4|9=58|35=0|34=105|49=T1Kauaiblk3|52=20201130-11:05:26.488|56=MA|10=164|8=FIX.4.4|9=58|35=0|34=106|49=T1Kauaiblk3|52=20201130-11:06:56.489|56=MA|10=170|8=FIX.4.4|9=58|35=0|34=107|49=T1Kauaiblk3|52=20201130-11:08:27.489|56=MA|10=171|8=FIX.4.4|9=58|35=0|34=108|49=T1Kauaiblk3|52=20201130-11:09:58.489|56=MA|10=177|8=FIX.4.4|9=58|35=0|34=109|49=T1Kauaiblk3|52=20201130-11:11:28.490|56=MA|10=160|8=FIX.4.4|9=58|35=0|34=110|49=T1Kauaiblk3|52=20201130-11:12:58.491|56=MA|10=157|8=FIX.4.4|9=58|35=0|34=111|49=T1Kauaiblk3|52=20201130-11:14:28.492|56=MA|10=158|8=FIX.4.4|9=58|35=0|34=112|49=T1Kauaiblk3|52=20201130-11:15:58.493|56=MA|10=164|8=FIX.4.4|9=58|35=0|34=113|49=T1Kauaiblk3|52=20201130-11:17:28.493|56=MA|10=164|8=FIX.4.4|9=58|35=0|34=114|49=T1Kauaiblk3|52=20201130-11:18:58.493|56=MA|10=169|8=FIX.4.4|9=58|35=0|34=115|49=T1Kauaiblk3|52=20201130-11:20:28.494|56=MA|10=161|8=FIX.4.4|9=58|35=0|34=116|49=T1Kauaiblk3|52=20201130-11:21:58.495|56=MA|10=167|8=FIX.4.4|9=58|35=0|34=117|49=T1Kauaiblk3|52=20201130-11:23:29.494|56=MA|10=167|8=FIX.4.4|9=58|35=0|34=118|49=T1Kauaiblk3|52=20201130-11:24:59.495|56=MA|10=173|8=FIX.4.4|9=58|35=0|34=119|49=T1Kauaiblk3|52=20201130-11:26:30.494|56=MA|10=164|8=FIX.4.4|9=58|35=0|34=120|49=T1Kauaiblk3|52=20201130-11:28:00.494|56=MA|10=155|8=FIX.4.4|9=58|35=0|34=121|49=T1Kauaiblk3|52=20201130-11:29:31.495|56=MA|10=162|8=FIX.4.4|9=58|35=0|34=122|49=T1Kauaiblk3|52=20201130-11:31:02.494|56=MA|10=153|8=FIX.4.4|9=58|35=0|34=123|49=T1Kauaiblk3|52=20201130-11:32:33.495|56=MA|10=160|8=FIX.4.4|9=58|35=0|34=124|49=T1Kauaiblk3|52=20201130-11:34:04.494|56=MA|10=160|8=FIX.4.4|9=58|35=0|34=125|49=T1Kauaiblk3|52=20201130-11:35:35.493|56=MA|10=165|8=FIX.4.4|9=58|35=0|34=126|49=T1Kauaiblk3|52=20201130-11:37:05.493|56=MA|10=165|8=FIX.4.4|9=58|35=0|34=127|49=T1Kauaiblk3|52=20201130-11:38:35.493|56=MA|10=170|8=FIX.4.4|9=58|35=0|34=128|49=T1Kauaiblk3|52=20201130-11:40:05.493|56=MA|10=161|8=FIX.4.4|9=58|35=0|34=129|49=T1Kauaiblk3|52=20201130-11:41:35.493|56=MA|10=166|8=FIX.4.4|9=58|35=0|34=130|49=T1Kauaiblk3|52=20201130-11:43:05.493|56=MA|10=157|8=FIX.4.4|9=58|35=0|34=131|49=T1Kauaiblk3|52=20201130-11:44:35.493|56=MA|10=162|8=FIX.4.4|9=58|35=0|34=132|49=T1Kauaiblk3|52=20201130-11:46:06.493|56=MA|10=163|8=FIX.4.4|9=58|35=0|34=133|49=T1Kauaiblk3|52=20201130-11:47:37.492|56=MA|10=168|8=FIX.4.4|9=58|35=0|34=134|49=T1Kauaiblk3|52=20201130-11:49:07.492|56=MA|10=168|8=FIX.4.4|9=58|35=0|34=135|49=T1Kauaiblk3|52=20201130-11:50:37.492|56=MA|10=164|8=FIX.4.4|9=58|35=0|34=136|49=T1Kauaiblk3|52=20201130-11:52:07.493|56=MA|10=165|8=FIX.4.4|9=58|35=0|34=137|49=T1Kauaiblk3|52=20201130-11:53:38.491|56=MA|10=169|8=FIX.4.4|9=58|35=0|34=138|49=T1Kauaiblk3|52=20201130-11:55:08.492|56=MA|10=170|8=FIX.4.4|9=58|35=0|34=139|49=T1Kauaiblk3|52=20201130-11:56:38.492|56=MA|10=175|8=FIX.4.4|9=58|35=0|34=140|49=T1Kauaiblk3|52=20201130-11:58:08.492|56=MA|10=166|8=FIX.4.4|9=58|35=0|34=141|49=T1Kauaiblk3|52=20201130-11:59:39.491|56=MA|10=171|8=FIX.4.4|9=58|35=0|34=142|49=T1Kauaiblk3|52=20201130-12:01:10.490|56=MA|10=148|8=FIX.4.4|9=58|35=0|34=143|49=T1Kauaiblk3|52=20201130-12:02:40.490|56=MA|10=153|8=FIX.4.4|9=58|35=0|34=144|49=T1Kauaiblk3|52=20201130-12:04:10.490|56=MA|10=153|8=FIX.4.4|9=58|35=0|34=145|49=T1Kauaiblk3|52=20201130-12:05:40.490|56=MA|10=158|8=FIX.4.4|9=58|35=0|34=146|49=T1Kauaiblk3|52=20201130-12:07:10.490|56=MA|10=158|8=FIX.4.4|9=58|35=0|34=147|49=T1Kauaiblk3|52=20201130-12:08:40.491|56=MA|10=164|8=FIX.4.4|9=58|35=0|34=148|49=T1Kauaiblk3|52=20201130-12:10:10.491|56=MA|10=155|8=FIX.4.4|9=58|35=0|34=149|49=T1Kauaiblk3|52=20201130-12:11:41.491|56=MA|10=161|8=FIX.4.4|9=58|35=0|34=150|49=T1Kauaiblk3|52=20201130-12:13:12.490|56=MA|10=152|8=FIX.4.4|9=58|35=0|34=151|49=T1Kauaiblk3|52=20201130-12:14:43.490|56=MA|10=158|8=FIX.4.4|9=58|35=0|34=152|49=T1Kauaiblk3|52=20201130-12:16:14.491|56=MA|10=160|8=FIX.4.4|9=58|35=0|34=153|49=T1Kauaiblk3|52=20201130-12:17:45.490|56=MA|10=165|8=FIX.4.4|9=58|35=0|34=154|49=T1Kauaiblk3|52=20201130-12:19:15.493|56=MA|10=168|8=FIX.4.4|9=58|35=0|34=155|49=T1Kauaiblk3|52=20201130-12:20:45.497|56=MA|10=168|8=FIX.4.4|9=58|35=0|34=156|49=T1Kauaiblk3|52=20201130-12:22:15.501|56=MA|10=154|8=FIX.4.4|9=58|35=0|34=157|49=T1Kauaiblk3|52=20201130-12:23:45.504|56=MA|10=162|8=FIX.4.4|9=58|35=0|34=158|49=T1Kauaiblk3|52=20201130-12:25:15.506|56=MA|10=164|8=FIX.4.4|9=58|35=0|34=159|49=T1Kauaiblk3|52=20201130-12:26:45.509|56=MA|10=172|8=FIX.4.4|9=58|35=0|34=160|49=T1Kauaiblk3|52=20201130-12:28:15.512|56=MA|10=157|8=FIX.4.4|9=58|35=0|34=161|49=T1Kauaiblk3|52=20201130-12:29:45.513|56=MA|10=163|8=FIX.4.4|9=58|35=0|34=162|49=T1Kauaiblk3|52=20201130-12:31:15.515|56=MA|10=156|8=FIX.4.4|9=58|35=0|34=163|49=T1Kauaiblk3|52=20201130-12:32:45.518|56=MA|10=164|8=FIX.4.4|9=58|35=0|34=164|49=T1Kauaiblk3|52=20201130-12:34:15.519|56=MA|10=165|8=FIX.4.4|9=58|35=0|34=165|49=T1Kauaiblk3|52=20201130-12:35:45.520|56=MA|10=162|8=FIX.4.4|9=58|35=0|34=166|49=T1Kauaiblk3|52=20201130-12:37:15.521|56=MA|10=163|8=FIX.4.4|9=58|35=0|34=167|49=T1Kauaiblk3|52=20201130-12:38:45.522|56=MA|10=169|8=FIX.4.4|9=58|35=0|34=168|49=T1Kauaiblk3|52=20201130-12:40:15.524|56=MA|10=162|8=FIX.4.4|9=58|35=0|34=169|49=T1Kauaiblk3|52=20201130-12:41:45.524|56=MA|10=167|8=FIX.4.4|9=58|35=0|34=170|49=T1Kauaiblk3|52=20201130-12:43:15.525|56=MA|10=159|8=FIX.4.4|9=58|35=0|34=171|49=T1Kauaiblk3|52=20201130-12:44:45.525|56=MA|10=164|8=FIX.4.4|9=58|35=0|34=172|49=T1Kauaiblk3|52=20201130-12:46:15.526|56=MA|10=165|8=FIX.4.4|9=58|35=0|34=173|49=T1Kauaiblk3|52=20201130-12:47:45.527|56=MA|10=171|8=FIX.4.4|9=58|35=0|34=174|49=T1Kauaiblk3|52=20201130-12:49:15.527|56=MA|10=171|8=FIX.4.4|9=58|35=0|34=175|49=T1Kauaiblk3|52=20201130-12:50:45.527|56=MA|10=167|8=FIX.4.4|9=58|35=0|34=176|49=T1Kauaiblk3|52=20201130-12:52:15.529|56=MA|10=169|8=FIX.4.4|9=58|35=0|34=177|49=T1Kauaiblk3|52=20201130-12:53:45.531|56=MA|10=167|8=FIX.4.4|9=58|35=0|34=178|49=T1Kauaiblk3|52=20201130-12:55:15.533|56=MA|10=169|8=FIX.4.4|9=58|35=0|34=179|49=T1Kauaiblk3|52=20201130-12:56:45.536|56=MA|10=177|8=FIX.4.4|9=58|35=0|34=180|49=T1Kauaiblk3|52=20201130-12:58:15.539|56=MA|10=171|8=FIX.4.4|9=58|35=0|34=181|49=T1Kauaiblk3|52=20201130-12:59:45.540|56=MA|10=168|8=FIX.4.4|9=58|35=0|34=182|49=T1Kauaiblk3|52=20201130-13:01:15.543|56=MA|10=157|8=FIX.4.4|9=58|35=0|34=183|49=T1Kauaiblk3|52=20201130-13:02:45.545|56=MA|10=164|8=FIX.4.4|9=58|35=0|34=184|49=T1Kauaiblk3|52=20201130-13:04:15.545|56=MA|10=164|8=FIX.4.4|9=58|35=0|34=185|49=T1Kauaiblk3|52=20201130-13:05:45.547|56=MA|10=171|8=FIX.4.4|9=58|35=0|34=186|49=T1Kauaiblk3|52=20201130-13:07:15.548|56=MA|10=172|8=FIX.4.4|9=58|35=0|34=187|49=T1Kauaiblk3|52=20201130-13:08:45.549|56=MA|10=178|8=FIX.4.4|9=58|35=0|34=188|49=T1Kauaiblk3|52=20201130-13:10:15.550|56=MA|10=161|8=FIX.4.4|9=58|35=0|34=189|49=T1Kauaiblk3|52=20201130-13:11:45.551|56=MA|10=167|8=FIX.4.4|9=58|35=0|34=190|49=T1Kauaiblk3|52=20201130-13:13:15.552|56=MA|10=159|8=FIX.4.4|9=58|35=0|34=191|49=T1Kauaiblk3|52=20201130-13:14:45.552|56=MA|10=164|8=FIX.4.4|9=58|35=0|34=192|49=T1Kauaiblk3|52=20201130-13:16:15.552|56=MA|10=164|8=FIX.4.4|9=58|35=0|34=193|49=T1Kauaiblk3|52=20201130-13:17:45.555|56=MA|10=172|8=FIX.4.4|9=58|35=0|34=194|49=T1Kauaiblk3|52=20201130-13:19:15.555|56=MA|10=172|8=FIX.4.4|9=58|35=0|34=195|49=T1Kauaiblk3|52=20201130-13:20:45.555|56=MA|10=168|8=FIX.4.4|9=58|35=0|34=196|49=T1Kauaiblk3|52=20201130-13:22:15.555|56=MA|10=168|8=FIX.4.4|9=58|35=0|34=197|49=T1Kauaiblk3|52=20201130-13:23:45.555|56=MA|10=173|8=FIX.4.4|9=58|35=0|34=198|49=T1Kauaiblk3|52=20201130-13:25:15.555|56=MA|10=173|8=FIX.4.4|9=58|35=0|34=199|49=T1Kauaiblk3|52=20201130-13:26:45.555|56=MA|10=178|8=FIX.4.4|9=58|35=0|34=200|49=T1Kauaiblk3|52=20201130-13:28:15.556|56=MA|10=161|8=FIX.4.4|9=58|35=0|34=201|49=T1Kauaiblk3|52=20201130-13:29:45.556|56=MA|10=166|8=FIX.4.4|9=58|35=0|34=202|49=T1Kauaiblk3|52=20201130-13:31:16.555|56=MA|10=157|8=FIX.4.4|9=58|35=0|34=203|49=T1Kauaiblk3|52=20201130-13:32:46.555|56=MA|10=162|8=FIX.4.4|9=58|35=0|34=204|49=T1Kauaiblk3|52=20201130-13:34:16.556|56=MA|10=163|8=FIX.4.4|9=58|35=0|34=205|49=T1Kauaiblk3|52=20201130-13:35:47.555|56=MA|10=168|8=FIX.4.4|9=58|35=0|34=206|49=T1Kauaiblk3|52=20201130-13:37:17.555|56=MA|10=168|8=FIX.4.4|9=58|35=0|34=207|49=T1Kauaiblk3|52=20201130-13:38:47.556|56=MA|10=174|8=FIX.4.4|9=58|35=0|34=208|49=T1Kauaiblk3|52=20201130-13:40:17.557|56=MA|10=166|8=FIX.4.4|9=58|35=0|34=209|49=T1Kauaiblk3|52=20201130-13:41:48.555|56=MA|10=170|8=FIX.4.4|9=58|35=0|34=210|49=T1Kauaiblk3|52=20201130-13:43:18.557|56=MA|10=163|8=FIX.4.4|9=58|35=0|34=211|49=T1Kauaiblk3|52=20201130-13:44:49.555|56=MA|10=167|8=FIX.4.4|9=58|35=0|34=212|49=T1Kauaiblk3|52=20201130-13:46:19.556|56=MA|10=168|8=FIX.4.4|9=58|35=0|34=213|49=T1Kauaiblk3|52=20201130-13:47:50.555|56=MA|10=164|8=FIX.4.4|9=58|35=0|34=214|49=T1Kauaiblk3|52=20201130-13:49:20.555|56=MA|10=164|8=FIX.4.4|9=58|35=0|34=215|49=T1Kauaiblk3|52=20201130-13:50:50.555|56=MA|10=160|8=FIX.4.4|9=58|35=0|34=216|49=T1Kauaiblk3|52=20201130-13:52:20.556|56=MA|10=161|8=FIX.4.4|9=58|35=0|34=217|49=T1Kauaiblk3|52=20201130-13:53:51.556|56=MA|10=167|8=FIX.4.4|9=58|35=0|34=218|49=T1Kauaiblk3|52=20201130-13:55:21.556|56=MA|10=167|8=FIX.4.4|9=58|35=0|34=219|49=T1Kauaiblk3|52=20201130-13:56:52.555|56=MA|10=172|8=FIX.4.4|9=58|35=0|34=220|49=T1Kauaiblk3|52=20201130-13:58:22.556|56=MA|10=164|8=FIX.4.4|9=58|35=0|34=221|49=T1Kauaiblk3|52=20201130-13:59:53.555|56=MA|10=169|8=FIX.4.4|9=58|35=0|34=222|49=T1Kauaiblk3|52=20201130-14:01:23.558|56=MA|10=158|8=FIX.4.4|9=58|35=0|34=223|49=T1Kauaiblk3|52=20201130-14:02:53.561|56=MA|10=157|8=FIX.4.4|9=58|35=0|34=224|49=T1Kauaiblk3|52=20201130-14:04:23.565|56=MA|10=161|8=FIX.4.4|9=58|35=0|34=225|49=T1Kauaiblk3|52=20201130-14:05:53.568|56=MA|10=169|8=FIX.4.4|9=58|35=0|34=226|49=T1Kauaiblk3|52=20201130-14:07:23.571|56=MA|10=163|8=FIX.4.4|9=58|35=0|34=227|49=T1Kauaiblk3|52=20201130-14:08:53.573|56=MA|10=170|8=FIX.4.4|9=58|35=0|34=228|49=T1Kauaiblk3|52=20201130-14:10:23.577|56=MA|10=165|8=FIX.4.4|9=58|35=0|34=229|49=T1Kauaiblk3|52=20201130-14:11:53.577|56=MA|10=170|8=FIX.4.4|9=58|35=0|34=230|49=T1Kauaiblk3|52=20201130-14:13:23.579|56=MA|10=163|8=FIX.4.4|9=58|35=0|34=231|49=T1Kauaiblk3|52=20201130-14:14:53.581|56=MA|10=161|8=FIX.4.4|9=58|35=0|34=232|49=T1Kauaiblk3|52=20201130-14:16:23.583|56=MA|10=163|8=FIX.4.4|9=58|35=0|34=233|49=T1Kauaiblk3|52=20201130-14:17:53.584|56=MA|10=169|8=FIX.4.4|9=58|35=0|34=234|49=T1Kauaiblk3|52=20201130-14:19:23.584|56=MA|10=169|8=FIX.4.4|9=58|35=0|34=235|49=T1Kauaiblk3|52=20201130-14:20:53.585|56=MA|10=166|8=FIX.4.4|9=58|35=0|34=236|49=T1Kauaiblk3|52=20201130-14:22:23.587|56=MA|10=168|8=FIX.4.4|9=58|35=0|34=237|49=T1Kauaiblk3|52=20201130-14:23:53.588|56=MA|10=174|8=FIX.4.4|9=58|35=0|34=238|49=T1Kauaiblk3|52=20201130-14:25:23.588|56=MA|10=174|8=FIX.4.4|9=58|35=0|34=239|49=T1Kauaiblk3|52=20201130-14:26:53.589|56=MA|10=180|8=FIX.4.4|9=58|35=0|34=240|49=T1Kauaiblk3|52=20201130-14:28:23.589|56=MA|10=171|8=FIX.4.4|9=58|35=0|34=241|49=T1Kauaiblk3|52=20201130-14:29:53.590|56=MA|10=168|8=FIX.4.4|9=58|35=0|34=242|49=T1Kauaiblk3|52=20201130-14:31:23.591|56=MA|10=160|8=FIX.4.4|9=58|35=0|34=243|49=T1Kauaiblk3|52=20201130-14:32:54.590|56=MA|10=165|8=FIX.4.4|9=58|35=0|34=244|49=T1Kauaiblk3|52=20201130-14:34:24.592|56=MA|10=167|8=FIX.4.4|9=58|35=0|34=245|49=T1Kauaiblk3|52=20201130-14:35:55.592|56=MA|10=173|8=FIX.4.4|9=58|35=0|34=246|49=T1Kauaiblk3|52=20201130-14:37:25.593|56=MA|10=174|8=FIX.4.4|9=58|35=0|34=247|49=T1Kauaiblk3|52=20201130-14:38:56.592|56=MA|10=179|8=FIX.4.4|9=58|35=0|34=248|49=T1Kauaiblk3|52=20201130-14:40:26.592|56=MA|10=170|8=FIX.4.4|9=58|35=0|34=249|49=T1Kauaiblk3|52=20201130-14:41:56.592|56=MA|10=175|8=FIX.4.4|9=58|35=0|34=250|49=T1Kauaiblk3|52=20201130-14:43:26.592|56=MA|10=166|8=FIX.4.4|9=58|35=0|34=251|49=T1Kauaiblk3|52=20201130-14:44:56.593|56=MA|10=172|8=FIX.4.4|9=58|35=0|34=252|49=T1Kauaiblk3|52=20201130-14:46:27.592|56=MA|10=172|8=FIX.4.4|9=58|35=0|34=253|49=T1Kauaiblk3|52=20201130-14:47:57.592|56=MA|10=177|8=FIX.4.4|9=58|35=0|34=254|49=T1Kauaiblk3|52=20201130-14:49:27.592|56=MA|10=177|8=FIX.4.4|9=58|35=0|34=255|49=T1Kauaiblk3|52=20201130-14:50:57.593|56=MA|10=174|8=FIX.4.4|9=58|35=0|34=256|49=T1Kauaiblk3|52=20201130-14:52:27.593|56=MA|10=174|8=FIX.4.4|9=58|35=0|34=257|49=T1Kauaiblk3|52=20201130-14:53:57.593|56=MA|10=179|8=FIX.4.4|9=58|35=0|34=258|49=T1Kauaiblk3|52=20201130-14:55:27.593|56=MA|10=179|8=FIX.4.4|9=58|35=0|34=259|49=T1Kauaiblk3|52=20201130-14:56:57.593|56=MA|10=184|8=FIX.4.4|9=58|35=0|34=260|49=T1Kauaiblk3|52=20201130-14:58:27.593|56=MA|10=175|8=FIX.4.4|9=58|35=0|34=261|49=T1Kauaiblk3|52=20201130-14:59:58.592|56=MA|10=180|8=FIX.4.4|9=58|35=0|34=262|49=T1Kauaiblk3|52=20201130-15:01:28.592|56=MA|10=166|8=FIX.4.4|9=58|35=0|34=263|49=T1Kauaiblk3|52=20201130-15:02:58.592|56=MA|10=171|8=FIX.4.4|9=58|35=0|34=264|49=T1Kauaiblk3|52=20201130-15:04:28.592|56=MA|10=171|8=FIX.4.4|9=58|35=0|34=265|49=T1Kauaiblk3|52=20201130-15:05:58.592|56=MA|10=176|8=FIX.4.4|9=58|35=0|34=266|49=T1Kauaiblk3|52=20201130-15:07:28.593|56=MA|10=177|8=FIX.4.4|9=58|35=0|34=267|49=T1Kauaiblk3|52=20201130-15:08:58.593|56=MA|10=182|8=FIX.4.4|9=58|35=0|34=268|49=T1Kauaiblk3|52=20201130-15:10:28.598|56=MA|10=178|8=FIX.4.4|9=58|35=0|34=269|49=T1Kauaiblk3|52=20201130-15:11:58.603|56=MA|10=170|8=FIX.4.4|9=58|35=0|34=270|49=T1Kauaiblk3|52=20201130-15:13:28.607|56=MA|10=165|8=FIX.4.4|9=58|35=0|34=271|49=T1Kauaiblk3|52=20201130-15:14:58.611|56=MA|10=165|8=FIX.4.4|9=58|35=0|34=272|49=T1Kauaiblk3|52=20201130-15:16:28.613|56=MA|10=167|8=FIX.4.4|9=58|35=0|34=273|49=T1Kauaiblk3|52=20201130-15:17:58.617|56=MA|10=176|8=FIX.4.4|9=58|35=0|34=274|49=T1Kauaiblk3|52=20201130-15:19:28.620|56=MA|10=170|8=FIX.4.4|9=58|35=0|34=275|49=T1Kauaiblk3|52=20201130-15:20:58.622|56=MA|10=168|8=FIX.4.4|9=58|35=0|34=276|49=T1Kauaiblk3|52=20201130-15:22:28.625|56=MA|10=171|8=FIX.4.4|9=58|35=0|34=277|49=T1Kauaiblk3|52=20201130-15:23:58.627|56=MA|10=178|8=FIX.4.4|9=58|35=0|34=278|49=T1Kauaiblk3|52=20201130-15:25:28.628|56=MA|10=179|8=FIX.4.4|9=58|35=0|34=279|49=T1Kauaiblk3|52=20201130-15:26:58.629|56=MA|10=185|8=FIX.4.4|9=58|35=0|34=280|49=T1Kauaiblk3|52=20201130-15:28:28.631|56=MA|10=169|8=FIX.4.4|9=58|35=0|34=281|49=T1Kauaiblk3|52=20201130-15:29:58.633|56=MA|10=176|8=FIX.4.4|9=58|35=0|34=282|49=T1Kauaiblk3|52=20201130-15:31:28.634|56=MA|10=168|8=FIX.4.4|9=58|35=0|34=283|49=T1Kauaiblk3|52=20201130-15:32:58.634|56=MA|10=173|8=FIX.4.4|9=58|35=0|34=284|49=T1Kauaiblk3|52=20201130-15:34:28.635|56=MA|10=174|8=FIX.4.4|9=58|35=0|34=285|49=T1Kauaiblk3|52=20201130-15:35:58.637|56=MA|10=181|8=FIX.4.4|9=58|35=0|34=286|49=T1Kauaiblk3|52=20201130-15:37:28.638|56=MA|10=182|8=FIX.4.4|9=58|35=0|34=287|49=T1Kauaiblk3|52=20201130-15:38:58.638|56=MA|10=187|8=FIX.4.4|9=58|35=0|34=288|49=T1Kauaiblk3|52=20201130-15:40:28.638|56=MA|10=178|8=FIX.4.4|9=58|35=0|34=289|49=T1Kauaiblk3|52=20201130-15:41:58.639|56=MA|10=184|8=FIX.4.4|9=58|35=0|34=290|49=T1Kauaiblk3|52=20201130-15:43:28.639|56=MA|10=175|8=FIX.4.4|9=58|35=0|34=291|49=T1Kauaiblk3|52=20201130-15:44:58.640|56=MA|10=172|8=FIX.4.4|9=58|35=0|34=292|49=T1Kauaiblk3|52=20201130-15:46:28.641|56=MA|10=173|8=FIX.4.4|9=58|35=0|34=293|49=T1Kauaiblk3|52=20201130-15:47:59.641|56=MA|10=179|8=FIX.4.4|9=58|35=0|34=294|49=T1Kauaiblk3|52=20201130-15:49:30.640|56=MA|10=170|8=FIX.4.4|9=58|35=0|34=295|49=T1Kauaiblk3|52=20201130-15:51:00.642|56=MA|10=163|8=FIX.4.4|9=58|35=0|34=296|49=T1Kauaiblk3|52=20201130-15:52:31.641|56=MA|10=168|8=FIX.4.4|9=58|35=0|34=297|49=T1Kauaiblk3|52=20201130-15:54:01.641|56=MA|10=168|8=FIX.4.4|9=58|35=0|34=298|49=T1Kauaiblk3|52=20201130-15:55:32.641|56=MA|10=174|8=FIX.4.4|9=58|35=0|34=299|49=T1Kauaiblk3|52=20201130-15:57:02.641|56=MA|10=174|8=FIX.4.4|9=58|35=0|34=300|49=T1Kauaiblk3|52=20201130-15:58:32.641|56=MA|10=161|8=FIX.4.4|9=58|35=0|34=301|49=T1Kauaiblk3|52=20201130-16:00:02.642|56=MA|10=148|8=FIX.4.4|9=58|35=0|34=302|49=T1Kauaiblk3|52=20201130-16:01:32.642|56=MA|10=153|8=FIX.4.4|9=58|35=0|34=303|49=T1Kauaiblk3|52=20201130-16:03:02.642|56=MA|10=153|8=FIX.4.4|9=58|35=0|34=304|49=T1Kauaiblk3|52=20201130-16:04:33.641|56=MA|10=158|8=FIX.4.4|9=58|35=0|34=305|49=T1Kauaiblk3|52=20201130-16:06:03.642|56=MA|10=159|8=FIX.4.4|9=58|35=0|34=306|49=T1Kauaiblk3|52=20201130-16:07:34.641|56=MA|10=164|8=FIX.4.4|9=58|35=0|34=307|49=T1Kauaiblk3|52=20201130-16:09:04.641|56=MA|10=164|8=FIX.4.4|9=58|35=0|34=308|49=T1Kauaiblk3|52=20201130-16:10:34.641|56=MA|10=160|8=FIX.4.4|9=58|35=0|34=309|49=T1Kauaiblk3|52=20201130-16:12:04.641|56=MA|10=160|8=FIX.4.4|9=58|35=0|34=310|49=T1Kauaiblk3|52=20201130-16:13:34.641|56=MA|10=156|8=FIX.4.4|9=58|35=0|34=311|49=T1Kauaiblk3|52=20201130-16:15:04.641|56=MA|10=156|8=FIX.4.4|9=58|35=0|34=312|49=T1Kauaiblk3|52=20201130-16:16:34.641|56=MA|10=161|8=FIX.4.4|9=58|35=0|34=313|49=T1Kauaiblk3|52=20201130-16:18:04.642|56=MA|10=162|8=FIX.4.4|9=58|35=0|34=314|49=T1Kauaiblk3|52=20201130-16:19:34.645|56=MA|10=170|8=FIX.4.4|9=58|35=0|34=315|49=T1Kauaiblk3|52=20201130-16:21:05.646|56=MA|10=163|8=FIX.4.4|9=58|35=0|34=316|49=T1Kauaiblk3|52=20201130-16:22:35.647|56=MA|10=169|8=FIX.4.4|9=58|35=0|34=317|49=T1Kauaiblk3|52=20201130-16:24:05.648|56=MA|10=170|8=FIX.4.4|9=58|35=0|34=318|49=T1Kauaiblk3|52=20201130-16:25:36.648|56=MA|10=176|8=FIX.4.4|9=58|35=0|34=319|49=T1Kauaiblk3|52=20201130-16:27:06.649|56=MA|10=177|8=FIX.4.4|9=58|35=0|34=320|49=T1Kauaiblk3|52=20201130-16:28:36.650|56=MA|10=165|8=FIX.4.4|9=58|35=0|34=321|49=T1Kauaiblk3|52=20201130-16:30:06.651|56=MA|10=157|8=FIX.4.4|9=58|35=0|34=322|49=T1Kauaiblk3|52=20201130-16:31:36.652|56=MA|10=163|8=FIX.4.4|9=58|35=0|34=323|49=T1Kauaiblk3|52=20201130-16:33:06.654|56=MA|10=165|8=FIX.4.4|9=58|35=0|34=324|49=T1Kauaiblk3|52=20201130-16:34:36.654|56=MA|10=170|8=FIX.4.4|9=58|35=0|34=325|49=T1Kauaiblk3|52=20201130-16:36:06.655|56=MA|10=171|8=FIX.4.4|9=58|35=0|34=326|49=T1Kauaiblk3|52=20201130-16:37:36.655|56=MA|10=176|8=FIX.4.4|9=58|35=0|34=327|49=T1Kauaiblk3|52=20201130-16:39:06.656|56=MA|10=177|8=FIX.4.4|9=58|35=0|34=328|49=T1Kauaiblk3|52=20201130-16:40:36.656|56=MA|10=173|8=FIX.4.4|9=58|35=0|34=329|49=T1Kauaiblk3|52=20201130-16:42:06.658|56=MA|10=175|8=FIX.4.4|9=58|35=0|34=330|49=T1Kauaiblk3|52=20201130-16:43:36.658|56=MA|10=171|8=FIX.4.4|9=58|35=0|34=331|49=T1Kauaiblk3|52=20201130-16:45:07.659|56=MA|10=173|8=FIX.4.4|9=58|35=0|34=332|49=T1Kauaiblk3|52=20201130-16:46:37.659|56=MA|10=178|8=FIX.4.4|9=58|35=0|34=333|49=T1Kauaiblk3|52=20201130-16:48:07.659|56=MA|10=178|8=FIX.4.4|9=58|35=0|34=334|49=T1Kauaiblk3|52=20201130-16:49:37.659|56=MA|10=183|8=FIX.4.4|9=58|35=0|34=335|49=T1Kauaiblk3|52=20201130-16:51:07.661|56=MA|10=167|8=FIX.4.4|9=58|35=0|34=336|49=T1Kauaiblk3|52=20201130-16:52:37.661|56=MA|10=172|8=FIX.4.4|9=58|35=0|34=337|49=T1Kauaiblk3|52=20201130-16:54:08.661|56=MA|10=173|8=FIX.4.4|9=58|35=0|34=338|49=T1Kauaiblk3|52=20201130-16:55:38.661|56=MA|10=178|8=FIX.4.4|9=58|35=0|34=339|49=T1Kauaiblk3|52=20201130-16:57:08.662|56=MA|10=179|8=FIX.4.4|9=58|35=0|34=340|49=T1Kauaiblk3|52=20201130-16:58:38.662|56=MA|10=175|8=FIX.4.4|9=58|35=0|34=341|49=T1Kauaiblk3|52=20201130-17:00:08.662|56=MA|10=161|8=FIX.4.4|9=58|35=0|34=342|49=T1Kauaiblk3|52=20201130-17:01:38.662|56=MA|10=166|8=FIX.4.4|9=58|35=0|34=343|49=T1Kauaiblk3|52=20201130-17:03:08.662|56=MA|10=166|8=FIX.4.4|9=58|35=0|34=344|49=T1Kauaiblk3|52=20201130-17:04:38.663|56=MA|10=172|8=FIX.4.4|9=58|35=0|34=345|49=T1Kauaiblk3|52=20201130-17:06:08.663|56=MA|10=172|8=FIX.4.4|9=58|35=0|34=346|49=T1Kauaiblk3|52=20201130-17:07:38.664|56=MA|10=178|8=FIX.4.4|9=58|35=0|34=347|49=T1Kauaiblk3|52=20201130-17:09:08.665|56=MA|10=179|8=FIX.4.4|9=58|35=0|34=348|49=T1Kauaiblk3|52=20201130-17:10:38.665|56=MA|10=175|8=FIX.4.4|9=58|35=0|34=349|49=T1Kauaiblk3|52=20201130-17:12:08.665|56=MA|10=175|8=FIX.4.4|9=58|35=0|34=350|49=T1Kauaiblk3|52=20201130-17:13:39.664|56=MA|10=171|8=FIX.4.4|9=58|35=0|34=351|49=T1Kauaiblk3|52=20201130-17:15:09.665|56=MA|10=172|8=FIX.4.4|9=58|35=0|34=352|49=T1Kauaiblk3|52=20201130-17:16:40.665|56=MA|10=169|8=FIX.4.4|9=58|35=0|34=353|49=T1Kauaiblk3|52=20201130-17:18:10.666|56=MA|10=170|8=FIX.4.4|9=58|35=0|34=354|49=T1Kauaiblk3|52=20201130-17:19:41.665|56=MA|10=175|8=FIX.4.4|9=58|35=0|34=355|49=T1Kauaiblk3|52=20201130-17:21:11.665|56=MA|10=166|8=FIX.4.4|9=58|35=0|34=356|49=T1Kauaiblk3|52=20201130-17:22:41.665|56=MA|10=171|8=FIX.4.4|9=58|35=0|34=357|49=T1Kauaiblk3|52=20201130-17:24:11.665|56=MA|10=171|8=FIX.4.4|9=58|35=0|34=358|49=T1Kauaiblk3|52=20201130-17:25:41.666|56=MA|10=177|8=FIX.4.4|9=58|35=0|34=359|49=T1Kauaiblk3|52=20201130-17:27:11.669|56=MA|10=180|8=FIX.4.4|9=58|35=0|34=360|49=T1Kauaiblk3|52=20201130-17:28:41.669|56=MA|10=176|8=FIX.4.4|9=58|35=0|34=361|49=T1Kauaiblk3|52=20201130-17:30:11.671|56=MA|10=160|8=FIX.4.4|9=58|35=0|34=362|49=T1Kauaiblk3|52=20201130-17:31:41.673|56=MA|10=167|8=FIX.4.4|9=58|35=0|34=363|49=T1Kauaiblk3|52=20201130-17:33:11.676|56=MA|10=170|8=FIX.4.4|9=58|35=0|34=364|49=T1Kauaiblk3|52=20201130-17:34:41.677|56=MA|10=176|8=FIX.4.4|9=58|35=0|34=365|49=T1Kauaiblk3|52=20201130-17:36:11.678|56=MA|10=177|8=FIX.4.4|9=58|35=0|34=366|49=T1Kauaiblk3|52=20201130-17:37:41.680|56=MA|10=175|8=FIX.4.4|9=58|35=0|34=367|49=T1Kauaiblk3|52=20201130-17:39:11.681|56=MA|10=176|8=FIX.4.4|9=58|35=0|34=368|49=T1Kauaiblk3|52=20201130-17:40:41.682|56=MA|10=173|8=FIX.4.4|9=58|35=0|34=369|49=T1Kauaiblk3|52=20201130-17:42:11.683|56=MA|10=174|8=FIX.4.4|9=58|35=0|34=370|49=T1Kauaiblk3|52=20201130-17:43:41.685|56=MA|10=172|8=FIX.4.4|9=58|35=0|34=371|49=T1Kauaiblk3|52=20201130-17:45:11.686|56=MA|10=173|8=FIX.4.4|9=58|35=0|34=372|49=T1Kauaiblk3|52=20201130-17:46:41.686|56=MA|10=178|8=FIX.4.4|9=58|35=0|34=373|49=T1Kauaiblk3|52=20201130-17:48:11.689|56=MA|10=181|8=FIX.4.4|9=58|35=0|34=374|49=T1Kauaiblk3|52=20201130-17:49:41.689|56=MA|10=186|8=FIX.4.4|9=58|35=0|34=375|49=T1Kauaiblk3|52=20201130-17:51:11.690|56=MA|10=169|8=FIX.4.4|9=58|35=0|34=376|49=T1Kauaiblk3|52=20201130-17:52:41.691|56=MA|10=175|8=FIX.4.4|9=58|35=0|34=377|49=T1Kauaiblk3|52=20201130-17:54:11.691|56=MA|10=175|8=FIX.4.4|9=58|35=0|34=378|49=T1Kauaiblk3|52=20201130-17:55:41.693|56=MA|10=182|8=FIX.4.4|9=58|35=0|34=379|49=T1Kauaiblk3|52=20201130-17:57:11.693|56=MA|10=182|8=FIX.4.4|9=58|35=0|34=380|49=T1Kauaiblk3|52=20201130-17:58:41.694|56=MA|10=179|8=FIX.4.4|9=58|35=0|34=381|49=T1Kauaiblk3|52=20201130-18:00:11.695|56=MA|10=166|8=FIX.4.4|9=58|35=0|34=382|49=T1Kauaiblk3|52=20201130-18:01:41.696|56=MA|10=172|8=FIX.4.4|9=58|35=0|34=383|49=T1Kauaiblk3|52=20201130-18:03:12.696|56=MA|10=173|8=FIX.4.4|9=58|35=0|34=384|49=T1Kauaiblk3|52=20201130-18:04:42.696|56=MA|10=178|8=FIX.4.4|9=58|35=0|34=385|49=T1Kauaiblk3|52=20201130-18:06:12.698|56=MA|10=180|8=FIX.4.4|9=58|35=0|34=386|49=T1Kauaiblk3|52=20201130-18:07:43.697|56=MA|10=185|8=FIX.4.4|9=58|35=0|34=387|49=T1Kauaiblk3|52=20201130-18:09:13.698|56=MA|10=186|8=FIX.4.4|9=58|35=0|34=388|49=T1Kauaiblk3|52=20201130-18:10:43.698|56=MA|10=182|8=FIX.4.4|9=58|35=0|34=389|49=T1Kauaiblk3|52=20201130-18:12:13.699|56=MA|10=183|8=FIX.4.4|9=58|35=0|34=390|49=T1Kauaiblk3|52=20201130-18:13:43.699|56=MA|10=179|8=FIX.4.4|9=58|35=0|34=391|49=T1Kauaiblk3|52=20201130-18:15:13.700|56=MA|10=162|8=FIX.4.4|9=58|35=0|34=392|49=T1Kauaiblk3|52=20201130-18:16:43.701|56=MA|10=168|8=FIX.4.4|9=58|35=0|34=393|49=T1Kauaiblk3|52=20201130-18:18:14.701|56=MA|10=169|8=FIX.4.4|9=58|35=0|34=394|49=T1Kauaiblk3|52=20201130-18:19:44.701|56=MA|10=174|8=FIX.4.4|9=58|35=0|34=395|49=T1Kauaiblk3|52=20201130-18:21:15.700|56=MA|10=165|8=FIX.4.4|9=58|35=0|34=396|49=T1Kauaiblk3|52=20201130-18:22:45.701|56=MA|10=171|8=FIX.4.4|9=58|35=0|34=397|49=T1Kauaiblk3|52=20201130-18:24:15.701|56=MA|10=171|8=FIX.4.4|9=58|35=0|34=398|49=T1Kauaiblk3|52=20201130-18:25:45.702|56=MA|10=177|8=FIX.4.4|9=58|35=0|34=399|49=T1Kauaiblk3|52=20201130-18:27:15.702|56=MA|10=177|8=FIX.4.4|9=58|35=0|34=400|49=T1Kauaiblk3|52=20201130-18:28:45.702|56=MA|10=164|8=FIX.4.4|9=58|35=0|34=401|49=T1Kauaiblk3|52=20201130-18:30:15.702|56=MA|10=155|8=FIX.4.4|9=58|35=0|34=402|49=T1Kauaiblk3|52=20201130-18:31:45.703|56=MA|10=161|8=FIX.4.4|9=58|35=0|34=403|49=T1Kauaiblk3|52=20201130-18:33:15.703|56=MA|10=161|8=FIX.4.4|9=58|35=0|34=404|49=T1Kauaiblk3|52=20201130-18:34:45.704|56=MA|10=167|8=FIX.4.4|9=58|35=0|34=405|49=T1Kauaiblk3|52=20201130-18:36:15.707|56=MA|10=170|8=FIX.4.4|9=58|35=0|34=406|49=T1Kauaiblk3|52=20201130-18:37:45.709|56=MA|10=177|8=FIX.4.4|9=58|35=0|34=407|49=T1Kauaiblk3|52=20201130-18:39:15.711|56=MA|10=170|8=FIX.4.4|9=58|35=0|34=408|49=T1Kauaiblk3|52=20201130-18:40:45.712|56=MA|10=167|8=FIX.4.4|9=58|35=0|34=409|49=T1Kauaiblk3|52=20201130-18:42:15.713|56=MA|10=168|8=FIX.4.4|9=58|35=0|34=410|49=T1Kauaiblk3|52=20201130-18:43:45.714|56=MA|10=165|8=FIX.4.4|9=58|35=0|34=411|49=T1Kauaiblk3|52=20201130-18:45:15.716|56=MA|10=167|8=FIX.4.4|9=58|35=0|34=412|49=T1Kauaiblk3|52=20201130-18:46:45.717|56=MA|10=173|8=FIX.4.4|9=58|35=0|34=413|49=T1Kauaiblk3|52=20201130-18:48:15.718|56=MA|10=174|8=FIX.4.4|9=58|35=0|34=414|49=T1Kauaiblk3|52=20201130-18:49:45.720|56=MA|10=172|8=FIX.4.4|9=58|35=0|34=415|49=T1Kauaiblk3|52=20201130-18:51:15.722|56=MA|10=165|8=FIX.4.4|9=58|35=0|34=416|49=T1Kauaiblk3|52=20201130-18:52:45.723|56=MA|10=171|8=FIX.4.4|9=58|35=0|34=417|49=T1Kauaiblk3|52=20201130-18:54:15.723|56=MA|10=171|8=FIX.4.4|9=58|35=0|34=418|49=T1Kauaiblk3|52=20201130-18:55:45.724|56=MA|10=177|8=FIX.4.4|9=58|35=0|34=419|49=T1Kauaiblk3|52=20201130-18:57:15.725|56=MA|10=178|8=FIX.4.4|9=58|35=0|34=420|49=T1Kauaiblk3|52=20201130-18:58:45.727|56=MA|10=176|8=FIX.4.4|9=58|35=0|34=421|49=T1Kauaiblk3|52=20201130-19:00:15.728|56=MA|10=163|8=FIX.4.4|9=58|35=0|34=422|49=T1Kauaiblk3|52=20201130-19:01:45.729|56=MA|10=169|8=FIX.4.4|9=58|35=0|34=423|49=T1Kauaiblk3|52=20201130-19:03:15.729|56=MA|10=169|8=FIX.4.4|9=58|35=0|34=424|49=T1Kauaiblk3|52=20201130-19:04:45.730|56=MA|10=166|8=FIX.4.4|9=58|35=0|34=425|49=T1Kauaiblk3|52=20201130-19:06:15.730|56=MA|10=166|8=FIX.4.4|9=58|35=0|34=426|49=T1Kauaiblk3|52=20201130-19:07:45.730|56=MA|10=171|8=FIX.4.4|9=58|35=0|34=427|49=T1Kauaiblk3|52=20201130-19:09:15.731|56=MA|10=172|8=FIX.4.4|9=58|35=0|34=428|49=T1Kauaiblk3|52=20201130-19:10:45.732|56=MA|10=169|8=FIX.4.4|9=58|35=0|34=429|49=T1Kauaiblk3|52=20201130-19:12:15.732|56=MA|10=169|8=FIX.4.4|9=58|35=0|34=430|49=T1Kauaiblk3|52=20201130-19:13:45.733|56=MA|10=166|8=FIX.4.4|9=58|35=0|34=431|49=T1Kauaiblk3|52=20201130-19:15:15.733|56=MA|10=166|8=FIX.4.4|9=58|35=0|34=432|49=T1Kauaiblk3|52=20201130-19:16:45.734|56=MA|10=172|8=FIX.4.4|9=58|35=0|34=433|49=T1Kauaiblk3|52=20201130-19:18:16.734|56=MA|10=173|8=FIX.4.4|9=58|35=0|34=434|49=T1Kauaiblk3|52=20201130-19:19:46.734|56=MA|10=178|8=FIX.4.4|9=58|35=0|34=435|49=T1Kauaiblk3|52=20201130-19:21:16.735|56=MA|10=170|8=FIX.4.4|9=58|35=0|34=436|49=T1Kauaiblk3|52=20201130-19:22:47.736|56=MA|10=177|8=FIX.4.4|9=58|35=0|34=437|49=T1Kauaiblk3|52=20201130-19:24:18.735|56=MA|10=177|8=FIX.4.4|9=58|35=0|34=438|49=T1Kauaiblk3|52=20201130-19:25:49.734|56=MA|10=182|8=FIX.4.4|9=58|35=0|34=439|49=T1Kauaiblk3|52=20201130-19:27:19.743|56=MA|10=182|8=FIX.4.4|9=58|35=0|34=440|49=T1Kauaiblk3|52=20201130-19:28:49.753|56=MA|10=179|8=FIX.4.4|9=58|35=0|34=441|49=T1Kauaiblk3|52=20201130-19:30:19.763|56=MA|10=171|8=FIX.4.4|9=58|35=0|34=442|49=T1Kauaiblk3|52=20201130-19:31:49.767|56=MA|10=180|8=FIX.4.4|9=58|35=0|34=443|49=T1Kauaiblk3|52=20201130-19:33:19.768|56=MA|10=181|8=FIX.4.4|9=58|35=0|34=444|49=T1Kauaiblk3|52=20201130-19:34:49.768|56=MA|10=186|8=FIX.4.4|9=58|35=0|34=445|49=T1Kauaiblk3|52=20201130-19:36:20.767|56=MA|10=177|8=FIX.4.4|9=58|35=0|34=446|49=T1Kauaiblk3|52=20201130-19:37:50.767|56=MA|10=182|8=FIX.4.4|9=58|35=0|34=447|49=T1Kauaiblk3|52=20201130-19:39:20.773|56=MA|10=179|8=FIX.4.4|9=58|35=0|34=448|49=T1Kauaiblk3|52=20201130-19:40:50.776|56=MA|10=178|8=FIX.4.4|9=58|35=0|34=449|49=T1Kauaiblk3|52=20201130-19:42:20.780|56=MA|10=173|8=FIX.4.4|9=58|35=0|34=450|49=T1Kauaiblk3|52=20201130-19:43:50.783|56=MA|10=172|8=FIX.4.4|9=58|35=0|34=451|49=T1Kauaiblk3|52=20201130-19:45:21.782|56=MA|10=172|8=FIX.4.4|9=58|35=0|34=452|49=T1Kauaiblk3|52=20201130-19:46:51.783|56=MA|10=178|8=FIX.4.4|9=58|35=0|34=453|49=T1Kauaiblk3|52=20201130-19:48:21.783|56=MA|10=178|8=FIX.4.4|9=58|35=0|34=454|49=T1Kauaiblk3|52=20201130-19:49:51.783|56=MA|10=183|8=FIX.4.4|9=58|35=0|34=455|49=T1Kauaiblk3|52=20201130-19:51:21.783|56=MA|10=174|8=FIX.4.4|9=58|35=0|34=456|49=T1Kauaiblk3|52=20201130-19:52:51.784|56=MA|10=180|8=FIX.4.4|9=58|35=0|34=457|49=T1Kauaiblk3|52=20201130-19:54:21.784|56=MA|10=180|8=FIX.4.4|9=58|35=0|34=458|49=T1Kauaiblk3|52=20201130-19:55:51.784|56=MA|10=185|8=FIX.4.4|9=58|35=0|34=459|49=T1Kauaiblk3|52=20201130-19:57:21.789|56=MA|10=190|8=FIX.4.4|9=58|35=0|34=460|49=T1Kauaiblk3|52=20201130-19:58:51.794|56=MA|10=182|8=FIX.4.4|9=58|35=0|34=461|49=T1Kauaiblk3|52=20201130-20:00:21.798|56=MA|10=163|8=FIX.4.4|9=58|35=0|34=462|49=T1Kauaiblk3|52=20201130-20:01:52.797|56=MA|10=168|8=FIX.4.4|9=58|35=0|34=463|49=T1Kauaiblk3|52=20201130-20:03:23.797|56=MA|10=169|8=FIX.4.4|9=58|35=0|34=464|49=T1Kauaiblk3|52=20201130-20:04:54.798|56=MA|10=176|8=FIX.4.4|9=58|35=0|34=465|49=T1Kauaiblk3|52=20201130-20:06:25.796|56=MA|10=175|8=FIX.4.4|9=58|35=0|34=466|49=T1Kauaiblk3|52=20201130-20:07:55.796|56=MA|10=180|8=FIX.4.4|9=58|35=0|34=467|49=T1Kauaiblk3|52=20201130-20:09:25.796|56=MA|10=180|8=FIX.4.4|9=58|35=0|34=468|49=T1Kauaiblk3|52=20201130-20:10:55.797|56=MA|10=177|8=FIX.4.4|9=58|35=0|34=469|49=T1Kauaiblk3|52=20201130-20:12:25.798|56=MA|10=178|8=FIX.4.4|9=58|35=0|34=470|49=T1Kauaiblk3|52=20201130-20:13:56.796|56=MA|10=173|8=FIX.4.4|9=58|35=0|34=471|49=T1Kauaiblk3|52=20201130-20:15:26.797|56=MA|10=174|8=FIX.4.4|9=58|35=0|34=472|49=T1Kauaiblk3|52=20201130-20:16:56.797|56=MA|10=179|8=FIX.4.4|9=58|35=0|34=473|49=T1Kauaiblk3|52=20201130-20:18:26.797|56=MA|10=179|8=FIX.4.4|9=58|35=0|34=474|49=T1Kauaiblk3|52=20201130-20:19:56.797|56=MA|10=184|8=FIX.4.4|9=58|35=0|34=475|49=T1Kauaiblk3|52=20201130-20:21:27.796|56=MA|10=175|8=FIX.4.4|9=58|35=0|34=476|49=T1Kauaiblk3|52=20201130-20:22:57.796|56=MA|10=180|8=FIX.4.4|9=58|35=0|34=477|49=T1Kauaiblk3|52=20201130-20:24:27.796|56=MA|10=180|8=FIX.4.4|9=58|35=0|34=478|49=T1Kauaiblk3|52=20201130-20:25:57.796|56=MA|10=185|8=FIX.4.4|9=58|35=0|34=479|49=T1Kauaiblk3|52=20201130-20:27:27.796|56=MA|10=185|8=FIX.4.4|9=58|35=0|34=480|49=T1Kauaiblk3|52=20201130-20:28:57.798|56=MA|10=183|8=FIX.4.4|9=58|35=0|34=481|49=T1Kauaiblk3|52=20201130-20:30:27.798|56=MA|10=174|8=FIX.4.4|9=58|35=0|34=482|49=T1Kauaiblk3|52=20201130-20:31:57.801|56=MA|10=164|8=FIX.4.4|9=58|35=0|34=483|49=T1Kauaiblk3|52=20201130-20:33:27.804|56=MA|10=167|8=FIX.4.4|9=58|35=0|34=484|49=T1Kauaiblk3|52=20201130-20:34:57.804|56=MA|10=172|8=FIX.4.4|9=58|35=0|34=485|49=T1Kauaiblk3|52=20201130-20:36:27.805|56=MA|10=173|8=FIX.4.4|9=58|35=0|34=486|49=T1Kauaiblk3|52=20201130-20:37:57.806|56=MA|10=179|8=FIX.4.4|9=58|35=0|34=487|49=T1Kauaiblk3|52=20201130-20:39:27.807|56=MA|10=180|8=FIX.4.4|9=58|35=0|34=488|49=T1Kauaiblk3|52=20201130-20:40:58.806|56=MA|10=176|8=FIX.4.4|9=58|35=0|34=489|49=T1Kauaiblk3|52=20201130-20:42:28.807|56=MA|10=177|8=FIX.4.4|9=58|35=0|34=490|49=T1Kauaiblk3|52=20201130-20:43:58.807|56=MA|10=173|8=FIX.4.4|9=58|35=0|34=491|49=T1Kauaiblk3|52=20201130-20:45:28.807|56=MA|10=173|8=FIX.4.4|9=58|35=0|34=492|49=T1Kauaiblk3|52=20201130-20:46:58.808|56=MA|10=179|8=FIX.4.4|9=58|35=0|34=493|49=T1Kauaiblk3|52=20201130-20:48:28.811|56=MA|10=173|8=FIX.4.4|9=58|35=0|34=494|49=T1Kauaiblk3|52=20201130-20:49:58.813|56=MA|10=180|8=FIX.4.4|9=58|35=0|34=495|49=T1Kauaiblk3|52=20201130-20:51:28.815|56=MA|10=173|8=FIX.4.4|9=58|35=0|34=496|49=T1Kauaiblk3|52=20201130-20:52:58.817|56=MA|10=180|8=FIX.4.4|9=58|35=0|34=497|49=T1Kauaiblk3|52=20201130-20:54:28.817|56=MA|10=180|8=FIX.4.4|9=58|35=0|34=498|49=T1Kauaiblk3|52=20201130-20:55:58.819|56=MA|10=187|8=FIX.4.4|9=58|35=0|34=499|49=T1Kauaiblk3|52=20201130-20:57:29.820|56=MA|10=180|8=FIX.4.4|9=58|35=0|34=500|49=T1Kauaiblk3|52=20201130-20:59:00.819|56=MA|10=162|8=FIX.4.4|9=58|35=0|34=501|49=T1Kauaiblk3|52=20201130-21:00:30.820|56=MA|10=145|8=FIX.4.4|9=58|35=0|34=502|49=T1Kauaiblk3|52=20201130-21:02:00.821|56=MA|10=146|8=FIX.4.4|9=58|35=0|34=503|49=T1Kauaiblk3|52=20201130-21:03:30.821|56=MA|10=151|8=FIX.4.4|9=58|35=0|34=504|49=T1Kauaiblk3|52=20201130-21:05:00.821|56=MA|10=151|8=FIX.4.4|9=58|35=0|34=505|49=T1Kauaiblk3|52=20201130-21:06:30.822|56=MA|10=157|8=FIX.4.4|9=58|35=0|34=506|49=T1Kauaiblk3|52=20201130-21:08:00.824|56=MA|10=159|8=FIX.4.4|9=58|35=0|34=507|49=T1Kauaiblk3|52=20201130-21:09:30.826|56=MA|10=166|8=FIX.4.4|9=58|35=0|34=508|49=T1Kauaiblk3|52=20201130-21:11:01.825|56=MA|10=157|8=FIX.4.4|9=58|35=0|34=509|49=T1Kauaiblk3|52=20201130-21:12:31.825|56=MA|10=162|8=FIX.4.4|9=58|35=0|34=510|49=T1Kauaiblk3|52=20201130-21:14:01.826|56=MA|10=154|8=FIX.4.4|9=58|35=0|34=511|49=T1Kauaiblk3|52=20201130-21:15:31.826|56=MA|10=159|8=FIX.4.4|9=58|35=0|34=512|49=T1Kauaiblk3|52=20201130-21:17:01.826|56=MA|10=159|8=FIX.4.4|9=58|35=0|34=513|49=T1Kauaiblk3|52=20201130-21:18:31.827|56=MA|10=165|8=FIX.4.4|9=58|35=0|34=514|49=T1Kauaiblk3|52=20201130-21:20:01.828|56=MA|10=157|8=FIX.4.4|9=58|35=0|34=515|49=T1Kauaiblk3|52=20201130-21:21:31.828|56=MA|10=162|8=FIX.4.4|9=58|35=0|34=516|49=T1Kauaiblk3|52=20201130-21:23:02.826|56=MA|10=161|8=FIX.4.4|9=58|35=0|34=517|49=T1Kauaiblk3|52=20201130-21:24:32.827|56=MA|10=167|8=FIX.4.4|9=58|35=0|34=518|49=T1Kauaiblk3|52=20201130-21:26:03.827|56=MA|10=168|8=FIX.4.4|9=58|35=0|34=519|49=T1Kauaiblk3|52=20201130-21:27:34.825|56=MA|10=172|8=FIX.4.4|9=58|35=0|34=520|49=T1Kauaiblk3|52=20201130-21:29:04.826|56=MA|10=164|8=FIX.4.4|9=58|35=0|34=521|49=T1Kauaiblk3|52=20201130-21:30:34.826|56=MA|10=160|8=FIX.4.4|9=58|35=0|34=522|49=T1Kauaiblk3|52=20201130-21:32:05.825|56=MA|10=160|8=FIX.4.4|9=58|35=0|34=523|49=T1Kauaiblk3|52=20201130-21:33:35.825|56=MA|10=165|8=FIX.4.4|9=58|35=0|34=524|49=T1Kauaiblk3|52=20201130-21:35:05.825|56=MA|10=165|8=FIX.4.4|9=58|35=0|34=525|49=T1Kauaiblk3|52=20201130-21:36:35.827|56=MA|10=172|8=FIX.4.4|9=58|35=0|34=526|49=T1Kauaiblk3|52=20201130-21:38:05.827|56=MA|10=172|8=FIX.4.4|9=58|35=0|34=527|49=T1Kauaiblk3|52=20201130-21:39:35.829|56=MA|10=179|8=FIX.4.4|9=58|35=0|34=528|49=T1Kauaiblk3|52=20201130-21:41:05.831|56=MA|10=163|8=FIX.4.4|9=58|35=0|34=529|49=T1Kauaiblk3|52=20201130-21:42:35.833|56=MA|10=170|8=FIX.4.4|9=58|35=0|34=530|49=T1Kauaiblk3|52=20201130-21:44:05.834|56=MA|10=162|8=FIX.4.4|9=58|35=0|34=531|49=T1Kauaiblk3|52=20201130-21:45:35.835|56=MA|10=168|8=FIX.4.4|9=58|35=0|34=532|49=T1Kauaiblk3|52=20201130-21:47:05.836|56=MA|10=169|8=FIX.4.4|9=58|35=0|34=533|49=T1Kauaiblk3|52=20201130-21:48:35.836|56=MA|10=174|8=FIX.4.4|9=58|35=0|34=534|49=T1Kauaiblk3|52=20201130-21:50:05.837|56=MA|10=166|8=FIX.4.4|9=58|35=0|34=535|49=T1Kauaiblk3|52=20201130-21:51:35.838|56=MA|10=172|8=FIX.4.4|9=58|35=0|34=536|49=T1Kauaiblk3|52=20201130-21:53:05.838|56=MA|10=172|8=FIX.4.4|9=58|35=0|34=537|49=T1Kauaiblk3|52=20201130-21:54:35.838|56=MA|10=177|8=FIX.4.4|9=58|35=0|34=538|49=T1Kauaiblk3|52=20201130-21:56:05.844|56=MA|10=174|8=FIX.4.4|9=58|35=0|34=539|49=T1Kauaiblk3|52=20201130-21:57:35.848|56=MA|10=183|8=FIX.4.4|9=58|35=0|34=540|49=T1Kauaiblk3|52=20201130-21:59:05.855|56=MA|10=172|8=FIX.4.4|9=58|35=0|34=541|49=T1Kauaiblk3|52=20201130-22:00:35.857|56=MA|10=165|8=FIX.4.4|9=58|35=0|34=542|49=T1Kauaiblk3|52=20201130-22:02:05.860|56=MA|10=159|8=FIX.4.4|9=58|35=0|34=543|49=T1Kauaiblk3|52=20201130-22:03:35.861|56=MA|10=165|8=FIX.4.4|9=58|35=0|34=544|49=T1Kauaiblk3|52=20201130-22:05:05.863|56=MA|10=167|8=FIX.4.4|9=58|35=0|34=545|49=T1Kauaiblk3|52=20201130-22:06:35.866|56=MA|10=175|8=FIX.4.4|9=58|35=0|34=546|49=T1Kauaiblk3|52=20201130-22:08:05.866|56=MA|10=175|8=FIX.4.4|9=58|35=0|34=547|49=T1Kauaiblk3|52=20201130-22:09:35.866|56=MA|10=180|8=FIX.4.4|9=58|35=0|34=548|49=T1Kauaiblk3|52=20201130-22:11:05.868|56=MA|10=173|8=FIX.4.4|9=58|35=0|34=549|49=T1Kauaiblk3|52=20201130-22:12:35.869|56=MA|10=179|8=FIX.4.4|9=58|35=0|34=550|49=T1Kauaiblk3|52=20201130-22:14:05.873|56=MA|10=165|8=FIX.4.4|9=58|35=0|34=551|49=T1Kauaiblk3|52=20201130-22:15:35.876|56=MA|10=173|8=FIX.4.4|9=58|35=0|34=552|49=T1Kauaiblk3|52=20201130-22:17:05.878|56=MA|10=175|8=FIX.4.4|9=58|35=0|34=553|49=T1Kauaiblk3|52=20201130-22:18:35.880|56=MA|10=173|8=FIX.4.4|9=58|35=0|34=554|49=T1Kauaiblk3|52=20201130-22:20:05.881|56=MA|10=165|8=FIX.4.4|9=58|35=0|34=555|49=T1Kauaiblk3|52=20201130-22:21:35.882|56=MA|10=171|8=FIX.4.4|9=58|35=0|34=556|49=T1Kauaiblk3|52=20201130-22:23:05.882|56=MA|10=171|8=FIX.4.4|9=58|35=0|34=557|49=T1Kauaiblk3|52=20201130-22:24:35.883|56=MA|10=177|8=FIX.4.4|9=58|35=0|34=558|49=T1Kauaiblk3|52=20201130-22:26:05.883|56=MA|10=177|8=FIX.4.4|9=58|35=0|34=559|49=T1Kauaiblk3|52=20201130-22:27:35.886|56=MA|10=185|8=FIX.4.4|9=58|35=0|34=560|49=T1Kauaiblk3|52=20201130-22:29:06.884|56=MA|10=175|8=FIX.4.4|9=58|35=0|34=561|49=T1Kauaiblk3|52=20201130-22:30:36.884|56=MA|10=171|8=FIX.4.4|9=58|35=0|34=562|49=T1Kauaiblk3|52=20201130-22:32:06.884|56=MA|10=171|8=FIX.4.4|9=58|35=0|34=563|49=T1Kauaiblk3|52=20201130-22:33:36.885|56=MA|10=177|8=FIX.4.4|9=58|35=0|34=564|49=T1Kauaiblk3|52=20201130-22:35:06.886|56=MA|10=178|8=FIX.4.4|9=58|35=0|34=565|49=T1Kauaiblk3|52=20201130-22:36:37.886|56=MA|10=184|8=FIX.4.4|9=58|35=0|34=566|49=T1Kauaiblk3|52=20201130-22:38:08.886|56=MA|10=185|8=FIX.4.4|9=58|35=0|34=567|49=T1Kauaiblk3|52=20201130-22:39:38.887|56=MA|10=191|8=FIX.4.4|9=58|35=0|34=568|49=T1Kauaiblk3|52=20201130-22:41:09.886|56=MA|10=182|8=FIX.4.4|9=58|35=0|34=569|49=T1Kauaiblk3|52=20201130-22:42:40.887|56=MA|10=180|8=FIX.4.4|9=58|35=0|34=570|49=T1Kauaiblk3|52=20201130-22:44:11.886|56=MA|10=171|8=FIX.4.4|9=58|35=0|34=571|49=T1Kauaiblk3|52=20201130-22:45:42.886|56=MA|10=177|8=FIX.4.4|9=58|35=0|34=572|49=T1Kauaiblk3|52=20201130-22:47:12.886|56=MA|10=177|8=FIX.4.4|9=58|35=0|34=573|49=T1Kauaiblk3|52=20201130-22:48:43.885|56=MA|10=182|8=FIX.4.4|9=58|35=0|34=574|49=T1Kauaiblk3|52=20201130-22:50:13.885|56=MA|10=173|8=FIX.4.4|9=58|35=0|34=575|49=T1Kauaiblk3|52=20201130-22:51:43.885|56=MA|10=178|8=FIX.4.4|9=58|35=0|34=576|49=T1Kauaiblk3|52=20201130-22:53:13.886|56=MA|10=179|8=FIX.4.4|9=58|35=0|34=577|49=T1Kauaiblk3|52=20201130-22:54:44.885|56=MA|10=184|8=FIX.4.4|9=58|35=0|34=578|49=T1Kauaiblk3|52=20201130-22:56:14.885|56=MA|10=184|8=FIX.4.4|9=58|35=0|34=579|49=T1Kauaiblk3|52=20201130-22:57:44.887|56=MA|10=191|8=FIX.4.4|9=58|35=0|34=580|49=T1Kauaiblk3|52=20201130-22:59:15.885|56=MA|10=181|8=FIX.4.4|9=58|35=0|34=581|49=T1Kauaiblk3|52=20201130-23:00:45.886|56=MA|10=173|8=FIX.4.4|9=58|35=0|34=582|49=T1Kauaiblk3|52=20201130-23:02:15.887|56=MA|10=174|8=FIX.4.4|9=58|35=0|34=583|49=T1Kauaiblk3|52=20201130-23:03:46.886|56=MA|10=179|8=FIX.4.4|9=58|35=5|34=584|49=T1Kauaiblk3|52=20201130-23:05:01.309|56=MA|10=168|8=FIX.4.4|9=91|35=A|34=1|49=T1Kauaiblk3|52=20201201-09:54:44.945|56=MA|98=0|108=90|95=8|96=3.0.0rc5|141=Y|10=043|8=FIX.4.4|9=640|35=E|34=2|49=T1Kauaiblk3|52=20201201-09:54:56.663|56=MA|66=MMAD-FIX44-ListID-011220-1264|394=2|68=5|73=5|11=FIX44-List-ClOrdID-1265|22=4|38=100000|48=US06051GEN51|54=1|55=[N/A/]|67=1|423=1|453=1|448=T1Kauaiblk3|447=C|452=11|11=FIX44-List-ClOrdID-1266|22=4|38=100000|48=US40434AAB52|54=1|55=[N/A]|67=2|11=FIX44-List-ClOrdID-1267|22=4|38=130000|48=US06738JYZ10|54=1|55=[N/A/]|67=1|453=1|448=T1Kauaiblk3|447=C|452=11|11=FIX44-List-ClOrdID-1268|22=4|38=250000|48=US95709TAH32|54=1|55=[N/A/]|67=1|453=1|448=T1Kauaiblk3|447=C|452=11|11=FIX44-List-ClOrdID-1269|22=4|38=350000|48=US29379VAW37|54=1|55=[N/A/]|67=1|453=1|448=T1Kauaiblk3|447=C|452=11|10=058|8=FIX.4.4|9=56|35=0|34=3|49=T1Kauaiblk3|52=20201201-09:56:26.945|56=MA|10=073|8=FIX.4.4|9=56|35=0|34=4|49=T1Kauaiblk3|52=20201201-09:57:56.945|56=MA|10=078|8=FIX.4.4|9=56|35=0|34=5|49=T1Kauaiblk3|52=20201201-09:59:26.945|56=MA|10=078|8=FIX.4.4|9=56|35=0|34=6|49=T1Kauaiblk3|52=20201201-10:00:56.946|56=MA|10=061|8=FIX.4.4|9=56|35=0|34=7|49=T1Kauaiblk3|52=20201201-10:02:27.946|56=MA|10=062|8=FIX.4.4|9=56|35=0|34=8|49=T1Kauaiblk3|52=20201201-10:03:57.946|56=MA|10=067|8=FIX.4.4|9=56|35=0|34=9|49=T1Kauaiblk3|52=20201201-10:05:27.946|56=MA|10=067|8=FIX.4.4|9=57|35=0|34=10|49=T1Kauaiblk3|52=20201201-10:06:57.948|56=MA|10=114|8=FIX.4.4|9=57|35=0|34=11|49=T1Kauaiblk3|52=20201201-10:08:28.947|56=MA|10=114|8=FIX.4.4|9=57|35=0|34=12|49=T1Kauaiblk3|52=20201201-10:09:58.949|56=MA|10=121|8=FIX.4.4|9=57|35=0|34=13|49=T1Kauaiblk3|52=20201201-10:11:28.952|56=MA|10=106|8=FIX.4.4|9=57|35=0|34=14|49=T1Kauaiblk3|52=20201201-10:12:58.955|56=MA|10=114|8=FIX.4.4|9=57|35=0|34=15|49=T1Kauaiblk3|52=20201201-10:14:28.956|56=MA|10=115|8=FIX.4.4|9=57|35=0|34=16|49=T1Kauaiblk3|52=20201201-10:15:58.958|56=MA|10=122|8=FIX.4.4|9=57|35=0|34=17|49=T1Kauaiblk3|52=20201201-10:17:28.960|56=MA|10=115|8=FIX.4.4|9=57|35=0|34=18|49=T1Kauaiblk3|52=20201201-10:18:58.963|56=MA|10=123|8=FIX.4.4|9=57|35=0|34=19|49=T1Kauaiblk3|52=20201201-10:20:28.963|56=MA|10=114|8=FIX.4.4|9=57|35=0|34=20|49=T1Kauaiblk3|52=20201201-10:21:58.965|56=MA|10=112|8=FIX.4.4|9=57|35=0|34=21|49=T1Kauaiblk3|52=20201201-10:23:28.967|56=MA|10=114|8=FIX.4.4|9=57|35=0|34=22|49=T1Kauaiblk3|52=20201201-10:24:58.969|56=MA|10=121|8=FIX.4.4|9=57|35=0|34=23|49=T1Kauaiblk3|52=20201201-10:26:28.971|56=MA|10=114|8=FIX.4.4|9=57|35=0|34=24|49=T1Kauaiblk3|52=20201201-10:27:58.972|56=MA|10=120|8=FIX.4.4|9=57|35=0|34=25|49=T1Kauaiblk3|52=20201201-10:29:28.974|56=MA|10=122|8=FIX.4.4|9=57|35=0|34=26|49=T1Kauaiblk3|52=20201201-10:30:58.974|56=MA|10=118|8=FIX.4.4|9=57|35=0|34=27|49=T1Kauaiblk3|52=20201201-10:32:28.975|56=MA|10=119|8=FIX.4.4|9=57|35=0|34=28|49=T1Kauaiblk3|52=20201201-10:33:58.977|56=MA|10=126|8=FIX.4.4|9=57|35=0|34=29|49=T1Kauaiblk3|52=20201201-10:35:28.979|56=MA|10=128|8=FIX.4.4|9=57|35=0|34=30|49=T1Kauaiblk3|52=20201201-10:36:58.979|56=MA|10=124|8=FIX.4.4|9=57|35=0|34=31|49=T1Kauaiblk3|52=20201201-10:38:28.980|56=MA|10=116|8=FIX.4.4|9=57|35=0|34=32|49=T1Kauaiblk3|52=20201201-10:39:58.982|56=MA|10=123|8=FIX.4.4|9=57|35=0|34=33|49=T1Kauaiblk3|52=20201201-10:41:28.982|56=MA|10=114|8=FIX.4.4|9=57|35=0|34=34|49=T1Kauaiblk3|52=20201201-10:42:58.983|56=MA|10=120|8=FIX.4.4|9=57|35=0|34=35|49=T1Kauaiblk3|52=20201201-10:44:28.984|56=MA|10=121|8=FIX.4.4|9=57|35=0|34=36|49=T1Kauaiblk3|52=20201201-10:45:58.985|56=MA|10=127|8=FIX.4.4|9=57|35=0|34=37|49=T1Kauaiblk3|52=20201201-10:47:28.987|56=MA|10=129|8=FIX.4.4|9=57|35=0|34=38|49=T1Kauaiblk3|52=20201201-10:48:59.988|56=MA|10=136|8=FIX.4.4|9=57|35=0|34=39|49=T1Kauaiblk3|52=20201201-10:50:30.988|56=MA|10=119|8=FIX.4.4|9=57|35=0|34=40|49=T1Kauaiblk3|52=20201201-10:52:00.989|56=MA|10=111|8=FIX.4.4|9=57|35=0|34=41|49=T1Kauaiblk3|52=20201201-10:53:30.989|56=MA|10=116|8=FIX.4.4|9=57|35=0|34=42|49=T1Kauaiblk3|52=20201201-10:55:00.990|56=MA|10=108|8=FIX.4.4|9=57|35=0|34=43|49=T1Kauaiblk3|52=20201201-10:56:30.990|56=MA|10=113|8=FIX.4.4|9=75|35=5|34=44|49=T1Kauaiblk3|52=20201201-10:57:40.991|56=MA|58=user requested|10=214|8=FIX.4.4|9=91|35=A|34=1|49=T1Kauaiblk3|52=20210212-08:32:24.270|56=MA|98=0|108=90|95=8|96=3.0.0rc5|141=Y|10=029|8=FIX.4.4|9=699|35=E|34=2|49=T1Kauaiblk3|52=20210212-08:32:31.932|56=MA|66=ListID-120221-1249|394=2|68=5|73=5|11=ClOrdID-1250|22=4|38=100000|44=100|48=US06051GEN51|54=1|55=[N/A/]|63=3|67=1|423=1|29726=100.25|453=1|448=T1Kauaiblk3|447=C|452=11|11=ClOrdID-1251|22=4|38=100000|44=101|48=US40434AAB52|54=1|55=[N/A]|63=3|67=2|29726=101.25|11=ClOrdID-1252|22=4|38=130000|44=102|48=US95709TAH32|54=1|55=[N/A/]|63=3|67=1|29726=102.25|453=1|448=T1Kauaiblk3|447=C|452=11|11=ClOrdID-1253|22=4|38=250000|44=103|48=US427866AZ15|54=1|55=[N/A/]|63=3|67=1|29726=103.25|453=1|448=T1Kauaiblk3|447=C|452=11|11=ClOrdID-1254|22=4|38=350000|44=104|48=US29379VAW37|54=1|55=[N/A/]|63=3|67=1|29726=104.25|453=1|448=T1Kauaiblk3|447=C|452=11|10=110|8=FIX.4.4|9=56|35=0|34=3|49=T1Kauaiblk3|52=20210212-08:34:02.269|56=MA|10=063|8=FIX.4.4|9=56|35=0|34=4|49=T1Kauaiblk3|52=20210212-08:35:32.270|56=MA|10=060|8=FIX.4.4|9=56|35=0|34=5|49=T1Kauaiblk3|52=20210212-08:37:03.270|56=MA|10=061|8=FIX.4.4|9=56|35=0|34=6|49=T1Kauaiblk3|52=20210212-08:38:34.270|56=MA|10=067|8=FIX.4.4|9=56|35=0|34=7|49=T1Kauaiblk3|52=20210212-08:40:04.270|56=MA|10=058|8=FIX.4.4|9=56|35=0|34=8|49=T1Kauaiblk3|52=20210212-08:41:34.270|56=MA|10=063|8=FIX.4.4|9=56|35=0|34=9|49=T1Kauaiblk3|52=20210212-08:43:05.270|56=MA|10=064|8=FIX.4.4|9=57|35=0|34=10|49=T1Kauaiblk3|52=20210212-08:44:35.270|56=MA|10=109|8=FIX.4.4|9=57|35=0|34=11|49=T1Kauaiblk3|52=20210212-08:46:06.270|56=MA|10=110|8=FIX.4.4|9=57|35=0|34=12|49=T1Kauaiblk3|52=20210212-08:47:37.270|56=MA|10=116|8=FIX.4.4|9=57|35=0|34=13|49=T1Kauaiblk3|52=20210212-08:49:07.271|56=MA|10=117|8=FIX.4.4|9=57|35=0|34=14|49=T1Kauaiblk3|52=20210212-08:50:38.270|56=MA|10=113|8=FIX.4.4|9=57|35=0|34=15|49=T1Kauaiblk3|52=20210212-08:52:08.270|56=MA|10=113|8=FIX.4.4|9=57|35=0|34=16|49=T1Kauaiblk3|52=20210212-08:53:38.270|56=MA|10=118|8=FIX.4.4|9=57|35=0|34=17|49=T1Kauaiblk3|52=20210212-08:55:08.270|56=MA|10=118|8=FIX.4.4|9=57|35=0|34=18|49=T1Kauaiblk3|52=20210212-08:56:38.270|56=MA|10=123|8=FIX.4.4|9=57|35=0|34=19|49=T1Kauaiblk3|52=20210212-08:58:09.269|56=MA|10=132|8=FIX.4.4|9=57|35=0|34=20|49=T1Kauaiblk3|52=20210212-08:59:39.270|56=MA|10=120|8=FIX.4.4|9=57|35=0|34=21|49=T1Kauaiblk3|52=20210212-09:01:09.270|56=MA|10=106|8=FIX.4.4|9=57|35=0|34=22|49=T1Kauaiblk3|52=20210212-09:02:39.270|56=MA|10=111|8=FIX.4.4|9=57|35=0|34=23|49=T1Kauaiblk3|52=20210212-09:04:09.270|56=MA|10=111|8=FIX.4.4|9=57|35=0|34=24|49=T1Kauaiblk3|52=20210212-09:05:39.271|56=MA|10=117|8=FIX.4.4|9=57|35=0|34=25|49=T1Kauaiblk3|52=20210212-09:07:09.445|56=MA|10=120|8=FIX.4.4|9=57|35=0|34=26|49=T1Kauaiblk3|52=20210212-09:08:39.445|56=MA|10=125|8=FIX.4.4|9=57|35=0|34=27|49=T1Kauaiblk3|52=20210212-09:10:09.486|56=MA|10=121|8=FIX.4.4|9=57|35=0|34=28|49=T1Kauaiblk3|52=20210212-09:11:40.271|56=MA|10=110|8=FIX.4.4|9=57|35=0|34=29|49=T1Kauaiblk3|52=20210212-09:13:10.454|56=MA|10=113|8=FIX.4.4|9=57|35=0|34=30|49=T1Kauaiblk3|52=20210212-09:14:41.270|56=MA|10=106|8=FIX.4.4|9=57|35=0|34=31|49=T1Kauaiblk3|52=20210212-09:16:11.271|56=MA|10=107|8=FIX.4.4|9=57|35=0|34=32|49=T1Kauaiblk3|52=20210212-09:17:41.271|56=MA|10=112|8=FIX.4.4|9=57|35=0|34=33|49=T1Kauaiblk3|52=20210212-09:19:11.271|56=MA|10=112|8=FIX.4.4|9=57|35=0|34=34|49=T1Kauaiblk3|52=20210212-09:20:42.271|56=MA|10=109|8=FIX.4.4|9=57|35=0|34=35|49=T1Kauaiblk3|52=20210212-09:22:12.272|56=MA|10=110|8=FIX.4.4|9=57|35=0|34=36|49=T1Kauaiblk3|52=20210212-09:23:43.271|56=MA|10=115|8=FIX.4.4|9=57|35=0|34=37|49=T1Kauaiblk3|52=20210212-09:25:13.271|56=MA|10=115|8=FIX.4.4|9=57|35=0|34=38|49=T1Kauaiblk3|52=20210212-09:26:43.271|56=MA|10=120|8=FIX.4.4|9=57|35=0|34=39|49=T1Kauaiblk3|52=20210212-09:28:13.272|56=MA|10=121|8=FIX.4.4|9=57|35=0|34=40|49=T1Kauaiblk3|52=20210212-09:29:44.271|56=MA|10=117|8=FIX.4.4|9=57|35=5|34=41|49=T1Kauaiblk3|52=20210212-09:30:31.271|56=MA|10=111|8=FIX.4.4|9=91|35=A|34=1|49=T1Kauaiblk3|52=20210212-15:50:16.300|56=MA|98=0|108=90|95=8|96=3.0.0rc5|141=Y|10=022|8=FIX.4.4|9=699|35=E|34=2|49=T1Kauaiblk3|52=20210212-15:50:20.192|56=MA|66=ListID-120221-1330|394=2|68=5|73=5|11=ClOrdID-1331|22=4|38=100000|44=100|48=US06051GEN51|54=1|55=[N/A/]|63=3|67=1|423=1|29726=100.25|453=1|448=T1Kauaiblk3|447=C|452=11|11=ClOrdID-1332|22=4|38=100000|44=101|48=US40434AAB52|54=1|55=[N/A]|63=3|67=2|29726=101.25|11=ClOrdID-1333|22=4|38=130000|44=102|48=US95709TAH32|54=1|55=[N/A/]|63=3|67=1|29726=102.25|453=1|448=T1Kauaiblk3|447=C|452=11|11=ClOrdID-1334|22=4|38=250000|44=103|48=US427866AZ15|54=1|55=[N/A/]|63=3|67=1|29726=103.25|453=1|448=T1Kauaiblk3|447=C|452=11|11=ClOrdID-1335|22=4|38=350000|44=104|48=US29379VAW37|54=1|55=[N/A/]|63=3|67=1|29726=104.25|453=1|448=T1Kauaiblk3|447=C|452=11|10=095|8=FIX.4.4|9=56|35=0|34=3|49=T1Kauaiblk3|52=20210212-15:51:50.299|56=MA|10=066|8=FIX.4.4|9=56|35=0|34=4|49=T1Kauaiblk3|52=20210212-15:53:20.299|56=MA|10=066|8=FIX.4.4|9=56|35=0|34=5|49=T1Kauaiblk3|52=20210212-15:54:50.299|56=MA|10=071|8=FIX.4.4|9=56|35=0|34=6|49=T1Kauaiblk3|52=20210212-15:56:20.299|56=MA|10=071|8=FIX.4.4|9=56|35=0|34=7|49=T1Kauaiblk3|52=20210212-15:57:50.299|56=MA|10=076|8=FIX.4.4|9=56|35=0|34=8|49=T1Kauaiblk3|52=20210212-15:59:20.300|56=MA|10=059|8=FIX.4.4|9=56|35=0|34=9|49=T1Kauaiblk3|52=20210212-16:00:50.300|56=MA|10=050|8=FIX.4.4|9=57|35=0|34=10|49=T1Kauaiblk3|52=20210212-16:02:21.299|56=MA|10=108|8=FIX.4.4|9=700|35=E|34=11|49=T1Kauaiblk3|52=20210212-16:02:41.422|56=MA|66=ListID-120221-1336|394=2|68=5|73=5|11=ClOrdID-1337|22=4|38=100000|44=100|48=US06051GEN51|54=1|55=[N/A/]|63=3|67=1|423=1|29726=100.25|453=1|448=T1Kauaiblk3|447=C|452=11|11=ClOrdID-1338|22=4|38=100000|44=101|48=US40434AAB52|54=1|55=[N/A]|63=3|67=2|29726=101.25|11=ClOrdID-1339|22=4|38=130000|44=102|48=US95709TAH32|54=1|55=[N/A/]|63=3|67=1|29726=102.25|453=1|448=T1Kauaiblk3|447=C|452=11|11=ClOrdID-1340|22=4|38=250000|44=103|48=US427866AZ15|54=1|55=[N/A/]|63=3|67=1|29726=103.25|453=1|448=T1Kauaiblk3|447=C|452=11|11=ClOrdID-1341|22=4|38=350000|44=104|48=US29379VAW37|54=1|55=[N/A/]|63=3|67=1|29726=104.25|453=1|448=T1Kauaiblk3|447=C|452=11|10=141|8=FIX.4.4|9=57|35=0|34=12|49=T1Kauaiblk3|52=20210212-16:04:12.300|56=MA|10=095|8=FIX.4.4|9=57|35=0|34=13|49=T1Kauaiblk3|52=20210212-16:05:42.300|56=MA|10=100|8=FIX.4.4|9=57|35=0|34=14|49=T1Kauaiblk3|52=20210212-16:07:12.300|56=MA|10=100|8=FIX.4.4|9=57|35=0|34=15|49=T1Kauaiblk3|52=20210212-16:08:42.300|56=MA|10=105|8=FIX.4.4|9=57|35=0|34=16|49=T1Kauaiblk3|52=20210212-16:10:12.300|56=MA|10=096|8=FIX.4.4|9=57|35=0|34=17|49=T1Kauaiblk3|52=20210212-16:11:42.300|56=MA|10=101|8=FIX.4.4|9=57|35=0|34=18|49=T1Kauaiblk3|52=20210212-16:13:12.300|56=MA|10=101|8=FIX.4.4|9=79|35=5|34=19|49=T1Kauaiblk3|52=20210212-16:14:11.300|56=MA|58=Session Tab Closed|10=175|