8=FIX.4.4|9=80|35=A|34=1|49=MMMAQA|52=20181129-09:08:34.259|56=MA|98=0|108=90|95=8|96=3.0.0rc4|10=229|8=FIX.4.4|9=51|35=0|34=2|49=MMMAQA|52=20181129-09:10:05.255|56=MA|10=030|8=FIX.4.4|9=51|35=0|34=3|49=MMMAQA|52=20181129-09:11:35.256|56=MA|10=036|8=FIX.4.4|9=51|35=0|34=4|49=MMMAQA|52=20181129-09:13:06.253|56=MA|10=034|8=FIX.4.4|9=51|35=0|34=5|49=MMMAQA|52=20181129-09:14:36.265|56=MA|10=042|8=FIX.4.4|9=51|35=0|34=6|49=MMMAQA|52=20181129-09:16:06.266|56=MA|10=043|8=FIX.4.4|9=51|35=0|34=7|49=MMMAQA|52=20181129-09:17:37.256|56=MA|10=048|8=FIX.4.4|9=51|35=0|34=8|49=MMMAQA|52=20181129-09:19:07.262|56=MA|10=045|8=FIX.4.4|9=51|35=5|34=9|49=MMMAQA|52=20181129-09:19:44.252|56=MA|10=051|