8=FIX.4.2|9=95|35=A|34=1|49=EMS_TEST|52=20191113-14:00:28.372|56=MA_FX_GTW|98=0|108=90|95=8|96=3.0.0rc5|141=Y|10=028|