8=FIX.4.4|9=80|35=A|34=1|49=MMMAQA|52=20181129-08:50:45.274|56=MA|98=0|108=90|95=8|96=3.0.0rc4|10=224|8=FIX.4.4|9=51|35=0|34=2|49=MMMAQA|52=20181129-08:52:16.160|56=MA|10=032|8=FIX.4.4|9=51|35=0|34=3|49=MMMAQA|52=20181129-08:53:46.164|56=MA|10=041|8=FIX.4.4|9=51|35=0|34=4|49=MMMAQA|52=20181129-08:55:16.258|56=MA|10=045|8=FIX.4.4|9=51|35=0|34=5|49=MMMAQA|52=20181129-08:56:47.235|56=MA|10=046|8=FIX.4.4|9=51|35=0|34=6|49=MMMAQA|52=20181129-08:58:17.272|56=MA|10=047|8=FIX.4.4|9=51|35=0|34=7|49=MMMAQA|52=20181129-08:59:48.227|56=MA|10=053|8=FIX.4.4|9=51|35=0|34=8|49=MMMAQA|52=20181129-09:01:18.257|56=MA|10=042|8=FIX.4.4|9=51|35=0|34=9|49=MMMAQA|52=20181129-09:02:48.257|56=MA|10=047|8=FIX.4.4|9=52|35=0|34=10|49=MMMAQA|52=20181129-09:04:18.257|56=MA|10=087|8=FIX.4.4|9=52|35=0|34=11|49=MMMAQA|52=20181129-09:05:49.256|56=MA|10=092|8=FIX.4.4|9=52|35=0|34=12|49=MMMAQA|52=20181129-09:07:19.262|56=MA|10=089|8=FIX.4.4|9=52|35=0|34=13|49=MMMAQA|52=20181129-09:08:49.266|56=MA|10=098|8=FIX.4.4|9=52|35=0|34=14|49=MMMAQA|52=20181129-09:10:20.155|56=MA|10=078|8=FIX.4.4|9=52|35=0|34=15|49=MMMAQA|52=20181129-09:11:50.236|56=MA|10=083|8=FIX.4.4|9=52|35=0|34=16|49=MMMAQA|52=20181129-09:13:20.262|56=MA|10=082|8=FIX.4.4|9=52|35=0|34=17|49=MMMAQA|52=20181129-09:14:50.262|56=MA|10=087|8=FIX.4.4|9=52|35=0|34=18|49=MMMAQA|52=20181129-09:16:21.259|56=MA|10=094|8=FIX.4.4|9=52|35=0|34=19|49=MMMAQA|52=20181129-09:17:52.181|56=MA|10=094|8=FIX.4.4|9=52|35=0|34=20|49=MMMAQA|52=20181129-09:19:22.231|56=MA|10=081|8=FIX.4.4|9=52|35=0|34=21|49=MMMAQA|52=20181129-09:20:52.259|56=MA|10=087|8=FIX.4.4|9=52|35=0|34=22|49=MMMAQA|52=20181129-09:22:23.148|56=MA|10=085|8=FIX.4.4|9=52|35=0|34=23|49=MMMAQA|52=20181129-09:23:53.224|56=MA|10=085|8=FIX.4.4|9=52|35=0|34=24|49=MMMAQA|52=20181129-09:25:23.260|56=MA|10=085|8=FIX.4.4|9=52|35=0|34=25|49=MMMAQA|52=20181129-09:26:53.260|56=MA|10=090|8=FIX.4.4|9=52|35=0|34=26|49=MMMAQA|52=20181129-09:28:24.218|56=MA|10=094|8=FIX.4.4|9=52|35=0|34=27|49=MMMAQA|52=20181129-09:29:54.250|56=MA|10=095|8=FIX.4.4|9=52|35=0|34=28|49=MMMAQA|52=20181129-09:31:24.252|56=MA|10=088|8=FIX.4.4|9=52|35=0|34=29|49=MMMAQA|52=20181129-09:32:55.230|56=MA|10=090|8=FIX.4.4|9=52|35=0|34=30|49=MMMAQA|52=20181129-09:34:25.256|56=MA|10=089|8=FIX.4.4|9=52|35=0|34=31|49=MMMAQA|52=20181129-09:35:55.258|56=MA|10=096|8=FIX.4.4|9=52|35=0|34=32|49=MMMAQA|52=20181129-09:37:26.152|56=MA|10=090|8=FIX.4.4|9=52|35=0|34=33|49=MMMAQA|52=20181129-09:38:56.220|56=MA|10=091|8=FIX.4.4|9=52|35=0|34=34|49=MMMAQA|52=20181129-09:40:26.257|56=MA|10=092|8=FIX.4.4|9=52|35=0|34=35|49=MMMAQA|52=20181129-09:41:57.218|56=MA|10=095|8=FIX.4.4|9=52|35=0|34=36|49=MMMAQA|52=20181129-09:43:27.251|56=MA|10=092|8=FIX.4.4|9=52|35=0|34=37|49=MMMAQA|52=20181129-09:44:58.203|56=MA|10=095|8=FIX.4.4|9=52|35=0|34=38|49=MMMAQA|52=20181129-09:46:28.254|56=MA|10=101|8=FIX.4.4|9=52|35=0|34=39|49=MMMAQA|52=20181129-09:47:59.169|56=MA|10=112|8=FIX.4.4|9=52|35=0|34=40|49=MMMAQA|52=20181129-09:49:29.216|56=MA|10=096|8=FIX.4.4|9=52|35=0|34=41|49=MMMAQA|52=20181129-09:50:59.222|56=MA|10=089|8=FIX.4.4|9=52|35=0|34=42|49=MMMAQA|52=20181129-09:52:29.246|56=MA|10=095|8=FIX.4.4|9=52|35=0|34=43|49=MMMAQA|52=20181129-09:53:59.248|56=MA|10=102|8=FIX.4.4|9=52|35=0|34=44|49=MMMAQA|52=20181129-09:55:30.160|56=MA|10=087|8=FIX.4.4|9=52|35=0|34=45|49=MMMAQA|52=20181129-09:57:00.253|56=MA|10=090|8=FIX.4.4|9=52|35=0|34=46|49=MMMAQA|52=20181129-09:58:31.238|56=MA|10=099|8=FIX.4.4|9=52|35=0|34=47|49=MMMAQA|52=20181129-10:00:01.240|56=MA|10=069|8=FIX.4.4|9=52|35=0|34=48|49=MMMAQA|52=20181129-10:01:32.228|56=MA|10=081|8=FIX.4.4|9=52|35=0|34=49|49=MMMAQA|52=20181129-10:03:02.238|56=MA|10=082|8=FIX.4.4|9=52|35=0|34=50|49=MMMAQA|52=20181129-10:04:33.160|56=MA|10=073|8=FIX.4.4|9=52|35=0|34=51|49=MMMAQA|52=20181129-10:06:03.222|56=MA|10=072|8=FIX.4.4|9=52|35=0|34=52|49=MMMAQA|52=20181129-10:07:33.235|56=MA|10=081|8=FIX.4.4|9=52|35=0|34=53|49=MMMAQA|52=20181129-10:09:03.246|56=MA|10=083|8=FIX.4.4|9=52|35=0|34=54|49=MMMAQA|52=20181129-10:10:34.152|56=MA|10=076|8=FIX.4.4|9=52|35=0|34=55|49=MMMAQA|52=20181129-10:12:04.244|56=MA|10=078|8=FIX.4.4|9=52|35=0|34=56|49=MMMAQA|52=20181129-10:13:34.247|56=MA|10=086|8=FIX.4.4|9=52|35=0|34=57|49=MMMAQA|52=20181129-10:15:05.161|56=MA|10=082|8=FIX.4.4|9=52|35=0|34=58|49=MMMAQA|52=20181129-10:16:35.217|56=MA|10=089|8=FIX.4.4|9=52|35=0|34=59|49=MMMAQA|52=20181129-10:18:05.234|56=MA|10=088|8=FIX.4.4|9=52|35=0|34=60|49=MMMAQA|52=20181129-10:19:35.249|56=MA|10=090|8=FIX.4.4|9=52|35=0|34=61|49=MMMAQA|52=20181129-10:21:06.179|56=MA|10=084|8=FIX.4.4|9=52|35=0|34=62|49=MMMAQA|52=20181129-10:22:36.223|56=MA|10=079|8=FIX.4.4|9=52|35=0|34=63|49=MMMAQA|52=20181129-10:24:06.237|56=MA|10=084|8=FIX.4.4|9=52|35=0|34=64|49=MMMAQA|52=20181129-10:25:36.247|56=MA|10=090|8=FIX.4.4|9=52|35=0|34=65|49=MMMAQA|52=20181129-10:27:06.248|56=MA|10=091|8=FIX.4.4|9=52|35=0|34=66|49=MMMAQA|52=20181129-10:28:37.232|56=MA|10=090|8=FIX.4.4|9=52|35=0|34=67|49=MMMAQA|52=20181129-10:30:07.233|56=MA|10=082|8=FIX.4.4|9=52|35=0|34=68|49=MMMAQA|52=20181129-10:31:37.239|56=MA|10=093|8=FIX.4.4|9=52|35=0|34=69|49=MMMAQA|52=20181129-10:33:08.221|56=MA|10=085|8=FIX.4.4|9=52|35=0|34=70|49=MMMAQA|52=20181129-10:34:38.235|56=MA|10=086|8=FIX.4.4|9=52|35=0|34=71|49=MMMAQA|52=20181129-10:36:08.235|56=MA|10=086|8=FIX.4.4|9=52|35=0|34=72|49=MMMAQA|52=20181129-10:37:39.156|56=MA|10=094|8=FIX.4.4|9=52|35=0|34=73|49=MMMAQA|52=20181129-10:39:09.188|56=MA|10=099|8=FIX.4.4|9=52|35=0|34=74|49=MMMAQA|52=20181129-10:40:39.222|56=MA|10=084|8=FIX.4.4|9=52|35=0|34=75|49=MMMAQA|52=20181129-10:42:09.233|56=MA|10=086|8=FIX.4.4|9=52|35=0|34=76|49=MMMAQA|52=20181129-10:43:39.238|56=MA|10=096|8=FIX.4.4|9=52|35=0|34=77|49=MMMAQA|52=20181129-10:45:10.227|56=MA|10=086|8=FIX.4.4|9=52|35=0|34=78|49=MMMAQA|52=20181129-10:46:40.232|56=MA|10=087|8=FIX.4.4|9=52|35=0|34=79|49=MMMAQA|52=20181129-10:48:11.221|56=MA|10=086|8=FIX.4.4|9=52|35=0|34=80|49=MMMAQA|52=20181129-10:49:41.230|56=MA|10=082|8=FIX.4.4|9=52|35=0|34=81|49=MMMAQA|52=20181129-10:51:11.234|56=MA|10=077|8=FIX.4.4|9=52|35=0|34=82|49=MMMAQA|52=20181129-10:52:42.166|56=MA|10=087|8=FIX.4.4|9=52|35=0|34=83|49=MMMAQA|52=20181129-10:54:12.223|56=MA|10=081|8=FIX.4.4|9=52|35=0|34=84|49=MMMAQA|52=20181129-10:55:42.224|56=MA|10=087|8=FIX.4.4|9=52|35=0|34=85|49=MMMAQA|52=20181129-10:57:12.228|56=MA|10=091|8=FIX.4.4|9=52|35=0|34=86|49=MMMAQA|52=20181129-10:58:42.229|56=MA|10=097|8=FIX.4.4|9=52|35=0|34=87|49=MMMAQA|52=20181129-11:00:12.231|56=MA|10=076|8=FIX.4.4|9=52|35=0|34=88|49=MMMAQA|52=20181129-11:01:43.156|56=MA|10=088|8=FIX.4.4|9=52|35=0|34=89|49=MMMAQA|52=20181129-11:03:13.228|56=MA|10=088|8=FIX.4.4|9=52|35=0|34=90|49=MMMAQA|52=20181129-11:04:44.221|56=MA|10=078|8=FIX.4.4|9=52|35=0|34=91|49=MMMAQA|52=20181129-11:06:14.234|56=MA|10=082|8=FIX.4.4|9=52|35=0|34=92|49=MMMAQA|52=20181129-11:07:45.221|56=MA|10=084|8=FIX.4.4|9=52|35=0|34=93|49=MMMAQA|52=20181129-11:09:15.234|56=MA|10=088|8=FIX.4.4|9=52|35=0|34=94|49=MMMAQA|52=20181129-11:10:46.226|56=MA|10=086|8=FIX.4.4|9=52|35=0|34=95|49=MMMAQA|52=20181129-11:12:16.231|56=MA|10=082|8=FIX.4.4|9=52|35=0|34=96|49=MMMAQA|52=20181129-11:13:47.224|56=MA|10=090|8=FIX.4.4|9=52|35=0|34=97|49=MMMAQA|52=20181129-11:15:17.226|56=MA|10=092|8=FIX.4.4|9=52|35=0|34=98|49=MMMAQA|52=20181129-11:16:48.181|56=MA|10=098|8=FIX.4.4|9=52|35=0|34=99|49=MMMAQA|52=20181129-11:18:18.226|56=MA|10=098|8=FIX.4.4|9=53|35=0|34=100|49=MMMAQA|52=20181129-11:19:49.163|56=MA|10=135|8=FIX.4.4|9=53|35=0|34=101|49=MMMAQA|52=20181129-11:21:19.221|56=MA|10=121|8=FIX.4.4|9=53|35=0|34=102|49=MMMAQA|52=20181129-11:22:50.218|56=MA|10=124|8=FIX.4.4|9=53|35=0|34=103|49=MMMAQA|52=20181129-11:24:20.224|56=MA|10=121|8=FIX.4.4|9=53|35=0|34=104|49=MMMAQA|52=20181129-11:25:51.219|56=MA|10=131|8=FIX.4.4|9=53|35=0|34=105|49=MMMAQA|52=20181129-11:27:21.225|56=MA|10=128|8=FIX.4.4|9=53|35=0|34=106|49=MMMAQA|52=20181129-11:28:52.151|56=MA|10=132|8=FIX.4.4|9=53|35=0|34=107|49=MMMAQA|52=20181129-11:30:22.166|56=MA|10=129|8=FIX.4.4|9=53|35=0|34=108|49=MMMAQA|52=20181129-11:31:52.217|56=MA|10=131|8=FIX.4.4|9=53|35=0|34=109|49=MMMAQA|52=20181129-11:33:22.219|56=MA|10=133|8=FIX.4.4|9=53|35=0|34=110|49=MMMAQA|52=20181129-11:34:53.211|56=MA|10=122|8=FIX.4.4|9=53|35=0|34=111|49=MMMAQA|52=20181129-11:36:23.238|56=MA|10=131|8=FIX.4.4|9=53|35=0|34=112|49=MMMAQA|52=20181129-11:37:54.173|56=MA|10=135|8=FIX.4.4|9=53|35=0|34=113|49=MMMAQA|52=20181129-11:39:24.216|56=MA|10=133|8=FIX.4.4|9=53|35=0|34=114|49=MMMAQA|52=20181129-11:40:54.235|56=MA|10=130|8=FIX.4.4|9=53|35=0|34=115|49=MMMAQA|52=20181129-11:42:25.221|56=MA|10=126|8=FIX.4.4|9=53|35=0|34=116|49=MMMAQA|52=20181129-11:43:56.222|56=MA|10=133|8=FIX.4.4|9=53|35=0|34=117|49=MMMAQA|52=20181129-11:45:27.217|56=MA|10=138|8=FIX.4.4|9=53|35=0|34=118|49=MMMAQA|52=20181129-11:46:58.206|56=MA|10=142|8=FIX.4.4|9=53|35=0|34=119|49=MMMAQA|52=20181129-11:48:28.210|56=MA|10=137|8=FIX.4.4|9=53|35=0|34=120|49=MMMAQA|52=20181129-11:49:58.211|56=MA|10=134|8=FIX.4.4|9=53|35=0|34=121|49=MMMAQA|52=20181129-11:51:28.218|56=MA|10=132|8=FIX.4.4|9=53|35=0|34=122|49=MMMAQA|52=20181129-11:52:59.211|56=MA|10=131|8=FIX.4.4|9=53|35=0|34=123|49=MMMAQA|52=20181129-11:54:29.215|56=MA|10=135|8=FIX.4.4|9=53|35=0|34=124|49=MMMAQA|52=20181129-11:56:00.212|56=MA|10=124|8=FIX.4.4|9=53|35=0|34=125|49=MMMAQA|52=20181129-11:57:31.189|56=MA|10=143|8=FIX.4.4|9=53|35=0|34=126|49=MMMAQA|52=20181129-11:59:01.217|56=MA|10=135|8=FIX.4.4|9=53|35=0|34=127|49=MMMAQA|52=20181129-12:00:32.214|56=MA|10=124|8=FIX.4.4|9=53|35=0|34=128|49=MMMAQA|52=20181129-12:02:03.208|56=MA|10=128|8=FIX.4.4|9=53|35=0|34=129|49=MMMAQA|52=20181129-12:03:33.213|56=MA|10=129|8=FIX.4.4|9=53|35=0|34=130|49=MMMAQA|52=20181129-12:05:03.225|56=MA|10=123|8=FIX.4.4|9=53|35=0|34=131|49=MMMAQA|52=20181129-12:06:34.200|56=MA|10=122|8=FIX.4.4|9=53|35=0|34=132|49=MMMAQA|52=20181129-12:08:04.201|56=MA|10=123|8=FIX.4.4|9=53|35=0|34=133|49=MMMAQA|52=20181129-12:09:35.200|56=MA|10=128|8=FIX.4.4|9=53|35=0|34=134|49=MMMAQA|52=20181129-12:11:06.199|56=MA|10=137|8=FIX.4.4|9=53|35=0|34=135|49=MMMAQA|52=20181129-12:12:36.199|56=MA|10=142|8=FIX.4.4|9=53|35=0|34=136|49=MMMAQA|52=20181129-12:14:07.198|56=MA|10=142|8=FIX.4.4|9=53|35=0|34=137|49=MMMAQA|52=20181129-12:15:38.198|56=MA|10=148|8=FIX.4.4|9=53|35=0|34=138|49=MMMAQA|52=20181129-12:17:09.197|56=MA|10=148|8=FIX.4.4|9=53|35=0|34=139|49=MMMAQA|52=20181129-12:18:39.197|56=MA|10=153|8=FIX.4.4|9=53|35=0|34=140|49=MMMAQA|52=20181129-12:20:09.197|56=MA|10=135|8=FIX.4.4|9=53|35=0|34=141|49=MMMAQA|52=20181129-12:21:40.195|56=MA|10=130|8=FIX.4.4|9=53|35=0|34=142|49=MMMAQA|52=20181129-12:23:11.195|56=MA|10=131|8=FIX.4.4|9=53|35=0|34=143|49=MMMAQA|52=20181129-12:24:41.195|56=MA|10=136|8=FIX.4.4|9=53|35=0|34=144|49=MMMAQA|52=20181129-12:26:12.194|56=MA|10=136|8=FIX.4.4|9=53|35=0|34=145|49=MMMAQA|52=20181129-12:27:42.194|56=MA|10=141|8=FIX.4.4|9=53|35=0|34=146|49=MMMAQA|52=20181129-12:29:13.193|56=MA|10=141|8=FIX.4.4|9=53|35=0|34=147|49=MMMAQA|52=20181129-12:30:44.192|56=MA|10=137|8=FIX.4.4|9=53|35=0|34=148|49=MMMAQA|52=20181129-12:32:15.191|56=MA|10=137|8=FIX.4.4|9=53|35=0|34=149|49=MMMAQA|52=20181129-12:33:45.192|56=MA|10=143|8=FIX.4.4|9=53|35=0|34=150|49=MMMAQA|52=20181129-12:35:15.192|56=MA|10=134|8=FIX.4.4|9=53|35=0|34=151|49=MMMAQA|52=20181129-12:36:46.191|56=MA|10=139|8=FIX.4.4|9=53|35=0|34=152|49=MMMAQA|52=20181129-12:38:16.191|56=MA|10=139|8=FIX.4.4|9=53|35=0|34=153|49=MMMAQA|52=20181129-12:39:47.191|56=MA|10=145|8=FIX.4.4|9=53|35=0|34=154|49=MMMAQA|52=20181129-12:41:18.191|56=MA|10=137|8=FIX.4.4|9=53|35=0|34=155|49=MMMAQA|52=20181129-12:42:49.190|56=MA|10=142|8=FIX.4.4|9=53|35=0|34=156|49=MMMAQA|52=20181129-12:44:20.189|56=MA|10=142|8=FIX.4.4|9=53|35=0|34=157|49=MMMAQA|52=20181129-12:45:51.189|56=MA|10=148|8=FIX.4.4|9=53|35=0|34=158|49=MMMAQA|52=20181129-12:47:21.189|56=MA|10=148|8=FIX.4.4|9=53|35=0|34=159|49=MMMAQA|52=20181129-12:48:52.187|56=MA|10=152|8=FIX.4.4|9=53|35=0|34=160|49=MMMAQA|52=20181129-12:50:23.187|56=MA|10=135|8=FIX.4.4|9=53|35=0|34=161|49=MMMAQA|52=20181129-12:51:54.186|56=MA|10=140|8=FIX.4.4|9=53|35=0|34=162|49=MMMAQA|52=20181129-12:53:24.186|56=MA|10=140|8=FIX.4.4|9=53|35=0|34=163|49=MMMAQA|52=20181129-12:54:55.185|56=MA|10=145|8=FIX.4.4|9=53|35=0|34=164|49=MMMAQA|52=20181129-12:56:25.185|56=MA|10=145|8=FIX.4.4|9=53|35=0|34=165|49=MMMAQA|52=20181129-12:57:55.185|56=MA|10=150|8=FIX.4.4|9=53|35=0|34=166|49=MMMAQA|52=20181129-12:59:26.184|56=MA|10=150|8=FIX.4.4|9=53|35=0|34=167|49=MMMAQA|52=20181129-13:00:57.183|56=MA|10=141|8=FIX.4.4|9=53|35=0|34=168|49=MMMAQA|52=20181129-13:02:28.184|56=MA|10=143|8=FIX.4.4|9=53|35=0|34=169|49=MMMAQA|52=20181129-13:03:59.182|56=MA|10=147|8=FIX.4.4|9=53|35=0|34=170|49=MMMAQA|52=20181129-13:05:29.182|56=MA|10=138|8=FIX.4.4|9=53|35=0|34=171|49=MMMAQA|52=20181129-13:07:00.181|56=MA|10=129|8=FIX.4.4|9=53|35=0|34=172|49=MMMAQA|52=20181129-13:08:30.181|56=MA|10=134|8=FIX.4.4|9=53|35=0|34=173|49=MMMAQA|52=20181129-13:10:01.179|56=MA|10=133|8=FIX.4.4|9=53|35=0|34=174|49=MMMAQA|52=20181129-13:11:31.179|56=MA|10=138|8=FIX.4.4|9=53|35=0|34=175|49=MMMAQA|52=20181129-13:13:02.180|56=MA|10=131|8=FIX.4.4|9=53|35=0|34=176|49=MMMAQA|52=20181129-13:14:33.178|56=MA|10=144|8=FIX.4.4|9=53|35=0|34=177|49=MMMAQA|52=20181129-13:16:03.178|56=MA|10=144|8=FIX.4.4|9=53|35=0|34=178|49=MMMAQA|52=20181129-13:17:34.177|56=MA|10=149|8=FIX.4.4|9=53|35=0|34=179|49=MMMAQA|52=20181129-13:19:05.176|56=MA|10=149|8=FIX.4.4|9=53|35=0|34=180|49=MMMAQA|52=20181129-13:20:36.176|56=MA|10=137|8=FIX.4.4|9=53|35=0|34=181|49=MMMAQA|52=20181129-13:22:07.176|56=MA|10=138|8=FIX.4.4|9=53|35=0|34=182|49=MMMAQA|52=20181129-13:23:37.176|56=MA|10=143|8=FIX.4.4|9=53|35=0|34=183|49=MMMAQA|52=20181129-13:25:08.175|56=MA|10=143|8=FIX.4.4|9=53|35=0|34=184|49=MMMAQA|52=20181129-13:26:38.175|56=MA|10=148|8=FIX.4.4|9=53|35=0|34=185|49=MMMAQA|52=20181129-13:28:08.175|56=MA|10=148|8=FIX.4.4|9=53|35=0|34=186|49=MMMAQA|52=20181129-13:29:39.174|56=MA|10=153|8=FIX.4.4|9=53|35=0|34=187|49=MMMAQA|52=20181129-13:31:09.174|56=MA|10=144|8=FIX.4.4|9=53|35=0|34=188|49=MMMAQA|52=20181129-13:32:39.174|56=MA|10=149|8=FIX.4.4|9=53|35=0|34=189|49=MMMAQA|52=20181129-13:34:10.172|56=MA|10=139|8=FIX.4.4|9=53|35=0|34=190|49=MMMAQA|52=20181129-13:35:40.172|56=MA|10=135|8=FIX.4.4|9=53|35=0|34=191|49=MMMAQA|52=20181129-13:37:10.172|56=MA|10=135|8=FIX.4.4|9=53|35=0|34=192|49=MMMAQA|52=20181129-13:38:40.172|56=MA|10=140|8=FIX.4.4|9=53|35=0|34=193|49=MMMAQA|52=20181129-13:40:11.170|56=MA|10=130|8=FIX.4.4|9=53|35=0|34=194|49=MMMAQA|52=20181129-13:41:41.171|56=MA|10=136|8=FIX.4.4|9=53|35=0|34=195|49=MMMAQA|52=20181129-13:43:12.169|56=MA|10=144|8=FIX.4.4|9=53|35=0|34=196|49=MMMAQA|52=20181129-13:44:42.169|56=MA|10=149|8=FIX.4.4|9=53|35=0|34=197|49=MMMAQA|52=20181129-13:46:12.169|56=MA|10=149|8=FIX.4.4|9=53|35=0|34=198|49=MMMAQA|52=20181129-13:47:43.168|56=MA|10=154|8=FIX.4.4|9=53|35=0|34=199|49=MMMAQA|52=20181129-13:49:14.168|56=MA|10=155|8=FIX.4.4|9=53|35=0|34=200|49=MMMAQA|52=20181129-13:50:45.166|56=MA|10=132|8=FIX.4.4|9=53|35=0|34=201|49=MMMAQA|52=20181129-13:52:15.167|56=MA|10=133|8=FIX.4.4|9=53|35=0|34=202|49=MMMAQA|52=20181129-13:53:46.165|56=MA|10=137|8=FIX.4.4|9=53|35=0|34=203|49=MMMAQA|52=20181129-13:55:16.165|56=MA|10=137|8=FIX.4.4|9=53|35=0|34=204|49=MMMAQA|52=20181129-13:56:46.165|56=MA|10=142|8=FIX.4.4|9=53|35=0|34=205|49=MMMAQA|52=20181129-13:58:17.163|56=MA|10=141|8=FIX.4.4|9=53|35=0|34=206|49=MMMAQA|52=20181129-13:59:47.163|56=MA|10=146|8=FIX.4.4|9=53|35=0|34=207|49=MMMAQA|52=20181129-14:01:17.163|56=MA|10=132|8=FIX.4.4|9=53|35=0|34=208|49=MMMAQA|52=20181129-14:02:48.162|56=MA|10=137|8=FIX.4.4|9=53|35=0|34=209|49=MMMAQA|52=20181129-14:04:18.162|56=MA|10=137|8=FIX.4.4|9=53|35=0|34=210|49=MMMAQA|52=20181129-14:05:49.161|56=MA|10=133|8=FIX.4.4|9=53|35=0|34=211|49=MMMAQA|52=20181129-14:07:20.161|56=MA|10=125|8=FIX.4.4|9=53|35=0|34=212|49=MMMAQA|52=20181129-14:08:51.160|56=MA|10=130|8=FIX.4.4|9=53|35=0|34=213|49=MMMAQA|52=20181129-14:10:21.161|56=MA|10=122|8=FIX.4.4|9=53|35=0|34=214|49=MMMAQA|52=20181129-14:11:51.161|56=MA|10=127|8=FIX.4.4|9=53|35=0|34=215|49=MMMAQA|52=20181129-14:13:22.159|56=MA|10=135|8=FIX.4.4|9=53|35=0|34=216|49=MMMAQA|52=20181129-14:14:52.160|56=MA|10=132|8=FIX.4.4|9=53|35=0|34=217|49=MMMAQA|52=20181129-14:16:23.158|56=MA|10=140|8=FIX.4.4|9=53|35=0|34=218|49=MMMAQA|52=20181129-14:17:53.159|56=MA|10=146|8=FIX.4.4|9=53|35=0|34=219|49=MMMAQA|52=20181129-14:19:24.158|56=MA|10=146|8=FIX.4.4|9=53|35=0|34=220|49=MMMAQA|52=20181129-14:20:54.158|56=MA|10=133|8=FIX.4.4|9=53|35=0|34=221|49=MMMAQA|52=20181129-14:22:25.156|56=MA|10=132|8=FIX.4.4|9=53|35=0|34=222|49=MMMAQA|52=20181129-14:23:55.156|56=MA|10=137|8=FIX.4.4|9=53|35=0|34=223|49=MMMAQA|52=20181129-14:25:25.156|56=MA|10=137|8=FIX.4.4|9=53|35=0|34=224|49=MMMAQA|52=20181129-14:26:56.156|56=MA|10=143|8=FIX.4.4|9=53|35=0|34=225|49=MMMAQA|52=20181129-14:28:27.156|56=MA|10=144|8=FIX.4.4|9=53|35=0|34=226|49=MMMAQA|52=20181129-14:29:58.153|56=MA|10=147|8=FIX.4.4|9=53|35=0|34=227|49=MMMAQA|52=20181129-14:31:28.154|56=MA|10=139|8=FIX.4.4|9=53|35=0|34=228|49=MMMAQA|52=20181129-14:32:59.152|56=MA|10=143|8=FIX.4.4|9=53|35=0|34=229|49=MMMAQA|52=20181129-14:34:29.152|56=MA|10=143|8=FIX.4.4|9=53|35=0|34=230|49=MMMAQA|52=20181129-14:35:59.152|56=MA|10=139|8=FIX.4.4|9=53|35=0|34=231|49=MMMAQA|52=20181129-14:37:30.151|56=MA|10=130|8=FIX.4.4|9=53|35=0|34=232|49=MMMAQA|52=20181129-14:39:00.151|56=MA|10=130|8=FIX.4.4|9=53|35=0|34=233|49=MMMAQA|52=20181129-14:40:30.151|56=MA|10=126|8=FIX.4.4|9=53|35=0|34=234|49=MMMAQA|52=20181129-14:42:01.151|56=MA|10=127|8=FIX.4.4|9=53|35=0|34=235|49=MMMAQA|52=20181129-14:43:32.149|56=MA|10=140|8=FIX.4.4|9=53|35=0|34=236|49=MMMAQA|52=20181129-14:45:03.149|56=MA|10=141|8=FIX.4.4|9=53|35=0|34=237|49=MMMAQA|52=20181129-14:46:34.147|56=MA|10=145|8=FIX.4.4|9=53|35=0|34=238|49=MMMAQA|52=20181129-14:48:04.147|56=MA|10=145|8=FIX.4.4|9=53|35=0|34=239|49=MMMAQA|52=20181129-14:49:34.147|56=MA|10=150|8=FIX.4.4|9=53|35=0|34=240|49=MMMAQA|52=20181129-14:51:05.147|56=MA|10=133|8=FIX.4.4|9=53|35=0|34=241|49=MMMAQA|52=20181129-14:52:36.145|56=MA|10=137|8=FIX.4.4|9=53|35=0|34=242|49=MMMAQA|52=20181129-14:54:06.146|56=MA|10=138|8=FIX.4.4|9=53|35=0|34=243|49=MMMAQA|52=20181129-14:55:37.146|56=MA|10=144|8=FIX.4.4|9=53|35=0|34=244|49=MMMAQA|52=20181129-14:57:08.145|56=MA|10=144|8=FIX.4.4|9=53|35=0|34=245|49=MMMAQA|52=20181129-14:58:38.145|56=MA|10=149|8=FIX.4.4|9=53|35=0|34=246|49=MMMAQA|52=20181129-15:00:08.145|56=MA|10=135|8=FIX.4.4|9=53|35=0|34=247|49=MMMAQA|52=20181129-15:01:39.144|56=MA|10=140|8=FIX.4.4|9=53|35=0|34=248|49=MMMAQA|52=20181129-15:03:09.144|56=MA|10=140|8=FIX.4.4|9=53|35=0|34=249|49=MMMAQA|52=20181129-15:04:39.144|56=MA|10=145|8=FIX.4.4|9=53|35=0|34=250|49=MMMAQA|52=20181129-15:06:10.143|56=MA|10=127|8=FIX.4.4|9=53|35=0|34=251|49=MMMAQA|52=20181129-15:07:41.142|56=MA|10=132|8=FIX.4.4|9=53|35=0|34=252|49=MMMAQA|52=20181129-15:09:11.142|56=MA|10=132|8=FIX.4.4|9=53|35=0|34=253|49=MMMAQA|52=20181129-15:10:42.141|56=MA|10=128|8=FIX.4.4|9=53|35=0|34=254|49=MMMAQA|52=20181129-15:12:13.141|56=MA|10=129|8=FIX.4.4|9=53|35=0|34=255|49=MMMAQA|52=20181129-15:13:44.140|56=MA|10=134|8=FIX.4.4|9=53|35=0|34=256|49=MMMAQA|52=20181129-15:15:15.139|56=MA|10=143|8=FIX.4.4|9=53|35=0|34=257|49=MMMAQA|52=20181129-15:16:46.138|56=MA|10=148|8=FIX.4.4|9=53|35=0|34=258|49=MMMAQA|52=20181129-15:18:16.138|56=MA|10=148|8=FIX.4.4|9=53|35=0|34=259|49=MMMAQA|52=20181129-15:19:47.137|56=MA|10=153|8=FIX.4.4|9=53|35=0|34=260|49=MMMAQA|52=20181129-15:21:17.137|56=MA|10=135|8=FIX.4.4|9=53|35=0|34=261|49=MMMAQA|52=20181129-15:22:47.137|56=MA|10=140|8=FIX.4.4|9=53|35=0|34=262|49=MMMAQA|52=20181129-15:24:18.136|56=MA|10=140|8=FIX.4.4|9=53|35=0|34=263|49=MMMAQA|52=20181129-15:25:49.137|56=MA|10=147|8=FIX.4.4|9=53|35=0|34=264|49=MMMAQA|52=20181129-15:27:20.135|56=MA|10=137|8=FIX.4.4|9=53|35=0|34=265|49=MMMAQA|52=20181129-15:28:51.135|56=MA|10=143|8=FIX.4.4|9=53|35=0|34=266|49=MMMAQA|52=20181129-15:30:22.134|56=MA|10=134|8=FIX.4.4|9=53|35=0|34=267|49=MMMAQA|52=20181129-15:31:53.133|56=MA|10=139|8=FIX.4.4|9=53|35=0|34=268|49=MMMAQA|52=20181129-15:33:23.134|56=MA|10=140|8=FIX.4.4|9=53|35=0|34=269|49=MMMAQA|52=20181129-15:34:54.132|56=MA|10=144|8=FIX.4.4|9=53|35=0|34=270|49=MMMAQA|52=20181129-15:36:25.132|56=MA|10=136|8=FIX.4.4|9=53|35=0|34=271|49=MMMAQA|52=20181129-15:37:56.131|56=MA|10=141|8=FIX.4.4|9=53|35=0|34=272|49=MMMAQA|52=20181129-15:39:26.131|56=MA|10=141|8=FIX.4.4|9=53|35=0|34=273|49=MMMAQA|52=20181129-15:40:56.132|56=MA|10=138|8=FIX.4.4|9=53|35=0|34=274|49=MMMAQA|52=20181129-15:42:27.131|56=MA|10=138|8=FIX.4.4|9=53|35=0|34=275|49=MMMAQA|52=20181129-15:43:57.132|56=MA|10=144|8=FIX.4.4|9=53|35=0|34=276|49=MMMAQA|52=20181129-15:45:28.130|56=MA|10=143|8=FIX.4.4|9=53|35=0|34=277|49=MMMAQA|52=20181129-15:46:59.130|56=MA|10=149|8=FIX.4.4|9=53|35=0|34=278|49=MMMAQA|52=20181129-15:48:30.129|56=MA|10=149|8=FIX.4.4|9=53|35=0|34=279|49=MMMAQA|52=20181129-15:50:00.129|56=MA|10=140|8=FIX.4.4|9=53|35=0|34=280|49=MMMAQA|52=20181129-15:51:31.129|56=MA|10=137|8=FIX.4.4|9=53|35=0|34=281|49=MMMAQA|52=20181129-15:53:02.127|56=MA|10=136|8=FIX.4.4|9=53|35=0|34=282|49=MMMAQA|52=20181129-15:54:32.127|56=MA|10=141|8=FIX.4.4|9=53|35=0|34=283|49=MMMAQA|52=20181129-15:56:02.127|56=MA|10=141|8=FIX.4.4|9=53|35=0|34=284|49=MMMAQA|52=20181129-15:57:33.126|56=MA|10=146|8=FIX.4.4|9=53|35=0|34=285|49=MMMAQA|52=20181129-15:59:04.125|56=MA|10=146|8=FIX.4.4|9=53|35=0|34=286|49=MMMAQA|52=20181129-16:00:35.125|56=MA|10=138|8=FIX.4.4|9=53|35=0|34=287|49=MMMAQA|52=20181129-16:02:06.123|56=MA|10=137|8=FIX.4.4|9=53|35=0|34=288|49=MMMAQA|52=20181129-16:03:36.124|56=MA|10=143|8=FIX.4.4|9=53|35=0|34=289|49=MMMAQA|52=20181129-16:05:07.123|56=MA|10=143|8=FIX.4.4|9=53|35=0|34=290|49=MMMAQA|52=20181129-16:06:38.123|56=MA|10=140|8=FIX.4.4|9=53|35=0|34=291|49=MMMAQA|52=20181129-16:08:09.122|56=MA|10=140|8=FIX.4.4|9=53|35=0|34=292|49=MMMAQA|52=20181129-16:09:40.121|56=MA|10=136|8=FIX.4.4|9=53|35=0|34=293|49=MMMAQA|52=20181129-16:11:10.121|56=MA|10=127|8=FIX.4.4|9=53|35=0|34=294|49=MMMAQA|52=20181129-16:12:40.121|56=MA|10=132|8=FIX.4.4|9=53|35=0|34=295|49=MMMAQA|52=20181129-16:14:11.119|56=MA|10=140|8=FIX.4.4|9=53|35=0|34=296|49=MMMAQA|52=20181129-16:15:41.119|56=MA|10=145|8=FIX.4.4|9=53|35=0|34=297|49=MMMAQA|52=20181129-16:17:11.119|56=MA|10=145|8=FIX.4.4|9=53|35=0|34=298|49=MMMAQA|52=20181129-16:18:42.118|56=MA|10=150|8=FIX.4.4|9=53|35=0|34=299|49=MMMAQA|52=20181129-16:20:13.117|56=MA|10=141|8=FIX.4.4|9=53|35=0|34=300|49=MMMAQA|52=20181129-16:21:44.116|56=MA|10=128|8=FIX.4.4|9=53|35=0|34=301|49=MMMAQA|52=20181129-16:23:14.116|56=MA|10=128|8=FIX.4.4|9=53|35=0|34=302|49=MMMAQA|52=20181129-16:24:44.116|56=MA|10=133|8=FIX.4.4|9=53|35=0|34=303|49=MMMAQA|52=20181129-16:26:14.117|56=MA|10=134|8=FIX.4.4|9=53|35=0|34=304|49=MMMAQA|52=20181129-16:27:45.116|56=MA|10=139|8=FIX.4.4|9=53|35=0|34=305|49=MMMAQA|52=20181129-16:29:16.116|56=MA|10=140|8=FIX.4.4|9=53|35=0|34=306|49=MMMAQA|52=20181129-16:30:47.115|56=MA|10=136|8=FIX.4.4|9=53|35=0|34=307|49=MMMAQA|52=20181129-16:32:17.115|56=MA|10=136|8=FIX.4.4|9=53|35=0|34=308|49=MMMAQA|52=20181129-16:33:48.114|56=MA|10=141|8=FIX.4.4|9=53|35=0|34=309|49=MMMAQA|52=20181129-16:35:18.114|56=MA|10=141|8=FIX.4.4|9=53|35=0|34=310|49=MMMAQA|52=20181129-16:36:49.113|56=MA|10=137|8=FIX.4.4|9=53|35=0|34=311|49=MMMAQA|52=20181129-16:38:20.113|56=MA|10=129|8=FIX.4.4|9=53|35=0|34=312|49=MMMAQA|52=20181129-16:39:51.112|56=MA|10=134|8=FIX.4.4|9=53|35=0|34=313|49=MMMAQA|52=20181129-16:41:21.112|56=MA|10=125|8=FIX.4.4|9=53|35=0|34=314|49=MMMAQA|52=20181129-16:42:51.112|56=MA|10=130|8=FIX.4.4|9=53|35=0|34=315|49=MMMAQA|52=20181129-16:44:22.110|56=MA|10=129|8=FIX.4.4|9=53|35=0|34=316|49=MMMAQA|52=20181129-16:45:52.110|56=MA|10=134|8=FIX.4.4|9=53|35=0|34=317|49=MMMAQA|52=20181129-16:47:23.109|56=MA|10=143|8=FIX.4.4|9=53|35=0|34=318|49=MMMAQA|52=20181129-16:48:53.109|56=MA|10=148|8=FIX.4.4|9=53|35=0|34=319|49=MMMAQA|52=20181129-16:50:23.109|56=MA|10=139|8=FIX.4.4|9=53|35=0|34=320|49=MMMAQA|52=20181129-16:51:54.108|56=MA|10=135|8=FIX.4.4|9=53|35=0|34=321|49=MMMAQA|52=20181129-16:53:25.107|56=MA|10=135|8=FIX.4.4|9=53|35=0|34=322|49=MMMAQA|52=20181129-16:54:55.108|56=MA|10=141|8=FIX.4.4|9=53|35=0|34=323|49=MMMAQA|52=20181129-16:56:26.106|56=MA|10=140|8=FIX.4.4|9=53|35=0|34=324|49=MMMAQA|52=20181129-16:57:56.106|56=MA|10=145|8=FIX.4.4|9=53|35=0|34=325|49=MMMAQA|52=20181129-16:59:27.104|56=MA|10=144|8=FIX.4.4|9=53|35=0|34=326|49=MMMAQA|52=20181129-17:00:57.105|56=MA|10=136|8=FIX.4.4|9=53|35=0|34=327|49=MMMAQA|52=20181129-17:02:28.103|56=MA|10=135|8=FIX.4.4|9=53|35=0|34=328|49=MMMAQA|52=20181129-17:03:58.103|56=MA|10=140|8=FIX.4.4|9=53|35=0|34=329|49=MMMAQA|52=20181129-17:05:29.103|56=MA|10=141|8=FIX.4.4|9=53|35=0|34=330|49=MMMAQA|52=20181129-17:07:00.102|56=MA|10=123|8=FIX.4.4|9=53|35=0|34=331|49=MMMAQA|52=20181129-17:08:31.101|56=MA|10=128|8=FIX.4.4|9=53|35=0|34=332|49=MMMAQA|52=20181129-17:10:01.101|56=MA|10=119|8=FIX.4.4|9=53|35=0|34=333|49=MMMAQA|52=20181129-17:11:32.101|56=MA|10=125|8=FIX.4.4|9=53|35=0|34=334|49=MMMAQA|52=20181129-17:13:03.100|56=MA|10=125|8=FIX.4.4|9=53|35=0|34=335|49=MMMAQA|52=20181129-17:14:34.100|56=MA|10=131|8=FIX.4.4|9=53|35=0|34=336|49=MMMAQA|52=20181129-17:16:04.100|56=MA|10=131|8=FIX.4.4|9=53|35=0|34=337|49=MMMAQA|52=20181129-17:17:34.101|56=MA|10=137|8=FIX.4.4|9=53|35=0|34=338|49=MMMAQA|52=20181129-17:19:05.099|56=MA|10=154|8=FIX.4.4|9=53|35=0|34=339|49=MMMAQA|52=20181129-17:20:36.099|56=MA|10=151|8=FIX.4.4|9=53|35=0|34=340|49=MMMAQA|52=20181129-17:22:07.098|56=MA|10=142|8=FIX.4.4|9=53|35=0|34=341|49=MMMAQA|52=20181129-17:23:37.098|56=MA|10=147|8=FIX.4.4|9=53|35=0|34=342|49=MMMAQA|52=20181129-17:25:08.097|56=MA|10=147|8=FIX.4.4|9=53|35=0|34=343|49=MMMAQA|52=20181129-17:26:38.098|56=MA|10=153|8=FIX.4.4|9=53|35=0|34=344|49=MMMAQA|52=20181129-17:28:09.097|56=MA|10=153|8=FIX.4.4|9=53|35=0|34=345|49=MMMAQA|52=20181129-17:29:40.095|56=MA|10=148|8=FIX.4.4|9=53|35=0|34=346|49=MMMAQA|52=20181129-17:31:10.095|56=MA|10=139|8=FIX.4.4|9=53|35=0|34=347|49=MMMAQA|52=20181129-17:32:41.095|56=MA|10=145|8=FIX.4.4|9=53|35=0|34=348|49=MMMAQA|52=20181129-17:34:12.094|56=MA|10=145|8=FIX.4.4|9=53|35=0|34=349|49=MMMAQA|52=20181129-17:35:42.096|56=MA|10=152|8=FIX.4.4|9=53|35=0|34=350|49=MMMAQA|52=20181129-17:37:12.099|56=MA|10=146|8=FIX.4.4|9=53|35=0|34=351|49=MMMAQA|52=20181129-17:38:42.102|56=MA|10=136|8=FIX.4.4|9=53|35=0|34=352|49=MMMAQA|52=20181129-17:40:12.105|56=MA|10=130|8=FIX.4.4|9=53|35=0|34=353|49=MMMAQA|52=20181129-17:41:42.106|56=MA|10=136|8=FIX.4.4|9=53|35=0|34=354|49=MMMAQA|52=20181129-17:43:12.106|56=MA|10=136|8=FIX.4.4|9=53|35=0|34=355|49=MMMAQA|52=20181129-17:44:43.105|56=MA|10=141|8=FIX.4.4|9=53|35=0|34=356|49=MMMAQA|52=20181129-17:46:13.105|56=MA|10=141|8=FIX.4.4|9=53|35=0|34=357|49=MMMAQA|52=20181129-17:47:44.104|56=MA|10=146|8=FIX.4.4|9=53|35=0|34=358|49=MMMAQA|52=20181129-17:49:14.104|56=MA|10=146|8=FIX.4.4|9=53|35=0|34=359|49=MMMAQA|52=20181129-17:50:45.103|56=MA|10=142|8=FIX.4.4|9=53|35=0|34=360|49=MMMAQA|52=20181129-17:52:16.103|56=MA|10=134|8=FIX.4.4|9=53|35=0|34=361|49=MMMAQA|52=20181129-17:53:47.102|56=MA|10=139|8=FIX.4.4|9=53|35=0|34=362|49=MMMAQA|52=20181129-17:55:17.102|56=MA|10=139|8=FIX.4.4|9=53|35=0|34=363|49=MMMAQA|52=20181129-17:56:48.101|56=MA|10=144|8=FIX.4.4|9=53|35=0|34=364|49=MMMAQA|52=20181129-17:58:18.101|56=MA|10=144|8=FIX.4.4|9=53|35=0|34=365|49=MMMAQA|52=20181129-17:59:49.100|56=MA|10=149|8=FIX.4.4|9=53|35=0|34=366|49=MMMAQA|52=20181129-18:01:20.099|56=MA|10=144|8=FIX.4.4|9=53|35=0|34=367|49=MMMAQA|52=20181129-18:02:50.099|56=MA|10=149|8=FIX.4.4|9=53|35=0|34=368|49=MMMAQA|52=20181129-18:04:20.099|56=MA|10=149|8=FIX.4.4|9=53|35=0|34=369|49=MMMAQA|52=20181129-18:05:50.099|56=MA|10=154|8=FIX.4.4|9=53|35=0|34=370|49=MMMAQA|52=20181129-18:07:21.100|56=MA|10=129|8=FIX.4.4|9=53|35=0|34=371|49=MMMAQA|52=20181129-18:08:52.099|56=MA|10=152|8=FIX.4.4|9=53|35=0|34=372|49=MMMAQA|52=20181129-18:10:23.098|56=MA|10=143|8=FIX.4.4|9=53|35=0|34=373|49=MMMAQA|52=20181129-18:11:54.097|56=MA|10=148|8=FIX.4.4|9=53|35=0|34=374|49=MMMAQA|52=20181129-18:13:25.096|56=MA|10=148|8=FIX.4.4|9=53|35=0|34=375|49=MMMAQA|52=20181129-18:14:55.096|56=MA|10=153|8=FIX.4.4|9=53|35=0|34=376|49=MMMAQA|52=20181129-18:16:26.095|56=MA|10=153|8=FIX.4.4|9=53|35=0|34=377|49=MMMAQA|52=20181129-18:17:56.096|56=MA|10=159|8=FIX.4.4|9=53|35=0|34=378|49=MMMAQA|52=20181129-18:19:27.095|56=MA|10=159|8=FIX.4.4|9=53|35=0|34=379|49=MMMAQA|52=20181129-18:20:58.094|56=MA|10=155|8=FIX.4.4|9=53|35=0|34=380|49=MMMAQA|52=20181129-18:22:29.093|56=MA|10=146|8=FIX.4.4|9=53|35=0|34=381|49=MMMAQA|52=20181129-18:24:00.092|56=MA|10=137|8=FIX.4.4|9=53|35=0|34=382|49=MMMAQA|52=20181129-18:25:30.093|56=MA|10=143|8=FIX.4.4|9=53|35=0|34=383|49=MMMAQA|52=20181129-18:27:01.092|56=MA|10=143|8=FIX.4.4|9=53|35=0|34=384|49=MMMAQA|52=20181129-18:28:32.091|56=MA|10=148|8=FIX.4.4|9=53|35=0|34=385|49=MMMAQA|52=20181129-18:30:03.091|56=MA|10=140|8=FIX.4.4|9=53|35=0|34=386|49=MMMAQA|52=20181129-18:31:33.091|56=MA|10=145|8=FIX.4.4|9=53|35=0|34=387|49=MMMAQA|52=20181129-18:33:04.089|56=MA|10=153|8=FIX.4.4|9=53|35=0|34=388|49=MMMAQA|52=20181129-18:34:34.089|56=MA|10=158|8=FIX.4.4|9=53|35=0|34=389|49=MMMAQA|52=20181129-18:36:05.088|56=MA|10=158|8=FIX.4.4|9=53|35=0|34=390|49=MMMAQA|52=20181129-18:37:35.088|56=MA|10=154|8=FIX.4.4|9=53|35=0|34=391|49=MMMAQA|52=20181129-18:39:05.088|56=MA|10=154|8=FIX.4.4|9=53|35=0|34=392|49=MMMAQA|52=20181129-18:40:35.088|56=MA|10=150|8=FIX.4.4|9=53|35=0|34=393|49=MMMAQA|52=20181129-18:42:06.087|56=MA|10=150|8=FIX.4.4|9=53|35=0|34=394|49=MMMAQA|52=20181129-18:43:36.087|56=MA|10=155|8=FIX.4.4|9=53|35=0|34=395|49=MMMAQA|52=20181129-18:45:07.087|56=MA|10=156|8=FIX.4.4|9=53|35=0|34=396|49=MMMAQA|52=20181129-18:46:37.087|56=MA|10=161|8=FIX.4.4|9=53|35=0|34=397|49=MMMAQA|52=20181129-18:48:08.085|56=MA|10=160|8=FIX.4.4|9=53|35=0|34=398|49=MMMAQA|52=20181129-18:49:38.085|56=MA|10=165|8=FIX.4.4|9=53|35=0|34=399|49=MMMAQA|52=20181129-18:51:08.085|56=MA|10=156|8=FIX.4.4|9=53|35=0|34=400|49=MMMAQA|52=20181129-18:52:39.084|56=MA|10=143|8=FIX.4.4|9=53|35=0|34=401|49=MMMAQA|52=20181129-18:54:09.084|56=MA|10=143|8=FIX.4.4|9=53|35=0|34=402|49=MMMAQA|52=20181129-18:55:40.082|56=MA|10=138|8=FIX.4.4|9=53|35=0|34=403|49=MMMAQA|52=20181129-18:57:10.082|56=MA|10=138|8=FIX.4.4|9=53|35=0|34=404|49=MMMAQA|52=20181129-18:58:41.082|56=MA|10=144|8=FIX.4.4|9=53|35=0|34=405|49=MMMAQA|52=20181129-19:00:11.082|56=MA|10=130|8=FIX.4.4|9=53|35=0|34=406|49=MMMAQA|52=20181129-19:01:42.081|56=MA|10=135|8=FIX.4.4|9=53|35=0|34=407|49=MMMAQA|52=20181129-19:03:13.080|56=MA|10=135|8=FIX.4.4|9=53|35=0|34=408|49=MMMAQA|52=20181129-19:04:44.079|56=MA|10=149|8=FIX.4.4|9=53|35=0|34=409|49=MMMAQA|52=20181129-19:06:14.079|56=MA|10=149|8=FIX.4.4|9=53|35=0|34=410|49=MMMAQA|52=20181129-19:07:44.079|56=MA|10=145|8=FIX.4.4|9=53|35=0|34=411|49=MMMAQA|52=20181129-19:09:15.079|56=MA|10=146|8=FIX.4.4|9=53|35=0|34=412|49=MMMAQA|52=20181129-19:10:46.078|56=MA|10=142|8=FIX.4.4|9=53|35=0|34=413|49=MMMAQA|52=20181129-19:12:17.076|56=MA|10=141|8=FIX.4.4|9=53|35=0|34=414|49=MMMAQA|52=20181129-19:13:47.077|56=MA|10=147|8=FIX.4.4|9=53|35=0|34=415|49=MMMAQA|52=20181129-19:15:18.076|56=MA|10=147|8=FIX.4.4|9=53|35=0|34=416|49=MMMAQA|52=20181129-19:16:48.076|56=MA|10=152|8=FIX.4.4|9=53|35=0|34=417|49=MMMAQA|52=20181129-19:18:19.076|56=MA|10=153|8=FIX.4.4|9=53|35=0|34=418|49=MMMAQA|52=20181129-19:19:49.076|56=MA|10=158|8=FIX.4.4|9=53|35=0|34=419|49=MMMAQA|52=20181129-19:21:19.078|56=MA|10=151|8=FIX.4.4|9=53|35=0|34=420|49=MMMAQA|52=20181129-19:22:50.078|56=MA|10=139|8=FIX.4.4|9=53|35=0|34=421|49=MMMAQA|52=20181129-19:24:20.078|56=MA|10=139|8=FIX.4.4|9=53|35=0|34=422|49=MMMAQA|52=20181129-19:25:50.078|56=MA|10=144|8=FIX.4.4|9=53|35=0|34=423|49=MMMAQA|52=20181129-19:27:20.078|56=MA|10=144|8=FIX.4.4|9=53|35=0|34=424|49=MMMAQA|52=20181129-19:28:50.078|56=MA|10=149|8=FIX.4.4|9=53|35=0|34=425|49=MMMAQA|52=20181129-19:30:20.078|56=MA|10=140|8=FIX.4.4|9=53|35=0|34=426|49=MMMAQA|52=20181129-19:31:51.077|56=MA|10=145|8=FIX.4.4|9=53|35=0|34=427|49=MMMAQA|52=20181129-19:33:22.076|56=MA|10=145|8=FIX.4.4|9=53|35=0|34=428|49=MMMAQA|52=20181129-19:34:53.076|56=MA|10=151|8=FIX.4.4|9=53|35=0|34=429|49=MMMAQA|52=20181129-19:36:24.075|56=MA|10=151|8=FIX.4.4|9=53|35=0|34=430|49=MMMAQA|52=20181129-19:37:54.076|56=MA|10=148|8=FIX.4.4|9=53|35=0|34=431|49=MMMAQA|52=20181129-19:39:24.076|56=MA|10=148|8=FIX.4.4|9=53|35=0|34=432|49=MMMAQA|52=20181129-19:40:55.073|56=MA|10=142|8=FIX.4.4|9=53|35=0|34=433|49=MMMAQA|52=20181129-19:42:25.073|56=MA|10=142|8=FIX.4.4|9=53|35=0|34=434|49=MMMAQA|52=20181129-19:43:55.073|56=MA|10=147|8=FIX.4.4|9=53|35=0|34=435|49=MMMAQA|52=20181129-19:45:26.071|56=MA|10=146|8=FIX.4.4|9=53|35=0|34=436|49=MMMAQA|52=20181129-19:46:56.071|56=MA|10=151|8=FIX.4.4|9=53|35=0|34=437|49=MMMAQA|52=20181129-19:48:26.071|56=MA|10=151|8=FIX.4.4|9=53|35=0|34=438|49=MMMAQA|52=20181129-19:49:57.070|56=MA|10=156|8=FIX.4.4|9=53|35=0|34=439|49=MMMAQA|52=20181129-19:51:27.071|56=MA|10=148|8=FIX.4.4|9=53|35=0|34=440|49=MMMAQA|52=20181129-19:52:58.069|56=MA|10=152|8=FIX.4.4|9=53|35=0|34=441|49=MMMAQA|52=20181129-19:54:28.070|56=MA|10=144|8=FIX.4.4|9=53|35=0|34=442|49=MMMAQA|52=20181129-19:55:59.068|56=MA|10=157|8=FIX.4.4|9=53|35=0|34=443|49=MMMAQA|52=20181129-19:57:30.067|56=MA|10=148|8=FIX.4.4|9=53|35=0|34=444|49=MMMAQA|52=20181129-19:59:00.068|56=MA|10=149|8=FIX.4.4|9=53|35=0|34=445|49=MMMAQA|52=20181129-20:00:31.068|56=MA|10=132|8=FIX.4.4|9=53|35=0|34=446|49=MMMAQA|52=20181129-20:02:01.068|56=MA|10=132|8=FIX.4.4|9=53|35=0|34=447|49=MMMAQA|52=20181129-20:03:32.067|56=MA|10=137|8=FIX.4.4|9=53|35=0|34=448|49=MMMAQA|52=20181129-20:05:03.067|56=MA|10=138|8=FIX.4.4|9=53|35=0|34=449|49=MMMAQA|52=20181129-20:06:34.066|56=MA|10=143|8=FIX.4.4|9=53|35=0|34=450|49=MMMAQA|52=20181129-20:08:05.066|56=MA|10=135|8=FIX.4.4|9=53|35=0|34=451|49=MMMAQA|52=20181129-20:09:35.066|56=MA|10=140|8=FIX.4.4|9=53|35=0|34=452|49=MMMAQA|52=20181129-20:11:06.064|56=MA|10=130|8=FIX.4.4|9=53|35=0|34=453|49=MMMAQA|52=20181129-20:12:36.064|56=MA|10=135|8=FIX.4.4|9=53|35=0|34=454|49=MMMAQA|52=20181129-20:14:07.063|56=MA|10=135|8=FIX.4.4|9=53|35=0|34=455|49=MMMAQA|52=20181129-20:15:38.063|56=MA|10=141|8=FIX.4.4|9=53|35=0|34=456|49=MMMAQA|52=20181129-20:17:09.062|56=MA|10=141|8=FIX.4.4|9=53|35=0|34=457|49=MMMAQA|52=20181129-20:18:40.061|56=MA|10=137|8=FIX.4.4|9=53|35=0|34=458|49=MMMAQA|52=20181129-20:20:10.061|56=MA|10=128|8=FIX.4.4|9=53|35=0|34=459|49=MMMAQA|52=20181129-20:21:41.061|56=MA|10=134|8=FIX.4.4|9=53|35=0|34=460|49=MMMAQA|52=20181129-20:23:12.059|56=MA|10=133|8=FIX.4.4|9=53|35=0|34=461|49=MMMAQA|52=20181129-20:24:42.060|56=MA|10=130|8=FIX.4.4|9=53|35=0|34=462|49=MMMAQA|52=20181129-20:26:13.058|56=MA|10=138|8=FIX.4.4|9=53|35=0|34=463|49=MMMAQA|52=20181129-20:27:43.059|56=MA|10=144|8=FIX.4.4|9=53|35=0|34=464|49=MMMAQA|52=20181129-20:29:14.058|56=MA|10=144|8=FIX.4.4|9=53|35=0|34=465|49=MMMAQA|52=20181129-20:30:45.057|56=MA|10=140|8=FIX.4.4|9=53|35=0|34=466|49=MMMAQA|52=20181129-20:32:15.057|56=MA|10=140|8=FIX.4.4|9=53|35=0|34=467|49=MMMAQA|52=20181129-20:33:46.056|56=MA|10=145|8=FIX.4.4|9=53|35=0|34=468|49=MMMAQA|52=20181129-20:35:16.057|56=MA|10=146|8=FIX.4.4|9=53|35=0|34=469|49=MMMAQA|52=20181129-20:36:47.055|56=MA|10=150|8=FIX.4.4|9=53|35=0|34=470|49=MMMAQA|52=20181129-20:38:17.055|56=MA|10=141|8=FIX.4.4|9=53|35=0|34=471|49=MMMAQA|52=20181129-20:39:48.054|56=MA|10=146|8=FIX.4.4|9=53|35=0|34=472|49=MMMAQA|52=20181129-20:41:18.055|56=MA|10=138|8=FIX.4.4|9=53|35=0|34=473|49=MMMAQA|52=20181129-20:42:48.055|56=MA|10=143|8=FIX.4.4|9=53|35=0|34=474|49=MMMAQA|52=20181129-20:44:19.055|56=MA|10=144|8=FIX.4.4|9=53|35=0|34=475|49=MMMAQA|52=20181129-20:45:50.053|56=MA|10=139|8=FIX.4.4|9=53|35=0|34=476|49=MMMAQA|52=20181129-20:47:20.053|56=MA|10=139|8=FIX.4.4|9=53|35=0|34=477|49=MMMAQA|52=20181129-20:48:51.053|56=MA|10=145|8=FIX.4.4|9=53|35=0|34=478|49=MMMAQA|52=20181129-20:50:22.052|56=MA|10=136|8=FIX.4.4|9=53|35=0|34=479|49=MMMAQA|52=20181129-20:51:53.051|56=MA|10=141|8=FIX.4.4|9=53|35=0|34=480|49=MMMAQA|52=20181129-20:53:24.051|56=MA|10=133|8=FIX.4.4|9=53|35=0|34=481|49=MMMAQA|52=20181129-20:54:55.050|56=MA|10=138|8=FIX.4.4|9=53|35=0|34=482|49=MMMAQA|52=20181129-20:56:25.050|56=MA|10=138|8=FIX.4.4|9=53|35=0|34=483|49=MMMAQA|52=20181129-20:57:56.049|56=MA|10=152|8=FIX.4.4|9=53|35=0|34=484|49=MMMAQA|52=20181129-20:59:26.049|56=MA|10=152|8=FIX.4.4|9=53|35=0|34=485|49=MMMAQA|52=20181129-21:00:57.048|56=MA|10=143|8=FIX.4.4|9=53|35=0|34=486|49=MMMAQA|52=20181129-21:02:27.048|56=MA|10=143|8=FIX.4.4|9=53|35=0|34=487|49=MMMAQA|52=20181129-21:03:58.047|56=MA|10=148|8=FIX.4.4|9=53|35=0|34=488|49=MMMAQA|52=20181129-21:05:28.047|56=MA|10=148|8=FIX.4.4|9=53|35=0|34=489|49=MMMAQA|52=20181129-21:06:58.047|56=MA|10=153|8=FIX.4.4|9=53|35=0|34=490|49=MMMAQA|52=20181129-21:08:29.045|56=MA|10=143|8=FIX.4.4|9=53|35=0|34=491|49=MMMAQA|52=20181129-21:10:00.045|56=MA|10=126|8=FIX.4.4|9=53|35=0|34=492|49=MMMAQA|52=20181129-21:11:31.045|56=MA|10=132|8=FIX.4.4|9=53|35=0|34=493|49=MMMAQA|52=20181129-21:13:02.044|56=MA|10=132|8=FIX.4.4|9=53|35=0|34=494|49=MMMAQA|52=20181129-21:14:33.043|56=MA|10=137|8=FIX.4.4|9=53|35=0|34=495|49=MMMAQA|52=20181129-21:16:04.043|56=MA|10=138|8=FIX.4.4|9=53|35=0|34=496|49=MMMAQA|52=20181129-21:17:35.042|56=MA|10=143|8=FIX.4.4|9=53|35=0|34=497|49=MMMAQA|52=20181129-21:19:06.042|56=MA|10=144|8=FIX.4.4|9=53|35=0|34=498|49=MMMAQA|52=20181129-21:20:37.041|56=MA|10=140|8=FIX.4.4|9=53|35=0|34=499|49=MMMAQA|52=20181129-21:22:07.041|56=MA|10=140|8=FIX.4.4|9=53|35=0|34=500|49=MMMAQA|52=20181129-21:23:37.042|56=MA|10=128|8=FIX.4.4|9=53|35=0|34=501|49=MMMAQA|52=20181129-21:25:08.042|56=MA|10=129|8=FIX.4.4|9=53|35=0|34=502|49=MMMAQA|52=20181129-21:26:39.040|56=MA|10=133|8=FIX.4.4|9=53|35=0|34=503|49=MMMAQA|52=20181129-21:28:09.041|56=MA|10=134|8=FIX.4.4|9=53|35=0|34=504|49=MMMAQA|52=20181129-21:29:40.039|56=MA|10=138|8=FIX.4.4|9=53|35=0|34=505|49=MMMAQA|52=20181129-21:31:10.040|56=MA|10=121|8=FIX.4.4|9=53|35=0|34=506|49=MMMAQA|52=20181129-21:32:41.038|56=MA|10=134|8=FIX.4.4|9=53|35=0|34=507|49=MMMAQA|52=20181129-21:34:11.038|56=MA|10=134|8=FIX.4.4|9=53|35=0|34=508|49=MMMAQA|52=20181129-21:35:41.038|56=MA|10=139|8=FIX.4.4|9=53|35=0|34=509|49=MMMAQA|52=20181129-21:37:12.037|56=MA|10=139|8=FIX.4.4|9=53|35=0|34=510|49=MMMAQA|52=20181129-21:38:43.035|56=MA|10=134|8=FIX.4.4|9=53|35=0|34=511|49=MMMAQA|52=20181129-21:40:13.036|56=MA|10=126|8=FIX.4.4|9=53|35=0|34=512|49=MMMAQA|52=20181129-21:41:44.035|56=MA|10=131|8=FIX.4.4|9=53|35=0|34=513|49=MMMAQA|52=20181129-21:43:15.034|56=MA|10=131|8=FIX.4.4|9=53|35=0|34=514|49=MMMAQA|52=20181129-21:44:46.034|56=MA|10=137|8=FIX.4.4|9=53|35=0|34=515|49=MMMAQA|52=20181129-21:46:17.033|56=MA|10=137|8=FIX.4.4|9=53|35=0|34=516|49=MMMAQA|52=20181129-21:47:47.034|56=MA|10=143|8=FIX.4.4|9=53|35=0|34=517|49=MMMAQA|52=20181129-21:49:18.032|56=MA|10=142|8=FIX.4.4|9=53|35=0|34=518|49=MMMAQA|52=20181129-21:50:48.032|56=MA|10=138|8=FIX.4.4|9=53|35=0|34=519|49=MMMAQA|52=20181129-21:52:19.031|56=MA|10=138|8=FIX.4.4|9=53|35=0|34=520|49=MMMAQA|52=20181129-21:53:50.031|56=MA|10=126|8=FIX.4.4|9=53|35=0|34=521|49=MMMAQA|52=20181129-21:55:21.030|56=MA|10=126|8=FIX.4.4|9=53|35=0|34=522|49=MMMAQA|52=20181129-21:56:51.030|56=MA|10=131|8=FIX.4.4|9=53|35=0|34=523|49=MMMAQA|52=20181129-21:58:22.028|56=MA|10=139|8=FIX.4.4|9=53|35=0|34=524|49=MMMAQA|52=20181129-21:59:52.028|56=MA|10=144|8=FIX.4.4|9=53|35=0|34=525|49=MMMAQA|52=20181129-22:01:22.029|56=MA|10=131|8=FIX.4.4|9=53|35=0|34=526|49=MMMAQA|52=20181129-22:02:52.030|56=MA|10=128|8=FIX.4.4|9=53|35=0|34=527|49=MMMAQA|52=20181129-22:04:23.028|56=MA|10=136|8=FIX.4.4|9=53|35=0|34=528|49=MMMAQA|52=20181129-22:05:53.028|56=MA|10=141|8=FIX.4.4|9=53|35=0|34=529|49=MMMAQA|52=20181129-22:07:24.028|56=MA|10=142|8=FIX.4.4|9=53|35=0|34=530|49=MMMAQA|52=20181129-22:08:55.027|56=MA|10=138|8=FIX.4.4|9=53|35=0|34=531|49=MMMAQA|52=20181129-22:10:26.026|56=MA|10=129|8=FIX.4.4|9=53|35=0|34=532|49=MMMAQA|52=20181129-22:11:56.026|56=MA|10=134|8=FIX.4.4|9=53|35=0|34=533|49=MMMAQA|52=20181129-22:13:27.025|56=MA|10=134|8=FIX.4.4|9=53|35=0|34=534|49=MMMAQA|52=20181129-22:14:57.025|56=MA|10=139|8=FIX.4.4|9=53|35=0|34=535|49=MMMAQA|52=20181129-22:16:28.024|56=MA|10=139|8=FIX.4.4|9=53|35=0|34=536|49=MMMAQA|52=20181129-22:17:58.024|56=MA|10=144|8=FIX.4.4|9=53|35=0|34=537|49=MMMAQA|52=20181129-22:19:29.022|56=MA|10=143|8=FIX.4.4|9=53|35=0|34=538|49=MMMAQA|52=20181129-22:20:59.022|56=MA|10=139|8=FIX.4.4|9=53|35=0|34=539|49=MMMAQA|52=20181129-22:22:29.022|56=MA|10=139|8=FIX.4.4|9=53|35=0|34=540|49=MMMAQA|52=20181129-22:23:59.022|56=MA|10=135|8=FIX.4.4|9=53|35=0|34=541|49=MMMAQA|52=20181129-22:25:30.020|56=MA|10=125|8=FIX.4.4|9=53|35=0|34=542|49=MMMAQA|52=20181129-22:27:00.021|56=MA|10=126|8=FIX.4.4|9=53|35=0|34=543|49=MMMAQA|52=20181129-22:28:31.019|56=MA|10=139|8=FIX.4.4|9=53|35=0|34=544|49=MMMAQA|52=20181129-22:30:01.020|56=MA|10=122|8=FIX.4.4|9=53|35=0|34=545|49=MMMAQA|52=20181129-22:31:32.018|56=MA|10=135|8=FIX.4.4|9=53|35=0|34=546|49=MMMAQA|52=20181129-22:33:02.018|56=MA|10=135|8=FIX.4.4|9=53|35=0|34=547|49=MMMAQA|52=20181129-22:34:32.018|56=MA|10=140|8=FIX.4.4|9=53|35=0|34=548|49=MMMAQA|52=20181129-22:36:03.016|56=MA|10=139|8=FIX.4.4|9=53|35=0|34=549|49=MMMAQA|52=20181129-22:37:33.016|56=MA|10=144|8=FIX.4.4|9=53|35=0|34=550|49=MMMAQA|52=20181129-22:39:03.017|56=MA|10=136|8=FIX.4.4|9=53|35=0|34=551|49=MMMAQA|52=20181129-22:40:34.016|56=MA|10=132|8=FIX.4.4|9=53|35=0|34=552|49=MMMAQA|52=20181129-22:42:04.016|56=MA|10=132|8=FIX.4.4|9=53|35=0|34=553|49=MMMAQA|52=20181129-22:43:34.016|56=MA|10=137|8=FIX.4.4|9=53|35=0|34=554|49=MMMAQA|52=20181129-22:45:05.016|56=MA|10=138|8=FIX.4.4|9=53|35=0|34=555|49=MMMAQA|52=20181129-22:46:36.014|56=MA|10=142|8=FIX.4.4|9=53|35=0|34=556|49=MMMAQA|52=20181129-22:48:06.015|56=MA|10=143|8=FIX.4.4|9=53|35=0|34=557|49=MMMAQA|52=20181129-22:49:37.014|56=MA|10=148|8=FIX.4.4|9=53|35=0|34=558|49=MMMAQA|52=20181129-22:51:08.013|56=MA|10=139|8=FIX.4.4|9=53|35=0|34=559|49=MMMAQA|52=20181129-22:52:39.013|56=MA|10=145|8=FIX.4.4|9=53|35=0|34=560|49=MMMAQA|52=20181129-22:54:10.011|56=MA|10=126|8=FIX.4.4|9=53|35=0|34=561|49=MMMAQA|52=20181129-22:55:40.011|56=MA|10=131|8=FIX.4.4|9=53|35=0|34=562|49=MMMAQA|52=20181129-22:57:10.011|56=MA|10=131|8=FIX.4.4|9=53|35=0|34=563|49=MMMAQA|52=20181129-22:58:41.010|56=MA|10=136|8=FIX.4.4|9=53|35=0|34=564|49=MMMAQA|52=20181129-23:00:12.010|56=MA|10=123|8=FIX.4.4|9=53|35=0|34=565|49=MMMAQA|52=20181129-23:01:42.012|56=MA|10=130|8=FIX.4.4|9=53|35=0|34=566|49=MMMAQA|52=20181129-23:03:12.013|56=MA|10=131|8=FIX.4.4|9=53|35=0|34=567|49=MMMAQA|52=20181129-23:04:43.010|56=MA|10=134|8=FIX.4.4|9=53|35=5|34=568|49=MMMAQA|52=20181129-23:05:02.181|56=MA|10=145|8=FIX.4.4|9=82|35=A|34=569|49=MMMAQA|52=20190122-08:34:12.928|56=MA|98=0|108=90|95=8|96=3.0.0rc5|10=081|8=FIX.4.4|9=104|35=5|34=570|49=MMMAQA|52=20190122-08:34:13.555|56=MA|58=MsgSeqNum too low, expecting 573 but received 1|10=192|8=FIX.4.4|9=82|35=A|34=571|49=MMMAQA|52=20190122-17:12:27.358|56=MA|98=0|108=90|95=8|96=3.0.0rc5|10=073|8=FIX.4.4|9=104|35=5|34=572|49=MMMAQA|52=20190122-17:12:27.967|56=MA|58=MsgSeqNum too low, expecting 573 but received 3|10=204|8=FIX.4.4|9=80|35=A|34=1|49=MMMAQA|52=20190122-17:12:32.385|56=MA|98=0|108=90|95=8|96=3.0.0rc5|10=215|8=FIX.4.4|9=51|35=5|34=2|49=MMMAQA|52=20190122-17:12:32.479|56=MA|10=037|8=FIX.4.4|9=80|35=A|34=3|49=MMMAQA|52=20190122-17:12:38.359|56=MA|98=0|108=90|95=8|96=3.0.0rc5|10=224|8=FIX.4.4|9=60|35=2|34=4|49=MMMAQA|52=20190122-17:12:38.953|56=MA|7=2|16=0|10=163|8=FIX.4.4|9=597|35=E|34=5|49=MMMAQA|52=20190122-17:12:45.289|56=MA|66=MMAD-FIX44-ListID-071218-1|394=2|68=5|73=5|11=FIX44-List-ClOrdID-2|22=4|38=100000|48=XS0542534192|54=1|55=[N/A/]|67=1|423=1|453=1|448=MMMAQA|447=C|452=11|11=FIX44-List-ClOrdID-3|22=4|38=120000|48=FR0013241536|54=1|55=[N/A]|67=2|11=FIX44-List-ClOrdID-4|22=4|38=130000|48=DE000HLB4D56|54=1|55=[N/A/]|67=1|453=1|448=MMMAQA|447=C|452=11|11=FIX44-List-ClOrdID-5|22=4|38=250000|48=XS0987936076|54=1|55=[N/A/]|67=1|453=1|448=MMMAQA|447=C|452=11|11=FIX44-List-ClOrdID-6|22=4|38=350000|48=XS0401048102|54=1|55=[N/A/]|67=1|453=1|448=MMMAQA|447=C|452=11|10=177|8=FIX.4.4|9=51|35=0|34=6|49=MMMAQA|52=20190122-17:14:15.352|56=MA|10=029|8=FIX.4.4|9=51|35=0|34=7|49=MMMAQA|52=20190122-17:15:45.365|56=MA|10=038|8=FIX.4.4|9=51|35=0|34=8|49=MMMAQA|52=20190122-17:17:16.358|56=MA|10=041|8=FIX.4.4|9=51|35=0|34=9|49=MMMAQA|52=20190122-17:18:47.351|56=MA|10=040|8=FIX.4.4|9=52|35=0|34=10|49=MMMAQA|52=20190122-17:20:17.351|56=MA|10=071|8=FIX.4.4|9=52|35=0|34=11|49=MMMAQA|52=20190122-17:21:47.356|56=MA|10=081|8=FIX.4.4|9=52|35=0|34=12|49=MMMAQA|52=20190122-17:23:17.361|56=MA|10=077|8=FIX.4.4|9=177|35=D|34=13|49=MMMAQA|52=20190122-17:24:43.081|56=MA|11=MMAD071218-7|453=1|448=MMMAQA|447=C|452=11|55=NA|48=XS0042821321|22=4|54=2|60=20190122-17:24:43.081|38=1000000|40=1|423=1|10=198|8=FIX.4.4|9=177|35=D|34=14|49=MMMAQA|52=20190122-17:24:43.128|56=MA|11=MMAD071218-8|453=1|448=MMMAQA|447=C|452=11|55=NA|48=XS0042821321|22=4|54=2|60=20190122-17:24:43.128|38=1000000|40=1|423=1|10=204|8=FIX.4.4|9=52|35=0|34=15|49=MMMAQA|52=20190122-17:26:13.356|56=MA|10=083|8=FIX.4.4|9=70|35=5|34=16|49=MMMAQA|52=20190122-17:27:43.518|56=MA|58=user requested|10=185|8=FIX.4.4|9=86|35=A|34=1|49=MMMAQA|52=20200617-16:02:22.655|56=MA|98=0|108=90|95=8|96=3.0.0rc5|141=Y|10=008|8=FIX.4.4|9=51|35=0|34=2|49=MMMAQA|52=20200617-16:03:53.516|56=MA|10=027|8=FIX.4.4|9=51|35=5|34=3|49=MMMAQA|52=20200617-16:05:09.516|56=MA|10=036|8=FIX.4.4|9=86|35=A|34=1|49=MMMAQA|52=20200901-15:58:20.668|56=MA|98=0|108=90|95=8|96=3.0.0rc5|141=Y|10=016|8=FIX.4.4|9=86|35=A|34=1|49=MMMAQA|52=20200901-15:58:36.658|56=MA|98=0|108=90|95=8|96=3.0.0rc5|141=Y|10=022|8=FIX.4.4|9=86|35=A|34=1|49=MMMAQA|52=20200901-15:59:47.659|56=MA|98=0|108=90|95=8|96=3.0.0rc5|141=Y|10=026|8=FIX.4.4|9=80|35=A|34=1|49=MMMAQA|52=20200901-15:59:55.658|56=MA|98=0|108=90|95=8|96=3.0.0rc5|10=229|8=FIX.4.4|9=86|35=A|34=1|49=MMMAQA|52=20200901-16:00:00.658|56=MA|98=0|108=90|95=8|96=3.0.0rc5|141=Y|10=001|8=FIX.4.4|9=86|35=A|34=1|49=MMMAQA|52=20200902-07:40:11.033|56=MA|98=0|108=90|95=8|96=3.0.0rc5|141=Y|10=251|8=FIX.4.4|9=615|35=E|34=2|49=MMMAQA|52=20200902-07:40:31.154|56=MA|66=MMAD-FIX44-ListID-071218-1177|394=2|68=5|73=5|11=FIX44-List-ClOrdID-1178|22=4|38=100000|48=XS0542534192|54=1|55=[N/A/]|67=1|423=1|453=1|448=MMMAQA|447=C|452=11|11=FIX44-List-ClOrdID-1179|22=4|38=120000|48=FR0013241536|54=1|55=[N/A]|67=2|11=FIX44-List-ClOrdID-1180|22=4|38=130000|48=DE000HLB4D56|54=1|55=[N/A/]|67=1|453=1|448=MMMAQA|447=C|452=11|11=FIX44-List-ClOrdID-1181|22=4|38=250000|48=XS0987936076|54=1|55=[N/A/]|67=1|453=1|448=MMMAQA|447=C|452=11|11=FIX44-List-ClOrdID-1182|22=4|38=350000|48=XS0401048102|54=1|55=[N/A/]|67=1|453=1|448=MMMAQA|447=C|452=11|10=052|8=FIX.4.4|9=51|35=0|34=3|49=MMMAQA|52=20200902-07:42:02.026|56=MA|10=018|8=FIX.4.4|9=51|35=0|34=4|49=MMMAQA|52=20200902-07:43:32.028|56=MA|10=025|8=FIX.4.4|9=51|35=0|34=5|49=MMMAQA|52=20200902-07:45:03.027|56=MA|10=025|8=FIX.4.4|9=51|35=0|34=6|49=MMMAQA|52=20200902-07:46:33.027|56=MA|10=030|8=FIX.4.4|9=51|35=0|34=7|49=MMMAQA|52=20200902-07:48:03.343|56=MA|10=031|8=FIX.4.4|9=51|35=0|34=8|49=MMMAQA|52=20200902-07:49:34.027|56=MA|10=036|8=FIX.4.4|9=51|35=0|34=9|49=MMMAQA|52=20200902-07:51:04.027|56=MA|10=027|8=FIX.4.4|9=52|35=0|34=10|49=MMMAQA|52=20200902-07:52:34.027|56=MA|10=072|8=FIX.4.4|9=52|35=0|34=11|49=MMMAQA|52=20200902-07:54:04.028|56=MA|10=073|8=FIX.4.4|9=52|35=0|34=12|49=MMMAQA|52=20200902-07:55:34.031|56=MA|10=072|8=FIX.4.4|9=52|35=0|34=13|49=MMMAQA|52=20200902-07:57:04.034|56=MA|10=075|8=FIX.4.4|9=52|35=0|34=14|49=MMMAQA|52=20200902-07:58:34.036|56=MA|10=082|8=FIX.4.4|9=52|35=0|34=15|49=MMMAQA|52=20200902-08:00:04.037|56=MA|10=069|8=FIX.4.4|9=52|35=0|34=16|49=MMMAQA|52=20200902-08:01:35.036|56=MA|10=074|8=FIX.4.4|9=52|35=0|34=17|49=MMMAQA|52=20200902-08:03:05.037|56=MA|10=075|8=FIX.4.4|9=52|35=0|34=18|49=MMMAQA|52=20200902-08:04:36.037|56=MA|10=081|8=FIX.4.4|9=52|35=0|34=19|49=MMMAQA|52=20200902-08:06:07.036|56=MA|10=081|8=FIX.4.4|9=52|35=0|34=20|49=MMMAQA|52=20200902-08:07:37.036|56=MA|10=077|8=FIX.4.4|9=52|35=0|34=21|49=MMMAQA|52=20200902-08:09:07.037|56=MA|10=078|8=FIX.4.4|9=52|35=0|34=22|49=MMMAQA|52=20200902-08:10:37.037|56=MA|10=074|8=FIX.4.4|9=52|35=0|34=23|49=MMMAQA|52=20200902-08:12:07.040|56=MA|10=068|8=FIX.4.4|9=52|35=0|34=24|49=MMMAQA|52=20200902-08:13:37.044|56=MA|10=077|8=FIX.4.4|9=52|35=0|34=25|49=MMMAQA|52=20200902-08:15:07.049|56=MA|10=082|8=FIX.4.4|9=52|35=0|34=26|49=MMMAQA|52=20200902-08:16:37.051|56=MA|10=080|8=FIX.4.4|9=52|35=0|34=27|49=MMMAQA|52=20200902-08:18:07.052|56=MA|10=081|8=FIX.4.4|9=52|35=0|34=28|49=MMMAQA|52=20200902-08:19:38.050|56=MA|10=085|8=FIX.4.4|9=52|35=0|34=29|49=MMMAQA|52=20200902-08:21:08.051|56=MA|10=077|8=FIX.4.4|9=52|35=0|34=30|49=MMMAQA|52=20200902-08:22:38.052|56=MA|10=074|8=FIX.4.4|9=52|35=0|34=31|49=MMMAQA|52=20200902-08:24:09.051|56=MA|10=074|8=FIX.4.4|9=52|35=0|34=32|49=MMMAQA|52=20200902-08:25:39.051|56=MA|10=079|8=FIX.4.4|9=52|35=0|34=33|49=MMMAQA|52=20200902-08:27:10.050|56=MA|10=070|8=FIX.4.4|9=52|35=0|34=34|49=MMMAQA|52=20200902-08:28:40.052|56=MA|10=077|8=FIX.4.4|9=52|35=0|34=35|49=MMMAQA|52=20200902-08:30:10.054|56=MA|10=070|8=FIX.4.4|9=52|35=0|34=36|49=MMMAQA|52=20200902-08:31:40.057|56=MA|10=078|8=FIX.4.4|9=52|35=0|34=37|49=MMMAQA|52=20200902-08:33:10.058|56=MA|10=079|8=FIX.4.4|9=52|35=0|34=38|49=MMMAQA|52=20200902-08:34:41.057|56=MA|10=084|8=FIX.4.4|9=52|35=0|34=39|49=MMMAQA|52=20200902-08:36:11.058|56=MA|10=085|8=FIX.4.4|9=52|35=0|34=40|49=MMMAQA|52=20200902-08:37:41.060|56=MA|10=074|8=FIX.4.4|9=52|35=0|34=41|49=MMMAQA|52=20200902-08:39:11.060|56=MA|10=074|8=FIX.4.4|9=52|35=0|34=42|49=MMMAQA|52=20200902-08:40:42.060|56=MA|10=071|8=FIX.4.4|9=52|35=0|34=43|49=MMMAQA|52=20200902-08:42:12.061|56=MA|10=072|8=FIX.4.4|9=52|35=0|34=44|49=MMMAQA|52=20200902-08:43:42.062|56=MA|10=078|8=FIX.4.4|9=52|35=0|34=45|49=MMMAQA|52=20200902-08:45:13.060|56=MA|10=077|8=FIX.4.4|9=52|35=0|34=46|49=MMMAQA|52=20200902-08:46:43.062|56=MA|10=084|8=FIX.4.4|9=52|35=0|34=47|49=MMMAQA|52=20200902-08:48:14.061|56=MA|10=084|8=FIX.4.4|9=52|35=0|34=48|49=MMMAQA|52=20200902-08:49:44.062|56=MA|10=090|8=FIX.4.4|9=52|35=0|34=49|49=MMMAQA|52=20200902-08:51:14.062|56=MA|10=081|8=FIX.4.4|9=52|35=0|34=50|49=MMMAQA|52=20200902-08:52:44.063|56=MA|10=078|8=FIX.4.4|9=52|35=0|34=51|49=MMMAQA|52=20200902-08:54:14.064|56=MA|10=079|8=FIX.4.4|9=52|35=0|34=52|49=MMMAQA|52=20200902-08:55:44.064|56=MA|10=084|8=FIX.4.4|9=52|35=0|34=53|49=MMMAQA|52=20200902-08:57:14.065|56=MA|10=085|8=FIX.4.4|9=52|35=0|34=54|49=MMMAQA|52=20200902-08:58:44.065|56=MA|10=090|8=FIX.4.4|9=52|35=0|34=55|49=MMMAQA|52=20200902-09:00:15.064|56=MA|10=076|8=FIX.4.4|9=52|35=0|34=56|49=MMMAQA|52=20200902-09:01:45.064|56=MA|10=081|8=FIX.4.4|9=52|35=0|34=57|49=MMMAQA|52=20200902-09:03:15.065|56=MA|10=082|8=FIX.4.4|9=52|35=0|34=58|49=MMMAQA|52=20200902-09:04:45.066|56=MA|10=088|8=FIX.4.4|9=52|35=0|34=59|49=MMMAQA|52=20200902-09:06:15.067|56=MA|10=089|8=FIX.4.4|9=52|35=0|34=60|49=MMMAQA|52=20200902-09:07:45.068|56=MA|10=086|8=FIX.4.4|9=52|35=0|34=61|49=MMMAQA|52=20200902-09:09:15.068|56=MA|10=086|8=FIX.4.4|9=52|35=0|34=62|49=MMMAQA|52=20200902-09:10:45.068|56=MA|10=082|8=FIX.4.4|9=52|35=0|34=63|49=MMMAQA|52=20200902-09:12:15.068|56=MA|10=082|8=FIX.4.4|9=52|35=0|34=64|49=MMMAQA|52=20200902-09:13:45.069|56=MA|10=088|8=FIX.4.4|9=52|35=0|34=65|49=MMMAQA|52=20200902-09:15:15.070|56=MA|10=080|8=FIX.4.4|9=52|35=0|34=66|49=MMMAQA|52=20200902-09:16:45.070|56=MA|10=085|8=FIX.4.4|9=52|35=0|34=67|49=MMMAQA|52=20200902-09:18:15.070|56=MA|10=085|8=FIX.4.4|9=52|35=0|34=68|49=MMMAQA|52=20200902-09:19:45.070|56=MA|10=090|8=FIX.4.4|9=52|35=0|34=69|49=MMMAQA|52=20200902-09:21:15.072|56=MA|10=083|8=FIX.4.4|9=52|35=0|34=70|49=MMMAQA|52=20200902-09:22:45.073|56=MA|10=080|8=FIX.4.4|9=52|35=0|34=71|49=MMMAQA|52=20200902-09:24:15.074|56=MA|10=081|8=FIX.4.4|9=52|35=0|34=72|49=MMMAQA|52=20200902-09:25:45.075|56=MA|10=087|8=FIX.4.4|9=52|35=0|34=73|49=MMMAQA|52=20200902-09:27:15.077|56=MA|10=089|8=FIX.4.4|9=52|35=0|34=74|49=MMMAQA|52=20200902-09:28:45.077|56=MA|10=094|8=FIX.4.4|9=52|35=0|34=75|49=MMMAQA|52=20200902-09:30:15.077|56=MA|10=085|8=FIX.4.4|9=52|35=0|34=76|49=MMMAQA|52=20200902-09:31:45.077|56=MA|10=090|8=FIX.4.4|9=52|35=0|34=77|49=MMMAQA|52=20200902-09:33:15.077|56=MA|10=090|8=FIX.4.4|9=52|35=0|34=78|49=MMMAQA|52=20200902-09:34:45.078|56=MA|10=096|8=FIX.4.4|9=52|35=0|34=79|49=MMMAQA|52=20200902-09:36:15.079|56=MA|10=097|8=FIX.4.4|9=52|35=0|34=80|49=MMMAQA|52=20200902-09:37:45.082|56=MA|10=087|8=FIX.4.4|9=52|35=0|34=81|49=MMMAQA|52=20200902-09:39:15.085|56=MA|10=090|8=FIX.4.4|9=52|35=0|34=82|49=MMMAQA|52=20200902-09:40:45.088|56=MA|10=089|8=FIX.4.4|9=52|35=0|34=83|49=MMMAQA|52=20200902-09:42:15.089|56=MA|10=090|8=FIX.4.4|9=52|35=0|34=84|49=MMMAQA|52=20200902-09:43:45.090|56=MA|10=087|8=FIX.4.4|9=52|35=0|34=85|49=MMMAQA|52=20200902-09:45:15.091|56=MA|10=088|8=FIX.4.4|9=52|35=0|34=86|49=MMMAQA|52=20200902-09:46:45.092|56=MA|10=094|8=FIX.4.4|9=52|35=0|34=87|49=MMMAQA|52=20200902-09:48:15.093|56=MA|10=095|8=FIX.4.4|9=52|35=0|34=88|49=MMMAQA|52=20200902-09:49:45.094|56=MA|10=101|8=FIX.4.4|9=52|35=0|34=89|49=MMMAQA|52=20200902-09:51:15.094|56=MA|10=092|8=FIX.4.4|9=52|35=0|34=90|49=MMMAQA|52=20200902-09:52:45.094|56=MA|10=088|8=FIX.4.4|9=52|35=0|34=91|49=MMMAQA|52=20200902-09:54:15.095|56=MA|10=089|8=FIX.4.4|9=52|35=0|34=92|49=MMMAQA|52=20200902-09:55:45.096|56=MA|10=095|8=FIX.4.4|9=52|35=0|34=93|49=MMMAQA|52=20200902-09:57:15.098|56=MA|10=097|8=FIX.4.4|9=52|35=0|34=94|49=MMMAQA|52=20200902-09:58:45.098|56=MA|10=102|8=FIX.4.4|9=52|35=0|34=95|49=MMMAQA|52=20200902-10:00:15.100|56=MA|10=063|8=FIX.4.4|9=52|35=0|34=96|49=MMMAQA|52=20200902-10:01:46.099|56=MA|10=086|8=FIX.4.4|9=52|35=0|34=97|49=MMMAQA|52=20200902-10:03:16.101|56=MA|10=070|8=FIX.4.4|9=52|35=0|34=98|49=MMMAQA|52=20200902-10:04:47.099|56=MA|10=092|8=FIX.4.4|9=52|35=0|34=99|49=MMMAQA|52=20200902-10:06:17.100|56=MA|10=075|8=FIX.4.4|9=53|35=0|34=100|49=MMMAQA|52=20200902-10:07:47.101|56=MA|10=112|8=FIX.4.4|9=53|35=0|34=101|49=MMMAQA|52=20200902-10:09:17.101|56=MA|10=112|8=FIX.4.4|9=53|35=0|34=102|49=MMMAQA|52=20200902-10:10:47.103|56=MA|10=110|8=FIX.4.4|9=53|35=0|34=103|49=MMMAQA|52=20200902-10:12:17.103|56=MA|10=110|8=FIX.4.4|9=53|35=0|34=104|49=MMMAQA|52=20200902-10:13:47.105|56=MA|10=117|8=FIX.4.4|9=53|35=0|34=105|49=MMMAQA|52=20200902-10:15:17.108|56=MA|10=120|8=FIX.4.4|9=53|35=0|34=106|49=MMMAQA|52=20200902-10:16:47.109|56=MA|10=126|8=FIX.4.4|9=53|35=0|34=107|49=MMMAQA|52=20200902-10:18:17.109|56=MA|10=126|8=FIX.4.4|9=53|35=0|34=108|49=MMMAQA|52=20200902-10:19:47.110|56=MA|10=123|8=FIX.4.4|9=53|35=0|34=109|49=MMMAQA|52=20200902-10:21:17.110|56=MA|10=114|8=FIX.4.4|9=53|35=0|34=110|49=MMMAQA|52=20200902-10:22:47.110|56=MA|10=110|8=FIX.4.4|9=53|35=0|34=111|49=MMMAQA|52=20200902-10:24:17.111|56=MA|10=111|8=FIX.4.4|9=53|35=0|34=112|49=MMMAQA|52=20200902-10:25:47.112|56=MA|10=117|8=FIX.4.4|9=53|35=0|34=113|49=MMMAQA|52=20200902-10:27:17.112|56=MA|10=117|8=FIX.4.4|9=53|35=0|34=114|49=MMMAQA|52=20200902-10:28:47.112|56=MA|10=122|8=FIX.4.4|9=53|35=0|34=115|49=MMMAQA|52=20200902-10:30:18.112|56=MA|10=114|8=FIX.4.4|9=53|35=0|34=116|49=MMMAQA|52=20200902-10:31:48.113|56=MA|10=120|8=FIX.4.4|9=53|35=0|34=117|49=MMMAQA|52=20200902-10:33:19.112|56=MA|10=120|8=FIX.4.4|9=53|35=0|34=118|49=MMMAQA|52=20200902-10:34:49.113|56=MA|10=126|8=FIX.4.4|9=53|35=0|34=119|49=MMMAQA|52=20200902-10:36:19.113|56=MA|10=126|8=FIX.4.4|9=53|35=0|34=120|49=MMMAQA|52=20200902-10:37:50.112|56=MA|10=113|8=FIX.4.4|9=53|35=0|34=121|49=MMMAQA|52=20200902-10:39:20.113|56=MA|10=114|8=FIX.4.4|9=53|35=0|34=122|49=MMMAQA|52=20200902-10:40:50.114|56=MA|10=111|8=FIX.4.4|9=53|35=0|34=123|49=MMMAQA|52=20200902-10:42:20.114|56=MA|10=111|8=FIX.4.4|9=53|35=0|34=124|49=MMMAQA|52=20200902-10:43:50.114|56=MA|10=116|8=FIX.4.4|9=53|35=0|34=125|49=MMMAQA|52=20200902-10:45:20.115|56=MA|10=117|8=FIX.4.4|9=53|35=0|34=126|49=MMMAQA|52=20200902-10:46:50.117|56=MA|10=124|8=FIX.4.4|9=53|35=0|34=127|49=MMMAQA|52=20200902-10:48:20.120|56=MA|10=118|8=FIX.4.4|9=53|35=0|34=128|49=MMMAQA|52=20200902-10:49:50.123|56=MA|10=126|8=FIX.4.4|9=53|35=0|34=129|49=MMMAQA|52=20200902-10:51:20.124|56=MA|10=118|8=FIX.4.4|9=53|35=0|34=130|49=MMMAQA|52=20200902-10:52:50.126|56=MA|10=116|8=FIX.4.4|9=53|35=0|34=131|49=MMMAQA|52=20200902-10:54:20.127|56=MA|10=117|8=FIX.4.4|9=53|35=0|34=132|49=MMMAQA|52=20200902-10:55:50.129|56=MA|10=124|8=FIX.4.4|9=53|35=0|34=133|49=MMMAQA|52=20200902-10:57:20.129|56=MA|10=124|8=FIX.4.4|9=53|35=0|34=134|49=MMMAQA|52=20200902-10:58:50.131|56=MA|10=122|8=FIX.4.4|9=53|35=0|34=135|49=MMMAQA|52=20200902-11:00:20.133|56=MA|10=110|8=FIX.4.4|9=53|35=0|34=136|49=MMMAQA|52=20200902-11:01:50.134|56=MA|10=116|8=FIX.4.4|9=53|35=0|34=137|49=MMMAQA|52=20200902-11:03:20.134|56=MA|10=116|8=FIX.4.4|9=53|35=0|34=138|49=MMMAQA|52=20200902-11:04:50.134|56=MA|10=121|8=FIX.4.4|9=53|35=0|34=139|49=MMMAQA|52=20200902-11:06:20.136|56=MA|10=123|8=FIX.4.4|9=53|35=0|34=140|49=MMMAQA|52=20200902-11:07:50.136|56=MA|10=119|8=FIX.4.4|9=53|35=0|34=141|49=MMMAQA|52=20200902-11:09:20.137|56=MA|10=120|8=FIX.4.4|9=53|35=0|34=142|49=MMMAQA|52=20200902-11:10:50.138|56=MA|10=117|8=FIX.4.4|9=53|35=0|34=143|49=MMMAQA|52=20200902-11:12:20.138|56=MA|10=117|8=FIX.4.4|9=53|35=0|34=144|49=MMMAQA|52=20200902-11:13:50.139|56=MA|10=123|8=FIX.4.4|9=53|35=0|34=145|49=MMMAQA|52=20200902-11:15:20.140|56=MA|10=115|8=FIX.4.4|9=53|35=0|34=146|49=MMMAQA|52=20200902-11:16:51.139|56=MA|10=129|8=FIX.4.4|9=53|35=0|34=147|49=MMMAQA|52=20200902-11:18:21.139|56=MA|10=129|8=FIX.4.4|9=53|35=0|34=148|49=MMMAQA|52=20200902-11:19:51.143|56=MA|10=129|8=FIX.4.4|9=53|35=0|34=149|49=MMMAQA|52=20200902-11:21:21.143|56=MA|10=120|8=FIX.4.4|9=53|35=0|34=150|49=MMMAQA|52=20200902-11:22:51.145|56=MA|10=118|8=FIX.4.4|9=53|35=0|34=151|49=MMMAQA|52=20200902-11:24:21.146|56=MA|10=119|8=FIX.4.4|9=53|35=0|34=152|49=MMMAQA|52=20200902-11:25:51.149|56=MA|10=127|8=FIX.4.4|9=53|35=0|34=153|49=MMMAQA|52=20200902-11:27:21.150|56=MA|10=119|8=FIX.4.4|9=53|35=0|34=154|49=MMMAQA|52=20200902-11:28:51.151|56=MA|10=125|8=FIX.4.4|9=53|35=0|34=155|49=MMMAQA|52=20200902-11:30:21.151|56=MA|10=116|8=FIX.4.4|9=53|35=0|34=156|49=MMMAQA|52=20200902-11:31:51.152|56=MA|10=122|8=FIX.4.4|9=53|35=0|34=157|49=MMMAQA|52=20200902-11:33:21.154|56=MA|10=124|8=FIX.4.4|9=53|35=0|34=158|49=MMMAQA|52=20200902-11:34:51.154|56=MA|10=129|8=FIX.4.4|9=53|35=0|34=159|49=MMMAQA|52=20200902-11:36:21.154|56=MA|10=129|8=FIX.4.4|9=53|35=0|34=160|49=MMMAQA|52=20200902-11:37:51.155|56=MA|10=126|8=FIX.4.4|9=53|35=0|34=161|49=MMMAQA|52=20200902-11:39:21.156|56=MA|10=127|8=FIX.4.4|9=53|35=0|34=162|49=MMMAQA|52=20200902-11:40:51.156|56=MA|10=123|8=FIX.4.4|9=53|35=0|34=163|49=MMMAQA|52=20200902-11:42:21.158|56=MA|10=125|8=FIX.4.4|9=53|35=0|34=164|49=MMMAQA|52=20200902-11:43:52.158|56=MA|10=131|8=FIX.4.4|9=53|35=0|34=165|49=MMMAQA|52=20200902-11:45:22.158|56=MA|10=131|8=FIX.4.4|9=53|35=0|34=166|49=MMMAQA|52=20200902-11:46:52.160|56=MA|10=129|8=FIX.4.4|9=53|35=0|34=167|49=MMMAQA|52=20200902-11:48:23.159|56=MA|10=138|8=FIX.4.4|9=53|35=0|34=168|49=MMMAQA|52=20200902-11:49:54.159|56=MA|10=144|8=FIX.4.4|9=53|35=0|34=169|49=MMMAQA|52=20200902-11:51:24.160|56=MA|10=127|8=FIX.4.4|9=53|35=0|34=170|49=MMMAQA|52=20200902-11:52:54.160|56=MA|10=123|8=FIX.4.4|9=53|35=0|34=171|49=MMMAQA|52=20200902-11:54:24.163|56=MA|10=126|8=FIX.4.4|9=53|35=0|34=172|49=MMMAQA|52=20200902-11:55:54.165|56=MA|10=133|8=FIX.4.4|9=53|35=0|34=173|49=MMMAQA|52=20200902-11:57:24.166|56=MA|10=134|8=FIX.4.4|9=53|35=0|34=174|49=MMMAQA|52=20200902-11:58:54.169|56=MA|10=142|8=FIX.4.4|9=53|35=0|34=175|49=MMMAQA|52=20200902-12:00:24.170|56=MA|10=120|8=FIX.4.4|9=53|35=0|34=176|49=MMMAQA|52=20200902-12:01:54.171|56=MA|10=126|8=FIX.4.4|9=53|35=0|34=177|49=MMMAQA|52=20200902-12:03:24.174|56=MA|10=129|8=FIX.4.4|9=53|35=0|34=178|49=MMMAQA|52=20200902-12:04:54.174|56=MA|10=134|8=FIX.4.4|9=53|35=0|34=179|49=MMMAQA|52=20200902-12:06:24.177|56=MA|10=137|8=FIX.4.4|9=53|35=0|34=180|49=MMMAQA|52=20200902-12:07:55.176|56=MA|10=133|8=FIX.4.4|9=53|35=0|34=181|49=MMMAQA|52=20200902-12:09:25.177|56=MA|10=134|8=FIX.4.4|9=53|35=0|34=182|49=MMMAQA|52=20200902-12:10:55.178|56=MA|10=131|8=FIX.4.4|9=53|35=0|34=183|49=MMMAQA|52=20200902-12:12:25.180|56=MA|10=124|8=FIX.4.4|9=53|35=0|34=184|49=MMMAQA|52=20200902-12:13:56.179|56=MA|10=138|8=FIX.4.4|9=53|35=0|34=185|49=MMMAQA|52=20200902-12:15:26.180|56=MA|10=130|8=FIX.4.4|9=53|35=0|34=186|49=MMMAQA|52=20200902-12:16:56.182|56=MA|10=137|8=FIX.4.4|9=53|35=0|34=187|49=MMMAQA|52=20200902-12:18:27.182|56=MA|10=138|8=FIX.4.4|9=53|35=0|34=188|49=MMMAQA|52=20200902-12:19:57.183|56=MA|10=144|8=FIX.4.4|9=53|35=0|34=189|49=MMMAQA|52=20200902-12:21:28.183|56=MA|10=136|8=FIX.4.4|9=53|35=0|34=190|49=MMMAQA|52=20200902-12:22:58.183|56=MA|10=132|8=FIX.4.4|9=53|35=0|34=191|49=MMMAQA|52=20200902-12:24:28.183|56=MA|10=132|8=FIX.4.4|9=53|35=0|34=192|49=MMMAQA|52=20200902-12:25:58.183|56=MA|10=137|8=FIX.4.4|9=53|35=0|34=193|49=MMMAQA|52=20200902-12:27:28.184|56=MA|10=138|8=FIX.4.4|9=53|35=0|34=194|49=MMMAQA|52=20200902-12:28:58.185|56=MA|10=144|8=FIX.4.4|9=53|35=0|34=195|49=MMMAQA|52=20200902-12:30:28.185|56=MA|10=135|8=FIX.4.4|9=53|35=0|34=196|49=MMMAQA|52=20200902-12:31:59.185|56=MA|10=141|8=FIX.4.4|9=53|35=0|34=197|49=MMMAQA|52=20200902-12:33:29.185|56=MA|10=141|8=FIX.4.4|9=53|35=0|34=198|49=MMMAQA|52=20200902-12:35:00.186|56=MA|10=134|8=FIX.4.4|9=53|35=0|34=199|49=MMMAQA|52=20200902-12:36:30.186|56=MA|10=139|8=FIX.4.4|9=53|35=0|34=200|49=MMMAQA|52=20200902-12:38:00.187|56=MA|10=122|8=FIX.4.4|9=53|35=0|34=201|49=MMMAQA|52=20200902-12:39:31.185|56=MA|10=126|8=FIX.4.4|9=53|35=0|34=202|49=MMMAQA|52=20200902-12:41:01.186|56=MA|10=118|8=FIX.4.4|9=53|35=0|34=203|49=MMMAQA|52=20200902-12:42:31.186|56=MA|10=123|8=FIX.4.4|9=53|35=0|34=204|49=MMMAQA|52=20200902-12:44:01.187|56=MA|10=124|8=FIX.4.4|9=53|35=0|34=205|49=MMMAQA|52=20200902-12:45:31.187|56=MA|10=129|8=FIX.4.4|9=53|35=0|34=206|49=MMMAQA|52=20200902-12:47:02.186|56=MA|10=129|8=FIX.4.4|9=53|35=0|34=207|49=MMMAQA|52=20200902-12:48:32.186|56=MA|10=134|8=FIX.4.4|9=53|35=0|34=208|49=MMMAQA|52=20200902-12:50:02.186|56=MA|10=125|8=FIX.4.4|9=53|35=0|34=209|49=MMMAQA|52=20200902-12:51:32.188|56=MA|10=132|8=FIX.4.4|9=53|35=0|34=210|49=MMMAQA|52=20200902-12:53:03.187|56=MA|10=123|8=FIX.4.4|9=53|35=0|34=211|49=MMMAQA|52=20200902-12:54:34.188|56=MA|10=130|8=FIX.4.4|9=53|35=0|34=212|49=MMMAQA|52=20200902-12:56:05.187|56=MA|10=130|8=FIX.4.4|9=53|35=0|34=213|49=MMMAQA|52=20200902-12:57:35.187|56=MA|10=135|8=FIX.4.4|9=53|35=0|34=214|49=MMMAQA|52=20200902-12:59:05.187|56=MA|10=135|8=FIX.4.4|9=53|35=0|34=215|49=MMMAQA|52=20200902-13:00:35.187|56=MA|10=126|8=FIX.4.4|9=53|35=0|34=216|49=MMMAQA|52=20200902-13:02:05.191|56=MA|10=121|8=FIX.4.4|9=53|35=0|34=217|49=MMMAQA|52=20200902-13:03:35.194|56=MA|10=129|8=FIX.4.4|9=53|35=0|34=218|49=MMMAQA|52=20200902-13:05:05.195|56=MA|10=130|8=FIX.4.4|9=53|35=0|34=219|49=MMMAQA|52=20200902-13:06:35.197|56=MA|10=137|8=FIX.4.4|9=53|35=0|34=220|49=MMMAQA|52=20200902-13:08:05.201|56=MA|10=114|8=FIX.4.4|9=53|35=0|34=221|49=MMMAQA|52=20200902-13:09:35.202|56=MA|10=120|8=FIX.4.4|9=53|35=0|34=222|49=MMMAQA|52=20200902-13:11:05.204|56=MA|10=113|8=FIX.4.4|9=53|35=0|34=223|49=MMMAQA|52=20200902-13:12:35.205|56=MA|10=119|8=FIX.4.4|9=53|35=0|34=224|49=MMMAQA|52=20200902-13:14:05.207|56=MA|10=121|8=FIX.4.4|9=53|35=0|34=225|49=MMMAQA|52=20200902-13:15:35.208|56=MA|10=127|8=FIX.4.4|9=53|35=0|34=226|49=MMMAQA|52=20200902-13:17:05.209|56=MA|10=128|8=FIX.4.4|9=53|35=0|34=227|49=MMMAQA|52=20200902-13:18:35.211|56=MA|10=126|8=FIX.4.4|9=53|35=0|34=228|49=MMMAQA|52=20200902-13:20:05.211|56=MA|10=117|8=FIX.4.4|9=53|35=0|34=229|49=MMMAQA|52=20200902-13:21:35.213|56=MA|10=124|8=FIX.4.4|9=53|35=0|34=230|49=MMMAQA|52=20200902-13:23:05.214|56=MA|10=116|8=FIX.4.4|9=53|35=0|34=231|49=MMMAQA|52=20200902-13:24:35.215|56=MA|10=122|8=FIX.4.4|9=53|35=0|34=232|49=MMMAQA|52=20200902-13:26:05.215|56=MA|10=122|8=FIX.4.4|9=53|35=0|34=233|49=MMMAQA|52=20200902-13:27:36.214|56=MA|10=127|8=FIX.4.4|9=53|35=0|34=234|49=MMMAQA|52=20200902-13:29:06.215|56=MA|10=128|8=FIX.4.4|9=53|35=0|34=235|49=MMMAQA|52=20200902-13:30:36.216|56=MA|10=125|8=FIX.4.4|9=53|35=0|34=236|49=MMMAQA|52=20200902-13:32:06.216|56=MA|10=125|8=FIX.4.4|9=53|35=0|34=237|49=MMMAQA|52=20200902-13:33:36.217|56=MA|10=131|8=FIX.4.4|9=53|35=0|34=238|49=MMMAQA|52=20200902-13:35:06.217|56=MA|10=131|8=FIX.4.4|9=53|35=0|34=239|49=MMMAQA|52=20200902-13:36:36.217|56=MA|10=136|8=FIX.4.4|9=53|35=0|34=240|49=MMMAQA|52=20200902-13:38:06.218|56=MA|10=128|8=FIX.4.4|9=53|35=0|34=241|49=MMMAQA|52=20200902-13:39:36.218|56=MA|10=133|8=FIX.4.4|9=53|35=0|34=242|49=MMMAQA|52=20200902-13:41:06.219|56=MA|10=125|8=FIX.4.4|9=53|35=0|34=243|49=MMMAQA|52=20200902-13:42:36.220|56=MA|10=122|8=FIX.4.4|9=53|35=0|34=244|49=MMMAQA|52=20200902-13:44:07.219|56=MA|10=131|8=FIX.4.4|9=53|35=0|34=245|49=MMMAQA|52=20200902-13:45:37.219|56=MA|10=136|8=FIX.4.4|9=53|35=0|34=246|49=MMMAQA|52=20200902-13:47:07.219|56=MA|10=136|8=FIX.4.4|9=53|35=0|34=247|49=MMMAQA|52=20200902-13:48:37.220|56=MA|10=133|8=FIX.4.4|9=53|35=0|34=248|49=MMMAQA|52=20200902-13:50:07.220|56=MA|10=124|8=FIX.4.4|9=53|35=0|34=249|49=MMMAQA|52=20200902-13:51:37.220|56=MA|10=129|8=FIX.4.4|9=53|35=0|34=250|49=MMMAQA|52=20200902-13:53:07.220|56=MA|10=120|8=FIX.4.4|9=53|35=0|34=251|49=MMMAQA|52=20200902-13:54:37.220|56=MA|10=125|8=FIX.4.4|9=53|35=0|34=252|49=MMMAQA|52=20200902-13:56:07.222|56=MA|10=127|8=FIX.4.4|9=53|35=0|34=253|49=MMMAQA|52=20200902-13:57:38.220|56=MA|10=131|8=FIX.4.4|9=53|35=0|34=254|49=MMMAQA|52=20200902-13:59:08.222|56=MA|10=133|8=FIX.4.4|9=53|35=0|34=255|49=MMMAQA|52=20200902-14:00:39.222|56=MA|10=125|8=FIX.4.4|9=53|35=0|34=256|49=MMMAQA|52=20200902-14:02:10.221|56=MA|10=116|8=FIX.4.4|9=53|35=0|34=257|49=MMMAQA|52=20200902-14:03:40.222|56=MA|10=122|8=FIX.4.4|9=53|35=0|34=258|49=MMMAQA|52=20200902-14:05:10.222|56=MA|10=122|8=FIX.4.4|9=53|35=0|34=259|49=MMMAQA|52=20200902-14:06:41.222|56=MA|10=128|8=FIX.4.4|9=53|35=0|34=260|49=MMMAQA|52=20200902-14:08:11.222|56=MA|10=119|8=FIX.4.4|9=53|35=0|34=261|49=MMMAQA|52=20200902-14:09:41.223|56=MA|10=125|8=FIX.4.4|9=53|35=0|34=262|49=MMMAQA|52=20200902-14:11:11.227|56=MA|10=120|8=FIX.4.4|9=53|35=0|34=263|49=MMMAQA|52=20200902-14:12:41.229|56=MA|10=127|8=FIX.4.4|9=53|35=0|34=264|49=MMMAQA|52=20200902-14:14:11.231|56=MA|10=120|8=FIX.4.4|9=53|35=0|34=265|49=MMMAQA|52=20200902-14:15:41.233|56=MA|10=127|8=FIX.4.4|9=53|35=0|34=266|49=MMMAQA|52=20200902-14:17:11.235|56=MA|10=129|8=FIX.4.4|9=53|35=0|34=267|49=MMMAQA|52=20200902-14:18:41.238|56=MA|10=137|8=FIX.4.4|9=53|35=0|34=268|49=MMMAQA|52=20200902-14:20:11.239|56=MA|10=129|8=FIX.4.4|9=53|35=0|34=269|49=MMMAQA|52=20200902-14:21:41.241|56=MA|10=127|8=FIX.4.4|9=53|35=0|34=270|49=MMMAQA|52=20200902-14:23:11.242|56=MA|10=119|8=FIX.4.4|9=53|35=0|34=271|49=MMMAQA|52=20200902-14:24:41.244|56=MA|10=126|8=FIX.4.4|9=53|35=0|34=272|49=MMMAQA|52=20200902-14:26:11.244|56=MA|10=126|8=FIX.4.4|9=53|35=0|34=273|49=MMMAQA|52=20200902-14:27:41.246|56=MA|10=133|8=FIX.4.4|9=53|35=0|34=274|49=MMMAQA|52=20200902-14:29:11.247|56=MA|10=134|8=FIX.4.4|9=53|35=0|34=275|49=MMMAQA|52=20200902-14:30:41.248|56=MA|10=131|8=FIX.4.4|9=53|35=0|34=276|49=MMMAQA|52=20200902-14:32:12.247|56=MA|10=131|8=FIX.4.4|9=53|35=0|34=277|49=MMMAQA|52=20200902-14:33:42.249|56=MA|10=138|8=FIX.4.4|9=53|35=0|34=278|49=MMMAQA|52=20200902-14:35:12.250|56=MA|10=130|8=FIX.4.4|9=53|35=0|34=279|49=MMMAQA|52=20200902-14:36:42.250|56=MA|10=135|8=FIX.4.4|9=53|35=0|34=280|49=MMMAQA|52=20200902-14:38:12.250|56=MA|10=126|8=FIX.4.4|9=53|35=0|34=281|49=MMMAQA|52=20200902-14:39:42.250|56=MA|10=131|8=FIX.4.4|9=53|35=0|34=282|49=MMMAQA|52=20200902-14:41:12.251|56=MA|10=123|8=FIX.4.4|9=53|35=0|34=283|49=MMMAQA|52=20200902-14:42:42.251|56=MA|10=128|8=FIX.4.4|9=53|35=0|34=284|49=MMMAQA|52=20200902-14:44:12.252|56=MA|10=129|8=FIX.4.4|9=53|35=0|34=285|49=MMMAQA|52=20200902-14:45:42.252|56=MA|10=134|8=FIX.4.4|9=53|35=0|34=286|49=MMMAQA|52=20200902-14:47:12.254|56=MA|10=136|8=FIX.4.4|9=53|35=0|34=287|49=MMMAQA|52=20200902-14:48:43.253|56=MA|10=141|8=FIX.4.4|9=53|35=0|34=288|49=MMMAQA|52=20200902-14:50:13.254|56=MA|10=133|8=FIX.4.4|9=53|35=0|34=289|49=MMMAQA|52=20200902-14:51:43.254|56=MA|10=138|8=FIX.4.4|9=53|35=0|34=290|49=MMMAQA|52=20200902-14:53:13.254|56=MA|10=129|8=FIX.4.4|9=53|35=0|34=291|49=MMMAQA|52=20200902-14:54:43.255|56=MA|10=135|8=FIX.4.4|9=53|35=0|34=292|49=MMMAQA|52=20200902-14:56:13.256|56=MA|10=136|8=FIX.4.4|9=53|35=0|34=293|49=MMMAQA|52=20200902-14:57:44.255|56=MA|10=141|8=FIX.4.4|9=53|35=0|34=294|49=MMMAQA|52=20200902-14:59:14.255|56=MA|10=141|8=FIX.4.4|9=53|35=0|34=295|49=MMMAQA|52=20200902-15:00:44.255|56=MA|10=132|8=FIX.4.4|9=53|35=0|34=296|49=MMMAQA|52=20200902-15:02:14.256|56=MA|10=133|8=FIX.4.4|9=53|35=0|34=297|49=MMMAQA|52=20200902-15:03:45.256|56=MA|10=139|8=FIX.4.4|9=53|35=0|34=298|49=MMMAQA|52=20200902-15:05:15.256|56=MA|10=139|8=FIX.4.4|9=53|35=0|34=299|49=MMMAQA|52=20200902-15:06:45.256|56=MA|10=144|8=FIX.4.4|9=53|35=0|34=300|49=MMMAQA|52=20200902-15:08:15.257|56=MA|10=127|8=FIX.4.4|9=53|35=0|34=301|49=MMMAQA|52=20200902-15:09:46.257|56=MA|10=133|8=FIX.4.4|9=53|35=0|34=302|49=MMMAQA|52=20200902-15:11:16.257|56=MA|10=124|8=FIX.4.4|9=53|35=0|34=303|49=MMMAQA|52=20200902-15:12:46.257|56=MA|10=129|8=FIX.4.4|9=53|35=0|34=304|49=MMMAQA|52=20200902-15:14:16.258|56=MA|10=130|8=FIX.4.4|9=53|35=0|34=305|49=MMMAQA|52=20200902-15:15:47.257|56=MA|10=135|8=FIX.4.4|9=53|35=0|34=306|49=MMMAQA|52=20200902-15:17:18.256|56=MA|10=135|8=FIX.4.4|9=53|35=0|34=307|49=MMMAQA|52=20200902-15:18:48.259|56=MA|10=143|8=FIX.4.4|9=53|35=0|34=308|49=MMMAQA|52=20200902-15:20:18.261|56=MA|10=127|8=FIX.4.4|9=53|35=0|34=309|49=MMMAQA|52=20200902-15:21:48.262|56=MA|10=133|8=FIX.4.4|9=53|35=0|34=310|49=MMMAQA|52=20200902-15:23:18.265|56=MA|10=127|8=FIX.4.4|9=53|35=0|34=311|49=MMMAQA|52=20200902-15:24:48.265|56=MA|10=132|8=FIX.4.4|9=53|35=0|34=312|49=MMMAQA|52=20200902-15:26:18.267|56=MA|10=134|8=FIX.4.4|9=53|35=0|34=313|49=MMMAQA|52=20200902-15:27:48.269|56=MA|10=141|8=FIX.4.4|9=53|35=0|34=314|49=MMMAQA|52=20200902-15:29:18.270|56=MA|10=133|8=FIX.4.4|9=53|35=0|34=315|49=MMMAQA|52=20200902-15:30:48.270|56=MA|10=129|8=FIX.4.4|9=53|35=0|34=316|49=MMMAQA|52=20200902-15:32:18.272|56=MA|10=131|8=FIX.4.4|9=53|35=0|34=317|49=MMMAQA|52=20200902-15:33:48.274|56=MA|10=138|8=FIX.4.4|9=53|35=0|34=318|49=MMMAQA|52=20200902-15:35:18.274|56=MA|10=138|8=FIX.4.4|9=53|35=0|34=319|49=MMMAQA|52=20200902-15:36:48.275|56=MA|10=144|8=FIX.4.4|9=53|35=0|34=320|49=MMMAQA|52=20200902-15:38:18.277|56=MA|10=137|8=FIX.4.4|9=53|35=0|34=321|49=MMMAQA|52=20200902-15:39:48.279|56=MA|10=144|8=FIX.4.4|9=53|35=0|34=322|49=MMMAQA|52=20200902-15:41:18.279|56=MA|10=135|8=FIX.4.4|9=53|35=0|34=323|49=MMMAQA|52=20200902-15:42:48.280|56=MA|10=132|8=FIX.4.4|9=53|35=0|34=324|49=MMMAQA|52=20200902-15:44:18.281|56=MA|10=133|8=FIX.4.4|9=53|35=0|34=325|49=MMMAQA|52=20200902-15:45:48.282|56=MA|10=139|8=FIX.4.4|9=53|35=0|34=326|49=MMMAQA|52=20200902-15:47:18.282|56=MA|10=139|8=FIX.4.4|9=53|35=0|34=327|49=MMMAQA|52=20200902-15:48:48.283|56=MA|10=145|8=FIX.4.4|9=53|35=0|34=328|49=MMMAQA|52=20200902-15:50:18.284|56=MA|10=137|8=FIX.4.4|9=53|35=0|34=329|49=MMMAQA|52=20200902-15:51:48.284|56=MA|10=142|8=FIX.4.4|9=53|35=0|34=330|49=MMMAQA|52=20200902-15:53:18.285|56=MA|10=134|8=FIX.4.4|9=53|35=0|34=331|49=MMMAQA|52=20200902-15:54:48.286|56=MA|10=140|8=FIX.4.4|9=53|35=0|34=332|49=MMMAQA|52=20200902-15:56:18.287|56=MA|10=141|8=FIX.4.4|9=53|35=0|34=333|49=MMMAQA|52=20200902-15:57:48.288|56=MA|10=147|8=FIX.4.4|9=53|35=0|34=334|49=MMMAQA|52=20200902-15:59:19.288|56=MA|10=148|8=FIX.4.4|9=53|35=0|34=335|49=MMMAQA|52=20200902-16:00:49.288|56=MA|10=139|8=FIX.4.4|9=53|35=0|34=336|49=MMMAQA|52=20200902-16:02:19.289|56=MA|10=140|8=FIX.4.4|9=53|35=0|34=337|49=MMMAQA|52=20200902-16:03:49.291|56=MA|10=138|8=FIX.4.4|9=53|35=0|34=338|49=MMMAQA|52=20200902-16:05:20.291|56=MA|10=130|8=FIX.4.4|9=53|35=0|34=339|49=MMMAQA|52=20200902-16:06:50.291|56=MA|10=135|8=FIX.4.4|9=53|35=0|34=340|49=MMMAQA|52=20200902-16:08:20.291|56=MA|10=126|8=FIX.4.4|9=53|35=0|34=341|49=MMMAQA|52=20200902-16:09:50.291|56=MA|10=131|8=FIX.4.4|9=53|35=0|34=342|49=MMMAQA|52=20200902-16:11:20.292|56=MA|10=123|8=FIX.4.4|9=53|35=0|34=343|49=MMMAQA|52=20200902-16:12:50.292|56=MA|10=128|8=FIX.4.4|9=53|35=0|34=344|49=MMMAQA|52=20200902-16:14:20.293|56=MA|10=129|8=FIX.4.4|9=53|35=0|34=345|49=MMMAQA|52=20200902-16:15:50.294|56=MA|10=135|8=FIX.4.4|9=53|35=0|34=346|49=MMMAQA|52=20200902-16:17:20.294|56=MA|10=135|8=FIX.4.4|9=53|35=0|34=347|49=MMMAQA|52=20200902-16:18:50.295|56=MA|10=141|8=FIX.4.4|9=53|35=0|34=348|49=MMMAQA|52=20200902-16:20:21.295|56=MA|10=133|8=FIX.4.4|9=53|35=0|34=349|49=MMMAQA|52=20200902-16:21:52.294|56=MA|10=138|8=FIX.4.4|9=53|35=0|34=350|49=MMMAQA|52=20200902-16:23:22.295|56=MA|10=130|8=FIX.4.4|9=53|35=0|34=351|49=MMMAQA|52=20200902-16:24:52.295|56=MA|10=135|8=FIX.4.4|9=53|35=0|34=352|49=MMMAQA|52=20200902-16:26:22.298|56=MA|10=138|8=FIX.4.4|9=53|35=0|34=353|49=MMMAQA|52=20200902-16:27:52.300|56=MA|10=127|8=FIX.4.4|9=53|35=0|34=354|49=MMMAQA|52=20200902-16:29:22.303|56=MA|10=130|8=FIX.4.4|9=53|35=0|34=355|49=MMMAQA|52=20200902-16:30:52.307|56=MA|10=130|8=FIX.4.4|9=53|35=0|34=356|49=MMMAQA|52=20200902-16:32:22.309|56=MA|10=132|8=FIX.4.4|9=53|35=0|34=357|49=MMMAQA|52=20200902-16:33:52.312|56=MA|10=131|8=FIX.4.4|9=53|35=0|34=358|49=MMMAQA|52=20200902-16:35:22.314|56=MA|10=133|8=FIX.4.4|9=53|35=0|34=359|49=MMMAQA|52=20200902-16:36:52.316|56=MA|10=140|8=FIX.4.4|9=53|35=0|34=360|49=MMMAQA|52=20200902-16:38:22.319|56=MA|10=134|8=FIX.4.4|9=53|35=0|34=361|49=MMMAQA|52=20200902-16:39:52.322|56=MA|10=133|8=FIX.4.4|9=53|35=0|34=362|49=MMMAQA|52=20200902-16:41:22.322|56=MA|10=124|8=FIX.4.4|9=53|35=0|34=363|49=MMMAQA|52=20200902-16:42:52.325|56=MA|10=132|8=FIX.4.4|9=53|35=0|34=364|49=MMMAQA|52=20200902-16:44:22.327|56=MA|10=134|8=FIX.4.4|9=53|35=0|34=365|49=MMMAQA|52=20200902-16:45:52.329|56=MA|10=141|8=FIX.4.4|9=53|35=0|34=366|49=MMMAQA|52=20200902-16:47:22.329|56=MA|10=141|8=FIX.4.4|9=53|35=0|34=367|49=MMMAQA|52=20200902-16:48:52.332|56=MA|10=140|8=FIX.4.4|9=53|35=0|34=368|49=MMMAQA|52=20200902-16:50:22.334|56=MA|10=133|8=FIX.4.4|9=53|35=0|34=369|49=MMMAQA|52=20200902-16:51:52.336|56=MA|10=140|8=FIX.4.4|9=53|35=0|34=370|49=MMMAQA|52=20200902-16:53:22.336|56=MA|10=131|8=FIX.4.4|9=53|35=0|34=371|49=MMMAQA|52=20200902-16:54:52.338|56=MA|10=138|8=FIX.4.4|9=53|35=0|34=372|49=MMMAQA|52=20200902-16:56:22.340|56=MA|10=131|8=FIX.4.4|9=53|35=0|34=373|49=MMMAQA|52=20200902-16:57:52.340|56=MA|10=136|8=FIX.4.4|9=53|35=0|34=374|49=MMMAQA|52=20200902-16:59:22.341|56=MA|10=137|8=FIX.4.4|9=105|35=3|34=375|49=MMMAQA|52=20200902-17:36:00.134|56=MA|45=386|372=0|373=10|58=SendingTime accuracy problem|10=191|8=FIX.4.4|9=53|35=5|34=376|49=MMMAQA|52=20200902-17:36:00.134|56=MA|10=136|8=FIX.4.4|9=82|35=A|34=377|49=MMMAQA|52=20201006-16:07:51.100|56=MA|98=0|108=90|95=8|96=3.0.0rc5|10=056|8=FIX.4.4|9=104|35=5|34=378|49=MMMAQA|52=20201006-16:07:51.723|56=MA|58=MsgSeqNum too low, expecting 387 but received 1|10=193|8=FIX.4.4|9=86|35=A|34=1|49=MMMAQA|52=20201006-16:07:56.090|56=MA|98=0|108=90|95=8|96=3.0.0rc5|141=Y|10=006|8=FIX.4.4|9=181|35=D|34=2|49=MMMAQA|52=20201006-16:08:09.037|56=MA|11=MMADJB260619-1177|453=1|448=MMMAQA|447=C|452=11|55=NA|48=XS0991090175|22=4|54=2|60=20201006-16:08:09.037|38=1000000|40=1|423=1|10=199|8=FIX.4.4|9=615|35=E|34=3|49=MMMAQA|52=20201006-16:08:51.918|56=MA|66=MMAD-FIX44-ListID-071218-1178|394=2|68=5|73=5|11=FIX44-List-ClOrdID-1179|22=4|38=100000|48=XS0542534192|54=1|55=[N/A/]|67=1|423=1|453=1|448=MMMAQA|447=C|452=11|11=FIX44-List-ClOrdID-1180|22=4|38=120000|48=FR0013241536|54=1|55=[N/A]|67=2|11=FIX44-List-ClOrdID-1181|22=4|38=130000|48=DE000HLB4D56|54=1|55=[N/A/]|67=1|453=1|448=MMMAQA|447=C|452=11|11=FIX44-List-ClOrdID-1182|22=4|38=250000|48=XS0987936076|54=1|55=[N/A/]|67=1|453=1|448=MMMAQA|447=C|452=11|11=FIX44-List-ClOrdID-1183|22=4|38=350000|48=XS0401048102|54=1|55=[N/A/]|67=1|453=1|448=MMMAQA|447=C|452=11|10=060|8=FIX.4.4|9=51|35=0|34=4|49=MMMAQA|52=20201006-16:10:22.093|56=MA|10=016|8=FIX.4.4|9=51|35=0|34=5|49=MMMAQA|52=20201006-16:11:52.093|56=MA|10=021|8=FIX.4.4|9=615|35=E|34=6|49=MMMAQA|52=20201006-16:12:51.677|56=MA|66=MMAD-FIX44-ListID-061020-1184|394=2|68=5|73=5|11=FIX44-List-ClOrdID-1185|22=4|38=100000|48=XS0542534192|54=1|55=[N/A/]|67=1|423=1|453=1|448=MMMAQA|447=C|452=11|11=FIX44-List-ClOrdID-1186|22=4|38=100000|48=FR0013241536|54=1|55=[N/A]|67=2|11=FIX44-List-ClOrdID-1187|22=4|38=130000|48=DE000HLB4D56|54=1|55=[N/A/]|67=1|453=1|448=MMMAQA|447=C|452=11|11=FIX44-List-ClOrdID-1188|22=4|38=250000|48=XS0987936076|54=1|55=[N/A/]|67=1|453=1|448=MMMAQA|447=C|452=11|11=FIX44-List-ClOrdID-1189|22=4|38=350000|48=XS0401048102|54=1|55=[N/A/]|67=1|453=1|448=MMMAQA|447=C|452=11|10=066|8=FIX.4.4|9=51|35=0|34=7|49=MMMAQA|52=20201006-16:14:22.095|56=MA|10=025|8=FIX.4.4|9=51|35=0|34=8|49=MMMAQA|52=20201006-16:15:52.096|56=MA|10=031|8=FIX.4.4|9=51|35=0|34=9|49=MMMAQA|52=20201006-16:17:22.098|56=MA|10=033|8=FIX.4.4|9=616|35=E|34=10|49=MMMAQA|52=20201006-16:18:44.332|56=MA|66=MMAD-FIX44-ListID-061020-1190|394=2|68=5|73=5|11=FIX44-List-ClOrdID-1191|22=4|38=100000|48=XS0542534192|54=1|55=[N/A/]|67=1|423=1|453=1|448=MMMAQA|447=C|452=11|11=FIX44-List-ClOrdID-1192|22=4|38=100000|48=FR0013241536|54=1|55=[N/A]|67=2|11=FIX44-List-ClOrdID-1193|22=4|38=130000|48=DE000HLB4D56|54=1|55=[N/A/]|67=1|453=1|448=MMMAQA|447=C|452=11|11=FIX44-List-ClOrdID-1194|22=4|38=250000|48=XS0987936076|54=1|55=[N/A/]|67=1|453=1|448=MMMAQA|447=C|452=11|11=FIX44-List-ClOrdID-1195|22=4|38=350000|48=XS0401048102|54=1|55=[N/A/]|67=1|453=1|448=MMMAQA|447=C|452=11|10=088|8=FIX.4.4|9=52|35=0|34=11|49=MMMAQA|52=20201006-16:20:15.100|56=MA|10=055|8=FIX.4.4|9=52|35=0|34=12|49=MMMAQA|52=20201006-16:21:45.101|56=MA|10=061|8=FIX.4.4|9=52|35=0|34=13|49=MMMAQA|52=20201006-16:23:15.102|56=MA|10=062|8=FIX.4.4|9=52|35=0|34=14|49=MMMAQA|52=20201006-16:24:45.103|56=MA|10=068|8=FIX.4.4|9=52|35=0|34=15|49=MMMAQA|52=20201006-16:26:15.104|56=MA|10=069|8=FIX.4.4|9=52|35=0|34=16|49=MMMAQA|52=20201006-16:27:45.106|56=MA|10=076|8=FIX.4.4|9=52|35=0|34=17|49=MMMAQA|52=20201006-16:29:15.108|56=MA|10=078|8=FIX.4.4|9=52|35=0|34=18|49=MMMAQA|52=20201006-16:30:45.108|56=MA|10=074|8=FIX.4.4|9=52|35=0|34=19|49=MMMAQA|52=20201006-16:32:15.110|56=MA|10=067|8=FIX.4.4|9=52|35=0|34=20|49=MMMAQA|52=20201006-16:33:45.110|56=MA|10=063|8=FIX.4.4|9=52|35=0|34=21|49=MMMAQA|52=20201006-16:35:15.111|56=MA|10=064|8=FIX.4.4|9=52|35=0|34=22|49=MMMAQA|52=20201006-16:36:45.112|56=MA|10=070|8=FIX.4.4|9=52|35=0|34=23|49=MMMAQA|52=20201006-16:38:15.113|56=MA|10=071|8=FIX.4.4|9=52|35=0|34=24|49=MMMAQA|52=20201006-16:39:45.115|56=MA|10=078|8=FIX.4.4|9=103|35=3|34=25|49=MMMAQA|52=20201006-17:40:22.899|56=MA|45=54|372=0|373=10|58=SendingTime accuracy problem|10=090|8=FIX.4.4|9=52|35=5|34=26|49=MMMAQA|52=20201006-17:40:22.899|56=MA|10=092|8=FIX.4.4|9=86|35=A|34=1|49=MMMAQA|52=20201007-14:16:23.071|56=MA|98=0|108=90|95=8|96=3.0.0rc5|141=Y|10=254|8=FIX.4.4|9=615|35=E|34=2|49=MMMAQA|52=20201007-14:16:45.915|56=MA|66=MMAD-FIX44-ListID-071020-1177|394=2|68=5|73=5|11=FIX44-List-ClOrdID-1178|22=4|38=100000|48=XS0542534192|54=1|55=[N/A/]|67=1|423=1|453=1|448=MMMAQA|447=C|452=11|11=FIX44-List-ClOrdID-1179|22=4|38=100000|48=FR0013241536|54=1|55=[N/A]|67=2|11=FIX44-List-ClOrdID-1180|22=4|38=130000|48=DE000HLB4D56|54=1|55=[N/A/]|67=1|453=1|448=MMMAQA|447=C|452=11|11=FIX44-List-ClOrdID-1181|22=4|38=250000|48=XS0987936076|54=1|55=[N/A/]|67=1|453=1|448=MMMAQA|447=C|452=11|11=FIX44-List-ClOrdID-1182|22=4|38=350000|48=XS0401048102|54=1|55=[N/A/]|67=1|453=1|448=MMMAQA|447=C|452=11|10=049|8=FIX.4.4|9=51|35=0|34=3|49=MMMAQA|52=20201007-14:18:16.071|56=MA|10=021|8=FIX.4.4|9=51|35=0|34=4|49=MMMAQA|52=20201007-14:19:46.073|56=MA|10=028|8=FIX.4.4|9=51|35=0|34=5|49=MMMAQA|52=20201007-14:21:16.073|56=MA|10=019|8=FIX.4.4|9=51|35=0|34=6|49=MMMAQA|52=20201007-14:22:46.075|56=MA|10=026|8=FIX.4.4|9=51|35=0|34=7|49=MMMAQA|52=20201007-14:24:16.078|56=MA|10=029|8=FIX.4.4|9=51|35=0|34=8|49=MMMAQA|52=20201007-14:25:46.078|56=MA|10=034|8=FIX.4.4|9=51|35=0|34=9|49=MMMAQA|52=20201007-14:27:16.078|56=MA|10=034|8=FIX.4.4|9=52|35=0|34=10|49=MMMAQA|52=20201007-14:28:46.080|56=MA|10=072|8=FIX.4.4|9=52|35=0|34=11|49=MMMAQA|52=20201007-14:30:16.080|56=MA|10=063|8=FIX.4.4|9=52|35=0|34=12|49=MMMAQA|52=20201007-14:31:46.081|56=MA|10=069|8=FIX.4.4|9=52|35=0|34=13|49=MMMAQA|52=20201007-14:33:16.082|56=MA|10=070|8=FIX.4.4|9=52|35=0|34=14|49=MMMAQA|52=20201007-14:34:46.082|56=MA|10=075|8=FIX.4.4|9=52|35=0|34=15|49=MMMAQA|52=20201007-14:36:16.084|56=MA|10=077|8=FIX.4.4|9=52|35=0|34=16|49=MMMAQA|52=20201007-14:37:46.084|56=MA|10=082|8=FIX.4.4|9=52|35=0|34=17|49=MMMAQA|52=20201007-14:39:16.084|56=MA|10=082|8=FIX.4.4|9=52|35=0|34=18|49=MMMAQA|52=20201007-14:40:46.085|56=MA|10=079|8=FIX.4.4|9=52|35=0|34=19|49=MMMAQA|52=20201007-14:42:16.085|56=MA|10=079|8=FIX.4.4|9=52|35=0|34=20|49=MMMAQA|52=20201007-14:43:46.087|56=MA|10=077|8=FIX.4.4|9=52|35=0|34=21|49=MMMAQA|52=20201007-14:45:16.087|56=MA|10=077|8=FIX.4.4|9=52|35=0|34=22|49=MMMAQA|52=20201007-14:46:46.087|56=MA|10=082|8=FIX.4.4|9=52|35=0|34=23|49=MMMAQA|52=20201007-14:48:16.087|56=MA|10=082|8=FIX.4.4|9=52|35=0|34=24|49=MMMAQA|52=20201007-14:49:46.087|56=MA|10=087|8=FIX.4.4|9=52|35=0|34=25|49=MMMAQA|52=20201007-14:51:16.087|56=MA|10=078|8=FIX.4.4|9=52|35=0|34=26|49=MMMAQA|52=20201007-14:52:46.088|56=MA|10=084|8=FIX.4.4|9=52|35=0|34=27|49=MMMAQA|52=20201007-14:54:16.088|56=MA|10=084|8=FIX.4.4|9=52|35=0|34=28|49=MMMAQA|52=20201007-14:55:46.088|56=MA|10=089|8=FIX.4.4|9=52|35=0|34=29|49=MMMAQA|52=20201007-14:57:16.088|56=MA|10=089|8=FIX.4.4|9=52|35=0|34=30|49=MMMAQA|52=20201007-14:58:46.089|56=MA|10=086|8=FIX.4.4|9=52|35=0|34=31|49=MMMAQA|52=20201007-15:00:16.089|56=MA|10=072|8=FIX.4.4|9=52|35=0|34=32|49=MMMAQA|52=20201007-15:01:46.089|56=MA|10=077|8=FIX.4.4|9=52|35=0|34=33|49=MMMAQA|52=20201007-15:03:16.089|56=MA|10=077|8=FIX.4.4|9=52|35=0|34=34|49=MMMAQA|52=20201007-15:04:46.089|56=MA|10=082|8=FIX.4.4|9=52|35=0|34=35|49=MMMAQA|52=20201007-15:06:16.089|56=MA|10=082|8=FIX.4.4|9=52|35=0|34=36|49=MMMAQA|52=20201007-15:07:46.089|56=MA|10=087|8=FIX.4.4|9=52|35=0|34=37|49=MMMAQA|52=20201007-15:09:16.089|56=MA|10=087|8=FIX.4.4|9=52|35=0|34=38|49=MMMAQA|52=20201007-15:10:46.090|56=MA|10=075|8=FIX.4.4|9=52|35=0|34=39|49=MMMAQA|52=20201007-15:12:16.090|56=MA|10=075|8=FIX.4.4|9=52|35=0|34=40|49=MMMAQA|52=20201007-15:13:46.095|56=MA|10=076|8=FIX.4.4|9=52|35=0|34=41|49=MMMAQA|52=20201007-15:15:16.099|56=MA|10=080|8=FIX.4.4|9=52|35=0|34=42|49=MMMAQA|52=20201007-15:16:46.101|56=MA|10=069|8=FIX.4.4|9=52|35=0|34=43|49=MMMAQA|52=20201007-15:18:16.105|56=MA|10=073|8=FIX.4.4|9=52|35=0|34=44|49=MMMAQA|52=20201007-15:19:46.107|56=MA|10=080|8=FIX.4.4|9=52|35=0|34=45|49=MMMAQA|52=20201007-15:21:16.109|56=MA|10=073|8=FIX.4.4|9=52|35=0|34=46|49=MMMAQA|52=20201007-15:22:46.109|56=MA|10=078|8=FIX.4.4|9=52|35=0|34=47|49=MMMAQA|52=20201007-15:24:16.111|56=MA|10=071|8=FIX.4.4|9=52|35=0|34=48|49=MMMAQA|52=20201007-15:25:46.112|56=MA|10=077|8=FIX.4.4|9=52|35=0|34=49|49=MMMAQA|52=20201007-15:27:16.113|56=MA|10=078|8=FIX.4.4|9=52|35=0|34=50|49=MMMAQA|52=20201007-15:28:46.116|56=MA|10=077|8=FIX.4.4|9=52|35=0|34=51|49=MMMAQA|52=20201007-15:30:17.116|56=MA|10=069|8=FIX.4.4|9=52|35=0|34=52|49=MMMAQA|52=20201007-15:31:47.117|56=MA|10=075|8=FIX.4.4|9=52|35=0|34=53|49=MMMAQA|52=20201007-15:33:17.117|56=MA|10=075|8=FIX.4.4|9=52|35=0|34=54|49=MMMAQA|52=20201007-15:34:47.118|56=MA|10=081|8=FIX.4.4|9=52|35=0|34=55|49=MMMAQA|52=20201007-15:36:17.119|56=MA|10=082|8=FIX.4.4|9=52|35=0|34=56|49=MMMAQA|52=20201007-15:37:47.120|56=MA|10=079|8=FIX.4.4|9=52|35=0|34=57|49=MMMAQA|52=20201007-15:39:17.121|56=MA|10=080|8=FIX.4.4|9=52|35=0|34=58|49=MMMAQA|52=20201007-15:40:47.121|56=MA|10=076|8=FIX.4.4|9=52|35=0|34=59|49=MMMAQA|52=20201007-15:42:17.122|56=MA|10=077|8=FIX.4.4|9=52|35=0|34=60|49=MMMAQA|52=20201007-15:43:47.123|56=MA|10=074|8=FIX.4.4|9=52|35=0|34=61|49=MMMAQA|52=20201007-15:45:17.125|56=MA|10=076|8=FIX.4.4|9=52|35=0|34=62|49=MMMAQA|52=20201007-15:46:48.125|56=MA|10=082|8=FIX.4.4|9=52|35=0|34=63|49=MMMAQA|52=20201007-15:48:18.125|56=MA|10=082|8=FIX.4.4|9=52|35=0|34=64|49=MMMAQA|52=20201007-15:49:48.125|56=MA|10=087|8=FIX.4.4|9=52|35=0|34=65|49=MMMAQA|52=20201007-15:51:18.127|56=MA|10=080|8=FIX.4.4|9=52|35=0|34=66|49=MMMAQA|52=20201007-15:52:48.127|56=MA|10=085|8=FIX.4.4|9=52|35=0|34=67|49=MMMAQA|52=20201007-15:54:18.128|56=MA|10=086|8=FIX.4.4|9=52|35=0|34=68|49=MMMAQA|52=20201007-15:55:48.129|56=MA|10=092|8=FIX.4.4|9=52|35=0|34=69|49=MMMAQA|52=20201007-15:57:19.128|56=MA|10=092|8=FIX.4.4|9=52|35=0|34=70|49=MMMAQA|52=20201007-15:58:49.130|56=MA|10=081|8=FIX.4.4|9=52|35=0|34=71|49=MMMAQA|52=20201007-16:00:19.130|56=MA|10=067|8=FIX.4.4|9=52|35=0|34=72|49=MMMAQA|52=20201007-16:01:49.131|56=MA|10=073|8=FIX.4.4|9=52|35=0|34=73|49=MMMAQA|52=20201007-16:03:19.131|56=MA|10=073|8=FIX.4.4|9=52|35=0|34=74|49=MMMAQA|52=20201007-16:04:49.131|56=MA|10=078|8=FIX.4.4|9=52|35=0|34=75|49=MMMAQA|52=20201007-16:06:19.132|56=MA|10=079|8=FIX.4.4|9=52|35=0|34=76|49=MMMAQA|52=20201007-16:07:50.133|56=MA|10=077|8=FIX.4.4|9=52|35=0|34=77|49=MMMAQA|52=20201007-16:09:21.132|56=MA|10=077|8=FIX.4.4|9=52|35=0|34=78|49=MMMAQA|52=20201007-16:10:51.133|56=MA|10=074|8=FIX.4.4|9=52|35=0|34=79|49=MMMAQA|52=20201007-16:12:21.133|56=MA|10=074|8=FIX.4.4|9=52|35=0|34=80|49=MMMAQA|52=20201007-16:13:51.133|56=MA|10=070|8=FIX.4.4|9=52|35=0|34=81|49=MMMAQA|52=20201007-16:15:21.133|56=MA|10=070|8=FIX.4.4|9=52|35=0|34=82|49=MMMAQA|52=20201007-16:16:51.135|56=MA|10=077|8=FIX.4.4|9=52|35=0|34=83|49=MMMAQA|52=20201007-16:18:22.135|56=MA|10=078|8=FIX.4.4|9=52|35=0|34=84|49=MMMAQA|52=20201007-16:19:53.134|56=MA|10=083|8=FIX.4.4|9=52|35=0|34=85|49=MMMAQA|52=20201007-16:21:23.134|56=MA|10=074|8=FIX.4.4|9=52|35=0|34=86|49=MMMAQA|52=20201007-16:22:53.135|56=MA|10=080|8=FIX.4.4|9=52|35=0|34=87|49=MMMAQA|52=20201007-16:24:23.136|56=MA|10=081|8=FIX.4.4|9=52|35=0|34=88|49=MMMAQA|52=20201007-16:25:53.136|56=MA|10=086|8=FIX.4.4|9=52|35=0|34=89|49=MMMAQA|52=20201007-16:27:23.137|56=MA|10=087|8=FIX.4.4|9=52|35=0|34=90|49=MMMAQA|52=20201007-16:28:53.138|56=MA|10=084|8=FIX.4.4|9=52|35=0|34=91|49=MMMAQA|52=20201007-16:30:23.138|56=MA|10=075|8=FIX.4.4|9=52|35=0|34=92|49=MMMAQA|52=20201007-16:31:53.139|56=MA|10=081|8=FIX.4.4|9=52|35=0|34=93|49=MMMAQA|52=20201007-16:33:23.141|56=MA|10=074|8=FIX.4.4|9=52|35=0|34=94|49=MMMAQA|52=20201007-16:34:54.140|56=MA|10=079|8=FIX.4.4|9=52|35=0|34=95|49=MMMAQA|52=20201007-16:36:24.140|56=MA|10=079|8=FIX.4.4|9=52|35=0|34=96|49=MMMAQA|52=20201007-16:37:54.142|56=MA|10=086|8=FIX.4.4|9=52|35=0|34=97|49=MMMAQA|52=20201007-16:39:25.141|56=MA|10=086|8=FIX.4.4|9=52|35=0|34=98|49=MMMAQA|52=20201007-16:40:55.141|56=MA|10=082|8=FIX.4.4|9=52|35=0|34=99|49=MMMAQA|52=20201007-16:42:25.142|56=MA|10=083|8=FIX.4.4|9=53|35=0|34=100|49=MMMAQA|52=20201007-16:43:55.142|56=MA|10=119|8=FIX.4.4|9=53|35=0|34=101|49=MMMAQA|52=20201007-16:45:25.143|56=MA|10=120|8=FIX.4.4|9=53|35=0|34=102|49=MMMAQA|52=20201007-16:46:55.143|56=MA|10=125|8=FIX.4.4|9=53|35=0|34=103|49=MMMAQA|52=20201007-16:48:25.144|56=MA|10=126|8=FIX.4.4|9=105|35=3|34=104|49=MMMAQA|52=20201007-17:49:40.441|56=MA|45=117|372=0|373=10|58=SendingTime accuracy problem|10=179|8=FIX.4.4|9=53|35=5|34=105|49=MMMAQA|52=20201007-17:49:40.441|56=MA|10=132|8=FIX.4.4|9=86|35=A|34=1|49=MMMAQA|52=20201015-09:41:03.355|56=MA|98=0|108=90|95=8|96=3.0.0rc5|141=Y|10=002|8=FIX.4.4|9=615|35=E|34=2|49=MMMAQA|52=20201015-09:41:11.918|56=MA|66=MMAD-FIX44-ListID-061020-1183|394=2|68=5|73=5|11=FIX44-List-ClOrdID-1184|22=4|38=100000|48=XS0542534192|54=1|55=[N/A/]|67=1|423=1|453=1|448=MMMAQA|447=C|452=11|11=FIX44-List-ClOrdID-1185|22=4|38=100000|48=FR0013241536|54=1|55=[N/A]|67=2|11=FIX44-List-ClOrdID-1186|22=4|38=130000|48=DE000HLB4D56|54=1|55=[N/A/]|67=1|453=1|448=MMMAQA|447=C|452=11|11=FIX44-List-ClOrdID-1187|22=4|38=250000|48=XS0987936076|54=1|55=[N/A/]|67=1|453=1|448=MMMAQA|447=C|452=11|11=FIX44-List-ClOrdID-1188|22=4|38=350000|48=XS0401048102|54=1|55=[N/A/]|67=1|453=1|448=MMMAQA|447=C|452=11|10=054|8=FIX.4.4|9=51|35=0|34=3|49=MMMAQA|52=20201015-09:42:42.356|56=MA|10=026|8=FIX.4.4|9=51|35=0|34=4|49=MMMAQA|52=20201015-09:44:12.360|56=MA|10=021|8=FIX.4.4|9=51|35=0|34=5|49=MMMAQA|52=20201015-09:45:42.360|56=MA|10=026|8=FIX.4.4|9=51|35=0|34=6|49=MMMAQA|52=20201015-09:47:12.361|56=MA|10=027|8=FIX.4.4|9=51|35=0|34=7|49=MMMAQA|52=20201015-09:48:42.363|56=MA|10=034|8=FIX.4.4|9=51|35=0|34=8|49=MMMAQA|52=20201015-09:50:12.364|56=MA|10=026|8=FIX.4.4|9=51|35=0|34=9|49=MMMAQA|52=20201015-09:51:43.363|56=MA|10=031|8=FIX.4.4|9=52|35=0|34=10|49=MMMAQA|52=20201015-09:53:13.364|56=MA|10=072|8=FIX.4.4|9=616|35=E|34=11|49=MMMAQA|52=20201015-09:54:10.214|56=MA|66=MMAD-FIX44-ListID-061020-1189|394=2|68=5|73=5|11=FIX44-List-ClOrdID-1190|22=4|38=100000|48=XS1266960860|54=1|55=[N/A/]|67=1|423=1|453=1|448=MMMAQA|447=C|452=11|11=FIX44-List-ClOrdID-1191|22=4|38=100000|48=US808513AE59|54=1|55=[N/A]|67=2|11=FIX44-List-ClOrdID-1192|22=4|38=130000|48=US06738JYZ10|54=1|55=[N/A/]|67=1|453=1|448=MMMAQA|447=C|452=11|11=FIX44-List-ClOrdID-1193|22=4|38=250000|48=US95709TAH32|54=1|55=[N/A/]|67=1|453=1|448=MMMAQA|447=C|452=11|11=FIX44-List-ClOrdID-1194|22=4|38=350000|48=US29379VAW37|54=1|55=[N/A/]|67=1|453=1|448=MMMAQA|447=C|452=11|10=132|8=FIX.4.4|9=52|35=0|34=12|49=MMMAQA|52=20201015-09:55:40.364|56=MA|10=076|8=FIX.4.4|9=616|35=E|34=13|49=MMMAQA|52=20201015-09:56:42.302|56=MA|66=MMAD-FIX44-ListID-061020-1195|394=2|68=5|73=5|11=FIX44-List-ClOrdID-1196|22=4|38=100000|48=XS1266960860|54=1|55=[N/A/]|67=1|423=1|453=1|448=MMMAQA|447=C|452=11|11=FIX44-List-ClOrdID-1197|22=4|38=100000|48=US808513AE59|54=1|55=[N/A]|67=2|11=FIX44-List-ClOrdID-1198|22=4|38=130000|48=US06738JYZ10|54=1|55=[N/A/]|67=1|453=1|448=MMMAQA|447=C|452=11|11=FIX44-List-ClOrdID-1199|22=4|38=250000|48=US95709TAH32|54=1|55=[N/A/]|67=1|453=1|448=MMMAQA|447=C|452=11|11=FIX44-List-ClOrdID-1200|22=4|38=350000|48=US29379VAW37|54=1|55=[N/A/]|67=1|453=1|448=MMMAQA|447=C|452=11|10=148|8=FIX.4.4|9=52|35=0|34=14|49=MMMAQA|52=20201015-09:58:12.365|56=MA|10=081|8=FIX.4.4|9=52|35=0|34=15|49=MMMAQA|52=20201015-09:59:42.368|56=MA|10=089|8=FIX.4.4|9=616|35=E|34=16|49=MMMAQA|52=20201015-10:00:10.279|56=MA|66=MMAD-FIX44-ListID-061020-1201|394=2|68=5|73=5|11=FIX44-List-ClOrdID-1202|22=4|38=100000|48=US06051GEN51|54=1|55=[N/A/]|67=1|423=1|453=1|448=MMMAQA|447=C|452=11|11=FIX44-List-ClOrdID-1203|22=4|38=100000|48=US808513AE59|54=1|55=[N/A]|67=2|11=FIX44-List-ClOrdID-1204|22=4|38=130000|48=US06738JYZ10|54=1|55=[N/A/]|67=1|453=1|448=MMMAQA|447=C|452=11|11=FIX44-List-ClOrdID-1205|22=4|38=250000|48=US95709TAH32|54=1|55=[N/A/]|67=1|453=1|448=MMMAQA|447=C|452=11|11=FIX44-List-ClOrdID-1206|22=4|38=350000|48=US29379VAW37|54=1|55=[N/A/]|67=1|453=1|448=MMMAQA|447=C|452=11|10=131|8=FIX.4.4|9=616|35=E|34=17|49=MMMAQA|52=20201015-10:00:36.258|56=MA|66=MMAD-FIX44-ListID-061020-1207|394=2|68=5|73=5|11=FIX44-List-ClOrdID-1208|22=4|38=100000|48=US06051GEN51|54=1|55=[N/A/]|67=1|423=1|453=1|448=MMMAQA|447=C|452=11|11=FIX44-List-ClOrdID-1209|22=4|38=100000|48=US40434AAB52|54=1|55=[N/A]|67=2|11=FIX44-List-ClOrdID-1210|22=4|38=130000|48=US06738JYZ10|54=1|55=[N/A/]|67=1|453=1|448=MMMAQA|447=C|452=11|11=FIX44-List-ClOrdID-1211|22=4|38=250000|48=US95709TAH32|54=1|55=[N/A/]|67=1|453=1|448=MMMAQA|447=C|452=11|11=FIX44-List-ClOrdID-1212|22=4|38=350000|48=US29379VAW37|54=1|55=[N/A/]|67=1|453=1|448=MMMAQA|447=C|452=11|10=143|8=FIX.4.4|9=52|35=0|34=18|49=MMMAQA|52=20201015-10:02:06.368|56=MA|10=072|8=FIX.4.4|9=52|35=0|34=19|49=MMMAQA|52=20201015-10:03:36.370|56=MA|10=070|8=FIX.4.4|9=52|35=0|34=20|49=MMMAQA|52=20201015-10:05:06.370|56=MA|10=061|8=FIX.4.4|9=52|35=0|34=21|49=MMMAQA|52=20201015-10:06:36.371|56=MA|10=067|8=FIX.4.4|9=52|35=0|34=22|49=MMMAQA|52=20201015-10:08:07.370|56=MA|10=067|8=FIX.4.4|9=52|35=0|34=23|49=MMMAQA|52=20201015-10:09:37.371|56=MA|10=073|8=FIX.4.4|9=52|35=0|34=24|49=MMMAQA|52=20201015-10:11:07.371|56=MA|10=064|8=FIX.4.4|9=52|35=0|34=25|49=MMMAQA|52=20201015-10:12:37.372|56=MA|10=070|8=FIX.4.4|9=52|35=0|34=26|49=MMMAQA|52=20201015-10:14:07.373|56=MA|10=071|8=FIX.4.4|9=52|35=0|34=27|49=MMMAQA|52=20201015-10:15:37.373|56=MA|10=076|8=FIX.4.4|9=52|35=0|34=28|49=MMMAQA|52=20201015-10:17:07.375|56=MA|10=078|8=FIX.4.4|9=52|35=0|34=29|49=MMMAQA|52=20201015-10:18:37.376|56=MA|10=084|8=FIX.4.4|9=52|35=0|34=30|49=MMMAQA|52=20201015-10:20:07.378|56=MA|10=068|8=FIX.4.4|9=52|35=0|34=31|49=MMMAQA|52=20201015-10:21:38.378|56=MA|10=074|8=FIX.4.4|9=52|35=0|34=32|49=MMMAQA|52=20201015-10:23:08.378|56=MA|10=074|8=FIX.4.4|9=52|35=0|34=33|49=MMMAQA|52=20201015-10:24:39.378|56=MA|10=080|8=FIX.4.4|9=52|35=0|34=34|49=MMMAQA|52=20201015-10:26:09.379|56=MA|10=081|8=FIX.4.4|9=52|35=0|34=35|49=MMMAQA|52=20201015-10:27:39.379|56=MA|10=086|8=FIX.4.4|9=52|35=0|34=36|49=MMMAQA|52=20201015-10:29:10.379|56=MA|10=078|8=FIX.4.4|9=52|35=0|34=37|49=MMMAQA|52=20201015-10:30:40.379|56=MA|10=074|8=FIX.4.4|9=52|35=0|34=38|49=MMMAQA|52=20201015-10:32:10.379|56=MA|10=074|8=FIX.4.4|9=52|35=0|34=39|49=MMMAQA|52=20201015-10:33:40.381|56=MA|10=072|8=FIX.4.4|9=52|35=0|34=40|49=MMMAQA|52=20201015-10:35:11.379|56=MA|10=071|8=FIX.4.4|9=52|35=0|34=41|49=MMMAQA|52=20201015-10:36:41.381|56=MA|10=069|8=FIX.4.4|9=52|35=0|34=42|49=MMMAQA|52=20201015-10:38:12.380|56=MA|10=069|8=FIX.4.4|9=52|35=0|34=43|49=MMMAQA|52=20201015-10:39:43.380|56=MA|10=075|8=FIX.4.4|9=52|35=0|34=44|49=MMMAQA|52=20201015-10:41:13.380|56=MA|10=066|8=FIX.4.4|9=52|35=0|34=45|49=MMMAQA|52=20201015-10:42:43.380|56=MA|10=071|8=FIX.4.4|9=52|35=0|34=46|49=MMMAQA|52=20201015-10:44:13.380|56=MA|10=071|8=FIX.4.4|9=52|35=0|34=47|49=MMMAQA|52=20201015-10:45:43.380|56=MA|10=076|8=FIX.4.4|9=52|35=0|34=48|49=MMMAQA|52=20201015-10:47:14.380|56=MA|10=077|8=FIX.4.4|9=52|35=0|34=49|49=MMMAQA|52=20201015-10:48:45.379|56=MA|10=091|8=FIX.4.4|9=52|35=0|34=50|49=MMMAQA|52=20201015-10:50:15.380|56=MA|10=065|8=FIX.4.4|9=52|35=0|34=51|49=MMMAQA|52=20201015-10:51:46.378|56=MA|10=078|8=FIX.4.4|9=52|35=0|34=52|49=MMMAQA|52=20201015-10:53:16.378|56=MA|10=078|8=FIX.4.4|9=52|35=0|34=53|49=MMMAQA|52=20201015-10:54:47.377|56=MA|10=083|8=FIX.4.4|9=52|35=0|34=54|49=MMMAQA|52=20201015-10:56:17.377|56=MA|10=083|8=FIX.4.4|9=52|35=0|34=55|49=MMMAQA|52=20201015-10:57:47.377|56=MA|10=088|8=FIX.4.4|9=52|35=0|34=56|49=MMMAQA|52=20201015-10:59:17.377|56=MA|10=088|8=FIX.4.4|9=52|35=0|34=57|49=MMMAQA|52=20201015-11:00:48.377|56=MA|10=080|8=FIX.4.4|9=52|35=0|34=58|49=MMMAQA|52=20201015-11:02:18.377|56=MA|10=080|8=FIX.4.4|9=52|35=0|34=59|49=MMMAQA|52=20201015-11:03:49.377|56=MA|10=086|8=FIX.4.4|9=52|35=0|34=60|49=MMMAQA|52=20201015-11:05:20.376|56=MA|10=068|8=FIX.4.4|9=52|35=0|34=61|49=MMMAQA|52=20201015-11:06:50.377|56=MA|10=074|8=FIX.4.4|9=52|35=0|34=62|49=MMMAQA|52=20201015-11:08:21.376|56=MA|10=074|8=FIX.4.4|9=52|35=0|34=63|49=MMMAQA|52=20201015-11:09:51.377|56=MA|10=080|8=FIX.4.4|9=52|35=0|34=64|49=MMMAQA|52=20201015-11:11:21.377|56=MA|10=071|8=FIX.4.4|9=52|35=0|34=65|49=MMMAQA|52=20201015-11:12:52.375|56=MA|10=075|8=FIX.4.4|9=52|35=0|34=66|49=MMMAQA|52=20201015-11:14:22.375|56=MA|10=075|8=FIX.4.4|9=52|35=5|34=67|49=MMMAQA|52=20201015-11:15:27.556|56=MA|10=088|8=FIX.4.4|9=86|35=A|34=1|49=MMMAQA|52=20201016-09:31:35.438|56=MA|98=0|108=90|95=8|96=3.0.0rc5|141=Y|10=009|8=FIX.4.4|9=615|35=E|34=2|49=MMMAQA|52=20201016-09:32:17.868|56=MA|66=MMAD-FIX44-ListID-161020-1177|394=2|68=5|73=5|11=FIX44-List-ClOrdID-1178|22=4|38=100000|48=US06051GEN51|54=1|55=[N/A/]|67=1|423=1|453=1|448=MMMAQA|447=C|452=11|11=FIX44-List-ClOrdID-1179|22=4|38=100000|48=US40434AAB52|54=1|55=[N/A]|67=2|11=FIX44-List-ClOrdID-1180|22=4|38=130000|48=US06738JYZ10|54=1|55=[N/A/]|67=1|453=1|448=MMMAQA|447=C|452=11|11=FIX44-List-ClOrdID-1181|22=4|38=250000|48=US95709TAH32|54=1|55=[N/A/]|67=1|453=1|448=MMMAQA|447=C|452=11|11=FIX44-List-ClOrdID-1182|22=4|38=350000|48=US29379VAW37|54=1|55=[N/A/]|67=1|453=1|448=MMMAQA|447=C|452=11|10=145|8=FIX.4.4|9=51|35=0|34=3|49=MMMAQA|52=20201016-09:33:48.389|56=MA|10=039|8=FIX.4.4|9=51|35=0|34=4|49=MMMAQA|52=20201016-09:35:18.439|56=MA|10=035|8=FIX.4.4|9=51|35=0|34=5|49=MMMAQA|52=20201016-09:36:49.389|56=MA|10=045|8=FIX.4.4|9=51|35=0|34=6|49=MMMAQA|52=20201016-09:38:19.441|56=MA|10=034|8=FIX.4.4|9=51|35=0|34=7|49=MMMAQA|52=20201016-09:39:49.441|56=MA|10=039|8=FIX.4.4|9=51|35=0|34=8|49=MMMAQA|52=20201016-09:41:19.441|56=MA|10=030|8=FIX.4.4|9=51|35=0|34=9|49=MMMAQA|52=20201016-09:42:49.442|56=MA|10=036|8=FIX.4.4|9=52|35=0|34=10|49=MMMAQA|52=20201016-09:44:19.442|56=MA|10=076|8=FIX.4.4|9=52|35=0|34=11|49=MMMAQA|52=20201016-09:45:49.442|56=MA|10=081|8=FIX.4.4|9=52|35=0|34=12|49=MMMAQA|52=20201016-09:47:19.444|56=MA|10=083|8=FIX.4.4|9=52|35=0|34=13|49=MMMAQA|52=20201016-09:48:49.444|56=MA|10=088|8=FIX.4.4|9=52|35=0|34=14|49=MMMAQA|52=20201016-09:50:19.444|56=MA|10=079|8=FIX.4.4|9=52|35=0|34=15|49=MMMAQA|52=20201016-09:51:50.443|56=MA|10=075|8=FIX.4.4|9=52|35=0|34=16|49=MMMAQA|52=20201016-09:53:20.444|56=MA|10=076|8=FIX.4.4|9=52|35=0|34=17|49=MMMAQA|52=20201016-09:54:50.445|56=MA|10=082|8=FIX.4.4|9=52|35=0|34=18|49=MMMAQA|52=20201016-09:56:20.445|56=MA|10=082|8=FIX.4.4|9=52|35=0|34=19|49=MMMAQA|52=20201016-09:57:51.444|56=MA|10=087|8=FIX.4.4|9=52|35=0|34=20|49=MMMAQA|52=20201016-09:59:21.444|56=MA|10=078|8=FIX.4.4|9=52|35=0|34=21|49=MMMAQA|52=20201016-10:00:51.444|56=MA|10=060|8=FIX.4.4|9=52|35=0|34=22|49=MMMAQA|52=20201016-10:02:21.444|56=MA|10=060|8=FIX.4.4|9=52|35=0|34=23|49=MMMAQA|52=20201016-10:03:51.444|56=MA|10=065|8=FIX.4.4|9=52|35=0|34=24|49=MMMAQA|52=20201016-10:05:21.445|56=MA|10=066|8=FIX.4.4|9=52|35=0|34=25|49=MMMAQA|52=20201016-10:06:52.444|56=MA|10=071|8=FIX.4.4|9=52|35=0|34=26|49=MMMAQA|52=20201016-10:08:22.445|56=MA|10=072|8=FIX.4.4|9=52|35=0|34=27|49=MMMAQA|52=20201016-10:09:52.446|56=MA|10=078|8=FIX.4.4|9=52|35=0|34=28|49=MMMAQA|52=20201016-10:11:22.446|56=MA|10=069|8=FIX.4.4|9=52|35=0|34=29|49=MMMAQA|52=20201016-10:12:53.444|56=MA|10=073|8=FIX.4.4|9=52|35=0|34=30|49=MMMAQA|52=20201016-10:14:23.444|56=MA|10=064|8=FIX.4.4|9=52|35=0|34=31|49=MMMAQA|52=20201016-10:15:53.445|56=MA|10=070|8=FIX.4.4|9=52|35=0|34=32|49=MMMAQA|52=20201016-10:17:23.446|56=MA|10=071|8=FIX.4.4|9=52|35=0|34=33|49=MMMAQA|52=20201016-10:18:53.447|56=MA|10=077|8=FIX.4.4|9=52|35=0|34=34|49=MMMAQA|52=20201016-10:20:23.448|56=MA|10=069|8=FIX.4.4|9=52|35=0|34=35|49=MMMAQA|52=20201016-10:21:53.449|56=MA|10=075|8=FIX.4.4|9=52|35=0|34=36|49=MMMAQA|52=20201016-10:23:24.449|56=MA|10=076|8=FIX.4.4|9=52|35=0|34=37|49=MMMAQA|52=20201016-10:24:54.449|56=MA|10=081|8=FIX.4.4|9=52|35=0|34=38|49=MMMAQA|52=20201016-10:26:24.450|56=MA|10=073|8=FIX.4.4|9=52|35=0|34=39|49=MMMAQA|52=20201016-10:27:55.450|56=MA|10=079|8=FIX.4.4|9=52|35=0|34=40|49=MMMAQA|52=20201016-10:29:25.451|56=MA|10=071|8=FIX.4.4|9=52|35=0|34=41|49=MMMAQA|52=20201016-10:30:55.451|56=MA|10=067|8=FIX.4.4|9=52|35=0|34=42|49=MMMAQA|52=20201016-10:32:26.449|56=MA|10=075|8=FIX.4.4|9=52|35=0|34=43|49=MMMAQA|52=20201016-10:33:56.450|56=MA|10=072|8=FIX.4.4|9=52|35=0|34=44|49=MMMAQA|52=20201016-10:35:26.450|56=MA|10=072|8=FIX.4.4|9=52|35=0|34=45|49=MMMAQA|52=20201016-10:36:57.449|56=MA|10=086|8=FIX.4.4|9=52|35=0|34=46|49=MMMAQA|52=20201016-10:38:27.449|56=MA|10=086|8=FIX.4.4|9=52|35=0|34=47|49=MMMAQA|52=20201016-10:39:57.449|56=MA|10=091|8=FIX.4.4|9=52|35=0|34=48|49=MMMAQA|52=20201016-10:41:27.449|56=MA|10=082|8=FIX.4.4|9=52|35=0|34=49|49=MMMAQA|52=20201016-10:42:57.449|56=MA|10=087|8=FIX.4.4|9=52|35=0|34=50|49=MMMAQA|52=20201016-10:44:28.448|56=MA|10=078|8=FIX.4.4|9=52|35=0|34=51|49=MMMAQA|52=20201016-10:45:58.448|56=MA|10=083|8=FIX.4.4|9=52|35=0|34=52|49=MMMAQA|52=20201016-10:47:28.448|56=MA|10=083|8=FIX.4.4|9=52|35=0|34=53|49=MMMAQA|52=20201016-10:48:58.449|56=MA|10=089|8=FIX.4.4|9=52|35=0|34=54|49=MMMAQA|52=20201016-10:50:28.451|56=MA|10=073|8=FIX.4.4|9=52|35=0|34=55|49=MMMAQA|52=20201016-10:51:58.452|56=MA|10=079|8=FIX.4.4|9=52|35=0|34=56|49=MMMAQA|52=20201016-10:53:28.455|56=MA|10=082|8=FIX.4.4|9=52|35=0|34=57|49=MMMAQA|52=20201016-10:54:58.456|56=MA|10=088|8=FIX.4.4|9=52|35=0|34=58|49=MMMAQA|52=20201016-10:56:28.457|56=MA|10=089|8=FIX.4.4|9=52|35=0|34=59|49=MMMAQA|52=20201016-10:57:58.457|56=MA|10=094|8=FIX.4.4|9=52|35=0|34=60|49=MMMAQA|52=20201016-10:59:28.458|56=MA|10=086|8=FIX.4.4|9=52|35=0|34=61|49=MMMAQA|52=20201016-11:00:58.458|56=MA|10=077|8=FIX.4.4|9=52|35=0|34=62|49=MMM