8=FIX.4.4|9=82|35=A|34=1|49=EHABAXUK|52=20181115-17:22:07.423|56=MA|98=0|108=90|95=8|96=3.0.0rc4|10=101|8=FIX.4.4|9=53|35=0|34=2|49=EHABAXUK|52=20181115-17:23:38.021|56=MA|10=170|8=FIX.4.4|9=53|35=0|34=3|49=EHABAXUK|52=20181115-17:25:08.397|56=MA|10=186|8=FIX.4.4|9=53|35=0|34=4|49=EHABAXUK|52=20181115-17:26:38.397|56=MA|10=191|8=FIX.4.4|9=53|35=0|34=5|49=EHABAXUK|52=20181115-17:28:08.397|56=MA|10=191|8=FIX.4.4|9=53|35=0|34=6|49=EHABAXUK|52=20181115-17:29:39.018|56=MA|10=187|8=FIX.4.4|9=53|35=0|34=7|49=EHABAXUK|52=20181115-17:31:09.050|56=MA|10=174|8=FIX.4.4|9=53|35=0|34=8|49=EHABAXUK|52=20181115-17:32:39.138|56=MA|10=186|8=FIX.4.4|9=53|35=0|34=9|49=EHABAXUK|52=20181115-17:34:09.394|56=MA|10=190|8=FIX.4.4|9=54|35=0|34=10|49=EHABAXUK|52=20181115-17:35:39.394|56=MA|10=235|8=FIX.4.4|9=54|35=0|34=11|49=EHABAXUK|52=20181115-17:37:10.199|56=MA|10=230|8=FIX.4.4|9=54|35=0|34=12|49=EHABAXUK|52=20181115-17:38:40.393|56=MA|10=231|8=FIX.4.4|9=54|35=0|34=13|49=EHABAXUK|52=20181115-17:40:10.393|56=MA|10=222|8=FIX.4.4|9=54|35=0|34=14|49=EHABAXUK|52=20181115-17:41:41.127|56=MA|10=223|8=FIX.4.4|9=54|35=0|34=15|49=EHABAXUK|52=20181115-17:43:11.390|56=MA|10=225|8=FIX.4.4|9=54|35=0|34=16|49=EHABAXUK|52=20181115-17:44:41.390|56=MA|10=230|8=FIX.4.4|9=54|35=0|34=17|49=EHABAXUK|52=20181115-17:46:12.389|56=MA|10=239|8=FIX.4.4|9=54|35=0|34=18|49=EHABAXUK|52=20181115-17:47:43.016|56=MA|10=232|8=FIX.4.4|9=54|35=0|34=19|49=EHABAXUK|52=20181115-17:49:13.027|56=MA|10=234|8=FIX.4.4|9=54|35=0|34=20|49=EHABAXUK|52=20181115-17:50:43.143|56=MA|10=220|8=FIX.4.4|9=54|35=0|34=21|49=EHABAXUK|52=20181115-17:52:13.386|56=MA|10=229|8=FIX.4.4|9=54|35=0|34=22|49=EHABAXUK|52=20181115-17:53:44.111|56=MA|10=221|8=FIX.4.4|9=54|35=0|34=23|49=EHABAXUK|52=20181115-17:55:14.125|56=MA|10=226|8=FIX.4.4|9=54|35=0|34=24|49=EHABAXUK|52=20181115-17:56:44.140|56=MA|10=228|8=FIX.4.4|9=54|35=0|34=25|49=EHABAXUK|52=20181115-17:58:14.383|56=MA|10=237|8=FIX.4.4|9=54|35=0|34=26|49=EHABAXUK|52=20181115-17:59:45.139|56=MA|10=242|8=FIX.4.4|9=54|35=0|34=27|49=EHABAXUK|52=20181115-18:01:15.382|56=MA|10=228|8=FIX.4.4|9=54|35=0|34=28|49=EHABAXUK|52=20181115-18:02:46.097|56=MA|10=237|8=FIX.4.4|9=54|35=0|34=29|49=EHABAXUK|52=20181115-18:04:16.381|56=MA|10=233|8=FIX.4.4|9=54|35=0|34=30|49=EHABAXUK|52=20181115-18:05:46.381|56=MA|10=229|8=FIX.4.4|9=54|35=0|34=31|49=EHABAXUK|52=20181115-18:07:17.140|56=MA|10=223|8=FIX.4.4|9=54|35=0|34=32|49=EHABAXUK|52=20181115-18:08:47.379|56=MA|10=242|8=FIX.4.4|9=54|35=0|34=33|49=EHABAXUK|52=20181115-18:10:18.132|56=MA|10=221|8=FIX.4.4|9=54|35=0|34=34|49=EHABAXUK|52=20181115-18:11:48.136|56=MA|10=230|8=FIX.4.4|9=54|35=0|34=35|49=EHABAXUK|52=20181115-18:13:18.140|56=MA|10=225|8=FIX.4.4|9=54|35=0|34=36|49=EHABAXUK|52=20181115-18:14:48.378|56=MA|10=243|8=FIX.4.4|9=54|35=0|34=37|49=EHABAXUK|52=20181115-18:16:19.135|56=MA|10=235|8=FIX.4.4|9=54|35=0|34=38|49=EHABAXUK|52=20181115-18:17:49.376|56=MA|10=247|8=FIX.4.4|9=54|35=0|34=39|49=EHABAXUK|52=20181115-18:19:20.018|56=MA|10=232|8=FIX.4.4|9=54|35=0|34=40|49=EHABAXUK|52=20181115-18:20:50.202|56=MA|10=214|8=FIX.4.4|9=54|35=0|34=41|49=EHABAXUK|52=20181115-18:22:20.374|56=MA|10=224|8=FIX.4.4|9=54|35=0|34=42|49=EHABAXUK|52=20181115-18:23:50.374|56=MA|10=229|8=FIX.4.4|9=54|35=0|34=43|49=EHABAXUK|52=20181115-18:25:20.374|56=MA|10=229|8=FIX.4.4|9=54|35=0|34=44|49=EHABAXUK|52=20181115-18:26:51.137|56=MA|10=232|8=FIX.4.4|9=54|35=0|34=45|49=EHABAXUK|52=20181115-18:28:21.373|56=MA|10=234|8=FIX.4.4|9=54|35=0|34=46|49=EHABAXUK|52=20181115-18:29:52.141|56=MA|10=233|8=FIX.4.4|9=54|35=0|34=47|49=EHABAXUK|52=20181115-18:31:22.371|56=MA|10=229|8=FIX.4.4|9=54|35=0|34=48|49=EHABAXUK|52=20181115-18:32:52.371|56=MA|10=234|8=FIX.4.4|9=54|35=0|34=49|49=EHABAXUK|52=20181115-18:34:23.138|56=MA|10=236|8=FIX.4.4|9=54|35=0|34=50|49=EHABAXUK|52=20181115-18:35:53.369|56=MA|10=238|8=FIX.4.4|9=54|35=0|34=51|49=EHABAXUK|52=20181115-18:37:24.021|56=MA|10=224|8=FIX.4.4|9=54|35=0|34=52|49=EHABAXUK|52=20181115-18:38:54.136|56=MA|10=236|8=FIX.4.4|9=54|35=0|34=53|49=EHABAXUK|52=20181115-18:40:24.368|56=MA|10=234|8=FIX.4.4|9=54|35=0|34=54|49=EHABAXUK|52=20181115-18:41:55.022|56=MA|10=227|8=FIX.4.4|9=54|35=0|34=55|49=EHABAXUK|52=20181115-18:43:25.366|56=MA|10=238|8=FIX.4.4|9=54|35=0|34=56|49=EHABAXUK|52=20181115-18:44:55.366|56=MA|10=243|8=FIX.4.4|9=54|35=0|34=57|49=EHABAXUK|52=20181115-18:46:25.366|56=MA|10=243|8=FIX.4.4|9=54|35=0|34=58|49=EHABAXUK|52=20181115-18:47:56.126|56=MA|10=243|8=FIX.4.4|9=54|35=0|34=59|49=EHABAXUK|52=20181115-18:49:26.136|56=MA|10=244|8=FIX.4.4|9=54|35=0|34=60|49=EHABAXUK|52=20181115-18:50:56.364|56=MA|10=234|8=FIX.4.4|9=54|35=0|34=61|49=EHABAXUK|52=20181115-18:52:26.364|56=MA|10=234|8=FIX.4.4|9=54|35=0|34=62|49=EHABAXUK|52=20181115-18:53:57.161|56=MA|10=235|8=FIX.4.4|9=54|35=0|34=63|49=EHABAXUK|52=20181115-18:55:27.362|56=MA|10=238|8=FIX.4.4|9=54|35=0|34=64|49=EHABAXUK|52=20181115-18:56:58.021|56=MA|10=236|8=FIX.4.4|9=54|35=0|34=65|49=EHABAXUK|52=20181115-18:58:28.023|56=MA|10=238|8=FIX.4.4|9=54|35=0|34=66|49=EHABAXUK|52=20181115-18:59:58.095|56=MA|10=252|8=FIX.4.4|9=54|35=0|34=67|49=EHABAXUK|52=20181115-19:01:28.113|56=MA|10=229|8=FIX.4.4|9=54|35=0|34=68|49=EHABAXUK|52=20181115-19:02:58.360|56=MA|10=238|8=FIX.4.4|9=54|35=0|34=69|49=EHABAXUK|52=20181115-19:04:29.137|56=MA|10=241|8=FIX.4.4|9=54|35=0|34=70|49=EHABAXUK|52=20181115-19:05:59.358|56=MA|10=242|8=FIX.4.4|9=54|35=0|34=71|49=EHABAXUK|52=20181115-19:07:29.358|56=MA|10=242|8=FIX.4.4|9=54|35=0|34=72|49=EHABAXUK|52=20181115-19:08:59.358|56=MA|10=247|8=FIX.4.4|9=54|35=0|34=73|49=EHABAXUK|52=20181115-19:10:30.206|56=MA|10=222|8=FIX.4.4|9=54|35=0|34=74|49=EHABAXUK|52=20181115-19:12:00.356|56=MA|10=228|8=FIX.4.4|9=54|35=0|34=75|49=EHABAXUK|52=20181115-19:13:30.356|56=MA|10=233|8=FIX.4.4|9=54|35=0|34=76|49=EHABAXUK|52=20181115-19:15:01.355|56=MA|10=233|8=FIX.4.4|9=54|35=0|34=77|49=EHABAXUK|52=20181115-19:16:32.140|56=MA|10=231|8=FIX.4.4|9=54|35=0|34=78|49=EHABAXUK|52=20181115-19:18:02.354|56=MA|10=238|8=FIX.4.4|9=54|35=0|34=79|49=EHABAXUK|52=20181115-19:19:32.354|56=MA|10=243|8=FIX.4.4|9=54|35=0|34=80|49=EHABAXUK|52=20181115-19:21:03.024|56=MA|10=220|8=FIX.4.4|9=54|35=0|34=81|49=EHABAXUK|52=20181115-19:22:33.052|56=MA|10=226|8=FIX.4.4|9=54|35=0|34=82|49=EHABAXUK|52=20181115-19:24:03.352|56=MA|10=229|8=FIX.4.4|9=54|35=0|34=83|49=EHABAXUK|52=20181115-19:25:34.135|56=MA|10=234|8=FIX.4.4|9=54|35=0|34=84|49=EHABAXUK|52=20181115-19:27:04.351|56=MA|10=234|8=FIX.4.4|9=54|35=0|34=85|49=EHABAXUK|52=20181115-19:28:35.021|56=MA|10=234|8=FIX.4.4|9=54|35=0|34=86|49=EHABAXUK|52=20181115-19:30:05.022|56=MA|10=226|8=FIX.4.4|9=54|35=0|34=87|49=EHABAXUK|52=20181115-19:31:35.138|56=MA|10=239|8=FIX.4.4|9=54|35=0|34=88|49=EHABAXUK|52=20181115-19:33:05.347|56=MA|10=241|8=FIX.4.4|9=54|35=0|34=89|49=EHABAXUK|52=20181115-19:34:36.142|56=MA|10=240|8=FIX.4.4|9=54|35=0|34=90|49=EHABAXUK|52=20181115-19:36:06.345|56=MA|10=236|8=FIX.4.4|9=54|35=0|34=91|49=EHABAXUK|52=20181115-19:37:36.345|56=MA|10=241|8=FIX.4.4|9=54|35=0|34=92|49=EHABAXUK|52=20181115-19:39:06.345|56=MA|10=241|8=FIX.4.4|9=54|35=0|34=93|49=EHABAXUK|52=20181115-19:40:37.344|56=MA|10=237|8=FIX.4.4|9=54|35=0|34=94|49=EHABAXUK|52=20181115-19:42:08.030|56=MA|10=230|8=FIX.4.4|9=54|35=0|34=95|49=EHABAXUK|52=20181115-19:43:38.153|56=MA|10=241|8=FIX.4.4|9=54|35=0|34=96|49=EHABAXUK|52=20181115-19:45:08.342|56=MA|10=241|8=FIX.4.4|9=54|35=0|34=97|49=EHABAXUK|52=20181115-19:46:38.342|56=MA|10=246|8=FIX.4.4|9=54|35=0|34=98|49=EHABAXUK|52=20181115-19:48:09.143|56=MA|10=246|8=FIX.4.4|9=54|35=0|34=99|49=EHABAXUK|52=20181115-19:49:39.341|56=MA|10=251|8=FIX.4.4|9=55|35=0|34=100|49=EHABAXUK|52=20181115-19:51:10.222|56=MA|10=007|8=FIX.4.4|9=55|35=0|34=101|49=EHABAXUK|52=20181115-19:52:40.339|56=MA|10=021|8=FIX.4.4|9=55|35=0|34=102|49=EHABAXUK|52=20181115-19:54:10.339|56=MA|10=021|8=FIX.4.4|9=55|35=0|34=103|49=EHABAXUK|52=20181115-19:55:41.051|56=MA|10=018|8=FIX.4.4|9=55|35=0|34=104|49=EHABAXUK|52=20181115-19:57:11.337|56=MA|10=025|8=FIX.4.4|9=55|35=0|34=105|49=EHABAXUK|52=20181115-19:58:41.338|56=MA|10=031|8=FIX.4.4|9=55|35=0|34=106|49=EHABAXUK|52=20181115-20:00:12.128|56=MA|10=006|8=FIX.4.4|9=55|35=0|34=107|49=EHABAXUK|52=20181115-20:01:42.149|56=MA|10=014|8=FIX.4.4|9=55|35=0|34=108|49=EHABAXUK|52=20181115-20:03:12.335|56=MA|10=011|8=FIX.4.4|9=55|35=0|34=109|49=EHABAXUK|52=20181115-20:04:42.335|56=MA|10=016|8=FIX.4.4|9=55|35=0|34=110|49=EHABAXUK|52=20181115-20:06:12.335|56=MA|10=007|8=FIX.4.4|9=55|35=0|34=111|49=EHABAXUK|52=20181115-20:07:43.334|56=MA|10=012|8=FIX.4.4|9=55|35=0|34=112|49=EHABAXUK|52=20181115-20:09:14.129|56=MA|10=015|8=FIX.4.4|9=55|35=0|34=113|49=EHABAXUK|52=20181115-20:10:44.143|56=MA|10=007|8=FIX.4.4|9=55|35=0|34=114|49=EHABAXUK|52=20181115-20:12:14.333|56=MA|10=008|8=FIX.4.4|9=55|35=0|34=115|49=EHABAXUK|52=20181115-20:13:45.035|56=MA|10=013|8=FIX.4.4|9=55|35=0|34=116|49=EHABAXUK|52=20181115-20:15:15.141|56=MA|10=011|8=FIX.4.4|9=55|35=0|34=117|49=EHABAXUK|52=20181115-20:16:45.331|56=MA|10=017|8=FIX.4.4|9=55|35=0|34=118|49=EHABAXUK|52=20181115-20:18:16.137|56=MA|10=022|8=FIX.4.4|9=55|35=0|34=119|49=EHABAXUK|52=20181115-20:19:46.330|56=MA|10=022|8=FIX.4.4|9=55|35=0|34=120|49=EHABAXUK|52=20181115-20:21:16.330|56=MA|10=004|8=FIX.4.4|9=55|35=0|34=121|49=EHABAXUK|52=20181115-20:22:47.140|56=MA|10=009|8=FIX.4.4|9=55|35=0|34=122|49=EHABAXUK|52=20181115-20:24:17.142|56=MA|10=011|8=FIX.4.4|9=55|35=0|34=123|49=EHABAXUK|52=20181115-20:25:47.327|56=MA|10=021|8=FIX.4.4|9=55|35=0|34=124|49=EHABAXUK|52=20181115-20:27:17.327|56=MA|10=021|8=FIX.4.4|9=55|35=0|34=125|49=EHABAXUK|52=20181115-20:28:48.326|56=MA|10=026|8=FIX.4.4|9=55|35=0|34=126|49=EHABAXUK|52=20181115-20:30:19.170|56=MA|10=015|8=FIX.4.4|9=55|35=0|34=127|49=EHABAXUK|52=20181115-20:31:49.325|56=MA|10=022|8=FIX.4.4|9=55|35=0|34=128|49=EHABAXUK|52=20181115-20:33:19.325|56=MA|10=022|8=FIX.4.4|9=55|35=0|34=129|49=EHABAXUK|52=20181115-20:34:50.214|56=MA|10=016|8=FIX.4.4|9=55|35=0|34=130|49=EHABAXUK|52=20181115-20:36:20.323|56=MA|10=008|8=FIX.4.4|9=55|35=0|34=131|49=EHABAXUK|52=20181115-20:37:51.155|56=MA|10=017|8=FIX.4.4|9=55|35=0|34=132|49=EHABAXUK|52=20181115-20:39:21.322|56=MA|10=013|8=FIX.4.4|9=55|35=0|34=133|49=EHABAXUK|52=20181115-20:40:52.028|56=MA|10=013|8=FIX.4.4|9=55|35=0|34=134|49=EHABAXUK|52=20181115-20:42:22.098|56=MA|10=020|8=FIX.4.4|9=55|35=0|34=135|49=EHABAXUK|52=20181115-20:43:52.143|56=MA|10=016|8=FIX.4.4|9=55|35=0|34=136|49=EHABAXUK|52=20181115-20:45:22.320|56=MA|10=013|8=FIX.4.4|9=55|35=0|34=137|49=EHABAXUK|52=20181115-20:46:52.321|56=MA|10=019|8=FIX.4.4|9=55|35=0|34=138|49=EHABAXUK|52=20181115-20:48:23.134|56=MA|10=022|8=FIX.4.4|9=55|35=0|34=139|49=EHABAXUK|52=20181115-20:49:53.147|56=MA|10=031|8=FIX.4.4|9=55|35=0|34=140|49=EHABAXUK|52=20181115-20:51:23.318|56=MA|10=013|8=FIX.4.4|9=55|35=0|34=141|49=EHABAXUK|52=20181115-20:52:54.152|56=MA|10=015|8=FIX.4.4|9=55|35=0|34=142|49=EHABAXUK|52=20181115-20:54:24.317|56=MA|10=018|8=FIX.4.4|9=55|35=0|34=143|49=EHABAXUK|52=20181115-20:55:55.030|56=MA|10=016|8=FIX.4.4|9=55|35=0|34=144|49=EHABAXUK|52=20181115-20:57:25.145|56=MA|10=023|8=FIX.4.4|9=55|35=0|34=145|49=EHABAXUK|52=20181115-20:58:55.316|56=MA|10=028|8=FIX.4.4|9=55|35=0|34=146|49=EHABAXUK|52=20181115-21:00:26.031|56=MA|10=009|8=FIX.4.4|9=55|35=0|34=147|49=EHABAXUK|52=20181115-21:01:56.078|56=MA|10=025|8=FIX.4.4|9=55|35=0|34=148|49=EHABAXUK|52=20181115-21:03:26.140|56=MA|10=015|8=FIX.4.4|9=55|35=0|34=149|49=EHABAXUK|52=20181115-21:04:56.312|56=MA|10=021|8=FIX.4.4|9=55|35=0|34=150|49=EHABAXUK|52=20181115-21:06:26.312|56=MA|10=012|8=FIX.4.4|9=55|35=0|34=151|49=EHABAXUK|52=20181115-21:07:57.311|56=MA|10=017|8=FIX.4.4|9=55|35=0|34=152|49=EHABAXUK|52=20181115-21:09:28.141|56=MA|10=019|8=FIX.4.4|9=55|35=0|34=153|49=EHABAXUK|52=20181115-21:10:58.309|56=MA|10=021|8=FIX.4.4|9=55|35=0|34=154|49=EHABAXUK|52=20181115-21:12:29.119|56=MA|10=021|8=FIX.4.4|9=55|35=0|34=155|49=EHABAXUK|52=20181115-21:13:59.308|56=MA|10=026|8=FIX.4.4|9=55|35=0|34=156|49=EHABAXUK|52=20181115-21:15:30.215|56=MA|10=015|8=FIX.4.4|9=55|35=0|34=157|49=EHABAXUK|52=20181115-21:17:00.306|56=MA|10=016|8=FIX.4.4|9=55|35=0|34=158|49=EHABAXUK|52=20181115-21:18:30.306|56=MA|10=021|8=FIX.4.4|9=55|35=0|34=159|49=EHABAXUK|52=20181115-21:20:01.067|56=MA|10=017|8=FIX.4.4|9=55|35=0|34=160|49=EHABAXUK|52=20181115-21:21:31.089|56=MA|10=017|8=FIX.4.4|9=55|35=0|34=161|49=EHABAXUK|52=20181115-21:23:01.304|56=MA|10=007|8=FIX.4.4|9=55|35=0|34=162|49=EHABAXUK|52=20181115-21:24:31.304|56=MA|10=012|8=FIX.4.4|9=55|35=0|34=163|49=EHABAXUK|52=20181115-21:26:02.028|56=MA|10=016|8=FIX.4.4|9=55|35=0|34=164|49=EHABAXUK|52=20181115-21:27:32.149|56=MA|10=025|8=FIX.4.4|9=55|35=0|34=165|49=EHABAXUK|52=20181115-21:29:02.162|56=MA|10=020|8=FIX.4.4|9=55|35=0|34=166|49=EHABAXUK|52=20181115-21:30:32.301|56=MA|10=011|8=FIX.4.4|9=55|35=0|34=167|49=EHABAXUK|52=20181115-21:32:02.302|56=MA|10=012|8=FIX.4.4|9=55|35=0|34=168|49=EHABAXUK|52=20181115-21:33:33.155|56=MA|10=024|8=FIX.4.4|9=55|35=0|34=169|49=EHABAXUK|52=20181115-21:35:03.300|56=MA|10=016|8=FIX.4.4|9=55|35=0|34=170|49=EHABAXUK|52=20181115-21:36:33.300|56=MA|10=012|8=FIX.4.4|9=55|35=0|34=171|49=EHABAXUK|52=20181115-21:38:04.300|56=MA|10=013|8=FIX.4.4|9=55|35=0|34=172|49=EHABAXUK|52=20181115-21:39:35.126|56=MA|10=025|8=FIX.4.4|9=55|35=0|34=173|49=EHABAXUK|52=20181115-21:41:05.298|56=MA|10=026|8=FIX.4.4|9=55|35=0|34=174|49=EHABAXUK|52=20181115-21:42:36.146|56=MA|10=024|8=FIX.4.4|9=55|35=0|34=175|49=EHABAXUK|52=20181115-21:44:06.297|56=MA|10=031|8=FIX.4.4|9=55|35=0|34=176|49=EHABAXUK|52=20181115-21:45:37.028|56=MA|10=029|8=FIX.4.4|9=55|35=0|34=177|49=EHABAXUK|52=20181115-21:47:07.149|56=MA|10=033|8=FIX.4.4|9=55|35=0|34=178|49=EHABAXUK|52=20181115-21:48:37.294|56=MA|10=039|8=FIX.4.4|9=55|35=0|34=179|49=EHABAXUK|52=20181115-21:50:08.146|56=MA|10=027|8=FIX.4.4|9=55|35=0|34=180|49=EHABAXUK|52=20181115-21:51:38.292|56=MA|10=025|8=FIX.4.4|9=55|35=0|34=181|49=EHABAXUK|52=20181115-21:53:08.292|56=MA|10=025|8=FIX.4.4|9=55|35=0|34=182|49=EHABAXUK|52=20181115-21:54:39.141|56=MA|10=024|8=FIX.4.4|9=55|35=0|34=183|49=EHABAXUK|52=20181115-21:56:09.288|56=MA|10=036|8=FIX.4.4|9=55|35=0|34=184|49=EHABAXUK|52=20181115-21:57:39.288|56=MA|10=041|8=FIX.4.4|9=55|35=0|34=185|49=EHABAXUK|52=20181115-21:59:10.026|56=MA|10=023|8=FIX.4.4|9=55|35=0|34=186|49=EHABAXUK|52=20181115-22:00:40.284|56=MA|10=020|8=FIX.4.4|9=55|35=0|34=187|49=EHABAXUK|52=20181115-22:02:10.284|56=MA|10=020|8=FIX.4.4|9=55|35=0|34=188|49=EHABAXUK|52=20181115-22:03:40.284|56=MA|10=025|8=FIX.4.4|9=55|35=0|34=189|49=EHABAXUK|52=20181115-22:05:10.284|56=MA|10=025|8=FIX.4.4|9=55|35=0|34=190|49=EHABAXUK|52=20181115-22:06:40.284|56=MA|10=021|8=FIX.4.4|9=55|35=0|34=191|49=EHABAXUK|52=20181115-22:08:11.282|56=MA|10=020|8=FIX.4.4|9=55|35=0|34=192|49=EHABAXUK|52=20181115-22:09:42.281|56=MA|10=025|8=FIX.4.4|9=55|35=0|34=193|49=EHABAXUK|52=20181115-22:11:12.281|56=MA|10=016|8=FIX.4.4|9=55|35=0|34=194|49=EHABAXUK|52=20181115-22:12:42.282|56=MA|10=022|8=FIX.4.4|9=55|35=0|34=195|49=EHABAXUK|52=20181115-22:14:13.280|56=MA|10=021|8=FIX.4.4|9=55|35=0|34=196|49=EHABAXUK|52=20181115-22:15:43.280|56=MA|10=026|8=FIX.4.4|9=55|35=0|34=197|49=EHABAXUK|52=20181115-22:17:14.279|56=MA|10=035|8=FIX.4.4|9=55|35=0|34=198|49=EHABAXUK|52=20181115-22:18:45.279|56=MA|10=041|8=FIX.4.4|9=55|35=0|34=199|49=EHABAXUK|52=20181115-22:20:16.279|56=MA|10=033|8=FIX.4.4|9=55|35=0|34=200|49=EHABAXUK|52=20181115-22:21:47.278|56=MA|10=020|8=FIX.4.4|9=55|35=0|34=201|49=EHABAXUK|52=20181115-22:23:18.151|56=MA|10=011|8=FIX.4.4|9=55|35=0|34=202|49=EHABAXUK|52=20181115-22:24:48.274|56=MA|10=022|8=FIX.4.4|9=55|35=0|34=203|49=EHABAXUK|52=20181115-22:26:19.035|56=MA|10=018|8=FIX.4.4|9=55|35=0|34=204|49=EHABAXUK|52=20181115-22:27:49.135|56=MA|10=024|8=FIX.4.4|9=55|35=0|34=205|49=EHABAXUK|52=20181115-22:29:19.272|56=MA|10=026|8=FIX.4.4|9=55|35=0|34=206|49=EHABAXUK|52=20181115-22:30:49.272|56=MA|10=022|8=FIX.4.4|9=55|35=0|34=207|49=EHABAXUK|52=20181115-22:32:20.237|56=MA|10=015|8=FIX.4.4|9=55|35=0|34=208|49=EHABAXUK|52=20181115-22:33:50.271|56=MA|10=018|8=FIX.4.4|9=55|35=0|34=209|49=EHABAXUK|52=20181115-22:35:20.271|56=MA|10=018|8=FIX.4.4|9=55|35=0|34=210|49=EHABAXUK|52=20181115-22:36:51.018|56=MA|10=014|8=FIX.4.4|9=55|35=0|34=211|49=EHABAXUK|52=20181115-22:38:21.269|56=MA|10=022|8=FIX.4.4|9=55|35=0|34=212|49=EHABAXUK|52=20181115-22:39:51.269|56=MA|10=027|8=FIX.4.4|9=55|35=0|34=213|49=EHABAXUK|52=20181115-22:41:22.268|56=MA|10=018|8=FIX.4.4|9=55|35=0|34=214|49=EHABAXUK|52=20181115-22:42:53.267|56=MA|10=023|8=FIX.4.4|9=55|35=0|34=215|49=EHABAXUK|52=20181115-22:44:23.268|56=MA|10=024|8=FIX.4.4|9=55|35=0|34=216|49=EHABAXUK|52=20181115-22:45:54.133|56=MA|10=021|8=FIX.4.4|9=55|35=0|34=217|49=EHABAXUK|52=20181115-22:47:24.174|56=MA|10=026|8=FIX.4.4|9=55|35=0|34=218|49=EHABAXUK|52=20181115-22:48:54.265|56=MA|10=032|8=FIX.4.4|9=55|35=0|34=219|49=EHABAXUK|52=20181115-22:50:24.266|56=MA|10=024|8=FIX.4.4|9=55|35=0|34=220|49=EHABAXUK|52=20181115-22:51:54.266|56=MA|10=020|8=FIX.4.4|9=55|35=0|34=221|49=EHABAXUK|52=20181115-22:53:25.181|56=MA|10=017|8=FIX.4.4|9=55|35=0|34=222|49=EHABAXUK|52=20181115-22:54:55.264|56=MA|10=024|8=FIX.4.4|9=55|35=0|34=223|49=EHABAXUK|52=20181115-22:56:26.022|56=MA|10=017|8=FIX.4.4|9=55|35=0|34=224|49=EHABAXUK|52=20181115-22:57:56.131|56=MA|10=023|8=FIX.4.4|9=55|35=0|34=225|49=EHABAXUK|52=20181115-22:59:26.261|56=MA|10=027|8=FIX.4.4|9=55|35=0|34=226|49=EHABAXUK|52=20181115-23:00:56.262|56=MA|10=019|8=FIX.4.4|9=55|35=0|34=227|49=EHABAXUK|52=20181115-23:02:26.272|56=MA|10=020|8=FIX.4.4|9=55|35=0|34=228|49=EHABAXUK|52=20181115-23:03:57.120|56=MA|10=018|8=FIX.4.4|9=55|35=5|34=229|49=EHABAXUK|52=20181115-23:05:01.420|56=MA|10=018|8=FIX.4.4|9=84|35=A|34=230|49=EHABAXUK|52=20181116-11:24:34.827|56=MA|98=0|108=90|95=8|96=3.0.0rc4|10=208|8=FIX.4.4|9=106|35=5|34=231|49=EHABAXUK|52=20181116-11:24:35.410|56=MA|58=MsgSeqNum too low, expecting 230 but received 1|10=055|8=FIX.4.4|9=82|35=A|34=1|49=EHABAXUK|52=20181116-11:24:46.840|56=MA|98=0|108=90|95=8|96=3.0.0rc4|10=104|8=FIX.4.4|9=62|35=2|34=2|49=EHABAXUK|52=20181116-11:24:47.418|56=MA|7=1|16=0|10=045|8=FIX.4.4|9=53|35=0|34=3|49=EHABAXUK|52=20181116-11:26:17.827|56=MA|10=180|8=FIX.4.4|9=53|35=0|34=4|49=EHABAXUK|52=20181116-11:27:48.021|56=MA|10=172|8=FIX.4.4|9=53|35=0|34=5|49=EHABAXUK|52=20181116-11:29:18.829|56=MA|10=188|8=FIX.4.4|9=53|35=0|34=6|49=EHABAXUK|52=20181116-11:30:49.029|56=MA|10=177|8=FIX.4.4|9=53|35=0|34=7|49=EHABAXUK|52=20181116-11:32:19.832|56=MA|10=179|8=FIX.4.4|9=53|35=0|34=8|49=EHABAXUK|52=20181116-11:33:50.021|56=MA|10=166|8=FIX.4.4|9=53|35=0|34=9|49=EHABAXUK|52=20181116-11:35:20.822|56=MA|10=175|8=FIX.4.4|9=54|35=0|34=10|49=EHABAXUK|52=20181116-11:36:50.831|56=MA|10=220|8=FIX.4.4|9=54|35=0|34=11|49=EHABAXUK|52=20181116-11:38:21.828|56=MA|10=227|8=FIX.4.4|9=54|35=0|34=12|49=EHABAXUK|52=20181116-11:39:51.830|56=MA|10=225|8=FIX.4.4|9=54|35=0|34=13|49=EHABAXUK|52=20181116-11:41:22.826|56=MA|10=222|8=FIX.4.4|9=54|35=0|34=14|49=EHABAXUK|52=20181116-11:42:52.826|56=MA|10=227|8=FIX.4.4|9=54|35=0|34=15|49=EHABAXUK|52=20181116-11:44:22.830|56=MA|10=222|8=FIX.4.4|9=54|35=0|34=16|49=EHABAXUK|52=20181116-11:45:53.818|56=MA|10=234|8=FIX.4.4|9=54|35=0|34=17|49=EHABAXUK|52=20181116-11:47:23.820|56=MA|10=227|8=FIX.4.4|9=54|35=0|34=18|49=EHABAXUK|52=20181116-11:48:54.021|56=MA|10=226|8=FIX.4.4|9=54|35=0|34=19|49=EHABAXUK|52=20181116-11:50:24.825|56=MA|10=229|8=FIX.4.4|9=54|35=0|34=20|49=EHABAXUK|52=20181116-11:51:54.826|56=MA|10=226|8=FIX.4.4|9=54|35=0|34=21|49=EHABAXUK|52=20181116-11:53:24.997|56=MA|10=235|8=FIX.4.4|9=54|35=0|34=22|49=EHABAXUK|52=20181116-11:54:55.015|56=MA|10=222|8=FIX.4.4|9=54|35=0|34=23|49=EHABAXUK|52=20181116-11:56:25.814|56=MA|10=229|8=FIX.4.4|9=54|35=0|34=24|49=EHABAXUK|52=20181116-11:57:55.820|56=MA|10=231|8=FIX.4.4|9=54|35=0|34=25|49=EHABAXUK|52=20181116-11:59:25.824|56=MA|10=235|8=FIX.4.4|9=54|35=0|34=26|49=EHABAXUK|52=20181116-12:00:55.910|56=MA|10=222|8=FIX.4.4|9=54|35=0|34=27|49=EHABAXUK|52=20181116-12:02:26.818|56=MA|10=230|8=FIX.4.4|9=54|35=0|34=28|49=EHABAXUK|52=20181116-12:03:57.016|56=MA|10=226|8=FIX.4.4|9=54|35=0|34=29|49=EHABAXUK|52=20181116-12:05:27.017|56=MA|10=227|8=FIX.4.4|9=54|35=0|34=30|49=EHABAXUK|52=20181116-12:06:57.809|56=MA|10=232|8=FIX.4.4|9=54|35=0|34=31|49=EHABAXUK|52=20181116-12:08:27.817|56=MA|10=231|8=FIX.4.4|9=54|35=0|34=32|49=EHABAXUK|52=20181116-12:09:57.820|56=MA|10=230|8=FIX.4.4|9=54|35=0|34=33|49=EHABAXUK|52=20181116-12:11:28.816|56=MA|10=227|8=FIX.4.4|9=54|35=0|34=34|49=EHABAXUK|52=20181116-12:12:59.812|56=MA|10=229|8=FIX.4.4|9=54|35=0|34=35|49=EHABAXUK|52=20181116-12:14:29.820|56=MA|10=228|8=FIX.4.4|9=54|35=0|34=36|49=EHABAXUK|52=20181116-12:16:00.805|56=MA|10=223|8=FIX.4.4|9=54|35=0|34=37|49=EHABAXUK|52=20181116-12:17:31.804|56=MA|10=228|8=FIX.4.4|9=54|35=0|34=38|49=EHABAXUK|52=20181116-12:19:01.807|56=MA|10=231|8=FIX.4.4|9=54|35=0|34=39|49=EHABAXUK|52=20181116-12:20:31.808|56=MA|10=228|8=FIX.4.4|9=54|35=0|34=40|49=EHABAXUK|52=20181116-12:22:02.813|56=MA|10=216|8=FIX.4.4|9=54|35=0|34=41|49=EHABAXUK|52=20181116-12:23:33.802|56=MA|10=220|8=FIX.4.4|9=54|35=0|34=42|49=EHABAXUK|52=20181116-12:25:03.804|56=MA|10=222|8=FIX.4.4|9=54|35=0|34=43|49=EHABAXUK|52=20181116-12:26:33.807|56=MA|10=230|8=FIX.4.4|9=54|35=0|34=44|49=EHABAXUK|52=20181116-12:28:04.803|56=MA|10=227|8=FIX.4.4|9=54|35=0|34=45|49=EHABAXUK|52=20181116-12:29:35.809|56=MA|10=239|8=FIX.4.4|9=54|35=0|34=46|49=EHABAXUK|52=20181116-12:31:06.812|56=MA|10=225|8=FIX.4.4|9=54|35=0|34=47|49=EHABAXUK|52=20181116-12:32:37.807|56=MA|10=235|8=FIX.4.4|9=54|35=0|34=48|49=EHABAXUK|52=20181116-12:34:07.809|56=MA|10=237|8=FIX.4.4|9=54|35=0|34=49|49=EHABAXUK|52=20181116-12:35:37.812|56=MA|10=236|8=FIX.4.4|9=54|35=0|34=50|49=EHABAXUK|52=20181116-12:37:08.803|56=MA|10=228|8=FIX.4.4|9=54|35=0|34=51|49=EHABAXUK|52=20181116-12:38:39.811|56=MA|10=233|8=FIX.4.4|9=54|35=0|34=52|49=EHABAXUK|52=20181116-12:40:10.808|56=MA|10=222|8=FIX.4.4|9=54|35=0|34=53|49=EHABAXUK|52=20181116-12:41:41.806|56=MA|10=226|8=FIX.4.4|9=54|35=0|34=54|49=EHABAXUK|52=20181116-12:43:12.804|56=MA|10=225|8=FIX.4.4|9=54|35=0|34=55|49=EHABAXUK|52=20181116-12:44:43.808|56=MA|10=235|8=FIX.4.4|9=54|35=0|34=56|49=EHABAXUK|52=20181116-12:46:14.803|56=MA|10=231|8=FIX.4.4|9=54|35=0|34=57|49=EHABAXUK|52=20181116-12:47:45.795|56=MA|10=247|8=FIX.4.4|9=54|35=0|34=58|49=EHABAXUK|52=20181116-12:49:15.796|56=MA|10=248|8=FIX.4.4|9=54|35=0|34=59|49=EHABAXUK|52=20181116-12:50:45.806|56=MA|10=236|8=FIX.4.4|9=54|35=0|34=60|49=EHABAXUK|52=20181116-12:52:16.802|56=MA|10=224|8=FIX.4.4|9=54|35=0|34=61|49=EHABAXUK|52=20181116-12:53:47.803|56=MA|10=231|8=FIX.4.4|9=54|35=0|34=62|49=EHABAXUK|52=20181116-12:55:18.793|56=MA|10=240|8=FIX.4.4|9=54|35=0|34=63|49=EHABAXUK|52=20181116-12:56:49.801|56=MA|10=236|8=FIX.4.4|9=54|35=0|34=64|49=EHABAXUK|52=20181116-12:58:20.797|56=MA|10=242|8=FIX.4.4|9=54|35=0|34=65|49=EHABAXUK|52=20181116-12:59:50.903|56=MA|10=236|8=FIX.4.4|9=54|35=0|34=66|49=EHABAXUK|52=20181116-13:01:20.903|56=MA|10=222|8=FIX.4.4|9=54|35=0|34=67|49=EHABAXUK|52=20181116-13:02:51.790|56=MA|10=232|8=FIX.4.4|9=54|35=0|34=68|49=EHABAXUK|52=20181116-13:04:21.790|56=MA|10=232|8=FIX.4.4|9=54|35=0|34=69|49=EHABAXUK|52=20181116-13:05:52.006|56=MA|10=228|8=FIX.4.4|9=54|35=0|34=70|49=EHABAXUK|52=20181116-13:07:22.009|56=MA|10=222|8=FIX.4.4|9=54|35=0|34=71|49=EHABAXUK|52=20181116-13:08:52.789|56=MA|10=242|8=FIX.4.4|9=54|35=0|34=72|49=EHABAXUK|52=20181116-13:10:22.792|56=MA|10=227|8=FIX.4.4|9=54|35=0|34=73|49=EHABAXUK|52=20181116-13:11:53.016|56=MA|10=222|8=FIX.4.4|9=54|35=0|34=74|49=EHABAXUK|52=20181116-13:13:23.027|56=MA|10=224|8=FIX.4.4|9=54|35=0|34=75|49=EHABAXUK|52=20181116-13:14:53.785|56=MA|10=240|8=FIX.4.4|9=54|35=0|34=76|49=EHABAXUK|52=20181116-13:16:23.788|56=MA|10=243|8=FIX.4.4|9=54|35=0|34=77|49=EHABAXUK|52=20181116-13:17:54.016|56=MA|10=233|8=FIX.4.4|9=54|35=0|34=78|49=EHABAXUK|52=20181116-13:19:24.781|56=MA|10=242|8=FIX.4.4|9=54|35=0|34=79|49=EHABAXUK|52=20181116-13:20:55.013|56=MA|10=227|8=FIX.4.4|9=54|35=0|34=80|49=EHABAXUK|52=20181116-13:22:25.022|56=MA|10=218|8=FIX.4.4|9=54|35=0|34=81|49=EHABAXUK|52=20181116-13:23:55.790|56=MA|10=235|8=FIX.4.4|9=54|35=0|34=82|49=EHABAXUK|52=20181116-13:25:26.021|56=MA|10=223|8=FIX.4.4|9=54|35=0|34=83|49=EHABAXUK|52=20181116-13:26:56.027|56=MA|10=234|8=FIX.4.4|9=54|35=0|34=84|49=EHABAXUK|52=20181116-13:28:26.788|56=MA|10=248|8=FIX.4.4|9=54|35=0|34=85|49=EHABAXUK|52=20181116-13:29:56.963|56=MA|10=248|8=FIX.4.4|9=54|35=0|34=86|49=EHABAXUK|52=20181116-13:31:27.008|56=MA|10=230|8=FIX.4.4|9=54|35=0|34=87|49=EHABAXUK|52=20181116-13:32:57.778|56=MA|10=249|8=FIX.4.4|9=54|35=0|34=88|49=EHABAXUK|52=20181116-13:34:27.784|56=MA|10=246|8=FIX.4.4|9=54|35=0|34=89|49=EHABAXUK|52=20181116-13:35:57.923|56=MA|10=246|8=FIX.4.4|9=54|35=0|34=90|49=EHABAXUK|52=20181116-13:37:28.023|56=MA|10=229|8=FIX.4.4|9=54|35=0|34=91|49=EHABAXUK|52=20181116-13:38:58.781|56=MA|10=245|8=FIX.4.4|9=54|35=0|34=92|49=EHABAXUK|52=20181116-13:40:28.786|56=MA|10=241|8=FIX.4.4|9=54|35=0|34=93|49=EHABAXUK|52=20181116-13:41:59.785|56=MA|10=246|8=FIX.4.4|9=54|35=0|34=94|49=EHABAXUK|52=20181116-13:43:30.020|56=MA|10=220|8=FIX.4.4|9=54|35=0|34=95|49=EHABAXUK|52=20181116-13:45:00.781|56=MA|10=234|8=FIX.4.4|9=54|35=0|34=96|49=EHABAXUK|52=20181116-13:46:31.771|56=MA|10=239|8=FIX.4.4|9=54|35=0|34=97|49=EHABAXUK|52=20181116-13:48:01.775|56=MA|10=243|8=FIX.4.4|9=54|35=0|34=98|49=EHABAXUK|52=20181116-13:49:31.779|56=MA|10=252|8=FIX.4.4|9=54|35=0|34=99|49=EHABAXUK|52=20181116-13:51:01.905|56=MA|10=234|8=FIX.4.4|9=55|35=0|34=100|49=EHABAXUK|52=20181116-13:52:32.021|56=MA|10=004|8=FIX.4.4|9=55|35=0|34=101|49=EHABAXUK|52=20181116-13:54:02.774|56=MA|10=019|8=FIX.4.4|9=55|35=0|34=102|49=EHABAXUK|52=20181116-13:55:33.026|56=MA|10=015|8=FIX.4.4|9=55|35=0|34=103|49=EHABAXUK|52=20181116-13:57:03.770|56=MA|10=021|8=FIX.4.4|9=55|35=0|34=104|49=EHABAXUK|52=20181116-13:58:33.776|56=MA|10=032|8=FIX.4.4|9=55|35=0|34=105|49=EHABAXUK|52=20181116-14:00:03.895|56=MA|10=020|8=FIX.4.4|9=55|35=0|34=106|49=EHABAXUK|52=20181116-14:01:33.997|56=MA|10=028|8=FIX.4.4|9=55|35=0|34=107|49=EHABAXUK|52=20181116-14:03:04.766|56=MA|10=023|8=FIX.4.4|9=55|35=0|34=108|49=EHABAXUK|52=20181116-14:04:34.770|56=MA|10=023|8=FIX.4.4|9=55|35=0|34=109|49=EHABAXUK|52=20181116-14:06:04.775|56=MA|10=028|8=FIX.4.4|9=55|35=0|34=110|49=EHABAXUK|52=20181116-14:07:35.769|56=MA|10=028|8=FIX.4.4|9=55|35=0|34=111|49=EHABAXUK|52=20181116-14:09:05.771|56=MA|10=021|8=FIX.4.4|9=55|35=0|34=112|49=EHABAXUK|52=20181116-14:10:36.765|56=MA|10=021|8=FIX.4.4|9=55|35=0|34=113|49=EHABAXUK|52=20181116-14:12:07.773|56=MA|10=021|8=FIX.4.4|9=55|35=0|34=114|49=EHABAXUK|52=20181116-14:13:37.907|56=MA|10=025|8=FIX.4.4|9=55|35=0|34=115|49=EHABAXUK|52=20181116-14:15:08.021|56=MA|10=013|8=FIX.4.4|9=55|35=0|34=116|49=EHABAXUK|52=20181116-14:16:38.762|56=MA|10=030|8=FIX.4.4|9=55|35=0|34=117|49=EHABAXUK|52=20181116-14:18:08.765|56=MA|10=033|8=FIX.4.4|9=55|35=0|34=118|49=EHABAXUK|52=20181116-14:19:39.022|56=MA|10=025|8=FIX.4.4|9=55|35=0|34=119|49=EHABAXUK|52=20181116-14:21:09.026|56=MA|10=020|8=FIX.4.4|9=55|35=0|34=120|49=EHABAXUK|52=20181116-14:22:39.028|56=MA|10=018|8=FIX.4.4|9=55|35=0|34=121|49=EHABAXUK|52=20181116-14:24:09.758|56=MA|10=028|8=FIX.4.4|9=55|35=0|34=122|49=EHABAXUK|52=20181116-14:25:40.037|56=MA|10=015|8=FIX.4.4|9=55|35=0|34=123|49=EHABAXUK|52=20181116-14:27:10.764|56=MA|10=022|8=FIX.4.4|9=55|35=0|34=124|49=EHABAXUK|52=20181116-14:28:41.028|56=MA|10=021|8=FIX.4.4|9=55|35=0|34=125|49=EHABAXUK|52=20181116-14:30:11.758|56=MA|10=022|8=FIX.4.4|9=55|35=0|34=126|49=EHABAXUK|52=20181116-14:31:42.020|56=MA|10=010|8=FIX.4.4|9=55|35=0|34=127|49=EHABAXUK|52=20181116-14:33:12.761|56=MA|10=022|8=FIX.4.4|9=55|35=0|34=128|49=EHABAXUK|52=20181116-14:34:42.763|56=MA|10=029|8=FIX.4.4|9=55|35=0|34=129|49=EHABAXUK|52=20181116-14:36:13.749|56=MA|10=034|8=FIX.4.4|9=55|35=0|34=130|49=EHABAXUK|52=20181116-14:37:43.754|56=MA|10=026|8=FIX.4.4|9=55|35=0|34=131|49=EHABAXUK|52=20181116-14:39:13.760|56=MA|10=023|8=FIX.4.4|9=55|35=0|34=132|49=EHABAXUK|52=20181116-14:40:44.754|56=MA|10=023|8=FIX.4.4|9=55|35=0|34=133|49=EHABAXUK|52=20181116-14:42:14.759|56=MA|10=028|8=FIX.4.4|9=55|35=0|34=134|49=EHABAXUK|52=20181116-14:43:44.899|56=MA|10=038|8=FIX.4.4|9=55|35=0|34=135|49=EHABAXUK|52=20181116-14:45:15.030|56=MA|10=016|8=FIX.4.4|9=55|35=0|34=136|49=EHABAXUK|52=20181116-14:46:45.744|56=MA|10=033|8=FIX.4.4|9=55|35=0|34=137|49=EHABAXUK|52=20181116-14:48:15.744|56=MA|10=033|8=FIX.4.4|9=55|35=0|34=138|49=EHABAXUK|52=20181116-14:49:45.744|56=MA|10=038|8=FIX.4.4|9=55|35=0|34=139|49=EHABAXUK|52=20181116-14:51:15.898|56=MA|10=039|8=FIX.4.4|9=55|35=0|34=140|49=EHABAXUK|52=20181116-14:52:45.915|56=MA|10=025|8=FIX.4.4|9=55|35=0|34=141|49=EHABAXUK|52=20181116-14:54:16.750|56=MA|10=023|8=FIX.4.4|9=55|35=0|34=142|49=EHABAXUK|52=20181116-14:55:46.750|56=MA|10=028|8=FIX.4.4|9=55|35=0|34=143|49=EHABAXUK|52=20181116-14:57:16.751|56=MA|10=029|8=FIX.4.4|9=55|35=0|34=144|49=EHABAXUK|52=20181116-14:58:47.022|56=MA|10=026|8=FIX.4.4|9=55|35=0|34=145|49=EHABAXUK|52=20181116-15:00:17.742|56=MA|10=021|8=FIX.4.4|9=55|35=0|34=146|49=EHABAXUK|52=20181116-15:01:47.753|56=MA|10=028|8=FIX.4.4|9=55|35=0|34=147|49=EHABAXUK|52=20181116-15:03:18.750|56=MA|10=026|8=FIX.4.4|9=55|35=0|34=148|49=EHABAXUK|52=20181116-15:04:48.902|56=MA|10=030|8=FIX.4.4|9=55|35=0|34=149|49=EHABAXUK|52=20181116-15:06:19.025|56=MA|10=027|8=FIX.4.4|9=55|35=0|34=150|49=EHABAXUK|52=20181116-15:07:49.738|56=MA|10=034|8=FIX.4.4|9=55|35=0|34=151|49=EHABAXUK|52=20181116-15:09:19.744|56=MA|10=031|8=FIX.4.4|9=55|35=0|34=152|49=EHABAXUK|52=20181116-15:10:49.747|56=MA|10=030|8=FIX.4.4|9=55|35=0|34=153|49=EHABAXUK|52=20181116-15:12:19.918|56=MA|10=030|8=FIX.4.4|9=55|35=0|34=154|49=EHABAXUK|52=20181116-15:13:50.011|56=MA|10=011|8=FIX.4.4|9=55|35=0|34=155|49=EHABAXUK|52=20181116-15:15:20.737|56=MA|10=026|8=FIX.4.4|9=55|35=0|34=156|49=EHABAXUK|52=20181116-15:16:50.737|56=MA|10=031|8=FIX.4.4|9=55|35=0|34=157|49=EHABAXUK|52=20181116-15:18:20.907|56=MA|10=030|8=FIX.4.4|9=55|35=0|34=158|49=EHABAXUK|52=20181116-15:19:51.024|56=MA|10=026|8=FIX.4.4|9=55|35=0|34=159|49=EHABAXUK|52=20181116-15:21:21.041|56=MA|10=016|8=FIX.4.4|9=55|35=0|34=160|49=EHABAXUK|52=20181116-15:22:51.730|56=MA|10=017|8=FIX.4.4|9=55|35=0|34=161|49=EHABAXUK|52=20181116-15:24:21.733|56=MA|10=020|8=FIX.4.4|9=55|35=0|34=162|49=EHABAXUK|52=20181116-15:25:51.740|56=MA|10=023|8=FIX.4.4|9=55|35=0|34=163|49=EHABAXUK|52=20181116-15:27:22.740|56=MA|10=024|8=FIX.4.4|9=55|35=0|34=164|49=EHABAXUK|52=20181116-15:28:53.739|56=MA|10=038|8=FIX.4.4|9=55|35=0|34=165|49=EHABAXUK|52=20181116-15:30:24.735|56=MA|10=026|8=FIX.4.4|9=55|35=0|34=166|49=EHABAXUK|52=20181116-15:31:55.026|56=MA|10=025|8=FIX.4.4|9=55|35=0|34=167|49=EHABAXUK|52=20181116-15:33:25.739|56=MA|10=036|8=FIX.4.4|9=55|35=0|34=168|49=EHABAXUK|52=20181116-15:34:55.941|56=MA|10=036|8=FIX.4.4|9=55|35=0|34=169|49=EHABAXUK|52=20181116-15:36:26.734|56=MA|10=037|8=FIX.4.4|9=55|35=0|34=170|49=EHABAXUK|52=20181116-15:37:56.902|56=MA|10=030|8=FIX.4.4|9=55|35=0|34=171|49=EHABAXUK|52=20181116-15:39:27.026|56=MA|10=028|8=FIX.4.4|9=55|35=0|34=172|49=EHABAXUK|52=20181116-15:40:57.722|56=MA|10=027|8=FIX.4.4|9=55|35=0|34=173|49=EHABAXUK|52=20181116-15:42:27.722|56=MA|10=027|8=FIX.4.4|9=55|35=0|34=174|49=EHABAXUK|52=20181116-15:43:57.723|56=MA|10=033|8=FIX.4.4|9=55|35=0|34=175|49=EHABAXUK|52=20181116-15:45:27.731|56=MA|10=032|8=FIX.4.4|9=55|35=0|34=176|49=EHABAXUK|52=20181116-15:46:58.020|56=MA|10=029|8=FIX.4.4|9=55|35=0|34=177|49=EHABAXUK|52=20181116-15:48:28.047|56=MA|10=038|8=FIX.4.4|9=55|35=0|34=178|49=EHABAXUK|52=20181116-15:49:58.727|56=MA|10=048|8=FIX.4.4|9=55|35=0|34=179|49=EHABAXUK|52=20181116-15:51:29.021|56=MA|10=027|8=FIX.4.4|9=55|35=0|34=180|49=EHABAXUK|52=20181116-15:52:59.729|56=MA|10=038|8=FIX.4.4|9=55|35=0|34=181|49=EHABAXUK|52=20181116-15:54:29.904|56=MA|10=033|8=FIX.4.4|9=55|35=0|34=182|49=EHABAXUK|52=20181116-15:56:00.018|56=MA|10=021|8=FIX.4.4|9=55|35=0|34=183|49=EHABAXUK|52=20181116-15:57:30.718|56=MA|10=033|8=FIX.4.4|9=55|35=0|34=184|49=EHABAXUK|52=20181116-15:59:00.902|56=MA|10=028|8=FIX.4.4|9=55|35=0|34=185|49=EHABAXUK|52=20181116-16:00:30.904|56=MA|10=021|8=FIX.4.4|9=55|35=0|34=186|49=EHABAXUK|52=20181116-16:02:01.451|56=MA|10=019|8=FIX.4.4|9=55|35=0|34=187|49=EHABAXUK|52=20181116-16:03:31.718|56=MA|10=030|8=FIX.4.4|9=55|35=0|34=188|49=EHABAXUK|52=20181116-16:05:01.722|56=MA|10=025|8=FIX.4.4|9=55|35=0|34=189|49=EHABAXUK|52=20181116-16:06:31.907|56=MA|10=035|8=FIX.4.4|9=55|35=0|34=190|49=EHABAXUK|52=20181116-16:08:02.017|56=MA|10=019|8=FIX.4.4|9=55|35=0|34=191|49=EHABAXUK|52=20181116-16:09:32.021|56=MA|10=019|8=FIX.4.4|9=55|35=0|34=192|49=EHABAXUK|52=20181116-16:11:02.716|56=MA|10=021|8=FIX.4.4|9=55|35=0|34=193|49=EHABAXUK|52=20181116-16:12:32.896|56=MA|10=035|8=FIX.4.4|9=55|35=0|34=194|49=EHABAXUK|52=20181116-16:14:03.713|56=MA|10=024|8=FIX.4.4|9=55|35=0|34=195|49=EHABAXUK|52=20181116-16:15:33.893|56=MA|10=038|8=FIX.4.4|9=55|35=0|34=196|49=EHABAXUK|52=20181116-16:17:04.008|56=MA|10=027|8=FIX.4.4|9=55|35=0|34=197|49=EHABAXUK|52=20181116-16:18:34.710|56=MA|10=032|8=FIX.4.4|9=55|35=0|34=198|49=EHABAXUK|52=20181116-16:20:04.895|56=MA|10=037|8=FIX.4.4|9=55|35=0|34=199|49=EHABAXUK|52=20181116-16:21:35.699|56=MA|10=045|8=FIX.4.4|9=55|35=0|34=200|49=EHABAXUK|52=20181116-16:23:05.707|56=MA|10=017|8=FIX.4.4|9=55|35=0|34=201|49=EHABAXUK|52=20181116-16:24:36.010|56=MA|10=010|8=FIX.4.4|9=55|35=0|34=202|49=EHABAXUK|52=20181116-16:26:06.708|56=MA|10=024|8=FIX.4.4|9=55|35=0|34=203|49=EHABAXUK|52=20181116-16:27:37.017|56=MA|10=023|8=FIX.4.4|9=55|35=0|34=204|49=EHABAXUK|52=20181116-16:29:07.026|56=MA|10=023|8=FIX.4.4|9=55|35=0|34=205|49=EHABAXUK|52=20181116-16:30:37.692|56=MA|10=028|8=FIX.4.4|9=55|35=0|34=206|49=EHABAXUK|52=20181116-16:32:07.700|56=MA|10=018|8=FIX.4.4|9=55|35=0|34=207|49=EHABAXUK|52=20181116-16:33:37.943|56=MA|10=032|8=FIX.4.4|9=55|35=0|34=208|49=EHABAXUK|52=20181116-16:35:08.695|56=MA|10=037|8=FIX.4.4|9=55|35=0|34=209|49=EHABAXUK|52=20181116-16:36:38.695|56=MA|10=042|8=FIX.4.4|9=55|35=0|34=210|49=EHABAXUK|52=20181116-16:38:09.020|56=MA|10=016|8=FIX.4.4|9=55|35=0|34=211|49=EHABAXUK|52=20181116-16:39:39.688|56=MA|10=041|8=FIX.4.4|9=55|35=0|34=212|49=EHABAXUK|52=20181116-16:41:09.692|56=MA|10=027|8=FIX.4.4|9=55|35=0|34=213|49=EHABAXUK|52=20181116-16:42:40.023|56=MA|10=012|8=FIX.4.4|9=55|35=0|34=214|49=EHABAXUK|52=20181116-16:44:10.688|56=MA|10=029|8=FIX.4.4|9=55|35=0|34=215|49=EHABAXUK|52=20181116-16:45:40.689|56=MA|10=035|8=FIX.4.4|9=55|35=0|34=216|49=EHABAXUK|52=20181116-16:47:10.691|56=MA|10=028|8=FIX.4.4|9=55|35=0|34=217|49=EHABAXUK|52=20181116-16:48:40.693|56=MA|10=035|8=FIX.4.4|9=55|35=0|34=218|49=EHABAXUK|52=20181116-16:50:11.681|56=MA|10=024|8=FIX.4.4|9=55|35=0|34=219|49=EHABAXUK|52=20181116-16:51:41.695|56=MA|10=034|8=FIX.4.4|9=55|35=0|34=220|49=EHABAXUK|52=20181116-16:53:12.693|56=MA|10=024|8=FIX.4.4|9=55|35=0|34=221|49=EHABAXUK|52=20181116-16:54:43.691|56=MA|10=028|8=FIX.4.4|9=55|35=0|34=222|49=EHABAXUK|52=20181116-16:56:14.688|56=MA|10=035|8=FIX.4.4|9=55|35=0|34=223|49=EHABAXUK|52=20181116-16:57:45.686|56=MA|10=039|8=FIX.4.4|9=55|35=0|34=224|49=EHABAXUK|52=20181116-16:59:16.685|56=MA|10=039|8=FIX.4.4|9=55|35=0|34=225|49=EHABAXUK|52=20181116-17:00:46.692|56=MA|10=028|8=FIX.4.4|9=55|35=0|34=226|49=EHABAXUK|52=20181116-17:02:17.686|56=MA|10=032|8=FIX.4.4|9=55|35=0|34=227|49=EHABAXUK|52=20181116-17:03:47.686|56=MA|10=037|8=FIX.4.4|9=55|35=0|34=228|49=EHABAXUK|52=20181116-17:05:18.676|56=MA|10=037|8=FIX.4.4|9=55|35=0|34=229|49=EHABAXUK|52=20181116-17:06:48.686|56=MA|10=043|8=FIX.4.4|9=55|35=0|34=230|49=EHABAXUK|52=20181116-17:08:18.689|56=MA|10=037|8=FIX.4.4|9=55|35=0|34=231|49=EHABAXUK|52=20181116-17:09:49.687|56=MA|10=041|8=FIX.4.4|9=55|35=0|34=232|49=EHABAXUK|52=20181116-17:11:20.675|56=MA|10=021|8=FIX.4.4|9=55|35=0|34=233|49=EHABAXUK|52=20181116-17:12:50.679|56=MA|10=030|8=FIX.4.4|9=55|35=0|34=234|49=EHABAXUK|52=20181116-17:14:20.680|56=MA|10=022|8=FIX.4.4|9=55|35=0|34=235|49=EHABAXUK|52=20181116-17:15:51.682|56=MA|10=030|8=FIX.4.4|9=55|35=0|34=236|49=EHABAXUK|52=20181116-17:17:21.684|56=MA|10=032|8=FIX.4.4|9=55|35=0|34=237|49=EHABAXUK|52=20181116-17:18:51.685|56=MA|10=038|8=FIX.4.4|9=55|35=0|34=238|49=EHABAXUK|52=20181116-17:20:22.670|56=MA|10=024|8=FIX.4.4|9=55|35=0|34=239|49=EHABAXUK|52=20181116-17:21:52.673|56=MA|10=032|8=FIX.4.4|9=55|35=0|34=240|49=EHABAXUK|52=20181116-17:23:23.679|56=MA|10=030|8=FIX.4.4|9=55|35=0|34=241|49=EHABAXUK|52=20181116-17:24:54.674|56=MA|10=031|8=FIX.4.4|9=55|35=0|34=242|49=EHABAXUK|52=20181116-17:26:25.682|56=MA|10=031|8=FIX.4.4|9=55|35=0|34=243|49=EHABAXUK|52=20181116-17:27:56.667|56=MA|10=040|8=FIX.4.4|9=55|35=5|34=244|49=EHABAXUK|52=20181116-17:28:14.677|56=MA|10=042|8=FIX.4.4|9=84|35=A|34=245|49=EHABAXUK|52=20181120-15:36:01.201|56=MA|98=0|108=90|95=8|96=3.0.0rc4|10=196|8=FIX.4.4|9=106|35=5|34=246|49=EHABAXUK|52=20181120-15:36:01.813|56=MA|58=MsgSeqNum too low, expecting 247 but received 1|10=071|8=FIX.4.4|9=84|35=A|34=247|49=EHABAXUK|52=20181120-15:36:09.183|56=MA|98=0|108=90|95=8|96=3.0.0rc4|10=215|8=FIX.4.4|9=106|35=5|34=248|49=EHABAXUK|52=20181120-15:36:09.761|56=MA|58=MsgSeqNum too low, expecting 247 but received 4|10=086|8=FIX.4.4|9=82|35=A|34=1|49=EHABAXUK|52=20181120-16:56:37.154|56=MA|98=0|108=90|95=8|96=3.0.0rc4|10=107|8=FIX.4.4|9=53|35=5|34=2|49=EHABAXUK|52=20181120-16:56:37.237|56=MA|10=184|8=FIX.4.4|9=82|35=A|34=3|49=EHABAXUK|52=20181120-16:56:51.154|56=MA|98=0|108=90|95=8|96=3.0.0rc4|10=105|8=FIX.4.4|9=62|35=2|34=4|49=EHABAXUK|52=20181120-16:56:51.738|56=MA|7=2|16=0|10=053|8=FIX.4.4|9=53|35=0|34=5|49=EHABAXUK|52=20181120-16:58:22.154|56=MA|10=176|8=FIX.4.4|9=53|35=0|34=6|49=EHABAXUK|52=20181120-16:59:52.515|56=MA|10=182|8=FIX.4.4|9=53|35=0|34=7|49=EHABAXUK|52=20181120-17:01:23.153|56=MA|10=167|8=FIX.4.4|9=53|35=0|34=8|49=EHABAXUK|52=20181120-17:02:54.152|56=MA|10=172|8=FIX.4.4|9=53|35=0|34=9|49=EHABAXUK|52=20181120-17:04:25.151|56=MA|10=172|8=FIX.4.4|9=54|35=0|34=10|49=EHABAXUK|52=20181120-17:05:55.151|56=MA|10=217|8=FIX.4.4|9=54|35=0|34=11|49=EHABAXUK|52=20181120-17:07:26.151|56=MA|10=218|8=FIX.4.4|9=54|35=0|34=12|49=EHABAXUK|52=20181120-17:08:57.149|56=MA|10=231|8=FIX.4.4|9=54|35=0|34=13|49=EHABAXUK|52=20181120-17:10:27.150|56=MA|10=214|8=FIX.4.4|9=54|35=0|34=14|49=EHABAXUK|52=20181120-17:11:58.148|56=MA|10=227|8=FIX.4.4|9=54|35=0|34=15|49=EHABAXUK|52=20181120-17:13:29.148|56=MA|10=228|8=FIX.4.4|9=54|35=0|34=16|49=EHABAXUK|52=20181120-17:15:00.147|56=MA|10=219|8=FIX.4.4|9=54|35=0|34=17|49=EHABAXUK|52=20181120-17:16:31.148|56=MA|10=226|8=FIX.4.4|9=54|35=0|34=18|49=EHABAXUK|52=20181120-17:18:02.146|56=MA|10=225|8=FIX.4.4|9=54|35=0|34=19|49=EHABAXUK|52=20181120-17:19:33.145|56=MA|10=230|8=FIX.4.4|9=54|35=0|34=20|49=EHABAXUK|52=20181120-17:21:03.145|56=MA|10=212|8=FIX.4.4|9=54|35=0|34=21|49=EHABAXUK|52=20181120-17:22:33.145|56=MA|10=217|8=FIX.4.4|9=54|35=0|34=22|49=EHABAXUK|52=20181120-17:24:04.144|56=MA|10=217|8=FIX.4.4|9=54|35=0|34=23|49=EHABAXUK|52=20181120-17:25:35.144|56=MA|10=223|8=FIX.4.4|9=54|35=0|34=24|49=EHABAXUK|52=20181120-17:27:06.143|56=MA|10=223|8=FIX.4.4|9=54|35=0|34=25|49=EHABAXUK|52=20181120-17:28:37.142|56=MA|10=228|8=FIX.4.4|9=54|35=0|34=26|49=EHABAXUK|52=20181120-17:30:07.142|56=MA|10=219|8=FIX.4.4|9=54|35=0|34=27|49=EHABAXUK|52=20181120-17:31:38.141|56=MA|10=224|8=FIX.4.4|9=54|35=0|34=28|49=EHABAXUK|52=20181120-17:33:08.141|56=MA|10=224|8=FIX.4.4|9=54|35=0|34=29|49=EHABAXUK|52=20181120-17:34:39.139|56=MA|10=237|8=FIX.4.4|9=54|35=0|34=30|49=EHABAXUK|52=20181120-17:36:09.140|56=MA|10=220|8=FIX.4.4|9=54|35=0|34=31|49=EHABAXUK|52=20181120-17:37:39.148|56=MA|10=233|8=FIX.4.4|9=54|35=0|34=32|49=EHABAXUK|52=20181120-17:39:10.146|56=MA|10=223|8=FIX.4.4|9=54|35=0|34=33|49=EHABAXUK|52=20181120-17:40:41.140|56=MA|10=214|8=FIX.4.4|9=54|35=0|34=34|49=EHABAXUK|52=20181120-17:42:11.141|56=MA|10=215|8=FIX.4.4|9=54|35=0|34=35|49=EHABAXUK|52=20181120-17:43:41.141|56=MA|10=220|8=FIX.4.4|9=54|35=0|34=36|49=EHABAXUK|52=20181120-17:45:11.147|56=MA|10=226|8=FIX.4.4|9=54|35=0|34=37|49=EHABAXUK|52=20181120-17:46:41.149|56=MA|10=233|8=FIX.4.4|9=54|35=0|34=38|49=EHABAXUK|52=20181120-17:48:12.138|56=MA|10=232|8=FIX.4.4|9=54|35=0|34=39|49=EHABAXUK|52=20181120-17:49:43.135|56=MA|10=235|8=FIX.4.4|9=54|35=0|34=40|49=EHABAXUK|52=20181120-17:51:13.142|56=MA|10=215|8=FIX.4.4|9=54|35=0|34=41|49=EHABAXUK|52=20181120-17:52:43.143|56=MA|10=221|8=FIX.4.4|9=54|35=0|34=42|49=EHABAXUK|52=20181120-17:54:14.147|56=MA|10=226|8=FIX.4.4|9=54|35=0|34=43|49=EHABAXUK|52=20181120-17:55:45.132|56=MA|10=226|8=FIX.4.4|9=54|35=0|34=44|49=EHABAXUK|52=20181120-17:57:15.138|56=MA|10=232|8=FIX.4.4|9=54|35=0|34=45|49=EHABAXUK|52=20181120-17:58:45.143|56=MA|10=233|8=FIX.4.4|9=54|35=0|34=46|49=EHABAXUK|52=20181120-18:00:16.140|56=MA|10=217|8=FIX.4.4|9=54|35=0|34=47|49=EHABAXUK|52=20181120-18:01:46.142|56=MA|10=224|8=FIX.4.4|9=54|35=0|34=48|49=EHABAXUK|52=20181120-18:03:17.133|56=MA|10=225|8=FIX.4.4|9=54|35=0|34=49|49=EHABAXUK|52=20181120-18:04:47.143|56=MA|10=231|8=FIX.4.4|9=54|35=0|34=50|49=EHABAXUK|52=20181120-18:06:18.132|56=MA|10=221|8=FIX.4.4|9=54|35=0|34=51|49=EHABAXUK|52=20181120-18:07:48.136|56=MA|10=230|8=FIX.4.4|9=54|35=0|34=52|49=EHABAXUK|52=20181120-18:09:19.129|56=MA|10=233|8=FIX.4.4|9=54|35=0|34=53|49=EHABAXUK|52=20181120-18:10:50.126|56=MA|10=218|8=FIX.4.4|9=54|35=0|34=54|49=EHABAXUK|52=20181120-18:12:20.137|56=MA|10=220|8=FIX.4.4|9=54|35=0|34=55|49=EHABAXUK|52=20181120-18:13:50.137|56=MA|10=225|8=FIX.4.4|9=54|35=0|34=56|49=EHABAXUK|52=20181120-18:15:21.137|56=MA|10=226|8=FIX.4.4|9=54|35=0|34=57|49=EHABAXUK|52=20181120-18:16:52.135|56=MA|10=230|8=FIX.4.4|9=54|35=0|34=58|49=EHABAXUK|52=20181120-18:18:23.133|56=MA|10=229|8=FIX.4.4|9=54|35=0|34=59|49=EHABAXUK|52=20181120-18:19:53.134|56=MA|10=235|8=FIX.4.4|9=54|35=0|34=60|49=EHABAXUK|52=20181120-18:21:24.133|56=MA|10=217|8=FIX.4.4|9=54|35=0|34=61|49=EHABAXUK|52=20181120-18:22:55.122|56=MA|10=221|8=FIX.4.4|9=54|35=0|34=62|49=EHABAXUK|52=20181120-18:24:25.128|56=MA|10=227|8=FIX.4.4|9=54|35=0|34=63|49=EHABAXUK|52=20181120-18:25:55.129|56=MA|10=233|8=FIX.4.4|9=54|35=0|34=64|49=EHABAXUK|52=20181120-18:27:25.133|56=MA|10=228|8=FIX.4.4|9=54|35=0|34=65|49=EHABAXUK|52=20181120-18:28:56.123|56=MA|10=233|8=FIX.4.4|9=54|35=0|34=66|49=EHABAXUK|52=20181120-18:30:26.127|56=MA|10=228|8=FIX.4.4|9=54|35=0|34=67|49=EHABAXUK|52=20181120-18:31:57.127|56=MA|10=234|8=FIX.4.4|9=54|35=0|34=68|49=EHABAXUK|52=20181120-18:33:28.128|56=MA|10=236|8=FIX.4.4|9=54|35=0|34=69|49=EHABAXUK|52=20181120-18:34:58.131|56=MA|10=235|8=FIX.4.4|9=54|35=0|34=70|49=EHABAXUK|52=20181120-18:36:29.118|56=MA|10=232|8=FIX.4.4|9=54|35=0|34=71|49=EHABAXUK|52=20181120-18:37:59.120|56=MA|10=230|8=FIX.4.4|9=54|35=0|34=72|49=EHABAXUK|52=20181120-18:39:29.123|56=MA|10=233|8=FIX.4.4|9=54|35=0|34=73|49=EHABAXUK|52=20181120-18:40:59.126|56=MA|10=232|8=FIX.4.4|9=54|35=0|34=74|49=EHABAXUK|52=20181120-18:42:30.119|56=MA|10=226|8=FIX.4.4|9=54|35=0|34=75|49=EHABAXUK|52=20181120-18:44:00.129|56=MA|10=227|8=FIX.4.4|9=54|35=0|34=76|49=EHABAXUK|52=20181120-18:45:31.119|56=MA|10=232|8=FIX.4.4|9=54|35=0|34=77|49=EHABAXUK|52=20181120-18:47:01.127|56=MA|10=231|8=FIX.4.4|9=54|35=0|34=78|49=EHABAXUK|52=20181120-18:48:32.121|56=MA|10=231|8=FIX.4.4|9=54|35=0|34=79|49=EHABAXUK|52=20181120-18:50:02.126|56=MA|10=227|8=FIX.4.4|9=54|35=0|34=80|49=EHABAXUK|52=20181120-18:51:33.125|56=MA|10=223|8=FIX.4.4|9=54|35=0|34=81|49=EHABAXUK|52=20181120-18:53:04.120|56=MA|10=219|8=FIX.4.4|9=54|35=0|34=82|49=EHABAXUK|52=20181120-18:54:34.121|56=MA|10=225|8=FIX.4.4|9=54|35=0|34=83|49=EHABAXUK|52=20181120-18:56:05.119|56=MA|10=233|8=FIX.4.4|9=54|35=0|34=84|49=EHABAXUK|52=20181120-18:57:35.124|56=MA|10=234|8=FIX.4.4|9=54|35=0|34=85|49=EHABAXUK|52=20181120-18:59:06.110|56=MA|10=230|8=FIX.4.4|9=54|35=0|34=86|49=EHABAXUK|52=20181120-19:00:36.113|56=MA|10=224|8=FIX.4.4|9=54|35=0|34=87|49=EHABAXUK|52=20181120-19:02:06.121|56=MA|10=223|8=FIX.4.4|9=54|35=0|34=88|49=EHABAXUK|52=20181120-19:03:36.122|56=MA|10=229|8=FIX.4.4|9=54|35=0|34=89|49=EHABAXUK|52=20181120-19:05:07.112|56=MA|10=229|8=FIX.4.4|9=54|35=0|34=90|49=EHABAXUK|52=20181120-19:06:37.118|56=MA|10=231|8=FIX.4.4|9=54|35=0|34=91|49=EHABAXUK|52=20181120-19:08:07.120|56=MA|10=224|8=FIX.4.4|9=54|35=0|34=92|49=EHABAXUK|52=20181120-19:09:37.120|56=MA|10=229|8=FIX.4.4|9=54|35=0|34=93|49=EHABAXUK|52=20181120-19:11:08.109|56=MA|10=228|8=FIX.4.4|9=54|35=0|34=94|49=EHABAXUK|52=20181120-19:12:39.109|56=MA|10=234|8=FIX.4.4|9=54|35=0|34=95|49=EHABAXUK|52=20181120-19:14:09.119|56=MA|10=235|8=FIX.4.4|9=54|35=0|34=96|49=EHABAXUK|52=20181120-19:15:40.113|56=MA|10=226|8=FIX.4.4|9=54|35=0|34=97|49=EHABAXUK|52=20181120-19:17:10.116|56=MA|10=229|8=FIX.4.4|9=54|35=0|34=98|49=EHABAXUK|52=20181120-19:18:41.105|56=MA|10=233|8=FIX.4.4|9=54|35=0|34=99|49=EHABAXUK|52=20181120-19:20:12.113|56=MA|10=224|8=FIX.4.4|9=55|35=0|34=100|49=EHABAXUK|52=20181120-19:21:43.107|56=MA|10=008|8=FIX.4.4|9=55|35=0|34=101|49=EHABAXUK|52=20181120-19:23:13.113|56=MA|10=005|8=FIX.4.4|9=55|35=0|34=102|49=EHABAXUK|52=20181120-19:24:44.103|56=MA|10=010|8=FIX.4.4|9=55|35=0|34=103|49=EHABAXUK|52=20181120-19:26:14.106|56=MA|10=013|8=FIX.4.4|9=55|35=0|34=104|49=EHABAXUK|52=20181120-19:27:44.106|56=MA|10=018|8=FIX.4.4|9=55|35=0|34=105|49=EHABAXUK|52=20181120-19:29:15.103|56=MA|10=016|8=FIX.4.4|9=55|35=0|34=106|49=EHABAXUK|52=20181120-19:30:45.109|56=MA|10=018|8=FIX.4.4|9=55|35=0|34=107|49=EHABAXUK|52=20181120-19:32:16.113|56=MA|10=014|8=FIX.4.4|9=55|35=0|34=108|49=EHABAXUK|52=20181120-19:33:47.104|56=MA|10=020|8=FIX.4.4|9=55|35=0|34=109|49=EHABAXUK|52=20181120-19:35:17.112|56=MA|10=019|8=FIX.4.4|9=55|35=0|34=110|49=EHABAXUK|52=20181120-19:36:48.111|56=MA|10=015|8=FIX.4.4|9=55|35=0|34=111|49=EHABAXUK|52=20181120-19:38:19.104|56=MA|10=018|8=FIX.4.4|9=55|35=0|34=112|49=EHABAXUK|52=20181120-19:39:50.103|56=MA|10=014|8=FIX.4.4|9=55|35=0|34=113|49=EHABAXUK|52=20181120-19:41:20.103|56=MA|10=005|8=FIX.4.4|9=55|35=0|34=114|49=EHABAXUK|52=20181120-19:42:50.106|56=MA|10=013|8=FIX.4.4|9=55|35=0|34=115|49=EHABAXUK|52=20181120-19:44:21.105|56=MA|10=013|8=FIX.4.4|9=55|35=0|34=116|49=EHABAXUK|52=20181120-19:45:52.108|56=MA|10=022|8=FIX.4.4|9=55|35=0|34=117|49=EHABAXUK|52=20181120-19:47:23.093|56=MA|10=026|8=FIX.4.4|9=55|35=0|34=118|49=EHABAXUK|52=20181120-19:48:53.099|56=MA|10=037|8=FIX.4.4|9=55|35=0|34=119|49=EHABAXUK|52=20181120-19:50:23.101|56=MA|10=012|8=FIX.4.4|9=55|35=0|34=120|49=EHABAXUK|52=20181120-19:51:53.105|56=MA|10=012|8=FIX.4.4|9=55|35=0|34=121|49=EHABAXUK|52=20181120-19:53:24.103|56=MA|10=011|8=FIX.4.4|9=55|35=0|34=122|49=EHABAXUK|52=20181120-19:54:55.092|56=MA|10=024|8=FIX.4.4|9=55|35=0|34=123|49=EHABAXUK|52=20181120-19:56:25.092|56=MA|10=024|8=FIX.4.4|9=55|35=0|34=124|49=EHABAXUK|52=20181120-19:57:55.092|56=MA|10=029|8=FIX.4.4|9=55|35=0|34=125|49=EHABAXUK|52=20181120-19:59:26.098|56=MA|10=036|8=FIX.4.4|9=55|35=0|34=126|49=EHABAXUK|52=20181120-20:00:57.092|56=MA|10=013|8=FIX.4.4|9=55|35=0|34=127|49=EHABAXUK|52=20181120-20:02:27.098|56=MA|10=019|8=FIX.4.4|9=55|35=0|34=128|49=EHABAXUK|52=20181120-20:03:58.095|56=MA|10=022|8=FIX.4.4|9=55|35=0|34=129|49=EHABAXUK|52=20181120-20:05:28.096|56=MA|10=023|8=FIX.4.4|9=55|35=0|34=130|49=EHABAXUK|52=20181120-20:06:59.090|56=MA|10=014|8=FIX.4.4|9=55|35=0|34=131|49=EHABAXUK|52=20181120-20:08:29.093|56=MA|10=017|8=FIX.4.4|9=55|35=0|34=132|49=EHABAXUK|52=20181120-20:10:00.091|56=MA|10=254|8=FIX.4.4|9=55|35=0|34=133|49=EHABAXUK|52=20181120-20:11:31.087|56=MA|10=009|8=FIX.4.4|9=55|35=0|34=134|49=EHABAXUK|52=20181120-20:13:01.098|56=MA|10=011|8=FIX.4.4|9=55|35=0|34=135|49=EHABAXUK|52=20181120-20:14:32.097|56=MA|10=016|8=FIX.4.4|9=55|35=0|34=136|49=EHABAXUK|52=20181120-20:16:03.083|56=MA|10=012|8=FIX.4.4|9=55|35=0|34=137|49=EHABAXUK|52=20181120-20:17:33.085|56=MA|10=019|8=FIX.4.4|9=55|35=0|34=138|49=EHABAXUK|52=20181120-20:19:03.093|56=MA|10=018|8=FIX.4.4|9=55|35=0|34=139|49=EHABAXUK|52=20181120-20:20:34.087|56=MA|10=018|8=FIX.4.4|9=55|35=0|34=140|49=EHABAXUK|52=20181120-20:22:04.095|56=MA|10=008|8=FIX.4.4|9=55|35=0|34=141|49=EHABAXUK|52=20181120-20:23:35.086|56=MA|10=014|8=FIX.4.4|9=55|35=0|34=142|49=EHABAXUK|52=20181120-20:25:05.089|56=MA|10=017|8=FIX.4.4|9=55|35=0|34=143|49=EHABAXUK|52=20181120-20:26:36.085|56=MA|10=019|8=FIX.4.4|9=55|35=0|34=144|49=EHABAXUK|52=20181120-20:28:06.093|56=MA|10=018|8=FIX.4.4|9=55|35=0|34=145|49=EHABAXUK|52=20181120-20:29:37.090|56=MA|10=021|8=FIX.4.4|9=55|35=0|34=146|49=EHABAXUK|52=20181120-20:31:08.081|56=MA|10=013|8=FIX.4.4|9=55|35=0|34=147|49=EHABAXUK|52=20181120-20:32:38.091|56=MA|10=019|8=FIX.4.4|9=55|35=0|34=148|49=EHABAXUK|52=20181120-20:34:09.083|56=MA|10=021|8=FIX.4.4|9=55|35=0|34=149|49=EHABAXUK|52=20181120-20:35:39.091|56=MA|10=025|8=FIX.4.4|9=55|35=0|34=150|49=EHABAXUK|52=20181120-20:37:09.091|56=MA|10=016|8=FIX.4.4|9=55|35=0|34=151|49=EHABAXUK|52=20181120-20:38:40.084|56=MA|10=015|8=FIX.4.4|9=55|35=0|34=152|49=EHABAXUK|52=20181120-20:40:10.085|56=MA|10=007|8=FIX.4.4|9=55|35=0|34=153|49=EHABAXUK|52=20181120-20:41:40.086|56=MA|10=013|8=FIX.4.4|9=55|35=0|34=154|49=EHABAXUK|52=20181120-20:43:11.086|56=MA|10=014|8=FIX.4.4|9=55|35=0|34=155|49=EHABAXUK|52=20181120-20:44:42.078|56=MA|10=021|8=FIX.4.4|9=55|35=0|34=156|49=EHABAXUK|52=20181120-20:46:12.091|56=MA|10=016|8=FIX.4.4|9=55|35=0|34=157|49=EHABAXUK|52=20181120-20:47:43.088|56=MA|10=028|8=FIX.4.4|9=55|35=0|34=158|49=EHABAXUK|52=20181120-20:49:14.079|56=MA|10=029|8=FIX.4.4|9=55|35=0|34=159|49=EHABAXUK|52=20181120-20:50:44.088|56=MA|10=025|8=FIX.4.4|9=55|35=0|34=160|49=EHABAXUK|52=20181120-20:52:14.090|56=MA|10=009|8=FIX.4.4|9=55|35=0|34=161|49=EHABAXUK|52=20181120-20:53:45.075|56=MA|10=018|8=FIX.4.4|9=55|35=0|34=162|49=EHABAXUK|52=20181120-20:55:15.079|56=MA|10=022|8=FIX.4.4|9=55|35=0|34=163|49=EHABAXUK|52=20181120-20:56:45.080|56=MA|10=019|8=FIX.4.4|9=55|35=0|34=164|49=EHABAXUK|52=20181120-20:58:15.083|56=MA|10=022|8=FIX.4.4|9=55|35=0|34=165|49=EHABAXUK|52=20181120-20:59:45.085|56=MA|10=029|8=FIX.4.4|9=55|35=0|34=166|49=EHABAXUK|52=20181120-21:01:15.086|56=MA|10=016|8=FIX.4.4|9=55|35=0|34=167|49=EHABAXUK|52=20181120-21:02:46.082|56=MA|10=018|8=FIX.4.4|9=55|35=0|34=168|49=EHABAXUK|52=20181120-21:04:16.085|56=MA|10=021|8=FIX.4.4|9=55|35=0|34=169|49=EHABAXUK|52=20181120-21:05:47.079|56=MA|10=030|8=FIX.4.4|9=55|35=0|34=170|49=EHABAXUK|52=20181120-21:07:18.085|56=MA|10=019|8=FIX.4.4|9=55|35=0|34=171|49=EHABAXUK|52=20181120-21:08:49.081|56=MA|10=021|8=FIX.4.4|9=55|35=0|34=172|49=EHABAXUK|52=20181120-21:10:20.073|56=MA|10=005|8=FIX.4.4|9=55|35=0|34=173|49=EHABAXUK|52=20181120-21:11:51.071|56=MA|10=009|8=FIX.4.4|9=55|35=0|34=174|49=EHABAXUK|52=20181120-21:13:21.084|56=MA|10=013|8=FIX.4.4|9=55|35=0|34=175|49=EHABAXUK|52=20181120-21:14:52.070|56=MA|10=014|8=FIX.4.4|9=55|35=0|34=176|49=EHABAXUK|52=20181120-21:16:22.080|56=MA|10=015|8=FIX.4.4|9=55|35=0|34=177|49=EHABAXUK|52=20181120-21:17:53.073|56=MA|10=023|8=FIX.4.4|9=55|35=0|34=178|49=EHABAXUK|52=20181120-21:19:24.073|56=MA|10=024|8=FIX.4.4|9=55|35=0|34=179|49=EHABAXUK|52=20181120-21:20:55.073|56=MA|10=021|8=FIX.4.4|9=55|35=0|34=180|49=EHABAXUK|52=20181120-21:22:26.066|56=MA|10=015|8=FIX.4.4|9=55|35=0|34=181|49=EHABAXUK|52=20181120-21:23:56.068|56=MA|10=022|8=FIX.4.4|9=55|35=0|34=182|49=EHABAXUK|52=20181120-21:25:26.076|56=MA|10=021|8=FIX.4.4|9=55|35=0|34=183|49=EHABAXUK|52=20181120-21:26:56.079|56=MA|10=029|8=FIX.4.4|9=55|35=0|34=184|49=EHABAXUK|52=20181120-21:28:27.076|56=MA|10=027|8=FIX.4.4|9=55|35=0|34=185|49=EHABAXUK|52=20181120-21:29:58.070|56=MA|10=027|8=FIX.4.4|9=55|35=0|34=186|49=EHABAXUK|52=20181120-21:31:29.072|56=MA|10=021|8=FIX.4.4|9=55|35=0|34=187|49=EHABAXUK|52=20181120-21:33:00.067|56=MA|10=017|8=FIX.4.4|9=55|35=0|34=188|49=EHABAXUK|52=20181120-21:34:30.070|56=MA|10=016|8=FIX.4.4|9=55|35=0|34=189|49=EHABAXUK|52=20181120-21:36:01.062|56=MA|10=018|8=FIX.4.4|9=55|35=0|34=190|49=EHABAXUK|52=20181120-21:37:31.063|56=MA|10=015|8=FIX.4.4|9=55|35=0|34=191|49=EHABAXUK|52=20181120-21:39:01.066|56=MA|10=018|8=FIX.4.4|9=55|35=0|34=192|49=EHABAXUK|52=20181120-21:40:31.070|56=MA|10=009|8=FIX.4.4|9=55|35=0|34=193|49=EHABAXUK|52=20181120-21:42:01.073|56=MA|10=012|8=FIX.4.4|9=55|35=0|34=194|49=EHABAXUK|52=20181120-21:43:32.072|56=MA|10=017|8=FIX.4.4|9=55|35=0|34=195|49=EHABAXUK|52=20181120-21:45:03.061|56=MA|10=016|8=FIX.4.4|9=55|35=0|34=196|49=EHABAXUK|52=20181120-21:46:34.060|56=MA|10=021|8=FIX.4.4|9=55|35=0|34=197|49=EHABAXUK|52=20181120-21:48:04.060|56=MA|10=021|8=FIX.4.4|9=55|35=0|34=198|49=EHABAXUK|52=20181120-21:49:34.065|56=MA|10=031|8=FIX.4.4|9=55|35=0|34=199|49=EHABAXUK|52=20181120-21:51:05.063|56=MA|10=021|8=FIX.4.4|9=55|35=0|34=200|49=EHABAXUK|52=20181120-21:52:35.064|56=MA|10=009|8=FIX.4.4|9=55|35=0|34=201|49=EHABAXUK|52=20181120-21:54:06.063|56=MA|10=009|8=FIX.4.4|9=55|35=0|34=202|49=EHABAXUK|52=20181120-21:55:37.053|56=MA|10=014|8=FIX.4.4|9=55|35=0|34=203|49=EHABAXUK|52=20181120-21:57:07.066|56=MA|10=018|8=FIX.4.4|9=55|35=0|34=204|49=EHABAXUK|52=20181120-21:58:38.054|56=MA|10=021|8=FIX.4.4|9=55|35=0|34=205|49=EHABAXUK|52=20181120-22:00:08.063|56=MA|10=007|8=FIX.4.4|9=55|35=0|34=206|49=EHABAXUK|52=20181120-22:01:39.062|56=MA|10=012|8=FIX.4.4|9=55|35=0|34=207|49=EHABAXUK|52=20181120-22:03:10.059|56=MA|10=010|8=FIX.4.4|9=55|35=0|34=208|49=EHABAXUK|52=20181120-22:04:41.059|56=MA|10=016|8=FIX.4.4|9=55|35=0|34=209|49=EHABAXUK|52=20181120-22:06:12.062|56=MA|10=011|8=FIX.4.4|9=55|35=0|34=210|49=EHABAXUK|52=20181120-22:07:43.061|56=MA|10=007|8=FIX.4.4|9=55|35=0|34=211|49=EHABAXUK|52=20181120-22:09:14.055|56=MA|10=011|8=FIX.4.4|9=55|35=0|34=212|49=EHABAXUK|52=20181120-22:10:44.059|56=MA|10=011|8=FIX.4.4|9=55|35=0|34=213|49=EHABAXUK|52=20181120-22:12:15.055|56=MA|10=008|8=FIX.4.4|9=55|35=0|34=214|49=EHABAXUK|52=20181120-22:13:45.056|56=MA|10=014|8=FIX.4.4|9=55|35=0|34=215|49=EHABAXUK|52=20181120-22:15:15.061|56=MA|10=010|8=FIX.4.4|9=55|35=0|34=216|49=EHABAXUK|52=20181120-22:16:46.054|56=MA|10=018|8=FIX.4.4|9=55|35=0|34=217|49=EHABAXUK|52=20181120-22:18:16.060|56=MA|10=015|8=FIX.4.4|9=55|35=0|34=218|49=EHABAXUK|52=20181120-22:19:47.050|56=MA|10=020|8=FIX.4.4|9=55|35=0|34=219|49=EHABAXUK|52=20181120-22:21:17.056|56=MA|10=017|8=FIX.4.4|9=55|35=0|34=220|49=EHABAXUK|52=20181120-22:22:48.054|56=MA|10=012|8=FIX.4.4|9=55|35=0|34=221|49=EHABAXUK|52=20181120-22:24:19.048|56=MA|10=016|8=FIX.4.4|9=55|35=0|34=222|49=EHABAXUK|52=20181120-22:25:49.051|56=MA|10=015|8=FIX.4.4|9=55|35=0|34=223|49=EHABAXUK|52=20181120-22:27:19.055|56=MA|10=019|8=FIX.4.4|9=55|35=0|34=224|49=EHABAXUK|52=20181120-22:28:50.053|56=MA|10=014|8=FIX.4.4|9=55|35=0|34=225|49=EHABAXUK|52=20181120-22:30:21.049|56=MA|10=011|8=FIX.4.4|9=55|35=0|34=226|49=EHABAXUK|52=20181120-22:31:51.051|56=MA|10=009|8=FIX.4.4|9=55|35=0|34=227|49=EHABAXUK|52=20181120-22:33:21.051|56=MA|10=009|8=FIX.4.4|9=55|35=0|34=228|49=EHABAXUK|52=20181120-22:34:52.049|56=MA|10=022|8=FIX.4.4|9=55|35=0|34=229|49=EHABAXUK|52=20181120-22:36:23.048|56=MA|10=022|8=FIX.4.4|9=55|35=0|34=230|49=EHABAXUK|52=20181120-22:37:53.052|56=MA|10=013|8=FIX.4.4|9=55|35=0|34=231|49=EHABAXUK|52=20181120-22:39:24.048|56=MA|10=019|8=FIX.4.4|9=55|35=0|34=232|49=EHABAXUK|52=20181120-22:40:54.048|56=MA|10=015|8=FIX.4.4|9=55|35=0|34=233|49=EHABAXUK|52=20181120-22:42:25.036|56=MA|10=013|8=FIX.4.4|9=55|35=0|34=234|49=EHABAXUK|52=20181120-22:43:55.044|56=MA|10=017|8=FIX.4.4|9=55|35=0|34=235|49=EHABAXUK|52=20181120-22:45:26.046|56=MA|10=020|8=FIX.4.4|9=55|35=0|34=236|49=EHABAXUK|52=20181120-22:46:56.048|56=MA|10=027|8=FIX.4.4|9=55|35=0|34=237|49=EHABAXUK|52=20181120-22:48:27.040|56=MA|10=020|8=FIX.4.4|9=55|35=0|34=238|49=EHABAXUK|52=20181120-22:49:58.036|56=MA|10=031|8=FIX.4.4|9=55|35=0|34=239|49=EHABAXUK|52=20181120-22:51:28.042|56=MA|10=019|8=FIX.4.4|9=55|35=0|34=240|49=EHABAXUK|52=20181120-22:52:58.042|56=MA|10=015|8=FIX.4.4|9=55|35=0|34=241|49=EHABAXUK|52=20181120-22:54:29.038|56=MA|10=021|8=FIX.4.4|9=55|35=0|34=242|49=EHABAXUK|52=20181120-22:56:00.046|56=MA|10=012|8=FIX.4.4|9=55|35=0|34=243|49=EHABAXUK|52=20181120-22:57:31.033|56=MA|10=014|8=FIX.4.4|9=55|35=0|34=244|49=EHABAXUK|52=20181120-22:59:01.038|56=MA|10=019|8=FIX.4.4|9=55|35=0|34=245|49=EHABAXUK|52=20181120-23:00:31.042|56=MA|10=005|8=FIX.4.4|9=55|35=0|34=246|49=EHABAXUK|52=20181120-23:02:02.029|56=MA|10=011|8=FIX.4.4|9=55|35=0|34=247|49=EHABAXUK|52=20181120-23:03:32.044|56=MA|10=013|8=FIX.4.4|9=55|35=5|34=248|49=EHABAXUK|52=20181120-23:05:01.767|56=MA|10=029|8=FIX.4.4|9=84|35=A|34=249|49=EHABAXUK|52=20181121-08:35:23.323|56=MA|98=0|108=90|95=8|96=3.0.0rc4|10=211|8=FIX.4.4|9=106|35=5|34=250|49=EHABAXUK|52=20181121-08:35:23.948|56=MA|58=MsgSeqNum too low, expecting 258 but received 1|10=083|8=FIX.4.4|9=82|35=A|34=1|49=EHABAXUK|52=20181121-08:35:28.310|56=MA|98=0|108=90|95=8|96=3.0.0rc4|10=100|8=FIX.4.4|9=62|35=2|34=2|49=EHABAXUK|52=20181121-08:35:28.888|56=MA|7=1|16=0|10=059|8=FIX.4.4|9=53|35=0|34=3|49=EHABAXUK|52=20181121-08:36:59.315|56=MA|10=181|8=FIX.4.4|9=53|35=0|34=4|49=EHABAXUK|52=20181121-08:38:29.316|56=MA|10=182|8=FIX.4.4|9=53|35=0|34=5|49=EHABAXUK|52=20181121-08:39:59.893|56=MA|10=197|8=FIX.4.4|9=53|35=0|34=6|49=EHABAXUK|52=20181121-08:41:30.323|56=MA|10=168|8=FIX.4.4|9=53|35=0|34=7|49=EHABAXUK|52=20181121-08:43:01.311|56=MA|10=166|8=FIX.4.4|9=53|35=0|34=8|49=EHABAXUK|52=20181121-08:44:31.778|56=MA|10=188|8=FIX.4.4|9=53|35=0|34=9|49=EHABAXUK|52=20181121-08:46:02.311|56=MA|10=172|8=FIX.4.4|9=54|35=0|34=10|49=EHABAXUK|52=20181121-08:47:32.314|56=MA|10=220|8=FIX.4.4|9=54|35=0|34=11|49=EHABAXUK|52=20181121-08:49:02.889|56=MA|10=237|8=FIX.4.4|9=54|35=0|34=12|49=EHABAXUK|52=20181121-08:50:32.899|56=MA|10=234|8=FIX.4.4|9=54|35=0|34=13|49=EHABAXUK|52=20181121-08:52:03.317|56=MA|10=220|8=FIX.4.4|9=54|35=0|34=14|49=EHABAXUK|52=20181121-08:53:33.899|56=MA|10=240|8=FIX.4.4|9=54|35=0|34=15|49=EHABAXUK|52=20181121-08:55:04.304|56=MA|10=222|8=FIX.4.4|9=54|35=0|34=16|49=EHABAXUK|52=20181121-08:56:34.907|56=MA|10=236|8=FIX.4.4|9=54|35=0|34=17|49=EHABAXUK|52=20181121-08:58:05.302|56=MA|10=226|8=FIX.4.4|9=54|35=0|34=18|49=EHABAXUK|52=20181121-08:59:35.908|56=MA|10=243|8=FIX.4.4|9=54|35=0|34=19|49=EHABAXUK|52=20181121-09:01:06.301|56=MA|10=217|8=FIX.4.4|9=54|35=0|34=20|49=EHABAXUK|52=20181121-09:02:37.302|56=MA|10=215|8=FIX.4.4|9=54|35=0|34=21|49=EHABAXUK|52=20181121-09:04:08.300|56=MA|10=214|8=FIX.4.4|9=54|35=0|34=22|49=EHABAXUK|52=20181121-09:05:38.300|56=MA|10=219|8=FIX.4.4|9=54|35=0|34=23|49=EHABAXUK|52=20181121-09:07:09.299|56=MA|10=237|8=FIX.4.4|9=54|35=0|34=24|49=EHABAXUK|52=20181121-09:08:39.299|56=MA|10=242|8=FIX.4.4|9=54|35=0|34=25|49=EHABAXUK|52=20181121-09:10:10.298|56=MA|10=224|8=FIX.4.4|9=54|35=0|34=26|49=EHABAXUK|52=20181121-09:11:40.298|56=MA|10=229|8=FIX.4.4|9=54|35=0|34=27|49=EHABAXUK|52=20181121-09:13:11.297|56=MA|10=229|8=FIX.4.4|9=54|35=0|34=28|49=EHABAXUK|52=20181121-09:14:42.297|56=MA|10=235|8=FIX.4.4|9=54|35=0|34=29|49=EHABAXUK|52=20181121-09:16:12.297|56=MA|10=235|8=FIX.4.4|9=54|35=0|34=30|49=EHABAXUK|52=20181121-09:17:43.295|56=MA|10=230|8=FIX.4.4|9=54|35=0|34=31|49=EHABAXUK|52=20181121-09:19:13.295|56=MA|10=230|8=FIX.4.4|9=54|35=0|34=32|49=EHABAXUK|52=20181121-09:20:44.294|56=MA|10=226|8=FIX.4.4|9=54|35=0|34=33|49=EHABAXUK|52=20181121-09:22:15.293|56=MA|10=226|8=FIX.4.4|9=54|35=0|34=34|49=EHABAXUK|52=20181121-09:23:45.293|56=MA|10=231|8=FIX.4.4|9=54|35=0|34=35|49=EHABAXUK|52=20181121-09:25:16.292|56=MA|10=231|8=FIX.4.4|9=54|35=0|34=36|49=EHABAXUK|52=20181121-09:26:46.293|56=MA|10=237|8=FIX.4.4|9=54|35=0|34=37|49=EHABAXUK|52=20181121-09:28:17.292|56=MA|10=237|8=FIX.4.4|9=54|35=0|34=38|49=EHABAXUK|52=20181121-09:29:48.291|56=MA|10=242|8=FIX.4.4|9=54|35=0|34=39|49=EHABAXUK|52=20181121-09:31:19.290|56=MA|10=233|8=FIX.4.4|9=54|35=0|34=40|49=EHABAXUK|52=20181121-09:32:49.290|56=MA|10=229|8=FIX.4.4|9=54|35=0|34=41|49=EHABAXUK|52=20181121-09:34:20.289|56=MA|10=229|8=FIX.4.4|9=54|35=0|34=42|49=EHABAXUK|52=20181121-09:35:51.288|56=MA|10=234|8=FIX.4.4|9=54|35=0|34=43|49=EHABAXUK|52=20181121-09:37:21.288|56=MA|10=234|8=FIX.4.4|9=54|35=0|34=44|49=EHABAXUK|52=20181121-09:38:52.287|56=MA|10=239|8=FIX.4.4|9=54|35=0|34=45|49=EHABAXUK|52=20181121-09:40:22.287|56=MA|10=230|8=FIX.4.4|9=54|35=0|34=46|49=EHABAXUK|52=20181121-09:41:53.286|56=MA|10=235|8=FIX.4.4|9=54|35=0|34=47|49=EHABAXUK|52=20181121-09:43:23.286|56=MA|10=235|8=FIX.4.4|9=54|35=0|34=48|49=EHABAXUK|52=20181121-09:44:54.285|56=MA|10=240|8=FIX.4.4|9=54|35=0|34=49|49=EHABAXUK|52=20181121-09:46:25.284|56=MA|10=240|8=FIX.4.4|9=54|35=0|34=50|49=EHABAXUK|52=20181121-09:47:56.285|56=MA|10=238|8=FIX.4.4|9=54|35=0|34=51|49=EHABAXUK|52=20181121-09:49:27.284|56=MA|10=238|8=FIX.4.4|9=54|35=0|34=52|49=EHABAXUK|52=20181121-09:50:58.283|56=MA|10=234|8=FIX.4.4|9=54|35=0|34=53|49=EHABAXUK|52=20181121-09:52:29.282|56=MA|10=234|8=FIX.4.4|9=54|35=0|34=54|49=EHABAXUK|52=20181121-09:54:00.281|56=MA|10=225|8=FIX.4.4|9=54|35=0|34=55|49=EHABAXUK|52=20181121-09:55:30.281|56=MA|10=230|8=FIX.4.4|9=54|35=0|34=56|49=EHABAXUK|52=20181121-09:57:00.281|56=MA|10=230|8=FIX.4.4|9=54|35=0|34=57|49=EHABAXUK|52=20181121-09:58:31.280|56=MA|10=235|8=FIX.4.4|9=54|35=0|34=58|49=EHABAXUK|52=20181121-10:00:02.279|56=MA|10=221|8=FIX.4.4|9=54|35=0|34=59|49=EHABAXUK|52=20181121-10:01:32.280|56=MA|10=218|8=FIX.4.4|9=54|35=0|34=60|49=EHABAXUK|52=20181121-10:03:03.278|56=MA|10=217|8=FIX.4.4|9=54|35=0|34=61|49=EHABAXUK|52=20181121-10:04:33.278|56=MA|10=222|8=FIX.4.4|9=54|35=0|34=62|49=EHABAXUK|52=20181121-10:06:03.279|56=MA|10=223|8=FIX.4.4|9=54|35=0|34=63|49=EHABAXUK|52=20181121-10:07:34.276|56=MA|10=226|8=FIX.4.4|9=54|35=0|34=64|49=EHABAXUK|52=20181121-10:09:04.276|56=MA|10=226|8=FIX.4.4|9=54|35=0|34=65|49=EHABAXUK|52=20181121-10:10:35.275|56=MA|10=222|8=FIX.4.4|9=54|35=0|34=66|49=EHABAXUK|52=20181121-10:12:05.276|56=MA|10=223|8=FIX.4.4|9=54|35=0|34=67|49=EHABAXUK|52=20181121-10:13:36.276|56=MA|10=229|8=FIX.4.4|9=54|35=0|34=68|49=EHABAXUK|52=20181121-10:15:07.273|56=MA|10=227|8=FIX.4.4|9=54|35=0|34=69|49=EHABAXUK|52=20181121-10:16:37.273|56=MA|10=232|8=FIX.4.4|9=54|35=0|34=70|49=EHABAXUK|52=20181121-10:18:07.273|56=MA|10=223|8=FIX.4.4|9=54|35=0|34=71|49=EHABAXUK|52=20181121-10:19:37.273|56=MA|10=228|8=FIX.4.4|9=54|35=0|34=72|49=EHABAXUK|52=20181121-10:21:08.271|56=MA|10=218|8=FIX.4.4|9=54|35=0|34=73|49=EHABAXUK|52=20181121-10:22:38.272|56=MA|10=224|8=FIX.4.4|9=54|35=0|34=74|49=EHABAXUK|52=20181121-10:24:09.271|56=MA|10=224|8=FIX.4.4|9=54|35=0|34=75|49=EHABAXUK|52=20181121-10:25:39.271|56=MA|10=229|8=FIX.4.4|9=54|35=0|34=76|49=EHABAXUK|52=20181121-10:27:10.270|56=MA|10=220|8=FIX.4.4|9=54|35=0|34=77|49=EHABAXUK|52=20181121-10:28:41.270|56=MA|10=226|8=FIX.4.4|9=54|35=0|34=78|49=EHABAXUK|52=20181121-10:30:12.268|56=MA|10=225|8=FIX.4.4|9=54|35=0|34=79|49=EHABAXUK|52=20181121-10:31:42.268|56=MA|10=230|8=FIX.4.4|9=54|35=0|34=80|49=EHABAXUK|52=20181121-10:33:13.268|56=MA|10=222|8=FIX.4.4|9=54|35=0|34=81|49=EHABAXUK|52=20181121-10:34:44.267|56=MA|10=227|8=FIX.4.4|9=54|35=0|34=82|49=EHABAXUK|52=20181121-10:36:15.267|56=MA|10=228|8=FIX.4.4|9=54|35=0|34=83|49=EHABAXUK|52=20181121-10:37:45.267|56=MA|10=233|8=FIX.4.4|9=54|35=0|34=84|49=EHABAXUK|52=20181121-10:39:16.265|56=MA|10=232|8=FIX.4.4|9=54|35=0|34=85|49=EHABAXUK|52=20181121-10:40:46.265|56=MA|10=228|8=FIX.4.4|9=54|35=0|34=86|49=EHABAXUK|52=20181121-10:42:17.264|56=MA|10=228|8=FIX.4.4|9=54|35=0|34=87|49=EHABAXUK|52=20181121-10:43:48.264|56=MA|10=234|8=FIX.4.4|9=54|35=0|34=88|49=EHABAXUK|52=20181121-10:45:19.263|56=MA|10=234|8=FIX.4.4|9=54|35=0|34=89|49=EHABAXUK|52=20181121-10:46:50.262|56=MA|10=230|8=FIX.4.4|9=54|35=0|34=90|49=EHABAXUK|52=20181121-10:48:20.262|56=MA|10=221|8=FIX.4.4|9=54|35=0|34=91|49=EHABAXUK|52=20181121-10:49:50.262|56=MA|10=226|8=FIX.4.4|9=54|35=0|34=92|49=EHABAXUK|52=20181121-10:51:21.262|56=MA|10=218|8=FIX.4.4|9=54|35=0|34=93|49=EHABAXUK|52=20181121-10:52:52.260|56=MA|10=222|8=FIX.4.4|9=54|35=0|34=94|49=EHABAXUK|52=20181121-10:54:22.260|56=MA|10=222|8=FIX.4.4|9=54|35=0|34=95|49=EHABAXUK|52=20181121-10:55:53.259|56=MA|10=236|8=FIX.4.4|9=54|35=0|34=96|49=EHABAXUK|52=20181121-10:57:23.259|56=MA|10=236|8=FIX.4.4|9=54|35=0|34=97|49=EHABAXUK|52=20181121-10:58:54.258|56=MA|10=241|8=FIX.4.4|9=54|35=0|34=98|49=EHABAXUK|52=20181121-11:00:25.258|56=MA|10=228|8=FIX.4.4|9=178|35=D|34=99|49=EHABAXUK|52=20181121-11:01:42.299|56=MA|11=CLORDID6|453=1|448=eh_abaxuk|447=C|452=11|55=NA|48=XS0042821321|22=4|54=2|60=20181121-11:01:42.299|38=1000000|40=1|423=1|10=207|8=FIX.4.4|9=179|35=D|34=100|49=EHABAXUK|52=20181121-11:01:58.627|56=MA|11=CLORDID6|453=1|448=eh_abaxuk|447=C|452=11|55=NA|48=XS0042821321|22=4|54=2|60=20181121-11:01:58.627|38=1000000|40=1|423=1|10=243|8=FIX.4.4|9=179|35=D|34=101|49=EHABAXUK|52=20181121-11:01:58.788|56=MA|11=CLORDID6|453=1|448=eh_abaxuk|447=C|452=11|55=NA|48=XS0042821321|22=4|54=2|60=20181121-11:01:58.788|38=1000000|40=1|423=1|10=004|8=FIX.4.4|9=55|35=0|34=102|49=EHABAXUK|52=20181121-11:03:29.257|56=MA|10=013|8=FIX.4.4|9=55|35=0|34=103|49=EHABAXUK|52=20181121-11:04:59.821|56=MA|10=015|8=FIX.4.4|9=55|35=0|34=104|49=EHABAXUK|52=20181121-11:06:29.901|56=MA|10=014|8=FIX.4.4|9=55|35=0|34=105|49=EHABAXUK|52=20181121-11:08:00.254|56=MA|10=007|8=FIX.4.4|9=55|35=0|34=106|49=EHABAXUK|52=20181121-11:09:30.254|56=MA|10=012|8=FIX.4.4|9=55|35=0|34=107|49=EHABAXUK|52=20181121-11:11:00.254|56=MA|10=003|8=FIX.4.4|9=55|35=0|34=108|49=EHABAXUK|52=20181121-11:12:30.254|56=MA|10=008|8=FIX.4.4|9=55|35=0|34=109|49=EHABAXUK|52=20181121-11:14:00.254|56=MA|10=008|8=FIX.4.4|9=55|35=0|34=110|49=EHABAXUK|52=20181121-11:15:31.251|56=MA|10=002|8=FIX.4.4|9=55|35=0|34=111|49=EHABAXUK|52=20181121-11:17:01.251|56=MA|10=002|8=FIX.4.4|9=55|35=0|34=112|49=EHABAXUK|52=20181121-11:18:32.250|56=MA|10=007|8=FIX.4.4|9=55|35=0|34=113|49=EHABAXUK|52=20181121-11:20:02.251|56=MA|10=255|8=FIX.4.4|9=55|35=0|34=114|49=EHABAXUK|52=20181121-11:21:33.249|56=MA|10=012|8=FIX.4.4|9=55|35=0|34=115|49=EHABAXUK|52=20181121-11:23:03.249|56=MA|10=012|8=FIX.4.4|9=55|35=0|34=116|49=EHABAXUK|52=20181121-11:24:33.249|56=MA|10=017|8=FIX.4.4|9=55|35=0|34=117|49=EHABAXUK|52=20181121-11:26:04.249|56=MA|10=018|8=FIX.4.4|9=55|35=0|34=118|49=EHABAXUK|52=20181121-11:27:35.248|56=MA|10=023|8=FIX.4.4|9=55|35=0|34=119|49=EHABAXUK|52=20181121-11:29:06.247|56=MA|10=023|8=FIX.4.4|9=55|35=0|34=120|49=EHABAXUK|52=20181121-11:30:37.246|56=MA|10=010|8=FIX.4.4|9=55|35=0|34=121|49=EHABAXUK|52=20181121-11:32:07.246|56=MA|10=010|8=FIX.4.4|9=179|35=D|34=122|49=EHABAXUK|52=20181121-11:32:25.303|56=MA|11=CLORDID6|453=1|448=eh_abaxuk|447=C|452=11|55=NA|48=XS0042821321|22=4|54=2|60=20181121-11:32:25.303|38=1000000|40=1|423=1|10=225|8=FIX.4.4|9=601|35=E|34=123|49=EHABAXUK|52=20181121-11:32:54.530|56=MA|66=FIX44-ListID-0|394=2|68=5|73=5|11=FIX44-List-ClOrdID-1|22=4|38=100000|48=XS0542534192|54=1|55=[N/A/]|67=1|423=1|453=1|448=eh_abaxuk|447=C|452=11|11=FIX44-List-ClOrdID-2|22=4|38=120000|48=FR0013241536|54=1|55=[N/A]|67=2|11=FIX44-List-ClOrdID-3|22=4|38=130000|48=DE000HLB4D56|54=1|55=[N/A/]|67=1|453=1|448=eh_abaxuk|447=C|452=11|11=FIX44-List-ClOrdID-4|22=4|38=250000|48=XS0987936076|54=1|55=[N/A/]|67=1|453=1|448=eh_abaxuk|447=C|452=11|11=FIX44-List-ClOrdID-5|22=4|38=350000|48=XS0401048102|54=1|55=[N/A/]|67=1|453=1|448=eh_abaxuk|447=C|452=11|10=137|8=FIX.4.4|9=55|35=0|34=124|49=EHABAXUK|52=20181121-11:34:25.244|56=MA|10=013|8=FIX.4.4|9=55|35=0|34=125|49=EHABAXUK|52=20181121-11:35:55.245|56=MA|10=019|8=FIX.4.4|9=55|35=0|34=126|49=EHABAXUK|52=20181121-11:37:25.245|56=MA|10=019|8=FIX.4.4|9=55|35=0|34=127|49=EHABAXUK|52=20181121-11:38:56.244|56=MA|10=024|8=FIX.4.4|9=55|35=0|34=128|49=EHABAXUK|52=20181121-11:40:27.243|56=MA|10=015|8=FIX.4.4|9=55|35=0|34=129|49=EHABAXUK|52=20181121-11:41:57.243|56=MA|10=020|8=FIX.4.4|9=55|35=0|34=130|49=EHABAXUK|52=20181121-11:43:28.241|56=MA|10=010|8=FIX.4.4|9=55|35=0|34=131|49=EHABAXUK|52=20181121-11:44:58.241|56=MA|10=015|8=FIX.4.4|9=55|35=0|34=132|49=EHABAXUK|52=20181121-11:46:29.240|56=MA|10=015|8=FIX.4.4|9=55|35=0|34=133|49=EHABAXUK|52=20181121-11:47:59.240|56=MA|10=020|8=FIX.4.4|9=55|35=0|34=134|49=EHABAXUK|52=20181121-11:49:30.240|56=MA|10=012|8=FIX.4.4|9=55|35=0|34=135|49=EHABAXUK|52=20181121-11:51:01.240|56=MA|10=004|8=FIX.4.4|9=55|35=0|34=136|49=EHABAXUK|52=20181121-11:52:32.238|56=MA|10=017|8=FIX.4.4|9=55|35=0|34=137|49=EHABAXUK|52=20181121-11:54:03.237|56=MA|10=017|8=FIX.4.4|9=55|35=0|34=138|49=EHABAXUK|52=20181121-11:55:33.238|56=MA|10=023|8=FIX.4.4|9=55|35=0|34=139|49=EHABAXUK|52=20181121-11:57:04.236|56=MA|10=022|8=FIX.4.4|9=55|35=0|34=140|49=EHABAXUK|52=20181121-11:58:34.236|56=MA|10=018|8=FIX.4.4|9=55|35=0|34=141|49=EHABAXUK|52=20181121-12:00:05.235|56=MA|10=004|8=FIX.4.4|9=55|35=0|34=142|49=EHABAXUK|52=20181121-12:01:35.235|56=MA|10=009|8=FIX.4.4|9=55|35=0|34=143|49=EHABAXUK|52=20181121-12:03:06.234|56=MA|10=009|8=FIX.4.4|9=55|35=0|34=144|49=EHABAXUK|52=20181121-12:04:36.234|56=MA|10=014|8=FIX.4.4|9=55|35=0|34=145|49=EHABAXUK|52=20181121-12:06:06.234|56=MA|10=014|8=FIX.4.4|9=55|35=0|34=146|49=EHABAXUK|52=20181121-12:07:37.233|56=MA|10=019|8=FIX.4.4|9=55|35=0|34=147|49=EHABAXUK|52=20181121-12:09:07.234|56=MA|10=020|8=FIX.4.4|9=55|35=0|34=148|49=EHABAXUK|52=20181121-12:10:38.232|56=MA|10=015|8=FIX.4.4|9=55|35=0|34=149|49=EHABAXUK|52=20181121-12:12:09.231|56=MA|10=015|8=FIX.4.4|9=55|35=0|34=150|49=EHABAXUK|52=20181121-12:13:40.231|56=MA|10=003|8=FIX.4.4|9=55|35=0|34=151|49=EHABAXUK|52=20181121-12:15:11.231|56=MA|10=004|8=FIX.4.4|9=55|35=0|34=152|49=EHABAXUK|52=20181121-12:16:41.231|56=MA|10=009|8=FIX.4.4|9=55|35=0|34=153|49=EHABAXUK|52=20181121-12:18:12.230|56=MA|10=009|8=FIX.4.4|9=55|35=0|34=154|49=EHABAXUK|52=20181121-12:19:43.228|56=MA|10=022|8=FIX.4.4|9=55|35=0|34=155|49=EHABAXUK|52=20181121-12:21:13.228|56=MA|10=013|8=FIX.4.4|9=55|35=0|34=156|49=EHABAXUK|52=20181121-12:22:43.228|56=MA|10=018|8=FIX.4.4|9=55|35=0|34=157|49=EHABAXUK|52=20181121-12:24:14.227|56=MA|10=018|8=FIX.4.4|9=55|35=0|34=158|49=EHABAXUK|52=20181121-12:25:45.226|56=MA|10=023|8=FIX.4.4|9=55|35=0|34=159|49=EHABAXUK|52=20181121-12:27:15.226|56=MA|10=023|8=FIX.4.4|9=55|35=0|34=160|49=EHABAXUK|52=20181121-12:28:46.225|56=MA|10=019|8=FIX.4.4|9=55|35=0|34=161|49=EHABAXUK|52=20181121-12:30:17.225|56=MA|10=011|8=FIX.4.4|9=55|35=0|34=162|49=EHABAXUK|52=20181121-12:31:48.224|56=MA|10=016|8=FIX.4.4|9=55|35=0|34=163|49=EHABAXUK|52=20181121-12:33:19.224|56=MA|10=017|8=FIX.4.4|9=55|35=0|34=164|49=EHABAXUK|52=20181121-12:34:50.223|56=MA|10=013|8=FIX.4.4|9=55|35=0|34=165|49=EHABAXUK|52=20181121-12:36:20.223|56=MA|10=013|8=FIX.4.4|9=55|35=0|34=166|49=EHABAXUK|52=20181121-12:37:51.221|56=MA|10=017|8=FIX.4.4|9=55|35=0|34=167|49=EHABAXUK|52=20181121-12:39:21.221|56=MA|10=017|8=FIX.4.4|9=55|35=0|34=168|49=EHABAXUK|52=20181121-12:40:51.222|56=MA|10=014|8=FIX.4.4|9=55|35=0|34=169|49=EHABAXUK|52=20181121-12:42:22.221|56=MA|10=014|8=FIX.4.4|9=55|35=0|34=170|49=EHABAXUK|52=20181121-12:43:53.220|56=MA|10=010|8=FIX.4.4|9=55|35=0|34=171|49=EHABAXUK|52=20181121-12:45:24.219|56=MA|10=019|8=FIX.4.4|9=55|35=0|34=172|49=EHABAXUK|52=20181121-12:46:55.219|56=MA|10=025|8=FIX.4.4|9=55|35=0|34=173|49=EHABAXUK|52=20181121-12:48:25.219|56=MA|10=025|8=FIX.4.4|9=55|35=0|34=174|49=EHABAXUK|52=20181121-12:49:56.217|56=MA|10=029|8=FIX.4.4|9=55|35=0|34=175|49=EHABAXUK|52=20181121-12:51:26.217|56=MA|10=020|8=FIX.4.4|9=55|35=0|34=176|49=EHABAXUK|52=20181121-12:52:57.216|56=MA|10=025|8=FIX.4.4|9=55|35=0|34=177|49=EHABAXUK|52=20181121-12:54:28.215|56=MA|10=025|8=FIX.4.4|9=55|35=0|34=178|49=EHABAXUK|52=20181121-12:55:58.215|56=MA|10=030|8=FIX.4.4|9=55|35=0|34=179|49=EHABAXUK|52=20181121-12:57:28.215|56=MA|10=030|8=FIX.4.4|9=55|35=0|34=180|49=EHABAXUK|52=20181121-12:58:59.215|56=MA|10=027|8=FIX.4.4|9=55|35=0|34=181|49=EHABAXUK|52=20181121-13:00:30.213|56=MA|10=003|8=FIX.4.4|9=55|35=0|34=182|49=EHABAXUK|52=20181121-13:02:00.213|56=MA|10=003|8=FIX.4.4|9=55|35=0|34=183|49=EHABAXUK|52=20181121-13:03:31.212|56=MA|10=008|8=FIX.4.4|9=55|35=0|34=184|49=EHABAXUK|52=20181121-13:05:01.212|56=MA|10=008|8=FIX.4.4|9=55|35=0|34=185|49=EHABAXUK|52=20181121-13:06:31.212|56=MA|10=013|8=FIX.4.4|9=55|35=0|34=186|49=EHABAXUK|52=20181121-13:08:02.212|56=MA|10=014|8=FIX.4.4|9=55|35=0|34=187|49=EHABAXUK|52=20181121-13:09:33.211|56=MA|10=019|8=FIX.4.4|9=55|35=0|34=188|49=EHABAXUK|52=20181121-13:11:04.209|56=MA|10=018|8=FIX.4.4|9=55|35=0|34=189|49=EHABAXUK|52=20181121-13:12:34.209|56=MA|10=023|8=FIX.4.4|9=55|35=0|34=190|49=EHABAXUK|52=20181121-13:14:04.209|56=MA|10=014|8=FIX.4.4|9=55|35=0|34=191|49=EHABAXUK|52=20181121-13:15:35.207|56=MA|10=018|8=FIX.4.4|9=55|35=0|34=192|49=EHABAXUK|52=20181121-13:17:05.207|56=MA|10=018|8=FIX.4.4|9=55|35=0|34=193|49=EHABAXUK|52=20181121-13:18:35.207|56=MA|10=023|8=FIX.4.4|9=55|35=0|34=194|49=EHABAXUK|52=20181121-13:20:06.207|56=MA|10=015|8=FIX.4.4|9=55|35=0|34=195|49=EHABAXUK|52=20181121-13:21:37.205|56=MA|10=019|8=FIX.4.4|9=55|35=0|34=196|49=EHABAXUK|52=20181121-13:23:07.206|56=MA|10=020|8=FIX.4.4|9=55|35=0|34=197|49=EHABAXUK|52=20181121-13:24:38.204|56=MA|10=024|8=FIX.4.4|9=55|35=0|34=198|49=EHABAXUK|52=20181121-13:26:08.204|56=MA|10=024|8=FIX.4.4|9=55|35=0|34=199|49=EHABAXUK|52=20181121-13:27:38.204|56=MA|10=029|8=FIX.4.4|9=55|35=0|34=200|49=EHABAXUK|52=20181121-13:29:09.203|56=MA|10=011|8=FIX.4.4|9=55|35=0|34=201|49=EHABAXUK|52=20181121-13:30:39.203|56=MA|10=007|8=FIX.4.4|9=55|35=0|34=202|49=EHABAXUK|52=20181121-13:32:09.203|56=MA|10=007|8=FIX.4.4|9=55|35=0|34=203|49=EHABAXUK|52=20181121-13:33:40.202|56=MA|10=003|8=FIX.4.4|9=55|35=0|34=204|49=EHABAXUK|52=20181121-13:35:11.201|56=MA|10=003|8=FIX.4.4|9=55|35=0|34=205|49=EHABAXUK|52=20181121-13:36:41.201|56=MA|10=008|8=FIX.4.4|9=55|35=0|34=206|49=EHABAXUK|52=20181121-13:38:12.200|56=MA|10=008|8=FIX.4.4|9=55|35=0|34=207|49=EHABAXUK|52=20181121-13:39:43.199|56=MA|10=031|8=FIX.4.4|9=55|35=0|34=208|49=EHABAXUK|52=20181121-13:41:13.199|56=MA|10=022|8=FIX.4.4|9=55|35=0|34=209|49=EHABAXUK|52=20181121-13:42:44.198|56=MA|10=027|8=FIX.4.4|9=55|35=0|34=210|49=EHABAXUK|52=20181121-13:44:14.198|56=MA|10=018|8=FIX.4.4|9=55|35=0|34=211|49=EHABAXUK|52=20181121-13:45:45.197|56=MA|10=023|8=FIX.4.4|9=55|35=0|34=212|49=EHABAXUK|52=20181121-13:47:15.197|56=MA|10=023|8=FIX.4.4|9=55|35=0|34=213|49=EHABAXUK|52=20181121-13:48:46.197|56=MA|10=029|8=FIX.4.4|9=55|35=0|34=214|49=EHABAXUK|52=20181121-13:50:17.195|56=MA|10=019|8=FIX.4.4|9=55|35=0|34=215|49=EHABAXUK|52=20181121-13:51:48.194|56=MA|10=024|8=FIX.4.4|9=55|35=0|34=216|49=EHABAXUK|52=20181121-13:53:18.194|56=MA|10=024|8=FIX.4.4|9=55|35=0|34=217|49=EHABAXUK|52=20181121-13:54:48.194|56=MA|10=029|8=FIX.4.4|9=55|35=0|34=218|49=EHABAXUK|52=20181121-13:56:19.194|56=MA|10=030|8=FIX.4.4|9=55|35=0|34=219|49=EHABAXUK|52=20181121-13:57:50.192|56=MA|10=025|8=FIX.4.4|9=55|35=0|34=220|49=EHABAXUK|52=20181121-13:59:20.192|56=MA|10=016|8=FIX.4.4|9=55|35=0|34=221|49=EHABAXUK|52=20181121-14:00:51.192|56=MA|10=008|8=FIX.4.4|9=55|35=0|34=222|49=EHABAXUK|52=20181121-14:02:21.192|56=MA|10=008|8=FIX.4.4|9=55|35=0|34=223|49=EHABAXUK|52=20181121-14:03:52.190|56=MA|10=012|8=FIX.4.4|9=55|35=0|34=224|49=EHABAXUK|52=20181121-14:05:22.190|56=MA|10=012|8=FIX.4.4|9=55|35=0|34=225|49=EHABAXUK|52=20181121-14:06:53.189|56=MA|10=026|8=FIX.4.4|9=55|35=0|34=226|49=EHABAXUK|52=20181121-14:08:23.189|56=MA|10=026|8=FIX.4.4|9=55|35=0|34=227|49=EHABAXUK|52=20181121-14:09:54.188|56=MA|10=031|8=FIX.4.4|9=55|35=0|34=228|49=EHABAXUK|52=20181121-14:11:24.188|56=MA|10=022|8=FIX.4.4|9=55|35=0|34=229|49=EHABAXUK|52=20181121-14:12:55.187|56=MA|10=027|8=FIX.4.4|9=55|35=0|34=230|49=EHABAXUK|52=20181121-14:14:25.187|56=MA|10=018|8=FIX.4.4|9=55|35=0|34=231|49=EHABAXUK|52=20181121-14:15:56.186|56=MA|10=023|8=FIX.4.4|9=55|35=0|34=232|49=EHABAXUK|52=20181121-14:17:26.186|56=MA|10=023|8=FIX.4.4|9=55|35=0|34=233|49=EHABAXUK|52=20181121-14:18:57.186|56=MA|10=029|8=FIX.4.4|9=55|35=0|34=234|49=EHABAXUK|52=20181121-14:20:28.184|56=MA|10=019|8=FIX.4.4|9=55|35=0|34=235|49=EHABAXUK|52=20181121-14:21:59.184|56=MA|10=025|8=FIX.4.4|9=55|35=0|34=236|49=EHABAXUK|52=20181121-14:23:30.183|56=MA|10=016|8=FIX.4.4|9=55|35=0|34=237|49=EHABAXUK|52=20181121-14:25:00.183|56=MA|10=016|8=FIX.4.4|9=55|35=0|34=238|49=EHABAXUK|52=20181121-14:26:31.183|56=MA|10=022|8=FIX.4.4|9=55|35=0|34=239|49=EHABAXUK|52=20181121-14:28:02.182|56=MA|10=022|8=FIX.4.4|9=55|35=0|34=240|49=EHABAXUK|52=20181121-14:29:33.181|56=MA|10=018|8=FIX.4.4|9=55|35=0|34=241|49=EHABAXUK|52=20181121-14:31:03.181|56=MA|10=009|8=FIX.4.4|9=55|35=0|34=242|49=EHABAXUK|52=20181121-14:32:33.181|56=MA|10=014|8=FIX.4.4|9=55|35=0|34=243|49=EHABAXUK|52=20181121-14:34:04.180|56=MA|10=014|8=FIX.4.4|9=55|35=0|34=244|49=EHABAXUK|52=20181121-14:35:35.179|56=MA|10=028|8=FIX.4.4|9=55|35=0|34=245|49=EHABAXUK|52=20181121-14:37:06.178|56=MA|10=028|8=FIX.4.4|9=55|35=0|34=246|49=EHABAXUK|52=20181121-14:38:36.178|56=MA|10=033|8=FIX.4.4|9=55|35=0|34=247|49=EHABAXUK|52=20181121-14:40:06.179|56=MA|10=025|8=FIX.4.4|9=55|35=0|34=248|49=EHABAXUK|52=20181121-14:41:36.179|56=MA|10=030|8=FIX.4.4|9=55|35=0|34=249|49=EHABAXUK|52=20181121-14:43:07.178|56=MA|10=030|8=FIX.4.4|9=55|35=0|34=250|49=EHABAXUK|52=20181121-14:44:37.178|56=MA|10=026|8=FIX.4.4|9=55|35=0|34=251|49=EHABAXUK|52=20181121-14:46:08.177|56=MA|10=026|8=FIX.4.4|9=55|35=0|34=252|49=EHABAXUK|52=20181121-14:47:39.177|56=MA|10=032|8=FIX.4.4|9=55|35=0|34=253|49=EHABAXUK|52=20181121-14:49:10.175|56=MA|10=022|8=FIX.4.4|9=55|35=0|34=254|49=EHABAXUK|52=20181121-14:50:40.176|56=MA|10=019|8=FIX.4.4|9=55|35=0|34=255|49=EHABAXUK|52=20181121-14:52:11.175|56=MA|10=019|8=FIX.4.4|9=55|35=0|34=256|49=EHABAXUK|52=20181121-14:53:42.174|56=MA|10=024|8=FIX.4.4|9=55|35=0|34=257|49=EHABAXUK|52=20181121-14:55:12.174|56=MA|10=024|8=FIX.4.4|9=55|35=0|34=258|49=EHABAXUK|52=20181121-14:56:43.174|56=MA|10=030|8=FIX.4.4|9=55|35=0|34=259|49=EHABAXUK|52=20181121-14:58:14.172|56=MA|10=029|8=FIX.4.4|9=55|35=0|34=260|49=EHABAXUK|52=20181121-14:59:44.172|56=MA|10=025|8=FIX.4.4|9=55|35=0|34=261|49=EHABAXUK|52=20181121-15:01:14.172|56=MA|10=011|8=FIX.4.4|9=55|35=0|34=262|49=EHABAXUK|52=20181121-15:02:45.170|56=MA|10=015|8=FIX.4.4|9=55|35=0|34=263|49=EHABAXUK|52=20181121-15:04:15.170|56=MA|10=015|8=FIX.4.4|9=55|35=0|34=264|49=EHABAXUK|52=20181121-15:05:46.169|56=MA|10=029|8=FIX.4.4|9=55|35=0|34=265|49=EHABAXUK|52=20181121-15:07:16.169|56=MA|10=029|8=FIX.4.4|9=55|35=0|34=266|49=EHABAXUK|52=20181121-15:08:47.168|56=MA|10=034|8=FIX.4.4|9=55|35=0|34=267|49=EHABAXUK|52=20181121-15:10:17.168|56=MA|10=025|8=FIX.4.4|9=55|35=0|34=268|49=EHABAXUK|52=20181121-15:11:48.168|56=MA|10=031|8=FIX.4.4|9=55|35=0|34=269|49=EHABAXUK|52=20181121-15:13:19.166|56=MA|10=030|8=FIX.4.4|9=55|35=0|34=270|49=EHABAXUK|52=20181121-15:14:49.168|56=MA|10=028|8=FIX.4.4|9=55|35=0|34=271|49=EHABAXUK|52=20181121-15:16:20.165|56=MA|10=017|8=FIX.4.4|9=55|35=0|34=272|49=EHABAXUK|52=20181121-15:17:50.165|56=MA|10=022|8=FIX.4.4|9=55|35=0|34=273|49=EHABAXUK|52=20181121-15:19:20.166|56=MA|10=023|8=FIX.4.4|9=55|35=0|34=274|49=EHABAXUK|52=20181121-15:20:51.164|56=MA|10=018|8=FIX.4.4|9=55|35=0|34=275|49=EHABAXUK|52=20181121-15:22:21.164|56=MA|10=018|8=FIX.4.4|9=55|35=0|34=276|49=EHABAXUK|52=20181121-15:23:51.164|56=MA|10=023|8=FIX.4.4|9=55|35=0|34=277|49=EHABAXUK|52=20181121-15:25:22.162|56=MA|10=022|8=FIX.4.4|9=55|35=0|34=278|49=EHABAXUK|52=20181121-15:26:52.162|56=MA|10=027|8=FIX.4.4|9=55|35=0|34=279|49=EHABAXUK|52=20181121-15:28:23.161|56=MA|10=027|8=FIX.4.4|9=55|35=0|34=280|49=EHABAXUK|52=20181121-15:29:53.162|56=MA|10=024|8=FIX.4.4|9=55|35=0|34=281|49=EHABAXUK|52=20181121-15:31:24.160|56=MA|10=014|8=FIX.4.4|9=55|35=0|34=282|49=EHABAXUK|52=20181121-15:32:54.160|56=MA|10=019|8=FIX.4.4|9=55|35=0|34=283|49=EHABAXUK|52=20181121-15:34:25.158|56=MA|10=027|8=FIX.4.4|9=55|35=0|34=284|49=EHABAXUK|52=20181121-15:35:55.158|56=MA|10=032|8=FIX.4.4|9=55|35=0|34=285|49=EHABAXUK|52=20181121-15:37:25.158|56=MA|10=032|8=FIX.4.4|9=55|35=0|34=286|49=EHABAXUK|52=20181121-15:38:55.159|56=MA|10=038|8=FIX.4.4|9=55|35=0|34=287|49=EHABAXUK|52=20181121-15:40:26.157|56=MA|10=028|8=FIX.4.4|9=55|35=0|34=288|49=EHABAXUK|52=20181121-15:41:57.156|56=MA|10=033|8=FIX.4.4|9=55|35=0|34=289|49=EHABAXUK|52=20181121-15:43:28.156|56=MA|10=034|8=FIX.4.4|9=55|35=0|34=290|49=EHABAXUK|52=20181121-15:44:59.155|56=MA|10=030|8=FIX.4.4|9=55|35=0|34=291|49=EHABAXUK|52=20181121-15:46:29.155|56=MA|10=030|8=FIX.4.4|9=55|35=0|34=292|49=EHABAXUK|52=20181121-15:48:00.154|56=MA|10=021|8=FIX.4.4|9=55|35=0|34=293|49=EHABAXUK|52=20181121-15:49:30.154|56=MA|10=026|8=FIX.4.4|9=55|35=0|34=294|49=EHABAXUK|52=20181121-15:51:01.153|56=MA|10=017|8=FIX.4.4|9=55|35=0|34=295|49=EHABAXUK|52=20181121-15:52:32.153|56=MA|10=023|8=FIX.4.4|9=55|35=0|34=296|49=EHABAXUK|52=20181121-15:54:03.152|56=MA|10=023|8=FIX.4.4|9=55|35=0|34=297|49=EHABAXUK|52=20181121-15:55:34.151|56=MA|10=028|8=FIX.4.4|9=55|35=0|34=298|49=EHABAXUK|52=20181121-15:57:04.151|56=MA|10=028|8=FIX.4.4|9=55|35=0|34=299|49=EHABAXUK|52=20181121-15:58:35.150|56=MA|10=033|8=FIX.4.4|9=55|35=0|34=300|49=EHABAXUK|52=20181121-16:00:05.151|56=MA|10=002|8=FIX.4.4|9=55|35=0|34=301|49=EHABAXUK|52=20181121-16:01:36.150|56=MA|10=007|8=FIX.4.4|9=55|35=0|34=302|49=EHABAXUK|52=20181121-16:03:07.150|56=MA|10=008|8=FIX.4.4|9=55|35=0|34=303|49=EHABAXUK|52=20181121-16:04:38.148|56=MA|10=021|8=FIX.4.4|9=55|35=0|34=304|49=EHABAXUK|52=20181121-16:06:09.148|56=MA|10=022|8=FIX.4.4|9=55|35=0|34=305|49=EHABAXUK|52=20181121-16:07:39.148|56=MA|10=027|8=FIX.4.4|9=55|35=0|34=306|49=EHABAXUK|52=20181121-16:09:10.147|56=MA|10=018|8=FIX.4.4|9=55|35=0|34=307|49=EHABAXUK|52=20181121-16:10:41.146|56=MA|10=014|8=FIX.4.4|9=55|35=0|34=308|49=EHABAXUK|52=20181121-16:12:12.146|56=MA|10=015|8=FIX.4.4|9=55|35=0|34=309|49=EHABAXUK|52=20181121-16:13:43.144|56=MA|10=019|8=FIX.4.4|9=55|35=0|34=310|49=EHABAXUK|52=20181121-16:15:13.144|56=MA|10=010|8=FIX.4.4|9=55|35=0|34=311|49=EHABAXUK|52=20181121-16:16:43.144|56=MA|10=015|8=FIX.4.4|9=55|35=0|34=312|49=EHABAXUK|52=20181121-16:18:14.143|56=MA|10=015|8=FIX.4.4|9=55|35=0|34=313|49=EHABAXUK|52=20181121-16:19:44.143|56=MA|10=020|8=FIX.4.4|9=55|35=0|34=314|49=EHABAXUK|52=20181121-16:21:15.143|56=MA|10=012|8=FIX.4.4|9=55|35=0|34=315|49=EHABAXUK|52=20181121-16:22:46.142|56=MA|10=017|8=FIX.4.4|9=55|35=0|34=316|49=EHABAXUK|52=20181121-16:24:16.141|56=MA|10=016|8=FIX.4.4|9=55|35=0|34=317|49=EHABAXUK|52=20181121-16:25:47.140|56=MA|10=021|8=FIX.4.4|9=55|35=0|34=318|49=EHABAXUK|52=20181121-16:27:17.140|56=MA|10=021|8=FIX.4.4|9=55|35=0|34=319|49=EHABAXUK|52=20181121-16:28:48.139|56=MA|10=035|8=FIX.4.4|9=55|35=0|34=320|49=EHABAXUK|52=20181121-16:30:19.138|56=MA|10=017|8=FIX.4.4|9=55|35=0|34=321|49=EHABAXUK|52=20181121-16:31:49.138|56=MA|10=022|8=FIX.4.4|9=55|35=0|34=322|49=EHABAXUK|52=20181121-16:33:19.138|56=MA|10=022|8=FIX.4.4|9=55|35=0|34=323|49=EHABAXUK|52=20181121-16:34:50.136|56=MA|10=017|8=FIX.4.4|9=55|35=0|34=324|49=EHABAXUK|52=20181121-16:36:20.136|56=MA|10=017|8=FIX.4.4|9=55|35=0|34=325|49=EHABAXUK|52=20181121-16:37:50.136|56=MA|10=022|8=FIX.4.4|9=55|35=0|34=326|49=EHABAXUK|52=20181121-16:39:20.136|56=MA|10=022|8=FIX.4.4|9=55|35=0|34=327|49=EHABAXUK|52=20181121-16:40:51.135|56=MA|10=018|8=FIX.4.4|9=55|35=0|34=328|49=EHABAXUK|52=20181121-16:42:22.135|56=MA|10=019|8=FIX.4.4|9=55|35=0|34=329|49=EHABAXUK|52=20181121-16:43:53.134|56=MA|10=024|8=FIX.4.4|9=55|35=0|34=330|49=EHABAXUK|52=20181121-16:45:23.134|56=MA|10=015|8=FIX.4.4|9=55|35=0|34=331|49=EHABAXUK|52=20181121-16:46:54.133|56=MA|10=020|8=FIX.4.4|9=55|35=0|34=332|49=EHABAXUK|52=20181121-16:48:25.133|56=MA|10=021|8=FIX.4.4|9=55|35=0|34=333|49=EHABAXUK|52=20181121-16:49:56.132|56=MA|10=026|8=FIX.4.4|9=55|35=0|34=334|49=EHABAXUK|52=20181121-16:51:27.131|56=MA|10=017|8=FIX.4.4|9=55|35=0|34=335|49=EHABAXUK|52=20181121-16:52:57.131|56=MA|10=022|8=FIX.4.4|9=55|35=0|34=336|49=EHABAXUK|52=20181121-16:54:28.130|56=MA|10=022|8=FIX.4.4|9=55|35=0|34=337|49=EHABAXUK|52=20181121-16:55:58.130|56=MA|10=027|8=FIX.4.4|9=55|35=0|34=338|49=EHABAXUK|52=20181121-16:57:28.130|56=MA|10=027|8=FIX.4.4|9=55|35=0|34=339|49=EHABAXUK|52=20181121-16:58:59.128|56=MA|10=040|8=FIX.4.4|9=55|35=0|34=340|49=EHABAXUK|52=20181121-17:00:30.128|56=MA|10=009|8=FIX.4.4|9=55|35=0|34=341|49=EHABAXUK|52=20181121-17:02:01.127|56=MA|10=009|8=FIX.4.4|9=55|35=0|34=342|49=EHABAXUK|52=20181121-17:03:31.128|56=MA|10=015|8=FIX.4.4|9=55|35=0|34=343|49=EHABAXUK|52=20181121-17:05:02.125|56=MA|10=013|8=FIX.4.4|9=55|35=0|34=344|49=EHABAXUK|52=20181121-17:06:32.126|56=MA|10=019|8=FIX.4.4|9=55|35=0|34=345|49=EHABAXUK|52=20181121-17:08:03.125|56=MA|10=019|8=FIX.4.4|9=55|35=0|34=346|49=EHABAXUK|52=20181121-17:09:33.125|56=MA|10=024|8=FIX.4.4|9=55|35=0|34=347|49=EHABAXUK|52=20181121-17:11:03.125|56=MA|10=015|8=FIX.4.4|9=55|35=0|34=348|49=EHABAXUK|52=20181121-17:12:34.124|56=MA|10=020|8=FIX.4.4|9=55|35=0|34=349|49=EHABAXUK|52=20181121-17:14:05.123|56=MA|10=020|8=FIX.4.4|9=55|35=0|34=350|49=EHABAXUK|52=20181121-17:15:36.122|56=MA|10=016|8=FIX.4.4|9=55|35=0|34=351|49=EHABAXUK|52=20181121-17:17:06.122|56=MA|10=016|8=FIX.4.4|9=55|35=0|34=352|49=EHABAXUK|52=20181121-17:18:37.121|56=MA|10=021|8=FIX.4.4|9=55|35=0|34=353|49=EHABAXUK|52=20181121-17:20:08.121|56=MA|10=013|8=FIX.4.4|9=55|35=0|34=354|49=EHABAXUK|52=20181121-17:21:39.120|56=MA|10=018|8=FIX.4.4|9=55|35=0|34=355|49=EHABAXUK|52=20181121-17:23:10.119|56=MA|10=018|8=FIX.4.4|9=55|35=0|34=356|49=EHABAXUK|52=20181121-17:24:41.120|56=MA|10=016|8=FIX.4.4|9=55|35=0|34=357|49=EHABAXUK|52=20181121-17:26:12.118|56=MA|10=024|8=FIX.4.4|9=55|35=0|34=358|49=EHABAXUK|52=20181121-17:27:42.119|56=MA|10=030|8=FIX.4.4|9=55|35=0|34=359|49=EHABAXUK|52=20181121-17:29:13.118|56=MA|10=030|8=FIX.4.4|9=55|35=0|34=360|49=EHABAXUK|52=20181121-17:30:44.118|56=MA|10=018|8=FIX.4.4|9=55|35=0|34=361|49=EHABAXUK|52=20181121-17:32:15.116|56=MA|10=017|8=FIX.4.4|9=55|35=0|34=362|49=EHABAXUK|52=20181121-17:33:45.116|56=MA|10=022|8=FIX.4.4|9=55|35=0|34=363|49=EHABAXUK|52=20181121-17:35:16.115|56=MA|10=022|8=FIX.4.4|9=55|35=0|34=364|49=EHABAXUK|52=20181121-17:36:46.115|56=MA|10=027|8=FIX.4.4|9=55|35=0|34=365|49=EHABAXUK|52=20181121-17:38:17.115|56=MA|10=028|8=FIX.4.4|9=55|35=0|34=366|49=EHABAXUK|52=20181121-17:39:48.113|56=MA|10=032|8=FIX.4.4|9=55|35=0|34=367|49=EHABAXUK|52=20181121-17:41:18.113|56=MA|10=023|8=FIX.4.4|9=55|35=0|34=368|49=EHABAXUK|52=20181121-17:42:48.113|56=MA|10=028|8=FIX.4.4|9=55|35=0|34=369|49=EHABAXUK|52=20181121-17:44:19.111|56=MA|10=027|8=FIX.4.4|9=55|35=0|34=370|49=EHABAXUK|52=20181121-17:45:50.111|56=MA|10=015|8=FIX.4.4|9=55|35=0|34=371|49=EHABAXUK|52=20181121-17:47:20.111|56=MA|10=015|8=FIX.4.4|9=55|35=0|34=372|49=EHABAXUK|52=20181121-17:48:50.111|56=MA|10=020|8=FIX.4.4|9=55|35=0|34=373|49=EHABAXUK|52=20181121-17:50:21.109|56=MA|10=019|8=FIX.4.4|9=55|35=0|34=374|49=EHABAXUK|52=20181121-17:51:51.109|56=MA|10=024|8=FIX.4.4|9=55|35=0|34=375|49=EHABAXUK|52=20181121-17:53:22.108|56=MA|10=024|8=FIX.4.4|9=55|35=0|34=376|49=EHABAXUK|52=20181121-17:54:52.108|56=MA|10=029|8=FIX.4.4|9=55|35=0|34=377|49=EHABAXUK|52=20181121-17:56:23.107|56=MA|10=029|8=FIX.4.4|9=55|35=0|34=378|49=EHABAXUK|52=20181121-17:57:53.107|56=MA|10=034|8=FIX.4.4|9=55|35=0|34=379|49=EHABAXUK|52=20181121-17:59:24.107|56=MA|10=035|8=FIX.4.4|9=55|35=0|34=380|49=EHABAXUK|52=20181121-18:00:55.105|56=MA|10=016|8=FIX.4.4|9=55|35=0|34=381|49=EHABAXUK|52=20181121-18:02:25.105|56=MA|10=016|8=FIX.4.4|9=55|35=0|34=382|49=EHABAXUK|52=20181121-18:03:55.105|56=MA|10=021|8=FIX.4.4|9=55|35=0|34=383|49=EHABAXUK|52=20181121-18:05:26.104|56=MA|10=021|8=FIX.4.4|9=55|35=0|34=384|49=EHABAXUK|52=20181121-18:06:56.104|56=MA|10=026|8=FIX.4.4|9=55|35=0|34=385|49=EHABAXUK|52=20181121-18:08:27.103|56=MA|10=026|8=FIX.4.4|9=55|35=0|34=386|49=EHABAXUK|52=20181121-18:09:58.102|56=MA|10=031|8=FIX.4.4|9=55|35=0|34=387|49=EHABAXUK|52=20181121-18:11:28.103|56=MA|10=023|8=FIX.4.4|9=55|35=0|34=388|49=EHABAXUK|52=20181121-18:12:59.101|56=MA|10=027|8=FIX.4.4|9=55|35=0|34=389|49=EHABAXUK|52=20181121-18:14:29.101|56=MA|10=027|8=FIX.4.4|9=55|35=0|34=390|49=EHABAXUK|52=20181121-18:16:00.100|56=MA|10=009|8=FIX.4.4|9=55|35=0|34=391|49=EHABAXUK|52=20181121-18:17:31.100|56=MA|10=015|8=FIX.4.4|9=55|35=0|34=392|49=EHABAXUK|52=20181121-18:19:02.098|56=MA|10=032|8=FIX.4.4|9=55|35=0|34=393|49=EHABAXUK|52=20181121-18:20:32.098|56=MA|10=028|8=FIX.4.4|9=55|35=0|34=394|49=EHABAXUK|52=20181121-18:22:02.098|56=MA|10=028|8=FIX.4.4|9=55|35=0|34=395|49=EHABAXUK|52=20181121-18:23:32.098|56=MA|10=033|8=FIX.4.4|9=55|35=0|34=396|49=EHABAXUK|52=20181121-18:25:03.097|56=MA|10=033|8=FIX.4.4|9=55|35=0|34=397|49=EHABAXUK|52=20181121-18:26:34.096|56=MA|10=038|8=FIX.4.4|9=55|35=0|34=398|49=EHABAXUK|52=20181121-18:28:04.096|56=MA|10=038|8=FIX.4.4|9=55|35=0|34=399|49=EHABAXUK|52=20181121-18:29:35.095|56=MA|10=043|8=FIX.4.4|9=55|35=0|34=400|49=EHABAXUK|52=20181121-18:31:05.095|56=MA|10=016|8=FIX.4.4|9=55|35=0|34=401|49=EHABAXUK|52=20181121-18:32:36.093|56=MA|10=020|8=FIX.4.4|9=55|35=0|34=402|49=EHABAXUK|52=20181121-18:34:06.093|56=MA|10=020|8=FIX.4.4|9=55|35=0|34=403|49=EHABAXUK|52=20181121-18:35:36.093|56=MA|10=025|8=FIX.4.4|9=55|35=0|34=404|49=EHABAXUK|52=20181121-18:37:07.092|56=MA|10=025|8=FIX.4.4|9=55|35=0|34=405|49=EHABAXUK|52=20181121-18:38:38.092|56=MA|10=031|8=FIX.4.4|9=55|35=0|34=406|49=EHABAXUK|52=20181121-18:40:09.091|56=MA|10=022|8=FIX.4.4|9=55|35=0|34=407|49=EHABAXUK|52=20181121-18:41:39.091|56=MA|10=027|8=FIX.4.4|9=55|35=0|34=408|49=EHABAXUK|52=20181121-18:43:10.090|56=MA|10=018|8=FIX.4.4|9=55|35=0|34=409|49=EHABAXUK|52=20181121-18:44:40.091|56=MA|10=024|8=FIX.4.4|9=55|35=0|34=410|49=EHABAXUK|52=20181121-18:46:11.089|56=MA|10=023|8=FIX.4.4|9=55|35=0|34=411|49=EHABAXUK|52=20181121-18:47:42.089|56=MA|10=029|8=FIX.4.4|9=55|35=0|34=412|49=EHABAXUK|52=20181121-18:49:12.089|56=MA|10=029|8=FIX.4.4|9=55|35=0|34=413|49=EHABAXUK|52=20181121-18:50:43.087|56=MA|10=024|8=FIX.4.4|9=55|35=0|34=414|49=EHABAXUK|52=20181121-18:52:14.087|56=MA|10=025|8=FIX.4.4|9=55|35=0|34=415|49=EHABAXUK|52=20181121-18:53:45.086|56=MA|10=030|8=FIX.4.4|9=55|35=0|34=416|49=EHABAXUK|52=20181121-18:55:15.087|56=MA|10=031|8=FIX.4.4|9=55|35=0|34=417|49=EHABAXUK|52=20181121-18:56:45.873|56=MA|10=039|8=FIX.4.4|9=55|35=0|34=418|49=EHABAXUK|52=20181121-18:58:15.880|56=MA|10=037|8=FIX.4.4|9=55|35=0|34=419|49=EHABAXUK|52=20181121-18:59:46.083|56=MA|10=038|8=FIX.4.4|9=55|35=0|34=420|49=EHABAXUK|52=20181121-19:01:16.084|56=MA|10=016|8=FIX.4.4|9=55|35=0|34=421|49=EHABAXUK|52=20181121-19:02:46.759|56=MA|10=030|8=FIX.4.4|9=55|35=0|34=422|49=EHABAXUK|52=20181121-19:04:16.877|56=MA|10=031|8=FIX.4.4|9=55|35=0|34=423|49=EHABAXUK|52=20181121-19:05:46.881|56=MA|10=031|8=FIX.4.4|9=55|35=0|34=424|49=EHABAXUK|52=20181121-19:07:17.082|56=MA|10=025|8=FIX.4.4|9=55|35=0|34=425|49=EHABAXUK|52=20181121-19:08:47.866|56=MA|10=040|8=FIX.4.4|9=55|35=0|34=426|49=EHABAXUK|52=20181121-19:10:17.877|56=MA|10=033|8=FIX.4.4|9=55|35=0|34=427|49=EHABAXUK|52=20181121-19:11:48.080|56=MA|10=025|8=FIX.4.4|9=55|35=0|34=428|49=EHABAXUK|52=20181121-19:13:18.866|56=MA|10=037|8=FIX.4.4|9=55|35=0|34=429|49=EHABAXUK|52=20181121-19:14:48.879|56=MA|10=046|8=FIX.4.4|9=55|35=0|34=430|49=EHABAXUK|52=20181121-19:16:19.078|56=MA|10=029|8=FIX.4.4|9=55|35=0|34=431|49=EHABAXUK|52=20181121-19:17:49.892|56=MA|10=038|8=FIX.4.4|9=55|35=0|34=432|49=EHABAXUK|52=20181121-19:19:20.077|56=MA|10=025|8=FIX.4.4|9=55|35=0|34=433|49=EHABAXUK|52=20181121-19:20:50.760|56=MA|10=020|8=FIX.4.4|9=55|35=0|34=434|49=EHABAXUK|52=20181121-19:22:20.879|56=MA|10=031|8=FIX.4.4|9=55|35=0|34=435|49=EHABAXUK|52=20181121-19:23:51.076|56=MA|10=026|8=FIX.4.4|9=55|35=0|34=436|49=EHABAXUK|52=20181121-19:25:21.762|56=MA|10=028|8=FIX.4.4|9=55|35=0|34=437|49=EHABAXUK|52=20181121-19:26:51.777|56=MA|10=039|8=FIX.4.4|9=55|35=0|34=438|49=EHABAXUK|52=20181121-19:28:21.808|56=MA|10=034|8=FIX.4.4|9=55|35=0|34=439|49=EHABAXUK|52=20181121-19:29:51.892|56=MA|10=042|8=FIX.4.4|9=55|35=0|34=440|49=EHABAXUK|52=20181121-19:31:22.072|56=MA|10=015|8=FIX.4.4|9=55|35=0|34=441|49=EHABAXUK|52=20181121-19:32:52.072|56=MA|10=020|8=FIX.4.4|9=55|35=0|34=442|49=EHABAXUK|52=20181121-19:34:22.876|56=MA|10=032|8=FIX.4.4|9=55|35=0|34=443|49=EHABAXUK|52=20181121-19:35:53.071|56=MA|10=025|8=FIX.4.4|9=55|35=0|34=444|49=EHABAXUK|52=20181121-19:37:23.071|56=MA|10=025|8=FIX.4.4|9=55|35=0|34=445|49=EHABAXUK|52=20181121-19:38:53.882|56=MA|10=040|8=FIX.4.4|9=55|35=0|34=446|49=EHABAXUK|52=20181121-19:40:24.069|56=MA|10=029|8=FIX.4.4|9=55|35=0|34=447|49=EHABAXUK|52=20181121-19:41:54.817|56=MA|10=035|8=FIX.4.4|9=55|35=0|34=448|49=EHABAXUK|52=20181121-19:43:24.885|56=MA|10=040|8=FIX.4.4|9=55|35=0|34=449|49=EHABAXUK|52=20181121-19:44:54.895|56=MA|10=046|8=FIX.4.4|9=55|35=0|34=450|49=EHABAXUK|52=20181121-19:46:25.067|56=MA|10=029|8=FIX.4.4|9=55|35=0|34=451|49=EHABAXUK|52=20181121-19:47:55.763|56=MA|10=037|8=FIX.4.4|9=55|35=0|34=452|49=EHABAXUK|52=20181121-19:49:25.875|56=MA|10=041|8=FIX.4.4|9=55|35=0|34=453|49=EHABAXUK|52=20181121-19:50:56.066|56=MA|10=030|8=FIX.4.4|9=55|35=0|34=454|49=EHABAXUK|52=20181121-19:52:26.880|56=MA|10=034|8=FIX.4.4|9=55|35=0|34=455|49=EHABAXUK|52=20181121-19:53:57.064|56=MA|10=034|8=FIX.4.4|9=55|35=0|34=456|49=EHABAXUK|52=20181121-19:55:27.064|56=MA|10=034|8=FIX.4.4|9=55|35=0|34=457|49=EHABAXUK|52=20181121-19:56:57.878|56=MA|10=052|8=FIX.4.4|9=55|35=0|34=458|49=EHABAXUK|52=20181121-19:58:28.062|56=MA|10=038|8=FIX.4.4|9=55|35=0|34=459|49=EHABAXUK|52=20181121-19:59:58.062|56=MA|10=043|8=FIX.4.4|9=55|35=0|34=460|49=EHABAXUK|52=20181121-20:01:28.063|56=MA|10=012|8=FIX.4.4|9=55|35=0|34=461|49=EHABAXUK|52=20181121-20:02:58.778|56=MA|10=030|8=FIX.4.4|9=55|35=0|34=462|49=EHABAXUK|52=20181121-20:04:28.879|56=MA|10=032|8=FIX.4.4|9=55|35=0|34=463|49=EHABAXUK|52=20181121-20:05:59.061|56=MA|10=021|8=FIX.4.4|9=55|35=0|34=464|49=EHABAXUK|52=20181121-20:07:29.765|56=MA|10=032|8=FIX.4.4|9=55|35=0|34=465|49=EHABAXUK|52=20181121-20:08:59.796|56=MA|10=041|8=FIX.4.4|9=55|35=0|34=466|49=EHABAXUK|52=20181121-20:10:29.865|56=MA|10=029|8=FIX.4.4|9=55|35=0|34=467|49=EHABAXUK|52=20181121-20:11:59.881|56=MA|10=032|8=FIX.4.4|9=55|35=0|34=468|49=EHABAXUK|52=20181121-20:13:30.057|56=MA|10=019|8=FIX.4.4|9=55|35=0|34=469|49=EHABAXUK|52=20181121-20:15:00.057|56=MA|10=019|8=FIX.4.4|9=55|35=0|34=470|49=EHABAXUK|52=20181121-20:16:30.882|56=MA|10=021|8=FIX.4.4|9=55|35=0|34=471|49=EHABAXUK|52=20181121-20:18:01.055|56=MA|10=014|8=FIX.4.4|9=55|35=0|34=472|49=EHABAXUK|52=20181121-20:19:31.055|56=MA|10=019|8=FIX.4.4|9=55|35=0|34=473|49=EHABAXUK|52=20181121-20:21:01.055|56=MA|10=010|8=FIX.4.4|9=55|35=0|34=474|49=EHABAXUK|52=20181121-20:22:31.055|56=MA|10=015|8=FIX.4.4|9=55|35=0|34=475|49=EHABAXUK|52=20181121-20:24:01.763|56=MA|10=021|8=FIX.4.4|9=55|35=0|34=476|49=EHABAXUK|52=20181121-20:25:31.767|56=MA|10=030|8=FIX.4.4|9=55|35=0|34=477|49=EHABAXUK|52=20181121-20:27:02.052|56=MA|10=018|8=FIX.4.4|9=55|35=0|34=478|49=EHABAXUK|52=20181121-20:28:32.880|56=MA|10=032|8=FIX.4.4|9=55|35=0|34=479|49=EHABAXUK|52=20181121-20:30:02.885|56=MA|10=028|8=FIX.4.4|9=55|35=0|34=480|49=EHABAXUK|52=20181121-20:31:32.914|56=MA|10=017|8=FIX.4.4|9=55|35=0|34=481|49=EHABAXUK|52=20181121-20:33:03.050|56=MA|10=009|8=FIX.4.4|9=55|35=0|34=482|49=EHABAXUK|52=20181121-20:34:33.763|56=MA|10=025|8=FIX.4.4|9=55|35=0|34=483|49=EHABAXUK|52=20181121-20:36:03.772|56=MA|10=025|8=FIX.4.4|9=55|35=0|34=484|49=EHABAXUK|52=20181121-20:37:33.880|56=MA|10=030|8=FIX.4.4|9=55|35=0|34=485|49=EHABAXUK|52=20181121-20:39:04.047|56=MA|10=026|8=FIX.4.4|9=55|35=0|34=486|49=EHABAXUK|52=20181121-20:40:34.047|56=MA|10=022|8=FIX.4.4|9=55|35=0|34=487|49=EHABAXUK|52=20181121-20:42:05.047|56=MA|10=023|8=FIX.4.4|9=55|35=0|34=488|49=EHABAXUK|52=20181121-20:43:35.771|56=MA|10=032|8=FIX.4.4|9=55|35=0|34=489|49=EHABAXUK|52=20181121-20:45:05.880|56=MA|10=033|8=FIX.4.4|9=55|35=0|34=490|49=EHABAXUK|52=20181121-20:46:36.045|56=MA|10=023|8=FIX.4.4|9=55|35=0|34=491|49=EHABAXUK|52=20181121-20:48:06.045|56=MA|10=023|8=FIX.4.4|9=55|35=0|34=492|49=EHABAXUK|52=20181121-20:49:36.884|56=MA|10=039|8=FIX.4.4|9=55|35=0|34=493|49=EHABAXUK|52=20181121-20:51:07.043|56=MA|10=018|8=FIX.4.4|9=55|35=0|34=494|49=EHABAXUK|52=20181121-20:52:37.043|56=MA|10=023|8=FIX.4.4|9=55|35=0|34=495|49=EHABAXUK|52=20181121-20:54:07.881|56=MA|10=033|8=FIX.4.4|9=55|35=0|34=496|49=EHABAXUK|52=20181121-20:55:38.042|56=MA|10=028|8=FIX.4.4|9=55|35=0|34=497|49=EHABAXUK|52=20181121-20:57:08.775|56=MA|10=041|8=FIX.4.4|9=55|35=0|34=498|49=EHABAXUK|52=20181121-20:58:39.041|56=MA|10=033|8=FIX.4.4|9=55|35=0|34=499|49=EHABAXUK|52=20181121-21:00:09.763|56=MA|10=030|8=FIX.4.4|9=55|35=0|34=500|49=EHABAXUK|52=20181121-21:01:40.040|56=MA|10=253|8=FIX.4.4|9=55|35=0|34=501|49=EHABAXUK|52=20181121-21:03:10.884|56=MA|10=013|8=FIX.4.4|9=55|35=0|34=502|49=EHABAXUK|52=20181121-21:04:41.039|56=MA|10=011|8=FIX.4.4|9=55|35=0|34=503|49=EHABAXUK|52=20181121-21:06:11.879|56=MA|10=023|8=FIX.4.4|9=55|35=0|34=504|49=EHABAXUK|52=20181121-21:07:42.037|56=MA|10=015|8=FIX.4.4|9=55|35=0|34=505|49=EHABAXUK|52=20181121-21:09:12.878|56=MA|10=028|8=FIX.4.4|9=55|35=0|34=506|49=EHABAXUK|52=20181121-21:10:43.037|56=MA|10=012|8=FIX.4.4|9=55|35=0|34=507|49=EHABAXUK|52=20181121-21:12:13.762|56=MA|10=017|8=FIX.4.4|9=55|35=0|34=508|49=EHABAXUK|52=20181121-21:13:43.878|56=MA|10=030|8=FIX.4.4|9=55|35=0|34=509|49=EHABAXUK|52=20181121-21:15:14.034|56=MA|10=015|8=FIX.4.4|9=55|35=0|34=510|49=EHABAXUK|52=20181121-21:16:44.034|56=MA|10=011|8=FIX.4.4|9=55|35=0|34=511|49=EHABAXUK|52=20181121-21:18:14.034|56=MA|10=011|8=FIX.4.4|9=55|35=0|34=512|49=EHABAXUK|52=20181121-21:19:45.032|56=MA|10=015|8=FIX.4.4|9=55|35=0|34=513|49=EHABAXUK|52=20181121-21:21:15.032|56=MA|10=006|8=FIX.4.4|9=55|35=0|34=514|49=EHABAXUK|52=20181121-21:22:45.033|56=MA|10=012|8=FIX.4.4|9=55|35=0|34=515|49=EHABAXUK|52=20181121-21:24:16.031|56=MA|10=011|8=FIX.4.4|9=55|35=0|34=516|49=EHABAXUK|52=20181121-21:25:46.876|56=MA|10=033|8=FIX.4.4|9=55|35=0|34=517|49=EHABAXUK|52=20181121-21:27:16.877|56=MA|10=034|8=FIX.4.4|9=55|35=0|34=518|49=EHABAXUK|52=20181121-21:28:47.031|56=MA|10=022|8=FIX.4.4|9=55|35=0|34=519|49=EHABAXUK|52=20181121-21:30:17.881|56=MA|10=026|8=FIX.4.4|9=55|35=0|34=520|49=EHABAXUK|52=20181121-21:31:48.029|56=MA|10=017|8=FIX.4.4|9=55|35=0|34=521|49=EHABAXUK|52=20181121-21:33:18.778|56=MA|10=028|8=FIX.4.4|9=55|35=0|34=522|49=EHABAXUK|52=20181121-21:34:48.877|56=MA|10=033|8=FIX.4.4|9=55|35=0|34=523|49=EHABAXUK|52=20181121-21:36:19.026|56=MA|10=020|8=FIX.4.4|9=55|35=0|34=524|49=EHABAXUK|52=20181121-21:37:49.027|56=MA|10=026|8=FIX.4.4|9=55|35=0|34=525|49=EHABAXUK|52=20181121-21:39:19.877|56=MA|10=039|8=FIX.4.4|9=55|35=0|34=526|49=EHABAXUK|52=20181121-21:40:50.025|56=MA|10=012|8=FIX.4.4|9=55|35=0|34=527|49=EHABAXUK|52=20181121-21:42:20.025|56=MA|10=012|8=FIX.4.4|9=55|35=0|34=528|49=EHABAXUK|52=20181121-21:43:50.875|56=MA|10=030|8=FIX.4.4|9=55|35=0|34=529|49=EHABAXUK|52=20181121-21:45:21.023|56=MA|10=016|8=FIX.4.4|9=55|35=0|34=530|49=EHABAXUK|52=20181121-21:46:51.023|56=MA|10=012|8=FIX.4.4|9=55|35=0|34=531|49=EHABAXUK|52=20181121-21:48:22.023|56=MA|10=013|8=FIX.4.4|9=55|35=0|34=532|49=EHABAXUK|52=20181121-21:49:52.762|56=MA|10=028|8=FIX.4.4|9=55|35=0|34=533|49=EHABAXUK|52=20181121-21:51:22.871|56=MA|10=020|8=FIX.4.4|9=55|35=0|34=534|49=EHABAXUK|52=20181121-21:52:52.884|56=MA|10=029|8=FIX.4.4|9=55|35=0|34=535|49=EHABAXUK|52=20181121-21:54:23.020|56=MA|10=012|8=FIX.4.4|9=55|35=0|34=536|49=EHABAXUK|52=20181121-21:55:53.874|56=MA|10=034|8=FIX.4.4|9=55|35=0|34=537|49=EHABAXUK|52=20181121-21:57:24.019|56=MA|10=026|8=FIX.4.4|9=55|35=0|34=538|49=EHABAXUK|52=20181121-21:58:54.019|56=MA|10=031|8=FIX.4.4|9=55|35=0|34=539|49=EHABAXUK|52=20181121-22:00:24.019|56=MA|10=017|8=FIX.4.4|9=55|35=0|34=540|49=EHABAXUK|52=20181121-22:01:55.018|56=MA|10=013|8=FIX.4.4|9=55|35=0|34=541|49=EHABAXUK|52=20181121-22:03:26.017|56=MA|10=013|8=FIX.4.4|9=55|35=0|34=542|49=EHABAXUK|52=20181121-22:04:56.875|56=MA|10=030|8=FIX.4.4|9=55|35=0|34=543|49=EHABAXUK|52=20181121-22:06:27.016|56=MA|10=018|8=FIX.4.4|9=55|35=0|34=544|49=EHABAXUK|52=20181121-22:07:57.016|56=MA|10=023|8=FIX.4.4|9=55|35=0|34=545|49=EHABAXUK|52=20181121-22:09:27.873|56=MA|10=034|8=FIX.4.4|9=55|35=0|34=546|49=EHABAXUK|52=20181121-22:10:57.874|56=MA|10=031|8=FIX.4.4|9=55|35=0|34=547|49=EHABAXUK|52=20181121-22:12:27.877|56=MA|10=034|8=FIX.4.4|9=55|35=0|34=548|49=EHABAXUK|52=20181121-22:13:57.882|56=MA|10=035|8=FIX.4.4|9=55|35=0|34=549|49=EHABAXUK|52=20181121-22:15:28.015|56=MA|10=024|8=FIX.4.4|9=55|35=0|34=550|49=EHABAXUK|52=20181121-22:16:58.015|56=MA|10=020|8=FIX.4.4|9=55|35=0|34=551|49=EHABAXUK|52=20181121-22:18:28.883|56=MA|10=033|8=FIX.4.4|9=55|35=0|34=552|49=EHABAXUK|52=20181121-22:19:59.012|56=MA|10=023|8=FIX.4.4|9=55|35=0|34=553|49=EHABAXUK|52=20181121-22:21:29.012|56=MA|10=014|8=FIX.4.4|9=55|35=0|34=554|49=EHABAXUK|52=20181121-22:22:59.884|56=MA|10=036|8=FIX.4.4|9=55|35=0|34=555|49=EHABAXUK|52=20181121-22:24:30.011|56=MA|10=010|8=FIX.4.4|9=55|35=0|3