8=FIX.4.4|9=93|35=A|34=1|49=QA3Ver4_PUB|52=20180813-14:05:12.866|56=TRAX|98=0|108=30|95=8|96=3.0.0rc3|141=Y|10=106|8=FIX.4.4|9=58|35=0|34=2|49=QA3Ver4_PUB|52=20180813-14:05:42.869|56=TRAX|10=147|8=FIX.4.4|9=58|35=0|34=3|49=QA3Ver4_PUB|52=20180813-14:06:13.867|56=TRAX|10=145|8=FIX.4.4|9=58|35=0|34=4|49=QA3Ver4_PUB|52=20180813-14:06:44.866|56=TRAX|10=149|8=FIX.4.4|9=58|35=0|34=5|49=QA3Ver4_PUB|52=20180813-14:07:15.856|56=TRAX|10=148|8=FIX.4.4|9=58|35=0|34=6|49=QA3Ver4_PUB|52=20180813-14:07:45.866|56=TRAX|10=153|8=FIX.4.4|9=58|35=0|34=7|49=QA3Ver4_PUB|52=20180813-14:08:16.864|56=TRAX|10=151|8=FIX.4.4|9=58|35=0|34=8|49=QA3Ver4_PUB|52=20180813-14:08:46.864|56=TRAX|10=155|8=FIX.4.4|9=58|35=0|34=9|49=QA3Ver4_PUB|52=20180813-14:09:17.865|56=TRAX|10=156|8=FIX.4.4|9=59|35=0|34=10|49=QA3Ver4_PUB|52=20180813-14:09:48.864|56=TRAX|10=200|8=FIX.4.4|9=59|35=0|34=11|49=QA3Ver4_PUB|52=20180813-14:10:19.855|56=TRAX|10=191|8=FIX.4.4|9=59|35=0|34=12|49=QA3Ver4_PUB|52=20180813-14:10:50.867|56=TRAX|10=190|8=FIX.4.4|9=59|35=0|34=13|49=QA3Ver4_PUB|52=20180813-14:11:20.867|56=TRAX|10=189|8=FIX.4.4|9=59|35=0|34=14|49=QA3Ver4_PUB|52=20180813-14:11:50.867|56=TRAX|10=193|8=FIX.4.4|9=59|35=0|34=15|49=QA3Ver4_PUB|52=20180813-14:12:20.867|56=TRAX|10=192|8=FIX.4.4|9=59|35=0|34=16|49=QA3Ver4_PUB|52=20180813-14:12:51.860|56=TRAX|10=190|8=FIX.4.4|9=59|35=0|34=17|49=QA3Ver4_PUB|52=20180813-14:13:21.863|56=TRAX|10=192|8=FIX.4.4|9=77|35=5|34=18|49=QA3Ver4_PUB|52=20180813-14:13:25.862|56=TRAX|58=user requested|10=037|8=FIX.4.4|9=93|35=A|34=1|49=QA3Ver4_PUB|52=20180813-14:19:14.040|56=TRAX|98=0|108=30|95=8|96=3.0.0rc3|141=Y|10=097|8=FIX.4.4|9=58|35=0|34=2|49=QA3Ver4_PUB|52=20180813-14:19:44.750|56=TRAX|10=143|8=FIX.4.4|9=58|35=0|34=3|49=QA3Ver4_PUB|52=20180813-14:20:15.033|56=TRAX|10=128|8=FIX.4.4|9=58|35=0|34=4|49=QA3Ver4_PUB|52=20180813-14:20:45.040|56=TRAX|10=130|8=FIX.4.4|9=58|35=0|34=5|49=QA3Ver4_PUB|52=20180813-14:21:16.033|56=TRAX|10=132|8=FIX.4.4|9=58|35=0|34=6|49=QA3Ver4_PUB|52=20180813-14:21:46.034|56=TRAX|10=137|8=FIX.4.4|9=58|35=0|34=7|49=QA3Ver4_PUB|52=20180813-14:22:16.048|56=TRAX|10=141|8=FIX.4.4|9=58|35=0|34=8|49=QA3Ver4_PUB|52=20180813-14:22:47.047|56=TRAX|10=145|8=FIX.4.4|9=58|35=0|34=9|49=QA3Ver4_PUB|52=20180813-14:23:18.047|56=TRAX|10=145|8=FIX.4.4|9=59|35=0|34=10|49=QA3Ver4_PUB|52=20180813-14:23:49.046|56=TRAX|10=189|8=FIX.4.4|9=59|35=0|34=11|49=QA3Ver4_PUB|52=20180813-14:24:20.040|56=TRAX|10=174|8=FIX.4.4|9=59|35=0|34=12|49=QA3Ver4_PUB|52=20180813-14:24:51.039|56=TRAX|10=187|8=FIX.4.4|9=59|35=0|34=13|49=QA3Ver4_PUB|52=20180813-14:25:21.041|56=TRAX|10=179|8=FIX.4.4|9=59|35=0|34=14|49=QA3Ver4_PUB|52=20180813-14:25:52.040|56=TRAX|10=183|8=FIX.4.4|9=59|35=0|34=15|49=QA3Ver4_PUB|52=20180813-14:26:22.045|56=TRAX|10=187|8=FIX.4.4|9=59|35=0|34=16|49=QA3Ver4_PUB|52=20180813-14:26:53.046|56=TRAX|10=193|8=FIX.4.4|9=59|35=0|34=17|49=QA3Ver4_PUB|52=20180813-14:27:24.045|56=TRAX|10=192|8=FIX.4.4|9=59|35=0|34=18|49=QA3Ver4_PUB|52=20180813-14:27:55.033|56=TRAX|10=194|8=FIX.4.4|9=59|35=0|34=19|49=QA3Ver4_PUB|52=20180813-14:28:25.043|56=TRAX|10=194|8=FIX.4.4|9=59|35=0|34=20|49=QA3Ver4_PUB|52=20180813-14:28:56.036|56=TRAX|10=192|8=FIX.4.4|9=59|35=0|34=21|49=QA3Ver4_PUB|52=20180813-14:29:26.041|56=TRAX|10=187|8=FIX.4.4|9=479|35=AE|34=22|49=QA3Ver4_PUB|50=APA|57=APA|52=20180813-14:29:46.639|56=TRAX|571=TradeReport|487=0|325=Y|423=1|748=2|55=[N/A]|22=104|32=2222|31=203.17|60=20180705-06:20:13.370|552=1|54=1|29=3|1041=APA-CONCAT-2155-A4|1934=0|2489=PACK002|2490=1|15=GBP|1924=1|22600=2500000|22601=GBP|22606=DERV|22607=EQUI|22608=FUTR|22641=DE000TD8R3H0|22661=Stock futures|854=1|231=10|30=SINT|1116=2|1117=2138001MSYC6DJSD6442|1118=N|1119=116|1117=2138001MSYC6DJSD6442|1118=N|1119=1|22801=1|22802=TPAC|10=074|8=FIX.4.4|9=59|35=0|34=23|49=QA3Ver4_PUB|52=20180813-14:30:16.747|56=TRAX|10=193|8=FIX.4.4|9=59|35=0|34=24|49=QA3Ver4_PUB|52=20180813-14:30:47.044|56=TRAX|10=188|8=FIX.4.4|9=59|35=0|34=25|49=QA3Ver4_PUB|52=20180813-14:31:18.029|56=TRAX|10=191|8=FIX.4.4|9=59|35=0|34=26|49=QA3Ver4_PUB|52=20180813-14:31:48.030|56=TRAX|10=187|8=FIX.4.4|9=59|35=0|34=27|49=QA3Ver4_PUB|52=20180813-14:32:18.032|56=TRAX|10=188|8=FIX.4.4|9=59|35=0|34=28|49=QA3Ver4_PUB|52=20180813-14:32:48.043|56=TRAX|10=194|8=FIX.4.4|9=59|35=0|34=29|49=QA3Ver4_PUB|52=20180813-14:33:19.028|56=TRAX|10=197|8=FIX.4.4|9=59|35=0|34=30|49=QA3Ver4_PUB|52=20180813-14:33:49.029|56=TRAX|10=193|8=FIX.4.4|9=59|35=0|34=31|49=QA3Ver4_PUB|52=20180813-14:34:19.038|56=TRAX|10=192|8=FIX.4.4|9=59|35=0|34=32|49=QA3Ver4_PUB|52=20180813-14:34:50.030|56=TRAX|10=180|8=FIX.4.4|9=59|35=0|34=33|49=QA3Ver4_PUB|52=20180813-14:35:20.037|56=TRAX|10=186|8=FIX.4.4|9=59|35=0|34=34|49=QA3Ver4_PUB|52=20180813-14:35:50.041|56=TRAX|10=185|8=FIX.4.4|9=59|35=0|34=35|49=QA3Ver4_PUB|52=20180813-14:36:20.042|56=TRAX|10=185|8=FIX.4.4|9=59|35=0|34=36|49=QA3Ver4_PUB|52=20180813-14:36:51.042|56=TRAX|10=190|8=FIX.4.4|9=59|35=0|34=37|49=QA3Ver4_PUB|52=20180813-14:37:21.042|56=TRAX|10=189|8=FIX.4.4|9=59|35=0|34=38|49=QA3Ver4_PUB|52=20180813-14:37:52.038|56=TRAX|10=199|8=FIX.4.4|9=59|35=0|34=39|49=QA3Ver4_PUB|52=20180813-14:38:22.040|56=TRAX|10=191|8=FIX.4.4|9=59|35=0|34=40|49=QA3Ver4_PUB|52=20180813-14:38:53.032|56=TRAX|10=188|8=FIX.4.4|9=59|35=0|34=41|49=QA3Ver4_PUB|52=20180813-14:39:23.032|56=TRAX|10=187|8=FIX.4.4|9=59|35=0|34=42|49=QA3Ver4_PUB|52=20180813-14:39:54.036|56=TRAX|10=196|8=FIX.4.4|9=59|35=0|34=43|49=QA3Ver4_PUB|52=20180813-14:40:24.039|56=TRAX|10=189|8=FIX.4.4|9=59|35=0|34=44|49=QA3Ver4_PUB|52=20180813-14:40:55.033|56=TRAX|10=188|8=FIX.4.4|9=59|35=0|34=45|49=QA3Ver4_PUB|52=20180813-14:41:25.039|56=TRAX|10=193|8=FIX.4.4|9=59|35=0|34=46|49=QA3Ver4_PUB|52=20180813-14:41:56.029|56=TRAX|10=197|8=FIX.4.4|9=59|35=0|34=47|49=QA3Ver4_PUB|52=20180813-14:42:26.033|56=TRAX|10=191|8=FIX.4.4|9=59|35=0|34=48|49=QA3Ver4_PUB|52=20180813-14:42:56.035|56=TRAX|10=197|8=FIX.4.4|9=59|35=0|34=49|49=QA3Ver4_PUB|52=20180813-14:43:27.025|56=TRAX|10=196|8=FIX.4.4|9=59|35=0|34=50|49=QA3Ver4_PUB|52=20180813-14:43:57.033|56=TRAX|10=190|8=FIX.4.4|9=59|35=0|34=51|49=QA3Ver4_PUB|52=20180813-14:44:28.031|56=TRAX|10=188|8=FIX.4.4|9=59|35=0|34=52|49=QA3Ver4_PUB|52=20180813-14:44:58.039|56=TRAX|10=200|8=FIX.4.4|9=59|35=0|34=53|49=QA3Ver4_PUB|52=20180813-14:45:29.038|56=TRAX|10=199|8=FIX.4.4|9=59|35=0|34=54|49=QA3Ver4_PUB|52=20180813-14:46:00.038|56=TRAX|10=190|8=FIX.4.4|9=59|35=0|34=55|49=QA3Ver4_PUB|52=20180813-14:46:31.037|56=TRAX|10=194|8=FIX.4.4|9=59|35=0|34=56|49=QA3Ver4_PUB|52=20180813-14:47:01.038|56=TRAX|10=194|8=FIX.4.4|9=59|35=0|34=57|49=QA3Ver4_PUB|52=20180813-14:47:32.031|56=TRAX|10=192|8=FIX.4.4|9=59|35=0|34=58|49=QA3Ver4_PUB|52=20180813-14:48:02.031|56=TRAX|10=191|8=FIX.4.4|9=59|35=0|34=59|49=QA3Ver4_PUB|52=20180813-14:48:33.028|56=TRAX|10=202|8=FIX.4.4|9=59|35=0|34=60|49=QA3Ver4_PUB|52=20180813-14:49:03.031|56=TRAX|10=186|8=FIX.4.4|9=59|35=0|34=61|49=QA3Ver4_PUB|52=20180813-14:49:33.034|56=TRAX|10=193|8=FIX.4.4|9=59|35=0|34=62|49=QA3Ver4_PUB|52=20180813-14:50:04.032|56=TRAX|10=182|8=FIX.4.4|9=59|35=0|34=63|49=QA3Ver4_PUB|52=20180813-14:50:34.037|56=TRAX|10=191|8=FIX.4.4|9=59|35=0|34=64|49=QA3Ver4_PUB|52=20180813-14:51:05.023|56=TRAX|10=186|8=FIX.4.4|9=59|35=0|34=65|49=QA3Ver4_PUB|52=20180813-14:51:35.036|56=TRAX|10=194|8=FIX.4.4|9=59|35=0|34=66|49=QA3Ver4_PUB|52=20180813-14:52:06.030|56=TRAX|10=188|8=FIX.4.4|9=59|35=0|34=67|49=QA3Ver4_PUB|52=20180813-14:52:37.024|56=TRAX|10=196|8=FIX.4.4|9=59|35=0|34=68|49=QA3Ver4_PUB|52=20180813-14:53:07.031|56=TRAX|10=193|8=FIX.4.4|9=59|35=0|34=69|49=QA3Ver4_PUB|52=20180813-14:53:38.026|56=TRAX|10=202|8=FIX.4.4|9=59|35=0|34=70|49=QA3Ver4_PUB|52=20180813-14:54:09.020|56=TRAX|10=187|8=FIX.4.4|9=59|35=0|34=71|49=QA3Ver4_PUB|52=20180813-14:54:39.021|56=TRAX|10=192|8=FIX.4.4|9=59|35=0|34=72|49=QA3Ver4_PUB|52=20180813-14:55:10.023|56=TRAX|10=185|8=FIX.4.4|9=59|35=0|34=73|49=QA3Ver4_PUB|52=20180813-14:55:41.020|56=TRAX|10=187|8=FIX.4.4|9=59|35=0|34=74|49=QA3Ver4_PUB|52=20180813-14:56:11.034|56=TRAX|10=191|8=FIX.4.4|9=59|35=0|34=75|49=QA3Ver4_PUB|52=20180813-14:56:42.024|56=TRAX|10=195|8=FIX.4.4|9=59|35=0|34=76|49=QA3Ver4_PUB|52=20180813-14:57:12.032|56=TRAX|10=193|8=FIX.4.4|9=59|35=0|34=77|49=QA3Ver4_PUB|52=20180813-14:57:43.032|56=TRAX|10=198|8=FIX.4.4|9=59|35=0|34=78|49=QA3Ver4_PUB|52=20180813-14:58:14.022|56=TRAX|10=197|8=FIX.4.4|9=59|35=0|34=79|49=QA3Ver4_PUB|52=20180813-14:58:45.027|56=TRAX|10=207|8=FIX.4.4|9=59|35=0|34=80|49=QA3Ver4_PUB|52=20180813-14:59:16.030|56=TRAX|10=192|8=FIX.4.4|9=59|35=0|34=81|49=QA3Ver4_PUB|52=20180813-14:59:47.026|56=TRAX|10=202|8=FIX.4.4|9=59|35=0|34=82|49=QA3Ver4_PUB|52=20180813-15:00:17.027|56=TRAX|10=188|8=FIX.4.4|9=59|35=0|34=83|49=QA3Ver4_PUB|52=20180813-15:00:48.018|56=TRAX|10=193|8=FIX.4.4|9=59|35=0|34=84|49=QA3Ver4_PUB|52=20180813-15:01:18.027|56=TRAX|10=192|8=FIX.4.4|9=59|35=0|34=85|49=QA3Ver4_PUB|52=20180813-15:01:49.021|56=TRAX|10=191|8=FIX.4.4|9=59|35=0|34=86|49=QA3Ver4_PUB|52=20180813-15:02:20.020|56=TRAX|10=181|8=FIX.4.4|9=59|35=0|34=87|49=QA3Ver4_PUB|52=20180813-15:02:50.031|56=TRAX|10=187|8=FIX.4.4|9=59|35=0|34=88|49=QA3Ver4_PUB|52=20180813-15:03:20.738|56=TRAX|10=200|8=FIX.4.4|9=59|35=0|34=89|49=QA3Ver4_PUB|52=20180813-15:03:50.753|56=TRAX|10=201|8=FIX.4.4|9=59|35=0|34=90|49=QA3Ver4_PUB|52=20180813-15:04:21.029|56=TRAX|10=188|8=FIX.4.4|9=59|35=0|34=91|49=QA3Ver4_PUB|52=20180813-15:04:52.029|56=TRAX|10=193|8=FIX.4.4|9=59|35=0|34=92|49=QA3Ver4_PUB|52=20180813-15:05:23.031|56=TRAX|10=186|8=FIX.4.4|9=59|35=0|34=93|49=QA3Ver4_PUB|52=20180813-15:05:54.017|56=TRAX|10=195|8=FIX.4.4|9=59|35=0|34=94|49=QA3Ver4_PUB|52=20180813-15:06:25.016|56=TRAX|10=194|8=FIX.4.4|9=59|35=0|34=95|49=QA3Ver4_PUB|52=20180813-15:06:55.027|56=TRAX|10=200|8=FIX.4.4|9=59|35=0|34=96|49=QA3Ver4_PUB|52=20180813-15:07:26.024|56=TRAX|10=197|8=FIX.4.4|9=59|35=0|34=97|49=QA3Ver4_PUB|52=20180813-15:07:56.030|56=TRAX|10=198|8=FIX.4.4|9=59|35=0|34=98|49=QA3Ver4_PUB|52=20180813-15:08:27.027|56=TRAX|10=204|8=FIX.4.4|9=59|35=0|34=99|49=QA3Ver4_PUB|52=20180813-15:08:58.025|56=TRAX|10=207|8=FIX.4.4|9=60|35=0|34=100|49=QA3Ver4_PUB|52=20180813-15:09:29.017|56=TRAX|10=230|8=FIX.4.4|9=60|35=0|34=101|49=QA3Ver4_PUB|52=20180813-15:09:59.027|56=TRAX|10=235|8=FIX.4.4|9=60|35=0|34=102|49=QA3Ver4_PUB|52=20180813-15:10:30.027|56=TRAX|10=217|8=FIX.4.4|9=60|35=0|34=103|49=QA3Ver4_PUB|52=20180813-15:11:01.028|56=TRAX|10=218|8=FIX.4.4|9=60|35=0|34=104|49=QA3Ver4_PUB|52=20180813-15:11:32.015|56=TRAX|10=219|8=FIX.4.4|9=60|35=0|34=105|49=QA3Ver4_PUB|52=20180813-15:12:02.021|56=TRAX|10=215|8=FIX.4.4|9=60|35=0|34=106|49=QA3Ver4_PUB|52=20180813-15:12:33.022|56=TRAX|10=221|8=FIX.4.4|9=60|35=0|34=107|49=QA3Ver4_PUB|52=20180813-15:13:03.028|56=TRAX|10=226|8=FIX.4.4|9=60|35=0|34=108|49=QA3Ver4_PUB|52=20180813-15:13:34.028|56=TRAX|10=231|8=FIX.4.4|9=60|35=0|34=109|49=QA3Ver4_PUB|52=20180813-15:14:05.019|56=TRAX|10=231|8=FIX.4.4|9=60|35=0|34=110|49=QA3Ver4_PUB|52=20180813-15:14:35.026|56=TRAX|10=224|8=FIX.4.4|9=60|35=0|34=111|49=QA3Ver4_PUB|52=20180813-15:15:06.022|56=TRAX|10=220|8=FIX.4.4|9=60|35=0|34=112|49=QA3Ver4_PUB|52=20180813-15:15:36.025|56=TRAX|10=227|8=FIX.4.4|9=60|35=0|34=113|49=QA3Ver4_PUB|52=20180813-15:16:06.026|56=TRAX|10=227|8=FIX.4.4|9=60|35=0|34=114|49=QA3Ver4_PUB|52=20180813-15:16:37.021|56=TRAX|10=227|8=FIX.4.4|9=60|35=0|34=115|49=QA3Ver4_PUB|52=20180813-15:17:08.016|56=TRAX|10=231|8=FIX.4.4|9=60|35=0|34=116|49=QA3Ver4_PUB|52=20180813-15:17:38.026|56=TRAX|10=236|8=FIX.4.4|9=60|35=0|34=117|49=QA3Ver4_PUB|52=20180813-15:18:09.012|56=TRAX|10=231|8=FIX.4.4|9=60|35=0|34=118|49=QA3Ver4_PUB|52=20180813-15:18:39.026|56=TRAX|10=240|8=FIX.4.4|9=60|35=0|34=119|49=QA3Ver4_PUB|52=20180813-15:19:10.018|56=TRAX|10=232|8=FIX.4.4|9=60|35=0|34=120|49=QA3Ver4_PUB|52=20180813-15:19:40.019|56=TRAX|10=228|8=FIX.4.4|9=60|35=0|34=121|49=QA3Ver4_PUB|52=20180813-15:20:10.020|56=TRAX|10=210|8=FIX.4.4|9=60|35=0|34=122|49=QA3Ver4_PUB|52=20180813-15:20:41.018|56=TRAX|10=222|8=FIX.4.4|9=60|35=0|34=123|49=QA3Ver4_PUB|52=20180813-15:21:11.021|56=TRAX|10=215|8=FIX.4.4|9=60|35=0|34=124|49=QA3Ver4_PUB|52=20180813-15:21:41.024|56=TRAX|10=222|8=FIX.4.4|9=60|35=0|34=125|49=QA3Ver4_PUB|52=20180813-15:22:12.019|56=TRAX|10=226|8=FIX.4.4|9=60|35=0|34=126|49=QA3Ver4_PUB|52=20180813-15:22:42.684|56=TRAX|10=238|8=FIX.4.4|9=60|35=0|34=127|49=QA3Ver4_PUB|52=20180813-15:23:12.745|56=TRAX|10=235|8=FIX.4.4|9=60|35=0|34=128|49=QA3Ver4_PUB|52=20180813-15:23:43.016|56=TRAX|10=231|8=FIX.4.4|9=60|35=0|34=129|49=QA3Ver4_PUB|52=20180813-15:24:14.022|56=TRAX|10=228|8=FIX.4.4|9=60|35=0|34=130|49=QA3Ver4_PUB|52=20180813-15:24:44.023|56=TRAX|10=224|8=FIX.4.4|9=60|35=0|34=131|49=QA3Ver4_PUB|52=20180813-15:25:15.017|56=TRAX|10=227|8=FIX.4.4|9=60|35=0|34=132|49=QA3Ver4_PUB|52=20180813-15:25:45.020|56=TRAX|10=225|8=FIX.4.4|9=60|35=0|34=133|49=QA3Ver4_PUB|52=20180813-15:26:16.021|56=TRAX|10=226|8=FIX.4.4|9=60|35=0|34=134|49=QA3Ver4_PUB|52=20180813-15:26:47.023|56=TRAX|10=233|8=FIX.4.4|9=60|35=0|34=135|49=QA3Ver4_PUB|52=20180813-15:27:18.016|56=TRAX|10=235|8=FIX.4.4|9=60|35=0|34=136|49=QA3Ver4_PUB|52=20180813-15:27:48.021|56=TRAX|10=235|8=FIX.4.4|9=60|35=0|34=137|49=QA3Ver4_PUB|52=20180813-15:28:19.018|56=TRAX|10=241|8=FIX.4.4|9=60|35=0|34=138|49=QA3Ver4_PUB|52=20180813-15:28:49.019|56=TRAX|10=246|8=FIX.4.4|9=60|35=0|34=139|49=QA3Ver4_PUB|52=20180813-15:29:20.019|56=TRAX|10=237|8=FIX.4.4|9=60|35=0|34=140|49=QA3Ver4_PUB|52=20180813-15:29:51.022|56=TRAX|10=227|8=FIX.4.4|9=60|35=0|34=141|49=QA3Ver4_PUB|52=20180813-15:30:21.022|56=TRAX|10=217|8=FIX.4.4|9=60|35=0|34=142|49=QA3Ver4_PUB|52=20180813-15:30:52.008|56=TRAX|10=226|8=FIX.4.4|9=60|35=0|34=143|49=QA3Ver4_PUB|52=20180813-15:31:23.019|56=TRAX|10=228|8=FIX.4.4|9=60|35=0|34=144|49=QA3Ver4_PUB|52=20180813-15:31:54.014|56=TRAX|10=228|8=FIX.4.4|9=60|35=0|34=145|49=QA3Ver4_PUB|52=20180813-15:32:24.020|56=TRAX|10=224|8=FIX.4.4|9=60|35=0|34=146|49=QA3Ver4_PUB|52=20180813-15:32:55.020|56=TRAX|10=229|8=FIX.4.4|9=60|35=0|34=147|49=QA3Ver4_PUB|52=20180813-15:33:25.738|56=TRAX|10=244|8=FIX.4.4|9=60|35=0|34=148|49=QA3Ver4_PUB|52=20180813-15:33:55.738|56=TRAX|10=248|8=FIX.4.4|9=60|35=0|34=149|49=QA3Ver4_PUB|52=20180813-15:34:25.745|56=TRAX|10=245|8=FIX.4.4|9=60|35=0|34=150|49=QA3Ver4_PUB|52=20180813-15:34:56.010|56=TRAX|10=226|8=FIX.4.4|9=60|35=0|34=151|49=QA3Ver4_PUB|52=20180813-15:35:26.018|56=TRAX|10=233|8=FIX.4.4|9=60|35=0|34=152|49=QA3Ver4_PUB|52=20180813-15:35:57.005|56=TRAX|10=234|8=FIX.4.4|9=60|35=0|34=153|49=QA3Ver4_PUB|52=20180813-15:36:27.007|56=TRAX|10=235|8=FIX.4.4|9=60|35=0|34=154|49=QA3Ver4_PUB|52=20180813-15:36:58.019|56=TRAX|10=243|8=FIX.4.4|9=60|35=0|34=155|49=QA3Ver4_PUB|52=20180813-15:37:29.017|56=TRAX|10=241|8=FIX.4.4|9=60|35=0|34=156|49=QA3Ver4_PUB|52=20180813-15:38:00.013|56=TRAX|10=228|8=FIX.4.4|9=60|35=0|34=157|49=QA3Ver4_PUB|52=20180813-15:38:30.018|56=TRAX|10=237|8=FIX.4.4|9=60|35=0|34=158|49=QA3Ver4_PUB|52=20180813-15:39:01.004|56=TRAX|10=232|8=FIX.4.4|9=60|35=0|34=159|49=QA3Ver4_PUB|52=20180813-15:39:31.008|56=TRAX|10=240|8=FIX.4.4|9=60|35=0|34=160|49=QA3Ver4_PUB|52=20180813-15:40:01.018|56=TRAX|10=222|8=FIX.4.4|9=60|35=0|34=161|49=QA3Ver4_PUB|52=20180813-15:40:32.003|56=TRAX|10=221|8=FIX.4.4|9=60|35=0|34=162|49=QA3Ver4_PUB|52=20180813-15:41:02.017|56=TRAX|10=225|8=FIX.4.4|9=60|35=0|34=163|49=QA3Ver4_PUB|52=20180813-15:41:33.002|56=TRAX|10=224|8=FIX.4.4|9=60|35=0|34=164|49=QA3Ver4_PUB|52=20180813-15:42:03.015|56=TRAX|10=227|8=FIX.4.4|9=60|35=0|34=165|49=QA3Ver4_PUB|52=20180813-15:42:34.004|56=TRAX|10=230|8=FIX.4.4|9=60|35=0|34=166|49=QA3Ver4_PUB|52=20180813-15:43:05.005|56=TRAX|10=231|8=FIX.4.4|9=60|35=0|34=167|49=QA3Ver4_PUB|52=20180813-15:43:35.010|56=TRAX|10=231|8=FIX.4.4|9=60|35=0|34=168|49=QA3Ver4_PUB|52=20180813-15:44:06.008|56=TRAX|10=238|8=FIX.4.4|9=60|35=0|34=169|49=QA3Ver4_PUB|52=20180813-15:44:36.015|56=TRAX|10=240|8=FIX.4.4|9=60|35=0|34=170|49=QA3Ver4_PUB|52=20180813-15:45:07.016|56=TRAX|10=232|8=FIX.4.4|9=60|35=0|34=171|49=QA3Ver4_PUB|52=20180813-15:45:37.016|56=TRAX|10=236|8=FIX.4.4|9=60|35=0|34=172|49=QA3Ver4_PUB|52=20180813-15:46:08.007|56=TRAX|10=236|8=FIX.4.4|9=60|35=0|34=173|49=QA3Ver4_PUB|52=20180813-15:46:38.015|56=TRAX|10=239|8=FIX.4.4|9=60|35=0|34=174|49=QA3Ver4_PUB|52=20180813-15:47:09.007|56=TRAX|10=240|8=FIX.4.4|9=60|35=0|34=175|49=QA3Ver4_PUB|52=20180813-15:47:39.015|56=TRAX|10=243|8=FIX.4.4|9=60|35=0|34=176|49=QA3Ver4_PUB|52=20180813-15:48:09.742|56=TRAX|10=249|8=FIX.4.4|9=60|35=0|34=177|49=QA3Ver4_PUB|52=20180813-15:48:40.009|56=TRAX|10=241|8=FIX.4.4|9=60|35=0|34=178|49=QA3Ver4_PUB|52=20180813-15:49:11.000|56=TRAX|10=232|8=FIX.4.4|9=60|35=0|34=179|49=QA3Ver4_PUB|52=20180813-15:49:41.008|56=TRAX|10=244|8=FIX.4.4|9=60|35=0|34=180|49=QA3Ver4_PUB|52=20180813-15:50:11.009|56=TRAX|10=226|8=FIX.4.4|9=60|35=0|34=181|49=QA3Ver4_PUB|52=20180813-15:50:42.002|56=TRAX|10=224|8=FIX.4.4|9=60|35=0|34=182|49=QA3Ver4_PUB|52=20180813-15:51:12.002|56=TRAX|10=223|8=FIX.4.4|9=60|35=0|34=183|49=QA3Ver4_PUB|52=20180813-15:51:42.004|56=TRAX|10=229|8=FIX.4.4|9=60|35=0|34=184|49=QA3Ver4_PUB|52=20180813-15:52:12.008|56=TRAX|10=232|8=FIX.4.4|9=60|35=0|34=185|49=QA3Ver4_PUB|52=20180813-15:52:42.012|56=TRAX|10=231|8=FIX.4.4|9=60|35=0|34=186|49=QA3Ver4_PUB|52=20180813-15:53:12.998|56=TRAX|10=253|8=FIX.4.4|9=60|35=0|34=187|49=QA3Ver4_PUB|52=20180813-15:53:43.008|56=TRAX|10=240|8=FIX.4.4|9=60|35=0|34=188|49=QA3Ver4_PUB|52=20180813-15:54:13.011|56=TRAX|10=233|8=FIX.4.4|9=60|35=0|34=189|49=QA3Ver4_PUB|52=20180813-15:54:44.006|56=TRAX|10=242|8=FIX.4.4|9=60|35=0|34=190|49=QA3Ver4_PUB|52=20180813-15:55:14.998|56=TRAX|10=252|8=FIX.4.4|9=60|35=0|34=191|49=QA3Ver4_PUB|52=20180813-15:55:45.997|56=TRAX|10=000|8=FIX.4.4|9=60|35=0|34=192|49=QA3Ver4_PUB|52=20180813-15:56:16.012|56=TRAX|10=234|8=FIX.4.4|9=60|35=0|34=193|49=QA3Ver4_PUB|52=20180813-15:56:47.001|56=TRAX|10=237|8=FIX.4.4|9=60|35=0|34=194|49=QA3Ver4_PUB|52=20180813-15:57:17.002|56=TRAX|10=237|8=FIX.4.4|9=60|35=0|34=195|49=QA3Ver4_PUB|52=20180813-15:57:47.010|56=TRAX|10=240|8=FIX.4.4|9=60|35=0|34=196|49=QA3Ver4_PUB|52=20180813-15:58:17.996|56=TRAX|10=006|8=FIX.4.4|9=60|35=0|34=197|49=QA3Ver4_PUB|52=20180813-15:58:48.011|56=TRAX|10=245|8=FIX.4.4|9=60|35=0|34=198|49=QA3Ver4_PUB|52=20180813-15:59:19.005|56=TRAX|10=248|8=FIX.4.4|9=60|35=0|34=199|49=QA3Ver4_PUB|52=20180813-15:59:50.010|56=TRAX|10=240|8=FIX.4.4|9=60|35=0|34=200|49=QA3Ver4_PUB|52=20180813-16:00:21.004|56=TRAX|10=211|8=FIX.4.4|9=60|35=0|34=201|49=QA3Ver4_PUB|52=20180813-16:00:51.995|56=TRAX|10=234|8=FIX.4.4|9=60|35=0|34=202|49=QA3Ver4_PUB|52=20180813-16:01:22.001|56=TRAX|10=212|8=FIX.4.4|9=60|35=0|34=203|49=QA3Ver4_PUB|52=20180813-16:01:53.000|56=TRAX|10=216|8=FIX.4.4|9=60|35=0|34=204|49=QA3Ver4_PUB|52=20180813-16:02:24.001|56=TRAX|10=217|8=FIX.4.4|9=60|35=0|34=205|49=QA3Ver4_PUB|52=20180813-16:02:54.009|56=TRAX|10=229|8=FIX.4.4|9=60|35=0|34=206|49=QA3Ver4_PUB|52=20180813-16:03:24.995|56=TRAX|10=242|8=FIX.4.4|9=60|35=0|34=207|49=QA3Ver4_PUB|52=20180813-16:03:56.003|56=TRAX|10=228|8=FIX.4.4|9=60|35=0|34=208|49=QA3Ver4_PUB|52=20180813-16:04:27.000|56=TRAX|10=225|8=FIX.4.4|9=60|35=0|34=209|49=QA3Ver4_PUB|52=20180813-16:04:57.995|56=TRAX|10=252|8=FIX.4.4|9=60|35=0|34=210|49=QA3Ver4_PUB|52=20180813-16:05:28.007|56=TRAX|10=227|8=FIX.4.4|9=60|35=0|34=211|49=QA3Ver4_PUB|52=20180813-16:05:58.994|56=TRAX|10=246|8=FIX.4.4|9=60|35=0|34=212|49=QA3Ver4_PUB|52=20180813-16:06:30.001|56=TRAX|10=217|8=FIX.4.4|9=60|35=0|34=213|49=QA3Ver4_PUB|52=20180813-16:07:00.002|56=TRAX|10=217|8=FIX.4.4|9=60|35=0|34=214|49=QA3Ver4_PUB|52=20180813-16:07:31.001|56=TRAX|10=221|8=FIX.4.4|9=60|35=0|34=215|49=QA3Ver4_PUB|52=20180813-16:08:02.006|56=TRAX|10=226|8=FIX.4.4|9=60|35=0|34=216|49=QA3Ver4_PUB|52=20180813-16:08:33.006|56=TRAX|10=231|8=FIX.4.4|9=60|35=0|34=217|49=QA3Ver4_PUB|52=20180813-16:09:04.000|56=TRAX|10=225|8=FIX.4.4|9=60|35=0|34=218|49=QA3Ver4_PUB|52=20180813-16:09:35.000|56=TRAX|10=230|8=FIX.4.4|9=60|35=0|34=219|49=QA3Ver4_PUB|52=20180813-16:10:05.997|56=TRAX|10=245|8=FIX.4.4|9=60|35=0|34=220|49=QA3Ver4_PUB|52=20180813-16:10:37.006|56=TRAX|10=223|8=FIX.4.4|9=60|35=0|34=221|49=QA3Ver4_PUB|52=20180813-16:11:08.005|56=TRAX|10=222|8=FIX.4.4|9=60|35=0|34=222|49=QA3Ver4_PUB|52=20180813-16:11:39.003|56=TRAX|10=225|8=FIX.4.4|9=60|35=0|34=223|49=QA3Ver4_PUB|52=20180813-16:12:09.739|56=TRAX|10=240|8=FIX.4.4|9=60|35=0|34=224|49=QA3Ver4_PUB|52=20180813-16:12:39.741|56=TRAX|10=237|8=FIX.4.4|9=60|35=0|34=225|49=QA3Ver4_PUB|52=20180813-16:13:09.995|56=TRAX|10=247|8=FIX.4.4|9=60|35=0|34=226|49=QA3Ver4_PUB|52=20180813-16:13:40.005|56=TRAX|10=225|8=FIX.4.4|9=60|35=0|34=227|49=QA3Ver4_PUB|52=20180813-16:14:10.995|56=TRAX|10=242|8=FIX.4.4|9=60|35=0|34=228|49=QA3Ver4_PUB|52=20180813-16:14:41.994|56=TRAX|10=246|8=FIX.4.4|9=60|35=0|34=229|49=QA3Ver4_PUB|52=20180813-16:15:12.001|56=TRAX|10=225|8=FIX.4.4|9=60|35=0|34=230|49=QA3Ver4_PUB|52=20180813-16:15:42.998|56=TRAX|10=245|8=FIX.4.4|9=60|35=0|34=231|49=QA3Ver4_PUB|52=20180813-16:16:13.995|56=TRAX|10=242|8=FIX.4.4|9=60|35=0|34=232|49=QA3Ver4_PUB|52=20180813-16:16:43.995|56=TRAX|10=246|8=FIX.4.4|9=60|35=0|34=233|49=QA3Ver4_PUB|52=20180813-16:17:15.003|56=TRAX|10=227|8=FIX.4.4|9=60|35=0|34=234|49=QA3Ver4_PUB|52=20180813-16:17:46.001|56=TRAX|10=230|8=FIX.4.4|9=60|35=0|34=235|49=QA3Ver4_PUB|52=20180813-16:18:16.003|56=TRAX|10=231|8=FIX.4.4|9=60|35=0|34=236|49=QA3Ver4_PUB|52=20180813-16:18:46.993|56=TRAX|10=253|8=FIX.4.4|9=60|35=0|34=237|49=QA3Ver4_PUB|52=20180813-16:19:17.991|56=TRAX|10=251|8=FIX.4.4|9=60|35=0|34=238|49=QA3Ver4_PUB|52=20180813-16:19:48.000|56=TRAX|10=237|8=FIX.4.4|9=60|35=0|34=239|49=QA3Ver4_PUB|52=20180813-16:20:19.003|56=TRAX|10=231|8=FIX.4.4|9=60|35=0|34=240|49=QA3Ver4_PUB|52=20180813-16:20:50.002|56=TRAX|10=217|8=FIX.4.4|9=60|35=0|34=241|49=QA3Ver4_PUB|52=20180813-16:21:21.000|56=TRAX|10=215|8=FIX.4.4|9=60|35=0|34=242|49=QA3Ver4_PUB|52=20180813-16:21:52.001|56=TRAX|10=221|8=FIX.4.4|9=60|35=0|34=243|49=QA3Ver4_PUB|52=20180813-16:22:23.002|56=TRAX|10=222|8=FIX.4.4|9=60|35=0|34=244|49=QA3Ver4_PUB|52=20180813-16:22:53.989|56=TRAX|10=250|8=FIX.4.4|9=60|35=0|34=245|49=QA3Ver4_PUB|52=20180813-16:23:23.993|56=TRAX|10=244|8=FIX.4.4|9=60|35=0|34=246|49=QA3Ver4_PUB|52=20180813-16:23:54.990|56=TRAX|10=246|8=FIX.4.4|9=60|35=0|34=247|49=QA3Ver4_PUB|52=20180813-16:24:24.990|56=TRAX|10=245|8=FIX.4.4|9=60|35=0|34=248|49=QA3Ver4_PUB|52=20180813-16:24:54.998|56=TRAX|10=001|8=FIX.4.4|9=60|35=0|34=249|49=QA3Ver4_PUB|52=20180813-16:25:25.987|56=TRAX|10=255|8=FIX.4.4|9=60|35=0|34=250|49=QA3Ver4_PUB|52=20180813-16:25:56.991|56=TRAX|10=246|8=FIX.4.4|9=60|35=0|34=251|49=QA3Ver4_PUB|52=20180813-16:26:26.993|56=TRAX|10=247|8=FIX.4.4|9=60|35=0|34=252|49=QA3Ver4_PUB|52=20180813-16:26:57.986|56=TRAX|10=254|8=FIX.4.4|9=60|35=0|34=253|49=QA3Ver4_PUB|52=20180813-16:27:27.988|56=TRAX|10=255|8=FIX.4.4|9=60|35=0|34=254|49=QA3Ver4_PUB|52=20180813-16:27:57.998|56=TRAX|10=004|8=FIX.4.4|9=60|35=0|34=255|49=QA3Ver4_PUB|52=20180813-16:28:27.998|56=TRAX|10=003|8=FIX.4.4|9=60|35=0|34=256|49=QA3Ver4_PUB|52=20180813-16:28:59.000|56=TRAX|10=239|8=FIX.4.4|9=60|35=0|34=257|49=QA3Ver4_PUB|52=20180813-16:29:29.985|56=TRAX|10=004|8=FIX.4.4|9=60|35=0|34=258|49=QA3Ver4_PUB|52=20180813-16:29:59.986|56=TRAX|10=009|8=FIX.4.4|9=60|35=0|34=259|49=QA3Ver4_PUB|52=20180813-16:30:29.991|56=TRAX|10=251|8=FIX.4.4|9=60|35=0|34=260|49=QA3Ver4_PUB|52=20180813-16:31:01.000|56=TRAX|10=215|8=FIX.4.4|9=60|35=0|34=261|49=QA3Ver4_PUB|52=20180813-16:31:32.000|56=TRAX|10=220|8=FIX.4.4|9=60|35=0|34=262|49=QA3Ver4_PUB|52=20180813-16:32:02.986|56=TRAX|10=242|8=FIX.4.4|9=60|35=0|34=263|49=QA3Ver4_PUB|52=20180813-16:32:32.999|56=TRAX|10=250|8=FIX.4.4|9=60|35=0|34=264|49=QA3Ver4_PUB|52=20180813-16:33:03.000|56=TRAX|10=223|8=FIX.4.4|9=60|35=0|34=265|49=QA3Ver4_PUB|52=20180813-16:33:33.999|56=TRAX|10=254|8=FIX.4.4|9=60|35=0|34=266|49=QA3Ver4_PUB|52=20180813-16:34:04.999|56=TRAX|10=254|8=FIX.4.4|9=60|35=0|34=267|49=QA3Ver4_PUB|52=20180813-16:34:35.996|56=TRAX|10=000|8=FIX.4.4|9=60|35=0|34=268|49=QA3Ver4_PUB|52=20180813-16:35:06.985|56=TRAX|10=254|8=FIX.4.4|9=60|35=0|34=269|49=QA3Ver4_PUB|52=20180813-16:35:36.996|56=TRAX|10=004|8=FIX.4.4|9=60|35=0|34=270|49=QA3Ver4_PUB|52=20180813-16:36:07.997|56=TRAX|10=252|8=FIX.4.4|9=60|35=0|34=271|49=QA3Ver4_PUB|52=20180813-16:36:38.987|56=TRAX|10=000|8=FIX.4.4|9=60|35=0|34=272|49=QA3Ver4_PUB|52=20180813-16:37:09.734|56=TRAX|10=246|8=FIX.4.4|9=60|35=0|34=273|49=QA3Ver4_PUB|52=20180813-16:37:39.991|56=TRAX|10=255|8=FIX.4.4|9=60|35=0|34=274|49=QA3Ver4_PUB|52=20180813-16:38:10.992|56=TRAX|10=247|8=FIX.4.4|9=60|35=0|34=275|49=QA3Ver4_PUB|52=20180813-16:38:41.993|56=TRAX|10=253|8=FIX.4.4|9=60|35=0|34=276|49=QA3Ver4_PUB|52=20180813-16:39:12.983|56=TRAX|10=252|8=FIX.4.4|9=60|35=0|34=277|49=QA3Ver4_PUB|52=20180813-16:39:42.983|56=TRAX|10=000|8=FIX.4.4|9=60|35=0|34=278|49=QA3Ver4_PUB|52=20180813-16:40:12.997|56=TRAX|10=251|8=FIX.4.4|9=60|35=0|34=279|49=QA3Ver4_PUB|52=20180813-16:40:42.997|56=TRAX|10=255|8=FIX.4.4|9=60|35=0|34=280|49=QA3Ver4_PUB|52=20180813-16:41:12.998|56=TRAX|10=246|8=FIX.4.4|9=60|35=0|34=281|49=QA3Ver4_PUB|52=20180813-16:41:43.987|56=TRAX|10=249|8=FIX.4.4|9=60|35=0|34=282|49=QA3Ver4_PUB|52=20180813-16:42:13.989|56=TRAX|10=250|8=FIX.4.4|9=60|35=0|34=283|49=QA3Ver4_PUB|52=20180813-16:42:44.994|56=TRAX|10=251|8=FIX.4.4|9=60|35=0|34=284|49=QA3Ver4_PUB|52=20180813-16:43:14.995|56=TRAX|10=251|8=FIX.4.4|9=60|35=0|34=285|49=QA3Ver4_PUB|52=20180813-16:43:44.997|56=TRAX|10=001|8=FIX.4.4|9=60|35=0|34=286|49=QA3Ver4_PUB|52=20180813-16:44:15.996|56=TRAX|10=000|8=FIX.4.4|9=60|35=0|34=287|49=QA3Ver4_PUB|52=20180813-16:44:46.989|56=TRAX|10=007|8=FIX.4.4|9=60|35=0|34=288|49=QA3Ver4_PUB|52=20180813-16:45:16.998|56=TRAX|10=006|8=FIX.4.4|9=60|35=0|34=289|49=QA3Ver4_PUB|52=20180813-16:45:47.996|56=TRAX|10=009|8=FIX.4.4|9=60|35=0|34=290|49=QA3Ver4_PUB|52=20180813-16:46:18.988|56=TRAX|10=001|8=FIX.4.4|9=60|35=0|34=291|49=QA3Ver4_PUB|52=20180813-16:46:48.997|56=TRAX|10=005|8=FIX.4.4|9=60|35=0|34=292|49=QA3Ver4_PUB|52=20180813-16:47:19.990|56=TRAX|10=254|8=FIX.4.4|9=60|35=0|34=293|49=QA3Ver4_PUB|52=20180813-16:47:50.990|56=TRAX|10=250|8=FIX.4.4|9=60|35=0|34=294|49=QA3Ver4_PUB|52=20180813-16:48:20.997|56=TRAX|10=000|8=FIX.4.4|9=60|35=0|34=295|49=QA3Ver4_PUB|52=20180813-16:48:51.984|56=TRAX|10=001|8=FIX.4.4|9=60|35=0|34=296|49=QA3Ver4_PUB|52=20180813-16:49:21.995|56=TRAX|10=002|8=FIX.4.4|9=60|35=0|34=297|49=QA3Ver4_PUB|52=20180813-16:49:52.996|56=TRAX|10=008|8=FIX.4.4|9=60|35=0|34=298|49=QA3Ver4_PUB|52=20180813-16:50:22.997|56=TRAX|10=255|8=FIX.4.4|9=60|35=0|34=299|49=QA3Ver4_PUB|52=20180813-16:50:53.989|56=TRAX|10=005|8=FIX.4.4|9=60|35=0|34=300|49=QA3Ver4_PUB|52=20180813-16:51:24.984|56=TRAX|10=238|8=FIX.4.4|9=60|35=0|34=301|49=QA3Ver4_PUB|52=20180813-16:51:54.994|56=TRAX|10=243|8=FIX.4.4|9=60|35=0|34=302|49=QA3Ver4_PUB|52=20180813-16:52:25.993|56=TRAX|10=242|8=FIX.4.4|9=60|35=0|34=303|49=QA3Ver4_PUB|52=20180813-16:52:56.995|56=TRAX|10=249|8=FIX.4.4|9=60|35=0|34=304|49=QA3Ver4_PUB|52=20180813-16:53:27.988|56=TRAX|10=251|8=FIX.4.4|9=60|35=0|34=305|49=QA3Ver4_PUB|52=20180813-16:53:58.996|56=TRAX|10=255|8=FIX.4.4|9=60|35=0|34=306|49=QA3Ver4_PUB|52=20180813-16:54:29.993|56=TRAX|10=252|8=FIX.4.4|9=60|35=0|34=307|49=QA3Ver4_PUB|52=20180813-16:55:00.993|56=TRAX|10=243|8=FIX.4.4|9=60|35=0|34=308|49=QA3Ver4_PUB|52=20180813-16:55:31.992|56=TRAX|10=247|8=FIX.4.4|9=60|35=0|34=309|49=QA3Ver4_PUB|52=20180813-16:56:02.987|56=TRAX|10=251|8=FIX.4.4|9=60|35=0|34=310|49=QA3Ver4_PUB|52=20180813-16:56:33.982|56=TRAX|10=242|8=FIX.4.4|9=60|35=0|34=311|49=QA3Ver4_PUB|52=20180813-16:57:03.984|56=TRAX|10=243|8=FIX.4.4|9=60|35=0|34=312|49=QA3Ver4_PUB|52=20180813-16:57:33.988|56=TRAX|10=251|8=FIX.4.4|9=60|35=0|34=313|49=QA3Ver4_PUB|52=20180813-16:58:03.989|56=TRAX|10=251|8=FIX.4.4|9=60|35=0|34=314|49=QA3Ver4_PUB|52=20180813-16:58:33.996|56=TRAX|10=253|8=FIX.4.4|9=60|35=0|34=315|49=QA3Ver4_PUB|52=20180813-16:59:04.981|56=TRAX|10=247|8=FIX.4.4|9=60|35=0|34=316|49=QA3Ver4_PUB|52=20180813-16:59:34.994|56=TRAX|10=255|8=FIX.4.4|9=60|35=0|34=317|49=QA3Ver4_PUB|52=20180813-17:00:04.994|56=TRAX|10=240|8=FIX.4.4|9=60|35=0|34=318|49=QA3Ver4_PUB|52=20180813-17:00:35.983|56=TRAX|10=243|8=FIX.4.4|9=60|35=0|34=319|49=QA3Ver4_PUB|52=20180813-17:01:06.981|56=TRAX|10=241|8=FIX.4.4|9=60|35=0|34=320|49=QA3Ver4_PUB|52=20180813-17:01:36.982|56=TRAX|10=237|8=FIX.4.4|9=60|35=0|34=321|49=QA3Ver4_PUB|52=20180813-17:02:06.995|56=TRAX|10=240|8=FIX.4.4|9=60|35=0|34=322|49=QA3Ver4_PUB|52=20180813-17:02:37.994|56=TRAX|10=244|8=FIX.4.4|9=60|35=0|34=323|49=QA3Ver4_PUB|52=20180813-17:03:08.983|56=TRAX|10=242|8=FIX.4.4|9=60|35=0|34=324|49=QA3Ver4_PUB|52=20180813-17:03:38.984|56=TRAX|10=247|8=FIX.4.4|9=60|35=0|34=325|49=QA3Ver4_PUB|52=20180813-17:04:09.733|56=TRAX|10=239|8=FIX.4.4|9=60|35=0|34=326|49=QA3Ver4_PUB|52=20180813-17:04:39.740|56=TRAX|10=241|8=FIX.4.4|9=60|35=0|34=327|49=QA3Ver4_PUB|52=20180813-17:05:09.986|56=TRAX|10=252|8=FIX.4.4|9=60|35=0|34=328|49=QA3Ver4_PUB|52=20180813-17:05:39.994|56=TRAX|10=255|8=FIX.4.4|9=60|35=0|34=329|49=QA3Ver4_PUB|52=20180813-17:06:10.984|56=TRAX|10=245|8=FIX.4.4|9=60|35=0|34=330|49=QA3Ver4_PUB|52=20180813-17:06:40.994|56=TRAX|10=241|8=FIX.4.4|9=60|35=0|34=331|49=QA3Ver4_PUB|52=20180813-17:07:10.996|56=TRAX|10=242|8=FIX.4.4|9=60|35=0|34=332|49=QA3Ver4_PUB|52=20180813-17:07:41.981|56=TRAX|10=241|8=FIX.4.4|9=60|35=0|34=333|49=QA3Ver4_PUB|52=20180813-17:08:11.992|56=TRAX|10=242|8=FIX.4.4|9=60|35=0|34=334|49=QA3Ver4_PUB|52=20180813-17:08:41.995|56=TRAX|10=249|8=FIX.4.4|9=60|35=0|34=335|49=QA3Ver4_PUB|52=20180813-17:09:12.981|56=TRAX|10=244|8=FIX.4.4|9=60|35=0|34=336|49=QA3Ver4_PUB|52=20180813-17:09:42.993|56=TRAX|10=251|8=FIX.4.4|9=60|35=0|34=337|49=QA3Ver4_PUB|52=20180813-17:10:12.994|56=TRAX|10=242|8=FIX.4.4|9=60|35=0|34=338|49=QA3Ver4_PUB|52=20180813-17:10:43.980|56=TRAX|10=242|8=FIX.4.4|9=60|35=0|34=339|49=QA3Ver4_PUB|52=20180813-17:11:13.994|56=TRAX|10=246|8=FIX.4.4|9=60|35=0|34=340|49=QA3Ver4_PUB|52=20180813-17:11:43.995|56=TRAX|10=242|8=FIX.4.4|9=60|35=0|34=341|49=QA3Ver4_PUB|52=20180813-17:12:14.984|56=TRAX|10=240|8=FIX.4.4|9=60|35=0|34=342|49=QA3Ver4_PUB|52=20180813-17:12:44.992|56=TRAX|10=243|8=FIX.4.4|9=60|35=0|34=343|49=QA3Ver4_PUB|52=20180813-17:13:15.985|56=TRAX|10=245|8=FIX.4.4|9=60|35=0|34=344|49=QA3Ver4_PUB|52=20180813-17:13:46.994|56=TRAX|10=250|8=FIX.4.4|9=60|35=0|34=345|49=QA3Ver4_PUB|52=20180813-17:14:17.981|56=TRAX|10=246|8=FIX.4.4|9=60|35=0|34=346|49=QA3Ver4_PUB|52=20180813-17:14:47.988|56=TRAX|10=001|8=FIX.4.4|9=60|35=0|34=347|49=QA3Ver4_PUB|52=20180813-17:15:17.994|56=TRAX|10=253|8=FIX.4.4|9=60|35=0|34=348|49=QA3Ver4_PUB|52=20180813-17:15:47.994|56=TRAX|10=001|8=FIX.4.4|9=60|35=0|34=349|49=QA3Ver4_PUB|52=20180813-17:16:18.986|56=TRAX|10=002|8=FIX.4.4|9=60|35=0|34=350|49=QA3Ver4_PUB|52=20180813-17:16:48.986|56=TRAX|10=253|8=FIX.4.4|9=60|35=0|34=351|49=QA3Ver4_PUB|52=20180813-17:17:18.994|56=TRAX|10=251|8=FIX.4.4|9=60|35=0|34=352|49=QA3Ver4_PUB|52=20180813-17:17:49.988|56=TRAX|10=003|8=FIX.4.4|9=60|35=0|34=353|49=QA3Ver4_PUB|52=20180813-17:18:20.979|56=TRAX|10=250|8=FIX.4.4|9=60|35=0|34=354|49=QA3Ver4_PUB|52=20180813-17:18:50.994|56=TRAX|10=251|8=FIX.4.4|9=60|35=0|34=355|49=QA3Ver4_PUB|52=20180813-17:19:21.985|56=TRAX|10=251|8=FIX.4.4|9=60|35=0|34=356|49=QA3Ver4_PUB|52=20180813-17:19:51.992|56=TRAX|10=253|8=FIX.4.4|9=60|35=0|34=357|49=QA3Ver4_PUB|52=20180813-17:20:21.995|56=TRAX|10=246|8=FIX.4.4|9=60|35=0|34=358|49=QA3Ver4_PUB|52=20180813-17:20:52.983|56=TRAX|10=248|8=FIX.4.4|9=60|35=0|34=359|49=QA3Ver4_PUB|52=20180813-17:21:22.990|56=TRAX|10=245|8=FIX.4.4|9=60|35=0|34=360|49=QA3Ver4_PUB|52=20180813-17:21:52.994|56=TRAX|10=244|8=FIX.4.4|9=60|35=0|34=361|49=QA3Ver4_PUB|52=20180813-17:22:23.985|56=TRAX|10=244|8=FIX.4.4|9=60|35=0|34=362|49=QA3Ver4_PUB|52=20180813-17:22:54.994|56=TRAX|10=249|8=FIX.4.4|9=60|35=0|34=363|49=QA3Ver4_PUB|52=20180813-17:23:25.983|56=TRAX|10=247|8=FIX.4.4|9=60|35=0|34=364|49=QA3Ver4_PUB|52=20180813-17:23:56.988|56=TRAX|10=001|8=FIX.4.4|9=60|35=0|34=365|49=QA3Ver4_PUB|52=20180813-17:24:26.995|56=TRAX|10=254|8=FIX.4.4|9=60|35=0|34=366|49=QA3Ver4_PUB|52=20180813-17:24:57.983|56=TRAX|10=000|8=FIX.4.4|9=60|35=0|34=367|49=QA3Ver4_PUB|52=20180813-17:25:27.991|56=TRAX|10=254|8=FIX.4.4|9=60|35=0|34=368|49=QA3Ver4_PUB|52=20180813-17:25:57.995|56=TRAX|10=006|8=FIX.4.4|9=60|35=0|34=369|49=QA3Ver4_PUB|52=20180813-17:26:28.986|56=TRAX|10=006|8=FIX.4.4|9=60|35=0|34=370|49=QA3Ver4_PUB|52=20180813-17:26:59.982|56=TRAX|10=254|8=FIX.4.4|9=60|35=0|34=371|49=QA3Ver4_PUB|52=20180813-17:27:29.985|56=TRAX|10=000|8=FIX.4.4|9=60|35=0|34=372|49=QA3Ver4_PUB|52=20180813-17:28:00.991|56=TRAX|10=244|8=FIX.4.4|9=60|35=0|34=373|49=QA3Ver4_PUB|52=20180813-17:28:31.993|56=TRAX|10=251|8=FIX.4.4|9=60|35=0|34=374|49=QA3Ver4_PUB|52=20180813-17:29:02.979|56=TRAX|10=255|8=FIX.4.4|9=60|35=0|34=375|49=QA3Ver4_PUB|52=20180813-17:29:32.987|56=TRAX|10=002|8=FIX.4.4|9=60|35=0|34=376|49=QA3Ver4_PUB|52=20180813-17:30:03.978|56=TRAX|10=249|8=FIX.4.4|9=60|35=0|34=377|49=QA3Ver4_PUB|52=20180813-17:30:33.978|56=TRAX|10=253|8=FIX.4.4|9=60|35=0|34=378|49=QA3Ver4_PUB|52=20180813-17:31:03.978|56=TRAX|10=252|8=FIX.4.4|9=60|35=0|34=379|49=QA3Ver4_PUB|52=20180813-17:31:33.992|56=TRAX|10=252|8=FIX.4.4|9=60|35=0|34=380|49=QA3Ver4_PUB|52=20180813-17:32:04.992|56=TRAX|10=243|8=FIX.4.4|9=60|35=0|34=381|49=QA3Ver4_PUB|52=20180813-17:32:34.992|56=TRAX|10=247|8=FIX.4.4|9=60|35=0|34=382|49=QA3Ver4_PUB|52=20180813-17:33:04.992|56=TRAX|10=246|8=FIX.4.4|9=60|35=0|34=383|49=QA3Ver4_PUB|52=20180813-17:33:35.979|56=TRAX|10=000|8=FIX.4.4|9=60|35=0|34=384|49=QA3Ver4_PUB|52=20180813-17:34:05.992|56=TRAX|10=250|8=FIX.4.4|9=60|35=0|34=385|49=QA3Ver4_PUB|52=20180813-17:34:36.985|56=TRAX|10=001|8=FIX.4.4|9=60|35=0|34=386|49=QA3Ver4_PUB|52=20180813-17:35:06.985|56=TRAX|10=000|8=FIX.4.4|9=60|35=0|34=387|49=QA3Ver4_PUB|52=20180813-17:35:37.990|56=TRAX|10=001|8=FIX.4.4|9=60|35=0|34=388|49=QA3Ver4_PUB|52=20180813-17:36:08.978|56=TRAX|10=007|8=FIX.4.4|9=60|35=0|34=389|49=QA3Ver4_PUB|52=20180813-17:36:38.986|56=TRAX|10=010|8=FIX.4.4|9=60|35=0|34=390|49=QA3Ver4_PUB|52=20180813-17:37:08.987|56=TRAX|10=001|8=FIX.4.4|9=60|35=0|34=391|49=QA3Ver4_PUB|52=20180813-17:37:39.983|56=TRAX|10=002|8=FIX.4.4|9=60|35=0|34=392|49=QA3Ver4_PUB|52=20180813-17:38:09.993|56=TRAX|10=002|8=FIX.4.4|9=60|35=0|34=393|49=QA3Ver4_PUB|52=20180813-17:38:40.978|56=TRAX|10=001|8=FIX.4.4|9=60|35=0|34=394|49=QA3Ver4_PUB|52=20180813-17:39:10.983|56=TRAX|10=252|8=FIX.4.4|9=60|35=0|34=395|49=QA3Ver4_PUB|52=20180813-17:39:41.989|56=TRAX|10=007|8=FIX.4.4|9=60|35=0|34=396|49=QA3Ver4_PUB|52=20180813-17:40:12.986|56=TRAX|10=251|8=FIX.4.4|9=60|35=0|34=397|49=QA3Ver4_PUB|52=20180813-17:40:42.988|56=TRAX|10=001|8=FIX.4.4|9=60|35=0|34=398|49=QA3Ver4_PUB|52=20180813-17:41:12.993|56=TRAX|10=252|8=FIX.4.4|9=60|35=0|34=399|49=QA3Ver4_PUB|52=20180813-17:41:43.978|56=TRAX|10=004|8=FIX.4.4|9=60|35=0|34=400|49=QA3Ver4_PUB|52=20180813-17:42:13.978|56=TRAX|10=241|8=FIX.4.4|9=60|35=0|34=401|49=QA3Ver4_PUB|52=20180813-17:42:43.990|56=TRAX|10=239|8=FIX.4.4|9=60|35=0|34=402|49=QA3Ver4_PUB|52=20180813-17:43:14.982|56=TRAX|10=240|8=FIX.4.4|9=60|35=0|34=403|49=QA3Ver4_PUB|52=20180813-17:43:44.992|56=TRAX|10=245|8=FIX.4.4|9=60|35=0|34=404|49=QA3Ver4_PUB|52=20180813-17:44:14.992|56=TRAX|10=244|8=FIX.4.4|9=60|35=0|34=405|49=QA3Ver4_PUB|52=20180813-17:44:45.986|56=TRAX|10=252|8=FIX.4.4|9=60|35=0|34=406|49=QA3Ver4_PUB|52=20180813-17:45:15.991|56=TRAX|10=247|8=FIX.4.4|9=60|35=0|34=407|49=QA3Ver4_PUB|52=20180813-17:45:46.986|56=TRAX|10=000|8=FIX.4.4|9=60|35=0|34=408|49=QA3Ver4_PUB|52=20180813-17:46:16.992|56=TRAX|10=252|8=FIX.4.4|9=60|35=0|34=409|49=QA3Ver4_PUB|52=20180813-17:46:46.992|56=TRAX|10=000|8=FIX.4.4|9=60|35=0|34=410|49=QA3Ver4_PUB|52=20180813-17:47:16.992|56=TRAX|10=246|8=FIX.4.4|9=60|35=0|34=411|49=QA3Ver4_PUB|52=20180813-17:47:46.992|56=TRAX|10=250|8=FIX.4.4|9=60|35=0|34=412|49=QA3Ver4_PUB|52=20180813-17:48:17.980|56=TRAX|10=247|8=FIX.4.4|9=60|35=0|34=413|49=QA3Ver4_PUB|52=20180813-17:48:47.981|56=TRAX|10=252|8=FIX.4.4|9=60|35=0|34=414|49=QA3Ver4_PUB|52=20180813-17:49:17.983|56=TRAX|10=253|8=FIX.4.4|9=60|35=0|34=415|49=QA3Ver4_PUB|52=20180813-17:49:47.990|56=TRAX|10=255|8=FIX.4.4|9=60|35=0|34=416|49=QA3Ver4_PUB|52=20180813-17:50:18.990|56=TRAX|10=246|8=FIX.4.4|9=60|35=0|34=417|49=QA3Ver4_PUB|52=20180813-17:50:49.740|56=TRAX|10=244|8=FIX.4.4|9=60|35=0|34=418|49=QA3Ver4_PUB|52=20180813-17:51:19.746|56=TRAX|10=249|8=FIX.4.4|9=60|35=0|34=419|49=QA3Ver4_PUB|52=20180813-17:51:49.759|56=TRAX|10=001|8=FIX.4.4|9=60|35=0|34=420|49=QA3Ver4_PUB|52=20180813-17:52:19.990|56=TRAX|10=244|8=FIX.4.4|9=60|35=0|34=421|49=QA3Ver4_PUB|52=20180813-17:52:50.981|56=TRAX|10=240|8=FIX.4.4|9=60|35=0|34=422|49=QA3Ver4_PUB|52=20180813-17:53:20.982|56=TRAX|10=240|8=FIX.4.4|9=60|35=0|34=423|49=QA3Ver4_PUB|52=20180813-17:53:51.985|56=TRAX|10=248|8=FIX.4.4|9=60|35=0|34=424|49=QA3Ver4_PUB|52=20180813-17:54:21.990|56=TRAX|10=243|8=FIX.4.4|9=60|35=0|34=425|49=QA3Ver4_PUB|52=20180813-17:54:52.987|56=TRAX|10=254|8=FIX.4.4|9=60|35=0|34=426|49=QA3Ver4_PUB|52=20180813-17:55:23.983|56=TRAX|10=250|8=FIX.4.4|9=60|35=0|34=427|49=QA3Ver4_PUB|52=20180813-17:55:53.988|56=TRAX|10=003|8=FIX.4.4|9=60|35=0|34=428|49=QA3Ver4_PUB|52=20180813-17:56:24.977|56=TRAX|10=001|8=FIX.4.4|9=60|35=0|34=429|49=QA3Ver4_PUB|52=20180813-17:56:55.978|56=TRAX|10=007|8=FIX.4.4|9=60|35=0|34=430|49=QA3Ver4_PUB|52=20180813-17:57:25.981|56=TRAX|10=247|8=FIX.4.4|9=60|35=0|34=431|49=QA3Ver4_PUB|52=20180813-17:57:56.979|56=TRAX|10=003|8=FIX.4.4|9=60|35=0|34=432|49=QA3Ver4_PUB|52=20180813-17:58:26.983|56=TRAX|10=253|8=FIX.4.4|9=60|35=0|34=433|49=QA3Ver4_PUB|52=20180813-17:58:57.988|56=TRAX|10=007|8=FIX.4.4|9=60|35=0|34=434|49=QA3Ver4_PUB|52=20180813-17:59:28.990|56=TRAX|10=000|8=FIX.4.4|9=60|35=0|34=435|49=QA3Ver4_PUB|52=20180813-17:59:59.978|56=TRAX|10=011|8=FIX.4.4|9=60|35=0|34=436|49=QA3Ver4_PUB|52=20180813-18:00:29.985|56=TRAX|10=250|8=FIX.4.4|9=60|35=0|34=437|49=QA3Ver4_PUB|52=20180813-18:00:59.986|56=TRAX|10=255|8=FIX.4.4|9=60|35=0|34=438|49=QA3Ver4_PUB|52=20180813-18:01:30.741|56=TRAX|10=235|8=FIX.4.4|9=60|35=0|34=439|49=QA3Ver4_PUB|52=20180813-18:02:00.990|56=TRAX|10=240|8=FIX.4.4|9=60|35=0|34=440|49=QA3Ver4_PUB|52=20180813-18:02:31.979|56=TRAX|10=243|8=FIX.4.4|9=60|35=0|34=441|49=QA3Ver4_PUB|52=20180813-18:03:01.990|56=TRAX|10=235|8=FIX.4.4|9=60|35=0|34=442|49=QA3Ver4_PUB|52=20180813-18:03:32.990|56=TRAX|10=240|8=FIX.4.4|9=60|35=0|34=443|49=QA3Ver4_PUB|52=20180813-18:04:03.986|56=TRAX|10=245|8=FIX.4.4|9=60|35=0|34=444|49=QA3Ver4_PUB|52=20180813-18:04:34.990|56=TRAX|10=245|8=FIX.4.4|9=60|35=0|34=445|49=QA3Ver4_PUB|52=20180813-18:05:05.986|56=TRAX|10=250|8=FIX.4.4|9=60|35=0|34=446|49=QA3Ver4_PUB|52=20180813-18:05:36.991|56=TRAX|10=251|8=FIX.4.4|9=60|35=0|34=447|49=QA3Ver4_PUB|52=20180813-18:06:07.988|56=TRAX|10=001|8=FIX.4.4|9=60|35=0|34=448|49=QA3Ver4_PUB|52=20180813-18:06:38.979|56=TRAX|10=006|8=FIX.4.4|9=60|35=0|34=449|49=QA3Ver4_PUB|52=20180813-18:07:09.979|56=TRAX|10=006|8=FIX.4.4|9=60|35=0|34=450|49=QA3Ver4_PUB|52=20180813-18:07:39.990|56=TRAX|10=250|8=FIX.4.4|9=60|35=0|34=451|49=QA3Ver4_PUB|52=20180813-18:08:10.983|56=TRAX|10=243|8=FIX.4.4|9=60|35=0|34=452|49=QA3Ver4_PUB|52=20180813-18:08:41.986|56=TRAX|10=251|8=FIX.4.4|9=60|35=0|34=453|49=QA3Ver4_PUB|52=20180813-18:09:12.986|56=TRAX|10=251|8=FIX.4.4|9=60|35=0|34=454|49=QA3Ver4_PUB|52=20180813-18:09:42.988|56=TRAX|10=001|8=FIX.4.4|9=60|35=0|34=455|49=QA3Ver4_PUB|52=20180813-18:10:13.980|56=TRAX|10=240|8=FIX.4.4|9=60|35=0|34=456|49=QA3Ver4_PUB|52=20180813-18:10:44.987|56=TRAX|10=252|8=FIX.4.4|9=60|35=0|34=457|49=QA3Ver4_PUB|52=20180813-18:11:15.984|56=TRAX|10=249|8=FIX.4.4|9=60|35=0|34=458|49=QA3Ver4_PUB|52=20180813-18:11:45.985|56=TRAX|10=254|8=FIX.4.4|9=60|35=0|34=459|49=QA3Ver4_PUB|52=20180813-18:12:16.974|56=TRAX|10=252|8=FIX.4.4|9=60|35=0|34=460|49=QA3Ver4_PUB|52=20180813-18:12:46.981|56=TRAX|10=245|8=FIX.4.4|9=60|35=0|34=461|49=QA3Ver4_PUB|52=20180813-18:13:16.982|56=TRAX|10=245|8=FIX.4.4|9=60|35=0|34=462|49=QA3Ver4_PUB|52=20180813-18:13:47.985|56=TRAX|10=253|8=FIX.4.4|9=60|35=0|34=463|49=QA3Ver4_PUB|52=20180813-18:14:18.975|56=TRAX|10=252|8=FIX.4.4|9=60|35=0|34=464|49=QA3Ver4_PUB|52=20180813-18:14:48.986|56=TRAX|10=002|8=FIX.4.4|9=60|35=0|34=465|49=QA3Ver4_PUB|52=20180813-18:15:19.988|56=TRAX|10=004|8=FIX.4.4|9=60|35=0|34=466|49=QA3Ver4_PUB|52=20180813-18:15:50.979|56=TRAX|10=000|8=FIX.4.4|9=60|35=0|34=467|49=QA3Ver4_PUB|52=20180813-18:16:21.980|56=TRAX|10=248|8=FIX.4.4|9=60|35=0|34=468|49=QA3Ver4_PUB|52=20180813-18:16:51.981|56=TRAX|10=253|8=FIX.4.4|9=60|35=0|34=469|49=QA3Ver4_PUB|52=20180813-18:17:21.988|56=TRAX|10=003|8=FIX.4.4|9=60|35=0|34=470|49=QA3Ver4_PUB|52=20180813-18:17:52.977|56=TRAX|10=253|8=FIX.4.4|9=60|35=0|34=471|49=QA3Ver4_PUB|52=20180813-18:18:22.981|56=TRAX|10=247|8=FIX.4.4|9=60|35=0|34=472|49=QA3Ver4_PUB|52=20180813-18:18:53.976|56=TRAX|10=000|8=FIX.4.4|9=60|35=0|34=473|49=QA3Ver4_PUB|52=20180813-18:19:24.974|56=TRAX|10=254|8=FIX.4.4|9=60|35=0|34=474|49=QA3Ver4_PUB|52=20180813-18:19:54.979|56=TRAX|10=007|8=FIX.4.4|9=60|35=0|34=475|49=QA3Ver4_PUB|52=20180813-18:20:25.985|56=TRAX|10=251|8=FIX.4.4|9=60|35=0|34=476|49=QA3Ver4_PUB|52=20180813-18:20:55.986|56=TRAX|10=000|8=FIX.4.4|9=60|35=0|34=477|49=QA3Ver4_PUB|52=20180813-18:21:26.987|56=TRAX|10=001|8=FIX.4.4|9=60|35=0|34=478|49=QA3Ver4_PUB|52=20180813-18:21:57.988|56=TRAX|10=007|8=FIX.4.4|9=60|35=0|34=479|49=QA3Ver4_PUB|52=20180813-18:22:27.988|56=TRAX|10=006|8=FIX.4.4|9=60|35=0|34=480|49=QA3Ver4_PUB|52=20180813-18:22:57.988|56=TRAX|10=001|8=FIX.4.4|9=60|35=0|34=481|49=QA3Ver4_PUB|52=20180813-18:23:28.974|56=TRAX|10=252|8=FIX.4.4|9=60|35=0|34=482|49=QA3Ver4_PUB|52=20180813-18:23:58.980|56=TRAX|10=253|8=FIX.4.4|9=60|35=0|34=483|49=QA3Ver4_PUB|52=20180813-18:24:29.987|56=TRAX|10=004|8=FIX.4.4|9=60|35=0|34=484|49=QA3Ver4_PUB|52=20180813-18:24:59.987|56=TRAX|10=008|8=FIX.4.4|9=60|35=0|34=485|49=QA3Ver4_PUB|52=20180813-18:25:30.744|56=TRAX|10=246|8=FIX.4.4|9=60|35=0|34=486|49=QA3Ver4_PUB|52=20180813-18:26:00.754|56=TRAX|10=246|8=FIX.4.4|9=60|35=0|34=487|49=QA3Ver4_PUB|52=20180813-18:26:30.831|56=TRAX|10=246|8=FIX.4.4|9=60|35=0|34=488|49=QA3Ver4_PUB|52=20180813-18:27:00.988|56=TRAX|10=002|8=FIX.4.4|9=60|35=0|34=489|49=QA3Ver4_PUB|52=20180813-18:27:31.753|56=TRAX|10=253|8=FIX.4.4|9=60|35=0|34=490|49=QA3Ver4_PUB|52=20180813-18:28:01.757|56=TRAX|10=247|8=FIX.4.4|9=60|35=0|34=491|49=QA3Ver4_PUB|52=20180813-18:28:31.983|56=TRAX|10=252|8=FIX.4.4|9=60|35=0|34=492|49=QA3Ver4_PUB|52=20180813-18:29:02.973|56=TRAX|10=251|8=FIX.4.4|9=60|35=0|34=493|49=QA3Ver4_PUB|52=20180813-18:29:32.980|56=TRAX|10=253|8=FIX.4.4|9=60|35=0|34=494|49=QA3Ver4_PUB|52=20180813-18:30:03.975|56=TRAX|10=248|8=FIX.4.4|9=60|35=0|34=495|49=QA3Ver4_PUB|52=20180813-18:30:34.980|56=TRAX|10=249|8=FIX.4.4|9=60|35=0|34=496|49=QA3Ver4_PUB|52=20180813-18:31:04.983|56=TRAX|10=251|8=FIX.4.4|9=60|35=0|34=497|49=QA3Ver4_PUB|52=20180813-18:31:35.975|56=TRAX|10=001|8=FIX.4.4|9=60|35=0|34=498|49=QA3Ver4_PUB|52=20180813-18:32:05.977|56=TRAX|10=002|8=FIX.4.4|9=60|35=0|34=499|49=QA3Ver4_PUB|52=20180813-18:32:35.981|56=TRAX|10=001|8=FIX.4.4|9=60|35=0|34=500|49=QA3Ver4_PUB|52=20180813-18:33:05.987|56=TRAX|10=244|8=FIX.4.4|9=60|35=0|34=501|49=QA3Ver4_PUB|52=20180813-18:33:36.981|56=TRAX|10=243|8=FIX.4.4|9=60|35=0|34=502|49=QA3Ver4_PUB|52=20180813-18:34:06.986|56=TRAX|10=247|8=FIX.4.4|9=60|35=0|34=503|49=QA3Ver4_PUB|52=20180813-18:34:37.987|56=TRAX|10=253|8=FIX.4.4|9=60|35=0|34=504|49=QA3Ver4_PUB|52=20180813-18:35:08.986|56=TRAX|10=252|8=FIX.4.4|9=60|35=0|34=505|49=QA3Ver4_PUB|52=20180813-18:35:39.987|56=TRAX|10=002|8=FIX.4.4|9=60|35=0|34=506|49=QA3Ver4_PUB|52=20180813-18:36:10.986|56=TRAX|10=248|8=FIX.4.4|9=60|35=0|34=507|49=QA3Ver4_PUB|52=20180813-18:36:41.972|56=TRAX|10=248|8=FIX.4.4|9=60|35=0|34=508|49=QA3Ver4_PUB|52=20180813-18:37:11.985|56=TRAX|10=251|8=FIX.4.4|9=60|35=0|34=509|49=QA3Ver4_PUB|52=20180813-18:37:42.972|56=TRAX|10=252|8=FIX.4.4|9=60|35=0|34=510|49=QA3Ver4_PUB|52=20180813-18:38:12.972|56=TRAX|10=242|8=FIX.4.4|9=60|35=0|34=511|49=QA3Ver4_PUB|52=20180813-18:38:42.978|56=TRAX|10=252|8=FIX.4.4|9=60|35=0|34=512|49=QA3Ver4_PUB|52=20180813-18:39:12.987|56=TRAX|10=251|8=FIX.4.4|9=60|35=0|34=513|49=QA3Ver4_PUB|52=20180813-18:39:43.976|56=TRAX|10=254|8=FIX.4.4|9=60|35=0|34=514|49=QA3Ver4_PUB|52=20180813-18:40:14.986|56=TRAX|10=246|8=FIX.4.4|9=60|35=0|34=515|49=QA3Ver4_PUB|52=20180813-18:40:45.987|56=TRAX|10=252|8=FIX.4.4|9=60|35=0|34=516|49=QA3Ver4_PUB|52=20180813-18:41:16.986|56=TRAX|10=251|8=FIX.4.4|9=60|35=0|34=517|49=QA3Ver4_PUB|52=20180813-18:41:47.980|56=TRAX|10=250|8=FIX.4.4|9=60|35=0|34=518|49=QA3Ver4_PUB|52=20180813-18:42:18.983|56=TRAX|10=253|8=FIX.4.4|9=60|35=0|34=519|49=QA3Ver4_PUB|52=20180813-18:42:49.986|56=TRAX|10=005|8=FIX.4.4|9=60|35=0|34=520|49=QA3Ver4_PUB|52=20180813-18:43:20.986|56=TRAX|10=243|8=FIX.4.4|9=60|35=0|34=521|49=QA3Ver4_PUB|52=20180813-18:43:51.977|56=TRAX|10=248|8=FIX.4.4|9=60|35=0|34=522|49=QA3Ver4_PUB|52=20180813-18:44:22.971|56=TRAX|10=242|8=FIX.4.4|9=60|35=0|34=523|49=QA3Ver4_PUB|52=20180813-18:44:52.974|56=TRAX|10=249|8=FIX.4.4|9=60|35=0|34=524|49=QA3Ver4_PUB|52=20180813-18:45:22.976|56=TRAX|10=250|8=FIX.4.4|9=60|35=0|34=525|49=QA3Ver4_PUB|52=20180813-18:45:52.985|56=TRAX|10=254|8=FIX.4.4|9=60|35=0|34=526|49=QA3Ver4_PUB|52=20180813-18:46:23.984|56=TRAX|10=253|8=FIX.4.4|9=60|35=0|34=527|49=QA3Ver4_PUB|52=20180813-18:46:54.974|56=TRAX|10=001|8=FIX.4.4|9=60|35=0|34=528|49=QA3Ver4_PUB|52=20180813-18:47:25.973|56=TRAX|10=000|8=FIX.4.4|9=60|35=0|34=529|49=QA3Ver4_PUB|52=20180813-18:47:55.975|56=TRAX|10=006|8=FIX.4.4|9=60|35=0|34=530|49=QA3Ver4_PUB|52=20180813-18:48:25.975|56=TRAX|10=252|8=FIX.4.4|9=60|35=0|34=531|49=QA3Ver4_PUB|52=20180813-18:48:56.982|56=TRAX|10=255|8=FIX.4.4|9=60|35=0|34=532|49=QA3Ver4_PUB|52=20180813-18:49:26.982|56=TRAX|10=254|8=FIX.4.4|9=60|35=0|34=533|49=QA3Ver4_PUB|52=20180813-18:49:57.974|56=TRAX|10=004|8=FIX.4.4|9=60|35=0|34=534|49=QA3Ver4_PUB|52=20180813-18:50:28.976|56=TRAX|10=253|8=FIX.4.4|9=60|35=0|34=535|49=QA3Ver4_PUB|52=20180813-18:50:59.972|56=TRAX|10=254|8=FIX.4.4|9=60|35=0|34=536|49=QA3Ver4_PUB|52=20180813-18:51:29.975|56=TRAX|10=000|8=FIX.4.4|9=60|35=0|34=537|49=QA3Ver4_PUB|52=20180813-18:52:00.971|56=TRAX|10=243|8=FIX.4.4|9=60|35=0|34=538|49=QA3Ver4_PUB|52=20180813-18:52:31.752|56=TRAX|10=245|8=FIX.4.4|9=60|35=0|34=539|49=QA3Ver4_PUB|52=20180813-18:53:01.756|56=TRAX|10=248|8=FIX.4.4|9=60|35=0|34=540|49=QA3Ver4_PUB|52=20180813-18:53:31.757|56=TRAX|10=244|8=FIX.4.4|9=60|35=0|34=541|49=QA3Ver4_PUB|52=20180813-18:54:01.979|56=TRAX|10=249|8=FIX.4.4|9=60|35=0|34=542|49=QA3Ver4_PUB|52=20180813-18:54:32.976|56=TRAX|10=251|8=FIX.4.4|9=60|35=0|34=543|49=QA3Ver4_PUB|52=20180813-18:55:03.971|56=TRAX|10=246|8=FIX.4.4|9=60|35=0|34=544|49=QA3Ver4_PUB|52=20180813-18:55:33.971|56=TRAX|10=250|8=FIX.4.4|9=60|35=0|34=545|49=QA3Ver4_PUB|52=20180813-18:56:03.977|56=TRAX|10=255|8=FIX.4.4|9=60|35=0|34=546|49=QA3Ver4_PUB|52=20180813-18:56:34.971|56=TRAX|10=254|8=FIX.4.4|9=60|35=0|34=547|49=QA3Ver4_PUB|52=20180813-18:57:04.976|56=TRAX|10=002|8=FIX.4.4|9=60|35=0|34=548|49=QA3Ver4_PUB|52=20180813-18:57:34.984|56=TRAX|10=005|8=FIX.4.4|9=60|35=0|34=549|49=QA3Ver4_PUB|52=20180813-18:58:05.970|56=TRAX|10=000|8=FIX.4.4|9=60|35=0|34=550|49=QA3Ver4_PUB|52=20180813-18:58:35.970|56=TRAX|10=251|8=FIX.4.4|9=60|35=0|34=551|49=QA3Ver4_PUB|52=20180813-18:59:05.984|56=TRAX|10=255|8=FIX.4.4|9=60|35=0|34=552|49=QA3Ver4_PUB|52=20180813-18:59:36.971|56=TRAX|10=000|8=FIX.4.4|9=60|35=0|34=553|49=QA3Ver4_PUB|52=20180813-19:00:06.975|56=TRAX|10=245|8=FIX.4.4|9=60|35=0|34=554|49=QA3Ver4_PUB|52=20180813-19:00:37.984|56=TRAX|10=250|8=FIX.4.4|9=60|35=0|34=555|49=QA3Ver4_PUB|52=20180813-19:01:08.970|56=TRAX|10=245|8=FIX.4.4|9=60|35=0|34=556|49=QA3Ver4_PUB|52=20180813-19:01:38.985|56=TRAX|10=255|8=FIX.4.4|9=60|35=0|34=557|49=QA3Ver4_PUB|52=20180813-19:02:09.984|56=TRAX|10=254|8=FIX.4.4|9=60|35=0|34=558|49=QA3Ver4_PUB|52=20180813-19:02:40.977|56=TRAX|10=252|8=FIX.4.4|9=60|35=0|34=559|49=QA3Ver4_PUB|52=20180813-19:03:10.984|56=TRAX|10=249|8=FIX.4.4|9=60|35=0|34=560|49=QA3Ver4_PUB|52=20180813-19:03:41.981|56=TRAX|10=242|8=FIX.4.4|9=60|35=0|34=561|49=QA3Ver4_PUB|52=20180813-19:04:12.979|56=TRAX|10=249|8=FIX.4.4|9=60|35=0|34=562|49=QA3Ver4_PUB|52=20180813-19:04:43.984|56=TRAX|10=250|8=FIX.4.4|9=60|35=0|34=563|49=QA3Ver4_PUB|52=20180813-19:05:14.973|56=TRAX|10=248|8=FIX.4.4|9=60|35=0|34=564|49=QA3Ver4_PUB|52=20180813-19:05:44.980|56=TRAX|10=250|8=FIX.4.4|9=60|35=0|34=565|49=QA3Ver4_PUB|52=20180813-19:06:15.980|56=TRAX|10=250|8=FIX.4.4|9=60|35=0|34=566|49=QA3Ver4_PUB|52=20180813-19:06:46.982|56=TRAX|10=001|8=FIX.4.4|9=60|35=0|34=567|49=QA3Ver4_PUB|52=20180813-19:07:17.982|56=TRAX|10=001|8=FIX.4.4|9=60|35=0|34=568|49=QA3Ver4_PUB|52=20180813-19:07:48.971|56=TRAX|10=004|8=FIX.4.4|9=60|35=0|34=569|49=QA3Ver4_PUB|52=20180813-19:08:18.972|56=TRAX|10=004|8=FIX.4.4|9=60|35=0|34=570|49=QA3Ver4_PUB|52=20180813-19:08:49.973|56=TRAX|10=001|8=FIX.4.4|9=60|35=0|34=571|49=QA3Ver4_PUB|52=20180813-19:09:20.972|56=TRAX|10=247|8=FIX.4.4|9=60|35=0|34=572|49=QA3Ver4_PUB|52=20180813-19:09:50.983|56=TRAX|10=253|8=FIX.4.4|9=60|35=0|34=573|49=QA3Ver4_PUB|52=20180813-19:10:21.972|56=TRAX|10=242|8=FIX.4.4|9=60|35=0|34=574|49=QA3Ver4_PUB|52=20180813-19:10:52.983|56=TRAX|10=249|8=FIX.4.4|9=60|35=0|34=575|49=QA3Ver4_PUB|52=20180813-19:11:22.983|56=TRAX|10=248|8=FIX.4.4|9=60|35=0|34=576|49=QA3Ver4_PUB|52=20180813-19:11:53.977|56=TRAX|10=000|8=FIX.4.4|9=60|35=0|34=577|49=QA3Ver4_PUB|52=20180813-19:12:23.977|56=TRAX|10=255|8=FIX.4.4|9=60|35=0|34=578|49=QA3Ver4_PUB|52=20180813-19:12:54.983|56=TRAX|10=001|8=FIX.4.4|9=60|35=0|34=579|49=QA3Ver4_PUB|52=20180813-19:13:25.983|56=TRAX|10=001|8=FIX.4.4|9=60|35=0|34=580|49=QA3Ver4_PUB|52=20180813-19:13:56.983|56=TRAX|10=253|8=FIX.4.4|9=60|35=0|34=581|49=QA3Ver4_PUB|52=20180813-19:14:27.974|56=TRAX|10=253|8=FIX.4.4|9=60|35=0|34=582|49=QA3Ver4_PUB|52=20180813-19:14:58.981|56=TRAX|10=000|8=FIX.4.4|9=60|35=0|34=583|49=QA3Ver4_PUB|52=20180813-19:15:29.978|56=TRAX|10=006|8=FIX.4.4|9=60|35=0|34=584|49=QA3Ver4_PUB|52=20180813-19:16:00.975|56=TRAX|10=250|8=FIX.4.4|9=60|35=0|34=585|49=QA3Ver4_PUB|52=20180813-19:16:30.983|56=TRAX|10=253|8=FIX.4.4|9=60|35=0|34=586|49=QA3Ver4_PUB|52=20180813-19:17:01.983|56=TRAX|10=253|8=FIX.4.4|9=60|35=0|34=587|49=QA3Ver4_PUB|52=20180813-19:17:31.983|56=TRAX|10=001|8=FIX.4.4|9=60|35=0|34=588|49=QA3Ver4_PUB|52=20180813-19:18:02.775|56=TRAX|10=000|8=FIX.4.4|9=60|35=0|34=589|49=QA3Ver4_PUB|52=20180813-19:18:32.970|56=TRAX|10=001|8=FIX.4.4|9=60|35=0|34=590|49=QA3Ver4_PUB|52=20180813-19:19:02.982|56=TRAX|10=250|8=FIX.4.4|9=60|35=0|34=591|49=QA3Ver4_PUB|52=20180813-19:19:32.983|56=TRAX|10=255|8=FIX.4.4|9=60|35=0|34=592|49=QA3Ver4_PUB|52=20180813-19:20:03.756|56=TRAX|10=244|8=FIX.4.4|9=60|35=0|34=593|49=QA3Ver4_PUB|52=20180813-19:20:33.972|56=TRAX|10=248|8=FIX.4.4|9=60|35=0|34=594|49=QA3Ver4_PUB|52=20180813-19:21:03.972|56=TRAX|10=247|8=FIX.4.4|9=60|35=0|34=595|49=QA3Ver4_PUB|52=20180813-19:21:34.971|56=TRAX|10=251|8=FIX.4.4|9=60|35=0|34=596|49=QA3Ver4_PUB|52=20180813-19:22:04.974|56=TRAX|10=253|8=FIX.4.4|9=60|35=0|34=597|49=QA3Ver4_PUB|52=20180813-19:22:34.975|56=TRAX|10=002|8=FIX.4.4|9=60|35=0|34=598|49=QA3Ver4_PUB|52=20180813-19:23:05.972|56=TRAX|10=255|8=FIX.4.4|9=60|35=0|34=599|49=QA3Ver4_PUB|52=20180813-19:23:35.978|56=TRAX|10=009|8=FIX.4.4|9=60|35=0|34=600|49=QA3Ver4_PUB|52=20180813-19:24:06.981|56=TRAX|10=241|8=FIX.4.4|9=60|35=0|34=601|49=QA3Ver4_PUB|52=20180813-19:24:37.979|56=TRAX|10=253|8=FIX.4.4|9=60|35=0|34=602|49=QA3Ver4_PUB|52=20180813-19:25:07.979|56=TRAX|10=252|8=FIX.4.4|9=60|35=0|34=603|49=QA3Ver4_PUB|52=20180813-19:25:38.973|56=TRAX|10=251|8=FIX.4.4|9=60|35=0|34=604|49=QA3Ver4_PUB|52=20180813-19:26:08.980|56=TRAX|10=248|8=FIX.4.4|9=60|35=0|34=605|49=QA3Ver4_PUB|52=20180813-19:26:39.981|56=TRAX|10=254|8=FIX.4.4|9=60|35=0|34=606|49=QA3Ver4_PUB|52=20180813-19:27:10.967|56=TRAX|10=249|8=FIX.4.4|9=60|35=0|34=607|49=QA3Ver4_PUB|52=20180813-19:27:40.975|56=TRAX|10=252|8=FIX.4.4|9=60|35=0|34=608|49=QA3Ver4_PUB|52=20180813-19:28:10.975|56=TRAX|10=251|8=FIX.4.4|9=60|35=0|34=609|49=QA3Ver4_PUB|52=20180813-19:28:40.976|56=TRAX|10=000|8=FIX.4.4|9=60|35=0|34=610|49=QA3Ver4_PUB|52=20180813-19:29:11.978|56=TRAX|10=249|8=FIX.4.4|9=60|35=0|34=611|49=QA3Ver4_PUB|52=20180813-19:29:42.973|56=TRAX|10=249|8=FIX.4.4|9=60|35=0|34=612|49=QA3Ver4_PUB|52=20180813-19:30:12.974|56=TRAX|10=240|8=FIX.4.4|9=60|35=0|34=613|49=QA3Ver4_PUB|52=20180813-19:30:42.975|56=TRAX|10=245|8=FIX.4.4|9=60|35=0|34=614|49=QA3Ver4_PUB|52=20180813-19:31:13.967|56=TRAX|10=246|8=FIX.4.4|9=60|35=0|34=615|49=QA3Ver4_PUB|52=20180813-19:31:43.974|56=TRAX|10=248|8=FIX.4.4|9=60|35=0|34=616|49=QA3Ver4_PUB|52=20180813-19:32:13.980|56=TRAX|10=244|8=FIX.4.4|9=60|35=0|34=617|49=QA3Ver4_PUB|52=20180813-19:32:44.981|56=TRAX|10=250|8=FIX.4.4|9=60|35=0|34=618|49=QA3Ver4_PUB|52=20180813-19:33:15.974|56=TRAX|10=252|8=FIX.4.4|9=60|35=0|34=619|49=QA3Ver4_PUB|52=20180813-19:33:45.976|56=TRAX|10=002|8=FIX.4.4|9=60|35=0|34=620|49=QA3Ver4_PUB|52=20180813-19:34:16.968|56=TRAX|10=250|8=FIX.4.4|9=60|35=0|34=621|49=QA3Ver4_PUB|52=20180813-19:34:46.973|56=TRAX|10=250|8=FIX.4.4|9=60|35=0|34=622|49=QA3Ver4_PUB|52=20180813-19:35:16.977|56=TRAX|10=253|8=FIX.4.4|9=60|35=0|34=623|49=QA3Ver4_PUB|52=20180813-19:35:47.972|56=TRAX|10=253|8=FIX.4.4|9=60|35=0|34=624|49=QA3Ver4_PUB|52=20180813-19:36:18.977|56=TRAX|10=002|8=FIX.4.4|9=60|35=0|34=625|49=QA3Ver4_PUB|52=20180813-19:36:49.973|56=TRAX|10=003|8=FIX.4.4|9=60|35=0|34=626|49=QA3Ver4_PUB|52=20180813-19:37:19.981|56=TRAX|10=001|8=FIX.4.4|9=60|35=0|34=627|49=QA3Ver4_PUB|52=20180813-19:37:50.973|56=TRAX|10=254|8=FIX.4.4|9=60|35=0|34=628|49=QA3Ver4_PUB|52=20180813-19:38:21.982|56=TRAX|10=254|8=FIX.4.4|9=60|35=0|34=629|49=QA3Ver4_PUB|52=20180813-19:38:52.974|56=TRAX|10=004|8=FIX.4.4|9=60|35=0|34=630|49=QA3Ver4_PUB|52=20180813-19:39:23.975|56=TRAX|10=252|8=FIX.4.4|9=60|35=0|34=631|49=QA3Ver4_PUB|52=20180813-19:39:54.980|56=TRAX|10=253|8=FIX.4.4|9=60|35=0|34=632|49=QA3Ver4_PUB|52=20180813-19:40:25.974|56=TRAX|10=247|8=FIX.4.4|9=60|35=0|34=633|49=QA3Ver4_PUB|52=20180813-19:40:55.974|56=TRAX|10=251|8=FIX.4.4|9=60|35=0|34=634|49=QA3Ver4_PUB|52=20180813-19:41:26.981|56=TRAX|10=249|8=FIX.4.4|9=60|35=0|34=635|49=QA3Ver4_PUB|52=20180813-19:41:57.977|56=TRAX|10=003|8=FIX.4.4|9=60|35=0|34=636|49=QA3Ver4_PUB|52=20180813-19:42:28.973|56=TRAX|10=255|8=FIX.4.4|9=60|35=0|34=637|49=QA3Ver4_PUB|52=20180813-19:42:58.975|56=TRAX|10=005|8=FIX.4.4|9=60|35=0|34=638|49=QA3Ver4_PUB|52=20180813-19:43:29.978|56=TRAX|10=008|8=FIX.4.4|9=60|35=0|34=639|49=QA3Ver4_PUB|52=20180813-19:44:00.968|56=TRAX|10=254|8=FIX.4.4|9=60|35=0|34=640|49=QA3Ver4_PUB|52=20180813-19:44:30.971|56=TRAX|10=243|8=FIX.4.4|9=60|35=0|34=641|49=QA3Ver4_PUB|52=20180813-19:45:01.970|56=TRAX|10=242|8=FIX.4.4|9=60|35=0|34=642|49=QA3Ver4_PUB|52=20180813-19:45:32.971|56=TRAX|10=248|8=FIX.4.4|9=60|35=0|34=643|49=QA3Ver4_PUB|52=20180813-19:46:03.764|56=TRAX|10=248|8=FIX.4.4|9=60|35=0|34=644|49=QA3Ver4_PUB|52=20180813-19:46:33.980|56=TRAX|10=252|8=FIX.4.4|9=60|35=0|34=645|49=QA3Ver4_PUB|52=20180813-19:47:04.964|56=TRAX|10=254|8=FIX.4.4|9=60|35=0|34=646|49=QA3Ver4_PUB|52=20180813-19:47:34.979|56=TRAX|10=008|8=FIX.4.4|9=60|35=0|34=647|49=QA3Ver4_PUB|52=20180813-19:48:05.964|56=TRAX|10=002|8=FIX.4.4|9=60|35=0|34=648|49=QA3Ver4_PUB|52=20180813-19:48:35.972|56=TRAX|10=005|8=FIX.4.4|9=60|35=0|34=649|49=QA3Ver4_PUB|52=20180813-19:49:05.980|56=TRAX|10=003|8=FIX.4.4|9=60|35=0|34=650|49=QA3Ver4_PUB|52=20180813-19:49:36.973|56=TRAX|10=001|8=FIX.4.4|9=60|35=0|34=651|49=QA3Ver4_PUB|52=20180813-19:50:06.974|56=TRAX|10=248|8=FIX.4.4|9=60|35=0|34=652|49=QA3Ver4_PUB|52=20180813-19:50:36.979|56=TRAX|10=001|8=FIX.4.4|9=60|35=0|34=653|49=QA3Ver4_PUB|52=20180813-19:51:07.973|56=TRAX|10=251|8=FIX.4.4|9=60|35=0|34=654|49=QA3Ver4_PUB|52=20180813-19:51:38.965|56=TRAX|10=001|8=FIX.4.4|9=60|35=0|34=655|49=QA3Ver4_PUB|52=20180813-19:52:08.973|56=TRAX|10=255|8=FIX.4.4|9=60|35=0|34=656|49=QA3Ver4_PUB|52=20180813-19:52:38.978|56=TRAX|10=008|8=FIX.4.4|9=60|35=0|34=657|49=QA3Ver4_PUB|52=20180813-19:53:08.979|56=TRAX|10=008|8=FIX.4.4|9=60|35=0|34=658|49=QA3Ver4_PUB|52=20180813-19:53:39.967|56=TRAX|10=010|8=FIX.4.4|9=60|35=0|34=659|49=QA3Ver4_PUB|52=20180813-19:54:09.977|56=TRAX|10=010|8=FIX.4.4|9=60|35=0|34=660|49=QA3Ver4_PUB|52=20180813-19:54:40.975|56=TRAX|10=251|8=FIX.4.4|9=60|35=0|34=661|49=QA3Ver4_PUB|52=20180813-19:55:10.978|56=TRAX|10=253|8=FIX.4.4|9=60|35=0|34=662|49=QA3Ver4_PUB|52=20180813-19:55:41.967|56=TRAX|10=000|8=FIX.4.4|9=60|35=0|34=663|49=QA3Ver4_PUB|52=20180813-19:56:11.972|56=TRAX|10=251|8=FIX.4.4|9=60|35=0|34=664|49=QA3Ver4_PUB|52=20180813-19:56:42.971|56=TRAX|10=255|8=FIX.4.4|9=60|35=0|34=665|49=QA3Ver4_PUB|52=20180813-19:57:12.972|56=TRAX|10=255|8=FIX.4.4|9=60|35=0|34=666|49=QA3Ver4_PUB|52=20180813-19:57:43.965|56=TRAX|10=006|8=FIX.4.4|9=60|35=0|34=667|49=QA3Ver4_PUB|52=20180813-19:58:13.975|56=TRAX|10=006|8=FIX.4.4|9=60|35=0|34=668|49=QA3Ver4_PUB|52=20180813-19:58:44.968|56=TRAX|10=013|8=FIX.4.4|9=60|35=0|34=669|49=QA3Ver4_PUB|52=20180813-19:59:14.971|56=TRAX|10=006|8=FIX.4.4|9=60|35=0|34=670|49=QA3Ver4_PUB|52=20180813-19:59:45.978|56=TRAX|10=009|8=FIX.4.4|9=60|35=0|34=671|49=QA3Ver4_PUB|52=20180813-20:00:16.966|56=TRAX|10=239|8=FIX.4.4|9=60|35=0|34=672|49=QA3Ver4_PUB|52=20180813-20:00:46.979|56=TRAX|10=247|8=FIX.4.4|9=60|35=0|34=673|49=QA3Ver4_PUB|52=20180813-20:01:17.974|56=TRAX|10=242|8=FIX.4.4|9=60|35=0|34=674|49=QA3Ver4_PUB|52=20180813-20:01:48.979|56=TRAX|10=252|8=FIX.4.4|9=60|35=0|34=675|49=QA3Ver4_PUB|52=20180813-20:02:19.966|56=TRAX|10=248|8=FIX.4.4|9=60|35=0|34=676|49=QA3Ver4_PUB|52=20180813-20:02:49.977|56=TRAX|10=254|8=FIX.4.4|9=60|35=0|34=677|49=QA3Ver4_PUB|52=20180813-20:03:19.978|56=TRAX|10=254|8=FIX.4.4|9=60|35=0|34=678|49=QA3Ver4_PUB|52=20180813-20:03:50.967|56=TRAX|10=248|8=FIX.4.4|9=60|35=0|34=679|49=QA3Ver4_PUB|52=20180813-20:04:21.977|56=TRAX|10=249|8=FIX.4.4|9=60|35=0|34=680|49=QA3Ver4_PUB|52=20180813-20:04:52.967|56=TRAX|10=244|8=FIX.4.4|9=60|35=0|34=681|49=QA3Ver4_PUB|52=20180813-20:05:23.966|56=TRAX|10=243|8=FIX.4.4|9=60|35=0|34=682|49=QA3Ver4_PUB|52=20180813-20:05:53.971|56=TRAX|10=243|8=FIX.4.4|9=60|35=0|34=683|49=QA3Ver4_PUB|52=20180813-20:06:24.974|56=TRAX|10=246|8=FIX.4.4|9=60|35=0|34=684|49=QA3Ver4_PUB|52=20180813-20:06:55.962|56=TRAX|10=248|8=FIX.4.4|9=60|35=0|34=685|49=QA3Ver4_PUB|52=20180813-20:07:25.966|56=TRAX|10=251|8=FIX.4.4|9=60|35=0|34=686|49=QA3Ver4_PUB|52=20180813-20:07:56.971|56=TRAX|10=252|8=FIX.4.4|9=60|35=0|34=687|49=QA3Ver4_PUB|52=20180813-20:08:27.973|56=TRAX|10=254|8=FIX.4.4|9=60|35=0|34=688|49=QA3Ver4_PUB|52=20180813-20:08:57.974|56=TRAX|10=003|8=FIX.4.4|9=60|35=0|34=689|49=QA3Ver4_PUB|52=20180813-20:09:27.977|56=TRAX|10=005|8=FIX.4.4|9=60|35=0|34=690|49=QA3Ver4_PUB|52=20180813-20:09:58.967|56=TRAX|10=000|8=FIX.4.4|9=60|35=0|34=691|49=QA3Ver4_PUB|52=20180813-20:10:29.970|56=TRAX|10=241|8=FIX.4.4|9=60|35=0|34=692|49=QA3Ver4_PUB|52=20180813-20:11:00.966|56=TRAX|10=237|8=FIX.4.4|9=60|35=0|34=693|49=QA3Ver4_PUB|52=20180813-20:11:30.977|56=TRAX|10=243|8=FIX.4.4|9=60|35=0|34=694|49=QA3Ver4_PUB|52=20180813-20:12:01.968|56=TRAX|10=243|8=FIX.4.4|9=60|35=0|34=695|49=QA3Ver4_PUB|52=20180813-20:12:31.972|56=TRAX|10=242|8=FIX.4.4|9=60|35=0|34=696|49=QA3Ver4_PUB|52=20180813-20:13:02.963|56=TRAX|10=242|8=FIX.4.4|9=60|35=0|34=697|49=QA3Ver4_PUB|52=20180813-20:13:32.973|56=TRAX|10=247|8=FIX.4.4|9=60|35=0|34=698|49=QA3Ver4_PUB|52=20180813-20:14:03.758|56=TRAX|10=248|8=FIX.4.4|9=60|35=0|34=699|49=QA3Ver4_PUB|52=20180813-20:14:33.976|56=TRAX|10=254|8=FIX.4.4|9=60|35=0|34=700|49=QA3Ver4_PUB|52=20180813-20:15:04.963|56=TRAX|10=232|8=FIX.4.4|9=60|35=0|34=701|49=QA3Ver4_PUB|52=20180813-20:15:34.964|56=TRAX|10=237|8=FIX.4.4|9=60|35=0|34=702|49=QA3Ver4_PUB|52=20180813-20:16:05.962|56=TRAX|10=235|8=FIX.4.4|9=60|35=0|34=703|49=QA3Ver4_PUB|52=20180813-20:16:35.974|56=TRAX|10=242|8=FIX.4.4|9=60|35=0|34=704|49=QA3Ver4_PUB|52=20180813-20:17:05.977|56=TRAX|10=244|8=FIX.4.4|9=60|35=0|34=705|49=QA3Ver4_PUB|52=20180813-20:17:36.963|56=TRAX|10=244|8=FIX.4.4|9=60|35=0|34=706|49=QA3Ver4_PUB|52=20180813-20:18:06.976|56=TRAX|10=247|8=FIX.4.4|9=60|35=0|34=707|49=QA3Ver4_PUB|52=20180813-20:18:37.968|56=TRAX|10=253|8=FIX.4.4|9=60|35=0|34=708|49=QA3Ver4_PUB|52=20180813-20:19:07.977|56=TRAX|10=252|8=FIX.4.4|9=60|35=0|34=709|49=QA3Ver4_PUB|52=20180813-20:19:38.970|56=TRAX|10=250|8=FIX.4.4|9=60|35=0|34=710|49=QA3Ver4_PUB|52=20180813-20:20:09.973|56=TRAX|10=235|8=FIX.4.4|9=60|35=0|34=711|49=QA3Ver4_PUB|52=20180813-20:20:40.970|56=TRAX|10=228|8=FIX.4.4|9=60|35=0|34=712|49=QA3Ver4_PUB|52=20180813-20:21:10.974|56=TRAX|10=231|8=FIX.4.4|9=60|35=0|34=713|49=QA3Ver4_PUB|52=20180813-20:21:41.963|56=TRAX|10=234|8=FIX.4.4|9=60|35=0|34=714|49=QA3Ver4_PUB|52=20180813-20:22:12.970|56=TRAX|10=232|8=FIX.4.4|9=60|35=0|34=715|49=QA3Ver4_PUB|52=20180813-20:22:42.977|56=TRAX|10=243|8=FIX.4.4|9=60|35=0|34=716|49=QA3Ver4_PUB|52=20180813-20:23:13.968|56=TRAX|10=243|8=FIX.4.4|9=60|35=0|34=717|49=QA3Ver4_PUB|52=20180813-20:23:44.971|56=TRAX|10=242|8=FIX.4.4|9=60|35=0|34=718|49=QA3Ver4_PUB|52=20180813-20:24:15.976|56=TRAX|10=247|8=FIX.4.4|9=60|35=0|34=719|49=QA3Ver4_PUB|52=20180813-20:24:46.974|56=TRAX|10=250|8=FIX.4.4|9=60|35=0|34=720|49=QA3Ver4_PUB|52=20180813-20:25:16.974|56=TRAX|10=240|8=FIX.4.4|9=60|35=0|34=721|49=QA3Ver4_PUB|52=20180813-20:25:47.970|56=TRAX|10=241|8=FIX.4.4|9=60|35=0|34=722|49=QA3Ver4_PUB|52=20180813-20:26:18.962|56=TRAX|10=242|8=FIX.4.4|9=60|35=0|34=723|49=QA3Ver4_PUB|52=20180813-20:26:48.962|56=TRAX|10=246|8=FIX.4.4|9=60|35=0|34=724|49=QA3Ver4_PUB|52=20180813-20:27:18.972|56=TRAX|10=246|8=FIX.4.4|9=60|35=0|34=725|49=QA3Ver4_PUB|52=20180813-20:27:49.967|56=TRAX|10=255|8=FIX.4.4|9=60|35=0|34=726|49=QA3Ver4_PUB|52=20180813-20:28:20.975|56=TRAX|10=245|8=FIX.4.4|9=60|35=0|34=727|49=QA3Ver4_PUB|52=20180813-20:28:51.975|56=TRAX|10=250|8=FIX.4.4|9=60|35=0|34=728|49=QA3Ver4_PUB|52=20180813-20:29:22.975|56=TRAX|10=250|8=FIX.4.4|9=60|35=0|34=729|49=QA3Ver4_PUB|52=20180813-20:29:53.971|56=TRAX|10=251|8=FIX.4.4|9=60|35=0|34=730|49=QA3Ver4_PUB|52=20180813-20:30:24.971|56=TRAX|10=233|8=FIX.4.4|9=60|35=0|34=731|49=QA3Ver4_PUB|52=20180813-20:30:54.971|56=TRAX|10=237|8=FIX.4.4|9=60|35=0|34=732|49=QA3Ver4_PUB|52=20180813-20:31:25.961|56=TRAX|10=236|8=FIX.4.4|9=60|35=0|34=733|49=QA3Ver4_PUB|52=20180813-20:31:55.971|56=TRAX|10=241|8=FIX.4.4|9=60|35=0|34=734|49=QA3Ver4_PUB|52=20180813-20:32:25.975|56=TRAX|10=244|8=FIX.4.4|9=60|35=0|34=735|49=QA3Ver4_PUB|52=20180813-20:32:56.970|56=TRAX|10=244|8=FIX.4.4|9=60|35=0|34=736|49=QA3Ver4_PUB|52=20180813-20:33:27.967|56=TRAX|10=250|8=FIX.4.4|9=60|35=0|34=737|49=QA3Ver4_PUB|52=20180813-20:33:57.975|56=TRAX|10=253|8=FIX.4.4|9=60|35=0|34=738|49=QA3Ver4_PUB|52=20180813-20:34:28.968|56=TRAX|10=255|8=FIX.4.4|9=60|35=0|34=739|49=QA3Ver4_PUB|52=20180813-20:34:58.975|56=TRAX|10=001|8=FIX.4.4|9=60|35=0|34=740|49=QA3Ver4_PUB|52=20180813-20:35:29.973|56=TRAX|10=246|8=FIX.4.4|9=60|35=0|34=741|49=QA3Ver4_PUB|52=20180813-20:36:00.973|56=TRAX|10=237|8=FIX.4.4|9=60|35=0|34=742|49=QA3Ver4_PUB|52=20180813-20:36:31.976|56=TRAX|10=245|8=FIX.4.4|9=60|35=0|34=743|49=QA3Ver4_PUB|52=20180813-20:37:02.966|56=TRAX|10=244|8=FIX.4.4|9=60|35=0|34=744|49=QA3Ver4_PUB|52=20180813-20:37:33.760|56=TRAX|10=241|8=FIX.4.4|9=60|35=0|34=745|49=QA3Ver4_PUB|52=20180813-20:38:03.969|56=TRAX|10=251|8=FIX.4.4|9=60|35=0|34=746|49=QA3Ver4_PUB|52=20180813-20:38:33.970|56=TRAX|10=247|8=FIX.4.4|9=60|35=0|34=747|49=QA3Ver4_PUB|52=20180813-20:39:04.976|56=TRAX|10=253|8=FIX.4.4|9=60|35=0|34=748|49=QA3Ver4_PUB|52=20180813-20:39:35.965|56=TRAX|10=000|8=FIX.4.4|9=60|35=0|34=749|49=QA3Ver4_PUB|52=20180813-20:40:05.971|56=TRAX|10=243|8=FIX.4.4|9=60|35=0|34=750|49=QA3Ver4_PUB|52=20180813-20:40:36.972|56=TRAX|10=240|8=FIX.4.4|9=60|35=0|34=751|49=QA3Ver4_PUB|52=20180813-20:41:07.975|56=TRAX|10=243|8=FIX.4.4|9=60|35=0|34=752|49=QA3Ver4_PUB|52=20180813-20:41:38.961|56=TRAX|10=243|8=FIX.4.4|9=60|35=0|34=753|49=QA3Ver4_PUB|52=20180813-20:42:08.965|56=TRAX|10=246|8=FIX.4.4|9=60|35=0|34=754|49=QA3Ver4_PUB|52=20180813-20:42:38.972|56=TRAX|10=248|8=FIX.4.4|9=60|35=0|34=755|49=QA3Ver4_PUB|52=20180813-20:43:08.974|56=TRAX|10=249|8=FIX.4.4|9=60|35=0|34=756|49=QA3Ver4_PUB|52=20180813-20:43:39.972|56=TRAX|10=252|8=FIX.4.4|9=60|35=0|34=757|49=QA3Ver4_PUB|52=20180813-20:44:10.968|56=TRAX|10=248|8=FIX.4.4|9=60|35=0|34=758|49=QA3Ver4_PUB|52=20180813-20:44:41.969|56=TRAX|10=254|8=FIX.4.4|9=60|35=0|34=759|49=QA3Ver4_PUB|52=20180813-20:45:11.973|56=TRAX|10=248|8=FIX.4.4|9=60|35=0|34=760|49=QA3Ver4_PUB|52=20180813-20:45:42.959|56=TRAX|10=248|8=FIX.4.4|9=60|35=0|34=761|49=QA3Ver4_PUB|52=20180813-20:46:12.966|56=TRAX|10=245|8=FIX.4.4|9=60|35=0|34=762|49=QA3Ver4_PUB|52=20180813-20:46:43.958|56=TRAX|10=251|8=FIX.4.4|9=60|35=0|34=763|49=QA3Ver4_PUB|52=20180813-20:47:13.965|56=TRAX|10=248|8=FIX.4.4|9=60|35=0|34=764|49=QA3Ver4_PUB|52=20180813-20:47:44.967|56=TRAX|10=255|8=FIX.4.4|9=60|35=0|34=765|49=QA3Ver4_PUB|52=20180813-20:48:15.974|56=TRAX|10=253|8=FIX.4.4|9=60|35=0|34=766|49=QA3Ver4_PUB|52=20180813-20:48:46.959|56=TRAX|10=005|8=FIX.4.4|9=60|35=0|34=767|49=QA3Ver4_PUB|52=20180813-20:49:16.967|56=TRAX|10=003|8=FIX.4.4|9=60|35=0|34=768|49=QA3Ver4_PUB|52=20180813-20:49:46.967|56=TRAX|10=007|8=FIX.4.4|9=60|35=0|34=769|49=QA3Ver4_PUB|52=20180813-20:50:16.967|56=TRAX|10=253|8=FIX.4.4|9=60|35=0|34=770|49=QA3Ver4_PUB|52=20180813-20:50:46.973|56=TRAX|10=245|8=FIX.4.4|9=60|35=0|34=771|49=QA3Ver4_PUB|52=20180813-20:51:17.968|56=TRAX|10=249|8=FIX.4.4|9=60|35=0|34=772|49=QA3Ver4_PUB|52=20180813-20:51:48.959|56=TRAX|10=254|8=FIX.4.4|9=60|35=0|34=773|49=QA3Ver4_PUB|52=20180813-20:52:18.966|56=TRAX|10=251|8=FIX.4.4|9=60|35=0|34=774|49=QA3Ver4_PUB|52=20180813-20:52:48.973|56=TRAX|10=253|8=FIX.4.4|9=60|35=0|34=775|49=QA3Ver4_PUB|52=20180813-20:53:19.968|56=TRAX|10=001|8=FIX.4.4|9=60|35=0|34=776|49=QA3Ver4_PUB|52=20180813-20:53:50.967|56=TRAX|10=252|8=FIX.4.4|9=60|35=0|34=777|49=QA3Ver4_PUB|52=20180813-20:54:20.967|56=TRAX|10=251|8=FIX.4.4|9=60|35=0|34=778|49=QA3Ver4_PUB|52=20180813-20:54:50.973|56=TRAX|10=252|8=FIX.4.4|9=60|35=0|34=779|49=QA3Ver4_PUB|52=20180813-20:55:21.966|56=TRAX|10=254|8=FIX.4.4|9=60|35=0|34=780|49=QA3Ver4_PUB|52=20180813-20:55:51.967|56=TRAX|10=250|8=FIX.4.4|9=60|35=0|34=781|49=QA3Ver4_PUB|52=20180813-20:56:22.969|56=TRAX|10=252|8=FIX.4.4|9=60|35=0|34=782|49=QA3Ver4_PUB|52=20180813-20:56:53.971|56=TRAX|10=250|8=FIX.4.4|9=60|35=0|34=783|49=QA3Ver4_PUB|52=20180813-20:57:24.959|56=TRAX|10=000|8=FIX.4.4|9=60|35=0|34=784|49=QA3Ver4_PUB|52=20180813-20:57:54.973|56=TRAX|10=000|8=FIX.4.4|9=60|35=0|34=785|49=QA3Ver4_PUB|52=20180813-20:58:25.972|56=TRAX|10=255|8=FIX.4.4|9=60|35=0|34=786|49=QA3Ver4_PUB|52=20180813-20:58:55.972|56=TRAX|10=003|8=FIX.4.4|9=60|35=0|34=787|49=QA3Ver4_PUB|52=20180813-20:59:25.972|56=TRAX|10=002|8=FIX.4.4|9=60|35=0|34=788|49=QA3Ver4_PUB|52=20180813-20:59:56.962|56=TRAX|10=006|8=FIX.4.4|9=60|35=0|34=789|49=QA3Ver4_PUB|52=20180813-21:00:26.964|56=TRAX|10=249|8=FIX.4.4|9=60|35=0|34=790|49=QA3Ver4_PUB|52=20180813-21:00:57.957|56=TRAX|10=247|8=FIX.4.4|9=60|35=0|34=791|49=QA3Ver4_PUB|52=20180813-21:01:27.959|56=TRAX|10=248|8=FIX.4.4|9=60|35=0|34=792|49=QA3Ver4_PUB|52=20180813-21:01:58.970|56=TRAX|10=246|8=FIX.4.4|9=60|35=0|34=793|49=QA3Ver4_PUB|52=20180813-21:02:29.957|56=TRAX|10=251|8=FIX.4.4|9=60|35=0|34=794|49=QA3Ver4_PUB|52=20180813-21:02:59.971|56=TRAX|10=251|8=FIX.4.4|9=60|35=0|34=795|49=QA3Ver4_PUB|52=20180813-21:03:29.971|56=TRAX|10=250|8=FIX.4.4|9=60|35=0|34=796|49=QA3Ver4_PUB|52=20180813-21:04:00.965|56=TRAX|10=244|8=FIX.4.4|9=60|35=0|34=797|49=QA3Ver4_PUB|52=20180813-21:04:30.967|56=TRAX|10=250|8=FIX.4.4|9=60|35=0|34=798|49=QA3Ver4_PUB|52=20180813-21:05:01.959|56=TRAX|10=251|8=FIX.4.4|9=60|35=0|34=799|49=QA3Ver4_PUB|52=20180813-21:05:31.960|56=TRAX|10=247|8=FIX.4.4|9=60|35=0|34=800|49=QA3Ver4_PUB|52=20180813-21:06:01.964|56=TRAX|10=232|8=FIX.4.4|9=60|35=0|34=801|49=QA3Ver4_PUB|52=20180813-21:06:32.957|56=TRAX|10=239|8=FIX.4.4|9=60|35=0|34=802|49=QA3Ver4_PUB|52=20180813-21:07:02.963|56=TRAX|10=235|8=FIX.4.4|9=60|35=0|34=803|49=QA3Ver4_PUB|52=20180813-21:07:33.770|56=TRAX|10=236|8=FIX.4.4|9=60|35=0|34=804|49=QA3Ver4_PUB|52=20180813-21:08:03.961|56=TRAX|10=237|8=FIX.4.4|9=60|35=0|34=805|49=QA3Ver4_PUB|52=20180813-21:08:33.971|56=TRAX|10=242|8=FIX.4.4|9=60|35=0|34=806|49=QA3Ver4_PUB|52=20180813-21:09:04.960|56=TRAX|10=240|8=FIX.4.4|9=60|35=0|34=807|49=QA3Ver4_PUB|52=20180813-21:09:34.970|56=TRAX|10=245|8=FIX.4.4|9=60|35=0|34=808|49=QA3Ver4_PUB|52=20180813-21:10:05.971|56=TRAX|10=237|8=FIX.4.4|9=60|35=0|34=809|49=QA3Ver4_PUB|52=20180813-21:10:36.964|56=TRAX|10=244|8=FIX.4.4|9=60|35=0|34=810|49=QA3Ver4_PUB|52=20180813-21:11:07.957|56=TRAX|10=237|8=FIX.4.4|9=60|35=0|34=811|49=QA3Ver4_PUB|52=20180813-21:11:37.967|56=TRAX|10=242|8=FIX.4.4|9=60|35=0|34=812|49=QA3Ver4_PUB|52=20180813-21:12:08.962|56=TRAX|10=237|8=FIX.4.4|9=60|35=0|34=813|49=QA3Ver4_PUB|52=20180813-21:12:39.963|56=TRAX|10=243|8=FIX.4.4|9=60|35=0|34=814|49=QA3Ver4_PUB|52=20180813-21:13:09.971|56=TRAX|10=241|8=FIX.4.4|9=60|35=0|34=815|49=QA3Ver4_PUB|52=20180813-21:13:40.968|56=TRAX|10=243|8=FIX.4.4|9=60|35=0|34=816|49=QA3Ver4_PUB|52=20180813-21:14:11.962|56=TRAX|10=237|8=FIX.4.4|9=60|35=0|34=817|49=QA3Ver4_PUB|52=20180813-21:14:41.969|56=TRAX|10=248|8=FIX.4.4|9=60|35=0|34=818|49=QA3Ver4_PUB|52=20180813-21:15:12.960|56=TRAX|10=239|8=FIX.4.4|9=60|35=0|34=819|49=QA3Ver4_PUB|52=20180813-21:15:43.963|56=TRAX|10=247|8=FIX.4.4|9=60|35=0|34=820|49=QA3Ver4_PUB|52=20180813-21:16:13.964|56=TRAX|10=238|8=FIX.4.4|9=60|35=0|34=821|49=QA3Ver4_PUB|52=20180813-21:16:43.969|56=TRAX|10=247|8=FIX.4.4|9=60|35=0|34=822|49=QA3Ver4_PUB|52=20180813-21:17:14.958|56=TRAX|10=245|8=FIX.4.4|9=60|35=0|34=823|49=QA3Ver4_PUB|52=20180813-21:17:45.961|56=TRAX|10=244|8=FIX.4.4|9=60|35=0|34=824|49=QA3Ver4_PUB|52=20180813-21:18:16.962|56=TRAX|10=245|8=FIX.4.4|9=60|35=0|34=825|49=QA3Ver4_PUB|52=20180813-21:18:47.959|56=TRAX|10=000|8=FIX.4.4|9=60|35=0|34=826|49=QA3Ver4_PUB|52=20180813-21:19:18.959|56=TRAX|10=000|8=FIX.4.4|9=60|35=0|34=827|49=QA3Ver4_PUB|52=20180813-21:19:48.964|56=TRAX|10=000|8=FIX.4.4|9=60|35=0|34=828|49=QA3Ver4_PUB|52=20180813-21:20:18.966|56=TRAX|10=248|8=FIX.4.4|9=60|35=0|34=829|49=QA3Ver4_PUB|52=20180813-21:20:48.969|56=TRAX|10=255|8=FIX.4.4|9=60|35=0|34=830|49=QA3Ver4_PUB|52=20180813-21:21:18.970|56=TRAX|10=237|8=FIX.4.4|9=60|35=0|34=831|49=QA3Ver4_PUB|52=20180813-21:21:49.955|56=TRAX|10=245|8=FIX.4.4|9=60|35=0|34=832|49=QA3Ver4_PUB|52=20180813-21:22:19.956|56=TRAX|10=245|8=FIX.4.4|9=60|35=0|34=833|49=QA3Ver4_PUB|52=20180813-21:22:49.958|56=TRAX|10=251|8=FIX.4.4|9=60|35=0|34=834|49=QA3Ver4_PUB|52=20180813-21:23:20.969|56=TRAX|10=244|8=FIX.4.4|9=60|35=0|34=835|49=QA3Ver4_PUB|52=20180813-21:23:50.970|56=TRAX|10=240|8=FIX.4.4|9=60|35=0|34=836|49=QA3Ver4_PUB|52=20180813-21:24:21.969|56=TRAX|10=248|8=FIX.4.4|9=60|35=0|34=837|49=QA3Ver4_PUB|52=20180813-21:24:52.970|56=TRAX|10=245|8=FIX.4.4|9=60|35=0|34=838|49=QA3Ver4_PUB|52=20180813-21:25:23.969|56=TRAX|10=253|8=FIX.4.4|9=60|35=0|34=839|49=QA3Ver4_PUB|52=20180813-21:25:54.955|56=TRAX|10=253|8=FIX.4.4|9=60|35=0|34=840|49=QA3Ver4_PUB|52=20180813-21:26:24.970|56=TRAX|10=240|8=FIX.4.4|9=60|35=0|34=841|49=QA3Ver4_PUB|52=20180813-21:26:55.956|56=TRAX|10=249|8=FIX.4.4|9=60|35=0|34=842|49=QA3Ver4_PUB|52=20180813-21:27:25.961|56=TRAX|10=244|8=FIX.4.4|9=60|35=0|34=843|49=QA3Ver4_PUB|52=20180813-21:27:55.964|56=TRAX|10=251|8=FIX.4.4|9=60|35=0|34=844|49=QA3Ver4_PUB|52=20180813-21:28:25.969|56=TRAX|10=255|8=FIX.4.4|9=60|35=0|34=845|49=QA3Ver4_PUB|52=20180813-21:28:56.955|56=TRAX|10=255|8=FIX.4.4|9=60|35=0|34=846|49=QA3Ver4_PUB|52=20180813-21:29:26.969|56=TRAX|10=003|8=FIX.4.4|9=60|35=0|34=847|49=QA3Ver4_PUB|52=20180813-21:29:57.970|56=TRAX|10=000|8=FIX.4.4|9=60|35=0|34=848|49=QA3Ver4_PUB|52=20180813-21:30:28.955|56=TRAX|10=250|8=FIX.4.4|9=60|35=0|34=849|49=QA3Ver4_PUB|52=20180813-21:30:58.967|56=TRAX|10=001|8=FIX.4.4|9=60|35=0|34=850|49=QA3Ver4_PUB|52=20180813-21:31:29.969|56=TRAX|10=250|8=FIX.4.4|9=60|35=0|34=851|49=QA3Ver4_PUB|52=20180813-21:32:00.969|56=TRAX|10=241|8=FIX.4.4|9=60|35=0|34=852|49=QA3Ver4_PUB|52=20180813-21:32:31.955|56=TRAX|10=241|8=FIX.4.4|9=60|35=0|34=853|49=QA3Ver4_PUB|52=20180813-21:33:01.970|56=TRAX|10=237|8=FIX.4.4|9=60|35=0|34=854|49=QA3Ver4_PUB|52=20180813-21:33:32.969|56=TRAX|10=250|8=FIX.4.4|9=60|35=0|34=855|49=QA3Ver4_PUB|52=20180813-21:34:03.765|56=TRAX|10=244|8=FIX.4.4|9=60|35=0|34=856|49=QA3Ver4_PUB|52=20180813-21:34:33.767|56=TRAX|10=250|8=FIX.4.4|9=60|35=0|34=857|49=QA3Ver4_PUB|52=20180813-21:35:03.771|56=TRAX|10=244|8=FIX.4.4|9=60|35=0|34=858|49=QA3Ver4_PUB|52=20180813-21:35:33.956|56=TRAX|10=253|8=FIX.4.4|9=60|35=0|34=859|49=QA3Ver4_PUB|52=20180813-21:36:03.958|56=TRAX|10=254|8=FIX.4.4|9=60|35=0|34=860|49=QA3Ver4_PUB|52=20180813-21:36:33.969|56=TRAX|10=251|8=FIX.4.4|9=60|35=0|34=861|49=QA3Ver4_PUB|52=20180813-21:37:04.968|56=TRAX|10=250|8=FIX.4.4|9=60|35=0|34=862|49=QA3Ver4_PUB|52=20180813-21:37:35.969|56=TRAX|10=000|8=FIX.4.4|9=60|35=0|34=863|49=QA3Ver4_PUB|52=20180813-21:38:06.954|56=TRAX|10=250|8=FIX.4.4|9=60|35=0|34=864|49=QA3Ver4_PUB|52=20180813-21:38:36.964|56=TRAX|10=255|8=FIX.4.4|9=60|35=0|34=865|49=QA3Ver4_PUB|52=20180813-21:39:07.968|56=TRAX|10=003|8=FIX.4.4|9=60|35=0|34=866|49=QA3Ver4_PUB|52=20180813-21:39:37.969|56=TRAX|10=008|8=FIX.4.4|9=60|35=0|34=867|49=QA3Ver4_PUB|52=20180813-21:40:08.954|56=TRAX|10=249|8=FIX.4.4|9=60|35=0|34=868|49=QA3Ver4_PUB|52=20180813-21:40:38.965|56=TRAX|10=255|8=FIX.4.4|9=60|35=0|34=869|49=QA3Ver4_PUB|52=20180813-21:41:09.960|56=TRAX|10=250|8=FIX.4.4|9=60|35=0|34=870|49=QA3Ver4_PUB|52=20180813-21:41:40.953|56=TRAX|10=239|8=FIX.4.4|9=60|35=0|34=871|49=QA3Ver4_PUB|52=20180813-21:42:10.957|56=TRAX|10=242|8=FIX.4.4|9=60|35=0|34=872|49=QA3Ver4_PUB|52=20180813-21:42:41.954|56=TRAX|10=244|8=FIX.4.4|9=60|35=0|34=873|49=QA3Ver4_PUB|52=20180813-21:43:12.966|56=TRAX|10=247|8=FIX.4.4|9=60|35=0|34=874|49=QA3Ver4_PUB|52=20180813-21:43:43.952|56=TRAX|10=247|8=FIX.4.4|9=60|35=0|34=875|49=QA3Ver4_PUB|52=20180813-21:44:13.966|56=TRAX|10=251|8=FIX.4.4|9=60|35=0|34=876|49=QA3Ver4_PUB|52=20180813-21:44:43.966|56=TRAX|10=255|8=FIX.4.4|9=60|35=0|34=877|49=QA3Ver4_PUB|52=20180813-21:45:13.966|56=TRAX|10=254|8=FIX.4.4|9=60|35=0|34=878|49=QA3Ver4_PUB|52=20180813-21:45:44.954|56=TRAX|10=000|8=FIX.4.4|9=60|35=0|34=879|49=QA3Ver4_PUB|52=20180813-21:46:14.965|56=TRAX|10=001|8=FIX.4.4|9=60|35=0|34=880|49=QA3Ver4_PUB|52=20180813-21:46:45.954|56=TRAX|10=251|8=FIX.4.4|9=60|35=0|34=881|49=QA3Ver4_PUB|52=20180813-21:47:15.964|56=TRAX|10=251|8=FIX.4.4|9=60|35=0|34=882|49=QA3Ver4_PUB|52=20180813-21:47:46.951|56=TRAX|10=252|8=FIX.4.4|9=60|35=0|34=883|49=QA3Ver4_PUB|52=20180813-21:48:16.960|56=TRAX|10=251|8=FIX.4.4|9=60|35=0|34=884|49=QA3Ver4_PUB|52=20180813-21:48:46.964|56=TRAX|10=003|8=FIX.4.4|9=60|35=0|34=885|49=QA3Ver4_PUB|52=20180813-21:49:17.965|56=TRAX|10=004|8=FIX.4.4|9=60|35=0|34=886|49=QA3Ver4_PUB|52=20180813-21:49:48.962|56=TRAX|10=006|8=FIX.4.4|9=60|35=0|34=887|49=QA3Ver4_PUB|52=20180813-21:50:18.964|56=TRAX|10=254|8=FIX.4.4|9=60|35=0|34=888|49=QA3Ver4_PUB|52=20180813-21:50:49.950|56=TRAX|10=254|8=FIX.4.4|9=60|35=0|34=889|49=QA3Ver4_PUB|52=20180813-21:51:19.963|56=TRAX|10=001|8=FIX.4.4|9=60|35=0|34=890|49=QA3Ver4_PUB|52=20180813-21:51:50.956|56=TRAX|10=246|8=FIX.4.4|9=60|35=0|34=891|49=QA3Ver4_PUB|52=20180813-21:52:21.963|56=TRAX|10=244|8=FIX.4.4|9=60|35=0|34=892|49=QA3Ver4_PUB|52=20180813-21:52:52.949|56=TRAX|10=253|8=FIX.4.4|9=60|35=0|34=893|49=QA3Ver4_PUB|52=20180813-21:53:23.963|56=TRAX|10=249|8=FIX.4.4|9=60|35=0|34=894|49=QA3Ver4_PUB|52=20180813-21:53:54.948|56=TRAX|10=001|8=FIX.4.4|9=60|35=0|34=895|49=QA3Ver4_PUB|52=20180813-21:54:24.957|56=TRAX|10=000|8=FIX.4.4|9=60|35=0|34=896|49=QA3Ver4_PUB|52=20180813-21:54:54.961|56=TRAX|10=255|8=FIX.4.4|9=60|35=0|34=897|49=QA3Ver4_PUB|52=20180813-21:55:25.962|56=TRAX|10=000|8=FIX.4.4|9=60|35=0|34=898|49=QA3Ver4_PUB|52=20180813-21:55:56.947|56=TRAX|10=008|8=FIX.4.4|9=60|35=0|34=899|49=QA3Ver4_PUB|52=20180813-21:56:26.955|56=TRAX|10=006|8=FIX.4.4|9=60|35=0|34=900|49=QA3Ver4_PUB|52=20180813-21:56:57.947|56=TRAX|10=250|8=FIX.4.4|9=60|35=0|34=901|49=QA3Ver4_PUB|52=20180813-21:57:27.948|56=TRAX|10=250|8=FIX.4.4|9=60|35=0|34=902|49=QA3Ver4_PUB|52=20180813-21:57:57.952|56=TRAX|10=249|8=FIX.4.4|9=60|35=0|34=903|49=QA3Ver4_PUB|52=20180813-21:58:28.948|56=TRAX|10=254|8=FIX.4.4|9=60|35=0|34=904|49=QA3Ver4_PUB|52=20180813-21:58:58.951|56=TRAX|10=252|8=FIX.4.4|9=60|35=0|34=905|49=QA3Ver4_PUB|52=20180813-21:59:29.960|56=TRAX|10=252|8=FIX.4.4|9=60|35=0|34=906|49=QA3Ver4_PUB|52=20180813-22:00:00.946|56=TRAX|10=233|8=FIX.4.4|9=60|35=0|34=907|49=QA3Ver4_PUB|52=20180813-22:00:30.951|56=TRAX|10=233|8=FIX.4.4|9=60|35=0|34=908|49=QA3Ver4_PUB|52=20180813-22:01:01.959|56=TRAX|10=241|8=FIX.4.4|9=60|35=0|34=909|49=QA3Ver4_PUB|52=20180813-22:01:32.946|56=TRAX|10=242|8=FIX.4.4|9=60|35=0|34=910|49=QA3Ver4_PUB|52=20180813-22:02:02.952|56=TRAX|10=229|8=FIX.4.4|9=60|35=0|34=911|49=QA3Ver4_PUB|52=20180813-22:02:32.952|56=TRAX|10=233|8=FIX.4.4|9=60|35=0|34=912|49=QA3Ver4_PUB|52=20180813-22:03:02.954|56=TRAX|10=234|8=FIX.4.4|9=60|35=0|34=913|49=QA3Ver4_PUB|52=20180813-22:03:33.755|56=TRAX|10=238|8=FIX.4.4|9=60|35=0|34=914|49=QA3Ver4_PUB|52=20180813-22:04:03.764|56=TRAX|10=237|8=FIX.4.4|9=60|35=0|34=915|49=QA3Ver4_PUB|52=20180813-22:04:33.946|56=TRAX|10=243|8=FIX.4.4|9=60|35=0|34=916|49=QA3Ver4_PUB|52=20180813-22:05:03.954|56=TRAX|10=241|8=FIX.4.4|9=60|35=0|34=917|49=QA3Ver4_PUB|52=20180813-22:05:34.955|56=TRAX|10=247|8=FIX.4.4|9=60|35=0|34=918|49=QA3Ver4_PUB|52=20180813-22:06:05.948|56=TRAX|10=249|8=FIX.4.4|9=60|35=0|34=919|49=QA3Ver4_PUB|52=20180813-22:06:35.957|56=TRAX|10=253|8=FIX.4.4|9=60|35=0|34=920|49=QA3Ver4_PUB|52=20180813-22:07:06.948|56=TRAX|10=244|8=FIX.4.4|9=60|35=0|34=921|49=QA3Ver4_PUB|52=20180813-22:07:36.957|56=TRAX|10=248|8=FIX.4.4|9=60|35=0|34=922|49=QA3Ver4_PUB|52=20180813-22:08:06.958|56=TRAX|10=248|8=FIX.4.4|9=60|35=0|34=923|49=QA3Ver4_PUB|52=20180813-22:08:37.957|56=TRAX|10=252|8=FIX.4.4|9=60|35=0|34=924|49=QA3Ver4_PUB|52=20180813-22:09:08.944|56=TRAX|10=248|8=FIX.4.4|9=60|35=0|34=925|49=QA3Ver4_PUB|52=20180813-22:09:38.945|56=TRAX|10=253|8=FIX.4.4|9=60|35=0|34=926|49=QA3Ver4_PUB|52=20180813-22:10:09.956|56=TRAX|10=246|8=FIX.4.4|9=60|35=0|34=927|49=QA3Ver4_PUB|52=20180813-22:10:40.952|56=TRAX|10=238|8=FIX.4.4|9=60|35=0|34=928|49=QA3Ver4_PUB|52=20180813-22:11:10.954|56=TRAX|10=239|8=FIX.4.4|9=60|35=0|34=929|49=QA3Ver4_PUB|52=20180813-22:11:41.953|56=TRAX|10=243|8=FIX.4.4|9=60|35=0|34=930|49=QA3Ver4_PUB|52=20180813-22:12:11.953|56=TRAX|10=233|8=FIX.4.4|9=60|35=0|34=931|49=QA3Ver4_PUB|52=20180813-22:12:41.955|56=TRAX|10=239|8=FIX.4.4|9=60|35=0|34=932|49=QA3Ver4_PUB|52=20180813-22:13:12.955|56=TRAX|10=239|8=FIX.4.4|9=60|35=0|34=933|49=QA3Ver4_PUB|52=20180813-22:13:43.944|56=TRAX|10=242|8=FIX.4.4|9=60|35=0|34=934|49=QA3Ver4_PUB|52=20180813-22:14:14.948|56=TRAX|10=246|8=FIX.4.4|9=60|35=0|34=935|49=QA3Ver4_PUB|52=20180813-22:14:45.955|56=TRAX|10=249|8=FIX.4.4|9=60|35=0|34=936|49=QA3Ver4_PUB|52=20180813-22:15:16.953|56=TRAX|10=247|8=FIX.4.4|9=60|35=0|34=937|49=QA3Ver4_PUB|52=20180813-22:15:47.950|56=TRAX|10=249|8=FIX.4.4|9=60|35=0|34=938|49=QA3Ver4_PUB|52=20180813-22:16:18.947|56=TRAX|10=255|8=FIX.4.4|9=60|35=0|34=939|49=QA3Ver4_PUB|52=20180813-22:16:48.948|56=TRAX|10=004|8=FIX.4.4|9=60|35=0|34=940|49=QA3Ver4_PUB|52=20180813-22:17:19.946|56=TRAX|10=249|8=FIX.4.4|9=60|35=0|34=941|49=QA3Ver4_PUB|52=20180813-22:17:50.940|56=TRAX|10=239|8=FIX.4.4|9=60|35=0|34=942|49=QA3Ver4_PUB|52=20180813-22:18:20.948|56=TRAX|10=246|8=FIX.4.4|9=60|35=0|34=943|49=QA3Ver4_PUB|52=20180813-22:18:51.950|56=TRAX|10=244|8=FIX.4.4|9=60|35=0|34=944|49=QA3Ver4_PUB|52=20180813-22:19:21.952|56=TRAX|10=245|8=FIX.4.4|9=60|35=0|34=945|49=QA3Ver4_PUB|52=20180813-22:19:52.938|56=TRAX|10=254|8=FIX.4.4|9=60|35=0|34=946|49=QA3Ver4_PUB|52=20180813-22:20:22.944|56=TRAX|10=241|8=FIX.4.4|9=60|35=0|34=947|49=QA3Ver4_PUB|52=20180813-22:20:52.953|56=TRAX|10=245|8=FIX.4.4|9=60|35=0|34=948|49=QA3Ver4_PUB|52=20180813-22:21:23.948|56=TRAX|10=249|8=FIX.4.4|9=60|35=0|34=949|49=QA3Ver4_PUB|52=20180813-22:21:53.952|56=TRAX|10=248|8=FIX.4.4|9=60|35=0|34=950|49=QA3Ver4_PUB|52=20180813-22:22:24.938|56=TRAX|10=243|8=FIX.4.4|9=60|35=0|34=951|49=QA3Ver4_PUB|52=20180813-22:22:54.944|56=TRAX|10=244|8=FIX.4.4|9=60|35=0|34=952|49=QA3Ver4_PUB|52=20180813-22:23:25.944|56=TRAX|10=244|8=FIX.4.4|9=60|35=0|34=953|49=QA3Ver4_PUB|52=20180813-22:23:56.937|56=TRAX|10=251|8=FIX.4.4|9=60|35=0|34=954|49=QA3Ver4_PUB|52=20180813-22:24:26.944|56=TRAX|10=248|8=FIX.4.4|9=60|35=0|34=955|49=QA3Ver4_PUB|52=20180813-22:24:56.949|56=TRAX|10=001|8=FIX.4.4|9=60|35=0|34=956|49=QA3Ver4_PUB|52=20180813-22:25:27.937|56=TRAX|10=254|8=FIX.4.4|9=60|35=0|34=957|49=QA3Ver4_PUB|52=20180813-22:25:57.950|56=TRAX|10=253|8=FIX.4.4|9=60|35=0|34=958|49=QA3Ver4_PUB|52=20180813-22:26:28.950|56=TRAX|10=253|8=FIX.4.4|9=60|35=0|34=959|49=QA3Ver4_PUB|52=20180813-22:26:59.936|56=TRAX|10=006|8=FIX.4.4|9=60|35=0|34=960|49=QA3Ver4_PUB|52=20180813-22:27:29.943|56=TRAX|10=250|8=FIX.4.4|9=60|35=0|34=961|49=QA3Ver4_PUB|52=20180813-22:28:00.949|56=TRAX|10=247|8=FIX.4.4|9=60|35=0|34=962|49=QA3Ver4_PUB|52=20180813-22:28:30.949|56=TRAX|10=251|8=FIX.4.4|9=60|35=0|34=963|49=QA3Ver4_PUB|52=20180813-22:29:00.950|56=TRAX|10=242|8=FIX.4.4|9=60|35=0|34=964|49=QA3Ver4_PUB|52=20180813-22:29:31.937|56=TRAX|10=252|8=FIX.4.4|9=60|35=0|34=965|49=QA3Ver4_PUB|52=20180813-22:30:01.938|56=TRAX|10=243|8=FIX.4.4|9=60|35=0|34=966|49=QA3Ver4_PUB|52=20180813-22:30:31.938|56=TRAX|10=247|8=FIX.4.4|9=60|35=0|34=967|49=QA3Ver4_PUB|52=20180813-22:31:01.948|56=TRAX|10=247|8=FIX.4.4|9=60|35=0|34=968|49=QA3Ver4_PUB|52=20180813-22:31:32.944|56=TRAX|10=248|8=FIX.4.4|9=60|35=0|34=969|49=QA3Ver4_PUB|52=20180813-22:32:03.751|56=TRAX|10=244|8=FIX.4.4|9=60|35=0|34=970|49=QA3Ver4_PUB|52=20180813-22:32:33.761|56=TRAX|10=240|8=FIX.4.4|9=60|35=0|34=971|49=QA3Ver4_PUB|52=20180813-22:33:03.944|56=TRAX|10=242|8=FIX.4.4|9=60|35=0|34=972|49=QA3Ver4_PUB|52=20180813-22:33:34.938|56=TRAX|10=250|8=FIX.4.4|9=60|35=0|34=973|49=QA3Ver4_PUB|52=20180813-22:34:04.948|56=TRAX|10=250|8=FIX.4.4|9=60|35=0|34=974|49=QA3Ver4_PUB|52=20180813-22:34:35.947|56=TRAX|10=254|8=FIX.4.4|9=60|35=0|34=975|49=QA3Ver4_PUB|52=20180813-22:35:06.934|56=TRAX|10=250|8=FIX.4.4|9=60|35=0|34=976|49=QA3Ver4_PUB|52=20180813-22:35:36.943|56=TRAX|10=254|8=FIX.4.4|9=60|35=0|34=977|49=QA3Ver4_PUB|52=20180813-22:36:07.939|56=TRAX|10=003|8=FIX.4.4|9=60|35=0|34=978|49=QA3Ver4_PUB|52=20180813-22:36:37.939|56=TRAX|10=007|8=FIX.4.4|9=60|35=0|34=979|49=QA3Ver4_PUB|52=20180813-22:37:08.933|56=TRAX|10=001|8=FIX.4.4|9=60|35=0|34=980|49=QA3Ver4_PUB|52=20180813-22:37:38.939|56=TRAX|10=002|8=FIX.4.4|9=60|35=0|34=981|49=QA3Ver4_PUB|52=20180813-22:38:09.940|56=TRAX|10=250|8=FIX.4.4|9=60|35=0|34=982|49=QA3Ver4_PUB|52=20180813-22:38:39.944|56=TRAX|10=002|8=FIX.4.4|9=60|35=0|34=983|49=QA3Ver4_PUB|52=20180813-22:39:09.945|56=TRAX|10=002|8=FIX.4.4|9=60|35=0|34=984|49=QA3Ver4_PUB|52=20180813-22:39:39.945|56=TRAX|10=006|8=FIX.4.4|9=60|35=0|34=985|49=QA3Ver4_PUB|52=20180813-22:40:09.945|56=TRAX|10=252|8=FIX.4.4|9=60|35=0|34=986|49=QA3Ver4_PUB|52=20180813-22:40:40.945|56=TRAX|10=248|8=FIX.4.4|9=60|35=0|34=987|49=QA3Ver4_PUB|52=20180813-22:41:10.945|56=TRAX|10=247|8=FIX.4.4|9=60|35=0|34=988|49=QA3Ver4_PUB|52=20180813-22:41:41.944|56=TRAX|10=251|8=FIX.4.4|9=60|35=0|34=989|49=QA3Ver4_PUB|52=20180813-22:42:12.935|56=TRAX|10=251|8=FIX.4.4|9=60|35=0|34=990|49=QA3Ver4_PUB|52=20180813-22:42:43.931|56=TRAX|10=243|8=FIX.4.4|9=60|35=0|34=991|49=QA3Ver4_PUB|52=20180813-22:43:13.937|56=TRAX|10=248|8=FIX.4.4|9=60|35=0|34=992|49=QA3Ver4_PUB|52=20180813-22:43:44.937|56=TRAX|10=253|8=FIX.4.4|9=60|35=0|34=993|49=QA3Ver4_PUB|52=20180813-22:44:15.929|56=TRAX|10=254|8=FIX.4.4|9=60|35=0|34=994|49=QA3Ver4_PUB|52=20180813-22:44:45.929|56=TRAX|10=002|8=FIX.4.4|9=60|35=0|34=995|49=QA3Ver4_PUB|52=20180813-22:45:15.929|56=TRAX|10=001|8=FIX.4.4|9=60|35=0|34=996|49=QA3Ver4_PUB|52=20180813-22:45:45.930|56=TRAX|10=253|8=FIX.4.4|9=60|35=0|34=997|49=QA3Ver4_PUB|52=20180813-22:46:15.932|56=TRAX|10=254|8=FIX.4.4|9=60|35=0|34=998|49=QA3Ver4_PUB|52=20180813-22:46:45.933|56=TRAX|10=003|8=FIX.4.4|9=60|35=0|34=999|49=QA3Ver4_PUB|52=20180813-22:47:15.933|56=TRAX|10=002|8=FIX.4.4|9=61|35=0|34=1000|49=QA3Ver4_PUB|52=20180813-22:47:46.928|56=TRAX|10=033|8=FIX.4.4|9=61|35=0|34=1001|49=QA3Ver4_PUB|52=20180813-22:48:16.941|56=TRAX|10=027|8=FIX.4.4|9=61|35=0|34=1002|49=QA3Ver4_PUB|52=20180813-22:48:47.928|56=TRAX|10=037|8=FIX.4.4|9=61|35=0|34=1003|49=QA3Ver4_PUB|52=20180813-22:49:17.940|56=TRAX|10=030|8=FIX.4.4|9=61|35=0|34=1004|49=QA3Ver4_PUB|52=20180813-22:49:48.941|56=TRAX|10=036|8=FIX.4.4|9=61|35=0|34=1005|49=QA3Ver4_PUB|52=20180813-22:50:19.927|56=TRAX|10=031|8=FIX.4.4|9=61|35=0|34=1006|49=QA3Ver4_PUB|52=20180813-22:50:49.939|56=TRAX|10=038|8=FIX.4.4|9=61|35=0|34=1007|49=QA3Ver4_PUB|52=20180813-22:51:20.937|56=TRAX|10=027|8=FIX.4.4|9=61|35=0|34=1008|49=QA3Ver4_PUB|52=20180813-22:51:50.941|56=TRAX|10=026|8=FIX.4.4|9=61|35=0|34=1009|49=QA3Ver4_PUB|52=20180813-22:52:21.927|56=TRAX|10=030|8=FIX.4.4|9=61|35=0|34=1010|49=QA3Ver4_PUB|52=20180813-22:52:51.940|56=TRAX|10=020|8=FIX.4.4|9=61|35=0|34=1011|49=QA3Ver4_PUB|52=20180813-22:53:22.926|56=TRAX|10=024|8=FIX.4.4|9=61|35=0|34=1012|49=QA3Ver4_PUB|52=20180813-22:53:52.937|56=TRAX|10=030|8=FIX.4.4|9=61|35=0|34=1013|49=QA3Ver4_PUB|52=20180813-22:54:23.940|56=TRAX|10=024|8=FIX.4.4|9=61|35=0|34=1014|49=QA3Ver4_PUB|52=20180813-22:54:54.933|56=TRAX|10=031|8=FIX.4.4|9=61|35=0|34=1015|49=QA3Ver4_PUB|52=20180813-22:55:24.940|56=TRAX|10=028|8=FIX.4.4|9=61|35=0|34=1016|49=QA3Ver4_PUB|52=20180813-22:55:55.935|56=TRAX|10=037|8=FIX.4.4|9=61|35=0|34=1017|49=QA3Ver4_PUB|52=20180813-22:56:26.928|56=TRAX|10=039|8=FIX.4.4|9=61|35=0|34=1018|49=QA3Ver4_PUB|52=20180813-22:56:57.926|56=TRAX|10=042|8=FIX.4.4|9=61|35=0|34=1019|49=QA3Ver4_PUB|52=20180813-22:57:27.932|56=TRAX|10=038|8=FIX.4.4|9=61|35=0|34=1020|49=QA3Ver4_PUB|52=20180813-22:57:58.932|56=TRAX|10=034|8=FIX.4.4|9=61|35=0|34=1021|49=QA3Ver4_PUB|52=20180813-22:58:28.937|56=TRAX|10=038|8=FIX.4.4|9=61|35=0|34=1022|49=QA3Ver4_PUB|52=20180813-22:58:59.924|56=TRAX|10=039|8=FIX.4.4|9=61|35=0|34=1023|49=QA3Ver4_PUB|52=20180813-22:59:29.937|56=TRAX|10=042|8=FIX.4.4|9=61|35=0|34=1024|49=QA3Ver4_PUB|52=20180813-23:00:00.938|56=TRAX|10=020|8=FIX.4.4|9=61|35=0|34=1025|49=QA3Ver4_PUB|52=20180813-23:00:31.923|56=TRAX|10=019|8=FIX.4.4|9=61|35=0|34=1026|49=QA3Ver4_PUB|52=20180813-23:01:01.927|56=TRAX|10=022|8=FIX.4.4|9=61|35=0|34=1027|49=QA3Ver4_PUB|52=20180813-23:01:32.932|56=TRAX|10=023|8=FIX.4.4|9=61|35=0|34=1028|49=QA3Ver4_PUB|52=20180813-23:02:03.744|56=TRAX|10=024|8=FIX.4.4|9=61|35=0|34=1029|49=QA3Ver4_PUB|52=20180813-23:02:33.746|56=TRAX|10=030|8=FIX.4.4|9=61|35=0|34=1030|49=QA3Ver4_PUB|52=20180813-23:03:03.926|56=TRAX|10=020|8=FIX.4.4|9=61|35=0|34=1031|49=QA3Ver4_PUB|52=20180813-23:03:34.922|56=TRAX|10=021|8=FIX.4.4|9=61|35=0|34=1032|49=QA3Ver4_PUB|52=20180813-23:04:04.936|56=TRAX|10=025|8=FIX.4.4|9=61|35=0|34=1033|49=QA3Ver4_PUB|52=20180813-23:04:35.929|56=TRAX|10=032|8=FIX.4.4|9=61|35=5|34=1034|49=QA3Ver4_PUB|52=20180813-23:05:00.776|56=TRAX|10=031|