8=FIX.4.4|9=91|35=A|34=1|49=T1Kauaiblk4|52=20201201-08:20:03.917|56=MA|98=0|108=90|95=8|96=3.0.0rc5|141=Y|10=030|8=FIX.4.4|9=56|35=0|34=2|49=T1Kauaiblk4|52=20201201-08:21:34.910|56=MA|10=055|8=FIX.4.4|9=640|35=E|34=3|49=T1Kauaiblk4|52=20201201-08:22:02.043|56=MA|66=MMAD-FIX44-ListID-011220-1216|394=2|68=5|73=5|11=FIX44-List-ClOrdID-1217|22=4|38=100000|48=US06051GEN51|54=1|55=[N/A/]|67=1|423=1|453=1|448=T1Kauaiblk4|447=C|452=11|11=FIX44-List-ClOrdID-1218|22=4|38=100000|48=US40434AAB52|54=1|55=[N/A]|67=2|11=FIX44-List-ClOrdID-1219|22=4|38=130000|48=US06738JYZ10|54=1|55=[N/A/]|67=1|453=1|448=T1Kauaiblk4|447=C|452=11|11=FIX44-List-ClOrdID-1220|22=4|38=250000|48=US95709TAH32|54=1|55=[N/A/]|67=1|453=1|448=T1Kauaiblk4|447=C|452=11|11=FIX44-List-ClOrdID-1221|22=4|38=350000|48=US29379VAW37|54=1|55=[N/A/]|67=1|453=1|448=T1Kauaiblk4|447=C|452=11|10=005|8=FIX.4.4|9=56|35=0|34=4|49=T1Kauaiblk4|52=20201201-08:23:32.912|56=MA|10=059|8=FIX.4.4|9=56|35=0|34=5|49=T1Kauaiblk4|52=20201201-08:25:02.914|56=MA|10=061|8=FIX.4.4|9=56|35=0|34=6|49=T1Kauaiblk4|52=20201201-08:26:32.916|56=MA|10=068|8=FIX.4.4|9=56|35=0|34=7|49=T1Kauaiblk4|52=20201201-08:28:02.917|56=MA|10=069|8=FIX.4.4|9=56|35=0|34=8|49=T1Kauaiblk4|52=20201201-08:29:32.918|56=MA|10=075|8=FIX.4.4|9=56|35=0|34=9|49=T1Kauaiblk4|52=20201201-08:31:02.919|56=MA|10=067|8=FIX.4.4|9=57|35=0|34=10|49=T1Kauaiblk4|52=20201201-08:32:32.920|56=MA|10=104|8=FIX.4.4|9=57|35=0|34=11|49=T1Kauaiblk4|52=20201201-08:34:02.921|56=MA|10=105|8=FIX.4.4|9=57|35=0|34=12|49=T1Kauaiblk4|52=20201201-08:35:32.921|56=MA|10=110|8=FIX.4.4|9=57|35=0|34=13|49=T1Kauaiblk4|52=20201201-08:37:02.923|56=MA|10=112|8=FIX.4.4|9=57|35=0|34=14|49=T1Kauaiblk4|52=20201201-08:38:32.923|56=MA|10=117|8=FIX.4.4|9=57|35=0|34=15|49=T1Kauaiblk4|52=20201201-08:40:02.924|56=MA|10=109|8=FIX.4.4|9=57|35=0|34=16|49=T1Kauaiblk4|52=20201201-08:41:32.925|56=MA|10=115|8=FIX.4.4|9=57|35=0|34=17|49=T1Kauaiblk4|52=20201201-08:43:02.926|56=MA|10=116|8=FIX.4.4|9=57|35=0|34=18|49=T1Kauaiblk4|52=20201201-08:44:32.927|56=MA|10=122|8=FIX.4.4|9=57|35=0|34=19|49=T1Kauaiblk4|52=20201201-08:46:02.928|56=MA|10=123|8=FIX.4.4|9=57|35=0|34=20|49=T1Kauaiblk4|52=20201201-08:47:32.929|56=MA|10=120|8=FIX.4.4|9=57|35=0|34=21|49=T1Kauaiblk4|52=20201201-08:49:02.930|56=MA|10=112|8=FIX.4.4|9=57|35=0|34=22|49=T1Kauaiblk4|52=20201201-08:50:32.930|56=MA|10=108|8=FIX.4.4|9=57|35=0|34=23|49=T1Kauaiblk4|52=20201201-08:52:02.931|56=MA|10=109|8=FIX.4.4|9=57|35=0|34=24|49=T1Kauaiblk4|52=20201201-08:53:32.931|56=MA|10=114|8=FIX.4.4|9=57|35=0|34=25|49=T1Kauaiblk4|52=20201201-08:55:02.932|56=MA|10=115|8=FIX.4.4|9=57|35=0|34=26|49=T1Kauaiblk4|52=20201201-08:56:32.932|56=MA|10=120|8=FIX.4.4|9=57|35=0|34=27|49=T1Kauaiblk4|52=20201201-08:58:02.933|56=MA|10=121|8=FIX.4.4|9=57|35=0|34=28|49=T1Kauaiblk4|52=20201201-08:59:32.935|56=MA|10=128|8=FIX.4.4|9=57|35=0|34=29|49=T1Kauaiblk4|52=20201201-09:01:03.934|56=MA|10=114|8=FIX.4.4|9=57|35=0|34=30|49=T1Kauaiblk4|52=20201201-09:02:33.935|56=MA|10=111|8=FIX.4.4|9=57|35=0|34=31|49=T1Kauaiblk4|52=20201201-09:04:03.936|56=MA|10=112|8=FIX.4.4|9=57|35=0|34=32|49=T1Kauaiblk4|52=20201201-09:05:34.937|56=MA|10=119|8=FIX.4.4|9=57|35=0|34=33|49=T1Kauaiblk4|52=20201201-09:07:04.937|56=MA|10=119|8=FIX.4.4|9=57|35=0|34=34|49=T1Kauaiblk4|52=20201201-09:08:34.937|56=MA|10=124|8=FIX.4.4|9=57|35=0|34=35|49=T1Kauaiblk4|52=20201201-09:10:04.937|56=MA|10=115|8=FIX.4.4|9=57|35=0|34=36|49=T1Kauaiblk4|52=20201201-09:11:34.937|56=MA|10=120|8=FIX.4.4|9=57|35=0|34=37|49=T1Kauaiblk4|52=20201201-09:13:04.938|56=MA|10=121|8=FIX.4.4|9=57|35=0|34=38|49=T1Kauaiblk4|52=20201201-09:14:34.938|56=MA|10=126|8=FIX.4.4|9=57|35=0|34=39|49=T1Kauaiblk4|52=20201201-09:16:04.938|56=MA|10=126|8=FIX.4.4|9=57|35=0|34=40|49=T1Kauaiblk4|52=20201201-09:17:34.938|56=MA|10=122|8=FIX.4.4|9=57|35=0|34=41|49=T1Kauaiblk4|52=20201201-09:19:04.940|56=MA|10=115|8=FIX.4.4|9=57|35=0|34=42|49=T1Kauaiblk4|52=20201201-09:20:34.940|56=MA|10=111|8=FIX.4.4|9=57|35=0|34=43|49=T1Kauaiblk4|52=20201201-09:22:04.941|56=MA|10=112|8=FIX.4.4|9=57|35=0|34=44|49=T1Kauaiblk4|52=20201201-09:23:35.940|56=MA|10=117|8=FIX.4.4|9=57|35=0|34=45|49=T1Kauaiblk4|52=20201201-09:25:05.941|56=MA|10=118|8=FIX.4.4|9=57|35=0|34=46|49=T1Kauaiblk4|52=20201201-09:26:35.941|56=MA|10=123|8=FIX.4.4|9=57|35=0|34=47|49=T1Kauaiblk4|52=20201201-09:28:05.942|56=MA|10=124|8=FIX.4.4|9=57|35=0|34=48|49=T1Kauaiblk4|52=20201201-09:29:36.941|56=MA|10=129|8=FIX.4.4|9=57|35=0|34=49|49=T1Kauaiblk4|52=20201201-09:31:06.941|56=MA|10=120|8=FIX.4.4|9=57|35=0|34=50|49=T1Kauaiblk4|52=20201201-09:32:36.943|56=MA|10=118|8=FIX.4.4|9=57|35=0|34=51|49=T1Kauaiblk4|52=20201201-09:34:07.941|56=MA|10=117|8=FIX.4.4|9=57|35=0|34=52|49=T1Kauaiblk4|52=20201201-09:35:37.942|56=MA|10=123|8=FIX.4.4|9=57|35=0|34=53|49=T1Kauaiblk4|52=20201201-09:37:07.943|56=MA|10=124|8=FIX.4.4|9=57|35=0|34=54|49=T1Kauaiblk4|52=20201201-09:38:37.943|56=MA|10=129|8=FIX.4.4|9=641|35=E|34=55|49=T1Kauaiblk4|52=20201201-09:40:05.021|56=MA|66=MMAD-FIX44-ListID-011220-1228|394=2|68=5|73=5|11=FIX44-List-ClOrdID-1229|22=4|38=100000|48=US06051GEN51|54=1|55=[N/A/]|67=1|423=1|453=1|448=T1Kauaiblk4|447=C|452=11|11=FIX44-List-ClOrdID-1230|22=4|38=100000|48=US40434AAB52|54=1|55=[N/A]|67=2|11=FIX44-List-ClOrdID-1231|22=4|38=130000|48=US06738JYZ10|54=1|55=[N/A/]|67=1|453=1|448=T1Kauaiblk4|447=C|452=11|11=FIX44-List-ClOrdID-1232|22=4|38=250000|48=US95709TAH32|54=1|55=[N/A/]|67=1|453=1|448=T1Kauaiblk4|447=C|452=11|11=FIX44-List-ClOrdID-1233|22=4|38=350000|48=US29379VAW37|54=1|55=[N/A/]|67=1|453=1|448=T1Kauaiblk4|447=C|452=11|10=061|8=FIX.4.4|9=57|35=0|34=56|49=T1Kauaiblk4|52=20201201-09:41:35.943|56=MA|10=123|8=FIX.4.4|9=57|35=0|34=57|49=T1Kauaiblk4|52=20201201-09:43:05.943|56=MA|10=123|8=FIX.4.4|9=57|35=0|34=58|49=T1Kauaiblk4|52=20201201-09:44:35.943|56=MA|10=128|8=FIX.4.4|9=57|35=0|34=59|49=T1Kauaiblk4|52=20201201-09:46:05.945|56=MA|10=130|8=FIX.4.4|9=57|35=0|34=60|49=T1Kauaiblk4|52=20201201-09:47:36.493|56=MA|10=125|8=FIX.4.4|9=57|35=0|34=61|49=T1Kauaiblk4|52=20201201-09:49:06.945|56=MA|10=127|8=FIX.4.4|9=57|35=0|34=62|49=T1Kauaiblk4|52=20201201-09:50:36.945|56=MA|10=123|8=FIX.4.4|9=57|35=0|34=63|49=T1Kauaiblk4|52=20201201-09:52:07.083|56=MA|10=117|8=FIX.4.4|9=57|35=0|34=64|49=T1Kauaiblk4|52=20201201-09:53:37.944|56=MA|10=128|8=FIX.4.4|9=57|35=0|34=65|49=T1Kauaiblk4|52=20201201-09:55:07.946|56=MA|10=130|8=FIX.4.4|9=57|35=0|34=66|49=T1Kauaiblk4|52=20201201-09:56:37.946|56=MA|10=135|8=FIX.4.4|9=57|35=0|34=67|49=T1Kauaiblk4|52=20201201-09:58:07.946|56=MA|10=135|8=FIX.4.4|9=57|35=0|34=68|49=T1Kauaiblk4|52=20201201-09:59:38.065|56=MA|10=133|8=FIX.4.4|9=57|35=0|34=69|49=T1Kauaiblk4|52=20201201-10:01:08.084|56=MA|10=111|8=FIX.4.4|9=57|35=0|34=70|49=T1Kauaiblk4|52=20201201-10:02:38.278|56=MA|10=112|8=FIX.4.4|9=57|35=0|34=71|49=T1Kauaiblk4|52=20201201-10:04:08.946|56=MA|10=114|8=FIX.4.4|9=57|35=0|34=72|49=T1Kauaiblk4|52=20201201-10:05:38.947|56=MA|10=120|8=FIX.4.4|9=57|35=0|34=73|49=T1Kauaiblk4|52=20201201-10:07:09.947|56=MA|10=121|8=FIX.4.4|9=57|35=0|34=74|49=T1Kauaiblk4|52=20201201-10:08:39.947|56=MA|10=126|8=FIX.4.4|9=57|35=0|34=75|49=T1Kauaiblk4|52=20201201-10:10:09.950|56=MA|10=111|8=FIX.4.4|9=57|35=0|34=76|49=T1Kauaiblk4|52=20201201-10:11:39.952|56=MA|10=118|8=FIX.4.4|9=57|35=0|34=77|49=T1Kauaiblk4|52=20201201-10:13:09.956|56=MA|10=122|8=FIX.4.4|9=57|35=0|34=78|49=T1Kauaiblk4|52=20201201-10:14:39.956|56=MA|10=127|8=FIX.4.4|9=57|35=0|34=79|49=T1Kauaiblk4|52=20201201-10:16:09.959|56=MA|10=130|8=FIX.4.4|9=57|35=0|34=80|49=T1Kauaiblk4|52=20201201-10:17:39.960|56=MA|10=118|8=FIX.4.4|9=57|35=0|34=81|49=T1Kauaiblk4|52=20201201-10:19:09.962|56=MA|10=120|8=FIX.4.4|9=57|35=0|34=82|49=T1Kauaiblk4|52=20201201-10:20:39.963|56=MA|10=117|8=FIX.4.4|9=57|35=0|34=83|49=T1Kauaiblk4|52=20201201-10:22:09.967|56=MA|10=121|8=FIX.4.4|9=57|35=0|34=84|49=T1Kauaiblk4|52=20201201-10:23:39.968|56=MA|10=127|8=FIX.4.4|9=57|35=0|34=85|49=T1Kauaiblk4|52=20201201-10:25:09.969|56=MA|10=128|8=FIX.4.4|9=57|35=0|34=86|49=T1Kauaiblk4|52=20201201-10:26:39.971|56=MA|10=126|8=FIX.4.4|9=57|35=0|34=87|49=T1Kauaiblk4|52=20201201-10:28:09.972|56=MA|10=127|8=FIX.4.4|9=57|35=0|34=88|49=T1Kauaiblk4|52=20201201-10:29:39.973|56=MA|10=133|8=FIX.4.4|9=57|35=0|34=89|49=T1Kauaiblk4|52=20201201-10:31:09.974|56=MA|10=125|8=FIX.4.4|9=57|35=0|34=90|49=T1Kauaiblk4|52=20201201-10:32:39.976|56=MA|10=123|8=FIX.4.4|9=641|35=E|34=91|49=T1Kauaiblk4|52=20201201-10:33:38.869|56=MA|66=MMAD-FIX44-ListID-011220-1276|394=2|68=5|73=5|11=FIX44-List-ClOrdID-1277|22=4|38=100000|48=US06051GEN51|54=1|55=[N/A/]|67=1|423=1|453=1|448=T1Kauaiblk4|447=C|452=11|11=FIX44-List-ClOrdID-1278|22=4|38=100000|48=US40434AAB52|54=1|55=[N/A]|67=2|11=FIX44-List-ClOrdID-1279|22=4|38=130000|48=US06738JYZ10|54=1|55=[N/A/]|67=1|453=1|448=T1Kauaiblk4|447=C|452=11|11=FIX44-List-ClOrdID-1280|22=4|38=250000|48=US95709TAH32|54=1|55=[N/A/]|67=1|453=1|448=T1Kauaiblk4|447=C|452=11|11=FIX44-List-ClOrdID-1281|22=4|38=350000|48=US29379VAW37|54=1|55=[N/A/]|67=1|453=1|448=T1Kauaiblk4|447=C|452=11|10=117|8=FIX.4.4|9=57|35=0|34=92|49=T1Kauaiblk4|52=20201201-10:35:08.978|56=MA|10=126|8=FIX.4.4|9=57|35=0|34=93|49=T1Kauaiblk4|52=20201201-10:36:38.979|56=MA|10=132|8=FIX.4.4|9=57|35=0|34=94|49=T1Kauaiblk4|52=20201201-10:38:08.980|56=MA|10=124|8=FIX.4.4|9=57|35=0|34=95|49=T1Kauaiblk4|52=20201201-10:39:38.981|56=MA|10=130|8=FIX.4.4|9=57|35=0|34=96|49=T1Kauaiblk4|52=20201201-10:41:08.982|56=MA|10=122|8=FIX.4.4|9=57|35=0|34=97|49=T1Kauaiblk4|52=20201201-10:42:38.983|56=MA|10=128|8=FIX.4.4|9=57|35=0|34=98|49=T1Kauaiblk4|52=20201201-10:44:08.984|56=MA|10=129|8=FIX.4.4|9=57|35=0|34=99|49=T1Kauaiblk4|52=20201201-10:45:38.985|56=MA|10=135|8=FIX.4.4|9=58|35=0|34=100|49=T1Kauaiblk4|52=20201201-10:47:08.986|56=MA|10=167|8=FIX.4.4|9=58|35=0|34=101|49=T1Kauaiblk4|52=20201201-10:48:38.986|56=MA|10=172|8=FIX.4.4|9=58|35=0|34=102|49=T1Kauaiblk4|52=20201201-10:50:08.987|56=MA|10=164|8=FIX.4.4|9=58|35=0|34=103|49=T1Kauaiblk4|52=20201201-10:51:38.988|56=MA|10=170|8=FIX.4.4|9=58|35=0|34=104|49=T1Kauaiblk4|52=20201201-10:53:08.989|56=MA|10=171|8=FIX.4.4|9=58|35=0|34=105|49=T1Kauaiblk4|52=20201201-10:54:38.989|56=MA|10=176|8=FIX.4.4|9=58|35=0|34=106|49=T1Kauaiblk4|52=20201201-10:56:08.991|56=MA|10=169|8=FIX.4.4|9=58|35=0|34=107|49=T1Kauaiblk4|52=20201201-10:57:38.991|56=MA|10=174|8=FIX.4.4|9=76|35=5|34=108|49=T1Kauaiblk4|52=20201201-10:57:40.992|56=MA|58=user requested|10=010|8=FIX.4.4|9=91|35=A|34=1|49=T1Kauaiblk4|52=20201201-11:42:41.936|56=MA|98=0|108=90|95=8|96=3.0.0rc5|141=Y|10=031|8=FIX.4.4|9=640|35=E|34=2|49=T1Kauaiblk4|52=20201201-11:42:44.706|56=MA|66=MMAD-FIX44-ListID-011220-1300|394=2|68=5|73=5|11=FIX44-List-ClOrdID-1301|22=4|38=100000|48=US06051GEN51|54=1|55=[N/A/]|67=1|423=1|453=1|448=T1Kauaiblk4|447=C|452=11|11=FIX44-List-ClOrdID-1302|22=4|38=100000|48=US40434AAB52|54=1|55=[N/A]|67=2|11=FIX44-List-ClOrdID-1303|22=4|38=130000|48=US06738JYZ10|54=1|55=[N/A/]|67=1|453=1|448=T1Kauaiblk4|447=C|452=11|11=FIX44-List-ClOrdID-1304|22=4|38=250000|48=US95709TAH32|54=1|55=[N/A/]|67=1|453=1|448=T1Kauaiblk4|447=C|452=11|11=FIX44-List-ClOrdID-1305|22=4|38=350000|48=US29379VAW37|54=1|55=[N/A/]|67=1|453=1|448=T1Kauaiblk4|447=C|452=11|10=250|8=FIX.4.4|9=56|35=0|34=3|49=T1Kauaiblk4|52=20201201-11:44:14.936|56=MA|10=061|8=FIX.4.4|9=56|35=0|34=4|49=T1Kauaiblk4|52=20201201-11:45:45.935|56=MA|10=066|8=FIX.4.4|9=640|35=E|34=5|49=T1Kauaiblk4|52=20201201-11:46:50.550|56=MA|66=MMAD-FIX44-ListID-011220-1312|394=2|68=5|73=5|11=FIX44-List-ClOrdID-1313|22=4|38=100000|48=US06051GEN51|54=1|55=[N/A/]|67=1|423=1|453=1|448=T1Kauaiblk4|447=C|452=11|11=FIX44-List-ClOrdID-1314|22=4|38=100000|48=US40434AAB52|54=1|55=[N/A]|67=2|11=FIX44-List-ClOrdID-1315|22=4|38=130000|48=US06738JYZ10|54=1|55=[N/A/]|67=1|453=1|448=T1Kauaiblk4|447=C|452=11|11=FIX44-List-ClOrdID-1316|22=4|38=250000|48=US95709TAH32|54=1|55=[N/A/]|67=1|453=1|448=T1Kauaiblk4|447=C|452=11|11=FIX44-List-ClOrdID-1317|22=4|38=350000|48=US29379VAW37|54=1|55=[N/A/]|67=1|453=1|448=T1Kauaiblk4|447=C|452=11|10=013|8=FIX.4.4|9=56|35=0|34=6|49=T1Kauaiblk4|52=20201201-11:48:20.937|56=MA|10=066|8=FIX.4.4|9=56|35=0|34=7|49=T1Kauaiblk4|52=20201201-11:49:50.938|56=MA|10=072|8=FIX.4.4|9=56|35=0|34=8|49=T1Kauaiblk4|52=20201201-11:51:20.938|56=MA|10=063|8=FIX.4.4|9=56|35=0|34=9|49=T1Kauaiblk4|52=20201201-11:52:51.937|56=MA|10=068|8=FIX.4.4|9=57|35=0|34=10|49=T1Kauaiblk4|52=20201201-11:54:21.937|56=MA|10=108|8=FIX.4.4|9=641|35=E|34=11|49=T1Kauaiblk4|52=20201201-11:54:53.806|56=MA|66=MMAD-FIX44-ListID-011220-1318|394=2|68=5|73=5|11=FIX44-List-ClOrdID-1319|22=4|38=100000|48=US06051GEN51|54=1|55=[N/A/]|67=1|423=1|453=1|448=T1Kauaiblk4|447=C|452=11|11=FIX44-List-ClOrdID-1320|22=4|38=100000|48=US40434AAB52|54=1|55=[N/A]|67=2|11=FIX44-List-ClOrdID-1321|22=4|38=130000|48=US06738JYZ10|54=1|55=[N/A/]|67=1|453=1|448=T1Kauaiblk4|447=C|452=11|11=FIX44-List-ClOrdID-1322|22=4|38=250000|48=US95709TAH32|54=1|55=[N/A/]|67=1|453=1|448=T1Kauaiblk4|447=C|452=11|11=FIX44-List-ClOrdID-1323|22=4|38=350000|48=US29379VAW37|54=1|55=[N/A/]|67=1|453=1|448=T1Kauaiblk4|447=C|452=11|10=065|8=FIX.4.4|9=57|35=0|34=12|49=T1Kauaiblk4|52=20201201-11:56:23.938|56=MA|10=115|8=FIX.4.4|9=57|35=0|34=13|49=T1Kauaiblk4|52=20201201-11:57:54.938|56=MA|10=121|8=FIX.4.4|9=57|35=0|34=14|49=T1Kauaiblk4|52=20201201-11:59:24.938|56=MA|10=121|8=FIX.4.4|9=57|35=0|34=15|49=T1Kauaiblk4|52=20201201-12:00:54.938|56=MA|10=112|8=FIX.4.4|9=57|35=0|34=16|49=T1Kauaiblk4|52=20201201-12:02:24.939|56=MA|10=113|8=FIX.4.4|9=57|35=0|34=17|49=T1Kauaiblk4|52=20201201-12:03:55.938|56=MA|10=118|8=FIX.4.4|9=57|35=0|34=18|49=T1Kauaiblk4|52=20201201-12:05:25.938|56=MA|10=118|8=FIX.4.4|9=57|35=0|34=19|49=T1Kauaiblk4|52=20201201-12:06:55.940|56=MA|10=116|8=FIX.4.4|9=57|35=0|34=20|49=T1Kauaiblk4|52=20201201-12:08:26.939|56=MA|10=116|8=FIX.4.4|9=57|35=0|34=21|49=T1Kauaiblk4|52=20201201-12:09:56.940|56=MA|10=113|8=FIX.4.4|9=57|35=0|34=22|49=T1Kauaiblk4|52=20201201-12:11:27.939|56=MA|10=113|8=FIX.4.4|9=57|35=0|34=23|49=T1Kauaiblk4|52=20201201-12:12:57.939|56=MA|10=118|8=FIX.4.4|9=57|35=0|34=24|49=T1Kauaiblk4|52=20201201-12:14:27.940|56=MA|10=110|8=FIX.4.4|9=57|35=0|34=25|49=T1Kauaiblk4|52=20201201-12:15:57.940|56=MA|10=115|8=FIX.4.4|9=57|35=0|34=26|49=T1Kauaiblk4|52=20201201-12:17:27.940|56=MA|10=115|8=FIX.4.4|9=57|35=0|34=27|49=T1Kauaiblk4|52=20201201-12:18:58.940|56=MA|10=121|8=FIX.4.4|9=57|35=0|34=28|49=T1Kauaiblk4|52=20201201-12:20:28.940|56=MA|10=112|8=FIX.4.4|9=57|35=0|34=29|49=T1Kauaiblk4|52=20201201-12:21:58.940|56=MA|10=117|8=FIX.4.4|9=57|35=0|34=30|49=T1Kauaiblk4|52=20201201-12:23:28.940|56=MA|10=108|8=FIX.4.4|9=57|35=0|34=31|49=T1Kauaiblk4|52=20201201-12:24:58.942|56=MA|10=115|8=FIX.4.4|9=57|35=0|34=32|49=T1Kauaiblk4|52=20201201-12:26:28.942|56=MA|10=115|8=FIX.4.4|9=57|35=0|34=33|49=T1Kauaiblk4|52=20201201-12:27:58.944|56=MA|10=122|8=FIX.4.4|9=57|35=0|34=34|49=T1Kauaiblk4|52=20201201-12:29:28.946|56=MA|10=124|8=FIX.4.4|9=57|35=0|34=35|49=T1Kauaiblk4|52=20201201-12:30:58.947|56=MA|10=121|8=FIX.4.4|9=57|35=0|34=36|49=T1Kauaiblk4|52=20201201-12:32:28.949|56=MA|10=123|8=FIX.4.4|9=57|35=0|34=37|49=T1Kauaiblk4|52=20201201-12:33:58.951|56=MA|10=121|8=FIX.4.4|9=57|35=0|34=38|49=T1Kauaiblk4|52=20201201-12:35:28.952|56=MA|10=122|8=FIX.4.4|9=57|35=0|34=39|49=T1Kauaiblk4|52=20201201-12:36:58.953|56=MA|10=128|8=FIX.4.4|9=57|35=0|34=40|49=T1Kauaiblk4|52=20201201-12:38:28.955|56=MA|10=121|8=FIX.4.4|9=57|35=0|34=41|49=T1Kauaiblk4|52=20201201-12:39:58.956|56=MA|10=127|8=FIX.4.4|9=57|35=0|34=42|49=T1Kauaiblk4|52=20201201-12:41:28.956|56=MA|10=118|8=FIX.4.4|9=57|35=0|34=43|49=T1Kauaiblk4|52=20201201-12:42:58.958|56=MA|10=125|8=FIX.4.4|9=57|35=0|34=44|49=T1Kauaiblk4|52=20201201-12:44:28.959|56=MA|10=126|8=FIX.4.4|9=57|35=0|34=45|49=T1Kauaiblk4|52=20201201-12:45:58.962|56=MA|10=125|8=FIX.4.4|9=57|35=0|34=46|49=T1Kauaiblk4|52=20201201-12:47:28.962|56=MA|10=125|8=FIX.4.4|9=57|35=0|34=47|49=T1Kauaiblk4|52=20201201-12:48:58.963|56=MA|10=131|8=FIX.4.4|9=57|35=0|34=48|49=T1Kauaiblk4|52=20201201-12:50:28.965|56=MA|10=124|8=FIX.4.4|9=57|35=0|34=49|49=T1Kauaiblk4|52=20201201-12:51:58.965|56=MA|10=129|8=FIX.4.4|9=57|35=0|34=50|49=T1Kauaiblk4|52=20201201-12:53:28.966|56=MA|10=121|8=FIX.4.4|9=57|35=0|34=51|49=T1Kauaiblk4|52=20201201-12:54:58.969|56=MA|10=129|8=FIX.4.4|9=57|35=0|34=52|49=T1Kauaiblk4|52=20201201-12:56:29.968|56=MA|10=129|8=FIX.4.4|9=57|35=0|34=53|49=T1Kauaiblk4|52=20201201-12:57:59.970|56=MA|10=127|8=FIX.4.4|9=57|35=0|34=54|49=T1Kauaiblk4|52=20201201-12:59:29.971|56=MA|10=128|8=FIX.4.4|9=57|35=0|34=55|49=T1Kauaiblk4|52=20201201-13:00:59.971|56=MA|10=119|8=FIX.4.4|9=57|35=0|34=56|49=T1Kauaiblk4|52=20201201-13:02:29.974|56=MA|10=122|8=FIX.4.4|9=57|35=0|34=57|49=T1Kauaiblk4|52=20201201-13:03:59.974|56=MA|10=127|8=FIX.4.4|9=57|35=0|34=58|49=T1Kauaiblk4|52=20201201-13:05:29.975|56=MA|10=128|8=FIX.4.4|9=57|35=0|34=59|49=T1Kauaiblk4|52=20201201-13:06:59.975|56=MA|10=133|8=FIX.4.4|9=57|35=0|34=60|49=T1Kauaiblk4|52=20201201-13:08:29.977|56=MA|10=126|8=FIX.4.4|9=57|35=0|34=61|49=T1Kauaiblk4|52=20201201-13:09:59.979|56=MA|10=133|8=FIX.4.4|9=57|35=0|34=62|49=T1Kauaiblk4|52=20201201-13:11:29.980|56=MA|10=116|8=FIX.4.4|9=57|35=0|34=63|49=T1Kauaiblk4|52=20201201-13:12:59.980|56=MA|10=121|8=FIX.4.4|9=57|35=0|34=64|49=T1Kauaiblk4|52=20201201-13:14:29.980|56=MA|10=121|8=FIX.4.4|9=57|35=0|34=65|49=T1Kauaiblk4|52=20201201-13:15:59.981|56=MA|10=127|8=FIX.4.4|9=57|35=0|34=66|49=T1Kauaiblk4|52=20201201-13:17:29.983|56=MA|10=129|8=FIX.4.4|9=57|35=0|34=67|49=T1Kauaiblk4|52=20201201-13:18:59.983|56=MA|10=134|8=FIX.4.4|9=57|35=0|34=68|49=T1Kauaiblk4|52=20201201-13:20:29.983|56=MA|10=125|8=FIX.4.4|9=57|35=0|34=69|49=T1Kauaiblk4|52=20201201-13:21:59.986|56=MA|10=133|8=FIX.4.4|9=57|35=0|34=70|49=T1Kauaiblk4|52=20201201-13:23:30.986|56=MA|10=116|8=FIX.4.4|9=57|35=0|34=71|49=T1Kauaiblk4|52=20201201-13:25:00.986|56=MA|10=116|8=FIX.4.4|9=57|35=0|34=72|49=T1Kauaiblk4|52=20201201-13:26:30.986|56=MA|10=121|8=FIX.4.4|9=57|35=0|34=73|49=T1Kauaiblk4|52=20201201-13:28:00.987|56=MA|10=122|8=FIX.4.4|9=57|35=0|34=74|49=T1Kauaiblk4|52=20201201-13:29:30.988|56=MA|10=128|8=FIX.4.4|9=57|35=0|34=75|49=T1Kauaiblk4|52=20201201-13:31:00.990|56=MA|10=112|8=FIX.4.4|9=57|35=0|34=76|49=T1Kauaiblk4|52=20201201-13:32:30.990|56=MA|10=117|8=FIX.4.4|9=57|35=0|34=77|49=T1Kauaiblk4|52=20201201-13:34:00.990|56=MA|10=117|8=FIX.4.4|9=57|35=0|34=78|49=T1Kauaiblk4|52=20201201-13:35:30.991|56=MA|10=123|8=FIX.4.4|9=57|35=0|34=79|49=T1Kauaiblk4|52=20201201-13:37:00.991|56=MA|10=123|8=FIX.4.4|9=57|35=0|34=80|49=T1Kauaiblk4|52=20201201-13:38:30.993|56=MA|10=121|8=FIX.4.4|9=57|35=0|34=81|49=T1Kauaiblk4|52=20201201-13:40:01.993|56=MA|10=113|8=FIX.4.4|9=57|35=0|34=82|49=T1Kauaiblk4|52=20201201-13:41:31.994|56=MA|10=119|8=FIX.4.4|9=57|35=0|34=83|49=T1Kauaiblk4|52=20201201-13:43:01.994|56=MA|10=119|8=FIX.4.4|9=57|35=0|34=84|49=T1Kauaiblk4|52=20201201-13:44:31.995|56=MA|10=125|8=FIX.4.4|9=57|35=0|34=85|49=T1Kauaiblk4|52=20201201-13:46:01.996|56=MA|10=126|8=FIX.4.4|9=57|35=0|34=86|49=T1Kauaiblk4|52=20201201-13:47:31.996|56=MA|10=131|8=FIX.4.4|9=57|35=0|34=87|49=T1Kauaiblk4|52=20201201-13:49:01.997|56=MA|10=132|8=FIX.4.4|9=57|35=0|34=88|49=T1Kauaiblk4|52=20201201-13:50:31.997|56=MA|10=128|8=FIX.4.4|9=57|35=0|34=89|49=T1Kauaiblk4|52=20201201-13:52:01.997|56=MA|10=128|8=FIX.4.4|9=57|35=0|34=90|49=T1Kauaiblk4|52=20201201-13:53:31.997|56=MA|10=124|8=FIX.4.4|9=57|35=0|34=91|49=T1Kauaiblk4|52=20201201-13:55:01.999|56=MA|10=126|8=FIX.4.4|9=57|35=0|34=92|49=T1Kauaiblk4|52=20201201-13:56:31.999|56=MA|10=131|8=FIX.4.4|9=57|35=0|34=93|49=T1Kauaiblk4|52=20201201-13:58:02.000|56=MA|10=105|8=FIX.4.4|9=57|35=0|34=94|49=T1Kauaiblk4|52=20201201-13:59:32.000|56=MA|10=110|8=FIX.4.4|9=57|35=0|34=95|49=T1Kauaiblk4|52=20201201-14:01:02.000|56=MA|10=096|8=FIX.4.4|9=57|35=0|34=96|49=T1Kauaiblk4|52=20201201-14:02:32.002|56=MA|10=103|8=FIX.4.4|9=57|35=0|34=97|49=T1Kauaiblk4|52=20201201-14:04:02.002|56=MA|10=103|8=FIX.4.4|9=57|35=0|34=98|49=T1Kauaiblk4|52=20201201-14:05:32.002|56=MA|10=108|8=FIX.4.4|9=57|35=0|34=99|49=T1Kauaiblk4|52=20201201-14:07:02.002|56=MA|10=108|8=FIX.4.4|9=58|35=0|34=100|49=T1Kauaiblk4|52=20201201-14:08:32.003|56=MA|10=145|8=FIX.4.4|9=58|35=0|34=101|49=T1Kauaiblk4|52=20201201-14:10:02.003|56=MA|10=136|8=FIX.4.4|9=58|35=0|34=102|49=T1Kauaiblk4|52=20201201-14:11:32.004|56=MA|10=142|8=FIX.4.4|9=58|35=0|34=103|49=T1Kauaiblk4|52=20201201-14:13:02.004|56=MA|10=142|8=FIX.4.4|9=58|35=0|34=104|49=T1Kauaiblk4|52=20201201-14:14:32.004|56=MA|10=147|8=FIX.4.4|9=58|35=0|34=105|49=T1Kauaiblk4|52=20201201-14:16:02.004|56=MA|10=147|8=FIX.4.4|9=58|35=0|34=106|49=T1Kauaiblk4|52=20201201-14:17:32.006|56=MA|10=154|8=FIX.4.4|9=58|35=0|34=107|49=T1Kauaiblk4|52=20201201-14:19:02.006|56=MA|10=154|8=FIX.4.4|9=58|35=0|34=108|49=T1Kauaiblk4|52=20201201-14:20:32.006|56=MA|10=150|8=FIX.4.4|9=58|35=0|34=109|49=T1Kauaiblk4|52=20201201-14:22:02.006|56=MA|10=150|8=FIX.4.4|9=58|35=0|34=110|49=T1Kauaiblk4|52=20201201-14:23:32.007|56=MA|10=147|8=FIX.4.4|9=58|35=0|34=111|49=T1Kauaiblk4|52=20201201-14:25:02.007|56=MA|10=147|8=FIX.4.4|9=58|35=0|34=112|49=T1Kauaiblk4|52=20201201-14:26:32.007|56=MA|10=152|8=FIX.4.4|9=58|35=0|34=113|49=T1Kauaiblk4|52=20201201-14:28:02.007|56=MA|10=152|8=FIX.4.4|9=58|35=0|34=114|49=T1Kauaiblk4|52=20201201-14:29:32.009|56=MA|10=159|8=FIX.4.4|9=58|35=0|34=115|49=T1Kauaiblk4|52=20201201-14:31:02.009|56=MA|10=150|8=FIX.4.4|9=58|35=0|34=116|49=T1Kauaiblk4|52=20201201-14:32:32.009|56=MA|10=155|8=FIX.4.4|9=58|35=0|34=117|49=T1Kauaiblk4|52=20201201-14:34:02.010|56=MA|10=147|8=FIX.4.4|9=58|35=0|34=118|49=T1Kauaiblk4|52=20201201-14:35:32.010|56=MA|10=152|8=FIX.4.4|9=58|35=0|34=119|49=T1Kauaiblk4|52=20201201-14:37:02.010|56=MA|10=152|8=FIX.4.4|9=58|35=0|34=120|49=T1Kauaiblk4|52=20201201-14:38:32.010|56=MA|10=148|8=FIX.4.4|9=58|35=0|34=121|49=T1Kauaiblk4|52=20201201-14:40:02.012|56=MA|10=141|8=FIX.4.4|9=58|35=0|34=122|49=T1Kauaiblk4|52=20201201-14:41:32.012|56=MA|10=146|8=FIX.4.4|9=58|35=0|34=123|49=T1Kauaiblk4|52=20201201-14:43:02.013|56=MA|10=147|8=FIX.4.4|9=58|35=0|34=124|49=T1Kauaiblk4|52=20201201-14:44:32.015|56=MA|10=154|8=FIX.4.4|9=58|35=0|34=125|49=T1Kauaiblk4|52=20201201-14:46:02.016|56=MA|10=155|8=FIX.4.4|9=58|35=0|34=126|49=T1Kauaiblk4|52=20201201-14:47:32.018|56=MA|10=162|8=FIX.4.4|9=58|35=0|34=127|49=T1Kauaiblk4|52=20201201-14:49:02.020|56=MA|10=155|8=FIX.4.4|9=58|35=0|34=128|49=T1Kauaiblk4|52=20201201-14:50:32.022|56=MA|10=153|8=FIX.4.4|9=58|35=0|34=129|49=T1Kauaiblk4|52=20201201-14:52:02.023|56=MA|10=154|8=FIX.4.4|9=58|35=0|34=130|49=T1Kauaiblk4|52=20201201-14:53:32.025|56=MA|10=152|8=FIX.4.4|9=58|35=0|34=131|49=T1Kauaiblk4|52=20201201-14:55:02.026|56=MA|10=153|8=FIX.4.4|9=58|35=0|34=132|49=T1Kauaiblk4|52=20201201-14:56:32.027|56=MA|10=159|8=FIX.4.4|9=58|35=0|34=133|49=T1Kauaiblk4|52=20201201-14:58:02.029|56=MA|10=161|8=FIX.4.4|9=58|35=0|34=134|49=T1Kauaiblk4|52=20201201-14:59:32.031|56=MA|10=159|8=FIX.4.4|9=58|35=0|34=135|49=T1Kauaiblk4|52=20201201-15:01:02.032|56=MA|10=146|8=FIX.4.4|9=58|35=0|34=136|49=T1Kauaiblk4|52=20201201-15:02:32.033|56=MA|10=152|8=FIX.4.4|9=58|35=0|34=137|49=T1Kauaiblk4|52=20201201-15:04:02.036|56=MA|10=155|8=FIX.4.4|9=58|35=0|34=138|49=T1Kauaiblk4|52=20201201-15:05:32.036|56=MA|10=160|8=FIX.4.4|9=58|35=0|34=139|49=T1Kauaiblk4|52=20201201-15:07:02.038|56=MA|10=162|8=FIX.4.4|9=58|35=0|34=140|49=T1Kauaiblk4|52=20201201-15:08:32.039|56=MA|10=159|8=FIX.4.4|9=58|35=0|34=141|49=T1Kauaiblk4|52=20201201-15:10:02.039|56=MA|10=150|8=FIX.4.4|9=58|35=0|34=142|49=T1Kauaiblk4|52=20201201-15:11:32.041|56=MA|10=148|8=FIX.4.4|9=58|35=0|34=143|49=T1Kauaiblk4|52=20201201-15:13:02.043|56=MA|10=150|8=FIX.4.4|9=58|35=0|34=144|49=T1Kauaiblk4|52=20201201-15:14:32.043|56=MA|10=155|8=FIX.4.4|9=58|35=0|34=145|49=T1Kauaiblk4|52=20201201-15:16:02.044|56=MA|10=156|8=FIX.4.4|9=58|35=0|34=146|49=T1Kauaiblk4|52=20201201-15:17:32.045|56=MA|10=162|8=FIX.4.4|9=58|35=0|34=147|49=T1Kauaiblk4|52=20201201-15:19:02.046|56=MA|10=163|8=FIX.4.4|9=58|35=0|34=148|49=T1Kauaiblk4|52=20201201-15:20:32.048|56=MA|10=161|8=FIX.4.4|9=58|35=0|34=149|49=T1Kauaiblk4|52=20201201-15:22:02.050|56=MA|10=154|8=FIX.4.4|9=58|35=0|34=150|49=T1Kauaiblk4|52=20201201-15:23:32.051|56=MA|10=151|8=FIX.4.4|9=58|35=0|34=151|49=T1Kauaiblk4|52=20201201-15:25:02.051|56=MA|10=151|8=FIX.4.4|9=58|35=0|34=152|49=T1Kauaiblk4|52=20201201-15:26:32.052|56=MA|10=157|8=FIX.4.4|9=58|35=0|34=153|49=T1Kauaiblk4|52=20201201-15:28:02.053|56=MA|10=158|8=FIX.4.4|9=58|35=0|34=154|49=T1Kauaiblk4|52=20201201-15:29:32.055|56=MA|10=165|8=FIX.4.4|9=58|35=0|34=155|49=T1Kauaiblk4|52=20201201-15:31:02.055|56=MA|10=156|8=FIX.4.4|9=58|35=0|34=156|49=T1Kauaiblk4|52=20201201-15:32:32.056|56=MA|10=162|8=FIX.4.4|9=58|35=0|34=157|49=T1Kauaiblk4|52=20201201-15:34:02.056|56=MA|10=162|8=FIX.4.4|9=58|35=0|34=158|49=T1Kauaiblk4|52=20201201-15:35:32.058|56=MA|10=169|8=FIX.4.4|9=58|35=0|34=159|49=T1Kauaiblk4|52=20201201-15:37:02.058|56=MA|10=169|8=FIX.4.4|9=58|35=0|34=160|49=T1Kauaiblk4|52=20201201-15:38:32.059|56=MA|10=166|8=FIX.4.4|9=58|35=0|34=161|49=T1Kauaiblk4|52=20201201-15:40:02.061|56=MA|10=150|8=FIX.4.4|9=58|35=0|34=162|49=T1Kauaiblk4|52=20201201-15:41:32.061|56=MA|10=155|8=FIX.4.4|9=58|35=0|34=163|49=T1Kauaiblk4|52=20201201-15:43:02.061|56=MA|10=155|8=FIX.4.4|9=58|35=0|34=164|49=T1Kauaiblk4|52=20201201-15:44:32.063|56=MA|10=162|8=FIX.4.4|9=58|35=0|34=165|49=T1Kauaiblk4|52=20201201-15:46:02.065|56=MA|10=164|8=FIX.4.4|9=58|35=0|34=166|49=T1Kauaiblk4|52=20201201-15:47:33.064|56=MA|10=169|8=FIX.4.4|9=58|35=0|34=167|49=T1Kauaiblk4|52=20201201-15:49:03.065|56=MA|10=170|8=FIX.4.4|9=58|35=0|34=168|49=T1Kauaiblk4|52=20201201-15:50:33.065|56=MA|10=166|8=FIX.4.4|9=58|35=0|34=169|49=T1Kauaiblk4|52=20201201-15:52:03.066|56=MA|10=167|8=FIX.4.4|9=58|35=0|34=170|49=T1Kauaiblk4|52=20201201-15:53:33.068|56=MA|10=165|8=FIX.4.4|9=58|35=0|34=171|49=T1Kauaiblk4|52=20201201-15:55:03.069|56=MA|10=166|8=FIX.4.4|9=58|35=0|34=172|49=T1Kauaiblk4|52=20201201-15:56:33.070|56=MA|10=163|8=FIX.4.4|9=58|35=0|34=173|49=T1Kauaiblk4|52=20201201-15:58:04.069|56=MA|10=172|8=FIX.4.4|9=58|35=0|34=174|49=T1Kauaiblk4|52=20201201-15:59:34.070|56=MA|10=169|8=FIX.4.4|9=58|35=0|34=175|49=T1Kauaiblk4|52=20201201-16:01:04.071|56=MA|10=156|8=FIX.4.4|9=58|35=0|34=176|49=T1Kauaiblk4|52=20201201-16:02:34.072|56=MA|10=162|8=FIX.4.4|9=58|35=0|34=177|49=T1Kauaiblk4|52=20201201-16:04:04.072|56=MA|10=162|8=FIX.4.4|9=58|35=0|34=178|49=T1Kauaiblk4|52=20201201-16:05:34.073|56=MA|10=168|8=FIX.4.4|9=58|35=0|34=179|49=T1Kauaiblk4|52=20201201-16:07:04.073|56=MA|10=168|8=FIX.4.4|9=58|35=0|34=180|49=T1Kauaiblk4|52=20201201-16:08:34.074|56=MA|10=165|8=FIX.4.4|9=58|35=0|34=181|49=T1Kauaiblk4|52=20201201-16:10:04.074|56=MA|10=156|8=FIX.4.4|9=58|35=0|34=182|49=T1Kauaiblk4|52=20201201-16:11:34.075|56=MA|10=162|8=FIX.4.4|9=58|35=0|34=183|49=T1Kauaiblk4|52=20201201-16:13:04.075|56=MA|10=162|8=FIX.4.4|9=58|35=0|34=184|49=T1Kauaiblk4|52=20201201-16:14:34.075|56=MA|10=167|8=FIX.4.4|9=58|35=0|34=185|49=T1Kauaiblk4|52=20201201-16:16:04.076|56=MA|10=168|8=FIX.4.4|9=58|35=0|34=186|49=T1Kauaiblk4|52=20201201-16:17:34.078|56=MA|10=175|8=FIX.4.4|9=58|35=0|34=187|49=T1Kauaiblk4|52=20201201-16:19:05.077|56=MA|10=175|8=FIX.4.4|9=58|35=0|34=188|49=T1Kauaiblk4|52=20201201-16:20:35.078|56=MA|10=172|8=FIX.4.4|9=58|35=0|34=189|49=T1Kauaiblk4|52=20201201-16:22:05.080|56=MA|10=165|8=FIX.4.4|9=58|35=0|34=190|49=T1Kauaiblk4|52=20201201-16:23:36.079|56=MA|10=170|8=FIX.4.4|9=58|35=0|34=191|49=T1Kauaiblk4|52=20201201-16:25:06.079|56=MA|10=170|8=FIX.4.4|9=58|35=0|34=192|49=T1Kauaiblk4|52=20201201-16:26:36.079|56=MA|10=175|8=FIX.4.4|9=58|35=0|34=193|49=T1Kauaiblk4|52=20201201-16:28:06.081|56=MA|10=168|8=FIX.4.4|9=58|35=0|34=194|49=T1Kauaiblk4|52=20201201-16:29:36.081|56=MA|10=173|8=FIX.4.4|9=58|35=0|34=195|49=T1Kauaiblk4|52=20201201-16:31:06.082|56=MA|10=165|8=FIX.4.4|9=58|35=0|34=196|49=T1Kauaiblk4|52=20201201-16:32:36.083|56=MA|10=171|8=FIX.4.4|9=58|35=0|34=197|49=T1Kauaiblk4|52=20201201-16:34:07.082|56=MA|10=171|8=FIX.4.4|9=58|35=0|34=198|49=T1Kauaiblk4|52=20201201-16:35:37.082|56=MA|10=176|8=FIX.4.4|9=58|35=0|34=199|49=T1Kauaiblk4|52=20201201-16:37:07.082|56=MA|10=176|8=FIX.4.4|9=58|35=0|34=200|49=T1Kauaiblk4|52=20201201-16:38:37.083|56=MA|10=164|8=FIX.4.4|9=58|35=0|34=201|49=T1Kauaiblk4|52=20201201-16:40:07.085|56=MA|10=157|8=FIX.4.4|9=58|35=0|34=202|49=T1Kauaiblk4|52=20201201-16:41:38.084|56=MA|10=162|8=FIX.4.4|9=58|35=0|34=203|49=T1Kauaiblk4|52=20201201-16:43:08.084|56=MA|10=162|8=FIX.4.4|9=58|35=0|34=204|49=T1Kauaiblk4|52=20201201-16:44:38.085|56=MA|10=168|8=FIX.4.4|9=58|35=0|34=205|49=T1Kauaiblk4|52=20201201-16:46:08.085|56=MA|10=168|8=FIX.4.4|9=58|35=0|34=206|49=T1Kauaiblk4|52=20201201-16:47:38.087|56=MA|10=175|8=FIX.4.4|9=58|35=0|34=207|49=T1Kauaiblk4|52=20201201-16:49:09.086|56=MA|10=175|8=FIX.4.4|9=58|35=0|34=208|49=T1Kauaiblk4|52=20201201-16:50:39.088|56=MA|10=173|8=FIX.4.4|9=58|35=0|34=209|49=T1Kauaiblk4|52=20201201-16:52:09.088|56=MA|10=173|8=FIX.4.4|9=58|35=0|34=210|49=T1Kauaiblk4|52=20201201-16:53:40.088|56=MA|10=161|8=FIX.4.4|9=58|35=0|34=211|49=T1Kauaiblk4|52=20201201-16:55:10.089|56=MA|10=162|8=FIX.4.4|9=58|35=0|34=212|49=T1Kauaiblk4|52=20201201-16:56:41.088|56=MA|10=167|8=FIX.4.4|9=58|35=0|34=213|49=T1Kauaiblk4|52=20201201-16:58:11.088|56=MA|10=167|8=FIX.4.4|9=58|35=0|34=214|49=T1Kauaiblk4|52=20201201-16:59:41.090|56=MA|10=165|8=FIX.4.4|9=58|35=0|34=215|49=T1Kauaiblk4|52=20201201-17:01:11.092|56=MA|10=153|8=FIX.4.4|9=58|35=0|34=216|49=T1Kauaiblk4|52=20201201-17:02:41.095|56=MA|10=161|8=FIX.4.4|9=58|35=0|34=217|49=T1Kauaiblk4|52=20201201-17:04:11.096|56=MA|10=162|8=FIX.4.4|9=58|35=0|34=218|49=T1Kauaiblk4|52=20201201-17:05:41.097|56=MA|10=168|8=FIX.4.4|9=58|35=0|34=219|49=T1Kauaiblk4|52=20201201-17:07:11.099|56=MA|10=170|8=FIX.4.4|9=58|35=0|34=220|49=T1Kauaiblk4|52=20201201-17:08:41.102|56=MA|10=151|8=FIX.4.4|9=58|35=0|34=221|49=T1Kauaiblk4|52=20201201-17:10:11.104|56=MA|10=144|8=FIX.4.4|9=58|35=0|34=222|49=T1Kauaiblk4|52=20201201-17:11:41.104|56=MA|10=149|8=FIX.4.4|9=58|35=0|34=223|49=T1Kauaiblk4|52=20201201-17:13:11.105|56=MA|10=150|8=FIX.4.4|9=58|35=0|34=224|49=T1Kauaiblk4|52=20201201-17:14:41.108|56=MA|10=158|8=FIX.4.4|9=58|35=0|34=225|49=T1Kauaiblk4|52=20201201-17:16:11.110|56=MA|10=151|8=FIX.4.4|9=58|35=0|34=226|49=T1Kauaiblk4|52=20201201-17:17:41.110|56=MA|10=156|8=FIX.4.4|9=58|35=0|34=227|49=T1Kauaiblk4|52=20201201-17:19:11.112|56=MA|10=158|8=FIX.4.4|9=58|35=0|34=228|49=T1Kauaiblk4|52=20201201-17:20:41.113|56=MA|10=155|8=FIX.4.4|9=58|35=0|34=229|49=T1Kauaiblk4|52=20201201-17:22:11.114|56=MA|10=156|8=FIX.4.4|9=58|35=0|34=230|49=T1Kauaiblk4|52=20201201-17:23:41.116|56=MA|10=154|8=FIX.4.4|9=58|35=0|34=231|49=T1Kauaiblk4|52=20201201-17:25:11.117|56=MA|10=155|8=FIX.4.4|9=58|35=0|34=232|49=T1Kauaiblk4|52=20201201-17:26:41.119|56=MA|10=162|8=FIX.4.4|9=58|35=0|34=233|49=T1Kauaiblk4|52=20201201-17:28:11.120|56=MA|10=154|8=FIX.4.4|9=58|35=0|34=234|49=T1Kauaiblk4|52=20201201-17:29:41.121|56=MA|10=160|8=FIX.4.4|9=58|35=0|34=235|49=T1Kauaiblk4|52=20201201-17:31:11.122|56=MA|10=152|8=FIX.4.4|9=58|35=0|34=236|49=T1Kauaiblk4|52=20201201-17:32:41.125|56=MA|10=160|8=FIX.4.4|9=58|35=0|34=237|49=T1Kauaiblk4|52=20201201-17:34:11.125|56=MA|10=160|8=FIX.4.4|9=58|35=0|34=238|49=T1Kauaiblk4|52=20201201-17:35:41.126|56=MA|10=166|8=FIX.4.4|9=58|35=0|34=239|49=T1Kauaiblk4|52=20201201-17:37:11.127|56=MA|10=167|8=FIX.4.4|9=58|35=0|34=240|49=T1Kauaiblk4|52=20201201-17:38:41.129|56=MA|10=165|8=FIX.4.4|9=58|35=0|34=241|49=T1Kauaiblk4|52=20201201-17:40:11.129|56=MA|10=156|8=FIX.4.4|9=58|35=0|34=242|49=T1Kauaiblk4|52=20201201-17:41:41.131|56=MA|10=154|8=FIX.4.4|9=58|35=0|34=243|49=T1Kauaiblk4|52=20201201-17:43:11.132|56=MA|10=155|8=FIX.4.4|9=58|35=0|34=244|49=T1Kauaiblk4|52=20201201-17:44:41.132|56=MA|10=160|8=FIX.4.4|9=58|35=0|34=245|49=T1Kauaiblk4|52=20201201-17:46:11.133|56=MA|10=161|8=FIX.4.4|9=58|35=0|34=246|49=T1Kauaiblk4|52=20201201-17:47:41.135|56=MA|10=168|8=FIX.4.4|9=58|35=0|34=247|49=T1Kauaiblk4|52=20201201-17:49:11.136|56=MA|10=169|8=FIX.4.4|9=58|35=0|34=248|49=T1Kauaiblk4|52=20201201-17:50:41.137|56=MA|10=166|8=FIX.4.4|9=58|35=0|34=249|49=T1Kauaiblk4|52=20201201-17:52:11.138|56=MA|10=167|8=FIX.4.4|9=58|35=0|34=250|49=T1Kauaiblk4|52=20201201-17:53:41.139|56=MA|10=164|8=FIX.4.4|9=58|35=0|34=251|49=T1Kauaiblk4|52=20201201-17:55:11.140|56=MA|10=156|8=FIX.4.4|9=58|35=0|34=252|49=T1Kauaiblk4|52=20201201-17:56:41.140|56=MA|10=161|8=FIX.4.4|9=58|35=0|34=253|49=T1Kauaiblk4|52=20201201-17:58:11.141|56=MA|10=162|8=FIX.4.4|9=58|35=0|34=254|49=T1Kauaiblk4|52=20201201-17:59:41.142|56=MA|10=168|8=FIX.4.4|9=91|35=A|34=1|49=T1Kauaiblk4|52=20201222-10:54:39.107|56=MA|98=0|108=90|95=8|96=3.0.0rc5|141=Y|10=033|8=FIX.4.4|9=765|35=E|34=2|49=T1Kauaiblk4|52=20201222-10:54:59.975|56=MA|66=MMAD-FIX44-ListID-221220-1234|394=2|68=5|73=5|11=FIX44-List-ClOrdID-1235|22=4|38=100000|44=100|48=US06051GEN51|54=1|55=[N/A/]|63=3|67=1|423=1|29726=100.25|453=1|448=T1Kauaiblk4|447=C|452=11|11=FIX44-List-ClOrdID-1236|22=4|38=100000|44=101|48=US40434AAB52|54=1|55=[N/A]|63=3|67=2|29726=101.25|11=FIX44-List-ClOrdID-1237|22=4|38=130000|44=102|48=US06738JYZ10|54=1|55=[N/A/]|63=3|67=1|29726=102.25|453=1|448=T1Kauaiblk4|447=C|452=11|11=FIX44-List-ClOrdID-1238|22=4|38=250000|44=103|48=US95709TAH32|54=1|55=[N/A/]|63=3|67=1|29726=103.25|453=1|448=T1Kauaiblk4|447=C|452=11|11=FIX44-List-ClOrdID-1239|22=4|38=350000|44=104|48=US29379VAW37|54=1|55=[N/A/]|63=3|67=1|29726=104.25|453=1|448=T1Kauaiblk4|447=C|452=11|10=203|8=FIX.4.4|9=56|35=0|34=3|49=T1Kauaiblk4|52=20201222-10:56:30.112|56=MA|10=050|8=FIX.4.4|9=56|35=0|34=4|49=T1Kauaiblk4|52=20201222-10:58:00.115|56=MA|10=053|8=FIX.4.4|9=56|35=0|34=5|49=T1Kauaiblk4|52=20201222-10:59:30.118|56=MA|10=061|8=FIX.4.4|9=56|35=0|34=6|49=T1Kauaiblk4|52=20201222-11:01:00.122|56=MA|10=042|8=FIX.4.4|9=56|35=0|34=7|49=T1Kauaiblk4|52=20201222-11:02:30.126|56=MA|10=051|8=FIX.4.4|9=56|35=0|34=8|49=T1Kauaiblk4|52=20201222-11:04:00.129|56=MA|10=054|8=FIX.4.4|9=56|35=0|34=9|49=T1Kauaiblk4|52=20201222-11:05:30.132|56=MA|10=053|8=FIX.4.4|9=57|35=0|34=10|49=T1Kauaiblk4|52=20201222-11:07:00.137|56=MA|10=098|8=FIX.4.4|9=57|35=0|34=11|49=T1Kauaiblk4|52=20201222-11:08:30.140|56=MA|10=097|8=FIX.4.4|9=79|35=5|34=12|49=T1Kauaiblk4|52=20201222-11:08:59.141|56=MA|58=Session Tab Closed|10=183|8=FIX.4.4|9=91|35=A|34=1|49=T1Kauaiblk4|52=20210114-17:05:00.539|56=MA|98=0|108=90|95=8|96=3.0.0rc5|141=Y|10=033|8=FIX.4.4|9=91|35=A|34=1|49=T1Kauaiblk4|52=20210119-09:07:04.806|56=MA|98=0|108=90|95=8|96=3.0.0rc5|141=Y|10=042|8=FIX.4.4|9=699|35=E|34=2|49=T1Kauaiblk4|52=20210119-09:07:20.743|56=MA|66=ListID-190121-1228|394=2|68=5|73=5|11=ClOrdID-1229|22=4|38=100000|44=100|48=US06051GEN51|54=1|55=[N/A/]|63=3|67=1|423=1|29726=100.25|453=1|448=T1Kauaiblk4|447=C|452=11|11=ClOrdID-1230|22=4|38=100000|44=101|48=US40434AAB52|54=1|55=[N/A]|63=3|67=2|29726=101.25|11=ClOrdID-1231|22=4|38=130000|44=102|48=US06738JYZ10|54=1|55=[N/A/]|63=3|67=1|29726=102.25|453=1|448=T1Kauaiblk4|447=C|452=11|11=ClOrdID-1232|22=4|38=250000|44=103|48=US95709TAH32|54=1|55=[N/A/]|63=3|67=1|29726=103.25|453=1|448=T1Kauaiblk4|447=C|452=11|11=ClOrdID-1233|22=4|38=350000|44=104|48=US29379VAW37|54=1|55=[N/A/]|63=3|67=1|29726=104.25|453=1|448=T1Kauaiblk4|447=C|452=11|10=155|8=FIX.4.4|9=699|35=E|34=3|49=T1Kauaiblk4|52=20210119-09:08:15.516|56=MA|66=ListID-190121-1234|394=2|68=5|73=5|11=ClOrdID-1235|22=4|38=100000|44=100|48=US06051GEN51|54=1|55=[N/A/]|63=3|67=1|423=1|29726=100.25|453=1|448=T1Kauaiblk4|447=C|452=11|11=ClOrdID-1236|22=4|38=100000|44=101|48=US40434AAB52|54=1|55=[N/A]|63=3|67=2|29726=101.25|11=ClOrdID-1237|22=4|38=130000|44=102|48=US06738JYZ10|54=1|55=[N/A/]|63=3|67=1|29726=102.25|453=1|448=T1Kauaiblk4|447=C|452=11|11=ClOrdID-1238|22=4|38=250000|44=103|48=US95709TAH32|54=1|55=[N/A/]|63=3|67=1|29726=103.25|453=1|448=T1Kauaiblk4|447=C|452=11|11=ClOrdID-1239|22=4|38=350000|44=104|48=US29379VAW37|54=1|55=[N/A/]|63=3|67=1|29726=104.25|453=1|448=T1Kauaiblk4|447=C|452=11|10=177|8=FIX.4.4|9=699|35=E|34=4|49=T1Kauaiblk4|52=20210119-09:09:12.370|56=MA|66=ListID-190121-1240|394=2|68=5|73=5|11=ClOrdID-1241|22=4|38=100000|44=100|48=US06051GEN51|54=1|55=[N/A/]|63=3|67=1|423=1|29726=100.25|453=1|448=T1Kauaiblk4|447=C|452=11|11=ClOrdID-1242|22=4|38=100000|44=101|48=US40434AAB52|54=1|55=[N/A]|63=3|67=2|29726=101.25|11=ClOrdID-1243|22=4|38=130000|44=102|48=US06738JYZ10|54=1|55=[N/A/]|63=3|67=1|29726=102.25|453=1|448=T1Kauaiblk4|447=C|452=11|11=ClOrdID-1244|22=4|38=250000|44=103|48=US95709TAH32|54=1|55=[N/A/]|63=3|67=1|29726=103.25|453=1|448=T1Kauaiblk4|447=C|452=11|11=ClOrdID-1245|22=4|38=350000|44=104|48=US29379VAW37|54=1|55=[N/A/]|63=3|67=1|29726=104.25|453=1|448=T1Kauaiblk4|447=C|452=11|10=156|8=FIX.4.4|9=699|35=E|34=5|49=T1Kauaiblk4|52=20210119-09:09:24.962|56=MA|66=ListID-190121-1246|394=2|68=5|73=5|11=ClOrdID-1247|22=4|38=100000|44=100|48=US06051GEN51|54=1|55=[N/A/]|63=3|67=1|423=1|29726=100.25|453=1|448=T1Kauaiblk4|447=C|452=11|11=ClOrdID-1248|22=4|38=100000|44=101|48=US40434AAB52|54=1|55=[N/A]|63=3|67=2|29726=101.25|11=ClOrdID-1249|22=4|38=130000|44=102|48=US06738JYZ10|54=1|55=[N/A/]|63=3|67=1|29726=102.25|453=1|448=T1Kauaiblk4|447=C|452=11|11=ClOrdID-1250|22=4|38=250000|44=103|48=US95709TAH32|54=1|55=[N/A/]|63=3|67=1|29726=103.25|453=1|448=T1Kauaiblk4|447=C|452=11|11=ClOrdID-1251|22=4|38=350000|44=104|48=US29379VAW37|54=1|55=[N/A/]|63=3|67=1|29726=104.25|453=1|448=T1Kauaiblk4|447=C|452=11|10=185|8=FIX.4.4|9=699|35=E|34=6|49=T1Kauaiblk4|52=20210119-09:09:30.559|56=MA|66=ListID-190121-1252|394=2|68=5|73=5|11=ClOrdID-1253|22=4|38=100000|44=100|48=US06051GEN51|54=1|55=[N/A/]|63=3|67=1|423=1|29726=100.25|453=1|448=T1Kauaiblk4|447=C|452=11|11=ClOrdID-1254|22=4|38=100000|44=101|48=US40434AAB52|54=1|55=[N/A]|63=3|67=2|29726=101.25|11=ClOrdID-1255|22=4|38=130000|44=102|48=US06738JYZ10|54=1|55=[N/A/]|63=3|67=1|29726=102.25|453=1|448=T1Kauaiblk4|447=C|452=11|11=ClOrdID-1256|22=4|38=250000|44=103|48=US95709TAH32|54=1|55=[N/A/]|63=3|67=1|29726=103.25|453=1|448=T1Kauaiblk4|447=C|452=11|11=ClOrdID-1257|22=4|38=350000|44=104|48=US29379VAW37|54=1|55=[N/A/]|63=3|67=1|29726=104.25|453=1|448=T1Kauaiblk4|447=C|452=11|10=185|8=FIX.4.4|9=56|35=0|34=7|49=T1Kauaiblk4|52=20210119-09:11:00.806|56=MA|10=065|8=FIX.4.4|9=56|35=0|34=8|49=T1Kauaiblk4|52=20210119-09:12:30.808|56=MA|10=072|8=FIX.4.4|9=56|35=0|34=9|49=T1Kauaiblk4|52=20210119-09:14:01.808|56=MA|10=073|8=FIX.4.4|9=57|35=0|34=10|49=T1Kauaiblk4|52=20210119-09:15:31.808|56=MA|10=118|8=FIX.4.4|9=57|35=0|34=11|49=T1Kauaiblk4|52=20210119-09:17:02.807|56=MA|10=118|8=FIX.4.4|9=57|35=5|34=12|49=T1Kauaiblk4|52=20210119-09:18:32.809|56=MA|10=130|8=FIX.4.4|9=91|35=A|34=1|49=T1Kauaiblk4|52=20210120-18:24:24.420|56=MA|98=0|108=90|95=8|96=3.0.0rc5|141=Y|10=027|8=FIX.4.4|9=56|35=0|34=2|49=T1Kauaiblk4|52=20210120-18:25:55.413|56=MA|10=061|8=FIX.4.4|9=56|35=0|34=3|49=T1Kauaiblk4|52=20210120-18:27:25.601|56=MA|10=060|8=FIX.4.4|9=91|35=A|34=1|49=T1Kauaiblk4|52=20210120-19:00:26.477|56=MA|98=0|108=90|95=8|96=3.0.0rc5|141=Y|10=036|8=FIX.4.4|9=2117|35=E|34=2|49=T1Kauaiblk4|52=20210120-19:01:14.517|56=MA|66=ListID-200121-1222|394=2|68=20|73=20|11=ClOrdID-1223|22=4|38=100000|48=US06051GEN51|54=1|55=[N/A/]|67=1|423=1|453=1|448=T1Kauaiblk4|447=C|452=11|11=ClOrdID-1224|22=4|38=100000|48=US40434AAB52|54=1|55=[N/A]|67=2|11=ClOrdID-1225|22=4|38=130000|48=US06738JYZ10|54=1|55=[N/A/]|67=3|453=1|448=T1Kauaiblk4|447=C|452=11|11=ClOrdID-1226|22=4|38=250000|48=US95709TAH32|54=1|55=[N/A/]|67=4|453=1|448=T1Kauaiblk4|447=C|452=11|11=ClOrdID-1227|22=4|38=350000|48=US29379VAW37|54=1|55=[N/A/]|67=5|453=1|448=T1Kauaiblk4|447=C|452=11|11=ClOrdID-1228|22=4|38=350000|48=US48121ECC49|54=1|55=[N/A/]|67=6|453=1|448=T1Kauaiblk4|447=C|452=11|11=ClOrdID-1229|22=4|38=350000|48=US983024AL46|54=1|55=[N/A/]|67=7|453=1|448=T1Kauaiblk4|447=C|452=11|11=ClOrdID-1230|22=4|38=350000|48=US61166WAE12|54=1|55=[N/A/]|67=8|453=1|448=T1Kauaiblk4|447=C|452=11|11=ClOrdID-1231|22=4|38=350000|48=US000828JAM09|54=1|55=[N/A/]|67=9|453=1|448=T1Kauaiblk4|447=C|452=11|11=ClOrdID-1232|22=4|38=350000|48=US62630CAR25|54=1|55=[N/A/]|67=10|453=1|448=T1Kauaiblk4|447=C|452=11|11=ClOrdID-1233|22=4|38=350000|48=US05379BAK35|54=1|55=[N/A/]|67=11|453=1|448=T1Kauaiblk4|447=C|452=11|11=ClOrdID-1234|22=4|38=350000|48=US368710AC32|54=1|55=[N/A/]|67=12|453=1|448=T1Kauaiblk4|447=C|452=11|11=ClOrdID-1235|22=4|38=350000|48=XS1186833239|54=1|55=[N/A/]|67=13|453=1|448=T1Kauaiblk4|447=C|452=11|11=ClOrdID-1236|22=4|38=350000|48=US842400FC28|54=1|55=[N/A/]|67=14|453=1|448=T1Kauaiblk4|447=C|452=11|11=ClOrdID-1237|22=4|38=350000|48=US927804FA70|54=1|55=[N/A/]|67=15|453=1|448=T1Kauaiblk4|447=C|452=11|11=ClOrdID-1238|22=4|38=350000|48=US472319AC60|54=1|55=[N/A/]|67=16|453=1|448=T1Kauaiblk4|447=C|452=11|11=ClOrdID-1239|22=4|38=350000|48=US93884PDN78|54=1|55=[N/A/]|67=17|453=1|448=T1Kauaiblk4|447=C|452=11|11=ClOrdID-1240|22=4|38=350000|48=US06050XWS88|54=1|55=[N/A/]|67=8|453=1|448=T1Kauaiblk4|447=C|452=11|11=ClOrdID-1241|22=4|38=350000|48=US87425EAJ29|54=1|55=[N/A/]|67=19|453=1|448=T1Kauaiblk4|447=C|452=11|11=ClOrdID-1242|22=4|38=350000|48=US816300AG24|54=1|55=[N/A/]|67=20|453=1|448=T1Kauaiblk4|447=C|452=11|10=062|8=FIX.4.4|9=56|35=0|34=3|49=T1Kauaiblk4|52=20210120-19:02:45.418|56=MA|10=062|8=FIX.4.4|9=56|35=0|34=4|49=T1Kauaiblk4|52=20210120-19:04:15.419|56=MA|10=063|8=FIX.4.4|9=56|35=0|34=5|49=T1Kauaiblk4|52=20210120-19:05:45.421|56=MA|10=061|8=FIX.4.4|9=56|35=0|34=6|49=T1Kauaiblk4|52=20210120-19:07:15.424|56=MA|10=064|8=FIX.4.4|9=56|35=0|34=7|49=T1Kauaiblk4|52=20210120-19:08:45.427|56=MA|10=072|8=FIX.4.4|9=56|35=0|34=8|49=T1Kauaiblk4|52=20210120-19:10:15.430|56=MA|10=057|8=FIX.4.4|9=56|35=0|34=9|49=T1Kauaiblk4|52=20210120-19:11:45.434|56=MA|10=066|8=FIX.4.4|9=57|35=0|34=10|49=T1Kauaiblk4|52=20210120-19:13:15.436|56=MA|10=108|8=FIX.4.4|9=57|35=0|34=11|49=T1Kauaiblk4|52=20210120-19:14:45.438|56=MA|10=115|8=FIX.4.4|9=57|35=0|34=12|49=T1Kauaiblk4|52=20210120-19:16:15.441|56=MA|10=109|8=FIX.4.4|9=57|35=0|34=13|49=T1Kauaiblk4|52=20210120-19:17:45.444|56=MA|10=117|8=FIX.4.4|9=57|35=0|34=14|49=T1Kauaiblk4|52=20210120-19:19:15.446|56=MA|10=119|8=FIX.4.4|9=57|35=0|34=15|49=T1Kauaiblk4|52=20210120-19:20:45.448|56=MA|10=117|8=FIX.4.4|9=57|35=0|34=16|49=T1Kauaiblk4|52=20210120-19:22:15.451|56=MA|10=111|8=FIX.4.4|9=57|35=0|34=17|49=T1Kauaiblk4|52=20210120-19:23:45.454|56=MA|10=119|8=FIX.4.4|9=57|35=0|34=18|49=T1Kauaiblk4|52=20210120-19:25:15.457|56=MA|10=122|8=FIX.4.4|9=57|35=0|34=19|49=T1Kauaiblk4|52=20210120-19:26:45.458|56=MA|10=128|8=FIX.4.4|9=57|35=0|34=20|49=T1Kauaiblk4|52=20210120-19:28:15.461|56=MA|10=113|8=FIX.4.4|9=57|35=0|34=21|49=T1Kauaiblk4|52=20210120-19:29:45.463|56=MA|10=120|8=FIX.4.4|9=57|35=0|34=22|49=T1Kauaiblk4|52=20210120-19:31:15.467|56=MA|10=115|8=FIX.4.4|9=57|35=0|34=23|49=T1Kauaiblk4|52=20210120-19:32:45.468|56=MA|10=121|8=FIX.4.4|9=57|35=0|34=24|49=T1Kauaiblk4|52=20210120-19:34:15.471|56=MA|10=115|8=FIX.4.4|9=57|35=0|34=25|49=T1Kauaiblk4|52=20210120-19:35:45.472|56=MA|10=121|8=FIX.4.4|9=57|35=0|34=26|49=T1Kauaiblk4|52=20210120-19:37:15.474|56=MA|10=123|8=FIX.4.4|9=2118|35=E|34=27|49=T1Kauaiblk4|52=20210120-19:38:19.902|56=MA|66=ListID-200121-1243|394=2|68=20|73=20|11=ClOrdID-1244|22=4|38=100000|48=US06051GEN51|54=1|55=[N/A/]|67=1|423=1|453=1|448=T1Kauaiblk4|447=C|452=11|11=ClOrdID-1245|22=4|38=100000|48=US40434AAB52|54=1|55=[N/A]|67=2|11=ClOrdID-1246|22=4|38=130000|48=US06738JYZ10|54=1|55=[N/A/]|67=3|453=1|448=T1Kauaiblk4|447=C|452=11|11=ClOrdID-1247|22=4|38=250000|48=US95709TAH32|54=1|55=[N/A/]|67=4|453=1|448=T1Kauaiblk4|447=C|452=11|11=ClOrdID-1248|22=4|38=350000|48=US29379VAW37|54=1|55=[N/A/]|67=5|453=1|448=T1Kauaiblk4|447=C|452=11|11=ClOrdID-1249|22=4|38=350000|48=US48121ECC49|54=1|55=[N/A/]|67=6|453=1|448=T1Kauaiblk4|447=C|452=11|11=ClOrdID-1250|22=4|38=350000|48=US983024AL46|54=1|55=[N/A/]|67=7|453=1|448=T1Kauaiblk4|447=C|452=11|11=ClOrdID-1251|22=4|38=350000|48=US61166WAE12|54=1|55=[N/A/]|67=8|453=1|448=T1Kauaiblk4|447=C|452=11|11=ClOrdID-1252|22=4|38=350000|48=US000828JAM09|54=1|55=[N/A/]|67=9|453=1|448=T1Kauaiblk4|447=C|452=11|11=ClOrdID-1253|22=4|38=350000|48=US62630CAR25|54=1|55=[N/A/]|67=10|453=1|448=T1Kauaiblk4|447=C|452=11|11=ClOrdID-1254|22=4|38=350000|48=US05379BAK35|54=1|55=[N/A/]|67=11|453=1|448=T1Kauaiblk4|447=C|452=11|11=ClOrdID-1255|22=4|38=350000|48=US368710AC32|54=1|55=[N/A/]|67=12|453=1|448=T1Kauaiblk4|447=C|452=11|11=ClOrdID-1256|22=4|38=350000|48=XS1186833239|54=1|55=[N/A/]|67=13|453=1|448=T1Kauaiblk4|447=C|452=11|11=ClOrdID-1257|22=4|38=350000|48=US842400FC28|54=1|55=[N/A/]|67=14|453=1|448=T1Kauaiblk4|447=C|452=11|11=ClOrdID-1258|22=4|38=350000|48=US927804FA70|54=1|55=[N/A/]|67=15|453=1|448=T1Kauaiblk4|447=C|452=11|11=ClOrdID-1259|22=4|38=350000|48=US472319AC60|54=1|55=[N/A/]|67=16|453=1|448=T1Kauaiblk4|447=C|452=11|11=ClOrdID-1260|22=4|38=350000|48=US93884PDN78|54=1|55=[N/A/]|67=17|453=1|448=T1Kauaiblk4|447=C|452=11|11=ClOrdID-1261|22=4|38=350000|48=US06050XWS88|54=1|55=[N/A/]|67=8|453=1|448=T1Kauaiblk4|447=C|452=11|11=ClOrdID-1262|22=4|38=350000|48=US87425EAJ29|54=1|55=[N/A/]|67=19|453=1|448=T1Kauaiblk4|447=C|452=11|11=ClOrdID-1263|22=4|38=350000|48=US816300AG24|54=1|55=[N/A/]|67=20|453=1|448=T1Kauaiblk4|447=C|452=11|10=176|8=FIX.4.4|9=57|35=0|34=28|49=T1Kauaiblk4|52=20210120-19:39:50.479|56=MA|10=131|8=FIX.4.4|9=2118|35=E|34=29|49=T1Kauaiblk4|52=20210120-19:40:11.813|56=MA|66=ListID-200121-1264|394=2|68=20|73=20|11=ClOrdID-1265|22=4|38=100000|48=US06051GEN51|54=1|55=[N/A/]|67=1|423=1|453=1|448=T1Kauaiblk4|447=C|452=11|11=ClOrdID-1266|22=4|38=100000|48=US40434AAB52|54=1|55=[N/A]|67=2|11=ClOrdID-1267|22=4|38=130000|48=US06738JYZ10|54=1|55=[N/A/]|67=3|453=1|448=T1Kauaiblk4|447=C|452=11|11=ClOrdID-1268|22=4|38=250000|48=US95709TAH32|54=1|55=[N/A/]|67=4|453=1|448=T1Kauaiblk4|447=C|452=11|11=ClOrdID-1269|22=4|38=350000|48=US29379VAW37|54=1|55=[N/A/]|67=5|453=1|448=T1Kauaiblk4|447=C|452=11|11=ClOrdID-1270|22=4|38=350000|48=US48121ECC49|54=1|55=[N/A/]|67=6|453=1|448=T1Kauaiblk4|447=C|452=11|11=ClOrdID-1271|22=4|38=350000|48=US983024AL46|54=1|55=[N/A/]|67=7|453=1|448=T1Kauaiblk4|447=C|452=11|11=ClOrdID-1272|22=4|38=350000|48=US61166WAE12|54=1|55=[N/A/]|67=8|453=1|448=T1Kauaiblk4|447=C|452=11|11=ClOrdID-1273|22=4|38=350000|48=US000828JAM09|54=1|55=[N/A/]|67=9|453=1|448=T1Kauaiblk4|447=C|452=11|11=ClOrdID-1274|22=4|38=350000|48=US62630CAR25|54=1|55=[N/A/]|67=10|453=1|448=T1Kauaiblk4|447=C|452=11|11=ClOrdID-1275|22=4|38=350000|48=US05379BAK35|54=1|55=[N/A/]|67=11|453=1|448=T1Kauaiblk4|447=C|452=11|11=ClOrdID-1276|22=4|38=350000|48=US368710AC32|54=1|55=[N/A/]|67=12|453=1|448=T1Kauaiblk4|447=C|452=11|11=ClOrdID-1277|22=4|38=350000|48=XS1186833239|54=1|55=[N/A/]|67=13|453=1|448=T1Kauaiblk4|447=C|452=11|11=ClOrdID-1278|22=4|38=350000|48=US842400FC28|54=1|55=[N/A/]|67=14|453=1|448=T1Kauaiblk4|447=C|452=11|11=ClOrdID-1279|22=4|38=350000|48=US927804FA70|54=1|55=[N/A/]|67=15|453=1|448=T1Kauaiblk4|447=C|452=11|11=ClOrdID-1280|22=4|38=350000|48=US472319AC60|54=1|55=[N/A/]|67=16|453=1|448=T1Kauaiblk4|447=C|452=11|11=ClOrdID-1281|22=4|38=350000|48=US93884PDN78|54=1|55=[N/A/]|67=17|453=1|448=T1Kauaiblk4|447=C|452=11|11=ClOrdID-1282|22=4|38=350000|48=US06050XWS88|54=1|55=[N/A/]|67=8|453=1|448=T1Kauaiblk4|447=C|452=11|11=ClOrdID-1283|22=4|38=350000|48=US87425EAJ29|54=1|55=[N/A/]|67=19|453=1|448=T1Kauaiblk4|447=C|452=11|11=ClOrdID-1284|22=4|38=350000|48=US816300AG24|54=1|55=[N/A/]|67=20|453=1|448=T1Kauaiblk4|447=C|452=11|10=209|8=FIX.4.4|9=57|35=0|34=30|49=T1Kauaiblk4|52=20210120-19:41:42.483|56=MA|10=113|8=FIX.4.4|9=2118|35=E|34=31|49=T1Kauaiblk4|52=20210120-19:43:11.227|56=MA|66=ListID-200121-1285|394=2|68=20|73=20|11=ClOrdID-1286|22=4|38=100000|48=US06051GEN51|54=1|55=[N/A/]|67=1|423=1|453=1|448=T1Kauaiblk4|447=C|452=11|11=ClOrdID-1287|22=4|38=100000|48=US40434AAB52|54=1|55=[N/A]|67=2|11=ClOrdID-1288|22=4|38=130000|48=US06738JYZ10|54=1|55=[N/A/]|67=3|453=1|448=T1Kauaiblk4|447=C|452=11|11=ClOrdID-1289|22=4|38=250000|48=US95709TAH32|54=1|55=[N/A/]|67=4|453=1|448=T1Kauaiblk4|447=C|452=11|11=ClOrdID-1290|22=4|38=350000|48=US29379VAW37|54=1|55=[N/A/]|67=5|453=1|448=T1Kauaiblk4|447=C|452=11|11=ClOrdID-1291|22=4|38=350000|48=US48121ECC49|54=1|55=[N/A/]|67=6|453=1|448=T1Kauaiblk4|447=C|452=11|11=ClOrdID-1292|22=4|38=350000|48=US983024AL46|54=1|55=[N/A/]|67=7|453=1|448=T1Kauaiblk4|447=C|452=11|11=ClOrdID-1293|22=4|38=350000|48=US61166WAE12|54=1|55=[N/A/]|67=8|453=1|448=T1Kauaiblk4|447=C|452=11|11=ClOrdID-1294|22=4|38=350000|48=US000828JAM09|54=1|55=[N/A/]|67=9|453=1|448=T1Kauaiblk4|447=C|452=11|11=ClOrdID-1295|22=4|38=350000|48=US62630CAR25|54=1|55=[N/A/]|67=10|453=1|448=T1Kauaiblk4|447=C|452=11|11=ClOrdID-1296|22=4|38=350000|48=US05379BAK35|54=1|55=[N/A/]|67=11|453=1|448=T1Kauaiblk4|447=C|452=11|11=ClOrdID-1297|22=4|38=350000|48=US368710AC32|54=1|55=[N/A/]|67=12|453=1|448=T1Kauaiblk4|447=C|452=11|11=ClOrdID-1298|22=4|38=350000|48=XS1186833239|54=1|55=[N/A/]|67=13|453=1|448=T1Kauaiblk4|447=C|452=11|11=ClOrdID-1299|22=4|38=350000|48=US842400FC28|54=1|55=[N/A/]|67=14|453=1|448=T1Kauaiblk4|447=C|452=11|11=ClOrdID-1300|22=4|38=350000|48=US927804FA70|54=1|55=[N/A/]|67=15|453=1|448=T1Kauaiblk4|447=C|452=11|11=ClOrdID-1301|22=4|38=350000|48=US472319AC60|54=1|55=[N/A/]|67=16|453=1|448=T1Kauaiblk4|447=C|452=11|11=ClOrdID-1302|22=4|38=350000|48=US93884PDN78|54=1|55=[N/A/]|67=17|453=1|448=T1Kauaiblk4|447=C|452=11|11=ClOrdID-1303|22=4|38=350000|48=US06050XWS88|54=1|55=[N/A/]|67=8|453=1|448=T1Kauaiblk4|447=C|452=11|11=ClOrdID-1304|22=4|38=350000|48=US87425EAJ29|54=1|55=[N/A/]|67=19|453=1|448=T1Kauaiblk4|447=C|452=11|11=ClOrdID-1305|22=4|38=350000|48=US816300AG24|54=1|55=[N/A/]|67=20|453=1|448=T1Kauaiblk4|447=C|452=11|10=195|8=FIX.4.4|9=57|35=0|34=32|49=T1Kauaiblk4|52=20210120-19:44:41.487|56=MA|10=121|8=FIX.4.4|9=57|35=0|34=33|49=T1Kauaiblk4|52=20210120-19:46:11.489|56=MA|10=123|8=FIX.4.4|9=57|35=0|34=34|49=T1Kauaiblk4|52=20210120-19:47:41.490|56=MA|10=120|8=FIX.4.4|9=57|35=0|34=35|49=T1Kauaiblk4|52=20210120-19:49:11.492|56=MA|10=122|8=FIX.4.4|9=57|35=0|34=36|49=T1Kauaiblk4|52=20210120-19:50:41.494|56=MA|10=120|8=FIX.4.4|9=2118|35=E|34=37|49=T1Kauaiblk4|52=20210120-19:51:25.498|56=MA|66=ListID-200121-1306|394=2|68=20|73=20|11=ClOrdID-1307|22=4|38=100000|48=US06051GEN51|54=1|55=[N/A/]|67=1|423=1|453=1|448=T1Kauaiblk4|447=C|452=11|11=ClOrdID-1308|22=4|38=100000|48=US40434AAB52|54=1|55=[N/A]|67=2|11=ClOrdID-1309|22=4|38=130000|48=US06738JYZ10|54=1|55=[N/A/]|67=3|453=1|448=T1Kauaiblk4|447=C|452=11|11=ClOrdID-1310|22=4|38=250000|48=US95709TAH32|54=1|55=[N/A/]|67=4|453=1|448=T1Kauaiblk4|447=C|452=11|11=ClOrdID-1311|22=4|38=350000|48=US29379VAW37|54=1|55=[N/A/]|67=5|453=1|448=T1Kauaiblk4|447=C|452=11|11=ClOrdID-1312|22=4|38=350000|48=US48121ECC49|54=1|55=[N/A/]|67=6|453=1|448=T1Kauaiblk4|447=C|452=11|11=ClOrdID-1313|22=4|38=350000|48=US983024AL46|54=1|55=[N/A/]|67=7|453=1|448=T1Kauaiblk4|447=C|452=11|11=ClOrdID-1314|22=4|38=350000|48=US61166WAE12|54=1|55=[N/A/]|67=8|453=1|448=T1Kauaiblk4|447=C|452=11|11=ClOrdID-1315|22=4|38=350000|48=US000828JAM09|54=1|55=[N/A/]|67=9|453=1|448=T1Kauaiblk4|447=C|452=11|11=ClOrdID-1316|22=4|38=350000|48=US62630CAR25|54=1|55=[N/A/]|67=10|453=1|448=T1Kauaiblk4|447=C|452=11|11=ClOrdID-1317|22=4|38=350000|48=US05379BAK35|54=1|55=[N/A/]|67=11|453=1|448=T1Kauaiblk4|447=C|452=11|11=ClOrdID-1318|22=4|38=350000|48=US368710AC32|54=1|55=[N/A/]|67=12|453=1|448=T1Kauaiblk4|447=C|452=11|11=ClOrdID-1319|22=4|38=350000|48=XS1186833239|54=1|55=[N/A/]|67=13|453=1|448=T1Kauaiblk4|447=C|452=11|11=ClOrdID-1320|22=4|38=350000|48=US842400FC28|54=1|55=[N/A/]|67=14|453=1|448=T1Kauaiblk4|447=C|452=11|11=ClOrdID-1321|22=4|38=350000|48=US927804FA70|54=1|55=[N/A/]|67=15|453=1|448=T1Kauaiblk4|447=C|452=11|11=ClOrdID-1322|22=4|38=350000|48=US472319AC60|54=1|55=[N/A/]|67=16|453=1|448=T1Kauaiblk4|447=C|452=11|11=ClOrdID-1323|22=4|38=350000|48=US93884PDN78|54=1|55=[N/A/]|67=17|453=1|448=T1Kauaiblk4|447=C|452=11|11=ClOrdID-1324|22=4|38=350000|48=US06050XWS88|54=1|55=[N/A/]|67=8|453=1|448=T1Kauaiblk4|447=C|452=11|11=ClOrdID-1325|22=4|38=350000|48=US87425EAJ29|54=1|55=[N/A/]|67=19|453=1|448=T1Kauaiblk4|447=C|452=11|11=ClOrdID-1326|22=4|38=350000|48=US816300AG24|54=1|55=[N/A/]|67=20|453=1|448=T1Kauaiblk4|447=C|452=11|10=125|8=FIX.4.4|9=2118|35=E|34=38|49=T1Kauaiblk4|52=20210120-19:51:45.421|56=MA|66=ListID-200121-1327|394=2|68=20|73=20|11=ClOrdID-1328|22=4|38=100000|48=US06051GEN51|54=1|55=[N/A/]|67=1|423=1|453=1|448=T1Kauaiblk4|447=C|452=11|11=ClOrdID-1329|22=4|38=100000|48=US40434AAB52|54=1|55=[N/A]|67=2|11=ClOrdID-1330|22=4|38=130000|48=US06738JYZ10|54=1|55=[N/A/]|67=3|453=1|448=T1Kauaiblk4|447=C|452=11|11=ClOrdID-1331|22=4|38=250000|48=US95709TAH32|54=1|55=[N/A/]|67=4|453=1|448=T1Kauaiblk4|447=C|452=11|11=ClOrdID-1332|22=4|38=350000|48=US29379VAW37|54=1|55=[N/A/]|67=5|453=1|448=T1Kauaiblk4|447=C|452=11|11=ClOrdID-1333|22=4|38=350000|48=US48121ECC49|54=1|55=[N/A/]|67=6|453=1|448=T1Kauaiblk4|447=C|452=11|11=ClOrdID-1334|22=4|38=350000|48=US983024AL46|54=1|55=[N/A/]|67=7|453=1|448=T1Kauaiblk4|447=C|452=11|11=ClOrdID-1335|22=4|38=350000|48=US61166WAE12|54=1|55=[N/A/]|67=8|453=1|448=T1Kauaiblk4|447=C|452=11|11=ClOrdID-1336|22=4|38=350000|48=US000828JAM09|54=1|55=[N/A/]|67=9|453=1|448=T1Kauaiblk4|447=C|452=11|11=ClOrdID-1337|22=4|38=350000|48=US62630CAR25|54=1|55=[N/A/]|67=10|453=1|448=T1Kauaiblk4|447=C|452=11|11=ClOrdID-1338|22=4|38=350000|48=US05379BAK35|54=1|55=[N/A/]|67=11|453=1|448=T1Kauaiblk4|447=C|452=11|11=ClOrdID-1339|22=4|38=350000|48=US368710AC32|54=1|55=[N/A/]|67=12|453=1|448=T1Kauaiblk4|447=C|452=11|11=ClOrdID-1340|22=4|38=350000|48=XS1186833239|54=1|55=[N/A/]|67=13|453=1|448=T1Kauaiblk4|447=C|452=11|11=ClOrdID-1341|22=4|38=350000|48=US842400FC28|54=1|55=[N/A/]|67=14|453=1|448=T1Kauaiblk4|447=C|452=11|11=ClOrdID-1342|22=4|38=350000|48=US927804FA70|54=1|55=[N/A/]|67=15|453=1|448=T1Kauaiblk4|447=C|452=11|11=ClOrdID-1343|22=4|38=350000|48=US472319AC60|54=1|55=[N/A/]|67=16|453=1|448=T1Kauaiblk4|447=C|452=11|11=ClOrdID-1344|22=4|38=350000|48=US93884PDN78|54=1|55=[N/A/]|67=17|453=1|448=T1Kauaiblk4|447=C|452=11|11=ClOrdID-1345|22=4|38=350000|48=US06050XWS88|54=1|55=[N/A/]|67=8|453=1|448=T1Kauaiblk4|447=C|452=11|11=ClOrdID-1346|22=4|38=350000|48=US87425EAJ29|54=1|55=[N/A/]|67=19|453=1|448=T1Kauaiblk4|447=C|452=11|11=ClOrdID-1347|22=4|38=350000|48=US816300AG24|54=1|55=[N/A/]|67=20|453=1|448=T1Kauaiblk4|447=C|452=11|10=159|8=FIX.4.4|9=2118|35=E|34=39|49=T1Kauaiblk4|52=20210120-19:51:56.238|56=MA|66=ListID-200121-1348|394=2|68=20|73=20|11=ClOrdID-1349|22=4|38=100000|48=US06051GEN51|54=1|55=[N/A/]|67=1|423=1|453=1|448=T1Kauaiblk4|447=C|452=11|11=ClOrdID-1350|22=4|38=100000|48=US40434AAB52|54=1|55=[N/A]|67=2|11=ClOrdID-1351|22=4|38=130000|48=US06738JYZ10|54=1|55=[N/A/]|67=3|453=1|448=T1Kauaiblk4|447=C|452=11|11=ClOrdID-1352|22=4|38=250000|48=US95709TAH32|54=1|55=[N/A/]|67=4|453=1|448=T1Kauaiblk4|447=C|452=11|11=ClOrdID-1353|22=4|38=350000|48=US29379VAW37|54=1|55=[N/A/]|67=5|453=1|448=T1Kauaiblk4|447=C|452=11|11=ClOrdID-1354|22=4|38=350000|48=US48121ECC49|54=1|55=[N/A/]|67=6|453=1|448=T1Kauaiblk4|447=C|452=11|11=ClOrdID-1355|22=4|38=350000|48=US983024AL46|54=1|55=[N/A/]|67=7|453=1|448=T1Kauaiblk4|447=C|452=11|11=ClOrdID-1356|22=4|38=350000|48=US61166WAE12|54=1|55=[N/A/]|67=8|453=1|448=T1Kauaiblk4|447=C|452=11|11=ClOrdID-1357|22=4|38=350000|48=US000828JAM09|54=1|55=[N/A/]|67=9|453=1|448=T1Kauaiblk4|447=C|452=11|11=ClOrdID-1358|22=4|38=350000|48=US62630CAR25|54=1|55=[N/A/]|67=10|453=1|448=T1Kauaiblk4|447=C|452=11|11=ClOrdID-1359|22=4|38=350000|48=US05379BAK35|54=1|55=[N/A/]|67=11|453=1|448=T1Kauaiblk4|447=C|452=11|11=ClOrdID-1360|22=4|38=350000|48=US368710AC32|54=1|55=[N/A/]|67=12|453=1|448=T1Kauaiblk4|447=C|452=11|11=ClOrdID-1361|22=4|38=350000|48=XS1186833239|54=1|55=[N/A/]|67=13|453=1|448=T1Kauaiblk4|447=C|452=11|11=ClOrdID-1362|22=4|38=350000|48=US842400FC28|54=1|55=[N/A/]|67=14|453=1|448=T1Kauaiblk4|447=C|452=11|11=ClOrdID-1363|22=4|38=350000|48=US927804FA70|54=1|55=[N/A/]|67=15|453=1|448=T1Kauaiblk4|447=C|452=11|11=ClOrdID-1364|22=4|38=350000|48=US472319AC60|54=1|55=[N/A/]|67=16|453=1|448=T1Kauaiblk4|447=C|452=11|11=ClOrdID-1365|22=4|38=350000|48=US93884PDN78|54=1|55=[N/A/]|67=17|453=1|448=T1Kauaiblk4|447=C|452=11|11=ClOrdID-1366|22=4|38=350000|48=US06050XWS88|54=1|55=[N/A/]|67=8|453=1|448=T1Kauaiblk4|447=C|452=11|11=ClOrdID-1367|22=4|38=350000|48=US87425EAJ29|54=1|55=[N/A/]|67=19|453=1|448=T1Kauaiblk4|447=C|452=11|11=ClOrdID-1368|22=4|38=350000|48=US816300AG24|54=1|55=[N/A/]|67=20|453=1|448=T1Kauaiblk4|447=C|452=11|10=213|8=FIX.4.4|9=2118|35=E|34=40|49=T1Kauaiblk4|52=20210120-19:52:07.228|56=MA|66=ListID-200121-1369|394=2|68=20|73=20|11=ClOrdID-1370|22=4|38=100000|48=US06051GEN51|54=1|55=[N/A/]|67=1|423=1|453=1|448=T1Kauaiblk4|447=C|452=11|11=ClOrdID-1371|22=4|38=100000|48=US40434AAB52|54=1|55=[N/A]|67=2|11=ClOrdID-1372|22=4|38=130000|48=US06738JYZ10|54=1|55=[N/A/]|67=3|453=1|448=T1Kauaiblk4|447=C|452=11|11=ClOrdID-1373|22=4|38=250000|48=US95709TAH32|54=1|55=[N/A/]|67=4|453=1|448=T1Kauaiblk4|447=C|452=11|11=ClOrdID-1374|22=4|38=350000|48=US29379VAW37|54=1|55=[N/A/]|67=5|453=1|448=T1Kauaiblk4|447=C|452=11|11=ClOrdID-1375|22=4|38=350000|48=US48121ECC49|54=1|55=[N/A/]|67=6|453=1|448=T1Kauaiblk4|447=C|452=11|11=ClOrdID-1376|22=4|38=350000|48=US983024AL46|54=1|55=[N/A/]|67=7|453=1|448=T1Kauaiblk4|447=C|452=11|11=ClOrdID-1377|22=4|38=350000|48=US61166WAE12|54=1|55=[N/A/]|67=8|453=1|448=T1Kauaiblk4|447=C|452=11|11=ClOrdID-1378|22=4|38=350000|48=US000828JAM09|54=1|55=[N/A/]|67=9|453=1|448=T1Kauaiblk4|447=C|452=11|11=ClOrdID-1379|22=4|38=350000|48=US62630CAR25|54=1|55=[N/A/]|67=10|453=1|448=T1Kauaiblk4|447=C|452=11|11=ClOrdID-1380|22=4|38=350000|48=US05379BAK35|54=1|55=[N/A/]|67=11|453=1|448=T1Kauaiblk4|447=C|452=11|11=ClOrdID-1381|22=4|38=350000|48=US368710AC32|54=1|55=[N/A/]|67=12|453=1|448=T1Kauaiblk4|447=C|452=11|11=ClOrdID-1382|22=4|38=350000|48=XS1186833239|54=1|55=[N/A/]|67=13|453=1|448=T1Kauaiblk4|447=C|452=11|11=ClOrdID-1383|22=4|38=350000|48=US842400FC28|54=1|55=[N/A/]|67=14|453=1|448=T1Kauaiblk4|447=C|452=11|11=ClOrdID-1384|22=4|38=350000|48=US927804FA70|54=1|55=[N/A/]|67=15|453=1|448=T1Kauaiblk4|447=C|452=11|11=ClOrdID-1385|22=4|38=350000|48=US472319AC60|54=1|55=[N/A/]|67=16|453=1|448=T1Kauaiblk4|447=C|452=11|11=ClOrdID-1386|22=4|38=350000|48=US93884PDN78|54=1|55=[N/A/]|67=17|453=1|448=T1Kauaiblk4|447=C|452=11|11=ClOrdID-1387|22=4|38=350000|48=US06050XWS88|54=1|55=[N/A/]|67=8|453=1|448=T1Kauaiblk4|447=C|452=11|11=ClOrdID-1388|22=4|38=350000|48=US87425EAJ29|54=1|55=[N/A/]|67=19|453=1|448=T1Kauaiblk4|447=C|452=11|11=ClOrdID-1389|22=4|38=350000|48=US816300AG24|54=1|55=[N/A/]|67=20|453=1|448=T1Kauaiblk4|447=C|452=11|10=246|8=FIX.4.4|9=2118|35=E|34=41|49=T1Kauaiblk4|52=20210120-19:52:19.775|56=MA|66=ListID-200121-1390|394=2|68=20|73=20|11=ClOrdID-1391|22=4|38=100000|48=US06051GEN51|54=1|55=[N/A/]|67=1|423=1|453=1|448=T1Kauaiblk4|447=C|452=11|11=ClOrdID-1392|22=4|38=100000|48=US40434AAB52|54=1|55=[N/A]|67=2|11=ClOrdID-1393|22=4|38=130000|48=US06738JYZ10|54=1|55=[N/A/]|67=3|453=1|448=T1Kauaiblk4|447=C|452=11|11=ClOrdID-1394|22=4|38=250000|48=US95709TAH32|54=1|55=[N/A/]|67=4|453=1|448=T1Kauaiblk4|447=C|452=11|11=ClOrdID-1395|22=4|38=350000|48=US29379VAW37|54=1|55=[N/A/]|67=5|453=1|448=T1Kauaiblk4|447=C|452=11|11=ClOrdID-1396|22=4|38=350000|48=US48121ECC49|54=1|55=[N/A/]|67=6|453=1|448=T1Kauaiblk4|447=C|452=11|11=ClOrdID-1397|22=4|38=350000|48=US983024AL46|54=1|55=[N/A/]|67=7|453=1|448=T1Kauaiblk4|447=C|452=11|11=ClOrdID-1398|22=4|38=350000|48=US61166WAE12|54=1|55=[N/A/]|67=8|453=1|448=T1Kauaiblk4|447=C|452=11|11=ClOrdID-1399|22=4|38=350000|48=US000828JAM09|54=1|55=[N/A/]|67=9|453=1|448=T1Kauaiblk4|447=C|452=11|11=ClOrdID-1400|22=4|38=350000|48=US62630CAR25|54=1|55=[N/A/]|67=10|453=1|448=T1Kauaiblk4|447=C|452=11|11=ClOrdID-1401|22=4|38=350000|48=US05379BAK35|54=1|55=[N/A/]|67=11|453=1|448=T1Kauaiblk4|447=C|452=11|11=ClOrdID-1402|22=4|38=350000|48=US368710AC32|54=1|55=[N/A/]|67=12|453=1|448=T1Kauaiblk4|447=C|452=11|11=ClOrdID-1403|22=4|38=350000|48=XS1186833239|54=1|55=[N/A/]|67=13|453=1|448=T1Kauaiblk4|447=C|452=11|11=ClOrdID-1404|22=4|38=350000|48=US842400FC28|54=1|55=[N/A/]|67=14|453=1|448=T1Kauaiblk4|447=C|452=11|11=ClOrdID-1405|22=4|38=350000|48=US927804FA70|54=1|55=[N/A/]|67=15|453=1|448=T1Kauaiblk4|447=C|452=11|11=ClOrdID-1406|22=4|38=350000|48=US472319AC60|54=1|55=[N/A/]|67=16|453=1|448=T1Kauaiblk4|447=C|452=11|11=ClOrdID-1407|22=4|38=350000|48=US93884PDN78|54=1|55=[N/A/]|67=17|453=1|448=T1Kauaiblk4|447=C|452=11|11=ClOrdID-1408|22=4|38=350000|48=US06050XWS88|54=1|55=[N/A/]|67=8|453=1|448=T1Kauaiblk4|447=C|452=11|11=ClOrdID-1409|22=4|38=350000|48=US87425EAJ29|54=1|55=[N/A/]|67=19|453=1|448=T1Kauaiblk4|447=C|452=11|11=ClOrdID-1410|22=4|38=350000|48=US816300AG24|54=1|55=[N/A/]|67=20|453=1|448=T1Kauaiblk4|447=C|452=11|10=194|8=FIX.4.4|9=57|35=0|34=42|49=T1Kauaiblk4|52=20210120-19:53:50.499|56=MA|10=125|8=FIX.4.4|9=57|35=0|34=43|49=T1Kauaiblk4|52=20210120-19:55:20.501|56=MA|10=109|8=FIX.4.4|9=57|35=0|34=44|49=T1Kauaiblk4|52=20210120-19:56:50.502|56=MA|10=115|8=FIX.4.4|9=57|35=0|34=45|49=T1Kauaiblk4|52=20210120-19:58:20.504|56=MA|10=117|8=FIX.4.4|9=57|35=0|34=46|49=T1Kauaiblk4|52=20210120-19:59:50.506|56=MA|10=124|8=FIX.4.4|9=57|35=0|34=47|49=T1Kauaiblk4|52=20210120-20:01:20.508|56=MA|10=103|8=FIX.4.4|9=57|35=0|34=48|49=T1Kauaiblk4|52=20210120-20:02:50.510|56=MA|10=101|8=FIX.4.4|9=57|35=0|34=49|49=T1Kauaiblk4|52=20210120-20:04:20.512|56=MA|10=103|8=FIX.4.4|9=57|35=0|34=50|49=T1Kauaiblk4|52=20210120-20:05:50.514|56=MA|10=101|8=FIX.4.4|9=57|35=0|34=51|49=T1Kauaiblk4|52=20210120-20:07:20.515|56=MA|10=102|8=FIX.4.4|9=57|35=0|34=52|49=T1Kauaiblk4|52=20210120-20:08:50.518|56=MA|10=110|8=FIX.4.4|9=57|35=0|34=53|49=T1Kauaiblk4|52=20210120-20:10:20.519|56=MA|10=102|8=FIX.4.4|9=57|35=0|34=54|49=T1Kauaiblk4|52=20210120-20:11:50.522|56=MA|10=101|8=FIX.4.4|9=57|35=0|34=55|49=T1Kauaiblk4|52=20210120-20:13:20.522|56=MA|10=101|8=FIX.4.4|9=57|35=0|34=56|49=T1Kauaiblk4|52=20210120-20:14:50.525|56=MA|10=109|8=FIX.4.4|9=57|35=0|34=57|49=T1Kauaiblk4|52=20210120-20:16:20.527|56=MA|10=111|8=FIX.4.4|9=57|35=0|34=58|49=T1Kauaiblk4|52=20210120-20:17:50.528|56=MA|10=117|8=FIX.4.4|9=57|35=0|34=59|49=T1Kauaiblk4|52=20210120-20:19:20.529|56=MA|10=118|8=FIX.4.4|9=57|35=0|34=60|49=T1Kauaiblk4|52=20210120-20:20:50.531|56=MA|10=098|8=FIX.4.4|9=57|35=0|34=61|49=T1Kauaiblk4|52=20210120-20:22:20.533|56=MA|10=100|8=FIX.4.4|9=57|35=0|34=62|49=T1Kauaiblk4|52=20210120-20:23:50.535|56=MA|10=107|8=FIX.4.4|9=57|35=0|34=63|49=T1Kauaiblk4|52=20210120-20:25:20.537|56=MA|10=109|8=FIX.4.4|9=57|35=0|34=64|49=T1Kauaiblk4|52=20210120-20:26:50.538|56=MA|10=115|8=FIX.4.4|9=57|35=0|34=65|49=T1Kauaiblk4|52=20210120-20:28:20.539|56=MA|10=116|8=FIX.4.4|9=57|35=0|34=66|49=T1Kauaiblk4|52=20210120-20:29:50.541|56=MA|10=114|8=FIX.4.4|9=57|35=0|34=67|49=T1Kauaiblk4|52=20210120-20:31:20.542|56=MA|10=106|8=FIX.4.4|9=57|35=0|34=68|49=T1Kauaiblk4|52=20210120-20:32:50.544|56=MA|10=113|8=FIX.4.4|9=57|35=0|34=69|49=T1Kauaiblk4|52=20210120-20:34:20.545|56=MA|10=114|8=FIX.4.4|9=57|35=0|34=70|49=T1Kauaiblk4|52=20210120-20:35:50.547|56=MA|10=112|8=FIX.4.4|9=57|35=0|34=71|49=T1Kauaiblk4|52=20210120-20:37:20.548|56=MA|10=113|8=FIX.4.4|9=57|35=0|34=72|49=T1Kauaiblk4|52=20210120-20:38:50.550|56=MA|10=111|8=FIX.4.4|9=57|35=0|34=73|49=T1Kauaiblk4|52=20210120-20:40:20.552|56=MA|10=104|8=FIX.4.4|9=57|35=0|34=74|49=T1Kauaiblk4|52=20210120-20:41:50.553|56=MA|10=110|8=FIX.4.4|9=57|35=0|34=75|49=T1Kauaiblk4|52=20210120-20:43:20.554|56=MA|10=111|8=FIX.4.4|9=57|35=0|34=76|49=T1Kauaiblk4|52=20210120-20:44:50.556|56=MA|10=118|8=FIX.4.4|9=57|35=0|34=77|49=T1Kauaiblk4|52=20210120-20:46:20.558|56=MA|10=120|8=FIX.4.4|9=57|35=0|34=78|49=T1Kauaiblk4|52=20210120-20:47:50.559|56=MA|10=126|8=FIX.4.4|9=57|35=0|34=79|49=T1Kauaiblk4|52=20210120-20:49:20.561|56=MA|10=119|8=FIX.4.4|9=57|35=0|34=80|49=T1Kauaiblk4|52=20210120-20:50:50.561|56=MA|10=106|8=FIX.4.4|9=57|35=0|34=81|49=T1Kauaiblk4|52=20210120-20:52:20.564|56=MA|10=109|8=FIX.4.4|9=57|35=0|34=82|49=T1Kauaiblk4|52=20210120-20:53:50.564|56=MA|10=114|8=FIX.4.4|9=57|35=0|34=83|49=T1Kauaiblk4|52=20210120-20:55:20.565|56=MA|10=115|8=FIX.4.4|9=57|35=0|34=84|49=T1Kauaiblk4|52=20210120-20:56:50.567|56=MA|10=122|8=FIX.4.4|9=57|35=0|34=85|49=T1Kauaiblk4|52=20210120-20:58:20.568|56=MA|10=123|8=FIX.4.4|9=57|35=0|34=86|49=T1Kauaiblk4|52=20210120-20:59:50.569|56=MA|10=129|8=FIX.4.4|9=57|35=0|34=87|49=T1Kauaiblk4|52=20210120-21:01:20.571|56=MA|10=108|8=FIX.4.4|9=57|35=0|34=88|49=T1Kauaiblk4|52=20210120-21:02:50.572|56=MA|10=114|8=FIX.4.4|9=57|35=0|34=89|49=T1Kauaiblk4|52=20210120-21:04:20.573|56=MA|10=115|8=FIX.4.4|9=57|35=0|34=90|49=T1Kauaiblk4|52=20210120-21:05:50.575|56=MA|10=113|8=FIX.4.4|9=57|35=0|34=91|49=T1Kauaiblk4|52=20210120-21:07:20.576|56=MA|10=114|8=FIX.4.4|9=57|35=0|34=92|49=T1Kauaiblk4|52=20210120-21:08:50.577|56=MA|10=120|8=FIX.4.4|9=57|35=0|34=93|49=T1Kauaiblk4|52=20210120-21:10:20.578|56=MA|10=112|8=FIX.4.4|9=57|35=0|34=94|49=T1Kauaiblk4|52=20210120-21:11:50.580|56=MA|10=110|8=FIX.4.4|9=57|35=0|34=95|49=T1Kauaiblk4|52=20210120-21:13:20.581|56=MA|10=111|8=FIX.4.4|9=57|35=0|34=96|49=T1Kauaiblk4|52=20210120-21:14:50.582|56=MA|10=117|8=FIX.4.4|9=57|35=0|34=97|49=T1Kauaiblk4|52=20210120-21:16:20.584|56=MA|10=119|8=FIX.4.4|9=57|35=0|34=98|49=T1Kauaiblk4|52=20210120-21:17:50.585|56=MA|10=125|8=FIX.4.4|9=57|35=0|34=99|49=T1Kauaiblk4|52=20210120-21:19:20.586|56=MA|10=126|8=FIX.4.4|9=58|35=0|34=100|49=T1Kauaiblk4|52=20210120-21:20:50.588|56=MA|10=155|8=FIX.4.4|9=58|35=0|34=101|49=T1Kauaiblk4|52=20210120-21:22:20.589|56=MA|10=156|8=FIX.4.4|9=58|35=0|34=102|49=T1Kauaiblk4|52=20210120-21:23:50.590|56=MA|10=153|8=FIX.4.4|9=58|35=0|34=103|49=T1Kauaiblk4|52=20210120-21:25:20.590|56=MA|10=153|8=FIX.4.4|9=58|35=0|34=104|49=T1Kauaiblk4|52=20210120-21:26:50.591|56=MA|10=159|8=FIX.4.4|9=58|35=0|34=105|49=T1Kauaiblk4|52=20210120-21:28:20.593|56=MA|10=161|8=FIX.4.4|9=58|35=0|34=106|49=T1Kauaiblk4|52=20210120-21:29:50.594|56=MA|10=167|8=FIX.4.4|9=58|35=0|34=107|49=T1Kauaiblk4|52=20210120-21:31:20.594|56=MA|10=158|8=FIX.4.4|9=58|35=0|34=108|49=T1Kauaiblk4|52=20210120-21:32:50.596|56=MA|10=165|8=FIX.4.4|9=58|35=0|34=109|49=T1Kauaiblk4|52=20210120-21:34:20.596|56=MA|10=165|8=FIX.4.4|9=58|35=0|34=110|49=T1Kauaiblk4|52=20210120-21:35:50.598|56=MA|10=163|8=FIX.4.4|9=58|35=0|34=111|49=T1Kauaiblk4|52=20210120-21:37:20.599|56=MA|10=164|8=FIX.4.4|9=58|35=0|34=112|49=T1Kauaiblk4|52=20210120-21:38:50.599|56=MA|10=169|8=FIX.4.4|9=58|35=0|34=113|49=T1Kauaiblk4|52=20210120-21:40:20.601|56=MA|10=144|8=FIX.4.4|9=58|35=0|34=114|49=T1Kauaiblk4|52=20210120-21:41:50.601|56=MA|10=149|8=FIX.4.4|9=58|35=0|34=115|49=T1Kauaiblk4|52=20210120-21:43:20.603|56=MA|10=151|8=FIX.4.4|9=58|35=0|34=116|49=T1Kauaiblk4|52=20210120-21:44:50.604|56=MA|10=157|8=FIX.4.4|9=58|35=0|34=117|49=T1Kauaiblk4|52=20210120-21:46:20.606|56=MA|10=159|8=FIX.4.4|9=58|35=0|34=118|49=T1Kauaiblk4|52=20210120-21:47:50.606|56=MA|10=164|8=FIX.4.4|9=58|35=0|34=119|49=T1Kauaiblk4|52=20210120-21:49:20.608|56=MA|10=166|8=FIX.4.4|9=58|35=0|34=120|49=T1Kauaiblk4|52=20210120-21:50:50.608|56=MA|10=153|8=FIX.4.4|9=58|35=0|34=121|49=T1Kauaiblk4|52=20210120-21:52:20.608|56=MA|10=153|8=FIX.4.4|9=58|35=0|34=122|49=T1Kauaiblk4|52=20210120-21:53:50.611|56=MA|10=152|8=FIX.4.4|9=58|35=0|34=123|49=T1Kauaiblk4|52=20210120-21:55:20.611|56=MA|10=152|8=FIX.4.4|9=58|35=0|34=124|49=T1Kauaiblk4|52=20210120-21:56:50.612|56=MA|10=158|8=FIX.4.4|9=58|35=0|34=125|49=T1Kauaiblk4|52=20210120-21:58:20.612|56=MA|10=158|8=FIX.4.4|9=58|35=0|34=126|49=T1Kauaiblk4|52=20210120-21:59:50.614|56=MA|10=165|8=FIX.4.4|9=58|35=0|34=127|49=T1Kauaiblk4|52=20210120-22:01:20.614|56=MA|10=151|8=FIX.4.4|9=58|35=0|34=128|49=T1Kauaiblk4|52=20210120-22:02:50.615|56=MA|10=157|8=FIX.4.4|9=58|35=0|34=129|49=T1Kauaiblk4|52=20210120-22:04:20.617|56=MA|10=159|8=FIX.4.4|9=58|35=0|34=130|49=T1Kauaiblk4|52=20210120-22:05:50.617|56=MA|10=155|8=FIX.4.4|9=58|35=0|34=131|49=T1Kauaiblk4|52=20210120-22:07:20.617|56=MA|10=155|8=FIX.4.4|9=58|35=0|34=132|49=T1Kauaiblk4|52=20210120-22:08:50.618|56=MA|10=161|8=FIX.4.4|9=58|35=0|34=133|49=T1Kauaiblk4|52=20210120-22:10:20.621|56=MA|10=146|8=FIX.4.4|9=58|35=0|34=134|49=T1Kauaiblk4|52=20210120-22:11:50.622|56=MA|10=152|8=FIX.4.4|9=58|35=0|34=135|49=T1Kauaiblk4|52=20210120-22:13:20.623|56=MA|10=153|8=FIX.4.4|9=58|35=0|34=136|49=T1Kauaiblk4|52=20210120-22:14:50.625|56=MA|10=160|8=FIX.4.4|9=58|35=0|34=137|49=T1Kauaiblk4|52=20210120-22:16:20.627|56=MA|10=162|8=FIX.4.4|9=58|35=0|34=138|49=T1Kauaiblk4|52=20210120-22:17:50.630|56=MA|10=161|8=FIX.4.4|9=58|35=0|34=139|49=T1Kauaiblk4|52=20210120-22:19:20.631|56=MA|10=162|8=FIX.4.4|9=58|35=0|34=140|49=T1Kauaiblk4|52=20210120-22:20:50.631|56=MA|10=149|8=FIX.4.4|9=58|35=0|34=141|49=T1Kauaiblk4|52=20210120-22:22:20.633|56=MA|10=151|8=FIX.4.4|9=58|35=0|34=142|49=T1Kauaiblk4|52=20210120-22:23:50.636|56=MA|10=159|8=FIX.4.4|9=58|35=0|34=143|49=T1Kauaiblk4|52=20210120-22:25:20.637|56=MA|10=160|8=FIX.4.4|9=58|35=0|34=144|49=T1Kauaiblk4|52=20210120-22:26:50.639|56=MA|10=167|8=FIX.4.4|9=58|35=0|34=145|49=T1Kauaiblk4|52=20210120-22:28:20.639|56=MA|10=167|8=FIX.4.4|9=58|35=0|34=146|49=T1Kauaiblk4|52=20210120-22:29:50.641|56=MA|10=165|8=FIX.4.4|9=58|35=0|34=147|49=T1Kauaiblk4|52=20210120-22:31:20.642|56=MA|10=157|8=FIX.4.4|9=58|35=0|34=148|49=T1Kauaiblk4|52=20210120-22:32:50.644|56=MA|10=164|8=FIX.4.4|9=58|35=0|34=149|49=T1Kauaiblk4|52=20210120-22:34:20.645|56=MA|10=165|8=FIX.4.4|9=58|35=0|34=150|49=T1Kauaiblk4|52=20210120-22:35:50.646|56=MA|10=162|8=FIX.4.4|9=58|35=0|34=151|49=T1Kauaiblk4|52=20210120-22:37:20.649|56=MA|10=165|8=FIX.4.4|9=58|35=0|34=152|49=T1Kauaiblk4|52=20210120-22:38:50.649|56=MA|10=170|8=FIX.4.4|9=58|35=0|34=153|49=T1Kauaiblk4|52=20210120-22:40:20.651|56=MA|10=154|8=FIX.4.4|9=58|35=0|34=154|49=T1Kauaiblk4|52=20210120-22:41:50.652|56=MA|10=160|8=FIX.4.4|9=58|35=0|34=155|49=T1Kauaiblk4|52=20210120-22:43:20.654|56=MA|10=162|8=FIX.4.4|9=58|35=0|34=156|49=T1Kauaiblk4|52=20210120-22:44:50.656|56=MA|10=169|8=FIX.4.4|9=58|35=0|34=157|49=T1Kauaiblk4|52=20210120-22:46:20.656|56=MA|10=169|8=FIX.4.4|9=58|35=0|34=158|49=T1Kauaiblk4|52=20210120-22:47:50.657|56=MA|10=175|8=FIX.4.4|9=58|35=0|34=159|49=T1Kauaiblk4|52=20210120-22:49:20.658|56=MA|10=176|8=FIX.4.4|9=58|35=0|34=160|49=T1Kauaiblk4|52=20210120-22:50:50.659|56=MA|10=164|8=FIX.4.4|9=58|35=0|34=161|49=T1Kauaiblk4|52=20210120-22:52:20.660|56=MA|10=156|8=FIX.4.4|9=58|35=0|34=162|49=T1Kauaiblk4|52=20210120-22:53:50.661|56=MA|10=162|8=FIX.4.4|9=58|35=0|34=163|49=T1Kauaiblk4|52=20210120-22:55:20.663|56=MA|10=164|8=FIX.4.4|9=58|35=0|34=164|49=T1Kauaiblk4|52=20210120-22:56:50.664|56=MA|10=170|8=FIX.4.4|9=58|35=0|34=165|49=T1Kauaiblk4|52=20210120-22:58:20.665|56=MA|10=171|8=FIX.4.4|9=58|35=0|34=166|49=T1Kauaiblk4|52=20210120-22:59:50.666|56=MA|10=177|8=FIX.4.4|9=58|35=0|34=167|49=T1Kauaiblk4|52=20210120-23:01:20.669|56=MA|10=166|8=FIX.4.4|9=58|35=0|34=168|49=T1Kauaiblk4|52=20210120-23:02:50.669|56=MA|10=171|8=FIX.4.4|9=58|35=0|34=169|49=T1Kauaiblk4|52=20210120-23:04:20.670|56=MA|10=163|8=FIX.4.4|9=58|35=5|34=170|49=T1Kauaiblk4|52=20210120-23:05:01.172|56=MA|10=157|8=FIX.4.4|9=91|35=A|34=1|49=T1Kauaiblk4|52=20210121-08:12:29.953|56=MA|98=0|108=90|95=8|96=3.0.0rc5|141=Y|10=040|8=FIX.4.4|9=56|35=0|34=2|49=T1Kauaiblk4|52=20210121-08:13:59.953|56=MA|10=071|8=FIX.4.4|9=56|35=0|34=3|49=T1Kauaiblk4|52=20210121-08:15:29.953|56=MA|10=071|8=FIX.4.4|9=56|35=0|34=4|49=T1Kauaiblk4|52=20210121-08:16:59.954|56=MA|10=077|8=FIX.4.4|9=2117|35=E|34=5|49=T1Kauaiblk4|52=20210121-08:17:01.595|56=MA|66=ListID-210121-1411|394=2|68=20|73=20|11=ClOrdID-1412|22=4|38=100000|48=US06051GEN51|54=1|55=[N/A/]|67=1|423=1|453=1|448=T1Kauaiblk4|447=C|452=11|11=ClOrdID-1413|22=4|38=100000|48=US40434AAB52|54=1|55=[N/A]|67=2|11=ClOrdID-1414|22=4|38=130000|48=US06738JYZ10|54=1|55=[N/A/]|67=3|453=1|448=T1Kauaiblk4|447=C|452=11|11=ClOrdID-1415|22=4|38=250000|48=US95709TAH32|54=1|55=[N/A/]|67=4|453=1|448=T1Kauaiblk4|447=C|452=11|11=ClOrdID-1416|22=4|38=350000|48=US29379VAW37|54=1|55=[N/A/]|67=5|453=1|448=T1Kauaiblk4|447=C|452=11|11=ClOrdID-1417|22=4|38=350000|48=US48121ECC49|54=1|55=[N/A/]|67=6|453=1|448=T1Kauaiblk4|447=C|452=11|11=ClOrdID-1418|22=4|38=350000|48=US983024AL46|54=1|55=[N/A/]|67=7|453=1|448=T1Kauaiblk4|447=C|452=11|11=ClOrdID-1419|22=4|38=350000|48=US61166WAE12|54=1|55=[N/A/]|67=8|453=1|448=T1Kauaiblk4|447=C|452=11|11=ClOrdID-1420|22=4|38=350000|48=US000828JAM09|54=1|55=[N/A/]|67=9|453=1|448=T1Kauaiblk4|447=C|452=11|11=ClOrdID-1421|22=4|38=350000|48=US62630CAR25|54=1|55=[N/A/]|67=10|453=1|448=T1Kauaiblk4|447=C|452=11|11=ClOrdID-1422|22=4|38=350000|48=US05379BAK35|54=1|55=[N/A/]|67=11|453=1|448=T1Kauaiblk4|447=C|452=11|11=ClOrdID-1423|22=4|38=350000|48=US368710AC32|54=1|55=[N/A/]|67=12|453=1|448=T1Kauaiblk4|447=C|452=11|11=ClOrdID-1424|22=4|38=350000|48=XS1186833239|54=1|55=[N/A/]|67=13|453=1|448=T1Kauaiblk4|447=C|452=11|11=ClOrdID-1425|22=4|38=350000|48=US842400FC28|54=1|55=[N/A/]|67=14|453=1|448=T1Kauaiblk4|447=C|452=11|11=ClOrdID-1426|22=4|38=350000|48=US927804FA70|54=1|55=[N/A/]|67=15|453=1|448=T1Kauaiblk4|447=C|452=11|11=ClOrdID-1427|22=4|38=350000|48=US472319AC60|54=1|55=[N/A/]|67=16|453=1|448=T1Kauaiblk4|447=C|452=11|11=ClOrdID-1428|22=4|38=350000|48=US93884PDN78|54=1|55=[N/A/]|67=17|453=1|448=T1Kauaiblk4|447=C|452=11|11=ClOrdID-1429|22=4|38=350000|48=US06050XWS88|54=1|55=[N/A/]|67=8|453=1|448=T1Kauaiblk4|447=C|452=11|11=ClOrdID-1430|22=4|38=350000|48=US87425EAJ29|54=1|55=[N/A/]|67=19|453=1|448=T1Kauaiblk4|447=C|452=11|11=ClOrdID-1431|22=4|38=350000|48=US816300AG24|54=1|55=[N/A/]|67=20|453=1|448=T1Kauaiblk4|447=C|452=11|10=092|8=FIX.4.4|9=2117|35=E|34=6|49=T1Kauaiblk4|52=20210121-08:17:50.326|56=MA|66=ListID-210121-1432|394=2|68=20|73=20|11=ClOrdID-1433|22=4|38=100000|48=US06051GEN51|54=1|55=[N/A/]|67=1|423=1|453=1|448=T1Kauaiblk4|447=C|452=11|11=ClOrdID-1434|22=4|38=100000|48=US40434AAB52|54=1|55=[N/A]|67=2|11=ClOrdID-1435|22=4|38=130000|48=US06738JYZ10|54=1|55=[N/A/]|67=3|453=1|448=T1Kauaiblk4|447=C|452=11|11=ClOrdID-1436|22=4|38=250000|48=US95709TAH32|54=1|55=[N/A/]|67=4|453=1|448=T1Kauaiblk4|447=C|452=11|11=ClOrdID-1437|22=4|38=350000|48=US29379VAW37|54=1|55=[N/A/]|67=5|453=1|448=T1Kauaiblk4|447=C|452=11|11=ClOrdID-1438|22=4|38=350000|48=US48121ECC49|54=1|55=[N/A/]|67=6|453=1|448=T1Kauaiblk4|447=C|452=11|11=ClOrdID-1439|22=4|38=350000|48=US983024AL46|54=1|55=[N/A/]|67=7|453=1|448=T1Kauaiblk4|447=C|452=11|11=ClOrdID-1440|22=4|38=350000|48=US61166WAE12|54=1|55=[N/A/]|67=8|453=1|448=T1Kauaiblk4|447=C|452=11|11=ClOrdID-1441|22=4|38=350000|48=US000828JAM09|54=1|55=[N/A/]|67=9|453=1|448=T1Kauaiblk4|447=C|452=11|11=ClOrdID-1442|22=4|38=350000|48=US62630CAR25|54=1|55=[N/A/]|67=10|453=1|448=T1Kauaiblk4|447=C|452=11|11=ClOrdID-1443|22=4|38=350000|48=US05379BAK35|54=1|55=[N/A/]|67=11|453=1|448=T1Kauaiblk4|447=C|452=11|11=ClOrdID-1444|22=4|38=350000|48=US368710AC32|54=1|55=[N/A/]|67=12|453=1|448=T1Kauaiblk4|447=C|452=11|11=ClOrdID-1445|22=4|38=350000|48=XS1186833239|54=1|55=[N/A/]|67=13|453=1|448=T1Kauaiblk4|447=C|452=11|11=ClOrdID-1446|22=4|38=350000|48=US842400FC28|54=1|55=[N/A/]|67=14|453=1|448=T1Kauaiblk4|447=C|452=11|11=ClOrdID-1447|22=4|38=350000|48=US927804FA70|54=1|55=[N/A/]|67=15|453=1|448=T1Kauaiblk4|447=C|452=11|11=ClOrdID-1448|22=4|38=350000|48=US472319AC60|54=1|55=[N/A/]|67=16|453=1|448=T1Kauaiblk4|447=C|452=11|11=ClOrdID-1449|22=4|38=350000|48=US93884PDN78|54=1|55=[N/A/]|67=17|453=1|448=T1Kauaiblk4|447=C|452=11|11=ClOrdID-1450|22=4|38=350000|48=US06050XWS88|54=1|55=[N/A/]|67=8|453=1|448=T1Kauaiblk4|447=C|452=11|11=ClOrdID-1451|22=4|38=350000|48=US87425EAJ29|54=1|55=[N/A/]|67=19|453=1|448=T1Kauaiblk4|447=C|452=11|11=ClOrdID-1452|22=4|38=350000|48=US816300AG24|54=1|55=[N/A/]|67=20|453=1|448=T1Kauaiblk4|447=C|452=11|10=134|8=FIX.4.4|9=2117|35=E|34=7|49=T1Kauaiblk4|52=20210121-08:18:14.086|56=MA|66=ListID-210121-1453|394=2|68=20|73=20|11=ClOrdID-1454|22=4|38=100000|48=US06051GEN51|54=1|55=[N/A/]|67=1|423=1|453=1|448=T1Kauaiblk4|447=C|452=11|11=ClOrdID-1455|22=4|38=100000|48=US40434AAB52|54=1|55=[N/A]|67=2|11=ClOrdID-1456|22=4|38=130000|48=US06738JYZ10|54=1|55=[N/A/]|67=3|453=1|448=T1Kauaiblk4|447=C|452=11|11=ClOrdID-1457|22=4|38=250000|48=US95709TAH32|54=1|55=[N/A/]|67=4|453=1|448=T1Kauaiblk4|447=C|452=11|11=ClOrdID-1458|22=4|38=350000|48=US29379VAW37|54=1|55=[N/A/]|67=5|453=1|448=T1Kauaiblk4|447=C|452=11|11=ClOrdID-1459|22=4|38=350000|48=US48121ECC49|54=1|55=[N/A/]|67=6|453=1|448=T1Kauaiblk4|447=C|452=11|11=ClOrdID-1460|22=4|38=350000|48=US983024AL46|54=1|55=[N/A/]|67=7|453=1|448=T1Kauaiblk4|447=C|452=11|11=ClOrdID-1461|22=4|38=350000|48=US61166WAE12|54=1|55=[N/A/]|67=8|453=1|448=T1Kauaiblk4|447=C|452=11|11=ClOrdID-1462|22=4|38=350000|48=US000828JAM09|54=1|55=[N/A/]|67=9|453=1|448=T1Kauaiblk4|447=C|452=11|11=ClOrdID-1463|22=4|38=350000|48=US62630CAR25|54=1|55=[N/A/]|67=10|453=1|448=T1Kauaiblk4|447=C|452=11|11=ClOrdID-1464|22=4|38=350000|48=US05379BAK35|54=1|55=[N/A/]|67=11|453=1|448=T1Kauaiblk4|447=C|452=11|11=ClOrdID-1465|22=4|38=350000|48=US368710AC32|54=1|55=[N/A/]|67=12|453=1|448=T1Kauaiblk4|447=C|452=11|11=ClOrdID-1466|22=4|38=350000|48=XS1186833239|54=1|55=[N/A/]|67=13|453=1|448=T1Kauaiblk4|447=C|452=11|11=ClOrdID-1467|22=4|38=350000|48=US842400FC28|54=1|55=[N/A/]|67=14|453=1|448=T1Kauaiblk4|447=C|452=11|11=ClOrdID-1468|22=4|38=350000|48=US927804FA70|54=1|55=[N/A/]|67=15|453=1|448=T1Kauaiblk4|447=C|452=11|11=ClOrdID-1469|22=4|38=350000|48=US472319AC60|54=1|55=[N/A/]|67=16|453=1|448=T1Kauaiblk4|447=C|452=11|11=ClOrdID-1470|22=4|38=350000|48=US93884PDN78|54=1|55=[N/A/]|67=17|453=1|448=T1Kauaiblk4|447=C|452=11|11=ClOrdID-1471|22=4|38=350000|48=US06050XWS88|54=1|55=[N/A/]|67=8|453=1|448=T1Kauaiblk4|447=C|452=11|11=ClOrdID-1472|22=4|38=350000|48=US87425EAJ29|54=1|55=[N/A/]|67=19|453=1|448=T1Kauaiblk4|447=C|452=11|11=ClOrdID-1473|22=4|38=350000|48=US816300AG24|54=1|55=[N/A/]|67=20|453=1|448=T1Kauaiblk4|447=C|452=11|10=184|8=FIX.4.4|9=56|35=0|34=8|49=T1Kauaiblk4|52=20210121-08:19:44.955|56=MA|10=079|8=FIX.4.4|9=56|35=0|34=9|49=T1Kauaiblk4|52=20210121-08:21:14.955|56=MA|10=070|8=FIX.4.4|9=57|35=0|34=10|49=T1Kauaiblk4|52=20210121-08:22:44.955|56=MA|10=115|8=FIX.4.4|9=57|35=0|34=11|49=T1Kauaiblk4|52=20210121-08:24:14.956|56=MA|10=116|8=FIX.4.4|9=57|35=0|34=12|49=T1Kauaiblk4|52=20210121-08:25:45.955|56=MA|10=121|8=FIX.4.4|9=57|35=0|34=13|49=T1Kauaiblk4|52=20210121-08:27:15.956|56=MA|10=122|8=FIX.4.4|9=57|35=0|34=14|49=T1Kauaiblk4|52=20210121-08:28:45.956|56=MA|10=127|8=FIX.4.4|9=57|35=0|34=15|49=T1Kauaiblk4|52=20210121-08:30:15.957|56=MA|10=119|8=FIX.4.4|9=57|35=0|34=16|49=T1Kauaiblk4|52=20210121-08:31:46.956|56=MA|10=124|8=FIX.4.4|9=57|35=0|34=17|49=T1Kauaiblk4|52=20210121-08:33:16.957|56=MA|10=125|8=FIX.4.4|9=57|35=0|34=18|49=T1Kauaiblk4|52=20210121-08:34:46.958|56=MA|10=131|8=FIX.4.4|9=57|35=0|34=19|49=T1Kauaiblk4|52=20210121-08:36:16.958|56=MA|10=131|8=FIX.4.4|9=57|35=0|34=20|49=T1Kauaiblk4|52=20210121-08:37:46.958|56=MA|10=127|8=FIX.4.4|9=57|35=0|34=21|49=T1Kauaiblk4|52=20210121-08:39:16.958|56=MA|10=127|8=FIX.4.4|9=57|35=0|34=22|49=T1Kauaiblk4|52=20210121-08:40:46.958|56=MA|10=123|8=FIX.4.4|9=57|35=0|34=23|49=T1Kauaiblk4|52=20210121-08:42:16.959|56=MA|10=124|8=FIX.4.4|9=57|35=0|34=24|49=T1Kauaiblk4|52=20210121-08:43:46.959|56=MA|10=129|8=FIX.4.4|9=57|35=0|34=25|49=T1Kauaiblk4|52=20210121-08:45:16.959|56=MA|10=129|8=FIX.4.4|9=2118|35=E|34=26|49=T1Kauaiblk4|52=20210121-08:45:20.862|56=MA|66=ListID-210121-1474|394=2|68=20|73=20|11=ClOrdID-1475|22=4|38=100000|48=US06051GEN51|54=1|55=[N/A/]|67=1|423=1|453=1|448=T1Kauaiblk4|447=C|452=11|11=ClOrdID-1476|22=4|38=100000|48=US40434AAB52|54=1|55=[N/A]|67=2|11=ClOrdID-1477|22=4|38=130000|48=US06738JYZ10|54=1|55=[N/A/]|67=3|453=1|448=T1Kauaiblk4|447=C|452=11|11=ClOrdID-1478|22=4|38=250000|48=US95709TAH32|54=1|55=[N/A/]|67=4|453=1|448=T1Kauaiblk4|447=C|452=11|11=ClOrdID-1479|22=4|38=350000|48=US29379VAW37|54=1|55=[N/A/]|67=5|453=1|448=T1Kauaiblk4|447=C|452=11|11=ClOrdID-1480|22=4|38=350000|48=US48121ECC49|54=1|55=[N/A/]|67=6|453=1|448=T1Kauaiblk4|447=C|452=11|11=ClOrdID-1481|22=4|38=350000|48=US983024AL46|54=1|55=[N/A/]|67=7|453=1|448=T1Kauaiblk4|447=C|452=11|11=ClOrdID-1482|22=4|38=350000|48=US61166WAE12|54=1|55=[N/A/]|67=8|453=1|448=T1Kauaiblk4|447=C|452=11|11=ClOrdID-1483|22=4|38=350000|48=US000828JAM09|54=1|55=[N/A/]|67=9|453=1|448=T1Kauaiblk4|447=C|452=11|11=ClOrdID-1484|22=4|38=350000|48=US62630CAR25|54=1|55=[N/A/]|67=10|453=1|448=T1Kauaiblk4|447=C|452=11|11=ClOrdID-1485|22=4|38=350000|48=US05379BAK35|54=1|55=[N/A/]|67=11|453=1|448=T1Kauaiblk4|447=C|452=11|11=ClOrdID-1486|22=4|38=350000|48=US368710AC32|54=1|55=[N/A/]|67=12|453=1|448=T1Kauaiblk4|447=C|452=11|11=ClOrdID-1487|22=4|38=350000|48=XS1186833239|54=1|55=[N/A/]|67=13|453=1|448=T1Kauaiblk4|447=C|452=11|11=ClOrdID-1488|22=4|38=350000|48=US842400FC28|54=1|55=[N/A/]|67=14|453=1|448=T1Kauaiblk4|447=C|452=11|11=ClOrdID-1489|22=4|38=350000|48=US927804FA70|54=1|55=[N/A/]|67=15|453=1|448=T1Kauaiblk4|447=C|452=11|11=ClOrdID-1490|22=4|38=350000|48=US472319AC60|54=1|55=[N/A/]|67=16|453=1|448=T1Kauaiblk4|447=C|452=11|11=ClOrdID-1491|22=4|38=350000|48=US93884PDN78|54=1|55=[N/A/]|67=17|453=1|448=T1Kauaiblk4|447=C|452=11|11=ClOrdID-1492|22=4|38=350000|48=US06050XWS88|54=1|55=[N/A/]|67=8|453=1|448=T1Kauaiblk4|447=C|452=11|11=ClOrdID-1493|22=4|38=350000|48=US87425EAJ29|54=1|55=[N/A/]|67=19|453=1|448=T1Kauaiblk4|447=C|452=11|11=ClOrdID-1494|22=4|38=350000|48=US816300AG24|54=1|55=[N/A/]|67=20|453=1|448=T1Kauaiblk4|447=C|452=11|10=022|8=FIX.4.4|9=57|35=0|34=27|49=T1Kauaiblk4|52=20210121-08:46:50.960|56=MA|10=122|8=FIX.4.4|9=57|35=0|34=28|49=T1Kauaiblk4|52=20210121-08:48:20.960|56=MA|10=122|8=FIX.4.4|9=57|35=0|34=29|49=T1Kauaiblk4|52=20210121-08:49:50.960|56=MA|10=127|8=FIX.4.4|9=57|35=0|34=30|49=T1Kauaiblk4|52=20210121-08:51:20.961|56=MA|10=110|8=FIX.4.4|9=57|35=0|34=31|49=T1Kauaiblk4|52=20210121-08:52:50.961|56=MA|10=115|8=FIX.4.4|9=57|35=0|34=32|49=T1Kauaiblk4|52=20210121-08:54:20.963|56=MA|10=117|8=FIX.4.4|9=57|35=0|34=33|49=T1Kauaiblk4|52=20210121-08:55:50.963|56=MA|10=122|8=FIX.4.4|9=57|35=0|34=34|49=T1Kauaiblk4|52=20210121-08:57:20.963|56=MA|10=122|8=FIX.4.4|9=57|35=0|34=35|49=T1Kauaiblk4|52=20210121-08:58:50.963|56=MA|10=127|8=FIX.4.4|9=57|35=0|34=36|49=T1Kauaiblk4|52=20210121-09:00:21.962|56=MA|10=113|8=FIX.4.4|9=57|35=0|34=37|49=T1Kauaiblk4|52=20210121-09:01:51.962|56=MA|10=118|8=FIX.4.4|9=57|35=0|34=38|49=T1Kauaiblk4|52=20210121-09:03:21.963|56=MA|10=119|8=FIX.4.4|9=57|35=0|34=39|49=T1Kauaiblk4|52=20210121-09:04:51.965|56=MA|10=126|8=FIX.4.4|9=57|35=0|34=40|49=T1Kauaiblk4|52=20210121-09:06:22.965|56=MA|10=118|8=FIX.4.4|9=57|35=0|34=41|49=T1Kauaiblk4|52=20210121-09:07:53.964|56=MA|10=123|8=FIX.4.4|9=57|35=0|34=42|49=T1Kauaiblk4|52=20210121-09:09:23.964|56=MA|10=123|8=FIX.4.4|9=57|35=0|34=43|49=T1Kauaiblk4|52=20210121-09:10:53.964|56=MA|10=119|8=FIX.4.4|9=57|35=0|34=44|49=T1Kauaiblk4|52=20210121-09:12:23.965|56=MA|10=120|8=FIX.4.4|9=57|35=0|34=45|49=T1Kauaiblk4|52=20210121-09:13:53.965|56=MA|10=125|8=FIX.4.4|9=57|35=0|34=46|49=T1Kauaiblk4|52=20210121-09:15:23.967|56=MA|10=127|8=FIX.4.4|9=57|35=0|34=47|49=T1Kauaiblk4|52=20210121-09:16:54.965|56=MA|10=131|8=FIX.4.4|9=57|35=0|34=48|49=T1Kauaiblk4|52=20210121-09:18:24.967|56=MA|10=133|8=FIX.4.4|9=57|35=0|34=49|49=T1Kauaiblk4|52=20210121-09:19:55.967|56=MA|10=139|8=FIX.4.4|9=57|35=0|34=50|49=T1Kauaiblk4|52=20210121-09:21:26.966|56=MA|10=121|8=FIX.4.4|9=57|35=0|34=51|49=T1Kauaiblk4|52=20210121-09:22:56.967|56=MA|10=127|8=FIX.4.4|9=57|35=0|34=52|49=T1Kauaiblk4|52=20210121-09:24:26.967|56=MA|10=127|8=FIX.4.4|9=57|35=0|34=53|49=T1Kauaiblk4|52=20210121-09:25:56.967|56=MA|10=132|8=FIX.4.4|9=57|35=0|34=54|49=T1Kauaiblk4|52=20210121-09:27:26.967|56=MA|10=132|8=FIX.4.4|9=57|35=0|34=55|49=T1Kauaiblk4|52=20210121-09:28:56.969|56=MA|10=139|8=FIX.4.4|9=57|35=0|34=56|49=T1Kauaiblk4|52=20210121-09:30:26.970|56=MA|10=122|8=FIX.4.4|9=57|35=0|34=57|49=T1Kauaiblk4|52=20210121-09:31:57.969|56=MA|10=136|8=FIX.4.4|9=57|35=0|34=58|49=T1Kauaiblk4|52=20210121-09:33:27.969|56=MA|10=136|8=FIX.4.4|9=57|35=0|34=59|49=T1Kauaiblk4|52=20210121-09:34:57.969|56=MA|10=141|8=FIX.4.4|9=57|35=0|34=60|49=T1Kauaiblk4|52=20210121-09:36:27.970|56=MA|10=124|8=FIX.4.4|9=57|35=0|34=61|49=T1Kauaiblk4|52=20210121-09:37:58.970|56=MA|10=130|8=FIX.4.4|9=57|35=0|34=62|49=T1Kauaiblk4|52=20210121-09:39:28.970|56=MA|10=130|8=FIX.4.4|9=57|35=0|34=63|49=T1Kauaiblk4|52=20210121-09:40:58.970|56=MA|10=126|8=FIX.4.4|9=57|35=0|34=64|49=T1Kauaiblk4|52=20210121-09:42:28.970|56=MA|10=126|8=FIX.4.4|9=57|35=0|34=65|49=T1Kauaiblk4|52=20210121-09:43:58.971|56=MA|10=132|8=FIX.4.4|9=57|35=0|34=66|49=T1Kauaiblk4|52=20210121-09:45:28.972|56=MA|10=133|8=FIX.4.4|9=57|35=0|34=67|49=T1Kauaiblk4|52=20210121-09:46:59.972|56=MA|10=139|8=FIX.4.4|9=57|35=0|34=68|49=T1Kauaiblk4|52=20210121-09:48:29.972|56=MA|10=139|8=FIX.4.4|9=57|35=0|34=69|49=T1Kauaiblk4|52=20210121-09:49:59.972|56=MA|10=144|8=FIX.4.4|9=57|35=0|34=70|49=T1Kauaiblk4|52=20210121-09:51:29.973|56=MA|10=127|8=FIX.4.4|9=57|35=0|34=71|49=T1Kauaiblk4|52=20210121-09:53:00.972|56=MA|10=118|8=FIX.4.4|9=57|35=0|34=72|49=T1Kauaiblk4|52=20210121-09:54:30.972|56=MA|10=123|8=FIX.4.4|9=57|35=0|34=73|49=T1Kauaiblk4|52=20210121-09:56:00.973|56=MA|10=124|8=FIX.4.4|9=57|35=0|34=74|49=T1Kauaiblk4|52=20210121-09:57:30.974|56=MA|10=130|8=FIX.4.4|9=57|35=0|34=75|49=T1Kauaiblk4|52=20210121-09:59:01.974|56=MA|10=131|8=FIX.4.4|9=57|35=0|34=76|49=T1Kauaiblk4|52=20210121-10:00:32.974|56=MA|10=114|8=FIX.4.4|9=57|35=0|34=77|49=T1Kauaiblk4|52=20210121-10:02:02.974|56=MA|10=114|8=FIX.4.4|9=57|35=0|34=78|49=T1Kauaiblk4|52=20210121-10:03:32.974|56=MA|10=119|8=FIX.4.4|9=57|35=0|34=79|49=T1Kauaiblk4|52=20210121-10:05:02.974|56=MA|10=119|8=FIX.4.4|9=57|35=0|34=80|49=T1Kauaiblk4|52=20210121-10:06:32.975|56=MA|10=116|8=FIX.4.4|9=57|35=0|34=81|49=T1Kauaiblk4|52=20210121-10:08:02.975|56=MA|10=116|8=FIX.4.4|9=57|35=0|34=82|49=T1Kauaiblk4|52=20210121-10:09:32.975|56=MA|10=121|8=FIX.4.4|9=57|35=0|34=83|49=T1Kauaiblk4|52=20210121-10:11:02.975|56=MA|10=112|8=FIX.4.4|9=57|35=0|34=84|49=T1Kauaiblk4|52=20210121-10:12:32.977|56=MA|10=119|8=FIX.4.4|9=57|35=0|34=85|49=T1Kauaiblk4|52=20210121-10:14:02.977|56=MA|10=119|8=FIX.4.4|9=57|35=0|34=86|49=T1Kauaiblk4|52=20210121-10:15:32.978|56=MA|10=125|8=FIX.4.4|9=57|35=0|34=87|49=T1Kauaiblk4|52=20210121-10:17:03.977|56=MA|10=125|8=FIX.4.4|9=57|35=0|34=88|49=T1Kauaiblk4|52=20210121-10:18:33.977|56=MA|10=130|8=FIX.4.4|9=57|35=0|34=89|49=T1Kauaiblk4|52=20210121-10:20:03.978|56=MA|10=122|8=FIX.4.4|9=57|35=0|34=90|49=T1Kauaiblk4|52=20210121-10:21:34.977|56=MA|10=118|8=FIX.4.4|9=57|35=0|34=91|49=T1Kauaiblk4|52=20210121-10:23:04.978|56=MA|10=119|8=FIX.4.4|9=57|35=0|34=92|49=T1Kauaiblk4|52=20210121-10:24:34.979|56=MA|10=125|8=FIX.4.4|9=57|35=0|34=93|49=T1Kauaiblk4|52=20210121-10:26:05.978|56=MA|10=125|8=FIX.4.4|9=57|35=5|34=94|49=T1Kauaiblk4|52=20210121-10:27:32.978|56=MA|10=132|8=FIX.4.4|9=91|35=A|34=1|49=T1Kauaiblk4|52=20210121-14:54:25.153|56=MA|98=0|108=90|95=8|96=3.0.0rc5|141=Y|10=031|8=FIX.4.4|9=2117|35=E|34=2|49=T1Kauaiblk4|52=20210121-14:54:29.886|56=MA|66=ListID-210121-1495|394=2|68=20|73=20|11=ClOrdID-1496|22=4|38=100000|48=US06051GEN51|54=1|55=[N/A/]|67=1|423=1|453=1|448=T1Kauaiblk4|447=C|452=11|11=ClOrdID-1497|22=4|38=100000|48=US40434AAB52|54=1|55=[N/A]|67=2|11=ClOrdID-1498|22=4|38=130000|48=US06738JYZ10|54=1|55=[N/A/]|67=3|453=1|448=T1Kauaiblk4|447=C|452=11|11=ClOrdID-1499|22=4|38=250000|48=US95709TAH32|54=1|55=[N/A/]|67=4|453=1|448=T1Kauaiblk4|447=C|452=11|11=ClOrdID-1500|22=4|38=350000|48=US29379VAW37|54=1|55=[N/A/]|67=5|453=1|448=T1Kauaiblk4|447=C|452=11|11=ClOrdID-1501|22=4|38=350000|48=US48121ECC49|54=1|55=[N/A/]|67=6|453=1|448=T1Kauaiblk4|447=C|452=11|11=ClOrdID-1502|22=4|38=350000|48=US983024AL46|54=1|55=[N/A/]|67=7|453=1|448=T1Kauaiblk4|447=C|452=11|11=ClOrdID-1503|22=4|38=350000|48=US61166WAE12|54=1|55=[N/A/]|67=8|453=1|448=T1Kauaiblk4|447=C|452=11|11=ClOrdID-1504|22=4|38=350000|48=US000828JAM09|54=1|55=[N/A/]|67=9|453=1|448=T1Kauaiblk4|447=C|452=11|11=ClOrdID-1505|22=4|38=350000|48=US62630CAR25|54=1|55=[N/A/]|67=10|453=1|448=T1Kauaiblk4|447=C|452=11|11=ClOrdID-1506|22=4|38=350000|48=US05379BAK35|54=1|55=[N/A/]|67=11|453=1|448=T1Kauaiblk4|447=C|452=11|11=ClOrdID-1507|22=4|38=350000|48=US368710AC32|54=1|55=[N/A/]|67=12|453=1|448=T1Kauaiblk4|447=C|452=11|11=ClOrdID-1508|22=4|38=350000|48=XS1186833239|54=1|55=[N/A/]|67=13|453=1|448=T1Kauaiblk4|447=C|452=11|11=ClOrdID-1509|22=4|38=350000|48=US842400FC28|54=1|55=[N/A/]|67=14|453=1|448=T1Kauaiblk4|447=C|452=11|11=ClOrdID-1510|22=4|38=350000|48=US927804FA70|54=1|55=[N/A/]|67=15|453=1|448=T1Kauaiblk4|447=C|452=11|11=ClOrdID-1511|22=4|38=350000|48=US472319AC60|54=1|55=[N/A/]|67=16|453=1|448=T1Kauaiblk4|447=C|452=11|11=ClOrdID-1512|22=4|38=350000|48=US93884PDN78|54=1|55=[N/A/]|67=17|453=1|448=T1Kauaiblk4|447=C|452=11|11=ClOrdID-1513|22=4|38=350000|48=US06050XWS88|54=1|55=[N/A/]|67=8|453=1|448=T1Kauaiblk4|447=C|452=11|11=ClOrdID-1514|22=4|38=350000|48=US87425EAJ29|54=1|55=[N/A/]|67=19|453=1|448=T1Kauaiblk4|447=C|452=11|11=ClOrdID-1515|22=4|38=350000|48=US816300AG24|54=1|55=[N/A/]|67=20|453=1|448=T1Kauaiblk4|447=C|452=11|10=136|8=FIX.4.4|9=2117|35=E|34=3|49=T1Kauaiblk4|52=20210121-14:54:45.105|56=MA|66=ListID-210121-1516|394=2|68=20|73=20|11=ClOrdID-1517|22=4|38=100000|48=US06051GEN51|54=1|55=[N/A/]|67=1|423=1|453=1|448=T1Kauaiblk4|447=C|452=11|11=ClOrdID-1518|22=4|38=100000|48=US40434AAB52|54=1|55=[N/A]|67=2|11=ClOrdID-1519|22=4|38=130000|48=US06738JYZ10|54=1|55=[N/A/]|67=3|453=1|448=T1Kauaiblk4|447=C|452=11|11=ClOrdID-1520|22=4|38=250000|48=US95709TAH32|54=1|55=[N/A/]|67=4|453=1|448=T1Kauaiblk4|447=C|452=11|11=ClOrdID-1521|22=4|38=350000|48=US29379VAW37|54=1|55=[N/A/]|67=5|453=1|448=T1Kauaiblk4|447=C|452=11|11=ClOrdID-1522|22=4|38=350000|48=US48121ECC49|54=1|55=[N/A/]|67=6|453=1|448=T1Kauaiblk4|447=C|452=11|11=ClOrdID-1523|22=4|38=350000|48=US983024AL46|54=1|55=[N/A/]|67=7|453=1|448=T1Kauaiblk4|447=C|452=11|11=ClOrdID-1524|22=4|38=350000|48=US61166WAE12|54=1|55=[N/A/]|67=8|453=1|448=T1Kauaiblk4|447=C|452=11|11=ClOrdID-1525|22=4|38=350000|48=US000828JAM09|54=1|55=[N/A/]|67=9|453=1|448=T1Kauaiblk4|447=C|452=11|11=ClOrdID-1526|22=4|38=350000|48=US62630CAR25|54=1|55=[N/A/]|67=10|453=1|448=T1Kauaiblk4|447=C|452=11|11=ClOrdID-1527|22=4|38=350000|48=US05379BAK35|54=1|55=[N/A/]|67=11|453=1|448=T1Kauaiblk4|447=C|452=11|11=ClOrdID-1528|22=4|38=350000|48=US368710AC32|54=1|55=[N/A/]|67=12|453=1|448=T1Kauaiblk4|447=C|452=11|11=ClOrdID-1529|22=4|38=350000|48=XS1186833239|54=1|55=[N/A/]|67=13|453=1|448=T1Kauaiblk4|447=C|452=11|11=ClOrdID-1530|22=4|38=350000|48=US842400FC28|54=1|55=[N/A/]|67=14|453=1|448=T1Kauaiblk4|447=C|452=11|11=ClOrdID-1531|22=4|38=350000|48=US927804FA70|54=1|55=[N/A/]|67=15|453=1|448=T1Kauaiblk4|447=C|452=11|11=ClOrdID-1532|22=4|38=350000|48=US472319AC60|54=1|55=[N/A/]|67=16|453=1|448=T1Kauaiblk4|447=C|452=11|11=ClOrdID-1533|22=4|38=350000|48=US93884PDN78|54=1|55=[N/A/]|67=17|453=1|448=T1Kauaiblk4|447=C|452=11|11=ClOrdID-1534|22=4|38=350000|48=US06050XWS88|54=1|55=[N/A/]|67=8|453=1|448=T1Kauaiblk4|447=C|452=11|11=ClOrdID-1535|22=4|38=350000|48=US87425EAJ29|54=1|55=[N/A/]|67=19|453=1|448=T1Kauaiblk4|447=C|452=11|11=ClOrdID-1536|22=4|38=350000|48=US816300AG24|54=1|55=[N/A/]|67=20|453=1|448=T1Kauaiblk4|447=C|452=11|10=119|8=FIX.4.4|9=2117|35=E|34=4|49=T1Kauaiblk4|52=20210121-14:54:57.232|56=MA|66=ListID-210121-1537|394=2|68=20|73=20|11=ClOrdID-1538|22=4|38=100000|48=US06051GEN51|54=1|55=[N/A/]|67=1|423=1|453=1|448=T1Kauaiblk4|447=C|452=11|11=ClOrdID-1539|22=4|38=100000|48=US40434AAB52|54=1|55=[N/A]|67=2|11=ClOrdID-1540|22=4|38=130000|48=US06738JYZ10|54=1|55=[N/A/]|67=3|453=1|448=T1Kauaiblk4|447=C|452=11|11=ClOrdID-1541|22=4|38=250000|48=US95709TAH32|54=1|55=[N/A/]|67=4|453=1|448=T1Kauaiblk4|447=C|452=11|11=ClOrdID-1542|22=4|38=350000|48=US29379VAW37|54=1|55=[N/A/]|67=5|453=1|448=T1Kauaiblk4|447=C|452=11|11=ClOrdID-1543|22=4|38=350000|48=US48121ECC49|54=1|55=[N/A/]|67=6|453=1|448=T1Kauaiblk4|447=C|452=11|11=ClOrdID-1544|22=4|38=350000|48=US983024AL46|54=1|55=[N/A/]|67=7|453=1|448=T1Kauaiblk4|447=C|452=11|11=ClOrdID-1545|22=4|38=350000|48=US61166WAE12|54=1|55=[N/A/]|67=8|453=1|448=T1Kauaiblk4|447=C|452=11|11=ClOrdID-1546|22=4|38=350000|48=US000828JAM09|54=1|55=[N/A/]|67=9|453=1|448=T1Kauaiblk4|447=C|452=11|11=ClOrdID-1547|22=4|38=350000|48=US62630CAR25|54=1|55=[N/A/]|67=10|453=1|448=T1Kauaiblk4|447=C|452=11|11=ClOrdID-1548|22=4|38=350000|48=US05379BAK35|54=1|55=[N/A/]|67=11|453=1|448=T1Kauaiblk4|447=C|452=11|11=ClOrdID-1549|22=4|38=350000|48=US368710AC32|54=1|55=[N/A/]|67=12|453=1|448=T1Kauaiblk4|447=C|452=11|11=ClOrdID-1550|22=4|38=350000|48=XS1186833239|54=1|55=[N/A/]|67=13|453=1|448=T1Kauaiblk4|447=C|452=11|11=ClOrdID-1551|22=4|38=350000|48=US842400FC28|54=1|55=[N/A/]|67=14|453=1|448=T1Kauaiblk4|447=C|452=11|11=ClOrdID-1552|22=4|38=350000|48=US927804FA70|54=1|55=[N/A/]|67=15|453=1|448=T1Kauaiblk4|447=C|452=11|11=ClOrdID-1553|22=4|38=350000|48=US472319AC60|54=1|55=[N/A/]|67=16|453=1|448=T1Kauaiblk4|447=C|452=11|11=ClOrdID-1554|22=4|38=350000|48=US93884PDN78|54=1|55=[N/A/]|67=17|453=1|448=T1Kauaiblk4|447=C|452=11|11=ClOrdID-1555|22=4|38=350000|48=US06050XWS88|54=1|55=[N/A/]|67=8|453=1|448=T1Kauaiblk4|447=C|452=11|11=ClOrdID-1556|22=4|38=350000|48=US87425EAJ29|54=1|55=[N/A/]|67=19|453=1|448=T1Kauaiblk4|447=C|452=11|11=ClOrdID-1557|22=4|38=350000|48=US816300AG24|54=1|55=[N/A/]|67=20|453=1|448=T1Kauaiblk4|447=C|452=11|10=169|8=FIX.4.4|9=56|35=0|34=5|49=T1Kauaiblk4|52=20210121-14:56:28.154|56=MA|10=067|8=FIX.4.4|9=56|35=0|34=6|49=T1Kauaiblk4|52=20210121-14:57:58.157|56=MA|10=075|8=FIX.4.4|9=56|35=5|34=7|49=T1Kauaiblk4|52=20210121-14:59:28.156|56=MA|10=079|8=FIX.4.4|9=91|35=A|34=1|49=T1Kauaiblk4|52=20210121-15:04:42.159|56=MA|98=0|108=90|95=8|96=3.0.0rc5|141=Y|10=032|8=FIX.4.4|9=2117|35=E|34=2|49=T1Kauaiblk4|52=20210121-15:05:01.121|56=MA|66=ListID-210121-1558|394=2|68=20|73=20|11=ClOrdID-1559|22=4|38=100000|48=US06051GEN51|54=1|55=[N/A/]|67=1|423=1|453=1|448=T1Kauaiblk4|447=C|452=11|11=ClOrdID-1560|22=4|38=100000|48=US40434AAB52|54=1|55=[N/A]|67=2|11=ClOrdID-1561|22=4|38=130000|48=US06738JYZ10|54=1|55=[N/A/]|67=3|453=1|448=T1Kauaiblk4|447=C|452=11|11=ClOrdID-1562|22=4|38=250000|48=US95709TAH32|54=1|55=[N/A/]|67=4|453=1|448=T1Kauaiblk4|447=C|452=11|11=ClOrdID-1563|22=4|38=350000|48=US29379VAW37|54=1|55=[N/A/]|67=5|453=1|448=T1Kauaiblk4|447=C|452=11|11=ClOrdID-1564|22=4|38=350000|48=US48121ECC49|54=1|55=[N/A/]|67=6|453=1|448=T1Kauaiblk4|447=C|452=11|11=ClOrdID-1565|22=4|38=350000|48=US983024AL46|54=1|55=[N/A/]|67=7|453=1|448=T1Kauaiblk4|447=C|452=11|11=ClOrdID-1566|22=4|38=350000|48=US61166WAE12|54=1|55=[N/A/]|67=8|453=1|448=T1Kauaiblk4|447=C|452=11|11=ClOrdID-1567|22=4|38=350000|48=US000828JAM09|54=1|55=[N/A/]|67=9|453=1|448=T1Kauaiblk4|447=C|452=11|11=ClOrdID-1568|22=4|38=350000|48=US62630CAR25|54=1|55=[N/A/]|67=10|453=1|448=T1Kauaiblk4|447=C|452=11|11=ClOrdID-1569|22=4|38=350000|48=US05379BAK35|54=1|55=[N/A/]|67=11|453=1|448=T1Kauaiblk4|447=C|452=11|11=ClOrdID-1570|22=4|38=350000|48=US368710AC32|54=1|55=[N/A/]|67=12|453=1|448=T1Kauaiblk4|447=C|452=11|11=ClOrdID-1571|22=4|38=350000|48=XS1186833239|54=1|55=[N/A/]|67=13|453=1|448=T1Kauaiblk4|447=C|452=11|11=ClOrdID-1572|22=4|38=350000|48=US842400FC28|54=1|55=[N/A/]|67=14|453=1|448=T1Kauaiblk4|447=C|452=11|11=ClOrdID-1573|22=4|38=350000|48=US927804FA70|54=1|55=[N/A/]|67=15|453=1|448=T1Kauaiblk4|447=C|452=11|11=ClOrdID-1574|22=4|38=350000|48=US472319AC60|54=1|55=[N/A/]|67=16|453=1|448=T1Kauaiblk4|447=C|452=11|11=ClOrdID-1575|22=4|38=350000|48=US93884PDN78|54=1|55=[N/A/]|67=17|453=1|448=T1Kauaiblk4|447=C|452=11|11=ClOrdID-1576|22=4|38=350000|48=US06050XWS88|54=1|55=[N/A/]|67=8|453=1|448=T1Kauaiblk4|447=C|452=11|11=ClOrdID-1577|22=4|38=350000|48=US87425EAJ29|54=1|55=[N/A/]|67=19|453=1|448=T1Kauaiblk4|447=C|452=11|11=ClOrdID-1578|22=4|38=350000|48=US816300AG24|54=1|55=[N/A/]|67=20|453=1|448=T1Kauaiblk4|447=C|452=11|10=195|8=FIX.4.4|9=56|35=0|34=3|49=T1Kauaiblk4|52=20210121-15:06:31.162|56=MA|10=054|8=FIX.4.4|9=56|35=0|34=4|49=T1Kauaiblk4|52=20210121-15:08:02.161|56=MA|10=054|8=FIX.4.4|9=56|35=0|34=5|49=T1Kauaiblk4|52=20210121-15:09:32.162|56=MA|10=060|8=FIX.4.4|9=56|35=0|34=6|49=T1Kauaiblk4|52=20210121-15:11:02.162|56=MA|10=051|8=FIX.4.4|9=56|35=0|34=7|49=T1Kauaiblk4|52=20210121-15:12:32.165|56=MA|10=059|8=FIX.4.4|9=2117|35=E|34=8|49=T1Kauaiblk4|52=20210121-15:12:43.179|56=MA|66=ListID-210121-1579|394=2|68=20|73=20|11=ClOrdID-1580|22=4|38=100000|48=US06051GEN51|54=1|55=[N/A/]|67=1|423=1|453=1|448=T1Kauaiblk4|447=C|452=11|11=ClOrdID-1581|22=4|38=100000|48=US40434AAB52|54=1|55=[N/A]|67=2|11=ClOrdID-1582|22=4|38=130000|48=US06738JYZ10|54=1|55=[N/A/]|67=3|453=1|448=T1Kauaiblk4|447=C|452=11|11=ClOrdID-1583|22=4|38=250000|48=US95709TAH32|54=1|55=[N/A/]|67=4|453=1|448=T1Kauaiblk4|447=C|452=11|11=ClOrdID-1584|22=4|38=350000|48=US29379VAW37|54=1|55=[N/A/]|67=5|453=1|448=T1Kauaiblk4|447=C|452=11|11=ClOrdID-1585|22=4|38=350000|48=US48121ECC49|54=1|55=[N/A/]|67=6|453=1|448=T1Kauaiblk4|447=C|452=11|11=ClOrdID-1586|22=4|38=350000|48=US983024AL46|54=1|55=[N/A/]|67=7|453=1|448=T1Kauaiblk4|447=C|452=11|11=ClOrdID-1587|22=4|38=350000|48=US61166WAE12|54=1|55=[N/A/]|67=8|453=1|448=T1Kauaiblk4|447=C|452=11|11=ClOrdID-1588|22=4|38=350000|48=US000828JAM09|54=1|55=[N/A/]|67=9|453=1|448=T1Kauaiblk4|447=C|452=11|11=ClOrdID-1589|22=4|38=350000|48=US62630CAR25|54=1|55=[N/A/]|67=10|453=1|448=T1Kauaiblk4|447=C|452=11|11=ClOrdID-1590|22=4|38=350000|48=US05379BAK35|54=1|55=[N/A/]|67=11|453=1|448=T1Kauaiblk4|447=C|452=11|11=ClOrdID-1591|22=4|38=350000|48=US368710AC32|54=1|55=[N/A/]|67=12|453=1|448=T1Kauaiblk4|447=C|452=11|11=ClOrdID-1592|22=4|38=350000|48=XS1186833239|54=1|55=[N/A/]|67=13|453=1|448=T1Kauaiblk4|447=C|452=11|11=ClOrdID-1593|22=4|38=350000|48=US842400FC28|54=1|55=[N/A/]|67=14|453=1|448=T1Kauaiblk4|447=C|452=11|11=ClOrdID-1594|22=4|38=350000|48=US927804FA70|54=1|55=[N/A/]|67=15|453=1|448=T1Kauaiblk4|447=C|452=11|11=ClOrdID-1595|22=4|38=350000|48=US472319AC60|54=1|55=[N/A/]|67=16|453=1|448=T1Kauaiblk4|447=C|452=11|11=ClOrdID-1596|22=4|38=350000|48=US93884PDN78|54=1|55=[N/A/]|67=17|453=1|448=T1Kauaiblk4|447=C|452=11|11=ClOrdID-1597|22=4|38=350000|48=US06050XWS88|54=1|55=[N/A/]|67=8|453=1|448=T1Kauaiblk4|447=C|452=11|11=ClOrdID-1598|22=4|38=350000|48=US87425EAJ29|54=1|55=[N/A/]|67=19|453=1|448=T1Kauaiblk4|447=C|452=11|11=ClOrdID-1599|22=4|38=350000|48=US816300AG24|54=1|55=[N/A/]|67=20|453=1|448=T1Kauaiblk4|447=C|452=11|10=007|8=FIX.4.4|9=2117|35=E|34=9|49=T1Kauaiblk4|52=20210121-15:12:54.026|56=MA|66=ListID-210121-1600|394=2|68=20|73=20|11=ClOrdID-1601|22=4|38=100000|48=US06051GEN51|54=1|55=[N/A/]|67=1|423=1|453=1|448=T1Kauaiblk4|447=C|452=11|11=ClOrdID-1602|22=4|38=100000|48=US40434AAB52|54=1|55=[N/A]|67=2|11=ClOrdID-1603|22=4|38=130000|48=US06738JYZ10|54=1|55=[N/A/]|67=3|453=1|448=T1Kauaiblk4|447=C|452=11|11=ClOrdID-1604|22=4|38=250000|48=US95709TAH32|54=1|55=[N/A/]|67=4|453=1|448=T1Kauaiblk4|447=C|452=11|11=ClOrdID-1605|22=4|38=350000|48=US29379VAW37|54=1|55=[N/A/]|67=5|453=1|448=T1Kauaiblk4|447=C|452=11|11=ClOrdID-1606|22=4|38=350000|48=US48121ECC49|54=1|55=[N/A/]|67=6|453=1|448=T1Kauaiblk4|447=C|452=11|11=ClOrdID-1607|22=4|38=350000|48=US983024AL46|54=1|55=[N/A/]|67=7|453=1|448=T1Kauaiblk4|447=C|452=11|11=ClOrdID-1608|22=4|38=350000|48=US61166WAE12|54=1|55=[N/A/]|67=8|453=1|448=T1Kauaiblk4|447=C|452=11|11=ClOrdID-1609|22=4|38=350000|48=US000828JAM09|54=1|55=[N/A/]|67=9|453=1|448=T1Kauaiblk4|447=C|452=11|11=ClOrdID-1610|22=4|38=350000|48=US62630CAR25|54=1|55=[N/A/]|67=10|453=1|448=T1Kauaiblk4|447=C|452=11|11=ClOrdID-1611|22=4|38=350000|48=US05379BAK35|54=1|55=[N/A/]|67=11|453=1|448=T1Kauaiblk4|447=C|452=11|11=ClOrdID-1612|22=4|38=350000|48=US368710AC32|54=1|55=[N/A/]|67=12|453=1|448=T1Kauaiblk4|447=C|452=11|11=ClOrdID-1613|22=4|38=350000|48=XS1186833239|54=1|55=[N/A/]|67=13|453=1|448=T1Kauaiblk4|447=C|452=11|11=ClOrdID-1614|22=4|38=350000|48=US842400FC28|54=1|55=[N/A/]|67=14|453=1|448=T1Kauaiblk4|447=C|452=11|11=ClOrdID-1615|22=4|38=350000|48=US927804FA70|54=1|55=[N/A/]|67=15|453=1|448=T1Kauaiblk4|447=C|452=11|11=ClOrdID-1616|22=4|38=350000|48=US472319AC60|54=1|55=[N/A/]|67=16|453=1|448=T1Kauaiblk4|447=C|452=11|11=ClOrdID-1617|22=4|38=350000|48=US93884PDN78|54=1|55=[N/A/]|67=17|453=1|448=T1Kauaiblk4|447=C|452=11|11=ClOrdID-1618|22=4|38=350000|48=US06050XWS88|54=1|55=[N/A/]|67=8|453=1|448=T1Kauaiblk4|447=C|452=11|11=ClOrdID-1619|22=4|38=350000|48=US87425EAJ29|54=1|55=[N/A/]|67=19|453=1|448=T1Kauaiblk4|447=C