8=FIX.4.4|9=96|35=A|34=1|49=omblckrcktrader2|52=20210203-10:30:47.762|56=MA|98=0|108=90|95=8|96=3.0.0rc5|141=Y|10=180|8=FIX.4.4|9=724|35=E|34=2|49=omblckrcktrader2|52=20210203-10:30:54.990|56=MA|66=ListID-030221-1300|394=2|68=5|73=5|11=ClOrdID-1301|22=4|38=100000|44=100|48=US06051GEN51|54=1|55=[N/A/]|63=3|67=1|423=1|29726=100.25|453=1|448=omblckrcktrader2|447=C|452=11|11=ClOrdID-1302|22=4|38=100000|44=101|48=US40434AAB52|54=1|55=[N/A]|63=3|67=2|29726=101.25|11=ClOrdID-1303|22=4|38=130000|44=102|48=US95709TAH32|54=1|55=[N/A/]|63=3|67=1|29726=102.25|453=1|448=omblckrcktrader2|447=C|452=11|11=ClOrdID-1304|22=4|38=250000|44=103|48=US025676AH01|54=1|55=[N/A/]|63=3|67=1|29726=103.25|453=1|448=omblckrcktrader2|447=C|452=11|11=ClOrdID-1305|22=4|38=350000|44=104|48=US29379VAW37|54=1|55=[N/A/]|63=3|67=1|29726=104.25|453=1|448=omblckrcktrader2|447=C|452=11|10=250|8=FIX.4.4|9=61|35=5|34=3|49=omblckrcktrader2|52=20210203-10:31:54.685|56=MA|10=207|