8=FIX.4.4|9=99|35=A|34=1|49=kauaiblckrcktrader2|52=20210212-16:39:37.301|56=MA|98=0|108=90|95=8|96=3.0.0rc5|141=Y|10=233|8=FIX.4.4|9=739|35=E|34=2|49=kauaiblckrcktrader2|52=20210212-16:39:39.401|56=MA|66=ListID-120221-1408|394=2|68=5|73=5|11=ClOrdID-1409|22=4|38=100000|44=100|48=US06051GEN51|54=1|55=[N/A/]|63=3|67=1|423=1|29726=100.25|453=1|448=kauaiblckrcktrader2|447=C|452=11|11=ClOrdID-1410|22=4|38=100000|44=101|48=US40434AAB52|54=1|55=[N/A]|63=3|67=2|29726=101.25|11=ClOrdID-1411|22=4|38=130000|44=102|48=US95709TAH32|54=1|55=[N/A/]|63=3|67=1|29726=102.25|453=1|448=kauaiblckrcktrader2|447=C|452=11|11=ClOrdID-1412|22=4|38=250000|44=103|48=US427866AZ15|54=1|55=[N/A/]|63=3|67=1|29726=103.25|453=1|448=kauaiblckrcktrader2|447=C|452=11|11=ClOrdID-1413|22=4|38=350000|44=104|48=US29379VAW37|54=1|55=[N/A/]|63=3|67=1|29726=104.25|453=1|448=kauaiblckrcktrader2|447=C|452=11|10=032|8=FIX.4.4|9=86|35=5|34=3|49=kauaiblckrcktrader2|52=20210212-16:39:43.301|56=MA|58=Session Tab Closed|10=066|