8=FIX.4.4|9=91|35=A|34=1|49=T2Kauaiblk2|52=20210203-10:39:02.689|56=MA|98=0|108=90|95=8|96=3.0.0rc5|141=Y|10=039|8=FIX.4.4|9=699|35=E|34=2|49=T2Kauaiblk2|52=20210203-10:39:07.234|56=MA|66=ListID-030221-1336|394=2|68=5|73=5|11=ClOrdID-1337|22=4|38=100000|44=100|48=US06051GEN51|54=1|55=[N/A/]|63=3|67=1|423=1|29726=100.25|453=1|448=T2Kauaiblk2|447=C|452=11|11=ClOrdID-1338|22=4|38=100000|44=101|48=US40434AAB52|54=1|55=[N/A]|63=3|67=2|29726=101.25|11=ClOrdID-1339|22=4|38=130000|44=102|48=US95709TAH32|54=1|55=[N/A/]|63=3|67=1|29726=102.25|453=1|448=T2Kauaiblk2|447=C|452=11|11=ClOrdID-1340|22=4|38=250000|44=103|48=US025676AH01|54=1|55=[N/A/]|63=3|67=1|29726=103.25|453=1|448=T2Kauaiblk2|447=C|452=11|11=ClOrdID-1341|22=4|38=350000|44=104|48=US29379VAW37|54=1|55=[N/A/]|63=3|67=1|29726=104.25|453=1|448=T2Kauaiblk2|447=C|452=11|10=087|8=FIX.4.4|9=56|35=5|34=3|49=T2Kauaiblk2|52=20210203-10:40:03.688|56=MA|10=064|8=FIX.4.4|9=91|35=A|34=1|49=T2Kauaiblk2|52=20210203-16:20:35.751|56=MA|98=0|108=90|95=8|96=3.0.0rc5|141=Y|10=031|8=FIX.4.4|9=699|35=E|34=2|49=T2Kauaiblk2|52=20210203-16:20:41.040|56=MA|66=ListID-030221-1456|394=2|68=5|73=5|11=ClOrdID-1457|22=4|38=100000|44=100|48=US06051GEN51|54=1|55=[N/A/]|63=3|67=1|423=1|29726=100.25|453=1|448=T2Kauaiblk2|447=C|452=11|11=ClOrdID-1458|22=4|38=100000|44=101|48=US40434AAB52|54=1|55=[N/A]|63=3|67=2|29726=101.25|11=ClOrdID-1459|22=4|38=130000|44=102|48=US95709TAH32|54=1|55=[N/A/]|63=3|67=1|29726=102.25|453=1|448=T2Kauaiblk2|447=C|452=11|11=ClOrdID-1460|22=4|38=250000|44=103|48=US427866AZ15|54=1|55=[N/A/]|63=3|67=1|29726=103.25|453=1|448=T2Kauaiblk2|447=C|452=11|11=ClOrdID-1461|22=4|38=350000|44=104|48=US29379VAW37|54=1|55=[N/A/]|63=3|67=1|29726=104.25|453=1|448=T2Kauaiblk2|447=C|452=11|10=124|8=FIX.4.4|9=56|35=0|34=3|49=T2Kauaiblk2|52=20210203-16:22:11.751|56=MA|10=055|8=FIX.4.4|9=56|35=0|34=4|49=T2Kauaiblk2|52=20210203-16:23:41.753|56=MA|10=062|8=FIX.4.4|9=56|35=0|34=5|49=T2Kauaiblk2|52=20210203-16:25:11.755|56=MA|10=064|8=FIX.4.4|9=56|35=0|34=6|49=T2Kauaiblk2|52=20210203-16:26:41.757|56=MA|10=071|8=FIX.4.4|9=56|35=0|34=7|49=T2Kauaiblk2|52=20210203-16:28:11.759|56=MA|10=073|8=FIX.4.4|9=56|35=0|34=8|49=T2Kauaiblk2|52=20210203-16:29:42.758|56=MA|10=078|8=FIX.4.4|9=56|35=0|34=9|49=T2Kauaiblk2|52=20210203-16:31:13.759|56=MA|10=071|8=FIX.4.4|9=57|35=5|34=10|49=T2Kauaiblk2|52=20210203-16:31:53.758|56=MA|10=120|