8=FIX.4.2|9=96|35=A|34=1|49=EMS_TEST|52=20191113-14:03:58.661|56=MA_FIX_GTW|98=0|108=90|95=8|96=3.0.0rc5|141=Y|10=109|8=FIX.4.2|9=96|35=A|34=1|49=EMS_TEST|52=20191113-14:05:57.661|56=MA_FIX_GTW|98=0|108=90|95=8|96=3.0.0rc5|141=Y|10=110|8=FIX.4.2|9=96|35=A|34=1|49=EMS_TEST|52=20191119-16:55:44.202|56=MA_FIX_GTW|98=0|108=90|95=8|96=3.0.0rc5|141=Y|10=110|8=FIX.4.2|9=96|35=A|34=1|49=EMS_TEST|52=20191119-16:56:48.444|56=MA_FIX_GTW|98=0|108=90|95=8|96=3.0.0rc5|141=Y|10=123|8=FIX.4.2|9=96|35=A|34=1|49=EMS_TEST|52=20191119-16:58:07.123|56=MA_FIX_GTW|98=0|108=90|95=8|96=3.0.0rc5|141=Y|10=114|8=FIX.4.2|9=96|35=A|34=1|49=EMS_TEST|52=20191119-18:20:45.826|56=MA_FIX_GTW|98=0|108=90|95=8|96=3.0.0rc5|141=Y|10=117|