8=FIX.4.4|9=82|35=A|34=1|49=MMABAXUK|52=20181129-08:47:45.262|56=MA|98=0|108=90|95=8|96=3.0.0rc4|10=129|8=FIX.4.4|9=53|35=0|34=2|49=MMABAXUK|52=20181129-08:49:15.274|56=MA|10=201|8=FIX.4.4|9=53|35=0|34=3|49=MMABAXUK|52=20181129-08:50:45.274|56=MA|10=197|8=FIX.4.4|9=53|35=0|34=4|49=MMABAXUK|52=20181129-08:52:16.270|56=MA|10=194|8=FIX.4.4|9=53|35=0|34=5|49=MMABAXUK|52=20181129-08:53:47.260|56=MA|10=199|8=FIX.4.4|9=53|35=0|34=6|49=MMABAXUK|52=20181129-08:55:18.258|56=MA|10=207|8=FIX.4.4|9=53|35=0|34=7|49=MMABAXUK|52=20181129-08:56:49.253|56=MA|10=208|8=FIX.4.4|9=53|35=0|34=8|49=MMABAXUK|52=20181129-08:58:19.266|56=MA|10=212|8=FIX.4.4|9=53|35=0|34=9|49=MMABAXUK|52=20181129-08:59:49.267|56=MA|10=218|8=FIX.4.4|9=54|35=0|34=10|49=MMABAXUK|52=20181129-09:01:20.171|56=MA|10=230|8=FIX.4.4|9=54|35=0|34=11|49=MMABAXUK|52=20181129-09:02:50.257|56=MA|10=240|8=FIX.4.4|9=54|35=0|34=12|49=MMABAXUK|52=20181129-09:04:20.257|56=MA|10=240|8=FIX.4.4|9=54|35=0|34=13|49=MMABAXUK|52=20181129-09:05:50.257|56=MA|10=245|8=FIX.4.4|9=54|35=0|34=14|49=MMABAXUK|52=20181129-09:07:20.269|56=MA|10=248|8=FIX.4.4|9=54|35=0|34=15|49=MMABAXUK|52=20181129-09:08:51.260|56=MA|10=245|8=FIX.4.4|9=54|35=0|34=16|49=MMABAXUK|52=20181129-09:10:21.267|56=MA|10=243|8=FIX.4.4|9=54|35=0|34=17|49=MMABAXUK|52=20181129-09:11:52.257|56=MA|10=248|8=FIX.4.4|9=54|35=0|34=18|49=MMABAXUK|52=20181129-09:13:22.262|56=MA|10=244|8=FIX.4.4|9=54|35=0|34=19|49=MMABAXUK|52=20181129-09:14:52.262|56=MA|10=249|8=FIX.4.4|9=54|35=0|34=20|49=MMABAXUK|52=20181129-09:16:23.261|56=MA|10=240|8=FIX.4.4|9=54|35=0|34=21|49=MMABAXUK|52=20181129-09:17:54.251|56=MA|10=245|8=FIX.4.4|9=54|35=0|34=22|49=MMABAXUK|52=20181129-09:19:24.253|56=MA|10=247|8=FIX.4.4|9=54|35=0|34=23|49=MMABAXUK|52=20181129-09:20:55.250|56=MA|10=241|8=FIX.4.4|9=54|35=0|34=24|49=MMABAXUK|52=20181129-09:22:25.250|56=MA|10=241|8=FIX.4.4|9=54|35=0|34=25|49=MMABAXUK|52=20181129-09:23:55.250|56=MA|10=246|8=FIX.4.4|9=54|35=0|34=26|49=MMABAXUK|52=20181129-09:25:25.257|56=MA|10=253|8=FIX.4.4|9=54|35=0|34=27|49=MMABAXUK|52=20181129-09:26:55.262|56=MA|10=254|8=FIX.4.4|9=54|35=0|34=28|49=MMABAXUK|52=20181129-09:28:26.259|56=MA|10=005|8=FIX.4.4|9=54|35=0|34=29|49=MMABAXUK|52=20181129-09:29:57.248|56=MA|10=009|8=FIX.4.4|9=54|35=0|34=30|49=MMABAXUK|52=20181129-09:31:28.247|56=MA|10=247|8=FIX.4.4|9=54|35=0|34=31|49=MMABAXUK|52=20181129-09:32:58.258|56=MA|10=254|8=FIX.4.4|9=54|35=0|34=32|49=MMABAXUK|52=20181129-09:34:29.246|56=MA|10=252|8=FIX.4.4|9=54|35=0|34=33|49=MMABAXUK|52=20181129-09:35:59.247|56=MA|10=002|8=FIX.4.4|9=54|35=0|34=34|49=MMABAXUK|52=20181129-09:37:29.251|56=MA|10=253|8=FIX.4.4|9=54|35=0|34=35|49=MMABAXUK|52=20181129-09:39:00.249|56=MA|10=252|8=FIX.4.4|9=54|35=0|34=36|49=MMABAXUK|52=20181129-09:40:30.255|56=MA|10=245|8=FIX.4.4|9=54|35=0|34=37|49=MMABAXUK|52=20181129-09:42:01.253|56=MA|10=244|8=FIX.4.4|9=54|35=0|34=38|49=MMABAXUK|52=20181129-09:43:32.255|56=MA|10=252|8=FIX.4.4|9=54|35=0|34=39|49=MMABAXUK|52=20181129-09:45:03.250|56=MA|10=248|8=FIX.4.4|9=54|35=0|34=40|49=MMABAXUK|52=20181129-09:46:33.255|56=MA|10=249|8=FIX.4.4|9=54|35=0|34=41|49=MMABAXUK|52=20181129-09:48:03.255|56=MA|10=249|8=FIX.4.4|9=54|35=0|34=42|49=MMABAXUK|52=20181129-09:49:34.245|56=MA|10=254|8=FIX.4.4|9=54|35=0|34=43|49=MMABAXUK|52=20181129-09:51:04.256|56=MA|10=247|8=FIX.4.4|9=54|35=0|34=44|49=MMABAXUK|52=20181129-09:52:35.247|56=MA|10=253|8=FIX.4.4|9=54|35=0|34=45|49=MMABAXUK|52=20181129-09:54:05.253|56=MA|10=250|8=FIX.4.4|9=54|35=0|34=46|49=MMABAXUK|52=20181129-09:55:36.247|56=MA|10=003|8=FIX.4.4|9=54|35=0|34=47|49=MMABAXUK|52=20181129-09:57:07.253|56=MA|10=001|8=FIX.4.4|9=54|35=0|34=48|49=MMABAXUK|52=20181129-09:58:38.239|56=MA|10=011|8=FIX.4.4|9=54|35=0|34=49|49=MMABAXUK|52=20181129-10:00:08.250|56=MA|10=237|8=FIX.4.4|9=54|35=0|34=50|49=MMABAXUK|52=20181129-10:01:39.237|56=MA|10=239|8=FIX.4.4|9=54|35=0|34=51|49=MMABAXUK|52=20181129-10:03:09.237|56=MA|10=239|8=FIX.4.4|9=54|35=0|34=52|49=MMABAXUK|52=20181129-10:04:40.237|56=MA|10=236|8=FIX.4.4|9=54|35=0|34=53|49=MMABAXUK|52=20181129-10:06:11.236|56=MA|10=236|8=FIX.4.4|9=54|35=0|34=54|49=MMABAXUK|52=20181129-10:07:41.249|56=MA|10=245|8=FIX.4.4|9=54|35=0|34=55|49=MMABAXUK|52=20181129-10:09:12.240|56=MA|10=237|8=FIX.4.4|9=54|35=0|34=56|49=MMABAXUK|52=20181129-10:10:42.246|56=MA|10=239|8=FIX.4.4|9=54|35=0|34=57|49=MMABAXUK|52=20181129-10:12:13.234|56=MA|10=237|8=FIX.4.4|9=54|35=0|34=58|49=MMABAXUK|52=20181129-10:13:43.247|56=MA|10=246|8=FIX.4.4|9=54|35=0|34=59|49=MMABAXUK|52=20181129-10:15:14.234|56=MA|10=243|8=FIX.4.4|9=54|35=0|34=60|49=MMABAXUK|52=20181129-10:16:44.235|56=MA|10=240|8=FIX.4.4|9=54|35=0|34=61|49=MMABAXUK|52=20181129-10:18:14.235|56=MA|10=240|8=FIX.4.4|9=54|35=0|34=62|49=MMABAXUK|52=20181129-10:19:44.235|56=MA|10=245|8=FIX.4.4|9=54|35=0|34=63|49=MMABAXUK|52=20181129-10:21:14.242|56=MA|10=234|8=FIX.4.4|9=54|35=0|34=64|49=MMABAXUK|52=20181129-10:22:44.243|56=MA|10=240|8=FIX.4.4|9=54|35=0|34=65|49=MMABAXUK|52=20181129-10:24:14.247|56=MA|10=244|8=FIX.4.4|9=54|35=0|34=66|49=MMABAXUK|52=20181129-10:25:45.242|56=MA|10=245|8=FIX.4.4|9=54|35=0|34=67|49=MMABAXUK|52=20181129-10:27:16.234|56=MA|10=247|8=FIX.4.4|9=54|35=0|34=68|49=MMABAXUK|52=20181129-10:28:46.234|56=MA|10=252|8=FIX.4.4|9=54|35=0|34=69|49=MMABAXUK|52=20181129-10:30:17.232|56=MA|10=242|8=FIX.4.4|9=54|35=0|34=70|49=MMABAXUK|52=20181129-10:31:47.242|56=MA|10=239|8=FIX.4.4|9=54|35=0|34=71|49=MMABAXUK|52=20181129-10:33:18.240|56=MA|10=238|8=FIX.4.4|9=236|35=D|34=72|49=MMABAXUK|52=20181129-10:34:40.428|56=MA|11=JBMM181129-1|21=1|453=1|448=mick_abaxuk|447=C|452=11|55=US05567YAA73|48=US05567YAA73|22=4|54=2|60=20180806-16:10:14.113|38=870000|40=2|44=90|15=USD|59=6|126=20181207-21:59:00.000|10=008|8=FIX.4.4|9=234|35=D|34=73|49=MMABAXUK|52=20181129-10:35:19.668|56=MA|11=JBMM181129-1|21=1|453=1|448=mick_abax|447=C|452=11|55=US05567YAA73|48=US05567YAA73|22=4|54=2|60=20180806-16:10:14.113|38=870000|40=2|44=90|15=USD|59=6|126=20181207-21:59:00.000|10=052|8=FIX.4.4|9=233|35=D|34=74|49=MMABAXUK|52=20181129-10:36:33.739|56=MA|11=JBMM181129-1|21=1|453=1|448=MMABAXUK|447=C|452=11|55=US05567YAA73|48=US05567YAA73|22=4|54=2|60=20180806-16:10:14.113|38=870000|40=2|44=90|15=USD|59=6|126=20181207-21:59:00.000|10=231|8=FIX.4.4|9=54|35=0|34=75|49=MMABAXUK|52=20181129-10:38:04.236|56=MA|10=247|8=FIX.4.4|9=233|35=D|34=76|49=MMABAXUK|52=20181129-10:38:25.982|56=MA|11=JBMM181129-3|21=1|453=1|448=MMABAXUK|447=C|452=11|55=XS1334778021|48=XS1334778021|22=4|54=2|60=20180806-16:10:14.113|38=870000|40=2|44=90|15=USD|59=6|126=20181207-21:59:00.000|10=100|8=FIX.4.4|9=54|35=0|34=77|49=MMABAXUK|52=20181129-10:39:56.220|56=MA|10=250|8=FIX.4.4|9=54|35=0|34=78|49=MMABAXUK|52=20181129-10:41:26.228|56=MA|10=249|8=FIX.4.4|9=54|35=0|34=79|49=MMABAXUK|52=20181129-10:42:56.237|56=MA|10=254|8=FIX.4.4|9=54|35=0|34=80|49=MMABAXUK|52=20181129-10:44:26.237|56=MA|10=245|8=FIX.4.4|9=54|35=0|34=81|49=MMABAXUK|52=20181129-10:45:57.231|56=MA|10=245|8=FIX.4.4|9=54|35=0|34=82|49=MMABAXUK|52=20181129-10:47:27.236|56=MA|10=250|8=FIX.4.4|9=54|35=0|34=83|49=MMABAXUK|52=20181129-10:48:58.236|56=MA|10=000|8=FIX.4.4|9=54|35=0|34=84|49=MMABAXUK|52=20181129-10:50:28.236|56=MA|10=247|8=FIX.4.4|9=54|35=0|34=85|49=MMABAXUK|52=20181129-10:51:58.236|56=MA|10=252|8=FIX.4.4|9=54|35=0|34=86|49=MMABAXUK|52=20181129-10:53:28.236|56=MA|10=252|8=FIX.4.4|9=54|35=0|34=87|49=MMABAXUK|52=20181129-10:54:59.232|56=MA|10=254|8=FIX.4.4|9=54|35=0|34=88|49=MMABAXUK|52=20181129-10:56:30.222|56=MA|10=245|8=FIX.4.4|9=54|35=0|34=89|49=MMABAXUK|52=20181129-10:58:00.234|56=MA|10=248|8=FIX.4.4|9=54|35=0|34=90|49=MMABAXUK|52=20181129-10:59:31.227|56=MA|10=247|8=FIX.4.4|9=54|35=0|34=91|49=MMABAXUK|52=20181129-11:01:01.234|56=MA|10=231|8=FIX.4.4|9=54|35=0|34=92|49=MMABAXUK|52=20181129-11:02:32.225|56=MA|10=237|8=FIX.4.4|9=54|35=0|34=93|49=MMABAXUK|52=20181129-11:04:02.231|56=MA|10=234|8=FIX.4.4|9=54|35=0|34=94|49=MMABAXUK|52=20181129-11:05:33.222|56=MA|10=240|8=FIX.4.4|9=54|35=0|34=95|49=MMABAXUK|52=20181129-11:07:03.231|56=MA|10=240|8=FIX.4.4|9=54|35=0|34=96|49=MMABAXUK|52=20181129-11:08:33.232|56=MA|10=246|8=FIX.4.4|9=54|35=0|34=97|49=MMABAXUK|52=20181129-11:10:04.222|56=MA|10=237|8=FIX.4.4|9=54|35=0|34=98|49=MMABAXUK|52=20181129-11:11:34.231|56=MA|10=242|8=FIX.4.4|9=54|35=0|34=99|49=MMABAXUK|52=20181129-11:13:05.227|56=MA|10=248|8=FIX.4.4|9=55|35=0|34=100|49=MMABAXUK|52=20181129-11:14:36.226|56=MA|10=028|8=FIX.4.4|9=55|35=0|34=101|49=MMABAXUK|52=20181129-11:16:07.219|56=MA|10=031|8=FIX.4.4|9=55|35=0|34=102|49=MMABAXUK|52=20181129-11:17:37.231|56=MA|10=030|8=FIX.4.4|9=55|35=0|34=103|49=MMABAXUK|52=20181129-11:19:08.224|56=MA|10=033|8=FIX.4.4|9=55|35=0|34=104|49=MMABAXUK|52=20181129-11:20:39.222|56=MA|10=028|8=FIX.4.4|9=55|35=0|34=105|49=MMABAXUK|52=20181129-11:22:09.229|56=MA|10=035|8=FIX.4.4|9=55|35=0|34=106|49=MMABAXUK|52=20181129-11:23:40.216|56=MA|10=028|8=FIX.4.4|9=55|35=0|34=107|49=MMABAXUK|52=20181129-11:25:10.227|56=MA|10=030|8=FIX.4.4|9=55|35=0|34=108|49=MMABAXUK|52=20181129-11:26:41.227|56=MA|10=036|8=FIX.4.4|9=55|35=0|34=109|49=MMABAXUK|52=20181129-11:28:12.216|56=MA|10=035|8=FIX.4.4|9=55|35=0|34=110|49=MMABAXUK|52=20181129-11:29:42.218|56=MA|10=033|8=FIX.4.4|9=55|35=0|34=111|49=MMABAXUK|52=20181129-11:31:13.213|56=MA|10=020|8=FIX.4.4|9=55|35=0|34=112|49=MMABAXUK|52=20181129-11:32:44.211|56=MA|10=024|8=FIX.4.4|9=55|35=0|34=113|49=MMABAXUK|52=20181129-11:34:14.211|56=MA|10=024|8=FIX.4.4|9=55|35=0|34=114|49=MMABAXUK|52=20181129-11:35:45.218|56=MA|10=037|8=FIX.4.4|9=55|35=0|34=115|49=MMABAXUK|52=20181129-11:37:16.210|56=MA|10=030|8=FIX.4.4|9=55|35=0|34=116|49=MMABAXUK|52=20181129-11:38:46.211|56=MA|10=036|8=FIX.4.4|9=55|35=0|34=117|49=MMABAXUK|52=20181129-11:40:16.216|56=MA|10=032|8=FIX.4.4|9=55|35=0|34=118|49=MMABAXUK|52=20181129-11:41:47.214|56=MA|10=036|8=FIX.4.4|9=55|35=0|34=119|49=MMABAXUK|52=20181129-11:43:17.216|56=MA|10=038|8=FIX.4.4|9=55|35=0|34=120|49=MMABAXUK|52=20181129-11:44:47.218|56=MA|10=036|8=FIX.4.4|9=55|35=0|34=121|49=MMABAXUK|52=20181129-11:46:18.216|56=MA|10=035|8=FIX.4.4|9=55|35=0|34=122|49=MMABAXUK|52=20181129-11:47:49.210|56=MA|10=035|8=FIX.4.4|9=55|35=0|34=123|49=MMABAXUK|52=20181129-11:49:19.215|56=MA|10=040|8=FIX.4.4|9=55|35=0|34=124|49=MMABAXUK|52=20181129-11:50:50.206|56=MA|10=028|8=FIX.4.4|9=55|35=0|34=125|49=MMABAXUK|52=20181129-11:52:20.210|56=MA|10=023|8=FIX.4.4|9=55|35=0|34=126|49=MMABAXUK|52=20181129-11:53:51.209|56=MA|10=037|8=FIX.4.4|9=55|35=0|34=127|49=MMABAXUK|52=20181129-11:55:21.219|56=MA|10=038|8=FIX.4.4|9=55|35=0|34=128|49=MMABAXUK|52=20181129-11:56:51.220|56=MA|10=035|8=FIX.4.4|9=55|35=0|34=129|49=MMABAXUK|52=20181129-11:58:22.209|56=MA|10=043|8=FIX.4.4|9=55|35=0|34=130|49=MMABAXUK|52=20181129-11:59:52.216|56=MA|10=037|8=FIX.4.4|9=55|35=0|34=131|49=MMABAXUK|52=20181129-12:01:23.208|56=MA|10=025|8=FIX.4.4|9=55|35=0|34=132|49=MMABAXUK|52=20181129-12:02:53.209|56=MA|10=031|8=FIX.4.4|9=55|35=0|34=133|49=MMABAXUK|52=20181129-12:04:24.203|56=MA|10=026|8=FIX.4.4|9=55|35=0|34=134|49=MMABAXUK|52=20181129-12:05:54.208|56=MA|10=036|8=FIX.4.4|9=55|35=0|34=135|49=MMABAXUK|52=20181129-12:07:25.201|56=MA|10=030|8=FIX.4.4|9=55|35=0|34=136|49=MMABAXUK|52=20181129-12:08:56.200|56=MA|10=035|8=FIX.4.4|9=55|35=0|34=137|49=MMABAXUK|52=20181129-12:10:27.199|56=MA|10=044|8=FIX.4.4|9=55|35=0|34=138|49=MMABAXUK|52=20181129-12:11:57.199|56=MA|10=049|8=FIX.4.4|9=55|35=0|34=139|49=MMABAXUK|52=20181129-12:13:27.199|56=MA|10=049|8=FIX.4.4|9=55|35=0|34=140|49=MMABAXUK|52=20181129-12:14:58.197|56=MA|10=044|8=FIX.4.4|9=55|35=0|34=141|49=MMABAXUK|52=20181129-12:16:28.197|56=MA|10=044|8=FIX.4.4|9=55|35=0|34=142|49=MMABAXUK|52=20181129-12:17:59.196|56=MA|10=049|8=FIX.4.4|9=55|35=0|34=143|49=MMABAXUK|52=20181129-12:19:29.198|56=MA|10=051|8=FIX.4.4|9=55|35=0|34=144|49=MMABAXUK|52=20181129-12:21:00.196|56=MA|10=032|8=FIX.4.4|9=55|35=0|34=145|49=MMABAXUK|52=20181129-12:22:31.195|56=MA|10=037|8=FIX.4.4|9=55|35=0|34=146|49=MMABAXUK|52=20181129-12:24:02.194|56=MA|10=037|8=FIX.4.4|9=55|35=0|34=147|49=MMABAXUK|52=20181129-12:25:32.194|56=MA|10=042|8=FIX.4.4|9=55|35=0|34=148|49=MMABAXUK|52=20181129-12:27:02.194|56=MA|10=042|8=FIX.4.4|9=55|35=0|34=149|49=MMABAXUK|52=20181129-12:28:33.193|56=MA|10=047|8=FIX.4.4|9=55|35=0|34=150|49=MMABAXUK|52=20181129-12:30:04.193|56=MA|10=030|8=FIX.4.4|9=55|35=0|34=151|49=MMABAXUK|52=20181129-12:31:35.193|56=MA|10=036|8=FIX.4.4|9=55|35=0|34=152|49=MMABAXUK|52=20181129-12:33:06.192|56=MA|10=036|8=FIX.4.4|9=55|35=0|34=153|49=MMABAXUK|52=20181129-12:34:36.192|56=MA|10=041|8=FIX.4.4|9=55|35=0|34=154|49=MMABAXUK|52=20181129-12:36:07.193|56=MA|10=043|8=FIX.4.4|9=55|35=0|34=155|49=MMABAXUK|52=20181129-12:37:38.191|56=MA|10=047|8=FIX.4.4|9=55|35=0|34=156|49=MMABAXUK|52=20181129-12:39:09.191|56=MA|10=048|8=FIX.4.4|9=55|35=0|34=157|49=MMABAXUK|52=20181129-12:40:39.191|56=MA|10=044|8=FIX.4.4|9=55|35=0|34=158|49=MMABAXUK|52=20181129-12:42:10.189|56=MA|10=043|8=FIX.4.4|9=55|35=0|34=159|49=MMABAXUK|52=20181129-12:43:40.189|56=MA|10=048|8=FIX.4.4|9=55|35=0|34=160|49=MMABAXUK|52=20181129-12:45:10.189|56=MA|10=039|8=FIX.4.4|9=55|35=0|34=161|49=MMABAXUK|52=20181129-12:46:41.188|56=MA|10=044|8=FIX.4.4|9=55|35=0|34=162|49=MMABAXUK|52=20181129-12:48:11.188|56=MA|10=044|8=FIX.4.4|9=55|35=0|34=163|49=MMABAXUK|52=20181129-12:49:42.186|56=MA|10=048|8=FIX.4.4|9=55|35=0|34=164|49=MMABAXUK|52=20181129-12:51:12.187|56=MA|10=040|8=FIX.4.4|9=55|35=0|34=165|49=MMABAXUK|52=20181129-12:52:43.186|56=MA|10=045|8=FIX.4.4|9=55|35=0|34=166|49=MMABAXUK|52=20181129-12:54:14.186|56=MA|10=046|8=FIX.4.4|9=55|35=0|34=167|49=MMABAXUK|52=20181129-12:55:45.184|56=MA|10=050|8=FIX.4.4|9=55|35=0|34=168|49=MMABAXUK|52=20181129-12:57:15.184|56=MA|10=050|8=FIX.4.4|9=55|35=0|34=169|49=MMABAXUK|52=20181129-12:58:46.184|56=MA|10=056|8=FIX.4.4|9=55|35=0|34=170|49=MMABAXUK|52=20181129-13:00:17.183|56=MA|10=033|8=FIX.4.4|9=55|35=0|34=171|49=MMABAXUK|52=20181129-13:01:47.183|56=MA|10=038|8=FIX.4.4|9=55|35=0|34=172|49=MMABAXUK|52=20181129-13:03:18.182|56=MA|10=038|8=FIX.4.4|9=55|35=0|34=173|49=MMABAXUK|52=20181129-13:04:49.181|56=MA|10=043|8=FIX.4.4|9=55|35=0|34=174|49=MMABAXUK|52=20181129-13:06:19.181|56=MA|10=043|8=FIX.4.4|9=55|35=0|34=175|49=MMABAXUK|52=20181129-13:07:50.181|56=MA|10=040|8=FIX.4.4|9=55|35=0|34=176|49=MMABAXUK|52=20181129-13:09:21.179|56=MA|10=048|8=FIX.4.4|9=55|35=0|34=177|49=MMABAXUK|52=20181129-13:10:51.179|56=MA|10=044|8=FIX.4.4|9=55|35=0|34=178|49=MMABAXUK|52=20181129-13:12:21.179|56=MA|10=044|8=FIX.4.4|9=55|35=0|34=179|49=MMABAXUK|52=20181129-13:13:51.179|56=MA|10=049|8=FIX.4.4|9=55|35=0|34=180|49=MMABAXUK|52=20181129-13:15:22.178|56=MA|10=040|8=FIX.4.4|9=55|35=0|34=181|49=MMABAXUK|52=20181129-13:16:53.177|56=MA|10=045|8=FIX.4.4|9=55|35=0|34=182|49=MMABAXUK|52=20181129-13:18:24.176|56=MA|10=045|8=FIX.4.4|9=55|35=0|34=183|49=MMABAXUK|52=20181129-13:19:54.176|56=MA|10=050|8=FIX.4.4|9=55|35=0|34=184|49=MMABAXUK|52=20181129-13:21:24.177|56=MA|10=042|8=FIX.4.4|9=55|35=0|34=185|49=MMABAXUK|52=20181129-13:22:55.175|56=MA|10=046|8=FIX.4.4|9=55|35=0|34=186|49=MMABAXUK|52=20181129-13:24:25.175|56=MA|10=046|8=FIX.4.4|9=55|35=0|34=187|49=MMABAXUK|52=20181129-13:25:55.175|56=MA|10=051|8=FIX.4.4|9=55|35=0|34=188|49=MMABAXUK|52=20181129-13:27:25.175|56=MA|10=051|8=FIX.4.4|9=55|35=0|34=189|49=MMABAXUK|52=20181129-13:28:56.175|56=MA|10=057|8=FIX.4.4|9=55|35=0|34=190|49=MMABAXUK|52=20181129-13:30:26.175|56=MA|10=039|8=FIX.4.4|9=55|35=0|34=191|49=MMABAXUK|52=20181129-13:31:57.174|56=MA|10=044|8=FIX.4.4|9=55|35=0|34=192|49=MMABAXUK|52=20181129-13:33:28.173|56=MA|10=044|8=FIX.4.4|9=55|35=0|34=193|49=MMABAXUK|52=20181129-13:34:58.173|56=MA|10=049|8=FIX.4.4|9=55|35=0|34=194|49=MMABAXUK|52=20181129-13:36:29.172|56=MA|10=049|8=FIX.4.4|9=55|35=0|34=195|49=MMABAXUK|52=20181129-13:38:00.171|56=MA|10=040|8=FIX.4.4|9=55|35=0|34=196|49=MMABAXUK|52=20181129-13:39:31.170|56=MA|10=045|8=FIX.4.4|9=55|35=0|34=197|49=MMABAXUK|52=20181129-13:41:01.170|56=MA|10=036|8=FIX.4.4|9=55|35=0|34=198|49=MMABAXUK|52=20181129-13:42:32.169|56=MA|10=050|8=FIX.4.4|9=55|35=0|34=199|49=MMABAXUK|52=20181129-13:44:02.170|56=MA|10=042|8=FIX.4.4|9=55|35=0|34=200|49=MMABAXUK|52=20181129-13:45:33.168|56=MA|10=037|8=FIX.4.4|9=55|35=0|34=201|49=MMABAXUK|52=20181129-13:47:03.168|56=MA|10=037|8=FIX.4.4|9=55|35=0|34=202|49=MMABAXUK|52=20181129-13:48:34.167|56=MA|10=042|8=FIX.4.4|9=55|35=0|34=203|49=MMABAXUK|52=20181129-13:50:04.167|56=MA|10=033|8=FIX.4.4|9=55|35=0|34=204|49=MMABAXUK|52=20181129-13:51:35.167|56=MA|10=039|8=FIX.4.4|9=55|35=0|34=205|49=MMABAXUK|52=20181129-13:53:06.166|56=MA|10=039|8=FIX.4.4|9=55|35=0|34=206|49=MMABAXUK|52=20181129-13:54:37.165|56=MA|10=044|8=FIX.4.4|9=55|35=0|34=207|49=MMABAXUK|52=20181129-13:56:07.165|56=MA|10=044|8=FIX.4.4|9=55|35=0|34=208|49=MMABAXUK|52=20181129-13:57:38.165|56=MA|10=050|8=FIX.4.4|9=55|35=0|34=209|49=MMABAXUK|52=20181129-13:59:09.163|56=MA|10=049|8=FIX.4.4|9=55|35=0|34=210|49=MMABAXUK|52=20181129-14:00:39.163|56=MA|10=031|8=FIX.4.4|9=55|35=0|34=211|49=MMABAXUK|52=20181129-14:02:10.162|56=MA|10=022|8=FIX.4.4|9=55|35=0|34=212|49=MMABAXUK|52=20181129-14:03:40.162|56=MA|10=027|8=FIX.4.4|9=55|35=0|34=213|49=MMABAXUK|52=20181129-14:05:10.162|56=MA|10=027|8=FIX.4.4|9=55|35=0|34=214|49=MMABAXUK|52=20181129-14:06:41.161|56=MA|10=032|8=FIX.4.4|9=55|35=0|34=215|49=MMABAXUK|52=20181129-14:08:11.161|56=MA|10=032|8=FIX.4.4|9=55|35=0|34=216|49=MMABAXUK|52=20181129-14:09:42.160|56=MA|10=037|8=FIX.4.4|9=55|35=0|34=217|49=MMABAXUK|52=20181129-14:11:12.160|56=MA|10=028|8=FIX.4.4|9=55|35=0|34=218|49=MMABAXUK|52=20181129-14:12:42.160|56=MA|10=033|8=FIX.4.4|9=55|35=0|34=219|49=MMABAXUK|52=20181129-14:14:13.160|56=MA|10=034|8=FIX.4.4|9=55|35=0|34=220|49=MMABAXUK|52=20181129-14:15:43.160|56=MA|10=030|8=FIX.4.4|9=55|35=0|34=221|49=MMABAXUK|52=20181129-14:17:14.159|56=MA|10=039|8=FIX.4.4|9=55|35=0|34=222|49=MMABAXUK|52=20181129-14:18:44.159|56=MA|10=044|8=FIX.4.4|9=55|35=0|34=223|49=MMABAXUK|52=20181129-14:20:15.158|56=MA|10=035|8=FIX.4.4|9=55|35=0|34=224|49=MMABAXUK|52=20181129-14:21:46.157|56=MA|10=040|8=FIX.4.4|9=55|35=0|34=225|49=MMABAXUK|52=20181129-14:23:17.157|56=MA|10=041|8=FIX.4.4|9=55|35=0|34=226|49=MMABAXUK|52=20181129-14:24:48.156|56=MA|10=046|8=FIX.4.4|9=55|35=0|34=227|49=MMABAXUK|52=20181129-14:26:18.156|56=MA|10=046|8=FIX.4.4|9=55|35=0|34=228|49=MMABAXUK|52=20181129-14:27:49.155|56=MA|10=051|8=FIX.4.4|9=55|35=0|34=229|49=MMABAXUK|52=20181129-14:29:20.154|56=MA|10=042|8=FIX.4.4|9=55|35=0|34=230|49=MMABAXUK|52=20181129-14:30:51.154|56=MA|10=030|8=FIX.4.4|9=55|35=0|34=231|49=MMABAXUK|52=20181129-14:32:22.153|56=MA|10=030|8=FIX.4.4|9=55|35=0|34=232|49=MMABAXUK|52=20181129-14:33:52.153|56=MA|10=035|8=FIX.4.4|9=55|35=0|34=233|49=MMABAXUK|52=20181129-14:35:23.152|56=MA|10=035|8=FIX.4.4|9=55|35=0|34=234|49=MMABAXUK|52=20181129-14:36:54.151|56=MA|10=040|8=FIX.4.4|9=55|35=0|34=235|49=MMABAXUK|52=20181129-14:38:24.151|56=MA|10=040|8=FIX.4.4|9=55|35=0|34=236|49=MMABAXUK|52=20181129-14:39:55.151|56=MA|10=046|8=FIX.4.4|9=55|35=0|34=237|49=MMABAXUK|52=20181129-14:41:26.150|56=MA|10=037|8=FIX.4.4|9=55|35=0|34=238|49=MMABAXUK|52=20181129-14:42:57.149|56=MA|10=051|8=FIX.4.4|9=55|35=0|34=239|49=MMABAXUK|52=20181129-14:44:27.150|56=MA|10=043|8=FIX.4.4|9=55|35=0|34=240|49=MMABAXUK|52=20181129-14:45:58.148|56=MA|10=047|8=FIX.4.4|9=55|35=0|34=241|49=MMABAXUK|52=20181129-14:47:28.148|56=MA|10=047|8=FIX.4.4|9=55|35=0|34=242|49=MMABAXUK|52=20181129-14:48:59.147|56=MA|10=052|8=FIX.4.4|9=55|35=0|34=243|49=MMABAXUK|52=20181129-14:50:30.146|56=MA|10=034|8=FIX.4.4|9=55|35=0|34=244|49=MMABAXUK|52=20181129-14:52:00.146|56=MA|10=034|8=FIX.4.4|9=55|35=0|34=245|49=MMABAXUK|52=20181129-14:53:30.146|56=MA|10=039|8=FIX.4.4|9=55|35=0|34=246|49=MMABAXUK|52=20181129-14:55:01.147|56=MA|10=041|8=FIX.4.4|9=55|35=0|34=247|49=MMABAXUK|52=20181129-14:56:32.146|56=MA|10=046|8=FIX.4.4|9=55|35=0|34=248|49=MMABAXUK|52=20181129-14:58:02.146|56=MA|10=046|8=FIX.4.4|9=55|35=0|34=249|49=MMABAXUK|52=20181129-14:59:33.145|56=MA|10=051|8=FIX.4.4|9=55|35=0|34=250|49=MMABAXUK|52=20181129-15:01:04.144|56=MA|10=028|8=FIX.4.4|9=55|35=0|34=251|49=MMABAXUK|52=20181129-15:02:34.144|56=MA|10=033|8=FIX.4.4|9=55|35=0|34=252|49=MMABAXUK|52=20181129-15:04:05.143|56=MA|10=033|8=FIX.4.4|9=55|35=0|34=253|49=MMABAXUK|52=20181129-15:05:35.143|56=MA|10=038|8=FIX.4.4|9=55|35=0|34=254|49=MMABAXUK|52=20181129-15:07:05.143|56=MA|10=038|8=FIX.4.4|9=55|35=0|34=255|49=MMABAXUK|52=20181129-15:08:36.142|56=MA|10=043|8=FIX.4.4|9=55|35=0|34=256|49=MMABAXUK|52=20181129-15:10:07.141|56=MA|10=034|8=FIX.4.4|9=55|35=0|34=257|49=MMABAXUK|52=20181129-15:11:38.141|56=MA|10=040|8=FIX.4.4|9=55|35=0|34=258|49=MMABAXUK|52=20181129-15:13:09.140|56=MA|10=040|8=FIX.4.4|9=55|35=0|34=259|49=MMABAXUK|52=20181129-15:14:40.139|56=MA|10=045|8=FIX.4.4|9=55|35=0|34=260|49=MMABAXUK|52=20181129-15:16:10.140|56=MA|10=028|8=FIX.4.4|9=55|35=0|34=261|49=MMABAXUK|52=20181129-15:17:41.139|56=MA|10=042|8=FIX.4.4|9=55|35=0|34=262|49=MMABAXUK|52=20181129-15:19:12.138|56=MA|10=042|8=FIX.4.4|9=55|35=0|34=263|49=MMABAXUK|52=20181129-15:20:43.137|56=MA|10=038|8=FIX.4.4|9=55|35=0|34=264|49=MMABAXUK|52=20181129-15:22:14.137|56=MA|10=039|8=FIX.4.4|9=55|35=0|34=265|49=MMABAXUK|52=20181129-15:23:45.136|56=MA|10=044|8=FIX.4.4|9=55|35=0|34=266|49=MMABAXUK|52=20181129-15:25:15.136|56=MA|10=044|8=FIX.4.4|9=55|35=0|34=267|49=MMABAXUK|52=20181129-15:26:46.135|56=MA|10=049|8=FIX.4.4|9=55|35=0|34=268|49=MMABAXUK|52=20181129-15:28:16.136|56=MA|10=050|8=FIX.4.4|9=55|35=0|34=269|49=MMABAXUK|52=20181129-15:29:47.134|56=MA|10=054|8=FIX.4.4|9=55|35=0|34=270|49=MMABAXUK|52=20181129-15:31:17.135|56=MA|10=037|8=FIX.4.4|9=55|35=0|34=271|49=MMABAXUK|52=20181129-15:32:48.132|56=MA|10=040|8=FIX.4.4|9=55|35=0|34=272|49=MMABAXUK|52=20181129-15:34:18.133|56=MA|10=041|8=FIX.4.4|9=55|35=0|34=273|49=MMABAXUK|52=20181129-15:35:49.132|56=MA|10=046|8=FIX.4.4|9=55|35=0|34=274|49=MMABAXUK|52=20181129-15:37:20.132|56=MA|10=038|8=FIX.4.4|9=55|35=0|34=275|49=MMABAXUK|52=20181129-15:38:51.131|56=MA|10=043|8=FIX.4.4|9=55|35=0|34=276|49=MMABAXUK|52=20181129-15:40:21.131|56=MA|10=034|8=FIX.4.4|9=55|35=0|34=277|49=MMABAXUK|52=20181129-15:41:51.131|56=MA|10=039|8=FIX.4.4|9=55|35=0|34=278|49=MMABAXUK|52=20181129-15:43:21.132|56=MA|10=040|8=FIX.4.4|9=55|35=0|34=279|49=MMABAXUK|52=20181129-15:44:52.131|56=MA|10=045|8=FIX.4.4|9=55|35=0|34=280|49=MMABAXUK|52=20181129-15:46:23.130|56=MA|10=036|8=FIX.4.4|9=55|35=0|34=281|49=MMABAXUK|52=20181129-15:47:54.129|56=MA|10=050|8=FIX.4.4|9=55|35=0|34=282|49=MMABAXUK|52=20181129-15:49:24.130|56=MA|10=042|8=FIX.4.4|9=55|35=0|34=283|49=MMABAXUK|52=20181129-15:50:55.128|56=MA|10=046|8=FIX.4.4|9=55|35=0|34=284|49=MMABAXUK|52=20181129-15:52:26.128|56=MA|10=047|8=FIX.4.4|9=55|35=0|34=285|49=MMABAXUK|52=20181129-15:53:57.127|56=MA|10=052|8=FIX.4.4|9=55|35=0|34=286|49=MMABAXUK|52=20181129-15:55:27.128|56=MA|10=053|8=FIX.4.4|9=55|35=0|34=287|49=MMABAXUK|52=20181129-15:56:58.125|56=MA|10=056|8=FIX.4.4|9=55|35=0|34=288|49=MMABAXUK|52=20181129-15:58:28.126|56=MA|10=057|8=FIX.4.4|9=55|35=0|34=289|49=MMABAXUK|52=20181129-15:59:59.124|56=MA|10=061|8=FIX.4.4|9=55|35=0|34=290|49=MMABAXUK|52=20181129-16:01:29.125|56=MA|10=039|8=FIX.4.4|9=55|35=0|34=291|49=MMABAXUK|52=20181129-16:02:59.125|56=MA|10=044|8=FIX.4.4|9=55|35=0|34=292|49=MMABAXUK|52=20181129-16:04:30.123|56=MA|10=034|8=FIX.4.4|9=55|35=0|34=293|49=MMABAXUK|52=20181129-16:06:01.122|56=MA|10=034|8=FIX.4.4|9=55|35=0|34=294|49=MMABAXUK|52=20181129-16:07:31.122|56=MA|10=039|8=FIX.4.4|9=55|35=0|34=295|49=MMABAXUK|52=20181129-16:09:01.122|56=MA|10=039|8=FIX.4.4|9=55|35=0|34=296|49=MMABAXUK|52=20181129-16:10:32.120|56=MA|10=034|8=FIX.4.4|9=55|35=0|34=297|49=MMABAXUK|52=20181129-16:12:02.120|56=MA|10=034|8=FIX.4.4|9=55|35=0|34=298|49=MMABAXUK|52=20181129-16:13:32.120|56=MA|10=039|8=FIX.4.4|9=55|35=0|34=299|49=MMABAXUK|52=20181129-16:15:02.120|56=MA|10=039|8=FIX.4.4|9=55|35=0|34=300|49=MMABAXUK|52=20181129-16:16:33.118|56=MA|10=034|8=FIX.4.4|9=55|35=0|34=301|49=MMABAXUK|52=20181129-16:18:03.118|56=MA|10=034|8=FIX.4.4|9=55|35=0|34=302|49=MMABAXUK|52=20181129-16:19:34.117|56=MA|10=039|8=FIX.4.4|9=55|35=0|34=303|49=MMABAXUK|52=20181129-16:21:04.117|56=MA|10=030|8=FIX.4.4|9=55|35=0|34=304|49=MMABAXUK|52=20181129-16:22:35.117|56=MA|10=036|8=FIX.4.4|9=55|35=0|34=305|49=MMABAXUK|52=20181129-16:24:06.116|56=MA|10=036|8=FIX.4.4|9=55|35=0|34=306|49=MMABAXUK|52=20181129-16:25:36.116|56=MA|10=041|8=FIX.4.4|9=55|35=0|34=307|49=MMABAXUK|52=20181129-16:27:06.117|56=MA|10=042|8=FIX.4.4|9=55|35=0|34=308|49=MMABAXUK|52=20181129-16:28:36.117|56=MA|10=047|8=FIX.4.4|9=55|35=0|34=309|49=MMABAXUK|52=20181129-16:30:07.115|56=MA|10=037|8=FIX.4.4|9=55|35=0|34=310|49=MMABAXUK|52=20181129-16:31:37.115|56=MA|10=033|8=FIX.4.4|9=55|35=0|34=311|49=MMABAXUK|52=20181129-16:33:07.115|56=MA|10=033|8=FIX.4.4|9=55|35=0|34=312|49=MMABAXUK|52=20181129-16:34:38.114|56=MA|10=038|8=FIX.4.4|9=55|35=0|34=313|49=MMABAXUK|52=20181129-16:36:09.113|56=MA|10=038|8=FIX.4.4|9=55|35=0|34=314|49=MMABAXUK|52=20181129-16:37:40.113|56=MA|10=035|8=FIX.4.4|9=55|35=0|34=315|49=MMABAXUK|52=20181129-16:39:11.112|56=MA|10=035|8=FIX.4.4|9=55|35=0|34=316|49=MMABAXUK|52=20181129-16:40:42.112|56=MA|10=032|8=FIX.4.4|9=55|35=0|34=317|49=MMABAXUK|52=20181129-16:42:13.111|56=MA|10=032|8=FIX.4.4|9=55|35=0|34=318|49=MMABAXUK|52=20181129-16:43:43.111|56=MA|10=037|8=FIX.4.4|9=55|35=0|34=319|49=MMABAXUK|52=20181129-16:45:14.109|56=MA|10=045|8=FIX.4.4|9=55|35=0|34=320|49=MMABAXUK|52=20181129-16:46:44.109|56=MA|10=041|8=FIX.4.4|9=55|35=0|34=321|49=MMABAXUK|52=20181129-16:48:15.108|56=MA|10=041|8=FIX.4.4|9=55|35=0|34=322|49=MMABAXUK|52=20181129-16:49:45.108|56=MA|10=046|8=FIX.4.4|9=55|35=0|34=323|49=MMABAXUK|52=20181129-16:51:15.108|56=MA|10=037|8=FIX.4.4|9=55|35=0|34=324|49=MMABAXUK|52=20181129-16:52:45.108|56=MA|10=042|8=FIX.4.4|9=55|35=0|34=325|49=MMABAXUK|52=20181129-16:54:16.106|56=MA|10=041|8=FIX.4.4|9=55|35=0|34=326|49=MMABAXUK|52=20181129-16:55:46.106|56=MA|10=046|8=FIX.4.4|9=55|35=0|34=327|49=MMABAXUK|52=20181129-16:57:17.106|56=MA|10=047|8=FIX.4.4|9=55|35=0|34=328|49=MMABAXUK|52=20181129-16:58:48.105|56=MA|10=052|8=FIX.4.4|9=55|35=0|34=329|49=MMABAXUK|52=20181129-17:00:19.104|56=MA|10=038|8=FIX.4.4|9=55|35=0|34=330|49=MMABAXUK|52=20181129-17:01:49.104|56=MA|10=034|8=FIX.4.4|9=55|35=0|34=331|49=MMABAXUK|52=20181129-17:03:20.104|56=MA|10=026|8=FIX.4.4|9=55|35=0|34=332|49=MMABAXUK|52=20181129-17:04:51.103|56=MA|10=031|8=FIX.4.4|9=55|35=0|34=333|49=MMABAXUK|52=20181129-17:06:21.103|56=MA|10=031|8=FIX.4.4|9=55|35=0|34=334|49=MMABAXUK|52=20181129-17:07:51.103|56=MA|10=036|8=FIX.4.4|9=55|35=0|34=335|49=MMABAXUK|52=20181129-17:09:22.101|56=MA|10=035|8=FIX.4.4|9=55|35=0|34=336|49=MMABAXUK|52=20181129-17:10:52.101|56=MA|10=031|8=FIX.4.4|9=55|35=0|34=337|49=MMABAXUK|52=20181129-17:12:23.099|56=MA|10=048|8=FIX.4.4|9=55|35=0|34=338|49=MMABAXUK|52=20181129-17:13:53.100|56=MA|10=036|8=FIX.4.4|9=55|35=0|34=339|49=MMABAXUK|52=20181129-17:15:23.101|56=MA|10=037|8=FIX.4.4|9=55|35=0|34=340|49=MMABAXUK|52=20181129-17:16:54.100|56=MA|10=033|8=FIX.4.4|9=55|35=0|34=341|49=MMABAXUK|52=20181129-17:18:25.100|56=MA|10=034|8=FIX.4.4|9=55|35=0|34=342|49=MMABAXUK|52=20181129-17:19:55.100|56=MA|10=039|8=FIX.4.4|9=55|35=0|34=343|49=MMABAXUK|52=20181129-17:21:26.099|56=MA|10=048|8=FIX.4.4|9=55|35=0|34=344|49=MMABAXUK|52=20181129-17:22:57.098|56=MA|10=053|8=FIX.4.4|9=55|35=0|34=345|49=MMABAXUK|52=20181129-17:24:27.098|56=MA|10=053|8=FIX.4.4|9=55|35=0|34=346|49=MMABAXUK|52=20181129-17:25:58.097|56=MA|10=058|8=FIX.4.4|9=55|35=0|34=347|49=MMABAXUK|52=20181129-17:27:29.098|56=MA|10=060|8=FIX.4.4|9=55|35=0|34=348|49=MMABAXUK|52=20181129-17:29:00.097|56=MA|10=051|8=FIX.4.4|9=55|35=0|34=349|49=MMABAXUK|52=20181129-17:30:31.095|56=MA|10=046|8=FIX.4.4|9=55|35=0|34=350|49=MMABAXUK|52=20181129-17:32:01.095|56=MA|10=037|8=FIX.4.4|9=55|35=0|34=351|49=MMABAXUK|52=20181129-17:33:32.094|56=MA|10=042|8=FIX.4.4|9=55|35=0|34=352|49=MMABAXUK|52=20181129-17:35:02.095|56=MA|10=043|8=FIX.4.4|9=55|35=0|34=353|49=MMABAXUK|52=20181129-17:36:32.098|56=MA|10=051|8=FIX.4.4|9=55|35=0|34=354|49=MMABAXUK|52=20181129-17:38:02.101|56=MA|10=036|8=FIX.4.4|9=55|35=0|34=355|49=MMABAXUK|52=20181129-17:39:32.104|56=MA|10=044|8=FIX.4.4|9=55|35=0|34=356|49=MMABAXUK|52=20181129-17:41:02.105|56=MA|10=036|8=FIX.4.4|9=55|35=0|34=357|49=MMABAXUK|52=20181129-17:42:32.105|56=MA|10=041|8=FIX.4.4|9=55|35=0|34=358|49=MMABAXUK|52=20181129-17:44:02.106|56=MA|10=042|8=FIX.4.4|9=55|35=0|34=359|49=MMABAXUK|52=20181129-17:45:33.106|56=MA|10=048|8=FIX.4.4|9=55|35=0|34=360|49=MMABAXUK|52=20181129-17:47:04.105|56=MA|10=039|8=FIX.4.4|9=55|35=0|34=361|49=MMABAXUK|52=20181129-17:48:35.104|56=MA|10=044|8=FIX.4.4|9=55|35=0|34=362|49=MMABAXUK|52=20181129-17:50:05.104|56=MA|10=035|8=FIX.4.4|9=55|35=0|34=363|49=MMABAXUK|52=20181129-17:51:36.104|56=MA|10=041|8=FIX.4.4|9=55|35=0|34=364|49=MMABAXUK|52=20181129-17:53:07.102|56=MA|10=040|8=FIX.4.4|9=55|35=0|34=365|49=MMABAXUK|52=20181129-17:54:37.102|56=MA|10=045|8=FIX.4.4|9=55|35=0|34=366|49=MMABAXUK|52=20181129-17:56:08.102|56=MA|10=046|8=FIX.4.4|9=55|35=0|34=367|49=MMABAXUK|52=20181129-17:57:39.101|56=MA|10=051|8=FIX.4.4|9=55|35=0|34=368|49=MMABAXUK|52=20181129-17:59:10.101|56=MA|10=043|8=FIX.4.4|9=55|35=0|34=369|49=MMABAXUK|52=20181129-18:00:41.100|56=MA|10=034|8=FIX.4.4|9=55|35=0|34=370|49=MMABAXUK|52=20181129-18:02:12.100|56=MA|10=026|8=FIX.4.4|9=55|35=0|34=371|49=MMABAXUK|52=20181129-18:03:42.100|56=MA|10=031|8=FIX.4.4|9=55|35=0|34=372|49=MMABAXUK|52=20181129-18:05:12.100|56=MA|10=031|8=FIX.4.4|9=55|35=0|34=373|49=MMABAXUK|52=20181129-18:06:43.099|56=MA|10=054|8=FIX.4.4|9=55|35=0|34=374|49=MMABAXUK|52=20181129-18:08:14.099|56=MA|10=055|8=FIX.4.4|9=55|35=0|34=375|49=MMABAXUK|52=20181129-18:09:45.098|56=MA|10=060|8=FIX.4.4|9=55|35=0|34=376|49=MMABAXUK|52=20181129-18:11:16.098|56=MA|10=052|8=FIX.4.4|9=55|35=0|34=377|49=MMABAXUK|52=20181129-18:12:47.097|56=MA|10=057|8=FIX.4.4|9=55|35=0|34=378|49=MMABAXUK|52=20181129-18:14:18.096|56=MA|10=057|8=FIX.4.4|9=55|35=0|34=379|49=MMABAXUK|52=20181129-18:15:49.095|56=MA|10=062|8=FIX.4.4|9=55|35=0|34=380|49=MMABAXUK|52=20181129-18:17:19.096|56=MA|10=054|8=FIX.4.4|9=55|35=0|34=381|49=MMABAXUK|52=20181129-18:18:50.095|56=MA|10=050|8=FIX.4.4|9=55|35=0|34=382|49=MMABAXUK|52=20181129-18:20:21.094|56=MA|10=041|8=FIX.4.4|9=55|35=0|34=383|49=MMABAXUK|52=20181129-18:21:51.094|56=MA|10=046|8=FIX.4.4|9=55|35=0|34=384|49=MMABAXUK|52=20181129-18:23:21.094|56=MA|10=046|8=FIX.4.4|9=55|35=0|34=385|49=MMABAXUK|52=20181129-18:24:52.093|56=MA|10=051|8=FIX.4.4|9=55|35=0|34=386|49=MMABAXUK|52=20181129-18:26:23.091|56=MA|10=050|8=FIX.4.4|9=55|35=0|34=387|49=MMABAXUK|52=20181129-18:27:53.091|56=MA|10=055|8=FIX.4.4|9=55|35=0|34=388|49=MMABAXUK|52=20181129-18:29:23.091|56=MA|10=055|8=FIX.4.4|9=55|35=0|34=389|49=MMABAXUK|52=20181129-18:30:53.091|56=MA|10=051|8=FIX.4.4|9=55|35=0|34=390|49=MMABAXUK|52=20181129-18:32:23.091|56=MA|10=042|8=FIX.4.4|9=55|35=0|34=391|49=MMABAXUK|52=20181129-18:33:54.089|56=MA|10=055|8=FIX.4.4|9=55|35=0|34=392|49=MMABAXUK|52=20181129-18:35:24.089|56=MA|10=055|8=FIX.4.4|9=55|35=0|34=393|49=MMABAXUK|52=20181129-18:36:54.089|56=MA|10=060|8=FIX.4.4|9=55|35=0|34=394|49=MMABAXUK|52=20181129-18:38:25.088|56=MA|10=060|8=FIX.4.4|9=55|35=0|34=395|49=MMABAXUK|52=20181129-18:39:55.089|56=MA|10=066|8=FIX.4.4|9=55|35=0|34=396|49=MMABAXUK|52=20181129-18:41:26.088|56=MA|10=057|8=FIX.4.4|9=55|35=0|34=397|49=MMABAXUK|52=20181129-18:42:56.088|56=MA|10=062|8=FIX.4.4|9=55|35=0|34=398|49=MMABAXUK|52=20181129-18:44:27.088|56=MA|10=063|8=FIX.4.4|9=55|35=0|34=399|49=MMABAXUK|52=20181129-18:45:58.086|56=MA|10=067|8=FIX.4.4|9=55|35=0|34=400|49=MMABAXUK|52=20181129-18:47:28.087|56=MA|10=050|8=FIX.4.4|9=55|35=0|34=401|49=MMABAXUK|52=20181129-18:48:59.086|56=MA|10=055|8=FIX.4.4|9=55|35=0|34=402|49=MMABAXUK|52=20181129-18:50:30.085|56=MA|10=037|8=FIX.4.4|9=55|35=0|34=403|49=MMABAXUK|52=20181129-18:52:01.084|56=MA|10=037|8=FIX.4.4|9=55|35=0|34=404|49=MMABAXUK|52=20181129-18:53:31.085|56=MA|10=043|8=FIX.4.4|9=55|35=0|34=405|49=MMABAXUK|52=20181129-18:55:02.084|56=MA|10=043|8=FIX.4.4|9=55|35=0|34=406|49=MMABAXUK|52=20181129-18:56:33.083|56=MA|10=048|8=FIX.4.4|9=55|35=0|34=407|49=MMABAXUK|52=20181129-18:58:04.083|56=MA|10=049|8=FIX.4.4|9=55|35=0|34=408|49=MMABAXUK|52=20181129-18:59:34.083|56=MA|10=054|8=FIX.4.4|9=55|35=0|34=409|49=MMABAXUK|52=20181129-19:01:05.081|56=MA|10=039|8=FIX.4.4|9=55|35=0|34=410|49=MMABAXUK|52=20181129-19:02:36.080|56=MA|10=035|8=FIX.4.4|9=55|35=0|34=411|49=MMABAXUK|52=20181129-19:04:07.079|56=MA|10=044|8=FIX.4.4|9=55|35=0|34=412|49=MMABAXUK|52=20181129-19:05:37.080|56=MA|10=041|8=FIX.4.4|9=55|35=0|34=413|49=MMABAXUK|52=20181129-19:07:08.079|56=MA|10=050|8=FIX.4.4|9=55|35=0|34=414|49=MMABAXUK|52=20181129-19:08:39.078|56=MA|10=055|8=FIX.4.4|9=55|35=0|34=415|49=MMABAXUK|52=20181129-19:10:10.077|56=MA|10=037|8=FIX.4.4|9=55|35=0|34=416|49=MMABAXUK|52=20181129-19:11:40.077|56=MA|10=042|8=FIX.4.4|9=55|35=0|34=417|49=MMABAXUK|52=20181129-19:13:10.077|56=MA|10=042|8=FIX.4.4|9=55|35=0|34=418|49=MMABAXUK|52=20181129-19:14:40.077|56=MA|10=047|8=FIX.4.4|9=55|35=0|34=419|49=MMABAXUK|52=20181129-19:16:10.077|56=MA|10=047|8=FIX.4.4|9=55|35=0|34=420|49=MMABAXUK|52=20181129-19:17:40.077|56=MA|10=043|8=FIX.4.4|9=55|35=0|34=421|49=MMABAXUK|52=20181129-19:19:11.076|56=MA|10=043|8=FIX.4.4|9=55|35=0|34=422|49=MMABAXUK|52=20181129-19:20:41.076|56=MA|10=039|8=FIX.4.4|9=55|35=0|34=423|49=MMABAXUK|52=20181129-19:22:11.077|56=MA|10=040|8=FIX.4.4|9=55|35=0|34=424|49=MMABAXUK|52=20181129-19:23:41.078|56=MA|10=046|8=FIX.4.4|9=55|35=0|34=425|49=MMABAXUK|52=20181129-19:25:11.078|56=MA|10=046|8=FIX.4.4|9=55|35=0|34=426|49=MMABAXUK|52=20181129-19:26:41.079|56=MA|10=052|8=FIX.4.4|9=55|35=0|34=427|49=MMABAXUK|52=20181129-19:28:12.078|56=MA|10=052|8=FIX.4.4|9=55|35=0|34=428|49=MMABAXUK|52=20181129-19:29:42.079|56=MA|10=058|8=FIX.4.4|9=55|35=0|34=429|49=MMABAXUK|52=20181129-19:31:13.077|56=MA|10=048|8=FIX.4.4|9=55|35=0|34=430|49=MMABAXUK|52=20181129-19:32:44.077|56=MA|10=045|8=FIX.4.4|9=55|35=0|34=431|49=MMABAXUK|52=20181129-19:34:15.076|56=MA|10=045|8=FIX.4.4|9=55|35=0|34=432|49=MMABAXUK|52=20181129-19:35:45.076|56=MA|10=050|8=FIX.4.4|9=55|35=0|34=433|49=MMABAXUK|52=20181129-19:37:16.076|56=MA|10=051|8=FIX.4.4|9=55|35=0|34=434|49=MMABAXUK|52=20181129-19:38:47.074|56=MA|10=055|8=FIX.4.4|9=55|35=0|34=435|49=MMABAXUK|52=20181129-19:40:17.074|56=MA|10=046|8=FIX.4.4|9=55|35=0|34=436|49=MMABAXUK|52=20181129-19:41:47.074|56=MA|10=051|8=FIX.4.4|9=55|35=0|34=437|49=MMABAXUK|52=20181129-19:43:18.072|56=MA|10=050|8=FIX.4.4|9=55|35=0|34=438|49=MMABAXUK|52=20181129-19:44:48.072|56=MA|10=055|8=FIX.4.4|9=55|35=0|34=439|49=MMABAXUK|52=20181129-19:46:19.071|56=MA|10=055|8=FIX.4.4|9=55|35=0|34=440|49=MMABAXUK|52=20181129-19:47:49.071|56=MA|10=051|8=FIX.4.4|9=55|35=0|34=441|49=MMABAXUK|52=20181129-19:49:20.070|56=MA|10=042|8=FIX.4.4|9=55|35=0|34=442|49=MMABAXUK|52=20181129-19:50:50.070|56=MA|10=038|8=FIX.4.4|9=55|35=0|34=443|49=MMABAXUK|52=20181129-19:52:20.070|56=MA|10=038|8=FIX.4.4|9=55|35=0|34=444|49=MMABAXUK|52=20181129-19:53:50.070|56=MA|10=043|8=FIX.4.4|9=55|35=0|34=445|49=MMABAXUK|52=20181129-19:55:21.068|56=MA|10=051|8=FIX.4.4|9=55|35=0|34=446|49=MMABAXUK|52=20181129-19:56:52.069|56=MA|10=058|8=FIX.4.4|9=55|35=0|34=447|49=MMABAXUK|52=20181129-19:58:23.067|56=MA|10=057|8=FIX.4.4|9=55|35=0|34=448|49=MMABAXUK|52=20181129-19:59:53.067|56=MA|10=062|8=FIX.4.4|9=55|35=0|34=449|49=MMABAXUK|52=20181129-20:01:23.067|56=MA|10=039|8=FIX.4.4|9=55|35=0|34=450|49=MMABAXUK|52=20181129-20:02:53.067|56=MA|10=035|8=FIX.4.4|9=55|35=0|34=451|49=MMABAXUK|52=20181129-20:04:24.066|56=MA|10=035|8=FIX.4.4|9=55|35=0|34=452|49=MMABAXUK|52=20181129-20:05:54.066|56=MA|10=040|8=FIX.4.4|9=55|35=0|34=453|49=MMABAXUK|52=20181129-20:07:24.066|56=MA|10=040|8=FIX.4.4|9=55|35=0|34=454|49=MMABAXUK|52=20181129-20:08:55.065|56=MA|10=045|8=FIX.4.4|9=55|35=0|34=455|49=MMABAXUK|52=20181129-20:10:25.065|56=MA|10=036|8=FIX.4.4|9=55|35=0|34=456|49=MMABAXUK|52=20181129-20:11:56.065|56=MA|10=042|8=FIX.4.4|9=55|35=0|34=457|49=MMABAXUK|52=20181129-20:13:27.063|56=MA|10=041|8=FIX.4.4|9=55|35=0|34=458|49=MMABAXUK|52=20181129-20:14:57.063|56=MA|10=046|8=FIX.4.4|9=55|35=0|34=459|49=MMABAXUK|52=20181129-20:16:28.062|56=MA|10=046|8=FIX.4.4|9=55|35=0|34=460|49=MMABAXUK|52=20181129-20:17:58.062|56=MA|10=042|8=FIX.4.4|9=55|35=0|34=461|49=MMABAXUK|52=20181129-20:19:29.061|56=MA|10=042|8=FIX.4.4|9=55|35=0|34=462|49=MMABAXUK|52=20181129-20:20:59.062|56=MA|10=039|8=FIX.4.4|9=55|35=0|34=463|49=MMABAXUK|52=20181129-20:22:30.060|56=MA|10=029|8=FIX.4.4|9=55|35=0|34=464|49=MMABAXUK|52=20181129-20:24:00.060|56=MA|10=029|8=FIX.4.4|9=55|35=0|34=465|49=MMABAXUK|52=20181129-20:25:31.059|56=MA|10=043|8=FIX.4.4|9=55|35=0|34=466|49=MMABAXUK|52=20181129-20:27:01.060|56=MA|10=035|8=FIX.4.4|9=55|35=0|34=467|49=MMABAXUK|52=20181129-20:28:32.058|56=MA|10=048|8=FIX.4.4|9=55|35=0|34=468|49=MMABAXUK|52=20181129-20:30:02.058|56=MA|10=039|8=FIX.4.4|9=55|35=0|34=469|49=MMABAXUK|52=20181129-20:31:33.057|56=MA|10=044|8=FIX.4.4|9=55|35=0|34=470|49=MMABAXUK|52=20181129-20:33:03.058|56=MA|10=036|8=FIX.4.4|9=55|35=0|34=471|49=MMABAXUK|52=20181129-20:34:34.057|56=MA|10=041|8=FIX.4.4|9=55|35=0|34=472|49=MMABAXUK|52=20181129-20:36:05.055|56=MA|10=040|8=FIX.4.4|9=55|35=0|34=473|49=MMABAXUK|52=20181129-20:37:36.054|56=MA|10=045|8=FIX.4.4|9=55|35=0|34=474|49=MMABAXUK|52=20181129-20:39:06.054|56=MA|10=045|8=FIX.4.4|9=55|35=0|34=475|49=MMABAXUK|52=20181129-20:40:36.055|56=MA|10=042|8=FIX.4.4|9=55|35=0|34=476|49=MMABAXUK|52=20181129-20:42:07.055|56=MA|10=043|8=FIX.4.4|9=55|35=0|34=477|49=MMABAXUK|52=20181129-20:43:38.054|56=MA|10=048|8=FIX.4.4|9=55|35=0|34=478|49=MMABAXUK|52=20181129-20:45:08.054|56=MA|10=048|8=FIX.4.4|9=55|35=0|34=479|49=MMABAXUK|52=20181129-20:46:39.053|56=MA|10=053|8=FIX.4.4|9=55|35=0|34=480|49=MMABAXUK|52=20181129-20:48:10.053|56=MA|10=036|8=FIX.4.4|9=55|35=0|34=481|49=MMABAXUK|52=20181129-20:49:41.052|56=MA|10=041|8=FIX.4.4|9=55|35=0|34=482|49=MMABAXUK|52=20181129-20:51:12.052|56=MA|10=033|8=FIX.4.4|9=55|35=0|34=483|49=MMABAXUK|52=20181129-20:52:43.051|56=MA|10=038|8=FIX.4.4|9=55|35=0|34=484|49=MMABAXUK|52=20181129-20:54:14.051|56=MA|10=039|8=FIX.4.4|9=55|35=0|34=485|49=MMABAXUK|52=20181129-20:55:45.050|56=MA|10=044|8=FIX.4.4|9=55|35=0|34=486|49=MMABAXUK|52=20181129-20:57:16.049|56=MA|10=053|8=FIX.4.4|9=55|35=0|34=487|49=MMABAXUK|52=20181129-20:58:46.049|56=MA|10=058|8=FIX.4.4|9=55|35=0|34=488|49=MMABAXUK|52=20181129-21:00:16.049|56=MA|10=044|8=FIX.4.4|9=55|35=0|34=489|49=MMABAXUK|52=20181129-21:01:47.047|56=MA|10=048|8=FIX.4.4|9=55|35=0|34=490|49=MMABAXUK|52=20181129-21:03:18.047|56=MA|10=040|8=FIX.4.4|9=55|35=0|34=491|49=MMABAXUK|52=20181129-21:04:49.047|56=MA|10=046|8=FIX.4.4|9=55|35=0|34=492|49=MMABAXUK|52=20181129-21:06:20.046|56=MA|10=037|8=FIX.4.4|9=55|35=0|34=493|49=MMABAXUK|52=20181129-21:07:50.046|56=MA|10=042|8=FIX.4.4|9=55|35=0|34=494|49=MMABAXUK|52=20181129-21:09:20.046|56=MA|10=042|8=FIX.4.4|9=55|35=0|34=495|49=MMABAXUK|52=20181129-21:10:51.045|56=MA|10=038|8=FIX.4.4|9=55|35=0|34=496|49=MMABAXUK|52=20181129-21:12:22.044|56=MA|10=038|8=FIX.4.4|9=55|35=0|34=497|49=MMABAXUK|52=20181129-21:13:52.044|56=MA|10=043|8=FIX.4.4|9=55|35=0|34=498|49=MMABAXUK|52=20181129-21:15:23.042|56=MA|10=042|8=FIX.4.4|9=55|35=0|34=499|49=MMABAXUK|52=20181129-21:16:53.042|56=MA|10=047|8=FIX.4.4|9=55|35=0|34=500|49=MMABAXUK|52=20181129-21:18:24.042|56=MA|10=030|8=FIX.4.4|9=55|35=0|34=501|49=MMABAXUK|52=20181129-21:19:55.043|56=MA|10=037|8=FIX.4.4|9=55|35=0|34=502|49=MMABAXUK|52=20181129-21:21:26.041|56=MA|10=027|8=FIX.4.4|9=55|35=0|34=503|49=MMABAXUK|52=20181129-21:22:56.041|56=MA|10=032|8=FIX.4.4|9=55|35=0|34=504|49=MMABAXUK|52=20181129-21:24:26.041|56=MA|10=032|8=FIX.4.4|9=55|35=0|34=505|49=MMABAXUK|52=20181129-21:25:56.041|56=MA|10=037|8=FIX.4.4|9=55|35=0|34=506|49=MMABAXUK|52=20181129-21:27:26.041|56=MA|10=037|8=FIX.4.4|9=55|35=0|34=507|49=MMABAXUK|52=20181129-21:28:57.040|56=MA|10=042|8=FIX.4.4|9=55|35=0|34=508|49=MMABAXUK|52=20181129-21:30:28.039|56=MA|10=042|8=FIX.4.4|9=55|35=0|34=509|49=MMABAXUK|52=20181129-21:31:59.038|56=MA|10=047|8=FIX.4.4|9=55|35=0|34=510|49=MMABAXUK|52=20181129-21:33:29.038|56=MA|10=038|8=FIX.4.4|9=55|35=0|34=511|49=MMABAXUK|52=20181129-21:35:00.037|56=MA|10=029|8=FIX.4.4|9=55|35=0|34=512|49=MMABAXUK|52=20181129-21:36:30.038|56=MA|10=035|8=FIX.4.4|9=55|35=0|34=513|49=MMABAXUK|52=20181129-21:38:01.037|56=MA|10=035|8=FIX.4.4|9=55|35=0|34=514|49=MMABAXUK|52=20181129-21:39:32.036|56=MA|10=040|8=FIX.4.4|9=55|35=0|34=515|49=MMABAXUK|52=20181129-21:41:03.034|56=MA|10=030|8=FIX.4.4|9=55|35=0|34=516|49=MMABAXUK|52=20181129-21:42:33.034|56=MA|10=035|8=FIX.4.4|9=55|35=0|34=517|49=MMABAXUK|52=20181129-21:44:03.034|56=MA|10=035|8=FIX.4.4|9=55|35=0|34=518|49=MMABAXUK|52=20181129-21:45:33.034|56=MA|10=040|8=FIX.4.4|9=55|35=0|34=519|49=MMABAXUK|52=20181129-21:47:03.256|56=MA|10=046|8=FIX.4.4|9=55|35=0|34=520|49=MMABAXUK|52=20181129-21:48:34.032|56=MA|10=035|8=FIX.4.4|9=55|35=0|34=521|49=MMABAXUK|52=20181129-21:50:04.032|56=MA|10=026|8=FIX.4.4|9=55|35=0|34=522|49=MMABAXUK|52=20181129-21:51:35.031|56=MA|10=031|8=FIX.4.4|9=55|35=0|34=523|49=MMABAXUK|52=20181129-21:53:05.166|56=MA|10=040|8=FIX.4.4|9=55|35=0|34=524|49=MMABAXUK|52=20181129-21:54:35.171|56=MA|10=041|8=FIX.4.4|9=55|35=0|34=525|49=MMABAXUK|52=20181129-21:56:05.180|56=MA|10=041|8=FIX.4.4|9=55|35=0|34=526|49=MMABAXUK|52=20181129-21:57:35.258|56=MA|10=052|8=FIX.4.4|9=55|35=0|34=527|49=MMABAXUK|52=20181129-21:59:06.028|56=MA|10=048|8=FIX.4.4|9=55|35=0|34=528|49=MMABAXUK|52=20181129-22:00:36.029|56=MA|10=040|8=FIX.4.4|9=55|35=0|34=529|49=MMABAXUK|52=20181129-22:02:06.030|56=MA|10=032|8=FIX.4.4|9=55|35=0|34=530|49=MMABAXUK|52=20181129-22:03:36.248|56=MA|10=039|8=FIX.4.4|9=55|35=0|34=531|49=MMABAXUK|52=20181129-22:05:06.252|56=MA|10=034|8=FIX.4.4|9=55|35=0|34=532|49=MMABAXUK|52=20181129-22:06:37.027|56=MA|10=040|8=FIX.4.4|9=55|35=0|34=533|49=MMABAXUK|52=20181129-22:08:07.027|56=MA|10=040|8=FIX.4.4|9=55|35=0|34=534|49=MMABAXUK|52=20181129-22:09:37.168|56=MA|10=051|8=FIX.4.4|9=55|35=0|34=535|49=MMABAXUK|52=20181129-22:11:07.169|56=MA|10=043|8=FIX.4.4|9=55|35=0|34=536|49=MMABAXUK|52=20181129-22:12:37.255|56=MA|10=044|8=FIX.4.4|9=55|35=0|34=537|49=MMABAXUK|52=20181129-22:14:08.024|56=MA|10=039|8=FIX.4.4|9=55|35=0|34=538|49=MMABAXUK|52=20181129-22:15:38.024|56=MA|10=044|8=FIX.4.4|9=55|35=0|34=539|49=MMABAXUK|52=20181129-22:17:09.023|56=MA|10=044|8=FIX.4.4|9=55|35=0|34=540|49=MMABAXUK|52=20181129-22:18:39.023|56=MA|10=040|8=FIX.4.4|9=55|35=0|34=541|49=MMABAXUK|52=20181129-22:20:09.260|56=MA|10=034|8=FIX.4.4|9=55|35=0|34=542|49=MMABAXUK|52=20181129-22:21:40.023|56=MA|10=028|8=FIX.4.4|9=55|35=0|34=543|49=MMABAXUK|52=20181129-22:23:10.254|56=MA|10=034|8=FIX.4.4|9=55|35=0|34=544|49=MMABAXUK|52=20181129-22:24:41.022|56=MA|10=033|8=FIX.4.4|9=55|35=0|34=545|49=MMABAXUK|52=20181129-22:26:11.250|56=MA|10=036|8=FIX.4.4|9=55|35=0|34=546|49=MMABAXUK|52=20181129-22:27:41.258|56=MA|10=049|8=FIX.4.4|9=55|35=0|34=547|49=MMABAXUK|52=20181129-22:29:12.020|56=MA|10=037|8=FIX.4.4|9=55|35=0|34=548|49=MMABAXUK|52=20181129-22:30:42.251|56=MA|10=039|8=FIX.4.4|9=55|35=0|34=549|49=MMABAXUK|52=20181129-22:32:13.019|56=MA|10=042|8=FIX.4.4|9=55|35=0|34=550|49=MMABAXUK|52=20181129-22:33:43.321|56=MA|10=034|8=FIX.4.4|9=55|35=0|34=551|49=MMABAXUK|52=20181129-22:35:14.017|56=MA|10=037|8=FIX.4.4|9=55|35=0|34=552|49=MMABAXUK|52=20181129-22:36:44.017|56=MA|10=042|8=FIX.4.4|9=55|35=0|34=553|49=MMABAXUK|52=20181129-22:38:14.017|56=MA|10=042|8=FIX.4.4|9=55|35=0|34=554|49=MMABAXUK|52=20181129-22:39:44.257|56=MA|10=053|8=FIX.4.4|9=55|35=0|34=555|49=MMABAXUK|52=20181129-22:41:15.015|56=MA|10=037|8=FIX.4.4|9=55|35=0|34=556|49=MMABAXUK|52=20181129-22:42:45.016|56=MA|10=043|8=FIX.4.4|9=55|35=0|34=557|49=MMABAXUK|52=20181129-22:44:15.016|56=MA|10=043|8=FIX.4.4|9=55|35=0|34=558|49=MMABAXUK|52=20181129-22:45:45.262|56=MA|10=051|8=FIX.4.4|9=55|35=0|34=559|49=MMABAXUK|52=20181129-22:47:16.014|56=MA|10=047|8=FIX.4.4|9=55|35=0|34=560|49=MMABAXUK|52=20181129-22:48:46.014|56=MA|10=043|8=FIX.4.4|9=55|35=0|34=561|49=MMABAXUK|52=20181129-22:50:16.014|56=MA|10=034|8=FIX.4.4|9=55|35=0|34=562|49=MMABAXUK|52=20181129-22:51:47.012|56=MA|10=038|8=FIX.4.4|9=55|35=0|34=563|49=MMABAXUK|52=20181129-22:53:17.012|56=MA|10=038|8=FIX.4.4|9=55|35=0|34=564|49=MMABAXUK|52=20181129-22:54:48.012|56=MA|10=044|8=FIX.4.4|9=55|35=0|34=565|49=MMABAXUK|52=20181129-22:56:18.012|56=MA|10=044|8=FIX.4.4|9=55|35=0|34=566|49=MMABAXUK|52=20181129-22:57:49.010|56=MA|10=048|8=FIX.4.4|9=55|35=0|34=567|49=MMABAXUK|52=20181129-22:59:19.010|56=MA|10=048|8=FIX.4.4|9=55|35=0|34=568|49=MMABAXUK|52=20181129-23:00:50.009|56=MA|10=039|8=FIX.4.4|9=55|35=0|34=569|49=MMABAXUK|52=20181129-23:02:20.018|56=MA|10=039|8=FIX.4.4|9=55|35=0|34=570|49=MMABAXUK|52=20181129-23:03:50.021|56=MA|10=029|8=FIX.4.4|9=55|35=5|34=571|49=MMABAXUK|52=20181129-23:05:02.196|56=MA|10=047|8=FIX.4.4|9=82|35=A|34=1|49=MMABAXUK|52=20181207-11:48:45.521|56=MA|98=0|108=90|95=8|96=3.0.0rc4|10=119|8=FIX.4.4|9=180|35=D|34=2|49=MMABAXUK|52=20181207-11:49:43.232|56=MA|11=MMAD071218-8|453=1|448=MMABAXUK|447=C|452=11|55=NA|48=XS0042821321|22=4|54=2|60=20181207-11:49:43.232|38=1000000|40=1|423=1|10=205|8=FIX.4.4|9=53|35=0|34=3|49=MMABAXUK|52=20181207-11:51:13.520|56=MA|10=178|8=FIX.4.4|9=53|35=0|34=4|49=MMABAXUK|52=20181207-11:52:44.519|56=MA|10=192|8=FIX.4.4|9=53|35=0|34=5|49=MMABAXUK|52=20181207-11:54:15.518|56=MA|10=192|8=FIX.4.4|9=53|35=0|34=6|49=MMABAXUK|52=20181207-11:55:46.518|56=MA|10=198|8=FIX.4.4|9=53|35=0|34=7|49=MMABAXUK|52=20181207-11:57:17.516|56=MA|10=197|8=FIX.4.4|9=53|35=0|34=8|49=MMABAXUK|52=20181207-11:58:47.518|56=MA|10=204|8=FIX.4.4|9=180|35=D|34=9|49=MMABAXUK|52=20181207-11:59:28.347|56=MA|11=MMAD071218-9|453=1|448=MMABAXUK|447=C|452=11|55=NA|48=XS0042821321|22=4|54=2|60=20181207-11:59:28.347|38=1000000|40=1|423=1|10=235|8=FIX.4.4|9=54|35=0|34=10|49=MMABAXUK|52=20181207-12:00:58.515|56=MA|10=233|8=FIX.4.4|9=54|35=0|34=11|49=MMABAXUK|52=20181207-12:02:28.515|56=MA|10=233|8=FIX.4.4|9=54|35=0|34=12|49=MMABAXUK|52=20181207-12:03:58.515|56=MA|10=238|8=FIX.4.4|9=54|35=0|34=13|49=MMABAXUK|52=20181207-12:05:29.514|56=MA|10=238|8=FIX.4.4|9=54|35=0|34=14|49=MMABAXUK|52=20181207-12:07:00.513|56=MA|10=229|8=FIX.4.4|9=54|35=0|34=15|49=MMABAXUK|52=20181207-12:08:31.512|56=MA|10=234|8=FIX.4.4|9=54|35=0|34=16|49=MMABAXUK|52=20181207-12:10:01.512|56=MA|10=225|8=FIX.4.4|9=54|35=0|34=17|49=MMABAXUK|52=20181207-12:11:31.512|56=MA|10=230|8=FIX.4.4|9=54|35=0|34=18|49=MMABAXUK|52=20181207-12:13:02.511|56=MA|10=230|8=FIX.4.4|9=54|35=0|34=19|49=MMABAXUK|52=20181207-12:14:32.511|56=MA|10=235|8=FIX.4.4|9=54|35=0|34=20|49=MMABAXUK|52=20181207-12:16:03.510|56=MA|10=226|8=FIX.4.4|9=54|35=0|34=21|49=MMABAXUK|52=20181207-12:17:33.511|56=MA|10=232|8=FIX.4.4|9=54|35=0|34=22|49=MMABAXUK|52=20181207-12:19:03.511|56=MA|10=232|8=FIX.4.4|9=54|35=0|34=23|49=MMABAXUK|52=20181207-12:20:33.511|56=MA|10=228|8=FIX.4.4|9=54|35=0|34=24|49=MMABAXUK|52=20181207-12:22:04.510|56=MA|10=228|8=FIX.4.4|9=54|35=0|34=25|49=MMABAXUK|52=20181207-12:23:35.509|56=MA|10=242|8=FIX.4.4|9=54|35=0|34=26|49=MMABAXUK|52=20181207-12:25:06.510|56=MA|10=235|8=FIX.4.4|9=54|35=0|34=27|49=MMABAXUK|52=20181207-12:26:37.508|56=MA|10=248|8=FIX.4.4|9=54|35=0|34=28|49=MMABAXUK|52=20181207-12:28:07.508|56=MA|10=248|8=FIX.4.4|9=54|35=0|34=29|49=MMABAXUK|52=20181207-12:29:38.508|56=MA|10=254|8=FIX.4.4|9=54|35=0|34=30|49=MMABAXUK|52=20181207-12:31:09.506|56=MA|10=235|8=FIX.4.4|9=54|35=0|34=31|49=MMABAXUK|52=20181207-12:32:39.506|56=MA|10=240|8=FIX.4.4|9=54|35=0|34=32|49=MMABAXUK|52=20181207-12:34:10.505|56=MA|10=231|8=FIX.4.4|9=54|35=0|34=33|49=MMABAXUK|52=20181207-12:35:40.505|56=MA|10=236|8=FIX.4.4|9=54|35=0|34=34|49=MMABAXUK|52=20181207-12:37:11.504|56=MA|10=236|8=FIX.4.4|9=54|35=0|34=35|49=MMABAXUK|52=20181207-12:38:42.504|56=MA|10=242|8=FIX.4.4|9=54|35=0|34=36|49=MMABAXUK|52=20181207-12:40:13.504|56=MA|10=234|8=FIX.4.4|9=54|35=0|34=37|49=MMABAXUK|52=20181207-12:41:44.503|56=MA|10=239|8=FIX.4.4|9=54|35=0|34=38|49=MMABAXUK|52=20181207-12:43:15.502|56=MA|10=239|8=FIX.4.4|9=54|35=0|34=39|49=MMABAXUK|52=20181207-12:44:46.502|56=MA|10=245|8=FIX.4.4|9=54|35=0|34=40|49=MMABAXUK|52=20181207-12:46:17.500|56=MA|10=235|8=FIX.4.4|9=54|35=0|34=41|49=MMABAXUK|52=20181207-12:47:47.501|56=MA|10=241|8=FIX.4.4|9=54|35=0|34=42|49=MMABAXUK|52=20181207-12:49:17.501|56=MA|10=241|8=FIX.4.4|9=54|35=0|34=43|49=MMABAXUK|52=20181207-12:50:47.501|56=MA|10=237|8=FIX.4.4|9=54|35=0|34=44|49=MMABAXUK|52=20181207-12:52:18.500|56=MA|10=237|8=FIX.4.4|9=54|35=0|34=45|49=MMABAXUK|52=20181207-12:53:48.500|56=MA|10=242|8=FIX.4.4|9=54|35=0|34=46|49=MMABAXUK|52=20181207-12:55:18.501|56=MA|10=243|8=FIX.4.4|9=54|35=0|34=47|49=MMABAXUK|52=20181207-12:56:49.499|56=MA|10=009|8=FIX.4.4|9=54|35=0|34=48|49=MMABAXUK|52=20181207-12:58:19.499|56=MA|10=009|8=FIX.4.4|9=54|35=0|34=49|49=MMABAXUK|52=20181207-12:59:50.260|56=MA|10=248|8=FIX.4.4|9=54|35=0|34=50|49=MMABAXUK|52=20181207-13:01:20.497|56=MA|10=237|8=FIX.4.4|9=54|35=0|34=51|49=MMABAXUK|52=20181207-13:02:51.465|56=MA|10=238|8=FIX.4.4|9=54|35=0|34=52|49=MMABAXUK|52=20181207-13:04:21.496|56=MA|10=242|8=FIX.4.4|9=54|35=0|34=53|49=MMABAXUK|52=20181207-13:05:51.496|56=MA|10=247|8=FIX.4.4|9=54|35=0|34=54|49=MMABAXUK|52=20181207-13:07:22.463|56=MA|10=242|8=FIX.4.4|9=54|35=0|34=55|49=MMABAXUK|52=20181207-13:08:52.495|56=MA|10=252|8=FIX.4.4|9=54|35=0|34=56|49=MMABAXUK|52=20181207-13:10:23.176|56=MA|10=240|8=FIX.4.4|9=54|35=0|34=57|49=MMABAXUK|52=20181207-13:11:53.204|56=MA|10=237|8=FIX.4.4|9=54|35=0|34=58|49=MMABAXUK|52=20181207-13:13:23.493|56=MA|10=247|8=FIX.4.4|9=54|35=0|34=59|49=MMABAXUK|52=20181207-13:14:54.177|56=MA|10=252|8=FIX.4.4|9=54|35=0|34=60|49=MMABAXUK|52=20181207-13:16:24.492|56=MA|10=243|8=FIX.4.4|9=54|35=0|34=61|49=MMABAXUK|52=20181207-13:17:54.492|56=MA|10=248|8=FIX.4.4|9=54|35=0|34=62|49=MMABAXUK|52=20181207-13:19:25.173|56=MA|10=245|8=FIX.4.4|9=54|35=0|34=63|49=MMABAXUK|52=20181207-13:20:55.220|56=MA|10=234|8=FIX.4.4|9=54|35=0|34=64|49=MMABAXUK|52=20181207-13:22:25.257|56=MA|10=244|8=FIX.4.4|9=54|35=0|34=65|49=MMABAXUK|52=20181207-13:23:55.259|56=MA|10=251|8=FIX.4.4|9=54|35=0|34=66|49=MMABAXUK|52=20181207-13:25:25.490|56=MA|10=248|8=FIX.4.4|9=54|35=0|34=67|49=MMABAXUK|52=20181207-13:26:55.490|56=MA|10=253|8=FIX.4.4|9=54|35=0|34=68|49=MMABAXUK|52=20181207-13:28:26.463|56=MA|10=254|8=FIX.4.4|9=54|35=0|34=69|49=MMABAXUK|52=20181207-13:29:56.488|56=MA|10=010|8=FIX.4.4|9=54|35=0|34=70|49=MMABAXUK|52=20181207-13:31:26.488|56=MA|10=248|8=FIX.4.4|9=54|35=0|34=71|49=MMABAXUK|52=20181207-13:32:56.488|56=MA|10=253|8=FIX.4.4|9=54|35=0|34=72|49=MMABAXUK|52=20181207-13:34:27.262|56=MA|10=244|8=FIX.4.4|9=54|35=0|34=73|49=MMABAXUK|52=20181207-13:35:57.487|56=MA|10=002|8=FIX.4.4|9=54|35=0|34=74|49=MMABAXUK|52=20181207-13:37:28.174|56=MA|10=252|8=FIX.4.4|9=54|35=0|34=75|49=MMABAXUK|52=20181207-13:38:58.485|56=MA|10=006|8=FIX.4.4|9=54|35=0|34=76|49=MMABAXUK|52=20181207-13:40:29.175|56=MA|10=250|8=FIX.4.4|9=54|35=0|34=77|49=MMABAXUK|52=20181207-13:41:59.225|56=MA|10=251|8=FIX.4.4|9=54|35=0|34=78|49=MMABAXUK|52=20181207-13:43:29.484|56=MA|10=002|8=FIX.4.4|9=54|35=0|34=79|49=MMABAXUK|52=20181207-13:45:00.260|56=MA|10=242|8=FIX.4.4|9=54|35=0|34=80|49=MMABAXUK|52=20181207-13:46:30.483|56=MA|10=245|8=FIX.4.4|9=54|35=0|34=81|49=MMABAXUK|52=20181207-13:48:01.185|56=MA|10=245|8=FIX.4.4|9=54|35=0|34=82|49=MMABAXUK|52=20181207-13:49:31.467|56=MA|10=253|8=FIX.4.4|9=54|35=0|34=83|49=MMABAXUK|52=20181207-13:51:01.481|56=MA|10=240|8=FIX.4.4|9=54|35=0|34=84|49=MMABAXUK|52=20181207-13:52:31.481|56=MA|10=245|8=FIX.4.4|9=54|35=0|34=85|49=MMABAXUK|52=20181207-13:54:01.481|56=MA|10=245|8=FIX.4.4|9=54|35=0|34=86|49=MMABAXUK|52=20181207-13:55:31.481|56=MA|10=250|8=FIX.4.4|9=54|35=0|34=87|49=MMABAXUK|52=20181207-13:57:02.442|56=MA|10=248|8=FIX.4.4|9=54|35=0|34=88|49=MMABAXUK|52=20181207-13:58:32.480|56=MA|10=255|8=FIX.4.4|9=54|35=0|34=89|49=MMABAXUK|52=20181207-14:00:03.422|56=MA|10=238|8=FIX.4.4|9=54|35=0|34=90|49=MMABAXUK|52=20181207-14:01:33.479|56=MA|10=246|8=FIX.4.4|9=54|35=0|34=91|49=MMABAXUK|52=20181207-14:03:03.479|56=MA|10=246|8=FIX.4.4|9=54|35=0|34=92|49=MMABAXUK|52=20181207-14:04:34.175|56=MA|10=245|8=FIX.4.4|9=54|35=0|34=93|49=MMABAXUK|52=20181207-14:06:04.267|56=MA|10=247|8=FIX.4.4|9=54|35=0|34=94|49=MMABAXUK|52=20181207-14:07:34.477|56=MA|10=255|8=FIX.4.4|9=54|35=0|34=95|49=MMABAXUK|52=20181207-14:09:05.469|56=MA|10=001|8=FIX.4.4|9=54|35=0|34=96|49=MMABAXUK|52=20181207-14:10:35.476|56=MA|10=251|8=FIX.4.4|9=54|35=0|34=97|49=MMABAXUK|52=20181207-14:12:06.172|56=MA|10=245|8=FIX.4.4|9=54|35=0|34=98|49=MMABAXUK|52=20181207-14:13:36.175|56=MA|10=253|8=FIX.4.4|9=54|35=0|34=99|49=MMABAXUK|52=20181207-14:15:06.261|56=MA|10=249|8=FIX.4.4|9=55|35=0|34=100|49=MMABAXUK|52=20181207-14:16:36.270|56=MA|10=029|8=FIX.4.4|9=55|35=0|34=101|49=MMABAXUK|52=20181207-14:18:06.473|56=MA|10=034|8=FIX.4.4|9=55|35=0|34=102|49=MMABAXUK|52=20181207-14:19:37.472|56=MA|10=039|8=FIX.4.4|9=55|35=0|34=103|49=MMABAXUK|52=20181207-14:21:07.472|56=MA|10=030|8=FIX.4.4|9=55|35=0|34=104|49=MMABAXUK|52=20181207-14:22:38.471|56=MA|10=035|8=FIX.4.4|9=55|35=0|34=105|49=MMABAXUK|52=20181207-14:24:08.472|56=MA|10=036|8=FIX.4.4|9=55|35=0|34=106|49=MMABAXUK|52=20181207-14:25:39.472|56=MA|10=042|8=FIX.4.4|9=55|35=0|34=107|49=MMABAXUK|52=20181207-14:27:10.471|56=MA|10=033|8=FIX.4.4|9=55|35=0|34=108|49=MMABAXUK|52=20181207-14:28:40.471|56=MA|10=038|8=FIX.4.4|9=55|35=0|34=109|49=MMABAXUK|52=20181207-14:30:11.471|56=MA|10=030|8=FIX.4.4|9=55|35=0|34=110|49=MMABAXUK|52=20181207-14:31:42.469|56=MA|10=034|8=FIX.4.4|9=55|35=0|34=111|49=MMABAXUK|52=20181207-14:33:12.470|56=MA|10=026|8=FIX.4.4|9=183|35=D|34=112|49=MMABAXUK|52=20181207-14:33:39.604|56=MA|11=MMAD071218-10|453=1|448=MMABAXUK|447=C|452=11|55=NA|48=XS1385993610|22=4|54=2|60=20181207-14:33:39.603|38=1000000|40=1|423=1|10=120|8=FIX.4.4|9=55|35=0|34=113|49=MMABAXUK|52=20181207-14:35:10.173|56=MA|10=028|8=FIX.4.4|9=55|35=0|34=114|49=MMABAXUK|52=20181207-14:36:40.466|56=MA|10=038|8=FIX.4.4|9=55|35=0|34=115|49=MMABAXUK|52=20181207-14:38:10.468|56=MA|10=040|8=FIX.4.4|9=55|35=0|34=116|49=MMABAXUK|52=20181207-14:39:40.468|56=MA|10=045|8=FIX.4.4|9=55|35=0|34=117|49=MMABAXUK|52=20181207-14:41:11.466|56=MA|10=035|8=FIX.4.4|9=55|35=0|34=118|49=MMABAXUK|52=20181207-14:42:41.466|56=MA|10=040|8=FIX.4.4|9=55|35=0|34=119|49=MMABAXUK|52=20181207-14:44:12.466|56=MA|10=041|8=FIX.4.4|9=55|35=0|34=120|49=MMABAXUK|52=20181207-14:45:43.465|56=MA|10=037|8=FIX.4.4|9=55|35=0|34=121|49=MMABAXUK|52=20181207-14:47:14.464|56=MA|10=037|8=FIX.4.4|9=55|35=0|34=122|49=MMABAXUK|52=20181207-14:48:45.464|56=MA|10=043|8=FIX.4.4|9=183|35=D|34=123|49=MMABAXUK|52=20181207-14:49:36.637|56=MA|11=MMAD071218-11|453=1|448=MMABAXUK|447=C|452=11|55=NA|48=XS1380631512|22=4|54=2|60=20181207-14:49:36.636|38=1000000|40=1|423=1|10=128|8=FIX.4.4|9=55|35=0|34=124|49=MMABAXUK|52=20181207-14:51:07.464|56=MA|10=037|8=FIX.4.4|9=183|35=D|34=125|49=MMABAXUK|52=20181207-14:51:31.602|56=MA|11=MMAD071218-12|453=1|448=MMABAXUK|447=C|452=11|55=NA|48=XS1380631512|22=4|54=2|60=20181207-14:51:31.602|38=1000000|40=1|423=1|10=092|8=FIX.4.4|9=183|35=D|34=126|49=MMABAXUK|52=20181207-14:53:00.409|56=MA|11=MMAD071218-13|453=1|448=MMABAXUK|447=C|452=11|55=NA|48=XS1380631512|22=4|54=2|60=20181207-14:53:00.409|38=1000000|40=1|423=1|10=100|8=FIX.4.4|9=55|35=0|34=127|49=MMABAXUK|52=20181207-14:54:30.461|56=MA|10=036|8=FIX.4.4|9=55|35=0|34=128|49=MMABAXUK|52=20181207-14:56:00.462|56=MA|10=037|8=FIX.4.4|9=55|35=0|34=129|49=MMABAXUK|52=20181207-14:57:31.461|56=MA|10=042|8=FIX.4.4|9=55|35=0|34=130|49=MMABAXUK|52=20181207-14:59:02.461|56=MA|10=034|8=FIX.4.4|9=55|35=0|34=131|49=MMABAXUK|52=20181207-15:00:32.462|56=MA|10=026|8=FIX.4.4|9=55|35=0|34=132|49=MMABAXUK|52=20181207-15:02:03.461|56=MA|10=026|8=FIX.4.4|9=55|35=0|34=133|49=MMABAXUK|52=20181207-15:03:34.459|56=MA|10=039|8=FIX.4.4|9=55|35=0|34=134|49=MMABAXUK|52=20181207-15:05:04.471|56=MA|10=033|8=FIX.4.4|9=55|35=0|34=135|49=MMABAXUK|52=20181207-15:06:35.458|56=MA|10=044|8=FIX.4.4|9=55|35=0|34=136|49=MMABAXUK|52=20181207-15:08:05.458|56=MA|10=044|8=FIX.4.4|9=55|35=0|34=137|49=MMABAXUK|52=20181207-15:09:36.457|56=MA|10=049|8=FIX.4.4|9=55|35=0|34=138|49=MMABAXUK|52=20181207-15:11:06.457|56=MA|10=040|8=FIX.4.4|9=55|35=0|34=139|49=MMABAXUK|52=20181207-15:12:37.456|56=MA|10=045|8=FIX.4.4|9=55|35=0|34=140|49=MMABAXUK|52=20181207-15:14:07.456|56=MA|10=036|8=FIX.4.4|9=55|35=0|34=141|49=MMABAXUK|52=20181207-15:15:37.456|56=MA|10=041|8=FIX.4.4|9=55|35=0|34=142|49=MMABAXUK|52=20181207-15:17:08.455|56=MA|10=041|8=FIX.4.4|9=55|35=0|34=143|49=MMABAXUK|52=20181207-15:18:38.460|56=MA|10=042|8=FIX.4.4|9=55|35=0|34=144|49=MMABAXUK|52=20181207-15:20:08.466|56=MA|10=039|8=FIX.4.4|9=55|35=0|34=145|49=MMABAXUK|52=20181207-15:21:39.463|56=MA|10=042|8=FIX.4.4|9=55|35=0|34=146|49=MMABAXUK|52=20181207-15:23:10.455|56=MA|10=035|8=FIX.4.4|9=55|35=0|34=147|49=MMABAXUK|52=20181207-15:24:40.458|56=MA|10=043|8=FIX.4.4|9=55|35=0|34=148|49=MMABAXUK|52=20181207-15:26:11.456|56=MA|10=042|8=FIX.4.4|9=55|35=0|34=149|49=MMABAXUK|52=20181207-15:27:41.458|56=MA|10=049|8=FIX.4.4|9=55|35=0|34=150|49=MMABAXUK|52=20181207-15:29:11.464|56=MA|10=037|8=FIX.4.4|9=55|35=0|34=151|49=MMABAXUK|52=20181207-15:30:41.465|56=MA|10=034|8=FIX.4.4|9=55|35=0|34=152|49=MMABAXUK|52=20181207-15:32:12.463|56=MA|10=033|8=FIX.4.4|9=55|35=0|34=153|49=MMABAXUK|52=20181207-15:33:42.465|56=MA|10=040|8=FIX.4.4|9=55|35=0|34=154|49=MMABAXUK|52=20181207-15:35:13.450|56=MA|10=035|8=FIX.4.4|9=55|35=0|34=155|49=MMABAXUK|52=20181207-15:36:43.450|56=MA|10=040|8=FIX.4.4|9=55|35=0|34=156|49=MMABAXUK|52=20181207-15:38:14.449|56=MA|10=049|8=FIX.4.4|9=55|35=0|34=157|49=MMABAXUK|52=20181207-15:39:45.449|56=MA|10=055|8=FIX.4.4|9=55|35=0|34=158|49=MMABAXUK|52=20181207-15:41:16.448|56=MA|10=046|8=FIX.4.4|9=55|35=0|34=159|49=MMABAXUK|52=20181207-15:42:47.447|56=MA|10=051|8=FIX.4.4|9=55|35=0|34=160|49=MMABAXUK|52=20181207-15:44:17.447|56=MA|10=042|8=FIX.4.4|9=55|35=0|34=161|49=MMABAXUK|52=20181207-15:45:48.446|56=MA|10=047|8=FIX.4.4|9=55|35=0|34=162|49=MMABAXUK|52=20181207-15:47:19.447|56=MA|10=049|8=FIX.4.4|9=55|35=0|34=163|49=MMABAXUK|52=20181207-15:48:50.445|56=MA|10=044|8=FIX.4.4|9=55|35=0|34=164|49=MMABAXUK|52=20181207-15:50:21.446|56=MA|10=037|8=FIX.4.4|9=55|35=0|34=165|49=MMABAXUK|52=20181207-15:51:52.444|56=MA|10=041|8=FIX.4.4|9=55|35=0|34=166|49=MMABAXUK|52=20181207-15:53:22.444|56=MA|10=041|8=FIX.4.4|9=55|35=0|34=167|49=MMABAXUK|52=20181207-15:54:53.443|56=MA|10=046|8=FIX.4.4|9=55|35=0|34=168|49=MMABAXUK|52=20181207-15:56:23.443|56=MA|10=046|8=FIX.4.4|9=55|35=0|34=169|49=MMABAXUK|52=20181207-15:57:53.443|56=MA|10=051|8=FIX.4.4|9=55|35=0|34=170|49=MMABAXUK|52=20181207-15:59:24.442|56=MA|10=042|8=FIX.4.4|9=55|35=0|34=171|49=MMABAXUK|52=20181207-16:00:54.442|56=MA|10=033|8=FIX.4.4|9=55|35=0|34=172|49=MMABAXUK|52=20181207-16:02:24.443|56=MA|10=034|8=FIX.4.4|9=55|35=0|34=173|49=MMABAXUK|52=20181207-16:03:55.441|56=MA|10=038|8=FIX.4.4|9=55|35=0|34=174|49=MMABAXUK|52=20181207-16:05:25.441|56=MA|10=038|8=FIX.4.4|9=55|35=0|34=175|49=MMABAXUK|52=20181207-16:06:56.440|56=MA|10=043|8=FIX.4.4|9=55|35=0|34=176|49=MMABAXUK|52=20181207-16:08:26.440|56=MA|10=043|8=FIX.4.4|9=55|35=0|34=177|49=MMABAXUK|52=20181207-16:09:57.440|56=MA|10=049|8=FIX.4.4|9=55|35=0|34=178|49=MMABAXUK|52=20181207-16:11:28.439|56=MA|10=049|8=FIX.4.4|9=55|35=0|34=179|49=MMABAXUK|52=20181207-16:12:59.439|56=MA|10=055|8=FIX.4.4|9=55|35=0|34=180|49=MMABAXUK|52=20181207-16:14:30.438|56=MA|10=037|8=FIX.4.4|9=55|35=0|34=181|49=MMABAXUK|52=20181207-16:16:01.438|56=MA|10=038|8=FIX.4.4|9=55|35=0|34=182|49=MMABAXUK|52=20181207-16:17:32.436|56=MA|10=042|8=FIX.4.4|9=55|35=0|34=183|49=MMABAXUK|52=20181207-16:19:02.436|56=MA|10=042|8=FIX.4.4|9=55|35=0|34=184|49=MMABAXUK|52=20181207-16:20:33.437|56=MA|10=040|8=FIX.4.4|9=55|35=0|34=185|49=MMABAXUK|52=20181207-16:22:04.435|56=MA|10=039|8=FIX.4.4|9=55|35=0|34=186|49=MMABAXUK|52=20181207-16:23:35.434|56=MA|10=044|8=FIX.4.4|9=55|35=0|34=187|49=MMABAXUK|52=20181207-16:25:05.434|56=MA|10=044|8=FIX.4.4|9=55|35=0|34=188|49=MMABAXUK|52=20181207-16:26:35.434|56=MA|10=049|8=FIX.4.4|9=55|35=0|34=189|49=MMABAXUK|52=20181207-16:28:05.434|56=MA|10=049|8=FIX.4.4|9=55|35=0|34=190|49=MMABAXUK|52=20181207-16:29:36.432|56=MA|10=044|8=FIX.4.4|9=55|35=0|34=191|49=MMABAXUK|52=20181207-16:31:06.432|56=MA|10=035|8=FIX.4.4|9=55|35=0|34=192|49=MMABAXUK|52=20181207-16:32:37.432|56=MA|10=041|8=FIX.4.4|9=55|35=0|34=193|49=MMABAXUK|52=20181207-16:34:08.434|56=MA|10=044|8=FIX.4.4|9=55|35=0|34=194|49=MMABAXUK|52=20181207-16:35:38.441|56=MA|10=047|8=FIX.4.4|9=55|35=0|34=195|49=MMABAXUK|52=20181207-16:37:09.444|56=MA|10=051|8=FIX.4.4|9=55|35=0|34=196|49=MMABAXUK|52=20181207-16:38:40.444|56=MA|10=048|8=FIX.4.4|9=55|35=0|34=197|49=MMABAXUK|52=20181207-16:40:11.440|56=MA|10=036|8=FIX.4.4|9=55|35=0|34=198|49=MMABAXUK|52=20181207-16:41:42.444|56=MA|10=046|8=FIX.4.4|9=55|35=0|34=199|49=MMABAXUK|52=20181207-16:43:13.431|56=MA|10=043|8=FIX.4.4|9=55|35=0|34=200|49=MMABAXUK|52=20181207-16:44:43.436|56=MA|10=035|8=FIX.4.4|9=55|35=0|34=201|49=MMABAXUK|52=20181207-16:46:14.439|56=MA|10=039|8=FIX.4.4|9=55|35=0|34=202|49=MMABAXUK|52=20181207-16:47:45.431|56=MA|10=037|8=FIX.4.4|9=55|35=0|34=203|49=MMABAXUK|52=20181207-16:49:16.440|56=MA|10=038|8=FIX.4.4|9=55|35=0|34=204|49=MMABAXUK|52=20181207-16:50:47.436|56=MA|10=040|8=FIX.4.4|9=55|35=0|34=205|49=MMABAXUK|52=20181207-16:52:18.436|56=MA|10=041|8=FIX.4.4|9=55|35=0|34=206|49=MMABAXUK|52=20181207-16:53:49.436|56=MA|10=047|8=FIX.4.4|9=55|35=0|34=207|49=MMABAXUK|52=20181207-16:55:20.428|56=MA|10=040|8=FIX.4.4|9=55|35=0|34=208|49=MMABAXUK|52=20181207-16:56:50.436|56=MA|10=044|8=FIX.4.4|9=55|35=0|34=209|49=MMABAXUK|52=20181207-16:58:21.424|56=MA|10=042|8=FIX.4.4|9=55|35=0|34=210|49=MMABAXUK|52=20181207-16:59:51.429|56=MA|10=043|8=FIX.4.4|9=55|35=0|34=211|49=MMABAXUK|52=20181207-17:01:21.430|56=MA|10=021|8=FIX.4.4|9=55|35=0|34=212|49=MMABAXUK|52=20181207-17:02:51.434|56=MA|10=030|8=FIX.4.4|9=55|35=0|34=213|49=MMABAXUK|52=20181207-17:04:22.421|56=MA|10=027|8=FIX.4.4|9=55|35=0|34=214|49=MMABAXUK|52=20181207-17:05:53.420|56=MA|10=032|8=FIX.4.4|9=55|35=0|34=215|49=MMABAXUK|52=20181207-17:07:23.420|56=MA|10=032|8=FIX.4.4|9=55|35=0|34=216|49=MMABAXUK|52=20181207-17:08:53.428|56=MA|10=045|8=FIX.4.4|9=55|35=0|34=217|49=MMABAXUK|52=20181207-17:10:24.419|56=MA|10=037|8=FIX.4.4|9=55|35=0|34=218|49=MMABAXUK|52=20181207-17:11:54.422|56=MA|10=036|8=FIX.4.4|9=55|35=0|34=219|49=MMABAXUK|52=20181207-17:13:24.432|56=MA|10=037|8=FIX.4.4|9=55|35=0|34=220|49=MMABAXUK|52=20181207-17:14:55.430|56=MA|10=032|8=FIX.4.4|9=55|35=0|34=221|49=MMABAXUK|52=20181207-17:16:26.430|56=MA|10=033|8=FIX.4.4|9=55|35=0|34=222|49=MMABAXUK|52=20181207-17:17:57.425|56=MA|10=043|8=FIX.4.4|9=55|35=0|34=223|49=MMABAXUK|52=20181207-17:19:28.429|56=MA|10=048|8=FIX.4.4|9=55|35=0|34=224|49=MMABAXUK|52=20181207-17:20:59.429|56=MA|10=045|8=FIX.4.4|9=55|35=0|34=225|49=MMABAXUK|52=20181207-17:22:29.430|56=MA|10=037|8=FIX.4.4|9=55|35=0|34=226|49=MMABAXUK|52=20181207-17:24:00.425|56=MA|10=033|8=FIX.4.4|9=55|35=0|34=227|49=MMABAXUK|52=20181207-17:25:31.428|56=MA|10=042|8=FIX.4.4|9=55|35=0|34=228|49=MMABAXUK|52=20181207-17:27:02.419|56=MA|10=043|8=FIX.4.4|9=55|35=0|34=229|49=MMABAXUK|52=20181207-17:28:32.420|56=MA|10=040|8=FIX.4.4|9=55|35=0|34=230|49=MMABAXUK|52=20181207-17:30:03.427|56=MA|10=030|8=FIX.4.4|9=55|35=0|34=231|49=MMABAXUK|52=20181207-17:31:34.413|56=MA|10=031|8=FIX.4.4|9=55|35=0|34=232|49=MMABAXUK|52=20181207-17:33:04.414|56=MA|10=032|8=FIX.4.4|9=55|35=0|34=233|49=MMABAXUK|52=20181207-17:34:35.413|56=MA|10=037|8=FIX.4.4|9=55|35=0|34=234|49=MMABAXUK|52=20181207-17:36:06.412|56=MA|10=037|8=FIX.4.4|9=55|35=0|34=235|49=MMABAXUK|52=20181207-17:37:37.411|56=MA|10=042|8=FIX.4.4|9=55|35=0|34=236|49=MMABAXUK|52=20181207-17:39:07.411|56=MA|10=042|8=FIX.4.4|9=55|35=0|34=237|49=MMABAXUK|52=20181207-17:40:37.411|56=MA|10=038|8=FIX.4.4|9=55|35=0|34=238|49=MMABAXUK|52=20181207-17:42:08.411|56=MA|10=039|8=FIX.4.4|9=55|35=0|34=239|49=MMABAXUK|52=20181207-17:43:39.409|56=MA|10=052|8=FIX.4.4|9=55|35=0|34=240|49=MMABAXUK|52=20181207-17:45:10.407|56=MA|10=033|8=FIX.4.4|9=55|35=0|34=241|49=MMABAXUK|52=20181207-17:46:40.407|56=MA|10=038|8=FIX.4.4|9=55|35=0|34=242|49=MMABAXUK|52=20181207-17:48:10.408|56=MA|10=039|8=FIX.4.4|9=55|35=0|34=243|49=MMABAXUK|52=20181207-17:49:41.407|56=MA|10=044|8=FIX.4.4|9=55|35=0|34=244|49=MMABAXUK|52=20181207-17:51:12.407|56=MA|10=036|8=FIX.4.4|9=55|35=0|34=245|49=MMABAXUK|52=20181207-17:52:42.407|56=MA|10=041|8=FIX.4.4|9=55|35=0|34=246|49=MMABAXUK|52=20181207-17:54:12.407|56=MA|10=041|8=FIX.4.4|9=55|35=0|34=247|49=MMABAXUK|52=20181207-17:55:43.406|56=MA|10=046|8=FIX.4.4|9=55|35=0|34=248|49=MMABAXUK|52=20181207-17:57:14.405|56=MA|10=046|8=FIX.4.4|9=55|35=0|34=249|49=MMABAXUK|52=20181207-17:58:44.405|56=MA|10=051|8=FIX.4.4|9=55|35=0|34=250|49=MMABAXUK|52=20181207-18:00:15.404|56=MA|10=028|8=FIX.4.4|9=55|35=0|34=251|49=MMABAXUK|52=20181207-18:01:45.404|56=MA|10=033|8=FIX.4.4|9=55|35=0|34=252|49=MMABAXUK|52=20181207-18:03:16.403|56=MA|10=033|8=FIX.4.4|9=55|35=0|34=253|49=MMABAXUK|52=20181207-18:04:47.403|56=MA|10=039|8=FIX.4.4|9=55|35=0|34=254|49=MMABAXUK|52=20181207-18:06:18.403|56=MA|10=040|8=FIX.4.4|9=55|35=0|34=255|49=MMABAXUK|52=20181207-18:07:49.402|56=MA|10=045|8=FIX.4.4|9=55|35=0|34=256|49=MMABAXUK|52=20181207-18:09:20.402|56=MA|10=037|8=FIX.4.4|9=55|35=0|34=257|49=MMABAXUK|52=20181207-18:10:51.400|56=MA|10=032|8=FIX.4.4|9=55|35=0|34=258|49=MMABAXUK|52=20181207-18:12:22.400|56=MA|10=033|8=FIX.4.4|9=55|35=0|34=259|49=MMABAXUK|52=20181207-18:13:52.400|56=MA|10=038|8=FIX.4.4|9=55|35=0|34=260|49=MMABAXUK|52=20181207-18:15:22.400|56=MA|10=029|8=FIX.4.4|9=55|35=0|34=261|49=MMABAXUK|52=20181207-18:16:53.398|56=MA|10=051|8=FIX.4.4|9=55|35=0|34=262|49=MMABAXUK|52=20181207-18:18:24.399|56=MA|10=053|8=FIX.4.4|9=55|35=0|34=263|49=MMABAXUK|52=20181207-18:19:55.397|56=MA|10=057|8=FIX.4.4|9=55|35=0|34=264|49=MMABAXUK|52=20181207-18:21:26.397|56=MA|10=049|8=FIX.4.4|9=55|35=0|34=265|49=MMABAXUK|52=20181207-18:22:57.396|56=MA|10=054|8=FIX.4.4|9=55|35=0|34=266|49=MMABAXUK|52=20181207-18:24:27.397|56=MA|10=055|8=FIX.4.4|9=55|35=0|34=267|49=MMABAXUK|52=20181207-18:25:57.397|56=MA|10=060|8=FIX.4.4|9=55|35=0|34=268|49=MMABAXUK|52=20181207-18:27:28.396|56=MA|10=060|8=FIX.4.4|9=55|35=0|34=269|49=MMABAXUK|52=20181207-18:28:58.398|56=MA|10=067|8=FIX.4.4|9=55|35=0|34=270|49=MMABAXUK|52=20181207-18:30:28.398|56=MA|10=049|8=FIX.4.4|9=55|35=0|34=271|49=MMABAXUK|52=20181207-18:31:58.399|56=MA|10=055|8=FIX.4.4|9=55|35=0|34=272|49=MMABAXUK|52=20181207-18:33:28.400|56=MA|10=038|8=FIX.4.4|9=55|35=0|34=273|49=MMABAXUK|52=20181207-18:34:58.400|56=MA|10=043|8=FIX.4.4|9=55|35=0|34=274|49=MMABAXUK|52=20181207-18:36:29.398|56=MA|10=060|8=FIX.4.4|9=55|35=0|34=275|49=MMABAXUK|52=20181207-18:37:59.399|56=MA|10=066|8=FIX.4.4|9=55|35=0|34=276|49=MMABAXUK|52=20181207-18:39:30.397|56=MA|10=056|8=FIX.4.4|9=55|35=0|34=277|49=MMABAXUK|52=20181207-18:41:00.397|56=MA|10=047|8=FIX.4.4|9=55|35=0|34=278|49=MMABAXUK|52=20181207-18:42:31.396|56=MA|10=052|8=FIX.4.4|9=55|35=0|34=279|49=MMABAXUK|52=20181207-18:44:02.396|56=MA|10=053|8=FIX.4.4|9=55|35=0|34=280|49=MMABAXUK|52=20181207-18:45:32.396|56=MA|10=049|8=FIX.4.4|9=55|35=0|34=281|49=MMABAXUK|52=20181207-18:47:02.396|56=MA|10=049|8=FIX.4.4|9=55|35=0|34=282|49=MMABAXUK|52=20181207-18:48:32.396|56=MA|10=054|8=FIX.4.4|9=55|35=0|34=283|49=MMABAXUK|52=20181207-18:50:02.396|56=MA|10=045|8=FIX.4.4|9=55|35=0|34=284|49=MMABAXUK|52=20181207-18:51:33.396|56=MA|10=051|8=FIX.4.4|9=55|35=0|34=285|49=MMABAXUK|52=20181207-18:53:04.394|56=MA|10=050|8=FIX.4.4|9=55|35=0|34=286|49=MMABAXUK|52=20181207-18:54:35.393|56=MA|10=055|8=FIX.4.4|9=55|35=0|34=287|49=MMABAXUK|52=20181207-18:56:06.393|56=MA|10=056|8=FIX.4.4|9=55|35=0|34=288|49=MMABAXUK|52=20181207-18:57:36.393|56=MA|10=061|8=FIX.4.4|9=55|35=0|34=289|49=MMABAXUK|52=20181207-18:59:07.393|56=MA|10=062|8=FIX.4.4|9=55|35=0|34=290|49=MMABAXUK|52=20181207-19:00:38.391|56=MA|10=043|8=FIX.4.4|9=55|35=0|34=291|49=MMABAXUK|52=20181207-19:02:08.391|56=MA|10=043|8=FIX.4.4|9=55|35=0|34=292|49=MMABAXUK|52=20181207-19:03:38.391|56=MA|10=048|8=FIX.4.4|9=55|35=0|34=293|49=MMABAXUK|52=20181207-19:05:09.389|56=MA|10=056|8=FIX.4.4|9=55|35=0|34=294|49=MMABAXUK|52=20181207-19:06:40.389|56=MA|10=053|8=FIX.4.4|9=55|35=0|34=295|49=MMABAXUK|52=20181207-19:08:10.389|56=MA|10=053|8=FIX.4.4|9=55|35=0|34=296|49=MMABAXUK|52=20181207-19:09:41.388|56=MA|10=058|8=FIX.4.4|9=55|35=0|34=297|49=MMABAXUK|52=20181207-19:11:12.387|56=MA|10=049|8=FIX.4.4|9=55|35=0|34=298|49=MMABAXUK|52=20181207-19:12:42.387|56=MA|10=054|8=FIX.4.4|9=55|35=0|34=299|49=MMABAXUK|52=20181207-19:14:12.387|56=MA|10=054|8=FIX.4.4|9=55|35=0|34=300|49=MMABAXUK|52=20181207-19:15:42.387|56=MA|10=041|8=FIX.4.4|9=55|35=0|34=301|49=MMABAXUK|52=20181207-19:17:12.387|56=MA|10=041|8=FIX.4.4|9=55|35=0|34=302|49=MMABAXUK|52=20181207-19:18:43.387|56=MA|10=047|8=FIX.4.4|9=55|35=0|34=303|49=MMABAXUK|52=20181207-19:20:13.387|56=MA|10=038|8=FIX.4.4|9=55|35=0|34=304|49=MMABAXUK|52=20181207-19:21:44.385|56=MA|10=042|8=FIX.4.4|9=55|35=0|34=305|49=MMABAXUK|52=20181207-19:23:15.385|56=MA|10=043|8=FIX.4.4|9=55|35=0|34=306|49=MMABAXUK|52=20181207-19:24:45.385|56=MA|10=048|8=FIX.4.4|9=55|35=0|34=307|49=MMABAXUK|52=20181207-19:26:16.383|56=MA|10=047|8=FIX.4.4|9=55|35=0|34=308|49=MMABAXUK|52=20181207-19:27:46.384|56=MA|10=053|8=FIX.4.4|9=55|35=0|34=309|49=MMABAXUK|52=20181207-19:29:17.382|56=MA|10=052|8=FIX.4.4|9=55|35=0|34=310|49=MMABAXUK|52=20181207-19:30:47.384|56=MA|10=041|8=FIX.4.4|9=55|35=0|34=311|49=MMABAXUK|52=20181207-19:32:18.381|56=MA|10=039|8=FIX.4.4|9=55|35=0|34=312|49=MMABAXUK|52=20181207-19:33:48.381|56=MA|10=044|8=FIX.4.4|9=55|35=0|34=313|49=MMABAXUK|52=20181207-19:35:19.380|56=MA|10=044|8=FIX.4.4|9=55|35=0|34=314|49=MMABAXUK|52=20181207-19:36:50.379|56=MA|10=049|8=FIX.4.4|9=55|35=0|34=315|49=MMABAXUK|52=20181207-19:38:20.379|56=MA|10=049|8=FIX.4.4|9=55|35=0|34=316|49=MMABAXUK|52=20181207-19:39:51.379|56=MA|10=055|8=FIX.4.4|9=55|35=0|34=317|49=MMABAXUK|52=20181207-19:41:22.378|56=MA|10=046|8=FIX.4.4|9=55|35=0|34=318|49=MMABAXUK|52=20181207-19:42:53.377|56=MA|10=051|8=FIX.4.4|9=55|35=0|34=319|49=MMABAXUK|52=20181207-19:44:23.377|56=MA|10=051|8=FIX.4.4|9=55|35=0|34=320|49=MMABAXUK|52=20181207-19:45:54.377|56=MA|10=048|8=FIX.4.4|9=55|35=0|34=321|49=MMABAXUK|52=20181207-19:47:25.375|56=MA|10=047|8=FIX.4.4|9=55|35=0|34=322|49=MMABAXUK|52=20181207-19:48:55.375|56=MA|10=052|8=FIX.4.4|9=55|35=0|34=323|49=MMABAXUK|52=20181207-19:50:25.375|56=MA|10=043|8=FIX.4.4|9=55|35=0|34=324|49=MMABAXUK|52=20181207-19:51:55.376|56=MA|10=049|8=FIX.4.4|9=55|35=0|34=325|49=MMABAXUK|52=20181207-19:53:26.376|56=MA|10=050|8=FIX.4.4|9=55|35=0|34=326|49=MMABAXUK|52=20181207-19:54:56.376|56=MA|10=055|8=FIX.4.4|9=55|35=0|34=327|49=MMABAXUK|52=20181207-19:56:27.376|56=MA|10=056|8=FIX.4.4|9=55|35=0|34=328|49=MMABAXUK|52=20181207-19:57:58.374|56=MA|10=060|8=FIX.4.4|9=55|35=0|34=329|49=MMABAXUK|52=20181207-19:59:29.374|56=MA|10=061|8=FIX.4.4|9=55|35=0|34=330|49=MMABAXUK|52=20181207-20:00:59.374|56=MA|10=034|8=FIX.4.4|9=55|35=0|34=331|49=MMABAXUK|52=20181207-20:02:30.372|56=MA|10=024|8=FIX.4.4|9=55|35=0|34=332|49=MMABAXUK|52=20181207-20:04:01.372|56=MA|10=025|8=FIX.4.4|9=55|35=0|34=333|49=MMABAXUK|52=20181207-20:05:32.373|56=MA|10=032|8=FIX.4.4|9=55|35=0|34=334|49=MMABAXUK|52=20181207-20:07:03.370|56=MA|10=030|8=FIX.4.4|9=55|35=0|34=335|49=MMABAXUK|52=20181207-20:08:33.370|56=MA|10=035|8=FIX.4.4|9=55|35=0|34=336|49=MMABAXUK|52=20181207-20:10:04.371|56=MA|10=028|8=FIX.4.4|9=55|35=0|34=337|49=MMABAXUK|52=20181207-20:11:35.369|56=MA|10=041|8=FIX.4.4|9=55|35=0|34=338|49=MMABAXUK|52=20181207-20:13:05.381|56=MA|10=035|8=FIX.4.4|9=55|35=0|34=339|49=MMABAXUK|52=20181207-20:14:35.381|56=MA|10=040|8=FIX.4.4|9=55|35=0|34=340|49=MMABAXUK|52=20181207-20:16:06.372|56=MA|10=032|8=FIX.4.4|9=55|35=0|34=341|49=MMABAXUK|52=20181207-20:17:36.378|56=MA|10=043|8=FIX.4.4|9=55|35=0|34=342|49=MMABAXUK|52=20181207-20:19:07.378|56=MA|10=044|8=FIX.4.4|9=55|35=0|34=343|49=MMABAXUK|52=20181207-20:20:38.370|56=MA|10=033|8=FIX.4.4|9=55|35=0|34=344|49=MMABAXUK|52=20181207-20:22:08.381|56=MA|10=035|8=FIX.4.4|9=55|35=0|34=345|49=MMABAXUK|52=20181207-20:23:39.380|56=MA|10=040|8=FIX.4.4|9=55|35=0|34=346|49=MMABAXUK|52=20181207-20:25:09.380|56=MA|10=040|8=FIX.4.4|9=55|35=0|34=347|49=MMABAXUK|52=20181207-20:26:39.380|56=MA|10=045|8=FIX.4.4|9=55|35=0|34=348|49=MMABAXUK|52=20181207-20:28:10.367|56=MA|10=042|8=FIX.4.4|9=55|35=0|34=349|49=MMABAXUK|52=20181207-20:29:40.376|56=MA|10=047|8=FIX.4.4|9=55|35=0|34=350|49=MMABAXUK|52=20181207-20:31:11.373|56=MA|10=027|8=FIX.4.4|9=55|35=0|34=351|49=MMABAXUK|52=20181207-20:32:41.376|56=MA|10=035|8=FIX.4.4|9=55|35=0|34=352|49=MMABAXUK|52=20181207-20:34:12.363|56=MA|10=032|8=FIX.4.4|9=55|35=0|34=353|49=MMABAXUK|52=20181207-20:35:42.374|56=MA|10=039|8=FIX.4.4|9=55|35=0|34=354|49=MMABAXUK|52=20181207-20:37:13.363|56=MA|10=038|8=FIX.4.4|9=55|35=0|34=355|49=MMABAXUK|52=20181207-20:38:43.367|56=MA|10=047|8=FIX.4.4|9=55|35=0|34=356|49=MMABAXUK|52=20181207-20:40:13.374|56=MA|10=036|8=FIX.4.4|9=55|35=0|34=357|49=MMABAXUK|52=20181207-20:41:43.374|56=MA|10=041|8=FIX.4.4|9=55|35=0|34=358|49=MMABAXUK|52=20181207-20:43:14.373|56=MA|10=041|8=FIX.4.4|9=55|35=0|34=359|49=MMABAXUK|52=20181207-20:44:45.365|56=MA|10=048|8=FIX.4.4|9=55|35=0|34=360|49=MMABAXUK|52=20181207-20:46:15.367|56=MA|10=041|8=FIX.4.4|9=55|35=0|34=361|49=MMABAXUK|52=20181207-20:47:45.372|56=MA|10=042|8=FIX.4.4|9=55|35=0|34=362|49=MMABAXUK|52=20181207-20:49:16.371|56=MA|10=042|8=FIX.4.4|9=55|35=0|34=363|49=MMABAXUK|52=20181207-20:50:47.368|56=MA|10=045|8=FIX.4.4|9=55|35=0|34=364|49=MMABAXUK|52=20181207-20:52:17.370|56=MA|10=038|8=FIX.4.4|9=55|35=0|34=365|49=MMABAXUK|52=20181207-20:53:48.366|56=MA|10=049|8=FIX.4.4|9=55|35=0|34=366|49=MMABAXUK|52=20181207-20:55:18.368|56=MA|10=051|8=FIX.4.4|9=55|35=0|34=367|49=MMABAXUK|52=20181207-20:56:49.367|56=MA|10=056|8=FIX.4.4|9=55|35=0|34=368|49=MMABAXUK|52=20181207-20:58:20.365|56=MA|10=046|8=FIX.4.4|9=55|35=0|34=369|49=MMABAXUK|52=20181207-20:59:51.355|56=MA|10=051|8=FIX.4.4|9=55|35=0|34=370|49=MMABAXUK|52=20181207-21:01:21.355|56=MA|10=028|8=FIX.4.4|9=55|35=0|34=371|49=MMABAXUK|52=20181207-21:02:51.362|56=MA|10=031|8=FIX.4.4|9=55|35=0|34=372|49=MMABAXUK|52=20181207-21:04:22.353|56=MA|10=032|8=FIX.4.4|9=55|35=0|34=373|49=MMABAXUK|52=20181207-21:05:52.353|56=MA|10=037|8=FIX.4.4|9=55|35=0|34=374|49=MMABAXUK|52=20181207-21:07:23.352|56=MA|10=037|8=FIX.4.4|9=55|35=0|34=375|49=MMABAXUK|52=20181207-21:08:54.353|56=MA|10=044|8=FIX.4.4|9=55|35=0|34=376|49=MMABAXUK|52=20181207-21:10:25.351|56=MA|10=034|8=FIX.4.4|9=55|35=0|34=377|49=MMABAXUK|52=20181207-21:11:55.351|56=MA|10=039|8=FIX.4.4|9=55|35=0|34=378|49=MMABAXUK|52=20181207-21:13:26.350|56=MA|10=039|8=FIX.4.4|9=55|35=0|34=379|49=MMABAXUK|52=20181207-21:14:56.351|56=MA|10=045|8=FIX.4.4|9=55|35=0|34=380|49=MMABAXUK|52=20181207-21:16:27.349|56=MA|10=044|8=FIX.4.4|9=55|35=0|34=381|49=MMABAXUK|52=20181207-21:17:57.349|56=MA|10=049|8=FIX.4.4|9=55|35=0|34=382|49=MMABAXUK|52=20181207-21:19:27.349|56=MA|10=049|8=FIX.4.4|9=55|35=0|34=383|49=MMABAXUK|52=20181207-21:20:58.347|56=MA|10=044|8=FIX.4.4|9=55|35=0|34=384|49=MMABAXUK|52=20181207-21:22:28.347|56=MA|10=044|8=FIX.4.4|9=55|35=0|34=385|49=MMABAXUK|52=20181207-21:23:58.348|56=MA|10=050|8=FIX.4.4|9=55|35=0|34=386|49=MMABAXUK|52=20181207-21:25:29.346|56=MA|10=049|8=FIX.4.4|9=55|35=0|34=387|49=MMABAXUK|52=20181207-21:26:59.348|56=MA|10=056|8=FIX.4.4|9=55|35=0|34=388|49=MMABAXUK|52=20181207-21:28:30.346|56=MA|10=046|8=FIX.4.4|9=55|35=0|34=389|49=MMABAXUK|52=20181207-21:30:01.346|56=MA|10=038|8=FIX.4.4|9=55|35=0|34=390|49=MMABAXUK|52=20181207-21:31:32.345|56=MA|10=034|8=FIX.4.4|9=55|35=0|34=391|49=MMABAXUK|52=20181207-21:33:03.344|56=MA|10=034|8=FIX.4.4|9=55|35=0|34=392|49=MMABAXUK|52=20181207-21:34:33.345|56=MA|10=040|8=FIX.4.4|9=55|35=0|34=393|49=MMABAXUK|52=20181207-21:36:04.343|56=MA|10=039|8=FIX.4.4|9=55|35=0|34=394|49=MMABAXUK|52=20181207-21:37:34.343|56=MA|10=044|8=FIX.4.4|9=55|35=0|34=395|49=MMABAXUK|52=20181207-21:39:05.343|56=MA|10=045|8=FIX.4.4|9=55|35=0|34=396|49=MMABAXUK|52=20181207-21:40:36.341|56=MA|10=040|8=FIX.4.4|9=55|35=0|34=397|49=MMABAXUK|52=20181207-21:42:06.343|56=MA|10=042|8=FIX.4.4|9=55|35=0|34=398|49=MMABAXUK|52=20181207-21:43:37.341|56=MA|10=046|8=FIX.4.4|9=55|35=0|34=399|49=MMABAXUK|52=20181207-21:45:08.341|56=MA|10=047|8=FIX.4.4|9=55|35=0|34=400|49=MMABAXUK|52=20181207-21:46:38.341|56=MA|10=034|8=FIX.4.4|9=55|35=0|34=401|49=MMABAXUK|52=20181207-21:48:09.339|56=MA|10=042|8=FIX.4.4|9=55|35=0|34=402|49=MMABAXUK|52=20181207-21:49:39.339|56=MA|10=047|8=FIX.4.4|9=55|35=0|34=403|49=MMABAXUK|52=20181207-21:51:10.337|56=MA|10=028|8=FIX.4.4|9=55|35=0|34=404|49=MMABAXUK|52=20181207-21:52:40.337|56=MA|10=033|8=FIX.4.4|9=55|35=0|34=405|49=MMABAXUK|52=20181207-21:54:10.337|56=MA|10=033|8=FIX.4.4|9=55|35=0|34=406|49=MMABAXUK|52=20181207-21:55:40.339|56=MA|10=040|8=FIX.4.4|9=55|35=0|34=407|49=MMABAXUK|52=20181207-21:57:11.337|56=MA|10=039|8=FIX.4.4|9=55|35=0|34=408|49=MMABAXUK|52=20181207-21:58:41.337|56=MA|10=044|8=FIX.4.4|9=55|35=0|34=409|49=MMABAXUK|52=20181207-22:00:12.337|56=MA|10=031|8=FIX.4.4|9=55|35=0|34=410|49=MMABAXUK|52=20181207-22:01:42.337|56=MA|10=027|8=FIX.4.4|9=55|35=0|34=411|49=MMABAXUK|52=20181207-22:03:13.335|56=MA|10=026|8=FIX.4.4|9=55|35=0|34=412|49=MMABAXUK|52=20181207-22:04:44.335|56=MA|10=032|8=FIX.4.4|9=55|35=0|34=413|49=MMABAXUK|52=20181207-22:06:15.335|56=MA|10=033|8=FIX.4.4|9=55|35=0|34=414|49=MMABAXUK|52=20181207-22:07:46.333|56=MA|10=037|8=FIX.4.4|9=55|35=0|34=415|49=MMABAXUK|52=20181207-22:09:16.333|56=MA|10=037|8=FIX.4.4|9=55|35=0|34=416|49=MMABAXUK|52=20181207-22:10:47.333|56=MA|10=034|8=FIX.4.4|9=55|35=0|34=417|49=MMABAXUK|52=20181207-22:12:18.332|56=MA|10=034|8=FIX.4.4|9=55|35=0|34=418|49=MMABAXUK|52=20181207-22:13:49.332|56=MA|10=040|8=FIX.4.4|9=55|35=0|34=419|49=MMABAXUK|52=20181207-22:15:20.331|56=MA|10=031|8=FIX.4.4|9=55|35=0|34=420|49=MMABAXUK|52=20181207-22:16:50.331|56=MA|10=027|8=FIX.4.4|9=55|35=0|34=421|49=MMABAXUK|52=20181207-22:18:21.330|56=MA|10=027|8=FIX.4.4|9=55|35=0|34=422|49=MMABAXUK|52=20181207-22:19:51.330|56=MA|10=032|8=FIX.4.4|9=55|35=0|34=423|49=MMABAXUK|52=20181207-22:21:22.329|56=MA|10=032|8=FIX.4.4|9=55|35=0|34=424|49=MMABAXUK|52=20181207-22:22:53.328|56=MA|10=037|8=FIX.4.4|9=55|35=0|34=425|49=MMABAXUK|52=20181207-22:24:23.329|56=MA|10=038|8=FIX.4.4|9=55|35=0|34=426|49=MMABAXUK|52=20181207-22:25:54.327|56=MA|10=042|8=FIX.4.4|9=55|35=0|34=427|49=MMABAXUK|52=20181207-22:27:25.326|56=MA|10=042|8=FIX.4.4|9=55|35=0|34=428|49=MMABAXUK|52=20181207-22:28:55.335|56=MA|10=047|8=FIX.4.4|9=55|35=0|34=429|49=MMABAXUK|52=20181207-22:30:25.339|56=MA|10=042|8=FIX.4.4|9=55|35=0|34=430|49=MMABAXUK|52=20181207-22:31:55.340|56=MA|10=030|8=FIX.4.4|9=55|35=0|34=431|49=MMABAXUK|52=20181207-22:33:26.341|56=MA|10=032|8=FIX.4.4|9=55|35=0|34=432|49=MMABAXUK|52=20181207-22:34:57.340|56=MA|10=037|8=FIX.4.4|9=55|35=0|34=433|49=MMABAXUK|52=20181207-22:36:28.325|56=MA|10=041|8=FIX.4.4|9=55|35=0|34=434|49=MMABAXUK|52=20181207-22:37:59.324|56=MA|10=046|8=FIX.4.4|9=55|35=0|34=435|49=MMABAXUK|52=20181207-22:39:29.327|56=MA|10=049|8=FIX.4.4|9=55|35=0|34=436|49=MMABAXUK|52=20181207-22:40:59.328|56=MA|10=046|8=FIX.4.4|9=55|35=0|34=437|49=MMABAXUK|52=20181207-22:42:30.329|56=MA|10=039|8=FIX.4.4|9=55|35=0|34=438|49=MMABAXUK|52=20181207-22:44:01.331|56=MA|10=033|8=FIX.4.4|9=55|35=0|34=439|49=MMABAXUK|52=20181207-22:45:31.334|56=MA|10=041|8=FIX.4.4|9=55|35=0|34=440|49=MMABAXUK|52=20181207-22:47:02.328|56=MA|10=036|8=FIX.4.4|9=55|35=0|34=441|49=MMABAXUK|52=20181207-22:48:32.328|56=MA|10=041|8=FIX.4.4|9=55|35=0|34=442|49=MMABAXUK|52=20181207-22:50:02.331|56=MA|10=026|8=FIX.4.4|9=55|35=0|34=443|49=MMABAXUK|52=20181207-22:51:33.325|56=MA|10=035|8=FIX.4.4|9=55|35=0|34=444|49=MMABAXUK|52=20181207-22:53:04.327|56=MA|10=038|8=FIX.4.4|9=55|35=0|34=445|49=MMABAXUK|52=20181207-22:54:34.333|56=MA|10=040|8=FIX.4.4|9=55|35=0|34=446|49=MMABAXUK|52=20181207-22:56:05.329|56=MA|10=046|8=FIX.4.4|9=55|35=0|34=447|49=MMABAXUK|52=20181207-22:57:36.331|56=MA|10=045|8=FIX.4.4|9=55|35=0|34=448|49=MMABAXUK|52=20181207-22:59:07.322|56=MA|10=046|8=FIX.4.4|9=55|35=0|34=449|49=MMABAXUK|52=20181207-23:00:38.326|56=MA|10=042|8=FIX.4.4|9=55|35=0|34=450|49=MMABAXUK|52=20181207-23:02:09.329|56=MA|10=037|8=FIX.4.4|9=55|35=0|34=451|49=MMABAXUK|52=20181207-23:03:40.332|56=MA|10=028|8=FIX.4.4|9=55|35=5|34=452|49=MMABAXUK|52=20181207-23:05:03.182|56=MA|10=038|8=FIX.4.4|9=82|35=A|34=1|49=MMABAXUK|52=20181210-09:34:16.842|56=MA|98=0|108=90|95=8|96=3.0.0rc4|10=119|8=FIX.4.4|9=53|35=0|34=2|49=MMABAXUK|52=20181210-09:35:47.839|56=MA|10=200|8=FIX.4.4|9=53|35=0|34=3|49=MMABAXUK|52=20181210-09:37:17.840|56=MA|10=192|8=FIX.4.4|9=53|35=0|34=4|49=MMABAXUK|52=20181210-09:38:48.834|56=MA|10=201|8=FIX.4.4|9=53|35=0|34=5|49=MMABAXUK|52=20181210-09:40:18.839|56=MA|10=197|8=FIX.4.4|9=53|35=0|34=6|49=MMABAXUK|52=20181210-09:41:49.410|56=MA|10=188|8=FIX.4.4|9=53|35=0|34=7|49=MMABAXUK|52=20181210-09:43:19.835|56=MA|10=199|8=FIX.4.4|9=53|35=0|34=8|49=MMABAXUK|52=20181210-09:44:49.842|56=MA|10=202|8=FIX.4.4|9=53|35=0|34=9|49=MMABAXUK|52=20181210-09:46:20.412|56=MA|10=187|8=FIX.4.4|9=54|35=0|34=10|49=MMABAXUK|52=20181210-09:47:50.414|56=MA|10=234|8=FIX.4.4|9=54|35=0|34=11|49=MMABAXUK|52=20181210-09:49:20.836|56=MA|10=242|8=FIX.4.4|9=54|35=0|34=12|49=MMABAXUK|52=20181210-09:50:50.844|56=MA|10=237|8=FIX.4.4|9=54|35=0|34=13|49=MMABAXUK|52=20181210-09:52:21.330|56=MA|10=228|8=FIX.4.4|9=54|35=0|34=14|49=MMABAXUK|52=20181210-09:53:51.424|56=MA|10=237|8=FIX.4.4|9=54|35=0|34=15|49=MMABAXUK|52=20181210-09:55:21.842|56=MA|10=241|8=FIX.4.4|9=54|35=0|34=16|49=MMABAXUK|52=20181210-09:56:52.413|56=MA|10=241|8=FIX.4.4|9=54|35=0|34=17|49=MMABAXUK|52=20181210-09:58:22.830|56=MA|10=244|8=FIX.4.4|9=54|35=0|34=18|49=MMABAXUK|52=20181210-09:59:52.837|56=MA|10=000|8=FIX.4.4|9=54|35=0|34=19|49=MMABAXUK|52=20181210-10:01:23.392|56=MA|10=230|8=FIX.4.4|9=54|35=0|34=20|49=MMABAXUK|52=20181210-10:02:53.405|56=MA|10=221|8=FIX.4.4|9=54|35=0|34=21|49=MMABAXUK|52=20181210-10:04:23.826|56=MA|10=228|8=FIX.4.4|9=54|35=0|34=22|49=MMABAXUK|52=20181210-10:05:54.414|56=MA|10=227|8=FIX.4.4|9=54|35=0|34=23|49=MMABAXUK|52=20181210-10:07:24.825|56=MA|10=233|8=FIX.4.4|9=54|35=0|34=24|49=MMABAXUK|52=20181210-10:08:54.825|56=MA|10=238|8=FIX.4.4|9=54|35=0|34=25|49=MMABAXUK|52=20181210-10:10:25.824|56=MA|10=229|8=FIX.4.4|9=54|35=0|34=26|49=MMABAXUK|52=20181210-10:11:55.831|56=MA|10=232|8=FIX.4.4|9=54|35=0|34=27|49=MMABAXUK|52=20181210-10:13:26.328|56=MA|10=234|8=FIX.4.4|9=54|35=0|34=28|49=MMABAXUK|52=20181210-10:14:56.407|56=MA|10=237|8=FIX.4.4|9=54|35=0|34=29|49=MMABAXUK|52=20181210-10:16:26.840|56=MA|10=238|8=FIX.4.4|9=54|35=0|34=30|49=MMABAXUK|52=20181210-10:17:57.353|56=MA|10=234|8=FIX.4.4|9=54|35=0|34=31|49=MMABAXUK|52=20181210-10:19:27.831|56=MA|10=235|8=FIX.4.4|9=54|35=0|34=32|49=MMABAXUK|52=20181210-10:20:58.423|56=MA|10=229|8=FIX.4.4|9=54|35=0|34=33|49=MMABAXUK|52=20181210-10:22:28.824|56=MA|10=234|8=FIX.4.4|9=54|35=0|34=34|49=MMABAXUK|52=20181210-10:23:58.834|56=MA|10=240|8=FIX.4.4|9=54|35=0|34=35|49=MMABAXUK|52=20181210-10:25:29.326|56=MA|10=237|8=FIX.4.4|9=54|35=0|34=36|49=MMABAXUK|52=20181210-10:26:59.387|56=MA|10=249|8=FIX.4.4|9=54|35=0|34=37|49=MMABAXUK|52=20181210-10:28:29.827|56=MA|10=248|8=FIX.4.4|9=54|35=0|34=38|49=MMABAXUK|52=20181210-10:30:00.417|56=MA|10=226|8=FIX.4.4|9=54|35=0|34=39|49=MMABAXUK|52=20181210-10:31:30.822|56=MA|10=231|8=FIX.4.4|9=54|35=0|34=40|49=MMABAXUK|52=20181210-10:33:00.831|56=MA|10=222|8=FIX.4.4|9=54|35=0|34=41|49=MMABAXUK|52=20181210-10:34:31.337|56=MA|10=229|8=FIX.4.4|9=54|35=0|34=42|49=MMABAXUK|52=20181210-10:36:01.429|56=MA|10=231|8=FIX.4.4|9=54|35=0|34=43|49=MMABAXUK|52=20181210-10:37:31.820|56=MA|10=231|8=FIX.4.4|9=54|35=0|34=44|49=MMABAXUK|52=20181210-10:39:02.422|56=MA|10=230|8=FIX.4.4|9=54|35=0|34=45|49=MMABAXUK|52=20181210-10:40:32.820|56=MA|10=228|8=FIX.4.4|9=54|35=0|34=46|49=MMABAXUK|52=20181210-10:42:03.338|56=MA|10=233|8=FIX.4.4|9=54|35=0|34=47|49=MMABAXUK|52=20181210-10:43:33.418|56=MA|10=237|8=FIX.4.4|9=54|35=0|34=48|49=MMABAXUK|52=20181210-10:45:03.424|56=MA|10=234|8=FIX.4.4|9=54|35=0|34=49|49=MMABAXUK|52=20181210-10:46:33.817|56=MA|10=245|8=FIX.4.4|9=54|35=0|34=50|49=MMABAXUK|52=20181210-10:48:03.817|56=MA|10=236|8=FIX.4.4|9=54|35=0|34=51|49=MMABAXUK|52=20181210-10:49:34.817|56=MA|10=242|8=FIX.4.4|9=54|35=0|34=52|49=MMABAXUK|52=20181210-10:51:05.363|56=MA|10=230|8=FIX.4.4|9=54|35=0|34=53|49=MMABAXUK|52=20181210-10:52:35.817|56=MA|10=239|8=FIX.4.4|9=54|35=0|34=54|49=MMABAXUK|52=20181210-10:54:06.338|56=MA|10=238|8=FIX.4.4|9=54|35=0|34=55|49=MMABAXUK|52=20181210-10:55:36.815|56=MA|10=243|8=FIX.4.4|9=54|35=0|34=56|49=MMABAXUK|52=20181210-10:57:07.337|56=MA|10=243|8=FIX.4.4|9=54|35=0|34=57|49=MMABAXUK|52=20181210-10:58:37.422|56=MA|10=243|8=FIX.4.4|9=54|35=0|34=58|49=MMABAXUK|52=20181210-11:00:07.813|56=MA|10=233|8=FIX.4.4|9=54|35=0|34=59|49=MMABAXUK|52=20181210-11:01:37.813|56=MA|10=238|8=FIX.4.4|9=54|35=0|34=60|49=MMABAXUK|52=20181210-11:03:08.397|56=MA|10=237|8=FIX.4.4|9=54|35=0|34=61|49=MMABAXUK|52=20181210-11:04:38.408|56=MA|10=235|8=FIX.4.4|9=54|35=0|34=62|49=MMABAXUK|52=20181210-11:06:08.810|56=MA|10=232|8=FIX.4.4|9=54|35=0|34=63|49=MMABAXUK|52=20181210-11:07:38.810|56=MA|10=237|8=FIX.4.4|9=54|35=0|34=64|49=MMABAXUK|52=20181210-11:09:09.809|56=MA|10=246|8=FIX.4.4|9=54|35=0|34=65|49=MMABAXUK|52=20181210-11:10:39.809|56=MA|10=242|8=FIX.4.4|9=54|35=0|34=66|49=MMABAXUK|52=20181210-11:12:09.811|56=MA|10=235|8=FIX.4.4|9=54|35=0|34=67|49=MMABAXUK|52=20181210-11:13:39.821|56=MA|10=241|8=FIX.4.4|9=54|35=0|34=68|49=MMABAXUK|52=20181210-11:15:10.340|56=MA|10=229|8=FIX.4.4|9=54|35=0|34=69|49=MMABAXUK|52=20181210-11:16:40.412|56=MA|10=234|8=FIX.4.4|9=54|35=0|34=70|49=MMABAXUK|52=20181210-11:18:10.815|56=MA|10=232|8=FIX.4.4|9=54|35=0|34=71|49=MMABAXUK|52=20181210-11:19:40.817|56=MA|10=239|8=FIX.4.4|9=54|35=0|34=72|49=MMABAXUK|52=20181210-11:21:11.325|56=MA|10=225|8=FIX.4.4|9=54|35=0|34=73|49=MMABAXUK|52=20181210-11:22:41.412|56=MA|10=227|8=FIX.4.4|9=54|35=0|34=74|49=MMABAXUK|52=20181210-11:24:11.820|56=MA|10=230|8=FIX.4.4|9=54|35=0|34=75|49=MMABAXUK|52=20181210-11:25:42.421|56=MA|10=233|8=FIX.4.4|9=54|35=0|34=76|49=MMABAXUK|52=20181210-11:27:12.810|56=MA|10=235|8=FIX.4.4|9=54|35=0|34=77|49=MMABAXUK|52=20181210-11:28:42.817|56=MA|10=247|8=FIX.4.4|9=54|35=0|34=78|49=MMABAXUK|52=20181210-11:30:13.403|56=MA|10=230|8=FIX.4.4|9=54|35=0|34=79|49=MMABAXUK|52=20181210-11:31:43.422|56=MA|10=236|8=FIX.4.4|9=54|35=0|34=80|49=MMABAXUK|52=20181210-11:33:13.809|56=MA|10=236|8=FIX.4.4|9=54|35=0|34=81|49=MMABAXUK|52=20181210-11:34:44.414|56=MA|10=234|8=FIX.4.4|9=54|35=0|34=82|49=MMABAXUK|52=20181210-11:36:14.807|56=MA|10=240|8=FIX.4.4|9=54|35=0|34=83|49=MMABAXUK|52=20181210-11:37:44.812|56=MA|10=241|8=FIX.4.4|9=54|35=0|34=84|49=MMABAXUK|52=20181210-11:39:15.399|56=MA|10=252|8=FIX.4.4|9=54|35=0|34=85|49=MMABAXUK|52=20181210-11:40:45.804|56=MA|10=239|8=FIX.4.4|9=54|35=0|34=86|49=MMABAXUK|52=20181210-11:42:15.810|56=MA|10=236|8=FIX.4.4|9=54|35=0|34=87|49=MMABAXUK|52=20181210-11:43:45.814|56=MA|10=245|8=FIX.4.4|9=54|35=0|34=88|49=MMABAXUK|52=20181210-11:45:16.335|56=MA|10=244|8=FIX.4.4|9=54|35=0|34=89|49=MMABAXUK|52=20181210-11:46:46.417|56=MA|10=250|8=FIX.4.4|9=54|35=0|34=90|49=MMABAXUK|52=20181210-11:48:16.799|56=MA|10=254|8=FIX.4.4|9=54|35=0|34=91|49=MMABAXUK|52=20181210-11:49:46.805|56=MA|10=247|8=FIX.4.4|9=54|35=0|34=92|49=MMABAXUK|52=20181210-11:51:16.811|56=MA|10=235|8=FIX.4.4|9=54|35=0|34=93|49=MMABAXUK|52=20181210-11:52:47.331|56=MA|10=238|8=FIX.4.4|9=54|35=0|34=94|49=MMABAXUK|52=20181210-11:54:17.798|56=MA|10=255|8=FIX.4.4|9=54|35=0|34=95|49=MMABAXUK|52=20181210-11:55:47.811|56=MA|10=246|8=FIX.4.4|9=54|35=0|34=96|49=MMABAXUK|52=20181210-11:57:18.325|56=MA|10=247|8=FIX.4.4|9=54|35=0|34=97|49=MMABAXUK|52=20181210-11:58:48.414|56=MA|10=251|8=FIX.4.4|9=54|35=0|34=98|49=MMABAXUK|52=20181210-12:00:18.800|56=MA|10=236|8=FIX.4.4|9=54|35=0|34=99|49=MMABAXUK|52=20181210-12:01:48.801|56=MA|10=242|8=FIX.4.4|9=55|35=0|34=100|49=MMABAXUK|52=20181210-12:03:18.803|56=MA|10=019|8=FIX.4.4|9=55|35=0|34=101|49=MMABAXUK|52=20181210-12:04:49.426|56=MA|10=026|8=FIX.4.4|9=55|35=0|34=102|49=MMABAXUK|52=20181210-12:06:19.792|56=MA|10=032|8=FIX.4.4|9=55|35=0|34=103|49=MMABAXUK|52=20181210-12:07:49.792|56=MA|10=037|8=FIX.4.4|9=55|35=0|34=104|49=MMABAXUK|52=20181210-12:09:19.794|56=MA|10=039|8=FIX.4.4|9=55|35=0|34=105|49=MMABAXUK|52=20181210-12:10:49.802|56=MA|10=025|8=FIX.4.4|9=55|35=0|34=106|49=MMABAXUK|52=20181210-12:12:20.421|56=MA|10=014|8=FIX.4.4|9=55|35=0|34=107|49=MMABAXUK|52=20181210-12:13:50.792|56=MA|10=030|8=FIX.4.4|9=55|35=0|34=108|49=MMABAXUK|52=20181210-12:15:20.794|56=MA|10=032|8=FIX.4.4|9=55|35=0|34=109|49=MMABAXUK|52=20181210-12:16:51.792|56=MA|10=036|8=FIX.4.4|9=55|35=0|34=110|49=MMABAXUK|52=20181210-12:18:21.794|56=MA|10=029|8=FIX.4.4|9=55|35=0|34=111|49=MMABAXUK|52=20181210-12:19:52.415|56=MA|10=025|8=FIX.4.4|9=55|35=0|34=112|49=MMABAXUK|52=20181210-12:21:22.797|56=MA|10=029|8=FIX.4.4|9=55|35=0|34=113|49=MMABAXUK|52=20181210-12:22:53.416|56=MA|10=023|8=FIX.4.4|9=55|35=0|34=114|49=MMABAXUK|52=20181210-12:24:23.790|56=MA|10=028|8=FIX.4.4|9=55|35=0|34=115|49=MMABAXUK|52=20181210-12:25:54.339|56=MA|10=033|8=FIX.4.4|9=55|35=0|34=116|49=MMABAXUK|52=20181210-12:27:24.423|56=MA|10=027|8=FIX.4.4|9=55|35=0|34=117|49=MMABAXUK|52=20181210-12:28:54.795|56=MA|10=044|8=FIX.4.4|9=55|35=0|34=118|49=MMABAXUK|52=20181210-12:30:25.420|56=MA|10=021|8=FIX.4.4|9=55|35=0|34=119|49=MMABAXUK|52=20181210-12:31:55.420|56=MA|10=026|8=FIX.4.4|9=55|35=0|34=120|49=MMABAXUK|52=20181210-12:33:25.429|56=MA|10=026|8=FIX.4.4|9=55|35=0|34=121|49=MMABAXUK|52=20181210-12:34:55.783|56=MA|10=034|8=FIX.4.4|9=55|35=0|34=122|49=MMABAXUK|52=20181210-12:36:25.784|56=MA|10=035|8=FIX.4.4|9=55|35=0|34=123|49=MMABAXUK|52=20181210-12:37:56.425|56=MA|10=033|8=FIX.4.4|9=55|35=0|34=124|49=MMABAXUK|52=20181210-12:39:26.429|56=MA|10=037|8=FIX.4.4|9=55|35=0|34=125|49=MMABAXUK|52=20181210-12:40:56.781|56=MA|10=034|8=FIX.4.4|9=55|35=0|34=126|49=MMABAXUK|52=20181210-12:42:27.411|56=MA|10=025|8=FIX.4.4|9=55|35=0|34=127|49=MMABAXUK|52=20181210-12:43:57.427|56=MA|10=037|8=FIX.4.4|9=55|35=0|34=128|49=MMABAXUK|52=20181210-12:45:27.779|56=MA|10=047|8=FIX.4.4|9=55|35=0|34=129|49=MMABAXUK|52=20181210-12:46:57.780|56=MA|10=044|8=FIX.4.4|9=55|35=0|34=130|49=MMABAXUK|52=20181210-12:48:27.780|56=MA|10=035|8=FIX.4.4|9=55|35=0|34=131|49=MMABAXUK|52=20181210-12:49:58.779|56=MA|10=049|8=FIX.4.4|9=55|35=0|34=132|49=MMABAXUK|52=20181210-12:51:28.788|56=MA|10=040|8=FIX.4.4|9=55|35=0|34=133|49=MMABAXUK|52=20181210-12:52:58.791|56=MA|10=039|8=FIX.4.4|9=55|35=0|34=134|49=MMABAXUK|52=20181210-12:54:29.411|56=MA|10=029|8=FIX.4.4|9=55|35=0|34=135|49=MMABAXUK|52=20181210-12:55:59.781|56=MA|10=044|8=FIX.4.4|9=55|35=0|34=136|49=MMABAXUK|52=20181210-12:57:29.787|56=MA|10=050|8=FIX.4.4|9=55|35=0|34=137|49=MMABAXUK|52=20181210-12:59:00.341|56=MA|10=028|8=FIX.4.4|9=55|35=0|34=138|49=MMABAXUK|52=20181210-13:00:30.778|56=MA|10=033|8=FIX.4.4|9=55|35=0|34=139|49=MMABAXUK|52=20181210-13:02:00.784|56=MA|10=030|8=FIX.4.4|9=55|35=0|34=140|49=MMABAXUK|52=20181210-13:03:31.343|56=MA|10=018|8=FIX.4.4|9=55|35=0|34=141|49=MMABAXUK|52=20181210-13:05:01.427|56=MA|10=021|8=FIX.4.4|9=55|35=0|34=142|49=MMABAXUK|52=20181210-13:06:31.773|56=MA|10=030|8=FIX.4.4|9=55|35=0|34=143|49=MMABAXUK|52=20181210-13:08:01.774|56=MA|10=031|8=FIX.4.4|9=55|35=0|34=144|49=MMABAXUK|52=20181210-13:09:32.416|56=MA|10=030|8=FIX.4.4|9=55|35=0|34=145|49=MMABAXUK|52=20181210-13:11:02.426|56=MA|10=022|8=FIX.4.4|9=55|35=0|34=146|49=MMABAXUK|52=20181210-13:12:32.772|56=MA|10=031|8=FIX.4.4|9=55|35=0|34=147|49=MMABAXUK|52=20181210-13:14:03.348|56=MA|10=031|8=FIX.4.4|9=55|35=0|34=148|49=MMABAXUK|52=20181210-13:15:33.419|56=MA|10=035|8=FIX.4.4|9=55|35=0|34=149|49=MMABAXUK|52=20181210-13:17:03.771|56=MA|10=036|8=FIX.4.4|9=55|35=0|34=150|49=MMABAXUK|52=20181210-13:18:34.433|56=MA|10=028|8=FIX.4.4|9=55|35=0|34=151|49=MMABAXUK|52=20181210-13:20:04.769|56=MA|10=031|8=FIX.4.4|9=55|35=0|34=152|49=MMABAXUK|52=20181210-13:21:35.345|56=MA|10=027|8=FIX.4.4|9=55|35=0|34=153|49=MMABAXUK|52=20181210-13:23:05.353|56=MA|10=026|8=FIX.4.4|9=55|35=0|34=154|49=MMABAXUK|52=20181210-13:24:35.573|56=MA|10=035|8=FIX.4.4|9=55|35=0|34=155|49=MMABAXUK|52=20181210-13:26:05.767|56=MA|10=040|8=FIX.4.4|9=55|35=0|34=156|49=MMABAXUK|52=20181210-13:27:35.767|56=MA|10=045|8=FIX.4.4|9=55|35=0|34=157|49=MMABAXUK|52=20181210-13:29:05.773|56=MA|10=042|8=FIX.4.4|9=55|35=0|34=158|49=MMABAXUK|52=20181210-13:30:35.773|56=MA|10=038|8=FIX.4.4|9=55|35=0|34=159|49=MMABAXUK|52=20181210-13:32:05.773|56=MA|10=038|8=FIX.4.4|9=55|35=0|34=160|49=MMABAXUK|52=20181210-13:33:35.776|56=MA|10=037|8=FIX.4.4|9=55|35=0|34=161|49=MMABAXUK|52=20181210-13:35:06.769|56=MA|10=040|8=FIX.4.4|9=55|35=0|34=162|49=MMABAXUK|52=20181210-13:36:36.774|56=MA|10=041|8=FIX.4.4|9=55|35=0|34=163|49=MMABAXUK|52=20181210-13:38:07.766|56=MA|10=043|8=FIX.4.4|9=55|35=0|34=164|49=MMABAXUK|52=20181210-13:39:37.770|56=MA|10=043|8=FIX.4.4|9=55|35=0|34=165|49=MMABAXUK|52=20181210-13:41:08.775|56=MA|10=040|8=FIX.4.4|9=55|35=0|34=166|49=MMABAXUK|52=20181210-13:42:39.765|56=MA|10=045|8=FIX.4.4|9=55|35=0|34=167|49=MMABAXUK|52=20181210-13:44:09.769|56=MA|10=049|8=FIX.4.4|9=55|35=0|34=168|49=MMABAXUK|52=20181210-13:45:40.768|56=MA|10=045|8=FIX.4.4|9=55|35=0|34=169|49=MMABAXUK|52=20181210-13:47:11.771|56=MA|10=040|8=FIX.4.4|9=55|35=0|34=170|49=MMABAXUK|52=20181210-13:48:42.768|56=MA|10=043|8=FIX.4.4|9=55|35=0|34=171|49=MMABAXUK|52=20181210-13:50:13.763|56=MA|10=030|8=FIX.4.4|9=55|35=0|34=172|49=MMABAXUK|52=20181210-13:51:44.773|56=MA|10=037|8=FIX.4.4|9=55|35=0|34=173|49=MMABAXUK|52=20181210-13:53:15.421|56=MA|10=028|8=FIX.4.4|9=55|35=0|34=174|49=MMABAXUK|52=20181210-13:54:45.762|56=MA|10=041|8=FIX.4.4|9=55|35=0|34=175|49=MMABAXUK|52=20181210-13:56:15.768|56=MA|10=047|8=FIX.4.4|9=55|35=0|34=176|49=MMABAXUK|52=20181210-13:57:45.770|56=MA|10=045|8=FIX.4.4|9=55|35=0|34=177|49=MMABAXUK|52=20181210-13:59:16.340|56=MA|10=039|8=FIX.4.4|9=55|35=0|34=178|49=MMABAXUK|52=20181210-14:00:46.756|56=MA|10=041|8=FIX.4.4|9=55|35=0|34=179|49=MMABAXUK|52=20181210-14:02:17.425|56=MA|10=035|8=FIX.4.4|9=55|35=0|34=180|49=MMABAXUK|52=20181210-14:03:47.754|56=MA|10=036|8=FIX.4.4|9=55|35=0|34=181|49=MMABAXUK|52=20181210-14:05:17.754|56=MA|10=036|8=FIX.4.4|9=55|35=0|34=182|49=MMABAXUK|52=20181210-14:06:47.754|56=MA|10=041|8=FIX.4.4|9=55|35=0|34=183|49=MMABAXUK|52=20181210-14:08:17.754|56=MA|10=041|8=FIX.4.4|9=55|35=0|34=184|49=MMABAXUK|52=20181210-14:09:47.754|56=MA|10=046|8=FIX.4.4|9=55|35=0|34=185|49=MMABAXUK|52=20181210-14:11:17.754|56=MA|10=037|8=FIX.4.4|9=55|35=0|34=186|49=MMABAXUK|52=20181210-14:12:47.757|56=MA|10=045|8=FIX.4.4|9=55|35=0|34=187|49=MMABAXUK|52=20181210-14:14:17.757|56=MA|10=045|8=FIX.4.4|9=55|35=0|34=188|49=MMABAXUK|52=20181210-14:15:47.765|56=MA|10=049|8=FIX.4.4|9=55|35=0|34=189|49=MMABAXUK|52=20181210-14:17:18.756|56=MA|10=050|8=FIX.4.4|9=55|35=0|34=190|49=MMABAXUK|52=20181210-14:18:49.752|56=MA|10=043|8=FIX.4.4|9=55|35=0|34=191|49=MMABAXUK|52=20181210-14:20:19.763|56=MA|10=036|8=FIX.4.4|9=55|35=0|34=192|49=MMABAXUK|52=20181210-14:21:49.763|56=MA|10=041|8=FIX.4.4|9=55|35=0|34=193|49=MMABAXUK|52=20181210-14:23:19.764|56=MA|10=042|8=FIX.4.4|9=55|35=0|34=194|49=MMABAXUK|52=20181210-14:24:50.758|56=MA|10=042|8=FIX.4.4|9=55|35=0|34=195|49=MMABAXUK|52=20181210-14:26:21.752|56=MA|10=037|8=FIX.4.4|9=55|35=0|34=196|49=MMABAXUK|52=20181210-14:27:51.753|56=MA|10=043|8=FIX.4.4|9=55|35=0|34=197|49=MMABAXUK|52=20181210-14:29:21.754|56=MA|10=044|8=FIX.4.4|9=55|35=0|34=198|49=MMABAXUK|52=20181210-14:30:51.758|56=MA|10=044|8=FIX.4.4|9=55|35=0|34=199|49=MMABAXUK|52=20181210-14:32:22.751|56=MA|10=038|8=FIX.4.4|9=55|35=0|34=200|49=MMABAXUK|52=20181210-14:33:53.746|56=MA|10=030|8=FIX.4.4|9=55|35=0|34=201|49=MMABAXUK|52=20181210-14:35:24.746|56=MA|10=031|8=FIX.4.4|9=55|35=0|34=202|49=MMABAXUK|52=20181210-14:36:55.744|56=MA|10=035|8=FIX.4.4|9=55|35=0|34=203|49=MMABAXUK|52=20181210-14:38:25.744|56=MA|10=035|8=FIX.4.4|9=55|35=0|34=204|49=MMABAXUK|52=20181210-14:39:55.744|56=MA|10=040|8=FIX.4.4|9=55|35=0|34=205|49=MMABAXUK|52=20181210-14:41:25.748|56=MA|10=035|8=FIX.4.4|9=55|35=0|34=206|49=MMABAXUK|52=20181210-14:42:55.749|56=MA|10=041|8=FIX.4.4|9=55|35=0|34=207|49=MMABAXUK|52=20181210-14:44:25.756|56=MA|10=039|8=FIX.4.4|9=55|35=0|34=208|49=MMABAXUK|52=20181210-14:45:56.747|56=MA|10=045|8=FIX.4.4|9=55|35=0|34=209|49=MMABAXUK|52=20181210-14:47:27.749|56=MA|10=048|8=FIX.4.4|9=55|35=0|34=210|49=MMABAXUK|52=20181210-14:48:58.742|56=MA|10=038|8=FIX.4.4|9=55|35=0|34=211|49=MMABAXUK|52=20181210-14:50:28.744|56=MA|10=031|8=FIX.4.4|9=55|35=0|34=212|49=MMABAXUK|52=20181210-14:51:58.749|56=MA|10=041|8=FIX.4.4|9=55|35=0|34=213|49=MMABAXUK|52=20181210-14:53:28.749|56=MA|10=041|8=FIX.4.4|9=55|35=0|34=214|49=MMABAXUK|52=20181210-14:54:59.742|56=MA|10=040|8=FIX.4.4|9=55|35=0|34=215|49=MMABAXUK|52=20181210-14:56:29.744|56=MA|10=042|8=FIX.4.4|9=55|35=0|34=216|49=MMABAXUK|52=20181210-14:57:59.751|56=MA|10=045|8=FIX.4.4|9=55|35=0|34=217|49=MMABAXUK|52=20181210-14:59:30.749|56=MA|10=044|8=FIX.4.4|9=55|35=0|34=218|49=MMABAXUK|52=20181210-15:01:01.744|56=MA|10=026|8=FIX.4.4|9=55|35=0|34=219|49=MMABAXUK|52=20181210-15:02:32.746|56=MA|10=034|8=FIX.4.4|9=55|35=0|34=220|49=MMABAXUK|52=20181210-15:04:03.740|56=MA|10=020|8=FIX.4.4|9=55|35=0|34=221|49=MMABAXUK|52=20181210-15:05:34.736|56=MA|10=031|8=FIX.4.4|9=55|35=0|34=222|49=MMABAXUK|52=20181210-15:07:05.736|56=MA|10=032|8=FIX.4.4|9=55|35=0|34=223|49=MMABAXUK|52=20181210-15:08:36.736|56=MA|10=038|8=FIX.4.4|9=55|35=0|34=224|49=MMABAXUK|52=20181210-15:10:07.734|56=MA|10=028|8=FIX.4.4|9=55|35=0|34=225|49=MMABAXUK|52=20181210-15:11:38.734|56=MA|10=034|8=FIX.4.4|9=55|35=0|34=226|49=MMABAXUK|52=20181210-15:13:09.733|56=MA|10=034|8=FIX.4.4|9=55|35=0|34=227|49=MMABAXUK|52=20181210-15:14:39.733|56=MA|10=039|8=FIX.4.4|9=55|35=0|34=228|49=MMABAXUK|52=20181210-15:16:10.732|56=MA|10=030|8=FIX.4.4|9=55|35=0|34=229|49=MMABAXUK|52=20181210-15:17:40.732|56=MA|10=035|8=FIX.4.4|9=55|35=0|34=230|49=MMABAXUK|52=20181210-15:19:10.732|56=MA|10=026|8=FIX.4.4|9=55|35=0|34=231|49=MMABAXUK|52=20181210-15:20:40.733|56=MA|10=023|8=FIX.4.4|9=55|35=0|34=232|49=MMABAXUK|52=20181210-15:22:11.732|56=MA|10=023|8=FIX.4.4|9=55|35=0|34=233|49=MMABAXUK|52=20181210-15:23:42.732|56=MA|10=029|8=FIX.4.4|9=55|35=0|34=234|49=MMABAXUK|52=20181210-15:25:13.731|56=MA|10=029|8=FIX.4.4|9=55|35=0|34=235|49=MMABAXUK|52=20181210-15:26:44.730|56=MA|10=034|8=FIX.4.4|9=55|35=0|34=236|49=MMABAXUK|52=20181210-15:28:15.729|56=MA|10=043|8=FIX.4.4|9=55|35=0|34=237|49=MMABAXUK|52=20181210-15:29:45.729|56=MA|10=048|8=FIX.4.4|9=55|35=0|34=238|49=MMABAXUK|52=20181210-15:31:16.728|56=MA|10=039|8=FIX.4.4|9=55|35=0|34=239|49=MMABAXUK|52=20181210-15:32:46.738|56=MA|10=045|8=FIX.4.4|9=55|35=0|34=240|49=MMABAXUK|52=20181210-15:34:16.741|56=MA|10=030|8=FIX.4.4|9=55|35=0|34=241|49=MMABAXUK|52=20181210-15:35:47.728|56=MA|10=041|8=FIX.4.4|9=55|35=0|34=242|49=MMABAXUK|52=20181210-15:37:17.737|56=MA|10=041|8=FIX.4.4|9=55|35=0|34=243|49=MMABAXUK|52=20181210-15:38:47.739|56=MA|10=048|8=FIX.4.4|9=55|35=0|34=244|49=MMABAXUK|52=20181210-15:40:18.735|56=MA|10=036|8=FIX.4.4|9=55|35=0|34=245|49=MMABAXUK|52=20181210-15:41:49.729|56=MA|10=045|8=FIX.4.4|9=55|35=0|34=246|49=MMABAXUK|52=20181210-15:43:19.736|56=MA|10=043|8=FIX.4.4|9=55|35=0|34=247|49=MMABAXUK|52=20181210-15:44:50.723|56=MA|10=036|8=FIX.4.4|9=55|35=0|34=248|49=MMABAXUK|52=20181210-15:46:20.728|56=MA|10=041|8=FIX.4.4|9=55|35=0|34=249|49=MMABAXUK|52=20181210-15:47:50.737|56=MA|10=046|8=FIX.4.4|9=55|35=0|34=250|49=MMABAXUK|52=20181210-15:49:21.734|56=MA|10=035|8=FIX.4.4|9=55|35=0|34=251|49=MMABAXUK|52=20181210-15:50:52.723|56=MA|10=030|8=FIX.4.4|9=55|35=0|34=252|49=MMABAXUK|52=20181210-15:52:23.722|56=MA|10=030|8=FIX.4.4|9=55|35=0|34=253|49=MMABAXUK|52=20181210-15:53:53.722|56=MA|10=035|8=FIX.4.4|9=55|35=0|34=254|49=MMABAXUK|52=20181210-15:55:24.721|56=MA|10=035|8=FIX.4.4|9=55|35=0|34=255|49=MMABAXUK|52=20181210-15:56:54.734|56=MA|10=044|8=FIX.4.4|9=55|35=0|34=256|49=MMABAXUK|52=20181210-15:58:25.721|56=MA|10=041|8=FIX.4.4|9=55|35=0|34=257|49=MMABAXUK|52=20181210-15:59:55.723|56=MA|10=048|8=FIX.4.4|9=55|35=0|34=258|49=MMABAXUK|52=20181210-16:01:26.730|56=MA|10=033|8=FIX.4.4|9=55|35=0|34=259|49=MMABAXUK|52=20181210-16:02:57.721|56=MA|10=039|8=FIX.4.4|9=55|35=0|34=260|