8=FIX.4.4|9=91|35=A|34=1|49=T2Kauaiblk2|52=20201201-09:53:42.945|56=MA|98=0|108=90|95=8|96=3.0.0rc5|141=Y|10=040|8=FIX.4.4|9=640|35=E|34=2|49=T2Kauaiblk2|52=20201201-09:53:44.951|56=MA|66=MMAD-FIX44-ListID-011220-1258|394=2|68=5|73=5|11=FIX44-List-ClOrdID-1259|22=4|38=100000|48=US06051GEN51|54=1|55=[N/A/]|67=1|423=1|453=1|448=T2Kauaiblk2|447=C|452=11|11=FIX44-List-ClOrdID-1260|22=4|38=100000|48=US40434AAB52|54=1|55=[N/A]|67=2|11=FIX44-List-ClOrdID-1261|22=4|38=130000|48=US06738JYZ10|54=1|55=[N/A/]|67=1|453=1|448=T2Kauaiblk2|447=C|452=11|11=FIX44-List-ClOrdID-1262|22=4|38=250000|48=US95709TAH32|54=1|55=[N/A/]|67=1|453=1|448=T2Kauaiblk2|447=C|452=11|11=FIX44-List-ClOrdID-1263|22=4|38=350000|48=US29379VAW37|54=1|55=[N/A/]|67=1|453=1|448=T2Kauaiblk2|447=C|452=11|10=036|8=FIX.4.4|9=56|35=0|34=3|49=T2Kauaiblk2|52=20201201-09:55:15.553|56=MA|10=065|8=FIX.4.4|9=56|35=0|34=4|49=T2Kauaiblk2|52=20201201-09:56:45.945|56=MA|10=075|8=FIX.4.4|9=56|35=0|34=5|49=T2Kauaiblk2|52=20201201-09:58:15.945|56=MA|10=075|8=FIX.4.4|9=56|35=0|34=6|49=T2Kauaiblk2|52=20201201-09:59:45.945|56=MA|10=080|8=FIX.4.4|9=56|35=0|34=7|49=T2Kauaiblk2|52=20201201-10:01:15.947|56=MA|10=059|8=FIX.4.4|9=56|35=0|34=8|49=T2Kauaiblk2|52=20201201-10:02:46.946|56=MA|10=064|8=FIX.4.4|9=56|35=0|34=9|49=T2Kauaiblk2|52=20201201-10:04:16.947|56=MA|10=065|8=FIX.4.4|9=57|35=0|34=10|49=T2Kauaiblk2|52=20201201-10:05:47.945|56=MA|10=109|8=FIX.4.4|9=57|35=0|34=11|49=T2Kauaiblk2|52=20201201-10:07:17.946|56=MA|10=110|8=FIX.4.4|9=57|35=0|34=12|49=T2Kauaiblk2|52=20201201-10:08:47.947|56=MA|10=116|8=FIX.4.4|9=57|35=0|34=13|49=T2Kauaiblk2|52=20201201-10:10:17.950|56=MA|10=101|8=FIX.4.4|9=57|35=0|34=14|49=T2Kauaiblk2|52=20201201-10:11:47.953|56=MA|10=109|8=FIX.4.4|9=57|35=0|34=15|49=T2Kauaiblk2|52=20201201-10:13:17.955|56=MA|10=111|8=FIX.4.4|9=57|35=0|34=16|49=T2Kauaiblk2|52=20201201-10:14:47.956|56=MA|10=117|8=FIX.4.4|9=57|35=0|34=17|49=T2Kauaiblk2|52=20201201-10:16:17.959|56=MA|10=120|8=FIX.4.4|9=57|35=0|34=18|49=T2Kauaiblk2|52=20201201-10:17:47.960|56=MA|10=117|8=FIX.4.4|9=57|35=0|34=19|49=T2Kauaiblk2|52=20201201-10:19:17.962|56=MA|10=119|8=FIX.4.4|9=57|35=0|34=20|49=T2Kauaiblk2|52=20201201-10:20:47.964|56=MA|10=108|8=FIX.4.4|9=57|35=0|34=21|49=T2Kauaiblk2|52=20201201-10:22:17.966|56=MA|10=110|8=FIX.4.4|9=57|35=0|34=22|49=T2Kauaiblk2|52=20201201-10:23:47.967|56=MA|10=116|8=FIX.4.4|9=57|35=0|34=23|49=T2Kauaiblk2|52=20201201-10:25:17.970|56=MA|10=110|8=FIX.4.4|9=57|35=0|34=24|49=T2Kauaiblk2|52=20201201-10:26:47.971|56=MA|10=116|8=FIX.4.4|9=57|35=0|34=25|49=T2Kauaiblk2|52=20201201-10:28:17.972|56=MA|10=117|8=FIX.4.4|9=57|35=0|34=26|49=T2Kauaiblk2|52=20201201-10:29:47.973|56=MA|10=123|8=FIX.4.4|9=57|35=0|34=27|49=T2Kauaiblk2|52=20201201-10:31:17.974|56=MA|10=115|8=FIX.4.4|9=57|35=0|34=28|49=T2Kauaiblk2|52=20201201-10:32:47.976|56=MA|10=122|8=FIX.4.4|9=57|35=0|34=29|49=T2Kauaiblk2|52=20201201-10:34:17.977|56=MA|10=123|8=FIX.4.4|9=57|35=0|34=30|49=T2Kauaiblk2|52=20201201-10:35:47.979|56=MA|10=121|8=FIX.4.4|9=57|35=0|34=31|49=T2Kauaiblk2|52=20201201-10:37:17.980|56=MA|10=113|8=FIX.4.4|9=57|35=0|34=32|49=T2Kauaiblk2|52=20201201-10:38:47.980|56=MA|10=118|8=FIX.4.4|9=57|35=0|34=33|49=T2Kauaiblk2|52=20201201-10:40:17.981|56=MA|10=110|8=FIX.4.4|9=57|35=0|34=34|49=T2Kauaiblk2|52=20201201-10:41:47.982|56=MA|10=116|8=FIX.4.4|9=57|35=0|34=35|49=T2Kauaiblk2|52=20201201-10:43:17.983|56=MA|10=117|8=FIX.4.4|9=57|35=0|34=36|49=T2Kauaiblk2|52=20201201-10:44:47.984|56=MA|10=123|8=FIX.4.4|9=57|35=0|34=37|49=T2Kauaiblk2|52=20201201-10:46:17.986|56=MA|10=125|8=FIX.4.4|9=57|35=0|34=38|49=T2Kauaiblk2|52=20201201-10:47:47.987|56=MA|10=131|8=FIX.4.4|9=57|35=0|34=39|49=T2Kauaiblk2|52=20201201-10:49:18.987|56=MA|10=132|8=FIX.4.4|9=57|35=0|34=40|49=T2Kauaiblk2|52=20201201-10:50:48.988|56=MA|10=120|8=FIX.4.4|9=57|35=0|34=41|49=T2Kauaiblk2|52=20201201-10:52:18.989|56=MA|10=121|8=FIX.4.4|9=57|35=0|34=42|49=T2Kauaiblk2|52=20201201-10:53:48.989|56=MA|10=126|8=FIX.4.4|9=57|35=0|34=43|49=T2Kauaiblk2|52=20201201-10:55:18.991|56=MA|10=119|8=FIX.4.4|9=57|35=0|34=44|49=T2Kauaiblk2|52=20201201-10:56:48.992|56=MA|10=125|8=FIX.4.4|9=75|35=5|34=45|49=T2Kauaiblk2|52=20201201-10:57:40.992|56=MA|58=user requested|10=216|8=FIX.4.4|9=91|35=A|34=1|49=T2Kauaiblk2|52=20210212-16:38:09.316|56=MA|98=0|108=90|95=8|96=3.0.0rc5|141=Y|10=038|8=FIX.4.4|9=699|35=E|34=2|49=T2Kauaiblk2|52=20210212-16:38:12.848|56=MA|66=ListID-120221-1378|394=2|68=5|73=5|11=ClOrdID-1379|22=4|38=100000|44=100|48=US06051GEN51|54=1|55=[N/A/]|63=3|67=1|423=1|29726=100.25|453=1|448=T2Kauaiblk2|447=C|452=11|11=ClOrdID-1380|22=4|38=100000|44=101|48=US40434AAB52|54=1|55=[N/A]|63=3|67=2|29726=101.25|11=ClOrdID-1381|22=4|38=130000|44=102|48=US95709TAH32|54=1|55=[N/A/]|63=3|67=1|29726=102.25|453=1|448=T2Kauaiblk2|447=C|452=11|11=ClOrdID-1382|22=4|38=250000|44=103|48=US427866AZ15|54=1|55=[N/A/]|63=3|67=1|29726=103.25|453=1|448=T2Kauaiblk2|447=C|452=11|11=ClOrdID-1383|22=4|38=350000|44=104|48=US29379VAW37|54=1|55=[N/A/]|63=3|67=1|29726=104.25|453=1|448=T2Kauaiblk2|447=C|452=11|10=147|8=FIX.4.4|9=78|35=5|34=3|49=T2Kauaiblk2|52=20210212-16:38:22.303|56=MA|58=Session Tab Closed|10=130|8=FIX.4.4|9=91|35=A|34=1|49=T2Kauaiblk2|52=20210212-16:43:17.301|56=MA|98=0|108=90|95=8|96=3.0.0rc5|141=Y|10=027|8=FIX.4.4|9=699|35=E|34=2|49=T2Kauaiblk2|52=20210212-16:43:19.975|56=MA|66=ListID-120221-1441|394=2|68=5|73=5|11=ClOrdID-1442|22=4|38=100000|44=100|48=US06051GEN51|54=1|55=[N/A/]|63=3|67=1|423=1|29726=100.25|453=1|448=T2Kauaiblk2|447=C|452=11|11=ClOrdID-1443|22=4|38=100000|44=101|48=US40434AAB52|54=1|55=[N/A]|63=3|67=2|29726=101.25|11=ClOrdID-1444|22=4|38=130000|44=102|48=US95709TAH32|54=1|55=[N/A/]|63=3|67=1|29726=102.25|453=1|448=T2Kauaiblk2|447=C|452=11|11=ClOrdID-1445|22=4|38=250000|44=103|48=US427866AZ15|54=1|55=[N/A/]|63=3|67=1|29726=103.25|453=1|448=T2Kauaiblk2|447=C|452=11|11=ClOrdID-1446|22=4|38=350000|44=104|48=US29379VAW37|54=1|55=[N/A/]|63=3|67=1|29726=104.25|453=1|448=T2Kauaiblk2|447=C|452=11|10=133|8=FIX.4.4|9=56|35=0|34=3|49=T2Kauaiblk2|52=20210212-16:44:50.302|56=MA|10=054|8=FIX.4.4|9=56|35=0|34=4|49=T2Kauaiblk2|52=20210212-16:46:20.302|56=MA|10=054|8=FIX.4.4|9=78|35=5|34=5|49=T2Kauaiblk2|52=20210212-16:47:30.301|56=MA|58=Session Tab Closed|10=129|8=FIX.4.4|9=91|35=A|34=1|49=T2Kauaiblk2|52=20210304-11:46:10.860|56=MA|98=0|108=90|95=8|96=3.0.0rc5|141=Y|10=030|8=FIX.4.4|9=707|35=E|34=2|49=T2Kauaiblk2|52=20210304-11:46:26.023|56=MA|66=ListID-040321-rodrigo-1708|394=2|68=5|73=5|11=ClOrdID-1709|22=4|38=100000|44=100|48=US06051GEN51|54=1|55=[N/A/]|63=3|67=1|423=1|29726=100.25|453=1|448=T2Kauaiblk2|447=C|452=11|11=ClOrdID-1710|22=4|38=100000|44=101|48=US40434AAB52|54=1|55=[N/A]|63=3|67=2|29726=101.25|11=ClOrdID-1711|22=4|38=130000|44=102|48=US95709TAH32|54=1|55=[N/A/]|63=3|67=1|29726=102.25|453=1|448=T2Kauaiblk2|447=C|452=11|11=ClOrdID-1712|22=4|38=250000|44=103|48=US427866AZ15|54=1|55=[N/A/]|63=3|67=1|29726=103.25|453=1|448=T2Kauaiblk2|447=C|452=11|11=ClOrdID-1713|22=4|38=350000|44=104|48=US29379VAW37|54=1|55=[N/A/]|63=3|67=1|29726=104.25|453=1|448=T2Kauaiblk2|447=C|452=11|10=142|8=FIX.4.4|9=707|35=E|34=3|49=T2Kauaiblk2|52=20210304-11:46:26.371|56=MA|66=ListID-040321-rodrigo-1714|394=2|68=5|73=5|11=ClOrdID-1715|22=4|38=100000|44=100|48=US06051GEN51|54=1|55=[N/A/]|63=3|67=1|423=1|29726=100.25|453=1|448=T2Kauaiblk2|447=C|452=11|11=ClOrdID-1716|22=4|38=100000|44=101|48=US40434AAB52|54=1|55=[N/A]|63=3|67=2|29726=101.25|11=ClOrdID-1717|22=4|38=130000|44=102|48=US95709TAH32|54=1|55=[N/A/]|63=3|67=1|29726=102.25|453=1|448=T2Kauaiblk2|447=C|452=11|11=ClOrdID-1718|22=4|38=250000|44=103|48=US427866AZ15|54=1|55=[N/A/]|63=3|67=1|29726=103.25|453=1|448=T2Kauaiblk2|447=C|452=11|11=ClOrdID-1719|22=4|38=350000|44=104|48=US29379VAW37|54=1|55=[N/A/]|63=3|67=1|29726=104.25|453=1|448=T2Kauaiblk2|447=C|452=11|10=167|8=FIX.4.4|9=707|35=E|34=4|49=T2Kauaiblk2|52=20210304-11:46:26.818|56=MA|66=ListID-040321-rodrigo-1720|394=2|68=5|73=5|11=ClOrdID-1721|22=4|38=100000|44=100|48=US06051GEN51|54=1|55=[N/A/]|63=3|67=1|423=1|29726=100.25|453=1|448=T2Kauaiblk2|447=C|452=11|11=ClOrdID-1722|22=4|38=100000|44=101|48=US40434AAB52|54=1|55=[N/A]|63=3|67=2|29726=101.25|11=ClOrdID-1723|22=4|38=130000|44=102|48=US95709TAH32|54=1|55=[N/A/]|63=3|67=1|29726=102.25|453=1|448=T2Kauaiblk2|447=C|452=11|11=ClOrdID-1724|22=4|38=250000|44=103|48=US427866AZ15|54=1|55=[N/A/]|63=3|67=1|29726=103.25|453=1|448=T2Kauaiblk2|447=C|452=11|11=ClOrdID-1725|22=4|38=350000|44=104|48=US29379VAW37|54=1|55=[N/A/]|63=3|67=1|29726=104.25|453=1|448=T2Kauaiblk2|447=C|452=11|10=156|8=FIX.4.4|9=56|35=0|34=5|49=T2Kauaiblk2|52=20210304-11:47:56.860|56=MA|10=071|8=FIX.4.4|9=56|35=0|34=6|49=T2Kauaiblk2|52=20210304-11:49:26.860|56=MA|10=071|8=FIX.4.4|9=56|35=0|34=7|49=T2Kauaiblk2|52=20210304-11:50:56.860|56=MA|10=067|8=FIX.4.4|9=56|35=0|34=8|49=T2Kauaiblk2|52=20210304-11:52:26.860|56=MA|10=067|8=FIX.4.4|9=56|35=0|34=9|49=T2Kauaiblk2|52=20210304-11:53:56.861|56=MA|10=073|8=FIX.4.4|9=57|35=0|34=10|49=T2Kauaiblk2|52=20210304-11:55:27.858|56=MA|10=120|8=FIX.4.4|9=57|35=0|34=11|49=T2Kauaiblk2|52=20210304-11:56:57.858|56=MA|10=125|8=FIX.4.4|9=57|35=0|34=12|49=T2Kauaiblk2|52=20210304-11:58:27.858|56=MA|10=125|8=FIX.4.4|9=57|35=0|34=13|49=T2Kauaiblk2|52=20210304-11:59:57.859|56=MA|10=131|8=FIX.4.4|9=57|35=0|34=14|49=T2Kauaiblk2|52=20210304-12:01:28.859|56=MA|10=118|8=FIX.4.4|9=57|35=0|34=15|49=T2Kauaiblk2|52=20210304-12:02:58.859|56=MA|10=123|8=FIX.4.4|9=57|35=0|34=16|49=T2Kauaiblk2|52=20210304-12:04:28.859|56=MA|10=123|8=FIX.4.4|9=57|35=0|34=17|49=T2Kauaiblk2|52=20210304-12:05:59.857|56=MA|10=127|8=FIX.4.4|9=57|35=0|34=18|49=T2Kauaiblk2|52=20210304-12:07:29.857|56=MA|10=127|8=FIX.4.4|9=57|35=0|34=19|49=T2Kauaiblk2|52=20210304-12:08:59.857|56=MA|10=132|8=FIX.4.4|9=57|35=0|34=20|49=T2Kauaiblk2|52=20210304-12:10:29.857|56=MA|10=114|8=FIX.4.4|9=57|35=0|34=21|49=T2Kauaiblk2|52=20210304-12:11:59.859|56=MA|10=121|8=FIX.4.4|9=57|35=0|34=22|49=T2Kauaiblk2|52=20210304-12:13:30.857|56=MA|10=111|8=FIX.4.4|9=57|35=0|34=23|49=T2Kauaiblk2|52=20210304-12:15:00.859|56=MA|10=113|8=FIX.4.4|9=57|35=0|34=24|49=T2Kauaiblk2|52=20210304-12:16:30.859|56=MA|10=118|8=FIX.4.4|9=57|35=0|34=25|49=T2Kauaiblk2|52=20210304-12:18:00.859|56=MA|10=118|8=FIX.4.4|9=57|35=0|34=26|49=T2Kauaiblk2|52=20210304-12:19:30.859|56=MA|10=123|8=FIX.4.4|9=57|35=0|34=27|49=T2Kauaiblk2|52=20210304-12:21:01.715|56=MA|10=106|8=FIX.4.4|9=57|35=0|34=28|49=T2Kauaiblk2|52=20210304-12:22:31.859|56=MA|10=120|8=FIX.4.4|9=57|35=0|34=29|49=T2Kauaiblk2|52=20210304-12:24:01.867|56=MA|10=119|8=FIX.4.4|9=57|35=0|34=30|49=T2Kauaiblk2|52=20210304-12:25:32.858|56=MA|10=116|8=FIX.4.4|9=57|35=0|34=31|49=T2Kauaiblk2|52=20210304-12:27:02.859|56=MA|10=117|8=FIX.4.4|9=57|35=0|34=32|49=T2Kauaiblk2|52=20210304-12:28:33.859|56=MA|10=123|8=FIX.4.4|9=57|35=0|34=33|49=T2Kauaiblk2|52=20210304-12:30:03.860|56=MA|10=106|8=FIX.4.4|9=57|35=0|34=34|49=T2Kauaiblk2|52=20210304-12:31:34.859|56=MA|10=120|8=FIX.4.4|9=57|35=5|34=35|49=T2Kauaiblk2|52=20210304-12:32:48.859|56=MA|10=132|8=FIX.4.4|9=91|35=A|34=1|49=T2Kauaiblk2|52=20210304-12:32:50.860|56=MA|98=0|108=90|95=8|96=3.0.0rc5|141=Y|10=030|8=FIX.4.4|9=707|35=E|34=2|49=T2Kauaiblk2|52=20210304-12:32:55.336|56=MA|66=ListID-040321-rodrigo-1726|394=2|68=5|73=5|11=ClOrdID-1727|22=4|38=100000|44=100|48=US06051GEN51|54=1|55=[N/A/]|63=3|67=1|423=1|29726=100.25|453=1|448=T2Kauaiblk2|447=C|452=11|11=ClOrdID-1728|22=4|38=100000|44=101|48=US40434AAB52|54=1|55=[N/A]|63=3|67=2|29726=101.25|11=ClOrdID-1729|22=4|38=130000|44=102|48=US95709TAH32|54=1|55=[N/A/]|63=3|67=1|29726=102.25|453=1|448=T2Kauaiblk2|447=C|452=11|11=ClOrdID-1730|22=4|38=250000|44=103|48=US427866AZ15|54=1|55=[N/A/]|63=3|67=1|29726=103.25|453=1|448=T2Kauaiblk2|447=C|452=11|11=ClOrdID-1731|22=4|38=350000|44=104|48=US29379VAW37|54=1|55=[N/A/]|63=3|67=1|29726=104.25|453=1|448=T2Kauaiblk2|447=C|452=11|10=165|8=FIX.4.4|9=707|35=E|34=3|49=T2Kauaiblk2|52=20210304-12:32:56.078|56=MA|66=ListID-040321-rodrigo-1732|394=2|68=5|73=5|11=ClOrdID-1733|22=4|38=100000|44=100|48=US06051GEN51|54=1|55=[N/A/]|63=3|67=1|423=1|29726=100.25|453=1|448=T2Kauaiblk2|447=C|452=11|11=ClOrdID-1734|22=4|38=100000|44=101|48=US40434AAB52|54=1|55=[N/A]|63=3|67=2|29726=101.25|11=ClOrdID-1735|22=4|38=130000|44=102|48=US95709TAH32|54=1|55=[N/A/]|63=3|67=1|29726=102.25|453=1|448=T2Kauaiblk2|447=C|452=11|11=ClOrdID-1736|22=4|38=250000|44=103|48=US427866AZ15|54=1|55=[N/A/]|63=3|67=1|29726=103.25|453=1|448=T2Kauaiblk2|447=C|452=11|11=ClOrdID-1737|22=4|38=350000|44=104|48=US29379VAW37|54=1|55=[N/A/]|63=3|67=1|29726=104.25|453=1|448=T2Kauaiblk2|447=C|452=11|10=170|8=FIX.4.4|9=707|35=E|34=4|49=T2Kauaiblk2|52=20210304-12:32:56.855|56=MA|66=ListID-040321-rodrigo-1738|394=2|68=5|73=5|11=ClOrdID-1739|22=4|38=100000|44=100|48=US06051GEN51|54=1|55=[N/A/]|63=3|67=1|423=1|29726=100.25|453=1|448=T2Kauaiblk2|447=C|452=11|11=ClOrdID-1740|22=4|38=100000|44=101|48=US40434AAB52|54=1|55=[N/A]|63=3|67=2|29726=101.25|11=ClOrdID-1741|22=4|38=130000|44=102|48=US95709TAH32|54=1|55=[N/A/]|63=3|67=1|29726=102.25|453=1|448=T2Kauaiblk2|447=C|452=11|11=ClOrdID-1742|22=4|38=250000|44=103|48=US427866AZ15|54=1|55=[N/A/]|63=3|67=1|29726=103.25|453=1|448=T2Kauaiblk2|447=C|452=11|11=ClOrdID-1743|22=4|38=350000|44=104|48=US29379VAW37|54=1|55=[N/A/]|63=3|67=1|29726=104.25|453=1|448=T2Kauaiblk2|447=C|452=11|10=174|8=FIX.4.4|9=707|35=E|34=5|49=T2Kauaiblk2|52=20210304-12:32:57.062|56=MA|66=ListID-040321-rodrigo-1744|394=2|68=5|73=5|11=ClOrdID-1745|22=4|38=100000|44=100|48=US06051GEN51|54=1|55=[N/A/]|63=3|67=1|423=1|29726=100.25|453=1|448=T2Kauaiblk2|447=C|452=11|11=ClOrdID-1746|22=4|38=100000|44=101|48=US40434AAB52|54=1|55=[N/A]|63=3|67=2|29726=101.25|11=ClOrdID-1747|22=4|38=130000|44=102|48=US95709TAH32|54=1|55=[N/A/]|63=3|67=1|29726=102.25|453=1|448=T2Kauaiblk2|447=C|452=11|11=ClOrdID-1748|22=4|38=250000|44=103|48=US427866AZ15|54=1|55=[N/A/]|63=3|67=1|29726=103.25|453=1|448=T2Kauaiblk2|447=C|452=11|11=ClOrdID-1749|22=4|38=350000|44=104|48=US29379VAW37|54=1|55=[N/A/]|63=3|67=1|29726=104.25|453=1|448=T2Kauaiblk2|447=C|452=11|10=184|8=FIX.4.4|9=56|35=0|34=6|49=T2Kauaiblk2|52=20210304-12:34:27.853|56=MA|10=069|8=FIX.4.4|9=56|35=0|34=7|49=T2Kauaiblk2|52=20210304-12:35:57.856|56=MA|10=077|8=FIX.4.4|9=56|35=0|34=8|49=T2Kauaiblk2|52=20210304-12:37:27.861|56=MA|10=073|8=FIX.4.4|9=56|35=0|34=9|49=T2Kauaiblk2|52=20210304-12:38:57.861|56=MA|10=078|8=FIX.4.4|9=57|35=0|34=10|49=T2Kauaiblk2|52=20210304-12:40:28.860|56=MA|10=109|8=FIX.4.4|9=57|35=0|34=11|49=T2Kauaiblk2|52=20210304-12:41:58.860|56=MA|10=114|8=FIX.4.4|9=57|35=0|34=12|49=T2Kauaiblk2|52=20210304-12:43:28.861|56=MA|10=115|8=FIX.4.4|9=57|35=0|34=13|49=T2Kauaiblk2|52=20210304-12:44:58.861|56=MA|10=120|8=FIX.4.4|9=57|35=0|34=14|49=T2Kauaiblk2|52=20210304-12:46:28.862|56=MA|10=121|8=FIX.4.4|9=57|35=0|34=15|49=T2Kauaiblk2|52=20210304-12:47:59.861|56=MA|10=126|8=FIX.4.4|9=57|35=0|34=16|49=T2Kauaiblk2|52=20210304-12:49:29.861|56=MA|10=126|8=FIX.4.4|9=57|35=0|34=17|49=T2Kauaiblk2|52=20210304-12:50:59.862|56=MA|10=123|8=FIX.4.4|9=57|35=0|34=18|49=T2Kauaiblk2|52=20210304-12:52:29.862|56=MA|10=123|8=FIX.4.4|9=57|35=0|34=19|49=T2Kauaiblk2|52=20210304-12:53:59.862|56=MA|10=128|8=FIX.4.4|9=57|35=0|34=20|49=T2Kauaiblk2|52=20210304-12:55:29.862|56=MA|10=119|8=FIX.4.4|9=57|35=0|34=21|49=T2Kauaiblk2|52=20210304-12:56:59.862|56=MA|10=124|8=FIX.4.4|9=57|35=0|34=22|49=T2Kauaiblk2|52=20210304-12:58:29.863|56=MA|10=125|8=FIX.4.4|9=57|35=0|34=23|49=T2Kauaiblk2|52=20210304-12:59:59.863|56=MA|10=130|8=FIX.4.4|9=57|35=0|34=24|49=T2Kauaiblk2|52=20210304-13:01:29.863|56=MA|10=116|8=FIX.4.4|9=57|35=0|34=25|49=T2Kauaiblk2|52=20210304-13:02:59.865|56=MA|10=123|8=FIX.4.4|9=57|35=0|34=26|49=T2Kauaiblk2|52=20210304-13:04:29.865|56=MA|10=123|8=FIX.4.4|9=57|35=0|34=27|49=T2Kauaiblk2|52=20210304-13:05:59.866|56=MA|10=129|8=FIX.4.4|9=57|35=0|34=28|49=T2Kauaiblk2|52=20210304-13:07:29.868|56=MA|10=131|8=FIX.4.4|9=708|35=E|34=29|49=T2Kauaiblk2|52=20210304-13:08:34.521|56=MA|66=ListID-040321-rodrigo-1750|394=2|68=5|73=5|11=ClOrdID-1751|22=4|38=100000|44=100|48=US06051GEN51|54=1|55=[N/A/]|63=3|67=1|423=1|29726=100.25|453=1|448=T2Kauaiblk2|447=C|452=11|11=ClOrdID-1752|22=4|38=100000|44=101|48=US40434AAB52|54=1|55=[N/A]|63=3|67=2|29726=101.25|11=ClOrdID-1753|22=4|38=130000|44=102|48=US95709TAH32|54=1|55=[N/A/]|63=3|67=1|29726=102.25|453=1|448=T2Kauaiblk2|447=C|452=11|11=ClOrdID-1754|22=4|38=250000|44=103|48=US427866AZ15|54=1|55=[N/A/]|63=3|67=1|29726=103.25|453=1|448=T2Kauaiblk2|447=C|452=11|11=ClOrdID-1755|22=4|38=350000|44=104|48=US29379VAW37|54=1|55=[N/A/]|63=3|67=1|29726=104.25|453=1|448=T2Kauaiblk2|447=C|452=11|10=220|8=FIX.4.4|9=708|35=E|34=30|49=T2Kauaiblk2|52=20210304-13:08:35.082|56=MA|66=ListID-040321-rodrigo-1756|394=2|68=5|73=5|11=ClOrdID-1757|22=4|38=100000|44=100|48=US06051GEN51|54=1|55=[N/A/]|63=3|67=1|423=1|29726=100.25|453=1|448=T2Kauaiblk2|447=C|452=11|11=ClOrdID-1758|22=4|38=100000|44=101|48=US40434AAB52|54=1|55=[N/A]|63=3|67=2|29726=101.25|11=ClOrdID-1759|22=4|38=130000|44=102|48=US95709TAH32|54=1|55=[N/A/]|63=3|67=1|29726=102.25|453=1|448=T2Kauaiblk2|447=C|452=11|11=ClOrdID-1760|22=4|38=250000|44=103|48=US427866AZ15|54=1|55=[N/A/]|63=3|67=1|29726=103.25|453=1|448=T2Kauaiblk2|447=C|452=11|11=ClOrdID-1761|22=4|38=350000|44=104|48=US29379VAW37|54=1|55=[N/A/]|63=3|67=1|29726=104.25|453=1|448=T2Kauaiblk2|447=C|452=11|10=233|8=FIX.4.4|9=708|35=E|34=31|49=T2Kauaiblk2|52=20210304-13:08:35.708|56=MA|66=ListID-040321-rodrigo-1762|394=2|68=5|73=5|11=ClOrdID-1763|22=4|38=100000|44=100|48=US06051GEN51|54=1|55=[N/A/]|63=3|67=1|423=1|29726=100.25|453=1|448=T2Kauaiblk2|447=C|452=11|11=ClOrdID-1764|22=4|38=100000|44=101|48=US40434AAB52|54=1|55=[N/A]|63=3|67=2|29726=101.25|11=ClOrdID-1765|22=4|38=130000|44=102|48=US95709TAH32|54=1|55=[N/A/]|63=3|67=1|29726=102.25|453=1|448=T2Kauaiblk2|447=C|452=11|11=ClOrdID-1766|22=4|38=250000|44=103|48=US427866AZ15|54=1|55=[N/A/]|63=3|67=1|29726=103.25|453=1|448=T2Kauaiblk2|447=C|452=11|11=ClOrdID-1767|22=4|38=350000|44=104|48=US29379VAW37|54=1|55=[N/A/]|63=3|67=1|29726=104.25|453=1|448=T2Kauaiblk2|447=C|452=11|10=239|8=FIX.4.4|9=708|35=E|34=32|49=T2Kauaiblk2|52=20210304-13:08:35.881|56=MA|66=ListID-040321-rodrigo-1768|394=2|68=5|73=5|11=ClOrdID-1769|22=4|38=100000|44=100|48=US06051GEN51|54=1|55=[N/A/]|63=3|67=1|423=1|29726=100.25|453=1|448=T2Kauaiblk2|447=C|452=11|11=ClOrdID-1770|22=4|38=100000|44=101|48=US40434AAB52|54=1|55=[N/A]|63=3|67=2|29726=101.25|11=ClOrdID-1771|22=4|38=130000|44=102|48=US95709TAH32|54=1|55=[N/A/]|63=3|67=1|29726=102.25|453=1|448=T2Kauaiblk2|447=C|452=11|11=ClOrdID-1772|22=4|38=250000|44=103|48=US427866AZ15|54=1|55=[N/A/]|63=3|67=1|29726=103.25|453=1|448=T2Kauaiblk2|447=C|452=11|11=ClOrdID-1773|22=4|38=350000|44=104|48=US29379VAW37|54=1|55=[N/A/]|63=3|67=1|29726=104.25|453=1|448=T2Kauaiblk2|447=C|452=11|10=242|8=FIX.4.4|9=57|35=0|34=33|49=T2Kauaiblk2|52=20210304-13:10:06.853|56=MA|10=110|8=FIX.4.4|9=57|35=0|34=34|49=T2Kauaiblk2|52=20210304-13:11:36.870|56=MA|10=114|8=FIX.4.4|9=57|35=0|34=35|49=T2Kauaiblk2|52=20210304-13:13:07.845|56=MA|10=117|8=FIX.4.4|9=57|35=0|34=36|49=T2Kauaiblk2|52=20210304-13:14:37.871|56=MA|10=121|8=FIX.4.4|9=57|35=0|34=37|49=T2Kauaiblk2|52=20210304-13:16:07.871|56=MA|10=121|8=FIX.4.4|9=57|35=0|34=38|49=T2Kauaiblk2|52=20210304-13:17:37.871|56=MA|10=126|8=FIX.4.4|9=57|35=0|34=39|49=T2Kauaiblk2|52=20210304-13:19:08.871|56=MA|10=127|8=FIX.4.4|9=57|35=0|34=40|49=T2Kauaiblk2|52=20210304-13:20:38.871|56=MA|10=114|8=FIX.4.4|9=91|35=A|34=1|49=T2Kauaiblk2|52=20210304-16:16:45.889|56=MA|98=0|108=90|95=8|96=3.0.0rc5|141=Y|10=051|8=FIX.4.4|9=707|35=E|34=2|49=T2Kauaiblk2|52=20210304-16:16:51.530|56=MA|66=ListID-040321-rodrigo-1774|394=2|68=5|73=5|11=ClOrdID-1775|22=4|38=100000|44=100|48=US06051GEN51|54=1|55=[N/A/]|63=3|67=1|423=1|29726=100.25|453=1|448=T2Kauaiblk2|447=C|452=11|11=ClOrdID-1776|22=4|38=100000|44=101|48=US40434AAB52|54=1|55=[N/A]|63=3|67=2|29726=101.25|11=ClOrdID-1777|22=4|38=130000|44=102|48=US95709TAH32|54=1|55=[N/A/]|63=3|67=1|29726=102.25|453=1|448=T2Kauaiblk2|447=C|452=11|11=ClOrdID-1778|22=4|38=250000|44=103|48=US427866AZ15|54=1|55=[N/A/]|63=3|67=1|29726=103.25|453=1|448=T2Kauaiblk2|447=C|452=11|11=ClOrdID-1779|22=4|38=350000|44=104|48=US29379VAW37|54=1|55=[N/A/]|63=3|67=1|29726=104.25|453=1|448=T2Kauaiblk2|447=C|452=11|10=199|8=FIX.4.4|9=707|35=E|34=3|49=T2Kauaiblk2|52=20210304-16:16:52.242|56=MA|66=ListID-040321-rodrigo-1780|394=2|68=5|73=5|11=ClOrdID-1781|22=4|38=100000|44=100|48=US06051GEN51|54=1|55=[N/A/]|63=3|67=1|423=1|29726=100.25|453=1|448=T2Kauaiblk2|447=C|452=11|11=ClOrdID-1782|22=4|38=100000|44=101|48=US40434AAB52|54=1|55=[N/A]|63=3|67=2|29726=101.25|11=ClOrdID-1783|22=4|38=130000|44=102|48=US95709TAH32|54=1|55=[N/A/]|63=3|67=1|29726=102.25|453=1|448=T2Kauaiblk2|447=C|452=11|11=ClOrdID-1784|22=4|38=250000|44=103|48=US427866AZ15|54=1|55=[N/A/]|63=3|67=1|29726=103.25|453=1|448=T2Kauaiblk2|447=C|452=11|11=ClOrdID-1785|22=4|38=350000|44=104|48=US29379VAW37|54=1|55=[N/A/]|63=3|67=1|29726=104.25|453=1|448=T2Kauaiblk2|447=C|452=11|10=183|8=FIX.4.4|9=707|35=E|34=4|49=T2Kauaiblk2|52=20210304-16:16:52.730|56=MA|66=ListID-040321-rodrigo-1786|394=2|68=5|73=5|11=ClOrdID-1787|22=4|38=100000|44=100|48=US06051GEN51|54=1|55=[N/A/]|63=3|67=1|423=1|29726=100.25|453=1|448=T2Kauaiblk2|447=C|452=11|11=ClOrdID-1788|22=4|38=100000|44=101|48=US40434AAB52|54=1|55=[N/A]|63=3|67=2|29726=101.25|11=ClOrdID-1789|22=4|38=130000|44=102|48=US95709TAH32|54=1|55=[N/A/]|63=3|67=1|29726=102.25|453=1|448=T2Kauaiblk2|447=C|452=11|11=ClOrdID-1790|22=4|38=250000|44=103|48=US427866AZ15|54=1|55=[N/A/]|63=3|67=1|29726=103.25|453=1|448=T2Kauaiblk2|447=C|452=11|11=ClOrdID-1791|22=4|38=350000|44=104|48=US29379VAW37|54=1|55=[N/A/]|63=3|67=1|29726=104.25|453=1|448=T2Kauaiblk2|447=C|452=11|10=204|8=FIX.4.4|9=707|35=E|34=5|49=T2Kauaiblk2|52=20210304-16:16:53.229|56=MA|66=ListID-040321-rodrigo-1792|394=2|68=5|73=5|11=ClOrdID-1793|22=4|38=100000|44=100|48=US06051GEN51|54=1|55=[N/A/]|63=3|67=1|423=1|29726=100.25|453=1|448=T2Kauaiblk2|447=C|452=11|11=ClOrdID-1794|22=4|38=100000|44=101|48=US40434AAB52|54=1|55=[N/A]|63=3|67=2|29726=101.25|11=ClOrdID-1795|22=4|38=130000|44=102|48=US95709TAH32|54=1|55=[N/A/]|63=3|67=1|29726=102.25|453=1|448=T2Kauaiblk2|447=C|452=11|11=ClOrdID-1796|22=4|38=250000|44=103|48=US427866AZ15|54=1|55=[N/A/]|63=3|67=1|29726=103.25|453=1|448=T2Kauaiblk2|447=C|452=11|11=ClOrdID-1797|22=4|38=350000|44=104|48=US29379VAW37|54=1|55=[N/A/]|63=3|67=1|29726=104.25|453=1|448=T2Kauaiblk2|447=C|452=11|10=209|8=FIX.4.4|9=56|35=0|34=6|49=T2Kauaiblk2|52=20210304-16:18:23.775|56=MA|10=074|8=FIX.4.4|9=56|35=0|34=7|49=T2Kauaiblk2|52=20210304-16:19:53.888|56=MA|10=084|8=FIX.4.4|9=56|35=0|34=8|49=T2Kauaiblk2|52=20210304-16:21:23.888|56=MA|10=075|8=FIX.4.4|9=56|35=0|34=9|49=T2Kauaiblk2|52=20210304-16:22:53.890|56=MA|10=073|8=FIX.4.4|9=57|35=0|34=10|49=T2Kauaiblk2|52=20210304-16:24:24.889|56=MA|10=122|8=FIX.4.4|9=57|35=0|34=11|49=T2Kauaiblk2|52=20210304-16:25:54.890|56=MA|10=119|8=FIX.4.4|9=57|35=0|34=12|49=T2Kauaiblk2|52=20210304-16:27:25.888|56=MA|10=127|8=FIX.4.4|9=57|35=0|34=13|49=T2Kauaiblk2|52=20210304-16:28:55.890|56=MA|10=125|8=FIX.4.4|9=57|35=0|34=14|49=T2Kauaiblk2|52=20210304-16:30:25.890|56=MA|10=116|8=FIX.4.4|9=57|35=0|34=15|49=T2Kauaiblk2|52=20210304-16:31:55.890|56=MA|10=121|8=FIX.4.4|9=57|35=0|34=16|49=T2Kauaiblk2|52=20210304-16:33:25.890|56=MA|10=121|8=FIX.4.4|9=57|35=0|34=17|49=T2Kauaiblk2|52=20210304-16:34:55.890|56=MA|10=126|8=FIX.4.4|9=57|35=0|34=18|49=T2Kauaiblk2|52=20210304-16:36:26.890|56=MA|10=127|8=FIX.4.4|9=57|35=0|34=19|49=T2Kauaiblk2|52=20210304-16:37:57.889|56=MA|10=141|8=FIX.4.4|9=57|35=0|34=20|49=T2Kauaiblk2|52=20210304-16:39:28.888|56=MA|10=132|8=FIX.4.4|9=57|35=0|34=21|49=T2Kauaiblk2|52=20210304-16:40:58.888|56=MA|10=128|8=FIX.4.4|9=57|35=0|34=22|49=T2Kauaiblk2|52=20210304-16:42:28.889|56=MA|10=129|8=FIX.4.4|9=57|35=0|34=23|49=T2Kauaiblk2|52=20210304-16:43:58.890|56=MA|10=126|8=FIX.4.4|9=57|35=0|34=24|49=T2Kauaiblk2|52=20210304-16:45:28.890|56=MA|10=126|8=FIX.4.4|9=57|35=0|34=25|49=T2Kauaiblk2|52=20210304-16:46:59.889|56=MA|10=140|8=FIX.4.4|9=57|35=0|34=26|49=T2Kauaiblk2|52=20210304-16:48:29.889|56=MA|10=140|8=FIX.4.4|9=57|35=0|34=27|49=T2Kauaiblk2|52=20210304-16:49:59.889|56=MA|10=145|8=FIX.4.4|9=57|35=0|34=28|49=T2Kauaiblk2|52=20210304-16:51:29.889|56=MA|10=136|8=FIX.4.4|9=57|35=0|34=29|49=T2Kauaiblk2|52=20210304-16:52:59.889|56=MA|10=141|8=FIX.4.4|9=57|35=0|34=30|49=T2Kauaiblk2|52=20210304-16:54:29.889|56=MA|10=132|8=FIX.4.4|9=57|35=0|34=31|49=T2Kauaiblk2|52=20210304-16:55:59.890|56=MA|10=129|8=FIX.4.4|9=57|35=0|34=32|49=T2Kauaiblk2|52=20210304-16:57:30.890|56=MA|10=121|8=FIX.4.4|9=57|35=0|34=33|49=T2Kauaiblk2|52=20210304-16:59:01.890|56=MA|10=122|8=FIX.4.4|9=57|35=0|34=34|49=T2Kauaiblk2|52=20210304-17:00:31.890|56=MA|10=113|8=FIX.4.4|9=57|35=0|34=35|49=T2Kauaiblk2|52=20210304-17:02:01.894|56=MA|10=117|8=FIX.4.4|9=57|35=0|34=36|49=T2Kauaiblk2|52=20210304-17:03:31.894|56=MA|10=122|8=FIX.4.4|9=57|35=0|34=37|49=T2Kauaiblk2|52=20210304-17:05:01.896|56=MA|10=124|8=FIX.4.4|9=57|35=0|34=38|49=T2Kauaiblk2|52=20210304-17:06:31.896|56=MA|10=129|8=FIX.4.4|9=57|35=0|34=39|49=T2Kauaiblk2|52=20210304-17:08:01.898|56=MA|10=131|8=FIX.4.4|9=57|35=0|34=40|49=T2Kauaiblk2|52=20210304-17:09:31.899|56=MA|10=128|8=FIX.4.4|9=57|35=0|34=41|49=T2Kauaiblk2|52=20210304-17:11:01.901|56=MA|10=103|8=FIX.4.4|9=57|35=0|34=42|49=T2Kauaiblk2|52=20210304-17:12:31.902|56=MA|10=109|8=FIX.4.4|9=57|35=0|34=43|49=T2Kauaiblk2|52=20210304-17:14:02.903|56=MA|10=111|8=FIX.4.4|9=57|35=0|34=44|49=T2Kauaiblk2|52=20210304-17:15:32.904|56=MA|10=117|8=FIX.4.4|9=57|35=0|34=45|49=T2Kauaiblk2|52=20210304-17:17:03.905|56=MA|10=119|8=FIX.4.4|9=57|35=0|34=46|49=T2Kauaiblk2|52=20210304-17:18:33.905|56=MA|10=124|8=FIX.4.4|9=57|35=0|34=47|49=T2Kauaiblk2|52=20210304-17:20:03.905|56=MA|10=115|8=FIX.4.4|9=57|35=0|34=48|49=T2Kauaiblk2|52=20210304-17:21:33.906|56=MA|10=121|8=FIX.4.4|9=57|35=0|34=49|49=T2Kauaiblk2|52=20210304-17:23:03.906|56=MA|10=121|8=FIX.4.4|9=57|35=0|34=50|49=T2Kauaiblk2|52=20210304-17:24:33.907|56=MA|10=118|8=FIX.4.4|9=57|35=0|34=51|49=T2Kauaiblk2|52=20210304-17:26:03.909|56=MA|10=120|8=FIX.4.4|9=57|35=0|34=52|49=T2Kauaiblk2|52=20210304-17:27:33.910|56=MA|10=117|8=FIX.4.4|9=57|35=0|34=53|49=T2Kauaiblk2|52=20210304-17:29:03.910|56=MA|10=117|8=FIX.4.4|9=57|35=0|34=54|49=T2Kauaiblk2|52=20210304-17:30:33.910|56=MA|10=113|8=FIX.4.4|9=57|35=0|34=55|49=T2Kauaiblk2|52=20210304-17:32:03.911|56=MA|10=114|8=FIX.4.4|9=57|35=0|34=56|49=T2Kauaiblk2|52=20210304-17:33:34.911|56=MA|10=120|8=FIX.4.4|9=57|35=0|34=57|49=T2Kauaiblk2|52=20210304-17:35:04.911|56=MA|10=120|8=FIX.4.4|9=57|35=0|34=58|49=T2Kauaiblk2|52=20210304-17:36:34.912|56=MA|10=126|8=FIX.4.4|9=57|35=0|34=59|49=T2Kauaiblk2|52=20210304-17:38:04.912|56=MA|10=126|8=FIX.4.4|9=57|35=0|34=60|49=T2Kauaiblk2|52=20210304-17:39:34.914|56=MA|10=124|8=FIX.4.4|9=57|35=0|34=61|49=T2Kauaiblk2|52=20210304-17:41:04.914|56=MA|10=115|8=FIX.4.4|9=57|35=0|34=62|49=T2Kauaiblk2|52=20210304-17:42:35.915|56=MA|10=122|8=FIX.4.4|9=57|35=0|34=63|49=T2Kauaiblk2|52=20210304-17:44:05.915|56=MA|10=122|8=FIX.4.4|9=57|35=0|34=64|49=T2Kauaiblk2|52=20210304-17:45:35.915|56=MA|10=127|8=FIX.4.4|9=57|35=0|34=65|49=T2Kauaiblk2|52=20210304-17:47:05.915|56=MA|10=127|8=FIX.4.4|9=57|35=0|34=66|49=T2Kauaiblk2|52=20210304-17:48:35.915|56=MA|10=132|8=FIX.4.4|9=57|35=0|34=67|49=T2Kauaiblk2|52=20210304-17:50:05.915|56=MA|10=123|8=FIX.4.4|9=57|35=0|34=68|49=T2Kauaiblk2|52=20210304-17:51:35.915|56=MA|10=128|8=FIX.4.4|9=57|35=0|34=69|49=T2Kauaiblk2|52=20210304-17:53:05.916|56=MA|10=129|8=FIX.4.4|9=57|35=0|34=70|49=T2Kauaiblk2|52=20210304-17:54:35.930|56=MA|10=121|8=FIX.4.4|9=57|35=0|34=71|49=T2Kauaiblk2|52=20210304-17:56:06.917|56=MA|10=127|8=FIX.4.4|9=57|35=0|34=72|49=T2Kauaiblk2|52=20210304-17:57:37.917|56=MA|10=133|8=FIX.4.4|9=57|35=0|34=73|49=T2Kauaiblk2|52=20210304-17:59:07.917|56=MA|10=133|8=FIX.4.4|9=75|35=5|34=74|49=T2Kauaiblk2|52=20210304-18:00:02.917|56=MA|58=user requested|10=213|8=FIX.4.4|9=91|35=A|34=1|49=T2Kauaiblk2|52=20210305-10:36:25.887|56=MA|98=0|108=90|95=8|96=3.0.0rc5|141=Y|10=044|8=FIX.4.4|9=699|35=E|34=2|49=T2Kauaiblk2|52=20210305-10:36:37.055|56=MA|66=ListID-050321-1798|394=2|68=5|73=5|11=ClOrdID-1799|22=4|38=100000|44=100|48=US06051GEN51|54=1|55=[N/A/]|63=3|67=1|423=1|29726=100.25|453=1|448=T2Kauaiblk2|447=C|452=11|11=ClOrdID-1800|22=4|38=100000|44=101|48=US40434AAB52|54=1|55=[N/A]|63=3|67=2|29726=101.25|11=ClOrdID-1801|22=4|38=130000|44=102|48=US95709TAH32|54=1|55=[N/A/]|63=3|67=1|29726=102.25|453=1|448=T2Kauaiblk2|447=C|452=11|11=ClOrdID-1802|22=4|38=250000|44=103|48=US427866AZ15|54=1|55=[N/A/]|63=3|67=1|29726=103.25|453=1|448=T2Kauaiblk2|447=C|452=11|11=ClOrdID-1803|22=4|38=350000|44=104|48=US29379VAW37|54=1|55=[N/A/]|63=3|67=1|29726=104.25|453=1|448=T2Kauaiblk2|447=C|452=11|10=142|8=FIX.4.4|9=699|35=E|34=3|49=T2Kauaiblk2|52=20210305-10:36:37.765|56=MA|66=ListID-050321-1804|394=2|68=5|73=5|11=ClOrdID-1805|22=4|38=100000|44=100|48=US06051GEN51|54=1|55=[N/A/]|63=3|67=1|423=1|29726=100.25|453=1|448=T2Kauaiblk2|447=C|452=11|11=ClOrdID-1806|22=4|38=100000|44=101|48=US40434AAB52|54=1|55=[N/A]|63=3|67=2|29726=101.25|11=ClOrdID-1807|22=4|38=130000|44=102|48=US95709TAH32|54=1|55=[N/A/]|63=3|67=1|29726=102.25|453=1|448=T2Kauaiblk2|447=C|452=11|11=ClOrdID-1808|22=4|38=250000|44=103|48=US427866AZ15|54=1|55=[N/A/]|63=3|67=1|29726=103.25|453=1|448=T2Kauaiblk2|447=C|452=11|11=ClOrdID-1809|22=4|38=350000|44=104|48=US29379VAW37|54=1|55=[N/A/]|63=3|67=1|29726=104.25|453=1|448=T2Kauaiblk2|447=C|452=11|10=151|8=FIX.4.4|9=699|35=E|34=4|49=T2Kauaiblk2|52=20210305-10:36:38.424|56=MA|66=ListID-050321-1810|394=2|68=5|73=5|11=ClOrdID-1811|22=4|38=100000|44=100|48=US06051GEN51|54=1|55=[N/A/]|63=3|67=1|423=1|29726=100.25|453=1|448=T2Kauaiblk2|447=C|452=11|11=ClOrdID-1812|22=4|38=100000|44=101|48=US40434AAB52|54=1|55=[N/A]|63=3|67=2|29726=101.25|11=ClOrdID-1813|22=4|38=130000|44=102|48=US95709TAH32|54=1|55=[N/A/]|63=3|67=1|29726=102.25|453=1|448=T2Kauaiblk2|447=C|452=11|11=ClOrdID-1814|22=4|38=250000|44=103|48=US427866AZ15|54=1|55=[N/A/]|63=3|67=1|29726=103.25|453=1|448=T2Kauaiblk2|447=C|452=11|11=ClOrdID-1815|22=4|38=350000|44=104|48=US29379VAW37|54=1|55=[N/A/]|63=3|67=1|29726=104.25|453=1|448=T2Kauaiblk2|447=C|452=11|10=127|8=FIX.4.4|9=699|35=E|34=5|49=T2Kauaiblk2|52=20210305-10:36:39.042|56=MA|66=ListID-050321-1816|394=2|68=5|73=5|11=ClOrdID-1817|22=4|38=100000|44=100|48=US06051GEN51|54=1|55=[N/A/]|63=3|67=1|423=1|29726=100.25|453=1|448=T2Kauaiblk2|447=C|452=11|11=ClOrdID-1818|22=4|38=100000|44=101|48=US40434AAB52|54=1|55=[N/A]|63=3|67=2|29726=101.25|11=ClOrdID-1819|22=4|38=130000|44=102|48=US95709TAH32|54=1|55=[N/A/]|63=3|67=1|29726=102.25|453=1|448=T2Kauaiblk2|447=C|452=11|11=ClOrdID-1820|22=4|38=250000|44=103|48=US427866AZ15|54=1|55=[N/A/]|63=3|67=1|29726=103.25|453=1|448=T2Kauaiblk2|447=C|452=11|11=ClOrdID-1821|22=4|38=350000|44=104|48=US29379VAW37|54=1|55=[N/A/]|63=3|67=1|29726=104.25|453=1|448=T2Kauaiblk2|447=C|452=11|10=143|8=FIX.4.4|9=699|35=E|34=6|49=T2Kauaiblk2|52=20210305-10:36:39.779|56=MA|66=ListID-050321-1822|394=2|68=5|73=5|11=ClOrdID-1823|22=4|38=100000|44=100|48=US06051GEN51|54=1|55=[N/A/]|63=3|67=1|423=1|29726=100.25|453=1|448=T2Kauaiblk2|447=C|452=11|11=ClOrdID-1824|22=4|38=100000|44=101|48=US40434AAB52|54=1|55=[N/A]|63=3|67=2|29726=101.25|11=ClOrdID-1825|22=4|38=130000|44=102|48=US95709TAH32|54=1|55=[N/A/]|63=3|67=1|29726=102.25|453=1|448=T2Kauaiblk2|447=C|452=11|11=ClOrdID-1826|22=4|38=250000|44=103|48=US427866AZ15|54=1|55=[N/A/]|63=3|67=1|29726=103.25|453=1|448=T2Kauaiblk2|447=C|452=11|11=ClOrdID-1827|22=4|38=350000|44=104|48=US29379VAW37|54=1|55=[N/A/]|63=3|67=1|29726=104.25|453=1|448=T2Kauaiblk2|447=C|452=11|10=161|8=FIX.4.4|9=699|35=E|34=7|49=T2Kauaiblk2|52=20210305-10:36:40.262|56=MA|66=ListID-050321-1828|394=2|68=5|73=5|11=ClOrdID-1829|22=4|38=100000|44=100|48=US06051GEN51|54=1|55=[N/A/]|63=3|67=1|423=1|29726=100.25|453=1|448=T2Kauaiblk2|447=C|452=11|11=ClOrdID-1830|22=4|38=100000|44=101|48=US40434AAB52|54=1|55=[N/A]|63=3|67=2|29726=101.25|11=ClOrdID-1831|22=4|38=130000|44=102|48=US95709TAH32|54=1|55=[N/A/]|63=3|67=1|29726=102.25|453=1|448=T2Kauaiblk2|447=C|452=11|11=ClOrdID-1832|22=4|38=250000|44=103|48=US427866AZ15|54=1|55=[N/A/]|63=3|67=1|29726=103.25|453=1|448=T2Kauaiblk2|447=C|452=11|11=ClOrdID-1833|22=4|38=350000|44=104|48=US29379VAW37|54=1|55=[N/A/]|63=3|67=1|29726=104.25|453=1|448=T2Kauaiblk2|447=C|452=11|10=141|8=FIX.4.4|9=699|35=E|34=8|49=T2Kauaiblk2|52=20210305-10:36:40.856|56=MA|66=ListID-050321-1834|394=2|68=5|73=5|11=ClOrdID-1835|22=4|38=100000|44=100|48=US06051GEN51|54=1|55=[N/A/]|63=3|67=1|423=1|29726=100.25|453=1|448=T2Kauaiblk2|447=C|452=11|11=ClOrdID-1836|22=4|38=100000|44=101|48=US40434AAB52|54=1|55=[N/A]|63=3|67=2|29726=101.25|11=ClOrdID-1837|22=4|38=130000|44=102|48=US95709TAH32|54=1|55=[N/A/]|63=3|67=1|29726=102.25|453=1|448=T2Kauaiblk2|447=C|452=11|11=ClOrdID-1838|22=4|38=250000|44=103|48=US427866AZ15|54=1|55=[N/A/]|63=3|67=1|29726=103.25|453=1|448=T2Kauaiblk2|447=C|452=11|11=ClOrdID-1839|22=4|38=350000|44=104|48=US29379VAW37|54=1|55=[N/A/]|63=3|67=1|29726=104.25|453=1|448=T2Kauaiblk2|447=C|452=11|10=169|8=FIX.4.4|9=707|35=E|34=9|49=T2Kauaiblk2|52=20210305-10:36:53.406|56=MA|66=ListID-050321-rodrigo-1840|394=2|68=5|73=5|11=ClOrdID-1841|22=4|38=100000|44=100|48=US06051GEN51|54=1|55=[N/A/]|63=3|67=1|423=1|29726=100.25|453=1|448=T2Kauaiblk2|447=C|452=11|11=ClOrdID-1842|22=4|38=100000|44=101|48=US40434AAB52|54=1|55=[N/A]|63=3|67=2|29726=101.25|11=ClOrdID-1843|22=4|38=130000|44=102|48=US95709TAH32|54=1|55=[N/A/]|63=3|67=1|29726=102.25|453=1|448=T2Kauaiblk2|447=C|452=11|11=ClOrdID-1844|22=4|38=250000|44=103|48=US427866AZ15|54=1|55=[N/A/]|63=3|67=1|29726=103.25|453=1|448=T2Kauaiblk2|447=C|452=11|11=ClOrdID-1845|22=4|38=350000|44=104|48=US29379VAW37|54=1|55=[N/A/]|63=3|67=1|29726=104.25|453=1|448=T2Kauaiblk2|447=C|452=11|10=172|8=FIX.4.4|9=708|35=E|34=10|49=T2Kauaiblk2|52=20210305-10:36:54.054|56=MA|66=ListID-050321-rodrigo-1846|394=2|68=5|73=5|11=ClOrdID-1847|22=4|38=100000|44=100|48=US06051GEN51|54=1|55=[N/A/]|63=3|67=1|423=1|29726=100.25|453=1|448=T2Kauaiblk2|447=C|452=11|11=ClOrdID-1848|22=4|38=100000|44=101|48=US40434AAB52|54=1|55=[N/A]|63=3|67=2|29726=101.25|11=ClOrdID-1849|22=4|38=130000|44=102|48=US95709TAH32|54=1|55=[N/A/]|63=3|67=1|29726=102.25|453=1|448=T2Kauaiblk2|447=C|452=11|11=ClOrdID-1850|22=4|38=250000|44=103|48=US427866AZ15|54=1|55=[N/A/]|63=3|67=1|29726=103.25|453=1|448=T2Kauaiblk2|447=C|452=11|11=ClOrdID-1851|22=4|38=350000|44=104|48=US29379VAW37|54=1|55=[N/A/]|63=3|67=1|29726=104.25|453=1|448=T2Kauaiblk2|447=C|452=11|10=231|8=FIX.4.4|9=708|35=E|34=11|49=T2Kauaiblk2|52=20210305-10:36:54.585|56=MA|66=ListID-050321-rodrigo-1852|394=2|68=5|73=5|11=ClOrdID-1853|22=4|38=100000|44=100|48=US06051GEN51|54=1|55=[N/A/]|63=3|67=1|423=1|29726=100.25|453=1|448=T2Kauaiblk2|447=C|452=11|11=ClOrdID-1854|22=4|38=100000|44=101|48=US40434AAB52|54=1|55=[N/A]|63=3|67=2|29726=101.25|11=ClOrdID-1855|22=4|38=130000|44=102|48=US95709TAH32|54=1|55=[N/A/]|63=3|67=1|29726=102.25|453=1|448=T2Kauaiblk2|447=C|452=11|11=ClOrdID-1856|22=4|38=250000|44=103|48=US427866AZ15|54=1|55=[N/A/]|63=3|67=1|29726=103.25|453=1|448=T2Kauaiblk2|447=C|452=11|11=ClOrdID-1857|22=4|38=350000|44=104|48=US29379VAW37|54=1|55=[N/A/]|63=3|67=1|29726=104.25|453=1|448=T2Kauaiblk2|447=C|452=11|10=241|8=FIX.4.4|9=708|35=E|34=12|49=T2Kauaiblk2|52=20210305-10:36:55.308|56=MA|66=ListID-050321-rodrigo-1858|394=2|68=5|73=5|11=ClOrdID-1859|22=4|38=100000|44=100|48=US06051GEN51|54=1|55=[N/A/]|63=3|67=1|423=1|29726=100.25|453=1|448=T2Kauaiblk2|447=C|452=11|11=ClOrdID-1860|22=4|38=100000|44=101|48=US40434AAB52|54=1|55=[N/A]|63=3|67=2|29726=101.25|11=ClOrdID-1861|22=4|38=130000|44=102|48=US95709TAH32|54=1|55=[N/A/]|63=3|67=1|29726=102.25|453=1|448=T2Kauaiblk2|447=C|452=11|11=ClOrdID-1862|22=4|38=250000|44=103|48=US427866AZ15|54=1|55=[N/A/]|63=3|67=1|29726=103.25|453=1|448=T2Kauaiblk2|447=C|452=11|11=ClOrdID-1863|22=4|38=350000|44=104|48=US29379VAW37|54=1|55=[N/A/]|63=3|67=1|29726=104.25|453=1|448=T2Kauaiblk2|447=C|452=11|10=236|8=FIX.4.4|9=57|35=0|34=13|49=T2Kauaiblk2|52=20210305-10:38:25.681|56=MA|10=116|8=FIX.4.4|9=57|35=0|34=14|49=T2Kauaiblk2|52=20210305-10:39:55.880|56=MA|10=122|8=FIX.4.4|9=57|35=0|34=15|49=T2Kauaiblk2|52=20210305-10:41:25.881|56=MA|10=114|8=FIX.4.4|9=57|35=0|34=16|49=T2Kauaiblk2|52=20210305-10:42:55.881|56=MA|10=119|8=FIX.4.4|9=57|35=0|34=17|49=T2Kauaiblk2|52=20210305-10:44:25.881|56=MA|10=119|8=FIX.4.4|9=57|35=0|34=18|49=T2Kauaiblk2|52=20210305-10:45:55.882|56=MA|10=125|8=FIX.4.4|9=57|35=0|34=19|49=T2Kauaiblk2|52=20210305-10:47:25.883|56=MA|10=126|8=FIX.4.4|9=57|35=0|34=20|49=T2Kauaiblk2|52=20210305-10:48:56.882|56=MA|10=122|8=FIX.4.4|9=57|35=0|34=21|49=T2Kauaiblk2|52=20210305-10:50:26.882|56=MA|10=113|8=FIX.4.4|9=57|35=0|34=22|49=T2Kauaiblk2|52=20210305-10:51:56.882|56=MA|10=118|8=FIX.4.4|9=57|35=0|34=23|49=T2Kauaiblk2|52=20210305-10:53:26.883|56=MA|10=119|8=FIX.4.4|9=57|35=0|34=24|49=T2Kauaiblk2|52=20210305-10:54:56.884|56=MA|10=125|8=FIX.4.4|9=57|35=0|34=25|49=T2Kauaiblk2|52=20210305-10:56:26.884|56=MA|10=125|8=FIX.4.4|9=57|35=0|34=26|49=T2Kauaiblk2|52=20210305-10:57:56.885|56=MA|10=131|8=FIX.4.4|9=57|35=0|34=27|49=T2Kauaiblk2|52=20210305-10:59:26.886|56=MA|10=132|8=FIX.4.4|9=57|35=0|34=28|49=T2Kauaiblk2|52=20210305-11:00:57.884|56=MA|10=122|8=FIX.4.4|9=57|35=0|34=29|49=T2Kauaiblk2|52=20210305-11:02:27.885|56=MA|10=123|8=FIX.4.4|9=57|35=0|34=30|49=T2Kauaiblk2|52=20210305-11:03:57.914|56=MA|10=112|8=FIX.4.4|9=57|35=0|34=31|49=T2Kauaiblk2|52=20210305-11:05:28.887|56=MA|10=122|8=FIX.4.4|9=57|35=0|34=32|49=T2Kauaiblk2|52=20210305-11:06:58.887|56=MA|10=127|8=FIX.4.4|9=57|35=0|34=33|49=T2Kauaiblk2|52=20210305-11:08:29.885|56=MA|10=126|8=FIX.4.4|9=57|35=0|34=34|49=T2Kauaiblk2|52=20210305-11:09:59.886|56=MA|10=132|8=FIX.4.4|9=57|35=0|34=35|49=T2Kauaiblk2|52=20210305-11:11:29.888|56=MA|10=125|8=FIX.4.4|9=57|35=0|34=36|49=T2Kauaiblk2|52=20210305-11:12:59.888|56=MA|10=130|8=FIX.4.4|9=57|35=0|34=37|49=T2Kauaiblk2|52=20210305-11:14:29.889|56=MA|10=131|8=FIX.4.4|9=57|35=0|34=38|49=T2Kauaiblk2|52=20210305-11:15:59.891|56=MA|10=129|8=FIX.4.4|9=57|35=0|34=39|49=T2Kauaiblk2|52=20210305-11:17:29.893|56=MA|10=131|8=FIX.4.4|9=57|35=0|34=40|49=T2Kauaiblk2|52=20210305-11:19:00.893|56=MA|10=114|8=FIX.4.4|9=57|35=0|34=41|49=T2Kauaiblk2|52=20210305-11:20:30.894|56=MA|10=111|8=FIX.4.4|9=57|35=0|34=42|49=T2Kauaiblk2|52=20210305-11:22:00.894|56=MA|10=111|8=FIX.4.4|9=708|35=E|34=43|49=T2Kauaiblk2|52=20210305-11:22:59.701|56=MA|66=ListID-050321-rodrigo-1864|394=2|68=5|73=5|11=ClOrdID-1865|22=4|38=100000|44=100|48=US06051GEN51|54=1|55=[N/A/]|63=3|67=1|423=1|29726=100.25|453=1|448=T2Kauaiblk2|447=C|452=11|11=ClOrdID-1866|22=4|38=100000|44=101|48=US40434AAB52|54=1|55=[N/A]|63=3|67=2|29726=101.25|11=ClOrdID-1867|22=4|38=130000|44=102|48=US95709TAH32|54=1|55=[N/A/]|63=3|67=1|29726=102.25|453=1|448=T2Kauaiblk2|447=C|452=11|11=ClOrdID-1868|22=4|38=250000|44=103|48=US427866AZ15|54=1|55=[N/A/]|63=3|67=1|29726=103.25|453=1|448=T2Kauaiblk2|447=C|452=11|11=ClOrdID-1869|22=4|38=350000|44=104|48=US29379VAW37|54=1|55=[N/A/]|63=3|67=1|29726=104.25|453=1|448=T2Kauaiblk2|447=C|452=11|10=255|8=FIX.4.4|9=708|35=E|34=44|49=T2Kauaiblk2|52=20210305-11:23:00.469|56=MA|66=ListID-050321-rodrigo-1870|394=2|68=5|73=5|11=ClOrdID-1871|22=4|38=100000|44=100|48=US06051GEN51|54=1|55=[N/A/]|63=3|67=1|423=1|29726=100.25|453=1|448=T2Kauaiblk2|447=C|452=11|11=ClOrdID-1872|22=4|38=100000|44=101|48=US40434AAB52|54=1|55=[N/A]|63=3|67=2|29726=101.25|11=ClOrdID-1873|22=4|38=130000|44=102|48=US95709TAH32|54=1|55=[N/A/]|63=3|67=1|29726=102.25|453=1|448=T2Kauaiblk2|447=C|452=11|11=ClOrdID-1874|22=4|38=250000|44=103|48=US427866AZ15|54=1|55=[N/A/]|63=3|67=1|29726=103.25|453=1|448=T2Kauaiblk2|447=C|452=11|11=ClOrdID-1875|22=4|38=350000|44=104|48=US29379VAW37|54=1|55=[N/A/]|63=3|67=1|29726=104.25|453=1|448=T2Kauaiblk2|447=C|452=11|10=236|8=FIX.4.4|9=708|35=E|34=45|49=T2Kauaiblk2|52=20210305-11:23:01.092|56=MA|66=ListID-050321-rodrigo-1876|394=2|68=5|73=5|11=ClOrdID-1877|22=4|38=100000|44=100|48=US06051GEN51|54=1|55=[N/A/]|63=3|67=1|423=1|29726=100.25|453=1|448=T2Kauaiblk2|447=C|452=11|11=ClOrdID-1878|22=4|38=100000|44=101|48=US40434AAB52|54=1|55=[N/A]|63=3|67=2|29726=101.25|11=ClOrdID-1879|22=4|38=130000|44=102|48=US95709TAH32|54=1|55=[N/A/]|63=3|67=1|29726=102.25|453=1|448=T2Kauaiblk2|447=C|452=11|11=ClOrdID-1880|22=4|38=250000|44=103|48=US427866AZ15|54=1|55=[N/A/]|63=3|67=1|29726=103.25|453=1|448=T2Kauaiblk2|447=C|452=11|11=ClOrdID-1881|22=4|38=350000|44=104|48=US29379VAW37|54=1|55=[N/A/]|63=3|67=1|29726=104.25|453=1|448=T2Kauaiblk2|447=C|452=11|10=248|8=FIX.4.4|9=708|35=E|34=46|49=T2Kauaiblk2|52=20210305-11:23:01.325|56=MA|66=ListID-050321-rodrigo-1882|394=2|68=5|73=5|11=ClOrdID-1883|22=4|38=100000|44=100|48=US06051GEN51|54=1|55=[N/A/]|63=3|67=1|423=1|29726=100.25|453=1|448=T2Kauaiblk2|447=C|452=11|11=ClOrdID-1884|22=4|38=100000|44=101|48=US40434AAB52|54=1|55=[N/A]|63=3|67=2|29726=101.25|11=ClOrdID-1885|22=4|38=130000|44=102|48=US95709TAH32|54=1|55=[N/A/]|63=3|67=1|29726=102.25|453=1|448=T2Kauaiblk2|447=C|452=11|11=ClOrdID-1886|22=4|38=250000|44=103|48=US427866AZ15|54=1|55=[N/A/]|63=3|67=1|29726=103.25|453=1|448=T2Kauaiblk2|447=C|452=11|11=ClOrdID-1887|22=4|38=350000|44=104|48=US29379VAW37|54=1|55=[N/A/]|63=3|67=1|29726=104.25|453=1|448=T2Kauaiblk2|447=C|452=11|10=248|8=FIX.4.4|9=708|35=E|34=47|49=T2Kauaiblk2|52=20210305-11:23:01.998|56=MA|66=ListID-050321-rodrigo-1888|394=2|68=5|73=5|11=ClOrdID-1889|22=4|38=100000|44=100|48=US06051GEN51|54=1|55=[N/A/]|63=3|67=1|423=1|29726=100.25|453=1|448=T2Kauaiblk2|447=C|452=11|11=ClOrdID-1890|22=4|38=100000|44=101|48=US40434AAB52|54=1|55=[N/A]|63=3|67=2|29726=101.25|11=ClOrdID-1891|22=4|38=130000|44=102|48=US95709TAH32|54=1|55=[N/A/]|63=3|67=1|29726=102.25|453=1|448=T2Kauaiblk2|447=C|452=11|11=ClOrdID-1892|22=4|38=250000|44=103|48=US427866AZ15|54=1|55=[N/A/]|63=3|67=1|29726=103.25|453=1|448=T2Kauaiblk2|447=C|452=11|11=ClOrdID-1893|22=4|38=350000|44=104|48=US29379VAW37|54=1|55=[N/A/]|63=3|67=1|29726=104.25|453=1|448=T2Kauaiblk2|447=C|452=11|10=009|8=FIX.4.4|9=708|35=E|34=48|49=T2Kauaiblk2|52=20210305-11:23:02.235|56=MA|66=ListID-050321-rodrigo-1894|394=2|68=5|73=5|11=ClOrdID-1895|22=4|38=100000|44=100|48=US06051GEN51|54=1|55=[N/A/]|63=3|67=1|423=1|29726=100.25|453=1|448=T2Kauaiblk2|447=C|452=11|11=ClOrdID-1896|22=4|38=100000|44=101|48=US40434AAB52|54=1|55=[N/A]|63=3|67=2|29726=101.25|11=ClOrdID-1897|22=4|38=130000|44=102|48=US95709TAH32|54=1|55=[N/A/]|63=3|67=1|29726=102.25|453=1|448=T2Kauaiblk2|447=C|452=11|11=ClOrdID-1898|22=4|38=250000|44=103|48=US427866AZ15|54=1|55=[N/A/]|63=3|67=1|29726=103.25|453=1|448=T2Kauaiblk2|447=C|452=11|11=ClOrdID-1899|22=4|38=350000|44=104|48=US29379VAW37|54=1|55=[N/A/]|63=3|67=1|29726=104.25|453=1|448=T2Kauaiblk2|447=C|452=11|10=013|8=FIX.4.4|9=57|35=0|34=49|49=T2Kauaiblk2|52=20210305-11:24:32.895|56=MA|10=126|8=FIX.4.4|9=57|35=0|34=50|49=T2Kauaiblk2|52=20210305-11:26:03.894|56=MA|10=117|8=FIX.4.4|9=57|35=0|34=51|49=T2Kauaiblk2|52=20210305-11:27:33.895|56=MA|10=123|8=FIX.4.4|9=57|35=0|34=52|49=T2Kauaiblk2|52=20210305-11:29:03.896|56=MA|10=124|8=FIX.4.4|9=57|35=0|34=53|49=T2Kauaiblk2|52=20210305-11:30:33.896|56=MA|10=120|8=FIX.4.4|9=57|35=0|34=54|49=T2Kauaiblk2|52=20210305-11:32:03.899|56=MA|10=123|8=FIX.4.4|9=57|35=0|34=55|49=T2Kauaiblk2|52=20210305-11:33:33.900|56=MA|10=111|8=FIX.4.4|9=57|35=0|34=56|49=T2Kauaiblk2|52=20210305-11:35:04.900|56=MA|10=112|8=FIX.4.4|9=57|35=0|34=57|49=T2Kauaiblk2|52=20210305-11:36:34.901|56=MA|10=118|8=FIX.4.4|9=57|35=0|34=58|49=T2Kauaiblk2|52=20210305-11:38:05.900|56=MA|10=118|8=FIX.4.4|9=57|35=0|34=59|49=T2Kauaiblk2|52=20210305-11:39:35.901|56=MA|10=124|8=FIX.4.4|9=57|35=0|34=60|49=T2Kauaiblk2|52=20210305-11:41:06.901|56=MA|10=107|8=FIX.4.4|9=57|35=0|34=61|49=T2Kauaiblk2|52=20210305-11:42:37.900|56=MA|10=112|8=FIX.4.4|9=57|35=0|34=62|49=T2Kauaiblk2|52=20210305-11:44:07.901|56=MA|10=113|8=FIX.4.4|9=57|35=0|34=63|49=T2Kauaiblk2|52=20210305-11:45:37.901|56=MA|10=118|8=FIX.4.4|9=57|35=0|34=64|49=T2Kauaiblk2|52=20210305-11:47:07.903|56=MA|10=120|8=FIX.4.4|9=57|35=0|34=65|49=T2Kauaiblk2|52=20210305-11:48:37.905|56=MA|10=127|8=FIX.4.4|9=57|35=0|34=66|49=T2Kauaiblk2|52=20210305-11:50:08.905|56=MA|10=119|8=FIX.4.4|9=57|35=0|34=67|49=T2Kauaiblk2|52=20210305-11:51:38.905|56=MA|10=124|8=FIX.4.4|9=57|35=0|34=68|49=T2Kauaiblk2|52=20210305-11:53:08.906|56=MA|10=125|8=FIX.4.4|9=57|35=0|34=69|49=T2Kauaiblk2|52=20210305-11:54:39.906|56=MA|10=131|8=FIX.4.4|9=57|35=0|34=70|49=T2Kauaiblk2|52=20210305-11:56:10.906|56=MA|10=114|8=FIX.4.4|9=57|35=0|34=71|49=T2Kauaiblk2|52=20210305-11:57:40.907|56=MA|10=120|8=FIX.4.4|9=57|35=0|34=72|49=T2Kauaiblk2|52=20210305-11:59:10.907|56=MA|10=120|8=FIX.4.4|9=57|35=0|34=73|49=T2Kauaiblk2|52=20210305-12:00:41.907|56=MA|10=112|8=FIX.4.4|9=57|35=0|34=74|49=T2Kauaiblk2|52=20210305-12:02:12.905|56=MA|10=111|8=FIX.4.4|9=708|35=E|34=75|49=T2Kauaiblk2|52=20210305-12:02:59.438|56=MA|66=ListID-050321-rodrigo-1900|394=2|68=5|73=5|11=ClOrdID-1901|22=4|38=100000|44=100|48=US06051GEN51|54=1|55=[N/A/]|63=3|67=1|423=1|29726=100.25|453=1|448=T2Kauaiblk2|447=C|452=11|11=ClOrdID-1902|22=4|38=100000|44=101|48=US40434AAB52|54=1|55=[N/A]|63=3|67=2|29726=101.25|11=ClOrdID-1903|22=4|38=130000|44=102|48=US95709TAH32|54=1|55=[N/A/]|63=3|67=1|29726=102.25|453=1|448=T2Kauaiblk2|447=C|452=11|11=ClOrdID-1904|22=4|38=250000|44=103|48=US427866AZ15|54=1|55=[N/A/]|63=3|67=1|29726=103.25|453=1|448=T2Kauaiblk2|447=C|452=11|11=ClOrdID-1905|22=4|38=350000|44=104|48=US29379VAW37|54=1|55=[N/A/]|63=3|67=1|29726=104.25|453=1|448=T2Kauaiblk2|447=C|452=11|10=212|8=FIX.4.4|9=708|35=E|34=76|49=T2Kauaiblk2|52=20210305-12:03:00.195|56=MA|66=ListID-050321-rodrigo-1906|394=2|68=5|73=5|11=ClOrdID-1907|22=4|38=100000|44=100|48=US06051GEN51|54=1|55=[N/A/]|63=3|67=1|423=1|29726=100.25|453=1|448=T2Kauaiblk2|447=C|452=11|11=ClOrdID-1908|22=4|38=100000|44=101|48=US40434AAB52|54=1|55=[N/A]|63=3|67=2|29726=101.25|11=ClOrdID-1909|22=4|38=130000|44=102|48=US95709TAH32|54=1|55=[N/A/]|63=3|67=1|29726=102.25|453=1|448=T2Kauaiblk2|447=C|452=11|11=ClOrdID-1910|22=4|38=250000|44=103|48=US427866AZ15|54=1|55=[N/A/]|63=3|67=1|29726=103.25|453=1|448=T2Kauaiblk2|447=C|452=11|11=ClOrdID-1911|22=4|38=350000|44=104|48=US29379VAW37|54=1|55=[N/A/]|63=3|67=1|29726=104.25|453=1|448=T2Kauaiblk2|447=C|452=11|10=218|8=FIX.4.4|9=708|35=E|34=77|49=T2Kauaiblk2|52=20210305-12:03:00.428|56=MA|66=ListID-050321-rodrigo-1912|394=2|68=5|73=5|11=ClOrdID-1913|22=4|38=100000|44=100|48=US06051GEN51|54=1|55=[N/A/]|63=3|67=1|423=1|29726=100.25|453=1|448=T2Kauaiblk2|447=C|452=11|11=ClOrdID-1914|22=4|38=100000|44=101|48=US40434AAB52|54=1|55=[N/A]|63=3|67=2|29726=101.25|11=ClOrdID-1915|22=4|38=130000|44=102|48=US95709TAH32|54=1|55=[N/A/]|63=3|67=1|29726=102.25|453=1|448=T2Kauaiblk2|447=C|452=11|11=ClOrdID-1916|22=4|38=250000|44=103|48=US427866AZ15|54=1|55=[N/A/]|63=3|67=1|29726=103.25|453=1|448=T2Kauaiblk2|447=C|452=11|11=ClOrdID-1917|22=4|38=350000|44=104|48=US29379VAW37|54=1|55=[N/A/]|63=3|67=1|29726=104.25|453=1|448=T2Kauaiblk2|447=C|452=11|10=218|8=FIX.4.4|9=708|35=E|34=78|49=T2Kauaiblk2|52=20210305-12:03:01.006|56=MA|66=ListID-050321-rodrigo-1918|394=2|68=5|73=5|11=ClOrdID-1919|22=4|38=100000|44=100|48=US06051GEN51|54=1|55=[N/A/]|63=3|67=1|423=1|29726=100.25|453=1|448=T2Kauaiblk2|447=C|452=11|11=ClOrdID-1920|22=4|38=100000|44=101|48=US40434AAB52|54=1|55=[N/A]|63=3|67=2|29726=101.25|11=ClOrdID-1921|22=4|38=130000|44=102|48=US95709TAH32|54=1|55=[N/A/]|63=3|67=1|29726=102.25|453=1|448=T2Kauaiblk2|447=C|452=11|11=ClOrdID-1922|22=4|38=250000|44=103|48=US427866AZ15|54=1|55=[N/A/]|63=3|67=1|29726=103.25|453=1|448=T2Kauaiblk2|447=C|452=11|11=ClOrdID-1923|22=4|38=350000|44=104|48=US29379VAW37|54=1|55=[N/A/]|63=3|67=1|29726=104.25|453=1|448=T2Kauaiblk2|447=C|452=11|10=212|8=FIX.4.4|9=708|35=E|34=79|49=T2Kauaiblk2|52=20210305-12:03:01.678|56=MA|66=ListID-050321-rodrigo-1924|394=2|68=5|73=5|11=ClOrdID-1925|22=4|38=100000|44=100|48=US06051GEN51|54=1|55=[N/A/]|63=3|67=1|423=1|29726=100.25|453=1|448=T2Kauaiblk2|447=C|452=11|11=ClOrdID-1926|22=4|38=100000|44=101|48=US40434AAB52|54=1|55=[N/A]|63=3|67=2|29726=101.25|11=ClOrdID-1927|22=4|38=130000|44=102|48=US95709TAH32|54=1|55=[N/A/]|63=3|67=1|29726=102.25|453=1|448=T2Kauaiblk2|447=C|452=11|11=ClOrdID-1928|22=4|38=250000|44=103|48=US427866AZ15|54=1|55=[N/A/]|63=3|67=1|29726=103.25|453=1|448=T2Kauaiblk2|447=C|452=11|11=ClOrdID-1929|22=4|38=350000|44=104|48=US29379VAW37|54=1|55=[N/A/]|63=3|67=1|29726=104.25|453=1|448=T2Kauaiblk2|447=C|452=11|10=246|8=FIX.4.4|9=708|35=E|34=80|49=T2Kauaiblk2|52=20210305-12:03:01.910|56=MA|66=ListID-050321-rodrigo-1930|394=2|68=5|73=5|11=ClOrdID-1931|22=4|38=100000|44=100|48=US06051GEN51|54=1|55=[N/A/]|63=3|67=1|423=1|29726=100.25|453=1|448=T2Kauaiblk2|447=C|452=11|11=ClOrdID-1932|22=4|38=100000|44=101|48=US40434AAB52|54=1|55=[N/A]|63=3|67=2|29726=101.25|11=ClOrdID-1933|22=4|38=130000|44=102|48=US95709TAH32|54=1|55=[N/A/]|63=3|67=1|29726=102.25|453=1|448=T2Kauaiblk2|447=C|452=11|11=ClOrdID-1934|22=4|38=250000|44=103|48=US427866AZ15|54=1|55=[N/A/]|63=3|67=1|29726=103.25|453=1|448=T2Kauaiblk2|447=C|452=11|11=ClOrdID-1935|22=4|38=350000|44=104|48=US29379VAW37|54=1|55=[N/A/]|63=3|67=1|29726=104.25|453=1|448=T2Kauaiblk2|447=C|452=11|10=209|8=FIX.4.4|9=708|35=E|34=81|49=T2Kauaiblk2|52=20210305-12:03:02.551|56=MA|66=ListID-050321-rodrigo-1936|394=2|68=5|73=5|11=ClOrdID-1937|22=4|38=100000|44=100|48=US06051GEN51|54=1|55=[N/A/]|63=3|67=1|423=1|29726=100.25|453=1|448=T2Kauaiblk2|447=C|452=11|11=ClOrdID-1938|22=4|38=100000|44=101|48=US40434AAB52|54=1|55=[N/A]|63=3|67=2|29726=101.25|11=ClOrdID-1939|22=4|38=130000|44=102|48=US95709TAH32|54=1|55=[N/A/]|63=3|67=1|29726=102.25|453=1|448=T2Kauaiblk2|447=C|452=11|11=ClOrdID-1940|22=4|38=250000|44=103|48=US427866AZ15|54=1|55=[N/A/]|63=3|67=1|29726=103.25|453=1|448=T2Kauaiblk2|447=C|452=11|11=ClOrdID-1941|22=4|38=350000|44=104|48=US29379VAW37|54=1|55=[N/A/]|63=3|67=1|29726=104.25|453=1|448=T2Kauaiblk2|447=C|452=11|10=230|8=FIX.4.4|9=708|35=E|34=82|49=T2Kauaiblk2|52=20210305-12:03:03.178|56=MA|66=ListID-050321-rodrigo-1942|394=2|68=5|73=5|11=ClOrdID-1943|22=4|38=100000|44=100|48=US06051GEN51|54=1|55=[N/A/]|63=3|67=1|423=1|29726=100.25|453=1|448=T2Kauaiblk2|447=C|452=11|11=ClOrdID-1944|22=4|38=100000|44=101|48=US40434AAB52|54=1|55=[N/A]|63=3|67=2|29726=101.25|11=ClOrdID-1945|22=4|38=130000|44=102|48=US95709TAH32|54=1|55=[N/A/]|63=3|67=1|29726=102.25|453=1|448=T2Kauaiblk2|447=C|452=11|11=ClOrdID-1946|22=4|38=250000|44=103|48=US427866AZ15|54=1|55=[N/A/]|63=3|67=1|29726=103.25|453=1|448=T2Kauaiblk2|447=C|452=11|11=ClOrdID-1947|22=4|38=350000|44=104|48=US29379VAW37|54=1|55=[N/A/]|63=3|67=1|29726=104.25|453=1|448=T2Kauaiblk2|447=C|452=11|10=237|8=FIX.4.4|9=57|35=0|34=83|49=T2Kauaiblk2|52=20210305-12:04:33.563|56=MA|10=116|8=FIX.4.4|9=57|35=0|34=84|49=T2Kauaiblk2|52=20210305-12:06:03.909|56=MA|10=120|8=FIX.4.4|9=57|35=0|34=85|49=T2Kauaiblk2|52=20210305-12:07:33.909|56=MA|10=125|8=FIX.4.4|9=57|35=0|34=86|49=T2Kauaiblk2|52=20210305-12:09:03.910|56=MA|10=117|8=FIX.4.4|9=57|35=0|34=87|49=T2Kauaiblk2|52=20210305-12:10:34.911|56=MA|10=115|8=FIX.4.4|9=57|35=0|34=88|49=T2Kauaiblk2|52=20210305-12:12:05.909|56=MA|10=123|8=FIX.4.4|9=57|35=0|34=89|49=T2Kauaiblk2|52=20210305-12:13:35.910|56=MA|10=120|8=FIX.4.4|9=57|35=0|34=90|49=T2Kauaiblk2|52=20210305-12:15:05.910|56=MA|10=111|8=FIX.4.4|9=57|35=0|34=91|49=T2Kauaiblk2|52=20210305-12:16:35.911|56=MA|10=117|8=FIX.4.4|9=57|35=0|34=92|49=T2Kauaiblk2|52=20210305-12:18:06.910|56=MA|10=117|8=FIX.4.4|9=57|35=0|34=93|49=T2Kauaiblk2|52=20210305-12:19:36.910|56=MA|10=122|8=FIX.4.4|9=57|35=0|34=94|49=T2Kauaiblk2|52=20210305-12:21:06.910|56=MA|10=113|8=FIX.4.4|9=57|35=0|34=95|49=T2Kauaiblk2|52=20210305-12:22:36.910|56=MA|10=118|8=FIX.4.4|9=57|35=0|34=96|49=T2Kauaiblk2|52=20210305-12:24:06.910|56=MA|10=118|8=FIX.4.4|9=57|35=0|34=97|49=T2Kauaiblk2|52=20210305-12:25:36.911|56=MA|10=124|8=FIX.4.4|9=57|35=0|34=98|49=T2Kauaiblk2|52=20210305-12:27:06.911|56=MA|10=124|8=FIX.4.4|9=57|35=0|34=99|49=T2Kauaiblk2|52=20210305-12:28:37.910|56=MA|10=129|8=FIX.4.4|9=58|35=0|34=100|49=T2Kauaiblk2|52=20210305-12:30:07.911|56=MA|10=152|8=FIX.4.4|9=58|35=0|34=101|49=T2Kauaiblk2|52=20210305-12:31:38.910|56=MA|10=157|8=FIX.4.4|9=58|35=0|34=102|49=T2Kauaiblk2|52=20210305-12:33:08.910|56=MA|10=157|8=FIX.4.4|9=58|35=0|34=103|49=T2Kauaiblk2|52=20210305-12:34:38.910|56=MA|10=162|8=FIX.4.4|9=58|35=0|34=104|49=T2Kauaiblk2|52=20210305-12:36:08.910|56=MA|10=162|8=FIX.4.4|9=58|35=0|34=105|49=T2Kauaiblk2|52=20210305-12:37:38.911|56=MA|10=168|8=FIX.4.4|9=58|35=0|34=106|49=T2Kauaiblk2|52=20210305-12:39:09.911|56=MA|10=169|8=FIX.4.4|9=58|35=0|34=107|49=T2Kauaiblk2|52=20210305-12:40:39.911|56=MA|10=165|8=FIX.4.4|9=58|35=0|34=108|49=T2Kauaiblk2|52=20210305-12:42:10.911|56=MA|10=157|8=FIX.4.4|9=58|35=0|34=109|49=T2Kauaiblk2|52=20210305-12:43:40.911|56=MA|10=162|8=FIX.4.4|9=58|35=0|34=110|49=T2Kauaiblk2|52=20210305-12:45:11.910|56=MA|10=153|8=FIX.4.4|9=58|35=0|34=111|49=T2Kauaiblk2|52=20210305-12:46:41.910|56=MA|10=158|8=FIX.4.4|9=58|35=0|34=112|49=T2Kauaiblk2|52=20210305-12:48:11.911|56=MA|10=159|8=FIX.4.4|9=58|35=0|34=113|49=T2Kauaiblk2|52=20210305-12:49:41.911|56=MA|10=164|8=FIX.4.4|9=58|35=0|34=114|49=T2Kauaiblk2|52=20210305-12:51:12.910|56=MA|10=155|8=FIX.4.4|9=58|35=0|34=115|49=T2Kauaiblk2|52=20210305-12:52:42.910|56=MA|10=160|8=FIX.4.4|9=58|35=0|34=116|49=T2Kauaiblk2|52=20210305-12:54:12.911|56=MA|10=161|8=FIX.4.4|9=58|35=0|34=117|49=T2Kauaiblk2|52=20210305-12:55:42.911|56=MA|10=166|8=FIX.4.4|9=58|35=0|34=118|49=T2Kauaiblk2|52=20210305-12:57:12.911|56=MA|10=166|8=FIX.4.4|9=58|35=0|34=119|49=T2Kauaiblk2|52=20210305-12:58:42.912|56=MA|10=172|8=FIX.4.4|9=58|35=0|34=120|49=T2Kauaiblk2|52=20210305-13:00:12.912|56=MA|10=149|8=FIX.4.4|9=58|35=0|34=121|49=T2Kauaiblk2|52=20210305-13:01:42.912|56=MA|10=154|8=FIX.4.4|9=58|35=0|34=122|49=T2Kauaiblk2|52=20210305-13:03:12.913|56=MA|10=155|8=FIX.4.4|9=58|35=0|34=123|49=T2Kauaiblk2|52=20210305-13:04:42.913|56=MA|10=160|8=FIX.4.4|9=58|35=0|34=124|49=T2Kauaiblk2|52=20210305-13:06:12.913|56=MA|10=160|8=FIX.4.4|9=58|35=0|34=125|49=T2Kauaiblk2|52=20210305-13:07:42.914|56=MA|10=166|8=FIX.4.4|9=58|35=0|34=126|49=T2Kauaiblk2|52=20210305-13:09:13.914|56=MA|10=167|8=FIX.4.4|9=58|35=0|34=127|49=T2Kauaiblk2|52=20210305-13:10:43.915|56=MA|10=164|8=FIX.4.4|9=58|35=0|34=128|49=T2Kauaiblk2|52=20210305-13:12:14.914|56=MA|10=164|8=FIX.4.4|9=58|35=0|34=129|49=T2Kauaiblk2|52=20210305-13:13:44.914|56=MA|10=169|8=FIX.4.4|9=58|35=0|34=130|49=T2Kauaiblk2|52=20210305-13:15:14.915|56=MA|10=161|8=FIX.4.4|9=58|35=0|34=131|49=T2Kauaiblk2|52=20210305-13:16:45.915|56=MA|10=167|8=FIX.4.4|9=58|35=0|34=132|49=T2Kauaiblk2|52=20210305-13:18:16.914|56=MA|10=167|8=FIX.4.4|9=58|35=0|34=133|49=T2Kauaiblk2|52=20210305-13:19:46.914|56=MA|10=172|8=FIX.4.4|9=58|35=0|34=134|49=T2Kauaiblk2|52=20210305-13:21:16.914|56=MA|10=163|8=FIX.4.4|9=58|35=0|34=135|49=T2Kauaiblk2|52=20210305-13:22:46.916|56=MA|10=170|8=FIX.4.4|9=58|35=0|34=136|49=T2Kauaiblk2|52=20210305-13:24:16.916|56=MA|10=170|8=FIX.4.4|9=58|35=0|34=137|49=T2Kauaiblk2|52=20210305-13:25:46.916|56=MA|10=175|8=FIX.4.4|9=58|35=0|34=138|49=T2Kauaiblk2|52=20210305-13:27:17.914|56=MA|10=174|8=FIX.4.4|9=58|35=0|34=139|49=T2Kauaiblk2|52=20210305-13:28:47.916|56=MA|10=181|8=FIX.4.4|9=58|35=0|34=140|49=T2Kauaiblk2|52=20210305-13:30:17.916|56=MA|10=163|8=FIX.4.4|9=58|35=0|34=141|49=T2Kauaiblk2|52=20210305-13:31:47.917|56=MA|10=169|8=FIX.4.4|9=58|35=0|34=142|49=T2Kauaiblk2|52=20210305-13:33:17.918|56=MA|10=170|8=FIX.4.4|9=58|35=0|34=143|49=T2Kauaiblk2|52=20210305-13:34:47.918|56=MA|10=175|8=FIX.4.4|9=58|35=0|34=144|49=T2Kauaiblk2|52=20210305-13:36:17.920|56=MA|10=168|8=FIX.4.4|9=58|35=0|34=145|49=T2Kauaiblk2|52=20210305-13:37:47.920|56=MA|10=173|8=FIX.4.4|9=58|35=0|34=146|49=T2Kauaiblk2|52=20210305-13:39:17.921|56=MA|10=174|8=FIX.4.4|9=58|35=0|34=147|49=T2Kauaiblk2|52=20210305-13:40:48.920|56=MA|10=170|8=FIX.4.4|9=58|35=0|34=148|49=T2Kauaiblk2|52=20210305-13:42:18.922|56=MA|10=172|8=FIX.4.4|9=58|35=0|34=149|49=T2Kauaiblk2|52=20210305-13:43:49.923|56=MA|10=179|8=FIX.4.4|9=58|35=0|34=150|49=T2Kauaiblk2|52=20210305-13:45:20.922|56=MA|10=161|8=FIX.4.4|9=58|35=0|34=151|49=T2Kauaiblk2|52=20210305-13:46:50.922|56=MA|10=166|8=FIX.4.4|9=58|35=0|34=152|49=T2Kauaiblk2|52=20210305-13:48:20.922|56=MA|10=166|8=FIX.4.4|9=58|35=0|34=153|49=T2Kauaiblk2|52=20210305-13:49:50.923|56=MA|10=172|8=FIX.4.4|9=58|35=0|34=154|49=T2Kauaiblk2|52=20210305-13:51:21.923|56=MA|10=164|8=FIX.4.4|9=58|35=0|34=155|49=T2Kauaiblk2|52=20210305-13:52:51.923|56=MA|10=169|8=FIX.4.4|9=58|35=0|34=156|49=T2Kauaiblk2|52=20210305-13:54:21.923|56=MA|10=169|8=FIX.4.4|9=58|35=0|34=157|49=T2Kauaiblk2|52=20210305-13:55:51.924|56=MA|10=175|8=FIX.4.4|9=58|35=0|34=158|49=T2Kauaiblk2|52=20210305-13:57:22.923|56=MA|10=175|8=FIX.4.4|9=58|35=0|34=159|49=T2Kauaiblk2|52=20210305-13:58:52.923|56=MA|10=180|8=FIX.4.4|9=58|35=0|34=160|49=T2Kauaiblk2|52=20210305-14:00:22.924|56=MA|10=158|8=FIX.4.4|9=58|35=0|34=161|49=T2Kauaiblk2|52=20210305-14:01:52.925|56=MA|10=164|8=FIX.4.4|9=58|35=0|34=162|49=T2Kauaiblk2|52=20210305-14:03:22.925|56=MA|10=164|8=FIX.4.4|9=58|35=0|34=163|49=T2Kauaiblk2|52=20210305-14:04:52.927|56=MA|10=171|8=FIX.4.4|9=58|35=0|34=164|49=T2Kauaiblk2|52=20210305-14:06:22.928|56=MA|10=172|8=FIX.4.4|9=58|35=0|34=165|49=T2Kauaiblk2|52=20210305-14:07:53.927|56=MA|10=177|8=FIX.4.4|9=709|35=E|34=166|49=T2Kauaiblk2|52=20210305-14:08:38.771|56=MA|66=ListID-050321-rodrigo-1948|394=2|68=5|73=5|11=ClOrdID-1949|22=4|38=100000|44=100|48=US06051GEN51|54=1|55=[N/A/]|63=3|67=1|423=1|29726=100.25|453=1|448=T2Kauaiblk2|447=C|452=11|11=ClOrdID-1950|22=4|38=100000|44=101|48=US40434AAB52|54=1|55=[N/A]|63=3|67=2|29726=101.25|11=ClOrdID-1951|22=4|38=130000|44=102|48=US95709TAH32|54=1|55=[N/A/]|63=3|67=1|29726=102.25|453=1|448=T2Kauaiblk2|447=C|452=11|11=ClOrdID-1952|22=4|38=250000|44=103|48=US427866AZ15|54=1|55=[N/A/]|63=3|67=1|29726=103.25|453=1|448=T2Kauaiblk2|447=C|452=11|11=ClOrdID-1953|22=4|38=350000|44=104|48=US29379VAW37|54=1|55=[N/A/]|63=3|67=1|29726=104.25|453=1|448=T2Kauaiblk2|447=C|452=11|10=047|8=FIX.4.4|9=709|35=E|34=167|49=T2Kauaiblk2|52=20210305-14:08:39.648|56=MA|66=ListID-050321-rodrigo-1954|394=2|68=5|73=5|11=ClOrdID-1955|22=4|38=100000|44=100|48=US06051GEN51|54=1|55=[N/A/]|63=3|67=1|423=1|29726=100.25|453=1|448=T2Kauaiblk2|447=C|452=11|11=ClOrdID-1956|22=4|38=100000|44=101|48=US40434AAB52|54=1|55=[N/A]|63=3|67=2|29726=101.25|11=ClOrdID-1957|22=4|38=130000|44=102|48=US95709TAH32|54=1|55=[N/A/]|63=3|67=1|29726=102.25|453=1|448=T2Kauaiblk2|447=C|452=11|11=ClOrdID-1958|22=4|38=250000|44=103|48=US427866AZ15|54=1|55=[N/A/]|63=3|67=1|29726=103.25|453=1|448=T2Kauaiblk2|447=C|452=11|11=ClOrdID-1959|22=4|38=350000|44=104|48=US29379VAW37|54=1|55=[N/A/]|63=3|67=1|29726=104.25|453=1|448=T2Kauaiblk2|447=C|452=11|10=070|8=FIX.4.4|9=709|35=E|34=168|49=T2Kauaiblk2|52=20210305-14:08:40.387|56=MA|66=ListID-050321-rodrigo-1960|394=2|68=5|73=5|11=ClOrdID-1961|22=4|38=100000|44=100|48=US06051GEN51|54=1|55=[N/A/]|63=3|67=1|423=1|29726=100.25|453=1|448=T2Kauaiblk2|447=C|452=11|11=ClOrdID-1962|22=4|38=100000|44=101|48=US40434AAB52|54=1|55=[N/A]|63=3|67=2|29726=101.25|11=ClOrdID-1963|22=4|38=130000|44=102|48=US95709TAH32|54=1|55=[N/A/]|63=3|67=1|29726=102.25|453=1|448=T2Kauaiblk2|447=C|452=11|11=ClOrdID-1964|22=4|38=250000|44=103|48=US427866AZ15|54=1|55=[N/A/]|63=3|67=1|29726=103.25|453=1|448=T2Kauaiblk2|447=C|452=11|11=ClOrdID-1965|22=4|38=350000|44=104|48=US29379VAW37|54=1|55=[N/A/]|63=3|67=1|29726=104.25|453=1|448=T2Kauaiblk2|447=C|452=11|10=045|8=FIX.4.4|9=709|35=E|34=169|49=T2Kauaiblk2|52=20210305-14:08:41.045|56=MA|66=ListID-050321-rodrigo-1966|394=2|68=5|73=5|11=ClOrdID-1967|22=4|38=100000|44=100|48=US06051GEN51|54=1|55=[N/A/]|63=3|67=1|423=1|29726=100.25|453=1|448=T2Kauaiblk2|447=C|452=11|11=ClOrdID-1968|22=4|38=100000|44=101|48=US40434AAB52|54=1|55=[N/A]|63=3|67=2|29726=101.25|11=ClOrdID-1969|22=4|38=130000|44=102|48=US95709TAH32|54=1|55=[N/A/]|63=3|67=1|29726=102.25|453=1|448=T2Kauaiblk2|447=C|452=11|11=ClOrdID-1970|22=4|38=250000|44=103|48=US427866AZ15|54=1|55=[N/A/]|63=3|67=1|29726=103.25|453=1|448=T2Kauaiblk2|447=C|452=11|11=ClOrdID-1971|22=4|38=350000|44=104|48=US29379VAW37|54=1|55=[N/A/]|63=3|67=1|29726=104.25|453=1|448=T2Kauaiblk2|447=C|452=11|10=056|8=FIX.4.4|9=709|35=E|34=170|49=T2Kauaiblk2|52=20210305-14:08:41.281|56=MA|66=ListID-050321-rodrigo-1972|394=2|68=5|73=5|11=ClOrdID-1973|22=4|38=100000|44=100|48=US06051GEN51|54=1|55=[N/A/]|63=3|67=1|423=1|29726=100.25|453=1|448=T2Kauaiblk2|447=C|452=11|11=ClOrdID-1974|22=4|38=100000|44=101|48=US40434AAB52|54=1|55=[N/A]|63=3|67=2|29726=101.25|11=ClOrdID-1975|22=4|38=130000|44=102|48=US95709TAH32|54=1|55=[N/A/]|63=3|67=1|29726=102.25|453=1|448=T2Kauaiblk2|447=C|452=11|11=ClOrdID-1976|22=4|38=250000|44=103|48=US427866AZ15|54=1|55=[N/A/]|63=3|67=1|29726=103.25|453=1|448=T2Kauaiblk2|447=C|452=11|11=ClOrdID-1977|22=4|38=350000|44=104|48=US29379VAW37|54=1|55=[N/A/]|63=3|67=1|29726=104.25|453=1|448=T2Kauaiblk2|447=C|452=11|10=050|8=FIX.4.4|9=709|35=E|34=171|49=T2Kauaiblk2|52=20210305-14:08:41.881|56=MA|66=ListID-050321-rodrigo-1978|394=2|68=5|73=5|11=ClOrdID-1979|22=4|38=100000|44=100|48=US06051GEN51|54=1|55=[N/A/]|63=3|67=1|423=1|29726=100.25|453=1|448=T2Kauaiblk2|447=C|452=11|11=ClOrdID-1980|22=4|38=100000|44=101|48=US40434AAB52|54=1|55=[N/A]|63=3|67=2|29726=101.25|11=ClOrdID-1981|22=4|38=130000|44=102|48=US95709TAH32|54=1|55=[N/A/]|63=3|67=1|29726=102.25|453=1|448=T2Kauaiblk2|447=C|452=11|11=ClOrdID-1982|22=4|38=250000|44=103|48=US427866AZ15|54=1|55=[N/A/]|63=3|67=1|29726=103.25|453=1|448=T2Kauaiblk2|447=C|452=11|11=ClOrdID-1983|22=4|38=350000|44=104|48=US29379VAW37|54=1|55=[N/A/]|63=3|67=1|29726=104.25|453=1|448=T2Kauaiblk2|447=C|452=11|10=057|8=FIX.4.4|9=709|35=E|34=172|49=T2Kauaiblk2|52=20210305-14:08:42.066|56=MA|66=ListID-050321-rodrigo-1984|394=2|68=5|73=5|11=ClOrdID-1985|22=4|38=100000|44=100|48=US06051GEN51|54=1|55=[N/A/]|63=3|67=1|423=1|29726=100.25|453=1|448=T2Kauaiblk2|447=C|452=11|11=ClOrdID-1986|22=4|38=100000|44=101|48=US40434AAB52|54=1|55=[N/A]|63=3|67=2|29726=101.25|11=ClOrdID-1987|22=4|38=130000|44=102|48=US95709TAH32|54=1|55=[N/A/]|63=3|67=1|29726=102.25|453=1|448=T2Kauaiblk2|447=C|452=11|11=ClOrdID-1988|22=4|38=250000|44=103|48=US427866AZ15|54=1|55=[N/A/]|63=3|67=1|29726=103.25|453=1|448=T2Kauaiblk2|447=C|452=11|11=ClOrdID-1989|22=4|38=350000|44=104|48=US29379VAW37|54=1|55=[N/A/]|63=3|67=1|29726=104.25|453=1|448=T2Kauaiblk2|447=C|452=11|10=072|8=FIX.4.4|9=58|35=0|34=173|49=T2Kauaiblk2|52=20210305-14:10:12.929|56=MA|10=167|8=FIX.4.4|9=58|35=0|34=174|49=T2Kauaiblk2|52=20210305-14:11:42.930|56=MA|10=164|8=FIX.4.4|9=58|35=0|34=175|49=T2Kauaiblk2|52=20210305-14:13:12.930|56=MA|10=164|8=FIX.4.4|9=58|35=0|34=176|49=T2Kauaiblk2|52=20210305-14:14:42.931|56=MA|10=170|8=FIX.4.4|9=58|35=0|34=177|49=T2Kauaiblk2|52=20210305-14:16:12.931|56=MA|10=170|8=FIX.4.4|9=58|35=0|34=178|49=T2Kauaiblk2|52=20210305-14:17:42.931|56=MA|10=175|8=FIX.4.4|9=58|35=0|34=179|49=T2Kauaiblk2|52=20210305-14:19:12.932|56=MA|10=176|8=FIX.4.4|9=58|35=0|34=180|49=T2Kauaiblk2|52=20210305-14:20:42.933|56=MA|10=164|8=FIX.4.4|9=58|35=0|34=181|49=T2Kauaiblk2|52=20210305-14:22:13.932|56=MA|10=164|8=FIX.4.4|9=58|35=0|34=182|49=T2Kauaiblk2|52=20210305-14:23:43.933|56=MA|10=170|8=FIX.4.4|9=58|35=0|34=183|49=T2Kauaiblk2|52=20210305-14:25:14.933|56=MA|10=171|8=FIX.4.4|9=58|35=0|34=184|49=T2Kauaiblk2|52=20210305-14:26:44.934|56=MA|10=177|8=FIX.4.4|9=58|35=0|34=185|49=T2Kauaiblk2|52=20210305-14:28:15.932|56=MA|10=176|8=FIX.4.4|9=58|35=0|34=186|49=T2Kauaiblk2|52=20210305-14:29:45.934|56=MA|10=183|8=FIX.4.4|9=58|35=0|34=187|49=T2Kauaiblk2|52=20210305-14:31:16.932|56=MA|10=173|8=FIX.4.4|9=58|35=0|34=188|49=T2Kauaiblk2|52=20210305-14:32:46.934|56=MA|10=180|8=FIX.4.4|9=58|35=0|34=189|49=T2Kauaiblk2|52=20210305-14:34:16.934|56=MA|10=180|8=FIX.4.4|9=58|35=0|34=190|49=T2Kauaiblk2|52=20210305-14:35:46.934|56=MA|10=176|8=FIX.4.4|9=58|35=0|34=191|49=T2Kauaiblk2|52=20210305-14:37:16.934|56=MA|10=176|8=FIX.4.4|9=58|35=0|34=192|49=T2Kauaiblk2|52=20210305-14:38:46.934|56=MA|10=181|8=FIX.4.4|9=58|35=0|34=193|49=T2Kauaiblk2|52=20210305-14:40:16.935|56=MA|10=173|8=FIX.4.4|9=58|35=0|34=194|49=T2Kauaiblk2|52=20210305-14:41:47.933|56=MA|10=177|8=FIX.4.4|9=58|35=0|34=195|49=T2Kauaiblk2|52=20210305-14:43:17.933|56=MA|10=177|8=FIX.4.4|9=58|35=0|34=196|49=T2Kauaiblk2|52=20210305-14:44:47.935|56=MA|10=184|8=FIX.4.4|9=58|35=0|34=197|49=T2Kauaiblk2|52=20210305-14:46:18.935|56=MA|10=185|8=FIX.4.4|9=58|35=0|34=198|49=T2Kauaiblk2|52=20210305-14:47:49.935|56=MA|10=191|8=FIX.4.4|9=58|35=0|34=199|49=T2Kauaiblk2|52=20210305-14:49:20.935|56=MA|10=183|8=FIX.4.4|9=58|35=0|34=200|49=T2Kauaiblk2|52=20210305-14:50:51.934|56=MA|10=161|8=FIX.4.4|9=58|35=0|34=201|49=T2Kauaiblk2|52=20210305-14:52:22.934|56=MA|10=162|8=FIX.4.4|9=58|35=0|34=202|49=T2Kauaiblk2|52=20210305-14:53:52.934|56=MA|10=167|8=FIX.4.4|9=58|35=0|34=203|49=T2Kauaiblk2|52=20210305-14:55:22.935|56=MA|10=168|8=FIX.4.4|9=58|35=0|34=204|49=T2Kauaiblk2|52=20210305-14:56:53.934|56=MA|10=173|8=FIX.4.4|9=58|35=0|34=205|49=T2Kauaiblk2|52=20210305-14:58:23.934|56=MA|10=173|8=FIX.4.4|9=58|35=0|34=206|49=T2Kauaiblk2|52=20210305-14:59:53.935|56=MA|10=179|8=FIX.4.4|9=58|35=0|34=207|49=T2Kauaiblk2|52=20210305-15:01:23.936|56=MA|10=166|8=FIX.4.4|9=58|35=0|34=208|49=T2Kauaiblk2|52=20210305-15:02:54.934|56=MA|10=170|8=FIX.4.4|9=58|35=0|34=209|49=T2Kauaiblk2|52=20210305-15:04:24.934|56=MA|10=170|8=FIX.4.4|9=58|35=0|34=210|49=T2Kauaiblk2|52=20210305-15:05:54.934|56=MA|10=166|8=FIX.4.4|9=58|35=0|34=211|49=T2Kauaiblk2|52=20210305-15:07:24.935|56=MA|10=167|8=FIX.4.4|9=58|35=0|34=212|49=T2Kauaiblk2|52=20210305-15:08:55.934|56=MA|10=172|8=FIX.4.4|9=58|35=0|34=213|49=T2Kauaiblk2|52=20210305-15:10:25.935|56=MA|10=164|8=FIX.4.4|9=58|35=0|34=214|49=T2Kauaiblk2|52=20210305-15:11:55.938|56=MA|10=172|8=FIX.4.4|9=58|35=0|34=215|49=T2Kauaiblk2|52=20210305-15:13:26.937|56=MA|10=172|8=FIX.4.4|9=58|35=0|34=216|49=T2Kauaiblk2|52=20210305-15:14:56.940|56=MA|10=171|8=FIX.4.4|9=58|35=0|34=217|49=T2Kauaiblk2|52=20210305-15:16:27.939|56=MA|10=180|8=FIX.4.4|9=58|35=0|34=218|49=T2Kauaiblk2|52=20210305-15:17:57.940|56=MA|10=177|8=FIX.4.4|9=58|35=0|34=219|49=T2Kauaiblk2|52=20210305-15:19:27.940|56=MA|10=177|8=FIX.4.4|9=58|35=0|34=220|49=T2Kauaiblk2|52=20210305-15:20:57.941|56=MA|10=165|8=FIX.4.4|9=58|35=0|34=221|49=T2Kauaiblk2|52=20210305-15:22:27.942|56=MA|10=166|8=FIX.4.4|9=58|35=0|34=222|49=T2Kauaiblk2|52=20210305-15:23:57.942|56=MA|10=171|8=FIX.4.4|9=58|35=0|34=223|49=T2Kauaiblk2|52=20210305-15:25:27.945|56=MA|10=174|8=FIX.4.4|9=58|35=0|34=224|49=T2Kauaiblk2|52=20210305-15:26:57.945|56=MA|10=179|8=FIX.4.4|9=58|35=0|34=225|49=T2Kauaiblk2|52=20210305-15:28:27.945|56=MA|10=179|8=FIX.4.4|9=58|35=0|34=226|49=T2Kauaiblk2|52=20210305-15:29:57.946|56=MA|10=185|8=FIX.4.4|9=58|35=0|34=227|49=T2Kauaiblk2|52=20210305-15:31:27.946|56=MA|10=176|8=FIX.4.4|9=58|35=0|34=228|49=T2Kauaiblk2|52=20210305-15:32:57.946|56=MA|10=181|8=FIX.4.4|9=58|35=0|34=229|49=T2Kauaiblk2|52=20210305-15:34:27.947|56=MA|10=182|8=FIX.4.4|9=58|35=0|34=230|49=T2Kauaiblk2|52=20210305-15:35:57.947|56=MA|10=178|8=FIX.4.4|9=58|35=0|34=231|49=T2Kauaiblk2|52=20210305-15:37:28.945|56=MA|10=177|8=FIX.4.4|9=58|35=0|34=232|49=T2Kauaiblk2|52=20210305-15:38:58.945|56=MA|10=182|8=FIX.4.4|9=58|35=0|34=233|49=T2Kauaiblk2|52=20210305-15:40:28.948|56=MA|10=176|8=FIX.4.4|9=58|35=0|34=234|49=T2Kauaiblk2|52=20210305-15:41:59.946|56=MA|10=180|8=FIX.4.4|9=58|35=0|34=235|49=T2Kauaiblk2|52=20210305-15:43:29.948|56=MA|10=182|8=FIX.4.4|9=58|35=0|34=236|49=T2Kauaiblk2|52=20210305-15:45:00.947|56=MA|10=173|8=FIX.4.4|9=58|35=0|34=237|49=T2Kauaiblk2|52=20210305-15:46:31.947|56=MA|10=179|8=FIX.4.4|9=58|35=0|34=238|49=T2Kauaiblk2|52=20210305-15:48:02.947|56=MA|10=180|8=FIX.4.4|9=58|35=0|34=239|49=T2Kauaiblk2|52=20210305-15:49:32.947|56=MA|10=185|8=FIX.4.4|9=58|35=0|34=240|49=T2Kauaiblk2|52=20210305-15:51:02.947|56=MA|10=167|8=FIX.4.4|9=58|35=0|34=241|49=T2Kauaiblk2|52=20210305-15:52:32.947|56=MA|10=172|8=FIX.4.4|9=58|35=0|34=242|49=T2Kauaiblk2|52=20210305-15:54:02.947|56=MA|10=172|8=FIX.4.4|9=58|35=0|34=243|49=T2Kauaiblk2|52=20210305-15:55:32.947|56=MA|10=177|8=FIX.4.4|9=58|35=0|34=244|49=T2Kauaiblk2|52=20210305-15:57:02.949|56=MA|10=179|8=FIX.4.4|9=58|35=0|34=245|49=T2Kauaiblk2|52=20210305-15:58:33.949|56=MA|10=185|8=FIX.4.4|9=58|35=0|34=246|49=T2Kauaiblk2|52=20210305-16:00:04.949|56=MA|10=172|8=FIX.4.4|9=58|35=0|34=247|49=T2Kauaiblk2|52=20210305-16:01:34.949|56=MA|10=177|8=FIX.4.4|9=58|35=0|34=248|49=T2Kauaiblk2|52=20210305-16:03:04.949|56=MA|10=177|8=FIX.4.4|9=58|35=0|34=249|49=T2Kauaiblk2|52=20210305-16:04:34.949|56=MA|10=182|8=FIX.4.4|9=58|35=0|34=250|49=T2Kauaiblk2|52=20210305-16:06:05.949|56=MA|10=174|8=FIX.4.4|9=58|35=0|34=251|49=T2Kauaiblk2|52=20210305-16:07:35.949|56=MA|10=179|8=FIX.4.4|9=58|35=0|34=252|49=T2Kauaiblk2|52=20210305-16:09:05.949|56=MA|10=179|8=FIX.4.4|9=58|35=0|34=253|49=T2Kauaiblk2|52=20210305-16:10:36.947|56=MA|10=174|8=FIX.4.4|9=58|35=0|34=254|49=T2Kauaiblk2|52=20210305-16:12:06.948|56=MA|10=175|8=FIX.4.4|9=58|35=0|34=255|49=T2Kauaiblk2|52=20210305-16:13:36.948|56=MA|10=180|8=FIX.4.4|9=58|35=0|34=256|49=T2Kauaiblk2|52=20210305-16:15:06.949|56=MA|10=181|8=FIX.4.4|9=58|35=0|34=257|49=T2Kauaiblk2|52=20210305-16:16:36.949|56=MA|10=186|8=FIX.4.4|9=58|35=0|34=258|49=T2Kauaiblk2|52=20210305-16:18:07.948|56=MA|10=186|8=FIX.4.4|9=58|35=0|34=259|49=T2Kauaiblk2|52=20210305-16:19:37.949|56=MA|10=192|8=FIX.4.4|9=58|35=0|34=260|49=T2Kauaiblk2|52=20210305-16:21:07.952|56=MA|10=168|8=FIX.4.4|9=58|35=0|34=261|49=T2Kauaiblk2|52=20210305-16:22:37.952|56=MA|10=173|8=FIX.4.4|9=58|35=0|34=262|49=T2Kauaiblk2|52=20210305-16:24:07.955|56=MA|10=176|8=FIX.4.4|9=58|35=0|34=263|49=T2Kauaiblk2|52=20210305-16:25:37.956|56=MA|10=182|8=FIX.4.4|9=58|35=0|34=264|49=T2Kauaiblk2|52=20210305-16:27:08.955|56=MA|10=182|8=FIX.4.4|9=58|35=0|34=265|49=T2Kauaiblk2|52=20210305-16:28:38.956|56=MA|10=188|8=FIX.4.4|9=58|35=0|34=266|49=T2Kauaiblk2|52=20210305-16:30:08.956|56=MA|10=179|8=FIX.4.4|9=58|35=0|34=267|49=T2Kauaiblk2|52=20210305-16:31:38.957|56=MA|10=185|8=FIX.4.4|9=58|35=0|34=268|49=T2Kauaiblk2|52=20210305-16:33:08.959|56=MA|10=187|8=FIX.4.4|9=58|35=0|34=269|49=T2Kauaiblk2|52=20210305-16:34:38.960|56=MA|10=184|8=FIX.4.4|9=58|35=0|34=270|49=T2Kauaiblk2|52=20210305-16:36:09.958|56=MA|10=183|8=FIX.4.4|9=58|35=0|34=271|49=T2Kauaiblk2|52=20210305-16:37:39.959|56=MA|10=189|8=FIX.4.4|9=58|35=0|34=272|49=T2Kauaiblk2|52=20210305-16:39:09.961|56=MA|10=182|8=FIX.4.4|9=58|35=0|34=273|49=T2Kauaiblk2|52=20210305-16:40:40.960|56=MA|10=169|8=FIX.4.4|9=58|35=0|34=274|49=T2Kauaiblk2|52=20210305-16:42:10.960|56=MA|10=169|8=FIX.4.4|9=58|35=0|34=275|49=T2Kauaiblk2|52=20210305-16:43:40.960|56=MA|10=174|8=FIX.4.4|9=58|35=0|34=276|49=T2Kauaiblk2|52=20210305-16:45:10.961|56=MA|10=175|8=FIX.4.4|9=58|35=0|34=277|49=T2Kauaiblk2|52=20210305-16:46:40.961|56=MA|10=180|8=FIX.4.4|9=58|35=0|34=278|49=T2Kauaiblk2|52=20210305-16:48:10.962|56=MA|10=181|8=FIX.4.4|9=58|35=0|34=279|49=T2Kauaiblk2|52=20210305-16:49:40.963|56=MA|10=187|8=FIX.4.4|9=58|35=0|34=280|49=T2Kauaiblk2|52=20210305-16:51:11.962|56=MA|10=169|8=FIX.4.4|9=58|35=0|34=281|49=T2Kauaiblk2|52=20210305-16:52:41.963|56=MA|10=175|8=FIX.4.4|9=58|35=0|34=282|49=T2Kauaiblk2|52=20210305-16:54:12.963|56=MA|10=176|8=FIX.4.4|9=58|35=0|34=283|49=T2Kauaiblk2|52=20210305-16:55:42.963|56=MA|10=181|8=FIX.4.4|9=58|35=0|34=284|49=T2Kauaiblk2|52=20210305-16:57:12.964|56=MA|10=182|8=FIX.4.4|9=58|35=0|34=285|49=T2Kauaiblk2|52=20210305-16:58:43.962|56=MA|10=186|8=FIX.4.4|9=58|35=0|34=286|49=T2Kauaiblk2|52=20210305-17:00:13.964|56=MA|10=174|8=FIX.4.4|9=58|35=0|34=287|49=T2Kauaiblk2|52=20210305-17:01:44.963|56=MA|10=179|8=FIX.4.4|9=58|35=0|34=288|49=T2Kauaiblk2|52=20210305-17:03:14.963|56=MA|10=179|8=FIX.4.4|9=58|35=0|34=289|49=T2Kauaiblk2|52=20210305-17:04:45.962|56=MA|10=184|8=FIX.4.4|9=58|35=0|34=290|49=T2Kauaiblk2|52=20210305-17:06:15.963|56=MA|10=176|8=FIX.4.4|9=58|35=0|34=291|49=T2Kauaiblk2|52=20210305-17:07:45.965|56=MA|10=183|8=FIX.4.4|9=58|35=0|34=292|49=T2Kauaiblk2|52=20210305-17:09:16.964|56=MA|10=183|8=FIX.4.4|9=58|35=0|34=293|49=T2Kauaiblk2|52=20210305-17:10:47.963|56=MA|10=179|8=FIX.4.4|9=58|35=0|34=294|49=T2Kauaiblk2|52=20210305-17:12:17.964|56=MA|10=180|8=FIX.4.4|9=58|35=0|34=295|49=T2Kauaiblk2|52=20210305-17:13:47.965|56=MA|10=186|8=FIX.4.4|9=58|35=0|34=296|49=T2Kauaiblk2|52=20210305-17:15:17.965|56=MA|10=186|8=FIX.4.4|9=58|35=0|34=297|49=T2Kauaiblk2|52=20210305-17:16:48.963|56=MA|10=190|8=FIX.4.4|9=58|35=0|34=298|49=T2Kauaiblk2|52=20210305-17:18:18.964|56=MA|10=191|8=FIX.4.4|9=58|35=0|34=299|49=T2Kauaiblk2|52=20210305-17:19:49.965|56=MA|10=198|8=FIX.4.4|9=58|35=0|34=300|49=T2Kauaiblk2|52=20210305-17:21:19.965|56=MA|10=171|8=FIX.4.4|9=58|35=0|34=301|49=T2Kauaiblk2|52=20210305-17:22:50.964|56=MA|10=167|8=FIX.4.4|9=58|35=0|34=302|49=T2Kauaiblk2|52=20210305-17:24:21.964|56=MA|10=168|8=FIX.4.4|9=58|35=0|34=303|49=T2Kauaiblk2|52=20210305-17:25:51.965|56=MA|10=174|8=FIX.4.4|9=58|35=0|34=304|49=T2Kauaiblk2|52=20210305-17:27:22.966|56=MA|10=176|8=FIX.4.4|9=58|35=0|34=305|49=T2Kauaiblk2|52=20210305-17:28:53.966|56=MA|10=182|8=FIX.4.4|9=58|35=0|34=306|49=T2Kauaiblk2|52=20210305-17:30:23.967|56=MA|10=174|8=FIX.4.4|9=58|35=0|34=307|49=T2Kauaiblk2|52=20210305-17:31:53.967|56=MA|10=179|8=FIX.4.4|9=58|35=0|34=308|49=T2Kauaiblk2|52=20210305-17:33:23.967|56=MA|10=179|8=FIX.4.4|9=58|35=0|34=309|49=T2Kauaiblk2|52=20210305-17:34:53.969|56=MA|10=186|8=FIX.4.4|9=58|35=0|34=310|49=T2Kauaiblk2|52=20210305-17:36:23.969|56=MA|10=177|8=FIX.4.4|9=58|35=0|34=311|49=T2Kauaiblk2|52=20210305-17:37:53.969|56=MA|10=182|8=FIX.4.4|9=58|35=0|34=312|49=T2Kauaiblk2|52=20210305-17:39:23.970|56=MA|10=174|8=FIX.4.4|9=58|35=0|34=313|49=T2Kauaiblk2|52=20210305-17:40:53.971|56=MA|10=171|8=FIX.4.4|9=58|35=0|34=314|49=T2Kauaiblk2|52=20210305-17:42:24.971|56=MA|10=172|8=FIX.4.4|9=58|35=0|34=315|49=T2Kauaiblk2|52=20210305-17:43:55.970|56=MA|10=177|8=FIX.4.4|9=76|35=5|34=316|49=T2Kauaiblk2|52=20210305-17:45:02.972|56=MA|58=user requested|10=015|8=FIX.4.4|9=91|35=A|34=1|49=T2Kauaiblk2|52=20210308-09:57:11.193|56=MA|98=0|108=90|95=8|96=3.0.0rc5|141=Y|10=043|8=FIX.4.4|9=699|35=E|34=2|49=T2Kauaiblk2|52=20210308-09:57:26.113|56=MA|66=ListID-080321-1990|394=2|68=5|73=5|11=ClOrdID-1991|22=4|38=100000|44=100|48=US06051GEN51|54=1|55=[N/A/]|63=3|67=1|423=1|29726=100.25|453=1|448=T2Kauaiblk2|447=C|452=11|11=ClOrdID-1992|22=4|38=100000|44=101|48=US40434AAB52|54=1|55=[N/A]|63=3|67=2|29726=101.25|11=ClOrdID-1993|22=4|38=130000|44=102|48=US95709TAH32|54=1|55=[N/A/]|63=3|67=1|29726=102.25|453=1|448=T2Kauaiblk2|447=C|452=11|11=ClOrdID-1994|22=4|38=250000|44=103|48=US427866AZ15|54=1|55=[N/A/]|63=3|67=1|29726=103.25|453=1|448=T2Kauaiblk2|447=C|452=11|11=ClOrdID-1995|22=4|38=350000|44=104|48=US29379VAW37|54=1|55=[N/A/]|63=3|67=1|29726=104.25|453=1|448=T2Kauaiblk2|447=C|452=11|10=188|8=FIX.4.4|9=699|35=E|34=3|49=T2Kauaiblk2|52=20210308-09:57:26.632|56=MA|66=ListID-080321-1996|394=2|68=5|73=5|11=ClOrdID-1997|22=4|38=100000|44=100|48=US06051GEN51|54=1|55=[N/A/]|63=3|67=1|423=1|29726=100.25|453=1|448=T2Kauaiblk2|447=C|452=11|11=ClOrdID-1998|22=4|38=100000|44=101|48=US40434AAB52|54=1|55=[N/A]|63=3|67=2|29726=101.25|11=ClOrdID-1999|22=4|38=130000|44=102|48=US95709TAH32|54=1|55=[N/A/]|63=3|67=1|29726=102.25|453=1|448=T2Kauaiblk2|447=C|452=11|11=ClOrdID-2000|22=4|38=250000|44=103|48=US427866AZ15|54=1|55=[N/A/]|63=3|67=1|29726=103.25|453=1|448=T2Kauaiblk2|447=C|452=11|11=ClOrdID-2001|22=4|38=350000|44=104|48=US29379VAW37|54=1|55=[N/A/]|63=3|67=1|29726=104.25|453=1|448=T2Kauaiblk2|447=C|452=11|10=177|8=FIX.4.4|9=699|35=E|34=4|49=T2Kauaiblk2|52=20210308-09:57:27.241|56=MA|66=ListID-080321-2002|394=2|68=5|73=5|11=ClOrdID-2003|22=4|38=100000|44=100|48=US06051GEN51|54=1|55=[N/A/]|63=3|67=1|423=1|29726=100.25|453=1|448=T2Kauaiblk2|447=C|452=11|11=ClOrdID-2004|22=4|38=100000|44=101|48=US40434AAB52|54=1|55=[N/A]|63=3|67=2|29726=101.25|11=ClOrdID-2005|22=4|38=130000|44=102|48=US95709TAH32|54=1|55=[N/A/]|63=3|67=1|29726=102.25|453=1|448=T2Kauaiblk2|447=C|452=11|11=ClOrdID-2006|22=4|38=250000|44=103|48=US427866AZ15|54=1|55=[N/A/]|63=3|67=1|29726=103.25|453=1|448=T2Kauaiblk2|447=C|452=11|11=ClOrdID-2007|22=4|38=350000|44=104|48=US29379VAW37|54=1|55=[N/A/]|63=3|67=1|29726=104.25|453=1|448=T2Kauaiblk2|447=C|452=11|10=103|8=FIX.4.4|9=699|35=E|34=5|49=T2Kauaiblk2|52=20210308-09:57:27.735|56=MA|66=ListID-080321-2008|394=2|68=5|73=5|11=ClOrdID-2009|22=4|38=100000|44=100|48=US06051GEN51|54=1|55=[N/A/]|63=3|67=1|423=1|29726=100.25|453=1|448=T2Kauaiblk2|447=C|452=11|11=ClOrdID-2010|22=4|38=100000|44=101|48=US40434AAB52|54=1|55=[N/A]|63=3|67=2|29726=101.25|11=ClOrdID-2011|22=4|38=130000|44=102|48=US95709TAH32|54=1|55=[N/A/]|63=3|67=1|29726=102.25|453=1|448=T2Kauaiblk2|447=C|452=11|11=ClOrdID-2012|22=4|38=250000|44=103|48=US427866AZ15|54=1|55=[N/A/]|63=3|67=1|29726=103.25|453=1|448=T2Kauaiblk2|447=C|452=11|11=ClOrdID-2013|22=4|38=350000|44=104|48=US29379VAW37|54=1|55=[N/A/]|63=3|67=1|29726=104.25|453=1|448=T2Kauaiblk2|447=C|452=11|10=112|8=FIX.4.4|9=699|35=E|34=6|49=T2Kauaiblk2|52=20210308-09:57:28.044|56=MA|66=ListID-080321-2014|394=2|68=5|73=5|11=ClOrdID-2015|22=4|38=100000|44=100|48=US06051GEN51|54=1|55=[N/A/]|63=3|67=1|423=1|29726=100.25|453=1|448=T2Kauaiblk2|447=C|452=11|11=ClOrdID-2016|22=4|38=100000|44=101|48=US40434AAB52|54=1|55=[N/A]|63=3|67=2|29726=101.25|11=ClOrdID-2017|22=4|38=130000|44=102|48=US95709TAH32|54=1|55=[N/A/]|63=3|67=1|29726=102.25|453=1|448=T2Kauaiblk2|447=C|452=11|11=ClOrdID-2018|22=4|38=250000|44=103|48=US427866AZ15|54=1|55=[N/A/]|63=3|67=1|29726=103.25|453=1|448=T2Kauaiblk2|447=C|452=11|11=ClOrdID-2019|22=4|38=350000|44=104|48=US29379VAW37|54=1|55=[N/A/]|63=3|67=1|29726=104.25|453=1|448=T2Kauaiblk2|447=C|452=11|10=125|8=FIX.4.4|9=56|35=0|34=7|49=T2Kauaiblk2|52=20210308-09:58:58.177|56=MA|10=089|8=FIX.4.4|9=56|35=0|34=8|49=T2Kauaiblk2|52=20210308-10:00:28.177|56=MA|10=066|8=FIX.4.4|9=56|35=0|34=9|49=T2Kauaiblk2|52=20210308-10:01:58.178|56=MA|10=072|8=FIX.4.4|9=57|35=0|34=10|49=T2Kauaiblk2|52=20210308-10:03:28.777|56=MA|10=117|8=FIX.4.4|9=57|35=0|34=11|49=T2Kauaiblk2|52=20210308-10:04:59.177|56=MA|10=117|8=FIX.4.4|9=57|35=0|34=12|49=T2Kauaiblk2|52=20210308-10:06:29.180|56=MA|10=111|8=FIX.4.4|9=57|35=0|34=13|49=T2Kauaiblk2|52=20210308-10:07:59.181|56=MA|10=117|8=FIX.4.4|9=57|35=0|34=14|49=T2Kauaiblk2|52=20210308-10:09:29.183|56=MA|10=119|8=FIX.4.4|9=57|35=0|34=15|49=T2Kauaiblk2|52=20210308-10:10:59.183|56=MA|10=115|8=FIX.4.4|9=57|35=0|34=16|49=T2Kauaiblk2|52=20210308-10:12:29.185|56=MA|10=117|8=FIX.4.4|9=57|35=0|34=17|49=T2Kauaiblk2|52=20210308-10:14:00.186|56=MA|10=110|8=FIX.4.4|9=57|35=0|34=18|49=T2Kauaiblk2|52=20210308-10:15:31.185|56=MA|10=115|8=FIX.4.4|9=57|35=0|34=19|49=T2Kauaiblk2|52=20210308-10:17:01.186|56=MA|10=116|8=FIX.4.4|9=57|35=0|34=20|49=T2Kauaiblk2|52=20210308-10:18:31.186|56=MA|10=112|8=FIX.4.4|9=57|35=0|34=21|49=T2Kauaiblk2|52=20210308-10:20:02.184|56=MA|10=102|8=FIX.4.4|9=57|35=0|34=22|49=T2Kauaiblk2|52=20210308-10:21:32.186|56=MA|10=109|8=FIX.4.4|9=57|35=0|34=23|49=T2Kauaiblk2|52=20210308-10:23:02.187|56=MA|10=110|8=FIX.4.4|9=57|35=0|34=24|49=T2Kauaiblk2|52=20210308-10:24:32.188|56=MA|10=116|8=FIX.4.4|9=57|35=0|34=25|49=T2Kauaiblk2|52=20210308-10:26:02.191|56=MA|10=110|8=FIX.4.4|9=57|35=0|34=26|49=T2Kauaiblk2|52=20210308-10:27:32.192|56=MA|10=116|8=FIX.4.4|9=57|35=0|34=27|49=T2Kauaiblk2|52=20210308-10:29:02.194|56=MA|10=118|8=FIX.4.4|9=57|35=0|34=28|49=T2Kauaiblk2|52=20210308-10:30:33.193|56=MA|10=114|8=FIX.4.4|9=57|35=0|34=29|49=T2Kauaiblk2|52=20210308-10:32:03.193|56=MA|10=114|8=FIX.4.4|9=57|35=0|34=30|49=T2Kauaiblk2|52=20210308-10:33:33.194|56=MA|10=111|8=FIX.4.4|9=57|35=0|34=31|49=T2Kauaiblk2|52=20210308-10:35:04.193|56=MA|10=111|8=FIX.4.4|9=57|35=0|34=32|49=T2Kauaiblk2|52=20210308-10:36:34.195|56=MA|10=118|8=FIX.4.4|9=57|35=0|34=33|49=T2Kauaiblk2|52=20210308-10:38:05.194|56=MA|10=118|8=FIX.4.4|9=57|35=0|34=34|49=T2Kauaiblk2|52=20210308-10:39:35.194|56=MA|10=123|8=FIX.4.4|9=57|35=0|34=35|49=T2Kauaiblk2|52=20210308-10:41:06.194|56=MA|10=115|8=FIX.4.4|9=57|35=0|34=36|49=T2Kauaiblk2|52=20210308-10:42:36.194|56=MA|10=120|8=FIX.4.4|9=57|35=0|34=37|49=T2Kauaiblk2|52=20210308-10:44:06.195|56=MA|10=121|8=FIX.4.4|9=57|35=0|34=38|49=T2Kauaiblk2|52=20210308-10:45:37.195|56=MA|10=127|8=FIX.4.4|9=57|35=0|34=39|49=T2Kauaiblk2|52=20210308-10:47:07.195|56=MA|10=127|8=FIX.4.4|9=57|35=0|34=40|49=T2Kauaiblk2|52=20210308-10:48:38.193|56=MA|10=122|8=FIX.4.4|9=57|35=0|34=41|49=T2Kauaiblk2|52=20210308-10:50:08.194|56=MA|10=114|8=FIX.4.4|9=57|35=0|34=42|49=T2Kauaiblk2|52=20210308-10:51:39.194|56=MA|10=120|8=FIX.4.4|9=57|35=0|34=43|49=T2Kauaiblk2|52=20210308-10:53:09.194|56=MA|10=120|8=FIX.4.4|9=57|35=0|34=44|49=T2Kauaiblk2|52=20210308-10:54:40.193|56=MA|10=116|8=FIX.4.4|9=57|35=0|34=45|49=T2Kauaiblk2|52=20210308-10:56:11.192|56=MA|10=116|8=FIX.4.4|9=57|35=0|34=46|49=T2Kauaiblk2|52=20210308-10:57:41.192|56=MA|10=121|8=FIX.4.4|9=57|35=0|34=47|49=T2Kauaiblk2|52=20210308-10:59:11.192|56=MA|10=121|8=FIX.4.4|9=57|35=0|34=48|49=T2Kauaiblk2|52=20210308-11:00:41.192|56=MA|10=112|8=FIX.4.4|9=57|35=0|34=49|49=T2Kauaiblk2|52=20210308-11:02:12.190|56=MA|10=111|8=FIX.4.4|9=57|35=0|34=50|49=T2Kauaiblk2|52=20210308-11:03:42.190|56=MA|10=107|8=FIX.4.4|9=57|35=0|34=51|49=T2Kauaiblk2|52=20210308-11:05:13.190|56=MA|10=108|8=FIX.4.4|9=57|35=0|34=52|49=T2Kauaiblk2|52=20210308-11:06:44.188|56=MA|10=121|8=FIX.4.4|9=57|35=0|34=53|49=T2Kauaiblk2|52=20210308-11:08:14.190|56=MA|10=114|8=FIX.4.4|9=57|35=0|34=54|49=T2Kauaiblk2|52=20210308-11:09:45.189|56=MA|10=128|8=FIX.4.4|9=57|35=0|34=55|49=T2Kauaiblk2|52=20210308-11:11:16.187|56=MA|10=118|8=FIX.4.4|9=57|35=0|34=56|49=T2Kauaiblk2|52=20210308-11:12:46.187|56=MA|10=123|8=FIX.4.4|9=57|35=0|34=57|49=T2Kauaiblk2|52=20210308-11:14:16.189|56=MA|10=125|8=FIX.4.4|9=57|35=0|34=58|49=T2Kauaiblk2|52=20210308-11:15:46.190|56=MA|10=122|8=FIX.4.4|9=57|35=0|34=59|49=T2Kauaiblk2|52=20210308-11:17:16.191|56=MA|10=123|8=FIX.4.4|9=57|35=0|34=60|49=T2Kauaiblk2|52=20210308-11:18:46.193|56=MA|10=121|8=FIX.4.4|9=57|35=0|34=61|49=T2Kauaiblk2|52=20210308-11:20:17.192|56=MA|10=112|8=FIX.4.4|9=57|35=0|34=62|49=T2Kauaiblk2|52=20210308-11:21:47.192|56=MA|10=117|8=FIX.4.4|9=57|35=0|34=63|49=T2Kauaiblk2|52=20210308-11:23:17.192|56=MA|10=117|8=FIX.4.4|9=57|35=0|34=64|49=T2Kauaiblk2|52=20210308-11:24:47.194|56=MA|10=124|8=FIX.4.4|9=57|35=0|34=65|49=T2Kauaiblk2|52=20210308-11:26:18.192|56=MA|10=123|8=FIX.4.4|9=57|35=0|34=66|49=T2Kauaiblk2|52=20210308-11:27:48.194|56=MA|10=130|8=FIX.4.4|9=57|35=0|34=67|49=T2Kauaiblk2|52=20210308-11:29:19.192|56=MA|10=129|8=FIX.4.4|9=57|35=0|34=68|49=T2Kauaiblk2|52=20210308-11:30:49.195|56=MA|10=128|8=FIX.4.4|9=57|35=0|34=69|49=T2Kauaiblk2|52=20210308-11:32:19.199|56=MA|10=132|8=FIX.4.4|9=57|35=0|34=70|49=T2Kauaiblk2|52=20210308-11:33:49.203|56=MA|10=114|8=FIX.4.4|9=57|35=0|34=71|49=T2Kauaiblk2|52=20210308-11:35:19.207|56=MA|10=118|8=FIX.4.4|9=57|35=0|34=72|49=T2Kauaiblk2|52=20210308-11:36:49.208|56=MA|10=124|8=FIX.4.4|9=57|35=0|34=73|49=T2Kauaiblk2|52=20210308-11:38:19.210|56=MA|10=117|8=FIX.4.4|9=57|35=0|34=74|49=T2Kauaiblk2|52=20210308-11:39:49.212|56=MA|10=124|8=FIX.4.4|9=57|35=0|34=75|49=T2Kauaiblk2|52=20210308-11:41:19.212|56=MA|10=115|8=FIX.4.4|9=57|35=0|34=76|49=T2Kauaiblk2|52=20210308-11:42:49.214|56=MA|10=122|8=FIX.4.4|9=57|35=0|34=77|49=T2Kauaiblk2|52=20210308-11:44:20.214|56=MA|10=114|8=FIX.4.4|9=57|35=0|34=78|49=T2Kauaiblk2|52=20210308-11:45:51.213|56=MA|10=119|8=FIX.4.4|9=57|35=0|34=79|49=T2Kauaiblk2|52=20210308-11:47:22.213|56=MA|10=120|8=FIX.4.4|9=57|35=0|34=80|49=T2Kauaiblk2|52=20210308-11:48:52.214|56=MA|10=117|8=FIX.4.4|9=57|35=0|34=81|49=T2Kauaiblk2|52=20210308-11:50:23.212|56=MA|10=107|8=FIX.4.4|9=57|35=0|34=82|49=T2Kauaiblk2|52=20210308-11:51:53.212|56=MA|10=112|8=FIX.4.4|9=57|35=0|34=83|49=T2Kauaiblk2|52=20210308-11:53:23.212|56=MA|10=112|8=FIX.4.4|9=57|35=0|34=84|49=T2Kauaiblk2|52=20210308-11:54:53.212|56=MA|10=117|8=FIX.4.4|9=57|35=0|34=85|49=T2Kauaiblk2|52=20210308-11:56:24.212|56=MA|10=118|8=FIX.4.4|9=75|35=5|34=86|49=T2Kauaiblk2|52=20210308-11:57:11.210|56=MA|58=user requested|10=211|8=FIX.4.4|9=91|35=A|34=1|49=T2Kauaiblk2|52=20210413-09:34:44.798|56=MA|98=0|108=90|95=8|96=3.0.0rc5|141=Y|10=052|8=FIX.4.4|9=705|35=E|34=2|49=T2Kauaiblk2|52=20210413-09:35:03.475|56=MA|66=ListID-041321-rowdy-2362|394=2|68=5|73=5|11=ClOrdID-2363|22=4|38=100000|44=100|48=US06051GEN51|54=1|55=[N/A/]|63=3|67=1|423=1|29726=100.25|453=1|448=T2Kauaiblk2|447=C|452=11|11=ClOrdID-2364|22=4|38=100000|44=101|48=US40434AAB52|54=1|55=[N/A]|63=3|67=2|29726=101.25|11=ClOrdID-2365|22=4|38=130000|44=102|48=US95709TAH32|54=1|55=[N/A/]|63=3|67=1|29726=102.25|453=1|448=T2Kauaiblk2|447=C|452=11|11=ClOrdID-2366|22=4|38=250000|44=103|48=US427866AZ15|54=1|55=[N/A/]|63=3|67=1|29726=103.25|453=1|448=T2Kauaiblk2|447=C|452=11|11=ClOrdID-2367|22=4|38=350000|44=104|48=US29379VAW37|54=1|55=[N/A/]|63=3|67=1|29726=104.25|453=1|448=T2Kauaiblk2|447=C|452=11|10=234|8=FIX.4.4|9=56|35=5|34=3|49=T2Kauaiblk2|52=20210413-09:35:30.812|56=MA|10=068|