8=FIX.4.4|9=91|35=A|34=1|49=T2Kauaiblk4|52=20210203-10:45:22.690|56=MA|98=0|108=90|95=8|96=3.0.0rc5|141=Y|10=032|8=FIX.4.4|9=699|35=E|34=2|49=T2Kauaiblk4|52=20210203-10:45:27.940|56=MA|66=ListID-030221-1360|394=2|68=5|73=5|11=ClOrdID-1361|22=4|38=100000|44=100|48=US06051GEN51|54=1|55=[N/A/]|63=3|67=1|423=1|29726=100.25|453=1|448=T2Kauaiblk4|447=C|452=11|11=ClOrdID-1362|22=4|38=100000|44=101|48=US40434AAB52|54=1|55=[N/A]|63=3|67=2|29726=101.25|11=ClOrdID-1363|22=4|38=130000|44=102|48=US95709TAH32|54=1|55=[N/A/]|63=3|67=1|29726=102.25|453=1|448=T2Kauaiblk4|447=C|452=11|11=ClOrdID-1364|22=4|38=250000|44=103|48=US025676AH01|54=1|55=[N/A/]|63=3|67=1|29726=103.25|453=1|448=T2Kauaiblk4|447=C|452=11|11=ClOrdID-1365|22=4|38=350000|44=104|48=US29379VAW37|54=1|55=[N/A/]|63=3|67=1|29726=104.25|453=1|448=T2Kauaiblk4|447=C|452=11|10=100|8=FIX.4.4|9=56|35=5|34=3|49=T2Kauaiblk4|52=20210203-10:45:57.689|56=MA|10=081|