8=FIX.4.2|9=82|35=A|34=1|49=INIT|52=20180925-12:13:50.719|56=ACCEPT|98=0|108=30|95=8|96=3.0.0rc4|10=115|8=FIX.4.2|9=53|35=0|34=2|49=INIT|52=20180925-12:14:21.469|56=ACCEPT|10=192|8=FIX.4.2|9=53|35=0|34=3|49=INIT|52=20180925-12:14:51.473|56=ACCEPT|10=191|8=FIX.4.2|9=212|35=D|34=4|49=INIT|52=20180925-12:14:51.536|56=ACCEPT|11=JBZ1808061810142552|21=1|55=USP79171AE79|48=USP79171AE79|22=4|54=1|60=20180806-16:10:14.113|38=870000|40=2|44=90|15=USD|59=6|126=20180807-21:59:00.000|47=P|10=112|8=FIX.4.2|9=53|35=0|34=5|49=INIT|52=20180925-12:15:21.711|56=ACCEPT|10=186|8=FIX.4.2|9=53|35=0|34=6|49=INIT|52=20180925-12:15:52.706|56=ACCEPT|10=195|8=FIX.4.2|9=1890|35=8|49=INIT|56=ACCEPT|34=7|52=20180925-12:16:06.941|37=5822107|17=One-USD_AGN-1662852-0-0-kpt1r|20=0|9690=153|9691=SBSIUS33|9692=B|9694=75.010|9693=1|9695=100000|9697=Done|7761=1|9691=ABO1MPID|9692=C|9694=97.000|9693=1|9695=250000|9697=Covered|7761=2|9691=WPACBIC|9692=B|9694=101.100|9693=1|9695=250000|9697=Missed|7761=3|9691=LAZA|9692=C|9694=104.400|9693=1|9695=250000|9696=Dealer response !! QuoteUpdate|9697=Missed|7761=4|9691=AASIUS33|9692=B|9694=106.900|9693=1|9695=250000|9696=Dealer response !! QuoteUpdate|9697=Missed|7761=5|9691=GMSG|9692=C|9694=108.700|9693=1|9695=250000|9696=Dealer response !! QuoteUpdate|9697=Missed|7761=6|9691=GUCPUSM1|9692=B|9694=114.500|9693=1|9695=250000|9696=Dealer response !! QuoteUpdate|9697=Missed|7761=7|9691=RBAIUS41XXX|9692=B|9694=115.500|9693=1|9695=250000|9696=Dealer response !! QuoteUpdate|9697=Missed|7761=8|9691=NITE|9692=B|9694=120.100|9693=1|9695=250000|9696=Dealer response !! QuoteUpdate|9697=Missed|7761=9|9691=ANZBUS33|9692=B|9696=Please Contact your ANZ Salesperson 1.|9697=Passed|7761=10|9691=CRLYUS33|9692=B|9697=Passed|7761=11|9691=CTBAAU2SFXD|9692=B|9696=None in TList|9697=Passed|7761=12|9691=RDOSUS31|9692=B|9697=Passed|7761=13|9691=GOLDUS33|9692=B|9697=Timed Out|7761=14|9691=FISA|9692=C|9697=Timed Out |7761=152|9691=ZKBKCHZZ80A|9692=B|9697=Timed Out|7761=153|109=STP Test Client, Inc.|76=SBSIUS33|11=JBZ1808061810142557|19=5822107-kn5lj|150=1|39=1|64=20180817|54=1|32=100000|31=75.010|151=770000|14=100000|6=75.010|9805=1076.723|9806=1153.787|5645=1077.612|9804=1077.612|5961=Price|75=20180815|60=20180815-12:06:36.284|381=75010.00|38=32|6655=250000|55=FIXED|22=4|48=USP79171AE79|200=202409|205=1|223=7.45|106=PROVINCE OF CORDOBA|6620=20170301|6659=20170301|107=CORDO  7.450  9/1/24 (URegS)|6608=13.657|6637=20240901|6611=3435.28|6612=78445.28|6609=MISC|6606=atrianine@marketxess.com|15=USD|120=USD|9947=citiustrade|157=166|10=033|8=FIX.4.2|9=53|35=0|34=8|49=INIT|52=20180925-12:16:37.699|56=ACCEPT|10=212|8=FIX.4.2|9=53|35=0|34=9|49=INIT|52=20180925-12:17:07.710|56=ACCEPT|10=195|8=FIX.4.2|9=63|35=2|34=10|49=INIT|52=20180925-12:17:07.710|56=ACCEPT|7=8|16=0|10=112|8=FIX.4.2|9=1891|35=8|49=INIT|56=ACCEPT|34=11|52=20180925-12:17:27.688|37=5822107|17=One-USD_AGN-1662852-0-0-kpt1r|20=0|9690=153|9691=SBSIUS33|9692=B|9694=75.010|9693=1|9695=100000|9697=Done|7761=1|9691=ABO1MPID|9692=C|9694=97.000|9693=1|9695=250000|9697=Covered|7761=2|9691=WPACBIC|9692=B|9694=101.100|9693=1|9695=250000|9697=Missed|7761=3|9691=LAZA|9692=C|9694=104.400|9693=1|9695=250000|9696=Dealer response !! QuoteUpdate|9697=Missed|7761=4|9691=AASIUS33|9692=B|9694=106.900|9693=1|9695=250000|9696=Dealer response !! QuoteUpdate|9697=Missed|7761=5|9691=GMSG|9692=C|9694=108.700|9693=1|9695=250000|9696=Dealer response !! QuoteUpdate|9697=Missed|7761=6|9691=GUCPUSM1|9692=B|9694=114.500|9693=1|9695=250000|9696=Dealer response !! QuoteUpdate|9697=Missed|7761=7|9691=RBAIUS41XXX|9692=B|9694=115.500|9693=1|9695=250000|9696=Dealer response !! QuoteUpdate|9697=Missed|7761=8|9691=NITE|9692=B|9694=120.100|9693=1|9695=250000|9696=Dealer response !! QuoteUpdate|9697=Missed|7761=9|9691=ANZBUS33|9692=B|9696=Please Contact your ANZ Salesperson 1.|9697=Passed|7761=10|9691=CRLYUS33|9692=B|9697=Passed|7761=11|9691=CTBAAU2SFXD|9692=B|9696=None in TList|9697=Passed|7761=12|9691=RDOSUS31|9692=B|9697=Passed|7761=13|9691=GOLDUS33|9692=B|9697=Timed Out|7761=14|9691=FISA|9692=C|9697=Timed Out |7761=152|9691=ZKBKCHZZ80A|9692=B|9697=Timed Out|7761=153|109=STP Test Client, Inc.|76=SBSIUS33|11=JBZ1808061810142557|19=5822107-kn5lj|150=1|39=1|64=20180817|54=1|32=100000|31=75.010|151=770000|14=100000|6=75.010|9805=1076.723|9806=1153.787|5645=1077.612|9804=1077.612|5961=Price|75=20180815|60=20180815-12:06:36.284|381=75010.00|38=32|6655=250000|55=FIXED|22=4|48=USP79171AE79|200=202409|205=1|223=7.45|106=PROVINCE OF CORDOBA|6620=20170301|6659=20170301|107=CORDO  7.450  9/1/24 (URegS)|6608=13.657|6637=20240901|6611=3435.28|6612=78445.28|6609=MISC|6606=atrianine@marketxess.com|15=USD|120=USD|9947=citiustrade|157=166|10=089|8=FIX.4.2|9=63|35=0|34=12|49=INIT|52=20180925-12:17:53.473|56=ACCEPT|112=TEST|10=007|8=FIX.4.2|9=54|35=0|34=13|49=INIT|52=20180925-12:18:23.695|56=ACCEPT|10=250|8=FIX.4.2|9=54|35=0|34=14|49=INIT|52=20180925-12:18:53.698|56=ACCEPT|10=001|8=FIX.4.2|9=54|35=0|34=15|49=INIT|52=20180925-12:19:23.701|56=ACCEPT|10=241|8=FIX.4.2|9=54|35=0|34=16|49=INIT|52=20180925-12:19:53.708|56=ACCEPT|10=252|8=FIX.4.2|9=54|35=0|34=17|49=INIT|52=20180925-12:20:24.461|56=ACCEPT|10=239|8=FIX.4.2|9=54|35=0|34=18|49=INIT|52=20180925-12:20:54.464|56=ACCEPT|10=246|8=FIX.4.2|9=54|35=0|34=19|49=INIT|52=20180925-12:21:24.465|56=ACCEPT|10=246|8=FIX.4.2|9=54|35=0|34=20|49=INIT|52=20180925-12:21:54.698|56=ACCEPT|10=249|8=FIX.4.2|9=54|35=0|34=21|49=INIT|52=20180925-12:22:25.463|56=ACCEPT|10=239|8=FIX.4.2|9=54|35=0|34=22|49=INIT|52=20180925-12:22:55.694|56=ACCEPT|10=249|8=FIX.4.2|9=213|35=D|34=23|49=INIT|52=20180925-12:23:09.617|56=ACCEPT|11=JBZ1808061810142552|21=1|55=USP79171AE79|48=USP79171AE79|22=4|54=1|60=20180806-16:10:14.113|38=870000|40=2|44=90|15=USD|59=6|126=20180807-21:59:00.000|47=P|10=165|8=FIX.4.2|9=54|35=0|34=24|49=INIT|52=20180925-12:23:39.695|56=ACCEPT|10=255|8=FIX.4.2|9=54|35=5|34=25|49=INIT|52=20180925-12:24:07.706|56=ACCEPT|10=250|8=FIX.4.2|9=83|35=A|34=26|49=INIT|52=20180925-12:24:29.701|56=ACCEPT|98=0|108=30|95=8|96=3.0.0rc4|10=170|8=FIX.4.2|9=213|35=D|34=27|49=INIT|52=20180925-12:24:44.569|56=ACCEPT|11=JBZ1808061810142552|21=1|55=USP79171AE79|48=USP79171AE79|22=4|54=1|60=20180806-16:10:14.113|38=870000|40=2|44=90|15=USD|59=6|126=20180807-21:59:00.000|47=P|10=175|8=FIX.4.2|9=54|35=5|34=28|49=INIT|52=20180925-12:24:52.467|56=ACCEPT|10=001|8=FIX.4.2|9=82|35=A|34=1|49=INIT|52=20180925-12:25:02.697|56=ACCEPT|98=0|108=30|95=8|96=3.0.0rc4|10=120|8=FIX.4.2|9=53|35=5|34=2|49=INIT|52=20180925-12:25:02.697|56=ACCEPT|10=201|8=FIX.4.2|9=82|35=A|34=3|49=INIT|52=20180925-12:25:24.705|56=ACCEPT|98=0|108=30|95=8|96=3.0.0rc4|10=116|8=FIX.4.2|9=62|35=2|34=4|49=INIT|52=20180925-12:25:24.705|56=ACCEPT|7=3|16=0|10=063|8=FIX.4.2|9=53|35=0|34=5|49=INIT|52=20180925-12:25:54.707|56=ACCEPT|10=198|8=FIX.4.2|9=212|35=D|34=6|49=INIT|52=20180925-12:26:12.320|56=ACCEPT|11=JBZ1808061810142552|21=1|55=USP79171AE79|48=USP79171AE79|22=4|54=1|60=20180806-16:10:14.113|38=870000|40=2|44=90|15=USD|59=6|126=20180807-21:59:00.000|47=P|10=105|8=FIX.4.2|9=53|35=0|34=7|49=INIT|52=20180925-12:26:42.702|56=ACCEPT|10=193|8=FIX.4.2|9=53|35=0|34=8|49=INIT|52=20180925-12:27:12.707|56=ACCEPT|10=197|8=FIX.4.2|9=1890|35=8|49=INIT|56=ACCEPT|34=9|52=20180925-12:27:26.150|37=5822107|17=One-USD_AGN-1662852-0-0-kpt1r|20=0|9690=153|9691=SBSIUS33|9692=B|9694=75.010|9693=1|9695=100000|9697=Done|7761=1|9691=ABO1MPID|9692=C|9694=97.000|9693=1|9695=250000|9697=Covered|7761=2|9691=WPACBIC|9692=B|9694=101.100|9693=1|9695=250000|9697=Missed|7761=3|9691=LAZA|9692=C|9694=104.400|9693=1|9695=250000|9696=Dealer response !! QuoteUpdate|9697=Missed|7761=4|9691=AASIUS33|9692=B|9694=106.900|9693=1|9695=250000|9696=Dealer response !! QuoteUpdate|9697=Missed|7761=5|9691=GMSG|9692=C|9694=108.700|9693=1|9695=250000|9696=Dealer response !! QuoteUpdate|9697=Missed|7761=6|9691=GUCPUSM1|9692=B|9694=114.500|9693=1|9695=250000|9696=Dealer response !! QuoteUpdate|9697=Missed|7761=7|9691=RBAIUS41XXX|9692=B|9694=115.500|9693=1|9695=250000|9696=Dealer response !! QuoteUpdate|9697=Missed|7761=8|9691=NITE|9692=B|9694=120.100|9693=1|9695=250000|9696=Dealer response !! QuoteUpdate|9697=Missed|7761=9|9691=ANZBUS33|9692=B|9696=Please Contact your ANZ Salesperson 1.|9697=Passed|7761=10|9691=CRLYUS33|9692=B|9697=Passed|7761=11|9691=CTBAAU2SFXD|9692=B|9696=None in TList|9697=Passed|7761=12|9691=RDOSUS31|9692=B|9697=Passed|7761=13|9691=GOLDUS33|9692=B|9697=Timed Out|7761=14|9691=FISA|9692=C|9697=Timed Out |7761=152|9691=ZKBKCHZZ80A|9692=B|9697=Timed Out|7761=153|109=STP Test Client, Inc.|76=SBSIUS33|11=JBZ1808061810142557|19=5822107-kn5lj|150=1|39=1|64=20180817|54=1|32=100000|31=75.010|151=770000|14=100000|6=75.010|9805=1076.723|9806=1153.787|5645=1077.612|9804=1077.612|5961=Price|75=20180815|60=20180815-12:06:36.284|381=75010.00|38=32|6655=250000|55=FIXED|22=4|48=USP79171AE79|200=202409|205=1|223=7.45|106=PROVINCE OF CORDOBA|6620=20170301|6659=20170301|107=CORDO  7.450  9/1/24 (URegS)|6608=13.657|6637=20240901|6611=3435.28|6612=78445.28|6609=MISC|6606=atrianine@marketxess.com|15=USD|120=USD|9947=citiustrade|157=166|10=031|8=FIX.4.2|9=54|35=0|34=10|49=INIT|52=20180925-12:27:56.694|56=ACCEPT|10=252|8=FIX.4.2|9=54|35=0|34=11|49=INIT|52=20180925-12:28:26.697|56=ACCEPT|10=254|8=FIX.4.2|9=63|35=2|34=12|49=INIT|52=20180925-12:28:26.697|56=ACCEPT|7=9|16=0|10=132|8=FIX.4.2|9=54|35=0|34=13|49=INIT|52=20180925-12:28:56.702|56=ACCEPT|10=246|8=FIX.4.2|9=54|35=0|34=14|49=INIT|52=20180925-12:29:26.707|56=ACCEPT|10=250|8=FIX.4.2|9=72|35=5|34=15|49=INIT|52=20180925-12:29:31.706|56=ACCEPT|58=user requested|10=087|8=FIX.4.2|9=83|35=A|34=16|49=INIT|52=20180925-12:30:52.590|56=ACCEPT|98=0|108=30|95=8|96=3.0.0rc4|10=168|8=FIX.4.2|9=54|35=0|34=17|49=INIT|52=20180925-12:31:22.817|56=ACCEPT|10=244|8=FIX.4.2|9=1891|35=8|49=INIT|56=ACCEPT|34=18|52=20180925-12:31:26.530|37=5822107|17=One-USD_AGN-1662852-0-0-kpt1r|20=0|9690=153|9691=SBSIUS33|9692=B|9694=75.010|9693=1|9695=100000|9697=Done|7761=1|9691=ABO1MPID|9692=C|9694=97.000|9693=1|9695=250000|9697=Covered|7761=2|9691=WPACBIC|9692=B|9694=101.100|9693=1|9695=250000|9697=Missed|7761=3|9691=LAZA|9692=C|9694=104.400|9693=1|9695=250000|9696=Dealer response !! QuoteUpdate|9697=Missed|7761=4|9691=AASIUS33|9692=B|9694=106.900|9693=1|9695=250000|9696=Dealer response !! QuoteUpdate|9697=Missed|7761=5|9691=GMSG|9692=C|9694=108.700|9693=1|9695=250000|9696=Dealer response !! QuoteUpdate|9697=Missed|7761=6|9691=GUCPUSM1|9692=B|9694=114.500|9693=1|9695=250000|9696=Dealer response !! QuoteUpdate|9697=Missed|7761=7|9691=RBAIUS41XXX|9692=B|9694=115.500|9693=1|9695=250000|9696=Dealer response !! QuoteUpdate|9697=Missed|7761=8|9691=NITE|9692=B|9694=120.100|9693=1|9695=250000|9696=Dealer response !! QuoteUpdate|9697=Missed|7761=9|9691=ANZBUS33|9692=B|9696=Please Contact your ANZ Salesperson 1.|9697=Passed|7761=10|9691=CRLYUS33|9692=B|9697=Passed|7761=11|9691=CTBAAU2SFXD|9692=B|9696=None in TList|9697=Passed|7761=12|9691=RDOSUS31|9692=B|9697=Passed|7761=13|9691=GOLDUS33|9692=B|9697=Timed Out|7761=14|9691=FISA|9692=C|9697=Timed Out |7761=152|9691=ZKBKCHZZ80A|9692=B|9697=Timed Out|7761=153|109=STP Test Client, Inc.|76=SBSIUS33|11=JBZ1808061810142557|19=5822107-kn5lj|150=1|39=1|64=20180817|54=1|32=100000|31=75.010|151=770000|14=100000|6=75.010|9805=1076.723|9806=1153.787|5645=1077.612|9804=1077.612|5961=Price|75=20180815|60=20180815-12:06:36.284|381=75010.00|38=32|6655=250000|55=FIXED|22=4|48=USP79171AE79|200=202409|205=1|223=7.45|106=PROVINCE OF CORDOBA|6620=20170301|6659=20170301|107=CORDO  7.450  9/1/24 (URegS)|6608=13.657|6637=20240901|6611=3435.28|6612=78445.28|6609=MISC|6606=atrianine@marketxess.com|15=USD|120=USD|9947=citiustrade|157=166|10=077|8=FIX.4.2|9=54|35=0|34=19|49=INIT|52=20180925-12:31:56.589|56=ACCEPT|10=003|8=FIX.4.2|9=54|35=0|34=20|49=INIT|52=20180925-12:32:26.594|56=ACCEPT|10=245|8=FIX.4.2|9=64|35=2|34=21|49=INIT|52=20180925-12:32:26.594|56=ACCEPT|7=18|16=0|10=172|8=FIX.4.2|9=1891|35=8|49=INIT|56=ACCEPT|34=22|52=20180925-12:32:32.687|37=5822107|17=One-USD_AGN-1662852-0-0-kpt1r|20=0|9690=153|9691=SBSIUS33|9692=B|9694=75.010|9693=1|9695=100000|9697=Done|7761=1|9691=ABO1MPID|9692=C|9694=97.000|9693=1|9695=250000|9697=Covered|7761=2|9691=WPACBIC|9692=B|9694=101.100|9693=1|9695=250000|9697=Missed|7761=3|9691=LAZA|9692=C|9694=104.400|9693=1|9695=250000|9696=Dealer response !! QuoteUpdate|9697=Missed|7761=4|9691=AASIUS33|9692=B|9694=106.900|9693=1|9695=250000|9696=Dealer response !! QuoteUpdate|9697=Missed|7761=5|9691=GMSG|9692=C|9694=108.700|9693=1|9695=250000|9696=Dealer response !! QuoteUpdate|9697=Missed|7761=6|9691=GUCPUSM1|9692=B|9694=114.500|9693=1|9695=250000|9696=Dealer response !! QuoteUpdate|9697=Missed|7761=7|9691=RBAIUS41XXX|9692=B|9694=115.500|9693=1|9695=250000|9696=Dealer response !! QuoteUpdate|9697=Missed|7761=8|9691=NITE|9692=B|9694=120.100|9693=1|9695=250000|9696=Dealer response !! QuoteUpdate|9697=Missed|7761=9|9691=ANZBUS33|9692=B|9696=Please Contact your ANZ Salesperson 1.|9697=Passed|7761=10|9691=CRLYUS33|9692=B|9697=Passed|7761=11|9691=CTBAAU2SFXD|9692=B|9696=None in TList|9697=Passed|7761=12|9691=RDOSUS31|9692=B|9697=Passed|7761=13|9691=GOLDUS33|9692=B|9697=Timed Out|7761=14|9691=FISA|9692=C|9697=Timed Out |7761=152|9691=ZKBKCHZZ80A|9692=B|9697=Timed Out|7761=153|109=STP Test Client, Inc.|76=SBSIUS33|11=JBZ1808061810142557|19=5822107-kn5lj|150=1|39=1|64=20180817|54=1|32=100000|31=75.010|151=770000|14=100000|6=75.010|9805=1076.723|9806=1153.787|5645=1077.612|9804=1077.612|5961=Price|75=20180815|60=20180815-12:06:36.284|381=75010.00|38=32|6655=250000|55=FIXED|22=4|48=USP79171AE79|200=202409|205=1|223=7.45|106=PROVINCE OF CORDOBA|6620=20170301|6659=20170301|107=CORDO  7.450  9/1/24 (URegS)|6608=13.657|6637=20240901|6611=3435.28|6612=78445.28|6609=MISC|6606=atrianine@marketxess.com|15=USD|120=USD|9947=citiustrade|157=166|10=083|8=FIX.4.2|9=54|35=0|34=23|49=INIT|52=20180925-12:33:03.591|56=ACCEPT|10=241|8=FIX.4.2|9=54|35=0|34=24|49=INIT|52=20180925-12:33:34.582|56=ACCEPT|10=246|8=FIX.4.2|9=54|35=0|34=25|49=INIT|52=20180925-12:34:04.585|56=ACCEPT|10=248|8=FIX.4.2|9=1891|35=8|49=INIT|56=ACCEPT|34=26|52=20180925-12:34:07.863|37=5822107|17=One-USD_AGN-1662852-0-0-kpt1r|20=0|9690=153|9691=SBSIUS33|9692=B|9694=75.010|9693=1|9695=100000|9697=Done|7761=1|9691=ABO1MPID|9692=C|9694=97.000|9693=1|9695=250000|9697=Covered|7761=2|9691=WPACBIC|9692=B|9694=101.100|9693=1|9695=250000|9697=Missed|7761=3|9691=LAZA|9692=C|9694=104.400|9693=1|9695=250000|9696=Dealer response !! QuoteUpdate|9697=Missed|7761=4|9691=AASIUS33|9692=B|9694=106.900|9693=1|9695=250000|9696=Dealer response !! QuoteUpdate|9697=Missed|7761=5|9691=GMSG|9692=C|9694=108.700|9693=1|9695=250000|9696=Dealer response !! QuoteUpdate|9697=Missed|7761=6|9691=GUCPUSM1|9692=B|9694=114.500|9693=1|9695=250000|9696=Dealer response !! QuoteUpdate|9697=Missed|7761=7|9691=RBAIUS41XXX|9692=B|9694=115.500|9693=1|9695=250000|9696=Dealer response !! QuoteUpdate|9697=Missed|7761=8|9691=NITE|9692=B|9694=120.100|9693=1|9695=250000|9696=Dealer response !! QuoteUpdate|9697=Missed|7761=9|9691=ANZBUS33|9692=B|9696=Please Contact your ANZ Salesperson 1.|9697=Passed|7761=10|9691=CRLYUS33|9692=B|9697=Passed|7761=11|9691=CTBAAU2SFXD|9692=B|9696=None in TList|9697=Passed|7761=12|9691=RDOSUS31|9692=B|9697=Passed|7761=13|9691=GOLDUS33|9692=B|9697=Timed Out|7761=14|9691=FISA|9692=C|9697=Timed Out |7761=152|9691=ZKBKCHZZ80A|9692=B|9697=Timed Out|7761=153|109=STP Test Client, Inc.|76=SBSIUS33|11=JBZ1808061810142557|19=5822107-kn5lj|150=1|39=1|64=20180817|54=1|32=100000|31=75.010|151=770000|14=100000|6=75.010|9805=1076.723|9806=1153.787|5645=1077.612|9804=1077.612|5961=Price|75=20180815|60=20180815-12:06:36.284|381=75010.00|38=32|6655=250000|55=FIXED|22=4|48=USP79171AE79|200=202409|205=1|223=7.45|106=PROVINCE OF CORDOBA|6620=20170301|6659=20170301|107=CORDO  7.450  9/1/24 (URegS)|6608=13.657|6637=20240901|6611=3435.28|6612=78445.28|6609=MISC|6606=atrianine@marketxess.com|15=USD|120=USD|9947=citiustrade|157=166|10=087|8=FIX.4.2|9=1891|35=8|49=INIT|56=ACCEPT|34=27|52=20180925-12:34:13.586|37=5822107|17=One-USD_AGN-1662852-0-0-kpt1r|20=0|9690=153|9691=SBSIUS33|9692=B|9694=75.010|9693=1|9695=100000|9697=Done|7761=1|9691=ABO1MPID|9692=C|9694=97.000|9693=1|9695=250000|9697=Covered|7761=2|9691=WPACBIC|9692=B|9694=101.100|9693=1|9695=250000|9697=Missed|7761=3|9691=LAZA|9692=C|9694=104.400|9693=1|9695=250000|9696=Dealer response !! QuoteUpdate|9697=Missed|7761=4|9691=AASIUS33|9692=B|9694=106.900|9693=1|9695=250000|9696=Dealer response !! QuoteUpdate|9697=Missed|7761=5|9691=GMSG|9692=C|9694=108.700|9693=1|9695=250000|9696=Dealer response !! QuoteUpdate|9697=Missed|7761=6|9691=GUCPUSM1|9692=B|9694=114.500|9693=1|9695=250000|9696=Dealer response !! QuoteUpdate|9697=Missed|7761=7|9691=RBAIUS41XXX|9692=B|9694=115.500|9693=1|9695=250000|9696=Dealer response !! QuoteUpdate|9697=Missed|7761=8|9691=NITE|9692=B|9694=120.100|9693=1|9695=250000|9696=Dealer response !! QuoteUpdate|9697=Missed|7761=9|9691=ANZBUS33|9692=B|9696=Please Contact your ANZ Salesperson 1.|9697=Passed|7761=10|9691=CRLYUS33|9692=B|9697=Passed|7761=11|9691=CTBAAU2SFXD|9692=B|9696=None in TList|9697=Passed|7761=12|9691=RDOSUS31|9692=B|9697=Passed|7761=13|9691=GOLDUS33|9692=B|9697=Timed Out|7761=14|9691=FISA|9692=C|9697=Timed Out |7761=152|9691=ZKBKCHZZ80A|9692=B|9697=Timed Out|7761=153|109=STP Test Client, Inc.|76=SBSIUS33|11=JBZ1808061810142557|19=5822107-kn5lj|150=1|39=1|64=20180817|54=1|32=100000|31=75.010|151=770000|14=100000|6=75.010|9805=1076.723|9806=1153.787|5645=1077.612|9804=1077.612|5961=Price|75=20180815|60=20180815-12:06:36.284|381=75010.00|38=32|6655=250000|55=FIXED|22=4|48=USP79171AE79|200=202409|205=1|223=7.45|106=PROVINCE OF CORDOBA|6620=20170301|6659=20170301|107=CORDO  7.450  9/1/24 (URegS)|6608=13.657|6637=20240901|6611=3435.28|6612=78445.28|6609=MISC|6606=atrianine@marketxess.com|15=USD|120=USD|9947=citiustrade|157=166|10=087|8=FIX.4.2|9=54|35=0|34=28|49=INIT|52=20180925-12:34:43.594|56=ACCEPT|10=254|8=FIX.4.2|9=54|35=0|34=29|49=INIT|52=20180925-12:35:14.582|56=ACCEPT|10=251|8=FIX.4.2|9=1891|35=8|49=INIT|56=ACCEPT|34=30|52=20180925-12:35:17.320|37=5822107|17=One-USD_AGN-1662852-0-0-kpt1r|20=0|9690=16|9691=SBSIUS33|9692=B|9694=75.010|9693=1|9695=100000|9697=Done|7761=1|9691=ABO1MPID|9692=C|9694=97.000|9693=1|9695=250000|9697=Covered|7761=2|9691=WPACBIC|9692=B|9694=101.100|9693=1|9695=250000|9697=Missed|7761=3|9691=LAZA|9692=C|9694=104.400|9693=1|9695=250000|9696=Dealer response !! QuoteUpdate|9697=Missed|7761=4|9691=AASIUS33|9692=B|9694=106.900|9693=1|9695=250000|9696=Dealer response !! QuoteUpdate|9697=Missed|7761=5|9691=GMSG|9692=C|9694=108.700|9693=1|9695=250000|9696=Dealer response !! QuoteUpdate|9697=Missed|7761=6|9691=GUCPUSM1|9692=B|9694=114.500|9693=1|9695=250000|9696=Dealer response !! QuoteUpdate|9697=Missed|7761=7|9691=RBAIUS41XXX|9692=B|9694=115.500|9693=1|9695=250000|9696=Dealer response !! QuoteUpdate|9697=Missed|7761=8|9691=NITE|9692=B|9694=120.100|9693=1|9695=250000|9696=Dealer response !! QuoteUpdate|9697=Missed|7761=9|9691=ANZBUS33|9692=B|9696=Please Contact your ANZ Salesperson 1.|9697=Passed|7761=10|9691=CRLYUS33|9692=B|9697=Passed|7761=11|9691=CTBAAU2SFXD|9692=B|9696=None in TList|9697=Passed|7761=12|9691=RDOSUS31|9692=B|9697=Passed|7761=13|9691=GOLDUS33|9692=B|9697=Timed Out|7761=14|9691=FISA|9692=C|9697=Timed Out |7761=152|9691=ZKBKCHZZ80A|9692=B|9697=Timed Out|7761=153|109=STP Test Client, Inc.|76=SBSIUS33|11=JBZ1808061810142557|19=5822107-kn5lj|150=1|39=1|64=20180817|54=1|32=100000|31=75.010|151=770000|14=100000|6=75.010|9805=1076.723|9806=1153.787|5645=1077.612|9804=1077.612|5961=Price|75=20180815|60=20180815-12:06:36.284|381=75010.00|38=32|6655=250000|55=FIXED|22=4|48=USP79171AE79|200=202409|205=1|223=7.45|106=PROVINCE OF CORDOBA|6620=20170301|6659=20170301|107=CORDO  7.450  9/1/24 (URegS)|6608=13.657|6637=20240901|6611=3435.28|6612=78445.28|6609=MISC|6606=atrianine@marketxess.com|15=USD|120=USD|9947=citiustrade|157=166|10=072|8=FIX.4.2|9=54|35=5|34=31|49=INIT|52=20180925-12:35:17.335|56=ACCEPT|10=248|8=FIX.4.2|9=82|35=A|34=1|49=INIT|52=20180925-12:37:49.584|56=ACCEPT|98=0|108=30|95=8|96=3.0.0rc4|10=129|8=FIX.4.2|9=1879|35=8|49=INIT|56=ACCEPT|34=2|52=20180925-12:38:06.758|37=5822107|17=One-USD_AGN-1662852-0-0-kpt1r|20=0|9690=16|9691=SBSIUS33|9692=B|9694=75.010|9693=1|9695=100000|9697=Done|7761=1|9691=ABO1MPID|9692=C|9694=97.000|9693=1|9695=250000|9697=Covered|7761=2|9691=WPACBIC|9692=B|9694=101.100|9693=1|9695=250000|9697=Missed|7761=3|9691=LAZA|9692=C|9694=104.400|9693=1|9695=250000|9696=Dealer response !! QuoteUpdate|9697=Missed|7761=4|9691=AASIUS33|9692=B|9694=106.900|9693=1|9695=250000|9696=Dealer response !! QuoteUpdate|9697=Missed|7761=5|9691=GMSG|9692=C|9694=108.700|9693=1|9695=250000|9696=Dealer response !! QuoteUpdate|9697=Missed|7761=6|9691=GUCPUSM1|9692=B|9694=114.500|9693=1|9695=250000|9696=Dealer response !! QuoteUpdate|9697=Missed|7761=7|9691=RBAIUS41XXX|9692=B|9694=115.500|9693=1|9695=250000|9696=Dealer response !! QuoteUpdate|9697=Missed|7761=8|9691=NITE|9692=B|9694=120.100|9693=1|9695=250000|9696=Dealer response !! QuoteUpdate|9697=Missed|7761=9|9691=ANZBUS33|9692=B|9696=Please Contact your ANZ Salesperson 1.|9697=Passed|7761=10|9691=CRLYUS33|9692=B|9697=Passed|7761=11|9691=CTBAAU2SFXD|9692=B|9696=None in TList|9697=Passed|7761=12|9691=RDOSUS31|9692=B|9697=Passed|7761=13|9691=GOLDUS33|9692=B|9697=Timed Out|7761=14|9691=FISA|9692=C|9697=Timed Out |7761=152|9691=ZKBKCHZZ80A|9692=B|9697=Timed Out|7761=153|109=STP Test Client, Inc.|76=SBSIUS33|11=JBZ1808061810142557|19=5822107-kn5lj|150=1|39=1|64=20180817|54=1|32=100000|31=75.010|151=770000|14=100000|6=75.010|9805=1076.723|9806=1153.787|5645=1077.612|9804=1077.612|75=20180815|60=20180815-12:06:36.284|381=75010.00|38=32|6655=250000|55=FIXED|22=4|48=USP79171AE79|200=202409|205=1|223=7.45|106=PROVINCE OF CORDOBA|6620=20170301|6659=20170301|107=CORDO  7.450  9/1/24 (URegS)|6608=13.657|6637=20240901|6611=3435.28|6612=78445.28|6609=MISC|6606=atrianine@marketxess.com|15=USD|120=USD|9947=citiustrade|157=166|10=039|8=FIX.4.2|9=62|35=0|34=3|49=INIT|52=20180925-12:38:34.818|56=ACCEPT|112=TEST|10=219|8=FIX.4.2|9=1865|35=8|49=INIT|56=ACCEPT|34=4|52=20180925-12:38:45.881|37=5822107|17=One-USD_AGN-1662852-0-0-kpt1r|20=0|9690=16|9691=SBSIUS33|9692=B|9694=75.010|9693=1|9695=100000|9697=Done|7761=1|9691=ABO1MPID|9692=C|9694=97.000|9693=1|9695=250000|9697=Covered|7761=2|9691=WPACBIC|9692=B|9694=101.100|9693=1|9695=250000|9697=Missed|7761=3|9691=LAZA|9692=C|9694=104.400|9693=1|9695=250000|9696=Dealer response !! QuoteUpdate|9697=Missed|7761=4|9691=AASIUS33|9692=B|9694=106.900|9693=1|9695=250000|9696=Dealer response !! QuoteUpdate|9697=Missed|7761=5|9691=GMSG|9692=C|9694=108.700|9693=1|9695=250000|9696=Dealer response !! QuoteUpdate|9697=Missed|7761=6|9691=GUCPUSM1|9692=B|9694=114.500|9693=1|9695=250000|9696=Dealer response !! QuoteUpdate|9697=Missed|7761=7|9691=RBAIUS41XXX|9692=B|9694=115.500|9693=1|9695=250000|9696=Dealer response !! QuoteUpdate|9697=Missed|7761=8|9691=NITE|9692=B|9694=120.100|9693=1|9695=250000|9696=Dealer response !! QuoteUpdate|9697=Missed|7761=9|9691=ANZBUS33|9692=B|9696=Please Contact your ANZ Salesperson 1.|9697=Passed|7761=10|9691=CRLYUS33|9692=B|9697=Passed|7761=11|9691=CTBAAU2SFXD|9692=B|9696=None in TList|9697=Passed|7761=12|9691=RDOSUS31|9692=B|9697=Passed|7761=13|9691=GOLDUS33|9692=B|9697=Timed Out|7761=14|9691=FISA|9692=C|9697=Timed Out |7761=152|9691=ZKBKCHZZ80A|9692=B|9697=Timed Out|7761=153|109=STP Test Client, Inc.|76=SBSIUS33|11=JBZ1808061810142557|19=5822107-kn5lj|150=1|39=1|64=20180817|54=1|32=100000|31=75.010|151=770000|14=100000|6=75.010|9805=1076.723|9806=1153.787|5645=1077.612|75=20180815|60=20180815-12:06:36.284|381=75010.00|38=32|6655=250000|55=FIXED|22=4|48=USP79171AE79|200=202409|205=1|223=7.45|106=PROVINCE OF CORDOBA|6620=20170301|6659=20170301|107=CORDO  7.450  9/1/24 (URegS)|6608=13.657|6637=20240901|6611=3435.28|6612=78445.28|6609=MISC|6606=atrianine@marketxess.com|15=USD|120=USD|9947=citiustrade|157=166|10=123|8=FIX.4.2|9=53|35=0|34=5|49=INIT|52=20180925-12:39:16.586|56=ACCEPT|10=206|8=FIX.4.2|9=53|35=0|34=6|49=INIT|52=20180925-12:39:46.592|56=ACCEPT|10=207|8=FIX.4.2|9=53|35=0|34=7|49=INIT|52=20180925-12:40:16.824|56=ACCEPT|10=195|8=FIX.4.2|9=53|35=0|34=8|49=INIT|52=20180925-12:40:47.585|56=ACCEPT|10=204|8=FIX.4.2|9=1882|35=8|49=INIT|56=ACCEPT|34=9|52=20180925-12:40:48.198|37=5822107|17=One-USD_AGN-1662852-0-0-kpt1r|20=0|9690=153|9691=SBSIUS33|9692=B|9694=75.010|9693=1|9695=100000|9697=Done|7761=1|9691=ABO1MPID|9692=C|9694=97.000|9693=1|9695=250000|9697=Covered|7761=2|9691=WPACBIC|9692=B|9694=101.100|9693=1|9695=250000|9697=Missed|7761=3|9691=LAZA|9692=C|9694=104.400|9693=1|9695=250000|9696=Dealer response !! QuoteUpdate|9697=Missed|7761=4|9691=AASIUS33|9692=B|9694=106.900|9693=1|9695=250000|9696=Dealer response !! QuoteUpdate|9697=Missed|7761=5|9691=GMSG|9692=C|9694=108.700|9693=1|9695=250000|9696=Dealer response !! QuoteUpdate|9697=Missed|7761=6|9691=GUCPUSM1|9692=B|9694=114.500|9693=1|9695=250000|9696=Dealer response !! QuoteUpdate|9697=Missed|7761=7|9691=RBAIUS41XXX|9692=B|9694=115.500|9693=1|9695=250000|9696=Dealer response !! QuoteUpdate|9697=Missed|7761=8|9691=NITE|9692=B|9694=120.100|9693=1|9695=250000|9696=Dealer response !! QuoteUpdate|9697=Missed|7761=9|9691=ANZBUS33|9692=B|9696=Please Contact your ANZ Salesperson 1.|9697=Passed|7761=10|9691=CRLYUS33|9692=B|9697=Passed|7761=11|9691=CTBAAU2SFXD|9692=B|9696=None in TList|9697=Passed|7761=12|9691=RDOSUS31|9692=B|9697=Passed|7761=13|9691=GOLDUS33|9692=B|9697=Timed Out|7761=14|9691=FISA|9692=C|9697=Timed Out |7761=152|9691=ZKBKCHZZ80A|9692=B|9697=Timed Out|7761=153|109=STP Test Client, Inc.|76=SBSIUS33|11=JBZ1808061810142557|19=5822107-kn5lj|150=1|39=1|64=20180817|54=1|32=100000|31=75.010|151=770000|14=100000|6=75.010|9805=1076.723|9806=1153.787|5645=1077.612|9804=1077.612|5961=Price|75=20180815|60=20180815-12:06:36.284|381=75010.00|38=32|6655=250000|55=FIXED|22=4|48=USP79171AE79|200=202409|205=1|223=7.45|106=PROVINCE OF CORDOBA|6620=20170301|6659=20170301|107=CORDO  7.450  9/1/24 (URegS)|6608=13.657|6637=20240901|6611=3435.28|6612=78445.28|6609=MISC|6606=atrianine@marketxess.com|15=USD|120=USD|9947=citiustrade|10=179|8=FIX.4.2|9=54|35=0|34=10|49=INIT|52=20180925-12:41:18.585|56=ACCEPT|10=245|8=FIX.4.2|9=54|35=0|34=11|49=INIT|52=20180925-12:41:48.592|56=ACCEPT|10=247|8=FIX.4.2|9=64|35=2|34=12|49=INIT|52=20180925-12:41:48.592|56=ACCEPT|7=10|16=0|10=166|8=FIX.4.2|9=1883|35=8|49=INIT|56=ACCEPT|34=13|52=20180925-12:41:50.996|37=5822107|17=One-USD_AGN-1662852-0-0-kpt1r|20=0|9690=16|9691=SBSIUS33|9692=B|9694=75.010|9693=1|9695=100000|9697=Done|7761=1|9691=ABO1MPID|9692=C|9694=97.000|9693=1|9695=250000|9697=Covered|7761=2|9691=WPACBIC|9692=B|9694=101.100|9693=1|9695=250000|9697=Missed|7761=3|9691=LAZA|9692=C|9694=104.400|9693=1|9695=250000|9696=Dealer response !! QuoteUpdate|9697=Missed|7761=4|9691=AASIUS33|9692=B|9694=106.900|9693=1|9695=250000|9696=Dealer response !! QuoteUpdate|9697=Missed|7761=5|9691=GMSG|9692=C|9694=108.700|9693=1|9695=250000|9696=Dealer response !! QuoteUpdate|9697=Missed|7761=6|9691=GUCPUSM1|9692=B|9694=114.500|9693=1|9695=250000|9696=Dealer response !! QuoteUpdate|9697=Missed|7761=7|9691=RBAIUS41XXX|9692=B|9694=115.500|9693=1|9695=250000|9696=Dealer response !! QuoteUpdate|9697=Missed|7761=8|9691=NITE|9692=B|9694=120.100|9693=1|9695=250000|9696=Dealer response !! QuoteUpdate|9697=Missed|7761=9|9691=ANZBUS33|9692=B|9696=Please Contact your ANZ Salesperson 1.|9697=Passed|7761=10|9691=CRLYUS33|9692=B|9697=Passed|7761=11|9691=CTBAAU2SFXD|9692=B|9696=None in TList|9697=Passed|7761=12|9691=RDOSUS31|9692=B|9697=Passed|7761=13|9691=GOLDUS33|9692=B|9697=Timed Out|7761=14|9691=FISA|9692=C|9697=Timed Out |7761=152|9691=ZKBKCHZZ80A|9692=B|9697=Timed Out|7761=153|109=STP Test Client, Inc.|76=SBSIUS33|11=JBZ1808061810142557|19=5822107-kn5lj|150=1|39=1|64=20180817|54=1|32=100000|31=75.010|151=770000|14=100000|6=75.010|9805=1076.723|9806=1153.787|5645=1077.612|9804=1077.612|5961=Price|75=20180815|60=20180815-12:06:36.284|381=75010.00|38=32|6655=250000|55=FIXED|22=4|48=USP79171AE79|200=202409|205=1|223=7.45|106=PROVINCE OF CORDOBA|6620=20170301|6659=20170301|107=CORDO  7.450  9/1/24 (URegS)|6608=13.657|6637=20240901|6611=3435.28|6612=78445.28|6609=MISC|6606=atrianine@marketxess.com|15=USD|120=USD|9947=citiustrade|10=223|8=FIX.4.2|9=1883|35=8|49=INIT|56=ACCEPT|34=14|52=20180925-12:41:58.605|37=5822107|17=One-USD_AGN-1662852-0-0-kpt1r|20=0|9690=16|9691=SBSIUS33|9692=B|9694=75.010|9693=1|9695=100000|9697=Done|7761=1|9691=ABO1MPID|9692=C|9694=97.000|9693=1|9695=250000|9697=Covered|7761=2|9691=WPACBIC|9692=B|9694=101.100|9693=1|9695=250000|9697=Missed|7761=3|9691=LAZA|9692=C|9694=104.400|9693=1|9695=250000|9696=Dealer response !! QuoteUpdate|9697=Missed|7761=4|9691=AASIUS33|9692=B|9694=106.900|9693=1|9695=250000|9696=Dealer response !! QuoteUpdate|9697=Missed|7761=5|9691=GMSG|9692=C|9694=108.700|9693=1|9695=250000|9696=Dealer response !! QuoteUpdate|9697=Missed|7761=6|9691=GUCPUSM1|9692=B|9694=114.500|9693=1|9695=250000|9696=Dealer response !! QuoteUpdate|9697=Missed|7761=7|9691=RBAIUS41XXX|9692=B|9694=115.500|9693=1|9695=250000|9696=Dealer response !! QuoteUpdate|9697=Missed|7761=8|9691=NITE|9692=B|9694=120.100|9693=1|9695=250000|9696=Dealer response !! QuoteUpdate|9697=Missed|7761=9|9691=ANZBUS33|9692=B|9696=Please Contact your ANZ Salesperson 1.|9697=Passed|7761=10|9691=CRLYUS33|9692=B|9697=Passed|7761=11|9691=CTBAAU2SFXD|9692=B|9696=None in TList|9697=Passed|7761=12|9691=RDOSUS31|9692=B|9697=Passed|7761=13|9691=GOLDUS33|9692=B|9697=Timed Out|7761=14|9691=FISA|9692=C|9697=Timed Out |7761=152|9691=ZKBKCHZZ80A|9692=B|9697=Timed Out|7761=153|109=STP Test Client, Inc.|76=SBSIUS33|11=JBZ1808061810142557|19=5822107-kn5lj|150=1|39=1|64=20180817|54=1|32=100000|31=75.010|151=770000|14=100000|6=75.010|9805=1076.723|9806=1153.787|5645=1077.612|9804=1077.612|5961=Price|75=20180815|60=20180815-12:06:36.284|381=75010.00|38=32|6655=250000|55=FIXED|22=4|48=USP79171AE79|200=202409|205=1|223=7.45|106=PROVINCE OF CORDOBA|6620=20170301|6659=20170301|107=CORDO  7.450  9/1/24 (URegS)|6608=13.657|6637=20240901|6611=3435.28|6612=78445.28|6609=MISC|6606=atrianine@marketxess.com|15=USD|120=USD|9947=citiustrade|10=219|8=FIX.4.2|9=54|35=0|34=15|49=INIT|52=20180925-12:42:29.582|56=ACCEPT|10=250|8=FIX.4.2|9=54|35=0|34=16|49=INIT|52=20180925-12:42:59.588|56=ACCEPT|10=004|8=FIX.4.2|9=54|35=0|34=17|49=INIT|52=20180925-12:43:30.584|56=ACCEPT|10=247|8=FIX.4.2|9=54|35=0|34=18|49=INIT|52=20180925-12:44:00.592|56=ACCEPT|10=245|8=FIX.4.2|9=54|35=0|34=19|49=INIT|52=20180925-12:44:31.590|56=ACCEPT|10=248|8=FIX.4.2|9=54|35=0|34=20|49=INIT|52=20180925-12:45:02.583|56=ACCEPT|10=241|8=FIX.4.2|9=54|35=0|34=21|49=INIT|52=20180925-12:45:32.591|56=ACCEPT|10=244|8=FIX.4.2|9=54|35=0|34=22|49=INIT|52=20180925-12:46:03.589|56=ACCEPT|10=251|8=FIX.4.2|9=54|35=0|34=23|49=INIT|52=20180925-12:46:34.586|56=ACCEPT|10=253|8=FIX.4.2|9=54|35=0|34=24|49=INIT|52=20180925-12:47:04.587|56=ACCEPT|10=253|8=FIX.4.2|9=54|35=0|34=25|49=INIT|52=20180925-12:47:35.586|56=ACCEPT|10=001|8=FIX.4.2|9=54|35=0|34=26|49=INIT|52=20180925-12:48:05.590|56=ACCEPT|10=251|8=FIX.4.2|9=54|35=0|34=27|49=INIT|52=20180925-12:48:35.590|56=ACCEPT|10=255|8=FIX.4.2|9=54|35=0|34=28|49=INIT|52=20180925-12:49:06.581|56=ACCEPT|10=255|8=FIX.4.2|9=54|35=0|34=29|49=INIT|52=20180925-12:49:37.577|56=ACCEPT|10=009|8=FIX.4.2|9=54|35=0|34=30|49=INIT|52=20180925-12:50:07.585|56=ACCEPT|10=245|8=FIX.4.2|9=54|35=0|34=31|49=INIT|52=20180925-12:50:37.590|56=ACCEPT|10=245|8=FIX.4.2|9=54|35=0|34=32|49=INIT|52=20180925-12:51:08.578|56=ACCEPT|10=251|8=FIX.4.2|9=54|35=0|34=33|49=INIT|52=20180925-12:51:38.580|56=ACCEPT|10=248|8=FIX.4.2|9=54|35=0|34=34|49=INIT|52=20180925-12:52:09.575|56=ACCEPT|10=252|8=FIX.4.2|9=54|35=0|34=35|49=INIT|52=20180925-12:52:39.576|56=ACCEPT|10=001|8=FIX.4.2|9=54|35=0|34=36|49=INIT|52=20180925-12:53:09.579|56=ACCEPT|10=003|8=FIX.4.2|9=54|35=0|34=37|49=INIT|52=20180925-12:53:39.583|56=ACCEPT|10=002|8=FIX.4.2|9=54|35=0|34=38|49=INIT|52=20180925-12:54:09.586|56=ACCEPT|10=004|8=FIX.4.2|9=54|35=0|34=39|49=INIT|52=20180925-12:54:40.574|56=ACCEPT|10=253|8=FIX.4.2|9=54|35=0|34=40|49=INIT|52=20180925-12:55:10.576|56=ACCEPT|10=245|8=FIX.4.2|9=54|35=0|34=41|49=INIT|52=20180925-12:55:40.580|56=ACCEPT|10=244|8=FIX.4.2|9=54|35=0|34=42|49=INIT|52=20180925-12:56:10.583|56=ACCEPT|10=246|8=FIX.4.2|9=54|35=0|34=43|49=INIT|52=20180925-12:56:40.586|56=ACCEPT|10=253|8=FIX.4.2|9=54|35=0|34=44|49=INIT|52=20180925-12:57:11.573|56=ACCEPT|10=249|8=FIX.4.2|9=54|35=0|34=45|49=INIT|52=20180925-12:57:41.576|56=ACCEPT|10=000|8=FIX.4.2|9=54|35=0|34=46|49=INIT|52=20180925-12:58:11.579|56=ACCEPT|10=002|8=FIX.4.2|9=54|35=0|34=47|49=INIT|52=20180925-12:58:41.582|56=ACCEPT|10=000|8=FIX.4.2|9=54|35=0|34=48|49=INIT|52=20180925-12:59:11.585|56=ACCEPT|10=002|8=FIX.4.2|9=54|35=0|34=49|49=INIT|52=20180925-12:59:42.573|56=ACCEPT|10=004|8=FIX.4.2|9=54|35=0|34=50|49=INIT|52=20180925-13:00:12.576|56=ACCEPT|10=239|8=FIX.4.2|9=54|35=0|34=51|49=INIT|52=20180925-13:00:42.579|56=ACCEPT|10=246|8=FIX.4.2|9=54|35=0|34=52|49=INIT|52=20180925-13:01:12.582|56=ACCEPT|10=239|8=FIX.4.2|9=54|35=0|34=53|49=INIT|52=20180925-13:01:43.585|56=ACCEPT|10=247|8=FIX.4.2|9=54|35=0|34=54|49=INIT|52=20180925-13:02:14.573|56=ACCEPT|10=244|8=FIX.4.2|9=54|35=0|34=55|49=INIT|52=20180925-13:02:44.576|56=ACCEPT|10=251|8=FIX.4.2|9=54|35=0|34=56|49=INIT|52=20180925-13:03:14.579|56=ACCEPT|10=253|8=FIX.4.2|9=54|35=0|34=57|49=INIT|52=20180925-13:03:44.582|56=ACCEPT|10=251|8=FIX.4.2|9=54|35=0|34=58|49=INIT|52=20180925-13:04:15.570|56=ACCEPT|10=248|8=FIX.4.2|9=54|35=0|34=59|49=INIT|52=20180925-13:04:45.573|56=ACCEPT|10=255|8=FIX.4.2|9=54|35=0|34=60|49=INIT|52=20180925-13:05:15.576|56=ACCEPT|10=248|8=FIX.4.2|9=54|35=0|34=61|49=INIT|52=20180925-13:05:45.579|56=ACCEPT|10=255|8=FIX.4.2|9=54|35=0|34=62|49=INIT|52=20180925-13:06:15.583|56=ACCEPT|10=249|8=FIX.4.2|9=54|35=0|34=63|49=INIT|52=20180925-13:06:46.570|56=ACCEPT|10=250|8=FIX.4.2|9=54|35=0|34=64|49=INIT|52=20180925-13:07:16.574|56=ACCEPT|10=253|8=FIX.4.2|9=54|35=0|34=65|49=INIT|52=20180925-13:07:46.576|56=ACCEPT|10=003|8=FIX.4.2|9=54|35=0|34=66|49=INIT|52=20180925-13:08:16.580|56=ACCEPT|10=253|8=FIX.4.2|9=54|35=0|34=67|49=INIT|52=20180925-13:08:47.583|56=ACCEPT|10=005|8=FIX.4.2|9=54|35=0|34=68|49=INIT|52=20180925-13:09:18.570|56=ACCEPT|10=001|8=FIX.4.2|9=54|35=0|34=69|49=INIT|52=20180925-13:09:48.573|56=ACCEPT|10=008|8=FIX.4.2|9=54|35=0|34=70|49=INIT|52=20180925-13:10:18.576|56=ACCEPT|10=248|8=FIX.4.2|9=54|35=0|34=71|49=INIT|52=20180925-13:10:48.579|56=ACCEPT|10=255|8=FIX.4.2|9=54|35=0|34=72|49=INIT|52=20180925-13:11:19.567|56=ACCEPT|10=252|8=FIX.4.2|9=54|35=0|34=73|49=INIT|52=20180925-13:11:49.570|56=ACCEPT|10=250|8=FIX.4.2|9=54|35=0|34=74|49=INIT|52=20180925-13:12:19.573|56=ACCEPT|10=252|8=FIX.4.2|9=54|35=0|34=75|49=INIT|52=20180925-13:12:49.576|56=ACCEPT|10=003|8=FIX.4.2|9=54|35=0|34=76|49=INIT|52=20180925-13:13:19.580|56=ACCEPT|10=253|8=FIX.4.2|9=54|35=0|34=77|49=INIT|52=20180925-13:13:50.567|56=ACCEPT|10=254|8=FIX.4.2|9=54|35=0|34=78|49=INIT|52=20180925-13:14:20.570|56=ACCEPT|10=247|8=FIX.4.2|9=54|35=0|34=79|49=INIT|52=20180925-13:14:50.573|56=ACCEPT|10=254|8=FIX.4.2|9=54|35=0|34=80|49=INIT|52=20180925-13:15:20.576|56=ACCEPT|10=247|8=FIX.4.2|9=54|35=0|34=81|49=INIT|52=20180925-13:15:50.579|56=ACCEPT|10=254|8=FIX.4.2|9=54|35=0|34=82|49=INIT|52=20180925-13:16:21.567|56=ACCEPT|10=251|8=FIX.4.2|9=54|35=0|34=83|49=INIT|52=20180925-13:16:51.570|56=ACCEPT|10=249|8=FIX.4.2|9=54|35=0|34=84|49=INIT|52=20180925-13:17:21.573|56=ACCEPT|10=251|8=FIX.4.2|9=54|35=0|34=85|49=INIT|52=20180925-13:17:51.576|56=ACCEPT|10=002|8=FIX.4.2|9=54|35=0|34=86|49=INIT|52=20180925-13:18:22.564|56=ACCEPT|10=255|8=FIX.4.2|9=54|35=0|34=87|49=INIT|52=20180925-13:18:52.567|56=ACCEPT|10=006|8=FIX.4.2|9=54|35=0|34=88|49=INIT|52=20180925-13:19:22.570|56=ACCEPT|10=255|8=FIX.4.2|9=54|35=0|34=89|49=INIT|52=20180925-13:19:52.573|56=ACCEPT|10=006|8=FIX.4.2|9=54|35=0|34=90|49=INIT|52=20180925-13:20:22.577|56=ACCEPT|10=247|8=FIX.4.2|9=54|35=0|34=91|49=INIT|52=20180925-13:20:53.564|56=ACCEPT|10=248|8=FIX.4.2|9=54|35=0|34=92|49=INIT|52=20180925-13:21:23.567|56=ACCEPT|10=250|8=FIX.4.2|9=54|35=0|34=93|49=INIT|52=20180925-13:21:53.570|56=ACCEPT|10=248|8=FIX.4.2|9=54|35=0|34=94|49=INIT|52=20180925-13:22:23.573|56=ACCEPT|10=250|8=FIX.4.2|9=54|35=0|34=95|49=INIT|52=20180925-13:22:53.576|56=ACCEPT|10=001|8=FIX.4.2|9=54|35=0|34=96|49=INIT|52=20180925-13:23:24.563|56=ACCEPT|10=253|8=FIX.4.2|9=54|35=0|34=97|49=INIT|52=20180925-13:23:54.567|56=ACCEPT|10=005|8=FIX.4.2|9=54|35=0|34=98|49=INIT|52=20180925-13:24:24.570|56=ACCEPT|10=254|8=FIX.4.2|9=54|35=0|34=99|49=INIT|52=20180925-13:24:54.572|56=ACCEPT|10=004|8=FIX.4.2|9=55|35=0|34=100|49=INIT|52=20180925-13:25:24.575|56=ACCEPT|10=037|8=FIX.4.2|9=55|35=0|34=101|49=INIT|52=20180925-13:25:55.564|56=ACCEPT|10=040|8=FIX.4.2|9=55|35=0|34=102|49=INIT|52=20180925-13:26:25.566|56=ACCEPT|10=041|8=FIX.4.2|9=55|35=0|34=103|49=INIT|52=20180925-13:26:55.569|56=ACCEPT|10=048|8=FIX.4.2|9=55|35=0|34=104|49=INIT|52=20180925-13:27:25.572|56=ACCEPT|10=041|8=FIX.4.2|9=55|35=0|34=105|49=INIT|52=20180925-13:27:55.575|56=ACCEPT|10=048|8=FIX.4.2|9=55|35=0|34=106|49=INIT|52=20180925-13:28:26.563|56=ACCEPT|10=045|8=FIX.4.2|9=55|35=0|34=107|49=INIT|52=20180925-13:28:56.566|56=ACCEPT|10=052|8=FIX.4.2|9=55|35=0|34=108|49=INIT|52=20180925-13:29:26.569|56=ACCEPT|10=054|8=FIX.4.2|9=55|35=0|34=109|49=INIT|52=20180925-13:29:56.573|56=ACCEPT|10=053|8=FIX.4.2|9=55|35=0|34=110|49=INIT|52=20180925-13:30:27.560|56=ACCEPT|10=031|8=FIX.4.2|9=55|35=0|34=111|49=INIT|52=20180925-13:30:57.563|56=ACCEPT|10=038|8=FIX.4.2|9=55|35=0|34=112|49=INIT|52=20180925-13:31:27.566|56=ACCEPT|10=040|8=FIX.4.2|9=55|35=0|34=113|49=INIT|52=20180925-13:31:57.569|56=ACCEPT|10=047|8=FIX.4.2|9=55|35=0|34=114|49=INIT|52=20180925-13:32:27.573|56=ACCEPT|10=041|8=FIX.4.2|9=55|35=0|34=115|49=INIT|52=20180925-13:32:58.560|56=ACCEPT|10=042|8=FIX.4.2|9=55|35=0|34=116|49=INIT|52=20180925-13:33:28.563|56=ACCEPT|10=044|8=FIX.4.2|9=55|35=0|34=117|49=INIT|52=20180925-13:33:58.566|56=ACCEPT|10=051|8=FIX.4.2|9=55|35=0|34=118|49=INIT|52=20180925-13:34:28.569|56=ACCEPT|10=053|8=FIX.4.2|9=55|35=0|34=119|49=INIT|52=20180925-13:34:58.572|56=ACCEPT|10=051|8=FIX.4.2|9=55|35=0|34=120|49=INIT|52=20180925-13:35:29.559|56=ACCEPT|10=047|8=FIX.4.2|9=55|35=0|34=121|49=INIT|52=20180925-13:35:59.562|56=ACCEPT|10=045|8=FIX.4.2|9=55|35=0|34=122|49=INIT|52=20180925-13:36:29.565|56=ACCEPT|10=047|8=FIX.4.2|9=55|35=0|34=123|49=INIT|52=20180925-13:36:59.568|56=ACCEPT|10=054|8=FIX.4.2|9=55|35=0|34=124|49=INIT|52=20180925-13:37:29.571|56=ACCEPT|10=047|8=FIX.4.2|9=55|35=0|34=125|49=INIT|52=20180925-13:38:00.559|56=ACCEPT|10=044|8=FIX.4.2|9=55|35=0|34=126|49=INIT|52=20180925-13:38:30.562|56=ACCEPT|10=042|8=FIX.4.2|9=55|35=0|34=127|49=INIT|52=20180925-13:39:00.565|56=ACCEPT|10=044|8=FIX.4.2|9=55|35=0|34=128|49=INIT|52=20180925-13:39:30.568|56=ACCEPT|10=051|8=FIX.4.2|9=55|35=0|34=129|49=INIT|52=20180925-13:40:01.556|56=ACCEPT|10=039|8=FIX.4.2|9=55|35=0|34=130|49=INIT|52=20180925-13:40:31.560|56=ACCEPT|10=029|8=FIX.4.2|9=55|35=0|34=131|49=INIT|52=20180925-13:41:01.563|56=ACCEPT|10=031|8=FIX.4.2|9=55|35=0|34=132|49=INIT|52=20180925-13:41:31.566|56=ACCEPT|10=038|8=FIX.4.2|9=55|35=0|34=133|49=INIT|52=20180925-13:42:01.569|56=ACCEPT|10=040|8=FIX.4.2|9=55|35=0|34=134|49=INIT|52=20180925-13:42:32.557|56=ACCEPT|10=042|8=FIX.4.2|9=55|35=0|34=135|49=INIT|52=20180925-13:43:02.560|56=ACCEPT|10=035|8=FIX.4.2|9=55|35=0|34=136|49=INIT|52=20180925-13:43:32.563|56=ACCEPT|10=042|8=FIX.4.2|9=55|35=0|34=137|49=INIT|52=20180925-13:44:02.566|56=ACCEPT|10=044|8=FIX.4.2|9=55|35=0|34=138|49=INIT|52=20180925-13:44:32.569|56=ACCEPT|10=051|8=FIX.4.2|9=55|35=0|34=139|49=INIT|52=20180925-13:45:03.557|56=ACCEPT|10=048|8=FIX.4.2|9=55|35=0|34=140|49=INIT|52=20180925-13:45:33.560|56=ACCEPT|10=037|8=FIX.4.2|9=55|35=0|34=141|49=INIT|52=20180925-13:46:03.563|56=ACCEPT|10=039|8=FIX.4.2|9=55|35=0|34=142|49=INIT|52=20180925-13:46:33.566|56=ACCEPT|10=046|8=FIX.4.2|9=55|35=0|34=143|49=INIT|52=20180925-13:47:04.553|56=ACCEPT|10=042|8=FIX.4.2|9=55|35=0|34=144|49=INIT|52=20180925-13:47:34.557|56=ACCEPT|10=050|8=FIX.4.2|9=55|35=0|34=145|49=INIT|52=20180925-13:48:04.559|56=ACCEPT|10=051|8=FIX.4.2|9=55|35=0|34=146|49=INIT|52=20180925-13:48:34.563|56=ACCEPT|10=050|8=FIX.4.2|9=55|35=0|34=147|49=INIT|52=20180925-13:49:04.565|56=ACCEPT|10=051|8=FIX.4.2|9=55|35=0|34=148|49=INIT|52=20180925-13:49:35.553|56=ACCEPT|10=053|8=FIX.4.2|9=55|35=0|34=149|49=INIT|52=20180925-13:50:05.555|56=ACCEPT|10=045|8=FIX.4.2|9=55|35=0|34=150|49=INIT|52=20180925-13:50:35.558|56=ACCEPT|10=043|8=FIX.4.2|9=55|35=0|34=151|49=INIT|52=20180925-13:51:05.561|56=ACCEPT|10=036|8=FIX.4.2|9=55|35=0|34=152|49=INIT|52=20180925-13:51:35.565|56=ACCEPT|10=044|8=FIX.4.2|9=55|35=0|34=153|49=INIT|52=20180925-13:52:06.553|56=ACCEPT|10=041|8=FIX.4.2|9=55|35=0|34=154|49=INIT|52=20180925-13:52:36.556|56=ACCEPT|10=048|8=FIX.4.2|9=55|35=0|34=155|49=INIT|52=20180925-13:53:06.559|56=ACCEPT|10=050|8=FIX.4.2|9=55|35=0|34=156|49=INIT|52=20180925-13:53:36.561|56=ACCEPT|10=047|8=FIX.4.2|9=55|35=0|34=157|49=INIT|52=20180925-13:54:07.549|56=ACCEPT|10=053|8=FIX.4.2|9=55|35=0|34=158|49=INIT|52=20180925-13:54:37.552|56=ACCEPT|10=051|8=FIX.4.2|9=55|35=0|34=159|49=INIT|52=20180925-13:55:07.555|56=ACCEPT|10=053|8=FIX.4.2|9=55|35=0|34=160|49=INIT|52=20180925-13:55:37.558|56=ACCEPT|10=051|8=FIX.4.2|9=55|35=0|34=161|49=INIT|52=20180925-13:56:07.561|56=ACCEPT|10=044|8=FIX.4.2|9=55|35=0|34=162|49=INIT|52=20180925-13:56:38.548|56=ACCEPT|10=054|8=FIX.4.2|9=55|35=0|34=163|49=INIT|52=20180925-13:57:08.552|56=ACCEPT|10=048|8=FIX.4.2|9=55|35=0|34=164|49=INIT|52=20180925-13:57:38.555|56=ACCEPT|10=055|8=FIX.4.2|9=55|35=0|34=165|49=INIT|52=20180925-13:58:08.557|56=ACCEPT|10=056|8=FIX.4.2|9=55|35=0|34=166|49=INIT|52=20180925-13:58:38.561|56=ACCEPT|10=055|8=FIX.4.2|9=55|35=0|34=167|49=INIT|52=20180925-13:59:09.548|56=ACCEPT|10=060|8=FIX.4.2|9=55|35=0|34=168|49=INIT|52=20180925-13:59:39.551|56=ACCEPT|10=058|8=FIX.4.2|9=55|35=0|34=169|49=INIT|52=20180925-14:00:09.554|56=ACCEPT|10=046|8=FIX.4.2|9=55|35=0|34=170|49=INIT|52=20180925-14:00:39.557|56=ACCEPT|10=044|8=FIX.4.2|9=55|35=0|34=171|49=INIT|52=20180925-14:01:09.560|56=ACCEPT|10=037|8=FIX.4.2|9=55|35=0|34=172|49=INIT|52=20180925-14:01:40.547|56=ACCEPT|10=038|8=FIX.4.2|9=55|35=0|34=173|49=INIT|52=20180925-14:02:10.550|56=ACCEPT|10=031|8=FIX.4.2|9=55|35=0|34=174|49=INIT|52=20180925-14:02:40.553|56=ACCEPT|10=038|8=FIX.4.2|9=55|35=0|34=175|49=INIT|52=20180925-14:03:10.556|56=ACCEPT|10=040|8=FIX.4.2|9=55|35=0|34=176|49=INIT|52=20180925-14:03:40.560|56=ACCEPT|10=039|8=FIX.4.2|9=55|35=0|34=177|49=INIT|52=20180925-14:04:11.547|56=ACCEPT|10=044|8=FIX.4.2|9=55|35=0|34=178|49=INIT|52=20180925-14:04:41.550|56=ACCEPT|10=042|8=FIX.4.2|9=55|35=0|34=179|49=INIT|52=20180925-14:05:11.553|56=ACCEPT|10=044|8=FIX.4.2|9=55|35=0|34=180|49=INIT|52=20180925-14:05:41.556|56=ACCEPT|10=042|8=FIX.4.2|9=55|35=0|34=181|49=INIT|52=20180925-14:06:11.559|56=ACCEPT|10=044|8=FIX.4.2|9=55|35=0|34=182|49=INIT|52=20180925-14:06:42.546|56=ACCEPT|10=045|8=FIX.4.2|9=55|35=0|34=183|49=INIT|52=20180925-14:07:12.549|56=ACCEPT|10=047|8=FIX.4.2|9=55|35=0|34=184|49=INIT|52=20180925-14:07:42.552|56=ACCEPT|10=045|8=FIX.4.2|9=55|35=0|34=185|49=INIT|52=20180925-14:08:12.555|56=ACCEPT|10=047|8=FIX.4.2|9=55|35=0|34=186|49=INIT|52=20180925-14:08:42.558|56=ACCEPT|10=054|8=FIX.4.2|9=55|35=0|34=187|49=INIT|52=20180925-14:09:13.546|56=ACCEPT|10=051|8=FIX.4.2|9=55|35=0|34=188|49=INIT|52=20180925-14:09:43.549|56=ACCEPT|10=058|8=FIX.4.2|9=55|35=0|34=189|49=INIT|52=20180925-14:10:13.552|56=ACCEPT|10=042|8=FIX.4.2|9=55|35=0|34=190|49=INIT|52=20180925-14:10:43.555|56=ACCEPT|10=040|8=FIX.4.2|9=55|35=0|34=191|49=INIT|52=20180925-14:11:14.543|56=ACCEPT|10=037|8=FIX.4.2|9=55|35=0|34=192|49=INIT|52=20180925-14:11:44.546|56=ACCEPT|10=044|8=FIX.4.2|9=55|35=0|34=193|49=INIT|52=20180925-14:12:14.550|56=ACCEPT|10=038|8=FIX.4.2|9=53|35=0|34=1|49=INIT|52=20180925-14:12:45.546|56=ACCEPT|10=193|8=FIX.4.2|9=53|35=0|34=2|49=INIT|52=20180925-14:13:15.549|56=ACCEPT|10=195|8=FIX.4.2|9=53|35=0|34=3|49=INIT|52=20180925-14:13:45.554|56=ACCEPT|10=195|8=FIX.4.2|9=1882|35=8|49=INIT|56=ACCEPT|34=4|52=20180925-14:14:01.254|37=5822107|17=One-USD_AGN-1662852-0-0-kpt1r|20=0|9690=16|9691=SBSIUS33|9692=B|9694=75.010|9693=1|9695=100000|9697=Done|7761=1|9691=ABO1MPID|9692=C|9694=97.000|9693=1|9695=250000|9697=Covered|7761=2|9691=WPACBIC|9692=B|9694=101.100|9693=1|9695=250000|9697=Missed|7761=3|9691=LAZA|9692=C|9694=104.400|9693=1|9695=250000|9696=Dealer response !! QuoteUpdate|9697=Missed|7761=4|9691=AASIUS33|9692=B|9694=106.900|9693=1|9695=250000|9696=Dealer response !! QuoteUpdate|9697=Missed|7761=5|9691=GMSG|9692=C|9694=108.700|9693=1|9695=250000|9696=Dealer response !! QuoteUpdate|9697=Missed|7761=6|9691=GUCPUSM1|9692=B|9694=114.500|9693=1|9695=250000|9696=Dealer response !! QuoteUpdate|9697=Missed|7761=7|9691=RBAIUS41XXX|9692=B|9694=115.500|9693=1|9695=250000|9696=Dealer response !! QuoteUpdate|9697=Missed|7761=8|9691=NITE|9692=B|9694=120.100|9693=1|9695=250000|9696=Dealer response !! QuoteUpdate|9697=Missed|7761=9|9691=ANZBUS33|9692=B|9696=Please Contact your ANZ Salesperson 1.|9697=Passed|7761=10|9691=CRLYUS33|9692=B|9697=Passed|7761=11|9691=CTBAAU2SFXD|9692=B|9696=None in TList|9697=Passed|7761=12|9691=RDOSUS31|9692=B|9697=Passed|7761=13|9691=GOLDUS33|9692=B|9697=Timed Out|7761=14|9691=FISA|9692=C|9697=Timed Out |7761=152|9691=ZKBKCHZZ80A|9692=B|9697=Timed Out|7761=153|109=STP Test Client, Inc.|76=SBSIUS33|11=JBZ1808061810142557|19=5822107-kn5lj|150=1|39=1|64=20180817|54=1|32=100000|31=75.010|151=770000|14=100000|6=75.010|9805=1076.723|9806=1153.787|5645=1077.612|9804=1077.612|5961=Price|75=20180815|60=20180815-12:06:36.284|381=75010.00|38=32|6655=250000|55=FIXED|22=4|48=USP79171AE79|200=202409|205=1|223=7.45|106=PROVINCE OF CORDOBA|6620=20170301|6659=20170301|107=CORDO  7.450  9/1/24 (URegS)|6608=13.657|6637=20240901|6611=3435.28|6612=78445.28|6609=MISC|6606=atrianine@marketxess.com|15=USD|120=USD|9947=citiustrade|10=159|8=FIX.4.2|9=53|35=0|34=5|49=INIT|52=20180925-14:14:31.552|56=ACCEPT|10=191|8=FIX.4.2|9=53|35=0|34=6|49=INIT|52=20180925-14:15:01.555|56=ACCEPT|10=193|8=FIX.4.2|9=53|35=0|34=7|49=INIT|52=20180925-14:15:32.542|56=ACCEPT|10=194|8=FIX.4.2|9=53|35=0|34=8|49=INIT|52=20180925-14:16:02.545|56=ACCEPT|10=196|8=FIX.4.2|9=53|35=0|34=9|49=INIT|52=20180925-14:16:32.548|56=ACCEPT|10=203|8=FIX.4.2|9=54|35=5|34=10|49=INIT|52=20180925-14:16:32.548|56=ACCEPT|10=249|8=FIX.4.2|9=82|35=A|34=1|49=INIT|52=20180925-14:22:54.551|56=ACCEPT|98=0|108=30|95=8|96=3.0.0rc4|10=115|8=FIX.4.2|9=53|35=0|34=2|49=INIT|52=20180925-14:23:24.772|56=ACCEPT|10=194|8=FIX.4.2|9=53|35=0|34=3|49=INIT|52=20180925-14:23:54.775|56=ACCEPT|10=201|8=FIX.4.2|9=53|35=0|34=4|49=INIT|52=20180925-14:24:24.784|56=ACCEPT|10=200|8=FIX.4.2|9=53|35=0|34=5|49=INIT|52=20180925-14:24:55.544|56=ACCEPT|10=199|8=FIX.4.2|9=53|35=0|34=6|49=INIT|52=20180925-14:25:25.775|56=ACCEPT|10=204|8=FIX.4.2|9=53|35=0|34=7|49=INIT|52=20180925-14:25:56.539|56=ACCEPT|10=207|8=FIX.4.2|9=53|35=0|34=8|49=INIT|52=20180925-14:26:26.774|56=ACCEPT|10=207|8=FIX.4.2|9=53|35=0|34=9|49=INIT|52=20180925-14:26:57.537|56=ACCEPT|10=209|8=FIX.4.2|9=54|35=0|34=10|49=INIT|52=20180925-14:27:27.537|56=ACCEPT|10=248|8=FIX.4.2|9=54|35=0|34=11|49=INIT|52=20180925-14:27:57.537|56=ACCEPT|10=252|8=FIX.4.2|9=54|35=0|34=12|49=INIT|52=20180925-14:28:27.772|56=ACCEPT|10=252|8=FIX.4.2|9=54|35=0|34=13|49=INIT|52=20180925-14:28:57.773|56=ACCEPT|10=001|8=FIX.4.2|9=54|35=0|34=14|49=INIT|52=20180925-14:29:27.774|56=ACCEPT|10=001|8=FIX.4.2|9=1883|35=8|49=INIT|56=ACCEPT|34=15|52=20180925-14:29:52.816|37=5822107|17=One-USD_AGN-1662852-0-0-kpt1r|20=0|9690=16|9691=SBSIUS33|9692=B|9694=75.010|9693=1|9695=100000|9697=Done|7761=1|9691=ABO1MPID|9692=C|9694=97.000|9693=1|9695=250000|9697=Covered|7761=2|9691=WPACBIC|9692=B|9694=101.100|9693=1|9695=250000|9697=Missed|7761=3|9691=LAZA|9692=C|9694=104.400|9693=1|9695=250000|9696=Dealer response !! QuoteUpdate|9697=Missed|7761=4|9691=AASIUS33|9692=B|9694=106.900|9693=1|9695=250000|9696=Dealer response !! QuoteUpdate|9697=Missed|7761=5|9691=GMSG|9692=C|9694=108.700|9693=1|9695=250000|9696=Dealer response !! QuoteUpdate|9697=Missed|7761=6|9691=GUCPUSM1|9692=B|9694=114.500|9693=1|9695=250000|9696=Dealer response !! QuoteUpdate|9697=Missed|7761=7|9691=RBAIUS41XXX|9692=B|9694=115.500|9693=1|9695=250000|9696=Dealer response !! QuoteUpdate|9697=Missed|7761=8|9691=NITE|9692=B|9694=120.100|9693=1|9695=250000|9696=Dealer response !! QuoteUpdate|9697=Missed|7761=9|9691=ANZBUS33|9692=B|9696=Please Contact your ANZ Salesperson 1.|9697=Passed|7761=10|9691=CRLYUS33|9692=B|9697=Passed|7761=11|9691=CTBAAU2SFXD|9692=B|9696=None in TList|9697=Passed|7761=12|9691=RDOSUS31|9692=B|9697=Passed|7761=13|9691=GOLDUS33|9692=B|9697=Timed Out|7761=14|9691=FISA|9692=C|9697=Timed Out |7761=152|9691=ZKBKCHZZ80A|9692=B|9697=Timed Out|7761=153|109=STP Test Client, Inc.|76=SBSIUS33|11=JBZ1808061810142557|19=5822107-kn5lj|150=1|39=1|64=20180817|54=1|32=100000|31=75.010|151=770000|14=100000|6=75.010|9805=1076.723|9806=1153.787|5645=1077.612|9804=1077.612|5961=Price|75=20180815|60=20180815-12:06:36.284|381=75010.00|38=32|6655=250000|55=FIXED|22=4|48=USP79171AE79|200=202409|205=1|223=7.45|106=PROVINCE OF CORDOBA|6620=20170301|6659=20170301|107=CORDO  7.450  9/1/24 (URegS)|6608=13.657|6637=20240901|6611=3435.28|6612=78445.28|6609=MISC|6606=atrianine@marketxess.com|15=USD|120=USD|9947=citiustrade|10=226|8=FIX.4.2|9=72|35=5|34=16|49=INIT|52=20180925-14:30:02.536|56=ACCEPT|58=user requested|10=081|8=FIX.4.2|9=83|35=A|34=17|49=INIT|52=20180925-14:30:13.101|56=ACCEPT|98=0|108=30|95=8|96=3.0.0rc4|10=156|8=FIX.4.2|9=1883|35=8|49=INIT|56=ACCEPT|34=18|52=20180925-14:30:30.136|37=5822107|17=One-USD_AGN-1662852-0-0-kpt1r|20=0|9690=16|9691=SBSIUS33|9692=B|9694=75.010|9693=1|9695=100000|9697=Done|7761=1|9691=ABO1MPID|9692=C|9694=97.000|9693=1|9695=250000|9697=Covered|7761=2|9691=WPACBIC|9692=B|9694=101.100|9693=1|9695=250000|9697=Missed|7761=3|9691=LAZA|9692=C|9694=104.400|9693=1|9695=250000|9696=Dealer response !! QuoteUpdate|9697=Missed|7761=4|9691=AASIUS33|9692=B|9694=106.900|9693=1|9695=250000|9696=Dealer response !! QuoteUpdate|9697=Missed|7761=5|9691=GMSG|9692=C|9694=108.700|9693=1|9695=250000|9696=Dealer response !! QuoteUpdate|9697=Missed|7761=6|9691=GUCPUSM1|9692=B|9694=114.500|9693=1|9695=250000|9696=Dealer response !! QuoteUpdate|9697=Missed|7761=7|9691=RBAIUS41XXX|9692=B|9694=115.500|9693=1|9695=250000|9696=Dealer response !! QuoteUpdate|9697=Missed|7761=8|9691=NITE|9692=B|9694=120.100|9693=1|9695=250000|9696=Dealer response !! QuoteUpdate|9697=Missed|7761=9|9691=ANZBUS33|9692=B|9696=Please Contact your ANZ Salesperson 1.|9697=Passed|7761=10|9691=CRLYUS33|9692=B|9697=Passed|7761=11|9691=CTBAAU2SFXD|9692=B|9696=None in TList|9697=Passed|7761=12|9691=RDOSUS31|9692=B|9697=Passed|7761=13|9691=GOLDUS33|9692=B|9697=Timed Out|7761=14|9691=FISA|9692=C|9697=Timed Out |7761=152|9691=ZKBKCHZZ80A|9692=B|9697=Timed Out|7761=153|109=STP Test Client, Inc.|76=SBSIUS33|11=JBZ1808061810142557|19=5822107-kn5lj|150=1|39=1|64=20180817|54=1|32=100000|31=75.010|151=770000|14=100000|6=75.010|9805=1076.723|9806=1153.787|5645=1077.612|9804=1077.612|5961=Price|75=20180815|60=20180815-12:06:36.284|381=75010.00|38=32|6655=250000|55=FIXED|22=4|48=USP79171AE79|200=202409|205=1|223=7.45|106=PROVINCE OF CORDOBA|6620=20170301|6659=20170301|107=CORDO  7.450  9/1/24 (URegS)|6608=13.657|6637=20240901|6611=3435.28|6612=78445.28|6609=MISC|6606=atrianine@marketxess.com|15=USD|120=USD|9947=citiustrade|10=212|8=FIX.4.2|9=54|35=0|34=19|49=INIT|52=20180925-14:31:01.099|56=ACCEPT|10=247|8=FIX.4.2|9=54|35=0|34=20|49=INIT|52=20180925-14:31:31.100|56=ACCEPT|10=225|8=FIX.4.2|9=54|35=0|34=21|49=INIT|52=20180925-14:32:01.109|56=ACCEPT|10=233|8=FIX.4.2|9=54|35=0|34=22|49=INIT|52=20180925-14:32:32.107|56=ACCEPT|10=236|8=FIX.4.2|9=54|35=0|34=23|49=INIT|52=20180925-14:33:02.112|56=ACCEPT|10=231|8=FIX.4.2|9=54|35=0|34=24|49=INIT|52=20180925-14:33:33.099|56=ACCEPT|10=250|8=FIX.4.2|9=54|35=0|34=25|49=INIT|52=20180925-14:34:03.100|56=ACCEPT|10=232|8=FIX.4.2|9=54|35=0|34=26|49=INIT|52=20180925-14:34:34.100|56=ACCEPT|10=237|8=FIX.4.2|9=54|35=0|34=27|49=INIT|52=20180925-14:35:05.106|56=ACCEPT|10=243|8=FIX.4.2|9=54|35=0|34=28|49=INIT|52=20180925-14:35:35.106|56=ACCEPT|10=247|8=FIX.4.2|9=54|35=0|34=29|49=INIT|52=20180925-14:36:06.104|56=ACCEPT|10=245|8=FIX.4.2|9=54|35=0|34=30|49=INIT|52=20180925-14:36:36.104|56=ACCEPT|10=240|8=FIX.4.2|9=54|35=0|34=31|49=INIT|52=20180925-14:37:07.102|56=ACCEPT|10=238|8=FIX.4.2|9=54|35=0|34=32|49=INIT|52=20180925-14:37:38.099|56=ACCEPT|10=002|8=FIX.4.2|9=54|35=0|34=33|49=INIT|52=20180925-14:38:08.110|56=ACCEPT|10=241|8=FIX.4.2|9=54|35=0|34=34|49=INIT|52=20180925-14:38:39.104|56=ACCEPT|10=249|8=FIX.4.2|9=54|35=0|34=35|49=INIT|52=20180925-14:39:10.099|56=ACCEPT|10=253|8=FIX.4.2|9=54|35=0|34=36|49=INIT|52=20180925-14:39:40.107|56=ACCEPT|10=247|8=FIX.4.2|9=54|35=0|34=37|49=INIT|52=20180925-14:40:11.107|56=ACCEPT|10=238|8=FIX.4.2|9=54|35=0|34=38|49=INIT|52=20180925-14:40:42.095|56=ACCEPT|10=249|8=FIX.4.2|9=54|35=0|34=39|49=INIT|52=20180925-14:41:12.096|56=ACCEPT|10=249|8=FIX.4.2|9=54|35=0|34=40|49=INIT|52=20180925-14:41:43.095|56=ACCEPT|10=244|8=FIX.4.2|9=54|35=0|34=41|49=INIT|52=20180925-14:42:14.095|56=ACCEPT|10=244|8=FIX.4.2|9=54|35=0|34=42|49=INIT|52=20180925-14:42:45.095|56=ACCEPT|10=249|8=FIX.4.2|9=54|35=0|34=43|49=INIT|52=20180925-14:43:15.095|56=ACCEPT|10=248|8=FIX.4.2|9=54|35=0|34=44|49=INIT|52=20180925-14:43:45.095|56=ACCEPT|10=252|8=FIX.4.2|9=54|35=0|34=45|49=INIT|52=20180925-14:44:16.095|56=ACCEPT|10=252|8=FIX.4.2|9=54|35=0|34=46|49=INIT|52=20180925-14:44:47.095|56=ACCEPT|10=001|8=FIX.4.2|9=54|35=0|34=47|49=INIT|52=20180925-14:45:17.095|56=ACCEPT|10=000|8=FIX.4.2|9=54|35=0|34=48|49=INIT|52=20180925-14:45:48.094|56=ACCEPT|10=004|8=FIX.4.2|9=54|35=0|34=49|49=INIT|52=20180925-14:46:19.094|56=ACCEPT|10=004|8=FIX.4.2|9=54|35=0|34=50|49=INIT|52=20180925-14:46:50.093|56=ACCEPT|10=246|8=FIX.4.2|9=54|35=0|34=51|49=INIT|52=20180925-14:47:20.093|56=ACCEPT|10=245|8=FIX.4.2|9=54|35=0|34=52|49=INIT|52=20180925-14:47:50.093|56=ACCEPT|10=249|8=FIX.4.2|9=54|35=0|34=53|49=INIT|52=20180925-14:48:20.093|56=ACCEPT|10=248|8=FIX.4.2|9=54|35=0|34=54|49=INIT|52=20180925-14:48:50.093|56=ACCEPT|10=252|8=FIX.4.2|9=54|35=0|34=55|49=INIT|52=20180925-14:49:21.091|56=ACCEPT|10=250|8=FIX.4.2|9=54|35=0|34=56|49=INIT|52=20180925-14:49:51.093|56=ACCEPT|10=000|8=FIX.4.2|9=54|35=0|34=57|49=INIT|52=20180925-14:50:22.092|56=ACCEPT|10=246|8=FIX.4.2|9=54|35=0|34=58|49=INIT|52=20180925-14:50:53.090|56=ACCEPT|10=249|8=FIX.4.2|9=54|35=0|34=59|49=INIT|52=20180925-14:51:23.091|56=ACCEPT|10=249|8=FIX.4.2|9=54|35=0|34=60|49=INIT|52=20180925-14:51:54.090|56=ACCEPT|10=244|8=FIX.4.2|9=54|35=0|34=61|49=INIT|52=20180925-14:52:24.090|56=ACCEPT|10=243|8=FIX.4.2|9=54|35=0|34=62|49=INIT|52=20180925-14:52:54.090|56=ACCEPT|10=247|8=FIX.4.2|9=1883|35=8|49=INIT|56=ACCEPT|34=63|52=20180925-14:53:23.514|37=5822107|17=One-USD_AGN-1662852-0-0-kpt1r|20=0|9690=16|9691=SBSIUS33|9692=B|9694=75.010|9693=1|9695=100000|9697=Done|7761=1|9691=ABO1MPID|9692=C|9694=97.000|9693=1|9695=250000|9697=Covered|7761=2|9691=WPACBIC|9692=B|9694=101.100|9693=1|9695=250000|9697=Missed|7761=3|9691=LAZA|9692=C|9694=104.400|9693=1|9695=250000|9696=Dealer response !! QuoteUpdate|9697=Missed|7761=4|9691=AASIUS33|9692=B|9694=106.900|9693=1|9695=250000|9696=Dealer response !! QuoteUpdate|9697=Missed|7761=5|9691=GMSG|9692=C|9694=108.700|9693=1|9695=250000|9696=Dealer response !! QuoteUpdate|9697=Missed|7761=6|9691=GUCPUSM1|9692=B|9694=114.500|9693=1|9695=250000|9696=Dealer response !! QuoteUpdate|9697=Missed|7761=7|9691=RBAIUS41XXX|9692=B|9694=115.500|9693=1|9695=250000|9696=Dealer response !! QuoteUpdate|9697=Missed|7761=8|9691=NITE|9692=B|9694=120.100|9693=1|9695=250000|9696=Dealer response !! QuoteUpdate|9697=Missed|7761=9|9691=ANZBUS33|9692=B|9696=Please Contact your ANZ Salesperson 1.|9697=Passed|7761=10|9691=CRLYUS33|9692=B|9697=Passed|7761=11|9691=CTBAAU2SFXD|9692=B|9696=None in TList|9697=Passed|7761=12|9691=RDOSUS31|9692=B|9697=Passed|7761=13|9691=GOLDUS33|9692=B|9697=Timed Out|7761=14|9691=FISA|9692=C|9697=Timed Out |7761=152|9691=ZKBKCHZZ80A|9692=B|9697=Timed Out|7761=153|109=STP Test Client, Inc.|76=SBSIUS33|11=JBZ1808061810142557|19=5822107-kn5lj|150=1|39=1|64=20180817|54=1|32=100000|31=75.010|151=770000|14=100000|6=75.010|9805=1076.723|9806=1153.787|5645=1077.612|9804=1077.612|5961=Price|75=20180815|60=20180815-12:06:36.284|381=75010.00|38=32|6655=250000|55=FIXED|22=4|48=USP79171AE79|200=202409|205=1|223=7.45|106=PROVINCE OF CORDOBA|6620=20170301|6659=20170301|107=CORDO  7.450  9/1/24 (URegS)|6608=13.657|6637=20240901|6611=3435.28|6612=78445.28|6609=MISC|6606=atrianine@marketxess.com|15=USD|120=USD|9947=citiustrade|10=219|8=FIX.4.2|9=54|35=0|34=64|49=INIT|52=20180925-14:53:54.088|56=ACCEPT|10=001|8=FIX.4.2|9=54|35=0|34=65|49=INIT|52=20180925-14:54:24.088|56=ACCEPT|10=000|8=FIX.4.2|9=54|35=0|34=66|49=INIT|52=20180925-14:54:54.089|56=ACCEPT|10=005|8=FIX.4.2|9=54|35=0|34=67|49=INIT|52=20180925-14:55:25.088|56=ACCEPT|10=004|8=FIX.4.2|9=54|35=0|34=68|49=INIT|52=20180925-14:55:55.088|56=ACCEPT|10=008|8=FIX.4.2|9=54|35=0|34=69|49=INIT|52=20180925-14:56:26.088|56=ACCEPT|10=008|8=FIX.4.2|9=54|35=0|34=70|49=INIT|52=20180925-14:56:57.088|56=ACCEPT|10=004|8=FIX.4.2|9=54|35=0|34=71|49=INIT|52=20180925-14:57:28.088|56=ACCEPT|10=004|8=FIX.4.2|9=1883|35=8|49=INIT|56=ACCEPT|34=72|52=20180925-14:57:52.867|37=5822107|17=One-USD_AGN-1662852-0-0-kpt1r|20=0|9690=16|9691=SBSIUS33|9692=B|9694=75.010|9693=1|9695=100000|9697=Done|7761=1|9691=ABO1MPID|9692=C|9694=97.000|9693=1|9695=250000|9697=Covered|7761=2|9691=WPACBIC|9692=B|9694=101.100|9693=1|9695=250000|9697=Missed|7761=3|9691=LAZA|9692=C|9694=104.400|9693=1|9695=250000|9696=Dealer response !! QuoteUpdate|9697=Missed|7761=4|9691=AASIUS33|9692=B|9694=106.900|9693=1|9695=250000|9696=Dealer response !! QuoteUpdate|9697=Missed|7761=5|9691=GMSG|9692=C|9694=108.700|9693=1|9695=250000|9696=Dealer response !! QuoteUpdate|9697=Missed|7761=6|9691=GUCPUSM1|9692=B|9694=114.500|9693=1|9695=250000|9696=Dealer response !! QuoteUpdate|9697=Missed|7761=7|9691=RBAIUS41XXX|9692=B|9694=115.500|9693=1|9695=250000|9696=Dealer response !! QuoteUpdate|9697=Missed|7761=8|9691=NITE|9692=B|9694=120.100|9693=1|9695=250000|9696=Dealer response !! QuoteUpdate|9697=Missed|7761=9|9691=ANZBUS33|9692=B|9696=Please Contact your ANZ Salesperson 1.|9697=Passed|7761=10|9691=CRLYUS33|9692=B|9697=Passed|7761=11|9691=CTBAAU2SFXD|9692=B|9696=None in TList|9697=Passed|7761=12|9691=RDOSUS31|9692=B|9697=Passed|7761=13|9691=GOLDUS33|9692=B|9697=Timed Out|7761=14|9691=FISA|9692=C|9697=Timed Out |7761=152|9691=ZKBKCHZZ80A|9692=B|9697=Timed Out|7761=153|109=STP Test Client, Inc.|76=SBSIUS33|11=JBZ1808061810142557|19=5822107-kn5lj|150=1|39=1|64=20180817|54=1|32=100000|31=75.010|151=770000|14=100000|6=75.010|9805=1076.723|9806=1153.787|5645=1077.612|9804=1077.612|5961=Price|75=20180815|60=20180815-12:06:36.284|381=75010.00|38=32|6655=250000|55=FIXED|22=4|48=USP79171AE79|200=202409|205=1|223=7.45|106=PROVINCE OF CORDOBA|6620=20170301|6659=20170301|107=CORDO  7.450  9/1/24 (URegS)|6608=13.657|6637=20240901|6611=3435.28|6612=78445.28|6609=MISC|6606=atrianine@marketxess.com|15=USD|120=USD|9947=citiustrade|10=236|8=FIX.4.2|9=54|35=0|34=73|49=INIT|52=20180925-14:58:23.087|56=ACCEPT|10=001|8=FIX.4.2|9=54|35=0|34=74|49=INIT|52=20180925-14:58:53.088|56=ACCEPT|10=006|8=FIX.4.2|9=54|35=0|34=75|49=INIT|52=20180925-14:59:24.086|56=ACCEPT|10=004|8=FIX.4.2|9=54|35=0|34=76|49=INIT|52=20180925-14:59:54.086|56=ACCEPT|10=008|8=FIX.4.2|9=54|35=0|34=77|49=INIT|52=20180925-15:00:24.086|56=ACCEPT|10=249|8=FIX.4.2|9=54|35=0|34=78|49=INIT|52=20180925-15:00:54.086|56=ACCEPT|10=253|8=FIX.4.2|9=54|35=0|34=79|49=INIT|52=20180925-15:01:24.086|56=ACCEPT|10=252|8=FIX.4.2|9=54|35=0|34=80|49=INIT|52=20180925-15:01:54.086|56=ACCEPT|10=247|8=FIX.4.2|9=54|35=0|34=81|49=INIT|52=20180925-15:02:24.086|56=ACCEPT|10=246|8=FIX.4.2|9=54|35=0|34=82|49=INIT|52=20180925-15:02:55.086|56=ACCEPT|10=251|8=FIX.4.2|9=54|35=0|34=83|49=INIT|52=20180925-15:03:26.085|56=ACCEPT|10=250|8=FIX.4.2|9=54|35=0|34=84|49=INIT|52=20180925-15:03:56.086|56=ACCEPT|10=255|8=FIX.4.2|9=54|35=0|34=85|49=INIT|52=20180925-15:04:27.085|56=ACCEPT|10=254|8=FIX.4.2|9=54|35=5|34=86|49=INIT|52=20180925-15:04:35.869|56=ACCEPT|10=013|8=FIX.4.2|9=1883|35=8|49=INIT|56=ACCEPT|34=87|52=20180925-15:04:48.332|37=5822107|17=One-USD_AGN-1662852-0-0-kpt1r|20=0|9690=16|9691=SBSIUS33|9692=B|9694=75.010|9693=1|9695=100000|9697=Done|7761=1|9691=ABO1MPID|9692=C|9694=97.000|9693=1|9695=250000|9697=Covered|7761=2|9691=WPACBIC|9692=B|9694=101.100|9693=1|9695=250000|9697=Missed|7761=3|9691=LAZA|9692=C|9694=104.400|9693=1|9695=250000|9696=Dealer response !! QuoteUpdate|9697=Missed|7761=4|9691=AASIUS33|9692=B|9694=106.900|9693=1|9695=250000|9696=Dealer response !! QuoteUpdate|9697=Missed|7761=5|9691=GMSG|9692=C|9694=108.700|9693=1|9695=250000|9696=Dealer response !! QuoteUpdate|9697=Missed|7761=6|9691=GUCPUSM1|9692=B|9694=114.500|9693=1|9695=250000|9696=Dealer response !! QuoteUpdate|9697=Missed|7761=7|9691=RBAIUS41XXX|9692=B|9694=115.500|9693=1|9695=250000|9696=Dealer response !! QuoteUpdate|9697=Missed|7761=8|9691=NITE|9692=B|9694=120.100|9693=1|9695=250000|9696=Dealer response !! QuoteUpdate|9697=Missed|7761=9|9691=ANZBUS33|9692=B|9696=Please Contact your ANZ Salesperson 1.|9697=Passed|7761=10|9691=CRLYUS33|9692=B|9697=Passed|7761=11|9691=CTBAAU2SFXD|9692=B|9696=None in TList|9697=Passed|7761=12|9691=RDOSUS31|9692=B|9697=Passed|7761=13|9691=GOLDUS33|9692=B|9697=Timed Out|7761=14|9691=FISA|9692=C|9697=Timed Out |7761=152|9691=ZKBKCHZZ80A|9692=B|9697=Timed Out|7761=153|109=STP Test Client, Inc.|76=SBSIUS33|11=JBZ1808061810142557|19=5822107-kn5lj|150=1|39=1|64=20180817|54=1|32=100000|31=75.010|151=770000|14=100000|6=75.010|9805=1076.723|9806=1153.787|5645=1077.612|9804=1077.612|5961=Price|75=20180815|60=20180815-12:06:36.284|381=75010.00|38=32|6655=250000|55=FIXED|22=4|48=USP79171AE79|200=202409|205=1|223=7.45|106=PROVINCE OF CORDOBA|6620=20170301|6659=20170301|107=CORDO  7.450  9/1/24 (URegS)|6608=13.657|6637=20240901|6611=3435.28|6612=78445.28|6609=MISC|6606=atrianine@marketxess.com|15=USD|120=USD|9947=citiustrade|10=227|8=FIX.4.2|9=83|35=A|34=88|49=INIT|52=20180925-15:07:46.757|56=ACCEPT|98=0|108=30|95=8|96=3.0.0rc4|10=192|8=FIX.4.2|9=54|35=0|34=89|49=INIT|52=20180925-15:08:17.752|56=ACCEPT|10=006|8=FIX.4.2|9=63|35=1|34=90|49=INIT|52=20180925-15:08:32.751|56=ACCEPT|112=TEST|10=013|8=FIX.4.2|9=64|35=2|34=91|49=INIT|52=20180925-15:08:32.758|56=ACCEPT|7=88|16=0|10=191|8=FIX.4.2|9=54|35=0|34=92|49=INIT|52=20180925-15:09:03.750|56=ACCEPT|10=250|8=FIX.4.2|9=1883|35=8|49=INIT|56=ACCEPT|34=93|52=20180925-15:09:23.295|37=5822107|17=One-USD_AGN-1662852-0-0-kpt1r|20=0|9690=16|9691=SBSIUS33|9692=B|9694=75.010|9693=1|9695=100000|9697=Done|7761=1|9691=ABO1MPID|9692=C|9694=97.000|9693=1|9695=250000|9697=Covered|7761=2|9691=WPACBIC|9692=B|9694=101.100|9693=1|9695=250000|9697=Missed|7761=3|9691=LAZA|9692=C|9694=104.400|9693=1|9695=250000|9696=Dealer response !! QuoteUpdate|9697=Missed|7761=4|9691=AASIUS33|9692=B|9694=106.900|9693=1|9695=250000|9696=Dealer response !! QuoteUpdate|9697=Missed|7761=5|9691=GMSG|9692=C|9694=108.700|9693=1|9695=250000|9696=Dealer response !! QuoteUpdate|9697=Missed|7761=6|9691=GUCPUSM1|9692=B|9694=114.500|9693=1|9695=250000|9696=Dealer response !! QuoteUpdate|9697=Missed|7761=7|9691=RBAIUS41XXX|9692=B|9694=115.500|9693=1|9695=250000|9696=Dealer response !! QuoteUpdate|9697=Missed|7761=8|9691=NITE|9692=B|9694=120.100|9693=1|9695=250000|9696=Dealer response !! QuoteUpdate|9697=Missed|7761=9|9691=ANZBUS33|9692=B|9696=Please Contact your ANZ Salesperson 1.|9697=Passed|7761=10|9691=CRLYUS33|9692=B|9697=Passed|7761=11|9691=CTBAAU2SFXD|9692=B|9696=None in TList|9697=Passed|7761=12|9691=RDOSUS31|9692=B|9697=Passed|7761=13|9691=GOLDUS33|9692=B|9697=Timed Out|7761=14|9691=FISA|9692=C|9697=Timed Out |7761=152|9691=ZKBKCHZZ80A|9692=B|9697=Timed Out|7761=153|109=STP Test Client, Inc.|76=SBSIUS33|11=JBZ1808061810142557|19=5822107-kn5lj|150=1|39=1|64=20180817|54=1|32=100000|31=75.010|151=770000|14=100000|6=75.010|9805=1076.723|9806=1153.787|5645=1077.612|9804=1077.612|5961=Price|75=20180815|60=20180815-12:06:36.284|381=75010.00|38=32|6655=250000|55=FIXED|22=4|48=USP79171AE79|200=202409|205=1|223=7.45|106=PROVINCE OF CORDOBA|6620=20170301|6659=20170301|107=CORDO  7.450  9/1/24 (URegS)|6608=13.657|6637=20240901|6611=3435.28|6612=78445.28|6609=MISC|6606=atrianine@marketxess.com|15=USD|120=USD|9947=citiustrade|10=230|8=FIX.4.2|9=54|35=0|34=94|49=INIT|52=20180925-15:09:53.750|56=ACCEPT|10=001|8=FIX.4.2|9=54|35=0|34=95|49=INIT|52=20180925-15:10:24.749|56=ACCEPT|10=000|8=FIX.4.2|9=54|35=0|34=96|49=INIT|52=20180925-15:10:54.750|56=ACCEPT|10=252|8=FIX.4.2|9=1869|35=8|49=INIT|56=ACCEPT|34=97|52=20180925-15:10:59.645|37=5822107|17=One-USD_AGN-1662852-0-0-kpt1r|20=0|9690=16|9691=SBSIUS33|9692=B|9694=75.010|9693=1|9695=100000|9697=Done|7761=1|9691=ABO1MPID|9692=C|9694=97.000|9693=1|9695=250000|9697=Covered|7761=2|9691=WPACBIC|9692=B|9694=101.100|9693=1|9695=250000|9697=Missed|7761=3|9691=LAZA|9692=C|9694=104.400|9693=1|9695=250000|9696=Dealer response !! QuoteUpdate|9697=Missed|7761=4|9691=AASIUS33|9692=B|9694=106.900|9693=1|9695=250000|9696=Dealer response !! QuoteUpdate|9697=Missed|7761=5|9691=GMSG|9692=C|9694=108.700|9693=1|9695=250000|9696=Dealer response !! QuoteUpdate|9697=Missed|7761=6|9691=GUCPUSM1|9692=B|9694=114.500|9693=1|9695=250000|9696=Dealer response !! QuoteUpdate|9697=Missed|7761=7|9691=RBAIUS41XXX|9692=B|9694=115.500|9693=1|9695=250000|9696=Dealer response !! QuoteUpdate|9697=Missed|7761=8|9691=NITE|9692=B|9694=120.100|9693=1|9695=250000|9696=Dealer response !! QuoteUpdate|9697=Missed|7761=9|9691=ANZBUS33|9692=B|9696=Please Contact your ANZ Salesperson 1.|9697=Passed|7761=10|9691=CRLYUS33|9692=B|9697=Passed|7761=11|9691=CTBAAU2SFXD|9692=B|9696=None in TList|9697=Passed|7761=12|9691=RDOSUS31|9692=B|9697=Passed|7761=13|9691=GOLDUS33|9692=B|9697=Timed Out|7761=14|9691=FISA|9692=C|9697=Timed Out |7761=152|9691=ZKBKCHZZ80A|9692=B|9697=Timed Out|7761=153|109=STP Test Client, Inc.|76=SBSIUS33|11=JBZ1808061810142557|19=5822107-kn5lj|150=1|39=1|64=20180817|54=1|32=100000|31=75.010|151=770000|14=100000|6=75.010|9805=1076.723|9806=1153.787|5645=1077.612|5961=Price|75=20180815|60=20180815-12:06:36.284|381=75010.00|38=32|6655=250000|55=FIXED|22=4|48=USP79171AE79|200=202409|205=1|223=7.45|106=PROVINCE OF CORDOBA|6620=20170301|6659=20170301|107=CORDO  7.450  9/1/24 (URegS)|6608=13.657|6637=20240901|6611=3435.28|6612=78445.28|6609=MISC|6606=atrianine@marketxess.com|15=USD|120=USD|9947=citiustrade|10=069|8=FIX.4.2|9=54|35=0|34=98|49=INIT|52=20180925-15:11:29.749|56=ACCEPT|10=009|8=FIX.4.2|9=54|35=0|34=99|49=INIT|52=20180925-15:11:59.749|56=ACCEPT|10=013|8=FIX.4.2|9=55|35=0|34=100|49=INIT|52=20180925-15:12:29.749|56=ACCEPT|10=043|8=FIX.4.2|9=55|35=0|34=101|49=INIT|52=20180925-15:12:59.749|56=ACCEPT|10=047|8=FIX.4.2|9=55|35=0|34=102|49=INIT|52=20180925-15:13:30.748|56=ACCEPT|10=037|8=FIX.4.2|9=55|35=0|34=103|49=INIT|52=20180925-15:14:00.749|56=ACCEPT|10=037|8=FIX.4.2|9=55|35=0|34=104|49=INIT|52=20180925-15:14:31.749|56=ACCEPT|10=042|8=FIX.4.2|9=55|35=0|34=105|49=INIT|52=20180925-15:15:02.747|56=ACCEPT|10=040|8=FIX.4.2|9=1870|35=8|49=INIT|56=ACCEPT|34=106|52=20180925-15:15:27.494|37=5822107|17=One-USD_AGN-1662852-0-0-kpt1r|20=0|9690=16|9691=SBSIUS33|9692=B|9694=75.010|9693=1|9695=100000|9697=Done|7761=1|9691=ABO1MPID|9692=C|9694=97.000|9693=1|9695=250000|9697=Covered|7761=2|9691=WPACBIC|9692=B|9694=101.100|9693=1|9695=250000|9697=Missed|7761=3|9691=LAZA|9692=C|9694=104.400|9693=1|9695=250000|9696=Dealer response !! QuoteUpdate|9697=Missed|7761=4|9691=AASIUS33|9692=B|9694=106.900|9693=1|9695=250000|9696=Dealer response !! QuoteUpdate|9697=Missed|7761=5|9691=GMSG|9692=C|9694=108.700|9693=1|9695=250000|9696=Dealer response !! QuoteUpdate|9697=Missed|7761=6|9691=GUCPUSM1|9692=B|9694=114.500|9693=1|9695=250000|9696=Dealer response !! QuoteUpdate|9697=Missed|7761=7|9691=RBAIUS41XXX|9692=B|9694=115.500|9693=1|9695=250000|9696=Dealer response !! QuoteUpdate|9697=Missed|7761=8|9691=NITE|9692=B|9694=120.100|9693=1|9695=250000|9696=Dealer response !! QuoteUpdate|9697=Missed|7761=9|9691=ANZBUS33|9692=B|9696=Please Contact your ANZ Salesperson 1.|9697=Passed|7761=10|9691=CRLYUS33|9692=B|9697=Passed|7761=11|9691=CTBAAU2SFXD|9692=B|9696=None in TList|9697=Passed|7761=12|9691=RDOSUS31|9692=B|9697=Passed|7761=13|9691=GOLDUS33|9692=B|9697=Timed Out|7761=14|9691=FISA|9692=C|9697=Timed Out |7761=152|9691=ZKBKCHZZ80A|9692=B|9697=Timed Out|7761=153|109=STP Test Client, Inc.|76=SBSIUS33|11=JBZ1808061810142557|19=5822107-kn5lj|150=1|39=1|64=20180817|54=1|32=100000|31=75.010|151=770000|14=100000|6=75.010|9805=1076.723|9806=1153.787|5645=1077.612|5961=Price|75=20180815|60=20180815-12:06:36.284|381=75010.00|38=32|6655=250000|55=FIXED|22=4|48=USP79171AE79|200=202409|205=1|223=7.45|106=PROVINCE OF CORDOBA|6620=20170301|6659=20170301|107=CORDO  7.450  9/1/24 (URegS)|6608=13.657|6637=20240901|6611=3435.28|6612=78445.28|6609=MISC|6606=atrianine@marketxess.com|15=USD|120=USD|9947=citiustrade|10=102|8=FIX.4.2|9=1870|35=8|49=INIT|56=ACCEPT|34=107|52=20180925-15:15:41.790|37=5822107|17=One-USD_AGN-1662852-0-0-kpt1r|20=0|9690=16|9691=SBSIUS33|9692=B|9694=75.010|9693=1|9695=100000|9697=Done|7761=1|9691=ABO1MPID|9692=C|9694=97.000|9693=1|9695=250000|9697=Covered|7761=2|9691=WPACBIC|9692=B|9694=101.100|9693=1|9695=250000|9697=Missed|7761=3|9691=LAZA|9692=C|9694=104.400|9693=1|9695=250000|9696=Dealer response !! QuoteUpdate|9697=Missed|7761=4|9691=AASIUS33|9692=B|9694=106.900|9693=1|9695=250000|9696=Dealer response !! QuoteUpdate|9697=Missed|7761=5|9691=GMSG|9692=C|9694=108.700|9693=1|9695=250000|9696=Dealer response !! QuoteUpdate|9697=Missed|7761=6|9691=GUCPUSM1|9692=B|9694=114.500|9693=1|9695=250000|9696=Dealer response !! QuoteUpdate|9697=Missed|7761=7|9691=RBAIUS41XXX|9692=B|9694=115.500|9693=1|9695=250000|9696=Dealer response !! QuoteUpdate|9697=Missed|7761=8|9691=NITE|9692=B|9694=120.100|9693=1|9695=250000|9696=Dealer response !! QuoteUpdate|9697=Missed|7761=9|9691=ANZBUS33|9692=B|9696=Please Contact your ANZ Salesperson 1.|9697=Passed|7761=10|9691=CRLYUS33|9692=B|9697=Passed|7761=11|9691=CTBAAU2SFXD|9692=B|9696=None in TList|9697=Passed|7761=12|9691=RDOSUS31|9692=B|9697=Passed|7761=13|9691=GOLDUS33|9692=B|9697=Timed Out|7761=14|9691=FISA|9692=C|9697=Timed Out |7761=152|9691=ZKBKCHZZ80A|9692=B|9697=Timed Out|7761=153|109=STP Test Client, Inc.|76=SBSIUS33|11=JBZ1808061810142557|19=5822107-kn5lj|150=1|39=1|64=20180817|54=1|32=100000|31=75.010|151=770000|14=100000|6=75.010|9805=1076.723|9806=1153.787|5645=1077.612|5961=Price|75=20180815|60=20180815-12:06:36.284|381=75010.00|38=32|6655=250000|55=FIXED|22=4|48=USP79171AE79|200=202409|205=1|223=7.45|106=PROVINCE OF CORDOBA|6620=20170301|6659=20170301|107=CORDO  7.450  9/1/24 (URegS)|6608=13.657|6637=20240901|6611=3435.28|6612=78445.28|6609=MISC|6606=atrianine@marketxess.com|15=USD|120=USD|9947=citiustrade|10=098|8=FIX.4.2|9=73|35=5|34=108|49=INIT|52=20180925-15:15:46.748|56=ACCEPT|58=user requested|10=149|8=FIX.4.2|9=84|35=A|34=109|49=INIT|52=20180925-15:16:36.863|56=ACCEPT|98=0|108=30|95=8|96=3.0.0rc4|10=232|8=FIX.4.2|9=65|35=2|34=110|49=INIT|52=20180925-15:16:36.903|56=ACCEPT|7=89|16=0|10=228|8=FIX.4.2|9=1870|35=8|49=INIT|56=ACCEPT|34=111|52=20180925-15:17:03.839|37=5822107|17=One-USD_AGN-1662852-0-0-kpt1r|20=0|9690=16|9691=SBSIUS33|9692=B|9694=75.010|9693=1|9695=100000|9697=Done|7761=1|9691=ABO1MPID|9692=C|9694=97.000|9693=1|9695=250000|9697=Covered|7761=2|9691=WPACBIC|9692=B|9694=101.100|9693=1|9695=250000|9697=Missed|7761=3|9691=LAZA|9692=C|9694=104.400|9693=1|9695=250000|9696=Dealer response !! QuoteUpdate|9697=Missed|7761=4|9691=AASIUS33|9692=B|9694=106.900|9693=1|9695=250000|9696=Dealer response !! QuoteUpdate|9697=Missed|7761=5|9691=GMSG|9692=C|9694=108.700|9693=1|9695=250000|9696=Dealer response !! QuoteUpdate|9697=Missed|7761=6|9691=GUCPUSM1|9692=B|9694=114.500|9693=1|9695=250000|9696=Dealer response !! QuoteUpdate|9697=Missed|7761=7|9691=RBAIUS41XXX|9692=B|9694=115.500|9693=1|9695=250000|9696=Dealer response !! QuoteUpdate|9697=Missed|7761=8|9691=NITE|9692=B|9694=120.100|9693=1|9695=250000|9696=Dealer response !! QuoteUpdate|9697=Missed|7761=9|9691=ANZBUS33|9692=B|9696=Please Contact your ANZ Salesperson 1.|9697=Passed|7761=10|9691=CRLYUS33|9692=B|9697=Passed|7761=11|9691=CTBAAU2SFXD|9692=B|9696=None in TList|9697=Passed|7761=12|9691=RDOSUS31|9692=B|9697=Passed|7761=13|9691=GOLDUS33|9692=B|9697=Timed Out|7761=14|9691=FISA|9692=C|9697=Timed Out |7761=152|9691=ZKBKCHZZ80A|9692=B|9697=Timed Out|7761=153|109=STP Test Client, Inc.|76=SBSIUS33|11=JBZ1808061810142557|19=5822107-kn5lj|150=1|39=1|64=20180817|54=1|32=100000|31=75.010|151=770000|14=100000|6=75.010|9805=1076.723|9806=1153.787|5645=1077.612|5961=Price|75=20180815|60=20180815-12:06:36.284|381=75010.00|38=32|6655=250000|55=FIXED|22=4|48=USP79171AE79|200=202409|205=1|223=7.45|106=PROVINCE OF CORDOBA|6620=20170301|6659=20170301|107=CORDO  7.450  9/1/24 (URegS)|6608=13.657|6637=20240901|6611=3435.28|6612=78445.28|6609=MISC|6606=atrianine@marketxess.com|15=USD|120=USD|9947=citiustrade|10=097|8=FIX.4.2|9=1870|35=8|49=INIT|56=ACCEPT|34=112|52=20180925-15:17:30.457|37=5822107|17=One-USD_AGN-1662852-0-0-kpt1r|20=0|9690=16|9691=SBSIUS33|9692=B|9694=75.010|9693=1|9695=100000|9697=Done|7761=1|9691=ABO1MPID|9692=C|9694=97.000|9693=1|9695=250000|9697=Covered|7761=2|9691=WPACBIC|9692=B|9694=101.100|9693=1|9695=250000|9697=Missed|7761=3|9691=LAZA|9692=C|9694=104.400|9693=1|9695=250000|9696=Dealer response !! QuoteUpdate|9697=Missed|7761=4|9691=AASIUS33|9692=B|9694=106.900|9693=1|9695=250000|9696=Dealer response !! QuoteUpdate|9697=Missed|7761=5|9691=GMSG|9692=C|9694=108.700|9693=1|9695=250000|9696=Dealer response !! QuoteUpdate|9697=Missed|7761=6|9691=GUCPUSM1|9692=B|9694=114.500|9693=1|9695=250000|9696=Dealer response !! QuoteUpdate|9697=Missed|7761=7|9691=RBAIUS41XXX|9692=B|9694=115.500|9693=1|9695=250000|9696=Dealer response !! QuoteUpdate|9697=Missed|7761=8|9691=NITE|9692=B|9694=120.100|9693=1|9695=250000|9696=Dealer response !! QuoteUpdate|9697=Missed|7761=9|9691=ANZBUS33|9692=B|9696=Please Contact your ANZ Salesperson 1.|9697=Passed|7761=10|9691=CRLYUS33|9692=B|9697=Passed|7761=11|9691=CTBAAU2SFXD|9692=B|9696=None in TList|9697=Passed|7761=12|9691=RDOSUS31|9692=B|9697=Passed|7761=13|9691=GOLDUS33|9692=B|9697=Timed Out|7761=14|9691=FISA|9692=C|9697=Timed Out |7761=152|9691=ZKBKCHZZ80A|9692=B|9697=Timed Out|7761=153|109=STP Test Client, Inc.|76=SBSIUS33|11=JBZ1808061810142557|19=5822107-kn5lj|150=1|39=1|64=20180817|54=1|32=100000|31=75.010|151=770000|14=100000|6=75.010|9805=1076.723|9806=1153.787|5645=1077.612|5961=Price|75=20180815|60=20180815-12:06:36.284|381=75010.00|38=32|6655=250000|55=FIXED|22=4|48=USP79171AE79|200=202409|205=1|223=7.45|106=PROVINCE OF CORDOBA|6620=20170301|6659=20170301|107=CORDO  7.450  9/1/24 (URegS)|6608=13.657|6637=20240901|6611=3435.28|6612=78445.28|6609=MISC|6606=atrianine@marketxess.com|15=USD|120=USD|9947=citiustrade|10=094|8=FIX.4.2|9=73|35=5|34=113|49=INIT|52=20180925-15:17:44.860|56=ACCEPT|58=user requested|10=140|8=FIX.4.2|9=84|35=A|34=114|49=INIT|52=20180925-15:17:50.324|56=ACCEPT|98=0|108=30|95=8|96=3.0.0rc4|10=217|8=FIX.4.2|9=1870|35=8|49=INIT|56=ACCEPT|34=115|52=20180925-15:18:02.525|37=5822107|17=One-USD_AGN-1662852-0-0-kpt1r|20=0|9690=16|9691=SBSIUS33|9692=B|9694=75.010|9693=1|9695=100000|9697=Done|7761=1|9691=ABO1MPID|9692=C|9694=97.000|9693=1|9695=250000|9697=Covered|7761=2|9691=WPACBIC|9692=B|9694=101.100|9693=1|9695=250000|9697=Missed|7761=3|9691=LAZA|9692=C|9694=104.400|9693=1|9695=250000|9696=Dealer response !! QuoteUpdate|9697=Missed|7761=4|9691=AASIUS33|9692=B|9694=106.900|9693=1|9695=250000|9696=Dealer response !! QuoteUpdate|9697=Missed|7761=5|9691=GMSG|9692=C|9694=108.700|9693=1|9695=250000|9696=Dealer response !! QuoteUpdate|9697=Missed|7761=6|9691=GUCPUSM1|9692=B|9694=114.500|9693=1|9695=250000|9696=Dealer response !! QuoteUpdate|9697=Missed|7761=7|9691=RBAIUS41XXX|9692=B|9694=115.500|9693=1|9695=250000|9696=Dealer response !! QuoteUpdate|9697=Missed|7761=8|9691=NITE|9692=B|9694=120.100|9693=1|9695=250000|9696=Dealer response !! QuoteUpdate|9697=Missed|7761=9|9691=ANZBUS33|9692=B|9696=Please Contact your ANZ Salesperson 1.|9697=Passed|7761=10|9691=CRLYUS33|9692=B|9697=Passed|7761=11|9691=CTBAAU2SFXD|9692=B|9696=None in TList|9697=Passed|7761=12|9691=RDOSUS31|9692=B|9697=Passed|7761=13|9691=GOLDUS33|9692=B|9697=Timed Out|7761=14|9691=FISA|9692=C|9697=Timed Out |7761=152|9691=ZKBKCHZZ80A|9692=B|9697=Timed Out|7761=153|109=STP Test Client, Inc.|76=SBSIUS33|11=JBZ1808061810142557|19=5822107-kn5lj|150=1|39=1|64=20180817|54=1|32=100000|31=75.010|151=770000|14=100000|6=75.010|9805=1076.723|9806=1153.787|5645=1077.612|5961=Price|75=20180815|60=20180815-12:06:36.284|381=75010.00|38=32|6655=250000|55=FIXED|22=4|48=USP79171AE79|200=202409|205=1|223=7.45|106=PROVINCE OF CORDOBA|6620=20170301|6659=20170301|107=CORDO  7.450  9/1/24 (URegS)|6608=13.657|6637=20240901|6611=3435.28|6612=78445.28|6609=MISC|6606=atrianine@marketxess.com|15=USD|120=USD|9947=citiustrade|10=093|8=FIX.4.2|9=55|35=0|34=116|49=INIT|52=20180925-15:18:33.324|56=ACCEPT|10=040|8=FIX.4.2|9=55|35=0|34=117|49=INIT|52=20180925-15:19:03.324|56=ACCEPT|10=039|8=FIX.4.2|9=1870|35=8|49=INIT|56=ACCEPT|34=118|52=20180925-15:19:19.791|37=5822107|17=One-USD_AGN-1662852-0-0-kpt1r|20=0|9690=16|9691=SBSIUS33|9692=B|9694=75.010|9693=1|9695=100000|9697=Done|7761=1|9691=ABO1MPID|9692=C|9694=97.000|9693=1|9695=250000|9697=Covered|7761=2|9691=WPACBIC|9692=B|9694=101.100|9693=1|9695=250000|9697=Missed|7761=3|9691=LAZA|9692=C|9694=104.400|9693=1|9695=250000|9696=Dealer response !! QuoteUpdate|9697=Missed|7761=4|9691=AASIUS33|9692=B|9694=106.900|9693=1|9695=250000|9696=Dealer response !! QuoteUpdate|9697=Missed|7761=5|9691=GMSG|9692=C|9694=108.700|9693=1|9695=250000|9696=Dealer response !! QuoteUpdate|9697=Missed|7761=6|9691=GUCPUSM1|9692=B|9694=114.500|9693=1|9695=250000|9696=Dealer response !! QuoteUpdate|9697=Missed|7761=7|9691=RBAIUS41XXX|9692=B|9694=115.500|9693=1|9695=250000|9696=Dealer response !! QuoteUpdate|9697=Missed|7761=8|9691=NITE|9692=B|9694=120.100|9693=1|9695=250000|9696=Dealer response !! QuoteUpdate|9697=Missed|7761=9|9691=ANZBUS33|9692=B|9696=Please Contact your ANZ Salesperson 1.|9697=Passed|7761=10|9691=CRLYUS33|9692=B|9697=Passed|7761=11|9691=CTBAAU2SFXD|9692=B|9696=None in TList|9697=Passed|7761=12|9691=RDOSUS31|9692=B|9697=Passed|7761=13|9691=GOLDUS33|9692=B|9697=Timed Out|7761=14|9691=FISA|9692=C|9697=Timed Out |7761=152|9691=ZKBKCHZZ80A|9692=B|9697=Timed Out|7761=153|109=STP Test Client, Inc.|76=SBSIUS33|11=JBZ1808061810142557|19=5822107-kn5lj|150=1|39=1|64=20180817|54=1|32=100000|31=75.010|151=770000|14=100000|6=75.010|9805=1076.723|9806=1153.787|5645=1077.612|5961=Price|75=20180815|60=20180815-12:06:36.284|381=75010.00|38=32|6655=250000|55=FIXED|22=4|48=USP79171AE79|200=202409|205=1|223=7.45|106=PROVINCE OF CORDOBA|6620=20170301|6659=20170301|107=CORDO  7.450  9/1/24 (URegS)|6608=13.657|6637=20240901|6611=3435.28|6612=78445.28|6609=MISC|6606=atrianine@marketxess.com|15=USD|120=USD|9947=citiustrade|10=110|8=FIX.4.2|9=55|35=0|34=119|49=INIT|52=20180925-15:19:50.323|56=ACCEPT|10=042|8=FIX.4.2|9=73|35=5|34=120|49=INIT|52=20180925-15:20:16.330|56=ACCEPT|58=user requested|10=123|8=FIX.4.2|9=84|35=A|34=121|49=INIT|52=20180925-15:20:25.684|56=ACCEPT|98=0|108=30|95=8|96=3.0.0rc4|10=220|8=FIX.4.2|9=1870|35=8|49=INIT|56=ACCEPT|34=122|52=20180925-15:20:31.408|37=5822107|17=One-USD_AGN-1662852-0-0-kpt1r|20=0|9690=16|9691=SBSIUS33|9692=B|9694=75.010|9693=1|9695=100000|9697=Done|7761=1|9691=ABO1MPID|9692=C|9694=97.000|9693=1|9695=250000|9697=Covered|7761=2|9691=WPACBIC|9692=B|9694=101.100|9693=1|9695=250000|9697=Missed|7761=3|9691=LAZA|9692=C|9694=104.400|9693=1|9695=250000|9696=Dealer response !! QuoteUpdate|9697=Missed|7761=4|9691=AASIUS33|9692=B|9694=106.900|9693=1|9695=250000|9696=Dealer response !! QuoteUpdate|9697=Missed|7761=5|9691=GMSG|9692=C|9694=108.700|9693=1|9695=250000|9696=Dealer response !! QuoteUpdate|9697=Missed|7761=6|9691=GUCPUSM1|9692=B|9694=114.500|9693=1|9695=250000|9696=Dealer response !! QuoteUpdate|9697=Missed|7761=7|9691=RBAIUS41XXX|9692=B|9694=115.500|9693=1|9695=250000|9696=Dealer response !! QuoteUpdate|9697=Missed|7761=8|9691=NITE|9692=B|9694=120.100|9693=1|9695=250000|9696=Dealer response !! QuoteUpdate|9697=Missed|7761=9|9691=ANZBUS33|9692=B|9696=Please Contact your ANZ Salesperson 1.|9697=Passed|7761=10|9691=CRLYUS33|9692=B|9697=Passed|7761=11|9691=CTBAAU2SFXD|9692=B|9696=None in TList|9697=Passed|7761=12|9691=RDOSUS31|9692=B|9697=Passed|7761=13|9691=GOLDUS33|9692=B|9697=Timed Out|7761=14|9691=FISA|9692=C|9697=Timed Out |7761=152|9691=ZKBKCHZZ80A|9692=B|9697=Timed Out|7761=153|109=STP Test Client, Inc.|76=SBSIUS33|11=JBZ1808061810142557|19=5822107-kn5lj|150=1|39=1|64=20180817|54=1|32=100000|31=75.010|151=770000|14=100000|6=75.010|9805=1076.723|9806=1153.787|5645=1077.612|5961=Price|75=20180815|60=20180815-12:06:36.284|381=75010.00|38=32|6655=250000|55=FIXED|22=4|48=USP79171AE79|200=202409|205=1|223=7.45|106=PROVINCE OF CORDOBA|6620=20170301|6659=20170301|107=CORDO  7.450  9/1/24 (URegS)|6608=13.657|6637=20240901|6611=3435.28|6612=78445.28|6609=MISC|6606=atrianine@marketxess.com|15=USD|120=USD|9947=citiustrade|10=086|8=FIX.4.2|9=55|35=0|34=123|49=INIT|52=20180925-15:21:01.685|56=ACCEPT|10=037|8=FIX.4.2|9=55|35=5|34=124|49=INIT|52=20180925-15:21:13.949|56=ACCEPT|10=049|8=FIX.4.2|9=84|35=A|34=125|49=INIT|52=20180925-15:21:29.997|56=ACCEPT|98=0|108=30|95=8|96=3.0.0rc4|10=236|8=FIX.4.2|9=1870|35=8|49=INIT|56=ACCEPT|34=126|52=20180925-15:21:37.559|37=5822107|17=One-USD_AGN-1662852-0-0-kpt1r|20=0|9690=16|9691=SBSIUS33|9692=B|9694=75.010|9693=1|9695=100000|9697=Done|7761=1|9691=ABO1MPID|9692=C|9694=97.000|9693=1|9695=250000|9697=Covered|7761=2|9691=WPACBIC|9692=B|9694=101.100|9693=1|9695=250000|9697=Missed|7761=3|9691=LAZA|9692=C|9694=104.400|9693=1|9695=250000|9696=Dealer response !! QuoteUpdate|9697=Missed|7761=4|9691=AASIUS33|9692=B|9694=106.900|9693=1|9695=250000|9696=Dealer response !! QuoteUpdate|9697=Missed|7761=5|9691=GMSG|9692=C|9694=108.700|9693=1|9695=250000|9696=Dealer response !! QuoteUpdate|9697=Missed|7761=6|9691=GUCPUSM1|9692=B|9694=114.500|9693=1|9695=250000|9696=Dealer response !! QuoteUpdate|9697=Missed|7761=7|9691=RBAIUS41XXX|9692=B|9694=115.500|9693=1|9695=250000|9696=Dealer response !! QuoteUpdate|9697=Missed|7761=8|9691=NITE|9692=B|9694=120.100|9693=1|9695=250000|9696=Dealer response !! QuoteUpdate|9697=Missed|7761=9|9691=ANZBUS33|9692=B|9696=Please Contact your ANZ Salesperson 1.|9697=Passed|7761=10|9691=CRLYUS33|9692=B|9697=Passed|7761=11|9691=CTBAAU2SFXD|9692=B|9696=None in TList|9697=Passed|7761=12|9691=RDOSUS31|9692=B|9697=Passed|7761=13|9691=GOLDUS33|9692=B|9697=Timed Out|7761=14|9691=FISA|9692=C|9697=Timed Out |7761=152|9691=ZKBKCHZZ80A|9692=B|9697=Timed Out|7761=153|109=STP Test Client, Inc.|76=SBSIUS33|11=JBZ1808061810142557|19=5822107-kn5lj|150=1|39=1|64=20180817|54=1|32=100000|31=75.010|151=770000|14=100000|6=75.010|9805=1076.723|9806=1153.787|5645=1077.612|5961=Price|75=20180815|60=20180815-12:06:36.284|381=75010.00|38=32|6655=250000|55=FIXED|22=4|48=USP79171AE79|200=202409|205=1|223=7.45|106=PROVINCE OF CORDOBA|6620=20170301|6659=20170301|107=CORDO  7.450  9/1/24 (URegS)|6608=13.657|6637=20240901|6611=3435.28|6612=78445.28|6609=MISC|6606=atrianine@marketxess.com|15=USD|120=USD|9947=citiustrade|10=104|8=FIX.4.2|9=55|35=0|34=127|49=INIT|52=20180925-15:22:07.997|56=ACCEPT|10=054|8=FIX.4.2|9=55|35=0|34=128|49=INIT|52=20180925-15:22:37.997|56=ACCEPT|10=058|8=FIX.4.2|9=55|35=0|34=129|49=INIT|52=20180925-15:23:07.997|56=ACCEPT|10=057|8=FIX.4.2|9=55|35=0|34=130|49=INIT|52=20180925-15:23:37.997|56=ACCEPT|10=052|8=FIX.4.2|9=55|35=0|34=131|49=INIT|52=20180925-15:24:07.997|56=ACCEPT|10=051|8=FIX.4.2|9=55|35=0|34=132|49=INIT|52=20180925-15:24:38.996|56=ACCEPT|10=055|8=FIX.4.2|9=55|35=0|34=133|49=INIT|52=20180925-15:25:08.997|56=ACCEPT|10=055|8=FIX.4.2|9=55|35=0|34=134|49=INIT|52=20180925-15:25:39.996|56=ACCEPT|10=059|8=FIX.4.2|9=55|35=0|34=135|49=INIT|52=20180925-15:26:10.997|56=ACCEPT|10=051|8=FIX.4.2|9=55|35=0|34=136|49=INIT|52=20180925-15:26:41.995|56=ACCEPT|10=054|8=FIX.4.2|9=55|35=0|34=137|49=INIT|52=20180925-15:27:11.996|56=ACCEPT|10=054|8=FIX.4.2|9=55|35=0|34=138|49=INIT|52=20180925-15:27:41.996|56=ACCEPT|10=058|8=FIX.4.2|9=55|35=0|34=139|49=INIT|52=20180925-15:28:12.996|56=ACCEPT|10=058|8=FIX.4.2|9=55|35=0|34=140|49=INIT|52=20180925-15:28:43.995|56=ACCEPT|10=053|8=FIX.4.2|9=55|35=0|34=141|49=INIT|52=20180925-15:29:14.995|56=ACCEPT|10=053|8=FIX.4.2|9=55|35=0|34=142|49=INIT|52=20180925-15:29:44.995|56=ACCEPT|10=057|8=FIX.4.2|9=55|35=0|34=143|49=INIT|52=20180925-15:30:14.995|56=ACCEPT|10=047|8=FIX.4.2|9=55|35=0|34=144|49=INIT|52=20180925-15:30:45.993|56=ACCEPT|10=050|8=FIX.4.2|9=55|35=0|34=145|49=INIT|52=20180925-15:31:15.993|56=ACCEPT|10=049|8=FIX.4.2|9=55|35=0|34=146|49=INIT|52=20180925-15:31:45.993|56=ACCEPT|10=053|8=FIX.4.2|9=55|35=0|34=147|49=INIT|52=20180925-15:32:15.994|56=ACCEPT|10=053|8=FIX.4.2|9=55|35=0|34=148|49=INIT|52=20180925-15:32:45.994|56=ACCEPT|10=057|8=FIX.4.2|9=55|35=0|34=149|49=INIT|52=20180925-15:33:15.994|56=ACCEPT|10=056|8=FIX.4.2|9=55|35=0|34=150|49=INIT|52=20180925-15:33:45.994|56=ACCEPT|10=051|8=FIX.4.2|9=55|35=0|34=151|49=INIT|52=20180925-15:34:16.992|56=ACCEPT|10=049|8=FIX.4.2|9=55|35=0|34=152|49=INIT|52=20180925-15:34:46.993|56=ACCEPT|10=054|8=FIX.4.2|9=55|35=0|34=153|49=INIT|52=20180925-15:35:17.993|56=ACCEPT|10=054|8=FIX.4.2|9=55|35=0|34=154|49=INIT|52=20180925-15:35:48.992|56=ACCEPT|10=058|8=FIX.4.2|9=55|35=0|34=155|49=INIT|52=20180925-15:36:18.993|56=ACCEPT|10=058|8=FIX.4.2|9=55|35=0|34=156|49=INIT|52=20180925-15:36:49.992|56=ACCEPT|10=062|8=FIX.4.2|9=55|35=0|34=157|49=INIT|52=20180925-15:37:19.992|56=ACCEPT|10=061|8=FIX.4.2|9=55|35=0|34=158|49=INIT|52=20180925-15:37:49.992|56=ACCEPT|10=065|8=FIX.4.2|9=55|35=0|34=159|49=INIT|52=20180925-15:38:19.993|56=ACCEPT|10=065|8=FIX.4.2|9=55|35=0|34=160|49=INIT|52=20180925-15:38:50.991|56=ACCEPT|10=050|8=FIX.4.2|9=55|35=0|34=161|49=INIT|52=20180925-15:39:20.991|56=ACCEPT|10=049|8=FIX.4.2|9=55|35=0|34=162|49=INIT|52=20180925-15:39:50.991|56=ACCEPT|10=053|8=FIX.4.2|9=55|35=0|34=163|49=INIT|52=20180925-15:40:20.991|56=ACCEPT|10=043|8=FIX.4.2|9=55|35=0|34=164|49=INIT|52=20180925-15:40:50.991|56=ACCEPT|10=047|8=FIX.4.2|9=55|35=0|34=165|49=INIT|52=20180925-15:41:21.991|56=ACCEPT|10=047|8=FIX.4.2|9=55|35=0|34=166|49=INIT|52=20180925-15:41:52.990|56=ACCEPT|10=051|8=FIX.4.2|9=55|35=0|34=167|49=INIT|52=20180925-15:42:22.990|56=ACCEPT|10=050|8=FIX.4.2|9=55|35=0|34=168|49=INIT|52=20180925-15:42:52.990|56=ACCEPT|10=054|8=FIX.4.2|9=55|35=0|34=169|49=INIT|52=20180925-15:43:22.990|56=ACCEPT|10=053|8=FIX.4.2|9=55|35=0|34=170|49=INIT|52=20180925-15:43:53.118|56=ACCEPT|10=041|8=FIX.4.2|9=73|35=5|34=171|49=INIT|52=20180925-15:44:10.989|56=ACCEPT|58=user requested|10=149|8=FIX.4.2|9=84|35=A|34=172|49=INIT|52=20180925-15:44:23.550|56=ACCEPT|98=0|108=30|95=8|96=3.0.0rc4|10=222|8=FIX.4.2|9=1870|35=8|49=INIT|56=ACCEPT|34=173|52=20180925-15:44:31.819|37=5822107|17=One-USD_AGN-1662852-0-0-kpt1r|20=0|9690=16|9691=SBSIUS33|9692=B|9694=75.010|9693=1|9695=100000|9697=Done|7761=1|9691=ABO1MPID|9692=C|9694=97.000|9693=1|9695=250000|9697=Covered|7761=2|9691=WPACBIC|9692=B|9694=101.100|9693=1|9695=250000|9697=Missed|7761=3|9691=LAZA|9692=C|9694=104.400|9693=1|9695=250000|9696=Dealer response !! QuoteUpdate|9697=Missed|7761=4|9691=AASIUS33|9692=B|9694=106.900|9693=1|9695=250000|9696=Dealer response !! QuoteUpdate|9697=Missed|7761=5|9691=GMSG|9692=C|9694=108.700|9693=1|9695=250000|9696=Dealer response !! QuoteUpdate|9697=Missed|7761=6|9691=GUCPUSM1|9692=B|9694=114.500|9693=1|9695=250000|9696=Dealer response !! QuoteUpdate|9697=Missed|7761=7|9691=RBAIUS41XXX|9692=B|9694=115.500|9693=1|9695=250000|9696=Dealer response !! QuoteUpdate|9697=Missed|7761=8|9691=NITE|9692=B|9694=120.100|9693=1|9695=250000|9696=Dealer response !! QuoteUpdate|9697=Missed|7761=9|9691=ANZBUS33|9692=B|9696=Please Contact your ANZ Salesperson 1.|9697=Passed|7761=10|9691=CRLYUS33|9692=B|9697=Passed|7761=11|9691=CTBAAU2SFXD|9692=B|9696=None in TList|9697=Passed|7761=12|9691=RDOSUS31|9692=B|9697=Passed|7761=13|9691=GOLDUS33|9692=B|9697=Timed Out|7761=14|9691=FISA|9692=C|9697=Timed Out |7761=152|9691=ZKBKCHZZ80A|9692=B|9697=Timed Out|7761=153|109=STP Test Client, Inc.|76=SBSIUS33|11=JBZ1808061810142557|19=5822107-kn5lj|150=1|39=1|64=20180817|54=1|32=100000|31=75.010|151=770000|14=100000|6=75.010|9805=1076.723|9806=1153.787|5645=1077.612|5961=Price|75=20180815|60=20180815-12:06:36.284|381=75010.00|38=32|6655=250000|55=FIXED|22=4|48=USP79171AE79|200=202409|205=1|223=7.45|106=PROVINCE OF CORDOBA|6620=20170301|6659=20170301|107=CORDO  7.450  9/1/24 (URegS)|6608=13.657|6637=20240901|6611=3435.28|6612=78445.28|6609=MISC|6606=atrianine@marketxess.com|15=USD|120=USD|9947=citiustrade|10=104|8=FIX.4.2|9=55|35=0|34=174|49=INIT|52=20180925-15:45:02.551|56=ACCEPT|10=042|8=FIX.4.2|9=55|35=0|34=175|49=INIT|52=20180925-15:45:32.551|56=ACCEPT|10=046|8=FIX.4.2|9=55|35=0|34=176|49=INIT|52=20180925-15:46:03.550|56=ACCEPT|10=045|8=FIX.4.2|9=55|35=0|34=177|49=INIT|52=20180925-15:46:34.549|56=ACCEPT|10=058|8=FIX.4.2|9=55|35=0|34=178|49=INIT|52=20180925-15:47:04.549|56=ACCEPT|10=057|8=FIX.4.2|9=55|35=0|34=179|49=INIT|52=20180925-15:47:34.549|56=ACCEPT|10=061|8=FIX.4.2|9=55|35=0|34=180|49=INIT|52=20180925-15:48:04.549|56=ACCEPT|10=051|8=FIX.4.2|9=1870|35=8|49=INIT|56=ACCEPT|34=181|52=20180925-15:48:16.821|37=5822107|17=One-USD_AGN-1662852-0-0-kpt1r|20=0|9690=16|9691=SBSIUS33|9692=B|9694=75.010|9693=1|9695=100000|9697=Done|7761=1|9691=ABO1MPID|9692=C|9694=97.000|9693=1|9695=250000|9697=Covered|7761=2|9691=WPACBIC|9692=B|9694=101.100|9693=1|9695=250000|9697=Missed|7761=3|9691=LAZA|9692=C|9694=104.400|9693=1|9695=250000|9696=Dealer response !! QuoteUpdate|9697=Missed|7761=4|9691=AASIUS33|9692=B|9694=106.900|9693=1|9695=250000|9696=Dealer response !! QuoteUpdate|9697=Missed|7761=5|9691=GMSG|9692=C|9694=108.700|9693=1|9695=250000|9696=Dealer response !! QuoteUpdate|9697=Missed|7761=6|9691=GUCPUSM1|9692=B|9694=114.500|9693=1|9695=250000|9696=Dealer response !! QuoteUpdate|9697=Missed|7761=7|9691=RBAIUS41XXX|9692=B|9694=115.500|9693=1|9695=250000|9696=Dealer response !! QuoteUpdate|9697=Missed|7761=8|9691=NITE|9692=B|9694=120.100|9693=1|9695=250000|9696=Dealer response !! QuoteUpdate|9697=Missed|7761=9|9691=ANZBUS33|9692=B|9696=Please Contact your ANZ Salesperson 1.|9697=Passed|7761=10|9691=CRLYUS33|9692=B|9697=Passed|7761=11|9691=CTBAAU2SFXD|9692=B|9696=None in TList|9697=Passed|7761=12|9691=RDOSUS31|9692=B|9697=Passed|7761=13|9691=GOLDUS33|9692=B|9697=Timed Out|7761=14|9691=FISA|9692=C|9697=Timed Out |7761=152|9691=ZKBKCHZZ80A|9692=B|9697=Timed Out|7761=153|109=STP Test Client, Inc.|76=SBSIUS33|11=JBZ1808061810142557|19=5822107-kn5lj|150=1|39=1|64=20180817|54=1|32=100000|31=75.010|151=770000|14=100000|6=75.010|9805=1076.723|9806=1153.787|5645=1077.612|5961=Price|75=20180815|60=20180815-12:06:36.284|381=75010.00|38=32|6655=250000|55=FIXED|22=4|48=USP79171AE79|200=202409|205=1|223=7.45|106=PROVINCE OF CORDOBA|6620=20170301|6659=20170301|107=CORDO  7.450  9/1/24 (URegS)|6608=13.657|6637=20240901|6611=3435.28|6612=78445.28|6609=MISC|6606=atrianine@marketxess.com|15=USD|120=USD|9947=citiustrade|10=103|8=FIX.4.2|9=55|35=0|34=182|49=INIT|52=20180925-15:48:47.549|56=ACCEPT|10=060|8=FIX.4.2|9=55|35=0|34=183|49=INIT|52=20180925-15:49:18.548|56=ACCEPT|10=059|8=FIX.4.2|9=55|35=0|34=184|49=INIT|52=20180925-15:49:48.549|56=ACCEPT|10=064|8=FIX.4.2|9=55|35=0|34=185|49=INIT|52=20180925-15:50:19.547|56=ACCEPT|10=053|8=FIX.4.2|9=55|35=0|34=186|49=INIT|52=20180925-15:50:50.546|56=ACCEPT|10=048|8=FIX.4.2|9=55|35=0|34=187|49=INIT|52=20180925-15:51:20.547|56=ACCEPT|10=048|8=FIX.4.2|9=55|35=0|34=188|49=INIT|52=20180925-15:51:51.546|56=ACCEPT|10=052|8=FIX.4.2|9=55|35=0|34=189|49=INIT|52=20180925-15:52:21.546|56=ACCEPT|10=051|8=FIX.4.2|9=55|35=0|34=190|49=INIT|52=20180925-15:52:52.545|56=ACCEPT|10=046|8=FIX.4.2|9=55|35=0|34=191|49=INIT|52=20180925-15:53:22.545|56=ACCEPT|10=045|8=FIX.4.2|9=1884|35=8|49=INIT|56=ACCEPT|34=192|52=20180925-15:53:29.187|37=5822107|17=One-USD_AGN-1662852-0-0-kpt1r|20=0|9690=16|9691=SBSIUS33|9692=B|9694=75.010|9693=1|9695=100000|9697=Done|7761=1|9691=ABO1MPID|9692=C|9694=97.000|9693=1|9695=250000|9697=Covered|7761=2|9691=WPACBIC|9692=B|9694=101.100|9693=1|9695=250000|9697=Missed|7761=3|9691=LAZA|9692=C|9694=104.400|9693=1|9695=250000|9696=Dealer response !! QuoteUpdate|9697=Missed|7761=4|9691=AASIUS33|9692=B|9694=106.900|9693=1|9695=250000|9696=Dealer response !! QuoteUpdate|9697=Missed|7761=5|9691=GMSG|9692=C|9694=108.700|9693=1|9695=250000|9696=Dealer response !! QuoteUpdate|9697=Missed|7761=6|9691=GUCPUSM1|9692=B|9694=114.500|9693=1|9695=250000|9696=Dealer response !! QuoteUpdate|9697=Missed|7761=7|9691=RBAIUS41XXX|9692=B|9694=115.500|9693=1|9695=250000|9696=Dealer response !! QuoteUpdate|9697=Missed|7761=8|9691=NITE|9692=B|9694=120.100|9693=1|9695=250000|9696=Dealer response !! QuoteUpdate|9697=Missed|7761=9|9691=ANZBUS33|9692=B|9696=Please Contact your ANZ Salesperson 1.|9697=Passed|7761=10|9691=CRLYUS33|9692=B|9697=Passed|7761=11|9691=CTBAAU2SFXD|9692=B|9696=None in TList|9697=Passed|7761=12|9691=RDOSUS31|9692=B|9697=Passed|7761=13|9691=GOLDUS33|9692=B|9697=Timed Out|7761=14|9691=FISA|9692=C|9697=Timed Out |7761=152|9691=ZKBKCHZZ80A|9692=B|9697=Timed Out|7761=153|109=STP Test Client, Inc.|76=SBSIUS33|11=JBZ1808061810142557|19=5822107-kn5lj|150=1|39=1|64=20180817|54=1|32=100000|31=75.010|151=770000|14=100000|6=75.010|9805=1076.723|9806=1153.787|5645=1077.612|9804=1077.612|5961=Price|75=20180815|60=20180815-12:06:36.284|381=75010.00|38=32|6655=250000|55=FIXED|22=4|48=USP79171AE79|200=202409|205=1|223=7.45|106=PROVINCE OF CORDOBA|6620=20170301|6659=20170301|107=CORDO  7.450  9/1/24 (URegS)|6608=13.657|6637=20240901|6611=3435.28|6612=78445.28|6609=MISC|6606=atrianine@marketxess.com|15=USD|120=USD|9947=citiustrade|10=028|8=FIX.4.2|9=55|35=0|34=193|49=INIT|52=20180925-15:53:59.545|56=ACCEPT|10=057|8=FIX.4.2|9=55|35=0|34=194|49=INIT|52=20180925-15:54:30.545|56=ACCEPT|10=048|8=FIX.4.2|9=1884|35=8|49=INIT|56=ACCEPT|34=195|52=20180925-15:55:00.541|37=5822107|17=One-USD_AGN-1662852-0-0-kpt1r|20=0|9690=16|9691=SBSIUS33|9692=B|9694=75.010|9693=1|9695=100000|9697=Done|7761=1|9691=ABO1MPID|9692=C|9694=97.000|9693=1|9695=250000|9697=Covered|7761=2|9691=WPACBIC|9692=B|9694=101.100|9693=1|9695=250000|9697=Missed|7761=3|9691=LAZA|9692=C|9694=104.400|9693=1|9695=250000|9696=Dealer response !! QuoteUpdate|9697=Missed|7761=4|9691=AASIUS33|9692=B|9694=106.900|9693=1|9695=250000|9696=Dealer response !! QuoteUpdate|9697=Missed|7761=5|9691=GMSG|9692=C|9694=108.700|9693=1|9695=250000|9696=Dealer response !! QuoteUpdate|9697=Missed|7761=6|9691=GUCPUSM1|9692=B|9694=114.500|9693=1|9695=250000|9696=Dealer response !! QuoteUpdate|9697=Missed|7761=7|9691=RBAIUS41XXX|9692=B|9694=115.500|9693=1|9695=250000|9696=Dealer response !! QuoteUpdate|9697=Missed|7761=8|9691=NITE|9692=B|9694=120.100|9693=1|9695=250000|9696=Dealer response !! QuoteUpdate|9697=Missed|7761=9|9691=ANZBUS33|9692=B|9696=Please Contact your ANZ Salesperson 1.|9697=Passed|7761=10|9691=CRLYUS33|9692=B|9697=Passed|7761=11|9691=CTBAAU2SFXD|9692=B|9696=None in TList|9697=Passed|7761=12|9691=RDOSUS31|9692=B|9697=Passed|7761=13|9691=GOLDUS33|9692=B|9697=Timed Out|7761=14|9691=FISA|9692=C|9697=Timed Out |7761=152|9691=ZKBKCHZZ80A|9692=B|9697=Timed Out|7761=153|109=STP Test Client, Inc.|76=SBSIUS33|11=JBZ1808061810142557|19=5822107-kn5lj|150=1|39=1|64=20180817|54=1|32=100000|31=75.010|151=770000|14=100000|6=75.010|9805=1076.723|9806=1153.787|5645=1077.612|9804=1077.612|5961=Price|75=20180815|60=20180815-12:06:36.284|381=75010.00|38=32|6655=250000|55=FIXED|22=4|48=USP79171AE79|200=202409|205=1|223=7.45|106=PROVINCE OF CORDOBA|6620=20170301|6659=20170301|107=CORDO  7.450  9/1/24 (URegS)|6608=13.657|6637=20240901|6611=3435.28|6612=78445.28|6609=MISC|6606=atrianine@marketxess.com|15=USD|120=USD|9947=citiustrade|10=016|8=FIX.4.2|9=55|35=0|34=196|49=INIT|52=20180925-15:55:30.545|56=ACCEPT|10=051|8=FIX.4.2|9=55|35=0|34=197|49=INIT|52=20180925-15:56:01.544|56=ACCEPT|10=050|8=FIX.4.2|9=55|35=0|34=198|49=INIT|52=20180925-15:56:31.544|56=ACCEPT|10=054|8=FIX.4.2|9=55|35=0|34=199|49=INIT|52=20180925-15:57:02.543|56=ACCEPT|10=053|8=FIX.4.2|9=55|35=0|34=200|49=INIT|52=20180925-15:57:32.543|56=ACCEPT|10=039|8=FIX.4.2|9=55|35=0|34=201|49=INIT|52=20180925-15:58:02.543|56=ACCEPT|10=038|8=FIX.4.2|9=55|35=0|34=202|49=INIT|52=20180925-15:58:32.544|56=ACCEPT|10=043|8=FIX.4.2|9=55|35=0|34=203|49=INIT|52=20180925-15:59:02.544|56=ACCEPT|10=042|8=FIX.4.2|9=55|35=0|34=204|49=INIT|52=20180925-15:59:33.542|56=ACCEPT|10=045|8=FIX.4.2|9=55|35=0|34=205|49=INIT|52=20180925-16:00:03.543|56=ACCEPT|10=031|8=FIX.4.2|9=55|35=0|34=206|49=INIT|52=20180925-16:00:34.542|56=ACCEPT|10=035|8=FIX.4.2|9=55|35=0|34=207|49=INIT|52=20180925-16:01:04.542|56=ACCEPT|10=034|8=FIX.4.2|9=55|35=0|34=208|49=INIT|52=20180925-16:01:34.542|56=ACCEPT|10=038|8=FIX.4.2|9=55|35=0|34=209|49=INIT|52=20180925-16:02:04.542|56=ACCEPT|10=037|8=FIX.4.2|9=55|35=0|34=210|49=INIT|52=20180925-16:02:34.542|56=ACCEPT|10=032|8=FIX.4.2|9=55|35=0|34=211|49=INIT|52=20180925-16:03:05.543|56=ACCEPT|10=033|8=FIX.4.2|9=55|35=0|34=212|49=INIT|52=20180925-16:03:36.542|56=ACCEPT|10=037|8=FIX.4.2|9=55|35=0|34=213|49=INIT|52=20180925-16:04:07.541|56=ACCEPT|10=036|8=FIX.4.2|9=55|35=0|34=214|49=INIT|52=20180925-16:04:37.541|56=ACCEPT|10=040|8=FIX.4.2|9=55|35=0|34=215|49=INIT|52=20180925-16:05:08.540|56=ACCEPT|10=039|8=FIX.4.2|9=55|35=0|34=216|49=INIT|52=20180925-16:05:38.540|56=ACCEPT|10=043|8=FIX.4.2|9=55|35=0|34=217|49=INIT|52=20180925-16:06:08.540|56=ACCEPT|10=042|8=FIX.4.2|9=55|35=0|34=218|49=INIT|52=20180925-16:06:38.540|56=ACCEPT|10=046|8=FIX.4.2|9=55|35=0|34=219|49=INIT|52=20180925-16:07:08.540|56=ACCEPT|10=045|8=FIX.4.2|9=55|35=0|34=220|49=INIT|52=20180925-16:07:39.540|56=ACCEPT|10=041|8=FIX.4.2|9=55|35=0|34=221|49=INIT|52=20180925-16:08:10.539|56=ACCEPT|10=040|8=FIX.4.2|9=55|35=0|34=222|49=INIT|52=20180925-16:08:40.539|56=ACCEPT|10=044|8=FIX.4.2|9=55|35=0|34=223|49=INIT|52=20180925-16:09:10.539|56=ACCEPT|10=043|8=FIX.4.2|9=55|35=0|34=224|49=INIT|52=20180925-16:09:40.539|56=ACCEPT|10=047|8=FIX.4.2|9=55|35=0|34=225|49=INIT|52=20180925-16:10:10.539|56=ACCEPT|10=037|8=FIX.4.2|9=55|35=0|34=226|49=INIT|52=20180925-16:10:40.539|56=ACCEPT|10=041|8=FIX.4.2|9=55|35=0|34=227|49=INIT|52=20180925-16:11:11.540|56=ACCEPT|10=033|8=FIX.4.2|9=55|35=0|34=228|49=INIT|52=20180925-16:11:42.538|56=ACCEPT|10=045|8=FIX.4.2|9=55|35=0|34=229|49=INIT|52=20180925-16:12:13.538|56=ACCEPT|10=045|8=FIX.4.2|9=55|35=0|34=230|49=INIT|52=20180925-16:12:43.538|56=ACCEPT|10=040|8=FIX.4.2|9=55|35=0|34=231|49=INIT|52=20180925-16:13:13.538|56=ACCEPT|10=039|8=FIX.4.2|9=55|35=0|34=232|49=INIT|52=20180925-16:13:44.537|56=ACCEPT|10=043|8=FIX.4.2|9=55|35=0|34=233|49=INIT|52=20180925-16:14:14.537|56=ACCEPT|10=042|8=FIX.4.2|9=55|35=0|34=234|49=INIT|52=20180925-16:14:44.537|56=ACCEPT|10=046|8=FIX.4.2|9=55|35=0|34=235|49=INIT|52=20180925-16:15:14.537|56=ACCEPT|10=045|8=FIX.4.2|9=55|35=0|34=236|49=INIT|52=20180925-16:15:45.537|56=ACCEPT|10=050|8=FIX.4.2|9=55|35=0|34=237|49=INIT|52=20180925-16:16:15.538|56=ACCEPT|10=050|8=FIX.4.2|9=55|35=0|34=238|49=INIT|52=20180925-16:16:46.536|56=ACCEPT|10=053|8=FIX.4.2|9=55|35=0|34=239|49=INIT|52=20180925-16:17:16.536|56=ACCEPT|10=052|8=FIX.4.2|9=55|35=0|34=240|49=INIT|52=20180925-16:17:46.536|56=ACCEPT|10=047|8=FIX.4.2|9=55|35=0|34=241|49=INIT|52=20180925-16:18:16.536|56=ACCEPT|10=046|8=FIX.4.2|9=