8=FIX.4.4|9=91|35=A|34=1|49=T1Kauaiblk4|52=20210924-09:20:49.645|56=MA|98=0|108=90|95=8|96=3.0.0rc5|141=Y|10=051|8=FIX.4.4|9=713|35=E|34=2|49=T1Kauaiblk4|52=20210924-09:21:04.113|56=MA|66=ListID-041321-rodrigo-18131|394=2|68=5|73=5|11=ClOrdID-18132|22=4|38=100000|44=100|48=US06051GEN51|54=1|55=[N/A/]|63=3|67=1|423=1|29726=100.25|453=1|448=T1Kauaiblk4|447=C|452=11|11=ClOrdID-18133|22=4|38=100000|44=101|48=US40434AAB52|54=1|55=[N/A]|63=3|67=2|29726=101.25|11=ClOrdID-18134|22=4|38=130000|44=102|48=US95709TAH32|54=1|55=[N/A/]|63=3|67=1|29726=102.25|453=1|448=T1Kauaiblk4|447=C|452=11|11=ClOrdID-18135|22=4|38=250000|44=103|48=US427866AZ15|54=1|55=[N/A/]|63=3|67=1|29726=103.25|453=1|448=T1Kauaiblk4|447=C|452=11|11=ClOrdID-18136|22=4|38=350000|44=104|48=US29379VAW37|54=1|55=[N/A/]|63=3|67=1|29726=104.25|453=1|448=T1Kauaiblk4|447=C|452=11|10=205|8=FIX.4.4|9=56|35=0|34=3|49=T1Kauaiblk4|52=20210924-09:22:34.654|56=MA|10=075|8=FIX.4.4|9=56|35=0|34=4|49=T1Kauaiblk4|52=20210924-09:24:05.661|56=MA|10=074|8=FIX.4.4|9=56|35=0|34=5|49=T1Kauaiblk4|52=20210924-09:25:36.659|56=MA|10=087|8=FIX.4.4|9=56|35=0|34=6|49=T1Kauaiblk4|52=20210924-09:27:07.649|56=MA|10=087|8=FIX.4.4|9=713|35=E|34=7|49=T1Kauaiblk4|52=20210924-09:28:12.729|56=MA|66=ListID-041321-rodrigo-18137|394=2|68=5|73=5|11=ClOrdID-18138|22=4|38=100000|44=100|48=US06051GEN51|54=1|55=[N/A/]|63=3|67=1|423=1|29726=100.25|453=1|448=T1Kauaiblk4|447=C|452=11|11=ClOrdID-18139|22=4|38=100000|44=101|48=US40434AAB52|54=1|55=[N/A]|63=3|67=2|29726=101.25|11=ClOrdID-18140|22=4|38=130000|44=102|48=US95709TAH32|54=1|55=[N/A/]|63=3|67=1|29726=102.25|453=1|448=T1Kauaiblk4|447=C|452=11|11=ClOrdID-18141|22=4|38=250000|44=103|48=US427866AZ15|54=1|55=[N/A/]|63=3|67=1|29726=103.25|453=1|448=T1Kauaiblk4|447=C|452=11|11=ClOrdID-18142|22=4|38=350000|44=104|48=US29379VAW37|54=1|55=[N/A/]|63=3|67=1|29726=104.25|453=1|448=T1Kauaiblk4|447=C|452=11|10=238|8=FIX.4.4|9=56|35=0|34=8|49=T1Kauaiblk4|52=20210924-09:29:43.653|56=MA|10=086|8=FIX.4.4|9=56|35=0|34=9|49=T1Kauaiblk4|52=20210924-09:31:14.657|56=MA|10=082|8=FIX.4.4|9=57|35=0|34=10|49=T1Kauaiblk4|52=20210924-09:32:44.931|56=MA|10=122|8=FIX.4.4|9=57|35=0|34=11|49=T1Kauaiblk4|52=20210924-09:34:15.647|56=MA|10=127|8=FIX.4.4|9=57|35=0|34=12|49=T1Kauaiblk4|52=20210924-09:35:45.648|56=MA|10=133|8=FIX.4.4|9=57|35=0|34=13|49=T1Kauaiblk4|52=20210924-09:37:15.648|56=MA|10=133|8=FIX.4.4|9=57|35=0|34=14|49=T1Kauaiblk4|52=20210924-09:38:45.651|56=MA|10=132|8=FIX.4.4|9=57|35=0|34=15|49=T1Kauaiblk4|52=20210924-09:40:16.647|56=MA|10=129|8=FIX.4.4|9=57|35=0|34=16|49=T1Kauaiblk4|52=20210924-09:41:46.647|56=MA|10=134|8=FIX.4.4|9=57|35=0|34=17|49=T1Kauaiblk4|52=20210924-09:43:16.648|56=MA|10=135|8=FIX.4.4|9=57|35=0|34=18|49=T1Kauaiblk4|52=20210924-09:44:46.648|56=MA|10=140|8=FIX.4.4|9=57|35=0|34=19|49=T1Kauaiblk4|52=20210924-09:46:16.651|56=MA|10=134|8=FIX.4.4|9=714|35=E|34=20|49=T1Kauaiblk4|52=20210924-09:47:21.451|56=MA|66=ListID-041321-rodrigo-18143|394=2|68=5|73=5|11=ClOrdID-18144|22=4|38=100000|44=100|48=US06051GEN51|54=1|55=[N/A/]|63=3|67=1|423=1|29726=100.25|453=1|448=T1Kauaiblk4|447=C|452=11|11=ClOrdID-18145|22=4|38=100000|44=101|48=US40434AAB52|54=1|55=[N/A]|63=3|67=2|29726=101.25|11=ClOrdID-18146|22=4|38=130000|44=102|48=US95709TAH32|54=1|55=[N/A/]|63=3|67=1|29726=102.25|453=1|448=T1Kauaiblk4|447=C|452=11|11=ClOrdID-18147|22=4|38=250000|44=103|48=US427866AZ15|54=1|55=[N/A/]|63=3|67=1|29726=103.25|453=1|448=T1Kauaiblk4|447=C|452=11|11=ClOrdID-18148|22=4|38=350000|44=104|48=US29379VAW37|54=1|55=[N/A/]|63=3|67=1|29726=104.25|453=1|448=T1Kauaiblk4|447=C|452=11|10=028|8=FIX.4.4|9=57|35=0|34=21|49=T1Kauaiblk4|52=20210924-09:48:51.653|56=MA|10=130|8=FIX.4.4|9=714|35=E|34=22|49=T1Kauaiblk4|52=20210924-09:49:14.970|56=MA|66=ListID-041321-rodrigo-18149|394=2|68=5|73=5|11=ClOrdID-18150|22=4|38=100000|44=100|48=US06051GEN51|54=1|55=[N/A/]|63=3|67=1|423=1|29726=100.25|453=1|448=T1Kauaiblk4|447=C|452=11|11=ClOrdID-18151|22=4|38=100000|44=101|48=US40434AAB52|54=1|55=[N/A]|63=3|67=2|29726=101.25|11=ClOrdID-18152|22=4|38=130000|44=102|48=US95709TAH32|54=1|55=[N/A/]|63=3|67=1|29726=102.25|453=1|448=T1Kauaiblk4|447=C|452=11|11=ClOrdID-18153|22=4|38=250000|44=103|48=US427866AZ15|54=1|55=[N/A/]|63=3|67=1|29726=103.25|453=1|448=T1Kauaiblk4|447=C|452=11|11=ClOrdID-18154|22=4|38=350000|44=104|48=US29379VAW37|54=1|55=[N/A/]|63=3|67=1|29726=104.25|453=1|448=T1Kauaiblk4|447=C|452=11|10=031|8=FIX.4.4|9=57|35=0|34=23|49=T1Kauaiblk4|52=20210924-09:50:45.657|56=MA|10=132|8=FIX.4.4|9=57|35=0|34=24|49=T1Kauaiblk4|52=20210924-09:52:15.659|56=MA|10=134|8=FIX.4.4|9=57|35=0|34=25|49=T1Kauaiblk4|52=20210924-09:53:45.661|56=MA|10=132|8=FIX.4.4|9=57|35=0|34=26|49=T1Kauaiblk4|52=20210924-09:55:15.661|56=MA|10=132|8=FIX.4.4|9=57|35=0|34=27|49=T1Kauaiblk4|52=20210924-09:56:45.664|56=MA|10=140|8=FIX.4.4|9=57|35=0|34=28|49=T1Kauaiblk4|52=20210924-09:58:15.666|56=MA|10=142|8=FIX.4.4|9=57|35=0|34=29|49=T1Kauaiblk4|52=20210924-09:59:46.065|56=MA|10=141|8=FIX.4.4|9=57|35=0|34=30|49=T1Kauaiblk4|52=20210924-10:01:16.668|56=MA|10=118|8=FIX.4.4|9=57|35=0|34=31|49=T1Kauaiblk4|52=20210924-10:02:46.668|56=MA|10=123|8=FIX.4.4|9=57|35=0|34=32|49=T1Kauaiblk4|52=20210924-10:04:16.671|56=MA|10=117|8=FIX.4.4|9=57|35=0|34=33|49=T1Kauaiblk4|52=20210924-10:05:46.681|56=MA|10=123|8=FIX.4.4|9=57|35=0|34=34|49=T1Kauaiblk4|52=20210924-10:07:16.685|56=MA|10=127|8=FIX.4.4|9=57|35=0|34=35|49=T1Kauaiblk4|52=20210924-10:08:46.685|56=MA|10=132|8=FIX.4.4|9=714|35=E|34=36|49=T1Kauaiblk4|52=20210924-10:09:47.035|56=MA|66=ListID-041321-rodrigo-18155|394=2|68=5|73=5|11=ClOrdID-18156|22=4|38=100000|44=100|48=US06051GEN51|54=1|55=[N/A/]|63=3|67=1|423=1|29726=100.25|453=1|448=T1Kauaiblk4|447=C|452=11|11=ClOrdID-18157|22=4|38=100000|44=101|48=US40434AAB52|54=1|55=[N/A]|63=3|67=2|29726=101.25|11=ClOrdID-18158|22=4|38=130000|44=102|48=US95709TAH32|54=1|55=[N/A/]|63=3|67=1|29726=102.25|453=1|448=T1Kauaiblk4|447=C|452=11|11=ClOrdID-18159|22=4|38=250000|44=103|48=US427866AZ15|54=1|55=[N/A/]|63=3|67=1|29726=103.25|453=1|448=T1Kauaiblk4|447=C|452=11|11=ClOrdID-18160|22=4|38=350000|44=104|48=US29379VAW37|54=1|55=[N/A/]|63=3|67=1|29726=104.25|453=1|448=T1Kauaiblk4|447=C|452=11|10=040|8=FIX.4.4|9=57|35=0|34=37|49=T1Kauaiblk4|52=20210924-10:11:17.681|56=MA|10=122|8=FIX.4.4|9=57|35=0|34=38|49=T1Kauaiblk4|52=20210924-10:12:47.684|56=MA|10=130|8=FIX.4.4|9=57|35=0|34=39|49=T1Kauaiblk4|52=20210924-10:14:17.687|56=MA|10=133|8=FIX.4.4|9=714|35=E|34=40|49=T1Kauaiblk4|52=20210924-10:15:36.498|56=MA|66=ListID-041321-rodrigo-18161|394=2|68=5|73=5|11=ClOrdID-18162|22=4|38=100000|44=100|48=US06051GEN51|54=1|55=[N/A/]|63=3|67=1|423=1|29726=100.25|453=1|448=T1Kauaiblk4|447=C|452=11|11=ClOrdID-18163|22=4|38=100000|44=101|48=US40434AAB52|54=1|55=[N/A]|63=3|67=2|29726=101.25|11=ClOrdID-18164|22=4|38=130000|44=102|48=US95709TAH32|54=1|55=[N/A/]|63=3|67=1|29726=102.25|453=1|448=T1Kauaiblk4|447=C|452=11|11=ClOrdID-18165|22=4|38=250000|44=103|48=US427866AZ15|54=1|55=[N/A/]|63=3|67=1|29726=103.25|453=1|448=T1Kauaiblk4|447=C|452=11|11=ClOrdID-18166|22=4|38=350000|44=104|48=US29379VAW37|54=1|55=[N/A/]|63=3|67=1|29726=104.25|453=1|448=T1Kauaiblk4|447=C|452=11|10=034|8=FIX.4.4|9=57|35=0|34=41|49=T1Kauaiblk4|52=20210924-10:17:06.689|56=MA|10=129|8=FIX.4.4|9=57|35=0|34=42|49=T1Kauaiblk4|52=20210924-10:18:37.691|56=MA|10=128|8=FIX.4.4|9=714|35=E|34=43|49=T1Kauaiblk4|52=20210924-10:18:41.727|56=MA|66=ListID-041321-rodrigo-18167|394=2|68=5|73=5|11=ClOrdID-18168|22=4|38=100000|44=100|48=US06051GEN51|54=1|55=[N/A/]|63=3|67=1|423=1|29726=100.25|453=1|448=T1Kauaiblk4|447=C|452=11|11=ClOrdID-18169|22=4|38=100000|44=101|48=US40434AAB52|54=1|55=[N/A]|63=3|67=2|29726=101.25|11=ClOrdID-18170|22=4|38=130000|44=102|48=US95709TAH32|54=1|55=[N/A/]|63=3|67=1|29726=102.25|453=1|448=T1Kauaiblk4|447=C|452=11|11=ClOrdID-18171|22=4|38=250000|44=103|48=US427866AZ15|54=1|55=[N/A/]|63=3|67=1|29726=103.25|453=1|448=T1Kauaiblk4|447=C|452=11|11=ClOrdID-18172|22=4|38=350000|44=104|48=US29379VAW37|54=1|55=[N/A/]|63=3|67=1|29726=104.25|453=1|448=T1Kauaiblk4|447=C|452=11|10=040|8=FIX.4.4|9=57|35=0|34=44|49=T1Kauaiblk4|52=20210924-10:20:12.691|56=MA|10=116|8=FIX.4.4|9=57|35=0|34=45|49=T1Kauaiblk4|52=20210924-10:21:43.684|56=MA|10=124|8=FIX.4.4|9=57|35=0|34=46|49=T1Kauaiblk4|52=20210924-10:23:13.691|56=MA|10=122|8=FIX.4.4|9=57|35=0|34=47|49=T1Kauaiblk4|52=20210924-10:24:44.696|56=MA|10=133|8=FIX.4.4|9=57|35=0|34=48|49=T1Kauaiblk4|52=20210924-10:26:14.857|56=MA|10=132|8=FIX.4.4|9=57|35=0|34=49|49=T1Kauaiblk4|52=20210924-10:27:45.697|56=MA|10=140|8=FIX.4.4|9=714|35=E|34=50|49=T1Kauaiblk4|52=20210924-10:29:11.865|56=MA|66=ListID-041321-rodrigo-18173|394=2|68=5|73=5|11=ClOrdID-18174|22=4|38=100000|44=100|48=US06051GEN51|54=1|55=[N/A/]|63=3|67=1|423=1|29726=100.25|453=1|448=T1Kauaiblk4|447=C|452=11|11=ClOrdID-18175|22=4|38=100000|44=101|48=US40434AAB52|54=1|55=[N/A]|63=3|67=2|29726=101.25|11=ClOrdID-18176|22=4|38=130000|44=102|48=US95709TAH32|54=1|55=[N/A/]|63=3|67=1|29726=102.25|453=1|448=T1Kauaiblk4|447=C|452=11|11=ClOrdID-18177|22=4|38=250000|44=103|48=US427866AZ15|54=1|55=[N/A/]|63=3|67=1|29726=103.25|453=1|448=T1Kauaiblk4|447=C|452=11|11=ClOrdID-18178|22=4|38=350000|44=104|48=US29379VAW37|54=1|55=[N/A/]|63=3|67=1|29726=104.25|453=1|448=T1Kauaiblk4|447=C|452=11|10=049|8=FIX.4.4|9=57|35=0|34=51|49=T1Kauaiblk4|52=20210924-10:30:42.696|56=MA|10=123|8=FIX.4.4|9=57|35=0|34=52|49=T1Kauaiblk4|52=20210924-10:32:13.688|56=MA|10=125|8=FIX.4.4|9=57|35=0|34=53|49=T1Kauaiblk4|52=20210924-10:33:43.700|56=MA|10=115|8=FIX.4.4|9=714|35=E|34=54|49=T1Kauaiblk4|52=20210924-10:35:12.953|56=MA|66=ListID-041321-rodrigo-18179|394=2|68=5|73=5|11=ClOrdID-18180|22=4|38=100000|44=100|48=US06051GEN51|54=1|55=[N/A/]|63=3|67=1|423=1|29726=100.25|453=1|448=T1Kauaiblk4|447=C|452=11|11=ClOrdID-18181|22=4|38=100000|44=101|48=US40434AAB52|54=1|55=[N/A]|63=3|67=2|29726=101.25|11=ClOrdID-18182|22=4|38=130000|44=102|48=US95709TAH32|54=1|55=[N/A/]|63=3|67=1|29726=102.25|453=1|448=T1Kauaiblk4|447=C|452=11|11=ClOrdID-18183|22=4|38=250000|44=103|48=US427866AZ15|54=1|55=[N/A/]|63=3|67=1|29726=103.25|453=1|448=T1Kauaiblk4|447=C|452=11|11=ClOrdID-18184|22=4|38=350000|44=104|48=US29379VAW37|54=1|55=[N/A/]|63=3|67=1|29726=104.25|453=1|448=T1Kauaiblk4|447=C|452=11|10=040|8=FIX.4.4|9=57|35=0|34=55|49=T1Kauaiblk4|52=20210924-10:36:43.626|56=MA|10=127|8=FIX.4.4|9=57|35=0|34=56|49=T1Kauaiblk4|52=20210924-10:38:13.649|56=MA|10=132|8=FIX.4.4|9=57|35=0|34=57|49=T1Kauaiblk4|52=20210924-10:39:43.693|56=MA|10=136|8=FIX.4.4|9=57|35=0|34=58|49=T1Kauaiblk4|52=20210924-10:41:13.703|56=MA|10=119|8=FIX.4.4|9=57|35=0|34=59|49=T1Kauaiblk4|52=20210924-10:42:44.691|56=MA|10=131|8=FIX.4.4|9=57|35=0|34=60|49=T1Kauaiblk4|52=20210924-10:44:14.696|56=MA|10=127|8=FIX.4.4|9=714|35=E|34=61|49=T1Kauaiblk4|52=20210924-10:45:43.157|56=MA|66=ListID-041321-rodrigo-18185|394=2|68=5|73=5|11=ClOrdID-18186|22=4|38=100000|44=100|48=US06051GEN51|54=1|55=[N/A/]|63=3|67=1|423=1|29726=100.25|453=1|448=T1Kauaiblk4|447=C|452=11|11=ClOrdID-18187|22=4|38=100000|44=101|48=US40434AAB52|54=1|55=[N/A]|63=3|67=2|29726=101.25|11=ClOrdID-18188|22=4|38=130000|44=102|48=US95709TAH32|54=1|55=[N/A/]|63=3|67=1|29726=102.25|453=1|448=T1Kauaiblk4|447=C|452=11|11=ClOrdID-18189|22=4|38=250000|44=103|48=US427866AZ15|54=1|55=[N/A/]|63=3|67=1|29726=103.25|453=1|448=T1Kauaiblk4|447=C|452=11|11=ClOrdID-18190|22=4|38=350000|44=104|48=US29379VAW37|54=1|55=[N/A/]|63=3|67=1|29726=104.25|453=1|448=T1Kauaiblk4|447=C|452=11|10=057|8=FIX.4.4|9=57|35=0|34=62|49=T1Kauaiblk4|52=20210924-10:47:13.636|56=MA|10=125|8=FIX.4.4|9=57|35=0|34=63|49=T1Kauaiblk4|52=20210924-10:48:43.702|56=MA|10=124|8=FIX.4.4|9=57|35=0|34=64|49=T1Kauaiblk4|52=20210924-10:50:13.705|56=MA|10=118|8=FIX.4.4|9=57|35=0|34=65|49=T1Kauaiblk4|52=20210924-10:51:44.629|56=MA|10=129|8=FIX.4.4|9=714|35=E|34=66|49=T1Kauaiblk4|52=20210924-10:52:57.316|56=MA|66=ListID-041321-rodrigo-18191|394=2|68=5|73=5|11=ClOrdID-18192|22=4|38=100000|44=100|48=US06051GEN51|54=1|55=[N/A/]|63=3|67=1|423=1|29726=100.25|453=1|448=T1Kauaiblk4|447=C|452=11|11=ClOrdID-18193|22=4|38=100000|44=101|48=US40434AAB52|54=1|55=[N/A]|63=3|67=2|29726=101.25|11=ClOrdID-18194|22=4|38=130000|44=102|48=US95709TAH32|54=1|55=[N/A/]|63=3|67=1|29726=102.25|453=1|448=T1Kauaiblk4|447=C|452=11|11=ClOrdID-18195|22=4|38=250000|44=103|48=US427866AZ15|54=1|55=[N/A/]|63=3|67=1|29726=103.25|453=1|448=T1Kauaiblk4|447=C|452=11|11=ClOrdID-18196|22=4|38=350000|44=104|48=US29379VAW37|54=1|55=[N/A/]|63=3|67=1|29726=104.25|453=1|448=T1Kauaiblk4|447=C|452=11|10=053|8=FIX.4.4|9=57|35=0|34=67|49=T1Kauaiblk4|52=20210924-10:54:27.617|56=MA|10=132|8=FIX.4.4|9=57|35=0|34=68|49=T1Kauaiblk4|52=20210924-10:55:57.696|56=MA|10=144|8=FIX.4.4|9=57|35=0|34=69|49=T1Kauaiblk4|52=20210924-10:57:27.705|56=MA|10=135|8=FIX.4.4|9=57|35=0|34=70|49=T1Kauaiblk4|52=20210924-10:58:57.707|56=MA|10=133|8=FIX.4.4|9=57|35=0|34=71|49=T1Kauaiblk4|52=20210924-11:00:28.693|56=MA|10=124|8=FIX.4.4|9=57|35=0|34=72|49=T1Kauaiblk4|52=20210924-11:01:58.704|56=MA|10=122|8=FIX.4.4|9=57|35=0|34=73|49=T1Kauaiblk4|52=20210924-11:03:29.694|56=MA|10=131|8=FIX.4.4|9=57|35=0|34=74|49=T1Kauaiblk4|52=20210924-11:04:59.704|56=MA|10=128|8=FIX.4.4|9=57|35=0|34=75|49=T1Kauaiblk4|52=20210924-11:06:29.706|56=MA|10=130|8=FIX.4.4|9=57|35=0|34=76|49=T1Kauaiblk4|52=20210924-11:08:00.697|56=MA|10=131|8=FIX.4.4|9=714|35=E|34=77|49=T1Kauaiblk4|52=20210924-11:08:49.053|56=MA|66=ListID-041321-rodrigo-18197|394=2|68=5|73=5|11=ClOrdID-18198|22=4|38=100000|44=100|48=US06051GEN51|54=1|55=[N/A/]|63=3|67=1|423=1|29726=100.25|453=1|448=T1Kauaiblk4|447=C|452=11|11=ClOrdID-18199|22=4|38=100000|44=101|48=US40434AAB52|54=1|55=[N/A]|63=3|67=2|29726=101.25|11=ClOrdID-18200|22=4|38=130000|44=102|48=US95709TAH32|54=1|55=[N/A/]|63=3|67=1|29726=102.25|453=1|448=T1Kauaiblk4|447=C|452=11|11=ClOrdID-18201|22=4|38=250000|44=103|48=US427866AZ15|54=1|55=[N/A/]|63=3|67=1|29726=103.25|453=1|448=T1Kauaiblk4|447=C|452=11|11=ClOrdID-18202|22=4|38=350000|44=104|48=US29379VAW37|54=1|55=[N/A/]|63=3|67=1|29726=104.25|453=1|448=T1Kauaiblk4|447=C|452=11|10=038|8=FIX.4.4|9=57|35=0|34=78|49=T1Kauaiblk4|52=20210924-11:10:19.698|56=MA|10=137|8=FIX.4.4|9=57|35=0|34=79|49=T1Kauaiblk4|52=20210924-11:11:49.699|56=MA|10=143|8=FIX.4.4|9=57|35=0|34=80|49=T1Kauaiblk4|52=20210924-11:13:20.708|56=MA|10=117|8=FIX.4.4|9=57|35=0|34=81|49=T1Kauaiblk4|52=20210924-11:14:51.699|56=MA|10=132|8=FIX.4.4|9=57|35=0|34=82|49=T1Kauaiblk4|52=20210924-11:16:21.700|56=MA|10=115|8=FIX.4.4|9=57|35=0|34=83|49=T1Kauaiblk4|52=20210924-11:17:51.701|56=MA|10=121|8=FIX.4.4|9=714|35=E|34=84|49=T1Kauaiblk4|52=20210924-11:19:10.838|56=MA|66=ListID-041321-rodrigo-18203|394=2|68=5|73=5|11=ClOrdID-18204|22=4|38=100000|44=100|48=US06051GEN51|54=1|55=[N/A/]|63=3|67=1|423=1|29726=100.25|453=1|448=T1Kauaiblk4|447=C|452=11|11=ClOrdID-18205|22=4|38=100000|44=101|48=US40434AAB52|54=1|55=[N/A]|63=3|67=2|29726=101.25|11=ClOrdID-18206|22=4|38=130000|44=102|48=US95709TAH32|54=1|55=[N/A/]|63=3|67=1|29726=102.25|453=1|448=T1Kauaiblk4|447=C|452=11|11=ClOrdID-18207|22=4|38=250000|44=103|48=US427866AZ15|54=1|55=[N/A/]|63=3|67=1|29726=103.25|453=1|448=T1Kauaiblk4|447=C|452=11|11=ClOrdID-18208|22=4|38=350000|44=104|48=US29379VAW37|54=1|55=[N/A/]|63=3|67=1|29726=104.25|453=1|448=T1Kauaiblk4|447=C|452=11|10=019|8=FIX.4.4|9=57|35=0|34=85|49=T1Kauaiblk4|52=20210924-11:20:41.614|56=MA|10=119|8=FIX.4.4|9=57|35=0|34=86|49=T1Kauaiblk4|52=20210924-11:22:11.630|56=MA|10=117|8=FIX.4.4|9=714|35=E|34=87|49=T1Kauaiblk4|52=20210924-11:22:41.775|56=MA|66=ListID-041321-rodrigo-18209|394=2|68=5|73=5|11=ClOrdID-18210|22=4|38=100000|44=100|48=US06051GEN51|54=1|55=[N/A/]|63=3|67=1|423=1|29726=100.25|453=1|448=T1Kauaiblk4|447=C|452=11|11=ClOrdID-18211|22=4|38=100000|44=101|48=US40434AAB52|54=1|55=[N/A]|63=3|67=2|29726=101.25|11=ClOrdID-18212|22=4|38=130000|44=102|48=US95709TAH32|54=1|55=[N/A/]|63=3|67=1|29726=102.25|453=1|448=T1Kauaiblk4|447=C|452=11|11=ClOrdID-18213|22=4|38=250000|44=103|48=US427866AZ15|54=1|55=[N/A/]|63=3|67=1|29726=103.25|453=1|448=T1Kauaiblk4|447=C|452=11|11=ClOrdID-18214|22=4|38=350000|44=104|48=US29379VAW37|54=1|55=[N/A/]|63=3|67=1|29726=104.25|453=1|448=T1Kauaiblk4|447=C|452=11|10=011|8=FIX.4.4|9=57|35=0|34=88|49=T1Kauaiblk4|52=20210924-11:24:12.710|56=MA|10=121|8=FIX.4.4|9=714|35=E|34=89|49=T1Kauaiblk4|52=20210924-11:24:24.176|56=MA|66=ListID-041321-rodrigo-18215|394=2|68=5|73=5|11=ClOrdID-18216|22=4|38=100000|44=100|48=US06051GEN51|54=1|55=[N/A/]|63=3|67=1|423=1|29726=100.25|453=1|448=T1Kauaiblk4|447=C|452=11|11=ClOrdID-18217|22=4|38=100000|44=101|48=US40434AAB52|54=1|55=[N/A]|63=3|67=2|29726=101.25|11=ClOrdID-18218|22=4|38=130000|44=102|48=US95709TAH32|54=1|55=[N/A/]|63=3|67=1|29726=102.25|453=1|448=T1Kauaiblk4|447=C|452=11|11=ClOrdID-18219|22=4|38=250000|44=103|48=US427866AZ15|54=1|55=[N/A/]|63=3|67=1|29726=103.25|453=1|448=T1Kauaiblk4|447=C|452=11|11=ClOrdID-18220|22=4|38=350000|44=104|48=US29379VAW37|54=1|55=[N/A/]|63=3|67=1|29726=104.25|453=1|448=T1Kauaiblk4|447=C|452=11|10=029|8=FIX.4.4|9=57|35=0|34=90|49=T1Kauaiblk4|52=20210924-11:25:54.621|56=MA|10=122|8=FIX.4.4|9=57|35=0|34=91|49=T1Kauaiblk4|52=20210924-11:27:24.700|56=MA|10=120|8=FIX.4.4|9=57|35=0|34=92|49=T1Kauaiblk4|52=20210924-11:28:54.847|56=MA|10=137|8=FIX.4.4|9=57|35=0|34=93|49=T1Kauaiblk4|52=20210924-11:30:25.711|56=MA|10=119|8=FIX.4.4|9=57|35=0|34=94|49=T1Kauaiblk4|52=20210924-11:31:55.713|56=MA|10=126|8=FIX.4.4|9=57|35=0|34=95|49=T1Kauaiblk4|52=20210924-11:33:26.704|56=MA|10=127|8=FIX.4.4|9=57|35=0|34=96|49=T1Kauaiblk4|52=20210924-11:34:56.710|56=MA|10=129|8=FIX.4.4|9=57|35=0|34=97|49=T1Kauaiblk4|52=20210924-11:36:27.611|56=MA|10=130|8=FIX.4.4|9=57|35=0|34=98|49=T1Kauaiblk4|52=20210924-11:37:57.701|56=MA|10=135|8=FIX.4.4|9=57|35=0|34=99|49=T1Kauaiblk4|52=20210924-11:39:27.769|56=MA|10=149|8=FIX.4.4|9=58|35=0|34=100|49=T1Kauaiblk4|52=20210924-11:40:58.712|56=MA|10=165|8=FIX.4.4|9=58|35=0|34=101|49=T1Kauaiblk4|52=20210924-11:42:28.752|56=MA|10=169|8=FIX.4.4|9=58|35=0|34=102|49=T1Kauaiblk4|52=20210924-11:43:59.610|56=MA|10=168|8=FIX.4.4|9=58|35=0|34=103|49=T1Kauaiblk4|52=20210924-11:45:29.711|56=MA|10=170|8=FIX.4.4|9=58|35=0|34=104|49=T1Kauaiblk4|52=20210924-11:46:59.714|56=MA|10=178|8=FIX.4.4|9=58|35=0|34=105|49=T1Kauaiblk4|52=20210924-11:48:30.710|56=MA|10=166|8=FIX.4.4|9=58|35=0|34=106|49=T1Kauaiblk4|52=20210924-11:50:00.714|56=MA|10=161|8=FIX.4.4|9=58|35=0|34=107|49=T1Kauaiblk4|52=20210924-11:51:31.612|56=MA|10=164|8=FIX.4.4|9=58|35=0|34=108|49=T1Kauaiblk4|52=20210924-11:53:01.710|56=MA|10=163|8=FIX.4.4|9=58|35=0|34=109|49=T1Kauaiblk4|52=20210924-11:54:32.601|56=MA|10=168|8=FIX.4.4|9=58|35=0|34=110|49=T1Kauaiblk4|52=20210924-11:56:02.704|56=MA|10=163|8=FIX.4.4|9=58|35=0|34=111|49=T1Kauaiblk4|52=20210924-11:57:32.705|56=MA|10=169|8=FIX.4.4|9=58|35=0|34=112|49=T1Kauaiblk4|52=20210924-11:59:03.648|56=MA|10=176|8=FIX.4.4|9=58|35=0|34=113|49=T1Kauaiblk4|52=20210924-12:00:33.701|56=MA|10=157|8=FIX.4.4|9=58|35=0|34=114|49=T1Kauaiblk4|52=20210924-12:02:03.704|56=MA|10=160|8=FIX.4.4|9=58|35=0|34=115|49=T1Kauaiblk4|52=20210924-12:03:33.712|56=MA|10=164|8=FIX.4.4|9=58|35=0|34=116|49=T1Kauaiblk4|52=20210924-12:05:04.702|56=MA|10=164|8=FIX.4.4|9=58|35=0|34=117|49=T1Kauaiblk4|52=20210924-12:06:34.705|56=MA|10=172|8=FIX.4.4|9=58|35=0|34=118|49=T1Kauaiblk4|52=20210924-12:08:04.927|56=MA|10=178|8=FIX.4.4|9=58|35=0|34=119|49=T1Kauaiblk4|52=20210924-12:09:35.705|56=MA|10=178|8=FIX.4.4|9=58|35=0|34=120|49=T1Kauaiblk4|52=20210924-12:11:05.706|56=MA|10=161|8=FIX.4.4|9=58|35=0|34=121|49=T1Kauaiblk4|52=20210924-12:12:35.707|56=MA|10=167|8=FIX.4.4|9=58|35=0|34=122|49=T1Kauaiblk4|52=20210924-12:14:05.707|56=MA|10=167|8=FIX.4.4|9=58|35=0|34=123|49=T1Kauaiblk4|52=20210924-12:15:35.708|56=MA|10=173|8=FIX.4.4|9=58|35=0|34=124|49=T1Kauaiblk4|52=20210924-12:17:05.709|56=MA|10=174|8=FIX.4.4|9=58|35=0|34=125|49=T1Kauaiblk4|52=20210924-12:18:35.710|56=MA|10=171|8=FIX.4.4|9=58|35=0|34=126|49=T1Kauaiblk4|52=20210924-12:20:05.712|56=MA|10=164|8=FIX.4.4|9=58|35=0|34=127|49=T1Kauaiblk4|52=20210924-12:21:36.713|56=MA|10=171|8=FIX.4.4|9=58|35=0|34=128|49=T1Kauaiblk4|52=20210924-12:23:06.713|56=MA|10=171|8=FIX.4.4|9=58|35=0|34=129|49=T1Kauaiblk4|52=20210924-12:24:36.714|56=MA|10=177|8=FIX.4.4|9=58|35=0|34=130|49=T1Kauaiblk4|52=20210924-12:26:07.617|56=MA|10=171|8=FIX.4.4|9=58|35=0|34=131|49=T1Kauaiblk4|52=20210924-12:27:37.714|56=MA|10=174|8=FIX.4.4|9=58|35=0|34=132|49=T1Kauaiblk4|52=20210924-12:29:07.716|56=MA|10=176|8=FIX.4.4|9=58|35=0|34=133|49=T1Kauaiblk4|52=20210924-12:30:37.716|56=MA|10=172|8=FIX.4.4|9=58|35=0|34=134|49=T1Kauaiblk4|52=20210924-12:32:07.716|56=MA|10=172|8=FIX.4.4|9=58|35=0|34=135|49=T1Kauaiblk4|52=20210924-12:33:37.719|56=MA|10=180|8=FIX.4.4|9=58|35=0|34=136|49=T1Kauaiblk4|52=20210924-12:35:08.730|56=MA|10=174|8=FIX.4.4|9=715|35=E|34=137|49=T1Kauaiblk4|52=20210924-12:36:30.368|56=MA|66=ListID-041321-rodrigo-18221|394=2|68=5|73=5|11=ClOrdID-18222|22=4|38=100000|44=100|48=US06051GEN51|54=1|55=[N/A/]|63=3|67=1|423=1|29726=100.25|453=1|448=T1Kauaiblk4|447=C|452=11|11=ClOrdID-18223|22=4|38=100000|44=101|48=US40434AAB52|54=1|55=[N/A]|63=3|67=2|29726=101.25|11=ClOrdID-18224|22=4|38=130000|44=102|48=US95709TAH32|54=1|55=[N/A/]|63=3|67=1|29726=102.25|453=1|448=T1Kauaiblk4|447=C|452=11|11=ClOrdID-18225|22=4|38=250000|44=103|48=US427866AZ15|54=1|55=[N/A/]|63=3|67=1|29726=103.25|453=1|448=T1Kauaiblk4|447=C|452=11|11=ClOrdID-18226|22=4|38=350000|44=104|48=US29379VAW37|54=1|55=[N/A/]|63=3|67=1|29726=104.25|453=1|448=T1Kauaiblk4|447=C|452=11|10=067|8=FIX.4.4|9=58|35=0|34=138|49=T1Kauaiblk4|52=20210924-12:38:00.728|56=MA|10=178|8=FIX.4.4|9=58|35=0|34=139|49=T1Kauaiblk4|52=20210924-12:39:30.730|56=MA|10=176|8=FIX.4.4|9=715|35=E|34=140|49=T1Kauaiblk4|52=20210924-12:39:41.220|56=MA|66=ListID-041321-rodrigo-18227|394=2|68=5|73=5|11=ClOrdID-18228|22=4|38=100000|44=100|48=US06051GEN51|54=1|55=[N/A/]|63=3|67=1|423=1|29726=100.25|453=1|448=T1Kauaiblk4|447=C|452=11|11=ClOrdID-18229|22=4|38=100000|44=101|48=US40434AAB52|54=1|55=[N/A]|63=3|67=2|29726=101.25|11=ClOrdID-18230|22=4|38=130000|44=102|48=US95709TAH32|54=1|55=[N/A/]|63=3|67=1|29726=102.25|453=1|448=T1Kauaiblk4|447=C|452=11|11=ClOrdID-18231|22=4|38=250000|44=103|48=US427866AZ15|54=1|55=[N/A/]|63=3|67=1|29726=103.25|453=1|448=T1Kauaiblk4|447=C|452=11|11=ClOrdID-18232|22=4|38=350000|44=104|48=US29379VAW37|54=1|55=[N/A/]|63=3|67=1|29726=104.25|453=1|448=T1Kauaiblk4|447=C|452=11|10=062|8=FIX.4.4|9=58|35=0|34=141|49=T1Kauaiblk4|52=20210924-12:41:11.660|56=MA|10=163|8=FIX.4.4|9=58|35=0|34=142|49=T1Kauaiblk4|52=20210924-12:42:41.733|56=MA|10=169|8=FIX.4.4|9=58|35=0|34=143|49=T1Kauaiblk4|52=20210924-12:44:11.753|56=MA|10=171|8=FIX.4.4|9=58|35=0|34=144|49=T1Kauaiblk4|52=20210924-12:45:41.761|56=MA|10=175|8=FIX.4.4|9=58|35=0|34=145|49=T1Kauaiblk4|52=20210924-12:47:12.721|56=MA|10=172|8=FIX.4.4|9=58|35=0|34=146|49=T1Kauaiblk4|52=20210924-12:48:42.722|56=MA|10=178|8=FIX.4.4|9=58|35=0|34=147|49=T1Kauaiblk4|52=20210924-12:50:12.724|56=MA|10=171|8=FIX.4.4|9=58|35=0|34=148|49=T1Kauaiblk4|52=20210924-12:51:42.724|56=MA|10=176|8=FIX.4.4|9=58|35=0|34=149|49=T1Kauaiblk4|52=20210924-12:53:13.725|56=MA|10=178|8=FIX.4.4|9=58|35=0|34=150|49=T1Kauaiblk4|52=20210924-12:54:43.725|56=MA|10=174|8=FIX.4.4|9=58|35=0|34=151|49=T1Kauaiblk4|52=20210924-12:56:13.733|56=MA|10=173|8=FIX.4.4|9=58|35=0|34=152|49=T1Kauaiblk4|52=20210924-12:57:44.736|56=MA|10=182|8=FIX.4.4|9=58|35=0|34=153|49=T1Kauaiblk4|52=20210924-12:59:14.738|56=MA|10=184|8=FIX.4.4|9=58|35=0|34=154|49=T1Kauaiblk4|52=20210924-13:00:44.740|56=MA|10=168|8=FIX.4.4|9=58|35=0|34=155|49=T1Kauaiblk4|52=20210924-13:02:14.740|56=MA|10=168|8=FIX.4.4|9=58|35=0|34=156|49=T1Kauaiblk4|52=20210924-13:03:45.615|56=MA|10=175|8=FIX.4.4|9=58|35=0|34=157|49=T1Kauaiblk4|52=20210924-13:05:15.648|56=MA|10=181|8=FIX.4.4|9=58|35=0|34=158|49=T1Kauaiblk4|52=20210924-13:06:45.731|56=MA|10=179|8=FIX.4.4|9=58|35=0|34=159|49=T1Kauaiblk4|52=20210924-13:08:15.741|56=MA|10=180|8=FIX.4.4|9=715|35=E|34=160|49=T1Kauaiblk4|52=20210924-13:09:04.374|56=MA|66=ListID-041321-rodrigo-18233|394=2|68=5|73=5|11=ClOrdID-18234|22=4|38=100000|44=100|48=US06051GEN51|54=1|55=[N/A/]|63=3|67=1|423=1|29726=100.25|453=1|448=T1Kauaiblk4|447=C|452=11|11=ClOrdID-18235|22=4|38=100000|44=101|48=US40434AAB52|54=1|55=[N/A]|63=3|67=2|29726=101.25|11=ClOrdID-18236|22=4|38=130000|44=102|48=US95709TAH32|54=1|55=[N/A/]|63=3|67=1|29726=102.25|453=1|448=T1Kauaiblk4|447=C|452=11|11=ClOrdID-18237|22=4|38=250000|44=103|48=US427866AZ15|54=1|55=[N/A/]|63=3|67=1|29726=103.25|453=1|448=T1Kauaiblk4|447=C|452=11|11=ClOrdID-18238|22=4|38=350000|44=104|48=US29379VAW37|54=1|55=[N/A/]|63=3|67=1|29726=104.25|453=1|448=T1Kauaiblk4|447=C|452=11|10=080|8=FIX.4.4|9=58|35=0|34=161|49=T1Kauaiblk4|52=20210924-13:10:34.742|56=MA|10=168|8=FIX.4.4|9=58|35=0|34=162|49=T1Kauaiblk4|52=20210924-13:12:04.742|56=MA|10=168|8=FIX.4.4|9=58|35=0|34=163|49=T1Kauaiblk4|52=20210924-13:13:34.743|56=MA|10=174|8=FIX.4.4|9=58|35=0|34=164|49=T1Kauaiblk4|52=20210924-13:15:05.730|56=MA|10=171|8=FIX.4.4|9=58|35=0|34=165|49=T1Kauaiblk4|52=20210924-13:16:35.738|56=MA|10=184|8=FIX.4.4|9=58|35=0|34=166|49=T1Kauaiblk4|52=20210924-13:18:05.742|56=MA|10=179|8=FIX.4.4|9=58|35=0|34=167|49=T1Kauaiblk4|52=20210924-13:19:36.744|56=MA|10=187|8=FIX.4.4|9=58|35=0|34=168|49=T1Kauaiblk4|52=20210924-13:21:07.623|56=MA|10=175|8=FIX.4.4|9=58|35=0|34=169|49=T1Kauaiblk4|52=20210924-13:22:37.732|56=MA|10=181|8=FIX.4.4|9=58|35=0|34=170|49=T1Kauaiblk4|52=20210924-13:24:07.733|56=MA|10=173|8=FIX.4.4|9=58|35=0|34=171|49=T1Kauaiblk4|52=20210924-13:25:37.733|56=MA|10=178|8=FIX.4.4|9=58|35=0|34=172|49=T1Kauaiblk4|52=20210924-13:27:07.733|56=MA|10=178|8=FIX.4.4|9=58|35=0|34=173|49=T1Kauaiblk4|52=20210924-13:28:37.734|56=MA|10=184|8=FIX.4.4|9=715|35=E|34=174|49=T1Kauaiblk4|52=20210924-13:29:22.704|56=MA|66=ListID-041321-rodrigo-18239|394=2|68=5|73=5|11=ClOrdID-18240|22=4|38=100000|44=100|48=US06051GEN51|54=1|55=[N/A/]|63=3|67=1|423=1|29726=100.25|453=1|448=T1Kauaiblk4|447=C|452=11|11=ClOrdID-18241|22=4|38=100000|44=101|48=US40434AAB52|54=1|55=[N/A]|63=3|67=2|29726=101.25|11=ClOrdID-18242|22=4|38=130000|44=102|48=US95709TAH32|54=1|55=[N/A/]|63=3|67=1|29726=102.25|453=1|448=T1Kauaiblk4|447=C|452=11|11=ClOrdID-18243|22=4|38=250000|44=103|48=US427866AZ15|54=1|55=[N/A/]|63=3|67=1|29726=103.25|453=1|448=T1Kauaiblk4|447=C|452=11|11=ClOrdID-18244|22=4|38=350000|44=104|48=US29379VAW37|54=1|55=[N/A/]|63=3|67=1|29726=104.25|453=1|448=T1Kauaiblk4|447=C|452=11|10=075|8=FIX.4.4|9=715|35=E|34=175|49=T1Kauaiblk4|52=20210924-13:30:30.930|56=MA|66=ListID-041321-rodrigo-18245|394=2|68=5|73=5|11=ClOrdID-18246|22=4|38=100000|44=100|48=US06051GEN51|54=1|55=[N/A/]|63=3|67=1|423=1|29726=100.25|453=1|448=T1Kauaiblk4|447=C|452=11|11=ClOrdID-18247|22=4|38=100000|44=101|48=US40434AAB52|54=1|55=[N/A]|63=3|67=2|29726=101.25|11=ClOrdID-18248|22=4|38=130000|44=102|48=US95709TAH32|54=1|55=[N/A/]|63=3|67=1|29726=102.25|453=1|448=T1Kauaiblk4|447=C|452=11|11=ClOrdID-18249|22=4|38=250000|44=103|48=US427866AZ15|54=1|55=[N/A/]|63=3|67=1|29726=103.25|453=1|448=T1Kauaiblk4|447=C|452=11|11=ClOrdID-18250|22=4|38=350000|44=104|48=US29379VAW37|54=1|55=[N/A/]|63=3|67=1|29726=104.25|453=1|448=T1Kauaiblk4|447=C|452=11|10=086|8=FIX.4.4|9=715|35=E|34=176|49=T1Kauaiblk4|52=20210924-13:31:21.886|56=MA|66=ListID-041321-rodrigo-18251|394=2|68=5|73=5|11=ClOrdID-18252|22=4|38=100000|44=100|48=US06051GEN51|54=1|55=[N/A/]|63=3|67=1|423=1|29726=100.25|453=1|448=T1Kauaiblk4|447=C|452=11|11=ClOrdID-18253|22=4|38=100000|44=101|48=US40434AAB52|54=1|55=[N/A]|63=3|67=2|29726=101.25|11=ClOrdID-18254|22=4|38=130000|44=102|48=US95709TAH32|54=1|55=[N/A/]|63=3|67=1|29726=102.25|453=1|448=T1Kauaiblk4|447=C|452=11|11=ClOrdID-18255|22=4|38=250000|44=103|48=US427866AZ15|54=1|55=[N/A/]|63=3|67=1|29726=103.25|453=1|448=T1Kauaiblk4|447=C|452=11|11=ClOrdID-18256|22=4|38=350000|44=104|48=US29379VAW37|54=1|55=[N/A/]|63=3|67=1|29726=104.25|453=1|448=T1Kauaiblk4|447=C|452=11|10=089|8=FIX.4.4|9=58|35=0|34=177|49=T1Kauaiblk4|52=20210924-13:32:52.694|56=MA|10=185|8=FIX.4.4|9=58|35=0|34=178|49=T1Kauaiblk4|52=20210924-13:34:22.734|56=MA|10=180|8=FIX.4.4|9=58|35=0|34=179|49=T1Kauaiblk4|52=20210924-13:35:52.735|56=MA|10=186|8=FIX.4.4|9=58|35=0|34=180|49=T1Kauaiblk4|52=20210924-13:37:22.735|56=MA|10=177|8=FIX.4.4|9=715|35=E|34=181|49=T1Kauaiblk4|52=20210924-13:37:45.883|56=MA|66=ListID-041321-rodrigo-18257|394=2|68=5|73=5|11=ClOrdID-18258|22=4|38=100000|44=100|48=US06051GEN51|54=1|55=[N/A/]|63=3|67=1|423=1|29726=100.25|453=1|448=T1Kauaiblk4|447=C|452=11|11=ClOrdID-18259|22=4|38=100000|44=101|48=US40434AAB52|54=1|55=[N/A]|63=3|67=2|29726=101.25|11=ClOrdID-18260|22=4|38=130000|44=102|48=US95709TAH32|54=1|55=[N/A/]|63=3|67=1|29726=102.25|453=1|448=T1Kauaiblk4|447=C|452=11|11=ClOrdID-18261|22=4|38=250000|44=103|48=US427866AZ15|54=1|55=[N/A/]|63=3|67=1|29726=103.25|453=1|448=T1Kauaiblk4|447=C|452=11|11=ClOrdID-18262|22=4|38=350000|44=104|48=US29379VAW37|54=1|55=[N/A/]|63=3|67=1|29726=104.25|453=1|448=T1Kauaiblk4|447=C|452=11|10=103|8=FIX.4.4|9=715|35=E|34=182|49=T1Kauaiblk4|52=20210924-13:38:15.748|56=MA|66=ListID-041321-rodrigo-18263|394=2|68=5|73=5|11=ClOrdID-18264|22=4|38=100000|44=100|48=US06051GEN51|54=1|55=[N/A/]|63=3|67=1|423=1|29726=100.25|453=1|448=T1Kauaiblk4|447=C|452=11|11=ClOrdID-18265|22=4|38=100000|44=101|48=US40434AAB52|54=1|55=[N/A]|63=3|67=2|29726=101.25|11=ClOrdID-18266|22=4|38=130000|44=102|48=US95709TAH32|54=1|55=[N/A/]|63=3|67=1|29726=102.25|453=1|448=T1Kauaiblk4|447=C|452=11|11=ClOrdID-18267|22=4|38=250000|44=103|48=US427866AZ15|54=1|55=[N/A/]|63=3|67=1|29726=103.25|453=1|448=T1Kauaiblk4|447=C|452=11|11=ClOrdID-18268|22=4|38=350000|44=104|48=US29379VAW37|54=1|55=[N/A/]|63=3|67=1|29726=104.25|453=1|448=T1Kauaiblk4|447=C|452=11|10=111|8=FIX.4.4|9=58|35=0|34=183|49=T1Kauaiblk4|52=20210924-13:39:46.735|56=MA|10=188|8=FIX.4.4|9=715|35=E|34=184|49=T1Kauaiblk4|52=20210924-13:41:01.144|56=MA|66=ListID-041321-rodrigo-18269|394=2|68=5|73=5|11=ClOrdID-18270|22=4|38=100000|44=100|48=US06051GEN51|54=1|55=[N/A/]|63=3|67=1|423=1|29726=100.25|453=1|448=T1Kauaiblk4|447=C|452=11|11=ClOrdID-18271|22=4|38=100000|44=101|48=US40434AAB52|54=1|55=[N/A]|63=3|67=2|29726=101.25|11=ClOrdID-18272|22=4|38=130000|44=102|48=US95709TAH32|54=1|55=[N/A/]|63=3|67=1|29726=102.25|453=1|448=T1Kauaiblk4|447=C|452=11|11=ClOrdID-18273|22=4|38=250000|44=103|48=US427866AZ15|54=1|55=[N/A/]|63=3|67=1|29726=103.25|453=1|448=T1Kauaiblk4|447=C|452=11|11=ClOrdID-18274|22=4|38=350000|44=104|48=US29379VAW37|54=1|55=[N/A/]|63=3|67=1|29726=104.25|453=1|448=T1Kauaiblk4|447=C|452=11|10=083|8=FIX.4.4|9=58|35=0|34=185|49=T1Kauaiblk4|52=20210924-13:42:31.736|56=MA|10=179|8=FIX.4.4|9=58|35=5|34=186|49=T1Kauaiblk4|52=20210924-13:42:52.714|56=MA|10=184|8=FIX.4.4|9=91|35=A|34=1|49=T1Kauaiblk4|52=20210924-14:11:05.745|56=MA|98=0|108=90|95=8|96=3.0.0rc5|141=Y|10=040|8=FIX.4.4|9=713|35=E|34=2|49=T1Kauaiblk4|52=20210924-14:11:07.791|56=MA|66=ListID-041321-rodrigo-18275|394=2|68=5|73=5|11=ClOrdID-18276|22=4|38=100000|44=100|48=US06051GEN51|54=1|55=[N/A/]|63=3|67=1|423=1|29726=100.25|453=1|448=T1Kauaiblk4|447=C|452=11|11=ClOrdID-18277|22=4|38=100000|44=101|48=US40434AAB52|54=1|55=[N/A]|63=3|67=2|29726=101.25|11=ClOrdID-18278|22=4|38=130000|44=102|48=US95709TAH32|54=1|55=[N/A/]|63=3|67=1|29726=102.25|453=1|448=T1Kauaiblk4|447=C|452=11|11=ClOrdID-18279|22=4|38=250000|44=103|48=US427866AZ15|54=1|55=[N/A/]|63=3|67=1|29726=103.25|453=1|448=T1Kauaiblk4|447=C|452=11|11=ClOrdID-18280|22=4|38=350000|44=104|48=US29379VAW37|54=1|55=[N/A/]|63=3|67=1|29726=104.25|453=1|448=T1Kauaiblk4|447=C|452=11|10=004|8=FIX.4.4|9=56|35=0|34=3|49=T1Kauaiblk4|52=20210924-14:12:38.747|56=MA|10=077|8=FIX.4.4|9=56|35=0|34=4|49=T1Kauaiblk4|52=20210924-14:14:08.752|56=MA|10=073|8=FIX.4.4|9=56|35=0|34=5|49=T1Kauaiblk4|52=20210924-14:15:39.754|56=MA|10=081|8=FIX.4.4|9=56|35=0|34=6|49=T1Kauaiblk4|52=20210924-14:17:09.754|56=MA|10=081|8=FIX.4.4|9=713|35=E|34=7|49=T1Kauaiblk4|52=20210924-14:17:13.516|56=MA|66=ListID-041321-rodrigo-18281|394=2|68=5|73=5|11=ClOrdID-18282|22=4|38=100000|44=100|48=US06051GEN51|54=1|55=[N/A/]|63=3|67=1|423=1|29726=100.25|453=1|448=T1Kauaiblk4|447=C|452=11|11=ClOrdID-18283|22=4|38=100000|44=101|48=US40434AAB52|54=1|55=[N/A]|63=3|67=2|29726=101.25|11=ClOrdID-18284|22=4|38=130000|44=102|48=US95709TAH32|54=1|55=[N/A/]|63=3|67=1|29726=102.25|453=1|448=T1Kauaiblk4|447=C|452=11|11=ClOrdID-18285|22=4|38=250000|44=103|48=US427866AZ15|54=1|55=[N/A/]|63=3|67=1|29726=103.25|453=1|448=T1Kauaiblk4|447=C|452=11|11=ClOrdID-18286|22=4|38=350000|44=104|48=US29379VAW37|54=1|55=[N/A/]|63=3|67=1|29726=104.25|453=1|448=T1Kauaiblk4|447=C|452=11|10=254|8=FIX.4.4|9=713|35=E|34=8|49=T1Kauaiblk4|52=20210924-14:17:14.419|56=MA|66=ListID-041321-rodrigo-18287|394=2|68=5|73=5|11=ClOrdID-18288|22=4|38=100000|44=100|48=US06051GEN51|54=1|55=[N/A/]|63=3|67=1|423=1|29726=100.25|453=1|448=T1Kauaiblk4|447=C|452=11|11=ClOrdID-18289|22=4|38=100000|44=101|48=US40434AAB52|54=1|55=[N/A]|63=3|67=2|29726=101.25|11=ClOrdID-18290|22=4|38=130000|44=102|48=US95709TAH32|54=1|55=[N/A/]|63=3|67=1|29726=102.25|453=1|448=T1Kauaiblk4|447=C|452=11|11=ClOrdID-18291|22=4|38=250000|44=103|48=US427866AZ15|54=1|55=[N/A/]|63=3|67=1|29726=103.25|453=1|448=T1Kauaiblk4|447=C|452=11|11=ClOrdID-18292|22=4|38=350000|44=104|48=US29379VAW37|54=1|55=[N/A/]|63=3|67=1|29726=104.25|453=1|448=T1Kauaiblk4|447=C|452=11|10=011|8=FIX.4.4|9=74|35=5|34=9|49=T1Kauaiblk4|52=20210924-14:18:01.742|56=MA|58=user requested|10=171|8=FIX.4.4|9=91|35=A|34=1|49=T1Kauaiblk4|52=20210924-14:19:01.703|56=MA|98=0|108=90|95=8|96=3.0.0rc5|141=Y|10=038|8=FIX.4.4|9=31888|35=E|34=2|49=T1Kauaiblk4|52=20210924-14:20:00.369|56=MA|66=ListID-140521M-18293|394=2|68=300|73=300|11=ClOrdID-18294|22=4|38=100000|44=333.123987|48=US78490FFU84|54=1|55=[N/A/]|64=20210330|67=1|5961=Spread|29726=335.123987|453=1|448=T1Kauaiblk4|447=C|452=11|11=ClOrdID-18295|22=4|38=100000|44=234.123987|48=US824348AL09|54=2|55=[N/A]|67=2|5961=Spread|29726=232.123987|11=ClOrdID-18296|22=4|38=130000|44=87.123987|48=US444859BK72|54=1|55=[N/A/]|67=3|5961=Spread|29726=90.123987|453=1|448=T1Kauaiblk4|447=C|452=11|11=ClOrdID-18297|22=4|38=250000|44=87.123987|48=US36830JPF92|54=2|55=[N/A/]|67=4|5961=Spread|29726=78.123987|453=1|448=T1Kauaiblk4|447=C|452=11|11=ClOrdID-18298|22=4|38=350000|44=143.123987|48=US172070CG77|54=1|55=[N/A/]|67=5|5961=Spread|29726=147.123987|453=1|448=T1Kauaiblk4|447=C|452=11|11=ClOrdID-18299|22=4|38=350000|44=176.123987|48=US620076AH21|54=2|55=[N/A/]|67=6|5961=Spread|29726=165.123987|453=1|448=T1Kauaiblk4|447=C|452=11|11=ClOrdID-18300|22=4|38=350000|44=98.123987|48=US87165EQZ33|54=1|55=[N/A/]|67=7|5961=Spread|29726=100.123987|453=1|448=T1Kauaiblk4|447=C|452=11|11=ClOrdID-18301|22=4|38=350000|44=105.123987|48=US36160ND486|54=2|55=[N/A/]|67=8|5961=Spread|29726=97.123987|453=1|448=T1Kauaiblk4|447=C|452=11|11=ClOrdID-18302|22=4|38=350000|44=65.123987|48=US36830KHY47|54=1|55=[N/A/]|67=9|5961=Spread|29726=87.123987|453=1|448=T1Kauaiblk4|447=C|452=11|11=ClOrdID-18303|22=4|38=350000|44=104.123987|48=US17284CWM27|54=2|55=[N/A/]|67=10|5961=Spread|29726=98.123987|453=1|448=T1Kauaiblk4|447=C|452=11|11=ClOrdID-18304|22=4|38=350000|48=US283695BK98|54=1|55=[N/A/]|67=11|453=1|448=T1Kauaiblk4|447=C|452=11|11=ClOrdID-18305|22=4|38=350000|48=US939671AA13|54=2|55=[N/A/]|67=12|453=1|448=T1Kauaiblk4|447=C|452=11|11=ClOrdID-18306|22=4|38=350000|48=US74913EAG52|54=1|55=[N/A/]|67=13|453=1|448=T1Kauaiblk4|447=C|452=11|11=ClOrdID-18307|22=4|38=350000|48=US001957BD05|54=2|55=[N/A/]|67=14|453=1|448=T1Kauaiblk4|447=C|452=11|11=ClOrdID-18308|22=4|38=350000|48=US14020ABD54|54=1|55=[N/A/]|67=15|453=1|448=T1Kauaiblk4|447=C|452=11|11=ClOrdID-18309|22=4|38=350000|48=US678858BP55|54=2|55=[N/A/]|67=16|453=1|448=T1Kauaiblk4|447=C|452=11|11=ClOrdID-18310|22=4|38=350000|48=US761713BV72|54=1|55=[N/A/]|67=17|453=1|448=T1Kauaiblk4|447=C|452=11|11=ClOrdID-18311|22=4|38=350000|48=US04621WAA80|54=2|55=[N/A/]|67=8|453=1|448=T1Kauaiblk4|447=C|452=11|11=ClOrdID-18312|22=4|38=350000|48=US36163FFT57|54=1|55=[N/A/]|67=19|453=1|448=T1Kauaiblk4|447=C|452=11|11=ClOrdID-18313|22=4|38=350000|48=US36161TB204|54=2|55=[N/A/]|67=20|453=1|448=T1Kauaiblk4|447=C|452=11|11=ClOrdID-18314|22=4|38=350000|48=US254673KG09|54=1|55=[N/A/]|67=21|453=1|448=T1Kauaiblk4|447=C|452=11|11=ClOrdID-18315|22=4|38=350000|48=US36160JL636|54=2|55=[N/A/]|67=22|453=1|448=T1Kauaiblk4|447=C|452=11|11=ClOrdID-18316|22=4|38=350000|48=US06050WFD20|54=1|55=[N/A/]|67=23|453=1|448=T1Kauaiblk4|447=C|452=11|11=ClOrdID-18317|22=4|38=350000|48=US41013MUD00|54=2|55=[N/A/]|67=24|453=1|448=T1Kauaiblk4|447=C|452=11|11=ClOrdID-18318|22=4|38=350000|48=US36160JG933|54=1|55=[N/A/]|67=25|453=1|448=T1Kauaiblk4|447=C|452=11|11=ClOrdID-18319|22=4|38=350000|48=US845743BH59|54=2|55=[N/A/]|67=26|453=1|448=T1Kauaiblk4|447=C|452=11|11=ClOrdID-18320|22=4|38=350000|48=US492386AK33|54=1|55=[N/A/]|67=27|453=1|448=T1Kauaiblk4|447=C|452=11|11=ClOrdID-18321|22=4|38=350000|48=US251799AA02|54=2|55=[N/A/]|67=28|453=1|448=T1Kauaiblk4|447=C|452=11|11=ClOrdID-18322|22=4|38=350000|48=US38148PHR10|54=1|55=[N/A/]|67=29|453=1|448=T1Kauaiblk4|447=C|452=11|11=ClOrdID-18323|22=4|38=350000|48=US406216AS07|54=2|55=[N/A/]|67=30|453=1|448=T1Kauaiblk4|447=C|452=11|11=ClOrdID-18324|22=4|38=350000|48=US78490FPB93|54=1|55=[N/A/]|67=31|453=1|448=T1Kauaiblk4|447=C|452=11|11=ClOrdID-18325|22=4|38=350000|48=US744320BA94|54=2|55=[N/A/]|67=32|453=1|448=T1Kauaiblk4|447=C|452=11|11=ClOrdID-18326|22=4|38=350000|48=US65119QBF90|54=1|55=[N/A/]|67=33|453=1|448=T1Kauaiblk4|447=C|452=11|11=ClOrdID-18327|22=4|38=350000|48=US177342AP79|54=2|55=[N/A/]|67=34|453=1|448=T1Kauaiblk4|447=C|452=11|11=ClOrdID-18328|22=4|38=350000|48=US808626AF29|54=1|55=[N/A/]|67=35|453=1|448=T1Kauaiblk4|447=C|452=11|11=ClOrdID-18329|22=4|38=350000|48=US485170AF18|54=2|55=[N/A/]|67=36|453=1|448=T1Kauaiblk4|447=C|452=11|11=ClOrdID-18330|22=4|38=350000|48=US64805EAB83|54=1|55=[N/A/]|67=37|453=1|448=T1Kauaiblk4|447=C|452=11|11=ClOrdID-18331|22=4|38=350000|48=US26054LU762|54=2|55=[N/A/]|67=38|453=1|448=T1Kauaiblk4|447=C|452=11|11=ClOrdID-18332|22=4|38=350000|48=US459200KH39|54=1|55=[N/A/]|67=39|453=1|448=T1Kauaiblk4|447=C|452=11|11=ClOrdID-18333|22=4|38=350000|48=US771196BN10|54=2|55=[N/A/]|67=40|453=1|448=T1Kauaiblk4|447=C|452=11|11=ClOrdID-18334|22=4|38=350000|48=US694308HH37|54=1|55=[N/A/]|67=41|453=1|448=T1Kauaiblk4|447=C|452=11|11=ClOrdID-18335|22=4|38=350000|48=US046353AT52|54=2|55=[N/A/]|67=42|453=1|448=T1Kauaiblk4|447=C|452=11|11=ClOrdID-18336|22=4|38=350000|48=US29379VBC63|54=1|55=[N/A/]|67=43|453=1|448=T1Kauaiblk4|447=C|452=11|11=ClOrdID-18337|22=4|38=350000|48=US03666HAA95|54=2|55=[N/A/]|67=44|453=1|448=T1Kauaiblk4|447=C|452=11|11=ClOrdID-18338|22=4|38=350000|48=US496902AP26|54=1|55=[N/A/]|67=45|453=1|448=T1Kauaiblk4|447=C|452=11|11=ClOrdID-18339|22=4|38=350000|48=US254673GT75|54=2|55=[N/A/]|67=46|453=1|448=T1Kauaiblk4|447=C|452=11|11=ClOrdID-18340|22=4|38=350000|48=US575718AB76|54=1|55=[N/A/]|67=47|453=1|448=T1Kauaiblk4|447=C|452=11|11=ClOrdID-18341|22=4|38=350000|48=US969133AK36|54=2|55=[N/A/]|67=48|453=1|448=T1Kauaiblk4|447=C|452=11|11=ClOrdID-18342|22=4|38=350000|48=US83851MAW73|54=1|55=[N/A/]|67=49|453=1|448=T1Kauaiblk4|447=C|452=11|11=ClOrdID-18343|22=4|38=350000|48=US907818DX30|54=2|55=[N/A/]|67=50|453=1|448=T1Kauaiblk4|447=C|452=11|11=ClOrdID-18344|22=4|38=350000|48=US46647PAV85|54=1|55=[N/A/]|67=51|453=1|448=T1Kauaiblk4|447=C|452=11|11=ClOrdID-18345|22=4|38=350000|48=US69352PAM59|54=2|55=[N/A/]|67=52|453=1|448=T1Kauaiblk4|447=C|452=11|11=ClOrdID-18346|22=4|38=350000|48=US254673CA21|54=1|55=[N/A/]|67=53|453=1|448=T1Kauaiblk4|447=C|452=11|11=ClOrdID-18347|22=4|38=350000|48=US38147JRC89|54=2|55=[N/A/]|67=54|453=1|448=T1Kauaiblk4|447=C|452=11|11=ClOrdID-18348|22=4|38=350000|48=US88033GDC15|54=1|55=[N/A/]|67=55|453=1|448=T1Kauaiblk4|447=C|452=11|11=ClOrdID-18349|22=4|38=350000|48=US64806QAL86|54=2|55=[N/A/]|67=56|453=1|448=T1Kauaiblk4|447=C|452=11|11=ClOrdID-18350|22=4|38=350000|48=US36830JLS59|54=1|55=[N/A/]|67=57|453=1|448=T1Kauaiblk4|447=C|452=11|11=ClOrdID-18351|22=4|38=350000|48=US74348YMF50|54=2|55=[N/A/]|67=58|453=1|448=T1Kauaiblk4|447=C|452=11|11=ClOrdID-18352|22=4|38=350000|48=US38147JVZ29|54=1|55=[N/A/]|67=59|453=1|448=T1Kauaiblk4|447=C|452=11|11=ClOrdID-18353|22=4|38=350000|48=US110122DC94|54=2|55=[N/A/]|67=60|453=1|448=T1Kauaiblk4|447=C|452=11|11=ClOrdID-18354|22=4|38=350000|48=US38148PYF88|54=1|55=[N/A/]|67=61|453=1|448=T1Kauaiblk4|447=C|452=11|11=ClOrdID-18355|22=4|38=350000|48=US38148PWA10|54=2|55=[N/A/]|67=62|453=1|448=T1Kauaiblk4|447=C|452=11|11=ClOrdID-18356|22=4|38=350000|48=US17858PAB76|54=1|55=[N/A/]|67=63|453=1|448=T1Kauaiblk4|447=C|452=11|11=ClOrdID-18357|22=4|38=350000|48=US36157EYR97|54=2|55=[N/A/]|67=64|453=1|448=T1Kauaiblk4|447=C|452=11|11=ClOrdID-18358|22=4|38=350000|48=US46124HAB24|54=1|55=[N/A/]|67=65|453=1|448=T1Kauaiblk4|447=C|452=11|11=ClOrdID-18359|22=4|38=350000|48=US63861QBD97|54=2|55=[N/A/]|67=66|453=1|448=T1Kauaiblk4|447=C|452=11|11=ClOrdID-18360|22=4|38=350000|48=US907818DR61|54=1|55=[N/A/]|67=67|453=1|448=T1Kauaiblk4|447=C|452=11|11=ClOrdID-18361|22=4|38=350000|48=US53079QAB32|54=2|55=[N/A/]|67=68|453=1|448=T1Kauaiblk4|447=C|452=11|11=ClOrdID-18362|22=4|38=350000|48=US252747AF73|54=1|55=[N/A/]|67=69|453=1|448=T1Kauaiblk4|447=C|452=11|11=ClOrdID-18363|22=4|38=350000|48=US06050WFC47|54=2|55=[N/A/]|67=70|453=1|448=T1Kauaiblk4|447=C|452=11|11=ClOrdID-18364|22=4|38=350000|48=US38238QAH92|54=1|55=[N/A/]|67=71|453=1|448=T1Kauaiblk4|447=C|452=11|11=ClOrdID-18365|22=4|38=350000|48=US227046AA78|54=2|55=[N/A/]|67=72|453=1|448=T1Kauaiblk4|447=C|452=11|11=ClOrdID-18366|22=4|38=350000|48=US63861VAA52|54=1|55=[N/A/]|67=73|453=1|448=T1Kauaiblk4|447=C|452=11|11=ClOrdID-18367|22=4|38=350000|48=US67077MAC29|54=2|55=[N/A/]|67=74|453=1|448=T1Kauaiblk4|447=C|452=11|11=ClOrdID-18368|22=4|38=350000|48=US63902HAB50|54=1|55=[N/A/]|67=75|453=1|448=T1Kauaiblk4|447=C|452=11|11=ClOrdID-18369|22=4|38=350000|48=US74348YSS18|54=2|55=[N/A/]|67=76|453=1|448=T1Kauaiblk4|447=C|452=11|11=ClOrdID-18370|22=4|38=350000|48=US030955AJ76|54=1|55=[N/A/]|67=77|453=1|448=T1Kauaiblk4|447=C|452=11|11=ClOrdID-18371|22=4|38=350000|48=US29379VBB80|54=2|55=[N/A/]|67=78|453=1|448=T1Kauaiblk4|447=C|452=11|11=ClOrdID-18372|22=4|38=350000|48=US84250QAS21|54=1|55=[N/A/]|67=79|453=1|448=T1Kauaiblk4|447=C|452=11|11=ClOrdID-18373|22=4|38=350000|48=US382388AL09|54=2|55=[N/A/]|67=80|453=1|448=T1Kauaiblk4|447=C|452=11|11=ClOrdID-18374|22=4|38=350000|48=US36160JD708|54=1|55=[N/A/]|67=81|453=1|448=T1Kauaiblk4|447=C|452=11|11=ClOrdID-18375|22=4|38=350000|48=US931142AU74|54=2|55=[N/A/]|67=82|453=1|448=T1Kauaiblk4|447=C|452=11|11=ClOrdID-18376|22=4|38=350000|48=US17290JBN00|54=1|55=[N/A/]|67=83|453=1|448=T1Kauaiblk4|447=C|452=11|11=ClOrdID-18377|22=4|38=350000|48=US891490AT14|54=2|55=[N/A/]|67=84|453=1|448=T1Kauaiblk4|447=C|452=11|11=ClOrdID-18378|22=4|38=350000|48=US303901AB88|54=1|55=[N/A/]|67=85|453=1|448=T1Kauaiblk4|447=C|452=11|11=ClOrdID-18379|22=4|38=350000|48=US36157EVA99|54=2|55=[N/A/]|67=86|453=1|448=T1Kauaiblk4|447=C|452=11|11=ClOrdID-18380|22=4|38=350000|48=US224399AR61|54=1|55=[N/A/]|67=87|453=1|448=T1Kauaiblk4|447=C|452=11|11=ClOrdID-18381|22=4|38=350000|48=US36830JNX27|54=2|55=[N/A/]|67=88|453=1|448=T1Kauaiblk4|447=C|452=11|11=ClOrdID-18382|22=4|38=350000|48=US71713UAW27|54=1|55=[N/A/]|67=89|453=1|448=T1Kauaiblk4|447=C|452=11|11=ClOrdID-18383|22=4|38=350000|48=US91311QAC96|54=2|55=[N/A/]|67=90|453=1|448=T1Kauaiblk4|447=C|452=11|11=ClOrdID-18384|22=4|38=350000|48=US78490FEN50|54=1|55=[N/A/]|67=91|453=1|448=T1Kauaiblk4|447=C|452=11|11=ClOrdID-18385|22=4|38=350000|48=US505588AY99|54=2|55=[N/A/]|67=92|453=1|448=T1Kauaiblk4|447=C|452=11|11=ClOrdID-18386|22=4|38=350000|48=US36163BJJ26|54=1|55=[N/A/]|67=93|453=1|448=T1Kauaiblk4|447=C|452=11|11=ClOrdID-18387|22=4|38=350000|48=US87165CQP94|54=2|55=[N/A/]|67=94|453=1|448=T1Kauaiblk4|447=C|452=11|11=ClOrdID-18388|22=4|38=350000|48=US035240AU42|54=1|55=[N/A/]|67=95|453=1|448=T1Kauaiblk4|447=C|452=11|11=ClOrdID-18389|22=4|38=350000|48=US8385183061|54=2|55=[N/A/]|67=96|453=1|448=T1Kauaiblk4|447=C|452=11|11=ClOrdID-18390|22=4|38=350000|48=US57978QAS93|54=1|55=[N/A/]|67=97|453=1|448=T1Kauaiblk4|447=C|452=11|11=ClOrdID-18391|22=4|38=350000|48=US78490FUM93|54=2|55=[N/A/]|67=98|453=1|448=T1Kauaiblk4|447=C|452=11|11=ClOrdID-18392|22=4|38=350000|48=US755111BY61|54=1|55=[N/A/]|67=99|453=1|448=T1Kauaiblk4|447=C|452=11|11=ClOrdID-18393|22=4|38=350000|48=US309588AE17|54=2|55=[N/A/]|67=100|453=1|448=T1Kauaiblk4|447=C|452=11|11=ClOrdID-18394|22=4|38=350000|48=US887315BH18|54=1|55=[N/A/]|67=101|453=1|448=T1Kauaiblk4|447=C|452=11|11=ClOrdID-18395|22=4|38=350000|48=US443510AJ12|54=2|55=[N/A/]|67=102|453=1|448=T1Kauaiblk4|447=C|452=11|11=ClOrdID-18396|22=4|38=350000|48=US20825CBD56|54=1|55=[N/A/]|67=103|453=1|448=T1Kauaiblk4|447=C|452=11|11=ClOrdID-18397|22=4|38=350000|48=US649840CM59|54=2|55=[N/A/]|67=104|453=1|448=T1Kauaiblk4|447=C|452=11|11=ClOrdID-18398|22=4|38=350000|48=US448814HW69|54=1|55=[N/A/]|67=105|453=1|448=T1Kauaiblk4|447=C|452=11|11=ClOrdID-18399|22=4|38=350000|48=US853254AN08|54=2|55=[N/A/]|67=106|453=1|448=T1Kauaiblk4|447=C|452=11|11=ClOrdID-18400|22=4|38=350000|48=US487836AT55|54=1|55=[N/A/]|67=107|453=1|448=T1Kauaiblk4|447=C|452=11|11=ClOrdID-18401|22=4|38=350000|48=US36163BHU98|54=2|55=[N/A/]|67=108|453=1|448=T1Kauaiblk4|447=C|452=11|11=ClOrdID-18402|22=4|38=350000|48=US020039AJ28|54=1|55=[N/A/]|67=109|453=1|448=T1Kauaiblk4|447=C|452=11|11=ClOrdID-18403|22=4|38=350000|48=US278058AW21|54=2|55=[N/A/]|67=110|453=1|448=T1Kauaiblk4|447=C|452=11|11=ClOrdID-18404|22=4|38=350000|48=US23311VAJ61|54=1|55=[N/A/]|67=111|453=1|448=T1Kauaiblk4|447=C|452=11|11=ClOrdID-18405|22=4|38=350000|48=US41013MMQ05|54=2|55=[N/A/]|67=112|453=1|448=T1Kauaiblk4|447=C|452=11|11=ClOrdID-18406|22=4|38=350000|48=US191098AK89|54=1|55=[N/A/]|67=113|453=1|448=T1Kauaiblk4|447=C|452=11|11=ClOrdID-18407|22=4|38=350000|48=US86960BAX01|54=2|55=[N/A/]|67=114|453=1|448=T1Kauaiblk4|447=C|452=11|11=ClOrdID-18408|22=4|38=350000|48=US41013MNZ94|54=1|55=[N/A/]|67=115|453=1|448=T1Kauaiblk4|447=C|452=11|11=ClOrdID-18409|22=4|38=350000|48=US905581AS39|54=2|55=[N/A/]|67=116|453=1|448=T1Kauaiblk4|447=C|452=11|11=ClOrdID-18410|22=4|38=350000|48=US254673NH54|54=1|55=[N/A/]|67=117|453=1|448=T1Kauaiblk4|447=C|452=11|11=ClOrdID-18411|22=4|38=350000|48=US718337AC23|54=2|55=[N/A/]|67=118|453=1|448=T1Kauaiblk4|447=C|452=11|11=ClOrdID-18412|22=4|38=350000|48=US33767GAH11|54=1|55=[N/A/]|67=119|453=1|448=T1Kauaiblk4|447=C|452=11|11=ClOrdID-18413|22=4|38=350000|48=US87164WMX38|54=2|55=[N/A/]|67=120|453=1|448=T1Kauaiblk4|447=C|452=11|11=ClOrdID-18414|22=4|38=350000|48=US84250QAT04|54=1|55=[N/A/]|67=121|453=1|448=T1Kauaiblk4|447=C|452=11|11=ClOrdID-18415|22=4|38=350000|48=US655844AQ19|54=2|55=[N/A/]|67=122|453=1|448=T1Kauaiblk4|447=C|452=11|11=ClOrdID-18416|22=4|38=350000|48=US78490FLY33|54=1|55=[N/A/]|67=123|453=1|448=T1Kauaiblk4|447=C|452=11|11=ClOrdID-18417|22=4|38=350000|48=US737679DG22|54=2|55=[N/A/]|67=124|453=1|448=T1Kauaiblk4|447=C|452=11|11=ClOrdID-18418|22=4|38=350000|48=US337358BD65|54=1|55=[N/A/]|67=125|453=1|448=T1Kauaiblk4|447=C|452=11|11=ClOrdID-18419|22=4|38=350000|48=US254673KJ48|54=2|55=[N/A/]|67=126|453=1|448=T1Kauaiblk4|447=C|452=11|11=ClOrdID-18420|22=4|38=350000|48=US79585TAS24|54=1|55=[N/A/]|67=127|453=1|448=T1Kauaiblk4|447=C|452=11|11=ClOrdID-18421|22=4|38=350000|48=US17324CFW10|54=2|55=[N/A/]|67=128|453=1|448=T1Kauaiblk4|447=C|452=11|11=ClOrdID-18422|22=4|38=350000|48=US78490FNX32|54=1|55=[N/A/]|67=129|453=1|448=T1Kauaiblk4|447=C|452=11|11=ClOrdID-18423|22=4|38=350000|48=US577081BF84|54=2|55=[N/A/]|67=130|453=1|448=T1Kauaiblk4|447=C|452=11|11=ClOrdID-18424|22=4|38=350000|48=US91324PDL31|54=1|55=[N/A/]|67=131|453=1|448=T1Kauaiblk4|447=C|452=11|11=ClOrdID-18425|22=4|38=350000|48=US34540TTR31|54=2|55=[N/A/]|67=132|453=1|448=T1Kauaiblk4|447=C|452=11|11=ClOrdID-18426|22=4|38=350000|48=US68389XAU90|54=1|55=[N/A/]|67=133|453=1|448=T1Kauaiblk4|447=C|452=11|11=ClOrdID-18427|22=4|38=350000|48=US303901AE28|54=2|55=[N/A/]|67=134|453=1|448=T1Kauaiblk4|447=C|452=11|11=ClOrdID-18428|22=4|38=350000|48=US723787AB37|54=1|55=[N/A/]|67=135|453=1|448=T1Kauaiblk4|447=C|452=11|11=ClOrdID-18429|22=4|38=350000|48=US02361DAA81|54=2|55=[N/A/]|67=136|453=1|448=T1Kauaiblk4|447=C|452=11|11=ClOrdID-18430|22=4|38=350000|48=US38147JRU87|54=1|55=[N/A/]|67=137|453=1|448=T1Kauaiblk4|447=C|452=11|11=ClOrdID-18431|22=4|38=350000|48=US694308JU20|54=2|55=[N/A/]|67=138|453=1|448=T1Kauaiblk4|447=C|452=11|11=ClOrdID-18432|22=4|38=350000|48=US022249AU09|54=1|55=[N/A/]|67=139|453=1|448=T1Kauaiblk4|447=C|452=11|11=ClOrdID-18433|22=4|38=350000|48=US283695BJ26|54=2|55=[N/A/]|67=140|453=1|448=T1Kauaiblk4|447=C|452=11|11=ClOrdID-18434|22=4|38=350000|48=US254671J926|54=1|55=[N/A/]|67=141|453=1|448=T1Kauaiblk4|447=C|452=11|11=ClOrdID-18435|22=4|38=350000|48=US74348Y2F71|54=2|55=[N/A/]|67=142|453=1|448=T1Kauaiblk4|447=C|452=11|11=ClOrdID-18436|22=4|38=350000|48=US582834AN77|54=1|55=[N/A/]|67=143|453=1|448=T1Kauaiblk4|447=C|452=11|11=ClOrdID-18437|22=4|38=350000|48=US12189TAK07|54=2|55=[N/A/]|67=144|453=1|448=T1Kauaiblk4|447=C|452=11|11=ClOrdID-18438|22=4|38=350000|48=US7425A0BC36|54=1|55=[N/A/]|67=145|453=1|448=T1Kauaiblk4|447=C|452=11|11=ClOrdID-18439|22=4|38=350000|48=US037833EA41|54=2|55=[N/A/]|67=146|453=1|448=T1Kauaiblk4|447=C|452=11|11=ClOrdID-18440|22=4|38=350000|48=US254671G799|54=1|55=[N/A/]|67=147|453=1|448=T1Kauaiblk4|447=C|452=11|11=ClOrdID-18441|22=4|38=350000|48=US605417BY93|54=2|55=[N/A/]|67=148|453=1|448=T1Kauaiblk4|447=C|452=11|11=ClOrdID-18442|22=4|38=350000|48=US55262CAF77|54=1|55=[N/A/]|67=149|453=1|448=T1Kauaiblk4|447=C|452=11|11=ClOrdID-18443|22=4|38=350000|48=US361841AL38|54=2|55=[N/A/]|67=150|453=1|448=T1Kauaiblk4|447=C|452=11|11=ClOrdID-18444|22=4|38=350000|48=US906548CN08|54=1|55=[N/A/]|67=151|453=1|448=T1Kauaiblk4|447=C|452=11|11=ClOrdID-18445|22=4|38=350000|48=US41013MTT70|54=2|55=[N/A/]|67=152|453=1|448=T1Kauaiblk4|447=C|452=11|11=ClOrdID-18446|22=4|38=350000|48=US84263PAE07|54=1|55=[N/A/]|67=153|453=1|448=T1Kauaiblk4|447=C|452=11|11=ClOrdID-18447|22=4|38=350000|48=US00036AAB17|54=2|55=[N/A/]|67=154|453=1|448=T1Kauaiblk4|447=C|452=11|11=ClOrdID-18448|22=4|38=350000|48=US256677AH84|54=1|55=[N/A/]|67=155|453=1|448=T1Kauaiblk4|447=C|452=11|11=ClOrdID-18449|22=4|38=350000|48=US341081EQ63|54=2|55=[N/A/]|67=156|453=1|448=T1Kauaiblk4|447=C|452=11|11=ClOrdID-18450|22=4|38=350000|48=US87612EAK29|54=1|55=[N/A/]|67=157|453=1|448=T1Kauaiblk4|447=C|452=11|11=ClOrdID-18451|22=4|38=350000|48=US664675AM76|54=2|55=[N/A/]|67=158|453=1|448=T1Kauaiblk4|447=C|452=11|11=ClOrdID-18452|22=4|38=350000|48=US59260AAA60|54=1|55=[N/A/]|67=159|453=1|448=T1Kauaiblk4|447=C|452=11|11=ClOrdID-18453|22=4|38=350000|48=US06747Q3D74|54=2|55=[N/A/]|67=160|453=1|448=T1Kauaiblk4|447=C|452=11|11=ClOrdID-18454|22=4|38=350000|48=US38148PLV75|54=1|55=[N/A/]|67=161|453=1|448=T1Kauaiblk4|447=C|452=11|11=ClOrdID-18455|22=4|38=350000|48=US049560AG01|54=2|55=[N/A/]|67=162|453=1|448=T1Kauaiblk4|447=C|452=11|11=ClOrdID-18456|22=4|38=350000|48=US867914AN34|54=1|55=[N/A/]|67=163|453=1|448=T1Kauaiblk4|447=C|452=11|11=ClOrdID-18457|22=4|38=350000|48=US44644AAE73|54=2|55=[N/A/]|67=164|453=1|448=T1Kauaiblk4|447=C|452=11|11=ClOrdID-18458|22=4|38=350000|48=US38148PYG61|54=1|55=[N/A/]|67=165|453=1|448=T1Kauaiblk4|447=C|452=11|11=ClOrdID-18459|22=4|38=350000|48=US67103HAJ68|54=2|55=[N/A/]|67=166|453=1|448=T1Kauaiblk4|447=C|452=11|11=ClOrdID-18460|22=4|38=350000|48=US74456QBU94|54=1|55=[N/A/]|67=167|453=1|448=T1Kauaiblk4|447=C|452=11|11=ClOrdID-18461|22=4|38=350000|48=US78490FMY24|54=2|55=[N/A/]|67=168|453=1|448=T1Kauaiblk4|447=C|452=11|11=ClOrdID-18462|22=4|38=350000|48=US34540TTB88|54=1|55=[N/A/]|67=169|453=1|448=T1Kauaiblk4|447=C|452=11|11=ClOrdID-18463|22=4|38=350000|48=US74348YLC39|54=2|55=[N/A/]|67=170|453=1|448=T1Kauaiblk4|447=C|452=11|11=ClOrdID-18464|22=4|38=350000|48=US32055RAJ68|54=1|55=[N/A/]|67=171|453=1|448=T1Kauaiblk4|447=C|452=11|11=ClOrdID-18465|22=4|38=350000|48=US080515CH09|54=2|55=[N/A/]|67=172|453=1|448=T1Kauaiblk4|447=C|452=11|11=ClOrdID-18466|22=4|38=350000|48=US842400EZ22|54=1|55=[N/A/]|67=173|453=1|448=T1Kauaiblk4|447=C|452=11|11=ClOrdID-18467|22=4|38=350000|48=US63861VAB36|54=2|55=[N/A/]|67=174|453=1|448=T1Kauaiblk4|447=C|452=11|11=ClOrdID-18468|22=4|38=350000|48=US17298CJR07|54=1|55=[N/A/]|67=175|453=1|448=T1Kauaiblk4|447=C|452=11|11=ClOrdID-18469|22=4|38=350000|48=US718337AB40|54=2|55=[N/A/]|67=176|453=1|448=T1Kauaiblk4|447=C|452=11|11=ClOrdID-18470|22=4|38=350000|48=US27004PBC68|54=1|55=[N/A/]|67=177|453=1|448=T1Kauaiblk4|447=C|452=11|11=ClOrdID-18471|22=4|38=350000|48=US664675AK11|54=2|55=[N/A/]|67=178|453=1|448=T1Kauaiblk4|447=C|452=11|11=ClOrdID-18472|22=4|38=350000|48=US36160NB811|54=1|55=[N/A/]|67=179|453=1|448=T1Kauaiblk4|447=C|452=11|11=ClOrdID-18473|22=4|38=350000|48=US801060AC87|54=2|55=[N/A/]|67=180|453=1|448=T1Kauaiblk4|447=C|452=11|11=ClOrdID-18474|22=4|38=350000|48=US45475QAP81|54=1|55=[N/A/]|67=181|453=1|448=T1Kauaiblk4|447=C|452=11|11=ClOrdID-18475|22=4|38=350000|48=US87164YUY84|54=2|55=[N/A/]|67=182|453=1|448=T1Kauaiblk4|447=C|452=11|11=ClOrdID-18476|22=4|38=350000|48=US87165GC349|54=1|55=[N/A/]|67=183|453=1|448=T1Kauaiblk4|447=C|452=11|11=ClOrdID-18477|22=4|38=350000|48=US17312QU319|54=2|55=[N/A/]|67=184|453=1|448=T1Kauaiblk4|447=C|452=11|11=ClOrdID-18478|22=4|38=350000|48=US36157PVY23|54=1|55=[N/A/]|67=185|453=1|448=T1Kauaiblk4|447=C|452=11|11=ClOrdID-18479|22=4|38=350000|48=US78012KHG58|54=2|55=[N/A/]|67=186|453=1|448=T1Kauaiblk4|447=C|452=11|11=ClOrdID-18480|22=4|38=350000|48=US694308JT56|54=1|55=[N/A/]|67=187|453=1|448=T1Kauaiblk4|447=C|452=11|11=ClOrdID-18481|22=4|38=350000|48=US36830KFQ31|54=2|55=[N/A/]|67=188|453=1|448=T1Kauaiblk4|447=C|452=11|11=ClOrdID-18482|22=4|38=350000|48=US344775AC50|54=1|55=[N/A/]|67=189|453=1|448=T1Kauaiblk4|447=C|452=11|11=ClOrdID-18483|22=4|38=350000|48=US012725AD95|54=2|55=[N/A/]|67=190|453=1|448=T1Kauaiblk4|447=C|452=11|11=ClOrdID-18484|22=4|38=350000|48=US78490FUK38|54=1|55=[N/A/]|67=191|453=1|448=T1Kauaiblk4|447=C|452=11|11=ClOrdID-18485|22=4|38=350000|48=US25085JBB89|54=2|55=[N/A/]|67=192|453=1|448=T1Kauaiblk4|447=C|452=11|11=ClOrdID-18486|22=4|38=350000|48=US36830JLZ92|54=1|55=[N/A/]|67=193|453=1|448=T1Kauaiblk4|447=C|452=11|11=ClOrdID-18487|22=4|38=350000|48=US478165AF02|54=2|55=[N/A/]|67=194|453=1|448=T1Kauaiblk4|447=C|452=11|11=ClOrdID-18488|22=4|38=350000|48=US34540TKY72|54=1|55=[N/A/]|67=195|453=1|448=T1Kauaiblk4|447=C|452=11|11=ClOrdID-18489|22=4|38=350000|48=US252759AM79|54=2|55=[N/A/]|67=196|453=1|448=T1Kauaiblk4|447=C|452=11|11=ClOrdID-18490|22=4|38=350000|48=US36157QUC94|54=1|55=[N/A/]|67=197|453=1|448=T1Kauaiblk4|447=C|452=11|11=ClOrdID-18491|22=4|38=350000|48=US78490FEW59|54=2|55=[N/A/]|67=198|453=1|448=T1Kauaiblk4|447=C|452=11|11=ClOrdID-18492|22=4|38=350000|48=US24820RAG39|54=1|55=[N/A/]|67=199|453=1|448=T1Kauaiblk4|447=C|452=11|11=ClOrdID-18493|22=4|38=350000|48=US013716AQ81|54=2|55=[N/A/]|67=200|453=1|448=T1Kauaiblk4|447=C|452=11|11=ClOrdID-18494|22=4|38=350000|48=US81619PAD96|54=1|55=[N/A/]|67=201|453=1|448=T1Kauaiblk4|447=C|452=11|11=ClOrdID-18495|22=4|38=350000|48=US254673MP89|54=2|55=[N/A/]|67=202|453=1|448=T1Kauaiblk4|447=C|452=11|11=ClOrdID-18496|22=4|38=350000|48=US26884ABJ16|54=1|55=[N/A/]|67=203|453=1|448=T1Kauaiblk4|447=C|452=11|11=ClOrdID-18497|22=4|38=350000|48=US501044BV23|54=2|55=[N/A/]|67=204|453=1|448=T1Kauaiblk4|447=C|452=11|11=ClOrdID-18498|22=4|38=350000|48=US774341AF84|54=1|55=[N/A/]|67=205|453=1|448=T1Kauaiblk4|447=C|452=11|11=ClOrdID-18499|22=4|38=350000|48=US141784BH04|54=2|55=[N/A/]|67=206|453=1|448=T1Kauaiblk4|447=C|452=11|11=ClOrdID-18500|22=4|38=350000|48=US293791AF64|54=1|55=[N/A/]|67=207|453=1|448=T1Kauaiblk4|447=C|452=11|11=ClOrdID-18501|22=4|38=350000|48=US09659DAA46|54=2|55=[N/A/]|67=208|453=1|448=T1Kauaiblk4|447=C|452=11|11=ClOrdID-18502|22=4|38=350000|48=US12802DAK28|54=1|55=[N/A/]|67=209|453=1|448=T1Kauaiblk4|447=C|452=11|11=ClOrdID-18503|22=4|38=350000|48=US78490FPT02|54=2|55=[N/A/]|67=210|453=1|448=T1Kauaiblk4|447=C|452=11|11=ClOrdID-18504|22=4|38=350000|48=US17284CXH23|54=1|55=[N/A/]|67=211|453=1|448=T1Kauaiblk4|447=C|452=11|11=ClOrdID-18505|22=4|38=350000|48=US36830JKM98|54=2|55=[N/A/]|67=212|453=1|448=T1Kauaiblk4|447=C|452=11|11=ClOrdID-18506|22=4|38=350000|48=US48128FML30|54=1|55=[N/A/]|67=213|453=1|448=T1Kauaiblk4|447=C|452=11|11=ClOrdID-18507|22=4|38=350000|48=US976585AG48|54=2|55=[N/A/]|67=214|453=1|448=T1Kauaiblk4|447=C|452=11|11=ClOrdID-18508|22=4|38=350000|48=US67021CAJ62|54=1|55=[N/A/]|67=215|453=1|448=T1Kauaiblk4|447=C|452=11|11=ClOrdID-18509|22=4|38=350000|48=US30264DAA72|54=2|55=[N/A/]|67=216|453=1|448=T1Kauaiblk4|447=C|452=11|11=ClOrdID-18510|22=4|38=350000|48=US75936LAB09|54=1|55=[N/A/]|67=217|453=1|448=T1Kauaiblk4|447=C|452=11|11=ClOrdID-18511|22=4|38=350000|48=US12527GAE35|54=2|55=[N/A/]|67=218|453=1|448=T1Kauaiblk4|447=C|452=11|11=ClOrdID-18512|22=4|38=350000|48=US03746AAA88|54=1|55=[N/A/]|67=219|453=1|448=T1Kauaiblk4|447=C|452=11|11=ClOrdID-18513|22=4|38=350000|48=US125509AH28|54=2|55=[N/A/]|67=220|453=1|448=T1Kauaiblk4|447=C|452=11|11=ClOrdID-18514|22=4|38=350000|48=US28368EAD85|54=1|55=[N/A/]|67=221|453=1|448=T1Kauaiblk4|447=C|452=11|11=ClOrdID-18515|22=4|38=350000|48=US207597DJ14|54=2|55=[N/A/]|67=222|453=1|448=T1Kauaiblk4|447=C|452=11|11=ClOrdID-18516|22=4|38=350000|48=USN7637QAC70|54=1|55=[N/A/]|67=223|453=1|448=T1Kauaiblk4|447=C|452=11|11=ClOrdID-18517|22=4|38=350000|48=US744331AF63|54=2|55=[N/A/]|67=224|453=1|448=T1Kauaiblk4|447=C|452=11|11=ClOrdID-18518|22=4|38=350000|48=US099724AC03|54=1|55=[N/A/]|67=225|453=1|448=T1Kauaiblk4|447=C|452=11|11=ClOrdID-18519|22=4|38=350000|48=US00912XAY04|54=2|55=[N/A/]|67=226|453=1|448=T1Kauaiblk4|447=C|452=11|11=ClOrdID-18520|22=4|38=350000|48=US17284CYJ79|54=1|55=[N/A/]|67=227|453=1|448=T1Kauaiblk4|447=C|452=11|11=ClOrdID-18521|22=4|38=350000|48=US89656FAC05|54=2|55=[N/A/]|67=228|453=1|448=T1Kauaiblk4|447=C|452=11|11=ClOrdID-18522|22=4|38=350000|48=US96145DAA37|54=1|55=[N/A/]|67=229|453=1|448=T1Kauaiblk4|447=C|452=11|11=ClOrdID-18523|22=4|38=350000|48=US90931VAA44|54=2|55=[N/A/]|67=230|453=1|448=T1Kauaiblk4|447=C|452=11|11=ClOrdID-18524|22=4|38=350000|48=US63618EAU55|54=1|55=[N/A/]|67=231|453=1|448=T1Kauaiblk4|447=C|452=11|11=ClOrdID-18525|22=4|38=350000|48=US36163BHZ85|54=2|55=[N/A/]|67=232|453=1|448=T1Kauaiblk4|447=C|452=11|11=ClOrdID-18526|22=4|38=350000|48=US05379BAK35|54=1|55=[N/A/]|67=233|453=1|448=T1Kauaiblk4|447=C|452=11|11=ClOrdID-18527|22=4|38=350000|48=US500255AQ76|54=2|55=[N/A/]|67=234|453=1|448=T1Kauaiblk4|447=C|452=11|11=ClOrdID-18528|22=4|38=350000|48=US36161TXC43|54=1|55=[N/A/]|67=235|453=1|448=T1Kauaiblk4|447=C|452=11|11=ClOrdID-18529|22=4|38=350000|48=US19567PAH29|54=2|55=[N/A/]|67=236|453=1|448=T1Kauaiblk4|447=C|452=11|11=ClOrdID-18530|22=4|38=350000|48=US907818DV73|54=1|55=[N/A/]|67=237|453=1|448=T1Kauaiblk4|447=C|452=11|11=ClOrdID-18531|22=4|38=350000|48=US20825CAF14|54=2|55=[N/A/]|67=238|453=1|448=T1Kauaiblk4|447=C|452=11|11=ClOrdID-18532|22=4|38=350000|48=US41163GAG64|54=1|55=[N/A/]|67=239|453=1|448=T1Kauaiblk4|447=C|452=11|11=ClOrdID-18533|22=4|38=350000|48=US891490AS31|54=2|55=[N/A/]|67=240|453=1|448=T1Kauaiblk4|447=C|452=11|11=ClOrdID-18534|22=4|38=350000|48=US41013MVG22|54=1|55=[N/A/]|67=241|453=1|448=T1Kauaiblk4|447=C|452=11|11=ClOrdID-18535|22=4|38=350000|48=US92346MDN83|54=2|55=[N/A/]|67=242|453=1|448=T1Kauaiblk4|447=C|452=11|11=ClOrdID-18536|22=4|38=350000|48=US78490FMC04|54=1|55=[N/A/]|67=243|453=1|448=T1Kauaiblk4|447=C|452=11|11=ClOrdID-18537|22=4|38=350000|48=US24422ETW92|54=2|55=[N/A/]|67=244|453=1|448=T1Kauaiblk4|447=C|452=11|11=ClOrdID-18538|22=4|38=350000|48=US06051GGV59|54=1|55=[N/A/]|67=245|453=1|448=T1Kauaiblk4|447=C|452=11|11=ClOrdID-18539|22=4|38=350000|48=US887389AK07|54=2|55=[N/A/]|67=246|453=1|448=T1Kauaiblk4|447=C|452=11|11=ClOrdID-18540|22=4|38=350000|48=US423012AF03|54=1|55=[N/A/]|67=247|453=1|448=T1Kauaiblk4|447=C|452=11|11=ClOrdID-18541|22=4|38=350000|48=US36163CPG95|54=2|55=[N/A/]|67=248|453=1|448=T1Kauaiblk4|447=C|452=11|11=ClOrdID-18542|22=4|38=350000|48=US36162YLH44|54=1|55=[N/A/]|67=249|453=1|448=T1Kauaiblk4|447=C|452=11|11=ClOrdID-18543|22=4|38=350000|48=US48128UJ671|54=2|55=[N/A/]|67=250|453=1|448=T1Kauaiblk4|447=C|452=11|11=ClOrdID-18544|22=4|38=350000|48=US36163FEU30|54=1|55=[N/A/]|67=251|453=1|448=T1Kauaiblk4|447=C|452=11|11=ClOrdID-18545|22=4|38=350000|48=US491386AL26|54=2|55=[N/A/]|67=252|453=1|448=T1Kauaiblk4|447=C|452=11|11=ClOrdID-18546|22=4|38=350000|48=US141784BZ02|54=1|55=[N/A/]|67=253|453=1|448=T1Kauaiblk4|447=C|452=11|11=ClOrdID-18547|22=4|38=350000|48=US14912HUM05|54=2|55=[N/A/]|67=254|453=1|448=T1Kauaiblk4|447=C|452=11|11=ClOrdID-18548|22=4|38=350000|48=US161175BZ64|54=1|55=[N/A/]|67=255|453=1|448=T1Kauaiblk4|447=C|452=11|11=ClOrdID-18549|22=4|38=350000|48=US448814FH11|54=2|55=[N/A/]|67=256|453=1|448=T1Kauaiblk4|447=C|452=11|11=ClOrdID-18550|22=4|38=350000|48=US565122AG31|54=1|55=[N/A/]|67=257|453=1|448=T1Kauaiblk4|447=C|452=11|11=ClOrdID-18551|22=4|38=350000|48=US06050WFA80|54=2|55=[N/A/]|67=258|453=1|448=T1Kauaiblk4|447=C|452=11|11=ClOrdID-18552|22=4|38=350000|48=US45866FAH73|54=1|55=[N/A/]|67=259|453=1|448=T1Kauaiblk4|447=C|452=11|11=ClOrdID-18553|22=4|38=350000|48=US66765RBH84|54=2|55=[N/A/]|67=260|453=1|448=T1Kauaiblk4|447=C|452=11|11=ClOrdID-18554|22=4|38=350000|48=US15987TAK79|54=1|55=[N/A/]|67=261|453=1|448=T1Kauaiblk4|447=C|452=11|11=ClOrdID-18555|22=4|38=350000|48=US06050WFH34|54=2|55=[N/A/]|67=262|453=1|448=T1Kauaiblk4|447=C|452=11|11=ClOrdID-18556|22=4|38=350000|48=US38148JLP48|54=1|55=[N/A/]|67=263|453=1|448=T1Kauaiblk4|447=C|452=11|11=ClOrdID-18557|22=4|38=350000|48=US125509AG45|54=2|55=[N/A/]|67=264|453=1|448=T1Kauaiblk4|447=C|452=11|11=ClOrdID-18558|22=4|38=350000|48=US046353AU26|54=1|55=[N/A/]|67=265|453=1|448=T1Kauaiblk4|447=C|452=11|11=ClOrdID-18559|22=4|38=350000|48=US266233AG08|54=2|55=[N/A/]|67=266|453=1|448=T1Kauaiblk4|447=C|452=11|11=ClOrdID-18560|22=4|38=350000|48=US278865BE90|54=1|55=[N/A/]|67=267|453=1|448=T1Kauaiblk4|447=C|452=11|11=ClOrdID-18561|22=4|38=350000|48=US29364NAU28|54=2|55=[N/A/]|67=268|453=1|448=T1Kauaiblk4|447=C|452=11|11=ClOrdID-18562|22=4|38=350000|48=US36163CLZ13|54=1|55=[N/A/]|67=269|453=1|448=T1Kauaiblk4|447=C|452=11|11=ClOrdID-18563|22=4|38=350000|48=US38141EQ931|54=2|55=[N/A/]|67=270|453=1|448=T1Kauaiblk4|447=C|452=11|11=ClOrdID-18564|22=4|38=350000|48=US149123BJ96|54=1|55=[N/A/]|67=271|453=1|448=T1Kauaiblk4|447=C|452=11|11=ClOrdID-18565|22=4|38=350000|48=US36160KA884|54=2|55=[N/A/]|67=272|453=1|448=T1Kauaiblk4|447=C|452=11|11=ClOrdID-18566|22=4|38=350000|48=US36157QVJ39|54=1|55=[N/A/]|67=273|453=1|448=T1Kauaiblk4|447=C|452=11|11=ClOrdID-18567|22=4|38=350000|48=US92344GAC06|54=2|55=[N/A/]|67=274|453=1|448=T1Kauaiblk4|447=C|452=11|11=ClOrdID-18568|22=4|38=350000|48=US36157PVL02|54=1|55=[N/A/]|67=275|453=1|448=T1Kauaiblk4|447=C|452=11|11=ClOrdID-18569|22=4|38=350000|48=US36830KHL26|54=2|55=[N/A/]|67=276|453=1|448=T1Kauaiblk4|447=C|452=11|11=ClOrdID-18570|22=4|38=350000|48=US13605WZW45|54=1|55=[N/A/]|67=277|453=1|448=T1Kauaiblk4|447=C|452=11|11=ClOrdID-18571|22=4|38=350000|48=US38148PLU92|54=2|55=[N/A/]|67=278|453=1|448=T1Kauaiblk4|447=C|452=11|11=ClOrdID-18572|22=4|38=350000|48=US452327AM11|54=1|55=[N/A/]|67=279|453=1|448=T1Kauaiblk4|447=C|452=11|11=ClOrdID-18573|22=4|38=350000|48=US17284CXA79|54=2|55=[N/A/]|67=280|453=1|448=T1Kauaiblk4|447=C|452=11|11=ClOrdID-18574|22=4|38=350000|48=US60687YBE86|54=1|55=[N/A/]|67=281|453=1|448=T1Kauaiblk4|447=C|452=11|11=ClOrdID-18575|22=4|38=350000|48=US228255AH83|54=2|55=[N/A/]|67=282|453=1|448=T1Kauaiblk4|447=C|452=11|11=ClOrdID-18576|22=4|38=350000|48=US494550AJ57|54=1|55=[N/A/]|67=283|453=1|448=T1Kauaiblk4|447=C|452=11|11=ClOrdID-18577|22=4|38=350000|48=US559080AK20|54=2|55=[N/A/]|67=284|453=1|448=T1Kauaiblk4|447=C|452=11|11=ClOrdID-18578|22=4|38=350000|48=US843452AZ62|54=1|55=[N/A/]|67=285|453=1|448=T1Kauaiblk4|447=C|452=11|11=ClOrdID-18579|22=4|38=350000|48=US064255AW26|54=2|55=[N/A/]|67=286|453=1|448=T1Kauaiblk4|447=C|452=11|11=ClOrdID-18580|22=4|38=350000|48=US72605XAB10|54=1|55=[N/A/]|67=287|453=1|448=T1Kauaiblk4|447=C|452=11|11=ClOrdID-18581|22=4|38=350000|48=US36162THW71|54=2|55=[N/A/]|67=288|453=1|448=T1Kauaiblk4|447=C|452=11|11=ClOrdID-18582|22=4|38=350000|48=US89236TEL52|54=1|55=[N/A/]|67=289|453=1|448=T1Kauaiblk4|447=C|452=11|11=ClOrdID-18583|22=4|38=350000|48=US91529YAK29|54=2|55=[N/A/]|67=290|453=1|448=T1Kauaiblk4|447=C|452=11|11=ClOrdID-18584|22=4|38=350000|48=US74348YMK46|54=1|55=[N/A/]|67=291|453=1|448=T1Kauaiblk4|447=C|452=11|11=ClOrdID-18585|22=4|38=350000|48=US36161T6H38|54=2|55=[N/A/]|67=292|453=1|448=T1Kauaiblk4|447=C|452=11|11=ClOrdID-18586|22=4|38=350000|48=US98389BAH33|54=1|55=[N/A/]|67=293|453=1|448=T1Kauaiblk4|447=C|452=11|11=ClOrdID-18587|22=4|38=350000|48=US72605XAL91|54=2|55=[N/A/]|67=294|453=1|448=T1Kauaiblk4|447=C|452=11|11=ClOrdID-18588|22=4|38=350000|48=US12189TAN46|54=1|55=[N/A/]|67=295|453=1|448=T1Kauaiblk4|447=C|452=11|11=ClOrdID-18589|22=4|38=350000|48=US78010UDB08|54=2|55=[N/A/]|67=296|453=1|448=T1Kauaiblk4|447=C|452=11|11=ClOrdID-18590|22=4|38=350000|48=US79585TAL70|54=1|55=[N/A/]|67=297|453=1|448=T1Kauaiblk4|447=C|452=11|11=ClOrdID-18591|22=4|38=350000|48=US720198AD26|54=2|55=[N/A/]|67=298|453=1|448=T1Kauaiblk4|447=C|452=11|11=ClOrdID-18592|22=4|38=350000|48=US34540TJQ67|54=1|55=[N/A/]|67=299|453=1|448=T1Kauaiblk4|447=C|452=11|11=ClOrdID-18593|22=4|38=350000|48=US36162YMH35|54=2|55=[N/A/]|67=300|453=1|448=T1Kauaiblk4|447=C|452=11|10=017|8=FIX.4.4|9=56|35=0|34=3|49=T1Kauaiblk4|52=20210924-14:21:30.691|56=MA|10=067|8=FIX.4.4|9=56|35=0|34=4|49=T1Kauaiblk4|52=20210924-14:23:01.697|56=MA|10=074|8=FIX.4.4|9=56|35=0|34=5|49=T1Kauaiblk4|52=20210924-14:24:32.686|56=MA|10=078|8=FIX.4.4|9=56|35=0|34=6|49=T1Kauaiblk4|52=20210924-14:26:02.689|56=MA|10=081|8=FIX.4.4|9=713|35=E|34=7|49=T1Kauaiblk4|52=20210924-14:26:25.393|56=MA|66=ListID-041321-rodrigo-18594|394=2|68=5|73=5|11=ClOrdID-18595|22=4|38=100000|44=100|48=US06051GEN51|54=1|55=[N/A/]|63=3|67=1|423=1|29726=100.25|453=1|448=T1Kauaiblk4|447=C|452=11|11=ClOrdID-18596|22=4|38=100000|44=101|48=US40434AAB52|54=1|55=[N/A]|63=3|67=2|29726=101.25|11=ClOrdID-18597|22=4|38=130000|44=102|48=US95709TAH32|54=1|55=[N/A/]|63=3|67=1|29726=102.25|453=1|448=T1Kauaiblk4|447=C|452=11|11=ClOrdID-18598|22=4|38=250000|44=103|48=US427866AZ15|54=1|55=[N/A/]|63=3|67=1|29726=103.25|453=1|448=T1Kauaiblk4|447=C|452=11|11=ClOrdID-18599|22=4|38=350000|44=104|48=US29379VAW37|54=1|55=[N/A/]|63=3|67=1|29726=104.25|453=1|448=T1Kauaiblk4|447=C|452=11|10=046|8=FIX.4.4|9=56|35=0|34=8|49=T1Kauaiblk4|52=20210924-14:27:55.690|56=MA|10=084|8=FIX.4.4|9=56|35=0|34=9|49=T1Kauaiblk4|52=20210924-14:29:25.703|56=MA|10=079|8=FIX.4.4|9=57|35=0|34=10|49=T1Kauaiblk4|52=20210924-14:30:56.518|56=MA|10=120|8=FIX.4.4|9=57|35=0|34=11|49=T1Kauaiblk4|52=20210924-14:32:26.699|56=MA|10=130|8=FIX.4.4|9=57|35=0|34=12|49=T1Kauaiblk4|52=20210924-14:33:57.514|56=MA|10=122|8=FIX.4.4|9=57|35=0|34=13|49=T1Kauaiblk4|52=20210924-14:35:27.517|56=MA|10=125|8=FIX.4.4|9=57|35=0|34=14|49=T1Kauaiblk4|52=20210924-14:36:57.705|56=MA|10=129|8=FIX.4.4|9=57|35=0|34=15|49=T1Kauaiblk4|52=20210924-14:38:28.495|56=MA|10=136|8=FIX.4.4|9=57|35=0|34=16|49=T1Kauaiblk4|52=20210924-14:39:58.553|56=MA|10=136|8=FIX.4.4|9=57|35=0|34=17|49=T1Kauaiblk4|52=20210924-14:41:28.697|56=MA|10=136|8=FIX.4.4|9=57|35=0|34=18|49=T1Kauaiblk4|52=20210924-14:42:59.512|56=MA|10=128|8=FIX.4.4|9=57|35=0|34=19|49=T1Kauaiblk4|52=20210924-14:44:29.701|56=MA|10=128|8=FIX.4.4|9=57|35=0|34=20|49=T1Kauaiblk4|52=20210924-14:45:59.711|56=MA|10=125|8=FIX.4.4|9=57|35=0|34=21|49=T1Kauaiblk4|52=20210924-14:47:30.520|56=MA|10=115|8=FIX.4.4|9=57|35=0|34=22|49=T1Kauaiblk4|52=20210924-14:49:00.529|56=MA|10=124|8=FIX.4.4|9=57|35=0|34=23|49=T1Kauaiblk4|52=20210924-14:50:30.531|56=MA|10=113|8=FIX.4.4|9=57|35=0|34=24|49=T1Kauaiblk4|52=20210924-14:52:00.707|56=MA|10=118|8=FIX.4.4|9=57|35=0|34=25|49=T1Kauaiblk4|52=20210924-14:53:31.449|56=MA|10=127|8=FIX.4.4|9=57|35=0|34=26|49=T1Kauaiblk4|52=20210924-14:55:01.706|56=MA|10=123|8=FIX.4.4|9=57|35=0|34=27|49=T1Kauaiblk4|52=20210924-14:56:31.710|56=MA|10=123|8=FIX.4.4|9=57|35=0|34=28|49=T1Kauaiblk4|52=20210924-14:58:01.710|56=MA|10=123|8=FIX.4.4|9=57|35=0|34=29|49=T1Kauaiblk4|52=20210924-14:59:31.711|56=MA|10=129|8=FIX.4.4|9=57|35=0|34=30|49=T1Kauaiblk4|52=20210924-15:01:02.527|56=MA|10=112|8=FIX.4.4|9=57|35=0|34=31|49=T1Kauaiblk4|52=20210924-15:02:32.704|56=MA|10=114|8=FIX.4.4|9=57|35=0|34=32|49=T1Kauaiblk4|52=20210924-15:04:02.704|56=MA|10=114|8=FIX.4.4|9=57|35=0|34=33|49=T1Kauaiblk4|52=20210924-15:05:32.705|56=MA|10=120|8=FIX.4.4|9=57|35=0|34=34|49=T1Kauaiblk4|52=20210924-15:07:02.706|56=MA|10=121|8=FIX.4.4|9=57|35=0|34=35|49=T1Kauaiblk4|52=20210924-15:08:32.708|56=MA|10=128|8=FIX.4.4|9=57|35=0|34=36|49=T1Kauaiblk4|52=20210924-15:10:02.708|56=MA|10=119|8=FIX.4.4|9=57|35=0|34=37|49=T1Kauaiblk4|52=20210924-15:11:32.709|56=MA|10=125|8=FIX.4.4|9=57|35=0|34=38|49=T1Kauaiblk4|52=20210924-15:13:03.708|56=MA|10=125|8=FIX.4.4|9=57|35=0|34=39|49=T1Kauaiblk4|52=20210924-15:14:33.709|56=MA|10=131|8=FIX.4.4|9=57|35=0|34=40|49=T1Kauaiblk4|52=20210924-15:16:03.709|56=MA|10=122|8=FIX.4.4|9=57|35=0|34=41|49=T1Kauaiblk4|52=20210924-15:17:33.721|56=MA|10=121|8=FIX.4.4|9=57|35=0|34=42|49=T1Kauaiblk4|52=20210924-15:19:04.724|56=MA|10=125|8=FIX.4.4|9=57|35=0|34=43|49=T1Kauaiblk4|52=20210924-15:20:35.721|56=MA|10=119|8=FIX.4.4|9=57|35=0|34=44|49=T1Kauaiblk4|52=20210924-15:22:06.726|56=MA|10=125|8=FIX.4.4|9=57|35=0|34=45|49=T1Kauaiblk4|52=20210924-15:23:37.713|56=MA|10=127|8=FIX.4.4|9=57|35=0|34=46|49=T1Kauaiblk4|52=20210924-15:25:07.726|56=MA|10=131|8=FIX.4.4|9=57|35=0|34=47|49=T1Kauaiblk4|52=20210924-15:26:38.720|56=MA|10=131|8=FIX.4.4|9=57|35=0|34=48|49=T1Kauaiblk4|52=20210924-15:28:08.725|56=MA|10=136|8=FIX.4.4|9=57|35=0|34=49|49=T1Kauaiblk4|52=20210924-15:29:38.727|56=MA|10=143|8=FIX.4.4|9=714|35=E|34=50|49=T1Kauaiblk4|52=20210924-15:30:27.774|56=MA|66=ListID-041321-rodrigo-18600|394=2|68=5|73=5|11=ClOrdID-18601|22=4|38=100000|44=100|48=US06051GEN51|54=1|55=[N/A/]|63=3|67=1|423=1|29726=100.25|453=1|448=T1Kauaiblk4|447=C|452=11|11=ClOrdID-18602|22=4|38=100000|44=101|48=US40434AAB52|54=1|55=[N/A]|63=3|67=2|29726=101.25|11=ClOrdID-18603|22=4|38=130000|44=102|48=US95709TAH32|54=1|55=[N/A/]|63=3|67=1|29726=102.25|453=1|448=T1Kauaiblk4|447=C|452=11|11=ClOrdID-18604|22=4|38=250000|44=103|48=US427866AZ15|54=1|55=[N/A/]|63=3|67=1|29726=103.25|453=1|448=T1Kauaiblk4|447=C|452=11|11=ClOrdID-18605|22=4|38=350000|44=104|48=US29379VAW37|54=1|55=[N/A/]|63=3|67=1|29726=104.25|453=1|448=T1Kauaiblk4|447=C|452=11|10=022|8=FIX.4.4|9=57|35=0|34=51|49=T1Kauaiblk4|52=20210924-15:31:58.729|56=MA|10=133|8=FIX.4.4|9=57|35=0|34=52|49=T1Kauaiblk4|52=20210924-15:33:29.505|56=MA|10=126|8=FIX.4.4|9=57|35=0|34=53|49=T1Kauaiblk4|52=20210924-15:34:59.723|56=MA|10=133|8=FIX.4.4|9=57|35=0|34=54|49=T1Kauaiblk4|52=20210924-15:36:29.727|56=MA|10=137|8=FIX.4.4|9=57|35=0|34=55|49=T1Kauaiblk4|52=20210924-15:37:59.729|56=MA|10=144|8=FIX.4.4|9=57|35=0|34=56|49=T1Kauaiblk4|52=20210924-15:39:30.726|56=MA|10=133|8=FIX.4.4|9=57|35=0|34=57|49=T1Kauaiblk4|52=20210924-15:41:01.720|56=MA|10=119|8=FIX.4.4|9=57|35=0|34=58|49=T1Kauaiblk4|52=20210924-15:42:32.517|56=MA|10=129|8=FIX.4.4|9=57|35=0|34=59|49=T1Kauaiblk4|52=20210924-15:44:02.730|56=MA|10=126|8=FIX.4.4|9=714|35=E|34=60|49=T1Kauaiblk4|52=20210924-15:45:10.721|56=MA|66=ListID-041321-rodrigo-18606|394=2|68=5|73=5|11=ClOrdID-18607|22=4|38=100000|44=100|48=US06051GEN51|54=1|55=[N/A/]|63=3|67=1|423=1|29726=100.25|453=1|448=T1Kauaiblk4|447=C|452=11|11=ClOrdID-18608|22=4|38=100000|44=101|48=US40434AAB52|54=1|55=[N/A]|63=3|67=2|29726=101.25|11=ClOrdID-18609|22=4|38=130000|44=102|48=US95709TAH32|54=1|55=[N/A/]|63=3|67=1|29726=102.25|453=1|448=T1Kauaiblk4|447=C|452=11|11=ClOrdID-18610|22=4|38=250000|44=103|48=US427866AZ15|54=1|55=[N/A/]|63=3|67=1|29726=103.25|453=1|448=T1Kauaiblk4|447=C|452=11|11=ClOrdID-18611|22=4|38=350000|44=104|48=US29379VAW37|54=1|55=[N/A/]|63=3|67=1|29726=104.25|453=1|448=T1Kauaiblk4|447=C|452=11|10=031|8=FIX.4.4|9=57|35=0|34=61|49=T1Kauaiblk4|52=20210924-15:46:40.730|56=MA|10=123|8=FIX.4.4|9=57|35=0|34=62|49=T1Kauaiblk4|52=20210924-15:48:11.355|56=MA|10=127|8=FIX.4.4|9=57|35=0|34=63|49=T1Kauaiblk4|52=20210924-15:49:41.361|56=MA|10=129|8=FIX.4.4|9=57|35=0|34=64|49=T1Kauaiblk4|52=20210924-15:51:11.445|56=MA|10=123|8=FIX.4.4|9=57|35=0|34=65|49=T1Kauaiblk4|52=20210924-15:52:41.461|56=MA|10=126|8=FIX.4.4|9=57|35=0|34=66|49=T1Kauaiblk4|52=20210924-15:54:11.731|56=MA|10=126|8=FIX.4.4|9=57|35=0|34=67|49=T1Kauaiblk4|52=20210924-15:55:42.492|56=MA|10=136|8=FIX.4.4|9=57|35=0|34=68|49=T1Kauaiblk4|52=20210924-15:57:12.508|56=MA|10=134|8=FIX.4.4|9=57|35=0|34=69|49=T1Kauaiblk4|52=20210924-15:58:42.724|56=MA|10=139|8=FIX.4.4|9=57|35=0|34=70|49=T1Kauaiblk4|52=20210924-16:00:13.519|56=MA|10=119|8=FIX.4.4|9=57|35=0|34=71|49=T1Kauaiblk4|52=20210924-16:01:43.731|56=MA|10=120|8=FIX.4.4|9=57|35=0|34=72|49=T1Kauaiblk4|52=20210924-16:03:13.732|56=MA|10=121|8=FIX.4.4|9=57|35=0|34=73|49=T1Kauaiblk4|52=20210924-16:04:44.727|56=MA|10=131|8=FIX.4.4|9=57|35=0|34=74|49=T1Kauaiblk4|52=20210924-16:06:14.734|56=MA|10=129|8=FIX.4.4|9=57|35=0|34=75|49=T1Kauaiblk4|52=20210924-16:07:44.736|56=MA|10=136|8=FIX.4.4|9=57|35=0|34=76|49=T1Kauaiblk4|52=20210924-16:09:15.500|56=MA|10=126|8=FIX.4.4|9=57|35=0|34=77|49=T1Kauaiblk4|52=20210924-16:10:45.731|56=MA|10=128|8=FIX.4.4|9=57|35=0|34=78|49=T1Kauaiblk4|52=20210924-16:12:15.737|56=MA|10=134|8=FIX.4.4|9=57|35=0|34=79|49=T1Kauaiblk4|52=20210924-16:13:46.466|56=MA|10=139|8=FIX.4.4|9=57|35=0|34=80|49=T1Kauaiblk4|52=20210924-16:15:16.520|56=MA|10=121|8=FIX.4.4|9=57|35=0|34=81|49=T1Kauaiblk4|52=20210924-16:16:46.729|56=MA|10=137|8=FIX.4.4|9=57|35=0|34=82|49=T1Kauaiblk4|52=20210924-16:18:16.740|56=MA|10=130|8=FIX.4.4|9=57|35=0|34=83|49=T1Kauaiblk4|52=20210924-16:19:47.348|56=MA|10=140|8=FIX.4.4|9=57|35=0|34=84|49=T1Kauaiblk4|52=20210924-16:21:17.501|56=MA|10=122|8=FIX.4.4|9=57|35=0|34=85|49=T1Kauaiblk4|52=20210924-16:22:47.730|56=MA|10=131|8=FIX.4.4|9=57|35=0|34=86|49=T1Kauaiblk4|52=20210924-16:24:17.737|56=MA|10=138|8=FIX.4.4|9=57|35=0|34=87|49=T1Kauaiblk4|52=20210924-16:25:47.738|56=MA|10=144|8=FIX.4.4|9=57|35=0|34=88|49=T1Kauaiblk4|52=20210924-16:27:18.334|56=MA|10=137|8=FIX.4.4|9=57|35=0|34=89|49=T1Kauaiblk4|52=20210924-16:28:48.513|56=MA|10=141|8=FIX.4.4|9=57|35=0|34=90|49=T1Kauaiblk4|52=20210924-16:30:18.729|56=MA|10=132|8=FIX.4.4|9=57|35=0|34=91|49=T1Kauaiblk4|52=20210924-16:31:48.737|56=MA|10=136|8=FIX.4.4|9=57|35=0|34=92|49=T1Kauaiblk4|52=20210924-16:33:19.337|56=MA|10=133|8=FIX.4.4|9=57|35=0|34=93|49=T1Kauaiblk4|52=20210924-16:34:49.500|56=MA|10=130|8=FIX.4.4|9=57|35=0|34=94|49=T1Kauaiblk4|52=20210924-16:36:19.735|56=MA|10=140|8=FIX.4.4|9=57|35=0|34=95|49=T1Kauaiblk4|52=20210924-16:37:49.736|56=MA|10=146|8=FIX.4.4|9=57|35=0|34=96|49=T1Kauaiblk4|52=20210924-16:39:20.350|56=MA|10=130|8=FIX.4.4|9=57|35=0|34=97|49=T1Kauaiblk4|52=20210924-16:40:50.506|56=MA|10=129|8=FIX.4.4|9=57|35=0|34=98|49=T1Kauaiblk4|52=20210924-16:42:20.735|56=MA|10=133|8=FIX.4.4|9=75|35=5|34=99|49=T1Kauaiblk4|52=20210924-16:43:33.737|56=MA|58=user requested|10=238|8=FIX.4.4|9=91|35=A|34=1|49=T1Kauaiblk4|52=20210927-07:29:36.589|56=MA|98=0|108=90|95=8|96=3.0.0rc5|141=Y|10=064|8=FIX.4.4|9=713|35=E|34=2|49=T1Kauaiblk4|52=20210927-07:29:41.052|56=MA|66=ListID-041321-rodrigo-18612|394=2|68=5|73=5|11=ClOrdID-18613|22=4|38=100000|44=100|48=US06051GEN51|54=1|55=[N/A/]|63=3|67=1|423=1|29726=100.25|453=1|448=T1Kauaiblk4|447=C|452=11|11=ClOrdID-18614|22=4|38=100000|44=101|48=US40434AAB52|54=1|55=[N/A]|63=3|67=2|29726=101.25|11=ClOrdID-18615|22=4|38=130000|44=102|48=US95709TAH32|54=1|55=[N/A/]|63=3|67=1|29726=102.25|453=1|448=T1Kauaiblk4|447=C|452=11|11=ClOrdID-18616|22=4|38=250000|44=103|48=US427866AZ15|54=1|55=[N/A/]|63=3|67=1|29726=103.25|453=1|448=T1Kauaiblk4|447=C|452=11|11=ClOrdID-18617|22=4|38=350000|44=104|48=US29379VAW37|54=1|55=[N/A/]|63=3|67=1|29726=104.25|453=1|448=T1Kauaiblk4|447=C|452=11|10=241|8=FIX.4.4|9=56|35=0|34=3|49=T1Kauaiblk4|52=20210927-07:31:11.578|56=MA|10=076|8=FIX.4.4|9=56|35=0|34=4|49=T1Kauaiblk4|52=20210927-07:32:41.672|56=MA|10=076|8=FIX.4.4|9=56|35=0|34=5|49=T1Kauaiblk4|52=20210927-07:34:12.201|56=MA|10=065|8=FIX.4.4|9=56|35=0|34=6|49=T1Kauaiblk4|52=20210927-07:35:42.424|56=MA|10=077|8=FIX.4.4|9=56|35=0|34=7|49=T1Kauaiblk4|52=20210927-07:37:12.906|56=MA|10=082|8=FIX.4.4|9=56|35=0|34=8|49=T1Kauaiblk4|52=20210927-07:38:42.909|56=MA|10=090|8=FIX.4.4|9=56|35=0|34=9|49=T1Kauaiblk4|52=20210927-07:40:12.909|56=MA|10=081|8=FIX.4.4|9=57|35=0|34=10|49=T1Kauaiblk4|52=20210927-07:41:43.326|56=MA|10=120|8=FIX.4.4|9=57|35=0|34=11|49=T1Kauaiblk4|52=20210927-07:43:13.903|56=MA|10=121|8=FIX.4.4|9=57|35=0|34=12|49=T1Kauaiblk4|52=20210927-07:44:44.155|56=MA|10=126|8=FIX.4.4|9=57|35=0|34=13|49=T1Kauaiblk4|52=20210927-07:46:14.335|56=MA|10=126|8=FIX.4.4|9=57|35=0|34=14|49=T1Kauaiblk4|52=20210927-07:47:44.924|56=MA|10=135|8=FIX.4.4|9=57|35=0|34=15|49=T1Kauaiblk4|52=20210927-07:49:15.323|56=MA|10=129|8=FIX.4.4|9=714|35=E|34=16|49=T1Kauaiblk4|52=20210927-07:49:30.469|56=MA|66=ListID-041321-rodrigo-18618|394=2|68=5|73=5|11=ClOrdID-18619|22=4|38=100000|44=100|48=US06051GEN51|54=1|55=[N/A/]|63=3|67=1|423=1|29726=100.25|453=1|448=T1Kauaiblk4|447=C|452=11|11=ClOrdID-18620|22=4|38=100000|44=101|48=US40434AAB52|54=1|55=[N/A]|63=3|67=2|29726=101.25|11=ClOrdID-18621|22=4|38=130000|44=102|48=US95709TAH32|54=1|55=[N/A/]|63=3|67=1|29726=102.25|453=1|448=T1Kauaiblk4|447=C|452=11|11=ClOrdID-18622|22=4|38=250000|44=103|48=US427866AZ15|54=1|55=[N/A/]|63=3|67=1|29726=103.25|453=1|448=T1Kauaiblk4|447=C|452=11|11=ClOrdID-18623|22=4|38=350000|44=104|48=US29379VAW37|54=1|55=[N/A/]|63=3|67=1|29726=104.25|453=1|448=T1Kauaiblk4|447=C|452=11|10=051|8=FIX.4.4|9=57|35=0|34=17|49=T1Kauaiblk4|52=20210927-07:51:00.910|56=MA|10=120|8=FIX.4.4|9=57|35=0|34=18|49=T1Kauaiblk4|52=20210927-07:52:30.910|56=MA|10=125|8=FIX.4.4|9=57|35=0|34=19|49=T1Kauaiblk4|52=20210927-07:54:00.914|56=MA|10=129|8=FIX.4.4|9=57|35=0|34=20|49=T1Kauaiblk4|52=20210927-07:55:31.310|56=MA|10=116|8=FIX.4.4|9=57|35=0|34=21|49=T1Kauaiblk4|52=20210927-07:57:01.911|56=MA|10=123|8=FIX.4.4|9=2374|35=E|34=22|49=T1Kauaiblk4|52=20210927-07:57:22.234|56=MA|66=ListID-050221-18624|394=2|68=20|73=20|11=ClOrdID-18625|22=4|38=1000000|44=100.202|48=US06051GEN51|54=1|55=[N/A/]|67=1|423=1|29726=100.262|453=1|448=T1Kauaiblk4|447=C|452=11|11=ClOrdID-18626|22=4|38=2000000|44=99.23|48=US40434AAB52|54=1|55=[N/A]|67=2|423=1|29726=100.262|11=ClOrdID-18627|22=4|38=1300000|44=100.1|48=US06738JYZ10|54=1|55=[N/A/]|67=3|423=1|29726=99.555|453=1|448=T1Kauaiblk4|447=C|452=11|11=ClOrdID-18628|22=4|38=2500000|44=98.253|48=US95709TAH32|54=1|55=[N/A/]|67=4|423=1|29726=101.225|453=1|448=T1Kauaiblk4|447=C|452=11|11=ClOrdID-18629|22=4|38=3000000|44=100.235|48=US29379VAW37|54=1|55=[N/A/]|67=5|423=1|29726=99.66|453=1|448=T1Kauaiblk4|447=C|452=11|11=ClOrdID-18630|22=4|38=1000000|44=101.123|48=US48121ECC49|54=1|55=[N/A/]|67=6|423=1|29726=100.601|453=1|448=T1Kauaiblk4|447=C|452=11|11=ClOrdID-18631|22=4|38=3500000|44=102.32|48=US983024AL46|54=1|55=[N/A/]|67=7|423=1|453=1|448=T1Kauaiblk4|447=C|452=11|11=ClOrdID-18632|22=4|38=4500000|48=US61166WAE12|54=1|55=[N/A/]|67=8|453=1|448=T1Kauaiblk4|447=C|452=11|11=ClOrdID-18633|22=4|38=350000|48=US000828JAM09|54=1|55=[N/A/]|67=9|453=1|448=T1Kauaiblk4|447=C|452=11|11=ClOrdID-18634|22=4|38=1000000|48=US62630CAR25|54=1|55=[N/A/]|67=10|453=1|448=T1Kauaiblk4|447=C|452=11|11=ClOrdID-18635|22=4|38=1000000|48=US05379BAK35|54=1|55=[N/A/]|67=11|453=1|448=T1Kauaiblk4|447=C|452=11|11=ClOrdID-18636|22=4|38=1000000|48=US368710AC32|54=1|55=[N/A/]|67=12|453=1|448=T1Kauaiblk4|447=C|452=11|11=ClOrdID-18637|22=4|38=200000|48=XS1186833239|54=1|55=[N/A/]|67=13|453=1|448=T1Kauaiblk4|447=C|452=11|11=ClOrdID-18638|22=4|38=350000|48=US842400FC28|54=1|55=[N/A/]|67=14|453=1|448=T1Kauaiblk4|447=C|452=11|11=ClOrdID-18639|22=4|38=5000000|48=US927804FA70|54=1|55=[N/A/]|67=15|453=1|448=T1Kauaiblk4|447=C|452=11|11=ClOrdID-18640|22=4|38=500000|48=US472319AC60|54=1|55=[N/A/]|67=16|453=1|448=T1Kauaiblk4|447=C|452=11|11=ClOrdID-18641|22=4|38=700000|44=99.992|48=US93884PDN78|54=1|55=[N/A/]|67=17|423=1|453=1|448=T1Kauaiblk4|447=C|452=11|11=ClOrdID-18642|22=4|38=8000000|48=US06050XWS88|54=1|55=[N/A/]|67=8|453=1|448=T1Kauaiblk4|447=C|452=11|11=ClOrdID-18643|22=4|38=1000000|44=98.985|48=US87425EAJ29|54=1|55=[N/A/]|67=19|423=1|453=1|448=T1Kauaiblk4|447=C|452=11|11=ClOrdID-18644|22=4|38=2000000|48=US816300AG24|54=1|55=[N/A/]|67=20|453=1|448=T1Kauaiblk4|447=C|452=11|10=101|8=FIX.4.4|9=714|35=E|34=23|49=T1Kauaiblk4|52=20210927-07:58:36.688|56=MA|66=ListID-041321-rodrigo-18645|394=2|68=5|73=5|11=ClOrdID-18646|22=4|38=100000|44=100|48=US06051GEN51|54=1|55=[N/A/]|63=3|67=1|423=1|29726=100.25|453=1|448=T1Kauaiblk4|447=C|452=11|11=ClOrdID-18647|22=4|38=100000|44=101|48=US40434AAB52|54=1|55=[N/A]|63=3|67=2|29726=101.25|11=ClOrdID-18648|22=4|38=130000|44=102|48=US95709TAH32|54=1|55=[N/A/]|63=3|67=1|29726=102.25|453=1|448=T1Kauaiblk4|447=C|452=11|11=ClOrdID-18649|22=4|38=250000|44=103|48=US427866AZ15|54=1|55=[N/A/]|63=3|67=1|29726=103.25|453=1|448=T1Kauaiblk4|447=C|452=11|11=ClOrdID-18650|22=4|38=350000|44=104|48=US29379VAW37|54=1|55=[N/A/]|63=3|67=1|29726=104.25|453=1|448=T1Kauaiblk4|447=C|452=11|10=085|8=FIX.4.4|9=57|35=0|34=24|49=T1Kauaiblk4|52=20210927-08:00:06.916|56=MA|10=125|8=FIX.4.4|9=57|35=0|34=25|49=T1Kauaiblk4|52=20210927-08:01:36.916|56=MA|10=130|8=FIX.4.4|9=714|35=E|34=26|49=T1Kauaiblk4|52=20210927-08:02:40.556|56=MA|66=ListID-041321-rodrigo-18651|394=2|68=5|73=5|11=ClOrdID-18652|22=4|38=100000|44=100|48=US06051GEN51|54=1|55=[N/A/]|63=3|67=1|423=1|29726=100.25|453=1|448=T1Kauaiblk4|447=C|452=11|11=ClOrdID-18653|22=4|38=100000|44=101|48=US40434AAB52|54=1|55=[N/A]|63=3|67=2|29726=101.25|11=ClOrdID-18654|22=4|38=130000|44=102|48=US95709TAH32|54=1|55=[N/A/]|63=3|67=1|29726=102.25|453=1|448=T1Kauaiblk4|447=C|452=11|11=ClOrdID-18655|22=4|38=250000|44=103|48=US427866AZ15|54=1|55=[N/A/]|63=3|67=1|29726=103.25|453=1|448=T1Kauaiblk4|447=C|452=11|11=ClOrdID-18656|22=4|38=350000|44=104|48=US29379VAW37|54=1|55=[N/A/]|63=3|67=1|29726=104.25|453=1|448=T1Kauaiblk4|447=C|452=11|10=058|8=FIX.4.4|9=57|35=0|34=27|49=T1Kauaiblk4|52=20210927-08:04:10.908|56=MA|10=128|8=FIX.4.4|9=714|35=E|34=28|49=T1Kauaiblk4|52=20210927-08:05:05.023|56=MA|66=ListID-041321-rodrigo-18657|394=2|68=5|73=5|11=ClOrdID-18658|22=4|38=100000|44=100|48=US06051GEN51|54=1|55=[N/A/]|63=3|67=1|423=1|29726=100.25|453=1|448=T1Kauaiblk4|447=C|452=11|11=ClOrdID-18659|22=4|38=100000|44=101|48=US40434AAB52|54=1|55=[N/A]|63=3|67=2|29726=101.25|11=ClOrdID-18660|22=4|38=130000|44=102|48=US95709TAH32|54=1|55=[N/A/]|63=3|67=1|29726=102.25|453=1|448=T1Kauaiblk4|447=C|452=11|11=ClOrdID-18661|22=4|38=250000|44=103|48=US427866AZ15|54=1|55=[N/A/]|63=3|67=1|29726=103.25|453=1|448=T1Kauaiblk4|447=C|452=11|11=ClOrdID-18662|22=4|38=350000|44=104|48=US29379VAW37|54=1|55=[N/A/]|63=3|67=1|29726=104.25|453=1|448=T1Kauaiblk4|447=C|452=11|10=062|8=FIX.4.4|9=57|35=0|34=29|49=T1Kauaiblk4|52=20210927-08:06:35.312|56=MA|10=128|8=FIX.4.4|9=57|35=0|34=30|49=T1Kauaiblk4|52=20210927-08:08:05.910|56=MA|10=123|8=FIX.4.4|9=57|35=0|34=31|49=T1Kauaiblk4|52=20210927-08:09:36.310|56=MA|10=123|8=FIX.4.4|9=57|35=0|34=32|49=T1Kauaiblk4|52=20210927-08:11:06.317|56=MA|10=121|8=FIX.4.4|9=57|35=0|34=33|49=T1Kauaiblk4|52=20210927-08:12:36.332|56=MA|10=123|8=FIX.4.4|9=57|35=0|34=34|49=T1Kauaiblk4|52=20210927-08:14:06.907|56=MA|10=131|8=FIX.4.4|9=57|35=0|34=35|49=T1Kauaiblk4|52=20210927-08:15:36.914|56=MA|10=134|8=FIX.4.4|9=57|35=0|34=36|49=T1Kauaiblk4|52=20210927-08:17:07.308|56=MA|10=132|8=FIX.4.4|9=57|35=0|34=37|49=T1Kauaiblk4|52=20210927-08:18:37.339|56=MA|10=141|8=FIX.4.4|9=714|35=E|34=38|49=T1Kauaiblk4|52=20210927-08:19:42.844|56=MA|66=ListID-041321-rodrigo-18663|394=2|68=5|73=5|11=ClOrdID-18664|22=4|38=100000|44=100|48=US06051GEN51|54=1|55=[N/A/]|63=3|67=1|423=1|29726=100.25|453=1|448=T1Kauaiblk4|447=C|452=11|11=ClOrdID-18665|22=4|38=100000|44=101|48=US40434AAB52|54=1|55=[N/A]|63=3|67=2|29726=101.25|11=ClOrdID-18666|22=4|38=130000|44=102|48=US95709TAH32|54=1|55=[N/A/]|63=3|67=1|29726=102.25|453=1|448=T1Kauaiblk4|447=C|452=11|11=ClOrdID-18667|22=4|38=250000|44=103|48=US427866AZ15|54=1|55=[N/A/]|63=3|67=1|29726=103.25|453=1|448=T1Kauaiblk4|447=C|452=11|11=ClOrdID-18668|22=4|38=350000|44=104|48=US29379VAW37|54=1|55=[N/A/]|63=3|67=1|29726=104.25|453=1|448=T1Kauaiblk4|447=C|452=11|10=089|8=FIX.4.4|9=57|35=0|34=39|49=T1Kauaiblk4|52=20210927-08:21:12.918|56=MA|10=133|8=FIX.4.4|9=57|35=0|34=40|49=T1Kauaiblk4|52=20210927-08:22:43.272|56=MA|10=123|8=FIX.4.4|9=714|35=E|34=41|49=T1Kauaiblk4|52=20210927-08:23:51.639|56=MA|66=ListID-041321-rodrigo-18669|394=2|68=5|73=5|11=ClOrdID-18670|22=4|38=100000|44=100|48=US06051GEN51|54=1|55=[N/A/]|63=3|67=1|423=1|29726=100.25|453=1|448=T1Kauaiblk4|447=C|452=11|11=ClOrdID-18671|22=4|38=100000|44=101|48=US40434AAB52|54=1|55=[N/A]|63=3|67=2|29726=101.25|11=ClOrdID-18672|22=4|38=130000|44=102|48=US95709TAH32|54=1|55=[N/A/]|63=3|67=1|29726=102.25|453=1|448=T1Kauaiblk4|447=C|452=11|11=ClOrdID-18673|22=4|38=250000|44=103|48=US427866AZ15|54=1|55=[N/A/]|63=3|67=1|29726=103.25|453=1|448=T1Kauaiblk4|447=C|452=11|11=ClOrdID-18674|22=4|38=350000|44=104|48=US29379VAW37|54=1|55=[N/A/]|63=3|67=1|29726=104.25|453=1|448=T1Kauaiblk4|447=C|452=11|10=071|8=FIX.4.4|9=57|35=0|34=42|49=T1Kauaiblk4|52=20210927-08:25:21.910|56=MA|10=123|8=FIX.4.4|9=714|35=E|34=43|49=T1Kauaiblk4|52=20210927-08:26:32.854|56=MA|66=ListID-041321-rodrigo-18675|394=2|68=5|73=5|11=ClOrdID-18676|22=4|38=100000|44=100|48=US06051GEN51|54=1|55=[N/A/]|63=3|67=1|423=1|29726=100.25|453=1|448=T1Kauaiblk4|447=C|452=11|11=ClOrdID-18677|22=4|38=100000|44=101|48=US40434AAB52|54=1|55=[N/A]|63=3|67=2|29726=101.25|11=ClOrdID-18678|22=4|38=130000|44=102|48=US95709TAH32|54=1|55=[N/A/]|63=3|67=1|29726=102.25|453=1|448=T1Kauaiblk4|447=C|452=11|11=ClOrdID-18679|22=4|38=250000|44=103|48=US427866AZ15|54=1|55=[N/A/]|63=3|67=1|29726=103.25|453=1|448=T1Kauaiblk4|447=C|452=11|11=ClOrdID-18680|22=4|38=350000|44=104|48=US29379VAW37|54=1|55=[N/A/]|63=3|67=1|29726=104.25|453=1|448=T1Kauaiblk4|447=C|452=11|10=092|8=FIX.4.4|9=57|35=0|34=44|49=T1Kauaiblk4|52=20210927-08:28:02.921|56=MA|10=129|8=FIX.4.4|9=57|35=0|34=45|49=T1Kauaiblk4|52=20210927-08:29:33.322|56=MA|10=130|8=FIX.4.4|9=57|35=0|34=46|49=T1Kauaiblk4|52=20210927-08:31:03.324|56=MA|10=123|8=FIX.4.4|9=57|35=0|34=47|49=T1Kauaiblk4|52=20210927-08:32:33.908|56=MA|10=136|8=FIX.4.4|9=714|35=E|34=48|49=T1Kauaiblk4|52=20210927-08:32:50.744|56=MA|66=ListID-041321-rodrigo-18681|394=2|68=5|73=5|11=ClOrdID-18682|22=4|38=100000|44=100|48=US06051GEN51|54=1|55=[N/A/]|63=3|67=1|423=1|29726=100.25|453=1|448=T1Kauaiblk4|447=C|452=11|11=ClOrdID-18683|22=4|38=100000|44=101|48=US40434AAB52|54=1|55=[N/A]|63=3|67=2|29726=101.25|11=ClOrdID-18684|22=4|38=130000|44=102|48=US95709TAH32|54=1|55=[N/A/]|63=3|67=1|29726=102.25|453=1|448=T1Kauaiblk4|447=C|452=11|11=ClOrdID-18685|22=4|38=250000|44=103|48=US427866AZ15|54=1|55=[N/A/]|63=3|67=1|29726=103.25|453=1|448=T1Kauaiblk4|447=C|452=11|11=ClOrdID-18686|22=4|38=350000|44=104|48=US29379VAW37|54=1|55=[N/A/]|63=3|67=1|29726=104.25|453=1|448=T1Kauaiblk4|447=C|452=11|10=083|8=FIX.4.4|9=57|35=0|34=49|49=T1Kauaiblk4|52=20210927-08:34:20.917|56=MA|10=136|8=FIX.4.4|9=57|35=0|34=50|49=T1Kauaiblk4|52=20210927-08:35:51.180|56=MA|10=125|8=FIX.4.4|9=57|35=0|34=51|49=T1Kauaiblk4|52=20210927-08:37:21.325|56=MA|10=126|8=FIX.4.4|9=57|35=0|34=52|49=T1Kauaiblk4|52=20210927-08:38:51.922|56=MA|10=134|8=FIX.4.4|9=714|35=E|34=53|49=T1Kauaiblk4|52=20210927-08:39:50.501|56=MA|66=ListID-041321-rodrigo-18687|394=2|68=5|73=5|11=ClOrdID-18688|22=4|38=100000|44=100|48=US06051GEN51|54=1|55=[N/A/]|63=3|67=1|423=1|29726=100.25|453=1|448=T1Kauaiblk4|447=C|452=11|11=ClOrdID-18689|22=4|38=100000|44=101|48=US40434AAB52|54=1|55=[N/A]|63=3|67=2|29726=101.25|11=ClOrdID-18690|22=4|38=130000|44=102|48=US95709TAH32|54=1|55=[N/A/]|63=3|67=1|29726=102.25|453=1|448=T1Kauaiblk4|447=C|452=11|11=ClOrdID-18691|22=4|38=250000|44=103|48=US427866AZ15|54=1|55=[N/A/]|63=3|67=1|29726=103.25|453=1|448=T1Kauaiblk4|447=C|452=11|11=ClOrdID-18692|22=4|38=350000|44=104|48=US29379VAW37|54=1|55=[N/A/]|63=3|67=1|29726=104.25|453=1|448=T1Kauaiblk4|447=C|452=11|10=086|8=FIX.4.4|9=57|35=0|34=54|49=T1Kauaiblk4|52=20210927-08:41:20.927|56=MA|10=131|8=FIX.4.4|9=57|35=0|34=55|49=T1Kauaiblk4|52=20210927-08:42:51.172|56=MA|10=129|8=FIX.4.4|9=57|35=0|34=56|49=T1Kauaiblk4|52=20210927-08:44:21.298|56=MA|10=138|8=FIX.4.4|9=57|35=0|34=57|49=T1Kauaiblk4|52=20210927-08:45:51.924|56=MA|10=139|8=FIX.4.4|9=714|35=E|34=58|49=T1Kauaiblk4|52=20210927-08:46:46.341|56=MA|66=ListID-041321-rodrigo-18693|394=2|68=5|73=5|11=ClOrdID-18694|22=4|38=100000|44=100|48=US06051GEN51|54=1|55=[N/A/]|63=3|67=1|423=1|29726=100.25|453=1|448=T1Kauaiblk4|447=C|452=11|11=ClOrdID-18695|22=4|38=100000|44=101|48=US40434AAB52|54=1|55=[N/A]|63=3|67=2|29726=101.25|11=ClOrdID-18696|22=4|38=130000|44=102|48=US95709TAH32|54=1|55=[N/A/]|63=3|67=1|29726=102.25|453=1|448=T1Kauaiblk4|447=C|452=11|11=ClOrdID-18697|22=4|38=250000|44=103|48=US427866AZ15|54=1|55=[N/A/]|63=3|67=1|29726=103.25|453=1|448=T1Kauaiblk4|447=C|452=11|11=ClOrdID-18698|22=4|38=350000|44=104|48=US29379VAW37|54=1|55=[N/A/]|63=3|67=1|29726=104.25|453=1|448=T1Kauaiblk4|447=C|452=11|10=105|8=FIX.4.4|9=57|35=0|34=59|49=T1Kauaiblk4|52=20210927-08:48:16.934|56=MA|10=146|8=FIX.4.4|9=57|35=0|34=60|49=T1Kauaiblk4|52=20210927-08:49:47.327|56=MA|10=139|8=FIX.4.4|9=714|35=E|34=61|49=T1Kauaiblk4|52=20210927-08:51:06.767|56=MA|66=ListID-041321-rodrigo-18699|394=2|68=5|73=5|11=ClOrdID-18700|22=4|38=100000|44=100|48=US06051GEN51|54=1|55=[N/A/]|63=3|67=1|423=1|29726=100.25|453=1|448=T1Kauaiblk4|447=C|452=11|11=ClOrdID-18701|22=4|38=100000|44=101|48=US40434AAB52|54=1|55=[N/A]|63=3|67=2|29726=101.25|11=ClOrdID-18702|22=4|38=130000|44=102|48=US95709TAH32|54=1|55=[N/A/]|63=3|67=1|29726=102.25|453=1|448=T1Kauaiblk4|447=C|452=11|11=ClOrdID-18703|22=4|38=250000|44=103|48=US427866AZ15|54=1|55=[N/A/]|63=3|67=1|29726=103.25|453=1|448=T1Kauaiblk4|447=C|452=11|11=ClOrdID-18704|22=4|38=350000|44=104|48=US29379VAW37|54=1|55=[N/A/]|63=3|67=1|29726=104.25|453=1|448=T1Kauaiblk4|447=C|452=11|10=049|8=FIX.4.4|9=57|35=0|34=62|49=T1Kauaiblk4|52=20210927-08:52:36.928|56=MA|10=140|8=FIX.4.4|9=57|35=0|34=63|49=T1Kauaiblk4|52=20210927-08:54:07.925|56=MA|10=138|8=FIX.4.4|9=57|35=0|34=64|49=T1Kauaiblk4|52=20210927-08:55:37.929|56=MA|10=147|8=FIX.4.4|9=57|35=0|34=65|49=T1Kauaiblk4|52=20210927-08:57:07.929|56=MA|10=147|8=FIX.4.4|9=57|35=0|34=66|49=T1Kauaiblk4|52=20210927-08:58:38.927|56=MA|10=151|8=FIX.4.4|9=57|35=0|34=67|49=T1Kauaiblk4|52=20210927-09:00:08.938|56=MA|10=139|8=FIX.4.4|9=57|35=0|34=68|49=T1Kauaiblk4|52=20210927-09:01:39.327|56=MA|10=137|8=FIX.4.4|9=714|35=E|34=69|49=T1Kauaiblk4|52=20210927-09:02:55.028|56=MA|66=ListID-041321-rodrigo-18705|394=2|68=5|73=5|11=ClOrdID-18706|22=4|38=100000|44=100|48=US06051GEN51|54=1|55=[N/A/]|63=3|67=1|423=1|29726=100.25|453=1|448=T1Kauaiblk4|447=C|452=11|11=ClOrdID-18707|22=4|38=100000|44=101|48=US40434AAB52|54=1|55=[N/A]|63=3|67=2|29726=101.25|11=ClOrdID-18708|22=4|38=130000|44=102|48=US95709TAH32|54=1|55=[N/A/]|63=3|67=1|29726=102.25|453=1|448=T1Kauaiblk4|447=C|452=11|11=ClOrdID-18709|22=4|38=250000|44=103|48=US427866AZ15|54=1|55=[N/A/]|63=3|67=1|29726=103.25|453=1|448=T1Kauaiblk4|447=C|452=11|11=ClOrdID-18710|22=4|38=350000|44=104|48=US29379VAW37|54=1|55=[N/A/]|63=3|67=1|29726=104.25|453=1|448=T1Kauaiblk4|447=C|452=11|10=057|8=FIX.4.4|9=158|35=K|34=70|49=T1Kauaiblk4|52=20210927-09:03:29.958|56=MA|66=ListID-041321-rodrigo-18705|60=20210927-09:03:29.958|75=20210927|453=1|448=blkrockvk|447=C|452=11|10=143|8=FIX.4.4|9=714|35=E|34=71|49=T1Kauaiblk4|52=20210927-09:03:40.288|56=MA|66=ListID-041321-rodrigo-18711|394=2|68=5|73=5|11=ClOrdID-18712|22=4|38=100000|44=100|48=US06051GEN51|54=1|55=[N/A/]|63=3|67=1|423=1|29726=100.25|453=1|448=T1Kauaiblk4|447=C|452=11|11=ClOrdID-18713|22=4|38=100000|44=101|48=US40434AAB52|54=1|55=[N/A]|63=3|67=2|29726=101.25|11=ClOrdID-18714|22=4|38=130000|44=102|48=US95709TAH32|54=1|55=[N/A/]|63=3|67=1|29726=102.25|453=1|448=T1Kauaiblk4|447=C|452=11|11=ClOrdID-18715|22=4|38=250000|44=103|48=US427866AZ15|54=1|55=[N/A/]|63=3|67=1|29726=103.25|453=1|448=T1Kauaiblk4|447=C|452=11|11=ClOrdID-18716|22=4|38=350000|44=104|48=US29379VAW37|54=1|55=[N/A/]|63=3|67=1|29726=104.25|453=1|448=T1Kauaiblk4|447=C|452=11|10=044|8=FIX.4.4|9=57|35=0|34=72|49=T1Kauaiblk4|52=20210927-09:05:10.926|56=MA|10=130|8=FIX.4.4|9=57|35=0|34=73|49=T1Kauaiblk4|52=20210927-09:06:40.927|56=MA|10=136|8=FIX.4.4|9=57|35=0|34=74|49=T1Kauaiblk4|52=20210927-09:08:10.929|56=MA|10=138|8=FIX.4.4|9=57|35=0|34=75|49=T1Kauaiblk4|52=20210927-09:09:40.940|56=MA|10=136|8=FIX.4.4|9=57|35=0|34=76|49=T1Kauaiblk4|52=20210927-09:11:11.934|56=MA|10=131|8=FIX.4.4|9=57|35=0|34=77|49=T1Kauaiblk4|52=20210927-09:12:41.937|56=MA|10=139|8=FIX.4.4|9=57|35=0|34=78|49=T1Kauaiblk4|52=20210927-09:14:12.932|56=MA|10=135|8=FIX.4.4|9=57|35=0|34=79|49=T1Kauaiblk4|52=20210927-09:15:42.938|56=MA|10=146|8=FIX.4.4|9=57|35=0|34=80|49=T1Kauaiblk4|52=20210927-09:17:13.934|56=MA|10=134|8=FIX.4.4|9=57|35=0|34=81|49=T1Kauaiblk4|52=20210927-09:18:44.926|56=MA|10=141|8=FIX.4.4|9=57|35=0|34=82|49=T1Kauaiblk4|52=20210927-09:20:14.926|56=MA|10=132|8=FIX.4.4|9=57|35=0|34=83|49=T1Kauaiblk4|52=20210927-09:21:44.926|56=MA|10=137|8=FIX.4.4|9=57|35=0|34=84|49=T1Kauaiblk4|52=20210927-09:23:14.928|56=MA|10=139|8=FIX.4.4|9=57|35=0|34=85|49=T1Kauaiblk4|52=20210927-09:24:45.927|56=MA|10=144|8=FIX.4.4|9=57|35=0|34=86|49=T1Kauaiblk4|52=20210927-09:26:15.935|56=MA|10=143|8=FIX.4.4|9=57|35=0|34=87|49=T1Kauaiblk4|52=20210927-09:27:45.942|56=MA|10=146|8=FIX.4.4|9=57|35=0|34=88|49=T1Kauaiblk4|52=20210927-09:29:16.931|56=MA|10=145|8=FIX.4.4|9=57|35=0|34=89|49=T1Kauaiblk4|52=20210927-09:30:46.932|56=MA|10=142|8=FIX.4.4|9=57|35=0|34=90|49=T1Kauaiblk4|52=20210927-09:32:16.934|56=MA|10=135|8=FIX.4.4|9=57|35=0|34=91|49=T1Kauaiblk4|52=20210927-09:33:46.935|56=MA|10=141|8=FIX.4.4|9=57|35=0|34=92|49=T1Kauaiblk4|52=20210927-09:35:17.934|56=MA|10=141|8=FIX.4.4|9=57|35=0|34=93|49=T1Kauaiblk4|52=20210927-09:36:47.936|56=MA|10=148|8=FIX.4.4|9=57|35=0|34=94|49=T1Kauaiblk4|52=20210927-09:38:17.937|56=MA|10=149|8=FIX.4.4|9=57|35=0|34=95|49=T1Kauaiblk4|52=20210927-09:39:48.937|56=MA|10=155|8=FIX.4.4|9=57|35=0|34=96|49=T1Kauaiblk4|52=20210927-09:41:18.937|56=MA|10=146|8=FIX.4.4|9=57|35=0|34=97|49=T1Kauaiblk4|52=20210927-09:42:48.937|56=MA|10=151|8=FIX.4.4|9=57|35=0|34=98|49=T1Kauaiblk4|52=20210927-09:44:19.936|56=MA|10=151|8=FIX.4.4|9=57|35=0|34=99|49=T1Kauaiblk4|52=20210927-09:45:49.936|56=MA|10=156|8=FIX.4.4|9=58|35=0|34=100|49=T1Kauaiblk4|52=20210927-09:47:20.934|56=MA|10=177|8=FIX.4.4|9=58|35=0|34=101|49=T1Kauaiblk4|52=20210927-09:48:50.934|56=MA|10=182|8=FIX.4.4|9=715|35=E|34=102|49=T1Kauaiblk4|52=20210927-09:49:10.699|56=MA|66=ListID-041321-rodrigo-18717|394=2|68=5|73=5|11=ClOrdID-18718|22=4|38=100000|44=100|48=US06051GEN51|54=1|55=[N/A/]|63=3|67=1|423=1|29726=100.25|453=1|448=T1Kauaiblk4|447=C|452=11|11=ClOrdID-18719|22=4|38=100000|44=101|48=US40434AAB52|54=1|55=[N/A]|63=3|67=2|29726=101.25|11=ClOrdID-18720|22=4|38=130000|44=102|48=US95709TAH32|54=1|55=[N/A/]|63=3|67=1|29726=102.25|453=1|448=T1Kauaiblk4|447=C|452=11|11=ClOrdID-18721|22=4|38=250000|44=103|48=US427866AZ15|54=1|55=[N/A/]|63=3|67=1|29726=103.25|453=1|448=T1Kauaiblk4|447=C|452=11|11=ClOrdID-18722|22=4|38=350000|44=104|48=US29379VAW37|54=1|55=[N/A/]|63=3|67=1|29726=104.25|453=1|448=T1Kauaiblk4|447=C|452=11|10=110|8=FIX.4.4|9=58|35=0|34=103|49=T1Kauaiblk4|52=20210927-09:50:40.932|56=MA|10=174|8=FIX.4.4|9=58|35=0|34=104|49=T1Kauaiblk4|52=20210927-09:52:10.932|56=MA|10=174|8=FIX.4.4|9=58|35=0|34=105|49=T1Kauaiblk4|52=20210927-09:53:40.933|56=MA|10=180|8=FIX.4.4|9=58|35=0|34=106|49=T1Kauaiblk4|52=20210927-09:55:11.932|56=MA|10=180|8=FIX.4.4|9=58|35=0|34=107|49=T1Kauaiblk4|52=20210927-09:56:42.932|56=MA|10=186|8=FIX.4.4|9=58|35=0|34=108|49=T1Kauaiblk4|52=20210927-09:58:12.932|56=MA|10=186|8=FIX.4.4|9=58|35=0|34=109|49=T1Kauaiblk4|52=20210927-09:59:43.931|56=MA|10=191|8=FIX.4.4|9=58|35=0|34=110|49=T1Kauaiblk4|52=20210927-10:01:13.933|56=MA|10=161|8=FIX.4.4|9=58|35=0|34=111|49=T1Kauaiblk4|52=20210927-10:02:43.935|56=MA|10=168|8=FIX.4.4|9=58|35=0|34=112|49=T1Kauaiblk4|52=20210927-10:04:13.937|56=MA|10=170|8=FIX.4.4|9=715|35=E|34=113|49=T1Kauaiblk4|52=20210927-10:05:12.088|56=MA|66=ListID-041321-rodrigo-18723|394=2|68=5|73=5|11=ClOrdID-18724|22=4|38=100000|44=100|48=US06051GEN51|54=1|55=[N/A/]|63=3|67=1|423=1|29726=100.25|453=1|448=T1Kauaiblk4|447=C|452=11|11=ClOrdID-18725|22=4|38=100000|44=101|48=US40434AAB52|54=1|55=[N/A]|63=3|67=2|29726=101.25|11=ClOrdID-18726|22=4|38=130000|44=102|48=US95709TAH32|54=1|55=[N/A/]|63=3|67=1|29726=102.25|453=1|448=T1Kauaiblk4|447=C|452=11|11=ClOrdID-18727|22=4|38=250000|44=103|48=US427866AZ15|54=1|55=[N/A/]|63=3|67=1|29726=103.25|453=1|448=T1Kauaiblk4|447=C|452=11|11=ClOrdID-18728|22=4|38=350000|44=104|48=US29379VAW37|54=1|55=[N/A/]|63=3|67=1|29726=104.25|453=1|448=T1Kauaiblk4|447=C|452=11|10=099|8=FIX.4.4|9=58|35=0|34=114|49=T1Kauaiblk4|52=20210927-10:06:42.941|56=MA|10=171|8=FIX.4.4|9=715|35=E|34=115|49=T1Kauaiblk4|52=20210927-10:06:50.979|56=MA|66=ListID-041321-rodrigo-18729|394=2|68=5|73=5|11=ClOrdID-18730|22=4|38=100000|44=100|48=US06051GEN51|54=1|55=[N/A/]|63=3|67=1|423=1|29726=100.25|453=1|448=T1Kauaiblk4|447=C|452=11|11=ClOrdID-18731|22=4|38=100000|44=101|48=US40434AAB52|54=1|55=[N/A]|63=3|67=2|29726=101.25|11=ClOrdID-18732|22=4|38=130000|44=102|48=US95709TAH32|54=1|55=[N/A/]|63=3|67=1|29726=102.25|453=1|448=T1Kauaiblk4|447=C|452=11|11=ClOrdID-18733|22=4|38=250000|44=103|48=US427866AZ15|54=1|55=[N/A/]|63=3|67=1|29726=103.25|453=1|448=T1Kauaiblk4|447=C|452=11|11=ClOrdID-18734|22=4|38=350000|44=104|48=US29379VAW37|54=1|55=[N/A/]|63=3|67=1|29726=104.25|453=1|448=T1Kauaiblk4|447=C|452=11|10=104|8=FIX.4.4|9=715|35=E|34=116|49=T1Kauaiblk4|52=20210927-10:08:05.304|56=MA|66=ListID-041321-rodrigo-18735|394=2|68=5|73=5|11=ClOrdID-18736|22=4|38=100000|44=100|48=US06051GEN51|54=1|55=[N/A/]|63=3|67=1|423=1|29726=100.25|453=1|448=T1Kauaiblk4|447=C|452=11|11=ClOrdID-18737|22=4|38=100000|44=101|48=US40434AAB52|54=1|55=[N/A]|63=3|67=2|29726=101.25|11=ClOrdID-18738|22=4|38=130000|44=102|48=US95709TAH32|54=1|55=[N/A/]|63=3|67=1|29726=102.25|453=1|448=T1Kauaiblk4|447=C|452=11|11=ClOrdID-18739|22=4|38=250000|44=103|48=US427866AZ15|54=1|55=[N/A/]|63=3|67=1|29726=103.25|453=1|448=T1Kauaiblk4|447=C|452=11|11=ClOrdID-18740|22=4|38=350000|44=104|48=US29379VAW37|54=1|55=[N/A/]|63=3|67=1|29726=104.25|453=1|448=T1Kauaiblk4|447=C|452=11|10=107|8=FIX.4.4|9=58|35=0|34=117|49=T1Kauaiblk4|52=20210927-10:09:35.943|56=MA|10=181|8=FIX.4.4|9=58|35=0|34=118|49=T1Kauaiblk4|52=20210927-10:11:05.944|56=MA|10=173|8=FIX.4.4|9=715|35=E|34=119|49=T1Kauaiblk4|52=20210927-10:12:00.730|56=MA|66=ListID-041321-rodrigo-18741|394=2|68=5|73=5|11=ClOrdID-18742|22=4|38=100000|44=100|48=US06051GEN51|54=1|55=[N/A/]|63=3|67=1|423=1|29726=100.25|453=1|448=T1Kauaiblk4|447=C|452=11|11=ClOrdID-18743|22=4|38=100000|44=101|48=US40434AAB52|54=1|55=[N/A]|63=3|67=2|29726=101.25|11=ClOrdID-18744|22=4|38=130000|44=102|48=US95709TAH32|54=1|55=[N/A/]|63=3|67=1|29726=102.25|453=1|448=T1Kauaiblk4|447=C|452=11|11=ClOrdID-18745|22=4|38=250000|44=103|48=US427866AZ15|54=1|55=[N/A/]|63=3|67=1|29726=103.25|453=1|448=T1Kauaiblk4|447=C|452=11|11=ClOrdID-18746|22=4|38=350000|44=104|48=US29379VAW37|54=1|55=[N/A/]|63=3|67=1|29726=104.25|453=1|448=T1Kauaiblk4|447=C|452=11|10=094|8=FIX.4.4|9=715|35=E|34=120|49=T1Kauaiblk4|52=20210927-10:12:06.184|56=MA|66=ListID-041321-rodrigo-18747|394=2|68=5|73=5|11=ClOrdID-18748|22=4|38=100000|44=100|48=US06051GEN51|54=1|55=[N/A/]|63=3|67=1|423=1|29726=100.25|453=1|448=T1Kauaiblk4|447=C|452=11|11=ClOrdID-18749|22=4|38=100000|44=101|48=US40434AAB52|54=1|55=[N/A]|63=3|67=2|29726=101.25|11=ClOrdID-18750|22=4|38=130000|44=102|48=US95709TAH32|54=1|55=[N/A/]|63=3|67=1|29726=102.25|453=1|448=T1Kauaiblk4|447=C|452=11|11=ClOrdID-18751|22=4|38=250000|44=103|48=US427866AZ15|54=1|55=[N/A/]|63=3|67=1|29726=103.25|453=1|448=T1Kauaiblk4|447=C|452=11|11=ClOrdID-18752|22=4|38=