8=FIX.4.4|9=81|35=A|34=1|49=MMJBAER|52=20181129-09:08:28.241|56=MA|98=0|108=90|95=8|96=3.0.0rc4|10=036|8=FIX.4.4|9=52|35=0|34=2|49=MMJBAER|52=20181129-09:09:58.266|56=MA|10=117|8=FIX.4.4|9=52|35=0|34=3|49=MMJBAER|52=20181129-09:11:28.266|56=MA|10=108|8=FIX.4.4|9=52|35=0|34=4|49=MMJBAER|52=20181129-09:12:59.262|56=MA|10=110|8=FIX.4.4|9=52|35=0|34=5|49=MMJBAER|52=20181129-09:14:29.267|56=MA|10=115|8=FIX.4.4|9=52|35=0|34=6|49=MMJBAER|52=20181129-09:16:00.257|56=MA|10=106|8=FIX.4.4|9=52|35=0|34=7|49=MMJBAER|52=20181129-09:17:30.257|56=MA|10=111|8=FIX.4.4|9=52|35=0|34=8|49=MMJBAER|52=20181129-09:19:01.261|56=MA|10=107|8=FIX.4.4|9=52|35=5|34=9|49=MMJBAER|52=20181129-09:19:53.265|56=MA|10=124|8=FIX.4.4|9=87|35=A|34=1|49=MMJBAER|52=20190215-15:58:28.568|56=MA|98=0|108=90|95=8|96=3.0.0rc5|141=Y|10=098|