8=FIX.4.4|9=82|35=A|34=1|49=EHABAXUK|52=20190228-10:27:54.007|56=MA|98=0|108=90|95=8|96=3.0.0rc5|10=105|8=FIX.4.4|9=185|35=D|34=2|49=EHABAXUK|52=20190228-10:28:06.340|56=MA|11=MMADJB060219-107|453=1|448=eh_abaxuk|447=C|452=11|55=NA|48=XS0042821321|22=4|54=2|60=20190228-10:28:06.340|38=1000000|40=1|423=1|10=254|8=FIX.4.4|9=53|35=0|34=3|49=EHABAXUK|52=20190228-10:29:37.006|56=MA|10=177|8=FIX.4.4|9=53|35=0|34=4|49=EHABAXUK|52=20190228-10:31:07.006|56=MA|10=168|8=FIX.4.4|9=623|35=E|34=5|49=EHABAXUK|52=20190228-10:31:38.344|56=MA|66=MMAD-FIX44-ListID-071218-108|394=2|68=5|73=5|11=FIX44-List-ClOrdID-109|22=4|38=100000|48=XS0542534192|54=1|55=[N/A/]|67=1|423=1|453=1|448=eh_abaxuk|447=C|452=11|11=FIX44-List-ClOrdID-110|22=4|38=120000|48=FR0013241536|54=1|55=[N/A]|67=2|11=FIX44-List-ClOrdID-111|22=4|38=130000|48=DE000HLB4D56|54=1|55=[N/A/]|67=1|453=1|448=eh_abaxuk|447=C|452=11|11=FIX44-List-ClOrdID-112|22=4|38=250000|48=XS0987936076|54=1|55=[N/A/]|67=1|453=1|448=eh_abaxuk|447=C|452=11|11=FIX44-List-ClOrdID-113|22=4|38=350000|48=XS0401048102|54=1|55=[N/A/]|67=1|453=1|448=eh_abaxuk|447=C|452=11|10=053|8=FIX.4.4|9=53|35=0|34=6|49=EHABAXUK|52=20190228-10:33:09.005|56=MA|10=173|8=FIX.4.4|9=53|35=0|34=7|49=EHABAXUK|52=20190228-10:34:39.005|56=MA|10=178|8=FIX.4.4|9=53|35=0|34=8|49=EHABAXUK|52=20190228-10:36:09.270|56=MA|10=182|8=FIX.4.4|9=53|35=0|34=9|49=EHABAXUK|52=20190228-10:37:40.003|56=MA|10=173|8=FIX.4.4|9=54|35=0|34=10|49=EHABAXUK|52=20190228-10:39:10.003|56=MA|10=213|8=FIX.4.4|9=54|35=0|34=11|49=EHABAXUK|52=20190228-10:40:40.003|56=MA|10=209|8=FIX.4.4|9=54|35=0|34=12|49=EHABAXUK|52=20190228-10:42:10.754|56=MA|10=222|8=FIX.4.4|9=54|35=0|34=13|49=EHABAXUK|52=20190228-10:43:41.001|56=MA|10=213|8=FIX.4.4|9=54|35=0|34=14|49=EHABAXUK|52=20190228-10:45:11.001|56=MA|10=213|8=FIX.4.4|9=54|35=0|34=15|49=EHABAXUK|52=20190228-10:46:41.001|56=MA|10=218|8=FIX.4.4|9=54|35=0|34=16|49=EHABAXUK|52=20190228-10:48:12.000|56=MA|10=218|8=FIX.4.4|9=54|35=0|34=17|49=EHABAXUK|52=20190228-10:49:42.999|56=MA|10=250|8=FIX.4.4|9=54|35=0|34=18|49=EHABAXUK|52=20190228-10:51:13.000|56=MA|10=215|8=FIX.4.4|9=54|35=0|34=19|49=EHABAXUK|52=20190228-10:52:43.225|56=MA|10=229|8=FIX.4.4|9=54|35=0|34=20|49=EHABAXUK|52=20190228-10:54:13.999|56=MA|10=238|8=FIX.4.4|9=54|35=0|34=21|49=EHABAXUK|52=20190228-10:55:44.997|56=MA|10=242|8=FIX.4.4|9=54|35=0|34=22|49=EHABAXUK|52=20190228-10:57:14.997|56=MA|10=242|8=FIX.4.4|9=54|35=0|34=23|49=EHABAXUK|52=20190228-10:58:44.998|56=MA|10=248|8=FIX.4.4|9=54|35=0|34=24|49=EHABAXUK|52=20190228-11:00:15.997|56=MA|10=234|8=FIX.4.4|9=54|35=0|34=25|49=EHABAXUK|52=20190228-11:01:46.997|56=MA|10=240|8=FIX.4.4|9=54|35=0|34=26|49=EHABAXUK|52=20190228-11:03:17.084|56=MA|10=228|8=FIX.4.4|9=54|35=0|34=27|49=EHABAXUK|52=20190228-11:04:47.131|56=MA|10=226|8=FIX.4.4|9=54|35=0|34=28|49=EHABAXUK|52=20190228-11:06:17.995|56=MA|10=244|8=FIX.4.4|9=54|35=0|34=29|49=EHABAXUK|52=20190228-11:07:47.995|56=MA|10=249|8=FIX.4.4|9=54|35=0|34=30|49=EHABAXUK|52=20190228-11:09:18.007|56=MA|10=225|8=FIX.4.4|9=54|35=0|34=31|49=EHABAXUK|52=20190228-11:10:48.139|56=MA|10=227|8=FIX.4.4|9=54|35=0|34=32|49=EHABAXUK|52=20190228-11:12:18.993|56=MA|10=235|8=FIX.4.4|9=54|35=0|34=33|49=EHABAXUK|52=20190228-11:13:49.146|56=MA|10=231|8=FIX.4.4|9=54|35=0|34=34|49=EHABAXUK|52=20190228-11:15:19.189|56=MA|10=238|8=FIX.4.4|9=54|35=0|34=35|49=EHABAXUK|52=20190228-11:16:49.992|56=MA|10=245|8=FIX.4.4|9=54|35=0|34=36|49=EHABAXUK|52=20190228-11:18:20.221|56=MA|10=222|8=FIX.4.4|9=54|35=0|34=37|49=EHABAXUK|52=20190228-11:19:50.990|56=MA|10=240|8=FIX.4.4|9=54|35=0|34=38|49=EHABAXUK|52=20190228-11:21:20.991|56=MA|10=232|8=FIX.4.4|9=54|35=0|34=39|49=EHABAXUK|52=20190228-11:22:51.072|56=MA|10=228|8=FIX.4.4|9=54|35=0|34=40|49=EHABAXUK|52=20190228-11:24:21.988|56=MA|10=235|8=FIX.4.4|9=54|35=0|34=41|49=EHABAXUK|52=20190228-11:25:51.988|56=MA|10=240|8=FIX.4.4|9=54|35=0|34=42|49=EHABAXUK|52=20190228-11:27:22.224|56=MA|10=224|8=FIX.4.4|9=54|35=0|34=43|49=EHABAXUK|52=20190228-11:28:52.986|56=MA|10=244|8=FIX.4.4|9=54|35=0|34=44|49=EHABAXUK|52=20190228-11:30:22.986|56=MA|10=235|8=FIX.4.4|9=54|35=0|34=45|49=EHABAXUK|52=20190228-11:31:52.987|56=MA|10=241|8=FIX.4.4|9=54|35=0|34=46|49=EHABAXUK|52=20190228-11:33:23.986|56=MA|10=241|8=FIX.4.4|9=54|35=0|34=47|49=EHABAXUK|52=20190228-11:34:54.210|56=MA|10=227|8=FIX.4.4|9=54|35=0|34=48|49=EHABAXUK|52=20190228-11:36:24.214|56=MA|10=231|8=FIX.4.4|9=54|35=0|34=49|49=EHABAXUK|52=20190228-11:37:54.983|56=MA|10=249|8=FIX.4.4|9=54|35=0|34=50|49=EHABAXUK|52=20190228-11:39:24.983|56=MA|10=240|8=FIX.4.4|9=54|35=0|34=51|49=EHABAXUK|52=20190228-11:40:54.983|56=MA|10=236|8=FIX.4.4|9=54|35=0|34=52|49=EHABAXUK|52=20190228-11:42:25.141|56=MA|10=223|8=FIX.4.4|9=54|35=0|34=53|49=EHABAXUK|52=20190228-11:43:55.981|56=MA|10=240|8=FIX.4.4|9=54|35=0|34=54|49=EHABAXUK|52=20190228-11:45:25.981|56=MA|10=240|8=FIX.4.4|9=54|35=0|34=55|49=EHABAXUK|52=20190228-11:46:56.078|56=MA|10=243|8=FIX.4.4|9=54|35=0|34=56|49=EHABAXUK|52=20190228-11:48:26.980|56=MA|10=245|8=FIX.4.4|9=54|35=0|34=57|49=EHABAXUK|52=20190228-11:49:57.069|56=MA|10=249|8=FIX.4.4|9=54|35=0|34=58|49=EHABAXUK|52=20190228-11:51:27.979|56=MA|10=250|8=FIX.4.4|9=54|35=0|34=59|49=EHABAXUK|52=20190228-11:52:58.213|56=MA|10=237|8=FIX.4.4|9=54|35=0|34=60|49=EHABAXUK|52=20190228-11:54:28.977|56=MA|10=245|8=FIX.4.4|9=54|35=0|34=61|49=EHABAXUK|52=20190228-11:55:58.978|56=MA|10=251|8=FIX.4.4|9=54|35=0|34=62|49=EHABAXUK|52=20190228-11:57:28.978|56=MA|10=251|8=FIX.4.4|9=54|35=0|34=63|49=EHABAXUK|52=20190228-11:58:58.978|56=MA|10=000|8=FIX.4.4|9=54|35=0|34=64|49=EHABAXUK|52=20190228-12:00:29.978|56=MA|10=243|8=FIX.4.4|9=54|35=0|34=65|49=EHABAXUK|52=20190228-12:02:00.976|56=MA|10=233|8=FIX.4.4|9=54|35=0|34=66|49=EHABAXUK|52=20190228-12:03:30.976|56=MA|10=238|8=FIX.4.4|9=54|35=0|34=67|49=EHABAXUK|52=20190228-12:05:00.976|56=MA|10=238|8=FIX.4.4|9=54|35=0|34=68|49=EHABAXUK|52=20190228-12:06:31.974|56=MA|10=242|8=FIX.4.4|9=54|35=0|34=69|49=EHABAXUK|52=20190228-12:08:01.974|56=MA|10=242|8=FIX.4.4|9=54|35=0|34=70|49=EHABAXUK|52=20190228-12:09:31.974|56=MA|10=238|8=FIX.4.4|9=54|35=0|34=71|49=EHABAXUK|52=20190228-12:11:01.974|56=MA|10=229|8=FIX.4.4|9=54|35=0|34=72|49=EHABAXUK|52=20190228-12:12:32.249|56=MA|10=230|8=FIX.4.4|9=54|35=0|34=73|49=EHABAXUK|52=20190228-12:14:02.973|56=MA|10=234|8=FIX.4.4|9=54|35=0|34=74|49=EHABAXUK|52=20190228-12:15:33.065|56=MA|10=232|8=FIX.4.4|9=54|35=0|34=75|49=EHABAXUK|52=20190228-12:17:03.216|56=MA|10=230|8=FIX.4.4|9=54|35=0|34=76|49=EHABAXUK|52=20190228-12:18:33.970|56=MA|10=242|8=FIX.4.4|9=54|35=0|34=77|49=EHABAXUK|52=20190228-12:20:03.970|56=MA|10=233|8=FIX.4.4|9=54|35=0|34=78|49=EHABAXUK|52=20190228-12:21:33.970|56=MA|10=238|8=FIX.4.4|9=54|35=0|34=79|49=EHABAXUK|52=20190228-12:23:04.210|56=MA|10=226|8=FIX.4.4|9=54|35=0|34=80|49=EHABAXUK|52=20190228-12:24:34.968|56=MA|10=242|8=FIX.4.4|9=54|35=0|34=81|49=EHABAXUK|52=20190228-12:26:04.968|56=MA|10=242|8=FIX.4.4|9=54|35=0|34=82|49=EHABAXUK|52=20190228-12:27:35.059|56=MA|10=239|8=FIX.4.4|9=54|35=0|34=83|49=EHABAXUK|52=20190228-12:29:05.096|56=MA|10=240|8=FIX.4.4|9=54|35=0|34=84|49=EHABAXUK|52=20190228-12:30:35.967|56=MA|10=243|8=FIX.4.4|9=54|35=0|34=85|49=EHABAXUK|52=20190228-12:32:06.205|56=MA|10=229|8=FIX.4.4|9=54|35=0|34=86|49=EHABAXUK|52=20190228-12:33:36.216|56=MA|10=236|8=FIX.4.4|9=54|35=0|34=87|49=EHABAXUK|52=20190228-12:35:06.965|56=MA|10=247|8=FIX.4.4|9=54|35=0|34=88|49=EHABAXUK|52=20190228-12:36:37.211|56=MA|10=237|8=FIX.4.4|9=54|35=0|34=89|49=EHABAXUK|52=20190228-12:38:07.965|56=MA|10=253|8=FIX.4.4|9=54|35=0|34=90|49=EHABAXUK|52=20190228-12:39:38.095|56=MA|10=244|8=FIX.4.4|9=54|35=0|34=91|49=EHABAXUK|52=20190228-12:41:08.222|56=MA|10=227|8=FIX.4.4|9=54|35=0|34=92|49=EHABAXUK|52=20190228-12:42:38.962|56=MA|10=243|8=FIX.4.4|9=54|35=0|34=93|49=EHABAXUK|52=20190228-12:44:08.962|56=MA|10=243|8=FIX.4.4|9=54|35=0|34=94|49=EHABAXUK|52=20190228-12:45:39.192|56=MA|10=244|8=FIX.4.4|9=54|35=0|34=95|49=EHABAXUK|52=20190228-12:47:09.199|56=MA|10=251|8=FIX.4.4|9=54|35=0|34=96|49=EHABAXUK|52=20190228-12:48:39.960|56=MA|10=252|8=FIX.4.4|9=54|35=0|34=97|49=EHABAXUK|52=20190228-12:50:10.228|56=MA|10=232|8=FIX.4.4|9=54|35=0|34=98|49=EHABAXUK|52=20190228-12:51:40.960|56=MA|10=240|8=FIX.4.4|9=54|35=0|34=99|49=EHABAXUK|52=20190228-12:53:11.056|56=MA|10=237|8=FIX.4.4|9=55|35=0|34=100|49=EHABAXUK|52=20190228-12:54:41.958|56=MA|10=028|8=FIX.4.4|9=55|35=0|34=101|49=EHABAXUK|52=20190228-12:56:11.958|56=MA|10=028|8=FIX.4.4|9=55|35=0|34=102|49=EHABAXUK|52=20190228-12:57:41.959|56=MA|10=034|8=FIX.4.4|9=55|35=0|34=103|49=EHABAXUK|52=20190228-12:59:12.213|56=MA|10=018|8=FIX.4.4|9=55|35=0|34=104|49=EHABAXUK|52=20190228-13:00:42.957|56=MA|10=024|8=FIX.4.4|9=55|35=0|34=105|49=EHABAXUK|52=20190228-13:02:13.057|56=MA|10=016|8=FIX.4.4|9=55|35=0|34=106|49=EHABAXUK|52=20190228-13:03:43.079|56=MA|10=025|8=FIX.4.4|9=55|35=0|34=107|49=EHABAXUK|52=20190228-13:05:13.237|56=MA|10=021|8=FIX.4.4|9=187|35=D|34=108|49=EHABAXUK|52=20190228-13:05:40.869|56=MA|11=MMADJB060219-115|453=1|448=eh_abaxuk|447=C|452=11|55=NA|48=XS0042821321|22=4|54=2|60=20190228-13:05:40.869|38=1000000|40=1|423=1|10=126|8=FIX.4.4|9=55|35=0|34=109|49=EHABAXUK|52=20190228-13:07:10.954|56=MA|10=028|8=FIX.4.4|9=55|35=0|34=110|49=EHABAXUK|52=20190228-13:08:41.059|56=MA|10=021|8=FIX.4.4|9=55|35=0|34=111|49=EHABAXUK|52=20190228-13:10:11.172|56=MA|10=008|8=FIX.4.4|9=55|35=0|34=112|49=EHABAXUK|52=20190228-13:11:41.954|56=MA|10=021|8=FIX.4.4|9=55|35=0|34=113|49=EHABAXUK|52=20190228-13:13:12.212|56=MA|10=009|8=FIX.4.4|9=55|35=0|34=114|49=EHABAXUK|52=20190228-13:14:42.953|56=MA|10=026|8=FIX.4.4|9=55|35=0|34=115|49=EHABAXUK|52=20190228-13:16:13.113|56=MA|10=015|8=FIX.4.4|9=55|35=0|34=116|49=EHABAXUK|52=20190228-13:17:43.951|56=MA|10=030|8=FIX.4.4|9=55|35=0|34=117|49=EHABAXUK|52=20190228-13:19:14.202|56=MA|10=020|8=FIX.4.4|9=55|35=0|34=118|49=EHABAXUK|52=20190228-13:20:44.211|56=MA|10=016|8=FIX.4.4|9=55|35=0|34=119|49=EHABAXUK|52=20190228-13:22:14.950|56=MA|10=026|8=FIX.4.4|9=55|35=0|34=120|49=EHABAXUK|52=20190228-13:23:45.059|56=MA|10=023|8=FIX.4.4|9=55|35=0|34=121|49=EHABAXUK|52=20190228-13:25:15.214|56=MA|10=016|8=FIX.4.4|9=55|35=0|34=122|49=EHABAXUK|52=20190228-13:26:45.948|56=MA|10=035|8=FIX.4.4|9=55|35=0|34=123|49=EHABAXUK|52=20190228-13:28:16.097|56=MA|10=031|8=FIX.4.4|9=55|35=0|34=124|49=EHABAXUK|52=20190228-13:29:46.218|56=MA|10=031|8=FIX.4.4|9=55|35=0|34=125|49=EHABAXUK|52=20190228-13:31:16.946|56=MA|10=030|8=FIX.4.4|9=55|35=0|34=126|49=EHABAXUK|52=20190228-13:32:46.946|56=MA|10=035|8=FIX.4.4|9=55|35=0|34=127|49=EHABAXUK|52=20190228-13:34:17.944|56=MA|10=034|8=FIX.4.4|9=55|35=0|34=128|49=EHABAXUK|52=20190228-13:35:47.944|56=MA|10=039|8=FIX.4.4|9=55|35=0|34=129|49=EHABAXUK|52=20190228-13:37:17.944|56=MA|10=039|8=FIX.4.4|9=55|35=0|34=130|49=EHABAXUK|52=20190228-13:38:48.225|56=MA|10=028|8=FIX.4.4|9=55|35=0|34=131|49=EHABAXUK|52=20190228-13:40:18.942|56=MA|10=025|8=FIX.4.4|9=55|35=0|34=132|49=EHABAXUK|52=20190228-13:41:48.942|56=MA|10=030|8=FIX.4.4|9=55|35=0|34=133|49=EHABAXUK|52=20190228-13:43:18.942|56=MA|10=030|8=FIX.4.4|9=55|35=0|34=134|49=EHABAXUK|52=20190228-13:44:49.942|56=MA|10=036|8=FIX.4.4|9=55|35=0|34=135|49=EHABAXUK|52=20190228-13:46:20.208|56=MA|10=023|8=FIX.4.4|9=55|35=0|34=136|49=EHABAXUK|52=20190228-13:47:50.215|56=MA|10=026|8=FIX.4.4|9=55|35=0|34=137|49=EHABAXUK|52=20190228-13:49:20.218|56=MA|10=029|8=FIX.4.4|9=55|35=0|34=138|49=EHABAXUK|52=20190228-13:50:50.227|56=MA|10=025|8=FIX.4.4|9=55|35=0|34=139|49=EHABAXUK|52=20190228-13:52:20.243|56=MA|10=023|8=FIX.4.4|9=55|35=0|34=140|49=EHABAXUK|52=20190228-13:53:50.938|56=MA|10=030|8=FIX.4.4|9=55|35=0|34=141|49=EHABAXUK|52=20190228-13:55:21.124|56=MA|10=018|8=FIX.4.4|9=55|35=0|34=142|49=EHABAXUK|52=20190228-13:56:51.937|56=MA|10=035|8=FIX.4.4|9=55|35=0|34=143|49=EHABAXUK|52=20190228-13:58:21.938|56=MA|10=036|8=FIX.4.4|9=55|35=0|34=144|49=EHABAXUK|52=20190228-13:59:52.223|56=MA|10=029|8=FIX.4.4|9=55|35=0|34=145|49=EHABAXUK|52=20190228-14:01:22.936|56=MA|10=026|8=FIX.4.4|9=55|35=0|34=146|49=EHABAXUK|52=20190228-14:02:52.936|56=MA|10=031|8=FIX.4.4|9=55|35=0|34=147|49=EHABAXUK|52=20190228-14:04:22.936|56=MA|10=031|8=FIX.4.4|9=55|35=0|34=148|49=EHABAXUK|52=20190228-14:05:53.935|56=MA|10=036|8=FIX.4.4|9=55|35=0|34=149|49=EHABAXUK|52=20190228-14:07:24.934|56=MA|10=036|8=FIX.4.4|9=55|35=0|34=150|49=EHABAXUK|52=20190228-14:08:55.056|56=MA|10=028|8=FIX.4.4|9=55|35=0|34=151|49=EHABAXUK|52=20190228-14:10:25.098|56=MA|10=025|8=FIX.4.4|9=55|35=0|34=152|49=EHABAXUK|52=20190228-14:11:55.934|56=MA|10=029|8=FIX.4.4|9=55|35=0|34=153|49=EHABAXUK|52=20190228-14:13:26.210|56=MA|10=017|8=FIX.4.4|9=55|35=0|34=154|49=EHABAXUK|52=20190228-14:14:56.213|56=MA|10=025|8=FIX.4.4|9=55|35=0|34=155|49=EHABAXUK|52=20190228-14:16:26.931|56=MA|10=032|8=FIX.4.4|9=55|35=0|34=156|49=EHABAXUK|52=20190228-14:17:56.931|56=MA|10=037|8=FIX.4.4|9=55|35=0|34=157|49=EHABAXUK|52=20190228-14:19:27.209|56=MA|10=036|8=FIX.4.4|9=55|35=0|34=158|49=EHABAXUK|52=20190228-14:20:57.220|56=MA|10=025|8=FIX.4.4|9=55|35=0|34=159|49=EHABAXUK|52=20190228-14:22:27.929|56=MA|10=041|8=FIX.4.4|9=55|35=0|34=160|49=EHABAXUK|52=20190228-14:23:57.929|56=MA|10=037|8=FIX.4.4|9=55|35=0|34=161|49=EHABAXUK|52=20190228-14:25:28.211|56=MA|10=022|8=FIX.4.4|9=55|35=0|34=162|49=EHABAXUK|52=20190228-14:26:58.927|56=MA|10=041|8=FIX.4.4|9=55|35=0|34=163|49=EHABAXUK|52=20190228-14:28:28.927|56=MA|10=041|8=FIX.4.4|9=55|35=0|34=164|49=EHABAXUK|52=20190228-14:29:59.927|56=MA|10=047|8=FIX.4.4|9=55|35=0|34=165|49=EHABAXUK|52=20190228-14:31:30.226|56=MA|10=022|8=FIX.4.4|9=55|35=0|34=166|49=EHABAXUK|52=20190228-14:33:00.238|56=MA|10=025|8=FIX.4.4|9=55|35=0|34=167|49=EHABAXUK|52=20190228-14:34:30.924|56=MA|10=032|8=FIX.4.4|9=55|35=0|34=168|49=EHABAXUK|52=20190228-14:36:01.053|56=MA|10=026|8=FIX.4.4|9=55|35=0|34=169|49=EHABAXUK|52=20190228-14:37:31.057|56=MA|10=035|8=FIX.4.4|9=55|35=0|34=170|49=EHABAXUK|52=20190228-14:39:01.078|56=MA|10=029|8=FIX.4.4|9=55|35=0|34=171|49=EHABAXUK|52=20190228-14:40:31.923|56=MA|10=024|8=FIX.4.4|9=55|35=0|34=172|49=EHABAXUK|52=20190228-14:42:02.218|56=MA|10=022|8=FIX.4.4|9=55|35=0|34=173|49=EHABAXUK|52=20190228-14:43:32.921|56=MA|10=028|8=FIX.4.4|9=55|35=0|34=174|49=EHABAXUK|52=20190228-14:45:02.921|56=MA|10=028|8=FIX.4.4|9=55|35=0|34=175|49=EHABAXUK|52=20190228-14:46:32.921|56=MA|10=033|8=FIX.4.4|9=55|35=0|34=176|49=EHABAXUK|52=20190228-14:48:03.920|56=MA|10=033|8=FIX.4.4|9=55|35=0|34=177|49=EHABAXUK|52=20190228-14:49:33.920|56=MA|10=038|8=FIX.4.4|9=55|35=0|34=178|49=EHABAXUK|52=20190228-14:51:04.918|56=MA|10=037|8=FIX.4.4|9=55|35=0|34=179|49=EHABAXUK|52=20190228-14:52:34.918|56=MA|10=042|8=FIX.4.4|9=55|35=0|34=180|49=EHABAXUK|52=20190228-14:54:04.918|56=MA|10=033|8=FIX.4.4|9=55|35=0|34=181|49=EHABAXUK|52=20190228-14:55:35.917|56=MA|10=038|8=FIX.4.4|9=55|35=0|34=182|49=EHABAXUK|52=20190228-14:57:05.918|56=MA|10=039|8=FIX.4.4|9=55|35=0|34=183|49=EHABAXUK|52=20190228-14:58:36.917|56=MA|10=044|8=FIX.4.4|9=55|35=0|34=184|49=EHABAXUK|52=20190228-15:00:07.916|56=MA|10=030|8=FIX.4.4|9=55|35=0|34=185|49=EHABAXUK|52=20190228-15:01:37.916|56=MA|10=035|8=FIX.4.4|9=55|35=0|34=186|49=EHABAXUK|52=20190228-15:03:07.916|56=MA|10=035|8=FIX.4.4|9=55|35=0|34=187|49=EHABAXUK|52=20190228-15:04:38.916|56=MA|10=041|8=FIX.4.4|9=55|35=0|34=188|49=EHABAXUK|52=20190228-15:06:09.914|56=MA|10=040|8=FIX.4.4|9=55|35=0|34=189|49=EHABAXUK|52=20190228-15:07:39.914|56=MA|10=045|8=FIX.4.4|9=55|35=0|34=190|49=EHABAXUK|52=20190228-15:09:09.914|56=MA|10=036|8=FIX.4.4|9=55|35=0|34=191|49=EHABAXUK|52=20190228-15:10:40.913|56=MA|10=023|8=FIX.4.4|9=55|35=0|34=192|49=EHABAXUK|52=20190228-15:12:11.913|56=MA|10=024|8=FIX.4.4|9=55|35=0|34=193|49=EHABAXUK|52=20190228-15:13:42.912|56=MA|10=029|8=FIX.4.4|9=55|35=0|34=194|49=EHABAXUK|52=20190228-15:15:13.911|56=MA|10=029|8=FIX.4.4|9=55|35=0|34=195|49=EHABAXUK|52=20190228-15:16:43.911|56=MA|10=034|8=FIX.4.4|9=55|35=0|34=196|49=EHABAXUK|52=20190228-15:18:14.910|56=MA|10=034|8=FIX.4.4|9=55|35=0|34=197|49=EHABAXUK|52=20190228-15:19:44.910|56=MA|10=039|8=FIX.4.4|9=55|35=0|34=198|49=EHABAXUK|52=20190228-15:21:15.909|56=MA|10=039|8=FIX.4.4|9=55|35=0|34=199|49=EHABAXUK|52=20190228-15:22:46.908|56=MA|10=044|8=FIX.4.4|9=55|35=0|34=200|49=EHABAXUK|52=20190228-15:24:16.908|56=MA|10=026|8=FIX.4.4|9=55|35=0|34=201|49=EHABAXUK|52=20190228-15:25:46.908|56=MA|10=031|8=FIX.4.4|9=55|35=0|34=202|49=EHABAXUK|52=20190228-15:27:17.908|56=MA|10=032|8=FIX.4.4|9=55|35=0|34=203|49=EHABAXUK|52=20190228-15:28:48.907|56=MA|10=037|8=FIX.4.4|9=55|35=0|34=204|49=EHABAXUK|52=20190228-15:30:18.907|56=MA|10=028|8=FIX.4.4|9=55|35=0|34=205|49=EHABAXUK|52=20190228-15:31:49.905|56=MA|10=032|8=FIX.4.4|9=55|35=0|34=206|49=EHABAXUK|52=20190228-15:33:19.905|56=MA|10=032|8=FIX.4.4|9=55|35=0|34=207|49=EHABAXUK|52=20190228-15:34:50.905|56=MA|10=029|8=FIX.4.4|9=55|35=0|34=208|49=EHABAXUK|52=20190228-15:36:21.904|56=MA|10=029|8=FIX.4.4|9=55|35=0|34=209|49=EHABAXUK|52=20190228-15:37:51.904|56=MA|10=034|8=FIX.4.4|9=55|35=0|34=210|49=EHABAXUK|52=20190228-15:39:22.902|56=MA|10=024|8=FIX.4.4|9=55|35=0|34=211|49=EHABAXUK|52=20190228-15:40:52.902|56=MA|10=020|8=FIX.4.4|9=55|35=0|34=212|49=EHABAXUK|52=20190228-15:42:23.901|56=MA|10=020|8=FIX.4.4|9=55|35=0|34=213|49=EHABAXUK|52=20190228-15:43:53.901|56=MA|10=025|8=FIX.4.4|9=55|35=0|34=214|49=EHABAXUK|52=20190228-15:45:23.901|56=MA|10=025|8=FIX.4.4|9=55|35=0|34=215|49=EHABAXUK|52=20190228-15:46:53.901|56=MA|10=030|8=FIX.4.4|9=55|35=0|34=216|49=EHABAXUK|52=20190228-15:48:24.899|56=MA|10=047|8=FIX.4.4|9=55|35=0|34=217|49=EHABAXUK|52=20190228-15:49:55.899|56=MA|10=053|8=FIX.4.4|9=55|35=0|34=218|49=EHABAXUK|52=20190228-15:51:26.898|56=MA|10=044|8=FIX.4.4|9=55|35=0|34=219|49=EHABAXUK|52=20190228-15:52:57.899|56=MA|10=051|8=FIX.4.4|9=55|35=0|34=220|49=EHABAXUK|52=20190228-15:54:28.897|56=MA|10=041|8=FIX.4.4|9=55|35=0|34=221|49=EHABAXUK|52=20190228-15:55:58.897|56=MA|10=046|8=FIX.4.4|9=55|35=0|34=222|49=EHABAXUK|52=20190228-15:57:29.896|56=MA|10=046|8=FIX.4.4|9=55|35=0|34=223|49=EHABAXUK|52=20190228-15:59:00.896|56=MA|10=038|8=FIX.4.4|9=55|35=0|34=224|49=EHABAXUK|52=20190228-16:00:31.895|56=MA|10=029|8=FIX.4.4|9=55|35=0|34=225|49=EHABAXUK|52=20190228-16:02:01.895|56=MA|10=029|8=FIX.4.4|9=55|35=0|34=226|49=EHABAXUK|52=20190228-16:03:31.896|56=MA|10=035|8=FIX.4.4|9=55|35=0|34=227|49=EHABAXUK|52=20190228-16:05:02.895|56=MA|10=035|8=FIX.4.4|9=55|35=0|34=228|49=EHABAXUK|52=20190228-16:06:32.895|56=MA|10=040|8=FIX.4.4|9=55|35=0|34=229|49=EHABAXUK|52=20190228-16:08:03.894|56=MA|10=040|8=FIX.4.4|9=55|35=0|34=230|49=EHABAXUK|52=20190228-16:09:34.894|56=MA|10=037|8=FIX.4.4|9=55|35=0|34=231|49=EHABAXUK|52=20190228-16:11:04.894|56=MA|10=028|8=FIX.4.4|9=55|35=0|34=232|49=EHABAXUK|52=20190228-16:12:35.892|56=MA|10=032|8=FIX.4.4|9=55|35=0|34=233|49=EHABAXUK|52=20190228-16:14:05.892|56=MA|10=032|8=FIX.4.4|9=55|35=0|34=234|49=EHABAXUK|52=20190228-16:15:36.891|56=MA|10=037|8=FIX.4.4|9=55|35=0|34=235|49=EHABAXUK|52=20190228-16:17:07.891|56=MA|10=038|8=FIX.4.4|9=55|35=0|34=236|49=EHABAXUK|52=20190228-16:18:38.890|56=MA|10=043|8=FIX.4.4|9=55|35=0|34=237|49=EHABAXUK|52=20190228-16:20:08.890|56=MA|10=034|8=FIX.4.4|9=55|35=0|34=238|49=EHABAXUK|52=20190228-16:21:38.890|56=MA|10=039|8=FIX.4.4|9=55|35=0|34=239|49=EHABAXUK|52=20190228-16:23:09.888|56=MA|10=047|8=FIX.4.4|9=55|35=0|34=240|49=EHABAXUK|52=20190228-16:24:40.888|56=MA|10=035|8=FIX.4.4|9=55|35=0|34=241|49=EHABAXUK|52=20190228-16:26:11.887|56=MA|10=035|8=FIX.4.4|9=55|35=0|34=242|49=EHABAXUK|52=20190228-16:27:41.887|56=MA|10=040|8=FIX.4.4|9=55|35=0|34=243|49=EHABAXUK|52=20190228-16:29:12.887|56=MA|10=041|8=FIX.4.4|9=55|35=0|34=244|49=EHABAXUK|52=20190228-16:30:43.887|56=MA|10=038|8=FIX.4.4|9=55|35=0|34=245|49=EHABAXUK|52=20190228-16:32:14.885|56=MA|10=037|8=FIX.4.4|9=55|35=0|34=246|49=EHABAXUK|52=20190228-16:33:44.885|56=MA|10=042|8=FIX.4.4|9=55|35=0|34=247|49=EHABAXUK|52=20190228-16:35:15.884|56=MA|10=042|8=FIX.4.4|9=55|35=0|34=248|49=EHABAXUK|52=20190228-16:36:46.883|56=MA|10=047|8=FIX.4.4|9=55|35=0|34=249|49=EHABAXUK|52=20190228-16:38:16.883|56=MA|10=047|8=FIX.4.4|9=55|35=0|34=250|49=EHABAXUK|52=20190228-16:39:47.882|56=MA|10=043|8=FIX.4.4|9=55|35=0|34=251|49=EHABAXUK|52=20190228-16:41:18.881|56=MA|10=034|8=FIX.4.4|9=55|35=0|34=252|49=EHABAXUK|52=20190228-16:42:48.881|56=MA|10=039|8=FIX.4.4|9=55|35=0|34=253|49=EHABAXUK|52=20190228-16:44:19.881|56=MA|10=040|8=FIX.4.4|9=55|35=0|34=254|49=EHABAXUK|52=20190228-16:45:50.881|56=MA|10=037|8=FIX.4.4|9=55|35=0|34=255|49=EHABAXUK|52=20190228-16:47:21.880|56=MA|10=037|8=FIX.4.4|9=55|35=0|34=256|49=EHABAXUK|52=20190228-16:48:52.879|56=MA|10=051|8=FIX.4.4|9=55|35=0|34=257|49=EHABAXUK|52=20190228-16:50:23.044|56=MA|10=027|8=FIX.4.4|9=55|35=0|34=258|49=EHABAXUK|52=20190228-16:51:53.213|56=MA|10=030|8=FIX.4.4|9=55|35=0|34=259|49=EHABAXUK|52=20190228-16:53:23.213|56=MA|10=030|8=FIX.4.4|9=55|35=0|34=260|49=EHABAXUK|52=20190228-16:54:53.876|56=MA|10=041|8=FIX.4.4|9=55|35=0|34=261|49=EHABAXUK|52=20190228-16:56:23.876|56=MA|10=041|8=FIX.4.4|9=55|35=0|34=262|49=EHABAXUK|52=20190228-16:57:54.876|56=MA|10=047|8=FIX.4.4|9=55|35=0|34=263|49=EHABAXUK|52=20190228-16:59:25.047|56=MA|10=038|8=FIX.4.4|9=55|35=0|34=264|49=EHABAXUK|52=20190228-17:00:55.132|56=MA|10=024|8=FIX.4.4|9=55|35=0|34=265|49=EHABAXUK|52=20190228-17:02:25.204|56=MA|10=024|8=FIX.4.4|9=55|35=0|34=266|49=EHABAXUK|52=20190228-17:03:55.876|56=MA|10=044|8=FIX.4.4|9=55|35=0|34=267|49=EHABAXUK|52=20190228-17:05:26.128|56=MA|10=035|8=FIX.4.4|9=55|35=0|34=268|49=EHABAXUK|52=20190228-17:06:56.201|56=MA|10=032|8=FIX.4.4|9=55|35=0|34=269|49=EHABAXUK|52=20190228-17:08:26.874|56=MA|10=048|8=FIX.4.4|9=55|35=0|34=270|49=EHABAXUK|52=20190228-17:09:57.199|56=MA|10=045|8=FIX.4.4|9=55|35=0|34=271|49=EHABAXUK|52=20190228-17:11:27.872|56=MA|10=034|8=FIX.4.4|9=55|35=0|34=272|49=EHABAXUK|52=20190228-17:12:57.872|56=MA|10=039|8=FIX.4.4|9=55|35=0|34=273|49=EHABAXUK|52=20190228-17:14:27.874|56=MA|10=041|8=FIX.4.4|9=55|35=0|34=274|49=EHABAXUK|52=20190228-17:15:57.878|56=MA|10=050|8=FIX.4.4|9=55|35=0|34=275|49=EHABAXUK|52=20190228-17:17:27.883|56=MA|10=046|8=FIX.4.4|9=55|35=0|34=276|49=EHABAXUK|52=20190228-17:18:57.885|56=MA|10=053|8=FIX.4.4|9=55|35=0|34=277|49=EHABAXUK|52=20190228-17:20:27.887|56=MA|10=046|8=FIX.4.4|9=55|35=0|34=278|49=EHABAXUK|52=20190228-17:21:58.885|56=MA|10=050|8=FIX.4.4|9=55|35=0|34=279|49=EHABAXUK|52=20190228-17:23:28.885|56=MA|10=050|8=FIX.4.4|9=55|35=0|34=280|49=EHABAXUK|52=20190228-17:24:58.885|56=MA|10=046|8=FIX.4.4|9=55|35=0|34=281|49=EHABAXUK|52=20190228-17:26:28.886|56=MA|10=047|8=FIX.4.4|9=55|35=0|34=282|49=EHABAXUK|52=20190228-17:27:59.883|56=MA|10=050|8=FIX.4.4|9=55|35=0|34=283|49=EHABAXUK|52=20190228-17:29:29.883|56=MA|10=050|8=FIX.4.4|9=55|35=0|34=284|49=EHABAXUK|52=20190228-17:30:59.885|56=MA|10=048|8=FIX.4.4|9=55|35=0|34=285|49=EHABAXUK|52=20190228-17:32:29.888|56=MA|10=051|8=FIX.4.4|9=55|35=0|34=286|49=EHABAXUK|52=20190228-17:33:59.892|56=MA|10=051|8=FIX.4.4|9=55|35=0|34=287|49=EHABAXUK|52=20190228-17:35:29.895|56=MA|10=054|8=FIX.4.4|9=55|35=0|34=288|49=EHABAXUK|52=20190228-17:37:00.894|56=MA|10=045|8=FIX.4.4|9=55|35=0|34=289|49=EHABAXUK|52=20190228-17:38:30.894|56=MA|10=050|8=FIX.4.4|9=55|35=0|34=290|49=EHABAXUK|52=20190228-17:40:00.894|56=MA|10=032|8=FIX.4.4|9=55|35=0|34=291|49=EHABAXUK|52=20190228-17:41:30.894|56=MA|10=037|8=FIX.4.4|9=55|35=0|34=292|49=EHABAXUK|52=20190228-17:43:00.894|56=MA|10=037|8=FIX.4.4|9=55|35=0|34=293|49=EHABAXUK|52=20190228-17:44:31.893|56=MA|10=042|8=FIX.4.4|9=55|35=0|34=294|49=EHABAXUK|52=20190228-17:46:01.894|56=MA|10=043|8=FIX.4.4|9=55|35=0|34=295|49=EHABAXUK|52=20190228-17:47:32.892|56=MA|10=047|8=FIX.4.4|9=55|35=0|34=296|49=EHABAXUK|52=20190228-17:49:03.891|56=MA|10=047|8=FIX.4.4|9=55|35=0|34=297|49=EHABAXUK|52=20190228-17:50:33.891|56=MA|10=043|8=FIX.4.4|9=55|35=0|34=298|49=EHABAXUK|52=20190228-17:52:04.890|56=MA|10=043|8=FIX.4.4|9=55|35=0|34=299|49=EHABAXUK|52=20190228-17:53:34.890|56=MA|10=048|8=FIX.4.4|9=55|35=0|34=300|49=EHABAXUK|52=20190228-17:55:04.890|56=MA|10=030|8=FIX.4.4|9=55|35=0|34=301|49=EHABAXUK|52=20190228-17:56:35.890|56=MA|10=036|8=FIX.4.4|9=55|35=0|34=302|49=EHABAXUK|52=20190228-17:58:06.890|56=MA|10=037|8=FIX.4.4|9=55|35=0|34=303|49=EHABAXUK|52=20190228-17:59:37.888|56=MA|10=050|8=FIX.4.4|9=55|35=0|34=304|49=EHABAXUK|52=20190228-18:01:07.888|56=MA|10=036|8=FIX.4.4|9=55|35=0|34=305|49=EHABAXUK|52=20190228-18:02:37.890|56=MA|10=034|8=FIX.4.4|9=55|35=0|34=306|49=EHABAXUK|52=20190228-18:04:08.889|56=MA|10=043|8=FIX.4.4|9=55|35=0|34=307|49=EHABAXUK|52=20190228-18:05:39.887|56=MA|10=047|8=FIX.4.4|9=55|35=0|34=308|49=EHABAXUK|52=20190228-18:07:09.887|56=MA|10=047|8=FIX.4.4|9=55|35=0|34=309|49=EHABAXUK|52=20190228-18:08:40.886|56=MA|10=043|8=FIX.4.4|9=55|35=0|34=310|49=EHABAXUK|52=20190228-18:10:11.885|56=MA|10=025|8=FIX.4.4|9=55|35=0|34=311|49=EHABAXUK|52=20190228-18:11:42.886|56=MA|10=032|8=FIX.4.4|9=55|35=0|34=312|49=EHABAXUK|52=20190228-18:13:13.884|56=MA|10=031|8=FIX.4.4|9=55|35=0|34=313|49=EHABAXUK|52=20190228-18:14:43.884|56=MA|10=036|8=FIX.4.4|9=55|35=0|34=314|49=EHABAXUK|52=20190228-18:16:14.885|56=MA|10=038|8=FIX.4.4|9=55|35=0|34=315|49=EHABAXUK|52=20190228-18:17:45.884|56=MA|10=043|8=FIX.4.4|9=55|35=0|34=316|49=EHABAXUK|52=20190228-18:19:16.882|56=MA|10=042|8=FIX.4.4|9=55|35=0|34=317|49=EHABAXUK|52=20190228-18:20:46.882|56=MA|10=038|8=FIX.4.4|9=55|35=0|34=318|49=EHABAXUK|52=20190228-18:22:17.881|56=MA|10=038|8=FIX.4.4|9=55|35=0|34=319|49=EHABAXUK|52=20190228-18:23:48.881|56=MA|10=044|8=FIX.4.4|9=55|35=0|34=320|49=EHABAXUK|52=20190228-18:25:19.880|56=MA|10=035|8=FIX.4.4|9=55|35=0|34=321|49=EHABAXUK|52=20190228-18:26:50.879|56=MA|10=040|8=FIX.4.4|9=55|35=0|34=322|49=EHABAXUK|52=20190228-18:28:20.879|56=MA|10=040|8=FIX.4.4|9=55|35=0|34=323|49=EHABAXUK|52=20190228-18:29:51.878|56=MA|10=045|8=FIX.4.4|9=55|35=0|34=324|49=EHABAXUK|52=20190228-18:31:21.878|56=MA|10=036|8=FIX.4.4|9=55|35=0|34=325|49=EHABAXUK|52=20190228-18:32:51.878|56=MA|10=041|8=FIX.4.4|9=55|35=0|34=326|49=EHABAXUK|52=20190228-18:34:22.877|56=MA|10=041|8=FIX.4.4|9=55|35=0|34=327|49=EHABAXUK|52=20190228-18:35:53.876|56=MA|10=046|8=FIX.4.4|9=55|35=0|34=328|49=EHABAXUK|52=20190228-18:37:23.876|56=MA|10=046|8=FIX.4.4|9=55|35=0|34=329|49=EHABAXUK|52=20190228-18:38:54.875|56=MA|10=051|8=FIX.4.4|9=55|35=0|34=330|49=EHABAXUK|52=20190228-18:40:25.874|56=MA|10=033|8=FIX.4.4|9=55|35=0|34=331|49=EHABAXUK|52=20190228-18:41:55.874|56=MA|10=038|8=FIX.4.4|9=55|35=0|34=332|49=EHABAXUK|52=20190228-18:43:25.875|56=MA|10=039|8=FIX.4.4|9=55|35=0|34=333|49=EHABAXUK|52=20190228-18:44:56.873|56=MA|10=043|8=FIX.4.4|9=55|35=0|34=334|49=EHABAXUK|52=20190228-18:46:27.872|56=MA|10=043|8=FIX.4.4|9=55|35=0|34=335|49=EHABAXUK|52=20190228-18:47:57.874|56=MA|10=050|8=FIX.4.4|9=55|35=0|34=336|49=EHABAXUK|52=20190228-18:49:28.872|56=MA|10=049|8=FIX.4.4|9=55|35=0|34=337|49=EHABAXUK|52=20190228-18:50:58.872|56=MA|10=045|8=FIX.4.4|9=55|35=0|34=338|49=EHABAXUK|52=20190228-18:52:28.872|56=MA|10=045|8=FIX.4.4|9=55|35=0|34=339|49=EHABAXUK|52=20190228-18:53:59.871|56=MA|10=050|8=FIX.4.4|9=55|35=0|34=340|49=EHABAXUK|52=20190228-18:55:30.870|56=MA|10=032|8=FIX.4.4|9=55|35=0|34=341|49=EHABAXUK|52=20190228-18:57:00.871|56=MA|10=033|8=FIX.4.4|9=55|35=0|34=342|49=EHABAXUK|52=20190228-18:58:31.869|56=MA|10=046|8=FIX.4.4|9=55|35=0|34=343|49=EHABAXUK|52=20190228-19:00:01.869|56=MA|10=032|8=FIX.4.4|9=55|35=0|34=344|49=EHABAXUK|52=20190228-19:01:31.869|56=MA|10=037|8=FIX.4.4|9=55|35=0|34=345|49=EHABAXUK|52=20190228-19:03:02.868|56=MA|10=037|8=FIX.4.4|9=55|35=0|34=346|49=EHABAXUK|52=20190228-19:04:32.868|56=MA|10=042|8=FIX.4.4|9=55|35=0|34=347|49=EHABAXUK|52=20190228-19:06:02.868|56=MA|10=042|8=FIX.4.4|9=55|35=0|34=348|49=EHABAXUK|52=20190228-19:07:33.866|56=MA|10=046|8=FIX.4.4|9=55|35=0|34=349|49=EHABAXUK|52=20190228-19:09:03.866|56=MA|10=046|8=FIX.4.4|9=55|35=0|34=350|49=EHABAXUK|52=20190228-19:10:34.865|56=MA|10=033|8=FIX.4.4|9=55|35=0|34=351|49=EHABAXUK|52=20190228-19:12:05.864|56=MA|10=033|8=FIX.4.4|9=55|35=0|34=352|49=EHABAXUK|52=20190228-19:13:35.864|56=MA|10=038|8=FIX.4.4|9=55|35=0|34=353|49=EHABAXUK|52=20190228-19:15:06.863|56=MA|10=038|8=FIX.4.4|9=55|35=0|34=354|49=EHABAXUK|52=20190228-19:16:36.864|56=MA|10=044|8=FIX.4.4|9=55|35=0|34=355|49=EHABAXUK|52=20190228-19:18:07.862|56=MA|10=043|8=FIX.4.4|9=55|35=0|34=356|49=EHABAXUK|52=20190228-19:19:37.862|56=MA|10=048|8=FIX.4.4|9=55|35=0|34=357|49=EHABAXUK|52=20190228-19:21:08.861|56=MA|10=039|8=FIX.4.4|9=55|35=0|34=358|49=EHABAXUK|52=20190228-19:22:39.861|56=MA|10=045|8=FIX.4.4|9=55|35=0|34=359|49=EHABAXUK|52=20190228-19:24:10.861|56=MA|10=037|8=FIX.4.4|9=55|35=0|34=360|49=EHABAXUK|52=20190228-19:25:41.859|56=MA|10=041|8=FIX.4.4|9=55|35=0|34=361|49=EHABAXUK|52=20190228-19:27:11.859|56=MA|10=041|8=FIX.4.4|9=55|35=0|34=362|49=EHABAXUK|52=20190228-19:28:42.858|56=MA|10=046|8=FIX.4.4|9=55|35=0|34=363|49=EHABAXUK|52=20190228-19:30:12.858|56=MA|10=037|8=FIX.4.4|9=55|35=0|34=364|49=EHABAXUK|52=20190228-19:31:42.858|56=MA|10=042|8=FIX.4.4|9=55|35=0|34=365|49=EHABAXUK|52=20190228-19:33:13.857|56=MA|10=042|8=FIX.4.4|9=55|35=0|34=366|49=EHABAXUK|52=20190228-19:34:44.856|56=MA|10=047|8=FIX.4.4|9=55|35=0|34=367|49=EHABAXUK|52=20190228-19:36:15.857|56=MA|10=049|8=FIX.4.4|9=55|35=0|34=368|49=EHABAXUK|52=20190228-19:37:46.856|56=MA|10=054|8=FIX.4.4|9=55|35=0|34=369|49=EHABAXUK|52=20190228-19:39:16.856|56=MA|10=054|8=FIX.4.4|9=55|35=0|34=370|49=EHABAXUK|52=20190228-19:40:47.856|56=MA|10=042|8=FIX.4.4|9=55|35=0|34=371|49=EHABAXUK|52=20190228-19:42:18.856|56=MA|10=043|8=FIX.4.4|9=55|35=0|34=372|49=EHABAXUK|52=20190228-19:43:49.854|56=MA|10=047|8=FIX.4.4|9=55|35=0|34=373|49=EHABAXUK|52=20190228-19:45:19.854|56=MA|10=047|8=FIX.4.4|9=55|35=0|34=374|49=EHABAXUK|52=20190228-19:46:49.854|56=MA|10=052|8=FIX.4.4|9=55|35=0|34=375|49=EHABAXUK|52=20190228-19:48:20.853|56=MA|10=043|8=FIX.4.4|9=55|35=0|34=376|49=EHABAXUK|52=20190228-19:49:51.852|56=MA|10=048|8=FIX.4.4|9=55|35=0|34=377|49=EHABAXUK|52=20190228-19:51:21.852|56=MA|10=039|8=FIX.4.4|9=55|35=0|34=378|49=EHABAXUK|52=20190228-19:52:52.851|56=MA|10=044|8=FIX.4.4|9=55|35=0|34=379|49=EHABAXUK|52=20190228-19:54:22.851|56=MA|10=044|8=FIX.4.4|9=55|35=0|34=380|49=EHABAXUK|52=20190228-19:55:53.851|56=MA|10=041|8=FIX.4.4|9=55|35=0|34=381|49=EHABAXUK|52=20190228-19:57:24.850|56=MA|10=041|8=FIX.4.4|9=55|35=0|34=382|49=EHABAXUK|52=20190228-19:58:55.849|56=MA|10=055|8=FIX.4.4|9=55|35=0|34=383|49=EHABAXUK|52=20190228-20:00:26.848|56=MA|10=032|8=FIX.4.4|9=55|35=0|34=384|49=EHABAXUK|52=20190228-20:01:56.848|56=MA|10=037|8=FIX.4.4|9=55|35=0|34=385|49=EHABAXUK|52=20190228-20:03:27.848|56=MA|10=038|8=FIX.4.4|9=55|35=0|34=386|49=EHABAXUK|52=20190228-20:04:57.848|56=MA|10=043|8=FIX.4.4|9=55|35=0|34=387|49=EHABAXUK|52=20190228-20:06:28.846|56=MA|10=042|8=FIX.4.4|9=55|35=0|34=388|49=EHABAXUK|52=20190228-20:07:58.846|56=MA|10=047|8=FIX.4.4|9=55|35=0|34=389|49=EHABAXUK|52=20190228-20:09:28.846|56=MA|10=047|8=FIX.4.4|9=55|35=0|34=390|49=EHABAXUK|52=20190228-20:10:59.845|56=MA|10=034|8=FIX.4.4|9=55|35=0|34=391|49=EHABAXUK|52=20190228-20:12:30.844|56=MA|10=025|8=FIX.4.4|9=55|35=0|34=392|49=EHABAXUK|52=20190228-20:14:00.844|56=MA|10=025|8=FIX.4.4|9=55|35=0|34=393|49=EHABAXUK|52=20190228-20:15:31.842|56=MA|10=029|8=FIX.4.4|9=55|35=0|34=394|49=EHABAXUK|52=20190228-20:17:01.842|56=MA|10=029|8=FIX.4.4|9=55|35=0|34=395|49=EHABAXUK|52=20190228-20:18:31.842|56=MA|10=034|8=FIX.4.4|9=55|35=0|34=396|49=EHABAXUK|52=20190228-20:20:02.841|56=MA|10=025|8=FIX.4.4|9=55|35=0|34=397|49=EHABAXUK|52=20190228-20:21:33.841|56=MA|10=031|8=FIX.4.4|9=55|35=0|34=398|49=EHABAXUK|52=20190228-20:23:04.841|56=MA|10=032|8=FIX.4.4|9=55|35=0|34=399|49=EHABAXUK|52=20190228-20:24:35.840|56=MA|10=037|8=FIX.4.4|9=55|35=0|34=400|49=EHABAXUK|52=20190228-20:26:06.841|56=MA|10=021|8=FIX.4.4|9=55|35=0|34=401|49=EHABAXUK|52=20190228-20:27:37.840|56=MA|10=026|8=FIX.4.4|9=55|35=0|34=402|49=EHABAXUK|52=20190228-20:29:07.840|56=MA|10=026|8=FIX.4.4|9=55|35=0|34=403|49=EHABAXUK|52=20190228-20:30:37.840|56=MA|10=022|8=FIX.4.4|9=55|35=0|34=404|49=EHABAXUK|52=20190228-20:32:08.840|56=MA|10=023|8=FIX.4.4|9=55|35=0|34=405|49=EHABAXUK|52=20190228-20:33:39.839|56=MA|10=037|8=FIX.4.4|9=55|35=0|34=406|49=EHABAXUK|52=20190228-20:35:10.837|56=MA|10=027|8=FIX.4.4|9=55|35=0|34=407|49=EHABAXUK|52=20190228-20:36:40.837|56=MA|10=032|8=FIX.4.4|9=55|35=0|34=408|49=EHABAXUK|52=20190228-20:38:11.837|56=MA|10=033|8=FIX.4.4|9=55|35=0|34=409|49=EHABAXUK|52=20190228-20:39:42.836|56=MA|10=038|8=FIX.4.4|9=55|35=0|34=410|49=EHABAXUK|52=20190228-20:41:13.836|56=MA|10=021|8=FIX.4.4|9=55|35=0|34=411|49=EHABAXUK|52=20190228-20:42:44.836|56=MA|10=027|8=FIX.4.4|9=55|35=0|34=412|49=EHABAXUK|52=20190228-20:44:15.834|56=MA|10=026|8=FIX.4.4|9=55|35=0|34=413|49=EHABAXUK|52=20190228-20:45:46.834|56=MA|10=032|8=FIX.4.4|9=55|35=0|34=414|49=EHABAXUK|52=20190228-20:47:17.833|56=MA|10=032|8=FIX.4.4|9=55|35=0|34=415|49=EHABAXUK|52=20190228-20:48:47.834|56=MA|10=038|8=FIX.4.4|9=55|35=0|34=416|49=EHABAXUK|52=20190228-20:50:18.833|56=MA|10=029|8=FIX.4.4|9=55|35=0|34=417|49=EHABAXUK|52=20190228-20:51:49.831|56=MA|10=033|8=FIX.4.4|9=55|35=0|34=418|49=EHABAXUK|52=20190228-20:53:19.831|56=MA|10=033|8=FIX.4.4|9=55|35=0|34=419|49=EHABAXUK|52=20190228-20:54:49.831|56=MA|10=038|8=FIX.4.4|9=55|35=0|34=420|49=EHABAXUK|52=20190228-20:56:20.830|56=MA|10=020|8=FIX.4.4|9=55|35=0|34=421|49=EHABAXUK|52=20190228-20:57:51.829|56=MA|10=034|8=FIX.4.4|9=55|35=0|34=422|49=EHABAXUK|52=20190228-20:59:21.830|56=MA|10=026|8=FIX.4.4|9=55|35=0|34=423|49=EHABAXUK|52=20190228-21:00:52.829|56=MA|10=026|8=FIX.4.4|9=55|35=0|34=424|49=EHABAXUK|52=20190228-21:02:23.829|56=MA|10=027|8=FIX.4.4|9=55|35=0|34=425|49=EHABAXUK|52=20190228-21:03:54.827|56=MA|10=031|8=FIX.4.4|9=55|35=0|34=426|49=EHABAXUK|52=20190228-21:05:25.826|56=MA|10=031|8=FIX.4.4|9=55|35=0|34=427|49=EHABAXUK|52=20190228-21:06:56.827|56=MA|10=038|8=FIX.4.4|9=55|35=0|34=428|49=EHABAXUK|52=20190228-21:08:27.826|56=MA|10=038|8=FIX.4.4|9=55|35=0|34=429|49=EHABAXUK|52=20190228-21:09:58.825|56=MA|10=043|8=FIX.4.4|9=55|35=0|34=430|49=EHABAXUK|52=20190228-21:11:29.824|56=MA|10=025|8=FIX.4.4|9=55|35=0|34=431|49=EHABAXUK|52=20190228-21:12:59.824|56=MA|10=030|8=FIX.4.4|9=55|35=0|34=432|49=EHABAXUK|52=20190228-21:14:29.824|56=MA|10=030|8=FIX.4.4|9=55|35=0|34=433|49=EHABAXUK|52=20190228-21:15:59.824|56=MA|10=035|8=FIX.4.4|9=55|35=0|34=434|49=EHABAXUK|52=20190228-21:17:30.824|56=MA|10=027|8=FIX.4.4|9=55|35=0|34=435|49=EHABAXUK|52=20190228-21:19:00.824|56=MA|10=027|8=FIX.4.4|9=55|35=0|34=436|49=EHABAXUK|52=20190228-21:20:31.823|56=MA|10=023|8=FIX.4.4|9=55|35=0|34=437|49=EHABAXUK|52=20190228-21:22:02.822|56=MA|10=023|8=FIX.4.4|9=55|35=0|34=438|49=EHABAXUK|52=20190228-21:23:32.822|56=MA|10=028|8=FIX.4.4|9=55|35=0|34=439|49=EHABAXUK|52=20190228-21:25:02.822|56=MA|10=028|8=FIX.4.4|9=55|35=0|34=440|49=EHABAXUK|52=20190228-21:26:33.820|56=MA|10=023|8=FIX.4.4|9=55|35=0|34=441|49=EHABAXUK|52=20190228-21:28:03.820|56=MA|10=023|8=FIX.4.4|9=55|35=0|34=442|49=EHABAXUK|52=20190228-21:29:33.821|56=MA|10=029|8=FIX.4.4|9=55|35=0|34=443|49=EHABAXUK|52=20190228-21:31:04.819|56=MA|10=028|8=FIX.4.4|9=55|35=0|34=444|49=EHABAXUK|52=20190228-21:32:34.819|56=MA|10=033|8=FIX.4.4|9=55|35=0|34=445|49=EHABAXUK|52=20190228-21:34:05.819|56=MA|10=034|8=FIX.4.4|9=55|35=0|34=446|49=EHABAXUK|52=20190228-21:35:36.817|56=MA|10=038|8=FIX.4.4|9=55|35=0|34=447|49=EHABAXUK|52=20190228-21:37:06.818|56=MA|10=039|8=FIX.4.4|9=55|35=0|34=448|49=EHABAXUK|52=20190228-21:38:37.816|56=MA|10=043|8=FIX.4.4|9=55|35=0|34=449|49=EHABAXUK|52=20190228-21:40:07.816|56=MA|10=034|8=FIX.4.4|9=55|35=0|34=450|49=EHABAXUK|52=20190228-21:41:37.816|56=MA|10=030|8=FIX.4.4|9=55|35=0|34=451|49=EHABAXUK|52=20190228-21:43:07.816|56=MA|10=030|8=FIX.4.4|9=55|35=0|34=452|49=EHABAXUK|52=20190228-21:44:38.814|56=MA|10=034|8=FIX.4.4|9=55|35=0|34=453|49=EHABAXUK|52=20190228-21:46:08.814|56=MA|10=034|8=FIX.4.4|9=55|35=0|34=454|49=EHABAXUK|52=20190228-21:47:39.814|56=MA|10=040|8=FIX.4.4|9=55|35=0|34=455|49=EHABAXUK|52=20190228-21:49:09.814|56=MA|10=040|8=FIX.4.4|9=55|35=0|34=456|49=EHABAXUK|52=20190228-21:50:40.812|56=MA|10=026|8=FIX.4.4|9=55|35=0|34=457|49=EHABAXUK|52=20190228-21:52:11.811|56=MA|10=026|8=FIX.4.4|9=55|35=0|34=458|49=EHABAXUK|52=20190228-21:53:41.811|56=MA|10=031|8=FIX.4.4|9=55|35=0|34=459|49=EHABAXUK|52=20190228-21:55:12.810|56=MA|10=031|8=FIX.4.4|9=55|35=0|34=460|49=EHABAXUK|52=20190228-21:56:42.811|56=MA|10=028|8=FIX.4.4|9=55|35=0|34=461|49=EHABAXUK|52=20190228-21:58:13.809|56=MA|10=036|8=FIX.4.4|9=55|35=0|34=462|49=EHABAXUK|52=20190228-21:59:44.810|56=MA|10=034|8=FIX.4.4|9=55|35=0|34=463|49=EHABAXUK|52=20190228-22:01:15.808|56=MA|10=028|8=FIX.4.4|9=55|35=0|34=464|49=EHABAXUK|52=20190228-22:02:45.809|56=MA|10=034|8=FIX.4.4|9=55|35=0|34=465|49=EHABAXUK|52=20190228-22:04:15.809|56=MA|10=034|8=FIX.4.4|9=55|35=0|34=466|49=EHABAXUK|52=20190228-22:05:45.809|56=MA|10=039|8=FIX.4.4|9=55|35=0|34=467|49=EHABAXUK|52=20190228-22:07:16.809|56=MA|10=040|8=FIX.4.4|9=55|35=0|34=468|49=EHABAXUK|52=20190228-22:08:47.807|56=MA|10=044|8=FIX.4.4|9=55|35=0|34=469|49=EHABAXUK|52=20190228-22:10:17.807|56=MA|10=035|8=FIX.4.4|9=55|35=0|34=470|49=EHABAXUK|52=20190228-22:11:48.806|56=MA|10=031|8=FIX.4.4|9=55|35=0|34=471|49=EHABAXUK|52=20190228-22:13:18.806|56=MA|10=031|8=FIX.4.4|9=55|35=0|34=472|49=EHABAXUK|52=20190228-22:14:49.804|56=MA|10=035|8=FIX.4.4|9=55|35=0|34=473|49=EHABAXUK|52=20190228-22:16:19.805|56=MA|10=036|8=FIX.4.4|9=55|35=0|34=474|49=EHABAXUK|52=20190228-22:17:50.804|56=MA|10=032|8=FIX.4.4|9=55|35=0|34=475|49=EHABAXUK|52=20190228-22:19:20.804|56=MA|10=032|8=FIX.4.4|9=55|35=0|34=476|49=EHABAXUK|52=20190228-22:20:51.803|56=MA|10=028|8=FIX.4.4|9=55|35=0|34=477|49=EHABAXUK|52=20190228-22:22:22.802|56=MA|10=028|8=FIX.4.4|9=55|35=0|34=478|49=EHABAXUK|52=20190228-22:23:53.801|56=MA|10=033|8=FIX.4.4|9=55|35=0|34=479|49=EHABAXUK|52=20190228-22:25:23.801|56=MA|10=033|8=FIX.4.4|9=55|35=0|34=480|49=EHABAXUK|52=20190228-22:26:54.801|56=MA|10=030|8=FIX.4.4|9=55|35=0|34=481|49=EHABAXUK|52=20190228-22:28:25.800|56=MA|10=030|8=FIX.4.4|9=55|35=0|34=482|49=EHABAXUK|52=20190228-22:29:56.799|56=MA|10=053|8=FIX.4.4|9=55|35=0|34=483|49=EHABAXUK|52=20190228-22:31:27.800|56=MA|10=028|8=FIX.4.4|9=55|35=0|34=484|49=EHABAXUK|52=20190228-22:32:58.798|56=MA|10=050|8=FIX.4.4|9=55|35=0|34=485|49=EHABAXUK|52=20190228-22:34:28.798|56=MA|10=050|8=FIX.4.4|9=55|35=0|34=486|49=EHABAXUK|52=20190228-22:35:59.797|56=MA|10=055|8=FIX.4.4|9=55|35=0|34=487|49=EHABAXUK|52=20190228-22:37:30.797|56=MA|10=047|8=FIX.4.4|9=55|35=0|34=488|49=EHABAXUK|52=20190228-22:39:01.796|56=MA|10=047|8=FIX.4.4|9=55|35=0|34=489|49=EHABAXUK|52=20190228-22:40:31.796|56=MA|10=043|8=FIX.4.4|9=55|35=0|34=490|49=EHABAXUK|52=20190228-22:42:02.795|56=MA|10=034|8=FIX.4.4|9=55|35=0|34=491|49=EHABAXUK|52=20190228-22:43:33.794|56=MA|10=039|8=FIX.4.4|9=55|35=0|34=492|49=EHABAXUK|52=20190228-22:45:04.794|56=MA|10=040|8=FIX.4.4|9=55|35=0|34=493|49=EHABAXUK|52=20190228-22:46:34.794|56=MA|10=045|8=FIX.4.4|9=55|35=0|34=494|49=EHABAXUK|52=20190228-22:48:05.792|56=MA|10=044|8=FIX.4.4|9=55|35=0|34=495|49=EHABAXUK|52=20190228-22:49:35.792|56=MA|10=049|8=FIX.4.4|9=55|35=0|34=496|49=EHABAXUK|52=20190228-22:51:06.793|56=MA|10=042|8=FIX.4.4|9=55|35=0|34=497|49=EHABAXUK|52=20190228-22:52:37.793|56=MA|10=048|8=FIX.4.4|9=55|35=0|34=498|49=EHABAXUK|52=20190228-22:54:08.792|56=MA|10=048|8=FIX.4.4|9=55|35=0|34=499|49=EHABAXUK|52=20190228-22:55:38.792|56=MA|10=053|8=FIX.4.4|9=55|35=0|34=500|49=EHABAXUK|52=20190228-22:57:09.791|56=MA|10=035|8=FIX.4.4|9=55|35=0|34=501|49=EHABAXUK|52=20190228-22:58:39.792|56=MA|10=041|8=FIX.4.4|9=55|35=0|34=502|49=EHABAXUK|52=20190228-23:00:10.790|56=MA|10=017|8=FIX.4.4|9=55|35=0|34=503|49=EHABAXUK|52=20190228-23:01:40.790|56=MA|10=022|8=FIX.4.4|9=55|35=0|34=504|49=EHABAXUK|52=20190228-23:03:11.790|56=MA|10=023|8=FIX.4.4|9=55|35=0|34=505|49=EHABAXUK|52=20190228-23:04:41.790|56=MA|10=028|8=FIX.4.4|9=55|35=5|34=506|49=EHABAXUK|52=20190228-23:05:01.075|56=MA|10=027|8=FIX.4.4|9=88|35=A|34=1|49=EHABAXUK|52=20210212-10:47:48.273|56=MA|98=0|108=90|95=8|96=3.0.0rc5|141=Y|10=152|8=FIX.4.4|9=186|35=D|34=2|49=EHABAXUK|52=20210212-10:47:55.814|56=MA|11=MMADJB260619-1298|453=1|448=eh_abaxuk|447=C|452=11|55=NA|48=XS0991090175|22=4|54=2|60=20210212-10:47:55.814|38=1000000|40=1|423=1|10=077|8=FIX.4.4|9=53|35=5|34=3|49=EHABAXUK|52=20210212-10:48:11.274|56=MA|10=168|