8=FIX.4.4|9=99|35=A|34=1|49=kauaiblckrcktrader1|52=20210212-16:39:10.302|56=MA|98=0|108=90|95=8|96=3.0.0rc5|141=Y|10=224|8=FIX.4.4|9=739|35=E|34=2|49=kauaiblckrcktrader1|52=20210212-16:39:12.500|56=MA|66=ListID-120221-1402|394=2|68=5|73=5|11=ClOrdID-1403|22=4|38=100000|44=100|48=US06051GEN51|54=1|55=[N/A/]|63=3|67=1|423=1|29726=100.25|453=1|448=kauaiblckrcktrader1|447=C|452=11|11=ClOrdID-1404|22=4|38=100000|44=101|48=US40434AAB52|54=1|55=[N/A]|63=3|67=2|29726=101.25|11=ClOrdID-1405|22=4|38=130000|44=102|48=US95709TAH32|54=1|55=[N/A/]|63=3|67=1|29726=102.25|453=1|448=kauaiblckrcktrader1|447=C|452=11|11=ClOrdID-1406|22=4|38=250000|44=103|48=US427866AZ15|54=1|55=[N/A/]|63=3|67=1|29726=103.25|453=1|448=kauaiblckrcktrader1|447=C|452=11|11=ClOrdID-1407|22=4|38=350000|44=104|48=US29379VAW37|54=1|55=[N/A/]|63=3|67=1|29726=104.25|453=1|448=kauaiblckrcktrader1|447=C|452=11|10=018|8=FIX.4.4|9=86|35=5|34=3|49=kauaiblckrcktrader1|52=20210212-16:39:20.302|56=MA|58=Session Tab Closed|10=061|8=FIX.4.4|9=99|35=A|34=1|49=kauaiblckrcktrader1|52=20210226-12:17:51.683|56=MA|98=0|108=90|95=8|96=3.0.0rc5|141=Y|10=238|8=FIX.4.4|9=739|35=E|34=2|49=kauaiblckrcktrader1|52=20210226-12:18:32.125|56=MA|66=ListID-260221-1420|394=2|68=5|73=5|11=ClOrdID-1421|22=4|38=100000|44=100|48=US06051GEN51|54=1|55=[N/A/]|63=3|67=1|423=1|29726=100.25|453=1|448=kauaiblckrcktrader1|447=C|452=11|11=ClOrdID-1422|22=4|38=100000|44=101|48=US40434AAB52|54=1|55=[N/A]|63=3|67=2|29726=101.25|11=ClOrdID-1423|22=4|38=130000|44=102|48=US95709TAH32|54=1|55=[N/A/]|63=3|67=1|29726=102.25|453=1|448=kauaiblckrcktrader1|447=C|452=11|11=ClOrdID-1424|22=4|38=250000|44=103|48=US427866AZ15|54=1|55=[N/A/]|63=3|67=1|29726=103.25|453=1|448=kauaiblckrcktrader1|447=C|452=11|11=ClOrdID-1425|22=4|38=350000|44=104|48=US29379VAW37|54=1|55=[N/A/]|63=3|67=1|29726=104.25|453=1|448=kauaiblckrcktrader1|447=C|452=11|10=026|8=FIX.4.4|9=739|35=E|34=3|49=kauaiblckrcktrader1|52=20210226-12:18:34.521|56=MA|66=ListID-260221-1426|394=2|68=5|73=5|11=ClOrdID-1427|22=4|38=100000|44=100|48=US06051GEN51|54=1|55=[N/A/]|63=3|67=1|423=1|29726=100.25|453=1|448=kauaiblckrcktrader1|447=C|452=11|11=ClOrdID-1428|22=4|38=100000|44=101|48=US40434AAB52|54=1|55=[N/A]|63=3|67=2|29726=101.25|11=ClOrdID-1429|22=4|38=130000|44=102|48=US95709TAH32|54=1|55=[N/A/]|63=3|67=1|29726=102.25|453=1|448=kauaiblckrcktrader1|447=C|452=11|11=ClOrdID-1430|22=4|38=250000|44=103|48=US427866AZ15|54=1|55=[N/A/]|63=3|67=1|29726=103.25|453=1|448=kauaiblckrcktrader1|447=C|452=11|11=ClOrdID-1431|22=4|38=350000|44=104|48=US29379VAW37|54=1|55=[N/A/]|63=3|67=1|29726=104.25|453=1|448=kauaiblckrcktrader1|447=C|452=11|10=047|8=FIX.4.4|9=739|35=E|34=4|49=kauaiblckrcktrader1|52=20210226-12:18:35.363|56=MA|66=ListID-260221-1432|394=2|68=5|73=5|11=ClOrdID-1433|22=4|38=100000|44=100|48=US06051GEN51|54=1|55=[N/A/]|63=3|67=1|423=1|29726=100.25|453=1|448=kauaiblckrcktrader1|447=C|452=11|11=ClOrdID-1434|22=4|38=100000|44=101|48=US40434AAB52|54=1|55=[N/A]|63=3|67=2|29726=101.25|11=ClOrdID-1435|22=4|38=130000|44=102|48=US95709TAH32|54=1|55=[N/A/]|63=3|67=1|29726=102.25|453=1|448=kauaiblckrcktrader1|447=C|452=11|11=ClOrdID-1436|22=4|38=250000|44=103|48=US427866AZ15|54=1|55=[N/A/]|63=3|67=1|29726=103.25|453=1|448=kauaiblckrcktrader1|447=C|452=11|11=ClOrdID-1437|22=4|38=350000|44=104|48=US29379VAW37|54=1|55=[N/A/]|63=3|67=1|29726=104.25|453=1|448=kauaiblckrcktrader1|447=C|452=11|10=053|8=FIX.4.4|9=739|35=E|34=5|49=kauaiblckrcktrader1|52=20210226-12:18:35.881|56=MA|66=ListID-260221-1438|394=2|68=5|73=5|11=ClOrdID-1439|22=4|38=100000|44=100|48=US06051GEN51|54=1|55=[N/A/]|63=3|67=1|423=1|29726=100.25|453=1|448=kauaiblckrcktrader1|447=C|452=11|11=ClOrdID-1440|22=4|38=100000|44=101|48=US40434AAB52|54=1|55=[N/A]|63=3|67=2|29726=101.25|11=ClOrdID-1441|22=4|38=130000|44=102|48=US95709TAH32|54=1|55=[N/A/]|63=3|67=1|29726=102.25|453=1|448=kauaiblckrcktrader1|447=C|452=11|11=ClOrdID-1442|22=4|38=250000|44=103|48=US427866AZ15|54=1|55=[N/A/]|63=3|67=1|29726=103.25|453=1|448=kauaiblckrcktrader1|447=C|452=11|11=ClOrdID-1443|22=4|38=350000|44=104|48=US29379VAW37|54=1|55=[N/A/]|63=3|67=1|29726=104.25|453=1|448=kauaiblckrcktrader1|447=C|452=11|10=059|8=FIX.4.4|9=739|35=E|34=6|49=kauaiblckrcktrader1|52=20210226-12:18:40.803|56=MA|66=ListID-260221-1444|394=2|68=5|73=5|11=ClOrdID-1445|22=4|38=100000|44=100|48=US06051GEN51|54=1|55=[N/A/]|63=3|67=1|423=1|29726=100.25|453=1|448=kauaiblckrcktrader1|447=C|452=11|11=ClOrdID-1446|22=4|38=100000|44=101|48=US40434AAB52|54=1|55=[N/A]|63=3|67=2|29726=101.25|11=ClOrdID-1447|22=4|38=130000|44=102|48=US95709TAH32|54=1|55=[N/A/]|63=3|67=1|29726=102.25|453=1|448=kauaiblckrcktrader1|447=C|452=11|11=ClOrdID-1448|22=4|38=250000|44=103|48=US427866AZ15|54=1|55=[N/A/]|63=3|67=1|29726=103.25|453=1|448=kauaiblckrcktrader1|447=C|452=11|11=ClOrdID-1449|22=4|38=350000|44=104|48=US29379VAW37|54=1|55=[N/A/]|63=3|67=1|29726=104.25|453=1|448=kauaiblckrcktrader1|447=C|452=11|10=068|8=FIX.4.4|9=739|35=E|34=7|49=kauaiblckrcktrader1|52=20210226-12:18:41.109|56=MA|66=ListID-260221-1450|394=2|68=5|73=5|11=ClOrdID-1451|22=4|38=100000|44=100|48=US06051GEN51|54=1|55=[N/A/]|63=3|67=1|423=1|29726=100.25|453=1|448=kauaiblckrcktrader1|447=C|452=11|11=ClOrdID-1452|22=4|38=100000|44=101|48=US40434AAB52|54=1|55=[N/A]|63=3|67=2|29726=101.25|11=ClOrdID-1453|22=4|38=130000|44=102|48=US95709TAH32|54=1|55=[N/A/]|63=3|67=1|29726=102.25|453=1|448=kauaiblckrcktrader1|447=C|452=11|11=ClOrdID-1454|22=4|38=250000|44=103|48=US427866AZ15|54=1|55=[N/A/]|63=3|67=1|29726=103.25|453=1|448=kauaiblckrcktrader1|447=C|452=11|11=ClOrdID-1455|22=4|38=350000|44=104|48=US29379VAW37|54=1|55=[N/A/]|63=3|67=1|29726=104.25|453=1|448=kauaiblckrcktrader1|447=C|452=11|10=051|8=FIX.4.4|9=64|35=0|34=8|49=kauaiblckrcktrader1|52=20210226-12:20:11.565|56=MA|10=251|8=FIX.4.4|9=64|35=0|34=9|49=kauaiblckrcktrader1|52=20210226-12:21:41.565|56=MA|10=000|8=FIX.4.4|9=65|35=0|34=10|49=kauaiblckrcktrader1|52=20210226-12:23:11.575|56=MA|10=041|8=FIX.4.4|9=65|35=0|34=11|49=kauaiblckrcktrader1|52=20210226-12:24:41.683|56=MA|10=046|8=FIX.4.4|9=65|35=0|34=12|49=kauaiblckrcktrader1|52=20210226-12:26:11.684|56=MA|10=047|8=FIX.4.4|9=65|35=0|34=13|49=kauaiblckrcktrader1|52=20210226-12:27:42.584|56=MA|10=052|8=FIX.4.4|9=65|35=0|34=14|49=kauaiblckrcktrader1|52=20210226-12:29:12.684|56=MA|10=053|8=FIX.4.4|9=65|35=0|34=15|49=kauaiblckrcktrader1|52=20210226-12:30:42.685|56=MA|10=050|8=FIX.4.4|9=65|35=0|34=16|49=kauaiblckrcktrader1|52=20210226-12:32:12.686|56=MA|10=051|8=FIX.4.4|9=65|35=0|34=17|49=kauaiblckrcktrader1|52=20210226-12:33:43.573|56=MA|10=052|8=FIX.4.4|9=65|35=0|34=18|49=kauaiblckrcktrader1|52=20210226-12:35:13.573|56=MA|10=052|8=FIX.4.4|9=65|35=0|34=19|49=kauaiblckrcktrader1|52=20210226-12:36:43.686|56=MA|10=062|8=FIX.4.4|9=65|35=0|34=20|49=kauaiblckrcktrader1|52=20210226-12:38:13.687|56=MA|10=054|8=FIX.4.4|9=65|35=0|34=21|49=kauaiblckrcktrader1|52=20210226-12:39:43.687|56=MA|10=059|8=FIX.4.4|9=65|35=0|34=22|49=kauaiblckrcktrader1|52=20210226-12:41:13.688|56=MA|10=051|8=FIX.4.4|9=65|35=0|34=23|49=kauaiblckrcktrader1|52=20210226-12:42:43.688|56=MA|10=056|8=FIX.4.4|9=65|35=0|34=24|49=kauaiblckrcktrader1|52=20210226-12:44:14.689|56=MA|10=058|8=FIX.4.4|9=65|35=0|34=25|49=kauaiblckrcktrader1|52=20210226-12:45:45.689|56=MA|10=064|8=FIX.4.4|9=65|35=0|34=26|49=kauaiblckrcktrader1|52=20210226-12:47:15.689|56=MA|10=064|8=FIX.4.4|9=65|35=0|34=27|49=kauaiblckrcktrader1|52=20210226-12:48:46.687|56=MA|10=068|8=FIX.4.4|9=65|35=0|34=28|49=kauaiblckrcktrader1|52=20210226-12:50:16.688|56=MA|10=060|8=FIX.4.4|9=65|35=0|34=29|49=kauaiblckrcktrader1|52=20210226-12:51:46.688|56=MA|10=065|8=FIX.4.4|9=65|35=0|34=30|49=kauaiblckrcktrader1|52=20210226-12:53:16.690|56=MA|10=049|8=FIX.4.4|9=65|35=0|34=31|49=kauaiblckrcktrader1|52=20210226-12:54:47.690|56=MA|10=055|8=FIX.4.4|9=65|35=0|34=32|49=kauaiblckrcktrader1|52=20210226-12:56:17.690|56=MA|10=055|8=FIX.4.4|9=65|35=0|34=33|49=kauaiblckrcktrader1|52=20210226-12:57:48.689|56=MA|10=069|8=FIX.4.4|9=65|35=0|34=34|49=kauaiblckrcktrader1|52=20210226-12:59:19.688|56=MA|10=069|8=FIX.4.4|9=65|35=0|34=35|49=kauaiblckrcktrader1|52=20210226-13:00:49.689|56=MA|10=061|8=FIX.4.4|9=65|35=0|34=36|49=kauaiblckrcktrader1|52=20210226-13:02:19.690|56=MA|10=053|8=FIX.4.4|9=65|35=0|34=37|49=kauaiblckrcktrader1|52=20210226-13:03:49.691|56=MA|10=059|8=FIX.4.4|9=65|35=0|34=38|49=kauaiblckrcktrader1|52=20210226-13:05:19.692|56=MA|10=060|8=FIX.4.4|9=65|35=0|34=39|49=kauaiblckrcktrader1|52=20210226-13:06:49.692|56=MA|10=065|8=FIX.4.4|9=65|35=0|34=40|49=kauaiblckrcktrader1|52=20210226-13:08:19.695|56=MA|10=059|8=FIX.4.4|9=65|35=0|34=41|49=kauaiblckrcktrader1|52=20210226-13:09:49.696|56=MA|10=065|8=FIX.4.4|9=65|35=0|34=42|49=kauaiblckrcktrader1|52=20210226-13:11:19.696|56=MA|10=056|8=FIX.4.4|9=65|35=0|34=43|49=kauaiblckrcktrader1|52=20210226-13:12:49.696|56=MA|10=061|8=FIX.4.4|9=65|35=0|34=44|49=kauaiblckrcktrader1|52=20210226-13:14:19.697|56=MA|10=062|8=FIX.4.4|9=65|35=0|34=45|49=kauaiblckrcktrader1|52=20210226-13:15:49.698|56=MA|10=068|8=FIX.4.4|9=65|35=0|34=46|49=kauaiblckrcktrader1|52=20210226-13:17:19.699|56=MA|10=069|8=FIX.4.4|9=65|35=0|34=47|49=kauaiblckrcktrader1|52=20210226-13:18:49.699|56=MA|10=074|8=FIX.4.4|9=65|35=0|34=48|49=kauaiblckrcktrader1|52=20210226-13:20:19.700|56=MA|10=048|8=FIX.4.4|9=65|35=0|34=49|49=kauaiblckrcktrader1|52=20210226-13:21:49.701|56=MA|10=054|8=FIX.4.4|9=65|35=0|34=50|49=kauaiblckrcktrader1|52=20210226-13:23:19.701|56=MA|10=045|8=FIX.4.4|9=65|35=0|34=51|49=kauaiblckrcktrader1|52=20210226-13:24:50.702|56=MA|10=043|8=FIX.4.4|9=65|35=0|34=52|49=kauaiblckrcktrader1|52=20210226-13:26:20.702|56=MA|10=043|8=FIX.4.4|9=65|35=0|34=53|49=kauaiblckrcktrader1|52=20210226-13:27:51.702|56=MA|10=049|8=FIX.4.4|9=65|35=0|34=54|49=kauaiblckrcktrader1|52=20210226-13:29:21.702|56=MA|10=049|8=FIX.4.4|9=65|35=0|34=55|49=kauaiblckrcktrader1|52=20210226-13:30:51.708|56=MA|10=051|8=FIX.4.4|9=65|35=0|34=56|49=kauaiblckrcktrader1|52=20210226-13:32:22.703|56=MA|10=047|8=FIX.4.4|9=65|35=0|34=57|49=kauaiblckrcktrader1|52=20210226-13:33:52.703|56=MA|10=052|8=FIX.4.4|9=65|35=0|34=58|49=kauaiblckrcktrader1|52=20210226-13:35:23.703|56=MA|10=053|8=FIX.4.4|9=65|35=0|34=59|49=kauaiblckrcktrader1|52=20210226-13:36:53.703|56=MA|10=058|8=FIX.4.4|9=65|35=0|34=60|49=kauaiblckrcktrader1|52=20210226-13:38:23.704|56=MA|10=050|8=FIX.4.4|9=65|35=0|34=61|49=kauaiblckrcktrader1|52=20210226-13:39:53.704|56=MA|10=055|8=FIX.4.4|9=65|35=0|34=62|49=kauaiblckrcktrader1|52=20210226-13:41:23.704|56=MA|10=046|8=FIX.4.4|9=65|35=0|34=63|49=kauaiblckrcktrader1|52=20210226-13:42:53.706|56=MA|10=053|8=FIX.4.4|9=65|35=0|34=64|49=kauaiblckrcktrader1|52=20210226-13:44:23.706|56=MA|10=053|8=FIX.4.4|9=65|35=0|34=65|49=kauaiblckrcktrader1|52=20210226-13:45:53.706|56=MA|10=058|8=FIX.4.4|9=65|35=0|34=66|49=kauaiblckrcktrader1|52=20210226-13:47:23.708|56=MA|10=060|8=FIX.4.4|9=65|35=0|34=67|49=kauaiblckrcktrader1|52=20210226-13:48:54.707|56=MA|10=065|8=FIX.4.4|9=65|35=0|34=68|49=kauaiblckrcktrader1|52=20210226-13:50:24.708|56=MA|10=057|8=FIX.4.4|9=65|35=0|34=69|49=kauaiblckrcktrader1|52=20210226-13:51:55.707|56=MA|10=062|8=FIX.4.4|9=65|35=0|34=70|49=kauaiblckrcktrader1|52=20210226-13:53:25.707|56=MA|10=053|8=FIX.4.4|9=65|35=0|34=71|49=kauaiblckrcktrader1|52=20210226-13:54:55.707|56=MA|10=058|8=FIX.4.4|9=65|35=0|34=72|49=kauaiblckrcktrader1|52=20210226-13:56:25.708|56=MA|10=059|8=FIX.4.4|9=65|35=0|34=73|49=kauaiblckrcktrader1|52=20210226-13:57:55.709|56=MA|10=065|8=FIX.4.4|9=65|35=0|34=74|49=kauaiblckrcktrader1|52=20210226-13:59:26.709|56=MA|10=066|8=FIX.4.4|9=65|35=0|34=75|49=kauaiblckrcktrader1|52=20210226-14:00:56.710|56=MA|10=049|8=FIX.4.4|9=65|35=0|34=76|49=kauaiblckrcktrader1|52=20210226-14:02:26.710|56=MA|10=049|8=FIX.4.4|9=65|35=0|34=77|49=kauaiblckrcktrader1|52=20210226-14:03:56.710|56=MA|10=054|8=FIX.4.4|9=65|35=0|34=78|49=kauaiblckrcktrader1|52=20210226-14:05:27.709|56=MA|10=063|8=FIX.4.4|9=65|35=0|34=79|49=kauaiblckrcktrader1|52=20210226-14:06:57.710|56=MA|10=060|8=FIX.4.4|9=65|35=0|34=80|49=kauaiblckrcktrader1|52=20210226-14:08:27.711|56=MA|10=052|8=FIX.4.4|9=65|35=0|34=81|49=kauaiblckrcktrader1|52=20210226-14:09:57.711|56=MA|10=057|8=FIX.4.4|9=65|35=0|34=82|49=kauaiblckrcktrader1|52=20210226-14:11:28.709|56=MA|10=056|8=FIX.4.4|9=65|35=0|34=83|49=kauaiblckrcktrader1|52=20210226-14:12:58.710|56=MA|10=053|8=FIX.4.4|9=65|35=0|34=84|49=kauaiblckrcktrader1|52=20210226-14:14:29.709|56=MA|10=062|8=FIX.4.4|9=65|35=0|34=85|49=kauaiblckrcktrader1|52=20210226-14:15:59.709|56=MA|10=067|8=FIX.4.4|9=65|35=0|34=86|49=kauaiblckrcktrader1|52=20210226-14:17:29.711|56=MA|10=060|8=FIX.4.4|9=65|35=0|34=87|49=kauaiblckrcktrader1|52=20210226-14:18:59.711|56=MA|10=065|8=FIX.4.4|9=65|35=0|34=88|49=kauaiblckrcktrader1|52=20210226-14:20:29.711|56=MA|10=056|8=FIX.4.4|9=65|35=0|34=89|49=kauaiblckrcktrader1|52=20210226-14:22:00.710|56=MA|10=047|8=FIX.4.4|9=65|35=0|34=90|49=kauaiblckrcktrader1|52=20210226-14:23:30.710|56=MA|10=043|8=FIX.4.4|9=65|35=0|34=91|49=kauaiblckrcktrader1|52=20210226-14:25:01.710|56=MA|10=044|8=FIX.4.4|9=65|35=0|34=92|49=kauaiblckrcktrader1|52=20210226-14:26:31.710|56=MA|10=049|8=FIX.4.4|9=65|35=0|34=93|49=kauaiblckrcktrader1|52=20210226-14:28:01.710|56=MA|10=049|8=FIX.4.4|9=65|35=0|34=94|49=kauaiblckrcktrader1|52=20210226-14:29:32.710|56=MA|10=055|8=FIX.4.4|9=65|35=0|34=95|49=kauaiblckrcktrader1|52=20210226-14:31:02.711|56=MA|10=047|8=FIX.4.4|9=65|35=0|34=96|49=kauaiblckrcktrader1|52=20210226-14:32:33.710|56=MA|10=052|8=FIX.4.4|9=65|35=0|34=97|49=kauaiblckrcktrader1|52=20210226-14:34:03.710|56=MA|10=052|8=FIX.4.4|9=65|35=0|34=98|49=kauaiblckrcktrader1|52=20210226-14:35:33.710|56=MA|10=057|8=FIX.4.4|9=65|35=0|34=99|49=kauaiblckrcktrader1|52=20210226-14:37:03.710|56=MA|10=057|8=FIX.4.4|9=66|35=0|34=100|49=kauaiblckrcktrader1|52=20210226-14:38:33.710|56=MA|10=093|8=FIX.4.4|9=66|35=0|34=101|49=kauaiblckrcktrader1|52=20210226-14:40:03.711|56=MA|10=085|8=FIX.4.4|9=66|35=0|34=102|49=kauaiblckrcktrader1|52=20210226-14:41:34.571|56=MA|10=095|8=FIX.4.4|9=66|35=0|34=103|49=kauaiblckrcktrader1|52=20210226-14:43:04.710|56=MA|10=090|8=FIX.4.4|9=66|35=0|34=104|49=kauaiblckrcktrader1|52=20210226-14:44:34.711|56=MA|10=096|8=FIX.4.4|9=66|35=0|34=105|49=kauaiblckrcktrader1|52=20210226-14:46:05.570|56=MA|10=100|8=FIX.4.4|9=66|35=0|34=106|49=kauaiblckrcktrader1|52=20210226-14:47:35.711|56=MA|10=102|8=FIX.4.4|9=66|35=0|34=107|49=kauaiblckrcktrader1|52=20210226-14:49:05.711|56=MA|10=102|8=FIX.4.4|9=66|35=0|34=108|49=kauaiblckrcktrader1|52=20210226-14:50:35.712|56=MA|10=099|8=FIX.4.4|9=66|35=0|34=109|49=kauaiblckrcktrader1|52=20210226-14:52:05.712|56=MA|10=099|8=FIX.4.4|9=66|35=0|34=110|49=kauaiblckrcktrader1|52=20210226-14:53:35.713|56=MA|10=096|8=FIX.4.4|9=66|35=0|34=111|49=kauaiblckrcktrader1|52=20210226-14:55:05.713|56=MA|10=096|8=FIX.4.4|9=66|35=0|34=112|49=kauaiblckrcktrader1|52=20210226-14:56:35.714|56=MA|10=102|8=FIX.4.4|9=66|35=0|34=113|49=kauaiblckrcktrader1|52=20210226-14:58:05.714|56=MA|10=102|8=FIX.4.4|9=66|35=0|34=114|49=kauaiblckrcktrader1|52=20210226-14:59:35.714|56=MA|10=107|8=FIX.4.4|9=66|35=0|34=115|49=kauaiblckrcktrader1|52=20210226-15:01:05.714|56=MA|10=093|8=FIX.4.4|9=66|35=0|34=116|49=kauaiblckrcktrader1|52=20210226-15:02:35.714|56=MA|10=098|8=FIX.4.4|9=66|35=0|34=117|49=kauaiblckrcktrader1|52=20210226-15:04:05.714|56=MA|10=098|8=FIX.4.4|9=66|35=0|34=118|49=kauaiblckrcktrader1|52=20210226-15:05:35.716|56=MA|10=105|8=FIX.4.4|9=66|35=0|34=119|49=kauaiblckrcktrader1|52=20210226-15:07:05.716|56=MA|10=105|8=FIX.4.4|9=66|35=0|34=120|49=kauaiblckrcktrader1|52=20210226-15:08:35.716|56=MA|10=101|8=FIX.4.4|9=66|35=0|34=121|49=kauaiblckrcktrader1|52=20210226-15:10:05.716|56=MA|10=092|8=FIX.4.4|9=66|35=0|34=122|49=kauaiblckrcktrader1|52=20210226-15:11:36.716|56=MA|10=098|8=FIX.4.4|9=66|35=0|34=123|49=kauaiblckrcktrader1|52=20210226-15:13:06.716|56=MA|10=098|8=FIX.4.4|9=66|35=0|34=124|49=kauaiblckrcktrader1|52=20210226-15:14:37.716|56=MA|10=104|8=FIX.4.4|9=66|35=0|34=125|49=kauaiblckrcktrader1|52=20210226-15:16:07.717|56=MA|10=105|8=FIX.4.4|9=99|35=A|34=1|49=kauaiblckrcktrader1|52=20210302-10:41:55.586|56=MA|98=0|108=90|95=8|96=3.0.0rc5|141=Y|10=234|8=FIX.4.4|9=739|35=E|34=2|49=kauaiblckrcktrader1|52=20210302-10:42:01.319|56=MA|66=ListID-160221-1456|394=2|68=5|73=5|11=ClOrdID-1457|22=4|38=100000|44=100|48=US06051GEN51|54=1|55=[N/A/]|63=3|67=1|423=1|29726=100.25|453=1|448=kauaiblckrcktrader1|447=C|452=11|11=ClOrdID-1458|22=4|38=100000|44=101|48=US40434AAB52|54=1|55=[N/A]|63=3|67=2|29726=101.25|11=ClOrdID-1459|22=4|38=130000|44=102|48=US95709TAH32|54=1|55=[N/A/]|63=3|67=1|29726=102.25|453=1|448=kauaiblckrcktrader1|447=C|452=11|11=ClOrdID-1460|22=4|38=250000|44=103|48=US427866AZ15|54=1|55=[N/A/]|63=3|67=1|29726=103.25|453=1|448=kauaiblckrcktrader1|447=C|452=11|11=ClOrdID-1461|22=4|38=350000|44=104|48=US29379VAW37|54=1|55=[N/A/]|63=3|67=1|29726=104.25|453=1|448=kauaiblckrcktrader1|447=C|452=11|10=052|8=FIX.4.4|9=739|35=E|34=3|49=kauaiblckrcktrader1|52=20210302-10:42:21.955|56=MA|66=ListID-020321-1462|394=2|68=5|73=5|11=ClOrdID-1463|22=4|38=100000|44=100|48=US06051GEN51|54=1|55=[N/A/]|63=3|67=1|423=1|29726=100.25|453=1|448=kauaiblckrcktrader1|447=C|452=11|11=ClOrdID-1464|22=4|38=100000|44=101|48=US40434AAB52|54=1|55=[N/A]|63=3|67=2|29726=101.25|11=ClOrdID-1465|22=4|38=130000|44=102|48=US95709TAH32|54=1|55=[N/A/]|63=3|67=1|29726=102.25|453=1|448=kauaiblckrcktrader1|447=C|452=11|11=ClOrdID-1466|22=4|38=250000|44=103|48=US427866AZ15|54=1|55=[N/A/]|63=3|67=1|29726=103.25|453=1|448=kauaiblckrcktrader1|447=C|452=11|11=ClOrdID-1467|22=4|38=350000|44=104|48=US29379VAW37|54=1|55=[N/A/]|63=3|67=1|29726=104.25|453=1|448=kauaiblckrcktrader1|447=C|452=11|10=057|8=FIX.4.4|9=739|35=E|34=4|49=kauaiblckrcktrader1|52=20210302-10:42:22.500|56=MA|66=ListID-020321-1468|394=2|68=5|73=5|11=ClOrdID-1469|22=4|38=100000|44=100|48=US06051GEN51|54=1|55=[N/A/]|63=3|67=1|423=1|29726=100.25|453=1|448=kauaiblckrcktrader1|447=C|452=11|11=ClOrdID-1470|22=4|38=100000|44=101|48=US40434AAB52|54=1|55=[N/A]|63=3|67=2|29726=101.25|11=ClOrdID-1471|22=4|38=130000|44=102|48=US95709TAH32|54=1|55=[N/A/]|63=3|67=1|29726=102.25|453=1|448=kauaiblckrcktrader1|447=C|452=11|11=ClOrdID-1472|22=4|38=250000|44=103|48=US427866AZ15|54=1|55=[N/A/]|63=3|67=1|29726=103.25|453=1|448=kauaiblckrcktrader1|447=C|452=11|11=ClOrdID-1473|22=4|38=350000|44=104|48=US29379VAW37|54=1|55=[N/A/]|63=3|67=1|29726=104.25|453=1|448=kauaiblckrcktrader1|447=C|452=11|10=045|8=FIX.4.4|9=739|35=E|34=5|49=kauaiblckrcktrader1|52=20210302-10:42:23.020|56=MA|66=ListID-020321-1474|394=2|68=5|73=5|11=ClOrdID-1475|22=4|38=100000|44=100|48=US06051GEN51|54=1|55=[N/A/]|63=3|67=1|423=1|29726=100.25|453=1|448=kauaiblckrcktrader1|447=C|452=11|11=ClOrdID-1476|22=4|38=100000|44=101|48=US40434AAB52|54=1|55=[N/A]|63=3|67=2|29726=101.25|11=ClOrdID-1477|22=4|38=130000|44=102|48=US95709TAH32|54=1|55=[N/A/]|63=3|67=1|29726=102.25|453=1|448=kauaiblckrcktrader1|447=C|452=11|11=ClOrdID-1478|22=4|38=250000|44=103|48=US427866AZ15|54=1|55=[N/A/]|63=3|67=1|29726=103.25|453=1|448=kauaiblckrcktrader1|447=C|452=11|11=ClOrdID-1479|22=4|38=350000|44=104|48=US29379VAW37|54=1|55=[N/A/]|63=3|67=1|29726=104.25|453=1|448=kauaiblckrcktrader1|447=C|452=11|10=062|8=FIX.4.4|9=64|35=0|34=6|49=kauaiblckrcktrader1|52=20210302-10:43:53.570|56=MA|10=249|8=FIX.4.4|9=64|35=0|34=7|49=kauaiblckrcktrader1|52=20210302-10:45:23.572|56=MA|10=251|8=FIX.4.4|9=64|35=0|34=8|49=kauaiblckrcktrader1|52=20210302-10:46:53.574|56=MA|10=002|8=FIX.4.4|9=64|35=0|34=9|49=kauaiblckrcktrader1|52=20210302-10:48:23.575|56=MA|10=003|8=FIX.4.4|9=65|35=5|34=10|49=kauaiblckrcktrader1|52=20210302-10:48:55.575|56=MA|10=054|8=FIX.4.4|9=99|35=A|34=1|49=kauaiblckrcktrader1|52=20210302-10:48:57.574|56=MA|98=0|108=90|95=8|96=3.0.0rc5|141=Y|10=240|8=FIX.4.4|9=739|35=E|34=2|49=kauaiblckrcktrader1|52=20210302-10:49:01.819|56=MA|66=ListID-020321-1480|394=2|68=5|73=5|11=ClOrdID-1481|22=4|38=100000|44=100|48=US06051GEN51|54=1|55=[N/A/]|63=3|67=1|423=1|29726=100.25|453=1|448=kauaiblckrcktrader1|447=C|452=11|11=ClOrdID-1482|22=4|38=100000|44=101|48=US40434AAB52|54=1|55=[N/A]|63=3|67=2|29726=101.25|11=ClOrdID-1483|22=4|38=130000|44=102|48=US95709TAH32|54=1|55=[N/A/]|63=3|67=1|29726=102.25|453=1|448=kauaiblckrcktrader1|447=C|452=11|11=ClOrdID-1484|22=4|38=250000|44=103|48=US427866AZ15|54=1|55=[N/A/]|63=3|67=1|29726=103.25|453=1|448=kauaiblckrcktrader1|447=C|452=11|11=ClOrdID-1485|22=4|38=350000|44=104|48=US29379VAW37|54=1|55=[N/A/]|63=3|67=1|29726=104.25|453=1|448=kauaiblckrcktrader1|447=C|452=11|10=060|8=FIX.4.4|9=739|35=E|34=3|49=kauaiblckrcktrader1|52=20210302-10:49:02.530|56=MA|66=ListID-020321-1486|394=2|68=5|73=5|11=ClOrdID-1487|22=4|38=100000|44=100|48=US06051GEN51|54=1|55=[N/A/]|63=3|67=1|423=1|29726=100.25|453=1|448=kauaiblckrcktrader1|447=C|452=11|11=ClOrdID-1488|22=4|38=100000|44=101|48=US40434AAB52|54=1|55=[N/A]|63=3|67=2|29726=101.25|11=ClOrdID-1489|22=4|38=130000|44=102|48=US95709TAH32|54=1|55=[N/A/]|63=3|67=1|29726=102.25|453=1|448=kauaiblckrcktrader1|447=C|452=11|11=ClOrdID-1490|22=4|38=250000|44=103|48=US427866AZ15|54=1|55=[N/A/]|63=3|67=1|29726=103.25|453=1|448=kauaiblckrcktrader1|447=C|452=11|11=ClOrdID-1491|22=4|38=350000|44=104|48=US29379VAW37|54=1|55=[N/A/]|63=3|67=1|29726=104.25|453=1|448=kauaiblckrcktrader1|447=C|452=11|10=070|8=FIX.4.4|9=739|35=E|34=4|49=kauaiblckrcktrader1|52=20210302-10:49:03.178|56=MA|66=ListID-020321-1492|394=2|68=5|73=5|11=ClOrdID-1493|22=4|38=100000|44=100|48=US06051GEN51|54=1|55=[N/A/]|63=3|67=1|423=1|29726=100.25|453=1|448=kauaiblckrcktrader1|447=C|452=11|11=ClOrdID-1494|22=4|38=100000|44=101|48=US40434AAB52|54=1|55=[N/A]|63=3|67=2|29726=101.25|11=ClOrdID-1495|22=4|38=130000|44=102|48=US95709TAH32|54=1|55=[N/A/]|63=3|67=1|29726=102.25|453=1|448=kauaiblckrcktrader1|447=C|452=11|11=ClOrdID-1496|22=4|38=250000|44=103|48=US427866AZ15|54=1|55=[N/A/]|63=3|67=1|29726=103.25|453=1|448=kauaiblckrcktrader1|447=C|452=11|11=ClOrdID-1497|22=4|38=350000|44=104|48=US29379VAW37|54=1|55=[N/A/]|63=3|67=1|29726=104.25|453=1|448=kauaiblckrcktrader1|447=C|452=11|10=080|8=FIX.4.4|9=64|35=0|34=5|49=kauaiblckrcktrader1|52=20210302-10:50:33.575|56=MA|10=249|8=FIX.4.4|9=64|35=0|34=6|49=kauaiblckrcktrader1|52=20210302-10:52:03.576|56=MA|10=250|8=FIX.4.4|9=64|35=0|34=7|49=kauaiblckrcktrader1|52=20210302-10:53:33.576|56=MA|10=255|8=FIX.4.4|9=64|35=0|34=8|49=kauaiblckrcktrader1|52=20210302-10:55:03.578|56=MA|10=001|8=FIX.4.4|9=64|35=0|34=9|49=kauaiblckrcktrader1|52=20210302-10:56:34.577|56=MA|10=006|8=FIX.4.4|9=65|35=0|34=10|49=kauaiblckrcktrader1|52=20210302-10:58:04.578|56=MA|10=047|8=FIX.4.4|9=65|35=0|34=11|49=kauaiblckrcktrader1|52=20210302-10:59:34.578|56=MA|10=052|8=FIX.4.4|9=65|35=0|34=12|49=kauaiblckrcktrader1|52=20210302-11:01:04.578|56=MA|10=038|8=FIX.4.4|9=65|35=0|34=13|49=kauaiblckrcktrader1|52=20210302-11:02:34.578|56=MA|10=043|8=FIX.4.4|9=65|35=0|34=14|49=kauaiblckrcktrader1|52=20210302-11:04:04.579|56=MA|10=044|8=FIX.4.4|9=65|35=0|34=15|49=kauaiblckrcktrader1|52=20210302-11:05:35.577|56=MA|10=048|8=FIX.4.4|9=65|35=0|34=16|49=kauaiblckrcktrader1|52=20210302-11:07:05.577|56=MA|10=048|8=FIX.4.4|9=65|35=0|34=17|49=kauaiblckrcktrader1|52=20210302-11:08:35.577|56=MA|10=053|8=FIX.4.4|9=740|35=E|34=18|49=kauaiblckrcktrader1|52=20210302-11:08:43.484|56=MA|66=ListID-020321-1498|394=2|68=5|73=5|11=ClOrdID-1499|22=4|38=100000|44=100|48=US06051GEN51|54=1|55=[N/A/]|63=3|67=1|423=1|29726=100.25|453=1|448=kauaiblckrcktrader1|447=C|452=11|11=ClOrdID-1500|22=4|38=100000|44=101|48=US40434AAB52|54=1|55=[N/A]|63=3|67=2|29726=101.25|11=ClOrdID-1501|22=4|38=130000|44=102|48=US95709TAH32|54=1|55=[N/A/]|63=3|67=1|29726=102.25|453=1|448=kauaiblckrcktrader1|447=C|452=11|11=ClOrdID-1502|22=4|38=250000|44=103|48=US427866AZ15|54=1|55=[N/A/]|63=3|67=1|29726=103.25|453=1|448=kauaiblckrcktrader1|447=C|452=11|11=ClOrdID-1503|22=4|38=350000|44=104|48=US29379VAW37|54=1|55=[N/A/]|63=3|67=1|29726=104.25|453=1|448=kauaiblckrcktrader1|447=C|452=11|10=089|8=FIX.4.4|9=740|35=E|34=19|49=kauaiblckrcktrader1|52=20210302-11:08:44.259|56=MA|66=ListID-020321-1504|394=2|68=5|73=5|11=ClOrdID-1505|22=4|38=100000|44=100|48=US06051GEN51|54=1|55=[N/A/]|63=3|67=1|423=1|29726=100.25|453=1|448=kauaiblckrcktrader1|447=C|452=11|11=ClOrdID-1506|22=4|38=100000|44=101|48=US40434AAB52|54=1|55=[N/A]|63=3|67=2|29726=101.25|11=ClOrdID-1507|22=4|38=130000|44=102|48=US95709TAH32|54=1|55=[N/A/]|63=3|67=1|29726=102.25|453=1|448=kauaiblckrcktrader1|447=C|452=11|11=ClOrdID-1508|22=4|38=250000|44=103|48=US427866AZ15|54=1|55=[N/A/]|63=3|67=1|29726=103.25|453=1|448=kauaiblckrcktrader1|447=C|452=11|11=ClOrdID-1509|22=4|38=350000|44=104|48=US29379VAW37|54=1|55=[N/A/]|63=3|67=1|29726=104.25|453=1|448=kauaiblckrcktrader1|447=C|452=11|10=091|8=FIX.4.4|9=740|35=E|34=20|49=kauaiblckrcktrader1|52=20210302-11:08:45.051|56=MA|66=ListID-020321-1510|394=2|68=5|73=5|11=ClOrdID-1511|22=4|38=100000|44=100|48=US06051GEN51|54=1|55=[N/A/]|63=3|67=1|423=1|29726=100.25|453=1|448=kauaiblckrcktrader1|447=C|452=11|11=ClOrdID-1512|22=4|38=100000|44=101|48=US40434AAB52|54=1|55=[N/A]|63=3|67=2|29726=101.25|11=ClOrdID-1513|22=4|38=130000|44=102|48=US95709TAH32|54=1|55=[N/A/]|63=3|67=1|29726=102.25|453=1|448=kauaiblckrcktrader1|447=C|452=11|11=ClOrdID-1514|22=4|38=250000|44=103|48=US427866AZ15|54=1|55=[N/A/]|63=3|67=1|29726=103.25|453=1|448=kauaiblckrcktrader1|447=C|452=11|11=ClOrdID-1515|22=4|38=350000|44=104|48=US29379VAW37|54=1|55=[N/A/]|63=3|67=1|29726=104.25|453=1|448=kauaiblckrcktrader1|447=C|452=11|10=056|8=FIX.4.4|9=65|35=0|34=21|49=kauaiblckrcktrader1|52=20210302-11:10:15.578|56=MA|10=040|8=FIX.4.4|9=65|35=0|34=22|49=kauaiblckrcktrader1|52=20210302-11:11:46.579|56=MA|10=047|8=FIX.4.4|9=740|35=E|34=23|49=kauaiblckrcktrader1|52=20210302-11:12:42.158|56=MA|66=ListID-020321-1516|394=2|68=5|73=5|11=ClOrdID-1517|22=4|38=100000|44=100|48=US06051GEN51|54=1|55=[N/A/]|63=3|67=1|423=1|29726=100.25|453=1|448=kauaiblckrcktrader1|447=C|452=11|11=ClOrdID-1518|22=4|38=100000|44=101|48=US40434AAB52|54=1|55=[N/A]|63=3|67=2|29726=101.25|11=ClOrdID-1519|22=4|38=130000|44=102|48=US95709TAH32|54=1|55=[N/A/]|63=3|67=1|29726=102.25|453=1|448=kauaiblckrcktrader1|447=C|452=11|11=ClOrdID-1520|22=4|38=250000|44=103|48=US427866AZ15|54=1|55=[N/A/]|63=3|67=1|29726=103.25|453=1|448=kauaiblckrcktrader1|447=C|452=11|11=ClOrdID-1521|22=4|38=350000|44=104|48=US29379VAW37|54=1|55=[N/A/]|63=3|67=1|29726=104.25|453=1|448=kauaiblckrcktrader1|447=C|452=11|10=077|8=FIX.4.4|9=740|35=E|34=24|49=kauaiblckrcktrader1|52=20210302-11:12:42.851|56=MA|66=ListID-020321-1522|394=2|68=5|73=5|11=ClOrdID-1523|22=4|38=100000|44=100|48=US06051GEN51|54=1|55=[N/A/]|63=3|67=1|423=1|29726=100.25|453=1|448=kauaiblckrcktrader1|447=C|452=11|11=ClOrdID-1524|22=4|38=100000|44=101|48=US40434AAB52|54=1|55=[N/A]|63=3|67=2|29726=101.25|11=ClOrdID-1525|22=4|38=130000|44=102|48=US95709TAH32|54=1|55=[N/A/]|63=3|67=1|29726=102.25|453=1|448=kauaiblckrcktrader1|447=C|452=11|11=ClOrdID-1526|22=4|38=250000|44=103|48=US427866AZ15|54=1|55=[N/A/]|63=3|67=1|29726=103.25|453=1|448=kauaiblckrcktrader1|447=C|452=11|11=ClOrdID-1527|22=4|38=350000|44=104|48=US29379VAW37|54=1|55=[N/A/]|63=3|67=1|29726=104.25|453=1|448=kauaiblckrcktrader1|447=C|452=11|10=078|8=FIX.4.4|9=740|35=E|34=25|49=kauaiblckrcktrader1|52=20210302-11:12:43.481|56=MA|66=ListID-020321-1528|394=2|68=5|73=5|11=ClOrdID-1529|22=4|38=100000|44=100|48=US06051GEN51|54=1|55=[N/A/]|63=3|67=1|423=1|29726=100.25|453=1|448=kauaiblckrcktrader1|447=C|452=11|11=ClOrdID-1530|22=4|38=100000|44=101|48=US40434AAB52|54=1|55=[N/A]|63=3|67=2|29726=101.25|11=ClOrdID-1531|22=4|38=130000|44=102|48=US95709TAH32|54=1|55=[N/A/]|63=3|67=1|29726=102.25|453=1|448=kauaiblckrcktrader1|447=C|452=11|11=ClOrdID-1532|22=4|38=250000|44=103|48=US427866AZ15|54=1|55=[N/A/]|63=3|67=1|29726=103.25|453=1|448=kauaiblckrcktrader1|447=C|452=11|11=ClOrdID-1533|22=4|38=350000|44=104|48=US29379VAW37|54=1|55=[N/A/]|63=3|67=1|29726=104.25|453=1|448=kauaiblckrcktrader1|447=C|452=11|10=079|8=FIX.4.4|9=740|35=E|34=26|49=kauaiblckrcktrader1|52=20210302-11:12:43.685|56=MA|66=ListID-020321-1534|394=2|68=5|73=5|11=ClOrdID-1535|22=4|38=100000|44=100|48=US06051GEN51|54=1|55=[N/A/]|63=3|67=1|423=1|29726=100.25|453=1|448=kauaiblckrcktrader1|447=C|452=11|11=ClOrdID-1536|22=4|38=100000|44=101|48=US40434AAB52|54=1|55=[N/A]|63=3|67=2|29726=101.25|11=ClOrdID-1537|22=4|38=130000|44=102|48=US95709TAH32|54=1|55=[N/A/]|63=3|67=1|29726=102.25|453=1|448=kauaiblckrcktrader1|447=C|452=11|11=ClOrdID-1538|22=4|38=250000|44=103|48=US427866AZ15|54=1|55=[N/A/]|63=3|67=1|29726=103.25|453=1|448=kauaiblckrcktrader1|447=C|452=11|11=ClOrdID-1539|22=4|38=350000|44=104|48=US29379VAW37|54=1|55=[N/A/]|63=3|67=1|29726=104.25|453=1|448=kauaiblckrcktrader1|447=C|452=11|10=104|8=FIX.4.4|9=740|35=E|34=27|49=kauaiblckrcktrader1|52=20210302-11:12:44.261|56=MA|66=ListID-020321-1540|394=2|68=5|73=5|11=ClOrdID-1541|22=4|38=100000|44=100|48=US06051GEN51|54=1|55=[N/A/]|63=3|67=1|423=1|29726=100.25|453=1|448=kauaiblckrcktrader1|447=C|452=11|11=ClOrdID-1542|22=4|38=100000|44=101|48=US40434AAB52|54=1|55=[N/A]|63=3|67=2|29726=101.25|11=ClOrdID-1543|22=4|38=130000|44=102|48=US95709TAH32|54=1|55=[N/A/]|63=3|67=1|29726=102.25|453=1|448=kauaiblckrcktrader1|447=C|452=11|11=ClOrdID-1544|22=4|38=250000|44=103|48=US427866AZ15|54=1|55=[N/A/]|63=3|67=1|29726=103.25|453=1|448=kauaiblckrcktrader1|447=C|452=11|11=ClOrdID-1545|22=4|38=350000|44=104|48=US29379VAW37|54=1|55=[N/A/]|63=3|67=1|29726=104.25|453=1|448=kauaiblckrcktrader1|447=C|452=11|10=078|8=FIX.4.4|9=65|35=0|34=28|49=kauaiblckrcktrader1|52=20210302-11:14:14.577|56=MA|10=049|8=FIX.4.4|9=65|35=0|34=29|49=kauaiblckrcktrader1|52=20210302-11:15:44.577|56=MA|10=054|8=FIX.4.4|9=65|35=0|34=30|49=kauaiblckrcktrader1|52=20210302-11:17:14.579|56=MA|10=047|8=FIX.4.4|9=65|35=0|34=31|49=kauaiblckrcktrader1|52=20210302-11:18:45.577|56=MA|10=051|8=FIX.4.4|9=65|35=0|34=32|49=kauaiblckrcktrader1|52=20210302-11:20:15.581|56=MA|10=037|8=FIX.4.4|9=65|35=0|34=33|49=kauaiblckrcktrader1|52=20210302-11:21:45.582|56=MA|10=043|8=FIX.4.4|9=65|35=0|34=34|49=kauaiblckrcktrader1|52=20210302-11:23:15.586|56=MA|10=047|8=FIX.4.4|9=65|35=0|34=35|49=kauaiblckrcktrader1|52=20210302-11:24:45.588|56=MA|10=054|8=FIX.4.4|9=65|35=0|34=36|49=kauaiblckrcktrader1|52=20210302-11:26:15.588|56=MA|10=054|8=FIX.4.4|9=65|35=0|34=37|49=kauaiblckrcktrader1|52=20210302-11:27:45.588|56=MA|10=059|8=FIX.4.4|9=740|35=E|34=38|49=kauaiblckrcktrader1|52=20210302-11:28:17.877|56=MA|66=ListID-020321-1546|394=2|68=5|73=5|11=ClOrdID-1547|22=4|38=100000|44=100|48=US06051GEN51|54=1|55=[N/A/]|63=3|67=1|423=1|29726=100.25|453=1|448=kauaiblckrcktrader1|447=C|452=11|11=ClOrdID-1548|22=4|38=100000|44=101|48=US40434AAB52|54=1|55=[N/A]|63=3|67=2|29726=101.25|11=ClOrdID-1549|22=4|38=130000|44=102|48=US95709TAH32|54=1|55=[N/A/]|63=3|67=1|29726=102.25|453=1|448=kauaiblckrcktrader1|447=C|452=11|11=ClOrdID-1550|22=4|38=250000|44=103|48=US427866AZ15|54=1|55=[N/A/]|63=3|67=1|29726=103.25|453=1|448=kauaiblckrcktrader1|447=C|452=11|11=ClOrdID-1551|22=4|38=350000|44=104|48=US29379VAW37|54=1|55=[N/A/]|63=3|67=1|29726=104.25|453=1|448=kauaiblckrcktrader1|447=C|452=11|10=118|8=FIX.4.4|9=740|35=E|34=39|49=kauaiblckrcktrader1|52=20210302-11:28:18.364|56=MA|66=ListID-020321-1552|394=2|68=5|73=5|11=ClOrdID-1553|22=4|38=100000|44=100|48=US06051GEN51|54=1|55=[N/A/]|63=3|67=1|423=1|29726=100.25|453=1|448=kauaiblckrcktrader1|447=C|452=11|11=ClOrdID-1554|22=4|38=100000|44=101|48=US40434AAB52|54=1|55=[N/A]|63=3|67=2|29726=101.25|11=ClOrdID-1555|22=4|38=130000|44=102|48=US95709TAH32|54=1|55=[N/A/]|63=3|67=1|29726=102.25|453=1|448=kauaiblckrcktrader1|447=C|452=11|11=ClOrdID-1556|22=4|38=250000|44=103|48=US427866AZ15|54=1|55=[N/A/]|63=3|67=1|29726=103.25|453=1|448=kauaiblckrcktrader1|447=C|452=11|11=ClOrdID-1557|22=4|38=350000|44=104|48=US29379VAW37|54=1|55=[N/A/]|63=3|67=1|29726=104.25|453=1|448=kauaiblckrcktrader1|447=C|452=11|10=111|8=FIX.4.4|9=740|35=E|34=40|49=kauaiblckrcktrader1|52=20210302-11:28:18.865|56=MA|66=ListID-020321-1558|394=2|68=5|73=5|11=ClOrdID-1559|22=4|38=100000|44=100|48=US06051GEN51|54=1|55=[N/A/]|63=3|67=1|423=1|29726=100.25|453=1|448=kauaiblckrcktrader1|447=C|452=11|11=ClOrdID-1560|22=4|38=100000|44=101|48=US40434AAB52|54=1|55=[N/A]|63=3|67=2|29726=101.25|11=ClOrdID-1561|22=4|38=130000|44=102|48=US95709TAH32|54=1|55=[N/A/]|63=3|67=1|29726=102.25|453=1|448=kauaiblckrcktrader1|447=C|452=11|11=ClOrdID-1562|22=4|38=250000|44=103|48=US427866AZ15|54=1|55=[N/A/]|63=3|67=1|29726=103.25|453=1|448=kauaiblckrcktrader1|447=C|452=11|11=ClOrdID-1563|22=4|38=350000|44=104|48=US29379VAW37|54=1|55=[N/A/]|63=3|67=1|29726=104.25|453=1|448=kauaiblckrcktrader1|447=C|452=11|10=109|8=FIX.4.4|9=65|35=0|34=41|49=kauaiblckrcktrader1|52=20210302-11:29:49.589|56=MA|10=061|8=FIX.4.4|9=65|35=0|34=42|49=kauaiblckrcktrader1|52=20210302-11:31:19.589|56=MA|10=052|8=FIX.4.4|9=65|35=0|34=43|49=kauaiblckrcktrader1|52=20210302-11:32:49.590|56=MA|10=049|8=FIX.4.4|9=65|35=0|34=44|49=kauaiblckrcktrader1|52=20210302-11:34:19.590|56=MA|10=049|8=FIX.4.4|9=65|35=0|34=45|49=kauaiblckrcktrader1|52=20210302-11:35:49.590|56=MA|10=054|8=FIX.4.4|9=65|35=0|34=46|49=kauaiblckrcktrader1|52=20210302-11:37:19.590|56=MA|10=054|8=FIX.4.4|9=65|35=0|34=47|49=kauaiblckrcktrader1|52=20210302-11:38:49.590|56=MA|10=059|8=FIX.4.4|9=65|35=0|34=48|49=kauaiblckrcktrader1|52=20210302-11:40:20.587|56=MA|10=048|8=FIX.4.4|9=65|35=0|34=49|49=kauaiblckrcktrader1|52=20210302-11:41:50.587|56=MA|10=053|8=FIX.4.4|9=99|35=A|34=1|49=kauaiblckrcktrader1|52=20210302-11:45:47.586|56=MA|98=0|108=90|95=8|96=3.0.0rc5|141=Y|10=240|8=FIX.4.4|9=739|35=E|34=2|49=kauaiblckrcktrader1|52=20210302-11:45:51.822|56=MA|66=ListID-020321-1564|394=2|68=5|73=5|11=ClOrdID-1565|22=4|38=100000|44=100|48=US06051GEN51|54=1|55=[N/A/]|63=3|67=1|423=1|29726=100.25|453=1|448=kauaiblckrcktrader1|447=C|452=11|11=ClOrdID-1566|22=4|38=100000|44=101|48=US40434AAB52|54=1|55=[N/A]|63=3|67=2|29726=101.25|11=ClOrdID-1567|22=4|38=130000|44=102|48=US95709TAH32|54=1|55=[N/A/]|63=3|67=1|29726=102.25|453=1|448=kauaiblckrcktrader1|447=C|452=11|11=ClOrdID-1568|22=4|38=250000|44=103|48=US427866AZ15|54=1|55=[N/A/]|63=3|67=1|29726=103.25|453=1|448=kauaiblckrcktrader1|447=C|452=11|11=ClOrdID-1569|22=4|38=350000|44=104|48=US29379VAW37|54=1|55=[N/A/]|63=3|67=1|29726=104.25|453=1|448=kauaiblckrcktrader1|447=C|452=11|10=074|8=FIX.4.4|9=739|35=E|34=3|49=kauaiblckrcktrader1|52=20210302-11:45:52.467|56=MA|66=ListID-020321-1570|394=2|68=5|73=5|11=ClOrdID-1571|22=4|38=100000|44=100|48=US06051GEN51|54=1|55=[N/A/]|63=3|67=1|423=1|29726=100.25|453=1|448=kauaiblckrcktrader1|447=C|452=11|11=ClOrdID-1572|22=4|38=100000|44=101|48=US40434AAB52|54=1|55=[N/A]|63=3|67=2|29726=101.25|11=ClOrdID-1573|22=4|38=130000|44=102|48=US95709TAH32|54=1|55=[N/A/]|63=3|67=1|29726=102.25|453=1|448=kauaiblckrcktrader1|447=C|452=11|11=ClOrdID-1574|22=4|38=250000|44=103|48=US427866AZ15|54=1|55=[N/A/]|63=3|67=1|29726=103.25|453=1|448=kauaiblckrcktrader1|447=C|452=11|11=ClOrdID-1575|22=4|38=350000|44=104|48=US29379VAW37|54=1|55=[N/A/]|63=3|67=1|29726=104.25|453=1|448=kauaiblckrcktrader1|447=C|452=11|10=063|8=FIX.4.4|9=739|35=E|34=4|49=kauaiblckrcktrader1|52=20210302-11:45:53.029|56=MA|66=ListID-020321-1576|394=2|68=5|73=5|11=ClOrdID-1577|22=4|38=100000|44=100|48=US06051GEN51|54=1|55=[N/A/]|63=3|67=1|423=1|29726=100.25|453=1|448=kauaiblckrcktrader1|447=C|452=11|11=ClOrdID-1578|22=4|38=100000|44=101|48=US40434AAB52|54=1|55=[N/A]|63=3|67=2|29726=101.25|11=ClOrdID-1579|22=4|38=130000|44=102|48=US95709TAH32|54=1|55=[N/A/]|63=3|67=1|29726=102.25|453=1|448=kauaiblckrcktrader1|447=C|452=11|11=ClOrdID-1580|22=4|38=250000|44=103|48=US427866AZ15|54=1|55=[N/A/]|63=3|67=1|29726=103.25|453=1|448=kauaiblckrcktrader1|447=C|452=11|11=ClOrdID-1581|22=4|38=350000|44=104|48=US29379VAW37|54=1|55=[N/A/]|63=3|67=1|29726=104.25|453=1|448=kauaiblckrcktrader1|447=C|452=11|10=077|8=FIX.4.4|9=739|35=E|34=5|49=kauaiblckrcktrader1|52=20210302-11:45:53.598|56=MA|66=ListID-020321-1582|394=2|68=5|73=5|11=ClOrdID-1583|22=4|38=100000|44=100|48=US06051GEN51|54=1|55=[N/A/]|63=3|67=1|423=1|29726=100.25|453=1|448=kauaiblckrcktrader1|447=C|452=11|11=ClOrdID-1584|22=4|38=100000|44=101|48=US40434AAB52|54=1|55=[N/A]|63=3|67=2|29726=101.25|11=ClOrdID-1585|22=4|38=130000|44=102|48=US95709TAH32|54=1|55=[N/A/]|63=3|67=1|29726=102.25|453=1|448=kauaiblckrcktrader1|447=C|452=11|11=ClOrdID-1586|22=4|38=250000|44=103|48=US427866AZ15|54=1|55=[N/A/]|63=3|67=1|29726=103.25|453=1|448=kauaiblckrcktrader1|447=C|452=11|11=ClOrdID-1587|22=4|38=350000|44=104|48=US29379VAW37|54=1|55=[N/A/]|63=3|67=1|29726=104.25|453=1|448=kauaiblckrcktrader1|447=C|452=11|10=089|8=FIX.4.4|9=739|35=E|34=6|49=kauaiblckrcktrader1|52=20210302-11:45:54.185|56=MA|66=ListID-020321-1588|394=2|68=5|73=5|11=ClOrdID-1589|22=4|38=100000|44=100|48=US06051GEN51|54=1|55=[N/A/]|63=3|67=1|423=1|29726=100.25|453=1|448=kauaiblckrcktrader1|447=C|452=11|11=ClOrdID-1590|22=4|38=100000|44=101|48=US40434AAB52|54=1|55=[N/A]|63=3|67=2|29726=101.25|11=ClOrdID-1591|22=4|38=130000|44=102|48=US95709TAH32|54=1|55=[N/A/]|63=3|67=1|29726=102.25|453=1|448=kauaiblckrcktrader1|447=C|452=11|11=ClOrdID-1592|22=4|38=250000|44=103|48=US427866AZ15|54=1|55=[N/A/]|63=3|67=1|29726=103.25|453=1|448=kauaiblckrcktrader1|447=C|452=11|11=ClOrdID-1593|22=4|38=350000|44=104|48=US29379VAW37|54=1|55=[N/A/]|63=3|67=1|29726=104.25|453=1|448=kauaiblckrcktrader1|447=C|452=11|10=083|8=FIX.4.4|9=64|35=0|34=7|49=kauaiblckrcktrader1|52=20210302-11:47:24.586|56=MA|10=004|8=FIX.4.4|9=64|35=0|34=8|49=kauaiblckrcktrader1|52=20210302-11:48:55.585|56=MA|10=009|8=FIX.4.4|9=64|35=0|34=9|49=kauaiblckrcktrader1|52=20210302-11:50:25.585|56=MA|10=000|8=FIX.4.4|9=65|35=0|34=10|49=kauaiblckrcktrader1|52=20210302-11:51:55.585|56=MA|10=045|8=FIX.4.4|9=65|35=0|34=11|49=kauaiblckrcktrader1|52=20210302-11:53:25.587|56=MA|10=047|8=FIX.4.4|9=65|35=0|34=12|49=kauaiblckrcktrader1|52=20210302-11:54:56.586|56=MA|10=052|8=FIX.4.4|9=65|35=0|34=13|49=kauaiblckrcktrader1|52=20210302-11:56:26.589|56=MA|10=055|8=FIX.4.4|9=65|35=0|34=14|49=kauaiblckrcktrader1|52=20210302-11:57:56.590|56=MA|10=052|8=FIX.4.4|9=65|35=0|34=15|49=kauaiblckrcktrader1|52=20210302-11:59:26.590|56=MA|10=052|8=FIX.4.4|9=65|35=0|34=16|49=kauaiblckrcktrader1|52=20210302-12:00:56.591|56=MA|10=044|8=FIX.4.4|9=65|35=0|34=17|49=kauaiblckrcktrader1|52=20210302-12:02:27.592|56=MA|10=046|8=FIX.4.4|9=65|35=0|34=18|49=kauaiblckrcktrader1|52=20210302-12:03:57.592|56=MA|10=051|8=FIX.4.4|9=65|35=0|34=19|49=kauaiblckrcktrader1|52=20210302-12:05:28.592|56=MA|10=052|8=FIX.4.4|9=65|35=0|34=20|49=kauaiblckrcktrader1|52=20210302-12:06:59.592|56=MA|10=049|8=FIX.4.4|9=65|35=0|34=21|49=kauaiblckrcktrader1|52=20210302-12:08:29.592|56=MA|10=049|8=FIX.4.4|9=65|35=0|34=22|49=kauaiblckrcktrader1|52=20210302-12:10:00.592|56=MA|10=032|8=FIX.4.4|9=65|35=0|34=23|49=kauaiblckrcktrader1|52=20210302-12:11:31.591|56=MA|10=037|8=FIX.4.4|9=65|35=0|34=24|49=kauaiblckrcktrader1|52=20210302-12:13:01.592|56=MA|10=038|8=FIX.4.4|9=65|35=0|34=25|49=kauaiblckrcktrader1|52=20210302-12:14:31.593|56=MA|10=044|8=FIX.4.4|9=65|35=0|34=26|49=kauaiblckrcktrader1|52=20210302-12:16:01.593|56=MA|10=044|8=FIX.4.4|9=65|35=0|34=27|49=kauaiblckrcktrader1|52=20210302-12:17:32.591|56=MA|10=048|8=FIX.4.4|9=65|35=0|34=28|49=kauaiblckrcktrader1|52=20210302-12:19:02.591|56=MA|10=048|8=FIX.4.4|9=65|35=0|34=29|49=kauaiblckrcktrader1|52=20210302-12:20:32.592|56=MA|10=045|8=FIX.4.4|9=65|35=0|34=30|49=kauaiblckrcktrader1|52=20210302-12:22:03.593|56=MA|10=038|8=FIX.4.4|9=65|35=0|34=31|49=kauaiblckrcktrader1|52=20210302-12:23:34.592|56=MA|10=043|8=FIX.4.4|9=65|35=0|34=32|49=kauaiblckrcktrader1|52=20210302-12:25:04.593|56=MA|10=044|8=FIX.4.4|9=65|35=0|34=33|49=kauaiblckrcktrader1|52=20210302-12:26:34.593|56=MA|10=049|8=FIX.4.4|9=65|35=0|34=34|49=kauaiblckrcktrader1|52=20210302-12:28:04.593|56=MA|10=049|8=FIX.4.4|9=65|35=0|34=35|49=kauaiblckrcktrader1|52=20210302-12:29:34.594|56=MA|10=055|8=FIX.4.4|9=65|35=0|34=36|49=kauaiblckrcktrader1|52=20210302-12:31:04.595|56=MA|10=047|8=FIX.4.4|9=65|35=0|34=37|49=kauaiblckrcktrader1|52=20210302-12:32:34.598|56=MA|10=055|8=FIX.4.4|9=65|35=0|34=38|49=kauaiblckrcktrader1|52=20210302-12:34:04.599|56=MA|10=056|8=FIX.4.4|9=65|35=0|34=39|49=kauaiblckrcktrader1|52=20210302-12:35:35.598|56=MA|10=061|8=FIX.4.4|9=65|35=0|34=40|49=kauaiblckrcktrader1|52=20210302-12:37:05.599|56=MA|10=053|8=FIX.4.4|9=65|35=0|34=41|49=kauaiblckrcktrader1|52=20210302-12:38:35.601|56=MA|10=042|8=FIX.4.4|9=65|35=0|34=42|49=kauaiblckrcktrader1|52=20210302-12:40:06.600|56=MA|10=033|8=FIX.4.4|9=65|35=0|34=43|49=kauaiblckrcktrader1|52=20210302-12:41:36.601|56=MA|10=039|8=FIX.4.4|9=65|35=0|34=44|49=kauaiblckrcktrader1|52=20210302-12:43:06.601|56=MA|10=039|8=FIX.4.4|9=65|35=0|34=45|49=kauaiblckrcktrader1|52=20210302-12:44:36.602|56=MA|10=045|8=FIX.4.4|9=65|35=0|34=46|49=kauaiblckrcktrader1|52=20210302-12:46:06.603|56=MA|10=046|8=FIX.4.4|9=65|35=0|34=47|49=kauaiblckrcktrader1|52=20210302-12:47:36.603|56=MA|10=051|8=FIX.4.4|9=65|35=0|34=48|49=kauaiblckrcktrader1|52=20210302-12:49:06.604|56=MA|10=052|8=FIX.4.4|9=65|35=0|34=49|49=kauaiblckrcktrader1|52=20210302-12:50:36.605|56=MA|10=049|8=FIX.4.4|9=65|35=0|34=50|49=kauaiblckrcktrader1|52=20210302-12:52:07.604|56=MA|10=040|8=FIX.4.4|9=65|35=0|34=51|49=kauaiblckrcktrader1|52=20210302-12:53:37.605|56=MA|10=046|8=FIX.4.4|9=65|35=0|34=52|49=kauaiblckrcktrader1|52=20210302-12:55:08.604|56=MA|10=046|8=FIX.4.4|9=65|35=0|34=53|49=kauaiblckrcktrader1|52=20210302-12:56:38.606|56=MA|10=053|8=FIX.4.4|9=65|35=0|34=54|49=kauaiblckrcktrader1|52=20210302-12:58:08.606|56=MA|10=053|8=FIX.4.4|9=65|35=0|34=55|49=kauaiblckrcktrader1|52=20210302-12:59:39.604|56=MA|10=057|8=FIX.4.4|9=65|35=0|34=56|49=kauaiblckrcktrader1|52=20210302-13:01:09.605|56=MA|10=044|8=FIX.4.4|9=65|35=0|34=57|49=kauaiblckrcktrader1|52=20210302-13:02:39.606|56=MA|10=050|8=FIX.4.4|9=65|35=0|34=58|49=kauaiblckrcktrader1|52=20210302-13:04:09.608|56=MA|10=052|8=FIX.4.4|9=65|35=0|34=59|49=kauaiblckrcktrader1|52=20210302-13:05:39.610|56=MA|10=050|8=FIX.4.4|9=65|35=0|34=60|49=kauaiblckrcktrader1|52=20210302-13:07:09.611|56=MA|10=042|8=FIX.4.4|9=65|35=0|34=61|49=kauaiblckrcktrader1|52=20210302-13:08:40.610|56=MA|10=038|8=FIX.4.4|9=65|35=0|34=62|49=kauaiblckrcktrader1|52=20210302-13:10:10.612|56=MA|10=031|8=FIX.4.4|9=65|35=0|34=63|49=kauaiblckrcktrader1|52=20210302-13:11:40.612|56=MA|10=036|8=FIX.4.4|9=65|35=0|34=64|49=kauaiblckrcktrader1|52=20210302-13:13:10.614|56=MA|10=038|8=FIX.4.4|9=65|35=0|34=65|49=kauaiblckrcktrader1|52=20210302-13:14:40.615|56=MA|10=044|8=FIX.4.4|9=65|35=0|34=66|49=kauaiblckrcktrader1|52=20210302-13:16:10.615|56=MA|10=044|8=FIX.4.4|9=65|35=0|34=67|49=kauaiblckrcktrader1|52=20210302-13:17:41.615|56=MA|10=050|8=FIX.4.4|9=65|35=0|34=68|49=kauaiblckrcktrader1|52=20210302-13:19:11.615|56=MA|10=050|8=FIX.4.4|9=65|35=0|34=69|49=kauaiblckrcktrader1|52=20210302-13:20:41.616|56=MA|10=047|8=FIX.4.4|9=65|35=0|34=70|49=kauaiblckrcktrader1|52=20210302-13:22:11.616|56=MA|10=038|8=FIX.4.4|9=65|35=0|34=71|49=kauaiblckrcktrader1|52=20210302-13:23:41.616|56=MA|10=043|8=FIX.4.4|9=65|35=0|34=72|49=kauaiblckrcktrader1|52=20210302-13:25:11.616|56=MA|10=043|8=FIX.4.4|9=65|35=0|34=73|49=kauaiblckrcktrader1|52=20210302-13:26:41.616|56=MA|10=048|8=FIX.4.4|9=65|35=0|34=74|49=kauaiblckrcktrader1|52=20210302-13:28:11.617|56=MA|10=049|8=FIX.4.4|9=65|35=0|34=75|49=kauaiblckrcktrader1|52=20210302-13:29:41.617|56=MA|10=054|8=FIX.4.4|9=65|35=0|34=76|49=kauaiblckrcktrader1|52=20210302-13:31:11.619|56=MA|10=047|8=FIX.4.4|9=65|35=0|34=77|49=kauaiblckrcktrader1|52=20210302-13:32:42.617|56=MA|10=051|8=FIX.4.4|9=65|35=0|34=78|49=kauaiblckrcktrader1|52=20210302-13:34:12.618|56=MA|10=052|8=FIX.4.4|9=65|35=0|34=79|49=kauaiblckrcktrader1|52=20210302-13:35:43.618|56=MA|10=058|8=FIX.4.4|9=65|35=0|34=80|49=kauaiblckrcktrader1|52=20210302-13:37:13.619|56=MA|10=050|8=FIX.4.4|9=65|35=0|34=81|49=kauaiblckrcktrader1|52=20210302-13:38:43.619|56=MA|10=055|8=FIX.4.4|9=65|35=0|34=82|49=kauaiblckrcktrader1|52=20210302-13:40:13.673|56=MA|10=046|8=FIX.4.4|9=65|35=0|34=83|49=kauaiblckrcktrader1|52=20210302-13:41:44.618|56=MA|10=051|8=FIX.4.4|9=65|35=0|34=84|49=kauaiblckrcktrader1|52=20210302-13:43:14.619|56=MA|10=052|8=FIX.4.4|9=99|35=A|34=1|49=kauaiblckrcktrader1|52=20210303-09:58:31.883|56=MA|98=0|108=90|95=8|96=3.0.0rc5|141=Y|10=245|8=FIX.4.4|9=739|35=E|34=2|49=kauaiblckrcktrader1|52=20210303-09:59:13.533|56=MA|66=ListID-030321-1594|394=2|68=5|73=5|11=ClOrdID-1595|22=4|38=100000|44=100|48=US06051GEN51|54=1|55=[N/A/]|63=3|67=1|423=1|29726=100.25|453=1|448=kauaiblckrcktrader1|447=C|452=11|11=ClOrdID-1596|22=4|38=100000|44=101|48=US40434AAB52|54=1|55=[N/A]|63=3|67=2|29726=101.25|11=ClOrdID-1597|22=4|38=130000|44=102|48=US95709TAH32|54=1|55=[N/A/]|63=3|67=1|29726=102.25|453=1|448=kauaiblckrcktrader1|447=C|452=11|11=ClOrdID-1598|22=4|38=250000|44=103|48=US427866AZ15|54=1|55=[N/A/]|63=3|67=1|29726=103.25|453=1|448=kauaiblckrcktrader1|447=C|452=11|11=ClOrdID-1599|22=4|38=350000|44=104|48=US29379VAW37|54=1|55=[N/A/]|63=3|67=1|29726=104.25|453=1|448=kauaiblckrcktrader1|447=C|452=11|10=103|8=FIX.4.4|9=739|35=E|34=3|49=kauaiblckrcktrader1|52=20210303-09:59:16.226|56=MA|66=ListID-030321-1600|394=2|68=5|73=5|11=ClOrdID-1601|22=4|38=100000|44=100|48=US06051GEN51|54=1|55=[N/A/]|63=3|67=1|423=1|29726=100.25|453=1|448=kauaiblckrcktrader1|447=C|452=11|11=ClOrdID-1602|22=4|38=100000|44=101|48=US40434AAB52|54=1|55=[N/A]|63=3|67=2|29726=101.25|11=ClOrdID-1603|22=4|38=130000|44=102|48=US95709TAH32|54=1|55=[N/A/]|63=3|67=1|29726=102.25|453=1|448=kauaiblckrcktrader1|447=C|452=11|11=ClOrdID-1604|22=4|38=250000|44=103|48=US427866AZ15|54=1|55=[N/A/]|63=3|67=1|29726=103.25|453=1|448=kauaiblckrcktrader1|447=C|452=11|11=ClOrdID-1605|22=4|38=350000|44=104|48=US29379VAW37|54=1|55=[N/A/]|63=3|67=1|29726=104.25|453=1|448=kauaiblckrcktrader1|447=C|452=11|10=034|8=FIX.4.4|9=739|35=E|34=4|49=kauaiblckrcktrader1|52=20210303-09:59:16.635|56=MA|66=ListID-030321-1606|394=2|68=5|73=5|11=ClOrdID-1607|22=4|38=100000|44=100|48=US06051GEN51|54=1|55=[N/A/]|63=3|67=1|423=1|29726=100.25|453=1|448=kauaiblckrcktrader1|447=C|452=11|11=ClOrdID-1608|22=4|38=100000|44=101|48=US40434AAB52|54=1|55=[N/A]|63=3|67=2|29726=101.25|11=ClOrdID-1609|22=4|38=130000|44=102|48=US95709TAH32|54=1|55=[N/A/]|63=3|67=1|29726=102.25|453=1|448=kauaiblckrcktrader1|447=C|452=11|11=ClOrdID-1610|22=4|38=250000|44=103|48=US427866AZ15|54=1|55=[N/A/]|63=3|67=1|29726=103.25|453=1|448=kauaiblckrcktrader1|447=C|452=11|11=ClOrdID-1611|22=4|38=350000|44=104|48=US29379VAW37|54=1|55=[N/A/]|63=3|67=1|29726=104.25|453=1|448=kauaiblckrcktrader1|447=C|452=11|10=057|8=FIX.4.4|9=64|35=0|34=5|49=kauaiblckrcktrader1|52=20210303-10:00:46.876|56=MA|10=253|8=FIX.4.4|9=64|35=5|34=6|49=kauaiblckrcktrader1|52=20210303-10:01:51.874|56=MA|10=254|8=FIX.4.4|9=99|35=A|34=1|49=kauaiblckrcktrader1|52=20210303-10:01:53.875|56=MA|98=0|108=90|95=8|96=3.0.0rc5|141=Y|10=230|8=FIX.4.4|9=739|35=E|34=2|49=kauaiblckrcktrader1|52=20210303-10:01:58.189|56=MA|66=ListID-030321-1612|394=2|68=5|73=5|11=ClOrdID-1613|22=4|38=100000|44=100|48=US06051GEN51|54=1|55=[N/A/]|63=3|67=1|423=1|29726=100.25|453=1|448=kauaiblckrcktrader1|447=C|452=11|11=ClOrdID-1614|22=4|38=100000|44=101|48=US40434AAB52|54=1|55=[N/A]|63=3|67=2|29726=101.25|11=ClOrdID-1615|22=4|38=130000|44=102|48=US95709TAH32|54=1|55=[N/A/]|63=3|67=1|29726=102.25|453=1|448=kauaiblckrcktrader1|447=C|452=11|11=ClOrdID-1616|22=4|38=250000|44=103|48=US427866AZ15|54=1|55=[N/A/]|63=3|67=1|29726=103.25|453=1|448=kauaiblckrcktrader1|447=C|452=11|11=ClOrdID-1617|22=4|38=350000|44=104|48=US29379VAW37|54=1|55=[N/A/]|63=3|67=1|29726=104.25|453=1|448=kauaiblckrcktrader1|447=C|452=11|10=044|8=FIX.4.4|9=739|35=E|34=3|49=kauaiblckrcktrader1|52=20210303-10:01:58.768|56=MA|66=ListID-030321-1618|394=2|68=5|73=5|11=ClOrdID-1619|22=4|38=100000|44=100|48=US06051GEN51|54=1|55=[N/A/]|63=3|67=1|423=1|29726=100.25|453=1|448=kauaiblckrcktrader1|447=C|452=11|11=ClOrdID-1620|22=4|38=100000|44=101|48=US40434AAB52|54=1|55=[N/A]|63=3|67=2|29726=101.25|11=ClOrdID-1621|22=4|38=130000|44=102|48=US95709TAH32|54=1|55=[N/A/]|63=3|67=1|29726=102.25|453=1|448=kauaiblckrcktrader1|447=C|452=11|11=ClOrdID-1622|22=4|38=250000|44=103|48=US427866AZ15|54=1|55=[N/A/]|63=3|67=1|29726=103.25|453=1|448=kauaiblckrcktrader1|447=C|452=11|11=ClOrdID-1623|22=4|38=350000|44=104|48=US29379VAW37|54=1|55=[N/A/]|63=3|67=1|29726=104.25|453=1|448=kauaiblckrcktrader1|447=C|452=11|10=048|8=FIX.4.4|9=739|35=E|34=4|49=kauaiblckrcktrader1|52=20210303-10:01:59.162|56=MA|66=ListID-030321-1624|394=2|68=5|73=5|11=ClOrdID-1625|22=4|38=100000|44=100|48=US06051GEN51|54=1|55=[N/A/]|63=3|67=1|423=1|29726=100.25|453=1|448=kauaiblckrcktrader1|447=C|452=11|11=ClOrdID-1626|22=4|38=100000|44=101|48=US40434AAB52|54=1|55=[N/A]|63=3|67=2|29726=101.25|11=ClOrdID-1627|22=4|38=130000|44=102|48=US95709TAH32|54=1|55=[N/A/]|63=3|67=1|29726=102.25|453=1|448=kauaiblckrcktrader1|447=C|452=11|11=ClOrdID-1628|22=4|38=250000|44=103|48=US427866AZ15|54=1|55=[N/A/]|63=3|67=1|29726=103.25|453=1|448=kauaiblckrcktrader1|447=C|452=11|11=ClOrdID-1629|22=4|38=350000|44=104|48=US29379VAW37|54=1|55=[N/A/]|63=3|67=1|29726=104.25|453=1|448=kauaiblckrcktrader1|447=C|452=11|10=056|8=FIX.4.4|9=739|35=E|34=5|49=kauaiblckrcktrader1|52=20210303-10:01:59.397|56=MA|66=ListID-030321-1630|394=2|68=5|73=5|11=ClOrdID-1631|22=4|38=100000|44=100|48=US06051GEN51|54=1|55=[N/A/]|63=3|67=1|423=1|29726=100.25|453=1|448=kauaiblckrcktrader1|447=C|452=11|11=ClOrdID-1632|22=4|38=100000|44=101|48=US40434AAB52|54=1|55=[N/A]|63=3|67=2|29726=101.25|11=ClOrdID-1633|22=4|38=130000|44=102|48=US95709TAH32|54=1|55=[N/A/]|63=3|67=1|29726=102.25|453=1|448=kauaiblckrcktrader1|447=C|452=11|11=ClOrdID-1634|22=4|38=250000|44=103|48=US427866AZ15|54=1|55=[N/A/]|63=3|67=1|29726=103.25|453=1|448=kauaiblckrcktrader1|447=C|452=11|11=ClOrdID-1635|22=4|38=350000|44=104|48=US29379VAW37|54=1|55=[N/A/]|63=3|67=1|29726=104.25|453=1|448=kauaiblckrcktrader1|447=C|452=11|10=049|8=FIX.4.4|9=739|35=E|34=6|49=kauaiblckrcktrader1|52=20210303-10:02:00.003|56=MA|66=ListID-030321-1636|394=2|68=5|73=5|11=ClOrdID-1637|22=4|38=100000|44=100|48=US06051GEN51|54=1|55=[N/A/]|63=3|67=1|423=1|29726=100.25|453=1|448=kauaiblckrcktrader1|447=C|452=11|11=ClOrdID-1638|22=4|38=100000|44=101|48=US40434AAB52|54=1|55=[N/A]|63=3|67=2|29726=101.25|11=ClOrdID-1639|22=4|38=130000|44=102|48=US95709TAH32|54=1|55=[N/A/]|63=3|67=1|29726=102.25|453=1|448=kauaiblckrcktrader1|447=C|452=11|11=ClOrdID-1640|22=4|38=250000|44=103|48=US427866AZ15|54=1|55=[N/A/]|63=3|67=1|29726=103.25|453=1|448=kauaiblckrcktrader1|447=C|452=11|11=ClOrdID-1641|22=4|38=350000|44=104|48=US29379VAW37|54=1|55=[N/A/]|63=3|67=1|29726=104.25|453=1|448=kauaiblckrcktrader1|447=C|452=11|10=039|8=FIX.4.4|9=64|35=0|34=7|49=kauaiblckrcktrader1|52=20210303-10:03:30.875|56=MA|10=250|8=FIX.4.4|9=64|35=0|34=8|49=kauaiblckrcktrader1|52=20210303-10:05:00.875|56=MA|10=250|8=FIX.4.4|9=64|35=0|34=9|49=kauaiblckrcktrader1|52=20210303-10:06:31.372|56=MA|10=248|8=FIX.4.4|9=65|35=0|34=10|49=kauaiblckrcktrader1|52=20210303-10:08:01.874|56=MA|10=039|8=FIX.4.4|9=65|35=0|34=11|49=kauaiblckrcktrader1|52=20210303-10:09:31.874|56=MA|10=044|8=FIX.4.4|9=65|35=0|34=12|49=kauaiblckrcktrader1|52=20210303-10:11:01.875|56=MA|10=036|8=FIX.4.4|9=740|35=E|34=13|49=kauaiblckrcktrader1|52=20210303-10:11:37.651|56=MA|66=ListID-030321-1642|394=2|68=5|73=5|11=ClOrdID-1643|22=4|38=100000|44=100|48=US06051GEN51|54=1|55=[N/A/]|63=3|67=1|423=1|29726=100.25|453=1|448=kauaiblckrcktrader1|447=C|452=11|11=ClOrdID-1644|22=4|38=100000|44=101|48=US40434AAB52|54=1|55=[N/A]|63=3|67=2|29726=101.25|11=ClOrdID-1645|22=4|38=130000|44=102|48=US95709TAH32|54=1|55=[N/A/]|63=3|67=1|29726=102.25|453=1|448=kauaiblckrcktrader1|447=C|452=11|11=ClOrdID-1646|22=4|38=250000|44=103|48=US427866AZ15|54=1|55=[N/A/]|63=3|67=1|29726=103.25|453=1|448=kauaiblckrcktrader1|447=C|452=11|11=ClOrdID-1647|22=4|38=350000|44=104|48=US29379VAW37|54=1|55=[N/A/]|63=3|67=1|29726=104.25|453=1|448=kauaiblckrcktrader1|447=C|452=11|10=096|8=FIX.4.4|9=740|35=E|34=14|49=kauaiblckrcktrader1|52=20210303-10:11:38.323|56=MA|66=ListID-030321-1648|394=2|68=5|73=5|11=ClOrdID-1649|22=4|38=100000|44=100|48=US06051GEN51|54=1|55=[N/A/]|63=3|67=1|423=1|29726=100.25|453=1|448=kauaiblckrcktrader1|447=C|452=11|11=ClOrdID-1650|22=4|38=100000|44=101|48=US40434AAB52|54=1|55=[N/A]|63=3|67=2|29726=101.25|11=ClOrdID-1651|22=4|38=130000|44=102|48=US95709TAH32|54=1|55=[N/A/]|63=3|67=1|29726=102.25|453=1|448=kauaiblckrcktrader1|447=C|452=11|11=ClOrdID-1652|22=4|38=250000|44=103|48=US427866AZ15|54=1|55=[N/A/]|63=3|67=1|29726=103.25|453=1|448=kauaiblckrcktrader1|447=C|452=11|11=ClOrdID-1653|22=4|38=350000|44=104|48=US29379VAW37|54=1|55=[N/A/]|63=3|67=1|29726=104.25|453=1|448=kauaiblckrcktrader1|447=C|452=11|10=094|8=FIX.4.4|9=740|35=E|34=15|49=kauaiblckrcktrader1|52=20210303-10:11:38.675|56=MA|66=ListID-030321-1654|394=2|68=5|73=5|11=ClOrdID-1655|22=4|38=100000|44=100|48=US06051GEN51|54=1|55=[N/A/]|63=3|67=1|423=1|29726=100.25|453=1|448=kauaiblckrcktrader1|447=C|452=11|11=ClOrdID-1656|22=4|38=100000|44=101|48=US40434AAB52|54=1|55=[N/A]|63=3|67=2|29726=101.25|11=ClOrdID-1657|22=4|38=130000|44=102|48=US95709TAH32|54=1|55=[N/A/]|63=3|67=1|29726=102.25|453=1|448=kauaiblckrcktrader1|447=C|452=11|11=ClOrdID-1658|22=4|38=250000|44=103|48=US427866AZ15|54=1|55=[N/A/]|63=3|67=1|29726=103.25|453=1|448=kauaiblckrcktrader1|447=C|452=11|11=ClOrdID-1659|22=4|38=350000|44=104|48=US29379VAW37|54=1|55=[N/A/]|63=3|67=1|29726=104.25|453=1|448=kauaiblckrcktrader1|447=C|452=11|10=123|8=FIX.4.4|9=740|35=E|34=16|49=kauaiblckrcktrader1|52=20210303-10:11:39.128|56=MA|66=ListID-030321-1660|394=2|68=5|73=5|11=ClOrdID-1661|22=4|38=100000|44=100|48=US06051GEN51|54=1|55=[N/A/]|63=3|67=1|423=1|29726=100.25|453=1|448=kauaiblckrcktrader1|447=C|452=11|11=ClOrdID-1662|22=4|38=100000|44=101|48=US40434AAB52|54=1|55=[N/A]|63=3|67=2|29726=101.25|11=ClOrdID-1663|22=4|38=130000|44=102|48=US95709TAH32|54=1|55=[N/A/]|63=3|67=1|29726=102.25|453=1|448=kauaiblckrcktrader1|447=C|452=11|11=ClOrdID-1664|22=4|38=250000|44=103|48=US427866AZ15|54=1|55=[N/A/]|63=3|67=1|29726=103.25|453=1|448=kauaiblckrcktrader1|447=C|452=11|11=ClOrdID-1665|22=4|38=350000|44=104|48=US29379VAW37|54=1|55=[N/A/]|63=3|67=1|29726=104.25|453=1|448=kauaiblckrcktrader1|447=C|452=11|10=100|8=FIX.4.4|9=740|35=E|34=17|49=kauaiblckrcktrader1|52=20210303-10:11:39.485|56=MA|66=ListID-030321-1666|394=2|68=5|73=5|11=ClOrdID-1667|22=4|38=100000|44=100|48=US06051GEN51|54=1|55=[N/A/]|63=3|67=1|423=1|29726=100.25|453=1|448=kauaiblckrcktrader1|447=C|452=11|11=ClOrdID-1668|22=4|38=100000|44=101|48=US40434AAB52|54=1|55=[N/A]|63=3|67=2|29726=101.25|11=ClOrdID-1669|22=4|38=130000|44=102|48=US95709TAH32|54=1|55=[N/A/]|63=3|67=1|29726=102.25|453=1|448=kauaiblckrcktrader1|447=C|452=11|11=ClOrdID-1670|22=4|38=250000|44=103|48=US427866AZ15|54=1|55=[N/A/]|63=3|67=1|29726=103.25|453=1|448=kauaiblckrcktrader1|447=C|452=11|11=ClOrdID-1671|22=4|38=350000|44=104|48=US29379VAW37|54=1|55=[N/A/]|63=3|67=1|29726=104.25|453=1|448=kauaiblckrcktrader1|447=C|452=11|10=125|8=FIX.4.4|9=740|35=E|34=18|49=kauaiblckrcktrader1|52=20210303-10:11:58.543|56=MA|66=ListID-030321-1672|394=2|68=5|73=5|11=ClOrdID-1673|22=4|38=100000|44=100|48=US06051GEN51|54=1|55=[N/A/]|63=3|67=1|423=1|29726=100.25|453=1|448=kauaiblckrcktrader1|447=C|452=11|11=ClOrdID-1674|22=4|38=100000|44=101|48=US40434AAB52|54=1|55=[N/A]|63=3|67=2|29726=101.25|11=ClOrdID-1675|22=4|38=130000|44=102|48=US95709TAH32|54=1|55=[N/A/]|63=3|67=1|29726=102.25|453=1|448=kauaiblckrcktrader1|447=C|452=11|11=ClOrdID-1676|22=4|38=250000|44=103|48=US427866AZ15|54=1|55=[N/A/]|63=3|67=1|29726=103.25|453=1|448=kauaiblckrcktrader1|447=C|452=11|11=ClOrdID-1677|22=4|38=350000|44=104|48=US29379VAW37|54=1|55=[N/A/]|63=3|67=1|29726=104.25|453=1|448=kauaiblckrcktrader1|447=C|452=11|10=122|8=FIX.4.4|9=740|35=E|34=19|49=kauaiblckrcktrader1|52=20210303-10:11:59.013|56=MA|66=ListID-030321-1678|394=2|68=5|73=5|11=ClOrdID-1679|22=4|38=100000|44=100|48=US06051GEN51|54=1|55=[N/A/]|63=3|67=1|423=1|29726=100.25|453=1|448=kauaiblckrcktrader1|447=C|452=11|11=ClOrdID-1680|22=4|38=100000|44=101|48=US40434AAB52|54=1|55=[N/A]|63=3|67=2|29726=101.25|11=ClOrdID-1681|22=4|38=130000|44=102|48=US95709TAH32|54=1|55=[N/A/]|63=3|67=1|29726=102.25|453=1|448=kauaiblckrcktrader1|447=C|452=11|11=ClOrdID-1682|22=4|38=250000|44=103|48=US427866AZ15|54=1|55=[N/A/]|63=3|67=1|29726=103.25|453=1|448=kauaiblckrcktrader1|447=C|452=11|11=ClOrdID-1683|22=4|38=350000|44=104|48=US29379VAW37|54=1|55=[N/A/]|63=3|67=1|29726=104.25|453=1|448=kauaiblckrcktrader1|447=C|452=11|10=116|8=FIX.4.4|9=740|35=E|34=20|49=kauaiblckrcktrader1|52=20210303-10:11:59.427|56=MA|66=ListID-030321-1684|394=2|68=5|73=5|11=ClOrdID-1685|22=4|38=100000|44=100|48=US06051GEN51|54=1|55=[N/A/]|63=3|67=1|423=1|29726=100.25|453=1|448=kauaiblckrcktrader1|447=C|452=11|11=ClOrdID-1686|22=4|38=100000|44=101|48=US40434AAB52|54=1|55=[N/A]|63=3|67=2|29726=101.25|11=ClOrdID-1687|22=4|38=130000|44=102|48=US95709TAH32|54=1|55=[N/A/]|63=3|67=1|29726=102.25|453=1|448=kauaiblckrcktrader1|447=C|452=11|11=ClOrdID-1688|22=4|38=250000|44=103|48=US427866AZ15|54=1|55=[N/A/]|63=3|67=1|29726=103.25|453=1|448=kauaiblckrcktrader1|447=C|452=11|11=ClOrdID-1689|22=4|38=350000|44=104|48=US29379VAW37|54=1|55=[N/A/]|63=3|67=1|29726=104.25|453=1|448=kauaiblckrcktrader1|447=C|452=11|10=135|8=FIX.4.4|9=65|35=0|34=21|49=kauaiblckrcktrader1|52=20210303-10:13:29.874|56=MA|10=047|8=FIX.4.4|9=65|35=0|34=22|49=kauaiblckrcktrader1|52=20210303-10:14:59.874|56=MA|10=052|8=FIX.4.4|9=65|35=0|34=23|49=kauaiblckrcktrader1|52=20210303-10:16:29.874|56=MA|10=052|8=FIX.4.4|9=65|35=0|34=24|49=kauaiblckrcktrader1|52=20210303-10:18:00.871|56=MA|10=041|8=FIX.4.4|9=65|35=0|34=25|49=kauaiblckrcktrader1|52=20210303-10:19:31.373|56=MA|10=044|8=FIX.4.4|9=65|35=0|34=26|49=kauaiblckrcktrader1|52=20210303-10:21:01.871|56=MA|10=038|8=FIX.4.4|9=65|35=0|34=27|49=kauaiblckrcktrader1|52=20210303-10:22:32.375|56=MA|10=043|8=FIX.4.4|9=65|35=0|34=28|49=kauaiblckrcktrader1|52=20210303-10:24:02.870|56=MA|10=043|8=FIX.4.4|9=65|35=0|34=29|49=kauaiblckrcktrader1|52=20210303-10:25:32.870|56=MA|10=048|8=FIX.4.4|9=65|35=0|34=30|49=kauaiblckrcktrader1|52=20210303-10:27:03.364|56=MA|10=038|8=FIX.4.4|9=65|35=0|34=31|49=kauaiblckrcktrader1|52=20210303-10:28:33.383|56=MA|10=044|8=FIX.4.4|9=65|35=0|34=32|49=kauaiblckrcktrader1|52=20210303-10:30:03.869|56=MA|10=044|8=FIX.4.4|9=65|35=0|34=33|49=kauaiblckrcktrader1|52=20210303-10:31:34.369|56=MA|10=045|8=FIX.4.4|9=65|35=0|34=34|49=kauaiblckrcktrader1|52=20210303-10:33:04.372|56=MA|10=039|8=FIX.4.4|9=65|35=0|34=35|49=kauaiblckrcktrader1|52=20210303-10:34:34.870|56=MA|10=047|8=FIX.4.4|9=65|35=0|34=36|49=kauaiblckrcktrader1|52=20210303-10:36:05.370|56=MA|10=043|8=FIX.4.4|9=65|35=0|34=37|49=kauaiblckrcktrader1|52=20210303-10:37:35.871|56=MA|10=054|8=FIX.4.4|9=65|35=0|34=38|49=kauaiblckrcktrader1|52=20210303-10:39:05.876|56=MA|10=059|8=FIX.4.4|9=99|35=A|34=1|49=kauaiblckrcktrader1|52=20210303-11:18:13.889|56=MA|98=0|108=90|95=8|96=3.0.0rc5|141=Y|10=240|8=FIX.4.4|9=739|35=E|34=2|49=kauaiblckrcktrader1|52=20210303-11:18:18.936|56=MA|66=ListID-030321-1690|394=2|68=5|73=5|11=ClOrdID-1691|22=4|38=100000|44=100|48=US06051GEN51|54=1|55=[N/A/]|63=3|67=1|423=1|29726=100.25|453=1|448=kauaiblckrcktrader1|447=C|452=11|11=ClOrdID-1692|22=4|38=100000|44=101|48=US40434AAB52|54=1|55=[N/A]|63=3|67=2|29726=101.25|11=ClOrdID-1693|22=4|38=130000|44=102|48=US95709TAH32|54=1|55=[N/A/]|63=3|67=1|29726=102.25|453=1|448=kauaiblckrcktrader1|447=C|452=11|11=ClOrdID-1694|22=4|38=250000|44=103|48=US427866AZ15|54=1|55=[N/A/]|63=3|67=1|29726=103.25|453=1|448=kauaiblckrcktrader1|447=C|452=11|11=ClOrdID-1695|22=4|38=350000|44=104|48=US29379VAW37|54=1|55=[N/A/]|63=3|67=1|29726=104.25|453=1|448=kauaiblckrcktrader1|447=C|452=11|10=085|8=FIX.4.4|9=739|35=E|34=3|49=kauaiblckrcktrader1|52=20210303-11:18:19.484|56=MA|66=ListID-030321-1696|394=2|68=5|73=5|11=ClOrdID-1697|22=4|38=100000|44=100|48=US06051GEN51|54=1|55=[N/A/]|63=3|67=1|423=1|29726=100.25|453=1|448=kauaiblckrcktrader1|447=C|452=11|11=ClOrdID-1698|22=4|38=100000|44=101|48=US40434AAB52|54=1|55=[N/A]|63=3|67=2|29726=101.25|11=ClOrdID-1699|22=4|38=130000|44=102|48=US95709TAH32|54=1|55=[N/A/]|63=3|67=1|29726=102.25|453=1|448=kauaiblckrcktrader1|447=C|452=11|11=ClOrdID-1700|22=4|38=250000|44=103|48=US427866AZ15|54=1|55=[N/A/]|63=3|67=1|29726=103.25|453=1|448=kauaiblckrcktrader1|447=C|452=11|11=ClOrdID-1701|22=4|38=350000|44=104|48=US29379VAW37|54=1|55=[N/A/]|63=3|67=1|29726=104.25|453=1|448=kauaiblckrcktrader1|447=C|452=11|10=085|8=FIX.4.4|9=64|35=0|34=4|49=kauaiblckrcktrader1|52=20210303-11:19:49.885|56=MA|10=010|8=FIX.4.4|9=64|35=0|34=5|49=kauaiblckrcktrader1|52=20210303-11:21:20.354|56=MA|10=240|8=FIX.4.4|9=64|35=0|34=6|49=kauaiblckrcktrader1|52=20210303-11:22:50.368|56=MA|10=250|8=FIX.4.4|9=64|35=0|34=7|49=kauaiblckrcktrader1|52=20210303-11:24:20.886|56=MA|10=255|8=FIX.4.4|9=64|35=0|34=8|49=kauaiblckrcktrader1|52=20210303-11:25:50.886|56=MA|10=004|8=FIX.4.4|9=64|35=0|34=9|49=kauaiblckrcktrader1|52=20210303-11:27:20.888|56=MA|10=006|8=FIX.4.4|9=65|35=0|34=10|49=kauaiblckrcktrader1|52=20210303-11:28:50.889|56=MA|10=052|8=FIX.4.4|9=65|35=0|34=11|49=kauaiblckrcktrader1|52=20210303-11:30:20.889|56=MA|10=043|8=FIX.4.4|9=65|35=0|34=12|49=kauaiblckrcktrader1|52=20210303-11:31:50.890|56=MA|10=040|8=FIX.4.4|9=65|35=0|34=13|49=kauaiblckrcktrader1|52=20210303-11:33:21.891|56=MA|10=042|8=FIX.4.4|9=65|35=0|34=14|49=kauaiblckrcktrader1|52=20210303-11:34:52.889|56=MA|10=055|8=FIX.4.4|9=65|35=0|34=15|49=kauaiblckrcktrader1|52=20210303-11:36:22.891|56=MA|10=048|8=FIX.4.4|9=65|35=0|34=16|49=kauaiblckrcktrader1|52=20210303-11:37:52.891|56=MA|10=053|8=FIX.4.4|9=65|35=0|34=17|49=kauaiblckrcktrader1|52=20210303-11:39:23.890|56=MA|10=053|8=FIX.4.4|9=65|35=0|34=18|49=kauaiblckrcktrader1|52=20210303-11:40:53.892|56=MA|10=051|8=FIX.4.4|9=65|35=0|34=19|49=kauaiblckrcktrader1|52=20210303-11:42:23.892|56=MA|10=051|8=FIX.4.4|9=65|35=0|34=20|49=kauaiblckrcktrader1|52=20210303-11:43:53.893|56=MA|10=048|8=FIX.4.4|9=65|35=0|34=21|49=kauaiblckrcktrader1|52=20210303-11:45:24.892|56=MA|10=048|8=FIX.4.4|9=65|35=0|34=22|49=kauaiblckrcktrader1|52=20210303-11:46:54.893|56=MA|10=054|8=FIX.4.4|9=65|35=0|34=23|49=kauaiblckrcktrader1|52=20210303-11:48:24.893|56=MA|10=054|8=FIX.4.4|9=65|35=0|34=24|49=kauaiblckrcktrader1|52=20210303-11:49:54.903|56=MA|10=051|8=FIX.4.4|9=65|35=0|34=25|49=kauaiblckrcktrader1|52=20210303-11:51:25.893|56=MA|10=051|8=FIX.4.4|9=65|35=0|34=26|49=kauaiblckrcktrader1|52=20210303-11:52:55.893|56=MA|10=056|8=FIX.4.4|9=65|35=0|34=27|49=kauaiblckrcktrader1|52=20210303-11:54:25.895|56=MA|10=058|8=FIX.4.4|9=65|35=0|34=28|49=kauaiblckrcktrader1|52=20210303-11:55:55.895|56=MA|10=063|8=FIX.4.4|9=65|35=0|34=29|49=kauaiblckrcktrader1|52=20210303-11:57:26.896|56=MA|10=065|8=FIX.4.4|9=65|35=0|34=30|49=kauaiblckrcktrader1|52=20210303-11:58:56.908|56=MA|10=055|8=FIX.4.4|9=65|35=0|34=31|49=kauaiblckrcktrader1|52=20210303-12:00:27.903|56=MA|10=037|8=FIX.4.4|9=65|35=0|34=32|49=kauaiblckrcktrader1|52=20210303-12:01:58.889|56=MA|10=056|8=FIX.4.4|9=65|35=0|34=33|49=kauaiblckrcktrader1|52=20210303-12:03:29.888|56=MA|10=056|8=FIX.4.4|9=65|35=0|34=34|49=kauaiblckrcktrader1|52=20210303-12:05:00.888|56=MA|10=048|8=FIX.4.4|9=65|35=0|34=35|49=kauaiblckrcktrader1|52=20210303-12:06:30.888|56=MA|10=053|8=FIX.4.4|9=65|35=0|34=36|49=kauaiblckrcktrader1|52=20210303-12:08:01.886|56=MA|10=052|8=FIX.4.4|9=65|35=0|34=37|49=kauaiblckrcktrader1|52=20210303-12:09:32.885|56=MA|10=057|8=FIX.4.4|9=65|35=0|34=38|49=kauaiblckrcktrader1|52=20210303-12:11:02.887|56=MA|10=050|8=FIX.4.4|9=65|35=0|34=39|49=kauaiblckrcktrader1|52=20210303-12:12:32.887|56=MA|10=055|8=FIX.4.4|9=65|35=0|34=40|49=kauaiblckrcktrader1|52=20210303-12:14:03.885|56=MA|10=045|8=FIX.4.4|9=65|35=0|34=41|49=kauaiblckrcktrader1|52=20210303-12:15:33.894|56=MA|10=050|8=FIX.4.4|9=65|35=0|34=42|49=kauaiblckrcktrader1|52=20210303-12:17:04.886|56=MA|10=052|8=FIX.4.4|9=65|35=0|34=43|49=kauaiblckrcktrader1|52=20210303-12:18:35.886|56=MA|10=058|8=FIX.4.4|9=65|35=0|34=44|49=kauaiblckrcktrader1|52=20210303-12:20:06.885|56=MA|10=049|8=FIX.4.4|9=65|35=0|34=45|49=kauaiblckrcktrader1|52=20210303-12:21:36.885|56=MA|10=054|8=FIX.4.4|9=65|35=0|34=46|49=kauaiblckrcktrader1|52=20210303-12:23:06.885|56=MA|10=054|8=FIX.4.4|9=65|35=0|34=47|49=kauaiblckrcktrader1|52=20210303-12:24:36.885|56=MA|10=059|8=FIX.4.4|9=65|35=0|34=48|49=kauaiblckrcktrader1|52=20210303-12:26:06.886|56=MA|10=060|8=FIX.4.4|9=65|35=0|34=49|49=kauaiblckrcktrader1|52=20210303-12:27:37.885|56=MA|10=065|8=FIX.4.4|9=65|35=0|34=50|49=kauaiblckrcktrader1|52=20210303-12:29:07.886|56=MA|10=057|8=FIX.4.4|9=65|35=0|34=51|49=kauaiblckrcktrader1|52=20210303-12:30:38.890|56=MA|10=049|8=FIX.4.4|9=65|35=0|34=52|49=kauaiblckrcktrader1|52=20210303-12:32:09.886|56=MA|10=055|8=FIX.4.4|9=65|35=0|34=53|49=kauaiblckrcktrader1|52=20210303-12:33:39.887|56=MA|10=061|8=FIX.4.4|9=65|35=0|34=54|49=kauaiblckrcktrader1|52=20210303-12:35:09.887|56=MA|10=061|8=FIX.4.4|9=65|35=0|34=55|49=kauaiblckrcktrader1|52=20210303-12:36:39.888|56=MA|10=067|8=FIX.4.4|9=65|35=0|34=56|49=kauaiblckrcktrader1|52=20210303-12:38:09.888|56=MA|10=067|8=FIX.4.4|9=65|35=0|34=57|49=kauaiblckrcktrader1|52=20210303-12:39:39.888|56=MA|10=072|8=FIX.4.4|9=65|35=0|34=58|49=kauaiblckrcktrader1|52=20210303-12:41:09.889|56=MA|10=064|8=FIX.4.4|9=65|35=0|34=59|49=kauaiblckrcktrader1|52=20210303-12:42:39.890|56=MA|10=061|8=FIX.4.4|9=65|35=0|34=60|49=kauaiblckrcktrader1|52=20210303-12:44:10.889|56=MA|10=052|8=FIX.4.4|9=65|35=0|34=61|49=kauaiblckrcktrader1|52=20210303-12:45:41.890|56=MA|10=050|8=FIX.4.4|9=65|35=0|34=62|49=kauaiblckrcktrader1|52=20210303-12:47:11.891|56=MA|10=051|8=FIX.4.4|9=65|35=0|34=63|49=kauaiblckrcktrader1|52=20210303-12:48:42.890|56=MA|10=056|8=FIX.4.4|9=65|35=0|34=64|49=kauaiblckrcktrader1|52=20210303-12:50:12.896|56=MA|10=053|8=FIX.4.4|9=65|35=0|34=65|49=kauaiblckrcktrader1|52=20210303-12:51:43.890|56=MA|10=053|8=FIX.4.4|9=65|35=0|34=66|49=kauaiblckrcktrader1|52=20210303-12:53:13.893|56=MA|10=056|8=FIX.4.4|9=65|35=0|34=67|49=kauaiblckrcktrader1|52=20210303-12:54:44.890|56=MA|10=059|8=FIX.4.4|9=65|35=0|34=68|49=kauaiblckrcktrader1|52=20210303-12:56:14.900|56=MA|10=051|8=FIX.4.4|9=65|35=0|34=69|49=kauaiblckrcktrader1|52=20210303-12:57:45.892|56=MA|10=067|8=FIX.4.4|9=65|35=0|34=70|49=kauaiblckrcktrader1|52=20210303-12:59:16.892|56=MA|10=059|8=FIX.4.4|9=65|35=0|34=71|49=kauaiblckrcktrader1|52=20210303-13:00:46.892|56=MA|10=050|8=FIX.4.4|9=65|35=0|34=72|49=kauaiblckrcktrader1|52=20210303-13:02:17.892|56=MA|10=051|8=FIX.4.4|9=65|35=0|34=73|49=kauaiblckrcktrader1|52=20210303-13:03:48.891|56=MA|10=056|8=FIX.4.4|9=65|35=0|34=74|49=kauaiblckrcktrader1|52=20210303-13:05:19.892|56=MA|10=058|8=FIX.4.4|9=65|35=0|34=75|49=kauaiblckrcktrader1|52=20210303-13:06:49.892|56=MA|10=063|8=FIX.4.4|9=65|35=0|34=76|49=kauaiblckrcktrader1|52=20210303-13:08:19.893|56=MA|10=064|8=FIX.4.4|9=65|35=0|34=77|49=kauaiblckrcktrader1|52=20210303-13:09:49.894|56=MA|10=070|8=FIX.4.4|9=65|35=0|34=78|49=kauaiblckrcktrader1|52=20210303-13:11:19.895|56=MA|10=062|8=FIX.4.4|9=65|35=0|34=79|49=kauaiblckrcktrader1|52=20210303-13:12:49.897|56=MA|10=069|8=FIX.4.4|9=65|35=0|34=80|49=kauaiblckrcktrader1|52=20210303-13:14:19.897|56=MA|10=060|8=FIX.4.4|9=65|35=0|34=81|49=kauaiblckrcktrader1|52=20210303-13:15:49.899|56=MA|10=067|8=FIX.4.4|9=65|35=0|34=82|49=kauaiblckrcktrader1|52=20210303-13:17:19.899|56=MA|10=067|8=FIX.4.4|9=65|35=0|34=83|49=kauaiblckrcktrader1|52=20210303-13:18:49.899|56=MA|10=072|8=FIX.4.4|9=65|35=0|34=84|49=kauaiblckrcktrader1|52=20210303-13:20:19.900|56=MA|10=046|8=FIX.4.4|9=65|35=0|34=85|49=kauaiblckrcktrader1|52=20210303-13:21:49.901|56=MA|10=052|8=FIX.4.4|9=65|35=0|34=86|49=kauaiblckrcktrader1|52=20210303-13:23:19.902|56=MA|10=053|8=FIX.4.4|9=65|35=0|34=87|49=kauaiblckrcktrader1|52=20210303-13:24:50.901|56=MA|10=049|8=FIX.4.4|9=65|35=0|34=88|49=kauaiblckrcktrader1|52=20210303-13:26:20.902|56=MA|10=050|8=FIX.4.4|9=65|35=0|34=89|49=kauaiblckrcktrader1|52=20210303-13:27:50.902|56=MA|10=055|8=FIX.4.4|9=65|35=0|34=90|49=kauaiblckrcktrader1|52=20210303-13:29:20.902|56=MA|10=046|8=FIX.4.4|9=65|35=0|34=91|49=kauaiblckrcktrader1|52=20210303-13:30:50.903|56=MA|10=043|8=FIX.4.4|9=65|35=0|34=92|49=kauaiblckrcktrader1|52=20210303-13:32:20.904|56=MA|10=044|8=FIX.4.4|9=65|35=0|34=93|49=kauaiblckrcktrader1|52=20210303-13:33:51.903|56=MA|10=049|8=FIX.4.4|9=65|35=0|34=94|49=kauaiblckrcktrader1|52=20210303-13:35:21.903|56=MA|10=049|8=FIX.4.4|9=65|35=0|34=95|49=kauaiblckrcktrader1|52=20210303-13:36:51.905|56=MA|10=056|8=FIX.4.4|9=65|35=0|34=96|49=kauaiblckrcktrader1|52=20210303-13:38:22.905|56=MA|10=057|8=FIX.4.4|9=65|35=0|34=97|49=kauaiblckrcktrader1|52=20210303-13:39:53.904|56=MA|10=062|8=FIX.4.4|9=65|35=0|34=98|49=kauaiblckrcktrader1|52=20210303-13:41:23.906|56=MA|10=055|8=FIX.4.4|9=65|35=0|34=99|49=kauaiblckrcktrader1|52=20210303-13:42:53.906|56=MA|10=060|8=FIX.4.4|9=66|35=0|34=100|49=kauaiblckrcktrader1|52=20210303-13:44:23.907|56=MA|10=092|8=FIX.4.4|9=66|35=0|34=101|49=kauaiblckrcktrader1|52=20210303-13:45:53.909|56=MA|10=099|8=FIX.4.4|9=66|35=5|34=102|49=kauaiblckrcktrader1|52=20210303-13:46:37.910|56=MA|10=100|8=FIX.4.4|9=99|35=A|34=1|49=kauaiblckrcktrader1|52=20210303-13:46:39.909|56=MA|98=0|108=90|95=8|96=3.0.0rc5|141=Y|10=244|8=FIX.4.4|9=739|35=E|34=2|49=kauaiblckrcktrader1|52=20210303-13:46:45.476|56=MA|66=ListID-030321-1702|394=2|68=5|73=5|11=ClOrdID-1703|22=4|38=100000|44=100|48=US06051GEN51|54=1|55=[N/A/]|63=3|67=1|423=1|29726=100.25|453=1|448=kauaiblckrcktrader1|447=C|452=11|11=ClOrdID-1704|22=4|38=100000|44=101|48=US40434AAB52|54=1|55=[N/A]|63=3|67=2|29726=101.25|11=ClOrdID-1705|22=4|38=130000|44=102|48=US95709TAH32|54=1|55=[N/A/]|63=3|67=1|29726=102.25|453=1|448=kauaiblckrcktrader1|447=C|452=11|11=ClOrdID-1706|22=4|38=250000|44=103|48=US427866AZ15|54=1|55=[N/A/]|63=3|67=1|29726=103.25|453=1|448=kauaiblckrcktrader1|447=C|452=11|11=ClOrdID-1707|22=4|38=350000|44=104|48=US29379VAW37|54=1|55=[N/A/]|63=3|67=1|29726=104.25|453=1|448=kauaiblckrcktrader1|447=C|452=11|10=051|8=FIX.4.4|9=739|35=E|34=3|49=kauaiblckrcktrader1|52=20210303-13:46:45.999|56=MA|66=ListID-030321-1708|394=2|68=5|73=5|11=ClOrdID-1709|22=4|38=100000|44=100|48=US06051GEN51|54=1|55=[N/A/]|63=3|67=1|423=1|29726=100.25|453=1|448=kauaiblckrcktrader1|447=C|452=11|11=ClOrdID-1710|22=4|38=100000|44=101|48=US40434AAB52|54=1|55=[N/A]|63=3|67=2|29726=101.25|11=ClOrdID-1711|22=4|38=130000|44=102|48=US95709TAH32|54=1|55=[N/A/]|63=3|67=1|29726=102.25|453=1|448=kauaiblckrcktrader1|447=C|452=11|11=ClOrdID-1712|22=4|38=250000|44=103|48=US427866AZ15|54=1|55=[N/A/]|63=3|67=1|29726=103.25|453=1|448=kauaiblckrcktrader1|447=C|452=11|11=ClOrdID-1713|22=4|38=350000|44=104|48=US29379VAW37|54=1|55=[N/A/]|63=3|67=1|29726=104.25|453=1|448=kauaiblckrcktrader1|447=C|452=11|10=062|8=FIX.4.4|9=739|35=E|34=4|49=kauaiblckrcktrader1|52=20210303-13:46:46.523|56=MA|66=ListID-030321-1714|394=2|68=5|73=5|11=ClOrdID-1715|22=4|38=100000|44=100|48=US06051GEN51|54=1|55=[N/A/]|63=3|67=1|423=1|29726=100.25|453=1|448=kauaiblckrcktrader1|447=C|452=11|11=ClOrdID-1716|22=4|38=100000|44=101|48=US40434AAB52|54=1|55=[N/A]|63=3|67=2|29726=101.25|11=ClOrdID-1717|22=4|38=130000|44=102|48=US95709TAH32|54=1|55=[N/A/]|63=3|67=1|29726=102.25|453=1|448=kauaiblckrcktrader1|447=C|452=11|11=ClOrdID-1718|22=4|38=250000|44=103|48=US427866AZ15|54=1|55=[N/A/]|63=3|67=1|29726=103.25|453=1|448=kauaiblckrcktrader1|447=C|452=11|11=ClOrdID-1719|22=4|38=350000|44=104|48=US29379VAW37|54=1|55=[N/A/]|63=3|67=1|29726=104.25|453=1|448=kauaiblckrcktrader1|447=C|452=11|10=065|8=FIX.4.4|9=739|35=E|34=5|49=kauaiblckrcktrader1|52=20210303-13:47:42.586|56=MA|66=ListID-030321-1720|394=2|68=5|73=5|11=ClOrdID-1721|22=4|38=100000|44=100|48=US06051GEN51|54=1|55=[N/A/]|63=3|67=1|423=1|29726=100.25|453=1|448=kauaiblckrcktrader1|447=C|452=11|11=ClOrdID-1722|22=4|38=100000|44=101|48=US40434AAB52|54=1|55=[N/A]|63=3|67=2|29726=101.25|11=ClOrdID-1723|22=4|38=130000|44=102|48=US95709TAH32|54=1|55=[N/A/]|63=3|67=1|29726=102.25|453=1|448=kauaiblckrcktrader1|447=C|452=11|11=ClOrdID-1724|22=4|38=250000|44=103|48=US427866AZ15|54=1|55=[N/A/]|63=3|67=1|29726=103.25|453=1|448=kauaiblckrcktrader1|447=C|452=11|11=ClOrdID-1725|22=4|38=350000|44=104|48=US29379VAW37|54=1|55=[N/A/]|63=3|67=1|29726=104.25|453=1|448=kauaiblckrcktrader1|447=C|452=11|10=054|8=FIX.4.4|9=739|35=E|34=6|49=kauaiblckrcktrader1|52=20210303-13:47:43.114|56=MA|66=ListID-030321-1726|394=2|68=5|73=5|11=ClOrdID-1727|22=4|38=100000|44=100|48=US06051GEN51|54=1|55=[N/A/]|63=3|67=1|423=1|29726=100.25|453=1|448=kauaiblckrcktrader1|447=C|452=11|11=ClOrdID-1728|22=4|38=100000|44=101|48=US40434AAB52|54=1|55=[N/A]|63=3|67=2|29726=101.25|11=ClOrdID-1729|22=4|38=130000|44=102|48=US95709TAH32|54=1|55=[N/A/]|63=3|67=1|29726=102.25|453=1|448=kauaiblckrcktrader1|447=C|452=11|11=ClOrdID-1730|22=4|38=250000|44=103|48=US427866AZ15|54=1|55=[N/A/]|63=3|67=1|29726=103.25|453=1|448=kauaiblckrcktrader1|447=C|452=11|11=ClOrdID-1731|22=4|38=350000|44=104|48=US29379VAW37|54=1|55=[N/A/]|63=3|67=1|29726=104.25|453=1|448=kauaiblckrcktrader1|447=C|452=11|10=061|8=FIX.4.4|9=739|35=E|34=7|49=kauaiblckrcktrader1|52=20210303-13:47:43.641|56=MA|66=ListID-030321-1732|394=2|68=5|73=5|11=ClOrdID-1733|22=4|38=100000|44=100|48=US06051GEN51|54=1|55=[N/A/]|63=3|67=1|423=1|29726=100.25|453=1|448=kauaiblckrcktrader1|447=C|452=11|11=ClOrdID-1734|22=4|38=100000|44=101|48=US40434AAB52|54=1|55=[N/A]|63=3|67=2|29726=101.25|11=ClOrdID-1735|22=4|38=130000|44=102|48=US95709TAH32|54=1|55=[N/A/]|63=3|67=1|29726=102.25|453=1|448=kauaiblckrcktrader1|447=C|452=11|11=ClOrdID-1736|22=4|38=250000|44=103|48=US427866AZ15|54=1|55=[N/A/]|63=3|67=1|29726=103.25|453=1|448=kauaiblckrcktrader1|447=C|452=11|11=ClOrdID-1737|22=4|38=350000|44=104|48=US29379VAW37|54=1|55=[N/A/]|63=3|67=1|29726=104.25|453=1|448=kauaiblckrcktrader1|447=C|452=11|10=067|8=FIX.4.4|9=739|35=E|34=8|49=kauaiblckrcktrader1|52=20210303-13:48:06.558|56=MA|66=ListID-030321-1738|394=2|68=5|73=5|11=ClOrdID-1739|22=4|38=100000|44=100|48=US06051GEN51|54=1|55=[N/A/]|63=3|67=1|423=1|29726=100.25|453=1|448=kauaiblckrcktrader1|447=C|452=11|11=ClOrdID-1740|22=4|38=100000|44=101|48=US40434AAB52|54=1|55=[N/A]|63=3|67=2|29726=101.25|11=ClOrdID-1741|22=4|38=130000|44=102|48=US95709TAH32|54=1|55=[N/A/]|63=3|67=1|29726=102.25|453=1|448=kauaiblckrcktrader1|447=C|452=11|11=ClOrdID-1742|22=4|38=250000|44=103|48=US427866AZ15|54=1|55=[N/A/]|63=3|67=1|29726=103.25|453=1|448=kauaiblckrcktrader1|447=C|452=11|11=ClOrdID-1743|22=4|38=350000|44=104|48=US29379VAW37|54=1|55=[N/A/]|63=3|67=1|29726=104.25|453=1|448=kauaiblckrcktrader1|447=C|452=11|10=075|8=FIX.4.4|9=739|35=E|34=9|49=kauaiblckrcktrader1|52=20210303-13:48:07.085|56=MA|66=ListID-030321-1744|394=2|68=5|73=5|11=ClOrdID-1745|22=4|38=100000|44=100|48=US06051GEN51|54=1|55=[N/A/]|63=3|67=1|423=1|29726=100.25|453=1|448=kauaiblckrcktrader1|447=C|452=11|11=ClOrdID-1746|22=4|38=100000|44=101|48=US40434AAB52|54=1|55=[N/A]|63=3|67=2|29726=101.25|11=ClOrdID-1747|22=4|38=130000|44=102|48=US95709TAH32|54=1|55=[N/A/]|63=3|67=1|29726=102.25|453=1|448=kauaiblckrcktrader1|447=C|452=11|11=ClOrdID-1748|22=4|38=250000|44=103|48=US427866AZ15|54=1|55=[N/A/]|63=3|67=1|29726=103.25|453=1|448=kauaiblckrcktrader1|447=C|452=11|11=ClOrdID-1749|22=4|38=350000|44=104|48=US29379VAW37|54=1|55=[N/A/]|63=3|67=1|29726=104.25|453=1|448=kauaiblckrcktrader1|447=C|452=11|10=090|8=FIX.4.4|9=65|35=0|34=10|49=kauaiblckrcktrader1|52=20210303-13:49:37.910|56=MA|10=047|8=FIX.4.4|9=65|35=0|34=11|49=kauaiblckrcktrader1|52=20210303-13:51:07.911|56=MA|10=039|8=FIX.4.4|9=65|35=0|34=12|49=kauaiblckrcktrader1|52=20210303-13:52:37.912|56=MA|10=045|8=FIX.4.4|9=65|35=0|34=13|49=kauaiblckrcktrader1|52=20210303-13:54:07.912|56=MA|10=045|8=FIX.4.4|9=65|35=0|34=14|49=kauaiblckrcktrader1|52=20210303-13:55:38.913|56=MA|10=052|8=FIX.4.4|9=65|35=0|34=15|49=kauaiblckrcktrader1|52=20210303-13:57:09.364|56=MA|10=053|8=FIX.4.4|9=65|35=0|34=16|49=kauaiblckrcktrader1|52=20210303-13:58:39.913|56=MA|10=058|8=FIX.4.4|9=65|35=0|34=17|49=kauaiblckrcktrader1|52=20210303-14:00:09.913|56=MA|10=044|8=FIX.4.4|9=65|35=0|34=18|49=kauaiblckrcktrader1|52=20210303-14:01:39.914|56=MA|10=050|8=FIX.4.4|9=65|35=0|34=19|49=kauaiblckrcktrader1|52=20210303-14:03:09.914|56=MA|10=050|8=FIX.4.4|9=65|35=0|34=20|49=kauaiblckrcktrader1|52=20210303-14:04:39.915|56=MA|10=047|8=FIX.4.4|9=65|35=0|34=21|49=kauaiblckrcktrader1|52=20210303-14:06:09.915|56=MA|10=047|8=FIX.4.4|9=65|35=0|34=22|49=kauaiblckrcktrader1|52=20210303-14:07:39.915|56=MA|10=052|8=FIX.4.4|9=65|35=0|34=23|49=kauaiblckrcktrader1|52=20210303-14:09:09.915|56=MA|10=052|8=FIX.4.4|9=65|35=0|34=24|49=kauaiblckrcktrader1|52=20210303-14:10:39.915|56=MA|10=048|8=FIX.4.4|9=65|35=0|34=25|49=kauaiblckrcktrader1|52=20210303-14:12:10.914|56=MA|10=039|8=FIX.4.4|9=65|35=0|34=26|49=kauaiblckrcktrader1|52=20210303-14:13:40.916|56=MA|10=046|8=FIX.4.4|9=65|35=0|34=27|49=kauaiblckrcktrader1|52=20210303-14:15:10.916|56=MA|10=046|8=FIX.4.4|9=65|35=0|34=28|49=kauaiblckrcktrader1|52=20210303-14:16:41.915|56=MA|10=051|8=FIX.4.4|9=65|35=0|34=29|49=kauaiblckrcktrader1|52=20210303-14:18:11.915|56=MA|10=051|8=FIX.4.4|9=65|35=0|34=30|49=kauaiblckrcktrader1|52=20210303-14:19:41.916|56=MA|10=048|8=FIX.4.4|9=65|35=0|34=31|49=kauaiblckrcktrader1|52=20210303-14:21:11.916|56=MA|10=039|8=FIX.4.4|9=740|35=E|34=32|49=kauaiblckrcktrader1|52=20210303-14:21:32.556|56=MA|66=ListID-030321-1750|394=2|68=5|73=5|11=ClOrdID-1751|22=4|38=100000|44=100|48=US06051GEN51|54=1|55=[N/A/]|63=3|67=1|423=1|29726=100.25|453=1|448=kauaiblckrcktrader1|447=C|452=11|11=ClOrdID-1752|22=4|38=100000|44=101|48=US40434AAB52|54=1|55=[N/A]|63=3|67=2|29726=101.25|11=ClOrdID-1753|22=4|38=130000|44=102|48=US95709TAH32|54=1|55=[N/A/]|63=3|67=1|29726=102.25|453=1|448=kauaiblckrcktrader1|447=C|452=11|11=ClOrdID-1754|22=4|38=250000|44=103|48=US427866AZ15|54=1|55=[N/A/]|63=3|67=1|29726=103.25|453=1|448=kauaiblckrcktrader1|447=C|452=11|11=ClOrdID-1755|22=4|38=350000|44=104|48=US29379VAW37|54=1|55=[N/A/]|63=3|67=1|29726=104.25|453=1|448=kauaiblckrcktrader1|447=C|452=11|10=101|8=FIX.4.4|9=740|35=E|34=33|49=kauaiblckrcktrader1|52=20210303-14:21:33.001|56=MA|66=ListID-030321-1756|394=2|68=5|73=5|11=ClOrdID-1757|22=4|38=100000|44=100|48=US06051GEN51|54=1|55=[N/A/]|63=3|67=1|423=1|29726=100.25|453=1|448=kauaiblckrcktrader1|447=C|452=11|11=ClOrdID-1758|22=4|38=100000|44=101|48=US40434AAB52|54=1|55=[N/A]|63=3|67=2|29726=101.25|11=ClOrdID-1759|22=4|38=130000|44=102|48=US95709TAH32|54=1|55=[N/A/]|63=3|67=1|29726=102.25|453=1|448=kauaiblckrcktrader1|447=C|452=11|11=ClOrdID-1760|22=4|38=250000|44=103|48=US427866AZ15|54=1|55=[N/A/]|63=3|67=1|29726=103.25|453=1|448=kauaiblckrcktrader1|447=C|452=11|11=ClOrdID-1761|22=4|38=350000|44=104|48=US29379VAW37|54=1|55=[N/A/]|63=3|67=1|29726=104.25|453=1|448=kauaiblckrcktrader1|447=C|452=11|10=106|8=FIX.4.4|9=740|35=E|34=34|49=kauaiblckrcktrader1|52=20210303-14:21:33.452|56=MA|66=ListID-030321-1762|394=2|68=5|73=5|11=ClOrdID-1763|22=4|38=100000|44=100|48=US06051GEN51|54=1|55=[N/A/]|63=3|67=1|423=1|29726=100.25|453=1|448=kauaiblckrcktrader1|447=C|452=11|11=ClOrdID-1764|22=4|38=100000|44=101|48=US40434AAB52|54=1|55=[N/A]|63=3|67=2|29726=101.25|11=ClOrdID-1765|22=4|38=130000|44=102|48=US95709TAH32|54=1|55=[N/A/]|63=3|67=1|29726=102.25|453=1|448=kauaiblckrcktrader1|447=C|452=11|11=ClOrdID-1766|22=4|38=250000|44=103|48=US427866AZ15|54=1|55=[N/A/]|63=3|67=1|29726=103.25|453=1|448=kauaiblckrcktrader1|447=C|452=11|11=ClOrdID-1767|22=4|38=350000|44=104|48=US29379VAW37|54=1|55=[N/A/]|63=3|67=1|29726=104.25|453=1|448=kauaiblckrcktrader1|447=C|452=11|10=117|8=FIX.4.4|9=65|35=0|34=35|49=kauaiblckrcktrader1|52=20210303-14:23:03.917|56=MA|10=047|8=FIX.4.4|9=65|35=0|34=36|49=kauaiblckrcktrader1|52=20210303-14:24:34.917|56=MA|10=053|8=FIX.4.4|9=65|35=0|34=37|49=kauaiblckrcktrader1|52=20210303-14:26:04.917|56=MA|10=053|8=FIX.4.4|9=65|35=0|34=38|49=kauaiblckrcktrader1|52=20210303-14:27:34.917|56=MA|10=058|8=FIX.4.4|9=65|35=0|34=39|49=kauaiblckrcktrader1|52=20210303-14:29:05.916|56=MA|10=058|8=FIX.4.4|9=65|35=0|34=40|49=kauaiblckrcktrader1|52=20210303-14:30:35.917|56=MA|10=046|8=FIX.4.4|9=65|35=0|34=41|49=kauaiblckrcktrader1|52=20210303-14:32:06.916|56=MA|10=046|8=FIX.4.4|9=65|35=0|34=42|49=kauaiblckrcktrader1|52=20210303-14:33:36.917|56=MA|10=052|8=FIX.4.4|9=65|35=0|34=43|49=kauaiblckrcktrader1|52=20210303-14:35:07.916|56=MA|10=052|8=FIX.4.4|9=65|35=0|34=44|49=kauaiblckrcktrader1|52=20210303-14:36:37.916|56=MA|10=057|8=FIX.4.4|9=65|35=0|34=45|49=kauaiblckrcktrader1|52=20210303-14:38:07.916|56=MA|10=057|8=FIX.4.4|9=740|35=E|34=46|49=kauaiblckrcktrader1|52=20210303-14:39:22.477|56=MA|66=ListID-030321-1768|394=2|68=5|73=5|11=ClOrdID-1769|22=4|38=100000|44=100|48=US06051GEN51|54=1|55=[N/A/]|63=3|67=1|423=1|29726=100.25|453=1|448=kauaiblckrcktrader1|447=C|452=11|11=ClOrdID-1770|22=4|38=100000|44=101|48=US40434AAB52|54=1|55=[N/A]|63=3|67=2|29726=101.25|11=ClOrdID-1771|22=4|38=130000|44=102|48=US95709TAH32|54=1|55=[N/A/]|63=3|67=1|29726=102.25|453=1|448=kauaiblckrcktrader1|447=C|452=11|11=ClOrdID-1772|22=4|38=250000|44=103|48=US427866AZ15|54=1|55=[N/A/]|63=3|67=1|29726=103.25|453=1|448=kauaiblckrcktrader1|447=C|452=11|11=ClOrdID-1773|22=4|38=350000|44=104|48=US29379VAW37|54=1|55=[N/A/]|63=3|67=1|29726=104.25|453=1|448=kauaiblckrcktrader1|447=C|452=11|10=134|8=FIX.4.4|9=740|35=E|34=47|49=kauaiblckrcktrader1|52=20210303-14:39:23.247|56=MA|66=ListID-030321-1774|394=2|68=5|73=5|11=ClOrdID-1775|22=4|38=100000|44=100|48=US06051GEN51|54=1|55=[N/A/]|63=3|67=1|423=1|29726=100.25|453=1|448=kauaiblckrcktrader1|447=C|452=11|11=ClOrdID-1776|22=4|38=100000|44=101|48=US40434AAB52|54=1|55=[N/A]|63=3|67=2|29726=101.25|11=ClOrdID-1777|22=4|38=130000|44=102|48=US95709TAH32|54=1|55=[N/A/]|63=3|67=1|29726=102.25|453=1|448=kauaiblckrcktrader1|447=C|452=11|11=ClOrdID-1778|22=4|38=250000|44=103|48=US427866AZ15|54=1|55=[N/A/]|63=3|67=1|29726=103.25|453=1|448=kauaiblckrcktrader1|447=C|452=11|11=ClOrdID-1779|22=4|38=350000|44=104|48=US29379VAW37|54=1|55=[N/A/]|63=3|67=1|29726=104.25|453=1|448=kauaiblckrcktrader1|447=C|452=11|10=149|8=FIX.4.4|9=740|35=E|34=48|49=kauaiblckrcktrader1|52=20210303-14:39:24.048|56=MA|66=ListID-030321-1780|394=2|68=5|73=5|11=ClOrdID-1781|22=4|38=100000|44=100|48=US06051GEN51|54=1|55=[N/A/]|63=3|67=1|423=1|29726=100.25|453=1|448=kauaiblckrcktrader1|447=C|452=11|11=ClOrdID-1782|22=4|38=100000|44=101|48=US40434AAB52|54=1|55=[N/A]|63=3|67=2|29726=101.25|11=ClOrdID-1783|22=4|38=130000|44=102|48=US95709TAH32|54=1|55=[N/A/]|63=3|67=1|29726=102.25|453=1|448=kauaiblckrcktrader1|447=C|452=11|11=ClOrdID-1784|22=4|38=250000|44=103|48=US427866AZ15|54=1|55=[N/A/]|63=3|67=1|29726=103.25|453=1|448=kauaiblckrcktrader1|447=C|452=11|11=ClOrdID-1785|22=4|38=350000|44=104|48=US29379VAW37|54=1|55=[N/A/]|63=3|67=1|29726=104.25|453=1|448=kauaiblckrcktrader1|447=C|452=11|10=132|8=FIX.4.4|9=740|35=E|34=49|49=kauaiblckrcktrader1|52=20210303-14:39:24.716|56=MA|66=ListID-030321-1786|394=2|68=5|73=5|11=ClOrdID-1787|22=4|38=100000|44=100|48=US06051GEN51|54=1|55=[N/A/]|63=3|67=1|423=1|29726=100.25|453=1|448=kauaiblckrcktrader1|447=C|452=11|11=ClOrdID-1788|22=4|38=100000|44=101|48=US40434AAB52|54=1|55=[N/A]|63=3|67=2|29726=101.25|11=ClOrdID-1789|22=4|38=130000|44=102|48=US95709TAH32|54=1|55=[N/A/]|63=3|67=1|29726=102.25|453=1|448=kauaiblckrcktrader1|447=C|452=11|11=ClOrdID-1790|22=4|38=250000|44=103|48=US427866AZ15|54=1|55=[N/A/]|63=3|67=1|29726=103.25|453=1|448=kauaiblckrcktrader1|447=C|452=11|11=ClOrdID-1791|22=4|38=350000|44=104|48=US29379VAW37|54=1|55=[N/A/]|63=3|67=1|29726=104.25|453=1|448=kauaiblckrcktrader1|447=C|452=11|10=153|8=FIX.4.4|9=65|35=0|34=50|49=kauaiblckrcktrader1|52=20210303-14:40:54.916|56=MA|10=048|8=FIX.4.4|9=65|35=0|34=51|49=kauaiblckrcktrader1|52=20210303-14:42:24.917|56=MA|10=049|8=FIX.4.4|9=65|35=0|34=52|49=kauaiblckrcktrader1|52=20210303-14:43:55.917|56=MA|10=055|8=FIX.4.4|9=99|35=A|34=1|49=kauaiblckrcktrader1|52=20210303-16:53:32.950|56=MA|98=0|108=90|95=8|96=3.0.0rc5|141=Y|10=234|8=FIX.4.4|9=739|35=E|34=2|49=kauaiblckrcktrader1|52=20210303-16:53:38.006|56=MA|66=ListID-030321-1792|394=2|68=5|73=5|11=ClOrdID-1793|22=4|38=100000|44=100|48=US06051GEN51|54=1|55=[N/A/]|63=3|67=1|423=1|29726=100.25|453=1|448=kauaiblckrcktrader1|447=C|452=11|11=ClOrdID-1794|22=4|38=100000|44=101|48=US40434AAB52|54=1|55=[N/A]|63=3|67=2|29726=101.25|11=ClOrdID-1795|22=4|38=130000|44=102|48=US95709TAH32|54=1|55=[N/A/]|63=3|67=1|29726=102.25|453=1|448=kauaiblckrcktrader1|447=C|452=11|11=ClOrdID-1796|22=4|38=250000|44=103|48=US427866AZ15|54=1|55=[N/A/]|63=3|67=1|29726=103.25|453=1|448=kauaiblckrcktrader1|447=C|452=11|11=ClOrdID-1797|22=4|38=350000|44=104|48=US29379VAW37|54=1|55=[N/A/]|63=3|67=1|29726=104.25|453=1|448=kauaiblckrcktrader1|447=C|452=11|10=097|8=FIX.4.4|9=739|35=E|34=3|49=kauaiblckrcktrader1|52=20210303-16:53:38.763|56=MA|66=ListID-030321-1798|394=2|68=5|73=5|11=ClOrdID-1799|22=4|38=100000|44=100|48=US06051GEN51|54=1|55=[N/A/]|63=3|67=1|423=1|29726=100.25|453=1|448=kauaiblckrcktrader1|447=C|452=11|11=ClOrdID-1800|22=4|38=100000|44=101|48=US40434AAB52|54=1|55=[N/A]|63=3|67=2|29726=101.25|11=ClOrdID-1801|22=4|38=130000|44=102|48=US95709TAH32|54=1|55=[N/A/]|63=3|67=1|29726=102.25|453=1|448=kauaiblckrcktrader1|447=C|452=11|11=ClOrdID-1802|22=4|38=250000|44=103|48=US427866AZ15|54=1|55=[N/A/]|63=3|67=1|29726=103.25|453=1|448=kauaiblckrcktrader1|447=C|452=11|11=ClOrdID-1803|22=4|38=350000|44=104|48=US29379VAW37|54=1|55=[N/A/]|63=3|67=1|29726=104.25|453=1|448=kauaiblckrcktrader1|447=C|452=11|10=072|8=FIX.4.4|9=739|35=E|34=4|49=kauaiblckrcktrader1|52=20210303-16:53:38.930|56=MA|66=ListID-030321-1804|394=2|68=5|73=5|11=ClOrdID-1805|22=4|38=100000|44=100|48=US06051GEN51|54=1|55=[N/A/]|63=3|67=1|423=1|29726=100.25|453=1|448=kauaiblckrcktrader1|447=C|452=11|11=ClOrdID-1806|22=4|38=100000|44=101|48=US40434AAB52|54=1|55=[N/A]|63=3|67=2|29726=101.25|11=ClOrdID-1807|22=4|38=130000|44=102|48=US95709TAH32|54=1|55=[N/A/]|63=3|67=1|29726=102.25|453=1|448=kauaiblckrcktrader1|447=C|452=11|11=ClOrdID-1808|22=4|38=250000|44=103|48=US427866AZ15|54=1|55=[N/A/]|63=3|67=1|29726=103.25|453=1|448=kauaiblckrcktrader1|447=C|452=11|11=ClOrdID-1809|22=4|38=350000|44=104|48=US29379VAW37|54=1|55=[N/A/]|63=3|67=1|29726=104.25|453=1|448=kauaiblckrcktrader1|447=C|452=11|10=069|8=FIX.4.4|9=64|35=0|34=5|49=kauaiblckrcktrader1|52=20210303-16:55:08.948|56=MA|10=011|8=FIX.4.4|9=64|35=0|34=6|49=kauaiblckrcktrader1|52=20210303-16:56:38.949|56=MA|10=017|8=FIX.4.4|9=64|35=0|34=7|49=kauaiblckrcktrader1|52=20210303-16:58:08.949|56=MA|10=017|8=FIX.4.4|9=64|35=0|34=8|49=kauaiblckrcktrader1|52=20210303-16:59:39.949|56=MA|10=023|8=FIX.4.4|9=64|35=0|34=9|49=kauaiblckrcktrader1|52=20210303-17:01:09.949|56=MA|10=009|8=FIX.4.4|9=65|35=0|34=10|49=kauaiblckrcktrader1|52=20210303-17:02:39.950|56=MA|10=046|8=FIX.4.4|9=65|35=0|34=11|49=kauaiblckrcktrader1|52=20210303-17:04:10.276|56=MA|10=039|8=FIX.4.4|9=65|35=0|34=12|49=kauaiblckrcktrader1|52=20210303-17:05:40.949|56=MA|10=051|8=FIX.4.4|9=65|35=0|34=13|49=kauaiblckrcktrader1|52=20210303-17:07:10.951|56=MA|10=044|8=FIX.4.4|9=65|35=0|34=14|49=kauaiblckrcktrader1|52=20210303-17:08:40.951|56=MA|10=049|8=FIX.4.4|9=65|35=0|34=15|49=kauaiblckrcktrader1|52=20210303-17:10:10.953|56=MA|10=042|8=FIX.4.4|9=65|35=0|34=16|49=kauaiblckrcktrader1|52=20210303-17:11:40.954|56=MA|10=048|8=FIX.4.4|9=65|35=0|34=17|49=kauaiblckrcktrader1|52=20210303-17:13:11.265|56=MA|10=044|8=FIX.4.4|9=65|35=0|34=18|49=kauaiblckrcktrader1|52=20210303-17:14:41.267|56=MA|10=051|8=FIX.4.4|9=65|35=0|34=19|49=kauaiblckrcktrader1|52=20210303-17:16:11.269|56=MA|10=053|8=FIX.4.4|9=65|35=0|34=20|49=kauaiblckrcktrader1|52=20210303-17:17:41.955|56=MA|10=051|8=FIX.4.4|9=65|35=0|34=21|49=kauaiblckrcktrader1|52=20210303-17:19:11.957|56=MA|10=053|8=FIX.4.4|9=65|35=0|34=22|49=kauaiblckrcktrader1|52=20210303-17:20:42.266|56=MA|10=043|8=FIX.4.4|9=65|35=0|34=23|49=kauaiblckrcktrader1|52=20210303-17:22:12.280|56=MA|10=039|8=FIX.4.4|9=65|35=0|34=24|49=kauaiblckrcktrader1|52=20210303-17:23:42.956|56=MA|10=054|8=FIX.4.4|9=65|35=0|34=25|49=kauaiblckrcktrader1|52=20210303-17:25:12.957|56=MA|10=055|8=FIX.4.4|9=740|35=E|34=26|49=kauaiblckrcktrader1|52=20210303-17:26:37.641|56=MA|66=ListID-030321-1810|394=2|68=5|73=5|11=ClOrdID-1811|22=4|38=100000|44=100|48=US06051GEN51|54=1|55=[N/A/]|63=3|67=1|423=1|29726=100.25|453=1|448=kauaiblckrcktrader1|447=C|452=11|11=ClOrdID-1812|22=4|38=100000|44=101|48=US40434AAB52|54=1|55=[N/A]|63=3|67=2|29726=101.25|11=ClOrdID-1813|22=4|38=130000|44=102|48=US95709TAH32|54=1|55=[N/A/]|63=3|67=1|29726=102.25|453=1|448=kauaiblckrcktrader1|447=C|452=11|11=ClOrdID-1814|22=4|38=250000|44=103|48=US427866AZ15|54=1|55=[N/A/]|63=3|67=1|29726=103.25|453=1|448=kauaiblckrcktrader1|447=C|452=11|11=ClOrdID-1815|22=4|38=350000|44=104|48=US29379VAW37|54=1|55=[N/A/]|63=3|67=1|29726=104.25|453=1|448=kauaiblckrcktrader1|447=C|452=11|10=094|8=FIX.4.4|9=65|35=5|34=27|49=kauaiblckrcktrader1|52=20210303-17:26:47.957|56=MA|10=071|8=FIX.4.4|9=99|35=A|34=1|49=kauaiblckrcktrader1|52=20210303-17:26:48.959|56=MA|98=0|108=90|95=8|96=3.0.0rc5|141=Y|10=251|8=FIX.4.4|9=739|35=E|34=2|49=kauaiblckrcktrader1|52=20210303-17:26:53.163|56=MA|66=ListID-030321-1816|394=2|68=5|73=5|11=ClOrdID-1817|22=4|38=100000|44=100|48=US06051GEN51|54=1|55=[N/A/]|63=3|67=1|423=1|29726=100.25|453=1|448=kauaiblckrcktrader1|447=C|452=11|11=ClOrdID-1818|22=4|38=100000|44=101|48=US40434AAB52|54=1|55=[N/A]|63=3|67=2|29726=101.25|11=ClOrdID-1819|22=4|38=130000|44=102|48=US95709TAH32|54=1|55=[N/A/]|63=3|67=1|29726=102.25|453=1|448=kauaiblckrcktrader1|447=C|452=11|11=ClOrdID-1820|22=4|38=250000|44=103|48=US427866AZ15|54=1|55=[N/A/]|63=3|67=1|29726=103.25|453=1|448=kauaiblckrcktrader1|447=C|452=11|11=ClOrdID-1821|22=4|38=350000|44=104|48=US29379VAW37|54=1|55=[N/A/]|63=3|67=1|29726=104.25|453=1|448=kauaiblckrcktrader1|447=C|452=11|10=063|8=FIX.4.4|9=739|35=E|34=3|49=kauaiblckrcktrader1|52=20210303-17:26:53.702|56=MA|66=ListID-030321-1822|394=2|68=5|73=5|11=ClOrdID-1823|22=4|38=100000|44=100|48=US06051GEN51|54=1|55=[N/A/]|63=3|67=1|423=1|29726=100.25|453=1|448=kauaiblckrcktrader1|447=C|452=11|11=ClOrdID-1824|22=4|38=100000|44=101|48=US40434AAB52|54=1|55=[N/A]|63=3|67=2|29726=101.25|11=ClOrdID-1825|22=4|38=130000|44=102|48=US95709TAH32|54=1|55=[N/A/]|63=3|67=1|29726=102.25|453=1|448=kauaiblckrcktrader1|447=C|452=11|11=ClOrdID-1826|22=4|38=250000|44=103|48=US427866AZ15|54=1|55=[N/A/]|63=3|67=1|29726=103.25|453=1|448=kauaiblckrcktrader1|447=C|452=11|11=ClOrdID-1827|22=4|38=350000|44=104|48=US29379VAW37|54=1|55=[N/A/]|63=3|67=1|29726=104.25|453=1|448=kauaiblckrcktrader1|447=C|452=11|10=063|8=FIX.4.4|9=64|35=0|34=4|49=kauaiblckrcktrader1|52=20210303-17:28:23.959|56=MA|10=010|8=FIX.4.4|9=64|35=0|34=5|49=kauaiblckrcktrader1|52=20210303-17:29:53.959|56=MA|10=015|8=FIX.4.4|9=64|35=0|34=6|49=kauaiblckrcktrader1|52=20210303-17:31:23.960|56=MA|10=254|8=FIX.4.4|9=64|35=0|34=7|49=kauaiblckrcktrader1|52=20210303-17:32:53.960|56=MA|10=003|8=FIX.4.4|9=64|35=0|34=8|49=kauaiblckrcktrader1|52=20210303-17:34:24.960|56=MA|10=004|8=FIX.4.4|9=64|35=0|34=9|49=kauaiblckrcktrader1|52=20210303-17:35:54.960|56=MA|10=009|8=FIX.4.4|9=740|35=E|34=10|49=kauaiblckrcktrader1|52=20210303-17:35:59.509|56=MA|66=ListID-030321-1828|394=2|68=5|73=5|11=ClOrdID-1829|22=4|38=100000|44=100|48=US06051GEN51|54=1|55=[N/A/]|63=3|67=1|423=1|29726=100.25|453=1|448=kauaiblckrcktrader1|447=C|452=11|11=ClOrdID-1830|22=4|38=100000|44=101|48=US40434AAB52|54=1|55=[N/A]|63=3|67=2|29726=101.25|11=ClOrdID-1831|22=4|38=130000|44=102|48=US95709TAH32|54=1|55=[N/A/]|63=3|67=1|29726=102.25|453=1|448=kauaiblckrcktrader1|447=C|452=11|11=ClOrdID-1832|22=4|38=250000|44=103|48=US427866AZ15|54=1|55=[N/A/]|63=3|67=1|29726=103.25|453=1|448=kauaiblckrcktrader1|447=C|452=11|11=ClOrdID-1833|22=4|38=350000|44=104|48=US29379VAW37|54=1|55=[N/A/]|63=3|67=1|29726=104.25|453=1|448=kauaiblckrcktrader1|447=C|452=11|10=112|8=FIX.4.4|9=740|35=E|34=11|49=kauaiblckrcktrader1|52=20210303-17:36:00.188|56=MA|66=ListID-030321-1834|394=2|68=5|73=5|11=ClOrdID-1835|22=4|38=100000|44=100|48=US06051GEN51|54=1|55=[N/A/]|63=3|67=1|423=1|29726=100.25|453=1|448=kauaiblckrcktrader1|447=C|452=11|11=ClOrdID-1836|22=4|38=100000|44=101|48=US40434AAB52|54=1|55=[N/A]|63=3|67=2|29726=101.25|11=ClOrdID-1837|22=4|38=130000|44=102|48=US95709TAH32|54=1|55=[N/A/]|63=3|67=1|29726=102.25|453=1|448=kauaiblckrcktrader1|447=C|452=11|11=ClOrdID-1838|22=4|38=250000|44=103|48=US427866AZ15|54=1|55=[N/A/]|63=3|67=1|29726=103.25|453=1|448=kauaiblckrcktrader1|447=C|452=11|11=ClOrdID-1839|22=4|38=350000|44=104|48=US29379VAW37|54=1|55=[N/A/]|63=3|67=1|29726=104.25|453=1|448=kauaiblckrcktrader1|447=C|452=11|10=121|8=FIX.4.4|9=740|35=E|34=12|49=kauaiblckrcktrader1|52=20210303-17:36:00.348|56=MA|66=ListID-030321-1840|394=2|68=5|73=5|11=ClOrdID-1841|22=4|38=100000|44=100|48=US06051GEN51|54=1|55=[N/A/]|63=3|67=1|423=1|29726=100.25|453=1|448=kauaiblckrcktrader1|447=C|452=11|11=ClOrdID-1842|22=4|38=100000|44=101|48=US40434AAB52|54=1|55=[N/A]|63=3|67=2|29726=101.25|11=ClOrdID-1843|22=4|38=130000|44=102|48=US95709TAH32|54=1|55=[N/A/]|63=3|67=1|29726=102.25|453=1|448=kauaiblckrcktrader1|447=C|452=11|11=ClOrdID-1844|22=4|38=250000|44=103|48=US427866AZ15|54=1|55=[N/A/]|63=3|67=1|29726=103.25|453=1|448=kauaiblckrcktrader1|447=C|452=11|11=ClOrdID-1845|22=4|38=350000|44=104|48=US29379VAW37|54=1|55=[N/A/]|63=3|67=1|29726=104.25|453=1|448=kauaiblckrcktrader1|447=C|452=11|10=102|8=FIX.4.4|9=65|35=0|34=13|49=kauaiblckrcktrader1|52=20210303-17:37:30.960|56=MA|10=049|8=FIX.4.4|9=65|35=0|34=14|49=kauaiblckrcktrader1|52=20210303-17:39:00.962|56=MA|10=051|8=FIX.4.4|9=65|35=0|34=15|49=kauaiblckrcktrader1|52=20210303-17:40:30.962|56=MA|10=047|8=FIX.4.4|9=65|35=0|34=16|49=kauaiblckrcktrader1|52=20210303-17:42:01.282|56=MA|10=043|8=FIX.4.4|9=65|35=0|34=17|49=kauaiblckrcktrader1|52=20210303-17:43:31.963|56=MA|10=054|8=FIX.4.4|9=65|35=0|34=18|49=kauaiblckrcktrader1|52=20210303-17:45:02.279|56=MA|10=055|8=FIX.4.4|9=65|35=0|34=19|49=kauaiblckrcktrader1|52=20210303-17:46:32.963|56=MA|10=060|8=FIX.4.4|9=65|35=0|34=20|49=kauaiblckrcktrader1|52=20210303-17:48:02.963|56=MA|10=051|8=FIX.4.4|9=65|35=0|34=21|49=kauaiblckrcktrader1|52=20210303-17:49:33.277|56=MA|10=055|8=FIX.4.4|9=65|35=0|34=22|49=kauaiblckrcktrader1|52=20210303-17:51:03.962|56=MA|10=047|8=FIX.4.4|9=65|35=0|34=23|49=kauaiblckrcktrader1|52=20210303-17:52:33.962|56=MA|10=052|8=FIX.4.4|9=65|35=0|34=24|49=kauaiblckrcktrader1|52=20210303-17:54:03.964|56=MA|10=054|8=FIX.4.4|9=65|35=0|34=25|49=kauaiblckrcktrader1|52=20210303-17:55:34.964|56=MA|10=060|8=FIX.4.4|9=65|35=0|34=26|49=kauaiblckrcktrader1|52=20210303-17:57:05.964|56=MA|10=061|8=FIX.4.4|9=65|35=0|34=27|49=kauaiblckrcktrader1|52=20210303-17:58:35.964|56=MA|10=066|8=FIX.4.4|9=65|35=0|34=28|49=kauaiblckrcktrader1|52=20210303-18:00:06.963|56=MA|10=052|8=FIX.4.4|9=65|35=0|34=29|49=kauaiblckrcktrader1|52=20210303-18:01:36.965|56=MA|10=059|8=FIX.4.4|9=65|35=0|34=30|49=kauaiblckrcktrader1|52=20210303-18:03:07.277|56=MA|10=047|8=FIX.4.4|9=65|35=0|34=31|49=kauaiblckrcktrader1|52=20210303-18:04:37.277|56=MA|10=052|8=FIX.4.4|9=65|35=0|34=32|49=kauaiblckrcktrader1|52=20210303-18:06:07.966|56=MA|10=057|8=FIX.4.4|9=65|35=0|34=33|49=kauaiblckrcktrader1|52=20210303-18:07:38.284|56=MA|10=056|8=FIX.4.4|9=65|35=0|34=34|49=kauaiblckrcktrader1|52=20210303-18:09:08.964|56=MA|10=061|8=FIX.4.4|9=65|35=0|34=35|49=kauaiblckrcktrader1|52=20210303-18:10:38.966|56=MA|10=059|8=FIX.4.4|9=65|35=0|34=36|49=kauaiblckrcktrader1|52=20210303-18:12:08.966|56=MA|10=059|8=FIX.4.4|9=65|35=0|34=37|49=kauaiblckrcktrader1|52=20210303-18:13:39.276|56=MA|10=059|8=FIX.4.4|9=65|35=0|34=38|49=kauaiblckrcktrader1|52=20210303-18:15:09.278|56=MA|10=061|8=FIX.4.4|9=65|35=0|34=39|49=kauaiblckrcktrader1|52=20210303-18:16:39.281|56=MA|10=060|8=FIX.4.4|9=65|35=0|34=40|49=kauaiblckrcktrader1|52=20210303-18:18:09.966|56=MA|10=061|8=FIX.4.4|9=99|35=A|34=1|49=kauaiblckrcktrader1|52=20210303-18:18:45.609|56=MA|98=0|108=90|95=8|96=3.0.0rc5|141=Y|10=242|8=FIX.4.4|9=739|35=E|34=2|49=kauaiblckrcktrader1|52=20210303-18:19:01.393|56=MA|66=ListID-030321-1594|394=2|68=5|73=5|11=ClOrdID-1595|22=4|38=100000|44=100|48=US06051GEN51|54=1|55=[N/A/]|63=3|67=1|423=1|29726=100.25|453=1|448=kauaiblckrcktrader1|447=C|452=11|11=ClOrdID-1596|22=4|38=100000|44=101|48=US40434AAB52|54=1|55=[N/A]|63=3|67=2|29726=101.25|11=ClOrdID-1597|22=4|38=130000|44=102|48=US95709TAH32|54=1|55=[N/A/]|63=3|67=1|29726=102.25|453=1|448=kauaiblckrcktrader1|447=C|452=11|11=ClOrdID-1598|22=4|38=250000|44=103|48=US427866AZ15|54=1|55=[N/A/]|63=3|67=1|29726=103.25|453=1|448=kauaiblckrcktrader1|447=C|452=11|11=ClOrdID-1599|22=4|38=350000|44=104|48=US29379VAW37|54=1|55=[N/A/]|63=3|67=1|29726=104.25|453=1|448=kauaiblckrcktrader1|447=C|452=11|10=100|8=FIX.4.4|9=739|35=E|34=3|49=kauaiblckrcktrader1|52=20210303-18:19:06.009|56=MA|66=ListID-030321-1600|394=2|68=5|73=5|11=ClOrdID-1601|22=4|38=100000|44=100|48=US06051GEN51|54=1|55=[N/A/]|63=3|67=1|423=1|29726=100.25|453=1|448=kauaiblckrcktrader1|447=C|452=11|11=ClOrdID-1602|22=4|38=100000|44=101|48=US40434AAB52|54=1|55=[N/A]|63=3|67=2|29726=101.25|11=ClOrdID-1603|22=4|38=130000|44=102|48=US95709TAH32|54=1|55=[N/A/]|63=3|67=1|29726=102.25|453=1|448=kauaiblckrcktrader1|447=C|452=11|11=ClOrdID-1604|22=4|38=250000|44=103|48=US427866AZ15|54=1|55=[N/A/]|63=3|67=1|29726=103.25|453=1|448=kauaiblckrcktrader1|447=C|452=11|11=ClOrdID-1605|22=4|38=350000|44=104|48=US29379VAW37|54=1|55=[N/A/]|63=3|67=1|29726=104.25|453=1|448=kauaiblckrcktrader1|447=C|452=11|10=028|8=FIX.4.4|9=64|35=0|34=4|49=kauaiblckrcktrader1|52=20210303-18:20:36.276|56=MA|10=255|8=FIX.4.4|9=64|35=0|34=5|49=kauaiblckrcktrader1|52=20210303-18:22:06.607|56=MA|10=253|8=FIX.4.4|9=64|35=0|34=6|49=kauaiblckrcktrader1|52=20210303-18:23:36.607|56=MA|10=002|8=FIX.4.4|9=64|35=0|34=7|49=kauaiblckrcktrader1|52=20210303-18:25:07.275|56=MA|10=004|8=FIX.4.4|9=64|35=0|34=8|49=kauaiblckrcktrader1|52=20210303-18:26:37.607|56=MA|10=008|8=FIX.4.4|9=64|35=0|34=9|49=kauaiblckrcktrader1|52=20210303-18:28:07.607|56=MA|10=008|8=FIX.4.4|9=740|35=E|34=10|49=kauaiblckrcktrader1|52=20210303-18:29:31.625|56=MA|66=ListID-030321-1606|394=2|68=5|73=5|11=ClOrdID-1607|22=4|38=100000|44=100|48=US06051GEN51|54=1|55=[N/A/]|63=3|67=1|423=1|29726=100.25|453=1|448=kauaiblckrcktrader1|447=C|452=11|11=ClOrdID-1608|22=4|38=100000|44=101|48=US40434AAB52|54=1|55=[N/A]|63=3|67=2|29726=101.25|11=ClOrdID-1609|22=4|38=130000|44=102|48=US95709TAH32|54=1|55=[N/A/]|63=3|67=1|29726=102.25|453=1|448=kauaiblckrcktrader1|447=C|452=11|11=ClOrdID-1610|22=4|38=250000|44=103|48=US427866AZ15|54=1|55=[N/A/]|63=3|67=1|29726=103.25|453=1|448=kauaiblckrcktrader1|447=C|452=11|11=ClOrdID-1611|22=4|38=350000|44=104|48=US29379VAW37|54=1|55=[N/A/]|63=3|67=1|29726=104.25|453=1|448=kauaiblckrcktrader1|447=C|452=11|10=087|8=FIX.4.4|9=740|35=E|34=11|49=kauaiblckrcktrader1|52=20210303-18:29:32.069|56=MA|66=ListID-030321-1612|394=2|68=5|73=5|11=ClOrdID-1613|22=4|38=100000|44=100|48=US06051GEN51|54=1|55=[N/A/]|63=3|67=1|423=1|29726=100.25|453=1|448=kauaiblckrcktrader1|447=C|452=11|11=ClOrdID-1614|22=4|38=100000|44=101|48=US40434AAB52|54=1|55=[N/A]|63=3|67=2|29726=101.25|11=ClOrdID-1615|22=4|38=130000|44=102|48=US95709TAH32|54=1|55=[N/A/]|63=3|67=1|29726=102.25|453=1|448=kauaiblckrcktrader1|447=C|452=11|11=ClOrdID-1616|22=4|38=250000|44=103|48=US427866AZ15|54=1|55=[N/A/]|63=3|67=1|29726=103.25|453=1|448=kauaiblckrcktrader1|447=C|452=11|11=ClOrdID-1617|22=4|38=350000|44=104|48=US29379VAW37|54=1|55=[N/A/]|63=3|67=1|29726=104.25|453=1|448=kauaiblckrcktrader1|447=C|452=11|10=091|8=FIX.4.4|9=65|35=0|34=12|49=kauaiblckrcktrader1|52=20210303-18:31:02.607|56=MA|10=040|8=FIX.4.4|9=65|35=0|34=13|49=kauaiblckrcktrader1|52=20210303-18:32:33.272|56=MA|10=044|8=FIX.4.4|9=65|35=0|34=14|49=kauaiblckrcktrader1|52=20210303-18:34:03.621|56=MA|10=042|8=FIX.4.4|9=65|35=0|34=15|49=kauaiblckrcktrader1|52=20210303-18:35:34.609|56=MA|10=054|8=FIX.4.4|9=65|35=0|34=16|49=kauaiblckrcktrader1|52=20210303-18:37:04.611|56=MA|10=047|8=FIX.4.4|9=65|35=0|34=17|49=kauaiblckrcktrader1|52=20210303-18:38:34.617|56=MA|10=058|8=FIX.4.4|9=65|35=0|34=18|49=kauaiblckrcktrader1|52=20210303-18:40:05.607|56=MA|10=049|8=FIX.4.4|9=65|35=0|34=19|49=kauaiblckrcktrader1|52=20