8=FIX.4.4|9=91|35=A|34=1|49=T2Kauaiblk3|52=20201130-08:34:57.410|56=MA|98=0|108=90|95=8|96=3.0.0rc5|141=Y|10=033|8=FIX.4.4|9=640|35=E|34=2|49=T2Kauaiblk3|52=20201130-08:36:01.659|56=MA|66=MMAD-FIX44-ListID-301120-1222|394=2|68=5|73=5|11=FIX44-List-ClOrdID-1223|22=4|38=100000|48=US06051GEN51|54=1|55=[N/A/]|67=1|423=1|453=1|448=T2Kauaiblk3|447=C|452=11|11=FIX44-List-ClOrdID-1224|22=4|38=100000|48=US40434AAB52|54=1|55=[N/A]|67=2|11=FIX44-List-ClOrdID-1225|22=4|38=130000|48=US06738JYZ10|54=1|55=[N/A/]|67=1|453=1|448=T2Kauaiblk3|447=C|452=11|11=FIX44-List-ClOrdID-1226|22=4|38=250000|48=US95709TAH32|54=1|55=[N/A/]|67=1|453=1|448=T2Kauaiblk3|447=C|452=11|11=FIX44-List-ClOrdID-1227|22=4|38=350000|48=US29379VAW37|54=1|55=[N/A/]|67=1|453=1|448=T2Kauaiblk3|447=C|452=11|10=023|8=FIX.4.4|9=56|35=0|34=3|49=T2Kauaiblk3|52=20201130-08:37:32.408|56=MA|10=064|8=FIX.4.4|9=56|35=0|34=4|49=T2Kauaiblk3|52=20201130-08:39:03.407|56=MA|10=064|8=FIX.4.4|9=56|35=0|34=5|49=T2Kauaiblk3|52=20201130-08:40:33.407|56=MA|10=060|8=FIX.4.4|9=56|35=0|34=6|49=T2Kauaiblk3|52=20201130-08:42:04.406|56=MA|10=060|8=FIX.4.4|9=56|35=0|34=7|49=T2Kauaiblk3|52=20201130-08:43:35.383|56=MA|10=070|8=FIX.4.4|9=56|35=0|34=8|49=T2Kauaiblk3|52=20201130-08:45:05.404|56=MA|10=064|8=FIX.4.4|9=56|35=0|34=9|49=T2Kauaiblk3|52=20201130-08:46:35.404|56=MA|10=069|8=FIX.4.4|9=57|35=0|34=10|49=T2Kauaiblk3|52=20201130-08:48:05.404|56=MA|10=109|8=FIX.4.4|9=57|35=0|34=11|49=T2Kauaiblk3|52=20201130-08:49:35.405|56=MA|10=115|8=FIX.4.4|9=57|35=0|34=12|49=T2Kauaiblk3|52=20201130-08:51:06.405|56=MA|10=107|8=FIX.4.4|9=57|35=0|34=13|49=T2Kauaiblk3|52=20201130-08:52:36.405|56=MA|10=112|8=FIX.4.4|9=57|35=0|34=14|49=T2Kauaiblk3|52=20201130-08:54:06.406|56=MA|10=113|8=FIX.4.4|9=57|35=0|34=15|49=T2Kauaiblk3|52=20201130-08:55:36.411|56=MA|10=114|8=FIX.4.4|9=57|35=0|34=16|49=T2Kauaiblk3|52=20201130-08:57:06.414|56=MA|10=117|8=FIX.4.4|9=57|35=0|34=17|49=T2Kauaiblk3|52=20201130-08:58:36.417|56=MA|10=125|8=FIX.4.4|9=57|35=0|34=18|49=T2Kauaiblk3|52=20201130-09:00:06.417|56=MA|10=111|8=FIX.4.4|9=57|35=0|34=19|49=T2Kauaiblk3|52=20201130-09:01:37.417|56=MA|10=117|8=FIX.4.4|9=57|35=0|34=20|49=T2Kauaiblk3|52=20201130-09:03:08.416|56=MA|10=108|8=FIX.4.4|9=57|35=0|34=21|49=T2Kauaiblk3|52=20201130-09:04:39.416|56=MA|10=114|8=FIX.4.4|9=57|35=0|34=22|49=T2Kauaiblk3|52=20201130-09:06:10.415|56=MA|10=105|8=FIX.4.4|9=57|35=0|34=23|49=T2Kauaiblk3|52=20201130-09:07:40.415|56=MA|10=110|8=FIX.4.4|9=57|35=0|34=24|49=T2Kauaiblk3|52=20201130-09:09:10.415|56=MA|10=110|8=FIX.4.4|9=57|35=0|34=25|49=T2Kauaiblk3|52=20201130-09:10:40.415|56=MA|10=106|8=FIX.4.4|9=57|35=0|34=26|49=T2Kauaiblk3|52=20201130-09:12:10.417|56=MA|10=108|8=FIX.4.4|9=57|35=0|34=27|49=T2Kauaiblk3|52=20201130-09:13:40.417|56=MA|10=113|8=FIX.4.4|9=57|35=0|34=28|49=T2Kauaiblk3|52=20201130-09:15:10.418|56=MA|10=114|8=FIX.4.4|9=57|35=0|34=29|49=T2Kauaiblk3|52=20201130-09:16:40.418|56=MA|10=119|8=FIX.4.4|9=57|35=0|34=30|49=T2Kauaiblk3|52=20201130-09:18:10.420|56=MA|10=103|8=FIX.4.4|9=57|35=0|34=31|49=T2Kauaiblk3|52=20201130-09:19:40.420|56=MA|10=108|8=FIX.4.4|9=57|35=0|34=32|49=T2Kauaiblk3|52=20201130-09:21:11.420|56=MA|10=100|8=FIX.4.4|9=57|35=0|34=33|49=T2Kauaiblk3|52=20201130-09:22:41.420|56=MA|10=105|8=FIX.4.4|9=57|35=0|34=34|49=T2Kauaiblk3|52=20201130-09:24:12.419|56=MA|10=114|8=FIX.4.4|9=57|35=0|34=35|49=T2Kauaiblk3|52=20201130-09:25:42.419|56=MA|10=119|8=FIX.4.4|9=57|35=0|34=36|49=T2Kauaiblk3|52=20201130-09:27:12.419|56=MA|10=119|8=FIX.4.4|9=57|35=0|34=37|49=T2Kauaiblk3|52=20201130-09:28:42.422|56=MA|10=118|8=FIX.4.4|9=57|35=0|34=38|49=T2Kauaiblk3|52=20201130-09:30:12.424|56=MA|10=111|8=FIX.4.4|9=57|35=0|34=39|49=T2Kauaiblk3|52=20201130-09:31:42.427|56=MA|10=119|8=FIX.4.4|9=57|35=0|34=40|49=T2Kauaiblk3|52=20201130-09:33:12.430|56=MA|10=104|8=FIX.4.4|9=57|35=0|34=41|49=T2Kauaiblk3|52=20201130-09:34:42.430|56=MA|10=109|8=FIX.4.4|9=57|35=0|34=42|49=T2Kauaiblk3|52=20201130-09:36:12.431|56=MA|10=110|8=FIX.4.4|9=57|35=0|34=43|49=T2Kauaiblk3|52=20201130-09:37:42.431|56=MA|10=115|8=FIX.4.4|9=57|35=0|34=44|49=T2Kauaiblk3|52=20201130-09:39:12.432|56=MA|10=116|8=FIX.4.4|9=57|35=0|34=45|49=T2Kauaiblk3|52=20201130-09:40:42.432|56=MA|10=112|8=FIX.4.4|9=57|35=0|34=46|49=T2Kauaiblk3|52=20201130-09:42:13.431|56=MA|10=112|8=FIX.4.4|9=57|35=0|34=47|49=T2Kauaiblk3|52=20201130-09:43:43.432|56=MA|10=118|8=FIX.4.4|9=57|35=0|34=48|49=T2Kauaiblk3|52=20201130-09:45:13.433|56=MA|10=119|8=FIX.4.4|9=57|35=0|34=49|49=T2Kauaiblk3|52=20201130-09:46:43.435|56=MA|10=126|8=FIX.4.4|9=57|35=0|34=50|49=T2Kauaiblk3|52=20201130-09:48:13.438|56=MA|10=120|8=FIX.4.4|9=57|35=0|34=51|49=T2Kauaiblk3|52=20201130-09:49:43.439|56=MA|10=126|8=FIX.4.4|9=57|35=0|34=52|49=T2Kauaiblk3|52=20201130-09:51:13.440|56=MA|10=109|8=FIX.4.4|9=57|35=0|34=53|49=T2Kauaiblk3|52=20201130-09:52:43.442|56=MA|10=116|8=FIX.4.4|9=57|35=0|34=54|49=T2Kauaiblk3|52=20201130-09:54:13.443|56=MA|10=117|8=FIX.4.4|9=57|35=0|34=55|49=T2Kauaiblk3|52=20201130-09:55:44.443|56=MA|10=123|8=FIX.4.4|9=57|35=0|34=56|49=T2Kauaiblk3|52=20201130-09:57:14.443|56=MA|10=123|8=FIX.4.4|9=57|35=0|34=57|49=T2Kauaiblk3|52=20201130-09:58:44.443|56=MA|10=128|8=FIX.4.4|9=57|35=0|34=58|49=T2Kauaiblk3|52=20201130-10:00:15.443|56=MA|10=106|8=FIX.4.4|9=57|35=0|34=59|49=T2Kauaiblk3|52=20201130-10:01:45.445|56=MA|10=113|8=FIX.4.4|9=57|35=0|34=60|49=T2Kauaiblk3|52=20201130-10:03:15.448|56=MA|10=107|8=FIX.4.4|9=57|35=0|34=61|49=T2Kauaiblk3|52=20201130-10:04:45.451|56=MA|10=106|8=FIX.4.4|9=57|35=0|34=62|49=T2Kauaiblk3|52=20201130-10:06:15.452|56=MA|10=107|8=FIX.4.4|9=57|35=0|34=63|49=T2Kauaiblk3|52=20201130-10:07:45.455|56=MA|10=115|8=FIX.4.4|9=57|35=0|34=64|49=T2Kauaiblk3|52=20201130-10:09:15.457|56=MA|10=117|8=FIX.4.4|9=57|35=0|34=65|49=T2Kauaiblk3|52=20201130-10:10:46.457|56=MA|10=114|8=FIX.4.4|9=57|35=0|34=66|49=T2Kauaiblk3|52=20201130-10:12:16.458|56=MA|10=115|8=FIX.4.4|9=57|35=0|34=67|49=T2Kauaiblk3|52=20201130-10:13:47.457|56=MA|10=120|8=FIX.4.4|9=57|35=0|34=68|49=T2Kauaiblk3|52=20201130-10:15:17.457|56=MA|10=120|8=FIX.4.4|9=57|35=0|34=69|49=T2Kauaiblk3|52=20201130-10:16:47.459|56=MA|10=127|8=FIX.4.4|9=57|35=0|34=70|49=T2Kauaiblk3|52=20201130-10:18:18.458|56=MA|10=118|8=FIX.4.4|9=57|35=0|34=71|49=T2Kauaiblk3|52=20201130-10:19:48.461|56=MA|10=117|8=FIX.4.4|9=57|35=0|34=72|49=T2Kauaiblk3|52=20201130-10:21:18.464|56=MA|10=111|8=FIX.4.4|9=57|35=0|34=73|49=T2Kauaiblk3|52=20201130-10:22:48.468|56=MA|10=120|8=FIX.4.4|9=57|35=0|34=74|49=T2Kauaiblk3|52=20201130-10:24:18.470|56=MA|10=113|8=FIX.4.4|9=57|35=0|34=75|49=T2Kauaiblk3|52=20201130-10:25:48.472|56=MA|10=120|8=FIX.4.4|9=57|35=0|34=76|49=T2Kauaiblk3|52=20201130-10:27:18.473|56=MA|10=121|8=FIX.4.4|9=57|35=0|34=77|49=T2Kauaiblk3|52=20201130-10:28:48.473|56=MA|10=126|8=FIX.4.4|9=57|35=0|34=78|49=T2Kauaiblk3|52=20201130-10:30:18.474|56=MA|10=118|8=FIX.4.4|9=57|35=0|34=79|49=T2Kauaiblk3|52=20201130-10:31:48.474|56=MA|10=123|8=FIX.4.4|9=57|35=0|34=80|49=T2Kauaiblk3|52=20201130-10:33:18.475|56=MA|10=115|8=FIX.4.4|9=57|35=0|34=81|49=T2Kauaiblk3|52=20201130-10:34:48.475|56=MA|10=120|8=FIX.4.4|9=57|35=0|34=82|49=T2Kauaiblk3|52=20201130-10:36:18.475|56=MA|10=120|8=FIX.4.4|9=57|35=0|34=83|49=T2Kauaiblk3|52=20201130-10:37:48.475|56=MA|10=125|8=FIX.4.4|9=57|35=0|34=84|49=T2Kauaiblk3|52=20201130-10:39:18.476|56=MA|10=126|8=FIX.4.4|9=57|35=0|34=85|49=T2Kauaiblk3|52=20201130-10:40:48.476|56=MA|10=122|8=FIX.4.4|9=57|35=0|34=86|49=T2Kauaiblk3|52=20201130-10:42:18.477|56=MA|10=123|8=FIX.4.4|9=57|35=0|34=87|49=T2Kauaiblk3|52=20201130-10:43:48.477|56=MA|10=128|8=FIX.4.4|9=57|35=0|34=88|49=T2Kauaiblk3|52=20201130-10:45:18.478|56=MA|10=129|8=FIX.4.4|9=57|35=0|34=89|49=T2Kauaiblk3|52=20201130-10:46:48.478|56=MA|10=134|8=FIX.4.4|9=57|35=0|34=90|49=T2Kauaiblk3|52=20201130-10:48:18.478|56=MA|10=125|8=FIX.4.4|9=57|35=0|34=91|49=T2Kauaiblk3|52=20201130-10:49:49.476|56=MA|10=129|8=FIX.4.4|9=57|35=0|34=92|49=T2Kauaiblk3|52=20201130-10:51:19.476|56=MA|10=120|8=FIX.4.4|9=57|35=0|34=93|49=T2Kauaiblk3|52=20201130-10:52:49.478|56=MA|10=127|8=FIX.4.4|9=57|35=0|34=94|49=T2Kauaiblk3|52=20201130-10:54:19.479|56=MA|10=128|8=FIX.4.4|9=57|35=0|34=95|49=T2Kauaiblk3|52=20201130-10:55:49.482|56=MA|10=127|8=FIX.4.4|9=57|35=0|34=96|49=T2Kauaiblk3|52=20201130-10:57:19.484|56=MA|10=129|8=FIX.4.4|9=57|35=0|34=97|49=T2Kauaiblk3|52=20201130-10:58:49.485|56=MA|10=135|8=FIX.4.4|9=57|35=0|34=98|49=T2Kauaiblk3|52=20201130-11:00:19.486|56=MA|10=122|8=FIX.4.4|9=57|35=0|34=99|49=T2Kauaiblk3|52=20201130-11:01:49.488|56=MA|10=129|8=FIX.4.4|9=58|35=0|34=100|49=T2Kauaiblk3|52=20201130-11:03:19.488|56=MA|10=160|8=FIX.4.4|9=58|35=0|34=101|49=T2Kauaiblk3|52=20201130-11:04:50.487|56=MA|10=156|8=FIX.4.4|9=58|35=0|34=102|49=T2Kauaiblk3|52=20201130-11:06:20.488|56=MA|10=157|8=FIX.4.4|9=58|35=0|34=103|49=T2Kauaiblk3|52=20201130-11:07:50.489|56=MA|10=163|8=FIX.4.4|9=58|35=0|34=104|49=T2Kauaiblk3|52=20201130-11:09:21.488|56=MA|10=163|8=FIX.4.4|9=58|35=0|34=105|49=T2Kauaiblk3|52=20201130-11:10:51.490|56=MA|10=152|8=FIX.4.4|9=58|35=0|34=106|49=T2Kauaiblk3|52=20201130-11:12:21.490|56=MA|10=152|8=FIX.4.4|9=58|35=0|34=107|49=T2Kauaiblk3|52=20201130-11:13:51.493|56=MA|10=160|8=FIX.4.4|9=58|35=0|34=108|49=T2Kauaiblk3|52=20201130-11:15:22.492|56=MA|10=160|8=FIX.4.4|9=58|35=0|34=109|49=T2Kauaiblk3|52=20201130-11:16:52.494|56=MA|10=167|8=FIX.4.4|9=58|35=0|34=110|49=T2Kauaiblk3|52=20201130-11:18:23.494|56=MA|10=159|8=FIX.4.4|9=58|35=0|34=111|49=T2Kauaiblk3|52=20201130-11:19:53.495|56=MA|10=165|8=FIX.4.4|9=58|35=0|34=112|49=T2Kauaiblk3|52=20201130-11:21:24.494|56=MA|10=156|8=FIX.4.4|9=58|35=0|34=113|49=T2Kauaiblk3|52=20201130-11:22:54.494|56=MA|10=161|8=FIX.4.4|9=58|35=0|34=114|49=T2Kauaiblk3|52=20201130-11:24:24.494|56=MA|10=161|8=FIX.4.4|9=58|35=0|34=115|49=T2Kauaiblk3|52=20201130-11:25:54.494|56=MA|10=166|8=FIX.4.4|9=58|35=0|34=116|49=T2Kauaiblk3|52=20201130-11:27:24.495|56=MA|10=167|8=FIX.4.4|9=58|35=0|34=117|49=T2Kauaiblk3|52=20201130-11:28:55.494|56=MA|10=172|8=FIX.4.4|9=58|35=0|34=118|49=T2Kauaiblk3|52=20201130-11:30:25.494|56=MA|10=163|8=FIX.4.4|9=58|35=0|34=119|49=T2Kauaiblk3|52=20201130-11:31:55.494|56=MA|10=168|8=FIX.4.4|9=58|35=0|34=120|49=T2Kauaiblk3|52=20201130-11:33:25.495|56=MA|10=160|8=FIX.4.4|9=58|35=0|34=121|49=T2Kauaiblk3|52=20201130-11:34:56.494|56=MA|10=165|8=FIX.4.4|9=58|35=0|34=122|49=T2Kauaiblk3|52=20201130-11:36:27.493|56=MA|10=165|8=FIX.4.4|9=58|35=0|34=123|49=T2Kauaiblk3|52=20201130-11:37:57.494|56=MA|10=171|8=FIX.4.4|9=58|35=0|34=124|49=T2Kauaiblk3|52=20201130-11:39:28.494|56=MA|10=172|8=FIX.4.4|9=58|35=0|34=125|49=T2Kauaiblk3|52=20201130-11:40:59.494|56=MA|10=169|8=FIX.4.4|9=58|35=0|34=126|49=T2Kauaiblk3|52=20201130-11:42:30.493|56=MA|10=160|8=FIX.4.4|9=58|35=0|34=127|49=T2Kauaiblk3|52=20201130-11:44:00.493|56=MA|10=160|8=FIX.4.4|9=58|35=0|34=128|49=T2Kauaiblk3|52=20201130-11:45:30.493|56=MA|10=165|8=FIX.4.4|9=58|35=0|34=129|49=T2Kauaiblk3|52=20201130-11:47:00.493|56=MA|10=165|8=FIX.4.4|9=58|35=0|34=130|49=T2Kauaiblk3|52=20201130-11:48:31.492|56=MA|10=161|8=FIX.4.4|9=58|35=0|34=131|49=T2Kauaiblk3|52=20201130-11:50:01.492|56=MA|10=152|8=FIX.4.4|9=58|35=0|34=132|49=T2Kauaiblk3|52=20201130-11:51:31.492|56=MA|10=157|8=FIX.4.4|9=58|35=0|34=133|49=T2Kauaiblk3|52=20201130-11:53:02.491|56=MA|10=157|8=FIX.4.4|9=58|35=0|34=134|49=T2Kauaiblk3|52=20201130-11:54:32.492|56=MA|10=163|8=FIX.4.4|9=58|35=0|34=135|49=T2Kauaiblk3|52=20201130-11:56:03.491|56=MA|10=163|8=FIX.4.4|9=58|35=0|34=136|49=T2Kauaiblk3|52=20201130-11:57:33.493|56=MA|10=170|8=FIX.4.4|9=58|35=0|34=137|49=T2Kauaiblk3|52=20201130-11:59:04.491|56=MA|10=169|8=FIX.4.4|9=58|35=0|34=138|49=T2Kauaiblk3|52=20201130-12:00:34.491|56=MA|10=160|8=FIX.4.4|9=58|35=0|34=139|49=T2Kauaiblk3|52=20201130-12:02:04.491|56=MA|10=160|8=FIX.4.4|9=58|35=0|34=140|49=T2Kauaiblk3|52=20201130-12:03:35.490|56=MA|10=156|8=FIX.4.4|9=58|35=0|34=141|49=T2Kauaiblk3|52=20201130-12:05:05.491|56=MA|10=157|8=FIX.4.4|9=58|35=0|34=142|49=T2Kauaiblk3|52=20201130-12:06:35.491|56=MA|10=162|8=FIX.4.4|9=58|35=0|34=143|49=T2Kauaiblk3|52=20201130-12:08:06.491|56=MA|10=163|8=FIX.4.4|9=58|35=0|34=144|49=T2Kauaiblk3|52=20201130-12:09:36.491|56=MA|10=168|8=FIX.4.4|9=58|35=0|34=145|49=T2Kauaiblk3|52=20201130-12:11:07.489|56=MA|10=167|8=FIX.4.4|9=58|35=0|34=146|49=T2Kauaiblk3|52=20201130-12:12:37.491|56=MA|10=165|8=FIX.4.4|9=58|35=0|34=147|49=T2Kauaiblk3|52=20201130-12:14:08.490|56=MA|10=165|8=FIX.4.4|9=58|35=0|34=148|49=T2Kauaiblk3|52=20201130-12:15:38.490|56=MA|10=170|8=FIX.4.4|9=58|35=0|34=149|49=T2Kauaiblk3|52=20201130-12:17:08.490|56=MA|10=170|8=FIX.4.4|9=58|35=0|34=150|49=T2Kauaiblk3|52=20201130-12:18:38.491|56=MA|10=167|8=FIX.4.4|9=58|35=0|34=151|49=T2Kauaiblk3|52=20201130-12:20:08.495|56=MA|10=162|8=FIX.4.4|9=58|35=0|34=152|49=T2Kauaiblk3|52=20201130-12:21:38.499|56=MA|10=171|8=FIX.4.4|9=58|35=0|34=153|49=T2Kauaiblk3|52=20201130-12:23:08.503|56=MA|10=157|8=FIX.4.4|9=58|35=0|34=154|49=T2Kauaiblk3|52=20201130-12:24:38.505|56=MA|10=164|8=FIX.4.4|9=58|35=0|34=155|49=T2Kauaiblk3|52=20201130-12:26:08.508|56=MA|10=167|8=FIX.4.4|9=58|35=0|34=156|49=T2Kauaiblk3|52=20201130-12:27:38.511|56=MA|10=166|8=FIX.4.4|9=58|35=0|34=157|49=T2Kauaiblk3|52=20201130-12:29:08.514|56=MA|10=169|8=FIX.4.4|9=58|35=0|34=158|49=T2Kauaiblk3|52=20201130-12:30:38.515|56=MA|10=166|8=FIX.4.4|9=58|35=0|34=159|49=T2Kauaiblk3|52=20201130-12:32:08.517|56=MA|10=168|8=FIX.4.4|9=58|35=0|34=160|49=T2Kauaiblk3|52=20201130-12:33:38.519|56=MA|10=166|8=FIX.4.4|9=58|35=0|34=161|49=T2Kauaiblk3|52=20201130-12:35:08.519|56=MA|10=166|8=FIX.4.4|9=58|35=0|34=162|49=T2Kauaiblk3|52=20201130-12:36:38.521|56=MA|10=164|8=FIX.4.4|9=58|35=0|34=163|49=T2Kauaiblk3|52=20201130-12:38:08.522|56=MA|10=165|8=FIX.4.4|9=58|35=0|34=164|49=T2Kauaiblk3|52=20201130-12:39:38.523|56=MA|10=171|8=FIX.4.4|9=58|35=0|34=165|49=T2Kauaiblk3|52=20201130-12:41:08.523|56=MA|10=162|8=FIX.4.4|9=58|35=0|34=166|49=T2Kauaiblk3|52=20201130-12:42:38.525|56=MA|10=169|8=FIX.4.4|9=58|35=0|34=167|49=T2Kauaiblk3|52=20201130-12:44:08.526|56=MA|10=170|8=FIX.4.4|9=58|35=0|34=168|49=T2Kauaiblk3|52=20201130-12:45:38.526|56=MA|10=175|8=FIX.4.4|9=58|35=0|34=169|49=T2Kauaiblk3|52=20201130-12:47:08.526|56=MA|10=175|8=FIX.4.4|9=58|35=0|34=170|49=T2Kauaiblk3|52=20201130-12:48:38.527|56=MA|10=172|8=FIX.4.4|9=58|35=0|34=171|49=T2Kauaiblk3|52=20201130-12:50:08.527|56=MA|10=163|8=FIX.4.4|9=58|35=0|34=172|49=T2Kauaiblk3|52=20201130-12:51:38.527|56=MA|10=168|8=FIX.4.4|9=58|35=0|34=173|49=T2Kauaiblk3|52=20201130-12:53:08.530|56=MA|10=162|8=FIX.4.4|9=58|35=0|34=174|49=T2Kauaiblk3|52=20201130-12:54:38.533|56=MA|10=170|8=FIX.4.4|9=58|35=0|34=175|49=T2Kauaiblk3|52=20201130-12:56:08.536|56=MA|10=173|8=FIX.4.4|9=58|35=0|34=176|49=T2Kauaiblk3|52=20201130-12:57:38.537|56=MA|10=179|8=FIX.4.4|9=58|35=0|34=177|49=T2Kauaiblk3|52=20201130-12:59:08.540|56=MA|10=173|8=FIX.4.4|9=58|35=0|34=178|49=T2Kauaiblk3|52=20201130-13:00:38.542|56=MA|10=166|8=FIX.4.4|9=58|35=0|34=179|49=T2Kauaiblk3|52=20201130-13:02:08.545|56=MA|10=169|8=FIX.4.4|9=58|35=0|34=180|49=T2Kauaiblk3|52=20201130-13:03:38.545|56=MA|10=165|8=FIX.4.4|9=58|35=0|34=181|49=T2Kauaiblk3|52=20201130-13:05:08.548|56=MA|10=168|8=FIX.4.4|9=58|35=0|34=182|49=T2Kauaiblk3|52=20201130-13:06:38.548|56=MA|10=173|8=FIX.4.4|9=58|35=0|34=183|49=T2Kauaiblk3|52=20201130-13:08:08.550|56=MA|10=166|8=FIX.4.4|9=58|35=0|34=184|49=T2Kauaiblk3|52=20201130-13:09:38.550|56=MA|10=171|8=FIX.4.4|9=58|35=0|34=185|49=T2Kauaiblk3|52=20201130-13:11:08.551|56=MA|10=163|8=FIX.4.4|9=58|35=0|34=186|49=T2Kauaiblk3|52=20201130-13:12:38.551|56=MA|10=168|8=FIX.4.4|9=58|35=0|34=187|49=T2Kauaiblk3|52=20201130-13:14:08.552|56=MA|10=169|8=FIX.4.4|9=58|35=0|34=188|49=T2Kauaiblk3|52=20201130-13:15:38.552|56=MA|10=174|8=FIX.4.4|9=58|35=0|34=189|49=T2Kauaiblk3|52=20201130-13:17:08.553|56=MA|10=175|8=FIX.4.4|9=58|35=0|34=190|49=T2Kauaiblk3|52=20201130-13:18:38.554|56=MA|10=172|8=FIX.4.4|9=58|35=0|34=191|49=T2Kauaiblk3|52=20201130-13:20:08.554|56=MA|10=163|8=FIX.4.4|9=58|35=0|34=192|49=T2Kauaiblk3|52=20201130-13:21:38.554|56=MA|10=168|8=FIX.4.4|9=58|35=0|34=193|49=T2Kauaiblk3|52=20201130-13:23:08.556|56=MA|10=170|8=FIX.4.4|9=58|35=0|34=194|49=T2Kauaiblk3|52=20201130-13:24:39.555|56=MA|10=175|8=FIX.4.4|9=58|35=0|34=195|49=T2Kauaiblk3|52=20201130-13:26:09.555|56=MA|10=175|8=FIX.4.4|9=58|35=0|34=196|49=T2Kauaiblk3|52=20201130-13:27:39.556|56=MA|10=181|8=FIX.4.4|9=58|35=0|34=197|49=T2Kauaiblk3|52=20201130-13:29:09.557|56=MA|10=182|8=FIX.4.4|9=58|35=0|34=198|49=T2Kauaiblk3|52=20201130-13:30:40.555|56=MA|10=168|8=FIX.4.4|9=58|35=0|34=199|49=T2Kauaiblk3|52=20201130-13:32:10.555|56=MA|10=168|8=FIX.4.4|9=58|35=0|34=200|49=T2Kauaiblk3|52=20201130-13:33:40.557|56=MA|10=157|8=FIX.4.4|9=58|35=0|34=201|49=T2Kauaiblk3|52=20201130-13:35:10.557|56=MA|10=157|8=FIX.4.4|9=58|35=0|34=202|49=T2Kauaiblk3|52=20201130-13:36:40.557|56=MA|10=162|8=FIX.4.4|9=58|35=0|34=203|49=T2Kauaiblk3|52=20201130-13:38:11.556|56=MA|10=162|8=FIX.4.4|9=58|35=0|34=204|49=T2Kauaiblk3|52=20201130-13:39:41.556|56=MA|10=167|8=FIX.4.4|9=58|35=0|34=205|49=T2Kauaiblk3|52=20201130-13:41:12.556|56=MA|10=159|8=FIX.4.4|9=58|35=0|34=206|49=T2Kauaiblk3|52=20201130-13:42:42.556|56=MA|10=164|8=FIX.4.4|9=58|35=0|34=207|49=T2Kauaiblk3|52=20201130-13:44:13.557|56=MA|10=166|8=FIX.4.4|9=58|35=0|34=208|49=T2Kauaiblk3|52=20201130-13:45:44.555|56=MA|10=170|8=FIX.4.4|9=58|35=0|34=209|49=T2Kauaiblk3|52=20201130-13:47:14.555|56=MA|10=170|8=FIX.4.4|9=58|35=0|34=210|49=T2Kauaiblk3|52=20201130-13:48:44.557|56=MA|10=168|8=FIX.4.4|9=58|35=0|34=211|49=T2Kauaiblk3|52=20201130-13:50:15.557|56=MA|10=160|8=FIX.4.4|9=58|35=0|34=212|49=T2Kauaiblk3|52=20201130-13:51:46.556|56=MA|10=165|8=FIX.4.4|9=58|35=0|34=213|49=T2Kauaiblk3|52=20201130-13:53:16.556|56=MA|10=165|8=FIX.4.4|9=58|35=0|34=214|49=T2Kauaiblk3|52=20201130-13:54:47.555|56=MA|10=170|8=FIX.4.4|9=58|35=0|34=215|49=T2Kauaiblk3|52=20201130-13:56:17.556|56=MA|10=171|8=FIX.4.4|9=58|35=0|34=216|49=T2Kauaiblk3|52=20201130-13:57:48.554|56=MA|10=175|8=FIX.4.4|9=58|35=0|34=217|49=T2Kauaiblk3|52=20201130-13:59:18.556|56=MA|10=177|8=FIX.4.4|9=58|35=0|34=218|49=T2Kauaiblk3|52=20201130-14:00:48.557|56=MA|10=169|8=FIX.4.4|9=58|35=0|34=219|49=T2Kauaiblk3|52=20201130-14:02:18.560|56=MA|10=163|8=FIX.4.4|9=58|35=0|34=220|49=T2Kauaiblk3|52=20201130-14:03:48.565|56=MA|10=164|8=FIX.4.4|9=58|35=0|34=221|49=T2Kauaiblk3|52=20201130-14:05:18.568|56=MA|10=167|8=FIX.4.4|9=58|35=0|34=222|49=T2Kauaiblk3|52=20201130-14:06:48.570|56=MA|10=165|8=FIX.4.4|9=58|35=0|34=223|49=T2Kauaiblk3|52=20201130-14:08:18.572|56=MA|10=167|8=FIX.4.4|9=58|35=0|34=224|49=T2Kauaiblk3|52=20201130-14:09:48.575|56=MA|10=175|8=FIX.4.4|9=58|35=0|34=225|49=T2Kauaiblk3|52=20201130-14:11:18.577|56=MA|10=168|8=FIX.4.4|9=58|35=0|34=226|49=T2Kauaiblk3|52=20201130-14:12:48.579|56=MA|10=175|8=FIX.4.4|9=58|35=0|34=227|49=T2Kauaiblk3|52=20201130-14:14:18.581|56=MA|10=168|8=FIX.4.4|9=58|35=0|34=228|49=T2Kauaiblk3|52=20201130-14:15:48.583|56=MA|10=175|8=FIX.4.4|9=58|35=0|34=229|49=T2Kauaiblk3|52=20201130-14:17:18.583|56=MA|10=175|8=FIX.4.4|9=58|35=0|34=230|49=T2Kauaiblk3|52=20201130-14:18:48.585|56=MA|10=173|8=FIX.4.4|9=58|35=0|34=231|49=T2Kauaiblk3|52=20201130-14:20:18.587|56=MA|10=166|8=FIX.4.4|9=58|35=0|34=232|49=T2Kauaiblk3|52=20201130-14:21:49.587|56=MA|10=172|8=FIX.4.4|9=58|35=0|34=233|49=T2Kauaiblk3|52=20201130-14:23:19.587|56=MA|10=172|8=FIX.4.4|9=58|35=0|34=234|49=T2Kauaiblk3|52=20201130-14:24:49.588|56=MA|10=178|8=FIX.4.4|9=58|35=0|34=235|49=T2Kauaiblk3|52=20201130-14:26:19.588|56=MA|10=178|8=FIX.4.4|9=58|35=0|34=236|49=T2Kauaiblk3|52=20201130-14:27:49.589|56=MA|10=184|8=FIX.4.4|9=58|35=0|34=237|49=T2Kauaiblk3|52=20201130-14:29:19.589|56=MA|10=184|8=FIX.4.4|9=58|35=0|34=238|49=T2Kauaiblk3|52=20201130-14:30:49.590|56=MA|10=172|8=FIX.4.4|9=58|35=0|34=239|49=T2Kauaiblk3|52=20201130-14:32:19.590|56=MA|10=172|8=FIX.4.4|9=58|35=0|34=240|49=T2Kauaiblk3|52=20201130-14:33:49.592|56=MA|10=170|8=FIX.4.4|9=58|35=0|34=241|49=T2Kauaiblk3|52=20201130-14:35:20.298|56=MA|10=165|8=FIX.4.4|9=58|35=0|34=242|49=T2Kauaiblk3|52=20201130-14:36:50.421|56=MA|10=158|8=FIX.4.4|9=58|35=0|34=243|49=T2Kauaiblk3|52=20201130-14:38:20.491|56=MA|10=165|8=FIX.4.4|9=58|35=0|34=244|49=T2Kauaiblk3|52=20201130-14:39:50.591|56=MA|10=171|8=FIX.4.4|9=58|35=0|34=245|49=T2Kauaiblk3|52=20201130-14:41:20.593|56=MA|10=164|8=FIX.4.4|9=58|35=0|34=246|49=T2Kauaiblk3|52=20201130-14:42:50.593|56=MA|10=169|8=FIX.4.4|9=58|35=0|34=247|49=T2Kauaiblk3|52=20201130-14:44:20.593|56=MA|10=169|8=FIX.4.4|9=58|35=0|34=248|49=T2Kauaiblk3|52=20201130-14:45:50.593|56=MA|10=174|8=FIX.4.4|9=58|35=0|34=249|49=T2Kauaiblk3|52=20201130-14:47:20.594|56=MA|10=175|8=FIX.4.4|9=58|35=0|34=250|49=T2Kauaiblk3|52=20201130-14:48:51.593|56=MA|10=171|8=FIX.4.4|9=58|35=0|34=251|49=T2Kauaiblk3|52=20201130-14:50:22.592|56=MA|10=162|8=FIX.4.4|9=58|35=0|34=252|49=T2Kauaiblk3|52=20201130-14:51:52.592|56=MA|10=167|8=FIX.4.4|9=58|35=0|34=253|49=T2Kauaiblk3|52=20201130-14:53:22.594|56=MA|10=169|8=FIX.4.4|9=58|35=0|34=254|49=T2Kauaiblk3|52=20201130-14:54:52.594|56=MA|10=174|8=FIX.4.4|9=58|35=0|34=255|49=T2Kauaiblk3|52=20201130-14:56:22.594|56=MA|10=174|8=FIX.4.4|9=58|35=0|34=256|49=T2Kauaiblk3|52=20201130-14:57:52.594|56=MA|10=179|8=FIX.4.4|9=58|35=0|34=257|49=T2Kauaiblk3|52=20201130-14:59:23.593|56=MA|10=179|8=FIX.4.4|9=58|35=0|34=258|49=T2Kauaiblk3|52=20201130-15:00:54.594|56=MA|10=172|8=FIX.4.4|9=58|35=0|34=259|49=T2Kauaiblk3|52=20201130-15:02:24.594|56=MA|10=172|8=FIX.4.4|9=58|35=0|34=260|49=T2Kauaiblk3|52=20201130-15:03:55.592|56=MA|10=167|8=FIX.4.4|9=58|35=0|34=261|49=T2Kauaiblk3|52=20201130-15:05:25.592|56=MA|10=167|8=FIX.4.4|9=58|35=0|34=262|49=T2Kauaiblk3|52=20201130-15:06:55.592|56=MA|10=172|8=FIX.4.4|9=58|35=0|34=263|49=T2Kauaiblk3|52=20201130-15:08:25.592|56=MA|10=172|8=FIX.4.4|9=58|35=0|34=264|49=T2Kauaiblk3|52=20201130-15:09:55.597|56=MA|10=182|8=FIX.4.4|9=58|35=0|34=265|49=T2Kauaiblk3|52=20201130-15:11:25.602|56=MA|10=160|8=FIX.4.4|9=58|35=0|34=266|49=T2Kauaiblk3|52=20201130-15:12:55.606|56=MA|10=169|8=FIX.4.4|9=58|35=0|34=267|49=T2Kauaiblk3|52=20201130-15:14:25.609|56=MA|10=172|8=FIX.4.4|9=58|35=0|34=268|49=T2Kauaiblk3|52=20201130-15:15:55.614|56=MA|10=173|8=FIX.4.4|9=58|35=0|34=269|49=T2Kauaiblk3|52=20201130-15:17:25.616|56=MA|10=175|8=FIX.4.4|9=58|35=0|34=270|49=T2Kauaiblk3|52=20201130-15:18:55.620|56=MA|10=166|8=FIX.4.4|9=58|35=0|34=271|49=T2Kauaiblk3|52=20201130-15:20:25.622|56=MA|10=159|8=FIX.4.4|9=58|35=0|34=272|49=T2Kauaiblk3|52=20201130-15:21:55.624|56=MA|10=166|8=FIX.4.4|9=58|35=0|34=273|49=T2Kauaiblk3|52=20201130-15:23:25.627|56=MA|10=169|8=FIX.4.4|9=58|35=0|34=274|49=T2Kauaiblk3|52=20201130-15:24:55.629|56=MA|10=176|8=FIX.4.4|9=58|35=0|34=275|49=T2Kauaiblk3|52=20201130-15:26:25.629|56=MA|10=176|8=FIX.4.4|9=58|35=0|34=276|49=T2Kauaiblk3|52=20201130-15:27:55.631|56=MA|10=174|8=FIX.4.4|9=58|35=0|34=277|49=T2Kauaiblk3|52=20201130-15:29:25.632|56=MA|10=175|8=FIX.4.4|9=58|35=0|34=278|49=T2Kauaiblk3|52=20201130-15:30:55.633|56=MA|10=172|8=FIX.4.4|9=58|35=0|34=279|49=T2Kauaiblk3|52=20201130-15:32:25.635|56=MA|10=174|8=FIX.4.4|9=58|35=0|34=280|49=T2Kauaiblk3|52=20201130-15:33:55.636|56=MA|10=171|8=FIX.4.4|9=58|35=0|34=281|49=T2Kauaiblk3|52=20201130-15:35:25.637|56=MA|10=172|8=FIX.4.4|9=58|35=0|34=282|49=T2Kauaiblk3|52=20201130-15:36:56.637|56=MA|10=178|8=FIX.4.4|9=58|35=0|34=283|49=T2Kauaiblk3|52=20201130-15:38:26.637|56=MA|10=178|8=FIX.4.4|9=58|35=0|34=284|49=T2Kauaiblk3|52=20201130-15:39:56.638|56=MA|10=184|8=FIX.4.4|9=58|35=0|34=285|49=T2Kauaiblk3|52=20201130-15:41:26.639|56=MA|10=176|8=FIX.4.4|9=58|35=0|34=286|49=T2Kauaiblk3|52=20201130-15:42:56.639|56=MA|10=181|8=FIX.4.4|9=58|35=0|34=287|49=T2Kauaiblk3|52=20201130-15:44:26.639|56=MA|10=181|8=FIX.4.4|9=58|35=0|34=288|49=T2Kauaiblk3|52=20201130-15:45:56.639|56=MA|10=186|8=FIX.4.4|9=58|35=0|34=289|49=T2Kauaiblk3|52=20201130-15:47:26.641|56=MA|10=179|8=FIX.4.4|9=58|35=0|34=290|49=T2Kauaiblk3|52=20201130-15:48:57.642|56=MA|10=177|8=FIX.4.4|9=58|35=0|34=291|49=T2Kauaiblk3|52=20201130-15:50:28.640|56=MA|10=167|8=FIX.4.4|9=58|35=0|34=292|49=T2Kauaiblk3|52=20201130-15:51:58.642|56=MA|10=174|8=FIX.4.4|9=58|35=0|34=293|49=T2Kauaiblk3|52=20201130-15:53:29.641|56=MA|10=174|8=FIX.4.4|9=58|35=0|34=294|49=T2Kauaiblk3|52=20201130-15:54:59.642|56=MA|10=180|8=FIX.4.4|9=58|35=0|34=295|49=T2Kauaiblk3|52=20201130-15:56:29.642|56=MA|10=180|8=FIX.4.4|9=58|35=0|34=296|49=T2Kauaiblk3|52=20201130-15:57:59.642|56=MA|10=185|8=FIX.4.4|9=58|35=0|34=297|49=T2Kauaiblk3|52=20201130-15:59:29.643|56=MA|10=186|8=FIX.4.4|9=58|35=0|34=298|49=T2Kauaiblk3|52=20201130-16:01:00.641|56=MA|10=162|8=FIX.4.4|9=58|35=0|34=299|49=T2Kauaiblk3|52=20201130-16:02:30.642|56=MA|10=168|8=FIX.4.4|9=58|35=0|34=300|49=T2Kauaiblk3|52=20201130-16:04:01.641|56=MA|10=150|8=FIX.4.4|9=58|35=0|34=301|49=T2Kauaiblk3|52=20201130-16:05:31.642|56=MA|10=156|8=FIX.4.4|9=58|35=0|34=302|49=T2Kauaiblk3|52=20201130-16:07:01.642|56=MA|10=156|8=FIX.4.4|9=58|35=0|34=303|49=T2Kauaiblk3|52=20201130-16:08:32.641|56=MA|10=161|8=FIX.4.4|9=58|35=0|34=304|49=T2Kauaiblk3|52=20201130-16:10:02.641|56=MA|10=152|8=FIX.4.4|9=58|35=0|34=305|49=T2Kauaiblk3|52=20201130-16:11:32.641|56=MA|10=157|8=FIX.4.4|9=58|35=0|34=306|49=T2Kauaiblk3|52=20201130-16:13:02.641|56=MA|10=157|8=FIX.4.4|9=58|35=0|34=307|49=T2Kauaiblk3|52=20201130-16:14:32.642|56=MA|10=163|8=FIX.4.4|9=58|35=0|34=308|49=T2Kauaiblk3|52=20201130-16:16:03.641|56=MA|10=163|8=FIX.4.4|9=58|35=0|34=309|49=T2Kauaiblk3|52=20201130-16:17:33.641|56=MA|10=168|8=FIX.4.4|9=58|35=0|34=310|49=T2Kauaiblk3|52=20201130-16:19:03.643|56=MA|10=161|8=FIX.4.4|9=58|35=0|34=311|49=T2Kauaiblk3|52=20201130-16:20:33.644|56=MA|10=158|8=FIX.4.4|9=58|35=0|34=312|49=T2Kauaiblk3|52=20201130-16:22:03.646|56=MA|10=160|8=FIX.4.4|9=58|35=0|34=313|49=T2Kauaiblk3|52=20201130-16:23:33.647|56=MA|10=166|8=FIX.4.4|9=58|35=0|34=314|49=T2Kauaiblk3|52=20201130-16:25:03.648|56=MA|10=167|8=FIX.4.4|9=58|35=0|34=315|49=T2Kauaiblk3|52=20201130-16:26:33.650|56=MA|10=165|8=FIX.4.4|9=58|35=0|34=316|49=T2Kauaiblk3|52=20201130-16:28:03.650|56=MA|10=165|8=FIX.4.4|9=58|35=0|34=317|49=T2Kauaiblk3|52=20201130-16:29:33.652|56=MA|10=172|8=FIX.4.4|9=58|35=0|34=318|49=T2Kauaiblk3|52=20201130-16:31:03.653|56=MA|10=164|8=FIX.4.4|9=58|35=0|34=319|49=T2Kauaiblk3|52=20201130-16:32:33.653|56=MA|10=169|8=FIX.4.4|9=58|35=0|34=320|49=T2Kauaiblk3|52=20201130-16:34:03.653|56=MA|10=160|8=FIX.4.4|9=58|35=0|34=321|49=T2Kauaiblk3|52=20201130-16:35:33.655|56=MA|10=167|8=FIX.4.4|9=58|35=0|34=322|49=T2Kauaiblk3|52=20201130-16:37:03.655|56=MA|10=167|8=FIX.4.4|9=58|35=0|34=323|49=T2Kauaiblk3|52=20201130-16:38:33.656|56=MA|10=173|8=FIX.4.4|9=58|35=0|34=324|49=T2Kauaiblk3|52=20201130-16:40:03.656|56=MA|10=164|8=FIX.4.4|9=58|35=0|34=325|49=T2Kauaiblk3|52=20201130-16:41:33.658|56=MA|10=171|8=FIX.4.4|9=58|35=0|34=326|49=T2Kauaiblk3|52=20201130-16:43:04.658|56=MA|10=172|8=FIX.4.4|9=58|35=0|34=327|49=T2Kauaiblk3|52=20201130-16:44:34.658|56=MA|10=177|8=FIX.4.4|9=58|35=0|34=328|49=T2Kauaiblk3|52=20201130-16:46:04.658|56=MA|10=177|8=FIX.4.4|9=58|35=0|34=329|49=T2Kauaiblk3|52=20201130-16:47:34.659|56=MA|10=183|8=FIX.4.4|9=58|35=0|34=330|49=T2Kauaiblk3|52=20201130-16:49:04.660|56=MA|10=166|8=FIX.4.4|9=58|35=0|34=331|49=T2Kauaiblk3|52=20201130-16:50:34.660|56=MA|10=162|8=FIX.4.4|9=58|35=0|34=332|49=T2Kauaiblk3|52=20201130-16:52:04.660|56=MA|10=162|8=FIX.4.4|9=58|35=0|34=333|49=T2Kauaiblk3|52=20201130-16:53:34.661|56=MA|10=168|8=FIX.4.4|9=58|35=0|34=334|49=T2Kauaiblk3|52=20201130-16:55:04.661|56=MA|10=168|8=FIX.4.4|9=58|35=0|34=335|49=T2Kauaiblk3|52=20201130-16:56:34.661|56=MA|10=173|8=FIX.4.4|9=58|35=0|34=336|49=T2Kauaiblk3|52=20201130-16:58:04.661|56=MA|10=173|8=FIX.4.4|9=58|35=0|34=337|49=T2Kauaiblk3|52=20201130-16:59:34.662|56=MA|10=179|8=FIX.4.4|9=58|35=0|34=338|49=T2Kauaiblk3|52=20201130-17:01:04.663|56=MA|10=166|8=FIX.4.4|9=58|35=0|34=339|49=T2Kauaiblk3|52=20201130-17:02:35.662|56=MA|10=171|8=FIX.4.4|9=58|35=0|34=340|49=T2Kauaiblk3|52=20201130-17:04:05.663|56=MA|10=163|8=FIX.4.4|9=58|35=0|34=341|49=T2Kauaiblk3|52=20201130-17:05:35.663|56=MA|10=168|8=FIX.4.4|9=58|35=0|34=342|49=T2Kauaiblk3|52=20201130-17:07:05.664|56=MA|10=169|8=FIX.4.4|9=58|35=0|34=343|49=T2Kauaiblk3|52=20201130-17:08:36.664|56=MA|10=175|8=FIX.4.4|9=58|35=0|34=344|49=T2Kauaiblk3|52=20201130-17:10:07.664|56=MA|10=167|8=FIX.4.4|9=58|35=0|34=345|49=T2Kauaiblk3|52=20201130-17:11:38.664|56=MA|10=173|8=FIX.4.4|9=58|35=0|34=346|49=T2Kauaiblk3|52=20201130-17:13:09.664|56=MA|10=174|8=FIX.4.4|9=58|35=0|34=347|49=T2Kauaiblk3|52=20201130-17:14:39.664|56=MA|10=179|8=FIX.4.4|9=58|35=0|34=348|49=T2Kauaiblk3|52=20201130-17:16:09.665|56=MA|10=180|8=FIX.4.4|9=58|35=0|34=349|49=T2Kauaiblk3|52=20201130-17:17:40.664|56=MA|10=176|8=FIX.4.4|9=58|35=0|34=350|49=T2Kauaiblk3|52=20201130-17:19:10.664|56=MA|10=167|8=FIX.4.4|9=58|35=0|34=351|49=T2Kauaiblk3|52=20201130-17:20:40.665|56=MA|10=164|8=FIX.4.4|9=58|35=0|34=352|49=T2Kauaiblk3|52=20201130-17:22:10.665|56=MA|10=164|8=FIX.4.4|9=58|35=0|34=353|49=T2Kauaiblk3|52=20201130-17:23:41.665|56=MA|10=170|8=FIX.4.4|9=58|35=0|34=354|49=T2Kauaiblk3|52=20201130-17:25:11.665|56=MA|10=170|8=FIX.4.4|9=58|35=0|34=355|49=T2Kauaiblk3|52=20201130-17:26:41.667|56=MA|10=177|8=FIX.4.4|9=58|35=0|34=356|49=T2Kauaiblk3|52=20201130-17:28:11.670|56=MA|10=171|8=FIX.4.4|9=58|35=0|34=357|49=T2Kauaiblk3|52=20201130-17:29:41.672|56=MA|10=178|8=FIX.4.4|9=58|35=0|34=358|49=T2Kauaiblk3|52=20201130-17:31:11.673|56=MA|10=170|8=FIX.4.4|9=58|35=0|34=359|49=T2Kauaiblk3|52=20201130-17:32:41.675|56=MA|10=177|8=FIX.4.4|9=58|35=0|34=360|49=T2Kauaiblk3|52=20201130-17:34:11.676|56=MA|10=169|8=FIX.4.4|9=58|35=0|34=361|49=T2Kauaiblk3|52=20201130-17:35:41.678|56=MA|10=176|8=FIX.4.4|9=58|35=0|34=362|49=T2Kauaiblk3|52=20201130-17:37:11.679|56=MA|10=177|8=FIX.4.4|9=58|35=0|34=363|49=T2Kauaiblk3|52=20201130-17:38:41.681|56=MA|10=175|8=FIX.4.4|9=58|35=0|34=364|49=T2Kauaiblk3|52=20201130-17:40:11.682|56=MA|10=167|8=FIX.4.4|9=58|35=0|34=365|49=T2Kauaiblk3|52=20201130-17:41:41.684|56=MA|10=174|8=FIX.4.4|9=58|35=0|34=366|49=T2Kauaiblk3|52=20201130-17:43:11.684|56=MA|10=174|8=FIX.4.4|9=58|35=0|34=367|49=T2Kauaiblk3|52=20201130-17:44:41.686|56=MA|10=181|8=FIX.4.4|9=58|35=0|34=368|49=T2Kauaiblk3|52=20201130-17:46:11.687|56=MA|10=182|8=FIX.4.4|9=58|35=0|34=369|49=T2Kauaiblk3|52=20201130-17:47:41.689|56=MA|10=189|8=FIX.4.4|9=58|35=0|34=370|49=T2Kauaiblk3|52=20201130-17:49:11.690|56=MA|10=172|8=FIX.4.4|9=58|35=0|34=371|49=T2Kauaiblk3|52=20201130-17:50:41.691|56=MA|10=169|8=FIX.4.4|9=58|35=0|34=372|49=T2Kauaiblk3|52=20201130-17:52:12.692|56=MA|10=171|8=FIX.4.4|9=58|35=0|34=373|49=T2Kauaiblk3|52=20201130-17:53:42.692|56=MA|10=176|8=FIX.4.4|9=58|35=0|34=374|49=T2Kauaiblk3|52=20201130-17:55:12.693|56=MA|10=177|8=FIX.4.4|9=58|35=0|34=375|49=T2Kauaiblk3|52=20201130-17:56:42.693|56=MA|10=182|8=FIX.4.4|9=58|35=0|34=376|49=T2Kauaiblk3|52=20201130-17:58:12.695|56=MA|10=184|8=FIX.4.4|9=58|35=0|34=377|49=T2Kauaiblk3|52=20201130-17:59:42.696|56=MA|10=190|8=FIX.4.4|9=58|35=0|34=378|49=T2Kauaiblk3|52=20201130-18:01:13.695|56=MA|10=176|8=FIX.4.4|9=58|35=0|34=379|49=T2Kauaiblk3|52=20201130-18:02:43.695|56=MA|10=181|8=FIX.4.4|9=58|35=0|34=380|49=T2Kauaiblk3|52=20201130-18:04:13.696|56=MA|10=173|8=FIX.4.4|9=58|35=0|34=381|49=T2Kauaiblk3|52=20201130-18:05:43.696|56=MA|10=178|8=FIX.4.4|9=58|35=0|34=382|49=T2Kauaiblk3|52=20201130-18:07:13.698|56=MA|10=180|8=FIX.4.4|9=58|35=0|34=383|49=T2Kauaiblk3|52=20201130-18:08:43.698|56=MA|10=185|8=FIX.4.4|9=58|35=0|34=384|49=T2Kauaiblk3|52=20201130-18:10:13.699|56=MA|10=177|8=FIX.4.4|9=58|35=0|34=385|49=T2Kauaiblk3|52=20201130-18:11:44.700|56=MA|10=166|8=FIX.4.4|9=58|35=0|34=386|49=T2Kauaiblk3|52=20201130-18:13:15.699|56=MA|10=184|8=FIX.4.4|9=58|35=0|34=387|49=T2Kauaiblk3|52=20201130-18:14:45.699|56=MA|10=189|8=FIX.4.4|9=58|35=0|34=388|49=T2Kauaiblk3|52=20201130-18:16:15.700|56=MA|10=172|8=FIX.4.4|9=58|35=0|34=389|49=T2Kauaiblk3|52=20201130-18:17:45.700|56=MA|10=177|8=FIX.4.4|9=58|35=0|34=390|49=T2Kauaiblk3|52=20201130-18:19:15.701|56=MA|10=169|8=FIX.4.4|9=58|35=0|34=391|49=T2Kauaiblk3|52=20201130-18:20:46.700|56=MA|10=165|8=FIX.4.4|9=58|35=0|34=392|49=T2Kauaiblk3|52=20201130-18:22:16.701|56=MA|10=166|8=FIX.4.4|9=58|35=0|34=393|49=T2Kauaiblk3|52=20201130-18:23:46.702|56=MA|10=172|8=FIX.4.4|9=58|35=0|34=394|49=T2Kauaiblk3|52=20201130-18:25:17.702|56=MA|10=173|8=FIX.4.4|9=58|35=0|34=395|49=T2Kauaiblk3|52=20201130-18:26:47.702|56=MA|10=178|8=FIX.4.4|9=58|35=0|34=396|49=T2Kauaiblk3|52=20201130-18:28:18.702|56=MA|10=179|8=FIX.4.4|9=58|35=0|34=397|49=T2Kauaiblk3|52=20201130-18:29:48.703|56=MA|10=185|8=FIX.4.4|9=58|35=0|34=398|49=T2Kauaiblk3|52=20201130-18:31:18.703|56=MA|10=176|8=FIX.4.4|9=58|35=0|34=399|49=T2Kauaiblk3|52=20201130-18:32:49.703|56=MA|10=182|8=FIX.4.4|9=58|35=0|34=400|49=T2Kauaiblk3|52=20201130-18:34:19.704|56=MA|10=165|8=FIX.4.4|9=58|35=0|34=401|49=T2Kauaiblk3|52=20201130-18:35:49.705|56=MA|10=171|8=FIX.4.4|9=58|35=0|34=402|49=T2Kauaiblk3|52=20201130-18:37:19.709|56=MA|10=175|8=FIX.4.4|9=58|35=0|34=403|49=T2Kauaiblk3|52=20201130-18:38:49.709|56=MA|10=180|8=FIX.4.4|9=58|35=0|34=404|49=T2Kauaiblk3|52=20201130-18:40:19.711|56=MA|10=164|8=FIX.4.4|9=58|35=0|34=405|49=T2Kauaiblk3|52=20201130-18:41:49.713|56=MA|10=171|8=FIX.4.4|9=58|35=0|34=406|49=T2Kauaiblk3|52=20201130-18:43:19.714|56=MA|10=172|8=FIX.4.4|9=58|35=0|34=407|49=T2Kauaiblk3|52=20201130-18:44:49.715|56=MA|10=178|8=FIX.4.4|9=58|35=0|34=408|49=T2Kauaiblk3|52=20201130-18:46:19.717|56=MA|10=180|8=FIX.4.4|9=58|35=0|34=409|49=T2Kauaiblk3|52=20201130-18:47:49.718|56=MA|10=186|8=FIX.4.4|9=58|35=0|34=410|49=T2Kauaiblk3|52=20201130-18:49:19.720|56=MA|10=170|8=FIX.4.4|9=58|35=0|34=411|49=T2Kauaiblk3|52=20201130-18:50:49.722|56=MA|10=168|8=FIX.4.4|9=58|35=0|34=412|49=T2Kauaiblk3|52=20201130-18:52:20.723|56=MA|10=161|8=FIX.4.4|9=58|35=0|34=413|49=T2Kauaiblk3|52=20201130-18:53:51.724|56=MA|10=168|8=FIX.4.4|9=58|35=0|34=414|49=T2Kauaiblk3|52=20201130-18:55:21.724|56=MA|10=168|8=FIX.4.4|9=58|35=0|34=415|49=T2Kauaiblk3|52=20201130-18:56:51.725|56=MA|10=174|8=FIX.4.4|9=58|35=0|34=416|49=T2Kauaiblk3|52=20201130-18:58:21.727|56=MA|10=176|8=FIX.4.4|9=58|35=0|34=417|49=T2Kauaiblk3|52=20201130-18:59:52.727|56=MA|10=182|8=FIX.4.4|9=58|35=0|34=418|49=T2Kauaiblk3|52=20201130-19:01:22.729|56=MA|10=170|8=FIX.4.4|9=58|35=0|34=419|49=T2Kauaiblk3|52=20201130-19:02:52.729|56=MA|10=175|8=FIX.4.4|9=58|35=0|34=420|49=T2Kauaiblk3|52=20201130-19:04:22.730|56=MA|10=158|8=FIX.4.4|9=58|35=0|34=421|49=T2Kauaiblk3|52=20201130-19:05:53.731|56=MA|10=165|8=FIX.4.4|9=58|35=0|34=422|49=T2Kauaiblk3|52=20201130-19:07:24.730|56=MA|10=165|8=FIX.4.4|9=58|35=0|34=423|49=T2Kauaiblk3|52=20201130-19:08:54.732|56=MA|10=172|8=FIX.4.4|9=58|35=0|34=424|49=T2Kauaiblk3|52=20201130-19:10:25.731|56=MA|10=163|8=FIX.4.4|9=58|35=0|34=425|49=T2Kauaiblk3|52=20201130-19:11:55.732|56=MA|10=169|8=FIX.4.4|9=58|35=0|34=426|49=T2Kauaiblk3|52=20201130-19:13:25.732|56=MA|10=169|8=FIX.4.4|9=58|35=0|34=427|49=T2Kauaiblk3|52=20201130-19:14:55.733|56=MA|10=175|8=FIX.4.4|9=58|35=0|34=428|49=T2Kauaiblk3|52=20201130-19:16:25.733|56=MA|10=175|8=FIX.4.4|9=58|35=0|34=429|49=T2Kauaiblk3|52=20201130-19:17:55.734|56=MA|10=181|8=FIX.4.4|9=58|35=0|34=430|49=T2Kauaiblk3|52=20201130-19:19:25.734|56=MA|10=172|8=FIX.4.4|9=58|35=0|34=431|49=T2Kauaiblk3|52=20201130-19:20:55.736|56=MA|10=170|8=FIX.4.4|9=58|35=0|34=432|49=T2Kauaiblk3|52=20201130-19:22:26.736|56=MA|10=171|8=FIX.4.4|9=58|35=0|34=433|49=T2Kauaiblk3|52=20201130-19:23:57.735|56=MA|10=176|8=FIX.4.4|9=58|35=0|34=434|49=T2Kauaiblk3|52=20201130-19:25:27.735|56=MA|10=176|8=FIX.4.4|9=58|35=0|34=435|49=T2Kauaiblk3|52=20201130-19:26:57.742|56=MA|10=179|8=FIX.4.4|9=58|35=0|34=436|49=T2Kauaiblk3|52=20201130-19:28:27.751|56=MA|10=179|8=FIX.4.4|9=58|35=0|34=437|49=T2Kauaiblk3|52=20201130-19:29:57.761|56=MA|10=185|8=FIX.4.4|9=58|35=0|34=438|49=T2Kauaiblk3|52=20201130-19:31:27.767|56=MA|10=182|8=FIX.4.4|9=58|35=0|34=439|49=T2Kauaiblk3|52=20201130-19:32:57.767|56=MA|10=187|8=FIX.4.4|9=58|35=0|34=440|49=T2Kauaiblk3|52=20201130-19:34:27.768|56=MA|10=179|8=FIX.4.4|9=58|35=0|34=441|49=T2Kauaiblk3|52=20201130-19:35:58.767|56=MA|10=184|8=FIX.4.4|9=58|35=0|34=442|49=T2Kauaiblk3|52=20201130-19:37:28.767|56=MA|10=184|8=FIX.4.4|9=58|35=0|34=443|49=T2Kauaiblk3|52=20201130-19:38:58.771|56=MA|10=184|8=FIX.4.4|9=58|35=0|34=444|49=T2Kauaiblk3|52=20201130-19:40:28.774|56=MA|10=178|8=FIX.4.4|9=58|35=0|34=445|49=T2Kauaiblk3|52=20201130-19:41:58.779|56=MA|10=188|8=FIX.4.4|9=58|35=0|34=446|49=T2Kauaiblk3|52=20201130-19:43:28.783|56=MA|10=183|8=FIX.4.4|9=58|35=0|34=447|49=T2Kauaiblk3|52=20201130-19:44:58.783|56=MA|10=188|8=FIX.4.4|9=58|35=0|34=448|49=T2Kauaiblk3|52=20201130-19:46:28.783|56=MA|10=188|8=FIX.4.4|9=58|35=0|34=449|49=T2Kauaiblk3|52=20201130-19:47:59.456|56=MA|10=191|8=FIX.4.4|9=58|35=0|34=450|49=T2Kauaiblk3|52=20201130-19:49:29.490|56=MA|10=180|8=FIX.4.4|9=58|35=0|34=451|49=T2Kauaiblk3|52=20201130-19:50:59.782|56=MA|10=180|8=FIX.4.4|9=58|35=0|34=452|49=T2Kauaiblk3|52=20201130-19:52:29.784|56=MA|10=182|8=FIX.4.4|9=58|35=0|34=453|49=T2Kauaiblk3|52=20201130-19:54:00.319|56=MA|10=168|8=FIX.4.4|9=58|35=0|34=454|49=T2Kauaiblk3|52=20201130-19:55:30.783|56=MA|10=178|8=FIX.4.4|9=58|35=0|34=455|49=T2Kauaiblk3|52=20201130-19:57:00.788|56=MA|10=183|8=FIX.4.4|9=58|35=0|34=456|49=T2Kauaiblk3|52=20201130-19:58:30.792|56=MA|10=183|8=FIX.4.4|9=58|35=0|34=457|49=T2Kauaiblk3|52=20201130-20:00:00.796|56=MA|10=164|8=FIX.4.4|9=58|35=0|34=458|49=T2Kauaiblk3|52=20201130-20:01:30.796|56=MA|10=169|8=FIX.4.4|9=58|35=0|34=459|49=T2Kauaiblk3|52=20201130-20:03:00.796|56=MA|10=169|8=FIX.4.4|9=58|35=0|34=460|49=T2Kauaiblk3|52=20201130-20:04:30.797|56=MA|10=166|8=FIX.4.4|9=58|35=0|34=461|49=T2Kauaiblk3|52=20201130-20:06:01.797|56=MA|10=167|8=FIX.4.4|9=58|35=0|34=462|49=T2Kauaiblk3|52=20201130-20:07:31.797|56=MA|10=172|8=FIX.4.4|9=58|35=0|34=463|49=T2Kauaiblk3|52=20201130-20:09:01.797|56=MA|10=172|8=FIX.4.4|9=58|35=0|34=464|49=T2Kauaiblk3|52=20201130-20:10:31.798|56=MA|10=169|8=FIX.4.4|9=58|35=0|34=465|49=T2Kauaiblk3|52=20201130-20:12:02.796|56=MA|10=168|8=FIX.4.4|9=58|35=0|34=466|49=T2Kauaiblk3|52=20201130-20:13:32.797|56=MA|10=174|8=FIX.4.4|9=58|35=0|34=467|49=T2Kauaiblk3|52=20201130-20:15:03.797|56=MA|10=175|8=FIX.4.4|9=58|35=0|34=468|49=T2Kauaiblk3|52=20201130-20:16:34.796|56=MA|10=180|8=FIX.4.4|9=58|35=0|34=469|49=T2Kauaiblk3|52=20201130-20:18:04.796|56=MA|10=180|8=FIX.4.4|9=58|35=0|34=470|49=T2Kauaiblk3|52=20201130-20:19:34.796|56=MA|10=176|8=FIX.4.4|9=58|35=0|34=471|49=T2Kauaiblk3|52=20201130-20:21:04.797|56=MA|10=168|8=FIX.4.4|9=58|35=0|34=472|49=T2Kauaiblk3|52=20201130-20:22:34.797|56=MA|10=173|8=FIX.4.4|9=58|35=0|34=473|49=T2Kauaiblk3|52=20201130-20:24:04.797|56=MA|10=173|8=FIX.4.4|9=58|35=0|34=474|49=T2Kauaiblk3|52=20201130-20:25:35.796|56=MA|10=178|8=FIX.4.4|9=58|35=0|34=475|49=T2Kauaiblk3|52=20201130-20:27:05.796|56=MA|10=178|8=FIX.4.4|9=58|35=0|34=476|49=T2Kauaiblk3|52=20201130-20:28:35.796|56=MA|10=183|8=FIX.4.4|9=58|35=0|34=477|49=T2Kauaiblk3|52=20201130-20:30:05.798|56=MA|10=176|8=FIX.4.4|9=58|35=0|34=478|49=T2Kauaiblk3|52=20201130-20:31:35.800|56=MA|10=165|8=FIX.4.4|9=58|35=0|34=479|49=T2Kauaiblk3|52=20201130-20:33:05.802|56=MA|10=167|8=FIX.4.4|9=58|35=0|34=480|49=T2Kauaiblk3|52=20201130-20:34:35.803|56=MA|10=164|8=FIX.4.4|9=58|35=0|34=481|49=T2Kauaiblk3|52=20201130-20:36:05.805|56=MA|10=166|8=FIX.4.4|9=58|35=0|34=482|49=T2Kauaiblk3|52=20201130-20:37:35.805|56=MA|10=171|8=FIX.4.4|9=58|35=0|34=483|49=T2Kauaiblk3|52=20201130-20:39:05.806|56=MA|10=172|8=FIX.4.4|9=58|35=0|34=484|49=T2Kauaiblk3|52=20201130-20:40:35.806|56=MA|10=168|8=FIX.4.4|9=58|35=0|34=485|49=T2Kauaiblk3|52=20201130-20:42:05.806|56=MA|10=168|8=FIX.4.4|9=58|35=0|34=486|49=T2Kauaiblk3|52=20201130-20:43:35.807|56=MA|10=174|8=FIX.4.4|9=58|35=0|34=487|49=T2Kauaiblk3|52=20201130-20:45:05.809|56=MA|10=176|8=FIX.4.4|9=58|35=0|34=488|49=T2Kauaiblk3|52=20201130-20:46:36.807|56=MA|10=180|8=FIX.4.4|9=58|35=0|34=489|49=T2Kauaiblk3|52=20201130-20:48:06.810|56=MA|10=174|8=FIX.4.4|9=58|35=0|34=490|49=T2Kauaiblk3|52=20201130-20:49:36.812|56=MA|10=172|8=FIX.4.4|9=58|35=0|34=491|49=T2Kauaiblk3|52=20201130-20:51:06.814|56=MA|10=165|8=FIX.4.4|9=58|35=0|34=492|49=T2Kauaiblk3|52=20201130-20:52:36.816|56=MA|10=172|8=FIX.4.4|9=58|35=0|34=493|49=T2Kauaiblk3|52=20201130-20:54:06.817|56=MA|10=173|8=FIX.4.4|9=58|35=0|34=494|49=T2Kauaiblk3|52=20201130-20:55:36.818|56=MA|10=179|8=FIX.4.4|9=58|35=0|34=495|49=T2Kauaiblk3|52=20201130-20:57:06.819|56=MA|10=180|8=FIX.4.4|9=58|35=0|34=496|49=T2Kauaiblk3|52=20201130-20:58:37.819|56=MA|10=186|8=FIX.4.4|9=58|35=0|34=497|49=T2Kauaiblk3|52=20201130-21:00:07.820|56=MA|10=164|8=FIX.4.4|9=58|35=0|34=498|49=T2Kauaiblk3|52=20201130-21:01:37.821|56=MA|10=170|8=FIX.4.4|9=58|35=0|34=499|49=T2Kauaiblk3|52=20201130-21:03:08.820|56=MA|10=170|8=FIX.4.4|9=58|35=0|34=500|49=T2Kauaiblk3|52=20201130-21:04:38.822|56=MA|10=159|8=FIX.4.4|9=58|35=0|34=501|49=T2Kauaiblk3|52=20201130-21:06:08.823|56=MA|10=160|8=FIX.4.4|9=58|35=0|34=502|49=T2Kauaiblk3|52=20201130-21:07:38.824|56=MA|10=166|8=FIX.4.4|9=58|35=0|34=503|49=T2Kauaiblk3|52=20201130-21:09:08.824|56=MA|10=166|8=FIX.4.4|9=58|35=0|34=504|49=T2Kauaiblk3|52=20201130-21:10:38.825|56=MA|10=163|8=FIX.4.4|9=58|35=0|34=505|49=T2Kauaiblk3|52=20201130-21:12:08.825|56=MA|10=163|8=FIX.4.4|9=58|35=0|34=506|49=T2Kauaiblk3|52=20201130-21:13:38.825|56=MA|10=168|8=FIX.4.4|9=58|35=0|34=507|49=T2Kauaiblk3|52=20201130-21:15:08.827|56=MA|10=170|8=FIX.4.4|9=58|35=0|34=508|49=T2Kauaiblk3|52=20201130-21:16:39.827|56=MA|10=176|8=FIX.4.4|9=58|35=0|34=509|49=T2Kauaiblk3|52=20201130-21:18:10.826|56=MA|10=167|8=FIX.4.4|9=58|35=0|34=510|49=T2Kauaiblk3|52=20201130-21:19:40.826|56=MA|10=163|8=FIX.4.4|9=58|35=0|34=511|49=T2Kauaiblk3|52=20201130-21:21:10.827|56=MA|10=155|8=FIX.4.4|9=58|35=0|34=512|49=T2Kauaiblk3|52=20201130-21:22:41.826|56=MA|10=160|8=FIX.4.4|9=58|35=0|34=513|49=T2Kauaiblk3|52=20201130-21:24:11.827|56=MA|10=161|8=FIX.4.4|9=58|35=0|34=514|49=T2Kauaiblk3|52=20201130-21:25:42.826|56=MA|10=166|8=FIX.4.4|9=58|35=0|34=515|49=T2Kauaiblk3|52=20201130-21:27:13.826|56=MA|10=167|8=FIX.4.4|9=58|35=0|34=516|49=T2Kauaiblk3|52=20201130-21:28:43.826|56=MA|10=172|8=FIX.4.4|9=58|35=0|34=517|49=T2Kauaiblk3|52=20201130-21:30:13.826|56=MA|10=163|8=FIX.4.4|9=58|35=0|34=518|49=T2Kauaiblk3|52=20201130-21:31:43.826|56=MA|10=168|8=FIX.4.4|9=58|35=0|34=519|49=T2Kauaiblk3|52=20201130-21:33:13.826|56=MA|10=168|8=FIX.4.4|9=58|35=0|34=520|49=T2Kauaiblk3|52=20201130-21:34:43.826|56=MA|10=164|8=FIX.4.4|9=58|35=0|34=521|49=T2Kauaiblk3|52=20201130-21:36:13.827|56=MA|10=165|8=FIX.4.4|9=58|35=0|34=522|49=T2Kauaiblk3|52=20201130-21:37:44.827|56=MA|10=171|8=FIX.4.4|9=58|35=0|34=523|49=T2Kauaiblk3|52=20201130-21:39:14.828|56=MA|10=172|8=FIX.4.4|9=58|35=0|34=524|49=T2Kauaiblk3|52=20201130-21:40:44.831|56=MA|10=162|8=FIX.4.4|9=58|35=0|34=525|49=T2Kauaiblk3|52=20201130-21:42:14.833|56=MA|10=164|8=FIX.4.4|9=58|35=0|34=526|49=T2Kauaiblk3|52=20201130-21:43:44.833|56=MA|10=169|8=FIX.4.4|9=58|35=0|34=527|49=T2Kauaiblk3|52=20201130-21:45:14.835|56=MA|10=171|8=FIX.4.4|9=58|35=0|34=528|49=T2Kauaiblk3|52=20201130-21:46:44.836|56=MA|10=177|8=FIX.4.4|9=58|35=0|34=529|49=T2Kauaiblk3|52=20201130-21:48:14.836|56=MA|10=177|8=FIX.4.4|9=58|35=0|34=530|49=T2Kauaiblk3|52=20201130-21:49:44.836|56=MA|10=173|8=FIX.4.4|9=58|35=0|34=531|49=T2Kauaiblk3|52=20201130-21:51:14.837|56=MA|10=165|8=FIX.4.4|9=58|35=0|34=532|49=T2Kauaiblk3|52=20201130-21:52:44.837|56=MA|10=170|8=FIX.4.4|9=58|35=0|34=533|49=T2Kauaiblk3|52=20201130-21:54:14.838|56=MA|10=171|8=FIX.4.4|9=58|35=0|34=534|49=T2Kauaiblk3|52=20201130-21:55:44.843|56=MA|10=172|8=FIX.4.4|9=58|35=0|34=535|49=T2Kauaiblk3|52=20201130-21:57:14.849|56=MA|10=178|8=FIX.4.4|9=58|35=0|34=536|49=T2Kauaiblk3|52=20201130-21:58:44.853|56=MA|10=178|8=FIX.4.4|9=58|35=0|34=537|49=T2Kauaiblk3|52=20201130-22:00:14.856|56=MA|10=167|8=FIX.4.4|9=58|35=0|34=538|49=T2Kauaiblk3|52=20201130-22:01:44.859|56=MA|10=175|8=FIX.4.4|9=58|35=0|34=539|49=T2Kauaiblk3|52=20201130-22:03:14.861|56=MA|10=168|8=FIX.4.4|9=58|35=0|34=540|49=T2Kauaiblk3|52=20201130-22:04:44.865|56=MA|10=168|8=FIX.4.4|9=58|35=0|34=541|49=T2Kauaiblk3|52=20201130-22:06:15.864|56=MA|10=168|8=FIX.4.4|9=58|35=0|34=542|49=T2Kauaiblk3|52=20201130-22:07:45.865|56=MA|10=174|8=FIX.4.4|9=58|35=0|34=543|49=T2Kauaiblk3|52=20201130-22:09:15.866|56=MA|10=175|8=FIX.4.4|9=58|35=0|34=544|49=T2Kauaiblk3|52=20201130-22:10:45.867|56=MA|10=172|8=FIX.4.4|9=58|35=0|34=545|49=T2Kauaiblk3|52=20201130-22:12:15.868|56=MA|10=173|8=FIX.4.4|9=58|35=0|34=546|49=T2Kauaiblk3|52=20201130-22:13:45.872|56=MA|10=173|8=FIX.4.4|9=58|35=0|34=547|49=T2Kauaiblk3|52=20201130-22:15:15.875|56=MA|10=176|8=FIX.4.4|9=58|35=0|34=548|49=T2Kauaiblk3|52=20201130-22:16:45.877|56=MA|10=183|8=FIX.4.4|9=58|35=0|34=549|49=T2Kauaiblk3|52=20201130-22:18:15.879|56=MA|10=185|8=FIX.4.4|9=58|35=0|34=550|49=T2Kauaiblk3|52=20201130-22:19:45.880|56=MA|10=173|8=FIX.4.4|9=58|35=0|34=551|49=T2Kauaiblk3|52=20201130-22:21:15.882|56=MA|10=166|8=FIX.4.4|9=58|35=0|34=552|49=T2Kauaiblk3|52=20201130-22:22:45.882|56=MA|10=171|8=FIX.4.4|9=58|35=0|34=553|49=T2Kauaiblk3|52=20201130-22:24:15.883|56=MA|10=172|8=FIX.4.4|9=58|35=0|34=554|49=T2Kauaiblk3|52=20201130-22:25:45.884|56=MA|10=178|8=FIX.4.4|9=58|35=0|34=555|49=T2Kauaiblk3|52=20201130-22:27:15.884|56=MA|10=178|8=FIX.4.4|9=58|35=0|34=556|49=T2Kauaiblk3|52=20201130-22:28:45.884|56=MA|10=183|8=FIX.4.4|9=58|35=0|34=557|49=T2Kauaiblk3|52=20201130-22:30:15.885|56=MA|10=175|8=FIX.4.4|9=58|35=0|34=558|49=T2Kauaiblk3|52=20201130-22:31:45.886|56=MA|10=181|8=FIX.4.4|9=58|35=0|34=559|49=T2Kauaiblk3|52=20201130-22:33:16.885|56=MA|10=181|8=FIX.4.4|9=58|35=0|34=560|49=T2Kauaiblk3|52=20201130-22:34:46.885|56=MA|10=177|8=FIX.4.4|9=58|35=0|34=561|49=T2Kauaiblk3|52=20201130-22:36:16.885|56=MA|10=177|8=FIX.4.4|9=58|35=0|34=562|49=T2Kauaiblk3|52=20201130-22:37:46.885|56=MA|10=182|8=FIX.4.4|9=58|35=0|34=563|49=T2Kauaiblk3|52=20201130-22:39:16.885|56=MA|10=182|8=FIX.4.4|9=58|35=0|34=564|49=T2Kauaiblk3|52=20201130-22:40:46.886|56=MA|10=179|8=FIX.4.4|9=58|35=0|34=565|49=T2Kauaiblk3|52=20201130-22:42:17.885|56=MA|10=179|8=FIX.4.4|9=58|35=0|34=566|49=T2Kauaiblk3|52=20201130-22:43:47.885|56=MA|10=184|8=FIX.4.4|9=58|35=0|34=567|49=T2Kauaiblk3|52=20201130-22:45:17.885|56=MA|10=184|8=FIX.4.4|9=58|35=0|34=568|49=T2Kauaiblk3|52=20201130-22:46:47.885|56=MA|10=189|8=FIX.4.4|9=58|35=0|34=569|49=T2Kauaiblk3|52=20201130-22:48:17.887|56=MA|10=191|8=FIX.4.4|9=58|35=0|34=570|49=T2Kauaiblk3|52=20201130-22:49:48.886|56=MA|10=187|8=FIX.4.4|9=58|35=0|34=571|49=T2Kauaiblk3|52=20201130-22:51:18.886|56=MA|10=178|8=FIX.4.4|9=58|35=0|34=572|49=T2Kauaiblk3|52=20201130-22:52:48.887|56=MA|10=184|8=FIX.4.4|9=58|35=0|34=573|49=T2Kauaiblk3|52=20201130-22:54:19.886|56=MA|10=184|8=FIX.4.4|9=58|35=0|34=574|49=T2Kauaiblk3|52=20201130-22:55:49.886|56=MA|10=189|8=FIX.4.4|9=58|35=0|34=575|49=T2Kauaiblk3|52=20201130-22:57:19.886|56=MA|10=189|8=FIX.4.4|9=58|35=0|34=576|49=T2Kauaiblk3|52=20201130-22:58:50.886|56=MA|10=186|8=FIX.4.4|9=58|35=0|34=577|49=T2Kauaiblk3|52=20201130-23:00:21.885|56=MA|10=172|8=FIX.4.4|9=58|35=0|34=578|49=T2Kauaiblk3|52=20201130-23:01:51.885|56=MA|10=177|8=FIX.4.4|9=58|35=0|34=579|49=T2Kauaiblk3|52=20201130-23:03:21.887|56=MA|10=179|8=FIX.4.4|9=58|35=0|34=580|49=T2Kauaiblk3|52=20201130-23:04:52.887|56=MA|10=176|8=FIX.4.4|9=58|35=5|34=581|49=T2Kauaiblk3|52=20201130-23:05:01.314|56=MA|10=162|8=FIX.4.4|9=91|35=A|34=1|49=T2Kauaiblk3|52=20201201-09:55:55.945|56=MA|98=0|108=90|95=8|96=3.0.0rc5|141=Y|10=047|8=FIX.4.4|9=640|35=E|34=2|49=T2Kauaiblk3|52=20201201-09:56:00.813|56=MA|66=MMAD-FIX44-ListID-011220-1270|394=2|68=5|73=5|11=FIX44-List-ClOrdID-1271|22=4|38=100000|48=US06051GEN51|54=1|55=[N/A/]|67=1|423=1|453=1|448=T2Kauaiblk3|447=C|452=11|11=FIX44-List-ClOrdID-1272|22=4|38=100000|48=US40434AAB52|54=1|55=[N/A]|67=2|11=FIX44-List-ClOrdID-1273|22=4|38=130000|48=US06738JYZ10|54=1|55=[N/A/]|67=1|453=1|448=T2Kauaiblk3|447=C|452=11|11=FIX44-List-ClOrdID-1274|22=4|38=250000|48=US95709TAH32|54=1|55=[N/A/]|67=1|453=1|448=T2Kauaiblk3|447=C|452=11|11=FIX44-List-ClOrdID-1275|22=4|38=350000|48=US29379VAW37|54=1|55=[N/A/]|67=1|453=1|448=T2Kauaiblk3|447=C|452=11|10=033|8=FIX.4.4|9=56|35=0|34=3|49=T2Kauaiblk3|52=20201201-09:57:30.946|56=MA|10=071|8=FIX.4.4|9=56|35=0|34=4|49=T2Kauaiblk3|52=20201201-09:59:01.946|56=MA|10=072|8=FIX.4.4|9=56|35=0|34=5|49=T2Kauaiblk3|52=20201201-10:00:31.946|56=MA|10=054|8=FIX.4.4|9=56|35=0|34=6|49=T2Kauaiblk3|52=20201201-10:02:02.947|56=MA|10=056|8=FIX.4.4|9=56|35=0|34=7|49=T2Kauaiblk3|52=20201201-10:03:33.111|56=MA|10=045|8=FIX.4.4|9=56|35=0|34=8|49=T2Kauaiblk3|52=20201201-10:05:03.947|56=MA|10=062|8=FIX.4.4|9=56|35=0|34=9|49=T2Kauaiblk3|52=20201201-10:06:34.103|56=MA|10=052|8=FIX.4.4|9=57|35=0|34=10|49=T2Kauaiblk3|52=20201201-10:08:04.946|56=MA|10=107|8=FIX.4.4|9=57|35=0|34=11|49=T2Kauaiblk3|52=20201201-10:09:34.949|56=MA|10=115|8=FIX.4.4|9=57|35=0|34=12|49=T2Kauaiblk3|52=20201201-10:11:04.952|56=MA|10=100|8=FIX.4.4|9=57|35=0|34=13|49=T2Kauaiblk3|52=20201201-10:12:34.954|56=MA|10=107|8=FIX.4.4|9=57|35=0|34=14|49=T2Kauaiblk3|52=20201201-10:14:04.955|56=MA|10=108|8=FIX.4.4|9=57|35=0|34=15|49=T2Kauaiblk3|52=20201201-10:15:34.959|56=MA|10=117|8=FIX.4.4|9=57|35=0|34=16|49=T2Kauaiblk3|52=20201201-10:17:04.959|56=MA|10=117|8=FIX.4.4|9=57|35=0|34=17|49=T2Kauaiblk3|52=20201201-10:18:34.962|56=MA|10=116|8=FIX.4.4|9=57|35=0|34=18|49=T2Kauaiblk3|52=20201201-10:20:04.964|56=MA|10=109|8=FIX.4.4|9=57|35=0|34=19|49=T2Kauaiblk3|52=20201201-10:21:34.964|56=MA|10=114|8=FIX.4.4|9=57|35=0|34=20|49=T2Kauaiblk3|52=20201201-10:23:04.966|56=MA|10=107|8=FIX.4.4|9=57|35=0|34=21|49=T2Kauaiblk3|52=20201201-10:24:34.968|56=MA|10=114|8=FIX.4.4|9=57|35=0|34=22|49=T2Kauaiblk3|52=20201201-10:26:04.969|56=MA|10=115|8=FIX.4.4|9=57|35=0|34=23|49=T2Kauaiblk3|52=20201201-10:27:34.971|56=MA|10=113|8=FIX.4.4|9=57|35=0|34=24|49=T2Kauaiblk3|52=20201201-10:29:04.973|56=MA|10=115|8=FIX.4.4|9=57|35=0|34=25|49=T2Kauaiblk3|52=20201201-10:30:34.974|56=MA|10=112|8=FIX.4.4|9=57|35=0|34=26|49=T2Kauaiblk3|52=20201201-10:32:04.975|56=MA|10=113|8=FIX.4.4|9=57|35=0|34=27|49=T2Kauaiblk3|52=20201201-10:33:34.978|56=MA|10=121|8=FIX.4.4|9=57|35=0|34=28|49=T2Kauaiblk3|52=20201201-10:35:04.978|56=MA|10=121|8=FIX.4.4|9=57|35=0|34=29|49=T2Kauaiblk3|52=20201201-10:36:34.978|56=MA|10=126|8=FIX.4.4|9=57|35=0|34=30|49=T2Kauaiblk3|52=20201201-10:38:04.981|56=MA|10=111|8=FIX.4.4|9=57|35=0|34=31|49=T2Kauaiblk3|52=20201201-10:39:34.981|56=MA|10=116|8=FIX.4.4|9=57|35=0|34=32|49=T2Kauaiblk3|52=20201201-10:41:04.982|56=MA|10=108|8=FIX.4.4|9=57|35=0|34=33|49=T2Kauaiblk3|52=20201201-10:42:34.983|56=MA|10=114|8=FIX.4.4|9=57|35=0|34=34|49=T2Kauaiblk3|52=20201201-10:44:04.984|56=MA|10=115|8=FIX.4.4|9=57|35=0|34=35|49=T2Kauaiblk3|52=20201201-10:45:34.986|56=MA|10=122|8=FIX.4.4|9=57|35=0|34=36|49=T2Kauaiblk3|52=20201201-10:47:04.987|56=MA|10=123|8=FIX.4.4|9=57|35=0|34=37|49=T2Kauaiblk3|52=20201201-10:48:34.987|56=MA|10=128|8=FIX.4.4|9=57|35=0|34=38|49=T2Kauaiblk3|52=20201201-10:50:04.987|56=MA|10=119|8=FIX.4.4|9=57|35=0|34=39|49=T2Kauaiblk3|52=20201201-10:51:34.988|56=MA|10=125|8=FIX.4.4|9=57|35=0|34=40|49=T2Kauaiblk3|52=20201201-10:53:04.989|56=MA|10=117|8=FIX.4.4|9=57|35=0|34=41|49=T2Kauaiblk3|52=20201201-10:54:34.990|56=MA|10=114|8=FIX.4.4|9=57|35=0|34=42|49=T2Kauaiblk3|52=20201201-10:56:04.991|56=MA|10=115|8=FIX.4.4|9=57|35=0|34=43|49=T2Kauaiblk3|52=20201201-10:57:34.991|56=MA|10=120|8=FIX.4.4|9=75|35=5|34=44|49=T2Kauaiblk3|52=20201201-10:57:40.990|56=MA|58=user requested|10=214|8=FIX.4.4|9=91|35=A|34=1|49=T2Kauaiblk3|52=20210212-16:38:26.302|56=MA|98=0|108=90|95=8|96=3.0.0rc5|141=Y|10=033|8=FIX.4.4|9=699|35=E|34=2|49=T2Kauaiblk3|52=20210212-16:38:30.189|56=MA|66=ListID-120221-1384|394=2|68=5|73=5|11=ClOrdID-1385|22=4|38=100000|44=100|48=US06051GEN51|54=1|55=[N/A/]|63=3|67=1|423=1|29726=100.25|453=1|448=T2Kauaiblk3|447=C|452=11|11=ClOrdID-1386|22=4|38=100000|44=101|48=US40434AAB52|54=1|55=[N/A]|63=3|67=2|29726=101.25|11=ClOrdID-1387|22=4|38=130000|44=102|48=US95709TAH32|54=1|55=[N/A/]|63=3|67=1|29726=102.25|453=1|448=T2Kauaiblk3|447=C|452=11|11=ClOrdID-1388|22=4|38=250000|44=103|48=US427866AZ15|54=1|55=[N/A/]|63=3|67=1|29726=103.25|453=1|448=T2Kauaiblk3|447=C|452=11|11=ClOrdID-1389|22=4|38=350000|44=104|48=US29379VAW37|54=1|55=[N/A/]|63=3|67=1|29726=104.25|453=1|448=T2Kauaiblk3|447=C|452=11|10=168|8=FIX.4.4|9=78|35=5|34=3|49=T2Kauaiblk3|52=20210212-16:38:38.302|56=MA|58=Session Tab Closed|10=137|