8=FIX.4.4|9=91|35=A|34=1|49=T1Kauaiblk5|52=20201204-07:35:17.214|56=MA|98=0|108=90|95=8|96=3.0.0rc5|141=Y|10=034|8=FIX.4.4|9=640|35=E|34=2|49=T1Kauaiblk5|52=20201204-07:35:20.856|56=MA|66=MMAD-FIX44-ListID-031220-1216|394=2|68=5|73=5|11=FIX44-List-ClOrdID-1217|22=4|38=100000|48=US06051GEN51|54=1|55=[N/A/]|67=1|423=1|453=1|448=T1Kauaiblk5|447=C|452=11|11=FIX44-List-ClOrdID-1218|22=4|38=100000|48=US40434AAB52|54=1|55=[N/A]|67=2|11=FIX44-List-ClOrdID-1219|22=4|38=130000|48=US06738JYZ10|54=1|55=[N/A/]|67=1|453=1|448=T1Kauaiblk5|447=C|452=11|11=FIX44-List-ClOrdID-1220|22=4|38=250000|48=US95709TAH32|54=1|55=[N/A/]|67=1|453=1|448=T1Kauaiblk5|447=C|452=11|11=FIX44-List-ClOrdID-1221|22=4|38=350000|48=US29379VAW37|54=1|55=[N/A/]|67=1|453=1|448=T1Kauaiblk5|447=C|452=11|10=029|8=FIX.4.4|9=56|35=0|34=3|49=T1Kauaiblk5|52=20201204-07:36:51.191|56=MA|10=065|8=FIX.4.4|9=56|35=0|34=4|49=T1Kauaiblk5|52=20201204-07:38:22.189|56=MA|10=073|8=FIX.4.4|9=56|35=5|34=5|49=T1Kauaiblk5|52=20201204-07:38:54.191|56=MA|10=077|8=FIX.4.4|9=91|35=A|34=1|49=T1Kauaiblk5|52=20210212-16:37:07.302|56=MA|98=0|108=90|95=8|96=3.0.0rc5|141=Y|10=032|8=FIX.4.4|9=699|35=E|34=2|49=T1Kauaiblk5|52=20210212-16:37:11.351|56=MA|66=ListID-120221-1366|394=2|68=5|73=5|11=ClOrdID-1367|22=4|38=100000|44=100|48=US06051GEN51|54=1|55=[N/A/]|63=3|67=1|423=1|29726=100.25|453=1|448=T1Kauaiblk5|447=C|452=11|11=ClOrdID-1368|22=4|38=100000|44=101|48=US40434AAB52|54=1|55=[N/A]|63=3|67=2|29726=101.25|11=ClOrdID-1369|22=4|38=130000|44=102|48=US95709TAH32|54=1|55=[N/A/]|63=3|67=1|29726=102.25|453=1|448=T1Kauaiblk5|447=C|452=11|11=ClOrdID-1370|22=4|38=250000|44=103|48=US427866AZ15|54=1|55=[N/A/]|63=3|67=1|29726=103.25|453=1|448=T1Kauaiblk5|447=C|452=11|11=ClOrdID-1371|22=4|38=350000|44=104|48=US29379VAW37|54=1|55=[N/A/]|63=3|67=1|29726=104.25|453=1|448=T1Kauaiblk5|447=C|452=11|10=144|8=FIX.4.4|9=78|35=5|34=3|49=T1Kauaiblk5|52=20210212-16:37:44.301|56=MA|58=Session Tab Closed|10=133|