8=FIX.4.4|9=82|35=A|34=1|49=MMMAQAUK|52=20181129-09:08:41.262|56=MA|98=0|108=90|95=8|96=3.0.0rc4|10=127|8=FIX.4.4|9=53|35=0|34=2|49=MMMAQAUK|52=20181129-09:10:11.266|56=MA|10=191|8=FIX.4.4|9=53|35=0|34=3|49=MMMAQAUK|52=20181129-09:11:42.257|56=MA|10=197|8=FIX.4.4|9=53|35=0|34=4|49=MMMAQAUK|52=20181129-09:13:13.258|56=MA|10=199|8=FIX.4.4|9=53|35=0|34=5|49=MMMAQAUK|52=20181129-09:14:43.258|56=MA|10=204|8=FIX.4.4|9=53|35=0|34=6|49=MMMAQAUK|52=20181129-09:16:13.265|56=MA|10=202|8=FIX.4.4|9=53|35=0|34=7|49=MMMAQAUK|52=20181129-09:17:43.266|56=MA|10=208|8=FIX.4.4|9=53|35=0|34=8|49=MMMAQAUK|52=20181129-09:19:14.251|56=MA|10=203|8=FIX.4.4|9=53|35=5|34=9|49=MMMAQAUK|52=20181129-09:19:35.261|56=MA|10=213|8=FIX.4.4|9=83|35=A|34=10|49=MMMAQAUK|52=20181204-09:39:57.339|56=MA|98=0|108=90|95=8|96=3.0.0rc4|10=186|8=FIX.4.4|9=104|35=5|34=11|49=MMMAQAUK|52=20181204-09:39:57.922|56=MA|58=MsgSeqNum too low, expecting 10 but received 1|10=245|8=FIX.4.4|9=82|35=A|34=1|49=MMMAQAUK|52=20181204-09:40:02.339|56=MA|98=0|108=90|95=8|96=3.0.0rc4|10=119|8=FIX.4.4|9=62|35=2|34=2|49=MMMAQAUK|52=20181204-09:40:02.912|56=MA|7=1|16=0|10=055|8=FIX.4.4|9=600|35=E|34=3|49=MMMAQAUK|52=20181204-09:41:05.516|56=MA|66=MMAD-FIX44-ListID-0|394=2|68=5|73=5|11=FIX44-List-ClOrdID-1|22=4|38=100000|48=XS0542534192|54=1|55=[N/A/]|67=1|423=1|453=1|448=MMMAQAUK|447=C|452=11|11=FIX44-List-ClOrdID-2|22=4|38=120000|48=FR0013241536|54=1|55=[N/A]|67=2|11=FIX44-List-ClOrdID-3|22=4|38=130000|48=DE000HLB4D56|54=1|55=[N/A/]|67=1|453=1|448=MMMAQAUK|447=C|452=11|11=FIX44-List-ClOrdID-4|22=4|38=250000|48=XS0987936076|54=1|55=[N/A/]|67=1|453=1|448=MMMAQAUK|447=C|452=11|11=FIX44-List-ClOrdID-5|22=4|38=350000|48=XS0401048102|54=1|55=[N/A/]|67=1|453=1|448=MMMAQAUK|447=C|452=11|10=083|8=FIX.4.4|9=53|35=0|34=4|49=MMMAQAUK|52=20181204-09:42:36.339|56=MA|10=200|8=FIX.4.4|9=53|35=0|34=5|49=MMMAQAUK|52=20181204-09:44:06.351|56=MA|10=194|8=FIX.4.4|9=181|35=D|34=6|49=MMMAQAUK|52=20181204-09:45:35.415|56=MA|11=MMAD291118-12|453=1|448=MMMAQAUK|447=C|452=11|55=NA|48=XS0042821321|22=4|54=2|60=20181204-09:45:35.415|38=1000000|40=1|423=1|10=016|8=FIX.4.4|9=53|35=0|34=7|49=MMMAQAUK|52=20181204-09:47:06.336|56=MA|10=202|8=FIX.4.4|9=53|35=0|34=8|49=MMMAQAUK|52=20181204-09:48:36.336|56=MA|10=207|8=FIX.4.4|9=53|35=0|34=9|49=MMMAQAUK|52=20181204-09:50:06.337|56=MA|10=199|8=FIX.4.4|9=54|35=0|34=10|49=MMMAQAUK|52=20181204-09:51:37.337|56=MA|10=245|8=FIX.4.4|9=54|35=0|34=11|49=MMMAQAUK|52=20181204-09:53:08.335|56=MA|10=244|8=FIX.4.4|9=54|35=0|34=12|49=MMMAQAUK|52=20181204-09:54:39.334|56=MA|10=249|8=FIX.4.4|9=54|35=0|34=13|49=MMMAQAUK|52=20181204-09:56:10.337|56=MA|10=244|8=FIX.4.4|9=54|35=0|34=14|49=MMMAQAUK|52=20181204-09:57:41.333|56=MA|10=246|8=FIX.4.4|9=54|35=0|34=15|49=MMMAQAUK|52=20181204-09:59:11.341|56=MA|10=245|8=FIX.4.4|9=54|35=0|34=16|49=MMMAQAUK|52=20181204-10:00:41.343|56=MA|10=229|8=FIX.4.4|9=54|35=0|34=17|49=MMMAQAUK|52=20181204-10:02:12.335|56=MA|10=231|8=FIX.4.4|9=54|35=0|34=18|49=MMMAQAUK|52=20181204-10:03:43.330|56=MA|10=232|8=FIX.4.4|9=54|35=0|34=19|49=MMMAQAUK|52=20181204-10:05:13.344|56=MA|10=237|8=FIX.4.4|9=54|35=0|34=20|49=MMMAQAUK|52=20181204-10:06:44.337|56=MA|10=236|8=FIX.4.4|9=54|35=0|34=21|49=MMMAQAUK|52=20181204-10:08:15.330|56=MA|10=230|8=FIX.4.4|9=54|35=0|34=22|49=MMMAQAUK|52=20181204-10:09:45.334|56=MA|10=239|8=FIX.4.4|9=54|35=0|34=23|49=MMMAQAUK|52=20181204-10:11:15.334|56=MA|10=230|8=FIX.4.4|9=54|35=0|34=24|49=MMMAQAUK|52=20181204-10:12:45.339|56=MA|10=240|8=FIX.4.4|9=54|35=0|34=25|49=MMMAQAUK|52=20181204-10:14:16.340|56=MA|10=233|8=FIX.4.4|9=54|35=0|34=26|49=MMMAQAUK|52=20181204-10:15:46.340|56=MA|10=238|8=FIX.4.4|9=54|35=0|34=27|49=MMMAQAUK|52=20181204-10:17:16.340|56=MA|10=238|8=FIX.4.4|9=54|35=0|34=28|49=MMMAQAUK|52=20181204-10:18:47.327|56=MA|10=249|8=FIX.4.4|9=54|35=0|34=29|49=MMMAQAUK|52=20181204-10:20:17.327|56=MA|10=240|8=FIX.4.4|9=54|35=0|34=30|49=MMMAQAUK|52=20181204-10:21:47.330|56=MA|10=230|8=FIX.4.4|9=54|35=0|34=31|49=MMMAQAUK|52=20181204-10:23:18.336|56=MA|10=237|8=FIX.4.4|9=54|35=0|34=32|49=MMMAQAUK|52=20181204-10:24:49.323|56=MA|10=239|8=FIX.4.4|9=54|35=0|34=33|49=MMMAQAUK|52=20181204-10:26:19.323|56=MA|10=239|8=FIX.4.4|9=54|35=0|34=34|49=MMMAQAUK|52=20181204-10:27:50.322|56=MA|10=235|8=FIX.4.4|9=54|35=0|34=35|49=MMMAQAUK|52=20181204-10:29:20.336|56=MA|10=240|8=FIX.4.4|9=54|35=0|34=36|49=MMMAQAUK|52=20181204-10:30:51.320|56=MA|10=230|8=FIX.4.4|9=54|35=0|34=37|49=MMMAQAUK|52=20181204-10:32:21.320|56=MA|10=230|8=FIX.4.4|9=54|35=0|34=38|49=MMMAQAUK|52=20181204-10:33:51.320|56=MA|10=235|8=FIX.4.4|9=54|35=0|34=39|49=MMMAQAUK|52=20181204-10:35:22.320|56=MA|10=236|8=FIX.4.4|9=54|35=0|34=40|49=MMMAQAUK|52=20181204-10:36:52.330|56=MA|10=233|8=FIX.4.4|9=54|35=0|34=41|49=MMMAQAUK|52=20181204-10:38:23.318|56=MA|10=240|8=FIX.4.4|9=54|35=0|34=42|49=MMMAQAUK|52=20181204-10:39:53.319|56=MA|10=246|8=FIX.4.4|9=54|35=0|34=43|49=MMMAQAUK|52=20181204-10:41:24.317|56=MA|10=236|8=FIX.4.4|9=54|35=0|34=44|49=MMMAQAUK|52=20181204-10:42:54.321|56=MA|10=236|8=FIX.4.4|9=54|35=0|34=45|49=MMMAQAUK|52=20181204-10:44:24.323|56=MA|10=238|8=FIX.4.4|9=54|35=0|34=46|49=MMMAQAUK|52=20181204-10:45:55.325|56=MA|10=246|8=FIX.4.4|9=54|35=0|34=47|49=MMMAQAUK|52=20181204-10:47:26.316|56=MA|10=247|8=FIX.4.4|9=54|35=0|34=48|49=MMMAQAUK|52=20181204-10:48:56.316|56=MA|10=252|8=FIX.4.4|9=54|35=0|34=49|49=MMMAQAUK|52=20181204-10:50:26.322|56=MA|10=240|8=FIX.4.4|9=54|35=0|34=50|49=MMMAQAUK|52=20181204-10:51:56.326|56=MA|10=240|8=FIX.4.4|9=54|35=0|34=51|49=MMMAQAUK|52=20181204-10:53:27.314|56=MA|10=238|8=FIX.4.4|9=54|35=0|34=52|49=MMMAQAUK|52=20181204-10:54:57.315|56=MA|10=244|8=FIX.4.4|9=54|35=0|34=53|49=MMMAQAUK|52=20181204-10:56:28.313|56=MA|10=243|8=FIX.4.4|9=54|35=0|34=54|49=MMMAQAUK|52=20181204-10:57:59.313|56=MA|10=249|8=FIX.4.4|9=54|35=0|34=55|49=MMMAQAUK|52=20181204-10:59:30.313|56=MA|10=241|8=FIX.4.4|9=54|35=0|34=56|49=MMMAQAUK|52=20181204-11:01:01.311|56=MA|10=226|8=FIX.4.4|9=54|35=0|34=57|49=MMMAQAUK|52=20181204-11:02:32.326|56=MA|10=238|8=FIX.4.4|9=54|35=0|34=58|49=MMMAQAUK|52=20181204-11:04:03.311|56=MA|10=233|8=FIX.4.4|9=54|35=0|34=59|49=MMMAQAUK|52=20181204-11:05:34.311|56=MA|10=239|8=FIX.4.4|9=54|35=0|34=60|49=MMMAQAUK|52=20181204-11:07:05.309|56=MA|10=238|8=FIX.4.4|9=54|35=0|34=61|49=MMMAQAUK|52=20181204-11:08:35.309|56=MA|10=243|8=FIX.4.4|9=54|35=0|34=62|49=MMMAQAUK|52=20181204-11:10:05.311|56=MA|10=227|8=FIX.4.4|9=54|35=0|34=63|49=MMMAQAUK|52=20181204-11:11:36.307|56=MA|10=238|8=FIX.4.4|9=54|35=0|34=64|49=MMMAQAUK|52=20181204-11:13:06.308|56=MA|10=239|8=FIX.4.4|9=54|35=0|34=65|49=MMMAQAUK|52=20181204-11:14:36.308|56=MA|10=244|8=FIX.4.4|9=54|35=0|34=66|49=MMMAQAUK|52=20181204-11:16:07.307|56=MA|10=244|8=FIX.4.4|9=54|35=0|34=67|49=MMMAQAUK|52=20181204-11:17:37.313|56=MA|10=246|8=FIX.4.4|9=54|35=0|34=68|49=MMMAQAUK|52=20181204-11:19:08.310|56=MA|10=244|8=FIX.4.4|9=54|35=0|34=69|49=MMMAQAUK|52=20181204-11:20:38.313|56=MA|10=243|8=FIX.4.4|9=54|35=0|34=70|49=MMMAQAUK|52=20181204-11:22:09.305|56=MA|10=236|8=FIX.4.4|9=54|35=0|34=71|49=MMMAQAUK|52=20181204-11:23:40.316|56=MA|10=235|8=FIX.4.4|9=54|35=0|34=72|49=MMMAQAUK|52=20181204-11:25:11.303|56=MA|10=232|8=FIX.4.4|9=54|35=0|34=73|49=MMMAQAUK|52=20181204-11:26:42.302|56=MA|10=237|8=FIX.4.4|9=54|35=0|34=74|49=MMMAQAUK|52=20181204-11:28:13.301|56=MA|10=237|8=FIX.4.4|9=54|35=0|34=75|49=MMMAQAUK|52=20181204-11:29:43.301|56=MA|10=242|8=FIX.4.4|9=54|35=0|34=76|49=MMMAQAUK|52=20181204-11:31:13.308|56=MA|10=240|8=FIX.4.4|9=54|35=0|34=77|49=MMMAQAUK|52=20181204-11:32:44.310|56=MA|10=239|8=FIX.4.4|9=54|35=0|34=78|49=MMMAQAUK|52=20181204-11:34:15.299|56=MA|10=000|8=FIX.4.4|9=54|35=0|34=79|49=MMMAQAUK|52=20181204-11:35:45.299|56=MA|10=005|8=FIX.4.4|9=54|35=0|34=80|49=MMMAQAUK|52=20181204-11:37:16.300|56=MA|10=236|8=FIX.4.4|9=54|35=0|34=81|49=MMMAQAUK|52=20181204-11:38:47.303|56=MA|10=245|8=FIX.4.4|9=54|35=0|34=82|49=MMMAQAUK|52=20181204-11:40:17.304|56=MA|10=237|8=FIX.4.4|9=54|35=0|34=83|49=MMMAQAUK|52=20181204-11:41:48.298|56=MA|10=255|8=FIX.4.4|9=54|35=0|34=84|49=MMMAQAUK|52=20181204-11:43:19.296|56=MA|10=254|8=FIX.4.4|9=54|35=0|34=85|49=MMMAQAUK|52=20181204-11:44:50.296|56=MA|10=251|8=FIX.4.4|9=54|35=0|34=86|49=MMMAQAUK|52=20181204-11:46:21.294|56=MA|10=250|8=FIX.4.4|9=54|35=0|34=87|49=MMMAQAUK|52=20181204-11:47:51.295|56=MA|10=000|8=FIX.4.4|9=54|35=0|34=88|49=MMMAQAUK|52=20181204-11:49:21.296|56=MA|10=001|8=FIX.4.4|9=54|35=0|34=89|49=MMMAQAUK|52=20181204-11:50:52.294|56=MA|10=252|8=FIX.4.4|9=54|35=0|34=90|49=MMMAQAUK|52=20181204-11:52:22.294|56=MA|10=243|8=FIX.4.4|9=54|35=0|34=91|49=MMMAQAUK|52=20181204-11:53:53.294|56=MA|10=249|8=FIX.4.4|9=54|35=0|34=92|49=MMMAQAUK|52=20181204-11:55:23.295|56=MA|10=250|8=FIX.4.4|9=54|35=0|34=93|49=MMMAQAUK|52=20181204-11:56:54.293|56=MA|10=254|8=FIX.4.4|9=54|35=0|34=94|49=MMMAQAUK|52=20181204-11:58:24.293|56=MA|10=254|8=FIX.4.4|9=54|35=0|34=95|49=MMMAQAUK|52=20181204-11:59:55.292|56=MA|10=003|8=FIX.4.4|9=54|35=0|34=96|49=MMMAQAUK|52=20181204-12:01:25.292|56=MA|10=245|8=FIX.4.4|9=54|35=0|34=97|49=MMMAQAUK|52=20181204-12:02:56.290|56=MA|10=249|8=FIX.4.4|9=54|35=0|34=98|49=MMMAQAUK|52=20181204-12:04:26.291|56=MA|10=250|8=FIX.4.4|9=54|35=0|34=99|49=MMMAQAUK|52=20181204-12:05:57.290|56=MA|10=255|8=FIX.4.4|9=55|35=0|34=100|49=MMMAQAUK|52=20181204-12:07:28.288|56=MA|10=038|8=FIX.4.4|9=55|35=0|34=101|49=MMMAQAUK|52=20181204-12:08:58.288|56=MA|10=043|8=FIX.4.4|9=55|35=0|34=102|49=MMMAQAUK|52=20181204-12:10:28.288|56=MA|10=034|8=FIX.4.4|9=55|35=0|34=103|49=MMMAQAUK|52=20181204-12:11:59.289|56=MA|10=041|8=FIX.4.4|9=55|35=0|34=104|49=MMMAQAUK|52=20181204-12:13:30.286|56=MA|10=030|8=FIX.4.4|9=55|35=0|34=105|49=MMMAQAUK|52=20181204-12:15:00.286|56=MA|10=030|8=FIX.4.4|9=55|35=0|34=106|49=MMMAQAUK|52=20181204-12:16:31.286|56=MA|10=036|8=FIX.4.4|9=55|35=0|34=107|49=MMMAQAUK|52=20181204-12:18:02.284|56=MA|10=035|8=FIX.4.4|9=55|35=0|34=108|49=MMMAQAUK|52=20181204-12:19:32.284|56=MA|10=040|8=FIX.4.4|9=55|35=0|34=109|49=MMMAQAUK|52=20181204-12:21:03.284|56=MA|10=032|8=FIX.4.4|9=55|35=0|34=110|49=MMMAQAUK|52=20181204-12:22:33.284|56=MA|10=028|8=FIX.4.4|9=55|35=0|34=111|49=MMMAQAUK|52=20181204-12:24:04.282|56=MA|10=027|8=FIX.4.4|9=55|35=0|34=112|49=MMMAQAUK|52=20181204-12:25:34.282|56=MA|10=032|8=FIX.4.4|9=55|35=0|34=113|49=MMMAQAUK|52=20181204-12:27:04.283|56=MA|10=033|8=FIX.4.4|9=55|35=0|34=114|49=MMMAQAUK|52=20181204-12:28:35.281|56=MA|10=037|8=FIX.4.4|9=55|35=0|34=115|49=MMMAQAUK|52=20181204-12:30:05.281|56=MA|10=028|8=FIX.4.4|9=55|35=0|34=116|49=MMMAQAUK|52=20181204-12:31:36.281|56=MA|10=034|8=FIX.4.4|9=55|35=0|34=117|49=MMMAQAUK|52=20181204-12:33:07.280|56=MA|10=034|8=FIX.4.4|9=55|35=0|34=118|49=MMMAQAUK|52=20181204-12:34:38.279|56=MA|10=048|8=FIX.4.4|9=55|35=0|34=119|49=MMMAQAUK|52=20181204-12:36:08.279|56=MA|10=048|8=FIX.4.4|9=55|35=0|34=120|49=MMMAQAUK|52=20181204-12:37:39.278|56=MA|10=044|8=FIX.4.4|9=55|35=0|34=121|49=MMMAQAUK|52=20181204-12:39:10.278|56=MA|10=036|8=FIX.4.4|9=55|35=0|34=122|49=MMMAQAUK|52=20181204-12:40:41.276|56=MA|10=031|8=FIX.4.4|9=55|35=0|34=123|49=MMMAQAUK|52=20181204-12:42:11.277|56=MA|10=032|8=FIX.4.4|9=55|35=0|34=124|49=MMMAQAUK|52=20181204-12:43:42.276|56=MA|10=037|8=FIX.4.4|9=55|35=0|34=125|49=MMMAQAUK|52=20181204-12:45:12.276|56=MA|10=037|8=FIX.4.4|9=55|35=0|34=126|49=MMMAQAUK|52=20181204-12:46:43.276|56=MA|10=043|8=FIX.4.4|9=55|35=0|34=127|49=MMMAQAUK|52=20181204-12:48:14.274|56=MA|10=042|8=FIX.4.4|9=55|35=0|34=128|49=MMMAQAUK|52=20181204-12:49:45.274|56=MA|10=048|8=FIX.4.4|9=55|35=0|34=129|49=MMMAQAUK|52=20181204-12:51:16.273|56=MA|10=039|8=FIX.4.4|9=55|35=0|34=130|49=MMMAQAUK|52=20181204-12:52:47.272|56=MA|10=035|8=FIX.4.4|9=55|35=0|34=131|49=MMMAQAUK|52=20181204-12:54:17.272|56=MA|10=035|8=FIX.4.4|9=55|35=0|34=132|49=MMMAQAUK|52=20181204-12:55:48.271|56=MA|10=040|8=FIX.4.4|9=55|35=0|34=133|49=MMMAQAUK|52=20181204-12:57:18.271|56=MA|10=040|8=FIX.4.4|9=55|35=0|34=134|49=MMMAQAUK|52=20181204-12:58:48.271|56=MA|10=045|8=FIX.4.4|9=55|35=0|34=135|49=MMMAQAUK|52=20181204-13:00:18.271|56=MA|10=031|8=FIX.4.4|9=55|35=0|34=136|49=MMMAQAUK|52=20181204-13:01:49.271|56=MA|10=037|8=FIX.4.4|9=55|35=0|34=137|49=MMMAQAUK|52=20181204-13:03:20.270|56=MA|10=028|8=FIX.4.4|9=55|35=0|34=138|49=MMMAQAUK|52=20181204-13:04:50.270|56=MA|10=033|8=FIX.4.4|9=55|35=0|34=139|49=MMMAQAUK|52=20181204-13:06:21.269|56=MA|10=042|8=FIX.4.4|9=55|35=0|34=140|49=MMMAQAUK|52=20181204-13:07:51.269|56=MA|10=038|8=FIX.4.4|9=55|35=0|34=141|49=MMMAQAUK|52=20181204-13:09:22.268|56=MA|10=038|8=FIX.4.4|9=55|35=0|34=142|49=MMMAQAUK|52=20181204-13:10:53.267|56=MA|10=034|8=FIX.4.4|9=55|35=0|34=143|49=MMMAQAUK|52=20181204-13:12:23.267|56=MA|10=034|8=FIX.4.4|9=55|35=0|34=144|49=MMMAQAUK|52=20181204-13:13:54.266|56=MA|10=039|8=FIX.4.4|9=55|35=0|34=145|49=MMMAQAUK|52=20181204-13:15:24.266|56=MA|10=039|8=FIX.4.4|9=55|35=0|34=146|49=MMMAQAUK|52=20181204-13:16:54.266|56=MA|10=044|8=FIX.4.4|9=55|35=0|34=147|49=MMMAQAUK|52=20181204-13:18:25.265|56=MA|10=044|8=FIX.4.4|9=55|35=0|34=148|49=MMMAQAUK|52=20181204-13:19:56.264|56=MA|10=049|8=FIX.4.4|9=55|35=0|34=149|49=MMMAQAUK|52=20181204-13:21:26.264|56=MA|10=040|8=FIX.4.4|9=55|35=0|34=150|49=MMMAQAUK|52=20181204-13:22:57.264|56=MA|10=037|8=FIX.4.4|9=55|35=0|34=151|49=MMMAQAUK|52=20181204-13:24:28.262|56=MA|10=036|8=FIX.4.4|9=55|35=0|34=152|49=MMMAQAUK|52=20181204-13:25:58.262|56=MA|10=041|8=FIX.4.4|9=55|35=0|34=153|49=MMMAQAUK|52=20181204-13:27:29.262|56=MA|10=042|8=FIX.4.4|9=55|35=0|34=154|49=MMMAQAUK|52=20181204-13:28:59.262|56=MA|10=047|8=FIX.4.4|9=55|35=0|34=155|49=MMMAQAUK|52=20181204-13:30:30.260|56=MA|10=028|8=FIX.4.4|9=55|35=0|34=156|49=MMMAQAUK|52=20181204-13:32:00.260|56=MA|10=028|8=FIX.4.4|9=55|35=0|34=157|49=MMMAQAUK|52=20181204-13:33:31.259|56=MA|10=042|8=FIX.4.4|9=55|35=0|34=158|49=MMMAQAUK|52=20181204-13:35:01.259|56=MA|10=042|8=FIX.4.4|9=55|35=0|34=159|49=MMMAQAUK|52=20181204-13:36:31.259|56=MA|10=047|8=FIX.4.4|9=55|35=0|34=160|49=MMMAQAUK|52=20181204-13:38:01.259|56=MA|10=038|8=FIX.4.4|9=55|35=0|34=161|49=MMMAQAUK|52=20181204-13:39:32.256|56=MA|10=041|8=FIX.4.4|9=55|35=0|34=162|49=MMMAQAUK|52=20181204-13:41:02.256|56=MA|10=032|8=FIX.4.4|9=55|35=0|34=163|49=MMMAQAUK|52=20181204-13:42:32.256|56=MA|10=037|8=FIX.4.4|9=55|35=0|34=164|49=MMMAQAUK|52=20181204-13:44:02.256|56=MA|10=037|8=FIX.4.4|9=55|35=0|34=165|49=MMMAQAUK|52=20181204-13:45:33.254|56=MA|10=041|8=FIX.4.4|9=55|35=0|34=166|49=MMMAQAUK|52=20181204-13:47:03.254|56=MA|10=041|8=FIX.4.4|9=55|35=0|34=167|49=MMMAQAUK|52=20181204-13:48:33.254|56=MA|10=046|8=FIX.4.4|9=55|35=0|34=168|49=MMMAQAUK|52=20181204-13:50:04.253|56=MA|10=037|8=FIX.4.4|9=55|35=0|34=169|49=MMMAQAUK|52=20181204-13:51:34.253|56=MA|10=042|8=FIX.4.4|9=55|35=0|34=170|49=MMMAQAUK|52=20181204-13:53:05.252|56=MA|10=033|8=FIX.4.4|9=55|35=0|34=171|49=MMMAQAUK|52=20181204-13:54:36.252|56=MA|10=039|8=FIX.4.4|9=55|35=0|34=172|49=MMMAQAUK|52=20181204-13:56:06.252|56=MA|10=039|8=FIX.4.4|9=55|35=0|34=173|49=MMMAQAUK|52=20181204-13:57:37.250|56=MA|10=043|8=FIX.4.4|9=55|35=0|34=174|49=MMMAQAUK|52=20181204-13:59:07.250|56=MA|10=043|8=FIX.4.4|9=55|35=0|34=175|49=MMMAQAUK|52=20181204-14:00:37.250|56=MA|10=034|8=FIX.4.4|9=55|35=0|34=176|49=MMMAQAUK|52=20181204-14:02:08.249|56=MA|10=043|8=FIX.4.4|9=55|35=0|34=177|49=MMMAQAUK|52=20181204-14:03:38.249|56=MA|10=048|8=FIX.4.4|9=55|35=0|34=178|49=MMMAQAUK|52=20181204-14:05:09.248|56=MA|10=048|8=FIX.4.4|9=55|35=0|34=179|49=MMMAQAUK|52=20181204-14:06:39.249|56=MA|10=054|8=FIX.4.4|9=55|35=0|34=180|49=MMMAQAUK|52=20181204-14:08:10.249|56=MA|10=037|8=FIX.4.4|9=55|35=0|34=181|49=MMMAQAUK|52=20181204-14:09:41.248|56=MA|10=042|8=FIX.4.4|9=55|35=0|34=182|49=MMMAQAUK|52=20181204-14:11:12.247|56=MA|10=033|8=FIX.4.4|9=55|35=0|34=183|49=MMMAQAUK|52=20181204-14:12:43.246|56=MA|10=038|8=FIX.4.4|9=55|35=0|34=184|49=MMMAQAUK|52=20181204-14:14:13.246|56=MA|10=038|8=FIX.4.4|9=55|35=0|34=185|49=MMMAQAUK|52=20181204-14:15:44.247|56=MA|10=045|8=FIX.4.4|9=55|35=0|34=186|49=MMMAQAUK|52=20181204-14:17:15.245|56=MA|10=044|8=FIX.4.4|9=55|35=0|34=187|49=MMMAQAUK|52=20181204-14:18:46.245|56=MA|10=050|8=FIX.4.4|9=55|35=0|34=188|49=MMMAQAUK|52=20181204-14:20:17.244|56=MA|10=041|8=FIX.4.4|9=55|35=0|34=189|49=MMMAQAUK|52=20181204-14:21:48.244|56=MA|10=047|8=FIX.4.4|9=55|35=0|34=190|49=MMMAQAUK|52=20181204-14:23:18.244|56=MA|10=038|8=FIX.4.4|9=55|35=0|34=191|49=MMMAQAUK|52=20181204-14:24:49.243|56=MA|10=043|8=FIX.4.4|9=55|35=0|34=192|49=MMMAQAUK|52=20181204-14:26:20.242|56=MA|10=034|8=FIX.4.4|9=55|35=0|34=193|49=MMMAQAUK|52=20181204-14:27:51.241|56=MA|10=039|8=FIX.4.4|9=55|35=0|34=194|49=MMMAQAUK|52=20181204-14:29:22.240|56=MA|10=039|8=FIX.4.4|9=55|35=0|34=195|49=MMMAQAUK|52=20181204-14:30:52.240|56=MA|10=035|8=FIX.4.4|9=55|35=0|34=196|49=MMMAQAUK|52=20181204-14:32:23.239|56=MA|10=044|8=FIX.4.4|9=55|35=0|34=197|49=MMMAQAUK|52=20181204-14:33:53.239|56=MA|10=049|8=FIX.4.4|9=55|35=0|34=198|49=MMMAQAUK|52=20181204-14:35:24.239|56=MA|10=050|8=FIX.4.4|9=55|35=0|34=199|49=MMMAQAUK|52=20181204-14:36:55.238|56=MA|10=055|8=FIX.4.4|9=55|35=0|34=200|49=MMMAQAUK|52=20181204-14:38:26.237|56=MA|10=037|8=FIX.4.4|9=55|35=0|34=201|49=MMMAQAUK|52=20181204-14:39:56.237|56=MA|10=042|8=FIX.4.4|9=55|35=0|34=202|49=MMMAQAUK|52=20181204-14:41:26.237|56=MA|10=033|8=FIX.4.4|9=55|35=0|34=203|49=MMMAQAUK|52=20181204-14:42:57.235|56=MA|10=037|8=FIX.4.4|9=55|35=0|34=204|49=MMMAQAUK|52=20181204-14:44:27.235|56=MA|10=037|8=FIX.4.4|9=55|35=0|34=205|49=MMMAQAUK|52=20181204-14:45:58.235|56=MA|10=043|8=FIX.4.4|9=55|35=0|34=206|49=MMMAQAUK|52=20181204-14:47:29.234|56=MA|10=043|8=FIX.4.4|9=55|35=0|34=207|49=MMMAQAUK|52=20181204-14:48:59.234|56=MA|10=048|8=FIX.4.4|9=55|35=0|34=208|49=MMMAQAUK|52=20181204-14:50:30.233|56=MA|10=030|8=FIX.4.4|9=55|35=0|34=209|49=MMMAQAUK|52=20181204-14:52:00.233|56=MA|10=030|8=FIX.4.4|9=55|35=0|34=210|49=MMMAQAUK|52=20181204-14:53:30.233|56=MA|10=026|8=FIX.4.4|9=55|35=0|34=211|49=MMMAQAUK|52=20181204-14:55:01.231|56=MA|10=025|8=FIX.4.4|9=55|35=0|34=212|49=MMMAQAUK|52=20181204-14:56:31.231|56=MA|10=030|8=FIX.4.4|9=55|35=0|34=213|49=MMMAQAUK|52=20181204-14:58:02.230|56=MA|10=030|8=FIX.4.4|9=55|35=0|34=214|49=MMMAQAUK|52=20181204-14:59:32.231|56=MA|10=036|8=FIX.4.4|9=55|35=0|34=215|49=MMMAQAUK|52=20181204-15:01:03.229|56=MA|10=030|8=FIX.4.4|9=55|35=0|34=216|49=MMMAQAUK|52=20181204-15:02:34.229|56=MA|10=036|8=FIX.4.4|9=55|35=0|34=217|49=MMMAQAUK|52=20181204-15:04:05.229|56=MA|10=037|8=FIX.4.4|9=55|35=0|34=218|49=MMMAQAUK|52=20181204-15:05:36.228|56=MA|10=042|8=FIX.4.4|9=55|35=0|34=219|49=MMMAQAUK|52=20181204-15:07:07.227|56=MA|10=042|8=FIX.4.4|9=55|35=0|34=220|49=MMMAQAUK|52=20181204-15:08:37.227|56=MA|10=038|8=FIX.4.4|9=55|35=0|34=221|49=MMMAQAUK|52=20181204-15:10:07.227|56=MA|10=029|8=FIX.4.4|9=55|35=0|34=222|49=MMMAQAUK|52=20181204-15:11:38.227|56=MA|10=035|8=FIX.4.4|9=55|35=0|34=223|49=MMMAQAUK|52=20181204-15:13:08.227|56=MA|10=035|8=FIX.4.4|9=55|35=0|34=224|49=MMMAQAUK|52=20181204-15:14:39.226|56=MA|10=040|8=FIX.4.4|9=55|35=0|34=225|49=MMMAQAUK|52=20181204-15:16:09.226|56=MA|10=040|8=FIX.4.4|9=55|35=0|34=226|49=MMMAQAUK|52=20181204-15:17:40.225|56=MA|10=036|8=FIX.4.4|9=55|35=0|34=227|49=MMMAQAUK|52=20181204-15:19:11.224|56=MA|10=036|8=FIX.4.4|9=55|35=0|34=228|49=MMMAQAUK|52=20181204-15:20:42.224|56=MA|10=033|8=FIX.4.4|9=55|35=0|34=229|49=MMMAQAUK|52=20181204-15:22:13.223|56=MA|10=033|8=FIX.4.4|9=55|35=0|34=230|49=MMMAQAUK|52=20181204-15:23:44.224|56=MA|10=031|8=FIX.4.4|9=55|35=0|34=231|49=MMMAQAUK|52=20181204-15:25:15.222|56=MA|10=030|8=FIX.4.4|9=55|35=0|34=232|49=MMMAQAUK|52=20181204-15:26:46.221|56=MA|10=035|8=FIX.4.4|9=55|35=0|34=233|49=MMMAQAUK|52=20181204-15:28:16.221|56=MA|10=035|8=FIX.4.4|9=55|35=0|34=234|49=MMMAQAUK|52=20181204-15:29:46.221|56=MA|10=040|8=FIX.4.4|9=55|35=0|34=235|49=MMMAQAUK|52=20181204-15:31:17.220|56=MA|10=031|8=FIX.4.4|9=55|35=0|34=236|49=MMMAQAUK|52=20181204-15:32:48.219|56=MA|10=045|8=FIX.4.4|9=55|35=0|34=237|49=MMMAQAUK|52=20181204-15:34:19.218|56=MA|10=045|8=FIX.4.4|9=55|35=0|34=238|49=MMMAQAUK|52=20181204-15:35:49.218|56=MA|10=050|8=FIX.4.4|9=55|35=0|34=239|49=MMMAQAUK|52=20181204-15:37:19.218|56=MA|10=050|8=FIX.4.4|9=55|35=0|34=240|49=MMMAQAUK|52=20181204-15:38:49.218|56=MA|10=046|8=FIX.4.4|9=55|35=0|34=241|49=MMMAQAUK|52=20181204-15:40:20.216|56=MA|10=027|8=FIX.4.4|9=55|35=0|34=242|49=MMMAQAUK|52=20181204-15:41:50.216|56=MA|10=032|8=FIX.4.4|9=55|35=0|34=243|49=MMMAQAUK|52=20181204-15:43:20.216|56=MA|10=032|8=FIX.4.4|9=55|35=0|34=244|49=MMMAQAUK|52=20181204-15:44:51.215|56=MA|10=037|8=FIX.4.4|9=55|35=0|34=245|49=MMMAQAUK|52=20181204-15:46:22.214|56=MA|10=037|8=FIX.4.4|9=55|35=0|34=246|49=MMMAQAUK|52=20181204-15:47:52.214|56=MA|10=042|8=FIX.4.4|9=55|35=0|34=247|49=MMMAQAUK|52=20181204-15:49:23.215|56=MA|10=044|8=FIX.4.4|9=55|35=0|34=248|49=MMMAQAUK|52=20181204-15:50:54.212|56=MA|10=038|8=FIX.4.4|9=55|35=0|34=249|49=MMMAQAUK|52=20181204-15:52:24.212|56=MA|10=038|8=FIX.4.4|9=55|35=0|34=250|49=MMMAQAUK|52=20181204-15:53:55.211|56=MA|10=034|8=FIX.4.4|9=55|35=0|34=251|49=MMMAQAUK|52=20181204-15:55:25.213|56=MA|10=036|8=FIX.4.4|9=55|35=0|34=252|49=MMMAQAUK|52=20181204-15:56:55.213|56=MA|10=041|8=FIX.4.4|9=55|35=0|34=253|49=MMMAQAUK|52=20181204-15:58:25.215|56=MA|10=043|8=FIX.4.4|9=55|35=0|34=254|49=MMMAQAUK|52=20181204-15:59:55.215|56=MA|10=048|8=FIX.4.4|9=55|35=0|34=255|49=MMMAQAUK|52=20181204-16:01:26.215|56=MA|10=035|8=FIX.4.4|9=55|35=0|34=256|49=MMMAQAUK|52=20181204-16:02:57.214|56=MA|10=040|8=FIX.4.4|9=55|35=0|34=257|49=MMMAQAUK|52=20181204-16:04:28.213|56=MA|10=040|8=FIX.4.4|9=55|35=0|34=258|49=MMMAQAUK|52=20181204-16:05:58.213|56=MA|10=045|8=FIX.4.4|9=55|35=0|34=259|49=MMMAQAUK|52=20181204-16:07:29.212|56=MA|10=045|8=FIX.4.4|9=55|35=0|34=260|49=MMMAQAUK|52=20181204-16:08:59.212|56=MA|10=041|8=FIX.4.4|9=55|35=0|34=261|49=MMMAQAUK|52=20181204-16:10:29.212|56=MA|10=032|8=FIX.4.4|9=55|35=0|34=262|49=MMMAQAUK|52=20181204-16:11:59.212|56=MA|10=037|8=FIX.4.4|9=55|35=0|34=263|49=MMMAQAUK|52=20181204-16:13:30.212|56=MA|10=029|8=FIX.4.4|9=55|35=0|34=264|49=MMMAQAUK|52=20181204-16:15:01.212|56=MA|10=030|8=FIX.4.4|9=55|35=0|34=265|49=MMMAQAUK|52=20181204-16:16:32.211|56=MA|10=035|8=FIX.4.4|9=55|35=0|34=266|49=MMMAQAUK|52=20181204-16:18:03.210|56=MA|10=035|8=FIX.4.4|9=55|35=0|34=267|49=MMMAQAUK|52=20181204-16:19:34.210|56=MA|10=041|8=FIX.4.4|9=55|35=0|34=268|49=MMMAQAUK|52=20181204-16:21:05.209|56=MA|10=041|8=FIX.4.4|9=55|35=0|34=269|49=MMMAQAUK|52=20181204-16:22:35.209|56=MA|10=046|8=FIX.4.4|9=55|35=0|34=270|49=MMMAQAUK|52=20181204-16:24:06.208|56=MA|10=037|8=FIX.4.4|9=55|35=0|34=271|49=MMMAQAUK|52=20181204-16:25:36.208|56=MA|10=042|8=FIX.4.4|9=55|35=0|34=272|49=MMMAQAUK|52=20181204-16:27:07.207|56=MA|10=042|8=FIX.4.4|9=55|35=0|34=273|49=MMMAQAUK|52=20181204-16:28:37.207|56=MA|10=047|8=FIX.4.4|9=55|35=0|34=274|49=MMMAQAUK|52=20181204-16:30:08.205|56=MA|10=037|8=FIX.4.4|9=55|35=0|34=275|49=MMMAQAUK|52=20181204-16:31:38.206|56=MA|10=043|8=FIX.4.4|9=55|35=0|34=276|49=MMMAQAUK|52=20181204-16:33:09.205|56=MA|10=043|8=FIX.4.4|9=55|35=0|34=277|49=MMMAQAUK|52=20181204-16:34:40.204|56=MA|10=039|8=FIX.4.4|9=55|35=0|34=278|49=MMMAQAUK|52=20181204-16:36:11.203|56=MA|10=039|8=FIX.4.4|9=55|35=0|34=279|49=MMMAQAUK|52=20181204-16:37:41.203|56=MA|10=044|8=FIX.4.4|9=55|35=0|34=280|49=MMMAQAUK|52=20181204-16:39:11.204|56=MA|10=036|8=FIX.4.4|9=55|35=0|34=281|49=MMMAQAUK|52=20181204-16:40:42.201|56=MA|10=030|8=FIX.4.4|9=55|35=0|34=282|49=MMMAQAUK|52=20181204-16:42:12.201|56=MA|10=030|8=FIX.4.4|9=55|35=0|34=283|49=MMMAQAUK|52=20181204-16:43:43.202|56=MA|10=037|8=FIX.4.4|9=55|35=0|34=284|49=MMMAQAUK|52=20181204-16:45:14.200|56=MA|10=036|8=FIX.4.4|9=55|35=0|34=285|49=MMMAQAUK|52=20181204-16:46:45.200|56=MA|10=042|8=FIX.4.4|9=55|35=0|34=286|49=MMMAQAUK|52=20181204-16:48:15.200|56=MA|10=042|8=FIX.4.4|9=55|35=0|34=287|49=MMMAQAUK|52=20181204-16:49:46.198|56=MA|10=064|8=FIX.4.4|9=55|35=0|34=288|49=MMMAQAUK|52=20181204-16:51:16.198|56=MA|10=055|8=FIX.4.4|9=55|35=0|34=289|49=MMMAQAUK|52=20181204-16:52:47.198|56=MA|10=061|8=FIX.4.4|9=55|35=0|34=290|49=MMMAQAUK|52=20181204-16:54:18.197|56=MA|10=052|8=FIX.4.4|9=55|35=0|34=291|49=MMMAQAUK|52=20181204-16:55:49.198|56=MA|10=059|8=FIX.4.4|9=55|35=0|34=292|49=MMMAQAUK|52=20181204-16:57:20.196|56=MA|10=049|8=FIX.4.4|9=55|35=0|34=293|49=MMMAQAUK|52=20181204-16:58:51.195|56=MA|10=054|8=FIX.4.4|9=55|35=0|34=294|49=MMMAQAUK|52=20181204-17:00:21.195|56=MA|10=040|8=FIX.4.4|9=55|35=0|34=295|49=MMMAQAUK|52=20181204-17:01:52.194|56=MA|10=045|8=FIX.4.4|9=55|35=0|34=296|49=MMMAQAUK|52=20181204-17:03:22.194|56=MA|10=045|8=FIX.4.4|9=55|35=0|34=297|49=MMMAQAUK|52=20181204-17:04:53.195|56=MA|10=052|8=FIX.4.4|9=55|35=0|34=298|49=MMMAQAUK|52=20181204-17:06:24.192|56=MA|10=050|8=FIX.4.4|9=55|35=0|34=299|49=MMMAQAUK|52=20181204-17:07:54.192|56=MA|10=055|8=FIX.4.4|9=55|35=0|34=300|49=MMMAQAUK|52=20181204-17:09:25.191|56=MA|10=037|8=FIX.4.4|9=55|35=0|34=301|49=MMMAQAUK|52=20181204-17:10:55.191|56=MA|10=033|8=FIX.4.4|9=55|35=0|34=302|49=MMMAQAUK|52=20181204-17:12:25.191|56=MA|10=033|8=FIX.4.4|9=55|35=0|34=303|49=MMMAQAUK|52=20181204-17:13:55.192|56=MA|10=039|8=FIX.4.4|9=55|35=0|34=304|49=MMMAQAUK|52=20181204-17:15:25.192|56=MA|10=039|8=FIX.4.4|9=55|35=0|34=305|49=MMMAQAUK|52=20181204-17:16:56.190|56=MA|10=043|8=FIX.4.4|9=55|35=0|34=306|49=MMMAQAUK|52=20181204-17:18:26.190|56=MA|10=043|8=FIX.4.4|9=55|35=0|34=307|49=MMMAQAUK|52=20181204-17:19:57.190|56=MA|10=049|8=FIX.4.4|9=55|35=0|34=308|49=MMMAQAUK|52=20181204-17:21:28.189|56=MA|10=049|8=FIX.4.4|9=55|35=0|34=309|49=MMMAQAUK|52=20181204-17:22:59.188|56=MA|10=054|8=FIX.4.4|9=55|35=0|34=310|49=MMMAQAUK|52=20181204-17:24:29.188|56=MA|10=045|8=FIX.4.4|9=55|35=0|34=311|49=MMMAQAUK|52=20181204-17:26:00.187|56=MA|10=036|8=FIX.4.4|9=55|35=0|34=312|49=MMMAQAUK|52=20181204-17:27:30.187|56=MA|10=041|8=FIX.4.4|9=55|35=0|34=313|49=MMMAQAUK|52=20181204-17:29:01.187|56=MA|10=042|8=FIX.4.4|9=55|35=0|34=314|49=MMMAQAUK|52=20181204-17:30:32.185|56=MA|10=037|8=FIX.4.4|9=55|35=0|34=315|49=MMMAQAUK|52=20181204-17:32:02.185|56=MA|10=037|8=FIX.4.4|9=55|35=0|34=316|49=MMMAQAUK|52=20181204-17:33:33.186|56=MA|10=044|8=FIX.4.4|9=55|35=0|34=317|49=MMMAQAUK|52=20181204-17:35:04.184|56=MA|10=043|8=FIX.4.4|9=55|35=0|34=318|49=MMMAQAUK|52=20181204-17:36:35.183|56=MA|10=048|8=FIX.4.4|9=55|35=0|34=319|49=MMMAQAUK|52=20181204-17:38:06.184|56=MA|10=050|8=FIX.4.4|9=55|35=0|34=320|49=MMMAQAUK|52=20181204-17:39:37.183|56=MA|10=046|8=FIX.4.4|9=55|35=0|34=321|49=MMMAQAUK|52=20181204-17:41:07.183|56=MA|10=037|8=FIX.4.4|9=55|35=0|34=322|49=MMMAQAUK|52=20181204-17:42:37.184|56=MA|10=043|8=FIX.4.4|9=55|35=0|34=323|49=MMMAQAUK|52=20181204-17:44:08.183|56=MA|10=043|8=FIX.4.4|9=55|35=0|34=324|49=MMMAQAUK|52=20181204-17:45:38.183|56=MA|10=048|8=FIX.4.4|9=55|35=0|34=325|49=MMMAQAUK|52=20181204-17:47:08.183|56=MA|10=048|8=FIX.4.4|9=55|35=0|34=326|49=MMMAQAUK|52=20181204-17:48:39.183|56=MA|10=054|8=FIX.4.4|9=55|35=0|34=327|49=MMMAQAUK|52=20181204-17:50:10.182|56=MA|10=036|8=FIX.4.4|9=55|35=0|34=328|49=MMMAQAUK|52=20181204-17:51:41.181|56=MA|10=041|8=FIX.4.4|9=55|35=0|34=329|49=MMMAQAUK|52=20181204-17:53:11.181|56=MA|10=041|8=FIX.4.4|9=55|35=0|34=330|49=MMMAQAUK|52=20181204-17:54:41.181|56=MA|10=037|8=FIX.4.4|9=55|35=0|34=331|49=MMMAQAUK|52=20181204-17:56:11.181|56=MA|10=037|8=FIX.4.4|9=55|35=0|34=332|49=MMMAQAUK|52=20181204-17:57:42.179|56=MA|10=050|8=FIX.4.4|9=55|35=0|34=333|49=MMMAQAUK|52=20181204-17:59:12.179|56=MA|10=050|8=FIX.4.4|9=55|35=0|34=334|49=MMMAQAUK|52=20181204-18:00:43.178|56=MA|10=041|8=FIX.4.4|9=55|35=0|34=335|49=MMMAQAUK|52=20181204-18:02:13.178|56=MA|10=041|8=FIX.4.4|9=55|35=0|34=336|49=MMMAQAUK|52=20181204-18:03:44.177|56=MA|10=046|8=FIX.4.4|9=55|35=0|34=337|49=MMMAQAUK|52=20181204-18:05:15.177|56=MA|10=047|8=FIX.4.4|9=55|35=0|34=338|49=MMMAQAUK|52=20181204-18:06:46.176|56=MA|10=052|8=FIX.4.4|9=55|35=0|34=339|49=MMMAQAUK|52=20181204-18:08:17.175|56=MA|10=052|8=FIX.4.4|9=55|35=0|34=340|49=MMMAQAUK|52=20181204-18:09:47.175|56=MA|10=048|8=FIX.4.4|9=55|35=0|34=341|49=MMMAQAUK|52=20181204-18:11:17.175|56=MA|10=039|8=FIX.4.4|9=55|35=0|34=342|49=MMMAQAUK|52=20181204-18:12:48.173|56=MA|10=043|8=FIX.4.4|9=55|35=0|34=343|49=MMMAQAUK|52=20181204-18:14:18.173|56=MA|10=043|8=FIX.4.4|9=55|35=0|34=344|49=MMMAQAUK|52=20181204-18:15:49.172|56=MA|10=048|8=FIX.4.4|9=55|35=0|34=345|49=MMMAQAUK|52=20181204-18:17:19.172|56=MA|10=048|8=FIX.4.4|9=55|35=0|34=346|49=MMMAQAUK|52=20181204-18:18:50.171|56=MA|10=044|8=FIX.4.4|9=55|35=0|34=347|49=MMMAQAUK|52=20181204-18:20:21.171|56=MA|10=036|8=FIX.4.4|9=55|35=0|34=348|49=MMMAQAUK|52=20181204-18:21:51.171|56=MA|10=041|8=FIX.4.4|9=55|35=0|34=349|49=MMMAQAUK|52=20181204-18:23:21.171|56=MA|10=041|8=FIX.4.4|9=55|35=0|34=350|49=MMMAQAUK|52=20181204-18:24:52.169|56=MA|10=045|8=FIX.4.4|9=55|35=0|34=351|49=MMMAQAUK|52=20181204-18:26:22.169|56=MA|10=045|8=FIX.4.4|9=55|35=0|34=352|49=MMMAQAUK|52=20181204-18:27:53.168|56=MA|10=050|8=FIX.4.4|9=55|35=0|34=353|49=MMMAQAUK|52=20181204-18:29:23.169|56=MA|10=051|8=FIX.4.4|9=55|35=0|34=354|49=MMMAQAUK|52=20181204-18:30:54.168|56=MA|10=047|8=FIX.4.4|9=55|35=0|34=355|49=MMMAQAUK|52=20181204-18:32:24.169|56=MA|10=048|8=FIX.4.4|9=55|35=0|34=356|49=MMMAQAUK|52=20181204-18:33:55.168|56=MA|10=053|8=FIX.4.4|9=55|35=0|34=357|49=MMMAQAUK|52=20181204-18:35:26.167|56=MA|10=053|8=FIX.4.4|9=55|35=0|34=358|49=MMMAQAUK|52=20181204-18:36:56.168|56=MA|10=059|8=FIX.4.4|9=55|35=0|34=359|49=MMMAQAUK|52=20181204-18:38:27.167|56=MA|10=059|8=FIX.4.4|9=55|35=0|34=360|49=MMMAQAUK|52=20181204-18:39:58.165|56=MA|10=054|8=FIX.4.4|9=55|35=0|34=361|49=MMMAQAUK|52=20181204-18:41:29.165|56=MA|10=046|8=FIX.4.4|9=55|35=0|34=362|49=MMMAQAUK|52=20181204-18:43:00.165|56=MA|10=038|8=FIX.4.4|9=55|35=0|34=363|49=MMMAQAUK|52=20181204-18:44:30.165|56=MA|10=043|8=FIX.4.4|9=55|35=0|34=364|49=MMMAQAUK|52=20181204-18:46:00.165|56=MA|10=043|8=FIX.4.4|9=55|35=0|34=365|49=MMMAQAUK|52=20181204-18:47:31.163|56=MA|10=047|8=FIX.4.4|9=55|35=0|34=366|49=MMMAQAUK|52=20181204-18:49:02.163|56=MA|10=048|8=FIX.4.4|9=55|35=0|34=367|49=MMMAQAUK|52=20181204-18:50:33.161|56=MA|10=043|8=FIX.4.4|9=55|35=0|34=368|49=MMMAQAUK|52=20181204-18:52:03.161|56=MA|10=043|8=FIX.4.4|9=55|35=0|34=369|49=MMMAQAUK|52=20181204-18:53:34.160|56=MA|10=048|8=FIX.4.4|9=55|35=0|34=370|49=MMMAQAUK|52=20181204-18:55:04.161|56=MA|10=040|8=FIX.4.4|9=55|35=0|34=371|49=MMMAQAUK|52=20181204-18:56:35.159|56=MA|10=053|8=FIX.4.4|9=55|35=0|34=372|49=MMMAQAUK|52=20181204-18:58:05.159|56=MA|10=053|8=FIX.4.4|9=55|35=0|34=373|49=MMMAQAUK|52=20181204-18:59:35.159|56=MA|10=058|8=FIX.4.4|9=55|35=0|34=374|49=MMMAQAUK|52=20181204-19:01:06.158|56=MA|10=044|8=FIX.4.4|9=55|35=0|34=375|49=MMMAQAUK|52=20181204-19:02:36.158|56=MA|10=049|8=FIX.4.4|9=55|35=0|34=376|49=MMMAQAUK|52=20181204-19:04:07.156|56=MA|10=048|8=FIX.4.4|9=55|35=0|34=377|49=MMMAQAUK|52=20181204-19:05:37.156|56=MA|10=053|8=FIX.4.4|9=55|35=0|34=378|49=MMMAQAUK|52=20181204-19:07:07.156|56=MA|10=053|8=FIX.4.4|9=55|35=0|34=379|49=MMMAQAUK|52=20181204-19:08:38.155|56=MA|10=058|8=FIX.4.4|9=55|35=0|34=380|49=MMMAQAUK|52=20181204-19:10:09.155|56=MA|10=041|8=FIX.4.4|9=55|35=0|34=381|49=MMMAQAUK|52=20181204-19:11:40.154|56=MA|10=037|8=FIX.4.4|9=55|35=0|34=382|49=MMMAQAUK|52=20181204-19:13:10.154|56=MA|10=037|8=FIX.4.4|9=55|35=0|34=383|49=MMMAQAUK|52=20181204-19:14:41.153|56=MA|10=042|8=FIX.4.4|9=55|35=0|34=384|49=MMMAQAUK|52=20181204-19:16:12.152|56=MA|10=042|8=FIX.4.4|9=55|35=0|34=385|49=MMMAQAUK|52=20181204-19:17:42.152|56=MA|10=047|8=FIX.4.4|9=55|35=0|34=386|49=MMMAQAUK|52=20181204-19:19:13.152|56=MA|10=048|8=FIX.4.4|9=55|35=0|34=387|49=MMMAQAUK|52=20181204-19:20:44.151|56=MA|10=044|8=FIX.4.4|9=55|35=0|34=388|49=MMMAQAUK|52=20181204-19:22:15.150|56=MA|10=044|8=FIX.4.4|9=55|35=0|34=389|49=MMMAQAUK|52=20181204-19:23:45.150|56=MA|10=049|8=FIX.4.4|9=55|35=0|34=390|49=MMMAQAUK|52=20181204-19:25:16.149|56=MA|10=049|8=FIX.4.4|9=55|35=0|34=391|49=MMMAQAUK|52=20181204-19:26:46.150|56=MA|10=046|8=FIX.4.4|9=55|35=0|34=392|49=MMMAQAUK|52=20181204-19:28:17.148|56=MA|10=054|8=FIX.4.4|9=55|35=0|34=393|49=MMMAQAUK|52=20181204-19:29:47.148|56=MA|10=059|8=FIX.4.4|9=55|35=0|34=394|49=MMMAQAUK|52=20181204-19:31:18.148|56=MA|10=051|8=FIX.4.4|9=55|35=0|34=395|49=MMMAQAUK|52=20181204-19:32:48.148|56=MA|10=056|8=FIX.4.4|9=55|35=0|34=396|49=MMMAQAUK|52=20181204-19:34:18.149|56=MA|10=057|8=FIX.4.4|9=55|35=0|34=397|49=MMMAQAUK|52=20181204-19:35:49.147|56=MA|10=061|8=FIX.4.4|9=55|35=0|34=398|49=MMMAQAUK|52=20181204-19:37:20.146|56=MA|10=052|8=FIX.4.4|9=55|35=0|34=399|49=MMMAQAUK|52=20181204-19:38:50.146|56=MA|10=057|8=FIX.4.4|9=55|35=0|34=400|49=MMMAQAUK|52=20181204-19:40:21.145|56=MA|10=030|8=FIX.4.4|9=55|35=0|34=401|49=MMMAQAUK|52=20181204-19:41:51.146|56=MA|10=036|8=FIX.4.4|9=55|35=0|34=402|49=MMMAQAUK|52=20181204-19:43:22.144|56=MA|10=035|8=FIX.4.4|9=55|35=0|34=403|49=MMMAQAUK|52=20181204-19:44:53.143|56=MA|10=040|8=FIX.4.4|9=55|35=0|34=404|49=MMMAQAUK|52=20181204-19:46:23.143|56=MA|10=040|8=FIX.4.4|9=55|35=0|34=405|49=MMMAQAUK|52=20181204-19:47:53.143|56=MA|10=045|8=FIX.4.4|9=55|35=0|34=406|49=MMMAQAUK|52=20181204-19:49:23.143|56=MA|10=045|8=FIX.4.4|9=55|35=0|34=407|49=MMMAQAUK|52=20181204-19:50:54.141|56=MA|10=040|8=FIX.4.4|9=55|35=0|34=408|49=MMMAQAUK|52=20181204-19:52:24.141|56=MA|10=040|8=FIX.4.4|9=55|35=0|34=409|49=MMMAQAUK|52=20181204-19:53:55.140|56=MA|10=045|8=FIX.4.4|9=55|35=0|34=410|49=MMMAQAUK|52=20181204-19:55:25.141|56=MA|10=037|8=FIX.4.4|9=55|35=0|34=411|49=MMMAQAUK|52=20181204-19:56:56.140|56=MA|10=042|8=FIX.4.4|9=55|35=0|34=412|49=MMMAQAUK|52=20181204-19:58:27.139|56=MA|10=051|8=FIX.4.4|9=55|35=0|34=413|49=MMMAQAUK|52=20181204-19:59:58.138|56=MA|10=056|8=FIX.4.4|9=55|35=0|34=414|49=MMMAQAUK|52=20181204-20:01:29.137|56=MA|10=033|8=FIX.4.4|9=55|35=0|34=415|49=MMMAQAUK|52=20181204-20:02:59.137|56=MA|10=038|8=FIX.4.4|9=55|35=0|34=416|49=MMMAQAUK|52=20181204-20:04:29.137|56=MA|10=038|8=FIX.4.4|9=55|35=0|34=417|49=MMMAQAUK|52=20181204-20:06:00.136|56=MA|10=029|8=FIX.4.4|9=55|35=0|34=418|49=MMMAQAUK|52=20181204-20:07:31.135|56=MA|10=034|8=FIX.4.4|9=55|35=0|34=419|49=MMMAQAUK|52=20181204-20:09:02.135|56=MA|10=035|8=FIX.4.4|9=55|35=0|34=420|49=MMMAQAUK|52=20181204-20:10:32.135|56=MA|10=022|8=FIX.4.4|9=55|35=0|34=421|49=MMMAQAUK|52=20181204-20:12:03.134|56=MA|10=022|8=FIX.4.4|9=55|35=0|34=422|49=MMMAQAUK|52=20181204-20:13:34.133|56=MA|10=027|8=FIX.4.4|9=55|35=0|34=423|49=MMMAQAUK|52=20181204-20:15:04.134|56=MA|10=028|8=FIX.4.4|9=55|35=0|34=424|49=MMMAQAUK|52=20181204-20:16:35.132|56=MA|10=032|8=FIX.4.4|9=55|35=0|34=425|49=MMMAQAUK|52=20181204-20:18:05.132|56=MA|10=032|8=FIX.4.4|9=55|35=0|34=426|49=MMMAQAUK|52=20181204-20:19:36.131|56=MA|10=037|8=FIX.4.4|9=55|35=0|34=427|49=MMMAQAUK|52=20181204-20:21:06.131|56=MA|10=028|8=FIX.4.4|9=55|35=0|34=428|49=MMMAQAUK|52=20181204-20:22:37.130|56=MA|10=033|8=FIX.4.4|9=55|35=0|34=429|49=MMMAQAUK|52=20181204-20:24:08.129|56=MA|10=042|8=FIX.4.4|9=55|35=0|34=430|49=MMMAQAUK|52=20181204-20:25:38.129|56=MA|10=038|8=FIX.4.4|9=55|35=0|34=431|49=MMMAQAUK|52=20181204-20:27:09.129|56=MA|10=039|8=FIX.4.4|9=55|35=0|34=432|49=MMMAQAUK|52=20181204-20:28:40.129|56=MA|10=036|8=FIX.4.4|9=55|35=0|34=433|49=MMMAQAUK|52=20181204-20:30:11.128|56=MA|10=027|8=FIX.4.4|9=55|35=0|34=434|49=MMMAQAUK|52=20181204-20:31:41.128|56=MA|10=032|8=FIX.4.4|9=55|35=0|34=435|49=MMMAQAUK|52=20181204-20:33:12.128|56=MA|10=033|8=FIX.4.4|9=55|35=0|34=436|49=MMMAQAUK|52=20181204-20:34:43.128|56=MA|10=039|8=FIX.4.4|9=55|35=0|34=437|49=MMMAQAUK|52=20181204-20:36:14.127|56=MA|10=039|8=FIX.4.4|9=55|35=0|34=438|49=MMMAQAUK|52=20181204-20:37:45.127|56=MA|10=045|8=FIX.4.4|9=55|35=0|34=439|49=MMMAQAUK|52=20181204-20:39:16.126|56=MA|10=045|8=FIX.4.4|9=55|35=0|34=440|49=MMMAQAUK|52=20181204-20:40:47.125|56=MA|10=032|8=FIX.4.4|9=55|35=0|34=441|49=MMMAQAUK|52=20181204-20:42:17.125|56=MA|10=032|8=FIX.4.4|9=55|35=0|34=442|49=MMMAQAUK|52=20181204-20:43:47.125|56=MA|10=037|8=FIX.4.4|9=55|35=0|34=443|49=MMMAQAUK|52=20181204-20:45:18.123|56=MA|10=036|8=FIX.4.4|9=55|35=0|34=444|49=MMMAQAUK|52=20181204-20:46:49.123|56=MA|10=042|8=FIX.4.4|9=55|35=0|34=445|49=MMMAQAUK|52=20181204-20:48:20.123|56=MA|10=034|8=FIX.4.4|9=55|35=0|34=446|49=MMMAQAUK|52=20181204-20:49:51.122|56=MA|10=039|8=FIX.4.4|9=55|35=0|34=447|49=MMMAQAUK|52=20181204-20:51:22.122|56=MA|10=031|8=FIX.4.4|9=55|35=0|34=448|49=MMMAQAUK|52=20181204-20:52:53.121|56=MA|10=036|8=FIX.4.4|9=55|35=0|34=449|49=MMMAQAUK|52=20181204-20:54:24.120|56=MA|10=036|8=FIX.4.4|9=55|35=0|34=450|49=MMMAQAUK|52=20181204-20:55:55.120|56=MA|10=033|8=FIX.4.4|9=55|35=0|34=451|49=MMMAQAUK|52=20181204-20:57:26.119|56=MA|10=042|8=FIX.4.4|9=55|35=0|34=452|49=MMMAQAUK|52=20181204-20:58:56.119|56=MA|10=047|8=FIX.4.4|9=55|35=0|34=453|49=MMMAQAUK|52=20181204-21:00:27.118|56=MA|10=033|8=FIX.4.4|9=55|35=0|34=454|49=MMMAQAUK|52=20181204-21:01:57.118|56=MA|10=038|8=FIX.4.4|9=55|35=0|34=455|49=MMMAQAUK|52=20181204-21:03:28.117|56=MA|10=038|8=FIX.4.4|9=55|35=0|34=456|49=MMMAQAUK|52=20181204-21:04:59.116|56=MA|10=043|8=FIX.4.4|9=55|35=0|34=457|49=MMMAQAUK|52=20181204-21:06:29.116|56=MA|10=043|8=FIX.4.4|9=55|35=0|34=458|49=MMMAQAUK|52=20181204-21:07:59.116|56=MA|10=048|8=FIX.4.4|9=55|35=0|34=459|49=MMMAQAUK|52=20181204-21:09:30.114|56=MA|10=038|8=FIX.4.4|9=55|35=0|34=460|49=MMMAQAUK|52=20181204-21:11:00.115|56=MA|10=021|8=FIX.4.4|9=55|35=0|34=461|49=MMMAQAUK|52=20181204-21:12:31.113|56=MA|10=025|8=FIX.4.4|9=55|35=0|34=462|49=MMMAQAUK|52=20181204-21:14:01.113|56=MA|10=025|8=FIX.4.4|9=55|35=0|34=463|49=MMMAQAUK|52=20181204-21:15:31.113|56=MA|10=030|8=FIX.4.4|9=55|35=0|34=464|49=MMMAQAUK|52=20181204-21:17:02.112|56=MA|10=030|8=FIX.4.4|9=55|35=0|34=465|49=MMMAQAUK|52=20181204-21:18:33.111|56=MA|10=035|8=FIX.4.4|9=55|35=0|34=466|49=MMMAQAUK|52=20181204-21:20:03.111|56=MA|10=026|8=FIX.4.4|9=55|35=0|34=467|49=MMMAQAUK|52=20181204-21:21:33.112|56=MA|10=032|8=FIX.4.4|9=55|35=0|34=468|49=MMMAQAUK|52=20181204-21:23:04.110|56=MA|10=031|8=FIX.4.4|9=55|35=0|34=469|49=MMMAQAUK|52=20181204-21:24:35.108|56=MA|10=044|8=FIX.4.4|9=55|35=0|34=470|49=MMMAQAUK|52=20181204-21:26:05.109|56=MA|10=036|8=FIX.4.4|9=55|35=0|34=471|49=MMMAQAUK|52=20181204-21:27:36.109|56=MA|10=042|8=FIX.4.4|9=55|35=0|34=472|49=MMMAQAUK|52=20181204-21:29:07.108|56=MA|10=042|8=FIX.4.4|9=55|35=0|34=473|49=MMMAQAUK|52=20181204-21:30:37.108|56=MA|10=038|8=FIX.4.4|9=55|35=0|34=474|49=MMMAQAUK|52=20181204-21:32:08.108|56=MA|10=039|8=FIX.4.4|9=55|35=0|34=475|49=MMMAQAUK|52=20181204-21:33:38.108|56=MA|10=044|8=FIX.4.4|9=55|35=0|34=476|49=MMMAQAUK|52=20181204-21:35:08.108|56=MA|10=044|8=FIX.4.4|9=55|35=0|34=477|49=MMMAQAUK|52=20181204-21:36:39.107|56=MA|10=049|8=FIX.4.4|9=55|35=0|34=478|49=MMMAQAUK|52=20181204-21:38:10.107|56=MA|10=041|8=FIX.4.4|9=55|35=0|34=479|49=MMMAQAUK|52=20181204-21:39:41.106|56=MA|10=046|8=FIX.4.4|9=55|35=0|34=480|49=MMMAQAUK|52=20181204-21:41:12.105|56=MA|10=028|8=FIX.4.4|9=55|35=0|34=481|49=MMMAQAUK|52=20181204-21:42:43.105|56=MA|10=034|8=FIX.4.4|9=55|35=0|34=482|49=MMMAQAUK|52=20181204-21:44:14.104|56=MA|10=034|8=FIX.4.4|9=55|35=0|34=483|49=MMMAQAUK|52=20181204-21:45:45.103|56=MA|10=039|8=FIX.4.4|9=55|35=0|34=484|49=MMMAQAUK|52=20181204-21:47:16.103|56=MA|10=040|8=FIX.4.4|9=55|35=0|34=485|49=MMMAQAUK|52=20181204-21:48:46.103|56=MA|10=045|8=FIX.4.4|9=55|35=0|34=486|49=MMMAQAUK|52=20181204-21:50:16.103|56=MA|10=036|8=FIX.4.4|9=55|35=0|34=487|49=MMMAQAUK|52=20181204-21:51:47.101|56=MA|10=040|8=FIX.4.4|9=55|35=0|34=488|49=MMMAQAUK|52=20181204-21:53:18.101|56=MA|10=041|8=FIX.4.4|9=55|35=0|34=489|49=MMMAQAUK|52=20181204-21:54:49.100|56=MA|10=046|8=FIX.4.4|9=55|35=0|34=490|49=MMMAQAUK|52=20181204-21:56:20.099|56=MA|10=046|8=FIX.4.4|9=55|35=0|34=491|49=MMMAQAUK|52=20181204-21:57:50.099|56=MA|10=051|8=FIX.4.4|9=55|35=0|34=492|49=MMMAQAUK|52=20181204-21:59:20.099|56=MA|10=051|8=FIX.4.4|9=55|35=0|34=493|49=MMMAQAUK|52=20181204-22:00:51.098|56=MA|10=042|8=FIX.4.4|9=55|35=0|34=494|49=MMMAQAUK|52=20181204-22:02:22.097|56=MA|10=042|8=FIX.4.4|9=55|35=0|34=495|49=MMMAQAUK|52=20181204-22:03:52.097|56=MA|10=047|8=FIX.4.4|9=55|35=0|34=496|49=MMMAQAUK|52=20181204-22:05:23.096|56=MA|10=047|8=FIX.4.4|9=55|35=0|34=497|49=MMMAQAUK|52=20181204-22:06:53.096|56=MA|10=052|8=FIX.4.4|9=55|35=0|34=498|49=MMMAQAUK|52=20181204-22:08:23.096|56=MA|10=052|8=FIX.4.4|9=55|35=0|34=499|49=MMMAQAUK|52=20181204-22:09:54.095|56=MA|10=057|8=FIX.4.4|9=55|35=0|34=500|49=MMMAQAUK|52=20181204-22:11:25.095|56=MA|10=031|8=FIX.4.4|9=55|35=0|34=501|49=MMMAQAUK|52=20181204-22:12:56.093|56=MA|10=035|8=FIX.4.4|9=55|35=0|34=502|49=MMMAQAUK|52=20181204-22:14:26.093|56=MA|10=035|8=FIX.4.4|9=55|35=0|34=503|49=MMMAQAUK|52=20181204-22:15:57.092|56=MA|10=040|8=FIX.4.4|9=55|35=0|34=504|49=MMMAQAUK|52=20181204-22:17:28.091|56=MA|10=040|8=FIX.4.4|9=55|35=0|34=505|49=MMMAQAUK|52=20181204-22:18:58.091|56=MA|10=045|8=FIX.4.4|9=55|35=0|34=506|49=MMMAQAUK|52=20181204-22:20:29.091|56=MA|10=037|8=FIX.4.4|9=55|35=0|34=507|49=MMMAQAUK|52=20181204-22:22:00.090|56=MA|10=028|8=FIX.4.4|9=55|35=0|34=508|49=MMMAQAUK|52=20181204-22:23:30.090|56=MA|10=033|8=FIX.4.4|9=55|35=0|34=509|49=MMMAQAUK|52=20181204-22:25:01.090|56=MA|10=034|8=FIX.4.4|9=55|35=0|34=510|49=MMMAQAUK|52=20181204-22:26:32.088|56=MA|10=038|8=FIX.4.4|9=55|35=0|34=511|49=MMMAQAUK|52=20181204-22:28:03.088|56=MA|10=039|8=FIX.4.4|9=55|35=0|34=512|49=MMMAQAUK|52=20181204-22:29:34.087|56=MA|10=044|8=FIX.4.4|9=55|35=0|34=513|49=MMMAQAUK|52=20181204-22:31:05.086|56=MA|10=035|8=FIX.4.4|9=55|35=0|34=514|49=MMMAQAUK|52=20181204-22:32:35.086|56=MA|10=040|8=FIX.4.4|9=55|35=0|34=515|49=MMMAQAUK|52=20181204-22:34:05.086|56=MA|10=040|8=FIX.4.4|9=55|35=0|34=516|49=MMMAQAUK|52=20181204-22:35:35.086|56=MA|10=045|8=FIX.4.4|9=55|35=0|34=517|49=MMMAQAUK|52=20181204-22:37:05.086|56=MA|10=045|8=FIX.4.4|9=55|35=0|34=518|49=MMMAQAUK|52=20181204-22:38:36.085|56=MA|10=050|8=FIX.4.4|9=55|35=0|34=519|49=MMMAQAUK|52=20181204-22:40:06.085|56=MA|10=041|8=FIX.4.4|9=55|35=0|34=520|49=MMMAQAUK|52=20181204-22:41:36.085|56=MA|10=037|8=FIX.4.4|9=55|35=0|34=521|49=MMMAQAUK|52=20181204-22:43:07.083|56=MA|10=036|8=FIX.4.4|9=55|35=0|34=522|49=MMMAQAUK|52=20181204-22:44:37.083|56=MA|10=041|8=FIX.4.4|9=55|35=0|34=523|49=MMMAQAUK|52=20181204-22:46:07.083|56=MA|10=041|8=FIX.4.4|9=55|35=0|34=524|49=MMMAQAUK|52=20181204-22:47:38.083|56=MA|10=047|8=FIX.4.4|9=55|35=0|34=525|49=MMMAQAUK|52=20181204-22:49:09.083|56=MA|10=048|8=FIX.4.4|9=55|35=0|34=526|49=MMMAQAUK|52=20181204-22:50:40.082|56=MA|10=035|8=FIX.4.4|9=55|35=0|34=527|49=MMMAQAUK|52=20181204-22:52:10.082|56=MA|10=035|8=FIX.4.4|9=55|35=0|34=528|49=MMMAQAUK|52=20181204-22:53:41.080|56=MA|10=039|8=FIX.4.4|9=55|35=0|34=529|49=MMMAQAUK|52=20181204-22:55:12.079|56=MA|10=048|8=FIX.4.4|9=55|35=0|34=530|49=MMMAQAUK|52=20181204-22:56:42.079|56=MA|10=044|8=FIX.4.4|9=55|35=0|34=531|49=MMMAQAUK|52=20181204-22:58:12.079|56=MA|10=044|8=FIX.4.4|9=55|35=0|34=532|49=MMMAQAUK|52=20181204-22:59:43.078|56=MA|10=049|8=FIX.4.4|9=55|35=0|34=533|49=MMMAQAUK|52=20181204-23:01:14.077|56=MA|10=035|8=FIX.4.4|9=55|35=0|34=534|49=MMMAQAUK|52=20181204-23:02:44.077|56=MA|10=040|8=FIX.4.4|9=55|35=0|34=535|49=MMMAQAUK|52=20181204-23:04:15.076|56=MA|10=040|8=FIX.4.4|9=55|35=5|34=536|49=MMMAQAUK|52=20181204-23:05:01.919|56=MA|10=048|8=FIX.4.4|9=82|35=A|34=1|49=MMMAQAUK|52=20181205-08:32:46.262|56=MA|98=0|108=90|95=8|96=3.0.0rc4|10=123|8=FIX.4.4|9=53|35=0|34=2|49=MMMAQAUK|52=20181205-08:34:16.264|56=MA|10=194|8=FIX.4.4|9=53|35=0|34=3|49=MMMAQAUK|52=20181205-08:35:47.255|56=MA|10=200|8=FIX.4.4|9=53|35=0|34=4|49=MMMAQAUK|52=20181205-08:37:17.262|56=MA|10=198|8=FIX.4.4|9=53|35=0|34=5|49=MMMAQAUK|52=20181205-08:38:47.266|56=MA|10=207|8=FIX.4.4|9=53|35=0|34=6|49=MMMAQAUK|52=20181205-08:40:18.254|56=MA|10=196|8=FIX.4.4|9=53|35=0|34=7|49=MMMAQAUK|52=20181205-08:41:48.255|56=MA|10=202|8=FIX.4.4|9=53|35=0|34=8|49=MMMAQAUK|52=20181205-08:43:18.263|56=MA|10=201|8=FIX.4.4|9=53|35=0|34=9|49=MMMAQAUK|52=20181205-08:44:49.249|56=MA|10=211|8=FIX.4.4|9=54|35=0|34=10|49=MMMAQAUK|52=20181205-08:46:19.250|56=MA|10=243|8=FIX.4.4|9=54|35=0|34=11|49=MMMAQAUK|52=20181205-08:47:49.257|56=MA|10=255|8=FIX.4.4|9=54|35=0|34=12|49=MMMAQAUK|52=20181205-08:49:20.252|56=MA|10=242|8=FIX.4.4|9=54|35=0|34=13|49=MMMAQAUK|52=20181205-08:50:50.258|56=MA|10=244|8=FIX.4.4|9=54|35=0|34=14|49=MMMAQAUK|52=20181205-08:52:20.260|56=MA|10=237|8=FIX.4.4|9=54|35=0|34=15|49=MMMAQAUK|52=20181205-08:53:51.259|56=MA|10=251|8=FIX.4.4|9=54|35=0|34=16|49=MMMAQAUK|52=20181205-08:55:22.246|56=MA|10=248|8=FIX.4.4|9=54|35=0|34=17|49=MMMAQAUK|52=20181205-08:56:52.248|56=MA|10=255|8=FIX.4.4|9=54|35=0|34=18|49=MMMAQAUK|52=20181205-08:58:22.252|56=MA|10=250|8=FIX.4.4|9=54|35=0|34=19|49=MMMAQAUK|52=20181205-08:59:53.250|56=MA|10=254|8=FIX.4.4|9=54|35=0|34=20|49=MMMAQAUK|52=20181205-09:01:23.257|56=MA|10=238|8=FIX.4.4|9=54|35=0|34=21|49=MMMAQAUK|52=20181205-09:02:53.257|56=MA|10=243|8=FIX.4.4|9=54|35=0|34=22|49=MMMAQAUK|52=20181205-09:04:24.243|56=MA|10=239|8=FIX.4.4|9=54|35=0|34=23|49=MMMAQAUK|52=20181205-09:05:55.244|56=MA|10=246|8=FIX.4.4|9=54|35=0|34=24|49=MMMAQAUK|52=20181205-09:07:26.242|56=MA|10=245|8=FIX.4.4|9=54|35=0|34=25|49=MMMAQAUK|52=20181205-09:08:56.242|56=MA|10=250|8=FIX.4.4|9=54|35=0|34=26|49=MMMAQAUK|52=20181205-09:10:26.242|56=MA|10=241|8=FIX.4.4|9=54|35=0|34=27|49=MMMAQAUK|52=20181205-09:11:56.242|56=MA|10=246|8=FIX.4.4|9=54|35=0|34=28|49=MMMAQAUK|52=20181205-09:13:26.242|56=MA|10=246|8=FIX.4.4|9=54|35=0|34=29|49=MMMAQAUK|52=20181205-09:14:57.241|56=MA|10=251|8=FIX.4.4|9=54|35=0|34=30|49=MMMAQAUK|52=20181205-09:16:28.240|56=MA|10=242|8=FIX.4.4|9=54|35=0|34=31|49=MMMAQAUK|52=20181205-09:17:59.239|56=MA|10=000|8=FIX.4.4|9=54|35=0|34=32|49=MMMAQAUK|52=20181205-09:19:30.239|56=MA|10=248|8=FIX.4.4|9=54|35=0|34=33|49=MMMAQAUK|52=20181205-09:21:01.238|56=MA|10=239|8=FIX.4.4|9=54|35=0|34=34|49=MMMAQAUK|52=20181205-09:22:31.238|56=MA|10=244|8=FIX.4.4|9=54|35=0|34=35|49=MMMAQAUK|52=20181205-09:24:02.237|56=MA|10=244|8=FIX.4.4|9=54|35=0|34=36|49=MMMAQAUK|52=20181205-09:25:33.237|56=MA|10=250|8=FIX.4.4|9=54|35=0|34=37|49=MMMAQAUK|52=20181205-09:27:04.236|56=MA|10=250|8=FIX.4.4|9=54|35=0|34=38|49=MMMAQAUK|52=20181205-09:28:34.236|56=MA|10=255|8=FIX.4.4|9=54|35=0|34=39|49=MMMAQAUK|52=20181205-09:30:05.235|56=MA|10=246|8=FIX.4.4|9=54|35=0|34=40|49=MMMAQAUK|52=20181205-09:31:36.234|56=MA|10=242|8=FIX.4.4|9=54|35=0|34=41|49=MMMAQAUK|52=20181205-09:33:06.234|56=MA|10=242|8=FIX.4.4|9=54|35=0|34=42|49=MMMAQAUK|52=20181205-09:34:36.234|56=MA|10=247|8=FIX.4.4|9=54|35=0|34=43|49=MMMAQAUK|52=20181205-09:36:07.233|56=MA|10=247|8=FIX.4.4|9=54|35=0|34=44|49=MMMAQAUK|52=20181205-09:37:38.232|56=MA|10=252|8=FIX.4.4|9=54|35=0|34=45|49=MMMAQAUK|52=20181205-09:39:08.232|56=MA|10=252|8=FIX.4.4|9=54|35=0|34=46|49=MMMAQAUK|52=20181205-09:40:39.231|56=MA|10=248|8=FIX.4.4|9=54|35=0|34=47|49=MMMAQAUK|52=20181205-09:42:10.230|56=MA|10=239|8=FIX.4.4|9=54|35=0|34=48|49=MMMAQAUK|52=20181205-09:43:40.231|56=MA|10=245|8=FIX.4.4|9=54|35=0|34=49|49=MMMAQAUK|52=20181205-09:45:10.232|56=MA|10=246|8=FIX.4.4|9=54|35=0|34=50|49=MMMAQAUK|52=20181205-09:46:40.238|56=MA|10=248|8=FIX.4.4|9=54|35=0|34=51|49=MMMAQAUK|52=20181205-09:48:11.237|56=MA|10=248|8=FIX.4.4|9=54|35=0|34=52|49=MMMAQAUK|52=20181205-09:49:41.240|56=MA|10=247|8=FIX.4.4|9=54|35=0|34=53|49=MMMAQAUK|52=20181205-09:51:12.239|56=MA|10=247|8=FIX.4.4|9=54|35=0|34=54|49=MMMAQAUK|52=20181205-09:52:43.226|56=MA|10=249|8=FIX.4.4|9=54|35=0|34=55|49=MMMAQAUK|52=20181205-09:54:13.230|56=MA|10=244|8=FIX.4.4|9=54|35=0|34=56|49=MMMAQAUK|52=20181205-09:55:43.237|56=MA|10=000|8=FIX.4.4|9=54|35=0|34=57|49=MMMAQAUK|52=20181205-09:57:14.229|56=MA|10=002|8=FIX.4.4|9=54|35=0|34=58|49=MMMAQAUK|52=20181205-09:58:44.235|56=MA|10=004|8=FIX.4.4|9=54|35=0|34=59|49=MMMAQAUK|52=20181205-10:00:14.239|56=MA|10=241|8=FIX.4.4|9=54|35=0|34=60|49=MMMAQAUK|52=20181205-10:01:45.227|56=MA|10=235|8=FIX.4.4|9=54|35=0|34=61|49=MMMAQAUK|52=20181205-10:03:16.223|56=MA|10=232|8=FIX.4.4|9=54|35=0|34=62|49=MMMAQAUK|52=20181205-10:04:47.222|56=MA|10=237|8=FIX.4.4|9=54|35=0|34=63|49=MMMAQAUK|52=20181205-10:06:17.222|56=MA|10=237|8=FIX.4.4|9=54|35=0|34=64|49=MMMAQAUK|52=20181205-10:07:47.227|56=MA|10=247|8=FIX.4.4|9=54|35=0|34=65|49=MMMAQAUK|52=20181205-10:09:17.236|56=MA|10=247|8=FIX.4.4|9=54|35=0|34=66|49=MMMAQAUK|52=20181205-10:10:47.245|56=MA|10=243|8=FIX.4.4|9=54|35=0|34=67|49=MMMAQAUK|52=20181205-10:12:17.249|56=MA|10=247|8=FIX.4.4|9=54|35=0|34=68|49=MMMAQAUK|52=20181205-10:13:47.257|56=MA|10=251|8=FIX.4.4|9=54|35=0|34=69|49=MMMAQAUK|52=20181205-10:15:17.260|56=MA|10=245|8=FIX.4.4|9=54|35=0|34=70|49=MMMAQAUK|52=20181205-10:16:48.256|56=MA|10=247|8=FIX.4.4|9=54|35=0|34=71|49=MMMAQAUK|52=20181205-10:18:19.247|56=MA|10=248|8=FIX.4.4|9=54|35=0|34=72|49=MMMAQAUK|52=20181205-10:19:49.249|56=MA|10=255|8=FIX.4.4|9=54|35=0|34=73|49=MMMAQAUK|52=20181205-10:21:19.258|56=MA|10=246|8=FIX.4.4|9=54|35=0|34=74|49=MMMAQAUK|52=20181205-10:22:50.246|56=MA|10=240|8=FIX.4.4|9=54|35=0|34=75|49=MMMAQAUK|52=20181205-10:24:20.248|56=MA|10=242|8=FIX.4.4|9=54|35=0|34=76|49=MMMAQAUK|52=20181205-10:25:50.253|56=MA|10=243|8=FIX.4.4|9=54|35=0|34=77|49=MMMAQAUK|52=20181205-10:27:21.251|56=MA|10=242|8=FIX.4.4|9=54|35=0|34=78|49=MMMAQAUK|52=20181205-10:28:52.244|56=MA|10=250|8=FIX.4.4|9=54|35=0|34=79|49=MMMAQAUK|52=20181205-10:30:22.256|56=MA|10=244|8=FIX.4.4|9=54|35=0|34=80|49=MMMAQAUK|52=20181205-10:31:53.257|56=MA|10=242|8=FIX.4.4|9=54|35=0|34=81|49=MMMAQAUK|52=20181205-10:33:24.243|56=MA|10=238|8=FIX.4.4|9=54|35=0|34=82|49=MMMAQAUK|52=20181205-10:34:55.242|56=MA|10=243|8=FIX.4.4|9=54|35=0|34=83|49=MMMAQAUK|52=20181205-10:36:25.242|56=MA|10=243|8=FIX.4.4|9=54|35=0|34=84|49=MMMAQAUK|52=20181205-10:37:56.243|56=MA|10=250|8=FIX.4.4|9=54|35=0|34=85|49=MMMAQAUK|52=20181205-10:39:27.241|56=MA|10=249|8=FIX.4.4|9=54|35=0|34=86|49=MMMAQAUK|52=20181205-10:40:57.241|56=MA|10=245|8=FIX.4.4|9=54|35=0|34=87|49=MMMAQAUK|52=20181205-10:42:28.241|56=MA|10=246|8=FIX.4.4|9=54|35=0|34=88|49=MMMAQAUK|52=20181205-10:43:59.239|56=MA|10=003|8=FIX.4.4|9=54|35=0|34=89|49=MMMAQAUK|52=20181205-10:45:29.249|56=MA|10=004|8=FIX.4.4|9=54|35=0|34=90|49=MMMAQAUK|52=20181205-10:47:00.244|56=MA|10=238|8=FIX.4.4|9=54|35=0|34=91|49=MMMAQAUK|52=20181205-10:48:31.246|56=MA|10=246|8=FIX.4.4|9=54|35=0|34=92|49=MMMAQAUK|52=20181205-10:50:01.248|56=MA|10=239|8=FIX.4.4|9=54|35=0|34=93|49=MMMAQAUK|52=20181205-10:51:31.250|56=MA|10=237|8=FIX.4.4|9=54|35=0|34=94|49=MMMAQAUK|52=20181205-10:53:02.248|56=MA|10=245|8=FIX.4.4|9=54|35=0|34=95|49=MMMAQAUK|52=20181205-10:54:33.246|56=MA|10=249|8=FIX.4.4|9=54|35=0|34=96|49=MMMAQAUK|52=20181205-10:56:04.239|56=MA|10=252|8=FIX.4.4|9=54|35=0|34=97|49=MMMAQAUK|52=20181205-10:57:35.243|56=MA|10=253|8=FIX.4.4|9=54|35=0|34=98|49=MMMAQAUK|52=20181205-10:59:05.248|56=MA|10=002|8=FIX.4.4|9=54|35=0|34=99|49=MMMAQAUK|52=20181205-11:00:36.246|56=MA|10=248|8=FIX.4.4|9=55|35=0|34=100|49=MMMAQAUK|52=20181205-11:02:07.233|56=MA|10=020|8=FIX.4.4|9=55|35=0|34=101|49=MMMAQAUK|52=20181205-11:03:38.233|56=MA|10=026|8=FIX.4.4|9=55|35=0|34=102|49=MMMAQAUK|52=20181205-11:05:09.231|56=MA|10=025|8=FIX.4.4|9=55|35=0|34=103|49=MMMAQAUK|52=20181205-11:06:40.231|56=MA|10=022|8=FIX.4.4|9=55|35=0|34=104|49=MMMAQAUK|52=20181205-11:08:10.237|56=MA|10=028|8=FIX.4.4|9=55|35=0|34=105|49=MMMAQAUK|52=20181205-11:09:40.240|56=MA|10=027|8=FIX.4.4|9=55|35=0|34=106|49=MMMAQAUK|52=20181205-11:11:11.239|56=MA|10=027|8=FIX.4.4|9=55|35=0|34=107|49=MMMAQAUK|52=20181205-11:12:42.236|56=MA|10=030|8=FIX.4.4|9=55|35=0|34=108|49=MMMAQAUK|52=20181205-11:14:13.229|56=MA|10=033|8=FIX.4.4|9=55|35=0|34=109|49=MMMAQAUK|52=20181205-11:15:43.230|56=MA|10=030|8=FIX.4.4|9=55|35=0|34=110|49=MMMAQAUK|52=20181205-11:17:14.228|56=MA|10=029|8=FIX.4.4|9=55|35=0|34=111|49=MMMAQAUK|52=20181205-11:18:44.228|56=MA|10=034|8=FIX.4.4|9=55|35=0|34=112|49=MMMAQAUK|52=20181205-11:20:14.228|56=MA|10=025|8=FIX.4.4|9=55|35=0|34=113|49=MMMAQAUK|52=20181205-11:21:45.227|56=MA|10=030|8=FIX.4.4|9=55|35=0|34=114|49=MMMAQAUK|52=20181205-11:23:16.226|56=MA|10=030|8=FIX.4.4|9=55|35=0|34=115|49=MMMAQAUK|52=20181205-11:24:46.226|56=MA|10=035|8=FIX.4.4|9=55|35=0|34=116|49=MMMAQAUK|52=20181205-11:26:17.225|56=MA|10=035|8=FIX.4.4|9=55|35=0|34=117|49=MMMAQAUK|52=20181205-11:27:48.225|56=MA|10=041|8=FIX.4.4|9=55|35=0|34=118|49=MMMAQAUK|52=20181205-11:29:19.224|56=MA|10=041|8=FIX.4.4|9=55|35=0|34=119|49=MMMAQAUK|52=20181205-11:30:49.225|56=MA|10=038|8=FIX.4.4|9=55|35=0|34=120|49=MMMAQAUK|52=20181205-11:32:20.223|56=MA|10=019|8=FIX.4.4|9=55|35=0|34=121|49=MMMAQAUK|52=20181205-11:33:50.223|56=MA|10=024|8=FIX.4.4|9=55|35=0|34=122|49=MMMAQAUK|52=20181205-11:35:21.222|56=MA|10=024|8=FIX.4.4|9=55|35=0|34=123|49=MMMAQAUK|52=20181205-11:36:51.222|56=MA|10=029|8=FIX.4.4|9=55|35=0|34=124|49=MMMAQAUK|52=20181205-11:38:22.221|56=MA|10=029|8=FIX.4.4|9=55|35=0|34=125|49=MMMAQAUK|52=20181205-11:39:53.220|56=MA|10=034|8=FIX.4.4|9=55|35=0|34=126|49=MMMAQAUK|52=20181205-11:41:23.220|56=MA|10=025|8=FIX.4.4|9=55|35=0|34=127|49=MMMAQAUK|52=20181205-11:42:54.219|56=MA|10=039|8=FIX.4.4|9=55|35=0|34=128|49=MMMAQAUK|52=20181205-11:44:24.219|56=MA|10=039|8=FIX.4.4|9=55|35=0|34=129|49=MMMAQAUK|52=20181205-11:45:55.219|56=MA|10=045|8=FIX.4.4|9=55|35=0|34=130|49=MMMAQAUK|52=20181205-11:47:26.219|56=MA|10=037|8=FIX.4.4|9=55|35=0|34=131|49=MMMAQAUK|52=20181205-11:48:57.217|56=MA|10=041|8=FIX.4.4|9=55|35=0|34=132|49=MMMAQAUK|52=20181205-11:50:27.217|56=MA|10=032|8=FIX.4.4|9=55|35=0|34=133|49=MMMAQAUK|52=20181205-11:51:57.228|56=MA|10=039|8=FIX.4.4|9=55|35=0|34=134|49=MMMAQAUK|52=20181205-11:53:28.221|56=MA|10=033|8=FIX.4.4|9=55|35=0|34=135|49=MMMAQAUK|52=20181205-11:54:58.221|56=MA|10=038|8=FIX.4.4|9=55|35=0|34=136|49=MMMAQAUK|52=20181205-11:56:29.224|56=MA|10=042|8=FIX.4.4|9=55|35=0|34=137|49=MMMAQAUK|52=20181205-11:57:59.225|56=MA|10=048|8=FIX.4.4|9=55|35=0|34=138|49=MMMAQAUK|52=20181205-11:59:29.232|56=MA|10=046|8=FIX.4.4|9=55|35=0|34=139|49=MMMAQAUK|52=20181205-12:01:00.223|56=MA|10=024|8=FIX.4.4|9=55|35=0|34=140|49=MMMAQAUK|52=20181205-12:02:31.218|56=MA|10=025|8=FIX.4.4|9=55|35=0|34=141|49=MMMAQAUK|52=20181205-12:04:01.218|56=MA|10=025|8=FIX.4.4|9=55|35=0|34=142|49=MMMAQAUK|52=20181205-12:05:31.218|56=MA|10=030|8=FIX.4.4|9=55|35=0|34=143|49=MMMAQAUK|52=20181205-12:07:02.216|56=MA|10=029|8=FIX.4.4|9=55|35=0|34=144|49=MMMAQAUK|52=20181205-12:08:32.216|56=MA|10=034|8=FIX.4.4|9=55|35=0|34=145|49=MMMAQAUK|52=20181205-12:10:03.215|56=MA|10=025|8=FIX.4.4|9=55|35=0|34=146|49=MMMAQAUK|52=20181205-12:11:33.215|56=MA|10=030|8=FIX.4.4|9=55|35=0|34=147|49=MMMAQAUK|52=20181205-12:13:04.214|56=MA|10=030|8=FIX.4.4|9=55|35=0|34=148|49=MMMAQAUK|52=20181205-12:14:34.214|56=MA|10=035|8=FIX.4.4|9=55|35=0|34=149|49=MMMAQAUK|52=20181205-12:16:05.214|56=MA|10=036|8=FIX.4.4|9=55|35=0|34=150|49=MMMAQAUK|52=20181205-12:17:36.213|56=MA|10=032|8=FIX.4.4|9=55|35=0|34=151|49=MMMAQAUK|52=20181205-12:19:06.213|56=MA|10=032|8=FIX.4.4|9=55|35=0|34=152|49=MMMAQAUK|52=20181205-12:20:37.212|56=MA|10=028|8=FIX.4.4|9=55|35=0|34=153|49=MMMAQAUK|52=20181205-12:22:08.212|56=MA|10=029|8=FIX.4.4|9=55|35=0|34=154|49=MMMAQAUK|52=20181205-12:23:38.215|56=MA|10=037|8=FIX.4.4|9=55|35=0|34=155|49=MMMAQAUK|52=20181205-12:25:08.217|56=MA|10=039|8=FIX.4.4|9=55|35=0|34=156|49=MMMAQAUK|52=20181205-12:26:39.210|56=MA|10=038|8=FIX.4.4|9=55|35=0|34=157|49=MMMAQAUK|52=20181205-12:28:09.210|56=MA|10=038|8=FIX.4.4|9=55|35=0|34=158|49=MMMAQAUK|52=20181205-12:29:40.210|56=MA|10=035|8=FIX.4.4|9=55|35=0|34=159|49=MMMAQAUK|52=20181205-12:31:11.209|56=MA|10=035|8=FIX.4.4|9=55|35=0|34=160|49=MMMAQAUK|52=20181205-12:32:42.208|56=MA|10=031|8=FIX.4.4|9=55|35=0|34=161|49=MMMAQAUK|52=20181205-12:34:12.208|56=MA|10=031|8=FIX.4.4|9=55|35=0|34=162|49=MMMAQAUK|52=20181205-12:35:42.208|56=MA|10=036|8=FIX.4.4|9=55|35=0|34=163|49=MMMAQAUK|52=20181205-12:37:12.208|56=MA|10=036|8=FIX.4.4|9=55|35=0|34=164|49=MMMAQAUK|52=20181205-12:38:43.207|56=MA|10=041|8=FIX.4.4|9=55|35=0|34=165|49=MMMAQAUK|52=20181205-12:40:13.212|56=MA|10=028|8=FIX.4.4|9=55|35=0|34=166|49=MMMAQAUK|52=20181205-12:41:43.214|56=MA|10=035|8=FIX.4.4|9=55|35=0|34=167|49=MMMAQAUK|52=20181205-12:43:14.211|56=MA|10=033|8=FIX.4.4|9=55|35=0|34=168|49=MMMAQAUK|52=20181205-12:44:45.215|56=MA|10=043|8=FIX.4.4|9=55|35=0|34=169|49=MMMAQAUK|52=20181205-12:46:16.215|56=MA|10=044|8=FIX.4.4|9=55|35=0|34=170|49=MMMAQAUK|52=20181205-12:47:47.210|56=MA|10=036|8=FIX.4.4|9=55|35=0|34=171|49=MMMAQAUK|52=20181205-12:49:17.217|56=MA|10=043|8=FIX.4.4|9=55|35=0|34=172|49=MMMAQAUK|52=20181205-12:50:48.209|56=MA|10=041|8=FIX.4.4|9=55|35=0|34=173|49=MMMAQAUK|52=20181205-12:52:19.205|56=MA|10=038|8=FIX.4.4|9=55|35=0|34=174|49=MMMAQAUK|52=20181205-12:53:49.212|56=MA|10=041|8=FIX.4.4|9=55|35=0|34=175|49=MMMAQAUK|52=20181205-12:55:20.210|56=MA|10=031|8=FIX.4.4|9=55|35=0|34=176|49=MMMAQAUK|52=20181205-12:56:51.208|56=MA|10=044|8=FIX.4.4|9=55|35=0|34=177|49=MMMAQAUK|52=20181205-12:58:22.200|56=MA|10=037|8=FIX.4.4|9=55|35=0|34=178|49=MMMAQAUK|52=20181205-12:59:52.200|56=MA|10=042|8=FIX.4.4|9=55|35=0|34=179|49=MMMAQAUK|52=20181205-13:01:22.211|56=MA|10=030|8=FIX.4.4|9=55|35=0|34=180|49=MMMAQAUK|52=20181205-13:02:53.201|56=MA|10=026|8=FIX.4.4|9=55|35=0|34=181|49=MMMAQAUK|52=20181205-13:04:23.207|56=MA|10=032|8=FIX.4.4|9=55|35=0|34=182|49=MMMAQAUK|52=20181205-13:05:54.200|56=MA|10=031|8=FIX.4.4|9=55|35=0|34=183|49=MMMAQAUK|52=20181205-13:07:24.205|56=MA|10=036|8=FIX.4.4|9=55|35=0|34=184|49=MMMAQAUK|52=20181205-13:08:55.200|56=MA|10=037|8=FIX.4.4|9=55|35=0|34=185|49=MMMAQAUK|52=20181205-13:10:25.207|56=MA|10=035|8=FIX.4.4|9=55|35=0|34=186|49=MMMAQAUK|52=20181205-13:11:56.199|56=MA|10=051|8=FIX.4.4|9=55|35=0|34=187|49=MMMAQAUK|52=20181205-13:13:26.204|56=MA|10=038|8=FIX.4.4|9=55|35=0|34=188|49=MMMAQAUK|52=20181205-13:14:57.196|56=MA|10=054|8=FIX.4.4|9=55|35=0|34=189|49=MMMAQAUK|52=20181205-13:16:27.201|56=MA|10=041|8=FIX.4.4|9=55|35=0|34=190|49=MMMAQAUK|52=20181205-13:17:57.202|56=MA|10=038|8=FIX.4.4|9=55|35=0|34=191|49=MMMAQAUK|52=20181205-13:19:28.209|56=MA|10=046|8=FIX.4.4|9=55|35=0|34=192|49=MMMAQAUK|52=20181205-13:20:59.198|56=MA|10=050|8=FIX.4.4|9=55|35=0|34=193|49=MMMAQAUK|52=20181205-13:22:30.194|56=MA|10=038|8=FIX.4.4|9=55|35=0|34=194|49=MMMAQAUK|52=20181205-13:24:01.192|56=MA|10=037|8=FIX.4.4|9=55|35=0|34=195|49=MMMAQAUK|52=20181205-13:25:31.192|56=MA|10=042|8=FIX.4.4|9=55|35=0|34=196|49=MMMAQAUK|52=20181205-13:27:02.191|56=MA|10=042|8=FIX.4.4|9=55|35=0|34=197|49=MMMAQAUK|52=20181205-13:28:33.190|56=MA|10=047|8=FIX.4.4|9=55|35=0|34=198|49=MMMAQAUK|52=20181205-13:30:03.190|56=MA|10=038|8=FIX.4.4|9=55|35=0|34=199|49=MMMAQAUK|52=20181205-13:31:34.188|56=MA|10=051|8=FIX.4.4|9=55|35=0|34=200|49=MMMAQAUK|52=20181205-13:33:04.188|56=MA|10=033|8=FIX.4.4|9=55|35=0|34=201|49=MMMAQAUK|52=20181205-13:34:34.189|56=MA|10=039|8=FIX.4.4|9=55|35=0|34=202|49=MMMAQAUK|52=20181205-13:36:05.187|56=MA|10=038|8=FIX.4.4|9=55|35=0|34=203|49=MMMAQAUK|52=20181205-13:37:35.198|56=MA|10=045|8=FIX.4.4|9=55|35=0|34=204|49=MMMAQAUK|52=20181205-13:39:06.198|56=MA|10=046|8=FIX.4.4|9=55|35=0|34=205|49=MMMAQAUK|52=20181205-13:40:37.196|56=MA|10=041|8=FIX.4.4|9=55|35=0|34=206|49=MMMAQAUK|52=20181205-13:42:08.185|56=MA|10=040|8=FIX.4.4|9=55|35=0|34=207|49=MMMAQAUK|52=20181205-13:43:39.184|56=MA|10=045|8=FIX.4.4|9=55|35=0|34=208|49=MMMAQAUK|52=20181205-13:45:09.184|56=MA|10=045|8=FIX.4.4|9=55|35=0|34=209|49=MMMAQAUK|52=20181205-13:46:39.184|56=MA|10=050|8=FIX.4.4|9=55|35=0|34=210|49=MMMAQAUK|52=20181205-13:48:09.184|56=MA|10=041|8=FIX.4.4|9=55|35=0|34=211|49=MMMAQAUK|52=20181205-13:49:39.188|56=MA|10=050|8=FIX.4.4|9=55|35=0|34=212|49=MMMAQAUK|52=20181205-13:51:10.184|56=MA|10=029|8=FIX.4.4|9=55|35=0|34=213|49=MMMAQAUK|52=20181205-13:52:41.191|56=MA|10=033|8=FIX.4.4|9=55|35=0|34=214|49=MMMAQAUK|52=20181205-13:54:12.182|56=MA|10=034|8=FIX.4.4|9=55|35=0|34=215|49=MMMAQAUK|52=20181205-13:55:42.182|56=MA|10=039|8=FIX.4.4|9=55|35=0|34=216|49=MMMAQAUK|52=20181205-13:57:13.182|56=MA|10=040|8=FIX.4.4|9=55|35=0|34=217|49=MMMAQAUK|52=20181205-13:58:43.191|56=MA|10=045|8=FIX.4.4|9=55|35=0|34=218|49=MMMAQAUK|52=20181205-14:00:14.182|56=MA|10=032|8=FIX.4.4|9=55|35=0|34=219|49=MMMAQAUK|52=20181205-14:01:45.180|56=MA|10=036|8=FIX.4.4|9=55|35=0|34=220|49=MMMAQAUK|52=20181205-14:03:15.192|56=MA|10=030|8=FIX.4.4|9=55|35=0|34=221|49=MMMAQAUK|52=20181205-14:04:46.192|56=MA|10=036|8=FIX.4.4|9=55|35=0|34=222|49=MMMAQAUK|52=20181205-14:06:17.192|56=MA|10=037|8=FIX.4.4|9=55|35=0|34=223|49=MMMAQAUK|52=20181205-14:07:48.180|56=MA|10=040|8=FIX.4.4|9=55|35=0|34=224|49=MMMAQAUK|52=20181205-14:09:18.180|56=MA|10=040|8=FIX.4.4|9=55|35=0|34=225|49=MMMAQAUK|52=20181205-14:10:49.177|56=MA|10=043|8=FIX.4.4|9=55|35=0|34=226|49=MMMAQAUK|52=20181205-14:12:19.191|56=MA|10=039|8=FIX.4.4|9=55|35=0|34=227|49=MMMAQAUK|52=20181205-14:13:50.190|56=MA|10=035|8=FIX.4.4|9=55|35=0|34=228|49=MMMAQAUK|52=20181205-14:15:21.178|56=MA|10=042|8=FIX.4.4|9=55|35=0|34=229|49=MMMAQAUK|52=20181205-14:16:52.174|56=MA|10=044|8=FIX.4.4|9=55|35=0|34=230|49=MMMAQAUK|52=20181205-14:18:22.188|56=MA|10=040|8=FIX.4.4|9=55|35=0|34=231|49=MMMAQAUK|52=20181205-14:19:53.173|56=MA|10=040|8=FIX.4.4|9=55|35=0|34=232|49=MMMAQAUK|52=20181205-14:21:23.187|56=MA|10=036|8=FIX.4.4|9=55|35=0|34=233|49=MMMAQAUK|52=20181205-14:22:53.187|56=MA|10=041|8=FIX.4.4|9=55|35=0|34=234|49=MMMAQAUK|52=20181205-14:24:24.175|56=MA|10=039|8=FIX.4.4|9=55|35=0|34=235|49=MMMAQAUK|52=20181205-14:25:55.172|56=MA|10=042|8=FIX.4.4|9=55|35=0|34=236|49=MMMAQAUK|52=20181205-14:27:26.171|56=MA|10=042|8=FIX.4.4|9=55|35=0|34=237|49=MMMAQAUK|52=20181205-14:28:56.172|56=MA|10=048|8=FIX.4.4|9=55|35=0|34=238|49=MMMAQAUK|52=20181205-14:30:27.170|56=MA|10=038|8=FIX.4.4|9=55|35=0|34=239|49=MMMAQAUK|52=20181205-14:31:57.171|56=MA|10=044|8=FIX.4.4|9=55|35=0|34=240|49=MMMAQAUK|52=20181205-14:33:28.170|56=MA|10=035|8=FIX.4.4|9=55|35=0|34=241|49=MMMAQAUK|52=20181205-14:34:58.170|56=MA|10=040|8=FIX.4.4|9=55|35=0|34=242|49=MMMAQAUK|52=20181205-14:36:29.169|56=MA|10=049|8=FIX.4.4|9=55|35=0|34=243|49=MMMAQAUK|52=20181205-14:37:59.180|56=MA|10=047|8=FIX.4.4|9=55|35=0|34=244|49=MMMAQAUK|52=20181205-14:39:30.167|56=MA|10=044|8=FIX.4.4|9=55|35=0|34=245|49=MMMAQAUK|52=20181205-14:41:00.170|56=MA|10=029|8=FIX.4.4|9=55|35=0|34=246|49=MMMAQAUK|52=20181205-14:42:30.174|56=MA|10=038|8=FIX.4.4|9=55|35=0|34=247|49=MMMAQAUK|52=20181205-14:44:00.178|56=MA|10=042|8=FIX.4.4|9=55|35=0|34=248|49=MMMAQAUK|52=20181205-14:45:31.172|56=MA|10=042|8=FIX.4.4|9=55|35=0|34=249|49=MMMAQAUK|52=20181205-14:47:02.166|56=MA|10=046|8=FIX.4.4|9=55|35=0|34=250|49=MMMAQAUK|52=20181205-14:48:32.179|56=MA|10=046|8=FIX.4.4|9=55|35=0|34=251|49=MMMAQAUK|52=20181205-14:50:03.179|56=MA|10=038|8=FIX.4.4|9=55|35=0|34=252|49=MMMAQAUK|52=20181205-14:51:34.177|56=MA|10=042|8=FIX.4.4|9=55|35=0|34=253|49=MMMAQAUK|52=20181205-14:53:05.172|56=MA|10=038|8=FIX.4.4|9=55|35=0|34=254|49=MMMAQAUK|52=20181205-14:54:35.176|56=MA|10=047|8=FIX.4.4|9=55|35=0|34=255|49=MMMAQAUK|52=20181205-14:56:06.161|56=MA|10=042|8=FIX.4.4|9=55|35=0|34=256|49=MMMAQAUK|52=20181205-14:57:36.173|56=MA|10=050|8=FIX.4.4|9=55|35=0|34=257|49=MMMAQAUK|52=20181205-14:59:07.163|56=MA|10=050|8=FIX.4.4|9=55|35=0|34=258|49=MMMAQAUK|52=20181205-15:00:37.174|56=MA|10=043|8=FIX.4.4|9=55|35=0|34=259|49=MMMAQAUK|52=20181205-15:02:08.160|56=MA|10=039|8=FIX.4.4|9=55|35=0|34=260|49=MMMAQAUK|52=20181205-15:03:39.160|56=MA|10=036|8=FIX.4.4|9=55|35=0|34=261|49=MMMAQAUK|52=20181205-15:05:09.165|56=MA|10=041|8=FIX.4.4|9=55|35=0|34=262|49=MMMAQAUK|52=20181205-15:06:39.172|56=MA|10=044|8=FIX.4.4|9=55|35=0|34=263|49=MMMAQAUK|52=20181205-15:08:10.159|56=MA|10=041|8=FIX.4.4|9=55|35=0|34=264|49=MMMAQAUK|52=20181205-15:09:40.159|56=MA|10=046|8=FIX.4.4|9=182|35=D|34=265|49=MMMAQAUK|52=20181205-15:10:39.733|56=MA|11=MMAD041218-0|453=1|448=MMMAQAUK|447=C|452=11|55=NA|48=US12618GAA13|22=4|54=2|60=20181205-15:10:39.733|38=1000000|40=1|423=1|10=110|8=FIX.4.4|9=55|35=0|34=266|49=MMMAQAUK|52=20181205-15:12:10.173|56=MA|10=035|8=FIX.4.4|9=55|35=0|34=267|49=MMMAQAUK|52=20181205-15:13:40.421|56=MA|10=036|8=FIX.4.4|9=55|35=0|34=268|49=MMMAQAUK|52=20181205-15:15:11.161|56=MA|10=038|8=FIX.4.4|9=55|35=0|34=269|49=MMMAQAUK|52=20181205-15:16:41.168|56=MA|10=050|8=FIX.4.4|9=55|35=0|34=270|49=MMMAQAUK|52=20181205-15:18:11.418|56=MA|10=039|8=FIX.4.4|9=55|35=0|34=271|49=MMMAQAUK|52=20181205-15:19:42.155|56=MA|10=043|8=FIX.4.4|9=55|35=0|34=272|49=MMMAQAUK|52=20181205-15:21:12.161|56=MA|10=031|8=FIX.4.4|9=55|35=5|34=273|49=MMMAQAUK|52=20181205-15:21:15.166|56=MA|10=045|8=FIX.4.4|9=82|35=A|34=1|49=MMMAQAUK|52=20181206-09:12:33.756|56=MA|98=0|108=90|95=8|96=3.0.0rc4|10=127|