8=FIX.4.4|9=86|35=A|34=1|49=MMMAQA|52=20200617-16:05:56.991|56=MA|98=0|108=90|95=8|96=3.0.0rc5|141=Y|10=021|8=FIX.4.4|9=181|35=D|34=2|49=MMMAQA|52=20200617-16:06:51.864|56=MA|11=MMADJB260619-1177|453=1|448=MMMAQA|447=C|452=11|55=NA|48=XS0991090175|22=4|54=2|60=20200617-16:06:51.864|38=1000000|40=1|423=1|10=219|8=FIX.4.4|9=51|35=0|34=3|49=MMMAQA|52=20200617-16:08:21.991|56=MA|10=035|8=FIX.4.4|9=51|35=0|34=4|49=MMMAQA|52=20200617-16:09:51.991|56=MA|10=040|8=FIX.4.4|9=51|35=0|34=5|49=MMMAQA|52=20200617-16:11:21.991|56=MA|10=031|8=FIX.4.4|9=51|35=0|34=6|49=MMMAQA|52=20200617-16:12:52.991|56=MA|10=037|8=FIX.4.4|9=51|35=0|34=7|49=MMMAQA|52=20200617-16:14:22.992|56=MA|10=038|8=FIX.4.4|9=51|35=0|34=8|49=MMMAQA|52=20200617-16:15:53.928|56=MA|10=043|8=FIX.4.4|9=51|35=0|34=9|49=MMMAQA|52=20200617-16:17:23.992|56=MA|10=044|8=FIX.4.4|9=52|35=0|34=10|49=MMMAQA|52=20200617-16:18:54.927|56=MA|10=088|8=FIX.4.4|9=52|35=0|34=11|49=MMMAQA|52=20200617-16:20:24.990|56=MA|10=079|8=FIX.4.4|9=52|35=0|34=12|49=MMMAQA|52=20200617-16:21:54.990|56=MA|10=084|8=FIX.4.4|9=52|35=0|34=13|49=MMMAQA|52=20200617-16:23:25.991|56=MA|10=086|8=FIX.4.4|9=52|35=0|34=14|49=MMMAQA|52=20200617-16:24:56.938|56=MA|10=093|8=FIX.4.4|9=52|35=0|34=15|49=MMMAQA|52=20200617-16:26:26.990|56=MA|10=091|8=FIX.4.4|9=52|35=0|34=16|49=MMMAQA|52=20200617-16:27:57.990|56=MA|10=097|8=FIX.4.4|9=52|35=0|34=17|49=MMMAQA|52=20200617-16:29:27.990|56=MA|10=097|8=FIX.4.4|9=52|35=0|34=18|49=MMMAQA|52=20200617-16:30:57.990|56=MA|10=093|8=FIX.4.4|9=52|35=0|34=19|49=MMMAQA|52=20200617-16:32:28.989|56=MA|10=102|8=FIX.4.4|9=52|35=0|34=20|49=MMMAQA|52=20200617-16:33:58.989|56=MA|10=098|8=FIX.4.4|9=52|35=0|34=21|49=MMMAQA|52=20200617-16:35:28.989|56=MA|10=098|8=FIX.4.4|9=52|35=0|34=22|49=MMMAQA|52=20200617-16:36:58.989|56=MA|10=103|8=FIX.4.4|9=52|35=0|34=23|49=MMMAQA|52=20200617-16:38:28.989|56=MA|10=103|8=FIX.4.4|9=52|35=0|34=24|49=MMMAQA|52=20200617-16:39:58.989|56=MA|10=108|8=FIX.4.4|9=52|35=0|34=25|49=MMMAQA|52=20200617-16:41:28.989|56=MA|10=099|8=FIX.4.4|9=52|35=0|34=26|49=MMMAQA|52=20200617-16:42:58.989|56=MA|10=104|8=FIX.4.4|9=52|35=0|34=27|49=MMMAQA|52=20200617-16:44:28.990|56=MA|10=096|8=FIX.4.4|9=52|35=0|34=28|49=MMMAQA|52=20200617-16:45:59.989|56=MA|10=110|8=FIX.4.4|9=52|35=0|34=29|49=MMMAQA|52=20200617-16:47:29.990|56=MA|10=102|8=FIX.4.4|9=52|35=0|34=30|49=MMMAQA|52=20200617-16:49:00.988|56=MA|10=092|8=FIX.4.4|9=52|35=0|34=31|49=MMMAQA|52=20200617-16:50:30.989|56=MA|10=089|8=FIX.4.4|9=52|35=0|34=32|49=MMMAQA|52=20200617-16:52:01.989|56=MA|10=090|8=FIX.4.4|9=52|35=0|34=33|49=MMMAQA|52=20200617-16:53:31.989|56=MA|10=095|8=FIX.4.4|9=52|35=0|34=34|49=MMMAQA|52=20200617-16:55:01.989|56=MA|10=095|8=FIX.4.4|9=52|35=0|34=35|49=MMMAQA|52=20200617-16:56:32.988|56=MA|10=100|8=FIX.4.4|9=52|35=0|34=36|49=MMMAQA|52=20200617-16:58:02.988|56=MA|10=100|8=FIX.4.4|9=52|35=0|34=37|49=MMMAQA|52=20200617-16:59:32.989|56=MA|10=106|8=FIX.4.4|9=52|35=0|34=38|49=MMMAQA|52=20200617-17:01:03.988|56=MA|10=092|8=FIX.4.4|9=52|35=0|34=39|49=MMMAQA|52=20200617-17:02:33.988|56=MA|10=097|8=FIX.4.4|9=52|35=0|34=40|49=MMMAQA|52=20200617-17:04:03.989|56=MA|10=089|8=FIX.4.4|9=52|35=0|34=41|49=MMMAQA|52=20200617-17:05:34.988|56=MA|10=094|8=FIX.4.4|9=52|35=0|34=42|49=MMMAQA|52=20200617-17:07:05.988|56=MA|10=095|8=FIX.4.4|9=52|35=0|34=43|49=MMMAQA|52=20200617-17:08:35.988|56=MA|10=100|8=FIX.4.4|9=52|35=0|34=44|49=MMMAQA|52=20200617-17:10:06.987|56=MA|10=091|8=FIX.4.4|9=52|35=0|34=45|49=MMMAQA|52=20200617-17:11:36.987|56=MA|10=096|8=FIX.4.4|9=52|35=0|34=46|49=MMMAQA|52=20200617-17:13:06.987|56=MA|10=096|8=FIX.4.4|9=52|35=0|34=47|49=MMMAQA|52=20200617-17:14:36.988|56=MA|10=102|8=FIX.4.4|9=52|35=0|34=48|49=MMMAQA|52=20200617-17:16:06.988|56=MA|10=102|8=FIX.4.4|9=52|35=0|34=49|49=MMMAQA|52=20200617-17:17:37.987|56=MA|10=107|8=FIX.4.4|9=52|35=0|34=50|49=MMMAQA|52=20200617-17:19:07.988|56=MA|10=099|8=FIX.4.4|9=52|35=0|34=51|49=MMMAQA|52=20200617-17:20:37.988|56=MA|10=095|8=FIX.4.4|9=52|35=0|34=52|49=MMMAQA|52=20200617-17:22:08.987|56=MA|10=095|8=FIX.4.4|9=52|35=0|34=53|49=MMMAQA|52=20200617-17:23:38.988|56=MA|10=101|8=FIX.4.4|9=52|35=0|34=54|49=MMMAQA|52=20200617-17:25:09.988|56=MA|10=102|8=FIX.4.4|9=52|35=0|34=55|49=MMMAQA|52=20200617-17:26:40.988|56=MA|10=099|8=FIX.4.4|9=52|35=0|34=56|49=MMMAQA|52=20200617-17:28:11.988|56=MA|10=100|8=FIX.4.4|9=52|35=0|34=57|49=MMMAQA|52=20200617-17:29:42.986|56=MA|10=104|8=FIX.4.4|9=52|35=0|34=58|49=MMMAQA|52=20200617-17:31:12.986|56=MA|10=095|8=FIX.4.4|9=52|35=0|34=59|49=MMMAQA|52=20200617-17:32:42.986|56=MA|10=100|8=FIX.4.4|9=52|35=0|34=60|49=MMMAQA|52=20200617-17:34:12.986|56=MA|10=091|8=FIX.4.4|9=52|35=0|34=61|49=MMMAQA|52=20200617-17:35:42.986|56=MA|10=096|8=FIX.4.4|9=52|35=0|34=62|49=MMMAQA|52=20200617-17:37:12.987|56=MA|10=097|8=FIX.4.4|9=52|35=0|34=63|49=MMMAQA|52=20200617-17:38:43.988|56=MA|10=104|8=FIX.4.4|9=52|35=0|34=64|49=MMMAQA|52=20200617-17:40:14.986|56=MA|10=094|8=FIX.4.4|9=52|35=0|34=65|49=MMMAQA|52=20200617-17:41:44.986|56=MA|10=099|8=FIX.4.4|9=52|35=0|34=66|49=MMMAQA|52=20200617-17:43:14.987|56=MA|10=100|8=FIX.4.4|9=52|35=0|34=67|49=MMMAQA|52=20200617-17:44:45.987|56=MA|10=106|8=FIX.4.4|9=52|35=0|34=68|49=MMMAQA|52=20200617-17:46:16.986|56=MA|10=106|8=FIX.4.4|9=52|35=0|34=69|49=MMMAQA|52=20200617-17:47:46.987|56=MA|10=112|8=FIX.4.4|9=52|35=0|34=70|49=MMMAQA|52=20200617-17:49:17.985|56=MA|10=102|8=FIX.4.4|9=52|35=0|34=71|49=MMMAQA|52=20200617-17:50:47.985|56=MA|10=098|8=FIX.4.4|9=52|35=0|34=72|49=MMMAQA|52=20200617-17:52:17.986|56=MA|10=099|8=FIX.4.4|9=52|35=0|34=73|49=MMMAQA|52=20200617-17:53:47.986|56=MA|10=104|8=FIX.4.4|9=52|35=0|34=74|49=MMMAQA|52=20200617-17:55:18.986|56=MA|10=105|8=FIX.4.4|9=52|35=0|34=75|49=MMMAQA|52=20200617-17:56:48.986|56=MA|10=110|8=FIX.4.4|9=52|35=0|34=76|49=MMMAQA|52=20200617-17:58:19.987|56=MA|10=112|8=FIX.4.4|9=52|35=0|34=77|49=MMMAQA|52=20200617-17:59:50.986|56=MA|10=108|8=FIX.4.4|9=52|35=0|34=78|49=MMMAQA|52=20200617-18:01:20.986|56=MA|10=094|8=FIX.4.4|9=52|35=0|34=79|49=MMMAQA|52=20200617-18:02:50.986|56=MA|10=099|8=FIX.4.4|9=52|35=0|34=80|49=MMMAQA|52=20200617-18:04:20.986|56=MA|10=090|8=FIX.4.4|9=52|35=0|34=81|49=MMMAQA|52=20200617-18:05:50.986|56=MA|10=095|8=FIX.4.4|9=52|35=0|34=82|49=MMMAQA|52=20200617-18:07:20.986|56=MA|10=095|8=FIX.4.4|9=52|35=0|34=83|49=MMMAQA|52=20200617-18:08:50.986|56=MA|10=100|8=FIX.4.4|9=52|35=0|34=84|49=MMMAQA|52=20200617-18:10:21.986|56=MA|10=092|8=FIX.4.4|9=52|35=0|34=85|49=MMMAQA|52=20200617-18:11:51.986|56=MA|10=097|8=FIX.4.4|9=52|35=0|34=86|49=MMMAQA|52=20200617-18:13:21.987|56=MA|10=098|8=FIX.4.4|9=52|35=0|34=87|49=MMMAQA|52=20200617-18:14:52.987|56=MA|10=104|8=FIX.4.4|9=52|35=0|34=88|49=MMMAQA|52=20200617-18:16:23.985|56=MA|10=103|8=FIX.4.4|9=52|35=0|34=89|49=MMMAQA|52=20200617-18:17:53.985|56=MA|10=108|8=FIX.4.4|9=52|35=0|34=90|49=MMMAQA|52=20200617-18:19:23.985|56=MA|10=099|8=FIX.4.4|9=52|35=0|34=91|49=MMMAQA|52=20200617-18:20:53.985|56=MA|10=095|8=FIX.4.4|9=52|35=0|34=92|49=MMMAQA|52=20200617-18:22:23.985|56=MA|10=095|8=FIX.4.4|9=52|35=0|34=93|49=MMMAQA|52=20200617-18:23:53.986|56=MA|10=101|8=FIX.4.4|9=52|35=0|34=94|49=MMMAQA|52=20200617-18:25:24.985|56=MA|10=101|8=FIX.4.4|9=52|35=0|34=95|49=MMMAQA|52=20200617-18:26:54.985|56=MA|10=106|8=FIX.4.4|9=52|35=0|34=96|49=MMMAQA|52=20200617-18:28:25.985|56=MA|10=107|8=FIX.4.4|9=52|35=0|34=97|49=MMMAQA|52=20200617-18:29:55.985|56=MA|10=112|8=FIX.4.4|9=52|35=0|34=98|49=MMMAQA|52=20200617-18:31:25.985|56=MA|10=103|8=FIX.4.4|9=52|35=0|34=99|49=MMMAQA|52=20200617-18:32:55.985|56=MA|10=108|8=FIX.4.4|9=53|35=0|34=100|49=MMMAQA|52=20200617-18:34:25.985|56=MA|10=139|8=FIX.4.4|9=53|35=0|34=101|49=MMMAQA|52=20200617-18:35:56.985|56=MA|10=145|8=FIX.4.4|9=53|35=0|34=102|49=MMMAQA|52=20200617-18:37:26.985|56=MA|10=145|8=FIX.4.4|9=53|35=0|34=103|49=MMMAQA|52=20200617-18:38:56.985|56=MA|10=150|8=FIX.4.4|9=53|35=0|34=104|49=MMMAQA|52=20200617-18:40:26.985|56=MA|10=141|8=FIX.4.4|9=53|35=0|34=105|49=MMMAQA|52=20200617-18:41:56.985|56=MA|10=146|8=FIX.4.4|9=53|35=0|34=106|49=MMMAQA|52=20200617-18:43:26.985|56=MA|10=146|8=FIX.4.4|9=53|35=0|34=107|49=MMMAQA|52=20200617-18:44:56.986|56=MA|10=152|8=FIX.4.4|9=53|35=0|34=108|49=MMMAQA|52=20200617-18:46:26.986|56=MA|10=152|8=FIX.4.4|9=53|35=0|34=109|49=MMMAQA|52=20200617-18:47:57.985|56=MA|10=157|8=FIX.4.4|9=53|35=0|34=110|49=MMMAQA|52=20200617-18:49:27.985|56=MA|10=148|8=FIX.4.4|9=53|35=0|34=111|49=MMMAQA|52=20200617-18:50:58.984|56=MA|10=144|8=FIX.4.4|9=53|35=0|34=112|49=MMMAQA|52=20200617-18:52:28.984|56=MA|10=144|8=FIX.4.4|9=53|35=0|34=113|49=MMMAQA|52=20200617-18:53:58.985|56=MA|10=150|8=FIX.4.4|9=53|35=0|34=114|49=MMMAQA|52=20200617-18:55:28.985|56=MA|10=150|8=FIX.4.4|9=53|35=0|34=115|49=MMMAQA|52=20200617-18:56:58.985|56=MA|10=155|8=FIX.4.4|9=53|35=0|34=116|49=MMMAQA|52=20200617-18:58:28.985|56=MA|10=155|8=FIX.4.4|9=53|35=0|34=117|49=MMMAQA|52=20200617-18:59:59.985|56=MA|10=161|8=FIX.4.4|9=53|35=0|34=118|49=MMMAQA|52=20200617-19:01:30.984|56=MA|10=138|8=FIX.4.4|9=53|35=0|34=119|49=MMMAQA|52=20200617-19:03:00.986|56=MA|10=140|8=FIX.4.4|9=53|35=0|34=120|49=MMMAQA|52=20200617-19:04:31.984|56=MA|10=135|8=FIX.4.4|9=53|35=0|34=121|49=MMMAQA|52=20200617-19:06:01.984|56=MA|10=135|8=FIX.4.4|9=53|35=0|34=122|49=MMMAQA|52=20200617-19:07:31.984|56=MA|10=140|8=FIX.4.4|9=53|35=0|34=123|49=MMMAQA|52=20200617-19:09:01.985|56=MA|10=141|8=FIX.4.4|9=53|35=5|34=124|49=MMMAQA|52=20200617-19:09:58.010|56=MA|10=138|8=FIX.4.4|9=86|35=A|34=1|49=MMMAQA|52=20200626-17:02:14.811|56=MA|98=0|108=90|95=8|96=3.0.0rc5|141=Y|10=004|8=FIX.4.4|9=615|35=E|34=2|49=MMMAQA|52=20200626-17:02:57.535|56=MA|66=MMAD-FIX44-ListID-071218-1177|394=2|68=5|73=5|11=FIX44-List-ClOrdID-1178|22=4|38=100000|48=XS0542534192|54=1|55=[N/A/]|67=1|423=1|453=1|448=MMMAQA|447=C|452=11|11=FIX44-List-ClOrdID-1179|22=4|38=120000|48=FR0013241536|54=1|55=[N/A]|67=2|11=FIX44-List-ClOrdID-1180|22=4|38=130000|48=DE000HLB4D56|54=1|55=[N/A/]|67=1|453=1|448=MMMAQA|447=C|452=11|11=FIX44-List-ClOrdID-1181|22=4|38=250000|48=XS0987936076|54=1|55=[N/A/]|67=1|453=1|448=MMMAQA|447=C|452=11|11=FIX44-List-ClOrdID-1182|22=4|38=350000|48=XS0401048102|54=1|55=[N/A/]|67=1|453=1|448=MMMAQA|447=C|452=11|10=065|8=FIX.4.4|9=181|35=D|34=3|49=MMMAQA|52=20200626-17:03:32.505|56=MA|11=MMADJB260619-1183|453=1|448=MMMAQA|447=C|452=11|55=NA|48=XS0991090175|22=4|54=2|60=20200626-17:03:32.505|38=1000000|40=1|423=1|10=195|8=FIX.4.4|9=51|35=0|34=4|49=MMMAQA|52=20200626-17:05:02.783|56=MA|10=032|8=FIX.4.4|9=51|35=0|34=5|49=MMMAQA|52=20200626-17:06:33.325|56=MA|10=030|8=FIX.4.4|9=51|35=0|34=6|49=MMMAQA|52=20200626-17:08:03.783|56=MA|10=038|8=FIX.4.4|9=51|35=0|34=7|49=MMMAQA|52=20200626-17:09:33.784|56=MA|10=044|8=FIX.4.4|9=51|35=0|34=8|49=MMMAQA|52=20200626-17:11:04.375|56=MA|10=032|8=FIX.4.4|9=51|35=0|34=9|49=MMMAQA|52=20200626-17:12:34.782|56=MA|10=039|8=FIX.4.4|9=52|35=0|34=10|49=MMMAQA|52=20200626-17:14:04.782|56=MA|10=079|8=FIX.4.4|9=52|35=0|34=11|49=MMMAQA|52=20200626-17:15:34.783|56=MA|10=085|8=FIX.4.4|9=52|35=0|34=12|49=MMMAQA|52=20200626-17:17:04.783|56=MA|10=085|8=FIX.4.4|9=52|35=0|34=13|49=MMMAQA|52=20200626-17:18:34.783|56=MA|10=090|8=FIX.4.4|9=52|35=0|34=14|49=MMMAQA|52=20200626-17:20:04.784|56=MA|10=082|8=FIX.4.4|9=52|35=0|34=15|49=MMMAQA|52=20200626-17:21:35.782|56=MA|10=086|8=FIX.4.4|9=52|35=0|34=16|49=MMMAQA|52=20200626-17:23:05.784|56=MA|10=088|8=FIX.4.4|9=52|35=0|34=17|49=MMMAQA|52=20200626-17:24:36.782|56=MA|10=092|8=FIX.4.4|9=52|35=0|34=18|49=MMMAQA|52=20200626-17:26:06.782|56=MA|10=092|8=FIX.4.4|9=52|35=0|34=19|49=MMMAQA|52=20200626-17:27:36.782|56=MA|10=097|8=FIX.4.4|9=52|35=0|34=20|49=MMMAQA|52=20200626-17:29:06.783|56=MA|10=089|8=FIX.4.4|9=52|35=0|34=21|49=MMMAQA|52=20200626-17:30:36.783|56=MA|10=085|8=FIX.4.4|9=52|35=0|34=22|49=MMMAQA|52=20200626-17:32:07.783|56=MA|10=086|8=FIX.4.4|9=52|35=0|34=23|49=MMMAQA|52=20200626-17:33:38.784|56=MA|10=093|8=FIX.4.4|9=52|35=0|34=24|49=MMMAQA|52=20200626-17:35:09.782|56=MA|10=092|8=FIX.4.4|9=52|35=0|34=25|49=MMMAQA|52=20200626-17:36:39.782|56=MA|10=097|8=FIX.4.4|9=52|35=0|34=26|49=MMMAQA|52=20200626-17:38:09.782|56=MA|10=097|8=FIX.4.4|9=52|35=0|34=27|49=MMMAQA|52=20200626-17:39:39.782|56=MA|10=102|8=FIX.4.4|9=52|35=0|34=28|49=MMMAQA|52=20200626-17:41:09.782|56=MA|10=093|8=FIX.4.4|9=52|35=0|34=29|49=MMMAQA|52=20200626-17:42:39.784|56=MA|10=100|8=FIX.4.4|9=52|35=0|34=30|49=MMMAQA|52=20200626-17:44:10.783|56=MA|10=082|8=FIX.4.4|9=52|35=0|34=31|49=MMMAQA|52=20200626-17:45:40.784|56=MA|10=088|8=FIX.4.4|9=52|35=0|34=32|49=MMMAQA|52=20200626-17:47:11.782|56=MA|10=087|8=FIX.4.4|9=52|35=0|34=33|49=MMMAQA|52=20200626-17:48:41.782|56=MA|10=092|8=FIX.4.4|9=52|35=0|34=34|49=MMMAQA|52=20200626-17:50:11.782|56=MA|10=083|8=FIX.4.4|9=52|35=0|34=35|49=MMMAQA|52=20200626-17:51:41.782|56=MA|10=088|8=FIX.4.4|9=52|35=0|34=36|49=MMMAQA|52=20200626-17:53:11.782|56=MA|10=088|8=FIX.4.4|9=52|35=0|34=37|49=MMMAQA|52=20200626-17:54:41.783|56=MA|10=094|8=FIX.4.4|9=52|35=0|34=38|49=MMMAQA|52=20200626-17:56:11.783|56=MA|10=094|8=FIX.4.4|9=52|35=0|34=39|49=MMMAQA|52=20200626-17:57:42.783|56=MA|10=100|8=FIX.4.4|9=52|35=0|34=40|49=MMMAQA|52=20200626-17:59:13.783|56=MA|10=092|8=FIX.4.4|9=52|35=0|34=41|49=MMMAQA|52=20200626-18:00:43.783|56=MA|10=083|8=FIX.4.4|9=52|35=0|34=42|49=MMMAQA|52=20200626-18:02:14.782|56=MA|10=083|8=FIX.4.4|9=52|35=0|34=43|49=MMMAQA|52=20200626-18:03:44.782|56=MA|10=088|8=FIX.4.4|9=52|35=0|34=44|49=MMMAQA|52=20200626-18:05:14.783|56=MA|10=089|8=FIX.4.4|9=52|35=0|34=45|49=MMMAQA|52=20200626-18:06:45.783|56=MA|10=095|8=FIX.4.4|9=52|35=0|34=46|49=MMMAQA|52=20200626-18:08:16.782|56=MA|10=095|8=FIX.4.4|9=52|35=0|34=47|49=MMMAQA|52=20200626-18:09:46.782|56=MA|10=100|8=FIX.4.4|9=52|35=0|34=48|49=MMMAQA|52=20200626-18:11:16.783|56=MA|10=092|8=FIX.4.4|9=52|35=0|34=49|49=MMMAQA|52=20200626-18:12:46.783|56=MA|10=097|8=FIX.4.4|9=52|35=0|34=50|49=MMMAQA|52=20200626-18:14:17.782|56=MA|10=088|8=FIX.4.4|9=52|35=0|34=51|49=MMMAQA|52=20200626-18:15:47.783|56=MA|10=094|8=FIX.4.4|9=52|35=0|34=52|49=MMMAQA|52=20200626-18:17:18.782|56=MA|10=094|8=FIX.4.4|9=52|35=0|34=53|49=MMMAQA|52=20200626-18:18:48.783|56=MA|10=100|8=FIX.4.4|9=52|35=0|34=54|49=MMMAQA|52=20200626-18:20:19.782|56=MA|10=091|8=FIX.4.4|9=52|35=0|34=55|49=MMMAQA|52=20200626-18:21:49.782|56=MA|10=096|8=FIX.4.4|9=52|35=0|34=56|49=MMMAQA|52=20200626-18:23:19.782|56=MA|10=096|8=FIX.4.4|9=52|35=0|34=57|49=MMMAQA|52=20200626-18:24:49.783|56=MA|10=102|8=FIX.4.4|9=52|35=0|34=58|49=MMMAQA|52=20200626-18:26:20.783|56=MA|10=094|8=FIX.4.4|9=52|35=0|34=59|49=MMMAQA|52=20200626-18:27:51.782|56=MA|10=099|8=FIX.4.4|9=52|35=0|34=60|49=MMMAQA|52=20200626-18:29:21.783|56=MA|10=091|8=FIX.4.4|9=52|35=0|34=61|49=MMMAQA|52=20200626-18:30:52.782|56=MA|10=087|8=FIX.4.4|9=52|35=0|34=62|49=MMMAQA|52=20200626-18:32:22.783|56=MA|10=088|8=FIX.4.4|9=52|35=0|34=63|49=MMMAQA|52=20200626-18:33:53.782|56=MA|10=093|8=FIX.4.4|9=52|35=0|34=64|49=MMMAQA|52=20200626-18:35:23.782|56=MA|10=093|8=FIX.4.4|9=52|35=0|34=65|49=MMMAQA|52=20200626-18:36:53.782|56=MA|10=098|8=FIX.4.4|9=52|35=0|34=66|49=MMMAQA|52=20200626-18:38:23.782|56=MA|10=098|8=FIX.4.4|9=52|35=0|34=67|49=MMMAQA|52=20200626-18:39:54.783|56=MA|10=105|8=FIX.4.4|9=52|35=0|34=68|49=MMMAQA|52=20200626-18:41:25.782|56=MA|10=096|8=FIX.4.4|9=52|35=0|34=69|49=MMMAQA|52=20200626-18:42:55.782|56=MA|10=101|8=FIX.4.4|9=52|35=0|34=70|49=MMMAQA|52=20200626-18:44:25.782|56=MA|10=092|8=FIX.4.4|9=52|35=0|34=71|49=MMMAQA|52=20200626-18:45:55.783|56=MA|10=098|8=FIX.4.4|9=52|35=0|34=72|49=MMMAQA|52=20200626-18:47:26.782|56=MA|10=098|8=FIX.4.4|9=52|35=0|34=73|49=MMMAQA|52=20200626-18:48:56.782|56=MA|10=103|8=FIX.4.4|9=52|35=0|34=74|49=MMMAQA|52=20200626-18:50:26.782|56=MA|10=094|8=FIX.4.4|9=52|35=0|34=75|49=MMMAQA|52=20200626-18:51:56.782|56=MA|10=099|8=FIX.4.4|9=52|35=0|34=76|49=MMMAQA|52=20200626-18:53:26.783|56=MA|10=100|8=FIX.4.4|9=52|35=0|34=77|49=MMMAQA|52=20200626-18:54:57.781|56=MA|10=104|8=FIX.4.4|9=52|35=0|34=78|49=MMMAQA|52=20200626-18:56:27.782|56=MA|10=105|8=FIX.4.4|9=52|35=0|34=79|49=MMMAQA|52=20200626-18:57:58.782|56=MA|10=111|8=FIX.4.4|9=52|35=0|34=80|49=MMMAQA|52=20200626-18:59:28.782|56=MA|10=102|8=FIX.4.4|9=52|35=0|34=81|49=MMMAQA|52=20200626-19:00:58.782|56=MA|10=093|8=FIX.4.4|9=52|35=0|34=82|49=MMMAQA|52=20200626-19:02:29.781|56=MA|10=093|8=FIX.4.4|9=52|35=0|34=83|49=MMMAQA|52=20200626-19:03:59.782|56=MA|10=099|8=FIX.4.4|9=52|35=0|34=84|49=MMMAQA|52=20200626-19:05:29.782|56=MA|10=099|8=FIX.4.4|9=52|35=0|34=85|49=MMMAQA|52=20200626-19:06:59.782|56=MA|10=104|8=FIX.4.4|9=52|35=0|34=86|49=MMMAQA|52=20200626-19:08:30.782|56=MA|10=096|8=FIX.4.4|9=52|35=0|34=87|49=MMMAQA|52=20200626-19:10:01.781|56=MA|10=087|8=FIX.4.4|9=52|35=0|34=88|49=MMMAQA|52=20200626-19:11:31.782|56=MA|10=093|8=FIX.4.4|9=52|35=0|34=89|49=MMMAQA|52=20200626-19:13:02.783|56=MA|10=095|8=FIX.4.4|9=52|35=5|34=90|49=MMMAQA|52=20200626-19:14:04.325|56=MA|10=087|8=FIX.4.4|9=86|35=A|34=1|49=MMMAQA|52=20200630-12:18:59.072|56=MA|98=0|108=90|95=8|96=3.0.0rc5|141=Y|10=009|8=FIX.4.4|9=51|35=0|34=2|49=MMMAQA|52=20200630-12:20:30.026|56=MA|10=008|8=FIX.4.4|9=51|35=0|34=3|49=MMMAQA|52=20200630-12:22:00.406|56=MA|10=010|8=FIX.4.4|9=51|35=0|34=4|49=MMMAQA|52=20200630-12:23:30.405|56=MA|10=014|8=FIX.4.4|9=51|35=0|34=5|49=MMMAQA|52=20200630-12:25:00.450|56=MA|10=014|8=FIX.4.4|9=51|35=0|34=6|49=MMMAQA|52=20200630-12:26:31.023|56=MA|10=016|8=FIX.4.4|9=51|35=0|34=7|49=MMMAQA|52=20200630-12:28:01.024|56=MA|10=017|8=FIX.4.4|9=51|35=0|34=8|49=MMMAQA|52=20200630-12:29:31.407|56=MA|10=027|8=FIX.4.4|9=51|35=0|34=9|49=MMMAQA|52=20200630-12:31:02.024|56=MA|10=014|8=FIX.4.4|9=52|35=0|34=10|49=MMMAQA|52=20200630-12:32:32.024|56=MA|10=059|8=FIX.4.4|9=52|35=0|34=11|49=MMMAQA|52=20200630-12:34:02.024|56=MA|10=059|8=FIX.4.4|9=52|35=0|34=12|49=MMMAQA|52=20200630-12:35:32.024|56=MA|10=064|8=FIX.4.4|9=52|35=0|34=13|49=MMMAQA|52=20200630-12:37:02.449|56=MA|10=075|8=FIX.4.4|9=52|35=0|34=14|49=MMMAQA|52=20200630-12:38:33.022|56=MA|10=068|8=FIX.4.4|9=52|35=0|34=15|49=MMMAQA|52=20200630-12:40:03.022|56=MA|10=059|8=FIX.4.4|9=52|35=0|34=16|49=MMMAQA|52=20200630-12:41:33.022|56=MA|10=064|8=FIX.4.4|9=52|35=0|34=17|49=MMMAQA|52=20200630-12:43:03.022|56=MA|10=064|8=FIX.4.4|9=52|35=0|34=18|49=MMMAQA|52=20200630-12:44:33.023|56=MA|10=070|8=FIX.4.4|9=52|35=0|34=19|49=MMMAQA|52=20200630-12:46:03.024|56=MA|10=071|8=FIX.4.4|9=52|35=0|34=20|49=MMMAQA|52=20200630-12:47:33.024|56=MA|10=067|8=FIX.4.4|9=52|35=0|34=21|49=MMMAQA|52=20200630-12:49:04.022|56=MA|10=066|8=FIX.4.4|9=52|35=0|34=22|49=MMMAQA|52=20200630-12:50:34.022|56=MA|10=062|8=FIX.4.4|9=52|35=0|34=23|49=MMMAQA|52=20200630-12:52:04.022|56=MA|10=062|8=FIX.4.4|9=52|35=0|34=24|49=MMMAQA|52=20200630-12:53:34.022|56=MA|10=067|8=FIX.4.4|9=52|35=0|34=25|49=MMMAQA|52=20200630-12:55:04.022|56=MA|10=067|8=FIX.4.4|9=61|35=1|34=26|49=MMMAQA|52=20200630-12:57:35.583|56=MA|112=TEST|10=105|8=FIX.4.4|9=61|35=0|34=27|49=MMMAQA|52=20200630-12:57:35.584|56=MA|112=TEST|10=106|8=FIX.4.4|9=86|35=A|34=1|49=MMMAQA|52=20200714-16:13:02.423|56=MA|98=0|108=90|95=8|96=3.0.0rc5|141=Y|10=255|8=FIX.4.4|9=69|35=5|34=2|49=MMMAQA|52=20200714-16:13:08.420|56=MA|58=user requested|10=126|8=FIX.4.4|9=86|35=A|34=1|49=MMMAQA|52=20200820-10:34:30.514|56=MA|98=0|108=90|95=8|96=3.0.0rc5|141=Y|10=252|8=FIX.4.4|9=615|35=E|34=2|49=MMMAQA|52=20200820-10:34:41.612|56=MA|66=MMAD-FIX44-ListID-071218-1177|394=2|68=5|73=5|11=FIX44-List-ClOrdID-1178|22=4|38=100000|48=XS0542534192|54=1|55=[N/A/]|67=1|423=1|453=1|448=MMMAQA|447=C|452=11|11=FIX44-List-ClOrdID-1179|22=4|38=120000|48=FR0013241536|54=1|55=[N/A]|67=2|11=FIX44-List-ClOrdID-1180|22=4|38=130000|48=DE000HLB4D56|54=1|55=[N/A/]|67=1|453=1|448=MMMAQA|447=C|452=11|11=FIX44-List-ClOrdID-1181|22=4|38=250000|48=XS0987936076|54=1|55=[N/A/]|67=1|453=1|448=MMMAQA|447=C|452=11|11=FIX44-List-ClOrdID-1182|22=4|38=350000|48=XS0401048102|54=1|55=[N/A/]|67=1|453=1|448=MMMAQA|447=C|452=11|10=048|8=FIX.4.4|9=51|35=0|34=3|49=MMMAQA|52=20200820-10:36:12.497|56=MA|10=027|8=FIX.4.4|9=51|35=0|34=4|49=MMMAQA|52=20200820-10:37:42.862|56=MA|10=028|8=FIX.4.4|9=51|35=0|34=5|49=MMMAQA|52=20200820-10:39:13.497|56=MA|10=033|8=FIX.4.4|9=51|35=0|34=6|49=MMMAQA|52=20200820-10:40:43.878|56=MA|10=032|8=FIX.4.4|9=51|35=0|34=7|49=MMMAQA|52=20200820-10:42:14.497|56=MA|10=030|8=FIX.4.4|9=51|35=0|34=8|49=MMMAQA|52=20200820-10:43:44.497|56=MA|10=035|8=FIX.4.4|9=51|35=0|34=9|49=MMMAQA|52=20200820-10:45:14.497|56=MA|10=035|8=FIX.4.4|9=182|35=D|34=10|49=MMMAQA|52=20200820-10:46:09.157|56=MA|11=MMADJB260619-1183|453=1|448=MMMAQA|447=C|452=11|55=NA|48=XS0991090175|22=4|54=2|60=20200820-10:46:09.157|38=1000000|40=1|423=1|10=248|8=FIX.4.4|9=616|35=E|34=11|49=MMMAQA|52=20200820-10:46:30.286|56=MA|66=MMAD-FIX44-ListID-071218-1184|394=2|68=5|73=5|11=FIX44-List-ClOrdID-1185|22=4|38=100000|48=XS0542534192|54=1|55=[N/A/]|67=1|423=1|453=1|448=MMMAQA|447=C|452=11|11=FIX44-List-ClOrdID-1186|22=4|38=120000|48=FR0013241536|54=1|55=[N/A]|67=2|11=FIX44-List-ClOrdID-1187|22=4|38=130000|48=DE000HLB4D56|54=1|55=[N/A/]|67=1|453=1|448=MMMAQA|447=C|452=11|11=FIX44-List-ClOrdID-1188|22=4|38=250000|48=XS0987936076|54=1|55=[N/A/]|67=1|453=1|448=MMMAQA|447=C|452=11|11=FIX44-List-ClOrdID-1189|22=4|38=350000|48=XS0401048102|54=1|55=[N/A/]|67=1|453=1|448=MMMAQA|447=C|452=11|10=120|8=FIX.4.4|9=52|35=0|34=12|49=MMMAQA|52=20200820-10:48:00.496|56=MA|10=075|8=FIX.4.4|9=52|35=0|34=13|49=MMMAQA|52=20200820-10:49:30.498|56=MA|10=082|8=FIX.4.4|9=52|35=0|34=14|49=MMMAQA|52=20200820-10:51:00.498|56=MA|10=073|8=FIX.4.4|9=52|35=0|34=15|49=MMMAQA|52=20200820-10:52:30.501|56=MA|10=063|8=FIX.4.4|9=52|35=0|34=16|49=MMMAQA|52=20200820-10:54:00.502|56=MA|10=064|8=FIX.4.4|9=52|35=0|34=17|49=MMMAQA|52=20200820-10:55:30.502|56=MA|10=069|8=FIX.4.4|9=52|35=0|34=18|49=MMMAQA|52=20200820-10:57:00.504|56=MA|10=071|8=FIX.4.4|9=52|35=0|34=19|49=MMMAQA|52=20200820-10:58:30.506|56=MA|10=078|8=FIX.4.4|9=52|35=0|34=20|49=MMMAQA|52=20200820-11:00:00.506|56=MA|10=055|8=FIX.4.4|9=52|35=0|34=21|49=MMMAQA|52=20200820-11:01:30.506|56=MA|10=060|8=FIX.4.4|9=52|35=0|34=22|49=MMMAQA|52=20200820-11:03:00.507|56=MA|10=061|8=FIX.4.4|9=52|35=0|34=23|49=MMMAQA|52=20200820-11:04:30.509|56=MA|10=068|8=FIX.4.4|9=52|35=0|34=24|49=MMMAQA|52=20200820-11:06:00.510|56=MA|10=060|8=FIX.4.4|9=52|35=0|34=25|49=MMMAQA|52=20200820-11:07:31.509|56=MA|10=074|8=FIX.4.4|9=52|35=0|34=26|49=MMMAQA|52=20200820-11:09:01.509|56=MA|10=074|8=FIX.4.4|9=52|35=0|34=27|49=MMMAQA|52=20200820-11:10:31.510|56=MA|10=062|8=FIX.4.4|9=52|35=0|34=28|49=MMMAQA|52=20200820-11:12:01.510|56=MA|10=062|8=FIX.4.4|9=52|35=0|34=29|49=MMMAQA|52=20200820-11:13:31.512|56=MA|10=069|8=FIX.4.4|9=52|35=0|34=30|49=MMMAQA|52=20200820-11:15:01.513|56=MA|10=061|8=FIX.4.4|9=52|35=0|34=31|49=MMMAQA|52=20200820-11:16:32.511|56=MA|10=065|8=FIX.4.4|9=52|35=0|34=32|49=MMMAQA|52=20200820-11:18:02.511|56=MA|10=065|8=FIX.4.4|9=52|35=0|34=33|49=MMMAQA|52=20200820-11:19:32.514|56=MA|10=073|8=FIX.4.4|9=52|35=0|34=34|49=MMMAQA|52=20200820-11:21:02.514|56=MA|10=064|8=FIX.4.4|9=52|35=0|34=35|49=MMMAQA|52=20200820-11:22:33.513|56=MA|10=069|8=FIX.4.4|9=52|35=0|34=36|49=MMMAQA|52=20200820-11:24:03.514|56=MA|10=070|8=FIX.4.4|9=52|35=0|34=37|49=MMMAQA|52=20200820-11:25:33.515|56=MA|10=076|8=FIX.4.4|9=52|35=0|34=38|49=MMMAQA|52=20200820-11:27:03.517|56=MA|10=078|8=FIX.4.4|9=52|35=0|34=39|49=MMMAQA|52=20200820-11:28:33.519|56=MA|10=085|8=FIX.4.4|9=52|35=0|34=40|49=MMMAQA|52=20200820-11:30:03.522|56=MA|10=061|8=FIX.4.4|9=52|35=0|34=41|49=MMMAQA|52=20200820-11:31:33.522|56=MA|10=066|8=FIX.4.4|9=52|35=0|34=42|49=MMMAQA|52=20200820-11:33:03.525|56=MA|10=069|8=FIX.4.4|9=52|35=0|34=43|49=MMMAQA|52=20200820-11:34:33.525|56=MA|10=074|8=FIX.4.4|9=52|35=0|34=44|49=MMMAQA|52=20200820-11:36:03.526|56=MA|10=075|8=FIX.4.4|9=52|35=0|34=45|49=MMMAQA|52=20200820-11:37:33.527|56=MA|10=081|8=FIX.4.4|9=52|35=0|34=46|49=MMMAQA|52=20200820-11:39:03.529|56=MA|10=083|8=FIX.4.4|9=52|35=0|34=47|49=MMMAQA|52=20200820-11:40:33.529|56=MA|10=079|8=FIX.4.4|9=52|35=0|34=48|49=MMMAQA|52=20200820-11:42:03.531|56=MA|10=072|8=FIX.4.4|9=52|35=0|34=49|49=MMMAQA|52=20200820-11:43:34.532|56=MA|10=079|8=FIX.4.4|9=52|35=0|34=50|49=MMMAQA|52=20200820-11:45:04.532|56=MA|10=070|8=FIX.4.4|9=52|35=0|34=51|49=MMMAQA|52=20200820-11:46:34.532|56=MA|10=075|8=FIX.4.4|9=52|35=0|34=52|49=MMMAQA|52=20200820-11:48:04.532|56=MA|10=075|8=FIX.4.4|9=52|35=0|34=53|49=MMMAQA|52=20200820-11:49:34.533|56=MA|10=081|8=FIX.4.4|9=52|35=0|34=54|49=MMMAQA|52=20200820-11:51:04.534|56=MA|10=073|8=FIX.4.4|9=52|35=0|34=55|49=MMMAQA|52=20200820-11:52:35.534|56=MA|10=079|8=FIX.4.4|9=52|35=0|34=56|49=MMMAQA|52=20200820-11:54:05.534|56=MA|10=079|8=FIX.4.4|9=52|35=0|34=57|49=MMMAQA|52=20200820-11:55:35.535|56=MA|10=085|8=FIX.4.4|9=52|35=0|34=58|49=MMMAQA|52=20200820-11:57:05.535|56=MA|10=085|8=FIX.4.4|9=52|35=0|34=59|49=MMMAQA|52=20200820-11:58:35.536|56=MA|10=091|8=FIX.4.4|9=52|35=0|34=60|49=MMMAQA|52=20200820-12:00:05.539|56=MA|10=071|8=FIX.4.4|9=52|35=0|34=61|49=MMMAQA|52=20200820-12:01:35.540|56=MA|10=068|8=FIX.4.4|9=52|35=0|34=62|49=MMMAQA|52=20200820-12:03:05.543|56=MA|10=071|8=FIX.4.4|9=52|35=0|34=63|49=MMMAQA|52=20200820-12:04:35.546|56=MA|10=079|8=FIX.4.4|9=52|35=0|34=64|49=MMMAQA|52=20200820-12:06:05.546|56=MA|10=079|8=FIX.4.4|9=52|35=0|34=65|49=MMMAQA|52=20200820-12:07:35.548|56=MA|10=086|8=FIX.4.4|9=52|35=0|34=66|49=MMMAQA|52=20200820-12:09:05.550|56=MA|10=079|8=FIX.4.4|9=52|35=0|34=67|49=MMMAQA|52=20200820-12:10:35.551|56=MA|10=076|8=FIX.4.4|9=52|35=0|34=68|49=MMMAQA|52=20200820-12:12:05.552|56=MA|10=077|8=FIX.4.4|9=52|35=0|34=69|49=MMMAQA|52=20200820-12:13:35.553|56=MA|10=083|8=FIX.4.4|9=52|35=0|34=70|49=MMMAQA|52=20200820-12:15:05.554|56=MA|10=075|8=FIX.4.4|9=52|35=0|34=71|49=MMMAQA|52=20200820-12:16:35.555|56=MA|10=081|8=FIX.4.4|9=52|35=0|34=72|49=MMMAQA|52=20200820-12:18:05.556|56=MA|10=082|8=FIX.4.4|9=52|35=0|34=73|49=MMMAQA|52=20200820-12:19:35.556|56=MA|10=087|8=FIX.4.4|9=52|35=0|34=74|49=MMMAQA|52=20200820-12:21:05.557|56=MA|10=079|8=FIX.4.4|9=52|35=0|34=75|49=MMMAQA|52=20200820-12:22:35.558|56=MA|10=085|8=FIX.4.4|9=52|35=0|34=76|49=MMMAQA|52=20200820-12:24:05.558|56=MA|10=085|8=FIX.4.4|9=52|35=0|34=77|49=MMMAQA|52=20200820-12:25:35.560|56=MA|10=083|8=FIX.4.4|9=52|35=0|34=78|49=MMMAQA|52=20200820-12:27:05.560|56=MA|10=083|8=FIX.4.4|9=52|35=0|34=79|49=MMMAQA|52=20200820-12:28:35.560|56=MA|10=088|8=FIX.4.4|9=52|35=0|34=80|49=MMMAQA|52=20200820-12:30:05.561|56=MA|10=071|8=FIX.4.4|9=52|35=0|34=81|49=MMMAQA|52=20200820-12:31:35.561|56=MA|10=076|8=FIX.4.4|9=52|35=0|34=82|49=MMMAQA|52=20200820-12:33:05.561|56=MA|10=076|8=FIX.4.4|9=52|35=0|34=83|49=MMMAQA|52=20200820-12:34:35.561|56=MA|10=081|8=FIX.4.4|9=52|35=0|34=84|49=MMMAQA|52=20200820-12:36:05.561|56=MA|10=081|8=FIX.4.4|9=52|35=0|34=85|49=MMMAQA|52=20200820-12:37:35.562|56=MA|10=087|8=FIX.4.4|9=52|35=0|34=86|49=MMMAQA|52=20200820-12:39:05.562|56=MA|10=087|8=FIX.4.4|9=52|35=0|34=87|49=MMMAQA|52=20200820-12:40:35.562|56=MA|10=083|8=FIX.4.4|9=52|35=0|34=88|49=MMMAQA|52=20200820-12:42:05.564|56=MA|10=085|8=FIX.4.4|9=52|35=0|34=89|49=MMMAQA|52=20200820-12:43:35.564|56=MA|10=090|8=FIX.4.4|9=52|35=0|34=90|49=MMMAQA|52=20200820-12:45:06.563|56=MA|10=081|8=FIX.4.4|9=52|35=0|34=91|49=MMMAQA|52=20200820-12:46:36.563|56=MA|10=086|8=FIX.4.4|9=52|35=0|34=92|49=MMMAQA|52=20200820-12:48:06.564|56=MA|10=087|8=FIX.4.4|9=52|35=0|34=93|49=MMMAQA|52=20200820-12:49:36.564|56=MA|10=092|8=FIX.4.4|9=52|35=0|34=94|49=MMMAQA|52=20200820-12:51:06.564|56=MA|10=083|8=FIX.4.4|9=52|35=0|34=95|49=MMMAQA|52=20200820-12:52:36.565|56=MA|10=089|8=FIX.4.4|9=52|35=0|34=96|49=MMMAQA|52=20200820-12:54:07.564|56=MA|10=089|8=FIX.4.4|9=52|35=0|34=97|49=MMMAQA|52=20200820-12:55:37.564|56=MA|10=094|8=FIX.4.4|9=52|35=0|34=98|49=MMMAQA|52=20200820-12:57:07.564|56=MA|10=094|8=FIX.4.4|9=52|35=0|34=99|49=MMMAQA|52=20200820-12:58:37.564|56=MA|10=099|8=FIX.4.4|9=53|35=0|34=100|49=MMMAQA|52=20200820-13:00:07.564|56=MA|10=116|8=FIX.4.4|9=53|35=0|34=101|49=MMMAQA|52=20200820-13:01:37.564|56=MA|10=121|8=FIX.4.4|9=53|35=0|34=102|49=MMMAQA|52=20200820-13:03:07.565|56=MA|10=122|8=FIX.4.4|9=53|35=0|34=103|49=MMMAQA|52=20200820-13:04:37.566|56=MA|10=128|8=FIX.4.4|9=53|35=0|34=104|49=MMMAQA|52=20200820-13:06:07.566|56=MA|10=128|8=FIX.4.4|9=53|35=0|34=105|49=MMMAQA|52=20200820-13:07:37.569|56=MA|10=136|8=FIX.4.4|9=53|35=0|34=106|49=MMMAQA|52=20200820-13:09:07.571|56=MA|10=129|8=FIX.4.4|9=53|35=0|34=107|49=MMMAQA|52=20200820-13:10:37.574|56=MA|10=128|8=FIX.4.4|9=53|35=0|34=108|49=MMMAQA|52=20200820-13:12:07.577|56=MA|10=131|8=FIX.4.4|9=53|35=0|34=109|49=MMMAQA|52=20200820-13:13:37.580|56=MA|10=130|8=FIX.4.4|9=53|35=0|34=110|49=MMMAQA|52=20200820-13:15:07.582|56=MA|10=123|8=FIX.4.4|9=53|35=0|34=111|49=MMMAQA|52=20200820-13:16:37.584|56=MA|10=130|8=FIX.4.4|9=53|35=0|34=112|49=MMMAQA|52=20200820-13:18:07.586|56=MA|10=132|8=FIX.4.4|9=53|35=0|34=113|49=MMMAQA|52=20200820-13:19:37.587|56=MA|10=138|8=FIX.4.4|9=53|35=0|34=114|49=MMMAQA|52=20200820-13:21:07.590|56=MA|10=123|8=FIX.4.4|9=53|35=0|34=115|49=MMMAQA|52=20200820-13:22:37.590|56=MA|10=128|8=FIX.4.4|9=53|35=0|34=116|49=MMMAQA|52=20200820-13:24:07.591|56=MA|10=129|8=FIX.4.4|9=53|35=0|34=117|49=MMMAQA|52=20200820-13:25:37.593|56=MA|10=136|8=FIX.4.4|9=53|35=0|34=118|49=MMMAQA|52=20200820-13:27:07.594|56=MA|10=137|8=FIX.4.4|9=53|35=0|34=119|49=MMMAQA|52=20200820-13:28:37.594|56=MA|10=142|8=FIX.4.4|9=53|35=0|34=120|49=MMMAQA|52=20200820-13:30:07.595|56=MA|10=125|8=FIX.4.4|9=53|35=0|34=121|49=MMMAQA|52=20200820-13:31:37.597|56=MA|10=132|8=FIX.4.4|9=53|35=0|34=122|49=MMMAQA|52=20200820-13:33:07.597|56=MA|10=132|8=FIX.4.4|9=53|35=0|34=123|49=MMMAQA|52=20200820-13:34:37.597|56=MA|10=137|8=FIX.4.4|9=53|35=0|34=124|49=MMMAQA|52=20200820-13:36:07.598|56=MA|10=138|8=FIX.4.4|9=53|35=0|34=125|49=MMMAQA|52=20200820-13:37:37.598|56=MA|10=143|8=FIX.4.4|9=53|35=0|34=126|49=MMMAQA|52=20200820-13:39:07.599|56=MA|10=144|8=FIX.4.4|9=53|35=0|34=127|49=MMMAQA|52=20200820-13:40:37.599|56=MA|10=140|8=FIX.4.4|9=53|35=0|34=128|49=MMMAQA|52=20200820-13:42:07.600|56=MA|10=123|8=FIX.4.4|9=53|35=0|34=129|49=MMMAQA|52=20200820-13:43:38.600|56=MA|10=129|8=FIX.4.4|9=53|35=0|34=130|49=MMMAQA|52=20200820-13:45:08.600|56=MA|10=120|8=FIX.4.4|9=53|35=0|34=131|49=MMMAQA|52=20200820-13:46:38.601|56=MA|10=126|8=FIX.4.4|9=53|35=0|34=132|49=MMMAQA|52=20200820-13:48:08.601|56=MA|10=126|8=FIX.4.4|9=53|35=0|34=133|49=MMMAQA|52=20200820-13:49:38.603|56=MA|10=133|8=FIX.4.4|9=53|35=0|34=134|49=MMMAQA|52=20200820-13:51:09.602|56=MA|10=124|8=FIX.4.4|9=53|35=0|34=135|49=MMMAQA|52=20200820-13:52:39.602|56=MA|10=129|8=FIX.4.4|9=53|35=0|34=136|49=MMMAQA|52=20200820-13:54:09.603|56=MA|10=130|8=FIX.4.4|9=53|35=0|34=137|49=MMMAQA|52=20200820-13:55:40.604|56=MA|10=128|8=FIX.4.4|9=53|35=0|34=138|49=MMMAQA|52=20200820-13:57:11.602|56=MA|10=127|8=FIX.4.4|9=53|35=0|34=139|49=MMMAQA|52=20200820-13:58:41.603|56=MA|10=133|8=FIX.4.4|9=53|35=0|34=140|49=MMMAQA|52=20200820-14:00:11.604|56=MA|10=111|8=FIX.4.4|9=53|35=0|34=141|49=MMMAQA|52=20200820-14:01:42.603|56=MA|10=116|8=FIX.4.4|9=53|35=0|34=142|49=MMMAQA|52=20200820-14:03:12.603|56=MA|10=116|8=FIX.4.4|9=53|35=0|34=143|49=MMMAQA|52=20200820-14:04:42.603|56=MA|10=121|8=FIX.4.4|9=53|35=0|34=144|49=MMMAQA|52=20200820-14:06:12.603|56=MA|10=121|8=FIX.4.4|9=53|35=0|34=145|49=MMMAQA|52=20200820-14:07:42.605|56=MA|10=128|8=FIX.4.4|9=53|35=0|34=146|49=MMMAQA|52=20200820-14:09:13.603|56=MA|10=127|8=FIX.4.4|9=53|35=0|34=147|49=MMMAQA|52=20200820-14:10:43.604|56=MA|10=124|8=FIX.4.4|9=53|35=0|34=148|49=MMMAQA|52=20200820-14:12:13.604|56=MA|10=124|8=FIX.4.4|9=53|35=0|34=149|49=MMMAQA|52=20200820-14:13:43.604|56=MA|10=129|8=FIX.4.4|9=53|35=0|34=150|49=MMMAQA|52=20200820-14:15:13.605|56=MA|10=121|8=FIX.4.4|9=53|35=0|34=151|49=MMMAQA|52=20200820-14:16:43.610|56=MA|10=122|8=FIX.4.4|9=53|35=0|34=152|49=MMMAQA|52=20200820-14:18:13.614|56=MA|10=126|8=FIX.4.4|9=53|35=0|34=153|49=MMMAQA|52=20200820-14:19:43.615|56=MA|10=132|8=FIX.4.4|9=53|35=0|34=154|49=MMMAQA|52=20200820-14:21:13.617|56=MA|10=125|8=FIX.4.4|9=53|35=0|34=155|49=MMMAQA|52=20200820-14:22:43.619|56=MA|10=132|8=FIX.4.4|9=53|35=0|34=156|49=MMMAQA|52=20200820-14:24:13.622|56=MA|10=126|8=FIX.4.4|9=53|35=0|34=157|49=MMMAQA|52=20200820-14:25:43.623|56=MA|10=132|8=FIX.4.4|9=53|35=0|34=158|49=MMMAQA|52=20200820-14:27:13.625|56=MA|10=134|8=FIX.4.4|9=53|35=0|34=159|49=MMMAQA|52=20200820-14:28:43.627|56=MA|10=141|8=FIX.4.4|9=53|35=0|34=160|49=MMMAQA|52=20200820-14:30:13.628|56=MA|10=124|8=FIX.4.4|9=53|35=0|34=161|49=MMMAQA|52=20200820-14:31:43.629|56=MA|10=130|8=FIX.4.4|9=53|35=0|34=162|49=MMMAQA|52=20200820-14:33:13.632|56=MA|10=124|8=FIX.4.4|9=53|35=0|34=163|49=MMMAQA|52=20200820-14:34:43.632|56=MA|10=129|8=FIX.4.4|9=53|35=0|34=164|49=MMMAQA|52=20200820-14:36:13.632|56=MA|10=129|8=FIX.4.4|9=53|35=0|34=165|49=MMMAQA|52=20200820-14:37:43.633|56=MA|10=135|8=FIX.4.4|9=53|35=0|34=166|49=MMMAQA|52=20200820-14:39:13.634|56=MA|10=136|8=FIX.4.4|9=53|35=0|34=167|49=MMMAQA|52=20200820-14:40:43.635|56=MA|10=133|8=FIX.4.4|9=53|35=0|34=168|49=MMMAQA|52=20200820-14:42:13.635|56=MA|10=133|8=FIX.4.4|9=53|35=0|34=169|49=MMMAQA|52=20200820-14:43:43.637|56=MA|10=140|8=FIX.4.4|9=53|35=0|34=170|49=MMMAQA|52=20200820-14:45:13.637|56=MA|10=131|8=FIX.4.4|9=53|35=0|34=171|49=MMMAQA|52=20200820-14:46:43.638|56=MA|10=137|8=FIX.4.4|9=53|35=0|34=172|49=MMMAQA|52=20200820-14:48:13.638|56=MA|10=137|8=FIX.4.4|9=53|35=0|34=173|49=MMMAQA|52=20200820-14:49:43.639|56=MA|10=143|8=FIX.4.4|9=53|35=0|34=174|49=MMMAQA|52=20200820-14:51:13.639|56=MA|10=134|8=FIX.4.4|9=53|35=0|34=175|49=MMMAQA|52=20200820-14:52:43.639|56=MA|10=139|8=FIX.4.4|9=53|35=0|34=176|49=MMMAQA|52=20200820-14:54:13.640|56=MA|10=131|8=FIX.4.4|9=53|35=0|34=177|49=MMMAQA|52=20200820-14:55:44.640|56=MA|10=137|8=FIX.4.4|9=53|35=0|34=178|49=MMMAQA|52=20200820-14:57:14.641|56=MA|10=138|8=FIX.4.4|9=53|35=0|34=179|49=MMMAQA|52=20200820-14:58:45.641|56=MA|10=144|8=FIX.4.4|9=53|35=0|34=180|49=MMMAQA|52=20200820-15:00:16.640|56=MA|10=121|8=FIX.4.4|9=53|35=0|34=181|49=MMMAQA|52=20200820-15:01:46.641|56=MA|10=127|8=FIX.4.4|9=53|35=0|34=182|49=MMMAQA|52=20200820-15:03:16.642|56=MA|10=128|8=FIX.4.4|9=53|35=0|34=183|49=MMMAQA|52=20200820-15:04:47.641|56=MA|10=133|8=FIX.4.4|9=53|35=0|34=184|49=MMMAQA|52=20200820-15:06:17.642|56=MA|10=134|8=FIX.4.4|9=53|35=0|34=185|49=MMMAQA|52=20200820-15:07:48.642|56=MA|10=140|8=FIX.4.4|9=53|35=0|34=186|49=MMMAQA|52=20200820-15:09:18.643|56=MA|10=141|8=FIX.4.4|9=53|35=0|34=187|49=MMMAQA|52=20200820-15:10:49.642|56=MA|10=137|8=FIX.4.4|9=53|35=0|34=188|49=MMMAQA|52=20200820-15:12:19.642|56=MA|10=137|8=FIX.4.4|9=53|35=0|34=189|49=MMMAQA|52=20200820-15:13:49.642|56=MA|10=142|8=FIX.4.4|9=53|35=0|34=190|49=MMMAQA|52=20200820-15:15:19.642|56=MA|10=133|8=FIX.4.4|9=53|35=0|34=191|49=MMMAQA|52=20200820-15:16:49.642|56=MA|10=138|8=FIX.4.4|9=53|35=0|34=192|49=MMMAQA|52=20200820-15:18:19.643|56=MA|10=139|8=FIX.4.4|9=53|35=0|34=193|49=MMMAQA|52=20200820-15:19:49.643|56=MA|10=144|8=FIX.4.4|9=53|35=0|34=194|49=MMMAQA|52=20200820-15:21:19.643|56=MA|10=135|8=FIX.4.4|9=53|35=0|34=195|49=MMMAQA|52=20200820-15:22:49.643|56=MA|10=140|8=FIX.4.4|9=53|35=0|34=196|49=MMMAQA|52=20200820-15:24:19.646|56=MA|10=143|8=FIX.4.4|9=53|35=0|34=197|49=MMMAQA|52=20200820-15:25:49.647|56=MA|10=149|8=FIX.4.4|9=53|35=0|34=198|49=MMMAQA|52=20200820-15:27:19.649|56=MA|10=151|8=FIX.4.4|9=53|35=0|34=199|49=MMMAQA|52=20200820-15:28:49.651|56=MA|10=149|8=FIX.4.4|9=53|35=0|34=200|49=MMMAQA|52=20200820-15:30:19.654|56=MA|10=125|8=FIX.4.4|9=183|35=D|34=201|49=MMMAQA|52=20200820-15:31:23.593|56=MA|11=MMADJB260619-1190|453=1|448=MMMAQA|447=C|452=11|55=NA|48=XS0991090175|22=4|54=2|60=20200820-15:31:23.593|38=1000000|40=1|423=1|10=039|8=FIX.4.4|9=53|35=0|34=202|49=MMMAQA|52=20200820-15:32:53.658|56=MA|10=131|8=FIX.4.4|9=53|35=0|34=203|49=MMMAQA|52=20200820-15:34:23.658|56=MA|10=131|8=FIX.4.4|9=53|35=0|34=204|49=MMMAQA|52=20200820-15:35:53.660|56=MA|10=129|8=FIX.4.4|9=53|35=0|34=205|49=MMMAQA|52=20200820-15:37:23.661|56=MA|10=130|8=FIX.4.4|9=53|35=0|34=206|49=MMMAQA|52=20200820-15:38:53.663|56=MA|10=137|8=FIX.4.4|9=53|35=0|34=207|49=MMMAQA|52=20200820-15:40:23.664|56=MA|10=129|8=FIX.4.4|9=53|35=0|34=208|49=MMMAQA|52=20200820-15:41:53.665|56=MA|10=135|8=FIX.4.4|9=53|35=0|34=209|49=MMMAQA|52=20200820-15:43:23.666|56=MA|10=136|8=FIX.4.4|9=53|35=0|34=210|49=MMMAQA|52=20200820-15:44:53.668|56=MA|10=134|8=FIX.4.4|9=53|35=0|34=211|49=MMMAQA|52=20200820-15:46:23.669|56=MA|10=135|8=FIX.4.4|9=86|35=A|34=1|49=MMMAQA|52=20200901-15:58:41.657|56=MA|98=0|108=90|95=8|96=3.0.0rc5|141=Y|10=017|8=FIX.4.4|9=86|35=A|34=1|49=MMMAQA|52=20200901-16:00:08.657|56=MA|98=0|108=90|95=8|96=3.0.0rc5|141=Y|10=008|8=FIX.4.4|9=86|35=A|34=1|49=MMMAQA|52=20201015-08:56:20.352|56=MA|98=0|108=90|95=8|96=3.0.0rc5|141=Y|10=003|8=FIX.4.4|9=615|35=E|34=2|49=MMMAQA|52=20201015-08:56:28.517|56=MA|66=MMAD-FIX44-ListID-061020-1177|394=2|68=5|73=5|11=FIX44-List-ClOrdID-1178|22=4|38=100000|48=XS0542534192|54=1|55=[N/A/]|67=1|423=1|453=1|448=MMMAQA|447=C|452=11|11=FIX44-List-ClOrdID-1179|22=4|38=100000|48=FR0013241536|54=1|55=[N/A]|67=2|11=FIX44-List-ClOrdID-1180|22=4|38=130000|48=DE000HLB4D56|54=1|55=[N/A/]|67=1|453=1|448=MMMAQA|447=C|452=11|11=FIX44-List-ClOrdID-1181|22=4|38=250000|48=XS0987936076|54=1|55=[N/A/]|67=1|453=1|448=MMMAQA|447=C|452=11|11=FIX44-List-ClOrdID-1182|22=4|38=350000|48=XS0401048102|54=1|55=[N/A/]|67=1|453=1|448=MMMAQA|447=C|452=11|10=053|8=FIX.4.4|9=51|35=0|34=3|49=MMMAQA|52=20201015-08:57:59.344|56=MA|10=036|8=FIX.4.4|9=51|35=0|34=4|49=MMMAQA|52=20201015-08:59:30.343|56=MA|10=027|8=FIX.4.4|9=51|35=0|34=5|49=MMMAQA|52=20201015-09:01:00.343|56=MA|10=013|8=FIX.4.4|9=51|35=0|34=6|49=MMMAQA|52=20201015-09:02:30.345|56=MA|10=020|8=FIX.4.4|9=51|35=0|34=7|49=MMMAQA|52=20201015-09:04:00.345|56=MA|10=020|8=FIX.4.4|9=51|35=0|34=8|49=MMMAQA|52=20201015-09:05:31.345|56=MA|10=026|8=FIX.4.4|9=51|35=0|34=9|49=MMMAQA|52=20201015-09:07:02.342|56=MA|10=024|8=FIX.4.4|9=52|35=0|34=10|49=MMMAQA|52=20201015-09:08:33.342|56=MA|10=070|8=FIX.4.4|9=52|35=0|34=11|49=MMMAQA|52=20201015-09:10:04.339|56=MA|10=068|8=FIX.4.4|9=52|35=0|34=12|49=MMMAQA|52=20201015-09:11:35.338|56=MA|10=073|8=FIX.4.4|9=52|35=0|34=13|49=MMMAQA|52=20201015-09:13:06.337|56=MA|10=073|8=FIX.4.4|9=52|35=0|34=14|49=MMMAQA|52=20201015-09:14:37.336|56=MA|10=078|8=FIX.4.4|9=52|35=0|34=15|49=MMMAQA|52=20201015-09:16:07.336|56=MA|10=078|8=FIX.4.4|9=52|35=0|34=16|49=MMMAQA|52=20201015-09:17:37.336|56=MA|10=083|8=FIX.4.4|9=52|35=0|34=17|49=MMMAQA|52=20201015-09:19:07.337|56=MA|10=084|8=FIX.4.4|9=52|35=0|34=18|49=MMMAQA|52=20201015-09:20:38.336|56=MA|10=080|8=FIX.4.4|9=52|35=0|34=19|49=MMMAQA|52=20201015-09:22:09.335|56=MA|10=080|8=FIX.4.4|9=52|35=0|34=20|49=MMMAQA|52=20201015-09:23:39.336|56=MA|10=077|8=FIX.4.4|9=52|35=0|34=21|49=MMMAQA|52=20201015-09:25:09.341|56=MA|10=073|8=FIX.4.4|9=52|35=0|34=22|49=MMMAQA|52=20201015-09:26:39.342|56=MA|10=079|8=FIX.4.4|9=52|35=0|34=23|49=MMMAQA|52=20201015-09:28:09.345|56=MA|10=082|8=FIX.4.4|9=52|35=0|34=24|49=MMMAQA|52=20201015-09:29:39.346|56=MA|10=088|8=FIX.4.4|9=52|35=0|34=25|49=MMMAQA|52=20201015-09:31:09.348|56=MA|10=081|8=FIX.4.4|9=52|35=0|34=26|49=MMMAQA|52=20201015-09:32:39.349|56=MA|10=087|8=FIX.4.4|9=52|35=0|34=27|49=MMMAQA|52=20201015-09:34:09.350|56=MA|10=079|8=FIX.4.4|9=52|35=0|34=28|49=MMMAQA|52=20201015-09:35:39.351|56=MA|10=085|8=FIX.4.4|9=52|35=0|34=29|49=MMMAQA|52=20201015-09:37:09.353|56=MA|10=087|8=FIX.4.4|9=52|35=0|34=30|49=MMMAQA|52=20201015-09:38:39.353|56=MA|10=083|8=FIX.4.4|9=52|35=0|34=31|49=MMMAQA|52=20201015-09:40:09.354|56=MA|10=075|8=FIX.4.4|9=52|35=0|34=32|49=MMMAQA|52=20201015-09:41:39.355|56=MA|10=081|8=FIX.4.4|9=52|35=0|34=33|49=MMMAQA|52=20201015-09:43:09.359|56=MA|10=085|8=FIX.4.4|9=52|35=0|34=34|49=MMMAQA|52=20201015-09:44:39.359|56=MA|10=090|8=FIX.4.4|9=52|35=0|34=35|49=MMMAQA|52=20201015-09:46:09.360|56=MA|10=082|8=FIX.4.4|9=52|35=0|34=36|49=MMMAQA|52=20201015-09:47:39.361|56=MA|10=088|8=FIX.4.4|9=52|35=0|34=37|49=MMMAQA|52=20201015-09:49:09.362|56=MA|10=089|8=FIX.4.4|9=52|35=0|34=38|49=MMMAQA|52=20201015-09:50:39.362|56=MA|10=085|8=FIX.4.4|9=52|35=0|34=39|49=MMMAQA|52=20201015-09:52:09.364|56=MA|10=087|8=FIX.4.4|9=52|35=0|34=40|49=MMMAQA|52=20201015-09:53:39.364|56=MA|10=083|8=FIX.4.4|9=52|35=0|34=41|49=MMMAQA|52=20201015-09:55:09.365|56=MA|10=084|8=FIX.4.4|9=52|35=0|34=42|49=MMMAQA|52=20201015-09:56:39.365|56=MA|10=089|8=FIX.4.4|9=52|35=0|34=43|49=MMMAQA|52=20201015-09:58:09.366|56=MA|10=090|8=FIX.4.4|9=52|35=0|34=44|49=MMMAQA|52=20201015-09:59:39.368|56=MA|10=097|8=FIX.4.4|9=52|35=0|34=45|49=MMMAQA|52=20201015-10:01:09.368|56=MA|10=074|8=FIX.4.4|9=52|35=0|34=46|49=MMMAQA|52=20201015-10:02:39.369|56=MA|10=080|8=FIX.4.4|9=52|35=0|34=47|49=MMMAQA|52=20201015-10:04:09.369|56=MA|10=080|8=FIX.4.4|9=52|35=0|34=48|49=MMMAQA|52=20201015-10:05:39.370|56=MA|10=077|8=FIX.4.4|9=52|35=0|34=49|49=MMMAQA|52=20201015-10:07:09.370|56=MA|10=077|8=FIX.4.4|9=52|35=0|34=50|49=MMMAQA|52=20201015-10:08:39.370|56=MA|10=073|8=FIX.4.4|9=52|35=0|34=51|49=MMMAQA|52=20201015-10:10:09.371|56=MA|10=065|8=FIX.4.4|9=52|35=0|34=52|49=MMMAQA|52=20201015-10:11:39.372|56=MA|10=071|8=FIX.4.4|9=52|35=0|34=53|49=MMMAQA|52=20201015-10:13:09.372|56=MA|10=071|8=FIX.4.4|9=52|35=0|34=54|49=MMMAQA|52=20201015-10:14:39.372|56=MA|10=076|8=FIX.4.4|9=52|35=0|34=55|49=MMMAQA|52=20201015-10:16:09.374|56=MA|10=078|8=FIX.4.4|9=52|35=0|34=56|49=MMMAQA|52=20201015-10:17:39.374|56=MA|10=083|8=FIX.4.4|9=52|35=0|34=57|49=MMMAQA|52=20201015-10:19:09.376|56=MA|10=085|8=FIX.4.4|9=52|35=0|34=58|49=MMMAQA|52=20201015-10:20:39.377|56=MA|10=082|8=FIX.4.4|9=52|35=0|34=59|49=MMMAQA|52=20201015-10:22:09.378|56=MA|10=083|8=FIX.4.4|9=52|35=0|34=60|49=MMMAQA|52=20201015-10:23:40.378|56=MA|10=071|8=FIX.4.4|9=52|35=0|34=61|49=MMMAQA|52=20201015-10:25:10.378|56=MA|10=071|8=FIX.4.4|9=52|35=0|34=62|49=MMMAQA|52=20201015-10:26:40.380|56=MA|10=069|8=FIX.4.4|9=52|35=0|34=63|49=MMMAQA|52=20201015-10:28:10.380|56=MA|10=069|8=FIX.4.4|9=52|35=0|34=64|49=MMMAQA|52=20201015-10:29:41.379|56=MA|10=083|8=FIX.4.4|9=52|35=0|34=65|49=MMMAQA|52=20201015-10:31:11.379|56=MA|10=074|8=FIX.4.4|9=52|35=0|34=66|49=MMMAQA|52=20201015-10:32:41.380|56=MA|10=071|8=FIX.4.4|9=52|35=0|34=67|49=MMMAQA|52=20201015-10:34:12.379|56=MA|10=080|8=FIX.4.4|9=52|35=0|34=68|49=MMMAQA|52=20201015-10:35:42.381|56=MA|10=078|8=FIX.4.4|9=52|35=0|34=69|49=MMMAQA|52=20201015-10:37:13.381|56=MA|10=079|8=FIX.4.4|9=52|35=0|34=70|49=MMMAQA|52=20201015-10:38:44.381|56=MA|10=076|8=FIX.4.4|9=52|35=0|34=71|49=MMMAQA|52=20201015-10:40:15.380|56=MA|10=067|8=FIX.4.4|9=52|35=0|34=72|49=MMMAQA|52=20201015-10:41:45.380|56=MA|10=072|8=FIX.4.4|9=52|35=0|34=73|49=MMMAQA|52=20201015-10:43:15.380|56=MA|10=072|8=FIX.4.4|9=52|35=0|34=74|49=MMMAQA|52=20201015-10:44:46.380|56=MA|10=078|8=FIX.4.4|9=52|35=0|34=75|49=MMMAQA|52=20201015-10:46:16.380|56=MA|10=078|8=FIX.4.4|9=52|35=0|34=76|49=MMMAQA|52=20201015-10:47:46.380|56=MA|10=083|8=FIX.4.4|9=52|35=0|34=77|49=MMMAQA|52=20201015-10:49:17.379|56=MA|10=092|8=FIX.4.4|9=52|35=0|34=78|49=MMMAQA|52=20201015-10:50:47.379|56=MA|10=088|8=FIX.4.4|9=52|35=0|34=79|49=MMMAQA|52=20201015-10:52:18.379|56=MA|10=089|8=FIX.4.4|9=52|35=0|34=80|49=MMMAQA|52=20201015-10:53:49.378|56=MA|10=085|8=FIX.4.4|9=52|35=0|34=81|49=MMMAQA|52=20201015-10:55:19.378|56=MA|10=085|8=FIX.4.4|9=52|35=0|34=82|49=MMMAQA|52=20201015-10:56:49.378|56=MA|10=090|8=FIX.4.4|9=52|35=0|34=83|49=MMMAQA|52=20201015-10:58:19.378|56=MA|10=090|8=FIX.4.4|9=52|35=0|34=84|49=MMMAQA|52=20201015-10:59:50.376|56=MA|10=085|8=FIX.4.4|9=52|35=0|34=85|49=MMMAQA|52=20201015-11:01:20.376|56=MA|10=071|8=FIX.4.4|9=52|35=0|34=86|49=MMMAQA|52=20201015-11:02:50.376|56=MA|10=076|8=FIX.4.4|9=52|35=0|34=87|49=MMMAQA|52=20201015-11:04:20.376|56=MA|10=076|8=FIX.4.4|9=52|35=0|34=88|49=MMMAQA|52=20201015-11:05:51.376|56=MA|10=082|8=FIX.4.4|9=52|35=0|34=89|49=MMMAQA|52=20201015-11:07:22.375|56=MA|10=082|8=FIX.4.4|9=52|35=0|34=90|49=MMMAQA|52=20201015-11:08:52.375|56=MA|10=078|8=FIX.4.4|9=52|35=0|34=91|49=MMMAQA|52=20201015-11:10:22.376|56=MA|10=070|8=FIX.4.4|9=52|35=0|34=92|49=MMMAQA|52=20201015-11:11:53.375|56=MA|10=075|8=FIX.4.4|9=52|35=0|34=93|49=MMMAQA|52=20201015-11:13:23.375|56=MA|10=075|8=FIX.4.4|9=52|35=0|34=94|49=MMMAQA|52=20201015-11:14:53.376|56=MA|10=081|8=FIX.4.4|9=52|35=0|34=95|49=MMMAQA|52=20201015-11:16:23.376|56=MA|10=081|8=FIX.4.4|9=52|35=0|34=96|49=MMMAQA|52=20201015-11:17:54.376|56=MA|10=087|8=FIX.4.4|9=52|35=0|34=97|49=MMMAQA|52=20201015-11:19:25.375|56=MA|10=087|8=FIX.4.4|9=52|35=0|34=98|49=MMMAQA|52=20201015-11:20:55.376|56=MA|10=084|8=FIX.4.4|9=52|35=0|34=99|49=MMMAQA|52=20201015-11:22:25.376|56=MA|10=084|8=FIX.4.4|9=53|35=0|34=100|49=MMMAQA|52=20201015-11:23:55.379|56=MA|10=123|8=FIX.4.4|9=53|35=0|34=101|49=MMMAQA|52=20201015-11:25:25.382|56=MA|10=117|8=FIX.4.4|9=53|35=0|34=102|49=MMMAQA|52=20201015-11:26:55.386|56=MA|10=126|8=FIX.4.4|9=53|35=0|34=103|49=MMMAQA|52=20201015-11:28:25.389|56=MA|10=129|8=FIX.4.4|9=53|35=0|34=104|49=MMMAQA|52=20201015-11:29:55.391|56=MA|10=127|8=FIX.4.4|9=53|35=0|34=105|49=MMMAQA|52=20201015-11:31:25.395|56=MA|10=122|8=FIX.4.4|9=53|35=0|34=106|49=MMMAQA|52=20201015-11:32:55.396|56=MA|10=128|8=FIX.4.4|9=53|35=0|34=107|49=MMMAQA|52=20201015-11:34:25.397|56=MA|10=129|8=FIX.4.4|9=53|35=0|34=108|49=MMMAQA|52=20201015-11:35:55.399|56=MA|10=136|8=FIX.4.4|9=53|35=0|34=109|49=MMMAQA|52=20201015-11:37:25.401|56=MA|10=120|8=FIX.4.4|9=53|35=0|34=110|49=MMMAQA|52=20201015-11:38:55.402|56=MA|10=117|8=FIX.4.4|9=53|35=0|34=111|49=MMMAQA|52=20201015-11:40:25.405|56=MA|10=111|8=FIX.4.4|9=53|35=0|34=112|49=MMMAQA|52=20201015-11:41:55.406|56=MA|10=117|8=FIX.4.4|9=53|35=0|34=113|49=MMMAQA|52=20201015-11:43:25.406|56=MA|10=117|8=FIX.4.4|9=53|35=0|34=114|49=MMMAQA|52=20201015-11:44:55.408|56=MA|10=124|8=FIX.4.4|9=53|35=0|34=115|49=MMMAQA|52=20201015-11:46:25.408|56=MA|10=124|8=FIX.4.4|9=53|35=0|34=116|49=MMMAQA|52=20201015-11:47:55.408|56=MA|10=129|8=FIX.4.4|9=53|35=0|34=117|49=MMMAQA|52=20201015-11:49:25.409|56=MA|10=130|8=FIX.4.4|9=53|35=0|34=118|49=MMMAQA|52=20201015-11:50:55.411|56=MA|10=119|8=FIX.4.4|9=53|35=0|34=119|49=MMMAQA|52=20201015-11:52:25.411|56=MA|10=119|8=FIX.4.4|9=53|35=0|34=120|49=MMMAQA|52=20201015-11:53:55.412|56=MA|10=116|8=FIX.4.4|9=53|35=0|34=121|49=MMMAQA|52=20201015-11:55:26.412|56=MA|10=117|8=FIX.4.4|9=53|35=0|34=122|49=MMMAQA|52=20201015-11:56:56.412|56=MA|10=122|8=FIX.4.4|9=53|35=0|34=123|49=MMMAQA|52=20201015-11:58:26.414|56=MA|10=124|8=FIX.4.4|9=53|35=0|34=124|49=MMMAQA|52=20201015-11:59:56.416|56=MA|10=131|8=FIX.4.4|9=53|35=0|34=125|49=MMMAQA|52=20201015-12:01:26.418|56=MA|10=119|8=FIX.4.4|9=53|35=0|34=126|49=MMMAQA|52=20201015-12:02:56.420|56=MA|10=117|8=FIX.4.4|9=53|35=0|34=127|49=MMMAQA|52=20201015-12:04:26.420|56=MA|10=117|8=FIX.4.4|9=53|35=0|34=128|49=MMMAQA|52=20201015-12:05:56.423|56=MA|10=125|8=FIX.4.4|9=53|35=0|34=129|49=MMMAQA|52=20201015-12:07:27.422|56=MA|10=125|8=FIX.4.4|9=53|35=0|34=130|49=MMMAQA|52=20201015-12:08:57.424|56=MA|10=123|8=FIX.4.4|9=53|35=0|34=131|49=MMMAQA|52=20201015-12:10:27.425|56=MA|10=115|8=FIX.4.4|9=53|35=0|34=132|49=MMMAQA|52=20201015-12:11:57.427|56=MA|10=122|8=FIX.4.4|9=53|35=0|34=133|49=MMMAQA|52=20201015-12:13:28.426|56=MA|10=122|8=FIX.4.4|9=53|35=0|34=134|49=MMMAQA|52=20201015-12:14:58.428|56=MA|10=129|8=FIX.4.4|9=53|35=0|34=135|49=MMMAQA|52=20201015-12:16:29.428|56=MA|10=130|8=FIX.4.4|9=53|35=0|34=136|49=MMMAQA|52=20201015-12:17:59.428|56=MA|10=135|8=FIX.4.4|9=53|35=0|34=137|49=MMMAQA|52=20201015-12:19:29.429|56=MA|10=136|8=FIX.4.4|9=53|35=0|34=138|49=MMMAQA|52=20201015-12:20:59.430|56=MA|10=124|8=FIX.4.4|9=53|35=0|34=139|49=MMMAQA|52=20201015-12:22:30.429|56=MA|10=124|8=FIX.4.4|9=53|35=0|34=140|49=MMMAQA|52=20201015-12:24:00.430|56=MA|10=107|8=FIX.4.4|9=53|35=0|34=141|49=MMMAQA|52=20201015-12:25:30.430|56=MA|10=112|8=FIX.4.4|9=53|35=0|34=142|49=MMMAQA|52=20201015-12:27:00.430|56=MA|10=112|8=FIX.4.4|9=53|35=0|34=143|49=MMMAQA|52=20201015-12:28:30.431|56=MA|10=118|8=FIX.4.4|9=53|35=0|34=144|49=MMMAQA|52=20201015-12:30:00.431|56=MA|10=109|8=FIX.4.4|9=53|35=0|34=145|49=MMMAQA|52=20201015-12:31:31.431|56=MA|10=115|8=FIX.4.4|9=53|35=0|34=146|49=MMMAQA|52=20201015-12:33:01.431|56=MA|10=115|8=FIX.4.4|9=53|35=0|34=147|49=MMMAQA|52=20201015-12:34:31.432|56=MA|10=121|8=FIX.4.4|9=53|35=0|34=148|49=MMMAQA|52=20201015-12:36:02.432|56=MA|10=122|8=FIX.4.4|9=53|35=0|34=149|49=MMMAQA|52=20201015-12:37:32.432|56=MA|10=127|8=FIX.4.4|9=53|35=0|34=150|49=MMMAQA|52=20201015-12:39:02.432|56=MA|10=118|8=FIX.4.4|9=53|35=0|34=151|49=MMMAQA|52=20201015-12:40:32.433|56=MA|10=115|8=FIX.4.4|9=53|35=0|34=152|49=MMMAQA|52=20201015-12:42:02.433|56=MA|10=115|8=FIX.4.4|9=53|35=0|34=153|49=MMMAQA|52=20201015-12:43:33.432|56=MA|10=120|8=FIX.4.4|9=53|35=0|34=154|49=MMMAQA|52=20201015-12:45:03.432|56=MA|10=120|8=FIX.4.4|9=53|35=0|34=155|49=MMMAQA|52=20201015-12:46:33.433|56=MA|10=126|8=FIX.4.4|9=53|35=0|34=156|49=MMMAQA|52=20201015-12:48:03.433|56=MA|10=126|8=FIX.4.4|9=53|35=0|34=157|49=MMMAQA|52=20201015-12:49:33.433|56=MA|10=131|8=FIX.4.4|9=53|35=0|34=158|49=MMMAQA|52=20201015-12:51:04.434|56=MA|10=124|8=FIX.4.4|9=53|35=0|34=159|49=MMMAQA|52=20201015-12:52:34.434|56=MA|10=129|8=FIX.4.4|9=53|35=0|34=160|49=MMMAQA|52=20201015-12:54:05.433|56=MA|10=120|8=FIX.4.4|9=53|35=0|34=161|49=MMMAQA|52=20201015-12:55:35.433|56=MA|10=125|8=FIX.4.4|9=53|35=0|34=162|49=MMMAQA|52=20201015-12:57:05.434|56=MA|10=126|8=FIX.4.4|9=53|35=0|34=163|49=MMMAQA|52=20201015-12:58:35.434|56=MA|10=131|8=FIX.4.4|9=53|35=0|34=164|49=MMMAQA|52=20201015-13:00:06.433|56=MA|10=117|8=FIX.4.4|9=53|35=0|34=165|49=MMMAQA|52=20201015-13:01:36.433|56=MA|10=122|8=FIX.4.4|9=53|35=0|34=166|49=MMMAQA|52=20201015-13:03:06.433|56=MA|10=122|8=FIX.4.4|9=53|35=0|34=167|49=MMMAQA|52=20201015-13:04:36.433|56=MA|10=127|8=FIX.4.4|9=53|35=0|34=168|49=MMMAQA|52=20201015-13:06:06.437|56=MA|10=131|8=FIX.4.4|9=53|35=0|34=169|49=MMMAQA|52=20201015-13:07:36.440|56=MA|10=130|8=FIX.4.4|9=53|35=0|34=170|49=MMMAQA|52=20201015-13:09:06.444|56=MA|10=125|8=FIX.4.4|9=53|35=0|34=171|49=MMMAQA|52=20201015-13:10:36.447|56=MA|10=124|8=FIX.4.4|9=53|35=0|34=172|49=MMMAQA|52=20201015-13:12:06.449|56=MA|10=126|8=FIX.4.4|9=53|35=0|34=173|49=MMMAQA|52=20201015-13:13:36.453|56=MA|10=126|8=FIX.4.4|9=53|35=0|34=174|49=MMMAQA|52=20201015-13:15:06.454|56=MA|10=127|8=FIX.4.4|9=53|35=0|34=175|49=MMMAQA|52=20201015-13:16:36.457|56=MA|10=135|8=FIX.4.4|9=53|35=0|34=176|49=MMMAQA|52=20201015-13:18:06.458|56=MA|10=136|8=FIX.4.4|9=53|35=0|34=177|49=MMMAQA|52=20201015-13:19:36.460|56=MA|10=134|8=FIX.4.4|9=53|35=0|34=178|49=MMMAQA|52=20201015-13:21:06.461|56=MA|10=126|8=FIX.4.4|9=53|35=0|34=179|49=MMMAQA|52=20201015-13:22:36.462|56=MA|10=132|8=FIX.4.4|9=53|35=0|34=180|49=MMMAQA|52=20201015-13:24:06.464|56=MA|10=125|8=FIX.4.4|9=53|35=0|34=181|49=MMMAQA|52=20201015-13:25:36.465|56=MA|10=131|8=FIX.4.4|9=53|35=0|34=182|49=MMMAQA|52=20201015-13:27:06.465|56=MA|10=131|8=FIX.4.4|9=53|35=0|34=183|49=MMMAQA|52=20201015-13:28:36.467|56=MA|10=138|8=FIX.4.4|9=53|35=0|34=184|49=MMMAQA|52=20201015-13:30:06.467|56=MA|10=129|8=FIX.4.4|9=53|35=0|34=185|49=MMMAQA|52=20201015-13:31:36.469|56=MA|10=136|8=FIX.4.4|9=53|35=0|34=186|49=MMMAQA|52=20201015-13:33:07.468|56=MA|10=136|8=FIX.4.4|9=53|35=0|34=187|49=MMMAQA|52=20201015-13:34:37.470|56=MA|10=134|8=FIX.4.4|9=53|35=0|34=188|49=MMMAQA|52=20201015-13:36:07.471|56=MA|10=135|8=FIX.4.4|9=53|35=0|34=189|49=MMMAQA|52=20201015-13:37:37.471|56=MA|10=140|8=FIX.4.4|9=53|35=0|34=190|49=MMMAQA|52=20201015-13:39:07.471|56=MA|10=131|8=FIX.4.4|9=53|35=0|34=191|49=MMMAQA|52=20201015-13:40:37.471|56=MA|10=127|8=FIX.4.4|9=53|35=0|34=192|49=MMMAQA|52=20201015-13:42:07.472|56=MA|10=128|8=FIX.4.4|9=53|35=0|34=193|49=MMMAQA|52=20201015-13:43:37.472|56=MA|10=133|8=FIX.4.4|9=53|35=0|34=194|49=MMMAQA|52=20201015-13:45:07.472|56=MA|10=133|8=FIX.4.4|9=53|35=0|34=195|49=MMMAQA|52=20201015-13:46:37.472|56=MA|10=138|8=FIX.4.4|9=53|35=0|34=196|49=MMMAQA|52=20201015-13:48:07.473|56=MA|10=139|8=FIX.4.4|9=53|35=0|34=197|49=MMMAQA|52=20201015-13:49:37.473|56=MA|10=144|8=FIX.4.4|9=53|35=0|34=198|49=MMMAQA|52=20201015-13:51:07.473|56=MA|10=135|8=FIX.4.4|9=53|35=0|34=199|49=MMMAQA|52=20201015-13:52:37.474|56=MA|10=141|8=FIX.4.4|9=53|35=0|34=200|49=MMMAQA|52=20201015-13:54:08.474|56=MA|10=124|8=FIX.4.4|9=53|35=0|34=201|49=MMMAQA|52=20201015-13:55:38.475|56=MA|10=130|8=FIX.4.4|9=53|35=0|34=202|49=MMMAQA|52=20201015-13:57:08.475|56=MA|10=130|8=FIX.4.4|9=53|35=0|34=203|49=MMMAQA|52=20201015-13:58:39.475|56=MA|10=136|8=FIX.4.4|9=53|35=0|34=204|49=MMMAQA|52=20201015-14:00:09.475|56=MA|10=122|8=FIX.4.4|9=53|35=0|34=205|49=MMMAQA|52=20201015-14:01:39.475|56=MA|10=127|8=FIX.4.4|9=53|35=0|34=206|49=MMMAQA|52=20201015-14:03:09.475|56=MA|10=127|8=FIX.4.4|9=53|35=0|34=207|49=MMMAQA|52=20201015-14:04:39.475|56=MA|10=132|8=FIX.4.4|9=53|35=0|34=208|49=MMMAQA|52=20201015-14:06:09.476|56=MA|10=133|8=FIX.4.4|9=53|35=0|34=209|49=MMMAQA|52=20201015-14:07:40.475|56=MA|10=129|8=FIX.4.4|9=53|35=0|34=210|49=MMMAQA|52=20201015-14:09:10.477|56=MA|10=122|8=FIX.4.4|9=53|35=0|34=211|49=MMMAQA|52=20201015-14:10:41.475|56=MA|10=117|8=FIX.4.4|9=53|35=0|34=212|49=MMMAQA|52=20201015-14:12:11.476|56=MA|10=118|8=FIX.4.4|9=53|35=0|34=213|49=MMMAQA|52=20201015-14:13:41.477|56=MA|10=124|8=FIX.4.4|9=53|35=0|34=214|49=MMMAQA|52=20201015-14:15:11.480|56=MA|10=118|8=FIX.4.4|9=53|35=0|34=215|49=MMMAQA|52=20201015-14:16:41.482|56=MA|10=125|8=FIX.4.4|9=53|35=0|34=216|49=MMMAQA|52=20201015-14:18:11.485|56=MA|10=128|8=FIX.4.4|9=53|35=0|34=217|49=MMMAQA|52=20201015-14:19:41.486|56=MA|10=134|8=FIX.4.4|9=53|35=0|34=218|49=MMMAQA|52=20201015-14:21:11.488|56=MA|10=127|8=FIX.4.4|9=53|35=0|34=219|49=MMMAQA|52=20201015-14:22:41.490|56=MA|10=125|8=FIX.4.4|9=53|35=0|34=220|49=MMMAQA|52=20201015-14:24:11.491|56=MA|10=117|8=FIX.4.4|9=53|35=0|34=221|49=MMMAQA|52=20201015-14:25:41.493|56=MA|10=124|8=FIX.4.4|9=53|35=0|34=222|49=MMMAQA|52=20201015-14:27:11.495|56=MA|10=126|8=FIX.4.4|9=53|35=0|34=223|49=MMMAQA|52=20201015-14:28:41.495|56=MA|10=131|8=FIX.4.4|9=53|35=0|34=224|49=MMMAQA|52=20201015-14:30:11.496|56=MA|10=123|8=FIX.4.4|9=53|35=0|34=225|49=MMMAQA|52=20201015-14:31:41.498|56=MA|10=130|8=FIX.4.4|9=53|35=0|34=226|49=MMMAQA|52=20201015-14:33:11.499|56=MA|10=131|8=FIX.4.4|9=53|35=0|34=227|49=MMMAQA|52=20201015-14:34:42.498|56=MA|10=136|8=FIX.4.4|9=53|35=0|34=228|49=MMMAQA|52=20201015-14:36:12.500|56=MA|10=120|8=FIX.4.4|9=53|35=0|34=229|49=MMMAQA|52=20201015-14:37:42.500|56=MA|10=125|8=FIX.4.4|9=53|35=0|34=230|49=MMMAQA|52=20201015-14:39:12.501|56=MA|10=117|8=FIX.4.4|9=53|35=0|34=231|49=MMMAQA|52=20201015-14:40:42.501|56=MA|10=113|8=FIX.4.4|9=53|35=0|34=232|49=MMMAQA|52=20201015-14:42:12.502|56=MA|10=114|8=FIX.4.4|9=53|35=0|34=233|49=MMMAQA|52=20201015-14:43:42.503|56=MA|10=120|8=FIX.4.4|9=53|35=0|34=234|49=MMMAQA|52=20201015-14:45:12.504|56=MA|10=121|8=FIX.4.4|9=53|35=0|34=235|49=MMMAQA|52=20201015-14:46:43.503|56=MA|10=126|8=FIX.4.4|9=53|35=0|34=236|49=MMMAQA|52=20201015-14:48:13.504|56=MA|10=127|8=FIX.4.4|9=53|35=0|34=237|49=MMMAQA|52=20201015-14:49:43.505|56=MA|10=133|8=FIX.4.4|9=53|35=0|34=238|49=MMMAQA|52=20201015-14:51:13.505|56=MA|10=124|8=FIX.4.4|9=53|35=0|34=239|49=MMMAQA|52=20201015-14:52:44.506|56=MA|10=131|8=FIX.4.4|9=53|35=0|34=240|49=MMMAQA|52=20201015-14:54:15.504|56=MA|10=121|8=FIX.4.4|9=53|35=0|34=241|49=MMMAQA|52=20201015-14:55:45.505|56=MA|10=127|8=FIX.4.4|9=53|35=0|34=242|49=MMMAQA|52=20201015-14:57:15.506|56=MA|10=128|8=FIX.4.4|9=53|35=0|34=243|49=MMMAQA|52=20201015-14:58:46.505|56=MA|10=133|8=FIX.4.4|9=53|35=0|34=244|49=MMMAQA|52=20201015-15:00:16.506|56=MA|10=120|8=FIX.4.4|9=53|35=0|34=245|49=MMMAQA|52=20201015-15:01:46.506|56=MA|10=125|8=FIX.4.4|9=53|35=0|34=246|49=MMMAQA|52=20201015-15:03:16.506|56=MA|10=125|8=FIX.4.4|9=53|35=0|34=247|49=MMMAQA|52=20201015-15:04:46.506|56=MA|10=130|8=FIX.4.4|9=53|35=0|34=248|49=MMMAQA|52=20201015-15:06:16.506|56=MA|10=130|8=FIX.4.4|9=53|35=0|34=249|49=MMMAQA|52=20201015-15:07:46.506|56=MA|10=135|8=FIX.4.4|9=53|35=0|34=250|49=MMMAQA|52=20201015-15:09:16.507|56=MA|10=127|8=FIX.4.4|9=53|35=0|34=251|49=MMMAQA|52=20201015-15:10:47.506|56=MA|10=123|8=FIX.4.4|9=53|35=0|34=252|49=MMMAQA|52=20201015-15:12:17.508|56=MA|10=125|8=FIX.4.4|9=53|35=0|34=253|49=MMMAQA|52=20201015-15:13:48.507|56=MA|10=130|8=FIX.4.4|9=53|35=0|34=254|49=MMMAQA|52=20201015-15:15:18.507|56=MA|10=130|8=FIX.4.4|9=53|35=0|34=255|49=MMMAQA|52=20201015-15:16:49.507|56=MA|10=136|8=FIX.4.4|9=53|35=0|34=256|49=MMMAQA|52=20201015-15:18:19.508|56=MA|10=137|8=FIX.4.4|9=53|35=0|34=257|49=MMMAQA|52=20201015-15:19:50.507|56=MA|10=133|8=FIX.4.4|9=53|35=0|34=258|49=MMMAQA|52=20201015-15:21:20.509|56=MA|10=126|8=FIX.4.4|9=53|35=0|34=259|49=MMMAQA|52=20201015-15:22:50.509|56=MA|10=131|8=FIX.4.4|9=53|35=0|34=260|49=MMMAQA|52=20201015-15:24:20.510|56=MA|10=114|8=FIX.4.4|9=53|35=0|34=261|49=MMMAQA|52=20201015-15:25:50.511|56=MA|10=120|8=FIX.4.4|9=53|35=0|34=262|49=MMMAQA|52=20201015-15:27:20.513|56=MA|10=122|8=FIX.4.4|9=53|35=0|34=263|49=MMMAQA|52=20201015-15:28:50.515|56=MA|10=129|8=FIX.4.4|9=53|35=0|34=264|49=MMMAQA|52=20201015-15:30:20.516|56=MA|10=121|8=FIX.4.4|9=53|35=0|34=265|49=MMMAQA|52=20201015-15:31:50.517|56=MA|10=127|8=FIX.4.4|9=53|35=0|34=266|49=MMMAQA|52=20201015-15:33:20.517|56=MA|10=127|8=FIX.4.4|9=53|35=0|34=267|49=MMMAQA|52=20201015-15:34:50.519|56=MA|10=134|8=FIX.4.4|9=53|35=0|34=268|49=MMMAQA|52=20201015-15:36:20.519|56=MA|10=134|8=FIX.4.4|9=53|35=0|34=269|49=MMMAQA|52=20201015-15:37:50.521|56=MA|10=132|8=FIX.4.4|9=53|35=0|34=270|49=MMMAQA|52=20201015-15:39:20.521|56=MA|10=123|8=FIX.4.4|9=53|35=0|34=271|49=MMMAQA|52=20201015-15:40:50.522|56=MA|10=120|8=FIX.4.4|9=53|35=0|34=272|49=MMMAQA|52=20201015-15:42:20.524|56=MA|10=122|8=FIX.4.4|9=53|35=0|34=273|49=MMMAQA|52=20201015-15:43:50.524|56=MA|10=127|8=FIX.4.4|9=53|35=0|34=274|49=MMMAQA|52=20201015-15:45:20.524|56=MA|10=127|8=FIX.4.4|9=53|35=0|34=275|49=MMMAQA|52=20201015-15:46:50.525|56=MA|10=133|8=FIX.4.4|9=53|35=0|34=276|49=MMMAQA|52=20201015-15:48:20.525|56=MA|10=133|8=FIX.4.4|9=53|35=0|34=277|49=MMMAQA|52=20201015-15:49:50.526|56=MA|10=139|8=FIX.4.4|9=53|35=0|34=278|49=MMMAQA|52=20201015-15:51:20.526|56=MA|10=130|8=FIX.4.4|9=53|35=0|34=279|49=MMMAQA|52=20201015-15:52:50.527|56=MA|10=136|8=FIX.4.4|9=53|35=0|34=280|49=MMMAQA|52=20201015-15:54:20.528|56=MA|10=128|8=FIX.4.4|9=53|35=0|34=281|49=MMMAQA|52=20201015-15:55:50.529|56=MA|10=134|8=FIX.4.4|9=53|35=0|34=282|49=MMMAQA|52=20201015-15:57:20.529|56=MA|10=134|8=FIX.4.4|9=53|35=0|34=283|49=MMMAQA|52=20201015-15:58:50.529|56=MA|10=139|8=FIX.4.4|9=53|35=0|34=284|49=MMMAQA|52=20201015-16:00:20.531|56=MA|10=118|8=FIX.4.4|9=53|35=0|34=285|49=MMMAQA|52=20201015-16:01:51.530|56=MA|10=123|8=FIX.4.4|9=53|35=0|34=286|49=MMMAQA|52=20201015-16:03:21.532|56=MA|10=125|8=FIX.4.4|9=53|35=0|34=287|49=MMMAQA|52=20201015-16:04:51.532|56=MA|10=130|8=FIX.4.4|9=53|35=0|34=288|49=MMMAQA|52=20201015-16:06:21.532|56=MA|10=130|8=FIX.4.4|9=53|35=0|34=289|49=MMMAQA|52=20201015-16:07:51.533|56=MA|10=136|8=FIX.4.4|9=53|35=0|34=290|49=MMMAQA|52=20201015-16:09:21.534|56=MA|10=128|8=FIX.4.4|9=53|35=0|34=291|49=MMMAQA|52=20201015-16:10:52.533|56=MA|10=124|8=FIX.4.4|9=53|35=0|34=292|49=MMMAQA|52=20201015-16:12:22.533|56=MA|10=124|8=FIX.4.4|9=53|35=0|34=293|49=MMMAQA|52=20201015-16:13:52.533|56=MA|10=129|8=FIX.4.4|9=53|35=0|34=294|49=MMMAQA|52=20201015-16:15:22.534|56=MA|10=130|8=FIX.4.4|9=53|35=0|34=295|49=MMMAQA|52=20201015-16:16:52.534|56=MA|10=135|8=FIX.4.4|9=53|35=0|34=296|49=MMMAQA|52=20201015-16:18:22.534|56=MA|10=135|8=FIX.4.4|9=53|35=0|34=297|49=MMMAQA|52=20201015-16:19:52.535|56=MA|10=141|8=FIX.4.4|9=53|35=0|34=298|49=MMMAQA|52=20201015-16:21:22.536|56=MA|10=133|8=FIX.4.4|9=53|35=0|34=299|49=MMMAQA|52=20201015-16:22:52.536|56=MA|10=138|8=FIX.4.4|9=53|35=0|34=300|49=MMMAQA|52=20201015-16:24:22.536|56=MA|10=120|8=FIX.4.4|9=53|35=0|34=301|49=MMMAQA|52=20201015-16:25:52.536|56=MA|10=125|8=FIX.4.4|9=53|35=0|34=302|49=MMMAQA|52=20201015-16:27:22.538|56=MA|10=127|8=FIX.4.4|9=53|35=0|34=303|49=MMMAQA|52=20201015-16:28:53.536|56=MA|10=131|8=FIX.4.4|9=53|35=0|34=304|49=MMMAQA|52=20201015-16:30:23.538|56=MA|10=124|8=FIX.4.4|9=53|35=0|34=305|49=MMMAQA|52=20201015-16:31:53.542|56=MA|10=124|8=FIX.4.4|9=53|35=0|34=306|49=MMMAQA|52=20201015-16:33:23.543|56=MA|10=125|8=FIX.4.4|9=53|35=0|34=307|49=MMMAQA|52=20201015-16:34:53.545|56=MA|10=132|8=FIX.4.4|9=53|35=0|34=308|49=MMMAQA|52=20201015-16:36:23.546|56=MA|10=133|8=FIX.4.4|9=53|35=0|34=309|49=MMMAQA|52=20201015-16:37:53.549|56=MA|10=141|8=FIX.4.4|9=53|35=0|34=310|49=MMMAQA|52=20201015-16:39:23.550|56=MA|10=124|8=FIX.4.4|9=53|35=0|34=311|49=MMMAQA|52=20201015-16:40:53.552|56=MA|10=122|8=FIX.4.4|9=53|35=0|34=312|49=MMMAQA|52=20201015-16:42:23.554|56=MA|10=124|8=FIX.4.4|9=53|35=0|34=313|49=MMMAQA|52=20201015-16:43:53.556|56=MA|10=131|8=FIX.4.4|9=53|35=0|34=314|49=MMMAQA|52=20201015-16:45:23.557|56=MA|10=132|8=FIX.4.4|9=53|35=0|34=315|49=MMMAQA|52=20201015-16:46:53.558|56=MA|10=138|8=FIX.4.4|9=53|35=0|34=316|49=MMMAQA|52=20201015-16:48:23.560|56=MA|10=131|8=FIX.4.4|9=53|35=0|34=317|49=MMMAQA|52=20201015-16:49:53.562|56=MA|10=138|8=FIX.4.4|9=53|35=0|34=318|49=MMMAQA|52=20201015-16:51:23.564|56=MA|10=131|8=FIX.4.4|9=53|35=0|34=319|49=MMMAQA|52=20201015-16:52:53.564|56=MA|10=136|8=FIX.4.4|9=53|35=0|34=320|49=MMMAQA|52=20201015-16:54:23.566|56=MA|10=129|8=FIX.4.4|9=53|35=0|34=321|49=MMMAQA|52=20201015-16:55:53.567|56=MA|10=135|8=FIX.4.4|9=53|35=0|34=322|49=MMMAQA|52=20201015-16:57:23.568|56=MA|10=136|8=FIX.4.4|9=53|35=0|34=323|49=MMMAQA|52=20201015-16:58:53.569|56=MA|10=142|8=FIX.4.4|9=53|35=0|34=324|49=MMMAQA|52=20201015-17:00:23.570|56=MA|10=120|8=FIX.4.4|9=53|35=0|34=325|49=MMMAQA|52=20201015-17:01:53.571|56=MA|10=126|8=FIX.4.4|9=53|35=0|34=326|49=MMMAQA|52=20201015-17:03:23.573|56=MA|10=128|8=FIX.4.4|9=53|35=0|34=327|49=MMMAQA|52=20201015-17:04:53.573|56=MA|10=133|8=FIX.4.4|9=53|35=0|34=328|49=MMMAQA|52=20201015-17:06:23.575|56=MA|10=135|8=FIX.4.4|9=53|35=0|34=329|49=MMMAQA|52=20201015-17:07:54.575|56=MA|10=141|8=FIX.4.4|9=53|35=0|34=330|49=MMMAQA|52=20201015-17:09:24.576|56=MA|10=133|8=FIX.4.4|9=53|35=0|34=331|49=MMMAQA|52=20201015-17:10:55.575|56=MA|10=129|8=FIX.4.4|9=53|35=0|34=332|49=MMMAQA|52=20201015-17:12:25.576|56=MA|10=130|8=FIX.4.4|9=86|35=A|34=1|49=MMMAQA|52=20201123-15:34:44.470|56=MA|98=0|108=90|95=8|96=3.0.0rc5|141=Y|10=004|8=FIX.4.4|9=51|35=0|34=2|49=MMMAQA|52=20201123-15:36:14.470|56=MA|10=021|8=FIX.4.4|9=51|35=0|34=3|49=MMMAQA|52=20201123-15:37:44.471|56=MA|10=027|8=FIX.4.4|9=51|35=0|34=4|49=MMMAQA|52=20201123-15:39:14.473|56=MA|10=029|8=FIX.4.4|9=51|35=0|34=5|49=MMMAQA|52=20201123-15:40:44.474|56=MA|10=026|8=FIX.4.4|9=51|35=0|34=6|49=MMMAQA|52=20201123-15:42:14.475|56=MA|10=027|8=FIX.4.4|9=51|35=0|34=7|49=MMMAQA|52=20201123-15:43:44.475|56=MA|10=032|8=FIX.4.4|9=51|35=0|34=8|49=MMMAQA|52=20201123-15:45:14.478|56=MA|10=035|8=FIX.4.4|9=51|35=0|34=9|49=MMMAQA|52=20201123-15:46:45.477|56=MA|10=040|8=FIX.4.4|9=52|35=0|34=10|49=MMMAQA|52=20201123-15:48:15.478|56=MA|10=081|8=FIX.4.4|9=52|35=0|34=11|49=MMMAQA|52=20201123-15:49:45.478|56=MA|10=086|8=FIX.4.4|9=52|35=0|34=12|49=MMMAQA|52=20201123-15:51:15.479|56=MA|10=078|8=FIX.4.4|9=52|35=0|34=13|49=MMMAQA|52=20201123-15:52:45.480|56=MA|10=075|8=FIX.4.4|9=52|35=0|34=14|49=MMMAQA|52=20201123-15:54:15.480|56=MA|10=075|8=FIX.4.4|9=52|35=0|34=15|49=MMMAQA|52=20201123-15:55:45.481|56=MA|10=081|8=FIX.4.4|9=52|35=0|34=16|49=MMMAQA|52=20201123-15:57:15.481|56=MA|10=081|8=FIX.4.4|9=52|35=0|34=17|49=MMMAQA|52=20201123-15:58:45.481|56=MA|10=086|8=FIX.4.4|9=52|35=0|34=18|49=MMMAQA|52=20201123-16:00:15.483|56=MA|10=074|8=FIX.4.4|9=52|35=0|34=19|49=MMMAQA|52=20201123-16:01:46.481|56=MA|10=078|8=FIX.4.4|9=52|35=0|34=20|49=MMMAQA|52=20201123-16:03:16.482|56=MA|10=070|8=FIX.4.4|9=52|35=0|34=21|49=MMMAQA|52=20201123-16:04:46.484|56=MA|10=077|8=FIX.4.4|9=52|35=0|34=22|49=MMMAQA|52=20201123-16:06:17.482|56=MA|10=076|8=FIX.4.4|9=52|35=0|34=23|49=MMMAQA|52=20201123-16:07:47.483|56=MA|10=082|8=FIX.4.4|9=52|35=0|34=24|49=MMMAQA|52=20201123-16:09:17.483|56=MA|10=082|8=FIX.4.4|9=52|35=0|34=25|49=MMMAQA|52=20201123-16:10:47.483|56=MA|10=078|8=FIX.4.4|9=52|35=0|34=26|49=MMMAQA|52=20201123-16:12:17.483|56=MA|10=078|8=FIX.4.4|9=52|35=0|34=27|49=MMMAQA|52=20201123-16:13:47.483|56=MA|10=083|8=FIX.4.4|9=52|35=0|34=28|49=MMMAQA|52=20201123-16:15:17.483|56=MA|10=083|8=FIX.4.4|9=52|35=0|34=29|49=MMMAQA|52=20201123-16:16:47.483|56=MA|10=088|8=FIX.4.4|9=52|35=0|34=30|49=MMMAQA|52=20201123-16:18:17.484|56=MA|10=080|8=FIX.4.4|9=52|35=0|34=31|49=MMMAQA|52=20201123-16:19:48.483|56=MA|10=085|8=FIX.4.4|9=52|35=0|34=32|49=MMMAQA|52=20201123-16:21:19.482|56=MA|10=076|8=FIX.4.4|9=52|35=0|34=33|49=MMMAQA|52=20201123-16:22:49.483|56=MA|10=082|8=FIX.4.4|9=52|35=0|34=34|49=MMMAQA|52=20201123-16:24:19.483|56=MA|10=082|8=FIX.4.4|9=52|35=0|34=35|49=MMMAQA|52=20201123-16:25:50.483|56=MA|10=079|8=FIX.4.4|9=52|35=0|34=36|49=MMMAQA|52=20201123-16:27:21.482|56=MA|10=079|8=FIX.4.4|9=52|35=0|34=37|49=MMMAQA|52=20201123-16:28:52.482|56=MA|10=085|8=FIX.4.4|9=52|35=0|34=38|49=MMMAQA|52=20201123-16:30:23.480|56=MA|10=075|8=FIX.4.4|9=52|35=0|34=39|49=MMMAQA|52=20201123-16:31:53.481|56=MA|10=081|8=FIX.4.4|9=52|35=0|34=40|49=MMMAQA|52=20201123-16:33:24.480|56=MA|10=072|8=FIX.4.4|9=52|35=0|34=41|49=MMMAQA|52=20201123-16:34:54.480|56=MA|10=077|8=FIX.4.4|9=52|35=0|34=42|49=MMMAQA|52=20201123-16:36:25.480|56=MA|10=078|8=FIX.4.4|9=52|35=0|34=43|49=MMMAQA|52=20201123-16:37:55.480|56=MA|10=083|8=FIX.4.4|9=52|35=0|34=44|49=MMMAQA|52=20201123-16:39:26.479|56=MA|10=092|8=FIX.4.4|9=52|35=0|34=45|49=MMMAQA|52=20201123-16:40:56.479|56=MA|10=088|8=FIX.4.4|9=52|35=0|34=46|49=MMMAQA|52=20201123-16:42:26.480|56=MA|10=080|8=FIX.4.4|9=52|35=0|34=47|49=MMMAQA|52=20201123-16:43:57.479|56=MA|10=094|8=FIX.4.4|9=52|35=0|34=48|49=MMMAQA|52=20201123-16:45:27.479|56=MA|10=094|8=FIX.4.4|9=52|35=0|34=49|49=MMMAQA|52=20201123-16:46:58.480|56=MA|10=092|8=FIX.4.4|9=52|35=0|34=50|49=MMMAQA|52=20201123-16:48:29.479|56=MA|10=092|8=FIX.4.4|9=52|35=0|34=51|49=MMMAQA|52=20201123-16:49:59.479|56=MA|10=097|8=FIX.4.4|9=52|35=0|34=52|49=MMMAQA|52=20201123-16:51:30.478|56=MA|10=079|8=FIX.4.4|9=52|35=0|34=53|49=MMMAQA|52=20201123-16:53:00.479|56=MA|10=080|8=FIX.4.4|9=52|35=0|34=54|49=MMMAQA|52=20201123-16:54:30.479|56=MA|10=085|8=FIX.4.4|9=52|35=0|34=55|49=MMMAQA|52=20201123-16:56:01.478|56=MA|10=085|8=FIX.4.4|9=52|35=0|34=56|49=MMMAQA|52=20201123-16:57:31.478|56=MA|10=090|8=FIX.4.4|9=52|35=0|34=57|49=MMMAQA|52=20201123-16:59:01.479|56=MA|10=091|8=FIX.4.4|9=52|35=0|34=58|49=MMMAQA|52=20201123-17:00:32.477|56=MA|10=081|8=FIX.4.4|9=52|35=0|34=59|49=MMMAQA|52=20201123-17:02:02.478|56=MA|10=082|8=FIX.4.4|9=52|35=0|34=60|49=MMMAQA|52=20201123-17:03:32.478|56=MA|10=078|8=FIX.4.4|9=52|35=0|34=61|49=MMMAQA|52=20201123-17:05:03.478|56=MA|10=079|8=FIX.4.4|9=52|35=0|34=62|49=MMMAQA|52=20201123-17:06:33.479|56=MA|10=085|8=FIX.4.4|9=52|35=0|34=63|49=MMMAQA|52=20201123-17:08:03.479|56=MA|10=085|8=FIX.4.4|9=52|35=0|34=64|49=MMMAQA|52=20201123-17:09:34.478|56=MA|10=090|8=FIX.4.4|9=52|35=0|34=65|49=MMMAQA|52=20201123-17:11:04.478|56=MA|10=081|8=FIX.4.4|9=52|35=0|34=66|49=MMMAQA|52=20201123-17:12:34.478|56=MA|10=086|8=FIX.4.4|9=52|35=0|34=67|49=MMMAQA|52=20201123-17:14:04.478|56=MA|10=086|8=FIX.4.4|9=52|35=0|34=68|49=MMMAQA|52=20201123-17:15:34.478|56=MA|10=091|8=FIX.4.4|9=52|35=0|34=69|49=MMMAQA|52=20201123-17:17:05.477|56=MA|10=091|8=FIX.4.4|9=52|35=0|34=70|49=MMMAQA|52=20201123-17:18:35.478|56=MA|10=088|8=FIX.4.4|9=52|35=0|34=71|49=MMMAQA|52=20201123-17:20:05.478|56=MA|10=079|8=FIX.4.4|9=52|35=0|34=72|49=MMMAQA|52=20201123-17:21:35.478|56=MA|10=084|8=FIX.4.4|9=52|35=0|34=73|49=MMMAQA|52=20201123-17:23:05.479|56=MA|10=085|8=FIX.4.4|9=52|35=0|34=74|49=MMMAQA|52=20201123-17:24:36.478|56=MA|10=090|8=FIX.4.4|9=52|35=0|34=75|49=MMMAQA|52=20201123-17:26:06.480|56=MA|10=083|8=FIX.4.4|9=52|35=0|34=76|49=MMMAQA|52=20201123-17:27:36.483|56=MA|10=091|8=FIX.4.4|9=52|35=0|34=77|49=MMMAQA|52=20201123-17:29:06.484|56=MA|10=092|8=FIX.4.4|9=52|35=0|34=78|49=MMMAQA|52=20201123-17:30:36.486|56=MA|10=090|8=FIX.4.4|9=52|35=0|34=79|49=MMMAQA|52=20201123-17:32:06.488|56=MA|10=092|8=FIX.4.4|9=52|35=0|34=80|49=MMMAQA|52=20201123-17:33:36.491|56=MA|10=082|8=FIX.4.4|9=52|35=0|34=81|49=MMMAQA|52=20201123-17:35:06.492|56=MA|10=083|8=FIX.4.4|9=52|35=0|34=82|49=MMMAQA|52=20201123-17:36:36.494|56=MA|10=090|8=FIX.4.4|9=52|35=0|34=83|49=MMMAQA|52=20201123-17:38:06.496|56=MA|10=092|8=FIX.4.4|9=52|35=0|34=84|49=MMMAQA|52=20201123-17:39:36.499|56=MA|10=100|8=FIX.4.4|9=52|35=0|34=85|49=MMMAQA|52=20201123-17:41:06.499|56=MA|10=091|8=FIX.4.4|9=52|35=0|34=86|49=MMMAQA|52=20201123-17:42:36.501|56=MA|10=080|8=FIX.4.4|9=52|35=0|34=87|49=MMMAQA|52=20201123-17:44:06.502|56=MA|10=081|8=FIX.4.4|9=52|35=0|34=88|49=MMMAQA|52=20201123-17:45:36.504|56=MA|10=088|8=FIX.4.4|9=52|35=0|34=89|49=MMMAQA|52=20201123-17:47:06.504|56=MA|10=088|8=FIX.4.4|9=52|35=0|34=90|49=MMMAQA|52=20201123-17:48:36.506|56=MA|10=086|8=FIX.4.4|9=52|35=0|34=91|49=MMMAQA|52=20201123-17:50:06.507|56=MA|10=078|8=FIX.4.4|9=52|35=0|34=92|49=MMMAQA|52=20201123-17:51:36.509|56=MA|10=085|8=FIX.4.4|9=52|35=0|34=93|49=MMMAQA|52=20201123-17:53:06.509|56=MA|10=085|8=FIX.4.4|9=52|35=0|34=94|49=MMMAQA|52=20201123-17:54:36.511|56=MA|10=083|8=FIX.4.4|9=52|35=0|34=95|49=MMMAQA|52=20201123-17:56:06.512|56=MA|10=084|8=FIX.4.4|9=52|35=0|34=96|49=MMMAQA|52=20201123-17:57:36.513|56=MA|10=090|8=FIX.4.4|9=52|35=0|34=97|49=MMMAQA|52=20201123-17:59:06.513|56=MA|10=090|8=FIX.4.4|9=52|35=0|34=98|49=MMMAQA|52=20201123-18:00:36.514|56=MA|10=082|8=FIX.4.4|9=52|35=0|34=99|49=MMMAQA|52=20201123-18:02:06.515|56=MA|10=083|8=FIX.4.4|9=53|35=0|34=100|49=MMMAQA|52=20201123-18:03:36.517|56=MA|10=121|8=FIX.4.4|9=53|35=0|34=101|49=MMMAQA|52=20201123-18:05:06.518|56=MA|10=122|8=FIX.4.4|9=53|35=0|34=102|49=MMMAQA|52=20201123-18:06:36.518|56=MA|10=127|8=FIX.4.4|9=53|35=0|34=103|49=MMMAQA|52=20201123-18:08:06.518|56=MA|10=127|8=FIX.4.4|9=53|35=0|34=104|49=MMMAQA|52=20201123-18:09:36.519|56=MA|10=133|8=FIX.4.4|9=53|35=0|34=105|49=MMMAQA|52=20201123-18:11:06.520|56=MA|10=116|8=FIX.4.4|9=53|35=0|34=106|49=MMMAQA|52=20201123-18:12:36.520|56=MA|10=121|8=FIX.4.4|9=53|35=0|34=107|49=MMMAQA|52=20201123-18:14:06.521|56=MA|10=122|8=FIX.4.4|9=53|35=0|34=108|49=MMMAQA|52=20201123-18:15:36.521|56=MA|10=127|8=FIX.4.4|9=53|35=0|34=109|49=MMMAQA|52=20201123-18:17:06.522|56=MA|10=128|8=FIX.4.4|9=53|35=0|34=110|49=MMMAQA|52=20201123-18:18:36.523|56=MA|10=125|8=FIX.4.4|9=53|35=0|34=111|49=MMMAQA|52=20201123-18:20:06.523|56=MA|10=116|8=FIX.4.4|9=53|35=0|34=112|49=MMMAQA|52=20201123-18:21:36.523|56=MA|10=121|8=FIX.4.4|9=53|35=0|34=113|49=MMMAQA|52=20201123-18:23:06.525|56=MA|10=123|8=FIX.4.4|9=53|35=0|34=114|49=MMMAQA|52=20201123-18:24:36.525|56=MA|10=128|8=FIX.4.4|9=53|35=0|34=115|49=MMMAQA|52=20201123-18:26:06.525|56=MA|10=128|8=FIX.4.4|9=53|35=0|34=116|49=MMMAQA|52=20201123-18:27:36.526|56=MA|10=134|8=FIX.4.4|9=53|35=0|34=117|49=MMMAQA|52=20201123-18:29:06.526|56=MA|10=134|8=FIX.4.4|9=53|35=0|34=118|49=MMMAQA|52=20201123-18:30:36.526|56=MA|10=130|8=FIX.4.4|9=53|35=0|34=119|49=MMMAQA|52=20201123-18:32:06.526|56=MA|10=130|8=FIX.4.4|9=53|35=0|34=120|49=MMMAQA|52=20201123-18:33:36.528|56=MA|10=128|8=FIX.4.4|9=86|35=A|34=1|49=MMMAQA|52=20201216-10:14:43.641|56=MA|98=0|108=90|95=8|96=3.0.0rc5|141=Y|10=255|8=FIX.4.4|9=51|35=5|34=2|49=MMMAQA|52=20201216-10:14:47.641|56=MA|10=026|8=FIX.4.4|9=86|35=A|34=1|49=MMMAQA|52=20210114-17:08:42.541|56=MA|98=0|108=90|95=8|96=3.0.0rc5|141=Y|10=004|8=FIX.4.4|9=51|35=5|34=2|49=MMMAQA|52=20210114-17:08:45.539|56=MA|10=037|