8=FIX.4.4|9=91|35=A|34=1|49=T1Kauaiblk4|52=20210203-10:43:49.689|56=MA|98=0|108=90|95=8|96=3.0.0rc5|141=Y|10=046|8=FIX.4.4|9=699|35=E|34=2|49=T1Kauaiblk4|52=20210203-10:43:54.680|56=MA|66=ListID-030221-1354|394=2|68=5|73=5|11=ClOrdID-1355|22=4|38=100000|44=100|48=US06051GEN51|54=1|55=[N/A/]|63=3|67=1|423=1|29726=100.25|453=1|448=T1Kauaiblk4|447=C|452=11|11=ClOrdID-1356|22=4|38=100000|44=101|48=US40434AAB52|54=1|55=[N/A]|63=3|67=2|29726=101.25|11=ClOrdID-1357|22=4|38=130000|44=102|48=US95709TAH32|54=1|55=[N/A/]|63=3|67=1|29726=102.25|453=1|448=T1Kauaiblk4|447=C|452=11|11=ClOrdID-1358|22=4|38=250000|44=103|48=US025676AH01|54=1|55=[N/A/]|63=3|67=1|29726=103.25|453=1|448=T1Kauaiblk4|447=C|452=11|11=ClOrdID-1359|22=4|38=350000|44=104|48=US29379VAW37|54=1|55=[N/A/]|63=3|67=1|29726=104.25|453=1|448=T1Kauaiblk4|447=C|452=11|10=112|8=FIX.4.4|9=56|35=5|34=3|49=T1Kauaiblk4|52=20210203-10:44:45.689|56=MA|10=076|8=FIX.4.4|9=91|35=A|34=1|49=T1Kauaiblk4|52=20210215-14:52:37.080|56=MA|98=0|108=90|95=8|96=3.0.0rc5|141=Y|10=035|8=FIX.4.4|9=718|35=E|34=2|49=T1Kauaiblk4|52=20210215-14:53:04.679|56=MA|66=ListID-B110222-1258|394=2|68=5|73=5|11=ClOrdID-1259|22=4|38=1000000|44=100.261|48=US06051GEN51|54=1|55=[N/A/]|63=3|67=1|423=1|29726=100.262|453=1|448=T1Kauaiblk4|447=C|452=11|11=ClOrdID-1260|22=4|38=2000000|44=101|48=US40434AAB52|54=1|55=[N/A]|63=3|67=2|29726=101.25|11=ClOrdID-1261|22=4|38=1300000|44=102.251|48=US95709TAH32|54=1|55=[N/A/]|63=3|67=1|29726=102.25|453=1|448=T1Kauaiblk4|447=C|452=11|11=ClOrdID-1262|22=4|38=250000|44=103.1|48=US427866AZ15|54=1|55=[N/A/]|63=3|67=1|29726=103.25|453=1|448=T1Kauaiblk4|447=C|452=11|11=ClOrdID-1263|22=4|38=350000|44=104.231|48=US29379VAW37|54=1|55=[N/A/]|63=3|67=1|29726=104.25|453=1|448=T1Kauaiblk4|447=C|452=11|10=053|8=FIX.4.4|9=56|35=0|34=3|49=T1Kauaiblk4|52=20210215-14:54:35.074|56=MA|10=066|8=FIX.4.4|9=718|35=E|34=4|49=T1Kauaiblk4|52=20210215-14:54:38.967|56=MA|66=ListID-B150221-1264|394=2|68=5|73=5|11=ClOrdID-1265|22=4|38=1000000|44=100.261|48=US06051GEN51|54=1|55=[N/A/]|63=3|67=1|423=1|29726=100.262|453=1|448=T1Kauaiblk4|447=C|452=11|11=ClOrdID-1266|22=4|38=2000000|44=101|48=US40434AAB52|54=1|55=[N/A]|63=3|67=2|29726=101.25|11=ClOrdID-1267|22=4|38=1300000|44=102.251|48=US95709TAH32|54=1|55=[N/A/]|63=3|67=1|29726=102.25|453=1|448=T1Kauaiblk4|447=C|452=11|11=ClOrdID-1268|22=4|38=250000|44=103.1|48=US427866AZ15|54=1|55=[N/A/]|63=3|67=1|29726=103.25|453=1|448=T1Kauaiblk4|447=C|452=11|11=ClOrdID-1269|22=4|38=350000|44=104.231|48=US29379VAW37|54=1|55=[N/A/]|63=3|67=1|29726=104.25|453=1|448=T1Kauaiblk4|447=C|452=11|10=084|8=FIX.4.4|9=718|35=E|34=5|49=T1Kauaiblk4|52=20210215-14:55:10.093|56=MA|66=ListID-B150221-1270|394=2|68=5|73=5|11=ClOrdID-1271|22=4|38=1000000|44=100.261|48=US06051GEN51|54=1|55=[N/A/]|63=3|67=1|423=1|29726=100.262|453=1|448=T1Kauaiblk4|447=C|452=11|11=ClOrdID-1272|22=4|38=2000000|44=101|48=US40434AAB52|54=1|55=[N/A]|63=3|67=2|29726=101.25|11=ClOrdID-1273|22=4|38=1300000|44=102.251|48=US95709TAH32|54=1|55=[N/A/]|63=3|67=1|29726=102.25|453=1|448=T1Kauaiblk4|447=C|452=11|11=ClOrdID-1274|22=4|38=250000|44=103.1|48=US427866AZ15|54=1|55=[N/A/]|63=3|67=1|29726=103.25|453=1|448=T1Kauaiblk4|447=C|452=11|11=ClOrdID-1275|22=4|38=350000|44=104.231|48=US29379VAW37|54=1|55=[N/A/]|63=3|67=1|29726=104.25|453=1|448=T1Kauaiblk4|447=C|452=11|10=048|8=FIX.4.4|9=718|35=E|34=6|49=T1Kauaiblk4|52=20210215-14:55:10.690|56=MA|66=ListID-B150221-1276|394=2|68=5|73=5|11=ClOrdID-1277|22=4|38=1000000|44=100.261|48=US06051GEN51|54=1|55=[N/A/]|63=3|67=1|423=1|29726=100.262|453=1|448=T1Kauaiblk4|447=C|452=11|11=ClOrdID-1278|22=4|38=2000000|44=101|48=US40434AAB52|54=1|55=[N/A]|63=3|67=2|29726=101.25|11=ClOrdID-1279|22=4|38=1300000|44=102.251|48=US95709TAH32|54=1|55=[N/A/]|63=3|67=1|29726=102.25|453=1|448=T1Kauaiblk4|447=C|452=11|11=ClOrdID-1280|22=4|38=250000|44=103.1|48=US427866AZ15|54=1|55=[N/A/]|63=3|67=1|29726=103.25|453=1|448=T1Kauaiblk4|447=C|452=11|11=ClOrdID-1281|22=4|38=350000|44=104.231|48=US29379VAW37|54=1|55=[N/A/]|63=3|67=1|29726=104.25|453=1|448=T1Kauaiblk4|447=C|452=11|10=070|8=FIX.4.4|9=718|35=E|34=7|49=T1Kauaiblk4|52=20210215-14:55:11.206|56=MA|66=ListID-B150221-1282|394=2|68=5|73=5|11=ClOrdID-1283|22=4|38=1000000|44=100.261|48=US06051GEN51|54=1|55=[N/A/]|63=3|67=1|423=1|29726=100.262|453=1|448=T1Kauaiblk4|447=C|452=11|11=ClOrdID-1284|22=4|38=2000000|44=101|48=US40434AAB52|54=1|55=[N/A]|63=3|67=2|29726=101.25|11=ClOrdID-1285|22=4|38=1300000|44=102.251|48=US95709TAH32|54=1|55=[N/A/]|63=3|67=1|29726=102.25|453=1|448=T1Kauaiblk4|447=C|452=11|11=ClOrdID-1286|22=4|38=250000|44=103.1|48=US427866AZ15|54=1|55=[N/A/]|63=3|67=1|29726=103.25|453=1|448=T1Kauaiblk4|447=C|452=11|11=ClOrdID-1287|22=4|38=350000|44=104.231|48=US29379VAW37|54=1|55=[N/A/]|63=3|67=1|29726=104.25|453=1|448=T1Kauaiblk4|447=C|452=11|10=065|8=FIX.4.4|9=56|35=0|34=8|49=T1Kauaiblk4|52=20210215-14:56:42.075|56=MA|10=072|8=FIX.4.4|9=56|35=0|34=9|49=T1Kauaiblk4|52=20210215-14:58:12.076|56=MA|10=073|8=FIX.4.4|9=57|35=0|34=10|49=T1Kauaiblk4|52=20210215-14:59:42.076|56=MA|10=118|8=FIX.4.4|9=57|35=0|34=11|49=T1Kauaiblk4|52=20210215-15:01:12.479|56=MA|10=111|8=FIX.4.4|9=57|35=0|34=12|49=T1Kauaiblk4|52=20210215-15:02:43.075|56=MA|10=109|8=FIX.4.4|9=57|35=0|34=13|49=T1Kauaiblk4|52=20210215-15:04:13.076|56=MA|10=110|8=FIX.4.4|9=79|35=5|34=14|49=T1Kauaiblk4|52=20210215-15:04:57.075|56=MA|58=Session Tab Closed|10=191|8=FIX.4.4|9=91|35=A|34=1|49=T1Kauaiblk4|52=20210216-09:19:41.980|56=MA|98=0|108=90|95=8|96=3.0.0rc5|141=Y|10=047|8=FIX.4.4|9=91|35=A|34=1|49=T1Kauaiblk4|52=20210216-09:20:04.979|56=MA|98=0|108=90|95=8|96=3.0.0rc5|141=Y|10=046|8=FIX.4.4|9=56|35=5|34=2|49=T1Kauaiblk4|52=20210216-09:20:23.979|56=MA|10=079|8=FIX.4.4|9=91|35=A|34=1|49=T1Kauaiblk4|52=20210216-09:20:25.980|56=MA|98=0|108=90|95=8|96=3.0.0rc5|141=Y|10=041|8=FIX.4.4|9=699|35=E|34=2|49=T1Kauaiblk4|52=20210216-09:21:49.858|56=MA|66=ListID-160221-1414|394=2|68=5|73=5|11=ClOrdID-1415|22=4|38=100000|44=100|48=US06051GEN51|54=1|55=[N/A/]|63=3|67=1|423=1|29726=100.25|453=1|448=T1Kauaiblk4|447=C|452=11|11=ClOrdID-1416|22=4|38=100000|44=101|48=US40434AAB52|54=1|55=[N/A]|63=3|67=2|29726=101.25|11=ClOrdID-1417|22=4|38=130000|44=102|48=US95709TAH32|54=1|55=[N/A/]|63=3|67=1|29726=102.25|453=1|448=T1Kauaiblk4|447=C|452=11|11=ClOrdID-1418|22=4|38=250000|44=103|48=US427866AZ15|54=1|55=[N/A/]|63=3|67=1|29726=103.25|453=1|448=T1Kauaiblk4|447=C|452=11|11=ClOrdID-1419|22=4|38=350000|44=104|48=US29379VAW37|54=1|55=[N/A/]|63=3|67=1|29726=104.25|453=1|448=T1Kauaiblk4|447=C|452=11|10=147|8=FIX.4.4|9=699|35=E|34=3|49=T1Kauaiblk4|52=20210216-09:21:52.983|56=MA|66=ListID-160221-1420|394=2|68=5|73=5|11=ClOrdID-1421|22=4|38=100000|44=100|48=US06051GEN51|54=1|55=[N/A/]|63=3|67=1|423=1|29726=100.25|453=1|448=T1Kauaiblk4|447=C|452=11|11=ClOrdID-1422|22=4|38=100000|44=101|48=US40434AAB52|54=1|55=[N/A]|63=3|67=2|29726=101.25|11=ClOrdID-1423|22=4|38=130000|44=102|48=US95709TAH32|54=1|55=[N/A/]|63=3|67=1|29726=102.25|453=1|448=T1Kauaiblk4|447=C|452=11|11=ClOrdID-1424|22=4|38=250000|44=103|48=US427866AZ15|54=1|55=[N/A/]|63=3|67=1|29726=103.25|453=1|448=T1Kauaiblk4|447=C|452=11|11=ClOrdID-1425|22=4|38=350000|44=104|48=US29379VAW37|54=1|55=[N/A/]|63=3|67=1|29726=104.25|453=1|448=T1Kauaiblk4|447=C|452=11|10=123|8=FIX.4.4|9=699|35=E|34=4|49=T1Kauaiblk4|52=20210216-09:21:54.432|56=MA|66=ListID-160221-1426|394=2|68=5|73=5|11=ClOrdID-1427|22=4|38=100000|44=100|48=US06051GEN51|54=1|55=[N/A/]|63=3|67=1|423=1|29726=100.25|453=1|448=T1Kauaiblk4|447=C|452=11|11=ClOrdID-1428|22=4|38=100000|44=101|48=US40434AAB52|54=1|55=[N/A]|63=3|67=2|29726=101.25|11=ClOrdID-1429|22=4|38=130000|44=102|48=US95709TAH32|54=1|55=[N/A/]|63=3|67=1|29726=102.25|453=1|448=T1Kauaiblk4|447=C|452=11|11=ClOrdID-1430|22=4|38=250000|44=103|48=US427866AZ15|54=1|55=[N/A/]|63=3|67=1|29726=103.25|453=1|448=T1Kauaiblk4|447=C|452=11|11=ClOrdID-1431|22=4|38=350000|44=104|48=US29379VAW37|54=1|55=[N/A/]|63=3|67=1|29726=104.25|453=1|448=T1Kauaiblk4|447=C|452=11|10=133|8=FIX.4.4|9=56|35=0|34=5|49=T1Kauaiblk4|52=20210216-09:23:24.982|56=MA|10=075|8=FIX.4.4|9=56|35=0|34=6|49=T1Kauaiblk4|52=20210216-09:24:54.984|56=MA|10=082|8=FIX.4.4|9=56|35=0|34=7|49=T1Kauaiblk4|52=20210216-09:26:25.593|56=MA|10=079|8=FIX.4.4|9=56|35=0|34=8|49=T1Kauaiblk4|52=20210216-09:27:55.982|56=MA|10=086|8=FIX.4.4|9=56|35=0|34=9|49=T1Kauaiblk4|52=20210216-09:29:25.984|56=MA|10=088|8=FIX.4.4|9=57|35=0|34=10|49=T1Kauaiblk4|52=20210216-09:30:56.516|56=MA|10=116|8=FIX.4.4|9=57|35=0|34=11|49=T1Kauaiblk4|52=20210216-09:32:26.518|56=MA|10=118|8=FIX.4.4|9=57|35=0|34=12|49=T1Kauaiblk4|52=20210216-09:33:56.518|56=MA|10=123|8=FIX.4.4|9=57|35=0|34=13|49=T1Kauaiblk4|52=20210216-09:35:26.539|56=MA|10=126|8=FIX.4.4|9=57|35=0|34=14|49=T1Kauaiblk4|52=20210216-09:36:56.585|56=MA|10=132|8=FIX.4.4|9=57|35=0|34=15|49=T1Kauaiblk4|52=20210216-09:38:26.989|56=MA|10=140|8=FIX.4.4|9=57|35=0|34=16|49=T1Kauaiblk4|52=20210216-09:39:56.993|56=MA|10=140|8=FIX.4.4|9=57|35=0|34=17|49=T1Kauaiblk4|52=20210216-09:41:26.996|56=MA|10=134|8=FIX.4.4|9=57|35=0|34=18|49=T1Kauaiblk4|52=20210216-09:42:56.996|56=MA|10=139|8=FIX.4.4|9=57|35=0|34=19|49=T1Kauaiblk4|52=20210216-09:44:27.589|56=MA|10=138|8=FIX.4.4|9=57|35=0|34=20|49=T1Kauaiblk4|52=20210216-09:45:57.589|56=MA|10=134|8=FIX.4.4|9=57|35=0|34=21|49=T1Kauaiblk4|52=20210216-09:47:27.994|56=MA|10=134|8=FIX.4.4|9=57|35=0|34=22|49=T1Kauaiblk4|52=20210216-09:48:57.995|56=MA|10=140|8=FIX.4.4|9=57|35=0|34=23|49=T1Kauaiblk4|52=20210216-09:50:28.522|56=MA|10=118|8=FIX.4.4|9=57|35=0|34=24|49=T1Kauaiblk4|52=20210216-09:51:58.586|56=MA|10=133|8=FIX.4.4|9=57|35=0|34=25|49=T1Kauaiblk4|52=20210216-09:53:28.996|56=MA|10=138|8=FIX.4.4|9=57|35=0|34=26|49=T1Kauaiblk4|52=20210216-09:54:58.999|56=MA|10=146|8=FIX.4.4|9=57|35=0|34=27|49=T1Kauaiblk4|52=20210216-09:56:28.999|56=MA|10=146|8=FIX.4.4|9=57|35=0|34=28|49=T1Kauaiblk4|52=20210216-09:57:59.003|56=MA|10=128|8=FIX.4.4|9=57|35=0|34=29|49=T1Kauaiblk4|52=20210216-09:59:30.002|56=MA|10=119|8=FIX.4.4|9=57|35=0|34=30|49=T1Kauaiblk4|52=20210216-10:01:00.002|56=MA|10=087|8=FIX.4.4|9=57|35=0|34=31|49=T1Kauaiblk4|52=20210216-10:02:30.003|56=MA|10=093|8=FIX.4.4|9=57|35=0|34=32|49=T1Kauaiblk4|52=20210216-10:04:00.003|56=MA|10=093|8=FIX.4.4|9=57|35=0|34=33|49=T1Kauaiblk4|52=20210216-10:05:30.004|56=MA|10=099|8=FIX.4.4|9=57|35=0|34=34|49=T1Kauaiblk4|52=20210216-10:07:01.002|56=MA|10=098|8=FIX.4.4|9=57|35=0|34=35|49=T1Kauaiblk4|52=20210216-10:08:31.002|56=MA|10=103|8=FIX.4.4|9=57|35=0|34=36|49=T1Kauaiblk4|52=20210216-10:10:01.002|56=MA|10=094|8=FIX.4.4|9=57|35=0|34=37|49=T1Kauaiblk4|52=20210216-10:11:31.002|56=MA|10=099|8=FIX.4.4|9=57|35=0|34=38|49=T1Kauaiblk4|52=20210216-10:13:02.000|56=MA|10=098|8=FIX.4.4|9=57|35=0|34=39|49=T1Kauaiblk4|52=20210216-10:14:32.001|56=MA|10=104|8=FIX.4.4|9=57|35=0|34=40|49=T1Kauaiblk4|52=20210216-10:16:02.635|56=MA|10=108|8=FIX.4.4|9=57|35=0|34=41|49=T1Kauaiblk4|52=20210216-10:17:33.000|56=MA|10=100|8=FIX.4.4|9=57|35=0|34=42|49=T1Kauaiblk4|52=20210216-10:19:03.000|56=MA|10=100|8=FIX.4.4|9=57|35=0|34=43|49=T1Kauaiblk4|52=20210216-10:20:33.585|56=MA|10=114|8=FIX.4.4|9=57|35=0|34=44|49=T1Kauaiblk4|52=20210216-10:22:04.000|56=MA|10=097|8=FIX.4.4|9=57|35=0|34=45|49=T1Kauaiblk4|52=20210216-10:23:34.000|56=MA|10=102|8=FIX.4.4|9=57|35=0|34=46|49=T1Kauaiblk4|52=20210216-10:25:04.595|56=MA|10=121|8=FIX.4.4|9=57|35=0|34=47|49=T1Kauaiblk4|52=20210216-10:26:34.614|56=MA|10=118|8=FIX.4.4|9=57|35=0|34=48|49=T1Kauaiblk4|52=20210216-10:28:04.998|56=MA|10=133|8=FIX.4.4|9=57|35=0|34=49|49=T1Kauaiblk4|52=20210216-10:29:35.000|56=MA|10=113|8=FIX.4.4|9=57|35=0|34=50|49=T1Kauaiblk4|52=20210216-10:31:05.000|56=MA|10=095|8=FIX.4.4|9=57|35=0|34=51|49=T1Kauaiblk4|52=20210216-10:32:35.514|56=MA|10=110|8=FIX.4.4|9=57|35=0|34=52|49=T1Kauaiblk4|52=20210216-10:34:05.578|56=MA|10=120|8=FIX.4.4|9=57|35=0|34=53|49=T1Kauaiblk4|52=20210216-10:35:35.999|56=MA|10=132|8=FIX.4.4|9=57|35=0|34=54|49=T1Kauaiblk4|52=20210216-10:37:05.999|56=MA|10=132|8=FIX.4.4|9=57|35=0|34=55|49=T1Kauaiblk4|52=20210216-10:38:35.999|56=MA|10=137|8=FIX.4.4|9=57|35=0|34=56|49=T1Kauaiblk4|52=20210216-10:40:05.999|56=MA|10=128|8=FIX.4.4|9=57|35=0|34=57|49=T1Kauaiblk4|52=20210216-10:41:35.999|56=MA|10=133|8=FIX.4.4|9=57|35=0|34=58|49=T1Kauaiblk4|52=20210216-10:43:05.999|56=MA|10=133|8=FIX.4.4|9=57|35=0|34=59|49=T1Kauaiblk4|52=20210216-10:44:36.001|56=MA|10=113|8=FIX.4.4|9=57|35=0|34=60|49=T1Kauaiblk4|52=20210216-10:46:06.001|56=MA|10=104|8=FIX.4.4|9=57|35=0|34=61|49=T1Kauaiblk4|52=20210216-10:47:36.003|56=MA|10=111|8=FIX.4.4|9=57|35=0|34=62|49=T1Kauaiblk4|52=20210216-10:49:06.004|56=MA|10=112|8=FIX.4.4|9=57|35=0|34=63|49=T1Kauaiblk4|52=20210216-10:50:36.005|56=MA|10=109|8=FIX.4.4|9=57|35=0|34=64|49=T1Kauaiblk4|52=20210216-10:52:06.007|56=MA|10=111|8=FIX.4.4|9=57|35=0|34=65|49=T1Kauaiblk4|52=20210216-10:53:37.008|56=MA|10=118|8=FIX.4.4|9=57|35=0|34=66|49=T1Kauaiblk4|52=20210216-10:55:08.006|56=MA|10=117|8=FIX.4.4|9=57|35=0|34=67|49=T1Kauaiblk4|52=20210216-10:56:38.007|56=MA|10=123|8=FIX.4.4|9=57|35=0|34=68|49=T1Kauaiblk4|52=20210216-10:58:08.007|56=MA|10=123|8=FIX.4.4|9=57|35=0|34=69|49=T1Kauaiblk4|52=20210216-10:59:38.007|56=MA|10=128|8=FIX.4.4|9=57|35=0|34=70|49=T1Kauaiblk4|52=20210216-11:01:08.008|56=MA|10=106|8=FIX.4.4|9=57|35=0|34=71|49=T1Kauaiblk4|52=20210216-11:02:38.008|56=MA|10=111|8=FIX.4.4|9=57|35=0|34=72|49=T1Kauaiblk4|52=20210216-11:04:08.009|56=MA|10=112|8=FIX.4.4|9=57|35=0|34=73|49=T1Kauaiblk4|52=20210216-11:05:38.011|56=MA|10=110|8=FIX.4.4|9=57|35=0|34=74|49=T1Kauaiblk4|52=20210216-11:07:08.011|56=MA|10=110|8=FIX.4.4|9=57|35=0|34=75|49=T1Kauaiblk4|52=20210216-11:08:38.011|56=MA|10=115|8=FIX.4.4|9=57|35=0|34=76|49=T1Kauaiblk4|52=20210216-11:10:08.012|56=MA|10=107|8=FIX.4.4|9=57|35=0|34=77|49=T1Kauaiblk4|52=20210216-11:11:39.013|56=MA|10=114|8=FIX.4.4|9=57|35=0|34=78|49=T1Kauaiblk4|52=20210216-11:13:10.012|56=MA|10=105|8=FIX.4.4|9=57|35=0|34=79|49=T1Kauaiblk4|52=20210216-11:14:41.011|56=MA|10=110|8=FIX.4.4|9=57|35=0|34=80|49=T1Kauaiblk4|52=20210216-11:16:11.012|56=MA|10=102|8=FIX.4.4|9=57|35=0|34=81|49=T1Kauaiblk4|52=20210216-11:17:41.012|56=MA|10=107|8=FIX.4.4|9=57|35=0|34=82|49=T1Kauaiblk4|52=20210216-11:19:11.015|56=MA|10=110|8=FIX.4.4|9=57|35=0|34=83|49=T1Kauaiblk4|52=20210216-11:20:41.018|56=MA|10=109|8=FIX.4.4|9=57|35=0|34=84|49=T1Kauaiblk4|52=20210216-11:22:11.020|56=MA|10=102|8=FIX.4.4|9=57|35=0|34=85|49=T1Kauaiblk4|52=20210216-11:23:41.021|56=MA|10=108|8=FIX.4.4|9=57|35=0|34=86|49=T1Kauaiblk4|52=20210216-11:25:11.023|56=MA|10=110|8=FIX.4.4|9=57|35=0|34=87|49=T1Kauaiblk4|52=20210216-11:26:41.023|56=MA|10=115|8=FIX.4.4|9=57|35=0|34=88|49=T1Kauaiblk4|52=20210216-11:28:11.023|56=MA|10=115|8=FIX.4.4|9=57|35=0|34=89|49=T1Kauaiblk4|52=20210216-11:29:41.025|56=MA|10=122|8=FIX.4.4|9=57|35=0|34=90|49=T1Kauaiblk4|52=20210216-11:31:12.025|56=MA|10=105|8=FIX.4.4|9=57|35=0|34=91|49=T1Kauaiblk4|52=20210216-11:32:42.026|56=MA|10=111|8=FIX.4.4|9=57|35=0|34=92|49=T1Kauaiblk4|52=20210216-11:34:12.026|56=MA|10=111|8=FIX.4.4|9=57|35=0|34=93|49=T1Kauaiblk4|52=20210216-11:35:43.027|56=MA|10=118|8=FIX.4.4|9=57|35=0|34=94|49=T1Kauaiblk4|52=20210216-11:37:14.024|56=MA|10=116|8=FIX.4.4|9=57|35=0|34=95|49=T1Kauaiblk4|52=20210216-11:38:45.023|56=MA|10=121|8=FIX.4.4|9=57|35=0|34=96|49=T1Kauaiblk4|52=20210216-11:40:16.022|56=MA|10=112|8=FIX.4.4|9=57|35=0|34=97|49=T1Kauaiblk4|52=20210216-11:41:46.023|56=MA|10=118|8=FIX.4.4|9=57|35=0|34=98|49=T1Kauaiblk4|52=20210216-11:43:17.022|56=MA|10=118|8=FIX.4.4|9=57|35=0|34=99|49=T1Kauaiblk4|52=20210216-11:44:47.022|56=MA|10=123|8=FIX.4.4|9=58|35=0|34=100|49=T1Kauaiblk4|52=20210216-11:46:18.021|56=MA|10=154|8=FIX.4.4|9=58|35=0|34=101|49=T1Kauaiblk4|52=20210216-11:47:49.021|56=MA|10=160|8=FIX.4.4|9=58|35=0|34=102|49=T1Kauaiblk4|52=20210216-11:49:20.020|56=MA|10=151|8=FIX.4.4|9=58|35=0|34=103|49=T1Kauaiblk4|52=20210216-11:50:50.020|56=MA|10=147|8=FIX.4.4|9=58|35=0|34=104|49=T1Kauaiblk4|52=20210216-11:52:20.022|56=MA|10=149|8=FIX.4.4|9=58|35=0|34=105|49=T1Kauaiblk4|52=20210216-11:53:50.025|56=MA|10=157|8=FIX.4.4|9=58|35=0|34=106|49=T1Kauaiblk4|52=20210216-11:55:20.031|56=MA|10=154|8=FIX.4.4|9=58|35=0|34=107|49=T1Kauaiblk4|52=20210216-11:56:50.036|56=MA|10=164|8=FIX.4.4|9=58|35=0|34=108|49=T1Kauaiblk4|52=20210216-11:58:20.038|56=MA|10=166|8=FIX.4.4|9=58|35=0|34=109|49=T1Kauaiblk4|52=20210216-11:59:50.041|56=MA|10=165|8=FIX.4.4|9=58|35=5|34=110|49=T1Kauaiblk4|52=20210216-11:59:56.590|56=MA|10=177|8=FIX.4.4|9=91|35=A|34=1|49=T1Kauaiblk4|52=20210216-17:45:22.122|56=MA|98=0|108=90|95=8|96=3.0.0rc5|141=Y|10=032|8=FIX.4.4|9=699|35=E|34=2|49=T1Kauaiblk4|52=20210216-17:45:27.591|56=MA|66=ListID-160221-1432|394=2|68=5|73=5|11=ClOrdID-1433|22=4|38=100000|44=100|48=US06051GEN51|54=1|55=[N/A/]|63=3|67=1|423=1|29726=100.25|453=1|448=T1Kauaiblk4|447=C|452=11|11=ClOrdID-1434|22=4|38=100000|44=101|48=US40434AAB52|54=1|55=[N/A]|63=3|67=2|29726=101.25|11=ClOrdID-1435|22=4|38=130000|44=102|48=US95709TAH32|54=1|55=[N/A/]|63=3|67=1|29726=102.25|453=1|448=T1Kauaiblk4|447=C|452=11|11=ClOrdID-1436|22=4|38=250000|44=103|48=US427866AZ15|54=1|55=[N/A/]|63=3|67=1|29726=103.25|453=1|448=T1Kauaiblk4|447=C|452=11|11=ClOrdID-1437|22=4|38=350000|44=104|48=US29379VAW37|54=1|55=[N/A/]|63=3|67=1|29726=104.25|453=1|448=T1Kauaiblk4|447=C|452=11|10=142|8=FIX.4.4|9=699|35=E|34=3|49=T1Kauaiblk4|52=20210216-17:45:30.403|56=MA|66=ListID-160221-1438|394=2|68=5|73=5|11=ClOrdID-1439|22=4|38=100000|44=100|48=US06051GEN51|54=1|55=[N/A/]|63=3|67=1|423=1|29726=100.25|453=1|448=T1Kauaiblk4|447=C|452=11|11=ClOrdID-1440|22=4|38=100000|44=101|48=US40434AAB52|54=1|55=[N/A]|63=3|67=2|29726=101.25|11=ClOrdID-1441|22=4|38=130000|44=102|48=US95709TAH32|54=1|55=[N/A/]|63=3|67=1|29726=102.25|453=1|448=T1Kauaiblk4|447=C|452=11|11=ClOrdID-1442|22=4|38=250000|44=103|48=US427866AZ15|54=1|55=[N/A/]|63=3|67=1|29726=103.25|453=1|448=T1Kauaiblk4|447=C|452=11|11=ClOrdID-1443|22=4|38=350000|44=104|48=US29379VAW37|54=1|55=[N/A/]|63=3|67=1|29726=104.25|453=1|448=T1Kauaiblk4|447=C|452=11|10=129|8=FIX.4.4|9=699|35=E|34=4|49=T1Kauaiblk4|52=20210216-17:45:32.111|56=MA|66=ListID-160221-1444|394=2|68=5|73=5|11=ClOrdID-1445|22=4|38=100000|44=100|48=US06051GEN51|54=1|55=[N/A/]|63=3|67=1|423=1|29726=100.25|453=1|448=T1Kauaiblk4|447=C|452=11|11=ClOrdID-1446|22=4|38=100000|44=101|48=US40434AAB52|54=1|55=[N/A]|63=3|67=2|29726=101.25|11=ClOrdID-1447|22=4|38=130000|44=102|48=US95709TAH32|54=1|55=[N/A/]|63=3|67=1|29726=102.25|453=1|448=T1Kauaiblk4|447=C|452=11|11=ClOrdID-1448|22=4|38=250000|44=103|48=US427866AZ15|54=1|55=[N/A/]|63=3|67=1|29726=103.25|453=1|448=T1Kauaiblk4|447=C|452=11|11=ClOrdID-1449|22=4|38=350000|44=104|48=US29379VAW37|54=1|55=[N/A/]|63=3|67=1|29726=104.25|453=1|448=T1Kauaiblk4|447=C|452=11|10=146|8=FIX.4.4|9=56|35=0|34=5|49=T1Kauaiblk4|52=20210216-17:47:02.123|56=MA|10=063|8=FIX.4.4|9=56|35=0|34=6|49=T1Kauaiblk4|52=20210216-17:48:32.124|56=MA|10=069|8=FIX.4.4|9=56|35=0|34=7|49=T1Kauaiblk4|52=20210216-17:50:02.124|56=MA|10=060|8=FIX.4.4|9=56|35=0|34=8|49=T1Kauaiblk4|52=20210216-17:51:33.123|56=MA|10=065|8=FIX.4.4|9=56|35=0|34=9|49=T1Kauaiblk4|52=20210216-17:53:03.123|56=MA|10=065|8=FIX.4.4|9=57|35=0|34=10|49=T1Kauaiblk4|52=20210216-17:54:33.123|56=MA|10=110|8=FIX.4.4|9=57|35=0|34=11|49=T1Kauaiblk4|52=20210216-17:56:03.124|56=MA|10=111|8=FIX.4.4|9=57|35=0|34=12|49=T1Kauaiblk4|52=20210216-17:57:34.123|56=MA|10=116|8=FIX.4.4|9=57|35=0|34=13|49=T1Kauaiblk4|52=20210216-17:59:04.125|56=MA|10=118|8=FIX.4.4|9=57|35=0|34=14|49=T1Kauaiblk4|52=20210216-18:00:35.124|56=MA|10=109|8=FIX.4.4|9=57|35=0|34=15|49=T1Kauaiblk4|52=20210216-18:02:05.125|56=MA|10=110|8=FIX.4.4|9=57|35=0|34=16|49=T1Kauaiblk4|52=20210216-18:03:35.126|56=MA|10=116|8=FIX.4.4|9=57|35=0|34=17|49=T1Kauaiblk4|52=20210216-18:05:05.126|56=MA|10=116|8=FIX.4.4|9=57|35=0|34=18|49=T1Kauaiblk4|52=20210216-18:06:35.126|56=MA|10=121|8=FIX.4.4|9=57|35=0|34=19|49=T1Kauaiblk4|52=20210216-18:08:06.126|56=MA|10=122|8=FIX.4.4|9=57|35=0|34=20|49=T1Kauaiblk4|52=20210216-18:09:36.126|56=MA|10=118|8=FIX.4.4|9=57|35=0|34=21|49=T1Kauaiblk4|52=20210216-18:11:06.127|56=MA|10=110|8=FIX.4.4|9=57|35=0|34=22|49=T1Kauaiblk4|52=20210216-18:12:36.128|56=MA|10=116|8=FIX.4.4|9=57|35=0|34=23|49=T1Kauaiblk4|52=20210216-18:14:06.129|56=MA|10=117|8=FIX.4.4|9=57|35=0|34=24|49=T1Kauaiblk4|52=20210216-18:15:36.131|56=MA|10=115|8=FIX.4.4|9=57|35=0|34=25|49=T1Kauaiblk4|52=20210216-18:17:06.131|56=MA|10=115|8=FIX.4.4|9=57|35=0|34=26|49=T1Kauaiblk4|52=20210216-18:18:36.131|56=MA|10=120|8=FIX.4.4|9=57|35=0|34=27|49=T1Kauaiblk4|52=20210216-18:20:06.133|56=MA|10=113|8=FIX.4.4|9=57|35=0|34=28|49=T1Kauaiblk4|52=20210216-18:21:36.135|56=MA|10=120|8=FIX.4.4|9=57|35=0|34=29|49=T1Kauaiblk4|52=20210216-18:23:06.135|56=MA|10=120|8=FIX.4.4|9=91|35=A|34=1|49=T1Kauaiblk4|52=20210216-18:23:47.922|56=MA|98=0|108=90|95=8|96=3.0.0rc5|141=Y|10=044|8=FIX.4.4|9=699|35=E|34=2|49=T1Kauaiblk4|52=20210216-18:24:04.992|56=MA|66=ListID-160221-1402|394=2|68=5|73=5|11=ClOrdID-1403|22=4|38=100000|44=100|48=US06051GEN51|54=1|55=[N/A/]|63=3|67=1|423=1|29726=100.25|453=1|448=T1Kauaiblk4|447=C|452=11|11=ClOrdID-1404|22=4|38=100000|44=101|48=US40434AAB52|54=1|55=[N/A]|63=3|67=2|29726=101.25|11=ClOrdID-1405|22=4|38=130000|44=102|48=US95709TAH32|54=1|55=[N/A/]|63=3|67=1|29726=102.25|453=1|448=T1Kauaiblk4|447=C|452=11|11=ClOrdID-1406|22=4|38=250000|44=103|48=US427866AZ15|54=1|55=[N/A/]|63=3|67=1|29726=103.25|453=1|448=T1Kauaiblk4|447=C|452=11|11=ClOrdID-1407|22=4|38=350000|44=104|48=US29379VAW37|54=1|55=[N/A/]|63=3|67=1|29726=104.25|453=1|448=T1Kauaiblk4|447=C|452=11|10=122|8=FIX.4.4|9=699|35=E|34=3|49=T1Kauaiblk4|52=20210216-18:24:07.764|56=MA|66=ListID-160221-1408|394=2|68=5|73=5|11=ClOrdID-1409|22=4|38=100000|44=100|48=US06051GEN51|54=1|55=[N/A/]|63=3|67=1|423=1|29726=100.25|453=1|448=T1Kauaiblk4|447=C|452=11|11=ClOrdID-1410|22=4|38=100000|44=101|48=US40434AAB52|54=1|55=[N/A]|63=3|67=2|29726=101.25|11=ClOrdID-1411|22=4|38=130000|44=102|48=US95709TAH32|54=1|55=[N/A/]|63=3|67=1|29726=102.25|453=1|448=T1Kauaiblk4|447=C|452=11|11=ClOrdID-1412|22=4|38=250000|44=103|48=US427866AZ15|54=1|55=[N/A/]|63=3|67=1|29726=103.25|453=1|448=T1Kauaiblk4|447=C|452=11|11=ClOrdID-1413|22=4|38=350000|44=104|48=US29379VAW37|54=1|55=[N/A/]|63=3|67=1|29726=104.25|453=1|448=T1Kauaiblk4|447=C|452=11|10=123|8=FIX.4.4|9=56|35=0|34=4|49=T1Kauaiblk4|52=20210216-18:25:37.917|56=MA|10=078|8=FIX.4.4|9=56|35=0|34=5|49=T1Kauaiblk4|52=20210216-18:27:07.919|56=MA|10=080|8=FIX.4.4|9=56|35=0|34=6|49=T1Kauaiblk4|52=20210216-18:28:38.919|56=MA|10=086|8=FIX.4.4|9=56|35=0|34=7|49=T1Kauaiblk4|52=20210216-18:30:08.920|56=MA|10=069|8=FIX.4.4|9=56|35=0|34=8|49=T1Kauaiblk4|52=20210216-18:31:38.921|56=MA|10=075|8=FIX.4.4|9=56|35=0|34=9|49=T1Kauaiblk4|52=20210216-18:33:09.921|56=MA|10=076|8=FIX.4.4|9=57|35=0|34=10|49=T1Kauaiblk4|52=20210216-18:34:39.921|56=MA|10=121|8=FIX.4.4|9=57|35=0|34=11|49=T1Kauaiblk4|52=20210216-18:36:09.922|56=MA|10=122|8=FIX.4.4|9=57|35=0|34=12|49=T1Kauaiblk4|52=20210216-18:37:39.922|56=MA|10=127|8=FIX.4.4|9=57|35=0|34=13|49=T1Kauaiblk4|52=20210216-18:39:09.922|56=MA|10=127|8=FIX.4.4|9=57|35=0|34=14|49=T1Kauaiblk4|52=20210216-18:40:39.922|56=MA|10=123|8=FIX.4.4|9=57|35=0|34=15|49=T1Kauaiblk4|52=20210216-18:42:09.923|56=MA|10=124|8=FIX.4.4|9=57|35=0|34=16|49=T1Kauaiblk4|52=20210216-18:43:39.925|56=MA|10=131|8=FIX.4.4|9=57|35=0|34=17|49=T1Kauaiblk4|52=20210216-18:45:10.924|56=MA|10=122|8=FIX.4.4|9=57|35=0|34=18|49=T1Kauaiblk4|52=20210216-18:46:40.926|56=MA|10=129|8=FIX.4.4|9=57|35=0|34=19|49=T1Kauaiblk4|52=20210216-18:48:10.926|56=MA|10=129|8=FIX.4.4|9=57|35=0|34=20|49=T1Kauaiblk4|52=20210216-18:49:41.925|56=MA|10=125|8=FIX.4.4|9=57|35=0|34=21|49=T1Kauaiblk4|52=20210216-18:51:11.926|56=MA|10=117|8=FIX.4.4|9=57|35=0|34=22|49=T1Kauaiblk4|52=20210216-18:52:42.926|56=MA|10=123|8=FIX.4.4|9=57|35=0|34=23|49=T1Kauaiblk4|52=20210216-18:54:12.926|56=MA|10=123|8=FIX.4.4|9=57|35=0|34=24|49=T1Kauaiblk4|52=20210216-18:55:42.928|56=MA|10=130|8=FIX.4.4|9=57|35=0|34=25|49=T1Kauaiblk4|52=20210216-18:57:13.928|56=MA|10=131|8=FIX.4.4|9=57|35=0|34=26|49=T1Kauaiblk4|52=20210216-18:58:43.928|56=MA|10=136|8=FIX.4.4|9=57|35=0|34=27|49=T1Kauaiblk4|52=20210216-19:00:13.928|56=MA|10=122|8=FIX.4.4|9=57|35=0|34=28|49=T1Kauaiblk4|52=20210216-19:01:43.928|56=MA|10=127|8=FIX.4.4|9=57|35=0|34=29|49=T1Kauaiblk4|52=20210216-19:03:13.928|56=MA|10=127|8=FIX.4.4|9=57|35=0|34=30|49=T1Kauaiblk4|52=20210216-19:04:43.929|56=MA|10=124|8=FIX.4.4|9=57|35=0|34=31|49=T1Kauaiblk4|52=20210216-19:06:13.929|56=MA|10=124|8=FIX.4.4|9=57|35=0|34=32|49=T1Kauaiblk4|52=20210216-19:07:43.929|56=MA|10=129|8=FIX.4.4|9=57|35=0|34=33|49=T1Kauaiblk4|52=20210216-19:09:13.929|56=MA|10=129|8=FIX.4.4|9=57|35=0|34=34|49=T1Kauaiblk4|52=20210216-19:10:43.929|56=MA|10=125|8=FIX.4.4|9=57|35=0|34=35|49=T1Kauaiblk4|52=20210216-19:12:13.930|56=MA|10=117|8=FIX.4.4|9=57|35=0|34=36|49=T1Kauaiblk4|52=20210216-19:13:44.930|56=MA|10=123|8=FIX.4.4|9=57|35=0|34=37|49=T1Kauaiblk4|52=20210216-19:15:14.930|56=MA|10=123|8=FIX.4.4|9=57|35=0|34=38|49=T1Kauaiblk4|52=20210216-19:16:44.931|56=MA|10=129|8=FIX.4.4|9=57|35=0|34=39|49=T1Kauaiblk4|52=20210216-19:18:15.929|56=MA|10=137|8=FIX.4.4|9=57|35=0|34=40|49=T1Kauaiblk4|52=20210216-19:19:45.931|56=MA|10=126|8=FIX.4.4|9=57|35=0|34=41|49=T1Kauaiblk4|52=20210216-19:21:15.931|56=MA|10=117|8=FIX.4.4|9=57|35=0|34=42|49=T1Kauaiblk4|52=20210216-19:22:45.931|56=MA|10=122|8=FIX.4.4|9=57|35=0|34=43|49=T1Kauaiblk4|52=20210216-19:24:15.931|56=MA|10=122|8=FIX.4.4|9=57|35=0|34=44|49=T1Kauaiblk4|52=20210216-19:25:45.931|56=MA|10=127|8=FIX.4.4|9=57|35=0|34=45|49=T1Kauaiblk4|52=20210216-19:27:15.933|56=MA|10=129|8=FIX.4.4|9=57|35=0|34=46|49=T1Kauaiblk4|52=20210216-19:28:45.933|56=MA|10=134|8=FIX.4.4|9=57|35=0|34=47|49=T1Kauaiblk4|52=20210216-19:30:16.932|56=MA|10=125|8=FIX.4.4|9=57|35=0|34=48|49=T1Kauaiblk4|52=20210216-19:31:46.932|56=MA|10=130|8=FIX.4.4|9=57|35=0|34=49|49=T1Kauaiblk4|52=20210216-19:33:16.932|56=MA|10=130|8=FIX.4.4|9=57|35=0|34=50|49=T1Kauaiblk4|52=20210216-19:34:46.933|56=MA|10=127|8=FIX.4.4|9=57|35=0|34=51|49=T1Kauaiblk4|52=20210216-19:36:16.934|56=MA|10=128|8=FIX.4.4|9=57|35=0|34=52|49=T1Kauaiblk4|52=20210216-19:37:47.933|56=MA|10=133|8=FIX.4.4|9=57|35=0|34=53|49=T1Kauaiblk4|52=20210216-19:39:17.934|56=MA|10=134|8=FIX.4.4|9=57|35=0|34=54|49=T1Kauaiblk4|52=20210216-19:40:48.934|56=MA|10=131|8=FIX.4.4|9=57|35=0|34=55|49=T1Kauaiblk4|52=20210216-19:42:18.935|56=MA|10=132|8=FIX.4.4|9=57|35=0|34=56|49=T1Kauaiblk4|52=20210216-19:43:49.934|56=MA|10=137|8=FIX.4.4|9=57|35=0|34=57|49=T1Kauaiblk4|52=20210216-19:45:19.934|56=MA|10=137|8=FIX.4.4|9=57|35=0|34=58|49=T1Kauaiblk4|52=20210216-19:46:49.935|56=MA|10=143|8=FIX.4.4|9=57|35=0|34=59|49=T1Kauaiblk4|52=20210216-19:48:20.935|56=MA|10=135|8=FIX.4.4|9=57|35=0|34=60|49=T1Kauaiblk4|52=20210216-19:49:51.934|56=MA|10=131|8=FIX.4.4|9=57|35=0|34=61|49=T1Kauaiblk4|52=20210216-19:51:21.934|56=MA|10=122|8=FIX.4.4|9=57|35=0|34=62|49=T1Kauaiblk4|52=20210216-19:52:51.934|56=MA|10=127|8=FIX.4.4|9=57|35=0|34=63|49=T1Kauaiblk4|52=20210216-19:54:21.934|56=MA|10=127|8=FIX.4.4|9=57|35=0|34=64|49=T1Kauaiblk4|52=20210216-19:55:51.935|56=MA|10=133|8=FIX.4.4|9=57|35=0|34=65|49=T1Kauaiblk4|52=20210216-19:57:21.935|56=MA|10=133|8=FIX.4.4|9=57|35=0|34=66|49=T1Kauaiblk4|52=20210216-19:58:51.935|56=MA|10=138|8=FIX.4.4|9=57|35=0|34=67|49=T1Kauaiblk4|52=20210216-20:00:21.937|56=MA|10=117|8=FIX.4.4|9=57|35=0|34=68|49=T1Kauaiblk4|52=20210216-20:01:52.935|56=MA|10=121|8=FIX.4.4|9=57|35=0|34=69|49=T1Kauaiblk4|52=20210216-20:03:22.935|56=MA|10=121|8=FIX.4.4|9=57|35=0|34=70|49=T1Kauaiblk4|52=20210216-20:04:52.935|56=MA|10=117|8=FIX.4.4|9=57|35=0|34=71|49=T1Kauaiblk4|52=20210216-20:06:22.937|56=MA|10=119|8=FIX.4.4|9=57|35=0|34=72|49=T1Kauaiblk4|52=20210216-20:07:53.937|56=MA|10=125|8=FIX.4.4|9=57|35=0|34=73|49=T1Kauaiblk4|52=20210216-20:09:23.937|56=MA|10=125|8=FIX.4.4|9=57|35=0|34=74|49=T1Kauaiblk4|52=20210216-20:10:54.936|56=MA|10=121|8=FIX.4.4|9=57|35=0|34=75|49=T1Kauaiblk4|52=20210216-20:12:24.937|56=MA|10=122|8=FIX.4.4|9=57|35=0|34=76|49=T1Kauaiblk4|52=20210216-20:13:54.937|56=MA|10=127|8=FIX.4.4|9=57|35=0|34=77|49=T1Kauaiblk4|52=20210216-20:15:24.937|56=MA|10=127|8=FIX.4.4|9=57|35=0|34=78|49=T1Kauaiblk4|52=20210216-20:16:54.937|56=MA|10=132|8=FIX.4.4|9=57|35=0|34=79|49=T1Kauaiblk4|52=20210216-20:18:24.938|56=MA|10=133|8=FIX.4.4|9=57|35=0|34=80|49=T1Kauaiblk4|52=20210216-20:19:55.938|56=MA|10=130|8=FIX.4.4|9=57|35=0|34=81|49=T1Kauaiblk4|52=20210216-20:21:25.938|56=MA|10=121|8=FIX.4.4|9=57|35=0|34=82|49=T1Kauaiblk4|52=20210216-20:22:56.937|56=MA|10=126|8=FIX.4.4|9=57|35=0|34=83|49=T1Kauaiblk4|52=20210216-20:24:26.938|56=MA|10=127|8=FIX.4.4|9=57|35=0|34=84|49=T1Kauaiblk4|52=20210216-20:25:57.937|56=MA|10=132|8=FIX.4.4|9=57|35=0|34=85|49=T1Kauaiblk4|52=20210216-20:27:27.937|56=MA|10=132|8=FIX.4.4|9=57|35=0|34=86|49=T1Kauaiblk4|52=20210216-20:28:57.938|56=MA|10=138|8=FIX.4.4|9=57|35=0|34=87|49=T1Kauaiblk4|52=20210216-20:30:27.938|56=MA|10=129|8=FIX.4.4|9=57|35=0|34=88|49=T1Kauaiblk4|52=20210216-20:31:58.938|56=MA|10=135|8=FIX.4.4|9=57|35=0|34=89|49=T1Kauaiblk4|52=20210216-20:33:28.938|56=MA|10=135|8=FIX.4.4|9=57|35=0|34=90|49=T1Kauaiblk4|52=20210216-20:34:58.938|56=MA|10=131|8=FIX.4.4|9=57|35=0|34=91|49=T1Kauaiblk4|52=20210216-20:36:28.938|56=MA|10=131|8=FIX.4.4|9=57|35=0|34=92|49=T1Kauaiblk4|52=20210216-20:37:59.938|56=MA|10=137|8=FIX.4.4|9=57|35=0|34=93|49=T1Kauaiblk4|52=20210216-20:39:29.938|56=MA|10=137|8=FIX.4.4|9=57|35=0|34=94|49=T1Kauaiblk4|52=20210216-20:40:59.938|56=MA|10=133|8=FIX.4.4|9=57|35=0|34=95|49=T1Kauaiblk4|52=20210216-20:42:29.939|56=MA|10=134|8=FIX.4.4|9=57|35=0|34=96|49=T1Kauaiblk4|52=20210216-20:44:00.632|56=MA|10=116|8=FIX.4.4|9=57|35=0|34=97|49=T1Kauaiblk4|52=20210216-20:45:30.938|56=MA|10=130|8=FIX.4.4|9=57|35=0|34=98|49=T1Kauaiblk4|52=20210216-20:47:00.938|56=MA|10=130|8=FIX.4.4|9=57|35=0|34=99|49=T1Kauaiblk4|52=20210216-20:48:30.938|56=MA|10=135|8=FIX.4.4|9=58|35=0|34=100|49=T1Kauaiblk4|52=20210216-20:50:00.938|56=MA|10=157|8=FIX.4.4|9=58|35=0|34=101|49=T1Kauaiblk4|52=20210216-20:51:30.938|56=MA|10=162|8=FIX.4.4|9=58|35=0|34=102|49=T1Kauaiblk4|52=20210216-20:53:00.938|56=MA|10=162|8=FIX.4.4|9=58|35=0|34=103|49=T1Kauaiblk4|52=20210216-20:54:30.940|56=MA|10=160|8=FIX.4.4|9=58|35=0|34=104|49=T1Kauaiblk4|52=20210216-20:56:01.940|56=MA|10=161|8=FIX.4.4|9=58|35=0|34=105|49=T1Kauaiblk4|52=20210216-20:57:31.940|56=MA|10=166|8=FIX.4.4|9=58|35=0|34=106|49=T1Kauaiblk4|52=20210216-20:59:02.939|56=MA|10=175|8=FIX.4.4|9=58|35=0|34=107|49=T1Kauaiblk4|52=20210216-21:00:32.939|56=MA|10=166|8=FIX.4.4|9=58|35=0|34=108|49=T1Kauaiblk4|52=20210216-21:02:02.939|56=MA|10=166|8=FIX.4.4|9=58|35=0|34=109|49=T1Kauaiblk4|52=20210216-21:03:32.940|56=MA|10=163|8=FIX.4.4|9=58|35=0|34=110|49=T1Kauaiblk4|52=20210216-21:05:02.940|56=MA|10=154|8=FIX.4.4|9=58|35=0|34=111|49=T1Kauaiblk4|52=20210216-21:06:32.940|56=MA|10=159|8=FIX.4.4|9=58|35=0|34=112|49=T1Kauaiblk4|52=20210216-21:08:03.939|56=MA|10=168|8=FIX.4.4|9=58|35=0|34=113|49=T1Kauaiblk4|52=20210216-21:09:33.941|56=MA|10=166|8=FIX.4.4|9=58|35=0|34=114|49=T1Kauaiblk4|52=20210216-21:11:04.940|56=MA|10=157|8=FIX.4.4|9=58|35=0|34=115|49=T1Kauaiblk4|52=20210216-21:12:34.940|56=MA|10=162|8=FIX.4.4|9=58|35=0|34=116|49=T1Kauaiblk4|52=20210216-21:14:05.940|56=MA|10=163|8=FIX.4.4|9=58|35=0|34=117|49=T1Kauaiblk4|52=20210216-21:15:35.940|56=MA|10=168|8=FIX.4.4|9=58|35=0|34=118|49=T1Kauaiblk4|52=20210216-21:17:05.940|56=MA|10=168|8=FIX.4.4|9=58|35=0|34=119|49=T1Kauaiblk4|52=20210216-21:18:35.940|56=MA|10=173|8=FIX.4.4|9=58|35=0|34=120|49=T1Kauaiblk4|52=20210216-21:20:05.941|56=MA|10=156|8=FIX.4.4|9=58|35=0|34=121|49=T1Kauaiblk4|52=20210216-21:21:36.941|56=MA|10=162|8=FIX.4.4|9=58|35=0|34=122|49=T1Kauaiblk4|52=20210216-21:23:07.941|56=MA|10=163|8=FIX.4.4|9=58|35=0|34=123|49=T1Kauaiblk4|52=20210216-21:24:37.941|56=MA|10=168|8=FIX.4.4|9=58|35=0|34=124|49=T1Kauaiblk4|52=20210216-21:26:08.940|56=MA|10=168|8=FIX.4.4|9=58|35=0|34=125|49=T1Kauaiblk4|52=20210216-21:27:38.941|56=MA|10=174|8=FIX.4.4|9=58|35=0|34=126|49=T1Kauaiblk4|52=20210216-21:29:09.941|56=MA|10=175|8=FIX.4.4|9=58|35=0|34=127|49=T1Kauaiblk4|52=20210216-21:30:40.940|56=MA|10=162|8=FIX.4.4|9=58|35=0|34=128|49=T1Kauaiblk4|52=20210216-21:32:10.940|56=MA|10=162|8=FIX.4.4|9=58|35=0|34=129|49=T1Kauaiblk4|52=20210216-21:33:40.942|56=MA|10=169|8=FIX.4.4|9=58|35=0|34=130|49=T1Kauaiblk4|52=20210216-21:35:10.944|56=MA|10=162|8=FIX.4.4|9=58|35=0|34=131|49=T1Kauaiblk4|52=20210216-21:36:40.944|56=MA|10=167|8=FIX.4.4|9=58|35=0|34=132|49=T1Kauaiblk4|52=20210216-21:38:10.944|56=MA|10=167|8=FIX.4.4|9=58|35=0|34=133|49=T1Kauaiblk4|52=20210216-21:39:40.945|56=MA|10=173|8=FIX.4.4|9=58|35=0|34=134|49=T1Kauaiblk4|52=20210216-21:41:10.947|56=MA|10=166|8=FIX.4.4|9=58|35=0|34=135|49=T1Kauaiblk4|52=20210216-21:42:40.949|56=MA|10=173|8=FIX.4.4|9=58|35=0|34=136|49=T1Kauaiblk4|52=20210216-21:44:10.950|56=MA|10=165|8=FIX.4.4|9=58|35=0|34=137|49=T1Kauaiblk4|52=20210216-21:45:40.951|56=MA|10=171|8=FIX.4.4|9=58|35=0|34=138|49=T1Kauaiblk4|52=20210216-21:47:10.951|56=MA|10=171|8=FIX.4.4|9=58|35=0|34=139|49=T1Kauaiblk4|52=20210216-21:48:40.951|56=MA|10=176|8=FIX.4.4|9=58|35=0|34=140|49=T1Kauaiblk4|52=20210216-21:50:10.952|56=MA|10=159|8=FIX.4.4|9=58|35=0|34=141|49=T1Kauaiblk4|52=20210216-21:51:40.953|56=MA|10=165|8=FIX.4.4|9=58|35=0|34=142|49=T1Kauaiblk4|52=20210216-21:53:10.953|56=MA|10=165|8=FIX.4.4|9=58|35=0|34=143|49=T1Kauaiblk4|52=20210216-21:54:40.954|56=MA|10=171|8=FIX.4.4|9=58|35=0|34=144|49=T1Kauaiblk4|52=20210216-21:56:10.954|56=MA|10=171|8=FIX.4.4|9=58|35=0|34=145|49=T1Kauaiblk4|52=20210216-21:57:40.955|56=MA|10=177|8=FIX.4.4|9=58|35=0|34=146|49=T1Kauaiblk4|52=20210216-21:59:10.956|56=MA|10=178|8=FIX.4.4|9=58|35=0|34=147|49=T1Kauaiblk4|52=20210216-22:00:40.956|56=MA|10=169|8=FIX.4.4|9=58|35=0|34=148|49=T1Kauaiblk4|52=20210216-22:02:10.957|56=MA|10=170|8=FIX.4.4|9=58|35=0|34=149|49=T1Kauaiblk4|52=20210216-22:03:40.958|56=MA|10=176|8=FIX.4.4|9=58|35=0|34=150|49=T1Kauaiblk4|52=20210216-22:05:11.959|56=MA|10=169|8=FIX.4.4|9=58|35=0|34=151|49=T1Kauaiblk4|52=20210216-22:06:42.958|56=MA|10=174|8=FIX.4.4|9=58|35=0|34=152|49=T1Kauaiblk4|52=20210216-22:08:12.959|56=MA|10=175|8=FIX.4.4|9=58|35=0|34=153|49=T1Kauaiblk4|52=20210216-22:09:42.961|56=MA|10=173|8=FIX.4.4|9=58|35=0|34=154|49=T1Kauaiblk4|52=20210216-22:11:13.961|56=MA|10=165|8=FIX.4.4|9=58|35=0|34=155|49=T1Kauaiblk4|52=20210216-22:12:44.961|56=MA|10=171|8=FIX.4.4|9=58|35=0|34=156|49=T1Kauaiblk4|52=20210216-22:14:14.962|56=MA|10=172|8=FIX.4.4|9=58|35=0|34=157|49=T1Kauaiblk4|52=20210216-22:15:44.962|56=MA|10=177|8=FIX.4.4|9=58|35=0|34=158|49=T1Kauaiblk4|52=20210216-22:17:14.962|56=MA|10=177|8=FIX.4.4|9=58|35=0|34=159|49=T1Kauaiblk4|52=20210216-22:18:45.962|56=MA|10=183|8=FIX.4.4|9=58|35=0|34=160|49=T1Kauaiblk4|52=20210216-22:20:15.962|56=MA|10=165|8=FIX.4.4|9=58|35=0|34=161|49=T1Kauaiblk4|52=20210216-22:21:45.962|56=MA|10=170|8=FIX.4.4|9=58|35=0|34=162|49=T1Kauaiblk4|52=20210216-22:23:15.964|56=MA|10=172|8=FIX.4.4|9=58|35=0|34=163|49=T1Kauaiblk4|52=20210216-22:24:46.963|56=MA|10=177|8=FIX.4.4|9=58|35=0|34=164|49=T1Kauaiblk4|52=20210216-22:26:16.963|56=MA|10=177|8=FIX.4.4|9=58|35=0|34=165|49=T1Kauaiblk4|52=20210216-22:27:46.963|56=MA|10=182|8=FIX.4.4|9=58|35=0|34=166|49=T1Kauaiblk4|52=20210216-22:29:16.964|56=MA|10=183|8=FIX.4.4|9=58|35=0|34=167|49=T1Kauaiblk4|52=20210216-22:30:46.964|56=MA|10=179|8=FIX.4.4|9=58|35=0|34=168|49=T1Kauaiblk4|52=20210216-22:32:16.964|56=MA|10=179|8=FIX.4.4|9=58|35=0|34=169|49=T1Kauaiblk4|52=20210216-22:33:46.965|56=MA|10=185|8=FIX.4.4|9=58|35=0|34=170|49=T1Kauaiblk4|52=20210216-22:35:17.965|56=MA|10=177|8=FIX.4.4|9=58|35=0|34=171|49=T1Kauaiblk4|52=20210216-22:36:47.966|56=MA|10=183|8=FIX.4.4|9=58|35=0|34=172|49=T1Kauaiblk4|52=20210216-22:38:18.965|56=MA|10=183|8=FIX.4.4|9=58|35=0|34=173|49=T1Kauaiblk4|52=20210216-22:39:48.965|56=MA|10=188|8=FIX.4.4|9=58|35=0|34=174|49=T1Kauaiblk4|52=20210216-22:41:18.965|56=MA|10=179|8=FIX.4.4|9=58|35=0|34=175|49=T1Kauaiblk4|52=20210216-22:42:48.967|56=MA|10=186|8=FIX.4.4|9=58|35=0|34=176|49=T1Kauaiblk4|52=20210216-22:44:18.967|56=MA|10=186|8=FIX.4.4|9=58|35=0|34=177|49=T1Kauaiblk4|52=20210216-22:45:49.967|56=MA|10=192|8=FIX.4.4|9=58|35=0|34=178|49=T1Kauaiblk4|52=20210216-22:47:20.966|56=MA|10=183|8=FIX.4.4|9=58|35=0|34=179|49=T1Kauaiblk4|52=20210216-22:48:50.968|56=MA|10=190|8=FIX.4.4|9=58|35=0|34=180|49=T1Kauaiblk4|52=20210216-22:50:21.966|56=MA|10=171|8=FIX.4.4|9=58|35=0|34=181|49=T1Kauaiblk4|52=20210216-22:51:51.966|56=MA|10=176|8=FIX.4.4|9=58|35=0|34=182|49=T1Kauaiblk4|52=20210216-22:53:21.967|56=MA|10=177|8=FIX.4.4|9=58|35=0|34=183|49=T1Kauaiblk4|52=20210216-22:54:52.967|56=MA|10=183|8=FIX.4.4|9=58|35=0|34=184|49=T1Kauaiblk4|52=20210216-22:56:22.967|56=MA|10=183|8=FIX.4.4|9=58|35=0|34=185|49=T1Kauaiblk4|52=20210216-22:57:52.968|56=MA|10=189|8=FIX.4.4|9=58|35=0|34=186|49=T1Kauaiblk4|52=20210216-22:59:22.968|56=MA|10=189|8=FIX.4.4|9=58|35=0|34=187|49=T1Kauaiblk4|52=20210216-23:00:53.967|56=MA|10=180|8=FIX.4.4|9=58|35=0|34=188|49=T1Kauaiblk4|52=20210216-23:02:23.967|56=MA|10=180|8=FIX.4.4|9=58|35=0|34=189|49=T1Kauaiblk4|52=20210216-23:03:53.967|56=MA|10=185|8=FIX.4.4|9=58|35=5|34=190|49=T1Kauaiblk4|52=20210216-23:05:01.587|56=MA|10=175|8=FIX.4.4|9=91|35=A|34=1|49=T1Kauaiblk4|52=20210217-09:05:59.107|56=MA|98=0|108=90|95=8|96=3.0.0rc5|141=Y|10=043|8=FIX.4.4|9=699|35=E|34=2|49=T1Kauaiblk4|52=20210217-09:06:08.682|56=MA|66=ListID-160221-1414|394=2|68=5|73=5|11=ClOrdID-1415|22=4|38=100000|44=100|48=US06051GEN51|54=1|55=[N/A/]|63=3|67=1|423=1|29726=100.25|453=1|448=T1Kauaiblk4|447=C|452=11|11=ClOrdID-1416|22=4|38=100000|44=101|48=US40434AAB52|54=1|55=[N/A]|63=3|67=2|29726=101.25|11=ClOrdID-1417|22=4|38=130000|44=102|48=US95709TAH32|54=1|55=[N/A/]|63=3|67=1|29726=102.25|453=1|448=T1Kauaiblk4|447=C|452=11|11=ClOrdID-1418|22=4|38=250000|44=103|48=US427866AZ15|54=1|55=[N/A/]|63=3|67=1|29726=103.25|453=1|448=T1Kauaiblk4|447=C|452=11|11=ClOrdID-1419|22=4|38=350000|44=104|48=US29379VAW37|54=1|55=[N/A/]|63=3|67=1|29726=104.25|453=1|448=T1Kauaiblk4|447=C|452=11|10=141|8=FIX.4.4|9=699|35=E|34=3|49=T1Kauaiblk4|52=20210217-09:06:13.455|56=MA|66=ListID-160221-1420|394=2|68=5|73=5|11=ClOrdID-1421|22=4|38=100000|44=100|48=US06051GEN51|54=1|55=[N/A/]|63=3|67=1|423=1|29726=100.25|453=1|448=T1Kauaiblk4|447=C|452=11|11=ClOrdID-1422|22=4|38=100000|44=101|48=US40434AAB52|54=1|55=[N/A]|63=3|67=2|29726=101.25|11=ClOrdID-1423|22=4|38=130000|44=102|48=US95709TAH32|54=1|55=[N/A/]|63=3|67=1|29726=102.25|453=1|448=T1Kauaiblk4|447=C|452=11|11=ClOrdID-1424|22=4|38=250000|44=103|48=US427866AZ15|54=1|55=[N/A/]|63=3|67=1|29726=103.25|453=1|448=T1Kauaiblk4|447=C|452=11|11=ClOrdID-1425|22=4|38=350000|44=104|48=US29379VAW37|54=1|55=[N/A/]|63=3|67=1|29726=104.25|453=1|448=T1Kauaiblk4|447=C|452=11|10=118|8=FIX.4.4|9=699|35=E|34=4|49=T1Kauaiblk4|52=20210217-09:06:14.695|56=MA|66=ListID-160221-1426|394=2|68=5|73=5|11=ClOrdID-1427|22=4|38=100000|44=100|48=US06051GEN51|54=1|55=[N/A/]|63=3|67=1|423=1|29726=100.25|453=1|448=T1Kauaiblk4|447=C|452=11|11=ClOrdID-1428|22=4|38=100000|44=101|48=US40434AAB52|54=1|55=[N/A]|63=3|67=2|29726=101.25|11=ClOrdID-1429|22=4|38=130000|44=102|48=US95709TAH32|54=1|55=[N/A/]|63=3|67=1|29726=102.25|453=1|448=T1Kauaiblk4|447=C|452=11|11=ClOrdID-1430|22=4|38=250000|44=103|48=US427866AZ15|54=1|55=[N/A/]|63=3|67=1|29726=103.25|453=1|448=T1Kauaiblk4|447=C|452=11|11=ClOrdID-1431|22=4|38=350000|44=104|48=US29379VAW37|54=1|55=[N/A/]|63=3|67=1|29726=104.25|453=1|448=T1Kauaiblk4|447=C|452=11|10=144|8=FIX.4.4|9=699|35=E|34=5|49=T1Kauaiblk4|52=20210217-09:06:32.786|56=MA|66=ListID-160221-1432|394=2|68=5|73=5|11=ClOrdID-1433|22=4|38=100000|44=100|48=US06051GEN51|54=1|55=[N/A/]|63=3|67=1|423=1|29726=100.25|453=1|448=T1Kauaiblk4|447=C|452=11|11=ClOrdID-1434|22=4|38=100000|44=101|48=US40434AAB52|54=1|55=[N/A]|63=3|67=2|29726=101.25|11=ClOrdID-1435|22=4|38=130000|44=102|48=US95709TAH32|54=1|55=[N/A/]|63=3|67=1|29726=102.25|453=1|448=T1Kauaiblk4|447=C|452=11|11=ClOrdID-1436|22=4|38=250000|44=103|48=US427866AZ15|54=1|55=[N/A/]|63=3|67=1|29726=103.25|453=1|448=T1Kauaiblk4|447=C|452=11|11=ClOrdID-1437|22=4|38=350000|44=104|48=US29379VAW37|54=1|55=[N/A/]|63=3|67=1|29726=104.25|453=1|448=T1Kauaiblk4|447=C|452=11|10=146|8=FIX.4.4|9=699|35=E|34=6|49=T1Kauaiblk4|52=20210217-09:06:34.271|56=MA|66=ListID-160221-1438|394=2|68=5|73=5|11=ClOrdID-1439|22=4|38=100000|44=100|48=US06051GEN51|54=1|55=[N/A/]|63=3|67=1|423=1|29726=100.25|453=1|448=T1Kauaiblk4|447=C|452=11|11=ClOrdID-1440|22=4|38=100000|44=101|48=US40434AAB52|54=1|55=[N/A]|63=3|67=2|29726=101.25|11=ClOrdID-1441|22=4|38=130000|44=102|48=US95709TAH32|54=1|55=[N/A/]|63=3|67=1|29726=102.25|453=1|448=T1Kauaiblk4|447=C|452=11|11=ClOrdID-1442|22=4|38=250000|44=103|48=US427866AZ15|54=1|55=[N/A/]|63=3|67=1|29726=103.25|453=1|448=T1Kauaiblk4|447=C|452=11|11=ClOrdID-1443|22=4|38=350000|44=104|48=US29379VAW37|54=1|55=[N/A/]|63=3|67=1|29726=104.25|453=1|448=T1Kauaiblk4|447=C|452=11|10=138|8=FIX.4.4|9=699|35=E|34=7|49=T1Kauaiblk4|52=20210217-09:06:38.372|56=MA|66=ListID-160221-1444|394=2|68=5|73=5|11=ClOrdID-1445|22=4|38=100000|44=100|48=US06051GEN51|54=1|55=[N/A/]|63=3|67=1|423=1|29726=100.25|453=1|448=T1Kauaiblk4|447=C|452=11|11=ClOrdID-1446|22=4|38=100000|44=101|48=US40434AAB52|54=1|55=[N/A]|63=3|67=2|29726=101.25|11=ClOrdID-1447|22=4|38=130000|44=102|48=US95709TAH32|54=1|55=[N/A/]|63=3|67=1|29726=102.25|453=1|448=T1Kauaiblk4|447=C|452=11|11=ClOrdID-1448|22=4|38=250000|44=103|48=US427866AZ15|54=1|55=[N/A/]|63=3|67=1|29726=103.25|453=1|448=T1Kauaiblk4|447=C|452=11|11=ClOrdID-1449|22=4|38=350000|44=104|48=US29379VAW37|54=1|55=[N/A/]|63=3|67=1|29726=104.25|453=1|448=T1Kauaiblk4|447=C|452=11|10=163|8=FIX.4.4|9=56|35=0|34=8|49=T1Kauaiblk4|52=20210217-09:08:09.108|56=MA|10=075|8=FIX.4.4|9=56|35=0|34=9|49=T1Kauaiblk4|52=20210217-09:09:39.108|56=MA|10=080|8=FIX.4.4|9=57|35=0|34=10|49=T1Kauaiblk4|52=20210217-09:11:09.108|56=MA|10=111|8=FIX.4.4|9=57|35=0|34=11|49=T1Kauaiblk4|52=20210217-09:12:39.522|56=MA|10=116|8=FIX.4.4|9=57|35=0|34=12|49=T1Kauaiblk4|52=20210217-09:14:10.107|56=MA|10=107|8=FIX.4.4|9=57|35=0|34=13|49=T1Kauaiblk4|52=20210217-09:15:40.109|56=MA|10=114|8=FIX.4.4|9=700|35=E|34=14|49=T1Kauaiblk4|52=20210217-09:16:18.982|56=MA|66=ListID-170221-1450|394=2|68=5|73=5|11=ClOrdID-1451|22=4|38=100000|44=100|48=US06051GEN51|54=1|55=[N/A/]|63=3|67=1|423=1|29726=100.25|453=1|448=T1Kauaiblk4|447=C|452=11|11=ClOrdID-1452|22=4|38=100000|44=101|48=US40434AAB52|54=1|55=[N/A]|63=3|67=2|29726=101.25|11=ClOrdID-1453|22=4|38=130000|44=102|48=US95709TAH32|54=1|55=[N/A/]|63=3|67=1|29726=102.25|453=1|448=T1Kauaiblk4|447=C|452=11|11=ClOrdID-1454|22=4|38=250000|44=103|48=US427866AZ15|54=1|55=[N/A/]|63=3|67=1|29726=103.25|453=1|448=T1Kauaiblk4|447=C|452=11|11=ClOrdID-1455|22=4|38=350000|44=104|48=US29379VAW37|54=1|55=[N/A/]|63=3|67=1|29726=104.25|453=1|448=T1Kauaiblk4|447=C|452=11|10=181|8=FIX.4.4|9=700|35=E|34=15|49=T1Kauaiblk4|52=20210217-09:16:19.851|56=MA|66=ListID-170221-1456|394=2|68=5|73=5|11=ClOrdID-1457|22=4|38=100000|44=100|48=US06051GEN51|54=1|55=[N/A/]|63=3|67=1|423=1|29726=100.25|453=1|448=T1Kauaiblk4|447=C|452=11|11=ClOrdID-1458|22=4|38=100000|44=101|48=US40434AAB52|54=1|55=[N/A]|63=3|67=2|29726=101.25|11=ClOrdID-1459|22=4|38=130000|44=102|48=US95709TAH32|54=1|55=[N/A/]|63=3|67=1|29726=102.25|453=1|448=T1Kauaiblk4|447=C|452=11|11=ClOrdID-1460|22=4|38=250000|44=103|48=US427866AZ15|54=1|55=[N/A/]|63=3|67=1|29726=103.25|453=1|448=T1Kauaiblk4|447=C|452=11|11=ClOrdID-1461|22=4|38=350000|44=104|48=US29379VAW37|54=1|55=[N/A/]|63=3|67=1|29726=104.25|453=1|448=T1Kauaiblk4|447=C|452=11|10=196|8=FIX.4.4|9=700|35=E|34=16|49=T1Kauaiblk4|52=20210217-09:16:20.763|56=MA|66=ListID-170221-1462|394=2|68=5|73=5|11=ClOrdID-1463|22=4|38=100000|44=100|48=US06051GEN51|54=1|55=[N/A/]|63=3|67=1|423=1|29726=100.25|453=1|448=T1Kauaiblk4|447=C|452=11|11=ClOrdID-1464|22=4|38=100000|44=101|48=US40434AAB52|54=1|55=[N/A]|63=3|67=2|29726=101.25|11=ClOrdID-1465|22=4|38=130000|44=102|48=US95709TAH32|54=1|55=[N/A/]|63=3|67=1|29726=102.25|453=1|448=T1Kauaiblk4|447=C|452=11|11=ClOrdID-1466|22=4|38=250000|44=103|48=US427866AZ15|54=1|55=[N/A/]|63=3|67=1|29726=103.25|453=1|448=T1Kauaiblk4|447=C|452=11|11=ClOrdID-1467|22=4|38=350000|44=104|48=US29379VAW37|54=1|55=[N/A/]|63=3|67=1|29726=104.25|453=1|448=T1Kauaiblk4|447=C|452=11|10=191|8=FIX.4.4|9=57|35=0|34=17|49=T1Kauaiblk4|52=20210217-09:17:51.109|56=MA|10=122|8=FIX.4.4|9=57|35=0|34=18|49=T1Kauaiblk4|52=20210217-09:19:21.514|56=MA|10=122|8=FIX.4.4|9=57|35=0|34=19|49=T1Kauaiblk4|52=20210217-09:20:51.523|56=MA|10=118|8=FIX.4.4|9=57|35=0|34=20|49=T1Kauaiblk4|52=20210217-09:22:22.109|56=MA|10=110|8=FIX.4.4|9=91|35=A|34=1|49=T1Kauaiblk4|52=20210217-09:31:50.448|56=MA|98=0|108=90|95=8|96=3.0.0rc5|141=Y|10=041|8=FIX.4.4|9=91|35=A|34=1|49=T1Kauaiblk4|52=20210217-09:32:01.110|56=MA|98=0|108=90|95=8|96=3.0.0rc5|141=Y|10=024|8=FIX.4.4|9=91|35=A|34=1|49=T1Kauaiblk4|52=20210217-09:32:27.109|56=MA|98=0|108=90|95=8|96=3.0.0rc5|141=Y|10=040|8=FIX.4.4|9=227|35=E|34=2|49=T1Kauaiblk4|52=20210217-09:32:35.892|56=MA|66=ListID-170221-1468|394=2|68=5|73=1|11=ClOrdID-1469|22=4|38=100000|44=100|48=US95709TAH32|54=1|55=[N/A/]|63=3|67=1|423=1|29726=100.25|453=1|448=T1Kauaiblk4|447=C|452=11|10=116|8=FIX.4.4|9=227|35=E|34=3|49=T1Kauaiblk4|52=20210217-09:32:36.412|56=MA|66=ListID-170221-1470|394=2|68=5|73=1|11=ClOrdID-1471|22=4|38=100000|44=100|48=US95709TAH32|54=1|55=[N/A/]|63=3|67=1|423=1|29726=100.25|453=1|448=T1Kauaiblk4|447=C|452=11|10=092|8=FIX.4.4|9=227|35=E|34=4|49=T1Kauaiblk4|52=20210217-09:32:36.840|56=MA|66=ListID-170221-1472|394=2|68=5|73=1|11=ClOrdID-1473|22=4|38=100000|44=100|48=US95709TAH32|54=1|55=[N/A/]|63=3|67=1|423=1|29726=100.25|453=1|448=T1Kauaiblk4|447=C|452=11|10=102|8=FIX.4.4|9=56|35=0|34=5|49=T1Kauaiblk4|52=20210217-09:34:07.110|56=MA|10=062|8=FIX.4.4|9=56|35=0|34=6|49=T1Kauaiblk4|52=20210217-09:35:37.532|56=MA|10=075|8=FIX.4.4|9=56|35=0|34=7|49=T1Kauaiblk4|52=20210217-09:37:08.109|56=MA|10=076|8=FIX.4.4|9=56|35=0|34=8|49=T1Kauaiblk4|52=20210217-09:38:38.111|56=MA|10=074|8=FIX.4.4|9=56|35=0|34=9|49=T1Kauaiblk4|52=20210217-09:40:09.110|56=MA|10=065|8=FIX.4.4|9=57|35=0|34=10|49=T1Kauaiblk4|52=20210217-09:41:39.111|56=MA|10=111|8=FIX.4.4|9=57|35=0|34=11|49=T1Kauaiblk4|52=20210217-09:43:10.111|56=MA|10=103|8=FIX.4.4|9=57|35=0|34=12|49=T1Kauaiblk4|52=20210217-09:44:40.111|56=MA|10=108|8=FIX.4.4|9=57|35=0|34=13|49=T1Kauaiblk4|52=20210217-09:46:11.112|56=MA|10=110|8=FIX.4.4|9=57|35=0|34=14|49=T1Kauaiblk4|52=20210217-09:47:41.112|56=MA|10=115|8=FIX.4.4|9=57|35=0|34=15|49=T1Kauaiblk4|52=20210217-09:49:11.112|56=MA|10=115|8=FIX.4.4|9=57|35=0|34=16|49=T1Kauaiblk4|52=20210217-09:50:42.112|56=MA|10=112|8=FIX.4.4|9=57|35=0|34=17|49=T1Kauaiblk4|52=20210217-09:52:13.111|56=MA|10=112|8=FIX.4.4|9=57|35=0|34=18|49=T1Kauaiblk4|52=20210217-09:53:43.111|56=MA|10=117|8=FIX.4.4|9=57|35=0|34=19|49=T1Kauaiblk4|52=20210217-09:55:13.111|56=MA|10=117|8=FIX.4.4|9=57|35=0|34=20|49=T1Kauaiblk4|52=20210217-09:56:43.112|56=MA|10=114|8=FIX.4.4|9=57|35=0|34=21|49=T1Kauaiblk4|52=20210217-09:58:13.112|56=MA|10=114|8=FIX.4.4|9=57|35=0|34=22|49=T1Kauaiblk4|52=20210217-09:59:44.111|56=MA|10=119|8=FIX.4.4|9=57|35=0|34=23|49=T1Kauaiblk4|52=20210217-10:01:14.112|56=MA|10=097|8=FIX.4.4|9=57|35=0|34=24|49=T1Kauaiblk4|52=20210217-10:02:44.113|56=MA|10=103|8=FIX.4.4|9=57|35=0|34=25|49=T1Kauaiblk4|52=20210217-10:04:14.113|56=MA|10=103|8=FIX.4.4|9=57|35=0|34=26|49=T1Kauaiblk4|52=20210217-10:05:44.113|56=MA|10=108|8=FIX.4.4|9=228|35=E|34=27|49=T1Kauaiblk4|52=20210217-10:06:27.193|56=MA|66=ListID-170221-1474|394=2|68=5|73=1|11=ClOrdID-1475|22=4|38=100000|44=100|48=US95709TAH32|54=1|55=[N/A/]|63=3|67=1|423=1|29726=100.25|453=1|448=T1Kauaiblk4|447=C|452=11|10=154|8=FIX.4.4|9=228|35=E|34=28|49=T1Kauaiblk4|52=20210217-10:06:28.359|56=MA|66=ListID-170221-1476|394=2|68=5|73=1|11=ClOrdID-1477|22=4|38=100000|44=100|48=US95709TAH32|54=1|55=[N/A/]|63=3|67=1|423=1|29726=100.25|453=1|448=T1Kauaiblk4|447=C|452=11|10=164|8=FIX.4.4|9=228|35=E|34=29|49=T1Kauaiblk4|52=20210217-10:06:29.303|56=MA|66=ListID-170221-1478|394=2|68=5|73=1|11=ClOrdID-1479|22=4|38=100000|44=100|48=US95709TAH32|54=1|55=[N/A/]|63=3|67=1|423=1|29726=100.25|453=1|448=T1Kauaiblk4|447=C|452=11|10=159|8=FIX.4.4|9=57|35=0|34=30|49=T1Kauaiblk4|52=20210217-10:07:59.515|56=MA|10=117|8=FIX.4.4|9=57|35=0|34=31|49=T1Kauaiblk4|52=20210217-10:09:29.516|56=MA|10=118|8=FIX.4.4|9=57|35=0|34=32|49=T1Kauaiblk4|52=20210217-10:11:00.113|56=MA|10=094|8=FIX.4.4|9=57|35=0|34=33|49=T1Kauaiblk4|52=20210217-10:12:30.460|56=MA|10=104|8=FIX.4.4|9=57|35=0|34=34|49=T1Kauaiblk4|52=20210217-10:14:00.616|56=MA|10=107|8=FIX.4.4|9=57|35=0|34=35|49=T1Kauaiblk4|52=20210217-10:15:31.114|56=MA|10=106|8=FIX.4.4|9=57|35=0|34=36|49=T1Kauaiblk4|52=20210217-10:17:01.515|56=MA|10=111|8=FIX.4.4|9=57|35=0|34=37|49=T1Kauaiblk4|52=20210217-10:18:32.113|56=MA|10=111|8=FIX.4.4|9=57|35=0|34=38|49=T1Kauaiblk4|52=20210217-10:20:02.114|56=MA|10=103|8=FIX.4.4|9=57|35=0|34=39|49=T1Kauaiblk4|52=20210217-10:21:32.114|56=MA|10=108|8=FIX.4.4|9=57|35=0|34=40|49=T1Kauaiblk4|52=20210217-10:23:03.114|56=MA|10=100|8=FIX.4.4|9=57|35=0|34=41|49=T1Kauaiblk4|52=20210217-10:24:34.113|56=MA|10=105|8=FIX.4.4|9=57|35=0|34=42|49=T1Kauaiblk4|52=20210217-10:26:04.114|56=MA|10=106|8=FIX.4.4|9=228|35=E|34=43|49=T1Kauaiblk4|52=20210217-10:26:43.490|56=MA|66=ListID-170221-1480|394=2|68=5|73=1|11=ClOrdID-1481|22=4|38=100000|44=100|48=US95709TAH32|54=1|55=[N/A/]|63=3|67=1|423=1|29726=100.25|453=1|448=T1Kauaiblk4|447=C|452=11|10=146|8=FIX.4.4|9=228|35=E|34=44|49=T1Kauaiblk4|52=20210217-10:26:44.068|56=MA|66=ListID-170221-1482|394=2|68=5|73=1|11=ClOrdID-1483|22=4|38=100000|44=100|48=US95709TAH32|54=1|55=[N/A/]|63=3|67=1|423=1|29726=100.25|453=1|448=T1Kauaiblk4|447=C|452=11|10=153|8=FIX.4.4|9=228|35=E|34=45|49=T1Kauaiblk4|52=20210217-10:28:05.255|56=MA|66=ListID-170221-1484|394=2|68=5|73=1|11=ClOrdID-1485|22=4|38=100000|44=100|48=US95709TAH32|54=1|55=[N/A/]|63=3|67=1|423=1|29726=100.25|453=1|448=T1Kauaiblk4|447=C|452=11|10=155|8=FIX.4.4|9=228|35=E|34=46|49=T1Kauaiblk4|52=20210217-10:28:06.010|56=MA|66=ListID-170221-1486|394=2|68=5|73=1|11=ClOrdID-1487|22=4|38=100000|44=100|48=US95709TAH32|54=1|55=[N/A/]|63=3|67=1|423=1|29726=100.25|453=1|448=T1Kauaiblk4|447=C|452=11|10=150|8=FIX.4.4|9=228|35=E|34=47|49=T1Kauaiblk4|52=20210217-10:28:06.527|56=MA|66=ListID-170221-1488|394=2|68=5|73=1|11=ClOrdID-1489|22=4|38=100000|44=100|48=US95709TAH32|54=1|55=[N/A/]|63=3|67=1|423=1|29726=100.25|453=1|448=T1Kauaiblk4|447=C|452=11|10=168|8=FIX.4.4|9=57|35=0|34=48|49=T1Kauaiblk4|52=20210217-10:29:37.114|56=MA|10=121|8=FIX.4.4|9=57|35=0|34=49|49=T1Kauaiblk4|52=20210217-10:31:07.509|56=MA|10=120|8=FIX.4.4|9=57|35=0|34=50|49=T1Kauaiblk4|52=20210217-10:32:38.113|56=MA|10=108|8=FIX.4.4|9=57|35=0|34=51|49=T1Kauaiblk4|52=20210217-10:34:08.114|56=MA|10=109|8=FIX.4.4|9=57|35=0|34=52|49=T1Kauaiblk4|52=20210217-10:35:39.115|56=MA|10=116|8=FIX.4.4|9=57|35=0|34=53|49=T1Kauaiblk4|52=20210217-10:37:09.115|56=MA|10=116|8=FIX.4.4|9=57|35=0|34=54|49=T1Kauaiblk4|52=20210217-10:38:40.115|56=MA|10=113|8=FIX.4.4|9=57|35=0|34=55|49=T1Kauaiblk4|52=20210217-10:40:10.115|56=MA|10=104|8=FIX.4.4|9=57|35=0|34=56|49=T1Kauaiblk4|52=20210217-10:41:41.114|56=MA|10=109|8=FIX.4.4|9=57|35=0|34=57|49=T1Kauaiblk4|52=20210217-10:43:11.115|56=MA|10=110|8=FIX.4.4|9=57|35=0|34=58|49=T1Kauaiblk4|52=20210217-10:44:41.115|56=MA|10=115|8=FIX.4.4|9=57|35=0|34=59|49=T1Kauaiblk4|52=20210217-10:46:11.116|56=MA|10=116|8=FIX.4.4|9=57|35=0|34=60|49=T1Kauaiblk4|52=20210217-10:47:42.115|56=MA|10=112|8=FIX.4.4|9=57|35=0|34=61|49=T1Kauaiblk4|52=20210217-10:49:12.115|56=MA|10=112|8=FIX.4.4|9=57|35=0|34=62|49=T1Kauaiblk4|52=20210217-10:50:42.115|56=MA|10=108|8=FIX.4.4|9=57|35=0|34=63|49=T1Kauaiblk4|52=20210217-10:52:12.116|56=MA|10=109|8=FIX.4.4|9=57|35=0|34=64|49=T1Kauaiblk4|52=20210217-10:53:42.116|56=MA|10=114|8=FIX.4.4|9=57|35=0|34=65|49=T1Kauaiblk4|52=20210217-10:55:13.116|56=MA|10=115|8=FIX.4.4|9=57|35=0|34=66|49=T1Kauaiblk4|52=20210217-10:56:44.115|56=MA|10=120|8=FIX.4.4|9=57|35=0|34=67|49=T1Kauaiblk4|52=20210217-10:58:14.116|56=MA|10=121|8=FIX.4.4|9=57|35=0|34=68|49=T1Kauaiblk4|52=20210217-10:59:45.115|56=MA|10=126|8=FIX.4.4|9=57|35=0|34=69|49=T1Kauaiblk4|52=20210217-11:01:15.115|56=MA|10=112|8=FIX.4.4|9=57|35=0|34=70|49=T1Kauaiblk4|52=20210217-11:02:45.117|56=MA|10=110|8=FIX.4.4|9=57|35=0|34=71|49=T1Kauaiblk4|52=20210217-11:04:16.116|56=MA|10=110|8=FIX.4.4|9=57|35=0|34=72|49=T1Kauaiblk4|52=20210217-11:05:46.116|56=MA|10=115|8=FIX.4.4|9=57|35=0|34=73|49=T1Kauaiblk4|52=20210217-11:07:16.117|56=MA|10=116|8=FIX.4.4|9=57|35=0|34=74|49=T1Kauaiblk4|52=20210217-11:08:46.117|56=MA|10=121|8=FIX.4.4|9=57|35=0|34=75|49=T1Kauaiblk4|52=20210217-11:10:16.117|56=MA|10=112|8=FIX.4.4|9=57|35=0|34=76|49=T1Kauaiblk4|52=20210217-11:11:47.118|56=MA|10=119|8=FIX.4.4|9=228|35=E|34=77|49=T1Kauaiblk4|52=20210217-11:12:43.931|56=MA|66=ListID-170221-1490|394=2|68=5|73=1|11=ClOrdID-1491|22=4|38=100000|44=100|48=US95709TAH32|54=1|55=[N/A/]|63=3|67=1|423=1|29726=100.25|453=1|448=T1Kauaiblk4|447=C|452=11|10=151|8=FIX.4.4|9=228|35=E|34=78|49=T1Kauaiblk4|52=20210217-11:12:44.416|56=MA|66=ListID-170221-1492|394=2|68=5|73=1|11=ClOrdID-1493|22=4|38=100000|44=100|48=US95709TAH32|54=1|55=[N/A/]|63=3|67=1|423=1|29726=100.25|453=1|448=T1Kauaiblk4|447=C|452=11|10=155|8=FIX.4.4|9=228|35=E|34=79|49=T1Kauaiblk4|52=20210217-11:12:44.985|56=MA|66=ListID-170221-1494|394=2|68=5|73=1|11=ClOrdID-1495|22=4|38=100000|44=100|48=US95709TAH32|54=1|55=[N/A/]|63=3|67=1|423=1|29726=100.25|453=1|448=T1Kauaiblk4|447=C|452=11|10=171|8=FIX.4.4|9=57|35=0|34=80|49=T1Kauaiblk4|52=20210217-11:14:15.118|56=MA|10=112|8=FIX.4.4|9=57|35=0|34=81|49=T1Kauaiblk4|52=20210217-11:15:45.121|56=MA|10=111|8=FIX.4.4|9=57|35=0|34=82|49=T1Kauaiblk4|52=20210217-11:17:15.121|56=MA|10=111|8=FIX.4.4|9=57|35=0|34=83|49=T1Kauaiblk4|52=20210217-11:18:45.122|56=MA|10=117|8=FIX.4.4|9=57|35=0|34=84|49=T1Kauaiblk4|52=20210217-11:20:15.125|56=MA|10=111|8=FIX.4.4|9=57|35=0|34=85|49=T1Kauaiblk4|52=20210217-11:21:45.126|56=MA|10=117|8=FIX.4.4|9=57|35=0|34=86|49=T1Kauaiblk4|52=20210217-11:23:15.128|56=MA|10=119|8=FIX.4.4|9=57|35=0|34=87|49=T1Kauaiblk4|52=20210217-11:24:45.128|56=MA|10=124|8=FIX.4.4|9=57|35=0|34=88|49=T1Kauaiblk4|52=20210217-11:26:15.128|56=MA|10=124|8=FIX.4.4|9=57|35=0|34=89|49=T1Kauaiblk4|52=20210217-11:27:45.130|56=MA|10=122|8=FIX.4.4|9=57|35=0|34=90|49=T1Kauaiblk4|52=20210217-11:29:15.132|56=MA|10=115|8=FIX.4.4|9=57|35=0|34=91|49=T1Kauaiblk4|52=20210217-11:30:45.134|56=MA|10=113|8=FIX.4.4|9=57|35=0|34=92|49=T1Kauaiblk4|52=20210217-11:32:16.134|56=MA|10=114|8=FIX.4.4|9=57|35=0|34=93|49=T1Kauaiblk4|52=20210217-11:33:46.136|56=MA|10=121|8=FIX.4.4|9=57|35=0|34=94|49=T1Kauaiblk4|52=20210217-11:35:16.137|56=MA|10=122|8=FIX.4.4|9=57|35=0|34=95|49=T1Kauaiblk4|52=20210217-11:36:47.137|56=MA|10=128|8=FIX.4.4|9=57|35=0|34=96|49=T1Kauaiblk4|52=20210217-11:38:17.138|56=MA|10=129|8=FIX.4.4|9=57|35=0|34=97|49=T1Kauaiblk4|52=20210217-11:39:47.139|56=MA|10=135|8=FIX.4.4|9=57|35=0|34=98|49=T1Kauaiblk4|52=20210217-11:41:17.141|56=MA|10=119|8=FIX.4.4|9=57|35=0|34=99|49=T1Kauaiblk4|52=20210217-11:42:48.142|56=MA|10=126|8=FIX.4.4|9=58|35=0|34=100|49=T1Kauaiblk4|52=20210217-11:44:18.143|56=MA|10=158|8=FIX.4.4|9=58|35=0|34=101|49=T1Kauaiblk4|52=20210217-11:45:48.144|56=MA|10=164|8=FIX.4.4|9=58|35=0|34=102|49=T1Kauaiblk4|52=20210217-11:47:18.145|56=MA|10=165|8=FIX.4.4|9=58|35=0|34=103|49=T1Kauaiblk4|52=20210217-11:48:49.146|56=MA|10=172|8=FIX.4.4|9=58|35=0|34=104|49=T1Kauaiblk4|52=20210217-11:50:19.146|56=MA|10=163|8=FIX.4.4|9=58|35=0|34=105|49=T1Kauaiblk4|52=20210217-11:51:49.147|56=MA|10=169|8=FIX.4.4|9=58|35=0|34=106|49=T1Kauaiblk4|52=20210217-11:53:19.147|56=MA|10=169|8=FIX.4.4|9=58|35=0|34=107|49=T1Kauaiblk4|52=20210217-11:54:49.148|56=MA|10=175|8=FIX.4.4|9=58|35=0|34=108|49=T1Kauaiblk4|52=20210217-11:56:19.148|56=MA|10=175|8=FIX.4.4|9=58|35=0|34=109|49=T1Kauaiblk4|52=20210217-11:57:49.149|56=MA|10=181|8=FIX.4.4|9=58|35=0|34=110|49=T1Kauaiblk4|52=20210217-11:59:19.150|56=MA|10=164|8=FIX.4.4|9=58|35=0|34=111|49=T1Kauaiblk4|52=20210217-12:00:49.151|56=MA|10=156|8=FIX.4.4|9=58|35=0|34=112|49=T1Kauaiblk4|52=20210217-12:02:19.151|56=MA|10=156|8=FIX.4.4|9=58|35=0|34=113|49=T1Kauaiblk4|52=20210217-12:03:49.152|56=MA|10=162|8=FIX.4.4|9=58|35=0|34=114|49=T1Kauaiblk4|52=20210217-12:05:19.152|56=MA|10=162|8=FIX.4.4|9=58|35=0|34=115|49=T1Kauaiblk4|52=20210217-12:06:49.154|56=MA|10=169|8=FIX.4.4|9=58|35=0|34=116|49=T1Kauaiblk4|52=20210217-12:08:19.155|56=MA|10=170|8=FIX.4.4|9=58|35=0|34=117|49=T1Kauaiblk4|52=20210217-12:09:49.156|56=MA|10=176|8=FIX.4.4|9=58|35=0|34=118|49=T1Kauaiblk4|52=20210217-12:11:20.157|56=MA|10=160|8=FIX.4.4|9=58|35=0|34=119|49=T1Kauaiblk4|52=20210217-12:12:51.156|56=MA|10=165|8=FIX.4.4|9=58|35=0|34=120|49=T1Kauaiblk4|52=20210217-12:14:21.156|56=MA|10=156|8=FIX.4.4|9=58|35=0|34=121|49=T1Kauaiblk4|52=20210217-12:15:51.158|56=MA|10=163|8=FIX.4.4|9=229|35=E|34=122|49=T1Kauaiblk4|52=20210217-12:16:58.390|56=MA|66=ListID-170221-1496|394=2|68=5|73=1|11=ClOrdID-1497|22=4|38=100000|44=100|48=US95709TAH32|54=1|55=[N/A/]|63=3|67=1|423=1|29726=100.25|453=1|448=T1Kauaiblk4|447=C|452=11|10=213|8=FIX.4.4|9=229|35=E|34=123|49=T1Kauaiblk4|52=20210217-12:16:59.192|56=MA|66=ListID-170221-1498|394=2|68=5|73=1|11=ClOrdID-1499|22=4|38=100000|44=100|48=US95709TAH32|54=1|55=[N/A/]|63=3|67=1|423=1|29726=100.25|453=1|448=T1Kauaiblk4|447=C|452=11|10=219|8=FIX.4.4|9=229|35=E|34=124|49=T1Kauaiblk4|52=20210217-12:16:59.890|56=MA|66=ListID-170221-1500|394=2|68=5|73=1|11=ClOrdID-1501|22=4|38=100000|44=100|48=US95709TAH32|54=1|55=[N/A/]|63=3|67=1|423=1|29726=100.25|453=1|448=T1Kauaiblk4|447=C|452=11|10=193|8=FIX.4.4|9=229|35=E|34=125|49=T1Kauaiblk4|52=20210217-12:17:00.438|56=MA|66=ListID-170221-1502|394=2|68=5|73=1|11=ClOrdID-1503|22=4|38=100000|44=100|48=US95709TAH32|54=1|55=[N/A/]|63=3|67=1|423=1|29726=100.25|453=1|448=T1Kauaiblk4|447=C|452=11|10=183|8=FIX.4.4|9=58|35=0|34=126|49=T1Kauaiblk4|52=20210217-12:18:31.158|56=MA|10=169|8=FIX.4.4|9=58|35=0|34=127|49=T1Kauaiblk4|52=20210217-12:20:01.160|56=MA|10=153|8=FIX.4.4|9=58|35=0|34=128|49=T1Kauaiblk4|52=20210217-12:21:31.160|56=MA|10=158|8=FIX.4.4|9=58|35=0|34=129|49=T1Kauaiblk4|52=20210217-12:23:01.160|56=MA|10=158|8=FIX.4.4|9=58|35=0|34=130|49=T1Kauaiblk4|52=20210217-12:24:31.160|56=MA|10=154|8=FIX.4.4|9=58|35=0|34=131|49=T1Kauaiblk4|52=20210217-12:26:01.161|56=MA|10=155|8=FIX.4.4|9=58|35=0|34=132|49=T1Kauaiblk4|52=20210217-12:27:31.162|56=MA|10=161|8=FIX.4.4|9=58|35=0|34=133|49=T1Kauaiblk4|52=20210217-12:29:01.163|56=MA|10=162|8=FIX.4.4|9=58|35=0|34=134|49=T1Kauaiblk4|52=20210217-12:30:31.164|56=MA|10=159|8=FIX.4.4|9=58|35=0|34=135|49=T1Kauaiblk4|52=20210217-12:32:01.164|56=MA|10=159|8=FIX.4.4|9=58|35=0|34=136|49=T1Kauaiblk4|52=20210217-12:33:31.165|56=MA|10=165|8=FIX.4.4|9=58|35=0|34=137|49=T1Kauaiblk4|52=20210217-12:35:02.164|56=MA|10=165|8=FIX.4.4|9=58|35=0|34=138|49=T1Kauaiblk4|52=20210217-12:36:32.166|56=MA|10=172|8=FIX.4.4|9=58|35=0|34=139|49=T1Kauaiblk4|52=20210217-12:38:02.166|56=MA|10=172|8=FIX.4.4|9=58|35=0|34=140|49=T1Kauaiblk4|52=20210217-12:39:33.165|56=MA|10=168|8=FIX.4.4|9=58|35=0|34=141|49=T1Kauaiblk4|52=20210217-12:41:03.165|56=MA|10=159|8=FIX.4.4|9=58|35=0|34=142|49=T1Kauaiblk4|52=20210217-12:42:33.167|56=MA|10=166|8=FIX.4.4|9=58|35=0|34=143|49=T1Kauaiblk4|52=20210217-12:44:03.448|56=MA|10=168|8=FIX.4.4|9=58|35=0|34=144|49=T1Kauaiblk4|52=20210217-12:45:33.448|56=MA|10=173|8=FIX.4.4|9=58|35=0|34=145|49=T1Kauaiblk4|52=20210217-12:47:04.168|56=MA|10=173|8=FIX.4.4|9=58|35=0|34=146|49=T1Kauaiblk4|52=20210217-12:48:34.168|56=MA|10=178|8=FIX.4.4|9=58|35=0|34=147|49=T1Kauaiblk4|52=20210217-12:50:04.169|56=MA|10=170|8=FIX.4.4|9=58|35=0|34=148|49=T1Kauaiblk4|52=20210217-12:51:35.169|56=MA|10=176|8=FIX.4.4|9=58|35=0|34=149|49=T1Kauaiblk4|52=20210217-12:53:05.170|56=MA|10=168|8=FIX.4.4|9=58|35=0|34=150|49=T1Kauaiblk4|52=20210217-12:54:35.171|56=MA|10=165|8=FIX.4.4|9=58|35=0|34=151|49=T1Kauaiblk4|52=20210217-12:56:06.170|56=MA|10=165|8=FIX.4.4|9=58|35=0|34=152|49=T1Kauaiblk4|52=20210217-12:57:36.172|56=MA|10=172|8=FIX.4.4|9=58|35=0|34=153|49=T1Kauaiblk4|52=20210217-12:59:07.170|56=MA|10=171|8=FIX.4.4|9=58|35=0|34=154|49=T1Kauaiblk4|52=20210217-13:00:37.171|56=MA|10=163|8=FIX.4.4|9=58|35=0|34=155|49=T1Kauaiblk4|52=20210217-13:02:07.171|56=MA|10=163|8=FIX.4.4|9=58|35=0|34=156|49=T1Kauaiblk4|52=20210217-13:03:37.173|56=MA|10=170|8=FIX.4.4|9=58|35=0|34=157|49=T1Kauaiblk4|52=20210217-13:05:07.173|56=MA|10=170|8=FIX.4.4|9=58|35=0|34=158|49=T1Kauaiblk4|52=20210217-13:06:38.173|56=MA|10=176|8=FIX.4.4|9=58|35=0|34=159|49=T1Kauaiblk4|52=20210217-13:08:08.174|56=MA|10=177|8=FIX.4.4|9=58|35=0|34=160|49=T1Kauaiblk4|52=20210217-13:09:39.174|56=MA|10=174|8=FIX.4.4|9=58|35=0|34=161|49=T1Kauaiblk4|52=20210217-13:11:10.174|56=MA|10=157|8=FIX.4.4|9=58|35=0|34=162|49=T1Kauaiblk4|52=20210217-13:12:41.175|56=MA|10=164|8=FIX.4.4|9=58|35=0|34=163|49=T1Kauaiblk4|52=20210217-13:14:12.175|56=MA|10=165|8=FIX.4.4|9=58|35=0|34=164|49=T1Kauaiblk4|52=20210217-13:15:43.174|56=MA|10=170|8=FIX.4.4|9=58|35=0|34=165|49=T1Kauaiblk4|52=20210217-13:17:13.175|56=MA|10=171|8=FIX.4.4|9=58|35=0|34=166|49=T1Kauaiblk4|52=20210217-13:18:44.176|56=MA|10=178|8=FIX.4.4|9=58|35=0|34=167|49=T1Kauaiblk4|52=20210217-13:20:14.176|56=MA|10=169|8=FIX.4.4|9=58|35=0|34=168|49=T1Kauaiblk4|52=20210217-13:21:45.176|56=MA|10=175|8=FIX.4.4|9=58|35=0|34=169|49=T1Kauaiblk4|52=20210217-13:23:15.176|56=MA|10=175|8=FIX.4.4|9=58|35=0|34=170|49=T1Kauaiblk4|52=20210217-13:24:46.177|56=MA|10=173|8=FIX.4.4|9=58|35=0|34=171|49=T1Kauaiblk4|52=20210217-13:26:17.177|56=MA|10=174|8=FIX.4.4|9=58|35=0|34=172|49=T1Kauaiblk4|52=20210217-13:27:48.177|56=MA|10=180|8=FIX.4.4|9=58|35=0|34=173|49=T1Kauaiblk4|52=20210217-13:29:18.177|56=MA|10=180|8=FIX.4.4|9=58|35=0|34=174|49=T1Kauaiblk4|52=20210217-13:30:49.178|56=MA|10=178|8=FIX.4.4|9=58|35=0|34=175|49=T1Kauaiblk4|52=20210217-13:32:20.177|56=MA|10=169|8=FIX.4.4|9=58|35=0|34=176|49=T1Kauaiblk4|52=20210217-13:33:50.178|56=MA|10=175|8=FIX.4.4|9=58|35=0|34=177|49=T1Kauaiblk4|52=20210217-13:35:20.179|56=MA|10=176|8=FIX.4.4|9=58|35=0|34=178|49=T1Kauaiblk4|52=20210217-13:36:51.177|56=MA|10=180|8=FIX.4.4|9=58|35=0|34=179|49=T1Kauaiblk4|52=20210217-13:38:21.178|56=MA|10=181|8=FIX.4.4|9=58|35=0|34=180|49=T1Kauaiblk4|52=20210217-13:39:51.178|56=MA|10=177|8=FIX.4.4|9=58|35=0|34=181|49=T1Kauaiblk4|52=20210217-13:41:21.179|56=MA|10=169|8=FIX.4.4|9=58|35=0|34=182|49=T1Kauaiblk4|52=20210217-13:42:51.180|56=MA|10=166|8=FIX.4.4|9=58|35=0|34=183|49=T1Kauaiblk4|52=20210217-13:44:22.180|56=MA|10=167|8=FIX.4.4|9=58|35=0|34=184|49=T1Kauaiblk4|52=20210217-13:45:52.180|56=MA|10=172|8=FIX.4.4|9=58|35=0|34=185|49=T1Kauaiblk4|52=20210217-13:47:23.181|56=MA|10=174|8=FIX.4.4|9=58|35=0|34=186|49=T1Kauaiblk4|52=20210217-13:48:53.181|56=MA|10=179|8=FIX.4.4|9=58|35=0|34=187|49=T1Kauaiblk4|52=20210217-13:50:24.180|56=MA|10=170|8=FIX.4.4|9=58|35=0|34=188|49=T1Kauaiblk4|52=20210217-13:51:54.181|56=MA|10=176|8=FIX.4.4|9=58|35=0|34=189|49=T1Kauaiblk4|52=20210217-13:53:25.180|56=MA|10=176|8=FIX.4.4|9=58|35=0|34=190|49=T1Kauaiblk4|52=20210217-13:54:55.180|56=MA|10=172|8=FIX.4.4|9=58|35=0|34=191|49=T1Kauaiblk4|52=20210217-13:56:25.182|56=MA|10=174|8=FIX.4.4|9=58|35=0|34=192|49=T1Kauaiblk4|52=20210217-13:57:56.181|56=MA|10=179|8=FIX.4.4|9=58|35=0|34=193|49=T1Kauaiblk4|52=20210217-13:59:26.181|56=MA|10=179|8=FIX.4.4|9=58|35=0|34=194|49=T1Kauaiblk4|52=20210217-14:00:56.181|56=MA|10=170|8=FIX.4.4|9=58|35=0|34=195|49=T1Kauaiblk4|52=20210217-14:02:26.183|56=MA|10=172|8=FIX.4.4|9=58|35=0|34=196|49=T1Kauaiblk4|52=20210217-14:03:57.182|56=MA|10=177|8=FIX.4.4|9=58|35=0|34=197|49=T1Kauaiblk4|52=20210217-14:05:27.182|56=MA|10=177|8=FIX.4.4|9=58|35=0|34=198|49=T1Kauaiblk4|52=20210217-14:06:57.183|56=MA|10=183|8=FIX.4.4|9=58|35=0|34=199|49=T1Kauaiblk4|52=20210217-14:08:28.182|56=MA|10=183|8=FIX.4.4|9=58|35=0|34=200|49=T1Kauaiblk4|52=20210217-14:09:58.183|56=MA|10=171|8=FIX.4.4|9=58|35=0|34=201|49=T1Kauaiblk4|52=20210217-14:11:28.183|56=MA|10=162|8=FIX.4.4|9=58|35=0|34=202|49=T1Kauaiblk4|52=20210217-14:12:58.183|56=MA|10=167|8=FIX.4.4|9=58|35=0|34=203|49=T1Kauaiblk4|52=20210217-14:14:29.184|56=MA|10=169|8=FIX.4.4|9=58|35=0|34=204|49=T1Kauaiblk4|52=20210217-14:15:59.184|56=MA|10=174|8=FIX.4.4|9=58|35=0|34=205|49=T1Kauaiblk4|52=20210217-14:17:29.184|56=MA|10=174|8=FIX.4.4|9=58|35=0|34=206|49=T1Kauaiblk4|52=20210217-14:18:59.184|56=MA|10=179|8=FIX.4.4|9=58|35=0|34=207|49=T1Kauaiblk4|52=20210217-14:20:30.183|56=MA|10=161|8=FIX.4.4|9=58|35=0|34=208|49=T1Kauaiblk4|52=20210217-14:22:00.183|56=MA|10=161|8=FIX.4.4|9=58|35=0|34=209|49=T1Kauaiblk4|52=20210217-14:23:30.184|56=MA|10=167|8=FIX.4.4|9=58|35=0|34=210|49=T1Kauaiblk4|52=20210217-14:25:00.185|56=MA|10=159|8=FIX.4.4|9=58|35=0|34=211|49=T1Kauaiblk4|52=20210217-14:26:31.185|56=MA|10=165|8=FIX.4.4|9=58|35=0|34=212|49=T1Kauaiblk4|52=20210217-14:28:02.184|56=MA|10=165|8=FIX.4.4|9=58|35=0|34=213|49=T1Kauaiblk4|52=20210217-14:29:32.184|56=MA|10=170|8=FIX.4.4|9=58|35=0|34=214|49=T1Kauaiblk4|52=20210217-14:31:02.185|56=MA|10=162|8=FIX.4.4|9=58|35=0|34=215|49=T1Kauaiblk4|52=20210217-14:32:32.186|56=MA|10=168|8=FIX.4.4|9=58|35=0|34=216|49=T1Kauaiblk4|52=20210217-14:34:03.184|56=MA|10=167|8=FIX.4.4|9=58|35=0|34=217|49=T1Kauaiblk4|52=20210217-14:35:33.184|56=MA|10=172|8=FIX.4.4|9=58|35=0|34=218|49=T1Kauaiblk4|52=20210217-14:37:03.185|56=MA|10=173|8=FIX.4.4|9=58|35=0|34=219|49=T1Kauaiblk4|52=20210217-14:38:33.185|56=MA|10=178|8=FIX.4.4|9=229|35=E|34=220|49=T1Kauaiblk4|52=20210217-14:39:43.383|56=MA|66=ListID-170221-1504|394=2|68=5|73=1|11=ClOrdID-1505|22=4|38=100000|44=100|48=US95709TAH32|54=1|55=[N/A/]|63=3|67=1|423=1|29726=100.25|453=1|448=T1Kauaiblk4|447=C|452=11|10=195|8=FIX.4.4|9=229|35=E|34=221|49=T1Kauaiblk4|52=20210217-14:39:45.083|56=MA|66=ListID-170221-1506|394=2|68=5|73=1|11=ClOrdID-1507|22=4|38=100000|44=100|48=US95709TAH32|54=1|55=[N/A/]|63=3|67=1|423=1|29726=100.25|453=1|448=T1Kauaiblk4|447=C|452=11|10=199|8=FIX.4.4|9=229|35=E|34=222|49=T1Kauaiblk4|52=20210217-14:39:45.946|56=MA|66=ListID-170221-1508|394=2|68=5|73=1|11=ClOrdID-1509|22=4|38=100000|44=100|48=US95709TAH32|54=1|55=[N/A/]|63=3|67=1|423=1|29726=100.25|453=1|448=T1Kauaiblk4|447=C|452=11|10=212|8=FIX.4.4|9=58|35=0|34=223|49=T1Kauaiblk4|52=20210217-14:41:16.186|56=MA|10=169|8=FIX.4.4|9=58|35=0|34=224|49=T1Kauaiblk4|52=20210217-14:42:46.187|56=MA|10=175|8=FIX.4.4|9=58|35=0|34=225|49=T1Kauaiblk4|52=20210217-14:44:16.509|56=MA|10=173|8=FIX.4.4|9=58|35=0|34=226|49=T1Kauaiblk4|52=20210217-14:45:47.185|56=MA|10=179|8=FIX.4.4|9=58|35=0|34=227|49=T1Kauaiblk4|52=20210217-14:47:17.185|56=MA|10=179|8=FIX.4.4|9=58|35=0|34=228|49=T1Kauaiblk4|52=20210217-14:48:47.187|56=MA|10=186|8=FIX.4.4|9=58|35=0|34=229|49=T1Kauaiblk4|52=20210217-14:50:17.187|56=MA|10=177|8=FIX.4.4|9=229|35=E|34=230|49=T1Kauaiblk4|52=20210217-14:50:43.170|56=MA|66=ListID-170221-1510|394=2|68=5|73=1|11=ClOrdID-1511|22=4|38=100000|44=100|48=US95709TAH32|54=1|55=[N/A/]|63=3|67=1|423=1|29726=100.25|453=1|448=T1Kauaiblk4|447=C|452=11|10=177|8=FIX.4.4|9=229|35=E|34=231|49=T1Kauaiblk4|52=20210217-14:50:43.844|56=MA|66=ListID-170221-1512|394=2|68=5|73=1|11=ClOrdID-1513|22=4|38=100000|44=100|48=US95709TAH32|54=1|55=[N/A/]|63=3|67=1|423=1|29726=100.25|453=1|448=T1Kauaiblk4|447=C|452=11|10=190|8=FIX.4.4|9=229|35=E|34=232|49=T1Kauaiblk4|52=20210217-14:50:44.388|56=MA|66=ListID-170221-1514|394=2|68=5|73=1|11=ClOrdID-1515|22=4|38=100000|44=100|48=US95709TAH32|54=1|55=[N/A/]|63=3|67=1|423=1|29726=100.25|453=1|448=T1Kauaiblk4|447=C|452=11|10=199|8=FIX.4.4|9=58|35=0|34=233|49=T1Kauaiblk4|52=20210217-14:52:15.186|56=MA|10=171|8=FIX.4.4|9=58|35=0|34=234|49=T1Kauaiblk4|52=20210217-14:53:45.188|56=MA|10=178|8=FIX.4.4|9=58|35=0|34=235|49=T1Kauaiblk4|52=20210217-14:55:16.188|56=MA|10=179|8=FIX.4.4|9=58|35=0|34=236|49=T1Kauaiblk4|52=20210217-14:56:46.188|56=MA|10=184|8=FIX.4.4|9=58|35=0|34=237|49=T1Kauaiblk4|52=20210217-14:58:17.188|56=MA|10=185|8=FIX.4.4|9=58|35=0|34=238|49=T1Kauaiblk4|52=20210217-14:59:47.188|56=MA|10=190|8=FIX.4.4|9=58|35=0|34=239|49=T1Kauaiblk4|52=20210217-15:01:17.188|56=MA|10=176|8=FIX.4.4|9=58|35=0|34=240|49=T1Kauaiblk4|52=20210217-15:02:47.188|56=MA|10=172|8=FIX.4.4|9=58|35=0|34=241|49=T1Kauaiblk4|52=20210217-15:04:17.188|56=MA|10=172|8=FIX.4.4|9=58|35=0|34=242|49=T1Kauaiblk4|52=20210217-15:05:47.188|56=MA|10=177|8=FIX.4.4|9=58|35=0|34=243|49=T1Kauaiblk4|52=20210217-15:07:18.188|56=MA|10=178|8=FIX.4.4|9=58|35=0|34=244|49=T1Kauaiblk4|52=20210217-15:08:49.188|56=MA|10=184|8=FIX.4.4|9=58|35=0|34=245|49=T1Kauaiblk4|52=20210217-15:10:20.188|56=MA|10=167|8=FIX.4.4|9=58|35=0|34=246|49=T1Kauaiblk4|52=20210217-15:11:51.189|56=MA|10=174|8=FIX.4.4|9=58|35=0|34=247|49=T1Kauaiblk4|52=20210217-15:13:21.189|56=MA|10=174|8=FIX.4.4|9=58|35=0|34=248|49=T1Kauaiblk4|52=20210217-15:14:51.189|56=MA|10=179|8=FIX.4.4|9=58|35=0|34=249|49=T1Kauaiblk4|52=20210217-15:16:22.189|56=MA|10=180|8=FIX.4.4|9=58|35=0|34=250|49=T1Kauaiblk4|52=20210217-15:17:53.189|56=MA|10=177|8=FIX.4.4|9=58|35=0|34=251|49=T1Kauaiblk4|52=20210217-15:19:23.190|56=MA|10=169|8=FIX.4.4|9=58|35=0|34=252|49=T1Kauaiblk4|52=20210217-15:20:53.190|56=MA|10=165|8=FIX.4.4|9=58|35=0|34=253|49=T1Kauaiblk4|52=20210217-15:22:24.188|56=MA|10=173|8=FIX.4.4|9=58|35=0|34=254|49=T1Kauaiblk4|52=20210217-15:23:54.188|56=MA|10=178|8=FIX.4.4|9=58|35=0|34=255|49=T1Kauaiblk4|52=20210217-15:25:24.189|56=MA|10=179|8=FIX.4.4|9=58|35=0|34=256|49=T1Kauaiblk4|52=20210217-15:26:54.190|56=MA|10=176|8=FIX.4.4|9=229|35=E|34=257|49=T1Kauaiblk4|52=20210217-15:27:40.816|56=MA|66=ListID-170221-1516|394=2|68=5|73=1|11=ClOrdID-1517|22=4|38=100000|44=100|48=US95709TAH32|54=1|55=[N/A/]|63=3|67=1|423=1|29726=100.25|453=1|448=T1Kauaiblk4|447=C|452=11|10=207|8=FIX.4.4|9=229|35=E|34=258|49=T1Kauaiblk4|52=20210217-15:27:41.988|56=MA|66=ListID-170221-1518|394=2|68=5|73=1|11=ClOrdID-1519|22=4|38=100000|44=100|48=US95709TAH32|54=1|55=[N/A/]|63=3|67=1|423=1|29726=100.25|453=1|448=T1Kauaiblk4|447=C|452=11|10=223|8=FIX.4.4|9=229|35=E|34=259|49=T1Kauaiblk4|52=20210217-15:27:42.433|56=MA|66=ListID-170221-1520|394=2|68=5|73=1|11=ClOrdID-1521|22=4|38=100000|44=100|48=US95709TAH32|54=1|55=[N/A/]|63=3|67=1|423=1|29726=100.25|453=1|448=T1Kauaiblk4|447=C|452=11|10=196|8=FIX.4.4|9=58|35=0|34=260|49=T1Kauaiblk4|52=20210217-15:29:13.189|56=MA|10=177|8=FIX.4.4|9=58|35=0|34=261|49=T1Kauaiblk4|52=20210217-15:30:43.190|56=MA|10=165|8=FIX.4.4|9=58|35=0|34=262|49=T1Kauaiblk4|52=20210217-15:32:13.421|56=MA|10=162|8=FIX.4.4|9=58|35=0|34=263|49=T1Kauaiblk4|52=20210217-15:33:43.512|56=MA|10=168|8=FIX.4.4|9=58|35=0|34=264|49=T1Kauaiblk4|52=20210217-15:35:14.191|56=MA|10=172|8=FIX.4.4|9=58|35=0|34=265|49=T1Kauaiblk4|52=20210217-15:36:44.503|56=MA|10=174|8=FIX.4.4|9=58|35=0|34=266|49=T1Kauaiblk4|52=20210217-15:38:15.190|56=MA|10=177|8=FIX.4.4|9=58|35=0|34=267|49=T1Kauaiblk4|52=20210217-15:39:45.190|56=MA|10=182|8=FIX.4.4|9=58|35=0|34=268|49=T1Kauaiblk4|52=20210217-15:41:15.191|56=MA|10=174|8=FIX.4.4|9=58|35=0|34=269|49=T1Kauaiblk4|52=20210217-15:42:45.191|56=MA|10=179|8=FIX.4.4|9=58|35=0|34=270|49=T1Kauaiblk4|52=20210217-15:44:15.426|56=MA|10=171|8=FIX.4.4|9=58|35=0|34=271|49=T1Kauaiblk4|52=20210217-15:45:45.494|56=MA|10=181|8=FIX.4.4|9=58|35=0|34=272|49=T1Kauaiblk4|52=20210217-15:47:15.506|56=MA|10=175|8=FIX.4.4|9=58|35=0|34=273|49=T1Kauaiblk4|52=20210217-15:48:46.194|56=MA|10=184|8=FIX.4.4|9=58|35=0|34=274|49=T1Kauaiblk4|52=20210217-15:50:16.195|56=MA|10=176|8=FIX.4.4|9=58|35=0|34=275|49=T1Kauaiblk4|52=20210217-15:51:46.197|56=MA|10=183|8=FIX.4.4|9=58|35=0|34=276|49=T1Kauaiblk4|52=20210217-15:53:16.199|56=MA|10=185|8=FIX.4.4|9=58|35=0|34=277|49=T1Kauaiblk4|52=20210217-15:54:46.201|56=MA|10=174|8=FIX.4.4|9=58|35=0|34=278|49=T1Kauaiblk4|52=20210217-15:56:16.202|56=MA|10=175|8=FIX.4.4|9=58|35=0|34=279|49=T1Kauaiblk4|52=20210217-15:57:46.202|56=MA|10=180|8=FIX.4.4|9=58|35=0|34=280|49=T1Kauaiblk4|52=20210217-15:59:16.203|56=MA|10=172|8=FIX.4.4|9=58|35=0|34=281|49=T1Kauaiblk4|52=20210217-16:00:46.205|56=MA|10=165|8=FIX.4.4|9=58|35=0|34=282|49=T1Kauaiblk4|52=20210217-16:02:16.207|56=MA|10=167|8=FIX.4.4|9=58|35=0|34=283|49=T1Kauaiblk4|52=20210217-16:03:46.207|56=MA|10=172|8=FIX.4.4|9=58|35=0|34=284|49=T1Kauaiblk4|52=20210217-16:05:16.208|56=MA|10=173|8=FIX.4.4|9=58|35=0|34=285|49=T1Kauaiblk4|52=20210217-16:06:46.209|56=MA|10=179|8=FIX.4.4|9=58|35=0|34=286|49=T1Kauaiblk4|52=20210217-16:08:16.212|56=MA|10=173|8=FIX.4.4|9=58|35=0|34=287|49=T1Kauaiblk4|52=20210217-16:09:46.212|56=MA|10=178|8=FIX.4.4|9=58|35=0|34=288|49=T1Kauaiblk4|52=20210217-16:11:16.214|56=MA|10=171|8=FIX.4.4|9=58|35=0|34=289|49=T1Kauaiblk4|52=20210217-16:12:47.215|56=MA|10=178|8=FIX.4.4|9=58|35=0|34=290|49=T1Kauaiblk4|52=20210217-16:14:17.216|56=MA|10=170|8=FIX.4.4|9=58|35=0|34=291|49=T1Kauaiblk4|52=20210217-16:15:47.216|56=MA|10=175|8=FIX.4.4|9=58|35=0|34=292|49=T1Kauaiblk4|52=20210217-16:17:17.217|56=MA|10=176|8=FIX.4.4|9=58|35=0|34=293|49=T1Kauaiblk4|52=20210217-16:18:47.219|56=MA|10=183|8=FIX.4.4|9=229|35=E|34=294|49=T1Kauaiblk4|52=20210217-16:19:56.869|56=MA|66=ListID-170221-1522|394=2|68=5|73=1|11=ClOrdID-1523|22=4|38=100000|44=100|48=US95709TAH32|54=1|55=[N/A/]|63=3|67=1|423=1|29726=100.25|453=1|448=T1Kauaiblk4|447=C|452=11|10=219|8=FIX.4.4|9=229|35=E|34=295|49=T1Kauaiblk4|52=20210217-16:19:58.259|56=MA|66=ListID-170221-1524|394=2|68=5|73=1|11=ClOrdID-1525|22=4|38=100000|44=100|48=US95709TAH32|54=1|55=[N/A/]|63=3|67=1|423=1|29726=100.25|453=1|448=T1Kauaiblk4|447=C|452=11|10=219|8=FIX.4.4|9=229|35=E|34=296|49=T1Kauaiblk4|52=20210217-16:19:59.207|56=MA|66=ListID-170221-1526|394=2|68=5|73=1|11=ClOrdID-1527|22=4|38=100000|44=100|48=US95709TAH32|54=1|55=[N/A/]|63=3|67=1|423=1|29726=100.25|453=1|448=T1Kauaiblk4|447=C|452=11|10=218|8=FIX.4.4|9=229|35=E|34=297|49=T1Kauaiblk4|52=20210217-16:20:00.042|56=MA|66=ListID-170221-1528|394=2|68=5|73=1|11=ClOrdID-1529|22=4|38=100000|44=100|48=US95709TAH32|54=1|55=[N/A/]|63=3|67=1|423=1|29726=100.25|453=1|448=T1Kauaiblk4|447=C|452=11|10=198|8=FIX.4.4|9=229|35=E|34=298|49=T1Kauaiblk4|52=20210217-16:20:00.803|56=MA|66=ListID-170221-1530|394=2|68=5|73=1|11=ClOrdID-1531|22=4|38=100000|44=100|48=US95709TAH32|54=1|55=[N/A/]|63=3|67=1|423=1|29726=100.25|453=1|448=T1Kauaiblk4|447=C|452=11|10=190|8=FIX.4.4|9=229|35=E|34=299|49=T1Kauaiblk4|52=20210217-16:21:20.702|56=MA|66=ListID-170221-1532|394=2|68=5|73=1|11=ClOrdID-1533|22=4|38=100000|44=100|48=US95709TAH32|54=1|55=[N/A/]|63=3|67=1|423=1|29726=100.25|453=1|448=T1Kauaiblk4|447=C|452=11|10=196|8=FIX.4.4|9=229|35=E|34=300|49=T1Kauaiblk4|52=20210217-16:21:21.499|56=MA|66=ListID-170221-1534|394=2|68=5|73=1|11=ClOrdID-1535|22=4|38=100000|44=100|48=US95709TAH32|54=1|55=[N/A/]|63=3|67=1|423=1|29726=100.25|453=1|448=T1Kauaiblk4|447=C|452=11|10=197|8=FIX.4.4|9=58|35=0|34=301|49=T1Kauaiblk4|52=20210217-16:22:52.220|56=MA|10=156|8=FIX.4.4|9=58|35=0|34=302|49=T1Kauaiblk4|52=20210217-16:24:22.221|56=MA|10=157|8=FIX.4.4|9=58|35=0|34=303|49=T1Kauaiblk4|52=20210217-16:25:52.222|56=MA|10=163|8=FIX.4.4|9=58|35=0|34=304|49=T1Kauaiblk4|52=20210217-16:27:22.224|56=MA|10=165|8=FIX.4.4|9=58|35=0|34=305|49=T1Kauaiblk4|52=20210217-16:28:52.225|56=MA|10=171|8=FIX.4.4|9=58|35=0|34=306|49=T1Kauaiblk4|52=20210217-16:30:23.224|56=MA|10=162|8=FIX.4.4|9=58|35=0|34=307|49=T1Kauaiblk4|52=20210217-16:31:53.225|56=MA|10=168|8=FIX.4.4|9=58|35=5|34=308|49=T1Kauaiblk4|52=20210217-16:32:57.503|56=MA|10=178|8=FIX.4.4|9=91|35=A|34=1|49=T1Kauaiblk4|52=20210217-16:50:41.235|56=MA|98=0|108=90|95=8|96=3.0.0rc5|141=Y|10=034|8=FIX.4.4|9=227|35=E|34=2|49=T1Kauaiblk4|52=20210217-16:50:44.517|56=MA|66=ListID-170221-1536|394=2|68=5|73=1|11=ClOrdID-1537|22=4|38=100000|44=100|48=US06051GEN51|54=1|55=[N/A/]|63=3|67=1|423=1|29726=100.25|453=1|448=T1Kauaiblk4|447=C|452=11|10=080|8=FIX.4.4|9=227|35=E|34=3|49=T1Kauaiblk4|52=20210217-16:50:45.174|56=MA|66=ListID-170221-1538|394=2|68=5|73=1|11=ClOrdID-1539|22=4|38=100000|44=100|48=US06051GEN51|54=1|55=[N/A/]|63=3|67=1|423=1|29726=100.25|453=1|448=T1Kauaiblk4|447=C|452=11|10=085|8=FIX.4.4|9=227|35=E|34=4|49=T1Kauaiblk4|52=20210217-16:50:45.731|56=MA|66=ListID-170221-1540|394=2|68=5|73=1|11=ClOrdID-1541|22=4|38=100000|44=100|48=US06051GEN51|54=1|55=[N/A/]|63=3|67=1|423=1|29726=100.25|453=1|448=T1Kauaiblk4|447=C|452=11|10=071|8=FIX.4.4|9=56|35=0|34=5|49=T1Kauaiblk4|52=20210217-16:52:16.073|56=MA|10=068|8=FIX.4.4|9=56|35=0|34=6|49=T1Kauaiblk4|52=20210217-16:53:46.074|56=MA|10=074|8=FIX.4.4|9=227|35=E|34=7|49=T1Kauaiblk4|52=20210217-16:55:11.707|56=MA|66=ListID-170221-1542|394=2|68=5|73=1|11=ClOrdID-1543|22=4|38=100000|44=100|48=US40434AAB52|54=1|55=[N/A/]|63=3|67=1|423=1|29726=100.25|453=1|448=T1Kauaiblk4|447=C|452=11|10=061|8=FIX.4.4|9=227|35=E|34=8|49=T1Kauaiblk4|52=20210217-16:55:12.278|56=MA|66=ListID-170221-1544|394=2|68=5|73=1|11=ClOrdID-1545|22=4|38=100000|44=100|48=US40434AAB52|54=1|55=[N/A/]|63=3|67=1|423=1|29726=100.25|453=1|448=T1Kauaiblk4|447=C|452=11|10=070|8=FIX.4.4|9=56|35=0|34=9|49=T1Kauaiblk4|52=20210217-16:56:43.129|56=MA|10=078|8=FIX.4.4|9=57|35=0|34=10|49=T1Kauaiblk4|52=20210217-16:58:13.238|56=MA|10=119|8=FIX.4.4|9=57|35=0|34=11|49=T1Kauaiblk4|52=20210217-16:59:44.070|56=MA|10=119|8=FIX.4.4|9=57|35=0|34=12|49=T1Kauaiblk4|52=20210217-17:01:14.239|56=MA|10=112|8=FIX.4.4|9=57|35=0|34=13|49=T1Kauaiblk4|52=20210217-17:02:45.240|56=MA|10=110|8=FIX.4.4|9=57|35=0|34=14|49=T1Kauaiblk4|52=20210217-17:04:15.241|56=MA|10=111|8=FIX.4.4|9=57|35=0|34=15|49=T1Kauaiblk4|52=20210217-17:05:45.241|56=MA|10=116|8=FIX.4.4|9=57|35=0|34=16|49=T1Kauaiblk4|52=20210217-17:07:15.241|56=MA|10=116|8=FIX.4.4|9=57|35=0|34=17|49=T1Kauaiblk4|52=20210217-17:08:45.241|56=MA|10=121|8=FIX.4.4|9=57|35=0|34=18|49=T1Kauaiblk4|52=20210217-17:10:15.241|56=MA|10=112|8=FIX.4.4|9=57|35=0|34=19|49=T1Kauaiblk4|52=20210217-17:11:45.242|56=MA|10=118|8=FIX.4.4|9=57|35=0|34=20|49=T1Kauaiblk4|52=20210217-17:13:15.242|56=MA|10=109|8=FIX.4.4|9=57|35=0|34=21|49=T1Kauaiblk4|52=20210217-17:14:45.244|56=MA|10=116|8=FIX.4.4|9=57|35=0|34=22|49=T1Kauaiblk4|52=20210217-17:16:15.244|56=MA|10=116|8=FIX.4.4|9=57|35=0|34=23|49=T1Kauaiblk4|52=20210217-17:17:46.245|56=MA|10=123|8=FIX.4.4|9=57|35=0|34=24|49=T1Kauaiblk4|52=20210217-17:19:17.245|56=MA|10=124|8=FIX.4.4|9=57|35=0|34=25|49=T1Kauaiblk4|52=20210217-17:20:47.246|56=MA|10=121|8=FIX.4.4|9=57|35=0|34=26|49=T1Kauaiblk4|52=20210217-17:22:17.246|56=MA|10=121|8=FIX.4.4|9=57|35=0|34=27|49=T1Kauaiblk4|52=20210217-17:23:47.246|56=MA|10=126|8=FIX.4.4|9=57|35=0|34=28|49=T1Kauaiblk4|52=20210217-17:25:17.247|56=MA|10=127|8=FIX.4.4|9=57|35=0|34=29|49=T1Kauaiblk4|52=20210217-17:26:48.247|56=MA|10=133|8=FIX.4.4|9=57|35=0|34=30|49=T1Kauaiblk4|52=20210217-17:28:18.247|56=MA|10=124|8=FIX.4.4|9=57|35=0|34=31|49=T1Kauaiblk4|52=20210217-17:29:49.248|56=MA|10=131|8=FIX.4.4|9=57|35=0|34=32|49=T1Kauaiblk4|52=20210217-17:31:20.247|56=MA|10=113|8=FIX.4.4|9=57|35=0|34=33|49=T1Kauaiblk4|52=20210217-17:32:50.247|56=MA|10=118|8=FIX.4.4|9=57|35=0|34=34|49=T1Kauaiblk4|52=20210217-17:34:20.249|56=MA|10=120|8=FIX.4.4|9=57|35=0|34=35|49=T1Kauaiblk4|52=20210217-17:35:51.249|56=MA|10=126|8=FIX.4.4|9=57|35=0|34=36|49=T1Kauaiblk4|52=20210217-17:37:22.250|56=MA|10=119|8=FIX.4.4|9=57|35=0|34=37|49=T1Kauaiblk4|52=20210217-17:38:53.250|56=MA|10=125|8=FIX.4.4|9=57|35=0|34=38|49=T1Kauaiblk4|52=20210217-17:40:24.249|56=MA|10=125|8=FIX.4.4|9=57|35=0|34=39|49=T1Kauaiblk4|52=20210217-17:41:54.250|56=MA|10=122|8=FIX.4.4|9=57|35=0|34=40|49=T1Kauaiblk4|52=20210217-17:43:24.251|56=MA|10=114|8=FIX.4.4|9=57|35=0|34=41|49=T1Kauaiblk4|52=20210217-17:44:54.251|56=MA|10=119|8=FIX.4.4|9=57|35=0|34=42|49=T1Kauaiblk4|52=20210217-17:46:25.251|56=MA|10=120|8=FIX.4.4|9=57|35=0|34=43|49=T1Kauaiblk4|52=20210217-17:47:55.252|56=MA|10=126|8=FIX.4.4|9=57|35=0|34=44|49=T1Kauaiblk4|52=20210217-17:49:25.253|56=MA|10=127|8=FIX.4.4|9=57|35=0|34=45|49=T1Kauaiblk4|52=20210217-17:50:56.251|56=MA|10=122|8=FIX.4.4|9=57|35=0|34=46|49=T1Kauaiblk4|52=20210217-17:52:26.252|56=MA|10=123|8=FIX.4.4|9=57|35=0|34=47|49=T1Kauaiblk4|52=20210217-17:53:56.252|56=MA|10=128|8=FIX.4.4|9=57|35=0|34=48|49=T1Kauaiblk4|52=20210217-17:55:26.252|56=MA|10=128|8=FIX.4.4|9=57|35=0|34=49|49=T1Kauaiblk4|52=20210217-17:56:56.252|56=MA|10=133|8=FIX.4.4|9=57|35=0|34=50|49=T1Kauaiblk4|52=20210217-17:58:26.254|56=MA|10=126|8=FIX.4.4|9=57|35=0|34=51|49=T1Kauaiblk4|52=20210217-17:59:56.254|56=MA|10=131|8=FIX.4.4|9=57|35=0|34=52|49=T1Kauaiblk4|52=20210217-18:01:26.254|56=MA|10=117|8=FIX.4.4|9=57|35=0|34=53|49=T1Kauaiblk4|52=20210217-18:02:56.277|56=MA|10=127|8=FIX.4.4|9=57|35=0|34=54|49=T1Kauaiblk4|52=20210217-18:04:27.254|56=MA|10=123|8=FIX.4.4|9=57|35=0|34=55|49=T1Kauaiblk4|52=20210217-18:05:57.260|56=MA|10=125|8=FIX.4.4|9=57|35=0|34=56|49=T1Kauaiblk4|52=20210217-18:07:28.269|56=MA|10=135|8=FIX.4.4|9=91|35=A|34=1|49=T1Kauaiblk4|52=20210218-08:59:24.643|56=MA|98=0|108=90|95=8|96=3.0.0rc5|141=Y|10=049|8=FIX.4.4|9=699|35=E|34=2|49=T1Kauaiblk4|52=20210218-08:59:43.275|56=MA|66=ListID-160221-1402|394=2|68=5|73=5|11=ClOrdID-1403|22=4|38=100000|44=100|48=US06051GEN51|54=1|55=[N/A/]|63=3|67=1|423=1|29726=100.25|453=1|448=T1Kauaiblk4|447=C|452=11|11=ClOrdID-1404|22=4|38=100000|44=101|48=US40434AAB52|54=1|55=[N/A]|63=3|67=2|29726=101.25|11=ClOrdID-1405|22=4|38=130000|44=102|48=US95709TAH32|54=1|55=[N/A/]|63=3|67=1|29726=102.25|453=1|448=T1Kauaiblk4|447=C|452=11|11=ClOrdID-1406|22=4|38=250000|44=103|48=US427866AZ15|54=1|55=[N/A/]|63=3|67=1|29726=103.25|453=1|448=T1Kauaiblk4|447=C|452=11|11=ClOrdID-1407|22=4|38=350000|44=104|48=US29379VAW37|54=1|55=[N/A/]|63=3|67=1|29726=104.25|453=1|448=T1Kauaiblk4|447=C|452=11|10=128|8=FIX.4.4|9=699|35=E|34=3|49=T1Kauaiblk4|52=20210218-08:59:43.781|56=MA|66=ListID-160221-1408|394=2|68=5|73=5|11=ClOrdID-1409|22=4|38=100000|44=100|48=US06051GEN51|54=1|55=[N/A/]|63=3|67=1|423=1|29726=100.25|453=1|448=T1Kauaiblk4|447=C|452=11|11=ClOrdID-1410|22=4|38=100000|44=101|48=US40434AAB52|54=1|55=[N/A]|63=3|67=2|29726=101.25|11=ClOrdID-1411|22=4|38=130000|44=102|48=US95709TAH32|54=1|55=[N/A/]|63=3|67=1|29726=102.25|453=1|448=T1Kauaiblk4|447=C|452=11|11=ClOrdID-1412|22=4|38=250000|44=103|48=US427866AZ15|54=1|55=[N/A/]|63=3|67=1|29726=103.25|453=1|448=T1Kauaiblk4|447=C|452=11|11=ClOrdID-1413|22=4|38=350000|44=104|48=US29379VAW37|54=1|55=[N/A/]|63=3|67=1|29726=104.25|453=1|448=T1Kauaiblk4|447=C|452=11|10=131|8=FIX.4.4|9=699|35=E|34=4|49=T1Kauaiblk4|52=20210218-08:59:44.174|56=MA|66=ListID-160221-1414|394=2|68=5|73=5|11=ClOrdID-1415|22=4|38=100000|44=100|48=US06051GEN51|54=1|55=[N/A/]|63=3|67=1|423=1|29726=100.25|453=1|448=T1Kauaiblk4|447=C|452=11|11=ClOrdID-1416|22=4|38=100000|44=101|48=US40434AAB52|54=1|55=[N/A]|63=3|67=2|29726=101.25|11=ClOrdID-1417|22=4|38=130000|44=102|48=US95709TAH32|54=1|55=[N/A/]|63=3|67=1|29726=102.25|453=1|448=T1Kauaiblk4|447=C|452=11|11=ClOrdID-1418|22=4|38=250000|44=103|48=US427866AZ15|54=1|55=[N/A/]|63=3|67=1|29726=103.25|453=1|448=T1Kauaiblk4|447=C|452=11|11=ClOrdID-1419|22=4|38=350000|44=104|48=US29379VAW37|54=1|55=[N/A/]|63=3|67=1|29726=104.25|453=1|448=T1Kauaiblk4|447=C|452=11|10=147|8=FIX.4.4|9=56|35=0|34=5|49=T1Kauaiblk4|52=20210218-09:01:14.641|56=MA|10=064|8=FIX.4.4|9=56|35=0|34=6|49=T1Kauaiblk4|52=20210218-09:02:44.807|56=MA|10=073|8=FIX.4.4|9=56|35=0|34=7|49=T1Kauaiblk4|52=20210218-09:04:14.828|56=MA|10=076|8=FIX.4.4|9=56|35=0|34=8|49=T1Kauaiblk4|52=20210218-09:05:45.826|56=MA|10=080|8=FIX.4.4|9=56|35=0|34=9|49=T1Kauaiblk4|52=20210218-09:07:15.828|56=MA|10=082|8=FIX.4.4|9=57|35=0|34=10|49=T1Kauaiblk4|52=20210218-09:08:46.826|56=MA|10=126|8=FIX.4.4|9=57|35=0|34=11|49=T1Kauaiblk4|52=20210218-09:10:16.827|56=MA|10=118|8=FIX.4.4|9=57|35=0|34=12|49=T1Kauaiblk4|52=20210218-09:11:46.828|56=MA|10=124|8=FIX.4.4|9=57|35=0|34=13|49=T1Kauaiblk4|52=20210218-09:13:16.828|56=MA|10=124|8=FIX.4.4|9=57|35=0|34=14|49=T1Kauaiblk4|52=20210218-09:14:46.828|56=MA|10=129|8=FIX.4.4|9=57|35=0|34=15|49=T1Kauaiblk4|52=20210218-09:16:17.828|56=MA|10=130|8=FIX.4.4|9=57|35=0|34=16|49=T1Kauaiblk4|52=20210218-09:17:48.826|56=MA|10=134|8=FIX.4.4|9=57|35=0|34=17|49=T1Kauaiblk4|52=20210218-09:19:18.828|56=MA|10=136|8=FIX.4.4|9=57|35=0|34=18|49=T1Kauaiblk4|52=20210218-09:20:48.828|56=MA|10=132|8=FIX.4.4|9=57|35=0|34=19|49=T1Kauaiblk4|52=20210218-09:22:19.826|56=MA|10=131|8=FIX.4.4|9=57|35=0|34=20|49=T1Kauaiblk4|52=20210218-09:23:49.826|56=MA|10=127|8=FIX.4.4|9=57|35=0|34=21|49=T1Kauaiblk4|52=20210218-09:25:19.828|56=MA|10=129|8=FIX.4.4|9=57|35=0|34=22|49=T1Kauaiblk4|52=20210218-09:26:49.828|56=MA|10=134|8=FIX.4.4|9=57|35=0|34=23|49=T1Kauaiblk4|52=20210218-09:28:19.828|56=MA|10=134|8=FIX.4.4|9=57|35=0|34=24|49=T1Kauaiblk4|52=20210218-09:29:49.832|56=MA|10=134|8=FIX.4.4|9=57|35=0|34=25|49=T1Kauaiblk4|52=20210218-09:31:19.832|56=MA|10=125|8=FIX.4.4|9=57|35=0|34=26|49=T1Kauaiblk4|52=20210218-09:32:49.833|56=MA|10=131|8=FIX.4.4|9=700|35=E|34=27|49=T1Kauaiblk4|52=20210218-09:33:25.293|56=MA|66=ListID-160221-1420|394=2|68=5|73=5|11=ClOrdID-1421|22=4|38=100000|44=100|48=US06051GEN51|54=1|55=[N/A/]|63=3|67=1|423=1|29726=100.25|453=1|448=T1Kauaiblk4|447=C|452=11|11=ClOrdID-1422|22=4|38=100000|44=101|48=US40434AAB52|54=1|55=[N/A]|63=3|67=2|29726=101.25|11=ClOrdID-1423|22=4|38=130000|44=102|48=US95709TAH32|54=1|55=[N/A/]|63=3|67=1|29726=102.25|453=1|448=T1Kauaiblk4|447=C|452=11|11=ClOrdID-1424|22=4|38=250000|44=103|48=US427866AZ15|54=1|55=[N/A/]|63=3|67=1|29726=103.25|453=1|448=T1Kauaiblk4|447=C|452=11|11=ClOrdID-1425|22=4|38=350000|44=104|48=US29379VAW37|54=1|55=[N/A/]|63=3|67=1|29726=104.25|453=1|448=T1Kauaiblk4|447=C|452=11|10=159|8=FIX.4.4|9=700|35=E|34=28|49=T1Kauaiblk4|52=20210218-09:33:25.851|56=MA|66=ListID-160221-1426|394=2|68=5|73=5|11=ClOrdID-1427|22=4|38=100000|44=100|48=US06051GEN51|54=1|55=[N/A/]|63=3|67=1|423=1|29726=100.25|453=1|448=T1Kauaiblk4|447=C|452=11|11=ClOrdID-1428|22=4|38=100000|44=101|48=US40434AAB52|54=1|55=[N/A]|63=3|67=2|29726=101.25|11=ClOrdID-1429|22=4|38=130000|44=102|48=US95709TAH32|54=1|55=[N/A/]|63=3|67=1|29726=102.25|453=1|448=T1Kauaiblk4|447=C|452=11|11=ClOrdID-1430|22=4|38=250000|44=103|48=US427866AZ15|54=1|55=[N/A/]|63=3|67=1|29726=103.25|453=1|448=T1Kauaiblk4|447=C|452=11|11=ClOrdID-1431|22=4|38=350000|44=104|48=US29379VAW37|54=1|55=[N/A/]|63=3|67=1|29726=104.25|453=1|448=T1Kauaiblk4|447=C|452=11|10=178|8=FIX.4.4|9=700|35=E|34=29|49=T1Kauaiblk4|52=20210218-09:33:26.444|56=MA|66=ListID-160221-1432|394=2|68=5|73=5|11=ClOrdID-1433|22=4|38=100000|44=100|48=US06051GEN51|54=1|55=[N/A/]|63=3|67=1|423=1|29726=100.25|453=1|448=T1Kauaiblk4|447=C|452=11|11=ClOrdID-1434|22=4|38=100000|44=101|48=US40434AAB52|54=1|55=[N/A]|63=3|67=2|29726=101.25|11=ClOrdID-1435|22=4|38=130000|44=102|48=US95709TAH32|54=1|55=[N/A/]|63=3|67=1|29726=102.25|453=1|448=T1Kauaiblk4|447=C|452=11|11=ClOrdID-1436|22=4|38=250000|44=103|48=US427866AZ15|54=1|55=[N/A/]|63=3|67=1|29726=103.25|453=1|448=T1Kauaiblk4|447=C|452=11|11=ClOrdID-1437|22=4|38=350000|44=104|48=US29379VAW37|54=1|55=[N/A/]|63=3|67=1|29726=104.25|453=1|448=T1Kauaiblk4|447=C|452=11|10=178|8=FIX.4.4|9=700|35=E|34=30|49=T1Kauaiblk4|52=20210218-09:33:26.993|56=MA|66=ListID-160221-1438|394=2|68=5|73=5|11=ClOrdID-1439|22=4|38=100000|44=100|48=US06051GEN51|54=1|55=[N/A/]|63=3|67=1|423=1|29726=100.25|453=1|448=T1Kauaiblk4|447=C|452=11|11=ClOrdID-1440|22=4|38=100000|44=101|48=US40434AAB52|54=1|55=[N/A]|63=3|67=2|29726=101.25|11=ClOrdID-1441|22=4|38=130000|44=102|48=US95709TAH32|54=1|55=[N/A/]|63=3|67=1|29726=102.25|453=1|448=T1Kauaiblk4|447=C|452=11|11=ClOrdID-1442|22=4|38=250000|44=103|48=US427866AZ15|54=1|55=[N/A/]|63=3|67=1|29726=103.25|453=1|448=T1Kauaiblk4|447=C|452=11|11=ClOrdID-1443|22=4|38=350000|44=104|48=US29379VAW37|54=1|55=[N/A/]|63=3|67=1|29726=104.25|453=1|448=T1Kauaiblk4|447=C|452=11|10=179|8=FIX.4.4|9=700|35=E|34=31|49=T1Kauaiblk4|52=20210218-09:33:27.642|56=MA|66=ListID-160221-1444|394=2|68=5|73=5|11=ClOrdID-1445|22=4|38=100000|44=100|48=US06051GEN51|54=1|55=[N/A/]|63=3|67=1|423=1|29726=100.25|453=1|448=T1Kauaiblk4|447=C|452=11|11=ClOrdID-1446|22=4|38=100000|44=101|48=US40434AAB52|54=1|55=[N/A]|63=3|67=2|29726=101.25|11=ClOrdID-1447|22=4|38=130000|44=102|48=US95709TAH32|54=1|55=[N/A/]|63=3|67=1|29726=102.25|453=1|448=T1Kauaiblk4|447=C|452=11|11=ClOrdID-1448|22=4|38=250000|44=103|48=US427866AZ15|54=1|55=[N/A/]|63=3|67=1|29726=103.25|453=1|448=T1Kauaiblk4|447=C|452=11|11=ClOrdID-1449|22=4|38=350000|44=104|48=US29379VAW37|54=1|55=[N/A/]|63=3|67=1|29726=104.25|453=1|448=T1Kauaiblk4|447=C|452=11|10=190|8=FIX.4.4|9=700|35=E|34=32|49=T1Kauaiblk4|52=20210218-09:33:28.203|56=MA|66=ListID-160221-1450|394=2|68=5|73=5|11=ClOrdID-1451|22=4|38=100000|44=100|48=US06051GEN51|54=1|55=[N/A/]|63=3|67=1|423=1|29726=100.25|453=1|448=T1Kauaiblk4|447=C|452=11|11=ClOrdID-1452|22=4|38=100000|44=101|48=US40434AAB52|54=1|55=[N/A]|63=3|67=2|29726=101.25|11=ClOrdID-1453|22=4|38=130000|44=102|48=US95709TAH32|54=1|55=[N/A/]|63=3|67=1|29726=102.25|453=1|448=T1Kauaiblk4|447=C|452=11|11=ClOrdID-1454|22=4|38=250000|44=103|48=US427866AZ15|54=1|55=[N/A/]|63=3|67=1|29726=103.25|453=1|448=T1Kauaiblk4|447=C|452=11|11=ClOrdID-1455|22=4|38=350000|44=104|48=US29379VAW37|54=1|55=[N/A/]|63=3|67=1|29726=104.25|453=1|448=T1Kauaiblk4|447=C|452=11|10=167|8=FIX.4.4|9=700|35=E|34=33|49=T1Kauaiblk4|52=20210218-09:33:31.080|56=MA|66=ListID-160221-1456|394=2|68=5|73=5|11=ClOrdID-1457|22=4|38=100000|44=100|48=US06051GEN51|54=1|55=[N/A/]|63=3|67=1|423=1|29726=100.25|453=1|448=T1Kauaiblk4|447=C|452=11|11=ClOrdID-1458|22=4|38=100000|44=101|48=US40434AAB52|54=1|55=[N/A]|63=3|67=2|29726=101.25|11=ClOrdID-1459|22=4|38=130000|44=102|48=US95709TAH32|54=1|55=[N/A/]|63=3|67=1|29726=102.25|453=1|448=T1Kauaiblk4|447=C|452=11|11=ClOrdID-1460|22=4|38=250000|44=103|48=US427866AZ15|54=1|55=[N/A/]|63=3|67=1|29726=103.25|453=1|448=T1Kauaiblk4|447=C|452=11|11=ClOrdID-1461|22=4|38=350000|44=104|48=US29379VAW37|54=1|55=[N/A/]|63=3|67=1|29726=104.25|453=1|448=T1Kauaiblk4|447=C|452=11|10=183|8=FIX.4.4|9=700|35=E|34=34|49=T1Kauaiblk4|52=20210218-09:33:31.692|56=MA|66=ListID-160221-1462|394=2|68=5|73=5|11=ClOrdID-1463|22=4|38=100000|44=100|48=US06051GEN51|54=1|55=[N/A/]|63=3|67=1|423=1|29726=100.25|453=1|448=T1Kauaiblk4|447=C|452=11|11=ClOrdID-1464|22=4|38=100000|44=101|48=US40434AAB52|54=1|55=[N/A]|63=3|67=2|29726=101.25|11=ClOrdID-1465|22=4|38=130000|44=102|48=US95709TAH32|54=1|55=[N/A/]|63=3|67=1|29726=102.25|453=1|448=T1Kauaiblk4|447=C|452=11|11=ClOrdID-1466|22=4|38=250000|44=103|48=US427866AZ15|54=1|55=[N/A/]|63=3|67=1|29726=103.25|453=1|448=T1Kauaiblk4|447=C|452=11|11=ClOrdID-1467|22=4|38=350000|44=104|48=US29379VAW37|54=1|55=[N/A/]|63=3|67=1|29726=104.25|453=1|448=T1Kauaiblk4|447=C|452=11|10=193|8=FIX.4.4|9=700|35=E|34=35|49=T1Kauaiblk4|52=20210218-09:33:32.261|56=MA|66=ListID-160221-1468|394=2|68=5|73=5|11=ClOrdID-1469|22=4|38=100000|44=100|48=US06051GEN51|54=1|55=[N/A/]|63=3|67=1|423=1|29726=100.25|453=1|448=T1Kauaiblk4|447=C|452=11|11=ClOrdID-1470|22=4|38=100000|44=101|48=US40434AAB52|54=1|55=[N/A]|63=3|67=2|29726=101.25|11=ClOrdID-1471|22=4|38=130000|44=102|48=US95709TAH32|54=1|55=[N/A/]|63=3|67=1|29726=102.25|453=1|448=T1Kauaiblk4|447=C|452=11|11=ClOrdID-1472|22=4|38=250000|44=103|48=US427866AZ15|54=1|55=[N/A/]|63=3|67=1|29726=103.25|453=1|448=T1Kauaiblk4|447=C|452=11|11=ClOrdID-1473|22=4|38=350000|44=104|48=US29379VAW37|54=1|55=[N/A/]|63=3|67=1|29726=104.25|453=1|448=T1Kauaiblk4|447=C|452=11|10=187|8=FIX.4.4|9=700|35=E|34=36|49=T1Kauaiblk4|52=20210218-09:33:32.900|56=MA|66=ListID-160221-1474|394=2|68=5|73=5|11=ClOrdID-1475|22=4|38=100000|44=100|48=US06051GEN51|54=1|55=[N/A/]|63=3|67=1|423=1|29726=100.25|453=1|448=T1Kauaiblk4|447=C|452=11|11=ClOrdID-1476|22=4|38=100000|44=101|48=US40434AAB52|54=1|55=[N/A]|63=3|67=2|29726=101.25|11=ClOrdID-1477|22=4|38=130000|44=102|48=US95709TAH32|54=1|55=[N/A/]|63=3|67=1|29726=102.25|453=1|448=T1Kauaiblk4|447=C|452=11|11=ClOrdID-1478|22=4|38=250000|44=103|48=US427866AZ15|54=1|55=[N/A/]|63=3|67=1|29726=103.25|453=1|448=T1Kauaiblk4|447=C|452=11|11=ClOrdID-1479|22=4|38=350000|44=104|48=US29379VAW37|54=1|55=[N/A/]|63=3|67=1|29726=104.25|453=1|448=T1Kauaiblk4|447=C|452=11|10=206|8=FIX.4.4|9=700|35=E|34=37|49=T1Kauaiblk4|52=20210218-09:33:33.735|56=MA|66=ListID-160221-1480|394=2|68=5|73=5|11=ClOrdID-1481|22=4|38=100000|44=100|48=US06051GEN51|54=1|55=[N/A/]|63=3|67=1|423=1|29726=100.25|453=1|448=T1Kauaiblk4|447=C|452=11|11=ClOrdID-1482|22=4|38=100000|44=101|48=US40434AAB52|54=1|55=[N/A]|63=3|67=2|29726=101.25|11=ClOrdID-1483|22=4|38=130000|44=102|48=US95709TAH32|54=1|55=[N/A/]|63=3|67=1|29726=102.25|453=1|448=T1Kauaiblk4|447=C|452=11|11=ClOrdID-1484|22=4|38=250000|44=103|48=US427866AZ15|54=1|55=[N/A/]|63=3|67=1|29726=103.25|453=1|448=T1Kauaiblk4|447=C|452=11|11=ClOrdID-1485|22=4|38=350000|44=104|48=US29379VAW37|54=1|55=[N/A/]|63=3|67=1|29726=104.25|453=1|448=T1Kauaiblk4|447=C|452=11|10=196|8=FIX.4.4|9=700|35=E|34=38|49=T1Kauaiblk4|52=20210218-09:33:34.341|56=MA|66=ListID-160221-1486|394=2|68=5|73=5|11=ClOrdID-1487|22=4|38=100000|44=100|48=US06051GEN51|54=1|55=[N/A/]|63=3|67=1|423=1|29726=100.25|453=1|448=T1Kauaiblk4|447=C|452=11|11=ClOrdID-1488|22=4|38=100000|44=101|48=US40434AAB52|54=1|55=[N/A]|63=3|67=2|29726=101.25|11=ClOrdID-1489|22=4|38=130000|44=102|48=US95709TAH32|54=1|55=[N/A/]|63=3|67=1|29726=102.25|453=1|448=T1Kauaiblk4|447=C|452=11|11=ClOrdID-1490|22=4|38=250000|44=103|48=US427866AZ15|54=1|55=[N/A/]|63=3|67=1|29726=103.25|453=1|448=T1Kauaiblk4|447=C|452=11|11=ClOrdID-1491|22=4|38=350000|44=104|48=US29379VAW37|54=1|55=[N/A/]|63=3|67=1|29726=104.25|453=1|448=T1Kauaiblk4|447=C|452=11|10=209|8=FIX.4.4|9=700|35=E|34=39|49=T1Kauaiblk4|52=20210218-09:33:34.880|56=MA|66=ListID-160221-1492|394=2|68=5|73=5|11=ClOrdID-1493|22=4|38=100000|44=100|48=US06051GEN51|54=1|55=[N/A/]|63=3|67=1|423=1|29726=100.25|453=1|448=T1Kauaiblk4|447=C|452=11|11=ClOrdID-1494|22=4|38=100000|44=101|48=US40434AAB52|54=1|55=[N/A]|63=3|67=2|29726=101.25|11=ClOrdID-1495|22=4|38=130000|44=102|48=US95709TAH32|54=1|55=[N/A/]|63=3|67=1|29726=102.25|453=1|448=T1Kauaiblk4|447=C|452=11|11=ClOrdID-1496|22=4|38=250000|44=103|48=US427866AZ15|54=1|55=[N/A/]|63=3|67=1|29726=103.25|453=1|448=T1Kauaiblk4|447=C|452=11|11=ClOrdID-1497|22=4|38=350000|44=104|48=US29379VAW37|54=1|55=[N/A/]|63=3|67=1|29726=104.25|453=1|448=T1Kauaiblk4|447=C|452=11|10=218|8=FIX.4.4|9=700|35=E|34=40|49=T1Kauaiblk4|52=20210218-09:33:35.388|56=MA|66=ListID-160221-1498|394=2|68=5|73=5|11=ClOrdID-1499|22=4|38=100000|44=100|48=US06051GEN51|54=1|55=[N/A/]|63=3|67=1|423=1|29726=100.25|453=1|448=T1Kauaiblk4|447=C|452=11|11=ClOrdID-1500|22=4|38=100000|44=101|48=US40434AAB52|54=1|55=[N/A]|63=3|67=2|29726=101.25|11=ClOrdID-1501|22=4|38=130000|44=102|48=US95709TAH32|54=1|55=[N/A/]|63=3|67=1|29726=102.25|453=1|448=T1Kauaiblk4|447=C|452=11|11=ClOrdID-1502|22=4|38=250000|44=103|48=US427866AZ15|54=1|55=[N/A/]|63=3|67=1|29726=103.25|453=1|448=T1Kauaiblk4|447=C|452=11|11=ClOrdID-1503|22=4|38=350000|44=104|48=US29379VAW37|54=1|55=[N/A/]|63=3|67=1|29726=104.25|453=1|448=T1Kauaiblk4|447=C|452=11|10=178|8=FIX.4.4|9=700|35=E|34=41|49=T1Kauaiblk4|52=20210218-09:33:35.912|56=MA|66=ListID-160221-1504|394=2|68=5|73=5|11=ClOrdID-1505|22=4|38=100000|44=100|48=US06051GEN51|54=1|55=[N/A/]|63=3|67=1|423=1|29726=100.25|453=1|448=T1Kauaiblk4|447=C|452=11|11=ClOrdID-1506|22=4|38=100000|44=101|48=US40434AAB52|54=1|55=[N/A]|63=3|67=2|29726=101.25|11=ClOrdID-1507|22=4|38=130000|44=102|48=US95709TAH32|54=1|55=[N/A/]|63=3|67=1|29726=102.25|453=1|448=T1Kauaiblk4|447=C|452=11|11=ClOrdID-1508|22=4|38=250000|44=103|48=US427866AZ15|54=1|55=[N/A/]|63=3|67=1|29726=103.25|453=1|448=T1Kauaiblk4|447=C|452=11|11=ClOrdID-1509|22=4|38=350000|44=104|48=US29379VAW37|54=1|55=[N/A/]|63=3|67=1|29726=104.25|453=1|448=T1Kauaiblk4|447=C|452=11|10=172|8=FIX.4.4|9=57|35=0|34=42|49=T1Kauaiblk4|52=20210218-09:35:06.835|56=MA|10=127|8=FIX.4.4|9=57|35=0|34=43|49=T1Kauaiblk4|52=20210218-09:36:37.834|56=MA|10=132|8=FIX.4.4|9=57|35=0|34=44|49=T1Kauaiblk4|52=20210218-09:38:07.835|56=MA|10=133|8=FIX.4.4|9=57|35=0|34=45|49=T1Kauaiblk4|52=20210218-09:39:37.835|56=MA|10=138|8=FIX.4.4|9=57|35=0|34=46|49=T1Kauaiblk4|52=20210218-09:41:07.835|56=MA|10=129|8=FIX.4.4|9=57|35=0|34=47|49=T1Kauaiblk4|52=20210218-09:42:38.835|56=MA|10=135|8=FIX.4.4|9=57|35=0|34=48|49=T1Kauaiblk4|52=20210218-09:44:09.833|56=MA|10=134|8=FIX.4.4|9=57|35=0|34=49|49=T1Kauaiblk4|52=20210218-09:45:39.834|56=MA|10=140|8=FIX.4.4|9=57|35=0|34=50|49=T1Kauaiblk4|52=20210218-09:47:09.836|56=MA|10=133|8=FIX.4.4|9=57|35=0|34=51|49=T1Kauaiblk4|52=20210218-09:48:39.837|56=MA|10=139|8=FIX.4.4|9=57|35=0|34=52|49=T1Kauaiblk4|52=20210218-09:50:10.836|56=MA|10=121|8=FIX.4.4|9=57|35=0|34=53|49=T1Kauaiblk4|52=20210218-09:51:40.838|56=MA|10=128|8=FIX.4.4|9=57|35=0|34=54|49=T1Kauaiblk4|52=20210218-09:53:11.836|56=MA|10=127|8=FIX.4.4|9=57|35=0|34=55|49=T1Kauaiblk4|52=20210218-09:54:41.836|56=MA|10=132|8=FIX.4.4|9=57|35=0|34=56|49=T1Kauaiblk4|52=20210218-09:56:11.836|56=MA|10=132|8=FIX.4.4|9=57|35=0|34=57|49=T1Kauaiblk4|52=20210218-09:57:41.837|56=MA|10=138|8=FIX.4.4|9=57|35=0|34=58|49=T1Kauaiblk4|52=20210218-09:59:12.836|56=MA|10=138|8=FIX.4.4|9=57|35=0|34=59|49=T1Kauaiblk4|52=20210218-10:00:42.837|56=MA|10=121|8=FIX.4.4|9=57|35=0|34=60|49=T1Kauaiblk4|52=20210218-10:02:12.837|56=MA|10=112|8=FIX.4.4|9=57|35=0|34=61|49=T1Kauaiblk4|52=20210218-10:03:42.842|56=MA|10=113|8=FIX.4.4|9=57|35=0|34=62|49=T1Kauaiblk4|52=20210218-10:05:12.844|56=MA|10=115|8=FIX.4.4|9=57|35=0|34=63|49=T1Kauaiblk4|52=20210218-10:06:42.845|56=MA|10=121|8=FIX.4.4|9=57|35=0|34=64|49=T1Kauaiblk4|52=20210218-10:08:12.847|56=MA|10=123|8=FIX.4.4|9=57|35=0|34=65|49=T1Kauaiblk4|52=20210218-10:09:42.848|56=MA|10=129|8=FIX.4.4|9=57|35=0|34=66|49=T1Kauaiblk4|52=20210218-10:11:12.849|56=MA|10=121|8=FIX.4.4|9=57|35=0|34=67|49=T1Kauaiblk4|52=20210218-10:12:43.630|56=MA|10=115|8=FIX.4.4|9=57|35=0|34=68|49=T1Kauaiblk4|52=20210218-10:14:13.631|56=MA|10=116|8=FIX.4.4|9=57|35=0|34=69|49=T1Kauaiblk4|52=20210218-10:15:43.709|56=MA|10=127|8=FIX.4.4|9=57|35=0|34=70|49=T1Kauaiblk4|52=20210218-10:17:13.850|56=MA|10=115|8=FIX.4.4|9=57|35=0|34=71|49=T1Kauaiblk4|52=20210218-10:18:43.850|56=MA|10=120|8=FIX.4.4|9=57|35=0|34=72|49=T1Kauaiblk4|52=20210218-10:20:14.632|56=MA|10=110|8=FIX.4.4|9=57|35=0|34=73|49=T1Kauaiblk4|52=20210218-10:21:44.697|56=MA|10=126|8=FIX.4.4|9=57|35=0|34=74|49=T1Kauaiblk4|52=20210218-10:23:14.697|56=MA|10=126|8=FIX.4.4|9=57|35=0|34=75|49=T1Kauaiblk4|52=20210218-10:24:44.701|56=MA|10=117|8=FIX.4.4|9=57|35=0|34=76|49=T1Kauaiblk4|52=20210218-10:26:14.846|56=MA|10=127|8=FIX.4.4|9=57|35=0|34=77|49=T1Kauaiblk4|52=20210218-10:27:45.632|56=MA|10=126|8=FIX.4.4|9=57|35=0|34=78|49=T1Kauaiblk4|52=20210218-10:29:15.845|56=MA|10=132|8=FIX.4.4|9=57|35=0|34=79|49=T1Kauaiblk4|52=20210218-10:30:45.845|56=MA|10=128|8=FIX.4.4|9=57|35=0|34=80|49=T1Kauaiblk4|52=20210218-10:32:15.845|56=MA|10=119|8=FIX.4.4|9=57|35=0|34=81|49=T1Kauaiblk4|52=20210218-10:33:46.688|56=MA|10=130|8=FIX.4.4|9=57|35=0|34=82|49=T1Kauaiblk4|52=20210218-10:35:16.843|56=MA|10=123|8=FIX.4.4|9=57|35=0|34=83|49=T1Kauaiblk4|52=20210218-10:36:46.843|56=MA|10=128|8=FIX.4.4|9=57|35=0|34=84|49=T1Kauaiblk4|52=20210218-10:38:16.844|56=MA|10=129|8=FIX.4.4|9=57|35=0|34=85|49=T1Kauaiblk4|52=20210218-10:39:46.846|56=MA|10=136|8=FIX.4.4|9=57|35=0|34=86|49=T1Kauaiblk4|52=20210218-10:41:16.846|56=MA|10=127|8=FIX.4.4|9=57|35=0|34=87|49=T1Kauaiblk4|52=20210218-10:42:46.847|56=MA|10=133|8=FIX.4.4|9=57|35=0|34=88|49=T1Kauaiblk4|52=20210218-10:44:16.847|56=MA|10=133|8=FIX.4.4|9=57|35=0|34=89|49=T1Kauaiblk4|52=20210218-10:45:46.848|56=MA|10=139|8=FIX.4.4|9=57|35=0|34=90|49=T1Kauaiblk4|52=20210218-10:47:17.846|56=MA|10=129|8=FIX.4.4|9=57|35=0|34=91|49=T1Kauaiblk4|52=20210218-10:48:47.848|56=MA|10=136|8=FIX.4.4|9=57|35=0|34=92|49=T1Kauaiblk4|52=20210218-10:50:18.848|56=MA|10=128|8=FIX.4.4|9=57|35=0|34=93|49=T1Kauaiblk4|52=20210218-10:51:48.848|56=MA|10=133|8=FIX.4.4|9=57|35=0|34=94|49=T1Kauaiblk4|52=20210218-10:53:18.848|56=MA|10=133|8=FIX.4.4|9=57|35=0|34=95|49=T1Kauaiblk4|52=20210218-10:54:48.850|56=MA|10=131|8=FIX.4.4|9=57|35=0|34=96|49=T1Kauaiblk4|52=20210218-10:56:18.854|56=MA|10=135|8=FIX.4.4|9=57|35=0|34=97|49=T1Kauaiblk4|52=20210218-10:57:48.855|56=MA|10=141|8=FIX.4.4|9=57|35=0|34=98|49=T1Kauaiblk4|52=20210218-10:59:18.856|56=MA|10=142|8=FIX.4.4|9=57|35=0|34=99|49=T1Kauaiblk4|52=20210218-11:00:48.858|56=MA|10=135|8=FIX.4.4|9=58|35=0|34=100|49=T1Kauaiblk4|52=20210218-11:02:18.859|56=MA|10=167|8=FIX.4.4|9=58|35=0|34=101|49=T1Kauaiblk4|52=20210218-11:03:48.860|56=MA|10=164|8=FIX.4.4|9=58|35=0|34=102|49=T1Kauaibl