8=FIX.4.4|9=96|35=A|34=1|49=APAQA2_Verion4|52=20180329-15:58:34.959|56=TRAX|98=0|108=30|95=8|96=2.0.0rc4|141=Y|10=175|8=FIX.4.4|9=96|35=A|34=1|49=APAQA2_Verion4|52=20180403-08:13:15.776|56=TRAX|98=0|108=30|95=8|96=2.0.0rc4|141=Y|10=157|8=FIX.4.4|9=61|35=0|34=2|49=APAQA2_Verion4|52=20180403-08:13:46.763|56=TRAX|10=183|8=FIX.4.4|9=61|35=0|34=3|49=APAQA2_Verion4|52=20180403-08:14:16.771|56=TRAX|10=181|8=FIX.4.4|9=61|35=0|34=4|49=APAQA2_Verion4|52=20180403-08:14:46.939|56=TRAX|10=191|8=FIX.4.4|9=61|35=0|34=5|49=APAQA2_Verion4|52=20180403-08:15:17.776|56=TRAX|10=190|8=FIX.4.4|9=61|35=0|34=6|49=APAQA2_Verion4|52=20180403-08:15:48.769|56=TRAX|10=197|8=FIX.4.4|9=61|35=0|34=7|49=APAQA2_Verion4|52=20180403-08:16:18.780|56=TRAX|10=189|8=FIX.4.4|9=61|35=0|34=8|49=APAQA2_Verion4|52=20180403-08:16:49.774|56=TRAX|10=197|8=FIX.4.4|9=61|35=0|34=9|49=APAQA2_Verion4|52=20180403-08:17:20.770|56=TRAX|10=184|8=FIX.4.4|9=62|35=0|34=10|49=APAQA2_Verion4|52=20180403-08:17:50.781|56=TRAX|10=230|8=FIX.4.4|9=62|35=0|34=11|49=APAQA2_Verion4|52=20180403-08:18:21.776|56=TRAX|10=234|8=FIX.4.4|9=62|35=0|34=12|49=APAQA2_Verion4|52=20180403-08:18:52.782|56=TRAX|10=236|8=FIX.4.4|9=62|35=0|34=13|49=APAQA2_Verion4|52=20180403-08:19:23.773|56=TRAX|10=236|8=FIX.4.4|9=62|35=0|34=14|49=APAQA2_Verion4|52=20180403-08:19:53.775|56=TRAX|10=242|8=FIX.4.4|9=62|35=0|34=15|49=APAQA2_Verion4|52=20180403-08:20:23.780|56=TRAX|10=228|8=FIX.4.4|9=62|35=0|34=16|49=APAQA2_Verion4|52=20180403-08:20:54.766|56=TRAX|10=237|8=FIX.4.4|9=62|35=0|34=17|49=APAQA2_Verion4|52=20180403-08:21:24.768|56=TRAX|10=238|8=FIX.4.4|9=62|35=0|34=18|49=APAQA2_Verion4|52=20180403-08:21:54.777|56=TRAX|10=242|8=FIX.4.4|9=62|35=0|34=19|49=APAQA2_Verion4|52=20180403-08:22:24.783|56=TRAX|10=238|8=FIX.4.4|9=62|35=0|34=20|49=APAQA2_Verion4|52=20180403-08:22:55.771|56=TRAX|10=231|8=FIX.4.4|9=62|35=0|34=21|49=APAQA2_Verion4|52=20180403-08:23:25.777|56=TRAX|10=236|8=FIX.4.4|9=62|35=0|34=22|49=APAQA2_Verion4|52=20180403-08:23:56.773|56=TRAX|10=237|8=FIX.4.4|9=62|35=0|34=23|49=APAQA2_Verion4|52=20180403-08:24:26.784|56=TRAX|10=238|8=FIX.4.4|9=62|35=0|34=24|49=APAQA2_Verion4|52=20180403-08:24:57.773|56=TRAX|10=241|8=FIX.4.4|9=62|35=0|34=25|49=APAQA2_Verion4|52=20180403-08:25:27.778|56=TRAX|10=245|8=FIX.4.4|9=62|35=0|34=26|49=APAQA2_Verion4|52=20180403-08:25:57.779|56=TRAX|10=250|8=FIX.4.4|9=62|35=0|34=27|49=APAQA2_Verion4|52=20180403-08:26:28.772|56=TRAX|10=243|8=FIX.4.4|9=62|35=0|34=28|49=APAQA2_Verion4|52=20180403-08:26:58.776|56=TRAX|10=251|8=FIX.4.4|9=62|35=0|34=29|49=APAQA2_Verion4|52=20180403-08:27:29.784|56=TRAX|10=250|8=FIX.4.4|9=62|35=0|34=30|49=APAQA2_Verion4|52=20180403-08:28:00.774|56=TRAX|10=231|8=FIX.4.4|9=62|35=0|34=31|49=APAQA2_Verion4|52=20180403-08:28:30.778|56=TRAX|10=239|8=FIX.4.4|9=62|35=0|34=32|49=APAQA2_Verion4|52=20180403-08:29:01.779|56=TRAX|10=240|8=FIX.4.4|9=62|35=0|34=33|49=APAQA2_Verion4|52=20180403-08:29:32.773|56=TRAX|10=239|8=FIX.4.4|9=62|35=0|34=34|49=APAQA2_Verion4|52=20180403-08:30:03.773|56=TRAX|10=230|8=FIX.4.4|9=62|35=0|34=35|49=APAQA2_Verion4|52=20180403-08:30:34.742|56=TRAX|10=231|8=FIX.4.4|9=62|35=0|34=36|49=APAQA2_Verion4|52=20180403-08:31:04.803|56=TRAX|10=228|8=FIX.4.4|9=62|35=0|34=37|49=APAQA2_Verion4|52=20180403-08:31:35.783|56=TRAX|10=240|8=FIX.4.4|9=62|35=0|34=38|49=APAQA2_Verion4|52=20180403-08:32:05.784|56=TRAX|10=240|8=FIX.4.4|9=62|35=0|34=39|49=APAQA2_Verion4|52=20180403-08:32:36.776|56=TRAX|10=246|8=FIX.4.4|9=62|35=0|34=40|49=APAQA2_Verion4|52=20180403-08:33:07.775|56=TRAX|10=236|8=FIX.4.4|9=62|35=0|34=41|49=APAQA2_Verion4|52=20180403-08:33:37.783|56=TRAX|10=239|8=FIX.4.4|9=62|35=0|34=42|49=APAQA2_Verion4|52=20180403-08:34:08.750|56=TRAX|10=233|8=FIX.4.4|9=62|35=0|34=43|49=APAQA2_Verion4|52=20180403-08:34:38.785|56=TRAX|10=245|8=FIX.4.4|9=62|35=0|34=44|49=APAQA2_Verion4|52=20180403-08:35:09.786|56=TRAX|10=246|8=FIX.4.4|9=62|35=0|34=45|49=APAQA2_Verion4|52=20180403-08:35:40.781|56=TRAX|10=237|8=FIX.4.4|9=62|35=0|34=46|49=APAQA2_Verion4|52=20180403-08:36:10.784|56=TRAX|10=239|8=FIX.4.4|9=62|35=0|34=47|49=APAQA2_Verion4|52=20180403-08:36:41.774|56=TRAX|10=243|8=FIX.4.4|9=62|35=0|34=48|49=APAQA2_Verion4|52=20180403-08:37:11.774|56=TRAX|10=242|8=FIX.4.4|9=62|35=0|34=49|49=APAQA2_Verion4|52=20180403-08:37:41.784|56=TRAX|10=247|8=FIX.4.4|9=62|35=0|34=50|49=APAQA2_Verion4|52=20180403-08:38:11.784|56=TRAX|10=237|8=FIX.4.4|9=62|35=0|34=51|49=APAQA2_Verion4|52=20180403-08:38:42.777|56=TRAX|10=244|8=FIX.4.4|9=62|35=0|34=52|49=APAQA2_Verion4|52=20180403-08:39:13.775|56=TRAX|10=242|8=FIX.4.4|9=62|35=0|34=53|49=APAQA2_Verion4|52=20180403-08:39:43.784|56=TRAX|10=246|8=FIX.4.4|9=62|35=0|34=54|49=APAQA2_Verion4|52=20180403-08:40:13.785|56=TRAX|10=237|8=FIX.4.4|9=62|35=0|34=55|49=APAQA2_Verion4|52=20180403-08:40:43.785|56=TRAX|10=241|8=FIX.4.4|9=62|35=0|34=56|49=APAQA2_Verion4|52=20180403-08:41:13.789|56=TRAX|10=244|8=FIX.4.4|9=62|35=0|34=57|49=APAQA2_Verion4|52=20180403-08:41:44.780|56=TRAX|10=240|8=FIX.4.4|9=62|35=0|34=58|49=APAQA2_Verion4|52=20180403-08:42:14.784|56=TRAX|10=243|8=FIX.4.4|9=62|35=0|34=59|49=APAQA2_Verion4|52=20180403-08:42:44.788|56=TRAX|10=251|8=FIX.4.4|9=62|35=0|34=60|49=APAQA2_Verion4|52=20180403-08:43:15.778|56=TRAX|10=241|8=FIX.4.4|9=62|35=0|34=61|49=APAQA2_Verion4|52=20180403-08:43:45.788|56=TRAX|10=246|8=FIX.4.4|9=62|35=0|34=62|49=APAQA2_Verion4|52=20180403-08:44:16.780|56=TRAX|10=238|8=FIX.4.4|9=62|35=0|34=63|49=APAQA2_Verion4|52=20180403-08:44:46.784|56=TRAX|10=246|8=FIX.4.4|9=62|35=0|34=64|49=APAQA2_Verion4|52=20180403-08:45:16.784|56=TRAX|10=245|8=FIX.4.4|9=62|35=0|34=65|49=APAQA2_Verion4|52=20180403-08:45:46.789|56=TRAX|10=254|8=FIX.4.4|9=62|35=0|34=66|49=APAQA2_Verion4|52=20180403-08:46:16.895|56=TRAX|10=251|8=FIX.4.4|9=62|35=0|34=67|49=APAQA2_Verion4|52=20180403-08:46:47.786|56=TRAX|10=255|8=FIX.4.4|9=62|35=0|34=68|49=APAQA2_Verion4|52=20180403-08:47:18.783|56=TRAX|10=252|8=FIX.4.4|9=62|35=0|34=69|49=APAQA2_Verion4|52=20180403-08:47:48.790|56=TRAX|10=254|8=FIX.4.4|9=62|35=0|34=70|49=APAQA2_Verion4|52=20180403-08:48:19.782|56=TRAX|10=246|8=FIX.4.4|9=62|35=0|34=71|49=APAQA2_Verion4|52=20180403-08:48:49.782|56=TRAX|10=250|8=FIX.4.4|9=62|35=0|34=72|49=APAQA2_Verion4|52=20180403-08:49:19.783|56=TRAX|10=250|8=FIX.4.4|9=62|35=0|34=73|49=APAQA2_Verion4|52=20180403-08:49:49.793|56=TRAX|10=255|8=FIX.4.4|9=62|35=0|34=74|49=APAQA2_Verion4|52=20180403-08:50:19.793|56=TRAX|10=245|8=FIX.4.4|9=62|35=0|34=75|49=APAQA2_Verion4|52=20180403-08:50:50.784|56=TRAX|10=241|8=FIX.4.4|9=62|35=0|34=76|49=APAQA2_Verion4|52=20180403-08:51:20.785|56=TRAX|10=241|8=FIX.4.4|9=62|35=0|34=77|49=APAQA2_Verion4|52=20180403-08:51:51.786|56=TRAX|10=247|8=FIX.4.4|9=62|35=0|34=78|49=APAQA2_Verion4|52=20180403-08:52:22.783|56=TRAX|10=244|8=FIX.4.4|9=62|35=0|34=79|49=APAQA2_Verion4|52=20180403-08:52:52.787|56=TRAX|10=252|8=FIX.4.4|9=62|35=0|34=80|49=APAQA2_Verion4|52=20180403-08:53:22.792|56=TRAX|10=238|8=FIX.4.4|9=71|35=1|34=81|49=APAQA2_Verion4|52=20180403-08:53:32.782|56=TRAX|112=TEST|10=002|8=FIX.4.4|9=96|35=A|34=1|49=APAQA2_Verion4|52=20180404-09:19:31.762|56=TRAX|98=0|108=30|95=8|96=2.0.0rc4|141=Y|10=158|8=FIX.4.4|9=61|35=0|34=2|49=APAQA2_Verion4|52=20180404-09:20:02.729|56=TRAX|10=177|8=FIX.4.4|9=61|35=0|34=3|49=APAQA2_Verion4|52=20180404-09:20:33.720|56=TRAX|10=173|8=FIX.4.4|9=61|35=0|34=4|49=APAQA2_Verion4|52=20180404-09:21:03.730|56=TRAX|10=173|8=FIX.4.4|9=61|35=0|34=5|49=APAQA2_Verion4|52=20180404-09:21:34.721|56=TRAX|10=178|8=FIX.4.4|9=275|35=i|34=6|49=APAQA2_Verion4|50=APA|52=20180404-09:21:43.502|56=TRAX|57=APA|117=133617100601|296=1|302=1|304=1|295=1|299=APRIL18|48=DE000A2AAP11|22=4|22680=10.45|22683=1|134=10000|60=20171108-00:59:59.000|15=EUR|22500=4|22501=REC0012137|22503=100|22505=XXX|22701=Y|22504=ACEX|10=032|8=FIX.4.4|9=61|35=0|34=7|49=APAQA2_Verion4|52=20180404-09:22:13.722|56=TRAX|10=179|8=FIX.4.4|9=61|35=0|34=8|49=APAQA2_Verion4|52=20180404-09:22:43.733|56=TRAX|10=185|8=FIX.4.4|9=61|35=0|34=9|49=APAQA2_Verion4|52=20180404-09:23:14.010|56=TRAX|10=173|8=FIX.4.4|9=62|35=0|34=10|49=APAQA2_Verion4|52=20180404-09:23:44.020|56=TRAX|10=218|8=FIX.4.4|9=62|35=0|34=11|49=APAQA2_Verion4|52=20180404-09:24:14.024|56=TRAX|10=221|8=FIX.4.4|9=62|35=0|34=12|49=APAQA2_Verion4|52=20180404-09:24:44.053|56=TRAX|10=227|8=FIX.4.4|9=62|35=0|34=13|49=APAQA2_Verion4|52=20180404-09:25:14.729|56=TRAX|10=236|8=FIX.4.4|9=62|35=0|34=14|49=APAQA2_Verion4|52=20180404-09:25:45.723|56=TRAX|10=235|8=FIX.4.4|9=62|35=0|34=15|49=APAQA2_Verion4|52=20180404-09:26:15.734|56=TRAX|10=236|8=FIX.4.4|9=62|35=0|34=16|49=APAQA2_Verion4|52=20180404-09:26:46.726|56=TRAX|10=242|8=FIX.4.4|9=62|35=0|34=17|49=APAQA2_Verion4|52=20180404-09:27:17.726|56=TRAX|10=242|8=FIX.4.4|9=62|35=0|34=18|49=APAQA2_Verion4|52=20180404-09:27:48.726|56=TRAX|10=247|8=FIX.4.4|9=62|35=0|34=19|49=APAQA2_Verion4|52=20180404-09:28:18.735|56=TRAX|10=246|8=FIX.4.4|9=62|35=0|34=20|49=APAQA2_Verion4|52=20180404-09:28:48.736|56=TRAX|10=242|8=FIX.4.4|9=62|35=0|34=21|49=APAQA2_Verion4|52=20180404-09:29:19.732|56=TRAX|10=238|8=FIX.4.4|9=62|35=0|34=22|49=APAQA2_Verion4|52=20180404-09:29:49.734|56=TRAX|10=244|8=FIX.4.4|9=62|35=0|34=23|49=APAQA2_Verion4|52=20180404-09:30:20.732|56=TRAX|10=224|8=FIX.4.4|9=62|35=0|34=24|49=APAQA2_Verion4|52=20180404-09:30:50.732|56=TRAX|10=228|8=FIX.4.4|9=62|35=0|34=25|49=APAQA2_Verion4|52=20180404-09:31:20.737|56=TRAX|10=232|8=FIX.4.4|9=62|35=0|34=26|49=APAQA2_Verion4|52=20180404-09:31:50.737|56=TRAX|10=236|8=FIX.4.4|9=62|35=0|34=27|49=APAQA2_Verion4|52=20180404-09:32:21.727|56=TRAX|10=235|8=FIX.4.4|9=62|35=0|34=28|49=APAQA2_Verion4|52=20180404-09:32:52.737|56=TRAX|10=241|8=FIX.4.4|9=62|35=0|34=29|49=APAQA2_Verion4|52=20180404-09:33:23.727|56=TRAX|10=240|8=FIX.4.4|9=62|35=0|34=30|49=APAQA2_Verion4|52=20180404-09:33:54.724|56=TRAX|10=233|8=FIX.4.4|9=62|35=0|34=31|49=APAQA2_Verion4|52=20180404-09:34:24.739|56=TRAX|10=238|8=FIX.4.4|9=62|35=0|34=32|49=APAQA2_Verion4|52=20180404-09:34:54.739|56=TRAX|10=242|8=FIX.4.4|9=62|35=0|34=33|49=APAQA2_Verion4|52=20180404-09:35:24.739|56=TRAX|10=241|8=FIX.4.4|9=62|35=0|34=34|49=APAQA2_Verion4|52=20180404-09:35:54.740|56=TRAX|10=237|8=FIX.4.4|9=62|35=0|34=35|49=APAQA2_Verion4|52=20180404-09:36:25.734|56=TRAX|10=240|8=FIX.4.4|9=62|35=0|34=36|49=APAQA2_Verion4|52=20180404-09:36:56.725|56=TRAX|10=245|8=FIX.4.4|9=62|35=0|34=37|49=APAQA2_Verion4|52=20180404-09:37:27.720|56=TRAX|10=240|8=FIX.4.4|9=62|35=0|34=38|49=APAQA2_Verion4|52=20180404-09:37:57.724|56=TRAX|10=248|8=FIX.4.4|9=62|35=0|34=39|49=APAQA2_Verion4|52=20180404-09:38:28.717|56=TRAX|10=250|8=FIX.4.4|9=62|35=0|34=40|49=APAQA2_Verion4|52=20180404-09:38:59.715|56=TRAX|10=244|8=FIX.4.4|9=62|35=0|34=41|49=APAQA2_Verion4|52=20180404-09:39:30.697|56=TRAX|10=244|8=FIX.4.4|9=62|35=0|34=42|49=APAQA2_Verion4|52=20180404-09:40:01.695|56=TRAX|10=233|8=FIX.4.4|9=62|35=0|34=43|49=APAQA2_Verion4|52=20180404-09:40:32.690|56=TRAX|10=233|8=FIX.4.4|9=62|35=0|34=44|49=APAQA2_Verion4|52=20180404-09:41:03.680|56=TRAX|10=232|8=FIX.4.4|9=62|35=0|34=45|49=APAQA2_Verion4|52=20180404-09:41:33.685|56=TRAX|10=241|8=FIX.4.4|9=62|35=0|34=46|49=APAQA2_Verion4|52=20180404-09:42:04.679|56=TRAX|10=244|8=FIX.4.4|9=62|35=0|34=47|49=APAQA2_Verion4|52=20180404-09:42:35.678|56=TRAX|10=248|8=FIX.4.4|9=62|35=0|34=48|49=APAQA2_Verion4|52=20180404-09:43:05.680|56=TRAX|10=240|8=FIX.4.4|9=62|35=0|34=49|49=APAQA2_Verion4|52=20180404-09:43:36.677|56=TRAX|10=251|8=FIX.4.4|9=62|35=0|34=50|49=APAQA2_Verion4|52=20180404-09:44:06.677|56=TRAX|10=241|8=FIX.4.4|9=62|35=0|34=51|49=APAQA2_Verion4|52=20180404-09:44:36.678|56=TRAX|10=246|8=FIX.4.4|9=62|35=0|34=52|49=APAQA2_Verion4|52=20180404-09:45:07.667|56=TRAX|10=244|8=FIX.4.4|9=62|35=0|34=53|49=APAQA2_Verion4|52=20180404-09:45:38.661|56=TRAX|10=243|8=FIX.4.4|9=62|35=0|34=54|49=APAQA2_Verion4|52=20180404-09:46:08.672|56=TRAX|10=244|8=FIX.4.4|9=62|35=0|34=55|49=APAQA2_Verion4|52=20180404-09:46:39.672|56=TRAX|10=249|8=FIX.4.4|9=62|35=0|34=56|49=APAQA2_Verion4|52=20180404-09:47:10.669|56=TRAX|10=246|8=FIX.4.4|9=62|35=0|34=57|49=APAQA2_Verion4|52=20180404-09:47:41.627|56=TRAX|10=245|8=FIX.4.4|9=62|35=0|34=58|49=APAQA2_Verion4|52=20180404-09:48:11.668|56=TRAX|10=249|8=FIX.4.4|9=62|35=0|34=59|49=APAQA2_Verion4|52=20180404-09:48:42.657|56=TRAX|10=252|8=FIX.4.4|9=62|35=0|34=60|49=APAQA2_Verion4|52=20180404-09:49:12.659|56=TRAX|10=244|8=FIX.4.4|9=62|35=0|34=61|49=APAQA2_Verion4|52=20180404-09:49:43.669|56=TRAX|10=250|8=FIX.4.4|9=62|35=0|34=62|49=APAQA2_Verion4|52=20180404-09:50:14.657|56=TRAX|10=238|8=FIX.4.4|9=62|35=0|34=63|49=APAQA2_Verion4|52=20180404-09:50:44.664|56=TRAX|10=240|8=FIX.4.4|9=62|35=0|34=64|49=APAQA2_Verion4|52=20180404-09:51:14.666|56=TRAX|10=241|8=FIX.4.4|9=62|35=0|34=65|49=APAQA2_Verion4|52=20180404-09:51:44.667|56=TRAX|10=246|8=FIX.4.4|9=62|35=0|34=66|49=APAQA2_Verion4|52=20180404-09:52:14.968|56=TRAX|10=249|8=FIX.4.4|9=62|35=0|34=67|49=APAQA2_Verion4|52=20180404-09:52:45.657|56=TRAX|10=249|8=FIX.4.4|9=62|35=0|34=68|49=APAQA2_Verion4|52=20180404-09:53:15.667|56=TRAX|10=249|8=FIX.4.4|9=62|35=0|34=69|49=APAQA2_Verion4|52=20180404-09:53:45.668|56=TRAX|10=254|8=FIX.4.4|9=62|35=0|34=70|49=APAQA2_Verion4|52=20180404-09:54:16.669|56=TRAX|10=246|8=FIX.4.4|9=62|35=0|34=71|49=APAQA2_Verion4|52=20180404-09:54:47.663|56=TRAX|10=245|8=FIX.4.4|9=62|35=0|34=72|49=APAQA2_Verion4|52=20180404-09:55:17.665|56=TRAX|10=246|8=FIX.4.4|9=62|35=0|34=73|49=APAQA2_Verion4|52=20180404-09:55:48.656|56=TRAX|10=251|8=FIX.4.4|9=62|35=0|34=74|49=APAQA2_Verion4|52=20180404-09:56:18.657|56=TRAX|10=251|8=FIX.4.4|9=62|35=0|34=75|49=APAQA2_Verion4|52=20180404-09:56:48.671|56=TRAX|10=251|8=FIX.4.4|9=62|35=0|34=76|49=APAQA2_Verion4|52=20180404-09:57:19.658|56=TRAX|10=000|8=FIX.4.4|9=62|35=0|34=77|49=APAQA2_Verion4|52=20180404-09:57:49.666|56=TRAX|10=003|8=FIX.4.4|9=62|35=0|34=78|49=APAQA2_Verion4|52=20180404-09:58:19.667|56=TRAX|10=003|8=FIX.4.4|9=62|35=0|34=79|49=APAQA2_Verion4|52=20180404-09:58:49.667|56=TRAX|10=007|8=FIX.4.4|9=62|35=0|34=80|49=APAQA2_Verion4|52=20180404-09:59:20.662|56=TRAX|10=240|8=FIX.4.4|9=62|35=0|34=81|49=APAQA2_Verion4|52=20180404-09:59:51.660|56=TRAX|10=243|8=FIX.4.4|9=62|35=0|34=82|49=APAQA2_Verion4|52=20180404-10:00:21.669|56=TRAX|10=228|8=FIX.4.4|9=62|35=0|34=83|49=APAQA2_Verion4|52=20180404-10:00:52.666|56=TRAX|10=230|8=FIX.4.4|9=62|35=0|34=84|49=APAQA2_Verion4|52=20180404-10:01:22.673|56=TRAX|10=227|8=FIX.4.4|9=62|35=0|34=85|49=APAQA2_Verion4|52=20180404-10:01:53.662|56=TRAX|10=230|8=FIX.4.4|9=62|35=0|34=86|49=APAQA2_Verion4|52=20180404-10:02:23.672|56=TRAX|10=230|8=FIX.4.4|9=62|35=0|34=87|49=APAQA2_Verion4|52=20180404-10:02:54.667|56=TRAX|10=239|8=FIX.4.4|9=62|35=0|34=88|49=APAQA2_Verion4|52=20180404-10:03:24.669|56=TRAX|10=240|8=FIX.4.4|9=62|35=0|34=89|49=APAQA2_Verion4|52=20180404-10:03:55.673|56=TRAX|10=240|8=FIX.4.4|9=62|35=0|34=90|49=APAQA2_Verion4|52=20180404-10:04:26.671|56=TRAX|10=229|8=FIX.4.4|9=62|35=0|34=91|49=APAQA2_Verion4|52=20180404-10:04:57.667|56=TRAX|10=239|8=FIX.4.4|9=62|35=0|34=92|49=APAQA2_Verion4|52=20180404-10:05:28.665|56=TRAX|10=237|8=FIX.4.4|9=62|35=0|34=93|49=APAQA2_Verion4|52=20180404-10:05:58.670|56=TRAX|10=237|8=FIX.4.4|9=62|35=0|34=94|49=APAQA2_Verion4|52=20180404-10:06:29.664|56=TRAX|10=240|8=FIX.4.4|9=62|35=0|34=95|49=APAQA2_Verion4|52=20180404-10:06:59.673|56=TRAX|10=244|8=FIX.4.4|9=62|35=0|34=96|49=APAQA2_Verion4|52=20180404-10:07:30.631|56=TRAX|10=229|8=FIX.4.4|9=62|35=0|34=97|49=APAQA2_Verion4|52=20180404-10:08:00.648|56=TRAX|10=236|8=FIX.4.4|9=62|35=0|34=98|49=APAQA2_Verion4|52=20180404-10:08:30.649|56=TRAX|10=241|8=FIX.4.4|9=62|35=0|34=99|49=APAQA2_Verion4|52=20180404-10:09:01.629|56=TRAX|10=239|8=FIX.4.4|9=63|35=0|34=100|49=APAQA2_Verion4|52=20180404-10:09:32.628|56=TRAX|10=018|8=FIX.4.4|9=63|35=0|34=101|49=APAQA2_Verion4|52=20180404-10:10:02.651|56=TRAX|10=004|8=FIX.4.4|9=63|35=0|34=102|49=APAQA2_Verion4|52=20180404-10:10:33.627|56=TRAX|10=012|8=FIX.4.4|9=63|35=0|34=103|49=APAQA2_Verion4|52=20180404-10:11:03.650|56=TRAX|10=007|8=FIX.4.4|9=63|35=0|34=104|49=APAQA2_Verion4|52=20180404-10:11:34.628|56=TRAX|10=017|8=FIX.4.4|9=63|35=0|34=105|49=APAQA2_Verion4|52=20180404-10:12:04.654|56=TRAX|10=015|8=FIX.4.4|9=63|35=0|34=106|49=APAQA2_Verion4|52=20180404-10:12:35.654|56=TRAX|10=020|8=FIX.4.4|9=63|35=0|34=107|49=APAQA2_Verion4|52=20180404-10:13:05.654|56=TRAX|10=019|8=FIX.4.4|9=63|35=0|34=108|49=APAQA2_Verion4|52=20180404-10:13:36.648|56=TRAX|10=027|8=FIX.4.4|9=63|35=0|34=109|49=APAQA2_Verion4|52=20180404-10:14:06.652|56=TRAX|10=021|8=FIX.4.4|9=63|35=0|34=110|49=APAQA2_Verion4|52=20180404-10:14:37.652|56=TRAX|10=017|8=FIX.4.4|9=63|35=0|34=111|49=APAQA2_Verion4|52=20180404-10:15:07.654|56=TRAX|10=018|8=FIX.4.4|9=63|35=0|34=112|49=APAQA2_Verion4|52=20180404-10:15:38.649|56=TRAX|10=027|8=FIX.4.4|9=63|35=0|34=113|49=APAQA2_Verion4|52=20180404-10:16:09.649|56=TRAX|10=027|8=FIX.4.4|9=63|35=0|34=114|49=APAQA2_Verion4|52=20180404-10:16:39.653|56=TRAX|10=026|8=FIX.4.4|9=81|35=5|34=115|49=APAQA2_Verion4|52=20180404-10:16:55.629|56=TRAX|58=user requested|10=125|8=FIX.4.4|9=96|35=A|34=1|49=APAQA2_Verion4|52=20180404-10:17:08.060|56=TRAX|98=0|108=30|95=8|96=2.0.0rc4|141=Y|10=143|8=FIX.4.4|9=61|35=0|34=2|49=APAQA2_Verion4|52=20180404-10:17:38.950|56=TRAX|10=180|8=FIX.4.4|9=61|35=0|34=3|49=APAQA2_Verion4|52=20180404-10:18:08.954|56=TRAX|10=183|8=FIX.4.4|9=61|35=0|34=4|49=APAQA2_Verion4|52=20180404-10:18:39.031|56=TRAX|10=174|8=FIX.4.4|9=61|35=0|34=5|49=APAQA2_Verion4|52=20180404-10:19:10.028|56=TRAX|10=171|8=FIX.4.4|9=61|35=0|34=6|49=APAQA2_Verion4|52=20180404-10:19:41.030|56=TRAX|10=169|8=FIX.4.4|9=61|35=0|34=7|49=APAQA2_Verion4|52=20180404-10:20:11.035|56=TRAX|10=164|8=FIX.4.4|9=61|35=0|34=8|49=APAQA2_Verion4|52=20180404-10:20:42.033|56=TRAX|10=167|8=FIX.4.4|9=269|35=i|34=9|49=APAQA2_Verion4|50=APA|52=20180404-10:21:07.947|56=TRAX|57=APA|117=133617100601|296=1|302=1|304=1|295=1|299=NOVEIGHT016|48=RIMADRVC1DR1|22=4|22680=10.45|22683=1|134=10000|60=20171108-00:59:59.000|15=EUR|22500=4|22501=REC0012137|22503=100|22701=Y|22504=ACEX|10=145|8=FIX.4.4|9=280|35=i|34=10|49=APAQA2_Verion4|50=APA|52=20180404-10:21:27.476|56=TRAX|57=APA|117=133617100601|296=1|302=1|304=1|295=1|299=NOVEIGHT016|48=RIMADRVC1DR1|22=4|22680=10.45|22683=1|134=10000|60=20171108-00:59:59.000|15=EUR|22505=GBP|22500=4|22501=REC0012137|22503=100|22701=Y|22504=ACEX|10=198|8=FIX.4.4|9=71|35=0|34=11|49=APAQA2_Verion4|52=20180404-10:21:28.387|56=TRAX|112=TEST|10=245|8=FIX.4.4|9=280|35=i|34=12|49=APAQA2_Verion4|50=APA|52=20180404-10:21:43.589|56=TRAX|57=APA|117=133617100601|296=1|302=1|304=1|295=1|299=NOVEIGHT016|48=RIMADRVC1DR1|22=4|22680=10.45|22683=1|134=10000|60=20171108-00:59:59.000|15=EUR|22505=GBP|22500=4|22501=REC0012137|22503=100|22701=Y|22504=ACEX|10=203|8=FIX.4.4|9=280|35=i|34=13|49=APAQA2_Verion4|50=APA|52=20180404-10:22:06.472|56=TRAX|57=APA|117=133617100601|296=1|302=1|304=1|295=1|299=NOVEIGHT016|48=RIMADRVC1DR1|22=4|22505=GBP|22680=10.45|22683=1|134=10000|60=20171108-00:59:59.000|15=EUR|22500=4|22501=REC0012137|22503=100|22701=Y|22504=ACEX|10=195|8=FIX.4.4|9=71|35=0|34=14|49=APAQA2_Verion4|52=20180404-10:22:13.935|56=TRAX|112=TEST|10=242|8=FIX.4.4|9=280|35=i|34=15|49=APAQA2_Verion4|50=APA|52=20180404-10:22:27.550|56=TRAX|57=APA|117=133617100601|296=1|302=1|304=1|295=1|299=NOVEIGHT016|48=RIMADRVC1DR1|22=4|22680=10.45|22683=1|134=10000|60=20171108-00:59:59.000|22505=GBP|15=EUR|22500=4|22501=REC0012137|22503=100|22701=Y|22504=ACEX|10=197|8=FIX.4.4|9=280|35=i|34=16|49=APAQA2_Verion4|50=APA|52=20180404-10:22:56.266|56=TRAX|57=APA|117=133617100601|296=1|302=1|304=1|295=1|299=NOVEIGHT016|48=RIMADRVC1DR1|22=4|22680=10.45|22683=1|134=10000|60=20171108-00:59:59.000|15=EUR|22500=4|22501=REC0012137|22503=100|22701=Y|22504=ACEX|22505=GBP|10=204|8=FIX.4.4|9=71|35=0|34=17|49=APAQA2_Verion4|52=20180404-10:22:59.916|56=TRAX|112=TEST|10=254|8=FIX.4.4|9=270|35=i|34=18|49=APAQA2_Verion4|50=APA|52=20180404-10:23:11.339|56=TRAX|57=APA|117=133617100601|296=1|302=1|304=1|295=1|299=NOVEIGHT016|48=RIMADRVC1DR1|22=4|22680=10.45|22683=1|134=10000|60=20171108-00:59:59.000|15=EUR|22500=4|22501=REC0012137|22503=100|22701=Y|22504=ACEX|10=177|8=FIX.4.4|9=62|35=0|34=19|49=APAQA2_Verion4|52=20180404-10:23:41.928|56=TRAX|10=233|8=FIX.4.4|9=62|35=0|34=20|49=APAQA2_Verion4|52=20180404-10:24:12.014|56=TRAX|10=210|8=FIX.4.4|9=62|35=0|34=21|49=APAQA2_Verion4|52=20180404-10:24:42.028|56=TRAX|10=219|8=FIX.4.4|9=62|35=0|34=22|49=APAQA2_Verion4|52=20180404-10:25:12.928|56=TRAX|10=227|8=FIX.4.4|9=62|35=0|34=23|49=APAQA2_Verion4|52=20180404-10:25:42.952|56=TRAX|10=228|8=FIX.4.4|9=62|35=0|34=24|49=APAQA2_Verion4|52=20180404-10:26:13.028|56=TRAX|10=222|8=FIX.4.4|9=62|35=0|34=25|49=APAQA2_Verion4|52=20180404-10:26:43.032|56=TRAX|10=221|8=FIX.4.4|9=62|35=0|34=26|49=APAQA2_Verion4|52=20180404-10:27:13.035|56=TRAX|10=223|8=FIX.4.4|9=62|35=0|34=27|49=APAQA2_Verion4|52=20180404-10:27:44.036|56=TRAX|10=229|8=FIX.4.4|9=62|35=0|34=28|49=APAQA2_Verion4|52=20180404-10:28:14.051|56=TRAX|10=225|8=FIX.4.4|9=62|35=0|34=29|49=APAQA2_Verion4|52=20180404-10:28:45.040|56=TRAX|10=228|8=FIX.4.4|9=62|35=0|34=30|49=APAQA2_Verion4|52=20180404-10:29:16.011|56=TRAX|10=217|8=FIX.4.4|9=62|35=0|34=31|49=APAQA2_Verion4|52=20180404-10:29:46.046|56=TRAX|10=229|8=FIX.4.4|9=62|35=0|34=32|49=APAQA2_Verion4|52=20180404-10:30:16.055|56=TRAX|10=219|8=FIX.4.4|9=62|35=0|34=33|49=APAQA2_Verion4|52=20180404-10:30:47.048|56=TRAX|10=226|8=FIX.4.4|9=62|35=0|34=34|49=APAQA2_Verion4|52=20180404-10:31:18.034|56=TRAX|10=221|8=FIX.4.4|9=62|35=0|34=35|49=APAQA2_Verion4|52=20180404-10:31:48.052|56=TRAX|10=225|8=FIX.4.4|9=62|35=0|34=36|49=APAQA2_Verion4|52=20180404-10:32:18.056|56=TRAX|10=228|8=FIX.4.4|9=62|35=0|34=37|49=APAQA2_Verion4|52=20180404-10:32:49.046|56=TRAX|10=232|8=FIX.4.4|9=62|35=0|34=38|49=APAQA2_Verion4|52=20180404-10:33:19.051|56=TRAX|10=227|8=FIX.4.4|9=62|35=0|34=39|49=APAQA2_Verion4|52=20180404-10:33:50.049|56=TRAX|10=230|8=FIX.4.4|9=62|35=0|34=40|49=APAQA2_Verion4|52=20180404-10:34:21.057|56=TRAX|10=220|8=FIX.4.4|9=62|35=0|34=41|49=APAQA2_Verion4|52=20180404-10:34:52.013|56=TRAX|10=217|8=FIX.4.4|9=62|35=0|34=42|49=APAQA2_Verion4|52=20180404-10:35:22.041|56=TRAX|10=217|8=FIX.4.4|9=62|35=0|34=43|49=APAQA2_Verion4|52=20180404-10:35:52.047|56=TRAX|10=227|8=FIX.4.4|9=62|35=0|34=44|49=APAQA2_Verion4|52=20180404-10:36:22.047|56=TRAX|10=226|8=FIX.4.4|9=62|35=0|34=45|49=APAQA2_Verion4|52=20180404-10:36:53.048|56=TRAX|10=232|8=FIX.4.4|9=62|35=0|34=46|49=APAQA2_Verion4|52=20180404-10:37:24.046|56=TRAX|10=230|8=FIX.4.4|9=62|35=0|34=47|49=APAQA2_Verion4|52=20180404-10:37:55.044|56=TRAX|10=233|8=FIX.4.4|9=62|35=0|34=48|49=APAQA2_Verion4|52=20180404-10:38:26.050|56=TRAX|10=230|8=FIX.4.4|9=80|35=5|34=49|49=APAQA2_Verion4|52=20180404-10:38:46.015|56=TRAX|58=user requested|10=075|8=FIX.4.4|9=96|35=A|34=1|49=APAQA2_Verion4|52=20180404-10:47:04.261|56=TRAX|98=0|108=30|95=8|96=2.0.0rc4|141=Y|10=145|8=FIX.4.4|9=307|35=AE|34=2|49=APAQA2_Verion4|50=APA|57=APA|52=20180404-10:47:11.911|56=TRAX|571=TradeReport1|487=0|325=Y|423=22|55=[N/A]|48=DE000A2AAP11|22=4|32=869.09|31=8498.90|60=20180313-00:20:13.370|552=1|54=1|29=5|1041=PPB-1582_011|996=Bbl|997=H|1147=100088434|1934=0|1116=2|1117=05B6OC1W7N8NJQRIYS63|1118=N|1119=116|10=139|8=FIX.4.4|9=307|35=AE|34=3|49=APAQA2_Verion4|50=APA|57=APA|52=20180404-10:47:26.941|56=TRAX|571=TradeReport1|487=0|325=Y|423=22|55=[N/A]|48=DE000A2AAP11|22=4|32=869.09|31=8498.90|60=20180313-00:20:13.370|552=1|54=1|29=5|1041=PPB-1582_012|996=Bbl|997=H|1147=100088434|1934=0|1116=2|1117=05B6OC1W7N8NJQRIYS63|1118=N|1119=116|10=150|8=FIX.4.4|9=70|35=0|34=4|49=APAQA2_Verion4|52=20180404-10:47:49.946|56=TRAX|112=TEST|10=210|8=FIX.4.4|9=307|35=AE|34=5|49=APAQA2_Verion4|50=APA|57=APA|52=20180404-10:47:56.741|56=TRAX|571=TradeReport1|487=0|325=Y|423=22|55=[N/A]|48=DE000A2AAP11|22=4|32=869.09|31=8498.90|60=20180313-00:20:13.370|552=1|54=1|29=5|1041=PPB-1582_012|996=Bbl|997=H|1147=100088434|1934=0|1116=1|1117=05B6OC1W7N8NJQRIYS63|1118=N|1119=116|10=152|8=FIX.4.4|9=61|35=0|34=6|49=APAQA2_Verion4|52=20180404-10:48:27.262|56=TRAX|10=182|8=FIX.4.4|9=61|35=0|34=7|49=APAQA2_Verion4|52=20180404-10:48:57.270|56=TRAX|10=185|8=FIX.4.4|9=61|35=0|34=8|49=APAQA2_Verion4|52=20180404-10:49:27.271|56=TRAX|10=185|8=FIX.4.4|9=61|35=0|34=9|49=APAQA2_Verion4|52=20180404-10:49:58.265|56=TRAX|10=193|8=FIX.4.4|9=62|35=0|34=10|49=APAQA2_Verion4|52=20180404-10:50:28.267|56=TRAX|10=225|8=FIX.4.4|9=62|35=0|34=11|49=APAQA2_Verion4|52=20180404-10:50:59.261|56=TRAX|10=224|8=FIX.4.4|9=62|35=0|34=12|49=APAQA2_Verion4|52=20180404-10:51:29.270|56=TRAX|10=223|8=FIX.4.4|9=62|35=0|34=13|49=APAQA2_Verion4|52=20180404-10:52:00.257|56=TRAX|10=219|8=FIX.4.4|9=62|35=0|34=14|49=APAQA2_Verion4|52=20180404-10:52:30.263|56=TRAX|10=220|8=FIX.4.4|9=62|35=0|34=15|49=APAQA2_Verion4|52=20180404-10:53:01.274|56=TRAX|10=222|8=FIX.4.4|9=62|35=0|34=16|49=APAQA2_Verion4|52=20180404-10:53:32.269|56=TRAX|10=231|8=FIX.4.4|9=62|35=0|34=17|49=APAQA2_Verion4|52=20180404-10:54:03.239|56=TRAX|10=228|8=FIX.4.4|9=62|35=0|34=18|49=APAQA2_Verion4|52=20180404-10:54:33.273|56=TRAX|10=230|8=FIX.4.4|9=62|35=0|34=19|49=APAQA2_Verion4|52=20180404-10:55:04.266|56=TRAX|10=232|8=FIX.4.4|9=62|35=0|34=20|49=APAQA2_Verion4|52=20180404-10:55:35.274|56=TRAX|10=227|8=FIX.4.4|9=62|35=0|34=21|49=APAQA2_Verion4|52=20180404-10:56:05.274|56=TRAX|10=226|8=FIX.4.4|9=62|35=0|34=22|49=APAQA2_Verion4|52=20180404-10:56:36.230|56=TRAX|10=223|8=FIX.4.4|9=62|35=0|34=23|49=APAQA2_Verion4|52=20180404-10:57:06.267|56=TRAX|10=232|8=FIX.4.4|9=62|35=0|34=24|49=APAQA2_Verion4|52=20180404-10:57:37.273|56=TRAX|10=234|8=FIX.4.4|9=62|35=0|34=25|49=APAQA2_Verion4|52=20180404-10:58:08.261|56=TRAX|10=231|8=FIX.4.4|9=62|35=0|34=26|49=APAQA2_Verion4|52=20180404-10:58:38.270|56=TRAX|10=235|8=FIX.4.4|9=62|35=0|34=27|49=APAQA2_Verion4|52=20180404-10:59:09.269|56=TRAX|10=243|8=FIX.4.4|9=62|35=0|34=28|49=APAQA2_Verion4|52=20180404-10:59:40.266|56=TRAX|10=236|8=FIX.4.4|9=470|35=AE|34=29|49=APAQA2_Verion4|50=APA|57=APA|52=20180404-10:59:51.934|56=TRAX|571=TradeReport1|487=0|325=Y|423=22|748=2|55=[N/A]|48=ETCNETCTEST9|22=4|32=10909|31=449890|60=20180313-00:20:13.370|552=1|54=1|1057=Y|29=5|1041=PPB-1582_013|996=Bbl|997=H|1147=100088434|1934=0|1116=2|1117=05B6OC1W7N8NJQRIYS63|1118=N|1119=116|1117=05B6OC1W7N8NJQRIYS63|1118=N|1119=1|15=EUR|120=GBP|1924=1|22600=550000000|22601=EUR|854=1|231=10|2489=pack001_01|2490=1|30=KBLM|22801=1|22802=TPAC|10=050|8=FIX.4.4|9=62|35=0|34=30|49=APAQA2_Verion4|52=20180404-11:00:22.264|56=TRAX|10=214|8=FIX.4.4|9=62|35=0|34=31|49=APAQA2_Verion4|52=20180404-11:00:52.274|56=TRAX|10=219|8=FIX.4.4|9=62|35=0|34=32|49=APAQA2_Verion4|52=20180404-11:01:23.263|56=TRAX|10=217|8=FIX.4.4|9=62|35=0|34=33|49=APAQA2_Verion4|52=20180404-11:01:53.274|56=TRAX|10=223|8=FIX.4.4|9=470|35=AE|34=34|49=APAQA2_Verion4|50=APA|57=APA|52=20180404-11:01:53.290|56=TRAX|571=TradeReport1|487=0|325=Y|423=22|748=2|55=[N/A]|48=DE000A2AAP11|22=4|32=10909|31=449890|60=20180313-00:20:13.370|552=1|54=1|1057=Y|29=5|1041=PPB-1582_014|996=Bbl|997=H|1147=100088434|1934=0|1116=2|1117=05B6OC1W7N8NJQRIYS63|1118=N|1119=116|1117=05B6OC1W7N8NJQRIYS63|1118=N|1119=1|15=EUR|120=GBP|1924=1|22600=550000000|22601=EUR|854=1|231=10|2489=pack001_01|2490=1|30=KBLM|22801=1|22802=TPAC|10=097|8=FIX.4.4|9=466|35=AE|34=35|49=APAQA2_Verion4|50=APA|57=APA|52=20180404-11:02:16.530|56=TRAX|571=TradeReport1|487=0|325=Y|423=22|748=2|55=[N/A]|48=DE000A2AAP11|22=4|32=10909|31=449890|60=20180313-00:20:13.370|552=1|54=1|1057=Y|29=5|1041=PPB-1582_015|996=Bbl|997=H|1147=100088434|1934=0|1116=2|1117=05B6OC1W7N8NJQRIYS63|1118=N|1119=116|1117=05B6OC1W7N8NJQRIYS63|1118=N|1119=1|15=EUR|120=GBP|1924=1|22600=55000|22601=EUR|854=1|231=10|2489=pack001_01|2490=1|30=KBLM|22801=1|22802=TPAC|10=165|8=FIX.4.4|9=62|35=0|34=36|49=APAQA2_Verion4|52=20180404-11:02:47.275|56=TRAX|10=231|8=FIX.4.4|9=62|35=0|34=37|49=APAQA2_Verion4|52=20180404-11:03:18.237|56=TRAX|10=229|8=FIX.4.4|9=62|35=0|34=38|49=APAQA2_Verion4|52=20180404-11:03:48.268|56=TRAX|10=237|8=FIX.4.4|9=466|35=AE|34=39|49=APAQA2_Verion4|50=APA|57=APA|52=20180404-11:04:02.151|56=TRAX|571=TradeReport1|487=0|325=Y|423=22|748=2|55=[N/A]|48=DE000A2AAP11|22=4|32=10909|31=449890|60=20180313-00:20:13.370|552=1|54=1|1057=Y|29=5|1041=PPB-1582_016|996=Bbl|997=H|1147=100088434|1934=0|1116=2|1117=05B6OC1W7N8NJQRIYS63|1118=N|1119=116|1117=05B6OC1W7N8NJQRIYS63|1118=N|1119=1|15=EUR|120=GBP|1924=1|22600=55000|22601=EUR|854=1|231=10|2489=pack001_01|2490=1|30=KBLM|22801=1|22802=TPAC|10=166|8=FIX.4.4|9=62|35=0|34=40|49=APAQA2_Verion4|52=20180404-11:04:32.261|56=TRAX|10=217|8=FIX.4.4|9=62|35=0|34=41|49=APAQA2_Verion4|52=20180404-11:05:03.232|56=TRAX|10=215|8=FIX.4.4|9=466|35=AE|34=42|49=APAQA2_Verion4|50=APA|57=APA|52=20180404-11:05:24.133|56=TRAX|571=TradeReport1|487=0|325=Y|423=22|748=2|55=[N/A]|48=DE000A2AAP11|22=4|32=10909|31=449890|60=20180313-00:20:13.370|552=1|54=1|1057=Y|29=5|1041=PPB-1582_017|996=Bbl|997=H|1147=100088434|1934=0|1116=2|1117=05B6OC1W7N8NJQRIYS63|1118=N|1119=116|1117=05B6OC1W7N8NJQRIYS63|1118=N|1119=1|15=EUR|120=GBP|1924=1|22600=55000|22601=EUR|854=1|231=10|2489=pack001_01|2490=2|30=KBLM|22801=1|22802=TPAC|10=167|8=FIX.4.4|9=62|35=0|34=43|49=APAQA2_Verion4|52=20180404-11:05:54.270|56=TRAX|10=225|8=FIX.4.4|9=62|35=0|34=44|49=APAQA2_Verion4|52=20180404-11:06:24.273|56=TRAX|10=227|8=FIX.4.4|9=62|35=0|34=45|49=APAQA2_Verion4|52=20180404-11:06:55.263|56=TRAX|10=231|8=FIX.4.4|9=62|35=0|34=46|49=APAQA2_Verion4|52=20180404-11:07:25.264|56=TRAX|10=231|8=FIX.4.4|9=62|35=0|34=47|49=APAQA2_Verion4|52=20180404-11:07:55.270|56=TRAX|10=232|8=FIX.4.4|9=62|35=0|34=48|49=APAQA2_Verion4|52=20180404-11:08:25.276|56=TRAX|10=237|8=FIX.4.4|9=62|35=0|34=49|49=APAQA2_Verion4|52=20180404-11:08:56.270|56=TRAX|10=236|8=FIX.4.4|9=62|35=0|34=50|49=APAQA2_Verion4|52=20180404-11:09:27.233|56=TRAX|10=226|8=FIX.4.4|9=62|35=0|34=51|49=APAQA2_Verion4|52=20180404-11:09:57.233|56=TRAX|10=230|8=FIX.4.4|9=62|35=0|34=52|49=APAQA2_Verion4|52=20180404-11:10:27.271|56=TRAX|10=222|8=FIX.4.4|9=62|35=0|34=53|49=APAQA2_Verion4|52=20180404-11:10:57.271|56=TRAX|10=226|8=FIX.4.4|9=477|35=AE|34=54|49=APAQA2_Verion4|50=APA|57=APA|52=20180404-11:11:23.998|56=TRAX|571=TradeReport1|487=0|325=Y|423=22|55=[N/A]|48=DE000A2AAP11|22=4|32=10909|31=449890|60=20180313-00:20:13.370|552=1|54=1|1057=Y|29=5|1041=PPB-1582_018|996=Bbl|997=H|1147=100088434|1934=0|1116=2|1117=05B6OC1W7N8NJQRIYS63|1118=N|1119=116|1117=05B6OC1W7N8NJQRIYS63|1118=N|1119=1|1117=05B6OC1W7N8NJQRIYS63|1118=N|1119=17|15=EUR|120=GBP|1924=1|22600=55000|22601=EUR|854=1|231=1022801=1|22802=TPAC|30=KBLM|10=131|8=FIX.4.4|9=71|35=0|34=55|49=APAQA2_Verion4|52=20180404-11:11:43.357|56=TRAX|112=TEST|10=247|8=FIX.4.4|9=72|35=2|34=56|49=APAQA2_Verion4|52=20180404-11:12:14.108|56=TRAX|7=66|16=0|10=152|8=FIX.4.4|9=62|35=0|34=57|49=APAQA2_Verion4|52=20180404-11:12:44.267|56=TRAX|10=233|8=FIX.4.4|9=62|35=0|34=58|49=APAQA2_Verion4|52=20180404-11:13:14.936|56=TRAX|10=235|8=FIX.4.4|9=62|35=0|34=59|49=APAQA2_Verion4|52=20180404-11:13:45.265|56=TRAX|10=235|8=FIX.4.4|9=62|35=0|34=60|49=APAQA2_Verion4|52=20180404-11:14:15.276|56=TRAX|10=227|8=FIX.4.4|9=62|35=0|34=61|49=APAQA2_Verion4|52=20180404-11:14:46.277|56=TRAX|10=233|8=FIX.4.4|9=62|35=0|34=62|49=APAQA2_Verion4|52=20180404-11:15:17.269|56=TRAX|10=234|8=FIX.4.4|9=62|35=0|34=63|49=APAQA2_Verion4|52=20180404-11:15:47.270|56=TRAX|10=230|8=FIX.4.4|9=62|35=0|34=64|49=APAQA2_Verion4|52=20180404-11:16:17.275|56=TRAX|10=234|8=FIX.4.4|9=62|35=0|34=65|49=APAQA2_Verion4|52=20180404-11:16:48.271|56=TRAX|10=235|8=FIX.4.4|9=80|35=5|34=66|49=APAQA2_Verion4|52=20180404-11:17:02.270|56=TRAX|58=user requested|10=067|8=FIX.4.4|9=96|35=A|34=1|49=APAQA2_Verion4|52=20180404-11:17:20.308|56=TRAX|98=0|108=30|95=8|96=2.0.0rc4|141=Y|10=143|8=FIX.4.4|9=476|35=AE|34=2|49=APAQA2_Verion4|50=APA|57=APA|52=20180404-11:17:32.798|56=TRAX|571=TradeReport1|487=0|325=Y|423=22|55=[N/A]|48=DE000A2AAP11|22=4|32=10909|31=449890|60=20180313-00:20:13.370|552=1|54=1|1057=Y|29=5|1041=PPB-1582_019|996=Bbl|997=H|1147=100088434|1934=0|1116=2|1117=05B6OC1W7N8NJQRIYS63|1118=N|1119=116|1117=05B6OC1W7N8NJQRIYS63|1118=N|1119=1|1117=05B6OC1W7N8NJQRIYS63|1118=N|1119=17|15=EUR|120=GBP|1924=1|22600=55000|22601=EUR|854=1|231=1022801=1|22802=TPAC|30=KBLM|10=080|8=FIX.4.4|9=61|35=0|34=3|49=APAQA2_Verion4|52=20180404-11:18:03.279|56=TRAX|10=179|8=FIX.4.4|9=70|35=2|34=4|49=APAQA2_Verion4|52=20180404-11:18:33.930|56=TRAX|7=3|16=0|10=048|8=FIX.4.4|9=61|35=0|34=5|49=APAQA2_Verion4|52=20180404-11:19:04.246|56=TRAX|10=177|8=FIX.4.4|9=61|35=0|34=6|49=APAQA2_Verion4|52=20180404-11:19:34.279|56=TRAX|10=187|8=FIX.4.4|9=476|35=AE|34=7|49=APAQA2_Verion4|50=APA|57=APA|52=20180404-11:19:48.511|56=TRAX|571=TradeReport1|487=0|325=Y|423=22|55=[N/A]|48=DE000A2AAP11|22=4|32=10909|31=449890|60=20180313-00:20:13.370|552=1|54=1|1057=Y|29=5|1041=PPB-1582_019|996=Bbl|997=H|1147=100088434|1934=0|1116=3|1117=05B6OC1W7N8NJQRIYS63|1118=N|1119=116|1117=05B6OC1W7N8NJQRIYS63|1118=N|1119=1|1117=05B6OC1W7N8NJQRIYS63|1118=N|1119=17|15=EUR|120=GBP|1924=1|22600=55000|22601=EUR|854=1|231=1022801=1|22802=TPAC|30=KBLM|10=077|8=FIX.4.4|9=61|35=0|34=8|49=APAQA2_Verion4|52=20180404-11:20:18.938|56=TRAX|10=185|8=FIX.4.4|9=61|35=0|34=9|49=APAQA2_Verion4|52=20180404-11:20:48.981|56=TRAX|10=187|8=FIX.4.4|9=62|35=0|34=10|49=APAQA2_Verion4|52=20180404-11:21:19.276|56=TRAX|10=224|8=FIX.4.4|9=478|35=AE|34=11|49=APAQA2_Verion4|50=APA|57=APA|52=20180404-11:21:34.011|56=TRAX|571=TradeReport1|487=0|325=Y|423=22|55=[N/A]|48=DE000A2AAP11|22=4|32=10909|31=449890|60=20180313-00:20:13.370|552=1|54=1|1057=Y|29=5|1041=PPB-1582_031|996=Bbl|997=H|1147=100088434|1934=0|1116=2|1117=05B6OC1W7N8NJQRIYS63|1118=N|1119=116|1117=05B6OC1W7N8NJQRIYS63|1118=N|1119=17|1117=05B6OC1W7N8NJQRIYS63|1118=N|1119=17|15=EUR|120=GBP|1924=1|22600=55000|22601=EUR|854=1|231=1022801=1|22802=TPAC|30=KBLM|10=154|8=FIX.4.4|9=62|35=0|34=12|49=APAQA2_Verion4|52=20180404-11:22:04.277|56=TRAX|10=222|8=FIX.4.4|9=62|35=0|34=13|49=APAQA2_Verion4|52=20180404-11:22:34.281|56=TRAX|10=221|8=FIX.4.4|9=62|35=0|34=14|49=APAQA2_Verion4|52=20180404-11:23:04.288|56=TRAX|10=227|8=FIX.4.4|9=62|35=0|34=15|49=APAQA2_Verion4|52=20180404-11:23:34.292|56=TRAX|10=226|8=FIX.4.4|9=62|35=0|34=16|49=APAQA2_Verion4|52=20180404-11:24:05.281|56=TRAX|10=224|8=FIX.4.4|9=62|35=0|34=17|49=APAQA2_Verion4|52=20180404-11:24:36.248|56=TRAX|10=232|8=FIX.4.4|9=62|35=0|34=18|49=APAQA2_Verion4|52=20180404-11:25:06.289|56=TRAX|10=236|8=FIX.4.4|9=80|35=5|34=19|49=APAQA2_Verion4|52=20180404-11:25:23.249|56=TRAX|58=user requested|10=073|8=FIX.4.4|9=96|35=A|34=1|49=APAQA2_Verion4|52=20180404-11:28:34.093|56=TRAX|98=0|108=30|95=8|96=2.0.0rc4|141=Y|10=151|8=FIX.4.4|9=306|35=AE|34=2|49=APAQA2_Verion4|50=APA|57=APA|52=20180404-11:28:40.307|56=TRAX|571=TradeReport1|487=0|325=Y|423=22|55=[N/A]|48=DE000A2AAP11|22=4|32=869.09|31=8498.90|60=20180313-00:20:13.370|552=1|54=1|29=5|1041=PPB-1582_036|996=Bbl|997=H|1147=100088434|1934=0|1116=3|1117=05B6OC1W7N8NJQRIYS63|1118=N|1119=17|10=099|8=FIX.4.4|9=306|35=AE|34=3|49=APAQA2_Verion4|50=APA|57=APA|52=20180404-11:28:50.867|56=TRAX|571=TradeReport1|487=0|325=Y|423=22|55=[N/A]|48=DE000A2AAP11|22=4|32=869.09|31=8498.90|60=20180313-00:20:13.370|552=1|54=1|29=5|1041=PPB-1582_036|996=Bbl|997=H|1147=100088434|1934=0|1116=2|1117=05B6OC1W7N8NJQRIYS63|1118=N|1119=17|10=111|8=FIX.4.4|9=70|35=0|34=4|49=APAQA2_Verion4|52=20180404-11:29:19.932|56=TRAX|112=TEST|10=203|8=FIX.4.4|9=306|35=AE|34=5|49=APAQA2_Verion4|50=APA|57=APA|52=20180404-11:29:32.719|56=TRAX|571=TradeReport1|487=0|325=Y|423=22|55=[N/A]|48=DE000A2AAP11|22=4|32=869.09|31=8498.90|60=20180313-00:20:13.370|552=1|54=1|29=5|1041=PPB-1582_036|996=Bbl|997=H|1147=100088434|1934=0|1116=3|1117=05B6OC1W7N8NJQRIYS63|1118=N|1119=17|10=111|8=FIX.4.4|9=61|35=0|34=6|49=APAQA2_Verion4|52=20180404-11:30:02.956|56=TRAX|10=177|8=FIX.4.4|9=61|35=0|34=7|49=APAQA2_Verion4|52=20180404-11:30:33.053|56=TRAX|10=170|8=FIX.4.4|9=61|35=0|34=8|49=APAQA2_Verion4|52=20180404-11:31:03.078|56=TRAX|10=176|8=FIX.4.4|9=61|35=0|34=9|49=APAQA2_Verion4|52=20180404-11:31:34.086|56=TRAX|10=180|8=FIX.4.4|9=62|35=0|34=10|49=APAQA2_Verion4|52=20180404-11:32:05.060|56=TRAX|10=212|8=FIX.4.4|9=62|35=0|34=11|49=APAQA2_Verion4|52=20180404-11:32:35.074|56=TRAX|10=221|8=FIX.4.4|9=62|35=0|34=12|49=APAQA2_Verion4|52=20180404-11:33:05.090|56=TRAX|10=218|8=FIX.4.4|9=307|35=AE|34=13|49=APAQA2_Verion4|50=APA|57=APA|52=20180404-11:33:19.374|56=TRAX|571=TradeReport1|487=0|325=Y|423=22|55=[N/A]|48=DE000A2AAP11|22=4|32=869.09|31=8498.90|60=20180313-00:20:13.370|552=1|54=1|29=5|1041=PPB-1582_037|996=Bbl|997=H|1147=100088434|1934=0|1116=3|1117=05B6OC1W7N8NJQRIYS63|1118=N|1119=17|10=157|8=FIX.4.4|9=62|35=0|34=14|49=APAQA2_Verion4|52=20180404-11:33:49.933|56=TRAX|10=234|8=FIX.4.4|9=62|35=0|34=15|49=APAQA2_Verion4|52=20180404-11:34:20.088|56=TRAX|10=226|8=FIX.4.4|9=62|35=0|34=16|49=APAQA2_Verion4|52=20180404-11:34:50.090|56=TRAX|10=223|8=FIX.4.4|9=62|35=0|34=17|49=APAQA2_Verion4|52=20180404-11:35:20.095|56=TRAX|10=227|8=FIX.4.4|9=62|35=0|34=18|49=APAQA2_Verion4|52=20180404-11:35:51.090|56=TRAX|10=227|8=FIX.4.4|9=62|35=0|34=19|49=APAQA2_Verion4|52=20180404-11:36:21.094|56=TRAX|10=230|8=FIX.4.4|9=62|35=0|34=20|49=APAQA2_Verion4|52=20180404-11:36:52.091|56=TRAX|10=223|8=FIX.4.4|9=62|35=0|34=21|49=APAQA2_Verion4|52=20180404-11:37:23.095|56=TRAX|10=227|8=FIX.4.4|9=62|35=0|34=22|49=APAQA2_Verion4|52=20180404-11:37:54.096|56=TRAX|10=233|8=FIX.4.4|9=62|35=0|34=23|49=APAQA2_Verion4|52=20180404-11:38:25.088|56=TRAX|10=234|8=FIX.4.4|9=62|35=0|34=24|49=APAQA2_Verion4|52=20180404-11:38:56.091|56=TRAX|10=233|8=FIX.4.4|9=62|35=0|34=25|49=APAQA2_Verion4|52=20180404-11:39:26.092|56=TRAX|10=233|8=FIX.4.4|9=62|35=0|34=26|49=APAQA2_Verion4|52=20180404-11:39:56.093|56=TRAX|10=238|8=FIX.4.4|9=62|35=0|34=27|49=APAQA2_Verion4|52=20180404-11:40:27.087|56=TRAX|10=232|8=FIX.4.4|9=62|35=0|34=28|49=APAQA2_Verion4|52=20180404-11:40:57.098|56=TRAX|10=238|8=FIX.4.4|9=62|35=0|34=29|49=APAQA2_Verion4|52=20180404-11:41:28.098|56=TRAX|10=238|8=FIX.4.4|9=62|35=0|34=30|49=APAQA2_Verion4|52=20180404-11:41:59.090|56=TRAX|10=226|8=FIX.4.4|9=62|35=0|34=31|49=APAQA2_Verion4|52=20180404-11:42:30.091|56=TRAX|10=218|8=FIX.4.4|9=62|35=0|34=32|49=APAQA2_Verion4|52=20180404-11:43:01.085|56=TRAX|10=221|8=FIX.4.4|9=464|35=AE|34=33|49=APAQA2_Verion4|50=APA|57=APA|52=20180404-11:43:04.485|56=TRAX|571=TradeReport1|487=0|325=Y|423=22|55=[N/A]|48=DE000A2AAP11|22=4|32=869.09|31=8498.90|60=20180313-00:20:13.370|552=1|54=1|29=5|1041=PPB-1582_042|996=Bbl|997=H|1147=100088434|1934=0|1116=3|1117=05B6OC1W7N8NJQRIYS63|1118=N|1119=17|1117=05B6OC1W7N8NJQRIYS63|1118=N|1119=1|1117=05B6OC1W7N8NJQRIYS63|1118=N|1119=116|15=EUR|120=GBP|1924=1|22600=55000|22601=EUR|22505=USD|854=1|231=10|30=KBLM|10=214|8=FIX.4.4|9=62|35=0|34=34|49=APAQA2_Verion4|52=20180404-11:43:34.927|56=TRAX|10=234|8=FIX.4.4|9=62|35=0|34=35|49=APAQA2_Verion4|52=20180404-11:44:04.928|56=TRAX|10=234|8=FIX.4.4|9=62|35=0|34=36|49=APAQA2_Verion4|52=20180404-11:44:34.943|56=TRAX|10=235|8=FIX.4.4|9=62|35=0|34=37|49=APAQA2_Verion4|52=20180404-11:45:05.083|56=TRAX|10=230|8=FIX.4.4|9=62|35=0|34=38|49=APAQA2_Verion4|52=20180404-11:45:35.088|56=TRAX|10=239|8=FIX.4.4|9=62|35=0|34=39|49=APAQA2_Verion4|52=20180404-11:46:05.100|56=TRAX|10=223|8=FIX.4.4|9=62|35=0|34=40|49=APAQA2_Verion4|52=20180404-11:46:36.092|56=TRAX|10=229|8=FIX.4.4|9=62|35=0|34=41|49=APAQA2_Verion4|52=20180404-11:47:06.093|56=TRAX|10=229|8=FIX.4.4|9=62|35=0|34=42|49=APAQA2_Verion4|52=20180404-11:47:37.088|56=TRAX|10=238|8=FIX.4.4|9=62|35=0|34=43|49=APAQA2_Verion4|52=20180404-11:48:07.101|56=TRAX|10=223|8=FIX.4.4|9=62|35=0|34=44|49=APAQA2_Verion4|52=20180404-11:48:38.092|56=TRAX|10=237|8=FIX.4.4|9=62|35=0|34=45|49=APAQA2_Verion4|52=20180404-11:49:08.099|56=TRAX|10=243|8=FIX.4.4|9=62|35=0|34=46|49=APAQA2_Verion4|52=20180404-11:49:39.090|56=TRAX|10=239|8=FIX.4.4|9=62|35=0|34=47|49=APAQA2_Verion4|52=20180404-11:50:09.099|56=TRAX|10=238|8=FIX.4.4|9=62|35=0|34=48|49=APAQA2_Verion4|52=20180404-11:50:40.101|56=TRAX|10=218|8=FIX.4.4|9=62|35=0|34=49|49=APAQA2_Verion4|52=20180404-11:51:11.098|56=TRAX|10=233|8=FIX.4.4|9=62|35=0|34=50|49=APAQA2_Verion4|52=20180404-11:51:42.100|56=TRAX|10=213|8=FIX.4.4|9=62|35=0|34=51|49=APAQA2_Verion4|52=20180404-11:52:13.097|56=TRAX|10=228|8=FIX.4.4|9=62|35=0|34=52|49=APAQA2_Verion4|52=20180404-11:52:43.097|56=TRAX|10=232|8=FIX.4.4|9=62|35=0|34=53|49=APAQA2_Verion4|52=20180404-11:53:14.084|56=TRAX|10=228|8=FIX.4.4|9=62|35=0|34=54|49=APAQA2_Verion4|52=20180404-11:53:44.100|56=TRAX|10=221|8=FIX.4.4|9=62|35=0|34=55|49=APAQA2_Verion4|52=20180404-11:54:15.079|56=TRAX|10=236|8=FIX.4.4|9=62|35=0|34=56|49=APAQA2_Verion4|52=20180404-11:54:45.088|56=TRAX|10=240|8=FIX.4.4|9=62|35=0|34=57|49=APAQA2_Verion4|52=20180404-11:55:15.089|56=TRAX|10=240|8=FIX.4.4|9=62|35=0|34=58|49=APAQA2_Verion4|52=20180404-11:55:45.091|56=TRAX|10=237|8=FIX.4.4|9=62|35=0|34=59|49=APAQA2_Verion4|52=20180404-11:56:16.092|56=TRAX|10=238|8=FIX.4.4|9=62|35=0|34=60|49=APAQA2_Verion4|52=20180404-11:56:47.081|56=TRAX|10=232|8=FIX.4.4|9=62|35=0|34=61|49=APAQA2_Verion4|52=20180404-11:57:17.082|56=TRAX|10=232|8=FIX.4.4|9=62|35=0|34=62|49=APAQA2_Verion4|52=20180404-11:57:48.084|56=TRAX|10=239|8=FIX.4.4|9=62|35=0|34=63|49=APAQA2_Verion4|52=20180404-11:58:19.073|56=TRAX|10=237|8=FIX.4.4|9=62|35=0|34=64|49=APAQA2_Verion4|52=20180404-11:58:49.077|56=TRAX|10=245|8=FIX.4.4|9=62|35=0|34=65|49=APAQA2_Verion4|52=20180404-11:59:20.063|56=TRAX|10=231|8=FIX.4.4|9=62|35=0|34=66|49=APAQA2_Verion4|52=20180404-11:59:50.074|56=TRAX|10=237|8=FIX.4.4|9=62|35=0|34=67|49=APAQA2_Verion4|52=20180404-12:00:20.077|56=TRAX|10=225|8=FIX.4.4|9=62|35=0|34=68|49=APAQA2_Verion4|52=20180404-12:00:51.071|56=TRAX|10=224|8=FIX.4.4|9=62|35=0|34=69|49=APAQA2_Verion4|52=20180404-12:01:21.080|56=TRAX|10=223|8=FIX.4.4|9=62|35=0|34=70|49=APAQA2_Verion4|52=20180404-12:01:52.078|56=TRAX|10=226|8=FIX.4.4|9=62|35=0|34=71|49=APAQA2_Verion4|52=20180404-12:02:23.056|56=TRAX|10=222|8=FIX.4.4|9=62|35=0|34=72|49=APAQA2_Verion4|52=20180404-12:02:53.074|56=TRAX|10=226|8=FIX.4.4|9=62|35=0|34=73|49=APAQA2_Verion4|52=20180404-12:03:24.074|56=TRAX|10=226|8=FIX.4.4|9=62|35=0|34=74|49=APAQA2_Verion4|52=20180404-12:03:54.079|56=TRAX|10=235|8=FIX.4.4|9=62|35=0|34=75|49=APAQA2_Verion4|52=20180404-12:04:25.081|56=TRAX|10=228|8=FIX.4.4|9=62|35=0|34=76|49=APAQA2_Verion4|52=20180404-12:04:56.080|56=TRAX|10=232|8=FIX.4.4|9=62|35=0|34=77|49=APAQA2_Verion4|52=20180404-12:05:27.068|56=TRAX|10=238|8=FIX.4.4|9=62|35=0|34=78|49=APAQA2_Verion4|52=20180404-12:05:57.069|56=TRAX|10=243|8=FIX.4.4|9=62|35=0|34=79|49=APAQA2_Verion4|52=20180404-12:06:28.071|56=TRAX|10=236|8=FIX.4.4|9=62|35=0|34=80|49=APAQA2_Verion4|52=20180404-12:06:58.077|56=TRAX|10=237|8=FIX.4.4|9=62|35=0|34=81|49=APAQA2_Verion4|52=20180404-12:07:28.082|56=TRAX|10=232|8=FIX.4.4|9=62|35=0|34=82|49=APAQA2_Verion4|52=20180404-12:07:59.072|56=TRAX|10=236|8=FIX.4.4|9=62|35=0|34=83|49=APAQA2_Verion4|52=20180404-12:08:30.074|56=TRAX|10=229|8=FIX.4.4|9=62|35=0|34=84|49=APAQA2_Verion4|52=20180404-12:09:00.080|56=TRAX|10=225|8=FIX.4.4|9=62|35=0|34=85|49=APAQA2_Verion4|52=20180404-12:09:31.079|56=TRAX|10=238|8=FIX.4.4|9=62|35=0|34=86|49=APAQA2_Verion4|52=20180404-12:10:01.081|56=TRAX|10=221|8=FIX.4.4|9=62|35=0|34=87|49=APAQA2_Verion4|52=20180404-12:10:32.073|56=TRAX|10=227|8=FIX.4.4|9=62|35=0|34=88|49=APAQA2_Verion4|52=20180404-12:11:03.070|56=TRAX|10=224|8=FIX.4.4|9=62|35=0|34=89|49=APAQA2_Verion4|52=20180404-12:11:34.070|56=TRAX|10=229|8=FIX.4.4|9=62|35=0|34=90|49=APAQA2_Verion4|52=20180404-12:12:04.081|56=TRAX|10=221|8=FIX.4.4|9=62|35=0|34=91|49=APAQA2_Verion4|52=20180404-12:12:34.083|56=TRAX|10=227|8=FIX.4.4|9=62|35=0|34=92|49=APAQA2_Verion4|52=20180404-12:13:04.083|56=TRAX|10=226|8=FIX.4.4|9=62|35=0|34=93|49=APAQA2_Verion4|52=20180404-12:13:35.064|56=TRAX|10=230|8=FIX.4.4|9=62|35=0|34=94|49=APAQA2_Verion4|52=20180404-12:14:05.072|56=TRAX|10=228|8=FIX.4.4|9=62|35=0|34=95|49=APAQA2_Verion4|52=20180404-12:14:35.075|56=TRAX|10=235|8=FIX.4.4|9=62|35=0|34=96|49=APAQA2_Verion4|52=20180404-12:15:05.081|56=TRAX|10=231|8=FIX.4.4|9=62|35=0|34=97|49=APAQA2_Verion4|52=20180404-12:15:36.076|56=TRAX|10=240|8=FIX.4.4|9=62|35=0|34=98|49=APAQA2_Verion4|52=20180404-12:16:06.086|56=TRAX|10=240|8=FIX.4.4|9=62|35=0|34=99|49=APAQA2_Verion4|52=20180404-12:16:37.080|56=TRAX|10=239|8=FIX.4.4|9=63|35=0|34=100|49=APAQA2_Verion4|52=20180404-12:17:08.082|56=TRAX|10=016|8=FIX.4.4|9=63|35=0|34=101|49=APAQA2_Verion4|52=20180404-12:17:38.087|56=TRAX|10=025|8=FIX.4.4|9=63|35=0|34=102|49=APAQA2_Verion4|52=20180404-12:18:09.083|56=TRAX|10=021|8=FIX.4.4|9=63|35=0|34=103|49=APAQA2_Verion4|52=20180404-12:18:40.084|56=TRAX|10=018|8=FIX.4.4|9=63|35=0|34=104|49=APAQA2_Verion4|52=20180404-12:19:10.085|56=TRAX|10=018|8=FIX.4.4|9=63|35=0|34=105|49=APAQA2_Verion4|52=20180404-12:19:41.082|56=TRAX|10=020|8=FIX.4.4|9=63|35=0|34=106|49=APAQA2_Verion4|52=20180404-12:20:12.074|56=TRAX|10=012|8=FIX.4.4|9=63|35=0|34=107|49=APAQA2_Verion4|52=20180404-12:20:42.083|56=TRAX|10=016|8=FIX.4.4|9=63|35=0|34=108|49=APAQA2_Verion4|52=20180404-12:21:13.084|56=TRAX|10=017|8=FIX.4.4|9=63|35=0|34=109|49=APAQA2_Verion4|52=20180404-12:21:43.085|56=TRAX|10=022|8=FIX.4.4|9=63|35=0|34=110|49=APAQA2_Verion4|52=20180404-12:22:14.083|56=TRAX|10=011|8=FIX.4.4|9=63|35=0|34=111|49=APAQA2_Verion4|52=20180404-12:22:44.087|56=TRAX|10=019|8=FIX.4.4|9=63|35=0|34=112|49=APAQA2_Verion4|52=20180404-12:23:15.061|56=TRAX|10=011|8=FIX.4.4|9=63|35=0|34=113|49=APAQA2_Verion4|52=20180404-12:23:45.083|56=TRAX|10=019|8=FIX.4.4|9=63|35=0|34=114|49=APAQA2_Verion4|52=20180404-12:24:16.084|56=TRAX|10=020|8=FIX.4.4|9=63|35=0|34=115|49=APAQA2_Verion4|52=20180404-12:24:47.076|56=TRAX|10=026|8=FIX.4.4|9=63|35=0|34=116|49=APAQA2_Verion4|52=20180404-12:25:18.087|56=TRAX|10=028|8=FIX.4.4|9=63|35=0|34=117|49=APAQA2_Verion4|52=20180404-12:25:48.088|56=TRAX|10=033|8=FIX.4.4|9=63|35=0|34=118|49=APAQA2_Verion4|52=20180404-12:26:19.046|56=TRAX|10=027|8=FIX.4.4|9=63|35=0|34=119|49=APAQA2_Verion4|52=20180404-12:26:50.045|56=TRAX|10=022|8=FIX.4.4|9=63|35=0|34=120|49=APAQA2_Verion4|52=20180404-12:27:21.043|56=TRAX|10=011|8=FIX.4.4|9=63|35=0|34=121|49=APAQA2_Verion4|52=20180404-12:27:51.080|56=TRAX|10=016|8=FIX.4.4|9=63|35=0|34=122|49=APAQA2_Verion4|52=20180404-12:28:21.081|56=TRAX|10=016|8=FIX.4.4|9=63|35=0|34=123|49=APAQA2_Verion4|52=20180404-12:28:51.087|56=TRAX|10=026|8=FIX.4.4|9=63|35=0|34=124|49=APAQA2_Verion4|52=20180404-12:29:22.074|56=TRAX|10=022|8=FIX.4.4|9=63|35=0|34=125|49=APAQA2_Verion4|52=20180404-12:29:52.078|56=TRAX|10=030|8=FIX.4.4|9=63|35=0|34=126|49=APAQA2_Verion4|52=20180404-12:30:22.083|56=TRAX|10=016|8=FIX.4.4|9=63|35=0|34=127|49=APAQA2_Verion4|52=20180404-12:30:52.085|56=TRAX|10=022|8=FIX.4.4|9=63|35=0|34=128|49=APAQA2_Verion4|52=20180404-12:31:23.083|56=TRAX|10=020|8=FIX.4.4|9=63|35=0|34=129|49=APAQA2_Verion4|52=20180404-12:31:53.086|56=TRAX|10=027|8=FIX.4.4|9=63|35=0|34=130|49=APAQA2_Verion4|52=20180404-12:32:24.074|56=TRAX|10=015|8=FIX.4.4|9=63|35=0|34=131|49=APAQA2_Verion4|52=20180404-12:32:54.074|56=TRAX|10=019|8=FIX.4.4|9=63|35=0|34=132|49=APAQA2_Verion4|52=20180404-12:33:24.080|56=TRAX|10=015|8=FIX.4.4|9=63|35=0|34=133|49=APAQA2_Verion4|52=20180404-12:33:55.067|56=TRAX|10=025|8=FIX.4.4|9=63|35=0|34=134|49=APAQA2_Verion4|52=20180404-12:34:25.071|56=TRAX|10=019|8=FIX.4.4|9=63|35=0|34=135|49=APAQA2_Verion4|52=20180404-12:34:55.085|56=TRAX|10=028|8=FIX.4.4|9=63|35=0|34=136|49=APAQA2_Verion4|52=20180404-12:35:25.085|56=TRAX|10=027|8=FIX.4.4|9=63|35=0|34=137|49=APAQA2_Verion4|52=20180404-12:35:56.082|56=TRAX|10=029|8=FIX.4.4|9=63|35=0|34=138|49=APAQA2_Verion4|52=20180404-12:36:26.084|56=TRAX|10=030|8=FIX.4.4|9=63|35=0|34=139|49=APAQA2_Verion4|52=20180404-12:36:56.088|56=TRAX|10=038|8=FIX.4.4|9=63|35=0|34=140|49=APAQA2_Verion4|52=20180404-12:37:27.078|56=TRAX|10=028|8=FIX.4.4|9=63|35=0|34=141|49=APAQA2_Verion4|52=20180404-12:37:57.080|56=TRAX|10=025|8=FIX.4.4|9=63|35=0|34=142|49=APAQA2_Verion4|52=20180404-12:38:28.048|56=TRAX|10=029|8=FIX.4.4|9=63|35=0|34=143|49=APAQA2_Verion4|52=20180404-12:38:58.081|56=TRAX|10=030|8=FIX.4.4|9=63|35=0|34=144|49=APAQA2_Verion4|52=20180404-12:39:28.086|56=TRAX|10=034|8=FIX.4.4|9=63|35=0|34=145|49=APAQA2_Verion4|52=20180404-12:39:59.092|56=TRAX|10=036|8=FIX.4.4|9=63|35=0|34=146|49=APAQA2_Verion4|52=20180404-12:40:30.078|56=TRAX|10=022|8=FIX.4.4|9=63|35=0|34=147|49=APAQA2_Verion4|52=20180404-12:41:00.092|56=TRAX|10=017|8=FIX.4.4|9=63|35=0|34=148|49=APAQA2_Verion4|52=20180404-12:41:31.089|56=TRAX|10=028|8=FIX.4.4|9=63|35=0|34=149|49=APAQA2_Verion4|52=20180404-12:42:01.089|56=TRAX|10=027|8=FIX.4.4|9=63|35=0|34=150|49=APAQA2_Verion4|52=20180404-12:42:32.092|56=TRAX|10=017|8=FIX.4.4|9=63|35=0|34=151|49=APAQA2_Verion4|52=20180404-12:43:03.069|56=TRAX|10=021|8=FIX.4.4|9=63|35=0|34=152|49=APAQA2_Verion4|52=20180404-12:43:34.089|56=TRAX|10=028|8=FIX.4.4|9=63|35=0|34=153|49=APAQA2_Verion4|52=20180404-12:44:04.092|56=TRAX|10=021|8=FIX.4.4|9=63|35=0|34=154|49=APAQA2_Verion4|52=20180404-12:44:34.937|56=TRAX|10=033|8=FIX.4.4|9=63|35=0|34=155|49=APAQA2_Verion4|52=20180404-12:45:04.943|56=TRAX|10=029|8=FIX.4.4|9=63|35=0|34=156|49=APAQA2_Verion4|52=20180404-12:45:34.954|56=TRAX|10=035|8=FIX.4.4|9=63|35=0|34=157|49=APAQA2_Verion4|52=20180404-12:46:04.955|56=TRAX|10=035|8=FIX.4.4|9=63|35=0|34=158|49=APAQA2_Verion4|52=20180404-12:46:34.962|56=TRAX|10=037|8=FIX.4.4|9=63|35=0|34=159|49=APAQA2_Verion4|52=20180404-12:47:05.076|56=TRAX|10=033|8=FIX.4.4|9=63|35=0|34=160|49=APAQA2_Verion4|52=20180404-12:47:35.088|56=TRAX|10=031|8=FIX.4.4|9=63|35=0|34=161|49=APAQA2_Verion4|52=20180404-12:48:05.091|56=TRAX|10=024|8=FIX.4.4|9=63|35=0|34=162|49=APAQA2_Verion4|52=20180404-12:48:36.081|56=TRAX|10=028|8=FIX.4.4|9=63|35=0|34=163|49=APAQA2_Verion4|52=20180404-12:49:06.085|56=TRAX|10=031|8=FIX.4.4|9=63|35=0|34=164|49=APAQA2_Verion4|52=20180404-12:49:36.086|56=TRAX|10=036|8=FIX.4.4|9=63|35=0|34=165|49=APAQA2_Verion4|52=20180404-12:50:06.096|56=TRAX|10=027|8=FIX.4.4|9=63|35=0|34=166|49=APAQA2_Verion4|52=20180404-12:50:36.096|56=TRAX|10=031|8=FIX.4.4|9=63|35=0|34=167|49=APAQA2_Verion4|52=20180404-12:51:07.092|56=TRAX|10=027|8=FIX.4.4|9=63|35=0|34=168|49=APAQA2_Verion4|52=20180404-12:51:37.092|56=TRAX|10=031|8=FIX.4.4|9=63|35=0|34=169|49=APAQA2_Verion4|52=20180404-12:52:08.095|56=TRAX|10=034|8=FIX.4.4|9=63|35=0|34=170|49=APAQA2_Verion4|52=20180404-12:52:39.082|56=TRAX|10=026|8=FIX.4.4|9=81|35=5|34=171|49=APAQA2_Verion4|52=20180404-12:53:09.082|56=TRAX|58=user requested|10=122|8=FIX.4.4|9=96|35=A|34=1|49=APAQA2_Verion4|52=20180404-12:54:17.196|56=TRAX|98=0|108=30|95=8|96=2.0.0rc4|141=Y|10=156|8=FIX.4.4|9=463|35=AE|34=2|49=APAQA2_Verion4|50=APA|57=APA|52=20180404-12:54:22.744|56=TRAX|571=TradeReport1|487=0|325=Y|423=22|55=[N/A]|48=DE000A2AAP11|22=4|32=869.09|31=8498.90|60=20180313-00:20:13.370|552=1|54=1|29=5|1041=PPB-1582_043|996=Bbl|997=H|1147=100088434|1934=0|1116=3|1117=05B6OC1W7N8NJQRIYS63|1118=N|1119=17|1117=05B6OC1W7N8NJQRIYS63|1118=N|1119=1|1117=05B6OC1W7N8NJQRIYS63|1118=N|1119=116|15=EUR|120=GBP|1924=1|22600=55000|22601=EUR|22505=USD|854=1|231=10|30=KBLM|10=163|8=FIX.4.4|9=61|35=0|34=3|49=APAQA2_Verion4|52=20180404-12:54:52.946|56=TRAX|10=185|8=FIX.4.4|9=306|35=AE|34=4|49=APAQA2_Verion4|50=APA|57=APA|52=20180404-12:55:06.153|56=TRAX|571=TradeReport1|487=0|325=Y|423=22|55=[N/A]|48=DE000A2AAP11|22=4|32=869.09|31=8498.90|60=20180313-00:20:13.370|552=1|54=1|29=5|1041=PPB-1582_043|996=Bbl|997=H|1147=100088434|1934=0|1116=3|1117=05B6OC1W7N8NJQRIYS63|1118=N|1119=17|10=101|8=FIX.4.4|9=306|35=AE|34=5|49=APAQA2_Verion4|50=APA|57=APA|52=20180404-12:55:31.810|56=TRAX|571=TradeReport1|487=0|325=Y|423=22|55=[N/A]|48=DE000A2AAP11|22=4|32=869.09|31=8498.90|60=20180313-00:20:13.370|552=1|54=1|29=5|1041=PPB-1582_043|996=Bbl|997=H|1147=100088434|1934=0|1116=3|1117=05B6OC1W7N8NJQRIYS63|1118=N|1119=17|10=100|8=FIX.4.4|9=70|35=0|34=6|49=APAQA2_Verion4|52=20180404-12:55:38.951|56=TRAX|112=TEST|10=207|8=FIX.4.4|9=306|35=AE|34=7|49=APAQA2_Verion4|50=APA|57=APA|52=20180404-12:55:40.463|56=TRAX|571=TradeReport1|487=0|325=Y|423=22|55=[N/A]|48=DE000A2AAP11|22=4|32=869.09|31=8498.90|60=20180313-00:20:13.370|552=1|54=1|29=5|1041=PPB-1582_043|996=Bbl|997=H|1147=100088434|1934=0|1116=3|1117=05B6OC1W7N8NJQRIYS63|1118=N|1119=17|10=106|8=FIX.4.4|9=316|35=AE|34=8|49=APAQA2_Verion4|50=APA|57=APA|52=20180404-12:55:51.288|56=TRAX|571=TradeReport1|487=0|325=Y|423=22|55=[N/A]|48=DE000A2AAP11|22=4|32=869.09|31=8498.90|60=20180313-00:20:13.370|552=1|54=1|29=5|1041=PPB-1582_043|996=Bbl|997=H|1147=100088434|1934=0|22505=USD|1116=3|1117=05B6OC1W7N8NJQRIYS63|1118=N|1119=17|10=155|8=FIX.4.4|9=306|35=AE|34=9|49=APAQA2_Verion4|50=APA|57=APA|52=20180404-12:56:03.897|56=TRAX|571=TradeReport1|487=0|325=Y|423=22|55=[N/A]|48=DE000A2AAP11|22=4|32=869.09|31=8498.90|60=20180313-00:20:13.370|552=1|54=1|29=5|1041=PPB-1582_043|996=Bbl|997=H|1147=100088434|1934=0|1116=3|1117=05B6OC1W7N8NJQRIYS63|1118=N|1119=17|10=119|8=FIX.4.4|9=307|35=AE|34=10|49=APAQA2_Verion4|50=APA|57=APA|52=20180404-12:56:11.297|56=TRAX|571=TradeReport1|487=0|325=Y|423=22|55=[N/A]|48=DE000A2AAP11|22=4|32=869.09|31=8498.90|60=20180313-00:20:13.370|552=1|54=1|29=5|1041=PPB-1582_043|996=Bbl|997=H|1147=100088434|1934=0|1116=2|1117=05B6OC1W7N8NJQRIYS63|1118=N|1119=17|10=152|8=FIX.4.4|9=71|35=0|34=11|49=APAQA2_Verion4|52=20180404-12:56:24.915|56=TRAX|112=TEST|10=248|8=FIX.4.4|9=62|35=0|34=12|49=APAQA2_Verion4|52=20180404-12:56:54.954|56=TRAX|10=237|8=FIX.4.4|9=62|35=0|34=13|49=APAQA2_Verion4|52=20180404-12:57:25.007|56=TRAX|10=226|8=FIX.4.4|9=466|35=AE|34=14|49=APAQA2_Verion4|50=APA|57=APA|52=20180404-12:57:46.112|56=TRAX|571=TradeReport1|487=0|325=Y|423=22|748=2|55=[N/A]|48=DE000A2AAP11|22=4|32=10909|31=449890|60=20180313-00:20:13.370|552=1|54=1|1057=Y|29=5|1041=PPB-1582_016|996=Bbl|997=H|1147=100088434|1934=0|1116=2|1117=05B6OC1W7N8NJQRIYS63|1118=N|1119=116|1117=05B6OC1W7N8NJQRIYS63|1118=N|1119=1|15=EUR|120=GBP|1924=1|22600=55000|22601=EUR|854=1|231=10|2489=pack001_01|2490=1|30=KBLM|22801=1|22802=TPAC|10=173|8=FIX.4.4|9=62|35=0|34=15|49=APAQA2_Verion4|52=20180404-12:58:16.206|56=TRAX|10=230|8=FIX.4.4|9=476|35=AE|34=16|49=APAQA2_Verion4|50=APA|57=APA|52=20180404-12:58:17.340|56=TRAX|571=TradeReport1|487=0|325=Y|423=22|748=2|55=[N/A]|48=DE000A2AAP11|22=4|32=10909|31=449890|60=20180313-00:20:13.370|552=1|54=1|1057=Y|29=5|1041=PPB-1582_016|996=Bbl|997=H|1147=100088434|1934=0|1116=2|1117=05B6OC1W7N8NJQRIYS63|1118=N|1119=116|1117=05B6OC1W7N8NJQRIYS63|1118=N|1119=1|22505=USD|15=EUR|120=GBP|1924=1|22600=55000|22601=EUR|854=1|231=10|2489=pack001_01|2490=1|30=KBLM|22801=1|22802=TPAC|10=218|8=FIX.4.4|9=62|35=0|34=17|49=APAQA2_Verion4|52=20180404-12:58:47.905|56=TRAX|10=242|8=FIX.4.4|9=62|35=0|34=18|49=APAQA2_Verion4|52=20180404-12:59:17.937|56=TRAX|10=246|8=FIX.4.4|9=62|35=0|34=19|49=APAQA2_Verion4|52=20180404-12:59:47.941|56=TRAX|10=245|8=FIX.4.4|9=62|35=0|34=20|49=APAQA2_Verion4|52=20180404-13:00:18.193|56=TRAX|10=221|8=FIX.4.4|9=62|35=0|34=21|49=APAQA2_Verion4|52=20180404-13:00:48.194|56=TRAX|10=226|8=FIX.4.4|9=62|35=0|34=22|49=APAQA2_Verion4|52=20180404-13:01:19.204|56=TRAX|10=218|8=FIX.4.4|9=62|35=0|34=23|49=APAQA2_Verion4|52=20180404-13:01:49.204|56=TRAX|10=222|8=FIX.4.4|9=62|35=0|34=24|49=APAQA2_Verion4|52=20180404-13:02:19.207|56=TRAX|10=224|8=FIX.4.4|9=62|35=0|34=25|49=APAQA2_Verion4|52=20180404-13:02:50.164|56=TRAX|10=222|8=FIX.4.4|9=62|35=0|34=26|49=APAQA2_Verion4|52=20180404-13:03:20.200|56=TRAX|10=212|8=FIX.4.4|9=62|35=0|34=27|49=APAQA2_Verion4|52=20180404-13:03:50.207|56=TRAX|10=223|8=FIX.4.4|9=62|35=0|34=28|49=APAQA2_Verion4|52=20180404-13:04:21.194|56=TRAX|10=228|8=FIX.4.4|9=62|35=0|34=29|49=APAQA2_Verion4|52=20180404-13:04:51.198|56=TRAX|10=236|8=FIX.4.4|9=62|35=0|34=30|49=APAQA2_Verion4|52=20180404-13:05:22.200|56=TRAX|10=211|8=FIX.4.4|9=62|35=0|34=31|49=APAQA2_Verion4|52=20180404-13:05:53.207|56=TRAX|10=223|8=FIX.4.4|9=62|35=0|34=32|49=APAQA2_Verion4|52=20180404-13:06:24.193|56=TRAX|10=227|8=FIX.4.4|9=62|35=0|34=33|49=APAQA2_Verion4|52=20180404-13:06:54.193|56=TRAX|10=231|8=FIX.4.4|9=280|35=i|34=34|49=APAQA2_Verion4|50=APA|52=20180404-13:06:55.079|56=TRAX|57=APA|117=133617100601|296=1|302=1|304=1|295=1|299=NOVEIGHT016|48=DE000A2AAP11|22=4|22680=10.45|22683=1|134=10000|60=20171108-00:59:59.000|15=EUR|22500=4|22501=REC0012137|22503=100|22701=Y|22504=ACEX|22505=USD|10=085|8=FIX.4.4|9=270|35=i|34=35|49=APAQA2_Verion4|50=APA|52=20180404-13:07:18.196|56=TRAX|57=APA|117=133617100601|296=1|302=1|304=1|295=1|299=NOVEIGHT016|48=DE000A2AAP11|22=4|22680=10.45|22683=1|134=10000|60=20171108-00:59:59.000|15=EUR|22500=4|22501=REC0012137|22503=100|22701=Y|22504=ACEX|10=045|8=FIX.4.4|9=71|35=0|34=36|49=APAQA2_Verion4|52=20180404-13:07:39.931|56=TRAX|112=TEST|10=000|8=FIX.4.4|9=62|35=0|34=37|49=APAQA2_Verion4|52=20180404-13:08:09.942|56=TRAX|10=239|8=FIX.4.4|9=62|35=0|34=38|49=APAQA2_Verion4|52=20180404-13:08:40.169|56=TRAX|10=236|8=FIX.4.4|9=62|35=0|34=39|49=APAQA2_Verion4|52=20180404-13:09:10.194|56=TRAX|10=233|8=FIX.4.4|9=280|35=i|34=40|49=APAQA2_Verion4|50=APA|52=20180404-13:09:26.724|56=TRAX|57=APA|117=133617100601|296=1|302=1|304=1|295=1|299=NOVEIGHT016|48=DE000A2AAP11|22=4|22680=10.45|22683=1|134=10000|60=20171108-00:59:59.000|15=EUR|22500=4|22501=REC0012137|22503=100|22505=USD|22701=Y|22504=ACEX|10=080|8=FIX.4.4|9=71|35=0|34=41|49=APAQA2_Verion4|52=20180404-13:09:55.926|56=TRAX|112=TEST|10=000|8=FIX.4.4|9=62|35=0|34=42|49=APAQA2_Verion4|52=20180404-13:10:26.108|56=TRAX|10=221|8=FIX.4.4|9=62|35=0|34=43|49=APAQA2_Verion4|52=20180404-13:10:56.204|56=TRAX|10=222|8=FIX.4.4|9=62|35=0|34=44|49=APAQA2_Verion4|52=20180404-13:11:26.204|56=TRAX|10=221|8=FIX.4.4|9=62|35=0|34=45|49=APAQA2_Verion4|52=20180404-13:11:56.205|56=TRAX|10=226|8=FIX.4.4|9=62|35=0|34=46|49=APAQA2_Verion4|52=20180404-13:12:27.197|56=TRAX|10=236|8=FIX.4.4|9=62|35=0|34=47|49=APAQA2_Verion4|52=20180404-13:12:57.204|56=TRAX|10=229|8=FIX.4.4|9=62|35=0|34=48|49=APAQA2_Verion4|52=20180404-13:13:28.197|56=TRAX|10=240|8=FIX.4.4|9=62|35=0|34=49|49=APAQA2_Verion4|52=20180404-13:13:59.199|56=TRAX|10=247|8=FIX.4.4|9=62|35=0|34=50|49=APAQA2_Verion4|52=20180404-13:14:29.202|56=TRAX|10=222|8=FIX.4.4|9=62|35=0|34=51|49=APAQA2_Verion4|52=20180404-13:14:59.208|56=TRAX|10=232|8=FIX.4.4|9=62|35=0|34=52|49=APAQA2_Verion4|52=20180404-13:15:30.196|56=TRAX|10=229|8=FIX.4.4|9=62|35=0|34=53|49=APAQA2_Verion4|52=20180404-13:16:00.196|56=TRAX|10=228|8=FIX.4.4|9=62|35=0|34=54|49=APAQA2_Verion4|52=20180404-13:16:30.197|56=TRAX|10=233|8=FIX.4.4|9=62|35=0|34=55|49=APAQA2_Verion4|52=20180404-13:17:01.167|56=TRAX|10=230|8=FIX.4.4|9=62|35=0|34=56|49=APAQA2_Verion4|52=20180404-13:17:31.205|56=TRAX|10=227|8=FIX.4.4|9=62|35=0|34=57|49=APAQA2_Verion4|52=20180404-13:18:02.206|56=TRAX|10=228|8=FIX.4.4|9=62|35=0|34=58|49=APAQA2_Verion4|52=20180404-13:18:32.207|56=TRAX|10=233|8=FIX.4.4|9=62|35=0|34=59|49=APAQA2_Verion4|52=20180404-13:19:03.205|56=TRAX|10=231|8=FIX.4.4|9=62|35=0|34=60|49=APAQA2_Verion4|52=20180404-13:19:34.207|56=TRAX|10=229|8=FIX.4.4|9=62|35=0|34=61|49=APAQA2_Verion4|52=20180404-13:20:04.208|56=TRAX|10=220|8=FIX.4.4|9=62|35=0|34=62|49=APAQA2_Verion4|52=20180404-13:20:35.207|56=TRAX|10=224|8=FIX.4.4|9=62|35=0|34=63|49=APAQA2_Verion4|52=20180404-13:21:05.209|56=TRAX|10=225|8=FIX.4.4|9=62|35=0|34=64|49=APAQA2_Verion4|52=20180404-13:21:35.209|56=TRAX|10=229|8=FIX.4.4|9=62|35=0|34=65|49=APAQA2_Verion4|52=20180404-13:22:06.197|56=TRAX|10=235|8=FIX.4.4|9=62|35=0|34=66|49=APAQA2_Verion4|52=20180404-13:22:37.209|56=TRAX|10=234|8=FIX.4.4|9=62|35=0|34=67|49=APAQA2_Verion4|52=20180404-13:23:07.210|56=TRAX|10=225|8=FIX.4.4|9=62|35=0|34=68|49=APAQA2_Verion4|52=20180404-13:23:37.211|56=TRAX|10=230|8=FIX.4.4|9=62|35=0|34=69|49=APAQA2_Verion4|52=20180404-13:24:07.212|56=TRAX|10=230|8=FIX.4.4|9=62|35=0|34=70|49=APAQA2_Verion4|52=20180404-13:24:38.210|56=TRAX|10=224|8=FIX.4.4|9=62|35=0|34=71|49=APAQA2_Verion4|52=20180404-13:25:09.199|56=TRAX|10=240|8=FIX.4.4|9=62|35=0|34=72|49=APAQA2_Verion4|52=20180404-13:25:39.199|56=TRAX|10=244|8=FIX.4.4|9=62|35=0|34=73|49=APAQA2_Verion4|52=20180404-13:26:09.199|56=TRAX|10=243|8=FIX.4.4|9=62|35=0|34=74|49=APAQA2_Verion4|52=20180404-13:26:39.199|56=TRAX|10=247|8=FIX.4.4|9=62|35=0|34=75|49=APAQA2_Verion4|52=20180404-13:27:09.202|56=TRAX|10=231|8=FIX.4.4|9=62|35=0|34=76|49=APAQA2_Verion4|52=20180404-13:27:40.210|56=TRAX|10=226|8=FIX.4.4|9=62|35=0|34=77|49=APAQA2_Verion4|52=20180404-13:28:11.205|56=TRAX|10=230|8=FIX.4.4|9=62|35=0|34=78|49=APAQA2_Verion4|52=20180404-13:28:42.204|56=TRAX|10=234|8=FIX.4.4|9=62|35=0|34=79|49=APAQA2_Verion4|52=20180404-13:29:13.199|56=TRAX|10=247|8=FIX.4.4|9=62|35=0|34=80|49=APAQA2_Verion4|52=20180404-13:29:44.199|56=TRAX|10=243|8=FIX.4.4|9=62|35=0|34=81|49=APAQA2_Verion4|52=20180404-13:30:15.212|56=TRAX|10=220|8=FIX.4.4|9=62|35=0|34=82|49=APAQA2_Verion4|52=20180404-13:30:46.213|56=TRAX|10=226|8=FIX.4.4|9=62|35=0|34=83|49=APAQA2_Verion4|52=20180404-13:31:17.199|56=TRAX|10=239|8=FIX.4.4|9=62|35=0|34=84|49=APAQA2_Verion4|52=20180404-13:31:47.213|56=TRAX|10=230|8=FIX.4.4|9=62|35=0|34=85|49=APAQA2_Verion4|52=20180404-13:32:18.199|56=TRAX|10=243|8=FIX.4.4|9=62|35=0|34=86|49=APAQA2_Verion4|52=20180404-13:32:48.199|56=TRAX|10=247|8=FIX.4.4|9=62|35=0|34=87|49=APAQA2_Verion4|52=20180404-13:33:18.205|56=TRAX|10=234|8=FIX.4.4|9=62|35=0|34=88|49=APAQA2_Verion4|52=20180404-13:33:49.210|56=TRAX|10=235|8=FIX.4.4|9=62|35=0|34=89|49=APAQA2_Verion4|52=20180404-13:34:19.212|56=TRAX|10=236|8=FIX.4.4|9=62|35=0|34=90|49=APAQA2_Verion4|52=20180404-13:34:50.204|56=TRAX|10=224|8=FIX.4.4|9=62|35=0|34=91|49=APAQA2_Verion4|52=20180404-13:35:20.211|56=TRAX|10=221|8=FIX.4.4|9=62|35=0|34=92|49=APAQA2_Verion4|52=20180404-13:35:50.215|56=TRAX|10=229|8=FIX.4.4|9=62|35=0|34=93|49=APAQA2_Verion4|52=20180404-13:36:21.205|56=TRAX|10=228|8=FIX.4.4|9=62|35=0|34=94|49=APAQA2_Verion4|52=20180404-13:36:52.213|56=TRAX|10=232|8=FIX.4.4|9=62|35=0|34=95|49=APAQA2_Verion4|52=20180404-13:37:22.213|56=TRAX|10=231|8=FIX.4.4|9=62|35=0|34=96|49=APAQA2_Verion4|52=20180404-13:37:52.214|56=TRAX|10=236|8=FIX.4.4|9=62|35=0|34=97|49=APAQA2_Verion4|52=20180404-13:38:23.212|56=TRAX|10=234|8=FIX.4.4|9=62|35=0|34=98|49=APAQA2_Verion4|52=20180404-13:38:54.193|56=TRAX|10=247|8=FIX.4.4|9=62|35=0|34=99|49=APAQA2_Verion4|52=20180404-13:39:25.193|56=TRAX|10=247|8=FIX.4.4|9=63|35=0|34=100|49=APAQA2_Verion4|52=20180404-13:39:55.195|56=TRAX|10=028|8=FIX.4.4|9=63|35=0|34=101|49=APAQA2_Verion4|52=20180404-13:40:25.197|56=TRAX|10=020|8=FIX.4.4|9=63|35=0|34=102|49=APAQA2_Verion4|52=20180404-13:40:55.198|56=TRAX|10=025|8=FIX.4.4|9=63|35=0|34=103|49=APAQA2_Verion4|52=20180404-13:41:26.196|56=TRAX|10=023|8=FIX.4.4|9=63|35=0|34=104|49=APAQA2_Verion4|52=20180404-13:41:57.191|56=TRAX|10=023|8=FIX.4.4|9=63|35=0|34=105|49=APAQA2_Verion4|52=20180404-13:42:27.191|56=TRAX|10=022|8=FIX.4.4|9=63|35=0|34=106|49=APAQA2_Verion4|52=20180404-13:42:57.191|56=TRAX|10=026|8=FIX.4.4|9=63|35=0|34=107|49=APAQA2_Verion4|52=20180404-13:43:27.192|56=TRAX|10=026|8=FIX.4.4|9=63|35=0|34=108|49=APAQA2_Verion4|52=20180404-13:43:57.192|56=TRAX|10=030|8=FIX.4.4|9=63|35=0|34=109|49=APAQA2_Verion4|52=20180404-13:44:27.192|56=TRAX|10=029|8=FIX.4.4|9=63|35=0|34=110|49=APAQA2_Verion4|52=20180404-13:44:57.192|56=TRAX|10=024|8=FIX.4.4|9=63|35=0|34=111|49=APAQA2_Verion4|52=20180404-13:45:27.192|56=TRAX|10=023|8=FIX.4.4|9=63|35=0|34=112|49=APAQA2_Verion4|52=20180404-13:45:58.174|56=TRAX|10=028|8=FIX.4.4|9=63|35=0|34=113|49=APAQA2_Verion4|52=20180404-13:46:29.173|56=TRAX|10=027|8=FIX.4.4|9=63|35=0|34=114|49=APAQA2_Verion4|52=20180404-13:46:59.190|56=TRAX|10=030|8=FIX.4.4|9=63|35=0|34=115|49=APAQA2_Verion4|52=20180404-13:47:29.192|56=TRAX|10=031|8=FIX.4.4|9=63|35=0|34=116|49=APAQA2_Verion4|52=20180404-13:47:59.196|56=TRAX|10=039|8=FIX.4.4|9=63|35=0|34=117|49=APAQA2_Verion4|52=20180404-13:48:29.196|56=TRAX|10=038|8=FIX.4.4|9=63|35=0|34=118|49=APAQA2_Verion4|52=20180404-13:48:59.196|56=TRAX|10=042|8=FIX.4.4|9=63|35=0|34=119|49=APAQA2_Verion4|52=20180404-13:49:29.196|56=TRAX|10=041|8=FIX.4.4|9=63|35=0|34=120|49=APAQA2_Verion4|52=20180404-13:50:00.173|56=TRAX|10=009|8=FIX.4.4|9=63|35=0|34=121|49=APAQA2_Verion4|52=20180404-13:50:31.172|56=TRAX|10=013|8=FIX.4.4|9=63|35=0|34=122|49=APAQA2_Verion4|52=20180404-13:51:02.171|56=TRAX|10=012|8=FIX.4.4|9=63|35=0|34=123|49=APAQA2_Verion4|52=20180404-13:51:33.170|56=TRAX|10=016|8=FIX.4.4|9=63|35=0|34=124|49=APAQA2_Verion4|52=20180404-13:52:03.170|56=TRAX|10=015|8=FIX.4.4|9=63|35=0|34=125|49=APAQA2_Verion4|52=20180404-13:52:33.187|56=TRAX|10=027|8=FIX.4.4|9=63|35=0|34=126|49=APAQA2_Verion4|52=20180404-13:53:03.187|56=TRAX|10=026|8=FIX.4.4|9=63|35=0|34=127|49=APAQA2_Verion4|52=20180404-13:53:33.187|56=TRAX|10=030|8=FIX.4.4|9=63|35=0|34=128|49=APAQA2_Verion4|52=20180404-13:54:03.199|56=TRAX|10=032|8=FIX.4.4|9=63|35=0|34=129|49=APAQA2_Verion4|52=20180404-13:54:34.210|56=TRAX|10=021|8=FIX.4.4|9=63|35=0|34=130|49=APAQA2_Verion4|52=20180404-13:55:05.206|56=TRAX|10=017|8=FIX.4.4|9=63|35=0|34=131|49=APAQA2_Verion4|52=20180404-13:55:35.212|56=TRAX|10=018|8=FIX.4.4|9=63|35=0|34=132|49=APAQA2_Verion4|52=20180404-13:56:06.169|56=TRAX|10=029|8=FIX.4.4|9=63|35=0|34=133|49=APAQA2_Verion4|52=20180404-13:56:36.203|56=TRAX|10=022|8=FIX.4.4|9=63|35=0|34=134|49=APAQA2_Verion4|52=20180404-13:57:07.209|56=TRAX|10=028|8=FIX.4.4|9=63|35=0|34=135|49=APAQA2_Verion4|52=20180404-13:57:37.209|56=TRAX|10=032|8=FIX.4.4|9=63|35=0|34=136|49=APAQA2_Verion4|52=20180404-13:58:07.209|56=TRAX|10=031|8=FIX.4.4|9=63|35=0|34=137|49=APAQA2_Verion4|52=20180404-13:58:37.210|56=TRAX|10=027|8=FIX.4.4|9=63|35=0|34=138|49=APAQA2_Verion4|52=20180404-13:59:07.211|56=TRAX|10=027|8=FIX.4.4|9=63|35=0|34=139|49=APAQA2_Verion4|52=20180404-13:59:38.200|56=TRAX|10=030|8=FIX.4.4|9=63|35=0|34=140|49=APAQA2_Verion4|52=20180404-14:00:08.202|56=TRAX|10=008|8=FIX.4.4|9=63|35=0|34=141|49=APAQA2_Verion4|52=20180404-14:00:38.210|56=TRAX|10=011|8=FIX.4.4|9=63|35=0|34=142|49=APAQA2_Verion4|52=20180404-14:01:09.215|56=TRAX|10=016|8=FIX.4.4|9=63|35=0|34=143|49=APAQA2_Verion4|52=20180404-14:01:40.212|56=TRAX|10=009|8=FIX.4.4|9=63|35=0|34=144|49=APAQA2_Verion4|52=20180404-14:02:11.206|56=TRAX|10=012|8=FIX.4.4|9=63|35=0|34=145|49=APAQA2_Verion4|52=20180404-14:02:42.201|56=TRAX|10=012|8=FIX.4.4|9=63|35=0|34=146|49=APAQA2_Verion4|52=20180404-14:03:12.201|56=TRAX|10=011|8=FIX.4.4|9=63|35=0|34=147|49=APAQA2_Verion4|52=20180404-14:03:42.206|56=TRAX|10=020|8=FIX.4.4|9=63|35=0|34=148|49=APAQA2_Verion4|52=20180404-14:04:13.195|56=TRAX|10=027|8=FIX.4.4|9=63|35=0|34=149|49=APAQA2_Verion4|52=20180404-14:04:43.204|56=TRAX|10=022|8=FIX.4.4|9=63|35=0|34=150|49=APAQA2_Verion4|52=20180404-14:05:13.210|56=TRAX|10=009|8=FIX.4.4|9=63|35=0|34=151|49=APAQA2_Verion4|52=20180404-14:05:43.212|56=TRAX|10=015|8=FIX.4.4|9=63|35=0|34=152|49=APAQA2_Verion4|52=20180404-14:06:13.213|56=TRAX|10=015|8=FIX.4.4|9=63|35=0|34=153|49=APAQA2_Verion4|52=20180404-14:06:43.955|56=TRAX|10=032|8=FIX.4.4|9=63|35=0|34=154|49=APAQA2_Verion4|52=20180404-14:07:14.012|56=TRAX|10=016|8=FIX.4.4|9=63|35=0|34=155|49=APAQA2_Verion4|52=20180404-14:07:44.212|56=TRAX|10=022|8=FIX.4.4|9=63|35=0|34=156|49=APAQA2_Verion4|52=20180404-14:08:14.214|56=TRAX|10=023|8=FIX.4.4|9=63|35=0|34=157|49=APAQA2_Verion4|52=20180404-14:08:45.203|56=TRAX|10=026|8=FIX.4.4|9=63|35=0|34=158|49=APAQA2_Verion4|52=20180404-14:09:15.204|56=TRAX|10=026|8=FIX.4.4|9=63|35=0|34=159|49=APAQA2_Verion4|52=20180404-14:09:45.208|56=TRAX|10=034|8=FIX.4.4|9=63|35=0|34=160|49=APAQA2_Verion4|52=20180404-14:10:15.216|56=TRAX|10=014|8=FIX.4.4|9=63|35=0|34=161|49=APAQA2_Verion4|52=20180404-14:10:45.216|56=TRAX|10=018|8=FIX.4.4|9=63|35=0|34=162|49=APAQA2_Verion4|52=20180404-14:11:16.207|56=TRAX|10=018|8=FIX.4.4|9=63|35=0|34=163|49=APAQA2_Verion4|52=20180404-14:11:47.212|56=TRAX|10=019|8=FIX.4.4|9=63|35=0|34=164|49=APAQA2_Verion4|52=20180404-14:12:18.215|56=TRAX|10=022|8=FIX.4.4|9=63|35=0|34=165|49=APAQA2_Verion4|52=20180404-14:12:49.214|56=TRAX|10=026|8=FIX.4.4|9=63|35=0|34=166|49=APAQA2_Verion4|52=20180404-14:13:19.216|56=TRAX|10=027|8=FIX.4.4|9=63|35=0|34=167|49=APAQA2_Verion4|52=20180404-14:13:49.216|56=TRAX|10=031|8=FIX.4.4|9=63|35=0|34=168|49=APAQA2_Verion4|52=20180404-14:14:20.206|56=TRAX|10=021|8=FIX.4.4|9=63|35=0|34=169|49=APAQA2_Verion4|52=20180404-14:14:50.210|56=TRAX|10=020|8=FIX.4.4|9=63|35=0|34=170|49=APAQA2_Verion4|52=20180404-14:15:20.210|56=TRAX|10=010|8=FIX.4.4|9=63|35=0|34=171|49=APAQA2_Verion4|52=20180404-14:15:50.216|56=TRAX|10=020|8=FIX.4.4|9=63|35=0|34=172|49=APAQA2_Verion4|52=20180404-14:16:21.206|56=TRAX|10=019|8=FIX.4.4|9=63|35=0|34=173|49=APAQA2_Verion4|52=20180404-14:16:51.206|56=TRAX|10=023|8=FIX.4.4|9=309|35=AE|34=174|49=APAQA2_Verion4|50=APA|57=APA|52=20180404-14:16:57.697|56=TRAX|571=TradeReport1|487=0|325=Y|423=22|55=[N/A]|48=DE000A2AAP11|22=4|32=869.09|31=8498.90|60=20180313-00:20:13.370|552=1|54=1|29=5|1041=PPB-1582_054|996=Bbl|997=H|1147=100088434|1934=0|1116=3|1117=05B6OC1W7N8NJQRIYS63|1118=N|1119=116|10=020|8=FIX.4.4|9=63|35=0|34=175|49=APAQA2_Verion4|52=20180404-14:17:27.958|56=TRAX|10=043|8=FIX.4.4|9=455|35=AE|34=176|49=APAQA2_Verion4|50=APA|57=APA|52=20180404-14:17:37.034|56=TRAX|571=TradeReport1|487=0|325=Y|423=22|55=[N/A]|48=DE000A2AAP11|22=4|32=869.09|31=8498.90|60=20180313-00:20:13.370|552=1|54=1|29=5|1041=PPB-1582_054|996=Bbl|997=H|1147=100088434|1934=0|15=EUR|120=GBP|1924=1|22600=55000|22601=EUR|854=1|231=10|30=KBLM|1116=3|1117=05B6OC1W7N8NJQRIYS63|1118=N|1119=116|1117=05B6OC1W7N8NJQRIYS63|1118=N|1119=1|1117=4PQUHN3JPFGFNF3BB653|1118=N|1119=17|10=229|8=FIX.4.4|9=455|35=AE|34=177|49=APAQA2_Verion4|50=APA|57=APA|52=20180404-14:17:49.057|56=TRAX|571=TradeReport1|487=0|325=Y|423=22|55=[N/A]|48=DE000A2AAP11|22=4|32=869.09|31=8498.90|60=20180313-00:20:13.370|552=1|54=1|29=5|1041=PPB-1582_055|996=Bbl|997=H|1147=100088434|1934=0|15=EUR|120=GBP|1924=1|22600=55000|22601=EUR|854=1|231=10|30=KBLM|1116=3|1117=05B6OC1W7N8NJQRIYS63|1118=N|1119=116|1117=05B6OC1W7N8NJQRIYS63|1118=N|1119=1|1117=4PQUHN3JPFGFNF3BB653|1118=N|1119=17|10=239|8=FIX.4.4|9=63|35=0|34=178|49=APAQA2_Verion4|52=20180404-14:18:19.217|56=TRAX|10=036|8=FIX.4.4|9=63|35=0|34=179|49=APAQA2_Verion4|52=20180404-14:18:50.209|56=TRAX|10=033|8=FIX.4.4|9=63|35=0|34=180|49=APAQA2_Verion4|52=20180404-14:19:20.211|56=TRAX|10=016|8=FIX.4.4|9=455|35=AE|34=181|49=APAQA2_Verion4|50=APA|57=APA|52=20180404-14:19:44.704|56=TRAX|571=TradeReport1|487=0|325=Y|423=22|55=[N/A]|48=DE000A2AAP11|22=4|32=869.09|31=8498.90|60=20180313-00:20:13.370|552=1|54=1|29=5|1041=PPB-1582_056|996=Bbl|997=H|1147=100088434|1934=0|15=EUR|120=GBP|1924=1|22600=55000|22601=EUR|854=1|231=10|30=KBLM|1116=3|1117=05B6OC1W7N8NJQRIYS63|1118=N|1119=116|1117=05B6OC1W7N8NJQRIYS63|1118=N|1119=1|1117=05B6OC1W7N8NJQRIYS63|1118=N|1119=17|10=235|8=FIX.4.4|9=63|35=0|34=182|49=APAQA2_Verion4|52=20180404-14:20:15.210|56=TRAX|10=013|8=FIX.4.4|9=63|35=0|34=183|49=APAQA2_Verion4|52=20180404-14:20:45.959|56=TRAX|10=037|8=FIX.4.4|9=63|35=0|34=184|49=APAQA2_Verion4|52=20180404-14:21:16.205|56=TRAX|10=021|8=FIX.4.4|9=414|35=AE|34=185|49=APAQA2_Verion4|50=APA|57=APA|52=20180404-14:21:35.453|56=TRAX|571=TradeReport1|487=0|325=Y|423=22|55=[N/A]|48=DE000A2AAP11|22=4|32=869.09|31=8498.90|60=20180313-00:20:13.370|552=1|54=1|29=5|1041=PPB-1582_057|996=Bbl|997=H|1147=100088434|1934=0|15=EUR|120=GBP|1924=1|22600=55000|22601=EUR|854=1|231=10|30=KBLM|1116=2|1117=05B6OC1W7N8NJQRIYS63|1118=N|1119=116|1117=05B6OC1W7N8NJQRIYS63|1118=N|1119=1|10=198|8=FIX.4.4|9=63|35=0|34=186|49=APAQA2_Verion4|52=20180404-14:22:06.217|56=TRAX|10=026|8=FIX.4.4|9=63|35=0|34=187|49=APAQA2_Verion4|52=20180404-14:22:37.214|56=TRAX|10=028|8=FIX.4.4|9=63|35=0|34=188|49=APAQA2_Verion4|52=20180404-14:23:08.219|56=TRAX|10=033|8=FIX.4.4|9=63|35=0|34=189|49=APAQA2_Verion4|52=20180404-14:23:38.220|56=TRAX|10=029|8=FIX.4.4|9=63|35=0|34=190|49=APAQA2_Verion4|52=20180404-14:24:09.212|56=TRAX|10=021|8=FIX.4.4|9=63|35=0|34=191|49=APAQA2_Verion4|52=20180404-14:24:40.220|56=TRAX|10=016|8=FIX.4.4|9=63|35=0|34=192|49=APAQA2_Verion4|52=20180404-14:25:11.216|56=TRAX|10=021|8=FIX.4.4|9=63|35=0|34=193|49=APAQA2_Verion4|52=20180404-14:25:42.209|56=TRAX|10=028|8=FIX.4.4|9=63|35=0|34=194|49=APAQA2_Verion4|52=20180404-14:26:12.210|56=TRAX|10=019|8=FIX.4.4|9=63|35=0|34=195|49=APAQA2_Verion4|52=20180404-14:26:42.210|56=TRAX|10=023|8=FIX.4.4|9=63|35=0|34=196|49=APAQA2_Verion4|52=20180404-14:27:12.210|56=TRAX|10=022|8=FIX.4.4|9=63|35=0|34=197|49=APAQA2_Verion4|52=20180404-14:27:42.210|56=TRAX|10=026|8=FIX.4.4|9=63|35=0|34=198|49=APAQA2_Verion4|52=20180404-14:28:12.215|56=TRAX|10=030|8=FIX.4.4|9=63|35=0|34=199|49=APAQA2_Verion4|52=20180404-14:28:42.216|56=TRAX|10=035|8=FIX.4.4|9=63|35=0|34=200|49=APAQA2_Verion4|52=20180404-14:29:13.214|56=TRAX|10=015|8=FIX.4.4|9=63|35=0|34=201|49=APAQA2_Verion4|52=20180404-14:29:43.217|56=TRAX|10=022|8=FIX.4.4|9=63|35=0|34=202|49=APAQA2_Verion4|52=20180404-14:30:14.182|56=TRAX|10=014|8=FIX.4.4|9=63|35=0|34=203|49=APAQA2_Verion4|52=20180404-14:30:44.219|56=TRAX|10=019|8=FIX.4.4|9=63|35=0|34=204|49=APAQA2_Verion4|52=20180404-14:31:15.181|56=TRAX|10=017|8=FIX.4.4|9=63|35=0|34=205|49=APAQA2_Verion4|52=20180404-14:31:45.218|56=TRAX|10=022|8=FIX.4.4|9=63|35=0|34=206|49=APAQA2_Verion4|52=20180404-14:32:15.224|56=TRAX|10=018|8=FIX.4.4|9=63|35=0|34=207|49=APAQA2_Verion4|52=20180404-14:32:46.215|56=TRAX|10=023|8=FIX.4.4|9=63|35=0|34=208|49=APAQA2_Verion4|52=20180404-14:33:17.217|56=TRAX|10=025|8=FIX.4.4|9=63|35=0|34=209|49=APAQA2_Verion4|52=20180404-14:33:47.219|56=TRAX|10=031|8=FIX.4.4|9=63|35=0|34=210|49=APAQA2_Verion4|52=20180404-14:34:18.211|56=TRAX|10=014|8=FIX.4.4|9=63|35=0|34=211|49=APAQA2_Verion4|52=20180404-14:34:48.223|56=TRAX|10=021|8=FIX.4.4|9=63|35=0|34=212|49=APAQA2_Verion4|52=20180404-14:35:18.224|56=TRAX|10=021|8=FIX.4.4|9=63|35=0|34=213|49=APAQA2_Verion4|52=20180404-14:35:49.217|56=TRAX|10=028|8=FIX.4.4|9=63|35=0|34=214|49=APAQA2_Verion4|52=20180404-14:36:20.216|56=TRAX|10=018|8=FIX.4.4|9=63|35=0|34=215|49=APAQA2_Verion4|52=20180404-14:36:50.224|56=TRAX|10=021|8=FIX.4.4|9=477|35=AE|34=216|49=APAQA2_Verion4|50=APA|57=APA|52=20180404-14:36:56.802|56=TRAX|571=TradeReport1|487=0|325=Y|423=22|748=2|55=[N/A]|48=DE000A2AAP11|22=4|32=10909|31=449890|60=20180313-00:20:13.370|552=1|54=1|1057=Y|29=5|1041=PPB-1582_016|996=Bbl|997=H|1147=100088434|22505=usd|1934=0|1116=2|1117=05B6OC1W7N8NJQRIYS63|1118=N|1119=116|1117=05B6OC1W7N8NJQRIYS63|1118=N|1119=1|15=EUR|120=GBP|1924=1|22600=55000|22601=EUR|854=1|231=10|2489=pack001_01|2490=1|30=KBLM|22801=1|22802=TPAC|10=113|8=FIX.4.4|9=467|35=AE|34=217|49=APAQA2_Verion4|50=APA|57=APA|52=20180404-14:37:05.365|56=TRAX|571=TradeReport1|487=0|325=Y|423=22|748=2|55=[N/A]|48=DE000A2AAP11|22=4|32=10909|31=449890|60=20180313-00:20:13.370|552=1|54=1|1057=Y|29=5|1041=PPB-1582_016|996=Bbl|997=H|1147=100088434|1934=0|1116=2|1117=05B6OC1W7N8NJQRIYS63|1118=N|1119=116|1117=05B6OC1W7N8NJQRIYS63|1118=N|1119=1|15=EUR|120=GBP|1924=1|22600=55000|22601=EUR|854=1|231=10|2489=pack001_01|2490=1|30=KBLM|22801=1|22802=TPAC|10=232|8=FIX.4.4|9=477|35=AE|34=218|49=APAQA2_Verion4|50=APA|57=APA|52=20180404-14:37:24.290|56=TRAX|571=TradeReport1|487=0|325=Y|423=22|748=2|55=[N/A]|48=DE000A2AAP11|22=4|32=10909|31=449890|60=20180313-00:20:13.370|552=1|54=1|1057=Y|29=5|1041=PPB-1582_017|996=Bbl|997=H|1147=100088434|1934=0|1116=2|1117=05B6OC1W7N8NJQRIYS63|1118=N|1119=116|1117=05B6OC1W7N8NJQRIYS63|1118=N|1119=1|15=EUR|120=GBP|1924=1|22600=55000|22601=EUR|854=1|231=10|2489=pack001_01|22505=USD|2490=1|30=KBLM|22801=1|22802=TPAC|10=017|8=FIX.4.4|9=72|35=0|34=219|49=APAQA2_Verion4|52=20180404-14:37:50.941|56=TRAX|112=TEST|10=050|8=FIX.4.4|9=63|35=0|34=220|49=APAQA2_Verion4|52=20180404-14:38:21.212|56=TRAX|10=014|8=FIX.4.4|9=81|35=5|34=221|49=APAQA2_Verion4|52=20180404-14:38:40.225|56=TRAX|58=user requested|10=117|8=FIX.4.4|9=96|35=A|34=1|49=APAQA2_Verion4|52=20180409-08:16:08.871|56=TRAX|98=0|108=30|95=8|96=2.0.0rc4|141=Y|10=164|8=FIX.4.4|9=61|35=0|34=2|49=APAQA2_Verion4|52=20180409-08:16:39.863|56=TRAX|10=195|8=FIX.4.4|9=61|35=0|34=3|49=APAQA2_Verion4|52=20180409-08:17:09.872|56=TRAX|10=194|8=FIX.4.4|9=61|35=0|34=4|49=APAQA2_Verion4|52=20180409-08:17:39.872|56=TRAX|10=198|8=FIX.4.4|9=61|35=0|34=5|49=APAQA2_Verion4|52=20180409-08:18:09.872|56=TRAX|10=197|8=FIX.4.4|9=61|35=0|34=6|49=APAQA2_Verion4|52=20180409-08:18:39.875|56=TRAX|10=204|8=FIX.4.4|9=61|35=0|34=7|49=APAQA2_Verion4|52=20180409-08:19:09.877|56=TRAX|10=205|8=FIX.4.4|9=61|35=0|34=8|49=APAQA2_Verion4|52=20180409-08:19:40.876|56=TRAX|10=200|8=FIX.4.4|9=61|35=0|34=9|49=APAQA2_Verion4|52=20180409-08:20:10.878|56=TRAX|10=192|8=FIX.4.4|9=62|35=0|34=10|49=APAQA2_Verion4|52=20180409-08:20:41.872|56=TRAX|10=231|8=FIX.4.4|9=62|35=0|34=11|49=APAQA2_Verion4|52=20180409-08:21:11.881|56=TRAX|10=230|8=FIX.4.4|9=62|35=0|34=12|49=APAQA2_Verion4|52=20180409-08:21:42.043|56=TRAX|10=225|8=FIX.4.4|9=62|35=0|34=13|49=APAQA2_Verion4|52=20180409-08:22:12.046|56=TRAX|10=227|8=FIX.4.4|9=62|35=0|34=14|49=APAQA2_Verion4|52=20180409-08:22:42.048|56=TRAX|10=233|8=FIX.4.4|9=62|35=0|34=15|49=APAQA2_Verion4|52=20180409-08:23:12.878|56=TRAX|10=243|8=FIX.4.4|9=62|35=0|34=16|49=APAQA2_Verion4|52=20180409-08:23:43.873|56=TRAX|10=243|8=FIX.4.4|9=62|35=0|34=17|49=APAQA2_Verion4|52=20180409-08:24:13.883|56=TRAX|10=243|8=FIX.4.4|9=62|35=0|34=18|49=APAQA2_Verion4|52=20180409-08:24:44.842|56=TRAX|10=243|8=FIX.4.4|9=62|35=0|34=19|49=APAQA2_Verion4|52=20180409-08:25:14.843|56=TRAX|10=243|8=FIX.4.4|9=62|35=0|34=20|49=APAQA2_Verion4|52=20180409-08:25:44.878|56=TRAX|10=246|8=FIX.4.4|9=62|35=0|34=21|49=APAQA2_Verion4|52=20180409-08:26:15.885|56=TRAX|10=244|8=FIX.4.4|9=62|35=0|34=22|49=APAQA2_Verion4|52=20180409-08:26:45.889|56=TRAX|10=252|8=FIX.4.4|9=62|35=0|34=23|49=APAQA2_Verion4|52=20180409-08:27:16.879|56=TRAX|10=251|8=FIX.4.4|9=62|35=0|34=24|49=APAQA2_Verion4|52=20180409-08:27:46.889|56=TRAX|10=000|8=FIX.4.4|9=62|35=0|34=25|49=APAQA2_Verion4|52=20180409-08:28:17.883|56=TRAX|10=250|8=FIX.4.4|9=62|35=0|34=26|49=APAQA2_Verion4|52=20180409-08:28:48.877|56=TRAX|10=002|8=FIX.4.4|9=62|35=0|34=27|49=APAQA2_Verion4|52=20180409-08:29:18.890|56=TRAX|10=252|8=FIX.4.4|9=62|35=0|34=28|49=APAQA2_Verion4|52=20180409-08:29:49.880|56=TRAX|10=000|8=FIX.4.4|9=62|35=0|34=29|49=APAQA2_Verion4|52=20180409-08:30:19.890|56=TRAX|10=247|8=FIX.4.4|9=62|35=0|34=30|49=APAQA2_Verion4|52=20180409-08:30:50.881|56=TRAX|10=234|8=FIX.4.4|9=62|35=0|34=31|49=APAQA2_Verion4|52=20180409-08:31:20.886|56=TRAX|10=238|8=FIX.4.4|9=62|35=0|34=32|49=APAQA2_Verion4|52=20180409-08:31:50.890|56=TRAX|10=237|8=FIX.4.4|9=62|35=0|34=33|49=APAQA2_Verion4|52=20180409-08:32:21.884|56=TRAX|10=240|8=FIX.4.4|9=62|35=0|34=34|49=APAQA2_Verion4|52=20180409-08:32:52.884|56=TRAX|10=245|8=FIX.4.4|9=62|35=0|34=35|49=APAQA2_Verion4|52=20180409-08:33:22.892|56=TRAX|10=243|8=FIX.4.4|9=62|35=0|34=36|49=APAQA2_Verion4|52=20180409-08:33:53.890|56=TRAX|10=246|8=FIX.4.4|9=62|35=0|34=37|49=APAQA2_Verion4|52=20180409-08:34:23.895|56=TRAX|10=250|8=FIX.4.4|9=62|35=0|34=38|49=APAQA2_Verion4|52=20180409-08:34:54.881|56=TRAX|10=250|8=FIX.4.4|9=62|35=0|34=39|49=APAQA2_Verion4|52=20180409-08:35:24.892|56=TRAX|10=251|8=FIX.4.4|9=62|35=0|34=40|49=APAQA2_Verion4|52=20180409-08:35:54.895|56=TRAX|10=249|8=FIX.4.4|9=62|35=0|34=41|49=APAQA2_Verion4|52=20180409-08:36:25.891|56=TRAX|10=245|8=FIX.4.4|9=62|35=0|34=42|49=APAQA2_Verion4|52=20180409-08:36:55.895|56=TRAX|10=253|8=FIX.4.4|9=62|35=0|34=43|49=APAQA2_Verion4|52=20180409-08:37:25.898|56=TRAX|10=255|8=FIX.4.4|9=62|35=0|34=44|49=APAQA2_Verion4|52=20180409-08:37:55.898|56=TRAX|10=003|8=FIX.4.4|9=62|35=0|34=45|49=APAQA2_Verion4|52=20180409-08:38:26.867|56=TRAX|10=255|8=FIX.4.4|9=62|35=0|34=46|49=APAQA2_Verion4|52=20180409-08:38:56.892|56=TRAX|10=001|8=FIX.4.4|9=62|35=0|34=47|49=APAQA2_Verion4|52=20180409-08:39:27.859|56=TRAX|10=004|8=FIX.4.4|9=62|35=0|34=48|49=APAQA2_Verion4|52=20180409-08:39:57.897|56=TRAX|10=010|8=FIX.4.4|9=62|35=0|34=49|49=APAQA2_Verion4|52=20180409-08:40:28.887|56=TRAX|10=000|8=FIX.4.4|9=62|35=0|34=50|49=APAQA2_Verion4|52=20180409-08:40:58.889|56=TRAX|10=253|8=FIX.4.4|9=62|35=0|34=51|49=APAQA2_Verion4|52=20180409-08:41:28.902|56=TRAX|10=238|8=FIX.4.4|9=62|35=0|34=52|49=APAQA2_Verion4|52=20180409-08:41:59.901|56=TRAX|10=242|8=FIX.4.4|9=62|35=0|34=53|49=APAQA2_Verion4|52=20180409-08:42:29.901|56=TRAX|10=241|8=FIX.4.4|9=62|35=0|34=54|49=APAQA2_Verion4|52=20180409-08:43:00.890|56=TRAX|10=239|8=FIX.4.4|9=62|35=0|34=55|49=APAQA2_Verion4|52=20180409-08:43:30.901|56=TRAX|10=236|8=FIX.4.4|9=62|35=0|34=56|49=APAQA2_Verion4|52=20180409-08:44:00.905|56=TRAX|10=239|8=FIX.4.4|9=62|35=0|34=57|49=APAQA2_Verion4|52=20180409-08:44:31.864|56=TRAX|10=248|8=FIX.4.4|9=62|35=0|34=58|49=APAQA2_Verion4|52=20180409-08:45:01.904|56=TRAX|10=242|8=FIX.4.4|9=62|35=0|34=59|49=APAQA2_Verion4|52=20180409-08:45:32.902|56=TRAX|10=245|8=FIX.4.4|9=62|35=0|34=60|49=APAQA2_Verion4|52=20180409-08:46:03.866|56=TRAX|10=245|8=FIX.4.4|9=62|35=0|34=61|49=APAQA2_Verion4|52=20180409-08:46:33.906|56=TRAX|10=244|8=FIX.4.4|9=62|35=0|34=62|49=APAQA2_Verion4|52=20180409-08:47:04.895|56=TRAX|10=251|8=FIX.4.4|9=62|35=0|34=63|49=APAQA2_Verion4|52=20180409-08:47:34.902|56=TRAX|10=244|8=FIX.4.4|9=62|35=0|34=64|49=APAQA2_Verion4|52=20180409-08:48:04.906|56=TRAX|10=247|8=FIX.4.4|9=62|35=0|34=65|49=APAQA2_Verion4|52=20180409-08:48:35.903|56=TRAX|10=249|8=FIX.4.4|9=62|35=0|34=66|49=APAQA2_Verion4|52=20180409-08:49:06.912|56=TRAX|10=249|8=FIX.4.4|9=62|35=0|34=67|49=APAQA2_Verion4|52=20180409-08:49:37.903|56=TRAX|10=254|8=FIX.4.4|9=62|35=0|34=68|49=APAQA2_Verion4|52=20180409-08:50:08.904|56=TRAX|10=246|8=FIX.4.4|9=62|35=0|34=69|49=APAQA2_Verion4|52=20180409-08:50:38.909|56=TRAX|10=255|8=FIX.4.4|9=62|35=0|34=70|49=APAQA2_Verion4|52=20180409-08:51:09.902|56=TRAX|10=239|8=FIX.4.4|9=62|35=0|34=71|49=APAQA2_Verion4|52=20180409-08:51:39.907|56=TRAX|10=248|8=FIX.4.4|9=62|35=0|34=72|49=APAQA2_Verion4|52=20180409-08:52:10.900|56=TRAX|10=232|8=FIX.4.4|9=62|35=0|34=73|49=APAQA2_Verion4|52=20180409-08:52:40.906|56=TRAX|10=242|8=FIX.4.4|9=62|35=0|34=74|49=APAQA2_Verion4|52=20180409-08:53:10.906|56=TRAX|10=241|8=FIX.4.4|9=62|35=0|34=75|49=APAQA2_Verion4|52=20180409-08:53:40.907|56=TRAX|10=246|8=FIX.4.4|9=62|35=0|34=76|49=APAQA2_Verion4|52=20180409-08:54:11.074|56=TRAX|10=241|8=FIX.4.4|9=62|35=0|34=77|49=APAQA2_Verion4|52=20180409-08:54:41.077|56=TRAX|10=248|8=FIX.4.4|9=62|35=0|34=78|49=APAQA2_Verion4|52=20180409-08:55:11.077|56=TRAX|10=247|8=FIX.4.4|9=62|35=0|34=79|49=APAQA2_Verion4|52=20180409-08:55:41.916|56=TRAX|10=253|8=FIX.4.4|9=62|35=0|34=80|49=APAQA2_Verion4|52=20180409-08:56:11.916|56=TRAX|10=243|8=FIX.4.4|9=62|35=0|34=81|49=APAQA2_Verion4|52=20180409-08:56:42.904|56=TRAX|10=245|8=FIX.4.4|9=62|35=0|34=82|49=APAQA2_Verion4|52=20180409-08:57:12.918|56=TRAX|10=249|8=FIX.4.4|9=62|35=0|34=83|49=APAQA2_Verion4|52=20180409-08:57:43.913|56=TRAX|10=249|8=FIX.4.4|9=62|35=0|34=84|49=APAQA2_Verion4|52=20180409-08:58:13.913|56=TRAX|10=248|8=FIX.4.4|9=62|35=0|34=85|49=APAQA2_Verion4|52=20180409-08:58:43.920|56=TRAX|10=250|8=FIX.4.4|9=62|35=0|34=86|49=APAQA2_Verion4|52=20180409-08:59:14.917|56=TRAX|10=000|8=FIX.4.4|9=62|35=0|34=87|49=APAQA2_Verion4|52=20180409-08:59:45.913|56=TRAX|10=001|8=FIX.4.4|9=62|35=0|34=88|49=APAQA2_Verion4|52=20180409-09:00:15.917|56=TRAX|10=246|8=FIX.4.4|9=62|35=0|34=89|49=APAQA2_Verion4|52=20180409-09:00:46.913|56=TRAX|10=247|8=FIX.4.4|9=62|35=0|34=90|49=APAQA2_Verion4|52=20180409-09:01:16.923|56=TRAX|10=238|8=FIX.4.4|9=62|35=0|34=91|49=APAQA2_Verion4|52=20180409-09:01:47.918|56=TRAX|10=247|8=FIX.4.4|9=62|35=0|34=92|49=APAQA2_Verion4|52=20180409-09:02:18.913|56=TRAX|10=242|8=FIX.4.4|9=62|35=0|34=93|49=APAQA2_Verion4|52=20180409-09:02:48.918|56=TRAX|10=251|8=FIX.4.4|9=62|35=0|34=94|49=APAQA2_Verion4|52=20180409-09:03:19.917|56=TRAX|10=250|8=FIX.4.4|9=62|35=0|34=95|49=APAQA2_Verion4|52=20180409-09:03:49.920|56=TRAX|10=248|8=FIX.4.4|9=62|35=0|34=96|49=APAQA2_Verion4|52=20180409-09:04:20.913|56=TRAX|10=241|8=FIX.4.4|9=62|35=0|34=97|49=APAQA2_Verion4|52=20180409-09:04:50.913|56=TRAX|10=245|8=FIX.4.4|9=62|35=0|34=98|49=APAQA2_Verion4|52=20180409-09:05:20.922|56=TRAX|10=244|8=FIX.4.4|9=62|35=0|34=99|49=APAQA2_Verion4|52=20180409-09:05:50.924|56=TRAX|10=250|8=FIX.4.4|9=63|35=0|34=100|49=APAQA2_Verion4|52=20180409-09:06:21.915|56=TRAX|10=025|8=FIX.4.4|9=63|35=0|34=101|49=APAQA2_Verion4|52=20180409-09:06:51.924|56=TRAX|10=029|8=FIX.4.4|9=63|35=0|34=102|49=APAQA2_Verion4|52=20180409-09:07:21.925|56=TRAX|10=029|8=FIX.4.4|9=63|35=0|34=103|49=APAQA2_Verion4|52=20180409-09:07:52.907|56=TRAX|10=034|8=FIX.4.4|9=63|35=0|34=104|49=APAQA2_Verion4|52=20180409-09:08:22.920|56=TRAX|10=028|8=FIX.4.4|9=63|35=0|34=105|49=APAQA2_Verion4|52=20180409-09:08:52.930|56=TRAX|10=033|8=FIX.4.4|9=63|35=0|34=106|49=APAQA2_Verion4|52=20180409-09:09:23.928|56=TRAX|10=040|8=FIX.4.4|9=63|35=0|34=107|49=APAQA2_Verion4|52=20180409-09:09:54.925|56=TRAX|10=042|8=FIX.4.4|9=63|35=0|34=108|49=APAQA2_Verion4|52=20180409-09:10:24.931|56=TRAX|10=029|8=FIX.4.4|9=63|35=0|34=109|49=APAQA2_Verion4|52=20180409-09:10:55.929|56=TRAX|10=041|8=FIX.4.4|9=63|35=0|34=110|49=APAQA2_Verion4|52=20180409-09:11:26.918|56=TRAX|10=030|8=FIX.4.4|9=63|35=0|34=111|49=APAQA2_Verion4|52=20180409-09:11:56.923|56=TRAX|10=030|8=FIX.4.4|9=63|35=0|34=112|49=APAQA2_Verion4|52=20180409-09:12:26.928|56=TRAX|10=034|8=FIX.4.4|9=63|35=0|34=113|49=APAQA2_Verion4|52=20180409-09:12:57.925|56=TRAX|10=036|8=FIX.4.4|9=63|35=0|34=114|49=APAQA2_Verion4|52=20180409-09:13:27.932|56=TRAX|10=033|8=FIX.4.4|9=63|35=0|34=115|49=APAQA2_Verion4|52=20180409-09:13:58.921|56=TRAX|10=036|8=FIX.4.4|9=63|35=0|34=116|49=APAQA2_Verion4|52=20180409-09:14:28.931|56=TRAX|10=036|8=FIX.4.4|9=63|35=0|34=117|49=APAQA2_Verion4|52=20180409-09:14:59.931|56=TRAX|10=041|8=FIX.4.4|9=63|35=0|34=118|49=APAQA2_Verion4|52=20180409-09:15:30.929|56=TRAX|10=039|8=FIX.4.4|9=63|35=0|34=119|49=APAQA2_Verion4|52=20180409-09:16:01.928|56=TRAX|10=038|8=FIX.4.4|9=63|35=0|34=120|49=APAQA2_Verion4|52=20180409-09:16:32.893|56=TRAX|10=035|8=FIX.4.4|9=63|35=0|34=121|49=APAQA2_Verion4|52=20180409-09:17:02.926|56=TRAX|10=031|8=FIX.4.4|9=63|35=0|34=122|49=APAQA2_Verion4|52=20180409-09:17:32.928|56=TRAX|10=037|8=FIX.4.4|9=63|35=0|34=123|49=APAQA2_Verion4|52=20180409-09:18:02.932|56=TRAX|10=031|8=FIX.4.4|9=63|35=0|34=124|49=APAQA2_Verion4|52=20180409-09:18:33.928|56=TRAX|10=041|8=FIX.4.4|9=63|35=0|34=125|49=APAQA2_Verion4|52=20180409-09:19:03.933|56=TRAX|10=036|8=FIX.4.4|9=63|35=0|34=126|49=APAQA2_Verion4|52=20180409-09:19:34.925|56=TRAX|10=042|8=FIX.4.4|9=63|35=0|34=127|49=APAQA2_Verion4|52=20180409-09:20:04.935|56=TRAX|10=033|8=FIX.4.4|9=63|35=0|34=128|49=APAQA2_Verion4|52=20180409-09:20:35.930|56=TRAX|10=033|8=FIX.4.4|9=63|35=0|34=129|49=APAQA2_Verion4|52=20180409-09:21:06.940|56=TRAX|10=034|8=FIX.4.4|9=63|35=0|34=130|49=APAQA2_Verion4|52=20180409-09:21:37.931|56=TRAX|10=030|8=FIX.4.4|9=63|35=0|34=131|49=APAQA2_Verion4|52=20180409-09:22:07.933|56=TRAX|10=031|8=FIX.4.4|9=63|35=0|34=132|49=APAQA2_Verion4|52=20180409-09:22:37.939|56=TRAX|10=041|8=FIX.4.4|9=63|35=0|34=133|49=APAQA2_Verion4|52=20180409-09:23:08.942|56=TRAX|10=035|8=FIX.4.4|9=63|35=0|34=134|49=APAQA2_Verion4|52=20180409-09:23:39.936|56=TRAX|10=043|8=FIX.4.4|9=63|35=0|34=135|49=APAQA2_Verion4|52=20180409-09:24:09.941|56=TRAX|10=038|8=FIX.4.4|9=63|35=0|34=136|49=APAQA2_Verion4|52=20180409-09:24:39.965|56=TRAX|10=048|8=FIX.4.4|9=63|35=0|34=137|49=APAQA2_Verion4|52=20180409-09:25:10.945|56=TRAX|10=037|8=FIX.4.4|9=63|35=0|34=138|49=APAQA2_Verion4|52=20180409-09:25:41.943|56=TRAX|10=040|8=FIX.4.4|9=63|35=0|34=139|49=APAQA2_Verion4|52=20180409-09:26:12.902|56=TRAX|10=035|8=FIX.4.4|9=63|35=0|34=140|49=APAQA2_Verion4|52=20180409-09:26:42.935|56=TRAX|10=036|8=FIX.4.4|9=63|35=0|34=141|49=APAQA2_Verion4|52=20180409-09:27:13.934|56=TRAX|10=035|8=FIX.4.4|9=63|35=0|34=142|49=APAQA2_Verion4|52=20180409-09:27:44.942|56=TRAX|10=039|8=FIX.4.4|9=63|35=0|34=143|49=APAQA2_Verion4|52=20180409-09:28:15.944|56=TRAX|10=041|8=FIX.4.4|9=63|35=0|34=144|49=APAQA2_Verion4|52=20180409-09:28:46.906|56=TRAX|10=044|8=FIX.4.4|9=63|35=0|34=145|49=APAQA2_Verion4|52=20180409-09:29:16.950|56=TRAX|10=042|8=FIX.4.4|9=63|35=0|34=146|49=APAQA2_Verion4|52=20180409-09:29:47.950|56=TRAX|10=047|8=FIX.4.4|9=63|35=0|34=147|49=APAQA2_Verion4|52=20180409-09:30:18.952|56=TRAX|10=040|8=FIX.4.4|9=63|35=0|34=148|49=APAQA2_Verion4|52=20180409-09:30:49.939|56=TRAX|10=050|8=FIX.4.4|9=63|35=0|34=149|49=APAQA2_Verion4|52=20180409-09:31:19.946|56=TRAX|10=047|8=FIX.4.4|9=63|35=0|34=150|49=APAQA2_Verion4|52=20180409-09:31:49.949|56=TRAX|10=045|8=FIX.4.4|9=63|35=0|34=151|49=APAQA2_Verion4|52=20180409-09:32:20.942|56=TRAX|10=029|8=FIX.4.4|9=63|35=0|34=152|49=APAQA2_Verion4|52=20180409-09:32:50.952|56=TRAX|10=034|8=FIX.4.4|9=63|35=0|34=153|49=APAQA2_Verion4|52=20180409-09:33:21.954|56=TRAX|10=036|8=FIX.4.4|9=63|35=0|34=154|49=APAQA2_Verion4|52=20180409-09:33:52.942|56=TRAX|10=038|8=FIX.4.4|9=63|35=0|34=155|49=APAQA2_Verion4|52=20180409-09:34:22.948|56=TRAX|10=043|8=FIX.4.4|9=63|35=0|34=156|49=APAQA2_Verion4|52=20180409-09:34:52.953|56=TRAX|10=043|8=FIX.4.4|9=63|35=0|34=157|49=APAQA2_Verion4|52=20180409-09:35:23.943|56=TRAX|10=042|8=FIX.4.4|9=63|35=0|34=158|49=APAQA2_Verion4|52=20180409-09:35:53.949|56=TRAX|10=052|8=FIX.4.4|9=63|35=0|34=159|49=APAQA2_Verion4|52=20180409-09:36:23.949|56=TRAX|10=051|8=FIX.4.4|9=63|35=0|34=160|49=APAQA2_Verion4|52=20180409-09:36:54.105|56=TRAX|10=031|8=FIX.4.4|9=63|35=0|34=161|49=APAQA2_Verion4|52=20180409-09:37:24.110|56=TRAX|10=026|8=FIX.4.4|9=63|35=0|34=162|49=APAQA2_Verion4|52=20180409-09:37:54.959|56=TRAX|10=051|8=FIX.4.4|9=63|35=0|34=163|49=APAQA2_Verion4|52=20180409-09:38:25.951|56=TRAX|10=043|8=FIX.4.4|9=63|35=0|34=164|49=APAQA2_Verion4|52=20180409-09:38:55.958|56=TRAX|10=054|8=FIX.4.4|9=63|35=0|34=165|49=APAQA2_Verion4|52=20180409-09:39:26.943|56=TRAX|10=048|8=FIX.4.4|9=63|35=0|34=166|49=APAQA2_Verion4|52=20180409-09:39:57.939|56=TRAX|10=058|8=FIX.4.4|9=63|35=0|34=167|49=APAQA2_Verion4|52=20180409-09:40:27.939|56=TRAX|10=048|8=FIX.4.4|9=63|35=0|34=168|49=APAQA2_Verion4|52=20180409-09:40:57.959|56=TRAX|10=054|8=FIX.4.4|9=63|35=0|34=169|49=APAQA2_Verion4|52=20180409-09:41:28.954|56=TRAX|10=049|8=FIX.4.4|9=63|35=0|34=170|49=APAQA2_Verion4|52=20180409-09:41:58.956|56=TRAX|10=046|8=FIX.4.4|9=63|35=0|34=171|49=APAQA2_Verion4|52=20180409-09:42:29.964|56=TRAX|10=045|8=FIX.4.4|9=63|35=0|34=172|49=APAQA2_Verion4|52=20180409-09:43:00.954|56=TRAX|10=035|8=FIX.4.4|9=63|35=0|34=173|49=APAQA2_Verion4|52=20180409-09:43:31.950|56=TRAX|10=036|8=FIX.4.4|9=63|35=0|34=174|49=APAQA2_Verion4|52=20180409-09:44:02.923|56=TRAX|10=036|8=FIX.4.4|9=63|35=0|34=175|49=APAQA2_Verion4|52=20180409-09:44:32.952|56=TRAX|10=042|8=FIX.4.4|9=63|35=0|34=176|49=APAQA2_Verion4|52=20180409-09:45:02.967|56=TRAX|10=047|8=FIX.4.4|9=63|35=0|34=177|49=APAQA2_Verion4|52=20180409-09:45:33.961|56=TRAX|10=046|8=FIX.4.4|9=63|35=0|34=178|49=APAQA2_Verion4|52=20180409-09:46:04.956|56=TRAX|10=050|8=FIX.4.4|9=63|35=0|34=179|49=APAQA2_Verion4|52=20180409-09:46:34.963|56=TRAX|10=052|8=FIX.4.4|9=63|35=0|34=180|49=APAQA2_Verion4|52=20180409-09:47:05.960|56=TRAX|10=040|8=FIX.4.4|9=63|35=0|34=181|49=APAQA2_Verion4|52=20180409-09:47:35.966|56=TRAX|10=050|8=FIX.4.4|9=63|35=0|34=182|49=APAQA2_Verion4|52=20180409-09:48:05.968|56=TRAX|10=051|8=FIX.4.4|9=63|35=0|34=183|49=APAQA2_Verion4|52=20180409-09:48:36.956|56=TRAX|10=053|8=FIX.4.4|9=63|35=0|34=184|49=APAQA2_Verion4|52=20180409-09:49:06.969|56=TRAX|10=056|8=FIX.4.4|9=63|35=0|34=185|49=APAQA2_Verion4|52=20180409-09:49:37.951|56=TRAX|10=052|8=FIX.4.4|9=63|35=0|34=186|49=APAQA2_Verion4|52=20180409-09:50:07.965|56=TRAX|10=047|8=FIX.4.4|9=63|35=0|34=187|49=APAQA2_Verion4|52=20180409-09:50:37.972|56=TRAX|10=049|8=FIX.4.4|9=63|35=0|34=188|49=APAQA2_Verion4|52=20180409-09:51:08.963|56=TRAX|10=049|8=FIX.4.4|9=63|35=0|34=189|49=APAQA2_Verion4|52=20180409-09:51:38.965|56=TRAX|10=055|8=FIX.4.4|9=63|35=0|34=190|49=APAQA2_Verion4|52=20180409-09:52:09.959|56=TRAX|10=049|8=FIX.4.4|9=63|35=0|34=191|49=APAQA2_Verion4|52=20180409-09:52:39.973|56=TRAX|10=049|8=FIX.4.4|9=63|35=0|34=192|49=APAQA2_Verion4|52=20180409-09:53:10.972|56=TRAX|10=039|8=FIX.4.4|9=63|35=0|34=193|49=APAQA2_Verion4|52=20180409-09:53:41.972|56=TRAX|10=044|8=FIX.4.4|9=63|35=0|34=194|49=APAQA2_Verion4|52=20180409-09:54:11.972|56=TRAX|10=043|8=FIX.4.4|9=63|35=0|34=195|49=APAQA2_Verion4|52=20180409-09:54:42.961|56=TRAX|10=046|8=FIX.4.4|9=63|35=0|34=196|49=APAQA2_Verion4|52=20180409-09:55:12.965|56=TRAX|10=049|8=FIX.4.4|9=63|35=0|34=197|49=APAQA2_Verion4|52=20180409-09:55:42.974|56=TRAX|10=053|8=FIX.4.4|9=63|35=0|34=198|49=APAQA2_Verion4|52=20180409-09:56:13.968|56=TRAX|10=056|8=FIX.4.4|9=63|35=0|34=199|49=APAQA2_Verion4|52=20180409-09:56:44.967|56=TRAX|10=060|8=FIX.4.4|9=63|35=0|34=200|49=APAQA2_Verion4|52=20180409-09:57:14.976|56=TRAX|10=041|8=FIX.4.4|9=63|35=0|34=201|49=APAQA2_Verion4|52=20180409-09:57:44.979|56=TRAX|10=048|8=FIX.4.4|9=63|35=0|34=202|49=APAQA2_Verion4|52=20180409-09:58:15.972|56=TRAX|10=041|8=FIX.4.4|9=63|35=0|34=203|49=APAQA2_Verion4|52=20180409-09:58:45.976|56=TRAX|10=049|8=FIX.4.4|9=63|35=0|34=204|49=APAQA2_Verion4|52=20180409-09:59:16.970|56=TRAX|10=043|8=FIX.4.4|9=63|35=0|34=205|49=APAQA2_Verion4|52=20180409-09:59:46.980|56=TRAX|10=048|8=FIX.4.4|9=63|35=0|34=206|49=APAQA2_Verion4|52=20180409-10:00:17.971|56=TRAX|10=025|8=FIX.4.4|9=63|35=0|34=207|49=APAQA2_Verion4|52=20180409-10:00:47.977|56=TRAX|10=035|8=FIX.4.4|9=63|35=0|34=208|49=APAQA2_Verion4|52=20180409-10:01:18.978|56=TRAX|10=036|8=FIX.4.4|9=63|35=0|34=209|49=APAQA2_Verion4|52=20180409-10:01:49.968|56=TRAX|10=040|8=FIX.4.4|9=63|35=0|34=210|49=APAQA2_Verion4|52=20180409-10:02:19.980|56=TRAX|10=024|8=FIX.4.4|9=63|35=0|34=211|49=APAQA2_Verion4|52=20180409-10:02:49.983|56=TRAX|10=031|8=FIX.4.4|9=63|35=0|34=212|49=APAQA2_Verion4|52=20180409-10:03:20.974|56=TRAX|10=022|8=FIX.4.4|9=63|35=0|34=213|49=APAQA2_Verion4|52=20180409-10:03:51.972|56=TRAX|10=025|8=FIX.4.4|9=63|35=0|34=214|49=APAQA2_Verion4|52=20180409-10:04:21.978|56=TRAX|10=030|8=FIX.4.4|9=63|35=0|34=215|49=APAQA2_Verion4|52=20180409-10:04:52.976|56=TRAX|10=033|8=FIX.4.4|9=63|35=0|34=216|49=APAQA2_Verion4|52=20180409-10:05:22.984|56=TRAX|10=031|8=FIX.4.4|9=63|35=0|34=217|49=APAQA2_Verion4|52=20180409-10:05:53.980|56=TRAX|10=032|8=FIX.4.4|9=63|35=0|34=218|49=APAQA2_Verion4|52=20180409-10:06:23.981|56=TRAX|10=032|8=FIX.4.4|9=63|35=0|34=219|49=APAQA2_Verion4|52=20180409-10:06:54.979|56=TRAX|10=044|8=FIX.4.4|9=63|35=0|34=220|49=APAQA2_Verion4|52=20180409-10:07:25.977|56=TRAX|10=033|8=FIX.4.4|9=63|35=0|34=221|49=APAQA2_Verion4|52=20180409-10:07:55.988|56=TRAX|10=039|8=FIX.4.4|9=63|35=0|34=222|49=APAQA2_Verion4|52=20180409-10:08:26.131|56=TRAX|10=019|8=FIX.4.4|9=63|35=0|34=223|49=APAQA2_Verion4|52=20180409-10:08:56.142|56=TRAX|10=025|8=FIX.4.4|9=63|35=0|34=224|49=APAQA2_Verion4|52=20180409-10:09:26.988|56=TRAX|10=042|8=FIX.4.4|9=63|35=0|34=225|49=APAQA2_Verion4|52=20180409-10:09:56.990|56=TRAX|10=039|8=FIX.4.4|9=63|35=0|34=226|49=APAQA2_Verion4|52=20180409-10:10:27.990|56=TRAX|10=030|8=FIX.4.4|9=63|35=0|34=227|49=APAQA2_Verion4|52=20180409-10:10:58.977|56=TRAX|10=040|8=FIX.4.4|9=63|35=0|34=228|49=APAQA2_Verion4|52=20180409-10:11:29.949|56=TRAX|10=039|8=FIX.4.4|9=63|35=0|34=229|49=APAQA2_Verion4|52=20180409-10:11:59.991|56=TRAX|10=040|8=FIX.4.4|9=63|35=0|34=230|49=APAQA2_Verion4|52=20180409-10:12:29.991|56=TRAX|10=030|8=FIX.4.4|9=63|35=0|34=231|49=APAQA2_Verion4|52=20180409-10:13:00.983|56=TRAX|10=022|8=FIX.4.4|9=63|35=0|34=232|49=APAQA2_Verion4|52=20180409-10:13:31.952|56=TRAX|10=023|8=FIX.4.4|9=63|35=0|34=233|49=APAQA2_Verion4|52=20180409-10:14:01.992|56=TRAX|10=026|8=FIX.4.4|9=63|35=0|34=234|49=APAQA2_Verion4|52=20180409-10:14:32.991|56=TRAX|10=030|8=FIX.4.4|9=63|35=0|34=235|49=APAQA2_Verion4|52=20180409-10:15:03.984|56=TRAX|10=032|8=FIX.4.4|9=63|35=0|34=236|49=APAQA2_Verion4|52=20180409-10:15:34.984|56=TRAX|10=037|8=FIX.4.4|9=63|35=0|34=237|49=APAQA2_Verion4|52=20180409-10:16:04.984|56=TRAX|10=036|8=FIX.4.4|9=63|35=0|34=238|49=APAQA2_Verion4|52=20180409-10:16:35.955|56=TRAX|10=039|8=FIX.4.4|9=63|35=0|34=239|49=APAQA2_Verion4|52=20180409-10:17:05.983|56=TRAX|10=039|8=FIX.4.4|9=63|35=0|34=240|49=APAQA2_Verion4|52=20180409-10:17:35.989|56=TRAX|10=040|8=FIX.4.4|9=63|35=0|34=241|49=APAQA2_Verion4|52=20180409-10:18:06.957|56=TRAX|10=035|8=FIX.4.4|9=63|35=0|34=242|49=APAQA2_Verion4|52=20180409-10:18:36.993|56=TRAX|10=039|8=FIX.4.4|9=63|35=0|34=243|49=APAQA2_Verion4|52=20180409-10:19:07.957|56=TRAX|10=039|8=FIX.4.4|9=63|35=0|34=244|49=APAQA2_Verion4|52=20180409-10:19:37.980|56=TRAX|10=039|8=FIX.4.4|9=63|35=0|34=245|49=APAQA2_Verion4|52=20180409-10:20:08.960|56=TRAX|10=028|8=FIX.4.4|9=63|35=0|34=246|49=APAQA2_Verion4|52=20180409-10:20:38.994|56=TRAX|10=039|8=FIX.4.4|9=63|35=0|34=247|49=APAQA2_Verion4|52=20180409-10:21:08.994|56=TRAX|10=038|8=FIX.4.4|9=63|35=0|34=248|49=APAQA2_Verion4|52=20180409-10:21:39.004|56=TRAX|10=025|8=FIX.4.4|9=63|35=0|34=249|49=APAQA2_Verion4|52=20180409-10:22:10.001|56=TRAX|10=013|8=FIX.4.4|9=63|35=0|34=250|49=APAQA2_Verion4|52=20180409-10:22:40.990|56=TRAX|10=025|8=FIX.4.4|9=63|35=0|34=251|49=APAQA2_Verion4|52=20180409-10:23:10.991|56=TRAX|10=025|8=FIX.4.4|9=63|35=0|34=252|49=APAQA2_Verion4|52=20180409-10:23:40.998|56=TRAX|10=036|8=FIX.4.4|9=63|35=0|34=253|49=APAQA2_Verion4|52=20180409-10:24:11.003|56=TRAX|10=013|8=FIX.4.4|9=63|35=0|34=254|49=APAQA2_Verion4|52=20180409-10:24:41.995|56=TRAX|10=037|8=FIX.4.4|9=63|35=0|34=255|49=APAQA2_Verion4|52=20180409-10:25:12.002|56=TRAX|10=016|8=FIX.4.4|9=63|35=0|34=256|49=APAQA2_Verion4|52=20180409-10:25:42.998|56=TRAX|10=044|8=FIX.4.4|9=63|35=0|34=257|49=APAQA2_Verion4|52=20180409-10:26:13.993|56=TRAX|10=039|8=FIX.4.4|9=63|35=0|34=258|49=APAQA2_Verion4|52=20180409-10:26:44.008|56=TRAX|10=031|8=FIX.4.4|9=63|35=0|34=259|49=APAQA2_Verion4|52=20180409-10:27:14.998|56=TRAX|10=048|8=FIX.4.4|9=63|35=0|34=260|49=APAQA2_Verion4|52=20180409-10:27:45.010|56=TRAX|10=019|8=FIX.4.4|9=63|35=0|34=261|49=APAQA2_Verion4|52=20180409-10:28:15.995|56=TRAX|10=040|8=FIX.4.4|9=63|35=0|34=262|49=APAQA2_Verion4|52=20180409-10:28:45.999|56=TRAX|10=048|8=FIX.4.4|9=63|35=0|34=263|49=APAQA2_Verion4|52=20180409-10:29:16.010|56=TRAX|10=022|8=FIX.4.4|9=63|35=0|34=264|49=APAQA2_Verion4|52=20180409-10:29:47.007|56=TRAX|10=033|8=FIX.4.4|9=63|35=0|34=265|49=APAQA2_Verion4|52=20180409-10:30:17.011|56=TRAX|10=018|8=FIX.4.4|9=63|35=0|34=266|49=APAQA2_Verion4|52=20180409-10:30:47.011|56=TRAX|10=022|8=FIX.4.4|9=63|35=0|34=267|49=APAQA2_Verion4|52=20180409-10:31:17.012|56=TRAX|10=022|8=FIX.4.4|9=63|35=0|34=268|49=APAQA2_Verion4|52=20180409-10:31:48.008|56=TRAX|10=032|8=FIX.4.4|9=63|35=0|34=269|49=APAQA2_Verion4|52=20180409-10:32:18.999|56=TRAX|10=050|8=FIX.4.4|9=63|35=0|34=270|49=APAQA2_Verion4|52=20180409-10:32:49.004|56=TRAX|10=023|8=FIX.4.4|9=63|35=0|34=271|49=APAQA2_Verion4|52=20180409-10:33:20.015|56=TRAX|10=016|8=FIX.4.4|9=63|35=0|34=272|49=APAQA2_Verion4|52=20180409-10:33:51.012|56=TRAX|10=018|8=FIX.4.4|9=63|35=0|34=273|49=APAQA2_Verion4|52=20180409-10:34:21.016|56=TRAX|10=021|8=FIX.4.4|9=63|35=0|34=274|49=APAQA2_Verion4|52=20180409-10:34:52.004|56=TRAX|10=023|8=FIX.4.4|9=63|35=0|34=275|49=APAQA2_Verion4|52=20180409-10:35:22.007|56=TRAX|10=025|8=FIX.4.4|9=63|35=0|34=276|49=APAQA2_Verion4|52=20180409-10:35:52.013|56=TRAX|10=026|8=FIX.4.4|9=63|35=0|34=277|49=APAQA2_Verion4|52=20180409-10:36:22.015|56=TRAX|10=027|8=FIX.4.4|9=63|35=0|34=278|49=APAQA2_Verion4|52=20180409-10:36:52.018|56=TRAX|10=034|8=FIX.4.4|9=63|35=0|34=279|49=APAQA2_Verion4|52=20180409-10:37:23.012|56=TRAX|10=028|8=FIX.4.4|9=63|35=0|34=280|49=APAQA2_Verion4|52=20180409-10:37:53.012|56=TRAX|10=023|8=FIX.4.4|9=63|35=0|34=281|49=APAQA2_Verion4|52=20180409-10:38:23.017|56=TRAX|10=027|8=FIX.4.4|9=63|35=0|34=282|49=APAQA2_Verion4|52=20180409-10:38:54.012|56=TRAX|10=027|8=FIX.4.4|9=63|35=0|34=283|49=APAQA2_Verion4|52=20180409-10:39:25.006|56=TRAX|10=030|8=FIX.4.4|9=63|35=0|34=284|49=APAQA2_Verion4|52=20180409-10:39:55.007|56=TRAX|10=035|8=FIX.4.4|9=63|35=0|34=285|49=APAQA2_Verion4|52=20180409-10:40:26.020|56=TRAX|10=021|8=FIX.4.4|9=63|35=0|34=286|49=APAQA2_Verion4|52=20180409-10:40:56.169|56=TRAX|10=039|8=FIX.4.4|9=63|35=0|34=287|49=APAQA2_Verion4|52=20180409-10:41:26.175|56=TRAX|10=035|8=FIX.4.4|9=63|35=0|34=288|49=APAQA2_Verion4|52=20180409-10:41:57.013|56=TRAX|10=031|8=FIX.4.4|9=63|35=0|34=289|49=APAQA2_Verion4|52=20180409-10:42:27.980|56=TRAX|10=043|8=FIX.4.4|9=63|35=0|34=290|49=APAQA2_Verion4|52=20180409-10:42:57.981|56=TRAX|10=039|8=FIX.4.4|9=63|35=0|34=291|49=APAQA2_Verion4|52=20180409-10:43:27.983|56=TRAX|10=040|8=FIX.4.4|9=63|35=0|34