8=FIX.4.4|9=96|35=A|34=1|49=omblckrcktrader2|52=20210212-16:40:01.302|56=MA|98=0|108=90|95=8|96=3.0.0rc5|141=Y|10=167|8=FIX.4.4|9=743|35=E|34=2|49=omblckrcktrader2|52=20210212-16:40:06.157|56=MA|66=ListID-S110221-1435|394=2|68=5|73=5|11=ClOrdID-1436|22=4|38=1000000|44=100.261|48=US06051GEN51|54=2|55=[N/A/]|63=3|67=1|423=1|29726=100.262|453=1|448=omblckrcktrader2|447=C|452=11|11=ClOrdID-1437|22=4|38=2000000|44=101|48=US40434AAB52|54=2|55=[N/A]|63=3|67=2|29726=101.25|11=ClOrdID-1438|22=4|38=1300000|44=102.251|48=US95709TAH32|54=2|55=[N/A/]|63=3|67=1|29726=102.25|453=1|448=omblckrcktrader2|447=C|452=11|11=ClOrdID-1439|22=4|38=250000|44=103.1|48=US427866AZ15|54=2|55=[N/A/]|63=3|67=1|29726=103.25|453=1|448=omblckrcktrader2|447=C|452=11|11=ClOrdID-1440|22=4|38=350000|44=104.231|48=US29379VAW37|54=2|55=[N/A/]|63=3|67=1|29726=104.25|453=1|448=omblckrcktrader2|447=C|452=11|10=016|8=FIX.4.4|9=61|35=0|34=3|49=omblckrcktrader2|52=20210212-16:41:36.301|56=MA|10=194|8=FIX.4.4|9=61|35=0|34=4|49=omblckrcktrader2|52=20210212-16:43:06.301|56=MA|10=194|8=FIX.4.4|9=83|35=5|34=5|49=omblckrcktrader2|52=20210212-16:43:09.327|56=MA|58=Session Tab Closed|10=023|