8=FIX.4.4|9=82|35=A|34=1|49=MMMAQAUK|52=20181129-08:50:54.275|56=MA|98=0|108=90|95=8|96=3.0.0rc4|10=131|8=FIX.4.4|9=53|35=0|34=2|49=MMMAQAUK|52=20181129-08:52:25.164|56=MA|10=198|8=FIX.4.4|9=53|35=0|34=3|49=MMMAQAUK|52=20181129-08:53:55.258|56=MA|10=207|8=FIX.4.4|9=53|35=0|34=4|49=MMMAQAUK|52=20181129-08:55:26.258|56=MA|10=208|8=FIX.4.4|9=53|35=0|34=5|49=MMMAQAUK|52=20181129-08:56:57.257|56=MA|10=213|8=FIX.4.4|9=53|35=0|34=6|49=MMMAQAUK|52=20181129-08:58:27.267|56=MA|10=214|8=FIX.4.4|9=53|35=0|34=7|49=MMMAQAUK|52=20181129-08:59:58.256|56=MA|10=218|8=FIX.4.4|9=53|35=0|34=8|49=MMMAQAUK|52=20181129-09:01:28.257|56=MA|10=205|8=FIX.4.4|9=53|35=0|34=9|49=MMMAQAUK|52=20181129-09:02:58.257|56=MA|10=210|8=FIX.4.4|9=54|35=0|34=10|49=MMMAQAUK|52=20181129-09:04:29.257|56=MA|10=251|8=FIX.4.4|9=54|35=0|34=11|49=MMMAQAUK|52=20181129-09:06:00.255|56=MA|10=241|8=FIX.4.4|9=54|35=0|34=12|49=MMMAQAUK|52=20181129-09:07:30.257|56=MA|10=248|8=FIX.4.4|9=54|35=0|34=13|49=MMMAQAUK|52=20181129-09:09:01.258|56=MA|10=250|8=FIX.4.4|9=54|35=0|34=14|49=MMMAQAUK|52=20181129-09:10:31.258|56=MA|10=246|8=FIX.4.4|9=54|35=0|34=15|49=MMMAQAUK|52=20181129-09:12:01.264|56=MA|10=243|8=FIX.4.4|9=54|35=0|34=16|49=MMMAQAUK|52=20181129-09:13:32.258|56=MA|10=252|8=FIX.4.4|9=54|35=0|34=17|49=MMMAQAUK|52=20181129-09:15:02.258|56=MA|10=252|8=FIX.4.4|9=54|35=0|34=18|49=MMMAQAUK|52=20181129-09:16:32.266|56=MA|10=000|8=FIX.4.4|9=54|35=0|34=19|49=MMMAQAUK|52=20181129-09:18:03.251|56=MA|10=251|8=FIX.4.4|9=54|35=0|34=20|49=MMMAQAUK|52=20181129-09:19:33.252|56=MA|10=248|8=FIX.4.4|9=54|35=0|34=21|49=MMMAQAUK|52=20181129-09:21:03.260|56=MA|10=238|8=FIX.4.4|9=54|35=0|34=22|49=MMMAQAUK|52=20181129-09:22:33.265|56=MA|10=248|8=FIX.4.4|9=54|35=0|34=23|49=MMMAQAUK|52=20181129-09:24:04.250|56=MA|10=243|8=FIX.4.4|9=54|35=0|34=24|49=MMMAQAUK|52=20181129-09:25:34.251|56=MA|10=249|8=FIX.4.4|9=54|35=0|34=25|49=MMMAQAUK|52=20181129-09:27:04.257|56=MA|10=255|8=FIX.4.4|9=54|35=0|34=26|49=MMMAQAUK|52=20181129-09:28:34.261|56=MA|10=255|8=FIX.4.4|9=54|35=0|34=27|49=MMMAQAUK|52=20181129-09:30:04.261|56=MA|10=246|8=FIX.4.4|9=54|35=0|34=28|49=MMMAQAUK|52=20181129-09:31:35.249|56=MA|10=002|8=FIX.4.4|9=54|35=0|34=29|49=MMMAQAUK|52=20181129-09:33:06.246|56=MA|10=000|8=FIX.4.4|9=54|35=0|34=30|49=MMMAQAUK|52=20181129-09:34:36.259|56=MA|10=000|8=FIX.4.4|9=54|35=0|34=31|49=MMMAQAUK|52=20181129-09:36:07.253|56=MA|10=251|8=FIX.4.4|9=54|35=0|34=32|49=MMMAQAUK|52=20181129-09:37:38.254|56=MA|10=002|8=FIX.4.4|9=54|35=0|34=33|49=MMMAQAUK|52=20181129-09:39:09.255|56=MA|10=004|8=FIX.4.4|9=54|35=0|34=34|49=MMMAQAUK|52=20181129-09:40:40.252|56=MA|10=245|8=FIX.4.4|9=54|35=0|34=35|49=MMMAQAUK|52=20181129-09:42:10.253|56=MA|10=246|8=FIX.4.4|9=54|35=0|34=36|49=MMMAQAUK|52=20181129-09:43:40.256|56=MA|10=254|8=FIX.4.4|9=54|35=0|34=37|49=MMMAQAUK|52=20181129-09:45:11.248|56=MA|10=000|8=FIX.4.4|9=54|35=0|34=38|49=MMMAQAUK|52=20181129-09:46:42.243|56=MA|10=001|8=FIX.4.4|9=54|35=0|34=39|49=MMMAQAUK|52=20181129-09:48:13.243|56=MA|10=002|8=FIX.4.4|9=54|35=0|34=40|49=MMMAQAUK|52=20181129-09:49:44.242|56=MA|10=254|8=FIX.4.4|9=54|35=0|34=41|49=MMMAQAUK|52=20181129-09:51:15.241|56=MA|10=245|8=FIX.4.4|9=54|35=0|34=42|49=MMMAQAUK|52=20181129-09:52:45.250|56=MA|10=250|8=FIX.4.4|9=54|35=0|34=43|49=MMMAQAUK|52=20181129-09:54:16.248|56=MA|10=002|8=FIX.4.4|9=54|35=0|34=44|49=MMMAQAUK|52=20181129-09:55:46.249|56=MA|10=008|8=FIX.4.4|9=54|35=0|34=45|49=MMMAQAUK|52=20181129-09:57:17.240|56=MA|10=000|8=FIX.4.4|9=54|35=0|34=46|49=MMMAQAUK|52=20181129-09:58:47.244|56=MA|10=009|8=FIX.4.4|9=54|35=0|34=47|49=MMMAQAUK|52=20181129-10:00:18.239|56=MA|10=247|8=FIX.4.4|9=54|35=0|34=48|49=MMMAQAUK|52=20181129-10:01:49.238|56=MA|10=252|8=FIX.4.4|9=54|35=0|34=49|49=MMMAQAUK|52=20181129-10:03:19.238|56=MA|10=252|8=FIX.4.4|9=54|35=0|34=50|49=MMMAQAUK|52=20181129-10:04:50.236|56=MA|10=238|8=FIX.4.4|9=54|35=0|34=51|49=MMMAQAUK|52=20181129-10:06:21.236|56=MA|10=239|8=FIX.4.4|9=54|35=0|34=52|49=MMMAQAUK|52=20181129-10:07:51.243|56=MA|10=242|8=FIX.4.4|9=54|35=0|34=53|49=MMMAQAUK|52=20181129-10:09:22.243|56=MA|10=243|8=FIX.4.4|9=54|35=0|34=54|49=MMMAQAUK|52=20181129-10:10:53.242|56=MA|10=239|8=FIX.4.4|9=54|35=0|34=55|49=MMMAQAUK|52=20181129-10:12:24.237|56=MA|10=244|8=FIX.4.4|9=54|35=0|34=56|49=MMMAQAUK|52=20181129-10:13:55.234|56=MA|10=247|8=FIX.4.4|9=54|35=0|34=57|49=MMMAQAUK|52=20181129-10:15:25.245|56=MA|10=249|8=FIX.4.4|9=54|35=0|34=58|49=MMMAQAUK|52=20181129-10:16:55.245|56=MA|10=254|8=FIX.4.4|9=54|35=0|34=59|49=MMMAQAUK|52=20181129-10:18:26.238|56=MA|10=001|8=FIX.4.4|9=54|35=0|34=60|49=MMMAQAUK|52=20181129-10:19:56.244|56=MA|10=250|8=FIX.4.4|9=54|35=0|34=61|49=MMMAQAUK|52=20181129-10:21:27.236|56=MA|10=243|8=FIX.4.4|9=54|35=0|34=62|49=MMMAQAUK|52=20181129-10:22:57.237|56=MA|10=249|8=FIX.4.4|9=54|35=0|34=63|49=MMMAQAUK|52=20181129-10:24:27.238|56=MA|10=250|8=FIX.4.4|9=54|35=0|34=64|49=MMMAQAUK|52=20181129-10:25:58.246|56=MA|10=255|8=FIX.4.4|9=54|35=0|34=65|49=MMMAQAUK|52=20181129-10:27:29.234|56=MA|10=253|8=FIX.4.4|9=54|35=0|34=66|49=MMMAQAUK|52=20181129-10:28:59.234|56=MA|10=002|8=FIX.4.4|9=54|35=0|34=67|49=MMMAQAUK|52=20181129-10:30:30.242|56=MA|10=240|8=FIX.4.4|9=54|35=0|34=68|49=MMMAQAUK|52=20181129-10:32:01.237|56=MA|10=245|8=FIX.4.4|9=54|35=0|34=69|49=MMMAQAUK|52=20181129-10:33:31.245|56=MA|10=249|8=FIX.4.4|9=54|35=0|34=70|49=MMMAQAUK|52=20181129-10:35:02.243|56=MA|10=239|8=FIX.4.4|9=54|35=0|34=71|49=MMMAQAUK|52=20181129-10:36:32.243|56=MA|10=244|8=FIX.4.4|9=54|35=0|34=72|49=MMMAQAUK|52=20181129-10:38:03.236|56=MA|10=247|8=FIX.4.4|9=54|35=0|34=73|49=MMMAQAUK|52=20181129-10:39:33.242|56=MA|10=249|8=FIX.4.4|9=54|35=0|34=74|49=MMMAQAUK|52=20181129-10:41:04.242|56=MA|10=241|8=FIX.4.4|9=54|35=0|34=75|49=MMMAQAUK|52=20181129-10:42:35.228|56=MA|10=251|8=FIX.4.4|9=54|35=0|34=76|49=MMMAQAUK|52=20181129-10:44:05.235|56=MA|10=249|8=FIX.4.4|9=54|35=0|34=77|49=MMMAQAUK|52=20181129-10:45:36.231|56=MA|10=251|8=FIX.4.4|9=54|35=0|34=78|49=MMMAQAUK|52=20181129-10:47:06.232|56=MA|10=252|8=FIX.4.4|9=54|35=0|34=79|49=MMMAQAUK|52=20181129-10:48:37.229|56=MA|10=008|8=FIX.4.4|9=54|35=0|34=80|49=MMMAQAUK|52=20181129-10:50:07.234|56=MA|10=242|8=FIX.4.4|9=54|35=0|34=81|49=MMMAQAUK|52=20181129-10:51:38.225|56=MA|10=248|8=FIX.4.4|9=54|35=0|34=82|49=MMMAQAUK|52=20181129-10:53:08.236|56=MA|10=250|8=FIX.4.4|9=54|35=0|34=83|49=MMMAQAUK|52=20181129-10:54:39.236|56=MA|10=000|8=FIX.4.4|9=54|35=0|34=84|49=MMMAQAUK|52=20181129-10:56:10.224|56=MA|10=245|8=FIX.4.4|9=54|35=0|34=85|49=MMMAQAUK|52=20181129-10:57:40.227|56=MA|10=253|8=FIX.4.4|9=54|35=0|34=86|49=MMMAQAUK|52=20181129-10:59:10.234|56=MA|10=251|8=FIX.4.4|9=54|35=0|34=87|49=MMMAQAUK|52=20181129-11:00:41.226|56=MA|10=244|8=FIX.4.4|9=54|35=0|34=88|49=MMMAQAUK|52=20181129-11:02:11.231|56=MA|10=240|8=FIX.4.4|9=54|35=0|34=89|49=MMMAQAUK|52=20181129-11:03:41.232|56=MA|10=246|8=FIX.4.4|9=54|35=0|34=90|49=MMMAQAUK|52=20181129-11:05:12.228|56=MA|10=243|8=FIX.4.4|9=54|35=0|34=91|49=MMMAQAUK|52=20181129-11:06:42.230|56=MA|10=241|8=FIX.4.4|9=54|35=0|34=92|49=MMMAQAUK|52=20181129-11:08:13.223|56=MA|10=244|8=FIX.4.4|9=54|35=0|34=93|49=MMMAQAUK|52=20181129-11:09:43.230|56=MA|10=247|8=FIX.4.4|9=54|35=0|34=94|49=MMMAQAUK|52=20181129-11:11:14.226|56=MA|10=244|8=FIX.4.4|9=54|35=0|34=95|49=MMMAQAUK|52=20181129-11:12:44.231|56=MA|10=245|8=FIX.4.4|9=54|35=0|34=96|49=MMMAQAUK|52=20181129-11:14:15.226|56=MA|10=250|8=FIX.4.4|9=54|35=0|34=97|49=MMMAQAUK|52=20181129-11:15:46.220|56=MA|10=250|8=FIX.4.4|9=54|35=0|34=98|49=MMMAQAUK|52=20181129-11:17:16.221|56=MA|10=251|8=FIX.4.4|9=54|35=0|34=99|49=MMMAQAUK|52=20181129-11:18:46.227|56=MA|10=006|8=FIX.4.4|9=55|35=0|34=100|49=MMMAQAUK|52=20181129-11:20:16.228|56=MA|10=029|8=FIX.4.4|9=55|35=0|34=101|49=MMMAQAUK|52=20181129-11:21:47.225|56=MA|10=032|8=FIX.4.4|9=55|35=0|34=102|49=MMMAQAUK|52=20181129-11:23:18.215|56=MA|10=032|8=FIX.4.4|9=55|35=0|34=103|49=MMMAQAUK|52=20181129-11:24:48.216|56=MA|10=038|8=FIX.4.4|9=55|35=0|34=104|49=MMMAQAUK|52=20181129-11:26:18.223|56=MA|10=036|8=FIX.4.4|9=55|35=0|34=105|49=MMMAQAUK|52=20181129-11:27:48.224|56=MA|10=042|8=FIX.4.4|9=55|35=0|34=106|49=MMMAQAUK|52=20181129-11:29:18.227|56=MA|10=045|8=FIX.4.4|9=55|35=0|34=107|49=MMMAQAUK|52=20181129-11:30:49.212|56=MA|10=036|8=FIX.4.4|9=55|35=0|34=108|49=MMMAQAUK|52=20181129-11:32:19.214|56=MA|10=038|8=FIX.4.4|9=55|35=0|34=109|49=MMMAQAUK|52=20181129-11:33:50.211|56=MA|10=032|8=FIX.4.4|9=55|35=0|34=110|49=MMMAQAUK|52=20181129-11:35:20.211|56=MA|10=023|8=FIX.4.4|9=55|35=0|34=111|49=MMMAQAUK|52=20181129-11:36:51.211|56=MA|10=029|8=FIX.4.4|9=55|35=0|34=112|49=MMMAQAUK|52=20181129-11:38:22.210|56=MA|10=029|8=FIX.4.4|9=55|35=0|34=113|49=MMMAQAUK|52=20181129-11:39:52.214|56=MA|10=038|8=FIX.4.4|9=55|35=0|34=114|49=MMMAQAUK|52=20181129-11:41:22.219|56=MA|10=034|8=FIX.4.4|9=55|35=0|34=115|49=MMMAQAUK|52=20181129-11:42:53.222|56=MA|10=034|8=FIX.4.4|9=55|35=0|34=116|49=MMMAQAUK|52=20181129-11:44:24.209|56=MA|10=040|8=FIX.4.4|9=55|35=0|34=117|49=MMMAQAUK|52=20181129-11:45:54.219|56=MA|10=046|8=FIX.4.4|9=55|35=0|34=118|49=MMMAQAUK|52=20181129-11:47:25.213|56=MA|10=041|8=FIX.4.4|9=55|35=0|34=119|49=MMMAQAUK|52=20181129-11:48:56.209|56=MA|10=052|8=FIX.4.4|9=55|35=0|34=120|49=MMMAQAUK|52=20181129-11:50:27.206|56=MA|10=032|8=FIX.4.4|9=55|35=0|34=121|49=MMMAQAUK|52=20181129-11:51:57.218|56=MA|10=040|8=FIX.4.4|9=55|35=0|34=122|49=MMMAQAUK|52=20181129-11:53:28.213|56=MA|10=036|8=FIX.4.4|9=55|35=0|34=123|49=MMMAQAUK|52=20181129-11:54:59.212|56=MA|10=041|8=FIX.4.4|9=55|35=0|34=124|49=MMMAQAUK|52=20181129-11:56:30.211|56=MA|10=032|8=FIX.4.4|9=55|35=0|34=125|49=MMMAQAUK|52=20181129-11:58:00.215|56=MA|10=036|8=FIX.4.4|9=55|35=0|34=126|49=MMMAQAUK|52=20181129-11:59:31.214|56=MA|10=041|8=FIX.4.4|9=55|35=0|34=127|49=MMMAQAUK|52=20181129-12:01:02.207|56=MA|10=030|8=FIX.4.4|9=55|35=0|34=128|49=MMMAQAUK|52=20181129-12:02:33.203|56=MA|10=032|8=FIX.4.4|9=55|35=0|34=129|49=MMMAQAUK|52=20181129-12:04:03.203|56=MA|10=032|8=FIX.4.4|9=55|35=0|34=130|49=MMMAQAUK|52=20181129-12:05:33.212|56=MA|10=028|8=FIX.4.4|9=55|35=0|34=131|49=MMMAQAUK|52=20181129-12:07:04.200|56=MA|10=026|8=FIX.4.4|9=55|35=0|34=132|49=MMMAQAUK|52=20181129-12:08:34.200|56=MA|10=031|8=FIX.4.4|9=55|35=0|34=133|49=MMMAQAUK|52=20181129-12:10:05.200|56=MA|10=023|8=FIX.4.4|9=55|35=0|34=134|49=MMMAQAUK|52=20181129-12:11:36.199|56=MA|10=046|8=FIX.4.4|9=55|35=0|34=135|49=MMMAQAUK|52=20181129-12:13:06.199|56=MA|10=046|8=FIX.4.4|9=55|35=0|34=136|49=MMMAQAUK|52=20181129-12:14:36.199|56=MA|10=051|8=FIX.4.4|9=55|35=0|34=137|49=MMMAQAUK|52=20181129-12:16:07.199|56=MA|10=052|8=FIX.4.4|9=55|35=0|34=138|49=MMMAQAUK|52=20181129-12:17:38.196|56=MA|10=055|8=FIX.4.4|9=55|35=0|34=139|49=MMMAQAUK|52=20181129-12:19:08.197|56=MA|10=056|8=FIX.4.4|9=55|35=0|34=140|49=MMMAQAUK|52=20181129-12:20:39.196|56=MA|10=043|8=FIX.4.4|9=55|35=0|34=141|49=MMMAQAUK|52=20181129-12:22:10.195|56=MA|10=034|8=FIX.4.4|9=55|35=0|34=142|49=MMMAQAUK|52=20181129-12:23:41.195|56=MA|10=040|8=FIX.4.4|9=55|35=0|34=143|49=MMMAQAUK|52=20181129-12:25:12.194|56=MA|10=040|8=FIX.4.4|9=55|35=0|34=144|49=MMMAQAUK|52=20181129-12:26:42.194|56=MA|10=045|8=FIX.4.4|9=55|35=0|34=145|49=MMMAQAUK|52=20181129-12:28:13.193|56=MA|10=045|8=FIX.4.4|9=55|35=0|34=146|49=MMMAQAUK|52=20181129-12:29:44.192|56=MA|10=050|8=FIX.4.4|9=55|35=0|34=147|49=MMMAQAUK|52=20181129-12:31:14.192|56=MA|10=041|8=FIX.4.4|9=55|35=0|34=148|49=MMMAQAUK|52=20181129-12:32:45.191|56=MA|10=046|8=FIX.4.4|9=55|35=0|34=149|49=MMMAQAUK|52=20181129-12:34:15.191|56=MA|10=046|8=FIX.4.4|9=55|35=0|34=150|49=MMMAQAUK|52=20181129-12:35:45.192|56=MA|10=043|8=FIX.4.4|9=55|35=0|34=151|49=MMMAQAUK|52=20181129-12:37:15.193|56=MA|10=044|8=FIX.4.4|9=55|35=0|34=152|49=MMMAQAUK|52=20181129-12:38:46.192|56=MA|10=049|8=FIX.4.4|9=55|35=0|34=153|49=MMMAQAUK|52=20181129-12:40:17.191|56=MA|10=040|8=FIX.4.4|9=55|35=0|34=154|49=MMMAQAUK|52=20181129-12:41:48.190|56=MA|10=045|8=FIX.4.4|9=55|35=0|34=155|49=MMMAQAUK|52=20181129-12:43:18.190|56=MA|10=045|8=FIX.4.4|9=55|35=0|34=156|49=MMMAQAUK|52=20181129-12:44:48.190|56=MA|10=050|8=FIX.4.4|9=55|35=0|34=157|49=MMMAQAUK|52=20181129-12:46:19.188|56=MA|10=058|8=FIX.4.4|9=55|35=0|34=158|49=MMMAQAUK|52=20181129-12:47:50.188|56=MA|10=055|8=FIX.4.4|9=55|35=0|34=159|49=MMMAQAUK|52=20181129-12:49:21.187|56=MA|10=055|8=FIX.4.4|9=55|35=0|34=160|49=MMMAQAUK|52=20181129-12:50:52.187|56=MA|10=043|8=FIX.4.4|9=55|35=0|34=161|49=MMMAQAUK|52=20181129-12:52:23.186|56=MA|10=043|8=FIX.4.4|9=55|35=0|34=162|49=MMMAQAUK|52=20181129-12:53:54.186|56=MA|10=049|8=FIX.4.4|9=55|35=0|34=163|49=MMMAQAUK|52=20181129-12:55:25.185|56=MA|10=049|8=FIX.4.4|9=55|35=0|34=164|49=MMMAQAUK|52=20181129-12:56:56.184|56=MA|10=054|8=FIX.4.4|9=55|35=0|34=165|49=MMMAQAUK|52=20181129-12:58:26.184|56=MA|10=054|8=FIX.4.4|9=55|35=0|34=166|49=MMMAQAUK|52=20181129-12:59:57.183|56=MA|10=059|8=FIX.4.4|9=55|35=0|34=167|49=MMMAQAUK|52=20181129-13:01:27.183|56=MA|10=045|8=FIX.4.4|9=55|35=0|34=168|49=MMMAQAUK|52=20181129-13:02:58.182|56=MA|10=050|8=FIX.4.4|9=55|35=0|34=169|49=MMMAQAUK|52=20181129-13:04:29.181|56=MA|10=050|8=FIX.4.4|9=55|35=0|34=170|49=MMMAQAUK|52=20181129-13:05:59.182|56=MA|10=047|8=FIX.4.4|9=55|35=0|34=171|49=MMMAQAUK|52=20181129-13:07:30.181|56=MA|10=038|8=FIX.4.4|9=55|35=0|34=172|49=MMMAQAUK|52=20181129-13:09:01.180|56=MA|10=038|8=FIX.4.4|9=55|35=0|34=173|49=MMMAQAUK|52=20181129-13:10:32.180|56=MA|10=035|8=FIX.4.4|9=55|35=0|34=174|49=MMMAQAUK|52=20181129-13:12:03.179|56=MA|10=044|8=FIX.4.4|9=55|35=0|34=175|49=MMMAQAUK|52=20181129-13:13:33.179|56=MA|10=049|8=FIX.4.4|9=55|35=0|34=176|49=MMMAQAUK|52=20181129-13:15:04.178|56=MA|10=049|8=FIX.4.4|9=55|35=0|34=177|49=MMMAQAUK|52=20181129-13:16:35.177|56=MA|10=054|8=FIX.4.4|9=55|35=0|34=178|49=MMMAQAUK|52=20181129-13:18:06.177|56=MA|10=055|8=FIX.4.4|9=55|35=0|34=179|49=MMMAQAUK|52=20181129-13:19:36.177|56=MA|10=060|8=FIX.4.4|9=55|35=0|34=180|49=MMMAQAUK|52=20181129-13:21:07.176|56=MA|10=042|8=FIX.4.4|9=55|35=0|34=181|49=MMMAQAUK|52=20181129-13:22:37.176|56=MA|10=047|8=FIX.4.4|9=55|35=0|34=182|49=MMMAQAUK|52=20181129-13:24:08.176|56=MA|10=048|8=FIX.4.4|9=55|35=0|34=183|49=MMMAQAUK|52=20181129-13:25:39.175|56=MA|10=053|8=FIX.4.4|9=55|35=0|34=184|49=MMMAQAUK|52=20181129-13:27:09.175|56=MA|10=053|8=FIX.4.4|9=55|35=0|34=185|49=MMMAQAUK|52=20181129-13:28:39.175|56=MA|10=058|8=FIX.4.4|9=55|35=0|34=186|49=MMMAQAUK|52=20181129-13:30:09.175|56=MA|10=049|8=FIX.4.4|9=55|35=0|34=187|49=MMMAQAUK|52=20181129-13:31:40.173|56=MA|10=044|8=FIX.4.4|9=55|35=0|34=188|49=MMMAQAUK|52=20181129-13:33:10.173|56=MA|10=044|8=FIX.4.4|9=55|35=0|34=189|49=MMMAQAUK|52=20181129-13:34:41.172|56=MA|10=049|8=FIX.4.4|9=55|35=0|34=190|49=MMMAQAUK|52=20181129-13:36:11.173|56=MA|10=041|8=FIX.4.4|9=55|35=0|34=191|49=MMMAQAUK|52=20181129-13:37:42.171|56=MA|10=045|8=FIX.4.4|9=55|35=0|34=192|49=MMMAQAUK|52=20181129-13:39:12.171|56=MA|10=045|8=FIX.4.4|9=55|35=0|34=193|49=MMMAQAUK|52=20181129-13:40:42.171|56=MA|10=041|8=FIX.4.4|9=55|35=0|34=194|49=MMMAQAUK|52=20181129-13:42:13.169|56=MA|10=049|8=FIX.4.4|9=55|35=0|34=195|49=MMMAQAUK|52=20181129-13:43:43.169|56=MA|10=054|8=FIX.4.4|9=55|35=0|34=196|49=MMMAQAUK|52=20181129-13:45:13.169|56=MA|10=054|8=FIX.4.4|9=55|35=0|34=197|49=MMMAQAUK|52=20181129-13:46:44.168|56=MA|10=059|8=FIX.4.4|9=55|35=0|34=198|49=MMMAQAUK|52=20181129-13:48:14.168|56=MA|10=059|8=FIX.4.4|9=55|35=0|34=199|49=MMMAQAUK|52=20181129-13:49:45.167|56=MA|10=064|8=FIX.4.4|9=55|35=0|34=200|49=MMMAQAUK|52=20181129-13:51:16.167|56=MA|10=038|8=FIX.4.4|9=55|35=0|34=201|49=MMMAQAUK|52=20181129-13:52:47.166|56=MA|10=043|8=FIX.4.4|9=55|35=0|34=202|49=MMMAQAUK|52=20181129-13:54:18.165|56=MA|10=043|8=FIX.4.4|9=55|35=0|34=203|49=MMMAQAUK|52=20181129-13:55:49.166|56=MA|10=050|8=FIX.4.4|9=55|35=0|34=204|49=MMMAQAUK|52=20181129-13:57:20.165|56=MA|10=041|8=FIX.4.4|9=55|35=0|34=205|49=MMMAQAUK|52=20181129-13:58:51.164|56=MA|10=046|8=FIX.4.4|9=55|35=0|34=206|49=MMMAQAUK|52=20181129-14:00:22.163|56=MA|10=032|8=FIX.4.4|9=55|35=0|34=207|49=MMMAQAUK|52=20181129-14:01:52.163|56=MA|10=037|8=FIX.4.4|9=55|35=0|34=208|49=MMMAQAUK|52=20181129-14:03:22.163|56=MA|10=037|8=FIX.4.4|9=55|35=0|34=209|49=MMMAQAUK|52=20181129-14:04:53.163|56=MA|10=043|8=FIX.4.4|9=55|35=0|34=210|49=MMMAQAUK|52=20181129-14:06:24.161|56=MA|10=033|8=FIX.4.4|9=55|35=0|34=211|49=MMMAQAUK|52=20181129-14:07:55.160|56=MA|10=038|8=FIX.4.4|9=55|35=0|34=212|49=MMMAQAUK|52=20181129-14:09:25.160|56=MA|10=038|8=FIX.4.4|9=55|35=0|34=213|49=MMMAQAUK|52=20181129-14:10:55.160|56=MA|10=034|8=FIX.4.4|9=55|35=0|34=214|49=MMMAQAUK|52=20181129-14:12:25.160|56=MA|10=034|8=FIX.4.4|9=55|35=0|34=215|49=MMMAQAUK|52=20181129-14:13:55.160|56=MA|10=039|8=FIX.4.4|9=55|35=0|34=216|49=MMMAQAUK|52=20181129-14:15:26.160|56=MA|10=040|8=FIX.4.4|9=55|35=0|34=217|49=MMMAQAUK|52=20181129-14:16:57.159|56=MA|10=054|8=FIX.4.4|9=55|35=0|34=218|49=MMMAQAUK|52=20181129-14:18:28.158|56=MA|10=054|8=FIX.4.4|9=55|35=0|34=219|49=MMMAQAUK|52=20181129-14:19:58.158|56=MA|10=059|8=FIX.4.4|9=55|35=0|34=220|49=MMMAQAUK|52=20181129-14:21:29.158|56=MA|10=042|8=FIX.4.4|9=55|35=0|34=221|49=MMMAQAUK|52=20181129-14:23:00.156|56=MA|10=032|8=FIX.4.4|9=55|35=0|34=222|49=MMMAQAUK|52=20181129-14:24:30.157|56=MA|10=038|8=FIX.4.4|9=55|35=0|34=223|49=MMMAQAUK|52=20181129-14:26:01.156|56=MA|10=038|8=FIX.4.4|9=55|35=0|34=224|49=MMMAQAUK|52=20181129-14:27:32.155|56=MA|10=043|8=FIX.4.4|9=55|35=0|34=225|49=MMMAQAUK|52=20181129-14:29:02.155|56=MA|10=043|8=FIX.4.4|9=55|35=0|34=226|49=MMMAQAUK|52=20181129-14:30:33.155|56=MA|10=040|8=FIX.4.4|9=55|35=0|34=227|49=MMMAQAUK|52=20181129-14:32:04.153|56=MA|10=039|8=FIX.4.4|9=55|35=0|34=228|49=MMMAQAUK|52=20181129-14:33:34.153|56=MA|10=044|8=FIX.4.4|9=55|35=0|34=229|49=MMMAQAUK|52=20181129-14:35:05.152|56=MA|10=044|8=FIX.4.4|9=55|35=0|34=230|49=MMMAQAUK|52=20181129-14:36:36.152|56=MA|10=041|8=FIX.4.4|9=55|35=0|34=231|49=MMMAQAUK|52=20181129-14:38:07.151|56=MA|10=041|8=FIX.4.4|9=55|35=0|34=232|49=MMMAQAUK|52=20181129-14:39:37.151|56=MA|10=046|8=FIX.4.4|9=55|35=0|34=233|49=MMMAQAUK|52=20181129-14:41:08.150|56=MA|10=037|8=FIX.4.4|9=55|35=0|34=234|49=MMMAQAUK|52=20181129-14:42:39.149|56=MA|10=051|8=FIX.4.4|9=55|35=0|34=235|49=MMMAQAUK|52=20181129-14:44:09.149|56=MA|10=051|8=FIX.4.4|9=55|35=0|34=236|49=MMMAQAUK|52=20181129-14:45:40.148|56=MA|10=047|8=FIX.4.4|9=55|35=0|34=237|49=MMMAQAUK|52=20181129-14:47:11.149|56=MA|10=049|8=FIX.4.4|9=55|35=0|34=238|49=MMMAQAUK|52=20181129-14:48:42.147|56=MA|10=053|8=FIX.4.4|9=55|35=0|34=239|49=MMMAQAUK|52=20181129-14:50:13.146|56=MA|10=044|8=FIX.4.4|9=55|35=0|34=240|49=MMMAQAUK|52=20181129-14:51:43.146|56=MA|10=040|8=FIX.4.4|9=55|35=0|34=241|49=MMMAQAUK|52=20181129-14:53:14.146|56=MA|10=041|8=FIX.4.4|9=55|35=0|34=242|49=MMMAQAUK|52=20181129-14:54:44.147|56=MA|10=047|8=FIX.4.4|9=55|35=0|34=243|49=MMMAQAUK|52=20181129-14:56:15.146|56=MA|10=047|8=FIX.4.4|9=55|35=0|34=244|49=MMMAQAUK|52=20181129-14:57:46.146|56=MA|10=053|8=FIX.4.4|9=55|35=0|34=245|49=MMMAQAUK|52=20181129-14:59:17.145|56=MA|10=053|8=FIX.4.4|9=55|35=0|34=246|49=MMMAQAUK|52=20181129-15:00:48.144|56=MA|10=044|8=FIX.4.4|9=55|35=0|34=247|49=MMMAQAUK|52=20181129-15:02:18.144|56=MA|10=044|8=FIX.4.4|9=55|35=0|34=248|49=MMMAQAUK|52=20181129-15:03:48.144|56=MA|10=049|8=FIX.4.4|9=55|35=0|34=249|49=MMMAQAUK|52=20181129-15:05:19.143|56=MA|10=049|8=FIX.4.4|9=55|35=0|34=250|49=MMMAQAUK|52=20181129-15:06:50.142|56=MA|10=036|8=FIX.4.4|9=55|35=0|34=251|49=MMMAQAUK|52=20181129-15:08:20.142|56=MA|10=036|8=FIX.4.4|9=55|35=0|34=252|49=MMMAQAUK|52=20181129-15:09:51.141|56=MA|10=041|8=FIX.4.4|9=55|35=0|34=253|49=MMMAQAUK|52=20181129-15:11:22.141|56=MA|10=033|8=FIX.4.4|9=55|35=0|34=254|49=MMMAQAUK|52=20181129-15:12:53.140|56=MA|10=038|8=FIX.4.4|9=55|35=0|34=255|49=MMMAQAUK|52=20181129-15:14:24.139|56=MA|10=047|8=FIX.4.4|9=55|35=0|34=256|49=MMMAQAUK|52=20181129-15:15:54.139|56=MA|10=052|8=FIX.4.4|9=55|35=0|34=257|49=MMMAQAUK|52=20181129-15:17:24.139|56=MA|10=052|8=FIX.4.4|9=55|35=0|34=258|49=MMMAQAUK|52=20181129-15:18:55.138|56=MA|10=057|8=FIX.4.4|9=55|35=0|34=259|49=MMMAQAUK|52=20181129-15:20:26.137|56=MA|10=048|8=FIX.4.4|9=55|35=0|34=260|49=MMMAQAUK|52=20181129-15:21:56.138|56=MA|10=045|8=FIX.4.4|9=55|35=0|34=261|49=MMMAQAUK|52=20181129-15:23:27.136|56=MA|10=044|8=FIX.4.4|9=55|35=0|34=262|49=MMMAQAUK|52=20181129-15:24:57.136|56=MA|10=049|8=FIX.4.4|9=55|35=0|34=263|49=MMMAQAUK|52=20181129-15:26:27.136|56=MA|10=049|8=FIX.4.4|9=55|35=0|34=264|49=MMMAQAUK|52=20181129-15:27:58.135|56=MA|10=054|8=FIX.4.4|9=55|35=0|34=265|49=MMMAQAUK|52=20181129-15:29:29.134|56=MA|10=054|8=FIX.4.4|9=55|35=0|34=266|49=MMMAQAUK|52=20181129-15:31:00.134|56=MA|10=037|8=FIX.4.4|9=55|35=0|34=267|49=MMMAQAUK|52=20181129-15:32:31.133|56=MA|10=042|8=FIX.4.4|9=55|35=0|34=268|49=MMMAQAUK|52=20181129-15:34:02.132|56=MA|10=042|8=FIX.4.4|9=55|35=0|34=269|49=MMMAQAUK|52=20181129-15:35:32.133|56=MA|10=048|8=FIX.4.4|9=55|35=0|34=270|49=MMMAQAUK|52=20181129-15:37:03.132|56=MA|10=039|8=FIX.4.4|9=55|35=0|34=271|49=MMMAQAUK|52=20181129-15:38:34.132|56=MA|10=045|8=FIX.4.4|9=55|35=0|34=272|49=MMMAQAUK|52=20181129-15:40:05.131|56=MA|10=036|8=FIX.4.4|9=55|35=0|34=273|49=MMMAQAUK|52=20181129-15:41:36.132|56=MA|10=043|8=FIX.4.4|9=55|35=0|34=274|49=MMMAQAUK|52=20181129-15:43:07.132|56=MA|10=044|8=FIX.4.4|9=55|35=0|34=275|49=MMMAQAUK|52=20181129-15:44:38.130|56=MA|10=048|8=FIX.4.4|9=55|35=0|34=276|49=MMMAQAUK|52=20181129-15:46:08.130|56=MA|10=048|8=FIX.4.4|9=55|35=0|34=277|49=MMMAQAUK|52=20181129-15:47:39.129|56=MA|10=062|8=FIX.4.4|9=55|35=0|34=278|49=MMMAQAUK|52=20181129-15:49:09.129|56=MA|10=062|8=FIX.4.4|9=55|35=0|34=279|49=MMMAQAUK|52=20181129-15:50:40.128|56=MA|10=049|8=FIX.4.4|9=55|35=0|34=280|49=MMMAQAUK|52=20181129-15:52:10.129|56=MA|10=041|8=FIX.4.4|9=55|35=0|34=281|49=MMMAQAUK|52=20181129-15:53:41.128|56=MA|10=046|8=FIX.4.4|9=55|35=0|34=282|49=MMMAQAUK|52=20181129-15:55:12.127|56=MA|10=046|8=FIX.4.4|9=55|35=0|34=283|49=MMMAQAUK|52=20181129-15:56:42.127|56=MA|10=051|8=FIX.4.4|9=55|35=0|34=284|49=MMMAQAUK|52=20181129-15:58:13.125|56=MA|10=050|8=FIX.4.4|9=55|35=0|34=285|49=MMMAQAUK|52=20181129-15:59:43.125|56=MA|10=055|8=FIX.4.4|9=55|35=0|34=286|49=MMMAQAUK|52=20181129-16:01:13.125|56=MA|10=041|8=FIX.4.4|9=55|35=0|34=287|49=MMMAQAUK|52=20181129-16:02:44.124|56=MA|10=046|8=FIX.4.4|9=55|35=0|34=288|49=MMMAQAUK|52=20181129-16:04:15.123|56=MA|10=046|8=FIX.4.4|9=55|35=0|34=289|49=MMMAQAUK|52=20181129-16:05:45.123|56=MA|10=051|8=FIX.4.4|9=55|35=0|34=290|49=MMMAQAUK|52=20181129-16:07:16.122|56=MA|10=042|8=FIX.4.4|9=55|35=0|34=291|49=MMMAQAUK|52=20181129-16:08:46.122|56=MA|10=047|8=FIX.4.4|9=55|35=0|34=292|49=MMMAQAUK|52=20181129-16:10:17.121|56=MA|10=038|8=FIX.4.4|9=55|35=0|34=293|49=MMMAQAUK|52=20181129-16:11:48.121|56=MA|10=044|8=FIX.4.4|9=55|35=0|34=294|49=MMMAQAUK|52=20181129-16:13:19.120|56=MA|10=044|8=FIX.4.4|9=55|35=0|34=295|49=MMMAQAUK|52=20181129-16:14:50.120|56=MA|10=041|8=FIX.4.4|9=55|35=0|34=296|49=MMMAQAUK|52=20181129-16:16:21.119|56=MA|10=050|8=FIX.4.4|9=55|35=0|34=297|49=MMMAQAUK|52=20181129-16:17:52.118|56=MA|10=055|8=FIX.4.4|9=55|35=0|34=298|49=MMMAQAUK|52=20181129-16:19:22.118|56=MA|10=055|8=FIX.4.4|9=55|35=0|34=299|49=MMMAQAUK|52=20181129-16:20:52.118|56=MA|10=051|8=FIX.4.4|9=55|35=0|34=300|49=MMMAQAUK|52=20181129-16:22:22.118|56=MA|10=033|8=FIX.4.4|9=55|35=0|34=301|49=MMMAQAUK|52=20181129-16:23:53.116|56=MA|10=037|8=FIX.4.4|9=55|35=0|34=302|49=MMMAQAUK|52=20181129-16:25:23.116|56=MA|10=037|8=FIX.4.4|9=55|35=0|34=303|49=MMMAQAUK|52=20181129-16:26:53.116|56=MA|10=042|8=FIX.4.4|9=55|35=0|34=304|49=MMMAQAUK|52=20181129-16:28:23.116|56=MA|10=042|8=FIX.4.4|9=55|35=0|34=305|49=MMMAQAUK|52=20181129-16:29:53.116|56=MA|10=047|8=FIX.4.4|9=55|35=0|34=306|49=MMMAQAUK|52=20181129-16:31:24.115|56=MA|10=038|8=FIX.4.4|9=55|35=0|34=307|49=MMMAQAUK|52=20181129-16:32:54.115|56=MA|10=043|8=FIX.4.4|9=55|35=0|34=308|49=MMMAQAUK|52=20181129-16:34:25.114|56=MA|10=043|8=FIX.4.4|9=55|35=0|34=309|49=MMMAQAUK|52=20181129-16:35:56.113|56=MA|10=048|8=FIX.4.4|9=55|35=0|34=310|49=MMMAQAUK|52=20181129-16:37:27.112|56=MA|10=039|8=FIX.4.4|9=55|35=0|34=311|49=MMMAQAUK|52=20181129-16:38:57.112|56=MA|10=044|8=FIX.4.4|9=55|35=0|34=312|49=MMMAQAUK|52=20181129-16:40:27.112|56=MA|10=035|8=FIX.4.4|9=55|35=0|34=313|49=MMMAQAUK|52=20181129-16:41:57.113|56=MA|10=041|8=FIX.4.4|9=55|35=0|34=314|49=MMMAQAUK|52=20181129-16:43:28.112|56=MA|10=041|8=FIX.4.4|9=55|35=0|34=315|49=MMMAQAUK|52=20181129-16:44:59.110|56=MA|10=045|8=FIX.4.4|9=55|35=0|34=316|49=MMMAQAUK|52=20181129-16:46:29.110|56=MA|10=045|8=FIX.4.4|9=55|35=0|34=317|49=MMMAQAUK|52=20181129-16:47:59.110|56=MA|10=050|8=FIX.4.4|9=55|35=0|34=318|49=MMMAQAUK|52=20181129-16:49:30.109|56=MA|10=050|8=FIX.4.4|9=55|35=0|34=319|49=MMMAQAUK|52=20181129-16:51:01.109|56=MA|10=042|8=FIX.4.4|9=55|35=0|34=320|49=MMMAQAUK|52=20181129-16:52:32.107|56=MA|10=037|8=FIX.4.4|9=55|35=0|34=321|49=MMMAQAUK|52=20181129-16:54:02.107|56=MA|10=037|8=FIX.4.4|9=55|35=0|34=322|49=MMMAQAUK|52=20181129-16:55:33.106|56=MA|10=042|8=FIX.4.4|9=55|35=0|34=323|49=MMMAQAUK|52=20181129-16:57:03.106|56=MA|10=042|8=FIX.4.4|9=55|35=0|34=324|49=MMMAQAUK|52=20181129-16:58:33.106|56=MA|10=047|8=FIX.4.4|9=55|35=0|34=325|49=MMMAQAUK|52=20181129-17:00:04.105|56=MA|10=033|8=FIX.4.4|9=55|35=0|34=326|49=MMMAQAUK|52=20181129-17:01:35.105|56=MA|10=039|8=FIX.4.4|9=55|35=0|34=327|49=MMMAQAUK|52=20181129-17:03:06.103|56=MA|10=038|8=FIX.4.4|9=55|35=0|34=328|49=MMMAQAUK|52=20181129-17:04:36.103|56=MA|10=043|8=FIX.4.4|9=55|35=0|34=329|49=MMMAQAUK|52=20181129-17:06:06.103|56=MA|10=043|8=FIX.4.4|9=55|35=0|34=330|49=MMMAQAUK|52=20181129-17:07:36.103|56=MA|10=039|8=FIX.4.4|9=55|35=0|34=331|49=MMMAQAUK|52=20181129-17:09:07.102|56=MA|10=039|8=FIX.4.4|9=55|35=0|34=332|49=MMMAQAUK|52=20181129-17:10:38.102|56=MA|10=036|8=FIX.4.4|9=55|35=0|34=333|49=MMMAQAUK|52=20181129-17:12:09.100|56=MA|10=035|8=FIX.4.4|9=55|35=0|34=334|49=MMMAQAUK|52=20181129-17:13:39.101|56=MA|10=041|8=FIX.4.4|9=55|35=0|34=335|49=MMMAQAUK|52=20181129-17:15:10.100|56=MA|10=032|8=FIX.4.4|9=55|35=0|34=336|49=MMMAQAUK|52=20181129-17:16:40.100|56=MA|10=037|8=FIX.4.4|9=55|35=0|34=337|49=MMMAQAUK|52=20181129-17:18:10.100|56=MA|10=037|8=FIX.4.4|9=55|35=0|34=338|49=MMMAQAUK|52=20181129-17:19:40.100|56=MA|10=042|8=FIX.4.4|9=55|35=0|34=339|49=MMMAQAUK|52=20181129-17:21:11.099|56=MA|10=051|8=FIX.4.4|9=55|35=0|34=340|49=MMMAQAUK|52=20181129-17:22:42.098|56=MA|10=047|8=FIX.4.4|9=55|35=0|34=341|49=MMMAQAUK|52=20181129-17:24:12.098|56=MA|10=047|8=FIX.4.4|9=55|35=0|34=342|49=MMMAQAUK|52=20181129-17:25:43.097|56=MA|10=052|8=FIX.4.4|9=55|35=0|34=343|49=MMMAQAUK|52=20181129-17:27:13.098|56=MA|10=053|8=FIX.4.4|9=55|35=0|34=344|49=MMMAQAUK|52=20181129-17:28:44.096|56=MA|10=057|8=FIX.4.4|9=55|35=0|34=345|49=MMMAQAUK|52=20181129-17:30:14.096|56=MA|10=048|8=FIX.4.4|9=55|35=0|34=346|49=MMMAQAUK|52=20181129-17:31:45.095|56=MA|10=053|8=FIX.4.4|9=55|35=0|34=347|49=MMMAQAUK|52=20181129-17:33:16.094|56=MA|10=053|8=FIX.4.4|9=55|35=0|34=348|49=MMMAQAUK|52=20181129-17:34:46.094|56=MA|10=058|8=FIX.4.4|9=55|35=0|34=349|49=MMMAQAUK|52=20181129-17:36:16.097|56=MA|10=061|8=FIX.4.4|9=55|35=0|34=350|49=MMMAQAUK|52=20181129-17:37:46.100|56=MA|10=042|8=FIX.4.4|9=55|35=0|34=351|49=MMMAQAUK|52=20181129-17:39:16.104|56=MA|10=046|8=FIX.4.4|9=55|35=0|34=352|49=MMMAQAUK|52=20181129-17:40:46.105|56=MA|10=043|8=FIX.4.4|9=55|35=0|34=353|49=MMMAQAUK|52=20181129-17:42:16.106|56=MA|10=044|8=FIX.4.4|9=55|35=0|34=354|49=MMMAQAUK|52=20181129-17:43:47.105|56=MA|10=049|8=FIX.4.4|9=55|35=0|34=355|49=MMMAQAUK|52=20181129-17:45:17.105|56=MA|10=049|8=FIX.4.4|9=55|35=0|34=356|49=MMMAQAUK|52=20181129-17:46:47.106|56=MA|10=055|8=FIX.4.4|9=55|35=0|34=357|49=MMMAQAUK|52=20181129-17:48:18.104|56=MA|10=054|8=FIX.4.4|9=55|35=0|34=358|49=MMMAQAUK|52=20181129-17:49:49.105|56=MA|10=061|8=FIX.4.4|9=55|35=0|34=359|49=MMMAQAUK|52=20181129-17:51:20.104|56=MA|10=043|8=FIX.4.4|9=55|35=0|34=360|49=MMMAQAUK|52=20181129-17:52:51.103|56=MA|10=039|8=FIX.4.4|9=55|35=0|34=361|49=MMMAQAUK|52=20181129-17:54:22.102|56=MA|10=039|8=FIX.4.4|9=55|35=0|34=362|49=MMMAQAUK|52=20181129-17:55:53.101|56=MA|10=044|8=FIX.4.4|9=55|35=0|34=363|49=MMMAQAUK|52=20181129-17:57:23.101|56=MA|10=044|8=FIX.4.4|9=55|35=0|34=364|49=MMMAQAUK|52=20181129-17:58:54.100|56=MA|10=049|8=FIX.4.4|9=55|35=0|34=365|49=MMMAQAUK|52=20181129-18:00:24.100|56=MA|10=035|8=FIX.4.4|9=55|35=0|34=366|49=MMMAQAUK|52=20181129-18:01:54.100|56=MA|10=040|8=FIX.4.4|9=55|35=0|34=367|49=MMMAQAUK|52=20181129-18:03:24.101|56=MA|10=041|8=FIX.4.4|9=55|35=0|34=368|49=MMMAQAUK|52=20181129-18:04:55.100|56=MA|10=046|8=FIX.4.4|9=55|35=0|34=369|49=MMMAQAUK|52=20181129-18:06:25.100|56=MA|10=046|8=FIX.4.4|9=55|35=0|34=370|49=MMMAQAUK|52=20181129-18:07:56.099|56=MA|10=060|8=FIX.4.4|9=55|35=0|34=371|49=MMMAQAUK|52=20181129-18:09:27.098|56=MA|10=060|8=FIX.4.4|9=55|35=0|34=372|49=MMMAQAUK|52=20181129-18:10:57.099|56=MA|10=057|8=FIX.4.4|9=55|35=0|34=373|49=MMMAQAUK|52=20181129-18:12:28.096|56=MA|10=055|8=FIX.4.4|9=55|35=0|34=374|49=MMMAQAUK|52=20181129-18:13:58.096|56=MA|10=060|8=FIX.4.4|9=55|35=0|34=375|49=MMMAQAUK|52=20181129-18:15:29.096|56=MA|10=061|8=FIX.4.4|9=55|35=0|34=376|49=MMMAQAUK|52=20181129-18:16:59.096|56=MA|10=066|8=FIX.4.4|9=55|35=0|34=377|49=MMMAQAUK|52=20181129-18:18:30.095|56=MA|10=057|8=FIX.4.4|9=55|35=0|34=378|49=MMMAQAUK|52=20181129-18:20:01.094|56=MA|10=048|8=FIX.4.4|9=55|35=0|34=379|49=MMMAQAUK|52=20181129-18:21:31.094|56=MA|10=053|8=FIX.4.4|9=55|35=0|34=380|49=MMMAQAUK|52=20181129-18:23:02.093|56=MA|10=044|8=FIX.4.4|9=55|35=0|34=381|49=MMMAQAUK|52=20181129-18:24:32.093|56=MA|10=049|8=FIX.4.4|9=55|35=0|34=382|49=MMMAQAUK|52=20181129-18:26:02.093|56=MA|10=049|8=FIX.4.4|9=55|35=0|34=383|49=MMMAQAUK|52=20181129-18:27:33.092|56=MA|10=054|8=FIX.4.4|9=55|35=0|34=384|49=MMMAQAUK|52=20181129-18:29:04.091|56=MA|10=054|8=FIX.4.4|9=55|35=0|34=385|49=MMMAQAUK|52=20181129-18:30:35.090|56=MA|10=050|8=FIX.4.4|9=55|35=0|34=386|49=MMMAQAUK|52=20181129-18:32:05.090|56=MA|10=050|8=FIX.4.4|9=55|35=0|34=387|49=MMMAQAUK|52=20181129-18:33:35.090|56=MA|10=055|8=FIX.4.4|9=55|35=0|34=388|49=MMMAQAUK|52=20181129-18:35:05.090|56=MA|10=055|8=FIX.4.4|9=55|35=0|34=389|49=MMMAQAUK|52=20181129-18:36:36.089|56=MA|10=069|8=FIX.4.4|9=55|35=0|34=390|49=MMMAQAUK|52=20181129-18:38:06.090|56=MA|10=052|8=FIX.4.4|9=55|35=0|34=391|49=MMMAQAUK|52=20181129-18:39:36.090|56=MA|10=057|8=FIX.4.4|9=55|35=0|34=392|49=MMMAQAUK|52=20181129-18:41:07.088|56=MA|10=056|8=FIX.4.4|9=55|35=0|34=393|49=MMMAQAUK|52=20181129-18:42:38.087|56=MA|10=061|8=FIX.4.4|9=55|35=0|34=394|49=MMMAQAUK|52=20181129-18:44:08.087|56=MA|10=061|8=FIX.4.4|9=55|35=0|34=395|49=MMMAQAUK|52=20181129-18:45:38.088|56=MA|10=067|8=FIX.4.4|9=55|35=0|34=396|49=MMMAQAUK|52=20181129-18:47:09.086|56=MA|10=066|8=FIX.4.4|9=55|35=0|34=397|49=MMMAQAUK|52=20181129-18:48:39.086|56=MA|10=071|8=FIX.4.4|9=55|35=0|34=398|49=MMMAQAUK|52=20181129-18:50:10.086|56=MA|10=054|8=FIX.4.4|9=55|35=0|34=399|49=MMMAQAUK|52=20181129-18:51:41.084|56=MA|10=058|8=FIX.4.4|9=55|35=0|34=400|49=MMMAQAUK|52=20181129-18:53:12.084|56=MA|10=041|8=FIX.4.4|9=55|35=0|34=401|49=MMMAQAUK|52=20181129-18:54:42.084|56=MA|10=046|8=FIX.4.4|9=55|35=0|34=402|49=MMMAQAUK|52=20181129-18:56:12.084|56=MA|10=046|8=FIX.4.4|9=55|35=0|34=403|49=MMMAQAUK|52=20181129-18:57:43.082|56=MA|10=050|8=FIX.4.4|9=55|35=0|34=404|49=MMMAQAUK|52=20181129-18:59:14.082|56=MA|10=051|8=FIX.4.4|9=55|35=0|34=405|49=MMMAQAUK|52=20181129-19:00:45.081|56=MA|10=042|8=FIX.4.4|9=55|35=0|34=406|49=MMMAQAUK|52=20181129-19:02:15.081|56=MA|10=042|8=FIX.4.4|9=55|35=0|34=407|49=MMMAQAUK|52=20181129-19:03:46.079|56=MA|10=055|8=FIX.4.4|9=55|35=0|34=408|49=MMMAQAUK|52=20181129-19:05:16.080|56=MA|10=047|8=FIX.4.4|9=55|35=0|34=409|49=MMMAQAUK|52=20181129-19:06:46.080|56=MA|10=052|8=FIX.4.4|9=55|35=0|34=410|49=MMMAQAUK|52=20181129-19:08:17.078|56=MA|10=051|8=FIX.4.4|9=55|35=0|34=411|49=MMMAQAUK|52=20181129-19:09:47.078|56=MA|10=056|8=FIX.4.4|9=55|35=0|34=412|49=MMMAQAUK|52=20181129-19:11:17.078|56=MA|10=047|8=FIX.4.4|9=55|35=0|34=413|49=MMMAQAUK|52=20181129-19:12:48.077|56=MA|10=052|8=FIX.4.4|9=55|35=0|34=414|49=MMMAQAUK|52=20181129-19:14:19.076|56=MA|10=052|8=FIX.4.4|9=55|35=0|34=415|49=MMMAQAUK|52=20181129-19:15:49.076|56=MA|10=057|8=FIX.4.4|9=55|35=0|34=416|49=MMMAQAUK|52=20181129-19:17:20.076|56=MA|10=049|8=FIX.4.4|9=55|35=0|34=417|49=MMMAQAUK|52=20181129-19:18:50.077|56=MA|10=055|8=FIX.4.4|9=55|35=0|34=418|49=MMMAQAUK|52=20181129-19:20:20.077|56=MA|10=046|8=FIX.4.4|9=55|35=0|34=419|49=MMMAQAUK|52=20181129-19:21:50.078|56=MA|10=052|8=FIX.4.4|9=55|35=0|34=420|49=MMMAQAUK|52=20181129-19:23:21.078|56=MA|10=044|8=FIX.4.4|9=55|35=0|34=421|49=MMMAQAUK|52=20181129-19:24:51.078|56=MA|10=049|8=FIX.4.4|9=55|35=0|34=422|49=MMMAQAUK|52=20181129-19:26:22.077|56=MA|10=049|8=FIX.4.4|9=55|35=0|34=423|49=MMMAQAUK|52=20181129-19:27:52.078|56=MA|10=055|8=FIX.4.4|9=55|35=0|34=424|49=MMMAQAUK|52=20181129-19:29:22.078|56=MA|10=055|8=FIX.4.4|9=55|35=0|34=425|49=MMMAQAUK|52=20181129-19:30:53.077|56=MA|10=051|8=FIX.4.4|9=55|35=0|34=426|49=MMMAQAUK|52=20181129-19:32:23.077|56=MA|10=051|8=FIX.4.4|9=55|35=0|34=427|49=MMMAQAUK|52=20181129-19:33:54.076|56=MA|10=056|8=FIX.4.4|9=55|35=0|34=428|49=MMMAQAUK|52=20181129-19:35:25.076|56=MA|10=057|8=FIX.4.4|9=55|35=0|34=429|49=MMMAQAUK|52=20181129-19:36:56.075|56=MA|10=062|8=FIX.4.4|9=55|35=0|34=430|49=MMMAQAUK|52=20181129-19:38:26.075|56=MA|10=053|8=FIX.4.4|9=55|35=0|34=431|49=MMMAQAUK|52=20181129-19:39:56.075|56=MA|10=058|8=FIX.4.4|9=55|35=0|34=432|49=MMMAQAUK|52=20181129-19:41:27.073|56=MA|10=048|8=FIX.4.4|9=55|35=0|34=433|49=MMMAQAUK|52=20181129-19:42:57.073|56=MA|10=053|8=FIX.4.4|9=55|35=0|34=434|49=MMMAQAUK|52=20181129-19:44:28.072|56=MA|10=053|8=FIX.4.4|9=55|35=0|34=435|49=MMMAQAUK|52=20181129-19:45:59.071|56=MA|10=058|8=FIX.4.4|9=55|35=0|34=436|49=MMMAQAUK|52=20181129-19:47:29.071|56=MA|10=058|8=FIX.4.4|9=55|35=0|34=437|49=MMMAQAUK|52=20181129-19:48:59.071|56=MA|10=063|8=FIX.4.4|9=55|35=0|34=438|49=MMMAQAUK|52=20181129-19:50:29.071|56=MA|10=054|8=FIX.4.4|9=55|35=0|34=439|49=MMMAQAUK|52=20181129-19:52:00.069|56=MA|10=053|8=FIX.4.4|9=55|35=0|34=440|49=MMMAQAUK|52=20181129-19:53:31.069|56=MA|10=050|8=FIX.4.4|9=55|35=0|34=441|49=MMMAQAUK|52=20181129-19:55:01.069|56=MA|10=050|8=FIX.4.4|9=55|35=0|34=442|49=MMMAQAUK|52=20181129-19:56:32.067|56=MA|10=054|8=FIX.4.4|9=55|35=0|34=443|49=MMMAQAUK|52=20181129-19:58:02.067|56=MA|10=054|8=FIX.4.4|9=55|35=0|34=444|49=MMMAQAUK|52=20181129-19:59:32.067|56=MA|10=059|8=FIX.4.4|9=55|35=0|34=445|49=MMMAQAUK|52=20181129-20:01:02.067|56=MA|10=036|8=FIX.4.4|9=55|35=0|34=446|49=MMMAQAUK|52=20181129-20:02:32.067|56=MA|10=041|8=FIX.4.4|9=55|35=0|34=447|49=MMMAQAUK|52=20181129-20:04:02.067|56=MA|10=041|8=FIX.4.4|9=55|35=0|34=448|49=MMMAQAUK|52=20181129-20:05:33.067|56=MA|10=047|8=FIX.4.4|9=55|35=0|34=449|49=MMMAQAUK|52=20181129-20:07:04.066|56=MA|10=047|8=FIX.4.4|9=55|35=0|34=450|49=MMMAQAUK|52=20181129-20:08:35.066|56=MA|10=044|8=FIX.4.4|9=55|35=0|34=451|49=MMMAQAUK|52=20181129-20:10:06.065|56=MA|10=035|8=FIX.4.4|9=55|35=0|34=452|49=MMMAQAUK|52=20181129-20:11:37.064|56=MA|10=040|8=FIX.4.4|9=55|35=0|34=453|49=MMMAQAUK|52=20181129-20:13:08.064|56=MA|10=041|8=FIX.4.4|9=55|35=0|34=454|49=MMMAQAUK|52=20181129-20:14:38.064|56=MA|10=046|8=FIX.4.4|9=55|35=0|34=455|49=MMMAQAUK|52=20181129-20:16:09.064|56=MA|10=047|8=FIX.4.4|9=55|35=0|34=456|49=MMMAQAUK|52=20181129-20:17:40.062|56=MA|10=042|8=FIX.4.4|9=55|35=0|34=457|49=MMMAQAUK|52=20181129-20:19:11.061|56=MA|10=042|8=FIX.4.4|9=55|35=0|34=458|49=MMMAQAUK|52=20181129-20:20:41.061|56=MA|10=038|8=FIX.4.4|9=55|35=0|34=459|49=MMMAQAUK|52=20181129-20:22:11.061|56=MA|10=038|8=FIX.4.4|9=55|35=0|34=460|49=MMMAQAUK|52=20181129-20:23:42.060|56=MA|10=034|8=FIX.4.4|9=55|35=0|34=461|49=MMMAQAUK|52=20181129-20:25:12.060|56=MA|10=034|8=FIX.4.4|9=55|35=0|34=462|49=MMMAQAUK|52=20181129-20:26:43.058|56=MA|10=047|8=FIX.4.4|9=55|35=0|34=463|49=MMMAQAUK|52=20181129-20:28:13.058|56=MA|10=047|8=FIX.4.4|9=55|35=0|34=464|49=MMMAQAUK|52=20181129-20:29:43.058|56=MA|10=052|8=FIX.4.4|9=55|35=0|34=465|49=MMMAQAUK|52=20181129-20:31:14.057|56=MA|10=043|8=FIX.4.4|9=55|35=0|34=466|49=MMMAQAUK|52=20181129-20:32:44.057|56=MA|10=048|8=FIX.4.4|9=55|35=0|34=467|49=MMMAQAUK|52=20181129-20:34:15.056|56=MA|10=048|8=FIX.4.4|9=55|35=0|34=468|49=MMMAQAUK|52=20181129-20:35:46.055|56=MA|10=053|8=FIX.4.4|9=55|35=0|34=469|49=MMMAQAUK|52=20181129-20:37:16.055|56=MA|10=053|8=FIX.4.4|9=55|35=0|34=470|49=MMMAQAUK|52=20181129-20:38:47.055|56=MA|10=050|8=FIX.4.4|9=55|35=0|34=471|49=MMMAQAUK|52=20181129-20:40:18.054|56=MA|10=041|8=FIX.4.4|9=55|35=0|34=472|49=MMMAQAUK|52=20181129-20:41:48.054|56=MA|10=046|8=FIX.4.4|9=55|35=0|34=473|49=MMMAQAUK|52=20181129-20:43:18.054|56=MA|10=046|8=FIX.4.4|9=55|35=0|34=474|49=MMMAQAUK|52=20181129-20:44:48.054|56=MA|10=051|8=FIX.4.4|9=55|35=0|34=475|49=MMMAQAUK|52=20181129-20:46:19.054|56=MA|10=052|8=FIX.4.4|9=55|35=0|34=476|49=MMMAQAUK|52=20181129-20:47:50.052|56=MA|10=047|8=FIX.4.4|9=55|35=0|34=477|49=MMMAQAUK|52=20181129-20:49:20.052|56=MA|10=047|8=FIX.4.4|9=55|35=0|34=478|49=MMMAQAUK|52=20181129-20:50:51.052|56=MA|10=044|8=FIX.4.4|9=55|35=0|34=479|49=MMMAQAUK|52=20181129-20:52:22.051|56=MA|10=044|8=FIX.4.4|9=55|35=0|34=480|49=MMMAQAUK|52=20181129-20:53:52.051|56=MA|10=040|8=FIX.4.4|9=55|35=0|34=481|49=MMMAQAUK|52=20181129-20:55:23.050|56=MA|10=040|8=FIX.4.4|9=55|35=0|34=482|49=MMMAQAUK|52=20181129-20:56:54.049|56=MA|10=054|8=FIX.4.4|9=55|35=0|34=483|49=MMMAQAUK|52=20181129-20:58:25.049|56=MA|10=055|8=FIX.4.4|9=55|35=0|34=484|49=MMMAQAUK|52=20181129-20:59:56.048|56=MA|10=060|8=FIX.4.4|9=55|35=0|34=485|49=MMMAQAUK|52=20181129-21:01:27.048|56=MA|10=047|8=FIX.4.4|9=55|35=0|34=486|49=MMMAQAUK|52=20181129-21:02:58.047|56=MA|10=052|8=FIX.4.4|9=55|35=0|34=487|49=MMMAQAUK|52=20181129-21:04:28.047|56=MA|10=052|8=FIX.4.4|9=55|35=0|34=488|49=MMMAQAUK|52=20181129-21:05:59.046|56=MA|10=057|8=FIX.4.4|9=55|35=0|34=489|49=MMMAQAUK|52=20181129-21:07:29.047|56=MA|10=058|8=FIX.4.4|9=55|35=0|34=490|49=MMMAQAUK|52=20181129-21:09:00.046|56=MA|10=040|8=FIX.4.4|9=55|35=0|34=491|49=MMMAQAUK|52=20181129-21:10:31.044|56=MA|10=035|8=FIX.4.4|9=55|35=0|34=492|49=MMMAQAUK|52=20181129-21:12:02.044|56=MA|10=036|8=FIX.4.4|9=55|35=0|34=493|49=MMMAQAUK|52=20181129-21:13:33.043|56=MA|10=041|8=FIX.4.4|9=55|35=0|34=494|49=MMMAQAUK|52=20181129-21:15:03.043|56=MA|10=041|8=FIX.4.4|9=55|35=0|34=495|49=MMMAQAUK|52=20181129-21:16:33.043|56=MA|10=046|8=FIX.4.4|9=55|35=0|34=496|49=MMMAQAUK|52=20181129-21:18:04.041|56=MA|10=045|8=FIX.4.4|9=55|35=0|34=497|49=MMMAQAUK|52=20181129-21:19:34.041|56=MA|10=050|8=FIX.4.4|9=55|35=0|34=498|49=MMMAQAUK|52=20181129-21:21:04.041|56=MA|10=041|8=FIX.4.4|9=55|35=0|34=499|49=MMMAQAUK|52=20181129-21:22:34.042|56=MA|10=047|8=FIX.4.4|9=55|35=0|34=500|49=MMMAQAUK|52=20181129-21:24:05.041|56=MA|10=029|8=FIX.4.4|9=55|35=0|34=501|49=MMMAQAUK|52=20181129-21:25:36.040|56=MA|10=034|8=FIX.4.4|9=55|35=0|34=502|49=MMMAQAUK|52=20181129-21:27:06.041|56=MA|10=035|8=FIX.4.4|9=55|35=0|34=503|49=MMMAQAUK|52=20181129-21:28:37.040|56=MA|10=040|8=FIX.4.4|9=55|35=0|34=504|49=MMMAQAUK|52=20181129-21:30:07.040|56=MA|10=031|8=FIX.4.4|9=55|35=0|34=505|49=MMMAQAUK|52=20181129-21:31:38.038|56=MA|10=044|8=FIX.4.4|9=55|35=0|34=506|49=MMMAQAUK|52=20181129-21:33:08.038|56=MA|10=044|8=FIX.4.4|9=55|35=0|34=507|49=MMMAQAUK|52=20181129-21:34:38.038|56=MA|10=049|8=FIX.4.4|9=55|35=0|34=508|49=MMMAQAUK|52=20181129-21:36:08.038|56=MA|10=049|8=FIX.4.4|9=55|35=0|34=509|49=MMMAQAUK|52=20181129-21:37:39.036|56=MA|10=053|8=FIX.4.4|9=55|35=0|34=510|49=MMMAQAUK|52=20181129-21:39:09.036|56=MA|10=044|8=FIX.4.4|9=55|35=0|34=511|49=MMMAQAUK|52=20181129-21:40:39.036|56=MA|10=040|8=FIX.4.4|9=55|35=0|34=512|49=MMMAQAUK|52=20181129-21:42:10.035|56=MA|10=031|8=FIX.4.4|9=55|35=0|34=513|49=MMMAQAUK|52=20181129-21:43:41.034|56=MA|10=036|8=FIX.4.4|9=55|35=0|34=514|49=MMMAQAUK|52=20181129-21:45:12.033|56=MA|10=036|8=FIX.4.4|9=55|35=0|34=515|49=MMMAQAUK|52=20181129-21:46:43.034|56=MA|10=043|8=FIX.4.4|9=55|35=0|34=516|49=MMMAQAUK|52=20181129-21:48:14.032|56=MA|10=042|8=FIX.4.4|9=55|35=0|34=517|49=MMMAQAUK|52=20181129-21:49:45.031|56=MA|10=047|8=FIX.4.4|9=55|35=0|34=518|49=MMMAQAUK|52=20181129-21:51:15.032|56=MA|10=039|8=FIX.4.4|9=55|35=0|34=519|49=MMMAQAUK|52=20181129-21:52:46.031|56=MA|10=044|8=FIX.4.4|9=55|35=0|34=520|49=MMMAQAUK|52=20181129-21:54:17.030|56=MA|10=035|8=FIX.4.4|9=55|35=0|34=521|49=MMMAQAUK|52=20181129-21:55:47.030|56=MA|10=040|8=FIX.4.4|9=55|35=0|34=522|49=MMMAQAUK|52=20181129-21:57:18.029|56=MA|10=049|8=FIX.4.4|9=55|35=0|34=523|49=MMMAQAUK|52=20181129-21:58:49.030|56=MA|10=047|8=FIX.4.4|9=55|35=0|34=524|49=MMMAQAUK|52=20181129-22:00:20.028|56=MA|10=032|8=FIX.4.4|9=55|35=0|34=525|49=MMMAQAUK|52=20181129-22:01:50.029|56=MA|10=038|8=FIX.4.4|9=55|35=0|34=526|49=MMMAQAUK|52=20181129-22:03:21.028|56=MA|10=038|8=FIX.4.4|9=55|35=0|34=527|49=MMMAQAUK|52=20181129-22:04:51.029|56=MA|10=044|8=FIX.4.4|9=55|35=0|34=528|49=MMMAQAUK|52=20181129-22:06:22.028|56=MA|10=044|8=FIX.4.4|9=55|35=0|34=529|49=MMMAQAUK|52=20181129-22:07:53.027|56=MA|10=049|8=FIX.4.4|9=55|35=0|34=530|49=MMMAQAUK|52=20181129-22:09:23.028|56=MA|10=041|8=FIX.4.4|9=55|35=0|34=531|49=MMMAQAUK|52=20181129-22:10:54.027|56=MA|10=037|8=FIX.4.4|9=55|35=0|34=532|49=MMMAQAUK|52=20181129-22:12:25.025|56=MA|10=036|8=FIX.4.4|9=55|35=0|34=533|49=MMMAQAUK|52=20181129-22:13:56.024|56=MA|10=041|8=FIX.4.4|9=55|35=0|34=534|49=MMMAQAUK|52=20181129-22:15:26.024|56=MA|10=041|8=FIX.4.4|9=55|35=0|34=535|49=MMMAQAUK|52=20181129-22:16:56.024|56=MA|10=046|8=FIX.4.4|9=55|35=0|34=536|49=MMMAQAUK|52=20181129-22:18:27.023|56=MA|10=046|8=FIX.4.4|9=55|35=0|34=537|49=MMMAQAUK|52=20181129-22:19:58.022|56=MA|10=051|8=FIX.4.4|9=55|35=0|34=538|49=MMMAQAUK|52=20181129-22:21:28.022|56=MA|10=042|8=FIX.4.4|9=55|35=0|34=539|49=MMMAQAUK|52=20181129-22:22:58.022|56=MA|10=047|8=FIX.4.4|9=55|35=0|34=540|49=MMMAQAUK|52=20181129-22:24:29.022|56=MA|10=039|8=FIX.4.4|9=55|35=0|34=541|49=MMMAQAUK|52=20181129-22:26:00.020|56=MA|10=029|8=FIX.4.4|9=55|35=0|34=542|49=MMMAQAUK|52=20181129-22:27:31.021|56=MA|10=036|8=FIX.4.4|9=55|35=0|34=543|49=MMMAQAUK|52=20181129-22:29:02.020|56=MA|10=036|8=FIX.4.4|9=55|35=0|34=544|49=MMMAQAUK|52=20181129-22:30:33.019|56=MA|10=041|8=FIX.4.4|9=55|35=0|34=545|49=MMMAQAUK|52=20181129-22:32:03.019|56=MA|10=041|8=FIX.4.4|9=55|35=0|34=546|49=MMMAQAUK|52=20181129-22:33:33.019|56=MA|10=046|8=FIX.4.4|9=55|35=0|34=547|49=MMMAQAUK|52=20181129-22:35:04.017|56=MA|10=045|8=FIX.4.4|9=55|35=0|34=548|49=MMMAQAUK|52=20181129-22:36:34.017|56=MA|10=050|8=FIX.4.4|9=55|35=0|34=549|49=MMMAQAUK|52=20181129-22:38:05.016|56=MA|10=050|8=FIX.4.4|9=55|35=0|34=550|49=MMMAQAUK|52=20181129-22:39:35.017|56=MA|10=047|8=FIX.4.4|9=55|35=0|34=551|49=MMMAQAUK|52=20181129-22:41:06.015|56=MA|10=037|8=FIX.4.4|9=55|35=0|34=552|49=MMMAQAUK|52=20181129-22:42:36.015|56=MA|10=042|8=FIX.4.4|9=55|35=0|34=553|49=MMMAQAUK|52=20181129-22:44:06.017|56=MA|10=044|8=FIX.4.4|9=55|35=0|34=554|49=MMMAQAUK|52=20181129-22:45:37.015|56=MA|10=048|8=FIX.4.4|9=55|35=0|34=555|49=MMMAQAUK|52=20181129-22:47:08.015|56=MA|10=049|8=FIX.4.4|9=55|35=0|34=556|49=MMMAQAUK|52=20181129-22:48:39.014|56=MA|10=054|8=FIX.4.4|9=55|35=0|34=557|49=MMMAQAUK|52=20181129-22:50:09.014|56=MA|10=045|8=FIX.4.4|9=55|35=0|34=558|49=MMMAQAUK|52=20181129-22:51:40.013|56=MA|10=041|8=FIX.4.4|9=55|35=0|34=559|49=MMMAQAUK|52=20181129-22:53:11.012|56=MA|10=041|8=FIX.4.4|9=55|35=0|34=560|49=MMMAQAUK|52=20181129-22:54:42.011|56=MA|10=037|8=FIX.4.4|9=55|35=0|34=561|49=MMMAQAUK|52=20181129-22:56:12.011|56=MA|10=037|8=FIX.4.4|9=55|35=0|34=562|49=MMMAQAUK|52=20181129-22:57:43.012|56=MA|10=044|8=FIX.4.4|9=55|35=0|34=563|49=MMMAQAUK|52=20181129-22:59:14.010|56=MA|10=043|8=FIX.4.4|9=55|35=0|34=564|49=MMMAQAUK|52=20181129-23:00:44.010|56=MA|10=034|8=FIX.4.4|9=55|35=0|34=565|49=MMMAQAUK|52=20181129-23:02:14.014|56=MA|10=038|8=FIX.4.4|9=55|35=0|34=566|49=MMMAQAUK|52=20181129-23:03:44.014|56=MA|10=043|8=FIX.4.4|9=55|35=5|34=567|49=MMMAQAUK|52=20181129-23:05:02.181|56=MA|10=050|8=FIX.4.4|9=84|35=A|34=568|49=MMMAQAUK|52=20181130-09:04:46.785|56=MA|98=0|108=90|95=8|96=3.0.0rc4|10=246|8=FIX.4.4|9=106|35=5|34=569|49=MMMAQAUK|52=20181130-09:04:47.372|56=MA|58=MsgSeqNum too low, expecting 578 but received 1|10=112|8=FIX.4.4|9=84|35=A|34=578|49=MMMAQAUK|52=20181130-09:05:48.783|56=MA|98=0|108=90|95=8|96=3.0.0rc4|10=248|8=FIX.4.4|9=64|35=2|34=579|49=MMMAQAUK|52=20181130-09:05:49.369|56=MA|7=1|16=0|10=188|8=FIX.4.4|9=64|35=2|34=580|49=MMMAQAUK|52=20181130-09:05:49.458|56=MA|7=6|16=0|10=184|8=FIX.4.4|9=55|35=0|34=581|49=MMMAQAUK|52=20181130-09:07:19.787|56=MA|10=059|8=FIX.4.4|9=55|35=0|34=582|49=MMMAQAUK|52=20181130-09:08:49.797|56=MA|10=065|8=FIX.4.4|9=55|35=0|34=583|49=MMMAQAUK|52=20181130-09:10:20.520|56=MA|10=032|8=FIX.4.4|9=55|35=0|34=584|49=MMMAQAUK|52=20181130-09:11:50.657|56=MA|10=048|8=FIX.4.4|9=55|35=0|34=585|49=MMMAQAUK|52=20181130-09:13:20.782|56=MA|10=047|8=FIX.4.4|9=55|35=0|34=586|49=MMMAQAUK|52=20181130-09:14:50.787|56=MA|10=057|8=FIX.4.4|9=55|35=0|34=587|49=MMMAQAUK|52=20181130-09:16:20.795|56=MA|10=056|8=FIX.4.4|9=55|35=0|34=588|49=MMMAQAUK|52=20181130-09:17:51.786|56=MA|10=062|8=FIX.4.4|9=55|35=0|34=589|49=MMMAQAUK|52=20181130-09:19:21.787|56=MA|10=063|8=FIX.4.4|9=55|35=0|34=590|49=MMMAQAUK|52=20181130-09:20:51.791|56=MA|10=045|8=FIX.4.4|9=55|35=0|34=591|49=MMMAQAUK|52=20181130-09:22:22.520|56=MA|10=036|8=FIX.4.4|9=55|35=0|34=592|49=MMMAQAUK|52=20181130-09:23:52.530|56=MA|10=042|8=FIX.4.4|9=55|35=0|34=593|49=MMMAQAUK|52=20181130-09:25:22.655|56=MA|10=050|8=FIX.4.4|9=55|35=0|34=594|49=MMMAQAUK|52=20181130-09:26:52.777|56=MA|10=060|8=FIX.4.4|9=55|35=0|34=595|49=MMMAQAUK|52=20181130-09:28:22.792|56=MA|10=057|8=FIX.4.4|9=55|35=0|34=596|49=MMMAQAUK|52=20181130-09:29:53.636|56=MA|10=060|8=FIX.4.4|9=55|35=0|34=597|49=MMMAQAUK|52=20181130-09:31:23.783|56=MA|10=054|8=FIX.4.4|9=55|35=0|34=598|49=MMMAQAUK|52=20181130-09:32:54.655|56=MA|10=058|8=FIX.4.4|9=55|35=0|34=599|49=MMMAQAUK|52=20181130-09:34:24.656|56=MA|10=059|8=FIX.4.4|9=55|35=0|34=600|49=MMMAQAUK|52=20181130-09:35:54.774|56=MA|10=047|8=FIX.4.4|9=55|35=0|34=601|49=MMMAQAUK|52=20181130-09:37:24.774|56=MA|10=047|8=FIX.4.4|9=55|35=0|34=602|49=MMMAQAUK|52=20181130-09:38:55.523|56=MA|10=045|8=FIX.4.4|9=55|35=0|34=603|49=MMMAQAUK|52=20181130-09:40:25.648|56=MA|10=044|8=FIX.4.4|9=55|35=0|34=604|49=MMMAQAUK|52=20181130-09:41:55.652|56=MA|10=044|8=FIX.4.4|9=55|35=0|34=605|49=MMMAQAUK|52=20181130-09:43:25.772|56=MA|10=047|8=FIX.4.4|9=55|35=0|34=606|49=MMMAQAUK|52=20181130-09:44:55.783|56=MA|10=054|8=FIX.4.4|9=55|35=0|34=607|49=MMMAQAUK|52=20181130-09:46:25.783|56=MA|10=054|8=FIX.4.4|9=55|35=0|34=608|49=MMMAQAUK|52=20181130-09:47:55.783|56=MA|10=059|8=FIX.4.4|9=55|35=0|34=609|49=MMMAQAUK|52=20181130-09:49:26.779|56=MA|10=065|8=FIX.4.4|9=55|35=0|34=610|49=MMMAQAUK|52=20181130-09:50:57.780|56=MA|10=045|8=FIX.4.4|9=55|35=0|34=611|49=MMMAQAUK|52=20181130-09:52:28.516|56=MA|10=043|8=FIX.4.4|9=55|35=0|34=612|49=MMMAQAUK|52=20181130-09:53:58.768|56=MA|10=057|8=FIX.4.4|9=55|35=0|34=613|49=MMMAQAUK|52=20181130-09:55:29.767|56=MA|10=057|8=FIX.4.4|9=55|35=0|34=614|49=MMMAQAUK|52=20181130-09:56:59.776|56=MA|10=062|8=FIX.4.4|9=55|35=0|34=615|49=MMMAQAUK|52=20181130-09:58:30.778|56=MA|10=056|8=FIX.4.4|9=55|35=0|34=616|49=MMMAQAUK|52=20181130-10:00:00.779|56=MA|10=034|8=FIX.4.4|9=55|35=0|34=617|49=MMMAQAUK|52=20181130-10:01:31.530|56=MA|10=025|8=FIX.4.4|9=55|35=0|34=618|49=MMMAQAUK|52=20181130-10:03:01.659|56=MA|10=037|8=FIX.4.4|9=55|35=0|34=619|49=MMMAQAUK|52=20181130-10:04:31.766|56=MA|10=041|8=FIX.4.4|9=55|35=0|34=620|49=MMMAQAUK|52=20181130-10:06:02.662|56=MA|10=028|8=FIX.4.4|9=55|35=0|34=621|49=MMMAQAUK|52=20181130-10:07:32.765|56=MA|10=037|8=FIX.4.4|9=55|35=0|34=622|49=MMMAQAUK|52=20181130-10:09:03.554|56=MA|10=034|8=FIX.4.4|9=55|35=0|34=623|49=MMMAQAUK|52=20181130-10:10:33.633|56=MA|10=028|8=FIX.4.4|9=55|35=0|34=624|49=MMMAQAUK|52=20181130-10:12:03.646|56=MA|10=032|8=FIX.4.4|9=55|35=0|34=625|49=MMMAQAUK|52=20181130-10:13:33.762|56=MA|10=036|8=FIX.4.4|9=55|35=0|34=626|49=MMMAQAUK|52=20181130-10:15:03.762|56=MA|10=036|8=FIX.4.4|9=55|35=0|34=627|49=MMMAQAUK|52=20181130-10:16:34.761|56=MA|10=041|8=FIX.4.4|9=55|35=0|34=628|49=MMMAQAUK|52=20181130-10:18:04.761|56=MA|10=041|8=FIX.4.4|9=55|35=0|34=629|49=MMMAQAUK|52=20181130-10:19:35.760|56=MA|10=046|8=FIX.4.4|9=55|35=0|34=630|49=MMMAQAUK|52=20181130-10:21:06.760|56=MA|10=029|8=FIX.4.4|9=55|35=0|34=631|49=MMMAQAUK|52=20181130-10:22:37.759|56=MA|10=043|8=FIX.4.4|9=55|35=0|34=632|49=MMMAQAUK|52=20181130-10:24:08.628|56=MA|10=039|8=FIX.4.4|9=55|35=0|34=633|49=MMMAQAUK|52=20181130-10:25:38.758|56=MA|10=048|8=FIX.4.4|9=55|35=0|34=634|49=MMMAQAUK|52=20181130-10:27:08.758|56=MA|10=048|8=FIX.4.4|9=55|35=0|34=635|49=MMMAQAUK|52=20181130-10:28:39.757|56=MA|10=053|8=FIX.4.4|9=55|35=0|34=636|49=MMMAQAUK|52=20181130-10:30:09.850|56=MA|10=038|8=FIX.4.4|9=55|35=0|34=637|49=MMMAQAUK|52=20181130-10:31:40.658|56=MA|10=041|8=FIX.4.4|9=55|35=0|34=638|49=MMMAQAUK|52=20181130-10:33:10.755|56=MA|10=039|8=FIX.4.4|9=55|35=0|34=639|49=MMMAQAUK|52=20181130-10:34:40.755|56=MA|10=044|8=FIX.4.4|9=55|35=0|34=640|49=MMMAQAUK|52=20181130-10:36:10.756|56=MA|10=036|8=FIX.4.4|9=55|35=0|34=641|49=MMMAQAUK|52=20181130-10:37:41.725|56=MA|10=038|8=FIX.4.4|9=55|35=0|34=642|49=MMMAQAUK|52=20181130-10:39:11.755|56=MA|10=041|8=FIX.4.4|9=55|35=0|34=643|49=MMMAQAUK|52=20181130-10:40:41.755|56=MA|10=037|8=FIX.4.4|9=55|35=0|34=644|49=MMMAQAUK|52=20181130-10:42:12.632|56=MA|10=032|8=FIX.4.4|9=55|35=0|34=645|49=MMMAQAUK|52=20181130-10:43:42.656|56=MA|10=043|8=FIX.4.4|9=55|35=0|34=646|49=MMMAQAUK|52=20181130-10:45:12.753|56=MA|10=041|8=FIX.4.4|9=55|35=0|34=647|49=MMMAQAUK|52=20181130-10:46:42.753|56=MA|10=046|8=FIX.4.4|9=55|35=0|34=648|49=MMMAQAUK|52=20181130-10:48:13.751|56=MA|10=045|8=FIX.4.4|9=55|35=0|34=649|49=MMMAQAUK|52=20181130-10:49:43.751|56=MA|10=050|8=FIX.4.4|9=55|35=0|34=650|49=MMMAQAUK|52=20181130-10:51:14.751|56=MA|10=033|8=FIX.4.4|9=55|35=0|34=651|49=MMMAQAUK|52=20181130-10:52:45.750|56=MA|10=038|8=FIX.4.4|9=55|35=0|34=652|49=MMMAQAUK|52=20181130-10:54:16.749|56=MA|10=047|8=FIX.4.4|9=55|35=0|34=653|49=MMMAQAUK|52=20181130-10:55:46.749|56=MA|10=052|8=FIX.4.4|9=55|35=0|34=654|49=MMMAQAUK|52=20181130-10:57:16.750|56=MA|10=044|8=FIX.4.4|9=55|35=0|34=655|49=MMMAQAUK|52=20181130-10:58:47.748|56=MA|10=057|8=FIX.4.4|9=55|35=0|34=656|49=MMMAQAUK|52=20181130-11:00:17.748|56=MA|10=043|8=FIX.4.4|9=55|35=0|34=657|49=MMMAQAUK|52=20181130-11:01:48.747|56=MA|10=048|8=FIX.4.4|9=55|35=0|34=658|49=MMMAQAUK|52=20181130-11:03:19.746|56=MA|10=048|8=FIX.4.4|9=55|35=0|34=659|49=MMMAQAUK|52=20181130-11:04:50.747|56=MA|10=046|8=FIX.4.4|9=55|35=0|34=660|49=MMMAQAUK|52=20181130-11:06:21.745|56=MA|10=036|8=FIX.4.4|9=55|35=0|34=661|49=MMMAQAUK|52=20181130-11:07:52.746|56=MA|10=043|8=FIX.4.4|9=55|35=0|34=662|49=MMMAQAUK|52=20181130-11:09:23.745|56=MA|10=043|8=FIX.4.4|9=55|35=0|34=663|49=MMMAQAUK|52=20181130-11:10:54.743|56=MA|10=038|8=FIX.4.4|9=55|35=0|34=664|49=MMMAQAUK|52=20181130-11:12:24.744|56=MA|10=039|8=FIX.4.4|9=55|35=0|34=665|49=MMMAQAUK|52=20181130-11:13:55.742|56=MA|10=043|8=FIX.4.4|9=55|35=0|34=666|49=MMMAQAUK|52=20181130-11:15:26.742|56=MA|10=044|8=FIX.4.4|9=55|35=0|34=667|49=MMMAQAUK|52=20181130-11:16:56.742|56=MA|10=049|8=FIX.4.4|9=55|35=0|34=668|49=MMMAQAUK|52=20181130-11:18:26.742|56=MA|10=049|8=FIX.4.4|9=55|35=0|34=669|49=MMMAQAUK|52=20181130-11:19:56.742|56=MA|10=054|8=FIX.4.4|9=55|35=0|34=670|49=MMMAQAUK|52=20181130-11:21:27.742|56=MA|10=037|8=FIX.4.4|9=55|35=0|34=671|49=MMMAQAUK|52=20181130-11:22:57.742|56=MA|10=042|8=FIX.4.4|9=55|35=0|34=672|49=MMMAQAUK|52=20181130-11:24:28.740|56=MA|10=041|8=FIX.4.4|9=55|35=0|34=673|49=MMMAQAUK|52=20181130-11:25:58.740|56=MA|10=046|8=FIX.4.4|9=55|35=0|34=674|49=MMMAQAUK|52=20181130-11:27:29.740|56=MA|10=047|8=FIX.4.4|9=55|35=0|34=675|49=MMMAQAUK|52=20181130-11:29:00.738|56=MA|10=046|8=FIX.4.4|9=55|35=0|34=676|49=MMMAQAUK|52=20181130-11:30:30.738|56=MA|10=042|8=FIX.4.4|9=55|35=0|34=677|49=MMMAQAUK|52=20181130-11:32:01.739|56=MA|10=044|8=FIX.4.4|9=55|35=0|34=678|49=MMMAQAUK|52=20181130-11:33:32.736|56=MA|10=047|8=FIX.4.4|9=55|35=0|34=679|49=MMMAQAUK|52=20181130-11:35:02.736|56=MA|10=047|8=FIX.4.4|9=55|35=0|34=680|49=MMMAQAUK|52=20181130-11:36:33.736|56=MA|10=044|8=FIX.4.4|9=55|35=0|34=681|49=MMMAQAUK|52=20181130-11:38:03.736|56=MA|10=044|8=FIX.4.4|9=55|35=0|34=682|49=MMMAQAUK|52=20181130-11:39:34.734|56=MA|10=048|8=FIX.4.4|9=55|35=0|34=683|49=MMMAQAUK|52=20181130-11:41:04.734|56=MA|10=039|8=FIX.4.4|9=55|35=0|34=684|49=MMMAQAUK|52=20181130-11:42:35.733|56=MA|10=044|8=FIX.4.4|9=55|35=0|34=685|49=MMMAQAUK|52=20181130-11:44:05.733|56=MA|10=044|8=FIX.4.4|9=55|35=0|34=686|49=MMMAQAUK|52=20181130-11:45:36.733|56=MA|10=050|8=FIX.4.4|9=55|35=0|34=687|49=MMMAQAUK|52=20181130-11:47:07.733|56=MA|10=051|8=FIX.4.4|9=55|35=0|34=688|49=MMMAQAUK|52=20181130-11:48:38.731|56=MA|10=055|8=FIX.4.4|9=55|35=0|34=689|49=MMMAQAUK|52=20181130-11:50:09.729|56=MA|10=054|8=FIX.4.4|9=55|35=0|34=690|49=MMMAQAUK|52=20181130-11:51:40.729|56=MA|10=042|8=FIX.4.4|9=55|35=0|34=691|49=MMMAQAUK|52=20181130-11:53:11.727|56=MA|10=041|8=FIX.4.4|9=55|35=0|34=692|49=MMMAQAUK|52=20181130-11:54:42.726|56=MA|10=046|8=FIX.4.4|9=55|35=0|34=693|49=MMMAQAUK|52=20181130-11:56:13.725|56=MA|10=046|8=FIX.4.4|9=55|35=0|34=694|49=MMMAQAUK|52=20181130-11:57:44.724|56=MA|10=051|8=FIX.4.4|9=55|35=0|34=695|49=MMMAQAUK|52=20181130-11:59:15.724|56=MA|10=052|8=FIX.4.4|9=55|35=0|34=696|49=MMMAQAUK|52=20181130-12:00:46.722|56=MA|10=042|8=FIX.4.4|9=55|35=0|34=697|49=MMMAQAUK|52=20181130-12:02:17.720|56=MA|10=041|8=FIX.4.4|9=55|35=0|34=698|49=MMMAQAUK|52=20181130-12:03:48.720|56=MA|10=047|8=FIX.4.4|9=55|35=0|34=699|49=MMMAQAUK|52=20181130-12:05:19.718|56=MA|10=055|8=FIX.4.4|9=55|35=0|34=700|49=MMMAQAUK|52=20181130-12:06:50.717|56=MA|10=033|8=FIX.4.4|9=55|35=0|34=701|49=MMMAQAUK|52=20181130-12:08:21.715|56=MA|10=032|8=FIX.4.4|9=55|35=0|34=702|49=MMMAQAUK|52=20181130-12:09:51.715|56=MA|10=037|8=FIX.4.4|9=55|35=0|34=703|49=MMMAQAUK|52=20181130-12:11:22.713|56=MA|10=027|8=FIX.4.4|9=55|35=0|34=704|49=MMMAQAUK|52=20181130-12:12:53.712|56=MA|10=032|8=FIX.4.4|9=55|35=0|34=705|49=MMMAQAUK|52=20181130-12:14:24.711|56=MA|10=032|8=FIX.4.4|9=55|35=0|34=706|49=MMMAQAUK|52=20181130-12:15:55.710|56=MA|10=037|8=FIX.4.4|9=55|35=0|34=707|49=MMMAQAUK|52=20181130-12:17:26.709|56=MA|10=046|8=FIX.4.4|9=55|35=0|34=708|49=MMMAQAUK|52=20181130-12:18:57.708|56=MA|10=051|8=FIX.4.4|9=55|35=0|34=709|49=MMMAQAUK|52=20181130-12:20:28.707|56=MA|10=042|8=FIX.4.4|9=55|35=0|34=710|49=MMMAQAUK|52=20181130-12:21:58.707|56=MA|10=038|8=FIX.4.4|9=55|35=0|34=711|49=MMMAQAUK|52=20181130-12:23:29.704|56=MA|10=036|8=FIX.4.4|9=55|35=0|34=712|49=MMMAQAUK|52=20181130-12:24:59.704|56=MA|10=041|8=FIX.4.4|9=55|35=0|34=713|49=MMMAQAUK|52=20181130-12:26:30.702|56=MA|10=031|8=FIX.4.4|9=55|35=0|34=714|49=MMMAQAUK|52=20181130-12:28:01.701|56=MA|10=031|8=FIX.4.4|9=55|35=0|34=715|49=MMMAQAUK|52=20181130-12:29:32.700|56=MA|10=036|8=FIX.4.4|9=55|35=0|34=716|49=MMMAQAUK|52=20181130-12:31:03.699|56=MA|10=045|8=FIX.4.4|9=55|35=0|34=717|49=MMMAQAUK|52=20181130-12:32:34.698|56=MA|10=050|8=FIX.4.4|9=55|35=0|34=718|49=MMMAQAUK|52=20181130-12:34:05.698|56=MA|10=051|8=FIX.4.4|9=55|35=0|34=719|49=MMMAQAUK|52=20181130-12:35:36.697|56=MA|10=056|8=FIX.4.4|9=55|35=0|34=720|49=MMMAQAUK|52=20181130-12:37:07.697|56=MA|10=048|8=FIX.4.4|9=55|35=0|34=721|49=MMMAQAUK|52=20181130-12:38:38.695|56=MA|10=052|8=FIX.4.4|9=55|35=0|34=722|49=MMMAQAUK|52=20181130-12:40:08.695|56=MA|10=043|8=FIX.4.4|9=55|35=0|34=723|49=MMMAQAUK|52=20181130-12:41:39.695|56=MA|10=049|8=FIX.4.4|9=55|35=0|34=724|49=MMMAQAUK|52=20181130-12:43:10.695|56=MA|10=041|8=FIX.4.4|9=55|35=0|34=725|49=MMMAQAUK|52=20181130-12:44:41.693|56=MA|10=045|8=FIX.4.4|9=55|35=0|34=726|49=MMMAQAUK|52=20181130-12:46:11.693|56=MA|10=045|8=FIX.4.4|9=55|35=0|34=727|49=MMMAQAUK|52=20181130-12:47:41.694|56=MA|10=051|8=FIX.4.4|9=55|35=0|34=728|49=MMMAQAUK|52=20181130-12:49:12.692|56=MA|10=050|8=FIX.4.4|9=55|35=0|34=729|49=MMMAQAUK|52=20181130-12:50:42.692|56=MA|10=046|8=FIX.4.4|9=55|35=0|34=730|49=MMMAQAUK|52=20181130-12:52:12.693|56=MA|10=038|8=FIX.4.4|9=55|35=0|34=731|49=MMMAQAUK|52=20181130-12:53:43.692|56=MA|10=043|8=FIX.4.4|9=55|35=0|34=732|49=MMMAQAUK|52=20181130-12:55:14.691|56=MA|10=043|8=FIX.4.4|9=55|35=0|34=733|49=MMMAQAUK|52=20181130-12:56:44.691|56=MA|10=048|8=FIX.4.4|9=55|35=0|34=734|49=MMMAQAUK|52=20181130-12:58:14.691|56=MA|10=048|8=FIX.4.4|9=55|35=0|34=735|49=MMMAQAUK|52=20181130-12:59:45.690|56=MA|10=053|8=FIX.4.4|9=55|35=0|34=736|49=MMMAQAUK|52=20181130-13:01:16.690|56=MA|10=040|8=FIX.4.4|9=55|35=0|34=737|49=MMMAQAUK|52=20181130-13:02:47.689|56=MA|10=054|8=FIX.4.4|9=55|35=0|34=738|49=MMMAQAUK|52=20181130-13:04:18.689|56=MA|10=055|8=FIX.4.4|9=55|35=0|34=739|49=MMMAQAUK|52=20181130-13:05:49.687|56=MA|10=059|8=FIX.4.4|9=55|35=0|34=740|49=MMMAQAUK|52=20181130-13:07:19.687|56=MA|10=050|8=FIX.4.4|9=55|35=0|34=741|49=MMMAQAUK|52=20181130-13:08:50.687|56=MA|10=047|8=FIX.4.4|9=55|35=0|34=742|49=MMMAQAUK|52=20181130-13:10:21.686|56=MA|10=038|8=FIX.4.4|9=55|35=0|34=743|49=MMMAQAUK|52=20181130-13:11:52.687|56=MA|10=045|8=FIX.4.4|9=55|35=0|34=744|49=MMMAQAUK|52=20181130-13:13:23.685|56=MA|10=044|8=FIX.4.4|9=55|35=0|34=745|49=MMMAQAUK|52=20181130-13:14:54.684|56=MA|10=049|8=FIX.4.4|9=55|35=0|34=746|49=MMMAQAUK|52=20181130-13:16:24.685|56=MA|10=050|8=FIX.4.4|9=55|35=0|34=747|49=MMMAQAUK|52=20181130-13:17:55.684|56=MA|10=055|8=FIX.4.4|9=55|35=0|34=748|49=MMMAQAUK|52=20181130-13:19:26.683|56=MA|10=055|8=FIX.4.4|9=55|35=0|34=749|49=MMMAQAUK|52=20181130-13:20:57.683|56=MA|10=052|8=FIX.4.4|9=55|35=0|34=750|49=MMMAQAUK|52=20181130-13:22:28.681|56=MA|10=042|8=FIX.4.4|9=55|35=0|34=751|49=MMMAQAUK|52=20181130-13:23:58.681|56=MA|10=047|8=FIX.4.4|9=55|35=0|34=752|49=MMMAQAUK|52=20181130-13:25:29.680|56=MA|10=047|8=FIX.4.4|9=55|35=0|34=753|49=MMMAQAUK|52=20181130-13:26:59.680|56=MA|10=052|8=FIX.4.4|9=55|35=0|34=754|49=MMMAQAUK|52=20181130-13:28:30.680|56=MA|10=044|8=FIX.4.4|9=55|35=0|34=755|49=MMMAQAUK|52=20181130-13:30:00.680|56=MA|10=035|8=FIX.4.4|9=55|35=0|34=756|49=MMMAQAUK|52=20181130-13:31:31.678|56=MA|10=048|8=FIX.4.4|9=55|35=0|34=757|49=MMMAQAUK|52=20181130-13:33:01.679|56=MA|10=049|8=FIX.4.4|9=55|35=0|34=758|49=MMMAQAUK|52=20181130-13:34:31.680|56=MA|10=046|8=FIX.4.4|9=55|35=0|34=759|49=MMMAQAUK|52=20181130-13:36:01.680|56=MA|10=046|8=FIX.4.4|9=55|35=0|34=760|49=MMMAQAUK|52=20181130-13:37:32.680|56=MA|10=043|8=FIX.4.4|9=55|35=0|34=761|49=MMMAQAUK|52=20181130-13:39:03.679|56=MA|10=052|8=FIX.4.4|9=55|35=0|34=762|49=MMMAQAUK|52=20181130-13:40:34.678|56=MA|10=048|8=FIX.4.4|9=55|35=0|34=763|49=MMMAQAUK|52=20181130-13:42:04.678|56=MA|10=048|8=FIX.4.4|9=55|35=0|34=764|49=MMMAQAUK|52=20181130-13:43:34.678|56=MA|10=053|8=FIX.4.4|9=55|35=0|34=765|49=MMMAQAUK|52=20181130-13:45:04.678|56=MA|10=053|8=FIX.4.4|9=55|35=0|34=766|49=MMMAQAUK|52=20181130-13:46:34.680|56=MA|10=051|8=FIX.4.4|9=55|35=0|34=767|49=MMMAQAUK|52=20181130-13:48:05.677|56=MA|10=058|8=FIX.4.4|9=55|35=0|34=768|49=MMMAQAUK|52=20181130-13:49:35.677|56=MA|10=063|8=FIX.4.4|9=55|35=0|34=769|49=MMMAQAUK|52=20181130-13:51:05.677|56=MA|10=054|8=FIX.4.4|9=55|35=0|34=770|49=MMMAQAUK|52=20181130-13:52:36.676|56=MA|10=050|8=FIX.4.4|9=55|35=0|34=771|49=MMMAQAUK|52=20181130-13:54:07.676|56=MA|10=051|8=FIX.4.4|9=55|35=0|34=772|49=MMMAQAUK|52=20181130-13:55:38.675|56=MA|10=056|8=FIX.4.4|9=55|35=0|34=773|49=MMMAQAUK|52=20181130-13:57:09.675|56=MA|10=057|8=FIX.4.4|9=55|35=0|34=774|49=MMMAQAUK|52=20181130-13:58:40.674|56=MA|10=053|8=FIX.4.4|9=55|35=0|34=775|49=MMMAQAUK|52=20181130-14:00:10.675|56=MA|10=040|8=FIX.4.4|9=55|35=0|34=776|49=MMMAQAUK|52=20181130-14:01:41.673|56=MA|10=044|8=FIX.4.4|9=55|35=0|34=777|49=MMMAQAUK|52=20181130-14:03:11.673|56=MA|10=044|8=FIX.4.4|9=55|35=0|34=778|49=MMMAQAUK|52=20181130-14:04:42.671|56=MA|10=048|8=FIX.4.4|9=55|35=0|34=779|49=MMMAQAUK|52=20181130-14:06:13.671|56=MA|10=049|8=FIX.4.4|9=55|35=0|34=780|49=MMMAQAUK|52=20181130-14:07:43.671|56=MA|10=045|8=FIX.4.4|9=55|35=0|34=781|49=MMMAQAUK|52=20181130-14:09:14.671|56=MA|10=046|8=FIX.4.4|9=55|35=0|34=782|49=MMMAQAUK|52=20181130-14:10:45.669|56=MA|10=050|8=FIX.4.4|9=55|35=0|34=783|49=MMMAQAUK|52=20181130-14:12:15.669|56=MA|10=050|8=FIX.4.4|9=55|35=0|34=784|49=MMMAQAUK|52=20181130-14:13:46.668|56=MA|10=055|8=FIX.4.4|9=55|35=0|34=785|49=MMMAQAUK|52=20181130-14:15:16.668|56=MA|10=055|8=FIX.4.4|9=55|35=0|34=786|49=MMMAQAUK|52=20181130-14:16:47.668|56=MA|10=061|8=FIX.4.4|9=55|35=0|34=787|49=MMMAQAUK|52=20181130-14:18:18.666|56=MA|10=060|8=FIX.4.4|9=55|35=0|34=788|49=MMMAQAUK|52=20181130-14:19:48.666|56=MA|10=065|8=FIX.4.4|9=55|35=0|34=789|49=MMMAQAUK|52=20181130-14:21:18.666|56=MA|10=056|8=FIX.4.4|9=55|35=0|34=790|49=MMMAQAUK|52=20181130-14:22:49.665|56=MA|10=052|8=FIX.4.4|9=55|35=0|34=791|49=MMMAQAUK|52=20181130-14:24:20.665|56=MA|10=044|8=FIX.4.4|9=55|35=0|34=792|49=MMMAQAUK|52=20181130-14:25:51.664|56=MA|10=049|8=FIX.4.4|9=55|35=0|34=793|49=MMMAQAUK|52=20181130-14:27:21.664|56=MA|10=049|8=FIX.4.4|9=55|35=0|34=794|49=MMMAQAUK|52=20181130-14:28:52.663|56=MA|10=054|8=FIX.4.4|9=55|35=0|34=795|49=MMMAQAUK|52=20181130-14:30:23.663|56=MA|10=046|8=FIX.4.4|9=55|35=0|34=796|49=MMMAQAUK|52=20181130-14:31:54.663|56=MA|10=052|8=FIX.4.4|9=55|35=0|34=797|49=MMMAQAUK|52=20181130-14:33:25.661|56=MA|10=051|8=FIX.4.4|9=55|35=0|34=798|49=MMMAQAUK|52=20181130-14:34:55.662|56=MA|10=057|8=FIX.4.4|9=55|35=0|34=799|49=MMMAQAUK|52=20181130-14:36:25.662|56=MA|10=057|8=FIX.4.4|9=55|35=0|34=800|49=MMMAQAUK|52=20181130-14:37:55.662|56=MA|10=044|8=FIX.4.4|9=55|35=0|34=801|49=MMMAQAUK|52=20181130-14:39:26.661|56=MA|10=044|8=FIX.4.4|9=55|35=0|34=802|49=MMMAQAUK|52=20181130-14:40:57.660|56=MA|10=040|8=FIX.4.4|9=55|35=0|34=803|49=MMMAQAUK|52=20181130-14:42:27.660|56=MA|10=040|8=FIX.4.4|9=55|35=0|34=804|49=MMMAQAUK|52=20181130-14:43:58.659|56=MA|10=054|8=FIX.4.4|9=55|35=0|34=805|49=MMMAQAUK|52=20181130-14:45:29.658|56=MA|10=054|8=FIX.4.4|9=55|35=0|34=806|49=MMMAQAUK|52=20181130-14:46:59.658|56=MA|10=059|8=FIX.4.4|9=55|35=0|34=807|49=MMMAQAUK|52=20181130-14:48:29.658|56=MA|10=059|8=FIX.4.4|9=55|35=0|34=808|49=MMMAQAUK|52=20181130-14:50:00.657|56=MA|10=041|8=FIX.4.4|9=55|35=0|34=809|49=MMMAQAUK|52=20181130-14:51:31.656|56=MA|10=046|8=FIX.4.4|9=55|35=0|34=810|49=MMMAQAUK|52=20181130-14:53:01.657|56=MA|10=038|8=FIX.4.4|9=55|35=0|34=811|49=MMMAQAUK|52=20181130-14:54:32.656|56=MA|10=043|8=FIX.4.4|9=55|35=0|34=812|49=MMMAQAUK|52=20181130-14:56:03.656|56=MA|10=044|8=FIX.4.4|9=55|35=0|34=813|49=MMMAQAUK|52=20181130-14:57:34.654|56=MA|10=048|8=FIX.4.4|9=55|35=0|34=814|49=MMMAQAUK|52=20181130-14:59:05.654|56=MA|10=049|8=FIX.4.4|9=55|35=0|34=815|49=MMMAQAUK|52=20181130-15:00:35.654|56=MA|10=040|8=FIX.4.4|9=55|35=0|34=816|49=MMMAQAUK|52=20181130-15:02:06.652|56=MA|10=039|8=FIX.4.4|9=55|35=0|34=817|49=MMMAQAUK|52=20181130-15:03:36.652|56=MA|10=044|8=FIX.4.4|9=55|35=0|34=818|49=MMMAQAUK|52=20181130-15:05:06.652|56=MA|10=044|8=FIX.4.4|9=55|35=0|34=819|49=MMMAQAUK|52=20181130-15:06:37.652|56=MA|10=050|8=FIX.4.4|9=55|35=0|34=820|49=MMMAQAUK|52=20181130-15:08:08.651|56=MA|10=041|8=FIX.4.4|9=55|35=0|34=821|49=MMMAQAUK|52=20181130-15:09:39.650|56=MA|10=046|8=FIX.4.4|9=55|35=0|34=822|49=MMMAQAUK|52=20181130-15:11:10.649|56=MA|10=037|8=FIX.4.4|9=55|35=0|34=823|49=MMMAQAUK|52=20181130-15:12:41.648|56=MA|10=042|8=FIX.4.4|9=55|35=0|34=824|49=MMMAQAUK|52=20181130-15:14:11.648|56=MA|10=042|8=FIX.4.4|9=55|35=0|34=825|49=MMMAQAUK|52=20181130-15:15:42.648|56=MA|10=048|8=FIX.4.4|9=55|35=0|34=826|49=MMMAQAUK|52=20181130-15:17:12.648|56=MA|10=048|8=FIX.4.4|9=55|35=0|34=827|49=MMMAQAUK|52=20181130-15:18:43.647|56=MA|10=053|8=FIX.4.4|9=55|35=0|34=828|49=MMMAQAUK|52=20181130-15:20:14.647|56=MA|10=045|8=FIX.4.4|9=55|35=0|34=829|49=MMMAQAUK|52=20181130-15:21:45.646|56=MA|10=050|8=FIX.4.4|9=55|35=0|34=830|49=MMMAQAUK|52=20181130-15:23:16.645|56=MA|10=041|8=FIX.4.4|9=55|35=0|34=831|49=MMMAQAUK|52=20181130-15:24:47.644|56=MA|10=046|8=FIX.4.4|9=55|35=0|34=832|49=MMMAQAUK|52=20181130-15:26:17.644|56=MA|10=046|8=FIX.4.4|9=55|35=0|34=833|49=MMMAQAUK|52=20181130-15:27:47.644|56=MA|10=051|8=FIX.4.4|9=55|35=0|34=834|49=MMMAQAUK|52=20181130-15:29:18.643|56=MA|10=051|8=FIX.4.4|9=55|35=0|34=835|49=MMMAQAUK|52=20181130-15:30:48.643|56=MA|10=047|8=FIX.4.4|9=55|35=0|34=836|49=MMMAQAUK|52=20181130-15:32:18.643|56=MA|10=047|8=FIX.4.4|9=55|35=0|34=837|49=MMMAQAUK|52=20181130-15:33:48.644|56=MA|10=053|8=FIX.4.4|9=55|35=0|34=838|49=MMMAQAUK|52=20181130-15:35:19.642|56=MA|10=052|8=FIX.4.4|9=55|35=0|34=839|49=MMMAQAUK|52=20181130-15:36:50.642|56=MA|10=049|8=FIX.4.4|9=55|35=0|34=840|49=MMMAQAUK|52=20181130-15:38:21.641|56=MA|10=040|8=FIX.4.4|9=55|35=0|34=841|49=MMMAQAUK|52=20181130-15:39:52.641|56=MA|10=046|8=FIX.4.4|9=55|35=0|34=842|49=MMMAQAUK|52=20181130-15:41:23.639|56=MA|10=045|8=FIX.4.4|9=55|35=0|34=843|49=MMMAQAUK|52=20181130-15:42:53.640|56=MA|10=042|8=FIX.4.4|9=55|35=0|34=844|49=MMMAQAUK|52=20181130-15:44:24.639|56=MA|10=051|8=FIX.4.4|9=55|35=0|34=845|49=MMMAQAUK|52=20181130-15:45:55.639|56=MA|10=057|8=FIX.4.4|9=55|35=0|34=846|49=MMMAQAUK|52=20181130-15:47:26.638|56=MA|10=057|8=FIX.4.4|9=55|35=0|34=847|49=MMMAQAUK|52=20181130-15:48:56.638|56=MA|10=062|8=FIX.4.4|9=55|35=0|34=848|49=MMMAQAUK|52=20181130-15:50:27.636|56=MA|10=052|8=FIX.4.4|9=55|35=0|34=849|49=MMMAQAUK|52=20181130-15:51:57.636|56=MA|10=057|8=FIX.4.4|9=55|35=0|34=850|49=MMMAQAUK|52=20181130-15:53:27.636|56=MA|10=048|8=FIX.4.4|9=55|35=0|34=851|49=MMMAQAUK|52=20181130-15:54:58.634|56=MA|10=052|8=FIX.4.4|9=55|35=0|34=852|49=MMMAQAUK|52=20181130-15:56:28.634|56=MA|10=052|8=FIX.4.4|9=55|35=0|34=853|49=MMMAQAUK|52=20181130-15:57:58.634|56=MA|10=057|8=FIX.4.4|9=55|35=0|34=854|49=MMMAQAUK|52=20181130-15:59:28.634|56=MA|10=057|8=FIX.4.4|9=55|35=0|34=855|49=MMMAQAUK|52=20181130-16:00:59.632|56=MA|10=047|8=FIX.4.4|9=55|35=0|34=856|49=MMMAQAUK|52=20181130-16:02:29.632|56=MA|10=047|8=FIX.4.4|9=55|35=0|34=857|49=MMMAQAUK|52=20181130-16:03:59.632|56=MA|10=052|8=FIX.4.4|9=55|35=0|34=858|49=MMMAQAUK|52=20181130-16:05:30.631|56=MA|10=043|8=FIX.4.4|9=55|35=0|34=859|49=MMMAQAUK|52=20181130-16:07:01.630|56=MA|10=043|8=FIX.4.4|9=55|35=0|34=860|49=MMMAQAUK|52=20181130-16:08:32.630|56=MA|10=040|8=FIX.4.4|9=55|35=0|34=861|49=MMMAQAUK|52=20181130-16:10:02.631|56=MA|10=032|8=FIX.4.4|9=55|35=0|34=862|49=MMMAQAUK|52=20181130-16:11:33.629|56=MA|10=045|8=FIX.4.4|9=55|35=0|34=863|49=MMMAQAUK|52=20181130-16:13:04.628|56=MA|10=045|8=FIX.4.4|9=55|35=0|34=864|49=MMMAQAUK|52=20181130-16:14:35.627|56=MA|10=050|8=FIX.4.4|9=55|35=0|34=865|49=MMMAQAUK|52=20181130-16:16:05.627|56=MA|10=050|8=FIX.4.4|9=55|35=0|34=866|49=MMMAQAUK|52=20181130-16:17:35.628|56=MA|10=056|8=FIX.4.4|9=55|35=0|34=867|49=MMMAQAUK|52=20181130-16:19:05.628|56=MA|10=056|8=FIX.4.4|9=55|35=0|34=868|49=MMMAQAUK|52=20181130-16:20:36.627|56=MA|10=052|8=FIX.4.4|9=55|35=0|34=869|49=MMMAQAUK|52=20181130-16:22:06.627|56=MA|10=052|8=FIX.4.4|9=55|35=0|34=870|49=MMMAQAUK|52=20181130-16:23:37.627|56=MA|10=049|8=FIX.4.4|9=55|35=0|34=871|49=MMMAQAUK|52=20181130-16:25:08.626|56=MA|10=049|8=FIX.4.4|9=55|35=0|34=872|49=MMMAQAUK|52=20181130-16:26:39.626|56=MA|10=055|8=FIX.4.4|9=55|35=0|34=873|49=MMMAQAUK|52=20181130-16:28:10.624|56=MA|10=045|8=FIX.4.4|9=55|35=0|34=874|49=MMMAQAUK|52=20181130-16:29:40.624|56=MA|10=050|8=FIX.4.4|9=55|35=0|34=875|49=MMMAQAUK|52=20181130-16:31:11.623|56=MA|10=041|8=FIX.4.4|9=55|35=0|34=876|49=MMMAQAUK|52=20181130-16:32:41.623|56=MA|10=046|8=FIX.4.4|9=55|35=0|34=877|49=MMMAQAUK|52=20181130-16:34:12.623|56=MA|10=047|8=FIX.4.4|9=55|35=0|34=878|49=MMMAQAUK|52=20181130-16:35:43.622|56=MA|10=052|8=FIX.4.4|9=55|35=0|34=879|49=MMMAQAUK|52=20181130-16:37:14.621|56=MA|10=052|8=FIX.4.4|9=55|35=0|34=880|49=MMMAQAUK|52=20181130-16:38:44.621|56=MA|10=048|8=FIX.4.4|9=55|35=0|34=881|49=MMMAQAUK|52=20181130-16:40:15.620|56=MA|10=039|8=FIX.4.4|9=55|35=0|34=882|49=MMMAQAUK|52=20181130-16:41:46.619|56=MA|10=053|8=FIX.4.4|9=55|35=0|34=883|49=MMMAQAUK|52=20181130-16:43:16.620|56=MA|10=045|8=FIX.4.4|9=55|35=0|34=884|49=MMMAQAUK|52=20181130-16:44:47.618|56=MA|10=058|8=FIX.4.4|9=55|35=0|34=885|49=MMMAQAUK|52=20181130-16:46:17.618|56=MA|10=058|8=FIX.4.4|9=55|35=0|34=886|49=MMMAQAUK|52=20181130-16:47:47.618|56=MA|10=063|8=FIX.4.4|9=55|35=0|34=887|49=MMMAQAUK|52=20181130-16:49:17.618|56=MA|10=063|8=FIX.4.4|9=55|35=0|34=888|49=MMMAQAUK|52=20181130-16:50:48.617|56=MA|10=059|8=FIX.4.4|9=55|35=0|34=889|49=MMMAQAUK|52=20181130-16:52:19.616|56=MA|10=059|8=FIX.4.4|9=55|35=0|34=890|49=MMMAQAUK|52=20181130-16:53:50.615|56=MA|10=046|8=FIX.4.4|9=55|35=0|34=891|49=MMMAQAUK|52=20181130-16:55:20.615|56=MA|10=046|8=FIX.4.4|9=55|35=0|34=892|49=MMMAQAUK|52=20181130-16:56:51.614|56=MA|10=051|8=FIX.4.4|9=55|35=0|34=893|49=MMMAQAUK|52=20181130-16:58:22.614|56=MA|10=052|8=FIX.4.4|9=55|35=0|34=894|49=MMMAQAUK|52=20181130-16:59:53.613|56=MA|10=057|8=FIX.4.4|9=55|35=0|34=895|49=MMMAQAUK|52=20181130-17:01:24.612|56=MA|10=043|8=FIX.4.4|9=55|35=0|34=896|49=MMMAQAUK|52=20181130-17:02:54.612|56=MA|10=048|8=FIX.4.4|9=55|35=0|34=897|49=MMMAQAUK|52=20181130-17:04:25.611|56=MA|10=048|8=FIX.4.4|9=55|35=0|34=898|49=MMMAQAUK|52=20181130-17:05:56.612|56=MA|10=055|8=FIX.4.4|9=55|35=0|34=899|49=MMMAQAUK|52=20181130-17:07:27.610|56=MA|10=054|8=FIX.4.4|9=55|35=0|34=900|49=MMMAQAUK|52=20181130-17:08:58.610|56=MA|10=042|8=FIX.4.4|9=55|35=0|34=901|49=MMMAQAUK|52=20181130-17:10:29.610|56=MA|10=034|8=FIX.4.4|9=55|35=0|34=902|49=MMMAQAUK|52=20181130-17:12:00.609|56=MA|10=034|8=FIX.4.4|9=55|35=0|34=903|49=MMMAQAUK|52=20181130-17:13:30.609|56=MA|10=039|8=FIX.4.4|9=55|35=0|34=904|49=MMMAQAUK|52=20181130-17:15:00.609|56=MA|10=039|8=FIX.4.4|9=55|35=0|34=905|49=MMMAQAUK|52=20181130-17:16:30.609|56=MA|10=044|8=FIX.4.4|9=55|35=0|34=906|49=MMMAQAUK|52=20181130-17:18:01.609|56=MA|10=045|8=FIX.4.4|9=55|35=0|34=907|49=MMMAQAUK|52=20181130-17:19:32.607|56=MA|10=049|8=FIX.4.4|9=55|35=0|34=908|49=MMMAQAUK|52=20181130-17:21:02.608|56=MA|10=041|8=FIX.4.4|9=55|35=0|34=909|49=MMMAQAUK|52=20181130-17:22:33.606|56=MA|10=045|8=FIX.4.4|9=55|35=0|34=910|49=MMMAQAUK|52=20181130-17:24:03.606|56=MA|10=036|8=FIX.4.4|9=55|35=0|34=911|49=MMMAQAUK|52=20181130-17:25:33.606|56=MA|10=041|8=FIX.4.4|9=55|35=0|34=912|49=MMMAQAUK|52=20181130-17:27:04.605|56=MA|10=041|8=FIX.4.4|9=55|35=0|34=913|49=MMMAQAUK|52=20181130-17:28:34.605|56=MA|10=046|8=FIX.4.4|9=55|35=0|34=914|49=MMMAQAUK|52=20181130-17:30:05.605|56=MA|10=038|8=FIX.4.4|9=55|35=0|34=915|49=MMMAQAUK|52=20181130-17:31:36.604|56=MA|10=043|8=FIX.4.4|9=55|35=0|34=916|49=MMMAQAUK|52=20181130-17:33:06.604|56=MA|10=043|8=FIX.4.4|9=55|35=0|34=917|49=MMMAQAUK|52=20181130-17:34:37.602|56=MA|10=047|8=FIX.4.4|9=55|35=0|34=918|49=MMMAQAUK|52=20181130-17:36:07.602|56=MA|10=047|8=FIX.4.4|9=55|35=0|34=919|49=MMMAQAUK|52=20181130-17:37:38.601|56=MA|10=052|8=FIX.4.4|9=55|35=0|34=920|49=MMMAQAUK|52=20181130-17:39:08.601|56=MA|10=043|8=FIX.4.4|9=55|35=0|34=921|49=MMMAQAUK|52=20181130-17:40:39.601|56=MA|10=040|8=FIX.4.4|9=55|35=0|34=922|49=MMMAQAUK|52=20181130-17:42:10.599|56=MA|10=048|8=FIX.4.4|9=55|35=0|34=923|49=MMMAQAUK|52=20181130-17:43:40.599|56=MA|10=053|8=FIX.4.4|9=55|35=0|34=924|49=MMMAQAUK|52=20181130-17:45:11.599|56=MA|10=054|8=FIX.4.4|9=55|35=0|34=925|49=MMMAQAUK|52=20181130-17:46:42.598|56=MA|10=059|8=FIX.4.4|9=55|35=0|34=926|49=MMMAQAUK|52=20181130-17:48:12.598|56=MA|10=059|8=FIX.4.4|9=55|35=0|34=927|49=MMMAQAUK|52=20181130-17:49:43.598|56=MA|10=065|8=FIX.4.4|9=55|35=0|34=928|49=MMMAQAUK|52=20181130-17:51:14.596|56=MA|10=055|8=FIX.4.4|9=55|35=0|34=929|49=MMMAQAUK|52=20181130-17:52:45.595|56=MA|10=060|8=FIX.4.4|9=55|35=0|34=930|49=MMMAQAUK|52=20181130-17:54:15.596|56=MA|10=052|8=FIX.4.4|9=55|35=0|34=931|49=MMMAQAUK|52=20181130-17:55:46.594|56=MA|10=056|8=FIX.4.4|9=55|35=0|34=932|49=MMMAQAUK|52=20181130-17:57:17.594|56=MA|10=057|8=FIX.4.4|9=55|35=0|34=933|49=MMMAQAUK|52=20181130-17:58:48.593|56=MA|10=062|8=FIX.4.4|9=55|35=0|34=934|49=MMMAQAUK|52=20181130-18:00:19.594|56=MA|10=050|8=FIX.4.4|9=55|35=0|34=935|49=MMMAQAUK|52=20181130-18:01:50.592|56=MA|10=045|8=FIX.4.4|9=55|35=0|34=936|49=MMMAQAUK|52=20181130-18:03:20.593|56=MA|10=046|8=FIX.4.4|9=55|35=0|34=937|49=MMMAQAUK|52=20181130-18:04:51.593|56=MA|10=052|8=FIX.4.4|9=55|35=0|34=938|49=MMMAQAUK|52=20181130-18:06:22.592|56=MA|10=052|8=FIX.4.4|9=55|35=0|34=939|49=MMMAQAUK|52=20181130-18:07:52.592|56=MA|10=057|8=FIX.4.4|9=55|35=0|34=940|49=MMMAQAUK|52=20181130-18:09:22.592|56=MA|10=048|8=FIX.4.4|9=55|35=0|34=941|49=MMMAQAUK|52=20181130-18:10:53.591|56=MA|10=044|8=FIX.4.4|9=55|35=0|34=942|49=MMMAQAUK|52=20181130-18:12:24.590|56=MA|10=044|8=FIX.4.4|9=55|35=0|34=943|49=MMMAQAUK|52=20181130-18:13:54.590|56=MA|10=049|8=FIX.4.4|9=55|35=0|34=944|49=MMMAQAUK|52=20181130-18:15:24.590|56=MA|10=049|8=FIX.4.4|9=55|35=0|34=945|49=MMMAQAUK|52=20181130-18:16:55.588|56=MA|10=062|8=FIX.4.4|9=55|35=0|34=946|49=MMMAQAUK|52=20181130-18:18:25.588|56=MA|10=062|8=FIX.4.4|9=55|35=0|34=947|49=MMMAQAUK|52=20181130-18:19:56.588|56=MA|10=068|8=FIX.4.4|9=55|35=0|34=948|49=MMMAQAUK|52=20181130-18:21:27.587|56=MA|10=059|8=FIX.4.4|9=55|35=0|34=949|49=MMMAQAUK|52=20181130-18:22:57.587|56=MA|10=064|8=FIX.4.4|9=55|35=0|34=950|49=MMMAQAUK|52=20181130-18:24:28.585|56=MA|10=054|8=FIX.4.4|9=55|35=0|34=951|49=MMMAQAUK|52=20181130-18:25:58.586|56=MA|10=060|8=FIX.4.4|9=55|35=0|34=952|49=MMMAQAUK|52=20181130-18:27:29.584|56=MA|10=059|8=FIX.4.4|9=55|35=0|34=953|49=MMMAQAUK|52=20181130-18:28:59.584|56=MA|10=064|8=FIX.4.4|9=55|35=0|34=954|49=MMMAQAUK|52=20181130-18:30:30.584|56=MA|10=047|8=FIX.4.4|9=55|35=0|34=955|49=MMMAQAUK|52=20181130-18:32:01.584|56=MA|10=048|8=FIX.4.4|9=55|35=0|34=956|49=MMMAQAUK|52=20181130-18:33:32.582|56=MA|10=052|8=FIX.4.4|9=55|35=0|34=957|49=MMMAQAUK|52=20181130-18:35:02.582|56=MA|10=052|8=FIX.4.4|9=55|35=0|34=958|49=MMMAQAUK|52=20181130-18:36:33.581|56=MA|10=057|8=FIX.4.4|9=55|35=0|34=959|49=MMMAQAUK|52=20181130-18:38:03.581|56=MA|10=057|8=FIX.4.4|9=55|35=0|34=960|49=MMMAQAUK|52=20181130-18:39:34.580|56=MA|10=053|8=FIX.4.4|9=55|35=0|34=961|49=MMMAQAUK|52=20181130-18:41:05.580|56=MA|10=045|8=FIX.4.4|9=55|35=0|34=962|49=MMMAQAUK|52=20181130-18:42:36.579|56=MA|10=059|8=FIX.4.4|9=55|35=0|34=963|49=MMMAQAUK|52=20181130-18:44:07.579|56=MA|10=060|8=FIX.4.4|9=55|35=0|34=964|49=MMMAQAUK|52=20181130-18:45:38.578|56=MA|10=065|8=FIX.4.4|9=55|35=0|34=965|49=MMMAQAUK|52=20181130-18:47:08.578|56=MA|10=065|8=FIX.4.4|9=55|35=0|34=966|49=MMMAQAUK|52=20181130-18:48:39.578|56=MA|10=071|8=FIX.4.4|9=55|35=0|34=967|49=MMMAQAUK|52=20181130-18:50:10.576|56=MA|10=052|8=FIX.4.4|9=55|35=0|34=968|49=MMMAQAUK|52=20181130-18:51:40.576|56=MA|10=057|8=FIX.4.4|9=55|35=0|34=969|49=MMMAQAUK|52=20181130-18:53:10.576|56=MA|10=057|8=FIX.4.4|9=55|35=0|34=970|49=MMMAQAUK|52=20181130-18:54:40.576|56=MA|10=053|8=FIX.4.4|9=55|35=0|34=971|49=MMMAQAUK|52=20181130-18:56:10.576|56=MA|10=053|8=FIX.4.4|9=55|35=0|34=972|49=MMMAQAUK|52=20181130-18:57:40.576|56=MA|10=058|8=FIX.4.4|9=55|35=0|34=973|49=MMMAQAUK|52=20181130-18:59:11.575|56=MA|10=058|8=FIX.4.4|9=55|35=0|34=974|49=MMMAQAUK|52=20181130-19:00:42.575|56=MA|10=050|8=FIX.4.4|9=55|35=0|34=975|49=MMMAQAUK|52=20181130-19:02:13.574|56=MA|10=050|8=FIX.4.4|9=55|35=0|34=976|49=MMMAQAUK|52=20181130-19:03:43.575|56=MA|10=056|8=FIX.4.4|9=55|35=0|34=977|49=MMMAQAUK|52=20181130-19:05:14.572|56=MA|10=054|8=FIX.4.4|9=55|35=0|34=978|49=MMMAQAUK|52=20181130-19:06:44.573|56=MA|10=060|8=FIX.4.4|9=55|35=0|34=979|49=MMMAQAUK|52=20181130-19:08:15.573|56=MA|10=061|8=FIX.4.4|9=55|35=0|34=980|49=MMMAQAUK|52=20181130-19:09:46.571|56=MA|10=056|8=FIX.4.4|9=55|35=0|34=981|49=MMMAQAUK|52=20181130-19:11:17.571|56=MA|10=048|8=FIX.4.4|9=55|35=0|34=982|49=MMMAQAUK|52=20181130-19:12:48.571|56=MA|10=054|8=FIX.4.4|9=55|35=0|34=983|49=MMMAQAUK|52=20181130-19:14:19.569|56=MA|10=062|8=FIX.4.4|9=55|35=0|34=984|49=MMMAQAUK|52=20181130-19:15:49.570|56=MA|10=059|8=FIX.4.4|9=55|35=0|34=985|49=MMMAQAUK|52=20181130-19:17:20.569|56=MA|10=059|8=FIX.4.4|9=55|35=0|34=986|49=MMMAQAUK|52=20181130-19:18:51.568|56=MA|10=064|8=FIX.4.4|9=55|35=0|34=987|49=MMMAQAUK|52=20181130-19:20:22.567|56=MA|10=055|8=FIX.4.4|9=55|35=0|34=988|49=MMMAQAUK|52=20181130-19:21:52.567|56=MA|10=060|8=FIX.4.4|9=55|35=0|34=989|49=MMMAQAUK|52=20181130-19:23:23.566|56=MA|10=060|8=FIX.4.4|9=55|35=0|34=990|49=MMMAQAUK|52=20181130-19:24:53.566|56=MA|10=056|8=FIX.4.4|9=55|35=0|34=991|49=MMMAQAUK|52=20181130-19:26:24.565|56=MA|10=056|8=FIX.4.4|9=55|35=0|34=992|49=MMMAQAUK|52=20181130-19:27:55.565|56=MA|10=062|8=FIX.4.4|9=55|35=0|34=993|49=MMMAQAUK|52=20181130-19:29:26.564|56=MA|10=062|8=FIX.4.4|9=55|35=0|34=994|49=MMMAQAUK|52=20181130-19:30:57.564|56=MA|10=059|8=FIX.4.4|9=55|35=0|34=995|49=MMMAQAUK|52=20181130-19:32:28.563|56=MA|10=059|8=FIX.4.4|9=55|35=0|34=996|49=MMMAQAUK|52=20181130-19:33:59.563|56=MA|10=065|8=FIX.4.4|9=55|35=0|34=997|49=MMMAQAUK|52=20181130-19:35:30.561|56=MA|10=055|8=FIX.4.4|9=55|35=0|34=998|49=MMMAQAUK|52=20181130-19:37:00.561|56=MA|10=055|8=FIX.4.4|9=55|35=0|34=999|49=MMMAQAUK|52=20181130-19:38:30.561|56=MA|10=060|8=FIX.4.4|9=56|35=0|34=1000|49=MMMAQAUK|52=20181130-19:40:01.559|56=MA|10=081|8=FIX.4.4|9=56|35=0|34=1001|49=MMMAQAUK|52=20181130-19:41:31.560|56=MA|10=078|8=FIX.4.4|9=56|35=0|34=1002|49=MMMAQAUK|52=20181130-19:43:02.559|56=MA|10=087|8=FIX.4.4|9=56|35=0|34=1003|49=MMMAQAUK|52=20181130-19:44:33.559|56=MA|10=093|8=FIX.4.4|9=56|35=0|34=1004|49=MMMAQAUK|52=20181130-19:46:04.558|56=MA|10=093|8=FIX.4.4|9=56|35=0|34=1005|49=MMMAQAUK|52=20181130-19:47:34.558|56=MA|10=098|8=FIX.4.4|9=56|35=0|34=1006|49=MMMAQAUK|52=20181130-19:49:04.558|56=MA|10=098|8=FIX.4.4|9=56|35=0|34=1007|49=MMMAQAUK|52=20181130-19:50:34.558|56=MA|10=094|8=FIX.4.4|9=56|35=0|34=1008|49=MMMAQAUK|52=20181130-19:52:04.558|56=MA|10=094|8=FIX.4.4|9=56|35=0|34=1009|49=MMMAQAUK|52=20181130-19:53:35.558|56=MA|10=100|8=FIX.4.4|9=56|35=0|34=1010|49=MMMAQAUK|52=20181130-19:55:06.557|56=MA|10=091|8=FIX.4.4|9=56|35=0|34=1011|49=MMMAQAUK|52=20181130-19:56:36.557|56=MA|10=096|8=FIX.4.4|9=56|35=0|34=1012|49=MMMAQAUK|52=20181130-19:58:07.556|56=MA|10=096|8=FIX.4.4|9=56|35=0|34=1013|49=MMMAQAUK|52=20181130-19:59:38.554|56=MA|10=100|8=FIX.4.4|9=56|35=0|34=1014|49=MMMAQAUK|52=20181130-20:01:08.555|56=MA|10=078|8=FIX.4.4|9=56|35=0|34=1015|49=MMMAQAUK|52=20181130-20:02:39.554|56=MA|10=083|8=FIX.4.4|9=56|35=0|34=1016|49=MMMAQAUK|52=20181130-20:04:10.554|56=MA|10=075|8=FIX.4.4|9=56|35=0|34=1017|49=MMMAQAUK|52=20181130-20:05:41.552|56=MA|10=079|8=FIX.4.4|9=56|35=0|34=1018|49=MMMAQAUK|52=20181130-20:07:11.552|56=MA|10=079|8=FIX.4.4|9=56|35=0|34=1019|49=MMMAQAUK|52=20181130-20:08:41.552|56=MA|10=084|8=FIX.4.4|9=56|35=0|34=1020|49=MMMAQAUK|52=20181130-20:10:12.551|56=MA|10=066|8=FIX.4.4|9=56|35=0|34=1021|49=MMMAQAUK|52=20181130-20:11:43.551|56=MA|10=072|8=FIX.4.4|9=56|35=0|34=1022|49=MMMAQAUK|52=20181130-20:13:14.550|56=MA|10=072|8=FIX.4.4|9=56|35=0|34=1023|49=MMMAQAUK|52=20181130-20:14:45.549|56=MA|10=086|8=FIX.4.4|9=56|35=0|34=1024|49=MMMAQAUK|52=20181130-20:16:15.549|56=MA|10=086|8=FIX.4.4|9=56|35=0|34=1025|49=MMMAQAUK|52=20181130-20:17:46.548|56=MA|10=091|8=FIX.4.4|9=56|35=0|34=1026|49=MMMAQAUK|52=20181130-20:19:16.548|56=MA|10=091|8=FIX.4.4|9=56|35=0|34=1027|49=MMMAQAUK|52=20181130-20:20:47.547|56=MA|10=087|8=FIX.4.4|9=56|35=0|34=1028|49=MMMAQAUK|52=20181130-20:22:18.546|56=MA|10=087|8=FIX.4.4|9=56|35=0|34=1029|49=MMMAQAUK|52=20181130-20:23:48.546|56=MA|10=092|8=FIX.4.4|9=56|35=0|34=1030|49=MMMAQAUK|52=20181130-20:25:19.546|56=MA|10=084|8=FIX.4.4|9=56|35=0|34=1031|49=MMMAQAUK|52=20181130-20:26:50.545|56=MA|10=080|8=FIX.4.4|9=56|35=0|34=1032|49=MMMAQAUK|52=20181130-20:28:21.544|56=MA|10=080|8=FIX.4.4|9=56|35=0|34=1033|49=MMMAQAUK|52=20181130-20:29:51.544|56=MA|10=085|8=FIX.4.4|9=56|35=0|34=1034|49=MMMAQAUK|52=20181130-20:31:22.544|56=MA|10=077|8=FIX.4.4|9=56|35=0|34=1035|49=MMMAQAUK|52=20181130-20:32:53.543|56=MA|10=082|8=FIX.4.4|9=56|35=0|34=1036|49=MMMAQAUK|52=20181130-20:34:24.542|56=MA|10=082|8=FIX.4.4|9=56|35=0|34=1037|49=MMMAQAUK|52=20181130-20:35:54.542|56=MA|10=087|8=FIX.4.4|9=56|35=0|34=1038|49=MMMAQAUK|52=20181130-20:37:25.541|56=MA|10=087|8=FIX.4.4|9=56|35=0|34=1039|49=MMMAQAUK|52=20181130-20:38:55.542|56=MA|10=093|8=FIX.4.4|9=56|35=0|34=1040|49=MMMAQAUK|52=20181130-20:40:25.542|56=MA|10=075|8=FIX.4.4|9=56|35=0|34=1041|49=MMMAQAUK|52=20181130-20:41:56.541|56=MA|10=080|8=FIX.4.4|9=56|35=0|34=1042|49=MMMAQAUK|52=20181130-20:43:26.541|56=MA|10=080|8=FIX.4.4|9=56|35=0|34=1043|49=MMMAQAUK|52=20181130-20:44:57.540|56=MA|10=085|8=FIX.4.4|9=56|35=0|34=1044|49=MMMAQAUK|52=20181130-20:46:28.540|56=MA|10=086|8=FIX.4.4|9=56|35=0|34=1045|49=MMMAQAUK|52=20181130-20:47:59.540|56=MA|10=092|8=FIX.4.4|9=56|35=0|34=1046|49=MMMAQAUK|52=20181130-20:49:30.538|56=MA|10=091|8=FIX.4.4|9=56|35=0|34=1047|49=MMMAQAUK|52=20181130-20:51:00.539|56=MA|10=083|8=FIX.4.4|9=56|35=0|34=1048|49=MMMAQAUK|52=20181130-20:52:31.538|56=MA|10=088|8=FIX.4.4|9=56|35=0|34=1049|49=MMMAQAUK|52=20181130-20:54:01.541|56=MA|10=082|8=FIX.4.4|9=56|35=0|34=1050|49=MMMAQAUK|52=20181130-20:55:31.547|56=MA|10=084|8=FIX.4.4|9=56|35=0|34=1051|49=MMMAQAUK|52=20181130-20:57:01.555|56=MA|10=083|8=FIX.4.4|9=56|35=0|34=1052|49=MMMAQAUK|52=20181130-20:58:31.559|56=MA|10=092|8=FIX.4.4|9=56|35=0|34=1053|49=MMMAQAUK|52=20181130-21:00:01.560|56=MA|10=070|8=FIX.4.4|9=56|35=0|34=1054|49=MMMAQAUK|52=20181130-21:01:32.560|56=MA|10=076|8=FIX.4.4|9=56|35=0|34=1055|49=MMMAQAUK|52=20181130-21:03:02.561|56=MA|10=077|8=FIX.4.4|9=56|35=0|34=1056|49=MMMAQAUK|52=20181130-21:04:33.559|56=MA|10=090|8=FIX.4.4|9=56|35=0|34=1057|49=MMMAQAUK|52=20181130-21:06:03.560|56=MA|10=082|8=FIX.4.4|9=56|35=0|34=1058|49=MMMAQAUK|52=20181130-21:07:34.559|56=MA|10=096|8=FIX.4.4|9=56|35=0|34=1059|49=MMMAQAUK|52=20181130-21:09:05.558|56=MA|10=096|8=FIX.4.4|9=56|35=0|34=1060|49=MMMAQAUK|52=20181130-21:10:35.558|56=MA|10=083|8=FIX.4.4|9=56|35=0|34=1061|49=MMMAQAUK|52=20181130-21:12:06.557|56=MA|10=083|8=FIX.4.4|9=56|35=0|34=1062|49=MMMAQAUK|52=20181130-21:13:37.556|56=MA|10=088|8=FIX.4.4|9=56|35=0|34=1063|49=MMMAQAUK|52=20181130-21:15:08.556|56=MA|10=089|8=FIX.4.4|9=56|35=0|34=1064|49=MMMAQAUK|52=20181130-21:16:38.556|56=MA|10=094|8=FIX.4.4|9=56|35=0|34=1065|49=MMMAQAUK|52=20181130-21:18:08.556|56=MA|10=094|8=FIX.4.4|9=56|35=0|34=1066|49=MMMAQAUK|52=20181130-21:19:39.554|56=MA|10=098|8=FIX.4.4|9=56|35=0|34=1067|49=MMMAQAUK|52=20181130-21:21:09.554|56=MA|10=089|8=FIX.4.4|9=56|35=0|34=1068|49=MMMAQAUK|52=20181130-21:22:40.554|56=MA|10=086|8=FIX.4.4|9=56|35=0|34=1069|49=MMMAQAUK|52=20181130-21:24:11.553|56=MA|10=086|8=FIX.4.4|9=56|35=0|34=1070|49=MMMAQAUK|52=20181130-21:25:41.554|56=MA|10=083|8=FIX.4.4|9=56|35=0|34=1071|49=MMMAQAUK|52=20181130-21:27:12.552|56=MA|10=082|8=FIX.4.4|9=56|35=0|34=1072|49=MMMAQAUK|52=20181130-21:28:42.553|56=MA|10=088|8=FIX.4.4|9=56|35=0|34=1073|49=MMMAQAUK|52=20181130-21:30:13.552|56=MA|10=079|8=FIX.4.4|9=56|35=0|34=1074|49=MMMAQAUK|52=20181130-21:31:44.551|56=MA|10=084|8=FIX.4.4|9=56|35=0|34=1075|49=MMMAQAUK|52=20181130-21:33:15.552|56=MA|10=086|8=FIX.4.4|9=56|35=0|34=1076|49=MMMAQAUK|52=20181130-21:34:46.550|56=MA|10=090|8=FIX.4.4|9=56|35=0|34=1077|49=MMMAQAUK|52=20181130-21:36:17.549|56=MA|10=099|8=FIX.4.4|9=56|35=0|34=1078|49=MMMAQAUK|52=20181130-21:37:47.549|56=MA|10=104|8=FIX.4.4|9=56|35=0|34=1079|49=MMMAQAUK|52=20181130-21:39:17.549|56=MA|10=104|8=FIX.4.4|9=56|35=0|34=1080|49=MMMAQAUK|52=20181130-21:40:48.548|56=MA|10=091|8=FIX.4.4|9=56|35=0|34=1081|49=MMMAQAUK|52=20181130-21:42:18.548|56=MA|10=091|8=FIX.4.4|9=56|35=0|34=1082|49=MMMAQAUK|52=20181130-21:43:49.546|56=MA|10=095|8=FIX.4.4|9=56|35=0|34=1083|49=MMMAQAUK|52=20181130-21:45:19.546|56=MA|10=095|8=FIX.4.4|9=56|35=0|34=1084|49=MMMAQAUK|52=20181130-21:46:50.547|56=MA|10=093|8=FIX.4.4|9=56|35=0|34=1085|49=MMMAQAUK|52=20181130-21:48:21.546|56=MA|10=093|8=FIX.4.4|9=56|35=0|34=1086|49=MMMAQAUK|52=20181130-21:49:52.544|56=MA|10=097|8=FIX.4.4|9=56|35=0|34=1087|49=MMMAQAUK|52=20181130-21:51:22.544|56=MA|10=088|8=FIX.4.4|9=56|35=0|34=1088|49=MMMAQAUK|52=20181130-21:52:53.544|56=MA|10=094|8=FIX.4.4|9=56|35=0|34=1089|49=MMMAQAUK|52=20181130-21:54:24.543|56=MA|10=094|8=FIX.4.4|9=56|35=0|34=1090|49=MMMAQAUK|52=20181130-21:55:54.543|56=MA|10=090|8=FIX.4.4|9=56|35=0|34=1091|49=MMMAQAUK|52=20181130-21:57:25.543|56=MA|10=091|8=FIX.4.4|9=56|35=0|34=1092|49=MMMAQAUK|52=20181130-21:58:56.541|56=MA|10=095|8=FIX.4.4|9=56|35=0|34=1093|49=MMMAQAUK|52=20181130-22:00:26.541|56=MA|10=081|8=FIX.4.4|9=56|35=0|34=1094|49=MMMAQAUK|52=20181130-22:01:57.540|56=MA|10=086|8=FIX.4.4|9=56|35=0|34=1095|49=MMMAQAUK|52=20181130-22:03:28.540|56=MA|10=087|8=FIX.4.4|9=56|35=0|34=1096|49=MMMAQAUK|52=20181130-22:04:58.540|56=MA|10=092|8=FIX.4.4|9=56|35=0|34=1097|49=MMMAQAUK|52=20181130-22:06:29.541|56=MA|10=094|8=FIX.4.4|9=56|35=0|34=1098|49=MMMAQAUK|52=20181130-22:08:00.540|56=MA|10=085|8=FIX.4.4|9=56|35=0|34=1099|49=MMMAQAUK|52=20181130-22:09:30.541|56=MA|10=091|8=FIX.4.4|9=56|35=0|34=1100|49=MMMAQAUK|52=20181130-22:11:01.539|56=MA|10=072|8=FIX.4.4|9=56|35=0|34=1101|49=MMMAQAUK|52=20181130-22:12:32.538|56=MA|10=077|8=FIX.4.4|9=56|35=0|34=1102|49=MMMAQAUK|52=20181130-22:14:03.537|56=MA|10=077|8=FIX.4.4|9=56|35=0|34=1103|49=MMMAQAUK|52=20181130-22:15:33.537|56=MA|10=082|8=FIX.4.4|9=56|35=0|34=1104|49=MMMAQAUK|52=20181130-22:17:03.537|56=MA|10=082|8=FIX.4.4|9=56|35=0|34=1105|49=MMMAQAUK|52=20181130-22:18:34.536|56=MA|10=087|8=FIX.4.4|9=56|35=0|34=1106|49=MMMAQAUK|52=20181130-22:20:04.536|56=MA|10=078|8=FIX.4.4|9=56|35=0|34=1107|49=MMMAQAUK|52=20181130-22:21:34.536|56=MA|10=083|8=FIX.4.4|9=56|35=0|34=1108|49=MMMAQAUK|52=20181130-22:23:05.535|56=MA|10=083|8=FIX.4.4|9=56|35=0|34=1109|49=MMMAQAUK|52=20181130-22:24:36.533|56=MA|10=087|8=FIX.4.4|9=56|35=0|34=1110|49=MMMAQAUK|52=20181130-22:26:06.533|56=MA|10=078|8=FIX.4.4|9=56|35=0|34=1111|49=MMMAQAUK|52=20181130-22:27:37.533|56=MA|10=084|8=FIX.4.4|9=56|35=0|34=1112|49=MMMAQAUK|52=20181130-22:29:08.532|56=MA|10=084|8=FIX.4.4|9=56|35=0|34=1113|49=MMMAQAUK|52=20181130-22:30:39.532|56=MA|10=081|8=FIX.4.4|9=56|35=0|34=1114|49=MMMAQAUK|52=20181130-22:32:10.532|56=MA|10=073|8=FIX.4.4|9=56|35=0|34=1115|49=MMMAQAUK|52=20181130-22:33:41.531|56=MA|10=078|8=FIX.4.4|9=56|35=0|34=1116|49=MMMAQAUK|52=20181130-22:35:12.530|56=MA|10=078|8=FIX.4.4|9=56|35=0|34=1117|49=MMMAQAUK|52=20181130-22:36:42.531|56=MA|10=084|8=FIX.4.4|9=56|35=0|34=1118|49=MMMAQAUK|52=20181130-22:38:13.530|56=MA|10=084|8=FIX.4.4|9=56|35=0|34=1119|49=MMMAQAUK|52=20181130-22:39:43.532|56=MA|10=091|8=FIX.4.4|9=56|35=0|34=1120|49=MMMAQAUK|52=20181130-22:41:13.532|56=MA|10=073|8=FIX.4.4|9=56|35=0|34=1121|49=MMMAQAUK|52=20181130-22:42:43.533|56=MA|10=079|8=FIX.4.4|9=56|35=0|34=1122|49=MMMAQAUK|52=20181130-22:44:14.532|56=MA|10=079|8=FIX.4.4|9=56|35=0|34=1123|49=MMMAQAUK|52=20181130-22:45:44.533|56=MA|10=085|8=FIX.4.4|9=56|35=0|34=1124|49=MMMAQAUK|52=20181130-22:47:15.531|56=MA|10=084|8=FIX.4.4|9=56|35=0|34=1125|49=MMMAQAUK|52=20181130-22:48:45.531|56=MA|10=089|8=FIX.4.4|9=56|35=0|34=1126|49=MMMAQAUK|52=20181130-22:50:16.531|56=MA|10=081|8=FIX.4.4|9=56|35=0|34=1127|49=MMMAQAUK|52=20181130-22:51:47.529|56=MA|10=094|8=FIX.4.4|9=56|35=0|34=1128|49=MMMAQAUK|52=20181130-22:53:17.529|56=MA|10=094|8=FIX.4.4|9=56|35=0|34=1129|49=MMMAQAUK|52=20181130-22:54:47.530|56=MA|10=091|8=FIX.4.4|9=56|35=0|34=1130|49=MMMAQAUK|52=20181130-22:56:18.529|56=MA|10=091|8=FIX.4.4|9=56|35=0|34=1131|49=MMMAQAUK|52=20181130-22:57:48.529|56=MA|10=096|8=FIX.4.4|9=56|35=0|34=1132|49=MMMAQAUK|52=20181130-22:59:19.529|56=MA|10=097|8=FIX.4.4|9=56|35=0|34=1133|49=MMMAQAUK|52=20181130-23:00:50.528|56=MA|10=079|8=FIX.4.4|9=56|35=0|34=1134|49=MMMAQAUK|52=20181130-23:02:21.527|56=MA|10=079|8=FIX.4.4|9=56|35=0|34=1135|49=MMMAQAUK|52=20181130-23:03:51.528|56=MA|10=085|8=FIX.4.4|9=56|35=5|34=1136|49=MMMAQAUK|52=20181130-23:05:02.527|56=MA|10=088|8=FIX.4.4|9=82|35=A|34=1|49=MMMAQAUK|52=20181204-09:55:00.338|56=MA|98=0|108=90|95=8|96=3.0.0rc4|10=122|8=FIX.4.4|9=606|35=E|34=2|49=MMMAQAUK|52=20181204-09:55:11.546|56=MA|66=MMAD-FIX44-ListID-13|394=2|68=5|73=5|11=FIX44-List-ClOrdID-14|22=4|38=100000|48=XS0542534192|54=1|55=[N/A/]|67=1|423=1|453=1|448=MMMAQAUK|447=C|452=11|11=FIX44-List-ClOrdID-15|22=4|38=120000|48=FR0013241536|54=1|55=[N/A]|67=2|11=FIX44-List-ClOrdID-16|22=4|38=130000|48=DE000HLB4D56|54=1|55=[N/A/]|67=1|453=1|448=MMMAQAUK|447=C|452=11|11=FIX44-List-ClOrdID-17|22=4|38=250000|48=XS0987936076|54=1|55=[N/A/]|67=1|453=1|448=MMMAQAUK|447=C|452=11|11=FIX44-List-ClOrdID-18|22=4|38=350000|48=XS0401048102|54=1|55=[N/A/]|67=1|453=1|448=MMMAQAUK|447=C|452=11|10=149|8=FIX.4.4|9=114|35=K|34=3|49=MMMAQAUK|52=20181204-09:56:39.042|56=MA|66=MMAD-FIX44-ListID-13|60=20181203-10:08:07.721|75=20181203|10=068|8=FIX.4.4|9=53|35=0|34=4|49=MMMAQAUK|52=20181204-09:58:09.347|56=MA|10=206|8=FIX.4.4|9=53|35=0|34=5|49=MMMAQAUK|52=20181204-09:59:40.341|56=MA|10=197|8=FIX.4.4|9=53|35=0|34=6|49=MMMAQAUK|52=20181204-10:01:10.346|56=MA|10=179|8=FIX.4.4|9=53|35=0|34=7|49=MMMAQAUK|52=20181204-10:02:41.337|56=MA|10=185|8=FIX.4.4|9=53|35=0|34=8|49=MMMAQAUK|52=20181204-10:04:11.339|56=MA|10=187|8=FIX.4.4|9=53|35=0|34=9|49=MMMAQAUK|52=20181204-10:05:41.342|56=MA|10=186|8=FIX.4.4|9=54|35=0|34=10|49=MMMAQAUK|52=20181204-10:07:12.337|56=MA|10=231|8=FIX.4.4|9=54|35=0|34=11|49=MMMAQAUK|52=20181204-10:08:43.341|56=MA|10=232|8=FIX.4.4|9=54|35=0|34=12|49=MMMAQAUK|52=20181204-10:10:14.341|56=MA|10=224|8=FIX.4.4|9=54|35=0|34=13|49=MMMAQAUK|52=20181204-10:11:45.339|56=MA|10=237|8=FIX.4.4|9=54|35=0|34=14|49=MMMAQAUK|52=20181204-10:13:16.337|56=MA|10=236|8=FIX.4.4|9=54|35=0|34=15|49=MMMAQAUK|52=20181204-10:14:47.331|56=MA|10=236|8=FIX.4.4|9=54|35=0|34=16|49=MMMAQAUK|52=20181204-10:16:17.339|56=MA|10=244|8=FIX.4.4|9=54|35=0|34=17|49=MMMAQAUK|52=20181204-10:17:48.325|56=MA|10=245|8=FIX.4.4|9=54|35=0|34=18|49=MMMAQAUK|52=20181204-10:19:18.330|56=MA|10=241|8=FIX.4.4|9=54|35=0|34=19|49=MMMAQAUK|52=20181204-10:20:48.335|56=MA|10=242|8=FIX.4.4|9=54|35=0|34=20|49=MMMAQAUK|52=20181204-10:22:19.324|56=MA|10=232|8=FIX.4.4|9=54|35=0|34=21|49=MMMAQAUK|52=20181204-10:23:49.325|56=MA|10=238|8=FIX.4.4|9=54|35=0|34=22|49=MMMAQAUK|52=20181204-10:25:20.322|56=MA|10=227|8=FIX.4.4|9=54|35=0|34=23|49=MMMAQAUK|52=20181204-10:26:50.322|56=MA|10=232|8=FIX.4.4|9=54|35=0|34=24|49=MMMAQAUK|52=20181204-10:28:20.326|56=MA|10=236|8=FIX.4.4|9=54|35=0|34=25|49=MMMAQAUK|52=20181204-10:29:51.332|56=MA|10=239|8=FIX.4.4|9=54|35=0|34=26|49=MMMAQAUK|52=20181204-10:31:21.332|56=MA|10=230|8=FIX.4.4|9=54|35=0|34=27|49=MMMAQAUK|52=20181204-10:32:52.320|56=MA|10=233|8=FIX.4.4|9=54|35=0|34=28|49=MMMAQAUK|52=20181204-10:34:22.320|56=MA|10=233|8=FIX.4.4|9=54|35=0|34=29|49=MMMAQAUK|52=20181204-10:35:53.319|56=MA|10=247|8=FIX.4.4|9=54|35=0|34=30|49=MMMAQAUK|52=20181204-10:37:23.319|56=MA|10=238|8=FIX.4.4|9=54|35=0|34=31|49=MMMAQAUK|52=20181204-10:38:53.322|56=MA|10=237|8=FIX.4.4|9=54|35=0|34=32|49=MMMAQAUK|52=20181204-10:40:23.323|56=MA|10=229|8=FIX.4.4|9=54|35=0|34=33|49=MMMAQAUK|52=20181204-10:41:54.325|56=MA|10=237|8=FIX.4.4|9=54|35=0|34=34|49=MMMAQAUK|52=20181204-10:43:24.328|56=MA|10=240|8=FIX.4.4|9=54|35=0|34=35|49=MMMAQAUK|52=20181204-10:44:55.316|56=MA|10=243|8=FIX.4.4|9=54|35=0|34=36|49=MMMAQAUK|52=20181204-10:46:25.319|56=MA|10=246|8=FIX.4.4|9=54|35=0|34=37|49=MMMAQAUK|52=20181204-10:47:55.327|56=MA|10=250|8=FIX.4.4|9=54|35=0|34=38|49=MMMAQAUK|52=20181204-10:49:26.316|56=MA|10=249|8=FIX.4.4|9=54|35=0|34=39|49=MMMAQAUK|52=20181204-10:50:57.316|56=MA|10=246|8=FIX.4.4|9=54|35=0|34=40|49=MMMAQAUK|52=20181204-10:52:28.316|56=MA|10=238|8=FIX.4.4|9=54|35=0|34=41|49=MMMAQAUK|52=20181204-10:53:59.315|56=MA|10=243|8=FIX.4.4|9=54|35=0|34=42|49=MMMAQAUK|52=20181204-10:55:29.317|56=MA|10=245|8=FIX.4.4|9=54|35=0|34=43|49=MMMAQAUK|52=20181204-10:57:00.320|56=MA|10=231|8=FIX.4.4|9=54|35=0|34=44|49=MMMAQAUK|52=20181204-10:58:31.313|56=MA|10=239|8=FIX.4.4|9=54|35=0|34=45|49=MMMAQAUK|52=20181204-11:00:02.311|56=MA|10=224|8=FIX.4.4|9=54|35=0|34=46|49=MMMAQAUK|52=20181204-11:01:32.311|56=MA|10=229|8=FIX.4.4|9=54|35=0|34=47|49=MMMAQAUK|52=20181204-11:03:02.312|56=MA|10=230|8=FIX.4.4|9=54|35=0|34=48|49=MMMAQAUK|52=20181204-11:04:33.310|56=MA|10=234|8=FIX.4.4|9=54|35=0|34=49|49=MMMAQAUK|52=20181204-11:06:03.310|56=MA|10=234|8=FIX.4.4|9=54|35=0|34=50|49=MMMAQAUK|52=20181204-11:07:34.309|56=MA|10=239|8=FIX.4.4|9=54|35=0|34=51|49=MMMAQAUK|52=20181204-11:09:04.309|56=MA|10=239|8=FIX.4.4|9=54|35=0|34=52|49=MMMAQAUK|52=20181204-11:10:35.308|56=MA|10=235|8=FIX.4.4|9=54|35=0|34=53|49=MMMAQAUK|52=20181204-11:12:05.308|56=MA|10=235|8=FIX.4.4|9=54|35=0|34=54|49=MMMAQAUK|52=20181204-11:13:36.314|56=MA|10=238|8=FIX.4.4|9=54|35=0|34=55|49=MMMAQAUK|52=20181204-11:15:06.319|56=MA|10=243|8=FIX.4.4|9=54|35=0|34=56|49=MMMAQAUK|52=20181204-11:16:37.306|56=MA|10=245|8=FIX.4.4|9=54|35=0|34=57|49=MMMAQAUK|52=20181204-11:18:07.310|56=MA|10=240|8=FIX.4.4|9=54|35=0|34=58|49=MMMAQAUK|52=20181204-11:19:38.305|56=MA|10=250|8=FIX.4.4|9=54|35=0|34=59|49=MMMAQAUK|52=20181204-11:21:08.305|56=MA|10=241|8=FIX.4.4|9=54|35=0|34=60|49=MMMAQAUK|52=20181204-11:22:39.303|56=MA|10=236|8=FIX.4.4|9=54|35=0|34=61|49=MMMAQAUK|52=20181204-11:24:10.303|56=MA|10=228|8=FIX.4.4|9=54|35=0|34=62|49=MMMAQAUK|52=20181204-11:25:40.307|56=MA|10=237|8=FIX.4.4|9=54|35=0|34=63|49=MMMAQAUK|52=20181204-11:27:10.308|56=MA|10=238|8=FIX.4.4|9=54|35=0|34=64|49=MMMAQAUK|52=20181204-11:28:41.301|56=MA|10=237|8=FIX.4.4|9=54|35=0|34=65|49=MMMAQAUK|52=20181204-11:30:11.301|56=MA|10=228|8=FIX.4.4|9=54|35=0|34=66|49=MMMAQAUK|52=20181204-11:31:42.300|56=MA|10=233|8=FIX.4.4|9=54|35=0|34=67|49=MMMAQAUK|52=20181204-11:33:12.300|56=MA|10=233|8=FIX.4.4|9=54|35=0|34=68|49=MMMAQAUK|52=20181204-11:34:43.299|56=MA|10=000|8=FIX.4.4|9=54|35=0|34=69|49=MMMAQAUK|52=20181204-11:36:14.298|56=MA|10=000|8=FIX.4.4|9=54|35=0|34=70|49=MMMAQAUK|52=20181204-11:37:44.298|56=MA|10=252|8=FIX.4.4|9=54|35=0|34=71|49=MMMAQAUK|52=20181204-11:39:14.298|56=MA|10=252|8=FIX.4.4|9=54|35=0|34=72|49=MMMAQAUK|52=20181204-11:40:45.297|56=MA|10=248|8=FIX.4.4|9=54|35=0|34=73|49=MMMAQAUK|52=20181204-11:42:16.297|56=MA|10=249|8=FIX.4.4|9=54|35=0|34=74|49=MMMAQAUK|52=20181204-11:43:47.296|56=MA|10=254|8=FIX.4.4|9=54|35=0|34=75|49=MMMAQAUK|52=20181204-11:45:18.296|56=MA|10=255|8=FIX.4.4|9=54|35=0|34=76|49=MMMAQAUK|52=20181204-11:46:49.295|56=MA|10=004|8=FIX.4.4|9=54|35=0|34=77|49=MMMAQAUK|52=20181204-11:48:20.294|56=MA|10=251|8=FIX.4.4|9=54|35=0|34=78|49=MMMAQAUK|52=20181204-11:49:50.295|56=MA|10=001|8=FIX.4.4|9=54|35=0|34=79|49=MMMAQAUK|52=20181204-11:51:20.295|56=MA|10=248|8=FIX.4.4|9=54|35=0|34=80|49=MMMAQAUK|52=20181204-11:52:51.294|56=MA|10=244|8=FIX.4.4|9=54|35=0|34=81|49=MMMAQAUK|52=20181204-11:54:21.294|56=MA|10=244|8=FIX.4.4|9=54|35=0|34=82|49=MMMAQAUK|52=20181204-11:55:52.293|56=MA|10=249|8=FIX.4.4|9=54|35=0|34=83|49=MMMAQAUK|52=20181204-11:57:23.293|56=MA|10=250|8=FIX.4.4|9=54|35=0|34=84|49=MMMAQAUK|52=20181204-11:58:54.293|56=MA|10=000|8=FIX.4.4|9=54|35=0|34=85|49=MMMAQAUK|52=20181204-12:00:25.292|56=MA|10=242|8=FIX.4.4|9=54|35=0|34=86|49=MMMAQAUK|52=20181204-12:01:56.291|56=MA|10=247|8=FIX.4.4|9=54|35=0|34=87|49=MMMAQAUK|52=20181204-12:03:26.291|56=MA|10=247|8=FIX.4.4|9=54|35=0|34=88|49=MMMAQAUK|52=20181204-12:04:57.290|56=MA|10=252|8=FIX.4.4|9=54|35=0|34=89|49=MMMAQAUK|52=20181204-12:06:28.290|56=MA|10=253|8=FIX.4.4|9=54|35=0|34=90|49=MMMAQAUK|52=20181204-12:07:59.289|56=MA|10=002|8=FIX.4.4|9=54|35=0|34=91|49=MMMAQAUK|52=20181204-12:09:30.288|56=MA|10=249|8=FIX.4.4|9=54|35=0|34=92|49=MMMAQAUK|52=20181204-12:11:01.288|56=MA|10=241|8=FIX.4.4|9=54|35=0|34=93|49=MMMAQAUK|52=20181204-12:12:31.288|56=MA|10=246|8=FIX.4.4|9=54|35=0|34=94|49=MMMAQAUK|52=20181204-12:14:02.287|56=MA|10=246|8=FIX.4.4|9=54|35=0|34=95|49=MMMAQAUK|52=20181204-12:15:33.286|56=MA|10=251|8=FIX.4.4|9=54|35=0|34=96|49=MMMAQAUK|52=20181204-12:17:04.286|56=MA|10=252|8=FIX.4.4|9=54|35=0|34=97|49=MMMAQAUK|52=20181204-12:18:35.285|56=MA|10=001|8=FIX.4.4|9=54|35=0|34=98|49=MMMAQAUK|52=20181204-12:20:06.286|56=MA|10=250|8=FIX.4.4|9=54|35=0|34=99|49=MMMAQAUK|52=20181204-12:21:37.283|56=MA|10=253|8=FIX.4.4|9=55|35=0|34=100|49=MMMAQAUK|52=20181204-12:23:07.284|56=MA|10=029|8=FIX.4.4|9=55|35=0|34=101|49=MMMAQAUK|52=20181204-12:24:38.284|56=MA|10=035|8=FIX.4.4|9=55|35=0|34=102|49=MMMAQAUK|52=20181204-12:26:09.282|56=MA|10=034|8=FIX.4.4|9=55|35=0|34=103|49=MMMAQAUK|52=20181204-12:27:40.281|56=MA|10=030|8=FIX.4.4|9=55|35=0|34=104|49=MMMAQAUK|52=20181204-12:29:10.282|56=MA|10=031|8=FIX.4.4|9=55|35=0|34=105|49=MMMAQAUK|52=20181204-12:30:40.282|56=MA|10=027|8=FIX.4.4|9=55|35=0|34=106|49=MMMAQAUK|52=20181204-12:32:11.280|56=MA|10=026|8=FIX.4.4|9=55|35=0|34=107|49=MMMAQAUK|52=20181204-12:33:41.280|56=MA|10=031|8=FIX.4.4|9=55|35=0|34=108|49=MMMAQAUK|52=20181204-12:35:12.280|56=MA|10=032|8=FIX.4.4|9=55|35=0|34=109|49=MMMAQAUK|52=20181204-12:36:43.278|56=MA|10=045|8=FIX.4.4|9=55|35=0|34=110|49=MMMAQAUK|52=20181204-12:38:14.279|56=MA|10=038|8=FIX.4.4|9=55|35=0|34=111|49=MMMAQAUK|52=20181204-12:39:45.277|56=MA|10=042|8=FIX.4.4|9=55|35=0|34=112|49=MMMAQAUK|52=20181204-12:41:16.276|56=MA|10=033|8=FIX.4.4|9=55|35=0|34=113|49=MMMAQAUK|52=20181204-12:42:46.276|56=MA|10=038|8=FIX.4.4|9=55|35=0|34=114|49=MMMAQAUK|52=20181204-12:44:16.276|56=MA|10=038|8=FIX.4.4|9=55|35=0|34=115|49=MMMAQAUK|52=20181204-12:45:47.276|56=MA|10=044|8=FIX.4.4|9=55|35=0|34=116|49=MMMAQAUK|52=20181204-12:47:18.274|56=MA|10=043|8=FIX.4.4|9=55|35=0|34=117|49=MMMAQAUK|52=20181204-12:48:48.274|56=MA|10=048|8=FIX.4.4|9=55|35=0|34=118|49=MMMAQAUK|52=20181204-12:50:18.274|56=MA|10=039|8=FIX.4.4|9=55|35=0|34=119|49=MMMAQAUK|52=20181204-12:51:49.272|56=MA|10=043|8=FIX.4.4|9=55|35=0|34=120|49=MMMAQAUK|52=20181204-12:53:19.272|56=MA|10=034|8=FIX.4.4|9=55|35=0|34=121|49=MMMAQAUK|52=20181204-12:54:49.273|56=MA|10=040|8=FIX.4.4|9=55|35=0|34=122|49=MMMAQAUK|52=20181204-12:56:20.271|56=MA|10=030|8=FIX.4.4|9=55|35=0|34=123|49=MMMAQAUK|52=20181204-12:57:51.270|56=MA|10=035|8=FIX.4.4|9=55|35=0|34=124|49=MMMAQAUK|52=20181204-12:59:21.270|56=MA|10=035|8=FIX.4.4|9=55|35=0|34=125|49=MMMAQAUK|52=20181204-13:00:51.271|56=MA|10=027|8=FIX.4.4|9=55|35=0|34=126|49=MMMAQAUK|52=20181204-13:02:21.271|56=MA|10=027|8=FIX.4.4|9=55|35=0|34=127|49=MMMAQAUK|52=20181204-13:03:52.270|56=MA|10=032|8=FIX.4.4|9=55|35=0|34=128|49=MMMAQAUK|52=20181204-13:05:22.270|56=MA|10=032|8=FIX.4.4|9=55|35=0|34=129|49=MMMAQAUK|52=20181204-13:06:53.269|56=MA|10=046|8=FIX.4.4|9=55|35=0|34=130|49=MMMAQAUK|52=20181204-13:08:23.269|56=MA|10=037|8=FIX.4.4|9=55|35=0|34=131|49=MMMAQAUK|52=20181204-13:09:54.268|56=MA|10=042|8=FIX.4.4|9=55|35=0|34=132|49=MMMAQAUK|52=20181204-13:11:25.267|56=MA|10=033|8=FIX.4.4|9=55|35=0|34=133|49=MMMAQAUK|52=20181204-13:12:55.267|56=MA|10=038|8=FIX.4.4|9=55|35=0|34=134|49=MMMAQAUK|52=20181204-13:14:26.267|56=MA|10=039|8=FIX.4.4|9=55|35=0|34=135|49=MMMAQAUK|52=20181204-13:15:57.266|56=MA|10=044|8=FIX.4.4|9=55|35=0|34=136|49=MMMAQAUK|52=20181204-13:17:28.265|56=MA|10=044|8=FIX.4.4|9=55|35=0|34=137|49=MMMAQAUK|52=20181204-13:18:59.265|56=MA|10=050|8=FIX.4.4|9=55|35=0|34=138|49=MMMAQAUK|52=20181204-13:20:30.264|56=MA|10=032|8=FIX.4.4|9=55|35=0|34=139|49=MMMAQAUK|52=20181204-13:22:01.264|56=MA|10=033|8=FIX.4.4|9=55|35=0|34=140|49=MMMAQAUK|52=20181204-13:23:31.264|56=MA|10=029|8=FIX.4.4|9=55|35=0|34=141|49=MMMAQAUK|52=20181204-13:25:01.264|56=MA|10=029|8=FIX.4.4|9=55|35=0|34=142|49=MMMAQAUK|52=20181204-13:26:32.261|56=MA|10=032|8=FIX.4.4|9=55|35=0|34=143|49=MMMAQAUK|52=20181204-13:28:02.261|56=MA|10=032|8=FIX.4.4|9=55|35=0|34=144|49=MMMAQAUK|52=20181204-13:29:32.261|56=MA|10=037|8=FIX.4.4|9=55|35=0|34=145|49=MMMAQAUK|52=20181204-13:31:02.261|56=MA|10=028|8=FIX.4.4|9=55|35=0|34=146|49=MMMAQAUK|52=20181204-13:32:33.259|56=MA|10=041|8=FIX.4.4|9=55|35=0|34=147|49=MMMAQAUK|52=20181204-13:34:03.259|56=MA|10=041|8=FIX.4.4|9=55|35=0|34=148|49=MMMAQAUK|52=20181204-13:35:34.258|56=MA|10=046|8=FIX.4.4|9=55|35=0|34=149|49=MMMAQAUK|52=20181204-13:37:04.258|56=MA|10=046|8=FIX.4.4|9=55|35=0|34=150|49=MMMAQAUK|52=20181204-13:38:35.257|56=MA|10=042|8=FIX.4.4|9=55|35=0|34=151|49=MMMAQAUK|52=20181204-13:40:06.257|56=MA|10=034|8=FIX.4.4|9=55|35=0|34=152|49=MMMAQAUK|52=20181204-13:41:37.256|56=MA|10=039|8=FIX.4.4|9=55|35=0|34=153|49=MMMAQAUK|52=20181204-13:43:07.256|56=MA|10=039|8=FIX.4.4|9=55|35=0|34=154|49=MMMAQAUK|52=20181204-13:44:38.255|56=MA|10=044|8=FIX.4.4|9=55|35=0|34=155|49=MMMAQAUK|52=20181204-13:46:08.256|56=MA|10=045|8=FIX.4.4|9=55|35=0|34=156|49=MMMAQAUK|52=20181204-13:47:39.254|56=MA|10=049|8=FIX.4.4|9=55|35=0|34=157|49=MMMAQAUK|52=20181204-13:49:09.254|56=MA|10=049|8=FIX.4.4|9=55|35=0|34=158|49=MMMAQAUK|52=20181204-13:50:39.254|56=MA|10=045|8=FIX.4.4|9=55|35=0|34=159|49=MMMAQAUK|52=20181204-13:52:10.253|56=MA|10=036|8=FIX.4.4|9=55|35=0|34=160|49=MMMAQAUK|52=20181204-13:53:41.251|56=MA|10=031|8=FIX.4.4|9=55|35=0|34=161|49=MMMAQAUK|52=20181204-13:55:11.251|56=MA|10=031|8=FIX.4.4|9=55|35=0|34=1