8=FIX.4.4|9=91|35=A|34=1|49=T1Kauaiblk2|52=20201130-08:41:29.405|56=MA|98=0|108=90|95=8|96=3.0.0rc5|141=Y|10=032|8=FIX.4.4|9=640|35=E|34=2|49=T1Kauaiblk2|52=20201130-08:41:34.242|56=MA|66=MMAD-FIX44-ListID-301120-1228|394=2|68=5|73=5|11=FIX44-List-ClOrdID-1229|22=4|38=100000|48=US06051GEN51|54=1|55=[N/A/]|67=1|423=1|453=1|448=T1Kauaiblk2|447=C|452=11|11=FIX44-List-ClOrdID-1230|22=4|38=100000|48=US40434AAB52|54=1|55=[N/A]|67=2|11=FIX44-List-ClOrdID-1231|22=4|38=130000|48=US06738JYZ10|54=1|55=[N/A/]|67=1|453=1|448=T1Kauaiblk2|447=C|452=11|11=FIX44-List-ClOrdID-1232|22=4|38=250000|48=US95709TAH32|54=1|55=[N/A/]|67=1|453=1|448=T1Kauaiblk2|447=C|452=11|11=FIX44-List-ClOrdID-1233|22=4|38=350000|48=US29379VAW37|54=1|55=[N/A/]|67=1|453=1|448=T1Kauaiblk2|447=C|452=11|10=003|8=FIX.4.4|9=56|35=0|34=3|49=T1Kauaiblk2|52=20201130-08:43:04.406|56=MA|10=056|8=FIX.4.4|9=56|35=0|34=4|49=T1Kauaiblk2|52=20201130-08:44:35.405|56=MA|10=061|8=FIX.4.4|9=56|35=0|34=5|49=T1Kauaiblk2|52=20201130-08:46:05.405|56=MA|10=061|8=FIX.4.4|9=56|35=0|34=6|49=T1Kauaiblk2|52=20201130-08:47:36.404|56=MA|10=066|8=FIX.4.4|9=56|35=0|34=7|49=T1Kauaiblk2|52=20201130-08:49:06.404|56=MA|10=066|8=FIX.4.4|9=56|35=0|34=8|49=T1Kauaiblk2|52=20201130-08:50:36.404|56=MA|10=062|8=FIX.4.4|9=56|35=0|34=9|49=T1Kauaiblk2|52=20201130-08:52:06.404|56=MA|10=062|8=FIX.4.4|9=57|35=0|34=10|49=T1Kauaiblk2|52=20201130-08:53:36.405|56=MA|10=108|8=FIX.4.4|9=57|35=0|34=11|49=T1Kauaiblk2|52=20201130-08:55:06.409|56=MA|10=112|8=FIX.4.4|9=57|35=0|34=12|49=T1Kauaiblk2|52=20201130-08:56:36.412|56=MA|10=111|8=FIX.4.4|9=57|35=0|34=13|49=T1Kauaiblk2|52=20201130-08:58:06.417|56=MA|10=116|8=FIX.4.4|9=57|35=0|34=14|49=T1Kauaiblk2|52=20201130-08:59:37.416|56=MA|10=121|8=FIX.4.4|9=57|35=0|34=15|49=T1Kauaiblk2|52=20201130-09:01:07.416|56=MA|10=107|8=FIX.4.4|9=57|35=0|34=16|49=T1Kauaiblk2|52=20201130-09:02:37.416|56=MA|10=112|8=FIX.4.4|9=57|35=0|34=17|49=T1Kauaiblk2|52=20201130-09:04:07.416|56=MA|10=112|8=FIX.4.4|9=57|35=0|34=18|49=T1Kauaiblk2|52=20201130-09:05:37.416|56=MA|10=117|8=FIX.4.4|9=57|35=0|34=19|49=T1Kauaiblk2|52=20201130-09:07:08.415|56=MA|10=117|8=FIX.4.4|9=57|35=0|34=20|49=T1Kauaiblk2|52=20201130-09:08:38.415|56=MA|10=113|8=FIX.4.4|9=57|35=0|34=21|49=T1Kauaiblk2|52=20201130-09:10:08.415|56=MA|10=104|8=FIX.4.4|9=57|35=0|34=22|49=T1Kauaiblk2|52=20201130-09:11:38.416|56=MA|10=110|8=FIX.4.4|9=57|35=0|34=23|49=T1Kauaiblk2|52=20201130-09:13:08.417|56=MA|10=111|8=FIX.4.4|9=57|35=0|34=24|49=T1Kauaiblk2|52=20201130-09:14:38.418|56=MA|10=117|8=FIX.4.4|9=57|35=0|34=25|49=T1Kauaiblk2|52=20201130-09:16:08.418|56=MA|10=117|8=FIX.4.4|9=57|35=0|34=26|49=T1Kauaiblk2|52=20201130-09:17:38.418|56=MA|10=122|8=FIX.4.4|9=57|35=0|34=27|49=T1Kauaiblk2|52=20201130-09:19:08.420|56=MA|10=115|8=FIX.4.4|9=57|35=0|34=28|49=T1Kauaiblk2|52=20201130-09:20:39.420|56=MA|10=112|8=FIX.4.4|9=57|35=0|34=29|49=T1Kauaiblk2|52=20201130-09:22:10.420|56=MA|10=104|8=FIX.4.4|9=57|35=0|34=30|49=T1Kauaiblk2|52=20201130-09:23:41.420|56=MA|10=101|8=FIX.4.4|9=57|35=0|34=31|49=T1Kauaiblk2|52=20201130-09:25:11.420|56=MA|10=101|8=FIX.4.4|9=57|35=0|34=32|49=T1Kauaiblk2|52=20201130-09:26:42.419|56=MA|10=115|8=FIX.4.4|9=57|35=0|34=33|49=T1Kauaiblk2|52=20201130-09:28:12.421|56=MA|10=108|8=FIX.4.4|9=57|35=0|34=34|49=T1Kauaiblk2|52=20201130-09:29:42.424|56=MA|10=116|8=FIX.4.4|9=57|35=0|34=35|49=T1Kauaiblk2|52=20201130-09:31:12.426|56=MA|10=109|8=FIX.4.4|9=57|35=0|34=36|49=T1Kauaiblk2|52=20201130-09:32:42.428|56=MA|10=116|8=FIX.4.4|9=57|35=0|34=37|49=T1Kauaiblk2|52=20201130-09:34:12.429|56=MA|10=117|8=FIX.4.4|9=57|35=0|34=38|49=T1Kauaiblk2|52=20201130-09:35:42.430|56=MA|10=114|8=FIX.4.4|9=57|35=0|34=39|49=T1Kauaiblk2|52=20201130-09:37:12.431|56=MA|10=115|8=FIX.4.4|9=57|35=0|34=40|49=T1Kauaiblk2|52=20201130-09:38:42.432|56=MA|10=112|8=FIX.4.4|9=57|35=0|34=41|49=T1Kauaiblk2|52=20201130-09:40:12.432|56=MA|10=103|8=FIX.4.4|9=57|35=0|34=42|49=T1Kauaiblk2|52=20201130-09:41:43.431|56=MA|10=108|8=FIX.4.4|9=57|35=0|34=43|49=T1Kauaiblk2|52=20201130-09:43:13.431|56=MA|10=108|8=FIX.4.4|9=57|35=0|34=44|49=T1Kauaiblk2|52=20201130-09:44:43.433|56=MA|10=115|8=FIX.4.4|9=57|35=0|34=45|49=T1Kauaiblk2|52=20201130-09:46:13.434|56=MA|10=116|8=FIX.4.4|9=57|35=0|34=46|49=T1Kauaiblk2|52=20201130-09:47:43.437|56=MA|10=124|8=FIX.4.4|9=57|35=0|34=47|49=T1Kauaiblk2|52=20201130-09:49:13.439|56=MA|10=126|8=FIX.4.4|9=57|35=0|34=48|49=T1Kauaiblk2|52=20201130-09:50:43.440|56=MA|10=114|8=FIX.4.4|9=57|35=0|34=49|49=T1Kauaiblk2|52=20201130-09:52:13.441|56=MA|10=115|8=FIX.4.4|9=57|35=0|34=50|49=T1Kauaiblk2|52=20201130-09:53:43.443|56=MA|10=113|8=FIX.4.4|9=57|35=0|34=51|49=T1Kauaiblk2|52=20201130-09:55:14.442|56=MA|10=113|8=FIX.4.4|9=57|35=0|34=52|49=T1Kauaiblk2|52=20201130-09:56:44.442|56=MA|10=118|8=FIX.4.4|9=57|35=0|34=53|49=T1Kauaiblk2|52=20201130-09:58:14.442|56=MA|10=118|8=FIX.4.4|9=57|35=0|34=54|49=T1Kauaiblk2|52=20201130-09:59:44.442|56=MA|10=123|8=FIX.4.4|9=57|35=0|34=55|49=T1Kauaiblk2|52=20201130-10:01:14.442|56=MA|10=100|8=FIX.4.4|9=57|35=0|34=56|49=T1Kauaiblk2|52=20201130-10:02:44.447|56=MA|10=110|8=FIX.4.4|9=57|35=0|34=57|49=T1Kauaiblk2|52=20201130-10:04:14.449|56=MA|10=112|8=FIX.4.4|9=57|35=0|34=58|49=T1Kauaiblk2|52=20201130-10:05:44.452|56=MA|10=111|8=FIX.4.4|9=57|35=0|34=59|49=T1Kauaiblk2|52=20201130-10:07:14.455|56=MA|10=114|8=FIX.4.4|9=57|35=0|34=60|49=T1Kauaiblk2|52=20201130-10:08:44.455|56=MA|10=110|8=FIX.4.4|9=57|35=0|34=61|49=T1Kauaiblk2|52=20201130-10:10:14.456|56=MA|10=102|8=FIX.4.4|9=57|35=0|34=62|49=T1Kauaiblk2|52=20201130-10:11:44.457|56=MA|10=108|8=FIX.4.4|9=57|35=0|34=63|49=T1Kauaiblk2|52=20201130-10:13:14.457|56=MA|10=108|8=FIX.4.4|9=57|35=0|34=64|49=T1Kauaiblk2|52=20201130-10:14:44.459|56=MA|10=115|8=FIX.4.4|9=57|35=0|34=65|49=T1Kauaiblk2|52=20201130-10:16:14.459|56=MA|10=115|8=FIX.4.4|9=57|35=0|34=66|49=T1Kauaiblk2|52=20201130-10:17:45.460|56=MA|10=113|8=FIX.4.4|9=57|35=0|34=67|49=T1Kauaiblk2|52=20201130-10:19:15.460|56=MA|10=113|8=FIX.4.4|9=57|35=0|34=68|49=T1Kauaiblk2|52=20201130-10:20:45.464|56=MA|10=113|8=FIX.4.4|9=57|35=0|34=69|49=T1Kauaiblk2|52=20201130-10:22:15.468|56=MA|10=117|8=FIX.4.4|9=57|35=0|34=70|49=T1Kauaiblk2|52=20201130-10:23:45.469|56=MA|10=114|8=FIX.4.4|9=57|35=0|34=71|49=T1Kauaiblk2|52=20201130-10:25:15.471|56=MA|10=107|8=FIX.4.4|9=57|35=0|34=72|49=T1Kauaiblk2|52=20201130-10:26:45.473|56=MA|10=114|8=FIX.4.4|9=57|35=0|34=73|49=T1Kauaiblk2|52=20201130-10:28:15.474|56=MA|10=115|8=FIX.4.4|9=57|35=0|34=74|49=T1Kauaiblk2|52=20201130-10:29:45.475|56=MA|10=121|8=FIX.4.4|9=57|35=0|34=75|49=T1Kauaiblk2|52=20201130-10:31:16.476|56=MA|10=114|8=FIX.4.4|9=57|35=0|34=76|49=T1Kauaiblk2|52=20201130-10:32:46.476|56=MA|10=119|8=FIX.4.4|9=57|35=0|34=77|49=T1Kauaiblk2|52=20201130-10:34:17.476|56=MA|10=120|8=FIX.4.4|9=57|35=0|34=78|49=T1Kauaiblk2|52=20201130-10:35:47.477|56=MA|10=126|8=FIX.4.4|9=57|35=0|34=79|49=T1Kauaiblk2|52=20201130-10:37:18.477|56=MA|10=127|8=FIX.4.4|9=57|35=0|34=80|49=T1Kauaiblk2|52=20201130-10:38:49.476|56=MA|10=123|8=FIX.4.4|9=57|35=0|34=81|49=T1Kauaiblk2|52=20201130-10:40:19.478|56=MA|10=116|8=FIX.4.4|9=57|35=0|34=82|49=T1Kauaiblk2|52=20201130-10:41:49.478|56=MA|10=121|8=FIX.4.4|9=57|35=0|34=83|49=T1Kauaiblk2|52=20201130-10:43:20.478|56=MA|10=113|8=FIX.4.4|9=57|35=0|34=84|49=T1Kauaiblk2|52=20201130-10:44:50.478|56=MA|10=118|8=FIX.4.4|9=57|35=0|34=85|49=T1Kauaiblk2|52=20201130-10:46:21.477|56=MA|10=118|8=FIX.4.4|9=57|35=0|34=86|49=T1Kauaiblk2|52=20201130-10:47:51.477|56=MA|10=123|8=FIX.4.4|9=57|35=0|34=87|49=T1Kauaiblk2|52=20201130-10:49:21.477|56=MA|10=123|8=FIX.4.4|9=57|35=0|34=88|49=T1Kauaiblk2|52=20201130-10:50:51.477|56=MA|10=119|8=FIX.4.4|9=57|35=0|34=89|49=T1Kauaiblk2|52=20201130-10:52:21.478|56=MA|10=120|8=FIX.4.4|9=57|35=0|34=90|49=T1Kauaiblk2|52=20201130-10:53:51.479|56=MA|10=117|8=FIX.4.4|9=57|35=0|34=91|49=T1Kauaiblk2|52=20201130-10:55:21.481|56=MA|10=110|8=FIX.4.4|9=57|35=0|34=92|49=T1Kauaiblk2|52=20201130-10:56:51.483|56=MA|10=117|8=FIX.4.4|9=57|35=0|34=93|49=T1Kauaiblk2|52=20201130-10:58:21.484|56=MA|10=118|8=FIX.4.4|9=57|35=0|34=94|49=T1Kauaiblk2|52=20201130-10:59:51.487|56=MA|10=126|8=FIX.4.4|9=57|35=0|34=95|49=T1Kauaiblk2|52=20201130-11:01:21.488|56=MA|10=113|8=FIX.4.4|9=57|35=0|34=96|49=T1Kauaiblk2|52=20201130-11:02:52.487|56=MA|10=118|8=FIX.4.4|9=57|35=0|34=97|49=T1Kauaiblk2|52=20201130-11:04:22.487|56=MA|10=118|8=FIX.4.4|9=57|35=0|34=98|49=T1Kauaiblk2|52=20201130-11:05:52.489|56=MA|10=125|8=FIX.4.4|9=57|35=0|34=99|49=T1Kauaiblk2|52=20201130-11:07:23.488|56=MA|10=125|8=FIX.4.4|9=58|35=0|34=100|49=T1Kauaiblk2|52=20201130-11:08:53.489|56=MA|10=162|8=FIX.4.4|9=58|35=0|34=101|49=T1Kauaiblk2|52=20201130-11:10:24.489|56=MA|10=154|8=FIX.4.4|9=58|35=0|34=102|49=T1Kauaiblk2|52=20201130-11:11:54.490|56=MA|10=151|8=FIX.4.4|9=58|35=0|34=103|49=T1Kauaiblk2|52=20201130-11:13:24.492|56=MA|10=153|8=FIX.4.4|9=58|35=0|34=104|49=T1Kauaiblk2|52=20201130-11:14:54.493|56=MA|10=159|8=FIX.4.4|9=58|35=0|34=105|49=T1Kauaiblk2|52=20201130-11:16:24.493|56=MA|10=159|8=FIX.4.4|9=58|35=0|34=106|49=T1Kauaiblk2|52=20201130-11:17:54.493|56=MA|10=164|8=FIX.4.4|9=58|35=0|34=107|49=T1Kauaiblk2|52=20201130-11:19:24.495|56=MA|10=166|8=FIX.4.4|9=58|35=0|34=108|49=T1Kauaiblk2|52=20201130-11:20:54.495|56=MA|10=162|8=FIX.4.4|9=58|35=0|34=109|49=T1Kauaiblk2|52=20201130-11:22:25.494|56=MA|10=162|8=FIX.4.4|9=58|35=0|34=110|49=T1Kauaiblk2|52=20201130-11:23:55.494|56=MA|10=158|8=FIX.4.4|9=58|35=0|34=111|49=T1Kauaiblk2|52=20201130-11:25:25.494|56=MA|10=158|8=FIX.4.4|9=58|35=0|34=112|49=T1Kauaiblk2|52=20201130-11:26:55.494|56=MA|10=163|8=FIX.4.4|9=58|35=0|34=113|49=T1Kauaiblk2|52=20201130-11:28:25.495|56=MA|10=164|8=FIX.4.4|9=58|35=0|34=114|49=T1Kauaiblk2|52=20201130-11:29:56.495|56=MA|10=170|8=FIX.4.4|9=58|35=0|34=115|49=T1Kauaiblk2|52=20201130-11:31:27.495|56=MA|10=162|8=FIX.4.4|9=58|35=0|34=116|49=T1Kauaiblk2|52=20201130-11:32:58.494|56=MA|10=167|8=FIX.4.4|9=58|35=0|34=117|49=T1Kauaiblk2|52=20201130-11:34:29.494|56=MA|10=168|8=FIX.4.4|9=58|35=0|34=118|49=T1Kauaiblk2|52=20201130-11:36:00.494|56=MA|10=160|8=FIX.4.4|9=58|35=0|34=119|49=T1Kauaiblk2|52=20201130-11:37:31.493|56=MA|10=165|8=FIX.4.4|9=58|35=0|34=120|49=T1Kauaiblk2|52=20201130-11:39:01.493|56=MA|10=156|8=FIX.4.4|9=58|35=0|34=121|49=T1Kauaiblk2|52=20201130-11:40:31.493|56=MA|10=152|8=FIX.4.4|9=58|35=0|34=122|49=T1Kauaiblk2|52=20201130-11:42:02.494|56=MA|10=154|8=FIX.4.4|9=58|35=0|34=123|49=T1Kauaiblk2|52=20201130-11:43:33.493|56=MA|10=159|8=FIX.4.4|9=58|35=0|34=124|49=T1Kauaiblk2|52=20201130-11:45:04.492|56=MA|10=159|8=FIX.4.4|9=58|35=0|34=125|49=T1Kauaiblk2|52=20201130-11:46:34.493|56=MA|10=165|8=FIX.4.4|9=58|35=0|34=126|49=T1Kauaiblk2|52=20201130-11:48:05.492|56=MA|10=165|8=FIX.4.4|9=58|35=0|34=127|49=T1Kauaiblk2|52=20201130-11:49:35.494|56=MA|10=172|8=FIX.4.4|9=58|35=0|34=128|49=T1Kauaiblk2|52=20201130-11:51:06.492|56=MA|10=162|8=FIX.4.4|9=58|35=0|34=129|49=T1Kauaiblk2|52=20201130-11:52:36.492|56=MA|10=167|8=FIX.4.4|9=58|35=0|34=130|49=T1Kauaiblk2|52=20201130-11:54:06.493|56=MA|10=159|8=FIX.4.4|9=58|35=0|34=131|49=T1Kauaiblk2|52=20201130-11:55:37.493|56=MA|10=165|8=FIX.4.4|9=58|35=0|34=132|49=T1Kauaiblk2|52=20201130-11:57:08.491|56=MA|10=164|8=FIX.4.4|9=58|35=0|34=133|49=T1Kauaiblk2|52=20201130-11:58:38.491|56=MA|10=169|8=FIX.4.4|9=58|35=0|34=134|49=T1Kauaiblk2|52=20201130-12:00:08.492|56=MA|10=156|8=FIX.4.4|9=58|35=0|34=135|49=T1Kauaiblk2|52=20201130-12:01:39.492|56=MA|10=162|8=FIX.4.4|9=58|35=0|34=136|49=T1Kauaiblk2|52=20201130-12:03:10.491|56=MA|10=153|8=FIX.4.4|9=58|35=0|34=137|49=T1Kauaiblk2|52=20201130-12:04:40.491|56=MA|10=158|8=FIX.4.4|9=58|35=0|34=138|49=T1Kauaiblk2|52=20201130-12:06:11.490|56=MA|10=158|8=FIX.4.4|9=58|35=0|34=139|49=T1Kauaiblk2|52=20201130-12:07:41.490|56=MA|10=163|8=FIX.4.4|9=58|35=0|34=140|49=T1Kauaiblk2|52=20201130-12:09:11.490|56=MA|10=154|8=FIX.4.4|9=58|35=0|34=141|49=T1Kauaiblk2|52=20201130-12:10:41.490|56=MA|10=150|8=FIX.4.4|9=58|35=0|34=142|49=T1Kauaiblk2|52=20201130-12:12:11.490|56=MA|10=150|8=FIX.4.4|9=58|35=0|34=143|49=T1Kauaiblk2|52=20201130-12:13:42.490|56=MA|10=156|8=FIX.4.4|9=58|35=0|34=144|49=T1Kauaiblk2|52=20201130-12:15:13.490|56=MA|10=157|8=FIX.4.4|9=58|35=0|34=145|49=T1Kauaiblk2|52=20201130-12:16:44.489|56=MA|10=171|8=FIX.4.4|9=58|35=0|34=146|49=T1Kauaiblk2|52=20201130-12:18:14.490|56=MA|10=163|8=FIX.4.4|9=58|35=0|34=147|49=T1Kauaiblk2|52=20201130-12:19:44.493|56=MA|10=171|8=FIX.4.4|9=58|35=0|34=148|49=T1Kauaiblk2|52=20201130-12:21:14.498|56=MA|10=167|8=FIX.4.4|9=58|35=0|34=149|49=T1Kauaiblk2|52=20201130-12:22:44.502|56=MA|10=158|8=FIX.4.4|9=58|35=0|34=150|49=T1Kauaiblk2|52=20201130-12:24:14.505|56=MA|10=152|8=FIX.4.4|9=58|35=0|34=151|49=T1Kauaiblk2|52=20201130-12:25:44.507|56=MA|10=159|8=FIX.4.4|9=58|35=0|34=152|49=T1Kauaiblk2|52=20201130-12:27:14.510|56=MA|10=153|8=FIX.4.4|9=58|35=0|34=153|49=T1Kauaiblk2|52=20201130-12:28:44.513|56=MA|10=161|8=FIX.4.4|9=58|35=0|34=154|49=T1Kauaiblk2|52=20201130-12:30:14.514|56=MA|10=153|8=FIX.4.4|9=58|35=0|34=155|49=T1Kauaiblk2|52=20201130-12:31:44.516|56=MA|10=160|8=FIX.4.4|9=58|35=0|34=156|49=T1Kauaiblk2|52=20201130-12:33:14.518|56=MA|10=162|8=FIX.4.4|9=58|35=0|34=157|49=T1Kauaiblk2|52=20201130-12:34:44.519|56=MA|10=168|8=FIX.4.4|9=58|35=0|34=158|49=T1Kauaiblk2|52=20201130-12:36:14.521|56=MA|10=161|8=FIX.4.4|9=58|35=0|34=159|49=T1Kauaiblk2|52=20201130-12:37:44.522|56=MA|10=167|8=FIX.4.4|9=58|35=0|34=160|49=T1Kauaiblk2|52=20201130-12:39:14.522|56=MA|10=158|8=FIX.4.4|9=58|35=0|34=161|49=T1Kauaiblk2|52=20201130-12:40:44.523|56=MA|10=155|8=FIX.4.4|9=58|35=0|34=162|49=T1Kauaiblk2|52=20201130-12:42:14.525|56=MA|10=157|8=FIX.4.4|9=58|35=0|34=163|49=T1Kauaiblk2|52=20201130-12:43:44.525|56=MA|10=162|8=FIX.4.4|9=58|35=0|34=164|49=T1Kauaiblk2|52=20201130-12:45:14.527|56=MA|10=164|8=FIX.4.4|9=58|35=0|34=165|49=T1Kauaiblk2|52=20201130-12:46:45.526|56=MA|10=169|8=FIX.4.4|9=58|35=0|34=166|49=T1Kauaiblk2|52=20201130-12:48:15.527|56=MA|10=170|8=FIX.4.4|9=58|35=0|34=167|49=T1Kauaiblk2|52=20201130-12:49:45.527|56=MA|10=175|8=FIX.4.4|9=58|35=0|34=168|49=T1Kauaiblk2|52=20201130-12:51:15.527|56=MA|10=166|8=FIX.4.4|9=58|35=0|34=169|49=T1Kauaiblk2|52=20201130-12:52:45.529|56=MA|10=173|8=FIX.4.4|9=58|35=0|34=170|49=T1Kauaiblk2|52=20201130-12:54:15.531|56=MA|10=157|8=FIX.4.4|9=58|35=0|34=171|49=T1Kauaiblk2|52=20201130-12:55:45.535|56=MA|10=166|8=FIX.4.4|9=58|35=0|34=172|49=T1Kauaiblk2|52=20201130-12:57:15.537|56=MA|10=168|8=FIX.4.4|9=58|35=0|34=173|49=T1Kauaiblk2|52=20201130-12:58:45.540|56=MA|10=167|8=FIX.4.4|9=58|35=0|34=174|49=T1Kauaiblk2|52=20201130-13:00:15.541|56=MA|10=154|8=FIX.4.4|9=58|35=0|34=175|49=T1Kauaiblk2|52=20201130-13:01:45.543|56=MA|10=161|8=FIX.4.4|9=58|35=0|34=176|49=T1Kauaiblk2|52=20201130-13:03:15.545|56=MA|10=163|8=FIX.4.4|9=58|35=0|34=177|49=T1Kauaiblk2|52=20201130-13:04:45.547|56=MA|10=170|8=FIX.4.4|9=58|35=0|34=178|49=T1Kauaiblk2|52=20201130-13:06:15.547|56=MA|10=170|8=FIX.4.4|9=58|35=0|34=179|49=T1Kauaiblk2|52=20201130-13:07:45.550|56=MA|10=169|8=FIX.4.4|9=58|35=0|34=180|49=T1Kauaiblk2|52=20201130-13:09:16.549|56=MA|10=169|8=FIX.4.4|9=58|35=0|34=181|49=T1Kauaiblk2|52=20201130-13:10:46.550|56=MA|10=157|8=FIX.4.4|9=58|35=0|34=182|49=T1Kauaiblk2|52=20201130-13:12:16.552|56=MA|10=159|8=FIX.4.4|9=58|35=0|34=183|49=T1Kauaiblk2|52=20201130-13:13:46.552|56=MA|10=164|8=FIX.4.4|9=58|35=0|34=184|49=T1Kauaiblk2|52=20201130-13:15:16.553|56=MA|10=165|8=FIX.4.4|9=58|35=0|34=185|49=T1Kauaiblk2|52=20201130-13:16:46.553|56=MA|10=170|8=FIX.4.4|9=58|35=0|34=186|49=T1Kauaiblk2|52=20201130-13:18:16.554|56=MA|10=171|8=FIX.4.4|9=58|35=0|34=187|49=T1Kauaiblk2|52=20201130-13:19:46.554|56=MA|10=176|8=FIX.4.4|9=58|35=0|34=188|49=T1Kauaiblk2|52=20201130-13:21:16.554|56=MA|10=167|8=FIX.4.4|9=58|35=0|34=189|49=T1Kauaiblk2|52=20201130-13:22:46.555|56=MA|10=173|8=FIX.4.4|9=58|35=0|34=190|49=T1Kauaiblk2|52=20201130-13:24:16.555|56=MA|10=164|8=FIX.4.4|9=58|35=0|34=191|49=T1Kauaiblk2|52=20201130-13:25:46.555|56=MA|10=169|8=FIX.4.4|9=58|35=0|34=192|49=T1Kauaiblk2|52=20201130-13:27:16.555|56=MA|10=169|8=FIX.4.4|9=58|35=0|34=193|49=T1Kauaiblk2|52=20201130-13:28:46.555|56=MA|10=174|8=FIX.4.4|9=58|35=0|34=194|49=T1Kauaiblk2|52=20201130-13:30:16.556|56=MA|10=166|8=FIX.4.4|9=58|35=0|34=195|49=T1Kauaiblk2|52=20201130-13:31:47.557|56=MA|10=173|8=FIX.4.4|9=58|35=0|34=196|49=T1Kauaiblk2|52=20201130-13:33:18.555|56=MA|10=172|8=FIX.4.4|9=58|35=0|34=197|49=T1Kauaiblk2|52=20201130-13:34:48.557|56=MA|10=179|8=FIX.4.4|9=58|35=0|34=198|49=T1Kauaiblk2|52=20201130-13:36:19.556|56=MA|10=179|8=FIX.4.4|9=58|35=0|34=199|49=T1Kauaiblk2|52=20201130-13:37:50.555|56=MA|10=175|8=FIX.4.4|9=58|35=0|34=200|49=T1Kauaiblk2|52=20201130-13:39:20.556|56=MA|10=158|8=FIX.4.4|9=58|35=0|34=201|49=T1Kauaiblk2|52=20201130-13:40:50.556|56=MA|10=154|8=FIX.4.4|9=58|35=0|34=202|49=T1Kauaiblk2|52=20201130-13:42:20.556|56=MA|10=154|8=FIX.4.4|9=58|35=0|34=203|49=T1Kauaiblk2|52=20201130-13:43:50.556|56=MA|10=159|8=FIX.4.4|9=58|35=0|34=204|49=T1Kauaiblk2|52=20201130-13:45:20.556|56=MA|10=159|8=FIX.4.4|9=58|35=0|34=205|49=T1Kauaiblk2|52=20201130-13:46:51.556|56=MA|10=165|8=FIX.4.4|9=58|35=0|34=206|49=T1Kauaiblk2|52=20201130-13:48:21.556|56=MA|10=165|8=FIX.4.4|9=58|35=0|34=207|49=T1Kauaiblk2|52=20201130-13:49:51.556|56=MA|10=170|8=FIX.4.4|9=58|35=0|34=208|49=T1Kauaiblk2|52=20201130-13:51:21.556|56=MA|10=161|8=FIX.4.4|9=58|35=0|34=209|49=T1Kauaiblk2|52=20201130-13:52:52.556|56=MA|10=167|8=FIX.4.4|9=58|35=0|34=210|49=T1Kauaiblk2|52=20201130-13:54:23.556|56=MA|10=159|8=FIX.4.4|9=58|35=0|34=211|49=T1Kauaiblk2|52=20201130-13:55:53.556|56=MA|10=164|8=FIX.4.4|9=58|35=0|34=212|49=T1Kauaiblk2|52=20201130-13:57:24.555|56=MA|10=164|8=FIX.4.4|9=58|35=0|34=213|49=T1Kauaiblk2|52=20201130-13:58:54.555|56=MA|10=169|8=FIX.4.4|9=58|35=0|34=214|49=T1Kauaiblk2|52=20201130-14:00:24.556|56=MA|10=156|8=FIX.4.4|9=58|35=0|34=215|49=T1Kauaiblk2|52=20201130-14:01:54.559|56=MA|10=164|8=FIX.4.4|9=58|35=0|34=216|49=T1Kauaiblk2|52=20201130-14:03:24.562|56=MA|10=158|8=FIX.4.4|9=58|35=0|34=217|49=T1Kauaiblk2|52=20201130-14:04:54.566|56=MA|10=167|8=FIX.4.4|9=58|35=0|34=218|49=T1Kauaiblk2|52=20201130-14:06:24.569|56=MA|10=170|8=FIX.4.4|9=58|35=0|34=219|49=T1Kauaiblk2|52=20201130-14:07:54.571|56=MA|10=168|8=FIX.4.4|9=58|35=0|34=220|49=T1Kauaiblk2|52=20201130-14:09:24.574|56=MA|10=162|8=FIX.4.4|9=58|35=0|34=221|49=T1Kauaiblk2|52=20201130-14:10:54.576|56=MA|10=160|8=FIX.4.4|9=58|35=0|34=222|49=T1Kauaiblk2|52=20201130-14:12:24.578|56=MA|10=162|8=FIX.4.4|9=58|35=0|34=223|49=T1Kauaiblk2|52=20201130-14:13:54.579|56=MA|10=168|8=FIX.4.4|9=58|35=0|34=224|49=T1Kauaiblk2|52=20201130-14:15:24.581|56=MA|10=161|8=FIX.4.4|9=58|35=0|34=225|49=T1Kauaiblk2|52=20201130-14:16:54.582|56=MA|10=167|8=FIX.4.4|9=58|35=0|34=226|49=T1Kauaiblk2|52=20201130-14:18:24.584|56=MA|10=169|8=FIX.4.4|9=58|35=0|34=227|49=T1Kauaiblk2|52=20201130-14:19:54.586|56=MA|10=176|8=FIX.4.4|9=58|35=0|34=228|49=T1Kauaiblk2|52=20201130-14:21:24.586|56=MA|10=167|8=FIX.4.4|9=58|35=0|34=229|49=T1Kauaiblk2|52=20201130-14:22:54.587|56=MA|10=173|8=FIX.4.4|9=58|35=0|34=230|49=T1Kauaiblk2|52=20201130-14:24:24.587|56=MA|10=164|8=FIX.4.4|9=58|35=0|34=231|49=T1Kauaiblk2|52=20201130-14:25:54.588|56=MA|10=170|8=FIX.4.4|9=58|35=0|34=232|49=T1Kauaiblk2|52=20201130-14:27:24.590|56=MA|10=163|8=FIX.4.4|9=58|35=0|34=233|49=T1Kauaiblk2|52=20201130-14:28:55.589|56=MA|10=177|8=FIX.4.4|9=58|35=0|34=234|49=T1Kauaiblk2|52=20201130-14:30:25.590|56=MA|10=160|8=FIX.4.4|9=58|35=0|34=235|49=T1Kauaiblk2|52=20201130-14:31:55.591|56=MA|10=166|8=FIX.4.4|9=58|35=0|34=236|49=T1Kauaiblk2|52=20201130-14:33:25.591|56=MA|10=166|8=FIX.4.4|9=58|35=0|34=237|49=T1Kauaiblk2|52=20201130-14:34:55.591|56=MA|10=171|8=FIX.4.4|9=58|35=0|34=238|49=T1Kauaiblk2|52=20201130-14:36:25.591|56=MA|10=171|8=FIX.4.4|9=58|35=0|34=239|49=T1Kauaiblk2|52=20201130-14:37:55.593|56=MA|10=178|8=FIX.4.4|9=58|35=0|34=240|49=T1Kauaiblk2|52=20201130-14:39:26.592|56=MA|10=169|8=FIX.4.4|9=58|35=0|34=241|49=T1Kauaiblk2|52=20201130-14:40:56.592|56=MA|10=165|8=FIX.4.4|9=58|35=0|34=242|49=T1Kauaiblk2|52=20201130-14:42:26.593|56=MA|10=166|8=FIX.4.4|9=58|35=0|34=243|49=T1Kauaiblk2|52=20201130-14:43:56.593|56=MA|10=171|8=FIX.4.4|9=58|35=0|34=244|49=T1Kauaiblk2|52=20201130-14:45:27.592|56=MA|10=171|8=FIX.4.4|9=58|35=0|34=245|49=T1Kauaiblk2|52=20201130-14:46:57.594|56=MA|10=178|8=FIX.4.4|9=58|35=0|34=246|49=T1Kauaiblk2|52=20201130-14:48:28.592|56=MA|10=177|8=FIX.4.4|9=58|35=0|34=247|49=T1Kauaiblk2|52=20201130-14:49:58.594|56=MA|10=184|8=FIX.4.4|9=58|35=0|34=248|49=T1Kauaiblk2|52=20201130-14:51:29.592|56=MA|10=174|8=FIX.4.4|9=58|35=0|34=249|49=T1Kauaiblk2|52=20201130-14:52:59.593|56=MA|10=180|8=FIX.4.4|9=58|35=0|34=250|49=T1Kauaiblk2|52=20201130-14:54:30.592|56=MA|10=162|8=FIX.4.4|9=58|35=0|34=251|49=T1Kauaiblk2|52=20201130-14:56:00.592|56=MA|10=162|8=FIX.4.4|9=58|35=0|34=252|49=T1Kauaiblk2|52=20201130-14:57:30.593|56=MA|10=168|8=FIX.4.4|9=58|35=0|34=253|49=T1Kauaiblk2|52=20201130-14:59:00.593|56=MA|10=168|8=FIX.4.4|9=58|35=0|34=254|49=T1Kauaiblk2|52=20201130-15:00:30.593|56=MA|10=159|8=FIX.4.4|9=58|35=0|34=255|49=T1Kauaiblk2|52=20201130-15:02:01.592|56=MA|10=159|8=FIX.4.4|9=58|35=0|34=256|49=T1Kauaiblk2|52=20201130-15:03:31.593|56=MA|10=165|8=FIX.4.4|9=58|35=0|34=257|49=T1Kauaiblk2|52=20201130-15:05:01.593|56=MA|10=165|8=FIX.4.4|9=58|35=0|34=258|49=T1Kauaiblk2|52=20201130-15:06:31.593|56=MA|10=170|8=FIX.4.4|9=58|35=0|34=259|49=T1Kauaiblk2|52=20201130-15:08:02.593|56=MA|10=171|8=FIX.4.4|9=58|35=0|34=260|49=T1Kauaiblk2|52=20201130-15:09:32.594|56=MA|10=168|8=FIX.4.4|9=58|35=0|34=261|49=T1Kauaiblk2|52=20201130-15:11:02.600|56=MA|10=147|8=FIX.4.4|9=58|35=0|34=262|49=T1Kauaiblk2|52=20201130-15:12:32.605|56=MA|10=157|8=FIX.4.4|9=58|35=0|34=263|49=T1Kauaiblk2|52=20201130-15:14:02.610|56=MA|10=153|8=FIX.4.4|9=58|35=0|34=264|49=T1Kauaiblk2|52=20201130-15:15:32.612|56=MA|10=160|8=FIX.4.4|9=58|35=0|34=265|49=T1Kauaiblk2|52=20201130-15:17:02.615|56=MA|10=163|8=FIX.4.4|9=58|35=0|34=266|49=T1Kauaiblk2|52=20201130-15:18:32.618|56=MA|10=171|8=FIX.4.4|9=58|35=0|34=267|49=T1Kauaiblk2|52=20201130-15:20:02.622|56=MA|10=157|8=FIX.4.4|9=58|35=0|34=268|49=T1Kauaiblk2|52=20201130-15:21:32.623|56=MA|10=163|8=FIX.4.4|9=58|35=0|34=269|49=T1Kauaiblk2|52=20201130-15:23:02.626|56=MA|10=166|8=FIX.4.4|9=58|35=0|34=270|49=T1Kauaiblk2|52=20201130-15:24:32.628|56=MA|10=164|8=FIX.4.4|9=58|35=0|34=271|49=T1Kauaiblk2|52=20201130-15:26:02.629|56=MA|10=165|8=FIX.4.4|9=58|35=0|34=272|49=T1Kauaiblk2|52=20201130-15:27:32.631|56=MA|10=163|8=FIX.4.4|9=58|35=0|34=273|49=T1Kauaiblk2|52=20201130-15:29:02.632|56=MA|10=164|8=FIX.4.4|9=58|35=0|34=274|49=T1Kauaiblk2|52=20201130-15:30:32.633|56=MA|10=161|8=FIX.4.4|9=58|35=0|34=275|49=T1Kauaiblk2|52=20201130-15:32:02.634|56=MA|10=162|8=FIX.4.4|9=58|35=0|34=276|49=T1Kauaiblk2|52=20201130-15:33:32.635|56=MA|10=168|8=FIX.4.4|9=58|35=0|34=277|49=T1Kauaiblk2|52=20201130-15:35:02.636|56=MA|10=169|8=FIX.4.4|9=58|35=0|34=278|49=T1Kauaiblk2|52=20201130-15:36:32.636|56=MA|10=174|8=FIX.4.4|9=58|35=0|34=279|49=T1Kauaiblk2|52=20201130-15:38:02.637|56=MA|10=175|8=FIX.4.4|9=58|35=0|34=280|49=T1Kauaiblk2|52=20201130-15:39:32.638|56=MA|10=172|8=FIX.4.4|9=58|35=0|34=281|49=T1Kauaiblk2|52=20201130-15:41:02.639|56=MA|10=164|8=FIX.4.4|9=58|35=0|34=282|49=T1Kauaiblk2|52=20201130-15:42:32.640|56=MA|10=161|8=FIX.4.4|9=58|35=0|34=283|49=T1Kauaiblk2|52=20201130-15:44:03.640|56=MA|10=162|8=FIX.4.4|9=58|35=0|34=284|49=T1Kauaiblk2|52=20201130-15:45:33.640|56=MA|10=167|8=FIX.4.4|9=58|35=0|34=285|49=T1Kauaiblk2|52=20201130-15:47:03.641|56=MA|10=168|8=FIX.4.4|9=58|35=0|34=286|49=T1Kauaiblk2|52=20201130-15:48:34.641|56=MA|10=174|8=FIX.4.4|9=58|35=0|34=287|49=T1Kauaiblk2|52=20201130-15:50:05.642|56=MA|10=167|8=FIX.4.4|9=58|35=0|34=288|49=T1Kauaiblk2|52=20201130-15:51:36.641|56=MA|10=172|8=FIX.4.4|9=58|35=0|34=289|49=T1Kauaiblk2|52=20201130-15:53:06.641|56=MA|10=172|8=FIX.4.4|9=58|35=0|34=290|49=T1Kauaiblk2|52=20201130-15:54:36.641|56=MA|10=168|8=FIX.4.4|9=58|35=0|34=291|49=T1Kauaiblk2|52=20201130-15:56:06.642|56=MA|10=169|8=FIX.4.4|9=58|35=0|34=292|49=T1Kauaiblk2|52=20201130-15:57:37.641|56=MA|10=174|8=FIX.4.4|9=58|35=0|34=293|49=T1Kauaiblk2|52=20201130-15:59:07.642|56=MA|10=175|8=FIX.4.4|9=58|35=0|34=294|49=T1Kauaiblk2|52=20201130-16:00:37.643|56=MA|10=167|8=FIX.4.4|9=58|35=0|34=295|49=T1Kauaiblk2|52=20201130-16:02:08.642|56=MA|10=167|8=FIX.4.4|9=58|35=0|34=296|49=T1Kauaiblk2|52=20201130-16:03:39.642|56=MA|10=173|8=FIX.4.4|9=58|35=0|34=297|49=T1Kauaiblk2|52=20201130-16:05:10.642|56=MA|10=165|8=FIX.4.4|9=58|35=0|34=298|49=T1Kauaiblk2|52=20201130-16:06:41.643|56=MA|10=172|8=FIX.4.4|9=58|35=0|34=299|49=T1Kauaiblk2|52=20201130-16:08:12.643|56=MA|10=173|8=FIX.4.4|9=58|35=0|34=300|49=T1Kauaiblk2|52=20201130-16:09:43.642|56=MA|10=160|8=FIX.4.4|9=58|35=0|34=301|49=T1Kauaiblk2|52=20201130-16:11:13.642|56=MA|10=151|8=FIX.4.4|9=58|35=0|34=302|49=T1Kauaiblk2|52=20201130-16:12:44.641|56=MA|10=156|8=FIX.4.4|9=58|35=0|34=303|49=T1Kauaiblk2|52=20201130-16:14:14.641|56=MA|10=156|8=FIX.4.4|9=58|35=0|34=304|49=T1Kauaiblk2|52=20201130-16:15:44.641|56=MA|10=161|8=FIX.4.4|9=58|35=0|34=305|49=T1Kauaiblk2|52=20201130-16:17:14.641|56=MA|10=161|8=FIX.4.4|9=58|35=0|34=306|49=T1Kauaiblk2|52=20201130-16:18:44.644|56=MA|10=169|8=FIX.4.4|9=58|35=0|34=307|49=T1Kauaiblk2|52=20201130-16:20:14.644|56=MA|10=160|8=FIX.4.4|9=58|35=0|34=308|49=T1Kauaiblk2|52=20201130-16:21:44.645|56=MA|10=166|8=FIX.4.4|9=58|35=0|34=309|49=T1Kauaiblk2|52=20201130-16:23:14.646|56=MA|10=167|8=FIX.4.4|9=58|35=0|34=310|49=T1Kauaiblk2|52=20201130-16:24:44.648|56=MA|10=165|8=FIX.4.4|9=58|35=0|34=311|49=T1Kauaiblk2|52=20201130-16:26:14.648|56=MA|10=165|8=FIX.4.4|9=58|35=0|34=312|49=T1Kauaiblk2|52=20201130-16:27:44.651|56=MA|10=164|8=FIX.4.4|9=58|35=0|34=313|49=T1Kauaiblk2|52=20201130-16:29:15.651|56=MA|10=165|8=FIX.4.4|9=58|35=0|34=314|49=T1Kauaiblk2|52=20201130-16:30:45.651|56=MA|10=161|8=FIX.4.4|9=58|35=0|34=315|49=T1Kauaiblk2|52=20201130-16:32:15.652|56=MA|10=162|8=FIX.4.4|9=58|35=0|34=316|49=T1Kauaiblk2|52=20201130-16:33:45.653|56=MA|10=168|8=FIX.4.4|9=58|35=0|34=317|49=T1Kauaiblk2|52=20201130-16:35:15.655|56=MA|10=170|8=FIX.4.4|9=58|35=0|34=318|49=T1Kauaiblk2|52=20201130-16:36:45.655|56=MA|10=175|8=FIX.4.4|9=58|35=0|34=319|49=T1Kauaiblk2|52=20201130-16:38:15.655|56=MA|10=175|8=FIX.4.4|9=58|35=0|34=320|49=T1Kauaiblk2|52=20201130-16:39:45.657|56=MA|10=173|8=FIX.4.4|9=58|35=0|34=321|49=T1Kauaiblk2|52=20201130-16:41:15.657|56=MA|10=164|8=FIX.4.4|9=58|35=0|34=322|49=T1Kauaiblk2|52=20201130-16:42:45.658|56=MA|10=170|8=FIX.4.4|9=58|35=0|34=323|49=T1Kauaiblk2|52=20201130-16:44:15.659|56=MA|10=171|8=FIX.4.4|9=58|35=0|34=324|49=T1Kauaiblk2|52=20201130-16:45:46.658|56=MA|10=176|8=FIX.4.4|9=58|35=0|34=325|49=T1Kauaiblk2|52=20201130-16:47:16.658|56=MA|10=176|8=FIX.4.4|9=58|35=0|34=326|49=T1Kauaiblk2|52=20201130-16:48:46.660|56=MA|10=174|8=FIX.4.4|9=58|35=0|34=327|49=T1Kauaiblk2|52=20201130-16:50:17.659|56=MA|10=174|8=FIX.4.4|9=58|35=0|34=328|49=T1Kauaiblk2|52=20201130-16:51:47.661|56=MA|10=172|8=FIX.4.4|9=58|35=0|34=329|49=T1Kauaiblk2|52=20201130-16:53:17.661|56=MA|10=172|8=FIX.4.4|9=58|35=0|34=330|49=T1Kauaiblk2|52=20201130-16:54:47.661|56=MA|10=168|8=FIX.4.4|9=58|35=0|34=331|49=T1Kauaiblk2|52=20201130-16:56:17.661|56=MA|10=168|8=FIX.4.4|9=58|35=0|34=332|49=T1Kauaiblk2|52=20201130-16:57:47.662|56=MA|10=174|8=FIX.4.4|9=58|35=0|34=333|49=T1Kauaiblk2|52=20201130-16:59:18.663|56=MA|10=176|8=FIX.4.4|9=58|35=0|34=334|49=T1Kauaiblk2|52=20201130-17:00:49.662|56=MA|10=167|8=FIX.4.4|9=58|35=0|34=335|49=T1Kauaiblk2|52=20201130-17:02:19.662|56=MA|10=167|8=FIX.4.4|9=58|35=0|34=336|49=T1Kauaiblk2|52=20201130-17:03:49.663|56=MA|10=173|8=FIX.4.4|9=58|35=0|34=337|49=T1Kauaiblk2|52=20201130-17:05:19.663|56=MA|10=173|8=FIX.4.4|9=58|35=0|34=338|49=T1Kauaiblk2|52=20201130-17:06:49.663|56=MA|10=178|8=FIX.4.4|9=58|35=0|34=339|49=T1Kauaiblk2|52=20201130-17:08:19.664|56=MA|10=179|8=FIX.4.4|9=58|35=0|34=340|49=T1Kauaiblk2|52=20201130-17:09:49.665|56=MA|10=176|8=FIX.4.4|9=58|35=0|34=341|49=T1Kauaiblk2|52=20201130-17:11:20.663|56=MA|10=157|8=FIX.4.4|9=58|35=0|34=342|49=T1Kauaiblk2|52=20201130-17:12:50.664|56=MA|10=163|8=FIX.4.4|9=58|35=0|34=343|49=T1Kauaiblk2|52=20201130-17:14:20.664|56=MA|10=163|8=FIX.4.4|9=58|35=0|34=344|49=T1Kauaiblk2|52=20201130-17:15:50.664|56=MA|10=168|8=FIX.4.4|9=58|35=0|34=345|49=T1Kauaiblk2|52=20201130-17:17:20.664|56=MA|10=168|8=FIX.4.4|9=58|35=0|34=346|49=T1Kauaiblk2|52=20201130-17:18:50.664|56=MA|10=173|8=FIX.4.4|9=58|35=0|34=347|49=T1Kauaiblk2|52=20201130-17:20:20.665|56=MA|10=165|8=FIX.4.4|9=58|35=0|34=348|49=T1Kauaiblk2|52=20201130-17:21:50.665|56=MA|10=170|8=FIX.4.4|9=58|35=0|34=349|49=T1Kauaiblk2|52=20201130-17:23:20.665|56=MA|10=170|8=FIX.4.4|9=58|35=0|34=350|49=T1Kauaiblk2|52=20201130-17:24:50.665|56=MA|10=166|8=FIX.4.4|9=58|35=0|34=351|49=T1Kauaiblk2|52=20201130-17:26:20.666|56=MA|10=167|8=FIX.4.4|9=58|35=0|34=352|49=T1Kauaiblk2|52=20201130-17:27:50.669|56=MA|10=175|8=FIX.4.4|9=58|35=0|34=353|49=T1Kauaiblk2|52=20201130-17:29:20.671|56=MA|10=168|8=FIX.4.4|9=58|35=0|34=354|49=T1Kauaiblk2|52=20201130-17:30:50.672|56=MA|10=165|8=FIX.4.4|9=58|35=0|34=355|49=T1Kauaiblk2|52=20201130-17:32:20.675|56=MA|10=168|8=FIX.4.4|9=58|35=0|34=356|49=T1Kauaiblk2|52=20201130-17:33:50.676|56=MA|10=174|8=FIX.4.4|9=58|35=0|34=357|49=T1Kauaiblk2|52=20201130-17:35:20.678|56=MA|10=176|8=FIX.4.4|9=58|35=0|34=358|49=T1Kauaiblk2|52=20201130-17:36:50.679|56=MA|10=182|8=FIX.4.4|9=58|35=0|34=359|49=T1Kauaiblk2|52=20201130-17:38:20.681|56=MA|10=175|8=FIX.4.4|9=58|35=0|34=360|49=T1Kauaiblk2|52=20201130-17:39:50.681|56=MA|10=171|8=FIX.4.4|9=58|35=0|34=361|49=T1Kauaiblk2|52=20201130-17:41:20.682|56=MA|10=163|8=FIX.4.4|9=58|35=0|34=362|49=T1Kauaiblk2|52=20201130-17:42:50.684|56=MA|10=170|8=FIX.4.4|9=58|35=0|34=363|49=T1Kauaiblk2|52=20201130-17:44:20.685|56=MA|10=171|8=FIX.4.4|9=58|35=0|34=364|49=T1Kauaiblk2|52=20201130-17:45:50.687|56=MA|10=178|8=FIX.4.4|9=58|35=0|34=365|49=T1Kauaiblk2|52=20201130-17:47:20.687|56=MA|10=178|8=FIX.4.4|9=58|35=0|34=366|49=T1Kauaiblk2|52=20201130-17:48:50.689|56=MA|10=185|8=FIX.4.4|9=58|35=0|34=367|49=T1Kauaiblk2|52=20201130-17:50:20.690|56=MA|10=168|8=FIX.4.4|9=58|35=0|34=368|49=T1Kauaiblk2|52=20201130-17:51:50.690|56=MA|10=173|8=FIX.4.4|9=58|35=0|34=369|49=T1Kauaiblk2|52=20201130-17:53:20.691|56=MA|10=174|8=FIX.4.4|9=58|35=0|34=370|49=T1Kauaiblk2|52=20201130-17:54:50.692|56=MA|10=171|8=FIX.4.4|9=58|35=0|34=371|49=T1Kauaiblk2|52=20201130-17:56:20.693|56=MA|10=172|8=FIX.4.4|9=58|35=0|34=372|49=T1Kauaiblk2|52=20201130-17:57:50.695|56=MA|10=179|8=FIX.4.4|9=58|35=0|34=373|49=T1Kauaiblk2|52=20201130-17:59:21.696|56=MA|10=181|8=FIX.4.4|9=58|35=0|34=374|49=T1Kauaiblk2|52=20201130-18:00:52.696|56=MA|10=173|8=FIX.4.4|9=58|35=0|34=375|49=T1Kauaiblk2|52=20201130-18:02:22.696|56=MA|10=173|8=FIX.4.4|9=58|35=0|34=376|49=T1Kauaiblk2|52=20201130-18:03:52.696|56=MA|10=178|8=FIX.4.4|9=58|35=0|34=377|49=T1Kauaiblk2|52=20201130-18:05:22.696|56=MA|10=178|8=FIX.4.4|9=58|35=0|34=378|49=T1Kauaiblk2|52=20201130-18:06:52.697|56=MA|10=184|8=FIX.4.4|9=58|35=0|34=379|49=T1Kauaiblk2|52=20201130-18:08:22.697|56=MA|10=184|8=FIX.4.4|9=58|35=0|34=380|49=T1Kauaiblk2|52=20201130-18:09:52.699|56=MA|10=182|8=FIX.4.4|9=58|35=0|34=381|49=T1Kauaiblk2|52=20201130-18:11:22.699|56=MA|10=173|8=FIX.4.4|9=58|35=0|34=382|49=T1Kauaiblk2|52=20201130-18:12:52.699|56=MA|10=178|8=FIX.4.4|9=58|35=0|34=383|49=T1Kauaiblk2|52=20201130-18:14:22.699|56=MA|10=178|8=FIX.4.4|9=58|35=0|34=384|49=T1Kauaiblk2|52=20201130-18:15:52.700|56=MA|10=166|8=FIX.4.4|9=58|35=0|34=385|49=T1Kauaiblk2|52=20201130-18:17:22.700|56=MA|10=166|8=FIX.4.4|9=58|35=0|34=386|49=T1Kauaiblk2|52=20201130-18:18:52.702|56=MA|10=173|8=FIX.4.4|9=58|35=0|34=387|49=T1Kauaiblk2|52=20201130-18:20:23.701|56=MA|10=164|8=FIX.4.4|9=58|35=0|34=388|49=T1Kauaiblk2|52=20201130-18:21:53.702|56=MA|10=170|8=FIX.4.4|9=58|35=0|34=389|49=T1Kauaiblk2|52=20201130-18:23:24.701|56=MA|10=170|8=FIX.4.4|9=58|35=0|34=390|49=T1Kauaiblk2|52=20201130-18:24:54.703|56=MA|10=168|8=FIX.4.4|9=58|35=0|34=391|49=T1Kauaiblk2|52=20201130-18:26:25.701|56=MA|10=167|8=FIX.4.4|9=58|35=0|34=392|49=T1Kauaiblk2|52=20201130-18:27:55.702|56=MA|10=173|8=FIX.4.4|9=58|35=0|34=393|49=T1Kauaiblk2|52=20201130-18:29:25.703|56=MA|10=174|8=FIX.4.4|9=58|35=0|34=394|49=T1Kauaiblk2|52=20201130-18:30:55.703|56=MA|10=170|8=FIX.4.4|9=58|35=0|34=395|49=T1Kauaiblk2|52=20201130-18:32:25.703|56=MA|10=170|8=FIX.4.4|9=58|35=0|34=396|49=T1Kauaiblk2|52=20201130-18:33:55.703|56=MA|10=175|8=FIX.4.4|9=58|35=0|34=397|49=T1Kauaiblk2|52=20201130-18:35:25.705|56=MA|10=177|8=FIX.4.4|9=58|35=0|34=398|49=T1Kauaiblk2|52=20201130-18:36:55.708|56=MA|10=185|8=FIX.4.4|9=58|35=0|34=399|49=T1Kauaiblk2|52=20201130-18:38:25.708|56=MA|10=185|8=FIX.4.4|9=58|35=0|34=400|49=T1Kauaiblk2|52=20201130-18:39:55.710|56=MA|10=165|8=FIX.4.4|9=58|35=0|34=401|49=T1Kauaiblk2|52=20201130-18:41:25.712|56=MA|10=158|8=FIX.4.4|9=58|35=0|34=402|49=T1Kauaiblk2|52=20201130-18:42:55.713|56=MA|10=164|8=FIX.4.4|9=58|35=0|34=403|49=T1Kauaiblk2|52=20201130-18:44:25.715|56=MA|10=166|8=FIX.4.4|9=58|35=0|34=404|49=T1Kauaiblk2|52=20201130-18:45:55.717|56=MA|10=173|8=FIX.4.4|9=58|35=0|34=405|49=T1Kauaiblk2|52=20201130-18:47:25.717|56=MA|10=173|8=FIX.4.4|9=58|35=0|34=406|49=T1Kauaiblk2|52=20201130-18:48:55.719|56=MA|10=180|8=FIX.4.4|9=58|35=0|34=407|49=T1Kauaiblk2|52=20201130-18:50:25.720|56=MA|10=163|8=FIX.4.4|9=58|35=0|34=408|49=T1Kauaiblk2|52=20201130-18:51:55.722|56=MA|10=170|8=FIX.4.4|9=58|35=0|34=409|49=T1Kauaiblk2|52=20201130-18:53:25.723|56=MA|10=171|8=FIX.4.4|9=58|35=0|34=410|49=T1Kauaiblk2|52=20201130-18:54:55.723|56=MA|10=167|8=FIX.4.4|9=58|35=0|34=411|49=T1Kauaiblk2|52=20201130-18:56:25.725|56=MA|10=169|8=FIX.4.4|9=58|35=0|34=412|49=T1Kauaiblk2|52=20201130-18:57:55.725|56=MA|10=174|8=FIX.4.4|9=58|35=0|34=413|49=T1Kauaiblk2|52=20201130-18:59:25.727|56=MA|10=176|8=FIX.4.4|9=58|35=0|34=414|49=T1Kauaiblk2|52=20201130-19:00:55.727|56=MA|10=167|8=FIX.4.4|9=58|35=0|34=415|49=T1Kauaiblk2|52=20201130-19:02:25.728|56=MA|10=168|8=FIX.4.4|9=58|35=0|34=416|49=T1Kauaiblk2|52=20201130-19:03:55.729|56=MA|10=174|8=FIX.4.4|9=58|35=0|34=417|49=T1Kauaiblk2|52=20201130-19:05:25.730|56=MA|10=166|8=FIX.4.4|9=58|35=0|34=418|49=T1Kauaiblk2|52=20201130-19:06:55.730|56=MA|10=171|8=FIX.4.4|9=58|35=0|34=419|49=T1Kauaiblk2|52=20201130-19:08:25.731|56=MA|10=172|8=FIX.4.4|9=58|35=0|34=420|49=T1Kauaiblk2|52=20201130-19:09:55.731|56=MA|10=168|8=FIX.4.4|9=58|35=0|34=421|49=T1Kauaiblk2|52=20201130-19:11:25.733|56=MA|10=161|8=FIX.4.4|9=58|35=0|34=422|49=T1Kauaiblk2|52=20201130-19:12:55.733|56=MA|10=166|8=FIX.4.4|9=58|35=0|34=423|49=T1Kauaiblk2|52=20201130-19:14:25.734|56=MA|10=167|8=FIX.4.4|9=58|35=0|34=424|49=T1Kauaiblk2|52=20201130-19:15:56.734|56=MA|10=173|8=FIX.4.4|9=58|35=0|34=425|49=T1Kauaiblk2|52=20201130-19:17:27.734|56=MA|10=174|8=FIX.4.4|9=58|35=0|34=426|49=T1Kauaiblk2|52=20201130-19:18:57.735|56=MA|10=180|8=FIX.4.4|9=58|35=0|34=427|49=T1Kauaiblk2|52=20201130-19:20:27.735|56=MA|10=171|8=FIX.4.4|9=58|35=0|34=428|49=T1Kauaiblk2|52=20201130-19:21:58.735|56=MA|10=177|8=FIX.4.4|9=58|35=0|34=429|49=T1Kauaiblk2|52=20201130-19:23:28.736|56=MA|10=178|8=FIX.4.4|9=58|35=0|34=430|49=T1Kauaiblk2|52=20201130-19:24:58.736|56=MA|10=174|8=FIX.4.4|9=58|35=0|34=431|49=T1Kauaiblk2|52=20201130-19:26:28.737|56=MA|10=175|8=FIX.4.4|9=58|35=0|34=432|49=T1Kauaiblk2|52=20201130-19:27:58.747|56=MA|10=181|8=FIX.4.4|9=58|35=0|34=433|49=T1Kauaiblk2|52=20201130-19:29:28.758|56=MA|10=183|8=FIX.4.4|9=58|35=0|34=434|49=T1Kauaiblk2|52=20201130-19:30:58.767|56=MA|10=179|8=FIX.4.4|9=58|35=0|34=435|49=T1Kauaiblk2|52=20201130-19:32:28.767|56=MA|10=179|8=FIX.4.4|9=58|35=0|34=436|49=T1Kauaiblk2|52=20201130-19:33:58.767|56=MA|10=184|8=FIX.4.4|9=58|35=0|34=437|49=T1Kauaiblk2|52=20201130-19:35:28.767|56=MA|10=184|8=FIX.4.4|9=58|35=0|34=438|49=T1Kauaiblk2|52=20201130-19:36:58.767|56=MA|10=189|8=FIX.4.4|9=58|35=0|34=439|49=T1Kauaiblk2|52=20201130-19:38:28.770|56=MA|10=183|8=FIX.4.4|9=58|35=0|34=440|49=T1Kauaiblk2|52=20201130-19:39:58.773|56=MA|10=182|8=FIX.4.4|9=58|35=0|34=441|49=T1Kauaiblk2|52=20201130-19:41:28.778|56=MA|10=178|8=FIX.4.4|9=58|35=0|34=442|49=T1Kauaiblk2|52=20201130-19:42:58.782|56=MA|10=178|8=FIX.4.4|9=58|35=0|34=443|49=T1Kauaiblk2|52=20201130-19:44:28.784|56=MA|10=180|8=FIX.4.4|9=58|35=0|34=444|49=T1Kauaiblk2|52=20201130-19:45:59.784|56=MA|10=186|8=FIX.4.4|9=58|35=0|34=445|49=T1Kauaiblk2|52=20201130-19:47:30.783|56=MA|10=177|8=FIX.4.4|9=58|35=0|34=446|49=T1Kauaiblk2|52=20201130-19:49:00.784|56=MA|10=178|8=FIX.4.4|9=58|35=0|34=447|49=T1Kauaiblk2|52=20201130-19:50:31.783|56=MA|10=174|8=FIX.4.4|9=58|35=0|34=448|49=T1Kauaiblk2|52=20201130-19:52:01.783|56=MA|10=174|8=FIX.4.4|9=58|35=0|34=449|49=T1Kauaiblk2|52=20201130-19:53:31.784|56=MA|10=180|8=FIX.4.4|9=58|35=0|34=450|49=T1Kauaiblk2|52=20201130-19:55:02.782|56=MA|10=170|8=FIX.4.4|9=58|35=0|34=451|49=T1Kauaiblk2|52=20201130-19:56:32.786|56=MA|10=179|8=FIX.4.4|9=58|35=0|34=452|49=T1Kauaiblk2|52=20201130-19:58:02.791|56=MA|10=175|8=FIX.4.4|9=58|35=0|34=453|49=T1Kauaiblk2|52=20201130-19:59:32.795|56=MA|10=184|8=FIX.4.4|9=58|35=0|34=454|49=T1Kauaiblk2|52=20201130-20:01:02.796|56=MA|10=162|8=FIX.4.4|9=58|35=0|34=455|49=T1Kauaiblk2|52=20201130-20:02:32.796|56=MA|10=167|8=FIX.4.4|9=58|35=0|34=456|49=T1Kauaiblk2|52=20201130-20:04:02.798|56=MA|10=169|8=FIX.4.4|9=58|35=0|34=457|49=T1Kauaiblk2|52=20201130-20:05:33.431|56=MA|10=159|8=FIX.4.4|9=58|35=0|34=458|49=T1Kauaiblk2|52=20201130-20:07:03.797|56=MA|10=174|8=FIX.4.4|9=58|35=0|34=459|49=T1Kauaiblk2|52=20201130-20:08:33.798|56=MA|10=180|8=FIX.4.4|9=58|35=0|34=460|49=T1Kauaiblk2|52=20201130-20:10:04.429|56=MA|10=154|8=FIX.4.4|9=58|35=0|34=461|49=T1Kauaiblk2|52=20201130-20:11:34.798|56=MA|10=168|8=FIX.4.4|9=58|35=0|34=462|49=T1Kauaiblk2|52=20201130-20:13:05.322|56=MA|10=152|8=FIX.4.4|9=58|35=0|34=463|49=T1Kauaiblk2|52=20201130-20:14:35.798|56=MA|10=174|8=FIX.4.4|9=58|35=0|34=464|49=T1Kauaiblk2|52=20201130-20:16:06.419|56=MA|10=165|8=FIX.4.4|9=58|35=0|34=465|49=T1Kauaiblk2|52=20201130-20:17:36.796|56=MA|10=178|8=FIX.4.4|9=58|35=0|34=466|49=T1Kauaiblk2|52=20201130-20:19:06.797|56=MA|10=179|8=FIX.4.4|9=58|35=0|34=467|49=T1Kauaiblk2|52=20201130-20:20:36.797|56=MA|10=175|8=FIX.4.4|9=58|35=0|34=468|49=T1Kauaiblk2|52=20201130-20:22:06.797|56=MA|10=175|8=FIX.4.4|9=58|35=0|34=469|49=T1Kauaiblk2|52=20201130-20:23:37.798|56=MA|10=182|8=FIX.4.4|9=58|35=0|34=470|49=T1Kauaiblk2|52=20201130-20:25:08.417|56=MA|10=162|8=FIX.4.4|9=58|35=0|34=471|49=T1Kauaiblk2|52=20201130-20:26:38.796|56=MA|10=177|8=FIX.4.4|9=58|35=0|34=472|49=T1Kauaiblk2|52=20201130-20:28:08.796|56=MA|10=177|8=FIX.4.4|9=58|35=0|34=473|49=T1Kauaiblk2|52=20201130-20:29:38.797|56=MA|10=183|8=FIX.4.4|9=58|35=0|34=474|49=T1Kauaiblk2|52=20201130-20:31:08.800|56=MA|10=159|8=FIX.4.4|9=58|35=0|34=475|49=T1Kauaiblk2|52=20201130-20:32:38.802|56=MA|10=166|8=FIX.4.4|9=58|35=0|34=476|49=T1Kauaiblk2|52=20201130-20:34:08.804|56=MA|10=168|8=FIX.4.4|9=58|35=0|34=477|49=T1Kauaiblk2|52=20201130-20:35:38.804|56=MA|10=173|8=FIX.4.4|9=58|35=0|34=478|49=T1Kauaiblk2|52=20201130-20:37:08.806|56=MA|10=175|8=FIX.4.4|9=58|35=0|34=479|49=T1Kauaiblk2|52=20201130-20:38:39.807|56=MA|10=182|8=FIX.4.4|9=58|35=0|34=480|49=T1Kauaiblk2|52=20201130-20:40:10.806|56=MA|10=155|8=FIX.4.4|9=58|35=0|34=481|49=T1Kauaiblk2|52=20201130-20:41:40.806|56=MA|10=160|8=FIX.4.4|9=58|35=0|34=482|49=T1Kauaiblk2|52=20201130-20:43:10.807|56=MA|10=161|8=FIX.4.4|9=58|35=0|34=483|49=T1Kauaiblk2|52=20201130-20:44:40.808|56=MA|10=167|8=FIX.4.4|9=58|35=0|34=484|49=T1Kauaiblk2|52=20201130-20:46:11.809|56=MA|10=169|8=FIX.4.4|9=58|35=0|34=485|49=T1Kauaiblk2|52=20201130-20:47:41.810|56=MA|10=166|8=FIX.4.4|9=58|35=0|34=486|49=T1Kauaiblk2|52=20201130-20:49:11.813|56=MA|10=169|8=FIX.4.4|9=58|35=0|34=487|49=T1Kauaiblk2|52=20201130-20:50:41.814|56=MA|10=166|8=FIX.4.4|9=58|35=0|34=488|49=T1Kauaiblk2|52=20201130-20:52:11.816|56=MA|10=168|8=FIX.4.4|9=58|35=0|34=489|49=T1Kauaiblk2|52=20201130-20:53:41.816|56=MA|10=173|8=FIX.4.4|9=58|35=0|34=490|49=T1Kauaiblk2|52=20201130-20:55:11.819|56=MA|10=167|8=FIX.4.4|9=58|35=0|34=491|49=T1Kauaiblk2|52=20201130-20:56:42.819|56=MA|10=173|8=FIX.4.4|9=58|35=0|34=492|49=T1Kauaiblk2|52=20201130-20:58:12.819|56=MA|10=173|8=FIX.4.4|9=58|35=0|34=493|49=T1Kauaiblk2|52=20201130-20:59:42.819|56=MA|10=178|8=FIX.4.4|9=58|35=0|34=494|49=T1Kauaiblk2|52=20201130-21:01:12.819|56=MA|10=164|8=FIX.4.4|9=58|35=0|34=495|49=T1Kauaiblk2|52=20201130-21:02:42.819|56=MA|10=169|8=FIX.4.4|9=58|35=0|34=496|49=T1Kauaiblk2|52=20201130-21:04:12.821|56=MA|10=162|8=FIX.4.4|9=58|35=0|34=497|49=T1Kauaiblk2|52=20201130-21:05:42.821|56=MA|10=167|8=FIX.4.4|9=58|35=0|34=498|49=T1Kauaiblk2|52=20201130-21:07:12.823|56=MA|10=169|8=FIX.4.4|9=58|35=0|34=499|49=T1Kauaiblk2|52=20201130-21:08:42.825|56=MA|10=176|8=FIX.4.4|9=58|35=0|34=500|49=T1Kauaiblk2|52=20201130-21:10:12.825|56=MA|10=149|8=FIX.4.4|9=58|35=0|34=501|49=T1Kauaiblk2|52=20201130-21:11:42.825|56=MA|10=154|8=FIX.4.4|9=58|35=0|34=502|49=T1Kauaiblk2|52=20201130-21:13:12.826|56=MA|10=155|8=FIX.4.4|9=58|35=0|34=503|49=T1Kauaiblk2|52=20201130-21:14:42.826|56=MA|10=160|8=FIX.4.4|9=58|35=0|34=504|49=T1Kauaiblk2|52=20201130-21:16:12.826|56=MA|10=160|8=FIX.4.4|9=58|35=0|34=505|49=T1Kauaiblk2|52=20201130-21:17:42.828|56=MA|10=167|8=FIX.4.4|9=58|35=0|34=506|49=T1Kauaiblk2|52=20201130-21:19:13.827|56=MA|10=167|8=FIX.4.4|9=58|35=0|34=507|49=T1Kauaiblk2|52=20201130-21:20:44.827|56=MA|10=164|8=FIX.4.4|9=58|35=0|34=508|49=T1Kauaiblk2|52=20201130-21:22:14.827|56=MA|10=164|8=FIX.4.4|9=58|35=0|34=509|49=T1Kauaiblk2|52=20201130-21:23:45.826|56=MA|10=169|8=FIX.4.4|9=58|35=0|34=510|49=T1Kauaiblk2|52=20201130-21:25:16.826|56=MA|10=161|8=FIX.4.4|9=58|35=0|34=511|49=T1Kauaiblk2|52=20201130-21:26:46.826|56=MA|10=166|8=FIX.4.4|9=58|35=0|34=512|49=T1Kauaiblk2|52=20201130-21:28:16.826|56=MA|10=166|8=FIX.4.4|9=58|35=0|34=513|49=T1Kauaiblk2|52=20201130-21:29:46.826|56=MA|10=171|8=FIX.4.4|9=58|35=0|34=514|49=T1Kauaiblk2|52=20201130-21:31:17.826|56=MA|10=163|8=FIX.4.4|9=58|35=0|34=515|49=T1Kauaiblk2|52=20201130-21:32:48.825|56=MA|10=168|8=FIX.4.4|9=58|35=0|34=516|49=T1Kauaiblk2|52=20201130-21:34:18.827|56=MA|10=170|8=FIX.4.4|9=58|35=0|34=517|49=T1Kauaiblk2|52=20201130-21:35:49.825|56=MA|10=174|8=FIX.4.4|9=58|35=0|34=518|49=T1Kauaiblk2|52=20201130-21:37:19.826|56=MA|10=175|8=FIX.4.4|9=58|35=0|34=519|49=T1Kauaiblk2|52=20201130-21:38:49.828|56=MA|10=182|8=FIX.4.4|9=58|35=0|34=520|49=T1Kauaiblk2|52=20201130-21:40:19.831|56=MA|10=158|8=FIX.4.4|9=58|35=0|34=521|49=T1Kauaiblk2|52=20201130-21:41:49.832|56=MA|10=164|8=FIX.4.4|9=58|35=0|34=522|49=T1Kauaiblk2|52=20201130-21:43:19.833|56=MA|10=165|8=FIX.4.4|9=58|35=0|34=523|49=T1Kauaiblk2|52=20201130-21:44:49.836|56=MA|10=173|8=FIX.4.4|9=58|35=0|34=524|49=T1Kauaiblk2|52=20201130-21:46:19.836|56=MA|10=173|8=FIX.4.4|9=58|35=0|34=525|49=T1Kauaiblk2|52=20201130-21:47:49.836|56=MA|10=178|8=FIX.4.4|9=58|35=0|34=526|49=T1Kauaiblk2|52=20201130-21:49:19.836|56=MA|10=178|8=FIX.4.4|9=58|35=0|34=527|49=T1Kauaiblk2|52=20201130-21:50:49.838|56=MA|10=176|8=FIX.4.4|9=58|35=0|34=528|49=T1Kauaiblk2|52=20201130-21:52:20.838|56=MA|10=168|8=FIX.4.4|9=58|35=0|34=529|49=T1Kauaiblk2|52=20201130-21:53:50.838|56=MA|10=173|8=FIX.4.4|9=58|35=0|34=530|49=T1Kauaiblk2|52=20201130-21:55:20.840|56=MA|10=157|8=FIX.4.4|9=58|35=0|34=531|49=T1Kauaiblk2|52=20201130-21:56:50.846|56=MA|10=168|8=FIX.4.4|9=58|35=0|34=532|49=T1Kauaiblk2|52=20201130-21:58:20.851|56=MA|10=164|8=FIX.4.4|9=58|35=0|34=533|49=T1Kauaiblk2|52=20201130-21:59:50.856|56=MA|10=174|8=FIX.4.4|9=58|35=0|34=534|49=T1Kauaiblk2|52=20201130-22:01:20.859|56=MA|10=163|8=FIX.4.4|9=58|35=0|34=535|49=T1Kauaiblk2|52=20201130-22:02:50.862|56=MA|10=162|8=FIX.4.4|9=58|35=0|34=536|49=T1Kauaiblk2|52=20201130-22:04:20.863|56=MA|10=163|8=FIX.4.4|9=58|35=0|34=537|49=T1Kauaiblk2|52=20201130-22:05:50.863|56=MA|10=168|8=FIX.4.4|9=58|35=0|34=538|49=T1Kauaiblk2|52=20201130-22:07:20.866|56=MA|10=171|8=FIX.4.4|9=58|35=0|34=539|49=T1Kauaiblk2|52=20201130-22:08:50.866|56=MA|10=176|8=FIX.4.4|9=58|35=0|34=540|49=T1Kauaiblk2|52=20201130-22:10:20.867|56=MA|10=159|8=FIX.4.4|9=58|35=0|34=541|49=T1Kauaiblk2|52=20201130-22:11:50.868|56=MA|10=165|8=FIX.4.4|9=58|35=0|34=542|49=T1Kauaiblk2|52=20201130-22:13:20.871|56=MA|10=159|8=FIX.4.4|9=58|35=0|34=543|49=T1Kauaiblk2|52=20201130-22:14:50.875|56=MA|10=168|8=FIX.4.4|9=58|35=0|34=544|49=T1Kauaiblk2|52=20201130-22:16:20.878|56=MA|10=171|8=FIX.4.4|9=58|35=0|34=545|49=T1Kauaiblk2|52=20201130-22:17:50.878|56=MA|10=176|8=FIX.4.4|9=58|35=0|34=546|49=T1Kauaiblk2|52=20201130-22:19:20.880|56=MA|10=169|8=FIX.4.4|9=58|35=0|34=547|49=T1Kauaiblk2|52=20201130-22:20:50.881|56=MA|10=166|8=FIX.4.4|9=58|35=0|34=548|49=T1Kauaiblk2|52=20201130-22:22:20.883|56=MA|10=168|8=FIX.4.4|9=58|35=0|34=549|49=T1Kauaiblk2|52=20201130-22:23:50.883|56=MA|10=173|8=FIX.4.4|9=58|35=0|34=550|49=T1Kauaiblk2|52=20201130-22:25:20.883|56=MA|10=164|8=FIX.4.4|9=58|35=0|34=551|49=T1Kauaiblk2|52=20201130-22:26:50.884|56=MA|10=170|8=FIX.4.4|9=58|35=0|34=552|49=T1Kauaiblk2|52=20201130-22:28:20.884|56=MA|10=170|8=FIX.4.4|9=58|35=0|34=553|49=T1Kauaiblk2|52=20201130-22:29:50.885|56=MA|10=176|8=FIX.4.4|9=58|35=0|34=554|49=T1Kauaiblk2|52=20201130-22:31:21.884|56=MA|10=167|8=FIX.4.4|9=58|35=0|34=555|49=T1Kauaiblk2|52=20201130-22:32:51.884|56=MA|10=172|8=FIX.4.4|9=58|35=0|34=556|49=T1Kauaiblk2|52=20201130-22:34:21.885|56=MA|10=173|8=FIX.4.4|9=58|35=0|34=557|49=T1Kauaiblk2|52=20201130-22:35:51.885|56=MA|10=178|8=FIX.4.4|9=58|35=0|34=558|49=T1Kauaiblk2|52=20201130-22:37:21.886|56=MA|10=179|8=FIX.4.4|9=58|35=0|34=559|49=T1Kauaiblk2|52=20201130-22:38:51.886|56=MA|10=184|8=FIX.4.4|9=58|35=0|34=560|49=T1Kauaiblk2|52=20201130-22:40:22.885|56=MA|10=166|8=FIX.4.4|9=58|35=0|34=561|49=T1Kauaiblk2|52=20201130-22:41:52.885|56=MA|10=171|8=FIX.4.4|9=58|35=0|34=562|49=T1Kauaiblk2|52=20201130-22:43:22.886|56=MA|10=172|8=FIX.4.4|9=58|35=0|34=563|49=T1Kauaiblk2|52=20201130-22:44:52.886|56=MA|10=177|8=FIX.4.4|9=58|35=0|34=564|49=T1Kauaiblk2|52=20201130-22:46:22.886|56=MA|10=177|8=FIX.4.4|9=58|35=0|34=565|49=T1Kauaiblk2|52=20201130-22:47:52.886|56=MA|10=182|8=FIX.4.4|9=58|35=0|34=566|49=T1Kauaiblk2|52=20201130-22:49:22.886|56=MA|10=182|8=FIX.4.4|9=58|35=0|34=567|49=T1Kauaiblk2|52=20201130-22:50:53.886|56=MA|10=179|8=FIX.4.4|9=58|35=0|34=568|49=T1Kauaiblk2|52=20201130-22:52:23.887|56=MA|10=180|8=FIX.4.4|9=58|35=0|34=569|49=T1Kauaiblk2|52=20201130-22:53:54.885|56=MA|10=184|8=FIX.4.4|9=58|35=0|34=570|49=T1Kauaiblk2|52=20201130-22:55:24.885|56=MA|10=175|8=FIX.4.4|9=58|35=0|34=571|49=T1Kauaiblk2|52=20201130-22:56:54.886|56=MA|10=181|8=FIX.4.4|9=58|35=0|34=572|49=T1Kauaiblk2|52=20201130-22:58:24.887|56=MA|10=182|8=FIX.4.4|9=58|35=0|34=573|49=T1Kauaiblk2|52=20201130-22:59:55.885|56=MA|10=186|8=FIX.4.4|9=58|35=0|34=574|49=T1Kauaiblk2|52=20201130-23:01:25.886|56=MA|10=173|8=FIX.4.4|9=58|35=0|34=575|49=T1Kauaiblk2|52=20201130-23:02:56.885|56=MA|10=178|8=FIX.4.4|9=58|35=0|34=576|49=T1Kauaiblk2|52=20201130-23:04:26.885|56=MA|10=178|8=FIX.4.4|9=58|35=5|34=577|49=T1Kauaiblk2|52=20201130-23:05:01.304|56=MA|10=164|8=FIX.4.4|9=91|35=A|34=1|49=T1Kauaiblk2|52=20201201-09:51:45.945|56=MA|98=0|108=90|95=8|96=3.0.0rc5|141=Y|10=040|8=FIX.4.4|9=640|35=E|34=2|49=T1Kauaiblk2|52=20201201-09:51:48.892|56=MA|66=MMAD-FIX44-ListID-011220-1252|394=2|68=5|73=5|11=FIX44-List-ClOrdID-1253|22=4|38=100000|48=US06051GEN51|54=1|55=[N/A/]|67=1|423=1|453=1|448=T1Kauaiblk2|447=C|452=11|11=FIX44-List-ClOrdID-1254|22=4|38=100000|48=US40434AAB52|54=1|55=[N/A]|67=2|11=FIX44-List-ClOrdID-1255|22=4|38=130000|48=US06738JYZ10|54=1|55=[N/A/]|67=1|453=1|448=T1Kauaiblk2|447=C|452=11|11=FIX44-List-ClOrdID-1256|22=4|38=250000|48=US95709TAH32|54=1|55=[N/A/]|67=1|453=1|448=T1Kauaiblk2|447=C|452=11|11=FIX44-List-ClOrdID-1257|22=4|38=350000|48=US29379VAW37|54=1|55=[N/A/]|67=1|453=1|448=T1Kauaiblk2|447=C|452=11|10=037|8=FIX.4.4|9=56|35=0|34=3|49=T1Kauaiblk2|52=20201201-09:53:18.945|56=MA|10=070|8=FIX.4.4|9=56|35=5|34=4|49=T1Kauaiblk2|52=20201201-09:53:28.945|56=MA|10=077|8=FIX.4.4|9=91|35=A|34=1|49=T1Kauaiblk2|52=20210118-10:43:56.782|56=MA|98=0|108=90|95=8|96=3.0.0rc5|141=Y|10=041|8=FIX.4.4|9=699|35=E|34=2|49=T1Kauaiblk2|52=20210118-10:44:11.380|56=MA|66=ListID-180121-1228|394=2|68=5|73=5|11=ClOrdID-1229|22=4|38=100000|44=100|48=US06051GEN51|54=1|55=[N/A/]|63=3|67=1|423=1|29726=100.25|453=1|448=T1Kauaiblk2|447=C|452=11|11=ClOrdID-1230|22=4|38=100000|44=101|48=US40434AAB52|54=1|55=[N/A]|63=3|67=2|29726=101.25|11=ClOrdID-1231|22=4|38=130000|44=102|48=US06738JYZ10|54=1|55=[N/A/]|63=3|67=1|29726=102.25|453=1|448=T1Kauaiblk2|447=C|452=11|11=ClOrdID-1232|22=4|38=250000|44=103|48=US95709TAH32|54=1|55=[N/A/]|63=3|67=1|29726=103.25|453=1|448=T1Kauaiblk2|447=C|452=11|11=ClOrdID-1233|22=4|38=350000|44=104|48=US29379VAW37|54=1|55=[N/A/]|63=3|67=1|29726=104.25|453=1|448=T1Kauaiblk2|447=C|452=11|10=133|8=FIX.4.4|9=56|35=0|34=3|49=T1Kauaiblk2|52=20210118-10:45:41.784|56=MA|10=067|8=FIX.4.4|9=56|35=0|34=4|49=T1Kauaiblk2|52=20210118-10:47:11.785|56=MA|10=068|8=FIX.4.4|9=56|35=0|34=5|49=T1Kauaiblk2|52=20210118-10:48:41.785|56=MA|10=073|8=FIX.4.4|9=56|35=0|34=6|49=T1Kauaiblk2|52=20210118-10:50:11.786|56=MA|10=065|8=FIX.4.4|9=56|35=0|34=7|49=T1Kauaiblk2|52=20210118-10:51:41.786|56=MA|10=070|8=FIX.4.4|9=56|35=0|34=8|49=T1Kauaiblk2|52=20210118-10:53:11.787|56=MA|10=071|8=FIX.4.4|9=56|35=0|34=9|49=T1Kauaiblk2|52=20210118-10:54:42.786|56=MA|10=076|8=FIX.4.4|9=57|35=0|34=10|49=T1Kauaiblk2|52=20210118-10:56:12.787|56=MA|10=117|8=FIX.4.4|9=57|35=0|34=11|49=T1Kauaiblk2|52=20210118-10:57:42.789|56=MA|10=124|8=FIX.4.4|9=57|35=0|34=12|49=T1Kauaiblk2|52=20210118-10:59:12.789|56=MA|10=124|8=FIX.4.4|9=79|35=5|34=13|49=T1Kauaiblk2|52=20210118-10:59:45.790|56=MA|58=Session Tab Closed|10=196|8=FIX.4.4|9=86|35=A|34=14|49=T1Kauaiblk2|52=20210122-18:35:04.091|56=MA|98=0|108=90|95=8|96=3.0.0rc5|10=042|8=FIX.4.4|9=107|35=5|34=15|49=T1Kauaiblk2|52=20210122-18:35:04.714|56=MA|58=MsgSeqNum too low, expecting 18 but received 1|10=112|8=FIX.4.4|9=91|35=A|34=1|49=T1Kauaiblk2|52=20210122-18:35:10.092|56=MA|98=0|108=90|95=8|96=3.0.0rc5|141=Y|10=029|8=FIX.4.4|9=2117|35=E|34=2|49=T1Kauaiblk2|52=20210122-18:35:18.347|56=MA|66=ListID-220121-1267|394=2|68=20|73=20|11=ClOrdID-1268|22=4|38=100000|48=US06051GEN51|54=1|55=[N/A/]|67=1|423=1|453=1|448=T1Kauaiblk2|447=C|452=11|11=ClOrdID-1269|22=4|38=100000|48=US40434AAB52|54=1|55=[N/A]|67=2|11=ClOrdID-1270|22=4|38=130000|48=US06738JYZ10|54=1|55=[N/A/]|67=3|453=1|448=T1Kauaiblk2|447=C|452=11|11=ClOrdID-1271|22=4|38=250000|48=US95709TAH32|54=1|55=[N/A/]|67=4|453=1|448=T1Kauaiblk2|447=C|452=11|11=ClOrdID-1272|22=4|38=350000|48=US29379VAW37|54=1|55=[N/A/]|67=5|453=1|448=T1Kauaiblk2|447=C|452=11|11=ClOrdID-1273|22=4|38=350000|48=US48121ECC49|54=1|55=[N/A/]|67=6|453=1|448=T1Kauaiblk2|447=C|452=11|11=ClOrdID-1274|22=4|38=350000|48=US983024AL46|54=1|55=[N/A/]|67=7|453=1|448=T1Kauaiblk2|447=C|452=11|11=ClOrdID-1275|22=4|38=350000|48=US61166WAE12|54=1|55=[N/A/]|67=8|453=1|448=T1Kauaiblk2|447=C|452=11|11=ClOrdID-1276|22=4|38=350000|48=US000828JAM09|54=1|55=[N/A/]|67=9|453=1|448=T1Kauaiblk2|447=C|452=11|11=ClOrdID-1277|22=4|38=350000|48=US62630CAR25|54=1|55=[N/A/]|67=10|453=1|448=T1Kauaiblk2|447=C|452=11|11=ClOrdID-1278|22=4|38=350000|48=US05379BAK35|54=1|55=[N/A/]|67=11|453=1|448=T1Kauaiblk2|447=C|452=11|11=ClOrdID-1279|22=4|38=350000|48=US368710AC32|54=1|55=[N/A/]|67=12|453=1|448=T1Kauaiblk2|447=C|452=11|11=ClOrdID-1280|22=4|38=350000|48=XS1186833239|54=1|55=[N/A/]|67=13|453=1|448=T1Kauaiblk2|447=C|452=11|11=ClOrdID-1281|22=4|38=350000|48=US842400FC28|54=1|55=[N/A/]|67=14|453=1|448=T1Kauaiblk2|447=C|452=11|11=ClOrdID-1282|22=4|38=350000|48=US927804FA70|54=1|55=[N/A/]|67=15|453=1|448=T1Kauaiblk2|447=C|452=11|11=ClOrdID-1283|22=4|38=350000|48=US472319AC60|54=1|55=[N/A/]|67=16|453=1|448=T1Kauaiblk2|447=C|452=11|11=ClOrdID-1284|22=4|38=350000|48=US93884PDN78|54=1|55=[N/A/]|67=17|453=1|448=T1Kauaiblk2|447=C|452=11|11=ClOrdID-1285|22=4|38=350000|48=US06050XWS88|54=1|55=[N/A/]|67=8|453=1|448=T1Kauaiblk2|447=C|452=11|11=ClOrdID-1286|22=4|38=350000|48=US87425EAJ29|54=1|55=[N/A/]|67=19|453=1|448=T1Kauaiblk2|447=C|452=11|11=ClOrdID-1287|22=4|38=350000|48=US816300AG24|54=1|55=[N/A/]|67=20|453=1|448=T1Kauaiblk2|447=C|452=11|10=136|8=FIX.4.4|9=2117|35=E|34=3|49=T1Kauaiblk2|52=20210122-18:35:26.696|56=MA|66=ListID-220121-1288|394=2|68=20|73=20|11=ClOrdID-1289|22=4|38=100000|48=US06051GEN51|54=1|55=[N/A/]|67=1|423=1|453=1|448=T1Kauaiblk2|447=C|452=11|11=ClOrdID-1290|22=4|38=100000|48=US40434AAB52|54=1|55=[N/A]|67=2|11=ClOrdID-1291|22=4|38=130000|48=US06738JYZ10|54=1|55=[N/A/]|67=3|453=1|448=T1Kauaiblk2|447=C|452=11|11=ClOrdID-1292|22=4|38=250000|48=US95709TAH32|54=1|55=[N/A/]|67=4|453=1|448=T1Kauaiblk2|447=C|452=11|11=ClOrdID-1293|22=4|38=350000|48=US29379VAW37|54=1|55=[N/A/]|67=5|453=1|448=T1Kauaiblk2|447=C|452=11|11=ClOrdID-1294|22=4|38=350000|48=US48121ECC49|54=1|55=[N/A/]|67=6|453=1|448=T1Kauaiblk2|447=C|452=11|11=ClOrdID-1295|22=4|38=350000|48=US983024AL46|54=1|55=[N/A/]|67=7|453=1|448=T1Kauaiblk2|447=C|452=11|11=ClOrdID-1296|22=4|38=350000|48=US61166WAE12|54=1|55=[N/A/]|67=8|453=1|448=T1Kauaiblk2|447=C|452=11|11=ClOrdID-1297|22=4|38=350000|48=US000828JAM09|54=1|55=[N/A/]|67=9|453=1|448=T1Kauaiblk2|447=C|452=11|11=ClOrdID-1298|22=4|38=350000|48=US62630CAR25|54=1|55=[N/A/]|67=10|453=1|448=T1Kauaiblk2|447=C|452=11|11=ClOrdID-1299|22=4|38=350000|48=US05379BAK35|54=1|55=[N/A/]|67=11|453=1|448=T1Kauaiblk2|447=C|452=11|11=ClOrdID-1300|22=4|38=350000|48=US368710AC32|54=1|55=[N/A/]|67=12|453=1|448=T1Kauaiblk2|447=C|452=11|11=ClOrdID-1301|22=4|38=350000|48=XS1186833239|54=1|55=[N/A/]|67=13|453=1|448=T1Kauaiblk2|447=C|452=11|11=ClOrdID-1302|22=4|38=350000|48=US842400FC28|54=1|55=[N/A/]|67=14|453=1|448=T1Kauaiblk2|447=C|452=11|11=ClOrdID-1303|22=4|38=350000|48=US927804FA70|54=1|55=[N/A/]|67=15|453=1|448=T1Kauaiblk2|447=C|452=11|11=ClOrdID-1304|22=4|38=350000|48=US472319AC60|54=1|55=[N/A/]|67=16|453=1|448=T1Kauaiblk2|447=C|452=11|11=ClOrdID-1305|22=4|38=350000|48=US93884PDN78|54=1|55=[N/A/]|67=17|453=1|448=T1Kauaiblk2|447=C|452=11|11=ClOrdID-1306|22=4|38=350000|48=US06050XWS88|54=1|55=[N/A/]|67=8|453=1|448=T1Kauaiblk2|447=C|452=11|11=ClOrdID-1307|22=4|38=350000|48=US87425EAJ29|54=1|55=[N/A/]|67=19|453=1|448=T1Kauaiblk2|447=C|452=11|11=ClOrdID-1308|22=4|38=350000|48=US816300AG24|54=1|55=[N/A/]|67=20|453=1|448=T1Kauaiblk2|447=C|452=11|10=107|8=FIX.4.4|9=56|35=0|34=4|49=T1Kauaiblk2|52=20210122-18:36:57.094|56=MA|10=072|8=FIX.4.4|9=56|35=0|34=5|49=T1Kauaiblk2|52=20210122-18:38:27.094|56=MA|10=072|8=FIX.4.4|9=56|35=0|34=6|49=T1Kauaiblk2|52=20210122-18:39:57.094|56=MA|10=077|8=FIX.4.4|9=56|35=0|34=7|49=T1Kauaiblk2|52=20210122-18:41:27.096|56=MA|10=070|8=FIX.4.4|9=56|35=0|34=8|49=T1Kauaiblk2|52=20210122-18:42:58.095|56=MA|10=075|8=FIX.4.4|9=56|35=0|34=9|49=T1Kauaiblk2|52=20210122-18:44:28.097|56=MA|10=077|8=FIX.4.4|9=57|35=0|34=10|49=T1Kauaiblk2|52=20210122-18:45:58.098|56=MA|10=123|8=FIX.4.4|9=57|35=0|34=11|49=T1Kauaiblk2|52=20210122-18:47:28.098|56=MA|10=123|8=FIX.4.4|9=57|35=0|34=12|49=T1Kauaiblk2|52=20210122-18:48:58.098|56=MA|10=128|8=FIX.4.4|9=57|35=0|34=13|49=T1Kauaiblk2|52=20210122-18:50:28.099|56=MA|10=120|8=FIX.4.4|9=57|35=0|34=14|49=T1Kauaiblk2|52=20210122-18:51:58.099|56=MA|10=125|8=FIX.4.4|9=57|35=0|34=15|49=T1Kauaiblk2|52=20210122-18:53:28.100|56=MA|10=108|8=FIX.4.4|9=57|35=0|34=16|49=T1Kauaiblk2|52=20210122-18:54:58.102|56=MA|10=115|8=FIX.4.4|9=57|35=0|34=17|49=T1Kauaiblk2|52=20210122-18:56:29.101|56=MA|10=115|8=FIX.4.4|9=57|35=0|34=18|49=T1Kauaiblk2|52=20210122-18:57:59.102|56=MA|10=121|8=FIX.4.4|9=57|35=0|34=19|49=T1Kauaiblk2|52=20210122-18:59:29.102|56=MA|10=121|8=FIX.4.4|9=57|35=0|34=20|49=T1Kauaiblk2|52=20210122-19:00:59.103|56=MA|10=104|8=FIX.4.4|9=57|35=0|34=21|49=T1Kauaiblk2|52=20210122-19:02:29.104|56=MA|10=105|8=FIX.4.4|9=57|35=0|34=22|49=T1Kauaiblk2|52=20210122-19:03:59.105|56=MA|10=111|8=FIX.4.4|9=57|35=0|34=23|49=T1Kauaiblk2|52=20210122-19:05:30.106|56=MA|10=104|8=FIX.4.4|9=57|35=0|34=24|49=T1Kauaiblk2|52=20210122-19:07:00.106|56=MA|10=104|8=FIX.4.4|9=57|35=0|34=25|49=T1Kauaiblk2|52=20210122-19:08:30.107|56=MA|10=110|8=FIX.4.4|9=57|35=0|34=26|49=T1Kauaiblk2|52=20210122-19:10:00.107|56=MA|10=101|8=FIX.4.4|9=57|35=0|34=27|49=T1Kauaiblk2|52=20210122-19:11:30.108|56=MA|10=107|8=FIX.4.4|9=57|35=0|34=28|49=T1Kauaiblk2|52=20210122-19:13:00.108|56=MA|10=107|8=FIX.4.4|9=57|35=0|34=29|49=T1Kauaiblk2|52=20210122-19:14:30.109|56=MA|10=113|8=FIX.4.4|9=57|35=0|34=30|49=T1Kauaiblk2|52=20210122-19:16:00.109|56=MA|10=104|8=FIX.4.4|9=57|35=0|34=31|49=T1Kauaiblk2|52=20210122-19:17:30.110|56=MA|10=101|8=FIX.4.4|9=57|35=0|34=32|49=T1Kauaiblk2|52=20210122-19:19:00.111|56=MA|10=102|8=FIX.4.4|9=57|35=0|34=33|49=T1Kauaiblk2|52=20210122-19:20:30.112|56=MA|10=099|8=FIX.4.4|9=57|35=0|34=34|49=T1Kauaiblk2|52=20210122-19:22:00.112|56=MA|10=099|8=FIX.4.4|9=57|35=0|34=35|49=T1Kauaiblk2|52=20210122-19:23:30.112|56=MA|10=104|8=FIX.4.4|9=57|35=0|34=36|49=T1Kauaiblk2|52=20210122-19:25:00.113|56=MA|10=105|8=FIX.4.4|9=57|35=0|34=37|49=T1Kauaiblk2|52=20210122-19:26:30.115|56=MA|10=112|8=FIX.4.4|9=57|35=0|34=38|49=T1Kauaiblk2|52=20210122-19:28:01.114|56=MA|10=112|8=FIX.4.4|9=57|35=0|34=39|49=T1Kauaiblk2|52=20210122-19:29:31.115|56=MA|10=118|8=FIX.4.4|9=57|35=0|34=40|49=T1Kauaiblk2|52=20210122-19:31:01.115|56=MA|10=100|8=FIX.4.4|9=57|35=0|34=41|49=T1Kauaiblk2|52=20210122-19:32:31.116|56=MA|10=106|8=FIX.4.4|9=57|35=0|34=42|49=T1Kauaiblk2|52=20210122-19:34:01.116|56=MA|10=106|8=FIX.4.4|9=57|35=0|34=43|49=T1Kauaiblk2|52=20210122-19:35:31.118|56=MA|10=113|8=FIX.4.4|9=57|35=0|34=44|49=T1Kauaiblk2|52=20210122-19:37:02.118|56=MA|10=114|8=FIX.4.4|9=57|35=0|34=45|49=T1Kauaiblk2|52=20210122-19:38:32.119|56=MA|10=120|8=FIX.4.4|9=57|35=0|34=46|49=T1Kauaiblk2|52=20210122-19:40:03.118|56=MA|10=111|8=FIX.4.4|9=57|35=0|34=47|49=T1Kauaiblk2|52=20210122-19:41:33.119|56=MA|10=117|8=FIX.4.4|9=57|35=0|34=48|49=T1Kauaiblk2|52=20210122-19:43:04.120|56=MA|10=110|8=FIX.4.4|9=57|35=0|34=49|49=T1Kauaiblk2|52=20210122-19:44:34.121|56=MA|10=116|8=FIX.4.4|9=57|35=0|34=50|49=T1Kauaiblk2|52=20210122-19:46:05.120|56=MA|10=107|8=FIX.4.4|9=57|35=0|34=51|49=T1Kauaiblk2|52=20210122-19:47:35.121|56=MA|10=113|8=FIX.4.4|9=57|35=0|34=52|49=T1Kauaiblk2|52=20210122-19:49:05.121|56=MA|10=113|8=FIX.4.4|9=57|35=0|34=53|49=T1Kauaiblk2|52=20210122-19:50:35.123|56=MA|10=111|8=FIX.4.4|9=57|35=0|34=54|49=T1Kauaiblk2|52=20210122-19:52:06.122|56=MA|10=111|8=FIX.4.4|9=57|35=0|34=55|49=T1Kauaiblk2|52=20210122-19:53:36.122|56=MA|10=116|8=FIX.4.4|9=57|35=0|34=56|49=T1Kauaiblk2|52=20210122-19:55:06.123|56=MA|10=117|8=FIX.4.4|9=57|35=0|34=57|49=T1Kauaiblk2|52=20210122-19:56:36.123|56=MA|10=122|8=FIX.4.4|9=57|35=0|34=58|49=T1Kauaiblk2|52=20210122-19:58:06.125|56=MA|10=124|8=FIX.4.4|9=57|35=0|34=59|49=T1Kauaiblk2|52=20210122-19:59:37.125|56=MA|10=130|8=FIX.4.4|9=57|35=0|34=60|49=T1Kauaiblk2|52=20210122-20:01:07.125|56=MA|10=098|8=FIX.4.4|9=57|35=0|34=61|49=T1Kauaiblk2|52=20210122-20:02:37.125|56=MA|10=103|8=FIX.4.4|9=57|35=0|34=62|49=T1Kauaiblk2|52=20210122-20:04:07.126|56=MA|10=104|8=FIX.4.4|9=57|35=0|34=63|49=T1Kauaiblk2|52=20210122-20:05:37.127|56=MA|10=110|8=FIX.4.4|9=57|35=0|34=64|49=T1Kauaiblk2|52=20210122-20:07:07.127|56=MA|10=110|8=FIX.4.4|9=57|35=0|34=65|49=T1Kauaiblk2|52=20210122-20:08:37.127|56=MA|10=115|8=FIX.4.4|9=57|35=0|34=66|49=T1Kauaiblk2|52=20210122-20:10:07.129|56=MA|10=108|8=FIX.4.4|9=57|35=0|34=67|49=T1Kauaiblk2|52=20210122-20:11:38.129|56=MA|10=114|8=FIX.4.4|9=57|35=0|34=68|49=T1Kauaiblk2|52=20210122-20:13:08.130|56=MA|10=106|8=FIX.4.4|9=57|35=0|34=69|49=T1Kauaiblk2|52=20210122-20:14:38.130|56=MA|10=111|8=FIX.4.4|9=57|35=0|34=70|49=T1Kauaiblk2|52=20210122-20:16:08.130|56=MA|10=102|8=FIX.4.4|9=57|35=0|34=71|49=T1Kauaiblk2|52=20210122-20:17:38.130|56=MA|10=107|8=FIX.4.4|9=57|35=0|34=72|49=T1Kauaiblk2|52=20210122-20:19:08.132|56=MA|10=109|8=FIX.4.4|9=57|35=0|34=73|49=T1Kauaiblk2|52=20210122-20:20:38.132|56=MA|10=105|8=FIX.4.4|9=57|35=0|34=74|49=T1Kauaiblk2|52=20210122-20:22:09.131|56=MA|10=105|8=FIX.4.4|9=57|35=0|34=75|49=T1Kauaiblk2|52=20210122-20:23:39.132|56=MA|10=111|8=FIX.4.4|9=57|35=0|34=76|49=T1Kauaiblk2|52=20210122-20:25:09.133|56=MA|10=112|8=FIX.4.4|9=57|35=0|34=77|49=T1Kauaiblk2|52=20210122-20:26:39.133|56=MA|10=117|8=FIX.4.4|9=57|35=0|34=78|49=T1Kauaiblk2|52=20210122-20:28:09.133|56=MA|10=117|8=FIX.4.4|9=57|35=0|34=79|49=T1Kauaiblk2|52=20210122-20:29:39.134|56=MA|10=123|8=FIX.4.4|9=57|35=0|34=80|49=T1Kauaiblk2|52=20210122-20:31:09.134|56=MA|10=105|8=FIX.4.4|9=57|35=0|34=81|49=T1Kauaiblk2|52=20210122-20:32:39.135|56=MA|10=111|8=FIX.4.4|9=57|35=0|34=82|49=T1Kauaiblk2|52=20210122-20:34:09.135|56=MA|10=111|8=FIX.4.4|9=57|35=0|34=83|49=T1Kauaiblk2|52=20210122-20:35:39.135|56=MA|10=116|8=FIX.4.4|9=57|35=0|34=84|49=T1Kauaiblk2|52=20210122-20:37:09.136|56=MA|10=117|8=FIX.4.4|9=57|35=0|34=85|49=T1Kauaiblk2|52=20210122-20:38:39.136|56=MA|10=122|8=FIX.4.4|9=57|35=0|34=86|49=T1Kauaiblk2|52=20210122-20:40:09.137|56=MA|10=114|8=FIX.4.4|9=57|35=0|34=87|49=T1Kauaiblk2|52=20210122-20:41:39.137|56=MA|10=119|8=FIX.4.4|9=57|35=0|34=88|49=T1Kauaiblk2|52=20210122-20:43:09.138|56=MA|10=120|8=FIX.4.4|9=57|35=0|34=89|49=T1Kauaiblk2|52=20210122-20:44:39.139|56=MA|10=126|8=FIX.4.4|9=57|35=0|34=90|49=T1Kauaiblk2|52=20210122-20:46:10.139|56=MA|10=109|8=FIX.4.4|9=57|35=0|34=91|49=T1Kauaiblk2|52=20210122-20:47:40.139|56=MA|10=114|8=FIX.4.4|9=57|35=0|34=92|49=T1Kauaiblk2|52=20210122-20:49:10.139|56=MA|10=114|8=FIX.4.4|9=57|35=0|34=93|49=T1Kauaiblk2|52=20210122-20:50:40.139|56=MA|10=110|8=FIX.4.4|9=57|35=0|34=94|49=T1Kauaiblk2|52=20210122-20:52:10.140|56=MA|10=102|8=FIX.4.4|9=57|35=0|34=95|49=T1Kauaiblk2|52=20210122-20:53:40.140|56=MA|10=107|8=FIX.4.4|9=57|35=0|34=96|49=T1Kauaiblk2|52=20210122-20:55:10.141|56=MA|10=108|8=FIX.4.4|9=57|35=0|34=97|49=T1Kauaiblk2|52=20210122-20:56:40.141|56=MA|10=113|8=FIX.4.4|9=57|35=0|34=98|49=T1Kauaiblk2|52=20210122-20:58:10.141|56=MA|10=113|8=FIX.4.4|9=57|35=0|34=99|49=T1Kauaiblk2|52=20210122-20:59:40.142|56=MA|10=119|8=FIX.4.4|9=58|35=0|34=100|49=T1Kauaiblk2|52=20210122-21:01:10.143|56=MA|10=137|8=FIX.4.4|9=58|35=0|34=101|49=T1Kauaiblk2|52=20210122-21:02:41.142|56=MA|10=142|8=FIX.4.4|9=58|35=0|34=102|49=T1Kauaiblk2|52=20210122-21:04:11.142|56=MA|10=142|8=FIX.4.4|9=58|35=0|34=103|49=T1Kauaiblk2|52=20210122-21:05:41.143|56=MA|10=148|8=FIX.4.4|9=58|35=0|34=104|49=T1Kauaiblk2|52=20210122-21:07:11.143|56=MA|10=148|8=FIX.4.4|9=58|35=0|34=105|49=T1Kauaiblk2|52=20210122-21:08:41.143|56=MA|10=153|8=FIX.4.4|9=58|35=0|34=106|49=T1Kauaiblk2|52=20210122-21:10:11.145|56=MA|10=146|8=FIX.4.4|9=58|35=0|34=107|49=T1Kauaiblk2|52=20210122-21:11:41.145|56=MA|10=151|8=FIX.4.4|9=58|35=0|34=108|49=T1Kauaiblk2|52=20210122-21:13:11.145|56=MA|10=151|8=FIX.4.4|9=58|35=0|34=109|49=T1Kauaiblk2|52=20210122-21:14:41.148|56=MA|10=159|8=FIX.4.4|9=58|35=0|34=110|49=T1Kauaiblk2|52=20210122-21:16:11.149|56=MA|10=151|8=FIX.4.4|9=58|35=0|34=111|49=T1Kauaiblk2|52=20210122-21:17:41.151|56=MA|10=149|8=FIX.4.4|9=58|35=0|34=112|49=T1Kauaiblk2|52=20210122-21:19:11.153|56=MA|10=151|8=FIX.4.4|9=58|35=0|34=113|49=T1Kauaiblk2|52=20210122-21:20:41.157|56=MA|10=151|8=FIX.4.4|9=58|35=0|34=114|49=T1Kauaiblk2|52=20210122-21:22:11.158|56=MA|10=152|8=FIX.4.4|9=58|35=0|34=115|49=T1Kauaiblk2|52=20210122-21:23:41.160|56=MA|10=150|8=FIX.4.4|9=58|35=0|34=116|49=T1Kauaiblk2|52=20210122-21:25:11.163|56=MA|10=153|8=FIX.4.4|9=58|35=0|34=117|49=T1Kauaiblk2|52=20210122-21:26:41.164|56=MA|10=159|8=FIX.4.4|9=58|35=0|34=118|49=T1Kauaiblk2|52=20210122-21:28:11.167|56=MA|10=162|8=FIX.4.4|9=58|35=0|34=119|49=T1Kauaiblk2|52=20210122-21:29:41.168|56=MA|10=168|8=FIX.4.4|9=58|35=0|34=120|49=T1Kauaiblk2|52=20210122-21:31:11.170|56=MA|10=143|8=FIX.4.4|9=58|35=0|34=121|49=T1Kauaiblk2|52=20210122-21:32:41.173|56=MA|10=151|8=FIX.4.4|9=58|35=0|34=122|49=T1Kauaiblk2|52=20210122-21:34:11.175|56=MA|10=153|8=FIX.4.4|9=58|35=0|34=123|49=T1Kauaiblk2|52=20210122-21:35:41.175|56=MA|10=158|8=FIX.4.4|9=58|35=0|34=124|49=T1Kauaiblk2|52=20210122-21:37:11.177|56=MA|10=160|8=FIX.4.4|9=58|35=0|34=125|49=T1Kauaiblk2|52=20210122-21:38:41.180|56=MA|10=159|8=FIX.4.4|9=58|35=0|34=126|49=T1Kauaiblk2|52=20210122-21:40:11.181|56=MA|10=151|8=FIX.4.4|9=58|35=0|34=127|49=T1Kauaiblk2|52=20210122-21:41:41.183|56=MA|10=158|8=FIX.4.4|9=58|35=0|34=128|49=T1Kauaiblk2|52=20210122-21:43:11.185|56=MA|10=160|8=FIX.4.4|9=58|35=0|34=129|49=T1Kauaiblk2|52=20210122-21:44:41.186|56=MA|10=166|8=FIX.4.4|9=58|35=0|34=130|49=T1Kauaiblk2|52=20210122-21:46:11.189|56=MA|10=160|8=FIX.4.4|9=58|35=0|34=131|49=T1Kauaiblk2|52=20210122-21:47:41.191|56=MA|10=158|8=FIX.4.4|9=58|35=0|34=132|49=T1Kauaiblk2|52=20210122-21:49:11.192|56=MA|10=159|8=FIX.4.4|9=58|35=0|34=133|49=T1Kauaiblk2|52=20210122-21:50:41.194|56=MA|10=157|8=FIX.4.4|9=58|35=0|34=134|49=T1Kauaiblk2|52=20210122-21:52:11.196|56=MA|10=159|8=FIX.4.4|9=58|35=0|34=135|49=T1Kauaiblk2|52=20210122-21:53:41.196|56=MA|10=164|8=FIX.4.4|9=58|35=0|34=136|49=T1Kauaiblk2|52=20210122-21:55:11.198|56=MA|10=166|8=FIX.4.4|9=58|35=0|34=137|49=T1Kauaiblk2|52=20210122-21:56:41.200|56=MA|10=155|8=FIX.4.4|9=58|35=0|34=138|49=T1Kauaiblk2|52=20210122-21:58:11.201|56=MA|10=156|8=FIX.4.4|9=58|35=0|34=139|49=T1Kauaiblk2|52=20210122-21:59:41.204|56=MA|10=164|8=FIX.4.4|9=58|35=0|34=140|49=T1Kauaiblk2|52=20210122-22:01:11.205|56=MA|10=142|8=FIX.4.4|9=58|35=0|34=141|49=T1Kauaiblk2|52=20210122-22:02:41.207|56=MA|10=149|8=FIX.4.4|9=58|35=0|34=142|49=T1Kauaiblk2|52=20210122-22:04:11.209|56=MA|10=151|8=FIX.4.4|9=58|35=0|34=143|49=T1Kauaiblk2|52=20210122-22:05:41.210|56=MA|10=148|8=FIX.4.4|9=58|35=0|34=144|49=T1Kauaiblk2|52=20210122-22:07:11.211|56=MA|10=149|8=FIX.4.4|9=58|35=0|34=145|49=T1Kauaiblk2|52=20210122-22:08:41.212|56=MA|10=155|8=FIX.4.4|9=58|35=0|34=146|49=T1Kauaiblk2|52=20210122-22:10:11.214|56=MA|10=148|8=FIX.4.4|9=58|35=0|34=147|49=T1Kauaiblk2|52=20210122-22:11:41.215|56=MA|10=154|8=FIX.4.4|9=58|35=0|34=148|49=T1Kauaiblk2|52=20210122-22:13:11.216|56=MA|10=155|8=FIX.4.4|9=58|35=0|34=149|49=T1Kauaiblk2|52=20210122-22:14:41.218|56=MA|10=162|8=FIX.4.4|9=58|35=0|34=150|49=T1Kauaiblk2|52=20210122-22:16:11.219|56=MA|10=154|8=FIX.4.4|9=58|35=0|34=151|49=T1Kauaiblk2|52=20210122-22:17:41.221|56=MA|10=152|8=FIX.4.4|9=58|35=0|34=152|49=T1Kauaiblk2|52=20210122-22:19:11.222|56=MA|10=153|8=FIX.4.4|9=58|35=0|34=153|49=T1Kauaiblk2|52=20210122-22:20:41.224|56=MA|10=151|8=FIX.4.4|9=58|35=0|34=154|49=T1Kauaiblk2|52=20210122-22:22:11.225|56=MA|10=152|8=FIX.4.4|9=58|35=0|34=155|49=T1Kauaiblk2|52=20210122-22:23:41.227|56=MA|10=159|8=FIX.4.4|9=58|35=0|34=156|49=T1Kauaiblk2|52=20210122-22:25:11.229|56=MA|10=161|8=FIX.4.4|9=58|35=0|34=157|49=T1Kauaiblk2|52=20210122-22:26:41.230|56=MA|10=158|8=FIX.4.4|9=58|35=0|34=158|49=T1Kauaiblk2|52=20210122-22:28:11.230|56=MA|10=158|8=FIX.4.4|9=58|35=0|34=159|49=T1Kauaiblk2|52=20210122-22:29:41.231|56=MA|10=164|8=FIX.4.4|9=58|35=0|34=160|49=T1Kauaiblk2|52=20210122-22:31:11.233|56=MA|10=148|8=FIX.4.4|9=58|35=0|34=161|49=T1Kauaiblk2|52=20210122-22:32:41.234|56=MA|10=154|8=FIX.4.4|9=58|35=0|34=162|49=T1Kauaiblk2|52=20210122-22:34:11.235|56=MA|10=155|8=FIX.4.4|9=58|35=0|34=163|49=T1Kauaiblk2|52=20210122-22:35:41.237|56=MA|10=162|8=FIX.4.4|9=58|35=0|34=164|49=T1Kauaiblk2|52=20210122-22:37:11.238|56=MA|10=163|8=FIX.4.4|9=58|35=0|34=165|49=T1Kauaiblk2|52=20210122-22:38:41.239|56=MA|10=169|8=FIX.4.4|9=58|35=0|34=166|49=T1Kauaiblk2|52=20210122-22:40:11.240|56=MA|10=152|8=FIX.4.4|9=58|35=0|34=167|49=T1Kauaiblk2|52=20210122-22:41:41.242|56=MA|10=159|8=FIX.4.4|9=58|35=0|34=168|49=T1Kauaiblk2|52=20210122-22:43:11.244|56=MA|10=161|8=FIX.4.4|9=58|35=0|34=169|49=T1Kauaiblk2|52=20210122-22:44:41.245|56=MA|10=167|8=FIX.4.4|9=58|35=0|34=170|49=T1Kauaiblk2|52=20210122-22:46:11.246|56=MA|10=159|8=FIX.4.4|9=58|35=0|34=171|49=T1Kauaiblk2|52=20210122-22:47:41.246|56=MA|10=164|8=FIX.4.4|9=58|35=0|34=172|49=T1Kauaiblk2|52=20210122-22:49:11.247|56=MA|10=165|8=FIX.4.4|9=58|35=0|34=173|49=T1Kauaiblk2|52=20210122-22:50:41.249|56=MA|10=163|8=FIX.4.4|9=58|35=0|34=174|49=T1Kauaiblk2|52=20210122-22:52:11.251|56=MA|10=156|8=FIX.4.4|9=58|35=0|34=175|49=T1Kauaiblk2|52=20210122-22:53:41.251|56=MA|10=161|8=FIX.4.4|9=58|35=0|34=176|49=T1Kauaiblk2|52=20210122-22:55:11.252|56=MA|10=162|8=FIX.4.4|9=58|35=0|34=177|49=T1Kauaiblk2|52=20210122-22:56:41.253|56=MA|10=168|8=FIX.4.4|9=58|35=0|34=178|49=T1Kauaiblk2|52=20210122-22:58:11.255|56=MA|10=170|8=FIX.4.4|9=58|35=0|34=179|49=T1Kauaiblk2|52=20210122-22:59:41.255|56=MA|10=175|8=FIX.4.4|9=58|35=0|34=180|49=T1Kauaiblk2|52=20210122-23:01:11.257|56=MA|10=154|8=FIX.4.4|9=58|35=0|34=181|49=T1Kauaiblk2|52=20210122-23:02:41.258|56=MA|10=160|8=FIX.4.4|9=58|35=0|34=182|49=T1Kauaiblk2|52=20210122-23:04:11.259|56=MA|10=161|8=FIX.4.4|9=58|35=5|34=183|49=T1Kauaiblk2|52=20210122-23:05:00.788|56=MA|10=173|8=FIX.4.4|9=91|35=A|34=1|49=T1Kauaiblk2|52=20210125-08:35:05.851|56=MA|98=0|108=90|95=8|96=3.0.0rc5|141=Y|10=038|8=FIX.4.4|9=56|35=0|34=2|49=T1Kauaiblk2|52=20210125-08:36:36.832|56=MA|10=069|8=FIX.4.4|9=699|35=E|34=3|49=T1Kauaiblk2|52=20210125-08:37:59.583|56=MA|66=ListID-250121-1222|394=2|68=5|73=5|11=ClOrdID-1223|22=4|38=100000|44=100|48=US06051GEN51|54=1|55=[N/A/]|63=3|67=1|423=1|29726=100.25|453=1|448=T1Kauaiblk2|447=C|452=11|11=ClOrdID-1224|22=4|38=100000|44=101|48=US40434AAB52|54=1|55=[N/A]|63=3|67=2|29726=101.25|11=ClOrdID-1225|22=4|38=130000|44=102|48=US06738JYZ10|54=1|55=[N/A/]|63=3|67=1|29726=102.25|453=1|448=T1Kauaiblk2|447=C|452=11|11=ClOrdID-1226|22=4|38=250000|44=103|48=US95709TAH32|54=1|55=[N/A/]|63=3|67=1|29726=103.25|453=1|448=T1Kauaiblk2|447=C|452=11|11=ClOrdID-1227|22=4|38=350000|44=104|48=US29379VAW37|54=1|55=[N/A/]|63=3|67=1|29726=104.25|453=1|448=T1Kauaiblk2|447=C|452=11|10=156|8=FIX.4.4|9=56|35=0|34=4|49=T1Kauaiblk2|52=20210125-08:39:29.831|56=MA|10=075|8=FIX.4.4|9=56|35=5|34=5|49=T1Kauaiblk2|52=20210125-08:40:02.832|56=MA|10=065|8=FIX.4.4|9=91|35=A|34=1|49=T1Kauaiblk2|52=20210125-17:26:57.905|56=MA|98=0|108=90|95=8|96=3.0.0rc5|141=Y|10=045|8=FIX.4.4|9=699|35=E|34=2|49=T1Kauaiblk2|52=20210125-17:27:04.079|56=MA|66=ListID-250121-1270|394=2|68=5|73=5|11=ClOrdID-1271|22=4|38=100000|44=100|48=US06051GEN51|54=1|55=[N/A/]|63=3|67=1|423=1|29726=100.25|453=1|448=T1Kauaiblk2|447=C|452=11|11=ClOrdID-1272|22=4|38=100000|44=101|48=US40434AAB52|54=1|55=[N/A]|63=3|67=2|29726=101.25|11=ClOrdID-1273|22=4|38=130000|44=102|48=US06738JYZ10|54=1|55=[N/A/]|63=3|67=1|29726=102.25|453=1|448=T1Kauaiblk2|447=C|452=11|11=ClOrdID-1274|22=4|38=250000|44=103|48=US95709TAH32|54=1|55=[N/A/]|63=3|67=1|29726=103.25|453=1|448=T1Kauaiblk2|447=C|452=11|11=ClOrdID-1275|22=4|38=350000|44=104|48=US29379VAW37|54=1|55=[N/A/]|63=3|67=1|29726=104.25|453=1|448=T1Kauaiblk2|447=C|452=11|10=162|8=FIX.4.4|9=78|35=5|34=3|49=T1Kauaiblk2|52=20210125-17:28:34.906|56=MA|58=Session Tab Closed|10=144|8=FIX.4.4|9=91|35=A|34=1|49=T1Kauaiblk2|52=20210212-08:31:05.269|56=MA|98=0|108=90|95=8|96=3.0.0rc5|141=Y|10=034|8=FIX.4.4|9=699|35=E|34=2|49=T1Kauaiblk2|52=20210212-08:31:24.930|56=MA|66=ListID-120221-1243|394=2|68=5|73=5|11=ClOrdID-1244|22=4|38=100000|44=100|48=US06051GEN51|54=1|55=[N/A/]|63=3|67=1|423=1|29726=100.25|453=1|448=T1Kauaiblk2|447=C|452=11|11=ClOrdID-1245|22=4|38=100000|44=101|48=US40434AAB52|54=1|55=[N/A]|63=3|67=2|29726=101.25|11=ClOrdID-1246|22=4|38=130000|44=102|48=US95709TAH32|54=1|55=[N/A/]|63=3|67=1|29726=102.25|453=1|448=T1Kauaiblk2|447=C|452=11|11=ClOrdID-1247|22=4|38=250000|44=103|48=US427866AZ15|54=1|55=[N/A/]|63=3|67=1|29726=103.25|453=1|448=T1Kauaiblk2|447=C|452=11|11=ClOrdID-1248|22=4|38=350000|44=104|48=US29379VAW37|54=1|55=[N/A/]|63=3|67=1|29726=104.25|453=1|448=T1Kauaiblk2|447=C|452=11|10=113|8=FIX.4.4|9=56|35=0|34=3|49=T1Kauaiblk2|52=20210212-08:32:55.270|56=MA|10=060|8=FIX.4.4|9=56|35=0|34=4|49=T1Kauaiblk2|52=20210212-08:34:25.270|56=MA|10=060|8=FIX.4.4|9=56|35=0|34=5|49=T1Kauaiblk2|52=20210212-08:35:56.271|56=MA|10=067|8=FIX.4.4|9=56|35=0|34=6|49=T1Kauaiblk2|52=20210212-08:37:27.270|56=MA|10=067|8=FIX.4.4|9=56|35=0|34=7|49=T1Kauaiblk2|52=20210212-08:38:58.269|56=MA|10=081|8=FIX.4.4|9=56|35=0|34=8|49=T1Kauaiblk2|52=20210212-08:40:28.271|56=MA|10=065|8=FIX.4.4|9=56|35=0|34=9|49=T1Kauaiblk2|52=20210212-08:41:58.271|56=MA|10=070|8=FIX.4.4|9=57|35=0|34=10|49=T1Kauaiblk2|52=20210212-08:43:28.271|56=MA|10=110|8=FIX.4.4|9=57|35=0|34=11|49=T1Kauaiblk2|52=20210212-08:44:59.270|56=MA|10=115|8=FIX.4.4|9=57|35=0|34=12|49=T1Kauaiblk2|52=20210212-08:46:29.270|56=MA|10=115|8=FIX.4.4|9=57|35=0|34=13|49=T1Kauaiblk2|52=20210212-08:47:59.270|56=MA|10=120|8=FIX.4.4|9=57|35=0|34=14|49=T1Kauaiblk2|52=20210212-08:49:30.269|56=MA|10=120|8=FIX.4.4|9=57|35=0|34=15|49=T1Kauaiblk2|52=20210212-08:51:00.270|56=MA|10=103|8=FIX.4.4|9=57|35=0|34=16|49=T1Kauaiblk2|52=20210212-08:52:31.270|56=MA|10=109|8=FIX.4.4|9=57|35=0|34=17|49=T1Kauaiblk2|52=20210212-08:54:01.270|56=MA|10=109|8=FIX.4.4|9=57|35=0|34=18|49=T1Kauaiblk2|52=20210212-08:55:31.271|56=MA|10=115|8=FIX.4.4|9=57|35=0|34=19|49=T1Kauaiblk2|52=20210212-08:57:02.271|56=MA|10=116|8=FIX.4.4|9=57|35=0|34=20|49=T1Kauaiblk2|52=20210212-08:58:33.270|56=MA|10=112|8=FIX.4.4|9=57|35=0|34=21|49=T1Kauaiblk2|52=20210212-09:00:03.270|56=MA|10=098|8=FIX.4.4|9=57|35=0|34=22|49=T1Kauaiblk2|52=20210212-09:01:33.270|56=MA|10=103|8=FIX.4.4|9=57|35=0|34=23|49=T1Kauaiblk2|52=20210212-09:03:03.271|56=MA|10=104|8=FIX.4.4|9=57|35=0|34=24|49=T1Kauaiblk2|52=20210212-09:04:34.270|56=MA|10=109|8=FIX.4.4|9=57|35=0|34=25|49=T1Kauaiblk2|52=20210212-09:06:04.270|56=MA|10=109|8=FIX.4.4|9=57|35=0|34=26|49=T1Kauaiblk2|52=20210212-09:07:34.271|56=MA|10=115|8=FIX.4.4|9=57|35=0|34=27|49=T1Kauaiblk2|52=20210212-09:09:05.271|56=MA|10=116|8=FIX.4.4|9=57|35=0|34=28|49=T1Kauaiblk2|52=20210212-09:10:35.271|56=MA|10=112|8=FIX.4.4|9=57|35=0|34=29|49=T1Kauaiblk2|52=20210212-09:12:05.271|56=MA|10=112|8=FIX.4.4|9=57|35=0|34=30|49=T1Kauaiblk2|52=20210212-09:13:36.270|56=MA|10=108|8=FIX.4.4|9=57|35=0|34=31|49=T1Kauaiblk2|52=20210212-09:15:06.272|56=MA|10=110|8=FIX.4.4|9=57|35=0|34=32|49=T1Kauaiblk2|52=20210212-09:16:37.272|56=MA|10=116|8=FIX.4.4|9=57|35=0|34=33|49=T1Kauaiblk2|52=20210212-09:18:07.272|56=MA|10=116|8=FIX.4.4|9=57|35=0|34=34|49=T1Kauaiblk2|52=20210212-09:19:38.271|56=MA|10=121|8=FIX.4.4|9=57|35=0|34=35|49=T1Kauaiblk2|52=20210212-09:21:08.271|56=MA|10=112|8=FIX.4.4|9=57|35=0|34=36|49=T1Kauaiblk2|52=20210212-09:22:38.271|56=MA|10=117|8=FIX.4.4|9=57|35=0|34=37|49=T1Kauaiblk2|52=20210212-09:24:08.271|56=MA|10=117|8=FIX.4.4|9=57|35=0|34=38|49=T1Kauaiblk2|52=20210212-09:25:38.272|56=MA|10=123|8=FIX.4.4|9=57|35=0|34=39|49=T1Kauaiblk2|52=20210212-09:27:09.270|56=MA|10=122|8=FIX.4.4|9=57|35=0|34=40|49=T1Kauaiblk2|52=20210212-09:28:39.272|56=MA|10=120|8=FIX.4.4|9=57|35=0|34=41|49=T1Kauaiblk2|52=20210212-09:30:09.272|56=MA|10=111|8=FIX.4.4|9=57|35=5|34=42|49=T1Kauaiblk2|52=20210212-09:30:28.271|56=MA|10=117|8=FIX.4.4|9=91|35=A|34=1|49=T1Kauaiblk2|52=20210212-16:36:28.301|56=MA|98=0|108=90|95=8|96=3.0.0rc5|141=Y|10=030|8=FIX.4.4|9=699|35=E|34=2|49=T1Kauaiblk2|52=20210212-16:36:30.288|56=MA|66=ListID-120221-1354|394=2|68=5|73=5|11=ClOrdID-1355|22=4|38=100000|44=100|48=US06051GEN51|54=1|55=[N/A/]|63=3|67=1|423=1|29726=100.25|453=1|448=T1Kauaiblk2|447=C|452=11|11=ClOrdID-1356|22=4|38=100000|44=101|48=US40434AAB52|54=1|55=[N/A]|63=3|67=2|29726=101.25|11=ClOrdID-1357|22=4|38=130000|44=102|48=US95709TAH32|54=1|55=[N/A/]|63=3|67=1|29726=102.25|453=1|448=T1Kauaiblk2|447=C|452=11|11=ClOrdID-1358|22=4|38=250000|44=103|48=US427866AZ15|54=1|55=[N/A/]|63=3|67=1|29726=103.25|453=1|448=T1Kauaiblk2|447=C|452=11|11=ClOrdID-1359|22=4|38=350000|44=104|48=US29379VAW37|54=1|55=[N/A/]|63=3|67=1|29726=104.25|453=1|448=T1Kauaiblk2|447=C|452=11|10=138|8=FIX.4.4|9=78|35=5|34=3|49=T1Kauaiblk2|52=20210212-16:36:44.301|56=MA|58=Session Tab Closed|10=129|