8=FIX.4.4|9=91|35=A|34=1|49=T1Kauaiblk2|52=20210202-08:48:39.847|56=MA|98=0|108=90|95=8|96=3.0.0rc5|141=Y|10=050|8=FIX.4.4|9=699|35=E|34=2|49=T1Kauaiblk2|52=20210202-08:48:54.259|56=MA|66=ListID-020221-1228|394=2|68=5|73=5|11=ClOrdID-1229|22=4|38=100000|44=100|48=US06051GEN51|54=1|55=[N/A/]|63=3|67=1|423=1|29726=100.25|453=1|448=T1Kauaiblk2|447=C|452=11|11=ClOrdID-1230|22=4|38=100000|44=101|48=US40434AAB52|54=1|55=[N/A]|63=3|67=2|29726=101.25|11=ClOrdID-1231|22=4|38=130000|44=102|48=US06738JYZ10|54=1|55=[N/A/]|63=3|67=1|29726=102.25|453=1|448=T1Kauaiblk2|447=C|452=11|11=ClOrdID-1232|22=4|38=250000|44=103|48=US95709TAH32|54=1|55=[N/A/]|63=3|67=1|29726=103.25|453=1|448=T1Kauaiblk2|447=C|452=11|11=ClOrdID-1233|22=4|38=350000|44=104|48=US29379VAW37|54=1|55=[N/A/]|63=3|67=1|29726=104.25|453=1|448=T1Kauaiblk2|447=C|452=11|10=144|8=FIX.4.4|9=56|35=0|34=3|49=T1Kauaiblk2|52=20210202-08:50:24.780|56=MA|10=061|8=FIX.4.4|9=56|35=5|34=4|49=T1Kauaiblk2|52=20210202-08:51:41.846|56=MA|10=070|8=FIX.4.4|9=91|35=A|34=1|49=T1Kauaiblk2|52=20210202-20:10:55.773|56=MA|98=0|108=90|95=8|96=3.0.0rc5|141=Y|10=029|8=FIX.4.4|9=700|35=E|34=2|49=T1Kauaiblk2|52=20210202-20:11:01.241|56=MA|66=ListID-020221A-1234|394=2|68=5|73=5|11=ClOrdID-1235|22=4|38=100000|44=100|48=US06051GEN51|54=1|55=[N/A/]|63=3|67=1|423=1|29726=100.25|453=1|448=T1Kauaiblk2|447=C|452=11|11=ClOrdID-1236|22=4|38=100000|44=101|48=US40434AAB52|54=1|55=[N/A]|63=3|67=2|29726=101.25|11=ClOrdID-1237|22=4|38=130000|44=102|48=US95709TAH32|54=1|55=[N/A/]|63=3|67=1|29726=102.25|453=1|448=T1Kauaiblk2|447=C|452=11|11=ClOrdID-1238|22=4|38=250000|44=103|48=US025676AH01|54=1|55=[N/A/]|63=3|67=1|29726=103.25|453=1|448=T1Kauaiblk2|447=C|452=11|11=ClOrdID-1239|22=4|38=350000|44=104|48=US29379VAW37|54=1|55=[N/A/]|63=3|67=1|29726=104.25|453=1|448=T1Kauaiblk2|447=C|452=11|10=111|8=FIX.4.4|9=56|35=5|34=3|49=T1Kauaiblk2|52=20210202-20:11:35.770|56=MA|10=058|8=FIX.4.4|9=91|35=A|34=1|49=T1Kauaiblk2|52=20210203-08:13:58.775|56=MA|98=0|108=90|95=8|96=3.0.0rc5|141=Y|10=044|8=FIX.4.4|9=699|35=E|34=2|49=T1Kauaiblk2|52=20210203-08:14:19.099|56=MA|66=ListID-030221-1246|394=2|68=5|73=5|11=ClOrdID-1247|22=4|38=100000|44=100|48=US06051GEN51|54=1|55=[N/A/]|63=3|67=1|423=1|29726=100.25|453=1|448=T1Kauaiblk2|447=C|452=11|11=ClOrdID-1248|22=4|38=100000|44=101|48=US40434AAB52|54=1|55=[N/A]|63=3|67=2|29726=101.25|11=ClOrdID-1249|22=4|38=130000|44=102|48=US95709TAH32|54=1|55=[N/A/]|63=3|67=1|29726=102.25|453=1|448=T1Kauaiblk2|447=C|452=11|11=ClOrdID-1250|22=4|38=250000|44=103|48=US025676AH01|54=1|55=[N/A/]|63=3|67=1|29726=103.25|453=1|448=T1Kauaiblk2|447=C|452=11|11=ClOrdID-1251|22=4|38=350000|44=104|48=US29379VAW37|54=1|55=[N/A/]|63=3|67=1|29726=104.25|453=1|448=T1Kauaiblk2|447=C|452=11|10=094|8=FIX.4.4|9=56|35=5|34=3|49=T1Kauaiblk2|52=20210203-08:14:29.776|56=MA|10=077|8=FIX.4.4|9=91|35=A|34=1|49=T1Kauaiblk2|52=20210203-08:25:43.834|56=MA|98=0|108=90|95=8|96=3.0.0rc5|141=Y|10=037|8=FIX.4.4|9=699|35=E|34=2|49=T1Kauaiblk2|52=20210203-08:25:52.515|56=MA|66=ListID-030221-1252|394=2|68=5|73=5|11=ClOrdID-1253|22=4|38=100000|44=100|48=US06051GEN51|54=1|55=[N/A/]|63=3|67=1|423=1|29726=100.25|453=1|448=T1Kauaiblk2|447=C|452=11|11=ClOrdID-1254|22=4|38=100000|44=101|48=US40434AAB52|54=1|55=[N/A]|63=3|67=2|29726=101.25|11=ClOrdID-1255|22=4|38=130000|44=102|48=US95709TAH32|54=1|55=[N/A/]|63=3|67=1|29726=102.25|453=1|448=T1Kauaiblk2|447=C|452=11|11=ClOrdID-1256|22=4|38=250000|44=103|48=US025676AH01|54=1|55=[N/A/]|63=3|67=1|29726=103.25|453=1|448=T1Kauaiblk2|447=C|452=11|11=ClOrdID-1257|22=4|38=350000|44=104|48=US29379VAW37|54=1|55=[N/A/]|63=3|67=1|29726=104.25|453=1|448=T1Kauaiblk2|447=C|452=11|10=086|8=FIX.4.4|9=56|35=0|34=3|49=T1Kauaiblk2|52=20210203-08:27:22.835|56=MA|10=065|8=FIX.4.4|9=56|35=0|34=4|49=T1Kauaiblk2|52=20210203-08:28:52.836|56=MA|10=071|8=FIX.4.4|9=56|35=0|34=5|49=T1Kauaiblk2|52=20210203-08:30:23.834|56=MA|10=061|8=FIX.4.4|9=56|35=0|34=6|49=T1Kauaiblk2|52=20210203-08:31:54.832|56=MA|10=065|8=FIX.4.4|9=56|35=0|34=7|49=T1Kauaiblk2|52=20210203-08:33:25.746|56=MA|10=070|8=FIX.4.4|9=56|35=0|34=8|49=T1Kauaiblk2|52=20210203-08:34:55.746|56=MA|10=075|8=FIX.4.4|9=56|35=0|34=9|49=T1Kauaiblk2|52=20210203-08:36:25.782|56=MA|10=075|8=FIX.4.4|9=57|35=0|34=10|49=T1Kauaiblk2|52=20210203-08:37:55.829|56=MA|10=122|8=FIX.4.4|9=57|35=0|34=11|49=T1Kauaiblk2|52=20210203-08:39:26.821|56=MA|10=115|8=FIX.4.4|9=57|35=0|34=12|49=T1Kauaiblk2|52=20210203-08:40:56.827|56=MA|10=117|8=FIX.4.4|9=57|35=0|34=13|49=T1Kauaiblk2|52=20210203-08:42:26.827|56=MA|10=117|8=FIX.4.4|9=57|35=0|34=14|49=T1Kauaiblk2|52=20210203-08:43:56.827|56=MA|10=122|8=FIX.4.4|9=57|35=5|34=15|49=T1Kauaiblk2|52=20210203-08:45:23.829|56=MA|10=126|8=FIX.4.4|9=91|35=A|34=1|49=T1Kauaiblk2|52=20210203-09:40:39.685|56=MA|98=0|108=90|95=8|96=3.0.0rc5|141=Y|10=044|8=FIX.4.4|9=699|35=E|34=2|49=T1Kauaiblk2|52=20210203-09:41:03.108|56=MA|66=ListID-030221-1264|394=2|68=5|73=5|11=ClOrdID-1265|22=4|38=100000|44=100|48=US06051GEN51|54=1|55=[N/A/]|63=3|67=1|423=1|29726=100.25|453=1|448=T1Kauaiblk2|447=C|452=11|11=ClOrdID-1266|22=4|38=100000|44=101|48=US40434AAB52|54=1|55=[N/A]|63=3|67=2|29726=101.25|11=ClOrdID-1267|22=4|38=130000|44=102|48=US95709TAH32|54=1|55=[N/A/]|63=3|67=1|29726=102.25|453=1|448=T1Kauaiblk2|447=C|452=11|11=ClOrdID-1268|22=4|38=250000|44=103|48=US025676AH01|54=1|55=[N/A/]|63=3|67=1|29726=103.25|453=1|448=T1Kauaiblk2|447=C|452=11|11=ClOrdID-1269|22=4|38=350000|44=104|48=US29379VAW37|54=1|55=[N/A/]|63=3|67=1|29726=104.25|453=1|448=T1Kauaiblk2|447=C|452=11|10=097|8=FIX.4.4|9=56|35=0|34=3|49=T1Kauaiblk2|52=20210203-09:42:33.686|56=MA|10=069|8=FIX.4.4|9=56|35=0|34=4|49=T1Kauaiblk2|52=20210203-09:44:03.686|56=MA|10=069|8=FIX.4.4|9=56|35=0|34=5|49=T1Kauaiblk2|52=20210203-09:45:33.687|56=MA|10=075|8=FIX.4.4|9=56|35=0|34=6|49=T1Kauaiblk2|52=20210203-09:47:04.686|56=MA|10=075|8=FIX.4.4|9=56|35=0|34=7|49=T1Kauaiblk2|52=20210203-09:48:34.686|56=MA|10=080|8=FIX.4.4|9=56|35=0|34=8|49=T1Kauaiblk2|52=20210203-09:50:04.686|56=MA|10=071|8=FIX.4.4|9=56|35=0|34=9|49=T1Kauaiblk2|52=20210203-09:51:34.688|56=MA|10=078|8=FIX.4.4|9=57|35=0|34=10|49=T1Kauaiblk2|52=20210203-09:53:04.688|56=MA|10=118|8=FIX.4.4|9=700|35=E|34=11|49=T1Kauaiblk2|52=20210203-09:54:01.178|56=MA|66=ListID-030221-1270|394=2|68=5|73=5|11=ClOrdID-1271|22=4|38=100000|44=100|48=US06051GEN51|54=1|55=[N/A/]|63=3|67=1|423=1|29726=100.25|453=1|448=T1Kauaiblk2|447=C|452=11|11=ClOrdID-1272|22=4|38=100000|44=101|48=US40434AAB52|54=1|55=[N/A]|63=3|67=2|29726=101.25|11=ClOrdID-1273|22=4|38=130000|44=102|48=US95709TAH32|54=1|55=[N/A/]|63=3|67=1|29726=102.25|453=1|448=T1Kauaiblk2|447=C|452=11|11=ClOrdID-1274|22=4|38=250000|44=103|48=US025676AH01|54=1|55=[N/A/]|63=3|67=1|29726=103.25|453=1|448=T1Kauaiblk2|447=C|452=11|11=ClOrdID-1275|22=4|38=350000|44=104|48=US29379VAW37|54=1|55=[N/A/]|63=3|67=1|29726=104.25|453=1|448=T1Kauaiblk2|447=C|452=11|10=119|8=FIX.4.4|9=57|35=0|34=12|49=T1Kauaiblk2|52=20210203-09:55:31.686|56=MA|10=120|8=FIX.4.4|9=57|35=0|34=13|49=T1Kauaiblk2|52=20210203-09:57:01.686|56=MA|10=120|8=FIX.4.4|9=57|35=0|34=14|49=T1Kauaiblk2|52=20210203-09:58:32.684|56=MA|10=124|8=FIX.4.4|9=57|35=0|34=15|49=T1Kauaiblk2|52=20210203-10:00:02.685|56=MA|10=102|8=FIX.4.4|9=57|35=0|34=16|49=T1Kauaiblk2|52=20210203-10:01:33.684|56=MA|10=107|8=FIX.4.4|9=57|35=0|34=17|49=T1Kauaiblk2|52=20210203-10:03:04.684|56=MA|10=108|8=FIX.4.4|9=57|35=0|34=18|49=T1Kauaiblk2|52=20210203-10:04:35.683|56=MA|10=113|8=FIX.4.4|9=57|35=0|34=19|49=T1Kauaiblk2|52=20210203-10:06:06.682|56=MA|10=113|8=FIX.4.4|9=57|35=0|34=20|49=T1Kauaiblk2|52=20210203-10:07:36.683|56=MA|10=110|8=FIX.4.4|9=57|35=0|34=21|49=T1Kauaiblk2|52=20210203-10:09:07.683|56=MA|10=111|8=FIX.4.4|9=57|35=5|34=22|49=T1Kauaiblk2|52=20210203-10:10:28.681|56=MA|10=110|8=FIX.4.4|9=91|35=A|34=1|49=T1Kauaiblk2|52=20210203-10:28:28.682|56=MA|98=0|108=90|95=8|96=3.0.0rc5|141=Y|10=037|8=FIX.4.4|9=699|35=E|34=2|49=T1Kauaiblk2|52=20210203-10:28:36.166|56=MA|66=ListID-030221-1288|394=2|68=5|73=5|11=ClOrdID-1289|22=4|38=100000|44=100|48=US06051GEN51|54=1|55=[N/A/]|63=3|67=1|423=1|29726=100.25|453=1|448=T1Kauaiblk2|447=C|452=11|11=ClOrdID-1290|22=4|38=100000|44=101|48=US40434AAB52|54=1|55=[N/A]|63=3|67=2|29726=101.25|11=ClOrdID-1291|22=4|38=130000|44=102|48=US95709TAH32|54=1|55=[N/A/]|63=3|67=1|29726=102.25|453=1|448=T1Kauaiblk2|447=C|452=11|11=ClOrdID-1292|22=4|38=250000|44=103|48=US025676AH01|54=1|55=[N/A/]|63=3|67=1|29726=103.25|453=1|448=T1Kauaiblk2|447=C|452=11|11=ClOrdID-1293|22=4|38=350000|44=104|48=US29379VAW37|54=1|55=[N/A/]|63=3|67=1|29726=104.25|453=1|448=T1Kauaiblk2|447=C|452=11|10=104|8=FIX.4.4|9=56|35=5|34=3|49=T1Kauaiblk2|52=20210203-10:29:28.683|56=MA|10=072|8=FIX.4.4|9=91|35=A|34=1|49=T1Kauaiblk2|52=20210203-10:35:25.687|56=MA|98=0|108=90|95=8|96=3.0.0rc5|141=Y|10=037|8=FIX.4.4|9=699|35=E|34=2|49=T1Kauaiblk2|52=20210203-10:35:30.237|56=MA|66=ListID-030221-1318|394=2|68=5|73=5|11=ClOrdID-1319|22=4|38=100000|44=100|48=US06051GEN51|54=1|55=[N/A/]|63=3|67=1|423=1|29726=100.25|453=1|448=T1Kauaiblk2|447=C|452=11|11=ClOrdID-1320|22=4|38=100000|44=101|48=US40434AAB52|54=1|55=[N/A]|63=3|67=2|29726=101.25|11=ClOrdID-1321|22=4|38=130000|44=102|48=US95709TAH32|54=1|55=[N/A/]|63=3|67=1|29726=102.25|453=1|448=T1Kauaiblk2|447=C|452=11|11=ClOrdID-1322|22=4|38=250000|44=103|48=US025676AH01|54=1|55=[N/A/]|63=3|67=1|29726=103.25|453=1|448=T1Kauaiblk2|447=C|452=11|11=ClOrdID-1323|22=4|38=350000|44=104|48=US29379VAW37|54=1|55=[N/A/]|63=3|67=1|29726=104.25|453=1|448=T1Kauaiblk2|447=C|452=11|10=059|8=FIX.4.4|9=56|35=0|34=3|49=T1Kauaiblk2|52=20210203-10:37:00.687|56=MA|10=060|8=FIX.4.4|9=56|35=5|34=4|49=T1Kauaiblk2|52=20210203-10:37:17.688|56=MA|10=075|