8=FIX.4.4|9=91|35=A|34=1|49=T2Kauaiblk6|52=20210308-11:57:50.453|56=MA|98=0|108=90|95=8|96=3.0.0rc5|141=Y|10=042|8=FIX.4.4|9=705|35=E|34=2|49=T2Kauaiblk6|52=20210308-11:58:08.829|56=MA|66=ListID-080321-rowdy-2020|394=2|68=5|73=5|11=ClOrdID-2021|22=4|38=100000|44=100|48=US06051GEN51|54=1|55=[N/A/]|63=3|67=1|423=1|29726=100.25|453=1|448=T2Kauaiblk6|447=C|452=11|11=ClOrdID-2022|22=4|38=100000|44=101|48=US40434AAB52|54=1|55=[N/A]|63=3|67=2|29726=101.25|11=ClOrdID-2023|22=4|38=130000|44=102|48=US95709TAH32|54=1|55=[N/A/]|63=3|67=1|29726=102.25|453=1|448=T2Kauaiblk6|447=C|452=11|11=ClOrdID-2024|22=4|38=250000|44=103|48=US427866AZ15|54=1|55=[N/A/]|63=3|67=1|29726=103.25|453=1|448=T2Kauaiblk6|447=C|452=11|11=ClOrdID-2025|22=4|38=350000|44=104|48=US29379VAW37|54=1|55=[N/A/]|63=3|67=1|29726=104.25|453=1|448=T2Kauaiblk6|447=C|452=11|10=212|8=FIX.4.4|9=705|35=E|34=3|49=T2Kauaiblk6|52=20210308-11:58:09.360|56=MA|66=ListID-080321-rowdy-2026|394=2|68=5|73=5|11=ClOrdID-2027|22=4|38=100000|44=100|48=US06051GEN51|54=1|55=[N/A/]|63=3|67=1|423=1|29726=100.25|453=1|448=T2Kauaiblk6|447=C|452=11|11=ClOrdID-2028|22=4|38=100000|44=101|48=US40434AAB52|54=1|55=[N/A]|63=3|67=2|29726=101.25|11=ClOrdID-2029|22=4|38=130000|44=102|48=US95709TAH32|54=1|55=[N/A/]|63=3|67=1|29726=102.25|453=1|448=T2Kauaiblk6|447=C|452=11|11=ClOrdID-2030|22=4|38=250000|44=103|48=US427866AZ15|54=1|55=[N/A/]|63=3|67=1|29726=103.25|453=1|448=T2Kauaiblk6|447=C|452=11|11=ClOrdID-2031|22=4|38=350000|44=104|48=US29379VAW37|54=1|55=[N/A/]|63=3|67=1|29726=104.25|453=1|448=T2Kauaiblk6|447=C|452=11|10=222|8=FIX.4.4|9=705|35=E|34=4|49=T2Kauaiblk6|52=20210308-11:58:09.848|56=MA|66=ListID-080321-rowdy-2032|394=2|68=5|73=5|11=ClOrdID-2033|22=4|38=100000|44=100|48=US06051GEN51|54=1|55=[N/A/]|63=3|67=1|423=1|29726=100.25|453=1|448=T2Kauaiblk6|447=C|452=11|11=ClOrdID-2034|22=4|38=100000|44=101|48=US40434AAB52|54=1|55=[N/A]|63=3|67=2|29726=101.25|11=ClOrdID-2035|22=4|38=130000|44=102|48=US95709TAH32|54=1|55=[N/A/]|63=3|67=1|29726=102.25|453=1|448=T2Kauaiblk6|447=C|452=11|11=ClOrdID-2036|22=4|38=250000|44=103|48=US427866AZ15|54=1|55=[N/A/]|63=3|67=1|29726=103.25|453=1|448=T2Kauaiblk6|447=C|452=11|11=ClOrdID-2037|22=4|38=350000|44=104|48=US29379VAW37|54=1|55=[N/A/]|63=3|67=1|29726=104.25|453=1|448=T2Kauaiblk6|447=C|452=11|10=234|8=FIX.4.4|9=56|35=0|34=5|49=T2Kauaiblk6|52=20210308-11:59:40.448|56=MA|10=077|8=FIX.4.4|9=56|35=0|34=6|49=T2Kauaiblk6|52=20210308-12:01:10.448|56=MA|10=063|8=FIX.4.4|9=56|35=0|34=7|49=T2Kauaiblk6|52=20210308-12:02:40.448|56=MA|10=068|8=FIX.4.4|9=56|35=0|34=8|49=T2Kauaiblk6|52=20210308-12:04:10.750|56=MA|10=064|8=FIX.4.4|9=56|35=0|34=9|49=T2Kauaiblk6|52=20210308-12:05:41.448|56=MA|10=074|8=FIX.4.4|9=57|35=0|34=10|49=T2Kauaiblk6|52=20210308-12:07:12.447|56=MA|10=114|8=FIX.4.4|9=57|35=0|34=11|49=T2Kauaiblk6|52=20210308-12:08:43.446|56=MA|10=119|8=FIX.4.4|9=57|35=0|34=12|49=T2Kauaiblk6|52=20210308-12:10:13.446|56=MA|10=110|8=FIX.4.4|9=57|35=0|34=13|49=T2Kauaiblk6|52=20210308-12:11:44.445|56=MA|10=115|8=FIX.4.4|9=57|35=0|34=14|49=T2Kauaiblk6|52=20210308-12:13:15.443|56=MA|10=114|8=FIX.4.4|9=57|35=0|34=15|49=T2Kauaiblk6|52=20210308-12:14:45.444|56=MA|10=120|8=FIX.4.4|9=57|35=0|34=16|49=T2Kauaiblk6|52=20210308-12:16:16.444|56=MA|10=121|8=FIX.4.4|9=57|35=0|34=17|49=T2Kauaiblk6|52=20210308-12:17:46.535|56=MA|10=127|8=FIX.4.4|9=57|35=0|34=18|49=T2Kauaiblk6|52=20210308-12:19:17.443|56=MA|10=126|8=FIX.4.4|9=57|35=0|34=19|49=T2Kauaiblk6|52=20210308-12:20:48.441|56=MA|10=121|8=FIX.4.4|9=57|35=0|34=20|49=T2Kauaiblk6|52=20210308-12:22:19.441|56=MA|10=113|8=FIX.4.4|9=57|35=0|34=21|49=T2Kauaiblk6|52=20210308-12:23:49.441|56=MA|10=118|8=FIX.4.4|9=57|35=0|34=22|49=T2Kauaiblk6|52=20210308-12:25:20.439|56=MA|10=117|8=FIX.4.4|9=57|35=0|34=23|49=T2Kauaiblk6|52=20210308-12:26:50.440|56=MA|10=114|8=FIX.4.4|9=57|35=0|34=24|49=T2Kauaiblk6|52=20210308-12:28:20.530|56=MA|10=114|8=FIX.4.4|9=57|35=0|34=25|49=T2Kauaiblk6|52=20210308-12:29:51.379|56=MA|10=131|8=FIX.4.4|9=57|35=0|34=26|49=T2Kauaiblk6|52=20210308-12:31:21.439|56=MA|10=119|8=FIX.4.4|9=57|35=0|34=27|49=T2Kauaiblk6|52=20210308-12:32:52.437|56=MA|10=123|8=FIX.4.4|9=57|35=0|34=28|49=T2Kauaiblk6|52=20210308-12:34:22.437|56=MA|10=123|8=FIX.4.4|9=57|35=0|34=29|49=T2Kauaiblk6|52=20210308-12:35:52.437|56=MA|10=128|8=FIX.4.4|9=57|35=0|34=30|49=T2Kauaiblk6|52=20210308-12:37:22.437|56=MA|10=119|8=FIX.4.4|9=57|35=0|34=31|49=T2Kauaiblk6|52=20210308-12:38:52.437|56=MA|10=124|8=FIX.4.4|9=57|35=0|34=32|49=T2Kauaiblk6|52=20210308-12:40:22.440|56=MA|10=109|8=FIX.4.4|9=57|35=0|34=33|49=T2Kauaiblk6|52=20210308-12:41:52.442|56=MA|10=116|8=FIX.4.4|9=57|35=0|34=34|49=T2Kauaiblk6|52=20210308-12:43:22.446|56=MA|10=120|8=FIX.4.4|9=57|35=0|34=35|49=T2Kauaiblk6|52=20210308-12:44:52.446|56=MA|10=125|8=FIX.4.4|9=57|35=0|34=36|49=T2Kauaiblk6|52=20210308-12:46:22.449|56=MA|10=128|8=FIX.4.4|9=57|35=0|34=37|49=T2Kauaiblk6|52=20210308-12:47:52.450|56=MA|10=125|8=FIX.4.4|9=57|35=0|34=38|49=T2Kauaiblk6|52=20210308-12:49:22.452|56=MA|10=127|8=FIX.4.4|9=57|35=0|34=39|49=T2Kauaiblk6|52=20210308-12:50:53.453|56=MA|10=125|8=FIX.4.4|9=57|35=0|34=40|49=T2Kauaiblk6|52=20210308-12:52:24.452|56=MA|10=116|8=FIX.4.4|9=57|35=0|34=41|49=T2Kauaiblk6|52=20210308-12:53:54.454|56=MA|10=123|8=FIX.4.4|9=57|35=0|34=42|49=T2Kauaiblk6|52=20210308-12:55:24.454|56=MA|10=123|8=FIX.4.4|9=57|35=0|34=43|49=T2Kauaiblk6|52=20210308-12:56:54.456|56=MA|10=130|8=FIX.4.4|9=57|35=0|34=44|49=T2Kauaiblk6|52=20210308-12:58:24.456|56=MA|10=130|8=FIX.4.4|9=57|35=0|34=45|49=T2Kauaiblk6|52=20210308-12:59:55.455|56=MA|10=135|8=FIX.4.4|9=57|35=0|34=46|49=T2Kauaiblk6|52=20210308-13:01:25.457|56=MA|10=123|8=FIX.4.4|9=57|35=0|34=47|49=T2Kauaiblk6|52=20210308-13:02:55.457|56=MA|10=128|8=FIX.4.4|9=57|35=0|34=48|49=T2Kauaiblk6|52=20210308-13:04:25.458|56=MA|10=129|8=FIX.4.4|9=57|35=0|34=49|49=T2Kauaiblk6|52=20210308-13:05:55.458|56=MA|10=134|8=FIX.4.4|9=57|35=0|34=50|49=T2Kauaiblk6|52=20210308-13:07:26.458|56=MA|10=126|8=FIX.4.4|9=57|35=0|34=51|49=T2Kauaiblk6|52=20210308-13:08:56.458|56=MA|10=131|8=FIX.4.4|9=57|35=0|34=52|49=T2Kauaiblk6|52=20210308-13:10:27.458|56=MA|10=123|8=FIX.4.4|9=57|35=0|34=53|49=T2Kauaiblk6|52=20210308-13:11:57.458|56=MA|10=128|8=FIX.4.4|9=57|35=0|34=54|49=T2Kauaiblk6|52=20210308-13:13:27.458|56=MA|10=128|8=FIX.4.4|9=57|35=0|34=55|49=T2Kauaiblk6|52=20210308-13:14:57.458|56=MA|10=133|8=FIX.4.4|9=57|35=0|34=56|49=T2Kauaiblk6|52=20210308-13:16:27.459|56=MA|10=134|8=FIX.4.4|9=57|35=0|34=57|49=T2Kauaiblk6|52=20210308-13:17:57.461|56=MA|10=132|8=FIX.4.4|9=57|35=0|34=58|49=T2Kauaiblk6|52=20210308-13:19:28.462|56=MA|10=134|8=FIX.4.4|9=57|35=0|34=59|49=T2Kauaiblk6|52=20210308-13:20:58.462|56=MA|10=130|8=FIX.4.4|9=57|35=0|34=60|49=T2Kauaiblk6|52=20210308-13:22:28.462|56=MA|10=121|8=FIX.4.4|9=57|35=0|34=61|49=T2Kauaiblk6|52=20210308-13:23:58.462|56=MA|10=126|8=FIX.4.4|9=57|35=0|34=62|49=T2Kauaiblk6|52=20210308-13:25:28.462|56=MA|10=126|8=FIX.4.4|9=57|35=0|34=63|49=T2Kauaiblk6|52=20210308-13:26:58.464|56=MA|10=133|8=FIX.4.4|9=57|35=0|34=64|49=T2Kauaiblk6|52=20210308-13:28:29.463|56=MA|10=133|8=FIX.4.4|9=57|35=0|34=65|49=T2Kauaiblk6|52=20210308-13:30:00.463|56=MA|10=116|8=FIX.4.4|9=57|35=0|34=66|49=T2Kauaiblk6|52=20210308-13:31:30.463|56=MA|10=121|8=FIX.4.4|9=57|35=0|34=67|49=T2Kauaiblk6|52=20210308-13:33:00.463|56=MA|10=121|8=FIX.4.4|9=57|35=0|34=68|49=T2Kauaiblk6|52=20210308-13:34:31.462|56=MA|10=126|8=FIX.4.4|9=57|35=0|34=69|49=T2Kauaiblk6|52=20210308-13:36:01.463|56=MA|10=127|8=FIX.4.4|9=57|35=0|34=70|49=T2Kauaiblk6|52=20210308-13:37:32.463|56=MA|10=124|8=FIX.4.4|9=57|35=0|34=71|49=T2Kauaiblk6|52=20210308-13:39:02.463|56=MA|10=124|8=FIX.4.4|9=57|35=0|34=72|49=T2Kauaiblk6|52=20210308-13:40:33.463|56=MA|10=121|8=FIX.4.4|9=57|35=0|34=73|49=T2Kauaiblk6|52=20210308-13:42:04.461|56=MA|10=120|8=FIX.4.4|9=57|35=0|34=74|49=T2Kauaiblk6|52=20210308-13:43:34.463|56=MA|10=127|8=FIX.4.4|9=57|35=0|34=75|49=T2Kauaiblk6|52=20210308-13:45:05.462|56=MA|10=127|8=FIX.4.4|9=57|35=0|34=76|49=T2Kauaiblk6|52=20210308-13:46:36.461|56=MA|10=132|8=FIX.4.4|9=57|35=0|34=77|49=T2Kauaiblk6|52=20210308-13:48:06.462|56=MA|10=133|8=FIX.4.4|9=57|35=0|34=78|49=T2Kauaiblk6|52=20210308-13:49:37.461|56=MA|10=138|8=FIX.4.4|9=57|35=0|34=79|49=T2Kauaiblk6|52=20210308-13:51:08.460|56=MA|10=129|8=FIX.4.4|9=57|35=0|34=80|49=T2Kauaiblk6|52=20210308-13:52:39.461|56=MA|10=127|8=FIX.4.4|9=57|35=0|34=81|49=T2Kauaiblk6|52=20210308-13:54:10.459|56=MA|10=126|8=FIX.4.4|9=57|35=0|34=82|49=T2Kauaiblk6|52=20210308-13:55:40.459|56=MA|10=131|8=FIX.4.4|9=57|35=0|34=83|49=T2Kauaiblk6|52=20210308-13:57:11.460|56=MA|10=124|8=FIX.4.4|9=57|35=0|34=84|49=T2Kauaiblk6|52=20210308-13:58:42.458|56=MA|10=137|8=FIX.4.4|9=57|35=0|34=85|49=T2Kauaiblk6|52=20210308-14:00:12.458|56=MA|10=123|8=FIX.4.4|9=57|35=0|34=86|49=T2Kauaiblk6|52=20210308-14:01:42.458|56=MA|10=128|8=FIX.4.4|9=57|35=0|34=87|49=T2Kauaiblk6|52=20210308-14:03:13.458|56=MA|10=129|8=FIX.4.4|9=57|35=0|34=88|49=T2Kauaiblk6|52=20210308-14:04:44.458|56=MA|10=135|8=FIX.4.4|9=57|35=0|34=89|49=T2Kauaiblk6|52=20210308-14:06:15.456|56=MA|10=134|8=FIX.4.4|9=57|35=0|34=90|49=T2Kauaiblk6|52=20210308-14:07:45.457|56=MA|10=131|8=FIX.4.4|9=57|35=0|34=91|49=T2Kauaiblk6|52=20210308-14:09:16.456|56=MA|10=131|8=FIX.4.4|9=57|35=0|34=92|49=T2Kauaiblk6|52=20210308-14:10:46.456|56=MA|10=127|8=FIX.4.4|9=57|35=5|34=93|49=T2Kauaiblk6|52=20210308-14:11:38.390|56=MA|10=132|8=FIX.4.4|9=91|35=A|34=1|49=T2Kauaiblk6|52=20210308-14:27:40.462|56=MA|98=0|108=90|95=8|96=3.0.0rc5|141=Y|10=041|8=FIX.4.4|9=705|35=E|34=2|49=T2Kauaiblk6|52=20210308-14:27:44.977|56=MA|66=ListID-080321-rowdy-2038|394=2|68=5|73=5|11=ClOrdID-2039|22=4|38=100000|44=100|48=US06051GEN51|54=1|55=[N/A/]|63=3|67=1|423=1|29726=100.25|453=1|448=T2Kauaiblk6|447=C|452=11|11=ClOrdID-2040|22=4|38=100000|44=101|48=US40434AAB52|54=1|55=[N/A]|63=3|67=2|29726=101.25|11=ClOrdID-2041|22=4|38=130000|44=102|48=US95709TAH32|54=1|55=[N/A/]|63=3|67=1|29726=102.25|453=1|448=T2Kauaiblk6|447=C|452=11|11=ClOrdID-2042|22=4|38=250000|44=103|48=US427866AZ15|54=1|55=[N/A/]|63=3|67=1|29726=103.25|453=1|448=T2Kauaiblk6|447=C|452=11|11=ClOrdID-2043|22=4|38=350000|44=104|48=US29379VAW37|54=1|55=[N/A/]|63=3|67=1|29726=104.25|453=1|448=T2Kauaiblk6|447=C|452=11|10=233|8=FIX.4.4|9=705|35=E|34=3|49=T2Kauaiblk6|52=20210308-14:27:45.580|56=MA|66=ListID-080321-rowdy-2044|394=2|68=5|73=5|11=ClOrdID-2045|22=4|38=100000|44=100|48=US06051GEN51|54=1|55=[N/A/]|63=3|67=1|423=1|29726=100.25|453=1|448=T2Kauaiblk6|447=C|452=11|11=ClOrdID-2046|22=4|38=100000|44=101|48=US40434AAB52|54=1|55=[N/A]|63=3|67=2|29726=101.25|11=ClOrdID-2047|22=4|38=130000|44=102|48=US95709TAH32|54=1|55=[N/A/]|63=3|67=1|29726=102.25|453=1|448=T2Kauaiblk6|447=C|452=11|11=ClOrdID-2048|22=4|38=250000|44=103|48=US427866AZ15|54=1|55=[N/A/]|63=3|67=1|29726=103.25|453=1|448=T2Kauaiblk6|447=C|452=11|11=ClOrdID-2049|22=4|38=350000|44=104|48=US29379VAW37|54=1|55=[N/A/]|63=3|67=1|29726=104.25|453=1|448=T2Kauaiblk6|447=C|452=11|10=243|8=FIX.4.4|9=705|35=E|34=4|49=T2Kauaiblk6|52=20210308-14:27:46.172|56=MA|66=ListID-080321-rowdy-2050|394=2|68=5|73=5|11=ClOrdID-2051|22=4|38=100000|44=100|48=US06051GEN51|54=1|55=[N/A/]|63=3|67=1|423=1|29726=100.25|453=1|448=T2Kauaiblk6|447=C|452=11|11=ClOrdID-2052|22=4|38=100000|44=101|48=US40434AAB52|54=1|55=[N/A]|63=3|67=2|29726=101.25|11=ClOrdID-2053|22=4|38=130000|44=102|48=US95709TAH32|54=1|55=[N/A/]|63=3|67=1|29726=102.25|453=1|448=T2Kauaiblk6|447=C|452=11|11=ClOrdID-2054|22=4|38=250000|44=103|48=US427866AZ15|54=1|55=[N/A/]|63=3|67=1|29726=103.25|453=1|448=T2Kauaiblk6|447=C|452=11|11=ClOrdID-2055|22=4|38=350000|44=104|48=US29379VAW37|54=1|55=[N/A/]|63=3|67=1|29726=104.25|453=1|448=T2Kauaiblk6|447=C|452=11|10=224|8=FIX.4.4|9=705|35=E|34=5|49=T2Kauaiblk6|52=20210308-14:27:46.799|56=MA|66=ListID-080321-rowdy-2056|394=2|68=5|73=5|11=ClOrdID-2057|22=4|38=100000|44=100|48=US06051GEN51|54=1|55=[N/A/]|63=3|67=1|423=1|29726=100.25|453=1|448=T2Kauaiblk6|447=C|452=11|11=ClOrdID-2058|22=4|38=100000|44=101|48=US40434AAB52|54=1|55=[N/A]|63=3|67=2|29726=101.25|11=ClOrdID-2059|22=4|38=130000|44=102|48=US95709TAH32|54=1|55=[N/A/]|63=3|67=1|29726=102.25|453=1|448=T2Kauaiblk6|447=C|452=11|11=ClOrdID-2060|22=4|38=250000|44=103|48=US427866AZ15|54=1|55=[N/A/]|63=3|67=1|29726=103.25|453=1|448=T2Kauaiblk6|447=C|452=11|11=ClOrdID-2061|22=4|38=350000|44=104|48=US29379VAW37|54=1|55=[N/A/]|63=3|67=1|29726=104.25|453=1|448=T2Kauaiblk6|447=C|452=11|10=002|8=FIX.4.4|9=705|35=E|34=6|49=T2Kauaiblk6|52=20210308-14:27:47.505|56=MA|66=ListID-080321-rowdy-2062|394=2|68=5|73=5|11=ClOrdID-2063|22=4|38=100000|44=100|48=US06051GEN51|54=1|55=[N/A/]|63=3|67=1|423=1|29726=100.25|453=1|448=T2Kauaiblk6|447=C|452=11|11=ClOrdID-2064|22=4|38=100000|44=101|48=US40434AAB52|54=1|55=[N/A]|63=3|67=2|29726=101.25|11=ClOrdID-2065|22=4|38=130000|44=102|48=US95709TAH32|54=1|55=[N/A/]|63=3|67=1|29726=102.25|453=1|448=T2Kauaiblk6|447=C|452=11|11=ClOrdID-2066|22=4|38=250000|44=103|48=US427866AZ15|54=1|55=[N/A/]|63=3|67=1|29726=103.25|453=1|448=T2Kauaiblk6|447=C|452=11|11=ClOrdID-2067|22=4|38=350000|44=104|48=US29379VAW37|54=1|55=[N/A/]|63=3|67=1|29726=104.25|453=1|448=T2Kauaiblk6|447=C|452=11|10=245|8=FIX.4.4|9=705|35=E|34=7|49=T2Kauaiblk6|52=20210308-14:27:48.035|56=MA|66=ListID-080321-rowdy-2068|394=2|68=5|73=5|11=ClOrdID-2069|22=4|38=100000|44=100|48=US06051GEN51|54=1|55=[N/A/]|63=3|67=1|423=1|29726=100.25|453=1|448=T2Kauaiblk6|447=C|452=11|11=ClOrdID-2070|22=4|38=100000|44=101|48=US40434AAB52|54=1|55=[N/A]|63=3|67=2|29726=101.25|11=ClOrdID-2071|22=4|38=130000|44=102|48=US95709TAH32|54=1|55=[N/A/]|63=3|67=1|29726=102.25|453=1|448=T2Kauaiblk6|447=C|452=11|11=ClOrdID-2072|22=4|38=250000|44=103|48=US427866AZ15|54=1|55=[N/A/]|63=3|67=1|29726=103.25|453=1|448=T2Kauaiblk6|447=C|452=11|11=ClOrdID-2073|22=4|38=350000|44=104|48=US29379VAW37|54=1|55=[N/A/]|63=3|67=1|29726=104.25|453=1|448=T2Kauaiblk6|447=C|452=11|10=245|8=FIX.4.4|9=56|35=0|34=8|49=T2Kauaiblk6|52=20210308-14:29:18.459|56=MA|10=087|8=FIX.4.4|9=56|35=0|34=9|49=T2Kauaiblk6|52=20210308-14:30:48.459|56=MA|10=083|8=FIX.4.4|9=57|35=0|34=10|49=T2Kauaiblk6|52=20210308-14:32:18.459|56=MA|10=123|8=FIX.4.4|9=57|35=0|34=11|49=T2Kauaiblk6|52=20210308-14:33:48.461|56=MA|10=121|8=FIX.4.4|9=57|35=0|34=12|49=T2Kauaiblk6|52=20210308-14:35:19.460|56=MA|10=121|8=FIX.4.4|9=57|35=0|34=13|49=T2Kauaiblk6|52=20210308-14:36:49.461|56=MA|10=127|8=FIX.4.4|9=57|35=0|34=14|49=T2Kauaiblk6|52=20210308-14:38:19.461|56=MA|10=127|8=FIX.4.4|9=57|35=0|34=15|49=T2Kauaiblk6|52=20210308-14:39:50.461|56=MA|10=124|8=FIX.4.4|9=57|35=0|34=16|49=T2Kauaiblk6|52=20210308-14:41:21.461|56=MA|10=116|8=FIX.4.4|9=57|35=0|34=17|49=T2Kauaiblk6|52=20210308-14:42:51.462|56=MA|10=122|8=FIX.4.4|9=57|35=0|34=18|49=T2Kauaiblk6|52=20210308-14:44:22.462|56=MA|10=123|8=FIX.4.4|9=57|35=0|34=19|49=T2Kauaiblk6|52=20210308-14:45:53.461|56=MA|10=128|8=FIX.4.4|9=57|35=0|34=20|49=T2Kauaiblk6|52=20210308-14:47:23.461|56=MA|10=119|8=FIX.4.4|9=57|35=0|34=21|49=T2Kauaiblk6|52=20210308-14:48:54.461|56=MA|10=125|8=FIX.4.4|9=57|35=0|34=22|49=T2Kauaiblk6|52=20210308-14:50:25.460|56=MA|10=116|8=FIX.4.4|9=57|35=0|34=23|49=T2Kauaiblk6|52=20210308-14:51:55.460|56=MA|10=121|8=FIX.4.4|9=57|35=0|34=24|49=T2Kauaiblk6|52=20210308-14:53:26.461|56=MA|10=123|8=FIX.4.4|9=57|35=0|34=25|49=T2Kauaiblk6|52=20210308-14:54:56.461|56=MA|10=128|8=FIX.4.4|9=57|35=0|34=26|49=T2Kauaiblk6|52=20210308-14:56:27.460|56=MA|10=128|8=FIX.4.4|9=57|35=0|34=27|49=T2Kauaiblk6|52=20210308-14:57:58.459|56=MA|10=142|8=FIX.4.4|9=57|35=0|34=28|49=T2Kauaiblk6|52=20210308-14:59:28.460|56=MA|10=134|8=FIX.4.4|9=57|35=0|34=29|49=T2Kauaiblk6|52=20210308-15:00:59.459|56=MA|10=134|8=FIX.4.4|9=57|35=0|34=30|49=T2Kauaiblk6|52=20210308-15:02:29.459|56=MA|10=125|8=FIX.4.4|9=57|35=0|34=31|49=T2Kauaiblk6|52=20210308-15:03:59.459|56=MA|10=130|8=FIX.4.4|9=57|35=0|34=32|49=T2Kauaiblk6|52=20210308-15:05:29.459|56=MA|10=130|8=FIX.4.4|9=57|35=0|34=33|49=T2Kauaiblk6|52=20210308-15:07:00.457|56=MA|10=120|8=FIX.4.4|9=57|35=0|34=34|49=T2Kauaiblk6|52=20210308-15:08:31.456|56=MA|10=125|8=FIX.4.4|9=57|35=0|34=35|49=T2Kauaiblk6|52=20210308-15:10:01.457|56=MA|10=117|8=FIX.4.4|9=57|35=0|34=36|49=T2Kauaiblk6|52=20210308-15:11:31.457|56=MA|10=122|8=FIX.4.4|9=57|35=0|34=37|49=T2Kauaiblk6|52=20210308-15:13:02.456|56=MA|10=122|8=FIX.4.4|9=57|35=0|34=38|49=T2Kauaiblk6|52=20210308-15:14:33.455|56=MA|10=127|8=FIX.4.4|9=57|35=0|34=39|49=T2Kauaiblk6|52=20210308-15:16:03.456|56=MA|10=128|8=FIX.4.4|9=57|35=0|34=40|49=T2Kauaiblk6|52=20210308-15:17:34.454|56=MA|10=123|8=FIX.4.4|9=57|35=0|34=41|49=T2Kauaiblk6|52=20210308-15:19:04.455|56=MA|10=124|8=FIX.4.4|9=57|35=0|34=42|49=T2Kauaiblk6|52=20210308-15:20:35.453|56=MA|10=119|8=FIX.4.4|9=57|35=0|34=43|49=T2Kauaiblk6|52=20210308-15:22:05.454|56=MA|10=120|8=FIX.4.4|9=57|35=0|34=44|49=T2Kauaiblk6|52=20210308-15:23:36.454|56=MA|10=126|8=FIX.4.4|9=57|35=0|34=45|49=T2Kauaiblk6|52=20210308-15:25:07.453|56=MA|10=126|8=FIX.4.4|9=57|35=0|34=46|49=T2Kauaiblk6|52=20210308-15:26:38.453|56=MA|10=132|8=FIX.4.4|9=57|35=0|34=47|49=T2Kauaiblk6|52=20210308-15:28:09.453|56=MA|10=133|8=FIX.4.4|9=57|35=0|34=48|49=T2Kauaiblk6|52=20210308-15:29:39.454|56=MA|10=139|8=FIX.4.4|9=57|35=0|34=49|49=T2Kauaiblk6|52=20210308-15:31:09.458|56=MA|10=134|8=FIX.4.4|9=57|35=0|34=50|49=T2Kauaiblk6|52=20210308-15:32:39.462|56=MA|10=125|8=FIX.4.4|9=57|35=0|34=51|49=T2Kauaiblk6|52=20210308-15:34:09.466|56=MA|10=129|8=FIX.4.4|9=57|35=0|34=52|49=T2Kauaiblk6|52=20210308-15:35:39.468|56=MA|10=136|8=FIX.4.4|9=57|35=0|34=53|49=T2Kauaiblk6|52=20210308-15:37:09.470|56=MA|10=129|8=FIX.4.4|9=57|35=0|34=54|49=T2Kauaiblk6|52=20210308-15:38:39.473|56=MA|10=137|8=FIX.4.4|9=57|35=0|34=55|49=T2Kauaiblk6|52=20210308-15:40:09.476|56=MA|10=131|8=FIX.4.4|9=57|35=0|34=56|49=T2Kauaiblk6|52=20210308-15:41:39.477|56=MA|10=137|8=FIX.4.4|9=57|35=0|34=57|49=T2Kauaiblk6|52=20210308-15:43:09.479|56=MA|10=139|8=FIX.4.4|9=57|35=0|34=58|49=T2Kauaiblk6|52=20210308-15:44:39.482|56=MA|10=138|8=FIX.4.4|9=57|35=0|34=59|49=T2Kauaiblk6|52=20210308-15:46:10.482|56=MA|10=130|8=FIX.4.4|9=57|35=0|34=60|49=T2Kauaiblk6|52=20210308-15:47:40.483|56=MA|10=127|8=FIX.4.4|9=57|35=0|34=61|49=T2Kauaiblk6|52=20210308-15:49:10.484|56=MA|10=128|8=FIX.4.4|9=57|35=0|34=62|49=T2Kauaiblk6|52=20210308-15:50:40.484|56=MA|10=124|8=FIX.4.4|9=57|35=0|34=63|49=T2Kauaiblk6|52=20210308-15:52:10.486|56=MA|10=126|8=FIX.4.4|9=57|35=0|34=64|49=T2Kauaiblk6|52=20210308-15:53:40.486|56=MA|10=131|8=FIX.4.4|9=57|35=0|34=65|49=T2Kauaiblk6|52=20210308-15:55:10.487|56=MA|10=132|8=FIX.4.4|9=57|35=0|34=66|49=T2Kauaiblk6|52=20210308-15:56:41.508|56=MA|10=132|8=FIX.4.4|9=57|35=0|34=67|49=T2Kauaiblk6|52=20210308-15:58:12.487|56=MA|10=139|8=FIX.4.4|9=57|35=0|34=68|49=T2Kauaiblk6|52=20210308-15:59:42.488|56=MA|10=145|8=FIX.4.4|9=57|35=0|34=69|49=T2Kauaiblk6|52=20210308-16:01:12.489|56=MA|10=132|8=FIX.4.4|9=57|35=0|34=70|49=T2Kauaiblk6|52=20210308-16:02:43.487|56=MA|10=127|8=FIX.4.4|9=57|35=0|34=71|49=T2Kauaiblk6|52=20210308-16:04:13.489|56=MA|10=129|8=FIX.4.4|9=57|35=0|34=72|49=T2Kauaiblk6|52=20210308-16:05:44.489|56=MA|10=135|8=FIX.4.4|9=57|35=0|34=73|49=T2Kauaiblk6|52=20210308-16:07:15.497|56=MA|10=135|8=FIX.4.4|9=57|35=0|34=74|49=T2Kauaiblk6|52=20210308-16:08:46.488|56=MA|10=141|8=FIX.4.4|9=57|35=0|34=75|49=T2Kauaiblk6|52=20210308-16:10:17.487|56=MA|10=132|8=FIX.4.4|9=57|35=0|34=76|49=T2Kauaiblk6|52=20210308-16:11:47.488|56=MA|10=138|8=FIX.4.4|9=57|35=0|34=77|49=T2Kauaiblk6|52=20210308-16:13:17.488|56=MA|10=138|8=FIX.4.4|9=57|35=0|34=78|49=T2Kauaiblk6|52=20210308-16:14:47.488|56=MA|10=143|8=FIX.4.4|9=57|35=0|34=79|49=T2Kauaiblk6|52=20210308-16:16:17.488|56=MA|10=143|8=FIX.4.4|9=57|35=0|34=80|49=T2Kauaiblk6|52=20210308-16:17:48.487|56=MA|10=139|8=FIX.4.4|9=57|35=0|34=81|49=T2Kauaiblk6|52=20210308-16:19:19.486|56=MA|10=139|8=FIX.4.4|9=57|35=0|34=82|49=T2Kauaiblk6|52=20210308-16:20:49.487|56=MA|10=136|8=FIX.4.4|9=57|35=0|34=83|49=T2Kauaiblk6|52=20210308-16:22:20.487|56=MA|10=128|8=FIX.4.4|9=57|35=0|34=84|49=T2Kauaiblk6|52=20210308-16:23:51.487|56=MA|10=134|8=FIX.4.4|9=57|35=0|34=85|49=T2Kauaiblk6|52=20210308-16:25:22.486|56=MA|10=134|8=FIX.4.4|9=57|35=0|34=86|49=T2Kauaiblk6|52=20210308-16:26:53.485|56=MA|10=139|8=FIX.4.4|9=57|35=0|34=87|49=T2Kauaiblk6|52=20210308-16:28:24.486|56=MA|10=141|8=FIX.4.4|9=57|35=0|34=88|49=T2Kauaiblk6|52=20210308-16:29:55.485|56=MA|10=146|8=FIX.4.4|9=57|35=0|34=89|49=T2Kauaiblk6|52=20210308-16:31:26.485|56=MA|10=138|8=FIX.4.4|9=57|35=0|34=90|49=T2Kauaiblk6|52=20210308-16:32:57.483|56=MA|10=133|8=FIX.4.4|9=57|35=0|34=91|49=T2Kauaiblk6|52=20210308-16:34:27.484|56=MA|10=134|8=FIX.4.4|9=57|35=0|34=92|49=T2Kauaiblk6|52=20210308-16:35:58.482|56=MA|10=138|8=FIX.4.4|9=57|35=0|34=93|49=T2Kauaiblk6|52=20210308-16:37:28.482|56=MA|10=138|8=FIX.4.4|9=57|35=0|34=94|49=T2Kauaiblk6|52=20210308-16:38:58.483|56=MA|10=144|8=FIX.4.4|9=57|35=0|34=95|49=T2Kauaiblk6|52=20210308-16:40:28.484|56=MA|10=136|8=FIX.4.4|9=57|35=0|34=96|49=T2Kauaiblk6|52=20210308-16:41:58.484|56=MA|10=141|8=FIX.4.4|9=57|35=0|34=97|49=T2Kauaiblk6|52=20210308-16:43:28.484|56=MA|10=141|8=FIX.4.4|9=57|35=0|34=98|49=T2Kauaiblk6|52=20210308-16:44:58.485|56=MA|10=147|8=FIX.4.4|9=57|35=0|34=99|49=T2Kauaiblk6|52=20210308-16:46:28.486|56=MA|10=148|8=FIX.4.4|9=58|35=0|34=100|49=T2Kauaiblk6|52=20210308-16:47:58.488|56=MA|10=186|8=FIX.4.4|9=58|35=0|34=101|49=T2Kauaiblk6|52=20210308-16:49:29.488|56=MA|10=187|8=FIX.4.4|9=58|35=0|34=102|49=T2Kauaiblk6|52=20210308-16:51:00.487|56=MA|10=169|8=FIX.4.4|9=58|35=0|34=103|49=T2Kauaiblk6|52=20210308-16:52:30.488|56=MA|10=175|8=FIX.4.4|9=58|35=0|34=104|49=T2Kauaiblk6|52=20210308-16:54:00.489|56=MA|10=176|8=FIX.4.4|9=58|35=0|34=105|49=T2Kauaiblk6|52=20210308-16:55:31.489|56=MA|10=182|8=FIX.4.4|9=58|35=0|34=106|49=T2Kauaiblk6|52=20210308-16:57:02.488|56=MA|10=182|8=FIX.4.4|9=58|35=0|34=107|49=T2Kauaiblk6|52=20210308-16:58:32.489|56=MA|10=188|8=FIX.4.4|9=58|35=0|34=108|49=T2Kauaiblk6|52=20210308-17:00:02.490|56=MA|10=166|8=FIX.4.4|9=58|35=0|34=109|49=T2Kauaiblk6|52=20210308-17:01:32.490|56=MA|10=171|8=FIX.4.4|9=58|35=0|34=110|49=T2Kauaiblk6|52=20210308-17:03:03.490|56=MA|10=163|8=FIX.4.4|9=58|35=0|34=111|49=T2Kauaiblk6|52=20210308-17:04:34.489|56=MA|10=177|8=FIX.4.4|9=58|35=0|34=112|49=T2Kauaiblk6|52=20210308-17:06:04.490|56=MA|10=169|8=FIX.4.4|9=58|35=0|34=113|49=T2Kauaiblk6|52=20210308-17:07:35.490|56=MA|10=175|8=FIX.4.4|9=58|35=0|34=114|49=T2Kauaiblk6|52=20210308-17:09:05.490|56=MA|10=175|8=FIX.4.4|9=58|35=0|34=115|49=T2Kauaiblk6|52=20210308-17:10:36.489|56=MA|10=180|8=FIX.4.4|9=58|35=0|34=116|49=T2Kauaiblk6|52=20210308-17:12:06.489|56=MA|10=180|8=FIX.4.4|9=58|35=0|34=117|49=T2Kauaiblk6|52=20210308-17:13:36.489|56=MA|10=185|8=FIX.4.4|9=58|35=0|34=118|49=T2Kauaiblk6|52=20210308-17:15:06.489|56=MA|10=185|8=FIX.4.4|9=58|35=0|34=119|49=T2Kauaiblk6|52=20210308-17:16:36.490|56=MA|10=182|8=FIX.4.4|9=58|35=0|34=120|49=T2Kauaiblk6|52=20210308-17:18:07.488|56=MA|10=181|8=FIX.4.4|9=58|35=0|34=121|49=T2Kauaiblk6|52=20210308-17:19:37.489|56=MA|10=187|8=FIX.4.4|9=58|35=0|34=122|49=T2Kauaiblk6|52=20210308-17:21:07.490|56=MA|10=170|8=FIX.4.4|9=58|35=0|34=123|49=T2Kauaiblk6|52=20210308-17:22:38.488|56=MA|10=183|8=FIX.4.4|9=58|35=0|34=124|49=T2Kauaiblk6|52=20210308-17:24:08.489|56=MA|10=184|8=FIX.4.4|9=58|35=0|34=125|49=T2Kauaiblk6|52=20210308-17:25:38.490|56=MA|10=181|8=FIX.4.4|9=58|35=0|34=126|49=T2Kauaiblk6|52=20210308-17:27:09.488|56=MA|10=189|8=FIX.4.4|9=58|35=0|34=127|49=T2Kauaiblk6|52=20210308-17:28:39.489|56=MA|10=195|8=FIX.4.4|9=58|35=0|34=128|49=T2Kauaiblk6|52=20210308-17:30:10.487|56=MA|10=176|8=FIX.4.4|9=58|35=0|34=129|49=T2Kauaiblk6|52=20210308-17:31:40.488|56=MA|10=182|8=FIX.4.4|9=58|35=0|34=130|49=T2Kauaiblk6|52=20210308-17:33:10.488|56=MA|10=173|8=FIX.4.4|9=58|35=0|34=131|49=T2Kauaiblk6|52=20210308-17:34:40.488|56=MA|10=178|8=FIX.4.4|9=58|35=0|34=132|49=T2Kauaiblk6|52=20210308-17:36:10.890|56=MA|10=175|8=FIX.4.4|9=58|35=0|34=133|49=T2Kauaiblk6|52=20210308-17:37:41.486|56=MA|10=182|8=FIX.4.4|9=58|35=0|34=134|49=T2Kauaiblk6|52=20210308-17:39:11.487|56=MA|10=183|8=FIX.4.4|9=58|35=0|34=135|49=T2Kauaiblk6|52=20210308-17:40:41.729|56=MA|10=178|8=FIX.4.4|9=58|35=0|34=136|49=T2Kauaiblk6|52=20210308-17:42:11.874|56=MA|10=179|8=FIX.4.4|9=58|35=0|34=137|49=T2Kauaiblk6|52=20210308-17:43:42.487|56=MA|10=185|8=FIX.4.4|9=58|35=0|34=138|49=T2Kauaiblk6|52=20210308-17:45:12.726|56=MA|10=181|8=FIX.4.4|9=58|35=0|34=139|49=T2Kauaiblk6|52=20210308-17:46:42.884|56=MA|10=191|8=FIX.4.4|9=58|35=0|34=140|49=T2Kauaiblk6|52=20210308-17:48:13.490|56=MA|10=176|8=FIX.4.4|9=58|35=0|34=141|49=T2Kauaiblk6|52=20210308-17:49:43.490|56=MA|10=181|8=FIX.4.4|9=58|35=0|34=142|49=T2Kauaiblk6|52=20210308-17:51:13.492|56=MA|10=174|8=FIX.4.4|9=58|35=0|34=143|49=T2Kauaiblk6|52=20210308-17:52:43.493|56=MA|10=180|8=FIX.4.4|9=58|35=0|34=144|49=T2Kauaiblk6|52=20210308-17:54:13.495|56=MA|10=182|8=FIX.4.4|9=58|35=0|34=145|49=T2Kauaiblk6|52=20210308-17:55:43.496|56=MA|10=188|8=FIX.4.4|9=58|35=0|34=146|49=T2Kauaiblk6|52=20210308-17:57:13.498|56=MA|10=190|8=FIX.4.4|9=58|35=0|34=147|49=T2Kauaiblk6|52=20210308-17:58:43.500|56=MA|10=179|8=FIX.4.4|9=58|35=0|34=148|49=T2Kauaiblk6|52=20210308-18:00:13.501|56=MA|10=166|8=FIX.4.4|9=58|35=0|34=149|49=T2Kauaiblk6|52=20210308-18:01:43.501|56=MA|10=171|8=FIX.4.4|9=58|35=0|34=150|49=T2Kauaiblk6|52=20210308-18:03:13.503|56=MA|10=164|8=FIX.4.4|9=58|35=0|34=151|49=T2Kauaiblk6|52=20210308-18:04:43.503|56=MA|10=169|8=FIX.4.4|9=58|35=0|34=152|49=T2Kauaiblk6|52=20210308-18:06:13.504|56=MA|10=170|8=FIX.4.4|9=58|35=0|34=153|49=T2Kauaiblk6|52=20210308-18:07:43.506|56=MA|10=177|8=FIX.4.4|9=58|35=0|34=154|49=T2Kauaiblk6|52=20210308-18:09:14.506|56=MA|10=178|8=FIX.4.4|9=58|35=0|34=155|49=T2Kauaiblk6|52=20210308-18:10:44.506|56=MA|10=174|8=FIX.4.4|9=58|35=0|34=156|49=T2Kauaiblk6|52=20210308-18:12:14.507|56=MA|10=175|8=FIX.4.4|9=58|35=5|34=157|49=T2Kauaiblk6|52=20210308-18:12:24.754|56=MA|10=186|8=FIX.4.4|9=91|35=A|34=1|49=T2Kauaiblk6|52=20210315-10:10:41.282|56=MA|98=0|108=90|95=8|96=3.0.0rc5|141=Y|10=028|8=FIX.4.4|9=703|35=E|34=2|49=T2Kauaiblk6|52=20210315-10:11:10.152|56=MA|66=ListID-150321-sam-2020|394=2|68=5|73=5|11=ClOrdID-2021|22=4|38=100000|44=100|48=US06051GEN51|54=1|55=[N/A/]|63=3|67=1|423=1|29726=100.25|453=1|448=T2Kauaiblk6|447=C|452=11|11=ClOrdID-2022|22=4|38=100000|44=101|48=US40434AAB52|54=1|55=[N/A]|63=3|67=2|29726=101.25|11=ClOrdID-2023|22=4|38=130000|44=102|48=US95709TAH32|54=1|55=[N/A/]|63=3|67=1|29726=102.25|453=1|448=T2Kauaiblk6|447=C|452=11|11=ClOrdID-2024|22=4|38=250000|44=103|48=US427866AZ15|54=1|55=[N/A/]|63=3|67=1|29726=103.25|453=1|448=T2Kauaiblk6|447=C|452=11|11=ClOrdID-2025|22=4|38=350000|44=104|48=US29379VAW37|54=1|55=[N/A/]|63=3|67=1|29726=104.25|453=1|448=T2Kauaiblk6|447=C|452=11|10=188|8=FIX.4.4|9=703|35=E|34=3|49=T2Kauaiblk6|52=20210315-10:11:10.735|56=MA|66=ListID-150321-sam-2026|394=2|68=5|73=5|11=ClOrdID-2027|22=4|38=100000|44=100|48=US06051GEN51|54=1|55=[N/A/]|63=3|67=1|423=1|29726=100.25|453=1|448=T2Kauaiblk6|447=C|452=11|11=ClOrdID-2028|22=4|38=100000|44=101|48=US40434AAB52|54=1|55=[N/A]|63=3|67=2|29726=101.25|11=ClOrdID-2029|22=4|38=130000|44=102|48=US95709TAH32|54=1|55=[N/A/]|63=3|67=1|29726=102.25|453=1|448=T2Kauaiblk6|447=C|452=11|11=ClOrdID-2030|22=4|38=250000|44=103|48=US427866AZ15|54=1|55=[N/A/]|63=3|67=1|29726=103.25|453=1|448=T2Kauaiblk6|447=C|452=11|11=ClOrdID-2031|22=4|38=350000|44=104|48=US29379VAW37|54=1|55=[N/A/]|63=3|67=1|29726=104.25|453=1|448=T2Kauaiblk6|447=C|452=11|10=214|8=FIX.4.4|9=703|35=E|34=4|49=T2Kauaiblk6|52=20210315-10:11:11.257|56=MA|66=ListID-150321-sam-2032|394=2|68=5|73=5|11=ClOrdID-2033|22=4|38=100000|44=100|48=US06051GEN51|54=1|55=[N/A/]|63=3|67=1|423=1|29726=100.25|453=1|448=T2Kauaiblk6|447=C|452=11|11=ClOrdID-2034|22=4|38=100000|44=101|48=US40434AAB52|54=1|55=[N/A]|63=3|67=2|29726=101.25|11=ClOrdID-2035|22=4|38=130000|44=102|48=US95709TAH32|54=1|55=[N/A/]|63=3|67=1|29726=102.25|453=1|448=T2Kauaiblk6|447=C|452=11|11=ClOrdID-2036|22=4|38=250000|44=103|48=US427866AZ15|54=1|55=[N/A/]|63=3|67=1|29726=103.25|453=1|448=T2Kauaiblk6|447=C|452=11|11=ClOrdID-2037|22=4|38=350000|44=104|48=US29379VAW37|54=1|55=[N/A/]|63=3|67=1|29726=104.25|453=1|448=T2Kauaiblk6|447=C|452=11|10=215|8=FIX.4.4|9=703|35=E|34=5|49=T2Kauaiblk6|52=20210315-10:11:11.756|56=MA|66=ListID-150321-sam-2038|394=2|68=5|73=5|11=ClOrdID-2039|22=4|38=100000|44=100|48=US06051GEN51|54=1|55=[N/A/]|63=3|67=1|423=1|29726=100.25|453=1|448=T2Kauaiblk6|447=C|452=11|11=ClOrdID-2040|22=4|38=100000|44=101|48=US40434AAB52|54=1|55=[N/A]|63=3|67=2|29726=101.25|11=ClOrdID-2041|22=4|38=130000|44=102|48=US95709TAH32|54=1|55=[N/A/]|63=3|67=1|29726=102.25|453=1|448=T2Kauaiblk6|447=C|452=11|11=ClOrdID-2042|22=4|38=250000|44=103|48=US427866AZ15|54=1|55=[N/A/]|63=3|67=1|29726=103.25|453=1|448=T2Kauaiblk6|447=C|452=11|11=ClOrdID-2043|22=4|38=350000|44=104|48=US29379VAW37|54=1|55=[N/A/]|63=3|67=1|29726=104.25|453=1|448=T2Kauaiblk6|447=C|452=11|10=220|8=FIX.4.4|9=703|35=E|34=6|49=T2Kauaiblk6|52=20210315-10:11:12.327|56=MA|66=ListID-150321-sam-2044|394=2|68=5|73=5|11=ClOrdID-2045|22=4|38=100000|44=100|48=US06051GEN51|54=1|55=[N/A/]|63=3|67=1|423=1|29726=100.25|453=1|448=T2Kauaiblk6|447=C|452=11|11=ClOrdID-2046|22=4|38=100000|44=101|48=US40434AAB52|54=1|55=[N/A]|63=3|67=2|29726=101.25|11=ClOrdID-2047|22=4|38=130000|44=102|48=US95709TAH32|54=1|55=[N/A/]|63=3|67=1|29726=102.25|453=1|448=T2Kauaiblk6|447=C|452=11|11=ClOrdID-2048|22=4|38=250000|44=103|48=US427866AZ15|54=1|55=[N/A/]|63=3|67=1|29726=103.25|453=1|448=T2Kauaiblk6|447=C|452=11|11=ClOrdID-2049|22=4|38=350000|44=104|48=US29379VAW37|54=1|55=[N/A/]|63=3|67=1|29726=104.25|453=1|448=T2Kauaiblk6|447=C|452=11|10=234|8=FIX.4.4|9=703|35=E|34=7|49=T2Kauaiblk6|52=20210315-10:11:12.838|56=MA|66=ListID-150321-sam-2050|394=2|68=5|73=5|11=ClOrdID-2051|22=4|38=100000|44=100|48=US06051GEN51|54=1|55=[N/A/]|63=3|67=1|423=1|29726=100.25|453=1|448=T2Kauaiblk6|447=C|452=11|11=ClOrdID-2052|22=4|38=100000|44=101|48=US40434AAB52|54=1|55=[N/A]|63=3|67=2|29726=101.25|11=ClOrdID-2053|22=4|38=130000|44=102|48=US95709TAH32|54=1|55=[N/A/]|63=3|67=1|29726=102.25|453=1|448=T2Kauaiblk6|447=C|452=11|11=ClOrdID-2054|22=4|38=250000|44=103|48=US427866AZ15|54=1|55=[N/A/]|63=3|67=1|29726=103.25|453=1|448=T2Kauaiblk6|447=C|452=11|11=ClOrdID-2055|22=4|38=350000|44=104|48=US29379VAW37|54=1|55=[N/A/]|63=3|67=1|29726=104.25|453=1|448=T2Kauaiblk6|447=C|452=11|10=224|8=FIX.4.4|9=703|35=E|34=8|49=T2Kauaiblk6|52=20210315-10:11:13.424|56=MA|66=ListID-150321-sam-2056|394=2|68=5|73=5|11=ClOrdID-2057|22=4|38=100000|44=100|48=US06051GEN51|54=1|55=[N/A/]|63=3|67=1|423=1|29726=100.25|453=1|448=T2Kauaiblk6|447=C|452=11|11=ClOrdID-2058|22=4|38=100000|44=101|48=US40434AAB52|54=1|55=[N/A]|63=3|67=2|29726=101.25|11=ClOrdID-2059|22=4|38=130000|44=102|48=US95709TAH32|54=1|55=[N/A/]|63=3|67=1|29726=102.25|453=1|448=T2Kauaiblk6|447=C|452=11|11=ClOrdID-2060|22=4|38=250000|44=103|48=US427866AZ15|54=1|55=[N/A/]|63=3|67=1|29726=103.25|453=1|448=T2Kauaiblk6|447=C|452=11|11=ClOrdID-2061|22=4|38=350000|44=104|48=US29379VAW37|54=1|55=[N/A/]|63=3|67=1|29726=104.25|453=1|448=T2Kauaiblk6|447=C|452=11|10=235|8=FIX.4.4|9=703|35=E|34=9|49=T2Kauaiblk6|52=20210315-10:11:13.972|56=MA|66=ListID-150321-sam-2062|394=2|68=5|73=5|11=ClOrdID-2063|22=4|38=100000|44=100|48=US06051GEN51|54=1|55=[N/A/]|63=3|67=1|423=1|29726=100.25|453=1|448=T2Kauaiblk6|447=C|452=11|11=ClOrdID-2064|22=4|38=100000|44=101|48=US40434AAB52|54=1|55=[N/A]|63=3|67=2|29726=101.25|11=ClOrdID-2065|22=4|38=130000|44=102|48=US95709TAH32|54=1|55=[N/A/]|63=3|67=1|29726=102.25|453=1|448=T2Kauaiblk6|447=C|452=11|11=ClOrdID-2066|22=4|38=250000|44=103|48=US427866AZ15|54=1|55=[N/A/]|63=3|67=1|29726=103.25|453=1|448=T2Kauaiblk6|447=C|452=11|11=ClOrdID-2067|22=4|38=350000|44=104|48=US29379VAW37|54=1|55=[N/A/]|63=3|67=1|29726=104.25|453=1|448=T2Kauaiblk6|447=C|452=11|10=244|8=FIX.4.4|9=704|35=E|34=10|49=T2Kauaiblk6|52=20210315-10:11:14.460|56=MA|66=ListID-150321-sam-2068|394=2|68=5|73=5|11=ClOrdID-2069|22=4|38=100000|44=100|48=US06051GEN51|54=1|55=[N/A/]|63=3|67=1|423=1|29726=100.25|453=1|448=T2Kauaiblk6|447=C|452=11|11=ClOrdID-2070|22=4|38=100000|44=101|48=US40434AAB52|54=1|55=[N/A]|63=3|67=2|29726=101.25|11=ClOrdID-2071|22=4|38=130000|44=102|48=US95709TAH32|54=1|55=[N/A/]|63=3|67=1|29726=102.25|453=1|448=T2Kauaiblk6|447=C|452=11|11=ClOrdID-2072|22=4|38=250000|44=103|48=US427866AZ15|54=1|55=[N/A/]|63=3|67=1|29726=103.25|453=1|448=T2Kauaiblk6|447=C|452=11|11=ClOrdID-2073|22=4|38=350000|44=104|48=US29379VAW37|54=1|55=[N/A/]|63=3|67=1|29726=104.25|453=1|448=T2Kauaiblk6|447=C|452=11|10=022|8=FIX.4.4|9=704|35=E|34=11|49=T2Kauaiblk6|52=20210315-10:12:09.255|56=MA|66=ListID-150321-sam-2074|394=2|68=5|73=5|11=ClOrdID-2075|22=4|38=100000|44=100|48=US06051GEN51|54=1|55=[N/A/]|63=3|67=1|423=1|29726=100.25|453=1|448=T2Kauaiblk6|447=C|452=11|11=ClOrdID-2076|22=4|38=100000|44=101|48=US40434AAB52|54=1|55=[N/A]|63=3|67=2|29726=101.25|11=ClOrdID-2077|22=4|38=130000|44=102|48=US95709TAH32|54=1|55=[N/A/]|63=3|67=1|29726=102.25|453=1|448=T2Kauaiblk6|447=C|452=11|11=ClOrdID-2078|22=4|38=250000|44=103|48=US427866AZ15|54=1|55=[N/A/]|63=3|67=1|29726=103.25|453=1|448=T2Kauaiblk6|447=C|452=11|11=ClOrdID-2079|22=4|38=350000|44=104|48=US29379VAW37|54=1|55=[N/A/]|63=3|67=1|29726=104.25|453=1|448=T2Kauaiblk6|447=C|452=11|10=048|8=FIX.4.4|9=704|35=E|34=12|49=T2Kauaiblk6|52=20210315-10:12:09.890|56=MA|66=ListID-150321-sam-2080|394=2|68=5|73=5|11=ClOrdID-2081|22=4|38=100000|44=100|48=US06051GEN51|54=1|55=[N/A/]|63=3|67=1|423=1|29726=100.25|453=1|448=T2Kauaiblk6|447=C|452=11|11=ClOrdID-2082|22=4|38=100000|44=101|48=US40434AAB52|54=1|55=[N/A]|63=3|67=2|29726=101.25|11=ClOrdID-2083|22=4|38=130000|44=102|48=US95709TAH32|54=1|55=[N/A/]|63=3|67=1|29726=102.25|453=1|448=T2Kauaiblk6|447=C|452=11|11=ClOrdID-2084|22=4|38=250000|44=103|48=US427866AZ15|54=1|55=[N/A/]|63=3|67=1|29726=103.25|453=1|448=T2Kauaiblk6|447=C|452=11|11=ClOrdID-2085|22=4|38=350000|44=104|48=US29379VAW37|54=1|55=[N/A/]|63=3|67=1|29726=104.25|453=1|448=T2Kauaiblk6|447=C|452=11|10=036|8=FIX.4.4|9=704|35=E|34=13|49=T2Kauaiblk6|52=20210315-10:12:10.573|56=MA|66=ListID-150321-sam-2086|394=2|68=5|73=5|11=ClOrdID-2087|22=4|38=100000|44=100|48=US06051GEN51|54=1|55=[N/A/]|63=3|67=1|423=1|29726=100.25|453=1|448=T2Kauaiblk6|447=C|452=11|11=ClOrdID-2088|22=4|38=100000|44=101|48=US40434AAB52|54=1|55=[N/A]|63=3|67=2|29726=101.25|11=ClOrdID-2089|22=4|38=130000|44=102|48=US95709TAH32|54=1|55=[N/A/]|63=3|67=1|29726=102.25|453=1|448=T2Kauaiblk6|447=C|452=11|11=ClOrdID-2090|22=4|38=250000|44=103|48=US427866AZ15|54=1|55=[N/A/]|63=3|67=1|29726=103.25|453=1|448=T2Kauaiblk6|447=C|452=11|11=ClOrdID-2091|22=4|38=350000|44=104|48=US29379VAW37|54=1|55=[N/A/]|63=3|67=1|29726=104.25|453=1|448=T2Kauaiblk6|447=C|452=11|10=045|8=FIX.4.4|9=704|35=E|34=14|49=T2Kauaiblk6|52=20210315-10:12:11.221|56=MA|66=ListID-150321-sam-2092|394=2|68=5|73=5|11=ClOrdID-2093|22=4|38=100000|44=100|48=US06051GEN51|54=1|55=[N/A/]|63=3|67=1|423=1|29726=100.25|453=1|448=T2Kauaiblk6|447=C|452=11|11=ClOrdID-2094|22=4|38=100000|44=101|48=US40434AAB52|54=1|55=[N/A]|63=3|67=2|29726=101.25|11=ClOrdID-2095|22=4|38=130000|44=102|48=US95709TAH32|54=1|55=[N/A/]|63=3|67=1|29726=102.25|453=1|448=T2Kauaiblk6|447=C|452=11|11=ClOrdID-2096|22=4|38=250000|44=103|48=US427866AZ15|54=1|55=[N/A/]|63=3|67=1|29726=103.25|453=1|448=T2Kauaiblk6|447=C|452=11|11=ClOrdID-2097|22=4|38=350000|44=104|48=US29379VAW37|54=1|55=[N/A/]|63=3|67=1|29726=104.25|453=1|448=T2Kauaiblk6|447=C|452=11|10=037|8=FIX.4.4|9=704|35=E|34=15|49=T2Kauaiblk6|52=20210315-10:12:11.481|56=MA|66=ListID-150321-sam-2098|394=2|68=5|73=5|11=ClOrdID-2099|22=4|38=100000|44=100|48=US06051GEN51|54=1|55=[N/A/]|63=3|67=1|423=1|29726=100.25|453=1|448=T2Kauaiblk6|447=C|452=11|11=ClOrdID-2100|22=4|38=100000|44=101|48=US40434AAB52|54=1|55=[N/A]|63=3|67=2|29726=101.25|11=ClOrdID-2101|22=4|38=130000|44=102|48=US95709TAH32|54=1|55=[N/A/]|63=3|67=1|29726=102.25|453=1|448=T2Kauaiblk6|447=C|452=11|11=ClOrdID-2102|22=4|38=250000|44=103|48=US427866AZ15|54=1|55=[N/A/]|63=3|67=1|29726=103.25|453=1|448=T2Kauaiblk6|447=C|452=11|11=ClOrdID-2103|22=4|38=350000|44=104|48=US29379VAW37|54=1|55=[N/A/]|63=3|67=1|29726=104.25|453=1|448=T2Kauaiblk6|447=C|452=11|10=010|8=FIX.4.4|9=704|35=E|34=16|49=T2Kauaiblk6|52=20210315-10:12:12.734|56=MA|66=ListID-150321-sam-2104|394=2|68=5|73=5|11=ClOrdID-2105|22=4|38=100000|44=100|48=US06051GEN51|54=1|55=[N/A/]|63=3|67=1|423=1|29726=100.25|453=1|448=T2Kauaiblk6|447=C|452=11|11=ClOrdID-2106|22=4|38=100000|44=101|48=US40434AAB52|54=1|55=[N/A]|63=3|67=2|29726=101.25|11=ClOrdID-2107|22=4|38=130000|44=102|48=US95709TAH32|54=1|55=[N/A/]|63=3|67=1|29726=102.25|453=1|448=T2Kauaiblk6|447=C|452=11|11=ClOrdID-2108|22=4|38=250000|44=103|48=US427866AZ15|54=1|55=[N/A/]|63=3|67=1|29726=103.25|453=1|448=T2Kauaiblk6|447=C|452=11|11=ClOrdID-2109|22=4|38=350000|44=104|48=US29379VAW37|54=1|55=[N/A/]|63=3|67=1|29726=104.25|453=1|448=T2Kauaiblk6|447=C|452=11|10=013|8=FIX.4.4|9=704|35=E|34=17|49=T2Kauaiblk6|52=20210315-10:12:13.247|56=MA|66=ListID-150321-sam-2110|394=2|68=5|73=5|11=ClOrdID-2111|22=4|38=100000|44=100|48=US06051GEN51|54=1|55=[N/A/]|63=3|67=1|423=1|29726=100.25|453=1|448=T2Kauaiblk6|447=C|452=11|11=ClOrdID-2112|22=4|38=100000|44=101|48=US40434AAB52|54=1|55=[N/A]|63=3|67=2|29726=101.25|11=ClOrdID-2113|22=4|38=130000|44=102|48=US95709TAH32|54=1|55=[N/A/]|63=3|67=1|29726=102.25|453=1|448=T2Kauaiblk6|447=C|452=11|11=ClOrdID-2114|22=4|38=250000|44=103|48=US427866AZ15|54=1|55=[N/A/]|63=3|67=1|29726=103.25|453=1|448=T2Kauaiblk6|447=C|452=11|11=ClOrdID-2115|22=4|38=350000|44=104|48=US29379VAW37|54=1|55=[N/A/]|63=3|67=1|29726=104.25|453=1|448=T2Kauaiblk6|447=C|452=11|10=252|8=FIX.4.4|9=57|35=0|34=18|49=T2Kauaiblk6|52=20210315-10:13:43.272|56=MA|10=115|8=FIX.4.4|9=57|35=0|34=19|49=T2Kauaiblk6|52=20210315-10:15:13.272|56=MA|10=115|8=FIX.4.4|9=57|35=0|34=20|49=T2Kauaiblk6|52=20210315-10:16:43.274|56=MA|10=113|8=FIX.4.4|9=57|35=0|34=21|49=T2Kauaiblk6|52=20210315-10:18:14.273|56=MA|10=113|8=FIX.4.4|9=57|35=0|34=22|49=T2Kauaiblk6|52=20210315-10:19:44.273|56=MA|10=118|8=FIX.4.4|9=57|35=0|34=23|49=T2Kauaiblk6|52=20210315-10:21:14.274|56=MA|10=110|8=FIX.4.4|9=57|35=0|34=24|49=T2Kauaiblk6|52=20210315-10:22:44.275|56=MA|10=116|8=FIX.4.4|9=57|35=0|34=25|49=T2Kauaiblk6|52=20210315-10:24:14.275|56=MA|10=116|8=FIX.4.4|9=57|35=0|34=26|49=T2Kauaiblk6|52=20210315-10:25:45.275|56=MA|10=122|8=FIX.4.4|9=57|35=0|34=27|49=T2Kauaiblk6|52=20210315-10:27:15.276|56=MA|10=123|8=FIX.4.4|9=75|35=5|34=28|49=T2Kauaiblk6|52=20210315-10:27:46.275|56=MA|58=user requested|10=224|8=FIX.4.4|9=91|35=A|34=1|49=T2Kauaiblk6|52=20210315-13:41:55.672|56=MA|98=0|108=90|95=8|96=3.0.0rc5|141=Y|10=043|8=FIX.4.4|9=699|35=E|34=2|49=T2Kauaiblk6|52=20210315-13:42:11.247|56=MA|66=ListID-150321-2116|394=2|68=5|73=5|11=ClOrdID-2117|22=4|38=100000|44=100|48=US06051GEN51|54=1|55=[N/A/]|63=3|67=1|423=1|29726=100.25|453=1|448=T2Kauaiblk6|447=C|452=11|11=ClOrdID-2118|22=4|38=100000|44=101|48=US40434AAB52|54=1|55=[N/A]|63=3|67=2|29726=101.25|11=ClOrdID-2119|22=4|38=130000|44=102|48=US95709TAH32|54=1|55=[N/A/]|63=3|67=1|29726=102.25|453=1|448=T2Kauaiblk6|447=C|452=11|11=ClOrdID-2120|22=4|38=250000|44=103|48=US427866AZ15|54=1|55=[N/A/]|63=3|67=1|29726=103.25|453=1|448=T2Kauaiblk6|447=C|452=11|11=ClOrdID-2121|22=4|38=350000|44=104|48=US29379VAW37|54=1|55=[N/A/]|63=3|67=1|29726=104.25|453=1|448=T2Kauaiblk6|447=C|452=11|10=123|8=FIX.4.4|9=699|35=E|34=3|49=T2Kauaiblk6|52=20210315-13:42:12.066|56=MA|66=ListID-150321-2122|394=2|68=5|73=5|11=ClOrdID-2123|22=4|38=100000|44=100|48=US06051GEN51|54=1|55=[N/A/]|63=3|67=1|423=1|29726=100.25|453=1|448=T2Kauaiblk6|447=C|452=11|11=ClOrdID-2124|22=4|38=100000|44=101|48=US40434AAB52|54=1|55=[N/A]|63=3|67=2|29726=101.25|11=ClOrdID-2125|22=4|38=130000|44=102|48=US95709TAH32|54=1|55=[N/A/]|63=3|67=1|29726=102.25|453=1|448=T2Kauaiblk6|447=C|452=11|11=ClOrdID-2126|22=4|38=250000|44=103|48=US427866AZ15|54=1|55=[N/A/]|63=3|67=1|29726=103.25|453=1|448=T2Kauaiblk6|447=C|452=11|11=ClOrdID-2127|22=4|38=350000|44=104|48=US29379VAW37|54=1|55=[N/A/]|63=3|67=1|29726=104.25|453=1|448=T2Kauaiblk6|447=C|452=11|10=124|8=FIX.4.4|9=699|35=E|34=4|49=T2Kauaiblk6|52=20210315-13:42:12.816|56=MA|66=ListID-150321-2128|394=2|68=5|73=5|11=ClOrdID-2129|22=4|38=100000|44=100|48=US06051GEN51|54=1|55=[N/A/]|63=3|67=1|423=1|29726=100.25|453=1|448=T2Kauaiblk6|447=C|452=11|11=ClOrdID-2130|22=4|38=100000|44=101|48=US40434AAB52|54=1|55=[N/A]|63=3|67=2|29726=101.25|11=ClOrdID-2131|22=4|38=130000|44=102|48=US95709TAH32|54=1|55=[N/A/]|63=3|67=1|29726=102.25|453=1|448=T2Kauaiblk6|447=C|452=11|11=ClOrdID-2132|22=4|38=250000|44=103|48=US427866AZ15|54=1|55=[N/A/]|63=3|67=1|29726=103.25|453=1|448=T2Kauaiblk6|447=C|452=11|11=ClOrdID-2133|22=4|38=350000|44=104|48=US29379VAW37|54=1|55=[N/A/]|63=3|67=1|29726=104.25|453=1|448=T2Kauaiblk6|447=C|452=11|10=128|8=FIX.4.4|9=699|35=E|34=5|49=T2Kauaiblk6|52=20210315-13:42:13.511|56=MA|66=ListID-150321-2134|394=2|68=5|73=5|11=ClOrdID-2135|22=4|38=100000|44=100|48=US06051GEN51|54=1|55=[N/A/]|63=3|67=1|423=1|29726=100.25|453=1|448=T2Kauaiblk6|447=C|452=11|11=ClOrdID-2136|22=4|38=100000|44=101|48=US40434AAB52|54=1|55=[N/A]|63=3|67=2|29726=101.25|11=ClOrdID-2137|22=4|38=130000|44=102|48=US95709TAH32|54=1|55=[N/A/]|63=3|67=1|29726=102.25|453=1|448=T2Kauaiblk6|447=C|452=11|11=ClOrdID-2138|22=4|38=250000|44=103|48=US427866AZ15|54=1|55=[N/A/]|63=3|67=1|29726=103.25|453=1|448=T2Kauaiblk6|447=C|452=11|11=ClOrdID-2139|22=4|38=350000|44=104|48=US29379VAW37|54=1|55=[N/A/]|63=3|67=1|29726=104.25|453=1|448=T2Kauaiblk6|447=C|452=11|10=140|8=FIX.4.4|9=699|35=E|34=6|49=T2Kauaiblk6|52=20210315-13:42:14.149|56=MA|66=ListID-150321-2140|394=2|68=5|73=5|11=ClOrdID-2141|22=4|38=100000|44=100|48=US06051GEN51|54=1|55=[N/A/]|63=3|67=1|423=1|29726=100.25|453=1|448=T2Kauaiblk6|447=C|452=11|11=ClOrdID-2142|22=4|38=100000|44=101|48=US40434AAB52|54=1|55=[N/A]|63=3|67=2|29726=101.25|11=ClOrdID-2143|22=4|38=130000|44=102|48=US95709TAH32|54=1|55=[N/A/]|63=3|67=1|29726=102.25|453=1|448=T2Kauaiblk6|447=C|452=11|11=ClOrdID-2144|22=4|38=250000|44=103|48=US427866AZ15|54=1|55=[N/A/]|63=3|67=1|29726=103.25|453=1|448=T2Kauaiblk6|447=C|452=11|11=ClOrdID-2145|22=4|38=350000|44=104|48=US29379VAW37|54=1|55=[N/A/]|63=3|67=1|29726=104.25|453=1|448=T2Kauaiblk6|447=C|452=11|10=131|8=FIX.4.4|9=699|35=E|34=7|49=T2Kauaiblk6|52=20210315-13:42:14.700|56=MA|66=ListID-150321-2146|394=2|68=5|73=5|11=ClOrdID-2147|22=4|38=100000|44=100|48=US06051GEN51|54=1|55=[N/A/]|63=3|67=1|423=1|29726=100.25|453=1|448=T2Kauaiblk6|447=C|452=11|11=ClOrdID-2148|22=4|38=100000|44=101|48=US40434AAB52|54=1|55=[N/A]|63=3|67=2|29726=101.25|11=ClOrdID-2149|22=4|38=130000|44=102|48=US95709TAH32|54=1|55=[N/A/]|63=3|67=1|29726=102.25|453=1|448=T2Kauaiblk6|447=C|452=11|11=ClOrdID-2150|22=4|38=250000|44=103|48=US427866AZ15|54=1|55=[N/A/]|63=3|67=1|29726=103.25|453=1|448=T2Kauaiblk6|447=C|452=11|11=ClOrdID-2151|22=4|38=350000|44=104|48=US29379VAW37|54=1|55=[N/A/]|63=3|67=1|29726=104.25|453=1|448=T2Kauaiblk6|447=C|452=11|10=143|8=FIX.4.4|9=699|35=E|34=8|49=T2Kauaiblk6|52=20210315-13:42:15.256|56=MA|66=ListID-150321-2152|394=2|68=5|73=5|11=ClOrdID-2153|22=4|38=100000|44=100|48=US06051GEN51|54=1|55=[N/A/]|63=3|67=1|423=1|29726=100.25|453=1|448=T2Kauaiblk6|447=C|452=11|11=ClOrdID-2154|22=4|38=100000|44=101|48=US40434AAB52|54=1|55=[N/A]|63=3|67=2|29726=101.25|11=ClOrdID-2155|22=4|38=130000|44=102|48=US95709TAH32|54=1|55=[N/A/]|63=3|67=1|29726=102.25|453=1|448=T2Kauaiblk6|447=C|452=11|11=ClOrdID-2156|22=4|38=250000|44=103|48=US427866AZ15|54=1|55=[N/A/]|63=3|67=1|29726=103.25|453=1|448=T2Kauaiblk6|447=C|452=11|11=ClOrdID-2157|22=4|38=350000|44=104|48=US29379VAW37|54=1|55=[N/A/]|63=3|67=1|29726=104.25|453=1|448=T2Kauaiblk6|447=C|452=11|10=151|8=FIX.4.4|9=699|35=E|34=9|49=T2Kauaiblk6|52=20210315-13:42:15.860|56=MA|66=ListID-150321-2158|394=2|68=5|73=5|11=ClOrdID-2159|22=4|38=100000|44=100|48=US06051GEN51|54=1|55=[N/A/]|63=3|67=1|423=1|29726=100.25|453=1|448=T2Kauaiblk6|447=C|452=11|11=ClOrdID-2160|22=4|38=100000|44=101|48=US40434AAB52|54=1|55=[N/A]|63=3|67=2|29726=101.25|11=ClOrdID-2161|22=4|38=130000|44=102|48=US95709TAH32|54=1|55=[N/A/]|63=3|67=1|29726=102.25|453=1|448=T2Kauaiblk6|447=C|452=11|11=ClOrdID-2162|22=4|38=250000|44=103|48=US427866AZ15|54=1|55=[N/A/]|63=3|67=1|29726=103.25|453=1|448=T2Kauaiblk6|447=C|452=11|11=ClOrdID-2163|22=4|38=350000|44=104|48=US29379VAW37|54=1|55=[N/A/]|63=3|67=1|29726=104.25|453=1|448=T2Kauaiblk6|447=C|452=11|10=153|8=FIX.4.4|9=704|35=E|34=10|49=T2Kauaiblk6|52=20210315-13:42:21.608|56=MA|66=ListID-150321-sam-2164|394=2|68=5|73=5|11=ClOrdID-2165|22=4|38=100000|44=100|48=US06051GEN51|54=1|55=[N/A/]|63=3|67=1|423=1|29726=100.25|453=1|448=T2Kauaiblk6|447=C|452=11|11=ClOrdID-2166|22=4|38=100000|44=101|48=US40434AAB52|54=1|55=[N/A]|63=3|67=2|29726=101.25|11=ClOrdID-2167|22=4|38=130000|44=102|48=US95709TAH32|54=1|55=[N/A/]|63=3|67=1|29726=102.25|453=1|448=T2Kauaiblk6|447=C|452=11|11=ClOrdID-2168|22=4|38=250000|44=103|48=US427866AZ15|54=1|55=[N/A/]|63=3|67=1|29726=103.25|453=1|448=T2Kauaiblk6|447=C|452=11|11=ClOrdID-2169|22=4|38=350000|44=104|48=US29379VAW37|54=1|55=[N/A/]|63=3|67=1|29726=104.25|453=1|448=T2Kauaiblk6|447=C|452=11|10=049|8=FIX.4.4|9=704|35=E|34=11|49=T2Kauaiblk6|52=20210315-13:42:22.258|56=MA|66=ListID-150321-sam-2170|394=2|68=5|73=5|11=ClOrdID-2171|22=4|38=100000|44=100|48=US06051GEN51|54=1|55=[N/A/]|63=3|67=1|423=1|29726=100.25|453=1|448=T2Kauaiblk6|447=C|452=11|11=ClOrdID-2172|22=4|38=100000|44=101|48=US40434AAB52|54=1|55=[N/A]|63=3|67=2|29726=101.25|11=ClOrdID-2173|22=4|38=130000|44=102|48=US95709TAH32|54=1|55=[N/A/]|63=3|67=1|29726=102.25|453=1|448=T2Kauaiblk6|447=C|452=11|11=ClOrdID-2174|22=4|38=250000|44=103|48=US427866AZ15|54=1|55=[N/A/]|63=3|67=1|29726=103.25|453=1|448=T2Kauaiblk6|447=C|452=11|11=ClOrdID-2175|22=4|38=350000|44=104|48=US29379VAW37|54=1|55=[N/A/]|63=3|67=1|29726=104.25|453=1|448=T2Kauaiblk6|447=C|452=11|10=034|8=FIX.4.4|9=704|35=E|34=12|49=T2Kauaiblk6|52=20210315-13:42:22.452|56=MA|66=ListID-150321-sam-2176|394=2|68=5|73=5|11=ClOrdID-2177|22=4|38=100000|44=100|48=US06051GEN51|54=1|55=[N/A/]|63=3|67=1|423=1|29726=100.25|453=1|448=T2Kauaiblk6|447=C|452=11|11=ClOrdID-2178|22=4|38=100000|44=101|48=US40434AAB52|54=1|55=[N/A]|63=3|67=2|29726=101.25|11=ClOrdID-2179|22=4|38=130000|44=102|48=US95709TAH32|54=1|55=[N/A/]|63=3|67=1|29726=102.25|453=1|448=T2Kauaiblk6|447=C|452=11|11=ClOrdID-2180|22=4|38=250000|44=103|48=US427866AZ15|54=1|55=[N/A/]|63=3|67=1|29726=103.25|453=1|448=T2Kauaiblk6|447=C|452=11|11=ClOrdID-2181|22=4|38=350000|44=104|48=US29379VAW37|54=1|55=[N/A/]|63=3|67=1|29726=104.25|453=1|448=T2Kauaiblk6|447=C|452=11|10=049|8=FIX.4.4|9=704|35=E|34=13|49=T2Kauaiblk6|52=20210315-13:42:23.139|56=MA|66=ListID-150321-sam-2182|394=2|68=5|73=5|11=ClOrdID-2183|22=4|38=100000|44=100|48=US06051GEN51|54=1|55=[N/A/]|63=3|67=1|423=1|29726=100.25|453=1|448=T2Kauaiblk6|447=C|452=11|11=ClOrdID-2184|22=4|38=100000|44=101|48=US40434AAB52|54=1|55=[N/A]|63=3|67=2|29726=101.25|11=ClOrdID-2185|22=4|38=130000|44=102|48=US95709TAH32|54=1|55=[N/A/]|63=3|67=1|29726=102.25|453=1|448=T2Kauaiblk6|447=C|452=11|11=ClOrdID-2186|22=4|38=250000|44=103|48=US427866AZ15|54=1|55=[N/A/]|63=3|67=1|29726=103.25|453=1|448=T2Kauaiblk6|447=C|452=11|11=ClOrdID-2187|22=4|38=350000|44=104|48=US29379VAW37|54=1|55=[N/A/]|63=3|67=1|29726=104.25|453=1|448=T2Kauaiblk6|447=C|452=11|10=053|8=FIX.4.4|9=704|35=E|34=14|49=T2Kauaiblk6|52=20210315-13:42:23.590|56=MA|66=ListID-150321-sam-2188|394=2|68=5|73=5|11=ClOrdID-2189|22=4|38=100000|44=100|48=US06051GEN51|54=1|55=[N/A/]|63=3|67=1|423=1|29726=100.25|453=1|448=T2Kauaiblk6|447=C|452=11|11=ClOrdID-2190|22=4|38=100000|44=101|48=US40434AAB52|54=1|55=[N/A]|63=3|67=2|29726=101.25|11=ClOrdID-2191|22=4|38=130000|44=102|48=US95709TAH32|54=1|55=[N/A/]|63=3|67=1|29726=102.25|453=1|448=T2Kauaiblk6|447=C|452=11|11=ClOrdID-2192|22=4|38=250000|44=103|48=US427866AZ15|54=1|55=[N/A/]|63=3|67=1|29726=103.25|453=1|448=T2Kauaiblk6|447=C|452=11|11=ClOrdID-2193|22=4|38=350000|44=104|48=US29379VAW37|54=1|55=[N/A/]|63=3|67=1|29726=104.25|453=1|448=T2Kauaiblk6|447=C|452=11|10=055|8=FIX.4.4|9=704|35=E|34=15|49=T2Kauaiblk6|52=20210315-13:42:23.828|56=MA|66=ListID-150321-sam-2194|394=2|68=5|73=5|11=ClOrdID-2195|22=4|38=100000|44=100|48=US06051GEN51|54=1|55=[N/A/]|63=3|67=1|423=1|29726=100.25|453=1|448=T2Kauaiblk6|447=C|452=11|11=ClOrdID-2196|22=4|38=100000|44=101|48=US40434AAB52|54=1|55=[N/A]|63=3|67=2|29726=101.25|11=ClOrdID-2197|22=4|38=130000|44=102|48=US95709TAH32|54=1|55=[N/A/]|63=3|67=1|29726=102.25|453=1|448=T2Kauaiblk6|447=C|452=11|11=ClOrdID-2198|22=4|38=250000|44=103|48=US427866AZ15|54=1|55=[N/A/]|63=3|67=1|29726=103.25|453=1|448=T2Kauaiblk6|447=C|452=11|11=ClOrdID-2199|22=4|38=350000|44=104|48=US29379VAW37|54=1|55=[N/A/]|63=3|67=1|29726=104.25|453=1|448=T2Kauaiblk6|447=C|452=11|10=078|8=FIX.4.4|9=704|35=E|34=16|49=T2Kauaiblk6|52=20210315-13:42:24.050|56=MA|66=ListID-150321-sam-2200|394=2|68=5|73=5|11=ClOrdID-2201|22=4|38=100000|44=100|48=US06051GEN51|54=1|55=[N/A/]|63=3|67=1|423=1|29726=100.25|453=1|448=T2Kauaiblk6|447=C|452=11|11=ClOrdID-2202|22=4|38=100000|44=101|48=US40434AAB52|54=1|55=[N/A]|63=3|67=2|29726=101.25|11=ClOrdID-2203|22=4|38=130000|44=102|48=US95709TAH32|54=1|55=[N/A/]|63=3|67=1|29726=102.25|453=1|448=T2Kauaiblk6|447=C|452=11|11=ClOrdID-2204|22=4|38=250000|44=103|48=US427866AZ15|54=1|55=[N/A/]|63=3|67=1|29726=103.25|453=1|448=T2Kauaiblk6|447=C|452=11|11=ClOrdID-2205|22=4|38=350000|44=104|48=US29379VAW37|54=1|55=[N/A/]|63=3|67=1|29726=104.25|453=1|448=T2Kauaiblk6|447=C|452=11|10=251|8=FIX.4.4|9=704|35=E|34=17|49=T2Kauaiblk6|52=20210315-13:42:24.572|56=MA|66=ListID-150321-sam-2206|394=2|68=5|73=5|11=ClOrdID-2207|22=4|38=100000|44=100|48=US06051GEN51|54=1|55=[N/A/]|63=3|67=1|423=1|29726=100.25|453=1|448=T2Kauaiblk6|447=C|452=11|11=ClOrdID-2208|22=4|38=100000|44=101|48=US40434AAB52|54=1|55=[N/A]|63=3|67=2|29726=101.25|11=ClOrdID-2209|22=4|38=130000|44=102|48=US95709TAH32|54=1|55=[N/A/]|63=3|67=1|29726=102.25|453=1|448=T2Kauaiblk6|447=C|452=11|11=ClOrdID-2210|22=4|38=250000|44=103|48=US427866AZ15|54=1|55=[N/A/]|63=3|67=1|29726=103.25|453=1|448=T2Kauaiblk6|447=C|452=11|11=ClOrdID-2211|22=4|38=350000|44=104|48=US29379VAW37|54=1|55=[N/A/]|63=3|67=1|29726=104.25|453=1|448=T2Kauaiblk6|447=C|452=11|10=023|8=FIX.4.4|9=704|35=E|34=18|49=T2Kauaiblk6|52=20210315-13:42:24.785|56=MA|66=ListID-150321-sam-2212|394=2|68=5|73=5|11=ClOrdID-2213|22=4|38=100000|44=100|48=US06051GEN51|54=1|55=[N/A/]|63=3|67=1|423=1|29726=100.25|453=1|448=T2Kauaiblk6|447=C|452=11|11=ClOrdID-2214|22=4|38=100000|44=101|48=US40434AAB52|54=1|55=[N/A]|63=3|67=2|29726=101.25|11=ClOrdID-2215|22=4|38=130000|44=102|48=US95709TAH32|54=1|55=[N/A/]|63=3|67=1|29726=102.25|453=1|448=T2Kauaiblk6|447=C|452=11|11=ClOrdID-2216|22=4|38=250000|44=103|48=US427866AZ15|54=1|55=[N/A/]|63=3|67=1|29726=103.25|453=1|448=T2Kauaiblk6|447=C|452=11|11=ClOrdID-2217|22=4|38=350000|44=104|48=US29379VAW37|54=1|55=[N/A/]|63=3|67=1|29726=104.25|453=1|448=T2Kauaiblk6|447=C|452=11|10=030|8=FIX.4.4|9=704|35=E|34=19|49=T2Kauaiblk6|52=20210315-13:42:24.987|56=MA|66=ListID-150321-sam-2218|394=2|68=5|73=5|11=ClOrdID-2219|22=4|38=100000|44=100|48=US06051GEN51|54=1|55=[N/A/]|63=3|67=1|423=1|29726=100.25|453=1|448=T2Kauaiblk6|447=C|452=11|11=ClOrdID-2220|22=4|38=100000|44=101|48=US40434AAB52|54=1|55=[N/A]|63=3|67=2|29726=101.25|11=ClOrdID-2221|22=4|38=130000|44=102|48=US95709TAH32|54=1|55=[N/A/]|63=3|67=1|29726=102.25|453=1|448=T2Kauaiblk6|447=C|452=11|11=ClOrdID-2222|22=4|38=250000|44=103|48=US427866AZ15|54=1|55=[N/A/]|63=3|67=1|29726=103.25|453=1|448=T2Kauaiblk6|447=C|452=11|11=ClOrdID-2223|22=4|38=350000|44=104|48=US29379VAW37|54=1|55=[N/A/]|63=3|67=1|29726=104.25|453=1|448=T2Kauaiblk6|447=C|452=11|10=035|8=FIX.4.4|9=57|35=0|34=20|49=T2Kauaiblk6|52=20210315-13:43:55.668|56=MA|10=126|8=FIX.4.4|9=75|35=5|34=21|49=T2Kauaiblk6|52=20210315-13:44:24.668|56=MA|58=user requested|10=221|8=FIX.4.4|9=91|35=A|34=1|49=T2Kauaiblk6|52=20210319-14:06:21.013|56=MA|98=0|108=90|95=8|96=3.0.0rc5|141=Y|10=031|8=FIX.4.4|9=703|35=E|34=2|49=T2Kauaiblk6|52=20210319-14:06:41.011|56=MA|66=ListID-190321-rod-2224|394=2|68=5|73=5|11=ClOrdID-2225|22=4|38=100000|44=100|48=US06051GEN51|54=1|55=[N/A/]|63=3|67=1|423=1|29726=100.25|453=1|448=T2Kauaiblk6|447=C|452=11|11=ClOrdID-2226|22=4|38=100000|44=101|48=US40434AAB52|54=1|55=[N/A]|63=3|67=2|29726=101.25|11=ClOrdID-2227|22=4|38=130000|44=102|48=US95709TAH32|54=1|55=[N/A/]|63=3|67=1|29726=102.25|453=1|448=T2Kauaiblk6|447=C|452=11|11=ClOrdID-2228|22=4|38=250000|44=103|48=US427866AZ15|54=1|55=[N/A/]|63=3|67=1|29726=103.25|453=1|448=T2Kauaiblk6|447=C|452=11|11=ClOrdID-2229|22=4|38=350000|44=104|48=US29379VAW37|54=1|55=[N/A/]|63=3|67=1|29726=104.25|453=1|448=T2Kauaiblk6|447=C|452=11|10=242|8=FIX.4.4|9=703|35=E|34=3|49=T2Kauaiblk6|52=20210319-14:06:41.617|56=MA|66=ListID-190321-rod-2230|394=2|68=5|73=5|11=ClOrdID-2231|22=4|38=100000|44=100|48=US06051GEN51|54=1|55=[N/A/]|63=3|67=1|423=1|29726=100.25|453=1|448=T2Kauaiblk6|447=C|452=11|11=ClOrdID-2232|22=4|38=100000|44=101|48=US40434AAB52|54=1|55=[N/A]|63=3|67=2|29726=101.25|11=ClOrdID-2233|22=4|38=130000|44=102|48=US95709TAH32|54=1|55=[N/A/]|63=3|67=1|29726=102.25|453=1|448=T2Kauaiblk6|447=C|452=11|11=ClOrdID-2234|22=4|38=250000|44=103|48=US427866AZ15|54=1|55=[N/A/]|63=3|67=1|29726=103.25|453=1|448=T2Kauaiblk6|447=C|452=11|11=ClOrdID-2235|22=4|38=350000|44=104|48=US29379VAW37|54=1|55=[N/A/]|63=3|67=1|29726=104.25|453=1|448=T2Kauaiblk6|447=C|452=11|10=237|8=FIX.4.4|9=703|35=E|34=4|49=T2Kauaiblk6|52=20210319-14:06:42.181|56=MA|66=ListID-190321-rod-2236|394=2|68=5|73=5|11=ClOrdID-2237|22=4|38=100000|44=100|48=US06051GEN51|54=1|55=[N/A/]|63=3|67=1|423=1|29726=100.25|453=1|448=T2Kauaiblk6|447=C|452=11|11=ClOrdID-2238|22=4|38=100000|44=101|48=US40434AAB52|54=1|55=[N/A]|63=3|67=2|29726=101.25|11=ClOrdID-2239|22=4|38=130000|44=102|48=US95709TAH32|54=1|55=[N/A/]|63=3|67=1|29726=102.25|453=1|448=T2Kauaiblk6|447=C|452=11|11=ClOrdID-2240|22=4|38=250000|44=103|48=US427866AZ15|54=1|55=[N/A/]|63=3|67=1|29726=103.25|453=1|448=T2Kauaiblk6|447=C|452=11|11=ClOrdID-2241|22=4|38=350000|44=104|48=US29379VAW37|54=1|55=[N/A/]|63=3|67=1|29726=104.25|453=1|448=T2Kauaiblk6|447=C|452=11|10=253|8=FIX.4.4|9=703|35=E|34=5|49=T2Kauaiblk6|52=20210319-14:06:42.731|56=MA|66=ListID-190321-rod-2242|394=2|68=5|73=5|11=ClOrdID-2243|22=4|38=100000|44=100|48=US06051GEN51|54=1|55=[N/A/]|63=3|67=1|423=1|29726=100.25|453=1|448=T2Kauaiblk6|447=C|452=11|11=ClOrdID-2244|22=4|38=100000|44=101|48=US40434AAB52|54=1|55=[N/A]|63=3|67=2|29726=101.25|11=ClOrdID-2245|22=4|38=130000|44=102|48=US95709TAH32|54=1|55=[N/A/]|63=3|67=1|29726=102.25|453=1|448=T2Kauaiblk6|447=C|452=11|11=ClOrdID-2246|22=4|38=250000|44=103|48=US427866AZ15|54=1|55=[N/A/]|63=3|67=1|29726=103.25|453=1|448=T2Kauaiblk6|447=C|452=11|11=ClOrdID-2247|22=4|38=350000|44=104|48=US29379VAW37|54=1|55=[N/A/]|63=3|67=1|29726=104.25|453=1|448=T2Kauaiblk6|447=C|452=11|10=255|8=FIX.4.4|9=703|35=E|34=6|49=T2Kauaiblk6|52=20210319-14:06:43.283|56=MA|66=ListID-190321-rod-2248|394=2|68=5|73=5|11=ClOrdID-2249|22=4|38=100000|44=100|48=US06051GEN51|54=1|55=[N/A/]|63=3|67=1|423=1|29726=100.25|453=1|448=T2Kauaiblk6|447=C|452=11|11=ClOrdID-2250|22=4|38=100000|44=101|48=US40434AAB52|54=1|55=[N/A]|63=3|67=2|29726=101.25|11=ClOrdID-2251|22=4|38=130000|44=102|48=US95709TAH32|54=1|55=[N/A/]|63=3|67=1|29726=102.25|453=1|448=T2Kauaiblk6|447=C|452=11|11=ClOrdID-2252|22=4|38=250000|44=103|48=US427866AZ15|54=1|55=[N/A/]|63=3|67=1|29726=103.25|453=1|448=T2Kauaiblk6|447=C|452=11|11=ClOrdID-2253|22=4|38=350000|44=104|48=US29379VAW37|54=1|55=[N/A/]|63=3|67=1|29726=104.25|453=1|448=T2Kauaiblk6|447=C|452=11|10=003|8=FIX.4.4|9=703|35=E|34=7|49=T2Kauaiblk6|52=20210319-14:07:03.633|56=MA|66=ListID-190321-rod-2254|394=2|68=5|73=5|11=ClOrdID-2255|22=4|38=100000|44=100|48=US06051GEN51|54=1|55=[N/A/]|63=3|67=1|423=1|29726=100.25|453=1|448=T2Kauaiblk6|447=C|452=11|11=ClOrdID-2256|22=4|38=100000|44=101|48=US40434AAB52|54=1|55=[N/A]|63=3|67=2|29726=101.25|11=ClOrdID-2257|22=4|38=130000|44=102|48=US95709TAH32|54=1|55=[N/A/]|63=3|67=1|29726=102.25|453=1|448=T2Kauaiblk6|447=C|452=11|11=ClOrdID-2258|22=4|38=250000|44=103|48=US427866AZ15|54=1|55=[N/A/]|63=3|67=1|29726=103.25|453=1|448=T2Kauaiblk6|447=C|452=11|11=ClOrdID-2259|22=4|38=350000|44=104|48=US29379VAW37|54=1|55=[N/A/]|63=3|67=1|29726=104.25|453=1|448=T2Kauaiblk6|447=C|452=11|10=018|8=FIX.4.4|9=703|35=E|34=8|49=T2Kauaiblk6|52=20210319-14:07:04.175|56=MA|66=ListID-190321-rod-2260|394=2|68=5|73=5|11=ClOrdID-2261|22=4|38=100000|44=100|48=US06051GEN51|54=1|55=[N/A/]|63=3|67=1|423=1|29726=100.25|453=1|448=T2Kauaiblk6|447=C|452=11|11=ClOrdID-2262|22=4|38=100000|44=101|48=US40434AAB52|54=1|55=[N/A]|63=3|67=2|29726=101.25|11=ClOrdID-2263|22=4|38=130000|44=102|48=US95709TAH32|54=1|55=[N/A/]|63=3|67=1|29726=102.25|453=1|448=T2Kauaiblk6|447=C|452=11|11=ClOrdID-2264|22=4|38=250000|44=103|48=US427866AZ15|54=1|55=[N/A/]|63=3|67=1|29726=103.25|453=1|448=T2Kauaiblk6|447=C|452=11|11=ClOrdID-2265|22=4|38=350000|44=104|48=US29379VAW37|54=1|55=[N/A/]|63=3|67=1|29726=104.25|453=1|448=T2Kauaiblk6|447=C|452=11|10=003|8=FIX.4.4|9=703|35=E|34=9|49=T2Kauaiblk6|52=20210319-14:07:04.300|56=MA|66=ListID-190321-rod-2266|394=2|68=5|73=5|11=ClOrdID-2267|22=4|38=100000|44=100|48=US06051GEN51|54=1|55=[N/A/]|63=3|67=1|423=1|29726=100.25|453=1|448=T2Kauaiblk6|447=C|452=11|11=ClOrdID-2268|22=4|38=100000|44=101|48=US40434AAB52|54=1|55=[N/A]|63=3|67=2|29726=101.25|11=ClOrdID-2269|22=4|38=130000|44=102|48=US95709TAH32|54=1|55=[N/A/]|63=3|67=1|29726=102.25|453=1|448=T2Kauaiblk6|447=C|452=11|11=ClOrdID-2270|22=4|38=250000|44=103|48=US427866AZ15|54=1|55=[N/A/]|63=3|67=1|29726=103.25|453=1|448=T2Kauaiblk6|447=C|452=11|11=ClOrdID-2271|22=4|38=350000|44=104|48=US29379VAW37|54=1|55=[N/A/]|63=3|67=1|29726=104.25|453=1|448=T2Kauaiblk6|447=C|452=11|10=012|8=FIX.4.4|9=57|35=0|34=10|49=T2Kauaiblk6|52=20210319-14:08:34.696|56=MA|10=129|8=FIX.4.4|9=57|35=0|34=11|49=T2Kauaiblk6|52=20210319-14:10:05.005|56=MA|10=105|8=FIX.4.4|9=57|35=0|34=12|49=T2Kauaiblk6|52=20210319-14:11:35.007|56=MA|10=112|8=FIX.4.4|9=57|35=0|34=13|49=T2Kauaiblk6|52=20210319-14:13:05.008|56=MA|10=113|8=FIX.4.4|9=57|35=0|34=14|49=T2Kauaiblk6|52=20210319-14:14:35.008|56=MA|10=118|8=FIX.4.4|9=57|35=0|34=15|49=T2Kauaiblk6|52=20210319-14:16:05.008|56=MA|10=118|8=FIX.4.4|9=57|35=0|34=16|49=T2Kauaiblk6|52=20210319-14:17:35.010|56=MA|10=116|8=FIX.4.4|9=57|35=0|34=17|49=T2Kauaiblk6|52=20210319-14:19:05.010|56=MA|10=116|8=FIX.4.4|9=57|35=0|34=18|49=T2Kauaiblk6|52=20210319-14:20:36.011|56=MA|10=114|8=FIX.4.4|9=57|35=0|34=19|49=T2Kauaiblk6|52=20210319-14:22:06.011|56=MA|10=114|8=FIX.4.4|9=57|35=0|34=20|49=T2Kauaiblk6|52=20210319-14:23:37.011|56=MA|10=111|8=FIX.4.4|9=57|35=0|34=21|49=T2Kauaiblk6|52=20210319-14:25:08.011|56=MA|10=112|8=FIX.4.4|9=57|35=0|34=22|49=T2Kauaiblk6|52=20210319-14:26:38.011|56=MA|10=117|8=FIX.4.4|9=57|35=0|34=23|49=T2Kauaiblk6|52=20210319-14:28:08.012|56=MA|10=118|8=FIX.4.4|9=75|35=5|34=24|49=T2Kauaiblk6|52=20210319-14:29:15.012|56=MA|58=user requested|10=215|8=FIX.4.4|9=91|35=A|34=1|49=T2Kauaiblk6|52=20210326-14:37:27.717|56=MA|98=0|108=90|95=8|96=3.0.0rc5|141=Y|10=050|8=FIX.4.4|9=705|35=E|34=2|49=T2Kauaiblk6|52=20210326-14:38:26.844|56=MA|66=ListID-260321-rowdy-2272|394=2|68=5|73=5|11=ClOrdID-2273|22=4|38=100000|44=100|48=US06051GEN51|54=1|55=[N/A/]|63=3|67=1|423=1|29726=100.25|453=1|448=T2Kauaiblk6|447=C|452=11|11=ClOrdID-2274|22=4|38=100000|44=101|48=US40434AAB52|54=1|55=[N/A]|63=3|67=2|29726=101.25|11=ClOrdID-2275|22=4|38=130000|44=102|48=US95709TAH32|54=1|55=[N/A/]|63=3|67=1|29726=102.25|453=1|448=T2Kauaiblk6|447=C|452=11|11=ClOrdID-2276|22=4|38=250000|44=103|48=US427866AZ15|54=1|55=[N/A/]|63=3|67=1|29726=103.25|453=1|448=T2Kauaiblk6|447=C|452=11|11=ClOrdID-2277|22=4|38=350000|44=104|48=US29379VAW37|54=1|55=[N/A/]|63=3|67=1|29726=104.25|453=1|448=T2Kauaiblk6|447=C|452=11|10=008|8=FIX.4.4|9=705|35=E|34=3|49=T2Kauaiblk6|52=20210326-14:38:27.839|56=MA|66=ListID-260321-rowdy-2278|394=2|68=5|73=5|11=ClOrdID-2279|22=4|38=100000|44=100|48=US06051GEN51|54=1|55=[N/A/]|63=3|67=1|423=1|29726=100.25|453=1|448=T2Kauaiblk6|447=C|452=11|11=ClOrdID-2280|22=4|38=100000|44=101|48=US40434AAB52|54=1|55=[N/A]|63=3|67=2|29726=101.25|11=ClOrdID-2281|22=4|38=130000|44=102|48=US95709TAH32|54=1|55=[N/A/]|63=3|67=1|29726=102.25|453=1|448=T2Kauaiblk6|447=C|452=11|11=ClOrdID-2282|22=4|38=250000|44=103|48=US427866AZ15|54=1|55=[N/A/]|63=3|67=1|29726=103.25|453=1|448=T2Kauaiblk6|447=C|452=11|11=ClOrdID-2283|22=4|38=350000|44=104|48=US29379VAW37|54=1|55=[N/A/]|63=3|67=1|29726=104.25|453=1|448=T2Kauaiblk6|447=C|452=11|10=014|8=FIX.4.4|9=705|35=E|34=4|49=T2Kauaiblk6|52=20210326-14:38:28.703|56=MA|66=ListID-260321-rowdy-2284|394=2|68=5|73=5|11=ClOrdID-2285|22=4|38=100000|44=100|48=US06051GEN51|54=1|55=[N/A/]|63=3|67=1|423=1|29726=100.25|453=1|448=T2Kauaiblk6|447=C|452=11|11=ClOrdID-2286|22=4|38=100000|44=101|48=US40434AAB52|54=1|55=[N/A]|63=3|67=2|29726=101.25|11=ClOrdID-2287|22=4|38=130000|44=102|48=US95709TAH32|54=1|55=[N/A/]|63=3|67=1|29726=102.25|453=1|448=T2Kauaiblk6|447=C|452=11|11=ClOrdID-2288|22=4|38=250000|44=103|48=US427866AZ15|54=1|55=[N/A/]|63=3|67=1|29726=103.25|453=1|448=T2Kauaiblk6|447=C|452=11|11=ClOrdID-2289|22=4|38=350000|44=104|48=US29379VAW37|54=1|55=[N/A/]|63=3|67=1|29726=104.25|453=1|448=T2Kauaiblk6|447=C|452=11|10=024|8=FIX.4.4|9=705|35=E|34=5|49=T2Kauaiblk6|52=20210326-14:38:43.599|56=MA|66=ListID-260321-rowdy-2290|394=2|68=5|73=5|11=ClOrdID-2291|22=4|38=100000|44=100|48=US06051GEN51|54=1|55=[N/A/]|63=3|67=1|423=1|29726=100.25|453=1|448=T2Kauaiblk6|447=C|452=11|11=ClOrdID-2292|22=4|38=100000|44=101|48=US40434AAB52|54=1|55=[N/A]|63=3|67=2|29726=101.25|11=ClOrdID-2293|22=4|38=130000|44=102|48=US95709TAH32|54=1|55=[N/A/]|63=3|67=1|29726=102.25|453=1|448=T2Kauaiblk6|447=C|452=11|11=ClOrdID-2294|22=4|38=250000|44=103|48=US427866AZ15|54=1|55=[N/A/]|63=3|67=1|29726=103.25|453=1|448=T2Kauaiblk6|447=C|452=11|11=ClOrdID-2295|22=4|38=350000|44=104|48=US29379VAW37|54=1|55=[N/A/]|63=3|67=1|29726=104.25|453=1|448=T2Kauaiblk6|447=C|452=11|10=017|8=FIX.4.4|9=705|35=E|34=6|49=T2Kauaiblk6|52=20210326-14:38:44.441|56=MA|66=ListID-260321-rowdy-2296|394=2|68=5|73=5|11=ClOrdID-2297|22=4|38=100000|44=100|48=US06051GEN51|54=1|55=[N/A/]|63=3|67=1|423=1|29726=100.25|453=1|448=T2Kauaiblk6|447=C|452=11|11=ClOrdID-2298|22=4|38=100000|44=101|48=US40434AAB52|54=1|55=[N/A]|63=3|67=2|29726=101.25|11=ClOrdID-2299|22=4|38=130000|44=102|48=US95709TAH32|54=1|55=[N/A/]|63=3|67=1|29726=102.25|453=1|448=T2Kauaiblk6|447=C|452=11|11=ClOrdID-2300|22=4|38=250000|44=103|48=US427866AZ15|54=1|55=[N/A/]|63=3|67=1|29726=103.25|453=1|448=T2Kauaiblk6|447=C|452=11|11=ClOrdID-2301|22=4|38=350000|44=104|48=US29379VAW37|54=1|55=[N/A/]|63=3|67=1|29726=104.25|453=1|448=T2Kauaiblk6|447=C|452=11|10=005|8=FIX.4.4|9=705|35=E|34=7|49=T2Kauaiblk6|52=20210326-14:38:45.070|56=MA|66=ListID-260321-rowdy-2302|394=2|68=5|73=5|11=ClOrdID-2303|22=4|38=100000|44=100|48=US06051GEN51|54=1|55=[N/A/]|63=3|67=1|423=1|29726=100.25|453=1|448=T2Kauaiblk6|447=C|452=11|11=ClOrdID-2304|22=4|38=100000|44=101|48=US40434AAB52|54=1|55=[N/A]|63=3|67=2|29726=101.25|11=ClOrdID-2305|22=4|38=130000|44=102|48=US95709TAH32|54=1|55=[N/A/]|63=3|67=1|29726=102.25|453=1|448=T2Kauaiblk6|447=C|452=11|11=ClOrdID-2306|22=4|38=250000|44=103|48=US427866AZ15|54=1|55=[N/A/]|63=3|67=1|29726=103.25|453=1|448=T2Kauaiblk6|447=C|452=11|11=ClOrdID-2307|22=4|38=350000|44=104|48=US29379VAW37|54=1|55=[N/A/]|63=3|67=1|29726=104.25|453=1|448=T2Kauaiblk6|447=C|452=11|10=225|8=FIX.4.4|9=703|35=E|34=8|49=T2Kauaiblk6|52=20210326-14:38:49.585|56=MA|66=ListID-260321-sam-2308|394=2|68=5|73=5|11=ClOrdID-2309|22=4|38=100000|44=100|48=US06051GEN51|54=1|55=[N/A/]|63=3|67=1|423=1|29726=100.25|453=1|448=T2Kauaiblk6|447=C|452=11|11=ClOrdID-2310|22=4|38=100000|44=101|48=US40434AAB52|54=1|55=[N/A]|63=3|67=2|29726=101.25|11=ClOrdID-2311|22=4|38=130000|44=102|48=US95709TAH32|54=1|55=[N/A/]|63=3|67=1|29726=102.25|453=1|448=T2Kauaiblk6|447=C|452=11|11=ClOrdID-2312|22=4|38=250000|44=103|48=US427866AZ15|54=1|55=[N/A/]|63=3|67=1|29726=103.25|453=1|448=T2Kauaiblk6|447=C|452=11|11=ClOrdID-2313|22=4|38=350000|44=104|48=US29379VAW37|54=1|55=[N/A/]|63=3|67=1|29726=104.25|453=1|448=T2Kauaiblk6|447=C|452=11|10=251|8=FIX.4.4|9=703|35=E|34=9|49=T2Kauaiblk6|52=20210326-14:38:50.272|56=MA|66=ListID-260321-sam-2314|394=2|68=5|73=5|11=ClOrdID-2315|22=4|38=100000|44=100|48=US06051GEN51|54=1|55=[N/A/]|63=3|67=1|423=1|29726=100.25|453=1|448=T2Kauaiblk6|447=C|452=11|11=ClOrdID-2316|22=4|38=100000|44=101|48=US40434AAB52|54=1|55=[N/A]|63=3|67=2|29726=101.25|11=ClOrdID-2317|22=4|38=130000|44=102|48=US95709TAH32|54=1|55=[N/A/]|63=3|67=1|29726=102.25|453=1|448=T2Kauaiblk6|447=C|452=11|11=ClOrdID-2318|22=4|38=250000|44=103|48=US427866AZ15|54=1|55=[N/A/]|63=3|67=1|29726=103.25|453=1|448=T2Kauaiblk6|447=C|452=11|11=ClOrdID-2319|22=4|38=350000|44=104|48=US29379VAW37|54=1|55=[N/A/]|63=3|67=1|29726=104.25|453=1|448=T2Kauaiblk6|447=C|452=11|10=255|8=FIX.4.4|9=704|35=E|34=10|49=T2Kauaiblk6|52=20210326-14:38:50.880|56=MA|66=ListID-260321-sam-2320|394=2|68=5|73=5|11=ClOrdID-2321|22=4|38=100000|44=100|48=US06051GEN51|54=1|55=[N/A/]|63=3|67=1|423=1|29726=100.25|453=1|448=T2Kauaiblk6|447=C|452=11|11=ClOrdID-2322|22=4|38=100000|44=101|48=US40434AAB52|54=1|55=[N/A]|63=3|67=2|29726=101.25|11=ClOrdID-2323|22=4|38=130000|44=102|48=US95709TAH32|54=1|55=[N/A/]|63=3|67=1|29726=102.25|453=1|448=T2Kauaiblk6|447=C|452=11|11=ClOrdID-2324|22=4|38=250000|44=103|48=US427866AZ15|54=1|55=[N/A/]|63=3|67=1|29726=103.25|453=1|448=T2Kauaiblk6|447=C|452=11|11=ClOrdID-2325|22=4|38=350000|44=104|48=US29379VAW37|54=1|55=[N/A/]|63=3|67=1|29726=104.25|453=1|448=T2Kauaiblk6|447=C|452=11|10=027|8=FIX.4.4|9=704|35=E|34=11|49=T2Kauaiblk6|52=20210326-14:38:51.158|56=MA|66=ListID-260321-sam-2326|394=2|68=5|73=5|11=ClOrdID-2327|22=4|38=100000|44=100|48=US06051GEN51|54=1|55=[N/A/]|63=3|67=1|423=1|29726=100.25|453=1|448=T2Kauaiblk6|447=C|452=11|11=ClOrdID-2328|22=4|38=100000|44=101|48=US40434AAB52|54=1|55=[N/A]|63=3|67=2|29726=101.25|11=ClOrdID-2329|22=4|38=130000|44=102|48=US95709TAH32|54=1|55=[N/A/]|63=3|67=1|29726=102.25|453=1|448=T2Kauaiblk6|447=C|452=11|11=ClOrdID-2330|22=4|38=250000|44=103|48=US427866AZ15|54=1|55=[N/A/]|63=3|67=1|29726=103.25|453=1|448=T2Kauaiblk6|447=C|452=11|11=ClOrdID-2331|22=4|38=350000|44=104|48=US29379VAW37|54=1|55=[N/A/]|63=3|67=1|29726=104.25|453=1|448=T2Kauaiblk6|447=C|452=11|10=045|8=FIX.4.4|9=704|35=E|34=12|49=T2Kauaiblk6|52=20210326-14:38:51.659|56=MA|66=ListID-260321-sam-2332|394=2|68=5|73=5|11=ClOrdID-2333|22=4|38=100000|44=100|48=US06051GEN51|54=1|55=[N/A/]|63=3|67=1|423=1|29726=100.25|453=1|448=T2Kauaiblk6|447=C|452=11|11=ClOrdID-2334|22=4|38=100000|44=101|48=US40434AAB52|54=1|55=[N/A]|63=3|67=2|29726=101.25|11=ClOrdID-2335|22=4|38=130000|44=102|48=US95709TAH32|54=1|55=[N/A/]|63=3|67=1|29726=102.25|453=1|448=T2Kauaiblk6|447=C|452=11|11=ClOrdID-2336|22=4|38=250000|44=103|48=US427866AZ15|54=1|55=[N/A/]|63=3|67=1|29726=103.25|453=1|448=T2Kauaiblk6|447=C|452=11|11=ClOrdID-2337|22=4|38=350000|44=104|48=US29379VAW37|54=1|55=[N/A/]|63=3|67=1|29726=104.25|453=1|448=T2Kauaiblk6|447=C|452=11|10=052|8=FIX.4.4|9=704|35=E|34=13|49=T2Kauaiblk6|52=20210326-14:38:51.940|56=MA|66=ListID-260321-sam-2338|394=2|68=5|73=5|11=ClOrdID-2339|22=4|38=100000|44=100|48=US06051GEN51|54=1|55=[N/A/]|63=3|67=1|423=1|29726=100.25|453=1|448=T2Kauaiblk6|447=C|452=11|11=ClOrdID-2340|22=4|38=100000|44=101|48=US40434AAB52|54=1|55=[N/A]|63=3|67=2|29726=101.25|11=ClOrdID-2341|22=4|38=130000|44=102|48=US95709TAH32|54=1|55=[N/A/]|63=3|67=1|29726=102.25|453=1|448=T2Kauaiblk6|447=C|452=11|11=ClOrdID-2342|22=4|38=250000|44=103|48=US427866AZ15|54=1|55=[N/A/]|63=3|67=1|29726=103.25|453=1|448=T2Kauaiblk6|447=C|452=11|11=ClOrdID-2343|22=4|38=350000|44=104|48=US29379VAW37|54=1|55=[N/A/]|63=3|67=1|29726=104.25|453=1|448=T2Kauaiblk6|447=C|452=11|10=046|8=FIX.4.4|9=704|35=E|34=14|49=T2Kauaiblk6|52=20210326-14:39:39.119|56=MA|66=ListID-260321-sam-2344|394=2|68=5|73=5|11=ClOrdID-2345|22=4|38=100000|44=100|48=US06051GEN51|54=1|55=[N/A/]|63=3|67=1|423=1|29726=100.25|453=1|448=T2Kauaiblk6|447=C|452=11|11=ClOrdID-2346|22=4|38=100000|44=101|48=US40434AAB52|54=1|55=[N/A]|63=3|67=2|29726=101.25|11=ClOrdID-2347|22=4|38=130000|44=102|48=US95709TAH32|54=1|55=[N/A/]|63=3|67=1|29726=102.25|453=1|448=T2Kauaiblk6|447=C|452=11|11=ClOrdID-2348|22=4|38=250000|44=103|48=US427866AZ15|54=1|55=[N/A/]|63=3|67=1|29726=103.25|453=1|448=T2Kauaiblk6|447=C|452=11|11=ClOrdID-2349|22=4|38=350000|44=104|48=US29379VAW37|54=1|55=[N/A/]|63=3|67=1|29726=104.25|453=1|448=T2Kauaiblk6|447=C|452=11|10=070|8=FIX.4.4|9=57|35=5|34=15|49=T2Kauaiblk6|52=20210326-14:40:25.709|56=MA|10=128|8=FIX.4.4|9=91|35=A|34=1|49=T2Kauaiblk6|52=20210330-09:15:23.215|56=MA|98=0|108=90|95=8|96=3.0.0rc5|141=Y|10=034|8=FIX.4.4|9=705|35=E|34=2|49=T2Kauaiblk6|52=20210330-09:15:48.902|56=MA|66=ListID-300321-rowdy-2350|394=2|68=5|73=5|11=ClOrdID-2351|22=4|38=100000|44=100|48=US06051GEN51|54=1|55=[N/A/]|63=3|67=1|423=1|29726=100.25|453=1|448=T2Kauaiblk6|447=C|452=11|11=ClOrdID-2352|22=4|38=100000|44=101|48=US40434AAB52|54=1|55=[N/A]|63=3|67=2|29726=101.25|11=ClOrdID-2353|22=4|38=130000|44=102|48=US95709TAH32|54=1|55=[N/A/]|63=3|67=1|29726=102.25|453=1|448=T2Kauaiblk6|447=C|452=11|11=ClOrdID-2354|22=4|38=250000|44=103|48=US427866AZ15|54=1|55=[N/A/]|63=3|67=1|29726=103.25|453=1|448=T2Kauaiblk6|447=C|452=11|11=ClOrdID-2355|22=4|38=350000|44=104|48=US29379VAW37|54=1|55=[N/A/]|63=3|67=1|29726=104.25|453=1|448=T2Kauaiblk6|447=C|452=11|10=234|8=FIX.4.4|9=705|35=E|34=3|49=T2Kauaiblk6|52=20210330-09:15:49.743|56=MA|66=ListID-300321-rowdy-2356|394=2|68=5|73=5|11=ClOrdID-2357|22=4|38=100000|44=100|48=US06051GEN51|54=1|55=[N/A/]|63=3|67=1|423=1|29726=100.25|453=1|448=T2Kauaiblk6|447=C|452=11|11=ClOrdID-2358|22=4|38=100000|44=101|48=US40434AAB52|54=1|55=[N/A]|63=3|67=2|29726=101.25|11=ClOrdID-2359|22=4|38=130000|44=102|48=US95709TAH32|54=1|55=[N/A/]|63=3|67=1|29726=102.25|453=1|448=T2Kauaiblk6|447=C|452=11|11=ClOrdID-2360|22=4|38=250000|44=103|48=US427866AZ15|54=1|55=[N/A/]|63=3|67=1|29726=103.25|453=1|448=T2Kauaiblk6|447=C|452=11|11=ClOrdID-2361|22=4|38=350000|44=104|48=US29379VAW37|54=1|55=[N/A/]|63=3|67=1|29726=104.25|453=1|448=T2Kauaiblk6|447=C|452=11|10=001|8=FIX.4.4|9=705|35=E|34=4|49=T2Kauaiblk6|52=20210330-09:15:50.477|56=MA|66=ListID-300321-rowdy-2362|394=2|68=5|73=5|11=ClOrdID-2363|22=4|38=100000|44=100|48=US06051GEN51|54=1|55=[N/A/]|63=3|67=1|423=1|29726=100.25|453=1|448=T2Kauaiblk6|447=C|452=11|11=ClOrdID-2364|22=4|38=100000|44=101|48=US40434AAB52|54=1|55=[N/A]|63=3|67=2|29726=101.25|11=ClOrdID-2365|22=4|38=130000|44=102|48=US95709TAH32|54=1|55=[N/A/]|63=3|67=1|29726=102.25|453=1|448=T2Kauaiblk6|447=C|452=11|11=ClOrdID-2366|22=4|38=250000|44=103|48=US427866AZ15|54=1|55=[N/A/]|63=3|67=1|29726=103.25|453=1|448=T2Kauaiblk6|447=C|452=11|11=ClOrdID-2367|22=4|38=350000|44=104|48=US29379VAW37|54=1|55=[N/A/]|63=3|67=1|29726=104.25|453=1|448=T2Kauaiblk6|447=C|452=11|10=254|8=FIX.4.4|9=705|35=E|34=5|49=T2Kauaiblk6|52=20210330-09:15:51.042|56=MA|66=ListID-300321-rowdy-2368|394=2|68=5|73=5|11=ClOrdID-2369|22=4|38=100000|44=100|48=US06051GEN51|54=1|55=[N/A/]|63=3|67=1|423=1|29726=100.25|453=1|448=T2Kauaiblk6|447=C|452=11|11=ClOrdID-2370|22=4|38=100000|44=101|48=US40434AAB52|54=1|55=[N/A]|63=3|67=2|29726=101.25|11=ClOrdID-2371|22=4|38=130000|44=102|48=US95709TAH32|54=1|55=[N/A/]|63=3|67=1|29726=102.25|453=1|448=T2Kauaiblk6|447=C|452=11|11=ClOrdID-2372|22=4|38=250000|44=103|48=US427866AZ15|54=1|55=[N/A/]|63=3|67=1|29726=103.25|453=1|448=T2Kauaiblk6|447=C|452=11|11=ClOrdID-2373|22=4|38=350000|44=104|48=US29379VAW37|54=1|55=[N/A/]|63=3|67=1|29726=104.25|453=1|448=T2Kauaiblk6|447=C|452=11|10=244|8=FIX.4.4|9=705|35=E|34=6|49=T2Kauaiblk6|52=20210330-09:15:51.527|56=MA|66=ListID-300321-rowdy-2374|394=2|68=5|73=5|11=ClOrdID-2375|22=4|38=100000|44=100|48=US06051GEN51|54=1|55=[N/A/]|63=3|67=1|423=1|29726=100.25|453=1|448=T2Kauaiblk6|447=C|452=11|11=ClOrdID-2376|22=4|38=100000|44=101|48=US40434AAB52|54=1|55=[N/A]|63=3|67=2|29726=101.25|11=ClOrdID-2377|22=4|38=130000|44=102|48=US95709TAH32|54=1|55=[N/A/]|63=3|67=1|29726=102.25|453=1|448=T2Kauaiblk6|447=C|452=11|11=ClOrdID-2378|22=4|38=250000|44=103|48=US427866AZ15|54=1|55=[N/A/]|63=3|67=1|29726=103.25|453=1|448=T2Kauaiblk6|447=C|452=11|11=ClOrdID-2379|22=4|38=350000|44=104|48=US29379VAW37|54=1|55=[N/A/]|63=3|67=1|29726=104.25|453=1|448=T2Kauaiblk6|447=C|452=11|10=015|8=FIX.4.4|9=705|35=E|34=7|49=T2Kauaiblk6|52=20210330-09:15:52.088|56=MA|66=ListID-300321-rowdy-2380|394=2|68=5|73=5|11=ClOrdID-2381|22=4|38=100000|44=100|48=US06051GEN51|54=1|55=[N/A/]|63=3|67=1|423=1|29726=100.25|453=1|448=T2Kauaiblk6|447=C|452=11|11=ClOrdID-2382|22=4|38=100000|44=101|48=US40434AAB52|54=1|55=[N/A]|63=3|67=2|29726=101.25|11=ClOrdID-2383|22=4|38=130000|44=102|48=US95709TAH32|54=1|55=[N/A/]|63=3|67=1|29726=102.25|453=1|448=T2Kauaiblk6|447=C|452=11|11=ClOrdID-2384|22=4|38=250000|44=103|48=US427866AZ15|54=1|55=[N/A/]|63=3|67=1|29726=103.25|453=1|448=T2Kauaiblk6|447=C|452=11|11=ClOrdID-2385|22=4|38=350000|44=104|48=US29379VAW37|54=1|55=[N/A/]|63=3|67=1|29726=104.25|453=1|448=T2Kauaiblk6|447=C|452=11|10=001|8=FIX.4.4|9=705|35=E|34=8|49=T2Kauaiblk6|52=20210330-09:15:52.766|56=MA|66=ListID-300321-rowdy-2386|394=2|68=5|73=5|11=ClOrdID-2387|22=4|38=100000|44=100|48=US06051GEN51|54=1|55=[N/A/]|63=3|67=1|423=1|29726=100.25|453=1|448=T2Kauaiblk6|447=C|452=11|11=ClOrdID-2388|22=4|38=100000|44=101|48=US40434AAB52|54=1|55=[N/A]|63=3|67=2|29726=101.25|11=ClOrdID-2389|22=4|38=130000|44=102|48=US95709TAH32|54=1|55=[N/A/]|63=3|67=1|29726=102.25|453=1|448=T2Kauaiblk6|447=C|452=11|11=ClOrdID-2390|22=4|38=250000|44=103|48=US427866AZ15|54=1|55=[N/A/]|63=3|67=1|29726=103.25|453=1|448=T2Kauaiblk6|447=C|452=11|11=ClOrdID-2391|22=4|38=350000|44=104|48=US29379VAW37|54=1|55=[N/A/]|63=3|67=1|29726=104.25|453=1|448=T2Kauaiblk6|447=C|452=11|10=023|8=FIX.4.4|9=705|35=E|34=9|49=T2Kauaiblk6|52=20210330-09:15:53.359|56=MA|66=ListID-300321-rowdy-2392|394=2|68=5|73=5|11=ClOrdID-2393|22=4|38=100000|44=100|48=US06051GEN51|54=1|55=[N/A/]|63=3|67=1|423=1|29726=100.25|453=1|448=T2Kauaiblk6|447=C|452=11|11=ClOrdID-2394|22=4|38=100000|44=101|48=US40434AAB52|54=1|55=[N/A]|63=3|67=2|29726=101.25|11=ClOrdID-2395|22=4|38=130000|44=102|48=US95709TAH32|54=1|55=[N/A/]|63=3|67=1|29726=102.25|453=1|448=T2Kauaiblk6|447=C|452=11|11=ClOrdID-2396|22=4|38=250000|44=103|48=US427866AZ15|54=1|55=[N/A/]|63=3|67=1|29726=103.25|453=1|448=T2Kauaiblk6|447=C|452=11|11=ClOrdID-2397|22=4|38=350000|44=104|48=US29379VAW37|54=1|55=[N/A/]|63=3|67=1|29726=104.25|453=1|448=T2Kauaiblk6|447=C|452=11|10=023|8=FIX.4.4|9=706|35=E|34=10|49=T2Kauaiblk6|52=20210330-09:15:53.599|56=MA|66=ListID-300321-rowdy-2398|394=2|68=5|73=5|11=ClOrdID-2399|22=4|38=100000|44=100|48=US06051GEN51|54=1|55=[N/A/]|63=3|67=1|423=1|29726=100.25|453=1|448=T2Kauaiblk6|447=C|452=11|11=ClOrdID-2400|22=4|38=100000|44=101|48=US40434AAB52|54=1|55=[N/A]|63=3|67=2|29726=101.25|11=ClOrdID-2401|22=4|38=130000|44=102|48=US95709TAH32|54=1|55=[N/A/]|63=3|67=1|29726=102.25|453=1|448=T2Kauaiblk6|447=C|452=11|11=ClOrdID-2402|22=4|38=250000|44=103|48=US427866AZ15|54=1|55=[N/A/]|63=3|67=1|29726=103.25|453=1|448=T2Kauaiblk6|447=C|452=11|11=ClOrdID-2403|22=4|38=350000|44=104|48=US29379VAW37|54=1|55=[N/A/]|63=3|67=1|29726=104.25|453=1|448=T2Kauaiblk6|447=C|452=11|10=034|8=FIX.4.4|9=706|35=E|34=11|49=T2Kauaiblk6|52=20210330-09:15:54.186|56=MA|66=ListID-300321-rowdy-2404|394=2|68=5|73=5|11=ClOrdID-2405|22=4|38=100000|44=100|48=US06051GEN51|54=1|55=[N/A/]|63=3|67=1|423=1|29726=100.25|453=1|448=T2Kauaiblk6|447=C|452=11|11=ClOrdID-2406|22=4|38=100000|44=101|48=US40434AAB52|54=1|55=[N/A]|63=3|67=2|29726=101.25|11=ClOrdID-2407|22=4|38=130000|44=102|48=US95709TAH32|54=1|55=[N/A/]|63=3|67=1|29726=102.25|453=1|448=T2Kauaiblk6|447=C|452=11|11=ClOrdID-2408|22=4|38=250000|44=103|48=US427866AZ15|54=1|55=[N/A/]|63=3|67=1|29726=103.25|453=1|448=T2Kauaiblk6|447=C|452=11|11=ClOrdID-2409|22=4|38=350000|44=104|48=US29379VAW37|54=1|55=[N/A/]|63=3|67=1|29726=104.25|453=1|448=T2Kauaiblk6|447=C|452=11|10=028|8=FIX.4.4|9=706|35=E|34=12|49=T2Kauaiblk6|52=20210330-09:15:54.928|56=MA|66=ListID-300321-rowdy-2410|394=2|68=5|73=5|11=ClOrdID-2411|22=4|38=100000|44=100|48=US06051GEN51|54=1|55=[N/A/]|63=3|67=1|423=1|29726=100.25|453=1|448=T2Kauaiblk6|447=C|452=11|11=ClOrdID-2412|22=4|38=100000|44=101|48=US40434AAB52|54=1|55=[N/A]|63=3|67=2|29726=101.25|11=ClOrdID-2413|22=4|38=130000|44=102|48=US95709TAH32|54=1|55=[N/A/]|63=3|67=1|29726=102.25|453=1|448=T2Kauaiblk6|447=C|452=11|11=ClOrdID-2414|22=4|38=250000|44=103|48=US427866AZ15|54=1|55=[N/A/]|63=3|67=1|29726=103.25|453=1|448=T2Kauaiblk6|447=C|452=11|11=ClOrdID-2415|22=4|38=350000|44=104|48=US29379VAW37|54=1|55=[N/A/]|63=3|67=1|29726=104.25|453=1|448=T2Kauaiblk6|447=C|452=11|10=015|8=FIX.4.4|9=706|35=E|34=13|49=T2Kauaiblk6|52=20210330-09:15:55.631|56=MA|66=ListID-300321-rowdy-2416|394=2|68=5|73=5|11=ClOrdID-2417|22=4|38=100000|44=100|48=US06051GEN51|54=1|55=[N/A/]|63=3|67=1|423=1|29726=100.25|453=1|448=T2Kauaiblk6|447=C|452=11|11=ClOrdID-2418|22=4|38=100000|44=101|48=US40434AAB52|54=1|55=[N/A]|63=3|67=2|29726=101.25|11=ClOrdID-2419|22=4|38=130000|44=102|48=US95709TAH32|54=1|55=[N/A/]|63=3|67=1|29726=102.25|453=1|448=T2Kauaiblk6|447=C|452=11|11=ClOrdID-2420|22=4|38=250000|44=103|48=US427866AZ15|54=1|55=[N/A/]|63=3|67=1|29726=103.25|453=1|448=T2Kauaiblk6|447=C|452=11|11=ClOrdID-2421|22=4|38=350000|44=104|48=US29379VAW37|54=1|55=[N/A/]|63=3|67=1|29726=104.25|453=1|448=T2Kauaiblk6|447=C|452=11|10=026|8=FIX.4.4|9=706|35=E|34=14|49=T2Kauaiblk6|52=20210330-09:15:56.192|56=MA|66=ListID-300321-rowdy-2422|394=2|68=5|73=5|11=ClOrdID-2423|22=4|38=100000|44=100|48=US06051GEN51|54=1|55=[N/A/]|63=3|67=1|423=1|29726=100.25|453=1|448=T2Kauaiblk6|447=C|452=11|11=ClOrdID-2424|22=4|38=100000|44=101|48=US40434AAB52|54=1|55=[N/A]|63=3|67=2|29726=101.25|11=ClOrdID-2425|22=4|38=130000|44=102|48=US95709TAH32|54=1|55=[N/A/]|63=3|67=1|29726=102.25|453=1|448=T2Kauaiblk6|447=C|452=11|11=ClOrdID-2426|22=4|38=250000|44=103|48=US427866AZ15|54=1|55=[N/A/]|63=3|67=1|29726=103.25|453=1|448=T2Kauaiblk6|447=C|452=11|11=ClOrdID-2427|22=4|38=350000|44=104|48=US29379VAW37|54=1|55=[N/A/]|63=3|67=1|29726=104.25|453=1|448=T2Kauaiblk6|447=C|452=11|10=030|8=FIX.4.4|9=706|35=E|34=15|49=T2Kauaiblk6|52=20210330-09:15:56.507|56=MA|66=ListID-300321-rowdy-2428|394=2|68=5|73=5|11=ClOrdID-2429|22=4|38=100000|44=100|48=US06051GEN51|54=1|55=[N/A/]|63=3|67=1|423=1|29726=100.25|453=1|448=T2Kauaiblk6|447=C|452=11|11=ClOrdID-2430|22=4|38=100000|44=101|48=US40434AAB52|54=1|55=[N/A]|63=3|67=2|29726=101.25|11=ClOrdID-2431|22=4|38=130000|44=102|48=US95709TAH32|54=1|55=[N/A/]|63=3|67=1|29726=102.25|453=1|448=T2Kauaiblk6|447=C|452=11|11=ClOrdID-2432|22=4|38=250000|44=103|48=US427866AZ15|54=1|55=[N/A/]|63=3|67=1|29726=103.25|453=1|448=T2Kauaiblk6|447=C|452=11|11=ClOrdID-2433|22=4|38=350000|44=104|48=US29379VAW37|54=1|55=[N/A/]|63=3|67=1|29726=104.25|453=1|448=T2Kauaiblk6|447=C|452=11|10=031|8=FIX.4.4|9=706|35=E|34=16|49=T2Kauaiblk6|52=20210330-09:15:57.603|56=MA|66=ListID-300321-rowdy-2434|394=2|68=5|73=5|11=ClOrdID-2435|22=4|38=100000|44=100|48=US06051GEN51|54=1|55=[N/A/]|63=3|67=1|423=1|29726=100.25|453=1|448=T2Kauaiblk6|447=C|452=11|11=ClOrdID-2436|22=4|38=100000|44=101|48=US40434AAB52|54=1|55=[N/A]|63=3|67=2|29726=101.25|11=ClOrdID-2437|22=4|38=130000|44=102|48=US95709TAH32|54=1|55=[N/A/]|63=3|67=1|29726=102.25|453=1|448=T2Kauaiblk6|447=C|452=11|11=ClOrdID-2438|22=4|38=250000|44=103|48=US427866AZ15|54=1|55=[N/A/]|63=3|67=1|29726=103.25|453=1|448=T2Kauaiblk6|447=C|452=11|11=ClOrdID-2439|22=4|38=350000|44=104|48=US29379VAW37|54=1|55=[N/A/]|63=3|67=1|29726=104.25|453=1|448=T2Kauaiblk6|447=C|452=11|10=048|8=FIX.4.4|9=706|35=E|34=17|49=T2Kauaiblk6|52=20210330-09:15:57.864|56=MA|66=ListID-300321-rowdy-2440|394=2|68=5|73=5|11=ClOrdID-2441|22=4|38=100000|44=100|48=US06051GEN51|54=1|55=[N/A/]|63=3|67=1|423=1|29726=100.25|453=1|448=T2Kauaiblk6|447=C|452=11|11=ClOrdID-2442|22=4|38=100000|44=101|48=US40434AAB52|54=1|55=[N/A]|63=3|67=2|29726=101.25|11=ClOrdID-2443|22=4|38=130000|44=102|48=US95709TAH32|54=1|55=[N/A/]|63=3|67=1|29726=102.25|453=1|448=T2Kauaiblk6|447=C|452=11|11=ClOrdID-2444|22=4|38=250000|44=103|48=US427866AZ15|54=1|55=[N/A/]|63=3|67=1|29726=103.25|453=1|448=T2Kauaiblk6|447=C|452=11|11=ClOrdID-2445|22=4|38=350000|44=104|48=US29379VAW37|54=1|55=[N/A/]|63=3|67=1|29726=104.25|453=1|448=T2Kauaiblk6|447=C|452=11|10=040|8=FIX.4.4|9=57|35=0|34=18|49=T2Kauaiblk6|52=20210330-09:17:28.208|56=MA|10=126|8=FIX.4.4|9=91|35=A|34=1|49=T2Kauaiblk6|52=20210413-09:30:19.801|56=MA|98=0|108=90|95=8|96=3.0.0rc5|141=Y|10=039|8=FIX.4.4|9=707|35=E|34=2|49=T2Kauaiblk6|52=20210413-09:30:53.894|56=MA|66=ListID-041321-rodrigo-2350|394=2|68=5|73=5|11=ClOrdID-2351|22=4|38=100000|44=100|48=US06051GEN51|54=1|55=[N/A/]|63=3|67=1|423=1|29726=100.25|453=1|448=T2Kauaiblk6|447=C|452=11|11=ClOrdID-2352|22=4|38=100000|44=101|48=US40434AAB52|54=1|55=[N/A]|63=3|67=2|29726=101.25|11=ClOrdID-2353|22=4|38=130000|44=102|48=US95709TAH32|54=1|55=[N/A/]|63=3|67=1|29726=102.25|453=1|448=T2Kauaiblk6|447=C|452=11|11=ClOrdID-2354|22=4|38=250000|44=103|48=US427866AZ15|54=1|55=[N/A/]|63=3|67=1|29726=103.25|453=1|448=T2Kauaiblk6|447=C|452=11|11=ClOrdID-2355|22=4|38=350000|44=104|48=US29379VAW37|54=1|55=[N/A/]|63=3|67=1|29726=104.25|453=1|448=T2Kauaiblk6|447=C|452=11|10=180|8=FIX.4.4|9=707|35=E|34=3|49=T2Kauaiblk6|52=20210413-09:30:55.341|56=MA|66=ListID-041321-rodrigo-2356|394=2|68=5|73=5|11=ClOrdID-2357|22=4|38=100000|44=100|48=US06051GEN51|54=1|55=[N/A/]|63=3|67=1|423=1|29726=100.25|453=1|448=T2Kauaiblk6|447=C|452=11|11=ClOrdID-2358|22=4|38=100000|44=101|48=US40434AAB52|54=1|55=[N/A]|63=3|67=2|29726=101.25|11=ClOrdID-2359|22=4|38=130000|44=102|48=US95709TAH32|54=1|55=[N/A/]|63=3|67=1|29726=102.25|453=1|448=T2Kauaiblk6|447=C|452=11|11=ClOrdID-2360|22=4|38=250000|44=103|48=US427866AZ15|54=1|55=[N/A/]|63=3|67=1|29726=103.25|453=1|448=T2Kauaiblk6|447=C|452=11|11=ClOrdID-2361|22=4|38=350000|44=104|48=US29379VAW37|54=1|55=[N/A/]|63=3|67=1|29726=104.25|453=1|448=T2Kauaiblk6|447=C|452=11|10=188|8=FIX.4.4|9=56|35=0|34=4|49=T2Kauaiblk6|52=20210413-09:32:25.798|56=MA|10=082|8=FIX.4.4|9=56|35=0|34=5|49=T2Kauaiblk6|52=20210413-09:33:55.799|56=MA|10=088|8=FIX.4.4|9=56|35=5|34=6|49=T2Kauaiblk6|52=20210413-09:34:41.800|56=MA|10=073|8=FIX.4.4|9=91|35=A|34=1|49=T2Kauaiblk6|52=20210413-09:35:33.800|56=MA|98=0|108=90|95=8|96=3.0.0rc5|141=Y|10=039|8=FIX.4.4|9=705|35=E|34=2|49=T2Kauaiblk6|52=20210413-09:35:59.535|56=MA|66=ListID-041321-rowdy-2368|394=2|68=5|73=5|11=ClOrdID-2369|22=4|38=100000|44=100|48=US06051GEN51|54=1|55=[N/A/]|63=3|67=1|423=1|29726=100.25|453=1|448=T2Kauaiblk6|447=C|452=11|11=ClOrdID-2370|22=4|38=100000|44=101|48=US40434AAB52|54=1|55=[N/A]|63=3|67=2|29726=101.25|11=ClOrdID-2371|22=4|38=130000|44=102|48=US95709TAH32|54=1|55=[N/A/]|63=3|67=1|29726=102.25|453=1|448=T2Kauaiblk6|447=C|452=11|11=ClOrdID-2372|22=4|38=250000|44=103|48=US427866AZ15|54=1|55=[N/A/]|63=3|67=1|29726=103.25|453=1|448=T2Kauaiblk6|447=C|452=11|11=ClOrdID-2373|22=4|38=350000|44=104|48=US29379VAW37|54=1|55=[N/A/]|63=3|67=1|29726=104.25|453=1|448=T2Kauaiblk6|447=C|452=11|10=006|8=FIX.4.4|9=705|35=E|34=3|49=T2Kauaiblk6|52=20210413-09:36:00.605|56=MA|66=ListID-041321-rowdy-2374|394=2|68=5|73=5|11=ClOrdID-2375|22=4|38=100000|44=100|48=US06051GEN51|54=1|55=[N/A/]|63=3|67=1|423=1|29726=100.25|453=1|448=T2Kauaiblk6|447=C|452=11|11=ClOrdID-2376|22=4|38=100000|44=101|48=US40434AAB52|54=1|55=[N/A]|63=3|67=2|29726=101.25|11=ClOrdID-2377|22=4|38=130000|44=102|48=US95709TAH32|54=1|55=[N/A/]|63=3|67=1|29726=102.25|453=1|448=T2Kauaiblk6|447=C|452=11|11=ClOrdID-2378|22=4|38=250000|44=103|48=US427866AZ15|54=1|55=[N/A/]|63=3|67=1|29726=103.25|453=1|448=T2Kauaiblk6|447=C|452=11|11=ClOrdID-2379|22=4|38=350000|44=104|48=US29379VAW37|54=1|55=[N/A/]|63=3|67=1|29726=104.25|453=1|448=T2Kauaiblk6|447=C|452=11|10=010|8=FIX.4.4|9=705|35=E|34=4|49=T2Kauaiblk6|52=20210413-09:36:01.672|56=MA|66=ListID-041321-rowdy-2380|394=2|68=5|73=5|11=ClOrdID-2381|22=4|38=100000|44=100|48=US06051GEN51|54=1|55=[N/A/]|63=3|67=1|423=1|29726=100.25|453=1|448=T2Kauaiblk6|447=C|452=11|11=ClOrdID-2382|22=4|38=100000|44=101|48=US40434AAB52|54=1|55=[N/A]|63=3|67=2|29726=101.25|11=ClOrdID-2383|22=4|38=130000|44=102|48=US95709TAH32|54=1|55=[N/A/]|63=3|67=1|29726=102.25|453=1|448=T2Kauaiblk6|447=C|452=11|11=ClOrdID-2384|22=4|38=250000|44=103|48=US427866AZ15|54=1|55=[N/A/]|63=3|67=1|29726=103.25|453=1|448=T2Kauaiblk6|447=C|452=11|11=ClOrdID-2385|22=4|38=350000|44=104|48=US29379VAW37|54=1|55=[N/A/]|63=3|67=1|29726=104.25|453=1|448=T2Kauaiblk6|447=C|452=11|10=254|8=FIX.4.4|9=56|35=0|34=5|49=T2Kauaiblk6|52=20210413-09:37:31.804|56=MA|10=073|8=FIX.4.4|9=56|35=0|34=6|49=T2Kauaiblk6|52=20210413-09:39:02.145|56=MA|10=072|8=FIX.4.4|9=707|35=E|34=7|49=T2Kauaiblk6|52=20210413-09:40:31.677|56=MA|66=ListID-041321-rodrigo-2386|394=2|68=5|73=5|11=ClOrdID-2387|22=4|38=100000|44=100|48=US06051GEN51|54=1|55=[N/A/]|63=3|67=1|423=1|29726=100.25|453=1|448=T2Kauaiblk6|447=C|452=11|11=ClOrdID-2388|22=4|38=100000|44=101|48=US40434AAB52|54=1|55=[N/A]|63=3|67=2|29726=101.25|11=ClOrdID-2389|22=4|38=130000|44=102|48=US95709TAH32|54=1|55=[N/A/]|63=3|67=1|29726=102.25|453=1|448=T2Kauaiblk6|447=C|452=11|11=ClOrdID-2390|22=4|38=250000|44=103|48=US427866AZ15|54=1|55=[N/A/]|63=3|67=1|29726=103.25|453=1|448=T2Kauaiblk6|447=C|452=11|11=ClOrdID-2391|22=4|38=350000|44=104|48=US29379VAW37|54=1|55=[N/A/]|63=3|67=1|29726=104.25|453=1|448=T2Kauaiblk6|447=C|452=11|10=217|8=FIX.4.4|9=707|35=E|34=8|49=T2Kauaiblk6|52=20210413-09:40:32.479|56=MA|66=ListID-041321-rodrigo-2392|394=2|68=5|73=5|11=ClOrdID-2393|22=4|38=100000|44=100|48=US06051GEN51|54=1|55=[N/A/]|63=3|67=1|423=1|29726=100.25|453=1|448=T2Kauaiblk6|447=C|452=11|11=ClOrdID-2394|22=4|38=100000|44=101|48=US40434AAB52|54=1|55=[N/A]|63=3|67=2|29726=101.25|11=ClOrdID-2395|22=4|38=130000|44=102|48=US95709TAH32|54=1|55=[N/A/]|63=3|67=1|29726=102.25|453=1|448=T2Kauaiblk6|447=C|452=11|11=ClOrdID-2396|22=4|38=250000|44=103|48=US427866AZ15|54=1|55=[N/A/]|63=3|67=1|29726=103.25|453=1|448=T2Kauaiblk6|447=C|452=11|11=ClOrdID-2397|22=4|38=350000|44=104|48=US29379VAW37|54=1|55=[N/A/]|63=3|67=1|29726=104.25|453=1|448=T2Kauaiblk6|447=C|452=11|10=219|8=FIX.4.4|9=707|35=E|34=9|49=T2Kauaiblk6|52=20210413-09:40:33.127|56=MA|66=ListID-041321-rodrigo-2398|394=2|68=5|73=5|11=ClOrdID-2399|22=4|38=100000|44=100|48=US06051GEN51|54=1|55=[N/A/]|63=3|67=1|423=1|29726=100.25|453=1|448=T2Kauaiblk6|447=C|452=11|11=ClOrdID-2400|22=4|38=100000|44=101|48=US40434AAB52|54=1|55=[N/A]|63=3|67=2|29726=101.25|11=ClOrdID-2401|22=4|38=130000|44=102|48=US95709TAH32|54=1|55=[N/A/]|63=3|67=1|29726=102.25|453=1|448=T2Kauaiblk6|447=C|452=11|11=ClOrdID-2402|22=4|38=250000|44=103|48=US427866AZ15|54=1|55=[N/A/]|63=3|67=1|29726=103.25|453=1|448=T2Kauaiblk6|447=C|452=11|11=ClOrdID-2403|22=4|38=350000|44=104|48=US29379VAW37|54=1|55=[N/A/]|63=3|67=1|29726=104.25|453=1|448=T2Kauaiblk6|447=C|452=11|10=175|8=FIX.4.4|9=708|35=E|34=10|49=T2Kauaiblk6|52=20210413-09:40:37.946|56=MA|66=ListID-041321-rodrigo-2404|394=2|68=5|73=5|11=ClOrdID-2405|22=4|38=100000|44=100|48=US06051GEN51|54=1|55=[N/A/]|63=3|67=1|423=1|29726=100.25|453=1|448=T2Kauaiblk6|447=C|452=11|11=ClOrdID-2406|22=4|38=100000|44=101|48=US40434AAB52|54=1|55=[N/A]|63=3|67=2|29726=101.25|11=ClOrdID-2407|22=4|38=130000|44=102|48=US95709TAH32|54=1|55=[N/A/]|63=3|67=1|29726=102.25|453=1|448=T2Kauaiblk6|447=C|452=11|11=ClOrdID-2408|22=4|38=250000|44=103|48=US427866AZ15|54=1|55=[N/A/]|63=3|67=1|29726=103.25|453=1|448=T2Kauaiblk6|447=C|452=11|11=ClOrdID-2409|22=4|38=350000|44=104|48=US29379VAW37|54=1|55=[N/A/]|63=3|67=1|29726=104.25|453=1|448=T2Kauaiblk6|447=C|452=11|10=229|8=FIX.4.4|9=708|35=E|34=11|49=T2Kauaiblk6|52=20210413-09:40:38.563|56=MA|66=ListID-041321-rodrigo-2410|394=2|68=5|73=5|11=ClOrdID-2411|22=4|38=100000|44=100|48=US06051GEN51|54=1|55=[N/A/]|63=3|67=1|423=1|29726=100.25|453=1|448=T2Kauaiblk6|447=C|452=11|11=ClOrdID-2412|22=4|38=100000|44=101|48=US40434AAB52|54=1|55=[N/A]|63=3|67=2|29726=101.25|11=ClOrdID-2413|22=4|38=130000|44=102|48=US95709TAH32|54=1|55=[N/A/]|63=3|67=1|29726=102.25|453=1|448=T2Kauaiblk6|447=C|452=11|11=ClOrdID-2414|22=4|38=250000|44=103|48=US427866AZ15|54=1|55=[N/A/]|63=3|67=1|29726=103.25|453=1|448=T2Kauaiblk6|447=C|452=11|11=ClOrdID-2415|22=4|38=350000|44=104|48=US29379VAW37|54=1|55=[N/A/]|63=3|67=1|29726=104.25|453=1|448=T2Kauaiblk6|447=C|452=11|10=208|8=FIX.4.4|9=708|35=E|34=12|49=T2Kauaiblk6|52=20210413-09:40:39.167|56=MA|66=ListID-041321-rodrigo-2416|394=2|68=5|73=5|11=ClOrdID-2417|22=4|38=100000|44=100|48=US06051GEN51|54=1|55=[N/A/]|63=3|67=1|423=1|29726=100.25|453=1|448=T2Kauaiblk6|447=C|452=11|11=ClOrdID-2418|22=4|38=100000|44=101|48=US40434AAB52|54=1|55=[N/A]|63=3|67=2|29726=101.25|11=ClOrdID-2419|22=4|38=130000|44=102|48=US95709TAH32|54=1|55=[N/A/]|63=3|67=1|29726=102.25|453=1|448=T2Kauaiblk6|447=C|452=11|11=ClOrdID-2420|22=4|38=250000|44=103|48=US427866AZ15|54=1|55=[N/A/]|63=3|67=1|29726=103.25|453=1|448=T2Kauaiblk6|447=C|452=11|11=ClOrdID-2421|22=4|38=350000|44=104|48=US29379VAW37|54=1|55=[N/A/]|63=3|67=1|29726=104.25|453=1|448=T2Kauaiblk6|447=C|452=11|10=228|8=FIX.4.4|9=708|35=E|34=13|49=T2Kauaiblk6|52=20210413-09:40:40.145|56=MA|66=ListID-041321-rodrigo-2422|394=2|68=5|73=5|11=ClOrdID-2423|22=4|38=100000|44=100|48=US06051GEN51|54=1|55=[N/A/]|63=3|67=1|423=1|29726=100.25|453=1|448=T2Kauaiblk6|447=C|452=11|11=ClOrdID-2424|22=4|38=100000|44=101|48=US40434AAB52|54=1|55=[N/A]|63=3|67=2|29726=101.25|11=ClOrdID-2425|22=4|38=130000|44=102|48=US95709TAH32|54=1|55=[N/A/]|63=3|67=1|29726=102.25|453=1|448=T2Kauaiblk6|447=C|452=11|11=ClOrdID-2426|22=4|38=250000|44=103|48=US427866AZ15|54=1|55=[N/A/]|63=3|67=1|29726=103.25|453=1|448=T2Kauaiblk6|447=C|452=11|11=ClOrdID-2427|22=4|38=350000|44=104|48=US29379VAW37|54=1|55=[N/A/]|63=3|67=1|29726=104.25|453=1|448=T2Kauaiblk6|447=C|452=11|10=217|8=FIX.4.4|9=708|35=E|34=14|49=T2Kauaiblk6|52=20210413-09:40:40.362|56=MA|66=ListID-041321-rodrigo-2428|394=2|68=5|73=5|11=ClOrdID-2429|22=4|38=100000|44=100|48=US06051GEN51|54=1|55=[N/A/]|63=3|67=1|423=1|29726=100.25|453=1|448=T2Kauaiblk6|447=C|452=11|11=ClOrdID-2430|22=4|38=100000|44=101|48=US40434AAB52|54=1|55=[N/A]|63=3|67=2|29726=101.25|11=ClOrdID-2431|22=4|38=130000|44=102|48=US95709TAH32|54=1|55=[N/A/]|63=3|67=1|29726=102.25|453=1|448=T2Kauaiblk6|447=C|452=11|11=ClOrdID-2432|22=4|38=250000|44=103|48=US427866AZ15|54=1|55=[N/A/]|63=3|67=1|29726=103.25|453=1|448=T2Kauaiblk6|447=C|452=11|11=ClOrdID-2433|22=4|38=350000|44=104|48=US29379VAW37|54=1|55=[N/A/]|63=3|67=1|29726=104.25|453=1|448=T2Kauaiblk6|447=C|452=11|10=219|8=FIX.4.4|9=57|35=0|34=15|49=T2Kauaiblk6|52=20210413-09:42:10.799|56=MA|10=129|8=FIX.4.4|9=57|35=0|34=16|49=T2Kauaiblk6|52=20210413-09:43:40.799|56=MA|10=134|8=FIX.4.4|9=57|35=0|34=17|49=T2Kauaiblk6|52=20210413-09:45:10.811|56=MA|10=119|8=FIX.4.4|9=57|35=0|34=18|49=T2Kauaiblk6|52=20210413-09:46:40.812|56=MA|10=125|8=FIX.4.4|9=57|35=0|34=19|49=T2Kauaiblk6|52=20210413-09:48:11.810|56=MA|10=124|8=FIX.4.4|9=57|35=0|34=20|49=T2Kauaiblk6|52=20210413-09:49:42.814|56=MA|10=125|8=FIX.4.4|9=57|35=0|34=21|49=T2Kauaiblk6|52=20210413-09:51:13.159|56=MA|10=119|8=FIX.4.4|9=57|35=0|34=22|49=T2Kauaiblk6|52=20210413-09:52:43.229|56=MA|10=122|8=FIX.4.4|9=57|35=0|34=23|49=T2Kauaiblk6|52=20210413-09:54:13.798|56=MA|10=133|8=FIX.4.4|9=75|35=5|34=24|49=T2Kauaiblk6|52=20210413-09:55:27.800|56=MA|58=user requested|10=221|8=FIX.4.4|9=91|35=A|34=1|49=T2Kauaiblk6|52=20210414-08:13:46.633|56=MA|98=0|108=90|95=8|96=3.0.0rc5|141=Y|10=043|8=FIX.4.4|9=707|35=E|34=2|49=T2Kauaiblk6|52=20210414-08:14:02.019|56=MA|66=ListID-041421-rodrigo-2434|394=2|68=5|73=5|11=ClOrdID-2435|22=4|38=100000|44=100|48=US06051GEN51|54=1|55=[N/A/]|63=3|67=1|423=1|29726=100.25|453=1|448=T2Kauaiblk6|447=C|452=11|11=ClOrdID-2436|22=4|38=100000|44=101|48=US40434AAB52|54=1|55=[N/A]|63=3|67=2|29726=101.25|11=ClOrdID-2437|22=4|38=130000|44=102|48=US95709TAH32|54=1|55=[N/A/]|63=3|67=1|29726=102.25|453=1|448=T2Kauaiblk6|447=C|452=11|11=ClOrdID-2438|22=4|38=250000|44=103|48=US427866AZ15|54=1|55=[N/A/]|63=3|67=1|29726=103.25|453=1|448=T2Kauaiblk6|447=C|452=11|11=ClOrdID-2439|22=4|38=350000|44=104|48=US29379VAW37|54=1|55=[N/A/]|63=3|67=1|29726=104.25|453=1|448=T2Kauaiblk6|447=C|452=11|10=184|8=FIX.4.4|9=707|35=E|34=3|49=T2Kauaiblk6|52=20210414-08:14:02.571|56=MA|66=ListID-041421-rodrigo-2440|394=2|68=5|73=5|11=ClOrdID-2441|22=4|38=100000|44=100|48=US06051GEN51|54=1|55=[N/A/]|63=3|67=1|423=1|29726=100.25|453=1|448=T2Kauaiblk6|447=C|452=11|11=ClOrdID-2442|22=4|38=100000|44=101|48=US40434AAB52|54=1|55=[N/A]|63=3|67=2|29726=101.25|11=ClOrdID-2443|22=4|38=130000|44=102|48=US95709TAH32|54=1|55=[N/A/]|63=3|67=1|29726=102.25|453=1|448=T2Kauaiblk6|447=C|452=11|11=ClOrdID-2444|22=4|38=250000|44=103|48=US427866AZ15|54=1|55=[N/A/]|63=3|67=1|29726=103.25|453=1|448=T2Kauaiblk6|447=C|452=11|11=ClOrdID-2445|22=4|38=350000|44=104|48=US29379VAW37|54=1|55=[N/A/]|63=3|67=1|29726=104.25|453=1|448=T2Kauaiblk6|447=C|452=11|10=170|8=FIX.4.4|9=707|35=E|34=4|49=T2Kauaiblk6|52=20210414-08:14:03.075|56=MA|66=ListID-041421-rodrigo-2446|394=2|68=5|73=5|11=ClOrdID-2447|22=4|38=100000|44=100|48=US06051GEN51|54=1|55=[N/A/]|63=3|67=1|423=1|29726=100.25|453=1|448=T2Kauaiblk6|447=C|452=11|11=ClOrdID-2448|22=4|38=100000|44=101|48=US40434AAB52|54=1|55=[N/A]|63=3|67=2|29726=101.25|11=ClOrdID-2449|22=4|38=130000|44=102|48=US95709TAH32|54=1|55=[N/A/]|63=3|67=1|29726=102.25|453=1|448=T2Kauaiblk6|447=C|452=11|11=ClOrdID-2450|22=4|38=250000|44=103|48=US427866AZ15|54=1|55=[N/A/]|63=3|67=1|29726=103.25|453=1|448=T2Kauaiblk6|447=C|452=11|11=ClOrdID-2451|22=4|38=350000|44=104|48=US29379VAW37|54=1|55=[N/A/]|63=3|67=1|29726=104.25|453=1|448=T2Kauaiblk6|447=C|452=11|10=189|8=FIX.4.4|9=707|35=E|34=5|49=T2Kauaiblk6|52=20210414-08:14:28.812|56=MA|66=ListID-041421-rodrigo-2452|394=2|68=5|73=5|11=ClOrdID-2453|22=4|38=100000|44=100|48=US06051GEN51|54=1|55=[N/A/]|63=3|67=1|423=1|29726=100.25|453=1|448=T2Kauaiblk6|447=C|452=11|11=ClOrdID-2454|22=4|38=100000|44=101|48=US40434AAB52|54=1|55=[N/A]|63=3|67=2|29726=101.25|11=ClOrdID-2455|22=4|38=130000|44=102|48=US95709TAH32|54=1|55=[N/A/]|63=3|67=1|29726=102.25|453=1|448=T2Kauaiblk6|447=C|452=11|11=ClOrdID-2456|22=4|38=250000|44=103|48=US427866AZ15|54=1|55=[N/A/]|63=3|67=1|29726=103.25|453=1|448=T2Kauaiblk6|447=C|452=11|11=ClOrdID-2457|22=4|38=350000|44=104|48=US29379VAW37|54=1|55=[N/A/]|63=3|67=1|29726=104.25|453=1|448=T2Kauaiblk6|447=C|452=11|10=196|8=FIX.4.4|9=707|35=E|34=6|49=T2Kauaiblk6|52=20210414-08:14:33.157|56=MA|66=ListID-041421-rodrigo-2458|394=2|68=5|73=5|11=ClOrdID-2459|22=4|38=100000|44=100|48=US06051GEN51|54=1|55=[N/A/]|63=3|67=1|423=1|29726=100.25|453=1|448=T2Kauaiblk6|447=C|452=11|11=ClOrdID-2460|22=4|38=100000|44=101|48=US40434AAB52|54=1|55=[N/A]|63=3|67=2|29726=101.25|11=ClOrdID-2461|22=4|38=130000|44=102|48=US95709TAH32|54=1|55=[N/A/]|63=3|67=1|29726=102.25|453=1|448=T2Kauaiblk6|447=C|452=11|11=ClOrdID-2462|22=4|38=250000|44=103|48=US427866AZ15|54=1|55=[N/A/]|63=3|67=1|29726=103.25|453=1|448=T2Kauaiblk6|447=C|452=11|11=ClOrdID-2463|22=4|38=350000|44=104|48=US29379VAW37|54=1|55=[N/A/]|63=3|67=1|29726=104.25|453=1|448=T2Kauaiblk6|447=C|452=11|10=195|8=FIX.4.4|9=707|35=E|34=7|49=T2Kauaiblk6|52=20210414-08:14:35.102|56=MA|66=ListID-041421-rodrigo-2464|394=2|68=5|73=5|11=ClOrdID-2465|22=4|38=100000|44=100|48=US06051GEN51|54=1|55=[N/A/]|63=3|67=1|423=1|29726=100.25|453=1|448=T2Kauaiblk6|447=C|452=11|11=ClOrdID-2466|22=4|38=100000|44=101|48=US40434AAB52|54=1|55=[N/A]|63=3|67=2|29726=101.25|11=ClOrdID-2467|22=4|38=130000|44=102|48=US95709TAH32|54=1|55=[N/A/]|63=3|67=1|29726=102.25|453=1|448=T2Kauaiblk6|447=C|452=11|11=ClOrdID-2468|22=4|38=250000|44=103|48=US427866AZ15|54=1|55=[N/A/]|63=3|67=1|29726=103.25|453=1|448=T2Kauaiblk6|447=C|452=11|11=ClOrdID-2469|22=4|38=350000|44=104|48=US29379VAW37|54=1|55=[N/A/]|63=3|67=1|29726=104.25|453=1|448=T2Kauaiblk6|447=C|452=11|10=206|8=FIX.4.4|9=707|35=E|34=8|49=T2Kauaiblk6|52=20210414-08:14:36.344|56=MA|66=ListID-041421-rodrigo-2470|394=2|68=5|73=5|11=ClOrdID-2471|22=4|38=100000|44=100|48=US06051GEN51|54=1|55=[N/A/]|63=3|67=1|423=1|29726=100.25|453=1|448=T2Kauaiblk6|447=C|452=11|11=ClOrdID-2472|22=4|38=100000|44=101|48=US40434AAB52|54=1|55=[N/A]|63=3|67=2|29726=101.25|11=ClOrdID-2473|22=4|38=130000|44=102|48=US95709TAH32|54=1|55=[N/A/]|63=3|67=1|29726=102.25|453=1|448=T2Kauaiblk6|447=C|452=11|11=ClOrdID-2474|22=4|38=250000|44=103|48=US427866AZ15|54=1|55=[N/A/]|63=3|67=1|29726=103.25|453=1|448=T2Kauaiblk6|447=C|452=11|11=ClOrdID-2475|22=4|38=350000|44=104|48=US29379VAW37|54=1|55=[N/A/]|63=3|67=1|29726=104.25|453=1|448=T2Kauaiblk6|447=C|452=11|10=198|8=FIX.4.4|9=707|35=E|34=9|49=T2Kauaiblk6|52=20210414-08:14:37.056|56=MA|66=ListID-041421-rodrigo-2476|394=2|68=5|73=5|11=ClOrdID-2477|22=4|38=100000|44=100|48=US06051GEN51|54=1|55=[N/A/]|63=3|67=1|423=1|29726=100.25|453=1|448=T2Kauaiblk6|447=C|452=11|11=ClOrdID-2478|22=4|38=100000|44=101|48=US40434AAB52|54=1|55=[N/A]|63=3|67=2|29726=101.25|11=ClOrdID-2479|22=4|38=130000|44=102|48=US95709TAH32|54=1|55=[N/A/]|63=3|67=1|29726=102.25|453=1|448=T2Kauaiblk6|447=C|452=11|11=ClOrdID-2480|22=4|38=250000|44=103|48=US427866AZ15|54=1|55=[N/A/]|63=3|67=1|29726=103.25|453=1|448=T2Kauaiblk6|447=C|452=11|11=ClOrdID-2481|22=4|38=350000|44=104|48=US29379VAW37|54=1|55=[N/A/]|63=3|67=1|29726=104.25|453=1|448=T2Kauaiblk6|447=C|452=11|10=218|8=FIX.4.4|9=57|35=0|34=10|49=T2Kauaiblk6|52=20210414-08:16:07.646|56=MA|10=122|8=FIX.4.4|9=57|35=0|34=11|49=T2Kauaiblk6|52=20210414-08:17:37.691|56=MA|10=127|8=FIX.4.4|9=57|35=0|34=12|49=T2Kauaiblk6|52=20210414-08:19:07.736|56=MA|10=127|8=FIX.4.4|9=57|35=0|34=13|49=T2Kauaiblk6|52=20210414-08:20:37.759|56=MA|10=128|8=FIX.4.4|9=57|35=0|34=14|49=T2Kauaiblk6|52=20210414-08:22:07.759|56=MA|10=128|8=FIX.4.4|9=57|35=0|34=15|49=T2Kauaiblk6|52=20210414-08:23:37.763|56=MA|10=128|8=FIX.4.4|9=57|35=0|34=16|49=T2Kauaiblk6|52=20210414-08:25:08.759|56=MA|10=134|8=FIX.4.4|9=57|35=0|34=17|49=T2Kauaiblk6|52=20210414-08:26:38.774|56=MA|10=136|8=FIX.4.4|9=57|35=0|34=18|49=T2Kauaiblk6|52=20210414-08:28:09.760|56=MA|10=132|8=FIX.4.4|9=57|35=0|34=19|49=T2Kauaiblk6|52=20210414-08:29:39.760|56=MA|10=137|8=FIX.4.4|9=57|35=0|34=20|49=T2Kauaiblk6|52=20210414-08:31:10.757|56=MA|10=117|8=FIX.4.4|9=57|35=0|34=21|49=T2Kauaiblk6|52=20210414-08:32:40.767|56=MA|10=123|8=FIX.4.4|9=57|35=0|34=22|49=T2Kauaiblk6|52=20210414-08:34:11.758|56=MA|10=124|8=FIX.4.4|9=57|35=0|34=23|49=T2Kauaiblk6|52=20210414-08:35:41.772|56=MA|10=125|8=FIX.4.4|9=57|35=0|34=24|49=T2Kauaiblk6|52=20210414-08:37:12.758|56=MA|10=130|8=FIX.4.4|9=57|35=0|34=25|49=T2Kauaiblk6|52=20210414-08:38:43.758|56=MA|10=136|8=FIX.4.4|9=57|35=0|34=26|49=T2Kauaiblk6|52=20210414-08:40:13.758|56=MA|10=127|8=FIX.4.4|9=57|35=0|34=27|49=T2Kauaiblk6|52=20210414-08:41:44.757|56=MA|10=132|8=FIX.4.4|9=57|35=0|34=28|49=T2Kauaiblk6|52=20210414-08:43:14.757|56=MA|10=132|8=FIX.4.4|9=57|35=0|34=29|49=T2Kauaiblk6|52=20210414-08:44:44.780|56=MA|10=133|8=FIX.4.4|9=57|35=0|34=30|49=T2Kauaiblk6|52=20210414-08:46:15.761|56=MA|10=124|8=FIX.4.4|9=57|35=0|34=31|49=T2Kauaiblk6|52=20210414-08:47:45.765|56=MA|10=133|8=FIX.4.4|9=57|35=0|34=32|49=T2Kauaiblk6|52=20210414-08:49:15.768|56=MA|10=136|8=FIX.4.4|9=57|35=0|34=33|49=T2Kauaiblk6|52=20210414-08:50:46.769|56=MA|10=134|8=FIX.4.4|9=57|35=0|34=34|49=T2Kauaiblk6|52=20210414-08:52:17.767|56=MA|10=133|8=FIX.4.4|9=708|35=E|34=35|49=T2Kauaiblk6|52=20210414-08:53:32.699|56=MA|66=ListID-041421-rodrigo-2482|394=2|68=5|73=5|11=ClOrdID-2483|22=4|38=100000|44=100|48=US06051GEN51|54=1|55=[N/A/]|63=3|67=1|423=1|29726=100.25|453=1|448=T2Kauaiblk6|447=C|452=11|11=ClOrdID-2484|22=4|38=100000|44=101|48=US40434AAB52|54=1|55=[N/A]|63=3|67=2|29726=101.25|11=ClOrdID-2485|22=4|38=130000|44=102|48=US95709TAH32|54=1|55=[N/A/]|63=3|67=1|29726=102.25|453=1|448=T2Kauaiblk6|447=C|452=11|11=ClOrdID-2486|22=4|38=250000|44=103|48=US427866AZ15|54=1|55=[N/A/]|63=3|67=1|29726=103.25|453=1|448=T2Kauaiblk6|447=C|452=11|11=ClOrdID-2487|22=4|38=350000|44=104|48=US29379VAW37|54=1|55=[N/A/]|63=3|67=1|29726=104.25|453=1|448=T2Kauaiblk6|447=C|452=11|10=021|8=FIX.4.4|9=708|35=E|34=36|49=T2Kauaiblk6|52=20210414-08:53:33.278|56=MA|66=ListID-041421-rodrigo-2488|394=2|68=5|73=5|11=ClOrdID-2489|22=4|