8=FIX.4.4|9=82|35=A|34=1|49=EHABAXUK|52=20181129-09:07:52.265|56=MA|98=0|108=90|95=8|96=3.0.0rc4|10=114|8=FIX.4.4|9=53|35=5|34=2|49=EHABAXUK|52=20181129-09:08:07.267|56=MA|10=192|8=FIX.4.4|9=82|35=A|34=3|49=EHABAXUK|52=20181130-10:33:19.755|56=MA|98=0|108=90|95=8|96=3.0.0rc4|10=106|8=FIX.4.4|9=102|35=5|34=4|49=EHABAXUK|52=20181130-10:33:20.335|56=MA|58=MsgSeqNum too low, expecting 4 but received 1|10=107|8=FIX.4.4|9=82|35=A|34=5|49=EHABAXUK|52=20181130-10:33:24.755|56=MA|98=0|108=90|95=8|96=3.0.0rc4|10=104|8=FIX.4.4|9=102|35=5|34=6|49=EHABAXUK|52=20181130-10:33:25.331|56=MA|58=MsgSeqNum too low, expecting 4 but received 3|10=112|8=FIX.4.4|9=82|35=A|34=1|49=EHABAXUK|52=20181130-10:33:30.755|56=MA|98=0|108=90|95=8|96=3.0.0rc4|10=097|8=FIX.4.4|9=62|35=2|34=2|49=EHABAXUK|52=20181130-10:33:31.331|56=MA|7=1|16=0|10=027|8=FIX.4.4|9=53|35=0|34=3|49=EHABAXUK|52=20181130-10:35:01.559|56=MA|10=170|8=FIX.4.4|9=233|35=D|34=4|49=EHABAXUK|52=20181130-10:35:14.373|56=MA|11=JBMM181129-F01|21=1|453=1|448=MMABAXUK|447=C|452=11|55=XS1334778021|48=XS1334778021|22=4|54=2|60=20181129-15:01:19.113|38=50000|40=2|44=90|15=USD|59=6|126=20181207-21:59:00.000|10=072|8=FIX.4.4|9=53|35=0|34=5|49=EHABAXUK|52=20181130-10:36:44.678|56=MA|10=182|8=FIX.4.4|9=53|35=0|34=6|49=EHABAXUK|52=20181130-10:38:14.682|56=MA|10=177|8=FIX.4.4|9=53|35=0|34=7|49=EHABAXUK|52=20181130-10:39:44.755|56=MA|10=183|8=FIX.4.4|9=233|35=D|34=8|49=EHABAXUK|52=20181130-10:41:06.364|56=MA|11=JBMM181130-F05|21=1|453=1|448=MMABAXUK|447=C|452=11|55=XS1336073744|48=XS1336073744|22=4|54=2|60=20181129-15:01:19.113|38=50000|40=2|44=90|15=USD|59=6|126=20181207-21:59:00.000|10=074|8=FIX.4.4|9=234|35=D|34=9|49=EHABAXUK|52=20181130-10:42:17.403|56=MA|11=JBMM181130-F05|21=1|453=1|448=eh_abaxuk|447=C|452=11|55=XS1336073744|48=XS1336073744|22=4|54=2|60=20181129-15:01:19.113|38=50000|40=2|44=90|15=USD|59=6|126=20181207-21:59:00.000|10=155|8=FIX.4.4|9=54|35=0|34=10|49=EHABAXUK|52=20181130-10:43:47.754|56=MA|10=223|8=FIX.4.4|9=54|35=0|34=11|49=EHABAXUK|52=20181130-10:45:18.753|56=MA|10=223|8=FIX.4.4|9=54|35=0|34=12|49=EHABAXUK|52=20181130-10:46:48.753|56=MA|10=228|8=FIX.4.4|9=54|35=0|34=13|49=EHABAXUK|52=20181130-10:48:19.751|56=MA|10=227|8=FIX.4.4|9=54|35=0|34=14|49=EHABAXUK|52=20181130-10:49:49.751|56=MA|10=232|8=FIX.4.4|9=54|35=0|34=15|49=EHABAXUK|52=20181130-10:51:20.751|56=MA|10=215|8=FIX.4.4|9=54|35=0|34=16|49=EHABAXUK|52=20181130-10:52:51.751|56=MA|10=221|8=FIX.4.4|9=54|35=0|34=17|49=EHABAXUK|52=20181130-10:54:22.749|56=MA|10=229|8=FIX.4.4|9=54|35=0|34=18|49=EHABAXUK|52=20181130-10:55:53.750|56=MA|10=227|8=FIX.4.4|9=54|35=0|34=19|49=EHABAXUK|52=20181130-10:57:24.748|56=MA|10=235|8=FIX.4.4|9=54|35=0|34=20|49=EHABAXUK|52=20181130-10:58:55.747|56=MA|10=231|8=FIX.4.4|9=54|35=0|34=21|49=EHABAXUK|52=20181130-11:00:25.747|56=MA|10=217|8=FIX.4.4|9=54|35=0|34=22|49=EHABAXUK|52=20181130-11:01:55.747|56=MA|10=222|8=FIX.4.4|9=54|35=0|34=23|49=EHABAXUK|52=20181130-11:03:26.746|56=MA|10=222|8=FIX.4.4|9=54|35=0|34=24|49=EHABAXUK|52=20181130-11:04:57.745|56=MA|10=227|8=FIX.4.4|9=54|35=0|34=25|49=EHABAXUK|52=20181130-11:06:27.745|56=MA|10=227|8=FIX.4.4|9=54|35=0|34=26|49=EHABAXUK|52=20181130-11:07:58.744|56=MA|10=232|8=FIX.4.4|9=54|35=0|34=27|49=EHABAXUK|52=20181130-11:09:28.744|56=MA|10=232|8=FIX.4.4|9=54|35=0|34=28|49=EHABAXUK|52=20181130-11:10:59.743|56=MA|10=228|8=FIX.4.4|9=54|35=0|34=29|49=EHABAXUK|52=20181130-11:12:30.742|56=MA|10=219|8=FIX.4.4|9=54|35=0|34=30|49=EHABAXUK|52=20181130-11:14:00.742|56=MA|10=210|8=FIX.4.4|9=54|35=0|34=31|49=EHABAXUK|52=20181130-11:15:31.742|56=MA|10=216|8=FIX.4.4|9=54|35=0|34=32|49=EHABAXUK|52=20181130-11:17:01.743|56=MA|10=217|8=FIX.4.4|9=54|35=0|34=33|49=EHABAXUK|52=20181130-11:18:32.742|56=MA|10=222|8=FIX.4.4|9=54|35=0|34=34|49=EHABAXUK|52=20181130-11:20:03.742|56=MA|10=214|8=FIX.4.4|9=54|35=0|34=35|49=EHABAXUK|52=20181130-11:21:34.741|56=MA|10=219|8=FIX.4.4|9=54|35=0|34=36|49=EHABAXUK|52=20181130-11:23:04.741|56=MA|10=219|8=FIX.4.4|9=54|35=0|34=37|49=EHABAXUK|52=20181130-11:24:35.741|56=MA|10=225|8=FIX.4.4|9=54|35=0|34=38|49=EHABAXUK|52=20181130-11:26:06.739|56=MA|10=233|8=FIX.4.4|9=54|35=0|34=39|49=EHABAXUK|52=20181130-11:27:36.739|56=MA|10=238|8=FIX.4.4|9=54|35=0|34=40|49=EHABAXUK|52=20181130-11:29:06.739|56=MA|10=229|8=FIX.4.4|9=54|35=0|34=41|49=EHABAXUK|52=20181130-11:30:37.738|56=MA|10=225|8=FIX.4.4|9=54|35=0|34=42|49=EHABAXUK|52=20181130-11:32:08.738|56=MA|10=226|8=FIX.4.4|9=54|35=0|34=43|49=EHABAXUK|52=20181130-11:33:39.737|56=MA|10=231|8=FIX.4.4|9=54|35=0|34=44|49=EHABAXUK|52=20181130-11:35:10.736|56=MA|10=222|8=FIX.4.4|9=54|35=0|34=45|49=EHABAXUK|52=20181130-11:36:40.737|56=MA|10=228|8=FIX.4.4|9=54|35=0|34=46|49=EHABAXUK|52=20181130-11:38:11.736|56=MA|10=228|8=FIX.4.4|9=54|35=0|34=47|49=EHABAXUK|52=20181130-11:39:42.735|56=MA|10=233|8=FIX.4.4|9=54|35=0|34=48|49=EHABAXUK|52=20181130-11:41:12.735|56=MA|10=224|8=FIX.4.4|9=54|35=0|34=49|49=EHABAXUK|52=20181130-11:42:43.734|56=MA|10=229|8=FIX.4.4|9=54|35=0|34=50|49=EHABAXUK|52=20181130-11:44:14.732|56=MA|10=219|8=FIX.4.4|9=54|35=0|34=51|49=EHABAXUK|52=20181130-11:45:44.733|56=MA|10=225|8=FIX.4.4|9=54|35=0|34=52|49=EHABAXUK|52=20181130-11:47:15.731|56=MA|10=224|8=FIX.4.4|9=54|35=0|34=53|49=EHABAXUK|52=20181130-11:48:45.731|56=MA|10=229|8=FIX.4.4|9=54|35=0|34=54|49=EHABAXUK|52=20181130-11:50:16.730|56=MA|10=220|8=FIX.4.4|9=54|35=0|34=55|49=EHABAXUK|52=20181130-11:51:47.728|56=MA|10=233|8=FIX.4.4|9=54|35=0|34=56|49=EHABAXUK|52=20181130-11:53:18.727|56=MA|10=233|8=FIX.4.4|9=54|35=0|34=57|49=EHABAXUK|52=20181130-11:54:49.726|56=MA|10=238|8=FIX.4.4|9=54|35=0|34=58|49=EHABAXUK|52=20181130-11:56:19.726|56=MA|10=238|8=FIX.4.4|9=54|35=0|34=59|49=EHABAXUK|52=20181130-11:57:50.725|56=MA|10=234|8=FIX.4.4|9=54|35=0|34=60|49=EHABAXUK|52=20181130-11:59:21.722|56=MA|10=223|8=FIX.4.4|9=54|35=0|34=61|49=EHABAXUK|52=20181130-12:00:51.722|56=MA|10=214|8=FIX.4.4|9=54|35=0|34=62|49=EHABAXUK|52=20181130-12:02:22.720|56=MA|10=213|8=FIX.4.4|9=54|35=0|34=63|49=EHABAXUK|52=20181130-12:03:52.720|56=MA|10=218|8=FIX.4.4|9=54|35=0|34=64|49=EHABAXUK|52=20181130-12:05:23.718|56=MA|10=226|8=FIX.4.4|9=54|35=0|34=65|49=EHABAXUK|52=20181130-12:06:54.717|56=MA|10=231|8=FIX.4.4|9=54|35=0|34=66|49=EHABAXUK|52=20181130-12:08:25.716|56=MA|10=231|8=FIX.4.4|9=54|35=0|34=67|49=EHABAXUK|52=20181130-12:09:56.715|56=MA|10=236|8=FIX.4.4|9=54|35=0|34=68|49=EHABAXUK|52=20181130-12:11:27.714|56=MA|10=227|8=FIX.4.4|9=54|35=0|34=69|49=EHABAXUK|52=20181130-12:12:58.712|56=MA|10=231|8=FIX.4.4|9=54|35=0|34=70|49=EHABAXUK|52=20181130-12:14:29.711|56=MA|10=222|8=FIX.4.4|9=54|35=0|34=71|49=EHABAXUK|52=20181130-12:16:00.710|56=MA|10=213|8=FIX.4.4|9=54|35=0|34=72|49=EHABAXUK|52=20181130-12:17:31.709|56=MA|10=227|8=FIX.4.4|9=54|35=0|34=73|49=EHABAXUK|52=20181130-12:19:02.707|56=MA|10=226|8=FIX.4.4|9=54|35=0|34=74|49=EHABAXUK|52=20181130-12:20:32.707|56=MA|10=222|8=FIX.4.4|9=54|35=0|34=75|49=EHABAXUK|52=20181130-12:22:03.707|56=MA|10=223|8=FIX.4.4|9=54|35=0|34=76|49=EHABAXUK|52=20181130-12:23:34.705|56=MA|10=227|8=FIX.4.4|9=54|35=0|34=77|49=EHABAXUK|52=20181130-12:25:05.703|56=MA|10=226|8=FIX.4.4|9=54|35=0|34=78|49=EHABAXUK|52=20181130-12:26:36.702|56=MA|10=231|8=FIX.4.4|9=54|35=0|34=79|49=EHABAXUK|52=20181130-12:28:07.702|56=MA|10=232|8=FIX.4.4|9=54|35=0|34=80|49=EHABAXUK|52=20181130-12:29:38.700|56=MA|10=227|8=FIX.4.4|9=54|35=0|34=81|49=EHABAXUK|52=20181130-12:31:09.698|56=MA|10=235|8=FIX.4.4|9=54|35=0|34=82|49=EHABAXUK|52=20181130-12:32:39.698|56=MA|10=240|8=FIX.4.4|9=54|35=0|34=83|49=EHABAXUK|52=20181130-12:34:10.697|56=MA|10=231|8=FIX.4.4|9=54|35=0|34=84|49=EHABAXUK|52=20181130-12:35:41.697|56=MA|10=237|8=FIX.4.4|9=54|35=0|34=85|49=EHABAXUK|52=20181130-12:37:11.697|56=MA|10=237|8=FIX.4.4|9=54|35=0|34=86|49=EHABAXUK|52=20181130-12:38:41.697|56=MA|10=242|8=FIX.4.4|9=54|35=0|34=87|49=EHABAXUK|52=20181130-12:40:12.696|56=MA|10=233|8=FIX.4.4|9=54|35=0|34=88|49=EHABAXUK|52=20181130-12:41:42.696|56=MA|10=238|8=FIX.4.4|9=54|35=0|34=89|49=EHABAXUK|52=20181130-12:43:13.694|56=MA|10=237|8=FIX.4.4|9=54|35=0|34=90|49=EHABAXUK|52=20181130-12:44:44.693|56=MA|10=233|8=FIX.4.4|9=54|35=0|34=91|49=EHABAXUK|52=20181130-12:46:14.693|56=MA|10=233|8=FIX.4.4|9=54|35=0|34=92|49=EHABAXUK|52=20181130-12:47:45.693|56=MA|10=239|8=FIX.4.4|9=54|35=0|34=93|49=EHABAXUK|52=20181130-12:49:15.693|56=MA|10=239|8=FIX.4.4|9=54|35=0|34=94|49=EHABAXUK|52=20181130-12:50:45.693|56=MA|10=235|8=FIX.4.4|9=54|35=0|34=95|49=EHABAXUK|52=20181130-12:52:16.693|56=MA|10=236|8=FIX.4.4|9=54|35=0|34=96|49=EHABAXUK|52=20181130-12:53:47.691|56=MA|10=240|8=FIX.4.4|9=54|35=0|34=97|49=EHABAXUK|52=20181130-12:55:17.691|56=MA|10=240|8=FIX.4.4|9=54|35=0|34=98|49=EHABAXUK|52=20181130-12:56:47.691|56=MA|10=245|8=FIX.4.4|9=54|35=0|34=99|49=EHABAXUK|52=20181130-12:58:18.690|56=MA|10=245|8=FIX.4.4|9=55|35=0|34=100|49=EHABAXUK|52=20181130-12:59:48.690|56=MA|10=025|8=FIX.4.4|9=55|35=0|34=101|49=EHABAXUK|52=20181130-13:01:19.689|56=MA|10=020|8=FIX.4.4|9=55|35=0|34=102|49=EHABAXUK|52=20181130-13:02:49.689|56=MA|10=025|8=FIX.4.4|9=55|35=0|34=103|49=EHABAXUK|52=20181130-13:04:20.688|56=MA|10=016|8=FIX.4.4|9=55|35=0|34=104|49=EHABAXUK|52=20181130-13:05:50.688|56=MA|10=021|8=FIX.4.4|9=55|35=0|34=105|49=EHABAXUK|52=20181130-13:07:21.688|56=MA|10=022|8=FIX.4.4|9=55|35=0|34=106|49=EHABAXUK|52=20181130-13:08:52.686|56=MA|10=026|8=FIX.4.4|9=55|35=0|34=107|49=EHABAXUK|52=20181130-13:10:22.686|56=MA|10=017|8=FIX.4.4|9=55|35=0|34=108|49=EHABAXUK|52=20181130-13:11:52.687|56=MA|10=023|8=FIX.4.4|9=55|35=0|34=109|49=EHABAXUK|52=20181130-13:13:23.685|56=MA|10=022|8=FIX.4.4|9=55|35=0|34=110|49=EHABAXUK|52=20181130-13:14:54.684|56=MA|10=018|8=FIX.4.4|9=55|35=0|34=111|49=EHABAXUK|52=20181130-13:16:24.685|56=MA|10=019|8=FIX.4.4|9=55|35=0|34=112|49=EHABAXUK|52=20181130-13:17:55.684|56=MA|10=024|8=FIX.4.4|9=55|35=0|34=113|49=EHABAXUK|52=20181130-13:19:26.683|56=MA|10=024|8=FIX.4.4|9=55|35=0|34=114|49=EHABAXUK|52=20181130-13:20:57.682|56=MA|10=020|8=FIX.4.4|9=55|35=0|34=115|49=EHABAXUK|52=20181130-13:22:28.681|56=MA|10=020|8=FIX.4.4|9=55|35=0|34=116|49=EHABAXUK|52=20181130-13:23:58.681|56=MA|10=025|8=FIX.4.4|9=55|35=0|34=117|49=EHABAXUK|52=20181130-13:25:29.680|56=MA|10=025|8=FIX.4.4|9=55|35=0|34=118|49=EHABAXUK|52=20181130-13:26:59.680|56=MA|10=030|8=FIX.4.4|9=55|35=0|34=119|49=EHABAXUK|52=20181130-13:28:30.680|56=MA|10=022|8=FIX.4.4|9=55|35=0|34=120|49=EHABAXUK|52=20181130-13:30:00.680|56=MA|10=004|8=FIX.4.4|9=55|35=0|34=121|49=EHABAXUK|52=20181130-13:31:31.678|56=MA|10=017|8=FIX.4.4|9=55|35=0|34=122|49=EHABAXUK|52=20181130-13:33:01.679|56=MA|10=018|8=FIX.4.4|9=55|35=0|34=123|49=EHABAXUK|52=20181130-13:34:31.680|56=MA|10=015|8=FIX.4.4|9=55|35=0|34=124|49=EHABAXUK|52=20181130-13:36:01.680|56=MA|10=015|8=FIX.4.4|9=55|35=0|34=125|49=EHABAXUK|52=20181130-13:37:32.680|56=MA|10=021|8=FIX.4.4|9=55|35=0|34=126|49=EHABAXUK|52=20181130-13:39:03.679|56=MA|10=030|8=FIX.4.4|9=55|35=0|34=127|49=EHABAXUK|52=20181130-13:40:34.678|56=MA|10=026|8=FIX.4.4|9=55|35=0|34=128|49=EHABAXUK|52=20181130-13:42:04.678|56=MA|10=026|8=FIX.4.4|9=55|35=0|34=129|49=EHABAXUK|52=20181130-13:43:34.678|56=MA|10=031|8=FIX.4.4|9=55|35=0|34=130|49=EHABAXUK|52=20181130-13:45:04.678|56=MA|10=022|8=FIX.4.4|9=55|35=0|34=131|49=EHABAXUK|52=20181130-13:46:34.680|56=MA|10=020|8=FIX.4.4|9=55|35=0|34=132|49=EHABAXUK|52=20181130-13:48:05.677|56=MA|10=027|8=FIX.4.4|9=55|35=0|34=133|49=EHABAXUK|52=20181130-13:49:35.677|56=MA|10=032|8=FIX.4.4|9=55|35=0|34=134|49=EHABAXUK|52=20181130-13:51:05.677|56=MA|10=023|8=FIX.4.4|9=55|35=0|34=135|49=EHABAXUK|52=20181130-13:52:36.675|56=MA|10=027|8=FIX.4.4|9=55|35=0|34=136|49=EHABAXUK|52=20181130-13:54:06.675|56=MA|10=027|8=FIX.4.4|9=55|35=0|34=137|49=EHABAXUK|52=20181130-13:55:36.675|56=MA|10=032|8=FIX.4.4|9=55|35=0|34=138|49=EHABAXUK|52=20181130-13:57:07.674|56=MA|10=032|8=FIX.4.4|9=55|35=0|34=139|49=EHABAXUK|52=20181130-13:58:37.675|56=MA|10=038|8=FIX.4.4|9=55|35=0|34=140|49=EHABAXUK|52=20181130-14:00:08.674|56=MA|10=015|8=FIX.4.4|9=55|35=0|34=141|49=EHABAXUK|52=20181130-14:01:39.672|56=MA|10=019|8=FIX.4.4|9=55|35=0|34=142|49=EHABAXUK|52=20181130-14:03:09.673|56=MA|10=020|8=FIX.4.4|9=55|35=0|34=143|49=EHABAXUK|52=20181130-14:04:40.672|56=MA|10=016|8=FIX.4.4|9=55|35=0|34=144|49=EHABAXUK|52=20181130-14:06:11.671|56=MA|10=016|8=FIX.4.4|9=55|35=0|34=145|49=EHABAXUK|52=20181130-14:07:42.670|56=MA|10=021|8=FIX.4.4|9=55|35=0|34=146|49=EHABAXUK|52=20181130-14:09:12.670|56=MA|10=021|8=FIX.4.4|9=55|35=0|34=147|49=EHABAXUK|52=20181130-14:10:43.669|56=MA|10=026|8=FIX.4.4|9=55|35=0|34=148|49=EHABAXUK|52=20181130-14:12:13.669|56=MA|10=026|8=FIX.4.4|9=55|35=0|34=149|49=EHABAXUK|52=20181130-14:13:43.669|56=MA|10=031|8=FIX.4.4|9=55|35=0|34=150|49=EHABAXUK|52=20181130-14:15:14.668|56=MA|10=022|8=FIX.4.4|9=55|35=0|34=151|49=EHABAXUK|52=20181130-14:16:45.667|56=MA|10=027|8=FIX.4.4|9=55|35=0|34=152|49=EHABAXUK|52=20181130-14:18:15.667|56=MA|10=027|8=FIX.4.4|9=55|35=0|34=153|49=EHABAXUK|52=20181130-14:19:46.666|56=MA|10=032|8=FIX.4.4|9=55|35=0|34=154|49=EHABAXUK|52=20181130-14:21:17.667|56=MA|10=025|8=FIX.4.4|9=55|35=0|34=155|49=EHABAXUK|52=20181130-14:22:48.665|56=MA|10=029|8=FIX.4.4|9=55|35=0|34=156|49=EHABAXUK|52=20181130-14:24:18.665|56=MA|10=029|8=FIX.4.4|9=55|35=0|34=157|49=EHABAXUK|52=20181130-14:25:49.664|56=MA|10=034|8=FIX.4.4|9=55|35=0|34=158|49=EHABAXUK|52=20181130-14:27:20.664|56=MA|10=026|8=FIX.4.4|9=55|35=0|34=159|49=EHABAXUK|52=20181130-14:28:51.662|56=MA|10=030|8=FIX.4.4|9=55|35=0|34=160|49=EHABAXUK|52=20181130-14:30:21.662|56=MA|10=012|8=FIX.4.4|9=55|35=0|34=161|49=EHABAXUK|52=20181130-14:31:51.662|56=MA|10=017|8=FIX.4.4|9=55|35=0|34=162|49=EHABAXUK|52=20181130-14:33:21.663|56=MA|10=018|8=FIX.4.4|9=55|35=0|34=163|49=EHABAXUK|52=20181130-14:34:52.663|56=MA|10=024|8=FIX.4.4|9=55|35=0|34=164|49=EHABAXUK|52=20181130-14:36:23.663|56=MA|10=025|8=FIX.4.4|9=55|35=0|34=165|49=EHABAXUK|52=20181130-14:37:54.661|56=MA|10=029|8=FIX.4.4|9=55|35=0|34=166|49=EHABAXUK|52=20181130-14:39:24.662|56=MA|10=030|8=FIX.4.4|9=55|35=0|34=167|49=EHABAXUK|52=20181130-14:40:55.660|56=MA|10=025|8=FIX.4.4|9=55|35=0|34=168|49=EHABAXUK|52=20181130-14:42:25.660|56=MA|10=025|8=FIX.4.4|9=55|35=0|34=169|49=EHABAXUK|52=20181130-14:43:56.660|56=MA|10=031|8=FIX.4.4|9=55|35=0|34=170|49=EHABAXUK|52=20181130-14:45:27.659|56=MA|10=031|8=FIX.4.4|9=55|35=0|34=171|49=EHABAXUK|52=20181130-14:46:57.660|56=MA|10=028|8=FIX.4.4|9=55|35=0|34=172|49=EHABAXUK|52=20181130-14:48:28.657|56=MA|10=035|8=FIX.4.4|9=55|35=0|34=173|49=EHABAXUK|52=20181130-14:49:58.658|56=MA|10=041|8=FIX.4.4|9=55|35=0|34=174|49=EHABAXUK|52=20181130-14:51:29.657|56=MA|10=032|8=FIX.4.4|9=55|35=0|34=175|49=EHABAXUK|52=20181130-14:53:00.655|56=MA|10=022|8=FIX.4.4|9=55|35=0|34=176|49=EHABAXUK|52=20181130-14:54:30.655|56=MA|10=027|8=FIX.4.4|9=55|35=0|34=177|49=EHABAXUK|52=20181130-14:56:00.655|56=MA|10=027|8=FIX.4.4|9=55|35=0|34=178|49=EHABAXUK|52=20181130-14:57:31.654|56=MA|10=032|8=FIX.4.4|9=55|35=0|34=179|49=EHABAXUK|52=20181130-14:59:02.653|56=MA|10=032|8=FIX.4.4|9=55|35=0|34=180|49=EHABAXUK|52=20181130-15:00:32.653|56=MA|10=014|8=FIX.4.4|9=55|35=0|34=181|49=EHABAXUK|52=20181130-15:02:03.652|56=MA|10=014|8=FIX.4.4|9=55|35=0|34=182|49=EHABAXUK|52=20181130-15:03:33.653|56=MA|10=020|8=FIX.4.4|9=55|35=0|34=183|49=EHABAXUK|52=20181130-15:05:04.652|56=MA|10=020|8=FIX.4.4|9=55|35=0|34=184|49=EHABAXUK|52=20181130-15:06:35.650|56=MA|10=024|8=FIX.4.4|9=55|35=0|34=185|49=EHABAXUK|52=20181130-15:08:05.650|56=MA|10=024|8=FIX.4.4|9=55|35=0|34=186|49=EHABAXUK|52=20181130-15:09:35.650|56=MA|10=029|8=FIX.4.4|9=55|35=0|34=187|49=EHABAXUK|52=20181130-15:11:06.649|56=MA|10=029|8=FIX.4.4|9=55|35=0|34=188|49=EHABAXUK|52=20181130-15:12:36.649|56=MA|10=034|8=FIX.4.4|9=55|35=0|34=189|49=EHABAXUK|52=20181130-15:14:07.648|56=MA|10=034|8=FIX.4.4|9=55|35=0|34=190|49=EHABAXUK|52=20181130-15:15:37.648|56=MA|10=030|8=FIX.4.4|9=55|35=0|34=191|49=EHABAXUK|52=20181130-15:17:07.648|56=MA|10=030|8=FIX.4.4|9=55|35=0|34=192|49=EHABAXUK|52=20181130-15:18:38.648|56=MA|10=036|8=FIX.4.4|9=55|35=0|34=193|49=EHABAXUK|52=20181130-15:20:09.647|56=MA|10=027|8=FIX.4.4|9=55|35=0|34=194|49=EHABAXUK|52=20181130-15:21:39.647|56=MA|10=032|8=FIX.4.4|9=55|35=0|34=195|49=EHABAXUK|52=20181130-15:23:10.645|56=MA|10=022|8=FIX.4.4|9=55|35=0|34=196|49=EHABAXUK|52=20181130-15:24:40.645|56=MA|10=027|8=FIX.4.4|9=55|35=0|34=197|49=EHABAXUK|52=20181130-15:26:11.644|56=MA|10=027|8=FIX.4.4|9=55|35=0|34=198|49=EHABAXUK|52=20181130-15:27:41.644|56=MA|10=032|8=FIX.4.4|9=55|35=0|34=199|49=EHABAXUK|52=20181130-15:29:12.643|56=MA|10=032|8=FIX.4.4|9=55|35=0|34=200|49=EHABAXUK|52=20181130-15:30:42.643|56=MA|10=010|8=FIX.4.4|9=55|35=0|34=201|49=EHABAXUK|52=20181130-15:32:12.643|56=MA|10=010|8=FIX.4.4|9=55|35=0|34=202|49=EHABAXUK|52=20181130-15:33:42.643|56=MA|10=015|8=FIX.4.4|9=55|35=0|34=203|49=EHABAXUK|52=20181130-15:35:12.643|56=MA|10=015|8=FIX.4.4|9=55|35=0|34=204|49=EHABAXUK|52=20181130-15:36:43.642|56=MA|10=020|8=FIX.4.4|9=55|35=0|34=205|49=EHABAXUK|52=20181130-15:38:13.642|56=MA|10=020|8=FIX.4.4|9=55|35=0|34=206|49=EHABAXUK|52=20181130-15:39:43.642|56=MA|10=025|8=FIX.4.4|9=55|35=0|34=207|49=EHABAXUK|52=20181130-15:41:14.640|56=MA|10=015|8=FIX.4.4|9=55|35=0|34=208|49=EHABAXUK|52=20181130-15:42:45.639|56=MA|10=029|8=FIX.4.4|9=55|35=0|34=209|49=EHABAXUK|52=20181130-15:44:16.638|56=MA|10=029|8=FIX.4.4|9=55|35=0|34=210|49=EHABAXUK|52=20181130-15:45:46.639|56=MA|10=026|8=FIX.4.4|9=55|35=0|34=211|49=EHABAXUK|52=20181130-15:47:17.638|56=MA|10=026|8=FIX.4.4|9=55|35=0|34=212|49=EHABAXUK|52=20181130-15:48:48.637|56=MA|10=031|8=FIX.4.4|9=55|35=0|34=213|49=EHABAXUK|52=20181130-15:50:19.636|56=MA|10=022|8=FIX.4.4|9=55|35=0|34=214|49=EHABAXUK|52=20181130-15:51:49.638|56=MA|10=029|8=FIX.4.4|9=55|35=0|34=215|49=EHABAXUK|52=20181130-15:53:20.635|56=MA|10=018|8=FIX.4.4|9=55|35=0|34=216|49=EHABAXUK|52=20181130-15:54:50.635|56=MA|10=023|8=FIX.4.4|9=55|35=0|34=217|49=EHABAXUK|52=20181130-15:56:21.634|56=MA|10=023|8=FIX.4.4|9=55|35=0|34=218|49=EHABAXUK|52=20181130-15:57:51.634|56=MA|10=028|8=FIX.4.4|9=55|35=0|34=219|49=EHABAXUK|52=20181130-15:59:21.634|56=MA|10=028|8=FIX.4.4|9=55|35=0|34=220|49=EHABAXUK|52=20181130-16:00:52.633|56=MA|10=010|8=FIX.4.4|9=55|35=0|34=221|49=EHABAXUK|52=20181130-16:02:23.632|56=MA|10=010|8=FIX.4.4|9=55|35=0|34=222|49=EHABAXUK|52=20181130-16:03:53.632|56=MA|10=015|8=FIX.4.4|9=55|35=0|34=223|49=EHABAXUK|52=20181130-16:05:24.631|56=MA|10=015|8=FIX.4.4|9=55|35=0|34=224|49=EHABAXUK|52=20181130-16:06:55.630|56=MA|10=020|8=FIX.4.4|9=55|35=0|34=225|49=EHABAXUK|52=20181130-16:08:25.630|56=MA|10=020|8=FIX.4.4|9=55|35=0|34=226|49=EHABAXUK|52=20181130-16:09:55.630|56=MA|10=025|8=FIX.4.4|9=55|35=0|34=227|49=EHABAXUK|52=20181130-16:11:26.629|56=MA|10=025|8=FIX.4.4|9=55|35=0|34=228|49=EHABAXUK|52=20181130-16:12:57.629|56=MA|10=031|8=FIX.4.4|9=55|35=0|34=229|49=EHABAXUK|52=20181130-16:14:28.627|56=MA|10=030|8=FIX.4.4|9=55|35=0|34=230|49=EHABAXUK|52=20181130-16:15:58.627|56=MA|10=026|8=FIX.4.4|9=55|35=0|34=231|49=EHABAXUK|52=20181130-16:17:28.627|56=MA|10=026|8=FIX.4.4|9=55|35=0|34=232|49=EHABAXUK|52=20181130-16:18:58.627|56=MA|10=031|8=FIX.4.4|9=55|35=0|34=233|49=EHABAXUK|52=20181130-16:20:28.627|56=MA|10=022|8=FIX.4.4|9=55|35=0|34=234|49=EHABAXUK|52=20181130-16:21:58.627|56=MA|10=027|8=FIX.4.4|9=55|35=0|34=235|49=EHABAXUK|52=20181130-16:23:28.627|56=MA|10=027|8=FIX.4.4|9=55|35=0|34=236|49=EHABAXUK|52=20181130-16:24:59.627|56=MA|10=033|8=FIX.4.4|9=55|35=0|34=237|49=EHABAXUK|52=20181130-16:26:30.626|56=MA|10=024|8=FIX.4.4|9=55|35=0|34=238|49=EHABAXUK|52=20181130-16:28:01.625|56=MA|10=024|8=FIX.4.4|9=55|35=0|34=239|49=EHABAXUK|52=20181130-16:29:32.624|56=MA|10=029|8=FIX.4.4|9=55|35=0|34=240|49=EHABAXUK|52=20181130-16:31:03.623|56=MA|10=011|8=FIX.4.4|9=55|35=0|34=241|49=EHABAXUK|52=20181130-16:32:34.623|56=MA|10=017|8=FIX.4.4|9=55|35=0|34=242|49=EHABAXUK|52=20181130-16:34:05.622|56=MA|10=017|8=FIX.4.4|9=55|35=0|34=243|49=EHABAXUK|52=20181130-16:35:35.622|56=MA|10=022|8=FIX.4.4|9=55|35=0|34=244|49=EHABAXUK|52=20181130-16:37:05.622|56=MA|10=022|8=FIX.4.4|9=55|35=0|34=245|49=EHABAXUK|52=20181130-16:38:36.622|56=MA|10=028|8=FIX.4.4|9=55|35=0|34=246|49=EHABAXUK|52=20181130-16:40:07.621|56=MA|10=019|8=FIX.4.4|9=55|35=0|34=247|49=EHABAXUK|52=20181130-16:41:38.619|56=MA|10=032|8=FIX.4.4|9=55|35=0|34=248|49=EHABAXUK|52=20181130-16:43:08.619|56=MA|10=032|8=FIX.4.4|9=55|35=0|34=249|49=EHABAXUK|52=20181130-16:44:38.620|56=MA|10=029|8=FIX.4.4|9=55|35=0|34=250|49=EHABAXUK|52=20181130-16:46:09.617|56=MA|10=027|8=FIX.4.4|9=55|35=0|34=251|49=EHABAXUK|52=20181130-16:47:39.617|56=MA|10=032|8=FIX.4.4|9=55|35=0|34=252|49=EHABAXUK|52=20181130-16:49:09.617|56=MA|10=032|8=FIX.4.4|9=55|35=0|34=253|49=EHABAXUK|52=20181130-16:50:40.616|56=MA|10=019|8=FIX.4.4|9=55|35=0|34=254|49=EHABAXUK|52=20181130-16:52:10.616|56=MA|10=019|8=FIX.4.4|9=55|35=0|34=255|49=EHABAXUK|52=20181130-16:53:40.617|56=MA|10=025|8=FIX.4.4|9=55|35=0|34=256|49=EHABAXUK|52=20181130-16:55:11.614|56=MA|10=023|8=FIX.4.4|9=55|35=0|34=257|49=EHABAXUK|52=20181130-16:56:41.614|56=MA|10=028|8=FIX.4.4|9=55|35=0|34=258|49=EHABAXUK|52=20181130-16:58:11.615|56=MA|10=029|8=FIX.4.4|9=55|35=0|34=259|49=EHABAXUK|52=20181130-16:59:42.613|56=MA|10=033|8=FIX.4.4|9=55|35=0|34=260|49=EHABAXUK|52=20181130-17:01:12.613|56=MA|10=010|8=FIX.4.4|9=55|35=0|34=261|49=EHABAXUK|52=20181130-17:02:42.638|56=MA|10=022|8=FIX.4.4|9=55|35=0|34=262|49=EHABAXUK|52=20181130-17:04:13.526|56=MA|10=019|8=FIX.4.4|9=55|35=0|34=263|49=EHABAXUK|52=20181130-17:05:43.611|56=MA|10=019|8=FIX.4.4|9=55|35=0|34=264|49=EHABAXUK|52=20181130-17:07:14.529|56=MA|10=028|8=FIX.4.4|9=55|35=0|34=265|49=EHABAXUK|52=20181130-17:08:44.610|56=MA|10=024|8=FIX.4.4|9=55|35=0|34=266|49=EHABAXUK|52=20181130-17:10:14.610|56=MA|10=015|8=FIX.4.4|9=55|35=0|34=267|49=EHABAXUK|52=20181130-17:11:44.610|56=MA|10=020|8=FIX.4.4|9=55|35=0|34=268|49=EHABAXUK|52=20181130-17:13:15.610|56=MA|10=021|8=FIX.4.4|9=55|35=0|34=269|49=EHABAXUK|52=20181130-17:14:46.609|56=MA|10=035|8=FIX.4.4|9=55|35=0|34=270|49=EHABAXUK|52=20181130-17:16:16.609|56=MA|10=026|8=FIX.4.4|9=55|35=0|34=271|49=EHABAXUK|52=20181130-17:17:47.525|56=MA|10=029|8=FIX.4.4|9=55|35=0|34=272|49=EHABAXUK|52=20181130-17:19:17.607|56=MA|10=030|8=FIX.4.4|9=55|35=0|34=273|49=EHABAXUK|52=20181130-17:20:47.607|56=MA|10=026|8=FIX.4.4|9=55|35=0|34=274|49=EHABAXUK|52=20181130-17:22:18.606|56=MA|10=026|8=FIX.4.4|9=55|35=0|34=275|49=EHABAXUK|52=20181130-17:23:48.606|56=MA|10=031|8=FIX.4.4|9=55|35=0|34=276|49=EHABAXUK|52=20181130-17:25:18.606|56=MA|10=031|8=FIX.4.4|9=55|35=0|34=277|49=EHABAXUK|52=20181130-17:26:49.605|56=MA|10=036|8=FIX.4.4|9=55|35=0|34=278|49=EHABAXUK|52=20181130-17:28:19.605|56=MA|10=036|8=FIX.4.4|9=55|35=0|34=279|49=EHABAXUK|52=20181130-17:29:50.604|56=MA|10=032|8=FIX.4.4|9=55|35=0|34=280|49=EHABAXUK|52=20181130-17:31:20.639|56=MA|10=022|8=FIX.4.4|9=55|35=0|34=281|49=EHABAXUK|52=20181130-17:32:51.603|56=MA|10=019|8=FIX.4.4|9=55|35=0|34=282|49=EHABAXUK|52=20181130-17:34:21.647|56=MA|10=027|8=FIX.4.4|9=55|35=0|34=283|49=EHABAXUK|52=20181130-17:35:52.564|56=MA|10=031|8=FIX.4.4|9=55|35=0|34=284|49=EHABAXUK|52=20181130-17:37:22.601|56=MA|10=023|8=FIX.4.4|9=55|35=0|34=285|49=EHABAXUK|52=20181130-17:38:52.601|56=MA|10=028|8=FIX.4.4|9=55|35=0|34=286|49=EHABAXUK|52=20181130-17:40:23.600|56=MA|10=019|8=FIX.4.4|9=55|35=0|34=287|49=EHABAXUK|52=20181130-17:41:53.600|56=MA|10=024|8=FIX.4.4|9=55|35=0|34=288|49=EHABAXUK|52=20181130-17:43:24.599|56=MA|10=042|8=FIX.4.4|9=55|35=0|34=289|49=EHABAXUK|52=20181130-17:44:54.599|56=MA|10=047|8=FIX.4.4|9=55|35=0|34=290|49=EHABAXUK|52=20181130-17:46:25.528|56=MA|10=031|8=FIX.4.4|9=55|35=0|34=291|49=EHABAXUK|52=20181130-17:47:55.597|56=MA|10=042|8=FIX.4.4|9=55|35=0|34=292|49=EHABAXUK|52=20181130-17:49:25.643|56=MA|10=034|8=FIX.4.4|9=55|35=0|34=293|49=EHABAXUK|52=20181130-17:50:56.597|56=MA|10=039|8=FIX.4.4|9=55|35=0|34=294|49=EHABAXUK|52=20181130-17:52:27.524|56=MA|10=030|8=FIX.4.4|9=55|35=0|34=295|49=EHABAXUK|52=20181130-17:53:57.595|56=MA|10=043|8=FIX.4.4|9=55|35=0|34=296|49=EHABAXUK|52=20181130-17:55:27.595|56=MA|10=043|8=FIX.4.4|9=55|35=0|34=297|49=EHABAXUK|52=20181130-17:56:58.594|56=MA|10=048|8=FIX.4.4|9=55|35=0|34=298|49=EHABAXUK|52=20181130-17:58:28.594|56=MA|10=048|8=FIX.4.4|9=55|35=0|34=299|49=EHABAXUK|52=20181130-17:59:59.592|56=MA|10=052|8=FIX.4.4|9=55|35=0|34=300|49=EHABAXUK|52=20181130-18:01:29.593|56=MA|10=021|8=FIX.4.4|9=55|35=0|34=301|49=EHABAXUK|52=20181130-18:02:59.593|56=MA|10=026|8=FIX.4.4|9=55|35=0|34=302|49=EHABAXUK|52=20181130-18:04:29.593|56=MA|10=026|8=FIX.4.4|9=55|35=0|34=303|49=EHABAXUK|52=20181130-18:05:59.593|56=MA|10=031|8=FIX.4.4|9=55|35=0|34=304|49=EHABAXUK|52=20181130-18:07:30.592|56=MA|10=022|8=FIX.4.4|9=55|35=0|34=305|49=EHABAXUK|52=20181130-18:09:01.591|56=MA|10=022|8=FIX.4.4|9=55|35=0|34=306|49=EHABAXUK|52=20181130-18:10:31.591|56=MA|10=018|8=FIX.4.4|9=55|35=0|34=307|49=EHABAXUK|52=20181130-18:12:02.590|56=MA|10=018|8=FIX.4.4|9=55|35=0|34=308|49=EHABAXUK|52=20181130-18:13:32.590|56=MA|10=023|8=FIX.4.4|9=55|35=0|34=309|49=EHABAXUK|52=20181130-18:15:02.591|56=MA|10=024|8=FIX.4.4|9=55|35=0|34=310|49=EHABAXUK|52=20181130-18:16:33.589|56=MA|10=028|8=FIX.4.4|9=55|35=0|34=311|49=EHABAXUK|52=20181130-18:18:04.588|56=MA|10=028|8=FIX.4.4|9=55|35=0|34=312|49=EHABAXUK|52=20181130-18:19:35.587|56=MA|10=033|8=FIX.4.4|9=55|35=0|34=313|49=EHABAXUK|52=20181130-18:21:05.587|56=MA|10=024|8=FIX.4.4|9=55|35=0|34=314|49=EHABAXUK|52=20181130-18:22:35.587|56=MA|10=029|8=FIX.4.4|9=55|35=0|34=315|49=EHABAXUK|52=20181130-18:24:06.586|56=MA|10=029|8=FIX.4.4|9=55|35=0|34=316|49=EHABAXUK|52=20181130-18:25:36.586|56=MA|10=034|8=FIX.4.4|9=55|35=0|34=317|49=EHABAXUK|52=20181130-18:27:07.524|56=MA|10=027|8=FIX.4.4|9=55|35=0|34=318|49=EHABAXUK|52=20181130-18:28:37.584|56=MA|10=038|8=FIX.4.4|9=55|35=0|34=319|49=EHABAXUK|52=20181130-18:30:07.584|56=MA|10=029|8=FIX.4.4|9=55|35=0|34=320|49=EHABAXUK|52=20181130-18:31:38.583|56=MA|10=025|8=FIX.4.4|9=55|35=0|34=321|49=EHABAXUK|52=20181130-18:33:09.525|56=MA|10=022|8=FIX.4.4|9=55|35=0|34=322|49=EHABAXUK|52=20181130-18:34:39.525|56=MA|10=027|8=FIX.4.4|9=55|35=0|34=323|49=EHABAXUK|52=20181130-18:36:09.525|56=MA|10=027|8=FIX.4.4|9=55|35=0|34=324|49=EHABAXUK|52=20181130-18:37:39.525|56=MA|10=032|8=FIX.4.4|9=55|35=0|34=325|49=EHABAXUK|52=20181130-18:39:09.526|56=MA|10=033|8=FIX.4.4|9=55|35=0|34=326|49=EHABAXUK|52=20181130-18:40:39.580|56=MA|10=029|8=FIX.4.4|9=55|35=0|34=327|49=EHABAXUK|52=20181130-18:42:09.581|56=MA|10=030|8=FIX.4.4|9=55|35=0|34=328|49=EHABAXUK|52=20181130-18:43:40.525|56=MA|10=025|8=FIX.4.4|9=55|35=0|34=329|49=EHABAXUK|52=20181130-18:45:10.579|56=MA|10=034|8=FIX.4.4|9=55|35=0|34=330|49=EHABAXUK|52=20181130-18:46:40.579|56=MA|10=030|8=FIX.4.4|9=55|35=0|34=331|49=EHABAXUK|52=20181130-18:48:11.578|56=MA|10=030|8=FIX.4.4|9=55|35=0|34=332|49=EHABAXUK|52=20181130-18:49:42.577|56=MA|10=035|8=FIX.4.4|9=55|35=0|34=333|49=EHABAXUK|52=20181130-18:51:13.577|56=MA|10=027|8=FIX.4.4|9=55|35=0|34=334|49=EHABAXUK|52=20181130-18:52:44.577|56=MA|10=033|8=FIX.4.4|9=55|35=0|34=335|49=EHABAXUK|52=20181130-18:54:15.576|56=MA|10=033|8=FIX.4.4|9=55|35=0|34=336|49=EHABAXUK|52=20181130-18:55:45.576|56=MA|10=038|8=FIX.4.4|9=55|35=0|34=337|49=EHABAXUK|52=20181130-18:57:16.575|56=MA|10=038|8=FIX.4.4|9=55|35=0|34=338|49=EHABAXUK|52=20181130-18:58:46.575|56=MA|10=043|8=FIX.4.4|9=55|35=0|34=339|49=EHABAXUK|52=20181130-19:00:16.575|56=MA|10=029|8=FIX.4.4|9=55|35=0|34=340|49=EHABAXUK|52=20181130-19:01:46.575|56=MA|10=025|8=FIX.4.4|9=55|35=0|34=341|49=EHABAXUK|52=20181130-19:03:17.573|56=MA|10=024|8=FIX.4.4|9=55|35=0|34=342|49=EHABAXUK|52=20181130-19:04:47.573|56=MA|10=029|8=FIX.4.4|9=55|35=0|34=343|49=EHABAXUK|52=20181130-19:06:17.573|56=MA|10=029|8=FIX.4.4|9=55|35=0|34=344|49=EHABAXUK|52=20181130-19:07:48.572|56=MA|10=034|8=FIX.4.4|9=55|35=0|34=345|49=EHABAXUK|52=20181130-19:09:18.572|56=MA|10=034|8=FIX.4.4|9=55|35=0|34=346|49=EHABAXUK|52=20181130-19:10:48.572|56=MA|10=030|8=FIX.4.4|9=55|35=0|34=347|49=EHABAXUK|52=20181130-19:12:19.570|56=MA|10=029|8=FIX.4.4|9=55|35=0|34=348|49=EHABAXUK|52=20181130-19:13:49.570|56=MA|10=034|8=FIX.4.4|9=55|35=0|34=349|49=EHABAXUK|52=20181130-19:15:20.570|56=MA|10=026|8=FIX.4.4|9=55|35=0|34=350|49=EHABAXUK|52=20181130-19:16:50.570|56=MA|10=022|8=FIX.4.4|9=55|35=0|34=351|49=EHABAXUK|52=20181130-19:18:21.568|56=MA|10=030|8=FIX.4.4|9=55|35=0|34=352|49=EHABAXUK|52=20181130-19:19:52.567|56=MA|10=035|8=FIX.4.4|9=55|35=0|34=353|49=EHABAXUK|52=20181130-19:21:22.567|56=MA|10=026|8=FIX.4.4|9=55|35=0|34=354|49=EHABAXUK|52=20181130-19:22:53.566|56=MA|10=031|8=FIX.4.4|9=55|35=0|34=355|49=EHABAXUK|52=20181130-19:24:24.566|56=MA|10=032|8=FIX.4.4|9=55|35=0|34=356|49=EHABAXUK|52=20181130-19:25:55.565|56=MA|10=037|8=FIX.4.4|9=55|35=0|34=357|49=EHABAXUK|52=20181130-19:27:25.565|56=MA|10=037|8=FIX.4.4|9=55|35=0|34=358|49=EHABAXUK|52=20181130-19:28:56.564|56=MA|10=042|8=FIX.4.4|9=55|35=0|34=359|49=EHABAXUK|52=20181130-19:30:26.564|56=MA|10=033|8=FIX.4.4|9=55|35=0|34=360|49=EHABAXUK|52=20181130-19:31:57.563|56=MA|10=029|8=FIX.4.4|9=55|35=0|34=361|49=EHABAXUK|52=20181130-19:33:28.564|56=MA|10=031|8=FIX.4.4|9=55|35=0|34=362|49=EHABAXUK|52=20181130-19:34:59.562|56=MA|10=035|8=FIX.4.4|9=55|35=0|34=363|49=EHABAXUK|52=20181130-19:36:30.561|56=MA|10=026|8=FIX.4.4|9=55|35=0|34=364|49=EHABAXUK|52=20181130-19:38:00.561|56=MA|10=026|8=FIX.4.4|9=55|35=0|34=365|49=EHABAXUK|52=20181130-19:39:30.561|56=MA|10=031|8=FIX.4.4|9=55|35=0|34=366|49=EHABAXUK|52=20181130-19:41:01.560|56=MA|10=022|8=FIX.4.4|9=55|35=0|34=367|49=EHABAXUK|52=20181130-19:42:32.559|56=MA|10=036|8=FIX.4.4|9=55|35=0|34=368|49=EHABAXUK|52=20181130-19:44:02.559|56=MA|10=036|8=FIX.4.4|9=55|35=0|34=369|49=EHABAXUK|52=20181130-19:45:33.558|56=MA|10=041|8=FIX.4.4|9=55|35=0|34=370|49=EHABAXUK|52=20181130-19:47:04.558|56=MA|10=033|8=FIX.4.4|9=55|35=0|34=371|49=EHABAXUK|52=20181130-19:48:34.558|56=MA|10=038|8=FIX.4.4|9=55|35=0|34=372|49=EHABAXUK|52=20181130-19:50:05.558|56=MA|10=030|8=FIX.4.4|9=55|35=0|34=373|49=EHABAXUK|52=20181130-19:51:35.558|56=MA|10=035|8=FIX.4.4|9=55|35=0|34=374|49=EHABAXUK|52=20181130-19:53:06.557|56=MA|10=035|8=FIX.4.4|9=55|35=0|34=375|49=EHABAXUK|52=20181130-19:54:37.556|56=MA|10=040|8=FIX.4.4|9=55|35=0|34=376|49=EHABAXUK|52=20181130-19:56:07.556|56=MA|10=040|8=FIX.4.4|9=55|35=0|34=377|49=EHABAXUK|52=20181130-19:57:38.557|56=MA|10=047|8=FIX.4.4|9=55|35=0|34=378|49=EHABAXUK|52=20181130-19:59:09.556|56=MA|10=047|8=FIX.4.4|9=55|35=0|34=379|49=EHABAXUK|52=20181130-20:00:40.554|56=MA|10=019|8=FIX.4.4|9=55|35=0|34=380|49=EHABAXUK|52=20181130-20:02:11.553|56=MA|10=010|8=FIX.4.4|9=55|35=0|34=381|49=EHABAXUK|52=20181130-20:03:41.553|56=MA|10=015|8=FIX.4.4|9=55|35=0|34=382|49=EHABAXUK|52=20181130-20:05:11.553|56=MA|10=015|8=FIX.4.4|9=55|35=0|34=383|49=EHABAXUK|52=20181130-20:06:42.552|56=MA|10=020|8=FIX.4.4|9=55|35=0|34=384|49=EHABAXUK|52=20181130-20:08:12.553|56=MA|10=021|8=FIX.4.4|9=55|35=0|34=385|49=EHABAXUK|52=20181130-20:09:43.551|56=MA|10=025|8=FIX.4.4|9=55|35=0|34=386|49=EHABAXUK|52=20181130-20:11:14.551|56=MA|10=017|8=FIX.4.4|9=55|35=0|34=387|49=EHABAXUK|52=20181130-20:12:45.550|56=MA|10=022|8=FIX.4.4|9=55|35=0|34=388|49=EHABAXUK|52=20181130-20:14:16.550|56=MA|10=023|8=FIX.4.4|9=55|35=0|34=389|49=EHABAXUK|52=20181130-20:15:47.549|56=MA|10=037|8=FIX.4.4|9=55|35=0|34=390|49=EHABAXUK|52=20181130-20:17:18.548|56=MA|10=028|8=FIX.4.4|9=55|35=0|34=391|49=EHABAXUK|52=20181130-20:18:49.547|56=MA|10=033|8=FIX.4.4|9=55|35=0|34=392|49=EHABAXUK|52=20181130-20:20:19.548|56=MA|10=025|8=FIX.4.4|9=55|35=0|34=393|49=EHABAXUK|52=20181130-20:21:49.548|56=MA|10=030|8=FIX.4.4|9=55|35=0|34=394|49=EHABAXUK|52=20181130-20:23:20.545|56=MA|10=019|8=FIX.4.4|9=55|35=0|34=395|49=EHABAXUK|52=20181130-20:24:50.546|56=MA|10=025|8=FIX.4.4|9=55|35=0|34=396|49=EHABAXUK|52=20181130-20:26:20.546|56=MA|10=025|8=FIX.4.4|9=55|35=0|34=397|49=EHABAXUK|52=20181130-20:27:51.544|56=MA|10=029|8=FIX.4.4|9=55|35=0|34=398|49=EHABAXUK|52=20181130-20:29:21.544|56=MA|10=029|8=FIX.4.4|9=55|35=0|34=399|49=EHABAXUK|52=20181130-20:30:52.544|56=MA|10=026|8=FIX.4.4|9=55|35=0|34=400|49=EHABAXUK|52=20181130-20:32:23.543|56=MA|10=008|8=FIX.4.4|9=55|35=0|34=401|49=EHABAXUK|52=20181130-20:33:54.542|56=MA|10=013|8=FIX.4.4|9=55|35=0|34=402|49=EHABAXUK|52=20181130-20:35:24.542|56=MA|10=013|8=FIX.4.4|9=55|35=0|34=403|49=EHABAXUK|52=20181130-20:36:55.542|56=MA|10=019|8=FIX.4.4|9=55|35=0|34=404|49=EHABAXUK|52=20181130-20:38:26.541|56=MA|10=019|8=FIX.4.4|9=55|35=0|34=405|49=EHABAXUK|52=20181130-20:39:56.541|56=MA|10=024|8=FIX.4.4|9=55|35=0|34=406|49=EHABAXUK|52=20181130-20:41:26.541|56=MA|10=015|8=FIX.4.4|9=55|35=0|34=407|49=EHABAXUK|52=20181130-20:42:56.542|56=MA|10=021|8=FIX.4.4|9=55|35=0|34=408|49=EHABAXUK|52=20181130-20:44:27.541|56=MA|10=021|8=FIX.4.4|9=55|35=0|34=409|49=EHABAXUK|52=20181130-20:45:57.541|56=MA|10=026|8=FIX.4.4|9=55|35=0|34=410|49=EHABAXUK|52=20181130-20:47:28.540|56=MA|10=017|8=FIX.4.4|9=55|35=0|34=411|49=EHABAXUK|52=20181130-20:48:59.538|56=MA|10=030|8=FIX.4.4|9=55|35=0|34=412|49=EHABAXUK|52=20181130-20:50:29.538|56=MA|10=021|8=FIX.4.4|9=55|35=0|34=413|49=EHABAXUK|52=20181130-20:52:00.538|56=MA|10=013|8=FIX.4.4|9=55|35=0|34=414|49=EHABAXUK|52=20181130-20:53:30.538|56=MA|10=018|8=FIX.4.4|9=55|35=0|34=415|49=EHABAXUK|52=20181130-20:55:00.546|56=MA|10=017|8=FIX.4.4|9=55|35=0|34=416|49=EHABAXUK|52=20181130-20:56:30.552|56=MA|10=019|8=FIX.4.4|9=55|35=0|34=417|49=EHABAXUK|52=20181130-20:58:00.560|56=MA|10=018|8=FIX.4.4|9=55|35=0|34=418|49=EHABAXUK|52=20181130-20:59:30.560|56=MA|10=023|8=FIX.4.4|9=55|35=0|34=419|49=EHABAXUK|52=20181130-21:01:00.560|56=MA|10=009|8=FIX.4.4|9=55|35=0|34=420|49=EHABAXUK|52=20181130-21:02:30.560|56=MA|10=005|8=FIX.4.4|9=55|35=0|34=421|49=EHABAXUK|52=20181130-21:04:01.560|56=MA|10=006|8=FIX.4.4|9=55|35=0|34=422|49=EHABAXUK|52=20181130-21:05:32.559|56=MA|10=020|8=FIX.4.4|9=55|35=0|34=423|49=EHABAXUK|52=20181130-21:07:02.559|56=MA|10=020|8=FIX.4.4|9=55|35=0|34=424|49=EHABAXUK|52=20181130-21:08:33.558|56=MA|10=025|8=FIX.4.4|9=55|35=0|34=425|49=EHABAXUK|52=20181130-21:10:03.558|56=MA|10=016|8=FIX.4.4|9=55|35=0|34=426|49=EHABAXUK|52=20181130-21:11:34.557|56=MA|10=021|8=FIX.4.4|9=55|35=0|34=427|49=EHABAXUK|52=20181130-21:13:04.557|56=MA|10=021|8=FIX.4.4|9=55|35=0|34=428|49=EHABAXUK|52=20181130-21:14:35.555|56=MA|10=025|8=FIX.4.4|9=55|35=0|34=429|49=EHABAXUK|52=20181130-21:16:05.555|56=MA|10=025|8=FIX.4.4|9=55|35=0|34=430|49=EHABAXUK|52=20181130-21:17:35.555|56=MA|10=021|8=FIX.4.4|9=55|35=0|34=431|49=EHABAXUK|52=20181130-21:19:06.555|56=MA|10=022|8=FIX.4.4|9=55|35=0|34=432|49=EHABAXUK|52=20181130-21:20:37.553|56=MA|10=017|8=FIX.4.4|9=55|35=0|34=433|49=EHABAXUK|52=20181130-21:22:07.553|56=MA|10=017|8=FIX.4.4|9=55|35=0|34=434|49=EHABAXUK|52=20181130-21:23:37.553|56=MA|10=022|8=FIX.4.4|9=55|35=0|34=435|49=EHABAXUK|52=20181130-21:25:07.553|56=MA|10=022|8=FIX.4.4|9=55|35=0|34=436|49=EHABAXUK|52=20181130-21:26:38.552|56=MA|10=027|8=FIX.4.4|9=55|35=0|34=437|49=EHABAXUK|52=20181130-21:28:08.553|56=MA|10=028|8=FIX.4.4|9=55|35=0|34=438|49=EHABAXUK|52=20181130-21:29:39.552|56=MA|10=033|8=FIX.4.4|9=55|35=0|34=439|49=EHABAXUK|52=20181130-21:31:09.552|56=MA|10=024|8=FIX.4.4|9=55|35=0|34=440|49=EHABAXUK|52=20181130-21:32:40.551|56=MA|10=011|8=FIX.4.4|9=55|35=0|34=441|49=EHABAXUK|52=20181130-21:34:10.551|56=MA|10=011|8=FIX.4.4|9=55|35=0|34=442|49=EHABAXUK|52=20181130-21:35:41.550|56=MA|10=016|8=FIX.4.4|9=55|35=0|34=443|49=EHABAXUK|52=20181130-21:37:11.550|56=MA|10=016|8=FIX.4.4|9=55|35=0|34=444|49=EHABAXUK|52=20181130-21:38:42.548|56=MA|10=029|8=FIX.4.4|9=55|35=0|34=445|49=EHABAXUK|52=20181130-21:40:12.549|56=MA|10=021|8=FIX.4.4|9=55|35=0|34=446|49=EHABAXUK|52=20181130-21:41:43.548|56=MA|10=026|8=FIX.4.4|9=55|35=0|34=447|49=EHABAXUK|52=20181130-21:43:14.547|56=MA|10=026|8=FIX.4.4|9=55|35=0|34=448|49=EHABAXUK|52=20181130-21:44:45.547|56=MA|10=032|8=FIX.4.4|9=55|35=0|34=449|49=EHABAXUK|52=20181130-21:46:16.546|56=MA|10=032|8=FIX.4.4|9=55|35=0|34=450|49=EHABAXUK|52=20181130-21:47:46.546|56=MA|10=028|8=FIX.4.4|9=55|35=0|34=451|49=EHABAXUK|52=20181130-21:49:17.545|56=MA|10=028|8=FIX.4.4|9=55|35=0|34=452|49=EHABAXUK|52=20181130-21:50:47.545|56=MA|10=024|8=FIX.4.4|9=55|35=0|34=453|49=EHABAXUK|52=20181130-21:52:18.544|56=MA|10=024|8=FIX.4.4|9=55|35=0|34=454|49=EHABAXUK|52=20181130-21:53:49.543|56=MA|10=029|8=FIX.4.4|9=55|35=0|34=455|49=EHABAXUK|52=20181130-21:55:19.543|56=MA|10=029|8=FIX.4.4|9=55|35=0|34=456|49=EHABAXUK|52=20181130-21:56:49.543|56=MA|10=034|8=FIX.4.4|9=55|35=0|34=457|49=EHABAXUK|52=20181130-21:58:20.541|56=MA|10=024|8=FIX.4.4|9=55|35=0|34=458|49=EHABAXUK|52=20181130-21:59:50.541|56=MA|10=029|8=FIX.4.4|9=55|35=0|34=459|49=EHABAXUK|52=20181130-22:01:20.541|56=MA|10=015|8=FIX.4.4|9=55|35=0|34=460|49=EHABAXUK|52=20181130-22:02:51.539|56=MA|10=019|8=FIX.4.4|9=55|35=0|34=461|49=EHABAXUK|52=20181130-22:04:21.541|56=MA|10=012|8=FIX.4.4|9=55|35=0|34=462|49=EHABAXUK|52=20181130-22:05:52.539|56=MA|10=025|8=FIX.4.4|9=55|35=0|34=463|49=EHABAXUK|52=20181130-22:07:22.540|56=MA|10=017|8=FIX.4.4|9=55|35=0|34=464|49=EHABAXUK|52=20181130-22:08:52.541|56=MA|10=023|8=FIX.4.4|9=55|35=0|34=465|49=EHABAXUK|52=20181130-22:10:23.539|56=MA|10=022|8=FIX.4.4|9=55|35=0|34=466|49=EHABAXUK|52=20181130-22:11:53.539|56=MA|10=027|8=FIX.4.4|9=55|35=0|34=467|49=EHABAXUK|52=20181130-22:13:23.539|56=MA|10=027|8=FIX.4.4|9=55|35=0|34=468|49=EHABAXUK|52=20181130-22:14:54.538|56=MA|10=032|8=FIX.4.4|9=55|35=0|34=469|49=EHABAXUK|52=20181130-22:16:25.537|56=MA|10=032|8=FIX.4.4|9=55|35=0|34=470|49=EHABAXUK|52=20181130-22:17:55.537|56=MA|10=028|8=FIX.4.4|9=55|35=0|34=471|49=EHABAXUK|52=20181130-22:19:25.537|56=MA|10=028|8=FIX.4.4|9=55|35=0|34=472|49=EHABAXUK|52=20181130-22:20:56.535|56=MA|10=023|8=FIX.4.4|9=55|35=0|34=473|49=EHABAXUK|52=20181130-22:22:26.535|56=MA|10=023|8=FIX.4.4|9=55|35=0|34=474|49=EHABAXUK|52=20181130-22:23:57.534|56=MA|10=028|8=FIX.4.4|9=55|35=0|34=475|49=EHABAXUK|52=20181130-22:25:27.534|56=MA|10=028|8=FIX.4.4|9=55|35=0|34=476|49=EHABAXUK|52=20181130-22:26:58.533|56=MA|10=033|8=FIX.4.4|9=55|35=0|34=477|49=EHABAXUK|52=20181130-22:28:28.533|56=MA|10=033|8=FIX.4.4|9=55|35=0|34=478|49=EHABAXUK|52=20181130-22:29:59.532|56=MA|10=038|8=FIX.4.4|9=55|35=0|34=479|49=EHABAXUK|52=20181130-22:31:29.532|56=MA|10=029|8=FIX.4.4|9=55|35=0|34=480|49=EHABAXUK|52=20181130-22:32:59.532|56=MA|10=025|8=FIX.4.4|9=55|35=0|34=481|49=EHABAXUK|52=20181130-22:34:30.530|56=MA|10=015|8=FIX.4.4|9=55|35=0|34=482|49=EHABAXUK|52=20181130-22:36:01.529|56=MA|10=024|8=FIX.4.4|9=55|35=0|34=483|49=EHABAXUK|52=20181130-22:37:31.529|56=MA|10=029|8=FIX.4.4|9=55|35=0|34=484|49=EHABAXUK|52=20181130-22:39:01.531|56=MA|10=022|8=FIX.4.4|9=55|35=0|34=485|49=EHABAXUK|52=20181130-22:40:31.532|56=MA|10=019|8=FIX.4.4|9=55|35=0|34=486|49=EHABAXUK|52=20181130-22:42:01.533|56=MA|10=020|8=FIX.4.4|9=55|35=0|34=487|49=EHABAXUK|52=20181130-22:43:31.533|56=MA|10=025|8=FIX.4.4|9=55|35=0|34=488|49=EHABAXUK|52=20181130-22:45:01.533|56=MA|10=025|8=FIX.4.4|9=55|35=0|34=489|49=EHABAXUK|52=20181130-22:46:32.531|56=MA|10=029|8=FIX.4.4|9=55|35=0|34=490|49=EHABAXUK|52=20181130-22:48:02.531|56=MA|10=020|8=FIX.4.4|9=55|35=0|34=491|49=EHABAXUK|52=20181130-22:49:33.530|56=MA|10=025|8=FIX.4.4|9=55|35=0|34=492|49=EHABAXUK|52=20181130-22:51:04.530|56=MA|10=017|8=FIX.4.4|9=55|35=0|34=493|49=EHABAXUK|52=20181130-22:52:34.530|56=MA|10=022|8=FIX.4.4|9=55|35=0|34=494|49=EHABAXUK|52=20181130-22:54:05.529|56=MA|10=031|8=FIX.4.4|9=55|35=0|34=495|49=EHABAXUK|52=20181130-22:55:35.530|56=MA|10=028|8=FIX.4.4|9=55|35=0|34=496|49=EHABAXUK|52=20181130-22:57:06.529|56=MA|10=037|8=FIX.4.4|9=55|35=0|34=497|49=EHABAXUK|52=20181130-22:58:36.529|56=MA|10=042|8=FIX.4.4|9=55|35=0|34=498|49=EHABAXUK|52=20181130-23:00:07.529|56=MA|10=029|8=FIX.4.4|9=55|35=0|34=499|49=EHABAXUK|52=20181130-23:01:37.532|56=MA|10=028|8=FIX.4.4|9=55|35=0|34=500|49=EHABAXUK|52=20181130-23:03:08.528|56=MA|10=016|8=FIX.4.4|9=55|35=0|34=501|49=EHABAXUK|52=20181130-23:04:38.528|56=MA|10=021|8=FIX.4.4|9=55|35=5|34=502|49=EHABAXUK|52=20181130-23:05:01.641|56=MA|10=014|