8=FIX.4.4|9=91|35=A|34=1|49=T2Kauaiblk4|52=20201201-08:34:23.922|56=MA|98=0|108=90|95=8|96=3.0.0rc5|141=Y|10=034|8=FIX.4.4|9=640|35=E|34=2|49=T2Kauaiblk4|52=20201201-08:34:26.362|56=MA|66=MMAD-FIX44-ListID-011220-1222|394=2|68=5|73=5|11=FIX44-List-ClOrdID-1223|22=4|38=100000|48=US06051GEN51|54=1|55=[N/A/]|67=1|423=1|453=1|448=T2Kauaiblk4|447=C|452=11|11=FIX44-List-ClOrdID-1224|22=4|38=100000|48=US40434AAB52|54=1|55=[N/A]|67=2|11=FIX44-List-ClOrdID-1225|22=4|38=130000|48=US06738JYZ10|54=1|55=[N/A/]|67=1|453=1|448=T2Kauaiblk4|447=C|452=11|11=FIX44-List-ClOrdID-1226|22=4|38=250000|48=US95709TAH32|54=1|55=[N/A/]|67=1|453=1|448=T2Kauaiblk4|447=C|452=11|11=FIX44-List-ClOrdID-1227|22=4|38=350000|48=US29379VAW37|54=1|55=[N/A/]|67=1|453=1|448=T2Kauaiblk4|447=C|452=11|10=022|8=FIX.4.4|9=56|35=0|34=3|49=T2Kauaiblk4|52=20201201-08:35:56.922|56=MA|10=069|8=FIX.4.4|9=56|35=0|34=4|49=T2Kauaiblk4|52=20201201-08:37:26.923|56=MA|10=070|8=FIX.4.4|9=56|35=0|34=5|49=T2Kauaiblk4|52=20201201-08:38:56.925|56=MA|10=077|8=FIX.4.4|9=56|35=0|34=6|49=T2Kauaiblk4|52=20201201-08:40:26.925|56=MA|10=068|8=FIX.4.4|9=56|35=0|34=7|49=T2Kauaiblk4|52=20201201-08:41:56.926|56=MA|10=074|8=FIX.4.4|9=56|35=0|34=8|49=T2Kauaiblk4|52=20201201-08:43:26.927|56=MA|10=075|8=FIX.4.4|9=56|35=0|34=9|49=T2Kauaiblk4|52=20201201-08:44:56.927|56=MA|10=080|8=FIX.4.4|9=57|35=0|34=10|49=T2Kauaiblk4|52=20201201-08:46:26.928|56=MA|10=121|8=FIX.4.4|9=57|35=0|34=11|49=T2Kauaiblk4|52=20201201-08:47:56.929|56=MA|10=127|8=FIX.4.4|9=57|35=0|34=12|49=T2Kauaiblk4|52=20201201-08:49:26.930|56=MA|10=119|8=FIX.4.4|9=57|35=0|34=13|49=T2Kauaiblk4|52=20201201-08:50:56.931|56=MA|10=116|8=FIX.4.4|9=57|35=0|34=14|49=T2Kauaiblk4|52=20201201-08:52:26.931|56=MA|10=116|8=FIX.4.4|9=57|35=0|34=15|49=T2Kauaiblk4|52=20201201-08:53:56.931|56=MA|10=121|8=FIX.4.4|9=57|35=0|34=16|49=T2Kauaiblk4|52=20201201-08:55:26.932|56=MA|10=122|8=FIX.4.4|9=57|35=0|34=17|49=T2Kauaiblk4|52=20201201-08:56:56.934|56=MA|10=129|8=FIX.4.4|9=57|35=0|34=18|49=T2Kauaiblk4|52=20201201-08:58:27.933|56=MA|10=129|8=FIX.4.4|9=57|35=0|34=19|49=T2Kauaiblk4|52=20201201-08:59:57.934|56=MA|10=135|8=FIX.4.4|9=57|35=0|34=20|49=T2Kauaiblk4|52=20201201-09:01:27.936|56=MA|10=114|8=FIX.4.4|9=57|35=0|34=21|49=T2Kauaiblk4|52=20201201-09:02:58.934|56=MA|10=118|8=FIX.4.4|9=57|35=0|34=22|49=T2Kauaiblk4|52=20201201-09:04:28.936|56=MA|10=120|8=FIX.4.4|9=57|35=0|34=23|49=T2Kauaiblk4|52=20201201-09:05:58.936|56=MA|10=125|8=FIX.4.4|9=57|35=0|34=24|49=T2Kauaiblk4|52=20201201-09:07:28.936|56=MA|10=125|8=FIX.4.4|9=57|35=0|34=25|49=T2Kauaiblk4|52=20201201-09:08:58.937|56=MA|10=131|8=FIX.4.4|9=57|35=0|34=26|49=T2Kauaiblk4|52=20201201-09:10:28.938|56=MA|10=123|8=FIX.4.4|9=57|35=0|34=27|49=T2Kauaiblk4|52=20201201-09:11:58.939|56=MA|10=129|8=FIX.4.4|9=57|35=0|34=28|49=T2Kauaiblk4|52=20201201-09:13:29.938|56=MA|10=129|8=FIX.4.4|9=57|35=0|34=29|49=T2Kauaiblk4|52=20201201-09:14:59.938|56=MA|10=134|8=FIX.4.4|9=57|35=0|34=30|49=T2Kauaiblk4|52=20201201-09:16:29.939|56=MA|10=126|8=FIX.4.4|9=57|35=0|34=31|49=T2Kauaiblk4|52=20201201-09:17:59.939|56=MA|10=131|8=FIX.4.4|9=57|35=0|34=32|49=T2Kauaiblk4|52=20201201-09:19:29.939|56=MA|10=131|8=FIX.4.4|9=57|35=0|34=33|49=T2Kauaiblk4|52=20201201-09:20:59.939|56=MA|10=127|8=FIX.4.4|9=57|35=0|34=34|49=T2Kauaiblk4|52=20201201-09:22:29.941|56=MA|10=120|8=FIX.4.4|9=57|35=0|34=35|49=T2Kauaiblk4|52=20201201-09:24:00.941|56=MA|10=112|8=FIX.4.4|9=57|35=0|34=36|49=T2Kauaiblk4|52=20201201-09:25:31.940|56=MA|10=117|8=FIX.4.4|9=57|35=0|34=37|49=T2Kauaiblk4|52=20201201-09:27:01.942|56=MA|10=119|8=FIX.4.4|9=57|35=0|34=38|49=T2Kauaiblk4|52=20201201-09:28:32.940|56=MA|10=123|8=FIX.4.4|9=57|35=0|34=39|49=T2Kauaiblk4|52=20201201-09:30:02.941|56=MA|10=115|8=FIX.4.4|9=57|35=0|34=40|49=T2Kauaiblk4|52=20201201-09:31:32.941|56=MA|10=111|8=FIX.4.4|9=57|35=0|34=41|49=T2Kauaiblk4|52=20201201-09:33:02.942|56=MA|10=112|8=FIX.4.4|9=57|35=0|34=42|49=T2Kauaiblk4|52=20201201-09:34:32.943|56=MA|10=118|8=FIX.4.4|9=57|35=0|34=43|49=T2Kauaiblk4|52=20201201-09:36:03.943|56=MA|10=119|8=FIX.4.4|9=57|35=0|34=44|49=T2Kauaiblk4|52=20201201-09:37:34.942|56=MA|10=124|8=FIX.4.4|9=57|35=0|34=45|49=T2Kauaiblk4|52=20201201-09:39:04.942|56=MA|10=124|8=FIX.4.4|9=57|35=0|34=46|49=T2Kauaiblk4|52=20201201-09:40:34.944|56=MA|10=122|8=FIX.4.4|9=57|35=0|34=47|49=T2Kauaiblk4|52=20201201-09:42:05.943|56=MA|10=122|8=FIX.4.4|9=57|35=0|34=48|49=T2Kauaiblk4|52=20201201-09:43:35.943|56=MA|10=127|8=FIX.4.4|9=57|35=0|34=49|49=T2Kauaiblk4|52=20201201-09:45:05.945|56=MA|10=129|8=FIX.4.4|9=641|35=E|34=50|49=T2Kauaiblk4|52=20201201-09:46:18.325|56=MA|66=MMAD-FIX44-ListID-011220-1234|394=2|68=5|73=5|11=FIX44-List-ClOrdID-1235|22=4|38=100000|48=US06051GEN51|54=1|55=[N/A/]|67=1|423=1|453=1|448=T2Kauaiblk4|447=C|452=11|11=FIX44-List-ClOrdID-1236|22=4|38=100000|48=US40434AAB52|54=1|55=[N/A]|67=2|11=FIX44-List-ClOrdID-1237|22=4|38=130000|48=US06738JYZ10|54=1|55=[N/A/]|67=1|453=1|448=T2Kauaiblk4|447=C|452=11|11=FIX44-List-ClOrdID-1238|22=4|38=250000|48=US95709TAH32|54=1|55=[N/A/]|67=1|453=1|448=T2Kauaiblk4|447=C|452=11|11=FIX44-List-ClOrdID-1239|22=4|38=350000|48=US29379VAW37|54=1|55=[N/A/]|67=1|453=1|448=T2Kauaiblk4|447=C|452=11|10=096|8=FIX.4.4|9=57|35=0|34=51|49=T2Kauaiblk4|52=20201201-09:47:48.945|56=MA|10=131|8=FIX.4.4|9=57|35=0|34=52|49=T2Kauaiblk4|52=20201201-09:49:19.944|56=MA|10=131|8=FIX.4.4|9=57|35=0|34=53|49=T2Kauaiblk4|52=20201201-09:50:49.945|56=MA|10=128|8=FIX.4.4|9=57|35=0|34=54|49=T2Kauaiblk4|52=20201201-09:52:19.946|56=MA|10=129|8=FIX.4.4|9=57|35=0|34=55|49=T2Kauaiblk4|52=20201201-09:53:50.945|56=MA|10=125|8=FIX.4.4|9=57|35=0|34=56|49=T2Kauaiblk4|52=20201201-09:55:20.945|56=MA|10=125|8=FIX.4.4|9=57|35=0|34=57|49=T2Kauaiblk4|52=20201201-09:56:50.945|56=MA|10=130|8=FIX.4.4|9=57|35=0|34=58|49=T2Kauaiblk4|52=20201201-09:58:20.945|56=MA|10=130|8=FIX.4.4|9=57|35=0|34=59|49=T2Kauaiblk4|52=20201201-09:59:50.946|56=MA|10=136|8=FIX.4.4|9=57|35=0|34=60|49=T2Kauaiblk4|52=20201201-10:01:21.947|56=MA|10=106|8=FIX.4.4|9=57|35=0|34=61|49=T2Kauaiblk4|52=20201201-10:02:52.946|56=MA|10=111|8=FIX.4.4|9=57|35=0|34=62|49=T2Kauaiblk4|52=20201201-10:04:22.947|56=MA|10=112|8=FIX.4.4|9=57|35=0|34=63|49=T2Kauaiblk4|52=20201201-10:05:53.946|56=MA|10=117|8=FIX.4.4|9=57|35=0|34=64|49=T2Kauaiblk4|52=20201201-10:07:23.947|56=MA|10=118|8=FIX.4.4|9=57|35=0|34=65|49=T2Kauaiblk4|52=20201201-10:08:53.947|56=MA|10=123|8=FIX.4.4|9=57|35=0|34=66|49=T2Kauaiblk4|52=20201201-10:10:23.949|56=MA|10=116|8=FIX.4.4|9=57|35=0|34=67|49=T2Kauaiblk4|52=20201201-10:11:53.952|56=MA|10=115|8=FIX.4.4|9=57|35=0|34=68|49=T2Kauaiblk4|52=20201201-10:13:23.955|56=MA|10=118|8=FIX.4.4|9=57|35=0|34=69|49=T2Kauaiblk4|52=20201201-10:14:53.958|56=MA|10=126|8=FIX.4.4|9=57|35=0|34=70|49=T2Kauaiblk4|52=20201201-10:16:23.958|56=MA|10=117|8=FIX.4.4|9=57|35=0|34=71|49=T2Kauaiblk4|52=20201201-10:17:53.960|56=MA|10=115|8=FIX.4.4|9=57|35=0|34=72|49=T2Kauaiblk4|52=20201201-10:19:23.963|56=MA|10=118|8=FIX.4.4|9=57|35=0|34=73|49=T2Kauaiblk4|52=20201201-10:20:53.965|56=MA|10=116|8=FIX.4.4|9=57|35=0|34=74|49=T2Kauaiblk4|52=20201201-10:22:23.966|56=MA|10=117|8=FIX.4.4|9=57|35=0|34=75|49=T2Kauaiblk4|52=20201201-10:23:53.968|56=MA|10=124|8=FIX.4.4|9=57|35=0|34=76|49=T2Kauaiblk4|52=20201201-10:25:23.969|56=MA|10=125|8=FIX.4.4|9=57|35=0|34=77|49=T2Kauaiblk4|52=20201201-10:26:53.972|56=MA|10=124|8=FIX.4.4|9=57|35=0|34=78|49=T2Kauaiblk4|52=20201201-10:28:23.972|56=MA|10=124|8=FIX.4.4|9=57|35=0|34=79|49=T2Kauaiblk4|52=20201201-10:29:53.973|56=MA|10=130|8=FIX.4.4|9=57|35=0|34=80|49=T2Kauaiblk4|52=20201201-10:31:23.975|56=MA|10=114|8=FIX.4.4|9=57|35=0|34=81|49=T2Kauaiblk4|52=20201201-10:32:53.976|56=MA|10=120|8=FIX.4.4|9=57|35=0|34=82|49=T2Kauaiblk4|52=20201201-10:34:23.977|56=MA|10=121|8=FIX.4.4|9=57|35=0|34=83|49=T2Kauaiblk4|52=20201201-10:35:53.978|56=MA|10=127|8=FIX.4.4|9=57|35=0|34=84|49=T2Kauaiblk4|52=20201201-10:37:23.981|56=MA|10=121|8=FIX.4.4|9=57|35=0|34=85|49=T2Kauaiblk4|52=20201201-10:38:53.982|56=MA|10=127|8=FIX.4.4|9=57|35=0|34=86|49=T2Kauaiblk4|52=20201201-10:40:24.981|56=MA|10=118|8=FIX.4.4|9=57|35=0|34=87|49=T2Kauaiblk4|52=20201201-10:41:54.983|56=MA|10=125|8=FIX.4.4|9=57|35=0|34=88|49=T2Kauaiblk4|52=20201201-10:43:24.984|56=MA|10=126|8=FIX.4.4|9=57|35=0|34=89|49=T2Kauaiblk4|52=20201201-10:44:54.984|56=MA|10=131|8=FIX.4.4|9=57|35=0|34=90|49=T2Kauaiblk4|52=20201201-10:46:24.985|56=MA|10=123|8=FIX.4.4|9=57|35=0|34=91|49=T2Kauaiblk4|52=20201201-10:47:54.986|56=MA|10=129|8=FIX.4.4|9=57|35=0|34=92|49=T2Kauaiblk4|52=20201201-10:49:24.987|56=MA|10=130|8=FIX.4.4|9=57|35=0|34=93|49=T2Kauaiblk4|52=20201201-10:50:54.988|56=MA|10=127|8=FIX.4.4|9=57|35=0|34=94|49=T2Kauaiblk4|52=20201201-10:52:24.988|56=MA|10=127|8=FIX.4.4|9=57|35=0|34=95|49=T2Kauaiblk4|52=20201201-10:53:54.990|56=MA|10=125|8=FIX.4.4|9=57|35=0|34=96|49=T2Kauaiblk4|52=20201201-10:55:24.990|56=MA|10=125|8=FIX.4.4|9=57|35=0|34=97|49=T2Kauaiblk4|52=20201201-10:56:54.991|56=MA|10=131|8=FIX.4.4|9=75|35=5|34=98|49=T2Kauaiblk4|52=20201201-10:57:40.975|56=MA|58=user requested|10=227|8=FIX.4.4|9=91|35=A|34=1|49=T2Kauaiblk4|52=20201201-11:33:12.935|56=MA|98=0|108=90|95=8|96=3.0.0rc5|141=Y|10=029|8=FIX.4.4|9=640|35=E|34=2|49=T2Kauaiblk4|52=20201201-11:33:15.324|56=MA|66=MMAD-FIX44-ListID-011220-1288|394=2|68=5|73=5|11=FIX44-List-ClOrdID-1289|22=4|38=100000|48=US06051GEN51|54=1|55=[N/A/]|67=1|423=1|453=1|448=T2Kauaiblk4|447=C|452=11|11=FIX44-List-ClOrdID-1290|22=4|38=100000|48=US40434AAB52|54=1|55=[N/A]|67=2|11=FIX44-List-ClOrdID-1291|22=4|38=130000|48=US06738JYZ10|54=1|55=[N/A/]|67=1|453=1|448=T2Kauaiblk4|447=C|452=11|11=FIX44-List-ClOrdID-1292|22=4|38=250000|48=US95709TAH32|54=1|55=[N/A/]|67=1|453=1|448=T2Kauaiblk4|447=C|452=11|11=FIX44-List-ClOrdID-1293|22=4|38=350000|48=US29379VAW37|54=1|55=[N/A/]|67=1|453=1|448=T2Kauaiblk4|447=C|452=11|10=047|8=FIX.4.4|9=56|35=0|34=3|49=T2Kauaiblk4|52=20201201-11:34:45.934|56=MA|10=063|8=FIX.4.4|9=56|35=0|34=4|49=T2Kauaiblk4|52=20201201-11:36:15.934|56=MA|10=063|8=FIX.4.4|9=640|35=E|34=5|49=T2Kauaiblk4|52=20201201-11:37:36.838|56=MA|66=MMAD-FIX44-ListID-011220-1294|394=2|68=5|73=5|11=FIX44-List-ClOrdID-1295|22=4|38=100000|48=US06051GEN51|54=1|55=[N/A/]|67=1|423=1|453=1|448=T2Kauaiblk4|447=C|452=11|11=FIX44-List-ClOrdID-1296|22=4|38=100000|48=US40434AAB52|54=1|55=[N/A]|67=2|11=FIX44-List-ClOrdID-1297|22=4|38=130000|48=US06738JYZ10|54=1|55=[N/A/]|67=1|453=1|448=T2Kauaiblk4|447=C|452=11|11=FIX44-List-ClOrdID-1298|22=4|38=250000|48=US95709TAH32|54=1|55=[N/A/]|67=1|453=1|448=T2Kauaiblk4|447=C|452=11|11=FIX44-List-ClOrdID-1299|22=4|38=350000|48=US29379VAW37|54=1|55=[N/A/]|67=1|453=1|448=T2Kauaiblk4|447=C|452=11|10=085|8=FIX.4.4|9=56|35=0|34=6|49=T2Kauaiblk4|52=20201201-11:39:06.934|56=MA|10=068|8=FIX.4.4|9=56|35=0|34=7|49=T2Kauaiblk4|52=20201201-11:40:36.936|56=MA|10=066|8=FIX.4.4|9=56|35=0|34=8|49=T2Kauaiblk4|52=20201201-11:42:06.936|56=MA|10=066|8=FIX.4.4|9=56|35=0|34=9|49=T2Kauaiblk4|52=20201201-11:43:36.936|56=MA|10=071|8=FIX.4.4|9=641|35=E|34=10|49=T2Kauaiblk4|52=20201201-11:43:45.408|56=MA|66=MMAD-FIX44-ListID-011220-1306|394=2|68=5|73=5|11=FIX44-List-ClOrdID-1307|22=4|38=100000|48=US06051GEN51|54=1|55=[N/A/]|67=1|423=1|453=1|448=T2Kauaiblk4|447=C|452=11|11=FIX44-List-ClOrdID-1308|22=4|38=100000|48=US40434AAB52|54=1|55=[N/A]|67=2|11=FIX44-List-ClOrdID-1309|22=4|38=130000|48=US06738JYZ10|54=1|55=[N/A/]|67=1|453=1|448=T2Kauaiblk4|447=C|452=11|11=FIX44-List-ClOrdID-1310|22=4|38=250000|48=US95709TAH32|54=1|55=[N/A/]|67=1|453=1|448=T2Kauaiblk4|447=C|452=11|11=FIX44-List-ClOrdID-1311|22=4|38=350000|48=US29379VAW37|54=1|55=[N/A/]|67=1|453=1|448=T2Kauaiblk4|447=C|452=11|10=066|8=FIX.4.4|9=57|35=0|34=11|49=T2Kauaiblk4|52=20201201-11:45:15.935|56=MA|10=111|8=FIX.4.4|9=57|35=0|34=12|49=T2Kauaiblk4|52=20201201-11:46:45.937|56=MA|10=118|8=FIX.4.4|9=57|35=0|34=13|49=T2Kauaiblk4|52=20201201-11:48:15.937|56=MA|10=118|8=FIX.4.4|9=57|35=0|34=14|49=T2Kauaiblk4|52=20201201-11:49:45.937|56=MA|10=123|8=FIX.4.4|9=57|35=0|34=15|49=T2Kauaiblk4|52=20201201-11:51:15.937|56=MA|10=114|8=FIX.4.4|9=57|35=0|34=16|49=T2Kauaiblk4|52=20201201-11:52:45.938|56=MA|10=120|8=FIX.4.4|9=57|35=0|34=17|49=T2Kauaiblk4|52=20201201-11:54:16.938|56=MA|10=121|8=FIX.4.4|9=57|35=0|34=18|49=T2Kauaiblk4|52=20201201-11:55:47.937|56=MA|10=126|8=FIX.4.4|9=57|35=0|34=19|49=T2Kauaiblk4|52=20201201-11:57:17.937|56=MA|10=126|8=FIX.4.4|9=57|35=0|34=20|49=T2Kauaiblk4|52=20201201-11:58:47.938|56=MA|10=123|8=FIX.4.4|9=57|35=0|34=21|49=T2Kauaiblk4|52=20201201-12:00:17.938|56=MA|10=109|8=FIX.4.4|9=57|35=0|34=22|49=T2Kauaiblk4|52=20201201-12:01:47.938|56=MA|10=114|8=FIX.4.4|9=57|35=0|34=23|49=T2Kauaiblk4|52=20201201-12:03:17.938|56=MA|10=114|8=FIX.4.4|9=57|35=0|34=24|49=T2Kauaiblk4|52=20201201-12:04:47.939|56=MA|10=120|8=FIX.4.4|9=57|35=0|34=25|49=T2Kauaiblk4|52=20201201-12:06:17.940|56=MA|10=112|8=FIX.4.4|9=57|35=0|34=26|49=T2Kauaiblk4|52=20201201-12:07:47.940|56=MA|10=117|8=FIX.4.4|9=57|35=0|34=27|49=T2Kauaiblk4|52=20201201-12:09:18.939|56=MA|10=126|8=FIX.4.4|9=57|35=0|34=28|49=T2Kauaiblk4|52=20201201-12:10:48.939|56=MA|10=122|8=FIX.4.4|9=57|35=0|34=29|49=T2Kauaiblk4|52=20201201-12:12:18.941|56=MA|10=115|8=FIX.4.4|9=57|35=0|34=30|49=T2Kauaiblk4|52=20201201-12:13:49.939|56=MA|10=119|8=FIX.4.4|9=57|35=0|34=31|49=T2Kauaiblk4|52=20201201-12:15:19.941|56=MA|10=112|8=FIX.4.4|9=57|35=0|34=32|49=T2Kauaiblk4|52=20201201-12:16:49.941|56=MA|10=117|8=FIX.4.4|9=57|35=0|34=33|49=T2Kauaiblk4|52=20201201-12:18:19.941|56=MA|10=117|8=FIX.4.4|9=57|35=0|34=34|49=T2Kauaiblk4|52=20201201-12:19:50.941|56=MA|10=114|8=FIX.4.4|9=57|35=0|34=35|49=T2Kauaiblk4|52=20201201-12:21:21.940|56=MA|10=105|8=FIX.4.4|9=57|35=0|34=36|49=T2Kauaiblk4|52=20201201-12:22:51.940|56=MA|10=110|8=FIX.4.4|9=57|35=0|34=37|49=T2Kauaiblk4|52=20201201-12:24:21.941|56=MA|10=111|8=FIX.4.4|9=57|35=0|34=38|49=T2Kauaiblk4|52=20201201-12:25:51.941|56=MA|10=116|8=FIX.4.4|9=57|35=0|34=39|49=T2Kauaiblk4|52=20201201-12:27:21.943|56=MA|10=118|8=FIX.4.4|9=57|35=0|34=40|49=T2Kauaiblk4|52=20201201-12:28:51.945|56=MA|10=116|8=FIX.4.4|9=57|35=0|34=41|49=T2Kauaiblk4|52=20201201-12:30:21.946|56=MA|10=108|8=FIX.4.4|9=57|35=0|34=42|49=T2Kauaiblk4|52=20201201-12:31:51.949|56=MA|10=116|8=FIX.4.4|9=57|35=0|34=43|49=T2Kauaiblk4|52=20201201-12:33:21.949|56=MA|10=116|8=FIX.4.4|9=57|35=0|34=44|49=T2Kauaiblk4|52=20201201-12:34:51.952|56=MA|10=115|8=FIX.4.4|9=57|35=0|34=45|49=T2Kauaiblk4|52=20201201-12:36:21.952|56=MA|10=115|8=FIX.4.4|9=57|35=0|34=46|49=T2Kauaiblk4|52=20201201-12:37:51.955|56=MA|10=123|8=FIX.4.4|9=57|35=0|34=47|49=T2Kauaiblk4|52=20201201-12:39:21.955|56=MA|10=123|8=FIX.4.4|9=57|35=0|34=48|49=T2Kauaiblk4|52=20201201-12:40:51.957|56=MA|10=121|8=FIX.4.4|9=57|35=0|34=49|49=T2Kauaiblk4|52=20201201-12:42:21.958|56=MA|10=122|8=FIX.4.4|9=57|35=0|34=50|49=T2Kauaiblk4|52=20201201-12:43:51.959|56=MA|10=119|8=FIX.4.4|9=57|35=0|34=51|49=T2Kauaiblk4|52=20201201-12:45:21.961|56=MA|10=112|8=FIX.4.4|9=57|35=0|34=52|49=T2Kauaiblk4|52=20201201-12:46:51.963|56=MA|10=119|8=FIX.4.4|9=57|35=0|34=53|49=T2Kauaiblk4|52=20201201-12:48:21.964|56=MA|10=120|8=FIX.4.4|9=57|35=0|34=54|49=T2Kauaiblk4|52=20201201-12:49:51.965|56=MA|10=126|8=FIX.4.4|9=57|35=0|34=55|49=T2Kauaiblk4|52=20201201-12:51:21.965|56=MA|10=117|8=FIX.4.4|9=57|35=0|34=56|49=T2Kauaiblk4|52=20201201-12:52:51.966|56=MA|10=123|8=FIX.4.4|9=57|35=0|34=57|49=T2Kauaiblk4|52=20201201-12:54:21.968|56=MA|10=125|8=FIX.4.4|9=57|35=0|34=58|49=T2Kauaiblk4|52=20201201-12:55:51.968|56=MA|10=130|8=FIX.4.4|9=57|35=0|34=59|49=T2Kauaiblk4|52=20201201-12:57:21.969|56=MA|10=131|8=FIX.4.4|9=57|35=0|34=60|49=T2Kauaiblk4|52=20201201-12:58:51.970|56=MA|10=119|8=FIX.4.4|9=57|35=0|34=61|49=T2Kauaiblk4|52=20201201-13:00:21.973|56=MA|10=108|8=FIX.4.4|9=57|35=0|34=62|49=T2Kauaiblk4|52=20201201-13:01:51.973|56=MA|10=113|8=FIX.4.4|9=57|35=0|34=63|49=T2Kauaiblk4|52=20201201-13:03:21.974|56=MA|10=114|8=FIX.4.4|9=57|35=0|34=64|49=T2Kauaiblk4|52=20201201-13:04:51.974|56=MA|10=119|8=FIX.4.4|9=57|35=0|34=65|49=T2Kauaiblk4|52=20201201-13:06:21.975|56=MA|10=120|8=FIX.4.4|9=57|35=0|34=66|49=T2Kauaiblk4|52=20201201-13:07:51.976|56=MA|10=126|8=FIX.4.4|9=57|35=0|34=67|49=T2Kauaiblk4|52=20201201-13:09:21.978|56=MA|10=128|8=FIX.4.4|9=57|35=0|34=68|49=T2Kauaiblk4|52=20201201-13:10:51.979|56=MA|10=125|8=FIX.4.4|9=57|35=0|34=69|49=T2Kauaiblk4|52=20201201-13:12:21.979|56=MA|10=125|8=FIX.4.4|9=57|35=0|34=70|49=T2Kauaiblk4|52=20201201-13:13:51.980|56=MA|10=113|8=FIX.4.4|9=57|35=0|34=71|49=T2Kauaiblk4|52=20201201-13:15:21.981|56=MA|10=114|8=FIX.4.4|9=57|35=0|34=72|49=T2Kauaiblk4|52=20201201-13:16:51.983|56=MA|10=121|8=FIX.4.4|9=57|35=0|34=73|49=T2Kauaiblk4|52=20201201-13:18:21.983|56=MA|10=121|8=FIX.4.4|9=57|35=0|34=74|49=T2Kauaiblk4|52=20201201-13:19:51.983|56=MA|10=126|8=FIX.4.4|9=57|35=0|34=75|49=T2Kauaiblk4|52=20201201-13:21:21.984|56=MA|10=118|8=FIX.4.4|9=57|35=0|34=76|49=T2Kauaiblk4|52=20201201-13:22:51.986|56=MA|10=125|8=FIX.4.4|9=57|35=0|34=77|49=T2Kauaiblk4|52=20201201-13:24:22.114|56=MA|10=109|8=FIX.4.4|9=57|35=0|34=78|49=T2Kauaiblk4|52=20201201-13:25:52.986|56=MA|10=131|8=FIX.4.4|9=57|35=0|34=79|49=T2Kauaiblk4|52=20201201-13:27:22.988|56=MA|10=133|8=FIX.4.4|9=57|35=0|34=80|49=T2Kauaiblk4|52=20201201-13:28:52.988|56=MA|10=129|8=FIX.4.4|9=57|35=0|34=81|49=T2Kauaiblk4|52=20201201-13:30:22.989|56=MA|10=121|8=FIX.4.4|9=57|35=0|34=82|49=T2Kauaiblk4|52=20201201-13:31:52.990|56=MA|10=118|8=FIX.4.4|9=57|35=0|34=83|49=T2Kauaiblk4|52=20201201-13:33:22.990|56=MA|10=118|8=FIX.4.4|9=57|35=0|34=84|49=T2Kauaiblk4|52=20201201-13:34:52.991|56=MA|10=124|8=FIX.4.4|9=57|35=0|34=85|49=T2Kauaiblk4|52=20201201-13:36:22.991|56=MA|10=124|8=FIX.4.4|9=57|35=0|34=86|49=T2Kauaiblk4|52=20201201-13:37:52.991|56=MA|10=129|8=FIX.4.4|9=57|35=0|34=87|49=T2Kauaiblk4|52=20201201-13:39:22.994|56=MA|10=132|8=FIX.4.4|9=57|35=0|34=88|49=T2Kauaiblk4|52=20201201-13:40:53.993|56=MA|10=128|8=FIX.4.4|9=57|35=0|34=89|49=T2Kauaiblk4|52=20201201-13:42:23.993|56=MA|10=128|8=FIX.4.4|9=57|35=0|34=90|49=T2Kauaiblk4|52=20201201-13:43:53.995|56=MA|10=126|8=FIX.4.4|9=57|35=0|34=91|49=T2Kauaiblk4|52=20201201-13:45:23.996|56=MA|10=127|8=FIX.4.4|9=57|35=0|34=92|49=T2Kauaiblk4|52=20201201-13:46:54.995|56=MA|10=132|8=FIX.4.4|9=57|35=0|34=93|49=T2Kauaiblk4|52=20201201-13:48:24.995|56=MA|10=132|8=FIX.4.4|9=57|35=0|34=94|49=T2Kauaiblk4|52=20201201-13:49:54.996|56=MA|10=138|8=FIX.4.4|9=57|35=0|34=95|49=T2Kauaiblk4|52=20201201-13:51:24.997|56=MA|10=130|8=FIX.4.4|9=57|35=0|34=96|49=T2Kauaiblk4|52=20201201-13:52:54.997|56=MA|10=135|8=FIX.4.4|9=57|35=0|34=97|49=T2Kauaiblk4|52=20201201-13:54:24.998|56=MA|10=136|8=FIX.4.4|9=57|35=0|34=98|49=T2Kauaiblk4|52=20201201-13:55:55.000|56=MA|10=116|8=FIX.4.4|9=57|35=0|34=99|49=T2Kauaiblk4|52=20201201-13:57:25.999|56=MA|10=143|8=FIX.4.4|9=58|35=0|34=100|49=T2Kauaiblk4|52=20201201-13:58:55.999|56=MA|10=179|8=FIX.4.4|9=58|35=0|34=101|49=T2Kauaiblk4|52=20201201-14:00:26.001|56=MA|10=140|8=FIX.4.4|9=58|35=0|34=102|49=T2Kauaiblk4|52=20201201-14:01:56.001|56=MA|10=145|8=FIX.4.4|9=58|35=0|34=103|49=T2Kauaiblk4|52=20201201-14:03:26.002|56=MA|10=146|8=FIX.4.4|9=58|35=0|34=104|49=T2Kauaiblk4|52=20201201-14:04:56.002|56=MA|10=151|8=FIX.4.4|9=58|35=0|34=105|49=T2Kauaiblk4|52=20201201-14:06:26.002|56=MA|10=151|8=FIX.4.4|9=58|35=0|34=106|49=T2Kauaiblk4|52=20201201-14:07:56.003|56=MA|10=157|8=FIX.4.4|9=58|35=0|34=107|49=T2Kauaiblk4|52=20201201-14:09:26.003|56=MA|10=157|8=FIX.4.4|9=58|35=0|34=108|49=T2Kauaiblk4|52=20201201-14:10:56.004|56=MA|10=154|8=FIX.4.4|9=58|35=0|34=109|49=T2Kauaiblk4|52=20201201-14:12:26.005|56=MA|10=155|8=FIX.4.4|9=58|35=0|34=110|49=T2Kauaiblk4|52=20201201-14:13:57.004|56=MA|10=151|8=FIX.4.4|9=58|35=0|34=111|49=T2Kauaiblk4|52=20201201-14:15:27.004|56=MA|10=151|8=FIX.4.4|9=58|35=0|34=112|49=T2Kauaiblk4|52=20201201-14:16:57.005|56=MA|10=157|8=FIX.4.4|9=58|35=0|34=113|49=T2Kauaiblk4|52=20201201-14:18:27.006|56=MA|10=158|8=FIX.4.4|9=58|35=0|34=114|49=T2Kauaiblk4|52=20201201-14:19:57.007|56=MA|10=164|8=FIX.4.4|9=58|35=0|34=115|49=T2Kauaiblk4|52=20201201-14:21:28.006|56=MA|10=155|8=FIX.4.4|9=58|35=0|34=116|49=T2Kauaiblk4|52=20201201-14:22:58.007|56=MA|10=161|8=FIX.4.4|9=58|35=0|34=117|49=T2Kauaiblk4|52=20201201-14:24:28.007|56=MA|10=161|8=FIX.4.4|9=58|35=0|34=118|49=T2Kauaiblk4|52=20201201-14:25:58.007|56=MA|10=166|8=FIX.4.4|9=58|35=0|34=119|49=T2Kauaiblk4|52=20201201-14:27:28.009|56=MA|10=168|8=FIX.4.4|9=58|35=0|34=120|49=T2Kauaiblk4|52=20201201-14:28:59.009|56=MA|10=165|8=FIX.4.4|9=58|35=0|34=121|49=T2Kauaiblk4|52=20201201-14:30:30.008|56=MA|10=147|8=FIX.4.4|9=58|35=0|34=122|49=T2Kauaiblk4|52=20201201-14:32:00.009|56=MA|10=148|8=FIX.4.4|9=58|35=0|34=123|49=T2Kauaiblk4|52=20201201-14:33:30.009|56=MA|10=153|8=FIX.4.4|9=58|35=0|34=124|49=T2Kauaiblk4|52=20201201-14:35:00.010|56=MA|10=145|8=FIX.4.4|9=58|35=0|34=125|49=T2Kauaiblk4|52=20201201-14:36:30.011|56=MA|10=151|8=FIX.4.4|9=58|35=0|34=126|49=T2Kauaiblk4|52=20201201-14:38:01.010|56=MA|10=151|8=FIX.4.4|9=58|35=0|34=127|49=T2Kauaiblk4|52=20201201-14:39:31.010|56=MA|10=156|8=FIX.4.4|9=58|35=0|34=128|49=T2Kauaiblk4|52=20201201-14:41:01.012|56=MA|10=149|8=FIX.4.4|9=58|35=0|34=129|49=T2Kauaiblk4|52=20201201-14:42:31.012|56=MA|10=154|8=FIX.4.4|9=58|35=0|34=130|49=T2Kauaiblk4|52=20201201-14:44:01.015|56=MA|10=148|8=FIX.4.4|9=58|35=0|34=131|49=T2Kauaiblk4|52=20201201-14:45:31.016|56=MA|10=154|8=FIX.4.4|9=58|35=0|34=132|49=T2Kauaiblk4|52=20201201-14:47:01.017|56=MA|10=155|8=FIX.4.4|9=58|35=0|34=133|49=T2Kauaiblk4|52=20201201-14:48:31.019|56=MA|10=162|8=FIX.4.4|9=58|35=0|34=134|49=T2Kauaiblk4|52=20201201-14:50:01.021|56=MA|10=146|8=FIX.4.4|9=58|35=0|34=135|49=T2Kauaiblk4|52=20201201-14:51:31.023|56=MA|10=153|8=FIX.4.4|9=58|35=0|34=136|49=T2Kauaiblk4|52=20201201-14:53:01.024|56=MA|10=154|8=FIX.4.4|9=58|35=0|34=137|49=T2Kauaiblk4|52=20201201-14:54:31.025|56=MA|10=160|8=FIX.4.4|9=58|35=0|34=138|49=T2Kauaiblk4|52=20201201-14:56:01.027|56=MA|10=162|8=FIX.4.4|9=58|35=0|34=139|49=T2Kauaiblk4|52=20201201-14:57:31.028|56=MA|10=168|8=FIX.4.4|9=58|35=0|34=140|49=T2Kauaiblk4|52=20201201-14:59:01.030|56=MA|10=152|8=FIX.4.4|9=58|35=0|34=141|49=T2Kauaiblk4|52=20201201-15:00:31.032|56=MA|10=145|8=FIX.4.4|9=58|35=0|34=142|49=T2Kauaiblk4|52=20201201-15:02:01.034|56=MA|10=147|8=FIX.4.4|9=58|35=0|34=143|49=T2Kauaiblk4|52=20201201-15:03:31.034|56=MA|10=152|8=FIX.4.4|9=58|35=0|34=144|49=T2Kauaiblk4|52=20201201-15:05:01.035|56=MA|10=153|8=FIX.4.4|9=58|35=0|34=145|49=T2Kauaiblk4|52=20201201-15:06:31.037|56=MA|10=160|8=FIX.4.4|9=58|35=0|34=146|49=T2Kauaiblk4|52=20201201-15:08:01.038|56=MA|10=161|8=FIX.4.4|9=58|35=0|34=147|49=T2Kauaiblk4|52=20201201-15:09:31.039|56=MA|10=167|8=FIX.4.4|9=58|35=0|34=148|49=T2Kauaiblk4|52=20201201-15:11:01.040|56=MA|10=150|8=FIX.4.4|9=58|35=0|34=149|49=T2Kauaiblk4|52=20201201-15:12:31.042|56=MA|10=157|8=FIX.4.4|9=58|35=0|34=150|49=T2Kauaiblk4|52=20201201-15:14:01.044|56=MA|10=150|8=FIX.4.4|9=58|35=0|34=151|49=T2Kauaiblk4|52=20201201-15:15:31.044|56=MA|10=155|8=FIX.4.4|9=58|35=0|34=152|49=T2Kauaiblk4|52=20201201-15:17:01.045|56=MA|10=156|8=FIX.4.4|9=58|35=0|34=153|49=T2Kauaiblk4|52=20201201-15:18:31.046|56=MA|10=162|8=FIX.4.4|9=58|35=0|34=154|49=T2Kauaiblk4|52=20201201-15:20:01.047|56=MA|10=154|8=FIX.4.4|9=58|35=0|34=155|49=T2Kauaiblk4|52=20201201-15:21:31.049|56=MA|10=161|8=FIX.4.4|9=58|35=0|34=156|49=T2Kauaiblk4|52=20201201-15:23:01.049|56=MA|10=161|8=FIX.4.4|9=58|35=0|34=157|49=T2Kauaiblk4|52=20201201-15:24:31.051|56=MA|10=159|8=FIX.4.4|9=58|35=0|34=158|49=T2Kauaiblk4|52=20201201-15:26:01.051|56=MA|10=159|8=FIX.4.4|9=58|35=0|34=159|49=T2Kauaiblk4|52=20201201-15:27:31.054|56=MA|10=167|8=FIX.4.4|9=58|35=0|34=160|49=T2Kauaiblk4|52=20201201-15:29:01.054|56=MA|10=158|8=FIX.4.4|9=58|35=0|34=161|49=T2Kauaiblk4|52=20201201-15:30:31.055|56=MA|10=155|8=FIX.4.4|9=58|35=0|34=162|49=T2Kauaiblk4|52=20201201-15:32:01.056|56=MA|10=156|8=FIX.4.4|9=58|35=0|34=163|49=T2Kauaiblk4|52=20201201-15:33:31.056|56=MA|10=161|8=FIX.4.4|9=58|35=0|34=164|49=T2Kauaiblk4|52=20201201-15:35:01.057|56=MA|10=162|8=FIX.4.4|9=58|35=0|34=165|49=T2Kauaiblk4|52=20201201-15:36:31.058|56=MA|10=168|8=FIX.4.4|9=58|35=0|34=166|49=T2Kauaiblk4|52=20201201-15:38:01.060|56=MA|10=161|8=FIX.4.4|9=58|35=0|34=167|49=T2Kauaiblk4|52=20201201-15:39:31.060|56=MA|10=166|8=FIX.4.4|9=58|35=0|34=168|49=T2Kauaiblk4|52=20201201-15:41:01.061|56=MA|10=158|8=FIX.4.4|9=58|35=0|34=169|49=T2Kauaiblk4|52=20201201-15:42:31.062|56=MA|10=164|8=FIX.4.4|9=58|35=0|34=170|49=T2Kauaiblk4|52=20201201-15:44:01.062|56=MA|10=155|8=FIX.4.4|9=58|35=0|34=171|49=T2Kauaiblk4|52=20201201-15:45:31.063|56=MA|10=161|8=FIX.4.4|9=58|35=0|34=172|49=T2Kauaiblk4|52=20201201-15:47:01.064|56=MA|10=162|8=FIX.4.4|9=58|35=0|34=173|49=T2Kauaiblk4|52=20201201-15:48:31.064|56=MA|10=167|8=FIX.4.4|9=58|35=0|34=174|49=T2Kauaiblk4|52=20201201-15:50:01.065|56=MA|10=159|8=FIX.4.4|9=58|35=0|34=175|49=T2Kauaiblk4|52=20201201-15:51:31.066|56=MA|10=165|8=FIX.4.4|9=58|35=0|34=176|49=T2Kauaiblk4|52=20201201-15:53:01.067|56=MA|10=166|8=FIX.4.4|9=58|35=0|34=177|49=T2Kauaiblk4|52=20201201-15:54:31.069|56=MA|10=173|8=FIX.4.4|9=58|35=0|34=178|49=T2Kauaiblk4|52=20201201-15:56:02.069|56=MA|10=174|8=FIX.4.4|9=58|35=0|34=179|49=T2Kauaiblk4|52=20201201-15:57:32.070|56=MA|10=171|8=FIX.4.4|9=58|35=0|34=180|49=T2Kauaiblk4|52=20201201-15:59:03.069|56=MA|10=171|8=FIX.4.4|9=58|35=0|34=181|49=T2Kauaiblk4|52=20201201-16:00:33.071|56=MA|10=155|8=FIX.4.4|9=58|35=0|34=182|49=T2Kauaiblk4|52=20201201-16:02:04.071|56=MA|10=156|8=FIX.4.4|9=58|35=0|34=183|49=T2Kauaiblk4|52=20201201-16:03:34.071|56=MA|10=161|8=FIX.4.4|9=58|35=0|34=184|49=T2Kauaiblk4|52=20201201-16:05:04.072|56=MA|10=162|8=FIX.4.4|9=58|35=0|34=185|49=T2Kauaiblk4|52=20201201-16:06:34.073|56=MA|10=168|8=FIX.4.4|9=58|35=0|34=186|49=T2Kauaiblk4|52=20201201-16:08:04.073|56=MA|10=168|8=FIX.4.4|9=58|35=0|34=187|49=T2Kauaiblk4|52=20201201-16:09:34.075|56=MA|10=175|8=FIX.4.4|9=58|35=0|34=188|49=T2Kauaiblk4|52=20201201-16:11:04.075|56=MA|10=166|8=FIX.4.4|9=58|35=0|34=189|49=T2Kauaiblk4|52=20201201-16:12:34.075|56=MA|10=171|8=FIX.4.4|9=58|35=0|34=190|49=T2Kauaiblk4|52=20201201-16:14:04.075|56=MA|10=162|8=FIX.4.4|9=58|35=0|34=191|49=T2Kauaiblk4|52=20201201-16:15:34.077|56=MA|10=169|8=FIX.4.4|9=58|35=0|34=192|49=T2Kauaiblk4|52=20201201-16:17:04.077|56=MA|10=169|8=FIX.4.4|9=58|35=0|34=193|49=T2Kauaiblk4|52=20201201-16:18:34.077|56=MA|10=174|8=FIX.4.4|9=58|35=0|34=194|49=T2Kauaiblk4|52=20201201-16:20:04.077|56=MA|10=165|8=FIX.4.4|9=58|35=0|34=195|49=T2Kauaiblk4|52=20201201-16:21:34.079|56=MA|10=172|8=FIX.4.4|9=58|35=0|34=196|49=T2Kauaiblk4|52=20201201-16:23:04.080|56=MA|10=164|8=FIX.4.4|9=58|35=0|34=197|49=T2Kauaiblk4|52=20201201-16:24:35.079|56=MA|10=178|8=FIX.4.4|9=58|35=0|34=198|49=T2Kauaiblk4|52=20201201-16:26:05.080|56=MA|10=170|8=FIX.4.4|9=58|35=0|34=199|49=T2Kauaiblk4|52=20201201-16:27:35.080|56=MA|10=175|8=FIX.4.4|9=58|35=0|34=200|49=T2Kauaiblk4|52=20201201-16:29:05.080|56=MA|10=157|8=FIX.4.4|9=58|35=0|34=201|49=T2Kauaiblk4|52=20201201-16:30:35.081|56=MA|10=154|8=FIX.4.4|9=58|35=0|34=202|49=T2Kauaiblk4|52=20201201-16:32:05.081|56=MA|10=154|8=FIX.4.4|9=58|35=0|34=203|49=T2Kauaiblk4|52=20201201-16:33:35.081|56=MA|10=159|8=FIX.4.4|9=58|35=0|34=204|49=T2Kauaiblk4|52=20201201-16:35:05.083|56=MA|10=161|8=FIX.4.4|9=58|35=0|34=205|49=T2Kauaiblk4|52=20201201-16:36:35.083|56=MA|10=166|8=FIX.4.4|9=58|35=0|34=206|49=T2Kauaiblk4|52=20201201-16:38:05.084|56=MA|10=167|8=FIX.4.4|9=58|35=0|34=207|49=T2Kauaiblk4|52=20201201-16:39:36.084|56=MA|10=173|8=FIX.4.4|9=58|35=0|34=208|49=T2Kauaiblk4|52=20201201-16:41:06.084|56=MA|10=164|8=FIX.4.4|9=58|35=0|34=209|49=T2Kauaiblk4|52=20201201-16:42:36.085|56=MA|10=170|8=FIX.4.4|9=58|35=0|34=210|49=T2Kauaiblk4|52=20201201-16:44:07.084|56=MA|10=161|8=FIX.4.4|9=58|35=0|34=211|49=T2Kauaiblk4|52=20201201-16:45:37.085|56=MA|10=167|8=FIX.4.4|9=58|35=0|34=212|49=T2Kauaiblk4|52=20201201-16:47:07.086|56=MA|10=168|8=FIX.4.4|9=58|35=0|34=213|49=T2Kauaiblk4|52=20201201-16:48:37.087|56=MA|10=174|8=FIX.4.4|9=58|35=0|34=214|49=T2Kauaiblk4|52=20201201-16:50:07.087|56=MA|10=165|8=FIX.4.4|9=58|35=0|34=215|49=T2Kauaiblk4|52=20201201-16:51:37.088|56=MA|10=171|8=FIX.4.4|9=58|35=0|34=216|49=T2Kauaiblk4|52=20201201-16:53:08.086|56=MA|10=170|8=FIX.4.4|9=58|35=0|34=217|49=T2Kauaiblk4|52=20201201-16:54:38.087|56=MA|10=176|8=FIX.4.4|9=58|35=0|34=218|49=T2Kauaiblk4|52=20201201-16:56:08.087|56=MA|10=176|8=FIX.4.4|9=58|35=0|34=219|49=T2Kauaiblk4|52=20201201-16:57:38.088|56=MA|10=182|8=FIX.4.4|9=58|35=0|34=220|49=T2Kauaiblk4|52=20201201-16:59:08.090|56=MA|10=166|8=FIX.4.4|9=58|35=0|34=221|49=T2Kauaiblk4|52=20201201-17:00:38.091|56=MA|10=158|8=FIX.4.4|9=58|35=0|34=222|49=T2Kauaiblk4|52=20201201-17:02:08.094|56=MA|10=161|8=FIX.4.4|9=58|35=0|34=223|49=T2Kauaiblk4|52=20201201-17:03:38.096|56=MA|10=168|8=FIX.4.4|9=58|35=0|34=224|49=T2Kauaiblk4|52=20201201-17:05:08.097|56=MA|10=169|8=FIX.4.4|9=58|35=0|34=225|49=T2Kauaiblk4|52=20201201-17:06:38.100|56=MA|10=159|8=FIX.4.4|9=58|35=0|34=226|49=T2Kauaiblk4|52=20201201-17:08:08.100|56=MA|10=159|8=FIX.4.4|9=58|35=0|34=227|49=T2Kauaiblk4|52=20201201-17:09:38.103|56=MA|10=167|8=FIX.4.4|9=58|35=0|34=228|49=T2Kauaiblk4|52=20201201-17:11:08.104|56=MA|10=159|8=FIX.4.4|9=58|35=0|34=229|49=T2Kauaiblk4|52=20201201-17:12:38.106|56=MA|10=166|8=FIX.4.4|9=58|35=0|34=230|49=T2Kauaiblk4|52=20201201-17:14:08.107|56=MA|10=158|8=FIX.4.4|9=58|35=0|34=231|49=T2Kauaiblk4|52=20201201-17:15:38.108|56=MA|10=164|8=FIX.4.4|9=58|35=0|34=232|49=T2Kauaiblk4|52=20201201-17:17:08.109|56=MA|10=165|8=FIX.4.4|9=58|35=0|34=233|49=T2Kauaiblk4|52=20201201-17:18:38.111|56=MA|10=163|8=FIX.4.4|9=58|35=0|34=234|49=T2Kauaiblk4|52=20201201-17:20:08.112|56=MA|10=155|8=FIX.4.4|9=58|35=0|34=235|49=T2Kauaiblk4|52=20201201-17:21:38.114|56=MA|10=162|8=FIX.4.4|9=58|35=0|34=236|49=T2Kauaiblk4|52=20201201-17:23:08.115|56=MA|10=163|8=FIX.4.4|9=58|35=0|34=237|49=T2Kauaiblk4|52=20201201-17:24:38.116|56=MA|10=169|8=FIX.4.4|9=58|35=0|34=238|49=T2Kauaiblk4|52=20201201-17:26:08.118|56=MA|10=171|8=FIX.4.4|9=58|35=0|34=239|49=T2Kauaiblk4|52=20201201-17:27:38.119|56=MA|10=177|8=FIX.4.4|9=58|35=0|34=240|49=T2Kauaiblk4|52=20201201-17:29:08.120|56=MA|10=160|8=FIX.4.4|9=58|35=0|34=241|49=T2Kauaiblk4|52=20201201-17:30:38.122|56=MA|10=158|8=FIX.4.4|9=58|35=0|34=242|49=T2Kauaiblk4|52=20201201-17:32:08.123|56=MA|10=159|8=FIX.4.4|9=58|35=0|34=243|49=T2Kauaiblk4|52=20201201-17:33:38.126|56=MA|10=167|8=FIX.4.4|9=58|35=0|34=244|49=T2Kauaiblk4|52=20201201-17:35:08.126|56=MA|10=167|8=FIX.4.4|9=58|35=0|34=245|49=T2Kauaiblk4|52=20201201-17:36:38.126|56=MA|10=172|8=FIX.4.4|9=58|35=0|34=246|49=T2Kauaiblk4|52=20201201-17:38:08.129|56=MA|10=175|8=FIX.4.4|9=58|35=0|34=247|49=T2Kauaiblk4|52=20201201-17:39:38.129|56=MA|10=180|8=FIX.4.4|9=58|35=0|34=248|49=T2Kauaiblk4|52=20201201-17:41:08.129|56=MA|10=171|8=FIX.4.4|9=58|35=0|34=249|49=T2Kauaiblk4|52=20201201-17:42:38.131|56=MA|10=169|8=FIX.4.4|9=58|35=0|34=250|49=T2Kauaiblk4|52=20201201-17:44:08.132|56=MA|10=161|8=FIX.4.4|9=58|35=0|34=251|49=T2Kauaiblk4|52=20201201-17:45:38.133|56=MA|10=167|8=FIX.4.4|9=58|35=0|34=252|49=T2Kauaiblk4|52=20201201-17:47:08.134|56=MA|10=168|8=FIX.4.4|9=58|35=0|34=253|49=T2Kauaiblk4|52=20201201-17:48:38.136|56=MA|10=175|8=FIX.4.4|9=58|35=0|34=254|49=T2Kauaiblk4|52=20201201-17:50:08.136|56=MA|10=166|8=FIX.4.4|9=58|35=0|34=255|49=T2Kauaiblk4|52=20201201-17:51:38.137|56=MA|10=172|8=FIX.4.4|9=58|35=0|34=256|49=T2Kauaiblk4|52=20201201-17:53:08.138|56=MA|10=173|8=FIX.4.4|9=58|35=0|34=257|49=T2Kauaiblk4|52=20201201-17:54:38.139|56=MA|10=179|8=FIX.4.4|9=58|35=0|34=258|49=T2Kauaiblk4|52=20201201-17:56:08.139|56=MA|10=179|8=FIX.4.4|9=58|35=0|34=259|49=T2Kauaiblk4|52=20201201-17:57:38.140|56=MA|10=176|8=FIX.4.4|9=58|35=0|34=260|49=T2Kauaiblk4|52=20201201-17:59:08.141|56=MA|10=168|8=FIX.4.4|9=58|35=0|34=261|49=T2Kauaiblk4|52=20201201-18:00:38.142|56=MA|10=160|8=FIX.4.4|9=91|35=A|34=1|49=T2Kauaiblk4|52=20210212-16:38:43.303|56=MA|98=0|108=90|95=8|96=3.0.0rc5|141=Y|10=034|8=FIX.4.4|9=699|35=E|34=2|49=T2Kauaiblk4|52=20210212-16:38:46.170|56=MA|66=ListID-120221-1390|394=2|68=5|73=5|11=ClOrdID-1391|22=4|38=100000|44=100|48=US06051GEN51|54=1|55=[N/A/]|63=3|67=1|423=1|29726=100.25|453=1|448=T2Kauaiblk4|447=C|452=11|11=ClOrdID-1392|22=4|38=100000|44=101|48=US40434AAB52|54=1|55=[N/A]|63=3|67=2|29726=101.25|11=ClOrdID-1393|22=4|38=130000|44=102|48=US95709TAH32|54=1|55=[N/A/]|63=3|67=1|29726=102.25|453=1|448=T2Kauaiblk4|447=C|452=11|11=ClOrdID-1394|22=4|38=250000|44=103|48=US427866AZ15|54=1|55=[N/A/]|63=3|67=1|29726=103.25|453=1|448=T2Kauaiblk4|447=C|452=11|11=ClOrdID-1395|22=4|38=350000|44=104|48=US29379VAW37|54=1|55=[N/A/]|63=3|67=1|29726=104.25|453=1|448=T2Kauaiblk4|447=C|452=11|10=152|8=FIX.4.4|9=78|35=5|34=3|49=T2Kauaiblk4|52=20210212-16:39:32.301|56=MA|58=Session Tab Closed|10=132|