8=FIX.4.4|9=82|35=A|34=1|49=MMABAXUK|52=20181127-10:46:55.477|56=MA|98=0|108=90|95=8|96=3.0.0rc4|10=128|8=FIX.4.4|9=82|35=A|34=2|49=MMABAXUK|52=20181127-10:47:39.475|56=MA|98=0|108=90|95=8|96=3.0.0rc4|10=130|8=FIX.4.4|9=82|35=A|34=3|49=MMABAXUK|52=20181127-11:25:35.471|56=MA|98=0|108=90|95=8|96=3.0.0rc4|10=120|8=FIX.4.4|9=88|35=A|34=1|49=MMABAXUK|52=20181127-11:25:52.462|56=MA|98=0|108=90|95=8|96=3.0.0rc4|141=Y|10=168|8=FIX.4.4|9=88|35=A|34=1|49=MMABAXUK|52=20181127-11:34:25.293|56=MA|98=0|108=90|95=8|96=3.0.0rc4|141=Y|10=170|8=FIX.4.4|9=88|35=A|34=1|49=MMABAXUK|52=20181127-11:38:45.289|56=MA|98=0|108=90|95=8|96=3.0.0rc4|141=Y|10=181|8=FIX.4.4|9=88|35=A|34=1|49=MMABAXUK|52=20181127-11:49:16.249|56=MA|98=0|108=90|95=8|96=3.0.0rc4|141=Y|10=177|8=FIX.4.4|9=88|35=A|34=1|49=MMABAXUK|52=20181127-12:14:25.684|56=MA|98=0|108=90|95=8|96=3.0.0rc4|141=Y|10=173|8=FIX.4.4|9=88|35=A|34=1|49=MMABAXUK|52=20181127-12:15:34.682|56=MA|98=0|108=90|95=8|96=3.0.0rc4|141=Y|10=172|8=FIX.4.4|9=88|35=A|34=1|49=MMABAXUK|52=20181127-13:17:41.660|56=MA|98=0|108=90|95=8|96=3.0.0rc4|141=Y|10=169|8=FIX.4.4|9=88|35=A|34=1|49=MMABAXUK|52=20181127-13:18:17.627|56=MA|98=0|108=90|95=8|96=3.0.0rc4|141=Y|10=176|8=FIX.4.4|9=88|35=A|34=1|49=MMABAXUK|52=20181127-17:12:59.556|56=MA|98=0|108=90|95=8|96=3.0.0rc4|141=Y|10=181|8=FIX.4.4|9=82|35=A|34=1|49=MMABAXUK|52=20181128-08:35:08.660|56=MA|98=0|108=90|95=8|96=3.0.0rc4|10=126|8=FIX.4.4|9=53|35=0|34=2|49=MMABAXUK|52=20181128-08:36:39.603|56=MA|10=198|8=FIX.4.4|9=53|35=0|34=3|49=MMABAXUK|52=20181128-08:38:09.658|56=MA|10=208|8=FIX.4.4|9=53|35=0|34=4|49=MMABAXUK|52=20181128-08:39:39.659|56=MA|10=214|8=FIX.4.4|9=53|35=0|34=5|49=MMABAXUK|52=20181128-08:41:10.593|56=MA|10=194|8=FIX.4.4|9=53|35=0|34=6|49=MMABAXUK|52=20181128-08:42:40.601|56=MA|10=189|8=FIX.4.4|9=53|35=0|34=7|49=MMABAXUK|52=20181128-08:44:10.656|56=MA|10=199|8=FIX.4.4|9=53|35=0|34=8|49=MMABAXUK|52=20181128-08:45:40.659|56=MA|10=207|8=FIX.4.4|9=53|35=0|34=9|49=MMABAXUK|52=20181128-08:47:11.545|56=MA|10=202|8=FIX.4.4|9=54|35=0|34=10|49=MMABAXUK|52=20181128-08:48:41.605|56=MA|10=244|8=FIX.4.4|9=54|35=0|34=11|49=MMABAXUK|52=20181128-08:50:11.649|56=MA|10=243|8=FIX.4.4|9=54|35=0|34=12|49=MMABAXUK|52=20181128-08:51:42.524|56=MA|10=241|8=FIX.4.4|9=54|35=0|34=13|49=MMABAXUK|52=20181128-08:53:12.603|56=MA|10=239|8=FIX.4.4|9=54|35=0|34=14|49=MMABAXUK|52=20181128-08:54:42.605|56=MA|10=246|8=FIX.4.4|9=190|35=D|34=15|49=MMABAXUK|52=20181128-08:56:12.360|56=MA|11=MICKABAX28111801|453=1|448=MMABAXUK|447=C|452=11|55=NA|48=XS0042821321|22=4|460=3|54=1|60=20181128-08:56:12.360|38=500000|40=3|423=1|10=009|8=FIX.4.4|9=54|35=0|34=16|49=MMABAXUK|52=20181128-08:57:42.659|56=MA|10=004|8=FIX.4.4|9=54|35=0|34=17|49=MMABAXUK|52=20181128-08:59:13.654|56=MA|10=000|8=FIX.4.4|9=54|35=0|34=18|49=MMABAXUK|52=20181128-09:00:44.658|56=MA|10=252|8=FIX.4.4|9=54|35=0|34=19|49=MMABAXUK|52=20181128-09:02:15.658|56=MA|10=253|8=FIX.4.4|9=54|35=0|34=20|49=MMABAXUK|52=20181128-09:03:46.590|56=MA|10=245|8=FIX.4.4|9=54|35=0|34=21|49=MMABAXUK|52=20181128-09:05:16.652|56=MA|10=244|8=FIX.4.4|9=54|35=0|34=22|49=MMABAXUK|52=20181128-09:06:46.655|56=MA|10=252|8=FIX.4.4|9=54|35=0|34=23|49=MMABAXUK|52=20181128-09:08:17.531|56=MA|10=246|8=FIX.4.4|9=54|35=0|34=24|49=MMABAXUK|52=20181128-09:09:47.611|56=MA|10=250|8=FIX.4.4|9=54|35=0|34=25|49=MMABAXUK|52=20181128-09:11:17.641|56=MA|10=244|8=FIX.4.4|9=54|35=0|34=26|49=MMABAXUK|52=20181128-09:12:48.641|56=MA|10=250|8=FIX.4.4|9=54|35=0|34=27|49=MMABAXUK|52=20181128-09:14:19.640|56=MA|10=250|8=FIX.4.4|9=54|35=0|34=28|49=MMABAXUK|52=20181128-09:15:49.640|56=MA|10=255|8=FIX.4.4|9=54|35=0|34=29|49=MMABAXUK|52=20181128-09:17:19.640|56=MA|10=255|8=FIX.4.4|9=54|35=0|34=30|49=MMABAXUK|52=20181128-09:18:50.638|56=MA|10=250|8=FIX.4.4|9=184|35=D|34=31|49=MMABAXUK|52=20181128-09:19:06.595|56=MA|11=mmad20181128-02|453=1|448=MMABAXUK|447=C|452=11|55=NA|48=XS0042821321|22=4|54=2|60=20181128-09:19:06.595|38=1000000|40=1|423=1|10=051|8=FIX.4.4|9=54|35=0|34=32|49=MMABAXUK|52=20181128-09:20:36.638|56=MA|10=249|8=FIX.4.4|9=54|35=0|34=33|49=MMABAXUK|52=20181128-09:22:06.638|56=MA|10=249|8=FIX.4.4|9=596|35=E|34=34|49=MMABAXUK|52=20181128-09:22:55.782|56=MA|66=FIX44-ListID-0|394=2|68=5|73=5|11=FIX44-List-ClOrdID-1|22=4|38=100000|48=XS0542534192|54=1|55=[N/A/]|67=1|423=1|453=1|448=MMABAXUK|447=C|452=11|11=FIX44-List-ClOrdID-2|22=4|38=120000|48=FR0013241536|54=1|55=[N/A]|67=2|11=FIX44-List-ClOrdID-3|22=4|38=130000|48=DE000HLB4D56|54=1|55=[N/A/]|67=1|453=1|448=MMABAXUK|447=C|452=11|11=FIX44-List-ClOrdID-4|22=4|38=250000|48=XS0987936076|54=1|55=[N/A/]|67=1|453=1|448=MMABAXUK|447=C|452=11|11=FIX44-List-ClOrdID-5|22=4|38=350000|48=XS0401048102|54=1|55=[N/A/]|67=1|453=1|448=MMABAXUK|447=C|452=11|10=067|8=FIX.4.4|9=54|35=0|34=35|49=MMABAXUK|52=20181128-09:24:26.637|56=MA|10=254|8=FIX.4.4|9=54|35=0|34=36|49=MMABAXUK|52=20181128-09:25:56.637|56=MA|10=003|8=FIX.4.4|9=54|35=0|34=37|49=MMABAXUK|52=20181128-09:27:26.637|56=MA|10=003|8=FIX.4.4|9=54|35=0|34=38|49=MMABAXUK|52=20181128-09:28:56.637|56=MA|10=008|8=FIX.4.4|9=54|35=0|34=39|49=MMABAXUK|52=20181128-09:30:26.637|56=MA|10=255|8=FIX.4.4|9=54|35=0|34=40|49=MMABAXUK|52=20181128-09:31:57.636|56=MA|10=251|8=FIX.4.4|9=54|35=0|34=41|49=MMABAXUK|52=20181128-09:33:28.635|56=MA|10=251|8=FIX.4.4|9=54|35=0|34=42|49=MMABAXUK|52=20181128-09:34:59.604|56=MA|10=253|8=FIX.4.4|9=54|35=0|34=43|49=MMABAXUK|52=20181128-09:36:29.634|56=MA|10=000|8=FIX.4.4|9=54|35=0|34=44|49=MMABAXUK|52=20181128-09:38:00.633|56=MA|10=247|8=FIX.4.4|9=54|35=0|34=45|49=MMABAXUK|52=20181128-09:39:31.601|56=MA|10=248|8=FIX.4.4|9=54|35=0|34=46|49=MMABAXUK|52=20181128-09:41:01.632|56=MA|10=243|8=FIX.4.4|9=54|35=0|34=47|49=MMABAXUK|52=20181128-09:42:31.632|56=MA|10=248|8=FIX.4.4|9=54|35=0|34=48|49=MMABAXUK|52=20181128-09:44:02.603|56=MA|10=247|8=FIX.4.4|9=54|35=0|34=49|49=MMABAXUK|52=20181128-09:45:32.631|56=MA|10=253|8=FIX.4.4|9=54|35=0|34=50|49=MMABAXUK|52=20181128-09:47:02.631|56=MA|10=244|8=FIX.4.4|9=54|35=0|34=51|49=MMABAXUK|52=20181128-09:48:33.598|56=MA|10=006|8=FIX.4.4|9=54|35=0|34=52|49=MMABAXUK|52=20181128-09:50:03.601|56=MA|10=238|8=FIX.4.4|9=54|35=0|34=53|49=MMABAXUK|52=20181128-09:51:33.630|56=MA|10=245|8=FIX.4.4|9=54|35=0|34=54|49=MMABAXUK|52=20181128-09:53:04.602|56=MA|10=245|8=FIX.4.4|9=54|35=0|34=55|49=MMABAXUK|52=20181128-09:54:34.629|56=MA|10=003|8=FIX.4.4|9=54|35=0|34=56|49=MMABAXUK|52=20181128-09:56:05.605|56=MA|10=254|8=FIX.4.4|9=54|35=0|34=57|49=MMABAXUK|52=20181128-09:57:35.627|56=MA|10=007|8=FIX.4.4|9=54|35=0|34=58|49=MMABAXUK|52=20181128-09:59:06.518|56=MA|10=007|8=FIX.4.4|9=54|35=0|34=59|49=MMABAXUK|52=20181128-10:00:36.519|56=MA|10=246|8=FIX.4.4|9=54|35=0|34=60|49=MMABAXUK|52=20181128-10:02:06.563|56=MA|10=236|8=FIX.4.4|9=54|35=0|34=61|49=MMABAXUK|52=20181128-10:03:36.604|56=MA|10=237|8=FIX.4.4|9=54|35=0|34=62|49=MMABAXUK|52=20181128-10:05:06.623|56=MA|10=238|8=FIX.4.4|9=54|35=0|34=63|49=MMABAXUK|52=20181128-10:06:36.623|56=MA|10=243|8=FIX.4.4|9=54|35=0|34=64|49=MMABAXUK|52=20181128-10:08:07.603|56=MA|10=242|8=FIX.4.4|9=54|35=0|34=65|49=MMABAXUK|52=20181128-10:09:37.622|56=MA|10=248|8=FIX.4.4|9=54|35=0|34=66|49=MMABAXUK|52=20181128-10:11:08.597|56=MA|10=251|8=FIX.4.4|9=54|35=0|34=67|49=MMABAXUK|52=20181128-10:12:38.621|56=MA|10=244|8=FIX.4.4|9=54|35=0|34=68|49=MMABAXUK|52=20181128-10:14:08.621|56=MA|10=244|8=FIX.4.4|9=54|35=0|34=69|49=MMABAXUK|52=20181128-10:15:39.601|56=MA|10=248|8=FIX.4.4|9=54|35=0|34=70|49=MMABAXUK|52=20181128-10:17:09.622|56=MA|10=242|8=FIX.4.4|9=54|35=0|34=71|49=MMABAXUK|52=20181128-10:18:40.602|56=MA|10=237|8=FIX.4.4|9=54|35=0|34=72|49=MMABAXUK|52=20181128-10:20:10.613|56=MA|10=230|8=FIX.4.4|9=54|35=0|34=73|49=MMABAXUK|52=20181128-10:21:40.621|56=MA|10=234|8=FIX.4.4|9=54|35=0|34=74|49=MMABAXUK|52=20181128-10:23:11.598|56=MA|10=248|8=FIX.4.4|9=54|35=0|34=75|49=MMABAXUK|52=20181128-10:24:41.619|56=MA|10=247|8=FIX.4.4|9=54|35=0|34=76|49=MMABAXUK|52=20181128-10:26:12.519|56=MA|10=247|8=FIX.4.4|9=54|35=0|34=77|49=MMABAXUK|52=20181128-10:27:42.522|56=MA|10=246|8=FIX.4.4|9=54|35=0|34=78|49=MMABAXUK|52=20181128-10:29:12.575|56=MA|10=254|8=FIX.4.4|9=54|35=0|34=79|49=MMABAXUK|52=20181128-10:30:42.631|56=MA|10=243|8=FIX.4.4|9=54|35=0|34=80|49=MMABAXUK|52=20181128-10:32:12.634|56=MA|10=237|8=FIX.4.4|9=54|35=0|34=81|49=MMABAXUK|52=20181128-10:33:42.634|56=MA|10=242|8=FIX.4.4|9=54|35=0|34=82|49=MMABAXUK|52=20181128-10:35:13.633|56=MA|10=242|8=FIX.4.4|9=54|35=0|34=83|49=MMABAXUK|52=20181128-10:36:43.633|56=MA|10=247|8=FIX.4.4|9=54|35=0|34=84|49=MMABAXUK|52=20181128-10:38:13.633|56=MA|10=247|8=FIX.4.4|9=54|35=0|34=85|49=MMABAXUK|52=20181128-10:39:44.632|56=MA|10=252|8=FIX.4.4|9=54|35=0|34=86|49=MMABAXUK|52=20181128-10:41:15.632|56=MA|10=244|8=FIX.4.4|9=54|35=0|34=87|49=MMABAXUK|52=20181128-10:42:46.621|56=MA|10=248|8=FIX.4.4|9=54|35=0|34=88|49=MMABAXUK|52=20181128-10:44:16.631|56=MA|10=249|8=FIX.4.4|9=54|35=0|34=89|49=MMABAXUK|52=20181128-10:45:47.540|56=MA|10=254|8=FIX.4.4|9=54|35=0|34=90|49=MMABAXUK|52=20181128-10:47:17.629|56=MA|10=253|8=FIX.4.4|9=54|35=0|34=91|49=MMABAXUK|52=20181128-10:48:48.535|56=MA|10=255|8=FIX.4.4|9=54|35=0|34=92|49=MMABAXUK|52=20181128-10:50:18.610|56=MA|10=240|8=FIX.4.4|9=54|35=0|34=93|49=MMABAXUK|52=20181128-10:51:48.624|56=MA|10=250|8=FIX.4.4|9=54|35=0|34=94|49=MMABAXUK|52=20181128-10:53:19.620|56=MA|10=247|8=FIX.4.4|9=54|35=0|34=95|49=MMABAXUK|52=20181128-10:54:49.622|56=MA|10=254|8=FIX.4.4|9=54|35=0|34=96|49=MMABAXUK|52=20181128-10:56:19.622|56=MA|10=254|8=FIX.4.4|9=54|35=0|34=97|49=MMABAXUK|52=20181128-10:57:50.555|56=MA|10=000|8=FIX.4.4|9=54|35=0|34=98|49=MMABAXUK|52=20181128-10:59:20.621|56=MA|10=250|8=FIX.4.4|9=54|35=0|34=99|49=MMABAXUK|52=20181128-11:00:51.556|56=MA|10=249|8=FIX.4.4|9=55|35=0|34=100|49=MMABAXUK|52=20181128-11:02:21.618|56=MA|10=023|8=FIX.4.4|9=55|35=0|34=101|49=MMABAXUK|52=20181128-11:03:51.619|56=MA|10=029|8=FIX.4.4|9=55|35=0|34=102|49=MMABAXUK|52=20181128-11:05:21.619|56=MA|10=029|8=FIX.4.4|9=55|35=0|34=103|49=MMABAXUK|52=20181128-11:06:52.533|56=MA|10=030|8=FIX.4.4|9=55|35=0|34=104|49=MMABAXUK|52=20181128-11:08:22.613|56=MA|10=029|8=FIX.4.4|9=55|35=0|34=105|49=MMABAXUK|52=20181128-11:09:52.617|56=MA|10=038|8=FIX.4.4|9=55|35=0|34=106|49=MMABAXUK|52=20181128-11:11:22.618|56=MA|10=030|8=FIX.4.4|9=55|35=0|34=107|49=MMABAXUK|52=20181128-11:12:53.613|56=MA|10=031|8=FIX.4.4|9=55|35=0|34=108|49=MMABAXUK|52=20181128-11:14:23.615|56=MA|10=033|8=FIX.4.4|9=55|35=0|34=109|49=MMABAXUK|52=20181128-11:15:53.615|56=MA|10=038|8=FIX.4.4|9=55|35=0|34=110|49=MMABAXUK|52=20181128-11:17:23.615|56=MA|10=029|8=FIX.4.4|9=55|35=0|34=111|49=MMABAXUK|52=20181128-11:18:54.613|56=MA|10=033|8=FIX.4.4|9=55|35=0|34=112|49=MMABAXUK|52=20181128-11:20:24.615|56=MA|10=026|8=FIX.4.4|9=55|35=0|34=113|49=MMABAXUK|52=20181128-11:21:55.613|56=MA|10=030|8=FIX.4.4|9=55|35=0|34=114|49=MMABAXUK|52=20181128-11:23:25.613|56=MA|10=030|8=FIX.4.4|9=55|35=0|34=115|49=MMABAXUK|52=20181128-11:24:56.611|56=MA|10=034|8=FIX.4.4|9=55|35=0|34=116|49=MMABAXUK|52=20181128-11:26:26.611|56=MA|10=034|8=FIX.4.4|9=55|35=0|34=117|49=MMABAXUK|52=20181128-11:27:56.611|56=MA|10=039|8=FIX.4.4|9=55|35=0|34=118|49=MMABAXUK|52=20181128-11:29:27.610|56=MA|10=039|8=FIX.4.4|9=55|35=0|34=119|49=MMABAXUK|52=20181128-11:30:58.609|56=MA|10=044|8=FIX.4.4|9=55|35=0|34=120|49=MMABAXUK|52=20181128-11:32:28.609|56=MA|10=035|8=FIX.4.4|9=55|35=0|34=121|49=MMABAXUK|52=20181128-11:33:58.609|56=MA|10=040|8=FIX.4.4|9=55|35=0|34=122|49=MMABAXUK|52=20181128-11:35:29.609|56=MA|10=041|8=FIX.4.4|9=55|35=0|34=123|49=MMABAXUK|52=20181128-11:36:59.609|56=MA|10=046|8=FIX.4.4|9=55|35=0|34=124|49=MMABAXUK|52=20181128-11:38:29.609|56=MA|10=046|8=FIX.4.4|9=55|35=0|34=125|49=MMABAXUK|52=20181128-11:40:00.609|56=MA|10=029|8=FIX.4.4|9=55|35=0|34=126|49=MMABAXUK|52=20181128-11:41:31.609|56=MA|10=035|8=FIX.4.4|9=55|35=0|34=127|49=MMABAXUK|52=20181128-11:43:02.607|56=MA|10=034|8=FIX.4.4|9=55|35=0|34=128|49=MMABAXUK|52=20181128-11:44:33.606|56=MA|10=039|8=FIX.4.4|9=55|35=0|34=129|49=MMABAXUK|52=20181128-11:46:03.606|56=MA|10=039|8=FIX.4.4|9=55|35=5|34=130|49=MMABAXUK|52=20181128-11:46:48.605|56=MA|10=044|8=FIX.4.4|9=88|35=A|34=1|49=MMABAXUK|52=20181128-11:47:24.628|56=MA|98=0|108=90|95=8|96=3.0.0rc4|141=Y|10=176|8=FIX.4.4|9=53|35=0|34=2|49=MMABAXUK|52=20181128-11:48:55.394|56=MA|10=200|8=FIX.4.4|9=53|35=0|34=3|49=MMABAXUK|52=20181128-11:50:25.626|56=MA|10=189|8=FIX.4.4|9=53|35=0|34=4|49=MMABAXUK|52=20181128-11:51:55.626|56=MA|10=194|8=FIX.4.4|9=53|35=0|34=5|49=MMABAXUK|52=20181128-11:53:26.625|56=MA|10=194|8=FIX.4.4|9=53|35=0|34=6|49=MMABAXUK|52=20181128-11:54:56.635|56=MA|10=200|8=FIX.4.4|9=53|35=0|34=7|49=MMABAXUK|52=20181128-11:56:27.379|56=MA|10=206|8=FIX.4.4|9=53|35=0|34=8|49=MMABAXUK|52=20181128-11:57:57.625|56=MA|10=205|8=FIX.4.4|9=53|35=0|34=9|49=MMABAXUK|52=20181128-11:59:27.636|56=MA|10=207|8=FIX.4.4|9=54|35=0|34=10|49=MMABAXUK|52=20181128-12:00:58.307|56=MA|10=234|8=FIX.4.4|9=54|35=0|34=11|49=MMABAXUK|52=20181128-12:02:28.387|56=MA|10=242|8=FIX.4.4|9=54|35=0|34=12|49=MMABAXUK|52=20181128-12:03:58.635|56=MA|10=243|8=FIX.4.4|9=54|35=0|34=13|49=MMABAXUK|52=20181128-12:05:29.298|56=MA|10=249|8=FIX.4.4|9=54|35=0|34=14|49=MMABAXUK|52=20181128-12:06:59.321|56=MA|10=241|8=FIX.4.4|9=54|35=0|34=15|49=MMABAXUK|52=20181128-12:08:29.367|56=MA|10=251|8=FIX.4.4|9=54|35=0|34=16|49=MMABAXUK|52=20181128-12:09:59.389|56=MA|10=004|8=FIX.4.4|9=54|35=0|34=17|49=MMABAXUK|52=20181128-12:11:29.619|56=MA|10=247|8=FIX.4.4|9=54|35=0|34=18|49=MMABAXUK|52=20181128-12:12:59.621|56=MA|10=245|8=FIX.4.4|9=54|35=0|34=19|49=MMABAXUK|52=20181128-12:14:29.621|56=MA|10=245|8=FIX.4.4|9=54|35=0|34=20|49=MMABAXUK|52=20181128-12:15:59.630|56=MA|10=241|8=FIX.4.4|9=54|35=0|34=21|49=MMABAXUK|52=20181128-12:17:30.630|56=MA|10=233|8=FIX.4.4|9=54|35=0|34=22|49=MMABAXUK|52=20181128-12:19:01.618|56=MA|10=240|8=FIX.4.4|9=54|35=0|34=23|49=MMABAXUK|52=20181128-12:20:31.618|56=MA|10=236|8=FIX.4.4|9=54|35=0|34=24|49=MMABAXUK|52=20181128-12:22:01.627|56=MA|10=236|8=FIX.4.4|9=54|35=0|34=25|49=MMABAXUK|52=20181128-12:23:32.311|56=MA|10=232|8=FIX.4.4|9=54|35=0|34=26|49=MMABAXUK|52=20181128-12:25:02.394|56=MA|10=243|8=FIX.4.4|9=54|35=0|34=27|49=MMABAXUK|52=20181128-12:26:32.613|56=MA|10=242|8=FIX.4.4|9=54|35=0|34=28|49=MMABAXUK|52=20181128-12:28:02.613|56=MA|10=242|8=FIX.4.4|9=54|35=0|34=29|49=MMABAXUK|52=20181128-12:29:33.355|56=MA|10=251|8=FIX.4.4|9=54|35=0|34=30|49=MMABAXUK|52=20181128-12:31:03.613|56=MA|10=230|8=FIX.4.4|9=54|35=0|34=31|49=MMABAXUK|52=20181128-12:32:34.339|56=MA|10=241|8=FIX.4.4|9=54|35=0|34=32|49=MMABAXUK|52=20181128-12:34:04.391|56=MA|10=239|8=FIX.4.4|9=54|35=0|34=33|49=MMABAXUK|52=20181128-12:35:34.393|56=MA|10=246|8=FIX.4.4|9=54|35=0|34=34|49=MMABAXUK|52=20181128-12:37:04.439|56=MA|10=247|8=FIX.4.4|9=54|35=0|34=35|49=MMABAXUK|52=20181128-12:38:34.611|56=MA|10=244|8=FIX.4.4|9=54|35=0|34=36|49=MMABAXUK|52=20181128-12:40:05.397|56=MA|10=247|8=FIX.4.4|9=54|35=0|34=37|49=MMABAXUK|52=20181128-12:41:35.399|56=MA|10=254|8=FIX.4.4|9=54|35=0|34=38|49=MMABAXUK|52=20181128-12:43:05.401|56=MA|10=238|8=FIX.4.4|9=54|35=0|34=39|49=MMABAXUK|52=20181128-12:44:35.608|56=MA|10=252|8=FIX.4.4|9=54|35=0|34=40|49=MMABAXUK|52=20181128-12:46:06.320|56=MA|10=235|8=FIX.4.4|9=54|35=0|34=41|49=MMABAXUK|52=20181128-12:47:36.607|56=MA|10=248|8=FIX.4.4|9=54|35=0|34=42|49=MMABAXUK|52=20181128-12:49:07.399|56=MA|10=001|8=FIX.4.4|9=54|35=0|34=43|49=MMABAXUK|52=20181128-12:50:37.606|56=MA|10=244|8=FIX.4.4|9=54|35=0|34=44|49=MMABAXUK|52=20181128-12:52:07.606|56=MA|10=244|8=FIX.4.4|9=54|35=0|34=45|49=MMABAXUK|52=20181128-12:53:38.363|56=MA|10=250|8=FIX.4.4|9=54|35=0|34=46|49=MMABAXUK|52=20181128-12:55:08.606|56=MA|10=250|8=FIX.4.4|9=54|35=0|34=47|49=MMABAXUK|52=20181128-12:56:39.388|56=MA|10=007|8=FIX.4.4|9=54|35=0|34=48|49=MMABAXUK|52=20181128-12:58:09.392|56=MA|10=002|8=FIX.4.4|9=54|35=0|34=49|49=MMABAXUK|52=20181128-12:59:39.603|56=MA|10=002|8=FIX.4.4|9=54|35=0|34=50|49=MMABAXUK|52=20181128-13:01:10.420|56=MA|10=224|8=FIX.4.4|9=54|35=0|34=51|49=MMABAXUK|52=20181128-13:02:40.602|56=MA|10=231|8=FIX.4.4|9=54|35=0|34=52|49=MMABAXUK|52=20181128-13:04:11.395|56=MA|10=241|8=FIX.4.4|9=54|35=0|34=53|49=MMABAXUK|52=20181128-13:05:41.601|56=MA|10=236|8=FIX.4.4|9=54|35=0|34=54|49=MMABAXUK|52=20181128-13:07:12.316|56=MA|10=240|8=FIX.4.4|9=54|35=0|34=55|49=MMABAXUK|52=20181128-13:08:42.386|56=MA|10=252|8=FIX.4.4|9=54|35=0|34=56|49=MMABAXUK|52=20181128-13:10:12.609|56=MA|10=241|8=FIX.4.4|9=54|35=0|34=57|49=MMABAXUK|52=20181128-13:11:43.384|56=MA|10=247|8=FIX.4.4|9=54|35=0|34=58|49=MMABAXUK|52=20181128-13:13:13.609|56=MA|10=247|8=FIX.4.4|9=54|35=0|34=59|49=MMABAXUK|52=20181128-13:14:44.373|56=MA|10=251|8=FIX.4.4|9=54|35=0|34=60|49=MMABAXUK|52=20181128-13:16:14.601|56=MA|10=236|8=FIX.4.4|9=54|35=0|34=61|49=MMABAXUK|52=20181128-13:17:44.606|56=MA|10=246|8=FIX.4.4|9=54|35=0|34=62|49=MMABAXUK|52=20181128-13:19:15.382|56=MA|10=248|8=FIX.4.4|9=54|35=0|34=63|49=MMABAXUK|52=20181128-13:20:45.604|56=MA|10=241|8=FIX.4.4|9=54|35=0|34=64|49=MMABAXUK|52=20181128-13:22:16.392|56=MA|10=246|8=FIX.4.4|9=54|35=0|34=65|49=MMABAXUK|52=20181128-13:23:46.602|56=MA|10=245|8=FIX.4.4|9=54|35=0|34=66|49=MMABAXUK|52=20181128-13:25:17.316|56=MA|10=248|8=FIX.4.4|9=54|35=0|34=67|49=MMABAXUK|52=20181128-13:26:47.387|56=MA|10=005|8=FIX.4.4|9=54|35=0|34=68|49=MMABAXUK|52=20181128-13:28:17.592|56=MA|10=003|8=FIX.4.4|9=54|35=0|34=69|49=MMABAXUK|52=20181128-13:29:47.592|56=MA|10=008|8=FIX.4.4|9=54|35=0|34=70|49=MMABAXUK|52=20181128-13:31:17.592|56=MA|10=246|8=FIX.4.4|9=54|35=0|34=71|49=MMABAXUK|52=20181128-13:32:47.593|56=MA|10=252|8=FIX.4.4|9=54|35=0|34=72|49=MMABAXUK|52=20181128-13:34:17.599|56=MA|10=002|8=FIX.4.4|9=54|35=0|34=73|49=MMABAXUK|52=20181128-13:35:47.602|56=MA|10=248|8=FIX.4.4|9=54|35=0|34=74|49=MMABAXUK|52=20181128-13:37:18.593|56=MA|10=002|8=FIX.4.4|9=54|35=0|34=75|49=MMABAXUK|52=20181128-13:38:48.594|56=MA|10=008|8=FIX.4.4|9=54|35=0|34=76|49=MMABAXUK|52=20181128-13:40:19.590|56=MA|10=252|8=FIX.4.4|9=54|35=0|34=77|49=MMABAXUK|52=20181128-13:41:49.590|56=MA|10=001|8=FIX.4.4|9=54|35=0|34=78|49=MMABAXUK|52=20181128-13:43:20.590|56=MA|10=249|8=FIX.4.4|9=54|35=0|34=79|49=MMABAXUK|52=20181128-13:44:50.590|56=MA|10=254|8=FIX.4.4|9=54|35=0|34=80|49=MMABAXUK|52=20181128-13:46:21.588|56=MA|10=253|8=FIX.4.4|9=54|35=0|34=81|49=MMABAXUK|52=20181128-13:47:51.588|56=MA|10=002|8=FIX.4.4|9=54|35=0|34=82|49=MMABAXUK|52=20181128-13:49:21.601|56=MA|10=244|8=FIX.4.4|9=54|35=0|34=83|49=MMABAXUK|52=20181128-13:50:52.586|56=MA|10=253|8=FIX.4.4|9=54|35=0|34=84|49=MMABAXUK|52=20181128-13:52:22.591|56=MA|10=249|8=FIX.4.4|9=54|35=0|34=85|49=MMABAXUK|52=20181128-13:53:53.585|56=MA|10=002|8=FIX.4.4|9=54|35=0|34=86|49=MMABAXUK|52=20181128-13:55:23.585|56=MA|10=002|8=FIX.4.4|9=54|35=0|34=87|49=MMABAXUK|52=20181128-13:56:53.594|56=MA|10=007|8=FIX.4.4|9=54|35=0|34=88|49=MMABAXUK|52=20181128-13:58:24.583|56=MA|10=006|8=FIX.4.4|9=54|35=0|34=89|49=MMABAXUK|52=20181128-13:59:54.583|56=MA|10=011|8=FIX.4.4|9=54|35=0|34=90|49=MMABAXUK|52=20181128-14:01:25.584|56=MA|10=246|8=FIX.4.4|9=54|35=0|34=91|49=MMABAXUK|52=20181128-14:02:55.590|56=MA|10=248|8=FIX.4.4|9=54|35=0|34=92|49=MMABAXUK|52=20181128-14:04:26.589|56=MA|10=001|8=FIX.4.4|9=54|35=0|34=93|49=MMABAXUK|52=20181128-14:05:56.590|56=MA|10=254|8=FIX.4.4|9=54|35=0|34=94|49=MMABAXUK|52=20181128-14:07:27.582|56=MA|10=000|8=FIX.4.4|9=54|35=0|34=95|49=MMABAXUK|52=20181128-14:08:58.591|56=MA|10=006|8=FIX.4.4|9=54|35=0|34=96|49=MMABAXUK|52=20181128-14:10:29.582|56=MA|10=254|8=FIX.4.4|9=54|35=0|34=97|49=MMABAXUK|52=20181128-14:11:59.585|56=MA|10=006|8=FIX.4.4|9=54|35=0|34=98|49=MMABAXUK|52=20181128-14:13:30.583|56=MA|10=252|8=FIX.4.4|9=54|35=0|34=99|49=MMABAXUK|52=20181128-14:15:01.589|56=MA|10=003|8=FIX.4.4|9=55|35=0|34=100|49=MMABAXUK|52=20181128-14:16:32.578|56=MA|10=038|8=FIX.4.4|9=55|35=0|34=101|49=MMABAXUK|52=20181128-14:18:02.579|56=MA|10=039|8=FIX.4.4|9=55|35=0|34=102|49=MMABAXUK|52=20181128-14:19:32.583|56=MA|10=039|8=FIX.4.4|9=55|35=0|34=103|49=MMABAXUK|52=20181128-14:21:02.590|56=MA|10=028|8=FIX.4.4|9=55|35=0|34=104|49=MMABAXUK|52=20181128-14:22:32.592|56=MA|10=035|8=FIX.4.4|9=55|35=0|34=105|49=MMABAXUK|52=20181128-14:24:03.588|56=MA|10=041|8=FIX.4.4|9=55|35=0|34=106|49=MMABAXUK|52=20181128-14:25:34.583|56=MA|10=042|8=FIX.4.4|9=55|35=0|34=107|49=MMABAXUK|52=20181128-14:27:05.582|56=MA|10=042|8=FIX.4.4|9=55|35=0|34=108|49=MMABAXUK|52=20181128-14:28:35.583|56=MA|10=048|8=FIX.4.4|9=55|35=0|34=109|49=MMABAXUK|52=20181128-14:30:06.581|56=MA|10=038|8=FIX.4.4|9=55|35=0|34=110|49=MMABAXUK|52=20181128-14:31:37.581|56=MA|10=035|8=FIX.4.4|9=55|35=0|34=111|49=MMABAXUK|52=20181128-14:33:07.581|56=MA|10=035|8=FIX.4.4|9=55|35=0|34=112|49=MMABAXUK|52=20181128-14:34:38.579|56=MA|10=048|8=FIX.4.4|9=55|35=0|34=113|49=MMABAXUK|52=20181128-14:36:08.584|56=MA|10=044|8=FIX.4.4|9=55|35=0|34=114|49=MMABAXUK|52=20181128-14:37:39.583|56=MA|10=049|8=FIX.4.4|9=55|35=0|34=115|49=MMABAXUK|52=20181128-14:39:10.588|56=MA|10=046|8=FIX.4.4|9=55|35=0|34=116|49=MMABAXUK|52=20181128-14:40:41.578|56=MA|10=042|8=FIX.4.4|9=55|35=0|34=117|49=MMABAXUK|52=20181128-14:42:11.581|56=MA|10=036|8=FIX.4.4|9=55|35=0|34=118|49=MMABAXUK|52=20181128-14:43:41.588|56=MA|10=048|8=FIX.4.4|9=55|35=0|34=119|49=MMABAXUK|52=20181128-14:45:12.575|56=MA|10=045|8=FIX.4.4|9=55|35=0|34=120|49=MMABAXUK|52=20181128-14:46:42.588|56=MA|10=045|8=FIX.4.4|9=55|35=0|34=121|49=MMABAXUK|52=20181128-14:48:13.577|56=MA|10=044|8=FIX.4.4|9=55|35=0|34=122|49=MMABAXUK|52=20181128-14:49:43.588|56=MA|10=051|8=FIX.4.4|9=55|35=0|34=123|49=MMABAXUK|52=20181128-14:51:14.575|56=MA|10=039|8=FIX.4.4|9=55|35=0|34=124|49=MMABAXUK|52=20181128-14:52:45.574|56=MA|10=044|8=FIX.4.4|9=55|35=0|34=125|49=MMABAXUK|52=20181128-14:54:15.578|56=MA|10=048|8=FIX.4.4|9=55|35=0|34=126|49=MMABAXUK|52=20181128-14:55:46.585|56=MA|10=052|8=FIX.4.4|9=55|35=0|34=127|49=MMABAXUK|52=20181128-14:57:17.583|56=MA|10=051|8=FIX.4.4|9=55|35=0|34=128|49=MMABAXUK|52=20181128-14:58:47.587|56=MA|10=060|8=FIX.4.4|9=55|35=0|34=129|49=MMABAXUK|52=20181128-15:00:17.587|56=MA|10=046|8=FIX.4.4|9=55|35=0|34=130|49=MMABAXUK|52=20181128-15:01:48.572|56=MA|10=037|8=FIX.4.4|9=55|35=0|34=131|49=MMABAXUK|52=20181128-15:03:19.571|56=MA|10=037|8=FIX.4.4|9=55|35=0|34=132|49=MMABAXUK|52=20181128-15:04:49.571|56=MA|10=042|8=FIX.4.4|9=55|35=0|34=133|49=MMABAXUK|52=20181128-15:06:20.569|56=MA|10=041|8=FIX.4.4|9=55|35=0|34=134|49=MMABAXUK|52=20181128-15:07:50.569|56=MA|10=046|8=FIX.4.4|9=55|35=0|34=135|49=MMABAXUK|52=20181128-15:09:21.569|56=MA|10=047|8=FIX.4.4|9=55|35=0|34=136|49=MMABAXUK|52=20181128-15:10:51.569|56=MA|10=043|8=FIX.4.4|9=55|35=0|34=137|49=MMABAXUK|52=20181128-15:12:21.573|56=MA|10=038|8=FIX.4.4|9=55|35=0|34=138|49=MMABAXUK|52=20181128-15:13:52.569|56=MA|10=049|8=FIX.4.4|9=55|35=0|34=139|49=MMABAXUK|52=20181128-15:15:22.571|56=MA|10=042|8=FIX.4.4|9=55|35=0|34=140|49=MMABAXUK|52=20181128-15:16:52.579|56=MA|10=046|8=FIX.4.4|9=55|35=0|34=141|49=MMABAXUK|52=20181128-15:18:23.574|56=MA|10=042|8=FIX.4.4|9=55|35=0|34=142|49=MMABAXUK|52=20181128-15:19:54.572|56=MA|10=046|8=FIX.4.4|9=55|35=0|34=143|49=MMABAXUK|52=20181128-15:21:25.575|56=MA|10=041|8=FIX.4.4|9=55|35=0|34=144|49=MMABAXUK|52=20181128-15:22:56.573|56=MA|10=045|8=FIX.4.4|9=55|35=0|34=145|49=MMABAXUK|52=20181128-15:24:27.566|56=MA|10=048|8=FIX.4.4|9=55|35=0|34=146|49=MMABAXUK|52=20181128-15:25:57.571|56=MA|10=049|8=FIX.4.4|9=55|35=0|34=147|49=MMABAXUK|52=20181128-15:27:28.565|56=MA|10=053|8=FIX.4.4|9=55|35=0|34=148|49=MMABAXUK|52=20181128-15:28:59.562|56=MA|10=056|8=FIX.4.4|9=55|35=0|34=149|49=MMABAXUK|52=20181128-15:30:29.564|56=MA|10=049|8=FIX.4.4|9=55|35=0|34=150|49=MMABAXUK|52=20181128-15:32:00.562|56=MA|10=030|8=FIX.4.4|9=55|35=0|34=151|49=MMABAXUK|52=20181128-15:33:30.563|56=MA|10=036|8=FIX.4.4|9=55|35=0|34=152|49=MMABAXUK|52=20181128-15:35:01.562|56=MA|10=036|8=FIX.4.4|9=55|35=0|34=153|49=MMABAXUK|52=20181128-15:36:32.560|56=MA|10=040|8=FIX.4.4|9=55|35=0|34=154|49=MMABAXUK|52=20181128-15:38:02.561|56=MA|10=041|8=FIX.4.4|9=55|35=0|34=155|49=MMABAXUK|52=20181128-15:39:33.559|56=MA|10=054|8=FIX.4.4|9=55|35=5|34=156|49=MMABAXUK|52=20181128-15:40:07.561|56=MA|10=046|8=FIX.4.4|9=84|35=A|34=157|49=MMABAXUK|52=20181128-15:44:10.973|56=MA|98=0|108=90|95=8|96=3.0.0rc4|10=234|