8=FIX.4.4|9=91|35=A|34=1|49=T2Kauaiblk1|52=20201201-09:49:26.944|56=MA|98=0|108=90|95=8|96=3.0.0rc5|141=Y|10=045|8=FIX.4.4|9=640|35=E|34=2|49=T2Kauaiblk1|52=20201201-09:49:54.523|56=MA|66=MMAD-FIX44-ListID-011220-1246|394=2|68=5|73=5|11=FIX44-List-ClOrdID-1247|22=4|38=100000|48=US06051GEN51|54=1|55=[N/A/]|67=1|423=1|453=1|448=T2Kauaiblk1|447=C|452=11|11=FIX44-List-ClOrdID-1248|22=4|38=100000|48=US40434AAB52|54=1|55=[N/A]|67=2|11=FIX44-List-ClOrdID-1249|22=4|38=130000|48=US06738JYZ10|54=1|55=[N/A/]|67=1|453=1|448=T2Kauaiblk1|447=C|452=11|11=FIX44-List-ClOrdID-1250|22=4|38=250000|48=US95709TAH32|54=1|55=[N/A/]|67=1|453=1|448=T2Kauaiblk1|447=C|452=11|11=FIX44-List-ClOrdID-1251|22=4|38=350000|48=US29379VAW37|54=1|55=[N/A/]|67=1|453=1|448=T2Kauaiblk1|447=C|452=11|10=032|8=FIX.4.4|9=56|35=0|34=3|49=T2Kauaiblk1|52=20201201-09:51:24.944|56=MA|10=064|8=FIX.4.4|9=56|35=0|34=4|49=T2Kauaiblk1|52=20201201-09:52:54.944|56=MA|10=069|8=FIX.4.4|9=56|35=0|34=5|49=T2Kauaiblk1|52=20201201-09:54:24.945|56=MA|10=070|8=FIX.4.4|9=56|35=0|34=6|49=T2Kauaiblk1|52=20201201-09:55:54.946|56=MA|10=076|8=FIX.4.4|9=56|35=0|34=7|49=T2Kauaiblk1|52=20201201-09:57:25.946|56=MA|10=077|8=FIX.4.4|9=56|35=0|34=8|49=T2Kauaiblk1|52=20201201-09:58:55.946|56=MA|10=082|8=FIX.4.4|9=56|35=0|34=9|49=T2Kauaiblk1|52=20201201-10:00:25.947|56=MA|10=060|8=FIX.4.4|9=57|35=0|34=10|49=T2Kauaiblk1|52=20201201-10:01:56.946|56=MA|10=105|8=FIX.4.4|9=57|35=0|34=11|49=T2Kauaiblk1|52=20201201-10:03:26.946|56=MA|10=105|8=FIX.4.4|9=57|35=0|34=12|49=T2Kauaiblk1|52=20201201-10:04:56.946|56=MA|10=110|8=FIX.4.4|9=57|35=0|34=13|49=T2Kauaiblk1|52=20201201-10:06:26.946|56=MA|10=110|8=FIX.4.4|9=57|35=0|34=14|49=T2Kauaiblk1|52=20201201-10:07:56.947|56=MA|10=116|8=FIX.4.4|9=57|35=0|34=15|49=T2Kauaiblk1|52=20201201-10:09:26.948|56=MA|10=117|8=FIX.4.4|9=57|35=0|34=16|49=T2Kauaiblk1|52=20201201-10:10:56.950|56=MA|10=106|8=FIX.4.4|9=57|35=0|34=17|49=T2Kauaiblk1|52=20201201-10:12:26.954|56=MA|10=110|8=FIX.4.4|9=57|35=0|34=18|49=T2Kauaiblk1|52=20201201-10:13:56.956|56=MA|10=117|8=FIX.4.4|9=57|35=0|34=19|49=T2Kauaiblk1|52=20201201-10:15:26.958|56=MA|10=119|8=FIX.4.4|9=57|35=0|34=20|49=T2Kauaiblk1|52=20201201-10:16:56.959|56=MA|10=116|8=FIX.4.4|9=57|35=0|34=21|49=T2Kauaiblk1|52=20201201-10:18:26.961|56=MA|10=109|8=FIX.4.4|9=57|35=0|34=22|49=T2Kauaiblk1|52=20201201-10:19:56.963|56=MA|10=116|8=FIX.4.4|9=57|35=0|34=23|49=T2Kauaiblk1|52=20201201-10:21:26.965|56=MA|10=109|8=FIX.4.4|9=57|35=0|34=24|49=T2Kauaiblk1|52=20201201-10:22:56.966|56=MA|10=115|8=FIX.4.4|9=57|35=0|34=25|49=T2Kauaiblk1|52=20201201-10:24:26.968|56=MA|10=117|8=FIX.4.4|9=57|35=0|34=26|49=T2Kauaiblk1|52=20201201-10:25:56.970|56=MA|10=115|8=FIX.4.4|9=57|35=0|34=27|49=T2Kauaiblk1|52=20201201-10:27:26.971|56=MA|10=116|8=FIX.4.4|9=57|35=0|34=28|49=T2Kauaiblk1|52=20201201-10:28:56.973|56=MA|10=123|8=FIX.4.4|9=57|35=0|34=29|49=T2Kauaiblk1|52=20201201-10:30:26.974|56=MA|10=115|8=FIX.4.4|9=57|35=0|34=30|49=T2Kauaiblk1|52=20201201-10:31:56.976|56=MA|10=113|8=FIX.4.4|9=57|35=0|34=31|49=T2Kauaiblk1|52=20201201-10:33:26.977|56=MA|10=114|8=FIX.4.4|9=57|35=0|34=32|49=T2Kauaiblk1|52=20201201-10:34:56.978|56=MA|10=120|8=FIX.4.4|9=57|35=0|34=33|49=T2Kauaiblk1|52=20201201-10:36:26.978|56=MA|10=120|8=FIX.4.4|9=57|35=0|34=34|49=T2Kauaiblk1|52=20201201-10:37:56.980|56=MA|10=118|8=FIX.4.4|9=57|35=0|34=35|49=T2Kauaiblk1|52=20201201-10:39:26.981|56=MA|10=119|8=FIX.4.4|9=57|35=0|34=36|49=T2Kauaiblk1|52=20201201-10:40:56.982|56=MA|10=116|8=FIX.4.4|9=57|35=0|34=37|49=T2Kauaiblk1|52=20201201-10:42:26.983|56=MA|10=117|8=FIX.4.4|9=57|35=0|34=38|49=T2Kauaiblk1|52=20201201-10:43:56.983|56=MA|10=122|8=FIX.4.4|9=57|35=0|34=39|49=T2Kauaiblk1|52=20201201-10:45:26.986|56=MA|10=125|8=FIX.4.4|9=57|35=0|34=40|49=T2Kauaiblk1|52=20201201-10:46:57.986|56=MA|10=122|8=FIX.4.4|9=57|35=0|34=41|49=T2Kauaiblk1|52=20201201-10:48:27.987|56=MA|10=123|8=FIX.4.4|9=57|35=0|34=42|49=T2Kauaiblk1|52=20201201-10:49:57.987|56=MA|10=128|8=FIX.4.4|9=57|35=0|34=43|49=T2Kauaiblk1|52=20201201-10:51:27.988|56=MA|10=120|8=FIX.4.4|9=57|35=0|34=44|49=T2Kauaiblk1|52=20201201-10:52:57.988|56=MA|10=125|8=FIX.4.4|9=57|35=0|34=45|49=T2Kauaiblk1|52=20201201-10:54:27.989|56=MA|10=126|8=FIX.4.4|9=57|35=0|34=46|49=T2Kauaiblk1|52=20201201-10:55:57.990|56=MA|10=123|8=FIX.4.4|9=57|35=0|34=47|49=T2Kauaiblk1|52=20201201-10:57:27.990|56=MA|10=123|8=FIX.4.4|9=75|35=5|34=48|49=T2Kauaiblk1|52=20201201-10:57:40.991|56=MA|58=user requested|10=217|8=FIX.4.4|9=91|35=A|34=1|49=T2Kauaiblk1|52=20201202-11:52:09.417|56=MA|98=0|108=90|95=8|96=3.0.0rc5|141=Y|10=029|8=FIX.4.4|9=56|35=0|34=2|49=T2Kauaiblk1|52=20201202-11:53:39.418|56=MA|10=061|8=FIX.4.4|9=56|35=0|34=3|49=T2Kauaiblk1|52=20201202-11:55:09.420|56=MA|10=054|8=FIX.4.4|9=56|35=0|34=4|49=T2Kauaiblk1|52=20201202-11:56:39.420|56=MA|10=059|8=FIX.4.4|9=56|35=0|34=5|49=T2Kauaiblk1|52=20201202-11:58:09.421|56=MA|10=060|8=FIX.4.4|9=56|35=0|34=6|49=T2Kauaiblk1|52=20201202-11:59:39.422|56=MA|10=066|8=FIX.4.4|9=56|35=0|34=7|49=T2Kauaiblk1|52=20201202-12:01:09.423|56=MA|10=053|8=FIX.4.4|9=56|35=0|34=8|49=T2Kauaiblk1|52=20201202-12:02:39.424|56=MA|10=059|8=FIX.4.4|9=56|35=0|34=9|49=T2Kauaiblk1|52=20201202-12:04:09.426|56=MA|10=061|8=FIX.4.4|9=57|35=0|34=10|49=T2Kauaiblk1|52=20201202-12:05:39.426|56=MA|10=106|8=FIX.4.4|9=57|35=0|34=11|49=T2Kauaiblk1|52=20201202-12:07:09.428|56=MA|10=108|8=FIX.4.4|9=57|35=0|34=12|49=T2Kauaiblk1|52=20201202-12:08:39.429|56=MA|10=114|8=FIX.4.4|9=57|35=0|34=13|49=T2Kauaiblk1|52=20201202-12:10:09.429|56=MA|10=105|8=FIX.4.4|9=57|35=0|34=14|49=T2Kauaiblk1|52=20201202-12:11:39.430|56=MA|10=102|8=FIX.4.4|9=57|35=0|34=15|49=T2Kauaiblk1|52=20201202-12:13:09.432|56=MA|10=104|8=FIX.4.4|9=57|35=0|34=16|49=T2Kauaiblk1|52=20201202-12:14:39.432|56=MA|10=109|8=FIX.4.4|9=57|35=0|34=17|49=T2Kauaiblk1|52=20201202-12:16:09.433|56=MA|10=110|8=FIX.4.4|9=57|35=0|34=18|49=T2Kauaiblk1|52=20201202-12:17:39.434|56=MA|10=116|8=FIX.4.4|9=57|35=0|34=19|49=T2Kauaiblk1|52=20201202-12:19:09.435|56=MA|10=117|8=FIX.4.4|9=57|35=0|34=20|49=T2Kauaiblk1|52=20201202-12:20:39.436|56=MA|10=105|8=FIX.4.4|9=57|35=0|34=21|49=T2Kauaiblk1|52=20201202-12:22:09.437|56=MA|10=106|8=FIX.4.4|9=57|35=0|34=22|49=T2Kauaiblk1|52=20201202-12:23:39.438|56=MA|10=112|8=FIX.4.4|9=57|35=0|34=23|49=T2Kauaiblk1|52=20201202-12:25:09.440|56=MA|10=105|8=FIX.4.4|9=57|35=0|34=24|49=T2Kauaiblk1|52=20201202-12:26:39.440|56=MA|10=110|8=FIX.4.4|9=57|35=0|34=25|49=T2Kauaiblk1|52=20201202-12:28:09.440|56=MA|10=110|8=FIX.4.4|9=57|35=0|34=26|49=T2Kauaiblk1|52=20201202-12:29:39.441|56=MA|10=116|8=FIX.4.4|9=57|35=0|34=27|49=T2Kauaiblk1|52=20201202-12:31:09.443|56=MA|10=109|8=FIX.4.4|9=57|35=0|34=28|49=T2Kauaiblk1|52=20201202-12:32:40.443|56=MA|10=106|8=FIX.4.4|9=57|35=0|34=29|49=T2Kauaiblk1|52=20201202-12:34:10.445|56=MA|10=108|8=FIX.4.4|9=57|35=0|34=30|49=T2Kauaiblk1|52=20201202-12:35:40.445|56=MA|10=104|8=FIX.4.4|9=57|35=0|34=31|49=T2Kauaiblk1|52=20201202-12:37:10.445|56=MA|10=104|8=FIX.4.4|9=57|35=0|34=32|49=T2Kauaiblk1|52=20201202-12:38:40.447|56=MA|10=111|8=FIX.4.4|9=57|35=0|34=33|49=T2Kauaiblk1|52=20201202-12:40:10.447|56=MA|10=102|8=FIX.4.4|9=57|35=0|34=34|49=T2Kauaiblk1|52=20201202-12:41:40.449|56=MA|10=109|8=FIX.4.4|9=57|35=0|34=35|49=T2Kauaiblk1|52=20201202-12:43:11.450|56=MA|10=102|8=FIX.4.4|9=57|35=0|34=36|49=T2Kauaiblk1|52=20201202-12:44:41.451|56=MA|10=108|8=FIX.4.4|9=57|35=0|34=37|49=T2Kauaiblk1|52=20201202-12:46:11.452|56=MA|10=109|8=FIX.4.4|9=57|35=0|34=38|49=T2Kauaiblk1|52=20201202-12:47:41.452|56=MA|10=114|8=FIX.4.4|9=57|35=0|34=39|49=T2Kauaiblk1|52=20201202-12:49:11.452|56=MA|10=114|8=FIX.4.4|9=57|35=0|34=40|49=T2Kauaiblk1|52=20201202-12:50:41.452|56=MA|10=101|8=FIX.4.4|9=57|35=0|34=41|49=T2Kauaiblk1|52=20201202-12:52:11.454|56=MA|10=103|8=FIX.4.4|9=57|35=0|34=42|49=T2Kauaiblk1|52=20201202-12:53:41.455|56=MA|10=109|8=FIX.4.4|9=57|35=0|34=43|49=T2Kauaiblk1|52=20201202-12:55:11.455|56=MA|10=109|8=FIX.4.4|9=57|35=0|34=44|49=T2Kauaiblk1|52=20201202-12:56:41.456|56=MA|10=115|8=FIX.4.4|9=57|35=0|34=45|49=T2Kauaiblk1|52=20201202-12:58:11.456|56=MA|10=115|8=FIX.4.4|9=57|35=0|34=46|49=T2Kauaiblk1|52=20201202-12:59:41.458|56=MA|10=122|8=FIX.4.4|9=57|35=0|34=47|49=T2Kauaiblk1|52=20201202-13:01:11.459|56=MA|10=109|8=FIX.4.4|9=57|35=0|34=48|49=T2Kauaiblk1|52=20201202-13:02:42.458|56=MA|10=114|8=FIX.4.4|9=57|35=0|34=49|49=T2Kauaiblk1|52=20201202-13:04:12.459|56=MA|10=115|8=FIX.4.4|9=57|35=0|34=50|49=T2Kauaiblk1|52=20201202-13:05:42.460|56=MA|10=103|8=FIX.4.4|9=57|35=0|34=51|49=T2Kauaiblk1|52=20201202-13:07:12.460|56=MA|10=103|8=FIX.4.4|9=57|35=0|34=52|49=T2Kauaiblk1|52=20201202-13:08:42.462|56=MA|10=110|8=FIX.4.4|9=57|35=0|34=53|49=T2Kauaiblk1|52=20201202-13:10:12.463|56=MA|10=102|8=FIX.4.4|9=57|35=0|34=54|49=T2Kauaiblk1|52=20201202-13:11:43.463|56=MA|10=108|8=FIX.4.4|9=57|35=0|34=55|49=T2Kauaiblk1|52=20201202-13:13:13.463|56=MA|10=108|8=FIX.4.4|9=57|35=0|34=56|49=T2Kauaiblk1|52=20201202-13:14:43.464|56=MA|10=114|8=FIX.4.4|9=57|35=0|34=57|49=T2Kauaiblk1|52=20201202-13:16:13.465|56=MA|10=115|8=FIX.4.4|9=57|35=0|34=58|49=T2Kauaiblk1|52=20201202-13:17:43.465|56=MA|10=120|8=FIX.4.4|9=57|35=0|34=59|49=T2Kauaiblk1|52=20201202-13:19:13.467|56=MA|10=122|8=FIX.4.4|9=57|35=0|34=60|49=T2Kauaiblk1|52=20201202-13:20:43.467|56=MA|10=109|8=FIX.4.4|9=57|35=0|34=61|49=T2Kauaiblk1|52=20201202-13:22:13.467|56=MA|10=109|8=FIX.4.4|9=57|35=0|34=62|49=T2Kauaiblk1|52=20201202-13:23:43.468|56=MA|10=115|8=FIX.4.4|9=57|35=0|34=63|49=T2Kauaiblk1|52=20201202-13:25:13.469|56=MA|10=116|8=FIX.4.4|9=57|35=0|34=64|49=T2Kauaiblk1|52=20201202-13:26:43.469|56=MA|10=121|8=FIX.4.4|9=57|35=0|34=65|49=T2Kauaiblk1|52=20201202-13:28:13.469|56=MA|10=121|8=FIX.4.4|9=57|35=0|34=66|49=T2Kauaiblk1|52=20201202-13:29:43.470|56=MA|10=118|8=FIX.4.4|9=57|35=0|34=67|49=T2Kauaiblk1|52=20201202-13:31:13.471|56=MA|10=110|8=FIX.4.4|9=57|35=0|34=68|49=T2Kauaiblk1|52=20201202-13:32:43.472|56=MA|10=116|8=FIX.4.4|9=57|35=0|34=69|49=T2Kauaiblk1|52=20201202-13:34:13.473|56=MA|10=117|8=FIX.4.4|9=57|35=0|34=70|49=T2Kauaiblk1|52=20201202-13:35:44.474|56=MA|10=115|8=FIX.4.4|9=57|35=0|34=71|49=T2Kauaiblk1|52=20201202-13:37:14.474|56=MA|10=115|8=FIX.4.4|9=57|35=0|34=72|49=T2Kauaiblk1|52=20201202-13:38:44.474|56=MA|10=120|8=FIX.4.4|9=57|35=0|34=73|49=T2Kauaiblk1|52=20201202-13:40:14.474|56=MA|10=111|8=FIX.4.4|9=57|35=0|34=74|49=T2Kauaiblk1|52=20201202-13:41:44.475|56=MA|10=117|8=FIX.4.4|9=57|35=0|34=75|49=T2Kauaiblk1|52=20201202-13:43:15.475|56=MA|10=118|8=FIX.4.4|9=57|35=0|34=76|49=T2Kauaiblk1|52=20201202-13:44:45.476|56=MA|10=124|8=FIX.4.4|9=57|35=0|34=77|49=T2Kauaiblk1|52=20201202-13:46:15.477|56=MA|10=125|8=FIX.4.4|9=57|35=0|34=78|49=T2Kauaiblk1|52=20201202-13:47:45.477|56=MA|10=130|8=FIX.4.4|9=57|35=0|34=79|49=T2Kauaiblk1|52=20201202-13:49:15.478|56=MA|10=131|8=FIX.4.4|9=57|35=0|34=80|49=T2Kauaiblk1|52=20201202-13:50:45.478|56=MA|10=118|8=FIX.4.4|9=57|35=0|34=81|49=T2Kauaiblk1|52=20201202-13:52:15.478|56=MA|10=118|8=FIX.4.4|9=57|35=0|34=82|49=T2Kauaiblk1|52=20201202-13:53:45.479|56=MA|10=124|8=FIX.4.4|9=57|35=0|34=83|49=T2Kauaiblk1|52=20201202-13:55:15.479|56=MA|10=124|8=FIX.4.4|9=57|35=0|34=84|49=T2Kauaiblk1|52=20201202-13:56:45.481|56=MA|10=122|8=FIX.4.4|9=57|35=0|34=85|49=T2Kauaiblk1|52=20201202-13:58:16.482|56=MA|10=124|8=FIX.4.4|9=57|35=0|34=86|49=T2Kauaiblk1|52=20201202-13:59:46.482|56=MA|10=129|8=FIX.4.4|9=57|35=0|34=87|49=T2Kauaiblk1|52=20201202-14:01:16.482|56=MA|10=115|8=FIX.4.4|9=57|35=0|34=88|49=T2Kauaiblk1|52=20201202-14:02:46.482|56=MA|10=120|8=FIX.4.4|9=57|35=0|34=89|49=T2Kauaiblk1|52=20201202-14:04:16.483|56=MA|10=121|8=FIX.4.4|9=57|35=0|34=90|49=T2Kauaiblk1|52=20201202-14:05:46.483|56=MA|10=117|8=FIX.4.4|9=57|35=0|34=91|49=T2Kauaiblk1|52=20201202-14:07:16.483|56=MA|10=117|8=FIX.4.4|9=57|35=0|34=92|49=T2Kauaiblk1|52=20201202-14:08:46.484|56=MA|10=123|8=FIX.4.4|9=57|35=0|34=93|49=T2Kauaiblk1|52=20201202-14:10:16.485|56=MA|10=115|8=FIX.4.4|9=57|35=0|34=94|49=T2Kauaiblk1|52=20201202-14:11:46.485|56=MA|10=120|8=FIX.4.4|9=57|35=0|34=95|49=T2Kauaiblk1|52=20201202-14:13:16.487|56=MA|10=122|8=FIX.4.4|9=57|35=0|34=96|49=T2Kauaiblk1|52=20201202-14:14:47.486|56=MA|10=127|8=FIX.4.4|9=57|35=0|34=97|49=T2Kauaiblk1|52=20201202-14:16:17.486|56=MA|10=127|8=FIX.4.4|9=57|35=0|34=98|49=T2Kauaiblk1|52=20201202-14:17:47.487|56=MA|10=133|8=FIX.4.4|9=57|35=0|34=99|49=T2Kauaiblk1|52=20201202-14:19:17.487|56=MA|10=133|8=FIX.4.4|9=58|35=0|34=100|49=T2Kauaiblk1|52=20201202-14:20:47.488|56=MA|10=161|8=FIX.4.4|9=58|35=0|34=101|49=T2Kauaiblk1|52=20201202-14:22:17.488|56=MA|10=161|8=FIX.4.4|9=58|35=0|34=102|49=T2Kauaiblk1|52=20201202-14:23:47.489|56=MA|10=167|8=FIX.4.4|9=58|35=0|34=103|49=T2Kauaiblk1|52=20201202-14:25:17.489|56=MA|10=167|8=FIX.4.4|9=58|35=0|34=104|49=T2Kauaiblk1|52=20201202-14:26:47.489|56=MA|10=172|8=FIX.4.4|9=58|35=0|34=105|49=T2Kauaiblk1|52=20201202-14:28:17.490|56=MA|10=164|8=FIX.4.4|9=58|35=0|34=106|49=T2Kauaiblk1|52=20201202-14:29:47.490|56=MA|10=169|8=FIX.4.4|9=58|35=0|34=107|49=T2Kauaiblk1|52=20201202-14:31:17.491|56=MA|10=161|8=FIX.4.4|9=58|35=0|34=108|49=T2Kauaiblk1|52=20201202-14:32:47.491|56=MA|10=166|8=FIX.4.4|9=58|35=0|34=109|49=T2Kauaiblk1|52=20201202-14:34:17.492|56=MA|10=167|8=FIX.4.4|9=58|35=0|34=110|49=T2Kauaiblk1|52=20201202-14:35:47.493|56=MA|10=164|8=FIX.4.4|9=58|35=0|34=111|49=T2Kauaiblk1|52=20201202-14:37:18.493|56=MA|10=165|8=FIX.4.4|9=58|35=0|34=112|49=T2Kauaiblk1|52=20201202-14:38:48.493|56=MA|10=170|8=FIX.4.4|9=58|35=0|34=113|49=T2Kauaiblk1|52=20201202-14:40:18.494|56=MA|10=162|8=FIX.4.4|9=58|35=0|34=114|49=T2Kauaiblk1|52=20201202-14:41:48.494|56=MA|10=167|8=FIX.4.4|9=58|35=0|34=115|49=T2Kauaiblk1|52=20201202-14:43:18.494|56=MA|10=167|8=FIX.4.4|9=58|35=0|34=116|49=T2Kauaiblk1|52=20201202-14:44:48.495|56=MA|10=173|8=FIX.4.4|9=58|35=0|34=117|49=T2Kauaiblk1|52=20201202-14:46:18.495|56=MA|10=173|8=FIX.4.4|9=58|35=0|34=118|49=T2Kauaiblk1|52=20201202-14:47:48.496|56=MA|10=179|8=FIX.4.4|9=58|35=0|34=119|49=T2Kauaiblk1|52=20201202-14:49:19.496|56=MA|10=180|8=FIX.4.4|9=58|35=0|34=120|49=T2Kauaiblk1|52=20201202-14:50:49.496|56=MA|10=167|8=FIX.4.4|9=58|35=0|34=121|49=T2Kauaiblk1|52=20201202-14:52:19.497|56=MA|10=168|8=FIX.4.4|9=58|35=0|34=122|49=T2Kauaiblk1|52=20201202-14:53:49.497|56=MA|10=173|8=FIX.4.4|9=58|35=0|34=123|49=T2Kauaiblk1|52=20201202-14:55:19.497|56=MA|10=173|8=FIX.4.4|9=58|35=0|34=124|49=T2Kauaiblk1|52=20201202-14:56:49.498|56=MA|10=179|8=FIX.4.4|9=58|35=0|34=125|49=T2Kauaiblk1|52=20201202-14:58:19.498|56=MA|10=179|8=FIX.4.4|9=58|35=0|34=126|49=T2Kauaiblk1|52=20201202-14:59:49.500|56=MA|10=168|8=FIX.4.4|9=58|35=0|34=127|49=T2Kauaiblk1|52=20201202-15:01:20.499|56=MA|10=163|8=FIX.4.4|9=58|35=0|34=128|49=T2Kauaiblk1|52=20201202-15:02:50.500|56=MA|10=151|8=FIX.4.4|9=58|35=0|34=129|49=T2Kauaiblk1|52=20201202-15:04:20.500|56=MA|10=151|8=FIX.4.4|9=58|35=0|34=130|49=T2Kauaiblk1|52=20201202-15:05:50.500|56=MA|10=147|8=FIX.4.4|9=58|35=0|34=131|49=T2Kauaiblk1|52=20201202-15:07:20.501|56=MA|10=148|8=FIX.4.4|9=58|35=0|34=132|49=T2Kauaiblk1|52=20201202-15:08:50.501|56=MA|10=153|8=FIX.4.4|9=58|35=0|34=133|49=T2Kauaiblk1|52=20201202-15:10:20.501|56=MA|10=144|8=FIX.4.4|9=58|35=0|34=134|49=T2Kauaiblk1|52=20201202-15:11:50.502|56=MA|10=150|8=FIX.4.4|9=58|35=0|34=135|49=T2Kauaiblk1|52=20201202-15:13:20.502|56=MA|10=150|8=FIX.4.4|9=58|35=0|34=136|49=T2Kauaiblk1|52=20201202-15:14:50.502|56=MA|10=155|8=FIX.4.4|9=58|35=0|34=137|49=T2Kauaiblk1|52=20201202-15:16:20.503|56=MA|10=156|8=FIX.4.4|9=58|35=0|34=138|49=T2Kauaiblk1|52=20201202-15:17:50.503|56=MA|10=161|8=FIX.4.4|9=58|35=0|34=139|49=T2Kauaiblk1|52=20201202-15:19:20.503|56=MA|10=161|8=FIX.4.4|9=58|35=0|34=140|49=T2Kauaiblk1|52=20201202-15:20:50.503|56=MA|10=148|8=FIX.4.4|9=58|35=0|34=141|49=T2Kauaiblk1|52=20201202-15:22:20.505|56=MA|10=150|8=FIX.4.4|9=58|35=0|34=142|49=T2Kauaiblk1|52=20201202-15:23:50.505|56=MA|10=155|8=FIX.4.4|9=58|35=0|34=143|49=T2Kauaiblk1|52=20201202-15:25:20.506|56=MA|10=156|8=FIX.4.4|9=58|35=0|34=144|49=T2Kauaiblk1|52=20201202-15:26:50.506|56=MA|10=161|8=FIX.4.4|9=58|35=0|34=145|49=T2Kauaiblk1|52=20201202-15:28:21.507|56=MA|10=163|8=FIX.4.4|9=58|35=0|34=146|49=T2Kauaiblk1|52=20201202-15:29:52.505|56=MA|10=167|8=FIX.4.4|9=58|35=0|34=147|49=T2Kauaiblk1|52=20201202-15:31:22.506|56=MA|10=159|8=FIX.4.4|9=58|35=0|34=148|49=T2Kauaiblk1|52=20201202-15:32:52.507|56=MA|10=165|8=FIX.4.4|9=58|35=0|34=149|49=T2Kauaiblk1|52=20201202-15:34:22.507|56=MA|10=165|8=FIX.4.4|9=58|35=0|34=150|49=T2Kauaiblk1|52=20201202-15:35:52.507|56=MA|10=161|8=FIX.4.4|9=58|35=0|34=151|49=T2Kauaiblk1|52=20201202-15:37:22.507|56=MA|10=161|8=FIX.4.4|9=58|35=0|34=152|49=T2Kauaiblk1|52=20201202-15:38:52.508|56=MA|10=167|8=FIX.4.4|9=58|35=0|34=153|49=T2Kauaiblk1|52=20201202-15:40:22.510|56=MA|10=151|8=FIX.4.4|9=58|35=0|34=154|49=T2Kauaiblk1|52=20201202-15:41:53.508|56=MA|10=164|8=FIX.4.4|9=58|35=0|34=155|49=T2Kauaiblk1|52=20201202-15:43:23.510|56=MA|10=157|8=FIX.4.4|9=58|35=0|34=156|49=T2Kauaiblk1|52=20201202-15:44:53.512|56=MA|10=164|8=FIX.4.4|9=58|35=0|34=157|49=T2Kauaiblk1|52=20201202-15:46:23.512|56=MA|10=164|8=FIX.4.4|9=58|35=0|34=158|49=T2Kauaiblk1|52=20201202-15:47:53.514|56=MA|10=171|8=FIX.4.4|9=58|35=0|34=159|49=T2Kauaiblk1|52=20201202-15:49:23.515|56=MA|10=172|8=FIX.4.4|9=58|35=0|34=160|49=T2Kauaiblk1|52=20201202-15:50:53.516|56=MA|10=160|8=FIX.4.4|9=58|35=0|34=161|49=T2Kauaiblk1|52=20201202-15:52:23.520|56=MA|10=155|8=FIX.4.4|9=58|35=0|34=162|49=T2Kauaiblk1|52=20201202-15:53:53.643|56=MA|10=166|8=FIX.4.4|9=58|35=0|34=163|49=T2Kauaiblk1|52=20201202-15:55:24.521|56=MA|10=162|8=FIX.4.4|9=58|35=0|34=164|49=T2Kauaiblk1|52=20201202-15:56:54.524|56=MA|10=170|8=FIX.4.4|9=58|35=0|34=165|49=T2Kauaiblk1|52=20201202-15:58:24.525|56=MA|10=171|8=FIX.4.4|9=58|35=0|34=166|49=T2Kauaiblk1|52=20201202-15:59:54.525|56=MA|10=176|8=FIX.4.4|9=58|35=0|34=167|49=T2Kauaiblk1|52=20201202-16:01:24.528|56=MA|10=165|8=FIX.4.4|9=58|35=0|34=168|49=T2Kauaiblk1|52=20201202-16:02:54.530|56=MA|10=163|8=FIX.4.4|9=58|35=0|34=169|49=T2Kauaiblk1|52=20201202-16:04:24.530|56=MA|10=163|8=FIX.4.4|9=58|35=0|34=170|49=T2Kauaiblk1|52=20201202-16:05:54.531|56=MA|10=160|8=FIX.4.4|9=58|35=0|34=171|49=T2Kauaiblk1|52=20201202-16:07:24.533|56=MA|10=162|8=FIX.4.4|9=58|35=0|34=172|49=T2Kauaiblk1|52=20201202-16:08:54.533|56=MA|10=167|8=FIX.4.4|9=58|35=0|34=173|49=T2Kauaiblk1|52=20201202-16:10:24.535|56=MA|10=160|8=FIX.4.4|9=58|35=0|34=174|49=T2Kauaiblk1|52=20201202-16:11:54.536|56=MA|10=166|8=FIX.4.4|9=58|35=0|34=175|49=T2Kauaiblk1|52=20201202-16:13:24.538|56=MA|10=168|8=FIX.4.4|9=58|35=0|34=176|49=T2Kauaiblk1|52=20201202-16:14:54.540|56=MA|10=166|8=FIX.4.4|9=58|35=0|34=177|49=T2Kauaiblk1|52=20201202-16:16:24.540|56=MA|10=166|8=FIX.4.4|9=58|35=0|34=178|49=T2Kauaiblk1|52=20201202-16:17:54.541|56=MA|10=172|8=FIX.4.4|9=58|35=0|34=179|49=T2Kauaiblk1|52=20201202-16:19:24.543|56=MA|10=174|8=FIX.4.4|9=58|35=0|34=180|49=T2Kauaiblk1|52=20201202-16:20:54.545|56=MA|10=163|8=FIX.4.4|9=58|35=0|34=181|49=T2Kauaiblk1|52=20201202-16:22:24.545|56=MA|10=163|8=FIX.4.4|9=58|35=0|34=182|49=T2Kauaiblk1|52=20201202-16:23:54.546|56=MA|10=169|8=FIX.4.4|9=58|35=0|34=183|49=T2Kauaiblk1|52=20201202-16:25:24.549|56=MA|10=172|8=FIX.4.4|9=58|35=0|34=184|49=T2Kauaiblk1|52=20201202-16:26:55.549|56=MA|10=178|8=FIX.4.4|9=58|35=0|34=185|49=T2Kauaiblk1|52=20201202-16:28:25.551|56=MA|10=171|8=FIX.4.4|9=58|35=0|34=186|49=T2Kauaiblk1|52=20201202-16:29:55.551|56=MA|10=176|8=FIX.4.4|9=58|35=0|34=187|49=T2Kauaiblk1|52=20201202-16:31:25.554|56=MA|10=170|8=FIX.4.4|9=58|35=0|34=188|49=T2Kauaiblk1|52=20201202-16:32:55.554|56=MA|10=175|8=FIX.4.4|9=58|35=0|34=189|49=T2Kauaiblk1|52=20201202-16:34:25.555|56=MA|10=176|8=FIX.4.4|9=58|35=0|34=190|49=T2Kauaiblk1|52=20201202-16:35:55.556|56=MA|10=173|8=FIX.4.4|9=58|35=0|34=191|49=T2Kauaiblk1|52=20201202-16:37:25.557|56=MA|10=174|8=FIX.4.4|9=58|35=0|34=192|49=T2Kauaiblk1|52=20201202-16:38:55.558|56=MA|10=180|8=FIX.4.4|9=58|35=0|34=193|49=T2Kauaiblk1|52=20201202-16:40:25.560|56=MA|10=164|8=FIX.4.4|9=58|35=0|34=194|49=T2Kauaiblk1|52=20201202-16:41:55.560|56=MA|10=169|8=FIX.4.4|9=58|35=0|34=195|49=T2Kauaiblk1|52=20201202-16:43:25.561|56=MA|10=170|8=FIX.4.4|9=58|35=0|34=196|49=T2Kauaiblk1|52=20201202-16:44:55.562|56=MA|10=176|8=FIX.4.4|9=58|35=0|34=197|49=T2Kauaiblk1|52=20201202-16:46:25.563|56=MA|10=177|8=FIX.4.4|9=58|35=0|34=198|49=T2Kauaiblk1|52=20201202-16:47:55.564|56=MA|10=183|8=FIX.4.4|9=58|35=0|34=199|49=T2Kauaiblk1|52=20201202-16:49:25.566|56=MA|10=185|8=FIX.4.4|9=58|35=0|34=200|49=T2Kauaiblk1|52=20201202-16:50:55.566|56=MA|10=163|8=FIX.4.4|9=58|35=0|34=201|49=T2Kauaiblk1|52=20201202-16:52:25.568|56=MA|10=165|8=FIX.4.4|9=58|35=0|34=202|49=T2Kauaiblk1|52=20201202-16:53:55.568|56=MA|10=170|8=FIX.4.4|9=58|35=0|34=203|49=T2Kauaiblk1|52=20201202-16:55:25.570|56=MA|10=163|8=FIX.4.4|9=58|35=0|34=204|49=T2Kauaiblk1|52=20201202-16:56:55.570|56=MA|10=168|8=FIX.4.4|9=58|35=0|34=205|49=T2Kauaiblk1|52=20201202-16:58:25.571|56=MA|10=169|8=FIX.4.4|9=58|35=0|34=206|49=T2Kauaiblk1|52=20201202-16:59:55.573|56=MA|10=176|8=FIX.4.4|9=58|35=0|34=207|49=T2Kauaiblk1|52=20201202-17:01:25.574|56=MA|10=163|8=FIX.4.4|9=58|35=0|34=208|49=T2Kauaiblk1|52=20201202-17:02:55.574|56=MA|10=168|8=FIX.4.4|9=58|35=0|34=209|49=T2Kauaiblk1|52=20201202-17:04:25.575|56=MA|10=169|8=FIX.4.4|9=58|35=0|34=210|49=T2Kauaiblk1|52=20201202-17:05:55.576|56=MA|10=166|8=FIX.4.4|9=58|35=0|34=211|49=T2Kauaiblk1|52=20201202-17:07:25.576|56=MA|10=166|8=FIX.4.4|9=58|35=0|34=212|49=T2Kauaiblk1|52=20201202-17:08:55.578|56=MA|10=173|8=FIX.4.4|9=58|35=0|34=213|49=T2Kauaiblk1|52=20201202-17:10:25.579|56=MA|10=165|8=FIX.4.4|9=58|35=0|34=214|49=T2Kauaiblk1|52=20201202-17:11:55.579|56=MA|10=170|8=FIX.4.4|9=58|35=0|34=215|49=T2Kauaiblk1|52=20201202-17:13:25.580|56=MA|10=162|8=FIX.4.4|9=58|35=0|34=216|49=T2Kauaiblk1|52=20201202-17:14:55.581|56=MA|10=168|8=FIX.4.4|9=58|35=0|34=217|49=T2Kauaiblk1|52=20201202-17:16:25.583|56=MA|10=170|8=FIX.4.4|9=58|35=0|34=218|49=T2Kauaiblk1|52=20201202-17:17:55.583|56=MA|10=175|8=FIX.4.4|9=58|35=0|34=219|49=T2Kauaiblk1|52=20201202-17:19:25.585|56=MA|10=177|8=FIX.4.4|9=58|35=0|34=220|49=T2Kauaiblk1|52=20201202-17:20:56.585|56=MA|10=165|8=FIX.4.4|9=58|35=0|34=221|49=T2Kauaiblk1|52=20201202-17:22:26.585|56=MA|10=165|8=FIX.4.4|9=58|35=0|34=222|49=T2Kauaiblk1|52=20201202-17:23:56.588|56=MA|10=173|8=FIX.4.4|9=58|35=0|34=223|49=T2Kauaiblk1|52=20201202-17:25:27.587|56=MA|10=173|8=FIX.4.4|9=58|35=0|34=224|49=T2Kauaiblk1|52=20201202-17:26:57.589|56=MA|10=180|8=FIX.4.4|9=58|35=0|34=225|49=T2Kauaiblk1|52=20201202-17:28:27.589|56=MA|10=180|8=FIX.4.4|9=58|35=0|34=226|49=T2Kauaiblk1|52=20201202-17:29:57.590|56=MA|10=177|8=FIX.4.4|9=58|35=0|34=227|49=T2Kauaiblk1|52=20201202-17:31:27.591|56=MA|10=169|8=FIX.4.4|9=58|35=0|34=228|49=T2Kauaiblk1|52=20201202-17:32:57.591|56=MA|10=174|8=FIX.4.4|9=58|35=0|34=229|49=T2Kauaiblk1|52=20201202-17:34:27.592|56=MA|10=175|8=FIX.4.4|9=58|35=0|34=230|49=T2Kauaiblk1|52=20201202-17:35:57.592|56=MA|10=171|8=FIX.4.4|9=58|35=0|34=231|49=T2Kauaiblk1|52=20201202-17:37:27.593|56=MA|10=172|8=FIX.4.4|9=58|35=0|34=232|49=T2Kauaiblk1|52=20201202-17:38:57.594|56=MA|10=178|8=FIX.4.4|9=58|35=0|34=233|49=T2Kauaiblk1|52=20201202-17:40:27.595|56=MA|10=170|8=FIX.4.4|9=58|35=0|34=234|49=T2Kauaiblk1|52=20201202-17:41:57.595|56=MA|10=175|8=FIX.4.4|9=58|35=0|34=235|49=T2Kauaiblk1|52=20201202-17:43:27.596|56=MA|10=176|8=FIX.4.4|9=58|35=0|34=236|49=T2Kauaiblk1|52=20201202-17:44:57.597|56=MA|10=182|8=FIX.4.4|9=58|35=0|34=237|49=T2Kauaiblk1|52=20201202-17:46:27.598|56=MA|10=183|8=FIX.4.4|9=58|35=0|34=238|49=T2Kauaiblk1|52=20201202-17:47:57.600|56=MA|10=172|8=FIX.4.4|9=58|35=0|34=239|49=T2Kauaiblk1|52=20201202-17:49:28.600|56=MA|10=173|8=FIX.4.4|9=58|35=0|34=240|49=T2Kauaiblk1|52=20201202-17:50:58.600|56=MA|10=160|8=FIX.4.4|9=58|35=0|34=241|49=T2Kauaiblk1|52=20201202-17:52:28.602|56=MA|10=162|8=FIX.4.4|9=58|35=0|34=242|49=T2Kauaiblk1|52=20201202-17:53:59.603|56=MA|10=169|8=FIX.4.4|9=58|35=0|34=243|49=T2Kauaiblk1|52=20201202-17:55:29.603|56=MA|10=169|8=FIX.4.4|9=58|35=0|34=244|49=T2Kauaiblk1|52=20201202-17:56:59.603|56=MA|10=174|8=FIX.4.4|9=58|35=0|34=245|49=T2Kauaiblk1|52=20201202-17:58:29.603|56=MA|10=174|8=FIX.4.4|9=58|35=0|34=246|49=T2Kauaiblk1|52=20201202-17:59:59.605|56=MA|10=181|8=FIX.4.4|9=58|35=0|34=247|49=T2Kauaiblk1|52=20201202-18:01:29.605|56=MA|10=167|8=FIX.4.4|9=58|35=0|34=248|49=T2Kauaiblk1|52=20201202-18:02:59.606|56=MA|10=173|8=FIX.4.4|9=58|35=0|34=249|49=T2Kauaiblk1|52=20201202-18:04:29.606|56=MA|10=173|8=FIX.4.4|9=58|35=0|34=250|49=T2Kauaiblk1|52=20201202-18:05:59.607|56=MA|10=170|8=FIX.4.4|9=58|35=0|34=251|49=T2Kauaiblk1|52=20201202-18:07:29.608|56=MA|10=171|8=FIX.4.4|9=58|35=0|34=252|49=T2Kauaiblk1|52=20201202-18:08:59.608|56=MA|10=176|8=FIX.4.4|9=58|35=0|34=253|49=T2Kauaiblk1|52=20201202-18:10:29.608|56=MA|10=167|8=FIX.4.4|9=58|35=0|34=254|49=T2Kauaiblk1|52=20201202-18:11:59.610|56=MA|10=165|8=FIX.4.4|9=58|35=0|34=255|49=T2Kauaiblk1|52=20201202-18:13:29.612|56=MA|10=167|8=FIX.4.4|9=58|35=0|34=256|49=T2Kauaiblk1|52=20201202-18:15:00.611|56=MA|10=158|8=FIX.4.4|9=58|35=0|34=257|49=T2Kauaiblk1|52=20201202-18:16:30.612|56=MA|10=164|8=FIX.4.4|9=58|35=0|34=258|49=T2Kauaiblk1|52=20201202-18:18:00.613|56=MA|10=165|8=FIX.4.4|9=58|35=0|34=259|49=T2Kauaiblk1|52=20201202-18:19:30.613|56=MA|10=170|8=FIX.4.4|9=58|35=0|34=260|49=T2Kauaiblk1|52=20201202-18:21:00.614|56=MA|10=153|8=FIX.4.4|9=58|35=0|34=261|49=T2Kauaiblk1|52=20201202-18:22:30.614|56=MA|10=158|8=FIX.4.4|9=58|35=0|34=262|49=T2Kauaiblk1|52=20201202-18:24:00.615|56=MA|10=159|8=FIX.4.4|9=58|35=0|34=263|49=T2Kauaiblk1|52=20201202-18:25:30.616|56=MA|10=165|8=FIX.4.4|9=58|35=0|34=264|49=T2Kauaiblk1|52=20201202-18:27:01.615|56=MA|10=165|8=FIX.4.4|9=58|35=0|34=265|49=T2Kauaiblk1|52=20201202-18:28:31.617|56=MA|10=172|8=FIX.4.4|9=58|35=0|34=266|49=T2Kauaiblk1|52=20201202-18:30:01.617|56=MA|10=163|8=FIX.4.4|9=58|35=0|34=267|49=T2Kauaiblk1|52=20201202-18:31:31.617|56=MA|10=168|8=FIX.4.4|9=58|35=0|34=268|49=T2Kauaiblk1|52=20201202-18:33:01.619|56=MA|10=170|8=FIX.4.4|9=58|35=0|34=269|49=T2Kauaiblk1|52=20201202-18:34:31.620|56=MA|10=167|8=FIX.4.4|9=58|35=0|34=270|49=T2Kauaiblk1|52=20201202-18:36:02.619|56=MA|10=167|8=FIX.4.4|9=58|35=0|34=271|49=T2Kauaiblk1|52=20201202-18:37:32.621|56=MA|10=165|8=FIX.4.4|9=58|35=0|34=272|49=T2Kauaiblk1|52=20201202-18:39:02.621|56=MA|10=165|8=FIX.4.4|9=58|35=0|34=273|49=T2Kauaiblk1|52=20201202-18:40:32.621|56=MA|10=161|8=FIX.4.4|9=58|35=0|34=274|49=T2Kauaiblk1|52=20201202-18:42:02.621|56=MA|10=161|8=FIX.4.4|9=58|35=0|34=275|49=T2Kauaiblk1|52=20201202-18:43:32.623|56=MA|10=168|8=FIX.4.4|9=58|35=0|34=276|49=T2Kauaiblk1|52=20201202-18:45:03.622|56=MA|10=168|8=FIX.4.4|9=58|35=0|34=277|49=T2Kauaiblk1|52=20201202-18:46:33.623|56=MA|10=174|8=FIX.4.4|9=58|35=0|34=278|49=T2Kauaiblk1|52=20201202-18:48:03.623|56=MA|10=174|8=FIX.4.4|9=58|35=0|34=279|49=T2Kauaiblk1|52=20201202-18:49:33.625|56=MA|10=181|8=FIX.4.4|9=58|35=0|34=280|49=T2Kauaiblk1|52=20201202-18:51:04.625|56=MA|10=164|8=FIX.4.4|9=58|35=0|34=281|49=T2Kauaiblk1|52=20201202-18:52:34.625|56=MA|10=169|8=FIX.4.4|9=58|35=0|34=282|49=T2Kauaiblk1|52=20201202-18:54:04.627|56=MA|10=171|8=FIX.4.4|9=58|35=0|34=283|49=T2Kauaiblk1|52=20201202-18:55:35.625|56=MA|10=175|8=FIX.4.4|9=58|35=0|34=284|49=T2Kauaiblk1|52=20201202-18:57:05.626|56=MA|10=176|8=FIX.4.4|9=58|35=0|34=285|49=T2Kauaiblk1|52=20201202-18:58:35.628|56=MA|10=183|8=FIX.4.4|9=58|35=0|34=286|49=T2Kauaiblk1|52=20201202-19:00:06.627|56=MA|10=169|8=FIX.4.4|9=58|35=0|34=287|49=T2Kauaiblk1|52=20201202-19:01:36.628|56=MA|10=175|8=FIX.4.4|9=58|35=0|34=288|49=T2Kauaiblk1|52=20201202-19:03:06.629|56=MA|10=176|8=FIX.4.4|9=58|35=0|34=289|49=T2Kauaiblk1|52=20201202-19:04:37.628|56=MA|10=181|8=FIX.4.4|9=58|35=0|34=290|49=T2Kauaiblk1|52=20201202-19:06:07.628|56=MA|10=172|8=FIX.4.4|9=58|35=0|34=291|49=T2Kauaiblk1|52=20201202-19:07:37.630|56=MA|10=170|8=FIX.4.4|9=58|35=0|34=292|49=T2Kauaiblk1|52=20201202-19:09:08.629|56=MA|10=179|8=FIX.4.4|9=58|35=0|34=293|49=T2Kauaiblk1|52=20201202-19:10:38.630|56=MA|10=167|8=FIX.4.4|9=58|35=0|34=294|49=T2Kauaiblk1|52=20201202-19:12:08.630|56=MA|10=167|8=FIX.4.4|9=58|35=0|34=295|49=T2Kauaiblk1|52=20201202-19:13:38.631|56=MA|10=173|8=FIX.4.4|9=58|35=0|34=296|49=T2Kauaiblk1|52=20201202-19:15:08.631|56=MA|10=173|8=FIX.4.4|9=58|35=0|34=297|49=T2Kauaiblk1|52=20201202-19:16:38.632|56=MA|10=179|8=FIX.4.4|9=58|35=0|34=298|49=T2Kauaiblk1|52=20201202-19:18:08.633|56=MA|10=180|8=FIX.4.4|9=58|35=0|34=299|49=T2Kauaiblk1|52=20201202-19:19:38.633|56=MA|10=185|8=FIX.4.4|9=58|35=0|34=300|49=T2Kauaiblk1|52=20201202-19:21:08.633|56=MA|10=158|8=FIX.4.4|9=58|35=0|34=301|49=T2Kauaiblk1|52=20201202-19:22:38.634|56=MA|10=164|8=FIX.4.4|9=58|35=0|34=302|49=T2Kauaiblk1|52=20201202-19:24:08.635|56=MA|10=165|8=FIX.4.4|9=58|35=0|34=303|49=T2Kauaiblk1|52=20201202-19:25:38.635|56=MA|10=170|8=FIX.4.4|9=58|35=0|34=304|49=T2Kauaiblk1|52=20201202-19:27:08.635|56=MA|10=170|8=FIX.4.4|9=58|35=0|34=305|49=T2Kauaiblk1|52=20201202-19:28:38.636|56=MA|10=176|8=FIX.4.4|9=58|35=0|34=306|49=T2Kauaiblk1|52=20201202-19:30:08.636|56=MA|10=167|8=FIX.4.4|9=58|35=0|34=307|49=T2Kauaiblk1|52=20201202-19:31:38.637|56=MA|10=173|8=FIX.4.4|9=58|35=0|34=308|49=T2Kauaiblk1|52=20201202-19:33:09.636|56=MA|10=173|8=FIX.4.4|9=58|35=0|34=309|49=T2Kauaiblk1|52=20201202-19:34:39.637|56=MA|10=179|8=FIX.4.4|9=58|35=0|34=310|49=T2Kauaiblk1|52=20201202-19:36:09.637|56=MA|10=170|8=FIX.4.4|9=58|35=0|34=311|49=T2Kauaiblk1|52=20201202-19:37:39.638|56=MA|10=176|8=FIX.4.4|9=58|35=0|34=312|49=T2Kauaiblk1|52=20201202-19:39:09.638|56=MA|10=176|8=FIX.4.4|9=58|35=0|34=313|49=T2Kauaiblk1|52=20201202-19:40:39.640|56=MA|10=165|8=FIX.4.4|9=58|35=0|34=314|49=T2Kauaiblk1|52=20201202-19:42:10.639|56=MA|10=165|8=FIX.4.4|9=58|35=0|34=315|49=T2Kauaiblk1|52=20201202-19:43:40.640|56=MA|10=162|8=FIX.4.4|9=58|35=0|34=316|49=T2Kauaiblk1|52=20201202-19:45:10.640|56=MA|10=162|8=FIX.4.4|9=58|35=0|34=317|49=T2Kauaiblk1|52=20201202-19:46:40.640|56=MA|10=167|8=FIX.4.4|9=58|35=0|34=318|49=T2Kauaiblk1|52=20201202-19:48:10.641|56=MA|10=168|8=FIX.4.4|9=58|35=0|34=319|49=T2Kauaiblk1|52=20201202-19:49:40.641|56=MA|10=173|8=FIX.4.4|9=58|35=0|34=320|49=T2Kauaiblk1|52=20201202-19:51:10.641|56=MA|10=155|8=FIX.4.4|9=58|35=0|34=321|49=T2Kauaiblk1|52=20201202-19:52:40.642|56=MA|10=161|8=FIX.4.4|9=58|35=0|34=322|49=T2Kauaiblk1|52=20201202-19:54:10.642|56=MA|10=161|8=FIX.4.4|9=58|35=0|34=323|49=T2Kauaiblk1|52=20201202-19:55:40.644|56=MA|10=168|8=FIX.4.4|9=58|35=0|34=324|49=T2Kauaiblk1|52=20201202-19:57:10.644|56=MA|10=168|8=FIX.4.4|9=58|35=0|34=325|49=T2Kauaiblk1|52=20201202-19:58:40.644|56=MA|10=173|8=FIX.4.4|9=58|35=0|34=326|49=T2Kauaiblk1|52=20201202-20:00:10.644|56=MA|10=150|8=FIX.4.4|9=58|35=0|34=327|49=T2Kauaiblk1|52=20201202-20:01:40.644|56=MA|10=155|8=FIX.4.4|9=58|35=0|34=328|49=T2Kauaiblk1|52=20201202-20:03:10.645|56=MA|10=156|8=FIX.4.4|9=58|35=0|34=329|49=T2Kauaiblk1|52=20201202-20:04:40.645|56=MA|10=161|8=FIX.4.4|9=58|35=0|34=330|49=T2Kauaiblk1|52=20201202-20:06:10.646|56=MA|10=153|8=FIX.4.4|9=58|35=0|34=331|49=T2Kauaiblk1|52=20201202-20:07:40.647|56=MA|10=159|8=FIX.4.4|9=58|35=0|34=332|49=T2Kauaiblk1|52=20201202-20:09:10.796|56=MA|10=164|8=FIX.4.4|9=58|35=0|34=333|49=T2Kauaiblk1|52=20201202-20:10:41.646|56=MA|10=155|8=FIX.4.4|9=58|35=0|34=334|49=T2Kauaiblk1|52=20201202-20:12:11.648|56=MA|10=157|8=FIX.4.4|9=58|35=0|34=335|49=T2Kauaiblk1|52=20201202-20:13:42.647|56=MA|10=162|8=FIX.4.4|9=58|35=0|34=336|49=T2Kauaiblk1|52=20201202-20:15:12.647|56=MA|10=162|8=FIX.4.4|9=58|35=0|34=337|49=T2Kauaiblk1|52=20201202-20:16:42.648|56=MA|10=168|8=FIX.4.4|9=58|35=0|34=338|49=T2Kauaiblk1|52=20201202-20:18:12.648|56=MA|10=168|8=FIX.4.4|9=58|35=0|34=339|49=T2Kauaiblk1|52=20201202-20:19:42.648|56=MA|10=173|8=FIX.4.4|9=58|35=0|34=340|49=T2Kauaiblk1|52=20201202-20:21:12.649|56=MA|10=156|8=FIX.4.4|9=58|35=0|34=341|49=T2Kauaiblk1|52=20201202-20:22:42.649|56=MA|10=161|8=FIX.4.4|9=58|35=0|34=342|49=T2Kauaiblk1|52=20201202-20:24:12.650|56=MA|10=153|8=FIX.4.4|9=58|35=0|34=343|49=T2Kauaiblk1|52=20201202-20:25:42.650|56=MA|10=158|8=FIX.4.4|9=58|35=0|34=344|49=T2Kauaiblk1|52=20201202-20:27:12.650|56=MA|10=158|8=FIX.4.4|9=58|35=0|34=345|49=T2Kauaiblk1|52=20201202-20:28:42.651|56=MA|10=164|8=FIX.4.4|9=58|35=0|34=346|49=T2Kauaiblk1|52=20201202-20:30:12.652|56=MA|10=156|8=FIX.4.4|9=58|35=0|34=347|49=T2Kauaiblk1|52=20201202-20:31:43.651|56=MA|10=161|8=FIX.4.4|9=58|35=0|34=348|49=T2Kauaiblk1|52=20201202-20:33:13.652|56=MA|10=162|8=FIX.4.4|9=58|35=0|34=349|49=T2Kauaiblk1|52=20201202-20:34:43.653|56=MA|10=168|8=FIX.4.4|9=58|35=0|34=350|49=T2Kauaiblk1|52=20201202-20:36:14.653|56=MA|10=160|8=FIX.4.4|9=58|35=0|34=351|49=T2Kauaiblk1|52=20201202-20:37:44.653|56=MA|10=165|8=FIX.4.4|9=58|35=0|34=352|49=T2Kauaiblk1|52=20201202-20:39:15.652|56=MA|10=165|8=FIX.4.4|9=58|35=0|34=353|49=T2Kauaiblk1|52=20201202-20:40:45.653|56=MA|10=162|8=FIX.4.4|9=58|35=0|34=354|49=T2Kauaiblk1|52=20201202-20:42:15.653|56=MA|10=162|8=FIX.4.4|9=58|35=0|34=355|49=T2Kauaiblk1|52=20201202-20:43:45.653|56=MA|10=167|8=FIX.4.4|9=58|35=0|34=356|49=T2Kauaiblk1|52=20201202-20:45:15.655|56=MA|10=169|8=FIX.4.4|9=58|35=0|34=357|49=T2Kauaiblk1|52=20201202-20:46:46.654|56=MA|10=174|8=FIX.4.4|9=58|35=0|34=358|49=T2Kauaiblk1|52=20201202-20:48:16.654|56=MA|10=174|8=FIX.4.4|9=58|35=0|34=359|49=T2Kauaiblk1|52=20201202-20:49:46.656|56=MA|10=181|8=FIX.4.4|9=58|35=0|34=360|49=T2Kauaiblk1|52=20201202-20:51:17.656|56=MA|10=164|8=FIX.4.4|9=58|35=0|34=361|49=T2Kauaiblk1|52=20201202-20:52:47.657|56=MA|10=170|8=FIX.4.4|9=58|35=0|34=362|49=T2Kauaiblk1|52=20201202-20:54:18.657|56=MA|10=171|8=FIX.4.4|9=58|35=0|34=363|49=T2Kauaiblk1|52=20201202-20:55:49.656|56=MA|10=176|8=FIX.4.4|9=58|35=0|34=364|49=T2Kauaiblk1|52=20201202-20:57:19.656|56=MA|10=176|8=FIX.4.4|9=58|35=0|34=365|49=T2Kauaiblk1|52=20201202-20:58:49.657|56=MA|10=182|8=FIX.4.4|9=58|35=0|34=366|49=T2Kauaiblk1|52=20201202-21:00:19.657|56=MA|10=168|8=FIX.4.4|9=58|35=0|34=367|49=T2Kauaiblk1|52=20201202-21:01:49.658|56=MA|10=174|8=FIX.4.4|9=58|35=0|34=368|49=T2Kauaiblk1|52=20201202-21:03:19.658|56=MA|10=174|8=FIX.4.4|9=58|35=0|34=369|49=T2Kauaiblk1|52=20201202-21:04:50.657|56=MA|10=170|8=FIX.4.4|9=58|35=0|34=370|49=T2Kauaiblk1|52=20201202-21:06:20.658|56=MA|10=162|8=FIX.4.4|9=58|35=0|34=371|49=T2Kauaiblk1|52=20201202-21:07:50.658|56=MA|10=167|8=FIX.4.4|9=58|35=0|34=372|49=T2Kauaiblk1|52=20201202-21:09:20.660|56=MA|10=160|8=FIX.4.4|9=58|35=0|34=373|49=T2Kauaiblk1|52=20201202-21:10:51.660|56=MA|10=157|8=FIX.4.4|9=58|35=0|34=374|49=T2Kauaiblk1|52=20201202-21:12:21.660|56=MA|10=157|8=FIX.4.4|9=58|35=0|34=375|49=T2Kauaiblk1|52=20201202-21:13:52.660|56=MA|10=163|8=FIX.4.4|9=58|35=0|34=376|49=T2Kauaiblk1|52=20201202-21:15:22.660|56=MA|10=163|8=FIX.4.4|9=58|35=0|34=377|49=T2Kauaiblk1|52=20201202-21:16:52.660|56=MA|10=168|8=FIX.4.4|9=58|35=0|34=378|49=T2Kauaiblk1|52=20201202-21:18:22.660|56=MA|10=168|8=FIX.4.4|9=58|35=0|34=379|49=T2Kauaiblk1|52=20201202-21:19:52.660|56=MA|10=173|8=FIX.4.4|9=58|35=0|34=380|49=T2Kauaiblk1|52=20201202-21:21:22.661|56=MA|10=156|8=FIX.4.4|9=58|35=0|34=381|49=T2Kauaiblk1|52=20201202-21:22:52.661|56=MA|10=161|8=FIX.4.4|9=58|35=0|34=382|49=T2Kauaiblk1|52=20201202-21:24:22.661|56=MA|10=161|8=FIX.4.4|9=58|35=0|34=383|49=T2Kauaiblk1|52=20201202-21:25:52.661|56=MA|10=166|8=FIX.4.4|9=58|35=0|34=384|49=T2Kauaiblk1|52=20201202-21:27:22.663|56=MA|10=168|8=FIX.4.4|9=58|35=0|34=385|49=T2Kauaiblk1|52=20201202-21:28:52.663|56=MA|10=173|8=FIX.4.4|9=58|35=0|34=386|49=T2Kauaiblk1|52=20201202-21:30:22.664|56=MA|10=165|8=FIX.4.4|9=58|35=0|34=387|49=T2Kauaiblk1|52=20201202-21:31:53.663|56=MA|10=170|8=FIX.4.4|9=58|35=0|34=388|49=T2Kauaiblk1|52=20201202-21:33:23.663|56=MA|10=170|8=FIX.4.4|9=58|35=0|34=389|49=T2Kauaiblk1|52=20201202-21:34:53.664|56=MA|10=176|8=FIX.4.4|9=58|35=0|34=390|49=T2Kauaiblk1|52=20201202-21:36:23.664|56=MA|10=167|8=FIX.4.4|9=58|35=0|34=391|49=T2Kauaiblk1|52=20201202-21:37:53.665|56=MA|10=173|8=FIX.4.4|9=58|35=0|34=392|49=T2Kauaiblk1|52=20201202-21:39:23.665|56=MA|10=173|8=FIX.4.4|9=58|35=0|34=393|49=T2Kauaiblk1|52=20201202-21:40:53.665|56=MA|10=169|8=FIX.4.4|9=58|35=0|34=394|49=T2Kauaiblk1|52=20201202-21:42:23.666|56=MA|10=170|8=FIX.4.4|9=58|35=0|34=395|49=T2Kauaiblk1|52=20201202-21:43:53.666|56=MA|10=175|8=FIX.4.4|9=58|35=0|34=396|49=T2Kauaiblk1|52=20201202-21:45:24.665|56=MA|10=175|8=FIX.4.4|9=58|35=0|34=397|49=T2Kauaiblk1|52=20201202-21:46:54.666|56=MA|10=181|8=FIX.4.4|9=58|35=0|34=398|49=T2Kauaiblk1|52=20201202-21:48:25.665|56=MA|10=181|8=FIX.4.4|9=58|35=0|34=399|49=T2Kauaiblk1|52=20201202-21:49:55.666|56=MA|10=187|8=FIX.4.4|9=58|35=0|34=400|49=T2Kauaiblk1|52=20201202-21:51:25.666|56=MA|10=160|8=FIX.4.4|9=58|35=0|34=401|49=T2Kauaiblk1|52=20201202-21:52:55.666|56=MA|10=165|8=FIX.4.4|9=58|35=0|34=402|49=T2Kauaiblk1|52=20201202-21:54:25.667|56=MA|10=166|8=FIX.4.4|9=58|35=0|34=403|49=T2Kauaiblk1|52=20201202-21:55:55.667|56=MA|10=171|8=FIX.4.4|9=58|35=0|34=404|49=T2Kauaiblk1|52=20201202-21:57:25.667|56=MA|10=171|8=FIX.4.4|9=58|35=0|34=405|49=T2Kauaiblk1|52=20201202-21:58:55.667|56=MA|10=176|8=FIX.4.4|9=58|35=0|34=406|49=T2Kauaiblk1|52=20201202-22:00:25.668|56=MA|10=163|8=FIX.4.4|9=58|35=0|34=407|49=T2Kauaiblk1|52=20201202-22:01:55.669|56=MA|10=169|8=FIX.4.4|9=58|35=0|34=408|49=T2Kauaiblk1|52=20201202-22:03:26.668|56=MA|10=169|8=FIX.4.4|9=58|35=0|34=409|49=T2Kauaiblk1|52=20201202-22:04:56.668|56=MA|10=174|8=FIX.4.4|9=58|35=0|34=410|49=T2Kauaiblk1|52=20201202-22:06:26.669|56=MA|10=166|8=FIX.4.4|9=58|35=0|34=411|49=T2Kauaiblk1|52=20201202-22:07:56.669|56=MA|10=171|8=FIX.4.4|9=58|35=0|34=412|49=T2Kauaiblk1|52=20201202-22:09:26.669|56=MA|10=171|8=FIX.4.4|9=58|35=0|34=413|49=T2Kauaiblk1|52=20201202-22:10:56.669|56=MA|10=167|8=FIX.4.4|9=58|35=0|34=414|49=T2Kauaiblk1|52=20201202-22:12:26.670|56=MA|10=159|8=FIX.4.4|9=58|35=0|34=415|49=T2Kauaiblk1|52=20201202-22:13:57.670|56=MA|10=165|8=FIX.4.4|9=58|35=0|34=416|49=T2Kauaiblk1|52=20201202-22:15:28.671|56=MA|10=167|8=FIX.4.4|9=58|35=0|34=417|49=T2Kauaiblk1|52=20201202-22:16:59.670|56=MA|10=172|8=FIX.4.4|9=58|35=0|34=418|49=T2Kauaiblk1|52=20201202-22:18:29.671|56=MA|10=173|8=FIX.4.4|9=58|35=0|34=419|49=T2Kauaiblk1|52=20201202-22:19:59.672|56=MA|10=179|8=FIX.4.4|9=58|35=0|34=420|49=T2Kauaiblk1|52=20201202-22:21:30.671|56=MA|10=152|8=FIX.4.4|9=58|35=0|34=421|49=T2Kauaiblk1|52=20201202-22:23:00.671|56=MA|10=152|8=FIX.4.4|9=58|35=0|34=422|49=T2Kauaiblk1|52=20201202-22:24:30.672|56=MA|10=158|8=FIX.4.4|9=58|35=0|34=423|49=T2Kauaiblk1|52=20201202-22:26:00.672|56=MA|10=158|8=FIX.4.4|9=58|35=0|34=424|49=T2Kauaiblk1|52=20201202-22:27:30.672|56=MA|10=163|8=FIX.4.4|9=58|35=0|34=425|49=T2Kauaiblk1|52=20201202-22:29:00.673|56=MA|10=164|8=FIX.4.4|9=58|35=0|34=426|49=T2Kauaiblk1|52=20201202-22:30:31.672|56=MA|10=160|8=FIX.4.4|9=58|35=0|34=427|49=T2Kauaiblk1|52=20201202-22:32:01.673|56=MA|10=161|8=FIX.4.4|9=58|35=0|34=428|49=T2Kauaiblk1|52=20201202-22:33:31.673|56=MA|10=166|8=FIX.4.4|9=58|35=0|34=429|49=T2Kauaiblk1|52=20201202-22:35:01.673|56=MA|10=166|8=FIX.4.4|9=58|35=0|34=430|49=T2Kauaiblk1|52=20201202-22:36:31.673|56=MA|10=162|8=FIX.4.4|9=58|35=0|34=431|49=T2Kauaiblk1|52=20201202-22:38:01.675|56=MA|10=164|8=FIX.4.4|9=58|35=0|34=432|49=T2Kauaiblk1|52=20201202-22:39:31.675|56=MA|10=169|8=FIX.4.4|9=58|35=0|34=433|49=T2Kauaiblk1|52=20201202-22:41:01.675|56=MA|10=160|8=FIX.4.4|9=58|35=0|34=434|49=T2Kauaiblk1|52=20201202-22:42:32.675|56=MA|10=166|8=FIX.4.4|9=58|35=0|34=435|49=T2Kauaiblk1|52=20201202-22:44:02.675|56=MA|10=166|8=FIX.4.4|9=58|35=0|34=436|49=T2Kauaiblk1|52=20201202-22:45:32.676|56=MA|10=172|8=FIX.4.4|9=58|35=0|34=437|49=T2Kauaiblk1|52=20201202-22:47:02.676|56=MA|10=172|8=FIX.4.4|9=58|35=0|34=438|49=T2Kauaiblk1|52=20201202-22:48:33.676|56=MA|10=178|8=FIX.4.4|9=58|35=0|34=439|49=T2Kauaiblk1|52=20201202-22:50:03.676|56=MA|10=169|8=FIX.4.4|9=58|35=0|34=440|49=T2Kauaiblk1|52=20201202-22:51:33.676|56=MA|10=165|8=FIX.4.4|9=58|35=0|34=441|49=T2Kauaiblk1|52=20201202-22:53:04.675|56=MA|10=165|8=FIX.4.4|9=58|35=0|34=442|49=T2Kauaiblk1|52=20201202-22:54:34.677|56=MA|10=172|8=FIX.4.4|9=58|35=0|34=443|49=T2Kauaiblk1|52=20201202-22:56:05.676|56=MA|10=172|8=FIX.4.4|9=58|35=0|34=444|49=T2Kauaiblk1|52=20201202-22:57:35.676|56=MA|10=177|8=FIX.4.4|9=58|35=0|34=445|49=T2Kauaiblk1|52=20201202-22:59:05.676|56=MA|10=177|8=FIX.4.4|9=58|35=0|34=446|49=T2Kauaiblk1|52=20201202-23:00:35.677|56=MA|10=169|8=FIX.4.4|9=58|35=0|34=447|49=T2Kauaiblk1|52=20201202-23:02:05.677|56=MA|10=169|8=FIX.4.4|9=58|35=0|34=448|49=T2Kauaiblk1|52=20201202-23:03:35.677|56=MA|10=174|8=FIX.4.4|9=58|35=5|34=449|49=T2Kauaiblk1|52=20201202-23:05:00.622|56=MA|10=164|8=FIX.4.4|9=91|35=A|34=1|49=T2Kauaiblk1|52=20201215-11:27:21.329|56=MA|98=0|108=90|95=8|96=3.0.0rc5|141=Y|10=031|8=FIX.4.4|9=765|35=E|34=2|49=T2Kauaiblk1|52=20201215-11:27:31.808|56=MA|66=MMAD-FIX44-ListID-151220-1228|394=2|68=5|73=5|11=FIX44-List-ClOrdID-1229|22=4|38=100000|44=100|48=US06051GEN51|54=1|55=[N/A/]|63=3|67=1|423=1|29726=100.25|453=1|448=T2Kauaiblk1|447=C|452=11|11=FIX44-List-ClOrdID-1230|22=4|38=100000|44=101|48=US40434AAB52|54=1|55=[N/A]|63=3|67=2|29726=101.25|11=FIX44-List-ClOrdID-1231|22=4|38=130000|44=102|48=US06738JYZ10|54=1|55=[N/A/]|63=3|67=1|29726=102.25|453=1|448=T2Kauaiblk1|447=C|452=11|11=FIX44-List-ClOrdID-1232|22=4|38=250000|44=103|48=US95709TAH32|54=1|55=[N/A/]|63=3|67=1|29726=103.25|453=1|448=T2Kauaiblk1|447=C|452=11|11=FIX44-List-ClOrdID-1233|22=4|38=350000|44=104|48=US29379VAW37|54=1|55=[N/A/]|63=3|67=1|29726=104.25|453=1|448=T2Kauaiblk1|447=C|452=11|10=165|8=FIX.4.4|9=56|35=0|34=3|49=T2Kauaiblk1|52=20201215-11:29:02.328|56=MA|10=059|8=FIX.4.4|9=56|35=0|34=4|49=T2Kauaiblk1|52=20201215-11:30:32.328|56=MA|10=055|8=FIX.4.4|9=56|35=0|34=5|49=T2Kauaiblk1|52=20201215-11:32:02.329|56=MA|10=056|8=FIX.4.4|9=56|35=0|34=6|49=T2Kauaiblk1|52=20201215-11:33:33.033|56=MA|10=054|8=FIX.4.4|9=56|35=0|34=7|49=T2Kauaiblk1|52=20201215-11:35:03.036|56=MA|10=057|8=FIX.4.4|9=56|35=0|34=8|49=T2Kauaiblk1|52=20201215-11:36:33.328|56=MA|10=066|8=FIX.4.4|9=56|35=0|34=9|49=T2Kauaiblk1|52=20201215-11:38:03.328|56=MA|10=066|8=FIX.4.4|9=57|35=0|34=10|49=T2Kauaiblk1|52=20201215-11:39:33.329|56=MA|10=112|8=FIX.4.4|9=57|35=0|34=11|49=T2Kauaiblk1|52=20201215-11:41:03.329|56=MA|10=103|8=FIX.4.4|9=57|35=0|34=12|49=T2Kauaiblk1|52=20201215-11:42:33.329|56=MA|10=108|8=FIX.4.4|9=57|35=0|34=13|49=T2Kauaiblk1|52=20201215-11:44:03.329|56=MA|10=108|8=FIX.4.4|9=57|35=0|34=14|49=T2Kauaiblk1|52=20201215-11:45:33.329|56=MA|10=113|8=FIX.4.4|9=57|35=0|34=15|49=T2Kauaiblk1|52=20201215-11:47:03.331|56=MA|10=106|8=FIX.4.4|9=57|35=0|34=16|49=T2Kauaiblk1|52=20201215-11:48:33.331|56=MA|10=111|8=FIX.4.4|9=57|35=0|34=17|49=T2Kauaiblk1|52=20201215-11:50:03.335|56=MA|10=106|8=FIX.4.4|9=57|35=0|34=18|49=T2Kauaiblk1|52=20201215-11:51:33.338|56=MA|10=114|8=FIX.4.4|9=57|35=0|34=19|49=T2Kauaiblk1|52=20201215-11:53:03.340|56=MA|10=107|8=FIX.4.4|9=57|35=0|34=20|49=T2Kauaiblk1|52=20201215-11:54:33.344|56=MA|10=107|8=FIX.4.4|9=57|35=0|34=21|49=T2Kauaiblk1|52=20201215-11:56:03.345|56=MA|10=108|8=FIX.4.4|9=57|35=0|34=22|49=T2Kauaiblk1|52=20201215-11:57:33.349|56=MA|10=117|8=FIX.4.4|9=57|35=0|34=23|49=T2Kauaiblk1|52=20201215-11:59:03.352|56=MA|10=111|8=FIX.4.4|9=57|35=0|34=24|49=T2Kauaiblk1|52=20201215-12:00:33.354|56=MA|10=104|8=FIX.4.4|9=57|35=0|34=25|49=T2Kauaiblk1|52=20201215-12:02:03.357|56=MA|10=107|8=FIX.4.4|9=57|35=0|34=26|49=T2Kauaiblk1|52=20201215-12:03:33.359|56=MA|10=114|8=FIX.4.4|9=57|35=0|34=27|49=T2Kauaiblk1|52=20201215-12:05:03.361|56=MA|10=107|8=FIX.4.4|9=57|35=0|34=28|49=T2Kauaiblk1|52=20201215-12:06:33.364|56=MA|10=115|8=FIX.4.4|9=57|35=0|34=29|49=T2Kauaiblk1|52=20201215-12:08:03.366|56=MA|10=117|8=FIX.4.4|9=57|35=0|34=30|49=T2Kauaiblk1|52=20201215-12:09:33.368|56=MA|10=115|8=FIX.4.4|9=57|35=0|34=31|49=T2Kauaiblk1|52=20201215-12:11:03.370|56=MA|10=099|8=FIX.4.4|9=57|35=0|34=32|49=T2Kauaiblk1|52=20201215-12:12:33.373|56=MA|10=107|8=FIX.4.4|9=57|35=0|34=33|49=T2Kauaiblk1|52=20201215-12:14:03.374|56=MA|10=108|8=FIX.4.4|9=57|35=0|34=34|49=T2Kauaiblk1|52=20201215-12:15:33.378|56=MA|10=117|8=FIX.4.4|9=57|35=0|34=35|49=T2Kauaiblk1|52=20201215-12:17:03.380|56=MA|10=110|8=FIX.4.4|9=57|35=0|34=36|49=T2Kauaiblk1|52=20201215-12:18:33.381|56=MA|10=116|8=FIX.4.4|9=57|35=0|34=37|49=T2Kauaiblk1|52=20201215-12:20:03.383|56=MA|10=109|8=FIX.4.4|9=57|35=0|34=38|49=T2Kauaiblk1|52=20201215-12:21:33.385|56=MA|10=116|8=FIX.4.4|9=57|35=0|34=39|49=T2Kauaiblk1|52=20201215-12:23:03.387|56=MA|10=118|8=FIX.4.4|9=57|35=0|34=40|49=T2Kauaiblk1|52=20201215-12:24:33.388|56=MA|10=115|8=FIX.4.4|9=57|35=0|34=41|49=T2Kauaiblk1|52=20201215-12:26:03.390|56=MA|10=108|8=FIX.4.4|9=57|35=0|34=42|49=T2Kauaiblk1|52=20201215-12:27:33.393|56=MA|10=116|8=FIX.4.4|9=57|35=0|34=43|49=T2Kauaiblk1|52=20201215-12:29:03.394|56=MA|10=117|8=FIX.4.4|9=57|35=0|34=44|49=T2Kauaiblk1|52=20201215-12:30:33.396|56=MA|10=115|8=FIX.4.4|9=57|35=0|34=45|49=T2Kauaiblk1|52=20201215-12:32:03.398|56=MA|10=117|8=FIX.4.4|9=57|35=0|34=46|49=T2Kauaiblk1|52=20201215-12:33:33.400|56=MA|10=106|8=FIX.4.4|9=57|35=0|34=47|49=T2Kauaiblk1|52=20201215-12:35:03.402|56=MA|10=108|8=FIX.4.4|9=57|35=0|34=48|49=T2Kauaiblk1|52=20201215-12:36:33.403|56=MA|10=114|8=FIX.4.4|9=57|35=0|34=49|49=T2Kauaiblk1|52=20201215-12:38:03.405|56=MA|10=116|8=FIX.4.4|9=57|35=0|34=50|49=T2Kauaiblk1|52=20201215-12:39:33.407|56=MA|10=114|8=FIX.4.4|9=57|35=0|34=51|49=T2Kauaiblk1|52=20201215-12:41:03.407|56=MA|10=105|8=FIX.4.4|9=57|35=0|34=52|49=T2Kauaiblk1|52=20201215-12:42:33.408|56=MA|10=111|8=FIX.4.4|9=57|35=0|34=53|49=T2Kauaiblk1|52=20201215-12:44:03.410|56=MA|10=104|8=FIX.4.4|9=57|35=0|34=54|49=T2Kauaiblk1|52=20201215-12:45:33.412|56=MA|10=111|8=FIX.4.4|9=57|35=0|34=55|49=T2Kauaiblk1|52=20201215-12:47:03.413|56=MA|10=112|8=FIX.4.4|9=57|35=0|34=56|49=T2Kauaiblk1|52=20201215-12:48:33.414|56=MA|10=118|8=FIX.4.4|9=57|35=0|34=57|49=T2Kauaiblk1|52=20201215-12:50:03.415|56=MA|10=110|8=FIX.4.4|9=57|35=0|34=58|49=T2Kauaiblk1|52=20201215-12:51:33.417|56=MA|10=117|8=FIX.4.4|9=57|35=0|34=59|49=T2Kauaiblk1|52=20201215-12:53:03.419|56=MA|10=119|8=FIX.4.4|9=57|35=0|34=60|49=T2Kauaiblk1|52=20201215-12:54:33.420|56=MA|10=107|8=FIX.4.4|9=57|35=0|34=61|49=T2Kauaiblk1|52=20201215-12:56:03.420|56=MA|10=107|8=FIX.4.4|9=57|35=0|34=62|49=T2Kauaiblk1|52=20201215-12:57:33.423|56=MA|10=115|8=FIX.4.4|9=57|35=0|34=63|49=T2Kauaiblk1|52=20201215-12:59:03.423|56=MA|10=115|8=FIX.4.4|9=57|35=0|34=64|49=T2Kauaiblk1|52=20201215-13:00:33.423|56=MA|10=106|8=FIX.4.4|9=57|35=0|34=65|49=T2Kauaiblk1|52=20201215-13:02:03.426|56=MA|10=109|8=FIX.4.4|9=57|35=0|34=66|49=T2Kauaiblk1|52=20201215-13:03:33.426|56=MA|10=114|8=FIX.4.4|9=57|35=0|34=67|49=T2Kauaiblk1|52=20201215-13:05:03.428|56=MA|10=116|8=FIX.4.4|9=57|35=0|34=68|49=T2Kauaiblk1|52=20201215-13:06:33.429|56=MA|10=122|8=FIX.4.4|9=57|35=0|34=69|49=T2Kauaiblk1|52=20201215-13:08:03.429|56=MA|10=122|8=FIX.4.4|9=57|35=0|34=70|49=T2Kauaiblk1|52=20201215-13:09:33.430|56=MA|10=110|8=FIX.4.4|9=57|35=0|34=71|49=T2Kauaiblk1|52=20201215-13:11:03.431|56=MA|10=102|8=FIX.4.4|9=57|35=0|34=72|49=T2Kauaiblk1|52=20201215-13:12:33.433|56=MA|10=109|8=FIX.4.4|9=57|35=0|34=73|49=T2Kauaiblk1|52=20201215-13:14:03.433|56=MA|10=109|8=FIX.4.4|9=57|35=0|34=74|49=T2Kauaiblk1|52=20201215-13:15:33.434|56=MA|10=115|8=FIX.4.4|9=57|35=0|34=75|49=T2Kauaiblk1|52=20201215-13:17:03.434|56=MA|10=115|8=FIX.4.4|9=57|35=0|34=76|49=T2Kauaiblk1|52=20201215-13:18:33.436|56=MA|10=122|8=FIX.4.4|9=57|35=0|34=77|49=T2Kauaiblk1|52=20201215-13:20:03.436|56=MA|10=113|8=FIX.4.4|9=57|35=0|34=78|49=T2Kauaiblk1|52=20201215-13:21:33.439|56=MA|10=121|8=FIX.4.4|9=57|35=0|34=79|49=T2Kauaiblk1|52=20201215-13:23:03.439|56=MA|10=121|8=FIX.4.4|9=57|35=0|34=80|49=T2Kauaiblk1|52=20201215-13:24:33.439|56=MA|10=117|8=FIX.4.4|9=57|35=0|34=81|49=T2Kauaiblk1|52=20201215-13:26:03.440|56=MA|10=109|8=FIX.4.4|9=57|35=0|34=82|49=T2Kauaiblk1|52=20201215-13:27:33.442|56=MA|10=116|8=FIX.4.4|9=57|35=0|34=83|49=T2Kauaiblk1|52=20201215-13:29:03.443|56=MA|10=117|8=FIX.4.4|9=57|35=0|34=84|49=T2Kauaiblk1|52=20201215-13:30:33.443|56=MA|10=113|8=FIX.4.4|9=57|35=0|34=85|49=T2Kauaiblk1|52=20201215-13:32:03.444|56=MA|10=114|8=FIX.4.4|9=57|35=0|34=86|49=T2Kauaiblk1|52=20201215-13:33:33.444|56=MA|10=119|8=FIX.4.4|9=57|35=0|34=87|49=T2Kauaiblk1|52=20201215-13:35:03.446|56=MA|10=121|8=FIX.4.4|9=57|35=0|34=88|49=T2Kauaiblk1|52=20201215-13:36:34.446|56=MA|10=127|8=FIX.4.4|9=57|35=0|34=89|49=T2Kauaiblk1|52=20201215-13:38:04.446|56=MA|10=127|8=FIX.4.4|9=57|35=0|34=90|49=T2Kauaiblk1|52=20201215-13:39:34.447|56=MA|10=124|8=FIX.4.4|9=57|35=0|34=91|49=T2Kauaiblk1|52=20201215-13:41:04.448|56=MA|10=116|8=FIX.4.4|9=57|35=0|34=92|49=T2Kauaiblk1|52=20201215-13:42:34.448|56=MA|10=121|8=FIX.4.4|9=57|35=0|34=93|49=T2Kauaiblk1|52=20201215-13:44:04.450|56=MA|10=114|8=FIX.4.4|9=57|35=0|34=94|49=T2Kauaiblk1|52=20201215-13:45:34.450|56=MA|10=119|8=FIX.4.4|9=57|35=0|34=95|49=T2Kauaiblk1|52=20201215-13:47:04.451|56=MA|10=120|8=FIX.4.4|9=57|35=0|34=96|49=T2Kauaiblk1|52=20201215-13:48:34.451|56=MA|10=125|8=FIX.4.4|9=57|35=0|34=97|49=T2Kauaiblk1|52=20201215-13:50:04.451|56=MA|10=116|8=FIX.4.4|9=57|35=0|34=98|49=T2Kauaiblk1|52=20201215-13:51:34.453|56=MA|10=123|8=FIX.4.4|9=57|35=0|34=99|49=T2Kauaiblk1|52=20201215-13:53:04.453|56=MA|10=123|8=FIX.4.4|9=58|35=0|34=100|49=T2Kauaiblk1|52=20201215-13:54:34.453|56=MA|10=159|8=FIX.4.4|9=58|35=0|34=101|49=T2Kauaiblk1|52=20201215-13:56:04.453|56=MA|10=159|8=FIX.4.4|9=58|35=0|34=102|49=T2Kauaiblk1|52=20201215-13:57:34.455|56=MA|10=166|8=FIX.4.4|9=58|35=0|34=103|49=T2Kauaiblk1|52=20201215-13:59:04.455|56=MA|10=166|8=FIX.4.4|9=58|35=0|34=104|49=T2Kauaiblk1|52=20201215-14:00:34.455|56=MA|10=157|8=FIX.4.4|9=58|35=0|34=105|49=T2Kauaiblk1|52=20201215-14:02:04.456|56=MA|10=158|8=FIX.4.4|9=58|35=0|34=106|49=T2Kauaiblk1|52=20201215-14:03:34.456|56=MA|10=163|8=FIX.4.4|9=58|35=0|34=107|49=T2Kauaiblk1|52=20201215-14:05:04.458|56=MA|10=165|8=FIX.4.4|9=58|35=0|34=108|49=T2Kauaiblk1|52=20201215-14:06:35.458|56=MA|10=171|8=FIX.4.4|9=58|35=0|34=109|49=T2Kauaiblk1|52=20201215-14:08:05.458|56=MA|10=171|8=FIX.4.4|9=58|35=0|34=110|49=T2Kauaiblk1|52=20201215-14:09:35.458|56=MA|10=167|8=FIX.4.4|9=58|35=0|34=111|49=T2Kauaiblk1|52=20201215-14:11:05.459|56=MA|10=159|8=FIX.4.4|9=58|35=0|34=112|49=T2Kauaiblk1|52=20201215-14:12:35.460|56=MA|10=156|8=FIX.4.4|9=58|35=0|34=113|49=T2Kauaiblk1|52=20201215-14:14:05.460|56=MA|10=156|8=FIX.4.4|9=58|35=0|34=114|49=T2Kauaiblk1|52=20201215-14:15:35.461|56=MA|10=162|8=FIX.4.4|9=58|35=0|34=115|49=T2Kauaiblk1|52=20201215-14:17:05.461|56=MA|10=162|8=FIX.4.4|9=58|35=0|34=116|49=T2Kauaiblk1|52=20201215-14:18:35.462|56=MA|10=168|8=FIX.4.4|9=58|35=0|34=117|49=T2Kauaiblk1|52=20201215-14:20:05.463|56=MA|10=160|8=FIX.4.4|9=58|35=0|34=118|49=T2Kauaiblk1|52=20201215-14:21:35.463|56=MA|10=165|8=FIX.4.4|9=58|35=0|34=119|49=T2Kauaiblk1|52=20201215-14:23:06.462|56=MA|10=165|8=FIX.4.4|9=58|35=0|34=120|49=T2Kauaiblk1|52=20201215-14:24:36.463|56=MA|10=162|8=FIX.4.4|9=58|35=0|34=121|49=T2Kauaiblk1|52=20201215-14:26:06.463|56=MA|10=162|8=FIX.4.4|9=58|35=0|34=122|49=T2Kauaiblk1|52=20201215-14:27:36.464|56=MA|10=168|8=FIX.4.4|9=58|35=0|34=123|49=T2Kauaiblk1|52=20201215-14:29:06.464|56=MA|10=168|8=FIX.4.4|9=58|35=0|34=124|49=T2Kauaiblk1|52=20201215-14:30:36.465|56=MA|10=165|8=FIX.4.4|9=58|35=0|34=125|49=T2Kauaiblk1|52=20201215-14:32:06.465|56=MA|10=165|8=FIX.4.4|9=58|35=0|34=126|49=T2Kauaiblk1|52=20201215-14:33:36.465|56=MA|10=170|8=FIX.4.4|9=58|35=0|34=127|49=T2Kauaiblk1|52=20201215-14:35:06.466|56=MA|10=171|8=FIX.4.4|9=58|35=0|34=128|49=T2Kauaiblk1|52=20201215-14:36:36.466|56=MA|10=176|8=FIX.4.4|9=58|35=0|34=129|49=T2Kauaiblk1|52=20201215-14:38:06.466|56=MA|10=176|8=FIX.4.4|9=58|35=0|34=130|49=T2Kauaiblk1|52=20201215-14:39:36.467|56=MA|10=173|8=FIX.4.4|9=58|35=0|34=131|49=T2Kauaiblk1|52=20201215-14:41:06.467|56=MA|10=164|8=FIX.4.4|9=58|35=0|34=132|49=T2Kauaiblk1|52=20201215-14:42:36.468|56=MA|10=170|8=FIX.4.4|9=58|35=0|34=133|49=T2Kauaiblk1|52=20201215-14:44:06.469|56=MA|10=171|8=FIX.4.4|9=58|35=0|34=134|49=T2Kauaiblk1|52=20201215-14:45:36.469|56=MA|10=176|8=FIX.4.4|9=58|35=0|34=135|49=T2Kauaiblk1|52=20201215-14:47:07.469|56=MA|10=177|8=FIX.4.4|9=58|35=0|34=136|49=T2Kauaiblk1|52=20201215-14:48:37.469|56=MA|10=182|8=FIX.4.4|9=58|35=0|34=137|49=T2Kauaiblk1|52=20201215-14:50:07.470|56=MA|10=165|8=FIX.4.4|9=58|35=0|34=138|49=T2Kauaiblk1|52=20201215-14:51:37.470|56=MA|10=170|8=FIX.4.4|9=58|35=0|34=139|49=T2Kauaiblk1|52=20201215-14:53:07.470|56=MA|10=170|8=FIX.4.4|9=58|35=0|34=140|49=T2Kauaiblk1|52=20201215-14:54:37.470|56=MA|10=166|8=FIX.4.4|9=58|35=0|34=141|49=T2Kauaiblk1|52=20201215-14:56:07.471|56=MA|10=167|8=FIX.4.4|9=58|35=0|34=142|49=T2Kauaiblk1|52=20201215-14:57:37.471|56=MA|10=172|8=FIX.4.4|9=58|35=0|34=143|49=T2Kauaiblk1|52=20201215-14:59:07.471|56=MA|10=172|8=FIX.4.4|9=58|35=0|34=144|49=T2Kauaiblk1|52=20201215-15:00:37.471|56=MA|10=163|8=FIX.4.4|9=58|35=0|34=145|49=T2Kauaiblk1|52=20201215-15:02:07.471|56=MA|10=163|8=FIX.4.4|9=58|35=0|34=146|49=T2Kauaiblk1|52=20201215-15:03:37.472|56=MA|10=169|8=FIX.4.4|9=58|35=0|34=147|49=T2Kauaiblk1|52=20201215-15:05:07.473|56=MA|10=170|8=FIX.4.4|9=58|35=0|34=148|49=T2Kauaiblk1|52=20201215-15:06:37.473|56=MA|10=175|8=FIX.4.4|9=58|35=0|34=149|49=T2Kauaiblk1|52=20201215-15:08:07.473|56=MA|10=175|8=FIX.4.4|9=58|35=0|34=150|49=T2Kauaiblk1|52=20201215-15:09:37.473|56=MA|10=171|8=FIX.4.4|9=58|35=0|34=151|49=T2Kauaiblk1|52=20201215-15:11:07.474|56=MA|10=163|8=FIX.4.4|9=58|35=0|34=152|49=T2Kauaiblk1|52=20201215-15:12:37.474|56=MA|10=168|8=FIX.4.4|9=58|35=0|34=153|49=T2Kauaiblk1|52=20201215-15:14:07.474|56=MA|10=168|8=FIX.4.4|9=58|35=0|34=154|49=T2Kauaiblk1|52=20201215-15:15:37.475|56=MA|10=174|8=FIX.4.4|9=58|35=0|34=155|49=T2Kauaiblk1|52=20201215-15:17:07.476|56=MA|10=175|8=FIX.4.4|9=58|35=0|34=156|49=T2Kauaiblk1|52=20201215-15:18:38.475|56=MA|10=180|8=FIX.4.4|9=58|35=0|34=157|49=T2Kauaiblk1|52=20201215-15:20:08.476|56=MA|10=172|8=FIX.4.4|9=58|35=0|34=158|49=T2Kauaiblk1|52=20201215-15:21:39.475|56=MA|10=177|8=FIX.4.4|9=58|35=0|34=159|49=T2Kauaiblk1|52=20201215-15:23:09.477|56=MA|10=179|8=FIX.4.4|9=58|35=0|34=160|49=T2Kauaiblk1|52=20201215-15:24:40.477|56=MA|10=167|8=FIX.4.4|9=58|35=0|34=161|49=T2Kauaiblk1|52=20201215-15:26:11.476|56=MA|10=167|8=FIX.4.4|9=58|35=0|34=162|49=T2Kauaiblk1|52=20201215-15:27:41.477|56=MA|10=173|8=FIX.4.4|9=58|35=0|34=163|49=T2Kauaiblk1|52=20201215-15:29:11.478|56=MA|10=174|8=FIX.4.4|9=58|35=0|34=164|49=T2Kauaiblk1|52=20201215-15:30:42.477|56=MA|10=170|8=FIX.4.4|9=58|35=0|34=165|49=T2Kauaiblk1|52=20201215-15:32:12.478|56=MA|10=171|8=FIX.4.4|9=58|35=0|34=166|49=T2Kauaiblk1|52=20201215-15:33:42.478|56=MA|10=176|8=FIX.4.4|9=58|35=0|34=167|49=T2Kauaiblk1|52=20201215-15:35:12.478|56=MA|10=176|8=FIX.4.4|9=58|35=0|34=168|49=T2Kauaiblk1|52=20201215-15:36:42.479|56=MA|10=182|8=FIX.4.4|9=58|35=0|34=169|49=T2Kauaiblk1|52=20201215-15:38:12.900|56=MA|10=171|8=FIX.4.4|9=58|35=0|34=170|49=T2Kauaiblk1|52=20201215-15:39:43.015|56=MA|10=165|8=FIX.4.4|9=58|35=0|34=171|49=T2Kauaiblk1|52=20201215-15:41:13.032|56=MA|10=155|8=FIX.4.4|9=58|35=0|34=172|49=T2Kauaiblk1|52=20201215-15:42:43.042|56=MA|10=161|8=FIX.4.4|9=58|35=0|34=173|49=T2Kauaiblk1|52=20201215-15:44:13.479|56=MA|10=175|8=FIX.4.4|9=58|35=0|34=174|49=T2Kauaiblk1|52=20201215-15:45:43.479|56=MA|10=180|8=FIX.4.4|9=58|35=0|34=175|49=T2Kauaiblk1|52=20201215-15:47:13.480|56=MA|10=172|8=FIX.4.4|9=58|35=0|34=176|49=T2Kauaiblk1|52=20201215-15:48:43.480|56=MA|10=177|8=FIX.4.4|9=58|35=0|34=177|49=T2Kauaiblk1|52=20201215-15:50:13.480|56=MA|10=168|8=FIX.4.4|9=58|35=0|34=178|49=T2Kauaiblk1|52=20201215-15:51:43.481|56=MA|10=174|8=FIX.4.4|9=58|35=0|34=179|49=T2Kauaiblk1|52=20201215-15:53:13.481|56=MA|10=174|8=FIX.4.4|9=58|35=0|34=180|49=T2Kauaiblk1|52=20201215-15:54:44.480|56=MA|10=170|8=FIX.4.4|9=58|35=0|34=181|49=T2Kauaiblk1|52=20201215-15:56:14.480|56=MA|10=170|8=FIX.4.4|9=58|35=0|34=182|49=T2Kauaiblk1|52=20201215-15:57:44.480|56=MA|10=175|8=FIX.4.4|9=58|35=0|34=183|49=T2Kauaiblk1|52=20201215-15:59:14.481|56=MA|10=176|8=FIX.4.4|9=58|35=0|34=184|49=T2Kauaiblk1|52=20201215-16:00:44.481|56=MA|10=167|8=FIX.4.4|9=58|35=0|34=185|49=T2Kauaiblk1|52=20201215-16:02:14.481|56=MA|10=167|8=FIX.4.4|9=58|35=0|34=186|49=T2Kauaiblk1|52=20201215-16:03:44.482|56=MA|10=173|8=FIX.4.4|9=58|35=0|34=187|49=T2Kauaiblk1|52=20201215-16:05:14.483|56=MA|10=174|8=FIX.4.4|9=58|35=0|34=188|49=T2Kauaiblk1|52=20201215-16:06:45.483|56=MA|10=180|8=FIX.4.4|9=58|35=0|34=189|49=T2Kauaiblk1|52=20201215-16:08:15.483|56=MA|10=180|8=FIX.4.4|9=58|35=0|34=190|49=T2Kauaiblk1|52=20201215-16:09:46.482|56=MA|10=176|8=FIX.4.4|9=58|35=0|34=191|49=T2Kauaiblk1|52=20201215-16:11:16.483|56=MA|10=168|8=FIX.4.4|9=58|35=0|34=192|49=T2Kauaiblk1|52=20201215-16:12:46.484|56=MA|10=174|8=FIX.4.4|9=58|35=0|34=193|49=T2Kauaiblk1|52=20201215-16:14:17.483|56=MA|10=174|8=FIX.4.4|9=58|35=0|34=194|49=T2Kauaiblk1|52=20201215-16:15:47.484|56=MA|10=180|8=FIX.4.4|9=58|35=0|34=195|49=T2Kauaiblk1|52=20201215-16:17:17.484|56=MA|10=180|8=FIX.4.4|9=58|35=0|34=196|49=T2Kauaiblk1|52=20201215-16:18:47.485|56=MA|10=186|8=FIX.4.4|9=58|35=0|34=197|49=T2Kauaiblk1|52=20201215-16:20:18.485|56=MA|10=178|8=FIX.4.4|9=58|35=0|34=198|49=T2Kauaiblk1|52=20201215-16:21:49.485|56=MA|10=184|8=FIX.4.4|9=58|35=0|34=199|49=T2Kauaiblk1|52=20201215-16:23:19.488|56=MA|10=187|8=FIX.4.4|9=58|35=0|34=200|49=T2Kauaiblk1|52=20201215-16:24:49.493|56=MA|10=170|8=FIX.4.4|9=58|35=0|34=201|49=T2Kauaiblk1|52=20201215-16:26:19.495|56=MA|10=172|8=FIX.4.4|9=58|35=0|34=202|49=T2Kauaiblk1|52=20201215-16:27:49.498|56=MA|10=180|8=FIX.4.4|9=58|35=0|34=203|49=T2Kauaiblk1|52=20201215-16:29:19.501|56=MA|10=165|8=FIX.4.4|9=58|35=0|34=204|49=T2Kauaiblk1|52=20201215-16:30:49.505|56=MA|10=165|8=FIX.4.4|9=58|35=0|34=205|49=T2Kauaiblk1|52=20201215-16:32:19.506|56=MA|10=166|8=FIX.4.4|9=58|35=0|34=206|49=T2Kauaiblk1|52=20201215-16:33:49.509|56=MA|10=174|8=FIX.4.4|9=58|35=0|34=207|49=T2Kauaiblk1|52=20201215-16:35:19.512|56=MA|10=168|8=FIX.4.4|9=58|35=0|34=208|49=T2Kauaiblk1|52=20201215-16:36:49.516|56=MA|10=177|8=FIX.4.4|9=58|35=0|34=209|49=T2Kauaiblk1|52=20201215-16:38:19.519|56=MA|10=180|8=FIX.4.4|9=58|35=0|34=210|49=T2Kauaiblk1|52=20201215-16:39:49.521|56=MA|10=169|8=FIX.4.4|9=58|35=0|34=211|49=T2Kauaiblk1|52=20201215-16:41:19.524|56=MA|10=163|8=FIX.4.4|9=58|35=0|34=212|49=T2Kauaiblk1|52=20201215-16:42:49.525|56=MA|10=169|8=FIX.4.4|9=58|35=0|34=213|49=T2Kauaiblk1|52=20201215-16:44:19.528|56=MA|10=172|8=FIX.4.4|9=58|35=0|34=214|49=T2Kauaiblk1|52=20201215-16:45:49.532|56=MA|10=172|8=FIX.4.4|9=58|35=0|34=215|49=T2Kauaiblk1|52=20201215-16:47:19.534|56=MA|10=174|8=FIX.4.4|9=58|35=0|34=216|49=T2Kauaiblk1|52=20201215-16:48:49.536|56=MA|10=181|8=FIX.4.4|9=58|35=0|34=217|49=T2Kauaiblk1|52=20201215-16:50:19.538|56=MA|10=174|8=FIX.4.4|9=58|35=0|34=218|49=T2Kauaiblk1|52=20201215-16:51:49.540|56=MA|10=172|8=FIX.4.4|9=58|35=0|34=219|49=T2Kauaiblk1|52=20201215-16:53:19.542|56=MA|10=174|8=FIX.4.4|9=58|35=0|34=220|49=T2Kauaiblk1|52=20201215-16:54:49.545|56=MA|10=173|8=FIX.4.4|9=58|35=0|34=221|49=T2Kauaiblk1|52=20201215-16:56:19.547|56=MA|10=175|8=FIX.4.4|9=58|35=0|34=222|49=T2Kauaiblk1|52=20201215-16:57:49.549|56=MA|10=182|8=FIX.4.4|9=58|35=0|34=223|49=T2Kauaiblk1|52=20201215-16:59:19.550|56=MA|10=174|8=FIX.4.4|9=58|35=0|34=224|49=T2Kauaiblk1|52=20201215-17:00:49.553|56=MA|10=168|8=FIX.4.4|9=58|35=0|34=225|49=T2Kauaiblk1|52=20201215-17:02:19.555|56=MA|10=170|8=FIX.4.4|9=58|35=0|34=226|49=T2Kauaiblk1|52=20201215-17:03:49.557|56=MA|10=177|8=FIX.4.4|9=58|35=0|34=227|49=T2Kauaiblk1|52=20201215-17:05:19.559|56=MA|10=179|8=FIX.4.4|9=58|35=0|34=228|49=T2Kauaiblk1|52=20201215-17:06:49.560|56=MA|10=176|8=FIX.4.4|9=58|35=0|34=229|49=T2Kauaiblk1|52=20201215-17:08:19.562|56=MA|10=178|8=FIX.4.4|9=58|35=0|34=230|49=T2Kauaiblk1|52=20201215-17:09:49.564|56=MA|10=176|8=FIX.4.4|9=58|35=0|34=231|49=T2Kauaiblk1|52=20201215-17:11:19.566|56=MA|10=169|8=FIX.4.4|9=58|35=0|34=232|49=T2Kauaiblk1|52=20201215-17:12:49.566|56=MA|10=174|8=FIX.4.4|9=58|35=0|34=233|49=T2Kauaiblk1|52=20201215-17:14:19.568|56=MA|10=176|8=FIX.4.4|9=58|35=0|34=234|49=T2Kauaiblk1|52=20201215-17:15:49.570|56=MA|10=174|8=FIX.4.4|9=58|35=0|34=235|49=T2Kauaiblk1|52=20201215-17:17:19.571|56=MA|10=175|8=FIX.4.4|9=58|35=0|34=236|49=T2Kauaiblk1|52=20201215-17:18:49.573|56=MA|10=182|8=FIX.4.4|9=58|35=0|34=237|49=T2Kauaiblk1|52=20201215-17:20:19.575|56=MA|10=175|8=FIX.4.4|9=58|35=0|34=238|49=T2Kauaiblk1|52=20201215-17:21:49.575|56=MA|10=180|8=FIX.4.4|9=58|35=0|34=239|49=T2Kauaiblk1|52=20201215-17:23:19.577|56=MA|10=182|8=FIX.4.4|9=58|35=0|34=240|49=T2Kauaiblk1|52=20201215-17:24:49.578|56=MA|10=179|8=FIX.4.4|9=58|35=0|34=241|49=T2Kauaiblk1|52=20201215-17:26:19.579|56=MA|10=180|8=FIX.4.4|9=58|35=0|34=242|49=T2Kauaiblk1|52=20201215-17:27:49.581|56=MA|10=178|8=FIX.4.4|9=58|35=0|34=243|49=T2Kauaiblk1|52=20201215-17:29:19.582|56=MA|10=179|8=FIX.4.4|9=58|35=0|34=244|49=T2Kauaiblk1|52=20201215-17:30:49.584|56=MA|10=177|8=FIX.4.4|9=58|35=0|34=245|49=T2Kauaiblk1|52=20201215-17:32:19.586|56=MA|10=179|8=FIX.4.4|9=58|35=0|34=246|49=T2Kauaiblk1|52=20201215-17:33:49.586|56=MA|10=184|8=FIX.4.4|9=58|35=0|34=247|49=T2Kauaiblk1|52=20201215-17:35:19.588|56=MA|10=186|8=FIX.4.4|9=58|35=0|34=248|49=T2Kauaiblk1|52=20201215-17:36:49.590|56=MA|10=184|8=FIX.4.4|9=58|35=0|34=249|49=T2Kauaiblk1|52=20201215-17:38:19.590|56=MA|10=184|8=FIX.4.4|9=58|35=0|34=250|49=T2Kauaiblk1|52=20201215-17:39:49.591|56=MA|10=181|8=FIX.4.4|9=58|35=0|34=251|49=T2Kauaiblk1|52=20201215-17:41:19.592|56=MA|10=173|8=FIX.4.4|9=58|35=0|34=252|49=T2Kauaiblk1|52=20201215-17:42:49.594|56=MA|10=180|8=FIX.4.4|9=58|35=0|34=253|49=T2Kauaiblk1|52=20201215-17:44:19.594|56=MA|10=180|8=FIX.4.4|9=58|35=0|34=254|49=T2Kauaiblk1|52=20201215-17:45:49.596|56=MA|10=187|8=FIX.4.4|9=58|35=0|34=255|49=T2Kauaiblk1|52=20201215-17:47:19.597|56=MA|10=188|8=FIX.4.4|9=58|35=0|34=256|49=T2Kauaiblk1|52=20201215-17:48:49.598|56=MA|10=194|8=FIX.4.4|9=58|35=0|34=257|49=T2Kauaiblk1|52=20201215-17:50:19.600|56=MA|10=169|8=FIX.4.4|9=58|35=0|34=258|49=T2Kauaiblk1|52=20201215-17:51:50.601|56=MA|10=167|8=FIX.4.4|9=58|35=0|34=259|49=T2Kauaiblk1|52=20201215-17:53:21.602|56=MA|10=169|8=FIX.4.4|9=58|35=0|34=260|49=T2Kauaiblk1|52=20201215-17:54:52.602|56=MA|10=166|8=FIX.4.4|9=58|35=0|34=261|49=T2Kauaiblk1|52=20201215-17:56:22.602|56=MA|10=166|8=FIX.4.4|9=58|35=0|34=262|49=T2Kauaiblk1|52=20201215-17:57:52.605|56=MA|10=174|8=FIX.4.4|9=58|35=0|34=263|49=T2Kauaiblk1|52=20201215-17:59:22.605|56=MA|10=174|8=FIX.4.4|9=58|35=0|34=264|49=T2Kauaiblk1|52=20201215-18:00:52.605|56=MA|10=165|8=FIX.4.4|9=58|35=0|34=265|49=T2Kauaiblk1|52=20201215-18:02:22.606|56=MA|10=166|8=FIX.4.4|9=58|35=0|34=266|49=T2Kauaiblk1|52=20201215-18:03:52.607|56=MA|10=172|8=FIX.4.4|9=58|35=0|34=267|49=T2Kauaiblk1|52=20201215-18:05:22.609|56=MA|10=174|8=FIX.4.4|9=58|35=0|34=268|49=T2Kauaiblk1|52=20201215-18:06:52.610|56=MA|10=171|8=FIX.4.4|9=58|35=0|34=269|49=T2Kauaiblk1|52=20201215-18:08:23.610|56=MA|10=172|8=FIX.4.4|9=58|35=0|34=270|49=T2Kauaiblk1|52=20201215-18:09:53.610|56=MA|10=168|8=FIX.4.4|9=58|35=0|34=271|49=T2Kauaiblk1|52=20201215-18:11:23.611|56=MA|10=160|8=FIX.4.4|9=58|35=0|34=272|49=T2Kauaiblk1|52=20201215-18:12:53.612|56=MA|10=166|8=FIX.4.4|9=58|35=0|34=273|49=T2Kauaiblk1|52=20201215-18:14:23.612|56=MA|10=166|8=FIX.4.4|9=58|35=0|34=274|49=T2Kauaiblk1|52=20201215-18:15:53.614|56=MA|10=173|8=FIX.4.4|9=58|35=0|34=275|49=T2Kauaiblk1|52=20201215-18:17:23.614|56=MA|10=173|8=FIX.4.4|9=58|35=0|34=276|49=T2Kauaiblk1|52=20201215-18:18:53.616|56=MA|10=180|8=FIX.4.4|9=58|35=0|34=277|49=T2Kauaiblk1|52=20201215-18:20:24.615|56=MA|10=171|8=FIX.4.4|9=58|35=0|34=278|49=T2Kauaiblk1|52=20201215-18:21:54.616|56=MA|10=177|8=FIX.4.4|9=58|35=0|34=279|49=T2Kauaiblk1|52=20201215-18:23:24.617|56=MA|10=178|8=FIX.4.4|9=58|35=0|34=280|49=T2Kauaiblk1|52=20201215-18:24:54.617|56=MA|10=174|8=FIX.4.4|9=58|35=0|34=281|49=T2Kauaiblk1|52=20201215-18:26:24.618|56=MA|10=175|8=FIX.4.4|9=58|35=0|34=282|49=T2Kauaiblk1|52=20201215-18:27:54.619|56=MA|10=181|8=FIX.4.4|9=58|35=0|34=283|49=T2Kauaiblk1|52=20201215-18:29:24.620|56=MA|10=173|8=FIX.4.4|9=58|35=0|34=284|49=T2Kauaiblk1|52=20201215-18:30:54.620|56=MA|10=169|8=FIX.4.4|9=58|35=0|34=285|49=T2Kauaiblk1|52=20201215-18:32:24.620|56=MA|10=169|8=FIX.4.4|9=58|35=0|34=286|49=T2Kauaiblk1|52=20201215-18:33:54.621|56=MA|10=175|8=FIX.4.4|9=58|35=0|34=287|49=T2Kauaiblk1|52=20201215-18:35:24.623|56=MA|10=177|8=FIX.4.4|9=58|35=0|34=288|49=T2Kauaiblk1|52=20201215-18:36:54.623|56=MA|10=182|8=FIX.4.4|9=58|35=0|34=289|49=T2Kauaiblk1|52=20201215-18:38:24.623|56=MA|10=182|8=FIX.4.4|9=58|35=0|34=290|49=T2Kauaiblk1|52=20201215-18:39:54.623|56=MA|10=178|8=FIX.4.4|9=58|35=0|34=291|49=T2Kauaiblk1|52=20201215-18:41:24.624|56=MA|10=170|8=FIX.4.4|9=58|35=0|34=292|49=T2Kauaiblk1|52=20201215-18:42:54.625|56=MA|10=176|8=FIX.4.4|9=58|35=0|34=293|49=T2Kauaiblk1|52=20201215-18:44:24.625|56=MA|10=176|8=FIX.4.4|9=58|35=0|34=294|49=T2Kauaiblk1|52=20201215-18:45:54.625|56=MA|10=181|8=FIX.4.4|9=58|35=0|34=295|49=T2Kauaiblk1|52=20201215-18:47:24.627|56=MA|10=183|8=FIX.4.4|9=58|35=0|34=296|49=T2Kauaiblk1|52=20201215-18:48:55.626|56=MA|10=188|8=FIX.4.4|9=58|35=0|34=297|49=T2Kauaiblk1|52=20201215-18:50:25.626|56=MA|10=179|8=FIX.4.4|9=58|35=0|34=298|49=T2Kauaiblk1|52=20201215-18:51:55.627|56=MA|10=185|8=FIX.4.4|9=58|35=0|34=299|49=T2Kauaiblk1|52=20201215-18:53:25.627|56=MA|10=185|8=FIX.4.4|9=58|35=0|34=300|49=T2Kauaiblk1|52=20201215-18:54:55.627|56=MA|10=172|8=FIX.4.4|9=58|35=0|34=301|49=T2Kauaiblk1|52=20201215-18:56:25.628|56=MA|10=173|8=FIX.4.4|9=58|35=0|34=302|49=T2Kauaiblk1|52=20201215-18:57:55.628|56=MA|10=178|8=FIX.4.4|9=58|35=0|34=303|49=T2Kauaiblk1|52=20201215-18:59:25.629|56=MA|10=179|8=FIX.4.4|9=58|35=0|34=304|49=T2Kauaiblk1|52=20201215-19:00:55.630|56=MA|10=162|8=FIX.4.4|9=58|35=0|34=305|49=T2Kauaiblk1|52=20201215-19:02:25.630|56=MA|10=162|8=FIX.4.4|9=58|35=0|34=306|49=T2Kauaiblk1|52=20201215-19:03:55.632|56=MA|10=169|8=FIX.4.4|9=58|35=0|34=307|49=T2Kauaiblk1|52=20201215-19:05:26.632|56=MA|10=170|8=FIX.4.4|9=58|35=0|34=308|49=T2Kauaiblk1|52=20201215-19:06:57.632|56=MA|10=176|8=FIX.4.4|9=58|35=0|34=309|49=T2Kauaiblk1|52=20201215-19:08:28.632|56=MA|10=177|8=FIX.4.4|9=58|35=0|34=310|49=T2Kauaiblk1|52=20201215-19:09:58.632|56=MA|10=173|8=FIX.4.4|9=58|35=0|34=311|49=T2Kauaiblk1|52=20201215-19:11:28.633|56=MA|10=165|8=FIX.4.4|9=58|35=0|34=312|49=T2Kauaiblk1|52=20201215-19:12:58.634|56=MA|10=171|8=FIX.4.4|9=58|35=0|34=313|49=T2Kauaiblk1|52=20201215-19:14:28.635|56=MA|10=172|8=FIX.4.4|9=58|35=0|34=314|49=T2Kauaiblk1|52=20201215-19:15:59.634|56=MA|10=177|8=FIX.4.4|9=58|35=0|34=315|49=T2Kauaiblk1|52=20201215-19:17:29.636|56=MA|10=179|8=FIX.4.4|9=58|35=0|34=316|49=T2Kauaiblk1|52=20201215-19:19:00.636|56=MA|10=171|8=FIX.4.4|9=58|35=0|34=317|49=T2Kauaiblk1|52=20201215-19:20:31.635|56=MA|10=167|8=FIX.4.4|9=58|35=0|34=318|49=T2Kauaiblk1|52=20201215-19:22:01.636|56=MA|10=168|8=FIX.4.4|9=58|35=0|34=319|49=T2Kauaiblk1|52=20201215-19:23:31.636|56=MA|10=173|8=FIX.4.4|9=58|35=0|34=320|49=T2Kauaiblk1|52=20201215-19:25:01.636|56=MA|10=164|8=FIX.4.4|9=58|35=0|34=321|49=T2Kauaiblk1|52=20201215-19:26:31.637|56=MA|10=170|8=FIX.4.4|9=58|35=0|34=322|49=T2Kauaiblk1|52=20201215-19:28:01.637|56=MA|10=170|8=FIX.4.4|9=58|35=0|34=323|49=T2Kauaiblk1|52=20201215-19:29:31.637|56=MA|10=175|8=FIX.4.4|9=58|35=0|34=324|49=T2Kauaiblk1|52=20201215-19:31:01.637|56=MA|10=166|8=FIX.4.4|9=58|35=0|34=325|49=T2Kauaiblk1|52=20201215-19:32:31.637|56=MA|10=171|8=FIX.4.4|9=58|35=0|34=326|49=T2Kauaiblk1|52=20201215-19:34:01.638|56=MA|10=172|8=FIX.4.4|9=58|35=0|34=327|49=T2Kauaiblk1|52=20201215-19:35:31.640|56=MA|10=170|8=FIX.4.4|9=58|35=0|34=328|49=T2Kauaiblk1|52=20201215-19:37:01.640|56=MA|10=170|8=FIX.4.4|9=58|35=0|34=329|49=T2Kauaiblk1|52=20201215-19:38:31.640|56=MA|10=175|8=FIX.4.4|9=58|35=0|34=330|49=T2Kauaiblk1|52=20201215-19:40:01.641|56=MA|10=158|8=FIX.4.4|9=58|35=0|34=331|49=T2Kauaiblk1|52=20201215-19:41:32.639|56=MA|10=171|8=FIX.4.4|9=58|35=0|34=332|49=T2Kauaiblk1|52=20201215-19:43:02.640|56=MA|10=163|8=FIX.4.4|9=58|35=0|34=333|49=T2Kauaiblk1|52=20201215-19:44:32.640|56=MA|10=168|8=FIX.4.4|9=58|35=0|34=334|49=T2Kauaiblk1|52=20201215-19:46:02.640|56=MA|10=168|8=FIX.4.4|9=58|35=0|34=335|49=T2Kauaiblk1|52=20201215-19:47:32.642|56=MA|10=175|8=FIX.4.4|9=58|35=0|34=336|49=T2Kauaiblk1|52=20201215-19:49:03.641|56=MA|10=175|8=FIX.4.4|9=58|35=0|34=337|49=T2Kauaiblk1|52=20201215-19:50:33.642|56=MA|10=172|8=FIX.4.4|9=58|35=0|34=338|49=T2Kauaiblk1|52=20201215-19:52:03.643|56=MA|10=173|8=FIX.4.4|9=58|35=0|34=339|49=T2Kauaiblk1|52=20201215-19:53:33.906|56=MA|10=180|8=FIX.4.4|9=58|35=0|34=340|49=T2Kauaiblk1|52=20201215-19:55:04.065|56=MA|10=168|8=FIX.4.4|9=58|35=0|34=341|49=T2Kauaiblk1|52=20201215-19:56:34.642|56=MA|10=174|8=FIX.4.4|9=58|35=0|34=342|49=T2Kauaiblk1|52=20201215-19:58:04.643|56=MA|10=175|8=FIX.4.4|9=58|35=0|34=343|49=T2Kauaiblk1|52=20201215-19:59:34.643|56=MA|10=180|8=FIX.4.4|9=58|35=0|34=344|49=T2Kauaiblk1|52=20201215-20:01:04.644|56=MA|10=158|8=FIX.4.4|9=58|35=0|34=345|49=T2Kauaiblk1|52=20201215-20:02:34.644|56=MA|10=163|8=FIX.4.4|9=58|35=0|34=346|49=T2Kauaiblk1|52=20201215-20:04:04.644|56=MA|10=163|8=FIX.4.4|9=58|35=0|34=347|49=T2Kauaiblk1|52=20201215-20:05:34.644|56=MA|10=168|8=FIX.4.4|9=58|35=0|34=348|49=T2Kauaiblk1|52=20201215-20:07:04.644|56=MA|10=168|8=FIX.4.4|9=58|35=0|34=349|49=T2Kauaiblk1|52=20201215-20:08:34.645|56=MA|10=174|8=FIX.4.4|9=58|35=0|34=350|49=T2Kauaiblk1|52=20201215-20:10:04.646|56=MA|10=157|8=FIX.4.4|9=58|35=0|34=351|49=T2Kauaiblk1|52=20201215-20:11:35.645|56=MA|10=162|8=FIX.4.4|9=58|35=0|34=352|49=T2Kauaiblk1|52=20201215-20:13:05.647|56=MA|10=164|8=FIX.4.4|9=58|35=0|34=353|49=T2Kauaiblk1|52=20201215-20:14:36.646|56=MA|10=169|8=FIX.4.4|9=58|35=0|34=354|49=T2Kauaiblk1|52=20201215-20:16:06.647|56=MA|10=170|8=FIX.4.4|9=58|35=0|34=355|49=T2Kauaiblk1|52=20201215-20:17:36.647|56=MA|10=175|8=FIX.4.4|9=58|35=0|34=356|49=T2Kauaiblk1|52=20201215-20:19:06.647|56=MA|10=175|8=FIX.4.4|9=58|35=0|34=357|49=T2Kauaiblk1|52=20201215-20:20:36.647|56=MA|10=171|8=FIX.4.4|9=58|35=0|34=358|49=T2Kauaiblk1|52=20201215-20:22:06.647|56=MA|10=171|8=FIX.4.4|9=58|35=0|34=359|49=T2Kauaiblk1|52=20201215-20:23:36.648|56=MA|10=177|8=FIX.4.4|9=58|35=0|34=360|49=T2Kauaiblk1|52=20201215-20:25:06.648|56=MA|10=168|8=FIX.4.4|9=58|35=0|34=361|49=T2Kauaiblk1|52=20201215-20:26:36.648|56=MA|10=173|8=FIX.4.4|9=58|35=0|34=362|49=T2Kauaiblk1|52=20201215-20:28:06.648|56=MA|10=173|8=FIX.4.4|9=58|35=0|34=363|49=T2Kauaiblk1|52=20201215-20:29:36.648|56=MA|10=178|8=FIX.4.4|9=58|35=0|34=364|49=T2Kauaiblk1|52=20201215-20:31:06.650|56=MA|10=162|8=FIX.4.4|9=58|35=0|34=365|49=T2Kauaiblk1|52=20201215-20:32:37.649|56=MA|10=176|8=FIX.4.4|9=58|35=0|34=366|49=T2Kauaiblk1|52=20201215-20:34:08.648|56=MA|10=176|8=FIX.4.4|9=58|35=0|34=367|49=T2Kauaiblk1|52=20201215-20:35:38.650|56=MA|10=174|8=FIX.4.4|9=58|35=0|34=368|49=T2Kauaiblk1|52=20201215-20:37:09.649|56=MA|10=183|8=FIX.4.4|9=58|35=0|34=369|49=T2Kauaiblk1|52=20201215-20:38:39.651|56=MA|10=181|8=FIX.4.4|9=58|35=0|34=370|49=T2Kauaiblk1|52=20201215-20:40:10.650|56=MA|10=154|8=FIX.4.4|9=58|35=0|34=371|49=T2Kauaiblk1|52=20201215-20:41:40.650|56=MA|10=159|8=FIX.4.4|9=58|35=0|34=372|49=T2Kauaiblk1|52=20201215-20:43:10.650|56=MA|10=159|8=FIX.4.4|9=58|35=0|34=373|49=T2Kauaiblk1|52=20201215-20:44:40.651|56=MA|10=165|8=FIX.4.4|9=58|35=0|34=374|49=T2Kauaiblk1|52=20201215-20:46:10.651|56=MA|10=165|8=FIX.4.4|9=58|35=0|34=375|49=T2Kauaiblk1|52=20201215-20:47:40.651|56=MA|10=170|8=FIX.4.4|9=58|35=0|34=376|49=T2Kauaiblk1|52=20201215-20:49:10.651|56=MA|10=170|8=FIX.4.4|9=58|35=0|34=377|49=T2Kauaiblk1|52=20201215-20:50:40.651|56=MA|10=166|8=FIX.4.4|9=58|35=0|34=378|49=T2Kauaiblk1|52=20201215-20:52:10.652|56=MA|10=167|8=FIX.4.4|9=58|35=0|34=379|49=T2Kauaiblk1|52=20201215-20:53:40.653|56=MA|10=173|8=FIX.4.4|9=58|35=0|34=380|49=T2Kauaiblk1|52=20201215-20:55:10.653|56=MA|10=164|8=FIX.4.4|9=58|35=0|34=381|49=T2Kauaiblk1|52=20201215-20:56:40.654|56=MA|10=170|8=FIX.4.4|9=58|35=0|34=382|49=T2Kauaiblk1|52=20201215-20:58:10.656|56=MA|10=172|8=FIX.4.4|9=58|35=0|34=383|49=T2Kauaiblk1|52=20201215-20:59:40.657|56=MA|10=178|8=FIX.4.4|9=58|35=0|34=384|49=T2Kauaiblk1|52=20201215-21:01:10.659|56=MA|10=166|8=FIX.4.4|9=58|35=0|34=385|49=T2Kauaiblk1|52=20201215-21:02:40.661|56=MA|10=164|8=FIX.4.4|9=58|35=0|34=386|49=T2Kauaiblk1|52=20201215-21:04:10.662|56=MA|10=165|8=FIX.4.4|9=58|35=0|34=387|49=T2Kauaiblk1|52=20201215-21:05:40.665|56=MA|10=173|8=FIX.4.4|9=58|35=0|34=388|49=T2Kauaiblk1|52=20201215-21:07:10.665|56=MA|10=173|8=FIX.4.4|9=58|35=0|34=389|49=T2Kauaiblk1|52=20201215-21:08:40.667|56=MA|10=180|8=FIX.4.4|9=58|35=0|34=390|49=T2Kauaiblk1|52=20201215-21:10:10.668|56=MA|10=163|8=FIX.4.4|9=58|35=0|34=391|49=T2Kauaiblk1|52=20201215-21:11:40.669|56=MA|10=169|8=FIX.4.4|9=58|35=0|34=392|49=T2Kauaiblk1|52=20201215-21:13:10.670|56=MA|10=161|8=FIX.4.4|9=58|35=0|34=393|49=T2Kauaiblk1|52=20201215-21:14:40.672|56=MA|10=168|8=FIX.4.4|9=58|35=0|34=394|49=T2Kauaiblk1|52=20201215-21:16:10.674|56=MA|10=170|8=FIX.4.4|9=58|35=0|34=395|49=T2Kauaiblk1|52=20201215-21:17:40.675|56=MA|10=176|8=FIX.4.4|9=58|35=0|34=396|49=T2Kauaiblk1|52=20201215-21:19:10.676|56=MA|10=177|8=FIX.4.4|9=58|35=0|34=397|49=T2Kauaiblk1|52=20201215-21:20:40.678|56=MA|10=175|8=FIX.4.4|9=58|35=0|34=398|49=T2Kauaiblk1|52=20201215-21:22:10.679|56=MA|10=176|8=FIX.4.4|9=58|35=0|34=399|49=T2Kauaiblk1|52=20201215-21:23:40.681|56=MA|10=174|8=FIX.4.4|9=58|35=0|34=400|49=T2Kauaiblk1|52=20201215-21:25:10.683|56=MA|10=158|8=FIX.4.4|9=58|35=0|34=401|49=T2Kauaiblk1|52=20201215-21:26:40.683|56=MA|10=163|8=FIX.4.4|9=58|35=0|34=402|49=T2Kauaiblk1|52=20201215-21:28:10.685|56=MA|10=165|8=FIX.4.4|9=58|35=0|34=403|49=T2Kauaiblk1|52=20201215-21:29:40.688|56=MA|10=173|8=FIX.4.4|9=58|35=0|34=404|49=T2Kauaiblk1|52=20201215-21:31:10.688|56=MA|10=164|8=FIX.4.4|9=58|35=0|34=405|49=T2Kauaiblk1|52=20201215-21:32:40.689|56=MA|10=170|8=FIX.4.4|9=58|35=0|34=406|49=T2Kauaiblk1|52=20201215-21:34:10.692|56=MA|10=164|8=FIX.4.4|9=58|35=0|34=407|49=T2Kauaiblk1|52=20201215-21:35:40.692|56=MA|10=169|8=FIX.4.4|9=58|35=0|34=408|49=T2Kauaiblk1|52=20201215-21:37:10.693|56=MA|10=170|8=FIX.4.4|9=58|35=0|34=409|49=T2Kauaiblk1|52=20201215-21:38:40.694|56=MA|10=176|8=FIX.4.4|9=58|35=0|34=410|49=T2Kauaiblk1|52=20201215-21:40:10.696|56=MA|10=160|8=FIX.4.4|9=58|35=0|34=411|49=T2Kauaiblk1|52=20201215-21:41:40.696|56=MA|10=165|8=FIX.4.4|9=58|35=0|34=412|49=T2Kauaiblk1|52=20201215-21:43:10.698|56=MA|10=167|8=FIX.4.4|9=58|35=0|34=413|49=T2Kauaiblk1|52=20201215-21:44:40.700|56=MA|10=156|8=FIX.4.4|9=58|35=0|34=414|49=T2Kauaiblk1|52=20201215-21:46:10.700|56=MA|10=156|8=FIX.4.4|9=58|35=0|34=415|49=T2Kauaiblk1|52=20201215-21:47:40.701|56=MA|10=162|8=FIX.4.4|9=58|35=0|34=416|49=T2Kauaiblk1|52=20201215-21:49:10.702|56=MA|10=163|8=FIX.4.4|9=58|35=0|34=417|49=T2Kauaiblk1|52=20201215-21:50:40.703|56=MA|10=160|8=FIX.4.4|9=58|35=0|34=418|49=T2Kauaiblk1|52=20201215-21:52:10.705|56=MA|10=162|8=FIX.4.4|9=58|35=0|34=419|49=T2Kauaiblk1|52=20201215-21:53:40.706|56=MA|10=168|8=FIX.4.4|9=58|35=0|34=420|49=T2Kauaiblk1|52=20201215-21:55:10.706|56=MA|10=159|8=FIX.4.4|9=58|35=0|34=421|49=T2Kauaiblk1|52=20201215-21:56:40.708|56=MA|10=166|8=FIX.4.4|9=58|35=0|34=422|49=T2Kauaiblk1|52=20201215-21:58:10.710|56=MA|10=159|8=FIX.4.4|9=58|35=0|34=423|49=T2Kauaiblk1|52=20201215-21:59:40.710|56=MA|10=164|8=FIX.4.4|9=58|35=0|34=424|49=T2Kauaiblk1|52=20201215-22:01:10.711|56=MA|10=151|8=FIX.4.4|9=58|35=0|34=425|49=T2Kauaiblk1|52=20201215-22:02:40.712|56=MA|10=157|8=FIX.4.4|9=58|35=0|34=426|49=T2Kauaiblk1|52=20201215-22:04:10.713|56=MA|10=158|8=FIX.4.4|9=58|35=0|34=427|49=T2Kauaiblk1|52=20201215-22:05:40.714|56=MA|10=164|8=FIX.4.4|9=58|35=0|34=428|49=T2Kauaiblk1|52=20201215-22:07:10.716|56=MA|10=166|8=FIX.4.4|9=58|35=0|34=429|49=T2Kauaiblk1|52=20201215-22:08:40.718|56=MA|10=173|8=FIX.4.4|9=58|35=0|34=430|49=T2Kauaiblk1|52=20201215-22:10:11.717|56=MA|10=155|8=FIX.4.4|9=58|35=0|34=431|49=T2Kauaiblk1|52=20201215-22:11:41.720|56=MA|10=154|8=FIX.4.4|9=58|35=0|34=432|49=T2Kauaiblk1|52=20201215-22:13:11.720|56=MA|10=154|8=FIX.4.4|9=58|35=0|34=433|49=T2Kauaiblk1|52=20201215-22:14:41.720|56=MA|10=159|8=FIX.4.4|9=58|35=0|34=434|49=T2Kauaiblk1|52=20201215-22:16:11.722|56=MA|10=161|8=FIX.4.4|9=58|35=0|34=435|49=T2Kauaiblk1|52=20201215-22:17:41.723|56=MA|10=167|8=FIX.4.4|9=58|35=0|34=436|49=T2Kauaiblk1|52=20201215-22:19:11.724|56=MA|10=168|8=FIX.4.4|9=58|35=0|34=437|49=T2Kauaiblk1|52=20201215-22:20:41.725|56=MA|10=165|8=FIX.4.4|9=58|35=0|34=438|49=T2Kauaiblk1|52=20201215-22:22:11.726|56=MA|10=166|8=FIX.4.4|9=58|35=0|34=439|49=T2Kauaiblk1|52=20201215-22:23:41.728|56=MA|10=173|8=FIX.4.4|9=58|35=0|34=440|49=T2Kauaiblk1|52=20201215-22:25:11.729|56=MA|10=165|8=FIX.4.4|9=58|35=0|34=441|49=T2Kauaiblk1|52=20201215-22:26:41.729|56=MA|10=170|8=FIX.4.4|9=58|35=0|34=442|49=T2Kauaiblk1|52=20201215-22:28:11.730|56=MA|10=162|8=FIX.4.4|9=58|35=0|34=443|49=T2Kauaiblk1|52=20201215-22:29:41.730|56=MA|10=167|8=FIX.4.4|9=58|35=0|34=444|49=T2Kauaiblk1|52=20201215-22:31:11.732|56=MA|10=160|8=FIX.4.4|9=58|35=0|34=445|49=T2Kauaiblk1|52=20201215-22:32:41.733|56=MA|10=166|8=FIX.4.4|9=58|35=0|34=446|49=T2Kauaiblk1|52=20201215-22:34:11.733|56=MA|10=166|8=FIX.4.4|9=58|35=0|34=447|49=T2Kauaiblk1|52=20201215-22:35:41.735|56=MA|10=173|8=FIX.4.4|9=58|35=0|34=448|49=T2Kauaiblk1|52=20201215-22:37:11.735|56=MA|10=173|8=FIX.4.4|9=58|35=0|34=449|49=T2Kauaiblk1|52=20201215-22:38:41.735|56=MA|10=178|8=FIX.4.4|9=58|35=0|34=450|49=T2Kauaiblk1|52=20201215-22:40:11.736|56=MA|10=161|8=FIX.4.4|9=58|35=0|34=451|49=T2Kauaiblk1|52=20201215-22:41:41.738|56=MA|10=168|8=FIX.4.4|9=58|35=0|34=452|49=T2Kauaiblk1|52=20201215-22:43:11.738|56=MA|10=168|8=FIX.4.4|9=58|35=0|34=453|49=T2Kauaiblk1|52=20201215-22:44:41.739|56=MA|10=174|8=FIX.4.4|9=58|35=0|34=454|49=T2Kauaiblk1|52=20201215-22:46:11.740|56=MA|10=166|8=FIX.4.4|9=58|35=0|34=455|49=T2Kauaiblk1|52=20201215-22:47:41.741|56=MA|10=172|8=FIX.4.4|9=58|35=0|34=456|49=T2Kauaiblk1|52=20201215-22:49:12.740|56=MA|10=172|8=FIX.4.4|9=58|35=0|34=457|49=T2Kauaiblk1|52=20201215-22:50:42.741|56=MA|10=169|8=FIX.4.4|9=58|35=0|34=458|49=T2Kauaiblk1|52=20201215-22:52:12.743|56=MA|10=171|8=FIX.4.4|9=58|35=0|34=459|49=T2Kauaiblk1|52=20201215-22:53:42.744|56=MA|10=177|8=FIX.4.4|9=58|35=0|34=460|49=T2Kauaiblk1|52=20201215-22:55:12.744|56=MA|10=168|8=FIX.4.4|9=58|35=0|34=461|49=T2Kauaiblk1|52=20201215-22:56:42.744|56=MA|10=173|8=FIX.4.4|9=58|35=0|34=462|49=T2Kauaiblk1|52=20201215-22:58:12.746|56=MA|10=175|8=FIX.4.4|9=58|35=0|34=463|49=T2Kauaiblk1|52=20201215-22:59:42.746|56=MA|10=180|8=FIX.4.4|9=58|35=0|34=464|49=T2Kauaiblk1|52=20201215-23:01:12.748|56=MA|10=168|8=FIX.4.4|9=58|35=0|34=465|49=T2Kauaiblk1|52=20201215-23:02:42.748|56=MA|10=173|8=FIX.4.4|9=58|35=0|34=466|49=T2Kauaiblk1|52=20201215-23:04:12.749|56=MA|10=174|8=FIX.4.4|9=58|35=5|34=467|49=T2Kauaiblk1|52=20201215-23:05:01.942|56=MA|10=174|8=FIX.4.4|9=91|35=A|34=1|49=T2Kauaiblk1|52=20201216-09:46:04.597|56=MA|98=0|108=90|95=8|96=3.0.0rc5|141=Y|10=048|8=FIX.4.4|9=91|35=A|34=1|49=T2Kauaiblk1|52=20201216-09:46:11.641|56=MA|98=0|108=90|95=8|96=3.0.0rc5|141=Y|10=036|8=FIX.4.4|9=91|35=A|34=1|49=T2Kauaiblk1|52=20201216-09:52:25.592|56=MA|98=0|108=90|95=8|96=3.0.0rc5|141=Y|10=043|8=FIX.4.4|9=91|35=A|34=1|49=T2Kauaiblk1|52=20201216-12:54:30.618|56=MA|98=0|108=90|95=8|96=3.0.0rc5|141=Y|10=034|8=FIX.4.4|9=91|35=A|34=1|49=T2Kauaiblk1|52=20201216-14:00:22.784|56=MA|98=0|108=90|95=8|96=3.0.0rc5|141=Y|10=032|8=FIX.4.4|9=91|35=A|34=1|49=T2Kauaiblk1|52=20201217-08:16:28.824|56=MA|98=0|108=90|95=8|96=3.0.0rc5|141=Y|10=044|8=FIX.4.4|9=91|35=A|34=1|49=T2Kauaiblk1|52=20201217-09:29:25.895|56=MA|98=0|108=90|95=8|96=3.0.0rc5|141=Y|10=054|8=FIX.4.4|9=56|35=0|34=2|49=T2Kauaiblk1|52=20201217-09:30:55.897|56=MA|10=078|8=FIX.4.4|9=56|35=0|34=3|49=T2Kauaiblk1|52=20201217-09:32:25.898|56=MA|10=079|8=FIX.4.4|9=56|35=0|34=4|49=T2Kauaiblk1|52=20201217-09:33:55.900|56=MA|10=068|8=FIX.4.4|9=56|35=0|34=5|49=T2Kauaiblk1|52=20201217-09:35:25.902|56=MA|10=070|8=FIX.4.4|9=56|35=0|34=6|49=T2Kauaiblk1|52=20201217-09:36:56.902|56=MA|10=076|8=FIX.4.4|9=56|35=0|34=7|49=T2Kauaiblk1|52=20201217-09:38:26.903|56=MA|10=077|8=FIX.4.4|9=56|35=0|34=8|49=T2Kauaiblk1|52=20201217-09:39:56.904|56=MA|10=083|8=FIX.4.4|9=56|35=0|34=9|49=T2Kauaiblk1|52=20201217-09:41:26.905|56=MA|10=075|8=FIX.4.4|9=57|35=0|34=10|49=T2Kauaiblk1|52=20201217-09:42:56.908|56=MA|10=123|8=FIX.4.4|9=57|35=0|34=11|49=T2Kauaiblk1|52=20201217-09:44:27.908|56=MA|10=124|8=FIX.4.4|9=57|35=0|34=12|49=T2Kauaiblk1|52=20201217-09:45:57.908|56=MA|10=129|8=FIX.4.4|9=57|35=0|34=13|49=T2Kauaiblk1|52=20201217-09:47:27.911|56=MA|10=123|8=FIX.4.4|9=57|35=0|34=14|49=T2Kauaiblk1|52=20201217-09:48:58.911|56=MA|10=129|8=FIX.4.4|9=57|35=0|34=15|49=T2Kauaiblk1|52=20201217-09:50:28.912|56=MA|10=121|8=FIX.4.4|9=57|35=0|34=16|49=T2Kauaiblk1|52=20201217-09:51:58.913|56=MA|10=127|8=FIX.4.4|9=57|35=0|34=17|49=T2Kauaiblk1|52=20201217-09:53:28.915|56=MA|10=129|8=FIX.4.4|9=57|35=0|34=18|49=T2Kauaiblk1|52=20201217-09:54:58.915|56=MA|10=134|8=FIX.4.4|9=57|35=0|34=19|49=T2Kauaiblk1|52=20201217-09:56:28.916|56=MA|10=135|8=FIX.4.4|9=57|35=0|34=20|49=T2Kauaiblk1|52=20201217-09:57:58.918|56=MA|10=133|8=FIX.4.4|9=57|35=0|34=21|49=T2Kauaiblk1|52=20201217-09:59:28.918|56=MA|10=133|8=FIX.4.4|9=57|35=0|34=22|49=T2Kauaiblk1|52=20201217-10:00:58.920|56=MA|10=108|8=FIX.4.4|9=57|35=0|34=23|49=T2Kauaiblk1|52=20201217-10:02:28.920|56=MA|10=108|8=FIX.4.4|9=57|35=0|34=24|49=T2Kauaiblk1|52=20201217-10:03:58.922|56=MA|10=115|8=FIX.4.4|9=57|35=0|34=25|49=T2Kauaiblk1|52=20201217-10:05:28.923|56=MA|10=116|8=FIX.4.4|9=57|35=0|34=26|49=T2Kauaiblk1|52=20201217-10:06:58.925|56=MA|10=123|8=FIX.4.4|9=57|35=0|34=27|49=T2Kauaiblk1|52=20201217-10:08:29.924|56=MA|10=123|8=FIX.4.4|9=57|35=0|34=28|49=T2Kauaiblk1|52=20201217-10:09:59.926|56=MA|10=130|8=FIX.4.4|9=57|35=0|34=29|49=T2Kauaiblk1|52=20201217-10:11:29.926|56=MA|10=121|8=FIX.4.4|9=57|35=0|34=30|49=T2Kauaiblk1|52=20201217-10:12:59.927|56=MA|10=118|8=FIX.4.4|9=57|35=0|34=31|49=T2Kauaiblk1|52=20201217-10:14:29.929|56=MA|10=120|8=FIX.4.4|9=57|35=0|34=32|49=T2Kauaiblk1|52=20201217-10:15:59.929|56=MA|10=125|8=FIX.4.4|9=57|35=0|34=33|49=T2Kauaiblk1|52=20201217-10:17:29.930|56=MA|10=117|8=FIX.4.4|9=57|35=0|34=34|49=T2Kauaiblk1|52=20201217-10:18:59.931|56=MA|10=123|8=FIX.4.4|9=57|35=0|34=35|49=T2Kauaiblk1|52=20201217-10:20:29.933|56=MA|10=116|8=FIX.4.4|9=57|35=0|34=36|49=T2Kauaiblk1|52=20201217-10:22:00.933|56=MA|10=108|8=FIX.4.4|9=57|35=0|34=37|49=T2Kauaiblk1|52=20201217-10:23:30.935|56=MA|10=115|8=FIX.4.4|9=57|35=0|34=38|49=T2Kauaiblk1|52=20201217-10:25:00.935|56=MA|10=115|8=FIX.4.4|9=57|35=0|34=39|49=T2Kauaiblk1|52=20201217-10:26:30.935|56=MA|10=120|8=FIX.4.4|9=57|35=0|34=40|49=T2Kauaiblk1|52=20201217-10:28:00.936|56=MA|10=112|8=FIX.4.4|9=57|35=0|34=41|49=T2Kauaiblk1|52=20201217-10:29:30.937|56=MA|10=118|8=FIX.4.4|9=57|35=0|34=42|49=T2Kauaiblk1|52=20201217-10:31:00.938|56=MA|10=110|8=FIX.4.4|9=57|35=0|34=43|49=T2Kauaiblk1|52=20201217-10:32:30.939|56=MA|10=116|8=FIX.4.4|9=57|35=0|34=44|49=T2Kauaiblk1|52=20201217-10:34:00.940|56=MA|10=108|8=FIX.4.4|9=57|35=0|34=45|49=T2Kauaiblk1|52=20201217-10:35:30.941|56=MA|10=114|8=FIX.4.4|9=57|35=0|34=46|49=T2Kauaiblk1|52=20201217-10:37:00.942|56=MA|10=115|8=FIX.4.4|9=57|35=0|34=47|49=T2Kauaiblk1|52=20201217-10:38:30.942|56=MA|10=120|8=FIX.4.4|9=57|35=0|34=48|49=T2Kauaiblk1|52=20201217-10:40:00.943|56=MA|10=112|8=FIX.4.4|9=57|35=0|34=49|49=T2Kauaiblk1|52=20201217-10:41:30.944|56=MA|10=118|8=FIX.4.4|9=57|35=0|34=50|49=T2Kauaiblk1|52=20201217-10:43:00.944|56=MA|10=109|8=FIX.4.4|9=57|35=0|34=51|49=T2Kauaiblk1|52=20201217-10:44:30.945|56=MA|10=115|8=FIX.4.4|9=57|35=0|34=52|49=T2Kauaiblk1|52=20201217-10:46:00.946|56=MA|10=116|8=FIX.4.4|9=57|35=0|34=53|49=T2Kauaiblk1|52=20201217-10:47:30.948|56=MA|10=123|8=FIX.4.4|9=57|35=0|34=54|49=T2Kauaiblk1|52=20201217-10:49:00.948|56=MA|10=123|8=FIX.4.4|9=57|35=0|34=55|49=T2Kauaiblk1|52=20201217-10:50:30.948|56=MA|10=119|8=FIX.4.4|9=57|35=0|34=56|49=T2Kauaiblk1|52=20201217-10:52:00.949|56=MA|10=120|8=FIX.4.4|9=57|35=0|34=57|49=T2Kauaiblk1|52=20201217-10:53:30.949|56=MA|10=125|8=FIX.4.4|9=57|35=0|34=58|49=T2Kauaiblk1|52=20201217-10:55:00.952|56=MA|10=119|8=FIX.4.4|9=57|35=0|34=59|49=T2Kauaiblk1|52=20201217-10:56:31.951|56=MA|10=124|8=FIX.4.4|9=57|35=0|34=60|49=T2Kauaiblk1|52=20201217-10:58:01.952|56=MA|10=116|8=FIX.4.4|9=57|35=0|34=61|49=T2Kauaiblk1|52=20201217-10:59:31.953|56=MA|10=122|8=FIX.4.4|9=57|35=0|34=62|49=T2Kauaiblk1|52=20201217-11:01:01.955|56=MA|10=110|8=FIX.4.4|9=57|35=0|34=63|49=T2Kauaiblk1|52=20201217-11:02:31.955|56=MA|10=115|8=FIX.4.4|9=57|35=0|34=64|49=T2Kauaiblk1|52=20201217-11:04:01.956|56=MA|10=116|8=FIX.4.4|9=57|35=0|34=65|49=T2Kauaiblk1|52=20201217-11:05:31.956|56=MA|10=121|8=FIX.4.4|9=57|35=0|34=66|49=T2Kauaiblk1|52=20201217-11:07:01.958|56=MA|10=123|8=FIX.4.4|9=57|35=0|34=67|49=T2Kauaiblk1|52=20201217-11:08:31.958|56=MA|10=128|8=FIX.4.4|9=57|35=0|34=68|49=T2Kauaiblk1|52=20201217-11:10:01.959|56=MA|10=120|8=FIX.4.4|9=57|35=0|34=69|49=T2Kauaiblk1|52=20201217-11:11:31.960|56=MA|10=117|8=FIX.4.4|9=57|35=0|34=70|49=T2Kauaiblk1|52=20201217-11:13:02.960|56=MA|10=109|8=FIX.4.4|9=57|35=0|34=71|49=T2Kauaiblk1|52=20201217-11:14:32.960|56=MA|10=114|8=FIX.4.4|9=57|35=0|34=72|49=T2Kauaiblk1|52=20201217-11:16:02.961|56=MA|10=115|8=FIX.4.4|9=57|35=0|34=73|49=T2Kauaiblk1|52=20201217-11:17:32.961|56=MA|10=120|8=FIX.4.4|9=57|35=0|34=74|49=T2Kauaiblk1|52=20201217-11:19:02.963|56=MA|10=122|8=FIX.4.4|9=57|35=0|34=75|49=T2Kauaiblk1|52=20201217-11:20:32.963|56=MA|10=118|8=FIX.4.4|9=57|35=0|34=76|49=T2Kauaiblk1|52=20201217-11:22:02.963|56=MA|10=118|8=FIX.4.4|9=57|35=0|34=77|49=T2Kauaiblk1|52=20201217-11:23:32.964|56=MA|10=124|8=FIX.4.4|9=57|35=0|34=78|49=T2Kauaiblk1|52=20201217-11:25:02.965|56=MA|10=125|8=FIX.4.4|9=57|35=0|34=79|49=T2Kauaiblk1|52=20201217-11:26:32.966|56=MA|10=131|8=FIX.4.4|9=57|35=0|34=80|49=T2Kauaiblk1|52=20201217-11:28:03.967|56=MA|10=124|8=FIX.4.4|9=57|35=0|34=81|49=T2Kauaiblk1|52=20201217-11:29:34.966|56=MA|10=129|8=FIX.4.4|9=57|35=0|34=82|49=T2Kauaiblk1|52=20201217-11:31:04.967|56=MA|10=121|8=FIX.4.4|9=57|35=0|34=83|49=T2Kauaiblk1|52=20201217-11:32:34.968|56=MA|10=127|8=FIX.4.4|9=57|35=0|34=84|49=T2Kauaiblk1|52=20201217-11:34:04.969|56=MA|10=128|8=FIX.4.4|9=57|35=0|34=85|49=T2Kauaiblk1|52=20201217-11:35:34.969|56=MA|10=133|8=FIX.4.4|9=57|35=0|34=86|49=T2Kauaiblk1|52=20201217-11:37:04.971|56=MA|10=126|8=FIX.4.4|9=57|35=0|34=87|49=T2Kauaiblk1|52=20201217-11:38:34.971|56=MA|10=131|8=FIX.4.4|9=57|35=0|34=88|49=T2Kauaiblk1|52=20201217-11:40:04.971|56=MA|10=122|8=FIX.4.4|9=57|35=0|34=89|49=T2Kauaiblk1|52=20201217-11:41:34.972|56=MA|10=128|8=FIX.4.4|9=57|35=0|34=90|49=T2Kauaiblk1|52=20201217-11:43:05.972|56=MA|10=120|8=FIX.4.4|9=57|35=0|34=91|49=T2Kauaiblk1|52=20201217-11:44:35.973|56=MA|10=126|8=FIX.4.4|9=57|35=0|34=92|49=T2Kauaiblk1|52=20201217-11:46:05.974|56=MA|10=127|8=FIX.4.4|9=57|35=0|34=93|49=T2Kauaiblk1|52=20201217-11:47:36.974|56=MA|10=133|8=FIX.4.4|9=57|35=0|34=94|49=T2Kauaiblk1|52=20201217-11:49:06.974|56=MA|10=133|8=FIX.4.4|9=57|35=0|34=95|49=T2Kauaiblk1|52=20201217-11:50:36.974|56=MA|10=129|8=FIX.4.4|9=57|35=0|34=96|49=T2Kauaiblk1|52=20201217-11:52:06.976|56=MA|10=131|8=FIX.4.4|9=57|35=0|34=97|49=T2Kauaiblk1|52=20201217-11:53:36.976|56=MA|10=136|8=FIX.4.4|9=57|35=0|34=98|49=T2Kauaiblk1|52=20201217-11:55:06.977|56=MA|10=137|8=FIX.4.4|9=57|35=0|34=99|49=T2Kauaiblk1|52=20201217-11:56:36.977|56=MA|10=142|8=FIX.4.4|9=58|35=0|34=100|49=T2Kauaiblk1|52=20201217-11:58:06.978|56=MA|10=174|8=FIX.4.4|9=58|35=0|34=101|49=T2Kauaiblk1|52=20201217-11:59:36.978|56=MA|10=179|8=FIX.4.4|9=58|35=0|34=102|49=T2Kauaiblk1|52=20201217-12:01:06.979|56=MA|10=166|8=FIX.4.4|9=58|35=0|34=103|49=T2Kauaiblk1|52=20201217-12:02:36.980|56=MA|10=163|8=FIX.4.4|9=58|35=0|34=104|49=T2Kauaiblk1|52=20201217-12:04:07.979|56=MA|10=172|8=FIX.4.4|9=58|35=0|34=105|49=T2Kauaiblk1|52=20201217-12:05:37.980|56=MA|10=169|8=FIX.4.4|9=58|35=0|34=106|49=T2Kauaiblk1|52=20201217-12:07:07.981|56=MA|10=170|8=FIX.4.4|9=58|35=0|34=107|49=T2Kauaiblk1|52=20201217-12:08:37.981|56=MA|10=175|8=FIX.4.4|9=58|35=0|34=108|49=T2Kauaiblk1|52=20201217-12:10:07.982|56=MA|10=167|8=FIX.4.4|9=58|35=0|34=109|49=T2Kauaiblk1|52=20201217-12:11:37.982|56=MA|10=172|8=FIX.4.4|9=58|35=0|34=110|49=T2Kauaiblk1|52=20201217-12:13:07.984|56=MA|10=165|8=FIX.4.4|9=58|35=0|34=111|49=T2Kauaiblk1|52=20201217-12:14:38.983|56=MA|10=170|8=FIX.4.4|9=58|35=0|34=112|49=T2Kauaiblk1|52=20201217-12:16:08.983|56=MA|10=170|8=FIX.4.4|9=58|35=0|34=113|49=T2Kauaiblk1|52=20201217-12:17:38.984|56=MA|10=176|8=FIX.4.4|9=58|35=0|34=114|49=T2Kauaiblk1|52=20201217-12:19:08.986|56=MA|10=178|8=FIX.4.4|9=58|35=0|34=115|49=T2Kauaiblk1|52=20201217-12:20:39.985|56=MA|10=174|8=FIX.4.4|9=58|35=0|34=116|49=T2Kauaiblk1|52=20201217-12:22:09.986|56=MA|10=175|8=FIX.4.4|9=58|35=0|34=117|49=T2Kauaiblk1|52=20201217-12:23:39.986|56=MA|10=180|8=FIX.4.4|9=58|35=0|34=118|49=T2Kauaiblk1|52=20201217-12:25:09.987|56=MA|10=181|8=FIX.4.4|9=58|35=0|34=119|49=T2Kauaiblk1|52=20201217-12:26:39.987|56=MA|10=186|8=FIX.4.4|9=58|35=0|34=120|49=T2Kauaiblk1|52=20201217-12:28:09.987|56=MA|10=177|8=FIX.4.4|9=58|35=0|34=121|49=T2Kauaiblk1|52=20201217-12:29:39.987|56=MA|10=182|8=FIX.4.4|9=58|35=0|34=122|49=T2Kauaiblk1|52=20201217-12:31:09.988|56=MA|10=174|8=FIX.4.4|9=58|35=0|34=123|49=T2Kauaiblk1|52=20201217-12:32:39.988|56=MA|10=179|8=FIX.4.4|9=58|35=0|34=124|49=T2Kauaiblk1|52=20201217-12:34:09.990|56=MA|10=172|8=FIX.4.4|9=58|35=0|34=125|49=T2Kauaiblk1|52=20201217-12:35:39.990|56=MA|10=177|8=FIX.4.4|9=58|35=0|34=126|49=T2Kauaiblk1|52=20201217-12:37:09.990|56=MA|10=177|8=FIX.4.4|9=58|35=0|34=127|49=T2Kauaiblk1|52=20201217-12:38:39.990|56=MA|10=182|8=FIX.4.4|9=58|35=0|34=128|49=T2Kauaiblk1|52=20201217-12:40:09.991|56=MA|10=174|8=FIX.4.4|9=58|35=0|34=129|49=T2Kauaiblk1|52=20201217-12:41:39.992|56=MA|10=180|8=FIX.4.4|9=58|35=0|34=130|49=T2Kauaiblk1|52=20201217-12:43:09.993|56=MA|10=172|8=FIX.4.4|9=58|35=0|34=131|49=T2Kauaiblk1|52=20201217-12:44:40.993|56=MA|10=169|8=FIX.4.4|9=58|35=0|34=132|49=T2Kauaiblk1|52=20201217-12:46:10.993|56=MA|10=169|8=FIX.4.4|9=58|35=0|34=133|49=T2Kauaiblk1|52=20201217-12:47:40.993|56=MA|10=174|8=FIX.4.4|9=58|35=0|34=134|49=T2Kauaiblk1|52=20201217-12:49:10.994|56=MA|10=175|8=FIX.4.4|9=58|35=0|34=135|49=T2Kauaiblk1|52=20201217-12:50:40.994|56=MA|10=171|8=FIX.4.4|9=58|35=0|34=136|49=T2Kauaiblk1|52=20201217-12:52:10.995|56=MA|10=172|8=FIX.4.4|9=58|35=0|34=137|49=T2Kauaiblk1|52=20201217-12:53:40.995|56=MA|10=177|8=FIX.4.4|9=58|35=0|34=138|49=T2Kauaiblk1|52=20201217-12:55:10.995|56=MA|10=177|8=FIX.4.4|9=58|35=0|34=139|49=T2Kauaiblk1|52=20201217-12:56:40.996|56=MA|10=183|8=FIX.4.4|9=58|35=0|34=140|49=T2Kauaiblk1|52=20201217-12:58:10.996|56=MA|10=174|8=FIX.4.4|9=58|35=0|34=141|49=T2Kauaiblk1|52=20201217-12:59:40.998|56=MA|10=181|8=FIX.4.4|9=58|35=0|34=142|49=T2Kauaiblk1|52=20201217-13:01:11.997|56=MA|10=167|8=FIX.4.4|9=58|35=0|34=143|49=T2Kauaiblk1|52=20201217-13:02:41.998|56=MA|10=173|8=FIX.4.4|9=58|35=0|34=144|49=T2Kauaiblk1|52=20201217-13:04:11.998|56=MA|10=173|8=FIX.4.4|9=58|35=0|34=145|49=T2Kauaiblk1|52=20201217-13:05:41.998|56=MA|10=178|8=FIX.4.4|9=58|35=0|34=146|49=T2Kauaiblk1|52=20201217-13:07:11.998|56=MA|10=178|8=FIX.4.4|9=58|35=0|34=147|49=T2Kauaiblk1|52=20201217-13:08:41.999|56=MA|10=184|8=FIX.4.4|9=58|35=0|34=148|49=T2Kauaiblk1|52=20201217-13:10:11.999|56=MA|10=175|8=FIX.4.4|9=58|35=0|34=149|49=T2Kauaiblk1|52=20201217-13:11:41.999|56=MA|10=180|8=FIX.4.4|9=58|35=0|34=150|49=T2Kauaiblk1|52=20201217-13:13:12.000|56=MA|10=145|8=FIX.4.4|9=58|35=0|34=151|49=T2Kauaiblk1|52=20201217-13:14:42.000|56=MA|10=150|8=FIX.4.4|9=58|35=0|34=152|49=T2Kauaiblk1|52=20201217-13:16:12.001|56=MA|10=151|8=FIX.4.4|9=58|35=0|34=153|49=T2Kauaiblk1|52=20201217-13:17:42.002|56=MA|10=157|8=FIX.4.4|9=58|35=0|34=154|49=T2Kauaiblk1|52=20201217-13:19:12.002|56=MA|10=157|8=FIX.4.4|9=58|35=0|34=155|49=T2Kauaiblk1|52=20201217-13:20:42.003|56=MA|10=154|8=FIX.4.4|9=58|35=0|34=156|49=T2Kauaiblk1|52=20201217-13:22:12.003|56=MA|10=154|8=FIX.4.4|9=58|35=0|34=157|49=T2Kauaiblk1|52=20201217-13:23:42.004|56=MA|10=160|8=FIX.4.4|9=58|35=0|34=158|49=T2Kauaiblk1|52=20201217-13:25:13.003|56=MA|10=160|8=FIX.4.4|9=58|35=0|34=159|49=T2Kauaiblk1|52=20201217-13:26:43.003|56=MA|10=165|8=FIX.4.4|9=58|35=0|34=160|49=T2Kauaiblk1|52=20201217-13:28:13.004|56=MA|10=157|8=FIX.4.4|9=58|35=0|34=161|49=T2Kauaiblk1|52=20201217-13:29:43.004|56=MA|10=162|8=FIX.4.4|9=58|35=0|34=162|49=T2Kauaiblk1|52=20201217-13:31:13.004|56=MA|10=153|8=FIX.4.4|9=58|35=0|34=163|49=T2Kauaiblk1|52=20201217-13:32:43.006|56=MA|10=160|8=FIX.4.4|9=58|35=0|34=164|49=T2Kauaiblk1|52=20201217-13:34:13.205|56=MA|10=161|8=FIX.4.4|9=58|35=0|34=165|49=T2Kauaiblk1|52=20201217-13:35:43.230|56=MA|10=164|8=FIX.4.4|9=58|35=0|34=166|49=T2Kauaiblk1|52=20201217-13:37:14.007|56=MA|10=167|8=FIX.4.4|9=58|35=0|34=167|49=T2Kauaiblk1|52=20201217-13:38:44.008|56=MA|10=173|8=FIX.4.4|9=58|35=0|34=168|49=T2Kauaiblk1|52=20201217-13:40:15.007|56=MA|10=164|8=FIX.4.4|9=58|35=0|34=169|49=T2Kauaiblk1|52=20201217-13:41:45.008|56=MA|10=170|8=FIX.4.4|9=58|35=0|34=170|49=T2Kauaiblk1|52=20201217-13:43:16.007|56=MA|10=161|8=FIX.4.4|9=58|35=0|34=171|49=T2Kauaiblk1|52=20201217-13:44:46.008|56=MA|10=167|8=FIX.4.4|9=58|35=0|34=172|49=T2Kauaiblk1|52=20201217-13:46:16.008|56=MA|10=167|8=FIX.4.4|9=58|35=0|34=173|49=T2Kauaiblk1|52=20201217-13:47:46.008|56=MA|10=172|8=FIX.4.4|9=58|35=0|34=174|49=T2Kauaiblk1|52=20201217-13:49:16.009|56=MA|10=173|8=FIX.4.4|9=58|35=0|34=175|49=T2Kauaiblk1|52=20201217-13:50:46.009|56=MA|10=169|8=FIX.4.4|9=58|35=0|34=176|49=T2Kauaiblk1|52=20201217-13:52:16.010|56=MA|10=161|8=FIX.4.4|9=58|35=0|34=177|49=T2Kauaiblk1|52=20201217-13:53:46.010|56=MA|10=166|8=FIX.4.4|9=58|35=0|34=178|49=T2Kauaiblk1|52=20201217-13:55:16.010|56=MA|10=166|8=FIX.4.4|9=58|35=0|34=179|49=T2Kauaiblk1|52=20201217-13:56:46.010|56=MA|10=171|8=FIX.4.4|9=58|35=0|34=180|49=T2Kauaiblk1|52=20201217-13:58:16.011|56=MA|10=163|8=FIX.4.4|9=58|35=0|34=181|49=T2Kauaiblk1|52=20201217-13:59:46.011|56=MA|10=168|8=FIX.4.4|9=58|35=0|34=182|49=T2Kauaiblk1|52=20201217-14:01:16.011|56=MA|10=154|8=FIX.4.4|9=58|35=0|34=183|49=T2Kauaiblk1|52=20201217-14:02:46.012|56=MA|10=160|8=FIX.4.4|9=58|35=0|34=184|49=T2Kauaiblk1|52=20201217-14:04:16.012|56=MA|10=160|8=FIX.4.4|9=58|35=0|34=185|49=T2Kauaiblk1|52=20201217-14:05:46.013|56=MA|10=166|8=FIX.4.4|9=58|35=0|34=186|49=T2Kauaiblk1|52=20201217-14:07:16.013|56=MA|10=166|8=FIX.4.4|9=58|35=0|34=187|49=T2Kauaiblk1|52=20201217-14:08:46.014|56=MA|10=172|8=FIX.4.4|9=58|35=0|34=188|49=T2Kauaiblk1|52=20201217-14:10:17.013|56=MA|10=163|8=FIX.4.4|9=58|35=0|34=189|49=T2Kauaiblk1|52=20201217-14:11:47.014|56=MA|10=169|8=FIX.4.4|9=58|35=0|34=190|49=T2Kauaiblk1|52=20201217-14:13:17.014|56=MA|10=160|8=FIX.4.4|9=58|35=0|34=191|49=T2Kauaiblk1|52=20201217-14:14:47.014|56=MA|10=165|8=FIX.4.4|9=58|35=0|34=192|49=T2Kauaiblk1|52=20201217-14:16:17.015|56=MA|10=166|8=FIX.4.4|9=58|35=0|34=193|49=T2Kauaiblk1|52=20201217-14:17:47.015|56=MA|10=171|8=FIX.4.4|9=58|35=0|34=194|49=T2Kauaiblk1|52=20201217-14:19:17.017|56=MA|10=173|8=FIX.4.4|9=58|35=0|34=195|49=T2Kauaiblk1|52=20201217-14:20:48.015|56=MA|10=168|8=FIX.4.4|9=58|35=0|34=196|49=T2Kauaiblk1|52=20201217-14:22:18.016|56=MA|10=169|8=FIX.4.4|9=58|35=0|34=197|49=T2Kauaiblk1|52=20201217-14:23:48.016|56=MA|10=174|8=FIX.4.4|9=58|35=0|34=198|49=T2Kauaiblk1|52=20201217-14:25:18.016|56=MA|10=174|8=FIX.4.4|9=58|35=0|34=199|49=T2Kauaiblk1|52=20201217-14:26:48.017|56=MA|10=180|8=FIX.4.4|9=58|35=0|34=200|49=T2Kauaiblk1|52=20201217-14:28:18.017|56=MA|10=162|8=FIX.4.4|9=58|35=0|34=201|49=T2Kauaiblk1|52=20201217-14:29:48.017|56=MA|10=167|8=FIX.4.4|9=58|35=0|34=202|49=T2Kauaiblk1|52=20201217-14:31:18.018|56=MA|10=159|8=FIX.4.4|9=58|35=0|34=203|49=T2Kauaiblk1|52=20201217-14:32:48.018|56=MA|10=164|8=FIX.4.4|9=58|35=0|34=204|49=T2Kauaiblk1|52=20201217-14:34:18.019|56=MA|10=165|8=FIX.4.4|9=58|35=0|34=205|49=T2Kauaiblk1|52=20201217-14:35:48.020|56=MA|10=162|8=FIX.4.4|9=58|35=0|34=206|49=T2Kauaiblk1|52=20201217-14:37:19.019|56=MA|10=171|8=FIX.4.4|9=58|35=0|34=207|49=T2Kauaiblk1|52=20201217-14:38:49.020|56=MA|10=168|8=FIX.4.4|9=58|35=0|34=208|49=T2Kauaiblk1|52=20201217-14:40:20.019|56=MA|10=159|8=FIX.4.4|9=58|35=0|34=209|49=T2Kauaiblk1|52=20201217-14:41:50.019|56=MA|10=164|8=FIX.4.4|9=58|35=0|34=210|49=T2Kauaiblk1|52=20201217-14:43:20.021|56=MA|10=148|8=FIX.4.4|9=58|35=0|34=211|49=T2Kauaiblk1|52=20201217-14:44:50.021|56=MA|10=153|8=FIX.4.4|9=58|35=0|34=212|49=T2Kauaiblk1|52=20201217-14:46:21.020|56=MA|10=153|8=FIX.4.4|9=58|35=0|34=213|49=T2Kauaiblk1|52=20201217-14:47:51.022|56=MA|10=160|8=FIX.4.4|9=58|35=0|34=214|49=T2Kauaiblk1|52=20201217-14:49:22.021|56=MA|10=160|8=FIX.4.4|9=58|35=0|34=215|49=T2Kauaiblk1|52=20201217-14:50:52.022|56=MA|10=157|8=FIX.4.4|9=58|35=0|34=216|49=T2Kauaiblk1|52=20201217-14:52:22.022|56=MA|10=157|8=FIX.4.4|9=58|35=0|34=217|49=T2Kauaiblk1|52=20201217-14:53:52.022|56=MA|10=162|8=FIX.4.4|9=58|35=0|34=218|49=T2Kauaiblk1|52=20201217-14:55:22.023|56=MA|10=163|8=FIX.4.4|9=58|35=0|34=219|49=T2Kauaiblk1|52=20201217-14:56:52.024|56=MA|10=169|8=FIX.4.4|9=58|35=0|34=220|49=T2Kauaiblk1|52=20201217-14:58:22.024|56=MA|10=160|8=FIX.4.4|9=58|35=0|34=221|49=T2Kauaiblk1|52=20201217-14:59:52.024|56=MA|10=165|8=FIX.4.4|9=58|35=0|34=222|49=T2Kauaiblk1|52=20201217-15:01:22.024|56=MA|10=151|8=FIX.4.4|9=58|35=0|34=223|49=T2Kauaiblk1|52=20201217-15:02:52.024|56=MA|10=156|8=FIX.4.4|9=58|35=0|34=224|49=T2Kauaiblk1|52=20201217-15:04:22.025|56=MA|10=157|8=FIX.4.4|9=58|35=0|34=225|49=T2Kauaiblk1|52=20201217-15:05:52.025|56=MA|10=162|8=FIX.4.4|9=58|35=0|34=226|49=T2Kauaiblk1|52=20201217-15:07:22.026|56=MA|10=163|8=FIX.4.4|9=58|35=0|34=227|49=T2Kauaiblk1|52=20201217-15:08:53.026|56=MA|10=169|8=FIX.4.4|9=58|35=0|34=228|49=T2Kauaiblk1|52=20201217-15:10:23.026|56=MA|10=160|8=FIX.4.4|9=58|35=0|34=229|49=T2Kauaiblk1|52=20201217-15:11:53.026|56=MA|10=165|8=FIX.4.4|9=58|35=0|34=230|49=T2Kauaiblk1|52=20201217-15:13:23.026|56=MA|10=156|8=FIX.4.4|9=58|35=0|34=231|49=T2Kauaiblk1|52=20201217-15:14:53.026|56=MA|10=161|8=FIX.4.4|9=58|35=0|34=232|49=T2Kauaiblk1|52=20201217-15:16:23.026|56=MA|10=161|8=FIX.4.4|9=58|35=0|34=233|49=T2Kauaiblk1|52=20201217-15:17:53.027|56=MA|10=167|8=FIX.4.4|9=58|35=0|34=234|49=T2Kauaiblk1|52=20201217-15:19:23.027|56=MA|10=167|8=FIX.4.4|9=58|35=0|34=235|49=T2Kauaiblk1|52=20201217-15:20:53.028|56=MA|10=164|8=FIX.4.4|9=58|35=0|34=236|49=T2Kauaiblk1|52=20201217-15:22:24.027|56=MA|10=164|8=FIX.4.4|9=58|35=0|34=237|49=T2Kauaiblk1|52=20201217-15:23:54.028|56=MA|10=170|8=FIX.4.4|9=58|35=0|34=238|49=T2Kauaiblk1|52=20201217-15:25:25.028|56=MA|10=171|8=FIX.4.4|9=58|35=0|34=239|49=T2Kauaiblk1|52=20201217-15:26:55.028|56=MA|10=176|8=FIX.4.4|9=58|35=0|34=240|49=T2Kauaiblk1|52=20201217-15:28:25.029|56=MA|10=168|8=FIX.4.4|9=58|35=0|34=241|49=T2Kauaiblk1|52=20201217-15:29:55.029|56=MA|10=173|8=FIX.4.4|9=58|35=0|34=242|49=T2Kauaiblk1|52=20201217-15:31:25.030|56=MA|10=156|8=FIX.4.4|9=58|35=0|34=243|49=T2Kauaiblk1|52=20201217-15:32:56.029|56=MA|10=170|8=FIX.4.4|9=58|35=0|34=244|49=T2Kauaiblk1|52=20201217-15:34:26.029|56=MA|10=170|8=FIX.4.4|9=58|35=0|34=245|49=T2Kauaiblk1|52=20201217-15:35:56.029|56=MA|10=175|8=FIX.4.4|9=58|35=0|34=246|49=T2Kauaiblk1|52=20201217-15:37:26.030|56=MA|10=167|8=FIX.4.4|9=58|35=0|34=247|49=T2Kauaiblk1|52=20201217-15:38:56.030|56=MA|10=172|8=FIX.4.4|9=58|35=0|34=248|49=T2Kauaiblk1|52=20201217-15:40:26.031|56=MA|10=164|8=FIX.4.4|9=58|35=0|34=249|49=T2Kauaiblk1|52=20201217-15:41:57.031|56=MA|10=170|8=FIX.4.4|9=58|35=0|34=250|49=T2Kauaiblk1|52=20201217-15:43:27.031|56=MA|10=161|8=FIX.4.4|9=58|35=0|34=251|49=T2Kauaiblk1|52=20201217-15:44:57.031|56=MA|10=166|8=FIX.4.4|9=58|35=0|34=252|49=T2Kauaiblk1|52=20201217-15:46:27.032|56=MA|10=167|8=FIX.4.4|9=58|35=0|34=253|49=T2Kauaiblk1|52=20201217-15:47:57.032|56=MA|10=172|8=FIX.4.4|9=58|35=0|34=254|49=T2Kauaiblk1|52=20201217-15:49:28.032|56=MA|10=173|8=FIX.4.4|9=58|35=0|34=255|49=T2Kauaiblk1|52=20201217-15:50:58.032|56=MA|10=169|8=FIX.4.4|9=58|35=0|34=256|49=T2Kauaiblk1|52=20201217-15:52:28.032|56=MA|10=169|8=FIX.4.4|9=58|35=0|34=257|49=T2Kauaiblk1|52=20201217-15:53:58.033|56=MA|10=175|8=FIX.4.4|9=58|35=0|34=258|49=T2Kauaiblk1|52=20201217-15:55:28.033|56=MA|10=175|8=FIX.4.4|9=58|35=0|34=259|49=T2Kauaiblk1|52=20201217-15:56:58.034|56=MA|10=181|8=FIX.4.4|9=58|35=0|34=260|49=T2Kauaiblk1|52=20201217-15:58:28.034|56=MA|10=172|8=FIX.4.4|9=58|35=0|34=261|49=T2Kauaiblk1|52=20201217-15:59:59.034|56=MA|10=178|8=FIX.4.4|9=58|35=0|34=262|49=T2Kauaiblk1|52=20201217-16:01:29.035|56=MA|10=165|8=FIX.4.4|9=58|35=0|34=263|49=T2Kauaiblk1|52=20201217-16:02:59.035|56=MA|10=170|8=FIX.4.4|9=58|35=0|34=264|49=T2Kauaiblk1|52=20201217-16:04:30.035|56=MA|10=162|8=FIX.4.4|