8=FIX.4.2|9=85|35=A|34=1|49=JBFIXHUBPRD|52=20190611-08:15:02.527|56=MA|98=0|108=90|95=8|96=3.0.0rc5|10=089|8=FIX.4.2|9=85|35=A|34=1|49=JBFIXHUBPRD|52=20190611-08:15:30.526|56=MA|98=0|108=90|95=8|96=3.0.0rc5|10=089|8=FIX.4.2|9=85|35=A|34=1|49=JBFIXHUBPRD|52=20190611-17:12:09.984|56=MA|98=0|108=90|95=8|96=3.0.0rc5|10=100|8=FIX.4.2|9=58|35=5|34=318|49=JBFIXHUBPRD|52=20190611-17:12:10.094|56=MA|10=010|8=FIX.4.2|9=87|35=A|34=319|49=JBFIXHUBPRD|52=20190611-17:12:14.979|56=MA|98=0|108=90|95=8|96=3.0.0rc5|10=210|8=FIX.4.2|9=67|35=2|34=320|49=JBFIXHUBPRD|52=20190611-17:12:15.077|56=MA|7=2|16=0|10=130|8=FIX.4.2|9=80|35=5|34=321|49=JBFIXHUBPRD|52=20190611-17:12:32.978|56=MA|58=Session Tab Closed|10=078|8=FIX.4.2|9=87|35=A|34=322|49=JBFIXHUBPRD|52=20190718-12:37:31.836|56=MA|98=0|108=90|95=8|96=3.0.0rc5|10=205|8=FIX.4.2|9=58|35=5|34=478|49=JBFIXHUBPRD|52=20190718-12:37:31.924|56=MA|10=032|8=FIX.4.2|9=87|35=A|34=479|49=JBFIXHUBPRD|52=20190718-12:37:36.836|56=MA|98=0|108=90|95=8|96=3.0.0rc5|10=223|8=FIX.4.2|9=69|35=2|34=480|49=JBFIXHUBPRD|52=20190718-12:37:36.921|56=MA|7=409|16=0|10=001|8=FIX.4.2|9=296|35=D|34=481|49=JBFIXHUBPRD|52=20190718-12:37:48.622|56=MA|6606=mmaddison|11=MMAD180719-858|63=3|21=1|55=US037833AL42|65=[NONE]|48=US037833AL42|22=4|54=1|60=20190718-12:37:48.622|38=1000000|40=2|44=100.25|6614=1|15=USD|59=0|47=P|22205=MMAD@MKTXClientID.com|22207=MMAD@MKTXInvDcsnMkr.com|1300=BMTF|10=133|8=FIX.4.2|9=58|35=5|34=482|49=JBFIXHUBPRD|52=20190718-12:38:17.837|56=MA|10=035|8=FIX.4.2|9=58|35=5|34=483|49=JBFIXHUBPRD|52=20190718-12:38:17.920|56=MA|10=029|8=FIX.4.2|9=85|35=A|34=1|49=JBFIXHUBPRD|52=20190719-07:32:55.704|56=MA|98=0|108=90|95=8|96=3.0.0rc5|10=101|8=FIX.4.2|9=56|35=0|34=2|49=JBFIXHUBPRD|52=20190719-07:34:26.150|56=MA|10=165|8=FIX.4.2|9=56|35=0|34=3|49=JBFIXHUBPRD|52=20190719-07:35:56.692|56=MA|10=181|8=FIX.4.2|9=56|35=0|34=4|49=JBFIXHUBPRD|52=20190719-07:37:27.692|56=MA|10=182|8=FIX.4.2|9=56|35=0|34=5|49=JBFIXHUBPRD|52=20190719-07:38:58.691|56=MA|10=187|8=FIX.4.2|9=56|35=0|34=6|49=JBFIXHUBPRD|52=20190719-07:40:28.691|56=MA|10=178|8=FIX.4.2|9=56|35=0|34=7|49=JBFIXHUBPRD|52=20190719-07:41:59.690|56=MA|10=183|8=FIX.4.2|9=56|35=0|34=8|49=JBFIXHUBPRD|52=20190719-07:43:30.690|56=MA|10=175|8=FIX.4.2|9=56|35=0|34=9|49=JBFIXHUBPRD|52=20190719-07:45:01.688|56=MA|10=183|8=FIX.4.2|9=57|35=0|34=10|49=JBFIXHUBPRD|52=20190719-07:46:31.688|56=MA|10=228|8=FIX.4.2|9=57|35=0|34=11|49=JBFIXHUBPRD|52=20190719-07:48:01.688|56=MA|10=228|8=FIX.4.2|9=57|35=0|34=12|49=JBFIXHUBPRD|52=20190719-07:49:31.688|56=MA|10=233|8=FIX.4.2|9=57|35=0|34=13|49=JBFIXHUBPRD|52=20190719-07:51:02.688|56=MA|10=225|8=FIX.4.2|9=79|35=5|34=14|49=JBFIXHUBPRD|52=20190719-07:51:39.687|56=MA|58=Session Tab Closed|10=052|8=FIX.4.2|9=57|35=5|34=15|49=JBFIXHUBPRD|52=20190719-07:51:39.771|56=MA|10=235|8=FIX.4.2|9=91|35=A|34=1|49=JBFIXHUBPRD|52=20190919-14:38:06.235|56=MA|98=0|108=90|95=8|96=3.0.0rc5|141=Y|10=144|8=FIX.4.2|9=91|35=A|34=1|49=JBFIXHUBPRD|52=20190919-14:51:38.232|56=MA|98=0|108=90|95=8|96=3.0.0rc5|141=Y|10=141|8=FIX.4.2|9=91|35=A|34=1|49=JBFIXHUBPRD|52=20190926-09:40:13.947|56=MA|98=0|108=90|95=8|96=3.0.0rc5|141=Y|10=147|