8=FIX.4.4|9=82|35=A|34=1|49=MMABAXUK|52=20181128-15:49:42.231|56=MA|98=0|108=90|95=8|96=3.0.0rc4|10=121|8=FIX.4.4|9=55|35=5|34=157|49=MMABAXUK|52=20181128-15:49:42.311|56=MA|10=048|8=FIX.4.4|9=84|35=A|34=158|49=MMABAXUK|52=20181128-15:49:47.232|56=MA|98=0|108=90|95=8|96=3.0.0rc4|10=238|8=FIX.4.4|9=64|35=2|34=159|49=MMABAXUK|52=20181128-15:49:47.810|56=MA|7=2|16=0|10=180|8=FIX.4.4|9=55|35=0|34=160|49=MMABAXUK|52=20181128-15:51:18.232|56=MA|10=035|8=FIX.4.4|9=55|35=0|34=161|49=MMABAXUK|52=20181128-15:52:48.610|56=MA|10=040|8=FIX.4.4|9=55|35=0|34=162|49=MMABAXUK|52=20181128-15:54:18.612|56=MA|10=042|8=FIX.4.4|9=55|35=0|34=163|49=MMABAXUK|52=20181128-15:55:49.229|56=MA|10=052|8=FIX.4.4|9=55|35=0|34=164|49=MMABAXUK|52=20181128-15:57:19.229|56=MA|10=052|8=FIX.4.4|9=55|35=0|34=165|49=MMABAXUK|52=20181128-15:58:49.609|56=MA|10=059|8=FIX.4.4|9=55|35=0|34=166|49=MMABAXUK|52=20181128-16:00:20.227|56=MA|10=033|8=FIX.4.4|9=55|35=0|34=167|49=MMABAXUK|52=20181128-16:01:50.228|56=MA|10=039|8=FIX.4.4|9=55|35=0|34=168|49=MMABAXUK|52=20181128-16:03:20.229|56=MA|10=040|8=FIX.4.4|9=55|35=0|34=169|49=MMABAXUK|52=20181128-16:04:50.229|56=MA|10=045|8=FIX.4.4|9=55|35=0|34=170|49=MMABAXUK|52=20181128-16:06:20.229|56=MA|10=036|8=FIX.4.4|9=55|35=0|34=171|49=MMABAXUK|52=20181128-16:07:50.230|56=MA|10=033|8=FIX.4.4|9=55|35=0|34=172|49=MMABAXUK|52=20181128-16:09:21.229|56=MA|10=042|8=FIX.4.4|9=55|35=0|34=173|49=MMABAXUK|52=20181128-16:10:51.229|56=MA|10=038|8=FIX.4.4|9=55|35=0|34=174|49=MMABAXUK|52=20181128-16:12:22.229|56=MA|10=039|8=FIX.4.4|9=55|35=0|34=175|49=MMABAXUK|52=20181128-16:13:52.233|56=MA|10=039|8=FIX.4.4|9=55|35=0|34=176|49=MMABAXUK|52=20181128-16:15:23.234|56=MA|10=041|8=FIX.4.4|9=55|35=0|34=177|49=MMABAXUK|52=20181128-16:16:54.242|56=MA|10=046|8=FIX.4.4|9=55|35=0|34=178|49=MMABAXUK|52=20181128-16:18:25.228|56=MA|10=051|8=FIX.4.4|9=55|35=0|34=179|49=MMABAXUK|52=20181128-16:19:55.239|56=MA|10=058|8=FIX.4.4|9=55|35=0|34=180|49=MMABAXUK|52=20181128-16:21:26.234|56=MA|10=036|8=FIX.4.4|9=55|35=0|34=181|49=MMABAXUK|52=20181128-16:22:57.234|56=MA|10=042|8=FIX.4.4|9=55|35=0|34=182|49=MMABAXUK|52=20181128-16:24:28.231|56=MA|10=040|8=FIX.4.4|9=55|35=0|34=183|49=MMABAXUK|52=20181128-16:25:59.236|56=MA|10=051|8=FIX.4.4|9=55|35=0|34=184|49=MMABAXUK|52=20181128-16:27:30.237|56=MA|10=044|8=FIX.4.4|9=55|35=0|34=185|49=MMABAXUK|52=20181128-16:29:01.235|56=MA|10=043|8=FIX.4.4|9=55|35=0|34=186|49=MMABAXUK|52=20181128-16:30:31.235|56=MA|10=039|8=FIX.4.4|9=55|35=0|34=187|49=MMABAXUK|52=20181128-16:32:02.229|56=MA|10=043|8=FIX.4.4|9=55|35=0|34=188|49=MMABAXUK|52=20181128-16:33:33.225|56=MA|10=045|8=FIX.4.4|9=55|35=0|34=189|49=MMABAXUK|52=20181128-16:35:03.225|56=MA|10=045|8=FIX.4.4|9=55|35=0|34=190|49=MMABAXUK|52=20181128-16:36:33.232|56=MA|10=039|8=FIX.4.4|9=55|35=0|34=191|49=MMABAXUK|52=20181128-16:38:04.220|56=MA|10=037|8=FIX.4.4|9=55|35=0|34=192|49=MMABAXUK|52=20181128-16:39:34.221|56=MA|10=043|8=FIX.4.4|9=55|35=0|34=193|49=MMABAXUK|52=20181128-16:41:04.234|56=MA|10=038|8=FIX.4.4|9=55|35=0|34=194|49=MMABAXUK|52=20181128-16:42:35.232|56=MA|10=042|8=FIX.4.4|9=55|35=0|34=195|49=MMABAXUK|52=20181128-16:44:06.234|56=MA|10=045|8=FIX.4.4|9=55|35=0|34=196|49=MMABAXUK|52=20181128-16:45:37.229|56=MA|10=055|8=FIX.4.4|9=55|35=0|34=197|49=MMABAXUK|52=20181128-16:47:08.227|56=MA|10=054|8=FIX.4.4|9=55|35=0|34=198|49=MMABAXUK|52=20181128-16:48:38.228|56=MA|10=060|8=FIX.4.4|9=55|35=0|34=199|49=MMABAXUK|52=20181128-16:50:09.226|56=MA|10=050|8=FIX.4.4|9=55|35=0|34=200|49=MMABAXUK|52=20181128-16:51:40.216|56=MA|10=028|8=FIX.4.4|9=55|35=0|34=201|49=MMABAXUK|52=20181128-16:53:10.222|56=MA|10=025|8=FIX.4.4|9=55|35=0|34=202|49=MMABAXUK|52=20181128-16:54:40.225|56=MA|10=033|8=FIX.4.4|9=55|35=0|34=203|49=MMABAXUK|52=20181128-16:56:11.225|56=MA|10=034|8=FIX.4.4|9=55|35=0|34=204|49=MMABAXUK|52=20181128-16:57:42.223|56=MA|10=038|8=FIX.4.4|9=55|35=0|34=205|49=MMABAXUK|52=20181128-16:59:12.226|56=MA|10=041|8=FIX.4.4|9=55|35=0|34=206|49=MMABAXUK|52=20181128-17:00:43.213|56=MA|10=029|8=FIX.4.4|9=55|35=0|34=207|49=MMABAXUK|52=20181128-17:02:13.213|56=MA|10=029|8=FIX.4.4|9=55|35=0|34=208|49=MMABAXUK|52=20181128-17:03:43.219|56=MA|10=040|8=FIX.4.4|9=55|35=0|34=209|49=MMABAXUK|52=20181128-17:05:14.222|56=MA|10=035|8=FIX.4.4|9=55|35=0|34=210|49=MMABAXUK|52=20181128-17:06:44.222|56=MA|10=031|8=FIX.4.4|9=55|35=0|34=211|49=MMABAXUK|52=20181128-17:08:14.223|56=MA|10=032|8=FIX.4.4|9=55|35=0|34=212|49=MMABAXUK|52=20181128-17:09:44.223|56=MA|10=037|8=FIX.4.4|9=55|35=0|34=213|49=MMABAXUK|52=20181128-17:11:15.210|56=MA|10=025|8=FIX.4.4|9=55|35=0|34=214|49=MMABAXUK|52=20181128-17:12:45.221|56=MA|10=032|8=FIX.4.4|9=55|35=0|34=215|49=MMABAXUK|52=20181128-17:14:16.209|56=MA|10=039|8=FIX.4.4|9=55|35=0|34=216|49=MMABAXUK|52=20181128-17:15:46.223|56=MA|10=040|8=FIX.4.4|9=55|35=0|34=217|49=MMABAXUK|52=20181128-17:17:17.220|56=MA|10=038|8=FIX.4.4|9=55|35=0|34=218|49=MMABAXUK|52=20181128-17:18:48.207|56=MA|10=049|8=FIX.4.4|9=55|35=0|34=219|49=MMABAXUK|52=20181128-17:20:18.209|56=MA|10=042|8=FIX.4.4|9=55|35=0|34=220|49=MMABAXUK|52=20181128-17:21:48.217|56=MA|10=037|8=FIX.4.4|9=55|35=0|34=221|49=MMABAXUK|52=20181128-17:23:18.221|56=MA|10=032|8=FIX.4.4|9=55|35=0|34=222|49=MMABAXUK|52=20181128-17:24:49.216|56=MA|10=042|8=FIX.4.4|9=55|35=0|34=223|49=MMABAXUK|52=20181128-17:26:19.217|56=MA|10=043|8=FIX.4.4|9=55|35=0|34=224|49=MMABAXUK|52=20181128-17:27:49.220|56=MA|10=042|8=FIX.4.4|9=55|35=0|34=225|49=MMABAXUK|52=20181128-17:29:20.216|56=MA|10=039|8=FIX.4.4|9=55|35=0|34=226|49=MMABAXUK|52=20181128-17:30:51.205|56=MA|10=034|8=FIX.4.4|9=55|35=0|34=227|49=MMABAXUK|52=20181128-17:32:22.203|56=MA|10=033|8=FIX.4.4|9=55|35=0|34=228|49=MMABAXUK|52=20181128-17:33:53.202|56=MA|10=038|8=FIX.4.4|9=55|35=0|34=229|49=MMABAXUK|52=20181128-17:35:23.202|56=MA|10=038|8=FIX.4.4|9=55|35=0|34=230|49=MMABAXUK|52=20181128-17:36:53.202|56=MA|10=034|8=FIX.4.4|9=55|35=0|34=231|49=MMABAXUK|52=20181128-17:38:24.202|56=MA|10=035|8=FIX.4.4|9=55|35=0|34=232|49=MMABAXUK|52=20181128-17:39:55.201|56=MA|10=040|8=FIX.4.4|9=55|35=0|34=233|49=MMABAXUK|52=20181128-17:41:26.200|56=MA|10=031|8=FIX.4.4|9=55|35=0|34=234|49=MMABAXUK|52=20181128-17:42:57.199|56=MA|10=054|8=FIX.4.4|9=55|35=0|34=235|49=MMABAXUK|52=20181128-17:44:28.200|56=MA|10=038|8=FIX.4.4|9=55|35=0|34=236|49=MMABAXUK|52=20181128-17:45:58.200|56=MA|10=043|8=FIX.4.4|9=55|35=0|34=237|49=MMABAXUK|52=20181128-17:47:29.199|56=MA|10=061|8=FIX.4.4|9=55|35=0|34=238|49=MMABAXUK|52=20181128-17:49:00.197|56=MA|10=051|8=FIX.4.4|9=55|35=0|34=239|49=MMABAXUK|52=20181128-17:50:31.197|56=MA|10=048|8=FIX.4.4|9=55|35=0|34=240|49=MMABAXUK|52=20181128-17:52:01.204|56=MA|10=028|8=FIX.4.4|9=55|35=0|34=241|49=MMABAXUK|52=20181128-17:53:31.207|56=MA|10=036|8=FIX.4.4|9=55|35=0|34=242|49=MMABAXUK|52=20181128-17:55:02.202|56=MA|10=032|8=FIX.4.4|9=55|35=0|34=243|49=MMABAXUK|52=20181128-17:56:32.208|56=MA|10=043|8=FIX.4.4|9=55|35=0|34=244|49=MMABAXUK|52=20181128-17:58:03.203|56=MA|10=039|8=FIX.4.4|9=55|35=0|34=245|49=MMABAXUK|52=20181128-17:59:34.205|56=MA|10=047|8=FIX.4.4|9=55|35=0|34=246|49=MMABAXUK|52=20181128-18:01:05.199|56=MA|10=046|8=FIX.4.4|9=55|35=0|34=247|49=MMABAXUK|52=20181128-18:02:35.200|56=MA|10=034|8=FIX.4.4|9=55|35=0|34=248|49=MMABAXUK|52=20181128-18:04:06.198|56=MA|10=051|8=FIX.4.4|9=55|35=0|34=249|49=MMABAXUK|52=20181128-18:05:36.203|56=MA|10=043|8=FIX.4.4|9=55|35=0|34=250|49=MMABAXUK|52=20181128-18:07:07.195|56=MA|10=045|8=FIX.4.4|9=55|35=0|34=251|49=MMABAXUK|52=20181128-18:08:38.192|56=MA|10=048|8=FIX.4.4|9=55|35=0|34=252|49=MMABAXUK|52=20181128-18:10:08.200|56=MA|10=029|8=FIX.4.4|9=55|35=0|34=253|49=MMABAXUK|52=20181128-18:11:39.197|56=MA|10=050|8=FIX.4.4|9=55|35=0|34=254|49=MMABAXUK|52=20181128-18:13:09.205|56=MA|10=040|8=FIX.4.4|9=55|35=0|34=255|49=MMABAXUK|52=20181128-18:14:40.196|56=MA|10=046|8=FIX.4.4|9=55|35=0|34=256|49=MMABAXUK|52=20181128-18:16:11.199|56=MA|10=050|8=FIX.4.4|9=55|35=0|34=257|49=MMABAXUK|52=20181128-18:17:42.191|56=MA|10=048|8=FIX.4.4|9=55|35=0|34=258|49=MMABAXUK|52=20181128-18:19:13.197|56=MA|10=055|8=FIX.4.4|9=55|35=0|34=259|49=MMABAXUK|52=20181128-18:20:43.200|56=MA|10=036|8=FIX.4.4|9=55|35=0|34=260|49=MMABAXUK|52=20181128-18:22:14.196|56=MA|10=042|8=FIX.4.4|9=55|35=0|34=261|49=MMABAXUK|52=20181128-18:23:44.201|56=MA|10=034|8=FIX.4.4|9=55|35=0|34=262|49=MMABAXUK|52=20181128-18:25:15.189|56=MA|10=050|8=FIX.4.4|9=55|35=0|34=263|49=MMABAXUK|52=20181128-18:26:45.190|56=MA|10=047|8=FIX.4.4|9=55|35=0|34=264|49=MMABAXUK|52=20181128-18:28:15.192|56=MA|10=049|8=FIX.4.4|9=55|35=0|34=265|49=MMABAXUK|52=20181128-18:29:45.194|56=MA|10=056|8=FIX.4.4|9=55|35=0|34=266|49=MMABAXUK|52=20181128-18:31:16.191|56=MA|10=045|8=FIX.4.4|9=55|35=0|34=267|49=MMABAXUK|52=20181128-18:32:46.194|56=MA|10=053|8=FIX.4.4|9=55|35=0|34=268|49=MMABAXUK|52=20181128-18:34:17.188|56=MA|10=057|8=FIX.4.4|9=55|35=0|34=269|49=MMABAXUK|52=20181128-18:35:48.182|56=MA|10=057|8=FIX.4.4|9=55|35=0|34=270|49=MMABAXUK|52=20181128-18:37:18.196|56=MA|10=053|8=FIX.4.4|9=55|35=0|34=271|49=MMABAXUK|52=20181128-18:38:48.196|56=MA|10=058|8=FIX.4.4|9=55|35=0|34=272|49=MMABAXUK|52=20181128-18:40:19.181|56=MA|10=044|8=FIX.4.4|9=55|35=0|34=273|49=MMABAXUK|52=20181128-18:41:49.194|56=MA|10=053|8=FIX.4.4|9=55|35=0|34=274|49=MMABAXUK|52=20181128-18:43:19.194|56=MA|10=053|8=FIX.4.4|9=55|35=0|34=275|49=MMABAXUK|52=20181128-18:44:50.189|56=MA|10=054|8=FIX.4.4|9=55|35=0|34=276|49=MMABAXUK|52=20181128-18:46:20.192|56=MA|10=048|8=FIX.4.4|9=55|35=0|34=277|49=MMABAXUK|52=20181128-18:47:50.193|56=MA|10=054|8=FIX.4.4|9=55|35=0|34=278|49=MMABAXUK|52=20181128-18:49:21.182|56=MA|10=053|8=FIX.4.4|9=55|35=0|34=279|49=MMABAXUK|52=20181128-18:50:51.193|56=MA|10=051|8=FIX.4.4|9=55|35=0|34=280|49=MMABAXUK|52=20181128-18:52:22.185|56=MA|10=044|8=FIX.4.4|9=55|35=0|34=281|49=MMABAXUK|52=20181128-18:53:52.189|56=MA|10=053|8=FIX.4.4|9=55|35=0|34=282|49=MMABAXUK|52=20181128-18:55:23.181|56=MA|10=046|8=FIX.4.4|9=55|35=0|34=283|49=MMABAXUK|52=20181128-18:56:53.189|56=MA|10=059|8=FIX.4.4|9=55|35=0|34=284|49=MMABAXUK|52=20181128-18:58:24.185|56=MA|10=056|8=FIX.4.4|9=55|35=0|34=285|49=MMABAXUK|52=20181128-18:59:54.190|56=MA|10=057|8=FIX.4.4|9=55|35=0|34=286|49=MMABAXUK|52=20181128-19:01:25.188|56=MA|10=051|8=FIX.4.4|9=55|35=0|34=287|49=MMABAXUK|52=20181128-19:02:56.173|56=MA|10=051|8=FIX.4.4|9=55|35=0|34=288|49=MMABAXUK|52=20181128-19:04:26.177|56=MA|10=055|8=FIX.4.4|9=55|35=0|34=289|49=MMABAXUK|52=20181128-19:05:56.184|56=MA|10=058|8=FIX.4.4|9=55|35=0|34=290|49=MMABAXUK|52=20181128-19:07:27.177|56=MA|10=052|8=FIX.4.4|9=55|35=0|34=291|49=MMABAXUK|52=20181128-19:08:57.179|56=MA|10=059|8=FIX.4.4|9=55|35=0|34=292|49=MMABAXUK|52=20181128-19:10:27.184|56=MA|10=046|8=FIX.4.4|9=55|35=0|34=293|49=MMABAXUK|52=20181128-19:11:58.184|56=MA|10=052|8=FIX.4.4|9=55|35=0|34=294|49=MMABAXUK|52=20181128-19:13:29.177|56=MA|10=055|8=FIX.4.4|9=55|35=0|34=295|49=MMABAXUK|52=20181128-19:14:59.181|56=MA|10=055|8=FIX.4.4|9=55|35=0|34=296|49=MMABAXUK|52=20181128-19:16:30.183|56=MA|10=049|8=FIX.4.4|9=55|35=0|34=297|49=MMABAXUK|52=20181128-19:18:01.182|56=MA|10=049|8=FIX.4.4|9=55|35=0|34=298|49=MMABAXUK|52=20181128-19:19:32.176|56=MA|10=058|8=FIX.4.4|9=55|35=0|34=299|49=MMABAXUK|52=20181128-19:21:03.170|56=MA|10=044|8=FIX.4.4|9=55|35=0|34=300|49=MMABAXUK|52=20181128-19:22:33.173|56=MA|10=034|8=FIX.4.4|9=55|35=0|34=301|49=MMABAXUK|52=20181128-19:24:04.175|56=MA|10=037|8=FIX.4.4|9=55|35=0|34=302|49=MMABAXUK|52=20181128-19:25:34.179|56=MA|10=046|8=FIX.4.4|9=55|35=0|34=303|49=MMABAXUK|52=20181128-19:27:05.178|56=MA|10=046|8=FIX.4.4|9=55|35=0|34=304|49=MMABAXUK|52=20181128-19:28:35.181|56=MA|10=045|8=FIX.4.4|9=55|35=0|34=305|49=MMABAXUK|52=20181128-19:30:06.165|56=MA|10=039|8=FIX.4.4|9=55|35=0|34=306|49=MMABAXUK|52=20181128-19:31:36.165|56=MA|10=044|8=FIX.4.4|9=55|35=0|34=307|49=MMABAXUK|52=20181128-19:33:07.165|56=MA|10=045|8=FIX.4.4|9=55|35=0|34=308|49=MMABAXUK|52=20181128-19:34:38.164|56=MA|10=050|8=FIX.4.4|9=55|35=0|34=309|49=MMABAXUK|52=20181128-19:36:08.165|56=MA|10=051|8=FIX.4.4|9=55|35=0|34=310|49=MMABAXUK|52=20181128-19:37:39.163|56=MA|10=046|8=FIX.4.4|9=55|35=0|34=311|49=MMABAXUK|52=20181128-19:39:10.162|56=MA|10=037|8=FIX.4.4|9=55|35=0|34=312|49=MMABAXUK|52=20181128-19:40:40.162|56=MA|10=033|8=FIX.4.4|9=55|35=0|34=313|49=MMABAXUK|52=20181128-19:42:11.160|56=MA|10=032|8=FIX.4.4|9=55|35=0|34=314|49=MMABAXUK|52=20181128-19:43:41.161|56=MA|10=038|8=FIX.4.4|9=55|35=0|34=315|49=MMABAXUK|52=20181128-19:45:11.161|56=MA|10=038|8=FIX.4.4|9=55|35=0|34=316|49=MMABAXUK|52=20181128-19:46:42.159|56=MA|10=051|8=FIX.4.4|9=55|35=0|34=317|49=MMABAXUK|52=20181128-19:48:12.159|56=MA|10=051|8=FIX.4.4|9=55|35=0|34=318|49=MMABAXUK|52=20181128-19:49:43.159|56=MA|10=057|8=FIX.4.4|9=55|35=0|34=319|49=MMABAXUK|52=20181128-19:51:14.158|56=MA|10=048|8=FIX.4.4|9=55|35=0|34=320|49=MMABAXUK|52=20181128-19:52:45.158|56=MA|10=045|8=FIX.4.4|9=55|35=0|34=321|49=MMABAXUK|52=20181128-19:54:16.158|56=MA|10=046|8=FIX.4.4|9=55|35=0|34=322|49=MMABAXUK|52=20181128-19:55:46.158|56=MA|10=051|8=FIX.4.4|9=55|35=0|34=323|49=MMABAXUK|52=20181128-19:57:17.155|56=MA|10=049|8=FIX.4.4|9=55|35=0|34=324|49=MMABAXUK|52=20181128-19:58:47.157|56=MA|10=056|8=FIX.4.4|9=55|35=0|34=325|49=MMABAXUK|52=20181128-20:00:18.154|56=MA|10=031|8=FIX.4.4|9=55|35=0|34=326|49=MMABAXUK|52=20181128-20:01:48.155|56=MA|10=037|8=FIX.4.4|9=55|35=0|34=327|49=MMABAXUK|52=20181128-20:03:19.154|56=MA|10=037|8=FIX.4.4|9=55|35=0|34=328|49=MMABAXUK|52=20181128-20:04:49.154|56=MA|10=042|8=FIX.4.4|9=55|35=0|34=329|49=MMABAXUK|52=20181128-20:06:20.152|56=MA|10=032|8=FIX.4.4|9=55|35=0|34=330|49=MMABAXUK|52=20181128-20:07:50.152|56=MA|10=028|8=FIX.4.4|9=55|35=0|34=331|49=MMABAXUK|52=20181128-20:09:20.152|56=MA|10=028|8=FIX.4.4|9=55|35=0|34=332|49=MMABAXUK|52=20181128-20:10:50.160|56=MA|10=023|8=FIX.4.4|9=55|35=0|34=333|49=MMABAXUK|52=20181128-20:12:20.161|56=MA|10=024|8=FIX.4.4|9=55|35=0|34=334|49=MMABAXUK|52=20181128-20:13:50.166|56=MA|10=034|8=FIX.4.4|9=55|35=0|34=335|49=MMABAXUK|52=20181128-20:15:21.159|56=MA|10=037|8=FIX.4.4|9=55|35=0|34=336|49=MMABAXUK|52=20181128-20:16:52.153|56=MA|10=037|8=FIX.4.4|9=55|35=0|34=337|49=MMABAXUK|52=20181128-20:18:23.157|56=MA|10=042|8=FIX.4.4|9=55|35=0|34=338|49=MMABAXUK|52=20181128-20:19:54.150|56=MA|10=041|8=FIX.4.4|9=55|35=0|34=339|49=MMABAXUK|52=20181128-20:21:24.158|56=MA|10=040|8=FIX.4.4|9=55|35=0|34=340|49=MMABAXUK|52=20181128-20:22:55.157|56=MA|10=036|8=FIX.4.4|9=55|35=0|34=341|49=MMABAXUK|52=20181128-20:24:26.155|56=MA|10=035|8=FIX.4.4|9=55|35=0|34=342|49=MMABAXUK|52=20181128-20:25:56.159|56=MA|10=044|8=FIX.4.4|9=55|35=0|34=343|49=MMABAXUK|52=20181128-20:27:26.159|56=MA|10=044|8=FIX.4.4|9=55|35=0|34=344|49=MMABAXUK|52=20181128-20:28:57.150|56=MA|10=041|8=FIX.4.4|9=55|35=0|34=345|49=MMABAXUK|52=20181128-20:30:28.148|56=MA|10=040|8=FIX.4.4|9=55|35=0|34=346|49=MMABAXUK|52=20181128-20:31:59.145|56=MA|10=043|8=FIX.4.4|9=55|35=0|34=347|49=MMABAXUK|52=20181128-20:33:29.145|56=MA|10=043|8=FIX.4.4|9=55|35=0|34=348|49=MMABAXUK|52=20181128-20:35:00.144|56=MA|10=034|8=FIX.4.4|9=55|35=0|34=349|49=MMABAXUK|52=20181128-20:36:30.155|56=MA|10=041|8=FIX.4.4|9=55|35=0|34=350|49=MMABAXUK|52=20181128-20:38:01.146|56=MA|10=033|8=FIX.4.4|9=55|35=0|34=351|49=MMABAXUK|52=20181128-20:39:31.157|56=MA|10=040|8=FIX.4.4|9=55|35=0|34=352|49=MMABAXUK|52=20181128-20:41:02.150|56=MA|10=025|8=FIX.4.4|9=55|35=0|34=353|49=MMABAXUK|52=20181128-20:42:32.150|56=MA|10=030|8=FIX.4.4|9=55|35=0|34=354|49=MMABAXUK|52=20181128-20:44:03.145|56=MA|10=035|8=FIX.4.4|9=55|35=0|34=355|49=MMABAXUK|52=20181128-20:45:33.151|56=MA|10=037|8=FIX.4.4|9=55|35=0|34=356|49=MMABAXUK|52=20181128-20:47:04.143|56=MA|10=039|8=FIX.4.4|9=55|35=0|34=357|49=MMABAXUK|52=20181128-20:48:34.153|56=MA|10=045|8=FIX.4.4|9=55|35=0|34=358|49=MMABAXUK|52=20181128-20:50:05.147|56=MA|10=040|8=FIX.4.4|9=55|35=0|34=359|49=MMABAXUK|52=20181128-20:51:36.138|56=MA|10=046|8=FIX.4.4|9=55|35=0|34=360|49=MMABAXUK|52=20181128-20:53:06.150|56=MA|10=031|8=FIX.4.4|9=55|35=0|34=361|49=MMABAXUK|52=20181128-20:54:37.144|56=MA|10=040|8=FIX.4.4|9=55|35=0|34=362|49=MMABAXUK|52=20181128-20:56:07.146|56=MA|10=042|8=FIX.4.4|9=55|35=0|34=363|49=MMABAXUK|52=20181128-20:57:37.147|56=MA|10=048|8=FIX.4.4|9=55|35=0|34=364|49=MMABAXUK|52=20181128-20:59:07.150|56=MA|10=042|8=FIX.4.4|9=55|35=0|34=365|49=MMABAXUK|52=20181128-21:00:38.149|56=MA|10=042|8=FIX.4.4|9=55|35=0|34=366|49=MMABAXUK|52=20181128-21:02:09.143|56=MA|10=037|8=FIX.4.4|9=55|35=0|34=367|49=MMABAXUK|52=20181128-21:03:39.143|56=MA|10=042|8=FIX.4.4|9=55|35=0|34=368|49=MMABAXUK|52=20181128-21:05:09.149|56=MA|10=048|8=FIX.4.4|9=55|35=0|34=369|49=MMABAXUK|52=20181128-21:06:40.146|56=MA|10=042|8=FIX.4.4|9=55|35=0|34=370|49=MMABAXUK|52=20181128-21:08:11.134|56=MA|10=031|8=FIX.4.4|9=55|35=0|34=371|49=MMABAXUK|52=20181128-21:09:41.137|56=MA|10=039|8=FIX.4.4|9=55|35=0|34=372|49=MMABAXUK|52=20181128-21:11:11.147|56=MA|10=031|8=FIX.4.4|9=55|35=0|34=373|49=MMABAXUK|52=20181128-21:12:42.133|56=MA|10=032|8=FIX.4.4|9=55|35=0|34=374|49=MMABAXUK|52=20181128-21:14:12.134|56=MA|10=033|8=FIX.4.4|9=55|35=0|34=375|49=MMABAXUK|52=20181128-21:15:42.145|56=MA|10=040|8=FIX.4.4|9=55|35=0|34=376|49=MMABAXUK|52=20181128-21:17:13.136|56=MA|10=041|8=FIX.4.4|9=55|35=0|34=377|49=MMABAXUK|52=20181128-21:18:44.130|56=MA|10=041|8=FIX.4.4|9=55|35=0|34=378|49=MMABAXUK|52=20181128-21:20:15.129|56=MA|10=041|8=FIX.4.4|9=55|35=0|34=379|49=MMABAXUK|52=20181128-21:21:45.132|56=MA|10=040|8=FIX.4.4|9=55|35=0|34=380|49=MMABAXUK|52=20181128-21:23:16.131|56=MA|10=031|8=FIX.4.4|9=55|35=0|34=381|49=MMABAXUK|52=20181128-21:24:46.133|56=MA|10=038|8=FIX.4.4|9=55|35=0|34=382|49=MMABAXUK|52=20181128-21:26:16.135|56=MA|10=040|8=FIX.4.4|9=55|35=0|34=383|49=MMABAXUK|52=20181128-21:27:47.139|56=MA|10=050|8=FIX.4.4|9=55|35=0|34=384|49=MMABAXUK|52=20181128-21:29:18.140|56=MA|10=043|8=FIX.4.4|9=55|35=0|34=385|49=MMABAXUK|52=20181128-21:30:49.138|56=MA|10=047|8=FIX.4.4|9=55|35=0|34=386|49=MMABAXUK|52=20181128-21:32:20.126|56=MA|10=036|8=FIX.4.4|9=55|35=0|34=387|49=MMABAXUK|52=20181128-21:33:50.136|56=MA|10=042|8=FIX.4.4|9=55|35=0|34=388|49=MMABAXUK|52=20181128-21:35:21.138|56=MA|10=045|8=FIX.4.4|9=55|35=0|34=389|49=MMABAXUK|52=20181128-21:36:52.126|56=MA|10=048|8=FIX.4.4|9=55|35=0|34=390|49=MMABAXUK|52=20181128-21:38:22.134|56=MA|10=038|8=FIX.4.4|9=55|35=0|34=391|49=MMABAXUK|52=20181128-21:39:52.137|56=MA|10=046|8=FIX.4.4|9=55|35=0|34=392|49=MMABAXUK|52=20181128-21:41:23.123|56=MA|10=033|8=FIX.4.4|9=55|35=0|34=393|49=MMABAXUK|52=20181128-21:42:53.136|56=MA|10=042|8=FIX.4.4|9=55|35=0|34=394|49=MMABAXUK|52=20181128-21:44:24.136|56=MA|10=043|8=FIX.4.4|9=55|35=0|34=395|49=MMABAXUK|52=20181128-21:45:55.126|56=MA|10=048|8=FIX.4.4|9=55|35=0|34=396|49=MMABAXUK|52=20181128-21:47:25.133|56=MA|10=046|8=FIX.4.4|9=55|35=0|34=397|49=MMABAXUK|52=20181128-21:48:56.127|56=MA|10=055|8=FIX.4.4|9=55|35=0|34=398|49=MMABAXUK|52=20181128-21:50:26.129|56=MA|10=048|8=FIX.4.4|9=55|35=0|34=399|49=MMABAXUK|52=20181128-21:51:56.132|56=MA|10=047|8=FIX.4.4|9=55|35=0|34=400|49=MMABAXUK|52=20181128-21:53:27.133|56=MA|10=031|8=FIX.4.4|9=55|35=0|34=401|49=MMABAXUK|52=20181128-21:54:58.119|56=MA|10=041|8=FIX.4.4|9=55|35=0|34=402|49=MMABAXUK|52=20181128-21:56:28.126|56=MA|10=039|8=FIX.4.4|9=55|35=0|34=403|49=MMABAXUK|52=20181128-21:57:59.119|56=MA|10=047|8=FIX.4.4|9=55|35=0|34=404|49=MMABAXUK|52=20181128-21:59:29.120|56=MA|10=039|8=FIX.4.4|9=55|35=0|34=405|49=MMABAXUK|52=20181128-22:00:59.122|56=MA|10=032|8=FIX.4.4|9=55|35=0|34=406|49=MMABAXUK|52=20181128-22:02:30.121|56=MA|10=023|8=FIX.4.4|9=55|35=0|34=407|49=MMABAXUK|52=20181128-22:04:00.121|56=MA|10=023|8=FIX.4.4|9=55|35=0|34=408|49=MMABAXUK|52=20181128-22:05:30.124|56=MA|10=031|8=FIX.4.4|9=55|35=0|34=409|49=MMABAXUK|52=20181128-22:07:00.127|56=MA|10=034|8=FIX.4.4|9=55|35=0|34=410|49=MMABAXUK|52=20181128-22:08:31.128|56=MA|10=032|8=FIX.4.4|9=55|35=0|34=411|49=MMABAXUK|52=20181128-22:10:02.114|56=MA|10=019|8=FIX.4.4|9=55|35=0|34=412|49=MMABAXUK|52=20181128-22:11:33.116|56=MA|10=027|8=FIX.4.4|9=55|35=0|34=413|49=MMABAXUK|52=20181128-22:13:03.125|56=MA|10=027|8=FIX.4.4|9=55|35=0|34=414|49=MMABAXUK|52=20181128-22:14:33.125|56=MA|10=032|8=FIX.4.4|9=55|35=0|34=415|49=MMABAXUK|52=20181128-22:16:04.111|56=MA|10=028|8=FIX.4.4|9=55|35=0|34=416|49=MMABAXUK|52=20181128-22:17:34.111|56=MA|10=033|8=FIX.4.4|9=55|35=0|34=417|49=MMABAXUK|52=20181128-22:19:04.112|56=MA|10=034|8=FIX.4.4|9=55|35=0|34=418|49=MMABAXUK|52=20181128-22:20:34.112|56=MA|10=030|8=FIX.4.4|9=55|35=0|34=419|49=MMABAXUK|52=20181128-22:22:04.122|56=MA|10=031|8=FIX.4.4|9=55|35=0|34=420|49=MMABAXUK|52=20181128-22:23:34.123|56=MA|10=028|8=FIX.4.4|9=55|35=0|34=421|49=MMABAXUK|52=20181128-22:25:05.121|56=MA|10=027|8=FIX.4.4|9=55|35=0|34=422|49=MMABAXUK|52=20181128-22:26:35.123|56=MA|10=034|8=FIX.4.4|9=55|35=0|34=423|49=MMABAXUK|52=20181128-22:28:06.115|56=MA|10=036|8=FIX.4.4|9=55|35=0|34=424|49=MMABAXUK|52=20181128-22:29:37.111|56=MA|10=038|8=FIX.4.4|9=55|35=0|34=425|49=MMABAXUK|52=20181128-22:31:07.113|56=MA|10=031|8=FIX.4.4|9=55|35=0|34=426|49=MMABAXUK|52=20181128-22:32:37.113|56=MA|10=036|8=FIX.4.4|9=55|35=0|34=427|49=MMABAXUK|52=20181128-22:34:08.118|56=MA|10=042|8=FIX.4.4|9=55|35=0|34=428|49=MMABAXUK|52=20181128-22:35:39.118|56=MA|10=048|8=FIX.4.4|9=55|35=0|34=429|49=MMABAXUK|52=20181128-22:37:10.104|56=MA|10=035|8=FIX.4.4|9=55|35=0|34=430|49=MMABAXUK|52=20181128-22:38:40.106|56=MA|10=033|8=FIX.4.4|9=55|35=0|34=431|49=MMABAXUK|52=20181128-22:40:10.110|56=MA|10=019|8=FIX.4.4|9=55|35=0|34=432|49=MMABAXUK|52=20181128-22:41:41.113|56=MA|10=028|8=FIX.4.4|9=55|35=0|34=433|49=MMABAXUK|52=20181128-22:43:12.117|56=MA|10=033|8=FIX.4.4|9=55|35=0|34=434|49=MMABAXUK|52=20181128-22:44:43.104|56=MA|10=035|8=FIX.4.4|9=55|35=0|34=435|49=MMABAXUK|52=20181128-22:46:13.112|56=MA|10=034|8=FIX.4.4|9=55|35=0|34=436|49=MMABAXUK|52=20181128-22:47:43.113|56=MA|10=040|8=FIX.4.4|9=55|35=0|34=437|49=MMABAXUK|52=20181128-22:49:14.109|56=MA|10=046|8=FIX.4.4|9=55|35=0|34=438|49=MMABAXUK|52=20181128-22:50:44.111|56=MA|10=035|8=FIX.4.4|9=55|35=0|34=439|49=MMABAXUK|52=20181128-22:52:15.103|56=MA|10=037|8=FIX.4.4|9=55|35=0|34=440|49=MMABAXUK|52=20181128-22:53:45.110|56=MA|10=031|8=FIX.4.4|9=55|35=0|34=441|49=MMABAXUK|52=20181128-22:55:16.099|56=MA|10=048|8=FIX.4.4|9=55|35=0|34=442|49=MMABAXUK|52=20181128-22:56:46.106|56=MA|10=042|8=FIX.4.4|9=55|35=0|34=443|49=MMABAXUK|52=20181128-22:58:17.102|56=MA|10=039|8=FIX.4.4|9=55|35=0|34=444|49=MMABAXUK|52=20181128-22:59:47.104|56=MA|10=046|8=FIX.4.4|9=55|35=0|34=445|49=MMABAXUK|52=20181128-23:01:18.096|56=MA|10=043|8=FIX.4.4|9=55|35=0|34=446|49=MMABAXUK|52=20181128-23:02:48.096|56=MA|10=048|8=FIX.4.4|9=55|35=0|34=447|49=MMABAXUK|52=20181128-23:04:18.096|56=MA|10=048|8=FIX.4.4|9=55|35=5|34=448|49=MMABAXUK|52=20181128-23:05:01.538|56=MA|10=048|8=FIX.4.4|9=84|35=A|34=449|49=MMABAXUK|52=20181129-09:07:30.257|56=MA|98=0|108=90|95=8|96=3.0.0rc4|10=238|8=FIX.4.4|9=106|35=5|34=450|49=MMABAXUK|52=20181129-09:07:30.835|56=MA|58=MsgSeqNum too low, expecting 451 but received 1|10=094|8=FIX.4.4|9=82|35=A|34=1|49=MMABAXUK|52=20181129-09:08:15.255|56=MA|98=0|108=90|95=8|96=3.0.0rc4|10=126|8=FIX.4.4|9=62|35=2|34=2|49=MMABAXUK|52=20181129-09:08:15.829|56=MA|7=1|16=0|10=072|8=FIX.4.4|9=53|35=0|34=3|49=MMABAXUK|52=20181129-09:09:46.260|56=MA|10=198|8=FIX.4.4|9=53|35=0|34=4|49=MMABAXUK|52=20181129-09:11:16.264|56=MA|10=193|8=FIX.4.4|9=53|35=0|34=5|49=MMABAXUK|52=20181129-09:12:46.267|56=MA|10=201|8=FIX.4.4|9=53|35=0|34=6|49=MMABAXUK|52=20181129-09:14:16.460|56=MA|10=196|8=FIX.4.4|9=53|35=0|34=7|49=MMABAXUK|52=20181129-09:15:46.580|56=MA|10=204|8=FIX.4.4|9=53|35=0|34=8|49=MMABAXUK|52=20181129-09:17:17.253|56=MA|10=202|8=FIX.4.4|9=53|35=0|34=9|49=MMABAXUK|52=20181129-09:18:47.256|56=MA|10=210|8=FIX.4.4|9=76|35=5|34=10|49=MMABAXUK|52=20181129-09:20:05.258|56=MA|58=Session Tab Closed|10=057|8=FIX.4.4|9=83|35=A|34=11|49=MMABAXUK|52=20181129-11:02:29.228|56=MA|98=0|108=90|95=8|96=3.0.0rc4|10=168|8=FIX.4.4|9=233|35=D|34=12|49=MMABAXUK|52=20181129-11:02:34.725|56=MA|11=JBMM181129-3|21=1|453=1|448=MMABAXUK|447=C|452=11|55=XS1334778021|48=XS1334778021|22=4|54=2|60=20180806-16:10:14.113|38=870000|40=2|44=90|15=USD|59=6|126=20181207-21:59:00.000|10=077|8=FIX.4.4|9=54|35=0|34=13|49=MMABAXUK|52=20181129-11:04:05.220|56=MA|10=227|8=FIX.4.4|9=54|35=0|34=14|49=MMABAXUK|52=20181129-11:05:35.233|56=MA|10=236|8=FIX.4.4|9=233|35=D|34=15|49=MMABAXUK|52=20181129-11:06:16.903|56=MA|11=JBMM181129-4|21=1|453=1|448=MMABAXUK|447=C|452=11|55=XS1334778021|48=XS1334778021|22=4|54=2|60=20181129-07:10:14.113|38=870000|40=2|44=90|15=USD|59=6|126=20181207-21:59:00.000|10=082|8=FIX.4.4|9=54|35=0|34=16|49=MMABAXUK|52=20181129-11:07:47.224|56=MA|10=243|8=FIX.4.4|9=54|35=0|34=17|49=MMABAXUK|52=20181129-11:09:17.233|56=MA|10=243|8=FIX.4.4|9=54|35=0|34=18|49=MMABAXUK|52=20181129-11:10:47.321|56=MA|10=237|8=FIX.4.4|9=54|35=0|34=19|49=MMABAXUK|52=20181129-11:12:17.325|56=MA|10=241|8=FIX.4.4|9=54|35=0|34=20|49=MMABAXUK|52=20181129-11:13:48.225|56=MA|10=237|8=FIX.4.4|9=54|35=0|34=21|49=MMABAXUK|52=20181129-11:15:18.227|56=MA|10=239|8=FIX.4.4|9=54|35=0|34=22|49=MMABAXUK|52=20181129-11:16:48.228|56=MA|10=245|8=FIX.4.4|9=54|35=0|34=23|49=MMABAXUK|52=20181129-11:18:18.320|56=MA|10=238|8=FIX.4.4|9=54|35=0|34=24|49=MMABAXUK|52=20181129-11:19:49.225|56=MA|10=248|8=FIX.4.4|9=54|35=0|34=25|49=MMABAXUK|52=20181129-11:21:19.252|56=MA|10=239|8=FIX.4.4|9=54|35=0|34=26|49=MMABAXUK|52=20181129-11:22:49.281|56=MA|10=246|8=FIX.4.4|9=54|35=0|34=27|49=MMABAXUK|52=20181129-11:24:20.224|56=MA|10=235|8=FIX.4.4|9=54|35=0|34=28|49=MMABAXUK|52=20181129-11:25:51.219|56=MA|10=245|8=FIX.4.4|9=54|35=0|34=29|49=MMABAXUK|52=20181129-11:27:21.225|56=MA|10=242|8=FIX.4.4|9=54|35=0|34=30|49=MMABAXUK|52=20181129-11:28:52.214|56=MA|10=237|8=FIX.4.4|9=54|35=0|34=31|49=MMABAXUK|52=20181129-11:30:23.224|56=MA|10=230|8=FIX.4.4|9=54|35=0|34=32|49=MMABAXUK|52=20181129-11:31:54.213|56=MA|10=234|8=FIX.4.4|9=54|35=0|34=33|49=MMABAXUK|52=20181129-11:33:24.332|56=MA|10=236|8=FIX.4.4|9=54|35=0|34=34|49=MMABAXUK|52=20181129-11:34:54.341|56=MA|10=241|8=FIX.4.4|9=54|35=0|34=35|49=MMABAXUK|52=20181129-11:36:25.210|56=MA|10=237|8=FIX.4.4|9=54|35=0|34=36|49=MMABAXUK|52=20181129-11:37:55.315|56=MA|10=248|8=FIX.4.4|9=54|35=0|34=37|49=MMABAXUK|52=20181129-11:39:25.325|56=MA|10=249|8=FIX.4.4|9=54|35=0|34=38|49=MMABAXUK|52=20181129-11:40:56.209|56=MA|10=247|8=FIX.4.4|9=54|35=0|34=39|49=MMABAXUK|52=20181129-11:42:26.221|56=MA|10=241|8=FIX.4.4|9=54|35=0|34=40|49=MMABAXUK|52=20181129-11:43:56.222|56=MA|10=238|8=FIX.4.4|9=54|35=0|34=41|49=MMABAXUK|52=20181129-11:45:26.327|56=MA|10=244|8=FIX.4.4|9=54|35=0|34=42|49=MMABAXUK|52=20181129-11:46:57.210|56=MA|10=241|8=FIX.4.4|9=54|35=0|34=43|49=MMABAXUK|52=20181129-11:48:27.219|56=MA|10=250|8=FIX.4.4|9=54|35=0|34=44|49=MMABAXUK|52=20181129-11:49:58.211|56=MA|10=248|8=FIX.4.4|9=54|35=0|34=45|49=MMABAXUK|52=20181129-11:51:28.218|56=MA|10=246|8=FIX.4.4|9=54|35=0|34=46|49=MMABAXUK|52=20181129-11:52:58.320|56=MA|10=245|8=FIX.4.4|9=54|35=0|34=47|49=MMABAXUK|52=20181129-11:54:28.324|56=MA|10=249|8=FIX.4.4|9=54|35=0|34=48|49=MMABAXUK|52=20181129-11:55:59.212|56=MA|10=251|8=FIX.4.4|9=54|35=0|34=49|49=MMABAXUK|52=20181129-11:57:30.204|56=MA|10=244|8=FIX.4.4|9=54|35=0|34=50|49=MMABAXUK|52=20181129-11:59:00.217|56=MA|10=239|8=FIX.4.4|9=54|35=0|34=51|49=MMABAXUK|52=20181129-12:00:31.204|56=MA|10=227|8=FIX.4.4|9=54|35=0|34=52|49=MMABAXUK|52=20181129-12:02:01.214|56=MA|10=228|8=FIX.4.4|9=54|35=0|34=53|49=MMABAXUK|52=20181129-12:03:32.212|56=MA|10=232|8=FIX.4.4|9=54|35=0|34=54|49=MMABAXUK|52=20181129-12:05:02.318|56=MA|10=239|8=FIX.4.4|9=54|35=0|34=55|49=MMABAXUK|52=20181129-12:06:33.201|56=MA|10=236|8=FIX.4.4|9=54|35=0|34=56|49=MMABAXUK|52=20181129-12:08:03.328|56=MA|10=246|8=FIX.4.4|9=54|35=0|34=57|49=MMABAXUK|52=20181129-12:09:33.328|56=MA|10=251|8=FIX.4.4|9=54|35=0|34=58|49=MMABAXUK|52=20181129-12:11:04.200|56=MA|10=232|8=FIX.4.4|9=54|35=0|34=59|49=MMABAXUK|52=20181129-12:12:35.199|56=MA|10=255|8=FIX.4.4|9=54|35=0|34=60|49=MMABAXUK|52=20181129-12:14:06.198|56=MA|10=246|8=FIX.4.4|9=54|35=0|34=61|49=MMABAXUK|52=20181129-12:15:36.198|56=MA|10=251|8=FIX.4.4|9=54|35=0|34=62|49=MMABAXUK|52=20181129-12:17:07.198|56=MA|10=252|8=FIX.4.4|9=54|35=0|34=63|49=MMABAXUK|52=20181129-12:18:38.197|56=MA|10=001|8=FIX.4.4|9=54|35=0|34=64|49=MMABAXUK|52=20181129-12:20:09.197|56=MA|10=249|8=FIX.4.4|9=54|35=0|34=65|49=MMABAXUK|52=20181129-12:21:40.195|56=MA|10=244|8=FIX.4.4|9=54|35=0|34=66|49=MMABAXUK|52=20181129-12:23:11.196|56=MA|10=246|8=FIX.4.4|9=54|35=0|34=67|49=MMABAXUK|52=20181129-12:24:42.195|56=MA|10=251|8=FIX.4.4|9=54|35=0|34=68|49=MMABAXUK|52=20181129-12:26:13.193|56=MA|10=250|8=FIX.4.4|9=54|35=0|34=69|49=MMABAXUK|52=20181129-12:27:43.193|56=MA|10=255|8=FIX.4.4|9=54|35=0|34=70|49=MMABAXUK|52=20181129-12:29:13.193|56=MA|10=246|8=FIX.4.4|9=54|35=0|34=71|49=MMABAXUK|52=20181129-12:30:44.192|56=MA|10=242|8=FIX.4.4|9=54|35=0|34=72|49=MMABAXUK|52=20181129-12:32:15.191|56=MA|10=242|8=FIX.4.4|9=230|35=D|34=73|49=MMABAXUK|52=20181129-12:32:43.677|56=MA|11=JBMM181129-5|21=1|453=1|448=MMABAXUK|447=C|452=11|55=XS1334778021|48=XS1334778021|22=4|54=2|60=20181129-07:10:14.113|38=100|40=2|44=90|15=USD|59=6|126=20181207-21:59:00.000|10=190|8=FIX.4.4|9=231|35=D|34=74|49=MMABAXUK|52=20181129-12:33:50.493|56=MA|11=JBMM181129-6|21=1|453=1|448=MMABAXUK|447=C|452=11|55=XS1334778021|48=XS1334778021|22=4|54=2|60=20181129-07:10:14.113|38=1000|40=2|44=90|15=USD|59=6|126=20181207-21:59:00.000|10=236|8=FIX.4.4|9=54|35=0|34=75|49=MMABAXUK|52=20181129-12:35:21.191|56=MA|10=245|8=FIX.4.4|9=54|35=0|34=76|49=MMABAXUK|52=20181129-12:36:51.192|56=MA|10=251|8=FIX.4.4|9=54|35=0|34=77|49=MMABAXUK|52=20181129-12:38:22.191|56=MA|10=251|8=FIX.4.4|9=54|35=0|34=78|49=MMABAXUK|52=20181129-12:39:52.191|56=MA|10=000|8=FIX.4.4|9=54|35=0|34=79|49=MMABAXUK|52=20181129-12:41:23.190|56=MA|10=247|8=FIX.4.4|9=54|35=0|34=80|49=MMABAXUK|52=20181129-12:42:53.190|56=MA|10=243|8=FIX.4.4|9=54|35=0|34=81|49=MMABAXUK|52=20181129-12:44:24.190|56=MA|10=244|8=FIX.4.4|9=54|35=0|34=82|49=MMABAXUK|52=20181129-12:45:55.188|56=MA|10=001|8=FIX.4.4|9=54|35=0|34=83|49=MMABAXUK|52=20181129-12:47:25.188|56=MA|10=001|8=FIX.4.4|9=54|35=0|34=84|49=MMABAXUK|52=20181129-12:48:56.187|56=MA|10=006|8=FIX.4.4|9=54|35=0|34=85|49=MMABAXUK|52=20181129-12:50:26.187|56=MA|10=253|8=FIX.4.4|9=54|35=0|34=86|49=MMABAXUK|52=20181129-12:51:57.186|56=MA|10=002|8=FIX.4.4|9=54|35=0|34=87|49=MMABAXUK|52=20181129-12:53:27.186|56=MA|10=002|8=FIX.4.4|9=54|35=0|34=88|49=MMABAXUK|52=20181129-12:54:58.185|56=MA|10=007|8=FIX.4.4|9=54|35=0|34=89|49=MMABAXUK|52=20181129-12:56:28.185|56=MA|10=007|8=FIX.4.4|9=54|35=0|34=90|49=MMABAXUK|52=20181129-12:57:59.185|56=MA|10=004|8=FIX.4.4|9=54|35=0|34=91|49=MMABAXUK|52=20181129-12:59:30.185|56=MA|10=252|8=FIX.4.4|9=54|35=0|34=92|49=MMABAXUK|52=20181129-13:01:01.183|56=MA|10=237|8=FIX.4.4|9=54|35=0|34=93|49=MMABAXUK|52=20181129-13:02:31.183|56=MA|10=242|8=FIX.4.4|9=54|35=0|34=94|49=MMABAXUK|52=20181129-13:04:02.181|56=MA|10=241|8=FIX.4.4|9=54|35=0|34=95|49=MMABAXUK|52=20181129-13:05:32.181|56=MA|10=246|8=FIX.4.4|9=54|35=0|34=96|49=MMABAXUK|52=20181129-13:07:02.181|56=MA|10=246|8=FIX.4.4|9=54|35=0|34=97|49=MMABAXUK|52=20181129-13:08:33.180|56=MA|10=251|8=FIX.4.4|9=54|35=0|34=98|49=MMABAXUK|52=20181129-13:10:04.179|56=MA|10=251|8=FIX.4.4|9=54|35=0|34=99|49=MMABAXUK|52=20181129-13:11:34.179|56=MA|10=000|8=FIX.4.4|9=55|35=0|34=100|49=MMABAXUK|52=20181129-13:13:05.178|56=MA|10=031|8=FIX.4.4|9=55|35=0|34=101|49=MMABAXUK|52=20181129-13:14:35.178|56=MA|10=036|8=FIX.4.4|9=55|35=0|34=102|49=MMABAXUK|52=20181129-13:16:05.178|56=MA|10=036|8=FIX.4.4|9=55|35=0|34=103|49=MMABAXUK|52=20181129-13:17:36.178|56=MA|10=042|8=FIX.4.4|9=55|35=0|34=104|49=MMABAXUK|52=20181129-13:19:07.176|56=MA|10=041|8=FIX.4.4|9=55|35=0|34=105|49=MMABAXUK|52=20181129-13:20:37.176|56=MA|10=037|8=FIX.4.4|9=55|35=0|34=106|49=MMABAXUK|52=20181129-13:22:07.176|56=MA|10=037|8=FIX.4.4|9=55|35=0|34=107|49=MMABAXUK|52=20181129-13:23:37.176|56=MA|10=042|8=FIX.4.4|9=55|35=0|34=108|49=MMABAXUK|52=20181129-13:25:08.175|56=MA|10=042|8=FIX.4.4|9=55|35=0|34=109|49=MMABAXUK|52=20181129-13:26:38.175|56=MA|10=047|8=FIX.4.4|9=55|35=0|34=110|49=MMABAXUK|52=20181129-13:28:08.175|56=MA|10=038|8=FIX.4.4|9=55|35=0|34=111|49=MMABAXUK|52=20181129-13:29:39.175|56=MA|10=044|8=FIX.4.4|9=55|35=0|34=112|49=MMABAXUK|52=20181129-13:31:09.175|56=MA|10=035|8=FIX.4.4|9=55|35=0|34=113|49=MMABAXUK|52=20181129-13:32:40.173|56=MA|10=030|8=FIX.4.4|9=55|35=0|34=114|49=MMABAXUK|52=20181129-13:34:11.173|56=MA|10=031|8=FIX.4.4|9=55|35=0|34=115|49=MMABAXUK|52=20181129-13:35:42.171|56=MA|10=035|8=FIX.4.4|9=55|35=0|34=116|49=MMABAXUK|52=20181129-13:37:12.172|56=MA|10=036|8=FIX.4.4|9=55|35=0|34=117|49=MMABAXUK|52=20181129-13:38:43.171|56=MA|10=041|8=FIX.4.4|9=55|35=0|34=118|49=MMABAXUK|52=20181129-13:40:14.170|56=MA|10=032|8=FIX.4.4|9=55|35=0|34=119|49=MMABAXUK|52=20181129-13:41:44.170|56=MA|10=037|8=FIX.4.4|9=55|35=0|34=120|49=MMABAXUK|52=20181129-13:43:14.170|56=MA|10=028|8=FIX.4.4|9=55|35=0|34=121|49=MMABAXUK|52=20181129-13:44:45.168|56=MA|10=041|8=FIX.4.4|9=55|35=0|34=122|49=MMABAXUK|52=20181129-13:46:15.168|56=MA|10=041|8=FIX.4.4|9=55|35=0|34=123|49=MMABAXUK|52=20181129-13:47:45.168|56=MA|10=046|8=FIX.4.4|9=55|35=0|34=124|49=MMABAXUK|52=20181129-13:49:16.167|56=MA|10=046|8=FIX.4.4|9=55|35=0|34=125|49=MMABAXUK|52=20181129-13:50:46.167|56=MA|10=042|8=FIX.4.4|9=55|35=0|34=126|49=MMABAXUK|52=20181129-13:52:16.167|56=MA|10=042|8=FIX.4.4|9=55|35=0|34=127|49=MMABAXUK|52=20181129-13:53:47.165|56=MA|10=046|8=FIX.4.4|9=55|35=0|34=128|49=MMABAXUK|52=20181129-13:55:17.165|56=MA|10=046|8=FIX.4.4|9=55|35=0|34=129|49=MMABAXUK|52=20181129-13:56:48.164|56=MA|10=051|8=FIX.4.4|9=55|35=0|34=130|49=MMABAXUK|52=20181129-13:58:18.164|56=MA|10=042|8=FIX.4.4|9=55|35=0|34=131|49=MMABAXUK|52=20181129-13:59:48.164|56=MA|10=047|8=FIX.4.4|9=55|35=0|34=132|49=MMABAXUK|52=20181129-14:01:19.163|56=MA|10=033|8=FIX.4.4|9=55|35=0|34=133|49=MMABAXUK|52=20181129-14:02:49.163|56=MA|10=038|8=FIX.4.4|9=55|35=0|34=134|49=MMABAXUK|52=20181129-14:04:20.162|56=MA|10=029|8=FIX.4.4|9=55|35=0|34=135|49=MMABAXUK|52=20181129-14:05:50.162|56=MA|10=034|8=FIX.4.4|9=55|35=0|34=136|49=MMABAXUK|52=20181129-14:07:21.160|56=MA|10=033|8=FIX.4.4|9=55|35=0|34=137|49=MMABAXUK|52=20181129-14:08:51.160|56=MA|10=038|8=FIX.4.4|9=55|35=0|34=138|49=MMABAXUK|52=20181129-14:10:21.161|56=MA|10=030|8=FIX.4.4|9=55|35=0|34=139|49=MMABAXUK|52=20181129-14:11:51.161|56=MA|10=035|8=FIX.4.4|9=55|35=0|34=140|49=MMABAXUK|52=20181129-14:13:22.159|56=MA|10=034|8=FIX.4.4|9=55|35=0|34=141|49=MMABAXUK|52=20181129-14:14:52.160|56=MA|10=031|8=FIX.4.4|9=55|35=0|34=142|49=MMABAXUK|52=20181129-14:16:23.158|56=MA|10=039|8=FIX.4.4|9=55|35=0|34=143|49=MMABAXUK|52=20181129-14:17:53.159|56=MA|10=045|8=FIX.4.4|9=55|35=0|34=144|49=MMABAXUK|52=20181129-14:19:24.158|56=MA|10=045|8=FIX.4.4|9=55|35=0|34=145|49=MMABAXUK|52=20181129-14:20:54.159|56=MA|10=042|8=FIX.4.4|9=55|35=0|34=146|49=MMABAXUK|52=20181129-14:22:25.156|56=MA|10=040|8=FIX.4.4|9=55|35=0|34=147|49=MMABAXUK|52=20181129-14:23:55.156|56=MA|10=045|8=FIX.4.4|9=55|35=0|34=148|49=MMABAXUK|52=20181129-14:25:25.156|56=MA|10=045|8=FIX.4.4|9=55|35=0|34=149|49=MMABAXUK|52=20181129-14:26:56.156|56=MA|10=051|8=FIX.4.4|9=55|35=0|34=150|49=MMABAXUK|52=20181129-14:28:27.156|56=MA|10=043|8=FIX.4.4|9=55|35=0|34=151|49=MMABAXUK|52=20181129-14:29:58.153|56=MA|10=046|8=FIX.4.4|9=55|35=0|34=152|49=MMABAXUK|52=20181129-14:31:28.154|56=MA|10=038|8=FIX.4.4|9=55|35=0|34=153|49=MMABAXUK|52=20181129-14:32:59.152|56=MA|10=042|8=FIX.4.4|9=55|35=0|34=154|49=MMABAXUK|52=20181129-14:34:29.152|56=MA|10=042|8=FIX.4.4|9=55|35=0|34=155|49=MMABAXUK|52=20181129-14:35:59.152|56=MA|10=047|8=FIX.4.4|9=55|35=0|34=156|49=MMABAXUK|52=20181129-14:37:30.151|56=MA|10=038|8=FIX.4.4|9=55|35=0|34=157|49=MMABAXUK|52=20181129-14:39:00.152|56=MA|10=039|8=FIX.4.4|9=55|35=0|34=158|49=MMABAXUK|52=20181129-14:40:31.150|56=MA|10=034|8=FIX.4.4|9=55|35=0|34=159|49=MMABAXUK|52=20181129-14:42:01.151|56=MA|10=035|8=FIX.4.4|9=55|35=0|34=160|49=MMABAXUK|52=20181129-14:43:32.149|56=MA|10=039|8=FIX.4.4|9=55|35=0|34=161|49=MMABAXUK|52=20181129-14:45:03.149|56=MA|10=040|8=FIX.4.4|9=55|35=0|34=162|49=MMABAXUK|52=20181129-14:46:34.148|56=MA|10=045|8=FIX.4.4|9=55|35=0|34=163|49=MMABAXUK|52=20181129-14:48:05.148|56=MA|10=046|8=FIX.4.4|9=55|35=0|34=164|49=MMABAXUK|52=20181129-14:49:36.147|56=MA|10=051|8=FIX.4.4|9=55|35=0|34=165|49=MMABAXUK|52=20181129-14:51:07.146|56=MA|10=042|8=FIX.4.4|9=55|35=0|34=166|49=MMABAXUK|52=20181129-14:52:37.146|56=MA|10=047|8=FIX.4.4|9=55|35=0|34=167|49=MMABAXUK|52=20181129-14:54:08.145|56=MA|10=047|8=FIX.4.4|9=55|35=0|34=168|49=MMABAXUK|52=20181129-14:55:38.145|56=MA|10=052|8=FIX.4.4|9=55|35=0|34=169|49=MMABAXUK|52=20181129-14:57:08.146|56=MA|10=053|8=FIX.4.4|9=55|35=0|34=170|49=MMABAXUK|52=20181129-14:58:39.145|56=MA|10=049|8=FIX.4.4|9=55|35=0|34=171|49=MMABAXUK|52=20181129-15:00:10.145|56=MA|10=027|8=FIX.4.4|9=55|35=0|34=172|49=MMABAXUK|52=20181129-15:01:41.144|56=MA|10=032|8=FIX.4.4|9=55|35=0|34=173|49=MMABAXUK|52=20181129-15:03:12.144|56=MA|10=033|8=FIX.4.4|9=55|35=0|34=174|49=MMABAXUK|52=20181129-15:04:43.143|56=MA|10=038|8=FIX.4.4|9=55|35=0|34=175|49=MMABAXUK|52=20181129-15:06:13.143|56=MA|10=038|8=FIX.4.4|9=55|35=0|34=176|49=MMABAXUK|52=20181129-15:07:44.142|56=MA|10=043|8=FIX.4.4|9=55|35=0|34=177|49=MMABAXUK|52=20181129-15:09:15.143|56=MA|10=045|8=FIX.4.4|9=55|35=0|34=178|49=MMABAXUK|52=20181129-15:10:46.140|56=MA|10=039|8=FIX.4.4|9=55|35=0|34=179|49=MMABAXUK|52=20181129-15:12:16.140|56=MA|10=039|8=FIX.4.4|9=55|35=0|34=180|49=MMABAXUK|52=20181129-15:13:46.140|56=MA|10=035|8=FIX.4.4|9=55|35=0|34=181|49=MMABAXUK|52=20181129-15:15:16.140|56=MA|10=035|8=FIX.4.4|9=55|35=0|34=182|49=MMABAXUK|52=20181129-15:16:47.138|56=MA|10=048|8=FIX.4.4|9=55|35=0|34=183|49=MMABAXUK|52=20181129-15:18:17.139|56=MA|10=049|8=FIX.4.4|9=55|35=0|34=184|49=MMABAXUK|52=20181129-15:19:48.138|56=MA|10=054|8=FIX.4.4|9=55|35=0|34=185|49=MMABAXUK|52=20181129-15:21:19.137|56=MA|10=045|8=FIX.4.4|9=55|35=0|34=186|49=MMABAXUK|52=20181129-15:22:50.136|56=MA|10=041|8=FIX.4.4|9=55|35=0|34=187|49=MMABAXUK|52=20181129-15:24:21.136|56=MA|10=042|8=FIX.4.4|9=55|35=0|34=188|49=MMABAXUK|52=20181129-15:25:51.136|56=MA|10=047|8=FIX.4.4|9=202|35=D|34=189|49=MMABAXUK|52=20181129-15:26:52.533|56=MA|11=[@LOCALMKTDATE][@MMAD:increment]|453=1|448=MMABAXUK|447=C|452=11|55=NA|48=XS0042821321|22=4|54=2|60=20181129-15:26:52.532|38=1000000|40=1|423=1|10=015|8=FIX.4.4|9=200|35=D|34=190|49=MMABAXUK|52=20181129-15:27:35.177|56=MA|11=@LOCALMKTDATE[@MMAD:increment]|453=1|448=MMABAXUK|447=C|452=11|55=NA|48=XS0042821321|22=4|54=2|60=20181129-15:27:35.177|38=1000000|40=1|423=1|10=090|8=FIX.4.4|9=188|35=D|34=191|49=MMABAXUK|52=20181129-15:27:56.088|56=MA|11=LOCALMKTDATE@MMAD0|453=1|448=MMABAXUK|447=C|452=11|55=NA|48=XS0042821321|22=4|54=2|60=20181129-15:27:56.088|38=1000000|40=1|423=1|10=171|8=FIX.4.4|9=178|35=D|34=192|49=MMABAXUK|52=20181129-15:28:37.672|56=MA|11=20181129|453=1|448=MMABAXUK|447=C|452=11|55=NA|48=XS0042821321|22=4|54=2|60=20181129-15:28:37.672|38=1000000|40=1|423=1|10=061|8=FIX.4.4|9=189|35=D|34=193|49=MMABAXUK|52=20181129-15:29:39.065|56=MA|11=LOCALMKTDATE @MMAD1|453=1|448=MMABAXUK|447=C|452=11|55=NA|48=XS0042821321|22=4|54=2|60=20181129-15:29:39.065|38=1000000|40=1|423=1|10=203|8=FIX.4.4|9=202|35=D|34=194|49=MMABAXUK|52=20181129-15:30:33.319|56=MA|11=[@LOCALMKTDATE][@MMAD:increment]|453=1|448=MMABAXUK|447=C|452=11|55=NA|48=XS0042821321|22=4|54=2|60=20181129-15:30:33.319|38=1000000|40=1|423=1|10=004|8=FIX.4.4|9=188|35=D|34=195|49=MMABAXUK|52=20181129-15:30:59.062|56=MA|11=LOCALMKTDATE MMAD2|453=1|448=MMABAXUK|447=C|452=11|55=NA|48=XS0042821321|22=4|54=2|60=20181129-15:30:59.062|38=1000000|40=1|423=1|10=123|8=FIX.4.4|9=178|35=D|34=196|49=MMABAXUK|52=20181129-15:31:12.519|56=MA|11=20181129|453=1|448=MMABAXUK|447=C|452=11|55=NA|48=XS0042821321|22=4|54=2|60=20181129-15:31:12.519|38=1000000|40=1|423=1|10=039|8=FIX.4.4|9=178|35=D|34=197|49=MMABAXUK|52=20181129-15:31:40.190|56=MA|11=20181129|453=1|448=MMABAXUK|447=C|452=11|55=NA|48=XS0042821321|22=4|54=2|60=20181129-15:31:40.190|38=1000000|40=1|423=1|10=032|8=FIX.4.4|9=188|35=D|34=198|49=MMABAXUK|52=20181129-15:32:01.263|56=MA|11=LOCALMKTDATE,MMAD3|453=1|448=MMABAXUK|447=C|452=11|55=NA|48=XS0042821321|22=4|54=2|60=20181129-15:32:01.263|38=1000000|40=1|423=1|10=123|8=FIX.4.4|9=178|35=D|34=199|49=MMABAXUK|52=20181129-15:32:16.982|56=MA|11=20181129|453=1|448=MMABAXUK|447=C|452=11|55=NA|48=XS0042821321|22=4|54=2|60=20181129-15:32:16.982|38=1000000|40=1|423=1|10=060|8=FIX.4.4|9=166|35=D|34=200|49=MMABAXUK|52=20181129-15:32:46.662|56=MA|453=1|448=MMABAXUK|447=C|452=11|55=NA|48=XS0042821321|22=4|54=2|60=20181129-15:32:46.662|38=1000000|40=1|423=1|10=236|8=FIX.4.4|9=166|35=D|34=201|49=MMABAXUK|52=20181129-15:33:11.038|56=MA|453=1|448=MMABAXUK|447=C|452=11|55=NA|48=XS0042821321|22=4|54=2|60=20181129-15:33:11.038|38=1000000|40=1|423=1|10=217|8=FIX.4.4|9=178|35=D|34=202|49=MMABAXUK|52=20181129-15:33:18.942|56=MA|11=20181129|453=1|448=MMABAXUK|447=C|452=11|55=NA|48=XS0042821321|22=4|54=2|60=20181129-15:33:18.941|38=1000000|40=1|423=1|10=042|8=FIX.4.4|9=189|35=D|34=203|49=MMABAXUK|52=20181129-15:34:13.957|56=MA|11=LOCALMKTDATE,@mmad4|453=1|448=MMABAXUK|447=C|452=11|55=NA|48=XS0042821321|22=4|54=2|60=20181129-15:34:13.957|38=1000000|40=1|423=1|10=078|8=FIX.4.4|9=178|35=D|34=204|49=MMABAXUK|52=20181129-15:35:33.797|56=MA|11=20181129|453=1|448=MMABAXUK|447=C|452=11|55=NA|48=XS0042821321|22=4|54=2|60=20181129-15:35:33.797|38=1000000|40=1|423=1|10=059|8=FIX.4.4|9=185|35=D|34=205|49=MMABAXUK|52=20181129-15:36:02.348|56=MA|11=[@LOCALMKTDATE]|453=1|448=MMABAXUK|447=C|452=11|55=NA|48=XS0042821321|22=4|54=2|60=20181129-15:36:02.348|38=1000000|40=1|423=1|10=249|8=FIX.4.4|9=189|35=D|34=206|49=MMABAXUK|52=20181129-15:36:17.380|56=MA|11=[@LOCALMKTDATE] VAR|453=1|448=MMABAXUK|447=C|452=11|55=NA|48=XS0042821321|22=4|54=2|60=20181129-15:36:17.380|38=1000000|40=1|423=1|10=011|8=FIX.4.4|9=55|35=0|34=207|49=MMABAXUK|52=20181129-15:37:48.131|56=MA|10=043|8=FIX.4.4|9=181|35=D|34=208|49=MMABAXUK|52=20181129-15:39:12.731|56=MA|11=MMAD2911185|453=1|448=MMABAXUK|447=C|452=11|55=NA|48=XS0042821321|22=4|54=2|60=20181129-15:39:12.731|38=1000000|40=1|423=1|10=021|8=FIX.4.4|9=182|35=D|34=209|49=MMABAXUK|52=20181129-15:39:36.555|56=MA|11=MMAD291118-6|453=1|448=MMABAXUK|447=C|452=11|55=NA|48=XS0042821321|22=4|54=2|60=20181129-15:39:36.555|38=1000000|40=1|423=1|10=089|8=FIX.4.4|9=55|35=0|34=210|49=MMABAXUK|52=20181129-15:41:07.131|56=MA|10=027|8=FIX.4.4|9=55|35=0|34=211|49=MMABAXUK|52=20181129-15:42:37.132|56=MA|10=033|8=FIX.4.4|9=55|35=0|34=212|49=MMABAXUK|52=20181129-15:44:07.317|56=MA|10=038|8=FIX.4.4|9=55|35=0|34=213|49=MMABAXUK|52=20181129-15:45:38.129|56=MA|10=045|8=FIX.4.4|9=55|35=0|34=214|49=MMABAXUK|52=20181129-15:47:08.129|56=MA|10=045|8=FIX.4.4|9=55|35=0|34=215|49=MMABAXUK|52=20181129-15:48:38.129|56=MA|10=050|8=FIX.4.4|9=182|35=D|34=216|49=MMABAXUK|52=20181129-15:49:47.457|56=MA|11=MMAD291118-7|453=1|448=MMABAXUK|447=C|452=11|55=NA|48=XS1334778021|22=4|54=2|60=20181129-15:49:47.456|38=1000000|40=1|423=1|10=108|8=FIX.4.4|9=55|35=0|34=217|49=MMABAXUK|52=20181129-15:51:18.128|56=MA|10=043|8=FIX.4.4|9=182|35=D|34=218|49=MMABAXUK|52=20181129-15:52:44.155|56=MA|11=MMAD291118-8|453=1|448=MMABAXUK|447=C|452=11|55=NA|48=XS0042821321|22=4|54=2|60=20181129-15:52:44.155|38=1000000|40=1|423=1|10=071|8=FIX.4.4|9=55|35=0|34=219|49=MMABAXUK|52=20181129-15:54:14.325|56=MA|10=043|8=FIX.4.4|9=55|35=0|34=220|49=MMABAXUK|52=20181129-15:55:45.127|56=MA|10=040|8=FIX.4.4|9=55|35=0|34=221|49=MMABAXUK|52=20181129-15:57:15.319|56=MA|10=043|8=FIX.4.4|9=55|35=0|34=222|49=MMABAXUK|52=20181129-15:58:46.125|56=MA|10=044|8=FIX.4.4|9=55|35=0|34=223|49=MMABAXUK|52=20181129-16:00:16.126|56=MA|10=031|8=FIX.4.4|9=55|35=0|34=224|49=MMABAXUK|52=20181129-16:01:46.324|56=MA|10=036|8=FIX.4.4|9=55|35=0|34=225|49=MMABAXUK|52=20181129-16:03:17.124|56=MA|10=035|8=FIX.4.4|9=55|35=0|34=226|49=MMABAXUK|52=20181129-16:04:47.317|56=MA|10=044|8=FIX.4.4|9=55|35=0|34=227|49=MMABAXUK|52=20181129-16:06:18.122|56=MA|10=039|8=FIX.4.4|9=55|35=0|34=228|49=MMABAXUK|52=20181129-16:07:48.122|56=MA|10=044|8=FIX.4.4|9=55|35=0|34=229|49=MMABAXUK|52=20181129-16:09:18.241|56=MA|10=046|8=FIX.4.4|9=55|35=0|34=230|49=MMABAXUK|52=20181129-16:10:48.319|56=MA|10=039|8=FIX.4.4|9=55|35=0|34=231|49=MMABAXUK|52=20181129-16:12:19.120|56=MA|10=030|8=FIX.4.4|9=55|35=0|34=232|49=MMABAXUK|52=20181129-16:13:49.120|56=MA|10=035|8=FIX.4.4|9=55|35=0|34=233|49=MMABAXUK|52=20181129-16:15:20.119|56=MA|10=035|8=FIX.4.4|9=55|35=0|34=234|49=MMABAXUK|52=20181129-16:16:50.119|56=MA|10=040|8=FIX.4.4|9=55|35=0|34=235|49=MMABAXUK|52=20181129-16:18:21.117|56=MA|10=039|8=FIX.4.4|9=55|35=0|34=236|49=MMABAXUK|52=20181129-16:19:51.117|56=MA|10=044|8=FIX.4.4|9=55|35=0|34=237|49=MMABAXUK|52=20181129-16:21:21.117|56=MA|10=035|8=FIX.4.4|9=55|35=0|34=238|49=MMABAXUK|52=20181129-16:22:51.319|56=MA|10=044|8=FIX.4.4|9=55|35=0|34=239|49=MMABAXUK|52=20181129-16:24:22.116|56=MA|10=040|8=FIX.4.4|9=55|35=0|34=240|49=MMABAXUK|52=20181129-16:25:52.117|56=MA|10=037|8=FIX.4.4|9=55|35=0|34=241|49=MMABAXUK|52=20181129-16:27:22.276|56=MA|10=043|8=FIX.4.4|9=55|35=0|34=242|49=MMABAXUK|52=20181129-16:28:53.116|56=MA|10=042|8=FIX.4.4|9=55|35=0|34=243|49=MMABAXUK|52=20181129-16:30:23.242|56=MA|10=033|8=FIX.4.4|9=55|35=0|34=244|49=MMABAXUK|52=20181129-16:31:53.242|56=MA|10=038|8=FIX.4.4|9=55|35=0|34=245|49=MMABAXUK|52=20181129-16:33:23.243|56=MA|10=039|8=FIX.4.4|9=55|35=0|34=246|49=MMABAXUK|52=20181129-16:34:53.244|56=MA|10=045|8=FIX.4.4|9=55|35=0|34=247|49=MMABAXUK|52=20181129-16:36:23.319|56=MA|10=048|8=FIX.4.4|9=55|35=0|34=248|49=MMABAXUK|52=20181129-16:37:54.113|56=MA|10=046|8=FIX.4.4|9=55|35=0|34=249|49=MMABAXUK|52=20181129-16:39:24.242|56=MA|10=049|8=FIX.4.4|9=55|35=0|34=250|49=MMABAXUK|52=20181129-16:40:55.112|56=MA|10=033|8=FIX.4.4|9=55|35=0|34=251|49=MMABAXUK|52=20181129-16:42:25.324|56=MA|10=038|8=FIX.4.4|9=55|35=0|34=252|49=MMABAXUK|52=20181129-16:43:56.110|56=MA|10=037|8=FIX.4.4|9=55|35=0|34=253|49=MMABAXUK|52=20181129-16:45:26.110|56=MA|10=037|8=FIX.4.4|9=55|35=0|34=254|49=MMABAXUK|52=20181129-16:46:56.318|56=MA|10=052|8=FIX.4.4|9=55|35=0|34=255|49=MMABAXUK|52=20181129-16:48:27.109|56=MA|10=051|8=FIX.4.4|9=55|35=0|34=256|49=MMABAXUK|52=20181129-16:49:57.241|56=MA|10=053|8=FIX.4.4|9=55|35=0|34=257|49=MMABAXUK|52=20181129-16:51:27.323|56=MA|10=045|8=FIX.4.4|9=55|35=0|34=258|49=MMABAXUK|52=20181129-16:52:58.107|56=MA|10=051|8=FIX.4.4|9=55|35=0|34=259|49=MMABAXUK|52=20181129-16:54:28.309|56=MA|10=055|8=FIX.4.4|9=55|35=0|34=260|49=MMABAXUK|52=20181129-16:55:58.319|56=MA|10=052|8=FIX.4.4|9=55|35=0|34=261|49=MMABAXUK|52=20181129-16:57:29.105|56=MA|10=046|8=FIX.4.4|9=55|35=0|34=262|49=MMABAXUK|52=20181129-16:58:59.105|56=MA|10=051|8=FIX.4.4|9=55|35=0|34=263|49=MMABAXUK|52=20181129-17:00:29.105|56=MA|10=037|8=FIX.4.4|9=55|35=0|34=264|49=MMABAXUK|52=20181129-17:02:00.103|56=MA|10=027|8=FIX.4.4|9=55|35=0|34=265|49=MMABAXUK|52=20181129-17:03:30.105|56=MA|10=034|8=FIX.4.4|9=55|35=0|34=266|49=MMABAXUK|52=20181129-17:05:01.103|56=MA|10=033|8=FIX.4.4|9=55|35=0|34=267|49=MMABAXUK|52=20181129-17:06:32.103|56=MA|10=039|8=FIX.4.4|9=55|35=0|34=268|49=MMABAXUK|52=20181129-17:08:03.101|56=MA|10=038|8=FIX.4.4|9=55|35=0|34=269|49=MMABAXUK|52=20181129-17:09:33.101|56=MA|10=043|8=FIX.4.4|9=55|35=0|34=270|49=MMABAXUK|52=20181129-17:11:04.101|56=MA|10=026|8=FIX.4.4|9=55|35=0|34=271|49=MMABAXUK|52=20181129-17:12:34.317|56=MA|10=040|8=FIX.4.4|9=55|35=0|34=272|49=MMABAXUK|52=20181129-17:14:04.317|56=MA|10=040|8=FIX.4.4|9=55|35=0|34=273|49=MMABAXUK|52=20181129-17:15:35.099|56=MA|10=053|8=FIX.4.4|9=55|35=0|34=274|49=MMABAXUK|52=20181129-17:17:05.099|56=MA|10=053|8=FIX.4.4|9=55|35=0|34=275|49=MMABAXUK|52=20181129-17:18:35.100|56=MA|10=041|8=FIX.4.4|9=55|35=0|34=276|49=MMABAXUK|52=20181129-17:20:05.319|56=MA|10=044|8=FIX.4.4|9=55|35=0|34=277|49=MMABAXUK|52=20181129-17:21:36.099|56=MA|10=055|8=FIX.4.4|9=55|35=0|34=278|49=MMABAXUK|52=20181129-17:23:06.240|56=MA|10=043|8=FIX.4.4|9=55|35=0|34=279|49=MMABAXUK|52=20181129-17:24:36.271|56=MA|10=052|8=FIX.4.4|9=55|35=0|34=280|49=MMABAXUK|52=20181129-17:26:07.097|56=MA|10=050|8=FIX.4.4|9=55|35=0|34=281|49=MMABAXUK|52=20181129-17:27:37.239|56=MA|10=053|8=FIX.4.4|9=55|35=0|34=282|49=MMABAXUK|52=20181129-17:29:07.320|56=MA|10=044|8=FIX.4.4|9=55|35=0|34=283|49=MMABAXUK|52=20181129-17:30:37.320|56=MA|10=040|8=FIX.4.4|9=55|35=0|34=284|49=MMABAXUK|52=20181129-17:32:07.330|56=MA|10=041|8=FIX.4.4|9=55|35=0|34=285|49=MMABAXUK|52=20181129-17:33:38.094|56=MA|10=054|8=FIX.4.4|9=55|35=0|34=286|49=MMABAXUK|52=20181129-17:35:08.095|56=MA|10=055|8=FIX.4.4|9=55|35=0|34=287|49=MMABAXUK|52=20181129-17:36:38.099|56=MA|10=064|8=FIX.4.4|9=55|35=0|34=288|49=MMABAXUK|52=20181129-17:38:08.102|56=MA|10=049|8=FIX.4.4|9=55|35=0|34=289|49=MMABAXUK|52=20181129-17:39:38.104|56=MA|10=056|8=FIX.4.4|9=55|35=0|34=290|49=MMABAXUK|52=20181129-17:41:08.105|56=MA|10=039|8=FIX.4.4|9=55|35=0|34=291|49=MMABAXUK|52=20181129-17:42:38.105|56=MA|10=044|8=FIX.4.4|9=55|35=0|34=292|49=MMABAXUK|52=20181129-17:44:08.105|56=MA|10=044|8=FIX.4.4|9=55|35=0|34=293|49=MMABAXUK|52=20181129-17:45:38.105|56=MA|10=049|8=FIX.4.4|9=55|35=0|34=294|49=MMABAXUK|52=20181129-17:47:09.104|56=MA|10=049|8=FIX.4.4|9=55|35=0|34=295|49=MMABAXUK|52=20181129-17:48:40.104|56=MA|10=046|8=FIX.4.4|9=55|35=0|34=296|49=MMABAXUK|52=20181129-17:50:10.104|56=MA|10=037|8=FIX.4.4|9=55|35=0|34=297|49=MMABAXUK|52=20181129-17:51:41.103|56=MA|10=042|8=FIX.4.4|9=55|35=0|34=298|49=MMABAXUK|52=20181129-17:53:12.103|56=MA|10=043|8=FIX.4.4|9=55|35=0|34=299|49=MMABAXUK|52=20181129-17:54:43.101|56=MA|10=047|8=FIX.4.4|9=55|35=0|34=300|49=MMABAXUK|52=20181129-17:56:13.101|56=MA|10=029|8=FIX.4.4|9=55|35=0|34=301|49=MMABAXUK|52=20181129-17:57:43.101|56=MA|10=034|8=FIX.4.4|9=55|35=0|34=302|49=MMABAXUK|52=20181129-17:59:14.099|56=MA|10=051|8=FIX.4.4|9=55|35=0|34=303|49=MMABAXUK|52=20181129-18:00:44.099|56=MA|10=042|8=FIX.4.4|9=55|35=0|34=304|49=MMABAXUK|52=20181129-18:02:14.100|56=MA|10=025|8=FIX.4.4|9=55|35=0|34=305|49=MMABAXUK|52=20181129-18:03:44.100|56=MA|10=030|8=FIX.4.4|9=55|35=0|34=306|49=MMABAXUK|52=20181129-18:05:14.100|56=MA|10=030|8=FIX.4.4|9=55|35=0|34=307|49=MMABAXUK|52=20181129-18:06:45.099|56=MA|10=053|8=FIX.4.4|9=55|35=0|34=308|49=MMABAXUK|52=20181129-18:08:15.099|56=MA|10=053|8=FIX.4.4|9=55|35=0|34=309|49=MMABAXUK|52=20181129-18:09:46.098|56=MA|10=058|8=FIX.4.4|9=55|35=0|34=310|49=MMABAXUK|52=20181129-18:11:16.098|56=MA|10=040|8=FIX.4.4|9=55|35=0|34=311|49=MMABAXUK|52=20181129-18:12:47.097|56=MA|10=045|8=FIX.4.4|9=55|35=0|34=312|49=MMABAXUK|52=20181129-18:14:18.096|56=MA|10=045|8=FIX.4.4|9=55|35=0|34=313|49=MMABAXUK|52=20181129-18:15:49.095|56=MA|10=050|8=FIX.4.4|9=55|35=0|34=314|49=MMABAXUK|52=20181129-18:17:19.096|56=MA|10=051|8=FIX.4.4|9=55|35=0|34=315|49=MMABAXUK|52=20181129-18:18:50.095|56=MA|10=047|8=FIX.4.4|9=55|35=0|34=316|49=MMABAXUK|52=20181129-18:20:21.094|56=MA|10=038|8=FIX.4.4|9=55|35=0|34=317|49=MMABAXUK|52=20181129-18:21:51.094|56=MA|10=043|8=FIX.4.4|9=55|35=0|34=318|49=MMABAXUK|52=20181129-18:23:21.095|56=MA|10=044|8=FIX.4.4|9=55|35=0|34=319|49=MMABAXUK|52=20181129-18:24:52.093|56=MA|10=048|8=FIX.4.4|9=55|35=0|34=320|49=MMABAXUK|52=20181129-18:26:23.091|56=MA|10=038|8=FIX.4.4|9=55|35=0|34=321|49=MMABAXUK|52=20181129-18:27:53.091|56=MA|10=043|8=FIX.4.4|9=55|35=0|34=322|49=MMABAXUK|52=20181129-18:29:23.091|56=MA|10=043|8=FIX.4.4|9=55|35=0|34=323|49=MMABAXUK|52=20181129-18:30:53.091|56=MA|10=039|8=FIX.4.4|9=55|35=0|34=324|49=MMABAXUK|52=20181129-18:32:23.091|56=MA|10=039|8=FIX.4.4|9=55|35=0|34=325|49=MMABAXUK|52=20181129-18:33:54.090|56=MA|10=044|8=FIX.4.4|9=55|35=0|34=326|49=MMABAXUK|52=20181129-18:35:25.089|56=MA|10=053|8=FIX.4.4|9=55|35=0|34=327|49=MMABAXUK|52=20181129-18:36:55.089|56=MA|10=058|8=FIX.4.4|9=55|35=0|34=328|49=MMABAXUK|52=20181129-18:38:26.089|56=MA|10=059|8=FIX.4.4|9=55|35=0|34=329|49=MMABAXUK|52=20181129-18:39:56.089|56=MA|10=064|8=FIX.4.4|9=55|35=0|34=330|49=MMABAXUK|52=20181129-18:41:27.088|56=MA|10=046|8=FIX.4.4|9=55|35=0|34=331|49=MMABAXUK|52=20181129-18:42:57.089|56=MA|10=052|8=FIX.4.4|9=55|35=0|34=332|49=MMABAXUK|52=20181129-18:44:28.087|56=MA|10=051|8=FIX.4.4|9=55|35=0|34=333|49=MMABAXUK|52=20181129-18:45:59.086|56=MA|10=056|8=FIX.4.4|9=55|35=0|34=334|49=MMABAXUK|52=20181129-18:47:29.087|56=MA|10=057|8=FIX.4.4|9=55|35=0|34=335|49=MMABAXUK|52=20181129-18:49:00.085|56=MA|10=047|8=FIX.4.4|9=55|35=0|34=336|49=MMABAXUK|52=20181129-18:50:30.085|56=MA|10=043|8=FIX.4.4|9=55|35=0|34=337|49=MMABAXUK|52=20181129-18:52:01.084|56=MA|10=043|8=FIX.4.4|9=55|35=0|34=338|49=MMABAXUK|52=20181129-18:53:31.085|56=MA|10=049|8=FIX.4.4|9=55|35=0|34=339|49=MMABAXUK|52=20181129-18:55:02.084|56=MA|10=049|8=FIX.4.4|9=55|35=0|34=340|49=MMABAXUK|52=20181129-18:56:33.083|56=MA|10=045|8=FIX.4.4|9=55|35=0|34=341|49=MMABAXUK|52=20181129-18:58:04.083|56=MA|10=046|8=FIX.4.4|9=55|35=0|34=342|49=MMABAXUK|52=20181129-18:59:34.083|56=MA|10=051|8=FIX.4.4|9=55|35=0|34=343|49=MMABAXUK|52=20181129-19:01:05.081|56=MA|10=036|8=FIX.4.4|9=55|35=0|34=344|49=MMABAXUK|52=20181129-19:02:36.080|56=MA|10=041|8=FIX.4.4|9=55|35=0|34=345|49=MMABAXUK|52=20181129-19:04:07.079|56=MA|10=050|8=FIX.4.4|9=55|35=0|34=346|49=MMABAXUK|52=20181129-19:05:37.080|56=MA|10=047|8=FIX.4.4|9=55|35=0|34=347|49=MMABAXUK|52=20181129-19:07:08.079|56=MA|10=056|8=FIX.4.4|9=55|35=0|34=348|49=MMABAXUK|52=20181129-19:08:39.078|56=MA|10=061|8=FIX.4.4|9=55|35=0|34=349|49=MMABAXUK|52=20181129-19:10:10.077|56=MA|10=043|8=FIX.4.4|9=55|35=0|34=350|49=MMABAXUK|52=20181129-19:11:40.077|56=MA|10=039|8=FIX.4.4|9=55|35=0|34=351|49=MMABAXUK|52=20181129-19:13:10.078|56=MA|10=040|8=FIX.4.4|9=55|35=0|34=352|49=MMABAXUK|52=20181129-19:14:41.076|56=MA|10=044|8=FIX.4.4|9=55|35=0|34=353|49=MMABAXUK|52=20181129-19:16:12.076|56=MA|10=045|8=FIX.4.4|9=55|35=0|34=354|49=MMABAXUK|52=20181129-19:17:42.077|56=MA|10=051|8=FIX.4.4|9=55|35=0|34=355|49=MMABAXUK|52=20181129-19:19:13.076|56=MA|10=051|8=FIX.4.4|9=55|35=0|34=356|49=MMABAXUK|52=20181129-19:20:43.076|56=MA|10=047|8=FIX.4.4|9=55|35=0|34=357|49=MMABAXUK|52=20181129-19:22:13.077|56=MA|10=048|8=FIX.4.4|9=55|35=0|34=358|49=MMABAXUK|52=20181129-19:23:43.077|56=MA|10=053|8=FIX.4.4|9=55|35=0|34=359|49=MMABAXUK|52=20181129-19:25:13.077|56=MA|10=053|8=FIX.4.4|9=55|35=0|34=360|49=MMABAXUK|52=20181129-19:26:43.078|56=MA|10=050|8=FIX.4.4|9=55|35=0|34=361|49=MMABAXUK|52=20181129-19:28:13.078|56=MA|10=050|8=FIX.4.4|9=55|35=0|34=362|49=MMABAXUK|52=20181129-19:29:43.078|56=MA|10=055|8=FIX.4.4|9=55|35=0|34=363|49=MMABAXUK|52=20181129-19:31:14.078|56=MA|10=047|8=FIX.4.4|9=55|35=0|34=364|49=MMABAXUK|52=20181129-19:32:45.076|56=MA|10=051|8=FIX.4.4|9=55|35=0|34=365|49=MMABAXUK|52=20181129-19:34:15.076|56=MA|10=051|8=FIX.4.4|9=55|35=0|34=366|49=MMABAXUK|52=20181129-19:35:45.076|56=MA|10=056|8=FIX.4.4|9=55|35=0|34=367|49=MMABAXUK|52=20181129-19:37:16.076|56=MA|10=057|8=FIX.4.4|9=55|35=0|34=368|49=MMABAXUK|52=20181129-19:38:47.074|56=MA|10=061|8=FIX.4.4|9=55|35=0|34=369|49=MMABAXUK|52=20181129-19:40:17.074|56=MA|10=052|8=FIX.4.4|9=55|35=0|34=370|49=MMABAXUK|52=20181129-19:41:47.074|56=MA|10=048|8=FIX.4.4|9=55|35=0|34=371|49=MMABAXUK|52=20181129-19:43:18.072|56=MA|10=047|8=FIX.4.4|9=55|35=0|34=372|49=MMABAXUK|52=20181129-19:44:48.072|56=MA|10=052|8=FIX.4.4|9=55|35=0|34=373|49=MMABAXUK|52=20181129-19:46:19.071|56=MA|10=052|8=FIX.4.4|9=55|35=0|34=374|49=MMABAXUK|52=20181129-19:47:49.071|56=MA|10=057|8=FIX.4.4|9=55|35=0|34=375|49=MMABAXUK|52=20181129-19:49:20.070|56=MA|10=048|8=FIX.4.4|9=55|35=0|34=376|49=MMABAXUK|52=20181129-19:50:50.070|56=MA|10=044|8=FIX.4.4|9=55|35=0|34=377|49=MMABAXUK|52=20181129-19:52:20.070|56=MA|10=044|8=FIX.4.4|9=55|35=0|34=378|49=MMABAXUK|52=20181129-19:53:50.070|56=MA|10=049|8=FIX.4.4|9=55|35=0|34=379|49=MMABAXUK|52=20181129-19:55:21.068|56=MA|10=057|8=FIX.4.4|9=55|35=0|34=380|49=MMABAXUK|52=20181129-19:56:52.069|56=MA|10=055|8=FIX.4.4|9=55|35=0|34=381|49=MMABAXUK|52=20181129-19:58:23.067|56=MA|10=054|8=FIX.4.4|9=55|35=0|34=382|49=MMABAXUK|52=20181129-19:59:53.067|56=MA|10=059|8=FIX.4.4|9=55|35=0|34=383|49=MMABAXUK|52=20181129-20:01:23.067|56=MA|10=036|8=FIX.4.4|9=55|35=0|34=384|49=MMABAXUK|52=20181129-20:02:53.067|56=MA|10=041|8=FIX.4.4|9=55|35=0|34=385|49=MMABAXUK|52=20181129-20:04:24.066|56=MA|10=041|8=FIX.4.4|9=55|35=0|34=386|49=MMABAXUK|52=20181129-20:05:54.066|56=MA|10=046|8=FIX.4.4|9=55|35=0|34=387|49=MMABAXUK|52=20181129-20:07:24.066|56=MA|10=046|8=FIX.4.4|9=55|35=0|34=388|49=MMABAXUK|52=20181129-20:08:55.065|56=MA|10=051|8=FIX.4.4|9=55|35=0|34=389|49=MMABAXUK|52=20181129-20:10:25.065|56=MA|10=042|8=FIX.4.4|9=55|35=0|34=390|49=MMABAXUK|52=20181129-20:11:56.065|56=MA|10=039|8=FIX.4.4|9=55|35=0|34=391|49=MMABAXUK|52=20181129-20:13:27.063|56=MA|10=038|8=FIX.4.4|9=55|35=0|34=392|49=MMABAXUK|52=20181129-20:14:57.063|56=MA|10=043|8=FIX.4.4|9=55|35=0|34=393|49=MMABAXUK|52=20181129-20:16:28.062|56=MA|10=043|8=FIX.4.4|9=55|35=0|34=394|49=MMABAXUK|52=20181129-20:17:58.062|56=MA|10=048|8=FIX.4.4|9=55|35=0|34=395|49=MMABAXUK|52=20181129-20:19:29.061|56=MA|10=048|8=FIX.4.4|9=55|35=0|34=396|49=MMABAXUK|52=20181129-20:20:59.062|56=MA|10=045|8=FIX.4.4|9=55|35=0|34=397|49=MMABAXUK|52=20181129-20:22:30.060|56=MA|10=035|8=FIX.4.4|9=55|35=0|34=398|49=MMABAXUK|52=20181129-20:24:00.060|56=MA|10=035|8=FIX.4.4|9=55|35=0|34=399|49=MMABAXUK|52=20181129-20:25:31.059|56=MA|10=049|8=FIX.4.4|9=55|35=0|34=400|49=MMABAXUK|52=20181129-20:27:01.060|56=MA|10=023|8=FIX.4.4|9=55|35=0|34=401|49=MMABAXUK|52=20181129-20:28:32.058|56=MA|10=036|8=FIX.4.4|9=55|35=0|34=402|49=MMABAXUK|52=20181129-20:30:02.058|56=MA|10=027|8=FIX.4.4|9=55|35=0|34=403|49=MMABAXUK|52=20181129-20:31:33.058|56=MA|10=033|8=FIX.4.4|9=55|35=0|34=404|49=MMABAXUK|52=20181129-20:33:03.058|56=MA|10=033|8=FIX.4.4|9=55|35=0|34=405|49=MMABAXUK|52=20181129-20:34:34.057|56=MA|10=038|8=FIX.4.4|9=55|35=0|34=406|49=MMABAXUK|52=20181129-20:36:05.055|56=MA|10=037|8=FIX.4.4|9=55|35=0|34=407|49=MMABAXUK|52=20181129-20:37:36.054|56=MA|10=042|8=FIX.4.4|9=55|35=0|34=408|49=MMABAXUK|52=20181129-20:39:06.054|56=MA|10=042|8=FIX.4.4|9=55|35=0|34=409|49=MMABAXUK|52=20181129-20:40:36.055|56=MA|10=039|8=FIX.4.4|9=55|35=0|34=410|49=MMABAXUK|52=20181129-20:42:07.055|56=MA|10=031|8=FIX.4.4|9=55|35=0|34=411|49=MMABAXUK|52=20181129-20:43:38.055|56=MA|10=037|8=FIX.4.4|9=55|35=0|34=412|49=MMABAXUK|52=20181129-20:45:09.054|56=MA|10=037|8=FIX.4.4|9=55|35=0|34=413|49=MMABAXUK|52=20181129-20:46:40.054|56=MA|10=034|8=FIX.4.4|9=55|35=0|34=414|49=MMABAXUK|52=20181129-20:48:11.052|56=MA|10=033|8=FIX.4.4|9=55|35=0|34=415|49=MMABAXUK|52=20181129-20:49:41.052|56=MA|10=038|8=FIX.4.4|9=55|35=0|34=416|49=MMABAXUK|52=20181129-20:51:12.052|56=MA|10=030|8=FIX.4.4|9=55|35=0|34=417|49=MMABAXUK|52=20181129-20:52:43.051|56=MA|10=035|8=FIX.4.4|9=55|35=0|34=418|49=MMABAXUK|52=20181129-20:54:14.051|56=MA|10=036|8=FIX.4.4|9=55|35=0|34=419|49=MMABAXUK|52=20181129-20:55:45.050|56=MA|10=041|8=FIX.4.4|9=55|35=0|34=420|49=MMABAXUK|52=20181129-20:57:16.049|56=MA|10=041|8=FIX.4.4|9=55|35=0|34=421|49=MMABAXUK|52=20181129-20:58:46.049|56=MA|10=046|8=FIX.4.4|9=55|35=0|34=422|49=MMABAXUK|52=20181129-21:00:16.049|56=MA|10=032|8=FIX.4.4|9=55|35=0|34=423|49=MMABAXUK|52=20181129-21:01:47.047|56=MA|10=036|8=FIX.4.4|9=55|35=0|34=424|49=MMABAXUK|52=20181129-21:03:18.047|56=MA|10=037|8=FIX.4.4|9=55|35=0|34=425|49=MMABAXUK|52=20181129-21:04:49.047|56=MA|10=043|8=FIX.4.4|9=55|35=0|34=426|49=MMABAXUK|52=20181129-21:06:20.046|56=MA|10=034|8=FIX.4.4|9=55|35=0|34=427|49=MMABAXUK|52=20181129-21:07:50.046|56=MA|10=039|8=FIX.4.4|9=55|35=0|34=428|49=MMABAXUK|52=20181129-21:09:20.046|56=MA|10=039|8=FIX.4.4|9=55|35=0|34=429|49=MMABAXUK|52=20181129-21:10:51.045|56=MA|10=035|8=FIX.4.4|9=55|35=0|34=430|49=MMABAXUK|52=20181129-21:12:22.044|56=MA|10=026|8=FIX.4.4|9=55|35=0|34=431|49=MMABAXUK|52=20181129-21:13:52.044|56=MA|10=031|8=FIX.4.4|9=55|35=0|34=432|49=MMABAXUK|52=20181129-21:15:23.042|56=MA|10=030|8=FIX.4.4|9=55|35=0|34=433|49=MMABAXUK|52=20181129-21:16:53.042|56=MA|10=035|8=FIX.4.4|9=55|35=0|34=434|49=MMABAXUK|52=20181129-21:18:24.042|56=MA|10=036|8=FIX.4.4|9=55|35=0|34=435|49=MMABAXUK|52=20181129-21:19:55.043|56=MA|10=043|8=FIX.4.4|9=55|35=0|34=436|49=MMABAXUK|52=20181129-21:21:26.041|56=MA|10=033|8=FIX.4.4|9=55|35=0|34=437|49=MMABAXUK|52=20181129-21:22:56.041|56=MA|10=038|8=FIX.4.4|9=55|35=0|34=438|49=MMABAXUK|52=20181129-21:24:26.041|56=MA|10=038|8=FIX.4.4|9=55|35=0|34=439|49=MMABAXUK|52=20181129-21:25:56.041|56=MA|10=043|8=FIX.4.4|9=55|35=0|34=440|49=MMABAXUK|52=20181129-21:27:26.041|56=MA|10=034|8=FIX.4.4|9=55|35=0|34=441|49=MMABAXUK|52=20181129-21:28:57.040|56=MA|10=039|8=FIX.4.4|9=55|35=0|34=442|49=MMABAXUK|52=20181129-21:30:28.039|56=MA|10=039|8=FIX.4.4|9=55|35=0|34=443|49=MMABAXUK|52=20181129-21:31:59.038|56=MA|10=044|8=FIX.4.4|9=55|35=0|34=444|49=MMABAXUK|52=20181129-21:33:29.038|56=MA|10=044|8=FIX.4.4|9=55|35=0|34=445|49=MMABAXUK|52=20181129-21:35:00.038|56=MA|10=036|8=FIX.4.4|9=55|35=0|34=446|49=MMABAXUK|52=20181129-21:36:30.038|56=MA|10=041|8=FIX.4.4|9=55|35=0|34=447|49=MMABAXUK|52=20181129-21:38:01.037|56=MA|10=041|8=FIX.4.4|9=55|35=0|34=448|49=MMABAXUK|52=20181129-21:39:32.036|56=MA|10=046|8=FIX.4.4|9=55|35=0|34=449|49=MMABAXUK|52=20181129-21:41:03.034|56=MA|10=036|8=FIX.4.4|9=55|35=0|34=450|49=MMABAXUK|52=20181129-21:42:33.034|56=MA|10=032|8=FIX.4.4|9=55|35=0|34=451|49=MMABAXUK|52=20181129-21:44:03.034|56=MA|10=032|8=FIX.4.4|9=55|35=0|34=452|49=MMABAXUK|52=20181129-21:45:33.034|56=MA|10=037|8=FIX.4.4|9=55|35=0|34=453|49=MMABAXUK|52=20181129-21:47:04.033|56=MA|10=037|8=FIX.4.4|9=55|35=0|34=454|49=MMABAXUK|52=20181129-21:48:35.033|56=MA|10=043|8=FIX.4.4|9=55|35=0|34=455|49=MMABAXUK|52=20181129-21:50:06.033|56=MA|10=035|8=FIX.4.4|9=55|35=0|34=456|49=MMABAXUK|52=20181129-21:51:37.031|56=MA|10=039|8=FIX.4.4|9=55|35=0|34=457|49=MMABAXUK|52=20181129-21:53:08.032|56=MA|10=041|8=FIX.4.4|9=55|35=0|34=458|49=MMABAXUK|52=20181129-21:54:39.030|56=MA|10=045|8=FIX.4.4|9=55|35=0|34=459|49=MMABAXUK|52=20181129-21:56:10.030|56=MA|10=037|8=FIX.4.4|9=55|35=0|34=460|49=MMABAXUK|52=20181129-21:57:41.029|56=MA|10=042|8=FIX.4.4|9=55|35=0|34=461|49=MMABAXUK|52=20181129-21:59:12.028|56=MA|10=042|8=FIX.4.4|9=55|35=0|34=462|49=MMABAXUK|52=20181129-22:00:42.028|56=MA|10=033|8=FIX.4.4|9=55|35=0|34=463|49=MMABAXUK|52=20181129-22:02:12.028|56=MA|10=033|8=FIX.4.4|9=55|35=0|34=464|49=MMABAXUK|52=20181129-22:03:42.029|56=MA|10=039|8=FIX.4.4|9=55|35=0|34=465|49=MMABAXUK|52=20181129-22:05:13.028|56=MA|10=039|8=FIX.4.4|9=55|35=0|34=466|49=MMABAXUK|52=20181129-22:06:44.028|56=MA|10=045|8=FIX.4.4|9=55|35=0|34=467|49=MMABAXUK|52=20181129-22:08:15.026|56=MA|10=044|8=FIX.4.4|9=55|35=0|34=468|49=MMABAXUK|52=20181129-22:09:45.026|56=MA|10=049|8=FIX.4.4|9=55|35=0|34=469|49=MMABAXUK|52=20181129-22:11:15.027|56=MA|10=041|8=FIX.4.4|9=55|35=0|34=470|49=MMABAXUK|52=20181129-22:12:46.025|56=MA|10=036|8=FIX.4.4|9=55|35=0|34=471|49=MMABAXUK|52=20181129-22:14:17.025|56=MA|10=037|8=FIX.4.4|9=55|35=0|34=472|49=MMABAXUK|52=20181129-22:15:48.024|56=MA|10=042|8=FIX.4.4|9=55|35=0|34=473|49=MMABAXUK|52=20181129-22:17:18.024|56=MA|10=042|8=FIX.4.4|9=55|35=0|34=474|49=MMABAXUK|52=20181129-22:18:49.023|56=MA|10=047|8=FIX.4.4|9=55|35=0|34=475|49=MMABAXUK|52=20181129-22:20:19.023|56=MA|10=038|8=FIX.4.4|9=55|35=0|34=476|49=MMABAXUK|52=20181129-22:21:49.023|56=MA|10=043|8=FIX.4.4|9=55|35=0|34=477|49=MMABAXUK|52=20181129-22:23:20.022|56=MA|10=034|8=FIX.4.4|9=55|35=0|34=478|49=MMABAXUK|52=20181129-22:24:51.022|56=MA|10=040|8=FIX.4.4|9=55|35=0|34=479|49=MMABAXUK|52=20181129-22:26:22.021|56=MA|10=040|8=FIX.4.4|9=55|35=0|34=480|49=MMABAXUK|52=20181129-22:27:53.020|56=MA|10=036|8=FIX.4.4|9=55|35=0|34=481|49=MMABAXUK|52=20181129-22:29:24.019|56=MA|10=045|8=FIX.4.4|9=55|35=0|34=482|49=MMABAXUK|52=20181129-22:30:54.019|56=MA|10=041|8=FIX.4.4|9=55|35=0|34=483|49=MMABAXUK|52=20181129-22:32:25.019|56=MA|10=042|8=FIX.4.4|9=55|35=0|34=484|49=MMABAXUK|52=20181129-22:33:56.018|56=MA|10=047|8=FIX.4.4|9=55|35=0|34=485|49=MMABAXUK|52=20181129-22:35:27.017|56=MA|10=047|8=FIX.4.4|9=55|35=0|34=486|49=MMABAXUK|52=20181129-22:36:58.017|56=MA|10=053|8=FIX.4.4|9=55|35=0|34=487|49=MMABAXUK|52=20181129-22:38:29.015|56=MA|10=052|8=FIX.4.4|9=55|35=0|34=488|49=MMABAXUK|52=20181129-22:39:59.017|56=MA|10=059|8=FIX.4.4|9=55|35=0|34=489|49=MMABAXUK|52=20181129-22:41:30.016|56=MA|10=041|8=FIX.4.4|9=55|35=0|34=490|49=MMABAXUK|52=20181129-22:43:00.016|56=MA|10=032|8=FIX.4.4|9=55|35=0|34=491|49=MMABAXUK|52=20181129-22:44:30.016|56=MA|10=037|8=FIX.4.4|9=55|35=0|34=492|49=MMABAXUK|52=20181129-22:46:01.015|56=MA|10=037|8=FIX.4.4|9=55|35=0|34=493|49=MMABAXUK|52=20181129-22:47:31.015|56=MA|10=042|8=FIX.4.4|9=55|35=0|34=494|49=MMABAXUK|52=20181129-22:49:02.014|56=MA|10=042|8=FIX.4.4|9=55|35=0|34=495|49=MMABAXUK|52=20181129-22:50:33.013|56=MA|10=038|8=FIX.4.4|9=55|35=0|34=496|49=MMABAXUK|52=20181129-22:52:04.013|56=MA|10=039|8=FIX.4.4|9=55|35=0|34=497|49=MMABAXUK|52=20181129-22:53:35.013|56=MA|10=045|8=FIX.4.4|9=55|35=0|34=498|49=MMABAXUK|52=20181129-22:55:06.011|56=MA|10=044|8=FIX.4.4|9=55|35=0|34=499|49=MMABAXUK|52=20181129-22:56:36.011|56=MA|10=049|8=FIX.4.4|9=55|35=0|34=500|49=MMABAXUK|52=20181129-22:58:06.011|56=MA|10=031|8=FIX.4.4|9=55|35=0|34=501|49=MMABAXUK|52=20181129-22:59:37.010|56=MA|10=036|8=FIX.4.4|9=55|35=0|34=502|49=MMABAXUK|52=20181129-23:01:07.013|56=MA|10=025|8=FIX.4.4|9=55|35=0|34=503|49=MMABAXUK|52=20181129-23:02:37.017|56=MA|10=034|8=FIX.4.4|9=55|35=0|34=504|49=MMABAXUK|52=20181129-23:04:08.008|56=MA|10=035|8=FIX.4.4|9=55|35=5|34=505|49=MMABAXUK|52=20181129-23:05:01.478|56=MA|10=046|8=FIX.4.4|9=84|35=A|34=506|49=MMABAXUK|52=20181130-08:52:43.791|56=MA|98=0|108=90|95=8|96=3.0.0rc4|10=230|8=FIX.4.4|9=106|35=5|34=507|49=MMABAXUK|52=20181130-08:52:44.385|56=MA|58=MsgSeqNum too low, expecting 532 but received 1|10=093|8=FIX.4.4|9=84|35=A|34=508|49=MMABAXUK|52=20181130-08:52:48.802|56=MA|98=0|108=90|95=8|96=3.0.0rc4|10=230|8=FIX.4.4|9=106|35=5|34=509|49=MMABAXUK|52=20181130-08:52:49.367|56=MA|58=MsgSeqNum too low, expecting 532 but received 3|10=102|8=FIX.4.4|9=82|35=A|34=1|49=MMABAXUK|52=20181130-08:52:53.788|56=MA|98=0|108=90|95=8|96=3.0.0rc4|10=129|8=FIX.4.4|9=53|35=5|34=2|49=MMABAXUK|52=20181130-08:52:53.867|56=MA|10=202|8=FIX.4.4|9=82|35=A|34=3|49=MMABAXUK|52=20181130-08:52:58.792|56=MA|98=0|108=90|95=8|96=3.0.0rc4|10=131|8=FIX.4.4|9=62|35=2|34=4|49=MMABAXUK|52=20181130-08:52:59.359|56=MA|7=2|16=0|10=071|8=FIX.4.4|9=53|35=0|34=5|49=MMABAXUK|52=20181130-08:54:29.594|56=MA|10=202|8=FIX.4.4|9=53|35=0|34=6|49=MMABAXUK|52=20181130-08:55:59.791|56=MA|10=206|8=FIX.4.4|9=53|35=0|34=7|49=MMABAXUK|52=20181130-08:57:30.549|56=MA|10=199|8=FIX.4.4|9=53|35=0|34=8|49=MMABAXUK|52=20181130-08:59:00.793|56=MA|10=200|8=FIX.4.4|9=53|35=0|34=9|49=MMABAXUK|52=20181130-09:00:31.599|56=MA|10=196|8=FIX.4.4|9=54|35=0|34=10|49=MMABAXUK|52=20181130-09:02:01.785|56=MA|10=233|8=FIX.4.4|9=54|35=0|34=11|49=MMABAXUK|52=20181130-09:03:31.786|56=MA|10=239|8=FIX.4.4|9=54|35=0|34=12|49=MMABAXUK|52=20181130-09:05:02.600|56=MA|10=225|8=FIX.4.4|9=54|35=0|34=13|49=MMABAXUK|52=20181130-09:06:32.783|56=MA|10=242|8=FIX.4.4|9=54|35=0|34=14|49=MMABAXUK|52=20181130-09:08:02.785|56=MA|10=244|8=FIX.4.4|9=54|35=0|34=15|49=MMABAXUK|52=20181130-09:09:32.786|56=MA|10=250|8=FIX.4.4|9=54|35=0|34=16|49=MMABAXUK|52=20181130-09:11:03.783|56=MA|10=239|8=FIX.4.4|9=54|35=0|34=17|49=MMABAXUK|52=20181130-09:12:33.783|56=MA|10=244|8=FIX.4.4|9=54|35=0|34=18|49=MMABAXUK|52=20181130-09:14:03.795|56=MA|10=247|8=FIX.4.4|9=54|35=0|34=19|49=MMABAXUK|52=20181130-09:15:34.793|56=MA|10=251|8=FIX.4.4|9=54|35=0|34=20|49=MMABAXUK|52=20181130-09:17:05.790|56=MA|10=240|8=FIX.4.4|9=470|35=8|34=21|49=MMABAXUK|52=20181130-09:18:30.235|56=MA|37=533051|11=@LOCALMKTDATE[@MMAD:increment]|453=2|448=MMABAXUK|447=C|452=11|448=ABAX Bank|447=D|452=13|17=533051-jag8j|19=533051-34n0f|150=4|39=4|64=20181203|55=[N/A]|48=XS0042821321|22=4|460=3|167=EUCORP|541=20190331|225=19930325|223=0.10375|106=LANDMARK MART|107=UKAST  10.375  3/31/19|873=19930325|54=2|38=1000000|15=GBP|126=20181129-15:27:35|151=0|14=0|6=0|75=20181129|60=20181129-23:00:00|120=GBP|20117=4928838|10=123|8=FIX.4.4|9=454|35=8|34=22|49=MMABAXUK|52=20181130-09:19:28.449|56=MA|37=533051|11=MMAD-301118-01|453=2|448=MMABAXUK|447=C|452=11|448=ABAX Bank|447=D|452=13|17=533051-jag8j|19=533051-34n0f|150=4|39=4|64=20181203|55=[N/A]|48=XS0042821321|22=4|460=3|167=EUCORP|541=20190331|225=19930325|223=0.10375|106=LANDMARK MART|107=UKAST  10.375  3/31/19|873=19930325|54=2|38=1000000|15=GBP|126=20181129-15:27:35|151=0|14=0|6=0|75=20181129|60=20181129-23:00:00|120=GBP|20117=4928838|10=202|8=FIX.4.4|9=235|35=D|34=23|49=MMABAXUK|52=20181130-09:20:31.476|56=MA|11=MMAD181130-A01|21=1|453=1|448=MMABAXUK|447=C|452=11|55=XS1334778021|48=XS1334778021|22=4|54=2|60=20181129-15:01:19.113|38=100000|40=2|44=90|15=USD|59=6|126=20181207-21:59:00.000|10=165|8=FIX.4.4|9=54|35=0|34=24|49=MMABAXUK|52=20181130-09:22:01.785|56=MA|10=240|8=FIX.4.4|9=54|35=0|34=25|49=MMABAXUK|52=20181130-09:23:31.787|56=MA|10=247|8=FIX.4.4|9=54|35=0|34=26|49=MMABAXUK|52=20181130-09:25:01.793|56=MA|10=244|8=FIX.4.4|9=54|35=0|34=27|49=MMABAXUK|52=20181130-09:26:32.780|56=MA|10=246|8=FIX.4.4|9=54|35=0|34=28|49=MMABAXUK|52=20181130-09:28:02.782|56=MA|10=248|8=FIX.4.4|9=54|35=0|34=29|49=MMABAXUK|52=20181130-09:29:32.782|56=MA|10=253|8=FIX.4.4|9=54|35=0|34=30|49=MMABAXUK|52=20181130-09:31:02.782|56=MA|10=235|8=FIX.4.4|9=54|35=0|34=31|49=MMABAXUK|52=20181130-09:32:33.776|56=MA|10=244|8=FIX.4.4|9=54|35=0|34=32|49=MMABAXUK|52=20181130-09:34:04.775|56=MA|10=244|8=FIX.4.4|9=54|35=0|34=33|49=MMABAXUK|52=20181130-09:35:34.775|56=MA|10=249|8=FIX.4.4|9=54|35=0|34=34|49=MMABAXUK|52=20181130-09:37:05.774|56=MA|10=249|8=FIX.4.4|9=54|35=0|34=35|49=MMABAXUK|52=20181130-09:38:36.774|56=MA|10=255|8=FIX.4.4|9=54|35=0|34=36|49=MMABAXUK|52=20181130-09:40:07.773|56=MA|10=246|8=FIX.4.4|9=54|35=0|34=37|49=MMABAXUK|52=20181130-09:41:37.773|56=MA|10=251|8=FIX.4.4|9=54|35=0|34=38|49=MMABAXUK|52=20181130-09:43:08.773|56=MA|10=252|8=FIX.4.4|9=54|35=0|34=39|49=MMABAXUK|52=20181130-09:44:38.786|56=MA|10=005|8=FIX.4.4|9=54|35=0|34=40|49=MMABAXUK|52=20181130-09:46:09.771|56=MA|10=247|8=FIX.4.4|9=54|35=0|34=41|49=MMABAXUK|52=20181130-09:47:40.780|56=MA|10=244|8=FIX.4.4|9=54|35=0|34=42|49=MMABAXUK|52=20181130-09:49:11.773|56=MA|10=247|8=FIX.4.4|9=54|35=0|34=43|49=MMABAXUK|52=20181130-09:50:41.774|56=MA|10=244|8=FIX.4.4|9=54|35=0|34=44|49=MMABAXUK|52=20181130-09:52:11.779|56=MA|10=249|8=FIX.4.4|9=54|35=0|34=45|49=MMABAXUK|52=20181130-09:53:42.776|56=MA|10=252|8=FIX.4.4|9=54|35=0|34=46|49=MMABAXUK|52=20181130-09:55:13.767|56=MA|10=253|8=FIX.4.4|9=54|35=0|34=47|49=MMABAXUK|52=20181130-09:56:43.772|56=MA|10=254|8=FIX.4.4|9=54|35=0|34=48|49=MMABAXUK|52=20181130-09:58:13.775|56=MA|10=001|8=FIX.4.4|9=54|35=0|34=49|49=MMABAXUK|52=20181130-09:59:44.774|56=MA|10=006|8=FIX.4.4|9=54|35=0|34=50|49=MMABAXUK|52=20181130-10:01:15.767|56=MA|10=233|8=FIX.4.4|9=235|35=D|34=51|49=MMABAXUK|52=20181130-10:02:16.874|56=MA|11=JBMM181129-F01|21=1|453=1|448=MMABAXUK|447=C|452=11|55=XS1334778021|48=XS1334778021|22=4|54=2|60=20181129-15:01:19.113|38=100000|40=2|44=90|15=USD|59=6|126=20181207-21:59:00.000|10=183|8=FIX.4.4|9=235|35=D|34=52|49=MMABAXUK|52=20181130-10:02:54.474|56=MA|11=JBMM181129-F01|21=1|453=1|448=MMABAXUK|447=C|452=11|55=XS0542534192|48=XS0542534192|22=4|54=2|60=20181129-15:01:19.113|38=100000|40=2|44=90|15=USD|59=6|126=20181207-21:59:00.000|10=180|8=FIX.4.4|9=235|35=D|34=53|49=MMABAXUK|52=20181130-10:03:12.946|56=MA|11=JBMM181129-F01|21=1|453=1|448=MMABAXUK|447=C|452=11|55=DE000HLB4D56|48=DE000HLB4D56|22=4|54=2|60=20181129-15:01:19.113|38=100000|40=2|44=90|15=USD|59=6|126=20181207-21:59:00.000|10=252|8=FIX.4.4|9=54|35=0|34=54|49=MMABAXUK|52=20181130-10:04:43.595|56=MA|10=240|8=FIX.4.4|9=54|35=0|34=55|49=MMABAXUK|52=20181130-10:06:13.765|56=MA|10=239|8=FIX.4.4|9=54|35=0|34=56|49=MMABAXUK|52=20181130-10:07:44.596|56=MA|10=247|8=FIX.4.4|9=54|35=0|34=57|49=MMABAXUK|52=20181130-10:09:14.764|56=MA|10=244|8=FIX.4.4|9=54|35=0|34=58|49=MMABAXUK|52=20181130-10:10:45.514|56=MA|10=234|8=FIX.4.4|9=54|35=0|34=59|49=MMABAXUK|52=20181130-10:12:15.597|56=MA|10=245|8=FIX.4.4|9=54|35=0|34=60|49=MMABAXUK|52=20181130-10:13:45.608|56=MA|10=234|8=FIX.4.4|9=54|35=0|34=61|49=MMABAXUK|52=20181130-10:15:15.762|56=MA|10=235|8=FIX.4.4|9=54|35=0|34=62|49=MMABAXUK|52=20181130-10:16:45.762|56=MA|10=240|8=FIX.4.4|9=54|35=0|34=63|49=MMABAXUK|52=20181130-10:18:16.597|56=MA|10=247|8=FIX.4.4|9=54|35=0|34=64|49=MMABAXUK|52=20181130-10:19:46.760|56=MA|10=244|8=FIX.4.4|9=54|35=0|34=65|49=MMABAXUK|52=20181130-10:21:16.760|56=MA|10=235|8=FIX.4.4|9=54|35=0|34=66|49=MMABAXUK|52=20181130-10:22:46.760|56=MA|10=240|8=FIX.4.4|9=54|35=0|34=67|49=MMABAXUK|52=20181130-10:24:17.759|56=MA|10=249|8=FIX.4.4|9=54|35=0|34=68|49=MMABAXUK|52=20181130-10:25:48.758|56=MA|10=254|8=FIX.4.4|9=54|35=0|34=69|49=MMABAXUK|52=20181130-10:27:19.757|56=MA|10=254|8=FIX.4.4|9=54|35=0|34=70|49=MMABAXUK|52=20181130-10:28:49.757|56=MA|10=250|8=FIX.4.4|9=54|35=0|34=71|49=MMABAXUK|52=20181130-10:30:20.756|56=MA|10=232|8=FIX.4.4|9=54|35=0|34=72|49=MMABAXUK|52=20181130-10:31:51.756|56=MA|10=238|8=FIX.4.4|9=54|35=0|34=73|49=MMABAXUK|52=20181130-10:33:22.756|56=MA|10=239|8=FIX.4.4|9=54|35=0|34=74|49=MMABAXUK|52=20181130-10:34:53.755|56=MA|10=244|8=FIX.4.4|9=54|35=0|34=75|49=MMABAXUK|52=20181130-10:36:23.755|56=MA|10=244|8=FIX.4.4|9=54|35=0|34=76|49=MMABAXUK|52=20181130-10:37:53.756|56=MA|10=250|8=FIX.4.4|9=54|35=0|34=77|49=MMABAXUK|52=20181130-10:39:24.755|56=MA|10=250|8=FIX.4.4|9=54|35=0|34=78|49=MMABAXUK|52=20181130-10:40:55.755|56=MA|10=247|8=FIX.4.4|9=54|35=0|34=79|49=MMABAXUK|52=20181130-10:42:25.755|56=MA|10=247|8=FIX.4.4|9=54|35=0|34=80|49=MMABAXUK|52=20181130-10:43:56.753|56=MA|10=242|8=FIX.4.4|9=235|35=D|34=81|49=MMABAXUK|52=20181130-10:45:17.962|56=MA|11=JBMM181130-F05|21=1|453=1|448=MMABAXUK|447=C|452=11|55=XS1336073744|48=XS1336073744|22=4|54=2|60=20181129-15:01:19.113|38=500000|40=2|44=90|15=USD|59=6|126=20181207-21:59:00.000|10=196|8=FIX.4.4|9=54|35=0|34=82|49=MMABAXUK|52=20181130-10:46:48.753|56=MA|10=248|8=FIX.4.4|9=235|35=D|34=83|49=MMABAXUK|52=20181130-10:46:57.697|56=MA|11=JBMM181130-F06|21=1|453=1|448=MMABAXUK|447=C|452=11|55=XS1336073744|48=XS1336073744|22=4|54=2|60=20181129-15:01:19.113|38=500000|40=2|44=90|15=USD|59=6|126=20181207-21:59:00.000|10=209|8=FIX.4.4|9=54|35=0|34=84|49=MMABAXUK|52=20181130-10:48:27.753|56=MA|10=249|8=FIX.4.4|9=54|35=0|34=85|49=MMABAXUK|52=20181130-10:49:58.751|56=MA|10=253|8=FIX.4.4|9=54|35=0|34=86|49=MMABAXUK|52=20181130-10:51:29.750|56=MA|10=244|8=FIX.4.4|9=54|35=0|34=87|49=MMABAXUK|52=20181130-10:52:59.750|56=MA|10=249|8=FIX.4.4|9=54|35=0|34=88|49=MMABAXUK|52=20181130-10:54:30.749|56=MA|10=249|8=FIX.4.4|9=54|35=0|34=89|49=MMABAXUK|52=20181130-10:56:01.749|56=MA|10=250|8=FIX.4.4|9=54|35=0|34=90|49=MMABAXUK|52=20181130-10:57:32.748|56=MA|10=246|8=FIX.4.4|9=54|35=0|34=91|49=MMABAXUK|52=20181130-10:59:02.748|56=MA|10=246|8=FIX.4.4|9=54|35=0|34=92|49=MMABAXUK|52=20181130-11:00:33.748|56=MA|10=238|8=FIX.4.4|9=54|35=0|34=93|49=MMABAXUK|52=20181130-11:02:04.746|56=MA|10=237|8=FIX.4.4|9=54|35=0|34=94|49=MMABAXUK|52=20181130-11:03:34.746|56=MA|10=242|8=FIX.4.4|9=54|35=0|34=95|49=MMABAXUK|52=20181130-11:05:04.746|56=MA|10=242|8=FIX.4.4|9=54|35=0|34=96|49=MMABAXUK|52=20181130-11:06:35.745|56=MA|10=247|8=FIX.4.4|9=54|35=0|34=97|49=MMABAXUK|52=20181130-11:08:06.744|56=MA|10=247|8=FIX.4.4|9=54|35=0|34=98|49=MMABAXUK|52=20181130-11:09:37.744|56=MA|10=253|8=FIX.4.4|9=54|35=0|34=99|49=MMABAXUK|52=20181130-11:11:08.743|56=MA|10=244|8=FIX.4.4|9=55|35=0|34=100|49=MMABAXUK|52=20181130-11:12:39.743|56=MA|10=025|8=FIX.4.4|9=55|35=0|34=101|49=MMABAXUK|52=20181130-11:14:10.742|56=MA|10=016|8=FIX.4.4|9=55|35=0|34=102|49=MMABAXUK|52=20181130-11:15:40.742|56=MA|10=021|8=FIX.4.4|9=55|35=0|34=103|49=MMABAXUK|52=20181130-11:17:11.741|56=MA|10=021|8=FIX.4.4|9=55|35=0|34=104|49=MMABAXUK|52=20181130-11:18:41.742|56=MA|10=027|8=FIX.4.4|9=55|35=0|34=105|49=MMABAXUK|52=20181130-11:20:11.742|56=MA|10=018|8=FIX.4.4|9=55|35=0|34=106|49=MMABAXUK|52=20181130-11:21:42.741|56=MA|10=023|8=FIX.4.4|9=55|35=0|34=107|49=MMABAXUK|52=20181130-11:23:12.741|56=MA|10=023|8=FIX.4.4|9=55|35=0|34=108|49=MMABAXUK|52=20181130-11:24:43.740|56=MA|10=028|8=FIX.4.4|9=55|35=0|34=109|49=MMABAXUK|52=20181130-11:26:13.740|56=MA|10=028|8=FIX.4.4|9=55|35=0|34=110|49=MMABAXUK|52=20181130-11:27:43.740|56=MA|10=024|8=FIX.4.4|9=55|35=0|34=111|49=MMABAXUK|52=20181130-11:29:14.738|56=MA|10=032|8=FIX.4.4|9=55|35=0|34=112|49=MMABAXUK|52=20181130-11:30:44.738|56=MA|10=028|8=FIX.4.4|9=55|35=0|34=113|49=MMABAXUK|52=20181130-11:32:15.738|56=MA|10=029|8=FIX.4.4|9=55|35=0|34=114|49=MMABAXUK|52=20181130-11:33:46.737|56=MA|10=034|8=FIX.4.4|9=55|35=0|34=115|49=MMABAXUK|52=20181130-11:35:17.736|56=MA|10=034|8=FIX.4.4|9=55|35=0|34=116|49=MMABAXUK|52=20181130-11:36:47.736|56=MA|10=039|8=FIX.4.4|9=55|35=0|34=117|49=MMABAXUK|52=20181130-11:38:18.735|56=MA|10=039|8=FIX.4.4|9=55|35=0|34=118|49=MMABAXUK|52=20181130-11:39:49.734|56=MA|10=044|8=FIX.4.4|9=55|35=0|34=119|49=MMABAXUK|52=20181130-11:41:19.734|56=MA|10=035|8=FIX.4.4|9=55|35=0|34=120|49=MMABAXUK|52=20181130-11:42:49.734|56=MA|10=031|8=FIX.4.4|9=55|35=0|34=121|49=MMABAXUK|52=20181130-11:44:20.734|56=MA|10=023|8=FIX.4.4|9=55|35=0|34=122|49=MMABAXUK|52=20181130-11:45:51.732|56=MA|10=027|8=FIX.4.4|9=55|35=0|34=123|49=MMABAXUK|52=20181130-11:47:21.732|56=MA|10=027|8=FIX.4.4|9=55|35=0|34=124|49=MMABAXUK|52=20181130-11:48:52.730|56=MA|10=031|8=FIX.4.4|9=55|35=0|34=125|49=MMABAXUK|52=20181130-11:50:22.731|56=MA|10=023|8=FIX.4.4|9=55|35=0|34=126|49=MMABAXUK|52=20181130-11:51:53.728|56=MA|10=035|8=FIX.4.4|9=55|35=0|34=127|49=MMABAXUK|52=20181130-11:53:24.727|56=MA|10=035|8=FIX.4.4|9=55|35=0|34=128|49=MMABAXUK|52=20181130-11:54:55.727|56=MA|10=041|8=FIX.4.4|9=55|35=0|34=129|49=MMABAXUK|52=20181130-11:56:26.724|56=MA|10=039|8=FIX.4.4|9=55|35=0|34=130|49=MMABAXUK|52=20181130-11:57:56.724|56=MA|10=035|8=FIX.4.4|9=55|35=0|34=131|49=MMABAXUK|52=20181130-11:59:27.723|56=MA|10=035|8=FIX.4.4|9=55|35=0|34=132|49=MMABAXUK|52=20181130-12:00:58.721|56=MA|10=025|8=FIX.4.4|9=55|35=0|34=133|49=MMABAXUK|52=20181130-12:02:28.723|56=MA|10=027|8=FIX.4.4|9=55|35=0|34=134|49=MMABAXUK|52=20181130-12:03:59.719|56=MA|10=038|8=FIX.4.4|9=55|35=0|34=135|49=MMABAXUK|52=20181130-12:05:30.718|56=MA|10=029|8=FIX.4.4|9=55|35=0|34=136|49=MMABAXUK|52=20181130-12:07:01.717|56=MA|10=029|8=FIX.4.4|9=55|35=0|34=137|49=MMABAXUK|52=20181130-12:08:32.716|56=MA|10=034|8=FIX.4.4|9=55|35=0|34=138|49=MMABAXUK|52=20181130-12:10:03.714|56=MA|10=024|8=FIX.4.4|9=55|35=0|34=139|49=MMABAXUK|52=20181130-12:11:34.713|56=MA|10=029|8=FIX.4.4|9=55|35=0|34=140|49=MMABAXUK|52=20181130-12:13:05.712|56=MA|10=020|8=FIX.4.4|9=55|35=0|34=141|49=MMABAXUK|52=20181130-12:14:36.711|56=MA|10=025|8=FIX.4.4|9=55|35=0|34=142|49=MMABAXUK|52=20181130-12:16:07.711|56=MA|10=026|8=FIX.4.4|9=55|35=0|34=143|49=MMABAXUK|52=20181130-12:17:38.709|56=MA|10=039|8=FIX.4.4|9=55|35=0|34=144|49=MMABAXUK|52=20181130-12:19:09.709|56=MA|10=040|8=FIX.4.4|9=55|35=0|34=145|49=MMABAXUK|52=20181130-12:20:40.707|56=MA|10=026|8=FIX.4.4|9=55|35=0|34=146|49=MMABAXUK|52=20181130-12:22:11.705|56=MA|10=025|8=FIX.4.4|9=55|35=0|34=147|49=MMABAXUK|52=20181130-12:23:42.704|56=MA|10=030|8=FIX.4.4|9=55|35=0|34=148|49=MMABAXUK|52=20181130-12:25:13.703|56=MA|10=030|8=FIX.4.4|9=55|35=0|34=149|49=MMABAXUK|52=20181130-12:26:44.702|56=MA|10=035|8=FIX.4.4|9=55|35=0|34=150|49=MMABAXUK|52=20181130-12:28:15.701|56=MA|10=026|8=FIX.4.4|9=55|35=0|34=151|49=MMABAXUK|52=20181130-12:29:46.700|56=MA|10=031|8=FIX.4.4|9=55|35=0|34=152|49=MMABAXUK|52=20181130-12:31:17.699|56=MA|10=040|8=FIX.4.4|9=55|35=0|34=153|49=MMABAXUK|52=20181130-12:32:48.698|56=MA|10=045|8=FIX.4.4|9=55|35=0|34=154|49=MMABAXUK|52=20181130-12:34:19.698|56=MA|10=046|8=FIX.4.4|9=55|35=0|34=155|49=MMABAXUK|52=20181130-12:35:50.697|56=MA|10=042|8=FIX.4.4|9=55|35=0|34=156|49=MMABAXUK|52=20181130-12:37:20.697|56=MA|10=042|8=FIX.4.4|9=55|35=0|34=157|49=MMABAXUK|52=20181130-12:38:51.696|56=MA|10=047|8=FIX.4.4|9=55|35=0|34=158|49=MMABAXUK|52=20181130-12:40:21.696|56=MA|10=038|8=FIX.4.4|9=55|35=0|34=159|49=MMABAXUK|52=20181130-12:41:51.696|56=MA|10=043|8=FIX.4.4|9=55|35=0|34=160|49=MMABAXUK|52=20181130-12:43:22.695|56=MA|10=034|8=FIX.4.4|9=55|35=0|34=161|49=MMABAXUK|52=20181130-12:44:53.693|56=MA|10=038|8=FIX.4.4|9=55|35=0|34=162|49=MMABAXUK|52=20181130-12:46:23.694|56=MA|10=039|8=FIX.4.4|9=55|35=0|34=163|49=MMABAXUK|52=20181130-12:47:54.693|56=MA|10=044|8=FIX.4.4|9=55|35=0|34=164|49=MMABAXUK|52=20181130-12:49:25.693|56=MA|10=045|8=FIX.4.4|9=55|35=0|34=165|49=MMABAXUK|52=20181130-12:50:56.693|56=MA|10=042|8=FIX.4.4|9=55|35=0|34=166|49=MMABAXUK|52=20181130-12:52:27.694|56=MA|10=044|8=FIX.4.4|9=55|35=0|34=167|49=MMABAXUK|52=20181130-12:53:58.692|56=MA|10=048|8=FIX.4.4|9=55|35=0|34=168|49=MMABAXUK|52=20181130-12:55:29.691|56=MA|10=048|8=FIX.4.4|9=55|35=0|34=169|49=MMABAXUK|52=20181130-12:56:59.691|56=MA|10=053|8=FIX.4.4|9=55|35=0|34=170|49=MMABAXUK|52=20181130-12:58:30.691|56=MA|10=036|8=FIX.4.4|9=55|35=0|34=171|49=MMABAXUK|52=20181130-13:00:01.691|56=MA|10=023|8=FIX.4.4|9=55|35=0|34=172|49=MMABAXUK|52=20181130-13:01:32.689|56=MA|10=036|8=FIX.4.4|9=55|35=0|34=173|49=MMABAXUK|52=20181130-13:03:03.689|56=MA|10=037|8=FIX.4.4|9=55|35=0|34=174|49=MMABAXUK|52=20181130-13:04:34.688|56=MA|10=042|8=FIX.4.4|9=55|35=0|34=175|49=MMABAXUK|52=20181130-13:06:04.689|56=MA|10=043|8=FIX.4.4|9=55|35=0|34=176|49=MMABAXUK|52=20181130-13:07:35.688|56=MA|10=048|8=FIX.4.4|9=55|35=0|34=177|49=MMABAXUK|52=20181130-13:09:06.686|56=MA|10=047|8=FIX.4.4|9=55|35=0|34=178|49=MMABAXUK|52=20181130-13:10:36.686|56=MA|10=043|8=FIX.4.4|9=55|35=0|34=179|49=MMABAXUK|52=20181130-13:12:07.686|56=MA|10=044|8=FIX.4.4|9=55|35=0|34=180|49=MMABAXUK|52=20181130-13:13:38.685|56=MA|10=040|8=FIX.4.4|9=55|35=0|34=181|49=MMABAXUK|52=20181130-13:15:09.684|56=MA|10=040|8=FIX.4.4|9=55|35=0|34=182|49=MMABAXUK|52=20181130-13:16:39.684|56=MA|10=045|8=FIX.4.4|9=55|35=0|34=183|49=MMABAXUK|52=20181130-13:18:09.684|56=MA|10=045|8=FIX.4.4|9=55|35=0|34=184|49=MMABAXUK|52=20181130-13:19:40.682|56=MA|10=040|8=FIX.4.4|9=55|35=0|34=185|49=MMABAXUK|52=20181130-13:21:10.682|56=MA|10=031|8=FIX.4.4|9=55|35=0|34=186|49=MMABAXUK|52=20181130-13:22:41.681|56=MA|10=036|8=FIX.4.4|9=55|35=0|34=187|49=MMABAXUK|52=20181130-13:24:11.681|56=MA|10=036|8=FIX.4.4|9=55|35=0|34=188|49=MMABAXUK|52=20181130-13:25:41.681|56=MA|10=041|8=FIX.4.4|9=55|35=0|34=189|49=MMABAXUK|52=20181130-13:27:12.679|56=MA|10=049|8=FIX.4.4|9=55|35=0|34=190|49=MMABAXUK|52=20181130-13:28:42.679|56=MA|10=045|8=FIX.4.4|9=55|35=0|34=191|49=MMABAXUK|52=20181130-13:30:12.680|56=MA|10=028|8=FIX.4.4|9=55|35=0|34=192|49=MMABAXUK|52=20181130-13:31:43.678|56=MA|10=041|8=FIX.4.4|9=55|35=0|34=193|49=MMABAXUK|52=20181130-13:33:13.679|56=MA|10=042|8=FIX.4.4|9=55|35=0|34=194|49=MMABAXUK|52=20181130-13:34:43.680|56=MA|10=039|8=FIX.4.4|9=55|35=0|34=195|49=MMABAXUK|52=20181130-13:36:13.680|56=MA|10=039|8=FIX.4.4|9=55|35=0|34=196|49=MMABAXUK|52=20181130-13:37:44.680|56=MA|10=045|8=FIX.4.4|9=55|35=0|34=197|49=MMABAXUK|52=20181130-13:39:15.679|56=MA|10=054|8=FIX.4.4|9=55|35=0|34=198|49=MMABAXUK|52=20181130-13:40:46.678|56=MA|10=050|8=FIX.4.4|9=55|35=0|34=199|49=MMABAXUK|52=20181130-13:42:16.679|56=MA|10=051|8=FIX.4.4|9=55|35=0|34=200|49=MMABAXUK|52=20181130-13:43:47.678|56=MA|10=038|8=FIX.4.4|9=55|35=0|34=201|49=MMABAXUK|52=20181130-13:45:17.678|56=MA|10=038|8=FIX.4.4|9=55|35=0|34=202|49=MMABAXUK|52=20181130-13:46:47.679|56=MA|10=044|8=FIX.4.4|9=55|35=0|34=203|49=MMABAXUK|52=20181130-13:48:18.678|56=MA|10=044|8=FIX.4.4|9=55|35=0|34=204|49=MMABAXUK|52=20181130-13:49:49.677|56=MA|10=049|8=FIX.4.4|9=55|35=0|34=205|49=MMABAXUK|52=20181130-13:51:20.677|56=MA|10=032|8=FIX.4.4|9=55|35=0|34=206|49=MMABAXUK|52=20181130-13:52:51.676|56=MA|10=037|8=FIX.4.4|9=55|35=0|34=207|49=MMABAXUK|52=20181130-13:54:21.676|56=MA|10=037|8=FIX.4.4|9=55|35=0|34=208|49=MMABAXUK|52=20181130-13:55:52.674|56=MA|10=041|8=FIX.4.4|9=55|35=0|34=209|49=MMABAXUK|52=20181130-13:57:22.674|56=MA|10=041|8=FIX.4.4|9=55|35=0|34=210|49=MMABAXUK|52=20181130-13:58:52.675|56=MA|10=038|8=FIX.4.4|9=55|35=0|34=211|49=MMABAXUK|52=20181130-14:00:23.673|56=MA|10=023|8=FIX.4.4|9=55|35=0|34=212|49=MMABAXUK|52=20181130-14:01:54.672|56=MA|10=028|8=FIX.4.4|9=55|35=0|34=213|49=MMABAXUK|52=20181130-14:03:24.672|56=MA|10=028|8=FIX.4.4|9=55|35=0|34=214|49=MMABAXUK|52=20181130-14:04:55.672|56=MA|10=034|8=FIX.4.4|9=55|35=0|34=215|49=MMABAXUK|52=20181130-14:06:26.671|56=MA|10=034|8=FIX.4.4|9=55|35=0|34=216|49=MMABAXUK|52=20181130-14:07:57.671|56=MA|10=040|8=FIX.4.4|9=55|35=0|34=217|49=MMABAXUK|52=20181130-14:09:28.670|56=MA|10=040|8=FIX.4.4|9=55|35=0|34=218|49=MMABAXUK|52=20181130-14:10:59.669|56=MA|10=045|8=FIX.4.4|9=55|35=0|34=219|49=MMABAXUK|52=20181130-14:12:29.669|56=MA|10=045|8=FIX.4.4|9=55|35=0|34=220|49=MMABAXUK|52=20181130-14:13:59.669|56=MA|10=041|8=FIX.4.4|9=55|35=0|34=221|49=MMABAXUK|52=20181130-14:15:29.669|56=MA|10=041|8=FIX.4.4|9=55|35=0|34=222|49=MMABAXUK|52=20181130-14:17:00.667|56=MA|10=031|8=FIX.4.4|9=55|35=0|34=223|49=MMABAXUK|52=20181130-14:18:31.666|56=MA|10=036|8=FIX.4.4|9=55|35=0|34=224|49=MMABAXUK|52=20181130-14:20:01.666|56=MA|10=027|8=FIX.4.4|9=55|35=0|34=225|49=MMABAXUK|52=20181130-14:21:32.665|56=MA|10=032|8=FIX.4.4|9=55|35=0|34=226|49=MMABAXUK|52=20181130-14:23:02.665|56=MA|10=032|8=FIX.4.4|9=55|35=0|34=227|49=MMABAXUK|52=20181130-14:24:33.666|56=MA|10=039|8=FIX.4.4|9=55|35=0|34=228|49=MMABAXUK|52=20181130-14:26:04.665|56=MA|10=039|8=FIX.4.4|9=55|35=0|34=229|49=MMABAXUK|52=20181130-14:27:35.663|56=MA|10=043|8=FIX.4.4|9=55|35=0|34=230|49=MMABAXUK|52=20181130-14:29:05.664|56=MA|10=035|8=FIX.4.4|9=55|35=0|34=231|49=MMABAXUK|52=20181130-14:30:36.663|56=MA|10=031|8=FIX.4.4|9=55|35=0|34=232|49=MMABAXUK|52=20181130-14:32:07.662|56=MA|10=031|8=FIX.4.4|9=55|35=0|34=233|49=MMABAXUK|52=20181130-14:33:37.662|56=MA|10=036|8=FIX.4.4|9=55|35=0|34=234|49=MMABAXUK|52=20181130-14:35:07.662|56=MA|10=036|8=FIX.4.4|9=55|35=0|34=235|49=MMABAXUK|52=20181130-14:36:37.662|56=MA|10=041|8=FIX.4.4|9=55|35=0|34=236|49=MMABAXUK|52=20181130-14:38:08.661|56=MA|10=041|8=FIX.4.4|9=55|35=0|34=237|49=MMABAXUK|52=20181130-14:39:38.661|56=MA|10=046|8=FIX.4.4|9=55|35=0|34=238|49=MMABAXUK|52=20181130-14:41:09.660|56=MA|10=037|8=FIX.4.4|9=55|35=0|34=239|49=MMABAXUK|52=20181130-14:42:39.660|56=MA|10=042|8=FIX.4.4|9=55|35=0|34=240|49=MMABAXUK|52=20181130-14:44:10.659|56=MA|10=033|8=FIX.4.4|9=55|35=0|34=241|49=MMABAXUK|52=20181130-14:45:41.658|56=MA|10=038|8=FIX.4.4|9=55|35=0|34=242|49=MMABAXUK|52=20181130-14:47:11.658|56=MA|10=038|8=FIX.4.4|9=55|35=0|34=243|49=MMABAXUK|52=20181130-14:48:42.657|56=MA|10=043|8=FIX.4.4|9=55|35=0|34=244|49=MMABAXUK|52=20181130-14:50:12.657|56=MA|10=034|8=FIX.4.4|9=55|35=0|34=245|49=MMABAXUK|52=20181130-14:51:42.657|56=MA|10=039|8=FIX.4.4|9=55|35=0|34=246|49=MMABAXUK|52=20181130-14:53:13.657|56=MA|10=040|8=FIX.4.4|9=55|35=0|34=247|49=MMABAXUK|52=20181130-14:54:44.655|56=MA|10=044|8=FIX.4.4|9=55|35=0|34=248|49=MMABAXUK|52=20181130-14:56:15.654|56=MA|10=044|8=FIX.4.4|9=55|35=0|34=249|49=MMABAXUK|52=20181130-14:57:45.654|56=MA|10=049|8=FIX.4.4|9=55|35=0|34=250|49=MMABAXUK|52=20181130-14:59:16.654|56=MA|10=041|8=FIX.4.4|9=55|35=0|34=251|49=MMABAXUK|52=20181130-15:00:47.654|56=MA|10=033|8=FIX.4.4|9=55|35=0|34=252|49=MMABAXUK|52=20181130-15:02:18.652|56=MA|10=032|8=FIX.4.4|9=55|35=0|34=253|49=MMABAXUK|52=20181130-15:03:49.652|56=MA|10=038|8=FIX.4.4|9=55|35=0|34=254|49=MMABAXUK|52=20181130-15:05:20.652|56=MA|10=030|8=FIX.4.4|9=55|35=0|34=255|49=MMABAXUK|52=20181130-15:06:51.652|56=MA|10=036|8=FIX.4.4|9=55|35=0|34=256|49=MMABAXUK|52=20181130-15:08:22.650|56=MA|10=035|8=FIX.4.4|9=55|35=0|34=257|49=MMABAXUK|52=20181130-15:09:52.651|56=MA|10=041|8=FIX.4.4|9=55|35=0|34=258|49=MMABAXUK|52=20181130-15:11:23.649|56=MA|10=040|8=FIX.4.4|9=55|35=0|34=259|49=MMABAXUK|52=20181130-15:12:54.648|56=MA|10=045|8=FIX.4.4|9=55|35=0|34=260|49=MMABAXUK|52=20181130-15:14:24.648|56=MA|10=036|8=FIX.4.4|9=55|35=0|34=261|49=MMABAXUK|52=20181130-15:15:54.648|56=MA|10=041|8=FIX.4.4|9=55|35=0|34=262|49=MMABAXUK|52=20181130-15:17:25.648|56=MA|10=042|8=FIX.4.4|9=55|35=0|34=263|49=MMABAXUK|52=20181130-15:18:56.646|56=MA|10=046|8=FIX.4.4|9=55|35=0|34=264|49=MMABAXUK|52=20181130-15:20:27.646|56=MA|10=038|8=FIX.4.4|9=55|35=0|34=265|49=MMABAXUK|52=20181130-15:21:58.645|56=MA|10=043|8=FIX.4.4|9=55|35=0|34=266|49=MMABAXUK|52=20181130-15:23:28.645|56=MA|10=043|8=FIX.4.4|9=55|35=0|34=267|49=MMABAXUK|52=20181130-15:24:59.644|56=MA|10=048|8=FIX.4.4|9=55|35=0|34=268|49=MMABAXUK|52=20181130-15:26:29.644|56=MA|10=048|8=FIX.4.4|9=55|35=0|34=269|49=MMABAXUK|52=20181130-15:27:59.644|56=MA|10=053|8=FIX.4.4|9=55|35=0|34=270|49=MMABAXUK|52=20181130-15:29:30.644|56=MA|10=036|8=FIX.4.4|9=55|35=0|34=271|49=MMABAXUK|52=20181130-15:31:00.644|56=MA|10=027|8=FIX.4.4|9=55|35=0|34=272|49=MMABAXUK|52=20181130-15:32:30.644|56=MA|10=032|8=FIX.4.4|9=55|35=0|34=273|49=MMABAXUK|52=20181130-15:34:01.644|56=MA|10=033|8=FIX.4.4|9=55|35=0|34=274|49=MMABAXUK|52=20181130-15:35:32.641|56=MA|10=036|8=FIX.4.4|9=55|35=0|34=275|49=MMABAXUK|52=20181130-15:37:02.641|56=MA|10=036|8=FIX.4.4|9=55|35=0|34=276|49=MMABAXUK|52=20181130-15:38:32.641|56=MA|10=041|8=FIX.4.4|9=55|35=0|34=277|49=MMABAXUK|52=20181130-15:40:02.641|56=MA|10=032|8=FIX.4.4|9=55|35=0|34=278|49=MMABAXUK|52=20181130-15:41:33.640|56=MA|10=037|8=FIX.4.4|9=55|35=0|34=279|49=MMABAXUK|52=20181130-15:43:03.640|56=MA|10=037|8=FIX.4.4|9=55|35=0|34=280|49=MMABAXUK|52=20181130-15:44:34.639|56=MA|10=042|8=FIX.4.4|9=55|35=0|34=281|49=MMABAXUK|52=20181130-15:46:05.638|56=MA|10=042|8=FIX.4.4|9=55|35=0|34=282|49=MMABAXUK|52=20181130-15:47:35.638|56=MA|10=047|8=FIX.4.4|9=55|35=0|34=283|49=MMABAXUK|52=20181130-15:49:06.637|56=MA|10=047|8=FIX.4.4|9=55|35=0|34=284|49=MMABAXUK|52=20181130-15:50:36.637|56=MA|10=043|8=FIX.4.4|9=55|35=0|34=285|49=MMABAXUK|52=20181130-15:52:07.636|56=MA|10=043|8=FIX.4.4|9=55|35=0|34=286|49=MMABAXUK|52=20181130-15:53:37.636|56=MA|10=048|8=FIX.4.4|9=55|35=0|34=287|49=MMABAXUK|52=20181130-15:55:08.635|56=MA|10=048|8=FIX.4.4|9=55|35=0|34=288|49=MMABAXUK|52=20181130-15:56:38.635|56=MA|10=053|8=FIX.4.4|9=55|35=0|34=289|49=MMABAXUK|52=20181130-15:58:09.633|56=MA|10=052|8=FIX.4.4|9=55|35=0|34=290|49=MMABAXUK|52=20181130-15:59:39.634|56=MA|10=049|8=FIX.4.4|9=55|35=0|34=291|49=MMABAXUK|52=20181130-16:01:10.633|56=MA|10=026|8=FIX.4.4|9=55|35=0|34=292|49=MMABAXUK|52=20181130-16:02:40.633|56=MA|10=031|8=FIX.4.4|9=55|35=0|34=293|49=MMABAXUK|52=20181130-16:04:11.631|56=MA|10=030|8=FIX.4.4|9=55|35=0|34=294|49=MMABAXUK|52=20181130-16:05:41.632|56=MA|10=036|8=FIX.4.4|9=55|35=0|34=295|49=MMABAXUK|52=20181130-16:07:12.630|56=MA|10=035|8=FIX.4.4|9=55|35=0|34=296|49=MMABAXUK|52=20181130-16:08:42.630|56=MA|10=040|8=FIX.4.4|9=55|35=0|34=297|49=MMABAXUK|52=20181130-16:10:13.629|56=MA|10=040|8=FIX.4.4|9=55|35=0|34=298|49=MMABAXUK|52=20181130-16:11:43.629|56=MA|10=045|8=FIX.4.4|9=55|35=0|34=299|49=MMABAXUK|52=20181130-16:13:14.629|56=MA|10=046|8=FIX.4.4|9=55|35=0|34=300|49=MMABAXUK|52=20181130-16:14:45.628|56=MA|10=033|8=FIX.4.4|9=55|35=0|34=301|49=MMABAXUK|52=20181130-16:16:16.627|56=MA|10=033|8=FIX.4.4|9=55|35=0|34=302|49=MMABAXUK|52=20181130-16:17:46.628|56=MA|10=039|8=FIX.4.4|9=55|35=0|34=303|49=MMABAXUK|52=20181130-16:19:16.628|56=MA|10=039|8=FIX.4.4|9=55|35=0|34=304|49=MMABAXUK|52=20181130-16:20:46.628|56=MA|10=035|8=FIX.4.4|9=55|35=0|34=305|49=MMABAXUK|52=20181130-16:22:17.626|56=MA|10=034|8=FIX.4.4|9=55|35=0|34=306|49=MMABAXUK|52=20181130-16:23:47.627|56=MA|10=040|8=FIX.4.4|9=55|35=0|34=307|49=MMABAXUK|52=20181130-16:25:18.626|56=MA|10=040|8=FIX.4.4|9=55|35=0|34=308|49=MMABAXUK|52=20181130-16:26:49.626|56=MA|10=046|8=FIX.4.4|9=55|35=0|34=309|49=MMABAXUK|52=20181130-16:28:20.625|56=MA|10=037|8=FIX.4.4|9=55|35=0|34=310|49=MMABAXUK|52=20181130-16:29:51.623|56=MA|10=032|8=FIX.4.4|9=55|35=0|34=311|49=MMABAXUK|52=20181130-16:31:21.623|56=MA|10=023|8=FIX.4.4|9=55|35=0|34=312|49=MMABAXUK|52=20181130-16:32:52.623|56=MA|10=029|8=FIX.4.4|9=55|35=0|34=313|49=MMABAXUK|52=20181130-16:34:22.623|56=MA|10=029|8=FIX.4.4|9=55|35=0|34=314|49=MMABAXUK|52=20181130-16:35:52.623|56=MA|10=034|8=FIX.4.4|9=55|35=0|34=315|49=MMABAXUK|52=20181130-16:37:23.621|56=MA|10=033|8=FIX.4.4|9=55|35=0|34=316|49=MMABAXUK|52=20181130-16:38:53.621|56=MA|10=038|8=FIX.4.4|9=55|35=0|34=317|49=MMABAXUK|52=20181130-16:40:24.621|56=MA|10=030|8=FIX.4.4|9=55|35=0|34=318|49=MMABAXUK|52=20181130-16:41:54.621|56=MA|10=035|8=FIX.4.4|9=55|35=0|34=319|49=MMABAXUK|52=20181130-16:43:25.620|56=MA|10=035|8=FIX.4.4|9=55|35=0|34=320|49=MMABAXUK|52=20181130-16:44:56.618|56=MA|10=039|8=FIX.4.4|9=55|35=0|34=321|49=MMABAXUK|52=20181130-16:46:26.619|56=MA|10=040|8=FIX.4.4|9=55|35=0|34=322|49=MMABAXUK|52=20181130-16:47:57.618|56=MA|10=045|8=FIX.4.4|9=55|35=0|34=323|49=MMABAXUK|52=20181130-16:49:28.617|56=MA|10=045|8=FIX.4.4|9=55|35=0|34=324|49=MMABAXUK|52=20181130-16:50:58.617|56=MA|10=041|8=FIX.4.4|9=55|35=0|34=325|49=MMABAXUK|52=20181130-16:52:29.616|56=MA|10=041|8=FIX.4.4|9=55|35=0|34=326|49=MMABAXUK|52=20181130-16:53:59.616|56=MA|10=046|8=FIX.4.4|9=55|35=0|34=327|49=MMABAXUK|52=20181130-16:55:30.616|56=MA|10=038|8=FIX.4.4|9=55|35=0|34=328|49=MMABAXUK|52=20181130-16:57:01.614|56=MA|10=037|8=FIX.4.4|9=55|35=0|34=329|49=MMABAXUK|52=20181130-16:58:32.614|56=MA|10=043|8=FIX.4.4|9=55|35=0|34=330|49=MMABAXUK|52=20181130-17:00:02.615|56=MA|10=021|8=FIX.4.4|9=55|35=0|34=331|49=MMABAXUK|52=20181130-17:01:33.612|56=MA|10=024|8=FIX.4.4|9=55|35=0|34=332|49=MMABAXUK|52=20181130-17:03:04.612|56=MA|10=025|8=FIX.4.4|9=55|35=0|34=333|49=MMABAXUK|52=20181130-17:04:34.612|56=MA|10=030|8=FIX.4.4|9=55|35=0|34=334|49=MMABAXUK|52=20181130-17:06:05.611|56=MA|10=030|8=FIX.4.4|9=55|35=0|34=335|49=MMABAXUK|52=20181130-17:07:35.612|56=MA|10=036|8=FIX.4.4|9=55|35=0|34=336|49=MMABAXUK|52=20181130-17:09:06.609|56=MA|10=043|8=FIX.4.4|9=55|35=0|34=337|49=MMABAXUK|52=20181130-17:10:36.610|56=MA|10=031|8=FIX.4.4|9=55|35=0|34=338|49=MMABAXUK|52=20181130-17:12:07.608|56=MA|10=039|8=FIX.4.4|9=55|35=0|34=339|49=MMABAXUK|52=20181130-17:13:37.609|56=MA|10=045|8=FIX.4.4|9=55|35=0|34=340|49=MMABAXUK|52=20181130-17:15:07.609|56=MA|10=036|8=FIX.4.4|9=55|35=0|34=341|49=MMABAXUK|52=20181130-17:16:37.609|56=MA|10=041|8=FIX.4.4|9=55|35=0|34=342|49=MMABAXUK|52=20181130-17:18:08.608|56=MA|10=041|8=FIX.4.4|9=55|35=0|34=343|49=MMABAXUK|52=20181130-17:19:38.608|56=MA|10=046|8=FIX.4.4|9=55|35=0|34=344|49=MMABAXUK|52=20181130-17:21:09.607|56=MA|10=037|8=FIX.4.4|9=55|35=0|34=345|49=MMABAXUK|52=20181130-17:22:39.607|56=MA|10=042|8=FIX.4.4|9=55|35=0|34=346|49=MMABAXUK|52=20181130-17:24:10.606|56=MA|10=033|8=FIX.4.4|9=55|35=0|34=347|49=MMABAXUK|52=20181130-17:25:40.606|56=MA|10=038|8=FIX.4.4|9=55|35=0|34=348|49=MMABAXUK|52=20181130-17:27:10.606|56=MA|10=038|8=FIX.4.4|9=55|35=0|34=349|49=MMABAXUK|52=20181130-17:28:41.604|56=MA|10=042|8=FIX.4.4|9=55|35=0|34=350|49=MMABAXUK|52=20181130-17:30:11.604|56=MA|10=024|8=FIX.4.4|9=55|35=0|34=351|49=MMABAXUK|52=20181130-17:31:42.604|56=MA|10=030|8=FIX.4.4|9=55|35=0|34=352|49=MMABAXUK|52=20181130-17:33:13.602|56=MA|10=029|8=FIX.4.4|9=55|35=0|34=353|49=MMABAXUK|52=20181130-17:34:43.603|56=MA|10=035|8=FIX.4.4|9=55|35=0|34=354|49=MMABAXUK|52=20181130-17:36:14.602|56=MA|10=035|8=FIX.4.4|9=55|35=0|34=355|49=MMABAXUK|52=20181130-17:37:45.601|56=MA|10=040|8=FIX.4.4|9=55|35=0|34=356|49=MMABAXUK|52=20181130-17:39:15.601|56=MA|10=040|8=FIX.4.4|9=55|35=0|34=357|49=MMABAXUK|52=20181130-17:40:46.600|56=MA|10=036|8=FIX.4.4|9=55|35=0|34=358|49=MMABAXUK|52=20181130-17:42:16.600|56=MA|10=036|8=FIX.4.4|9=55|35=0|34=359|49=MMABAXUK|52=20181130-17:43:47.599|56=MA|10=059|8=FIX.4.4|9=55|35=0|34=360|49=MMABAXUK|52=20181130-17:45:17.599|56=MA|10=050|8=FIX.4.4|9=55|35=0|34=361|49=MMABAXUK|52=20181130-17:46:48.598|56=MA|10=055|8=FIX.4.4|9=55|35=0|34=362|49=MMABAXUK|52=20181130-17:48:19.598|56=MA|10=056|8=FIX.4.4|9=55|35=0|34=363|49=MMABAXUK|52=20181130-17:49:50.596|56=MA|10=051|8=FIX.4.4|9=55|35=0|34=364|49=MMABAXUK|52=20181130-17:51:20.596|56=MA|10=042|8=FIX.4.4|9=55|35=0|34=365|49=MMABAXUK|52=20181130-17:52:50.596|56=MA|10=047|8=FIX.4.4|9=55|35=0|34=366|49=MMABAXUK|52=20181130-17:54:21.594|56=MA|10=046|8=FIX.4.4|9=55|35=0|34=367|49=MMABAXUK|52=20181130-17:55:51.595|56=MA|10=052|8=FIX.4.4|9=55|35=0|34=368|49=MMABAXUK|52=20181130-17:57:21.595|56=MA|10=052|8=FIX.4.4|9=55|35=0|34=369|49=MMABAXUK|52=20181130-17:58:52.593|56=MA|10=056|8=FIX.4.4|9=55|35=0|34=370|49=MMABAXUK|52=20181130-18:00:22.593|56=MA|10=033|8=FIX.4.4|9=55|35=0|34=371|49=MMABAXUK|52=20181130-18:01:53.593|56=MA|10=039|8=FIX.4.4|9=55|35=0|34=372|49=MMABAXUK|52=20181130-18:03:23.593|56=MA|10=039|8=FIX.4.4|9=55|35=0|34=373|49=MMABAXUK|52=20181130-18:04:54.594|56=MA|10=046|8=FIX.4.4|9=55|35=0|34=374|49=MMABAXUK|52=20181130-18:06:25.592|56=MA|10=045|8=FIX.4.4|9=55|35=0|34=375|49=MMABAXUK|52=20181130-18:07:56.593|56=MA|10=052|8=FIX.4.4|9=55|35=0|34=376|49=MMABAXUK|52=20181130-18:09:27.592|56=MA|10=052|8=FIX.4.4|9=55|35=0|34=377|49=MMABAXUK|52=20181130-18:10:58.591|56=MA|10=048|8=FIX.4.4|9=55|35=0|34=378|49=MMABAXUK|52=20181130-18:12:29.590|56=MA|10=048|8=FIX.4.4|9=55|35=0|34=379|49=MMABAXUK|52=20181130-18:13:59.590|56=MA|10=053|8=FIX.4.4|9=55|35=0|34=380|49=MMABAXUK|52=20181130-18:15:30.590|56=MA|10=036|8=FIX.4.4|9=55|35=0|34=381|49=MMABAXUK|52=20181130-18:17:01.588|56=MA|10=044|8=FIX.4.4|9=55|35=0|34=382|49=MMABAXUK|52=20181130-18:18:31.588|56=MA|10=049|8=FIX.4.4|9=55|35=0|34=383|49=MMABAXUK|52=20181130-18:20:02.587|56=MA|10=040|8=FIX.4.4|9=55|35=0|34=384|49=MMABAXUK|52=20181130-18:21:32.588|56=MA|10=046|8=FIX.4.4|9=55|35=0|34=385|49=MMABAXUK|52=20181130-18:23:03.586|56=MA|10=045|8=FIX.4.4|9=55|35=0|34=386|49=MMABAXUK|52=20181130-18:24:34.586|56=MA|10=051|8=FIX.4.4|9=55|35=0|34=387|49=MMABAXUK|52=20181130-18:26:05.585|56=MA|10=051|8=FIX.4.4|9=55|35=0|34=388|49=MMABAXUK|52=20181130-18:27:35.585|56=MA|10=056|8=FIX.4.4|9=55|35=0|34=389|49=MMABAXUK|52=20181130-18:29:06.584|56=MA|10=056|8=FIX.4.4|9=55|35=0|34=390|49=MMABAXUK|52=20181130-18:30:36.585|56=MA|10=044|8=FIX.4.4|9=55|35=0|34=391|49=MMABAXUK|52=20181130-18:32:07.583|56=MA|10=043|8=FIX.4.4|9=55|35=0|34=392|49=MMABAXUK|52=20181130-18:33:37.583|56=MA|10=048|8=FIX.4.4|9=55|35=0|34=393|49=MMABAXUK|52=20181130-18:35:08.582|56=MA|10=048|8=FIX.4.4|9=55|35=0|34=394|49=MMABAXUK|52=20181130-18:36:39.583|56=MA|10=055|8=FIX.4.4|9=55|35=0|34=395|49=MMABAXUK|52=20181130-18:38:10.581|56=MA|10=045|8=FIX.4.4|9=55|35=0|34=396|49=MMABAXUK|52=20181130-18:39:40.581|56=MA|10=050|8=FIX.4.4|9=55|35=0|34=397|49=MMABAXUK|52=20181130-18:41:11.580|56=MA|10=041|8=FIX.4.4|9=55|35=0|34=398|49=MMABAXUK|52=20181130-18:42:42.580|56=MA|10=047|8=FIX.4.4|9=55|35=0|34=399|49=MMABAXUK|52=20181130-18:44:13.578|56=MA|10=055|8=FIX.4.4|9=55|35=0|34=400|49=MMABAXUK|52=20181130-18:45:43.579|56=MA|10=043|8=FIX.4.4|9=55|35=0|34=401|49=MMABAXUK|52=20181130-18:47:14.578|56=MA|10=043|8=FIX.4.4|9=55|35=0|34=402|49=MMABAXUK|52=20181130-18:48:45.577|56=MA|10=048|8=FIX.4.4|9=55|35=0|34=403|49=MMABAXUK|52=20181130-18:50:15.577|56=MA|10=039|8=FIX.4.4|9=55|35=0|34=404|49=MMABAXUK|52=20181130-18:51:46.576|56=MA|10=044|8=FIX.4.4|9=55|35=0|34=405|49=MMABAXUK|52=20181130-18:53:16.576|56=MA|10=044|8=FIX.4.4|9=55|35=0|34=406|49=MMABAXUK|52=20181130-18:54:46.577|56=MA|10=050|8=FIX.4.4|9=55|35=0|34=407|49=MMABAXUK|52=20181130-18:56:16.577|56=MA|10=050|8=FIX.4.4|9=55|35=0|34=408|49=MMABAXUK|52=20181130-18:57:47.575|56=MA|10=054|8=FIX.4.4|9=55|35=0|34=409|49=MMABAXUK|52=20181130-18:59:17.575|56=MA|10=054|8=FIX.4.4|9=55|35=0|34=410|49=MMABAXUK|52=20181130-19:00:47.575|56=MA|10=036|8=FIX.4.4|9=55|35=0|34=411|49=MMABAXUK|52=20181130-19:02:18.574|56=MA|10=036|8=FIX.4.4|9=55|35=0|34=412|49=MMABAXUK|52=20181130-19:03:48.574|56=MA|10=041|8=FIX.4.4|9=55|35=0|34=413|49=MMABAXUK|52=20181130-19:05:19.573|56=MA|10=041|8=FIX.4.4|9=55|35=0|34=414|49=MMABAXUK|52=20181130-19:06:50.572|56=MA|10=037|8=FIX.4.4|9=55|35=0|34=415|49=MMABAXUK|52=20181130-19:08:21.571|56=MA|10=037|8=FIX.4.4|9=55|35=0|34=416|49=MMABAXUK|52=20181130-19:09:51.571|56=MA|10=042|8=FIX.4.4|9=55|35=0|34=417|49=MMABAXUK|52=20181130-19:11:22.571|56=MA|10=034|8=FIX.4.4|9=55|35=0|34=418|49=MMABAXUK|52=20181130-19:12:53.569|56=MA|10=047|8=FIX.4.4|9=55|35=0|34=419|49=MMABAXUK|52=20181130-19:14:23.569|56=MA|10=047|8=FIX.4.4|9=55|35=0|34=420|49=MMABAXUK|52=20181130-19:15:54.570|56=MA|10=036|8=FIX.4.4|9=55|35=0|