8=FIX.4.4|9=96|35=A|34=1|49=PUBQA3Version4|52=20180328-09:47:07.221|56=TRAX|98=0|108=30|95=8|96=2.0.0rc4|141=Y|10=199|8=FIX.4.4|9=61|35=0|34=2|49=PUBQA3Version4|52=20180328-09:47:38.027|56=TRAX|10=233|8=FIX.4.4|9=61|35=0|34=3|49=PUBQA3Version4|52=20180328-09:48:08.183|56=TRAX|10=235|8=FIX.4.4|9=61|35=0|34=4|49=PUBQA3Version4|52=20180328-09:48:39.181|56=TRAX|10=238|8=FIX.4.4|9=61|35=0|34=5|49=PUBQA3Version4|52=20180328-09:49:10.180|56=TRAX|10=228|8=FIX.4.4|9=61|35=0|34=6|49=PUBQA3Version4|52=20180328-09:49:41.179|56=TRAX|10=241|8=FIX.4.4|9=61|35=0|34=7|49=PUBQA3Version4|52=20180328-09:50:12.178|56=TRAX|10=231|8=FIX.4.4|9=61|35=0|34=8|49=PUBQA3Version4|52=20180328-09:50:42.209|56=TRAX|10=230|8=FIX.4.4|9=79|35=5|34=9|49=PUBQA3Version4|52=20180328-09:50:46.219|56=TRAX|58=user requested|10=086|8=FIX.4.4|9=96|35=A|34=1|49=PUBQA3Version4|52=20180328-09:51:07.177|56=TRAX|98=0|108=30|95=8|96=2.0.0rc4|141=Y|10=204|8=FIX.4.4|9=61|35=0|34=2|49=PUBQA3Version4|52=20180328-09:51:37.177|56=TRAX|10=233|8=FIX.4.4|9=61|35=0|34=3|49=PUBQA3Version4|52=20180328-09:52:07.188|56=TRAX|10=234|8=FIX.4.4|9=61|35=0|34=4|49=PUBQA3Version4|52=20180328-09:52:37.734|56=TRAX|10=235|8=FIX.4.4|9=61|35=0|34=5|49=PUBQA3Version4|52=20180328-09:53:07.743|56=TRAX|10=234|8=FIX.4.4|9=61|35=0|34=6|49=PUBQA3Version4|52=20180328-09:53:37.756|56=TRAX|10=242|8=FIX.4.4|9=61|35=0|34=7|49=PUBQA3Version4|52=20180328-09:54:08.146|56=TRAX|10=235|8=FIX.4.4|9=61|35=0|34=8|49=PUBQA3Version4|52=20180328-09:54:38.176|56=TRAX|10=242|8=FIX.4.4|9=61|35=0|34=9|49=PUBQA3Version4|52=20180328-09:55:08.185|56=TRAX|10=241|8=FIX.4.4|9=62|35=0|34=10|49=PUBQA3Version4|52=20180328-09:55:39.147|56=TRAX|10=028|8=FIX.4.4|9=62|35=0|34=11|49=PUBQA3Version4|52=20180328-09:56:09.180|56=TRAX|10=024|8=FIX.4.4|9=62|35=0|34=12|49=PUBQA3Version4|52=20180328-09:56:39.189|56=TRAX|10=037|8=FIX.4.4|9=62|35=0|34=13|49=PUBQA3Version4|52=20180328-09:57:10.177|56=TRAX|10=025|8=FIX.4.4|9=62|35=0|34=14|49=PUBQA3Version4|52=20180328-09:57:40.182|56=TRAX|10=025|8=FIX.4.4|9=62|35=0|34=15|49=PUBQA3Version4|52=20180328-09:58:11.178|56=TRAX|10=030|8=FIX.4.4|9=62|35=0|34=16|49=PUBQA3Version4|52=20180328-09:58:41.188|56=TRAX|10=035|8=FIX.4.4|9=62|35=0|34=17|49=PUBQA3Version4|52=20180328-09:59:12.188|56=TRAX|10=035|8=FIX.4.4|9=62|35=0|34=18|49=PUBQA3Version4|52=20180328-09:59:43.177|56=TRAX|10=038|8=FIX.4.4|9=62|35=0|34=19|49=PUBQA3Version4|52=20180328-10:00:13.178|56=TRAX|10=015|8=FIX.4.4|9=62|35=0|34=20|49=PUBQA3Version4|52=20180328-10:00:43.186|56=TRAX|10=009|8=FIX.4.4|9=62|35=0|34=21|49=PUBQA3Version4|52=20180328-10:01:13.191|56=TRAX|10=004|8=FIX.4.4|9=62|35=0|34=22|49=PUBQA3Version4|52=20180328-10:01:44.184|56=TRAX|10=011|8=FIX.4.4|9=62|35=0|34=23|49=PUBQA3Version4|52=20180328-10:02:15.180|56=TRAX|10=007|8=FIX.4.4|9=62|35=0|34=24|49=PUBQA3Version4|52=20180328-10:02:45.182|56=TRAX|10=013|8=FIX.4.4|9=62|35=0|34=25|49=PUBQA3Version4|52=20180328-10:03:15.184|56=TRAX|10=014|8=FIX.4.4|9=62|35=0|34=26|49=PUBQA3Version4|52=20180328-10:03:45.192|56=TRAX|10=017|8=FIX.4.4|9=62|35=0|34=27|49=PUBQA3Version4|52=20180328-10:04:16.151|56=TRAX|10=012|8=FIX.4.4|9=62|35=0|34=28|49=PUBQA3Version4|52=20180328-10:04:46.182|56=TRAX|10=020|8=FIX.4.4|9=62|35=0|34=29|49=PUBQA3Version4|52=20180328-10:05:16.182|56=TRAX|10=019|8=FIX.4.4|9=62|35=0|34=30|49=PUBQA3Version4|52=20180328-10:05:46.187|56=TRAX|10=019|8=FIX.4.4|9=62|35=0|34=31|49=PUBQA3Version4|52=20180328-10:06:17.151|56=TRAX|10=010|8=FIX.4.4|9=62|35=0|34=32|49=PUBQA3Version4|52=20180328-10:06:48.150|56=TRAX|10=014|8=FIX.4.4|9=62|35=0|34=33|49=PUBQA3Version4|52=20180328-10:07:19.149|56=TRAX|10=022|8=FIX.4.4|9=62|35=0|34=34|49=PUBQA3Version4|52=20180328-10:07:50.148|56=TRAX|10=017|8=FIX.4.4|9=62|35=0|34=35|49=PUBQA3Version4|52=20180328-10:08:21.146|56=TRAX|10=015|8=FIX.4.4|9=62|35=0|34=36|49=PUBQA3Version4|52=20180328-10:08:52.170|56=TRAX|10=017|8=FIX.4.4|9=62|35=0|34=37|49=PUBQA3Version4|52=20180328-10:09:23.145|56=TRAX|10=019|8=FIX.4.4|9=80|35=5|34=38|49=PUBQA3Version4|52=20180328-10:09:46.145|56=TRAX|58=user requested|10=122|8=FIX.4.4|9=96|35=A|34=1|49=PUBQA3Version4|52=20180328-10:10:13.946|56=TRAX|98=0|108=30|95=8|96=2.0.0rc4|141=Y|10=192|8=FIX.4.4|9=61|35=0|34=2|49=PUBQA3Version4|52=20180328-10:10:44.377|56=TRAX|10=220|8=FIX.4.4|9=61|35=0|34=3|49=PUBQA3Version4|52=20180328-10:11:14.943|56=TRAX|10=218|8=FIX.4.4|9=61|35=0|34=4|49=PUBQA3Version4|52=20180328-10:11:45.942|56=TRAX|10=222|8=FIX.4.4|9=61|35=0|34=5|49=PUBQA3Version4|52=20180328-10:12:16.941|56=TRAX|10=221|8=FIX.4.4|9=61|35=0|34=6|49=PUBQA3Version4|52=20180328-10:12:46.981|56=TRAX|10=229|8=FIX.4.4|9=61|35=0|34=7|49=PUBQA3Version4|52=20180328-10:13:17.982|56=TRAX|10=230|8=FIX.4.4|9=61|35=0|34=8|49=PUBQA3Version4|52=20180328-10:13:48.982|56=TRAX|10=235|8=FIX.4.4|9=61|35=0|34=9|49=PUBQA3Version4|52=20180328-10:14:19.974|56=TRAX|10=236|8=FIX.4.4|9=62|35=0|34=10|49=PUBQA3Version4|52=20180328-10:14:49.984|56=TRAX|10=025|8=FIX.4.4|9=84|35=5|34=11|49=PUBQA3Version4|52=20180328-10:15:00.980|56=TRAX|58=Session Tab Closed|10=083|8=FIX.4.4|9=96|35=A|34=1|49=PUBQA3Version4|52=20180328-10:15:06.973|56=TRAX|98=0|108=30|95=8|96=2.0.0rc4|141=Y|10=199|8=FIX.4.4|9=61|35=0|34=2|49=PUBQA3Version4|52=20180328-10:15:37.894|56=TRAX|10=231|8=FIX.4.4|9=61|35=0|34=3|49=PUBQA3Version4|52=20180328-10:16:07.978|56=TRAX|10=233|8=FIX.4.4|9=61|35=0|34=4|49=PUBQA3Version4|52=20180328-10:16:38.976|56=TRAX|10=236|8=FIX.4.4|9=79|35=5|34=5|49=PUBQA3Version4|52=20180328-10:16:55.987|56=TRAX|58=user requested|10=088|8=FIX.4.4|9=96|35=A|34=1|49=PUBQA3Version4|52=20180328-10:17:10.386|56=TRAX|98=0|108=30|95=8|96=2.0.0rc4|141=Y|10=194|8=FIX.4.4|9=61|35=0|34=2|49=PUBQA3Version4|52=20180328-10:17:40.868|56=TRAX|10=228|8=FIX.4.4|9=61|35=0|34=3|49=PUBQA3Version4|52=20180328-10:18:10.874|56=TRAX|10=224|8=FIX.4.4|9=61|35=0|34=4|49=PUBQA3Version4|52=20180328-10:18:41.385|56=TRAX|10=226|8=FIX.4.4|9=61|35=0|34=5|49=PUBQA3Version4|52=20180328-10:19:12.378|56=TRAX|10=228|8=FIX.4.4|9=61|35=0|34=6|49=PUBQA3Version4|52=20180328-10:19:43.381|56=TRAX|10=227|8=FIX.4.4|9=61|35=0|34=7|49=PUBQA3Version4|52=20180328-10:20:14.385|56=TRAX|10=222|8=FIX.4.4|9=61|35=0|34=8|49=PUBQA3Version4|52=20180328-10:20:45.383|56=TRAX|10=225|8=FIX.4.4|9=61|35=0|34=9|49=PUBQA3Version4|52=20180328-10:21:16.379|56=TRAX|10=230|8=FIX.4.4|9=62|35=0|34=10|49=PUBQA3Version4|52=20180328-10:21:47.376|56=TRAX|10=016|8=FIX.4.4|9=62|35=0|34=11|49=PUBQA3Version4|52=20180328-10:22:17.389|56=TRAX|10=019|8=FIX.4.4|9=62|35=0|34=12|49=PUBQA3Version4|52=20180328-10:22:48.375|56=TRAX|10=019|8=FIX.4.4|9=80|35=5|34=13|49=PUBQA3Version4|52=20180328-10:23:09.385|56=TRAX|58=user requested|10=116|8=FIX.4.4|9=96|35=A|34=1|49=PUBQA3Version4|52=20180328-10:23:27.272|56=TRAX|98=0|108=30|95=8|96=2.0.0rc4|141=Y|10=193|8=FIX.4.4|9=61|35=0|34=2|49=PUBQA3Version4|52=20180328-10:23:57.286|56=TRAX|10=227|8=FIX.4.4|9=61|35=0|34=3|49=PUBQA3Version4|52=20180328-10:24:27.873|56=TRAX|10=228|8=FIX.4.4|9=61|35=0|34=4|49=PUBQA3Version4|52=20180328-10:24:58.273|56=TRAX|10=227|8=FIX.4.4|9=61|35=0|34=5|49=PUBQA3Version4|52=20180328-10:25:28.275|56=TRAX|10=228|8=FIX.4.4|9=61|35=0|34=6|49=PUBQA3Version4|52=20180328-10:25:58.279|56=TRAX|10=236|8=FIX.4.4|9=61|35=0|34=7|49=PUBQA3Version4|52=20180328-10:26:28.286|56=TRAX|10=233|8=FIX.4.4|9=61|35=0|34=8|49=PUBQA3Version4|52=20180328-10:26:59.285|56=TRAX|10=237|8=FIX.4.4|9=61|35=0|34=9|49=PUBQA3Version4|52=20180328-10:27:30.250|56=TRAX|10=220|8=FIX.4.4|9=62|35=0|34=10|49=PUBQA3Version4|52=20180328-10:28:00.287|56=TRAX|10=013|8=FIX.4.4|9=62|35=0|34=11|49=PUBQA3Version4|52=20180328-10:28:31.283|56=TRAX|10=014|8=FIX.4.4|9=62|35=0|34=12|49=PUBQA3Version4|52=20180328-10:29:02.269|56=TRAX|10=018|8=FIX.4.4|9=62|35=0|34=13|49=PUBQA3Version4|52=20180328-10:29:33.263|56=TRAX|10=017|8=FIX.4.4|9=62|35=0|34=14|49=PUBQA3Version4|52=20180328-10:30:03.263|56=TRAX|10=007|8=FIX.4.4|9=62|35=0|34=15|49=PUBQA3Version4|52=20180328-10:30:33.269|56=TRAX|10=017|8=FIX.4.4|9=62|35=0|34=16|49=PUBQA3Version4|52=20180328-10:31:04.269|56=TRAX|10=017|8=FIX.4.4|9=62|35=0|34=17|49=PUBQA3Version4|52=20180328-10:31:35.268|56=TRAX|10=021|8=FIX.4.4|9=62|35=0|34=18|49=PUBQA3Version4|52=20180328-10:32:06.266|56=TRAX|10=019|8=FIX.4.4|9=62|35=0|34=19|49=PUBQA3Version4|52=20180328-10:32:36.273|56=TRAX|10=021|8=FIX.4.4|9=62|35=0|34=20|49=PUBQA3Version4|52=20180328-10:33:07.270|56=TRAX|10=009|8=FIX.4.4|9=62|35=0|34=21|49=PUBQA3Version4|52=20180328-10:33:38.246|56=TRAX|10=017|8=FIX.4.4|9=62|35=0|34=22|49=PUBQA3Version4|52=20180328-10:34:08.266|56=TRAX|10=018|8=FIX.4.4|9=62|35=0|34=23|49=PUBQA3Version4|52=20180328-10:34:38.268|56=TRAX|10=024|8=FIX.4.4|9=62|35=0|34=24|49=PUBQA3Version4|52=20180328-10:35:08.270|56=TRAX|10=016|8=FIX.4.4|9=62|35=0|34=25|49=PUBQA3Version4|52=20180328-10:35:39.269|56=TRAX|10=029|8=FIX.4.4|9=62|35=0|34=26|49=PUBQA3Version4|52=20180328-10:36:10.268|56=TRAX|10=019|8=FIX.4.4|9=62|35=0|34=27|49=PUBQA3Version4|52=20180328-10:36:40.268|56=TRAX|10=023|8=FIX.4.4|9=62|35=0|34=28|49=PUBQA3Version4|52=20180328-10:37:10.269|56=TRAX|10=023|8=FIX.4.4|9=62|35=0|34=29|49=PUBQA3Version4|52=20180328-10:37:41.273|56=TRAX|10=023|8=FIX.4.4|9=62|35=0|34=30|49=PUBQA3Version4|52=20180328-10:38:12.271|56=TRAX|10=012|8=FIX.4.4|9=80|35=5|34=31|49=PUBQA3Version4|52=20180328-10:38:28.270|56=TRAX|58=user requested|10=116|8=FIX.4.4|9=96|35=A|34=1|49=PUBQA3Version4|52=20180328-12:26:14.393|56=TRAX|98=0|108=30|95=8|96=2.0.0rc4|141=Y|10=198|8=FIX.4.4|9=61|35=0|34=2|49=PUBQA3Version4|52=20180328-12:26:44.397|56=TRAX|10=231|8=FIX.4.4|9=61|35=0|34=3|49=PUBQA3Version4|52=20180328-12:27:14.402|56=TRAX|10=217|8=FIX.4.4|9=61|35=0|34=4|49=PUBQA3Version4|52=20180328-12:27:44.405|56=TRAX|10=224|8=FIX.4.4|9=61|35=0|34=5|49=PUBQA3Version4|52=20180328-12:28:15.409|56=TRAX|10=228|8=FIX.4.4|9=61|35=0|34=6|49=PUBQA3Version4|52=20180328-12:28:45.409|56=TRAX|10=232|8=FIX.4.4|9=61|35=0|34=7|49=PUBQA3Version4|52=20180328-12:29:15.417|56=TRAX|10=230|8=FIX.4.4|9=61|35=0|34=8|49=PUBQA3Version4|52=20180328-12:29:46.415|56=TRAX|10=233|8=FIX.4.4|9=61|35=0|34=9|49=PUBQA3Version4|52=20180328-12:30:16.847|56=TRAX|10=232|8=FIX.4.4|9=62|35=0|34=10|49=PUBQA3Version4|52=20180328-12:30:47.406|56=TRAX|10=012|8=FIX.4.4|9=62|35=0|34=11|49=PUBQA3Version4|52=20180328-12:31:18.418|56=TRAX|10=015|8=FIX.4.4|9=62|35=0|34=12|49=PUBQA3Version4|52=20180328-12:31:49.408|56=TRAX|10=019|8=FIX.4.4|9=62|35=0|34=13|49=PUBQA3Version4|52=20180328-12:32:19.415|56=TRAX|10=016|8=FIX.4.4|9=62|35=0|34=14|49=PUBQA3Version4|52=20180328-12:32:50.413|56=TRAX|10=010|8=FIX.4.4|9=80|35=5|34=15|49=PUBQA3Version4|52=20180328-12:33:00.407|56=TRAX|58=user requested|10=107|8=FIX.4.4|9=96|35=A|34=1|49=PUBQA3Version4|52=20180328-12:36:19.912|56=TRAX|98=0|108=30|95=8|96=2.0.0rc4|141=Y|10=201|8=FIX.4.4|9=61|35=0|34=2|49=PUBQA3Version4|52=20180328-12:36:50.675|56=TRAX|10=228|8=FIX.4.4|9=61|35=0|34=3|49=PUBQA3Version4|52=20180328-12:37:20.700|56=TRAX|10=216|8=FIX.4.4|9=61|35=0|34=4|49=PUBQA3Version4|52=20180328-12:37:50.908|56=TRAX|10=230|8=FIX.4.4|9=61|35=0|34=5|49=PUBQA3Version4|52=20180328-12:38:21.908|56=TRAX|10=230|8=FIX.4.4|9=61|35=0|34=6|49=PUBQA3Version4|52=20180328-12:38:52.873|56=TRAX|10=236|8=FIX.4.4|9=61|35=0|34=7|49=PUBQA3Version4|52=20180328-12:39:22.915|56=TRAX|10=232|8=FIX.4.4|9=61|35=0|34=8|49=PUBQA3Version4|52=20180328-12:39:53.912|56=TRAX|10=234|8=FIX.4.4|9=61|35=0|34=9|49=PUBQA3Version4|52=20180328-12:40:23.916|56=TRAX|10=228|8=FIX.4.4|9=62|35=0|34=10|49=PUBQA3Version4|52=20180328-12:40:54.918|56=TRAX|10=019|8=FIX.4.4|9=62|35=0|34=11|49=PUBQA3Version4|52=20180328-12:41:25.915|56=TRAX|10=016|8=FIX.4.4|9=62|35=0|34=12|49=PUBQA3Version4|52=20180328-12:41:56.914|56=TRAX|10=020|8=FIX.4.4|9=62|35=0|34=13|49=PUBQA3Version4|52=20180328-12:42:27.913|56=TRAX|10=019|8=FIX.4.4|9=80|35=5|34=14|49=PUBQA3Version4|52=20180328-12:42:56.874|56=TRAX|58=user requested|10=125|8=FIX.4.4|9=96|35=A|34=1|49=PUBQA3Version4|52=20180328-12:43:08.232|56=TRAX|98=0|108=30|95=8|96=2.0.0rc4|141=Y|10=192|8=FIX.4.4|9=61|35=0|34=2|49=PUBQA3Version4|52=20180328-12:43:38.954|56=TRAX|10=232|8=FIX.4.4|9=61|35=0|34=3|49=PUBQA3Version4|52=20180328-12:44:09.228|56=TRAX|10=226|8=FIX.4.4|9=61|35=0|34=4|49=PUBQA3Version4|52=20180328-12:44:39.238|56=TRAX|10=231|8=FIX.4.4|9=61|35=0|34=5|49=PUBQA3Version4|52=20180328-12:45:10.232|56=TRAX|10=216|8=FIX.4.4|9=61|35=0|34=6|49=PUBQA3Version4|52=20180328-12:45:41.229|56=TRAX|10=227|8=FIX.4.4|9=61|35=0|34=7|49=PUBQA3Version4|52=20180328-12:46:11.238|56=TRAX|10=226|8=FIX.4.4|9=61|35=0|34=8|49=PUBQA3Version4|52=20180328-12:46:42.228|56=TRAX|10=230|8=FIX.4.4|9=61|35=0|34=9|49=PUBQA3Version4|52=20180328-12:47:12.233|56=TRAX|10=225|8=FIX.4.4|9=62|35=0|34=10|49=PUBQA3Version4|52=20180328-12:47:42.235|56=TRAX|10=015|8=FIX.4.4|9=62|35=0|34=11|49=PUBQA3Version4|52=20180328-12:48:13.236|56=TRAX|10=016|8=FIX.4.4|9=62|35=0|34=12|49=PUBQA3Version4|52=20180328-12:48:44.231|56=TRAX|10=016|8=FIX.4.4|9=62|35=0|34=13|49=PUBQA3Version4|52=20180328-12:49:15.231|56=TRAX|10=016|8=FIX.4.4|9=62|35=0|34=14|49=PUBQA3Version4|52=20180328-12:49:45.236|56=TRAX|10=025|8=FIX.4.4|9=62|35=0|34=15|49=PUBQA3Version4|52=20180328-12:50:16.195|56=TRAX|10=020|8=FIX.4.4|9=62|35=0|34=16|49=PUBQA3Version4|52=20180328-12:50:47.194|56=TRAX|10=024|8=FIX.4.4|9=62|35=0|34=17|49=PUBQA3Version4|52=20180328-12:51:18.192|56=TRAX|10=022|8=FIX.4.4|9=62|35=0|34=18|49=PUBQA3Version4|52=20180328-12:51:49.191|56=TRAX|10=026|8=FIX.4.4|9=62|35=0|34=19|49=PUBQA3Version4|52=20180328-12:52:20.190|56=TRAX|10=016|8=FIX.4.4|9=62|35=0|34=20|49=PUBQA3Version4|52=20180328-12:52:51.189|56=TRAX|10=020|8=FIX.4.4|9=80|35=5|34=21|49=PUBQA3Version4|52=20180328-12:52:54.190|56=TRAX|58=user requested|10=113|8=FIX.4.4|9=96|35=A|34=1|49=PUBQA3Version4|52=20180813-14:14:47.267|56=TRAX|98=0|108=30|95=8|96=3.0.0rc3|141=Y|10=202|8=FIX.4.4|9=61|35=0|34=2|49=PUBQA3Version4|52=20180813-14:15:17.270|56=TRAX|10=220|8=FIX.4.4|9=61|35=0|34=3|49=PUBQA3Version4|52=20180813-14:15:47.270|56=TRAX|10=224|8=FIX.4.4|9=61|35=0|34=4|49=PUBQA3Version4|52=20180813-14:16:17.276|56=TRAX|10=229|8=FIX.4.4|9=79|35=5|34=5|49=PUBQA3Version4|52=20180813-14:16:36.277|56=TRAX|58=user requested|10=082|8=FIX.4.4|9=96|35=A|34=1|49=PUBQA3Version4|52=20180813-14:16:50.474|56=TRAX|98=0|108=30|95=8|96=3.0.0rc3|141=Y|10=198|8=FIX.4.4|9=79|35=5|34=2|49=PUBQA3Version4|52=20180813-14:17:01.479|56=TRAX|58=user requested|10=076|