8=FIX.4.4|9=91|35=A|34=1|49=T2Kauaiblk5|52=20210203-10:47:33.690|56=MA|98=0|108=90|95=8|96=3.0.0rc5|141=Y|10=037|8=FIX.4.4|9=699|35=E|34=2|49=T2Kauaiblk5|52=20210203-10:47:39.113|56=MA|66=ListID-030221-1372|394=2|68=5|73=5|11=ClOrdID-1373|22=4|38=100000|44=100|48=US06051GEN51|54=1|55=[N/A/]|63=3|67=1|423=1|29726=100.25|453=1|448=T2Kauaiblk5|447=C|452=11|11=ClOrdID-1374|22=4|38=100000|44=101|48=US40434AAB52|54=1|55=[N/A]|63=3|67=2|29726=101.25|11=ClOrdID-1375|22=4|38=130000|44=102|48=US95709TAH32|54=1|55=[N/A/]|63=3|67=1|29726=102.25|453=1|448=T2Kauaiblk5|447=C|452=11|11=ClOrdID-1376|22=4|38=250000|44=103|48=US025676AH01|54=1|55=[N/A/]|63=3|67=1|29726=103.25|453=1|448=T2Kauaiblk5|447=C|452=11|11=ClOrdID-1377|22=4|38=350000|44=104|48=US29379VAW37|54=1|55=[N/A/]|63=3|67=1|29726=104.25|453=1|448=T2Kauaiblk5|447=C|452=11|10=120|8=FIX.4.4|9=56|35=0|34=3|49=T2Kauaiblk5|52=20210203-10:49:09.689|56=MA|10=078|8=FIX.4.4|9=56|35=0|34=4|49=T2Kauaiblk5|52=20210203-10:50:39.690|56=MA|10=066|8=FIX.4.4|9=56|35=0|34=5|49=T2Kauaiblk5|52=20210203-10:52:09.691|56=MA|10=067|8=FIX.4.4|9=56|35=0|34=6|49=T2Kauaiblk5|52=20210203-10:53:39.692|56=MA|10=073|8=FIX.4.4|9=56|35=0|34=7|49=T2Kauaiblk5|52=20210203-10:55:10.691|56=MA|10=064|8=FIX.4.4|9=56|35=0|34=8|49=T2Kauaiblk5|52=20210203-10:56:40.692|56=MA|10=070|8=FIX.4.4|9=56|35=0|34=9|49=T2Kauaiblk5|52=20210203-10:58:10.692|56=MA|10=070|8=FIX.4.4|9=57|35=0|34=10|49=T2Kauaiblk5|52=20210203-10:59:40.692|56=MA|10=115|8=FIX.4.4|9=57|35=0|34=11|49=T2Kauaiblk5|52=20210203-11:01:10.692|56=MA|10=101|8=FIX.4.4|9=57|35=0|34=12|49=T2Kauaiblk5|52=20210203-11:02:40.692|56=MA|10=106|8=FIX.4.4|9=57|35=0|34=13|49=T2Kauaiblk5|52=20210203-11:04:10.693|56=MA|10=107|8=FIX.4.4|9=57|35=0|34=14|49=T2Kauaiblk5|52=20210203-11:05:40.694|56=MA|10=113|8=FIX.4.4|9=57|35=5|34=15|49=T2Kauaiblk5|52=20210203-11:06:37.697|56=MA|10=129|