8=FIX.4.4|9=91|35=A|34=1|49=T2Kauaiblk3|52=20210203-10:41:46.688|56=MA|98=0|108=90|95=8|96=3.0.0rc5|141=Y|10=040|8=FIX.4.4|9=699|35=E|34=2|49=T2Kauaiblk3|52=20210203-10:41:51.494|56=MA|66=ListID-030221-1348|394=2|68=5|73=5|11=ClOrdID-1349|22=4|38=100000|44=100|48=US06051GEN51|54=1|55=[N/A/]|63=3|67=1|423=1|29726=100.25|453=1|448=T2Kauaiblk3|447=C|452=11|11=ClOrdID-1350|22=4|38=100000|44=101|48=US40434AAB52|54=1|55=[N/A]|63=3|67=2|29726=101.25|11=ClOrdID-1351|22=4|38=130000|44=102|48=US95709TAH32|54=1|55=[N/A/]|63=3|67=1|29726=102.25|453=1|448=T2Kauaiblk3|447=C|452=11|11=ClOrdID-1352|22=4|38=250000|44=103|48=US025676AH01|54=1|55=[N/A/]|63=3|67=1|29726=103.25|453=1|448=T2Kauaiblk3|447=C|452=11|11=ClOrdID-1353|22=4|38=350000|44=104|48=US29379VAW37|54=1|55=[N/A/]|63=3|67=1|29726=104.25|453=1|448=T2Kauaiblk3|447=C|452=11|10=092|8=FIX.4.4|9=56|35=0|34=3|49=T2Kauaiblk3|52=20210203-10:43:21.690|56=MA|10=056|8=FIX.4.4|9=56|35=5|34=4|49=T2Kauaiblk3|52=20210203-10:43:36.690|56=MA|10=068|