8=FIX.4.2|9=91|35=A|34=1|49=JBFIXHUBPRD|52=20190919-15:09:23.568|56=MA|98=0|108=90|95=8|96=3.0.0rc5|141=Y|10=151|8=FIX.4.2|9=300|35=D|34=2|49=JBFIXHUBPRD|52=20190919-15:09:42.550|56=MA|6606=JBTraderID|11=MMAD_HG_190919A-1003|63=3|21=1|55=US694032AT09|65=[NONE]|48=US694032AT09|22=4|54=1|60=20190919-15:09:42.550|38=1000000|40=2|44=119.5|6614=1|15=USD|59=0|47=P|22205=MMAD@MKTXClientID.com|22207=MMAD@MKTXInvDcsnMkr.com|1300=BMTF|10=103|8=FIX.4.2|9=56|35=0|34=3|49=JBFIXHUBPRD|52=20190919-15:11:12.568|56=MA|10=170|8=FIX.4.2|9=56|35=0|34=4|49=JBFIXHUBPRD|52=20190919-15:12:42.568|56=MA|10=175|8=FIX.4.2|9=56|35=0|34=5|49=JBFIXHUBPRD|52=20190919-15:14:12.568|56=MA|10=175|8=FIX.4.2|9=56|35=0|34=6|49=JBFIXHUBPRD|52=20190919-15:15:42.568|56=MA|10=180|8=FIX.4.2|9=56|35=0|34=7|49=JBFIXHUBPRD|52=20190919-15:17:13.567|56=MA|10=180|8=FIX.4.2|9=56|35=0|34=8|49=JBFIXHUBPRD|52=20190919-15:18:44.567|56=MA|10=186|8=FIX.4.2|9=56|35=0|34=9|49=JBFIXHUBPRD|52=20190919-15:20:14.988|56=MA|10=184|8=FIX.4.2|9=57|35=0|34=10|49=JBFIXHUBPRD|52=20190919-15:21:45.565|56=MA|10=221|8=FIX.4.2|9=57|35=0|34=11|49=JBFIXHUBPRD|52=20190919-15:23:15.565|56=MA|10=221|8=FIX.4.2|9=57|35=0|34=12|49=JBFIXHUBPRD|52=20190919-15:24:45.565|56=MA|10=226|8=FIX.4.2|9=57|35=0|34=13|49=JBFIXHUBPRD|52=20190919-15:26:15.565|56=MA|10=226|8=FIX.4.2|9=57|35=0|34=14|49=JBFIXHUBPRD|52=20190919-15:27:45.566|56=MA|10=232|8=FIX.4.2|9=57|35=0|34=15|49=JBFIXHUBPRD|52=20190919-15:29:16.564|56=MA|10=231|8=FIX.4.2|9=57|35=0|34=16|49=JBFIXHUBPRD|52=20190919-15:30:46.565|56=MA|10=228|8=FIX.4.2|9=57|35=0|34=17|49=JBFIXHUBPRD|52=20190919-15:32:17.564|56=MA|10=228|8=FIX.4.2|9=57|35=0|34=18|49=JBFIXHUBPRD|52=20190919-15:33:47.564|56=MA|10=233|8=FIX.4.2|9=57|35=0|34=19|49=JBFIXHUBPRD|52=20190919-15:35:18.562|56=MA|10=232|8=FIX.4.2|9=57|35=0|34=20|49=JBFIXHUBPRD|52=20190919-15:36:48.563|56=MA|10=229|8=FIX.4.2|9=57|35=0|34=21|49=JBFIXHUBPRD|52=20190919-15:38:19.562|56=MA|10=229|8=FIX.4.2|9=57|35=0|34=22|49=JBFIXHUBPRD|52=20190919-15:39:50.563|56=MA|10=227|8=FIX.4.2|9=57|35=0|34=23|49=JBFIXHUBPRD|52=20190919-15:41:21.561|56=MA|10=217|8=FIX.4.2|9=57|35=0|34=24|49=JBFIXHUBPRD|52=20190919-15:42:51.561|56=MA|10=222|8=FIX.4.2|9=57|35=0|34=25|49=JBFIXHUBPRD|52=20190919-15:44:21.561|56=MA|10=222|8=FIX.4.2|9=57|35=0|34=26|49=JBFIXHUBPRD|52=20190919-15:45:52.560|56=MA|10=227|8=FIX.4.2|9=57|35=0|34=27|49=JBFIXHUBPRD|52=20190919-15:47:22.561|56=MA|10=228|8=FIX.4.2|9=57|35=0|34=28|49=JBFIXHUBPRD|52=20190919-15:48:53.560|56=MA|10=233|8=FIX.4.2|9=57|35=0|34=29|49=JBFIXHUBPRD|52=20190919-15:50:23.560|56=MA|10=224|8=FIX.4.2|9=57|35=0|34=30|49=JBFIXHUBPRD|52=20190919-15:51:54.560|56=MA|10=221|8=FIX.4.2|9=57|35=0|34=31|49=JBFIXHUBPRD|52=20190919-15:53:25.559|56=MA|10=230|8=FIX.4.2|9=57|35=0|34=32|49=JBFIXHUBPRD|52=20190919-15:54:56.558|56=MA|10=235|8=FIX.4.2|9=57|35=0|34=33|49=JBFIXHUBPRD|52=20190919-15:56:26.559|56=MA|10=236|8=FIX.4.2|9=57|35=0|34=34|49=JBFIXHUBPRD|52=20190919-15:57:56.559|56=MA|10=241|8=FIX.4.2|9=57|35=0|34=35|49=JBFIXHUBPRD|52=20190919-15:59:27.558|56=MA|10=241|8=FIX.4.2|9=57|35=0|34=36|49=JBFIXHUBPRD|52=20190919-16:00:58.557|56=MA|10=232|8=FIX.4.2|9=57|35=0|34=37|49=JBFIXHUBPRD|52=20190919-16:02:29.555|56=MA|10=231|8=FIX.4.2|9=57|35=0|34=38|49=JBFIXHUBPRD|52=20190919-16:03:59.557|56=MA|10=238|8=FIX.4.2|9=57|35=0|34=39|49=JBFIXHUBPRD|52=20190919-16:05:30.557|56=MA|10=230|8=FIX.4.2|9=57|35=0|34=40|49=JBFIXHUBPRD|52=20190919-16:07:00.557|56=MA|10=221|8=FIX.4.2|9=57|35=0|34=41|49=JBFIXHUBPRD|52=20190919-16:08:31.555|56=MA|10=225|8=FIX.4.2|9=57|35=0|34=42|49=JBFIXHUBPRD|52=20190919-16:10:01.556|56=MA|10=217|8=FIX.4.2|9=57|35=0|34=43|49=JBFIXHUBPRD|52=20190919-16:11:32.555|56=MA|10=222|8=FIX.4.2|9=57|35=0|34=44|49=JBFIXHUBPRD|52=20190919-16:13:03.554|56=MA|10=222|8=FIX.4.2|9=57|35=0|34=45|49=JBFIXHUBPRD|52=20190919-16:14:34.554|56=MA|10=228|8=FIX.4.2|9=57|35=0|34=46|49=JBFIXHUBPRD|52=20190919-16:16:05.553|56=MA|10=228|8=FIX.4.2|9=57|35=0|34=47|49=JBFIXHUBPRD|52=20190919-16:17:35.553|56=MA|10=233|8=FIX.4.2|9=57|35=0|34=48|49=JBFIXHUBPRD|52=20190919-16:19:06.553|56=MA|10=234|8=FIX.4.2|9=57|35=0|34=49|49=JBFIXHUBPRD|52=20190919-16:20:36.553|56=MA|10=230|8=FIX.4.2|9=57|35=0|34=50|49=JBFIXHUBPRD|52=20190919-16:22:07.552|56=MA|10=221|8=FIX.4.2|9=57|35=0|34=51|49=JBFIXHUBPRD|52=20190919-16:23:37.552|56=MA|10=226|8=FIX.4.2|9=57|35=0|34=52|49=JBFIXHUBPRD|52=20190919-16:25:08.552|56=MA|10=227|8=FIX.4.2|9=57|35=0|34=53|49=JBFIXHUBPRD|52=20190919-16:26:39.550|56=MA|10=231|8=FIX.4.2|9=57|35=0|34=54|49=JBFIXHUBPRD|52=20190919-16:28:09.551|56=MA|10=232|8=FIX.4.2|9=57|35=0|34=55|49=JBFIXHUBPRD|52=20190919-16:29:40.550|56=MA|10=228|8=FIX.4.2|9=57|35=0|34=56|49=JBFIXHUBPRD|52=20190919-16:31:10.550|56=MA|10=219|8=FIX.4.2|9=57|35=0|34=57|49=JBFIXHUBPRD|52=20190919-16:32:40.550|56=MA|10=224|8=FIX.4.2|9=57|35=0|34=58|49=JBFIXHUBPRD|52=20190919-16:34:10.550|56=MA|10=224|8=FIX.4.2|9=57|35=0|34=59|49=JBFIXHUBPRD|52=20190919-16:35:40.550|56=MA|10=229|8=FIX.4.2|9=57|35=0|34=60|49=JBFIXHUBPRD|52=20190919-16:37:11.548|56=MA|10=228|8=FIX.4.2|9=57|35=0|34=61|49=JBFIXHUBPRD|52=20190919-16:38:41.548|56=MA|10=233|8=FIX.4.2|9=57|35=0|34=62|49=JBFIXHUBPRD|52=20190919-16:40:12.549|56=MA|10=226|8=FIX.4.2|9=57|35=0|34=63|49=JBFIXHUBPRD|52=20190919-16:41:43.547|56=MA|10=230|8=FIX.4.2|9=57|35=0|34=64|49=JBFIXHUBPRD|52=20190919-16:43:14.546|56=MA|10=230|8=FIX.4.2|9=57|35=0|34=65|49=JBFIXHUBPRD|52=20190919-16:44:44.547|56=MA|10=236|8=FIX.4.2|9=57|35=0|34=66|49=JBFIXHUBPRD|52=20190919-16:46:15.547|56=MA|10=237|8=FIX.4.2|9=57|35=0|34=67|49=JBFIXHUBPRD|52=20190919-16:47:46.547|56=MA|10=243|8=FIX.4.2|9=57|35=0|34=68|49=JBFIXHUBPRD|52=20190919-16:49:17.546|56=MA|10=243|8=FIX.4.2|9=57|35=0|34=69|49=JBFIXHUBPRD|52=20190919-16:50:48.545|56=MA|10=239|8=FIX.4.2|9=57|35=0|34=70|49=JBFIXHUBPRD|52=20190919-16:52:19.545|56=MA|10=231|8=FIX.4.2|9=57|35=0|34=71|49=JBFIXHUBPRD|52=20190919-16:53:49.545|56=MA|10=236|8=FIX.4.2|9=57|35=0|34=72|49=JBFIXHUBPRD|52=20190919-16:55:19.545|56=MA|10=236|8=FIX.4.2|9=57|35=0|34=73|49=JBFIXHUBPRD|52=20190919-16:56:49.545|56=MA|10=241|8=FIX.4.2|9=57|35=0|34=74|49=JBFIXHUBPRD|52=20190919-16:58:19.546|56=MA|10=242|8=FIX.4.2|9=57|35=0|34=75|49=JBFIXHUBPRD|52=20190919-16:59:50.544|56=MA|10=237|8=FIX.4.2|9=57|35=0|34=76|49=JBFIXHUBPRD|52=20190919-17:01:20.544|56=MA|10=223|8=FIX.4.2|9=57|35=0|34=77|49=JBFIXHUBPRD|52=20190919-17:02:50.544|56=MA|10=228|8=FIX.4.2|9=57|35=0|34=78|49=JBFIXHUBPRD|52=20190919-17:04:21.542|56=MA|10=227|8=FIX.4.2|9=57|35=0|34=79|49=JBFIXHUBPRD|52=20190919-17:05:51.542|56=MA|10=232|8=FIX.4.2|9=57|35=0|34=80|49=JBFIXHUBPRD|52=20190919-17:07:21.542|56=MA|10=223|8=FIX.4.2|9=57|35=0|34=81|49=JBFIXHUBPRD|52=20190919-17:08:51.542|56=MA|10=228|8=FIX.4.2|9=57|35=0|34=82|49=JBFIXHUBPRD|52=20190919-17:10:22.542|56=MA|10=220|8=FIX.4.2|9=57|35=0|34=83|49=JBFIXHUBPRD|52=20190919-17:11:52.542|56=MA|10=225|8=FIX.4.2|9=57|35=0|34=84|49=JBFIXHUBPRD|52=20190919-17:13:23.541|56=MA|10=225|8=FIX.4.2|9=57|35=0|34=85|49=JBFIXHUBPRD|52=20190919-17:14:54.540|56=MA|10=230|8=FIX.4.2|9=57|35=0|34=86|49=JBFIXHUBPRD|52=20190919-17:16:25.540|56=MA|10=231|8=FIX.4.2|9=57|35=0|34=87|49=JBFIXHUBPRD|52=20190919-17:17:56.540|56=MA|10=237|8=FIX.4.2|9=57|35=0|34=88|49=JBFIXHUBPRD|52=20190919-17:19:27.539|56=MA|10=246|8=FIX.4.2|9=57|35=0|34=89|49=JBFIXHUBPRD|52=20190919-17:20:57.539|56=MA|10=242|8=FIX.4.2|9=57|35=0|34=90|49=JBFIXHUBPRD|52=20190919-17:22:28.538|56=MA|10=233|8=FIX.4.2|9=57|35=0|34=91|49=JBFIXHUBPRD|52=20190919-17:23:58.538|56=MA|10=238|8=FIX.4.2|9=57|35=0|34=92|49=JBFIXHUBPRD|52=20190919-17:25:28.539|56=MA|10=239|8=FIX.4.2|9=57|35=0|34=93|49=JBFIXHUBPRD|52=20190919-17:26:59.538|56=MA|10=244|8=FIX.4.2|9=57|35=0|34=94|49=JBFIXHUBPRD|52=20190919-17:28:30.537|56=MA|10=235|8=FIX.4.2|9=57|35=0|34=95|49=JBFIXHUBPRD|52=20190919-17:30:01.536|56=MA|10=226|8=FIX.4.2|9=57|35=0|34=96|49=JBFIXHUBPRD|52=20190919-17:31:31.537|56=MA|10=232|8=FIX.4.2|9=57|35=0|34=97|49=JBFIXHUBPRD|52=20190919-17:33:02.536|56=MA|10=232|8=FIX.4.2|9=57|35=0|34=98|49=JBFIXHUBPRD|52=20190919-17:34:32.537|56=MA|10=238|8=FIX.4.2|9=57|35=0|34=99|49=JBFIXHUBPRD|52=20190919-17:36:03.536|56=MA|10=238|8=FIX.4.2|9=58|35=0|34=100|49=JBFIXHUBPRD|52=20190919-17:37:33.537|56=MA|10=019|8=FIX.4.2|9=58|35=0|34=101|49=JBFIXHUBPRD|52=20190919-17:39:04.535|56=MA|10=018|8=FIX.4.2|9=58|35=0|34=102|49=JBFIXHUBPRD|52=20190919-17:40:35.534|56=MA|10=014|8=FIX.4.2|9=58|35=0|34=103|49=JBFIXHUBPRD|52=20190919-17:42:05.534|56=MA|10=014|8=FIX.4.2|9=58|35=0|34=104|49=JBFIXHUBPRD|52=20190919-17:43:35.534|56=MA|10=019|8=FIX.4.2|9=58|35=0|34=105|49=JBFIXHUBPRD|52=20190919-17:45:06.533|56=MA|10=019|8=FIX.4.2|9=58|35=0|34=106|49=JBFIXHUBPRD|52=20190919-17:46:37.532|56=MA|10=024|8=FIX.4.2|9=58|35=0|34=107|49=JBFIXHUBPRD|52=20190919-17:48:07.532|56=MA|10=024|8=FIX.4.2|9=58|35=0|34=108|49=JBFIXHUBPRD|52=20190919-17:49:37.532|56=MA|10=029|8=FIX.4.2|9=58|35=0|34=109|49=JBFIXHUBPRD|52=20190919-17:51:07.533|56=MA|10=021|8=FIX.4.2|9=58|35=0|34=110|49=JBFIXHUBPRD|52=20190919-17:52:38.531|56=MA|10=016|8=FIX.4.2|9=58|35=0|34=111|49=JBFIXHUBPRD|52=20190919-17:54:08.531|56=MA|10=016|8=FIX.4.2|9=58|35=0|34=112|49=JBFIXHUBPRD|52=20190919-17:55:39.531|56=MA|10=022|8=FIX.4.2|9=58|35=0|34=113|49=JBFIXHUBPRD|52=20190919-17:57:10.531|56=MA|10=014|8=FIX.4.2|9=58|35=0|34=114|49=JBFIXHUBPRD|52=20190919-17:58:41.530|56=MA|10=019|8=FIX.4.2|9=58|35=0|34=115|49=JBFIXHUBPRD|52=20190919-18:00:12.529|56=MA|10=014|8=FIX.4.2|9=58|35=0|34=116|49=JBFIXHUBPRD|52=20190919-18:01:42.530|56=MA|10=011|8=FIX.4.2|9=58|35=0|34=117|49=JBFIXHUBPRD|52=20190919-18:03:13.529|56=MA|10=020|8=FIX.4.2|9=58|35=0|34=118|49=JBFIXHUBPRD|52=20190919-18:04:44.528|56=MA|10=025|8=FIX.4.2|9=58|35=0|34=119|49=JBFIXHUBPRD|52=20190919-18:06:14.529|56=MA|10=026|8=FIX.4.2|9=58|35=0|34=120|49=JBFIXHUBPRD|52=20190919-18:07:45.528|56=MA|10=022|8=FIX.4.2|9=58|35=0|34=121|49=JBFIXHUBPRD|52=20190919-18:09:15.529|56=MA|10=023|8=FIX.4.2|9=58|35=0|34=122|49=JBFIXHUBPRD|52=20190919-18:10:46.528|56=MA|10=019|8=FIX.4.2|9=58|35=0|34=123|49=JBFIXHUBPRD|52=20190919-18:12:17.526|56=MA|10=018|8=FIX.4.2|9=58|35=0|34=124|49=JBFIXHUBPRD|52=20190919-18:13:47.527|56=MA|10=024|8=FIX.4.2|9=58|35=0|34=125|49=JBFIXHUBPRD|52=20190919-18:15:17.527|56=MA|10=024|8=FIX.4.2|9=58|35=0|34=126|49=JBFIXHUBPRD|52=20190919-18:16:48.526|56=MA|10=029|8=FIX.4.2|9=58|35=0|34=127|49=JBFIXHUBPRD|52=20190919-18:18:18.526|56=MA|10=029|8=FIX.4.2|9=58|35=0|34=128|49=JBFIXHUBPRD|52=20190919-18:19:49.525|56=MA|10=034|8=FIX.4.2|9=58|35=0|34=129|49=JBFIXHUBPRD|52=20190919-18:21:19.526|56=MA|10=026|8=FIX.4.2|9=58|35=0|34=130|49=JBFIXHUBPRD|52=20190919-18:22:50.524|56=MA|10=012|8=FIX.4.2|9=58|35=0|34=131|49=JBFIXHUBPRD|52=20190919-18:24:20.525|56=MA|10=013|8=FIX.4.2|9=58|35=0|34=132|49=JBFIXHUBPRD|52=20190919-18:25:51.523|56=MA|10=017|8=FIX.4.2|9=58|35=0|34=133|49=JBFIXHUBPRD|52=20190919-18:27:21.523|56=MA|10=017|8=FIX.4.2|9=58|35=0|34=134|49=JBFIXHUBPRD|52=20190919-18:28:51.523|56=MA|10=022|8=FIX.4.2|9=58|35=0|34=135|49=JBFIXHUBPRD|52=20190919-18:30:21.523|56=MA|10=013|8=FIX.4.2|9=58|35=0|34=136|49=JBFIXHUBPRD|52=20190919-18:31:51.523|56=MA|10=018|8=FIX.4.2|9=58|35=0|34=137|49=JBFIXHUBPRD|52=20190919-18:33:21.523|56=MA|10=018|8=FIX.4.2|9=58|35=0|34=138|49=JBFIXHUBPRD|52=20190919-18:34:51.523|56=MA|10=023|8=FIX.4.2|9=58|35=0|34=139|49=JBFIXHUBPRD|52=20190919-18:36:22.522|56=MA|10=023|8=FIX.4.2|9=58|35=0|34=140|49=JBFIXHUBPRD|52=20190919-18:37:53.521|56=MA|10=019|8=FIX.4.2|9=58|35=0|34=141|49=JBFIXHUBPRD|52=20190919-18:39:23.521|56=MA|10=019|8=FIX.4.2|9=58|35=0|34=142|49=JBFIXHUBPRD|52=20190919-18:40:54.520|56=MA|10=015|8=FIX.4.2|9=58|35=0|34=143|49=JBFIXHUBPRD|52=20190919-18:42:25.519|56=MA|10=024|8=FIX.4.2|9=58|35=0|34=144|49=JBFIXHUBPRD|52=20190919-18:43:55.519|56=MA|10=029|8=FIX.4.2|9=58|35=0|34=145|49=JBFIXHUBPRD|52=20190919-18:45:25.520|56=MA|10=021|8=FIX.4.2|9=58|35=0|34=146|49=JBFIXHUBPRD|52=20190919-18:46:56.520|56=MA|10=027|8=FIX.4.2|9=58|35=0|34=147|49=JBFIXHUBPRD|52=20190919-18:48:27.518|56=MA|10=035|8=FIX.4.2|9=58|35=0|34=148|49=JBFIXHUBPRD|52=20190919-18:49:57.518|56=MA|10=040|8=FIX.4.2|9=58|35=0|34=149|49=JBFIXHUBPRD|52=20190919-18:51:27.518|56=MA|10=031|8=FIX.4.2|9=58|35=0|34=150|49=JBFIXHUBPRD|52=20190919-18:52:58.517|56=MA|10=027|8=FIX.4.2|9=58|35=0|34=151|49=JBFIXHUBPRD|52=20190919-18:54:28.518|56=MA|10=028|8=FIX.4.2|9=58|35=0|34=152|49=JBFIXHUBPRD|52=20190919-18:55:58.518|56=MA|10=033|8=FIX.4.2|9=58|35=0|34=153|49=JBFIXHUBPRD|52=20190919-18:57:29.518|56=MA|10=034|8=FIX.4.2|9=58|35=0|34=154|49=JBFIXHUBPRD|52=20190919-18:59:00.518|56=MA|10=026|8=FIX.4.2|9=58|35=0|34=155|49=JBFIXHUBPRD|52=20190919-19:00:31.516|56=MA|10=016|8=FIX.4.2|9=58|35=0|34=156|49=JBFIXHUBPRD|52=20190919-19:02:01.516|56=MA|10=016|8=FIX.4.2|9=58|35=0|34=157|49=JBFIXHUBPRD|52=20190919-19:03:32.515|56=MA|10=021|8=FIX.4.2|9=58|35=0|34=158|49=JBFIXHUBPRD|52=20190919-19:05:03.515|56=MA|10=022|8=FIX.4.2|9=58|35=0|34=159|49=JBFIXHUBPRD|52=20190919-19:06:33.515|56=MA|10=027|8=FIX.4.2|9=58|35=0|34=160|49=JBFIXHUBPRD|52=20190919-19:08:03.515|56=MA|10=018|8=FIX.4.2|9=58|35=0|34=161|49=JBFIXHUBPRD|52=20190919-19:09:34.514|56=MA|10=023|8=FIX.4.2|9=58|35=0|34=162|49=JBFIXHUBPRD|52=20190919-19:11:04.514|56=MA|10=014|8=FIX.4.2|9=58|35=0|34=163|49=JBFIXHUBPRD|52=20190919-19:12:34.515|56=MA|10=020|8=FIX.4.2|9=58|35=0|34=164|49=JBFIXHUBPRD|52=20190919-19:14:05.514|56=MA|10=020|8=FIX.4.2|9=58|35=0|34=165|49=JBFIXHUBPRD|52=20190919-19:15:35.514|56=MA|10=025|8=FIX.4.2|9=58|35=0|34=166|49=JBFIXHUBPRD|52=20190919-19:17:06.512|56=MA|10=024|8=FIX.4.2|9=58|35=0|34=167|49=JBFIXHUBPRD|52=20190919-19:18:37.511|56=MA|10=029|8=FIX.4.2|9=58|35=0|34=168|49=JBFIXHUBPRD|52=20190919-19:20:07.511|56=MA|10=020|8=FIX.4.2|9=58|35=0|34=169|49=JBFIXHUBPRD|52=20190919-19:21:38.510|56=MA|10=025|8=FIX.4.2|9=58|35=0|34=170|49=JBFIXHUBPRD|52=20190919-19:23:08.510|56=MA|10=016|8=FIX.4.2|9=58|35=0|34=171|49=JBFIXHUBPRD|52=20190919-19:24:38.510|56=MA|10=021|8=FIX.4.2|9=58|35=0|34=172|49=JBFIXHUBPRD|52=20190919-19:26:08.511|56=MA|10=022|8=FIX.4.2|9=58|35=0|34=173|49=JBFIXHUBPRD|52=20190919-19:27:39.510|56=MA|10=027|8=FIX.4.2|9=58|35=0|34=174|49=JBFIXHUBPRD|52=20190919-19:29:09.510|56=MA|10=027|8=FIX.4.2|9=58|35=0|34=175|49=JBFIXHUBPRD|52=20190919-19:30:40.509|56=MA|10=023|8=FIX.4.2|9=58|35=0|34=176|49=JBFIXHUBPRD|52=20190919-19:32:10.509|56=MA|10=023|8=FIX.4.2|9=58|35=0|34=177|49=JBFIXHUBPRD|52=20190919-19:33:41.508|56=MA|10=028|8=FIX.4.2|9=58|35=0|34=178|49=JBFIXHUBPRD|52=20190919-19:35:11.508|56=MA|10=028|8=FIX.4.2|9=58|35=0|34=179|49=JBFIXHUBPRD|52=20190919-19:36:41.509|56=MA|10=034|8=FIX.4.2|9=58|35=0|34=180|49=JBFIXHUBPRD|52=20190919-19:38:11.509|56=MA|10=025|8=FIX.4.2|9=58|35=0|34=181|49=JBFIXHUBPRD|52=20190919-19:39:41.948|56=MA|10=037|8=FIX.4.2|9=58|35=0|34=182|49=JBFIXHUBPRD|52=20190919-19:41:12.507|56=MA|10=020|8=FIX.4.2|9=58|35=0|34=183|49=JBFIXHUBPRD|52=20190919-19:42:42.507|56=MA|10=025|8=FIX.4.2|9=58|35=0|34=184|49=JBFIXHUBPRD|52=20190919-19:44:12.507|56=MA|10=025|8=FIX.4.2|9=58|35=0|34=185|49=JBFIXHUBPRD|52=20190919-19:45:43.505|56=MA|10=029|8=FIX.4.2|9=58|35=0|34=186|49=JBFIXHUBPRD|52=20190919-19:47:14.505|56=MA|10=030|8=FIX.4.2|9=58|35=0|34=187|49=JBFIXHUBPRD|52=20190919-19:48:44.506|56=MA|10=036|8=FIX.4.2|9=58|35=0|34=188|49=JBFIXHUBPRD|52=20190919-19:50:15.504|56=MA|10=026|8=FIX.4.2|9=58|35=0|34=189|49=JBFIXHUBPRD|52=20190919-19:51:45.505|56=MA|10=032|8=FIX.4.2|9=58|35=0|34=190|49=JBFIXHUBPRD|52=20190919-19:53:15.505|56=MA|10=023|8=FIX.4.2|9=58|35=0|34=191|49=JBFIXHUBPRD|52=20190919-19:54:46.504|56=MA|10=028|8=FIX.4.2|9=58|35=0|34=192|49=JBFIXHUBPRD|52=20190919-19:56:17.503|56=MA|10=028|8=FIX.4.2|9=58|35=0|34=193|49=JBFIXHUBPRD|52=20190919-19:57:47.503|56=MA|10=033|8=FIX.4.2|9=58|35=0|34=194|49=JBFIXHUBPRD|52=20190919-19:59:18.503|56=MA|10=034|8=FIX.4.2|9=58|35=0|34=195|49=JBFIXHUBPRD|52=20190919-20:00:49.503|56=MA|10=017|8=FIX.4.2|9=58|35=0|34=196|49=JBFIXHUBPRD|52=20190919-20:02:20.501|56=MA|10=007|8=FIX.4.2|9=58|35=0|34=197|49=JBFIXHUBPRD|52=20190919-20:03:50.501|56=MA|10=012|8=FIX.4.2|9=58|35=0|34=198|49=JBFIXHUBPRD|52=20190919-20:05:20.502|56=MA|10=013|8=FIX.4.2|9=58|35=0|34=199|49=JBFIXHUBPRD|52=20190919-20:06:51.501|56=MA|10=018|8=FIX.4.2|9=58|35=0|34=200|49=JBFIXHUBPRD|52=20190919-20:08:21.502|56=MA|10=001|8=FIX.4.2|9=58|35=0|34=201|49=JBFIXHUBPRD|52=20190919-20:09:52.501|56=MA|10=006|8=FIX.4.2|9=58|35=0|34=202|49=JBFIXHUBPRD|52=20190919-20:11:23.499|56=MA|10=014|8=FIX.4.2|9=58|35=0|34=203|49=JBFIXHUBPRD|52=20190919-20:12:53.499|56=MA|10=019|8=FIX.4.2|9=58|35=0|34=204|49=JBFIXHUBPRD|52=20190919-20:14:23.499|56=MA|10=019|8=FIX.4.2|9=58|35=0|34=205|49=JBFIXHUBPRD|52=20190919-20:15:53.499|56=MA|10=024|8=FIX.4.2|9=58|35=0|34=206|49=JBFIXHUBPRD|52=20190919-20:17:23.500|56=MA|10=007|8=FIX.4.2|9=58|35=0|34=207|49=JBFIXHUBPRD|52=20190919-20:18:54.499|56=MA|10=030|8=FIX.4.2|9=58|35=0|34=208|49=JBFIXHUBPRD|52=20190919-20:20:24.499|56=MA|10=021|8=FIX.4.2|9=58|35=0|34=209|49=JBFIXHUBPRD|52=20190919-20:21:55.498|56=MA|10=026|8=FIX.4.2|9=58|35=0|34=210|49=JBFIXHUBPRD|52=20190919-20:23:26.496|56=MA|10=016|8=FIX.4.2|9=58|35=0|34=211|49=JBFIXHUBPRD|52=20190919-20:24:56.496|56=MA|10=021|8=FIX.4.2|9=58|35=0|34=212|49=JBFIXHUBPRD|52=20190919-20:26:27.495|56=MA|10=021|8=FIX.4.2|9=58|35=0|34=213|49=JBFIXHUBPRD|52=20190919-20:27:57.496|56=MA|10=027|8=FIX.4.2|9=58|35=0|34=214|49=JBFIXHUBPRD|52=20190919-20:29:28.496|56=MA|10=028|8=FIX.4.2|9=58|35=0|34=215|49=JBFIXHUBPRD|52=20190919-20:30:58.496|56=MA|10=024|8=FIX.4.2|9=58|35=0|34=216|49=JBFIXHUBPRD|52=20190919-20:32:29.496|56=MA|10=025|8=FIX.4.2|9=58|35=0|34=217|49=JBFIXHUBPRD|52=20190919-20:34:00.494|56=MA|10=015|8=FIX.4.2|9=58|35=0|34=218|49=JBFIXHUBPRD|52=20190919-20:35:30.494|56=MA|10=020|8=FIX.4.2|9=58|35=0|34=219|49=JBFIXHUBPRD|52=20190919-20:37:00.495|56=MA|10=021|8=FIX.4.2|9=58|35=0|34=220|49=JBFIXHUBPRD|52=20190919-20:38:31.493|56=MA|10=016|8=FIX.4.2|9=58|35=0|34=221|49=JBFIXHUBPRD|52=20190919-20:40:01.495|56=MA|10=009|8=FIX.4.2|9=58|35=0|34=222|49=JBFIXHUBPRD|52=20190919-20:41:32.494|56=MA|10=014|8=FIX.4.2|9=58|35=0|34=223|49=JBFIXHUBPRD|52=20190919-20:43:02.494|56=MA|10=014|8=FIX.4.2|9=58|35=0|34=224|49=JBFIXHUBPRD|52=20190919-20:44:32.494|56=MA|10=019|8=FIX.4.2|9=58|35=0|34=225|49=JBFIXHUBPRD|52=20190919-20:46:02.494|56=MA|10=019|8=FIX.4.2|9=58|35=0|34=226|49=JBFIXHUBPRD|52=20190919-20:47:32.494|56=MA|10=024|8=FIX.4.2|9=58|35=0|34=227|49=JBFIXHUBPRD|52=20190919-20:49:02.494|56=MA|10=024|8=FIX.4.2|9=58|35=0|34=228|49=JBFIXHUBPRD|52=20190919-20:50:32.494|56=MA|10=020|8=FIX.4.2|9=58|35=0|34=229|49=JBFIXHUBPRD|52=20190919-20:52:03.493|56=MA|10=020|8=FIX.4.2|9=58|35=0|34=230|49=JBFIXHUBPRD|52=20190919-20:53:33.495|56=MA|10=018|8=FIX.4.2|9=58|35=0|34=231|49=JBFIXHUBPRD|52=20190919-20:55:04.495|56=MA|10=019|8=FIX.4.2|9=58|35=0|34=232|49=JBFIXHUBPRD|52=20190919-20:56:35.493|56=MA|10=023|8=FIX.4.2|9=58|35=0|34=233|49=JBFIXHUBPRD|52=20190919-20:58:05.495|56=MA|10=025|8=FIX.4.2|9=58|35=0|34=234|49=JBFIXHUBPRD|52=20190919-20:59:36.493|56=MA|10=029|8=FIX.4.2|9=58|35=0|34=235|49=JBFIXHUBPRD|52=20190919-21:01:06.495|56=MA|10=017|8=FIX.4.2|9=58|35=0|34=236|49=JBFIXHUBPRD|52=20190919-21:02:37.493|56=MA|10=021|8=FIX.4.2|9=58|35=0|34=237|49=JBFIXHUBPRD|52=20190919-21:04:07.493|56=MA|10=021|8=FIX.4.2|9=58|35=0|34=238|49=JBFIXHUBPRD|52=20190919-21:05:37.494|56=MA|10=027|8=FIX.4.2|9=58|35=0|34=239|49=JBFIXHUBPRD|52=20190919-21:07:07.494|56=MA|10=027|8=FIX.4.2|9=58|35=0|34=240|49=JBFIXHUBPRD|52=20190919-21:08:37.494|56=MA|10=023|8=FIX.4.2|9=58|35=0|34=241|49=JBFIXHUBPRD|52=20190919-21:10:07.495|56=MA|10=015|8=FIX.4.2|9=58|35=0|34=242|49=JBFIXHUBPRD|52=20190919-21:11:37.495|56=MA|10=020|8=FIX.4.2|9=58|35=0|34=243|49=JBFIXHUBPRD|52=20190919-21:13:08.493|56=MA|10=019|8=FIX.4.2|9=58|35=0|34=244|49=JBFIXHUBPRD|52=20190919-21:14:38.495|56=MA|10=026|8=FIX.4.2|9=58|35=0|34=245|49=JBFIXHUBPRD|52=20190919-21:16:09.494|56=MA|10=026|8=FIX.4.2|9=58|35=0|34=246|49=JBFIXHUBPRD|52=20190919-21:17:40.494|56=MA|10=023|8=FIX.4.2|9=58|35=0|34=247|49=JBFIXHUBPRD|52=20190919-21:19:10.503|56=MA|10=014|8=FIX.4.2|9=58|35=0|34=248|49=JBFIXHUBPRD|52=20190919-21:20:40.517|56=MA|10=015|8=FIX.4.2|9=58|35=0|34=249|49=JBFIXHUBPRD|52=20190919-21:22:10.531|56=MA|10=011|8=FIX.4.2|9=58|35=0|34=250|49=JBFIXHUBPRD|52=20190919-21:23:40.541|56=MA|10=008|8=FIX.4.2|9=58|35=0|34=251|49=JBFIXHUBPRD|52=20190919-21:25:10.542|56=MA|10=009|8=FIX.4.2|9=58|35=0|34=252|49=JBFIXHUBPRD|52=20190919-21:26:40.543|56=MA|10=015|8=FIX.4.2|9=58|35=0|34=253|49=JBFIXHUBPRD|52=20190919-21:28:10.543|56=MA|10=015|8=FIX.4.2|9=58|35=0|34=254|49=JBFIXHUBPRD|52=20190919-21:29:41.543|56=MA|10=021|8=FIX.4.2|9=58|35=0|34=255|49=JBFIXHUBPRD|52=20190919-21:31:11.543|56=MA|10=012|8=FIX.4.2|9=58|35=0|34=256|49=JBFIXHUBPRD|52=20190919-21:32:42.543|56=MA|10=018|8=FIX.4.2|9=58|35=0|34=257|49=JBFIXHUBPRD|52=20190919-21:34:13.542|56=MA|10=018|8=FIX.4.2|9=58|35=0|34=258|49=JBFIXHUBPRD|52=20190919-21:35:44.541|56=MA|10=023|8=FIX.4.2|9=58|35=0|34=259|49=JBFIXHUBPRD|52=20190919-21:37:15.541|56=MA|10=024|8=FIX.4.2|9=58|35=0|34=260|49=JBFIXHUBPRD|52=20190919-21:38:45.541|56=MA|10=020|8=FIX.4.2|9=58|35=0|34=261|49=JBFIXHUBPRD|52=20190919-21:40:16.540|56=MA|10=011|8=FIX.4.2|9=58|35=0|34=262|49=JBFIXHUBPRD|52=20190919-21:41:47.538|56=MA|10=024|8=FIX.4.2|9=58|35=0|34=263|49=JBFIXHUBPRD|52=20190919-21:43:17.539|56=MA|10=025|8=FIX.4.2|9=58|35=0|34=264|49=JBFIXHUBPRD|52=20190919-21:44:48.538|56=MA|10=030|8=FIX.4.2|9=58|35=0|34=265|49=JBFIXHUBPRD|52=20190919-21:46:18.538|56=MA|10=030|8=FIX.4.2|9=58|35=0|34=266|49=JBFIXHUBPRD|52=20190919-21:47:48.539|56=MA|10=036|8=FIX.4.2|9=58|35=0|34=267|49=JBFIXHUBPRD|52=20190919-21:49:19.537|56=MA|10=035|8=FIX.4.2|9=58|35=0|34=268|49=JBFIXHUBPRD|52=20190919-21:50:49.537|56=MA|10=031|8=FIX.4.2|9=58|35=0|34=269|49=JBFIXHUBPRD|52=20190919-21:52:19.538|56=MA|10=032|8=FIX.4.2|9=58|35=0|34=270|49=JBFIXHUBPRD|52=20190919-21:53:50.537|56=MA|10=019|8=FIX.4.2|9=58|35=0|34=271|49=JBFIXHUBPRD|52=20190919-21:55:21.536|56=MA|10=019|8=FIX.4.2|9=58|35=0|34=272|49=JBFIXHUBPRD|52=20190919-21:56:51.536|56=MA|10=024|8=FIX.4.2|9=58|35=0|34=273|49=JBFIXHUBPRD|52=20190919-21:58:22.535|56=MA|10=024|8=FIX.4.2|9=58|35=0|34=274|49=JBFIXHUBPRD|52=20190919-21:59:52.535|56=MA|10=029|8=FIX.4.2|9=58|35=5|34=275|49=JBFIXHUBPRD|52=20190919-21:59:59.983|56=MA|10=049|8=FIX.4.2|9=91|35=A|34=1|49=JBFIXHUBPRD|52=20190923-07:28:25.103|56=MA|98=0|108=90|95=8|96=3.0.0rc5|141=Y|10=135|8=FIX.4.2|9=56|35=0|34=2|49=JBFIXHUBPRD|52=20190923-07:29:56.073|56=MA|10=173|8=FIX.4.2|9=56|35=0|34=3|49=JBFIXHUBPRD|52=20190923-07:31:27.073|56=MA|10=165|8=FIX.4.2|9=56|35=0|34=4|49=JBFIXHUBPRD|52=20190923-07:32:58.073|56=MA|10=171|8=FIX.4.2|9=56|35=0|34=5|49=JBFIXHUBPRD|52=20190923-07:34:29.072|56=MA|10=171|8=FIX.4.2|9=56|35=0|34=6|49=JBFIXHUBPRD|52=20190923-07:35:59.072|56=MA|10=176|8=FIX.4.2|9=56|35=0|34=7|49=JBFIXHUBPRD|52=20190923-07:37:30.072|56=MA|10=168|8=FIX.4.2|9=56|35=0|34=8|49=JBFIXHUBPRD|52=20190923-07:39:01.073|56=MA|10=170|8=FIX.4.2|9=56|35=0|34=9|49=JBFIXHUBPRD|52=20190923-07:40:32.072|56=MA|10=166|8=FIX.4.2|9=57|35=0|34=10|49=JBFIXHUBPRD|52=20190923-07:42:02.073|56=MA|10=207|8=FIX.4.2|9=57|35=0|34=11|49=JBFIXHUBPRD|52=20190923-07:43:33.072|56=MA|10=212|8=FIX.4.2|9=57|35=0|34=12|49=JBFIXHUBPRD|52=20190923-07:45:03.072|56=MA|10=212|8=FIX.4.2|9=57|35=0|34=13|49=JBFIXHUBPRD|52=20190923-07:46:34.072|56=MA|10=218|8=FIX.4.2|9=57|35=0|34=14|49=JBFIXHUBPRD|52=20190923-07:48:05.071|56=MA|10=218|8=FIX.4.2|9=57|35=0|34=15|49=JBFIXHUBPRD|52=20190923-07:49:35.072|56=MA|10=224|8=FIX.4.2|9=57|35=0|34=16|49=JBFIXHUBPRD|52=20190923-07:51:06.071|56=MA|10=215|8=FIX.4.2|9=57|35=0|34=17|49=JBFIXHUBPRD|52=20190923-07:52:36.072|56=MA|10=221|8=FIX.4.2|9=57|35=0|34=18|49=JBFIXHUBPRD|52=20190923-07:54:06.072|56=MA|10=221|8=FIX.4.2|9=57|35=0|34=19|49=JBFIXHUBPRD|52=20190923-07:55:36.072|56=MA|10=226|8=FIX.4.2|9=57|35=0|34=20|49=JBFIXHUBPRD|52=20190923-07:57:07.073|56=MA|10=219|8=FIX.4.2|9=57|35=0|34=21|49=JBFIXHUBPRD|52=20190923-07:58:38.071|56=MA|10=223|8=FIX.4.2|9=57|35=0|34=22|49=JBFIXHUBPRD|52=20190923-08:00:08.072|56=MA|10=210|8=FIX.4.2|9=57|35=0|34=23|49=JBFIXHUBPRD|52=20190923-08:01:39.072|56=MA|10=216|8=FIX.4.2|9=57|35=5|34=24|49=JBFIXHUBPRD|52=20190923-08:02:56.072|56=MA|10=222|8=FIX.4.2|9=57|35=5|34=25|49=JBFIXHUBPRD|52=20190923-08:02:56.156|56=MA|10=226|8=FIX.4.2|9=86|35=A|34=26|49=JBFIXHUBPRD|52=20190926-09:37:10.966|56=MA|98=0|108=90|95=8|96=3.0.0rc5|10=165|8=FIX.4.2|9=107|35=5|34=27|49=JBFIXHUBPRD|52=20190926-09:37:11.086|56=MA|58=MsgSeqNum too low, expecting 41 but received 1|10=223|8=FIX.4.2|9=86|35=A|34=28|49=JBFIXHUBPRD|52=20190926-09:37:15.947|56=MA|98=0|108=90|95=8|96=3.0.0rc5|10=171|8=FIX.4.2|9=107|35=5|34=29|49=JBFIXHUBPRD|52=20190926-09:37:16.031|56=MA|58=MsgSeqNum too low, expecting 41 but received 4|10=223|8=FIX.4.2|9=91|35=A|34=1|49=JBFIXHUBPRD|52=20190926-09:37:20.946|56=MA|98=0|108=90|95=8|96=3.0.0rc5|141=Y|10=150|8=FIX.4.2|9=56|35=0|34=2|49=JBFIXHUBPRD|52=20190926-09:38:51.945|56=MA|10=181|8=FIX.4.2|9=330|35=D|34=3|49=JBFIXHUBPRD|52=20190926-09:39:06.121|56=MA|115=CLIENT|129=MA|6606=jbqaclt1|11=GEMS-276 INBOUND TAG129 40 20190925_01|63=3|21=3|55=US694032AT09|65=[NONE]|48=US694032AT09|22=4|54=1|60=20190923-09:08:43.857|38=100|40=2|44=119.5|6614=1|15=USD|59=0|47=P|22205=MMAD@MKTXClientID.com|22207=MMAD@MKTXInvDcsnMkr.com|1300=XOFF|10=052|8=FIX.4.2|9=56|35=5|34=4|49=JBFIXHUBPRD|52=20190926-09:40:07.945|56=MA|10=182|8=FIX.4.2|9=56|35=5|34=5|49=JBFIXHUBPRD|52=20190926-09:40:08.029|56=MA|10=177|8=FIX.4.2|9=91|35=A|34=1|49=JBFIXHUBPRD|52=20191017-17:55:38.131|56=MA|98=0|108=90|95=8|96=3.0.0rc5|141=Y|10=136|8=FIX.4.2|9=301|35=D|34=2|49=JBFIXHUBPRD|52=20191017-17:55:43.107|56=MA|6606=JBTraderID|11=MMAD_HG_171019AB-1027|63=3|21=1|55=US694032AT09|65=[NONE]|48=US694032AT09|22=4|54=1|60=20191017-17:55:43.107|38=1000000|40=2|44=119.5|6614=1|15=USD|59=0|47=P|22205=MMAD@MKTXClientID.com|22207=MMAD@MKTXInvDcsnMkr.com|1300=BMTF|10=150|8=FIX.4.2|9=56|35=0|34=3|49=JBFIXHUBPRD|52=20191017-17:57:13.132|56=MA|10=160|8=FIX.4.2|9=56|35=0|34=4|49=JBFIXHUBPRD|52=20191017-17:58:44.132|56=MA|10=166|8=FIX.4.2|9=56|35=0|34=5|49=JBFIXHUBPRD|52=20191017-18:00:14.132|56=MA|10=152|8=FIX.4.2|9=56|35=0|34=6|49=JBFIXHUBPRD|52=20191017-18:01:44.132|56=MA|10=157|8=FIX.4.2|9=56|35=0|34=7|49=JBFIXHUBPRD|52=20191017-18:03:15.131|56=MA|10=157|8=FIX.4.2|9=56|35=0|34=8|49=JBFIXHUBPRD|52=20191017-18:04:45.131|56=MA|10=162|8=FIX.4.2|9=56|35=0|34=9|49=JBFIXHUBPRD|52=20191017-18:06:15.131|56=MA|10=162|8=FIX.4.2|9=57|35=0|34=10|49=JBFIXHUBPRD|52=20191017-18:07:45.132|56=MA|10=208|8=FIX.4.2|9=57|35=5|34=11|49=JBFIXHUBPRD|52=20191017-18:08:20.131|56=MA|10=207|8=FIX.4.2|9=57|35=5|34=12|49=JBFIXHUBPRD|52=20191017-18:08:20.216|56=MA|10=212|8=FIX.4.2|9=91|35=A|34=1|49=JBFIXHUBPRD|52=20191128-11:04:41.921|56=MA|98=0|108=90|95=8|96=3.0.0rc5|141=Y|10=128|8=FIX.4.2|9=56|35=0|34=2|49=JBFIXHUBPRD|52=20191128-11:06:12.073|56=MA|10=153|8=FIX.4.2|9=56|35=0|34=3|49=JBFIXHUBPRD|52=20191128-11:07:42.077|56=MA|10=162|8=FIX.4.2|9=299|35=D|34=4|49=JBFIXHUBPRD|52=20191128-11:08:27.079|56=MA|6606=JBTraderID|11=MMAD_HG_281119-1100|63=3|21=1|55=USF43628C734|65=[NONE]|48=USF43628C734|22=4|54=1|60=20191128-11:08:27.079|38=1000000|40=2|44=119.5|6614=1|15=USD|59=0|47=P|22205=MMAD@MKTXClientID.com|22207=MMAD@MKTXInvDcsnMkr.com|1300=BMTF|10=026|8=FIX.4.2|9=56|35=0|34=5|49=JBFIXHUBPRD|52=20191128-11:09:57.888|56=MA|10=182|8=FIX.4.2|9=56|35=0|34=6|49=JBFIXHUBPRD|52=20191128-11:11:27.888|56=MA|10=173|8=FIX.4.2|9=56|35=0|34=7|49=JBFIXHUBPRD|52=20191128-11:12:58.074|56=MA|10=166|8=FIX.4.2|9=56|35=0|34=8|49=JBFIXHUBPRD|52=20191128-11:14:28.076|56=MA|10=168|8=FIX.4.2|9=299|35=D|34=9|49=JBFIXHUBPRD|52=20191128-11:15:52.366|56=MA|6606=JBTraderID|11=MMAD_HG_281119-1101|63=3|21=1|55=US61745E4Z12|65=[NONE]|48=US61745E4Z12|22=4|54=1|60=20191128-11:15:52.366|38=1000000|40=2|44=119.5|6614=1|15=USD|59=0|47=P|22205=MMAD@MKTXClientID.com|22207=MMAD@MKTXInvDcsnMkr.com|1300=BMTF|10=052|8=FIX.4.2|9=57|35=0|34=10|49=JBFIXHUBPRD|52=20191128-11:17:22.886|56=MA|10=216|8=FIX.4.2|9=300|35=D|34=11|49=JBFIXHUBPRD|52=20191128-11:18:08.784|56=MA|6606=JBTraderID|11=MMAD_HG_281119-1102|63=3|21=1|55=US45905UFV17|65=[NONE]|48=US45905UFV17|22=4|54=1|60=20191128-11:18:08.783|38=1000000|40=2|44=119.5|6614=1|15=USD|59=0|47=P|22205=MMAD@MKTXClientID.com|22207=MMAD@MKTXInvDcsnMkr.com|1300=BMTF|10=162|8=FIX.4.2|9=57|35=0|34=12|49=JBFIXHUBPRD|52=20191128-11:19:38.886|56=MA|10=227|8=FIX.4.2|9=57|35=0|34=13|49=JBFIXHUBPRD|52=20191128-11:21:08.886|56=MA|10=218|8=FIX.4.2|9=57|35=0|34=14|49=JBFIXHUBPRD|52=20191128-11:22:39.886|56=MA|10=224|8=FIX.4.2|9=57|35=0|34=15|49=JBFIXHUBPRD|52=20191128-11:24:10.077|56=MA|10=208|8=FIX.4.2|9=57|35=0|34=16|49=JBFIXHUBPRD|52=20191128-11:25:40.077|56=MA|10=213|8=FIX.4.2|9=57|35=0|34=17|49=JBFIXHUBPRD|52=20191128-11:27:10.077|56=MA|10=213|8=FIX.4.2|9=57|35=0|34=18|49=JBFIXHUBPRD|52=20191128-11:28:40.077|56=MA|10=218|8=FIX.4.2|9=57|35=0|34=19|49=JBFIXHUBPRD|52=20191128-11:30:10.077|56=MA|10=209|8=FIX.4.2|9=57|35=0|34=20|49=JBFIXHUBPRD|52=20191128-11:31:40.078|56=MA|10=206|8=FIX.4.2|9=57|35=0|34=21|49=JBFIXHUBPRD|52=20191128-11:33:10.079|56=MA|10=207|8=FIX.4.2|9=57|35=0|34=22|49=JBFIXHUBPRD|52=20191128-11:34:40.079|56=MA|10=212|8=FIX.4.2|9=57|35=0|34=23|49=JBFIXHUBPRD|52=20191128-11:36:10.880|56=MA|10=212|8=FIX.4.2|9=57|35=0|34=24|49=JBFIXHUBPRD|52=20191128-11:37:40.881|56=MA|10=218|8=FIX.4.2|9=57|35=0|34=25|49=JBFIXHUBPRD|52=20191128-11:39:11.879|56=MA|10=226|8=FIX.4.2|9=57|35=0|34=26|49=JBFIXHUBPRD|52=20191128-11:40:41.880|56=MA|10=214|8=FIX.4.2|9=57|35=0|34=27|49=JBFIXHUBPRD|52=20191128-11:42:12.879|56=MA|10=223|8=FIX.4.2|9=57|35=0|34=28|49=JBFIXHUBPRD|52=20191128-11:43:43.879|56=MA|10=229|8=FIX.4.2|9=57|35=0|34=29|49=JBFIXHUBPRD|52=20191128-11:45:14.878|56=MA|10=229|8=FIX.4.2|9=57|35=0|34=30|49=JBFIXHUBPRD|52=20191128-11:46:45.877|56=MA|10=225|8=FIX.4.2|9=57|35=0|34=31|49=JBFIXHUBPRD|52=20191128-11:48:15.877|56=MA|10=225|8=FIX.4.2|9=57|35=0|34=32|49=JBFIXHUBPRD|52=20191128-11:49:46.877|56=MA|10=231|8=FIX.4.2|9=57|35=0|34=33|49=JBFIXHUBPRD|52=20191128-11:51:16.877|56=MA|10=222|8=FIX.4.2|9=57|35=0|34=34|49=JBFIXHUBPRD|52=20191128-11:52:47.875|56=MA|10=226|8=FIX.4.2|9=57|35=0|34=35|49=JBFIXHUBPRD|52=20191128-11:54:17.875|56=MA|10=226|8=FIX.4.2|9=57|35=0|34=36|49=JBFIXHUBPRD|52=20191128-11:55:47.875|56=MA|10=231|8=FIX.4.2|9=57|35=0|34=37|49=JBFIXHUBPRD|52=20191128-11:57:18.874|56=MA|10=231|8=FIX.4.2|9=57|35=0|34=38|49=JBFIXHUBPRD|52=20191128-11:58:48.875|56=MA|10=237|8=FIX.4.2|9=57|35=0|34=39|49=JBFIXHUBPRD|52=20191128-12:00:19.873|56=MA|10=222|8=FIX.4.2|9=57|35=0|34=40|49=JBFIXHUBPRD|52=20191128-12:01:49.873|56=MA|10=218|8=FIX.4.2|9=57|35=0|34=41|49=JBFIXHUBPRD|52=20191128-12:03:20.874|56=MA|10=211|8=FIX.4.2|9=57|35=0|34=42|49=JBFIXHUBPRD|52=20191128-12:04:51.873|56=MA|10=216|8=FIX.4.2|9=57|35=0|34=43|49=JBFIXHUBPRD|52=20191128-12:06:22.872|56=MA|10=216|8=FIX.4.2|9=57|35=0|34=44|49=JBFIXHUBPRD|52=20191128-12:07:53.871|56=MA|10=221|8=FIX.4.2|9=57|35=0|34=45|49=JBFIXHUBPRD|52=20191128-12:09:24.871|56=MA|10=222|8=FIX.4.2|9=57|35=0|34=46|49=JBFIXHUBPRD|52=20191128-12:10:55.870|56=MA|10=218|8=FIX.4.2|9=57|35=0|34=47|49=JBFIXHUBPRD|52=20191128-12:12:25.870|56=MA|10=218|8=FIX.4.2|9=57|35=0|34=48|49=JBFIXHUBPRD|52=20191128-12:13:56.869|56=MA|10=232|8=FIX.4.2|9=57|35=0|34=49|49=JBFIXHUBPRD|52=20191128-12:15:27.868|56=MA|10=232|8=FIX.4.2|9=57|35=0|34=50|49=JBFIXHUBPRD|52=20191128-12:16:57.868|56=MA|10=228|8=FIX.4.2|9=57|35=0|34=51|49=JBFIXHUBPRD|52=20191128-12:18:27.868|56=MA|10=228|8=FIX.4.2|9=57|35=0|34=52|49=JBFIXHUBPRD|52=20191128-12:19:57.869|56=MA|10=234|8=FIX.4.2|9=57|35=0|34=53|49=JBFIXHUBPRD|52=20191128-12:21:28.868|56=MA|10=225|8=FIX.4.2|9=57|35=0|34=54|49=JBFIXHUBPRD|52=20191128-12:22:59.867|56=MA|10=230|8=FIX.4.2|9=57|35=0|34=55|49=JBFIXHUBPRD|52=20191128-12:24:29.867|56=MA|10=230|8=FIX.4.2|9=57|35=0|34=56|49=JBFIXHUBPRD|52=20191128-12:26:00.866|56=MA|10=221|8=FIX.4.2|9=57|35=0|34=57|49=JBFIXHUBPRD|52=20191128-12:27:30.866|56=MA|10=226|8=FIX.4.2|9=57|35=0|34=58|49=JBFIXHUBPRD|52=20191128-12:29:01.865|56=MA|10=226|8=FIX.4.2|9=57|35=0|34=59|49=JBFIXHUBPRD|52=20191128-12:30:32.864|56=MA|10=222|8=FIX.4.2|9=57|35=0|34=60|49=JBFIXHUBPRD|52=20191128-12:32:02.864|56=MA|10=213|8=FIX.4.2|9=57|35=0|34=61|49=JBFIXHUBPRD|52=20191128-12:33:32.894|56=MA|10=221|8=FIX.4.2|9=57|35=0|34=62|49=JBFIXHUBPRD|52=20191128-12:35:03.863|56=MA|10=218|8=FIX.4.2|9=57|35=0|34=63|49=JBFIXHUBPRD|52=20191128-12:36:33.863|56=MA|10=223|8=FIX.4.2|9=57|35=0|34=64|49=JBFIXHUBPRD|52=20191128-12:38:04.862|56=MA|10=223|8=FIX.4.2|9=57|35=0|34=65|49=JBFIXHUBPRD|52=20191128-12:39:34.863|56=MA|10=229|8=FIX.4.2|9=57|35=0|34=66|49=JBFIXHUBPRD|52=20191128-12:41:05.863|56=MA|10=221|8=FIX.4.2|9=57|35=0|34=67|49=JBFIXHUBPRD|52=20191128-12:42:36.862|56=MA|10=226|8=FIX.4.2|9=57|35=0|34=68|49=JBFIXHUBPRD|52=20191128-12:44:07.862|56=MA|10=227|8=FIX.4.2|9=251|35=D|34=69|49=JBFIXHUBPRD|52=20191128-12:44:54.450|56=MA|6606=MMADTrader1|11=MMAD_GTD_261019-1103|63=3|21=1|55=US124661AA71|65=[NONE]|48=US124661AA71|22=4|54=1|60=20191128-12:44:54.450|38=1000000|40=2|44=100.25|6614=1|59=6|432=20191229|47=P|1300=BMTF|10=084|8=FIX.4.2|9=57|35=0|34=70|49=JBFIXHUBPRD|52=20191128-12:46:24.861|56=MA|10=220|8=FIX.4.2|9=57|35=0|34=71|49=JBFIXHUBPRD|52=20191128-12:47:54.861|56=MA|10=225|8=FIX.4.2|9=265|35=D|34=72|49=JBFIXHUBPRD|52=20191128-12:48:31.123|56=MA|6606=MMADTrader1|11=MMAD_GTDT_281119-1104|63=3|21=1|55=US124661AA71|65=[NONE]|48=US124661AA71|22=4|54=1|60=20191128-12:48:31.123|38=1000000|40=2|44=100.25|6614=1|59=6|126=20191203-23:59:00.000|47=P|1300=BMTF|10=045|8=FIX.4.2|9=57|35=0|34=73|49=JBFIXHUBPRD|52=20191128-12:50:01.859|56=MA|10=220|8=FIX.4.2|9=57|35=0|34=74|49=JBFIXHUBPRD|52=20191128-12:51:32.090|56=MA|10=213|8=FIX.4.2|9=57|35=0|34=75|49=JBFIXHUBPRD|52=20191128-12:53:02.091|56=MA|10=214|8=FIX.4.2|9=57|35=0|34=76|49=JBFIXHUBPRD|52=20191128-12:54:32.859|56=MA|10=231|8=FIX.4.2|9=57|35=0|34=77|49=JBFIXHUBPRD|52=20191128-12:56:03.857|56=MA|10=230|8=FIX.4.2|9=57|35=0|34=78|49=JBFIXHUBPRD|52=20191128-12:57:33.858|56=MA|10=236|8=FIX.4.2|9=57|35=0|34=79|49=JBFIXHUBPRD|52=20191128-12:59:04.858|56=MA|10=237|8=FIX.4.2|9=57|35=0|34=80|49=JBFIXHUBPRD|52=20191128-13:00:35.857|56=MA|10=219|8=FIX.4.2|9=57|35=0|34=81|49=JBFIXHUBPRD|52=20191128-13:02:06.857|56=MA|10=220|8=FIX.4.2|9=57|35=0|34=82|49=JBFIXHUBPRD|52=20191128-13:03:37.855|56=MA|10=224|8=FIX.4.2|9=57|35=0|34=83|49=JBFIXHUBPRD|52=20191128-13:05:07.855|56=MA|10=224|8=FIX.4.2|9=57|35=0|34=84|49=JBFIXHUBPRD|52=20191128-13:06:37.855|56=MA|10=229|8=FIX.4.2|9=57|35=0|34=85|49=JBFIXHUBPRD|52=20191128-13:08:08.855|56=MA|10=230|8=FIX.4.2|9=57|35=0|34=86|49=JBFIXHUBPRD|52=20191128-13:09:39.854|56=MA|10=235|8=FIX.4.2|9=57|35=0|34=87|49=JBFIXHUBPRD|52=20191128-13:11:10.853|56=MA|10=217|8=FIX.4.2|9=57|35=0|34=88|49=JBFIXHUBPRD|52=20191128-13:12:41.852|56=MA|10=222|8=FIX.4.2|9=57|35=0|34=89|49=JBFIXHUBPRD|52=20191128-13:14:11.853|56=MA|10=223|8=FIX.4.2|9=57|35=0|34=90|49=JBFIXHUBPRD|52=20191128-13:15:41.853|56=MA|10=219|8=FIX.4.2|9=57|35=0|34=91|49=JBFIXHUBPRD|52=20191128-13:17:12.852|56=MA|10=219|8=FIX.4.2|9=57|35=0|34=92|49=JBFIXHUBPRD|52=20191128-13:18:43.852|56=MA|10=225|8=FIX.4.2|9=57|35=0|34=93|49=JBFIXHUBPRD|52=20191128-13:20:14.852|56=MA|10=217|8=FIX.4.2|9=57|35=0|34=94|49=JBFIXHUBPRD|52=20191128-13:21:45.852|56=MA|10=223|8=FIX.4.2|9=57|35=0|34=95|49=JBFIXHUBPRD|52=20191128-13:23:16.850|56=MA|10=222|8=FIX.4.2|9=57|35=0|34=96|49=JBFIXHUBPRD|52=20191128-13:24:46.851|56=MA|10=228|8=FIX.4.2|9=57|35=0|34=97|49=JBFIXHUBPRD|52=20191128-13:26:17.850|56=MA|10=228|8=FIX.4.2|9=57|35=0|34=98|49=JBFIXHUBPRD|52=20191128-13:27:48.849|56=MA|10=242|8=FIX.4.2|9=57|35=0|34=99|49=JBFIXHUBPRD|52=20191128-13:29:19.850|56=MA|10=235|8=FIX.4.2|9=58|35=0|34=100|49=JBFIXHUBPRD|52=20191128-13:30:50.848|56=MA|10=005|8=FIX.4.2|9=58|35=0|34=101|49=JBFIXHUBPRD|52=20191128-13:32:20.848|56=MA|10=005|8=FIX.4.2|9=58|35=0|34=102|49=JBFIXHUBPRD|52=20191128-13:33:51.848|56=MA|10=011|8=FIX.4.2|9=222|35=D|34=103|49=JBFIXHUBPRD|52=20191128-13:34:53.778|56=MA|6606=MMADTrader1|11=MMADINVLD261019-1105|63=3|21=1|55=NA|65=ISIN|48=US912537TQ07|22=4|54=1|60=20191128-13:34:53.777|38=1000000|40=2|44=100.25|6614=1|59=0|1300=BMTF|10=061|8=FIX.4.2|9=280|35=D|34=104|49=JBFIXHUBPRD|52=20191128-13:36:17.495|56=MA|6606=mmaddison|11=MMAD261019-1106|63=3|21=1|55=US037833AL42|65=[NONE]|48=US037833AL42|22=4|54=1|60=20191128-13:36:17.495|38=1000000|40=2|6614=1|59=0|47=P|22205=MMAD@MKTXClientID.com|22207=MMAD@MKTXInvDcsnMkr.com|1300=BMTF|10=054|8=FIX.4.2|9=234|35=D|34=105|49=JBFIXHUBPRD|52=20191128-13:36:50.337|56=MA|6606=MMADTrader1|11=MMADINVLDMKTSEG_261019-1107|63=3|21=1|55=NA|65=ISIN|48=US20846QBP28|22=4|54=1|60=20191128-13:36:50.336|38=1000000|40=2|44=100.25|6614=1|59=0|47=P|1300=XOFF|10=103|8=FIX.4.2|9=58|35=0|34=106|49=JBFIXHUBPRD|52=20191128-13:38:20.846|56=MA|10=014|8=FIX.4.2|9=58|35=0|34=107|49=JBFIXHUBPRD|52=20191128-13:39:50.847|56=MA|10=020|8=FIX.4.2|9=58|35=0|34=108|49=JBFIXHUBPRD|52=20191128-13:41:21.098|56=MA|10=010|8=FIX.4.2|9=58|35=0|34=109|49=JBFIXHUBPRD|52=20191128-13:42:51.099|56=MA|10=016|8=FIX.4.2|9=58|35=0|34=110|49=JBFIXHUBPRD|52=20191128-13:44:21.846|56=MA|10=007|8=FIX.4.2|9=58|35=0|34=111|49=JBFIXHUBPRD|52=20191128-13:45:52.845|56=MA|10=012|8=FIX.4.2|9=58|35=0|34=112|49=JBFIXHUBPRD|52=20191128-13:47:23.844|56=MA|10=012|8=FIX.4.2|9=58|35=0|34=113|49=JBFIXHUBPRD|52=20191128-13:48:53.845|56=MA|10=018|8=FIX.4.2|9=58|35=0|34=114|49=JBFIXHUBPRD|52=20191128-13:50:24.843|56=MA|10=008|8=FIX.4.2|9=58|35=0|34=115|49=JBFIXHUBPRD|52=20191128-13:51:54.843|56=MA|10=013|8=FIX.4.2|9=58|35=0|34=116|49=JBFIXHUBPRD|52=20191128-13:53:25.842|56=MA|10=013|8=FIX.4.2|9=58|35=0|34=117|49=JBFIXHUBPRD|52=20191128-13:54:55.843|56=MA|10=019|8=FIX.4.2|9=58|35=0|34=118|49=JBFIXHUBPRD|52=20191128-13:56:26.842|56=MA|10=019|8=FIX.4.2|9=58|35=0|34=119|49=JBFIXHUBPRD|52=20191128-13:57:57.842|56=MA|10=025|8=FIX.4.2|9=58|35=0|34=120|49=JBFIXHUBPRD|52=20191128-13:59:28.839|56=MA|10=023|8=FIX.4.2|9=58|35=0|34=121|49=JBFIXHUBPRD|52=20191128-14:00:58.839|56=MA|10=014|8=FIX.4.2|9=58|35=0|34=122|49=JBFIXHUBPRD|52=20191128-14:02:29.837|56=MA|10=013|8=FIX.4.2|9=58|35=0|34=123|49=JBFIXHUBPRD|52=20191128-14:04:00.834|56=MA|10=002|8=FIX.4.2|9=58|35=0|34=124|49=JBFIXHUBPRD|52=20191128-14:05:31.832|56=MA|10=006|8=FIX.4.2|9=58|35=0|34=125|49=JBFIXHUBPRD|52=20191128-14:07:02.831|56=MA|10=006|8=FIX.4.2|9=58|35=0|34=126|49=JBFIXHUBPRD|52=20191128-14:08:33.828|56=MA|10=018|8=FIX.4.2|9=58|35=0|34=127|49=JBFIXHUBPRD|52=20191128-14:10:04.826|56=MA|10=008|8=FIX.4.2|9=58|35=0|34=128|49=JBFIXHUBPRD|52=20191128-14:11:35.824|56=MA|10=012|8=FIX.4.2|9=58|35=0|34=129|49=JBFIXHUBPRD|52=20191128-14:13:06.823|56=MA|10=012|8=FIX.4.2|9=58|35=0|34=130|49=JBFIXHUBPRD|52=20191128-14:14:37.822|56=MA|10=008|8=FIX.4.2|9=58|35=0|34=131|49=JBFIXHUBPRD|52=20191128-14:16:08.820|56=MA|10=007|8=FIX.4.2|9=58|35=0|34=132|49=JBFIXHUBPRD|52=20191128-14:17:39.818|56=MA|10=020|8=FIX.4.2|9=58|35=0|34=133|49=JBFIXHUBPRD|52=20191128-14:19:10.816|56=MA|10=010|8=FIX.4.2|9=58|35=0|34=134|49=JBFIXHUBPRD|52=20191128-14:20:41.814|56=MA|10=005|8=FIX.4.2|9=58|35=0|34=135|49=JBFIXHUBPRD|52=20191128-14:22:12.812|56=MA|10=004|8=FIX.4.2|9=58|35=0|34=136|49=JBFIXHUBPRD|52=20191128-14:23:43.812|56=MA|10=010|8=FIX.4.2|9=58|35=0|34=137|49=JBFIXHUBPRD|52=20191128-14:25:14.809|56=MA|10=017|8=FIX.4.2|9=58|35=0|34=138|49=JBFIXHUBPRD|52=20191128-14:26:45.807|56=MA|10=021|8=FIX.4.2|9=58|35=0|34=139|49=JBFIXHUBPRD|52=20191128-14:28:16.805|56=MA|10=020|8=FIX.4.2|9=58|35=0|34=140|49=JBFIXHUBPRD|52=20191128-14:29:46.805|56=MA|10=016|8=FIX.4.2|9=58|35=0|34=141|49=JBFIXHUBPRD|52=20191128-14:31:17.803|56=MA|10=006|8=FIX.4.2|9=58|35=0|34=142|49=JBFIXHUBPRD|52=20191128-14:32:48.802|56=MA|10=011|8=FIX.4.2|9=58|35=0|34=143|49=JBFIXHUBPRD|52=20191128-14:34:19.801|56=MA|10=011|8=FIX.4.2|9=58|35=0|34=144|49=JBFIXHUBPRD|52=20191128-14:35:50.797|56=MA|10=022|8=FIX.4.2|9=58|35=0|34=145|49=JBFIXHUBPRD|52=20191128-14:37:21.796|56=MA|10=022|8=FIX.4.2|9=58|35=0|34=146|49=JBFIXHUBPRD|52=20191128-14:38:51.796|56=MA|10=027|8=FIX.4.2|9=58|35=0|34=147|49=JBFIXHUBPRD|52=20191128-14:40:22.793|56=MA|10=016|8=FIX.4.2|9=58|35=0|34=148|49=JBFIXHUBPRD|52=20191128-14:41:52.793|56=MA|10=021|8=FIX.4.2|9=58|35=0|34=149|49=JBFIXHUBPRD|52=20191128-14:43:23.790|56=MA|10=019|8=FIX.4.2|9=58|35=0|34=150|49=JBFIXHUBPRD|52=20191128-14:44:54.789|56=MA|10=024|8=FIX.4.2|9=58|35=0|34=151|49=JBFIXHUBPRD|52=20191128-14:46:25.787|56=MA|10=023|8=FIX.4.2|9=58|35=0|34=152|49=JBFIXHUBPRD|52=20191128-14:47:56.786|56=MA|10=028|8=FIX.4.2|9=58|35=0|34=153|49=JBFIXHUBPRD|52=20191128-14:49:27.784|56=MA|10=027|8=FIX.4.2|9=58|35=0|34=154|49=JBFIXHUBPRD|52=20191128-14:50:58.782|56=MA|10=022|8=FIX.4.2|9=58|35=0|34=155|49=JBFIXHUBPRD|52=20191128-14:52:29.781|56=MA|10=022|8=FIX.4.2|9=58|35=0|34=156|49=JBFIXHUBPRD|52=20191128-14:54:00.779|56=MA|10=021|8=FIX.4.2|9=58|35=0|34=157|49=JBFIXHUBPRD|52=20191128-14:55:30.779|56=MA|10=026|8=FIX.4.2|9=58|35=0|34=158|49=JBFIXHUBPRD|52=20191128-14:57:01.777|56=MA|10=025|8=FIX.4.2|9=58|35=0|34=159|49=JBFIXHUBPRD|52=20191128-14:58:32.777|56=MA|10=031|8=FIX.4.2|9=58|35=0|34=160|49=JBFIXHUBPRD|52=20191128-15:00:03.774|56=MA|10=006|8=FIX.4.2|9=58|35=0|34=161|49=JBFIXHUBPRD|52=20191128-15:01:34.773|56=MA|10=011|8=FIX.4.2|9=58|35=0|34=162|49=JBFIXHUBPRD|52=20191128-15:03:04.773|56=MA|10=011|8=FIX.4.2|9=58|35=0|34=163|49=JBFIXHUBPRD|52=20191128-15:04:35.770|56=MA|10=014|8=FIX.4.2|9=58|35=0|34=164|49=JBFIXHUBPRD|52=20191128-15:06:05.770|56=MA|10=014|8=FIX.4.2|9=58|35=0|34=165|49=JBFIXHUBPRD|52=20191128-15:07:36.768|56=MA|10=027|8=FIX.4.2|9=58|35=0|34=166|49=JBFIXHUBPRD|52=20191128-15:09:07.766|56=MA|10=026|8=FIX.4.2|9=58|35=0|34=167|49=JBFIXHUBPRD|52=20191128-15:10:38.765|56=MA|10=022|8=FIX.4.2|9=58|35=0|34=168|49=JBFIXHUBPRD|52=20191128-15:12:09.764|56=MA|10=022|8=FIX.4.2|9=58|35=0|34=169|49=JBFIXHUBPRD|52=20191128-15:13:39.764|56=MA|10=027|8=FIX.4.2|9=58|35=0|34=170|49=JBFIXHUBPRD|52=20191128-15:15:10.761|56=MA|10=007|8=FIX.4.2|9=58|35=0|34=171|49=JBFIXHUBPRD|52=20191128-15:16:41.760|56=MA|10=012|8=FIX.4.2|9=58|35=0|34=172|49=JBFIXHUBPRD|52=20191128-15:18:12.759|56=MA|10=021|8=FIX.4.2|9=58|35=0|34=173|49=JBFIXHUBPRD|52=20191128-15:19:43.757|56=MA|10=025|8=FIX.4.2|9=58|35=0|34=174|49=JBFIXHUBPRD|52=20191128-15:21:13.757|56=MA|10=016|8=FIX.4.2|9=58|35=0|34=175|49=JBFIXHUBPRD|52=20191128-15:22:44.755|56=MA|10=020|8=FIX.4.2|9=58|35=0|34=176|49=JBFIXHUBPRD|52=20191128-15:24:15.755|56=MA|10=021|8=FIX.4.2|9=58|35=0|34=177|49=JBFIXHUBPRD|52=20191128-15:25:46.752|56=MA|10=024|8=FIX.4.2|9=58|35=0|34=178|49=JBFIXHUBPRD|52=20191128-15:27:17.751|56=MA|10=024|8=FIX.4.2|9=58|35=0|34=179|49=JBFIXHUBPRD|52=20191128-15:28:48.750|56=MA|10=029|8=FIX.4.2|9=58|35=0|34=180|49=JBFIXHUBPRD|52=20191128-15:30:19.749|56=MA|10=020|8=FIX.4.2|9=58|35=0|34=181|49=JBFIXHUBPRD|52=20191128-15:31:50.748|56=MA|10=016|8=FIX.4.2|9=58|35=0|34=182|49=JBFIXHUBPRD|52=20191128-15:33:21.747|56=MA|10=016|8=FIX.4.2|9=58|35=0|34=183|49=JBFIXHUBPRD|52=20191128-15:34:52.745|56=MA|10=020|8=FIX.4.2|9=58|35=0|34=184|49=JBFIXHUBPRD|52=20191128-15:36:23.744|56=MA|10=020|8=FIX.4.2|9=58|35=0|34=185|49=JBFIXHUBPRD|52=20191128-15:37:54.745|56=MA|10=027|8=FIX.4.2|9=76|35=5|34=186|49=JBFIXHUBPRD|52=20191128-15:38:19.862|56=MA|58=user requested|10=127|8=FIX.4.2|9=91|35=A|34=1|49=JBFIXHUBPRD|52=20191203-10:47:18.526|56=MA|98=0|108=90|95=8|96=3.0.0rc5|141=Y|10=133|8=FIX.4.2|9=91|35=A|34=1|49=JBFIXHUBPRD|52=20191203-10:58:13.522|56=MA|98=0|108=90|95=8|96=3.0.0rc5|141=Y|10=126|8=FIX.4.2|9=56|35=0|34=2|49=JBFIXHUBPRD|52=20191203-10:59:44.172|56=MA|10=159|8=FIX.4.2|9=299|35=D|34=3|49=JBFIXHUBPRD|52=20191203-11:00:57.110|56=MA|6606=JBTraderID|11=MMAD_HG_031219-1108|63=3|21=1|55=US45905UFV17|65=[NONE]|48=US45905UFV17|22=4|54=1|60=20191203-11:00:57.109|38=1000000|40=2|44=119.5|6614=1|15=USD|59=0|47=P|22205=MMAD@MKTXClientID.com|22207=MMAD@MKTXInvDcsnMkr.com|1300=BMTF|10=085|8=FIX.4.2|9=56|35=0|34=4|49=JBFIXHUBPRD|52=20191203-11:02:27.521|56=MA|10=149|8=FIX.4.2|9=56|35=0|34=5|49=JBFIXHUBPRD|52=20191203-11:03:57.521|56=MA|10=154|8=FIX.4.2|9=56|35=0|34=6|49=JBFIXHUBPRD|52=20191203-11:05:28.169|56=MA|10=163|8=FIX.4.2|9=56|35=0|34=7|49=JBFIXHUBPRD|52=20191203-11:06:58.170|56=MA|10=160|8=FIX.4.2|9=56|35=0|34=8|49=JBFIXHUBPRD|52=20191203-11:08:28.519|56=MA|10=167|8=FIX.4.2|9=56|35=0|34=9|49=JBFIXHUBPRD|52=20191203-11:09:58.519|56=MA|10=172|8=FIX.4.2|9=57|35=0|34=10|49=JBFIXHUBPRD|52=20191203-11:11:29.517|56=MA|10=202|8=FIX.4.2|9=57|35=0|34=11|49=JBFIXHUBPRD|52=20191203-11:12:59.517|56=MA|10=207|8=FIX.4.2|9=57|35=0|34=12|49=JBFIXHUBPRD|52=20191203-11:14:29.517|56=MA|10=207|8=FIX.4.2|9=57|35=0|34=13|49=JBFIXHUBPRD|52=20191203-11:15:59.517|56=MA|10=212|8=FIX.4.2|9=57|35=0|34=14|49=JBFIXHUBPRD|52=20191203-11:17:29.517|56=MA|10=212|8=FIX.4.2|9=57|35=0|34=15|49=JBFIXHUBPRD|52=20191203-11:19:00.515|56=MA|10=202|8=FIX.4.2|9=57|35=0|34=16|49=JBFIXHUBPRD|52=20191203-11:20:30.515|56=MA|10=198|8=FIX.4.2|9=57|35=0|34=17|49=JBFIXHUBPRD|52=20191203-11:22:01.515|56=MA|10=199|8=FIX.4.2|9=57|35=0|34=18|49=JBFIXHUBPRD|52=20191203-11:23:32.514|56=MA|10=204|8=FIX.4.2|9=57|35=0|34=19|49=JBFIXHUBPRD|52=20191203-11:25:02.514|56=MA|10=204|8=FIX.4.2|9=57|35=0|34=20|49=JBFIXHUBPRD|52=20191203-11:26:33.513|56=MA|10=200|8=FIX.4.2|9=57|35=0|34=21|49=JBFIXHUBPRD|52=20191203-11:28:04.513|56=MA|10=201|8=FIX.4.2|9=57|35=0|34=22|49=JBFIXHUBPRD|52=20191203-11:29:35.512|56=MA|10=206|8=FIX.4.2|9=57|35=0|34=23|49=JBFIXHUBPRD|52=20191203-11:31:06.511|56=MA|10=197|8=FIX.4.2|9=57|35=0|34=24|49=JBFIXHUBPRD|52=20191203-11:32:37.510|56=MA|10=202|8=FIX.4.2|9=57|35=0|34=25|49=JBFIXHUBPRD|52=20191203-11:34:07.511|56=MA|10=203|8=FIX.4.2|9=57|35=0|34=26|49=JBFIXHUBPRD|52=20191203-11:35:38.511|56=MA|10=209|8=FIX.4.2|9=57|35=0|34=27|49=JBFIXHUBPRD|52=20191203-11:37:09.509|56=MA|10=217|8=FIX.4.2|9=57|35=0|34=28|49=JBFIXHUBPRD|52=20191203-11:38:39.509|56=MA|10=222|8=FIX.4.2|9=229|35=D|34=29|49=JBFIXHUBPRD|52=20191203-11:39:09.631|56=MA|6606=MMADTrader1|11=MMAD-ISINUNKNOWN_031219-1109|63=3|21=1|55=NA|65=ISIN|48=US1235652132|22=4|54=1|60=20191203-11:39:09.630|38=1000000|40=2|44=100.25|6614=1|59=0|1300=BMTF|10=041|8=FIX.4.2|9=57|35=0|34=30|49=JBFIXHUBPRD|52=20191203-11:40:40.179|56=MA|10=203|8=FIX.4.2|9=57|35=0|34=31|49=JBFIXHUBPRD|52=20191203-11:42:10.507|56=MA|10=198|8=FIX.4.2|9=57|35=0|34=32|49=JBFIXHUBPRD|52=20191203-11:43:40.507|56=MA|10=203|8=FIX.4.2|9=57|35=0|34=33|49=JBFIXHUBPRD|52=20191203-11:45:10.508|56=MA|10=204|8=FIX.4.2|9=57|35=0|34=34|49=JBFIXHUBPRD|52=20191203-11:46:41.506|56=MA|10=208|8=FIX.4.2|9=57|35=0|34=35|49=JBFIXHUBPRD|52=20191203-11:48:11.506|56=MA|10=208|8=FIX.4.2|9=57|35=0|34=36|49=JBFIXHUBPRD|52=20191203-11:49:42.505|56=MA|10=213|8=FIX.4.2|9=57|35=0|34=37|49=JBFIXHUBPRD|52=20191203-11:51:12.505|56=MA|10=204|8=FIX.4.2|9=217|35=D|34=38|49=JBFIXHUBPRD|52=20191203-11:51:27.155|56=MA|6606=MMADTrader1|11=MMAD-INVLSIZE-031219-1110|63=3|21=1|55=NA|65=ISIN|48=US902917AH67|22=4|54=1|60=20191203-11:51:27.154|38=0.5|40=2|44=100.25|6614=1|59=0|47=P|10=055|8=FIX.4.2|9=57|35=0|34=39|49=JBFIXHUBPRD|52=20191203-11:52:57.505|56=MA|10=216|8=FIX.4.2|9=57|35=0|34=40|49=JBFIXHUBPRD|52=20191203-11:54:27.505|56=MA|10=207|8=FIX.4.2|9=57|35=0|34=41|49=JBFIXHUBPRD|52=20191203-11:55:58.177|56=MA|10=218|8=FIX.4.2|9=57|35=0|34=42|49=JBFIXHUBPRD|52=20191203-11:57:28.503|56=MA|10=211|8=FIX.4.2|9=57|35=0|34=43|49=JBFIXHUBPRD|52=20191203-11:58:59.502|56=MA|10=216|8=FIX.4.2|9=57|35=0|34=44|49=JBFIXHUBPRD|52=20191203-12:00:29.502|56=MA|10=202|8=FIX.4.2|9=57|35=0|34=45|49=JBFIXHUBPRD|52=20191203-12:01:59.503|56=MA|10=208|8=FIX.4.2|9=57|35=0|34=46|49=JBFIXHUBPRD|52=20191203-12:03:30.501|56=MA|10=198|8=FIX.4.2|9=300|35=D|34=47|49=JBFIXHUBPRD|52=20191203-12:03:55.164|56=MA|6606=JBTraderID|11=MMAD_HG_031219-1111|63=3|21=1|55=US45905UFV17|65=[NONE]|48=US45905UFV17|22=4|54=1|60=20191203-12:03:55.164|38=1000000|40=2|44=119.5|6614=1|15=USD|59=0|47=P|22205=MMAD@MKTXClientID.com|22207=MMAD@MKTXInvDcsnMkr.com|1300=BMTF|10=132|8=FIX.4.2|9=57|35=0|34=48|49=JBFIXHUBPRD|52=20191203-12:05:25.501|56=MA|10=206|8=FIX.4.2|9=57|35=0|34=49|49=JBFIXHUBPRD|52=20191203-12:06:55.501|56=MA|10=211|8=FIX.4.2|9=57|35=0|34=50|49=JBFIXHUBPRD|52=20191203-12:08:26.179|56=MA|10=214|8=FIX.4.2|9=265|35=D|34=51|49=JBFIXHUBPRD|52=20191203-12:09:38.394|56=MA|6606=MMADTrader1|11=MMAD_GTDT_031219-1112|63=5|21=1|55=US124661AA71|65=[NONE]|48=US124661AA71|22=4|54=1|60=20191203-12:09:38.393|38=1000000|40=2|44=100.25|6614=1|59=6|126=20191203-23:59:00.000|47=P|1300=BMTF|10=052|8=FIX.4.2|9=57|35=0|34=52|49=JBFIXHUBPRD|52=20191203-12:11:08.500|56=MA|10=198|8=FIX.4.2|9=57|35=0|34=53|49=JBFIXHUBPRD|52=20191203-12:12:39.189|56=MA|10=217|8=FIX.4.2|9=57|35=0|34=54|49=JBFIXHUBPRD|52=20191203-12:14:09.499|56=MA|10=221|8=FIX.4.2|9=57|35=0|34=55|49=JBFIXHUBPRD|52=20191203-12:15:40.498|56=MA|10=217|8=FIX.4.2|9=57|35=0|34=56|49=JBFIXHUBPRD|52=20191203-12:17:11.498|56=MA|10=218|8=FIX.4.2|9=57|35=0|34=57|49=JBFIXHUBPRD|52=20191203-12:18:42.495|56=MA|10=221|8=FIX.4.2|9=57|35=0|34=58|49=JBFIXHUBPRD|52=20191203-12:20:13.494|56=MA|10=212|8=FIX.4.2|9=57|35=0|34=59|49=JBFIXHUBPRD|52=20191203-12:21:44.493|56=MA|10=217|8=FIX.4.2|9=57|35=0|34=60|49=JBFIXHUBPRD|52=20191203-12:23:15.491|56=MA|10=207|8=FIX.4.2|9=57|35=0|34=61|49=JBFIXHUBPRD|52=20191203-12:24:46.489|56=MA|10=220|8=FIX.4.2|9=57|35=0|34=62|49=JBFIXHUBPRD|52=20191203-12:26:17.487|56=MA|10=219|8=FIX.4.2|9=57|35=0|34=63|49=JBFIXHUBPRD|52=20191203-12:27:48.484|56=MA|10=222|8=FIX.4.2|9=57|35=0|34=64|49=JBFIXHUBPRD|52=20191203-12:29:19.482|56=MA|10=221|8=FIX.4.2|9=57|35=0|34=65|49=JBFIXHUBPRD|52=20191203-12:30:50.482|56=MA|10=209|8=FIX.4.2|9=57|35=0|34=66|49=JBFIXHUBPRD|52=20191203-12:32:21.479|56=MA|10=216|8=FIX.4.2|9=57|35=0|34=67|49=JBFIXHUBPRD|52=20191203-12:33:52.477|56=MA|10=220|8=FIX.4.2|9=57|35=0|34=68|49=JBFIXHUBPRD|52=20191203-12:35:23.475|56=MA|10=219|8=FIX.4.2|9=57|35=0|34=69|49=JBFIXHUBPRD|52=20191203-12:36:54.473|56=MA|10=223|8=FIX.4.2|9=57|35=0|34=70|49=JBFIXHUBPRD|52=20191203-12:38:25.472|56=MA|10=214|8=FIX.4.2|9=57|35=0|34=71|49=JBFIXHUBPRD|52=20191203-12:39:56.470|56=MA|10=218|8=FIX.4.2|9=57|35=0|34=72|49=JBFIXHUBPRD|52=20191203-12:41:27.468|56=MA|10=217|8=FIX.4.2|9=57|35=0|34=73|49=JBFIXHUBPRD|52=20191203-12:42:58.466|56=MA|10=221|8=FIX.4.2|9=57|35=0|34=74|49=JBFIXHUBPRD|52=20191203-12:44:28.466|56=MA|10=221|8=FIX.4.2|9=57|35=0|34=75|49=JBFIXHUBPRD|52=20191203-12:45:59.465|56=MA|10=226|8=FIX.4.2|9=57|35=0|34=76|49=JBFIXHUBPRD|52=20191203-12:47:30.462|56=MA|10=215|8=FIX.4.2|9=57|35=0|34=77|49=JBFIXHUBPRD|52=20191203-12:49:01.460|56=MA|10=214|8=FIX.4.2|9=57|35=0|34=78|49=JBFIXHUBPRD|52=20191203-12:50:32.459|56=MA|10=219|8=FIX.4.2|9=57|35=5|34=79|49=JBFIXHUBPRD|52=20191203-12:50:41.460|56=MA|10=217|8=FIX.4.2|9=91|35=A|34=1|49=JBFIXHUBPRD|52=20200106-09:40:48.297|56=MA|98=0|108=90|95=8|96=3.0.0rc5|141=Y|10=135|8=FIX.4.2|9=299|35=D|34=2|49=JBFIXHUBPRD|52=20200106-09:41:15.027|56=MA|6606=JBTraderID|11=MMAD_HG_181219-1125|63=3|21=1|55=US45905UFV17|65=[NONE]|48=US45905UFV17|22=4|54=1|60=20200106-09:41:15.027|38=1000000|40=2|44=119.5|6614=1|15=USD|59=0|47=P|22205=MMAD@MKTXClientID.com|22207=MMAD@MKTXInvDcsnMkr.com|1300=BMTF|10=093|8=FIX.4.2|9=299|35=D|34=3|49=JBFIXHUBPRD|52=20200106-09:41:15.181|56=MA|6606=JBTraderID|11=MMAD_HG_181219-1126|63=3|21=1|55=US45905UFV17|65=[NONE]|48=US45905UFV17|22=4|54=1|60=20200106-09:41:15.181|38=1000000|40=2|44=119.5|6614=1|15=USD|59=0|47=P|22205=MMAD@MKTXClientID.com|22207=MMAD@MKTXInvDcsnMkr.com|1300=BMTF|10=097|8=FIX.4.2|9=293|35=D|34=4|49=JBFIXHUBPRD|52=20200106-09:42:10.123|56=MA|6606=JBTraderID|11=MMAD_HY_060120-1127|63=3|21=1|55=US488044AF57|65=[NONE]|48=US488044AF57|22=4|54=1|60=20200106-09:42:10.123|38=1000000|40=2|44=100.25|6614=1|59=0|47=P|22205=MMAD@MKTXClientID.com|22207=MMAD@MKTXInvDcsnMkr.com|1300=XOFF|10=146|8=FIX.4.2|9=293|35=D|34=5|49=JBFIXHUBPRD|52=20200106-09:42:17.051|56=MA|6606=JBTraderID|11=MMAD_HY_060120-1128|63=3|21=1|55=US488044AF57|65=[NONE]|48=US488044AF57|22=4|54=1|60=20200106-09:42:17.051|38=1000000|40=2|44=100.25|6614=1|59=0|47=P|22205=MMAD@MKTXClientID.com|22207=MMAD@MKTXInvDcsnMkr.com|1300=XOFF|10=162|8=FIX.4.2|9=293|35=D|34=6|49=JBFIXHUBPRD|52=20200106-09:42:17.313|56=MA|6606=JBTraderID|11=MMAD_HY_060120-1129|63=3|21=1|55=US488044AF57|65=[NONE]|48=US488044AF57|22=4|54=1|60=20200106-09:42:17.313|38=1000000|40=2|44=100.25|6614=1|59=0|47=P|22205=MMAD@MKTXClientID.com|22207=MMAD@MKTXInvDcsnMkr.com|1300=XOFF|10=166|8=FIX.4.2|9=293|35=D|34=7|49=JBFIXHUBPRD|52=20200106-09:42:17.500|56=MA|6606=JBTraderID|11=MMAD_HY_060120-1130|63=3|21=1|55=US488044AF57|65=[NONE]|48=US488044AF57|22=4|54=1|60=20200106-09:42:17.500|38=1000000|40=2|44=100.25|6614=1|59=0|47=P|22205=MMAD@MKTXClientID.com|22207=MMAD@MKTXInvDcsnMkr.com|1300=XOFF|10=155|8=FIX.4.2|9=293|35=D|34=8|49=JBFIXHUBPRD|52=20200106-09:42:17.675|56=MA|6606=JBTraderID|11=MMAD_HY_060120-1131|63=3|21=1|55=US488044AF57|65=[NONE]|48=US488044AF57|22=4|54=1|60=20200106-09:42:17.674|38=1000000|40=2|44=100.25|6614=1|59=0|47=P|22205=MMAD@MKTXClientID.com|22207=MMAD@MKTXInvDcsnMkr.com|1300=XOFF|10=182|8=FIX.4.2|9=293|35=D|34=9|49=JBFIXHUBPRD|52=20200106-09:42:17.861|56=MA|6606=JBTraderID|11=MMAD_HY_060120-1132|63=3|21=1|55=US488044AF57|65=[NONE]|48=US488044AF57|22=4|54=1|60=20200106-09:42:17.861|38=1000000|40=2|44=100.25|6614=1|59=0|47=P|22205=MMAD@MKTXClientID.com|22207=MMAD@MKTXInvDcsnMkr.com|1300=XOFF|10=179|8=FIX.4.2|9=294|35=D|34=10|49=JBFIXHUBPRD|52=20200106-09:42:18.033|56=MA|6606=JBTraderID|11=MMAD_HY_060120-1133|63=3|21=1|55=US488044AF57|65=[NONE]|48=US488044AF57|22=4|54=1|60=20200106-09:42:18.032|38=1000000|40=2|44=100.25|6614=1|59=0|47=P|22205=MMAD@MKTXClientID.com|22207=MMAD@MKTXInvDcsnMkr.com|1300=XOFF|10=204|8=FIX.4.2|9=294|35=D|34=11|49=JBFIXHUBPRD|52=20200106-09:42:18.195|56=MA|6606=JBTraderID|11=MMAD_HY_060120-1134|63=3|21=1|55=US488044AF57|65=[NONE]|48=US488044AF57|22=4|54=1|60=20200106-09:42:18.195|38=1000000|40=2|44=100.25|6614=1|59=0|47=P|22205=MMAD@MKTXClientID.com|22207=MMAD@MKTXInvDcsnMkr.com|1300=XOFF|10=225|8=FIX.4.2|9=294|35=D|34=12|49=JBFIXHUBPRD|52=20200106-09:42:18.368|56=MA|6606=JBTraderID|11=MMAD_HY_060120-1135|63=3|21=1|55=US488044AF57|65=[NONE]|48=US488044AF57|22=4|54=1|60=20200106-09:42:18.368|38=1000000|40=2|44=100.25|6614=1|59=0|47=P|22205=MMAD@MKTXClientID.com|22207=MMAD@MKTXInvDcsnMkr.com|1300=XOFF|10=231|8=FIX.4.2|9=57|35=0|34=13|49=JBFIXHUBPRD|52=20200106-09:43:49.252|56=MA|10=208|8=FIX.4.2|9=307|35=D|34=14|49=JBFIXHUBPRD|52=20200106-09:44:27.860|56=MA|6606=JBTraderID|11=GEMS-297_060120C_REJECT_01|63=3|21=1|55=USP1619PAB42|65=[NONE]|48=USP1619PAB42|22=4|54=1|60=20191011-15:09:47.857|38=1000000|40=2|44=119.5|6614=1|15=USD|59=0|47=P|22205=MMAD@MKTXClientID.com|22207=MMAD@MKTXInvDcsnMkr.com|1300=BMTF|10=164|8=FIX.4.2|9=307|35=D|34=15|49=JBFIXHUBPRD|52=20200106-09:44:27.861|56=MA|6606=JBTraderID|11=GEMS-297_060120C_ACCEPT_02|63=3|21=1|55=XS1603335610|65=[NONE]|48=XS1603335610|22=4|54=1|60=20191011-15:10:28.898|38=1000000|40=2|44=119.5|6614=1|15=USD|59=0|47=P|22205=MMAD@MKTXClientID.com|22207=MMAD@MKTXInvDcsnMkr.com|1300=BMTF|10=224|8=FIX.4.2|9=307|35=D|34=16|49=JBFIXHUBPRD|52=20200106-09:44:27.861|56=MA|6606=JBTraderID|11=GEMS-297_060120C_REJECT_03|63=3|21=1|55=XS1986771597|65=[NONE]|48=XS1986771597|22=4|54=1|60=20191011-15:15:23.264|38=1000000|40=2|44=119.5|6614=1|15=USD|59=0|47=P|22205=MMAD@MKTXClientID.com|22207=MMAD@MKTXInvDcsnMkr.com|1300=BMTF|10=034|8=FIX.4.2|9=307|35=D|34=17|49=JBFIXHUBPRD|52=20200106-09:44:27.862|56=MA|6606=JBTraderID|11=GEMS-297_060120C_ACCEPT_04|63=3|21=1|55=XS1546429942|65=[NONE]|48=XS1546429942|22=4|54=1|60=20191011-15:19:01.636|38=1000000|40=2|44=119.5|6614=1|15=USD|59=0|47=P|22205=MMAD@MKTXClientID.com|22207=MMAD@MKTXInvDcsnMkr.com|1300=BMTF|10=255|8=FIX.4.2|9=307|35=D|34=18|49=JBFIXHUBPRD|52=20200106-09:44:27.862|56=MA|6606=JBTraderID|11=GEMS-297_060120C_REJECT_05|63=3|21=1|55=US900123CM05|65=[NONE]|48=US900123CM05|22=4|54=1|60=20191011-15:21:17.921|38=1000000|40=2|44=119.5|6614=1|15=USD|59=0|47=P|22205=MMAD@MKTXClientID.com|22207=MMAD@MKTXInvDcsnMkr.com|1300=BMTF|10=049|8=FIX.4.2|9=307|35=D|34=19|49=JBFIXHUBPRD|52=20200106-09:44:27.863|56=MA|6606=JBTraderID|11=GEMS-297_060120C_REJECT_06|63=3|21=1|55=XS1561572287|65=[NONE]|48=XS1561572287|22=4|54=1|60=20191011-15:24:08.025|38=1000000|40=2|44=119.5|6614=1|15=USD|59=0|47=P|22205=MMAD@MKTXClientID.com|22207=MMAD@MKTXInvDcsnMkr.com|1300=BMTF|10=008|8=FIX.4.2|9=307|35=D|34=20|49=JBFIXHUBPRD|52=20200106-09:44:27.863|56=MA|6606=JBTraderID|11=GEMS-297_060120C_REJECT_07|63=3|21=1|55=US045167DX85|65=[NONE]|48=US045167DX85|22=4|54=1|60=20191011-15:26:14.407|38=1000000|40=2|44=119.5|6614=1|15=USD|59=0|47=P|22205=MMAD@MKTXClientID.com|22207=MMAD@MKTXInvDcsnMkr.com|1300=BMTF|10=102|8=FIX.4.2|9=307|35=D|34=21|49=JBFIXHUBPRD|52=20200106-09:44:27.864|56=MA|6606=JBTraderID|11=GEMS-297_060120C_REJECT_08|63=3|21=1|55=US80413TAC36|65=[NONE]|48=US80413TAC36|22=4|54=1|60=20191011-15:27:22.202|38=1000000|40=2|44=119.5|6614=1|15=USD|59=0|47=P|22205=MMAD@MKTXClientID.com|22207=MMAD@MKTXInvDcsnMkr.com|1300=BMTF|10=100|8=FIX.4.2|9=307|35=D|34=22|49=JBFIXHUBPRD|52=20200106-09:44:27.864|56=MA|6606=JBTraderID|11=GEMS-297_060120C_REJECT_09|63=3|21=1|55=US71654QCC42|65=[NONE]|48=US71654QCC42|22=4|54=1|60=20191011-15:28:41.845|38=1000000|40=2|44=119.5|6614=1|15=USD|59=0|47=P|22205=MMAD@MKTXClientID.com|22207=MMAD@MKTXInvDcsnMkr.com|1300=BMTF|10=123|8=FIX.4.2|9=307|35=D|34=23|49=JBFIXHUBPRD|52=20200106-09:44:27.864|56=MA|6606=JBTraderID|11=GEMS-297_060120C_REJECT_10|63=3|21=1|55=XS1057659838|65=[NONE]|48=XS1057659838|22=4|54=1|60=20191011-15:30:13.009|38=1000000|40=2|44=119.5|6614=1|15=USD|59=0|47=P|22205=MMAD@MKTXClientID.com|22207=MMAD@MKTXInvDcsnMkr.com|1300=BMTF|10=010|8=FIX.4.2|9=307|35=D|34=24|49=JBFIXHUBPRD|52=20200106-09:44:27.865|56=MA|6606=JBTraderID|11=GEMS-297_060120C_REJECT_11|63=3|21=1|55=XS1989343303|65=[NONE]|48=XS1989343303|22=4|54=1|60=20191011-15:31:49.146|38=1000000|40=2|44=119.5|6614=1|15=USD|59=0|47=P|22205=MMAD@MKTXClientID.com|22207=MMAD@MKTXInvDcsnMkr.com|1300=BMTF|10=007|8=FIX.4.2|9=307|35=D|34=25|49=JBFIXHUBPRD|52=20200106-09:44:27.866|56=MA|6606=JBTraderID|11=GEMS-297_060120C_REJECT_12|63=3|21=1|55=XS1553212371|65=[NONE]|48=XS1553212371|22=4|54=1|60=20191011-15:37:30.103|38=1000000|40=2|44=119.5|6614=1|15=USD|59=0|47=P|22205=MMAD@MKTXClientID.com|22207=MMAD@MKTXInvDcsnMkr.com|1300=BMTF|10=229|8=FIX.4.2|9=307|35=D|34=26|49=JBFIXHUBPRD|52=20200106-09:44:27.866|56=MA|6606=JBTraderID|11=GEMS-297_060120C_ACCEPT_13|63=3|21=1|55=US032511AY39|65=[NONE]|48=US032511AY39|22=4|54=1|60=20191011-15:39:16.824|38=1000000|40=2|44=119.5|6614=1|15=USD|59=0|47=P|22205=MMAD@MKTXClientID.com|22207=MMAD@MKTXInvDcsnMkr.com|1300=BMTF|10=076|8=FIX.4.2|9=307|35=D|34=27|49=JBFIXHUBPRD|52=20200106-09:44:27.866|56=MA|6606=JBTraderID|11=GEMS-297_060120C_ACCEPT_14|63=3|21=1|55=US079860AA01|65=[NONE]|48=US079860AA01|22=4|54=1|60=20191011-15:41:15.605|38=1000000|40=2|44=119.5|6614=1|15=USD|59=0|47=P|22205=MMAD@MKTXClientID.com|22207=MMAD@MKTXInvDcsnMkr.com|1300=BMTF|10=033|8=FIX.4.2|9=307|35=D|34=28|49=JBFIXHUBPRD|52=20200106-09:44:27.867|56=MA|6606=JBTraderID|11=GEMS-297_060120C_ACCEPT_15|63=3|21=1|55=US686287AM53|65=[NONE]|48=US686287AM53|22=4|54=1|60=20191011-15:41:15.605|38=1000000|40=2|44=119.5|6614=1|15=USD|59=0|47=P|22205=MMAD@MKTXClientID.com|22207=MMAD@MKTXInvDcsnMkr.com|1300=BMTF|10=088|8=FIX.4.2|9=307|35=D|34=29|49=JBFIXHUBPRD|52=20200106-09:44:27.867|56=MA|6606=JBTraderID|11=GEMS-297_060120C_REJECT_16|63=3|21=1|55=US4568376085|65=[NONE]|48=US4568376085|22=4|54=1|60=20191011-15:41:15.605|38=1000000|40=2|44=119.5|6614=1|15=USD|59=0|47=P|22205=MMAD@MKTXClientID.com|22207=MMAD@MKTXInvDcsnMkr.com|1300=BMTF|10=025|8=FIX.4.2|9=307|35=D|34=30|49=JBFIXHUBPRD|52=20200106-09:44:27.867|56=MA|6606=JBTraderID|11=GEMS-297_060120C_REJECT_17|63=3|21=1|55=US09627P6117|65=[NONE]|48=US09627P6117|22=4|54=1|60=20191011-15:41:15.605|38=1000000|40=2|44=119.5|6614=1|15=USD|59=0|47=P|22205=MMAD@MKTXClientID.com|22207=MMAD@MKTXInvDcsnMkr.com|1300=BMTF|10=056|8=FIX.4.2|9=307|35=D|34=31|49=JBFIXHUBPRD|52=20200106-09:44:27.868|56=MA|6606=JBTraderID|11=GEMS-297_060120C_ACCEPT_18|63=3|21=1|55=US037833AL42|65=[NONE]|48=US037833AL42|22=4|54=1|60=20191011-15:41:15.605|38=1000000|40=2|44=119.5|6614=1|15=USD|59=0|47=P|22205=MMAD@MKTXClientID.com|22207=MMAD@MKTXInvDcsnMkr.com|1300=BMTF|10=054|8=FIX.4.2|9=307|35=D|34=32|49=JBFIXHUBPRD|52=20200106-09:44:27.868|56=MA|6606=JBTraderID|11=GEMS-297_060120C_REJECT_19|63=3|21=1|55=XS1960777669|65=[NONE]|48=XS1960777669|22=4|54=1|60=20191011-15:41:15.605|38=1000000|40=2|44=119.5|6614=1|15=USD|59=0|47=P|22205=MMAD@MKTXClientID.com|22207=MMAD@MKTXInvDcsnMkr.com|1300=BMTF|10=041|8=FIX.4.2|9=307|35=D|34=33|49=JBFIXHUBPRD|52=20200106-09:44:27.868|56=MA|6606=JBTraderID|11=GEMS-297_060120C_ACCEPT_20|63=3|21=1|55=XS1854768550|65=[NONE]|48=XS1854768550|22=4|54=1|60=20191011-15:41:15.605|38=1000000|40=2|44=119.5|6614=1|15=USD|59=0|47=P|22205=MMAD@MKTXClientID.com|22207=MMAD@MKTXInvDcsnMkr.com|1300=BMTF|10=003|8=FIX.4.2|9=307|35=D|34=34|49=JBFIXHUBPRD|52=20200106-09:44:27.869|56=MA|6606=JBTraderID|11=GEMS-297_060120C_ACCEPT_21|63=3|21=1|55=US48125TH996|65=[NONE]|48=US48125TH996|22=4|54=1|60=20191011-15:41:15.605|38=1000000|40=2|44=119.5|6614=1|15=USD|59=0|47=P|22205=MMAD@MKTXClientID.com|22207=MMAD@MKTXInvDcsnMkr.com|1300=BMTF|10=110|8=FIX.4.2|9=307|35=D|34=35|49=JBFIXHUBPRD|52=20200106-09:44:27.869|56=MA|6606=JBTraderID|11=GEMS-297_060120C_REJECT_22|63=3|21=1|55=GB0000779529|65=[NONE]|48=GB0000779529|22=4|54=1|60=20191011-15:41:15.605|38=1000000|40=2|44=119.5|6614=1|15=USD|59=0|47=P|22205=MMAD@MKTXClientID.com|22207=MMAD@MKTXInvDcsnMkr.com|1300=BMTF|10=189|8=FIX.4.2|9=307|35=D|34=36|49=JBFIXHUBPRD|52=20200106-09:44:27.869|56=MA|6606=JBTraderID|11=GEMS-297_060120C_ACCEPT_23|63=3|21=1|55=US29134WAB37|65=[NONE]|48=US29134WAB37|22=4|54=1|60=20191011-15:41:15.605|38=1000000|40=2|44=119.5|6614=1|15=USD|59=0|47=P|22205=MMAD@MKTXClientID.com|22207=MMAD@MKTXInvDcsnMkr.com|1300=BMTF|10=112|8=FIX.4.2|9=307|35=D|34=37|49=JBFIXHUBPRD|52=20200106-09:44:27.870|56=MA|6606=JBTraderID|11=GEMS-297_060120C_REJECT_24|63=3|21=1|55=XS0629458851|65=[NONE]|48=XS0629458851|22=4|54=1|60=20191011-15:41:15.605|38=1000000|40=2|44=119.5|6614=1|15=USD|59=0|47=P|22205=MMAD@MKTXClientID.com|22207=MMAD@MKTXInvDcsnMkr.com|1300=BMTF|10=015|8=FIX.4.2|9=307|35=D|34=38|49=JBFIXHUBPRD|52=20200106-09:44:27.870|56=MA|6606=JBTraderID|11=GEMS-297_060120C_ACCEPT_25|63=3|21=1|55=US4581X0CX43|65=[NONE]|48=US4581X0CX43|22=4|54=1|60=20191011-15:41:15.605|38=1000000|40=2|44=119.5|6614=1|15=USD|59=0|47=P|22205=MMAD@MKTXClientID.com|22207=MMAD@MKTXInvDcsnMkr.com|1300=BMTF|10=150|8=FIX.4.2|9=307|35=D|34=39|49=JBFIXHUBPRD|52=20200106-09:44:27.870|56=MA|6606=JBTraderID|11=GEMS-297_060120C_ACCEPT_26|63=3|21=1|55=US368266AA08|65=[NONE]|48=US368266AA08|22=4|54=1|60=20191011-15:41:15.605|38=1000000|40=2|44=119.5|6614=1|15=USD|59=0|47=P|22205=MMAD@MKTXClientID.com|22207=MMAD@MKTXInvDcsnMkr.com|1300=BMTF|10=050|8=FIX.4.2|9=307|35=D|34=40|49=JBFIXHUBPRD|52=20200106-09:44:27.871|56=MA|6606=JBTraderID|11=GEMS-297_060120C_ACCEPT_27|63=3|21=1|55=US124661AA71|65=[NONE]|48=US124661AA71|22=4|54=1|60=20191011-15:41:15.605|38=1000000|40=2|44=119.5|6614=1|15=USD|59=0|47=P|22205=MMAD@MKTXClientID.com|22207=MMAD@MKTXInvDcsnMkr.com|1300=BMTF|10=022|8=FIX.4.2|9=307|35=D|34=41|49=JBFIXHUBPRD|52=20200106-09:44:27.871|56=MA|6606=JBTraderID|11=GEMS-297_060120C_ACCEPT_28|63=3|21=1|55=US45905UFV17|65=[NONE]|48=US45905UFV17|22=4|54=1|60=20191011-15:41:15.605|38=1000000|40=2|44=119.5|6614=1|15=USD|59=0|47=P|22205=MMAD@MKTXClientID.com|22207=MMAD@MKTXInvDcsnMkr.com|1300=BMTF|10=156|8=FIX.4.2|9=57|35=0|34=42|49=JBFIXHUBPRD|52=20200106-09:45:58.267|56=MA|10=218|8=FIX.4.2|9=57|35=0|34=43|49=JBFIXHUBPRD|52=20200106-09:47:28.269|56=MA|10=220|8=FIX.4.2|9=57|35=0|34=44|49=JBFIXHUBPRD|52=20200106-09:48:59.268|56=MA|10=225|8=FIX.4.2|9=57|35=0|34=45|49=JBFIXHUBPRD|52=20200106-09:50:30.267|56=MA|10=207|8=FIX.4.2|9=57|35=0|34=46|49=JBFIXHUBPRD|52=20200106-09:52:01.267|56=MA|10=208|8=FIX.4.2|9=57|35=0|34=47|49=JBFIXHUBPRD|52=20200106-09:53:32.266|56=MA|10=213|8=FIX.4.2|9=57|35=0|34=48|49=JBFIXHUBPRD|52=20200106-09:55:03.263|56=MA|10=211|8=FIX.4.2|9=57|35=0|34=49|49=JBFIXHUBPRD|52=20200106-09:56:33.264|56=MA|10=217|8=FIX.4.2|9=57|35=0|34=50|49=JBFIXHUBPRD|52=20200106-09:58:04.262|56=MA|10=207|8=FIX.4.2|9=57|35=0|34=51|49=JBFIXHUBPRD|52=20200106-09:59:35.247|56=MA|10=216|8=FIX.4.2|9=57|35=0|34=52|49=JBFIXHUBPRD|52=20200106-10:01:05.261|56=MA|10=189|8=FIX.4.2|9=57|35=0|34=53|49=JBFIXHUBPRD|52=20200106-10:02:35.261|56=MA|10=194|8=FIX.4.2|9=57|35=0|34=54|49=JBFIXHUBPRD|52=20200106-10:04:06.260|56=MA|10=194|8=FIX.4.2|9=57|35=0|34=55|49=JBFIXHUBPRD|52=20200106-10:05:36.261|56=MA|10=200|8=FIX.4.2|9=57|35=0|34=56|49=JBFIXHUBPRD|52=20200106-10:07:07.259|56=MA|10=208|8=FIX.4.2|9=57|35=0|34=57|49=JBFIXHUBPRD|52=20200106-10:08:38.258|56=MA|10=213|8=FIX.4.2|9=57|35=0|34=58|49=JBFIXHUBPRD|52=20200106-10:10:09.257|56=MA|10=204|8=FIX.4.2|9=57|35=0|34=59|49=JBFIXHUBPRD|52=20200106-10:11:39.257|56=MA|10=209|8=FIX.4.2|9=57|35=0|34=60|49=JBFIXHUBPRD|52=20200106-10:13:10.257|56=MA|10=192|8=FIX.4.2|9=57|35=0|34=61|49=JBFIXHUBPRD|52=20200106-10:14:41.255|56=MA|10=196|8=FIX.4.2|9=57|35=0|34=62|49=JBFIXHUBPRD|52=20200106-10:16:12.255|56=MA|10=197|8=FIX.4.2|9=57|35=0|34=63|49=JBFIXHUBPRD|52=20200106-10:17:43.254|56=MA|10=202|8=FIX.4.2|9=57|35=0|34=64|49=JBFIXHUBPRD|52=20200106-10:19:13.254|56=MA|10=202|8=FIX.4.2|9=57|35=0|34=65|49=JBFIXHUBPRD|52=20200106-10:20:43.254|56=MA|10=198|8=FIX.4.2|9=57|35=0|34=66|49=JBFIXHUBPRD|52=20200106-10:22:14.251|56=MA|10=196|8=FIX.4.2|9=57|35=0|34=67|49=JBFIXHUBPRD|52=20200106-10:23:44.251|56=MA|10=201|8=FIX.4.2|9=57|35=0|34=68|49=JBFIXHUBPRD|52=20200106-10:25:15.250|56=MA|10=201|8=FIX.4.2|9=57|35=0|34=69|49=JBFIXHUBPRD|52=20200106-10:26:45.251|56=MA|10=207|8=FIX.4.2|9=57|35=0|34=70|49=JBFIXHUBPRD|52=20200106-10:28:16.248|56=MA|10=205|8=FIX.4.2|9=57|35=0|34=71|49=JBFIXHUBPRD|52=20200106-10:29:46.248|56=MA|10=210|8=FIX.4.2|9=57|35=0|34=72|49=JBFIXHUBPRD|52=20200106-10:31:17.248|56=MA|10=202|8=FIX.4.2|9=57|35=0|34=73|49=JBFIXHUBPRD|52=20200106-10:32:48.247|56=MA|10=207|8=FIX.4.2|9=57|35=0|34=74|49=JBFIXHUBPRD|52=20200106-10:34:19.247|56=MA|10=208|8=FIX.4.2|9=57|35=0|34=75|49=JBFIXHUBPRD|52=20200106-10:35:50.245|56=MA|10=203|8=FIX.4.2|9=57|35=0|34=76|49=JBFIXHUBPRD|52=20200106-10:37:20.245|56=MA|10=203|8=FIX.4.2|9=57|35=0|34=77|49=JBFIXHUBPRD|52=20200106-10:38:50.245|56=MA|10=208|8=FIX.4.2|9=57|35=0|34=78|49=JBFIXHUBPRD|52=20200106-10:40:21.243|56=MA|10=198|8=FIX.4.2|9=57|35=0|34=79|49=JBFIXHUBPRD|52=20200106-10:41:52.244|56=MA|10=205|8=FIX.4.2|9=57|35=0|34=80|49=JBFIXHUBPRD|52=20200106-10:43:23.242|56=MA|10=195|8=FIX.4.2|9=57|35=0|34=81|49=JBFIXHUBPRD|52=20200106-10:44:53.242|56=MA|10=200|8=FIX.4.2|9=57|35=0|34=82|49=JBFIXHUBPRD|52=20200106-10:46:24.241|56=MA|10=200|8=FIX.4.2|9=57|35=0|34=83|49=JBFIXHUBPRD|52=20200106-10:47:55.241|56=MA|10=206|8=FIX.4.2|9=57|35=0|34=84|49=JBFIXHUBPRD|52=20200106-10:49:26.240|56=MA|10=206|8=FIX.4.2|9=57|35=0|34=85|49=JBFIXHUBPRD|52=20200106-10:50:57.239|56=MA|10=211|8=FIX.4.2|9=57|35=0|34=86|49=JBFIXHUBPRD|52=20200106-10:52:28.237|56=MA|10=210|8=FIX.4.2|9=57|35=0|34=87|49=JBFIXHUBPRD|52=20200106-10:53:59.238|56=MA|10=217|8=FIX.4.2|9=57|35=0|34=88|49=JBFIXHUBPRD|52=20200106-10:55:30.236|56=MA|10=207|8=FIX.4.2|9=57|35=0|34=89|49=JBFIXHUBPRD|52=20200106-10:57:01.235|56=MA|10=207|8=FIX.4.2|9=57|35=0|34=90|49=JBFIXHUBPRD|52=20200106-10:58:32.234|56=MA|10=203|8=FIX.4.2|9=57|35=0|34=91|49=JBFIXHUBPRD|52=20200106-11:00:02.234|56=MA|10=189|8=FIX.4.2|9=57|35=0|34=92|49=JBFIXHUBPRD|52=20200106-11:01:32.234|56=MA|10=194|8=FIX.4.2|9=57|35=0|34=93|49=JBFIXHUBPRD|52=20200106-11:03:03.233|56=MA|10=194|8=FIX.4.2|9=57|35=0|34=94|49=JBFIXHUBPRD|52=20200106-11:04:34.232|56=MA|10=199|8=FIX.4.2|9=57|35=0|34=95|49=JBFIXHUBPRD|52=20200106-11:06:05.230|56=MA|10=198|8=FIX.4.2|9=57|35=0|34=96|49=JBFIXHUBPRD|52=20200106-11:07:35.230|56=MA|10=203|8=FIX.4.2|9=57|35=0|34=97|49=JBFIXHUBPRD|52=20200106-11:09:06.229|56=MA|10=212|8=FIX.4.2|9=57|35=0|34=98|49=JBFIXHUBPRD|52=20200106-11:10:36.229|56=MA|10=208|8=FIX.4.2|9=57|35=0|34=99|49=JBFIXHUBPRD|52=20200106-11:12:07.227|56=MA|10=207|8=FIX.4.2|9=58|35=0|34=100|49=JBFIXHUBPRD|52=20200106-11:13:37.228|56=MA|10=244|8=FIX.4.2|9=58|35=0|34=101|49=JBFIXHUBPRD|52=20200106-11:15:08.227|56=MA|10=244|8=FIX.4.2|9=58|35=0|34=102|49=JBFIXHUBPRD|52=20200106-11:16:39.226|56=MA|10=249|8=FIX.4.2|9=58|35=0|34=103|49=JBFIXHUBPRD|52=20200106-11:18:09.226|56=MA|10=249|8=FIX.4.2|9=58|35=0|34=104|49=JBFIXHUBPRD|52=20200106-11:19:40.225|56=MA|10=245|8=FIX.4.2|9=58|35=0|34=105|49=JBFIXHUBPRD|52=20200106-11:21:10.225|56=MA|10=236|8=FIX.4.2|9=58|35=0|34=106|49=JBFIXHUBPRD|52=20200106-11:22:41.223|56=MA|10=240|8=FIX.4.2|9=58|35=0|34=107|49=JBFIXHUBPRD|52=20200106-11:24:11.223|56=MA|10=240|8=FIX.4.2|9=58|35=0|34=108|49=JBFIXHUBPRD|52=20200106-11:25:42.222|56=MA|10=245|8=FIX.4.2|9=58|35=0|34=109|49=JBFIXHUBPRD|52=20200106-11:27:12.222|56=MA|10=245|8=FIX.4.2|9=58|35=0|34=110|49=JBFIXHUBPRD|52=20200106-11:28:43.221|56=MA|10=241|8=FIX.4.2|9=58|35=0|34=111|49=JBFIXHUBPRD|52=20200106-11:30:14.220|56=MA|10=232|8=FIX.4.2|9=58|35=0|34=112|49=JBFIXHUBPRD|52=20200106-11:31:45.219|56=MA|10=246|8=FIX.4.2|9=58|35=0|34=113|49=JBFIXHUBPRD|52=20200106-11:33:16.218|56=MA|10=246|8=FIX.4.2|9=58|35=0|34=114|49=JBFIXHUBPRD|52=20200106-11:34:47.217|56=MA|10=251|8=FIX.4.2|9=58|35=0|34=115|49=JBFIXHUBPRD|52=20200106-11:36:17.217|56=MA|10=251|8=FIX.4.2|9=58|35=0|34=116|49=JBFIXHUBPRD|52=20200106-11:37:47.217|56=MA|10=000|8=FIX.4.2|9=58|35=0|34=117|49=JBFIXHUBPRD|52=20200106-11:39:18.215|56=MA|10=255|8=FIX.4.2|9=58|35=0|34=118|49=JBFIXHUBPRD|52=20200106-11:40:48.215|56=MA|10=251|8=FIX.4.2|9=58|35=0|34=119|49=JBFIXHUBPRD|52=20200106-11:42:19.214|56=MA|10=251|8=FIX.4.2|9=58|35=0|34=120|49=JBFIXHUBPRD|52=20200106-11:43:50.212|56=MA|10=237|8=FIX.4.2|9=58|35=0|34=121|49=JBFIXHUBPRD|52=20200106-11:45:20.212|56=MA|10=237|8=FIX.4.2|9=58|35=0|34=122|49=JBFIXHUBPRD|52=20200106-11:46:51.211|56=MA|10=242|8=FIX.4.2|9=58|35=0|34=123|49=JBFIXHUBPRD|52=20200106-11:48:22.211|56=MA|10=243|8=FIX.4.2|9=58|35=0|34=124|49=JBFIXHUBPRD|52=20200106-11:49:53.210|56=MA|10=248|8=FIX.4.2|9=58|35=0|34=125|49=JBFIXHUBPRD|52=20200106-11:51:24.208|56=MA|10=247|8=FIX.4.2|9=58|35=0|34=126|49=JBFIXHUBPRD|52=20200106-11:52:54.209|56=MA|10=253|8=FIX.4.2|9=58|35=0|34=127|49=JBFIXHUBPRD|52=20200106-11:54:25.208|56=MA|10=253|8=FIX.4.2|9=58|35=0|34=128|49=JBFIXHUBPRD|52=20200106-11:55:56.207|56=MA|10=002|8=FIX.4.2|9=58|35=0|34=129|49=JBFIXHUBPRD|52=20200106-11:57:27.205|56=MA|10=001|8=FIX.4.2|9=58|35=0|34=130|49=JBFIXHUBPRD|52=20200106-11:58:57.206|56=MA|10=254|8=FIX.4.2|9=58|35=0|34=131|49=JBFIXHUBPRD|52=20200106-12:00:28.205|56=MA|10=240|8=FIX.4.2|9=58|35=0|34=132|49=JBFIXHUBPRD|52=20200106-12:01:59.205|56=MA|10=246|8=FIX.4.2|9=58|35=0|34=133|49=JBFIXHUBPRD|52=20200106-12:03:30.204|56=MA|10=237|8=FIX.4.2|9=58|35=0|34=134|49=JBFIXHUBPRD|52=20200106-12:05:01.202|56=MA|10=236|8=FIX.4.2|9=58|35=0|34=135|49=JBFIXHUBPRD|52=20200106-12:06:32.201|56=MA|10=241|8=FIX.4.2|9=58|35=0|34=136|49=JBFIXHUBPRD|52=20200106-12:08:03.200|56=MA|10=241|8=FIX.4.2|9=58|35=0|34=137|49=JBFIXHUBPRD|52=20200106-12:09:33.200|56=MA|10=246|8=FIX.4.2|9=58|35=0|34=138|49=JBFIXHUBPRD|52=20200106-12:11:03.200|56=MA|10=237|8=FIX.4.2|9=58|35=0|34=139|49=JBFIXHUBPRD|52=20200106-12:12:34.200|56=MA|10=243|8=FIX.4.2|9=58|35=0|34=140|49=JBFIXHUBPRD|52=20200106-12:14:05.198|56=MA|10=251|8=FIX.4.2|9=58|35=0|34=141|49=JBFIXHUBPRD|52=20200106-12:15:35.198|56=MA|10=000|8=FIX.4.2|9=58|35=0|34=142|49=JBFIXHUBPRD|52=20200106-12:17:06.207|56=MA|10=248|8=FIX.4.2|9=58|35=0|34=143|49=JBFIXHUBPRD|52=20200106-12:18:37.196|56=MA|10=005|8=FIX.4.2|9=58|35=0|34=144|49=JBFIXHUBPRD|52=20200106-12:20:07.207|56=MA|10=245|8=FIX.4.2|9=58|35=0|34=145|49=JBFIXHUBPRD|52=20200106-12:21:38.194|56=MA|10=000|8=FIX.4.2|9=58|35=0|34=146|49=JBFIXHUBPRD|52=20200106-12:23:08.196|56=MA|10=002|8=FIX.4.2|9=58|35=0|34=147|49=JBFIXHUBPRD|52=20200106-12:24:38.199|56=MA|10=010|8=FIX.4.2|9=58|35=0|34=148|49=JBFIXHUBPRD|52=20200106-12:26:08.208|56=MA|10=001|8=FIX.4.2|9=58|35=0|34=149|49=JBFIXHUBPRD|52=20200106-12:27:39.210|56=MA|10=000|8=FIX.4.2|9=58|35=0|34=150|49=JBFIXHUBPRD|52=20200106-12:29:10.222|56=MA|10=242|8=FIX.4.2|9=58|35=0|34=151|49=JBFIXHUBPRD|52=20200106-12:30:41.207|56=MA|10=242|8=FIX.4.2|9=58|35=0|34=152|49=JBFIXHUBPRD|52=20200106-12:32:11.209|56=MA|10=244|8=FIX.4.2|9=58|35=0|34=153|49=JBFIXHUBPRD|52=20200106-12:33:41.211|56=MA|10=242|8=FIX.4.2|9=58|35=0|34=154|49=JBFIXHUBPRD|52=20200106-12:35:11.212|56=MA|10=243|8=FIX.4.2|9=58|35=0|34=155|49=JBFIXHUBPRD|52=20200106-12:36:41.215|56=MA|10=251|8=FIX.4.2|9=58|35=0|34=156|49=JBFIXHUBPRD|52=20200106-12:38:11.215|56=MA|10=251|8=FIX.4.2|9=58|35=0|34=157|49=JBFIXHUBPRD|52=20200106-12:39:41.218|56=MA|10=003|8=FIX.4.2|9=58|35=0|34=158|49=JBFIXHUBPRD|52=20200106-12:41:11.220|56=MA|10=243|8=FIX.4.2|9=58|35=0|34=159|49=JBFIXHUBPRD|52=20200106-12:42:41.221|56=MA|10=249|8=FIX.4.2|9=58|35=0|34=160|49=JBFIXHUBPRD|52=20200106-12:44:11.222|56=MA|10=241|8=FIX.4.2|9=58|35=0|34=161|49=JBFIXHUBPRD|52=20200106-12:45:41.232|56=MA|10=247|8=FIX.4.2|9=58|35=0|34=162|49=JBFIXHUBPRD|52=20200106-12:47:11.234|56=MA|10=249|8=FIX.4.2|9=58|35=0|34=163|49=JBFIXHUBPRD|52=20200106-12:48:42.238|56=MA|10=003|8=FIX.4.2|9=58|35=0|34=164|49=JBFIXHUBPRD|52=20200106-12:50:12.241|56=MA|10=244|8=FIX.4.2|9=58|35=0|34=165|49=JBFIXHUBPRD|52=20200106-12:51:42.245|56=MA|10=253|8=FIX.4.2|9=58|35=0|34=166|49=JBFIXHUBPRD|52=20200106-12:53:13.232|56=MA|10=250|8=FIX.4.2|9=58|35=0|34=167|49=JBFIXHUBPRD|52=20200106-12:54:43.238|56=MA|10=005|8=FIX.4.2|9=58|35=0|34=168|49=JBFIXHUBPRD|52=20200106-12:56:14.238|56=MA|10=006|8=FIX.4.2|9=58|35=0|34=169|49=JBFIXHUBPRD|52=20200106-12:57:45.242|56=MA|10=007|8=FIX.4.2|9=58|35=0|34=170|49=JBFIXHUBPRD|52=20200106-12:59:15.242|56=MA|10=254|8=FIX.4.2|9=58|35=0|34=171|49=JBFIXHUBPRD|52=20200106-13:00:46.240|56=MA|10=244|8=FIX.4.2|9=58|35=0|34=172|49=JBFIXHUBPRD|52=20200106-13:02:16.240|56=MA|10=244|8=FIX.4.2|9=58|35=0|34=173|49=JBFIXHUBPRD|52=20200106-13:03:46.250|56=MA|10=250|8=FIX.4.2|9=58|35=0|34=174|49=JBFIXHUBPRD|52=20200106-13:05:17.243|56=MA|10=253|8=FIX.4.2|9=58|35=0|34=175|49=JBFIXHUBPRD|52=20200106-13:06:47.244|56=MA|10=003|8=FIX.4.2|9=58|35=0|34=176|49=JBFIXHUBPRD|52=20200106-13:08:17.244|56=MA|10=003|8=FIX.4.2|9=58|35=0|34=177|49=JBFIXHUBPRD|52=20200106-13:09:47.260|56=MA|10=006|8=FIX.4.2|9=58|35=0|34=178|49=JBFIXHUBPRD|52=20200106-13:11:18.248|56=MA|10=004|8=FIX.4.2|9=58|35=0|34=179|49=JBFIXHUBPRD|52=20200106-13:12:48.249|56=MA|10=010|8=FIX.4.2|9=58|35=0|34=180|49=JBFIXHUBPRD|52=20200106-13:14:18.261|56=MA|10=251|8=FIX.4.2|9=58|35=0|34=181|49=JBFIXHUBPRD|52=20200106-13:15:48.261|56=MA|10=000|8=FIX.4.2|9=58|35=0|34=182|49=JBFIXHUBPRD|52=20200106-13:17:19.259|56=MA|10=008|8=FIX.4.2|9=58|35=0|34=183|49=JBFIXHUBPRD|52=20200106-13:18:50.254|56=MA|10=000|8=FIX.4.2|9=58|35=0|34=184|49=JBFIXHUBPRD|52=20200106-13:20:20.254|56=MA|10=247|8=FIX.4.2|9=58|35=0|34=185|49=JBFIXHUBPRD|52=20200106-13:21:50.261|56=MA|10=250|8=FIX.4.2|9=58|35=0|34=186|49=JBFIXHUBPRD|52=20200106-13:23:20.262|56=MA|10=251|8=FIX.4.2|9=58|35=0|34=187|49=JBFIXHUBPRD|52=20200106-13:24:51.265|56=MA|10=004|8=FIX.4.2|9=58|35=0|34=188|49=JBFIXHUBPRD|52=20200106-13:26:22.258|56=MA|10=007|8=FIX.4.2|9=58|35=0|34=189|49=JBFIXHUBPRD|52=20200106-13:27:52.259|56=MA|10=013|8=FIX.4.2|9=58|35=0|34=190|49=JBFIXHUBPRD|52=20200106-13:29:22.282|56=MA|10=000|8=FIX.4.2|9=58|35=0|34=191|49=JBFIXHUBPRD|52=20200106-13:30:53.264|56=MA|10=253|8=FIX.4.2|9=58|35=0|34=192|49=JBFIXHUBPRD|52=20200106-13:32:23.271|56=MA|10=251|8=FIX.4.2|9=58|35=0|34=193|49=JBFIXHUBPRD|52=20200106-13:33:54.266|56=MA|10=005|8=FIX.4.2|9=58|35=0|34=194|49=JBFIXHUBPRD|52=20200106-13:35:25.266|56=MA|10=006|8=FIX.4.2|9=58|35=0|34=195|49=JBFIXHUBPRD|52=20200106-13:36:55.272|56=MA|10=008|8=FIX.4.2|9=58|35=0|34=196|49=JBFIXHUBPRD|52=20200106-13:38:26.267|56=MA|10=013|8=FIX.4.2|9=58|35=0|34=197|49=JBFIXHUBPRD|52=20200106-13:39:56.274|56=MA|10=016|8=FIX.4.2|9=58|35=0|34=198|49=JBFIXHUBPRD|52=20200106-13:41:27.268|56=MA|10=011|8=FIX.4.2|9=58|35=0|34=199|49=JBFIXHUBPRD|52=20200106-13:42:58.267|56=MA|10=016|8=FIX.4.2|9=58|35=0|34=200|49=JBFIXHUBPRD|52=20200106-13:44:28.268|56=MA|10=255|8=FIX.4.2|9=58|35=0|34=201|49=JBFIXHUBPRD|52=20200106-13:45:58.270|56=MA|10=253|8=FIX.4.2|9=58|35=0|34=202|49=JBFIXHUBPRD|52=20200106-13:47:29.270|56=MA|10=254|8=FIX.4.2|9=58|35=0|34=203|49=JBFIXHUBPRD|52=20200106-13:48:59.271|56=MA|10=004|8=FIX.4.2|9=58|35=0|34=204|49=JBFIXHUBPRD|52=20200106-13:50:29.271|56=MA|10=251|8=FIX.4.2|9=58|35=0|34=205|49=JBFIXHUBPRD|52=20200106-13:51:59.273|56=MA|10=002|8=FIX.4.2|9=58|35=0|34=206|49=JBFIXHUBPRD|52=20200106-13:53:29.273|56=MA|10=002|8=FIX.4.2|9=58|35=0|34=207|49=JBFIXHUBPRD|52=20200106-13:54:59.273|56=MA|10=007|8=FIX.4.2|9=58|35=0|34=208|49=JBFIXHUBPRD|52=20200106-13:56:29.274|56=MA|10=008|8=FIX.4.2|9=58|35=0|34=209|49=JBFIXHUBPRD|52=20200106-13:57:59.274|56=MA|10=013|8=FIX.4.2|9=58|35=0|34=210|49=JBFIXHUBPRD|52=20200106-13:59:29.274|56=MA|10=004|8=FIX.4.2|9=58|35=0|34=211|49=JBFIXHUBPRD|52=20200106-14:00:59.275|56=MA|10=252|8=FIX.4.2|9=58|35=0|34=212|49=JBFIXHUBPRD|52=20200106-14:02:29.276|56=MA|10=253|8=FIX.4.2|9=58|35=0|34=213|49=JBFIXHUBPRD|52=20200106-14:03:59.276|56=MA|10=002|8=FIX.4.2|9=58|35=0|34=214|49=JBFIXHUBPRD|52=20200106-14:05:29.277|56=MA|10=003|8=FIX.4.2|9=58|35=0|34=215|49=JBFIXHUBPRD|52=20200106-14:06:59.279|56=MA|10=010|8=FIX.4.2|9=58|35=0|34=216|49=JBFIXHUBPRD|52=20200106-14:08:30.278|56=MA|10=001|8=FIX.4.2|9=58|35=0|34=217|49=JBFIXHUBPRD|52=20200106-14:10:00.280|56=MA|10=241|8=FIX.4.2|9=58|35=0|34=218|49=JBFIXHUBPRD|52=20200106-14:11:31.279|56=MA|10=255|8=FIX.4.2|9=58|35=0|34=219|49=JBFIXHUBPRD|52=20200106-14:13:01.279|56=MA|10=255|8=FIX.4.2|9=58|35=0|34=220|49=JBFIXHUBPRD|52=20200106-14:14:31.280|56=MA|10=243|8=FIX.4.2|9=58|35=0|34=221|49=JBFIXHUBPRD|52=20200106-14:16:01.280|56=MA|10=243|8=FIX.4.2|9=58|35=0|34=222|49=JBFIXHUBPRD|52=20200106-14:17:31.282|56=MA|10=250|8=FIX.4.2|9=58|35=0|34=223|49=JBFIXHUBPRD|52=20200106-14:19:02.281|56=MA|10=250|8=FIX.4.2|9=58|35=0|34=224|49=JBFIXHUBPRD|52=20200106-14:20:32.282|56=MA|10=247|8=FIX.4.2|9=58|35=0|34=225|49=JBFIXHUBPRD|52=20200106-14:22:02.282|56=MA|10=247|8=FIX.4.2|9=58|35=0|34=226|49=JBFIXHUBPRD|52=20200106-14:23:32.283|56=MA|10=253|8=FIX.4.2|9=58|35=0|34=227|49=JBFIXHUBPRD|52=20200106-14:25:02.283|56=MA|10=253|8=FIX.4.2|9=58|35=0|34=228|49=JBFIXHUBPRD|52=20200106-14:26:32.283|56=MA|10=002|8=FIX.4.2|9=58|35=0|34=229|49=JBFIXHUBPRD|52=20200106-14:28:02.284|56=MA|10=003|8=FIX.4.2|9=58|35=0|34=230|49=JBFIXHUBPRD|52=20200106-14:29:32.284|56=MA|10=255|8=FIX.4.2|9=58|35=0|34=231|49=JBFIXHUBPRD|52=20200106-14:31:03.283|56=MA|10=246|8=FIX.4.2|9=58|35=0|34=232|49=JBFIXHUBPRD|52=20200106-14:32:33.284|56=MA|10=252|8=FIX.4.2|9=58|35=0|34=233|49=JBFIXHUBPRD|52=20200106-14:34:03.284|56=MA|10=252|8=FIX.4.2|9=58|35=0|34=234|49=JBFIXHUBPRD|52=20200106-14:35:33.285|56=MA|10=002|8=FIX.4.2|9=58|35=0|34=235|49=JBFIXHUBPRD|52=20200106-14:37:03.285|56=MA|10=002|8=FIX.4.2|9=58|35=0|34=236|49=JBFIXHUBPRD|52=20200106-14:38:33.286|56=MA|10=008|8=FIX.4.2|9=58|35=0|34=237|49=JBFIXHUBPRD|52=20200106-14:40:04.287|56=MA|10=001|8=FIX.4.2|9=58|35=0|34=238|49=JBFIXHUBPRD|52=20200106-14:41:34.298|56=MA|10=008|8=FIX.4.2|9=58|35=0|34=239|49=JBFIXHUBPRD|52=20200106-14:43:05.290|56=MA|10=001|8=FIX.4.2|9=58|35=0|34=240|49=JBFIXHUBPRD|52=20200106-14:44:35.295|56=MA|10=002|8=FIX.4.2|9=58|35=0|34=241|49=JBFIXHUBPRD|52=20200106-14:46:06.291|56=MA|10=255|8=FIX.4.2|9=58|35=0|34=242|49=JBFIXHUBPRD|52=20200106-14:47:37.293|56=MA|10=007|8=FIX.4.2|9=58|35=0|34=243|49=JBFIXHUBPRD|52=20200106-14:49:07.293|56=MA|10=007|8=FIX.4.2|9=58|35=0|34=244|49=JBFIXHUBPRD|52=20200106-14:50:38.287|56=MA|10=007|8=FIX.4.2|9=58|35=0|34=245|49=JBFIXHUBPRD|52=20200106-14:52:08.304|56=MA|10=253|8=FIX.4.2|9=58|35=0|34=246|49=JBFIXHUBPRD|52=20200106-14:53:39.287|56=MA|10=013|8=FIX.4.2|9=58|35=0|34=247|49=JBFIXHUBPRD|52=20200106-14:55:09.287|56=MA|10=013|8=FIX.4.2|9=58|35=0|34=248|49=JBFIXHUBPRD|52=20200106-14:56:39.288|56=MA|10=019|8=FIX.4.2|9=58|35=0|34=249|49=JBFIXHUBPRD|52=20200106-14:58:10.295|56=MA|10=009|8=FIX.4.2|9=58|35=0|34=250|49=JBFIXHUBPRD|52=20200106-14:59:41.287|56=MA|10=007|8=FIX.4.2|9=58|35=0|34=251|49=JBFIXHUBPRD|52=20200106-15:01:11.297|56=MA|10=250|8=FIX.4.2|9=58|35=0|34=252|49=JBFIXHUBPRD|52=20200106-15:02:42.289|56=MA|10=001|8=FIX.4.2|9=58|35=0|34=253|49=JBFIXHUBPRD|52=20200106-15:04:13.288|56=MA|10=001|8=FIX.4.2|9=58|35=0|34=254|49=JBFIXHUBPRD|52=20200106-15:05:44.300|56=MA|10=248|8=FIX.4.2|9=58|35=0|34=255|49=JBFIXHUBPRD|52=20200106-15:07:15.299|56=MA|10=010|8=FIX.4.2|9=58|35=0|34=256|49=JBFIXHUBPRD|52=20200106-15:08:46.287|56=MA|10=013|8=FIX.4.2|9=58|35=0|34=257|49=JBFIXHUBPRD|52=20200106-15:10:16.288|56=MA|10=005|8=FIX.4.2|9=58|35=0|34=258|49=JBFIXHUBPRD|52=20200106-15:11:46.288|56=MA|10=010|8=FIX.4.2|9=58|35=0|34=259|49=JBFIXHUBPRD|52=20200106-15:13:16.288|56=MA|10=010|8=FIX.4.2|9=58|35=0|34=260|49=JBFIXHUBPRD|52=20200106-15:14:46.303|56=MA|10=250|8=FIX.4.2|9=58|35=0|34=261|49=JBFIXHUBPRD|52=20200106-15:16:17.290|56=MA|10=000|8=FIX.4.2|9=58|35=0|34=262|49=JBFIXHUBPRD|52=20200106-15:17:47.304|56=MA|10=001|8=FIX.4.2|9=58|35=0|34=263|49=JBFIXHUBPRD|52=20200106-15:19:18.288|56=MA|10=013|8=FIX.4.2|9=58|35=0|34=264|49=JBFIXHUBPRD|52=20200106-15:20:48.288|56=MA|10=009|8=FIX.4.2|9=58|35=0|34=265|49=JBFIXHUBPRD|52=20200106-15:22:18.302|56=MA|10=252|8=FIX.4.2|9=58|35=0|34=266|49=JBFIXHUBPRD|52=20200106-15:23:49.288|56=MA|10=015|8=FIX.4.2|9=58|35=0|34=267|49=JBFIXHUBPRD|52=20200106-15:25:20.287|56=MA|10=006|8=FIX.4.2|9=58|35=0|34=268|49=JBFIXHUBPRD|52=20200106-15:26:50.287|56=MA|10=011|8=FIX.4.2|9=58|35=0|34=269|49=JBFIXHUBPRD|52=20200106-15:28:20.299|56=MA|10=014|8=FIX.4.2|9=58|35=0|34=270|49=JBFIXHUBPRD|52=20200106-15:29:51.287|56=MA|10=008|8=FIX.4.2|9=58|35=0|34=271|49=JBFIXHUBPRD|52=20200106-15:31:21.287|56=MA|10=255|8=FIX.4.2|9=58|35=0|34=272|49=JBFIXHUBPRD|52=20200106-15:32:51.287|56=MA|10=004|8=FIX.4.2|9=58|35=0|34=273|49=JBFIXHUBPRD|52=20200106-15:34:21.288|56=MA|10=005|8=FIX.4.2|9=58|35=0|34=274|49=JBFIXHUBPRD|52=20200106-15:35:51.288|56=MA|10=010|8=FIX.4.2|9=58|35=0|34=275|49=JBFIXHUBPRD|52=20200106-15:37:21.297|56=MA|10=010|8=FIX.4.2|9=58|35=0|34=276|49=JBFIXHUBPRD|52=20200106-15:38:52.296|56=MA|10=015|8=FIX.4.2|9=58|35=0|34=277|49=JBFIXHUBPRD|52=20200106-15:40:23.286|56=MA|10=006|8=FIX.4.2|9=58|35=0|34=278|49=JBFIXHUBPRD|52=20200106-15:41:53.289|56=MA|10=014|8=FIX.4.2|9=58|35=0|34=279|49=JBFIXHUBPRD|52=20200106-15:43:24.290|56=MA|10=007|8=FIX.4.2|9=58|35=0|34=280|49=JBFIXHUBPRD|52=20200106-15:44:54.293|56=MA|10=006|8=FIX.4.2|9=58|35=0|34=281|49=JBFIXHUBPRD|52=20200106-15:46:25.288|56=MA|10=011|8=FIX.4.2|9=58|35=0|34=282|49=JBFIXHUBPRD|52=20200106-15:47:55.292|56=MA|10=011|8=FIX.4.2|9=58|35=0|34=283|49=JBFIXHUBPRD|52=20200106-15:49:26.285|56=MA|10=014|8=FIX.4.2|9=58|35=0|34=284|49=JBFIXHUBPRD|52=20200106-15:50:56.287|56=MA|10=012|8=FIX.4.2|9=58|35=0|34=285|49=JBFIXHUBPRD|52=20200106-15:52:27.289|56=MA|10=015|8=FIX.4.2|9=58|35=0|34=286|49=JBFIXHUBPRD|52=20200106-15:53:57.299|56=MA|10=021|8=FIX.4.2|9=58|35=0|34=287|49=JBFIXHUBPRD|52=20200106-15:55:28.286|56=MA|10=018|8=FIX.4.2|9=58|35=0|34=288|49=JBFIXHUBPRD|52=20200106-15:56:58.295|56=MA|10=023|8=FIX.4.2|9=58|35=0|34=289|49=JBFIXHUBPRD|52=20200106-15:58:29.287|56=MA|10=025|8=FIX.4.2|9=58|35=0|34=290|49=JBFIXHUBPRD|52=20200106-15:59:59.294|56=MA|10=019|8=FIX.4.2|9=58|35=0|34=291|49=JBFIXHUBPRD|52=20200106-16:01:30.285|56=MA|10=253|8=FIX.4.2|9=58|35=0|34=292|49=JBFIXHUBPRD|52=20200106-16:03:00.293|56=MA|10=252|8=FIX.4.2|9=58|35=0|34=293|49=JBFIXHUBPRD|52=20200106-16:04:31.294|56=MA|10=003|8=FIX.4.2|9=58|35=0|34=294|49=JBFIXHUBPRD|52=20200106-16:06:01.297|56=MA|10=006|8=FIX.4.2|9=58|35=0|34=295|49=JBFIXHUBPRD|52=20200106-16:07:32.291|56=MA|10=006|8=FIX.4.2|9=58|35=0|34=296|49=JBFIXHUBPRD|52=20200106-16:09:03.283|56=MA|10=008|8=FIX.4.2|9=58|35=0|34=297|49=JBFIXHUBPRD|52=20200106-16:10:34.282|56=MA|10=004|8=FIX.4.2|9=58|35=0|34=298|49=JBFIXHUBPRD|52=20200106-16:12:05.285|56=MA|10=008|8=FIX.4.2|9=58|35=0|34=299|49=JBFIXHUBPRD|52=20200106-16:13:36.281|56=MA|10=010|8=FIX.4.2|9=58|35=0|34=300|49=JBFIXHUBPRD|52=20200106-16:15:06.282|56=MA|10=249|8=FIX.4.2|9=58|35=0|34=301|49=JBFIXHUBPRD|52=20200106-16:16:36.283|56=MA|10=255|8=FIX.4.2|9=58|35=0|34=302|49=JBFIXHUBPRD|52=20200106-16:18:07.281|56=MA|10=254|8=FIX.4.2|9=58|35=0|34=303|49=JBFIXHUBPRD|52=20200106-16:19:38.286|56=MA|10=009|8=FIX.4.2|9=58|35=0|34=304|49=JBFIXHUBPRD|52=20200106-16:21:08.288|56=MA|10=002|8=FIX.4.2|9=58|35=0|34=305|49=JBFIXHUBPRD|52=20200106-16:22:39.280|56=MA|10=000|8=FIX.4.2|9=58|35=0|34=306|49=JBFIXHUBPRD|52=20200106-16:24:10.281|56=MA|10=249|8=FIX.4.2|9=58|35=0|34=307|49=JBFIXHUBPRD|52=20200106-16:25:41.279|56=MA|10=006|8=FIX.4.2|9=58|35=0|34=308|49=JBFIXHUBPRD|52=20200106-16:27:11.279|56=MA|10=006|8=FIX.4.2|9=58|35=0|34=309|49=JBFIXHUBPRD|52=20200106-16:28:42.279|56=MA|10=012|8=FIX.4.2|9=58|35=0|34=310|49=JBFIXHUBPRD|52=20200106-16:30:13.277|56=MA|10=249|8=FIX.4.2|9=58|35=0|34=311|49=JBFIXHUBPRD|52=20200106-16:31:43.278|56=MA|10=255|8=FIX.4.2|9=58|35=0|34=312|49=JBFIXHUBPRD|52=20200106-16:33:13.279|56=MA|10=000|8=FIX.4.2|9=58|35=0|34=313|49=JBFIXHUBPRD|52=20200106-16:34:44.278|56=MA|10=005|8=FIX.4.2|9=58|35=0|34=314|49=JBFIXHUBPRD|52=20200106-16:36:15.278|56=MA|10=006|8=FIX.4.2|9=58|35=0|34=315|49=JBFIXHUBPRD|52=20200106-16:37:46.278|56=MA|10=012|8=FIX.4.2|9=58|35=0|34=316|49=JBFIXHUBPRD|52=20200106-16:39:17.276|56=MA|10=011|8=FIX.4.2|9=58|35=0|34=317|49=JBFIXHUBPRD|52=20200106-16:40:48.275|56=MA|10=007|8=FIX.4.2|9=58|35=0|34=318|49=JBFIXHUBPRD|52=20200106-16:42:18.275|56=MA|10=007|8=FIX.4.2|9=58|35=0|34=319|49=JBFIXHUBPRD|52=20200106-16:43:48.281|56=MA|10=009|8=FIX.4.2|9=58|35=0|34=320|49=JBFIXHUBPRD|52=20200106-16:45:18.284|56=MA|10=003|8=FIX.4.2|9=58|35=0|34=321|49=JBFIXHUBPRD|52=20200106-16:46:49.276|56=MA|10=010|8=FIX.4.2|9=58|35=0|34=322|49=JBFIXHUBPRD|52=20200106-16:48:19.286|56=MA|10=011|8=FIX.4.2|9=58|35=0|34=323|49=JBFIXHUBPRD|52=20200106-16:49:50.273|56=MA|10=004|8=FIX.4.2|9=58|35=0|34=324|49=JBFIXHUBPRD|52=20200106-16:51:20.284|56=MA|10=253|8=FIX.4.2|9=58|35=0|34=325|49=JBFIXHUBPRD|52=20200106-16:52:51.275|56=MA|10=003|8=FIX.4.2|9=58|35=0|34=326|49=JBFIXHUBPRD|52=20200106-16:54:21.284|56=MA|10=003|8=FIX.4.2|9=58|35=0|34=327|49=JBFIXHUBPRD|52=20200106-16:55:52.273|56=MA|10=007|8=FIX.4.2|9=58|35=0|34=328|49=JBFIXHUBPRD|52=20200106-16:57:22.273|56=MA|10=007|8=FIX.4.2|9=58|35=0|34=329|49=JBFIXHUBPRD|52=20200106-16:58:52.275|56=MA|10=014|8=FIX.4.2|9=58|35=0|34=330|49=JBFIXHUBPRD|52=20200106-17:00:23.271|56=MA|10=244|8=FIX.4.2|9=58|35=0|34=331|49=JBFIXHUBPRD|52=20200106-17:01:53.271|56=MA|10=249|8=FIX.4.2|9=58|35=0|34=332|49=JBFIXHUBPRD|52=20200106-17:03:24.269|56=MA|10=001|8=FIX.4.2|9=58|35=0|34=333|49=JBFIXHUBPRD|52=20200106-17:04:54.270|56=MA|10=254|8=FIX.4.2|9=58|35=0|34=334|49=JBFIXHUBPRD|52=20200106-17:06:25.269|56=MA|10=007|8=FIX.4.2|9=58|35=0|34=335|49=JBFIXHUBPRD|52=20200106-17:07:56.267|56=MA|10=011|8=FIX.4.2|9=58|35=0|34=336|49=JBFIXHUBPRD|52=20200106-17:09:26.267|56=MA|10=011|8=FIX.4.2|9=58|35=0|34=337|49=JBFIXHUBPRD|52=20200106-17:10:56.268|56=MA|10=008|8=FIX.4.2|9=58|35=0|34=338|49=JBFIXHUBPRD|52=20200106-17:12:27.266|56=MA|10=007|8=FIX.4.2|9=58|35=0|34=339|49=JBFIXHUBPRD|52=20200106-17:13:57.266|56=MA|10=012|8=FIX.4.2|9=58|35=0|34=340|49=JBFIXHUBPRD|52=20200106-17:15:27.266|56=MA|10=003|8=FIX.4.2|9=58|35=0|34=341|49=JBFIXHUBPRD|52=20200106-17:16:58.265|56=MA|10=008|8=FIX.4.2|9=58|35=0|34=342|49=JBFIXHUBPRD|52=20200106-17:18:29.264|56=MA|10=008|8=FIX.4.2|9=58|35=0|34=343|49=JBFIXHUBPRD|52=20200106-17:19:59.265|56=MA|10=014|8=FIX.4.2|9=58|35=0|34=344|49=JBFIXHUBPRD|52=20200106-17:21:30.263|56=MA|10=251|8=FIX.4.2|9=58|35=0|34=345|49=JBFIXHUBPRD|52=20200106-17:23:00.263|56=MA|10=251|8=FIX.4.2|9=58|35=0|34=346|49=JBFIXHUBPRD|52=20200106-17:24:31.262|56=MA|10=000|8=FIX.4.2|9=58|35=0|34=347|49=JBFIXHUBPRD|52=20200106-17:26:01.262|56=MA|10=000|8=FIX.4.2|9=58|35=0|34=348|49=JBFIXHUBPRD|52=20200106-17:27:31.263|56=MA|10=006|8=FIX.4.2|9=58|35=0|34=349|49=JBFIXHUBPRD|52=20200106-17:29:02.261|56=MA|10=005|8=FIX.4.2|9=58|35=0|34=350|49=JBFIXHUBPRD|52=20200106-17:30:33.261|56=MA|10=249|8=FIX.4.2|9=58|35=0|34=351|49=JBFIXHUBPRD|52=20200106-17:32:03.261|56=MA|10=249|8=FIX.4.2|9=58|35=0|34=352|49=JBFIXHUBPRD|52=20200106-17:33:34.261|56=MA|10=255|8=FIX.4.2|9=58|35=0|34=353|49=JBFIXHUBPRD|52=20200106-17:35:05.260|56=MA|10=255|8=FIX.4.2|9=58|35=0|34=354|49=JBFIXHUBPRD|52=20200106-17:36:36.258|56=MA|10=012|8=FIX.4.2|9=58|35=0|34=355|49=JBFIXHUBPRD|52=20200106-17:38:06.258|56=MA|10=012|8=FIX.4.2|9=58|35=0|34=356|49=JBFIXHUBPRD|52=20200106-17:39:37.257|56=MA|10=017|8=FIX.4.2|9=58|35=0|34=357|49=JBFIXHUBPRD|52=20200106-17:41:07.257|56=MA|10=008|8=FIX.4.2|9=58|35=0|34=358|49=JBFIXHUBPRD|52=20200106-17:42:38.257|56=MA|10=014|8=FIX.4.2|9=58|35=0|34=359|49=JBFIXHUBPRD|52=20200106-17:44:09.256|56=MA|10=014|8=FIX.4.2|9=58|35=0|34=360|49=JBFIXHUBPRD|52=20200106-17:45:40.255|56=MA|10=001|8=FIX.4.2|9=76|35=5|34=361|49=JBFIXHUBPRD|52=20200106-17:46:13.265|56=MA|58=user requested|10=101|8=FIX.4.2|9=91|35=A|34=1|49=JBFIXHUBPRD|52=20200110-15:02:02.735|56=MA|98=0|108=90|95=8|96=3.0.0rc5|141=Y|10=112|8=FIX.4.2|9=56|35=5|34=2|49=JBFIXHUBPRD|52=20200110-15:02:05.695|56=MA|10=152|8=FIX.4.2|9=56|35=5|34=3|49=JBFIXHUBPRD|52=20200110-15:02:05.781|56=MA|10=149|