8=FIX.4.4|9=91|35=A|34=1|49=T1Kauaiblk1|52=20201221-08:42:40.774|56=MA|98=0|108=90|95=8|96=3.0.0rc5|141=Y|10=035|8=FIX.4.4|9=765|35=E|34=2|49=T1Kauaiblk1|52=20201221-08:42:49.904|56=MA|66=MMAD-FIX44-ListID-151220-1222|394=2|68=5|73=5|11=FIX44-List-ClOrdID-1223|22=4|38=100000|44=100|48=US06051GEN51|54=1|55=[N/A/]|63=3|67=1|423=1|29726=100.25|453=1|448=T1Kauaiblk1|447=C|452=11|11=FIX44-List-ClOrdID-1224|22=4|38=100000|44=101|48=US40434AAB52|54=1|55=[N/A]|63=3|67=2|29726=101.25|11=FIX44-List-ClOrdID-1225|22=4|38=130000|44=102|48=US06738JYZ10|54=1|55=[N/A/]|63=3|67=1|29726=102.25|453=1|448=T1Kauaiblk1|447=C|452=11|11=FIX44-List-ClOrdID-1226|22=4|38=250000|44=103|48=US95709TAH32|54=1|55=[N/A/]|63=3|67=1|29726=103.25|453=1|448=T1Kauaiblk1|447=C|452=11|11=FIX44-List-ClOrdID-1227|22=4|38=350000|44=104|48=US29379VAW37|54=1|55=[N/A/]|63=3|67=1|29726=104.25|453=1|448=T1Kauaiblk1|447=C|452=11|10=166|8=FIX.4.4|9=56|35=0|34=3|49=T1Kauaiblk1|52=20201221-08:44:20.756|56=MA|10=063|8=FIX.4.4|9=56|35=0|34=4|49=T1Kauaiblk1|52=20201221-08:45:50.767|56=MA|10=070|8=FIX.4.4|9=56|35=0|34=5|49=T1Kauaiblk1|52=20201221-08:47:20.767|56=MA|10=070|8=FIX.4.4|9=56|35=5|34=6|49=T1Kauaiblk1|52=20201221-08:47:55.767|56=MA|10=084|8=FIX.4.4|9=91|35=A|34=1|49=T1Kauaiblk1|52=20210202-20:11:52.769|56=MA|98=0|108=90|95=8|96=3.0.0rc5|141=Y|10=031|8=FIX.4.4|9=700|35=E|34=2|49=T1Kauaiblk1|52=20210202-20:11:58.322|56=MA|66=ListID-020221A-1240|394=2|68=5|73=5|11=ClOrdID-1241|22=4|38=100000|44=100|48=US06051GEN51|54=1|55=[N/A/]|63=3|67=1|423=1|29726=100.25|453=1|448=T1Kauaiblk1|447=C|452=11|11=ClOrdID-1242|22=4|38=100000|44=101|48=US40434AAB52|54=1|55=[N/A]|63=3|67=2|29726=101.25|11=ClOrdID-1243|22=4|38=130000|44=102|48=US95709TAH32|54=1|55=[N/A/]|63=3|67=1|29726=102.25|453=1|448=T1Kauaiblk1|447=C|452=11|11=ClOrdID-1244|22=4|38=250000|44=103|48=US025676AH01|54=1|55=[N/A/]|63=3|67=1|29726=103.25|453=1|448=T1Kauaiblk1|447=C|452=11|11=ClOrdID-1245|22=4|38=350000|44=104|48=US29379VAW37|54=1|55=[N/A/]|63=3|67=1|29726=104.25|453=1|448=T1Kauaiblk1|447=C|452=11|10=100|8=FIX.4.4|9=56|35=0|34=3|49=T1Kauaiblk1|52=20210202-20:13:28.771|56=MA|10=057|8=FIX.4.4|9=56|35=0|34=4|49=T1Kauaiblk1|52=20210202-20:14:58.771|56=MA|10=062|8=FIX.4.4|9=56|35=0|34=5|49=T1Kauaiblk1|52=20210202-20:16:28.772|56=MA|10=063|8=FIX.4.4|9=56|35=0|34=6|49=T1Kauaiblk1|52=20210202-20:17:58.773|56=MA|10=069|8=FIX.4.4|9=56|35=0|34=7|49=T1Kauaiblk1|52=20210202-20:19:28.773|56=MA|10=069|8=FIX.4.4|9=56|35=0|34=8|49=T1Kauaiblk1|52=20210202-20:20:58.774|56=MA|10=066|8=FIX.4.4|9=56|35=0|34=9|49=T1Kauaiblk1|52=20210202-20:22:28.774|56=MA|10=066|8=FIX.4.4|9=66|35=1|34=10|49=T1Kauaiblk1|52=20210202-20:24:17.348|56=MA|112=TEST|10=123|8=FIX.4.4|9=91|35=A|34=1|49=T1Kauaiblk1|52=20210203-10:27:14.682|56=MA|98=0|108=90|95=8|96=3.0.0rc5|141=Y|10=030|8=FIX.4.4|9=699|35=E|34=2|49=T1Kauaiblk1|52=20210203-10:27:22.975|56=MA|66=ListID-030221-1282|394=2|68=5|73=5|11=ClOrdID-1283|22=4|38=100000|44=100|48=US06051GEN51|54=1|55=[N/A/]|63=3|67=1|423=1|29726=100.25|453=1|448=T1Kauaiblk1|447=C|452=11|11=ClOrdID-1284|22=4|38=100000|44=101|48=US40434AAB52|54=1|55=[N/A]|63=3|67=2|29726=101.25|11=ClOrdID-1285|22=4|38=130000|44=102|48=US95709TAH32|54=1|55=[N/A/]|63=3|67=1|29726=102.25|453=1|448=T1Kauaiblk1|447=C|452=11|11=ClOrdID-1286|22=4|38=250000|44=103|48=US025676AH01|54=1|55=[N/A/]|63=3|67=1|29726=103.25|453=1|448=T1Kauaiblk1|447=C|452=11|11=ClOrdID-1287|22=4|38=350000|44=104|48=US29379VAW37|54=1|55=[N/A/]|63=3|67=1|29726=104.25|453=1|448=T1Kauaiblk1|447=C|452=11|10=101|8=FIX.4.4|9=56|35=5|34=3|49=T1Kauaiblk1|52=20210203-10:28:20.683|56=MA|10=062|8=FIX.4.4|9=91|35=A|34=1|49=T1Kauaiblk1|52=20210205-08:51:45.023|56=MA|98=0|108=90|95=8|96=3.0.0rc5|141=Y|10=029|8=FIX.4.4|9=718|35=E|34=2|49=T1Kauaiblk1|52=20210205-08:51:57.404|56=MA|66=ListID-B040222-1228|394=2|68=5|73=5|11=ClOrdID-1229|22=4|38=1000000|44=100.261|48=US06051GEN51|54=1|55=[N/A/]|63=3|67=1|423=1|29726=100.262|453=1|448=T1Kauaiblk1|447=C|452=11|11=ClOrdID-1230|22=4|38=2000000|44=101|48=US40434AAB52|54=1|55=[N/A]|63=3|67=2|29726=101.25|11=ClOrdID-1231|22=4|38=1300000|44=102.251|48=US95709TAH32|54=1|55=[N/A/]|63=3|67=1|29726=102.25|453=1|448=T1Kauaiblk1|447=C|452=11|11=ClOrdID-1232|22=4|38=250000|44=103.1|48=US427866AZ15|54=1|55=[N/A/]|63=3|67=1|29726=103.25|453=1|448=T1Kauaiblk1|447=C|452=11|11=ClOrdID-1233|22=4|38=350000|44=104.231|48=US29379VAW37|54=1|55=[N/A/]|63=3|67=1|29726=104.25|453=1|448=T1Kauaiblk1|447=C|452=11|10=016|8=FIX.4.4|9=56|35=0|34=3|49=T1Kauaiblk1|52=20210205-08:53:28.023|56=MA|10=060|8=FIX.4.4|9=56|35=0|34=4|49=T1Kauaiblk1|52=20210205-08:54:58.249|56=MA|10=075|8=FIX.4.4|9=56|35=0|34=5|49=T1Kauaiblk1|52=20210205-08:56:29.020|56=MA|10=063|8=FIX.4.4|9=56|35=0|34=6|49=T1Kauaiblk1|52=20210205-08:58:00.019|56=MA|10=063|8=FIX.4.4|9=56|35=0|34=7|49=T1Kauaiblk1|52=20210205-08:59:30.019|56=MA|10=068|8=FIX.4.4|9=56|35=0|34=8|49=T1Kauaiblk1|52=20210205-09:01:00.375|56=MA|10=059|8=FIX.4.4|9=56|35=0|34=9|49=T1Kauaiblk1|52=20210205-09:02:30.446|56=MA|10=063|8=FIX.4.4|9=57|35=0|34=10|49=T1Kauaiblk1|52=20210205-09:04:01.019|56=MA|10=100|8=FIX.4.4|9=57|35=0|34=11|49=T1Kauaiblk1|52=20210205-09:05:31.370|56=MA|10=105|8=FIX.4.4|9=57|35=0|34=12|49=T1Kauaiblk1|52=20210205-09:07:02.019|56=MA|10=106|8=FIX.4.4|9=57|35=0|34=13|49=T1Kauaiblk1|52=20210205-09:08:32.245|56=MA|10=112|8=FIX.4.4|9=57|35=0|34=14|49=T1Kauaiblk1|52=20210205-09:10:02.592|56=MA|10=108|8=FIX.4.4|9=57|35=0|34=15|49=T1Kauaiblk1|52=20210205-09:11:33.018|56=MA|10=107|8=FIX.4.4|9=57|35=0|34=16|49=T1Kauaiblk1|52=20210205-09:13:03.019|56=MA|10=108|8=FIX.4.4|9=57|35=0|34=17|49=T1Kauaiblk1|52=20210205-09:14:33.320|56=MA|10=108|8=FIX.4.4|9=57|35=0|34=18|49=T1Kauaiblk1|52=20210205-09:16:03.367|56=MA|10=119|8=FIX.4.4|9=57|35=0|34=19|49=T1Kauaiblk1|52=20210205-09:17:34.019|56=MA|10=119|8=FIX.4.4|9=57|35=0|34=20|49=T1Kauaiblk1|52=20210205-09:19:05.018|56=MA|10=110|8=FIX.4.4|9=57|35=0|34=21|49=T1Kauaiblk1|52=20210205-09:20:35.018|56=MA|10=106|8=FIX.4.4|9=57|35=0|34=22|49=T1Kauaiblk1|52=20210205-09:22:06.018|56=MA|10=107|8=FIX.4.4|9=57|35=0|34=23|49=T1Kauaiblk1|52=20210205-09:23:36.018|56=MA|10=112|8=FIX.4.4|9=91|35=A|34=1|49=T1Kauaiblk1|52=20210205-13:40:54.071|56=MA|98=0|108=90|95=8|96=3.0.0rc5|141=Y|10=026|8=FIX.4.4|9=718|35=E|34=2|49=T1Kauaiblk1|52=20210205-13:41:06.333|56=MA|66=ListID-B040222-1234|394=2|68=5|73=5|11=ClOrdID-1235|22=4|38=1000000|44=100.261|48=US06051GEN51|54=1|55=[N/A/]|63=3|67=1|423=1|29726=100.262|453=1|448=T1Kauaiblk1|447=C|452=11|11=ClOrdID-1236|22=4|38=2000000|44=101|48=US40434AAB52|54=1|55=[N/A]|63=3|67=2|29726=101.25|11=ClOrdID-1237|22=4|38=1300000|44=102.251|48=US95709TAH32|54=1|55=[N/A/]|63=3|67=1|29726=102.25|453=1|448=T1Kauaiblk1|447=C|452=11|11=ClOrdID-1238|22=4|38=250000|44=103.1|48=US427866AZ15|54=1|55=[N/A/]|63=3|67=1|29726=103.25|453=1|448=T1Kauaiblk1|447=C|452=11|11=ClOrdID-1239|22=4|38=350000|44=104.231|48=US29379VAW37|54=1|55=[N/A/]|63=3|67=1|29726=104.25|453=1|448=T1Kauaiblk1|447=C|452=11|10=024|8=FIX.4.4|9=56|35=0|34=3|49=T1Kauaiblk1|52=20210205-13:42:37.071|56=MA|10=057|8=FIX.4.4|9=56|35=0|34=4|49=T1Kauaiblk1|52=20210205-13:44:07.072|56=MA|10=058|8=FIX.4.4|9=56|35=0|34=5|49=T1Kauaiblk1|52=20210205-13:45:37.073|56=MA|10=064|8=FIX.4.4|9=56|35=0|34=6|49=T1Kauaiblk1|52=20210205-13:47:07.074|56=MA|10=065|8=FIX.4.4|9=56|35=0|34=7|49=T1Kauaiblk1|52=20210205-13:48:37.074|56=MA|10=070|8=FIX.4.4|9=56|35=0|34=8|49=T1Kauaiblk1|52=20210205-13:50:07.074|56=MA|10=061|8=FIX.4.4|9=56|35=0|34=9|49=T1Kauaiblk1|52=20210205-13:51:37.074|56=MA|10=066|8=FIX.4.4|9=57|35=0|34=10|49=T1Kauaiblk1|52=20210205-13:53:07.075|56=MA|10=107|8=FIX.4.4|9=57|35=0|34=11|49=T1Kauaiblk1|52=20210205-13:54:38.074|56=MA|10=112|8=FIX.4.4|9=57|35=0|34=12|49=T1Kauaiblk1|52=20210205-13:56:08.077|56=MA|10=115|8=FIX.4.4|9=57|35=0|34=13|49=T1Kauaiblk1|52=20210205-13:57:38.078|56=MA|10=121|8=FIX.4.4|9=57|35=0|34=14|49=T1Kauaiblk1|52=20210205-13:59:08.080|56=MA|10=114|8=FIX.4.4|9=57|35=0|34=15|49=T1Kauaiblk1|52=20210205-14:00:38.080|56=MA|10=105|8=FIX.4.4|9=57|35=0|34=16|49=T1Kauaiblk1|52=20210205-14:02:08.080|56=MA|10=105|8=FIX.4.4|9=57|35=0|34=17|49=T1Kauaiblk1|52=20210205-14:03:38.080|56=MA|10=110|8=FIX.4.4|9=57|35=0|34=18|49=T1Kauaiblk1|52=20210205-14:05:08.082|56=MA|10=112|8=FIX.4.4|9=57|35=0|34=19|49=T1Kauaiblk1|52=20210205-14:06:39.081|56=MA|10=117|8=FIX.4.4|9=57|35=0|34=20|49=T1Kauaiblk1|52=20210205-14:08:09.082|56=MA|10=109|8=FIX.4.4|9=57|35=0|34=21|49=T1Kauaiblk1|52=20210205-14:09:39.082|56=MA|10=114|8=FIX.4.4|9=57|35=0|34=22|49=T1Kauaiblk1|52=20210205-14:11:09.083|56=MA|10=106|8=FIX.4.4|9=57|35=0|34=23|49=T1Kauaiblk1|52=20210205-14:12:40.084|56=MA|10=104|8=FIX.4.4|9=57|35=0|34=24|49=T1Kauaiblk1|52=20210205-14:14:11.084|56=MA|10=105|8=FIX.4.4|9=57|35=0|34=25|49=T1Kauaiblk1|52=20210205-14:15:42.083|56=MA|10=110|8=FIX.4.4|9=57|35=0|34=26|49=T1Kauaiblk1|52=20210205-14:17:12.083|56=MA|10=110|8=FIX.4.4|9=57|35=0|34=27|49=T1Kauaiblk1|52=20210205-14:18:42.084|56=MA|10=116|8=FIX.4.4|9=57|35=0|34=28|49=T1Kauaiblk1|52=20210205-14:20:12.084|56=MA|10=107|8=FIX.4.4|9=57|35=0|34=29|49=T1Kauaiblk1|52=20210205-14:21:42.084|56=MA|10=112|8=FIX.4.4|9=57|35=0|34=30|49=T1Kauaiblk1|52=20210205-14:23:12.084|56=MA|10=103|8=FIX.4.4|9=57|35=0|34=31|49=T1Kauaiblk1|52=20210205-14:24:42.085|56=MA|10=109|8=FIX.4.4|9=57|35=0|34=32|49=T1Kauaiblk1|52=20210205-14:26:13.085|56=MA|10=110|8=FIX.4.4|9=719|35=E|34=33|49=T1Kauaiblk1|52=20210205-14:26:20.776|56=MA|66=ListID-B040222-1240|394=2|68=5|73=5|11=ClOrdID-1241|22=4|38=1000000|44=100.261|48=US06051GEN51|54=1|55=[N/A/]|63=3|67=1|423=1|29726=100.262|453=1|448=T1Kauaiblk1|447=C|452=11|11=ClOrdID-1242|22=4|38=2000000|44=101|48=US40434AAB52|54=1|55=[N/A]|63=3|67=2|29726=101.25|11=ClOrdID-1243|22=4|38=1300000|44=102.251|48=US95709TAH32|54=1|55=[N/A/]|63=3|67=1|29726=102.25|453=1|448=T1Kauaiblk1|447=C|452=11|11=ClOrdID-1244|22=4|38=250000|44=103.1|48=US427866AZ15|54=1|55=[N/A/]|63=3|67=1|29726=103.25|453=1|448=T1Kauaiblk1|447=C|452=11|11=ClOrdID-1245|22=4|38=350000|44=104.231|48=US29379VAW37|54=1|55=[N/A/]|63=3|67=1|29726=104.25|453=1|448=T1Kauaiblk1|447=C|452=11|10=070|8=FIX.4.4|9=57|35=0|34=34|49=T1Kauaiblk1|52=20210205-14:27:51.084|56=MA|10=114|8=FIX.4.4|9=57|35=0|34=35|49=T1Kauaiblk1|52=20210205-14:29:21.086|56=MA|10=116|8=FIX.4.4|9=57|35=0|34=36|49=T1Kauaiblk1|52=20210205-14:30:51.089|56=MA|10=115|8=FIX.4.4|9=57|35=0|34=37|49=T1Kauaiblk1|52=20210205-14:32:21.090|56=MA|10=107|8=FIX.4.4|9=57|35=0|34=38|49=T1Kauaiblk1|52=20210205-14:33:51.091|56=MA|10=113|8=FIX.4.4|9=2118|35=E|34=39|49=T1Kauaiblk1|52=20210205-14:33:52.483|56=MA|66=ListID-050221-1246|394=2|68=20|73=20|11=ClOrdID-1247|22=4|38=100000|48=US06051GEN51|54=1|55=[N/A/]|67=1|423=1|453=1|448=T1Kauaiblk1|447=C|452=11|11=ClOrdID-1248|22=4|38=100000|48=US40434AAB52|54=1|55=[N/A]|67=2|11=ClOrdID-1249|22=4|38=130000|48=US06738JYZ10|54=1|55=[N/A/]|67=3|453=1|448=T1Kauaiblk1|447=C|452=11|11=ClOrdID-1250|22=4|38=250000|48=US95709TAH32|54=1|55=[N/A/]|67=4|453=1|448=T1Kauaiblk1|447=C|452=11|11=ClOrdID-1251|22=4|38=350000|48=US29379VAW37|54=1|55=[N/A/]|67=5|453=1|448=T1Kauaiblk1|447=C|452=11|11=ClOrdID-1252|22=4|38=350000|48=US48121ECC49|54=1|55=[N/A/]|67=6|453=1|448=T1Kauaiblk1|447=C|452=11|11=ClOrdID-1253|22=4|38=350000|48=US983024AL46|54=1|55=[N/A/]|67=7|453=1|448=T1Kauaiblk1|447=C|452=11|11=ClOrdID-1254|22=4|38=350000|48=US61166WAE12|54=1|55=[N/A/]|67=8|453=1|448=T1Kauaiblk1|447=C|452=11|11=ClOrdID-1255|22=4|38=350000|48=US000828JAM09|54=1|55=[N/A/]|67=9|453=1|448=T1Kauaiblk1|447=C|452=11|11=ClOrdID-1256|22=4|38=350000|48=US62630CAR25|54=1|55=[N/A/]|67=10|453=1|448=T1Kauaiblk1|447=C|452=11|11=ClOrdID-1257|22=4|38=350000|48=US05379BAK35|54=1|55=[N/A/]|67=11|453=1|448=T1Kauaiblk1|447=C|452=11|11=ClOrdID-1258|22=4|38=350000|48=US368710AC32|54=1|55=[N/A/]|67=12|453=1|448=T1Kauaiblk1|447=C|452=11|11=ClOrdID-1259|22=4|38=350000|48=XS1186833239|54=1|55=[N/A/]|67=13|453=1|448=T1Kauaiblk1|447=C|452=11|11=ClOrdID-1260|22=4|38=350000|48=US842400FC28|54=1|55=[N/A/]|67=14|453=1|448=T1Kauaiblk1|447=C|452=11|11=ClOrdID-1261|22=4|38=350000|48=US927804FA70|54=1|55=[N/A/]|67=15|453=1|448=T1Kauaiblk1|447=C|452=11|11=ClOrdID-1262|22=4|38=350000|48=US472319AC60|54=1|55=[N/A/]|67=16|453=1|448=T1Kauaiblk1|447=C|452=11|11=ClOrdID-1263|22=4|38=350000|48=US93884PDN78|54=1|55=[N/A/]|67=17|453=1|448=T1Kauaiblk1|447=C|452=11|11=ClOrdID-1264|22=4|38=350000|48=US06050XWS88|54=1|55=[N/A/]|67=8|453=1|448=T1Kauaiblk1|447=C|452=11|11=ClOrdID-1265|22=4|38=350000|48=US87425EAJ29|54=1|55=[N/A/]|67=19|453=1|448=T1Kauaiblk1|447=C|452=11|11=ClOrdID-1266|22=4|38=350000|48=US816300AG24|54=1|55=[N/A/]|67=20|453=1|448=T1Kauaiblk1|447=C|452=11|10=127|8=FIX.4.4|9=57|35=0|34=40|49=T1Kauaiblk1|52=20210205-14:35:23.092|56=MA|10=108|8=FIX.4.4|9=57|35=0|34=41|49=T1Kauaiblk1|52=20210205-14:36:53.094|56=MA|10=115|8=FIX.4.4|9=57|35=0|34=42|49=T1Kauaiblk1|52=20210205-14:38:23.094|56=MA|10=115|8=FIX.4.4|9=91|35=A|34=1|49=T1Kauaiblk1|52=20210205-15:18:50.089|56=MA|98=0|108=90|95=8|96=3.0.0rc5|141=Y|10=038|8=FIX.4.4|9=56|35=0|34=2|49=T1Kauaiblk1|52=20210205-15:20:20.090|56=MA|10=047|8=FIX.4.4|9=56|35=0|34=3|49=T1Kauaiblk1|52=20210205-15:21:51.091|56=MA|10=054|8=FIX.4.4|9=56|35=0|34=4|49=T1Kauaiblk1|52=20210205-15:23:21.092|56=MA|10=055|8=FIX.4.4|9=56|35=0|34=5|49=T1Kauaiblk1|52=20210205-15:24:51.095|56=MA|10=063|8=FIX.4.4|9=56|35=0|34=6|49=T1Kauaiblk1|52=20210205-15:26:21.097|56=MA|10=065|8=FIX.4.4|9=56|35=0|34=7|49=T1Kauaiblk1|52=20210205-15:27:51.097|56=MA|10=070|8=FIX.4.4|9=2352|35=E|34=8|49=T1Kauaiblk1|52=20210205-15:28:59.120|56=MA|66=ListID-050221-1267|394=2|68=20|73=20|11=ClOrdID-1268|22=4|38=1000000|44=100.202|48=US06051GEN51|54=1|55=[N/A/]|67=1|423=1|29726=100.262|453=1|448=T1Kauaiblk1|447=C|452=11|11=ClOrdID-1269|22=4|38=2000000|44=99.23|48=US40434AAB52|54=1|55=[N/A]|67=2|423=1|29726=100.262|11=ClOrdID-1270|22=4|38=1300000|44=100.1|48=US06738JYZ10|54=1|55=[N/A/]|67=3|423=1|29726=99.555|453=1|448=T1Kauaiblk1|447=C|452=11|11=ClOrdID-1271|22=4|38=2500000|44=98.253|48=US95709TAH32|54=1|55=[N/A/]|67=4|423=1|29726=101.225|453=1|448=T1Kauaiblk1|447=C|452=11|11=ClOrdID-1272|22=4|38=3000000|44=100.235|48=US29379VAW37|54=1|55=[N/A/]|67=5|423=1|29726=99.66|453=1|448=T1Kauaiblk1|447=C|452=11|11=ClOrdID-1273|22=4|38=1000000|44=101.123|48=US48121ECC49|54=1|55=[N/A/]|67=6|423=1|29726=100.601|453=1|448=T1Kauaiblk1|447=C|452=11|11=ClOrdID-1274|22=4|38=3500000|44=102.32|48=US983024AL46|54=1|55=[N/A/]|67=7|423=1|453=1|448=T1Kauaiblk1|447=C|452=11|11=ClOrdID-1275|22=4|38=4500000|48=US61166WAE12|54=1|55=[N/A/]|67=8|453=1|448=T1Kauaiblk1|447=C|452=11|11=ClOrdID-1276|22=4|38=350000|48=US000828JAM09|54=1|55=[N/A/]|67=9|453=1|448=T1Kauaiblk1|447=C|452=11|11=ClOrdID-1277|22=4|38=1000000|48=US62630CAR25|54=1|55=[N/A/]|67=10|453=1|448=T1Kauaiblk1|447=C|452=11|11=ClOrdID-1278|22=4|38=1000000|48=US05379BAK35|54=1|55=[N/A/]|67=11|453=1|448=T1Kauaiblk1|447=C|452=11|11=ClOrdID-1279|22=4|38=1000000|48=US368710AC32|54=1|55=[N/A/]|67=12|453=1|448=T1Kauaiblk1|447=C|452=11|11=ClOrdID-1280|22=4|38=200000|48=XS1186833239|54=1|55=[N/A/]|67=13|453=1|448=T1Kauaiblk1|447=C|452=11|11=ClOrdID-1281|22=4|38=350000|48=US842400FC28|54=1|55=[N/A/]|67=14|453=1|448=T1Kauaiblk1|447=C|452=11|11=ClOrdID-1282|22=4|38=5000000|48=US927804FA70|54=1|55=[N/A/]|67=15|453=1|448=T1Kauaiblk1|447=C|452=11|11=ClOrdID-1283|22=4|38=500000|48=US472319AC60|54=1|55=[N/A/]|67=16|453=1|448=T1Kauaiblk1|447=C|452=11|11=ClOrdID-1284|22=4|38=700000|44=99.992|48=US93884PDN78|54=1|55=[N/A/]|67=17|423=1|453=1|448=T1Kauaiblk1|447=C|452=11|11=ClOrdID-1285|22=4|38=8000000|48=US06050XWS88|54=1|55=[N/A/]|67=8|453=1|448=T1Kauaiblk1|447=C|452=11|11=ClOrdID-1286|22=4|38=1000000|44=98.985|48=US87425EAJ29|54=1|55=[N/A/]|67=19|423=1|453=1|448=T1Kauaiblk1|447=C|452=11|11=ClOrdID-1287|22=4|38=2000000|48=US816300AG24|54=1|55=[N/A/]|67=20|453=1|448=T1Kauaiblk1|447=C|452=11|10=096|8=FIX.4.4|9=56|35=0|34=9|49=T1Kauaiblk1|52=20210205-15:30:30.099|56=MA|10=065|8=FIX.4.4|9=57|35=0|34=10|49=T1Kauaiblk1|52=20210205-15:32:00.099|56=MA|10=105|8=FIX.4.4|9=57|35=0|34=11|49=T1Kauaiblk1|52=20210205-15:33:30.100|56=MA|10=093|8=FIX.4.4|9=57|35=0|34=12|49=T1Kauaiblk1|52=20210205-15:35:00.100|56=MA|10=093|8=FIX.4.4|9=57|35=0|34=13|49=T1Kauaiblk1|52=20210205-15:36:30.100|56=MA|10=098|8=FIX.4.4|9=57|35=0|34=14|49=T1Kauaiblk1|52=20210205-15:38:00.100|56=MA|10=098|8=FIX.4.4|9=57|35=0|34=15|49=T1Kauaiblk1|52=20210205-15:39:30.101|56=MA|10=104|8=FIX.4.4|9=57|35=0|34=16|49=T1Kauaiblk1|52=20210205-15:41:00.104|56=MA|10=098|8=FIX.4.4|9=57|35=0|34=17|49=T1Kauaiblk1|52=20210205-15:42:30.106|56=MA|10=105|8=FIX.4.4|9=57|35=0|34=18|49=T1Kauaiblk1|52=20210205-15:44:00.108|56=MA|10=107|8=FIX.4.4|9=57|35=0|34=19|49=T1Kauaiblk1|52=20210205-15:45:30.110|56=MA|10=105|8=FIX.4.4|9=57|35=0|34=20|49=T1Kauaiblk1|52=20210205-15:47:01.109|56=MA|10=105|8=FIX.4.4|9=57|35=0|34=21|49=T1Kauaiblk1|52=20210205-15:48:31.110|56=MA|10=102|8=FIX.4.4|9=57|35=0|34=22|49=T1Kauaiblk1|52=20210205-15:50:01.110|56=MA|10=093|8=FIX.4.4|9=57|35=0|34=23|49=T1Kauaiblk1|52=20210205-15:51:31.111|56=MA|10=099|8=FIX.4.4|9=57|35=0|34=24|49=T1Kauaiblk1|52=20210205-15:53:01.112|56=MA|10=100|8=FIX.4.4|9=57|35=0|34=25|49=T1Kauaiblk1|52=20210205-15:54:32.112|56=MA|10=106|8=FIX.4.4|9=57|35=0|34=26|49=T1Kauaiblk1|52=20210205-15:56:03.113|56=MA|10=108|8=FIX.4.4|9=57|35=0|34=27|49=T1Kauaiblk1|52=20210205-15:57:34.113|56=MA|10=114|8=FIX.4.4|9=57|35=0|34=28|49=T1Kauaiblk1|52=20210205-15:59:05.110|56=MA|10=112|8=FIX.4.4|9=57|35=0|34=29|49=T1Kauaiblk1|52=20210205-16:00:36.109|56=MA|10=112|8=FIX.4.4|9=57|35=0|34=30|49=T1Kauaiblk1|52=20210205-16:02:06.109|56=MA|10=103|8=FIX.4.4|9=57|35=0|34=31|49=T1Kauaiblk1|52=20210205-16:03:37.107|56=MA|10=107|8=FIX.4.4|9=57|35=0|34=32|49=T1Kauaiblk1|52=20210205-16:05:07.107|56=MA|10=107|8=FIX.4.4|9=57|35=0|34=33|49=T1Kauaiblk1|52=20210205-16:06:37.108|56=MA|10=113|8=FIX.4.4|9=57|35=0|34=34|49=T1Kauaiblk1|52=20210205-16:08:07.108|56=MA|10=113|8=FIX.4.4|9=57|35=0|34=35|49=T1Kauaiblk1|52=20210205-16:09:38.107|56=MA|10=118|8=FIX.4.4|9=57|35=0|34=36|49=T1Kauaiblk1|52=20210205-16:11:08.107|56=MA|10=109|8=FIX.4.4|9=57|35=0|34=37|49=T1Kauaiblk1|52=20210205-16:12:38.108|56=MA|10=115|8=FIX.4.4|9=57|35=0|34=38|49=T1Kauaiblk1|52=20210205-16:14:08.110|56=MA|10=108|8=FIX.4.4|9=57|35=0|34=39|49=T1Kauaiblk1|52=20210205-16:15:38.112|56=MA|10=115|8=FIX.4.4|9=57|35=0|34=40|49=T1Kauaiblk1|52=20210205-16:17:08.114|56=MA|10=108|8=FIX.4.4|9=57|35=0|34=41|49=T1Kauaiblk1|52=20210205-16:18:38.115|56=MA|10=114|8=FIX.4.4|9=57|35=0|34=42|49=T1Kauaiblk1|52=20210205-16:20:08.117|56=MA|10=107|8=FIX.4.4|9=57|35=0|34=43|49=T1Kauaiblk1|52=20210205-16:21:38.118|56=MA|10=113|8=FIX.4.4|9=57|35=0|34=44|49=T1Kauaiblk1|52=20210205-16:23:08.119|56=MA|10=114|8=FIX.4.4|9=57|35=0|34=45|49=T1Kauaiblk1|52=20210205-16:24:38.120|56=MA|10=111|8=FIX.4.4|9=57|35=0|34=46|49=T1Kauaiblk1|52=20210205-16:26:08.120|56=MA|10=111|8=FIX.4.4|9=57|35=0|34=47|49=T1Kauaiblk1|52=20210205-16:27:38.125|56=MA|10=121|8=FIX.4.4|9=57|35=0|34=48|49=T1Kauaiblk1|52=20210205-16:29:08.175|56=MA|10=126|8=FIX.4.4|9=57|35=0|34=49|49=T1Kauaiblk1|52=20210205-16:30:38.223|56=MA|10=116|8=FIX.4.4|9=2353|35=E|34=50|49=T1Kauaiblk1|52=20210205-16:31:57.481|56=MA|66=ListID-050221-1288|394=2|68=20|73=20|11=ClOrdID-1289|22=4|38=1000000|44=100.202|48=US06051GEN51|54=1|55=[N/A/]|67=1|423=1|29726=100.262|453=1|448=T1Kauaiblk1|447=C|452=11|11=ClOrdID-1290|22=4|38=2000000|44=99.23|48=US40434AAB52|54=1|55=[N/A]|67=2|423=1|29726=100.262|11=ClOrdID-1291|22=4|38=1300000|44=100.1|48=US06738JYZ10|54=1|55=[N/A/]|67=3|423=1|29726=99.555|453=1|448=T1Kauaiblk1|447=C|452=11|11=ClOrdID-1292|22=4|38=2500000|44=98.253|48=US95709TAH32|54=1|55=[N/A/]|67=4|423=1|29726=101.225|453=1|448=T1Kauaiblk1|447=C|452=11|11=ClOrdID-1293|22=4|38=3000000|44=100.235|48=US29379VAW37|54=1|55=[N/A/]|67=5|423=1|29726=99.66|453=1|448=T1Kauaiblk1|447=C|452=11|11=ClOrdID-1294|22=4|38=1000000|44=101.123|48=US48121ECC49|54=1|55=[N/A/]|67=6|423=1|29726=100.601|453=1|448=T1Kauaiblk1|447=C|452=11|11=ClOrdID-1295|22=4|38=3500000|44=102.32|48=US983024AL46|54=1|55=[N/A/]|67=7|423=1|453=1|448=T1Kauaiblk1|447=C|452=11|11=ClOrdID-1296|22=4|38=4500000|48=US61166WAE12|54=1|55=[N/A/]|67=8|453=1|448=T1Kauaiblk1|447=C|452=11|11=ClOrdID-1297|22=4|38=350000|48=US000828JAM09|54=1|55=[N/A/]|67=9|453=1|448=T1Kauaiblk1|447=C|452=11|11=ClOrdID-1298|22=4|38=1000000|48=US62630CAR25|54=1|55=[N/A/]|67=10|453=1|448=T1Kauaiblk1|447=C|452=11|11=ClOrdID-1299|22=4|38=1000000|48=US05379BAK35|54=1|55=[N/A/]|67=11|453=1|448=T1Kauaiblk1|447=C|452=11|11=ClOrdID-1300|22=4|38=1000000|48=US368710AC32|54=1|55=[N/A/]|67=12|453=1|448=T1Kauaiblk1|447=C|452=11|11=ClOrdID-1301|22=4|38=200000|48=XS1186833239|54=1|55=[N/A/]|67=13|453=1|448=T1Kauaiblk1|447=C|452=11|11=ClOrdID-1302|22=4|38=350000|48=US842400FC28|54=1|55=[N/A/]|67=14|453=1|448=T1Kauaiblk1|447=C|452=11|11=ClOrdID-1303|22=4|38=5000000|48=US927804FA70|54=1|55=[N/A/]|67=15|453=1|448=T1Kauaiblk1|447=C|452=11|11=ClOrdID-1304|22=4|38=500000|48=US472319AC60|54=1|55=[N/A/]|67=16|453=1|448=T1Kauaiblk1|447=C|452=11|11=ClOrdID-1305|22=4|38=700000|44=99.992|48=US93884PDN78|54=1|55=[N/A/]|67=17|423=1|453=1|448=T1Kauaiblk1|447=C|452=11|11=ClOrdID-1306|22=4|38=8000000|48=US06050XWS88|54=1|55=[N/A/]|67=8|453=1|448=T1Kauaiblk1|447=C|452=11|11=ClOrdID-1307|22=4|38=1000000|44=98.985|48=US87425EAJ29|54=1|55=[N/A/]|67=19|423=1|453=1|448=T1Kauaiblk1|447=C|452=11|11=ClOrdID-1308|22=4|38=2000000|48=US816300AG24|54=1|55=[N/A/]|67=20|453=1|448=T1Kauaiblk1|447=C|452=11|10=109|8=FIX.4.4|9=2353|35=E|34=51|49=T1Kauaiblk1|52=20210205-16:33:13.468|56=MA|66=ListID-050221-1309|394=2|68=20|73=20|11=ClOrdID-1310|22=4|38=1000000|44=100.202|48=US06051GEN51|54=1|55=[N/A/]|67=1|423=1|29726=100.262|453=1|448=T1Kauaiblk1|447=C|452=11|11=ClOrdID-1311|22=4|38=2000000|44=99.23|48=US40434AAB52|54=1|55=[N/A]|67=2|423=1|29726=100.262|11=ClOrdID-1312|22=4|38=1300000|44=100.1|48=US06738JYZ10|54=1|55=[N/A/]|67=3|423=1|29726=99.555|453=1|448=T1Kauaiblk1|447=C|452=11|11=ClOrdID-1313|22=4|38=2500000|44=98.253|48=US95709TAH32|54=1|55=[N/A/]|67=4|423=1|29726=101.225|453=1|448=T1Kauaiblk1|447=C|452=11|11=ClOrdID-1314|22=4|38=3000000|44=100.235|48=US29379VAW37|54=1|55=[N/A/]|67=5|423=1|29726=99.66|453=1|448=T1Kauaiblk1|447=C|452=11|11=ClOrdID-1315|22=4|38=1000000|44=101.123|48=US48121ECC49|54=1|55=[N/A/]|67=6|423=1|29726=100.601|453=1|448=T1Kauaiblk1|447=C|452=11|11=ClOrdID-1316|22=4|38=3500000|44=102.32|48=US983024AL46|54=1|55=[N/A/]|67=7|423=1|453=1|448=T1Kauaiblk1|447=C|452=11|11=ClOrdID-1317|22=4|38=4500000|48=US61166WAE12|54=1|55=[N/A/]|67=8|453=1|448=T1Kauaiblk1|447=C|452=11|11=ClOrdID-1318|22=4|38=350000|48=US000828JAM09|54=1|55=[N/A/]|67=9|453=1|448=T1Kauaiblk1|447=C|452=11|11=ClOrdID-1319|22=4|38=1000000|48=US62630CAR25|54=1|55=[N/A/]|67=10|453=1|448=T1Kauaiblk1|447=C|452=11|11=ClOrdID-1320|22=4|38=1000000|48=US05379BAK35|54=1|55=[N/A/]|67=11|453=1|448=T1Kauaiblk1|447=C|452=11|11=ClOrdID-1321|22=4|38=1000000|48=US368710AC32|54=1|55=[N/A/]|67=12|453=1|448=T1Kauaiblk1|447=C|452=11|11=ClOrdID-1322|22=4|38=200000|48=XS1186833239|54=1|55=[N/A/]|67=13|453=1|448=T1Kauaiblk1|447=C|452=11|11=ClOrdID-1323|22=4|38=350000|48=US842400FC28|54=1|55=[N/A/]|67=14|453=1|448=T1Kauaiblk1|447=C|452=11|11=ClOrdID-1324|22=4|38=5000000|48=US927804FA70|54=1|55=[N/A/]|67=15|453=1|448=T1Kauaiblk1|447=C|452=11|11=ClOrdID-1325|22=4|38=500000|48=US472319AC60|54=1|55=[N/A/]|67=16|453=1|448=T1Kauaiblk1|447=C|452=11|11=ClOrdID-1326|22=4|38=700000|44=99.992|48=US93884PDN78|54=1|55=[N/A/]|67=17|423=1|453=1|448=T1Kauaiblk1|447=C|452=11|11=ClOrdID-1327|22=4|38=8000000|48=US06050XWS88|54=1|55=[N/A/]|67=8|453=1|448=T1Kauaiblk1|447=C|452=11|11=ClOrdID-1328|22=4|38=1000000|44=98.985|48=US87425EAJ29|54=1|55=[N/A/]|67=19|423=1|453=1|448=T1Kauaiblk1|447=C|452=11|11=ClOrdID-1329|22=4|38=2000000|48=US816300AG24|54=1|55=[N/A/]|67=20|453=1|448=T1Kauaiblk1|447=C|452=11|10=046|8=FIX.4.4|9=57|35=0|34=52|49=T1Kauaiblk1|52=20210205-16:34:44.315|56=MA|10=113|8=FIX.4.4|9=57|35=0|34=53|49=T1Kauaiblk1|52=20210205-16:36:14.336|56=MA|10=116|8=FIX.4.4|9=57|35=0|34=54|49=T1Kauaiblk1|52=20210205-16:37:44.355|56=MA|10=122|8=FIX.4.4|9=57|35=0|34=55|49=T1Kauaiblk1|52=20210205-16:39:14.364|56=MA|10=122|8=FIX.4.4|9=2353|35=E|34=56|49=T1Kauaiblk1|52=20210205-16:40:23.889|56=MA|66=ListID-050221-1330|394=2|68=20|73=20|11=ClOrdID-1331|22=4|38=1000000|44=100.202|48=US06051GEN51|54=1|55=[N/A/]|67=1|423=1|29726=100.262|453=1|448=T1Kauaiblk1|447=C|452=11|11=ClOrdID-1332|22=4|38=2000000|44=99.23|48=US40434AAB52|54=1|55=[N/A]|67=2|423=1|29726=100.262|11=ClOrdID-1333|22=4|38=1300000|44=100.1|48=US06738JYZ10|54=1|55=[N/A/]|67=3|423=1|29726=99.555|453=1|448=T1Kauaiblk1|447=C|452=11|11=ClOrdID-1334|22=4|38=2500000|44=98.253|48=US95709TAH32|54=1|55=[N/A/]|67=4|423=1|29726=101.225|453=1|448=T1Kauaiblk1|447=C|452=11|11=ClOrdID-1335|22=4|38=3000000|44=100.235|48=US29379VAW37|54=1|55=[N/A/]|67=5|423=1|29726=99.66|453=1|448=T1Kauaiblk1|447=C|452=11|11=ClOrdID-1336|22=4|38=1000000|44=101.123|48=US48121ECC49|54=1|55=[N/A/]|67=6|423=1|29726=100.601|453=1|448=T1Kauaiblk1|447=C|452=11|11=ClOrdID-1337|22=4|38=3500000|44=102.32|48=US983024AL46|54=1|55=[N/A/]|67=7|423=1|453=1|448=T1Kauaiblk1|447=C|452=11|11=ClOrdID-1338|22=4|38=4500000|48=US61166WAE12|54=1|55=[N/A/]|67=8|453=1|448=T1Kauaiblk1|447=C|452=11|11=ClOrdID-1339|22=4|38=350000|48=US000828JAM09|54=1|55=[N/A/]|67=9|453=1|448=T1Kauaiblk1|447=C|452=11|11=ClOrdID-1340|22=4|38=1000000|48=US62630CAR25|54=1|55=[N/A/]|67=10|453=1|448=T1Kauaiblk1|447=C|452=11|11=ClOrdID-1341|22=4|38=1000000|48=US05379BAK35|54=1|55=[N/A/]|67=11|453=1|448=T1Kauaiblk1|447=C|452=11|11=ClOrdID-1342|22=4|38=1000000|48=US368710AC32|54=1|55=[N/A/]|67=12|453=1|448=T1Kauaiblk1|447=C|452=11|11=ClOrdID-1343|22=4|38=200000|48=XS1186833239|54=1|55=[N/A/]|67=13|453=1|448=T1Kauaiblk1|447=C|452=11|11=ClOrdID-1344|22=4|38=350000|48=US842400FC28|54=1|55=[N/A/]|67=14|453=1|448=T1Kauaiblk1|447=C|452=11|11=ClOrdID-1345|22=4|38=5000000|48=US927804FA70|54=1|55=[N/A/]|67=15|453=1|448=T1Kauaiblk1|447=C|452=11|11=ClOrdID-1346|22=4|38=500000|48=US472319AC60|54=1|55=[N/A/]|67=16|453=1|448=T1Kauaiblk1|447=C|452=11|11=ClOrdID-1347|22=4|38=700000|44=99.992|48=US93884PDN78|54=1|55=[N/A/]|67=17|423=1|453=1|448=T1Kauaiblk1|447=C|452=11|11=ClOrdID-1348|22=4|38=8000000|48=US06050XWS88|54=1|55=[N/A/]|67=8|453=1|448=T1Kauaiblk1|447=C|452=11|11=ClOrdID-1349|22=4|38=1000000|44=98.985|48=US87425EAJ29|54=1|55=[N/A/]|67=19|423=1|453=1|448=T1Kauaiblk1|447=C|452=11|11=ClOrdID-1350|22=4|38=2000000|48=US816300AG24|54=1|55=[N/A/]|67=20|453=1|448=T1Kauaiblk1|447=C|452=11|10=093|8=FIX.4.4|9=57|35=0|34=57|49=T1Kauaiblk1|52=20210205-16:41:54.380|56=MA|10=119|8=FIX.4.4|9=57|35=0|34=58|49=T1Kauaiblk1|52=20210205-16:43:25.368|56=MA|10=126|8=FIX.4.4|9=57|35=0|34=59|49=T1Kauaiblk1|52=20210205-16:44:56.318|56=MA|10=127|8=FIX.4.4|9=57|35=0|34=60|49=T1Kauaiblk1|52=20210205-16:46:27.267|56=MA|10=122|8=FIX.4.4|9=57|35=0|34=61|49=T1Kauaiblk1|52=20210205-16:47:58.219|56=MA|10=125|8=FIX.4.4|9=57|35=0|34=62|49=T1Kauaiblk1|52=20210205-16:49:29.198|56=MA|10=132|8=FIX.4.4|9=57|35=0|34=63|49=T1Kauaiblk1|52=20210205-16:51:00.178|56=MA|10=113|8=FIX.4.4|9=57|35=0|34=64|49=T1Kauaiblk1|52=20210205-16:52:31.163|56=MA|10=113|8=FIX.4.4|9=57|35=0|34=65|49=T1Kauaiblk1|52=20210205-16:54:02.151|56=MA|10=111|8=FIX.4.4|9=57|35=0|34=66|49=T1Kauaiblk1|52=20210205-16:55:33.141|56=MA|10=116|8=FIX.4.4|9=57|35=0|34=67|49=T1Kauaiblk1|52=20210205-16:57:04.131|56=MA|10=116|8=FIX.4.4|9=57|35=0|34=68|49=T1Kauaiblk1|52=20210205-16:58:35.127|56=MA|10=127|8=FIX.4.4|9=57|35=0|34=69|49=T1Kauaiblk1|52=20210205-17:00:06.122|56=MA|10=109|8=FIX.4.4|9=57|35=0|34=70|49=T1Kauaiblk1|52=20210205-17:01:37.119|56=MA|10=112|8=FIX.4.4|9=57|35=0|34=71|49=T1Kauaiblk1|52=20210205-17:03:08.115|56=MA|10=109|8=FIX.4.4|9=57|35=0|34=72|49=T1Kauaiblk1|52=20210205-17:04:39.114|56=MA|10=114|8=FIX.4.4|9=57|35=0|34=73|49=T1Kauaiblk1|52=20210205-17:06:10.112|56=MA|10=104|8=FIX.4.4|9=57|35=0|34=74|49=T1Kauaiblk1|52=20210205-17:07:41.111|56=MA|10=109|8=FIX.4.4|9=57|35=0|34=75|49=T1Kauaiblk1|52=20210205-17:09:11.111|56=MA|10=109|8=FIX.4.4|9=57|35=0|34=76|49=T1Kauaiblk1|52=20210205-17:10:41.111|56=MA|10=105|8=FIX.4.4|9=57|35=0|34=77|49=T1Kauaiblk1|52=20210205-17:12:11.111|56=MA|10=105|8=FIX.4.4|9=57|35=0|34=78|49=T1Kauaiblk1|52=20210205-17:13:42.111|56=MA|10=111|8=FIX.4.4|9=57|35=0|34=79|49=T1Kauaiblk1|52=20210205-17:15:12.111|56=MA|10=111|8=FIX.4.4|9=57|35=0|34=80|49=T1Kauaiblk1|52=20210205-17:16:43.111|56=MA|10=108|8=FIX.4.4|9=57|35=0|34=81|49=T1Kauaiblk1|52=20210205-17:18:13.113|56=MA|10=110|8=FIX.4.4|9=57|35=0|34=82|49=T1Kauaiblk1|52=20210205-17:19:43.115|56=MA|10=117|8=FIX.4.4|9=57|35=0|34=83|49=T1Kauaiblk1|52=20210205-17:21:13.119|56=MA|10=112|8=FIX.4.4|9=57|35=0|34=84|49=T1Kauaiblk1|52=20210205-17:22:43.119|56=MA|10=117|8=FIX.4.4|9=57|35=0|34=85|49=T1Kauaiblk1|52=20210205-17:24:13.121|56=MA|10=110|8=FIX.4.4|9=57|35=0|34=86|49=T1Kauaiblk1|52=20210205-17:25:43.122|56=MA|10=116|8=FIX.4.4|9=57|35=0|34=87|49=T1Kauaiblk1|52=20210205-17:27:13.123|56=MA|10=117|8=FIX.4.4|9=57|35=0|34=88|49=T1Kauaiblk1|52=20210205-17:28:43.124|56=MA|10=123|8=FIX.4.4|9=57|35=0|34=89|49=T1Kauaiblk1|52=20210205-17:30:13.124|56=MA|10=114|8=FIX.4.4|9=57|35=0|34=90|49=T1Kauaiblk1|52=20210205-17:31:43.127|56=MA|10=113|8=FIX.4.4|9=57|35=5|34=91|49=T1Kauaiblk1|52=20210205-17:32:16.127|56=MA|10=120|8=FIX.4.4|9=91|35=A|34=1|49=T1Kauaiblk1|52=20210208-08:25:15.473|56=MA|98=0|108=90|95=8|96=3.0.0rc5|141=Y|10=039|8=FIX.4.4|9=56|35=0|34=2|49=T1Kauaiblk1|52=20210208-08:26:46.382|56=MA|10=070|8=FIX.4.4|9=56|35=0|34=3|49=T1Kauaiblk1|52=20210208-08:28:17.088|56=MA|10=074|8=FIX.4.4|9=718|35=E|34=4|49=T1Kauaiblk1|52=20210208-08:29:10.893|56=MA|66=ListID-B080222-1222|394=2|68=5|73=5|11=ClOrdID-1223|22=4|38=1000000|44=100.261|48=US06051GEN51|54=1|55=[N/A/]|63=3|67=1|423=1|29726=100.262|453=1|448=T1Kauaiblk1|447=C|452=11|11=ClOrdID-1224|22=4|38=2000000|44=101|48=US40434AAB52|54=1|55=[N/A]|63=3|67=2|29726=101.25|11=ClOrdID-1225|22=4|38=1300000|44=102.251|48=US95709TAH32|54=1|55=[N/A/]|63=3|67=1|29726=102.25|453=1|448=T1Kauaiblk1|447=C|452=11|11=ClOrdID-1226|22=4|38=250000|44=103.1|48=US427866AZ15|54=1|55=[N/A/]|63=3|67=1|29726=103.25|453=1|448=T1Kauaiblk1|447=C|452=11|11=ClOrdID-1227|22=4|38=350000|44=104.231|48=US29379VAW37|54=1|55=[N/A/]|63=3|67=1|29726=104.25|453=1|448=T1Kauaiblk1|447=C|452=11|10=031|8=FIX.4.4|9=56|35=0|34=5|49=T1Kauaiblk1|52=20210208-08:30:41.627|56=MA|10=065|8=FIX.4.4|9=56|35=0|34=6|49=T1Kauaiblk1|52=20210208-08:32:12.517|56=MA|10=064|8=FIX.4.4|9=56|35=0|34=7|49=T1Kauaiblk1|52=20210208-08:33:42.517|56=MA|10=069|8=FIX.4.4|9=718|35=E|34=8|49=T1Kauaiblk1|52=20210208-08:34:22.469|56=MA|66=ListID-S080221-1228|394=2|68=5|73=5|11=ClOrdID-1229|22=4|38=1000000|44=100.261|48=US06051GEN51|54=2|55=[N/A/]|63=3|67=1|423=1|29726=100.262|453=1|448=T1Kauaiblk1|447=C|452=11|11=ClOrdID-1230|22=4|38=2000000|44=101|48=US40434AAB52|54=2|55=[N/A]|63=3|67=2|29726=101.25|11=ClOrdID-1231|22=4|38=1300000|44=102.251|48=US95709TAH32|54=2|55=[N/A/]|63=3|67=1|29726=102.25|453=1|448=T1Kauaiblk1|447=C|452=11|11=ClOrdID-1232|22=4|38=250000|44=103.1|48=US427866AZ15|54=2|55=[N/A/]|63=3|67=1|29726=103.25|453=1|448=T1Kauaiblk1|447=C|452=11|11=ClOrdID-1233|22=4|38=350000|44=104.231|48=US29379VAW37|54=2|55=[N/A/]|63=3|67=1|29726=104.25|453=1|448=T1Kauaiblk1|447=C|452=11|10=054|8=FIX.4.4|9=56|35=0|34=9|49=T1Kauaiblk1|52=20210208-08:35:52.516|56=MA|10=073|8=FIX.4.4|9=57|35=0|34=10|49=T1Kauaiblk1|52=20210208-08:37:22.516|56=MA|10=113|8=FIX.4.4|9=57|35=0|34=11|49=T1Kauaiblk1|52=20210208-08:38:53.515|56=MA|10=118|8=FIX.4.4|9=57|35=0|34=12|49=T1Kauaiblk1|52=20210208-08:40:24.511|56=MA|10=106|8=FIX.4.4|9=57|35=0|34=13|49=T1Kauaiblk1|52=20210208-08:41:55.505|56=MA|10=115|8=FIX.4.4|9=57|35=0|34=14|49=T1Kauaiblk1|52=20210208-08:43:26.500|56=MA|10=111|8=FIX.4.4|9=57|35=0|34=15|49=T1Kauaiblk1|52=20210208-08:44:56.500|56=MA|10=116|8=FIX.4.4|9=57|35=0|34=16|49=T1Kauaiblk1|52=20210208-08:46:26.500|56=MA|10=116|8=FIX.4.4|9=57|35=0|34=17|49=T1Kauaiblk1|52=20210208-08:47:56.500|56=MA|10=121|8=FIX.4.4|9=57|35=0|34=18|49=T1Kauaiblk1|52=20210208-08:49:26.500|56=MA|10=121|8=FIX.4.4|9=57|35=0|34=19|49=T1Kauaiblk1|52=20210208-08:50:56.500|56=MA|10=117|8=FIX.4.4|9=57|35=0|34=20|49=T1Kauaiblk1|52=20210208-08:52:26.500|56=MA|10=108|8=FIX.4.4|9=57|35=0|34=21|49=T1Kauaiblk1|52=20210208-08:53:56.500|56=MA|10=113|8=FIX.4.4|9=57|35=0|34=22|49=T1Kauaiblk1|52=20210208-08:55:27.499|56=MA|10=131|8=FIX.4.4|9=57|35=0|34=23|49=T1Kauaiblk1|52=20210208-08:56:57.504|56=MA|10=123|8=FIX.4.4|9=57|35=0|34=24|49=T1Kauaiblk1|52=20210208-08:58:27.506|56=MA|10=125|8=FIX.4.4|9=57|35=0|34=25|49=T1Kauaiblk1|52=20210208-08:59:57.509|56=MA|10=133|8=FIX.4.4|9=57|35=0|34=26|49=T1Kauaiblk1|52=20210208-09:01:27.511|56=MA|10=112|8=FIX.4.4|9=57|35=0|34=27|49=T1Kauaiblk1|52=20210208-09:02:57.511|56=MA|10=117|8=FIX.4.4|9=57|35=0|34=28|49=T1Kauaiblk1|52=20210208-09:04:28.511|56=MA|10=118|8=FIX.4.4|9=57|35=0|34=29|49=T1Kauaiblk1|52=20210208-09:05:58.511|56=MA|10=123|8=FIX.4.4|9=57|35=0|34=30|49=T1Kauaiblk1|52=20210208-09:07:29.511|56=MA|10=115|8=FIX.4.4|9=57|35=0|34=31|49=T1Kauaiblk1|52=20210208-09:08:59.511|56=MA|10=120|8=FIX.4.4|9=57|35=0|34=32|49=T1Kauaiblk1|52=20210208-09:10:30.510|56=MA|10=102|8=FIX.4.4|9=57|35=0|34=33|49=T1Kauaiblk1|52=20210208-09:12:00.510|56=MA|10=102|8=FIX.4.4|9=57|35=0|34=34|49=T1Kauaiblk1|52=20210208-09:13:30.510|56=MA|10=107|8=FIX.4.4|9=57|35=0|34=35|49=T1Kauaiblk1|52=20210208-09:15:01.508|56=MA|10=115|8=FIX.4.4|9=57|35=0|34=36|49=T1Kauaiblk1|52=20210208-09:16:32.507|56=MA|10=120|8=FIX.4.4|9=57|35=0|34=37|49=T1Kauaiblk1|52=20210208-09:18:03.504|56=MA|10=118|8=FIX.4.4|9=57|35=0|34=38|49=T1Kauaiblk1|52=20210208-09:19:34.502|56=MA|10=122|8=FIX.4.4|9=57|35=0|34=39|49=T1Kauaiblk1|52=20210208-09:21:04.503|56=MA|10=114|8=FIX.4.4|9=57|35=0|34=40|49=T1Kauaiblk1|52=20210208-09:22:35.500|56=MA|10=108|8=FIX.4.4|9=57|35=0|34=41|49=T1Kauaiblk1|52=20210208-09:24:05.500|56=MA|10=108|8=FIX.4.4|9=57|35=0|34=42|49=T1Kauaiblk1|52=20210208-09:25:35.500|56=MA|10=113|8=FIX.4.4|9=57|35=0|34=43|49=T1Kauaiblk1|52=20210208-09:27:05.500|56=MA|10=113|8=FIX.4.4|9=57|35=0|34=44|49=T1Kauaiblk1|52=20210208-09:28:36.499|56=MA|10=136|8=FIX.4.4|9=57|35=0|34=45|49=T1Kauaiblk1|52=20210208-09:30:06.500|56=MA|10=110|8=FIX.4.4|9=57|35=0|34=46|49=T1Kauaiblk1|52=20210208-09:31:36.505|56=MA|10=120|8=FIX.4.4|9=57|35=0|34=47|49=T1Kauaiblk1|52=20210208-09:33:06.508|56=MA|10=123|8=FIX.4.4|9=57|35=0|34=48|49=T1Kauaiblk1|52=20210208-09:34:36.511|56=MA|10=122|8=FIX.4.4|9=57|35=0|34=49|49=T1Kauaiblk1|52=20210208-09:36:06.512|56=MA|10=123|8=FIX.4.4|9=57|35=0|34=50|49=T1Kauaiblk1|52=20210208-09:37:36.513|56=MA|10=120|8=FIX.4.4|9=57|35=0|34=51|49=T1Kauaiblk1|52=20210208-09:39:06.515|56=MA|10=122|8=FIX.4.4|9=57|35=0|34=52|49=T1Kauaiblk1|52=20210208-09:40:36.516|56=MA|10=119|8=FIX.4.4|9=57|35=0|34=53|49=T1Kauaiblk1|52=20210208-09:42:06.518|56=MA|10=121|8=FIX.4.4|9=57|35=0|34=54|49=T1Kauaiblk1|52=20210208-09:43:36.518|56=MA|10=126|8=FIX.4.4|9=719|35=E|34=55|49=T1Kauaiblk1|52=20210208-09:44:23.242|56=MA|66=ListID-B080222-1234|394=2|68=5|73=5|11=ClOrdID-1235|22=4|38=1000000|44=100.261|48=US06051GEN51|54=1|55=[N/A/]|63=3|67=1|423=1|29726=100.262|453=1|448=T1Kauaiblk1|447=C|452=11|11=ClOrdID-1236|22=4|38=2000000|44=101|48=US40434AAB52|54=1|55=[N/A]|63=3|67=2|29726=101.25|11=ClOrdID-1237|22=4|38=1300000|44=102.251|48=US95709TAH32|54=1|55=[N/A/]|63=3|67=1|29726=102.25|453=1|448=T1Kauaiblk1|447=C|452=11|11=ClOrdID-1238|22=4|38=250000|44=103.1|48=US427866AZ15|54=1|55=[N/A/]|63=3|67=1|29726=103.25|453=1|448=T1Kauaiblk1|447=C|452=11|11=ClOrdID-1239|22=4|38=350000|44=104.231|48=US29379VAW37|54=1|55=[N/A/]|63=3|67=1|29726=104.25|453=1|448=T1Kauaiblk1|447=C|452=11|10=094|8=FIX.4.4|9=57|35=0|34=56|49=T1Kauaiblk1|52=20210208-09:45:53.518|56=MA|10=129|8=FIX.4.4|9=57|35=0|34=57|49=T1Kauaiblk1|52=20210208-09:47:24.517|56=MA|10=129|8=FIX.4.4|9=57|35=0|34=58|49=T1Kauaiblk1|52=20210208-09:48:55.515|56=MA|10=133|8=FIX.4.4|9=57|35=0|34=59|49=T1Kauaiblk1|52=20210208-09:50:26.511|56=MA|10=121|8=FIX.4.4|9=57|35=0|34=60|49=T1Kauaiblk1|52=20210208-09:51:57.509|56=MA|10=125|8=FIX.4.4|9=719|35=E|34=61|49=T1Kauaiblk1|52=20210208-09:53:06.311|56=MA|66=ListID-B080222-1240|394=2|68=5|73=5|11=ClOrdID-1241|22=4|38=1000000|44=100.261|48=US06051GEN51|54=1|55=[N/A/]|63=3|67=1|423=1|29726=100.262|453=1|448=T1Kauaiblk1|447=C|452=11|11=ClOrdID-1242|22=4|38=2000000|44=101|48=US40434AAB52|54=1|55=[N/A]|63=3|67=2|29726=101.25|11=ClOrdID-1243|22=4|38=1300000|44=102.251|48=US95709TAH32|54=1|55=[N/A/]|63=3|67=1|29726=102.25|453=1|448=T1Kauaiblk1|447=C|452=11|11=ClOrdID-1244|22=4|38=250000|44=103.1|48=US427866AZ15|54=1|55=[N/A/]|63=3|67=1|29726=103.25|453=1|448=T1Kauaiblk1|447=C|452=11|11=ClOrdID-1245|22=4|38=350000|44=104.231|48=US29379VAW37|54=1|55=[N/A/]|63=3|67=1|29726=104.25|453=1|448=T1Kauaiblk1|447=C|452=11|10=071|8=FIX.4.4|9=57|35=0|34=62|49=T1Kauaiblk1|52=20210208-09:54:36.506|56=MA|10=124|8=FIX.4.4|9=57|35=0|34=63|49=T1Kauaiblk1|52=20210208-09:56:06.507|56=MA|10=125|8=FIX.4.4|9=57|35=0|34=64|49=T1Kauaiblk1|52=20210208-09:57:37.505|56=MA|10=129|8=FIX.4.4|9=57|35=0|34=65|49=T1Kauaiblk1|52=20210208-09:59:07.505|56=MA|10=129|8=FIX.4.4|9=57|35=0|34=66|49=T1Kauaiblk1|52=20210208-10:00:38.504|56=MA|10=111|8=FIX.4.4|9=57|35=0|34=67|49=T1Kauaiblk1|52=20210208-10:02:09.503|56=MA|10=111|8=FIX.4.4|9=57|35=0|34=68|49=T1Kauaiblk1|52=20210208-10:03:39.504|56=MA|10=117|8=FIX.4.4|9=57|35=0|34=69|49=T1Kauaiblk1|52=20210208-10:05:09.506|56=MA|10=119|8=FIX.4.4|9=57|35=0|34=70|49=T1Kauaiblk1|52=20210208-10:06:39.509|56=MA|10=118|8=FIX.4.4|9=57|35=0|34=71|49=T1Kauaiblk1|52=20210208-10:08:09.510|56=MA|10=110|8=FIX.4.4|9=57|35=0|34=72|49=T1Kauaiblk1|52=20210208-10:09:39.512|56=MA|10=117|8=FIX.4.4|9=57|35=0|34=73|49=T1Kauaiblk1|52=20210208-10:11:09.513|56=MA|10=109|8=FIX.4.4|9=57|35=0|34=74|49=T1Kauaiblk1|52=20210208-10:12:39.514|56=MA|10=115|8=FIX.4.4|9=57|35=0|34=75|49=T1Kauaiblk1|52=20210208-10:14:09.515|56=MA|10=116|8=FIX.4.4|9=57|35=0|34=76|49=T1Kauaiblk1|52=20210208-10:15:39.515|56=MA|10=121|8=FIX.4.4|9=57|35=0|34=77|49=T1Kauaiblk1|52=20210208-10:17:10.516|56=MA|10=114|8=FIX.4.4|9=57|35=0|34=78|49=T1Kauaiblk1|52=20210208-10:18:40.517|56=MA|10=120|8=FIX.4.4|9=57|35=0|34=79|49=T1Kauaiblk1|52=20210208-10:20:11.517|56=MA|10=112|8=FIX.4.4|9=57|35=0|34=80|49=T1Kauaiblk1|52=20210208-10:21:42.517|56=MA|10=109|8=FIX.4.4|9=57|35=0|34=81|49=T1Kauaiblk1|52=20210208-10:23:13.515|56=MA|10=108|8=FIX.4.4|9=57|35=0|34=82|49=T1Kauaiblk1|52=20210208-10:24:43.516|56=MA|10=114|8=FIX.4.4|9=57|35=0|34=83|49=T1Kauaiblk1|52=20210208-10:26:14.515|56=MA|10=114|8=FIX.4.4|9=57|35=0|34=84|49=T1Kauaiblk1|52=20210208-10:27:44.515|56=MA|10=119|8=FIX.4.4|9=57|35=0|34=85|49=T1Kauaiblk1|52=20210208-10:29:14.515|56=MA|10=119|8=FIX.4.4|9=57|35=0|34=86|49=T1Kauaiblk1|52=20210208-10:30:44.515|56=MA|10=115|8=FIX.4.4|9=57|35=0|34=87|49=T1Kauaiblk1|52=20210208-10:32:14.516|56=MA|10=116|8=FIX.4.4|9=57|35=0|34=88|49=T1Kauaiblk1|52=20210208-10:33:44.516|56=MA|10=121|8=FIX.4.4|9=57|35=0|34=89|49=T1Kauaiblk1|52=20210208-10:35:14.516|56=MA|10=121|8=FIX.4.4|9=57|35=0|34=90|49=T1Kauaiblk1|52=20210208-10:36:44.516|56=MA|10=117|8=FIX.4.4|9=57|35=0|34=91|49=T1Kauaiblk1|52=20210208-10:38:15.516|56=MA|10=118|8=FIX.4.4|9=57|35=0|34=92|49=T1Kauaiblk1|52=20210208-10:39:46.515|56=MA|10=123|8=FIX.4.4|9=57|35=0|34=93|49=T1Kauaiblk1|52=20210208-10:41:16.517|56=MA|10=116|8=FIX.4.4|9=57|35=0|34=94|49=T1Kauaiblk1|52=20210208-10:42:47.515|56=MA|10=120|8=FIX.4.4|9=57|35=0|34=95|49=T1Kauaiblk1|52=20210208-10:44:17.515|56=MA|10=120|8=FIX.4.4|9=57|35=0|34=96|49=T1Kauaiblk1|52=20210208-10:45:47.516|56=MA|10=126|8=FIX.4.4|9=57|35=0|34=97|49=T1Kauaiblk1|52=20210208-10:47:18.516|56=MA|10=127|8=FIX.4.4|9=57|35=0|34=98|49=T1Kauaiblk1|52=20210208-10:48:49.515|56=MA|10=132|8=FIX.4.4|9=57|35=0|34=99|49=T1Kauaiblk1|52=20210208-10:50:19.516|56=MA|10=124|8=FIX.4.4|9=58|35=0|34=100|49=T1Kauaiblk1|52=20210208-10:51:49.516|56=MA|10=160|8=FIX.4.4|9=58|35=0|34=101|49=T1Kauaiblk1|52=20210208-10:53:20.515|56=MA|10=151|8=FIX.4.4|9=58|35=0|34=102|49=T1Kauaiblk1|52=20210208-10:54:50.515|56=MA|10=156|8=FIX.4.4|9=58|35=0|34=103|49=T1Kauaiblk1|52=20210208-10:56:20.516|56=MA|10=157|8=FIX.4.4|9=58|35=0|34=104|49=T1Kauaiblk1|52=20210208-10:57:50.517|56=MA|10=163|8=FIX.4.4|9=58|35=0|34=105|49=T1Kauaiblk1|52=20210208-10:59:20.519|56=MA|10=165|8=FIX.4.4|9=58|35=0|34=106|49=T1Kauaiblk1|52=20210208-11:00:50.519|56=MA|10=156|8=FIX.4.4|9=58|35=0|34=107|49=T1Kauaiblk1|52=20210208-11:02:20.519|56=MA|10=156|8=FIX.4.4|9=58|35=0|34=108|49=T1Kauaiblk1|52=20210208-11:03:50.520|56=MA|10=153|8=FIX.4.4|9=58|35=0|34=109|49=T1Kauaiblk1|52=20210208-11:05:20.521|56=MA|10=154|8=FIX.4.4|9=58|35=0|34=110|49=T1Kauaiblk1|52=20210208-11:06:51.520|56=MA|10=150|8=FIX.4.4|9=58|35=0|34=111|49=T1Kauaiblk1|52=20210208-11:08:21.520|56=MA|10=150|8=FIX.4.4|9=58|35=0|34=112|49=T1Kauaiblk1|52=20210208-11:09:51.521|56=MA|10=156|8=FIX.4.4|9=58|35=0|34=113|49=T1Kauaiblk1|52=20210208-11:11:21.521|56=MA|10=147|8=FIX.4.4|9=58|35=0|34=114|49=T1Kauaiblk1|52=20210208-11:12:51.522|56=MA|10=153|8=FIX.4.4|9=58|35=0|34=115|49=T1Kauaiblk1|52=20210208-11:14:22.521|56=MA|10=153|8=FIX.4.4|9=58|35=0|34=116|49=T1Kauaiblk1|52=20210208-11:15:52.521|56=MA|10=158|8=FIX.4.4|9=58|35=0|34=117|49=T1Kauaiblk1|52=20210208-11:17:22.522|56=MA|10=159|8=FIX.4.4|9=58|35=0|34=118|49=T1Kauaiblk1|52=20210208-11:18:52.522|56=MA|10=164|8=FIX.4.4|9=58|35=0|34=119|49=T1Kauaiblk1|52=20210208-11:20:22.523|56=MA|10=156|8=FIX.4.4|9=58|35=0|34=120|49=T1Kauaiblk1|52=20210208-11:21:53.523|56=MA|10=153|8=FIX.4.4|9=58|35=0|34=121|49=T1Kauaiblk1|52=20210208-11:23:24.522|56=MA|10=153|8=FIX.4.4|9=58|35=0|34=122|49=T1Kauaiblk1|52=20210208-11:24:54.522|56=MA|10=158|8=FIX.4.4|9=58|35=0|34=123|49=T1Kauaiblk1|52=20210208-11:26:24.522|56=MA|10=158|8=FIX.4.4|9=720|35=E|34=124|49=T1Kauaiblk1|52=20210208-11:26:27.510|56=MA|66=ListID-B080222-1246|394=2|68=5|73=5|11=ClOrdID-1247|22=4|38=1000000|44=100.261|48=US06051GEN51|54=1|55=[N/A/]|63=3|67=1|423=1|29726=100.262|453=1|448=T1Kauaiblk1|447=C|452=11|11=ClOrdID-1248|22=4|38=2000000|44=101|48=US40434AAB52|54=1|55=[N/A]|63=3|67=2|29726=101.25|11=ClOrdID-1249|22=4|38=1300000|44=102.251|48=US95709TAH32|54=1|55=[N/A/]|63=3|67=1|29726=102.25|453=1|448=T1Kauaiblk1|447=C|452=11|11=ClOrdID-1250|22=4|38=250000|44=103.1|48=US427866AZ15|54=1|55=[N/A/]|63=3|67=1|29726=103.25|453=1|448=T1Kauaiblk1|447=C|452=11|11=ClOrdID-1251|22=4|38=350000|44=104.231|48=US29379VAW37|54=1|55=[N/A/]|63=3|67=1|29726=104.25|453=1|448=T1Kauaiblk1|447=C|452=11|10=126|8=FIX.4.4|9=720|35=E|34=125|49=T1Kauaiblk1|52=20210208-11:26:28.338|56=MA|66=ListID-S080221-1252|394=2|68=5|73=5|11=ClOrdID-1253|22=4|38=1000000|44=100.261|48=US06051GEN51|54=2|55=[N/A/]|63=3|67=1|423=1|29726=100.262|453=1|448=T1Kauaiblk1|447=C|452=11|11=ClOrdID-1254|22=4|38=2000000|44=101|48=US40434AAB52|54=2|55=[N/A]|63=3|67=2|29726=101.25|11=ClOrdID-1255|22=4|38=1300000|44=102.251|48=US95709TAH32|54=2|55=[N/A/]|63=3|67=1|29726=102.25|453=1|448=T1Kauaiblk1|447=C|452=11|11=ClOrdID-1256|22=4|38=250000|44=103.1|48=US427866AZ15|54=2|55=[N/A/]|63=3|67=1|29726=103.25|453=1|448=T1Kauaiblk1|447=C|452=11|11=ClOrdID-1257|22=4|38=350000|44=104.231|48=US29379VAW37|54=2|55=[N/A/]|63=3|67=1|29726=104.25|453=1|448=T1Kauaiblk1|447=C|452=11|10=157|8=FIX.4.4|9=720|35=E|34=126|49=T1Kauaiblk1|52=20210208-11:26:31.477|56=MA|66=ListID-B080222-1258|394=2|68=5|73=5|11=ClOrdID-1259|22=4|38=1000000|44=100.261|48=US06051GEN51|54=1|55=[N/A/]|63=3|67=1|423=1|29726=100.262|453=1|448=T1Kauaiblk1|447=C|452=11|11=ClOrdID-1260|22=4|38=2000000|44=101|48=US40434AAB52|54=1|55=[N/A]|63=3|67=2|29726=101.25|11=ClOrdID-1261|22=4|38=1300000|44=102.251|48=US95709TAH32|54=1|55=[N/A/]|63=3|67=1|29726=102.25|453=1|448=T1Kauaiblk1|447=C|452=11|11=ClOrdID-1262|22=4|38=250000|44=103.1|48=US427866AZ15|54=1|55=[N/A/]|63=3|67=1|29726=103.25|453=1|448=T1Kauaiblk1|447=C|452=11|11=ClOrdID-1263|22=4|38=350000|44=104.231|48=US29379VAW37|54=1|55=[N/A/]|63=3|67=1|29726=104.25|453=1|448=T1Kauaiblk1|447=C|452=11|10=135|8=FIX.4.4|9=58|35=0|34=127|49=T1Kauaiblk1|52=20210208-11:28:01.523|56=MA|10=160|8=FIX.4.4|9=58|35=0|34=128|49=T1Kauaiblk1|52=20210208-11:29:31.524|56=MA|10=166|8=FIX.4.4|9=58|35=0|34=129|49=T1Kauaiblk1|52=20210208-11:31:01.530|56=MA|10=154|8=FIX.4.4|9=58|35=0|34=130|49=T1Kauaiblk1|52=20210208-11:32:31.535|56=MA|10=155|8=FIX.4.4|9=58|35=0|34=131|49=T1Kauaiblk1|52=20210208-11:34:01.542|56=MA|10=153|8=FIX.4.4|9=58|35=0|34=132|49=T1Kauaiblk1|52=20210208-11:35:31.547|56=MA|10=163|8=FIX.4.4|9=58|35=0|34=133|49=T1Kauaiblk1|52=20210208-11:37:01.550|56=MA|10=157|8=FIX.4.4|9=58|35=0|34=134|49=T1Kauaiblk1|52=20210208-11:38:31.554|56=MA|10=166|8=FIX.4.4|9=58|35=0|34=135|49=T1Kauaiblk1|52=20210208-11:40:01.557|56=MA|10=160|8=FIX.4.4|9=58|35=0|34=136|49=T1Kauaiblk1|52=20210208-11:41:31.561|56=MA|10=160|8=FIX.4.4|9=58|35=0|34=137|49=T1Kauaiblk1|52=20210208-11:43:01.563|56=MA|10=162|8=FIX.4.4|9=58|35=0|34=138|49=T1Kauaiblk1|52=20210208-11:44:31.565|56=MA|10=169|8=FIX.4.4|9=58|35=0|34=139|49=T1Kauaiblk1|52=20210208-11:46:01.569|56=MA|10=173|8=FIX.4.4|9=58|35=0|34=140|49=T1Kauaiblk1|52=20210208-11:47:31.570|56=MA|10=161|8=FIX.4.4|9=58|35=0|34=141|49=T1Kauaiblk1|52=20210208-11:49:01.573|56=MA|10=164|8=FIX.4.4|9=58|35=0|34=142|49=T1Kauaiblk1|52=20210208-11:50:31.574|56=MA|10=161|8=FIX.4.4|9=58|35=0|34=143|49=T1Kauaiblk1|52=20210208-11:52:01.575|56=MA|10=162|8=FIX.4.4|9=58|35=0|34=144|49=T1Kauaiblk1|52=20210208-11:53:31.577|56=MA|10=169|8=FIX.4.4|9=58|35=0|34=145|49=T1Kauaiblk1|52=20210208-11:55:01.578|56=MA|10=170|8=FIX.4.4|9=58|35=0|34=146|49=T1Kauaiblk1|52=20210208-11:56:31.579|56=MA|10=176|8=FIX.4.4|9=58|35=0|34=147|49=T1Kauaiblk1|52=20210208-11:58:01.580|56=MA|10=168|8=FIX.4.4|9=58|35=0|34=148|49=T1Kauaiblk1|52=20210208-11:59:31.580|56=MA|10=173|8=FIX.4.4|9=58|35=0|34=149|49=T1Kauaiblk1|52=20210208-12:01:01.581|56=MA|10=160|8=FIX.4.4|9=58|35=0|34=150|49=T1Kauaiblk1|52=20210208-12:02:31.582|56=MA|10=157|8=FIX.4.4|9=58|35=0|34=151|49=T1Kauaiblk1|52=20210208-12:04:02.580|56=MA|10=156|8=FIX.4.4|9=58|35=0|34=152|49=T1Kauaiblk1|52=20210208-12:05:33.578|56=MA|10=169|8=FIX.4.4|9=58|35=0|34=153|49=T1Kauaiblk1|52=20210208-12:07:04.575|56=MA|10=167|8=FIX.4.4|9=58|35=0|34=154|49=T1Kauaiblk1|52=20210208-12:08:35.571|56=MA|10=169|8=FIX.4.4|9=58|35=0|34=155|49=T1Kauaiblk1|52=20210208-12:10:06.569|56=MA|10=168|8=FIX.4.4|9=58|35=0|34=156|49=T1Kauaiblk1|52=20210208-12:11:37.567|56=MA|10=172|8=FIX.4.4|9=58|35=0|34=157|49=T1Kauaiblk1|52=20210208-12:13:08.564|56=MA|10=170|8=FIX.4.4|9=58|35=0|34=158|49=T1Kauaiblk1|52=20210208-12:14:39.563|56=MA|10=175|8=FIX.4.4|9=58|35=0|34=159|49=T1Kauaiblk1|52=20210208-12:16:10.561|56=MA|10=165|8=FIX.4.4|9=58|35=0|34=160|49=T1Kauaiblk1|52=20210208-12:17:41.561|56=MA|10=162|8=FIX.4.4|9=58|35=0|34=161|49=T1Kauaiblk1|52=20210208-12:19:12.558|56=MA|10=169|8=FIX.4.4|9=58|35=0|34=162|49=T1Kauaiblk1|52=20210208-12:20:43.558|56=MA|10=166|8=FIX.4.4|9=58|35=0|34=163|49=T1Kauaiblk1|52=20210208-12:22:14.556|56=MA|10=165|8=FIX.4.4|9=58|35=0|34=164|49=T1Kauaiblk1|52=20210208-12:23:45.556|56=MA|10=171|8=FIX.4.4|9=58|35=0|34=165|49=T1Kauaiblk1|52=20210208-12:25:16.555|56=MA|10=171|8=FIX.4.4|9=58|35=0|34=166|49=T1Kauaiblk1|52=20210208-12:26:47.553|56=MA|10=175|8=FIX.4.4|9=58|35=0|34=167|49=T1Kauaiblk1|52=20210208-12:28:18.552|56=MA|10=175|8=FIX.4.4|9=58|35=0|34=168|49=T1Kauaiblk1|52=20210208-12:29:48.552|56=MA|10=180|8=FIX.4.4|9=58|35=0|34=169|49=T1Kauaiblk1|52=20210208-12:31:19.551|56=MA|10=171|8=FIX.4.4|9=58|35=0|34=170|49=T1Kauaiblk1|52=20210208-12:32:49.551|56=MA|10=167|8=FIX.4.4|9=58|35=0|34=171|49=T1Kauaiblk1|52=20210208-12:34:20.549|56=MA|10=166|8=FIX.4.4|9=58|35=0|34=172|49=T1Kauaiblk1|52=20210208-12:35:50.549|56=MA|10=171|8=FIX.4.4|9=58|35=0|34=173|49=T1Kauaiblk1|52=20210208-12:37:20.549|56=MA|10=171|8=FIX.4.4|9=58|35=0|34=174|49=T1Kauaiblk1|52=20210208-12:38:51.548|56=MA|10=176|8=FIX.4.4|9=58|35=0|34=175|49=T1Kauaiblk1|52=20210208-12:40:21.549|56=MA|10=168|8=FIX.4.4|9=58|35=0|34=176|49=T1Kauaiblk1|52=20210208-12:41:52.548|56=MA|10=173|8=FIX.4.4|9=58|35=0|34=177|49=T1Kauaiblk1|52=20210208-12:43:22.548|56=MA|10=173|8=FIX.4.4|9=58|35=0|34=178|49=T1Kauaiblk1|52=20210208-12:44:53.547|56=MA|10=178|8=FIX.4.4|9=58|35=0|34=179|49=T1Kauaiblk1|52=20210208-12:46:23.547|56=MA|10=178|8=FIX.4.4|9=58|35=0|34=180|49=T1Kauaiblk1|52=20210208-12:47:53.547|56=MA|10=174|8=FIX.4.4|9=720|35=E|34=181|49=T1Kauaiblk1|52=20210208-12:48:36.652|56=MA|66=ListID-B080222-1264|394=2|68=5|73=5|11=ClOrdID-1265|22=4|38=1000000|44=100.261|48=US06051GEN51|54=1|55=[N/A/]|63=3|67=1|423=1|29726=100.262|453=1|448=T1Kauaiblk1|447=C|452=11|11=ClOrdID-1266|22=4|38=2000000|44=101|48=US40434AAB52|54=1|55=[N/A]|63=3|67=2|29726=101.25|11=ClOrdID-1267|22=4|38=1300000|44=102.251|48=US95709TAH32|54=1|55=[N/A/]|63=3|67=1|29726=102.25|453=1|448=T1Kauaiblk1|447=C|452=11|11=ClOrdID-1268|22=4|38=250000|44=103.1|48=US427866AZ15|54=1|55=[N/A/]|63=3|67=1|29726=103.25|453=1|448=T1Kauaiblk1|447=C|452=11|11=ClOrdID-1269|22=4|38=350000|44=104.231|48=US29379VAW37|54=1|55=[N/A/]|63=3|67=1|29726=104.25|453=1|448=T1Kauaiblk1|447=C|452=11|10=159|8=FIX.4.4|9=58|35=0|34=182|49=T1Kauaiblk1|52=20210208-12:50:07.465|56=MA|10=168|8=FIX.4.4|9=58|35=0|34=183|49=T1Kauaiblk1|52=20210208-12:51:37.483|56=MA|10=173|8=FIX.4.4|9=58|35=0|34=184|49=T1Kauaiblk1|52=20210208-12:53:07.547|56=MA|10=174|8=FIX.4.4|9=58|35=0|34=185|49=T1Kauaiblk1|52=20210208-12:54:37.548|56=MA|10=180|8=FIX.4.4|9=58|35=0|34=186|49=T1Kauaiblk1|52=20210208-12:56:08.547|56=MA|10=180|8=FIX.4.4|9=58|35=0|34=187|49=T1Kauaiblk1|52=20210208-12:57:39.546|56=MA|10=185|8=FIX.4.4|9=58|35=0|34=188|49=T1Kauaiblk1|52=20210208-12:59:09.546|56=MA|10=185|8=FIX.4.4|9=58|35=0|34=189|49=T1Kauaiblk1|52=20210208-13:00:39.546|56=MA|10=176|8=FIX.4.4|9=58|35=0|34=190|49=T1Kauaiblk1|52=20210208-13:02:09.547|56=MA|10=168|8=FIX.4.4|9=58|35=0|34=191|49=T1Kauaiblk1|52=20210208-13:03:40.546|56=MA|10=164|8=FIX.4.4|9=58|35=0|34=192|49=T1Kauaiblk1|52=20210208-13:05:10.546|56=MA|10=164|8=FIX.4.4|9=58|35=0|34=193|49=T1Kauaiblk1|52=20210208-13:06:40.546|56=MA|10=169|8=FIX.4.4|9=58|35=0|34=194|49=T1Kauaiblk1|52=20210208-13:08:10.546|56=MA|10=169|8=FIX.4.4|9=58|35=0|34=195|49=T1Kauaiblk1|52=20210208-13:09:40.546|56=MA|10=174|8=FIX.4.4|9=58|35=0|34=196|49=T1Kauaiblk1|52=20210208-13:11:11.545|56=MA|10=165|8=FIX.4.4|9=58|35=0|34=197|49=T1Kauaiblk1|52=20210208-13:12:41.546|56=MA|10=171|8=FIX.4.4|9=58|35=0|34=198|49=T1Kauaiblk1|52=20210208-13:14:11.546|56=MA|10=171|8=FIX.4.4|9=58|35=0|34=199|49=T1Kauaiblk1|52=20210208-13:15:41.546|56=MA|10=176|8=FIX.4.4|9=58|35=0|34=200|49=T1Kauaiblk1|52=20210208-13:17:11.546|56=MA|10=158|8=FIX.4.4|9=58|35=0|34=201|49=T1Kauaiblk1|52=20210208-13:18:41.547|56=MA|10=164|8=FIX.4.4|9=58|35=0|34=202|49=T1Kauaiblk1|52=20210208-13:20:12.546|56=MA|10=155|8=FIX.4.4|9=58|35=0|34=203|49=T1Kauaiblk1|52=20210208-13:21:42.546|56=MA|10=160|8=FIX.4.4|9=58|35=0|34=204|49=T1Kauaiblk1|52=20210208-13:23:12.547|56=MA|10=161|8=FIX.4.4|9=58|35=0|34=205|49=T1Kauaiblk1|52=20210208-13:24:43.546|56=MA|10=166|8=FIX.4.4|9=58|35=0|34=206|49=T1Kauaiblk1|52=20210208-13:26:13.547|56=MA|10=167|8=FIX.4.4|9=58|35=0|34=207|49=T1Kauaiblk1|52=20210208-13:27:44.547|56=MA|10=173|8=FIX.4.4|9=58|35=0|34=208|49=T1Kauaiblk1|52=20210208-13:29:15.546|56=MA|10=173|8=FIX.4.4|9=58|35=0|34=209|49=T1Kauaiblk1|52=20210208-13:30:46.545|56=MA|10=169|8=FIX.4.4|9=58|35=0|34=210|49=T1Kauaiblk1|52=20210208-13:32:16.546|56=MA|10=161|8=FIX.4.4|9=58|35=0|34=211|49=T1Kauaiblk1|52=20210208-13:33:46.546|56=MA|10=166|8=FIX.4.4|9=58|35=0|34=212|49=T1Kauaiblk1|52=20210208-13:35:17.546|56=MA|10=167|8=FIX.4.4|9=58|35=0|34=213|49=T1Kauaiblk1|52=20210208-13:36:48.546|56=MA|10=173|8=FIX.4.4|9=58|35=0|34=214|49=T1Kauaiblk1|52=20210208-13:38:19.545|56=MA|10=173|8=FIX.4.4|9=58|35=0|34=215|49=T1Kauaiblk1|52=20210208-13:39:49.545|56=MA|10=178|8=FIX.4.4|9=58|35=0|34=216|49=T1Kauaiblk1|52=20210208-13:41:19.546|56=MA|10=170|8=FIX.4.4|9=58|35=0|34=217|49=T1Kauaiblk1|52=20210208-13:42:50.545|56=MA|10=166|8=FIX.4.4|9=58|35=0|34=218|49=T1Kauaiblk1|52=20210208-13:44:20.546|56=MA|10=167|8=FIX.4.4|9=58|35=0|34=219|49=T1Kauaiblk1|52=20210208-13:45:51.546|56=MA|10=173|8=FIX.4.4|9=58|35=0|34=220|49=T1Kauaiblk1|52=20210208-13:47:21.549|56=MA|10=167|8=FIX.4.4|9=58|35=0|34=221|49=T1Kauaiblk1|52=20210208-13:48:51.549|56=MA|10=172|8=FIX.4.4|9=58|35=0|34=222|49=T1Kauaiblk1|52=20210208-13:50:21.550|56=MA|10=155|8=FIX.4.4|9=58|35=0|34=223|49=T1Kauaiblk1|52=20210208-13:51:51.552|56=MA|10=162|8=FIX.4.4|9=58|35=0|34=224|49=T1Kauaiblk1|52=20210208-13:53:21.553|56=MA|10=163|8=FIX.4.4|9=58|35=0|34=225|49=T1Kauaiblk1|52=20210208-13:54:51.554|56=MA|10=169|8=FIX.4.4|9=58|35=0|34=226|49=T1Kauaiblk1|52=20210208-13:56:21.555|56=MA|10=170|8=FIX.4.4|9=58|35=0|34=227|49=T1Kauaiblk1|52=20210208-13:57:51.556|56=MA|10=176|8=FIX.4.4|9=58|35=0|34=228|49=T1Kauaiblk1|52=20210208-13:59:21.556|56=MA|10=176|8=FIX.4.4|9=58|35=0|34=229|49=T1Kauaiblk1|52=20210208-14:00:51.559|56=MA|10=170|8=FIX.4.4|9=58|35=0|34=230|49=T1Kauaiblk1|52=20210208-14:02:22.558|56=MA|10=161|8=FIX.4.4|9=58|35=0|34=231|49=T1Kauaiblk1|52=20210208-14:03:52.558|56=MA|10=166|8=FIX.4.4|9=58|35=0|34=232|49=T1Kauaiblk1|52=20210208-14:05:22.559|56=MA|10=167|8=FIX.4.4|9=58|35=0|34=233|49=T1Kauaiblk1|52=20210208-14:06:52.561|56=MA|10=165|8=FIX.4.4|9=58|35=0|34=234|49=T1Kauaiblk1|52=20210208-14:08:23.560|56=MA|10=165|8=FIX.4.4|9=58|35=0|34=235|49=T1Kauaiblk1|52=20210208-14:09:53.561|56=MA|10=171|8=FIX.4.4|9=58|35=0|34=236|49=T1Kauaiblk1|52=20210208-14:11:23.562|56=MA|10=163|8=FIX.4.4|9=58|35=0|34=237|49=T1Kauaiblk1|52=20210208-14:12:53.562|56=MA|10=168|8=FIX.4.4|9=58|35=0|34=238|49=T1Kauaiblk1|52=20210208-14:14:24.561|56=MA|10=168|8=FIX.4.4|9=58|35=0|34=239|49=T1Kauaiblk1|52=20210208-14:15:54.562|56=MA|10=174|8=FIX.4.4|9=58|35=0|34=240|49=T1Kauaiblk1|52=20210208-14:17:24.562|56=MA|10=165|8=FIX.4.4|9=58|35=0|34=241|49=T1Kauaiblk1|52=20210208-14:18:54.562|56=MA|10=170|8=FIX.4.4|9=58|35=0|34=242|49=T1Kauaiblk1|52=20210208-14:20:24.562|56=MA|10=161|8=FIX.4.4|9=58|35=0|34=243|49=T1Kauaiblk1|52=20210208-14:21:54.563|56=MA|10=167|8=FIX.4.4|9=58|35=0|34=244|49=T1Kauaiblk1|52=20210208-14:23:24.563|56=MA|10=167|8=FIX.4.4|9=58|35=0|34=245|49=T1Kauaiblk1|52=20210208-14:24:54.564|56=MA|10=173|8=FIX.4.4|9=58|35=0|34=246|49=T1Kauaiblk1|52=20210208-14:26:25.563|56=MA|10=173|8=FIX.4.4|9=58|35=0|34=247|49=T1Kauaiblk1|52=20210208-14:27:55.564|56=MA|10=179|8=FIX.4.4|9=58|35=0|34=248|49=T1Kauaiblk1|52=20210208-14:29:26.563|56=MA|10=179|8=FIX.4.4|9=58|35=0|34=249|49=T1Kauaiblk1|52=20210208-14:30:56.563|56=MA|10=175|8=FIX.4.4|9=58|35=0|34=250|49=T1Kauaiblk1|52=20210208-14:32:26.563|56=MA|10=166|8=FIX.4.4|9=58|35=0|34=251|49=T1Kauaiblk1|52=20210208-14:33:56.563|56=MA|10=171|8=FIX.4.4|9=58|35=0|34=252|49=T1Kauaiblk1|52=20210208-14:35:26.563|56=MA|10=171|8=FIX.4.4|9=58|35=0|34=253|49=T1Kauaiblk1|52=20210208-14:36:56.564|56=MA|10=177|8=FIX.4.4|9=58|35=0|34=254|49=T1Kauaiblk1|52=20210208-14:38:27.563|56=MA|10=177|8=FIX.4.4|9=58|35=0|34=255|49=T1Kauaiblk1|52=20210208-14:39:57.564|56=MA|10=183|8=FIX.4.4|9=58|35=0|34=256|49=T1Kauaiblk1|52=20210208-14:41:28.563|56=MA|10=174|8=FIX.4.4|9=58|35=0|34=257|49=T1Kauaiblk1|52=20210208-14:42:58.564|56=MA|10=180|8=FIX.4.4|9=58|35=0|34=258|49=T1Kauaiblk1|52=20210208-14:44:28.564|56=MA|10=180|8=FIX.4.4|9=58|35=0|34=259|49=T1Kauaiblk1|52=20210208-14:45:59.564|56=MA|10=186|8=FIX.4.4|9=58|35=0|34=260|49=T1Kauaiblk1|52=20210208-14:47:29.564|56=MA|10=177|8=FIX.4.4|9=58|35=0|34=261|49=T1Kauaiblk1|52=20210208-14:48:59.564|56=MA|10=182|8=FIX.4.4|9=58|35=0|34=262|49=T1Kauaiblk1|52=20210208-14:50:29.564|56=MA|10=173|8=FIX.4.4|9=58|35=0|34=263|49=T1Kauaiblk1|52=20210208-14:51:59.564|56=MA|10=178|8=FIX.4.4|9=58|35=0|34=264|49=T1Kauaiblk1|52=20210208-14:53:29.565|56=MA|10=179|8=FIX.4.4|9=58|35=0|34=265|49=T1Kauaiblk1|52=20210208-14:54:59.565|56=MA|10=184|8=FIX.4.4|9=58|35=0|34=266|49=T1Kauaiblk1|52=20210208-14:56:30.565|56=MA|10=176|8=FIX.4.4|9=58|35=0|34=267|49=T1Kauaiblk1|52=20210208-14:58:00.565|56=MA|10=176|8=FIX.4.4|9=58|35=0|34=268|49=T1Kauaiblk1|52=20210208-14:59:30.565|56=MA|10=181|8=FIX.4.4|9=58|35=0|34=269|49=T1Kauaiblk1|52=20210208-15:01:00.566|56=MA|10=168|8=FIX.4.4|9=58|35=0|34=270|49=T1Kauaiblk1|52=20210208-15:02:30.566|56=MA|10=164|8=FIX.4.4|9=58|35=0|34=271|49=T1Kauaiblk1|52=20210208-15:04:00.567|56=MA|10=165|8=FIX.4.4|9=58|35=0|34=272|49=T1Kauaiblk1|52=20210208-15:05:30.567|56=MA|10=170|8=FIX.4.4|9=58|35=0|34=273|49=T1Kauaiblk1|52=20210208-15:07:00.567|56=MA|10=170|8=FIX.4.4|9=58|35=0|34=274|49=T1Kauaiblk1|52=20210208-15:08:30.567|56=MA|10=175|8=FIX.4.4|9=720|35=E|34=275|49=T1Kauaiblk1|52=20210208-15:09:43.590|56=MA|66=ListID-B080222-1270|394=2|68=5|73=5|11=ClOrdID-1271|22=4|38=1000000|44=100.261|48=US06051GEN51|54=1|55=[N/A/]|63=3|67=1|423=1|29726=100.262|453=1|448=T1Kauaiblk1|447=C|452=11|11=ClOrdID-1272|22=4|38=2000000|44=101|48=US40434AAB52|54=1|55=[N/A]|63=3|67=2|29726=101.25|11=ClOrdID-1273|22=4|38=1300000|44=102.251|48=US95709TAH32|54=1|55=[N/A/]|63=3|67=1|29726=102.25|453=1|448=T1Kauaiblk1|447=C|452=11|11=ClOrdID-1274|22=4|38=250000|44=103.1|48=US427866AZ15|54=1|55=[N/A/]|63=3|67=1|29726=103.25|453=1|448=T1Kauaiblk1|447=C|452=11|11=ClOrdID-1275|22=4|38=350000|44=104.231|48=US29379VAW37|54=1|55=[N/A/]|63=3|67=1|29726=104.25|453=1|448=T1Kauaiblk1|447=C|452=11|10=144|8=FIX.4.4|9=58|35=0|34=276|49=T1Kauaiblk1|52=20210208-15:11:14.410|56=MA|10=160|8=FIX.4.4|9=58|35=0|34=277|49=T1Kauaiblk1|52=20210208-15:12:44.439|56=MA|10=176|8=FIX.4.4|9=58|35=0|34=278|49=T1Kauaiblk1|52=20210208-15:14:14.483|56=MA|10=175|8=FIX.4.4|9=58|35=0|34=279|49=T1Kauaiblk1|52=20210208-15:15:44.569|56=MA|10=185|8=FIX.4.4|9=58|35=0|34=280|49=T1Kauaiblk1|52=20210208-15:17:15.497|56=MA|10=177|8=FIX.4.4|9=58|35=0|34=281|49=T1Kauaiblk1|52=20210208-15:18:45.568|56=MA|10=181|8=FIX.4.4|9=58|35=0|34=282|49=T1Kauaiblk1|52=20210208-15:20:15.569|56=MA|10=173|8=FIX.4.4|9=58|35=0|34=283|49=T1Kauaiblk1|52=20210208-15:21:45.569|56=MA|10=178|8=FIX.4.4|9=58|35=0|34=284|49=T1Kauaiblk1|52=20210208-15:23:16.569|56=MA|10=179|8=FIX.4.4|9=58|35=0|34=285|49=T1Kauaiblk1|52=20210208-15:24:46.569|56=MA|10=184|8=FIX.4.4|9=58|35=0|34=286|49=T1Kauaiblk1|52=20210208-15:26:17.403|56=MA|10=172|8=FIX.4.4|9=58|35=0|34=287|49=T1Kauaiblk1|52=20210208-15:27:47.404|56=MA|10=178|8=FIX.4.4|9=58|35=0|34=288|49=T1Kauaiblk1|52=20210208-15:29:17.569|56=MA|10=190|8=FIX.4.4|9=58|35=0|34=289|49=T1Kauaiblk1|52=20210208-15:30:47.569|56=MA|10=186|8=FIX.4.4|9=58|35=0|34=290|49=T1Kauaiblk1|52=20210208-15:32:17.569|56=MA|10=177|8=FIX.4.4|9=58|35=0|34=291|49=T1Kauaiblk1|52=20210208-15:33:48.463|56=MA|10=176|8=FIX.4.4|9=58|35=0|34=292|49=T1Kauaiblk1|52=20210208-15:35:18.568|56=MA|10=182|8=FIX.4.4|9=58|35=0|34=293|49=T1Kauaiblk1|52=20210208-15:36:48.569|56=MA|10=188|8=FIX.4.4|9=58|35=0|34=294|49=T1Kauaiblk1|52=20210208-15:38:18.570|56=MA|10=180|8=FIX.4.4|9=58|35=0|34=295|49=T1Kauaiblk1|52=20210208-15:39:49.483|56=MA|10=189|8=FIX.4.4|9=58|35=0|34=296|49=T1Kauaiblk1|52=20210208-15:41:19.570|56=MA|10=177|8=FIX.4.4|9=58|35=0|34=297|49=T1Kauaiblk1|52=20210208-15:42:49.570|56=MA|10=182|8=FIX.4.4|9=58|35=0|34=298|49=T1Kauaiblk1|52=20210208-15:44:20.399|56=MA|10=183|8=FIX.4.4|9=58|35=0|34=299|49=T1Kauaiblk1|52=20210208-15:45:50.510|56=MA|10=173|8=FIX.4.4|9=58|35=0|34=300|49=T1Kauaiblk1|52=20210208-15:47:20.569|56=MA|10=169|8=FIX.4.4|9=58|35=0|34=301|49=T1Kauaiblk1|52=20210208-15:48:50.569|56=MA|10=174|8=FIX.4.4|9=58|35=0|34=302|49=T1Kauaiblk1|52=20210208-15:50:20.570|56=MA|10=157|8=FIX.4.4|9=58|35=0|34=303|49=T1Kauaiblk1|52=20210208-15:51:51.569|56=MA|10=171|8=FIX.4.4|9=58|35=0|34=304|49=T1Kauaiblk1|52=20210208-15:53:21.570|56=MA|10=163|8=FIX.4.4|9=58|35=0|34=305|49=T1Kauaiblk1|52=20210208-15:54:52.569|56=MA|10=177|8=FIX.4.4|9=58|35=0|34=306|49=T1Kauaiblk1|52=20210208-15:56:22.569|56=MA|10=177|8=FIX.4.4|9=58|35=0|34=307|49=T1Kauaiblk1|52=20210208-15:57:52.570|56=MA|10=174|8=FIX.4.4|9=58|35=0|34=308|49=T1Kauaiblk1|52=20210208-15:59:23.477|56=MA|10=181|8=FIX.4.4|9=58|35=0|34=309|49=T1Kauaiblk1|52=20210208-16:00:53.568|56=MA|10=173|8=FIX.4.4|9=58|35=0|34=310|49=T1Kauaiblk1|52=20210208-16:02:23.569|56=MA|10=165|8=FIX.4.4|9=58|35=0|34=311|49=T1Kauaiblk1|52=20210208-16:03:53.570|56=MA|10=162|8=FIX.4.4|9=58|35=0|34=312|49=T1Kauaiblk1|52=20210208-16:05:23.570|56=MA|10=162|8=FIX.4.4|9=58|35=0|34=313|49=T1Kauaiblk1|52=20210208-16:06:53.570|56=MA|10=167|8=FIX.4.4|9=58|35=0|34=314|49=T1Kauaiblk1|52=20210208-16:08:23.570|56=MA|10=167|8=FIX.4.4|9=58|35=0|34=315|49=T1Kauaiblk1|52=20210208-16:09:53.571|56=MA|10=173|8=FIX.4.4|9=58|35=0|34=316|49=T1Kauaiblk1|52=20210208-16:11:23.572|56=MA|10=165|8=FIX.4.4|9=58|35=0|34=317|49=T1Kauaiblk1|52=20210208-16:12:54.571|56=MA|10=170|8=FIX.4.4|9=58|35=0|34=318|49=T1Kauaiblk1|52=20210208-16:14:24.572|56=MA|10=171|8=FIX.4.4|9=58|35=0|34=319|49=T1Kauaiblk1|52=20210208-16:15:54.572|56=MA|10=176|8=FIX.4.4|9=58|35=0|34=320|49=T1Kauaiblk1|52=20210208-16:17:24.574|56=MA|10=169|8=FIX.4.4|9=58|35=0|34=321|49=T1Kauaiblk1|52=20210208-16:18:55.573|56=MA|10=174|8=FIX.4.4|9=58|35=0|34=322|49=T1Kauaiblk1|52=20210208-16:20:25.574|56=MA|10=166|8=FIX.4.4|9=58|35=0|34=323|49=T1Kauaiblk1|52=20210208-16:21:55.574|56=MA|10=171|8=FIX.4.4|9=58|35=0|34=324|49=T1Kauaiblk1|52=20210208-16:23:26.573|56=MA|10=171|8=FIX.4.4|9=58|35=0|34=325|49=T1Kauaiblk1|52=20210208-16:24:56.574|56=MA|10=177|8=FIX.4.4|9=58|35=0|34=326|49=T1Kauaiblk1|52=20210208-16:26:26.574|56=MA|10=177|8=FIX.4.4|9=58|35=0|34=327|49=T1Kauaiblk1|52=20210208-16:27:56.575|56=MA|10=183|8=FIX.4.4|9=58|35=0|34=328|49=T1Kauaiblk1|52=20210208-16:29:27.575|56=MA|10=184|8=FIX.4.4|9=58|35=0|34=329|49=T1Kauaiblk1|52=20210208-16:30:57.576|56=MA|10=181|8=FIX.4.4|9=58|35=0|34=330|49=T1Kauaiblk1|52=20210208-16:32:27.576|56=MA|10=172|8=FIX.4.4|9=58|35=0|34=331|49=T1Kauaiblk1|52=20210208-16:33:57.576|56=MA|10=177|8=FIX.4.4|9=58|35=0|34=332|49=T1Kauaiblk1|52=20210208-16:35:28.575|56=MA|10=177|8=FIX.4.4|9=58|35=0|34=333|49=T1Kauaiblk1|52=20210208-16:36:58.575|56=MA|10=182|8=FIX.4.4|9=58|35=0|34=334|49=T1Kauaiblk1|52=20210208-16:38:28.575|56=MA|10=182|8=FIX.4.4|9=58|35=0|34=335|49=T1Kauaiblk1|52=20210208-16:39:58.577|56=MA|10=189|8=FIX.4.4|9=58|35=0|34=336|49=T1Kauaiblk1|52=20210208-16:41:29.575|56=MA|10=179|8=FIX.4.4|9=58|35=0|34=337|49=T1Kauaiblk1|52=20210208-16:42:59.575|56=MA|10=184|8=FIX.4.4|9=58|35=0|34=338|49=T1Kauaiblk1|52=20210208-16:44:29.577|56=MA|10=186|8=FIX.4.4|9=58|35=0|34=339|49=T1Kauaiblk1|52=20210208-16:46:00.577|56=MA|10=178|8=FIX.4.4|9=58|35=0|34=340|49=T1Kauaiblk1|52=20210208-16:47:31.577|56=MA|10=175|8=FIX.4.4|9=58|35=0|34=341|49=T1Kauaiblk1|52=20210208-16:49:02.577|56=MA|10=176|8=FIX.4.4|9=58|35=0|34=342|49=T1Kauaiblk1|52=20210208-16:50:32.577|56=MA|10=172|8=FIX.4.4|9=58|35=0|34=343|49=T1Kauaiblk1|52=20210208-16:52:02.577|56=MA|10=172|8=FIX.4.4|9=58|35=0|34=344|49=T1Kauaiblk1|52=20210208-16:53:32.577|56=MA|10=177|8=FIX.4.4|9=58|35=0|34=345|49=T1Kauaiblk1|52=20210208-16:55:03.577|56=MA|10=178|8=FIX.4.4|9=58|35=0|34=346|49=T1Kauaiblk1|52=20210208-16:56:33.578|56=MA|10=184|8=FIX.4.4|9=58|35=0|34=347|49=T1Kauaiblk1|52=20210208-16:58:03.578|56=MA|10=184|8=FIX.4.4|9=58|35=0|34=348|49=T1Kauaiblk1|52=20210208-16:59:34.578|56=MA|10=190|8=FIX.4.4|9=58|35=0|34=349|49=T1Kauaiblk1|52=20210208-17:01:05.577|56=MA|10=176|8=FIX.4.4|9=58|35=0|34=350|49=T1Kauaiblk1|52=20210208-17:02:35.577|56=MA|10=172|8=FIX.4.4|9=58|35=0|34=351|49=T1Kauaiblk1|52=20210208-17:04:05.577|56=MA|10=172|8=FIX.4.4|9=58|35=0|34=352|49=T1Kauaiblk1|52=20210208-17:05:35.577|56=MA|10=177|8=FIX.4.4|9=720|35=E|34=353|49=T1Kauaiblk1|52=20210208-17:05:42.931|56=MA|66=ListID-B080222-1276|394=2|68=5|73=5|11=ClOrdID-1277|22=4|38=1000000|44=100.261|48=US06051GEN51|54=1|55=[N/A/]|63=3|67=1|423=1|29726=100.262|453=1|448=T1Kauaiblk1|447=C|452=11|11=ClOrdID-1278|22=4|38=2000000|44=101|48=US40434AAB52|54=1|55=[N/A]|63=3|67=2|29726=101.25|11=ClOrdID-1279|22=4|38=1300000|44=102.251|48=US95709TAH32|54=1|55=[N/A/]|63=3|67=1|29726=102.25|453=1|448=T1Kauaiblk1|447=C|452=11|11=ClOrdID-1280|22=4|38=250000|44=103.1|48=US427866AZ15|54=1|55=[N/A/]|63=3|67=1|29726=103.25|453=1|448=T1Kauaiblk1|447=C|452=11|11=ClOrdID-1281|22=4|38=350000|44=104.231|48=US29379VAW37|54=1|55=[N/A/]|63=3|67=1|29726=104.25|453=1|448=T1Kauaiblk1|447=C|452=11|10=155|8=FIX.4.4|9=58|35=0|34=354|49=T1Kauaiblk1|52=20210208-17:07:13.443|56=MA|10=169|8=FIX.4.4|9=58|35=0|34=355|49=T1Kauaiblk1|52=20210208-17:08:43.577|56=MA|10=182|8=FIX.4.4|9=58|35=0|34=356|49=T1Kauaiblk1|52=20210208-17:10:13.577|56=MA|10=173|8=FIX.4.4|9=58|35=0|34=357|49=T1Kauaiblk1|52=20210208-17:11:43.578|56=MA|10=179|8=FIX.4.4|9=58|35=0|34=358|49=T1Kauaiblk1|52=20210208-17:13:13.580|56=MA|10=172|8=FIX.4.4|9=58|35=0|34=359|49=T1Kauaiblk1|52=20210208-17:14:44.512|56=MA|10=173|8=FIX.4.4|9=58|35=0|34=360|49=T1Kauaiblk1|52=20210208-17:16:14.580|56=MA|10=169|8=FIX.4.4|9=58|35=0|34=361|49=T1Kauaiblk1|52=20210208-17:17:44.581|56=MA|10=175|8=FIX.4.4|9=58|35=0|34=362|49=T1Kauaiblk1|52=20210208-17:19:14.581|56=MA|10=175|8=FIX.4.4|9=58|35=0|34=363|49=T1Kauaiblk1|52=20210208-17:20:44.582|56=MA|10=172|8=FIX.4.4|9=58|35=0|34=364|49=T1Kauaiblk1|52=20210208-17:22:14.583|56=MA|10=173|8=FIX.4.4|9=58|35=0|34=365|49=T1Kauaiblk1|52=20210208-17:23:44.583|56=MA|10=178|8=FIX.4.4|9=58|35=0|34=366|49=T1Kauaiblk1|52=20210208-17:25:14.584|56=MA|10=179|8=FIX.4.4|9=58|35=0|34=367|49=T1Kauaiblk1|52=20210208-17:26:44.584|56=MA|10=184|8=FIX.4.4|9=58|35=0|34=368|49=T1Kauaiblk1|52=20210208-17:28:14.584|56=MA|10=184|8=FIX.4.4|9=58|35=0|34=369|49=T1Kauaiblk1|52=20210208-17:29:44.584|56=MA|10=189|8=FIX.4.4|9=58|35=0|34=370|49=T1Kauaiblk1|52=20210208-17:31:14.586|56=MA|10=173|8=FIX.4.4|9=58|35=0|34=371|49=T1Kauaiblk1|52=20210208-17:32:45.585|56=MA|10=178|8=FIX.4.4|9=58|35=0|34=372|49=T1Kauaiblk1|52=20210208-17:34:15.586|56=MA|10=179|8=FIX.4.4|9=58|35=0|34=373|49=T1Kauaiblk1|52=20210208-17:35:45.587|56=MA|10=185|8=FIX.4.4|9=58|35=0|34=374|49=T1Kauaiblk1|52=20210208-17:37:15.587|56=MA|10=185|8=FIX.4.4|9=58|35=0|34=375|49=T1Kauaiblk1|52=20210208-17:38:45.587|56=MA|10=190|8=FIX.4.4|9=58|35=0|34=376|49=T1Kauaiblk1|52=20210208-17:40:15.587|56=MA|10=181|8=FIX.4.4|9=58|35=0|34=377|49=T1Kauaiblk1|52=20210208-17:41:45.587|56=MA|10=186|8=FIX.4.4|9=58|35=0|34=378|49=T1Kauaiblk1|52=20210208-17:43:15.588|56=MA|10=187|8=FIX.4.4|9=58|35=0|34=379|49=T1Kauaiblk1|52=20210208-17:44:46.588|56=MA|10=193|8=FIX.4.4|9=58|35=0|34=380|49=T1Kauaiblk1|52=20210208-17:46:16.588|56=MA|10=184|8=FIX.4.4|9=58|35=0|34=381|49=T1Kauaiblk1|52=20210208-17:47:46.588|56=MA|10=189|8=FIX.4.4|9=58|35=0|34=382|49=T1Kauaiblk1|52=20210208-17:49:16.588|56=MA|10=189|8=FIX.4.4|9=58|35=0|34=383|49=T1Kauaiblk1|52=20210208-17:50:46.588|56=MA|10=185|8=FIX.4.4|9=720|35=E|34=384|49=T1Kauaiblk1|52=20210208-17:51:59.185|56=MA|66=ListID-B080222-1282|394=2|68=5|73=5|11=ClOrdID-1283|22=4|38=1000000|44=100.261|48=US06051GEN51|54=1|55=[N/A/]|63=3|67=1|423=1|29726=100.262|453=1|448=T1Kauaiblk1|447=C|452=11|11=ClOrdID-1284|22=4|38=2000000|44=101|48=US40434AAB52|54=1|55=[N/A]|63=3|67=2|29726=101.25|11=ClOrdID-1285|22=4|38=1300000|44=102.251|48=US95709TAH32|54=1|55=[N/A/]|63=3|67=1|29726=102.25|453=1|448=T1Kauaiblk1|447=C|452=11|11=ClOrdID-1286|22=4|38=250000|44=103.1|48=US427866AZ15|54=1|55=[N/A/]|63=3|67=1|29726=103.25|453=1|448=T1Kauaiblk1|447=C|452=11|11=ClOrdID-1287|22=4|38=350000|44=104.231|48=US29379VAW37|54=1|55=[N/A/]|63=3|67=1|29726=104.25|453=1|448=T1Kauaiblk1|447=C|452=11|10=169|8=FIX.4.4|9=58|35=0|34=385|49=T1Kauaiblk1|52=20210208-17:53:29.590|56=MA|10=184|8=FIX.4.4|9=58|35=0|34=386|49=T1Kauaiblk1|52=20210208-17:54:59.590|56=MA|10=189|8=FIX.4.4|9=58|35=0|34=387|49=T1Kauaiblk1|52=20210208-17:56:29.590|56=MA|10=189|8=FIX.4.4|9=58|35=0|34=388|49=T1Kauaiblk1|52=20210208-17:58:00.590|56=MA|10=181|8=FIX.4.4|9=58|35=0|34=389|49=T1Kauaiblk1|52=20210208-17:59:30.590|56=MA|10=186|8=FIX.4.4|9=58|35=0|34=390|49=T1Kauaiblk1|52=20210208-18:01:00.590|56=MA|10=163|8=FIX.4.4|9=58|35=0|34=391|49=T1Kauaiblk1|52=20210208-18:02:30.590|56=MA|10=168|8=FIX.4.4|9=58|35=0|34=392|49=T1Kauaiblk1|52=20210208-18:04:00.591|56=MA|10=169|8=FIX.4.4|9=58|35=0|34=393|49=T1Kauaiblk1|52=20210208-18:05:31.591|56=MA|10=175|8=FIX.4.4|9=58|35=0|34=394|49=T1Kauaiblk1|52=20210208-18:07:01.591|56=MA|10=175|8=FIX.4.4|9=58|35=0|34=395|49=T1Kauaiblk1|52=20210208-18:08:31.591|56=MA|10=180|8=FIX.4.4|9=58|35=0|34=396|49=T1Kauaiblk1|52=20210208-18:10:02.591|56=MA|10=172|8=FIX.4.4|9=58|35=0|34=397|49=T1Kauaiblk1|52=20210208-18:11:32.592|56=MA|10=178|8=FIX.4.4|9=58|35=0|34=398|49=T1Kauaiblk1|52=20210208-18:13:02.592|56=MA|10=178|8=FIX.4.4|9=58|35=0|34=399|49=T1Kauaiblk1|52=20210208-18:14:32.592|56=MA|10=183|8=FIX.4.4|9=58|35=0|34=400|49=T1Kauaiblk1|52=20210208-18:16:02.592|56=MA|10=165|8=FIX.4.4|9=58|35=0|34=401|49=T1Kauaiblk1|52=20210208-18:17:32.592|56=MA|10=170|8=FIX.4.4|9=58|35=0|34=402|49=T1Kauaiblk1|52=20210208-18:19:02.592|56=MA|10=170|8=FIX.4.4|9=58|35=0|34=403|49=T1Kauaiblk1|52=20210208-18:20:32.592|56=MA|10=166|8=FIX.4.4|9=58|35=0|34=404|49=T1Kauaiblk1|52=20210208-18:22:02.593|56=MA|10=167|8=FIX.4.4|9=58|35=0|34=405|49=T1Kauaiblk1|52=20210208-18:23:32.593|56=MA|10=172|8=FIX.4.4|9=58|35=0|34=406|49=T1Kauaiblk1|52=20210208-18:25:02.595|56=MA|10=174|8=FIX.4.4|9=58|35=0|34=407|49=T1Kauaiblk1|52=20210208-18:26:32.595|56=MA|10=179|8=FIX.4.4|9=58|35=0|34=408|49=T1Kauaiblk1|52=20210208-18:28:02.596|56=MA|10=180|8=FIX.4.4|9=58|35=0|34=409|49=T1Kauaiblk1|52=20210208-18:29:32.597|56=MA|10=186|8=FIX.4.4|9=58|35=0|34=410|49=T1Kauaiblk1|52=20210208-18:31:02.598|56=MA|10=169|8=FIX.4.4|9=58|35=0|34=411|49=T1Kauaiblk1|52=20210208-18:32:32.598|56=MA|10=174|8=FIX.4.4|9=58|35=0|34=412|49=T1Kauaiblk1|52=20210208-18:34:02.599|56=MA|10=175|8=FIX.4.4|9=58|35=0|34=413|49=T1Kauaiblk1|52=20210208-18:35:32.599|56=MA|10=180|8=FIX.4.4|9=58|35=0|34=414|49=T1Kauaiblk1|52=20210208-18:37:02.600|56=MA|10=163|8=FIX.4.4|9=58|35=0|34=415|49=T1Kauaiblk1|52=20210208-18:38:32.601|56=MA|10=169|8=FIX.4.4|9=58|35=0|34=416|49=T1Kauaiblk1|52=20210208-18:40:02.601|56=MA|10=160|8=FIX.4.4|9=58|35=0|34=417|49=T1Kauaiblk1|52=20210208-18:41:32.601|56=MA|10=165|8=FIX.4.4|9=58|35=0|34=418|49=T1Kauaiblk1|52=20210208-18:43:02.601|56=MA|10=165|8=FIX.4.4|9=58|35=0|34=419|49=T1Kauaiblk1|52=20210208-18:44:32.603|56=MA|10=172|8=FIX.4.4|9=58|35=0|34=420|49=T1Kauaiblk1|52=20210208-18:46:03.602|56=MA|10=163|8=FIX.4.4|9=58|35=0|34=421|49=T1Kauaiblk1|52=20210208-18:47:33.603|56=MA|10=169|8=FIX.4.4|9=58|35=0|34=422|49=T1Kauaiblk1|52=20210208-18:49:03.603|56=MA|10=169|8=FIX.4.4|9=58|35=0|34=423|49=T1Kauaiblk1|52=20210208-18:50:33.604|56=MA|10=166|8=FIX.4.4|9=58|35=0|34=424|49=T1Kauaiblk1|52=20210208-18:52:03.604|56=MA|10=166|8=FIX.4.4|9=58|35=0|34=425|49=T1Kauaiblk1|52=20210208-18:53:33.605|56=MA|10=172|8=FIX.4.4|9=58|35=0|34=426|49=T1Kauaiblk1|52=20210208-18:55:03.605|56=MA|10=172|8=FIX.4.4|9=58|35=0|34=427|49=T1Kauaiblk1|52=20210208-18:56:33.606|56=MA|10=178|8=FIX.4.4|9=58|35=0|34=428|49=T1Kauaiblk1|52=20210208-18:58:04.606|56=MA|10=179|8=FIX.4.4|9=58|35=0|34=429|49=T1Kauaiblk1|52=20210208-18:59:34.606|56=MA|10=184|8=FIX.4.4|9=58|35=0|34=430|49=T1Kauaiblk1|52=20210208-19:01:04.607|56=MA|10=162|8=FIX.4.4|9=58|35=0|34=431|49=T1Kauaiblk1|52=20210208-19:02:34.607|56=MA|10=167|8=FIX.4.4|9=58|35=0|34=432|49=T1Kauaiblk1|52=20210208-19:04:05.606|56=MA|10=167|8=FIX.4.4|9=58|35=0|34=433|49=T1Kauaiblk1|52=20210208-19:05:35.608|56=MA|10=174|8=FIX.4.4|9=58|35=0|34=434|49=T1Kauaiblk1|52=20210208-19:07:06.607|56=MA|10=174|8=FIX.4.4|9=58|35=0|34=435|49=T1Kauaiblk1|52=20210208-19:08:36.607|56=MA|10=179|8=FIX.4.4|9=58|35=0|34=436|49=T1Kauaiblk1|52=20210208-19:10:06.607|56=MA|10=170|8=FIX.4.4|9=58|35=0|34=437|49=T1Kauaiblk1|52=20210208-19:11:36.607|56=MA|10=175|8=FIX.4.4|9=58|35=0|34=438|49=T1Kauaiblk1|52=20210208-19:13:06.607|56=MA|10=175|8=FIX.4.4|9=58|35=0|34=439|49=T1Kauaiblk1|52=20210208-19:14:36.607|56=MA|10=180|8=FIX.4.4|9=58|35=0|34=440|49=T1Kauaiblk1|52=20210208-19:16:06.607|56=MA|10=171|8=FIX.4.4|9=58|35=0|34=441|49=T1Kauaiblk1|52=20210208-19:17:36.609|56=MA|10=178|8=FIX.4.4|9=58|35=0|34=442|49=T1Kauaiblk1|52=20210208-19:19:06.609|56=MA|10=178|8=FIX.4.4|9=58|35=0|34=443|49=T1Kauaiblk1|52=20210208-19:20:37.608|56=MA|10=174|8=FIX.4.4|9=58|35=0|34=444|49=T1Kauaiblk1|52=20210208-19:22:07.608|56=MA|10=174|8=FIX.4.4|9=58|35=0|34=445|49=T1Kauaiblk1|52=20210208-19:23:37.608|56=MA|10=179|8=FIX.4.4|9=58|35=0|34=446|49=T1Kauaiblk1|52=20210208-19:25:07.608|56=MA|10=179|8=FIX.4.4|9=58|35=0|34=447|49=T1Kauaiblk1|52=20210208-19:26:37.609|56=MA|10=185|8=FIX.4.4|9=58|35=0|34=448|49=T1Kauaiblk1|52=20210208-19:28:07.609|56=MA|10=185|8=FIX.4.4|9=58|35=0|34=449|49=T1Kauaiblk1|52=20210208-19:29:37.609|56=MA|10=190|8=FIX.4.4|9=58|35=0|34=450|49=T1Kauaiblk1|52=20210208-19:31:07.609|56=MA|10=172|8=FIX.4.4|9=58|35=0|34=451|49=T1Kauaiblk1|52=20210208-19:32:37.611|56=MA|10=170|8=FIX.4.4|9=58|35=0|34=452|49=T1Kauaiblk1|52=20210208-19:34:08.610|56=MA|10=170|8=FIX.4.4|9=58|35=0|34=453|49=T1Kauaiblk1|52=20210208-19:35:38.610|56=MA|10=175|8=FIX.4.4|9=58|35=0|34=454|49=T1Kauaiblk1|52=20210208-19:37:09.609|56=MA|10=184|8=FIX.4.4|9=58|35=0|34=455|49=T1Kauaiblk1|52=20210208-19:38:39.609|56=MA|10=189|8=FIX.4.4|9=58|35=0|34=456|49=T1Kauaiblk1|52=20210208-19:40:09.610|56=MA|10=172|8=FIX.4.4|9=58|35=0|34=457|49=T1Kauaiblk1|52=20210208-19:41:39.611|56=MA|10=178|8=FIX.4.4|9=58|35=0|34=458|49=T1Kauaiblk1|52=20210208-19:43:10.610|56=MA|10=169|8=FIX.4.4|9=58|35=0|34=459|49=T1Kauaiblk1|52=20210208-19:44:40.611|56=MA|10=175|8=FIX.4.4|9=58|35=0|34=460|49=T1Kauaiblk1|52=20210208-19:46:10.611|56=MA|10=166|8=FIX.4.4|9=58|35=0|34=461|49=T1Kauaiblk1|52=20210208-19:47:41.610|56=MA|10=171|8=FIX.4.4|9=58|35=0|34=462|49=T1Kauaiblk1|52=20210208-19:49:11.610|56=MA|10=171|8=FIX.4.4|9=58|35=0|34=463|49=T1Kauaiblk1|52=20210208-19:50:41.610|56=MA|10=167|8=FIX.4.4|9=58|35=0|34=464|49=T1Kauaiblk1|52=20210208-19:52:11.611|56=MA|10=168|8=FIX.4.4|9=58|35=0|34=465|49=T1Kauaiblk1|52=20210208-19:53:42.610|56=MA|10=173|8=FIX.4.4|9=58|35=0|34=466|49=T1Kauaiblk1|52=20210208-19:55:12.610|56=MA|10=173|8=FIX.4.4|9=58|35=0|34=467|49=T1Kauaiblk1|52=20210208-19:56:42.610|56=MA|10=178|8=FIX.4.4|9=58|35=0|34=468|49=T1Kauaiblk1|52=20210208-19:58:12.610|56=MA|10=178|8=FIX.4.4|9=58|35=0|34=469|49=T1Kauaiblk1|52=20210208-19:59:42.610|56=MA|10=183|8=FIX.4.4|9=58|35=0|34=470|49=T1Kauaiblk1|52=20210208-20:01:12.611|56=MA|10=152|8=FIX.4.4|9=58|35=0|34=471|49=T1Kauaiblk1|52=20210208-20:02:42.611|56=MA|10=157|8=FIX.4.4|9=58|35=0|34=472|49=T1Kauaiblk1|52=20210208-20:04:12.612|56=MA|10=158|8=FIX.4.4|9=58|35=0|34=473|49=T1Kauaiblk1|52=20210208-20:05:43.611|56=MA|10=163|8=FIX.4.4|9=58|35=0|34=474|49=T1Kauaiblk1|52=20210208-20:07:13.611|56=MA|10=163|8=FIX.4.4|9=58|35=0|34=475|49=T1Kauaiblk1|52=20210208-20:08:44.611|56=MA|10=169|8=FIX.4.4|9=58|35=0|34=476|49=T1Kauaiblk1|52=20210208-20:10:15.611|56=MA|10=161|8=FIX.4.4|9=58|35=0|34=477|49=T1Kauaiblk1|52=20210208-20:11:46.610|56=MA|10=166|8=FIX.4.4|9=58|35=0|34=478|49=T1Kauaiblk1|52=20210208-20:13:16.612|56=MA|10=168|8=FIX.4.4|9=58|35=0|34=479|49=T1Kauaiblk1|52=20210208-20:14:47.610|56=MA|10=172|8=FIX.4.4|9=58|35=0|34=480|49=T1Kauaiblk1|52=20210208-20:16:17.611|56=MA|10=164|8=FIX.4.4|9=58|35=0|34=481|49=T1Kauaiblk1|52=20210208-20:17:47.611|56=MA|10=169|8=FIX.4.4|9=58|35=0|34=482|49=T1Kauaiblk1|52=20210208-20:19:17.611|56=MA|10=169|8=FIX.4.4|9=58|35=0|34=483|49=T1Kauaiblk1|52=20210208-20:20:47.611|56=MA|10=165|8=FIX.4.4|9=58|35=0|34=484|49=T1Kauaiblk1|52=20210208-20:22:17.611|56=MA|10=165|8=FIX.4.4|9=58|35=0|34=485|49=T1Kauaiblk1|52=20210208-20:23:47.612|56=MA|10=171|8=FIX.4.4|9=58|35=0|34=486|49=T1Kauaiblk1|52=20210208-20:25:17.612|56=MA|10=171|8=FIX.4.4|9=58|35=0|34=487|49=T1Kauaiblk1|52=20210208-20:26:48.611|56=MA|10=176|8=FIX.4.4|9=58|35=0|34=488|49=T1Kauaiblk1|52=20210208-20:28:18.611|56=MA|10=176|8=FIX.4.4|9=58|35=0|34=489|49=T1Kauaiblk1|52=20210208-20:29:48.612|56=MA|10=182|8=FIX.4.4|9=58|35=0|34=490|49=T1Kauaiblk1|52=20210208-20:31:19.611|56=MA|10=164|8=FIX.4.4|9=58|35=0|34=491|49=T1Kauaiblk1|52=20210208-20:32:49.611|56=MA|10=169|8=FIX.4.4|9=58|35=0|34=492|49=T1Kauaiblk1|52=20210208-20:34:19.611|56=MA|10=169|8=FIX.4.4|9=58|35=0|34=493|49=T1Kauaiblk1|52=20210208-20:35:49.611|56=MA|10=174|8=FIX.4.4|9=58|35=0|34=494|49=T1Kauaiblk1|52=20210208-20:37:19.612|56=MA|10=175|8=FIX.4.4|9=58|35=0|34=495|49=T1Kauaiblk1|52=20210208-20:38:50.611|56=MA|10=171|8=FIX.4.4|9=58|35=0|34=496|49=T1Kauaiblk1|52=20210208-20:40:20.611|56=MA|10=162|8=FIX.4.4|9=58|35=0|34=497|49=T1Kauaiblk1|52=20210208-20:41:50.611|56=MA|10=167|8=FIX.4.4|9=58|35=0|34=498|49=T1Kauaiblk1|52=20210208-20:43:20.611|56=MA|10=167|8=FIX.4.4|9=58|35=0|34=499|49=T1Kauaiblk1|52=20210208-20:44:50.613|56=MA|10=174|8=FIX.4.4|9=58|35=0|34=500|49=T1Kauaiblk1|52=20210208-20:46:21.612|56=MA|10=156|8=FIX.4.4|9=58|35=0|34=501|49=T1Kauaiblk1|52=20210208-20:47:51.612|56=MA|10=161|8=FIX.4.4|9=58|35=0|34=502|49=T1Kauaiblk1|52=20210208-20:49:21.613|56=MA|10=162|8=FIX.4.4|9=58|35=0|34=503|49=T1Kauaiblk1|52=20210208-20:50:51.613|56=MA|10=158|8=FIX.4.4|9=58|35=0|34=504|49=T1Kauaiblk1|52=20210208-20:52:22.613|56=MA|10=159|8=FIX.4.4|9=58|35=0|34=505|49=T1Kauaiblk1|52=20210208-20:53:53.612|56=MA|10=164|8=FIX.4.4|9=58|35=0|34=506|49=T1Kauaiblk1|52=20210208-20:55:23.612|56=MA|10=164|8=FIX.4.4|9=58|35=0|34=507|49=T1Kauaiblk1|52=20210208-20:56:53.612|56=MA|10=169|8=FIX.4.4|9=58|35=0|34=508|49=T1Kauaiblk1|52=20210208-20:58:23.613|56=MA|10=170|8=FIX.4.4|9=58|35=0|34=509|49=T1Kauaiblk1|52=20210208-20:59:53.613|56=MA|10=175|8=FIX.4.4|9=58|35=0|34=510|49=T1Kauaiblk1|52=20210208-21:01:23.613|56=MA|10=152|8=FIX.4.4|9=58|35=0|34=511|49=T1Kauaiblk1|52=20210208-21:02:53.613|56=MA|10=157|8=FIX.4.4|9=58|35=0|34=512|49=T1Kauaiblk1|52=20210208-21:04:24.612|56=MA|10=157|8=FIX.4.4|9=58|35=0|34=513|49=T1Kauaiblk1|52=20210208-21:05:54.614|56=MA|10=164|8=FIX.4.4|9=58|35=0|34=514|49=T1Kauaiblk1|52=20210208-21:07:24.614|56=MA|10=164|8=FIX.4.4|9=58|35=0|34=515|49=T1Kauaiblk1|52=20210208-21:08:55.613|56=MA|10=169|8=FIX.4.4|9=58|35=0|34=516|49=T1Kauaiblk1|52=20210208-21:10:25.613|56=MA|10=160|8=FIX.4.4|9=58|35=0|34=517|49=T1Kauaiblk1|52=20210208-21:11:55.613|56=MA|10=165|8=FIX.4.4|9=58|35=0|34=518|49=T1Kauaiblk1|52=20210208-21:13:25.614|56=MA|10=166|8=FIX.4.4|9=58|35=0|34=519|49=T1Kauaiblk1|52=20210208-21:14:55.614|56=MA|10=171|8=FIX.4.4|9=58|35=0|34=520|49=T1Kauaiblk1|52=20210208-21:16:26.612|56=MA|10=161|8=FIX.4.4|9=58|35=0|34=521|49=T1Kauaiblk1|52=20210208-21:17:56.612|56=MA|10=166|8=FIX.4.4|9=58|35=0|34=522|49=T1Kauaiblk1|52=20210208-21:19:26.614|56=MA|10=168|8=FIX.4.4|9=58|35=0|34=523|49=T1Kauaiblk1|52=20210208-21:20:57.614|56=MA|10=165|8=FIX.4.4|9=58|35=0|34=524|49=T1Kauaiblk1|52=20210208-21:22:28.612|56=MA|10=164|8=FIX.4.4|9=58|35=0|34=525|49=T1Kauaiblk1|52=20210208-21:23:58.612|56=MA|10=169|8=FIX.4.4|9=58|35=0|34=526|49=T1Kauaiblk1|52=20210208-21:25:28.614|56=MA|10=171|8=FIX.4.4|9=58|35=0|34=527|49=T1Kauaiblk1|52=20210208-21:26:59.613|56=MA|10=176|8=FIX.4.4|9=58|35=0|34=528|49=T1Kauaiblk1|52=20210208-21:28:30.614|56=MA|10=169|8=FIX.4.4|9=58|35=0|34=529|49=T1Kauaiblk1|52=20210208-21:30:00.614|56=MA|10=160|8=FIX.4.4|9=58|35=0|34=530|49=T1Kauaiblk1|52=20210208-21:31:31.613|56=MA|10=156|8=FIX.4.4|9=58|35=0|34=531|49=T1Kauaiblk1|52=20210208-21:33:01.613|56=MA|10=156|8=FIX.4.4|9=58|35=0|34=532|49=T1Kauaiblk1|52=20210208-21:34:31.613|56=MA|10=161|8=FIX.4.4|9=58|35=0|34=533|49=T1Kauaiblk1|52=20210208-21:36:01.613|56=MA|10=161|8=FIX.4.4|9=58|35=0|34=534|49=T1Kauaiblk1|52=20210208-21:37:31.613|56=MA|10=166|8=FIX.4.4|9=58|35=0|34=535|49=T1Kauaiblk1|52=20210208-21:39:01.613|56=MA|10=166|8=FIX.4.4|9=58|35=0|34=536|49=T1Kauaiblk1|52=20210208-21:40:31.613|56=MA|10=162|8=FIX.4.4|9=58|35=0|34=537|49=T1Kauaiblk1|52=20210208-21:42:01.613|56=MA|10=162|8=FIX.4.4|9=58|35=0|34=538|49=T1Kauaiblk1|52=20210208-21:43:31.613|56=MA|10=167|8=FIX.4.4|9=58|35=0|34=539|49=T1Kauaiblk1|52=20210208-21:45:02.614|56=MA|10=169|8=FIX.4.4|9=58|35=0|34=540|49=T1Kauaiblk1|52=20210208-21:46:32.614|56=MA|10=165|8=FIX.4.4|9=58|35=0|34=541|49=T1Kauaiblk1|52=20210208-21:48:03.613|56=MA|10=165|8=FIX.4.4|9=58|35=0|34=542|49=T1Kauaiblk1|52=20210208-21:49:33.613|56=MA|10=170|8=FIX.4.4|9=58|35=0|34=543|49=T1Kauaiblk1|52=20210208-21:51:03.613|56=MA|10=161|8=FIX.4.4|9=58|35=0|34=544|49=T1Kauaiblk1|52=20210208-21:52:33.613|56=MA|10=166|8=FIX.4.4|9=58|35=0|34=545|49=T1Kauaiblk1|52=20210208-21:54:03.613|56=MA|10=166|8=FIX.4.4|9=58|35=0|34=546|49=T1Kauaiblk1|52=20210208-21:55:33.613|56=MA|10=171|8=FIX.4.4|9=58|35=0|34=547|49=T1Kauaiblk1|52=20210208-21:57:03.613|56=MA|10=171|8=FIX.4.4|9=58|35=0|34=548|49=T1Kauaiblk1|52=20210208-21:58:33.613|56=MA|10=176|8=FIX.4.4|9=58|35=0|34=549|49=T1Kauaiblk1|52=20210208-22:00:03.613|56=MA|10=162|8=FIX.4.4|9=58|35=0|34=550|49=T1Kauaiblk1|52=20210208-22:01:33.613|56=MA|10=158|8=FIX.4.4|9=58|35=0|34=551|49=T1Kauaiblk1|52=20210208-22:03:03.613|56=MA|10=158|8=FIX.4.4|9=58|35=0|34=552|49=T1Kauaiblk1|52=20210208-22:04:33.615|56=MA|10=165|8=FIX.4.4|9=58|35=0|34=553|49=T1Kauaiblk1|52=20210208-22:06:04.613|56=MA|10=164|8=FIX.4.4|9=58|35=0|34=554|49=T1Kauaiblk1|52=20210208-22:07:34.613|56=MA|10=169|8=FIX.4.4|9=58|35=0|34=555|49=T1Kauaiblk1|52=20210208-22:09:04.614|56=MA|10=170|8=FIX.4.4|9=58|35=0|34=556|49=T1Kauaiblk1|52=20210208-22:10:35.613|56=MA|10=166|8=FIX.4.4|9=58|35=0|34=557|49=T1Kauaiblk1|52=20210208-22:12:05.613|56=MA|10=166|8=FIX.4.4|9=58|35=0|34=558|49=T1Kauaiblk1|52=20210208-22:13:35.613|56=MA|10=171|8=FIX.4.4|9=58|35=0|34=559|49=T1Kauaiblk1|52=20210208-22:15:05.613|56=MA|10=171|8=FIX.4.4|9=58|35=0|34=560|49=T1Kauaiblk1|52=20210208-22:16:35.613|56=MA|10=167|8=FIX.4.4|9=58|35=0|34=561|49=T1Kauaiblk1|52=20210208-22:18:05.613|56=MA|10=167|8=FIX.4.4|9=58|35=0|34=562|49=T1Kauaiblk1|52=20210208-22:19:35.614|56=MA|10=173|8=FIX.4.4|9=58|35=0|34=563|49=T1Kauaiblk1|52=20210208-22:21:05.614|56=MA|10=164|8=FIX.4.4|9=58|35=0|34=564|49=T1Kauaiblk1|52=20210208-22:22:35.614|56=MA|10=169|8=FIX.4.4|9=58|35=0|34=565|49=T1Kauaiblk1|52=20210208-22:24:05.614|56=MA|10=169|8=FIX.4.4|9=58|35=0|34=566|49=T1Kauaiblk1|52=20210208-22:25:35.615|56=MA|10=175|8=FIX.4.4|9=58|35=0|34=567|49=T1Kauaiblk1|52=20210208-22:27:05.615|56=MA|10=175|8=FIX.4.4|9=58|35=0|34=568|49=T1Kauaiblk1|52=20210208-22:28:35.615|56=MA|10=180|8=FIX.4.4|9=58|35=0|34=569|49=T1Kauaiblk1|52=20210208-22:30:06.614|56=MA|10=171|8=FIX.4.4|9=58|35=0|34=570|49=T1Kauaiblk1|52=20210208-22:31:36.614|56=MA|10=167|8=FIX.4.4|9=58|35=0|34=571|49=T1Kauaiblk1|52=20210208-22:33:06.614|56=MA|10=167|8=FIX.4.4|9=58|35=0|34=572|49=T1Kauaiblk1|52=20210208-22:34:36.614|56=MA|10=172|8=FIX.4.4|9=58|35=0|34=573|49=T1Kauaiblk1|52=20210208-22:36:06.614|56=MA|10=172|8=FIX.4.4|9=58|35=0|34=574|49=T1Kauaiblk1|52=20210208-22:37:36.615|56=MA|10=178|8=FIX.4.4|9=58|35=0|34=575|49=T1Kauaiblk1|52=20210208-22:39:06.615|56=MA|10=178|8=FIX.4.4|9=58|35=0|34=576|49=T1Kauaiblk1|52=20210208-22:40:37.614|56=MA|10=174|8=FIX.4.4|9=58|35=0|34=577|49=T1Kauaiblk1|52=20210208-22:42:07.614|56=MA|10=174|8=FIX.4.4|9=58|35=0|34=578|49=T1Kauaiblk1|52=20210208-22:43:37.614|56=MA|10=179|8=FIX.4.4|9=58|35=0|34=579|49=T1Kauaiblk1|52=20210208-22:45:07.615|56=MA|10=180|8=FIX.4.4|9=58|35=0|34=580|49=T1Kauaiblk1|52=20210208-22:46:38.614|56=MA|10=176|8=FIX.4.4|9=58|35=0|34=581|49=T1Kauaiblk1|52=20210208-22:48:08.614|56=MA|10=176|8=FIX.4.4|9=58|35=0|34=582|49=T1Kauaiblk1|52=20210208-22:49:38.614|56=MA|10=181|8=FIX.4.4|9=58|35=0|34=583|49=T1Kauaiblk1|52=20210208-22:51:08.615|56=MA|10=173|8=FIX.4.4|9=58|35=0|34=584|49=T1Kauaiblk1|52=20210208-22:52:38.615|56=MA|10=178|8=FIX.4.4|9=58|35=0|34=585|49=T1Kauaiblk1|52=20210208-22:54:08.617|56=MA|10=180|8=FIX.4.4|9=58|35=0|34=586|49=T1Kauaiblk1|52=20210208-22:55:38.619|56=MA|10=187|8=FIX.4.4|9=58|35=0|34=587|49=T1Kauaiblk1|52=20210208-22:57:08.621|56=MA|10=180|8=FIX.4.4|9=58|35=0|34=588|49=T1Kauaiblk1|52=20210208-22:58:38.623|56=MA|10=187|8=FIX.4.4|9=58|35=0|34=589|49=T1Kauaiblk1|52=20210208-23:00:08.624|56=MA|10=174|8=FIX.4.4|9=58|35=0|34=590|49=T1Kauaiblk1|52=20210208-23:01:38.627|56=MA|10=173|8=FIX.4.4|9=58|35=0|34=591|49=T1Kauaiblk1|52=20210208-23:03:08.627|56=MA|10=173|8=FIX.4.4|9=58|35=0|34=592|49=T1Kauaiblk1|52=20210208-23:04:38.629|56=MA|10=180|8=FIX.4.4|9=58|35=5|34=593|49=T1Kauaiblk1|52=20210208-23:05:01.422|56=MA|10=168|8=FIX.4.4|9=91|35=A|34=1|49=T1Kauaiblk1|52=20210209-08:38:31.316|56=MA|98=0|108=90|95=8|96=3.0.0rc5|141=Y|10=038|8=FIX.4.4|9=718|35=E|34=2|49=T1Kauaiblk1|52=20210209-08:39:11.454|56=MA|66=ListID-S090221-1222|394=2|68=5|73=5|11=ClOrdID-1223|22=4|38=1000000|44=100.261|48=US06051GEN51|54=2|55=[N/A/]|63=3|67=1|423=1|29726=100.262|453=1|448=T1Kauaiblk1|447=C|452=11|11=ClOrdID-1224|22=4|38=2000000|44=101|48=US40434AAB52|54=2|55=[N/A]|63=3|67=2|29726=101.25|11=ClOrdID-1225|22=4|38=1300000|44=102.251|48=US95709TAH32|54=2|55=[N/A/]|63=3|67=1|29726=102.25|453=1|448=T1Kauaiblk1|447=C|452=11|11=ClOrdID-1226|22=4|38=250000|44=103.1|48=US427866AZ15|54=2|55=[N/A/]|63=3|67=1|29726=103.25|453=1|448=T1Kauaiblk1|447=C|452=11|11=ClOrdID-1227|22=4|38=350000|44=104.231|48=US29379VAW37|54=2|55=[N/A/]|63=3|67=1|29726=104.25|453=1|448=T1Kauaiblk1|447=C|452=11|10=047|8=FIX.4.4|9=56|35=0|34=3|49=T1Kauaiblk1|52=20210209-08:40:42.310|56=MA|10=055|8=FIX.4.4|9=56|35=0|34=4|49=T1Kauaiblk1|52=20210209-08:42:12.311|56=MA|10=056|8=FIX.4.4|9=56|35=0|34=5|49=T1Kauaiblk1|52=20210209-08:43:42.311|56=MA|10=061|8=FIX.4.4|9=56|35=0|34=6|49=T1Kauaiblk1|52=20210209-08:45:12.968|56=MA|10=079|8=FIX.4.4|9=56|35=0|34=7|49=T1Kauaiblk1|52=20210209-08:46:43.310|56=MA|10=066|8=FIX.4.4|9=56|35=0|34=8|49=T1Kauaiblk1|52=20210209-08:48:13.310|56=MA|10=066|8=FIX.4.4|9=56|35=0|34=9|49=T1Kauaiblk1|52=20210209-08:49:43.311|56=MA|10=072|8=FIX.4.4|9=57|35=0|34=10|49=T1Kauaiblk1|52=20210209-08:51:13.312|56=MA|10=104|8=FIX.4.4|9=57|35=0|34=11|49=T1Kauaiblk1|52=20210209-08:52:43.827|56=MA|10=120|8=FIX.4.4|9=57|35=0|34=12|49=T1Kauaiblk1|52=20210209-08:54:14.311|56=MA|10=109|8=FIX.4.4|9=57|35=0|34=13|49=T1Kauaiblk1|52=20210209-08:55:44.830|56=MA|10=120|8=FIX.4.4|9=57|35=0|34=14|49=T1Kauaiblk1|52=20210209-08:57:15.312|56=MA|10=116|8=FIX.4.4|9=57|35=0|34=15|49=T1Kauaiblk1|52=20210209-08:58:45.728|56=MA|10=132|8=FIX.4.4|9=57|35=0|34=16|49=T1Kauaiblk1|52=20210209-09:00:16.312|56=MA|10=108|8=FIX.4.4|9=57|35=0|34=17|49=T1Kauaiblk1|52=20210209-09:01:47.312|56=MA|10=114|8=FIX.4.4|9=57|35=0|34=18|49=T1Kauaiblk1|52=20210209-09:03:18.311|56=MA|10=114|8=FIX.4.4|9=57|35=0|34=19|49=T1Kauaiblk1|52=20210209-09:04:48.311|56=MA|10=119|8=FIX.4.4|9=57|35=0|34=20|49=T1Kauaiblk1|52=20210209-09:06:19.311|56=MA|10=111|8=FIX.4.4|9=57|35=0|34=21|49=T1Kauaiblk1|52=20210209-09:07:50.311|56=MA|10=108|8=FIX.4.4|9=57|35=0|34=22|49=T1Kauaiblk1|52=20210209-09:09:21.311|56=MA|10=109|8=FIX.4.4|9=57|35=0|34=23|49=T1Kauaiblk1|52=20210209-09:10:51.312|56=MA|10=106|8=FIX.4.4|9=57|35=0|34=24|49=T1Kauaiblk1|52=20210209-09:12:22.311|56=MA|10=106|8=FIX.4.4|9=57|35=0|34=25|49=T1Kauaiblk1|52=20210209-09:13:52.312|56=MA|10=112|8=FIX.4.4|9=57|35=0|34=26|49=T1Kauaiblk1|52=20210209-09:15:23.311|56=MA|10=112|8=FIX.4.4|9=57|35=0|34=27|49=T1Kauaiblk1|52=20210209-09:16:53.311|56=MA|10=117|8=FIX.4.4|9=57|35=0|34=28|49=T1Kauaiblk1|52=20210209-09:18:23.311|56=MA|10=117|8=FIX.4.4|9=57|35=0|34=29|49=T1Kauaiblk1|52=20210209-09:19:53.312|56=MA|10=123|8=FIX.4.4|9=57|35=0|34=30|49=T1Kauaiblk1|52=20210209-09:21:24.311|56=MA|10=105|8=FIX.4.4|9=57|35=0|34=31|49=T1Kauaiblk1|52=20210209-09:22:54.312|56=MA|10=111|8=FIX.4.4|9=57|35=0|34=32|49=T1Kauaiblk1|52=20210209-09:24:25.310|56=MA|10=110|8=FIX.4.4|9=57|35=0|34=33|49=T1Kauaiblk1|52=20210209-09:25:55.312|56=MA|10=117|8=FIX.4.4|9=57|35=0|34=34|49=T1Kauaiblk1|52=20210209-09:27:26.311|56=MA|10=117|8=FIX.4.4|9=57|35=0|34=35|49=T1Kauaiblk1|52=20210209-09:28:56.311|56=MA|10=122|8=FIX.4.4|9=57|35=0|34=36|49=T1Kauaiblk1|52=20210209-09:30:26.311|56=MA|10=113|8=FIX.4.4|9=57|35=0|34=37|49=T1Kauaiblk1|52=20210209-09:31:56.312|56=MA|10=119|8=FIX.4.4|9=57|35=0|34=38|49=T1Kauaiblk1|52=20210209-09:33:27.311|56=MA|10=119|8=FIX.4.4|9=57|35=0|34=39|49=T1Kauaiblk1|52=20210209-09:34:57.312|56=MA|10=125|8=FIX.4.4|9=57|35=0|34=40|49=T1Kauaiblk1|52=20210209-09:36:28.312|56=MA|10=117|8=FIX.4.4|9=57|35=0|34=41|49=T1Kauaiblk1|52=20210209-09:37:59.312|56=MA|10=123|8=FIX.4.4|9=57|35=0|34=42|49=T1Kauaiblk1|52=20210209-09:39:30.311|56=MA|10=114|8=FIX.4.4|9=57|35=0|34=43|49=T1Kauaiblk1|52=20210209-09:41:00.311|56=MA|10=105|8=FIX.4.4|9=57|35=0|34=44|49=T1Kauaiblk1|52=20210209-09:42:30.311|56=MA|10=110|8=FIX.4.4|9=57|35=0|34=45|49=T1Kauaiblk1|52=20210209-09:44:00.311|56=MA|10=110|8=FIX.4.4|9=57|35=0|34=46|49=T1Kauaiblk1|52=20210209-09:45:30.311|56=MA|10=115|8=FIX.4.4|9=57|35=0|34=47|49=T1Kauaiblk1|52=20210209-09:47:00.311|56=MA|10=115|8=FIX.4.4|9=57|35=0|34=48|49=T1Kauaiblk1|52=20210209-09:48:30.312|56=MA|10=121|8=FIX.4.4|9=57|35=0|34=49|49=T1Kauaiblk1|52=20210209-09:50:01.311|56=MA|10=112|8=FIX.4.4|9=57|35=0|34=50|49=T1Kauaiblk1|52=20210209-09:51:31.311|56=MA|10=108|8=FIX.4.4|9=57|35=0|34=51|49=T1Kauaiblk1|52=20210209-09:53:01.311|56=MA|10=108|8=FIX.4.4|9=57|35=0|34=52|49=T1Kauaiblk1|52=20210209-09:54:31.312|56=MA|10=114|8=FIX.4.4|9=57|35=0|34=53|49=T1Kauaiblk1|52=20210209-09:56:01.312|56=MA|10=114|8=FIX.4.4|9=57|35=0|34=54|49=T1Kauaiblk1|52=20210209-09:57:32.312|56=MA|10=120|8=FIX.4.4|9=57|35=0|34=55|49=T1Kauaiblk1|52=20210209-09:59:02.312|56=MA|10=120|8=FIX.4.4|9=57|35=0|34=56|49=T1Kauaiblk1|52=20210209-10:00:32.312|56=MA|10=102|8=FIX.4.4|9=57|35=0|34=57|49=T1Kauaiblk1|52=20210209-10:02:02.313|56=MA|10=103|8=FIX.4.4|9=57|35=0|34=58|49=T1Kauaiblk1|52=20210209-10:03:33.312|56=MA|10=108|8=FIX.4.4|9=57|35=0|34=59|49=T1Kauaiblk1|52=20210209-10:05:03.312|56=MA|10=108|8=FIX.4.4|9=57|35=0|34=60|49=T1Kauaiblk1|52=20210209-10:06:33.312|56=MA|10=104|8=FIX.4.4|9=57|35=0|34=61|49=T1Kauaiblk1|52=20210209-10:08:04.311|56=MA|10=104|8=FIX.4.4|9=57|35=0|34=62|49=T1Kauaiblk1|52=20210209-10:09:34.312|56=MA|10=110|8=FIX.4.4|9=57|35=0|34=63|49=T1Kauaiblk1|52=20210209-10:11:04.312|56=MA|10=101|8=FIX.4.4|9=57|35=0|34=64|49=T1Kauaiblk1|52=20210209-10:12:35.312|56=MA|10=107|8=FIX.4.4|9=57|35=0|34=65|49=T1Kauaiblk1|52=20210209-10:14:05.312|56=MA|10=107|8=FIX.4.4|9=57|35=0|34=66|49=T1Kauaiblk1|52=20210209-10:15:35.312|56=MA|10=112|8=FIX.4.4|9=57|35=0|34=67|49=T1Kauaiblk1|52=20210209-10:17:05.314|56=MA|10=114|8=FIX.4.4|9=57|35=0|34=68|49=T1Kauaiblk1|52=20210209-10:18:35.314|56=MA|10=119|8=FIX.4.4|9=57|35=0|34=69|49=T1Kauaiblk1|52=20210209-10:20:05.315|56=MA|10=111|8=FIX.4.4|9=57|35=0|34=70|49=T1Kauaiblk1|52=20210209-10:21:35.316|56=MA|10=108|8=FIX.4.4|9=57|35=0|34=71|49=T1Kauaiblk1|52=20210209-10:23:05.317|56=MA|10=109|8=FIX.4.4|9=57|35=0|34=72|49=T1Kauaiblk1|52=20210209-10:24:35.318|56=MA|10=115|8=FIX.4.4|9=57|35=0|34=73|49=T1Kauaiblk1|52=20210209-10:26:05.318|56=MA|10=115|8=FIX.4.4|9=57|35=0|34=74|49=T1Kauaiblk1|52=20210209-10:27:35.319|56=MA|10=121|8=FIX.4.4|9=57|35=0|34=75|49=T1Kauaiblk1|52=20210209-10:29:05.321|56=MA|10=114|8=FIX.4.4|9=57|35=0|34=76|49=T1Kauaiblk1|52=20210209-10:30:36.321|56=MA|10=111|8=FIX.4.4|9=57|35=0|34=77|49=T1Kauaiblk1|52=20210209-10:32:06.321|56=MA|10=111|8=FIX.4.4|9=57|35=0|34=78|49=T1Kauaiblk1|52=20210209-10:33:36.323|56=MA|10=118|8=FIX.4.4|9=57|35=0|34=79|49=T1Kauaiblk1|52=20210209-10:35:07.322|56=MA|10=118|8=FIX.4.4|9=57|35=0|34=80|49=T1Kauaiblk1|52=20210209-10:36:37.324|56=MA|10=116|8=FIX.4.4|9=57|35=0|34=81|49=T1Kauaiblk1|52=20210209-10:38:07.325|56=MA|10=117|8=FIX.4.4|9=57|35=0|34=82|49=T1Kauaiblk1|52=20210209-10:39:37.325|56=MA|10=122|8=FIX.4.4|9=57|35=0|34=83|49=T1Kauaiblk1|52=20210209-10:41:07.325|56=MA|10=113|8=FIX.4.4|9=57|35=0|34=84|49=T1Kauaiblk1|52=20210209-10:42:37.327|56=MA|10=120|8=FIX.4.4|9=57|35=0|34=85|49=T1Kauaiblk1|52=20210209-10:44:07.327|56=MA|10=120|8=FIX.4.4|9=57|35=0|34=86|49=T1Kauaiblk1|52=20210209-10:45:37.328|56=MA|10=126|8=FIX.4.4|9=57|35=0|34=87|49=T1Kauaiblk1|52=20210209-10:47:07.328|56=MA|10=126|8=FIX.4.4|9=57|35=0|34=88|49=T1Kauaiblk1|52=20210209-10:48:38.328|56=MA|10=132|8=FIX.4.4|9=57|35=0|34=89|49=T1Kauaiblk1|52=20210209-10:50:08.329|56=MA|10=124|8=FIX.4.4|9=57|35=0|34=90|49=T1Kauaiblk1|52=20210209-10:51:38.329|56=MA|10=120|8=FIX.4.4|9=57|35=0|34=91|49=T1Kauaiblk1|52=20210209-10:53:08.330|56=MA|10=112|8=FIX.4.4|9=57|35=0|34=92|49=T1Kauaiblk1|52=20210209-10:54:38.330|56=MA|10=117|8=FIX.4.4|9=57|35=0|34=93|49=T1Kauaiblk1|52=20210209-10:56:08.331|56=MA|10=118|8=FIX.4.4|9=57|35=0|34=94|49=T1Kauaiblk1|52=20210209-10:57:38.332|56=MA|10=124|8=FIX.4.4|9=57|35=0|34=95|49=T1Kauaiblk1|52=20210209-10:59:08.332|56=MA|10=124|8=FIX.4.4|9=57|35=0|34=96|49=T1Kauaiblk1|52=20210209-11:00:38.333|56=MA|10=116|8=FIX.4.4|9=57|35=0|34=97|49=T1Kauaiblk1|52=20210209-11:02:09.332|56=MA|10=116|8=FIX.4.4|9=57|35=0|34=98|49=T1Kauaiblk1|52=20210209-11:03:39.333|56=MA|10=122|8=FIX.4.4|9=57|35=0|34=99|49=T1Kauaiblk1|52=20210209-11:05:09.333|56=MA|10=122|8=FIX.4.4|9=58|35=0|34=100|49=T1Kauaiblk1|52=20210209-11:06:39.333|56=MA|10=158|8=FIX.4.4|9=58|35=0|34=101|49=T1Kauaiblk1|52=20210209-11:08:09.336|56=MA|10=161|8=FIX.4.4|9=58|35=0|34=102|49=T1Kauaiblk1|52=20210209-11:09:40.336|56=MA|10=158|8=FIX.4.4|9=58|35=0|34=103|49=T1Kauaiblk1|52=20210209-11:11:11.335|56=MA|10=149|8=FIX.4.4|9=58|35=0|34=104|49=T1Kauaiblk1|52=20210209-11:12:41.336|56=MA|10=155|8=FIX.4.4|9=58|35=0|34=105|49=T1Kauaiblk1|52=20210209-11:14:11.337|56=MA|10=156|8=FIX.4.4|9=58|35=0|34=106|49=T1Kauaiblk1|52=20210209-11:15:42.336|56=MA|10=161|8=FIX.4.4|9=58|35=0|34=107|49=T1Kauaiblk1|52=20210209-11:17:12.336|56=MA|10=161|8=FIX.4.4|9=58|35=0|34=108|49=T1Kauaiblk1|52=20210209-11:18:42.336|56=MA|10=166|8=FIX.4.4|9=58|35=0|34=109|49=T1Kauaiblk1|52=20210209-11:20:12.338|56=MA|10=159|8=FIX.4.4|9=58|35=0|34=110|49=T1Kauaiblk1|52=20210209-11:21:43.339|56=MA|10=157|8=FIX.4.4|9=58|35=0|34=111|49=T1Kauaiblk1|52=20210209-11:23:14.339|56=MA|10=158|8=FIX.4.4|9=58|35=0|34=112|49=T1Kauaiblk1|52=20210209-11:24:45.338|56=MA|10=163|8=FIX.4.4|9=58|35=0|34=113|49=T1Kauaiblk1|52=20210209-11:26:15.339|56=MA|10=164|8=FIX.4.4|9=58|35=0|34=114|49=T1Kauaiblk1|52=20210209-11:27:46.338|56=MA|10=169|8=FIX.4.4|9=58|35=0|34=115|49=T1Kauaiblk1|52=20210209-11:29:16.340|56=MA|10=162|8=FIX.4.4|9=58|35=0|34=116|49=T1Kauaiblk1|52=20210209-11:30:46.341|56=MA|10=159|8=FIX.4.4|9=58|35=0|34=117|49=T1Kauaiblk1|52=20210209-11:32:17.340|56=MA|10=159|8=FIX.4.4|9=58|35=0|34=118|49=T1Kauaiblk1|52=20210209-11:33:47.341|56=MA|10=165|8=FIX.4.4|9=58|35=0|34=119|49=T1Kauaiblk1|52=20210209-11:35:18.340|56=MA|10=165|8=FIX.4.4|9=58|35=0|34=120|49=T1Kauaiblk1|52=20210209-11:36:48.340|56=MA|10=161|8=FIX.4.4|9=58|35=0|34=121|49=T1Kauaiblk1|52=20210209-11:38:18.340|56=MA|10=161|8=FIX.4.4|9=58|35=0|34=122|49=T1Kauaiblk1|52=20210209-11:39:48.343|56=MA|10=169|8=FIX.4.4|9=58|35=0|34=123|49=T1Kauaiblk1|52=20210209-11:41:19.341|56=MA|10=159|8=FIX.4.4|9=58|35=0|34=124|49=T1Kauaiblk1|52=20210209-11:42:49.342|56=MA|10=165|8=FIX.4.4|9=58|35=0|34=125|49=T1Kauaiblk1|52=20210209-11:44:19.343|56=MA|10=166|8=FIX.4.4|9=58|35=0|34=126|49=T1Kauaiblk1|52=20210209-11:45:49.343|56=MA|10=171|8=FIX.4.4|9=58|35=0|34=127|49=T1Kauaiblk1|52=20210209-11:47:19.344|56=MA|10=172|8=FIX.4.4|9=58|35=0|34=128|49=T1Kauaiblk1|52=20210209-11:48:50.343|56=MA|10=168|8=FIX.4.4|9=58|35=0|34=129|49=T1Kauaiblk1|52=20210209-11:50:21.344|56=MA|10=161|8=FIX.4.4|9=58|35=0|34=130|49=T1Kauaiblk1|52=20210209-11:51:52.344|56=MA|10=158|8=FIX.4.4|9=58|35=0|34=131|49=T1Kauaiblk1|52=20210209-11:53:22.345|56=MA|10=159|8=FIX.4.4|9=58|35=0|34=132|49=T1Kauaiblk1|52=20210209-11:54:53.343|56=MA|10=163|8=FIX.4.4|9=58|35=0|34=133|49=T1Kauaiblk1|52=20210209-11:56:23.345|56=MA|10=165|8=FIX.4.4|9=58|35=0|34=134|49=T1Kauaiblk1|52=20210209-11:57:54.345|56=MA|10=171|8=FIX.4.4|9=58|35=5|34=135|49=T1Kauaiblk1|52=20210209-11:58:32.755|56=MA|10=179|8=FIX.4.4|9=91|35=A|34=1|49=T1Kauaiblk1|52=20210209-12:05:23.344|56=MA|98=0|108=90|95=8|96=3.0.0rc5|141=Y|10=029|8=FIX.4.4|9=718|35=E|34=2|49=T1Kauaiblk1|52=20210209-12:05:33.468|56=MA|66=ListID-S090221-1228|394=2|68=5|73=5|11=ClOrdID-1229|22=4|38=1000000|44=100.261|48=US06051GEN51|54=2|55=[N/A/]|63=3|67=1|423=1|29726=100.262|453=1|448=T1Kauaiblk1|447=C|452=11|11=ClOrdID-1230|22=4|38=2000000|44=101|48=US40434AAB52|54=2|55=[N/A]|63=3|67=2|29726=101.25|11=ClOrdID-1231|22=4|38=1300000|44=102.251|48=US95709TAH32|54=2|55=[N/A/]|63=3|67=1|29726=102.25|453=1|448=T1Kauaiblk1|447=C|452=11|11=ClOrdID-1232|22=4|38=250000|44=103.1|48=US427866AZ15|54=2|55=[N/A/]|63=3|67=1|29726=103.25|453=1|448=T1Kauaiblk1|447=C|452=11|11=ClOrdID-1233|22=4|38=350000|44=104.231|48=US29379VAW37|54=2|55=[N/A/]|63=3|67=1|29726=104.25|453=1|448=T1Kauaiblk1|447=C|452=11|10=044|8=FIX.4.4|9=56|35=0|34=3|49=T1Kauaiblk1|52=20210209-12:07:04.345|56=MA|10=059|8=FIX.4.4|9=56|35=0|34=4|49=T1Kauaiblk1|52=20210209-12:08:34.345|56=MA|10=064|8=FIX.4.4|9=56|35=0|34=5|49=T1Kauaiblk1|52=20210209-12:10:04.345|56=MA|10=055|8=FIX.4.4|9=56|35=0|34=6|49=T1Kauaiblk1|52=20210209-12:11:34.347|56=MA|10=062|8=FIX.4.4|9=56|35=0|34=7|49=T1Kauaiblk1|52=20210209-12:13:05.346|56=MA|10=062|8=FIX.4.4|9=56|35=0|34=8|49=T1Kauaiblk1|52=20210209-12:14:35.346|56=MA|10=067|8=FIX.4.4|9=56|35=0|34=9|49=T1Kauaiblk1|52=20210209-12:16:06.346|56=MA|10=068|8=FIX.4.4|9=57|35=0|34=10|49=T1Kauaiblk1|52=20210209-12:17:36.346|56=MA|10=113|8=FIX.4.4|9=57|35=0|34=11|49=T1Kauaiblk1|52=20210209-12:19:06.346|56=MA|10=113|8=FIX.4.4|9=57|35=0|34=12|49=T1Kauaiblk1|52=20210209-12:20:36.347|56=MA|10=110|8=FIX.4.4|9=57|35=0|34=13|49=T1Kauaiblk1|52=20210209-12:22:06.347|56=MA|10=110|8=FIX.4.4|9=57|35=0|34=14|49=T1Kauaiblk1|52=20210209-12:23:36.348|56=MA|10=116|8=FIX.4.4|9=57|35=0|34=15|49=T1Kauaiblk1|52=20210209-12:25:07.347|56=MA|10=116|8=FIX.4.4|9=57|35=0|34=16|49=T1Kauaiblk1|52=20210209-12:26:37.347|56=MA|10=121|8=FIX.4.4|9=57|35=0|34=17|49=T1Kauaiblk1|52=20210209-12:28:07.347|56=MA|10=121|8=FIX.4.4|9=57|35=0|34=18|49=T1Kauaiblk1|52=20210209-12:29:37.349|56=MA|10=128|8=FIX.4.4|9=57|35=0|34=19|49=T1Kauaiblk1|52=20210209-12:31:08.347|56=MA|10=118|8=FIX.4.4|9=57|35=0|34=20|49=T1Kauaiblk1|52=20210209-12:32:38.348|56=MA|10=115|8=FIX.4.4|9=57|35=0|34=21|49=T1Kauaiblk1|52=20210209-12:34:09.347|56=MA|10=115|8=FIX.4.4|9=57|35=0|34=22|49=T1Kauaiblk1|52=20210209-12:35:39.348|56=MA|10=121|8=FIX.4.4|9=57|35=0|34=23|49=T1Kauaiblk1|52=20210209-12:37:09.348|56=MA|10=121|8=FIX.4.4|9=57|35=0|34=24|49=T1Kauaiblk1|52=20210209-12:38:39.348|56=MA|10=126|8=FIX.4.4|9=57|35=0|34=25|49=T1Kauaiblk1|52=20210209-12:40:09.348|56=MA|10=117|8=FIX.4.4|9=57|35=0|34=26|49=T1Kauaiblk1|52=20210209-12:41:39.350|56=MA|10=115|8=FIX.4.4|9=57|35=0|34=27|49=T1Kauaiblk1|52=20210209-12:43:09.350|56=MA|10=115|8=FIX.4.4|9=57|35=0|34=28|49=T1Kauaiblk1|52=20210209-12:44:40.349|56=MA|10=120|8=FIX.4.4|9=57|35=0|34=29|49=T1Kauaiblk1|52=20210209-12:46:10.349|56=MA|10=120|8=FIX.4.4|9=57|35=0|34=30|49=T1Kauaiblk1|52=20210209-12:47:40.349|56=MA|10=116|8=FIX.4.4|9=57|35=0|34=31|49=T1Kauaiblk1|52=20210209-12:49:11.350|56=MA|10=109|8=FIX.4.4|9=57|35=0|34=32|49=T1Kauaiblk1|52=20210209-12:50:42.349|56=MA|10=114|8=FIX.4.4|9=57|35=0|34=33|49=T1Kauaiblk1|52=20210209-12:52:12.349|56=MA|10=114|8=FIX.4.4|9=57|35=0|34=34|49=T1Kauaiblk1|52=20210209-12:53:42.349|56=MA|10=119|8=FIX.4.4|9=57|35=0|34=35|49=T1Kauaiblk1|52=20210209-12:55:12.349|56=MA|10=119|8=FIX.4.4|9=57|35=0|34=36|49=T1Kauaiblk1|52=20210209-12:56:42.349|56=MA|10=124|8=FIX.4.4|9=57|35=0|34=37|49=T1Kauaiblk1|52=20210209-12:58:12.350|56=MA|10=116|8=FIX.4.4|9=57|35=0|34=38|49=T1Kauaiblk1|52=20210209-12:59:42.350|56=MA|10=121|8=FIX.4.4|9=57|35=0|34=39|49=T1Kauaiblk1|52=20210209-13:01:12.350|56=MA|10=107|8=FIX.4.4|9=57|35=0|34=40|49=T1Kauaiblk1|52=20210209-13:02:42.351|56=MA|10=104|8=FIX.4.4|9=57|35=0|34=41|49=T1Kauaiblk1|52=20210209-13:04:13.350|56=MA|10=104|8=FIX.4.4|9=57|35=0|34=42|49=T1Kauaiblk1|52=20210209-13:05:43.351|56=MA|10=110|8=FIX.4.4|9=57|35=0|34=43|49=T1Kauaiblk1|52=20210209-13:07:13.351|56=MA|10=110|8=FIX.4.4|9=57|35=0|34=44|49=T1Kauaiblk1|52=20210209-13:08:44.350|56=MA|10=115|8=FIX.4.4|9=57|35=0|34=45|49=T1Kauaiblk1|52=20210209-13:10:14.350|56=MA|10=106|8=FIX.4.4|9=57|35=0|34=46|49=T1Kauaiblk1|52=20210209-13:11:44.350|56=MA|10=111|8=FIX.4.4|9=57|35=0|34=47|49=T1Kauaiblk1|52=20210209-13:13:14.350|56=MA|10=111|8=FIX.4.4|9=57|35=0|34=48|49=T1Kauaiblk1|52=20210209-13:14:44.351|56=MA|10=117|8=FIX.4.4|9=57|35=0|34=49|49=T1Kauaiblk1|52=20210209-13:16:15.350|56=MA|10=117|8=FIX.4.4|9=57|35=0|34=50|49=T1Kauaiblk1|52=20210209-13:17:45.350|56=MA|10=113|8=FIX.4.4|9=57|35=0|34=51|49=T1Kauaiblk1|52=20210209-13:19:15.351|56=