8=FIX.4.4|9=96|35=A|34=1|49=APAQA3Version4|52=20180328-09:47:06.243|56=TRAX|98=0|108=30|95=8|96=2.0.0rc4|141=Y|10=181|8=FIX.4.4|9=96|35=A|34=1|49=APAQA3Version4|52=20180328-09:47:15.226|56=TRAX|98=0|108=30|95=8|96=2.0.0rc4|141=Y|10=182|8=FIX.4.4|9=96|35=A|34=1|49=APAQA3Version4|52=20180328-09:47:49.223|56=TRAX|98=0|108=30|95=8|96=2.0.0rc4|141=Y|10=186|8=FIX.4.4|9=96|35=A|34=1|49=APAQA3Version4|52=20180328-09:48:36.182|56=TRAX|98=0|108=30|95=8|96=2.0.0rc4|141=Y|10=187|8=FIX.4.4|9=96|35=A|34=1|49=APAQA3Version4|52=20180328-09:49:58.178|56=TRAX|98=0|108=30|95=8|96=2.0.0rc4|141=Y|10=197|8=FIX.4.4|9=96|35=A|34=1|49=APAQA3Version4|52=20180328-09:51:00.211|56=TRAX|98=0|108=30|95=8|96=2.0.0rc4|141=Y|10=165|8=FIX.4.4|9=96|35=A|34=1|49=APAQA3Version4|52=20180328-09:51:10.177|56=TRAX|98=0|108=30|95=8|96=2.0.0rc4|141=Y|10=177|8=FIX.4.4|9=96|35=A|34=1|49=APAQA3Version4|52=20180328-09:52:34.179|56=TRAX|98=0|108=30|95=8|96=2.0.0rc4|141=Y|10=186|8=FIX.4.4|9=96|35=A|34=1|49=APAQA3Version4|52=20180328-09:58:03.147|56=TRAX|98=0|108=30|95=8|96=2.0.0rc4|141=Y|10=183|8=FIX.4.4|9=96|35=A|34=1|49=APAQA3Version4|52=20180328-09:58:08.182|56=TRAX|98=0|108=30|95=8|96=2.0.0rc4|141=Y|10=187|8=FIX.4.4|9=96|35=A|34=1|49=APAQA3Version4|52=20180328-10:05:48.186|56=TRAX|98=0|108=30|95=8|96=2.0.0rc4|141=Y|10=179|8=FIX.4.4|9=96|35=A|34=1|49=APAQA3Version4|52=20180328-12:51:13.193|56=TRAX|98=0|108=30|95=8|96=2.0.0rc4|141=Y|10=172|8=FIX.4.4|9=96|35=A|34=1|49=APAQA3Version4|52=20180329-15:57:28.954|56=TRAX|98=0|108=30|95=8|96=2.0.0rc4|141=Y|10=193|8=FIX.4.4|9=96|35=A|34=1|49=APAQA3Version4|52=20180403-09:46:16.803|56=TRAX|98=0|108=30|95=8|96=2.0.0rc4|141=Y|10=177|8=FIX.4.4|9=96|35=A|34=1|49=APAQA3Version4|52=20180417-15:53:41.264|56=TRAX|98=0|108=30|95=8|96=2.0.0rc4|141=Y|10=176|8=FIX.4.4|9=96|35=A|34=1|49=APAQA3Version4|52=20180502-08:25:53.975|56=TRAX|98=0|108=30|95=8|96=2.0.0rc4|141=Y|10=184|8=FIX.4.4|9=96|35=A|34=1|49=APAQA3Version4|52=20180502-08:26:02.974|56=TRAX|98=0|108=30|95=8|96=2.0.0rc4|141=Y|10=178|8=FIX.4.4|9=96|35=A|34=1|49=APAQA3Version4|52=20180813-14:14:39.323|56=TRAX|98=0|108=30|95=8|96=3.0.0rc3|141=Y|10=175|8=FIX.4.4|9=96|35=A|34=1|49=APAQA3Version4|52=20180813-14:14:52.278|56=TRAX|98=0|108=30|95=8|96=3.0.0rc3|141=Y|10=179|8=FIX.4.4|9=96|35=A|34=1|49=APAQA3Version4|52=20180813-14:16:02.268|56=TRAX|98=0|108=30|95=8|96=3.0.0rc3|141=Y|10=175|8=FIX.4.4|9=96|35=A|34=1|49=APAQA3Version4|52=20180813-14:16:27.267|56=TRAX|98=0|108=30|95=8|96=3.0.0rc3|141=Y|10=181|8=FIX.4.4|9=96|35=A|34=1|49=APAQA3Version4|52=20180813-14:16:46.480|56=TRAX|98=0|108=30|95=8|96=3.0.0rc3|141=Y|10=179|8=FIX.4.4|9=96|35=A|34=1|49=APAQA3Version4|52=20180813-14:16:55.477|56=TRAX|98=0|108=30|95=8|96=3.0.0rc3|141=Y|10=185|8=FIX.4.4|9=96|35=A|34=1|49=APAQA3Version4|52=20180912-11:17:36.669|56=TRAX|98=0|108=30|95=8|96=3.0.0rc3|141=Y|10=185|8=FIX.4.4|9=96|35=A|34=1|49=APAQA3Version4|52=20180912-11:17:48.669|56=TRAX|98=0|108=30|95=8|96=3.0.0rc3|141=Y|10=188|8=FIX.4.4|9=96|35=A|34=1|49=APAQA3Version4|52=20180912-11:40:48.661|56=TRAX|98=0|108=30|95=8|96=3.0.0rc3|141=Y|10=176|