8=FIX.4.2|9=96|35=A|34=1|49=EWS_TEST|52=20191113-14:06:34.081|56=MA_FIX_GTW|98=0|108=90|95=8|96=3.0.0rc5|141=Y|10=112|8=FIX.4.2|9=90|35=A|34=2|49=EWS_TEST|52=20191119-16:50:06.616|56=MA_FIX_GTW|98=0|108=90|95=8|96=3.0.0rc5|10=072|