8=FIX.4.4|9=92|35=A|34=1|49=QA3APA_4.4|52=20180328-10:10:09.982|56=TRAX|98=0|108=30|95=8|96=2.0.0rc4|141=Y|10=135|8=FIX.4.4|9=57|35=0|34=2|49=QA3APA_4.4|52=20180328-10:10:40.947|56=TRAX|10=166|8=FIX.4.4|9=57|35=0|34=3|49=QA3APA_4.4|52=20180328-10:11:11.384|56=TRAX|10=161|8=FIX.4.4|9=57|35=0|34=4|49=QA3APA_4.4|52=20180328-10:11:41.942|56=TRAX|10=165|8=FIX.4.4|9=352|35=AE|34=5|49=QA3APA_4.4|50=APA|52=20180328-10:11:42.991|56=TRAX|57=APA|1128=9|571=10|1041=PPB1883_test_1AS1|487=0|939=0|325=Y|423=1|48=EQTSHARE0021|22=4|854=0|32=100|31=100|15=GBP|60=20180122-10:54:00.000|779=20170307-07:35:36.155|552=1|54=1|1057=Y|29=1|30=SINT|1116=2|1117=05B6OC1W7N8NJQRIYS63|1118=N|1119=116|1117=05B6OC1W7N8NJQRIYS63|1118=N|1119=1|10=003|8=FIX.4.4|9=347|35=AE|34=6|49=QA3APA_4.4|50=APA|52=20180328-10:11:50.223|56=TRAX|57=APA|1128=9|571=10|1041=PPB1883_test_1AS1|487=0|939=0|325=Y|423=1|48=EQTSHARE0021|22=4|854=0|32=100|31=100|15=GBP|60=20180122-10:54:00.000|779=20170307-07:35:36.155|552=1|54=1|1057=Y|30=SINT|1116=2|1117=05B6OC1W7N8NJQRIYS63|1118=N|1119=116|1117=05B6OC1W7N8NJQRIYS63|1118=N|1119=1|10=033|8=FIX.4.4|9=57|35=0|34=7|49=QA3APA_4.4|52=20180328-10:12:20.941|56=TRAX|10=165|8=FIX.4.4|9=57|35=0|34=8|49=QA3APA_4.4|52=20180328-10:12:50.983|56=TRAX|10=175|8=FIX.4.4|9=346|35=AE|34=9|49=QA3APA_4.4|50=APA|52=20180328-10:13:00.846|56=TRAX|57=APA|1128=9|571=10|1041=PPB1883_test_1A3|487=0|939=0|325=Y|423=1|48=EQTSHARE0021|22=4|854=0|32=100|31=100|15=GBP|60=20180122-10:54:00.000|779=20170307-07:35:36.155|552=1|54=1|1057=Y|30=SINT|1116=2|1117=05B6OC1W7N8NJQRIYS63|1118=N|1119=116|1117=05B6OC1W7N8NJQRIYS63|1118=N|1119=1|10=218|8=FIX.4.4|9=58|35=0|34=10|49=QA3APA_4.4|52=20180328-10:13:30.982|56=TRAX|10=215|8=FIX.4.4|9=352|35=AE|34=11|49=QA3APA_4.4|50=APA|52=20180328-10:13:42.774|56=TRAX|57=APA|1128=9|571=10|1041=PPB1883_test_1A3|487=0|939=0|325=Y|423=1|48=EQTSHARE0021|22=4|854=0|32=100|31=100|15=GBP|60=20180122-10:54:00.000|779=20170307-07:35:36.155|552=1|54=1|1057=Y|29=1|30=SINT|1116=2|1117=05B6OC1W7N8NJQRIYS63|1118=N|1119=116|1117=05B6OC1W7N8NJQRIYS63|1118=N|1119=1|10=224|8=FIX.4.4|9=347|35=AE|34=12|49=QA3APA_4.4|50=APA|52=20180328-10:13:51.035|56=TRAX|57=APA|1128=9|571=10|1041=PPB1883_test_1A3|487=0|939=0|325=Y|423=1|48=EQTSHARE0021|22=4|854=0|32=100|31=100|15=GBP|60=20180122-10:54:00.000|779=20170307-07:35:36.155|552=1|54=1|1057=Y|30=SINT|1116=2|1117=05B6OC1W7N8NJQRIYS63|1118=N|1119=116|1117=05B6OC1W7N8NJQRIYS63|1118=N|1119=1|10=001|8=FIX.4.4|9=58|35=0|34=13|49=QA3APA_4.4|52=20180328-10:14:21.975|56=TRAX|10=221|8=FIX.4.4|9=58|35=0|34=14|49=QA3APA_4.4|52=20180328-10:14:52.984|56=TRAX|10=226|8=FIX.4.4|9=347|35=AE|34=15|49=QA3APA_4.4|50=APA|52=20180328-10:14:53.456|56=TRAX|57=APA|1128=9|571=10|1041=PPB1883_test_1A3|487=0|939=0|325=Y|423=1|48=EQTSHARE0021|22=4|854=0|32=100|31=100|15=GBP|60=20180122-10:54:00.000|779=20170307-07:35:36.155|552=1|54=1|1057=Y|30=SINT|1116=2|1117=05B6OC1W7N8NJQRIYS63|1118=N|1119=116|1117=05B6OC1W7N8NJQRIYS63|1118=N|1119=1|10=014|8=FIX.4.4|9=58|35=0|34=16|49=QA3APA_4.4|52=20180328-10:15:23.980|56=TRAX|10=223|8=FIX.4.4|9=58|35=0|34=17|49=QA3APA_4.4|52=20180328-10:15:54.980|56=TRAX|10=228|8=FIX.4.4|9=58|35=0|34=18|49=QA3APA_4.4|52=20180328-10:16:24.987|56=TRAX|10=234|8=FIX.4.4|9=76|35=5|34=19|49=QA3APA_4.4|52=20180328-10:16:55.987|56=TRAX|58=user requested|10=080|8=FIX.4.4|9=92|35=A|34=1|49=QA3APA_4.4|52=20180328-10:17:09.415|56=TRAX|98=0|108=30|95=8|96=2.0.0rc4|141=Y|10=133|8=FIX.4.4|9=57|35=0|34=2|49=QA3APA_4.4|52=20180328-10:17:40.026|56=TRAX|10=161|8=FIX.4.4|9=346|35=AE|34=3|49=QA3APA_4.4|50=APA|52=20180328-10:17:41.289|56=TRAX|57=APA|1128=9|571=10|1041=PPB1883_test_1A3|487=0|939=0|325=Y|423=1|48=EQTSHARE0021|22=4|854=0|32=100|31=100|15=GBP|60=20180122-10:54:00.000|779=20170307-07:35:36.155|552=1|54=1|1057=Y|30=SINT|1116=2|1117=05B6OC1W7N8NJQRIYS63|1118=N|1119=116|1117=05B6OC1W7N8NJQRIYS63|1118=N|1119=1|10=222|8=FIX.4.4|9=57|35=0|34=4|49=QA3APA_4.4|52=20180328-10:18:11.375|56=TRAX|10=169|8=FIX.4.4|9=344|35=AE|34=5|49=QA3APA_4.4|50=APA|52=20180328-10:18:31.658|56=TRAX|57=APA|1128=9|571=10|1041=PPB1883_test_1|487=0|939=0|325=Y|423=1|48=EQTSHARE0021|22=4|854=0|32=100|31=100|15=GBP|60=20180122-10:54:00.000|779=20170307-07:35:36.155|552=1|54=1|1057=Y|30=SINT|1116=2|1117=05B6OC1W7N8NJQRIYS63|1118=N|1119=116|1117=05B6OC1W7N8NJQRIYS63|1118=N|1119=1|10=106|8=FIX.4.4|9=179|35=AE|34=6|49=QA3APA_4.4|50=APA|52=20180328-10:18:40.147|56=TRAX|57=APA|1128=9|571=10|1041=PPB1883_test_1|487=0|939=0|325=Y|423=1|1116=2|1117=05B6OC1W7N8NJQRIYS63|1118=N|1119=116|10=242|8=FIX.4.4|9=179|35=AE|34=7|49=QA3APA_4.4|50=APA|52=20180328-10:19:04.831|56=TRAX|57=APA|1128=9|571=10|1041=PPB1883_test_1|487=0|939=0|325=Y|423=1|1116=2|1117=05B6OC1W7N8NJQRIYS63|1118=N|1119=116|10=244|8=FIX.4.4|9=66|35=0|34=8|49=QA3APA_4.4|52=20180328-10:19:16.973|56=TRAX|112=TEST|10=201|8=FIX.4.4|9=57|35=0|34=9|49=QA3APA_4.4|52=20180328-10:19:46.978|56=TRAX|10=192|8=FIX.4.4|9=58|35=0|34=10|49=QA3APA_4.4|52=20180328-10:20:17.370|56=TRAX|10=209|8=FIX.4.4|9=58|35=0|34=11|49=QA3APA_4.4|52=20180328-10:20:47.387|56=TRAX|10=221|8=FIX.4.4|9=58|35=0|34=12|49=QA3APA_4.4|52=20180328-10:21:18.373|56=TRAX|10=216|8=FIX.4.4|9=58|35=0|34=13|49=QA3APA_4.4|52=20180328-10:21:49.385|56=TRAX|10=224|8=FIX.4.4|9=58|35=0|34=14|49=QA3APA_4.4|52=20180328-10:22:19.385|56=TRAX|10=223|8=FIX.4.4|9=58|35=0|34=15|49=QA3APA_4.4|52=20180328-10:22:50.374|56=TRAX|10=217|8=FIX.4.4|9=76|35=5|34=16|49=QA3APA_4.4|52=20180328-10:23:09.385|56=TRAX|58=user requested|10=066|8=FIX.4.4|9=92|35=A|34=1|49=QA3APA_4.4|52=20180328-10:23:24.304|56=TRAX|98=0|108=30|95=8|96=2.0.0rc4|141=Y|10=124|8=FIX.4.4|9=179|35=AE|34=2|49=QA3APA_4.4|50=APA|52=20180328-10:23:29.809|56=TRAX|57=APA|1128=9|571=10|1041=PPB1883_test_1|487=0|939=0|325=Y|423=1|1116=2|1117=05B6OC1W7N8NJQRIYS63|1118=N|1119=116|10=246|8=FIX.4.4|9=349|35=AE|34=3|49=QA3APA_4.4|50=APA|52=20180328-10:23:39.724|56=TRAX|57=APA|1128=9|571=10|1041=PPB1883_test_1|487=0|939=0|325=Y|423=1|48=EQTSHARE0021|22=4|854=0|32=100|31=100|15=GBP|60=20180122-10:54:00.000|779=20170307-07:35:36.155|552=1|54=1|1057=Y|29=1|30=SINT|1116=2|1117=05B6OC1W7N8NJQRIYS63|1118=N|1119=116|1117=05B6OC1W7N8NJQRIYS63|1118=N|1119=1|10=069|8=FIX.4.4|9=344|35=AE|34=4|49=QA3APA_4.4|50=APA|52=20180328-10:23:51.111|56=TRAX|57=APA|1128=9|571=10|1041=PPB1883_test_1|487=0|939=0|325=Y|423=1|48=EQTSHARE0021|22=4|854=0|32=100|31=100|15=GBP|60=20180122-10:54:00.000|779=20170307-07:35:36.155|552=1|54=1|1057=Y|30=SINT|1116=2|1117=05B6OC1W7N8NJQRIYS63|1118=N|1119=116|1117=05B6OC1W7N8NJQRIYS63|1118=N|1119=1|10=087|8=FIX.4.4|9=57|35=0|34=5|49=QA3APA_4.4|52=20180328-10:24:21.285|56=TRAX|10=168|8=FIX.4.4|9=349|35=AE|34=6|49=QA3APA_4.4|50=APA|52=20180328-10:24:22.272|56=TRAX|57=APA|1128=9|571=10|1041=PPB1883_test_1|487=0|939=0|325=Y|423=1|48=EQTSHARE0021|22=4|854=0|32=100|31=100|15=GBP|60=20180122-10:54:00.000|779=20170307-07:35:36.155|552=1|54=1|1057=Y|29=1|30=SINT|1116=2|1117=05B6OC1W7N8NJQRIYS63|1118=N|1119=116|1117=05B6OC1W7N8NJQRIYS63|1118=N|1119=1|10=063|8=FIX.4.4|9=349|35=AE|34=7|49=QA3APA_4.4|50=APA|52=20180328-10:24:46.431|56=TRAX|57=APA|1128=9|571=10|1041=PPB1883_test_1|487=0|939=0|325=Y|423=1|48=EQTSHARE0021|22=4|854=0|32=100|31=100|29=1|15=GBP|60=20180122-10:54:00.000|779=20170307-07:35:36.155|552=1|54=1|1057=Y|30=SINT|1116=2|1117=05B6OC1W7N8NJQRIYS63|1118=N|1119=116|1117=05B6OC1W7N8NJQRIYS63|1118=N|1119=1|10=067|8=FIX.4.4|9=349|35=AE|34=8|49=QA3APA_4.4|50=APA|52=20180328-10:24:56.783|56=TRAX|57=APA|1128=9|571=10|1041=PPB1883_test_1|487=0|939=0|325=Y|423=1|48=EQTSHARE0021|22=4|29=1|854=0|32=100|31=100|15=GBP|60=20180122-10:54:00.000|779=20170307-07:35:36.155|552=1|54=1|1057=Y|30=SINT|1116=2|1117=05B6OC1W7N8NJQRIYS63|1118=N|1119=116|1117=05B6OC1W7N8NJQRIYS63|1118=N|1119=1|10=079|8=FIX.4.4|9=66|35=0|34=9|49=QA3APA_4.4|52=20180328-10:25:06.381|56=TRAX|112=TEST|10=191|8=FIX.4.4|9=350|35=AE|34=10|49=QA3APA_4.4|50=APA|52=20180328-10:25:11.921|56=TRAX|57=APA|1128=9|571=10|1041=PPB1883_test_1|29=1|487=0|939=0|325=Y|423=1|48=EQTSHARE0021|22=4|854=0|32=100|31=100|15=GBP|60=20180122-10:54:00.000|779=20170307-07:35:36.155|552=1|54=1|1057=Y|30=SINT|1116=2|1117=05B6OC1W7N8NJQRIYS63|1118=N|1119=116|1117=05B6OC1W7N8NJQRIYS63|1118=N|1119=1|10=098|8=FIX.4.4|9=58|35=0|34=11|49=QA3APA_4.4|52=20180328-10:25:42.271|56=TRAX|10=213|8=FIX.4.4|9=58|35=0|34=12|49=QA3APA_4.4|52=20180328-10:26:12.387|56=TRAX|10=220|8=FIX.4.4|9=58|35=0|34=13|49=QA3APA_4.4|52=20180328-10:26:43.274|56=TRAX|10=220|8=FIX.4.4|9=58|35=0|34=14|49=QA3APA_4.4|52=20180328-10:27:14.280|56=TRAX|10=217|8=FIX.4.4|9=58|35=0|34=15|49=QA3APA_4.4|52=20180328-10:27:45.285|56=TRAX|10=227|8=FIX.4.4|9=58|35=0|34=16|49=QA3APA_4.4|52=20180328-10:28:16.278|56=TRAX|10=229|8=FIX.4.4|9=58|35=0|34=17|49=QA3APA_4.4|52=20180328-10:28:46.286|56=TRAX|10=232|8=FIX.4.4|9=58|35=0|34=18|49=QA3APA_4.4|52=20180328-10:29:17.269|56=TRAX|10=233|8=FIX.4.4|9=58|35=0|34=19|49=QA3APA_4.4|52=20180328-10:29:48.266|56=TRAX|10=235|8=FIX.4.4|9=345|35=AE|34=20|49=QA3APA_4.4|50=APA|52=20180328-10:30:01.862|56=TRAX|57=APA|1128=9|571=10|1041=PPB1883_test_1|487=0|939=0|325=Y|423=1|48=EQTSHARE0021|22=4|854=0|32=100|31=100|15=GBP|60=20180122-10:54:00.000|779=20170307-07:35:36.155|552=1|54=1|1057=Y|30=SINT|1116=2|1117=05B6OC1W7N8NJQRIYS63|1118=N|1119=116|1117=05B6OC1W7N8NJQRIYS63|1118=N|1119=1|10=140|8=FIX.4.4|9=58|35=0|34=21|49=QA3APA_4.4|52=20180328-10:30:32.268|56=TRAX|10=215|8=FIX.4.4|9=58|35=0|34=22|49=QA3APA_4.4|52=20180328-10:31:03.268|56=TRAX|10=215|8=FIX.4.4|9=58|35=0|34=23|49=QA3APA_4.4|52=20180328-10:31:34.267|56=TRAX|10=219|8=FIX.4.4|9=58|35=0|34=24|49=QA3APA_4.4|52=20180328-10:32:04.269|56=TRAX|10=220|8=FIX.4.4|9=350|35=AE|34=25|49=QA3APA_4.4|50=APA|52=20180328-10:32:28.222|56=TRAX|57=APA|1128=9|571=10|1041=PPB1883_test_1|487=0|939=0|325=Y|423=1|48=EQTSHARE0021|22=4|854=0|32=100|31=100|15=GBP|60=20180122-10:54:00.000|779=20170307-07:35:36.155|552=1|54=1|1057=Y|29=1|30=SINT|1116=2|1117=05B6OC1W7N8NJQRIYS63|1118=N|1119=116|1117=05B6OC1W7N8NJQRIYS63|1118=N|1119=1|10=104|8=FIX.4.4|9=345|35=AE|34=26|49=QA3APA_4.4|50=APA|52=20180328-10:32:41.304|56=TRAX|57=APA|1128=9|571=10|1041=PPB1883_test_1|487=0|939=0|325=Y|423=1|48=EQTSHARE0021|22=4|854=0|32=100|31=100|15=GBP|60=20180122-10:54:00.000|779=20170307-07:35:36.155|552=1|54=1|1057=Y|30=SINT|1116=2|1117=05B6OC1W7N8NJQRIYS63|1118=N|1119=116|1117=05B6OC1W7N8NJQRIYS63|1118=N|1119=1|10=143|8=FIX.4.4|9=350|35=AE|34=27|49=QA3APA_4.4|50=APA|52=20180328-10:33:02.709|56=TRAX|57=APA|1128=9|571=10|1041=PPB1883_test_1|487=0|939=0|325=Y|423=1|48=EQTSHARE0021|22=4|854=0|32=100|31=100|15=GBP|60=20180122-10:54:00.000|779=20170307-07:35:36.155|552=1|54=1|1057=Y|29=1|30=SINT|1116=2|1117=05B6OC1W7N8NJQRIYS63|1118=N|1119=116|1117=05B6OC1W7N8NJQRIYS63|1118=N|1119=1|10=109|8=FIX.4.4|9=350|35=AE|34=28|49=QA3APA_4.4|50=APA|52=20180328-10:33:08.932|56=TRAX|57=APA|1128=9|571=10|1041=PPB1883_test_1|487=0|939=0|325=Y|423=1|48=EQTSHARE0021|22=4|854=0|32=100|31=100|15=GBP|60=20180122-10:54:00.000|779=20170307-07:35:36.155|552=1|54=1|1057=Y|29=2|30=SINT|1116=2|1117=05B6OC1W7N8NJQRIYS63|1118=N|1119=116|1117=05B6OC1W7N8NJQRIYS63|1118=N|1119=1|10=115|8=FIX.4.4|9=67|35=0|34=29|49=QA3APA_4.4|52=20180328-10:33:26.378|56=TRAX|112=TEST|10=249|8=FIX.4.4|9=58|35=0|34=30|49=QA3APA_4.4|52=20180328-10:33:56.387|56=TRAX|10=226|8=FIX.4.4|9=58|35=0|34=31|49=QA3APA_4.4|52=20180328-10:34:26.390|56=TRAX|10=219|8=FIX.4.4|9=58|35=0|34=32|49=QA3APA_4.4|52=20180328-10:34:57.269|56=TRAX|10=229|8=FIX.4.4|9=58|35=0|34=33|49=QA3APA_4.4|52=20180328-10:35:28.274|56=TRAX|10=225|8=FIX.4.4|9=58|35=0|34=34|49=QA3APA_4.4|52=20180328-10:35:59.264|56=TRAX|10=229|8=FIX.4.4|9=58|35=0|34=35|49=QA3APA_4.4|52=20180328-10:36:29.272|56=TRAX|10=227|8=FIX.4.4|9=58|35=0|34=36|49=QA3APA_4.4|52=20180328-10:37:00.267|56=TRAX|10=222|8=FIX.4.4|9=58|35=0|34=37|49=QA3APA_4.4|52=20180328-10:37:30.267|56=TRAX|10=226|8=FIX.4.4|9=58|35=0|34=38|49=QA3APA_4.4|52=20180328-10:38:00.269|56=TRAX|10=227|8=FIX.4.4|9=76|35=5|34=39|49=QA3APA_4.4|52=20180328-10:38:28.270|56=TRAX|58=user requested|10=071|8=FIX.4.4|9=92|35=A|34=1|49=QA3APA_4.4|52=20180328-10:38:47.794|56=TRAX|98=0|108=30|95=8|96=2.0.0rc4|141=Y|10=148|8=FIX.4.4|9=57|35=0|34=2|49=QA3APA_4.4|52=20180328-10:39:18.375|56=TRAX|10=177|8=FIX.4.4|9=57|35=0|34=3|49=QA3APA_4.4|52=20180328-10:39:48.381|56=TRAX|10=178|8=FIX.4.4|9=57|35=0|34=4|49=QA3APA_4.4|52=20180328-10:40:18.788|56=TRAX|10=179|8=FIX.4.4|9=57|35=0|34=5|49=QA3APA_4.4|52=20180328-10:40:49.784|56=TRAX|10=180|8=FIX.4.4|9=57|35=0|34=6|49=QA3APA_4.4|52=20180328-10:41:19.787|56=TRAX|10=182|8=FIX.4.4|9=57|35=0|34=7|49=QA3APA_4.4|52=20180328-10:41:50.783|56=TRAX|10=174|8=FIX.4.4|9=57|35=0|34=8|49=QA3APA_4.4|52=20180328-10:42:20.789|56=TRAX|10=179|8=FIX.4.4|9=57|35=0|34=9|49=QA3APA_4.4|52=20180328-10:42:51.785|56=TRAX|10=180|8=FIX.4.4|9=58|35=0|34=10|49=QA3APA_4.4|52=20180328-10:43:21.786|56=TRAX|10=220|8=FIX.4.4|9=58|35=0|34=11|49=QA3APA_4.4|52=20180328-10:43:51.787|56=TRAX|10=225|8=FIX.4.4|9=58|35=0|34=12|49=QA3APA_4.4|52=20180328-10:44:21.790|56=TRAX|10=218|8=FIX.4.4|9=347|35=AE|34=13|49=QA3APA_4.4|50=APA|52=20180328-10:44:38.293|56=TRAX|57=APA|1128=9|571=10|1041=PPB1883_test_1A7|487=0|939=0|325=Y|423=1|48=EQTSHARE0021|22=4|854=0|32=100|31=100|15=GBP|60=20180122-10:54:00.000|779=20170307-07:35:36.155|552=1|54=1|1057=Y|30=SINT|1116=2|1117=05B6OC1W7N8NJQRIYS63|1118=N|1119=116|1117=05B6OC1W7N8NJQRIYS63|1118=N|1119=1|10=021|8=FIX.4.4|9=76|35=5|34=14|49=QA3APA_4.4|52=20180328-10:44:41.788|56=TRAX|58=user requested|10=070|8=FIX.4.4|9=92|35=A|34=1|49=QA3APA_4.4|52=20180328-10:45:09.397|56=TRAX|98=0|108=30|95=8|96=2.0.0rc4|141=Y|10=143|8=FIX.4.4|9=57|35=0|34=2|49=QA3APA_4.4|52=20180328-10:45:39.851|56=TRAX|10=176|8=FIX.4.4|9=346|35=AE|34=3|49=QA3APA_4.4|50=APA|52=20180328-10:45:46.824|56=TRAX|57=APA|1128=9|571=10|1041=PPB1883_test_1A9|487=0|939=0|325=Y|423=1|48=EQTSHARE0021|22=4|854=0|32=100|31=100|15=GBP|60=20180122-10:54:00.000|779=20170307-07:35:36.155|552=1|54=1|1057=Y|30=SINT|1116=2|1117=05B6OC1W7N8NJQRIYS63|1118=N|1119=116|1117=05B6OC1W7N8NJQRIYS63|1118=N|1119=1|10=229|8=FIX.4.4|9=57|35=0|34=4|49=QA3APA_4.4|52=20180328-10:46:17.362|56=TRAX|10=172|8=FIX.4.4|9=57|35=0|34=5|49=QA3APA_4.4|52=20180328-10:46:47.363|56=TRAX|10=177|8=FIX.4.4|9=57|35=0|34=6|49=QA3APA_4.4|52=20180328-10:47:17.379|56=TRAX|10=183|8=FIX.4.4|9=75|35=5|34=7|49=QA3APA_4.4|52=20180328-10:47:31.373|56=TRAX|58=user requested|10=015|8=FIX.4.4|9=92|35=A|34=1|49=QA3APA_4.4|52=20180328-10:47:51.520|56=TRAX|98=0|108=30|95=8|96=2.0.0rc4|141=Y|10=130|8=FIX.4.4|9=346|35=AE|34=2|49=QA3APA_4.4|50=APA|52=20180328-10:47:54.010|56=TRAX|57=APA|1128=9|571=10|1041=PPB1883_test_1A9|487=0|939=0|325=Y|423=1|48=EQTSHARE0021|22=4|854=0|32=100|31=100|15=GBP|60=20180122-10:54:00.000|779=20170307-07:35:36.155|552=1|54=1|1057=Y|30=SINT|1116=2|1117=05B6OC1W7N8NJQRIYS63|1118=N|1119=116|1117=05B6OC1W7N8NJQRIYS63|1118=N|1119=1|10=216|8=FIX.4.4|9=354|35=AE|34=3|49=QA3APA_4.4|50=APA|52=20180328-10:48:10.086|56=TRAX|57=APA|1128=9|571=10|1041=PPB1883_test_1A9|487=0|939=0|325=Y|423=1|48=EQTSHARE0021|22=4|854=0|32=100|31=100|15=GBP|60=20180122-10:54:00.000|779=20170307-07:35:36.155|552=1|54=1|1057=Y|29=DEAL|30=SINT|1116=2|1117=05B6OC1W7N8NJQRIYS63|1118=N|1119=116|1117=05B6OC1W7N8NJQRIYS63|1118=N|1119=1|10=157|8=FIX.4.4|9=351|35=AE|34=4|49=QA3APA_4.4|50=APA|52=20180328-10:48:17.332|56=TRAX|57=APA|1128=9|571=10|1041=PPB1883_test_1A9|487=0|939=0|325=Y|423=1|48=EQTSHARE0021|22=4|854=0|32=100|31=100|15=GBP|60=20180122-10:54:00.000|779=20170307-07:35:36.155|552=1|54=1|1057=Y|29=DEAL|30=1|1116=2|1117=05B6OC1W7N8NJQRIYS63|1118=N|1119=116|1117=05B6OC1W7N8NJQRIYS63|1118=N|1119=1|10=143|8=FIX.4.4|9=348|35=AE|34=5|49=QA3APA_4.4|50=APA|52=20180328-10:48:26.335|56=TRAX|57=APA|1128=9|571=10|1041=PPB1883_test_1A9|487=0|939=0|325=Y|423=1|48=EQTSHARE0021|22=4|854=0|32=100|31=100|15=GBP|60=20180122-10:54:00.000|779=20170307-07:35:36.155|552=1|54=1|1057=Y|29=1|30=1|1116=2|1117=05B6OC1W7N8NJQRIYS63|1118=N|1119=116|1117=05B6OC1W7N8NJQRIYS63|1118=N|1119=1|10=180|8=FIX.4.4|9=343|35=AE|34=6|49=QA3APA_4.4|50=APA|52=20180328-10:48:32.305|56=TRAX|57=APA|1128=9|571=10|1041=PPB1883_test_1A9|487=0|939=0|325=Y|423=1|48=EQTSHARE0021|22=4|854=0|32=100|31=100|15=GBP|60=20180122-10:54:00.000|779=20170307-07:35:36.155|552=1|54=1|1057=Y|30=1|1116=2|1117=05B6OC1W7N8NJQRIYS63|1118=N|1119=116|1117=05B6OC1W7N8NJQRIYS63|1118=N|1119=1|10=208|8=FIX.4.4|9=57|35=0|34=7|49=QA3APA_4.4|52=20180328-10:49:02.516|56=TRAX|10=173|8=FIX.4.4|9=57|35=0|34=8|49=QA3APA_4.4|52=20180328-10:49:32.517|56=TRAX|10=178|8=FIX.4.4|9=372|35=AE|34=9|49=QA3APA_4.4|50=APA|52=20180328-10:49:54.398|56=TRAX|57=APA|1128=9|571=10|1041=PPB1454_22|487=0|939=0|325=Y|423=1|1116=2|1117=05B6OC1W7N8NJQRIYS63|1118=N|1119=116|1117=05B6OC1W7N8NJQRIYS63|1118=N|1119=1|48=EQTSHARE0021|22=4|854=0|32=100|31=100|15=GBP|60=20180122-10:54:00.000|779=20170307-07:35:36.155|22600=100|22601=GBP|1924=1|552=1|54=1|1057=Y|29=1|30=SINT|10=123|8=FIX.4.4|9=373|35=AE|34=10|49=QA3APA_4.4|50=APA|52=20180328-10:50:09.918|56=TRAX|57=APA|1128=9|571=10|1041=PPB1454_22|487=0|939=0|325=Y|423=1|48=EQTSHARE0021|22=4|854=0|32=100|31=100|15=GBP|60=20180122-10:54:00.000|779=20170307-07:35:36.155|22600=100|22601=GBP|1924=1|552=1|54=1|1057=Y|29=1|30=SINT|1116=2|1117=05B6OC1W7N8NJQRIYS63|1118=N|1119=116|1117=05B6OC1W7N8NJQRIYS63|1118=N|1119=1|10=154|8=FIX.4.4|9=368|35=AE|34=11|49=QA3APA_4.4|50=APA|52=20180328-10:50:16.192|56=TRAX|57=APA|1128=9|571=10|1041=PPB1454_22|487=0|939=0|325=Y|423=1|48=EQTSHARE0021|22=4|854=0|32=100|31=100|15=GBP|60=20180122-10:54:00.000|779=20170307-07:35:36.155|22600=100|22601=GBP|1924=1|552=1|54=1|1057=Y|30=SINT|1116=2|1117=05B6OC1W7N8NJQRIYS63|1118=N|1119=116|1117=05B6OC1W7N8NJQRIYS63|1118=N|1119=1|10=189|8=FIX.4.4|9=67|35=0|34=12|49=QA3APA_4.4|52=20180328-10:50:18.036|56=TRAX|112=TEST|10=232|8=FIX.4.4|9=58|35=0|34=13|49=QA3APA_4.4|52=20180328-10:50:48.518|56=TRAX|10=223|8=FIX.4.4|9=58|35=0|34=14|49=QA3APA_4.4|52=20180328-10:51:19.516|56=TRAX|10=221|8=FIX.4.4|9=368|35=AE|34=15|49=QA3APA_4.4|50=APA|52=20180328-10:51:23.954|56=TRAX|57=APA|1128=9|571=10|1041=PPB1454_22|487=0|939=0|325=Y|423=1|48=EQTSHARE0021|22=4|854=0|32=100|31=100|15=GBP|60=20180122-10:54:00.000|779=20170307-07:35:36.155|22600=100|22601=GBP|1924=1|552=1|54=1|1057=Y|30=SINT|1116=2|1117=05B6OC1W7N8NJQRIYS63|1118=N|1119=116|1117=05B6OC1W7N8NJQRIYS63|1118=N|1119=1|10=198|8=FIX.4.4|9=373|35=AE|34=16|49=QA3APA_4.4|50=APA|52=20180328-10:51:53.418|56=TRAX|57=APA|1128=9|571=10|1041=PPB1454_22|487=0|939=0|325=Y|423=1|48=EQTSHARE0021|22=4|854=0|32=100|31=100|15=GBP|60=20180122-10:54:00.000|779=20170307-07:35:36.155|22600=100|22601=GBP|1924=1|552=1|54=1|1057=Y|29=1|30=SINT|1116=2|1117=05B6OC1W7N8NJQRIYS63|1118=N|1119=116|1117=05B6OC1W7N8NJQRIYS63|1118=N|1119=1|10=155|8=FIX.4.4|9=67|35=0|34=17|49=QA3APA_4.4|52=20180328-10:52:04.977|56=TRAX|112=TEST|10=248|8=FIX.4.4|9=58|35=0|34=18|49=QA3APA_4.4|52=20180328-10:52:35.510|56=TRAX|10=218|8=FIX.4.4|9=368|35=AE|34=19|49=QA3APA_4.4|50=APA|52=20180328-10:53:03.606|56=TRAX|57=APA|1128=9|571=10|1041=PPB1454_22|487=0|939=0|325=Y|423=1|48=EQTSHARE0021|22=4|854=0|32=100|31=100|15=GBP|60=20180122-10:54:00.000|779=20170307-07:35:36.155|22600=100|22601=GBP|1924=1|552=1|54=1|1057=Y|30=SINT|1116=2|1117=05B6OC1W7N8NJQRIYS63|1118=N|1119=116|1117=05B6OC1W7N8NJQRIYS63|1118=N|1119=1|10=196|8=FIX.4.4|9=76|35=5|34=20|49=QA3APA_4.4|52=20180328-10:53:10.514|56=TRAX|58=user requested|10=050|8=FIX.4.4|9=92|35=A|34=1|49=QA3APA_4.4|52=20180328-10:53:28.777|56=TRAX|98=0|108=30|95=8|96=2.0.0rc4|141=Y|10=145|8=FIX.4.4|9=57|35=0|34=2|49=QA3APA_4.4|52=20180328-10:53:59.395|56=TRAX|10=180|8=FIX.4.4|9=57|35=0|34=3|49=QA3APA_4.4|52=20180328-10:54:29.722|56=TRAX|10=173|8=FIX.4.4|9=57|35=0|34=4|49=QA3APA_4.4|52=20180328-10:54:59.731|56=TRAX|10=177|8=FIX.4.4|9=57|35=0|34=5|49=QA3APA_4.4|52=20180328-10:55:30.746|56=TRAX|10=174|8=FIX.4.4|9=57|35=0|34=6|49=QA3APA_4.4|52=20180328-10:56:01.748|56=TRAX|10=176|8=FIX.4.4|9=57|35=0|34=7|49=QA3APA_4.4|52=20180328-10:56:31.748|56=TRAX|10=180|8=FIX.4.4|9=57|35=0|34=8|49=QA3APA_4.4|52=20180328-10:57:02.725|56=TRAX|10=175|8=FIX.4.4|9=57|35=0|34=9|49=QA3APA_4.4|52=20180328-10:57:32.725|56=TRAX|10=179|8=FIX.4.4|9=58|35=0|34=10|49=QA3APA_4.4|52=20180328-10:58:02.751|56=TRAX|10=217|8=FIX.4.4|9=58|35=0|34=11|49=QA3APA_4.4|52=20180328-10:58:33.733|56=TRAX|10=222|8=FIX.4.4|9=58|35=0|34=12|49=QA3APA_4.4|52=20180328-10:59:04.751|56=TRAX|10=222|8=FIX.4.4|9=58|35=0|34=13|49=QA3APA_4.4|52=20180328-10:59:35.750|56=TRAX|10=226|8=FIX.4.4|9=58|35=0|34=14|49=QA3APA_4.4|52=20180328-11:00:06.751|56=TRAX|10=213|8=FIX.4.4|9=58|35=0|34=15|49=QA3APA_4.4|52=20180328-11:00:37.749|56=TRAX|10=225|8=FIX.4.4|9=58|35=0|34=16|49=QA3APA_4.4|52=20180328-11:01:07.750|56=TRAX|10=216|8=FIX.4.4|9=58|35=0|34=17|49=QA3APA_4.4|52=20180328-11:01:37.750|56=TRAX|10=220|8=FIX.4.4|9=58|35=0|34=18|49=QA3APA_4.4|52=20180328-11:02:08.751|56=TRAX|10=221|8=FIX.4.4|9=58|35=0|34=19|49=QA3APA_4.4|52=20180328-11:02:38.752|56=TRAX|10=226|8=FIX.4.4|9=58|35=0|34=20|49=QA3APA_4.4|52=20180328-11:03:08.755|56=TRAX|10=219|8=FIX.4.4|9=58|35=0|34=21|49=QA3APA_4.4|52=20180328-11:03:39.746|56=TRAX|10=224|8=FIX.4.4|9=369|35=AE|34=22|49=QA3APA_4.4|50=APA|52=20180328-11:03:50.030|56=TRAX|57=APA|1128=9|571=10|1041=PPB1454_2A2|487=0|939=0|325=Y|423=1|48=EQTSHARE0021|22=4|854=0|32=100|31=100|15=GBP|60=20180122-10:54:00.000|779=20170307-07:35:36.155|22600=100|22601=GBP|1924=1|552=1|54=1|1057=Y|30=SINT|1116=2|1117=05B6OC1W7N8NJQRIYS63|1118=N|1119=116|1117=05B6OC1W7N8NJQRIYS63|1118=N|1119=1|10=245|8=FIX.4.4|9=58|35=0|34=23|49=QA3APA_4.4|52=20180328-11:04:20.391|56=TRAX|10=213|8=FIX.4.4|9=58|35=0|34=24|49=QA3APA_4.4|52=20180328-11:04:50.742|56=TRAX|10=217|8=FIX.4.4|9=58|35=0|34=25|49=QA3APA_4.4|52=20180328-11:05:20.751|56=TRAX|10=216|8=FIX.4.4|9=58|35=0|34=26|49=QA3APA_4.4|52=20180328-11:05:50.754|56=TRAX|10=223|8=FIX.4.4|9=369|35=AE|34=27|49=QA3APA_4.4|50=APA|52=20180328-11:06:14.907|56=TRAX|57=APA|1128=9|571=10|1041=PPB1454_2A2|487=0|939=0|325=Y|423=1|48=EQTSHARE0021|22=4|854=0|32=100|31=100|15=GBP|60=20180122-10:54:00.000|779=20170307-07:35:36.155|22600=100|22601=GBP|1924=1|552=1|54=1|1057=Y|30=SINT|1116=2|1117=05B6OC1W7N8NJQRIYS63|1118=N|1119=116|1117=05B6OC1W7N8NJQRIYS63|1118=N|1119=1|10=010|8=FIX.4.4|9=67|35=0|34=28|49=QA3APA_4.4|52=20180328-11:06:36.375|56=TRAX|112=TEST|10=247|8=FIX.4.4|9=58|35=0|34=29|49=QA3APA_4.4|52=20180328-11:07:06.381|56=TRAX|10=225|8=FIX.4.4|9=58|35=0|34=30|49=QA3APA_4.4|52=20180328-11:07:36.714|56=TRAX|10=220|8=FIX.4.4|9=58|35=0|34=31|49=QA3APA_4.4|52=20180328-11:08:06.736|56=TRAX|10=223|8=FIX.4.4|9=58|35=0|34=32|49=QA3APA_4.4|52=20180328-11:08:36.739|56=TRAX|10=230|8=FIX.4.4|9=58|35=0|34=33|49=QA3APA_4.4|52=20180328-11:09:07.733|56=TRAX|10=224|8=FIX.4.4|9=58|35=0|34=34|49=QA3APA_4.4|52=20180328-11:09:37.737|56=TRAX|10=232|8=FIX.4.4|9=58|35=0|34=35|49=QA3APA_4.4|52=20180328-11:10:07.737|56=TRAX|10=222|8=FIX.4.4|9=58|35=0|34=36|49=QA3APA_4.4|52=20180328-11:10:38.740|56=TRAX|10=221|8=FIX.4.4|9=58|35=0|34=37|49=QA3APA_4.4|52=20180328-11:11:09.733|56=TRAX|10=223|8=FIX.4.4|9=58|35=0|34=38|49=QA3APA_4.4|52=20180328-11:11:39.739|56=TRAX|10=233|8=FIX.4.4|9=58|35=0|34=39|49=QA3APA_4.4|52=20180328-11:12:10.737|56=TRAX|10=222|8=FIX.4.4|9=58|35=0|34=40|49=QA3APA_4.4|52=20180328-11:12:41.739|56=TRAX|10=220|8=FIX.4.4|9=58|35=0|34=41|49=QA3APA_4.4|52=20180328-11:13:11.741|56=TRAX|10=212|8=FIX.4.4|9=58|35=0|34=42|49=QA3APA_4.4|52=20180328-11:13:42.733|56=TRAX|10=218|8=FIX.4.4|9=58|35=0|34=43|49=QA3APA_4.4|52=20180328-11:14:12.739|56=TRAX|10=223|8=FIX.4.4|9=58|35=0|34=44|49=QA3APA_4.4|52=20180328-11:14:42.741|56=TRAX|10=220|8=FIX.4.4|9=58|35=0|34=45|49=QA3APA_4.4|52=20180328-11:15:13.731|56=TRAX|10=219|8=FIX.4.4|9=58|35=0|34=46|49=QA3APA_4.4|52=20180328-11:15:43.733|56=TRAX|10=225|8=FIX.4.4|9=58|35=0|34=47|49=QA3APA_4.4|52=20180328-11:16:13.737|56=TRAX|10=228|8=FIX.4.4|9=58|35=0|34=48|49=QA3APA_4.4|52=20180328-11:16:43.742|56=TRAX|10=228|8=FIX.4.4|9=58|35=0|34=49|49=QA3APA_4.4|52=20180328-11:17:14.740|56=TRAX|10=226|8=FIX.4.4|9=58|35=0|34=50|49=QA3APA_4.4|52=20180328-11:17:45.735|56=TRAX|10=226|8=FIX.4.4|9=58|35=0|34=51|49=QA3APA_4.4|52=20180328-11:18:16.740|56=TRAX|10=222|8=FIX.4.4|9=58|35=0|34=52|49=QA3APA_4.4|52=20180328-11:18:46.754|56=TRAX|10=231|8=FIX.4.4|9=58|35=0|34=53|49=QA3APA_4.4|52=20180328-11:19:16.756|56=TRAX|10=232|8=FIX.4.4|9=58|35=0|34=54|49=QA3APA_4.4|52=20180328-11:19:47.750|56=TRAX|10=231|8=FIX.4.4|9=58|35=0|34=55|49=QA3APA_4.4|52=20180328-11:20:17.752|56=TRAX|10=223|8=FIX.4.4|9=58|35=0|34=56|49=QA3APA_4.4|52=20180328-11:20:48.749|56=TRAX|10=234|8=FIX.4.4|9=58|35=0|34=57|49=QA3APA_4.4|52=20180328-11:21:18.756|56=TRAX|10=231|8=FIX.4.4|9=58|35=0|34=58|49=QA3APA_4.4|52=20180328-11:21:49.748|56=TRAX|10=237|8=FIX.4.4|9=58|35=0|34=59|49=QA3APA_4.4|52=20180328-11:22:19.757|56=TRAX|10=236|8=FIX.4.4|9=58|35=0|34=60|49=QA3APA_4.4|52=20180328-11:22:49.762|56=TRAX|10=227|8=FIX.4.4|9=58|35=0|34=61|49=QA3APA_4.4|52=20180328-11:23:20.755|56=TRAX|10=220|8=FIX.4.4|9=58|35=0|34=62|49=QA3APA_4.4|52=20180328-11:23:50.758|56=TRAX|10=227|8=FIX.4.4|9=58|35=0|34=63|49=QA3APA_4.4|52=20180328-11:24:21.754|56=TRAX|10=223|8=FIX.4.4|9=58|35=0|34=64|49=QA3APA_4.4|52=20180328-11:24:52.737|56=TRAX|10=229|8=FIX.4.4|9=58|35=0|34=65|49=QA3APA_4.4|52=20180328-11:25:22.757|56=TRAX|10=230|8=FIX.4.4|9=58|35=0|34=66|49=QA3APA_4.4|52=20180328-11:25:52.764|56=TRAX|10=232|8=FIX.4.4|9=58|35=0|34=67|49=QA3APA_4.4|52=20180328-11:26:23.757|56=TRAX|10=234|8=FIX.4.4|9=58|35=0|34=68|49=QA3APA_4.4|52=20180328-11:26:54.739|56=TRAX|10=239|8=FIX.4.4|9=58|35=0|34=69|49=QA3APA_4.4|52=20180328-11:27:24.756|56=TRAX|10=237|8=FIX.4.4|9=58|35=0|34=70|49=QA3APA_4.4|52=20180328-11:27:54.759|56=TRAX|10=235|8=FIX.4.4|9=58|35=0|34=71|49=QA3APA_4.4|52=20180328-11:28:25.740|56=TRAX|10=225|8=FIX.4.4|9=58|35=0|34=72|49=QA3APA_4.4|52=20180328-11:28:55.756|56=TRAX|10=236|8=FIX.4.4|9=58|35=0|34=73|49=QA3APA_4.4|52=20180328-11:29:26.767|56=TRAX|10=238|8=FIX.4.4|9=58|35=0|34=74|49=QA3APA_4.4|52=20180328-11:29:57.760|56=TRAX|10=236|8=FIX.4.4|9=58|35=0|34=75|49=QA3APA_4.4|52=20180328-11:30:27.761|56=TRAX|10=227|8=FIX.4.4|9=58|35=0|34=76|49=QA3APA_4.4|52=20180328-11:30:58.763|56=TRAX|10=234|8=FIX.4.4|9=58|35=0|34=77|49=QA3APA_4.4|52=20180328-11:31:29.761|56=TRAX|10=232|8=FIX.4.4|9=58|35=0|34=78|49=QA3APA_4.4|52=20180328-11:31:59.764|56=TRAX|10=239|8=FIX.4.4|9=58|35=0|34=79|49=QA3APA_4.4|52=20180328-11:32:30.763|56=TRAX|10=229|8=FIX.4.4|9=58|35=0|34=80|49=QA3APA_4.4|52=20180328-11:33:01.739|56=TRAX|10=223|8=FIX.4.4|9=58|35=0|34=81|49=QA3APA_4.4|52=20180328-11:33:31.768|56=TRAX|10=229|8=FIX.4.4|9=58|35=0|34=82|49=QA3APA_4.4|52=20180328-11:34:02.765|56=TRAX|10=226|8=FIX.4.4|9=58|35=0|34=83|49=QA3APA_4.4|52=20180328-11:34:32.770|56=TRAX|10=226|8=FIX.4.4|9=58|35=0|34=84|49=QA3APA_4.4|52=20180328-11:35:03.755|56=TRAX|10=229|8=FIX.4.4|9=58|35=0|34=85|49=QA3APA_4.4|52=20180328-11:35:33.766|56=TRAX|10=235|8=FIX.4.4|9=58|35=0|34=86|49=QA3APA_4.4|52=20180328-11:36:03.767|56=TRAX|10=235|8=FIX.4.4|9=58|35=0|34=87|49=QA3APA_4.4|52=20180328-11:36:34.742|56=TRAX|10=233|8=FIX.4.4|9=58|35=0|34=88|49=QA3APA_4.4|52=20180328-11:37:04.762|56=TRAX|10=234|8=FIX.4.4|9=58|35=0|34=89|49=QA3APA_4.4|52=20180328-11:37:34.764|56=TRAX|10=240|8=FIX.4.4|9=58|35=0|34=90|49=QA3APA_4.4|52=20180328-11:38:05.749|56=TRAX|10=234|8=FIX.4.4|9=58|35=0|34=91|49=QA3APA_4.4|52=20180328-11:38:35.752|56=TRAX|10=232|8=FIX.4.4|9=58|35=0|34=92|49=QA3APA_4.4|52=20180328-11:39:06.365|56=TRAX|10=232|8=FIX.4.4|9=58|35=0|34=93|49=QA3APA_4.4|52=20180328-11:39:36.380|56=TRAX|10=233|8=FIX.4.4|9=58|35=0|34=94|49=QA3APA_4.4|52=20180328-11:40:06.380|56=TRAX|10=223|8=FIX.4.4|9=58|35=0|34=95|49=QA3APA_4.4|52=20180328-11:40:36.771|56=TRAX|10=231|8=FIX.4.4|9=58|35=0|34=96|49=QA3APA_4.4|52=20180328-11:41:06.771|56=TRAX|10=230|8=FIX.4.4|9=58|35=0|34=97|49=QA3APA_4.4|52=20180328-11:41:37.770|56=TRAX|10=234|8=FIX.4.4|9=58|35=0|34=98|49=QA3APA_4.4|52=20180328-11:42:08.729|56=TRAX|10=238|8=FIX.4.4|9=58|35=0|34=99|49=QA3APA_4.4|52=20180328-11:42:38.769|56=TRAX|10=246|8=FIX.4.4|9=59|35=0|34=100|49=QA3APA_4.4|52=20180328-11:43:09.770|56=TRAX|10=013|8=FIX.4.4|9=59|35=0|34=101|49=QA3APA_4.4|52=20180328-11:43:40.765|56=TRAX|10=013|8=FIX.4.4|9=59|35=0|34=102|49=QA3APA_4.4|52=20180328-11:44:10.767|56=TRAX|10=014|8=FIX.4.4|9=59|35=0|34=103|49=QA3APA_4.4|52=20180328-11:44:41.729|56=TRAX|10=017|8=FIX.4.4|9=59|35=0|34=104|49=QA3APA_4.4|52=20180328-11:45:11.771|56=TRAX|10=013|8=FIX.4.4|9=59|35=0|34=105|49=QA3APA_4.4|52=20180328-11:45:42.745|56=TRAX|10=019|8=FIX.4.4|9=59|35=0|34=106|49=QA3APA_4.4|52=20180328-11:46:12.773|56=TRAX|10=019|8=FIX.4.4|9=59|35=0|34=107|49=QA3APA_4.4|52=20180328-11:46:43.769|56=TRAX|10=029|8=FIX.4.4|9=59|35=0|34=108|49=QA3APA_4.4|52=20180328-11:47:14.762|56=TRAX|10=022|8=FIX.4.4|9=59|35=0|34=109|49=QA3APA_4.4|52=20180328-11:47:44.766|56=TRAX|10=030|8=FIX.4.4|9=59|35=0|34=110|49=QA3APA_4.4|52=20180328-11:48:15.765|56=TRAX|10=020|8=FIX.4.4|9=59|35=0|34=111|49=QA3APA_4.4|52=20180328-11:48:46.768|56=TRAX|10=028|8=FIX.4.4|9=59|35=0|34=112|49=QA3APA_4.4|52=20180328-11:49:16.770|56=TRAX|10=020|8=FIX.4.4|9=59|35=0|34=113|49=QA3APA_4.4|52=20180328-11:49:47.746|56=TRAX|10=028|8=FIX.4.4|9=59|35=0|34=114|49=QA3APA_4.4|52=20180328-11:50:17.773|56=TRAX|10=018|8=FIX.4.4|9=59|35=0|34=115|49=QA3APA_4.4|52=20180328-11:50:48.771|56=TRAX|10=021|8=FIX.4.4|9=59|35=0|34=116|49=QA3APA_4.4|52=20180328-11:51:18.775|56=TRAX|10=024|8=FIX.4.4|9=59|35=0|34=117|49=QA3APA_4.4|52=20180328-11:51:49.769|56=TRAX|10=032|8=FIX.4.4|9=59|35=0|34=118|49=QA3APA_4.4|52=20180328-11:52:19.772|56=TRAX|10=025|8=FIX.4.4|9=59|35=0|34=119|49=QA3APA_4.4|52=20180328-11:52:50.733|56=TRAX|10=018|8=FIX.4.4|9=59|35=0|34=120|49=QA3APA_4.4|52=20180328-11:53:20.771|56=TRAX|10=010|8=FIX.4.4|9=59|35=0|34=121|49=QA3APA_4.4|52=20180328-11:53:51.740|56=TRAX|10=011|8=FIX.4.4|9=59|35=0|34=122|49=QA3APA_4.4|52=20180328-11:54:21.769|56=TRAX|10=021|8=FIX.4.4|9=59|35=0|34=123|49=QA3APA_4.4|52=20180328-11:54:51.776|56=TRAX|10=023|8=FIX.4.4|9=59|35=0|34=124|49=QA3APA_4.4|52=20180328-11:55:22.763|56=TRAX|10=019|8=FIX.4.4|9=59|35=0|34=125|49=QA3APA_4.4|52=20180328-11:55:53.773|56=TRAX|10=025|8=FIX.4.4|9=59|35=0|34=126|49=QA3APA_4.4|52=20180328-11:56:24.733|56=TRAX|10=021|8=FIX.4.4|9=59|35=0|34=127|49=QA3APA_4.4|52=20180328-11:56:54.749|56=TRAX|10=032|8=FIX.4.4|9=59|35=0|34=128|49=QA3APA_4.4|52=20180328-11:57:24.773|56=TRAX|10=028|8=FIX.4.4|9=59|35=0|34=129|49=QA3APA_4.4|52=20180328-11:57:54.774|56=TRAX|10=033|8=FIX.4.4|9=59|35=0|34=130|49=QA3APA_4.4|52=20180328-11:58:24.776|56=TRAX|10=025|8=FIX.4.4|9=59|35=0|34=131|49=QA3APA_4.4|52=20180328-11:58:55.777|56=TRAX|10=031|8=FIX.4.4|9=59|35=0|34=132|49=QA3APA_4.4|52=20180328-11:59:26.771|56=TRAX|10=025|8=FIX.4.4|9=59|35=0|34=133|49=QA3APA_4.4|52=20180328-11:59:56.777|56=TRAX|10=035|8=FIX.4.4|9=59|35=0|34=134|49=QA3APA_4.4|52=20180328-12:00:27.769|56=TRAX|10=022|8=FIX.4.4|9=59|35=0|34=135|49=QA3APA_4.4|52=20180328-12:00:57.777|56=TRAX|10=025|8=FIX.4.4|9=59|35=0|34=136|49=QA3APA_4.4|52=20180328-12:01:28.734|56=TRAX|10=018|8=FIX.4.4|9=59|35=0|34=137|49=QA3APA_4.4|52=20180328-12:01:58.758|56=TRAX|10=028|8=FIX.4.4|9=59|35=0|34=138|49=QA3APA_4.4|52=20180328-12:02:29.746|56=TRAX|10=025|8=FIX.4.4|9=59|35=0|34=139|49=QA3APA_4.4|52=20180328-12:02:59.760|56=TRAX|10=025|8=FIX.4.4|9=59|35=0|34=140|49=QA3APA_4.4|52=20180328-12:03:30.733|56=TRAX|10=007|8=FIX.4.4|9=59|35=0|34=141|49=QA3APA_4.4|52=20180328-12:04:00.733|56=TRAX|10=006|8=FIX.4.4|9=59|35=0|34=142|49=QA3APA_4.4|52=20180328-12:04:30.757|56=TRAX|10=016|8=FIX.4.4|9=59|35=0|34=143|49=QA3APA_4.4|52=20180328-12:05:01.754|56=TRAX|10=013|8=FIX.4.4|9=59|35=0|34=144|49=QA3APA_4.4|52=20180328-12:05:32.752|56=TRAX|10=016|8=FIX.4.4|9=59|35=0|34=145|49=QA3APA_4.4|52=20180328-12:06:03.752|56=TRAX|10=016|8=FIX.4.4|9=59|35=0|34=146|49=QA3APA_4.4|52=20180328-12:06:33.754|56=TRAX|10=022|8=FIX.4.4|9=59|35=0|34=147|49=QA3APA_4.4|52=20180328-12:07:04.753|56=TRAX|10=021|8=FIX.4.4|9=59|35=0|34=148|49=QA3APA_4.4|52=20180328-12:07:35.755|56=TRAX|10=028|8=FIX.4.4|9=59|35=0|34=149|49=QA3APA_4.4|52=20180328-12:08:06.358|56=TRAX|10=027|8=FIX.4.4|9=59|35=0|34=150|49=QA3APA_4.4|52=20180328-12:08:36.358|56=TRAX|10=022|8=FIX.4.4|9=59|35=0|34=151|49=QA3APA_4.4|52=20180328-12:09:06.753|56=TRAX|10=020|8=FIX.4.4|9=59|35=0|34=152|49=QA3APA_4.4|52=20180328-12:09:36.760|56=TRAX|10=022|8=FIX.4.4|9=59|35=0|34=153|49=QA3APA_4.4|52=20180328-12:10:07.756|56=TRAX|10=018|8=FIX.4.4|9=59|35=0|34=154|49=QA3APA_4.4|52=20180328-12:10:38.752|56=TRAX|10=019|8=FIX.4.4|9=59|35=0|34=155|49=QA3APA_4.4|52=20180328-12:11:08.756|56=TRAX|10=022|8=FIX.4.4|9=59|35=0|34=156|49=QA3APA_4.4|52=20180328-12:11:39.755|56=TRAX|10=026|8=FIX.4.4|9=59|35=0|34=157|49=QA3APA_4.4|52=20180328-12:12:10.755|56=TRAX|10=017|8=FIX.4.4|9=59|35=0|34=158|49=QA3APA_4.4|52=20180328-12:12:41.758|56=TRAX|10=025|8=FIX.4.4|9=59|35=0|34=159|49=QA3APA_4.4|52=20180328-12:13:11.759|56=TRAX|10=025|8=FIX.4.4|9=59|35=0|34=160|49=QA3APA_4.4|52=20180328-12:13:42.734|56=TRAX|10=014|8=FIX.4.4|9=59|35=0|34=161|49=QA3APA_4.4|52=20180328-12:14:12.755|56=TRAX|10=016|8=FIX.4.4|9=59|35=0|34=162|49=QA3APA_4.4|52=20180328-12:14:43.754|56=TRAX|10=020|8=FIX.4.4|9=59|35=0|34=163|49=QA3APA_4.4|52=20180328-12:15:14.754|56=TRAX|10=020|8=FIX.4.4|9=59|35=0|34=164|49=QA3APA_4.4|52=20180328-12:15:44.756|56=TRAX|10=026|8=FIX.4.4|9=59|35=0|34=165|49=QA3APA_4.4|52=20180328-12:16:15.755|56=TRAX|10=025|8=FIX.4.4|9=59|35=0|34=166|49=QA3APA_4.4|52=20180328-12:16:46.735|56=TRAX|10=028|8=FIX.4.4|9=59|35=0|34=167|49=QA3APA_4.4|52=20180328-12:17:16.756|56=TRAX|10=030|8=FIX.4.4|9=59|35=0|34=168|49=QA3APA_4.4|52=20180328-12:17:47.757|56=TRAX|10=036|8=FIX.4.4|9=59|35=0|34=169|49=QA3APA_4.4|52=20180328-12:18:18.754|56=TRAX|10=033|8=FIX.4.4|9=59|35=0|34=170|49=QA3APA_4.4|52=20180328-12:18:48.754|56=TRAX|10=028|8=FIX.4.4|9=59|35=0|34=171|49=QA3APA_4.4|52=20180328-12:19:18.755|56=TRAX|10=028|8=FIX.4.4|9=59|35=0|34=172|49=QA3APA_4.4|52=20180328-12:19:48.756|56=TRAX|10=033|8=FIX.4.4|9=59|35=0|34=173|49=QA3APA_4.4|52=20180328-12:20:19.756|56=TRAX|10=024|8=FIX.4.4|9=59|35=0|34=174|49=QA3APA_4.4|52=20180328-12:20:49.758|56=TRAX|10=030|8=FIX.4.4|9=59|35=0|34=175|49=QA3APA_4.4|52=20180328-12:21:19.759|56=TRAX|10=030|8=FIX.4.4|9=59|35=0|34=176|49=QA3APA_4.4|52=20180328-12:21:50.762|56=TRAX|10=020|8=FIX.4.4|9=59|35=0|34=177|49=QA3APA_4.4|52=20180328-12:22:21.763|56=TRAX|10=021|8=FIX.4.4|9=59|35=0|34=178|49=QA3APA_4.4|52=20180328-12:22:52.763|56=TRAX|10=026|8=FIX.4.4|9=59|35=0|34=179|49=QA3APA_4.4|52=20180328-12:23:22.764|56=TRAX|10=026|8=FIX.4.4|9=59|35=0|34=180|49=QA3APA_4.4|52=20180328-12:23:53.755|56=TRAX|10=022|8=FIX.4.4|9=59|35=0|34=181|49=QA3APA_4.4|52=20180328-12:24:23.756|56=TRAX|10=022|8=FIX.4.4|9=59|35=0|34=182|49=QA3APA_4.4|52=20180328-12:24:54.763|56=TRAX|10=025|8=FIX.4.4|9=59|35=0|34=183|49=QA3APA_4.4|52=20180328-12:25:25.762|56=TRAX|10=024|8=FIX.4.4|9=77|35=5|34=184|49=QA3APA_4.4|52=20180328-12:25:54.758|56=TRAX|58=user requested|10=129|8=FIX.4.4|9=92|35=A|34=1|49=QA3APA_4.4|52=20180328-12:26:13.422|56=TRAX|98=0|108=30|95=8|96=2.0.0rc4|141=Y|10=128|8=FIX.4.4|9=375|35=AE|34=2|49=QA3APA_4.4|50=APA|52=20180328-12:26:27.717|56=TRAX|57=APA|1128=9|571=10|1041=PPB1454_2A2_1|487=0|939=0|325=Y|423=1|48=EQTSHARE0021|22=4|854=0|32=100|31=100|15=GBP|60=20180122-10:54:00.000|779=20170307-07:35:36.155|22600=100|22601=GBP|1924=1|552=1|54=1|1057=Y|29=1|30=SINT|1116=2|1117=05B6OC1W7N8NJQRIYS63|1118=N|1119=116|1117=05B6OC1W7N8NJQRIYS63|1118=N|1119=1|10=064|8=FIX.4.4|9=370|35=AE|34=3|49=QA3APA_4.4|50=APA|52=20180328-12:26:39.386|56=TRAX|57=APA|1128=9|571=10|1041=PPB1454_2A2_1|487=0|939=0|325=Y|423=1|48=EQTSHARE0021|22=4|854=0|32=100|31=100|15=GBP|60=20180122-10:54:00.000|779=20170307-07:35:36.155|22600=100|22601=GBP|1924=1|552=1|54=1|1057=Y|30=SINT|1116=2|1117=05B6OC1W7N8NJQRIYS63|1118=N|1119=116|1117=05B6OC1W7N8NJQRIYS63|1118=N|1119=1|10=103|8=FIX.4.4|9=372|35=AE|34=4|49=QA3APA_4.4|50=APA|52=20180328-12:26:58.882|56=TRAX|57=APA|1128=9|571=10|1041=PPB1454_2A2_1D2|487=0|939=0|325=Y|423=1|48=EQTSHARE0021|22=4|854=0|32=100|31=100|15=GBP|60=20180122-10:54:00.000|779=20170307-07:35:36.155|22600=100|22601=GBP|1924=1|552=1|54=1|1057=Y|30=SINT|1116=2|1117=05B6OC1W7N8NJQRIYS63|1118=N|1119=116|1117=05B6OC1W7N8NJQRIYS63|1118=N|1119=1|10=226|8=FIX.4.4|9=66|35=0|34=5|49=QA3APA_4.4|52=20180328-12:26:58.952|56=TRAX|112=TEST|10=201|8=FIX.4.4|9=57|35=0|34=6|49=QA3APA_4.4|52=20180328-12:27:29.356|56=TRAX|10=181|8=FIX.4.4|9=373|35=AE|34=7|49=QA3APA_4.4|50=APA|52=20180328-12:27:43.999|56=TRAX|57=APA|1128=9|571=10|1041=PPB1454_2A2_1D2|487=0|939=0|325=Y|423=1|48=EQTSHARE0021|22=4|854=0|32=100|31=100|15=GBP|60=20180122-10:54:00.000|779=20170307-07:35:36.155|22600=1000|22601=GBP|1924=1|552=1|54=1|1057=Y|30=SINT|1116=2|1117=05B6OC1W7N8NJQRIYS63|1118=N|1119=116|1117=05B6OC1W7N8NJQRIYS63|1118=N|1119=1|10=026|8=FIX.4.4|9=57|35=0|34=8|49=QA3APA_4.4|52=20180328-12:28:14.371|56=TRAX|10=175|8=FIX.4.4|9=57|35=0|34=9|49=QA3APA_4.4|52=20180328-12:28:44.406|56=TRAX|10=178|8=FIX.4.4|9=58|35=0|34=10|49=QA3APA_4.4|52=20180328-12:29:14.410|56=TRAX|10=212|8=FIX.4.4|9=58|35=0|34=11|49=QA3APA_4.4|52=20180328-12:29:45.414|56=TRAX|10=221|8=FIX.4.4|9=58|35=0|34=12|49=QA3APA_4.4|52=20180328-12:30:16.410|56=TRAX|10=208|8=FIX.4.4|9=58|35=0|34=13|49=QA3APA_4.4|52=20180328-12:30:47.406|56=TRAX|10=218|8=FIX.4.4|9=58|35=0|34=14|49=QA3APA_4.4|52=20180328-12:31:18.418|56=TRAX|10=221|8=FIX.4.4|9=58|35=0|34=15|49=QA3APA_4.4|52=20180328-12:31:49.377|56=TRAX|10=230|8=FIX.4.4|9=58|35=0|34=16|49=QA3APA_4.4|52=20180328-12:32:19.415|56=TRAX|10=222|8=FIX.4.4|9=345|35=AE|34=17|49=QA3APA_4.4|50=APA|52=20180328-12:32:24.912|56=TRAX|57=APA|1128=9|571=10|1041=PPB1883_test_1|487=0|939=0|325=Y|423=1|48=EQTSHARE0021|22=4|854=0|32=100|31=100|15=GBP|60=20180122-10:54:00.000|779=20170307-07:35:36.155|552=1|54=1|1057=Y|30=SINT|1116=2|1117=05B6OC1W7N8NJQRIYS63|1118=N|1119=116|1117=05B6OC1W7N8NJQRIYS63|1118=N|1119=1|10=151|8=FIX.4.4|9=58|35=0|34=18|49=QA3APA_4.4|52=20180328-12:32:55.409|56=TRAX|10=227|8=FIX.4.4|9=76|35=5|34=19|49=QA3APA_4.4|52=20180328-12:33:00.407|56=TRAX|58=user requested|10=058|8=FIX.4.4|9=92|35=A|34=1|49=QA3APA_4.4|52=20180328-12:33:16.906|56=TRAX|98=0|108=30|95=8|96=2.0.0rc4|141=Y|10=136|8=FIX.4.4|9=347|35=AE|34=2|49=QA3APA_4.4|50=APA|52=20180328-12:33:31.623|56=TRAX|57=APA|1128=9|571=10|1041=PPB1883_test_1ZZ1|487=0|939=0|325=Y|423=1|48=EQTSHARE0021|22=4|854=0|32=100|31=100|15=GBP|60=20180122-10:54:00.000|779=20170307-07:35:36.155|552=1|54=1|1057=Y|30=SINT|1116=2|1117=05B6OC1W7N8NJQRIYS63|1118=N|1119=116|1117=05B6OC1W7N8NJQRIYS63|1118=N|1119=1|10=070|8=FIX.4.4|9=57|35=0|34=3|49=QA3APA_4.4|52=20180328-12:34:01.901|56=TRAX|10=162|8=FIX.4.4|9=57|35=0|34=4|49=QA3APA_4.4|52=20180328-12:34:31.903|56=TRAX|10=168|8=FIX.4.4|9=346|35=AE|34=5|49=QA3APA_4.4|50=APA|52=20180328-12:34:35.472|56=TRAX|57=APA|1128=9|571=10|1041=PPB1883_test_1W1|487=0|939=0|325=Y|423=1|48=EQTSHARE0021|22=4|854=0|32=100|31=100|15=GBP|60=20180122-10:54:00.000|779=20170307-07:35:36.155|552=1|54=1|1057=Y|30=SINT|1116=2|1117=05B6OC1W7N8NJQRIYS63|1118=N|1119=116|1117=05B6OC1W7N8NJQRIYS63|1118=N|1119=1|10=242|8=FIX.4.4|9=57|35=5|34=6|49=QA3APA_4.4|52=20180328-12:34:52.907|56=TRAX|10=182|8=FIX.4.4|9=92|35=A|34=1|49=QA3APA_4.4|52=20180328-12:34:55.903|56=TRAX|98=0|108=30|95=8|96=2.0.0rc4|141=Y|10=137|8=FIX.4.4|9=346|35=AE|34=2|49=QA3APA_4.4|50=APA|52=20180328-12:34:59.975|56=TRAX|57=APA|1128=9|571=10|1041=PPB1883_test_1W1|487=0|939=0|325=Y|423=1|48=EQTSHARE0021|22=4|854=0|32=100|31=100|15=GBP|60=20180122-10:54:00.000|779=20170307-07:35:36.155|552=1|54=1|1057=Y|30=SINT|1116=2|1117=05B6OC1W7N8NJQRIYS63|1118=N|1119=116|1117=05B6OC1W7N8NJQRIYS63|1118=N|1119=1|10=253|8=FIX.4.4|9=57|35=0|34=3|49=QA3APA_4.4|52=20180328-12:35:30.911|56=TRAX|10=166|8=FIX.4.4|9=181|35=AE|34=4|49=QA3APA_4.4|50=APA|52=20180328-12:35:53.401|56=TRAX|57=APA|1128=9|571=10|1041=PPB1883_test_1W1|487=0|939=0|325=Y|423=1|1116=2|1117=05B6OC1W7N8NJQRIYS63|1118=N|1119=116|10=111|8=FIX.4.4|9=346|35=AE|34=5|49=QA3APA_4.4|50=APA|52=20180328-12:35:58.800|56=TRAX|57=APA|1128=9|571=10|1041=PPB1883_test_1W1|487=0|939=0|325=Y|423=1|48=EQTSHARE0021|22=4|854=0|32=100|31=100|15=GBP|60=20180122-10:54:00.000|779=20170307-07:35:36.155|552=1|54=1|1057=Y|30=SINT|1116=2|1117=05B6OC1W7N8NJQRIYS63|1118=N|1119=116|1117=05B6OC1W7N8NJQRIYS63|1118=N|1119=1|10=243|8=FIX.4.4|9=339|35=AE|34=6|49=QA3APA_4.4|50=APA|52=20180328-12:36:14.634|56=TRAX|57=APA|1128=9|571=10|1041=PPB1883_test_1W1|487=0|939=0|325=Y|423=1|48=EQTSHARE0021|22=4|854=0|32=100|31=100|15=GBP|60=20180122-10:54:00.000|779=20170307-07:35:36.155|552=1|54=1|30=SINT|1116=2|1117=05B6OC1W7N8NJQRIYS63|1118=N|1119=116|1117=05B6OC1W7N8NJQRIYS63|1118=N|1119=1|10=144|8=FIX.4.4|9=339|35=AE|34=7|49=QA3APA_4.4|50=APA|52=20180328-12:36:26.595|56=TRAX|57=APA|1128=9|571=10|1041=PPB1883_test_1W1|487=0|939=0|325=Y|423=1|48=EQTSHARE0021|22=4|854=0|32=100|31=100|15=GBP|60=20180122-10:54:00.000|779=20170307-07:35:36.155|552=1|54=1|30=SINT|1116=2|1117=05B6OC1W7N8NJQRIYS63|1118=N|1119=116|1117=05B6OC1W7N8NJQRIYS63|1118=N|1119=1|10=154|8=FIX.4.4|9=57|35=0|34=8|49=QA3APA_4.4|52=20180328-12:36:56.913|56=TRAX|10=182|8=FIX.4.4|9=57|35=0|34=9|49=QA3APA_4.4|52=20180328-12:37:27.890|56=TRAX|10=186|8=FIX.4.4|9=373|35=AE|34=10|49=QA3APA_4.4|50=APA|52=20180328-12:37:49.967|56=TRAX|57=APA|1128=9|571=10|1041=PPB1454_22|487=0|939=0|325=Y|423=1|48=EQTSHARE0021|22=4|854=0|32=100|31=100|15=GBP|60=20180122-10:54:00.000|779=20170307-07:35:36.155|22600=100|22601=GBP|1924=1|552=1|54=1|1057=Y|29=1|30=SINT|1116=2|1117=05B6OC1W7N8NJQRIYS63|1118=N|1119=116|1117=05B6OC1W7N8NJQRIYS63|1118=N|1119=1|10=169|8=FIX.4.4|9=353|35=AE|34=11|49=QA3APA_4.4|50=APA|52=20180328-12:38:02.807|56=TRAX|57=APA|1128=9|571=10|1041=PPB1454_22|487=0|939=0|325=Y|423=1|48=EQTSHARE0021|22=4|854=0|32=100|31=100|15=GBP|60=20180122-10:54:00.000|779=20170307-07:35:36.155|1924=1|552=1|54=1|1057=Y|29=1|30=SINT|1116=2|1117=05B6OC1W7N8NJQRIYS63|1118=N|1119=116|1117=05B6OC1W7N8NJQRIYS63|1118=N|1119=1|10=188|8=FIX.4.4|9=67|35=0|34=12|49=QA3APA_4.4|52=20180328-12:38:13.368|56=TRAX|112=TEST|10=243|8=FIX.4.4|9=346|35=AE|34=13|49=QA3APA_4.4|50=APA|52=20180328-12:38:33.375|56=TRAX|57=APA|1128=9|571=10|1041=PPB1454_22|487=0|939=0|325=Y|423=1|48=EQTSHARE0021|22=4|854=0|32=100|31=100|15=GBP|60=20180122-10:54:00.000|779=20170307-07:35:36.155|552=1|54=1|1057=Y|29=1|30=SINT|1116=2|1117=05B6OC1W7N8NJQRIYS63|1118=N|1119=116|1117=05B6OC1W7N8NJQRIYS63|1118=N|1119=1|10=133|8=FIX.4.4|9=341|35=AE|34=14|49=QA3APA_4.4|50=APA|52=20180328-12:38:42.002|56=TRAX|57=APA|1128=9|571=10|1041=PPB1454_22|487=0|939=0|325=Y|423=1|48=EQTSHARE0021|22=4|854=0|32=100|31=100|15=GBP|60=20180122-10:54:00.000|779=20170307-07:35:36.155|552=1|54=1|1057=Y|30=SINT|1116=2|1117=05B6OC1W7N8NJQRIYS63|1118=N|1119=116|1117=05B6OC1W7N8NJQRIYS63|1118=N|1119=1|10=154|8=FIX.4.4|9=58|35=0|34=15|49=QA3APA_4.4|52=20180328-12:39:12.913|56=TRAX|10=224|8=FIX.4.4|9=58|35=0|34=16|49=QA3APA_4.4|52=20180328-12:39:42.913|56=TRAX|10=228|8=FIX.4.4|9=341|35=AE|34=17|49=QA3APA_4.4|50=APA|52=20180328-12:39:47.053|56=TRAX|57=APA|1128=9|571=10|1041=PPB1454_22|487=0|939=0|325=Y|423=1|48=EQTSHARE0021|22=4|854=0|32=100|31=100|15=GBP|60=20180122-10:54:00.000|779=20170307-07:35:36.155|552=1|54=1|1057=Y|30=SINT|1116=2|1117=05B6OC1W7N8NJQRIYS63|1118=N|1119=116|1117=05B6OC1W7N8NJQRIYS63|1118=N|1119=1|10=169|8=FIX.4.4|9=346|35=AE|34=18|49=QA3APA_4.4|50=APA|52=20180328-12:40:00.622|56=TRAX|57=APA|1128=9|571=10|1041=PPB1454_22|487=0|29=1|939=0|325=Y|423=1|48=EQTSHARE0021|22=4|854=0|32=100|31=100|15=GBP|60=20180122-10:54:00.000|779=20170307-07:35:36.155|552=1|54=1|1057=Y|30=SINT|1116=2|1117=05B6OC1W7N8NJQRIYS63|1118=N|1119=116|1117=05B6OC1W7N8NJQRIYS63|1118=N|1119=1|10=120|8=FIX.4.4|9=341|35=AE|34=19|49=QA3APA_4.4|50=APA|52=20180328-12:40:08.866|56=TRAX|57=APA|1128=6|571=10|1041=PPB1454_22|487=0|939=0|325=Y|423=1|48=EQTSHARE0021|22=4|854=0|32=100|31=100|15=GBP|60=20180122-10:54:00.000|779=20170307-07:35:36.155|552=1|54=1|1057=Y|30=SINT|1116=2|1117=05B6OC1W7N8NJQRIYS63|1118=N|1119=116|1117=05B6OC1W7N8NJQRIYS63|1118=N|1119=1|10=169|8=FIX.4.4|9=58|35=0|34=20|49=QA3APA_4.4|52=20180328-12:40:38.916|56=TRAX|10=223|8=FIX.4.4|9=58|35=0|34=21|49=QA3APA_4.4|52=20180328-12:41:09.912|56=TRAX|10=219|8=FIX.4.4|9=58|35=0|34=22|49=QA3APA_4.4|52=20180328-12:41:40.905|56=TRAX|10=217|8=FIX.4.4|9=58|35=0|34=23|49=QA3APA_4.4|52=20180328-12:42:10.905|56=TRAX|10=216|8=FIX.4.4|9=58|35=0|34=24|49=QA3APA_4.4|52=20180328-12:42:40.909|56=TRAX|10=224|8=FIX.4.4|9=363|35=AE|34=25|49=QA3APA_4.4|50=APA|52=20180328-12:42:43.958|56=TRAX|57=APA|1128=6|571=10|1041=testReference|22806=NewVersion|487=0|939=0|325=Y|423=1|48=VALIDISIN123|22=4|854=0|32=100|31=100|15=GBP|60=20160624-02:00:00|22600=100|22601=GBP|1924=1|552=1|54=1|1057=Y|29=1|30=APXL|1116=2|1117=05B6OC1W7N8NJQRIYS63|1118=N|1119=116|1117=05B6OC1W7N8NJQRIYS63|1118=N|1119=1|10=001|8=FIX.4.4|9=58|35=5|34=26|49=QA3APA_4.4|52=20180328-12:42:53.916|56=TRAX|10=233|8=FIX.4.4|9=92|35=A|34=1|49=QA3APA_4.4|52=20180328-12:43:07.256|56=TRAX|98=0|108=30|95=8|96=2.0.0rc4|141=Y|10=135|8=FIX.4.4|9=367|35=AE|34=2|49=QA3APA_4.4|50=APA|52=20180328-12:43:17.372|56=TRAX|57=APA|1128=6|571=10|1041=testReference_XX01|22806=NewVersion|487=0|939=0|325=Y|423=1|48=VALIDISIN123|22=4|854=0|32=100|31=100|15=GBP|60=20160624-02:00:00|22600=100|22601=GBP|1924=1|552=1|54=1|1057=Y|29=1|30=APXL|1116=2|1117=05B6OC1W7N8NJQRIYS63|1118=N|1119=116|1117=05B6OC1W7N8NJQRIYS63|1118=N|1119=1|10=056|8=FIX.4.4|9=57|35=0|34=3|49=QA3APA_4.4|52=20180328-12:43:48.236|56=TRAX|10=174|8=FIX.4.4|9=57|35=0|34=4|49=QA3APA_4.4|52=20180328-12:44:19.222|56=TRAX|10=169|8=FIX.4.4|9=57|35=0|34=5|49=QA3APA_4.4|52=20180328-12:44:49.227|56=TRAX|10=178|8=FIX.4.4|9=57|35=0|34=6|49=QA3APA_4.4|52=20180328-12:45:19.235|56=TRAX|10=176|8=FIX.4.4|9=57|35=0|34=7|49=QA3APA_4.4|52=20180328-12:45:50.236|56=TRAX|10=173|8=FIX.4.4|9=339|35=AE|34=8|49=QA3APA_4.4|50=APA|52=20180328-12:46:18.860|56=TRAX|57=APA|1128=9|571=10|1041=PPB1883_3|487=0|939=0|325=Y|423=1|48=EQTSHARE0021|22=4|854=0|32=100|31=100|15=GBP|60=20180122-10:54:00.000|779=20170307-07:35:36.155|552=1|54=1|30=SINT|1057=Y|1116=2|1117=05B6OC1W7N8NJQRIYS63|1118=N|1119=116|1117=05B6OC1W7N8NJQRIYS63|1118=N|1119=1|10=087|8=FIX.4.4|9=66|35=0|34=9|49=QA3APA_4.4|52=20180328-12:46:35.691|56=TRAX|112=TEST|10=202|8=FIX.4.4|9=340|35=AE|34=10|49=QA3APA_4.4|50=APA|52=20180328-12:46:44.110|56=TRAX|57=APA|1128=9|571=10|1041=PPB1883_3|487=0|939=0|325=Y|423=1|48=EQTSHARE0021|22=4|854=0|32=100|31=100|15=GBP|60=20180122-10:54:00.000|779=20170307-07:35:36.155|552=1|54=1|1057=Y|30=SINT|1116=2|1117=05B6OC1W7N8NJQRIYS63|1118=N|1119=116|1117=05B6OC1W7N8NJQRIYS63|1118=N|1119=1|10=107|8=FIX.4.4|9=58|35=0|34=11|49=QA3APA_4.4|52=20180328-12:47:14.225|56=TRAX|10=217|8=FIX.4.4|9=58|35=0|34=12|49=QA3APA_4.4|52=20180328-12:47:44.237|56=TRAX|10=224|8=FIX.4.4|9=345|35=AE|34=13|49=QA3APA_4.4|50=APA|52=20180328-12:47:48.847|56=TRAX|57=APA|1128=9|571=10|1041=PPB1883_3|487=0|939=0|325=Y|423=1|48=EQTSHARE0021|22=4|854=0|32=100|31=100|15=GBP|60=20180122-10:54:00.000|779=20170307-07:35:36.155|552=1|54=1|1057=Y|29=1|30=SINT|1116=2|1117=05B6OC1W7N8NJQRIYS63|1118=N|1119=116|1117=05B6OC1W7N8NJQRIYS63|1118=N|1119=1|10=099|8=FIX.4.4|9=337|35=AE|34=14|49=QA3APA_4.4|50=APA|52=20180328-12:48:10.022|56=TRAX|57=APA|1128=9|571=10|1041=PPB1883_3|487=0|939=0|325=Y|423=1|48=EQTSHARE0021|22=4|854=0|32=100|31=100|15=GBP|60=20180122-10:54:00.000|779=20170307-07:35:36.155|552=1|54=1|1057=Y|29=1|1116=2|1117=05B6OC1W7N8NJQRIYS63|1118=N|1119=116|1117=05B6OC1W7N8NJQRIYS63|1118=N|1119=1|10=109|8=FIX.4.4|9=332|35=AE|34=15|49=QA3APA_4.4|50=APA|52=20180328-12:48:18.060|56=TRAX|57=APA|1128=9|571=10|1041=PPB1883_3|487=0|939=0|325=Y|423=1|48=EQTSHARE0021|22=4|854=0|32=100|31=100|15=GBP|60=20180122-10:54:00.000|779=20170307-07:35:36.155|552=1|54=1|1057=Y|1116=2|1117=05B6OC1W7N8NJQRIYS63|1118=N|1119=116|1117=05B6OC1W7N8NJQRIYS63|1118=N|1119=1|10=153|8=FIX.4.4|9=58|35=0|34=16|49=QA3APA_4.4|52=20180328-12:48:48.231|56=TRAX|10=227|8=FIX.4.4|9=340|35=AE|34=17|49=QA3APA_4.4|50=APA|52=20180328-12:48:50.044|56=TRAX|57=APA|1128=9|571=10|1041=PPB1883_4|487=0|939=0|325=Y|423=1|48=EQTSHARE0021|22=4|854=0|32=100|31=100|15=GBP|60=20180122-10:54:00.000|779=20170307-07:35:36.155|552=1|54=1|1057=Y|30=SINT|1116=2|1117=05B6OC1W7N8NJQRIYS63|1118=N|1119=116|1117=05B6OC1W7N8NJQRIYS63|1118=N|1119=1|10=120|8=FIX.4.4|9=58|35=0|34=18|49=QA3APA_4.4|52=20180328-12:49:20.226|56=TRAX|10=224|8=FIX.4.4|9=58|35=0|34=19|49=QA3APA_4.4|52=20180328-12:49:51.196|56=TRAX|10=235|8=FIX.4.4|9=340|35=AE|34=20|49=QA3APA_4.4|50=APA|52=20180328-12:50:21.736|56=TRAX|57=APA|1128=9|571=10|1041=PPB1883_4|487=0|939=0|325=Y|423=1|48=EQTSHARE0021|22=4|854=0|32=100|31=100|15=GBP|60=20180122-10:54:00.000|779=20170307-07:35:36.155|552=1|54=1|1057=Y|30=SINT|1116=2|1117=05B6OC1W7N8NJQRIYS63|1118=N|1119=116|1117=05B6OC1W7N8NJQRIYS63|1118=N|1119=1|10=113|8=FIX.4.4|9=58|35=0|34=21|49=QA3APA_4.4|52=20180328-12:50:52.193|56=TRAX|10=218|8=FIX.4.4|9=58|35=0|34=22|49=QA3APA_4.4|52=20180328-12:51:23.192|56=TRAX|10=217|8=FIX.4.4|9=58|35=0|34=23|49=QA3APA_4.4|52=20180328-12:51:54.191|56=TRAX|10=221|8=FIX.4.4|9=58|35=0|34=24|49=QA3APA_4.4|52=20180328-12:52:25.190|56=TRAX|10=220|8=FIX.4.4|9=76|35=5|34=25|49=QA3APA_4.4|52=20180328-12:52:54.189|56=TRAX|58=user requested|10=072|8=FIX.4.4|9=92|35=A|34=1|49=QA3APA_4.4|52=20180403-09:46:47.804|56=TRAX|98=0|108=30|95=8|96=2.0.0rc4|141=Y|10=141|8=FIX.4.4|9=79|35=5|34=2|49=QA3APA_4.4|52=20180403-09:47:03.805|56=TRAX|58=Session Tab Closed|10=243|8=FIX.4.4|9=92|35=A|34=1|49=QA3APA_4.4|52=20180417-15:35:46.246|56=TRAX|98=0|108=30|95=8|96=2.0.0rc4|141=Y|10=140|8=FIX.4.4|9=273|35=i|34=2|49=QA3APA_4.4|50=APA|52=20180417-15:35:59.391|56=TRAX|57=APA|117=QUOTEE123_00889998888997|296=1|302=1|304=1|295=1|299=PPB1293_1|48=EQTSHARE0021|22=4|22682=1.00|22683=2|135=5000|62=20171213-06:00:00.000|60=20171211-11:30:34.000|15=EUR|22500=4|22503=100|22504=XOFF|10=093|8=FIX.4.4|9=57|35=0|34=3|49=QA3APA_4.4|52=20180417-15:36:29.899|56=TRAX|10=192|8=FIX.4.4|9=273|35=i|34=4|49=QA3APA_4.4|50=APA|52=20180417-15:36:46.156|56=TRAX|57=APA|117=QUOTEE123_00889998888997|296=1|302=1|304=1|295=1|299=PPB1293_1|48=EQTSHARE0021|22=4|22682=1.00|22683=2|135=5000|62=20171213-06:00:00.000|60=20171211-11:30:34.000|15=EUR|22500=4|22503=100|22504=XOFF|10=091|8=FIX.4.4|9=273|35=i|34=5|49=QA3APA_4.4|50=APA|52=20180417-15:37:07.096|56=TRAX|57=APA|117=QUOTEE123_00889998888997|296=1|302=1|304=1|295=1|299=PPB1293_1|48=EQTSHARE0021|22=4|22682=1.00|22683=2|135=5000|62=20171213-06:00:00.000|60=20171211-11:30:34.000|15=EUR|22500=4|22503=100|22504=XOFF|10=093|8=FIX.4.4|9=66|35=0|34=6|49=QA3APA_4.4|52=20180417-15:37:15.901|56=TRAX|112=TEST|10=193|8=FIX.4.4|9=57|35=0|34=7|49=QA3APA_4.4|52=20180417-15:37:45.904|56=TRAX|10=182|8=FIX.4.4|9=57|35=0|34=8|49=QA3APA_4.4|52=20180417-15:38:15.907|56=TRAX|10=184|8=FIX.4.4|9=57|35=0|34=9|49=QA3APA_4.4|52=20180417-15:38:45.925|56=TRAX|10=188|8=FIX.4.4|9=58|35=0|34=10|49=QA3APA_4.4|52=20180417-15:39:16.255|56=TRAX|10=224|8=FIX.4.4|9=58|35=0|34=11|49=QA3APA_4.4|52=20180417-15:39:47.252|56=TRAX|10=226|8=FIX.4.4|9=58|35=0|34=12|49=QA3APA_4.4|52=20180417-15:40:18.259|56=TRAX|10=224|8=FIX.4.4|9=58|35=0|34=13|49=QA3APA_4.4|52=20180417-15:40:49.250|56=TRAX|10=220|8=FIX.4.4|9=58|35=0|34=14|49=QA3APA_4.4|52=20180417-15:41:20.261|56=TRAX|10=213|8=FIX.4.4|9=58|35=0|34=15|49=QA3APA_4.4|52=20180417-15:41:50.261|56=TRAX|10=217|8=FIX.4.4|9=58|35=0|34=16|49=QA3APA_4.4|52=20180417-15:42:20.262|56=TRAX|10=217|8=FIX.4.4|9=58|35=0|34=17|49=QA3APA_4.4|52=20180417-15:42:51.241|56=TRAX|10=219|8=FIX.4.4|9=58|35=0|34=18|49=QA3APA_4.4|52=20180417-15:43:21.260|56=TRAX|10=219|8=FIX.4.4|9=58|35=0|34=19|49=QA3APA_4.4|52=20180417-15:43:52.253|56=TRAX|10=226|8=FIX.4.4|9=58|35=0|34=20|49=QA3APA_4.4|52=20180417-15:44:23.249|56=TRAX|10=222|8=FIX.4.4|9=58|35=0|34=21|49=QA3APA_4.4|52=20180417-15:44:53.262|56=TRAX|10=221|8=FIX.4.4|9=58|35=0|34=22|49=QA3APA_4.4|52=20180417-15:45:24.249|56=TRAX|10=226|8=FIX.4.4|9=58|35=0|34=23|49=QA3APA_4.4|52=20180417-15:45:54.260|56=TRAX|10=223|8=FIX.4.4|9=58|35=0|34=24|49=QA3APA_4.4|52=20180417-15:46:25.252|56=TRAX|10=224|8=FIX.4.4|9=58|35=0|34=25|49=QA3APA_4.4|52=20180417-15:46:55.261|56=TRAX|10=228|8=FIX.4.4|9=58|35=0|34=26|49=QA3APA_4.4|52=20180417-15:47:26.262|56=TRAX|10=229|8=FIX.4.4|9=58|35=0|34=27|49=QA3APA_4.4|52=20180417-15:47:57.261|56=TRAX|10=233|8=FIX.4.4|9=58|35=0|34=28|49=QA3APA_4.4|52=20180417-15:48:28.262|56=TRAX|10=234|8=FIX.4.4|9=58|35=0|34=29|49=QA3APA_4.4|52=20180417-15:48:59.259|56=TRAX|10=245|8=FIX.4.4|9=58|35=0|34=30|49=QA3APA_4.4|52=20180417-15:49:29.259|56=TRAX|10=235|8=FIX.4.4|9=58|35=0|34=31|49=QA3APA_4.4|52=20180417-15:49:59.265|56=TRAX|10=236|8=FIX.4.4|9=58|35=0|34=32|49=QA3APA_4.4|52=20180417-15:50:30.254|56=TRAX|10=216|8=FIX.4.4|9=58|35=0|34=33|49=QA3APA_4.4|52=20180417-15:51:00.262|56=TRAX|10=214|8=FIX.4.4|9=58|35=0|34=34|49=QA3APA_4.4|52=20180417-15:51:31.236|56=TRAX|10=220|8=FIX.4.4|9=58|35=0|34=35|49=QA3APA_4.4|52=20180417-15:52:01.258|56=TRAX|10=223|8=FIX.4.4|9=58|35=0|34=36|49=QA3APA_4.4|52=20180417-15:52:31.261|56=TRAX|10=221|8=FIX.4.4|9=58|35=0|34=37|49=QA3APA_4.4|52=20180417-15:53:02.253|56=TRAX|10=222|8=FIX.4.4|9=58|35=0|34=38|49=QA3APA_4.4|52=20180417-15:53:32.258|56=TRAX|10=231|8=FIX.4.4|9=58|35=0|34=39|49=QA3APA_4.4|52=20180417-15:54:02.265|56=TRAX|10=228|8=FIX.4.4|9=58|35=0|34=40|49=QA3APA_4.4|52=20180417-15:54:32.265|56=TRAX|10=223|8=FIX.4.4|9=58|35=0|34=41|49=QA3APA_4.4|52=20180417-15:55:03.260|56=TRAX|10=218|8=FIX.4.4|9=58|35=0|34=42|49=QA3APA_4.4|52=20180417-15:55:33.260|56=TRAX|10=222|8=FIX.4.4|9=58|35=0|34=43|49=QA3APA_4.4|52=20180417-15:56:03.260|56=TRAX|10=221|8=FIX.4.4|9=58|35=0|34=44|49=QA3APA_4.4|52=20180417-15:56:33.269|56=TRAX|10=234|8=FIX.4.4|9=58|35=0|34=45|49=QA3APA_4.4|52=20180417-15:57:03.270|56=TRAX|10=225|8=FIX.4.4|9=58|35=0|34=46|49=QA3APA_4.4|52=20180417-15:57:34.227|56=TRAX|10=232|8=FIX.4.4|9=58|35=0|34=47|49=QA3APA_4.4|52=20180417-15:58:04.259|56=TRAX|10=236|8=FIX.4.4|9=58|35=0|34=48|49=QA3APA_4.4|52=20180417-15:58:34.271|56=TRAX|10=234|8=FIX.4.4|9=58|35=0|34=49|49=QA3APA_4.4|52=20180417-15:59:05.263|56=TRAX|10=235|8=FIX.4.4|9=58|35=0|34=50|49=QA3APA_4.4|52=20180417-15:59:35.265|56=TRAX|10=232|8=FIX.4.4|9=58|35=0|34=51|49=QA3APA_4.4|52=20180417-16:00:06.258|56=TRAX|10=220|8=FIX.4.4|9=58|35=0|34=52|49=QA3APA_4.4|52=20180417-16:00:36.259|56=TRAX|10=225|8=FIX.4.4|9=58|35=0|34=53|49=QA3APA_4.4|52=20180417-16:01:07.230|56=TRAX|10=214|8=FIX.4.4|9=58|35=0|34=54|49=QA3APA_4.4|52=20180417-16:01:37.264|56=TRAX|10=225|8=FIX.4.4|9=58|35=0|34=55|49=QA3APA_4.4|52=20180417-16:02:07.269|56=TRAX|10=229|8=FIX.4.4|9=58|35=0|34=56|49=QA3APA_4.4|52=20180417-16:02:37.273|56=TRAX|10=228|8=FIX.4.4|9=58|35=0|34=57|49=QA3APA_4.4|52=20180417-16:03:08.229|56=TRAX|10=229|8=FIX.4.4|9=58|35=0|34=58|49=QA3APA_4.4|52=20180417-16:03:38.229|56=TRAX|10=233|8=FIX.4.4|9=58|35=0|34=59|49=QA3APA_4.4|52=20180417-16:04:08.266|56=TRAX|10=233|8=FIX.4.4|9=58|35=0|34=60|49=QA3APA_4.4|52=20180417-16:04:39.258|56=TRAX|10=230|8=FIX.4.4|9=58|35=0|34=61|49=QA3APA_4.4|52=20180417-16:05:09.270|56=TRAX|10=223|8=FIX.4.4|9=58|35=0|34=62|49=QA3APA_4.4|52=20180417-16:05:40.261|56=TRAX|10=219|8=FIX.4.4|9=58|35=0|34=63|49=QA3APA_4.4|52=20180417-16:06:10.264|56=TRAX|10=221|8=FIX.4.4|9=58|35=0|34=64|49=QA3APA_4.4|52=20180417-16:06:41.274|56=TRAX|10=227|8=FIX.4.4|9=58|35=0|34=65|49=QA3APA_4.4|52=20180417-16:07:12.275|56=TRAX|10=228|8=FIX.4.4|9=58|35=0|34=66|49=QA3APA_4.4|52=20180417-16:07:43.264|56=TRAX|10=231|8=FIX.4.4|9=58|35=0|34=67|49=QA3APA_4.4|52=20180417-16:08:13.268|56=TRAX|10=234|8=FIX.4.4|9=58|35=0|34=68|49=QA3APA_4.4|52=20180417-16:08:43.273|56=TRAX|10=234|8=FIX.4.4|9=58|35=0|34=69|49=QA3APA_4.4|52=20180417-16:09:14.265|56=TRAX|10=235|8=FIX.4.4|9=58|35=0|34=70|49=QA3APA_4.4|52=20180417-16:09:44.277|56=TRAX|10=233|8=FIX.4.4|9=58|35=0|34=71|49=QA3APA_4.4|52=20180417-16:10:15.270|56=TRAX|10=217|8=FIX.4.4|9=58|35=0|34=72|49=QA3APA_4.4|52=20180417-16:10:45.271|56=TRAX|10=222|8=FIX.4.4|9=58|35=0|34=73|49=QA3APA_4.4|52=20180417-16:11:15.272|56=TRAX|10=222|8=FIX.4.4|9=58|35=0|34=74|49=QA3APA_4.4|52=20180417-16:11:45.278|56=TRAX|10=232|8=FIX.4.4|9=58|35=0|34=75|49=QA3APA_4.4|52=20180417-16:12:15.906|56=TRAX|10=229|8=FIX.4.4|9=58|35=0|34=76|49=QA3APA_4.4|52=20180417-16:12:46.236|56=TRAX|10=230|8=FIX.4.4|9=58|35=0|34=77|49=QA3APA_4.4|52=20180417-16:13:16.237|56=TRAX|10=230|8=FIX.4.4|9=58|35=0|34=78|49=QA3APA_4.4|52=20180417-16:13:46.280|56=TRAX|10=232|8=FIX.4.4|9=58|35=0|34=79|49=QA3APA_4.4|52=20180417-16:14:17.236|56=TRAX|10=233|8=FIX.4.4|9=58|35=0|34=80|49=QA3APA_4.4|52=20180417-16:14:47.264|56=TRAX|10=229|8=FIX.4.4|9=58|35=0|34=81|49=QA3APA_4.4|52=20180417-16:15:17.272|56=TRAX|10=227|8=FIX.4.4|9=58|35=0|34=82|49=QA3APA_4.4|52=20180417-16:15:48.262|56=TRAX|10=231|8=FIX.4.4|9=58|35=0|34=83|49=QA3APA_4.4|52=20180417-16:16:18.269|56=TRAX|10=237|8=FIX.4.4|9=58|35=0|34=84|49=QA3APA_4.4|52=20180417-16:16:48.273|56=TRAX|10=236|8=FIX.4.4|9=58|35=0|34=85|49=QA3APA_4.4|52=20180417-16:17:19.271|56=TRAX|10=234|8=FIX.4.4|9=58|35=0|34=86|49=QA3APA_4.4|52=20180417-16:17:50.276|56=TRAX|10=235|8=FIX.4.4|9=58|35=0|34=87|49=QA3APA_4.4|52=20180417-16:18:21.231|56=TRAX|10=226|8=FIX.4.4|9=58|35=0|34=88|49=QA3APA_4.4|52=20180417-16:18:51.272|56=TRAX|10=235|8=FIX.4.4|9=58|35=0|34=89|49=QA3APA_4.4|52=20180417-16:19:22.269|56=TRAX|10=241|8=FIX.4.4|9=58|35=0|34=90|49=QA3APA_4.4|52=20180417-16:19:53.257|56=TRAX|10=234|8=FIX.4.4|9=58|35=0|34=91|49=QA3APA_4.4|52=20180417-16:20:24.250|56=TRAX|10=218|8=FIX.4.4|9=58|35=0|34=92|49=QA3APA_4.4|52=20180417-16:20:54.260|56=TRAX|10=223|8=FIX.4.4|9=58|35=0|34=93|49=QA3APA_4.4|52=20180417-16:21:25.254|56=TRAX|10=226|8=FIX.4.4|9=58|35=0|34=94|49=QA3APA_4.4|52=20180417-16:21:55.256|56=TRAX|10=232|8=FIX.4.4|9=58|35=0|34=95|49=QA3APA_4.4|52=20180417-16:22:25.256|56=TRAX|10=231|8=FIX.4.4|9=58|35=0|34=96|49=QA3APA_4.4|52=20180417-16:22:56.254|56=TRAX|10=234|8=FIX.4.4|9=58|35=0|34=97|49=QA3APA_4.4|52=20180417-16:23:27.252|56=TRAX|10=232|8=FIX.4.4|9=58|35=0|34=98|49=QA3APA_4.4|52=20180417-16:23:57.257|56=TRAX|10=241|8=FIX.4.4|9=58|35=0|34=99|49=QA3APA_4.4|52=20180417-16:24:28.255|56=TRAX|10=239|8=FIX.4.4|9=59|35=0|34=100|49=QA3APA_4.4|52=20180417-16:24:59.254|56=TRAX|10=018|8=FIX.4.4|9=59|35=0|34=101|49=QA3APA_4.4|52=20180417-16:25:29.280|56=TRAX|10=016|8=FIX.4.4|9=59|35=0|34=102|49=QA3APA_4.4|52=20180417-16:26:00.266|56=TRAX|10=011|8=FIX.4.4|9=59|35=0|34=103|49=QA3APA_4.4|52=20180417-16:26:30.270|56=TRAX|10=010|8=FIX.4.4|9=59|35=0|34=104|49=QA3APA_4.4|52=20180417-16:27:00.280|56=TRAX|10=010|8=FIX.4.4|9=59|35=0|34=105|49=QA3APA_4.4|52=20180417-16:27:30.280|56=TRAX|10=014|8=FIX.4.4|9=59|35=0|34=106|49=QA3APA_4.4|52=20180417-16:28:01.267|56=TRAX|10=019|8=FIX.4.4|9=59|35=0|34=107|49=QA3APA_4.4|52=20180417-16:28:31.282|56=TRAX|10=020|8=FIX.4.4|9=59|35=0|34=108|49=QA3APA_4.4|52=20180417-16:29:01.282|56=TRAX|10=019|8=FIX.4.4|9=59|35=0|34=109|49=QA3APA_4.4|52=20180417-16:29:32.277|56=TRAX|10=028|8=FIX.4.4|9=59|35=0|34=110|49=QA3APA_4.4|52=20180417-16:30:02.283|56=TRAX|10=006|8=FIX.4.4|9=59|35=0|34=111|49=QA3APA_4.4|52=20180417-16:30:33.278|56=TRAX|10=015|8=FIX.4.4|9=59|35=0|34=112|49=QA3APA_4.4|52=20180417-16:31:04.275|56=TRAX|10=012|8=FIX.4.4|9=59|35=0|34=113|49=QA3APA_4.4|52=20180417-16:31:35.273|56=TRAX|10=015|8=FIX.4.4|9=59|35=0|34=114|49=QA3APA_4.4|52=20180417-16:32:06.285|56=TRAX|10=018|8=FIX.4.4|9=59|35=0|34=115|49=QA3APA_4.4|52=20180417-16:32:37.272|56=TRAX|10=019|8=FIX.4.4|9=59|35=0|34=116|49=QA3APA_4.4|52=20180417-16:33:07.274|56=TRAX|10=020|8=FIX.4.4|9=59|35=0|34=117|49=QA3APA_4.4|52=20180417-16:33:37.274|56=TRAX|10=024|8=FIX.4.4|9=59|35=0|34=118|49=QA3APA_4.4|52=20180417-16:34:07.279|56=TRAX|10=028|8=FIX.4.4|9=59|35=0|34=119|49=QA3APA_4.4|52=20180417-16:34:38.281|56=TRAX|10=026|8=FIX.4.4|9=59|35=0|34=120|49=QA3APA_4.4|52=20180417-16:35:08.287|56=TRAX|10=022|8=FIX.4.4|9=59|35=0|34=121|49=QA3APA_4.4|52=20180417-16:35:39.278|56=TRAX|10=027|8=FIX.4.4|9=59|35=0|34=122|49=QA3APA_4.4|52=20180417-16:36:09.279|56=TRAX|10=027|8=FIX.4.4|9=59|35=0|34=123|49=QA3APA_4.4|52=20180417-16:36:39.282|56=TRAX|10=025|8=FIX.4.4|9=59|35=0|34=124|49=QA3APA_4.4|52=20180417-16:37:09.286|56=TRAX|10=028|8=FIX.4.4|9=59|35=0|34=125|49=QA3APA_4.4|52=20180417-16:37:39.291|56=TRAX|10=028|8=FIX.4.4|9=59|35=0|34=126|49=QA3APA_4.4|52=20180417-16:38:09.291|56=TRAX|10=027|8=FIX.4.4|9=59|35=0|34=127|49=QA3APA_4.4|52=20180417-16:38:40.286|56=TRAX|10=027|8=FIX.4.4|9=59|35=0|34=128|49=QA3APA_4.4|52=20180417-16:39:10.294|56=TRAX|10=025|8=FIX.4.4|9=59|35=0|34=129|49=QA3APA_4.4|52=20180417-16:39:41.280|56=TRAX|10=025|8=FIX.4.4|9=59|35=0|34=130|49=QA3APA_4.4|52=20180417-16:40:11.288|56=TRAX|10=014|8=FIX.4.4|9=59|35=0|34=131|49=QA3APA_4.4|52=20180417-16:40:42.295|56=TRAX|10=017|8=FIX.4.4|9=59|35=0|34=132|49=QA3APA_4.4|52=20180417-16:41:13.281|56=TRAX|10=012|8=FIX.4.4|9=59|35=0|34=133|49=QA3APA_4.4|52=20180417-16:41:43.289|56=TRAX|10=024|8=FIX.4.4|9=59|35=0|34=134|49=QA3APA_4.4|52=20180417-16:42:14.286|56=TRAX|10=021|8=FIX.4.4|9=59|35=0|34=135|49=QA3APA_4.4|52=20180417-16:42:45.282|56=TRAX|10=022|8=FIX.4.4|9=59|35=0|34=136|49=QA3APA_4.4|52=20180417-16:43:15.296|56=TRAX|10=026|8=FIX.4.4|9=59|35=0|34=137|49=QA3APA_4.4|52=20180417-16:43:45.919|56=TRAX|10=032|8=FIX.4.4|9=59|35=0|34=138|49=QA3APA_4.4|52=20180417-16:44:16.288|56=TRAX|10=031|8=FIX.4.4|9=59|35=0|34=139|49=QA3APA_4.4|52=20180417-16:44:46.294|56=TRAX|10=032|8=FIX.4.4|9=59|35=0|34=140|49=QA3APA_4.4|52=20180417-16:45:16.299|56=TRAX|10=027|8=FIX.4.4|9=59|35=0|34=141|49=QA3APA_4.4|52=20180417-16:45:47.289|56=TRAX|10=031|8=FIX.4.4|9=59|35=0|34=142|49=QA3APA_4.4|52=20180417-16:46:17.297|56=TRAX|10=029|8=FIX.4.4|9=59|35=0|34=143|49=QA3APA_4.4|52=20180417-16:46:48.290|56=TRAX|10=027|8=FIX.4.4|9=59|35=0|34=144|49=QA3APA_4.4|52=20180417-16:47:19.287|56=TRAX|10=033|8=FIX.4.4|9=59|35=0|34=145|49=QA3APA_4.4|52=20180417-16:47:49.299|56=TRAX|10=040|8=FIX.4.4|9=59|35=0|34=146|49=QA3APA_4.4|52=20180417-16:48:20.289|56=TRAX|10=030|8=FIX.4.4|9=59|35=0|34=147|49=QA3APA_4.4|52=20180417-16:48:50.299|56=TRAX|10=035|8=FIX.4.4|9=59|35=0|34=148|49=QA3APA_4.4|52=20180417-16:49:21.304|56=TRAX|10=022|8=FIX.4.4|9=59|35=0|34=149|49=QA3APA_4.4|52=20180417-16:49:52.303|56=TRAX|10=026|8=FIX.4.4|9=59|35=0|34=150|49=QA3APA_4.4|52=20180417-16:50:23.293|56=TRAX|10=016|8=FIX.4.4|9=59|35=0|34=151|49=QA3APA_4.4|52=20180417-16:50:53.302|56=TRAX|10=011|8=FIX.4.4|9=59|35=0|34=152|49=QA3APA_4.4|52=20180417-16:51:24.293|56=TRAX|10=020|8=FIX.4.4|9=59|35=0|34=153|49=QA3APA_4.4|52=20180417-16:51:54.300|56=TRAX|10=013|8=FIX.4.4|9=59|35=0|34=154|49=QA3APA_4.4|52=20180417-16:52:25.298|56=TRAX|10=029|8=FIX.4.4|9=59|35=0|34=155|49=QA3APA_4.4|52=20180417-16:52:55.302|56=TRAX|10=019|8=FIX.4.4|9=59|35=0|34=156|49=QA3APA_4.4|52=20180417-16:53:25.305|56=TRAX|10=021|8=FIX.4.4|9=59|35=0|34=157|49=QA3APA_4.4|52=20180417-16:53:55.308|56=TRAX|10=028|8=FIX.4.4|9=59|35=0|34=158|49=QA3APA_4.4|52=20180417-16:54:25.309|56=TRAX|10=028|8=FIX.4.4|9=59|35=0|34=159|49=QA3APA_4.4|52=20180417-16:54:56.304|56=TRAX|10=028|8=FIX.4.4|9=59|35=0|34=160|49=QA3APA_4.4|52=20180417-16:55:26.307|56=TRAX|10=021|8=FIX.4.4|9=59|35=0|34=161|49=QA3APA_4.4|52=20180417-16:55:57.298|56=TRAX|10=035|8=FIX.4.4|9=59|35=0|34=162|49=QA3APA_4.4|52=20180417-16:56:27.304|56=TRAX|10=022|8=FIX.4.4|9=59|35=0|34=163|49=QA3APA_4.4|52=20180417-16:56:58.298|56=TRAX|10=039|8=FIX.4.4|9=59|35=0|34=164|49=QA3APA_4.4|52=20180417-16:57:28.300|56=TRAX|10=022|8=FIX.4.4|9=59|35=0|34=165|49=QA3APA_4.4|52=20180417-16:57:58.308|56=TRAX|10=034|8=FIX.4.4|9=59|35=0|34=166|49=QA3APA_4.4|52=20180417-16:58:29.302|56=TRAX|10=028|8=FIX.4.4|9=59|35=0|34=167|49=QA3APA_4.4|52=20180417-16:58:59.308|56=TRAX|10=038|8=FIX.4.4|9=59|35=0|34=168|49=QA3APA_4.4|52=20180417-16:59:29.314|56=TRAX|10=034|8=FIX.4.4|9=59|35=0|34=169|49=QA3APA_4.4|52=20180417-17:00:00.302|56=TRAX|10=008|8=FIX.4.4|9=59|35=0|34=170|49=QA3APA_4.4|52=20180417-17:00:30.315|56=TRAX|10=007|8=FIX.4.4|9=59|35=0|34=171|49=QA3APA_4.4|52=20180417-17:01:01.310|56=TRAX|10=002|8=FIX.4.4|9=59|35=0|34=172|49=QA3APA_4.4|52=20180417-17:01:31.316|56=TRAX|10=012|8=FIX.4.4|9=59|35=0|34=173|49=QA3APA_4.4|52=20180417-17:02:02.302|56=TRAX|10=007|8=FIX.4.4|9=59|35=0|34=174|49=QA3APA_4.4|52=20180417-17:02:32.314|56=TRAX|10=014|8=FIX.4.4|9=59|35=0|34=175|49=QA3APA_4.4|52=20180417-17:03:03.309|56=TRAX|10=018|8=FIX.4.4|9=59|35=0|34=176|49=QA3APA_4.4|52=20180417-17:03:33.313|56=TRAX|10=017|8=FIX.4.4|9=59|35=0|34=177|49=QA3APA_4.4|52=20180417-17:04:03.317|56=TRAX|10=020|8=FIX.4.4|9=59|35=0|34=178|49=QA3APA_4.4|52=20180417-17:04:33.317|56=TRAX|10=024|8=FIX.4.4|9=59|35=0|34=179|49=QA3APA_4.4|52=20180417-17:05:04.306|56=TRAX|10=022|8=FIX.4.4|9=59|35=0|34=180|49=QA3APA_4.4|52=20180417-17:05:34.314|56=TRAX|10=016|8=FIX.4.4|9=59|35=0|34=181|49=QA3APA_4.4|52=20180417-17:06:04.317|56=TRAX|10=018|8=FIX.4.4|9=59|35=0|34=182|49=QA3APA_4.4|52=20180417-17:06:34.320|56=TRAX|10=016|8=FIX.4.4|9=59|35=0|34=183|49=QA3APA_4.4|52=20180417-17:07:05.307|56=TRAX|10=021|8=FIX.4.4|9=59|35=0|34=184|49=QA3APA_4.4|52=20180417-17:07:35.320|56=TRAX|10=020|8=FIX.4.4|9=59|35=0|34=185|49=QA3APA_4.4|52=20180417-17:08:06.311|56=TRAX|10=020|8=FIX.4.4|9=59|35=0|34=186|49=QA3APA_4.4|52=20180417-17:08:36.321|56=TRAX|10=025|8=FIX.4.4|9=59|35=0|34=187|49=QA3APA_4.4|52=20180417-17:09:07.309|56=TRAX|10=031|8=FIX.4.4|9=59|35=0|34=188|49=QA3APA_4.4|52=20180417-17:09:37.322|56=TRAX|10=030|8=FIX.4.4|9=59|35=0|34=189|49=QA3APA_4.4|52=20180417-17:10:08.324|56=TRAX|10=023|8=FIX.4.4|9=59|35=0|34=190|49=QA3APA_4.4|52=20180417-17:10:39.320|56=TRAX|10=015|8=FIX.4.4|9=59|35=0|34=191|49=QA3APA_4.4|52=20180417-17:11:10.311|56=TRAX|10=006|8=FIX.4.4|9=59|35=0|34=192|49=QA3APA_4.4|52=20180417-17:11:40.319|56=TRAX|10=018|8=FIX.4.4|9=59|35=0|34=193|49=QA3APA_4.4|52=20180417-17:12:11.315|56=TRAX|10=014|8=FIX.4.4|9=59|35=0|34=194|49=QA3APA_4.4|52=20180417-17:12:41.328|56=TRAX|10=022|8=FIX.4.4|9=59|35=0|34=195|49=QA3APA_4.4|52=20180417-17:13:12.326|56=TRAX|10=020|8=FIX.4.4|9=59|35=0|34=196|49=QA3APA_4.4|52=20180417-17:13:43.321|56=TRAX|10=020|8=FIX.4.4|9=59|35=0|34=197|49=QA3APA_4.4|52=20180417-17:14:13.325|56=TRAX|10=023|8=FIX.4.4|9=59|35=0|34=198|49=QA3APA_4.4|52=20180417-17:14:43.326|56=TRAX|10=028|8=FIX.4.4|9=59|35=0|34=199|49=QA3APA_4.4|52=20180417-17:15:14.329|56=TRAX|10=031|8=FIX.4.4|9=59|35=0|34=200|49=QA3APA_4.4|52=20180417-17:15:45.320|56=TRAX|10=009|8=FIX.4.4|9=59|35=0|34=201|49=QA3APA_4.4|52=20180417-17:16:15.326|56=TRAX|10=014|8=FIX.4.4|9=59|35=0|34=202|49=QA3APA_4.4|52=20180417-17:16:45.903|56=TRAX|10=019|8=FIX.4.4|9=59|35=0|34=203|49=QA3APA_4.4|52=20180417-17:17:15.970|56=TRAX|10=022|8=FIX.4.4|9=59|35=0|34=204|49=QA3APA_4.4|52=20180417-17:17:46.323|56=TRAX|10=019|8=FIX.4.4|9=59|35=0|34=205|49=QA3APA_4.4|52=20180417-17:18:17.321|56=TRAX|10=017|8=FIX.4.4|9=59|35=0|34=206|49=QA3APA_4.4|52=20180417-17:18:47.325|56=TRAX|10=025|8=FIX.4.4|9=59|35=0|34=207|49=QA3APA_4.4|52=20180417-17:19:18.323|56=TRAX|10=023|8=FIX.4.4|9=59|35=0|34=208|49=QA3APA_4.4|52=20180417-17:19:48.332|56=TRAX|10=027|8=FIX.4.4|9=59|35=0|34=209|49=QA3APA_4.4|52=20180417-17:20:18.333|56=TRAX|10=018|8=FIX.4.4|9=59|35=0|34=210|49=QA3APA_4.4|52=20180417-17:20:48.335|56=TRAX|10=015|8=FIX.4.4|9=59|35=0|34=211|49=QA3APA_4.4|52=20180417-17:21:19.306|56=TRAX|10=013|8=FIX.4.4|9=59|35=0|34=212|49=QA3APA_4.4|52=20180417-17:21:49.321|56=TRAX|10=014|8=FIX.4.4|9=59|35=0|34=213|49=QA3APA_4.4|52=20180417-17:22:19.325|56=TRAX|10=017|8=FIX.4.4|9=59|35=0|34=214|49=QA3APA_4.4|52=20180417-17:22:49.327|56=TRAX|10=023|8=FIX.4.4|9=59|35=0|34=215|49=QA3APA_4.4|52=20180417-17:23:20.335|56=TRAX|10=013|8=FIX.4.4|9=59|35=0|34=216|49=QA3APA_4.4|52=20180417-17:23:51.324|56=TRAX|10=016|8=FIX.4.4|9=59|35=0|34=217|49=QA3APA_4.4|52=20180417-17:24:22.319|56=TRAX|10=020|8=FIX.4.4|9=59|35=0|34=218|49=QA3APA_4.4|52=20180417-17:24:52.329|56=TRAX|10=025|8=FIX.4.4|9=59|35=0|34=219|49=QA3APA_4.4|52=20180417-17:25:23.319|56=TRAX|10=024|8=FIX.4.4|9=59|35=0|34=220|49=QA3APA_4.4|52=20180417-17:25:53.326|56=TRAX|10=017|8=FIX.4.4|9=59|35=0|34=221|49=QA3APA_4.4|52=20180417-17:26:24.321|56=TRAX|10=012|8=FIX.4.4|9=59|35=0|34=222|49=QA3APA_4.4|52=20180417-17:26:54.328|56=TRAX|10=023|8=FIX.4.4|9=59|35=0|34=223|49=QA3APA_4.4|52=20180417-17:27:24.332|56=TRAX|10=017|8=FIX.4.4|9=59|35=0|34=224|49=QA3APA_4.4|52=20180417-17:27:54.334|56=TRAX|10=023|8=FIX.4.4|9=59|35=0|34=225|49=QA3APA_4.4|52=20180417-17:28:25.331|56=TRAX|10=020|8=FIX.4.4|9=59|35=0|34=226|49=QA3APA_4.4|52=20180417-17:28:56.326|56=TRAX|10=029|8=FIX.4.4|9=59|35=0|34=227|49=QA3APA_4.4|52=20180417-17:29:26.334|56=TRAX|10=027|8=FIX.4.4|9=59|35=0|34=228|49=QA3APA_4.4|52=20180417-17:29:57.324|56=TRAX|10=031|8=FIX.4.4|9=59|35=0|34=229|49=QA3APA_4.4|52=20180417-17:30:27.327|56=TRAX|10=024|8=FIX.4.4|9=59|35=0|34=230|49=QA3APA_4.4|52=20180417-17:30:57.334|56=TRAX|10=017|8=FIX.4.4|9=59|35=0|34=231|49=QA3APA_4.4|52=20180417-17:31:28.326|56=TRAX|10=018|8=FIX.4.4|9=59|35=0|34=232|49=QA3APA_4.4|52=20180417-17:31:59.337|56=TRAX|10=025|8=FIX.4.4|9=59|35=0|34=233|49=QA3APA_4.4|52=20180417-17:32:30.323|56=TRAX|10=011|8=FIX.4.4|9=59|35=0|34=234|49=QA3APA_4.4|52=20180417-17:33:00.328|56=TRAX|10=015|8=FIX.4.4|9=59|35=0|34=235|49=QA3APA_4.4|52=20180417-17:33:30.336|56=TRAX|10=018|8=FIX.4.4|9=59|35=0|34=236|49=QA3APA_4.4|52=20180417-17:34:01.332|56=TRAX|10=014|8=FIX.4.4|9=59|35=0|34=237|49=QA3APA_4.4|52=20180417-17:34:31.332|56=TRAX|10=018|8=FIX.4.4|9=59|35=0|34=238|49=QA3APA_4.4|52=20180417-17:35:02.339|56=TRAX|10=025|8=FIX.4.4|9=59|35=0|34=239|49=QA3APA_4.4|52=20180417-17:35:33.326|56=TRAX|10=026|8=FIX.4.4|9=59|35=0|34=240|49=QA3APA_4.4|52=20180417-17:36:03.330|56=TRAX|10=011|8=FIX.4.4|9=59|35=0|34=241|49=QA3APA_4.4|52=20180417-17:36:33.340|56=TRAX|10=016|8=FIX.4.4|9=59|35=0|34=242|49=QA3APA_4.4|52=20180417-17:37:03.340|56=TRAX|10=015|8=FIX.4.4|9=59|35=0|34=243|49=QA3APA_4.4|52=20180417-17:37:34.332|56=TRAX|10=021|8=FIX.4.4|9=59|35=0|34=244|49=QA3APA_4.4|52=20180417-17:38:04.340|56=TRAX|10=019|8=FIX.4.4|9=59|35=0|34=245|49=QA3APA_4.4|52=20180417-17:38:35.333|56=TRAX|10=026|8=FIX.4.4|9=59|35=0|34=246|49=QA3APA_4.4|52=20180417-17:39:05.342|56=TRAX|10=025|8=FIX.4.4|9=59|35=0|34=247|49=QA3APA_4.4|52=20180417-17:39:35.342|56=TRAX|10=029|8=FIX.4.4|9=59|35=0|34=248|49=QA3APA_4.4|52=20180417-17:40:06.337|56=TRAX|10=024|8=FIX.4.4|9=59|35=0|34=249|49=QA3APA_4.4|52=20180417-17:40:36.343|56=TRAX|10=025|8=FIX.4.4|9=59|35=0|34=250|49=QA3APA_4.4|52=20180417-17:41:06.344|56=TRAX|10=016|8=FIX.4.4|9=59|35=0|34=251|49=QA3APA_4.4|52=20180417-17:41:37.342|56=TRAX|10=019|8=FIX.4.4|9=59|35=0|34=252|49=QA3APA_4.4|52=20180417-17:42:08.335|56=TRAX|10=021|8=FIX.4.4|9=59|35=0|34=253|49=QA3APA_4.4|52=20180417-17:42:38.340|56=TRAX|10=021|8=FIX.4.4|9=59|35=0|34=254|49=QA3APA_4.4|52=20180417-17:43:08.343|56=TRAX|10=023|8=FIX.4.4|9=59|35=0|34=255|49=QA3APA_4.4|52=20180417-17:43:39.335|56=TRAX|10=029|8=FIX.4.4|9=59|35=0|34=256|49=QA3APA_4.4|52=20180417-17:44:09.344|56=TRAX|10=028|8=FIX.4.4|9=59|35=0|34=257|49=QA3APA_4.4|52=20180417-17:44:40.340|56=TRAX|10=020|8=FIX.4.4|9=59|35=0|34=258|49=QA3APA_4.4|52=20180417-17:45:10.343|56=TRAX|10=022|8=FIX.4.4|9=59|35=0|34=259|49=QA3APA_4.4|52=20180417-17:45:40.348|56=TRAX|10=031|8=FIX.4.4|9=59|35=0|34=260|49=QA3APA_4.4|52=20180417-17:46:11.342|56=TRAX|10=016|8=FIX.4.4|9=59|35=0|34=261|49=QA3APA_4.4|52=20180417-17:46:42.351|56=TRAX|10=021|8=FIX.4.4|9=59|35=0|34=262|49=QA3APA_4.4|52=20180417-17:47:13.344|56=TRAX|10=023|8=FIX.4.4|9=59|35=0|34=263|49=QA3APA_4.4|52=20180417-17:47:44.352|56=TRAX|10=027|8=FIX.4.4|9=59|35=0|34=264|49=QA3APA_4.4|52=20180417-17:48:15.350|56=TRAX|10=025|8=FIX.4.4|9=59|35=0|34=265|49=QA3APA_4.4|52=20180417-17:48:45.918|56=TRAX|10=039|8=FIX.4.4|9=59|35=0|34=266|49=QA3APA_4.4|52=20180417-17:49:16.350|56=TRAX|10=029|8=FIX.4.4|9=59|35=0|34=267|49=QA3APA_4.4|52=20180417-17:49:47.346|56=TRAX|10=039|8=FIX.4.4|9=59|35=0|34=268|49=QA3APA_4.4|52=20180417-17:50:17.348|56=TRAX|10=031|8=FIX.4.4|9=59|35=0|34=269|49=QA3APA_4.4|52=20180417-17:50:48.345|56=TRAX|10=033|8=FIX.4.4|9=59|35=0|34=270|49=QA3APA_4.4|52=20180417-17:51:18.350|56=TRAX|10=019|8=FIX.4.4|9=59|35=0|34=271|49=QA3APA_4.4|52=20180417-17:51:49.343|56=TRAX|10=026|8=FIX.4.4|9=59|35=0|34=272|49=QA3APA_4.4|52=20180417-17:52:19.353|56=TRAX|10=026|8=FIX.4.4|9=59|35=0|34=273|49=QA3APA_4.4|52=20180417-17:52:50.347|56=TRAX|10=025|8=FIX.4.4|9=59|35=0|34=274|49=QA3APA_4.4|52=20180417-17:53:20.357|56=TRAX|10=025|8=FIX.4.4|9=59|35=0|34=275|49=QA3APA_4.4|52=20180417-17:53:51.348|56=TRAX|10=030|8=FIX.4.4|9=59|35=0|34=276|49=QA3APA_4.4|52=20180417-17:54:21.354|56=TRAX|10=026|8=FIX.4.4|9=59|35=0|34=277|49=QA3APA_4.4|52=20180417-17:54:52.351|56=TRAX|10=028|8=FIX.4.4|9=59|35=0|34=278|49=QA3APA_4.4|52=20180417-17:55:23.360|56=TRAX|10=028|8=FIX.4.4|9=59|35=0|34=279|49=QA3APA_4.4|52=20180417-17:55:54.356|56=TRAX|10=038|8=FIX.4.4|9=59|35=0|34=280|49=QA3APA_4.4|52=20180417-17:56:24.361|56=TRAX|10=024|8=FIX.4.4|9=59|35=0|34=281|49=QA3APA_4.4|52=20180417-17:56:55.358|56=TRAX|10=035|8=FIX.4.4|9=59|35=0|34=282|49=QA3APA_4.4|52=20180417-17:57:26.348|56=TRAX|10=034|8=FIX.4.4|9=59|35=0|34=283|49=QA3APA_4.4|52=20180417-17:57:56.356|56=TRAX|10=037|8=FIX.4.4|9=59|35=0|34=284|49=QA3APA_4.4|52=20180417-17:58:26.358|56=TRAX|10=038|8=FIX.4.4|9=59|35=0|34=285|49=QA3APA_4.4|52=20180417-17:58:57.350|56=TRAX|10=035|8=FIX.4.4|9=59|35=0|34=286|49=QA3APA_4.4|52=20180417-17:59:27.357|56=TRAX|10=041|8=FIX.4.4|9=59|35=0|34=287|49=QA3APA_4.4|52=20180417-17:59:57.357|56=TRAX|10=045|8=FIX.4.4|9=59|35=0|34=288|49=QA3APA_4.4|52=20180417-18:00:27.363|56=TRAX|10=027|8=FIX.4.4|9=59|35=0|34=289|49=QA3APA_4.4|52=20180417-18:00:58.354|56=TRAX|10=032|8=FIX.4.4|9=59|35=0|34=290|49=QA3APA_4.4|52=20180417-18:01:28.366|56=TRAX|10=025|8=FIX.4.4|9=59|35=0|34=291|49=QA3APA_4.4|52=20180417-18:01:59.361|56=TRAX|10=025|8=FIX.4.4|9=59|35=0|34=292|49=QA3APA_4.4|52=20180417-18:02:29.368|56=TRAX|10=031|8=FIX.4.4|9=59|35=0|34=293|49=QA3APA_4.4|52=20180417-18:03:00.357|56=TRAX|10=020|8=FIX.4.4|9=59|35=0|34=294|49=QA3APA_4.4|52=20180417-18:03:30.358|56=TRAX|10=025|8=FIX.4.4|9=59|35=0|34=295|49=QA3APA_4.4|52=20180417-18:04:01.368|56=TRAX|10=026|8=FIX.4.4|9=59|35=0|34=296|49=QA3APA_4.4|52=20180417-18:04:32.366|56=TRAX|10=029|8=FIX.4.4|9=59|35=0|34=297|49=QA3APA_4.4|52=20180417-18:05:03.362|56=TRAX|10=025|8=FIX.4.4|9=59|35=0|34=298|49=QA3APA_4.4|52=20180417-18:05:33.365|56=TRAX|10=032|8=FIX.4.4|9=59|35=0|34=299|49=QA3APA_4.4|52=20180417-18:06:04.356|56=TRAX|10=032|8=FIX.4.4|9=59|35=0|34=300|49=QA3APA_4.4|52=20180417-18:06:34.359|56=TRAX|10=021|8=FIX.4.4|9=59|35=0|34=301|49=QA3APA_4.4|52=20180417-18:07:04.373|56=TRAX|10=016|8=FIX.4.4|9=59|35=0|34=302|49=QA3APA_4.4|52=20180417-18:07:35.365|56=TRAX|10=022|8=FIX.4.4|9=59|35=0|34=303|49=QA3APA_4.4|52=20180417-18:08:05.372|56=TRAX|10=019|8=FIX.4.4|9=59|35=0|34=304|49=QA3APA_4.4|52=20180417-18:08:36.363|56=TRAX|10=024|8=FIX.4.4|9=59|35=0|34=305|49=QA3APA_4.4|52=20180417-18:09:06.364|56=TRAX|10=024|8=FIX.4.4|9=59|35=0|34=306|49=QA3APA_4.4|52=20180417-18:09:36.372|56=TRAX|10=027|8=FIX.4.4|9=59|35=0|34=307|49=QA3APA_4.4|52=20180417-18:10:07.375|56=TRAX|10=021|8=FIX.4.4|9=59|35=0|34=308|49=QA3APA_4.4|52=20180417-18:10:38.364|56=TRAX|10=024|8=FIX.4.4|9=59|35=0|34=309|49=QA3APA_4.4|52=20180417-18:11:08.375|56=TRAX|10=025|8=FIX.4.4|9=59|35=0|34=310|49=QA3APA_4.4|52=20180417-18:11:38.377|56=TRAX|10=022|8=FIX.4.4|9=59|35=0|34=311|49=QA3APA_4.4|52=20180417-18:12:09.367|56=TRAX|10=021|8=FIX.4.4|9=59|35=0|34=312|49=QA3APA_4.4|52=20180417-18:12:39.373|56=TRAX|10=022|8=FIX.4.4|9=59|35=0|34=313|49=QA3APA_4.4|52=20180417-18:13:09.377|56=TRAX|10=025|8=FIX.4.4|9=59|35=0|34=314|49=QA3APA_4.4|52=20180417-18:13:40.378|56=TRAX|10=022|8=FIX.4.4|9=59|35=0|34=315|49=QA3APA_4.4|52=20180417-18:14:11.371|56=TRAX|10=015|8=FIX.4.4|9=59|35=0|34=316|49=QA3APA_4.4|52=20180417-18:14:41.377|56=TRAX|10=025|8=FIX.4.4|9=59|35=0|34=317|49=QA3APA_4.4|52=20180417-18:15:12.373|56=TRAX|10=021|8=FIX.4.4|9=59|35=0|34=318|49=QA3APA_4.4|52=20180417-18:15:42.377|56=TRAX|10=029|8=FIX.4.4|9=59|35=0|34=319|49=QA3APA_4.4|52=20180417-18:16:13.372|56=TRAX|10=024|8=FIX.4.4|9=59|35=0|34=320|49=QA3APA_4.4|52=20180417-18:16:43.379|56=TRAX|10=026|8=FIX.4.4|9=59|35=0|34=321|49=QA3APA_4.4|52=20180417-18:17:14.374|56=TRAX|10=021|8=FIX.4.4|9=59|35=0|34=322|49=QA3APA_4.4|52=20180417-18:17:44.374|56=TRAX|10=025|8=FIX.4.4|9=59|35=0|34=323|49=QA3APA_4.4|52=20180417-18:18:14.374|56=TRAX|10=024|8=FIX.4.4|9=59|35=0|34=324|49=QA3APA_4.4|52=20180417-18:18:44.382|56=TRAX|10=027|8=FIX.4.4|9=59|35=0|34=325|49=QA3APA_4.4|52=20180417-18:19:15.370|56=TRAX|10=024|8=FIX.4.4|9=59|35=0|34=326|49=QA3APA_4.4|52=20180417-18:19:45.371|56=TRAX|10=029|8=FIX.4.4|9=59|35=0|34=327|49=QA3APA_4.4|52=20180417-18:20:15.384|56=TRAX|10=023|8=FIX.4.4|9=59|35=0|34=328|49=QA3APA_4.4|52=20180417-18:20:45.922|56=TRAX|10=025|8=FIX.4.4|9=59|35=0|34=329|49=QA3APA_4.4|52=20180417-18:21:15.928|56=TRAX|10=030|8=FIX.4.4|9=59|35=0|34=330|49=QA3APA_4.4|52=20180417-18:21:45.931|56=TRAX|10=019|8=FIX.4.4|9=59|35=0|34=331|49=QA3APA_4.4|52=20180417-18:22:16.380|56=TRAX|10=017|8=FIX.4.4|9=59|35=0|34=332|49=QA3APA_4.4|52=20180417-18:22:47.376|56=TRAX|10=027|8=FIX.4.4|9=59|35=0|34=333|49=QA3APA_4.4|52=20180417-18:23:18.389|56=TRAX|10=031|8=FIX.4.4|9=59|35=0|34=334|49=QA3APA_4.4|52=20180417-18:23:49.390|56=TRAX|10=028|8=FIX.4.4|9=59|35=0|34=335|49=QA3APA_4.4|52=20180417-18:24:20.365|56=TRAX|10=021|8=FIX.4.4|9=59|35=0|34=336|49=QA3APA_4.4|52=20180417-18:24:50.386|56=TRAX|10=028|8=FIX.4.4|9=59|35=0|34=337|49=QA3APA_4.4|52=20180417-18:25:21.381|56=TRAX|10=023|8=FIX.4.4|9=59|35=0|34=338|49=QA3APA_4.4|52=20180417-18:25:52.377|56=TRAX|10=033|8=FIX.4.4|9=59|35=0|34=339|49=QA3APA_4.4|52=20180417-18:26:22.386|56=TRAX|10=032|8=FIX.4.4|9=59|35=0|34=340|49=QA3APA_4.4|52=20180417-18:26:53.379|56=TRAX|10=030|8=FIX.4.4|9=59|35=0|34=341|49=QA3APA_4.4|52=20180417-18:27:23.388|56=TRAX|10=029|8=FIX.4.4|9=59|35=0|34=342|49=QA3APA_4.4|52=20180417-18:27:53.393|56=TRAX|10=029|8=FIX.4.4|9=59|35=0|34=343|49=QA3APA_4.4|52=20180417-18:28:24.393|56=TRAX|10=029|8=FIX.4.4|9=59|35=0|34=344|49=QA3APA_4.4|52=20180417-18:28:55.387|56=TRAX|10=037|8=FIX.4.4|9=59|35=0|34=345|49=QA3APA_4.4|52=20180417-18:29:26.395|56=TRAX|10=036|8=FIX.4.4|9=59|35=0|34=346|49=QA3APA_4.4|52=20180417-18:29:57.387|56=TRAX|10=042|8=FIX.4.4|9=59|35=0|34=347|49=QA3APA_4.4|52=20180417-18:30:27.387|56=TRAX|10=032|8=FIX.4.4|9=59|35=0|34=348|49=QA3APA_4.4|52=20180417-18:30:57.397|56=TRAX|10=037|8=FIX.4.4|9=59|35=0|34=349|49=QA3APA_4.4|52=20180417-18:31:28.387|56=TRAX|10=036|8=FIX.4.4|9=59|35=0|34=350|49=QA3APA_4.4|52=20180417-18:31:59.384|56=TRAX|10=029|8=FIX.4.4|9=59|35=0|34=351|49=QA3APA_4.4|52=20180417-18:32:29.394|56=TRAX|10=029|8=FIX.4.4|9=59|35=0|34=352|49=QA3APA_4.4|52=20180417-18:33:00.400|56=TRAX|10=008|8=FIX.4.4|9=59|35=0|34=353|49=QA3APA_4.4|52=20180417-18:33:31.395|56=TRAX|10=026|8=FIX.4.4|9=59|35=0|34=354|49=QA3APA_4.4|52=20180417-18:34:02.402|56=TRAX|10=015|8=FIX.4.4|9=59|35=0|34=355|49=QA3APA_4.4|52=20180417-18:34:33.393|56=TRAX|10=029|8=FIX.4.4|9=59|35=0|34=356|49=QA3APA_4.4|52=20180417-18:35:04.404|56=TRAX|10=022|8=FIX.4.4|9=59|35=0|34=357|49=QA3APA_4.4|52=20180417-18:35:35.397|56=TRAX|10=038|8=FIX.4.4|9=59|35=0|34=358|49=QA3APA_4.4|52=20180417-18:36:05.406|56=TRAX|10=028|8=FIX.4.4|9=59|35=0|34=359|49=QA3APA_4.4|52=20180417-18:36:36.399|56=TRAX|10=044|8=FIX.4.4|9=59|35=0|34=360|49=QA3APA_4.4|52=20180417-18:37:06.403|56=TRAX|10=020|8=FIX.4.4|9=59|35=0|34=361|49=QA3APA_4.4|52=20180417-18:37:37.414|56=TRAX|10=027|8=FIX.4.4|9=59|35=0|34=362|49=QA3APA_4.4|52=20180417-18:38:08.394|56=TRAX|10=034|8=FIX.4.4|9=59|35=0|34=363|49=QA3APA_4.4|52=20180417-18:38:38.397|56=TRAX|10=041|8=FIX.4.4|9=59|35=0|34=364|49=QA3APA_4.4|52=20180417-18:39:08.399|56=TRAX|10=042|8=FIX.4.4|9=59|35=0|34=365|49=QA3APA_4.4|52=20180417-18:39:38.408|56=TRAX|10=037|8=FIX.4.4|9=59|35=0|34=366|49=QA3APA_4.4|52=20180417-18:40:09.398|56=TRAX|10=036|8=FIX.4.4|9=59|35=0|34=367|49=QA3APA_4.4|52=20180417-18:40:39.401|56=TRAX|10=025|8=FIX.4.4|9=59|35=0|34=368|49=QA3APA_4.4|52=20180417-18:41:09.401|56=TRAX|10=024|8=FIX.4.4|9=59|35=0|34=369|49=QA3APA_4.4|52=20180417-18:41:39.410|56=TRAX|10=028|8=FIX.4.4|9=59|35=0|34=370|49=QA3APA_4.4|52=20180417-18:42:10.374|56=TRAX|10=019|8=FIX.4.4|9=59|35=0|34=371|49=QA3APA_4.4|52=20180417-18:42:40.408|56=TRAX|10=021|8=FIX.4.4|9=59|35=0|34=372|49=QA3APA_4.4|52=20180417-18:43:11.412|56=TRAX|10=016|8=FIX.4.4|9=59|35=0|34=373|49=QA3APA_4.4|52=20180417-18:43:42.405|56=TRAX|10=023|8=FIX.4.4|9=59|35=0|34=374|49=QA3APA_4.4|52=20180417-18:44:12.405|56=TRAX|10=022|8=FIX.4.4|9=59|35=0|34=375|49=QA3APA_4.4|52=20180417-18:44:43.415|56=TRAX|10=028|8=FIX.4.4|9=59|35=0|34=376|49=QA3APA_4.4|52=20180417-18:45:14.414|56=TRAX|10=027|8=FIX.4.4|9=59|35=0|34=377|49=QA3APA_4.4|52=20180417-18:45:45.404|56=TRAX|10=031|8=FIX.4.4|9=59|35=0|34=378|49=QA3APA_4.4|52=20180417-18:46:15.415|56=TRAX|10=032|8=FIX.4.4|9=59|35=0|34=379|49=QA3APA_4.4|52=20180417-18:46:45.941|56=TRAX|10=040|8=FIX.4.4|9=59|35=0|34=380|49=QA3APA_4.4|52=20180417-18:47:15.946|56=TRAX|10=035|8=FIX.4.4|9=59|35=0|34=381|49=QA3APA_4.4|52=20180417-18:47:45.946|56=TRAX|10=039|8=FIX.4.4|9=59|35=0|34=382|49=QA3APA_4.4|52=20180417-18:48:15.954|56=TRAX|10=037|8=FIX.4.4|9=59|35=0|34=383|49=QA3APA_4.4|52=20180417-18:48:46.416|56=TRAX|10=035|8=FIX.4.4|9=59|35=0|34=384|49=QA3APA_4.4|52=20180417-18:49:16.419|56=TRAX|10=037|8=FIX.4.4|9=59|35=0|34=385|49=QA3APA_4.4|52=20180417-18:49:47.406|56=TRAX|10=038|8=FIX.4.4|9=59|35=0|34=386|49=QA3APA_4.4|52=20180417-18:50:17.409|56=TRAX|10=031|8=FIX.4.4|9=59|35=0|34=387|49=QA3APA_4.4|52=20180417-18:50:47.413|56=TRAX|10=030|8=FIX.4.4|9=59|35=0|34=388|49=QA3APA_4.4|52=20180417-18:51:17.415|56=TRAX|10=031|8=FIX.4.4|9=59|35=0|34=389|49=QA3APA_4.4|52=20180417-18:51:48.408|56=TRAX|10=038|8=FIX.4.4|9=59|35=0|34=390|49=QA3APA_4.4|52=20180417-18:52:18.413|56=TRAX|10=024|8=FIX.4.4|9=59|35=0|34=391|49=QA3APA_4.4|52=20180417-18:52:49.408|56=TRAX|10=033|8=FIX.4.4|9=59|35=0|34=392|49=QA3APA_4.4|52=20180417-18:53:19.418|56=TRAX|10=033|8=FIX.4.4|9=59|35=0|34=393|49=QA3APA_4.4|52=20180417-18:53:50.415|56=TRAX|10=026|8=FIX.4.4|9=59|35=0|34=394|49=QA3APA_4.4|52=20180417-18:54:20.421|56=TRAX|10=022|8=FIX.4.4|9=59|35=0|34=395|49=QA3APA_4.4|52=20180417-18:54:51.416|56=TRAX|10=031|8=FIX.4.4|9=59|35=0|34=396|49=QA3APA_4.4|52=20180417-18:55:22.411|56=TRAX|10=026|8=FIX.4.4|9=59|35=0|34=397|49=QA3APA_4.4|52=20180417-18:55:52.416|56=TRAX|10=035|8=FIX.4.4|9=59|35=0|34=398|49=QA3APA_4.4|52=20180417-18:56:22.425|56=TRAX|10=034|8=FIX.4.4|9=59|35=0|34=399|49=QA3APA_4.4|52=20180417-18:56:53.418|56=TRAX|10=041|8=FIX.4.4|9=59|35=0|34=400|49=QA3APA_4.4|52=20180417-18:57:24.426|56=TRAX|10=022|8=FIX.4.4|9=59|35=0|34=401|49=QA3APA_4.4|52=20180417-18:57:55.421|56=TRAX|10=022|8=FIX.4.4|9=59|35=0|34=402|49=QA3APA_4.4|52=20180417-18:58:25.426|56=TRAX|10=026|8=FIX.4.4|9=59|35=0|34=403|49=QA3APA_4.4|52=20180417-18:58:56.423|56=TRAX|10=028|8=FIX.4.4|9=59|35=0|34=404|49=QA3APA_4.4|52=20180417-18:59:27.418|56=TRAX|10=032|8=FIX.4.4|9=59|35=0|34=405|49=QA3APA_4.4|52=20180417-18:59:57.425|56=TRAX|10=034|8=FIX.4.4|9=59|35=0|34=406|49=QA3APA_4.4|52=20180417-19:00:28.430|56=TRAX|10=016|8=FIX.4.4|9=59|35=0|34=407|49=QA3APA_4.4|52=20180417-19:00:59.421|56=TRAX|10=021|8=FIX.4.4|9=59|35=0|34=408|49=QA3APA_4.4|52=20180417-19:01:30.426|56=TRAX|10=017|8=FIX.4.4|9=59|35=0|34=409|49=QA3APA_4.4|52=20180417-19:02:00.430|56=TRAX|10=011|8=FIX.4.4|9=59|35=0|34=410|49=QA3APA_4.4|52=20180417-19:02:31.425|56=TRAX|10=011|8=FIX.4.4|9=59|35=0|34=411|49=QA3APA_4.4|52=20180417-19:03:01.433|56=TRAX|10=009|8=FIX.4.4|9=59|35=0|34=412|49=QA3APA_4.4|52=20180417-19:03:32.421|56=TRAX|10=011|8=FIX.4.4|9=59|35=0|34=413|49=QA3APA_4.4|52=20180417-19:04:02.426|56=TRAX|10=015|8=FIX.4.4|9=59|35=0|34=414|49=QA3APA_4.4|52=20180417-19:04:32.429|56=TRAX|10=022|8=FIX.4.4|9=59|35=0|34=415|49=QA3APA_4.4|52=20180417-19:05:03.424|56=TRAX|10=017|8=FIX.4.4|9=59|35=0|34=416|49=QA3APA_4.4|52=20180417-19:05:33.432|56=TRAX|10=020|8=FIX.4.4|9=59|35=0|34=417|49=QA3APA_4.4|52=20180417-19:06:04.423|56=TRAX|10=020|8=FIX.4.4|9=59|35=0|34=418|49=QA3APA_4.4|52=20180417-19:06:34.433|56=TRAX|10=025|8=FIX.4.4|9=59|35=0|34=419|49=QA3APA_4.4|52=20180417-19:07:04.436|56=TRAX|10=027|8=FIX.4.4|9=59|35=0|34=420|49=QA3APA_4.4|52=20180417-19:07:34.437|56=TRAX|10=023|8=FIX.4.4|9=59|35=0|34=421|49=QA3APA_4.4|52=20180417-19:08:05.429|56=TRAX|10=024|8=FIX.4.4|9=59|35=0|34=422|49=QA3APA_4.4|52=20180417-19:08:35.436|56=TRAX|10=026|8=FIX.4.4|9=59|35=0|34=423|49=QA3APA_4.4|52=20180417-19:09:06.431|56=TRAX|10=021|8=FIX.4.4|9=59|35=0|34=424|49=QA3APA_4.4|52=20180417-19:09:37.427|56=TRAX|10=031|8=FIX.4.4|9=59|35=0|34=425|49=QA3APA_4.4|52=20180417-19:10:07.430|56=TRAX|10=015|8=FIX.4.4|9=59|35=0|34=426|49=QA3APA_4.4|52=20180417-19:10:37.432|56=TRAX|10=021|8=FIX.4.4|9=59|35=0|34=427|49=QA3APA_4.4|52=20180417-19:11:08.441|56=TRAX|10=021|8=FIX.4.4|9=59|35=0|34=428|49=QA3APA_4.4|52=20180417-19:11:39.429|56=TRAX|10=032|8=FIX.4.4|9=59|35=0|34=429|49=QA3APA_4.4|52=20180417-19:12:09.435|56=TRAX|10=028|8=FIX.4.4|9=59|35=0|34=430|49=QA3APA_4.4|52=20180417-19:12:39.441|56=TRAX|10=020|8=FIX.4.4|9=59|35=0|34=431|49=QA3APA_4.4|52=20180417-19:13:10.427|56=TRAX|10=015|8=FIX.4.4|9=59|35=0|34=432|49=QA3APA_4.4|52=20180417-19:13:40.428|56=TRAX|10=020|8=FIX.4.4|9=59|35=0|34=433|49=QA3APA_4.4|52=20180417-19:14:10.434|56=TRAX|10=016|8=FIX.4.4|9=59|35=0|34=434|49=QA3APA_4.4|52=20180417-19:14:40.441|56=TRAX|10=018|8=FIX.4.4|9=59|35=0|34=435|49=QA3APA_4.4|52=20180417-19:15:11.434|56=TRAX|10=020|8=FIX.4.4|9=59|35=0|34=436|49=QA3APA_4.4|52=20180417-19:15:41.437|56=TRAX|10=027|8=FIX.4.4|9=59|35=0|34=437|49=QA3APA_4.4|52=20180417-19:16:12.434|56=TRAX|10=024|8=FIX.4.4|9=59|35=0|34=438|49=QA3APA_4.4|52=20180417-19:16:42.436|56=TRAX|10=030|8=FIX.4.4|9=59|35=0|34=439|49=QA3APA_4.4|52=20180417-19:17:13.437|56=TRAX|10=031|8=FIX.4.4|9=59|35=0|34=440|49=QA3APA_4.4|52=20180417-19:17:43.447|56=TRAX|10=027|8=FIX.4.4|9=59|35=0|34=441|49=QA3APA_4.4|52=20180417-19:18:14.433|56=TRAX|10=022|8=FIX.4.4|9=59|35=0|34=442|49=QA3APA_4.4|52=20180417-19:18:44.448|56=TRAX|10=032|8=FIX.4.4|9=59|35=0|34=443|49=QA3APA_4.4|52=20180417-19:19:15.434|56=TRAX|10=027|8=FIX.4.4|9=59|35=0|34=444|49=QA3APA_4.4|52=20180417-19:19:45.445|56=TRAX|10=033|8=FIX.4.4|9=59|35=0|34=445|49=QA3APA_4.4|52=20180417-19:20:15.971|56=TRAX|10=027|8=FIX.4.4|9=59|35=0|34=446|49=QA3APA_4.4|52=20180417-19:20:46.450|56=TRAX|10=024|8=FIX.4.4|9=59|35=0|34=447|49=QA3APA_4.4|52=20180417-19:21:17.445|56=TRAX|10=028|8=FIX.4.4|9=59|35=0|34=448|49=QA3APA_4.4|52=20180417-19:21:48.440|56=TRAX|10=028|8=FIX.4.4|9=59|35=0|34=449|49=QA3APA_4.4|52=20180417-19:22:18.441|56=TRAX|10=028|8=FIX.4.4|9=59|35=0|34=450|49=QA3APA_4.4|52=20180417-19:22:48.450|56=TRAX|10=023|8=FIX.4.4|9=59|35=0|34=451|49=QA3APA_4.4|52=20180417-19:23:19.442|56=TRAX|10=024|8=FIX.4.4|9=59|35=0|34=452|49=QA3APA_4.4|52=20180417-19:23:49.453|56=TRAX|10=030|8=FIX.4.4|9=59|35=0|34=453|49=QA3APA_4.4|52=20180417-19:24:20.439|56=TRAX|10=025|8=FIX.4.4|9=59|35=0|34=454|49=QA3APA_4.4|52=20180417-19:24:50.451|56=TRAX|10=023|8=FIX.4.4|9=59|35=0|34=455|49=QA3APA_4.4|52=20180417-19:25:21.444|56=TRAX|10=025|8=FIX.4.4|9=59|35=0|34=456|49=QA3APA_4.4|52=20180417-19:25:51.453|56=TRAX|10=029|8=FIX.4.4|9=59|35=0|34=457|49=QA3APA_4.4|52=20180417-19:26:22.443|56=TRAX|10=028|8=FIX.4.4|9=59|35=0|34=458|49=QA3APA_4.4|52=20180417-19:26:52.454|56=TRAX|10=034|8=FIX.4.4|9=59|35=0|34=459|49=QA3APA_4.4|52=20180417-19:27:23.442|56=TRAX|10=031|8=FIX.4.4|9=59|35=0|34=460|49=QA3APA_4.4|52=20180417-19:27:53.448|56=TRAX|10=032|8=FIX.4.4|9=59|35=0|34=461|49=QA3APA_4.4|52=20180417-19:28:23.451|56=TRAX|10=025|8=FIX.4.4|9=59|35=0|34=462|49=QA3APA_4.4|52=20180417-19:28:54.446|56=TRAX|10=034|8=FIX.4.4|9=59|35=0|34=463|49=QA3APA_4.4|52=20180417-19:29:24.459|56=TRAX|10=037|8=FIX.4.4|9=59|35=0|34=464|49=QA3APA_4.4|52=20180417-19:29:55.446|56=TRAX|10=038|8=FIX.4.4|9=59|35=0|34=465|49=QA3APA_4.4|52=20180417-19:30:25.457|56=TRAX|10=030|8=FIX.4.4|9=59|35=0|34=466|49=QA3APA_4.4|52=20180417-19:30:56.453|56=TRAX|10=031|8=FIX.4.4|9=59|35=0|34=467|49=QA3APA_4.4|52=20180417-19:31:26.455|56=TRAX|10=032|8=FIX.4.4|9=59|35=0|34=468|49=QA3APA_4.4|52=20180417-19:31:57.462|56=TRAX|10=035|8=FIX.4.4|9=59|35=0|34=469|49=QA3APA_4.4|52=20180417-19:32:28.449|56=TRAX|10=040|8=FIX.4.4|9=59|35=0|34=470|49=QA3APA_4.4|52=20180417-19:32:58.461|56=TRAX|10=029|8=FIX.4.4|9=59|35=0|34=471|49=QA3APA_4.4|52=20180417-19:33:29.454|56=TRAX|10=031|8=FIX.4.4|9=59|35=0|34=472|49=QA3APA_4.4|52=20180417-19:33:59.454|56=TRAX|10=035|8=FIX.4.4|9=59|35=0|34=473|49=QA3APA_4.4|52=20180417-19:34:30.455|56=TRAX|10=027|8=FIX.4.4|9=59|35=0|34=474|49=QA3APA_4.4|52=20180417-19:35:01.464|56=TRAX|10=027|8=FIX.4.4|9=59|35=0|34=475|49=QA3APA_4.4|52=20180417-19:35:32.460|56=TRAX|10=028|8=FIX.4.4|9=59|35=0|34=476|49=QA3APA_4.4|52=20180417-19:36:02.462|56=TRAX|10=029|8=FIX.4.4|9=59|35=0|34=477|49=QA3APA_4.4|52=20180417-19:36:33.452|56=TRAX|10=033|8=FIX.4.4|9=59|35=0|34=478|49=QA3APA_4.4|52=20180417-19:37:03.464|56=TRAX|10=035|8=FIX.4.4|9=59|35=0|34=479|49=QA3APA_4.4|52=20180417-19:37:34.455|56=TRAX|10=040|8=FIX.4.4|9=59|35=0|34=480|49=QA3APA_4.4|52=20180417-19:38:04.462|56=TRAX|10=028|8=FIX.4.4|9=59|35=0|34=481|49=QA3APA_4.4|52=20180417-19:38:35.439|56=TRAX|10=037|8=FIX.4.4|9=59|35=0|34=482|49=QA3APA_4.4|52=20180417-19:39:05.445|56=TRAX|10=033|8=FIX.4.4|9=59|35=0|34=483|49=QA3APA_4.4|52=20180417-19:39:35.454|56=TRAX|10=037|8=FIX.4.4|9=59|35=0|34=484|49=QA3APA_4.4|52=20180417-19:40:06.464|56=TRAX|10=029|8=FIX.4.4|9=59|35=0|34=485|49=QA3APA_4.4|52=20180417-19:40:37.434|56=TRAX|10=031|8=FIX.4.4|9=59|35=0|34=486|49=QA3APA_4.4|52=20180417-19:41:08.435|56=TRAX|10=032|8=FIX.4.4|9=59|35=0|34=487|49=QA3APA_4.4|52=20180417-19:41:38.436|56=TRAX|10=037|8=FIX.4.4|9=59|35=0|34=488|49=QA3APA_4.4|52=20180417-19:42:09.427|56=TRAX|10=037|8=FIX.4.4|9=59|35=0|34=489|49=QA3APA_4.4|52=20180417-19:42:40.416|56=TRAX|10=031|8=FIX.4.4|9=59|35=0|34=490|49=QA3APA_4.4|52=20180417-19:43:10.417|56=TRAX|10=022|8=FIX.4.4|9=59|35=0|34=491|49=QA3APA_4.4|52=20180417-19:43:41.406|56=TRAX|10=025|8=FIX.4.4|9=59|35=0|34=492|49=QA3APA_4.4|52=20180417-19:44:11.416|56=TRAX|10=025|8=FIX.4.4|9=59|35=0|34=493|49=QA3APA_4.4|52=20180417-19:44:42.413|56=TRAX|10=027|8=FIX.4.4|9=59|35=0|34=494|49=QA3APA_4.4|52=20180417-19:45:13.406|56=TRAX|10=029|8=FIX.4.4|9=59|35=0|34=495|49=QA3APA_4.4|52=20180417-19:45:44.401|56=TRAX|10=029|8=FIX.4.4|9=59|35=0|34=496|49=QA3APA_4.4|52=20180417-19:46:14.407|56=TRAX|10=034|8=FIX.4.4|9=59|35=0|34=497|49=QA3APA_4.4|52=20180417-19:46:45.399|56=TRAX|10=049|8=FIX.4.4|9=59|35=0|34=498|49=QA3APA_4.4|52=20180417-19:47:15.929|56=TRAX|10=047|8=FIX.4.4|9=59|35=0|34=499|49=QA3APA_4.4|52=20180417-19:47:46.395|56=TRAX|10=049|8=FIX.4.4|9=59|35=0|34=500|49=QA3APA_4.4|52=20180417-19:48:16.400|56=TRAX|10=017|8=FIX.4.4|9=59|35=0|34=501|49=QA3APA_4.4|52=20180417-19:48:47.397|56=TRAX|10=037|8=FIX.4.4|9=59|35=0|34=502|49=QA3APA_4.4|52=20180417-19:49:17.400|56=TRAX|10=021|8=FIX.4.4|9=59|35=0|34=503|49=QA3APA_4.4|52=20180417-19:49:48.395|56=TRAX|10=039|8=FIX.4.4|9=59|35=0|34=504|49=QA3APA_4.4|52=20180417-19:50:18.404|56=TRAX|10=020|8=FIX.4.4|9=59|35=0|34=505|49=QA3APA_4.4|52=20180417-19:50:49.395|56=TRAX|10=034|8=FIX.4.4|9=59|35=0|34=506|49=QA3APA_4.4|52=20180417-19:51:19.404|56=TRAX|10=024|8=FIX.4.4|9=59|35=0|34=507|49=QA3APA_4.4|52=20180417-19:51:50.401|56=TRAX|10=017|8=FIX.4.4|9=59|35=0|34=508|49=QA3APA_4.4|52=20180417-19:52:20.406|56=TRAX|10=021|8=FIX.4.4|9=59|35=0|34=509|49=QA3APA_4.4|52=20180417-19:52:51.399|56=TRAX|10=037|8=FIX.4.4|9=59|35=0|34=510|49=QA3APA_4.4|52=20180417-19:53:21.400|56=TRAX|10=010|8=FIX.4.4|9=59|35=0|34=511|49=QA3APA_4.4|52=20180417-19:53:52.396|56=TRAX|10=029|8=FIX.4.4|9=59|35=0|34=512|49=QA3APA_4.4|52=20180417-19:54:22.403|56=TRAX|10=017|8=FIX.4.4|9=59|35=0|34=513|49=QA3APA_4.4|52=20180417-19:54:52.407|56=TRAX|10=025|8=FIX.4.4|9=59|35=0|34=514|49=QA3APA_4.4|52=20180417-19:55:23.404|56=TRAX|10=022|8=FIX.4.4|9=59|35=0|34=515|49=QA3APA_4.4|52=20180417-19:55:54.397|56=TRAX|10=038|8=FIX.4.4|9=59|35=0|34=516|49=QA3APA_4.4|52=20180417-19:56:24.405|56=TRAX|10=027|8=FIX.4.4|9=59|35=0|34=517|49=QA3APA_4.4|52=20180417-19:56:54.410|56=TRAX|10=027|8=FIX.4.4|9=59|35=0|34=518|49=QA3APA_4.4|52=20180417-19:57:25.401|56=TRAX|10=027|8=FIX.4.4|9=59|35=0|34=519|49=QA3APA_4.4|52=20180417-19:57:55.410|56=TRAX|10=031|8=FIX.4.4|9=59|35=0|34=520|49=QA3APA_4.4|52=20180417-19:58:25.410|56=TRAX|10=021|8=FIX.4.4|9=59|35=0|34=521|49=QA3APA_4.4|52=20180417-19:58:56.400|56=TRAX|10=025|8=FIX.4.4|9=59|35=0|34=522|49=QA3APA_4.4|52=20180417-19:59:26.412|56=TRAX|10=027|8=FIX.4.4|9=59|35=0|34=523|49=QA3APA_4.4|52=20180417-19:59:57.405|56=TRAX|10=034|8=FIX.4.4|9=59|35=0|34=524|49=QA3APA_4.4|52=20180417-20:00:27.408|56=TRAX|10=013|8=FIX.4.4|9=59|35=0|34=525|49=QA3APA_4.4|52=20180417-20:00:57.408|56=TRAX|10=017|8=FIX.4.4|9=59|35=0|34=526|49=QA3APA_4.4|52=20180417-20:01:27.416|56=TRAX|10=015|8=FIX.4.4|9=59|35=0|34=527|49=QA3APA_4.4|52=20180417-20:01:58.405|56=TRAX|10=018|8=FIX.4.4|9=59|35=0|34=528|49=QA3APA_4.4|52=20180417-20:02:28.409|56=TRAX|10=021|8=FIX.4.4|9=59|35=0|34=529|49=QA3APA_4.4|52=20180417-20:02:58.414|56=TRAX|10=021|8=FIX.4.4|9=59|35=0|34=530|49=QA3APA_4.4|52=20180417-20:03:29.404|56=TRAX|10=011|8=FIX.4.4|9=59|35=0|34=531|49=QA3APA_4.4|52=20180417-20:03:59.412|56=TRAX|10=014|8=FIX.4.4|9=59|35=0|34=532|49=QA3APA_4.4|52=20180417-20:04:29.417|56=TRAX|10=018|8=FIX.4.4|9=59|35=0|34=533|49=QA3APA_4.4|52=20180417-20:05:00.411|56=TRAX|10=003|8=FIX.4.4|9=59|35=0|34=534|49=QA3APA_4.4|52=20180417-20:05:30.411|56=TRAX|10=007|8=FIX.4.4|9=59|35=0|34=535|49=QA3APA_4.4|52=20180417-20:06:01.408|56=TRAX|10=013|8=FIX.4.4|9=59|35=0|34=536|49=QA3APA_4.4|52=20180417-20:06:31.416|56=TRAX|10=016|8=FIX.4.4|9=59|35=0|34=537|49=QA3APA_4.4|52=20180417-20:07:02.406|56=TRAX|10=015|8=FIX.4.4|9=59|35=0|34=538|49=QA3APA_4.4|52=20180417-20:07:32.417|56=TRAX|10=021|8=FIX.4.4|9=59|35=0|34=539|49=QA3APA_4.4|52=20180417-20:08:03.411|56=TRAX|10=015|8=FIX.4.4|9=59|35=0|34=540|49=QA3APA_4.4|52=20180417-20:08:34.409|56=TRAX|10=018|8=FIX.4.4|9=59|35=0|34=541|49=QA3APA_4.4|52=20180417-20:09:04.415|56=TRAX|10=014|8=FIX.4.4|9=59|35=0|34=542|49=QA3APA_4.4|52=20180417-20:09:34.424|56=TRAX|10=018|8=FIX.4.4|9=59|35=0|34=543|49=QA3APA_4.4|52=20180417-20:10:05.415|56=TRAX|10=009|8=FIX.4.4|9=59|35=0|34=544|49=QA3APA_4.4|52=20180417-20:10:35.422|56=TRAX|10=011|8=FIX.4.4|9=59|35=0|34=545|49=QA3APA_4.4|52=20180417-20:11:06.421|56=TRAX|10=010|8=FIX.4.4|9=59|35=0|34=546|49=QA3APA_4.4|52=20180417-20:11:37.425|56=TRAX|10=019|8=FIX.4.4|9=59|35=0|34=547|49=QA3APA_4.4|52=20180417-20:12:08.422|56=TRAX|10=016|8=FIX.4.4|9=59|35=0|34=548|49=QA3APA_4.4|52=20180417-20:12:39.413|56=TRAX|10=021|8=FIX.4.4|9=59|35=0|34=549|49=QA3APA_4.4|52=20180417-20:13:09.427|56=TRAX|10=025|8=FIX.4.4|9=59|35=0|34=550|49=QA3APA_4.4|52=20180417-20:13:40.420|56=TRAX|10=005|8=FIX.4.4|9=59|35=0|34=551|49=QA3APA_4.4|52=20180417-20:14:10.422|56=TRAX|10=006|8=FIX.4.4|9=59|35=0|34=552|49=QA3APA_4.4|52=20180417-20:14:40.426|56=TRAX|10=014|8=FIX.4.4|9=59|35=0|34=553|49=QA3APA_4.4|52=20180417-20:15:11.415|56=TRAX|10=012|8=FIX.4.4|9=59|35=0|34=554|49=QA3APA_4.4|52=20180417-20:15:42.425|56=TRAX|10=018|8=FIX.4.4|9=59|35=0|34=555|49=QA3APA_4.4|52=20180417-20:16:13.430|56=TRAX|10=014|8=FIX.4.4|9=59|35=0|34=556|49=QA3APA_4.4|52=20180417-20:16:44.427|56=TRAX|10=025|8=FIX.4.4|9=59|35=0|34=557|49=QA3APA_4.4|52=20180417-20:17:14.428|56=TRAX|10=025|8=FIX.4.4|9=59|35=0|34=558|49=QA3APA_4.4|52=20180417-20:17:45.421|56=TRAX|10=023|8=FIX.4.4|9=59|35=0|34=559|49=QA3APA_4.4|52=20180417-20:18:15.422|56=TRAX|10=023|8=FIX.4.4|9=59|35=0|34=560|49=QA3APA_4.4|52=20180417-20:18:45.428|56=TRAX|10=024|8=FIX.4.4|9=59|35=0|34=561|49=QA3APA_4.4|52=20180417-20:19:15.908|56=TRAX|10=026|8=FIX.4.4|9=59|35=0|34=562|49=QA3APA_4.4|52=20180417-20:19:45.927|56=TRAX|10=031|8=FIX.4.4|9=59|35=0|34=563|49=QA3APA_4.4|52=20180417-20:20:16.433|56=TRAX|10=014|8=FIX.4.4|9=59|35=0|34=564|49=QA3APA_4.4|52=20180417-20:20:47.422|56=TRAX|10=017|8=FIX.4.4|9=59|35=0|34=565|49=QA3APA_4.4|52=20180417-20:21:17.423|56=TRAX|10=017|8=FIX.4.4|9=59|35=0|34=566|49=QA3APA_4.4|52=20180417-20:21:47.430|56=TRAX|10=019|8=FIX.4.4|9=59|35=0|34=567|49=QA3APA_4.4|52=20180417-20:22:18.423|56=TRAX|10=021|8=FIX.4.4|9=59|35=0|34=568|49=QA3APA_4.4|52=20180417-20:22:48.428|56=TRAX|10=030|8=FIX.4.4|9=59|35=0|34=569|49=QA3APA_4.4|52=20180417-20:23:18.436|56=TRAX|10=028|8=FIX.4.4|9=59|35=0|34=570|49=QA3APA_4.4|52=20180417-20:23:49.428|56=TRAX|10=025|8=FIX.4.4|9=59|35=0|34=571|49=QA3APA_4.4|52=20180417-20:24:19.439|56=TRAX|10=026|8=FIX.4.4|9=59|35=0|34=572|49=QA3APA_4.4|52=20180417-20:24:50.429|56=TRAX|10=021|8=FIX.4.4|9=59|35=0|34=573|49=QA3APA_4.4|52=20180417-20:25:20.436|56=TRAX|10=018|8=FIX.4.4|9=59|35=0|34=574|49=QA3APA_4.4|52=20180417-20:25:51.428|56=TRAX|10=024|8=FIX.4.4|9=59|35=0|34=575|49=QA3APA_4.4|52=20180417-20:26:21.436|56=TRAX|10=022|8=FIX.4.4|9=59|35=0|34=576|49=QA3APA_4.4|52=20180417-20:26:52.429|56=TRAX|10=029|8=FIX.4.4|9=59|35=0|34=577|49=QA3APA_4.4|52=20180417-20:27:22.434|56=TRAX|10=024|8=FIX.4.4|9=59|35=0|34=578|49=QA3APA_4.4|52=20180417-20:27:52.440|56=TRAX|10=025|8=FIX.4.4|9=59|35=0|34=579|49=QA3APA_4.4|52=20180417-20:28:23.433|56=TRAX|10=027|8=FIX.4.4|9=59|35=0|34=580|49=QA3APA_4.4|52=20180417-20:28:53.439|56=TRAX|10=028|8=FIX.4.4|9=59|35=0|34=581|49=QA3APA_4.4|52=20180417-20:29:24.430|56=TRAX|10=019|8=FIX.4.4|9=59|35=0|34=582|49=QA3APA_4.4|52=20180417-20:29:54.436|56=TRAX|10=029|8=FIX.4.4|9=59|35=0|34=583|49=QA3APA_4.4|52=20180417-20:30:25.433|56=TRAX|10=017|8=FIX.4.4|9=59|35=0|34=584|49=QA3APA_4.4|52=20180417-20:30:55.438|56=TRAX|10=026|8=FIX.4.4|9=59|35=0|34=585|49=QA3APA_4.4|52=20180417-20:31:26.436|56=TRAX|10=024|8=FIX.4.4|9=59|35=0|34=586|49=QA3APA_4.4|52=20180417-20:31:56.445|56=TRAX|10=028|8=FIX.4.4|9=59|35=0|34=587|49=QA3APA_4.4|52=20180417-20:32:27.436|56=TRAX|10=028|8=FIX.4.4|9=59|35=0|34=588|49=QA3APA_4.4|52=20180417-20:32:57.448|56=TRAX|10=035|8=FIX.4.4|9=59|35=0|34=589|49=QA3APA_4.4|52=20180417-20:33:28.438|56=TRAX|10=034|8=FIX.4.4|9=59|35=0|34=590|49=QA3APA_4.4|52=20180417-20:33:59.448|56=TRAX|10=031|8=FIX.4.4|9=59|35=0|34=591|49=QA3APA_4.4|52=20180417-20:34:30.450|56=TRAX|10=015|8=FIX.4.4|9=59|35=0|34=592|49=QA3APA_4.4|52=20180417-20:35:01.436|56=TRAX|10=019|8=FIX.4.4|9=59|35=0|34=593|49=QA3APA_4.4|52=20180417-20:35:31.445|56=TRAX|10=023|8=FIX.4.4|9=59|35=0|34=594|49=QA3APA_4.4|52=20180417-20:36:02.451|56=TRAX|10=020|8=FIX.4.4|9=59|35=0|34=595|49=QA3APA_4.4|52=20180417-20:36:32.451|56=TRAX|10=024|8=FIX.4.4|9=59|35=0|34=596|49=QA3APA_4.4|52=20180417-20:37:03.451|56=TRAX|10=024|8=FIX.4.4|9=59|35=0|34=597|49=QA3APA_4.4|52=20180417-20:37:34.445|56=TRAX|10=032|8=FIX.4.4|9=59|35=0|34=598|49=QA3APA_4.4|52=20180417-20:38:04.448|56=TRAX|10=034|8=FIX.4.4|9=59|35=0|34=599|49=QA3APA_4.4|52=20180417-20:38:35.438|56=TRAX|10=038|8=FIX.4.4|9=59|35=0|34=600|49=QA3APA_4.4|52=20180417-20:39:05.442|56=TRAX|10=014|8=FIX.4.4|9=59|35=0|34=601|49=QA3APA_4.4|52=20180417-20:39:35.444|56=TRAX|10=020|8=FIX.4.4|9=59|35=0|34=602|49=QA3APA_4.4|52=20180417-20:40:05.447|56=TRAX|10=013|8=FIX.4.4|9=59|35=0|34=603|49=QA3APA_4.4|52=20180417-20:40:35.452|56=TRAX|10=013|8=FIX.4.4|9=59|35=0|34=604|49=QA3APA_4.4|52=20180417-20:41:05.456|56=TRAX|10=016|8=FIX.4.4|9=59|35=0|34=605|49=QA3APA_4.4|52=20180417-20:41:36.455|56=TRAX|10=020|8=FIX.4.4|9=59|35=0|34=606|49=QA3APA_4.4|52=20180417-20:42:07.443|56=TRAX|10=017|8=FIX.4.4|9=59|35=0|34=607|49=QA3APA_4.4|52=20180417-20:42:37.453|56=TRAX|10=022|8=FIX.4.4|9=59|35=0|34=608|49=QA3APA_4.4|52=20180417-20:43:07.456|56=TRAX|10=024|8=FIX.4.4|9=59|35=0|34=609|49=QA3APA_4.4|52=20180417-20:43:38.446|56=TRAX|10=028|8=FIX.4.4|9=59|35=0|34=610|49=QA3APA_4.4|52=20180417-20:44:08.452|56=TRAX|10=015|8=FIX.4.4|9=59|35=0|34=611|49=QA3APA_4.4|52=20180417-20:44:39.448|56=TRAX|10=025|8=FIX.4.4|9=59|35=0|34=612|49=QA3APA_4.4|52=20180417-20:45:09.457|56=TRAX|10=024|8=FIX.4.4|9=59|35=0|34=613|49=QA3APA_4.4|52=20180417-20:45:39.459|56=TRAX|10=030|8=FIX.4.4|9=59|35=0|34=614|49=QA3APA_4.4|52=20180417-20:46:10.448|56=TRAX|10=019|8=FIX.4.4|9=59|35=0|34=615|49=QA3APA_4.4|52=20180417-20:46:40.456|56=TRAX|10=022|8=FIX.4.4|9=59|35=0|34=616|49=QA3APA_4.4|52=20180417-20:47:11.446|56=TRAX|10=021|8=FIX.4.4|9=59|35=0|34=617|49=QA3APA_4.4|52=20180417-20:47:41.455|56=TRAX|10=025|8=FIX.4.4|9=59|35=0|34=618|49=QA3APA_4.4|52=20180417-20:48:12.457|56=TRAX|10=027|8=FIX.4.4|9=59|35=0|34=619|