8=FIX.4.4|9=91|35=A|34=1|49=T1Kauaiblk6|52=20210906-09:30:49.523|56=MA|98=0|108=90|95=8|96=3.0.0rc5|141=Y|10=049|8=FIX.4.4|9=713|35=E|34=2|49=T1Kauaiblk6|52=20210906-09:30:53.858|56=MA|66=ListID-041321-rodrigo-17798|394=2|68=5|73=5|11=ClOrdID-17799|22=4|38=100000|44=100|48=US06051GEN51|54=1|55=[N/A/]|63=3|67=1|423=1|29726=100.25|453=1|448=T1Kauaiblk6|447=C|452=11|11=ClOrdID-17800|22=4|38=100000|44=101|48=US40434AAB52|54=1|55=[N/A]|63=3|67=2|29726=101.25|11=ClOrdID-17801|22=4|38=130000|44=102|48=US95709TAH32|54=1|55=[N/A/]|63=3|67=1|29726=102.25|453=1|448=T1Kauaiblk6|447=C|452=11|11=ClOrdID-17802|22=4|38=250000|44=103|48=US427866AZ15|54=1|55=[N/A/]|63=3|67=1|29726=103.25|453=1|448=T1Kauaiblk6|447=C|452=11|11=ClOrdID-17803|22=4|38=350000|44=104|48=US29379VAW37|54=1|55=[N/A/]|63=3|67=1|29726=104.25|453=1|448=T1Kauaiblk6|447=C|452=11|10=015|8=FIX.4.4|9=2373|35=E|34=3|49=T1Kauaiblk6|52=20210906-09:30:55.690|56=MA|66=ListID-050221-17804|394=2|68=20|73=20|11=ClOrdID-17805|22=4|38=1000000|44=100.202|48=US06051GEN51|54=1|55=[N/A/]|67=1|423=1|29726=100.262|453=1|448=T1Kauaiblk6|447=C|452=11|11=ClOrdID-17806|22=4|38=2000000|44=99.23|48=US40434AAB52|54=1|55=[N/A]|67=2|423=1|29726=100.262|11=ClOrdID-17807|22=4|38=1300000|44=100.1|48=US06738JYZ10|54=1|55=[N/A/]|67=3|423=1|29726=99.555|453=1|448=T1Kauaiblk6|447=C|452=11|11=ClOrdID-17808|22=4|38=2500000|44=98.253|48=US95709TAH32|54=1|55=[N/A/]|67=4|423=1|29726=101.225|453=1|448=T1Kauaiblk6|447=C|452=11|11=ClOrdID-17809|22=4|38=3000000|44=100.235|48=US29379VAW37|54=1|55=[N/A/]|67=5|423=1|29726=99.66|453=1|448=T1Kauaiblk6|447=C|452=11|11=ClOrdID-17810|22=4|38=1000000|44=101.123|48=US48121ECC49|54=1|55=[N/A/]|67=6|423=1|29726=100.601|453=1|448=T1Kauaiblk6|447=C|452=11|11=ClOrdID-17811|22=4|38=3500000|44=102.32|48=US983024AL46|54=1|55=[N/A/]|67=7|423=1|453=1|448=T1Kauaiblk6|447=C|452=11|11=ClOrdID-17812|22=4|38=4500000|48=US61166WAE12|54=1|55=[N/A/]|67=8|453=1|448=T1Kauaiblk6|447=C|452=11|11=ClOrdID-17813|22=4|38=350000|48=US000828JAM09|54=1|55=[N/A/]|67=9|453=1|448=T1Kauaiblk6|447=C|452=11|11=ClOrdID-17814|22=4|38=1000000|48=US62630CAR25|54=1|55=[N/A/]|67=10|453=1|448=T1Kauaiblk6|447=C|452=11|11=ClOrdID-17815|22=4|38=1000000|48=US05379BAK35|54=1|55=[N/A/]|67=11|453=1|448=T1Kauaiblk6|447=C|452=11|11=ClOrdID-17816|22=4|38=1000000|48=US368710AC32|54=1|55=[N/A/]|67=12|453=1|448=T1Kauaiblk6|447=C|452=11|11=ClOrdID-17817|22=4|38=200000|48=XS1186833239|54=1|55=[N/A/]|67=13|453=1|448=T1Kauaiblk6|447=C|452=11|11=ClOrdID-17818|22=4|38=350000|48=US842400FC28|54=1|55=[N/A/]|67=14|453=1|448=T1Kauaiblk6|447=C|452=11|11=ClOrdID-17819|22=4|38=5000000|48=US927804FA70|54=1|55=[N/A/]|67=15|453=1|448=T1Kauaiblk6|447=C|452=11|11=ClOrdID-17820|22=4|38=500000|48=US472319AC60|54=1|55=[N/A/]|67=16|453=1|448=T1Kauaiblk6|447=C|452=11|11=ClOrdID-17821|22=4|38=700000|44=99.992|48=US93884PDN78|54=1|55=[N/A/]|67=17|423=1|453=1|448=T1Kauaiblk6|447=C|452=11|11=ClOrdID-17822|22=4|38=8000000|48=US06050XWS88|54=1|55=[N/A/]|67=8|453=1|448=T1Kauaiblk6|447=C|452=11|11=ClOrdID-17823|22=4|38=1000000|44=98.985|48=US87425EAJ29|54=1|55=[N/A/]|67=19|423=1|453=1|448=T1Kauaiblk6|447=C|452=11|11=ClOrdID-17824|22=4|38=2000000|48=US816300AG24|54=1|55=[N/A/]|67=20|453=1|448=T1Kauaiblk6|447=C|452=11|10=072|8=FIX.4.4|9=56|35=0|34=4|49=T1Kauaiblk6|52=20210906-09:32:26.516|56=MA|10=077|8=FIX.4.4|9=56|35=0|34=5|49=T1Kauaiblk6|52=20210906-09:33:56.517|56=MA|10=083|8=FIX.4.4|9=56|35=0|34=6|49=T1Kauaiblk6|52=20210906-09:35:27.523|56=MA|10=081|8=FIX.4.4|9=56|35=0|34=7|49=T1Kauaiblk6|52=20210906-09:36:57.527|56=MA|10=090|8=FIX.4.4|9=56|35=0|34=8|49=T1Kauaiblk6|52=20210906-09:38:27.529|56=MA|10=092|8=FIX.4.4|9=56|35=0|34=9|49=T1Kauaiblk6|52=20210906-09:39:58.526|56=MA|10=095|8=FIX.4.4|9=57|35=0|34=10|49=T1Kauaiblk6|52=20210906-09:41:29.523|56=MA|10=124|8=FIX.4.4|9=57|35=0|34=11|49=T1Kauaiblk6|52=20210906-09:43:00.282|56=MA|10=118|8=FIX.4.4|9=57|35=0|34=12|49=T1Kauaiblk6|52=20210906-09:44:30.282|56=MA|10=123|8=FIX.4.4|9=57|35=0|34=13|49=T1Kauaiblk6|52=20210906-09:46:00.484|56=MA|10=127|8=FIX.4.4|9=57|35=0|34=14|49=T1Kauaiblk6|52=20210906-09:47:30.530|56=MA|10=124|8=FIX.4.4|9=57|35=0|34=15|49=T1Kauaiblk6|52=20210906-09:49:01.436|56=MA|10=130|8=FIX.4.4|9=57|35=0|34=16|49=T1Kauaiblk6|52=20210906-09:50:31.523|56=MA|10=123|8=FIX.4.4|9=57|35=0|34=17|49=T1Kauaiblk6|52=20210906-09:52:01.531|56=MA|10=122|8=FIX.4.4|9=57|35=0|34=18|49=T1Kauaiblk6|52=20210906-09:53:32.520|56=MA|10=126|8=FIX.4.4|9=57|35=0|34=19|49=T1Kauaiblk6|52=20210906-09:55:02.522|56=MA|10=128|8=FIX.4.4|9=57|35=0|34=20|49=T1Kauaiblk6|52=20210906-09:56:32.530|56=MA|10=123|8=FIX.4.4|9=57|35=0|34=21|49=T1Kauaiblk6|52=20210906-09:58:02.532|56=MA|10=125|8=FIX.4.4|9=57|35=0|34=22|49=T1Kauaiblk6|52=20210906-09:59:33.519|56=MA|10=136|8=FIX.4.4|9=57|35=0|34=23|49=T1Kauaiblk6|52=20210906-10:01:03.531|56=MA|10=107|8=FIX.4.4|9=57|35=0|34=24|49=T1Kauaiblk6|52=20210906-10:02:34.525|56=MA|10=116|8=FIX.4.4|9=57|35=0|34=25|49=T1Kauaiblk6|52=20210906-10:04:05.523|56=MA|10=115|8=FIX.4.4|9=57|35=0|34=26|49=T1Kauaiblk6|52=20210906-10:05:36.519|56=MA|10=126|8=FIX.4.4|9=57|35=0|34=27|49=T1Kauaiblk6|52=20210906-10:07:06.522|56=MA|10=120|8=FIX.4.4|9=57|35=0|34=28|49=T1Kauaiblk6|52=20210906-10:08:36.526|56=MA|10=129|8=FIX.4.4|9=57|35=0|34=29|49=T1Kauaiblk6|52=20210906-10:10:06.529|56=MA|10=123|8=FIX.4.4|9=57|35=0|34=30|49=T1Kauaiblk6|52=20210906-10:11:36.529|56=MA|10=119|8=FIX.4.4|9=57|35=0|34=31|49=T1Kauaiblk6|52=20210906-10:13:06.531|56=MA|10=112|8=FIX.4.4|9=57|35=0|34=32|49=T1Kauaiblk6|52=20210906-10:14:36.531|56=MA|10=117|8=FIX.4.4|9=57|35=0|34=33|49=T1Kauaiblk6|52=20210906-10:16:06.533|56=MA|10=119|8=FIX.4.4|9=57|35=0|34=34|49=T1Kauaiblk6|52=20210906-10:17:37.532|56=MA|10=124|8=FIX.4.4|9=57|35=0|34=35|49=T1Kauaiblk6|52=20210906-10:19:07.533|56=MA|10=125|8=FIX.4.4|9=57|35=0|34=36|49=T1Kauaiblk6|52=20210906-10:20:37.533|56=MA|10=121|8=FIX.4.4|9=57|35=0|34=37|49=T1Kauaiblk6|52=20210906-10:22:07.533|56=MA|10=121|8=FIX.4.4|9=57|35=0|34=38|49=T1Kauaiblk6|52=20210906-10:23:37.534|56=MA|10=127|8=FIX.4.4|9=57|35=0|34=39|49=T1Kauaiblk6|52=20210906-10:25:07.535|56=MA|10=128|8=FIX.4.4|9=57|35=0|34=40|49=T1Kauaiblk6|52=20210906-10:26:37.535|56=MA|10=124|8=FIX.4.4|9=57|35=0|34=41|49=T1Kauaiblk6|52=20210906-10:28:07.538|56=MA|10=127|8=FIX.4.4|9=57|35=0|34=42|49=T1Kauaiblk6|52=20210906-10:29:38.538|56=MA|10=133|8=FIX.4.4|9=57|35=0|34=43|49=T1Kauaiblk6|52=20210906-10:31:09.537|56=MA|10=124|8=FIX.4.4|9=57|35=0|34=44|49=T1Kauaiblk6|52=20210906-10:32:39.538|56=MA|10=130|8=FIX.4.4|9=57|35=0|34=45|49=T1Kauaiblk6|52=20210906-10:34:09.539|56=MA|10=131|8=FIX.4.4|9=57|35=0|34=46|49=T1Kauaiblk6|52=20210906-10:35:39.539|56=MA|10=136|8=FIX.4.4|9=57|35=0|34=47|49=T1Kauaiblk6|52=20210906-10:37:10.538|56=MA|10=127|8=FIX.4.4|9=57|35=0|34=48|49=T1Kauaiblk6|52=20210906-10:38:40.538|56=MA|10=132|8=FIX.4.4|9=57|35=0|34=49|49=T1Kauaiblk6|52=20210906-10:40:10.540|56=MA|10=116|8=FIX.4.4|9=57|35=0|34=50|49=T1Kauaiblk6|52=20210906-10:41:40.540|56=MA|10=112|8=FIX.4.4|9=57|35=0|34=51|49=T1Kauaiblk6|52=20210906-10:43:10.543|56=MA|10=115|8=FIX.4.4|9=57|35=0|34=52|49=T1Kauaiblk6|52=20210906-10:44:40.543|56=MA|10=120|8=FIX.4.4|9=57|35=0|34=53|49=T1Kauaiblk6|52=20210906-10:46:10.544|56=MA|10=121|8=FIX.4.4|9=57|35=0|34=54|49=T1Kauaiblk6|52=20210906-10:47:40.546|56=MA|10=128|8=FIX.4.4|9=57|35=0|34=55|49=T1Kauaiblk6|52=20210906-10:49:10.546|56=MA|10=128|8=FIX.4.4|9=57|35=0|34=56|49=T1Kauaiblk6|52=20210906-10:50:41.545|56=MA|10=124|8=FIX.4.4|9=57|35=0|34=57|49=T1Kauaiblk6|52=20210906-10:52:11.547|56=MA|10=126|8=FIX.4.4|9=57|35=0|34=58|49=T1Kauaiblk6|52=20210906-10:53:42.547|56=MA|10=132|8=FIX.4.4|9=57|35=0|34=59|49=T1Kauaiblk6|52=20210906-10:55:13.547|56=MA|10=133|8=FIX.4.4|9=57|35=0|34=60|49=T1Kauaiblk6|52=20210906-10:56:43.560|56=MA|10=124|8=FIX.4.4|9=57|35=0|34=61|49=T1Kauaiblk6|52=20210906-10:58:14.548|56=MA|10=131|8=FIX.4.4|9=57|35=0|34=62|49=T1Kauaiblk6|52=20210906-10:59:44.559|56=MA|10=138|8=FIX.4.4|9=57|35=0|34=63|49=T1Kauaiblk6|52=20210906-11:01:15.549|56=MA|10=124|8=FIX.4.4|9=57|35=0|34=64|49=T1Kauaiblk6|52=20210906-11:02:45.552|56=MA|10=123|8=FIX.4.4|9=57|35=0|34=65|49=T1Kauaiblk6|52=20210906-11:04:15.558|56=MA|10=129|8=FIX.4.4|9=57|35=0|34=66|49=T1Kauaiblk6|52=20210906-11:05:46.546|56=MA|10=132|8=FIX.4.4|9=57|35=0|34=67|49=T1Kauaiblk6|52=20210906-11:07:16.547|56=MA|10=133|8=FIX.4.4|9=57|35=0|34=68|49=T1Kauaiblk6|52=20210906-11:08:46.548|56=MA|10=139|8=FIX.4.4|9=57|35=0|34=69|49=T1Kauaiblk6|52=20210906-11:10:17.548|56=MA|10=131|8=FIX.4.4|9=57|35=0|34=70|49=T1Kauaiblk6|52=20210906-11:11:47.548|56=MA|10=127|8=FIX.4.4|9=57|35=0|34=71|49=T1Kauaiblk6|52=20210906-11:13:17.548|56=MA|10=127|8=FIX.4.4|9=57|35=0|34=72|49=T1Kauaiblk6|52=20210906-11:14:47.548|56=MA|10=132|8=FIX.4.4|9=57|35=0|34=73|49=T1Kauaiblk6|52=20210906-11:16:17.548|56=MA|10=132|8=FIX.4.4|9=57|35=0|34=74|49=T1Kauaiblk6|52=20210906-11:17:47.549|56=MA|10=138|8=FIX.4.4|9=57|35=0|34=75|49=T1Kauaiblk6|52=20210906-11:19:17.550|56=MA|10=130|8=FIX.4.4|9=57|35=0|34=76|49=T1Kauaiblk6|52=20210906-11:20:47.552|56=MA|10=128|8=FIX.4.4|9=57|35=0|34=77|49=T1Kauaiblk6|52=20210906-11:22:17.553|56=MA|10=129|8=FIX.4.4|9=57|35=0|34=78|49=T1Kauaiblk6|52=20210906-11:23:48.554|56=MA|10=136|8=FIX.4.4|9=57|35=0|34=79|49=T1Kauaiblk6|52=20210906-11:25:18.554|56=MA|10=136|8=FIX.4.4|9=57|35=0|34=80|49=T1Kauaiblk6|52=20210906-11:26:48.554|56=MA|10=132|8=FIX.4.4|9=57|35=0|34=81|49=T1Kauaiblk6|52=20210906-11:28:18.554|56=MA|10=132|8=FIX.4.4|9=57|35=0|34=82|49=T1Kauaiblk6|52=20210906-11:29:48.555|56=MA|10=138|8=FIX.4.4|9=57|35=0|34=83|49=T1Kauaiblk6|52=20210906-11:31:19.554|56=MA|10=129|8=FIX.4.4|9=57|35=0|34=84|49=T1Kauaiblk6|52=20210906-11:32:49.556|56=MA|10=136|8=FIX.4.4|9=57|35=0|34=85|49=T1Kauaiblk6|52=20210906-11:34:19.556|56=MA|10=136|8=FIX.4.4|9=57|35=0|34=86|49=T1Kauaiblk6|52=20210906-11:35:50.555|56=MA|10=132|8=FIX.4.4|9=57|35=0|34=87|49=T1Kauaiblk6|52=20210906-11:37:20.555|56=MA|10=132|8=FIX.4.4|9=57|35=0|34=88|49=T1Kauaiblk6|52=20210906-11:38:50.556|56=MA|10=138|8=FIX.4.4|9=57|35=0|34=89|49=T1Kauaiblk6|52=20210906-11:40:20.571|56=MA|10=126|8=FIX.4.4|9=57|35=0|34=90|49=T1Kauaiblk6|52=20210906-11:41:51.566|56=MA|10=127|8=FIX.4.4|9=57|35=0|34=91|49=T1Kauaiblk6|52=20210906-11:43:22.565|56=MA|10=127|8=FIX.4.4|9=57|35=0|34=92|49=T1Kauaiblk6|52=20210906-11:44:52.568|56=MA|10=135|8=FIX.4.4|9=57|35=0|34=93|49=T1Kauaiblk6|52=20210906-11:46:23.569|56=MA|10=137|8=FIX.4.4|9=57|35=0|34=94|49=T1Kauaiblk6|52=20210906-11:47:53.571|56=MA|10=135|8=FIX.4.4|9=57|35=0|34=95|49=T1Kauaiblk6|52=20210906-11:49:24.565|56=MA|10=139|8=FIX.4.4|9=57|35=0|34=96|49=T1Kauaiblk6|52=20210906-11:50:55.557|56=MA|10=137|8=FIX.4.4|9=57|35=0|34=97|49=T1Kauaiblk6|52=20210906-11:52:25.570|56=MA|10=132|8=FIX.4.4|9=57|35=0|34=98|49=T1Kauaiblk6|52=20210906-11:53:56.565|56=MA|10=142|8=FIX.4.4|9=57|35=0|34=99|49=T1Kauaiblk6|52=20210906-11:55:26.567|56=MA|10=144|8=FIX.4.4|9=58|35=0|34=100|49=T1Kauaiblk6|52=20210906-11:56:57.557|56=MA|10=180|8=FIX.4.4|9=58|35=0|34=101|49=T1Kauaiblk6|52=20210906-11:58:27.564|56=MA|10=178|8=FIX.4.4|9=58|35=0|34=102|49=T1Kauaiblk6|52=20210906-11:59:57.565|56=MA|10=184|8=FIX.4.4|9=58|35=0|34=103|49=T1Kauaiblk6|52=20210906-12:01:28.556|56=MA|10=171|8=FIX.4.4|9=58|35=0|34=104|49=T1Kauaiblk6|52=20210906-12:02:58.570|56=MA|10=172|8=FIX.4.4|9=58|35=0|34=105|49=T1Kauaiblk6|52=20210906-12:04:29.563|56=MA|10=175|8=FIX.4.4|9=58|35=0|34=106|49=T1Kauaiblk6|52=20210906-12:05:59.566|56=MA|10=183|8=FIX.4.4|9=58|35=0|34=107|49=T1Kauaiblk6|52=20210906-12:07:30.560|56=MA|10=169|8=FIX.4.4|9=58|35=0|34=108|49=T1Kauaiblk6|52=20210906-12:09:00.564|56=MA|10=173|8=FIX.4.4|9=58|35=0|34=109|49=T1Kauaiblk6|52=20210906-12:10:30.565|56=MA|10=170|8=FIX.4.4|9=58|35=0|34=110|49=T1Kauaiblk6|52=20210906-12:12:00.569|56=MA|10=165|8=FIX.4.4|9=58|35=0|34=111|49=T1Kauaiblk6|52=20210906-12:13:31.560|56=MA|10=162|8=FIX.4.4|9=58|35=0|34=112|49=T1Kauaiblk6|52=20210906-12:15:01.562|56=MA|10=164|8=FIX.4.4|9=58|35=0|34=113|49=T1Kauaiblk6|52=20210906-12:16:32.563|56=MA|10=171|8=FIX.4.4|9=58|35=0|34=114|49=T1Kauaiblk6|52=20210906-12:18:03.564|56=MA|10=173|8=FIX.4.4|9=58|35=0|34=115|49=T1Kauaiblk6|52=20210906-12:19:34.556|56=MA|10=180|8=FIX.4.4|9=58|35=0|34=116|49=T1Kauaiblk6|52=20210906-12:21:04.566|56=MA|10=172|8=FIX.4.4|9=58|35=0|34=117|49=T1Kauaiblk6|52=20210906-12:22:34.568|56=MA|10=179|8=FIX.4.4|9=58|35=0|34=118|49=T1Kauaiblk6|52=20210906-12:24:05.566|56=MA|10=178|8=FIX.4.4|9=58|35=0|34=119|49=T1Kauaiblk6|52=20210906-12:25:35.576|56=MA|10=184|8=FIX.4.4|9=58|35=0|34=120|49=T1Kauaiblk6|52=20210906-12:27:06.576|56=MA|10=176|8=FIX.4.4|9=58|35=0|34=121|49=T1Kauaiblk6|52=20210906-12:28:37.572|56=MA|10=178|8=FIX.4.4|9=58|35=0|34=122|49=T1Kauaiblk6|52=20210906-12:30:07.576|56=MA|10=173|8=FIX.4.4|9=58|35=0|34=123|49=T1Kauaiblk6|52=20210906-12:31:37.582|56=MA|10=175|8=FIX.4.4|9=58|35=0|34=124|49=T1Kauaiblk6|52=20210906-12:33:08.572|56=MA|10=175|8=FIX.4.4|9=58|35=0|34=125|49=T1Kauaiblk6|52=20210906-12:34:38.574|56=MA|10=182|8=FIX.4.4|9=58|35=0|34=126|49=T1Kauaiblk6|52=20210906-12:36:08.575|56=MA|10=183|8=FIX.4.4|9=58|35=0|34=127|49=T1Kauaiblk6|52=20210906-12:37:38.575|56=MA|10=188|8=FIX.4.4|9=58|35=0|34=128|49=T1Kauaiblk6|52=20210906-12:39:08.576|56=MA|10=189|8=FIX.4.4|9=58|35=0|34=129|49=T1Kauaiblk6|52=20210906-12:40:38.578|56=MA|10=187|8=FIX.4.4|9=58|35=0|34=130|49=T1Kauaiblk6|52=20210906-12:42:08.579|56=MA|10=179|8=FIX.4.4|9=58|35=0|34=131|49=T1Kauaiblk6|52=20210906-12:43:38.596|56=MA|10=183|8=FIX.4.4|9=58|35=0|34=132|49=T1Kauaiblk6|52=20210906-12:45:09.590|56=MA|10=178|8=FIX.4.4|9=58|35=0|34=133|49=T1Kauaiblk6|52=20210906-12:46:40.581|56=MA|10=175|8=FIX.4.4|9=58|35=0|34=134|49=T1Kauaiblk6|52=20210906-12:48:10.582|56=MA|10=176|8=FIX.4.4|9=58|35=0|34=135|49=T1Kauaiblk6|52=20210906-12:49:40.583|56=MA|10=182|8=FIX.4.4|9=58|35=0|34=136|49=T1Kauaiblk6|52=20210906-12:51:10.583|56=MA|10=173|8=FIX.4.4|9=58|35=0|34=137|49=T1Kauaiblk6|52=20210906-12:52:40.583|56=MA|10=178|8=FIX.4.4|9=58|35=0|34=138|49=T1Kauaiblk6|52=20210906-12:54:11.583|56=MA|10=179|8=FIX.4.4|9=58|35=0|34=139|49=T1Kauaiblk6|52=20210906-12:55:41.583|56=MA|10=184|8=FIX.4.4|9=58|35=0|34=140|49=T1Kauaiblk6|52=20210906-12:57:11.584|56=MA|10=176|8=FIX.4.4|9=58|35=0|34=141|49=T1Kauaiblk6|52=20210906-12:58:42.583|56=MA|10=181|8=FIX.4.4|9=58|35=0|34=142|49=T1Kauaiblk6|52=20210906-13:00:12.585|56=MA|10=169|8=FIX.4.4|9=58|35=0|34=143|49=T1Kauaiblk6|52=20210906-13:01:42.587|56=MA|10=176|8=FIX.4.4|9=58|35=0|34=144|49=T1Kauaiblk6|52=20210906-13:03:13.584|56=MA|10=174|8=FIX.4.4|9=58|35=0|34=145|49=T1Kauaiblk6|52=20210906-13:04:43.585|56=MA|10=180|8=FIX.4.4|9=58|35=0|34=146|49=T1Kauaiblk6|52=20210906-13:06:13.585|56=MA|10=180|8=FIX.4.4|9=58|35=0|34=147|49=T1Kauaiblk6|52=20210906-13:07:43.585|56=MA|10=185|8=FIX.4.4|9=58|35=0|34=148|49=T1Kauaiblk6|52=20210906-13:09:13.585|56=MA|10=185|8=FIX.4.4|9=58|35=0|34=149|49=T1Kauaiblk6|52=20210906-13:10:43.586|56=MA|10=182|8=FIX.4.4|9=58|35=0|34=150|49=T1Kauaiblk6|52=20210906-13:12:14.587|56=MA|10=175|8=FIX.4.4|9=58|35=0|34=151|49=T1Kauaiblk6|52=20210906-13:13:45.586|56=MA|10=180|8=FIX.4.4|9=58|35=0|34=152|49=T1Kauaiblk6|52=20210906-13:15:15.586|56=MA|10=180|8=FIX.4.4|9=58|35=0|34=153|49=T1Kauaiblk6|52=20210906-13:16:45.587|56=MA|10=186|8=FIX.4.4|9=58|35=0|34=154|49=T1Kauaiblk6|52=20210906-13:18:16.586|56=MA|10=186|8=FIX.4.4|9=58|35=5|34=155|49=T1Kauaiblk6|52=20210906-13:19:15.311|56=MA|10=178|8=FIX.4.4|9=91|35=A|34=1|49=T1Kauaiblk6|52=20210907-12:32:15.687|56=MA|98=0|108=90|95=8|96=3.0.0rc5|141=Y|10=050|8=FIX.4.4|9=713|35=E|34=2|49=T1Kauaiblk6|52=20210907-12:32:21.350|56=MA|66=ListID-041321-rodrigo-17825|394=2|68=5|73=5|11=ClOrdID-17826|22=4|38=100000|44=100|48=US06051GEN51|54=1|55=[N/A/]|63=3|67=1|423=1|29726=100.25|453=1|448=T1Kauaiblk6|447=C|452=11|11=ClOrdID-17827|22=4|38=100000|44=101|48=US40434AAB52|54=1|55=[N/A]|63=3|67=2|29726=101.25|11=ClOrdID-17828|22=4|38=130000|44=102|48=US95709TAH32|54=1|55=[N/A/]|63=3|67=1|29726=102.25|453=1|448=T1Kauaiblk6|447=C|452=11|11=ClOrdID-17829|22=4|38=250000|44=103|48=US427866AZ15|54=1|55=[N/A/]|63=3|67=1|29726=103.25|453=1|448=T1Kauaiblk6|447=C|452=11|11=ClOrdID-17830|22=4|38=350000|44=104|48=US29379VAW37|54=1|55=[N/A/]|63=3|67=1|29726=104.25|453=1|448=T1Kauaiblk6|447=C|452=11|10=003|8=FIX.4.4|9=56|35=0|34=3|49=T1Kauaiblk6|52=20210907-12:33:51.678|56=MA|10=079|8=FIX.4.4|9=56|35=0|34=4|49=T1Kauaiblk6|52=20210907-12:35:22.470|56=MA|10=070|8=FIX.4.4|9=56|35=0|34=5|49=T1Kauaiblk6|52=20210907-12:36:52.674|56=MA|10=081|8=FIX.4.4|9=56|35=0|34=6|49=T1Kauaiblk6|52=20210907-12:38:22.675|56=MA|10=082|8=FIX.4.4|9=56|35=0|34=7|49=T1Kauaiblk6|52=20210907-12:39:53.298|56=MA|10=089|8=FIX.4.4|9=56|35=0|34=8|49=T1Kauaiblk6|52=20210907-12:41:23.453|56=MA|10=073|8=FIX.4.4|9=56|35=0|34=9|49=T1Kauaiblk6|52=20210907-12:42:53.607|56=MA|10=079|8=FIX.4.4|9=57|35=0|34=10|49=T1Kauaiblk6|52=20210907-12:44:23.676|56=MA|10=125|8=FIX.4.4|9=57|35=0|34=11|49=T1Kauaiblk6|52=20210907-12:45:53.677|56=MA|10=131|8=FIX.4.4|9=57|35=0|34=12|49=T1Kauaiblk6|52=20210907-12:47:24.405|56=MA|10=121|8=FIX.4.4|9=57|35=0|34=13|49=T1Kauaiblk6|52=20210907-12:48:54.448|56=MA|10=133|8=FIX.4.4|9=57|35=0|34=14|49=T1Kauaiblk6|52=20210907-12:50:24.462|56=MA|10=120|8=FIX.4.4|9=57|35=0|34=15|49=T1Kauaiblk6|52=20210907-12:51:54.678|56=MA|10=134|8=FIX.4.4|9=57|35=0|34=16|49=T1Kauaiblk6|52=20210907-12:53:24.681|56=MA|10=128|8=FIX.4.4|9=57|35=0|34=17|49=T1Kauaiblk6|52=20210907-12:54:55.368|56=MA|10=136|8=FIX.4.4|9=57|35=0|34=18|49=T1Kauaiblk6|52=20210907-12:56:25.680|56=MA|10=133|8=FIX.4.4|9=57|35=0|34=19|49=T1Kauaiblk6|52=20210907-12:57:55.681|56=MA|10=139|8=FIX.4.4|9=57|35=0|34=20|49=T1Kauaiblk6|52=20210907-12:59:25.692|56=MA|10=132|8=FIX.4.4|9=57|35=0|34=21|49=T1Kauaiblk6|52=20210907-13:00:55.695|56=MA|10=126|8=FIX.4.4|9=57|35=0|34=22|49=T1Kauaiblk6|52=20210907-13:02:26.683|56=MA|10=124|8=FIX.4.4|9=57|35=0|34=23|49=T1Kauaiblk6|52=20210907-13:03:57.682|56=MA|10=129|8=FIX.4.4|9=57|35=0|34=24|49=T1Kauaiblk6|52=20210907-13:05:27.683|56=MA|10=130|8=FIX.4.4|9=57|35=0|34=25|49=T1Kauaiblk6|52=20210907-13:06:57.683|56=MA|10=135|8=FIX.4.4|9=57|35=0|34=26|49=T1Kauaiblk6|52=20210907-13:08:27.684|56=MA|10=136|8=FIX.4.4|9=57|35=0|34=27|49=T1Kauaiblk6|52=20210907-13:09:58.685|56=MA|10=143|8=FIX.4.4|9=57|35=0|34=28|49=T1Kauaiblk6|52=20210907-13:11:28.685|56=MA|10=134|8=FIX.4.4|9=57|35=0|34=29|49=T1Kauaiblk6|52=20210907-13:12:59.683|56=MA|10=138|8=FIX.4.4|9=57|35=0|34=30|49=T1Kauaiblk6|52=20210907-13:14:29.683|56=MA|10=129|8=FIX.4.4|9=57|35=0|34=31|49=T1Kauaiblk6|52=20210907-13:15:59.685|56=MA|10=136|8=FIX.4.4|9=57|35=0|34=32|49=T1Kauaiblk6|52=20210907-13:17:29.685|56=MA|10=136|8=FIX.4.4|9=57|35=0|34=33|49=T1Kauaiblk6|52=20210907-13:18:59.686|56=MA|10=142|8=FIX.4.4|9=57|35=0|34=34|49=T1Kauaiblk6|52=20210907-13:20:29.686|56=MA|10=133|8=FIX.4.4|9=57|35=0|34=35|49=T1Kauaiblk6|52=20210907-13:21:59.688|56=MA|10=140|8=FIX.4.4|9=57|35=5|34=36|49=T1Kauaiblk6|52=20210907-13:22:44.340|56=MA|10=126|8=FIX.4.4|9=91|35=A|34=1|49=T1Kauaiblk6|52=20210910-13:40:58.415|56=MA|98=0|108=90|95=8|96=3.0.0rc5|141=Y|10=040|8=FIX.4.4|9=713|35=E|34=2|49=T1Kauaiblk6|52=20210910-13:41:02.938|56=MA|66=ListID-041321-rodrigo-17861|394=2|68=5|73=5|11=ClOrdID-17862|22=4|38=100000|44=100|48=US06051GEN51|54=1|55=[N/A/]|63=3|67=1|423=1|29726=100.25|453=1|448=T1Kauaiblk6|447=C|452=11|11=ClOrdID-17863|22=4|38=100000|44=101|48=US40434AAB52|54=1|55=[N/A]|63=3|67=2|29726=101.25|11=ClOrdID-17864|22=4|38=130000|44=102|48=US95709TAH32|54=1|55=[N/A/]|63=3|67=1|29726=102.25|453=1|448=T1Kauaiblk6|447=C|452=11|11=ClOrdID-17865|22=4|38=250000|44=103|48=US427866AZ15|54=1|55=[N/A/]|63=3|67=1|29726=103.25|453=1|448=T1Kauaiblk6|447=C|452=11|11=ClOrdID-17866|22=4|38=350000|44=104|48=US29379VAW37|54=1|55=[N/A/]|63=3|67=1|29726=104.25|453=1|448=T1Kauaiblk6|447=C|452=11|10=018|8=FIX.4.4|9=713|35=E|34=3|49=T1Kauaiblk6|52=20210910-13:41:03.395|56=MA|66=ListID-041321-rodrigo-17867|394=2|68=5|73=5|11=ClOrdID-17868|22=4|38=100000|44=100|48=US06051GEN51|54=1|55=[N/A/]|63=3|67=1|423=1|29726=100.25|453=1|448=T1Kauaiblk6|447=C|452=11|11=ClOrdID-17869|22=4|38=100000|44=101|48=US40434AAB52|54=1|55=[N/A]|63=3|67=2|29726=101.25|11=ClOrdID-17870|22=4|38=130000|44=102|48=US95709TAH32|54=1|55=[N/A/]|63=3|67=1|29726=102.25|453=1|448=T1Kauaiblk6|447=C|452=11|11=ClOrdID-17871|22=4|38=250000|44=103|48=US427866AZ15|54=1|55=[N/A/]|63=3|67=1|29726=103.25|453=1|448=T1Kauaiblk6|447=C|452=11|11=ClOrdID-17872|22=4|38=350000|44=104|48=US29379VAW37|54=1|55=[N/A/]|63=3|67=1|29726=104.25|453=1|448=T1Kauaiblk6|447=C|452=11|10=026|8=FIX.4.4|9=713|35=E|34=4|49=T1Kauaiblk6|52=20210910-13:41:03.799|56=MA|66=ListID-041321-rodrigo-17873|394=2|68=5|73=5|11=ClOrdID-17874|22=4|38=100000|44=100|48=US06051GEN51|54=1|55=[N/A/]|63=3|67=1|423=1|29726=100.25|453=1|448=T1Kauaiblk6|447=C|452=11|11=ClOrdID-17875|22=4|38=100000|44=101|48=US40434AAB52|54=1|55=[N/A]|63=3|67=2|29726=101.25|11=ClOrdID-17876|22=4|38=130000|44=102|48=US95709TAH32|54=1|55=[N/A/]|63=3|67=1|29726=102.25|453=1|448=T1Kauaiblk6|447=C|452=11|11=ClOrdID-17877|22=4|38=250000|44=103|48=US427866AZ15|54=1|55=[N/A/]|63=3|67=1|29726=103.25|453=1|448=T1Kauaiblk6|447=C|452=11|11=ClOrdID-17878|22=4|38=350000|44=104|48=US29379VAW37|54=1|55=[N/A/]|63=3|67=1|29726=104.25|453=1|448=T1Kauaiblk6|447=C|452=11|10=044|8=FIX.4.4|9=713|35=E|34=5|49=T1Kauaiblk6|52=20210910-13:41:25.824|56=MA|66=ListID-041321-rodrigo-17879|394=2|68=5|73=5|11=ClOrdID-17880|22=4|38=100000|44=100|48=US06051GEN51|54=1|55=[N/A/]|63=3|67=1|423=1|29726=100.25|453=1|448=T1Kauaiblk6|447=C|452=11|11=ClOrdID-17881|22=4|38=100000|44=101|48=US40434AAB52|54=1|55=[N/A]|63=3|67=2|29726=101.25|11=ClOrdID-17882|22=4|38=130000|44=102|48=US95709TAH32|54=1|55=[N/A/]|63=3|67=1|29726=102.25|453=1|448=T1Kauaiblk6|447=C|452=11|11=ClOrdID-17883|22=4|38=250000|44=103|48=US427866AZ15|54=1|55=[N/A/]|63=3|67=1|29726=103.25|453=1|448=T1Kauaiblk6|447=C|452=11|11=ClOrdID-17884|22=4|38=350000|44=104|48=US29379VAW37|54=1|55=[N/A/]|63=3|67=1|29726=104.25|453=1|448=T1Kauaiblk6|447=C|452=11|10=029|8=FIX.4.4|9=713|35=E|34=6|49=T1Kauaiblk6|52=20210910-13:41:27.145|56=MA|66=ListID-041321-rodrigo-17885|394=2|68=5|73=5|11=ClOrdID-17886|22=4|38=100000|44=100|48=US06051GEN51|54=1|55=[N/A/]|63=3|67=1|423=1|29726=100.25|453=1|448=T1Kauaiblk6|447=C|452=11|11=ClOrdID-17887|22=4|38=100000|44=101|48=US40434AAB52|54=1|55=[N/A]|63=3|67=2|29726=101.25|11=ClOrdID-17888|22=4|38=130000|44=102|48=US95709TAH32|54=1|55=[N/A/]|63=3|67=1|29726=102.25|453=1|448=T1Kauaiblk6|447=C|452=11|11=ClOrdID-17889|22=4|38=250000|44=103|48=US427866AZ15|54=1|55=[N/A/]|63=3|67=1|29726=103.25|453=1|448=T1Kauaiblk6|447=C|452=11|11=ClOrdID-17890|22=4|38=350000|44=104|48=US29379VAW37|54=1|55=[N/A/]|63=3|67=1|29726=104.25|453=1|448=T1Kauaiblk6|447=C|452=11|10=046|8=FIX.4.4|9=713|35=E|34=7|49=T1Kauaiblk6|52=20210910-13:42:22.270|56=MA|66=ListID-041321-rodrigo-17891|394=2|68=5|73=5|11=ClOrdID-17892|22=4|38=100000|44=100|48=US06051GEN51|54=1|55=[N/A/]|63=3|67=1|423=1|29726=100.25|453=1|448=T1Kauaiblk6|447=C|452=11|11=ClOrdID-17893|22=4|38=100000|44=101|48=US40434AAB52|54=1|55=[N/A]|63=3|67=2|29726=101.25|11=ClOrdID-17894|22=4|38=130000|44=102|48=US95709TAH32|54=1|55=[N/A/]|63=3|67=1|29726=102.25|453=1|448=T1Kauaiblk6|447=C|452=11|11=ClOrdID-17895|22=4|38=250000|44=103|48=US427866AZ15|54=1|55=[N/A/]|63=3|67=1|29726=103.25|453=1|448=T1Kauaiblk6|447=C|452=11|11=ClOrdID-17896|22=4|38=350000|44=104|48=US29379VAW37|54=1|55=[N/A/]|63=3|67=1|29726=104.25|453=1|448=T1Kauaiblk6|447=C|452=11|10=033|8=FIX.4.4|9=724|35=E|34=8|49=T1Kauaiblk6|52=20210910-13:42:23.882|56=MA|66=ListID-B150221-17897|394=2|68=5|73=5|11=ClOrdID-17898|22=4|38=1000000|44=100.261|48=US06051GEN51|54=1|55=[N/A/]|63=3|67=1|423=1|29726=100.262|453=1|448=T1Kauaiblk6|447=C|452=11|11=ClOrdID-17899|22=4|38=2000000|44=101|48=US40434AAB52|54=1|55=[N/A]|63=3|67=2|29726=101.25|11=ClOrdID-17900|22=4|38=1300000|44=102.251|48=US95709TAH32|54=1|55=[N/A/]|63=3|67=1|29726=102.25|453=1|448=T1Kauaiblk6|447=C|452=11|11=ClOrdID-17901|22=4|38=250000|44=103.1|48=US427866AZ15|54=1|55=[N/A/]|63=3|67=1|29726=103.25|453=1|448=T1Kauaiblk6|447=C|452=11|11=ClOrdID-17902|22=4|38=350000|44=104.231|48=US29379VAW37|54=1|55=[N/A/]|63=3|67=1|29726=104.25|453=1|448=T1Kauaiblk6|447=C|452=11|10=175|8=FIX.4.4|9=679|35=E|34=9|49=T1Kauaiblk6|52=20210910-13:42:27.599|56=MA|66=ListID-NonCalc-120721--17903|394=2|68=5|73=5|11=FIX44-List-ClOrdID-17904|22=4|38=100000|48=US427056BC94|54=1|55=[N/A/]|67=1|423=1|453=1|448=T1Kauaiblk6|447=C|452=11|11=FIX44-List-ClOrdID-17905|22=4|38=100000|48=US463556AD29|54=1|55=[N/A]|67=2|453=1|448=T1Kauaiblk6|447=C|452=11|11=FIX44-List-ClOrdID-17906|22=4|38=130000|48=US61166WAE12|54=1|55=[N/A/]|67=3|453=1|448=T1Kauaiblk6|447=C|452=11|11=FIX44-List-ClOrdID-17907|22=4|38=250000|48=US95709TAH32|54=1|55=[N/A/]|67=4|453=1|448=T1Kauaiblk6|447=C|452=11|11=FIX44-List-ClOrdID-17908|22=4|38=350000|48=US29379VAW37|54=1|55=[N/A/]|67=5|453=1|448=T1Kauaiblk6|447=C|452=11|10=221|8=FIX.4.4|9=57|35=0|34=10|49=T1Kauaiblk6|52=20210910-13:43:58.323|56=MA|10=116|8=FIX.4.4|9=57|35=0|34=11|49=T1Kauaiblk6|52=20210910-13:45:28.417|56=MA|10=120|8=FIX.4.4|9=57|35=0|34=12|49=T1Kauaiblk6|52=20210910-13:46:59.159|56=MA|10=129|8=FIX.4.4|9=57|35=0|34=13|49=T1Kauaiblk6|52=20210910-13:48:29.322|56=MA|10=121|8=FIX.4.4|9=57|35=0|34=14|49=T1Kauaiblk6|52=20210910-13:49:59.417|56=MA|10=131|8=FIX.4.4|9=75|35=5|34=15|49=T1Kauaiblk6|52=20210910-13:50:43.417|56=MA|58=user requested|10=214|8=FIX.4.4|9=91|35=A|34=1|49=T1Kauaiblk6|52=20210910-13:52:34.791|56=MA|98=0|108=90|95=8|96=3.0.0rc5|141=Y|10=044|8=FIX.4.4|9=713|35=E|34=2|49=T1Kauaiblk6|52=20210910-13:52:46.195|56=MA|66=ListID-041321-rodrigo-17909|394=2|68=5|73=5|11=ClOrdID-17910|22=4|38=100000|44=100|48=US06051GEN51|54=1|55=[N/A/]|63=3|67=1|423=1|29726=100.25|453=1|448=T1Kauaiblk6|447=C|452=11|11=ClOrdID-17911|22=4|38=100000|44=101|48=US40434AAB52|54=1|55=[N/A]|63=3|67=2|29726=101.25|11=ClOrdID-17912|22=4|38=130000|44=102|48=US95709TAH32|54=1|55=[N/A/]|63=3|67=1|29726=102.25|453=1|448=T1Kauaiblk6|447=C|452=11|11=ClOrdID-17913|22=4|38=250000|44=103|48=US427866AZ15|54=1|55=[N/A/]|63=3|67=1|29726=103.25|453=1|448=T1Kauaiblk6|447=C|452=11|11=ClOrdID-17914|22=4|38=350000|44=104|48=US29379VAW37|54=1|55=[N/A/]|63=3|67=1|29726=104.25|453=1|448=T1Kauaiblk6|447=C|452=11|10=252|8=FIX.4.4|9=713|35=E|34=3|49=T1Kauaiblk6|52=20210910-13:52:46.808|56=MA|66=ListID-041321-rodrigo-17915|394=2|68=5|73=5|11=ClOrdID-17916|22=4|38=100000|44=100|48=US06051GEN51|54=1|55=[N/A/]|63=3|67=1|423=1|29726=100.25|453=1|448=T1Kauaiblk6|447=C|452=11|11=ClOrdID-17917|22=4|38=100000|44=101|48=US40434AAB52|54=1|55=[N/A]|63=3|67=2|29726=101.25|11=ClOrdID-17918|22=4|38=130000|44=102|48=US95709TAH32|54=1|55=[N/A/]|63=3|67=1|29726=102.25|453=1|448=T1Kauaiblk6|447=C|452=11|11=ClOrdID-17919|22=4|38=250000|44=103|48=US427866AZ15|54=1|55=[N/A/]|63=3|67=1|29726=103.25|453=1|448=T1Kauaiblk6|447=C|452=11|11=ClOrdID-17920|22=4|38=350000|44=104|48=US29379VAW37|54=1|55=[N/A/]|63=3|67=1|29726=104.25|453=1|448=T1Kauaiblk6|447=C|452=11|10=016|8=FIX.4.4|9=56|35=0|34=4|49=T1Kauaiblk6|52=20210910-13:54:17.202|56=MA|10=063|8=FIX.4.4|9=56|35=0|34=5|49=T1Kauaiblk6|52=20210910-13:55:47.314|56=MA|10=072|8=FIX.4.4|9=56|35=0|34=6|49=T1Kauaiblk6|52=20210910-13:57:17.778|56=MA|10=086|8=FIX.4.4|9=56|35=0|34=7|49=T1Kauaiblk6|52=20210910-13:58:47.786|56=MA|10=090|8=FIX.4.4|9=56|35=0|34=8|49=T1Kauaiblk6|52=20210910-14:00:18.161|56=MA|10=064|8=FIX.4.4|9=56|35=0|34=9|49=T1Kauaiblk6|52=20210910-14:01:48.784|56=MA|10=080|8=FIX.4.4|9=57|35=0|34=10|49=T1Kauaiblk6|52=20210910-14:03:18.793|56=MA|10=120|8=FIX.4.4|9=714|35=E|34=11|49=T1Kauaiblk6|52=20210910-14:04:02.868|56=MA|66=ListID-041321-rodrigo-17921|394=2|68=5|73=5|11=ClOrdID-17922|22=4|38=100000|44=100|48=US06051GEN51|54=1|55=[N/A/]|63=3|67=1|423=1|29726=100.25|453=1|448=T1Kauaiblk6|447=C|452=11|11=ClOrdID-17923|22=4|38=100000|44=101|48=US40434AAB52|54=1|55=[N/A]|63=3|67=2|29726=101.25|11=ClOrdID-17924|22=4|38=130000|44=102|48=US95709TAH32|54=1|55=[N/A/]|63=3|67=1|29726=102.25|453=1|448=T1Kauaiblk6|447=C|452=11|11=ClOrdID-17925|22=4|38=250000|44=103|48=US427866AZ15|54=1|55=[N/A/]|63=3|67=1|29726=103.25|453=1|448=T1Kauaiblk6|447=C|452=11|11=ClOrdID-17926|22=4|38=350000|44=104|48=US29379VAW37|54=1|55=[N/A/]|63=3|67=1|29726=104.25|453=1|448=T1Kauaiblk6|447=C|452=11|10=051|8=FIX.4.4|9=714|35=E|34=12|49=T1Kauaiblk6|52=20210910-14:04:03.619|56=MA|66=ListID-041321-rodrigo-17927|394=2|68=5|73=5|11=ClOrdID-17928|22=4|38=100000|44=100|48=US06051GEN51|54=1|55=[N/A/]|63=3|67=1|423=1|29726=100.25|453=1|448=T1Kauaiblk6|447=C|452=11|11=ClOrdID-17929|22=4|38=100000|44=101|48=US40434AAB52|54=1|55=[N/A]|63=3|67=2|29726=101.25|11=ClOrdID-17930|22=4|38=130000|44=102|48=US95709TAH32|54=1|55=[N/A/]|63=3|67=1|29726=102.25|453=1|448=T1Kauaiblk6|447=C|452=11|11=ClOrdID-17931|22=4|38=250000|44=103|48=US427866AZ15|54=1|55=[N/A/]|63=3|67=1|29726=103.25|453=1|448=T1Kauaiblk6|447=C|452=11|11=ClOrdID-17932|22=4|38=350000|44=104|48=US29379VAW37|54=1|55=[N/A/]|63=3|67=1|29726=104.25|453=1|448=T1Kauaiblk6|447=C|452=11|10=056|8=FIX.4.4|9=57|35=0|34=13|49=T1Kauaiblk6|52=20210910-14:05:33.781|56=MA|10=119|8=FIX.4.4|9=57|35=0|34=14|49=T1Kauaiblk6|52=20210910-14:07:03.793|56=MA|10=122|8=FIX.4.4|9=57|35=0|34=15|49=T1Kauaiblk6|52=20210910-14:08:34.789|56=MA|10=133|8=FIX.4.4|9=57|35=0|34=16|49=T1Kauaiblk6|52=20210910-14:10:05.153|56=MA|10=110|8=FIX.4.4|9=57|35=0|34=17|49=T1Kauaiblk6|52=20210910-14:11:35.790|56=MA|10=122|8=FIX.4.4|9=57|35=0|34=18|49=T1Kauaiblk6|52=20210910-14:13:06.789|56=MA|10=131|8=FIX.4.4|9=57|35=0|34=19|49=T1Kauaiblk6|52=20210910-14:14:37.786|56=MA|10=134|8=FIX.4.4|9=57|35=0|34=20|49=T1Kauaiblk6|52=20210910-14:16:07.788|56=MA|10=127|8=FIX.4.4|9=57|35=0|34=21|49=T1Kauaiblk6|52=20210910-14:17:38.782|56=MA|10=127|8=FIX.4.4|9=57|35=0|34=22|49=T1Kauaiblk6|52=20210910-14:19:08.790|56=MA|10=126|8=FIX.4.4|9=57|35=0|34=23|49=T1Kauaiblk6|52=20210910-14:20:38.794|56=MA|10=126|8=FIX.4.4|9=57|35=0|34=24|49=T1Kauaiblk6|52=20210910-14:22:09.265|56=MA|10=120|8=FIX.4.4|9=57|35=0|34=25|49=T1Kauaiblk6|52=20210910-14:23:39.786|56=MA|10=133|8=FIX.4.4|9=57|35=0|34=26|49=T1Kauaiblk6|52=20210910-14:25:10.153|56=MA|10=113|8=FIX.4.4|9=57|35=0|34=27|49=T1Kauaiblk6|52=20210910-14:26:40.394|56=MA|10=125|8=FIX.4.4|9=57|35=0|34=28|49=T1Kauaiblk6|52=20210910-14:28:10.796|56=MA|10=131|8=FIX.4.4|9=57|35=0|34=29|49=T1Kauaiblk6|52=20210910-14:29:40.800|56=MA|10=122|8=FIX.4.4|9=57|35=0|34=30|49=T1Kauaiblk6|52=20210910-14:31:11.171|56=MA|10=106|8=FIX.4.4|9=57|35=0|34=31|49=T1Kauaiblk6|52=20210910-14:32:41.799|56=MA|10=127|8=FIX.4.4|9=57|35=0|34=32|49=T1Kauaiblk6|52=20210910-14:34:11.804|56=MA|10=114|8=FIX.4.4|9=57|35=0|34=33|49=T1Kauaiblk6|52=20210910-14:35:42.333|56=MA|10=117|8=FIX.4.4|9=57|35=0|34=34|49=T1Kauaiblk6|52=20210910-14:37:12.798|56=MA|10=132|8=FIX.4.4|9=57|35=0|34=35|49=T1Kauaiblk6|52=20210910-14:38:43.162|56=MA|10=123|8=FIX.4.4|9=57|35=0|34=36|49=T1Kauaiblk6|52=20210910-14:40:13.796|56=MA|10=127|8=FIX.4.4|9=57|35=0|34=37|49=T1Kauaiblk6|52=20210910-14:41:43.806|56=MA|10=124|8=FIX.4.4|9=57|35=0|34=38|49=T1Kauaiblk6|52=20210910-14:43:14.305|56=MA|10=119|8=FIX.4.4|9=57|35=0|34=39|49=T1Kauaiblk6|52=20210910-14:44:44.326|56=MA|10=127|8=FIX.4.4|9=57|35=0|34=40|49=T1Kauaiblk6|52=20210910-14:46:14.811|56=MA|10=117|8=FIX.4.4|9=57|35=0|34=41|49=T1Kauaiblk6|52=20210910-14:47:45.348|56=MA|10=128|8=FIX.4.4|9=57|35=0|34=42|49=T1Kauaiblk6|52=20210910-14:49:15.800|56=MA|10=121|8=FIX.4.4|9=57|35=0|34=43|49=T1Kauaiblk6|52=20210910-14:50:45.813|56=MA|10=121|8=FIX.4.4|9=57|35=0|34=44|49=T1Kauaiblk6|52=20210910-14:52:16.335|56=MA|10=121|8=FIX.4.4|9=57|35=0|34=45|49=T1Kauaiblk6|52=20210910-14:53:46.815|56=MA|10=129|8=FIX.4.4|9=57|35=0|34=46|49=T1Kauaiblk6|52=20210910-14:55:16.815|56=MA|10=129|8=FIX.4.4|9=57|35=0|34=47|49=T1Kauaiblk6|52=20210910-14:56:47.342|56=MA|10=130|8=FIX.4.4|9=57|35=0|34=48|49=T1Kauaiblk6|52=20210910-14:58:17.809|56=MA|10=138|8=FIX.4.4|9=57|35=0|34=49|49=T1Kauaiblk6|52=20210910-14:59:47.817|56=MA|10=142|8=FIX.4.4|9=57|35=0|34=50|49=T1Kauaiblk6|52=20210910-15:01:18.813|56=MA|10=116|8=FIX.4.4|9=57|35=0|34=51|49=T1Kauaiblk6|52=20210910-15:02:49.819|56=MA|10=128|8=FIX.4.4|9=57|35=0|34=52|49=T1Kauaiblk6|52=20210910-15:04:20.814|56=MA|10=115|8=FIX.4.4|9=57|35=0|34=53|49=T1Kauaiblk6|52=20210910-15:05:51.814|56=MA|10=121|8=FIX.4.4|9=57|35=0|34=54|49=T1Kauaiblk6|52=20210910-15:07:22.805|56=MA|10=122|8=FIX.4.4|9=57|35=0|34=55|49=T1Kauaiblk6|52=20210910-15:08:52.805|56=MA|10=127|8=FIX.4.4|9=57|35=0|34=56|49=T1Kauaiblk6|52=20210910-15:10:22.807|56=MA|10=120|8=FIX.4.4|9=57|35=0|34=57|49=T1Kauaiblk6|52=20210910-15:11:53.807|56=MA|10=126|8=FIX.4.4|9=57|35=0|34=58|49=T1Kauaiblk6|52=20210910-15:13:24.806|56=MA|10=126|8=FIX.4.4|9=57|35=0|34=59|49=T1Kauaiblk6|52=20210910-15:14:55.806|56=MA|10=132|8=FIX.4.4|9=57|35=0|34=60|49=T1Kauaiblk6|52=20210910-15:16:25.807|56=MA|10=124|8=FIX.4.4|9=57|35=0|34=61|49=T1Kauaiblk6|52=20210910-15:17:55.807|56=MA|10=129|8=FIX.4.4|9=57|35=0|34=62|49=T1Kauaiblk6|52=20210910-15:19:25.815|56=MA|10=128|8=FIX.4.4|9=57|35=0|34=63|49=T1Kauaiblk6|52=20210910-15:20:56.822|56=MA|10=123|8=FIX.4.4|9=57|35=0|34=64|49=T1Kauaiblk6|52=20210910-15:22:27.808|56=MA|10=128|8=FIX.4.4|9=57|35=0|34=65|49=T1Kauaiblk6|52=20210910-15:23:58.809|56=MA|10=135|8=FIX.4.4|9=57|35=0|34=66|49=T1Kauaiblk6|52=20210910-15:25:28.809|56=MA|10=135|8=FIX.4.4|9=57|35=0|34=67|49=T1Kauaiblk6|52=20210910-15:26:58.820|56=MA|10=133|8=FIX.4.4|9=57|35=0|34=68|49=T1Kauaiblk6|52=20210910-15:28:28.821|56=MA|10=134|8=FIX.4.4|9=57|35=0|34=69|49=T1Kauaiblk6|52=20210910-15:29:59.817|56=MA|10=145|8=FIX.4.4|9=57|35=0|34=70|49=T1Kauaiblk6|52=20210910-15:31:29.818|56=MA|10=128|8=FIX.4.4|9=57|35=0|34=71|49=T1Kauaiblk6|52=20210910-15:33:00.819|56=MA|10=121|8=FIX.4.4|9=57|35=0|34=72|49=T1Kauaiblk6|52=20210910-15:34:31.808|56=MA|10=125|8=FIX.4.4|9=57|35=0|34=73|49=T1Kauaiblk6|52=20210910-15:36:01.808|56=MA|10=125|8=FIX.4.4|9=57|35=0|34=74|49=T1Kauaiblk6|52=20210910-15:37:32.807|56=MA|10=130|8=FIX.4.4|9=57|35=0|34=75|49=T1Kauaiblk6|52=20210910-15:39:02.809|56=MA|10=132|8=FIX.4.4|9=57|35=0|34=76|49=T1Kauaiblk6|52=20210910-15:40:33.337|56=MA|10=125|8=FIX.4.4|9=57|35=0|34=77|49=T1Kauaiblk6|52=20210910-15:42:03.808|56=MA|10=128|8=FIX.4.4|9=57|35=0|34=78|49=T1Kauaiblk6|52=20210910-15:43:34.157|56=MA|10=131|8=FIX.4.4|9=57|35=0|34=79|49=T1Kauaiblk6|52=20210910-15:45:04.372|56=MA|10=130|8=FIX.4.4|9=57|35=0|34=80|49=T1Kauaiblk6|52=20210910-15:46:34.808|56=MA|10=130|8=FIX.4.4|9=57|35=0|34=81|49=T1Kauaiblk6|52=20210910-15:48:04.809|56=MA|10=131|8=FIX.4.4|9=57|35=0|34=82|49=T1Kauaiblk6|52=20210910-15:49:34.809|56=MA|10=136|8=FIX.4.4|9=57|35=0|34=83|49=T1Kauaiblk6|52=20210910-15:51:04.809|56=MA|10=127|8=FIX.4.4|9=57|35=0|34=84|49=T1Kauaiblk6|52=20210910-15:52:34.809|56=MA|10=132|8=FIX.4.4|9=57|35=0|34=85|49=T1Kauaiblk6|52=20210910-15:54:05.312|56=MA|10=122|8=FIX.4.4|9=57|35=0|34=86|49=T1Kauaiblk6|52=20210910-15:55:35.808|56=MA|10=137|8=FIX.4.4|9=57|35=0|34=87|49=T1Kauaiblk6|52=20210910-15:57:05.808|56=MA|10=137|8=FIX.4.4|9=57|35=0|34=88|49=T1Kauaiblk6|52=20210910-15:58:35.809|56=MA|10=143|8=FIX.4.4|9=57|35=0|34=89|49=T1Kauaiblk6|52=20210910-16:00:05.809|56=MA|10=129|8=FIX.4.4|9=57|35=0|34=90|49=T1Kauaiblk6|52=20210910-16:01:35.809|56=MA|10=125|8=FIX.4.4|9=57|35=0|34=91|49=T1Kauaiblk6|52=20210910-16:03:05.824|56=MA|10=122|8=FIX.4.4|9=57|35=0|34=92|49=T1Kauaiblk6|52=20210910-16:04:36.819|56=MA|10=132|8=FIX.4.4|9=57|35=0|34=93|49=T1Kauaiblk6|52=20210910-16:06:07.810|56=MA|10=124|8=FIX.4.4|9=57|35=0|34=94|49=T1Kauaiblk6|52=20210910-16:07:38.809|56=MA|10=138|8=FIX.4.4|9=57|35=0|34=95|49=T1Kauaiblk6|52=20210910-16:09:08.809|56=MA|10=138|8=FIX.4.4|9=57|35=0|34=96|49=T1Kauaiblk6|52=20210910-16:10:38.810|56=MA|10=126|8=FIX.4.4|9=57|35=0|34=97|49=T1Kauaiblk6|52=20210910-16:12:08.811|56=MA|10=127|8=FIX.4.4|9=57|35=0|34=98|49=T1Kauaiblk6|52=20210910-16:13:39.811|56=MA|10=133|8=FIX.4.4|9=57|35=0|34=99|49=T1Kauaiblk6|52=20210910-16:15:10.809|56=MA|10=132|8=FIX.4.4|9=58|35=0|34=100|49=T1Kauaiblk6|52=20210910-16:16:40.811|56=MA|10=161|8=FIX.4.4|9=58|35=0|34=101|49=T1Kauaiblk6|52=20210910-16:18:10.811|56=MA|10=161|8=FIX.4.4|9=58|35=0|34=102|49=T1Kauaiblk6|52=20210910-16:19:41.810|56=MA|10=166|8=FIX.4.4|9=58|35=0|34=103|49=T1Kauaiblk6|52=20210910-16:21:11.811|56=MA|10=158|8=FIX.4.4|9=58|35=0|34=104|49=T1Kauaiblk6|52=20210910-16:22:42.810|56=MA|10=163|8=FIX.4.4|9=58|35=0|34=105|49=T1Kauaiblk6|52=20210910-16:24:12.811|56=MA|10=164|8=FIX.4.4|9=58|35=0|34=106|49=T1Kauaiblk6|52=20210910-16:25:42.811|56=MA|10=169|8=FIX.4.4|9=58|35=0|34=107|49=T1Kauaiblk6|52=20210910-16:27:12.811|56=MA|10=169|8=FIX.4.4|9=58|35=0|34=108|49=T1Kauaiblk6|52=20210910-16:28:42.811|56=MA|10=174|8=FIX.4.4|9=58|35=0|34=109|49=T1Kauaiblk6|52=20210910-16:30:13.814|56=MA|10=169|8=FIX.4.4|9=58|35=0|34=110|49=T1Kauaiblk6|52=20210910-16:31:44.812|56=MA|10=164|8=FIX.4.4|9=58|35=0|34=111|49=T1Kauaiblk6|52=20210910-16:33:14.817|56=MA|10=169|8=FIX.4.4|9=58|35=0|34=112|49=T1Kauaiblk6|52=20210910-16:34:44.819|56=MA|10=176|8=FIX.4.4|9=58|35=0|34=113|49=T1Kauaiblk6|52=20210910-16:36:14.838|56=MA|10=177|8=FIX.4.4|9=58|35=0|34=114|49=T1Kauaiblk6|52=20210910-16:37:45.820|56=MA|10=174|8=FIX.4.4|9=58|35=0|34=115|49=T1Kauaiblk6|52=20210910-16:39:16.811|56=MA|10=175|8=FIX.4.4|9=58|35=0|34=116|49=T1Kauaiblk6|52=20210910-16:40:46.812|56=MA|10=172|8=FIX.4.4|9=58|35=0|34=117|49=T1Kauaiblk6|52=20210910-16:42:16.814|56=MA|10=174|8=FIX.4.4|9=58|35=0|34=118|49=T1Kauaiblk6|52=20210910-16:43:46.816|56=MA|10=181|8=FIX.4.4|9=58|35=0|34=119|49=T1Kauaiblk6|52=20210910-16:45:16.826|56=MA|10=182|8=FIX.4.4|9=58|35=0|34=120|49=T1Kauaiblk6|52=20210910-16:46:46.828|56=MA|10=180|8=FIX.4.4|9=58|35=0|34=121|49=T1Kauaiblk6|52=20210910-16:48:17.829|56=MA|10=182|8=FIX.4.4|9=58|35=0|34=122|49=T1Kauaiblk6|52=20210910-16:49:48.837|56=MA|10=187|8=FIX.4.4|9=58|35=0|34=123|49=T1Kauaiblk6|52=20210910-16:51:19.828|56=MA|10=179|8=FIX.4.4|9=91|35=A|34=1|49=T1Kauaiblk6|52=20210913-07:42:29.290|56=MA|98=0|108=90|95=8|96=3.0.0rc5|141=Y|10=047|8=FIX.4.4|9=713|35=E|34=2|49=T1Kauaiblk6|52=20210913-07:42:48.879|56=MA|66=ListID-041321-rodrigo-17909|394=2|68=5|73=5|11=ClOrdID-17910|22=4|38=100000|44=100|48=US06051GEN51|54=1|55=[N/A/]|63=3|67=1|423=1|29726=100.25|453=1|448=T1Kauaiblk6|447=C|452=11|11=ClOrdID-17911|22=4|38=100000|44=101|48=US40434AAB52|54=1|55=[N/A]|63=3|67=2|29726=101.25|11=ClOrdID-17912|22=4|38=130000|44=102|48=US95709TAH32|54=1|55=[N/A/]|63=3|67=1|29726=102.25|453=1|448=T1Kauaiblk6|447=C|452=11|11=ClOrdID-17913|22=4|38=250000|44=103|48=US427866AZ15|54=1|55=[N/A/]|63=3|67=1|29726=103.25|453=1|448=T1Kauaiblk6|447=C|452=11|11=ClOrdID-17914|22=4|38=350000|44=104|48=US29379VAW37|54=1|55=[N/A/]|63=3|67=1|29726=104.25|453=1|448=T1Kauaiblk6|447=C|452=11|10=012|8=FIX.4.4|9=713|35=E|34=3|49=T1Kauaiblk6|52=20210913-07:42:49.258|56=MA|66=ListID-041321-rodrigo-17915|394=2|68=5|73=5|11=ClOrdID-17916|22=4|38=100000|44=100|48=US06051GEN51|54=1|55=[N/A/]|63=3|67=1|423=1|29726=100.25|453=1|448=T1Kauaiblk6|447=C|452=11|11=ClOrdID-17917|22=4|38=100000|44=101|48=US40434AAB52|54=1|55=[N/A]|63=3|67=2|29726=101.25|11=ClOrdID-17918|22=4|38=130000|44=102|48=US95709TAH32|54=1|55=[N/A/]|63=3|67=1|29726=102.25|453=1|448=T1Kauaiblk6|447=C|452=11|11=ClOrdID-17919|22=4|38=250000|44=103|48=US427866AZ15|54=1|55=[N/A/]|63=3|67=1|29726=103.25|453=1|448=T1Kauaiblk6|447=C|452=11|11=ClOrdID-17920|22=4|38=350000|44=104|48=US29379VAW37|54=1|55=[N/A/]|63=3|67=1|29726=104.25|453=1|448=T1Kauaiblk6|447=C|452=11|10=023|8=FIX.4.4|9=713|35=E|34=4|49=T1Kauaiblk6|52=20210913-07:42:50.585|56=MA|66=ListID-041321-rodrigo-17921|394=2|68=5|73=5|11=ClOrdID-17922|22=4|38=100000|44=100|48=US06051GEN51|54=1|55=[N/A/]|63=3|67=1|423=1|29726=100.25|453=1|448=T1Kauaiblk6|447=C|452=11|11=ClOrdID-17923|22=4|38=100000|44=101|48=US40434AAB52|54=1|55=[N/A]|63=3|67=2|29726=101.25|11=ClOrdID-17924|22=4|38=130000|44=102|48=US95709TAH32|54=1|55=[N/A/]|63=3|67=1|29726=102.25|453=1|448=T1Kauaiblk6|447=C|452=11|11=ClOrdID-17925|22=4|38=250000|44=103|48=US427866AZ15|54=1|55=[N/A/]|63=3|67=1|29726=103.25|453=1|448=T1Kauaiblk6|447=C|452=11|11=ClOrdID-17926|22=4|38=350000|44=104|48=US29379VAW37|54=1|55=[N/A/]|63=3|67=1|29726=104.25|453=1|448=T1Kauaiblk6|447=C|452=11|10=010|8=FIX.4.4|9=56|35=0|34=5|49=T1Kauaiblk6|52=20210913-07:44:21.274|56=MA|10=073|8=FIX.4.4|9=56|35=0|34=6|49=T1Kauaiblk6|52=20210913-07:45:51.285|56=MA|10=080|8=FIX.4.4|9=56|35=0|34=7|49=T1Kauaiblk6|52=20210913-07:47:21.637|56=MA|10=081|8=FIX.4.4|9=56|35=0|34=8|49=T1Kauaiblk6|52=20210913-07:48:51.746|56=MA|10=087|8=FIX.4.4|9=56|35=0|34=9|49=T1Kauaiblk6|52=20210913-07:50:22.283|56=MA|10=075|8=FIX.4.4|9=57|35=0|34=10|49=T1Kauaiblk6|52=20210913-07:51:52.284|56=MA|10=121|8=FIX.4.4|9=57|35=0|34=11|49=T1Kauaiblk6|52=20210913-07:53:23.279|56=MA|10=126|8=FIX.4.4|9=57|35=0|34=12|49=T1Kauaiblk6|52=20210913-07:54:54.287|56=MA|10=131|8=FIX.4.4|9=57|35=0|34=13|49=T1Kauaiblk6|52=20210913-07:56:24.287|56=MA|10=131|8=FIX.4.4|9=57|35=0|34=14|49=T1Kauaiblk6|52=20210913-07:57:55.258|56=MA|10=135|8=FIX.4.4|9=57|35=0|34=15|49=T1Kauaiblk6|52=20210913-07:59:25.284|56=MA|10=134|8=FIX.4.4|9=57|35=0|34=16|49=T1Kauaiblk6|52=20210913-08:00:55.791|56=MA|10=128|8=FIX.4.4|9=57|35=0|34=17|49=T1Kauaiblk6|52=20210913-08:02:26.285|56=MA|10=127|8=FIX.4.4|9=57|35=0|34=18|49=T1Kauaiblk6|52=20210913-08:03:56.541|56=MA|10=127|8=FIX.4.4|9=57|35=0|34=19|49=T1Kauaiblk6|52=20210913-08:05:26.717|56=MA|10=132|8=FIX.4.4|9=57|35=0|34=20|49=T1Kauaiblk6|52=20210913-08:06:57.280|56=MA|10=124|8=FIX.4.4|9=57|35=0|34=21|49=T1Kauaiblk6|52=20210913-08:08:27.280|56=MA|10=124|8=FIX.4.4|9=57|35=0|34=22|49=T1Kauaiblk6|52=20210913-08:09:57.289|56=MA|10=138|8=FIX.4.4|9=57|35=0|34=23|49=T1Kauaiblk6|52=20210913-08:11:28.281|56=MA|10=122|8=FIX.4.4|9=57|35=0|34=24|49=T1Kauaiblk6|52=20210913-08:12:58.285|56=MA|10=131|8=FIX.4.4|9=57|35=0|34=25|49=T1Kauaiblk6|52=20210913-08:14:29.287|56=MA|10=134|8=FIX.4.4|9=57|35=0|34=26|49=T1Kauaiblk6|52=20210913-08:16:00.282|56=MA|10=121|8=FIX.4.4|9=57|35=0|34=27|49=T1Kauaiblk6|52=20210913-08:17:30.282|56=MA|10=126|8=FIX.4.4|9=57|35=0|34=28|49=T1Kauaiblk6|52=20210913-08:19:00.283|56=MA|10=127|8=FIX.4.4|9=57|35=0|34=29|49=T1Kauaiblk6|52=20210913-08:20:31.289|56=MA|10=130|8=FIX.4.4|9=57|35=0|34=30|49=T1Kauaiblk6|52=20210913-08:22:02.280|56=MA|10=113|8=FIX.4.4|9=57|35=0|34=31|49=T1Kauaiblk6|52=20210913-08:23:33.281|56=MA|10=120|8=FIX.4.4|9=57|35=0|34=32|49=T1Kauaiblk6|52=20210913-08:25:03.291|56=MA|10=121|8=FIX.4.4|9=57|35=0|34=33|49=T1Kauaiblk6|52=20210913-08:26:34.280|56=MA|10=125|8=FIX.4.4|9=57|35=0|34=34|49=T1Kauaiblk6|52=20210913-08:28:04.288|56=MA|10=133|8=FIX.4.4|9=714|35=E|34=35|49=T1Kauaiblk6|52=20210913-08:28:42.393|56=MA|66=ListID-041321-rodrigo-17927|394=2|68=5|73=5|11=ClOrdID-17928|22=4|38=100000|44=100|48=US06051GEN51|54=1|55=[N/A/]|63=3|67=1|423=1|29726=100.25|453=1|448=T1Kauaiblk6|447=C|452=11|11=ClOrdID-17929|22=4|38=100000|44=101|48=US40434AAB52|54=1|55=[N/A]|63=3|67=2|29726=101.25|11=ClOrdID-17930|22=4|38=130000|44=102|48=US95709TAH32|54=1|55=[N/A/]|63=3|67=1|29726=102.25|453=1|448=T1Kauaiblk6|447=C|452=11|11=ClOrdID-17931|22=4|38=250000|44=103|48=US427866AZ15|54=1|55=[N/A/]|63=3|67=1|29726=103.25|453=1|448=T1Kauaiblk6|447=C|452=11|11=ClOrdID-17932|22=4|38=350000|44=104|48=US29379VAW37|54=1|55=[N/A/]|63=3|67=1|29726=104.25|453=1|448=T1Kauaiblk6|447=C|452=11|10=075|8=FIX.4.4|9=714|35=E|34=36|49=T1Kauaiblk6|52=20210913-08:28:42.606|56=MA|66=ListID-041321-rodrigo-17933|394=2|68=5|73=5|11=ClOrdID-17934|22=4|38=100000|44=100|48=US06051GEN51|54=1|55=[N/A/]|63=3|67=1|423=1|29726=100.25|453=1|448=T1Kauaiblk6|447=C|452=11|11=ClOrdID-17935|22=4|38=100000|44=101|48=US40434AAB52|54=1|55=[N/A]|63=3|67=2|29726=101.25|11=ClOrdID-17936|22=4|38=130000|44=102|48=US95709TAH32|54=1|55=[N/A/]|63=3|67=1|29726=102.25|453=1|448=T1Kauaiblk6|447=C|452=11|11=ClOrdID-17937|22=4|38=250000|44=103|48=US427866AZ15|54=1|55=[N/A/]|63=3|67=1|29726=103.25|453=1|448=T1Kauaiblk6|447=C|452=11|11=ClOrdID-17938|22=4|38=350000|44=104|48=US29379VAW37|54=1|55=[N/A/]|63=3|67=1|29726=104.25|453=1|448=T1Kauaiblk6|447=C|452=11|10=082|8=FIX.4.4|9=714|35=E|34=37|49=T1Kauaiblk6|52=20210913-08:28:43.207|56=MA|66=ListID-041321-rodrigo-17939|394=2|68=5|73=5|11=ClOrdID-17940|22=4|38=100000|44=100|48=US06051GEN51|54=1|55=[N/A/]|63=3|67=1|423=1|29726=100.25|453=1|448=T1Kauaiblk6|447=C|452=11|11=ClOrdID-17941|22=4|38=100000|44=101|48=US40434AAB52|54=1|55=[N/A]|63=3|67=2|29726=101.25|11=ClOrdID-17942|22=4|38=130000|44=102|48=US95709TAH32|54=1|55=[N/A/]|63=3|67=1|29726=102.25|453=1|448=T1Kauaiblk6|447=C|452=11|11=ClOrdID-17943|22=4|38=250000|44=103|48=US427866AZ15|54=1|55=[N/A/]|63=3|67=1|29726=103.25|453=1|448=T1Kauaiblk6|447=C|452=11|11=ClOrdID-17944|22=4|38=350000|44=104|48=US29379VAW37|54=1|55=[N/A/]|63=3|67=1|29726=104.25|453=1|448=T1Kauaiblk6|447=C|452=11|10=072|8=FIX.4.4|9=57|35=0|34=38|49=T1Kauaiblk6|52=20210913-08:30:13.288|56=MA|10=130|8=FIX.4.4|9=57|35=0|34=39|49=T1Kauaiblk6|52=20210913-08:31:44.285|56=MA|10=133|8=FIX.4.4|9=57|35=0|34=40|49=T1Kauaiblk6|52=20210913-08:33:14.293|56=MA|10=123|8=FIX.4.4|9=57|35=0|34=41|49=T1Kauaiblk6|52=20210913-08:34:45.286|56=MA|10=131|8=FIX.4.4|9=57|35=0|34=42|49=T1Kauaiblk6|52=20210913-08:36:15.290|56=MA|10=126|8=FIX.4.4|9=57|35=0|34=43|49=T1Kauaiblk6|52=20210913-08:37:45.296|56=MA|10=137|8=FIX.4.4|9=57|35=0|34=44|49=T1Kauaiblk6|52=20210913-08:39:16.286|56=MA|10=137|8=FIX.4.4|9=57|35=0|34=45|49=T1Kauaiblk6|52=20210913-08:40:46.292|56=MA|10=130|8=FIX.4.4|9=57|35=0|34=46|49=T1Kauaiblk6|52=20210913-08:42:17.290|56=MA|10=129|8=FIX.4.4|9=57|35=0|34=47|49=T1Kauaiblk6|52=20210913-08:43:47.292|56=MA|10=136|8=FIX.4.4|9=57|35=0|34=48|49=T1Kauaiblk6|52=20210913-08:45:17.302|56=MA|10=128|8=FIX.4.4|9=57|35=0|34=49|49=T1Kauaiblk6|52=20210913-08:46:48.299|56=MA|10=149|8=FIX.4.4|9=57|35=0|34=50|49=T1Kauaiblk6|52=20210913-08:48:19.293|56=MA|10=135|8=FIX.4.4|9=57|35=0|34=51|49=T1Kauaiblk6|52=20210913-08:49:49.294|56=MA|10=141|8=FIX.4.4|9=57|35=0|34=52|49=T1Kauaiblk6|52=20210913-08:51:19.297|56=MA|10=135|8=FIX.4.4|9=57|35=0|34=53|49=T1Kauaiblk6|52=20210913-08:52:49.299|56=MA|10=142|8=FIX.4.4|9=57|35=0|34=54|49=T1Kauaiblk6|52=20210913-08:54:19.300|56=MA|10=125|8=FIX.4.4|9=57|35=0|34=55|49=T1Kauaiblk6|52=20210913-08:55:49.307|56=MA|10=137|8=FIX.4.4|9=57|35=0|34=56|49=T1Kauaiblk6|52=20210913-08:57:20.308|56=MA|10=130|8=FIX.4.4|9=57|35=0|34=57|49=T1Kauaiblk6|52=20210913-08:58:51.305|56=MA|10=133|8=FIX.4.4|9=57|35=0|34=58|49=T1Kauaiblk6|52=20210913-09:00:22.308|56=MA|10=123|8=FIX.4.4|9=57|35=0|34=59|49=T1Kauaiblk6|52=20210913-09:01:53.308|56=MA|10=129|8=FIX.4.4|9=57|35=0|34=60|49=T1Kauaiblk6|52=20210913-09:03:24.309|56=MA|10=122|8=FIX.4.4|9=57|35=0|34=61|49=T1Kauaiblk6|52=20210913-09:04:54.313|56=MA|10=122|8=FIX.4.4|9=57|35=0|34=62|49=T1Kauaiblk6|52=20210913-09:06:25.313|56=MA|10=123|8=FIX.4.4|9=57|35=0|34=63|49=T1Kauaiblk6|52=20210913-09:07:56.317|56=MA|10=133|8=FIX.4.4|9=57|35=0|34=64|49=T1Kauaiblk6|52=20210913-09:09:27.309|56=MA|10=135|8=FIX.4.4|9=57|35=0|34=65|49=T1Kauaiblk6|52=20210913-09:10:58.301|56=MA|10=124|8=FIX.4.4|9=57|35=0|34=66|49=T1Kauaiblk6|52=20210913-09:12:28.306|56=MA|10=129|8=FIX.4.4|9=57|35=0|34=67|49=T1Kauaiblk6|52=20210913-09:13:58.315|56=MA|10=134|8=FIX.4.4|9=57|35=0|34=68|49=T1Kauaiblk6|52=20210913-09:15:29.310|56=MA|10=130|8=FIX.4.4|9=57|35=0|34=69|49=T1Kauaiblk6|52=20210913-09:17:00.300|56=MA|10=121|8=FIX.4.4|9=57|35=0|34=70|49=T1Kauaiblk6|52=20210913-09:18:30.302|56=MA|10=119|8=FIX.4.4|9=57|35=0|34=71|49=T1Kauaiblk6|52=20210913-09:20:00.302|56=MA|10=110|8=FIX.4.4|9=57|35=0|34=72|49=T1Kauaiblk6|52=20210913-09:21:30.302|56=MA|10=115|8=FIX.4.4|9=57|35=0|34=73|49=T1Kauaiblk6|52=20210913-09:23:00.306|56=MA|10=119|8=FIX.4.4|9=57|35=0|34=74|49=T1Kauaiblk6|52=20210913-09:24:31.316|56=MA|10=126|8=FIX.4.4|9=57|35=0|34=75|49=T1Kauaiblk6|52=20210913-09:26:02.314|56=MA|10=125|8=FIX.4.4|9=57|35=0|34=76|49=T1Kauaiblk6|52=20210913-09:27:33.308|56=MA|10=134|8=FIX.4.4|9=57|35=0|34=77|49=T1Kauaiblk6|52=20210913-09:29:03.314|56=MA|10=131|8=FIX.4.4|9=57|35=0|34=78|49=T1Kauaiblk6|52=20210913-09:30:34.301|56=MA|10=124|8=FIX.4.4|9=57|35=0|34=79|49=T1Kauaiblk6|52=20210913-09:32:04.311|56=MA|10=125|8=FIX.4.4|9=57|35=0|34=80|49=T1Kauaiblk6|52=20210913-09:33:35.311|56=MA|10=122|8=FIX.4.4|9=57|35=0|34=81|49=T1Kauaiblk6|52=20210913-09:35:05.316|56=MA|10=127|8=FIX.4.4|9=57|35=0|34=82|49=T1Kauaiblk6|52=20210913-09:36:36.310|56=MA|10=127|8=FIX.4.4|9=57|35=0|34=83|49=T1Kauaiblk6|52=20210913-09:38:06.317|56=MA|10=134|8=FIX.4.4|9=57|35=0|34=84|49=T1Kauaiblk6|52=20210913-09:39:37.320|56=MA|10=134|8=FIX.4.4|9=57|35=0|34=85|49=T1Kauaiblk6|52=20210913-09:41:07.320|56=MA|10=125|8=FIX.4.4|9=57|35=0|34=86|49=T1Kauaiblk6|52=20210913-09:42:38.309|56=MA|10=138|8=FIX.4.4|9=57|35=0|34=87|49=T1Kauaiblk6|52=20210913-09:44:08.322|56=MA|10=133|8=FIX.4.4|9=57|35=0|34=88|49=T1Kauaiblk6|52=20210913-09:45:39.320|56=MA|10=137|8=FIX.4.4|9=57|35=0|34=89|49=T1Kauaiblk6|52=20210913-09:47:09.323|56=MA|10=140|8=FIX.4.4|9=57|35=0|34=90|49=T1Kauaiblk6|52=20210913-09:48:40.324|56=MA|10=129|8=FIX.4.4|9=57|35=0|34=91|49=T1Kauaiblk6|52=20210913-09:50:11.310|56=MA|10=116|8=FIX.4.4|9=57|35=0|34=92|49=T1Kauaiblk6|52=20210913-09:51:41.313|56=MA|10=124|8=FIX.4.4|9=57|35=0|34=93|49=T1Kauaiblk6|52=20210913-09:53:11.319|56=MA|10=130|8=FIX.4.4|9=57|35=0|34=94|49=T1Kauaiblk6|52=20210913-09:54:42.329|56=MA|10=137|8=FIX.4.4|9=57|35=0|34=95|49=T1Kauaiblk6|52=20210913-09:56:13.325|56=MA|10=134|8=FIX.4.4|9=57|35=0|34=96|49=T1Kauaiblk6|52=20210913-09:57:44.327|56=MA|10=142|8=FIX.4.4|9=57|35=0|34=97|49=T1Kauaiblk6|52=20210913-09:59:15.316|56=MA|10=141|8=FIX.4.4|9=57|35=0|34=98|49=T1Kauaiblk6|52=20210913-10:00:45.316|56=MA|10=123|8=FIX.4.4|9=57|35=0|34=99|49=T1Kauaiblk6|52=20210913-10:02:15.322|56=MA|10=120|8=FIX.4.4|9=58|35=0|34=100|49=T1Kauaiblk6|52=20210913-10:03:46.325|56=MA|10=160|8=FIX.4.4|9=715|35=E|34=101|49=T1Kauaiblk6|52=20210913-10:04:16.800|56=MA|66=ListID-041321-rodrigo-17945|394=2|68=5|73=5|11=ClOrdID-17946|22=4|38=100000|44=100|48=US06051GEN51|54=1|55=[N/A/]|63=3|67=1|423=1|29726=100.25|453=1|448=T1Kauaiblk6|447=C|452=11|11=ClOrdID-17947|22=4|38=100000|44=101|48=US40434AAB52|54=1|55=[N/A]|63=3|67=2|29726=101.25|11=ClOrdID-17948|22=4|38=130000|44=102|48=US95709TAH32|54=1|55=[N/A/]|63=3|67=1|29726=102.25|453=1|448=T1Kauaiblk6|447=C|452=11|11=ClOrdID-17949|22=4|38=250000|44=103|48=US427866AZ15|54=1|55=[N/A/]|63=3|67=1|29726=103.25|453=1|448=T1Kauaiblk6|447=C|452=11|11=ClOrdID-17950|22=4|38=350000|44=104|48=US29379VAW37|54=1|55=[N/A/]|63=3|67=1|29726=104.25|453=1|448=T1Kauaiblk6|447=C|452=11|10=117|8=FIX.4.4|9=715|35=E|34=102|49=T1Kauaiblk6|52=20210913-10:04:17.390|56=MA|66=ListID-041321-rodrigo-17951|394=2|68=5|73=5|11=ClOrdID-17952|22=4|38=100000|44=100|48=US06051GEN51|54=1|55=[N/A/]|63=3|67=1|423=1|29726=100.25|453=1|448=T1Kauaiblk6|447=C|452=11|11=ClOrdID-17953|22=4|38=100000|44=101|48=US40434AAB52|54=1|55=[N/A]|63=3|67=2|29726=101.25|11=ClOrdID-17954|22=4|38=130000|44=102|48=US95709TAH32|54=1|55=[N/A/]|63=3|67=1|29726=102.25|453=1|448=T1Kauaiblk6|447=C|452=11|11=ClOrdID-17955|22=4|38=250000|44=103|48=US427866AZ15|54=1|55=[N/A/]|63=3|67=1|29726=103.25|453=1|448=T1Kauaiblk6|447=C|452=11|11=ClOrdID-17956|22=4|38=350000|44=104|48=US29379VAW37|54=1|55=[N/A/]|63=3|67=1|29726=104.25|453=1|448=T1Kauaiblk6|447=C|452=11|10=114|8=FIX.4.4|9=715|35=E|34=103|49=T1Kauaiblk6|52=20210913-10:04:17.824|56=MA|66=ListID-041321-rodrigo-17957|394=2|68=5|73=5|11=ClOrdID-17958|22=4|38=100000|44=100|48=US06051GEN51|54=1|55=[N/A/]|63=3|67=1|423=1|29726=100.25|453=1|448=T1Kauaiblk6|447=C|452=11|11=ClOrdID-17959|22=4|38=100000|44=101|48=US40434AAB52|54=1|55=[N/A]|63=3|67=2|29726=101.25|11=ClOrdID-17960|22=4|38=130000|44=102|48=US95709TAH32|54=1|55=[N/A/]|63=3|67=1|29726=102.25|453=1|448=T1Kauaiblk6|447=C|452=11|11=ClOrdID-17961|22=4|38=250000|44=103|48=US427866AZ15|54=1|55=[N/A/]|63=3|67=1|29726=103.25|453=1|448=T1Kauaiblk6|447=C|452=11|11=ClOrdID-17962|22=4|38=350000|44=104|48=US29379VAW37|54=1|55=[N/A/]|63=3|67=1|29726=104.25|453=1|448=T1Kauaiblk6|447=C|452=11|10=126|8=FIX.4.4|9=58|35=0|34=104|49=T1Kauaiblk6|52=20210913-10:05:48.323|56=MA|10=166|8=FIX.4.4|9=58|35=0|34=105|49=T1Kauaiblk6|52=20210913-10:07:19.325|56=MA|10=169|8=FIX.4.4|9=58|35=0|34=106|49=T1Kauaiblk6|52=20210913-10:08:49.327|56=MA|10=176|8=FIX.4.4|9=58|35=0|34=107|49=T1Kauaiblk6|52=20210913-10:10:19.327|56=MA|10=167|8=FIX.4.4|9=58|35=0|34=108|49=T1Kauaiblk6|52=20210913-10:11:50.328|56=MA|10=165|8=FIX.4.4|9=58|35=0|34=109|49=T1Kauaiblk6|52=20210913-10:13:20.331|56=MA|10=159|8=FIX.4.4|9=58|35=0|34=110|49=T1Kauaiblk6|52=20210913-10:14:50.332|56=MA|10=156|8=FIX.4.4|9=58|35=0|34=111|49=T1Kauaiblk6|52=20210913-10:16:20.544|56=MA|10=161|8=FIX.4.4|9=58|35=0|34=112|49=T1Kauaiblk6|52=20210913-10:17:50.692|56=MA|10=170|8=FIX.4.4|9=58|35=0|34=113|49=T1Kauaiblk6|52=20210913-10:19:21.084|56=MA|10=166|8=FIX.4.4|9=58|35=0|34=114|49=T1Kauaiblk6|52=20210913-10:20:51.329|56=MA|10=164|8=FIX.4.4|9=58|35=0|34=115|49=T1Kauaiblk6|52=20210913-10:22:21.721|56=MA|10=160|8=FIX.4.4|9=58|35=0|34=116|49=T1Kauaiblk6|52=20210913-10:23:52.323|56=MA|10=164|8=FIX.4.4|9=58|35=0|34=117|49=T1Kauaiblk6|52=20210913-10:25:22.324|56=MA|10=165|8=FIX.4.4|9=58|35=0|34=118|49=T1Kauaiblk6|52=20210913-10:26:53.323|56=MA|10=170|8=FIX.4.4|9=58|35=0|34=119|49=T1Kauaiblk6|52=20210913-10:28:23.325|56=MA|10=172|8=FIX.4.4|9=58|35=0|34=120|49=T1Kauaiblk6|52=20210913-10:29:53.325|56=MA|10=168|8=FIX.4.4|9=58|35=0|34=121|49=T1Kauaiblk6|52=20210913-10:31:23.325|56=MA|10=159|8=FIX.4.4|9=58|35=0|34=122|49=T1Kauaiblk6|52=20210913-10:32:54.324|56=MA|10=164|8=FIX.4.4|9=58|35=0|34=123|49=T1Kauaiblk6|52=20210913-10:34:25.324|56=MA|10=165|8=FIX.4.4|9=58|35=0|34=124|49=T1Kauaiblk6|52=20210913-10:35:55.325|56=MA|10=171|8=FIX.4.4|9=58|35=0|34=125|49=T1Kauaiblk6|52=20210913-10:37:26.325|56=MA|10=172|8=FIX.4.4|9=58|35=0|34=126|49=T1Kauaiblk6|52=20210913-10:38:57.323|56=MA|10=176|8=FIX.4.4|9=58|35=0|34=127|49=T1Kauaiblk6|52=20210913-10:40:27.323|56=MA|10=167|8=FIX.4.4|9=58|35=0|34=128|49=T1Kauaiblk6|52=20210913-10:41:57.324|56=MA|10=173|8=FIX.4.4|9=58|35=0|34=129|49=T1Kauaiblk6|52=20210913-10:43:27.327|56=MA|10=176|8=FIX.4.4|9=58|35=0|34=130|49=T1Kauaiblk6|52=20210913-10:44:57.327|56=MA|10=172|8=FIX.4.4|9=58|35=0|34=131|49=T1Kauaiblk6|52=20210913-10:46:27.328|56=MA|10=173|8=FIX.4.4|9=58|35=0|34=132|49=T1Kauaiblk6|52=20210913-10:47:57.328|56=MA|10=178|8=FIX.4.4|9=58|35=0|34=133|49=T1Kauaiblk6|52=20210913-10:49:27.330|56=MA|10=171|8=FIX.4.4|9=58|35=0|34=134|49=T1Kauaiblk6|52=20210913-10:50:57.332|56=MA|10=169|8=FIX.4.4|9=58|35=0|34=135|49=T1Kauaiblk6|52=20210913-10:52:28.333|56=MA|10=171|8=FIX.4.4|9=58|35=0|34=136|49=T1Kauaiblk6|52=20210913-10:53:59.333|56=MA|10=177|8=FIX.4.4|9=58|35=0|34=137|49=T1Kauaiblk6|52=20210913-10:55:29.336|56=MA|10=180|8=FIX.4.4|9=58|35=0|34=138|49=T1Kauaiblk6|52=20210913-10:56:59.339|56=MA|10=188|8=FIX.4.4|9=58|35=0|34=139|49=T1Kauaiblk6|52=20210913-10:58:30.344|56=MA|10=176|8=FIX.4.4|9=58|35=0|34=140|49=T1Kauaiblk6|52=20210913-11:00:01.345|56=MA|10=155|8=FIX.4.4|9=58|35=0|34=141|49=T1Kauaiblk6|52=20210913-11:01:32.341|56=MA|10=157|8=FIX.4.4|9=58|35=0|34=142|49=T1Kauaiblk6|52=20210913-11:03:03.337|56=MA|10=163|8=FIX.4.4|9=58|35=0|34=143|49=T1Kauaiblk6|52=20210913-11:04:33.337|56=MA|10=168|8=FIX.4.4|9=58|35=0|34=144|49=T1Kauaiblk6|52=20210913-11:06:03.344|56=MA|10=166|8=FIX.4.4|9=58|35=0|34=145|49=T1Kauaiblk6|52=20210913-11:07:34.336|56=MA|10=173|8=FIX.4.4|9=58|35=0|34=146|49=T1Kauaiblk6|52=20210913-11:09:04.336|56=MA|10=173|8=FIX.4.4|9=58|35=0|34=147|49=T1Kauaiblk6|52=20210913-11:10:34.337|56=MA|10=170|8=FIX.4.4|9=58|35=0|34=148|49=T1Kauaiblk6|52=20210913-11:12:04.340|56=MA|10=164|8=FIX.4.4|9=58|35=0|34=149|49=T1Kauaiblk6|52=20210913-11:13:34.348|56=MA|10=177|8=FIX.4.4|9=58|35=0|34=150|49=T1Kauaiblk6|52=20210913-11:15:05.344|56=MA|10=165|8=FIX.4.4|9=58|35=0|34=151|49=T1Kauaiblk6|52=20210913-11:16:35.351|56=MA|10=168|8=FIX.4.4|9=58|35=0|34=152|49=T1Kauaiblk6|52=20210913-11:18:06.342|56=MA|10=169|8=FIX.4.4|9=58|35=0|34=153|49=T1Kauaiblk6|52=20210913-11:19:36.343|56=MA|10=175|8=FIX.4.4|9=58|35=0|34=154|49=T1Kauaiblk6|52=20210913-11:21:06.351|56=MA|10=165|8=FIX.4.4|9=58|35=0|34=155|49=T1Kauaiblk6|52=20210913-11:22:36.355|56=MA|10=174|8=FIX.4.4|9=58|35=0|34=156|49=T1Kauaiblk6|52=20210913-11:24:07.345|56=MA|10=174|8=FIX.4.4|9=58|35=0|34=157|49=T1Kauaiblk6|52=20210913-11:25:37.353|56=MA|10=178|8=FIX.4.4|9=58|35=0|34=158|49=T1Kauaiblk6|52=20210913-11:27:08.348|56=MA|10=183|8=FIX.4.4|9=58|35=0|34=159|49=T1Kauaiblk6|52=20210913-11:28:38.356|56=MA|10=187|8=FIX.4.4|9=58|35=0|34=160|49=T1Kauaiblk6|52=20210913-11:30:08.358|56=MA|10=171|8=FIX.4.4|9=58|35=0|34=161|49=T1Kauaiblk6|52=20210913-11:31:38.359|56=MA|10=177|8=FIX.4.4|9=58|35=0|34=162|49=T1Kauaiblk6|52=20210913-11:33:09.360|56=MA|10=170|8=FIX.4.4|9=58|35=0|34=163|49=T1Kauaiblk6|52=20210913-11:34:40.357|56=MA|10=173|8=FIX.4.4|9=58|35=0|34=164|49=T1Kauaiblk6|52=20210913-11:36:10.359|56=MA|10=175|8=FIX.4.4|9=58|35=0|34=165|49=T1Kauaiblk6|52=20210913-11:37:40.362|56=MA|10=174|8=FIX.4.4|9=58|35=0|34=166|49=T1Kauaiblk6|52=20210913-11:39:11.348|56=MA|10=179|8=FIX.4.4|9=58|35=0|34=167|49=T1Kauaiblk6|52=20210913-11:40:41.353|56=MA|10=171|8=FIX.4.4|9=58|35=0|34=168|49=T1Kauaiblk6|52=20210913-11:42:11.355|56=MA|10=173|8=FIX.4.4|9=58|35=0|34=169|49=T1Kauaiblk6|52=20210913-11:43:41.361|56=MA|10=175|8=FIX.4.4|9=58|35=0|34=170|49=T1Kauaiblk6|52=20210913-11:45:12.362|56=MA|10=168|8=FIX.4.4|9=58|35=0|34=171|49=T1Kauaiblk6|52=20210913-11:46:42.362|56=MA|10=173|8=FIX.4.4|9=58|35=0|34=172|49=T1Kauaiblk6|52=20210913-11:48:13.350|56=MA|10=171|8=FIX.4.4|9=58|35=0|34=173|49=T1Kauaiblk6|52=20210913-11:49:43.350|56=MA|10=176|8=FIX.4.4|9=58|35=0|34=174|49=T1Kauaiblk6|52=20210913-11:51:14.358|56=MA|10=176|8=FIX.4.4|9=58|35=0|34=175|49=T1Kauaiblk6|52=20210913-11:52:45.352|56=MA|10=176|8=FIX.4.4|9=58|35=0|34=176|49=T1Kauaiblk6|52=20210913-11:54:15.368|56=MA|10=183|8=FIX.4.4|9=58|35=0|34=177|49=T1Kauaiblk6|52=20210913-11:55:46.356|56=MA|10=186|8=FIX.4.4|9=58|35=0|34=178|49=T1Kauaiblk6|52=20210913-11:57:16.361|56=MA|10=182|8=FIX.4.4|9=58|35=0|34=179|49=T1Kauaiblk6|52=20210913-11:58:47.355|56=MA|10=191|8=FIX.4.4|9=58|35=0|34=180|49=T1Kauaiblk6|52=20210913-12:00:17.365|56=MA|10=169|8=FIX.4.4|9=58|35=0|34=181|49=T1Kauaiblk6|52=20210913-12:01:48.361|56=MA|10=171|8=FIX.4.4|9=58|35=0|34=182|49=T1Kauaiblk6|52=20210913-12:03:19.358|56=MA|10=178|8=FIX.4.4|9=58|35=0|34=183|49=T1Kauaiblk6|52=20210913-12:04:49.365|56=MA|10=181|8=FIX.4.4|9=58|35=0|34=184|49=T1Kauaiblk6|52=20210913-12:06:20.362|56=MA|10=170|8=FIX.4.4|9=58|35=0|34=185|49=T1Kauaiblk6|52=20210913-12:07:50.364|56=MA|10=177|8=FIX.4.4|9=58|35=0|34=186|49=T1Kauaiblk6|52=20210913-12:09:21.361|56=MA|10=175|8=FIX.4.4|9=58|35=0|34=187|49=T1Kauaiblk6|52=20210913-12:10:52.364|56=MA|10=175|8=FIX.4.4|9=58|35=0|34=188|49=T1Kauaiblk6|52=20210913-12:12:23.356|56=MA|10=177|8=FIX.4.4|9=58|35=0|34=189|49=T1Kauaiblk6|52=20210913-12:13:53.361|56=MA|10=178|8=FIX.4.4|9=58|35=0|34=190|49=T1Kauaiblk6|52=20210913-12:15:23.364|56=MA|10=172|8=FIX.4.4|9=58|35=0|34=191|49=T1Kauaiblk6|52=20210913-12:16:53.366|56=MA|10=179|8=FIX.4.4|9=58|35=0|34=192|49=T1Kauaiblk6|52=20210913-12:18:24.362|56=MA|10=176|8=FIX.4.4|9=58|35=0|34=193|49=T1Kauaiblk6|52=20210913-12:19:55.361|56=MA|10=181|8=FIX.4.4|9=58|35=0|34=194|49=T1Kauaiblk6|52=20210913-12:21:25.361|56=MA|10=172|8=FIX.4.4|9=58|35=0|34=195|49=T1Kauaiblk6|52=20210913-12:22:56.364|56=MA|10=181|8=FIX.4.4|9=58|35=0|34=196|49=T1Kauaiblk6|52=20210913-12:24:26.367|56=MA|10=184|8=FIX.4.4|9=58|35=0|34=197|49=T1Kauaiblk6|52=20210913-12:25:57.356|56=MA|10=188|8=FIX.4.4|9=58|35=0|34=198|49=T1Kauaiblk6|52=20210913-12:27:27.364|56=MA|10=187|8=FIX.4.4|9=58|35=0|34=199|49=T1Kauaiblk6|52=20210913-12:28:58.364|56=MA|10=193|8=FIX.4.4|9=58|35=0|34=200|49=T1Kauaiblk6|52=20210913-12:30:28.368|56=MA|10=170|8=FIX.4.4|9=58|35=0|34=201|49=T1Kauaiblk6|52=20210913-12:31:59.362|56=MA|10=170|8=FIX.4.4|9=58|35=0|34=202|49=T1Kauaiblk6|52=20210913-12:33:29.364|56=MA|10=172|8=FIX.4.4|9=58|35=0|34=203|49=T1Kauaiblk6|52=20210913-12:34:59.364|56=MA|10=177|8=FIX.4.4|9=58|35=0|34=204|49=T1Kauaiblk6|52=20210913-12:36:30.358|56=MA|10=172|8=FIX.4.4|9=58|35=0|34=205|49=T1Kauaiblk6|52=20210913-12:38:00.360|56=MA|10=165|8=FIX.4.4|9=58|35=0|34=206|49=T1Kauaiblk6|52=20210913-12:39:31.366|56=MA|10=177|8=FIX.4.4|9=58|35=0|34=207|49=T1Kauaiblk6|52=20210913-12:41:02.353|56=MA|10=165|8=FIX.4.4|9=58|35=0|34=208|49=T1Kauaiblk6|52=20210913-12:42:32.355|56=MA|10=172|8=FIX.4.4|9=58|35=0|34=209|49=T1Kauaiblk6|52=20210913-12:44:02.356|56=MA|10=173|8=FIX.4.4|9=58|35=0|34=210|49=T1Kauaiblk6|52=20210913-12:45:32.362|56=MA|10=166|8=FIX.4.4|9=58|35=0|34=211|49=T1Kauaiblk6|52=20210913-12:47:03.353|56=MA|10=167|8=FIX.4.4|9=58|35=0|34=212|49=T1Kauaiblk6|52=20210913-12:48:33.353|56=MA|10=172|8=FIX.4.4|9=58|35=0|34=213|49=T1Kauaiblk6|52=20210913-12:50:03.353|56=MA|10=163|8=FIX.4.4|9=58|35=0|34=214|49=T1Kauaiblk6|52=20210913-12:51:33.354|56=MA|10=169|8=FIX.4.4|9=58|35=0|34=215|49=T1Kauaiblk6|52=20210913-12:53:03.355|56=MA|10=170|8=FIX.4.4|9=58|35=0|34=216|49=T1Kauaiblk6|52=20210913-12:54:33.355|56=MA|10=175|8=FIX.4.4|9=58|35=0|34=217|49=T1Kauaiblk6|52=20210913-12:56:04.355|56=MA|10=176|8=FIX.4.4|9=58|35=0|34=218|49=T1Kauaiblk6|52=20210913-12:57:34.355|56=MA|10=181|8=FIX.4.4|9=58|35=0|34=219|49=T1Kauaiblk6|52=20210913-12:59:04.358|56=MA|10=184|8=FIX.4.4|9=58|35=0|34=220|49=T1Kauaiblk6|52=20210913-13:00:34.360|56=MA|10=159|8=FIX.4.4|9=58|35=0|34=221|49=T1Kauaiblk6|52=20210913-13:02:04.363|56=MA|10=162|8=FIX.4.4|9=58|35=0|34=222|49=T1Kauaiblk6|52=20210913-13:03:34.366|56=MA|10=170|8=FIX.4.4|9=58|35=0|34=223|49=T1Kauaiblk6|52=20210913-13:05:04.370|56=MA|10=165|8=FIX.4.4|9=58|35=0|34=224|49=T1Kauaiblk6|52=20210913-13:06:34.371|56=MA|10=171|8=FIX.4.4|9=58|35=0|34=225|49=T1Kauaiblk6|52=20210913-13:08:04.374|56=MA|10=174|8=FIX.4.4|9=58|35=0|34=226|49=T1Kauaiblk6|52=20210913-13:09:34.375|56=MA|10=180|8=FIX.4.4|9=58|35=0|34=227|49=T1Kauaiblk6|52=20210913-13:11:04.376|56=MA|10=172|8=FIX.4.4|9=58|35=0|34=228|49=T1Kauaiblk6|52=20210913-13:12:34.381|56=MA|10=173|8=FIX.4.4|9=58|35=0|34=229|49=T1Kauaiblk6|52=20210913-13:14:04.381|56=MA|10=173|8=FIX.4.4|9=58|35=0|34=230|49=T1Kauaiblk6|52=20210913-13:15:34.392|56=MA|10=171|8=FIX.4.4|9=58|35=0|34=231|49=T1Kauaiblk6|52=20210913-13:17:05.394|56=MA|10=174|8=FIX.4.4|9=58|35=0|34=232|49=T1Kauaiblk6|52=20210913-13:18:36.394|56=MA|10=180|8=FIX.4.4|9=58|35=0|34=233|49=T1Kauaiblk6|52=20210913-13:20:07.385|56=MA|10=172|8=FIX.4.4|9=58|35=0|34=234|49=T1Kauaiblk6|52=20210913-13:21:37.398|56=MA|10=181|8=FIX.4.4|9=58|35=0|34=235|49=T1Kauaiblk6|52=20210913-13:23:08.385|56=MA|10=178|8=FIX.4.4|9=58|35=0|34=236|49=T1Kauaiblk6|52=20210913-13:24:38.387|56=MA|10=185|8=FIX.4.4|9=58|35=5|34=237|49=T1Kauaiblk6|52=20210913-13:26:03.632|56=MA|10=178|8=FIX.4.4|9=91|35=A|34=1|49=T1Kauaiblk6|52=20210915-07:49:06.498|56=MA|98=0|108=90|95=8|96=3.0.0rc5|141=Y|10=061|8=FIX.4.4|9=713|35=E|34=2|49=T1Kauaiblk6|52=20210915-07:49:12.617|56=MA|66=ListID-041321-rodrigo-17963|394=2|68=5|73=5|11=ClOrdID-17964|22=4|38=100000|44=100|48=US06051GEN51|54=1|55=[N/A/]|63=3|67=1|423=1|29726=100.25|453=1|448=T1Kauaiblk6|447=C|452=11|11=ClOrdID-17965|22=4|38=100000|44=101|48=US40434AAB52|54=1|55=[N/A]|63=3|67=2|29726=101.25|11=ClOrdID-17966|22=4|38=130000|44=102|48=US95709TAH32|54=1|55=[N/A/]|63=3|67=1|29726=102.25|453=1|448=T1Kauaiblk6|447=C|452=11|11=ClOrdID-17967|22=4|38=250000|44=103|48=US427866AZ15|54=1|55=[N/A/]|63=3|67=1|29726=103.25|453=1|448=T1Kauaiblk6|447=C|452=11|11=ClOrdID-17968|22=4|38=350000|44=104|48=US29379VAW37|54=1|55=[N/A/]|63=3|67=1|29726=104.25|453=1|448=T1Kauaiblk6|447=C|452=11|10=047|8=FIX.4.4|9=713|35=E|34=3|49=T1Kauaiblk6|52=20210915-07:49:13.101|56=MA|66=ListID-041321-rodrigo-17969|394=2|68=5|73=5|11=ClOrdID-17970|22=4|38=100000|44=100|48=US06051GEN51|54=1|55=[N/A/]|63=3|67=1|423=1|29726=100.25|453=1|448=T1Kauaiblk6|447=C|452=11|11=ClOrdID-17971|22=4|38=100000|44=101|48=US40434AAB52|54=1|55=[N/A]|63=3|67=2|29726=101.25|11=ClOrdID-17972|22=4|38=130000|44=102|48=US95709TAH32|54=1|55=[N/A/]|63=3|67=1|29726=102.25|453=1|448=T1Kauaiblk6|447=C|452=11|11=ClOrdID-17973|22=4|38=250000|44=103|48=US427866AZ15|54=1|55=[N/A/]|63=3|67=1|29726=103.25|453=1|448=T1Kauaiblk6|447=C|452=11|11=ClOrdID-17974|22=4|38=350000|44=104|48=US29379VAW37|54=1|55=[N/A/]|63=3|67=1|29726=104.25|453=1|448=T1Kauaiblk6|447=C|452=11|10=028|8=FIX.4.4|9=56|35=0|34=4|49=T1Kauaiblk6|52=20210915-07:50:43.490|56=MA|10=075|8=FIX.4.4|9=56|35=0|34=5|49=T1Kauaiblk6|52=20210915-07:52:14.484|56=MA|10=079|8=FIX.4.4|9=56|35=0|34=6|49=T1Kauaiblk6|52=20210915-07:53:44.492|56=MA|10=083|8=FIX.4.4|9=56|35=0|34=7|49=T1Kauaiblk6|52=20210915-07:55:15.289|56=MA|10=088|8=FIX.4.4|9=56|35=0|34=8|49=T1Kauaiblk6|52=20210915-07:56:45.498|56=MA|10=095|8=FIX.4.4|9=56|35=0|34=9|49=T1Kauaiblk6|52=20210915-07:58:16.490|56=MA|10=088|8=FIX.4.4|9=57|35=0|34=10|49=T1Kauaiblk6|52=20210915-07:59:46.495|56=MA|10=138|8=FIX.4.4|9=57|35=0|34=11|49=T1Kauaiblk6|52=20210915-08:01:17.049|56=MA|10=120|8=FIX.4.4|9=57|35=0|34=12|49=T1Kauaiblk6|52=20210915-08:02:47.171|56=MA|10=121|8=FIX.4.4|9=57|35=0|34=13|49=T1Kauaiblk6|52=20210915-08:04:17.485|56=MA|10=129|8=FIX.4.4|9=57|35=0|34=14|49=T1Kauaiblk6|52=20210915-08:05:47.495|56=MA|10=135|8=FIX.4.4|9=57|35=0|34=15|49=T1Kauaiblk6|52=20210915-08:07:17.496|56=MA|10=136|8=FIX.4.4|9=57|35=0|34=16|49=T1Kauaiblk6|52=20210915-08:08:47.496|56=MA|10=141|8=FIX.4.4|9=57|35=0|34=17|49=T1Kauaiblk6|52=20210915-08:10:18.343|56=MA|10=124|8=FIX.4.4|9=57|35=0|34=18|49=T1Kauaiblk6|52=20210915-08:11:48.495|56=MA|10=137|8=FIX.4.4|9=57|35=0|34=19|49=T1Kauaiblk6|52=20210915-08:13:19.009|56=MA|10=129|8=FIX.4.4|9=57|35=0|34=20|49=T1Kauaiblk6|52=20210915-08:14:49.492|56=MA|10=131|8=FIX.4.4|9=57|35=0|34=21|49=T1Kauaiblk6|52=20210915-08:16:19.493|56=MA|10=132|8=FIX.4.4|9=57|35=0|34=22|49=T1Kauaiblk6|52=20210915-08:17:50.221|56=MA|10=118|8=FIX.4.4|9=57|35=0|34=23|49=T1Kauaiblk6|52=20210915-08:19:20.429|56=MA|10=128|8=FIX.4.4|9=57|35=0|34=24|49=T1Kauaiblk6|52=20210915-08:20:50.491|56=MA|10=123|8=FIX.4.4|9=57|35=0|34=25|49=T1Kauaiblk6|52=20210915-08:22:21.165|56=MA|10=122|8=FIX.4.4|9=57|35=0|34=26|49=T1Kauaiblk6|52=20210915-08:23:51.485|56=MA|10=132|8=FIX.4.4|9=57|35=0|34=27|49=T1Kauaiblk6|52=20210915-08:25:21.488|56=MA|10=135|8=FIX.4.4|9=57|35=0|34=28|49=T1Kauaiblk6|52=20210915-08:26:51.491|56=MA|10=134|8=FIX.4.4|9=57|35=0|34=29|49=T1Kauaiblk6|52=20210915-08:28:22.491|56=MA|10=135|8=FIX.4.4|9=57|35=0|34=30|49=T1Kauaiblk6|52=20210915-08:29:53.251|56=MA|10=126|8=FIX.4.4|9=57|35=0|34=31|49=T1Kauaiblk6|52=20210915-08:31:23.302|56=MA|10=114|8=FIX.4.4|9=57|35=0|34=32|49=T1Kauaiblk6|52=20210915-08:32:53.489|56=MA|10=135|8=FIX.4.4|9=57|35=0|34=33|49=T1Kauaiblk6|52=20210915-08:34:23.490|56=MA|10=127|8=FIX.4.4|9=57|35=0|34=34|49=T1Kauaiblk6|52=20210915-08:35:53.491|56=MA|10=133|8=FIX.4.4|9=57|35=0|34=35|49=T1Kauaiblk6|52=20210915-08:37:23.502|56=MA|10=126|8=FIX.4.4|9=57|35=0|34=36|49=T1Kauaiblk6|52=20210915-08:38:54.350|56=MA|10=133|8=FIX.4.4|9=57|35=0|34=37|49=T1Kauaiblk6|52=20210915-08:40:24.499|56=MA|10=138|8=FIX.4.4|9=57|35=0|34=38|49=T1Kauaiblk6|52=20210915-08:41:54.503|56=MA|10=129|8=FIX.4.4|9=57|35=0|34=39|49=T1Kauaiblk6|52=20210915-08:43:25.500|56=MA|10=127|8=FIX.4.4|9=57|35=0|34=40|49=T1Kauaiblk6|52=20210915-08:44:55.502|56=MA|10=125|8=FIX.4.4|9=57|35=0|34=41|49=T1Kauaiblk6|52=20210915-08:46:26.488|56=MA|10=139|8=FIX.4.4|9=57|35=0|34=42|49=T1Kauaiblk6|52=20210915-08:47:56.500|56=MA|10=129|8=FIX.4.4|9=57|35=0|34=43|49=T1Kauaiblk6|52=20210915-08:49:26.500|56=MA|10=129|8=FIX.4.4|9=57|35=0|34=44|49=T1Kauaiblk6|52=20210915-08:50:57.490|56=MA|10=134|8=FIX.4.4|9=57|35=0|34=45|49=T1Kauaiblk6|52=20210915-08:52:27.496|56=MA|10=140|8=FIX.4.4|9=57|35=0|34=46|49=T1Kauaiblk6|52=20210915-08:53:58.502|56=MA|10=134|8=FIX.4.4|9=57|35=0|34=47|49=T1Kauaiblk6|52=20210915-08:55:29.498|56=MA|10=149|8=FIX.4.4|9=57|35=0|34=48|49=T1Kauaiblk6|52=20210915-08:56:59.500|56=MA|10=138|8=FIX.4.4|9=57|35=0|34=49|49=T1Kauaiblk6|52=20210915-08:58:29.506|56=MA|10=144|8=FIX.4.4|9=57|35=0|34=50|49=T1Kauaiblk6|52=20210915-09:00:00.497|56=MA|10=122|8=FIX.4.4|9=57|35=0|34=51|49=T1Kauaiblk6|52=20210915-09:01:31.489|56=MA|10=129|8=FIX.4.4|9=57|35=0|34=52|49=T1Kauaiblk6|52=20210915-09:03:01.499|56=MA|10=130|8=FIX.4.4|9=57|35=0|34=53|49=T1Kauaiblk6|52=20210915-09:04:32.495|56=MA|10=132|8=FIX.4.4|9=57|35=0|34=54|49=T1Kauaiblk6|52=20210915-09:06:03.507|56=MA|10=127|8=FIX.4.4|9=57|35=0|34=55|49=T1Kauaiblk6|52=20210915-09:07:34.492|56=MA|10=136|8=FIX.4.4|9=57|35=0|34=56|49=T1Kauaiblk6|52=20210915-09:09:04.500|56=MA|10=126|8=FIX.4.4|9=57|35=0|34=57|49=T1Kauaiblk6|52=20210915-09:10:34.506|56=MA|10=128|8=FIX.4.4|9=57|35=0|34=58|49=T1Kauaiblk6|52=20210915-09:12:05.509|56=MA|10=132|8=FIX.4.4|9=57|35=0|34=59|49=T1Kauaiblk6|52=20210915-09:13:36.503|56=MA|10=132|8=FIX.4.4|9=57|35=0|34=60|49=T1Kauaiblk6|52=20210915-09:15:07.494|56=MA|10=133|8=FIX.4.4|9=57|35=0|34=61|49=T1Kauaiblk6|52=20210915-09:16:37.507|56=MA|10=133|8=FIX.4.4|9=57|35=0|34=62|49=T1Kauaiblk6|52=20210915-09:18:08.505|56=MA|10=132|8=FIX.4.4|9=57|35=0|34=63|49=T1Kauaiblk6|52=20210915-09:19:39.496|56=MA|10=147|8=FIX.4.4|9=57|35=0|34=64|49=T1Kauaiblk6|52=20210915-09:21:09.505|56=MA|10=129|8=FIX.4.4|9=57|35=0|34=65|49=T1Kauaiblk6|52=20210915-09:22:40.500|56=MA|10=121|8=FIX.4.4|9=57|35=0|34=66|49=T1Kauaiblk6|52=20210915-09:24:10.502|56=MA|10=123|8=FIX.4.4|9=57|35=0|34=67|49=T1Kauaiblk6|52=20210915-09:25:40.505|56=MA|10=131|8=FIX.4.4|9=57|35=0|34=68|49=T1Kauaiblk6|52=20210915-09:27:11.500|56=MA|10=127|8=FIX.4.4|9=57|35=0|34=69|49=T1Kauaiblk6|52=20210915-09:28:42.508|56=MA|10=141|8=FIX.4.4|9=57|35=0|34=70|49=T1Kauaiblk6|52=20210915-09:30:13.509|56=MA|10=125|8=FIX.4.4|9=57|35=0|34=71|49=T1Kauaiblk6|52=20210915-09:31:44.501|56=MA|10=123|8=FIX.4.4|9=57|35=0|34=72|49=T1Kauaiblk6|52=20210915-09:33:14.503|56=MA|10=125|8=FIX.4.4|9=57|35=0|34=73|49=T1Kauaiblk6|52=20210915-09:34:45.506|56=MA|10=134|8=FIX.4.4|9=57|35=0|34=74|49=T1Kauaiblk6|52=20210915-09:36:16.510|56=MA|10=130|8=FIX.4.4|9=57|35=0|34=75|49=T1Kauaiblk6|52=20210915-09:37:47.512|56=MA|10=138|8=FIX.4.4|9=57|35=0|34=76|49=T1Kauaiblk6|52=20210915-09:39:18.247|56=MA|10=144|8=FIX.4.4|9=57|35=0|34=77|49=T1Kauaiblk6|52=20210915-09:40:48.500|56=MA|10=132|8=FIX.4.4|9=57|35=0|34=78|49=T1Kauaiblk6|52=20210915-09:42:18.508|56=MA|10=140|8=FIX.4.4|9=57|35=0|34=79|49=T1Kauaiblk6|52=20210915-09:43:48.991|56=MA|10=151|8=FIX.4.4|9=57|35=0|34=80|49=T1Kauaiblk6|52=20210915-09:45:18.994|56=MA|10=145|8=FIX.4.4|9=57|35=0|34=81|49=T1Kauaiblk6|52=20210915-09:46:49.020|56=MA|10=131|8=FIX.4.4|9=57|35=0|34=82|49=T1Kauaiblk6|52=20210915-09:48:19.512|56=MA|10=137|8=FIX.4.4|9=57|35=0|34=83|49=T1Kauaiblk6|52=20210915-09:49:49.514|56=MA|10=144|8=FIX.4.4|9=57|35=0|34=84|49=T1Kauaiblk6|52=20210915-09:51:20.272|56=MA|10=128|8=FIX.4.4|9=57|35=0|34=85|49=T1Kauaiblk6|52=20210915-09:52:50.506|56=MA|10=133|8=FIX.4.4|9=57|35=0|34=86|49=T1Kauaiblk6|52=20210915-09:54:20.513|56=MA|10=131|8=FIX.4.4|9=57|35=0|34=87|49=T1Kauaiblk6|52=20210915-09:55:50.722|56=MA|10=138|8=FIX.4.4|9=57|35=0|34=88|49=T1Kauaiblk6|52=20210915-09:57:21.094|56=MA|10=141|8=FIX.4.4|9=57|35=0|34=89|49=T1Kauaiblk6|52=20210915-09:58:51.511|56=MA|10=140|8=FIX.4.4|9=57|35=0|34=90|49=T1Kauaiblk6|52=20210915-10:00:21.519|56=MA|10=116|8=FIX.4.4|9=57|35=0|34=91|49=T1Kauaiblk6|52=20210915-10:01:52.520|56=MA|10=114|8=FIX.4.4|9=57|35=0|34=92|49=T1Kauaiblk6|52=20210915-10:03:22.521|56=MA|10=115|8=FIX.4.4|9=57|35=0|34=93|49=T1Kauaiblk6|52=20210915-10:04:53.121|56=MA|10=117|8=FIX.4.4|9=57|35=0|34=94|49=T1Kauaiblk6|52=20210915-10:06:23.508|56=MA|10=126|8=FIX.4.4|9=57|35=0|34=95|49=T1Kauaiblk6|52=20210915-10:07:53.517|56=MA|10=131|8=FIX.4.4|9=57|35=0|34=96|49=T1Kauaiblk6|52=20210915-10:09:24.523|56=MA|10=129|8=FIX.4.4|9=57|35=0|34=97|49=T1Kauaiblk6|52=20210915-10:10:55.513|56=MA|10=125|8=FIX.4.4|9=57|35=0|34=98|49=T1Kauaiblk6|52=20210915-10:12:25.519|56=MA|10=131|8=FIX.4.4|9=57|35=0|34=99|49=T1Kauaiblk6|52=20210915-10:13:55.522|56=MA|10=130|8=FIX.4.4|9=58|35=0|34=100|49=T1Kauaiblk6|52=20210915-10:15:26.517|56=MA|10=166|8=FIX.4.4|9=58|35=0|34=101|49=T1Kauaiblk6|52=20210915-10:16:57.521|56=MA|10=167|8=FIX.4.4|9=58|35=0|34=102|49=T1Kauaiblk6|52=20210915-10:18:28.520|56=MA|10=167|8=FIX.4.4|9=58|35=0|34=103|49=T1Kauaiblk6|52=20210915-10:19:58.520|56=MA|10=172|8=FIX.4.4|9=58|35=0|34=104|49=T1Kauaiblk6|52=20210915-10:21:28.523|56=MA|10=166|8=FIX.4.4|9=58|35=0|34=105|49=T1Kauaiblk6|52=20210915-10:22:58.528|56=MA|10=176|8=FIX.4.4|9=58|35=0|34=106|49=T1Kauaiblk6|52=20210915-10:24:29.515|56=MA|10=173|8=FIX.4.4|9=58|35=0|34=107|49=T1Kauaiblk6|52=20210915-10:25:59.520|56=MA|10=174|8=FIX.4.4|9=58|35=0|34=108|49=T1Kauaiblk6|52=20210915-10:27:29.528|56=MA|10=182|8=FIX.4.4|9=58|35=0|34=109|49=T1Kauaiblk6|52=20210915-10:28:59.528|56=MA|10=187|8=FIX.4.4|9=58|35=0|34=110|49=T1Kauaiblk6|52=20210915-10:30:29.528|56=MA|10=169|8=FIX.4.4|9=58|35=0|34=111|49=T1Kauaiblk6|52=20210915-10:32:00.531|56=MA|10=155|8=FIX.4.4|9=58|35=0|34=112|49=T1Kauaiblk6|52=20210915-10:33:30.532|56=MA|10=161|8=FIX.4.4|9=58|35=0|34=113|49=T1Kauaiblk6|52=20210915-10:35:00.532|56=MA|10=161|8=FIX.4.4|9=58|35=0|34=114|49=T1Kauaiblk6|52=20210915-10:36:30.533|56=MA|10=167|8=FIX.4.4|9=58|35=0|34=115|49=T1Kauaiblk6|52=20210915-10:38:01.533|56=MA|10=168|8=FIX.4.4|9=58|35=0|34=116|49=T1Kauaiblk6|52=20210915-10:39:31.535|56=MA|10=175|8=FIX.4.4|9=58|35=0|34=117|49=T1Kauaiblk6|52=20210915-10:41:02.526|56=MA|10=167|8=FIX.4.4|9=58|35=0|34=118|49=T1Kauaiblk6|52=20210915-10:42:32.534|56=MA|10=171|8=FIX.4.4|9=58|35=0|34=119|49=T1Kauaiblk6|52=20210915-10:44:03.536|56=MA|10=174|8=FIX.4.4|9=58|35=0|34=120|49=T1Kauaiblk6|52=20210915-10:45:34.537|56=MA|10=172|8=FIX.4.4|9=58|35=0|34=121|49=T1Kauaiblk6|52=20210915-10:47:04.538|56=MA|10=173|8=FIX.4.4|9=58|35=0|34=122|49=T1Kauaiblk6|52=20210915-10:48:35.527|56=MA|10=177|8=FIX.4.4|9=58|35=0|34=123|49=T1Kauaiblk6|52=20210915-10:50:05.538|56=MA|10=170|8=FIX.4.4|9=58|35=0|34=124|49=T1Kauaiblk6|52=20210915-10:51:36.528|56=MA|10=175|8=FIX.4.4|9=58|35=0|34=125|49=T1Kauaiblk6|52=20210915-10:53:06.530|56=MA|10=168|8=FIX.4.4|9=58|35=0|34=126|49=T1Kauaiblk6|52=20210915-10:54:37.535|56=MA|10=179|8=FIX.4.4|9=58|35=0|34=127|49=T1Kauaiblk6|52=20210915-10:56:07.537|56=MA|10=181|8=FIX.4.4|9=58|35=0|34=128|49=T1Kauaiblk6|52=20210915-10:57:38.535|56=MA|10=185|8=FIX.4.4|9=58|35=0|34=129|49=T1Kauaiblk6|52=20210915-10:59:08.536|56=MA|10=186|8=FIX.4.4|9=58|35=0|34=130|49=T1Kauaiblk6|52=20210915-11:00:38.536|56=MA|10=168|8=FIX.4.4|9=58|35=0|34=131|49=T1Kauaiblk6|52=20210915-11:02:09.526|56=MA|10=168|8=FIX.4.4|9=58|35=0|34=132|49=T1Kauaiblk6|52=20210915-11:03:39.530|56=MA|10=168|8=FIX.4.4|9=58|35=0|34=133|49=T1Kauaiblk6|52=20210915-11:05:09.539|56=MA|10=177|8=FIX.4.4|9=58|35=0|34=134|49=T1Kauaiblk6|52=20210915-11:06:40.533|56=MA|10=168|8=FIX.4.4|9=58|35=0|34=135|49=T1Kauaiblk6|52=20210915-11:08:11.536|56=MA|10=172|8=FIX.4.4|9=58|35=0|34=136|49=T1Kauaiblk6|52=20210915-11:09:42.534|56=MA|10=176|8=FIX.4.4|9=58|35=0|34=137|49=T1Kauaiblk6|52=20210915-11:11:12.537|56=MA|10=170|8=FIX.4.4|9=58|35=0|34=138|49=T1Kauaiblk6|52=20210915-11:12:43.535|56=MA|10=174|8=FIX.4.4|9=58|35=0|34=139|49=T1Kauaiblk6|52=20210915-11:14:13.548|56=MA|10=178|8=FIX.4.4|9=58|35=0|34=140|49=T1Kauaiblk6|52=20210915-11:15:44.536|56=MA|10=172|8=FIX.4.4|9=58|35=0|34=141|49=T1Kauaiblk6|52=20210915-11:17:14.538|56=MA|10=174|8=FIX.4.4|9=58|35=0|34=142|49=T1Kauaiblk6|52=20210915-11:18:44.539|56=MA|10=180|8=FIX.4.4|9=58|35=0|34=143|49=T1Kauaiblk6|52=20210915-11:20:14.541|56=MA|10=164|8=FIX.4.4|9=58|35=0|34=144|49=T1Kauaiblk6|52=20210915-11:21:45.532|56=MA|10=170|8=FIX.4.4|9=58|35=0|34=145|49=T1Kauaiblk6|52=20210915-11:23:15.532|56=MA|10=170|8=FIX.4.4|9=58|35=0|34=146|49=T1Kauaiblk6|52=20210915-11:24:45.532|56=MA|10=175|8=FIX.4.4|9=58|35=0|34=147|49=T1Kauaiblk6|52=20210915-11:26:15.542|56=MA|10=176|8=FIX.4.4|9=58|35=0|34=148|49=T1Kauaiblk6|52=20210915-11:27:45.544|56=MA|10=183|8=FIX.4.4|9=58|35=0|34=149|49=T1Kauaiblk6|52=20210915-11:29:16.537|56=MA|10=186|8=FIX.4.4|9=58|35=0|34=150|49=T1Kauaiblk6|52=20210915-11:30:47.531|56=MA|10=168|8=FIX.4.4|9=58|35=0|34=151|49=T1Kauaiblk6|52=20210915-11:32:17.531|56=MA|10=168|8=FIX.4.4|9=58|35=0|34=152|49=T1Kauaiblk6|52=20210915-11:33:47.536|56=MA|10=178|8=FIX.4.4|9=58|35=0|34=153|49=T1Kauaiblk6|52=20210915-11:35:17.546|56=MA|10=179|8=FIX.4.4|9=58|35=0|34=154|49=T1Kauaiblk6|52=20210915-11:36:47.546|56=MA|10=184|8=FIX.4.4|9=58|35=0|34=155|49=T1Kauaiblk6|52=20210915-11:38:18.545|56=MA|10=184|8=FIX.4.4|9=58|35=0|34=156|49=T1Kauaiblk6|52=20210915-11:39:49.544|56=MA|10=189|8=FIX.4.4|9=58|35=0|34=157|49=T1Kauaiblk6|52=20210915-11:41:20.537|56=MA|10=174|8=FIX.4.4|9=58|35=0|34=158|49=T1Kauaiblk6|52=20210915-11:42:50.552|56=MA|10=176|8=FIX.4.4|9=58|35=0|34=159|49=T1Kauaiblk6|52=20210915-11:44:20.553|56=MA|10=177|8=FIX.4.4|9=58|35=0|34=160|49=T1Kauaiblk6|52=20210915-11:45:51.556|56=MA|10=177|8=FIX.4.4|9=58|35=0|34=161|49=T1Kauaiblk6|52=20210915-11:47:22.549|56=MA|10=180|8=FIX.4.4|9=58|35=0|34=162|49=T1Kauaiblk6|52=20210915-11:48:53.546|56=MA|10=183|8=FIX.4.4|9=58|35=0|34=163|49=T1Kauaiblk6|52=20210915-11:50:23.556|56=MA|10=175|8=FIX.4.4|9=58|35=0|34=164|49=T1Kauaiblk6|52=20210915-11:51:54.550|56=MA|10=175|8=FIX.4.4|9=58|35=0|34=165|49=T1Kauaiblk6|52=20210915-11:53:24.550|56=MA|10=175|8=FIX.4.4|9=58|35=0|34=166|49=T1Kauaiblk6|52=20210915-11:54:54.555|56=MA|10=185|8=FIX.4.4|9=58|35=0|34=167|49=T1Kauaiblk6|52=20210915-11:56:25.549|56=MA|10=189|8=FIX.4.4|9=58|35=0|34=168|49=T1Kauaiblk6|52=20210915-11:57:55.554|56=MA|10=190|8=FIX.4.4|9=58|35=0|34=169|49=T1Kauaiblk6|52=20210915-11:59:26.552|56=MA|10=189|8=FIX.4.4|9=58|35=0|34=170|49=T1Kauaiblk6|52=20210915-12:00:57.546|56=MA|10=175|8=FIX.4.4|9=58|35=0|34=171|49=T1Kauaiblk6|52=20210915-12:02:27.549|56=MA|10=178|8=FIX.4.4|9=58|35=0|34=172|49=T1Kauaiblk6|52=20210915-12:03:57.549|56=MA|10=183|8=FIX.4.4|9=58|35=0|34=173|49=T1Kauaiblk6|52=20210915-12:05:27.555|56=MA|10=180|8=FIX.4.4|9=58|35=0|34=174|49=T1Kauaiblk6|52=20210915-12:06:57.557|56=MA|10=187|8=FIX.4.4|9=58|35=0|34=175|49=T1Kauaiblk6|52=20210915-12:08:28.559|56=MA|10=190|8=FIX.4.4|9=58|35=0|34=176|49=T1Kauaiblk6|52=20210915-12:09:59.555|56=MA|10=192|8=FIX.4.4|9=58|35=0|34=177|49=T1Kauaiblk6|52=20210915-12:11:29.556|56=MA|10=184|8=FIX.4.4|9=58|35=0|34=178|49=T1Kauaiblk6|52=20210915-12:12:59.560|56=MA|10=184|8=FIX.4.4|9=58|35=0|34=179|49=T1Kauaiblk6|52=20210915-12:14:30.556|56=MA|10=181|8=FIX.4.4|9=58|35=0|34=180|49=T1Kauaiblk6|52=20210915-12:16:00.563|56=MA|10=170|8=FIX.4.4|9=58|35=0|34=181|49=T1Kauaiblk6|52=20210915-12:17:31.554|56=MA|10=176|8=FIX.4.4|9=58|35=0|34=182|49=T1Kauaiblk6|52=20210915-12:19:01.560|56=MA|10=173|8=FIX.4.4|9=58|35=0|34=183|49=T1Kauaiblk6|52=20210915-12:20:32.568|56=MA|10=178|8=FIX.4.4|9=58|35=0|34=184|49=T1Kauaiblk6|52=20210915-12:22:03.567|56=MA|10=178|8=FIX.4.4|9=58|35=0|34=185|49=T1Kauaiblk6|52=20210915-12:23:34.557|56=MA|10=183|8=FIX.4.4|9=58|35=0|34=186|49=T1Kauaiblk6|52=20210915-12:25:04.559|56=MA|10=185|8=FIX.4.4|9=58|35=0|34=187|49=T1Kauaiblk6|52=20210915-12:26:34.564|56=MA|10=186|8=FIX.4.4|9=58|35=0|34=188|49=T1Kauaiblk6|52=20210915-12:28:04.570|56=MA|10=183|8=FIX.4.4|9=58|35=0|34=189|49=T1Kauaiblk6|52=20210915-12:29:35.571|56=MA|10=190|8=FIX.4.4|9=58|35=0|34=190|49=T1Kauaiblk6|52=20210915-12:31:05.572|56=MA|10=173|8=FIX.4.4|9=58|35=0|34=191|49=T1Kauaiblk6|52=20210915-12:32:36.567|56=MA|10=183|8=FIX.4.4|9=58|35=0|34=192|49=T1Kauaiblk6|52=20210915-12:34:07.566|56=MA|10=183|8=FIX.4.4|9=58|35=0|34=193|49=T1Kauaiblk6|52=20210915-12:35:38.562|56=MA|10=185|8=FIX.4.4|9=58|35=0|34=194|49=T1Kauaiblk6|52=20210915-12:37:08.562|56=MA|10=185|8=FIX.4.4|9=58|35=0|34=195|49=T1Kauaiblk6|52=20210915-12:38:38.567|56=MA|10=195|8=FIX.4.4|9=58|35=0|34=196|49=T1Kauaiblk6|52=20210915-12:40:09.573|56=MA|10=184|8=FIX.4.4|9=58|35=0|34=197|49=T1Kauaiblk6|52=20210915-12:41:40.566|56=MA|10=183|8=FIX.4.4|9=58|35=0|34=198|49=T1Kauaiblk6|52=20210915-12:43:11.575|56=MA|10=184|8=FIX.4.4|9=58|35=0|34=199|49=T1Kauaiblk6|52=20210915-12:44:42.569|56=MA|10=193|8=FIX.4.4|9=58|35=0|34=200|49=T1Kauaiblk6|52=20210915-12:46:12.569|56=MA|10=175|8=FIX.4.4|9=58|35=0|34=201|49=T1Kauaiblk6|52=20210915-12:47:42.570|56=MA|10=172|8=FIX.4.4|9=58|35=0|34=202|49=T1Kauaiblk6|52=20210915-12:49:12.574|56=MA|10=176|8=FIX.4.4|9=58|35=0|34=203|49=T1Kauaiblk6|52=20210915-12:50:43.567|56=MA|10=175|8=FIX.4.4|9=58|35=0|34=204|49=T1Kauaiblk6|52=20210915-12:52:13.572|56=MA|10=171|8=FIX.4.4|9=58|35=0|34=205|49=T1Kauaiblk6|52=20210915-12:53:43.573|56=MA|10=177|8=FIX.4.4|9=58|35=0|34=206|49=T1Kauaiblk6|52=20210915-12:55:14.571|56=MA|10=176|8=FIX.4.4|9=58|35=0|34=207|49=T1Kauaiblk6|52=20210915-12:56:45.563|56=MA|10=183|8=FIX.4.4|9=58|35=0|34=208|49=T1Kauaiblk6|52=20210915-12:58:15.577|56=MA|10=188|8=FIX.4.4|9=58|35=0|34=209|49=T1Kauaiblk6|52=20210915-12:59:46.569|56=MA|10=195|8=FIX.4.4|9=58|35=0|34=210|49=T1Kauaiblk6|52=20210915-13:01:16.573|56=MA|10=167|8=FIX.4.4|9=58|35=0|34=211|49=T1Kauaiblk6|52=20210915-13:02:47.563|56=MA|10=172|8=FIX.4.4|9=58|35=0|34=212|49=T1Kauaiblk6|52=20210915-13:04:17.564|56=MA|10=173|8=FIX.4.4|9=58|35=0|34=213|49=T1Kauaiblk6|52=20210915-13:05:48.562|56=MA|10=177|8=FIX.4.4|9=58|35=0|34=214|49=T1Kauaiblk6|52=20210915-13:07:18.575|56=MA|10=181|8=FIX.4.4|9=58|35=0|34=215|49=T1Kauaiblk6|52=20210915-13:08:49.568|56=MA|10=189|8=FIX.4.4|9=58|35=0|34=216|49=T1Kauaiblk6|52=20210915-13:10:20.571|56=MA|10=166|8=FIX.4.4|9=58|35=0|34=217|49=T1Kauaiblk6|52=20210915-13:11:51.575|56=MA|10=176|8=FIX.4.4|9=58|35=0|34=218|49=T1Kauaiblk6|52=20210915-13:13:22.562|56=MA|10=173|8=FIX.4.4|9=58|35=0|34=219|49=T1Kauaiblk6|52=20210915-13:14:52.568|56=MA|10=184|8=FIX.4.4|9=58|35=0|34=220|49=T1Kauaiblk6|52=20210915-13:16:22.575|56=MA|10=173|8=FIX.4.4|9=58|35=0|34=221|49=T1Kauaiblk6|52=20210915-13:17:53.572|56=MA|10=176|8=FIX.4.4|9=58|35=0|34=222|49=T1Kauaiblk6|52=20210915-13:19:23.578|56=MA|10=182|8=FIX.4.4|9=58|35=5|34=223|49=T1Kauaiblk6|52=20210915-13:20:41.094|56=MA|10=173|8=FIX.4.4|9=91|35=A|34=1|49=T1Kauaiblk6|52=20210916-09:15:58.865|56=MA|98=0|108=90|95=8|96=3.0.0rc5|141=Y|10=062|8=FIX.4.4|9=713|35=E|34=2|49=T1Kauaiblk6|52=20210916-09:16:01.766|56=MA|66=ListID-041321-rodrigo-17975|394=2|68=5|73=5|11=ClOrdID-17976|22=4|38=100000|44=100|48=US06051GEN51|54=1|55=[N/A/]|63=3|67=1|423=1|29726=100.25|453=1|448=T1Kauaiblk6|447=C|452=11|11=ClOrdID-17977|22=4|38=100000|44=101|48=US40434AAB52|54=1|55=[N/A]|63=3|67=2|29726=101.25|11=ClOrdID-17978|22=4|38=130000|44=102|48=US95709TAH32|54=1|55=[N/A/]|63=3|67=1|29726=102.25|453=1|448=T1Kauaiblk6|447=C|452=11|11=ClOrdID-17979|22=4|38=250000|44=103|48=US427866AZ15|54=1|55=[N/A/]|63=3|67=1|29726=103.25|453=1|448=T1Kauaiblk6|447=C|452=11|11=ClOrdID-17980|22=4|38=350000|44=104|48=US29379VAW37|54=1|55=[N/A/]|63=3|67=1|29726=104.25|453=1|448=T1Kauaiblk6|447=C|452=11|10=056|8=FIX.4.4|9=713|35=E|34=3|49=T1Kauaiblk6|52=20210916-09:16:02.320|56=MA|66=ListID-041321-rodrigo-17981|394=2|68=5|73=5|11=ClOrdID-17982|22=4|38=100000|44=100|48=US06051GEN51|54=1|55=[N/A/]|63=3|67=1|423=1|29726=100.25|453=1|448=T1Kauaiblk6|447=C|452=11|11=ClOrdID-17983|22=4|38=100000|44=101|48=US40434AAB52|54=1|55=[N/A]|63=3|67=2|29726=101.25|11=ClOrdID-17984|22=4|38=130000|44=102|48=US95709TAH32|54=1|55=[N/A/]|63=3|67=1|29726=102.25|453=1|448=T1Kauaiblk6|447=C|452=11|11=ClOrdID-17985|22=4|38=250000|44=103|48=US427866AZ15|54=1|55=[N/A/]|63=3|67=1|29726=103.25|453=1|448=T1Kauaiblk6|447=C|452=11|11=ClOrdID-17986|22=4|38=350000|44=104|48=US29379VAW37|54=1|55=[N/A/]|63=3|67=1|29726=104.25|453=1|448=T1Kauaiblk6|447=C|452=11|10=035|8=FIX.4.4|9=56|35=0|34=4|49=T1Kauaiblk6|52=20210916-09:17:32.648|56=MA|10=084|8=FIX.4.4|9=56|35=0|34=5|49=T1Kauaiblk6|52=20210916-09:19:02.821|56=MA|10=077|8=FIX.4.4|9=56|35=0|34=6|49=T1Kauaiblk6|52=20210916-09:20:32.821|56=MA|10=073|8=FIX.4.4|9=56|35=0|34=7|49=T1Kauaiblk6|52=20210916-09:22:03.640|56=MA|10=073|8=FIX.4.4|9=713|35=E|34=8|49=T1Kauaiblk6|52=20210916-09:22:30.553|56=MA|66=ListID-041321-rodrigo-17987|394=2|68=5|73=5|11=ClOrdID-17988|22=4|38=100000|44=100|48=US06051GEN51|54=1|55=[N/A/]|63=3|67=1|423=1|29726=100.25|453=1|448=T1Kauaiblk6|447=C|452=11|11=ClOrdID-17989|22=4|38=100000|44=101|48=US40434AAB52|54=1|55=[N/A]|63=3|67=2|29726=101.25|11=ClOrdID-17990|22=4|38=130000|44=102|48=US95709TAH32|54=1|55=[N/A/]|63=3|67=1|29726=102.25|453=1|448=T1Kauaiblk6|447=C|452=11|11=ClOrdID-17991|22=4|38=250000|44=103|48=US427866AZ15|54=1|55=[N/A/]|63=3|67=1|29726=103.25|453=1|448=T1Kauaiblk6|447=C|452=11|11=ClOrdID-17992|22=4|38=350000|44=104|48=US29379VAW37|54=1|55=[N/A/]|63=3|67=1|29726=104.25|453=1|448=T1Kauaiblk6|447=C|452=11|10=055|8=FIX.4.4|9=713|35=E|34=9|49=T1Kauaiblk6|52=20210916-09:22:31.018|56=MA|66=ListID-041321-rodrigo-17993|394=2|68=5|73=5|11=ClOrdID-17994|22=4|38=100000|44=100|48=US06051GEN51|54=1|55=[N/A/]|63=3|67=1|423=1|29726=100.25|453=1|448=T1Kauaiblk6|447=C|452=11|11=ClOrdID-17995|22=4|38=100000|44=101|48=US40434AAB52|54=1|55=[N/A]|63=3|67=2|29726=101.25|11=ClOrdID-17996|22=4|38=130000|44=102|48=US95709TAH32|54=1|55=[N/A/]|63=3|67=1|29726=102.25|453=1|448=T1Kauaiblk6|447=C|452=11|11=ClOrdID-17997|22=4|38=250000|44=103|48=US427866AZ15|54=1|55=[N/A/]|63=3|67=1|29726=103.25|453=1|448=T1Kauaiblk6|447=C|452=11|11=ClOrdID-17998|22=4|38=350000|44=104|48=US29379VAW37|54=1|55=[N/A/]|63=3|67=1|29726=104.25|453=1|448=T1Kauaiblk6|447=C|452=11|10=062|8=FIX.4.4|9=75|35=5|34=10|49=T1Kauaiblk6|52=20210916-09:22:54.817|56=MA|58=user requested|10=225|8=FIX.4.4|9=91|35=A|34=1|49=T1Kauaiblk6|52=20210916-09:23:35.585|56=MA|98=0|108=90|95=8|96=3.0.0rc5|141=Y|10=055|8=FIX.4.4|9=713|35=E|34=2|49=T1Kauaiblk6|52=20210916-09:23:39.761|56=MA|66=ListID-041321-rodrigo-17999|394=2|68=5|73=5|11=ClOrdID-18000|22=4|38=100000|44=100|48=US06051GEN51|54=1|55=[N/A/]|63=3|67=1|423=1|29726=100.25|453=1|448=T1Kauaiblk6|447=C|452=11|11=ClOrdID-18001|22=4|38=100000|44=101|48=US40434AAB52|54=1|55=[N/A]|63=3|67=2|29726=101.25|11=ClOrdID-18002|22=4|38=130000|44=102|48=US95709TAH32|54=1|55=[N/A/]|63=3|67=1|29726=102.25|453=1|448=T1Kauaiblk6|447=C|452=11|11=ClOrdID-18003|22=4|38=250000|44=103|48=US427866AZ15|54=1|55=[N/A/]|63=3|67=1|29726=103.25|453=1|448=T1Kauaiblk6|447=C|452=11|11=ClOrdID-18004|22=4|38=350000|44=104|48=US29379VAW37|54=1|55=[N/A/]|63=3|67=1|29726=104.25|453=1|448=T1Kauaiblk6|447=C|452=11|10=226|8=FIX.4.4|9=713|35=E|34=3|49=T1Kauaiblk6|52=20210916-09:23:41.614|56=MA|66=ListID-041321-rodrigo-18005|394=2|68=5|73=5|11=ClOrdID-18006|22=4|38=100000|44=100|48=US06051GEN51|54=1|55=[N/A/]|63=3|67=1|423=1|29726=100.25|453=1|448=T1Kauaiblk6|447=C|452=11|11=ClOrdID-18007|22=4|38=100000|44=101|48=US40434AAB52|54=1|55=[N/A]|63=3|67=2|29726=101.25|11=ClOrdID-18008|22=4|38=130000|44=102|48=US95709TAH32|54=1|55=[N/A/]|63=3|67=1|29726=102.25|453=1|448=T1Kauaiblk6|447=C|452=11|11=ClOrdID-18009|22=4|38=250000|44=103|48=US427866AZ15|54=1|55=[N/A/]|63=3|67=1|29726=103.25|453=1|448=T1Kauaiblk6|447=C|452=11|11=ClOrdID-18010|22=4|38=350000|44=104|48=US29379VAW37|54=1|55=[N/A/]|63=3|67=1|29726=104.25|453=1|448=T1Kauaiblk6|447=C|452=11|10=217|8=FIX.4.4|9=56|35=0|34=4|49=T1Kauaiblk6|52=20210916-09:25:12.587|56=MA|10=083|8=FIX.4.4|9=56|35=0|34=5|49=T1Kauaiblk6|52=20210916-09:26:42.593|56=MA|10=085|8=FIX.4.4|9=56|35=0|34=6|49=T1Kauaiblk6|52=20210916-09:28:12.597|56=MA|10=089|8=FIX.4.4|9=56|35=0|34=7|49=T1Kauaiblk6|52=20210916-09:29:43.041|56=MA|10=079|8=FIX.4.4|9=56|35=0|34=8|49=T1Kauaiblk6|52=20210916-09:31:13.587|56=MA|10=085|8=FIX.4.4|9=56|35=0|34=9|49=T1Kauaiblk6|52=20210916-09:32:43.599|56=MA|10=093|8=FIX.4.4|9=57|35=0|34=10|49=T1Kauaiblk6|52=20210916-09:34:14.595|56=MA|10=130|8=FIX.4.4|9=57|35=0|34=11|49=T1Kauaiblk6|52=20210916-09:35:45.598|56=MA|10=139|8=FIX.4.4|9=75|35=5|34=12|49=T1Kauaiblk6|52=20210916-09:36:34.591|56=MA|58=user requested|10=229|8=FIX.4.4|9=91|35=A|34=1|49=T1Kauaiblk6|52=20210916-09:45:15.975|56=MA|98=0|108=90|95=8|96=3.0.0rc5|141=Y|10=060|8=FIX.4.4|9=713|35=E|34=2|49=T1Kauaiblk6|52=20210916-09:45:26.711|56=MA|66=ListID-041321-rodrigo-18011|394=2|68=5|73=5|11=ClOrdID-18012|22=4|38=100000|44=100|48=US06051GEN51|54=1|55=[N/A/]|63=3|67=1|423=1|29726=100.25|453=1|448=T1Kauaiblk6|447=C|452=11|11=ClOrdID-18013|22=4|38=100000|44=101|48=US40434AAB52|54=1|55=[N/A]|63=3|67=2|29726=101.25|11=ClOrdID-18014|22=4|38=130000|44=102|48=US95709TAH32|54=1|55=[N/A/]|63=3|67=1|29726=102.25|453=1|448=T1Kauaiblk6|447=C|452=11|11=ClOrdID-18015|22=4|38=250000|44=103|48=US427866AZ15|54=1|55=[N/A/]|63=3|67=1|29726=103.25|453=1|448=T1Kauaiblk6|447=C|452=11|11=ClOrdID-18016|22=4|38=350000|44=104|48=US29379VAW37|54=1|55=[N/A/]|63=3|67=1|29726=104.25|453=1|448=T1Kauaiblk6|447=C|452=11|10=212|8=FIX.4.4|9=2373|35=E|34=3|49=T1Kauaiblk6|52=20210916-09:45:27.107|56=MA|66=ListID-050221-18017|394=2|68=20|73=20|11=ClOrdID-18018|22=4|38=1000000|44=100.202|48=US06051GEN51|54=1|55=[N/A/]|67=1|423=1|29726=100.262|453=1|448=T1Kauaiblk6|447=C|452=11|11=ClOrdID-18019|22=4|38=2000000|44=99.23|48=US40434AAB52|54=1|55=[N/A]|67=2|423=1|29726=100.262|11=ClOrdID-18020|22=4|38=1300000|44=100.1|48=US06738JYZ10|54=1|55=[N/A/]|67=3|423=1|29726=99.555|453=1|448=T1Kauaiblk6|447=C|452=11|11=ClOrdID-18021|22=4|38=2500000|44=98.253|48=US95709TAH32|54=1|55=[N/A/]|67=4|423=1|29726=101.225|453=1|448=T1Kauaiblk6|447=C|452=11|11=ClOrdID-18022|22=4|38=3000000|44=100.235|48=US29379VAW37|54=1|55=[N/A/]|67=5|423=1|29726=99.66|453=1|448=T1Kauaiblk6|447=C|452=11|11=ClOrdID-18023|22=4|38=1000000|44=101.123|48=US48121ECC49|54=1|55=[N/A/]|67=6|423=1|29726=100.601|453=1|448=T1Kauaiblk6|447=C|452=11|11=ClOrdID-18024|22=4|38=3500000|44=102.32|48=US983024AL46|54=1|55=[N/A/]|67=7|423=1|453=1|448=T1Kauaiblk6|447=C|452=11|11=ClOrdID-18025|22=4|38=4500000|48=US61166WAE12|54=1|55=[N/A/]|67=8|453=1|448=T1Kauaiblk6|447=C|452=11|11=ClOrdID-18026|22=4|38=350000|48=US000828JAM09|54=1|55=[N/A/]|67=9|453=1|448=T1Kauaiblk6|447=C|452=11|11=ClOrdID-18027|22=4|38=1000000|48=US62630CAR25|54=1|55=[N/A/]|67=10|453=1|448=T1Kauaiblk6|447=C|452=11|11=ClOrdID-18028|22=4|38=1000000|48=US05379BAK35|54=1|55=[N/A/]|67=11|453=1|448=T1Kauaiblk6|447=C|452=11|11=ClOrdID-18029|22=4|38=1000000|48=US368710AC32|54=1|55=[N/A/]|67=12|453=1|448=T1Kauaiblk6|447=C|452=11|11=ClOrdID-18030|22=4|38=200000|48=XS1186833239|54=1|55=[N/A/]|67=13|453=1|448=T1Kauaiblk6|447=C|452=11|11=ClOrdID-18031|22=4|38=350000|48=US842400FC28|54=1|55=[N/A/]|67=14|453=1|448=T1Kauaiblk6|447=C|452=11|11=ClOrdID-18032|22=4|38=5000000|48=US927804FA70|54=1|55=[N/A/]|67=15|453=1|448=T1Kauaiblk6|447=C|452=11|11=ClOrdID-18033|22=4|38=500000|48=US472319AC60|54=1|55=[N/A/]|67=16|453=1|448=T1Kauaiblk6|447=C|452=11|11=ClOrdID-18034|22=4|38=700000|44=99.992|48=US93884PDN78|54=1|55=[N/A/]|67=17|423=1|453=1|448=T1Kauaiblk6|447=C|452=11|11=ClOrdID-18035|22=4|38=8000000|48=US06050XWS88|54=1|55=[N/A/]|67=8|453=1|448=T1Kauaiblk6|447=C|452=11|11=ClOrdID-18036|22=4|38=1000000|44=98.985|48=US87425EAJ29|54=1|55=[N/A/]|67=19|423=1|453=1|448=T1Kauaiblk6|447=C|452=11|11=ClOrdID-18037|22=4|38=2000000|48=US816300AG24|54=1|55=[N/A/]|67=20|453=1|448=T1Kauaiblk6|447=C|452=11|10=210|8=FIX.4.4|9=56|35=0|34=4|49=T1Kauaiblk6|52=20210916-09:46:57.961|56=MA|10=091|8=FIX.4.4|9=56|35=0|34=5|49=T1Kauaiblk6|52=20210916-09:48:27.974|56=MA|10=095|8=FIX.4.4|9=56|35=0|34=6|49=T1Kauaiblk6|52=20210916-09:49:58.631|56=MA|10=091|8=FIX.4.4|9=56|35=0|34=7|49=T1Kauaiblk6|52=20210916-09:51:28.963|56=MA|10=090|8=FIX.4.4|9=56|35=0|34=8|49=T1Kauaiblk6|52=20210916-09:52:58.968|56=MA|10=100|8=FIX.4.4|9=56|35=0|34=9|49=T1Kauaiblk6|52=20210916-09:54:28.973|56=MA|10=096|8=FIX.4.4|9=57|35=0|34=10|49=T1Kauaiblk6|52=20210916-09:55:59.465|56=MA|10=138|8=FIX.4.4|9=57|35=0|34=11|49=T1Kauaiblk6|52=20210916-09:57:29.965|56=MA|10=143|8=FIX.4.4|9=57|35=0|34=12|49=T1Kauaiblk6|52=20210916-09:58:59.973|56=MA|10=147|8=FIX.4.4|9=191|35=D|34=13|49=T1Kauaiblk6|52=20210916-09:59:24.371|56=MA|11=NOS-230821-18038|453=1|448=T1Kauaiblk6|447=C|452=11|55=NA|48=US06051GEN51|22=4|54=2|60=20210916-09:59:24.371|38=1000000|40=1|423=1|10=050|8=FIX.4.4|9=57|35=0|34=14|49=T1Kauaiblk6|52=20210916-10:00:54.625|56=MA|10=117|8=FIX.4.4|9=57|35=0|34=15|49=T1Kauaiblk6|52=20210916-10:02:24.980|56=MA|10=121|8=FIX.4.4|9=57|35=0|34=16|49=T1Kauaiblk6|52=20210916-10:03:54.987|56=MA|10=133|8=FIX.4.4|9=191|35=D|34=17|49=T1Kauaiblk6|52=20210916-10:04:03.590|56=MA|11=NOS-230821-18039|453=1|448=T1Kauaiblk6|447=C|452=11|55=NA|48=US40434AAB52|22=4|54=2|60=20210916-10:04:03.590|38=1000000|40=1|423=1|10=001|8=FIX.4.4|9=191|35=D|34=18|49=T1Kauaiblk6|52=20210916-10:04:11.648|56=MA|11=NOS-230821-18040|453=1|448=T1Kauaiblk6|447=C|452=11|55=NA|48=US95709TAH32|22=4|54=2|60=20210916-10:04:11.648|38=1000000|40=1|423=1|10=038|8=FIX.4.4|9=191|35=D|34=19|49=T1Kauaiblk6|52=20210916-10:04:18.291|56=MA|11=NOS-230821-18041|453=1|448=T1Kauaiblk6|447=C|452=11|55=NA|48=US427866AZ15|22=4|54=2|60=20210916-10:04:18.290|38=1000000|40=1|423=1|10=027|8=FIX.4.4|9=191|35=D|34=20|49=T1Kauaiblk6|52=20210916-10:04:24.906|56=MA|11=NOS-230821-18042|453=1|448=T1Kauaiblk6|447=C|452=11|55=NA|48=US29379VAW37|22=4|54=2|60=20210916-10:04:24.906|38=1000000|40=1|423=1|10=057|8=FIX.4.4|9=57|35=0|34=21|49=T1Kauaiblk6|52=20210916-10:05:54.976|56=MA|10=129|8=FIX.4.4|9=57|35=0|34=22|49=T1Kauaiblk6|52=20210916-10:07:25.470|56=MA|10=119|8=FIX.4.4|9=57|35=0|34=23|49=T1Kauaiblk6|52=20210916-10:08:55.632|56=MA|10=124|8=FIX.4.4|9=57|35=0|34=24|49=T1Kauaiblk6|52=20210916-10:10:25.979|56=MA|10=129|8=FIX.4.4|9=57|35=0|34=25|49=T1Kauaiblk6|52=20210916-10:11:55.985|56=MA|10=131|8=FIX.4.4|9=57|35=0|34=26|49=T1Kauaiblk6|52=20210916-10:13:25.986|56=MA|10=132|8=FIX.4.4|9=57|35=0|34=27|49=T1Kauaiblk6|52=20210916-10:14:56.990|56=MA|10=133|8=FIX.4.4|9=57|35=0|34=28|49=T1Kauaiblk6|52=20210916-10:16:27.995|56=MA|10=139|8=FIX.4.4|9=57|35=0|34=29|49=T1Kauaiblk6|52=20210916-10:17:58.478|56=MA|10=141|8=FIX.4.4|9=57|35=0|34=30|49=T1Kauaiblk6|52=20210916-10:19:28.981|56=MA|10=131|8=FIX.4.4|9=57|35=0|34=31|49=T1Kauaiblk6|52=20210916-10:20:58.987|56=MA|10=133|8=FIX.4.4|9=57|35=0|34=32|49=T1Kauaiblk6|52=20210916-10:22:28.990|56=MA|10=127|8=FIX.4.4|9=57|35=0|34=33|49=T1Kauaiblk6|52=20210916-10:23:58.991|56=MA|10=133|8=FIX.4.4|9=57|35=0|34=34|49=T1Kauaiblk6|52=20210916-10:25:29.654|56=MA|10=130|8=FIX.4.4|9=57|35=0|34=35|49=T1Kauaiblk6|52=20210916-10:26:59.670|56=MA|10=133|8=FIX.4.4|9=57|35=0|34=36|49=T1Kauaiblk6|52=20210916-10:28:29.994|56=MA|10=142|8=FIX.4.4|9=57|35=0|34=37|49=T1Kauaiblk6|52=20210916-10:30:00.654|56=MA|10=118|8=FIX.4.4|9=191|35=D|34=38|49=T1Kauaiblk6|52=20210916-10:30:15.965|56=MA|11=NOS-230821-18043|453=1|448=T1Kauaiblk6|447=C|452=11|55=NA|48=US06051GEN51|22=4|54=2|60=20210916-10:30:15.964|38=1000000|40=1|423=1|10=032|8=FIX.4.4|9=191|35=D|34=39|49=T1Kauaiblk6|52=20210916-10:30:38.634|56=MA|11=NOS-230821-18044|453=1|448=T1Kauaiblk6|447=C|452=11|55=NA|48=US427866AZ15|22=4|54=2|60=20210916-10:30:38.634|38=1000000|40=1|423=1|10=037|8=FIX.4.4|9=191|35=D|34=40|49=T1Kauaiblk6|52=20210916-10:30:48.320|56=MA|11=NOS-230821-18045|453=1|448=T1Kauaiblk6|447=C|452=11|55=NA|48=US40434AAB52|22=4|54=2|60=20210916-10:30:48.320|38=1000000|40=1|423=1|10=248|8=FIX.4.4|9=191|35=D|34=41|49=T1Kauaiblk6|52=20210916-10:30:56.925|56=MA|11=NOS-230821-18046|453=1|448=T1Kauaiblk6|447=C|452=11|55=NA|48=US06051GEN51|22=4|54=2|60=20210916-10:30:56.924|38=1000000|40=1|423=1|10=031|8=FIX.4.4|9=57|35=0|34=42|49=T1Kauaiblk6|52=20210916-10:32:26.991|56=MA|10=128|8=FIX.4.4|9=57|35=0|34=43|49=T1Kauaiblk6|52=20210916-10:33:57.000|56=MA|10=115|8=FIX.4.4|9=57|35=0|34=44|49=T1Kauaiblk6|52=20210916-10:35:27.002|56=MA|10=117|8=FIX.4.4|9=57|35=0|34=45|49=T1Kauaiblk6|52=20210916-10:36:57.627|56=MA|10=135|8=FIX.4.4|9=57|35=0|34=46|49=T1Kauaiblk6|52=20210916-10:38:27.990|56=MA|10=138|8=FIX.4.4|9=57|35=0|34=47|49=T1Kauaiblk6|52=20210916-10:39:57.998|56=MA|10=151|8=FIX.4.4|9=57|35=0|34=48|49=T1Kauaiblk6|52=20210916-10:41:28.643|56=MA|10=130|8=FIX.4.4|9=57|35=0|34=49|49=T1Kauaiblk6|52=20210916-10:42:59.002|56=MA|10=125|8=FIX.4.4|9=57|35=0|34=50|49=T1Kauaiblk6|52=20210916-10:44:29.671|56=MA|10=128|8=FIX.4.4|9=57|35=0|34=51|49=T1Kauaiblk6|52=20210916-10:45:59.743|56=MA|10=133|8=FIX.4.4|9=57|35=0|34=52|49=T1Kauaiblk6|52=20210916-10:47:29.990|56=MA|10=137|8=FIX.4.4|9=57|35=0|34=53|49=T1Kauaiblk6|52=20210916-10:49:00.001|56=MA|10=112|8=FIX.4.4|9=57|35=0|34=54|49=T1Kauaiblk6|52=20210916-10:50:30.471|56=MA|10=119|8=FIX.4.4|9=57|35=0|34=55|49=T1Kauaiblk6|52=20210916-10:52:01.001|56=MA|10=109|8=FIX.4.4|9=57|35=0|34=56|49=T1Kauaiblk6|52=20210916-10:53:31.996|56=MA|10=137|8=FIX.4.4|9=57|35=0|34=57|49=T1Kauaiblk6|52=20210916-10:55:02.002|56=MA|10=116|8=FIX.4.4|9=57|35=0|34=58|49=T1Kauaiblk6|52=20210916-10:56:32.472|56=MA|10=132|8=FIX.4.4|9=57|35=0|34=59|49=T1Kauaiblk6|52=20210916-10:58:02.991|56=MA|10=138|8=FIX.4.4|9=57|35=0|34=60|49=T1Kauaiblk6|52=20210916-10:59:32.991|56=MA|10=134|8=FIX.4.4|9=57|35=0|34=61|49=T1Kauaiblk6|52=20210916-11:01:02.998|56=MA|10=127|8=FIX.4.4|9=57|35=0|34=62|49=T1Kauaiblk6|52=20210916-11:02:34.002|56=MA|10=110|8=FIX.4.4|9=57|35=0|34=63|49=T1Kauaiblk6|52=20210916-11:04:04.992|56=MA|10=128|8=FIX.4.4|9=57|35=0|34=64|49=T1Kauaiblk6|52=20210916-11:05:35.003|56=MA|10=117|8=FIX.4.4|9=57|35=0|34=65|49=T1Kauaiblk6|52=20210916-11:07:05.998|56=MA|10=140|8=FIX.4.4|9=57|35=0|34=66|49=T1Kauaiblk6|52=20210916-11:08:35.999|56=MA|10=146|8=FIX.4.4|9=57|35=0|34=67|49=T1Kauaiblk6|52=20210916-11:10:07.004|56=MA|10=116|8=FIX.4.4|9=57|35=0|34=68|49=T1Kauaiblk6|52=20210916-11:11:37.991|56=MA|10=136|8=FIX.4.4|9=57|35=0|34=69|49=T1Kauaiblk6|52=20210916-11:13:08.004|56=MA|10=122|8=FIX.4.4|9=57|35=0|34=70|49=T1Kauaiblk6|52=20210916-11:14:39.002|56=MA|10=117|8=FIX.4.4|9=57|35=0|34=71|49=T1Kauaiblk6|52=20210916-11:16:09.996|56=MA|10=139|8=FIX.4.4|9=57|35=0|34=72|49=T1Kauaiblk6|52=20210916-11:17:40.001|56=MA|10=113|8=FIX.4.4|9=57|35=0|34=73|49=T1Kauaiblk6|52=20210916-11:19:10.990|56=MA|10=130|8=FIX.4.4|9=57|35=0|34=74|49=T1Kauaiblk6|52=20210916-11:20:41.000|56=MA|10=109|8=FIX.4.4|9=57|35=0|34=75|49=T1Kauaiblk6|52=20210916-11:22:12.002|56=MA|10=112|8=FIX.4.4|9=57|35=0|34=76|49=T1Kauaiblk6|52=20210916-11:23:42.999|56=MA|10=142|8=FIX.4.4|9=57|35=0|34=77|49=T1Kauaiblk6|52=20210916-11:25:14.007|56=MA|10=124|8=FIX.4.4|9=57|35=0|34=78|49=T1Kauaiblk6|52=20210916-11:26:45.000|56=MA|10=123|8=FIX.4.4|9=57|35=0|34=79|49=T1Kauaiblk6|52=20210916-11:28:15.995|56=MA|10=146|8=FIX.4.4|9=57|35=0|34=80|49=T1Kauaiblk6|52=20210916-11:29:46.004|56=MA|10=124|8=FIX.4.4|9=57|35=0|34=81|49=T1Kauaiblk6|52=20210916-11:31:16.009|56=MA|10=120|8=FIX.4.4|9=57|35=0|34=82|49=T1Kauaiblk6|52=20210916-11:32:47.011|56=MA|10=119|8=FIX.4.4|9=57|35=0|34=83|49=T1Kauaiblk6|52=20210916-11:34:18.006|56=MA|10=124|8=FIX.4.4|9=57|35=0|34=84|49=T1Kauaiblk6|52=20210916-11:35:49.004|56=MA|10=128|8=FIX.4.4|9=57|35=0|34=85|49=T1Kauaiblk6|52=20210916-11:37:19.006|56=MA|10=130|8=FIX.4.4|9=57|35=0|34=86|49=T1Kauaiblk6|52=20210916-11:38:49.999|56=MA|10=156|8=FIX.4.4|9=57|35=0|34=87|49=T1Kauaiblk6|52=20210916-11:40:19.999|56=MA|10=147|8=FIX.4.4|9=57|35=0|34=88|49=T1Kauaiblk6|52=20210916-11:41:50.006|56=MA|10=123|8=FIX.4.4|9=57|35=0|34=89|49=T1Kauaiblk6|52=20210916-11:43:20.013|56=MA|10=121|8=FIX.4.4|9=57|35=0|34=90|49=T1Kauaiblk6|52=20210916-11:44:50.018|56=MA|10=122|8=FIX.4.4|9=57|35=0|34=91|49=T1Kauaiblk6|52=20210916-11:46:21.002|56=MA|10=116|8=FIX.4.4|9=57|35=0|34=92|49=T1Kauaiblk6|52=20210916-11:47:51.017|56=MA|10=127|8=FIX.4.4|9=57|35=0|34=93|49=T1Kauaiblk6|52=20210916-11:49:22.008|56=MA|10=128|8=FIX.4.4|9=57|35=0|34=94|49=T1Kauaiblk6|52=20210916-11:50:52.011|56=MA|10=118|8=FIX.4.4|9=57|35=0|34=95|49=T1Kauaiblk6|52=20210916-11:52:23.009|56=MA|10=126|8=FIX.4.4|9=57|35=0|34=96|49=T1Kauaiblk6|52=20210916-11:53:53.009|56=MA|10=131|8=FIX.4.4|9=57|35=0|34=97|49=T1Kauaiblk6|52=20210916-11:55:24.011|56=MA|10=125|8=FIX.4.4|9=57|35=0|34=98|49=T1Kauaiblk6|52=20210916-11:56:54.015|56=MA|10=134|8=FIX.4.4|9=57|35=0|34=99|49=T1Kauaiblk6|52=20210916-11:58:24.017|56=MA|10=136|8=FIX.4.4|9=58|35=0|34=100|49=T1Kauaiblk6|52=20210916-11:59:55.014|56=MA|10=170|8=FIX.4.4|9=58|35=0|34=101|49=T1Kauaiblk6|52=20210916-12:01:26.008|56=MA|10=160|8=FIX.4.4|9=58|35=0|34=102|49=T1Kauaiblk6|52=20210916-12:02:56.010|56=MA|10=158|8=FIX.4.4|9=58|35=0|34=103|49=T1Kauaiblk6|52=20210916-12:04:26.021|56=MA|10=160|8=FIX.4.4|9=58|35=0|34=104|49=T1Kauaiblk6|52=20210916-12:05:57.017|56=MA|10=171|8=FIX.4.4|9=58|35=0|34=105|49=T1Kauaiblk6|52=20210916-12:07:27.022|56=MA|10=167|8=FIX.4.4|9=58|35=0|34=106|49=T1Kauaiblk6|52=20210916-12:08:58.014|56=MA|10=174|8=FIX.4.4|9=58|35=0|34=107|49=T1Ka