8=FIX.4.4|9=87|35=A|34=1|49=MMJBAER|52=20181128-11:47:12.627|56=MA|98=0|108=90|95=8|96=3.0.0rc4|141=Y|10=083|8=FIX.4.4|9=81|35=A|34=2|49=MMJBAER|52=20181128-15:43:57.972|56=MA|98=0|108=90|95=8|96=3.0.0rc4|10=045|