8=FIX.4.4|9=91|35=A|34=1|49=T2Kauaiblk1|52=20210203-10:36:28.687|56=MA|98=0|108=90|95=8|96=3.0.0rc5|141=Y|10=041|8=FIX.4.4|9=699|35=E|34=2|49=T2Kauaiblk1|52=20210203-10:36:36.413|56=MA|66=ListID-030221-1324|394=2|68=5|73=5|11=ClOrdID-1325|22=4|38=100000|44=100|48=US06051GEN51|54=1|55=[N/A/]|63=3|67=1|423=1|29726=100.25|453=1|448=T2Kauaiblk1|447=C|452=11|11=ClOrdID-1326|22=4|38=100000|44=101|48=US40434AAB52|54=1|55=[N/A]|63=3|67=2|29726=101.25|11=ClOrdID-1327|22=4|38=130000|44=102|48=US95709TAH32|54=1|55=[N/A/]|63=3|67=1|29726=102.25|453=1|448=T2Kauaiblk1|447=C|452=11|11=ClOrdID-1328|22=4|38=250000|44=103|48=US025676AH01|54=1|55=[N/A/]|63=3|67=1|29726=103.25|453=1|448=T2Kauaiblk1|447=C|452=11|11=ClOrdID-1329|22=4|38=350000|44=104|48=US29379VAW37|54=1|55=[N/A/]|63=3|67=1|29726=104.25|453=1|448=T2Kauaiblk1|447=C|452=11|10=080|8=FIX.4.4|9=56|35=5|34=3|49=T2Kauaiblk1|52=20210203-10:37:25.688|56=MA|10=073|8=FIX.4.4|9=91|35=A|34=1|49=T2Kauaiblk1|52=20210203-10:37:32.687|56=MA|98=0|108=90|95=8|96=3.0.0rc5|141=Y|10=037|8=FIX.4.4|9=699|35=E|34=2|49=T2Kauaiblk1|52=20210203-10:37:36.903|56=MA|66=ListID-030221-1330|394=2|68=5|73=5|11=ClOrdID-1331|22=4|38=100000|44=100|48=US06051GEN51|54=1|55=[N/A/]|63=3|67=1|423=1|29726=100.25|453=1|448=T2Kauaiblk1|447=C|452=11|11=ClOrdID-1332|22=4|38=100000|44=101|48=US40434AAB52|54=1|55=[N/A]|63=3|67=2|29726=101.25|11=ClOrdID-1333|22=4|38=130000|44=102|48=US95709TAH32|54=1|55=[N/A/]|63=3|67=1|29726=102.25|453=1|448=T2Kauaiblk1|447=C|452=11|11=ClOrdID-1334|22=4|38=250000|44=103|48=US025676AH01|54=1|55=[N/A/]|63=3|67=1|29726=103.25|453=1|448=T2Kauaiblk1|447=C|452=11|11=ClOrdID-1335|22=4|38=350000|44=104|48=US29379VAW37|54=1|55=[N/A/]|63=3|67=1|29726=104.25|453=1|448=T2Kauaiblk1|447=C|452=11|10=067|8=FIX.4.4|9=56|35=5|34=3|49=T2Kauaiblk1|52=20210203-10:38:49.688|56=MA|10=080|8=FIX.4.4|9=91|35=A|34=1|49=T2Kauaiblk1|52=20210203-16:20:59.752|56=MA|98=0|108=90|95=8|96=3.0.0rc5|141=Y|10=037|8=FIX.4.4|9=699|35=E|34=2|49=T2Kauaiblk1|52=20210203-16:21:05.022|56=MA|66=ListID-030221-1462|394=2|68=5|73=5|11=ClOrdID-1463|22=4|38=100000|44=100|48=US06051GEN51|54=1|55=[N/A/]|63=3|67=1|423=1|29726=100.25|453=1|448=T2Kauaiblk1|447=C|452=11|11=ClOrdID-1464|22=4|38=100000|44=101|48=US40434AAB52|54=1|55=[N/A]|63=3|67=2|29726=101.25|11=ClOrdID-1465|22=4|38=130000|44=102|48=US95709TAH32|54=1|55=[N/A/]|63=3|67=1|29726=102.25|453=1|448=T2Kauaiblk1|447=C|452=11|11=ClOrdID-1466|22=4|38=250000|44=103|48=US427866AZ15|54=1|55=[N/A/]|63=3|67=1|29726=103.25|453=1|448=T2Kauaiblk1|447=C|452=11|11=ClOrdID-1467|22=4|38=350000|44=104|48=US29379VAW37|54=1|55=[N/A/]|63=3|67=1|29726=104.25|453=1|448=T2Kauaiblk1|447=C|452=11|10=120|8=FIX.4.4|9=56|35=0|34=3|49=T2Kauaiblk1|52=20210203-16:22:35.752|56=MA|10=061|8=FIX.4.4|9=56|35=0|34=4|49=T2Kauaiblk1|52=20210203-16:24:05.753|56=MA|10=062|8=FIX.4.4|9=56|35=0|34=5|49=T2Kauaiblk1|52=20210203-16:25:35.756|56=MA|10=070|8=FIX.4.4|9=56|35=0|34=6|49=T2Kauaiblk1|52=20210203-16:27:05.759|56=MA|10=073|8=FIX.4.4|9=56|35=0|34=7|49=T2Kauaiblk1|52=20210203-16:28:36.759|56=MA|10=079|8=FIX.4.4|9=56|35=0|34=8|49=T2Kauaiblk1|52=20210203-16:30:07.757|56=MA|10=069|8=FIX.4.4|9=56|35=0|34=9|49=T2Kauaiblk1|52=20210203-16:31:37.758|56=MA|10=075|8=FIX.4.4|9=57|35=5|34=10|49=T2Kauaiblk1|52=20210203-16:31:44.758|56=MA|10=119|