8=FIX.4.4|9=93|35=A|34=1|49=QA3Ver4_APA|52=20180619-10:48:28.111|56=TRAX|98=0|108=30|95=8|96=2.0.0rc4|141=Y|10=082|8=FIX.4.4|9=58|35=0|34=2|49=QA3Ver4_APA|52=20180619-10:48:58.665|56=TRAX|10=134|8=FIX.4.4|9=58|35=0|34=3|49=QA3Ver4_APA|52=20180619-10:49:28.671|56=TRAX|10=130|8=FIX.4.4|9=58|35=0|34=4|49=QA3Ver4_APA|52=20180619-10:49:59.032|56=TRAX|10=126|8=FIX.4.4|9=58|35=0|34=5|49=QA3Ver4_APA|52=20180619-10:50:29.038|56=TRAX|10=122|8=FIX.4.4|9=58|35=0|34=6|49=QA3Ver4_APA|52=20180619-10:50:59.039|56=TRAX|10=127|8=FIX.4.4|9=58|35=0|34=7|49=QA3Ver4_APA|52=20180619-10:51:30.042|56=TRAX|10=112|8=FIX.4.4|9=58|35=0|34=8|49=QA3Ver4_APA|52=20180619-10:52:01.037|56=TRAX|10=116|8=FIX.4.4|9=58|35=0|34=9|49=QA3Ver4_APA|52=20180619-10:52:32.025|56=TRAX|10=118|8=FIX.4.4|9=59|35=0|34=10|49=QA3Ver4_APA|52=20180619-10:53:02.027|56=TRAX|10=159|8=FIX.4.4|9=59|35=0|34=11|49=QA3Ver4_APA|52=20180619-10:53:32.036|56=TRAX|10=163|8=FIX.4.4|9=59|35=0|34=12|49=QA3Ver4_APA|52=20180619-10:54:03.029|56=TRAX|10=165|8=FIX.4.4|9=59|35=0|34=13|49=QA3Ver4_APA|52=20180619-10:54:34.033|56=TRAX|10=165|8=FIX.4.4|9=59|35=0|34=14|49=QA3Ver4_APA|52=20180619-10:55:05.021|56=TRAX|10=162|8=FIX.4.4|9=59|35=0|34=15|49=QA3Ver4_APA|52=20180619-10:55:35.029|56=TRAX|10=174|8=FIX.4.4|9=59|35=0|34=16|49=QA3Ver4_APA|52=20180619-10:56:06.028|56=TRAX|10=173|8=FIX.4.4|9=59|35=0|34=17|49=QA3Ver4_APA|52=20180619-10:56:37.023|56=TRAX|10=173|8=FIX.4.4|9=59|35=0|34=18|49=QA3Ver4_APA|52=20180619-10:57:08.016|56=TRAX|10=175|8=FIX.4.4|9=59|35=0|34=19|49=QA3Ver4_APA|52=20180619-10:57:38.029|56=TRAX|10=183|8=FIX.4.4|9=59|35=0|34=20|49=QA3Ver4_APA|52=20180619-10:58:09.019|56=TRAX|10=173|8=FIX.4.4|9=59|35=0|34=21|49=QA3Ver4_APA|52=20180619-10:58:40.016|56=TRAX|10=166|8=FIX.4.4|9=59|35=0|34=22|49=QA3Ver4_APA|52=20180619-10:59:10.017|56=TRAX|10=166|8=FIX.4.4|9=59|35=0|34=23|49=QA3Ver4_APA|52=20180619-10:59:40.024|56=TRAX|10=168|8=FIX.4.4|9=59|35=0|34=24|49=QA3Ver4_APA|52=20180619-11:00:11.014|56=TRAX|10=153|8=FIX.4.4|9=59|35=0|34=25|49=QA3Ver4_APA|52=20180619-11:00:41.022|56=TRAX|10=156|8=FIX.4.4|9=59|35=0|34=26|49=QA3Ver4_APA|52=20180619-11:01:11.022|56=TRAX|10=155|8=FIX.4.4|9=59|35=0|34=27|49=QA3Ver4_APA|52=20180619-11:01:41.026|56=TRAX|10=163|8=FIX.4.4|9=59|35=0|34=28|49=QA3Ver4_APA|52=20180619-11:02:12.016|56=TRAX|10=162|8=FIX.4.4|9=59|35=0|34=29|49=QA3Ver4_APA|52=20180619-11:02:42.018|56=TRAX|10=168|8=FIX.4.4|9=59|35=0|34=30|49=QA3Ver4_APA|52=20180619-11:03:12.019|56=TRAX|10=159|8=FIX.4.4|9=59|35=0|34=31|49=QA3Ver4_APA|52=20180619-11:03:42.025|56=TRAX|10=160|8=FIX.4.4|9=59|35=0|34=32|49=QA3Ver4_APA|52=20180619-11:04:13.024|56=TRAX|10=159|8=FIX.4.4|9=59|35=0|34=33|49=QA3Ver4_APA|52=20180619-11:04:44.015|56=TRAX|10=164|8=FIX.4.4|9=59|35=0|34=34|49=QA3Ver4_APA|52=20180619-11:05:14.021|56=TRAX|10=160|8=FIX.4.4|9=59|35=0|34=35|49=QA3Ver4_APA|52=20180619-11:05:45.019|56=TRAX|10=172|8=FIX.4.4|9=59|35=0|34=36|49=QA3Ver4_APA|52=20180619-11:06:16.013|56=TRAX|10=166|8=FIX.4.4|9=59|35=0|34=37|49=QA3Ver4_APA|52=20180619-11:06:46.023|56=TRAX|10=171|8=FIX.4.4|9=59|35=0|34=38|49=QA3Ver4_APA|52=20180619-11:07:16.026|56=TRAX|10=173|8=FIX.4.4|9=59|35=0|34=39|49=QA3Ver4_APA|52=20180619-11:07:47.020|56=TRAX|10=172|8=FIX.4.4|9=59|35=0|34=40|49=QA3Ver4_APA|52=20180619-11:08:18.023|56=TRAX|10=166|8=FIX.4.4|9=59|35=0|34=41|49=QA3Ver4_APA|52=20180619-11:08:48.032|56=TRAX|10=170|8=FIX.4.4|9=59|35=0|34=42|49=QA3Ver4_APA|52=20180619-11:09:19.018|56=TRAX|10=174|8=FIX.4.4|9=59|35=0|34=43|49=QA3Ver4_APA|52=20180619-11:09:49.018|56=TRAX|10=178|8=FIX.4.4|9=59|35=0|34=44|49=QA3Ver4_APA|52=20180619-11:10:19.022|56=TRAX|10=163|8=FIX.4.4|9=59|35=0|34=45|49=QA3Ver4_APA|52=20180619-11:10:49.029|56=TRAX|10=174|8=FIX.4.4|9=59|35=0|34=46|49=QA3Ver4_APA|52=20180619-11:11:19.031|56=TRAX|10=166|8=FIX.4.4|9=59|35=0|34=47|49=QA3Ver4_APA|52=20180619-11:11:49.033|56=TRAX|10=172|8=FIX.4.4|9=59|35=0|34=48|49=QA3Ver4_APA|52=20180619-11:12:20.029|56=TRAX|10=168|8=FIX.4.4|9=59|35=0|34=49|49=QA3Ver4_APA|52=20180619-11:12:51.030|56=TRAX|10=165|8=FIX.4.4|9=59|35=0|34=50|49=QA3Ver4_APA|52=20180619-11:13:21.032|56=TRAX|10=157|8=FIX.4.4|9=59|35=0|34=51|49=QA3Ver4_APA|52=20180619-11:13:52.021|56=TRAX|10=160|8=FIX.4.4|9=59|35=0|34=52|49=QA3Ver4_APA|52=20180619-11:14:22.028|56=TRAX|10=166|8=FIX.4.4|9=59|35=0|34=53|49=QA3Ver4_APA|52=20180619-11:14:53.021|56=TRAX|10=164|8=FIX.4.4|9=59|35=0|34=54|49=QA3Ver4_APA|52=20180619-11:15:23.025|56=TRAX|10=167|8=FIX.4.4|9=59|35=0|34=55|49=QA3Ver4_APA|52=20180619-11:15:54.024|56=TRAX|10=171|8=FIX.4.4|9=59|35=0|34=56|49=QA3Ver4_APA|52=20180619-11:16:25.022|56=TRAX|10=169|8=FIX.4.4|9=59|35=0|34=57|49=QA3Ver4_APA|52=20180619-11:16:55.025|56=TRAX|10=176|8=FIX.4.4|9=59|35=0|34=58|49=QA3Ver4_APA|52=20180619-11:17:25.034|56=TRAX|10=175|8=FIX.4.4|9=59|35=0|34=59|49=QA3Ver4_APA|52=20180619-11:17:56.035|56=TRAX|10=181|8=FIX.4.4|9=59|35=0|34=60|49=QA3Ver4_APA|52=20180619-11:18:27.037|56=TRAX|10=174|8=FIX.4.4|9=59|35=0|34=61|49=QA3Ver4_APA|52=20180619-11:18:58.024|56=TRAX|10=175|8=FIX.4.4|9=59|35=0|34=62|49=QA3Ver4_APA|52=20180619-11:19:28.036|56=TRAX|10=177|8=FIX.4.4|9=59|35=0|34=63|49=QA3Ver4_APA|52=20180619-11:19:58.036|56=TRAX|10=181|8=FIX.4.4|9=59|35=0|34=64|49=QA3Ver4_APA|52=20180619-11:20:28.672|56=TRAX|10=177|8=FIX.4.4|9=59|35=0|34=65|49=QA3Ver4_APA|52=20180619-11:20:59.030|56=TRAX|10=170|8=FIX.4.4|9=59|35=0|34=66|49=QA3Ver4_APA|52=20180619-11:21:29.035|56=TRAX|10=174|8=FIX.4.4|9=59|35=0|34=67|49=QA3Ver4_APA|52=20180619-11:22:00.034|56=TRAX|10=164|8=FIX.4.4|9=59|35=0|34=68|49=QA3Ver4_APA|52=20180619-11:22:31.025|56=TRAX|10=169|8=FIX.4.4|9=59|35=0|34=69|49=QA3Ver4_APA|52=20180619-11:23:01.029|56=TRAX|10=172|8=FIX.4.4|9=59|35=0|34=70|49=QA3Ver4_APA|52=20180619-11:23:31.034|56=TRAX|10=163|8=FIX.4.4|9=59|35=0|34=71|49=QA3Ver4_APA|52=20180619-11:24:01.036|56=TRAX|10=164|8=FIX.4.4|9=59|35=0|34=72|49=QA3Ver4_APA|52=20180619-11:24:32.029|56=TRAX|10=171|8=FIX.4.4|9=59|35=0|34=73|49=QA3Ver4_APA|52=20180619-11:25:03.028|56=TRAX|10=170|8=FIX.4.4|9=59|35=0|34=74|49=QA3Ver4_APA|52=20180619-11:25:33.039|56=TRAX|10=176|8=FIX.4.4|9=59|35=0|34=75|49=QA3Ver4_APA|52=20180619-11:26:04.035|56=TRAX|10=172|8=FIX.4.4|9=59|35=0|34=76|49=QA3Ver4_APA|52=20180619-11:26:35.027|56=TRAX|10=178|8=FIX.4.4|9=59|35=0|34=77|49=QA3Ver4_APA|52=20180619-11:27:05.034|56=TRAX|10=175|8=FIX.4.4|9=59|35=0|34=78|49=QA3Ver4_APA|52=20180619-11:27:36.027|56=TRAX|10=182|8=FIX.4.4|9=59|35=0|34=79|49=QA3Ver4_APA|52=20180619-11:28:06.036|56=TRAX|10=181|8=FIX.4.4|9=59|35=0|34=80|49=QA3Ver4_APA|52=20180619-11:28:37.040|56=TRAX|10=172|8=FIX.4.4|9=59|35=0|34=81|49=QA3Ver4_APA|52=20180619-11:29:08.025|56=TRAX|10=175|8=FIX.4.4|9=59|35=0|34=82|49=QA3Ver4_APA|52=20180619-11:29:38.038|56=TRAX|10=183|8=FIX.4.4|9=59|35=0|34=83|49=QA3Ver4_APA|52=20180619-11:30:09.036|56=TRAX|10=172|8=FIX.4.4|9=59|35=0|34=84|49=QA3Ver4_APA|52=20180619-11:30:40.026|56=TRAX|10=167|8=FIX.4.4|9=59|35=0|34=85|49=QA3Ver4_APA|52=20180619-11:31:10.034|56=TRAX|10=165|8=FIX.4.4|9=59|35=0|34=86|49=QA3Ver4_APA|52=20180619-11:31:41.025|56=TRAX|10=170|8=FIX.4.4|9=59|35=0|34=87|49=QA3Ver4_APA|52=20180619-11:32:11.037|56=TRAX|10=172|8=FIX.4.4|9=59|35=0|34=88|49=QA3Ver4_APA|52=20180619-11:32:41.037|56=TRAX|10=176|8=FIX.4.4|9=59|35=0|34=89|49=QA3Ver4_APA|52=20180619-11:33:12.040|56=TRAX|10=170|8=FIX.4.4|9=59|35=0|34=90|49=QA3Ver4_APA|52=20180619-11:33:43.026|56=TRAX|10=170|8=FIX.4.4|9=59|35=0|34=91|49=QA3Ver4_APA|52=20180619-11:34:13.038|56=TRAX|10=172|8=FIX.4.4|9=59|35=0|34=92|49=QA3Ver4_APA|52=20180619-11:34:44.037|56=TRAX|10=176|8=FIX.4.4|9=59|35=0|34=93|49=QA3Ver4_APA|52=20180619-11:35:15.025|56=TRAX|10=173|8=FIX.4.4|9=59|35=0|34=94|49=QA3Ver4_APA|52=20180619-11:35:45.025|56=TRAX|10=177|8=FIX.4.4|9=59|35=0|34=95|49=QA3Ver4_APA|52=20180619-11:36:15.029|56=TRAX|10=180|8=FIX.4.4|9=59|35=0|34=96|49=QA3Ver4_APA|52=20180619-11:36:46.030|56=TRAX|10=177|8=FIX.4.4|9=59|35=0|34=97|49=QA3Ver4_APA|52=20180619-11:37:16.036|56=TRAX|10=182|8=FIX.4.4|9=59|35=0|34=98|49=QA3Ver4_APA|52=20180619-11:37:47.031|56=TRAX|10=182|8=FIX.4.4|9=59|35=0|34=99|49=QA3Ver4_APA|52=20180619-11:38:18.036|56=TRAX|10=187|8=FIX.4.4|9=60|35=0|34=100|49=QA3Ver4_APA|52=20180619-11:38:49.036|56=TRAX|10=214|8=FIX.4.4|9=60|35=0|34=101|49=QA3Ver4_APA|52=20180619-11:39:20.027|56=TRAX|10=205|8=FIX.4.4|9=60|35=0|34=102|49=QA3Ver4_APA|52=20180619-11:39:50.032|56=TRAX|10=205|8=FIX.4.4|9=60|35=0|34=103|49=QA3Ver4_APA|52=20180619-11:40:21.028|56=TRAX|10=201|8=FIX.4.4|9=60|35=0|34=104|49=QA3Ver4_APA|52=20180619-11:40:51.030|56=TRAX|10=198|8=FIX.4.4|9=60|35=0|34=105|49=QA3Ver4_APA|52=20180619-11:41:21.037|56=TRAX|10=204|8=FIX.4.4|9=60|35=0|34=106|49=QA3Ver4_APA|52=20180619-11:41:52.021|56=TRAX|10=202|8=FIX.4.4|9=82|35=5|34=107|49=QA3Ver4_APA|52=20180619-11:42:10.031|56=TRAX|58=Session Tab Closed|10=016|8=FIX.4.4|9=93|35=A|34=1|49=QA3Ver4_APA|52=20180703-12:57:37.222|56=TRAX|98=0|108=30|95=8|96=2.0.0rc4|141=Y|10=081|8=FIX.4.4|9=281|35=i|34=2|49=QA3Ver4_APA|50=APA|52=20180703-12:57:48.362|56=TRAX|57=APA|117=PPB1292_01_0501|296=1|302=1|304=1|295=1|299=PPB1292_01|48=XS0253963754|22=4|22680=10.45|22682=26|22683=6|134=60|135=23|62=20180305-08:59:59.000|60=20180305-06:59:59.000|15=EUR|22500=4|22503=100|22504=AATS|10=162|8=FIX.4.4|9=58|35=0|34=3|49=QA3Ver4_APA|52=20180703-12:58:18.920|56=TRAX|10=122|8=FIX.4.4|9=281|35=i|34=4|49=QA3Ver4_APA|50=APA|52=20180703-12:58:31.902|56=TRAX|57=APA|117=PPB1292_01_0501|296=1|302=1|304=1|295=1|299=PPB1292_01|48=XS0253963754|22=4|22680=10.45|22682=26|22683=6|134=60|135=23|62=20180305-08:59:59.000|60=20180305-06:59:59.000|15=EUR|22500=4|22503=100|22504=AATS|10=157|8=FIX.4.4|9=281|35=i|34=5|49=QA3Ver4_APA|50=APA|52=20180703-12:58:52.044|56=TRAX|57=APA|117=PPB1292_01_0501|296=1|302=1|304=1|295=1|299=PPB1292_01|48=XS0253963754|22=4|22680=10.45|22682=26|22683=6|134=60|135=23|62=20180305-08:59:59.000|60=20180305-06:59:59.000|15=USD|22500=4|22503=100|22504=AATS|10=158|8=FIX.4.4|9=67|35=0|34=6|49=QA3Ver4_APA|52=20180703-12:59:04.945|56=TRAX|112=TEST|10=146|8=FIX.4.4|9=58|35=0|34=7|49=QA3Ver4_APA|52=20180703-12:59:35.214|56=TRAX|10=122|8=FIX.4.4|9=272|35=i|34=8|49=QA3Ver4_APA|50=APA|52=20180703-12:59:41.933|56=TRAX|57=APA|117=PPB129|296=1|302=1|304=1|295=1|299=PPB1292_01|48=XS0253963754|22=4|22680=10.45|22682=26|22683=6|134=60|135=23|62=20180305-08:59:59.000|60=20180305-06:59:59.000|15=USD|22500=4|22503=100|22504=AATS|10=144|8=FIX.4.4|9=265|35=i|34=9|49=QA3Ver4_APA|50=APA|52=20180703-12:59:56.045|56=TRAX|57=APA|117=PPB129|296=1|302=1|304=1|295=1|299=PPB1292_01|48=XS0253963754|22=4|22680=10.45|22682=26|22683=6|134=60|135=23|62=20180305-08:59:59.000|60=20180305-06:59:59.000|22500=4|22503=100|22504=AATS|10=003|8=FIX.4.4|9=81|35=5|34=10|49=QA3Ver4_APA|52=20180703-13:00:07.217|56=TRAX|58=Session Tab Closed|10=218|8=FIX.4.4|9=93|35=A|34=1|49=QA3Ver4_APA|52=20180710-10:00:41.363|56=TRAX|98=0|108=30|95=8|96=2.0.0rc4|141=Y|10=066|8=FIX.4.4|9=58|35=0|34=2|49=QA3Ver4_APA|52=20180710-10:01:11.364|56=TRAX|10=100|8=FIX.4.4|9=58|35=0|34=3|49=QA3Ver4_APA|52=20180710-10:01:41.372|56=TRAX|10=103|8=FIX.4.4|9=58|35=0|34=4|49=QA3Ver4_APA|52=20180710-10:02:12.208|56=TRAX|10=101|8=FIX.4.4|9=58|35=0|34=5|49=QA3Ver4_APA|52=20180710-10:02:42.208|56=TRAX|10=105|8=FIX.4.4|9=58|35=0|34=6|49=QA3Ver4_APA|52=20180710-10:03:12.368|56=TRAX|10=111|8=FIX.4.4|9=58|35=0|34=7|49=QA3Ver4_APA|52=20180710-10:03:42.373|56=TRAX|10=111|8=FIX.4.4|9=58|35=0|34=8|49=QA3Ver4_APA|52=20180710-10:04:13.362|56=TRAX|10=109|8=FIX.4.4|9=58|35=0|34=9|49=QA3Ver4_APA|52=20180710-10:04:44.362|56=TRAX|10=114|8=FIX.4.4|9=59|35=0|34=10|49=QA3Ver4_APA|52=20180710-10:05:14.364|56=TRAX|10=155|8=FIX.4.4|9=458|35=AE|34=11|49=QA3Ver4_APA|50=APA|57=APA|52=20180710-10:05:16.597|56=TRAX|571=TradeReport|487=0|325=Y|423=1|55=[N/A]|22=104|32=2222|31=203.17|60=20170705-06:20:13.370|552=1|54=1|29=3|1041=APA-CONCAT-20NOV22-1068|1934=0|15=GBP|1924=1|22600=2500000|22601=GBP|22606=DERV|22607=INTR|22608=OPTN|22610=20201208|22623=ABCDGRE|22643=1DAYS|22661=IR options|854=1|231=10|30=SINT|1116=2|1117=05B6OC1W7N8NJQRIYS63|1118=N|1119=116|1117=05B6OC1W7N8NJQRIYS63|1118=N|1119=1|10=151|8=FIX.4.4|9=59|35=0|34=12|49=QA3Ver4_APA|52=20180710-10:05:47.200|56=TRAX|10=152|8=FIX.4.4|9=453|35=AE|34=13|49=QA3Ver4_APA|50=APA|57=APA|52=20180710-10:06:16.687|56=TRAX|571=TradeReport|487=0|325=Y|423=1|55=[N/A]|22=104|32=2222|31=203.17|60=20170705-06:20:13.370|552=1|54=1|29=3|1041=APA-CONERDV22-1068|1934=0|15=GBP|1924=1|22600=2500000|22601=GBP|22606=DERV|22607=INTR|22608=OPTN|22610=20201208|22623=ABCDGRE|22643=1DAYS|22661=IR options|854=1|231=10|30=SINT|1116=2|1117=2138001MSYC6DJSD6442|1118=N|1119=116|1117=2138001MSYC6DJSD6442|1118=N|1119=1|10=094|8=FIX.4.4|9=59|35=0|34=14|49=QA3Ver4_APA|52=20180710-10:06:47.367|56=TRAX|10=169|8=FIX.4.4|9=59|35=0|34=15|49=QA3Ver4_APA|52=20180710-10:07:18.199|56=TRAX|10=172|8=FIX.4.4|9=59|35=0|34=16|49=QA3Ver4_APA|52=20180710-10:07:48.358|56=TRAX|10=173|8=FIX.4.4|9=59|35=0|34=17|49=QA3Ver4_APA|52=20180710-10:08:19.357|56=TRAX|10=172|8=FIX.4.4|9=59|35=0|34=18|49=QA3Ver4_APA|52=20180710-10:08:49.365|56=TRAX|10=175|8=FIX.4.4|9=59|35=0|34=19|49=QA3Ver4_APA|52=20180710-10:09:19.365|56=TRAX|10=174|8=FIX.4.4|9=59|35=0|34=20|49=QA3Ver4_APA|52=20180710-10:09:50.365|56=TRAX|10=161|8=FIX.4.4|9=473|35=AE|34=21|49=QA3Ver4_APA|50=APA|57=APA|52=20180710-10:10:14.925|56=TRAX|571=TradeReport|487=0|325=Y|423=1|1390=1|55=[N/A]|22=104|32=2222|31=203.17|60=20170705-06:20:13.370|552=1|54=1|29=3|1041=APA-CONCAT-20NOV22-1071|1934=0|15=GBP|1924=1|22600=2500000|22601=GBP|22606=DERV|22607=INTR|22608=FUTR|22610=20201208|22623=ABCDGRE|22643=1DAYS|22661=IR futures and FRA|854=1|231=10|30=SINT|1116=2|1117=2138001MSYC6DJSD6442|1118=N|1119=116|1117=2138001MSYC6DJSD6442|1118=N|1119=1|10=000|8=FIX.4.4|9=59|35=0|34=22|49=QA3Ver4_APA|52=20180710-10:10:45.203|56=TRAX|10=150|8=FIX.4.4|9=59|35=0|34=23|49=QA3Ver4_APA|52=20180710-10:11:15.207|56=TRAX|10=153|8=FIX.4.4|9=500|35=AE|34=24|49=QA3Ver4_APA|50=APA|57=APA|52=20180710-10:11:43.176|56=TRAX|571=TradeReport|487=0|325=Y|1390=2|423=1|55=[N/A]|22=104|32=2222|31=203.17|60=20170705-06:20:13.370|552=1|54=1|29=3|1041=APA-CONCAT-20NOV22-1073|1934=0|15=GBP|1924=1|22600=2500000|22601=GBP|22606=DERV|22607=INTR|22608=FRAS|22610=20201208|22623=ABCDGRE|22643=1DAYS|22661=IR futures and FRA|854=1|22800=3|231=10|30=SINT|1116=2|1117=2138001MSYC6DJSD6442|1118=N|1119=116|1117=2138001MSYC6DJSD6442|1118=N|1119=1|22801=1|22802=ILQD|10=040|8=FIX.4.4|9=59|35=0|34=25|49=QA3Ver4_APA|52=20180710-10:12:13.358|56=TRAX|10=161|8=FIX.4.4|9=523|35=AE|34=26|49=QA3Ver4_APA|50=APA|57=APA|52=20180710-10:12:20.242|56=TRAX|571=TradeReport|487=0|325=Y|423=1|55=[N/A]|22=104|32=2222|31=203.17|60=20170705-06:20:13.370|552=1|54=1|29=3|1041=APA-CONCAT-20NOV22-1074|1934=0|15=GBP|1924=1|22600=2500000|22601=GBP|22606=DERV|22607=INTR|22608=SWAP|22610=20201208|22614=USD|22661=Inflation 'single currency swaps' and futures/forwards on Inflation 'single currency swaps'|854=1|231=10|30=SINT|1116=2|1117=2138001MSYC6DJSD6442|1118=N|1119=116|1117=2138001MSYC6DJSD6442|1118=N|1119=1|10=022|8=FIX.4.4|9=559|35=AE|34=27|49=QA3Ver4_APA|50=APA|57=APA|52=20180710-10:12:47.811|56=TRAX|571=TradeReport|487=0|325=Y|423=1|55=[N/A]|22=104|32=2222|31=203.17|60=20170705-06:20:13.370|552=1|54=1|29=3|1041=APA-CONCAT-20DEC221-1075|1934=0|15=GBP|1924=1|22600=2500000|22601=GBP|22606=DERV|22607=INTR|22608=SWAP|22614=USD|22661=Inflation 'multi currency swaps' or 'cross-currency swaps' and futures/forwards on Inflation 'multi currency swaps' or 'cross-currency swaps'|854=1|231=10|30=SINT|1116=2|1117=2138001MSYC6DJSD6442|1118=N|1119=116|1117=2138001MSYC6DJSD6442|1118=N|1119=1|10=190|8=FIX.4.4|9=59|35=0|34=28|49=QA3Ver4_APA|52=20180710-10:13:18.197|56=TRAX|10=171|8=FIX.4.4|9=533|35=AE|34=29|49=QA3Ver4_APA|50=APA|57=APA|52=20180710-10:13:23.797|56=TRAX|571=TradeReport|487=0|325=Y|423=1|55=[N/A]|22=104|32=2222|31=203.17|60=20170705-06:20:13.370|552=1|54=1|29=3|1041=APA-CONCAT-20NOV22-1077|1934=0|15=GBP|1924=1|22600=2500000|22601=GBP|22606=DERV|22607=INTR|22608=SWAP|22610=20201212|22614=USD|22661=Float-to-Float 'single currency swaps' and futures/forwards on Float-to-Float 'single currency swaps'|854=1|231=10|30=SINT|1116=2|1117=2138001MSYC6DJSD6442|1118=N|1119=116|1117=2138001MSYC6DJSD6442|1118=N|1119=1|10=053|8=FIX.4.4|9=569|35=AE|34=30|49=QA3Ver4_APA|50=APA|57=APA|52=20180710-10:13:47.100|56=TRAX|571=TradeReport|487=0|325=Y|423=1|55=[N/A]|22=104|32=2222|31=203.17|60=20170705-06:20:13.370|552=1|54=1|29=3|1041=APA-CONCAT-20DEC122-1078|1934=0|15=GBP|1924=1|22600=2500000|22601=GBP|22606=DERV|22607=INTR|22608=SWAP|22614=USD|22661=Float-to-Float 'multi currency swaps' or 'cross-currency swaps' and futures/forwards on Float-to-Float 'multi currency swaps' or 'cross-currency swaps'|854=1|231=10|30=SINT|1116=2|1117=2138001MSYC6DJSD6442|1118=N|1119=116|1117=2138001MSYC6DJSD6442|1118=N|1119=1|10=190|8=FIX.4.4|9=59|35=0|34=31|49=QA3Ver4_APA|52=20180710-10:14:17.366|56=TRAX|10=163|8=FIX.4.4|9=533|35=AE|34=32|49=QA3Ver4_APA|50=APA|57=APA|52=20180710-10:14:20.672|56=TRAX|571=TradeReport|487=0|325=Y|423=1|55=[N/A]|22=104|32=2222|31=203.17|60=20170705-06:20:13.370|552=1|54=1|29=3|1041=APA-CONCAT-20NOV22-1080|1934=0|15=GBP|1924=1|22600=2500000|22601=GBP|22606=DERV|22607=INTR|22608=SWAP|22610=20201212|22614=USD|22661=Fixed-to-Float 'single currency swaps' and futures/forwards on Fixed-to-Float 'single currency swaps'|854=1|231=10|30=SINT|1116=2|1117=2138001MSYC6DJSD6442|1118=N|1119=116|1117=2138001MSYC6DJSD6442|1118=N|1119=1|10=019|8=FIX.4.4|9=568|35=AE|34=33|49=QA3Ver4_APA|50=APA|57=APA|52=20180710-10:14:45.600|56=TRAX|571=TradeReport|487=0|325=Y|423=1|55=[N/A]|22=104|32=2222|31=203.17|60=20170705-06:20:13.370|552=1|54=1|29=3|1041=APA-CONCAT-20DEC18-1082|1934=0|15=GBP|1924=1|22600=2500000|22601=GBP|22606=DERV|22607=INTR|22608=SWAP|22614=USD|22661=Fixed-to-Float 'multi currency swaps' or 'cross-currency swaps' and futures/forwards on Fixed-to-Float 'multi currency swaps' or 'cross-currency swaps'|854=1|231=10|30=SINT|1116=2|1117=2138001MSYC6DJSD6442|1118=N|1119=116|1117=2138001MSYC6DJSD6442|1118=N|1119=1|10=135|8=FIX.4.4|9=533|35=AE|34=34|49=QA3Ver4_APA|50=APA|57=APA|52=20180710-10:15:14.480|56=TRAX|571=TradeReport|487=0|325=Y|423=1|55=[N/A]|22=104|32=2222|31=203.17|60=20170705-06:20:13.370|552=1|54=1|29=3|1041=APA-CONCAT-20NOV22-1082|1934=0|15=GBP|1924=1|22600=2500000|22601=GBP|22606=DERV|22607=INTR|22608=SWAP|22610=20201010|22614=USD|22661=Fixed-to-Fixed 'single currency swaps' and futures/forwards on Fixed-to-Fixed 'single currency swaps'|854=1|231=10|30=SINT|1116=2|1117=2138001MSYC6DJSD6442|1118=N|1119=116|1117=2138001MSYC6DJSD6442|1118=N|1119=1|10=008|8=FIX.4.4|9=569|35=AE|34=35|49=QA3Ver4_APA|50=APA|57=APA|52=20180710-10:15:38.774|56=TRAX|571=TradeReport|487=0|325=Y|423=1|55=[N/A]|22=104|32=2222|31=203.17|60=20170705-06:20:13.370|552=1|54=1|29=3|1041=APA-CONCAT-20DEC22-1083|1934=0|15=GBP|1924=1|22600=2500000|22601=GBP|22606=DERV|22607=INTR|22608=SWAP|22614=USD|22661=Fixed-to-Fixed 'multi currency swaps' or 'cross-currency swaps' and futures/forwards on Fixed-to-Fixed 'multi currency swaps' or 'cross-currency swaps' |854=1|231=10|30=SINT|1116=2|1117=2138001MSYC6DJSD6442|1118=N|1119=116|1117=2138001MSYC6DJSD6442|1118=N|1119=1|10=169|8=FIX.4.4|9=460|35=AE|34=36|49=QA3Ver4_APA|50=APA|57=APA|52=20180710-10:16:07.029|56=TRAX|571=TradeReport|487=0|1390=1|325=Y|423=1|55=[N/A]|22=104|32=2222|31=203.17|60=20170705-06:20:13.370|552=1|54=1|29=3|1041=APA-CONCAT-20NOV22-1085|1934=0|15=GBP|1924=1|22600=2500000|22601=GBP|22606=DERV|22607=INTR|22608=OPTN|22610=20201212|22641=00XS53621057|22661=Bond Options|854=1|231=10|30=SINT|1116=2|1117=2138001MSYC6DJSD6442|1118=N|1119=116|1117=2138001MSYC6DJSD6442|1118=N|1119=1|10=158|8=FIX.4.4|9=59|35=0|34=37|49=QA3Ver4_APA|52=20180710-10:16:37.198|56=TRAX|10=176|8=FIX.4.4|9=59|35=0|34=38|49=QA3Ver4_APA|52=20180710-10:17:07.360|56=TRAX|10=166|8=FIX.4.4|9=59|35=0|34=39|49=QA3Ver4_APA|52=20180710-10:17:38.355|56=TRAX|10=175|8=FIX.4.4|9=59|35=0|34=40|49=QA3Ver4_APA|52=20180710-10:18:08.359|56=TRAX|10=169|8=FIX.4.4|9=460|35=AE|34=41|49=QA3Ver4_APA|50=APA|57=APA|52=20180710-10:18:25.133|56=TRAX|571=TradeReport|487=0|1390=1|325=Y|423=1|55=[N/A]|22=104|32=2222|31=203.17|60=20170705-06:20:13.370|552=1|54=1|29=3|1041=APA-CONCAT-20NOV22-1085|1934=0|15=GBP|1924=1|22600=2500000|22601=GBP|22606=DERV|22607=INTR|22608=OPTN|22610=20201212|22641=GB0000595859|22661=Bond Options|854=1|231=10|30=SINT|1116=2|1117=2138001MSYC6DJSD6442|1118=N|1119=116|1117=2138001MSYC6DJSD6442|1118=N|1119=1|10=130|8=FIX.4.4|9=59|35=0|34=42|49=QA3Ver4_APA|52=20180710-10:18:55.358|56=TRAX|10=172|8=FIX.4.4|9=59|35=0|34=43|49=QA3Ver4_APA|52=20180710-10:19:26.201|56=TRAX|10=159|8=FIX.4.4|9=59|35=0|34=44|49=QA3Ver4_APA|52=20180710-10:19:56.348|56=TRAX|10=175|8=FIX.4.4|9=59|35=0|34=45|49=QA3Ver4_APA|52=20180710-10:20:26.361|56=TRAX|10=160|8=FIX.4.4|9=59|35=0|34=46|49=QA3Ver4_APA|52=20180710-10:20:57.353|56=TRAX|10=166|8=FIX.4.4|9=59|35=0|34=47|49=QA3Ver4_APA|52=20180710-10:21:27.366|56=TRAX|10=169|8=FIX.4.4|9=59|35=0|34=48|49=QA3Ver4_APA|52=20180710-10:21:58.373|56=TRAX|10=172|8=FIX.4.4|9=59|35=0|34=49|49=QA3Ver4_APA|52=20180710-10:22:29.352|56=TRAX|10=169|8=FIX.4.4|9=59|35=0|34=50|49=QA3Ver4_APA|52=20180710-10:23:00.349|56=TRAX|10=157|8=FIX.4.4|9=59|35=0|34=51|49=QA3Ver4_APA|52=20180710-10:23:30.349|56=TRAX|10=161|8=FIX.4.4|9=59|35=0|34=52|49=QA3Ver4_APA|52=20180710-10:24:00.359|56=TRAX|10=161|8=FIX.4.4|9=59|35=0|34=53|49=QA3Ver4_APA|52=20180710-10:24:31.346|56=TRAX|10=162|8=FIX.4.4|9=59|35=0|34=54|49=QA3Ver4_APA|52=20180710-10:25:01.348|56=TRAX|10=163|8=FIX.4.4|9=457|35=AE|34=55|49=QA3Ver4_APA|50=APA|57=APA|52=20180710-10:25:06.452|56=TRAX|571=TradeReport|487=0|1390=1|325=Y|423=1|55=[N/A]|22=104|32=2222|31=203.17|60=20170705-06:20:13.370|552=1|54=1|29=3|1041=APA-CONC23NOV22-1085|1934=0|15=GBP|1924=1|22600=2500000|22601=GBP|22606=DERV|22607=INTR|22608=OPTN|22610=20201212|22641=GB0000595859|22661=Bond Options|854=1|231=10|30=SINT|1116=2|1117=2138001MSYC6DJSD6442|1118=N|1119=116|1117=2138001MSYC6DJSD6442|1118=N|1119=1|10=207|8=FIX.4.4|9=59|35=0|34=56|49=QA3Ver4_APA|52=20180710-10:25:37.199|56=TRAX|10=178|8=FIX.4.4|9=59|35=0|34=57|49=QA3Ver4_APA|52=20180710-10:26:07.342|56=TRAX|10=167|8=FIX.4.4|9=59|35=0|34=58|49=QA3Ver4_APA|52=20180710-10:26:37.342|56=TRAX|10=171|8=FIX.4.4|9=59|35=0|34=59|49=QA3Ver4_APA|52=20180710-10:27:07.347|56=TRAX|10=175|8=FIX.4.4|9=59|35=0|34=60|49=QA3Ver4_APA|52=20180710-10:27:37.354|56=TRAX|10=168|8=FIX.4.4|9=59|35=0|34=61|49=QA3Ver4_APA|52=20180710-10:28:08.341|56=TRAX|10=164|8=FIX.4.4|9=59|35=0|34=62|49=QA3Ver4_APA|52=20180710-10:28:38.341|56=TRAX|10=168|8=FIX.4.4|9=59|35=0|34=63|49=QA3Ver4_APA|52=20180710-10:29:09.342|56=TRAX|10=169|8=FIX.4.4|9=59|35=0|34=64|49=QA3Ver4_APA|52=20180710-10:29:40.340|56=TRAX|10=163|8=FIX.4.4|9=59|35=0|34=65|49=QA3Ver4_APA|52=20180710-10:30:10.350|56=TRAX|10=154|8=FIX.4.4|9=59|35=0|34=66|49=QA3Ver4_APA|52=20180710-10:30:41.344|56=TRAX|10=162|8=FIX.4.4|9=59|35=0|34=67|49=QA3Ver4_APA|52=20180710-10:31:11.347|56=TRAX|10=164|8=FIX.4.4|9=59|35=0|34=68|49=QA3Ver4_APA|52=20180710-10:31:41.349|56=TRAX|10=170|8=FIX.4.4|9=59|35=0|34=69|49=QA3Ver4_APA|52=20180710-10:32:12.343|56=TRAX|10=164|8=FIX.4.4|9=59|35=0|34=70|49=QA3Ver4_APA|52=20180710-10:32:42.347|56=TRAX|10=163|8=FIX.4.4|9=59|35=0|34=71|49=QA3Ver4_APA|52=20180710-10:33:12.347|56=TRAX|10=162|8=FIX.4.4|9=59|35=0|34=72|49=QA3Ver4_APA|52=20180710-10:33:43.342|56=TRAX|10=162|8=FIX.4.4|9=59|35=0|34=73|49=QA3Ver4_APA|52=20180710-10:34:13.348|56=TRAX|10=167|8=FIX.4.4|9=59|35=0|34=74|49=QA3Ver4_APA|52=20180710-10:34:44.338|56=TRAX|10=171|8=FIX.4.4|9=59|35=0|34=75|49=QA3Ver4_APA|52=20180710-10:35:14.350|56=TRAX|10=164|8=FIX.4.4|9=59|35=0|34=76|49=QA3Ver4_APA|52=20180710-10:35:45.345|56=TRAX|10=173|8=FIX.4.4|9=59|35=0|34=77|49=QA3Ver4_APA|52=20180710-10:36:16.345|56=TRAX|10=173|8=FIX.4.4|9=59|35=0|34=78|49=QA3Ver4_APA|52=20180710-10:36:46.345|56=TRAX|10=177|8=FIX.4.4|9=59|35=0|34=79|49=QA3Ver4_APA|52=20180710-10:37:17.335|56=TRAX|10=176|8=FIX.4.4|9=59|35=0|34=80|49=QA3Ver4_APA|52=20180710-10:37:47.345|56=TRAX|10=172|8=FIX.4.4|9=59|35=0|34=81|49=QA3Ver4_APA|52=20180710-10:38:17.347|56=TRAX|10=173|8=FIX.4.4|9=59|35=0|34=82|49=QA3Ver4_APA|52=20180710-10:38:47.347|56=TRAX|10=177|8=FIX.4.4|9=59|35=0|34=83|49=QA3Ver4_APA|52=20180710-10:39:17.347|56=TRAX|10=176|8=FIX.4.4|9=59|35=0|34=84|49=QA3Ver4_APA|52=20180710-10:39:48.338|56=TRAX|10=181|8=FIX.4.4|9=59|35=0|34=85|49=QA3Ver4_APA|52=20180710-10:40:18.345|56=TRAX|10=169|8=FIX.4.4|9=476|35=AE|34=86|49=QA3Ver4_APA|50=APA|57=APA|52=20180710-10:40:18.483|56=TRAX|571=TradeReport|487=0|325=Y|423=1|55=[N/A]|22=104|32=2222|31=203.17|60=20170705-06:20:13.370|552=1|54=1|29=3|1041=APA-CONCAT-A20NOV17-1020|1934=0|15=GBP|1924=1|22600=2500000|22601=GBP|22606=DERV|22607=COMM|22608=FORW|22610=20191212|22649=AGRI|22650=ELEC|22661=Agricultural commodity forwards|854=1|231=10|30=SINT|1116=2|1117=05B6OC1W7N8NJQRIYS63|1118=N|1119=116|1117=05B6OC1W7N8NJQRIYS63|1118=N|1119=1|10=099|8=FIX.4.4|9=59|35=0|34=87|49=QA3Ver4_APA|52=20180710-10:40:49.188|56=TRAX|10=180|8=FIX.4.4|9=59|35=0|34=88|49=QA3Ver4_APA|52=20180710-10:41:19.191|56=TRAX|10=173|8=FIX.4.4|9=59|35=0|34=89|49=QA3Ver4_APA|52=20180710-10:41:49.331|56=TRAX|10=173|8=FIX.4.4|9=59|35=0|34=90|49=QA3Ver4_APA|52=20180710-10:42:19.345|56=TRAX|10=168|8=FIX.4.4|9=59|35=0|34=91|49=QA3Ver4_APA|52=20180710-10:42:50.333|56=TRAX|10=161|8=FIX.4.4|9=59|35=0|34=92|49=QA3Ver4_APA|52=20180710-10:43:20.345|56=TRAX|10=163|8=FIX.4.4|9=59|35=0|34=93|49=QA3Ver4_APA|52=20180710-10:43:51.337|56=TRAX|10=169|8=FIX.4.4|9=59|35=0|34=94|49=QA3Ver4_APA|52=20180710-10:44:21.340|56=TRAX|10=162|8=FIX.4.4|9=59|35=0|34=95|49=QA3Ver4_APA|52=20180710-10:44:52.333|56=TRAX|10=169|8=FIX.4.4|9=59|35=0|34=96|49=QA3Ver4_APA|52=20180710-10:45:22.338|56=TRAX|10=173|8=FIX.4.4|9=59|35=0|34=97|49=QA3Ver4_APA|52=20180710-10:45:52.345|56=TRAX|10=175|8=FIX.4.4|9=59|35=0|34=98|49=QA3Ver4_APA|52=20180710-10:46:23.338|56=TRAX|10=177|8=FIX.4.4|9=59|35=0|34=99|49=QA3Ver4_APA|52=20180710-10:46:54.330|56=TRAX|10=174|8=FIX.4.4|9=60|35=0|34=100|49=QA3Ver4_APA|52=20180710-10:47:24.337|56=TRAX|10=202|8=FIX.4.4|9=60|35=0|34=101|49=QA3Ver4_APA|52=20180710-10:47:55.335|56=TRAX|10=205|8=FIX.4.4|9=60|35=0|34=102|49=QA3Ver4_APA|52=20180710-10:48:26.333|56=TRAX|10=203|8=FIX.4.4|9=60|35=0|34=103|49=QA3Ver4_APA|52=20180710-10:48:56.333|56=TRAX|10=207|8=FIX.4.4|9=60|35=0|34=104|49=QA3Ver4_APA|52=20180710-10:49:27.330|56=TRAX|10=204|8=FIX.4.4|9=60|35=0|34=105|49=QA3Ver4_APA|52=20180710-10:49:58.330|56=TRAX|10=209|8=FIX.4.4|9=60|35=0|34=106|49=QA3Ver4_APA|52=20180710-10:50:29.330|56=TRAX|10=200|8=FIX.4.4|9=60|35=0|34=107|49=QA3Ver4_APA|52=20180710-10:50:59.335|56=TRAX|10=209|8=FIX.4.4|9=60|35=0|34=108|49=QA3Ver4_APA|52=20180710-10:51:30.329|56=TRAX|10=203|8=FIX.4.4|9=60|35=0|34=109|49=QA3Ver4_APA|52=20180710-10:52:00.335|56=TRAX|10=199|8=FIX.4.4|9=60|35=0|34=110|49=QA3Ver4_APA|52=20180710-10:52:31.330|56=TRAX|10=190|8=FIX.4.4|9=60|35=0|34=111|49=QA3Ver4_APA|52=20180710-10:53:01.331|56=TRAX|10=190|8=FIX.4.4|9=60|35=0|34=112|49=QA3Ver4_APA|52=20180710-10:53:31.331|56=TRAX|10=194|8=FIX.4.4|9=60|35=0|34=113|49=QA3Ver4_APA|52=20180710-10:54:02.329|56=TRAX|10=201|8=FIX.4.4|9=60|35=0|34=114|49=QA3Ver4_APA|52=20180710-10:54:32.339|56=TRAX|10=206|8=FIX.4.4|9=60|35=0|34=115|49=QA3Ver4_APA|52=20180710-10:55:02.341|56=TRAX|10=198|8=FIX.4.4|9=60|35=0|34=116|49=QA3Ver4_APA|52=20180710-10:55:33.334|56=TRAX|10=205|8=FIX.4.4|9=60|35=0|34=117|49=QA3Ver4_APA|52=20180710-10:56:04.328|56=TRAX|10=208|8=FIX.4.4|9=60|35=0|34=118|49=QA3Ver4_APA|52=20180710-10:56:35.331|56=TRAX|10=207|8=FIX.4.4|9=60|35=0|34=119|49=QA3Ver4_APA|52=20180710-10:57:06.328|56=TRAX|10=213|8=FIX.4.4|9=60|35=0|34=120|49=QA3Ver4_APA|52=20180710-10:57:36.333|56=TRAX|10=204|8=FIX.4.4|9=60|35=0|34=121|49=QA3Ver4_APA|52=20180710-10:58:06.337|56=TRAX|10=207|8=FIX.4.4|9=60|35=0|34=122|49=QA3Ver4_APA|52=20180710-10:58:37.332|56=TRAX|10=207|8=FIX.4.4|9=60|35=0|34=123|49=QA3Ver4_APA|52=20180710-10:59:08.333|56=TRAX|10=208|8=FIX.4.4|9=60|35=0|34=124|49=QA3Ver4_APA|52=20180710-10:59:38.338|56=TRAX|10=217|8=FIX.4.4|9=60|35=0|34=125|49=QA3Ver4_APA|52=20180710-11:00:09.333|56=TRAX|10=198|8=FIX.4.4|9=60|35=0|34=126|49=QA3Ver4_APA|52=20180710-11:00:39.351|56=TRAX|10=202|8=FIX.4.4|9=60|35=0|34=127|49=QA3Ver4_APA|52=20180710-11:01:10.335|56=TRAX|10=195|8=FIX.4.4|9=60|35=0|34=128|49=QA3Ver4_APA|52=20180710-11:01:41.331|56=TRAX|10=196|8=FIX.4.4|9=60|35=0|34=129|49=QA3Ver4_APA|52=20180710-11:02:12.332|56=TRAX|10=197|8=FIX.4.4|9=60|35=0|34=130|49=QA3Ver4_APA|52=20180710-11:02:42.338|56=TRAX|10=198|8=FIX.4.4|9=60|35=0|34=131|49=QA3Ver4_APA|52=20180710-11:03:13.324|56=TRAX|10=193|8=FIX.4.4|9=60|35=0|34=132|49=QA3Ver4_APA|52=20180710-11:03:44.323|56=TRAX|10=197|8=FIX.4.4|9=60|35=0|34=133|49=QA3Ver4_APA|52=20180710-11:04:14.323|56=TRAX|10=196|8=FIX.4.4|9=60|35=0|34=134|49=QA3Ver4_APA|52=20180710-11:04:44.335|56=TRAX|10=203|8=FIX.4.4|9=60|35=0|34=135|49=QA3Ver4_APA|52=20180710-11:05:15.322|56=TRAX|10=199|8=FIX.4.4|9=60|35=0|34=136|49=QA3Ver4_APA|52=20180710-11:05:45.323|56=TRAX|10=204|8=FIX.4.4|9=60|35=0|34=137|49=QA3Ver4_APA|52=20180710-11:06:16.322|56=TRAX|10=203|8=FIX.4.4|9=60|35=0|34=138|49=QA3Ver4_APA|52=20180710-11:06:46.335|56=TRAX|10=211|8=FIX.4.4|9=60|35=0|34=139|49=QA3Ver4_APA|52=20180710-11:07:17.333|56=TRAX|10=209|8=FIX.4.4|9=60|35=0|34=140|49=QA3Ver4_APA|52=20180710-11:07:48.327|56=TRAX|10=208|8=FIX.4.4|9=60|35=0|34=141|49=QA3Ver4_APA|52=20180710-11:08:19.187|56=TRAX|10=212|8=FIX.4.4|9=60|35=0|34=142|49=QA3Ver4_APA|52=20180710-11:08:49.193|56=TRAX|10=213|8=FIX.4.4|9=60|35=0|34=143|49=QA3Ver4_APA|52=20180710-11:09:19.331|56=TRAX|10=206|8=FIX.4.4|9=60|35=0|34=144|49=QA3Ver4_APA|52=20180710-11:09:49.335|56=TRAX|10=214|8=FIX.4.4|9=60|35=0|34=145|49=QA3Ver4_APA|52=20180710-11:10:19.335|56=TRAX|10=204|8=FIX.4.4|9=60|35=0|34=146|49=QA3Ver4_APA|52=20180710-11:10:50.326|56=TRAX|10=200|8=FIX.4.4|9=60|35=0|34=147|49=QA3Ver4_APA|52=20180710-11:11:21.323|56=TRAX|10=197|8=FIX.4.4|9=60|35=0|34=148|49=QA3Ver4_APA|52=20180710-11:11:52.324|56=TRAX|10=203|8=FIX.4.4|9=60|35=0|34=149|49=QA3Ver4_APA|52=20180710-11:12:22.335|56=TRAX|10=204|8=FIX.4.4|9=60|35=0|34=150|49=QA3Ver4_APA|52=20180710-11:12:53.330|56=TRAX|10=195|8=FIX.4.4|9=60|35=0|34=151|49=QA3Ver4_APA|52=20180710-11:13:23.331|56=TRAX|10=195|8=FIX.4.4|9=60|35=0|34=152|49=QA3Ver4_APA|52=20180710-11:13:54.323|56=TRAX|10=201|8=FIX.4.4|9=60|35=0|34=153|49=QA3Ver4_APA|52=20180710-11:14:25.321|56=TRAX|10=199|8=FIX.4.4|9=60|35=0|34=154|49=QA3Ver4_APA|52=20180710-11:14:55.334|56=TRAX|10=207|8=FIX.4.4|9=60|35=0|34=155|49=QA3Ver4_APA|52=20180710-11:15:26.325|56=TRAX|10=207|8=FIX.4.4|9=60|35=0|34=156|49=QA3Ver4_APA|52=20180710-11:15:56.335|56=TRAX|10=212|8=FIX.4.4|9=60|35=0|34=157|49=QA3Ver4_APA|52=20180710-11:16:27.320|56=TRAX|10=206|8=FIX.4.4|9=60|35=0|34=158|49=QA3Ver4_APA|52=20180710-11:16:57.322|56=TRAX|10=212|8=FIX.4.4|9=60|35=0|34=159|49=QA3Ver4_APA|52=20180710-11:17:27.327|56=TRAX|10=216|8=FIX.4.4|9=60|35=0|34=160|49=QA3Ver4_APA|52=20180710-11:17:58.320|56=TRAX|10=205|8=FIX.4.4|9=60|35=0|34=161|49=QA3Ver4_APA|52=20180710-11:18:28.323|56=TRAX|10=207|8=FIX.4.4|9=60|35=0|34=162|49=QA3Ver4_APA|52=20180710-11:18:59.334|56=TRAX|10=214|8=FIX.4.4|9=60|35=0|34=163|49=QA3Ver4_APA|52=20180710-11:19:30.324|56=TRAX|10=204|8=FIX.4.4|9=60|35=0|34=164|49=QA3Ver4_APA|52=20180710-11:20:00.324|56=TRAX|10=194|8=FIX.4.4|9=60|35=0|34=165|49=QA3Ver4_APA|52=20180710-11:20:31.333|56=TRAX|10=199|8=FIX.4.4|9=60|35=0|34=166|49=QA3Ver4_APA|52=20180710-11:21:02.325|56=TRAX|10=200|8=FIX.4.4|9=60|35=0|34=167|49=QA3Ver4_APA|52=20180710-11:21:32.326|56=TRAX|10=205|8=FIX.4.4|9=60|35=0|34=168|49=QA3Ver4_APA|52=20180710-11:22:02.332|56=TRAX|10=201|8=FIX.4.4|9=60|35=0|34=169|49=QA3Ver4_APA|52=20180710-11:22:33.322|56=TRAX|10=205|8=FIX.4.4|9=60|35=0|34=170|49=QA3Ver4_APA|52=20180710-11:23:03.336|56=TRAX|10=200|8=FIX.4.4|9=60|35=0|34=171|49=QA3Ver4_APA|52=20180710-11:23:34.332|56=TRAX|10=201|8=FIX.4.4|9=60|35=0|34=172|49=QA3Ver4_APA|52=20180710-11:24:05.319|56=TRAX|10=206|8=FIX.4.4|9=60|35=0|34=173|49=QA3Ver4_APA|52=20180710-11:24:35.323|56=TRAX|10=205|8=FIX.4.4|9=60|35=0|34=174|49=QA3Ver4_APA|52=20180710-11:25:06.319|56=TRAX|10=210|8=FIX.4.4|9=60|35=0|34=175|49=QA3Ver4_APA|52=20180710-11:25:36.324|56=TRAX|10=210|8=FIX.4.4|9=60|35=0|34=176|49=QA3Ver4_APA|52=20180710-11:26:06.326|56=TRAX|10=211|8=FIX.4.4|9=60|35=0|34=177|49=QA3Ver4_APA|52=20180710-11:26:37.318|56=TRAX|10=217|8=FIX.4.4|9=60|35=0|34=178|49=QA3Ver4_APA|52=20180710-11:27:07.318|56=TRAX|10=216|8=FIX.4.4|9=60|35=0|34=179|49=QA3Ver4_APA|52=20180710-11:27:38.317|56=TRAX|10=220|8=FIX.4.4|9=60|35=0|34=180|49=QA3Ver4_APA|52=20180710-11:28:08.327|56=TRAX|10=211|8=FIX.4.4|9=60|35=0|34=181|49=QA3Ver4_APA|52=20180710-11:28:38.330|56=TRAX|10=209|8=FIX.4.4|9=60|35=0|34=182|49=QA3Ver4_APA|52=20180710-11:29:09.317|56=TRAX|10=214|8=FIX.4.4|9=60|35=0|34=183|49=QA3Ver4_APA|52=20180710-11:29:39.321|56=TRAX|10=213|8=FIX.4.4|9=60|35=0|34=184|49=QA3Ver4_APA|52=20180710-11:30:10.322|56=TRAX|10=196|8=FIX.4.4|9=60|35=0|34=185|49=QA3Ver4_APA|52=20180710-11:30:40.322|56=TRAX|10=200|8=FIX.4.4|9=60|35=0|34=186|49=QA3Ver4_APA|52=20180710-11:31:10.325|56=TRAX|10=202|8=FIX.4.4|9=60|35=0|34=187|49=QA3Ver4_APA|52=20180710-11:31:41.318|56=TRAX|10=209|8=FIX.4.4|9=60|35=0|34=188|49=QA3Ver4_APA|52=20180710-11:32:12.314|56=TRAX|10=205|8=FIX.4.4|9=60|35=0|34=189|49=QA3Ver4_APA|52=20180710-11:32:42.334|56=TRAX|10=211|8=FIX.4.4|9=60|35=0|34=190|49=QA3Ver4_APA|52=20180710-11:33:13.316|56=TRAX|10=202|8=FIX.4.4|9=60|35=0|34=191|49=QA3Ver4_APA|52=20180710-11:33:43.323|56=TRAX|10=204|8=FIX.4.4|9=60|35=0|34=192|49=QA3Ver4_APA|52=20180710-11:34:14.318|56=TRAX|10=208|8=FIX.4.4|9=60|35=0|34=193|49=QA3Ver4_APA|52=20180710-11:34:44.319|56=TRAX|10=213|8=FIX.4.4|9=60|35=0|34=194|49=QA3Ver4_APA|52=20180710-11:35:15.324|56=TRAX|10=209|8=FIX.4.4|9=60|35=0|34=195|49=QA3Ver4_APA|52=20180710-11:35:46.313|56=TRAX|10=212|8=FIX.4.4|9=60|35=0|34=196|49=QA3Ver4_APA|52=20180710-11:36:17.313|56=TRAX|10=212|8=FIX.4.4|9=60|35=0|34=197|49=QA3Ver4_APA|52=20180710-11:36:47.317|56=TRAX|10=220|8=FIX.4.4|9=60|35=0|34=198|49=QA3Ver4_APA|52=20180710-11:37:17.323|56=TRAX|10=216|8=FIX.4.4|9=60|35=0|34=199|49=QA3Ver4_APA|52=20180710-11:37:48.319|56=TRAX|10=226|8=FIX.4.4|9=60|35=0|34=200|49=QA3Ver4_APA|52=20180710-11:38:18.319|56=TRAX|10=207|8=FIX.4.4|9=60|35=0|34=201|49=QA3Ver4_APA|52=20180710-11:38:48.320|56=TRAX|10=203|8=FIX.4.4|9=60|35=0|34=202|49=QA3Ver4_APA|52=20180710-11:39:18.325|56=TRAX|10=207|8=FIX.4.4|9=60|35=0|34=203|49=QA3Ver4_APA|52=20180710-11:39:49.194|56=TRAX|10=216|8=FIX.4.4|9=60|35=0|34=204|49=QA3Ver4_APA|52=20180710-11:40:19.194|56=TRAX|10=206|8=FIX.4.4|9=60|35=0|34=205|49=QA3Ver4_APA|52=20180710-11:40:49.314|56=TRAX|10=204|8=FIX.4.4|9=60|35=0|34=206|49=QA3Ver4_APA|52=20180710-11:41:19.325|56=TRAX|10=205|8=FIX.4.4|9=60|35=0|34=207|49=QA3Ver4_APA|52=20180710-11:41:50.323|56=TRAX|10=199|8=FIX.4.4|9=60|35=0|34=208|49=QA3Ver4_APA|52=20180710-11:42:21.319|56=TRAX|10=204|8=FIX.4.4|9=60|35=0|34=209|49=QA3Ver4_APA|52=20180710-11:42:52.315|56=TRAX|10=205|8=FIX.4.4|9=60|35=0|34=210|49=QA3Ver4_APA|52=20180710-11:43:23.312|56=TRAX|10=193|8=FIX.4.4|9=60|35=0|34=211|49=QA3Ver4_APA|52=20180710-11:43:53.322|56=TRAX|10=198|8=FIX.4.4|9=60|35=0|34=212|49=QA3Ver4_APA|52=20180710-11:44:24.319|56=TRAX|10=204|8=FIX.4.4|9=60|35=0|34=213|49=QA3Ver4_APA|52=20180710-11:44:55.313|56=TRAX|10=203|8=FIX.4.4|9=60|35=0|34=214|49=QA3Ver4_APA|52=20180710-11:45:25.318|56=TRAX|10=207|8=FIX.4.4|9=60|35=0|34=215|49=QA3Ver4_APA|52=20180710-11:45:56.316|56=TRAX|10=210|8=FIX.4.4|9=60|35=0|34=216|49=QA3Ver4_APA|52=20180710-11:46:27.312|56=TRAX|10=206|8=FIX.4.4|9=60|35=0|34=217|49=QA3Ver4_APA|52=20180710-11:46:57.316|56=TRAX|10=214|8=FIX.4.4|9=60|35=0|34=218|49=QA3Ver4_APA|52=20180710-11:47:27.329|56=TRAX|10=217|8=FIX.4.4|9=60|35=0|34=219|49=QA3Ver4_APA|52=20180710-11:47:58.322|56=TRAX|10=215|8=FIX.4.4|9=60|35=0|34=220|49=QA3Ver4_APA|52=20180710-11:48:28.323|56=TRAX|10=206|8=FIX.4.4|9=60|35=0|34=221|49=QA3Ver4_APA|52=20180710-11:48:59.317|56=TRAX|10=214|8=FIX.4.4|9=60|35=0|34=222|49=QA3Ver4_APA|52=20180710-11:49:29.319|56=TRAX|10=215|8=FIX.4.4|9=60|35=0|34=223|49=QA3Ver4_APA|52=20180710-11:49:59.320|56=TRAX|10=211|8=FIX.4.4|9=60|35=0|34=224|49=QA3Ver4_APA|52=20180710-11:50:30.315|56=TRAX|10=197|8=FIX.4.4|9=60|35=0|34=225|49=QA3Ver4_APA|52=20180710-11:51:00.319|56=TRAX|10=200|8=FIX.4.4|9=60|35=0|34=226|49=QA3Ver4_APA|52=20180710-11:51:31.316|56=TRAX|10=202|8=FIX.4.4|9=60|35=0|34=227|49=QA3Ver4_APA|52=20180710-11:52:01.320|56=TRAX|10=196|8=FIX.4.4|9=60|35=0|34=228|49=QA3Ver4_APA|52=20180710-11:52:32.306|56=TRAX|10=205|8=FIX.4.4|9=60|35=0|34=229|49=QA3Ver4_APA|52=20180710-11:53:02.316|56=TRAX|10=205|8=FIX.4.4|9=60|35=0|34=230|49=QA3Ver4_APA|52=20180710-11:53:33.311|56=TRAX|10=196|8=FIX.4.4|9=60|35=0|34=231|49=QA3Ver4_APA|52=20180710-11:54:04.306|56=TRAX|10=200|8=FIX.4.4|9=60|35=0|34=232|49=QA3Ver4_APA|52=20180710-11:54:34.313|56=TRAX|10=202|8=FIX.4.4|9=60|35=0|34=233|49=QA3Ver4_APA|52=20180710-11:55:04.325|56=TRAX|10=204|8=FIX.4.4|9=60|35=0|34=234|49=QA3Ver4_APA|52=20180710-11:55:35.318|56=TRAX|10=211|8=FIX.4.4|9=60|35=0|34=235|49=QA3Ver4_APA|52=20180710-11:56:06.313|56=TRAX|10=206|8=FIX.4.4|9=60|35=0|34=236|49=QA3Ver4_APA|52=20180710-11:56:37.308|56=TRAX|10=215|8=FIX.4.4|9=60|35=0|34=237|49=QA3Ver4_APA|52=20180710-11:57:07.316|56=TRAX|10=213|8=FIX.4.4|9=60|35=0|34=238|49=QA3Ver4_APA|52=20180710-11:57:38.311|56=TRAX|10=213|8=FIX.4.4|9=60|35=0|34=239|49=QA3Ver4_APA|52=20180710-11:58:09.308|56=TRAX|10=219|8=FIX.4.4|9=60|35=0|34=240|49=QA3Ver4_APA|52=20180710-11:58:39.314|56=TRAX|10=211|8=FIX.4.4|9=60|35=0|34=241|49=QA3Ver4_APA|52=20180710-11:59:10.309|56=TRAX|10=206|8=FIX.4.4|9=60|35=0|34=242|49=QA3Ver4_APA|52=20180710-11:59:40.311|56=TRAX|10=203|8=FIX.4.4|9=60|35=0|34=243|49=QA3Ver4_APA|52=20180710-12:00:10.312|56=TRAX|10=189|8=FIX.4.4|9=60|35=0|34=244|49=QA3Ver4_APA|52=20180710-12:00:41.305|56=TRAX|10=196|8=FIX.4.4|9=60|35=0|34=245|49=QA3Ver4_APA|52=20180710-12:01:11.321|56=TRAX|10=193|8=FIX.4.4|9=60|35=0|34=246|49=QA3Ver4_APA|52=20180710-12:01:42.309|56=TRAX|10=204|8=FIX.4.4|9=60|35=0|34=247|49=QA3Ver4_APA|52=20180710-12:02:12.312|56=TRAX|10=197|8=FIX.4.4|9=60|35=0|34=248|49=QA3Ver4_APA|52=20180710-12:02:43.306|56=TRAX|10=205|8=FIX.4.4|9=60|35=0|34=249|49=QA3Ver4_APA|52=20180710-12:03:14.304|56=TRAX|10=203|8=FIX.4.4|9=60|35=0|34=250|49=QA3Ver4_APA|52=20180710-12:03:44.316|56=TRAX|10=201|8=FIX.4.4|9=60|35=0|34=251|49=QA3Ver4_APA|52=20180710-12:04:14.316|56=TRAX|10=200|8=FIX.4.4|9=60|35=0|34=252|49=QA3Ver4_APA|52=20180710-12:04:44.316|56=TRAX|10=204|8=FIX.4.4|9=60|35=0|34=253|49=QA3Ver4_APA|52=20180710-12:05:15.313|56=TRAX|10=201|8=FIX.4.4|9=60|35=0|34=254|49=QA3Ver4_APA|52=20180710-12:05:45.318|56=TRAX|10=210|8=FIX.4.4|9=60|35=0|34=255|49=QA3Ver4_APA|52=20180710-12:06:16.305|56=TRAX|10=206|8=FIX.4.4|9=60|35=0|34=256|49=QA3Ver4_APA|52=20180710-12:06:47.314|56=TRAX|10=211|8=FIX.4.4|9=60|35=0|34=257|49=QA3Ver4_APA|52=20180710-12:07:18.306|56=TRAX|10=212|8=FIX.4.4|9=60|35=0|34=258|49=QA3Ver4_APA|52=20180710-12:07:49.185|56=TRAX|10=222|8=FIX.4.4|9=60|35=0|34=259|49=QA3Ver4_APA|52=20180710-12:08:19.310|56=TRAX|10=211|8=FIX.4.4|9=60|35=0|34=260|49=QA3Ver4_APA|52=20180710-12:08:49.314|56=TRAX|10=210|8=FIX.4.4|9=60|35=0|34=261|49=QA3Ver4_APA|52=20180710-12:09:20.309|56=TRAX|10=205|8=FIX.4.4|9=60|35=0|34=262|49=QA3Ver4_APA|52=20180710-12:09:51.320|56=TRAX|10=203|8=FIX.4.4|9=60|35=0|34=263|49=QA3Ver4_APA|52=20180710-12:10:22.299|56=TRAX|10=209|8=FIX.4.4|9=60|35=0|34=264|49=QA3Ver4_APA|52=20180710-12:10:52.314|56=TRAX|10=201|8=FIX.4.4|9=60|35=0|34=265|49=QA3Ver4_APA|52=20180710-12:11:23.304|56=TRAX|10=200|8=FIX.4.4|9=60|35=0|34=266|49=QA3Ver4_APA|52=20180710-12:11:53.312|56=TRAX|10=203|8=FIX.4.4|9=60|35=0|34=267|49=QA3Ver4_APA|52=20180710-12:12:24.320|56=TRAX|10=202|8=FIX.4.4|9=60|35=0|34=268|49=QA3Ver4_APA|52=20180710-12:12:55.302|56=TRAX|10=207|8=FIX.4.4|9=60|35=0|34=269|49=QA3Ver4_APA|52=20180710-12:13:26.313|56=TRAX|10=209|8=FIX.4.4|9=60|35=0|34=270|49=QA3Ver4_APA|52=20180710-12:13:57.309|56=TRAX|10=210|8=FIX.4.4|9=60|35=0|34=271|49=QA3Ver4_APA|52=20180710-12:14:28.306|56=TRAX|10=207|8=FIX.4.4|9=60|35=0|34=272|49=QA3Ver4_APA|52=20180710-12:14:59.300|56=TRAX|10=206|8=FIX.4.4|9=60|35=0|34=273|49=QA3Ver4_APA|52=20180710-12:15:29.310|56=TRAX|10=206|8=FIX.4.4|9=60|35=0|34=274|49=QA3Ver4_APA|52=20180710-12:16:00.312|56=TRAX|10=199|8=FIX.4.4|9=60|35=0|34=275|49=QA3Ver4_APA|52=20180710-12:16:30.317|56=TRAX|10=208|8=FIX.4.4|9=60|35=0|34=276|49=QA3Ver4_APA|52=20180710-12:17:01.302|56=TRAX|10=202|8=FIX.4.4|9=60|35=0|34=277|49=QA3Ver4_APA|52=20180710-12:17:32.299|56=TRAX|10=222|8=FIX.4.4|9=60|35=0|34=278|49=QA3Ver4_APA|52=20180710-12:18:02.300|56=TRAX|10=204|8=FIX.4.4|9=60|35=0|34=279|49=QA3Ver4_APA|52=20180710-12:18:32.301|56=TRAX|10=209|8=FIX.4.4|9=60|35=0|34=280|49=QA3Ver4_APA|52=20180710-12:19:02.309|56=TRAX|10=207|8=FIX.4.4|9=60|35=0|34=281|49=QA3Ver4_APA|52=20180710-12:19:33.303|56=TRAX|10=206|8=FIX.4.4|9=60|35=0|34=282|49=QA3Ver4_APA|52=20180710-12:20:04.299|56=TRAX|10=211|8=FIX.4.4|9=60|35=0|34=283|49=QA3Ver4_APA|52=20180710-12:20:34.308|56=TRAX|10=206|8=FIX.4.4|9=60|35=0|34=284|49=QA3Ver4_APA|52=20180710-12:21:05.301|56=TRAX|10=199|8=FIX.4.4|9=60|35=0|34=285|49=QA3Ver4_APA|52=20180710-12:21:35.308|56=TRAX|10=210|8=FIX.4.4|9=60|35=0|34=286|49=QA3Ver4_APA|52=20180710-12:22:06.295|56=TRAX|10=215|8=FIX.4.4|9=60|35=0|34=287|49=QA3Ver4_APA|52=20180710-12:22:36.309|56=TRAX|10=215|8=FIX.4.4|9=60|35=0|34=288|49=QA3Ver4_APA|52=20180710-12:23:07.307|56=TRAX|10=213|8=FIX.4.4|9=60|35=0|34=289|49=QA3Ver4_APA|52=20180710-12:23:38.297|56=TRAX|10=226|8=FIX.4.4|9=60|35=0|34=290|49=QA3Ver4_APA|52=20180710-12:24:08.305|56=TRAX|10=206|8=FIX.4.4|9=60|35=0|34=291|49=QA3Ver4_APA|52=20180710-12:24:38.315|56=TRAX|10=211|8=FIX.4.4|9=60|35=0|34=292|49=QA3Ver4_APA|52=20180710-12:25:09.296|56=TRAX|10=219|8=FIX.4.4|9=60|35=0|34=293|49=QA3Ver4_APA|52=20180710-12:25:39.300|56=TRAX|10=209|8=FIX.4.4|9=60|35=0|34=294|49=QA3Ver4_APA|52=20180710-12:26:09.306|56=TRAX|10=214|8=FIX.4.4|9=60|35=0|34=295|49=QA3Ver4_APA|52=20180710-12:26:40.297|56=TRAX|10=219|8=FIX.4.4|9=60|35=0|34=296|49=QA3Ver4_APA|52=20180710-12:27:10.308|56=TRAX|10=211|8=FIX.4.4|9=60|35=0|34=297|49=QA3Ver4_APA|52=20180710-12:27:41.302|56=TRAX|10=210|8=FIX.4.4|9=60|35=0|34=298|49=QA3Ver4_APA|52=20180710-12:28:12.294|56=TRAX|10=220|8=FIX.4.4|9=60|35=0|34=299|49=QA3Ver4_APA|52=20180710-12:28:42.305|56=TRAX|10=217|8=FIX.4.4|9=60|35=0|34=300|49=QA3Ver4_APA|52=20180710-12:29:13.301|56=TRAX|10=195|8=FIX.4.4|9=60|35=0|34=301|49=QA3Ver4_APA|52=20180710-12:29:43.313|56=TRAX|10=202|8=FIX.4.4|9=60|35=0|34=302|49=QA3Ver4_APA|52=20180710-12:30:14.307|56=TRAX|10=196|8=FIX.4.4|9=60|35=0|34=303|49=QA3Ver4_APA|52=20180710-12:30:45.297|56=TRAX|10=209|8=FIX.4.4|9=60|35=0|34=304|49=QA3Ver4_APA|52=20180710-12:31:15.301|56=TRAX|10=194|8=FIX.4.4|9=60|35=0|34=305|49=QA3Ver4_APA|52=20180710-12:31:46.296|56=TRAX|10=212|8=FIX.4.4|9=60|35=0|34=306|49=QA3Ver4_APA|52=20180710-12:32:17.292|56=TRAX|10=208|8=FIX.4.4|9=60|35=0|34=307|49=QA3Ver4_APA|52=20180710-12:32:47.298|56=TRAX|10=218|8=FIX.4.4|9=60|35=0|34=308|49=QA3Ver4_APA|52=20180710-12:33:17.303|56=TRAX|10=204|8=FIX.4.4|9=60|35=0|34=309|49=QA3Ver4_APA|52=20180710-12:33:48.293|56=TRAX|10=217|8=FIX.4.4|9=60|35=0|34=310|49=QA3Ver4_APA|52=20180710-12:34:18.303|56=TRAX|10=199|8=FIX.4.4|9=60|35=0|34=311|49=QA3Ver4_APA|52=20180710-12:34:49.178|56=TRAX|10=214|8=FIX.4.4|9=60|35=0|34=312|49=QA3Ver4_APA|52=20180710-12:35:19.193|56=TRAX|10=210|8=FIX.4.4|9=60|35=0|34=313|49=QA3Ver4_APA|52=20180710-12:35:49.294|56=TRAX|10=216|8=FIX.4.4|9=60|35=0|34=314|49=QA3Ver4_APA|52=20180710-12:36:19.303|56=TRAX|10=206|8=FIX.4.4|9=60|35=0|34=315|49=QA3Ver4_APA|52=20180710-12:36:50.289|56=TRAX|10=215|8=FIX.4.4|9=60|35=0|34=316|49=QA3Ver4_APA|52=20180710-12:37:20.299|56=TRAX|10=215|8=FIX.4.4|9=60|35=0|34=317|49=QA3Ver4_APA|52=20180710-12:37:51.291|56=TRAX|10=212|8=FIX.4.4|9=60|35=0|34=318|49=QA3Ver4_APA|52=20180710-12:38:21.293|56=TRAX|10=213|8=FIX.4.4|9=60|35=0|34=319|49=QA3Ver4_APA|52=20180710-12:38:51.299|56=TRAX|10=223|8=FIX.4.4|9=60|35=0|34=320|49=QA3Ver4_APA|52=20180710-12:39:22.297|56=TRAX|10=212|8=FIX.4.4|9=60|35=0|34=321|49=QA3Ver4_APA|52=20180710-12:39:53.303|56=TRAX|10=205|8=FIX.4.4|9=60|35=0|34=322|49=QA3Ver4_APA|52=20180710-12:40:24.299|56=TRAX|10=210|8=FIX.4.4|9=60|35=0|34=323|49=QA3Ver4_APA|52=20180710-12:40:54.302|56=TRAX|10=199|8=FIX.4.4|9=60|35=0|34=324|49=QA3Ver4_APA|52=20180710-12:41:25.298|56=TRAX|10=213|8=FIX.4.4|9=60|35=0|34=325|49=QA3Ver4_APA|52=20180710-12:41:55.304|56=TRAX|10=205|8=FIX.4.4|9=60|35=0|34=326|49=QA3Ver4_APA|52=20180710-12:42:26.294|56=TRAX|10=213|8=FIX.4.4|9=60|35=0|34=327|49=QA3Ver4_APA|52=20180710-12:42:56.302|56=TRAX|10=207|8=FIX.4.4|9=60|35=0|34=328|49=QA3Ver4_APA|52=20180710-12:43:27.293|56=TRAX|10=216|8=FIX.4.4|9=60|35=0|34=329|49=QA3Ver4_APA|52=20180710-12:43:57.308|56=TRAX|10=217|8=FIX.4.4|9=60|35=0|34=330|49=QA3Ver4_APA|52=20180710-12:44:28.288|56=TRAX|10=215|8=FIX.4.4|9=60|35=0|34=331|49=QA3Ver4_APA|52=20180710-12:44:58.298|56=TRAX|10=220|8=FIX.4.4|9=60|35=0|34=332|49=QA3Ver4_APA|52=20180710-12:45:29.301|56=TRAX|10=205|8=FIX.4.4|9=60|35=0|34=333|49=QA3Ver4_APA|52=20180710-12:46:00.291|56=TRAX|10=204|8=FIX.4.4|9=60|35=0|34=334|49=QA3Ver4_APA|52=20180710-12:46:30.302|56=TRAX|10=201|8=FIX.4.4|9=60|35=0|34=335|49=QA3Ver4_APA|52=20180710-12:47:01.286|56=TRAX|10=212|8=FIX.4.4|9=60|35=0|34=336|49=QA3Ver4_APA|52=20180710-12:47:31.289|56=TRAX|10=219|8=FIX.4.4|9=60|35=0|34=337|49=QA3Ver4_APA|52=20180710-12:48:02.288|56=TRAX|10=218|8=FIX.4.4|9=60|35=0|34=338|49=QA3Ver4_APA|52=20180710-12:48:32.291|56=TRAX|10=216|8=FIX.4.4|9=60|35=0|34=339|49=QA3Ver4_APA|52=20180710-12:49:03.289|56=TRAX|10=223|8=FIX.4.4|9=60|35=0|34=340|49=QA3Ver4_APA|52=20180710-12:49:33.296|56=TRAX|10=216|8=FIX.4.4|9=60|35=0|34=341|49=QA3Ver4_APA|52=20180710-12:50:04.290|56=TRAX|10=201|8=FIX.4.4|9=60|35=0|34=342|49=QA3Ver4_APA|52=20180710-12:50:35.287|56=TRAX|10=212|8=FIX.4.4|9=60|35=0|34=343|49=QA3Ver4_APA|52=20180710-12:51:05.289|56=TRAX|10=213|8=FIX.4.4|9=60|35=0|34=344|49=QA3Ver4_APA|52=20180710-12:51:35.299|56=TRAX|10=218|8=FIX.4.4|9=60|35=0|34=345|49=QA3Ver4_APA|52=20180710-12:52:06.286|56=TRAX|10=214|8=FIX.4.4|9=60|35=0|34=346|49=QA3Ver4_APA|52=20180710-12:52:36.288|56=TRAX|10=220|8=FIX.4.4|9=60|35=0|34=347|49=QA3Ver4_APA|52=20180710-12:53:07.286|56=TRAX|10=218|8=FIX.4.4|9=60|35=0|34=348|49=QA3Ver4_APA|52=20180710-12:53:37.288|56=TRAX|10=224|8=FIX.4.4|9=60|35=0|34=349|49=QA3Ver4_APA|52=20180710-12:54:07.290|56=TRAX|10=216|8=FIX.4.4|9=60|35=0|34=350|49=QA3Ver4_APA|52=20180710-12:54:37.295|56=TRAX|10=216|8=FIX.4.4|9=60|35=0|34=351|49=QA3Ver4_APA|52=20180710-12:55:08.295|56=TRAX|10=216|8=FIX.4.4|9=60|35=0|34=352|49=QA3Ver4_APA|52=20180710-12:55:38.296|56=TRAX|10=221|8=FIX.4.4|9=60|35=0|34=353|49=QA3Ver4_APA|52=20180710-12:56:09.288|56=TRAX|10=222|8=FIX.4.4|9=60|35=0|34=354|49=QA3Ver4_APA|52=20180710-12:56:40.292|56=TRAX|10=213|8=FIX.4.4|9=60|35=0|34=355|49=QA3Ver4_APA|52=20180710-12:57:10.298|56=TRAX|10=218|8=FIX.4.4|9=60|35=0|34=356|49=QA3Ver4_APA|52=20180710-12:57:41.295|56=TRAX|10=220|8=FIX.4.4|9=60|35=0|34=357|49=QA3Ver4_APA|52=20180710-12:58:12.293|56=TRAX|10=218|8=FIX.4.4|9=60|35=0|34=358|49=QA3Ver4_APA|52=20180710-12:58:43.291|56=TRAX|10=221|8=FIX.4.4|9=60|35=0|34=359|49=QA3Ver4_APA|52=20180710-12:59:14.290|56=TRAX|10=220|8=FIX.4.4|9=60|35=0|34=360|49=QA3Ver4_APA|52=20180710-12:59:44.290|56=TRAX|10=215|8=FIX.4.4|9=60|35=0|34=361|49=QA3Ver4_APA|52=20180710-13:00:15.291|56=TRAX|10=202|8=FIX.4.4|9=60|35=0|34=362|49=QA3Ver4_APA|52=20180710-13:00:46.286|56=TRAX|10=211|8=FIX.4.4|9=60|35=0|34=363|49=QA3Ver4_APA|52=20180710-13:01:16.286|56=TRAX|10=210|8=FIX.4.4|9=60|35=0|34=364|49=QA3Ver4_APA|52=20180710-13:01:46.286|56=TRAX|10=214|8=FIX.4.4|9=60|35=0|34=365|49=QA3Ver4_APA|52=20180710-13:02:16.292|56=TRAX|10=210|8=FIX.4.4|9=60|35=0|34=366|49=QA3Ver4_APA|52=20180710-13:02:47.291|56=TRAX|10=214|8=FIX.4.4|9=60|35=0|34=367|49=QA3Ver4_APA|52=20180710-13:03:17.292|56=TRAX|10=214|8=FIX.4.4|9=60|35=0|34=368|49=QA3Ver4_APA|52=20180710-13:03:48.287|56=TRAX|10=223|8=FIX.4.4|9=60|35=0|34=369|49=QA3Ver4_APA|52=20180710-13:04:19.183|56=TRAX|10=218|8=FIX.4.4|9=60|35=0|34=370|49=QA3Ver4_APA|52=20180710-13:04:49.283|56=TRAX|10=214|8=FIX.4.4|9=60|35=0|34=371|49=QA3Ver4_APA|52=20180710-13:05:19.287|56=TRAX|10=217|8=FIX.4.4|9=60|35=0|34=372|49=QA3Ver4_APA|52=20180710-13:05:49.291|56=TRAX|10=216|8=FIX.4.4|9=60|35=0|34=373|49=QA3Ver4_APA|52=20180710-13:06:19.292|56=TRAX|10=216|8=FIX.4.4|9=60|35=0|34=374|49=QA3Ver4_APA|52=20180710-13:06:50.281|56=TRAX|10=210|8=FIX.4.4|9=60|35=0|34=375|49=QA3Ver4_APA|52=20180710-13:07:20.292|56=TRAX|10=211|8=FIX.4.4|9=60|35=0|34=376|49=QA3Ver4_APA|52=20180710-13:07:51.289|56=TRAX|10=222|8=FIX.4.4|9=60|35=0|34=377|49=QA3Ver4_APA|52=20180710-13:08:21.292|56=TRAX|10=215|8=FIX.4.4|9=60|35=0|34=378|49=QA3Ver4_APA|52=20180710-13:08:52.287|56=TRAX|10=224|8=FIX.4.4|9=60|35=0|34=379|49=QA3Ver4_APA|52=20180710-13:09:23.289|56=TRAX|10=226|8=FIX.4.4|9=60|35=0|34=380|49=QA3Ver4_APA|52=20180710-13:09:54.277|56=TRAX|10=219|8=FIX.4.4|9=60|35=0|34=381|49=QA3Ver4_APA|52=20180710-13:10:24.278|56=TRAX|10=210|8=FIX.4.4|9=60|35=0|34=382|49=QA3Ver4_APA|52=20180710-13:10:54.281|56=TRAX|10=208|8=FIX.4.4|9=60|35=0|34=383|49=QA3Ver4_APA|52=20180710-13:11:24.290|56=TRAX|10=207|8=FIX.4.4|9=60|35=0|34=384|49=QA3Ver4_APA|52=20180710-13:11:55.285|56=TRAX|10=216|8=FIX.4.4|9=60|35=0|34=385|49=QA3Ver4_APA|52=20180710-13:12:26.281|56=TRAX|10=212|8=FIX.4.4|9=60|35=0|34=386|49=QA3Ver4_APA|52=20180710-13:12:56.289|56=TRAX|10=224|8=FIX.4.4|9=60|35=0|34=387|49=QA3Ver4_APA|52=20180710-13:13:27.283|56=TRAX|10=218|8=FIX.4.4|9=60|35=0|34=388|49=QA3Ver4_APA|52=20180710-13:13:57.283|56=TRAX|10=222|8=FIX.4.4|9=60|35=0|34=389|49=QA3Ver4_APA|52=20180710-13:14:27.288|56=TRAX|10=226|8=FIX.4.4|9=60|35=0|34=390|49=QA3Ver4_APA|52=20180710-13:14:58.284|56=TRAX|10=218|8=FIX.4.4|9=60|35=0|34=391|49=QA3Ver4_APA|52=20180710-13:15:28.290|56=TRAX|10=214|8=FIX.4.4|9=60|35=0|34=392|49=QA3Ver4_APA|52=20180710-13:15:59.276|56=TRAX|10=223|8=FIX.4.4|9=60|35=0|34=393|49=QA3Ver4_APA|52=20180710-13:16:30.275|56=TRAX|10=213|8=FIX.4.4|9=60|35=0|34=394|49=QA3Ver4_APA|52=20180710-13:17:00.289|56=TRAX|10=217|8=FIX.4.4|9=60|35=0|34=395|49=QA3Ver4_APA|52=20180710-13:17:31.278|56=TRAX|10=220|8=FIX.4.4|9=60|35=0|34=396|49=QA3Ver4_APA|52=20180710-13:18:01.285|56=TRAX|10=217|8=FIX.4.4|9=60|35=0|34=397|49=QA3Ver4_APA|52=20180710-13:18:31.288|56=TRAX|10=224|8=FIX.4.4|9=60|35=0|34=398|49=QA3Ver4_APA|52=20180710-13:19:02.275|56=TRAX|10=220|8=FIX.4.4|9=60|35=0|34=399|49=QA3Ver4_APA|52=20180710-13:19:32.281|56=TRAX|10=221|8=FIX.4.4|9=60|35=0|34=400|49=QA3Ver4_APA|52=20180710-13:20:02.283|56=TRAX|10=195|8=FIX.4.4|9=60|35=0|34=401|49=QA3Ver4_APA|52=20180710-13:20:33.274|56=TRAX|10=200|8=FIX.4.4|9=60|35=0|34=402|49=QA3Ver4_APA|52=20180710-13:21:03.281|56=TRAX|10=197|8=FIX.4.4|9=60|35=0|34=403|49=QA3Ver4_APA|52=20180710-13:21:33.282|56=TRAX|10=202|8=FIX.4.4|9=60|35=0|34=404|49=QA3Ver4_APA|52=20180710-13:22:03.289|56=TRAX|10=208|8=FIX.4.4|9=60|35=0|34=405|49=QA3Ver4_APA|52=20180710-13:22:34.284|56=TRAX|10=208|8=FIX.4.4|9=60|35=0|34=406|49=QA3Ver4_APA|52=20180710-13:23:05.273|56=TRAX|10=206|8=FIX.4.4|9=60|35=0|34=407|49=QA3Ver4_APA|52=20180710-13:23:35.276|56=TRAX|10=213|8=FIX.4.4|9=60|35=0|34=408|49=QA3Ver4_APA|52=20180710-13:24:06.274|56=TRAX|10=211|8=FIX.4.4|9=60|35=0|34=409|49=QA3Ver4_APA|52=20180710-13:24:36.275|56=TRAX|10=216|8=FIX.4.4|9=60|35=0|34=410|49=QA3Ver4_APA|52=20180710-13:25:06.275|56=TRAX|10=206|8=FIX.4.4|9=60|35=0|34=411|49=QA3Ver4_APA|52=20180710-13:25:36.281|56=TRAX|10=207|8=FIX.4.4|9=60|35=0|34=412|49=QA3Ver4_APA|52=20180710-13:26:07.274|56=TRAX|10=209|8=FIX.4.4|9=60|35=0|34=413|49=QA3Ver4_APA|52=20180710-13:26:37.274|56=TRAX|10=213|8=FIX.4.4|9=60|35=0|34=414|49=QA3Ver4_APA|52=20180710-13:27:08.271|56=TRAX|10=210|8=FIX.4.4|9=60|35=0|34=415|49=QA3Ver4_APA|52=20180710-13:27:38.276|56=TRAX|10=219|8=FIX.4.4|9=60|35=0|34=416|49=QA3Ver4_APA|52=20180710-13:28:08.281|56=TRAX|10=214|8=FIX.4.4|9=60|35=0|34=417|49=QA3Ver4_APA|52=20180710-13:28:38.283|56=TRAX|10=220|8=FIX.4.4|9=60|35=0|34=418|49=QA3Ver4_APA|52=20180710-13:29:09.273|56=TRAX|10=219|8=FIX.4.4|9=60|35=0|34=419|49=QA3Ver4_APA|52=20180710-13:29:39.284|56=TRAX|10=225|8=FIX.4.4|9=60|35=0|34=420|49=QA3Ver4_APA|52=20180710-13:30:10.274|56=TRAX|10=197|8=FIX.4.4|9=60|35=0|34=421|49=QA3Ver4_APA|52=20180710-13:30:41.271|56=TRAX|10=199|8=FIX.4.4|9=60|35=0|34=422|49=QA3Ver4_APA|52=20180710-13:31:11.276|56=TRAX|10=203|8=FIX.4.4|9=60|35=0|34=423|49=QA3Ver4_APA|52=20180710-13:31:41.288|56=TRAX|10=210|8=FIX.4.4|9=60|35=0|34=424|49=QA3Ver4_APA|52=20180710-13:32:12.275|56=TRAX|10=206|8=FIX.4.4|9=60|35=0|34=425|49=QA3Ver4_APA|52=20180710-13:32:42.275|56=TRAX|10=210|8=FIX.4.4|9=60|35=0|34=426|49=QA3Ver4_APA|52=20180710-13:33:13.269|56=TRAX|10=213|8=FIX.4.4|9=60|35=0|34=427|49=QA3Ver4_APA|52=20180710-13:33:43.272|56=TRAX|10=211|8=FIX.4.4|9=60|35=0|34=428|49=QA3Ver4_APA|52=20180710-13:34:14.288|56=TRAX|10=218|8=FIX.4.4|9=60|35=0|34=429|49=QA3Ver4_APA|52=20180710-13:34:45.279|56=TRAX|10=223|8=FIX.4.4|9=60|35=0|34=430|49=QA3Ver4_APA|52=20180710-13:35:16.282|56=TRAX|10=208|8=FIX.4.4|9=60|35=0|34=431|49=QA3Ver4_APA|52=20180710-13:35:47.267|56=TRAX|10=216|8=FIX.4.4|9=60|35=0|34=432|49=QA3Ver4_APA|52=20180710-13:36:17.269|56=TRAX|10=217|8=FIX.4.4|9=60|35=0|34=433|49=QA3Ver4_APA|52=20180710-13:36:48.266|56=TRAX|10=219|8=FIX.4.4|9=60|35=0|34=434|49=QA3Ver4_APA|52=20180710-13:37:18.266|56=TRAX|10=218|8=FIX.4.4|9=60|35=0|34=435|49=QA3Ver4_APA|52=20180710-13:37:48.266|56=TRAX|10=222|8=FIX.4.4|9=60|35=0|34=436|49=QA3Ver4_APA|52=20180710-13:38:18.270|56=TRAX|10=216|8=FIX.4.4|9=60|35=0|34=437|49=QA3Ver4_APA|52=20180710-13:38:48.272|56=TRAX|10=222|8=FIX.4.4|9=60|35=0|34=438|49=QA3Ver4_APA|52=20180710-13:39:19.184|56=TRAX|10=224|8=FIX.4.4|9=60|35=0|34=439|49=QA3Ver4_APA|52=20180710-13:39:49.279|56=TRAX|10=233|8=FIX.4.4|9=60|35=0|34=440|49=QA3Ver4_APA|52=20180710-13:40:20.275|56=TRAX|10=202|8=FIX.4.4|9=60|35=0|34=441|49=QA3Ver4_APA|52=20180710-13:40:50.278|56=TRAX|10=209|8=FIX.4.4|9=60|35=0|34=442|49=QA3Ver4_APA|52=20180710-13:41:21.265|56=TRAX|10=205|8=FIX.4.4|9=60|35=0|34=443|49=QA3Ver4_APA|52=20180710-13:41:51.274|56=TRAX|10=209|8=FIX.4.4|9=60|35=0|34=444|49=QA3Ver4_APA|52=20180710-13:42:21.276|56=TRAX|10=210|8=FIX.4.4|9=60|35=0|34=445|49=QA3Ver4_APA|52=20180710-13:42:51.279|56=TRAX|10=217|8=FIX.4.4|9=60|35=0|34=446|49=QA3Ver4_APA|52=20180710-13:43:22.274|56=TRAX|10=212|8=FIX.4.4|9=60|35=0|34=447|49=QA3Ver4_APA|52=20180710-13:43:53.279|56=TRAX|10=222|8=FIX.4.4|9=60|35=0|34=448|49=QA3Ver4_APA|52=20180710-13:44:24.272|56=TRAX|10=215|8=FIX.4.4|9=60|35=0|34=449|49=QA3Ver4_APA|52=20180710-13:44:55.266|56=TRAX|10=223|8=FIX.4.4|9=60|35=0|34=450|49=QA3Ver4_APA|52=20180710-13:45:25.274|56=TRAX|10=212|8=FIX.4.4|9=60|35=0|34=451|49=QA3Ver4_APA|52=20180710-13:45:56.270|56=TRAX|10=213|8=FIX.4.4|9=60|35=0|34=452|49=QA3Ver4_APA|52=20180710-13:46:26.270|56=TRAX|10=212|8=FIX.4.4|9=60|35=0|34=453|49=QA3Ver4_APA|52=20180710-13:46:57.263|56=TRAX|10=219|8=FIX.4.4|9=60|35=0|34=454|49=QA3Ver4_APA|52=20180710-13:47:27.271|56=TRAX|10=217|8=FIX.4.4|9=60|35=0|34=455|49=QA3Ver4_APA|52=20180710-13:47:57.274|56=TRAX|10=224|8=FIX.4.4|9=60|35=0|34=456|49=QA3Ver4_APA|52=20180710-13:48:27.277|56=TRAX|10=226|8=FIX.4.4|9=60|35=0|34=457|49=QA3Ver4_APA|52=20180710-13:48:58.270|56=TRAX|10=224|8=FIX.4.4|9=60|35=0|34=458|49=QA3Ver4_APA|52=20180710-13:49:28.275|56=TRAX|10=228|8=FIX.4.4|9=60|35=0|34=459|49=QA3Ver4_APA|52=20180710-13:49:59.267|56=TRAX|10=234|8=FIX.4.4|9=60|35=0|34=460|49=QA3Ver4_APA|52=20180710-13:50:29.274|56=TRAX|10=213|8=FIX.4.4|9=60|35=0|34=461|49=QA3Ver4_APA|52=20180710-13:51:00.275|56=TRAX|10=205|8=FIX.4.4|9=60|35=0|34=462|49=QA3Ver4_APA|52=20180710-13:51:31.261|56=TRAX|10=205|8=FIX.4.4|9=60|35=0|34=463|49=QA3Ver4_APA|52=20180710-13:52:01.273|56=TRAX|10=207|8=FIX.4.4|9=60|35=0|34=464|49=QA3Ver4_APA|52=20180710-13:52:32.260|56=TRAX|10=208|8=FIX.4.4|9=60|35=0|34=465|49=QA3Ver4_APA|52=20180710-13:53:02.267|56=TRAX|10=214|8=FIX.4.4|9=60|35=0|34=466|49=QA3Ver4_APA|52=20180710-13:53:33.263|56=TRAX|10=215|8=FIX.4.4|9=60|35=0|34=467|49=QA3Ver4_APA|52=20180710-13:54:03.267|56=TRAX|10=218|8=FIX.4.4|9=60|35=0|34=468|49=QA3Ver4_APA|52=20180710-13:54:34.261|56=TRAX|10=217|8=FIX.4.4|9=60|35=0|34=469|49=QA3Ver4_APA|52=20180710-13:55:04.265|56=TRAX|10=220|8=FIX.4.4|9=60|35=0|34=470|49=QA3Ver4_APA|52=20180710-13:55:34.269|56=TRAX|10=219|8=FIX.4.4|9=60|35=0|34=471|49=QA3Ver4_APA|52=20180710-13:56:05.268|56=TRAX|10=218|8=FIX.4.4|9=60|35=0|34=472|49=QA3Ver4_APA|52=20180710-13:56:36.266|56=TRAX|10=221|8=FIX.4.4|9=60|35=0|34=473|49=QA3Ver4_APA|52=20180710-13:57:07.265|56=TRAX|10=220|8=FIX.4.4|9=60|35=0|34=474|49=QA3Ver4_APA|52=20180710-13:57:37.265|56=TRAX|10=224|8=FIX.4.4|9=60|35=0|34=475|49=QA3Ver4_APA|52=20180710-13:58:07.266|56=TRAX|10=224|8=FIX.4.4|9=60|35=0|34=476|49=QA3Ver4_APA|52=20180710-13:58:37.268|56=TRAX|10=230|8=FIX.4.4|9=60|35=0|34=477|49=QA3Ver4_APA|52=20180710-13:59:08.262|56=TRAX|10=224|8=FIX.4.4|9=60|35=0|34=478|49=QA3Ver4_APA|52=20180710-13:59:38.265|56=TRAX|10=231|8=FIX.4.4|9=60|35=0|34=479|49=QA3Ver4_APA|52=20180710-14:00:08.269|56=TRAX|10=220|8=FIX.4.4|9=60|35=0|34=480|49=QA3Ver4_APA|52=20180710-14:00:38.270|56=TRAX|10=207|8=FIX.4.4|9=60|35=0|34=481|49=QA3Ver4_APA|52=20180710-14:01:09.263|56=TRAX|10=209|8=FIX.4.4|9=60|35=0|34=482|49=QA3Ver4_APA|52=20180710-14:01:40.268|56=TRAX|10=210|8=FIX.4.4|9=60|35=0|34=483|49=QA3Ver4_APA|52=20180710-14:02:10.271|56=TRAX|10=203|8=FIX.4.4|9=60|35=0|34=484|49=QA3Ver4_APA|52=20180710-14:02:41.260|56=TRAX|10=206|8=FIX.4.4|9=60|35=0|34=485|49=QA3Ver4_APA|52=20180710-14:03:12.258|56=TRAX|10=213|8=FIX.4.4|9=60|35=0|34=486|49=QA3Ver4_APA|52=20180710-14:03:42.260|56=TRAX|10=210|8=FIX.4.4|9=60|35=0|34=487|49=QA3Ver4_APA|52=20180710-14:04:13.259|56=TRAX|10=218|8=FIX.4.4|9=60|35=0|34=488|49=QA3Ver4_APA|52=20180710-14:04:44.266|56=TRAX|10=221|8=FIX.4.4|9=60|35=0|34=489|49=QA3Ver4_APA|52=20180710-14:05:15.268|56=TRAX|10=223|8=FIX.4.4|9=60|35=0|34=490|49=QA3Ver4_APA|52=20180710-14:05:46.256|56=TRAX|10=216|8=FIX.4.4|9=60|35=0|34=491|49=QA3Ver4_APA|52=20180710-14:06:16.264|56=TRAX|10=214|8=FIX.4.4|9=60|35=0|34=492|49=QA3Ver4_APA|52=20180710-14:06:47.261|56=TRAX|10=216|8=FIX.4.4|9=60|35=0|34=493|49=QA3Ver4_APA|52=20180710-14:07:18.257|56=TRAX|10=221|8=FIX.4.4|9=60|35=0|34=494|49=QA3Ver4_APA|52=20180710-14:07:48.271|56=TRAX|10=221|8=FIX.4.4|9=60|35=0|34=495|49=QA3Ver4_APA|52=20180710-14:08:19.187|56=TRAX|10=227|8=FIX.4.4|9=60|35=0|34=496|49=QA3Ver4_APA|52=20180710-14:08:49.190|56=TRAX|10=225|8=FIX.4.4|9=60|35=0|34=497|49=QA3Ver4_APA|52=20180710-14:09:19.266|56=TRAX|10=228|8=FIX.4.4|9=60|35=0|34=498|49=QA3Ver4_APA|52=20180710-14:09:50.262|56=TRAX|10=220|8=FIX.4.4|9=60|35=0|34=499|49=QA3Ver4_APA|52=20180710-14:10:20.262|56=TRAX|10=210|8=FIX.4.4|9=60|35=0|34=500|49=QA3Ver4_APA|52=20180710-14:10:50.262|56=TRAX|10=196|8=FIX.4.4|9=60|35=0|34=501|49=QA3Ver4_APA|52=20180710-14:11:21.261|56=TRAX|10=195|8=FIX.4.4|9=60|35=0|34=502|49=QA3Ver4_APA|52=20180710-14:11:51.265|56=TRAX|10=203|8=FIX.4.4|9=60|35=0|34=503|49=QA3Ver4_APA|52=20180710-14:12:22.255|56=TRAX|10=202|8=FIX.4.4|9=60|35=0|34=504|49=QA3Ver4_APA|52=20180710-14:12:52.255|56=TRAX|10=206|8=FIX.4.4|9=60|35=0|34=505|49=QA3Ver4_APA|52=20180710-14:13:22.257|56=TRAX|10=207|8=FIX.4.4|9=60|35=0|34=506|49=QA3Ver4_APA|52=20180710-14:13:52.261|56=TRAX|10=206|8=FIX.4.4|9=60|35=0|34=507|49=QA3Ver4_APA|52=20180710-14:14:22.263|56=TRAX|10=207|8=FIX.4.4|9=60|35=0|34=508|49=QA3Ver4_APA|52=20180710-14:14:53.253|56=TRAX|10=211|8=FIX.4.4|9=60|35=0|34=509|49=QA3Ver4_APA|52=20180710-14:15:24.253|56=TRAX|10=211|8=FIX.4.4|9=60|35=0|34=510|49=QA3Ver4_APA|52=20180710-14:15:54.259|56=TRAX|10=212|8=FIX.4.4|9=60|35=0|34=511|49=QA3Ver4_APA|52=20180710-14:16:25.252|56=TRAX|10=205|8=FIX.4.4|9=60|35=0|34=512|49=QA3Ver4_APA|52=20180710-14:16:55.259|56=TRAX|10=216|8=FIX.4.4|9=60|35=0|34=513|49=QA3Ver4_APA|52=20180710-14:17:25.263|56=TRAX|10=210|8=FIX.4.4|9=60|35=0|34=514|49=QA3Ver4_APA|52=20180710-14:17:56.252|56=TRAX|10=213|8=FIX.4.4|9=60|35=0|34=515|49=QA3Ver4_APA|52=20180710-14:18:26.266|56=TRAX|10=217|8=FIX.4.4|9=60|35=0|34=516|49=QA3Ver4_APA|52=20180710-14:18:57.253|56=TRAX|10=218|8=FIX.4.4|9=60|35=0|34=517|49=QA3Ver4_APA|52=20180710-14:19:27.253|56=TRAX|10=217|8=FIX.4.4|9=60|35=0|34=518|49=QA3Ver4_APA|52=20180710-14:19:57.262|56=TRAX|10=221|8=FIX.4.4|9=60|35=0|34=519|49=QA3Ver4_APA|52=20180710-14:20:27.265|56=TRAX|10=214|8=FIX.4.4|9=60|35=0|34=520|49=QA3Ver4_APA|52=20180710-14:20:58.255|56=TRAX|10=209|8=FIX.4.4|9=60|35=0|34=521|49=QA3Ver4_APA|52=20180710-14:21:28.257|56=TRAX|10=210|8=FIX.4.4|9=60|35=0|34=522|49=QA3Ver4_APA|52=20180710-14:21:58.265|56=TRAX|10=213|8=FIX.4.4|9=60|35=0|34=523|49=QA3Ver4_APA|52=20180710-14:22:29.255|56=TRAX|10=212|8=FIX.4.4|9=60|35=0|34=524|49=QA3Ver4_APA|52=20180710-14:22:59.269|56=TRAX|10=221|8=FIX.4.4|9=60|35=0|34=525|49=QA3Ver4_APA|52=20180710-14:23:30.267|56=TRAX|10=210|8=FIX.4.4|9=60|35=0|34=526|49=QA3Ver4_APA|52=20180710-14:24:00.268|56=TRAX|10=210|8=FIX.4.4|9=60|35=0|34=527|49=QA3Ver4_APA|52=20180710-14:24:31.251|56=TRAX|10=207|8=FIX.4.4|9=60|35=0|34=528|49=QA3Ver4_APA|52=20180710-14:25:02.252|56=TRAX|10=208|8=FIX.4.4|9=60|35=0|34=529|49=QA3Ver4_APA|52=20180710-14:25:32.258|56=TRAX|10=218|8=FIX.4.4|9=60|35=0|34=530|49=QA3Ver4_APA|52=20180710-14:26:02.259|56=TRAX|10=209|8=FIX.4.4|9=60|35=0|34=531|49=QA3Ver4_APA|52=20180710-14:26:33.247|56=TRAX|10=211|8=FIX.4.4|9=60|35=0|34=532|49=QA3Ver4_APA|52=20180710-14:27:03.254|56=TRAX|10=208|8=FIX.4.4|9=60|35=0|34=533|49=QA3Ver4_APA|52=20180710-14:27:34.247|56=TRAX|10=215|8=FIX.4.4|9=60|35=0|34=534|49=QA3Ver4_APA|52=20180710-14:28:04.263|56=TRAX|10=212|8=FIX.4.4|9=60|35=0|34=535|49=QA3Ver4_APA|52=20180710-14:28:35.256|56=TRAX|10=219|8=FIX.4.4|9=60|35=0|34=536|49=QA3Ver4_APA|52=20180710-14:29:05.265|56=TRAX|10=218|8=FIX.4.4|9=60|35=0|34=537|49=QA3Ver4_APA|52=20180710-14:29:36.247|56=TRAX|10=223|8=FIX.4.4|9=60|35=0|34=538|49=QA3Ver4_APA|52=20180710-14:30:06.254|56=TRAX|10=211|8=FIX.4.4|9=60|35=0|34=539|49=QA3Ver4_APA|52=20180710-14:30:37.248|56=TRAX|10=219|8=FIX.4.4|9=60|35=0|34=540|49=QA3Ver4_APA|52=20180710-14:31:07.254|56=TRAX|10=206|8=FIX.4.4|9=60|35=0|34=541|49=QA3Ver4_APA|52=20180710-14:31:38.246|56=TRAX|10=212|8=FIX.4.4|9=60|35=0|34=542|49=QA3Ver4_APA|52=20180710-14:32:08.246|56=TRAX|10=211|8=FIX.4.4|9=60|35=0|34=543|49=QA3Ver4_APA|52=20180710-14:32:38.258|56=TRAX|10=218|8=FIX.4.4|9=60|35=0|34=544|49=QA3Ver4_APA|52=20180710-14:33:09.248|56=TRAX|10=217|8=FIX.4.4|9=60|35=0|34=545|49=QA3Ver4_APA|52=20180710-14:33:39.259|56=TRAX|10=223|8=FIX.4.4|9=60|35=0|34=546|49=QA3Ver4_APA|52=20180710-14:34:09.259|56=TRAX|10=222|8=FIX.4.4|9=60|35=0|34=547|49=QA3Ver4_APA|52=20180710-14:34:40.255|56=TRAX|10=214|8=FIX.4.4|9=60|35=0|34=548|49=QA3Ver4_APA|52=20180710-14:35:10.265|56=TRAX|10=214|8=FIX.4.4|9=60|35=0|34=549|49=QA3Ver4_APA|52=20180710-14:35:41.244|56=TRAX|10=216|8=FIX.4.4|9=60|35=0|34=550|49=QA3Ver4_APA|52=20180710-14:36:11.262|56=TRAX|10=206|8=FIX.4.4|9=60|35=0|34=551|49=QA3Ver4_APA|52=20180710-14:36:42.257|56=TRAX|10=215|8=FIX.4.4|9=60|35=0|34=552|49=QA3Ver4_APA|52=20180710-14:37:13.259|56=TRAX|10=217|8=FIX.4.4|9=60|35=0|34=553|49=QA3Ver4_APA|52=20180710-14:37:44.245|56=TRAX|10=217|8=FIX.4.4|9=60|35=0|34=554|49=QA3Ver4_APA|52=20180710-14:38:14.253|56=TRAX|10=215|8=FIX.4.4|9=60|35=0|34=555|49=QA3Ver4_APA|52=20180710-14:38:45.244|56=TRAX|10=220|8=FIX.4.4|9=60|35=0|34=556|49=QA3Ver4_APA|52=20180710-14:39:15.247|56=TRAX|10=222|8=FIX.4.4|9=60|35=0|34=557|49=QA3Ver4_APA|52=20180710-14:39:45.256|56=TRAX|10=226|8=FIX.4.4|9=60|35=0|34=558|49=QA3Ver4_APA|52=20180710-14:40:16.257|56=TRAX|10=218|8=FIX.4.4|9=60|35=0|34=559|49=QA3Ver4_APA|52=20180710-14:40:47.242|56=TRAX|10=217|8=FIX.4.4|9=60|35=0|34=560|49=QA3Ver4_APA|52=20180710-14:41:17.243|56=TRAX|10=208|8=FIX.4.4|9=60|35=0|34=561|49=QA3Ver4_APA|52=20180710-14:41:48.242|56=TRAX|10=212|8=FIX.4.4|9=60|35=0|34=562|49=QA3Ver4_APA|52=20180710-14:42:18.242|56=TRAX|10=211|8=FIX.4.4|9=60|35=0|34=563|49=QA3Ver4_APA|52=20180710-14:42:48.252|56=TRAX|10=216|8=FIX.4.4|9=60|35=0|34=564|49=QA3Ver4_APA|52=20180710-14:43:18.261|56=TRAX|10=215|8=FIX.4.4|9=60|35=0|34=565|49=QA3Ver4_APA|52=20180710-14:43:49.181|56=TRAX|10=221|8=FIX.4.4|9=60|35=0|34=566|49=QA3Ver4_APA|52=20180710-14:44:19.244|56=TRAX|10=220|8=FIX.4.4|9=60|35=0|34=567|49=QA3Ver4_APA|52=20180710-14:44:49.252|56=TRAX|10=223|8=FIX.4.4|9=60|35=0|34=568|49=QA3Ver4_APA|52=20180710-14:45:20.248|56=TRAX|10=219|8=FIX.4.4|9=60|35=0|34=569|49=QA3Ver4_APA|52=20180710-14:45:51.243|56=TRAX|10=219|8=FIX.4.4|9=60|35=0|34=570|49=QA3Ver4_APA|52=20180710-14:46:21.243|56=TRAX|10=209|8=FIX.4.4|9=60|35=0|34=571|49=QA3Ver4_APA|52=20180710-14:46:52.244|56=TRAX|10=215|8=FIX.4.4|9=60|35=0|34=572|49=QA3Ver4_APA|52=20180710-14:47:22.248|56=TRAX|10=218|8=FIX.4.4|9=60|35=0|34=573|49=QA3Ver4_APA|52=20180710-14:47:53.247|56=TRAX|10=222|8=FIX.4.4|9=60|35=0|34=574|49=QA3Ver4_APA|52=20180710-14:48:24.252|56=TRAX|10=218|8=FIX.4.4|9=60|35=0|34=575|49=QA3Ver4_APA|52=20180710-14:48:55.252|56=TRAX|10=223|8=FIX.4.4|9=60|35=0|34=576|49=QA3Ver4_APA|52=20180710-14:49:26.247|56=TRAX|10=227|8=FIX.4.4|9=60|35=0|34=577|49=QA3Ver4_APA|52=20180710-14:49:56.254|56=TRAX|10=229|8=FIX.4.4|9=60|35=0|34=578|49=QA3Ver4_APA|52=20180710-14:50:27.246|56=TRAX|10=221|8=FIX.4.4|9=60|35=0|34=579|49=QA3Ver4_APA|52=20180710-14:50:57.249|56=TRAX|10=228|8=FIX.4.4|9=60|35=0|34=580|49=QA3Ver4_APA|52=20180710-14:51:28.243|56=TRAX|10=213|8=FIX.4.4|9=60|35=0|34=581|49=QA3Ver4_APA|52=20180710-14:51:58.248|56=TRAX|10=222|8=FIX.4.4|9=60|35=0|34=582|49=QA3Ver4_APA|52=20180710-14:52:28.248|56=TRAX|10=221|8=FIX.4.4|9=60|35=0|34=583|49=QA3Ver4_APA|52=20180710-14:52:58.252|56=TRAX|10=220|8=FIX.4.4|9=60|35=0|34=584|49=QA3Ver4_APA|52=20180710-14:53:29.241|56=TRAX|10=218|8=FIX.4.4|9=60|35=0|34=585|49=QA3Ver4_APA|52=20180710-14:54:00.238|56=TRAX|10=215|8=FIX.4.4|9=60|35=0|34=586|49=QA3Ver4_APA|52=20180710-14:54:30.240|56=TRAX|10=212|8=FIX.4.4|9=60|35=0|34=587|49=QA3Ver4_APA|52=20180710-14:55:01.239|56=TRAX|10=220|8=FIX.4.4|9=60|35=0|34=588|49=QA3Ver4_APA|52=20180710-14:55:31.251|56=TRAX|10=218|8=FIX.4.4|9=60|35=0|34=589|49=QA3Ver4_APA|52=20180710-14:56:02.240|56=TRAX|10=216|8=FIX.4.4|9=60|35=0|34=590|49=QA3Ver4_APA|52=20180710-14:56:32.249|56=TRAX|10=220|8=FIX.4.4|9=60|35=0|34=591|49=QA3Ver4_APA|52=20180710-14:57:02.250|56=TRAX|10=211|8=FIX.4.4|9=60|35=0|34=592|49=QA3Ver4_APA|52=20180710-14:57:33.249|56=TRAX|10=224|8=FIX.4.4|9=60|35=0|34=593|49=QA3Ver4_APA|52=20180710-14:58:04.246|56=TRAX|10=221|8=FIX.4.4|9=60|35=0|34=594|49=QA3Ver4_APA|52=20180710-14:58:35.242|56=TRAX|10=222|8=FIX.4.4|9=60|35=0|34=595|49=QA3Ver4_APA|52=20180710-14:59:05.245|56=TRAX|10=224|8=FIX.4.4|9=60|35=0|34=596|49=QA3Ver4_APA|52=20180710-14:59:36.240|56=TRAX|10=224|8=FIX.4.4|9=60|35=0|34=597|49=QA3Ver4_APA|52=20180710-15:00:07.239|56=TRAX|10=218|8=FIX.4.4|9=60|35=0|34=598|49=QA3Ver4_APA|52=20180710-15:00:38.235|56=TRAX|10=219|8=FIX.4.4|9=60|35=0|34=599|49=QA3Ver4_APA|52=20180710-15:01:08.247|56=TRAX|10=221|8=FIX.4.4|9=60|35=0|34=600|49=QA3Ver4_APA|52=20180710-15:01:39.239|56=TRAX|10=209|8=FIX.4.4|9=60|35=0|34=601|49=QA3Ver4_APA|52=20180710-15:02:09.248|56=TRAX|10=208|8=FIX.4.4|9=60|35=0|34=602|49=QA3Ver4_APA|52=20180710-15:02:40.244|56=TRAX|10=200|8=FIX.4.4|9=60|35=0|34=603|49=QA3Ver4_APA|52=20180710-15:03:11.236|56=TRAX|10=201|8=FIX.4.4|9=60|35=0|34=604|49=QA3Ver4_APA|52=20180710-15:03:41.245|56=TRAX|10=205|8=FIX.4.4|9=60|35=0|34=605|49=QA3Ver4_APA|52=20180710-15:04:11.248|56=TRAX|10=207|8=FIX.4.4|9=60|35=0|34=606|49=QA3Ver4_APA|52=20180710-15:04:41.248|56=TRAX|10=211|8=FIX.4.4|9=60|35=0|34=607|49=QA3Ver4_APA|52=20180710-15:05:12.242|56=TRAX|10=205|8=FIX.4.4|9=60|35=0|34=608|49=QA3Ver4_APA|52=20180710-15:05:42.250|56=TRAX|10=208|8=FIX.4.4|9=60|35=0|34=609|49=QA3Ver4_APA|52=20180710-15:06:13.236|56=TRAX|10=212|8=FIX.4.4|9=60|35=0|34=610|49=QA3Ver4_APA|52=20180710-15:06:43.241|56=TRAX|10=203|8=FIX.4.4|9=60|35=0|34=611|49=QA3Ver4_APA|52=20180710-15:07:14.254|56=TRAX|10=207|8=FIX.4.4|9=60|35=0|34=612|49=QA3Ver4_APA|52=20180710-15:07:45.234|56=TRAX|10=210|8=FIX.4.4|9=60|35=0|34=613|49=QA3Ver4_APA|52=20180710-15:08:15.234|56=TRAX|10=209|8=FIX.4.4|9=60|35=0|34=614|49=QA3Ver4_APA|52=20180710-15:08:45.235|56=TRAX|10=214|8=FIX.4.4|9=60|35=0|34=615|49=QA3Ver4_APA|52=20180710-15:09:15.244|56=TRAX|10=213|8=FIX.4.4|9=60|35=0|34=616|49=QA3Ver4_APA|52=20180710-15:09:46.243|56=TRAX|10=217|8=FIX.4.4|9=60|35=0|34=617|49=QA3Ver4_APA|52=20180710-15:10:17.238|56=TRAX|10=212|8=FIX.4.4|9=60|35=0|34=618|49=QA3Ver4_APA|52=20180710-15:10:47.239|56=TRAX|10=217|8=FIX.4.4|9=60|35=0|34=619|49=QA3Ver4_APA|52=20180710-15:11:17.240|56=TRAX|10=208|8=FIX.4.4|9=60|35=0|34=620|49=QA3Ver4_APA|52=20180710-15:11:47.245|56=TRAX|10=208|8=FIX.4.4|9=60|35=0|34=621|49=QA3Ver4_APA|52=20180710-15:12:18.237|56=TRAX|10=209|8=FIX.4.4|9=60|35=0|34=622|49=QA3Ver4_APA|52=20180710-15:12:48.251|56=TRAX|10=209|8=FIX.4.4|9=60|35=0|34=623|49=QA3Ver4_APA|52=20180710-15:13:19.234|56=TRAX|10=210|8=FIX.4.4|9=60|35=0|34=624|49=QA3Ver4_APA|52=20180710-15:13:49.243|56=TRAX|10=214|8=FIX.4.4|9=60|35=0|34=625|49=QA3Ver4_APA|52=20180710-15:14:20.184|56=TRAX|10=209|8=FIX.4.4|9=60|35=0|34=626|49=QA3Ver4_APA|52=20180710-15:14:50.187|56=TRAX|10=216|8=FIX.4.4|9=60|35=0|34=627|49=QA3Ver4_APA|52=20180710-15:15:20.244|56=TRAX|10=209|8=FIX.4.4|9=60|35=0|34=628|49=QA3Ver4_APA|52=20180710-15:15:50.244|56=TRAX|10=213|8=FIX.4.4|9=60|35=0|34=629|49=QA3Ver4_APA|52=20180710-15:16:21.241|56=TRAX|10=210|8=FIX.4.4|9=60|35=0|34=630|49=QA3Ver4_APA|52=20180710-15:16:52.231|56=TRAX|10=205|8=FIX.4.4|9=60|35=0|34=631|49=QA3Ver4_APA|52=20180710-15:17:22.233|56=TRAX|10=206|8=FIX.4.4|9=60|35=0|34=632|49=QA3Ver4_APA|52=20180710-15:17:52.239|56=TRAX|10=216|8=FIX.4.4|9=60|35=0|34=633|49=QA3Ver4_APA|52=20180710-15:18:22.249|56=TRAX|10=216|8=FIX.4.4|9=60|35=0|34=634|49=QA3Ver4_APA|52=20180710-15:18:53.233|56=TRAX|10=214|8=FIX.4.4|9=60|35=0|34=635|49=QA3Ver4_APA|52=20180710-15:19:23.245|56=TRAX|10=216|8=FIX.4.4|9=60|35=0|34=636|49=QA3Ver4_APA|52=20180710-15:19:54.238|56=TRAX|10=223|8=FIX.4.4|9=60|35=0|34=637|49=QA3Ver4_APA|52=20180710-15:20:24.239|56=TRAX|10=214|8=FIX.4.4|9=60|35=0|34=638|49=QA3Ver4_APA|52=20180710-15:20:54.245|56=TRAX|10=215|8=FIX.4.4|9=60|35=0|34=639|49=QA3Ver4_APA|52=20180710-15:21:25.236|56=TRAX|10=215|8=FIX.4.4|9=60|35=0|34=640|49=QA3Ver4_APA|52=20180710-15:21:55.236|56=TRAX|10=210|8=FIX.4.4|9=60|35=0|34=641|49=QA3Ver4_APA|52=20180710-15:22:26.232|56=TRAX|10=206|8=FIX.4.4|9=60|35=0|34=642|49=QA3Ver4_APA|52=20180710-15:22:56.243|56=TRAX|10=212|8=FIX.4.4|9=60|35=0|34=643|49=QA3Ver4_APA|52=20180710-15:23:27.242|56=TRAX|10=211|8=FIX.4.4|9=60|35=0|34=644|49=QA3Ver4_APA|52=20180710-15:23:58.238|56=TRAX|10=221|8=FIX.4.4|9=60|35=0|34=645|49=QA3Ver4_APA|52=20180710-15:24:29.233|56=TRAX|10=216|8=FIX.4.4|9=60|35=0|34=646|49=QA3Ver4_APA|52=20180710-15:24:59.239|56=TRAX|10=226|8=FIX.4.4|9=60|35=0|34=647|49=QA3Ver4_APA|52=20180710-15:25:30.228|56=TRAX|10=215|8=FIX.4.4|9=60|35=0|34=648|49=QA3Ver4_APA|52=20180710-15:26:00.231|56=TRAX|10=208|8=FIX.4.4|9=60|35=0|34=649|49=QA3Ver4_APA|52=20180710-15:26:31.240|56=TRAX|10=213|8=FIX.4.4|9=60|35=0|34=650|49=QA3Ver4_APA|52=20180710-15:27:02.227|56=TRAX|10=209|8=FIX.4.4|9=60|35=0|34=651|49=QA3Ver4_APA|52=20180710-15:27:32.239|56=TRAX|10=216|8=FIX.4.4|9=60|35=0|34=652|49=QA3Ver4_APA|52=20180710-15:28:02.241|56=TRAX|10=208|8=FIX.4.4|9=60|35=0|34=653|49=QA3Ver4_APA|52=20180710-15:28:33.231|56=TRAX|10=212|8=FIX.4.4|9=60|35=0|34=654|49=QA3Ver4_APA|52=20180710-15:29:03.235|56=TRAX|10=215|8=FIX.4.4|9=60|35=0|34=655|49=QA3Ver4_APA|52=20180710-15:29:34.240|56=TRAX|10=216|8=FIX.4.4|9=60|35=0|34=656|49=QA3Ver4_APA|52=20180710-15:30:05.235|56=TRAX|10=211|8=FIX.4.4|9=60|35=0|34=657|49=QA3Ver4_APA|52=20180710-15:30:35.236|56=TRAX|10=216|8=FIX.4.4|9=60|35=0|34=658|49=QA3Ver4_APA|52=20180710-15:31:06.234|56=TRAX|10=214|8=FIX.4.4|9=60|35=0|34=659|49=QA3Ver4_APA|52=20180710-15:31:36.234|56=TRAX|10=218|8=FIX.4.4|9=60|35=0|34=660|49=QA3Ver4_APA|52=20180710-15:32:07.239|56=TRAX|10=214|8=FIX.4.4|9=60|35=0|34=661|49=QA3Ver4_APA|52=20180710-15:32:38.231|56=TRAX|10=211|8=FIX.4.4|9=60|35=0|34=662|49=QA3Ver4_APA|52=20180710-15:33:08.243|56=TRAX|10=213|8=FIX.4.4|9=60|35=0|34=663|49=QA3Ver4_APA|52=20180710-15:33:39.231|56=TRAX|10=215|8=FIX.4.4|9=60|35=0|34=664|49=QA3Ver4_APA|52=20180710-15:34:10.228|56=TRAX|10=212|8=FIX.4.4|9=60|35=0|34=665|49=QA3Ver4_APA|52=20180710-15:34:40.234|56=TRAX|10=213|8=FIX.4.4|9=60|35=0|34=666|49=QA3Ver4_APA|52=20180710-15:35:10.234|56=TRAX|10=212|8=FIX.4.4|9=60|35=0|34=667|49=QA3Ver4_APA|52=20180710-15:35:41.228|56=TRAX|10=220|8=FIX.4.4|9=60|35=0|34=668|49=QA3Ver4_APA|52=20180710-15:36:12.227|56=TRAX|10=219|8=FIX.4.4|9=60|35=0|34=669|49=QA3Ver4_APA|52=20180710-15:36:43.223|56=TRAX|10=220|8=FIX.4.4|9=60|35=0|34=670|49=QA3Ver4_APA|52=20180710-15:37:13.230|56=TRAX|10=208|8=FIX.4.4|9=60|35=0|34=671|49=QA3Ver4_APA|52=20180710-15:37:43.237|56=TRAX|10=219|8=FIX.4.4|9=60|35=0|34=672|49=QA3Ver4_APA|52=20180710-15:38:13.237|56=TRAX|10=218|8=FIX.4.4|9=60|35=0|34=673|49=QA3Ver4_APA|52=20180710-15:38:44.225|56=TRAX|10=220|8=FIX.4.4|9=60|35=0|34=674|49=QA3Ver4_APA|52=20180710-15:39:14.228|56=TRAX|10=222|8=FIX.4.4|9=60|35=0|34=675|49=QA3Ver4_APA|52=20180710-15:39:44.232|56=TRAX|10=221|8=FIX.4.4|9=60|35=0|34=676|49=QA3Ver4_APA|52=20180710-15:40:15.222|56=TRAX|10=211|8=FIX.4.4|9=60|35=0|34=677|49=QA3Ver4_APA|52=20180710-15:40:45.234|56=TRAX|10=218|8=FIX.4.4|9=60|35=0|34=678|49=QA3Ver4_APA|52=20180710-15:41:16.227|56=TRAX|10=220|8=FIX.4.4|9=60|35=0|34=679|49=QA3Ver4_APA|52=20180710-15:41:46.231|56=TRAX|10=219|8=FIX.4.4|9=60|35=0|34=680|49=QA3Ver4_APA|52=20180710-15:42:17.228|56=TRAX|10=216|8=FIX.4.4|9=60|35=0|34=681|49=QA3Ver4_APA|52=20180710-15:42:47.234|56=TRAX|10=217|8=FIX.4.4|9=60|35=0|34=682|49=QA3Ver4_APA|52=20180710-15:43:18.231|56=TRAX|10=214|8=FIX.4.4|9=60|35=0|34=683|49=QA3Ver4_APA|52=20180710-15:43:48.232|56=TRAX|10=219|8=FIX.4.4|9=60|35=0|34=684|49=QA3Ver4_APA|52=20180710-15:44:19.224|56=TRAX|10=220|8=FIX.4.4|9=60|35=0|34=685|49=QA3Ver4_APA|52=20180710-15:44:50.188|56=TRAX|10=225|8=FIX.4.4|9=60|35=0|34=686|49=QA3Ver4_APA|52=20180710-15:45:20.234|56=TRAX|10=216|8=FIX.4.4|9=60|35=0|34=687|49=QA3Ver4_APA|52=20180710-15:45:51.232|56=TRAX|10=219|8=FIX.4.4|9=60|35=0|34=688|49=QA3Ver4_APA|52=20180710-15:46:22.225|56=TRAX|10=221|8=FIX.4.4|9=60|35=0|34=689|49=QA3Ver4_APA|52=20180710-15:46:52.225|56=TRAX|10=225|8=FIX.4.4|9=60|35=0|34=690|49=QA3Ver4_APA|52=20180710-15:47:22.236|56=TRAX|10=217|8=FIX.4.4|9=60|35=0|34=691|49=QA3Ver4_APA|52=20180710-15:47:53.222|56=TRAX|10=217|8=FIX.4.4|9=60|35=0|34=692|49=QA3Ver4_APA|52=20180710-15:48:23.222|56=TRAX|10=216|8=FIX.4.4|9=60|35=0|34=693|49=QA3Ver4_APA|52=20180710-15:48:54.219|56=TRAX|10=227|8=FIX.4.4|9=60|35=0|34=694|49=QA3Ver4_APA|52=20180710-15:49:24.219|56=TRAX|10=226|8=FIX.4.4|9=60|35=0|34=695|49=QA3Ver4_APA|52=20180710-15:49:54.228|56=TRAX|10=230|8=FIX.4.4|9=60|35=0|34=696|49=QA3Ver4_APA|52=20180710-15:50:25.224|56=TRAX|10=217|8=FIX.4.4|9=60|35=0|34=697|49=QA3Ver4_APA|52=20180710-15:50:55.225|56=TRAX|10=222|8=FIX.4.4|9=60|35=0|34=698|49=QA3Ver4_APA|52=20180710-15:51:25.229|56=TRAX|10=225|8=FIX.4.4|9=60|35=0|34=699|49=QA3Ver4_APA|52=20180710-15:51:55.230|56=TRAX|10=221|8=FIX.4.4|9=60|35=0|34=700|49=QA3Ver4_APA|52=20180710-15:52:26.218|56=TRAX|10=209|8=FIX.4.4|9=60|35=0|34=701|49=QA3Ver4_APA|52=20180710-15:52:56.226|56=TRAX|10=212|8=FIX.4.4|9=60|35=0|34=702|49=QA3Ver4_APA|52=20180710-15:53:26.226|56=TRAX|10=211|8=FIX.4.4|9=60|35=0|34=703|49=QA3Ver4_APA|52=20180710-15:53:57.218|56=TRAX|10=217|8=FIX.4.4|9=60|35=0|34=704|49=QA3Ver4_APA|52=20180710-15:54:27.230|56=TRAX|10=210|8=FIX.4.4|9=60|35=0|34=705|49=QA3Ver4_APA|52=20180710-15:54:58.227|56=TRAX|10=221|8=FIX.4.4|9=60|35=0|34=706|49=QA3Ver4_APA|52=20180710-15:55:28.230|56=TRAX|10=214|8=FIX.4.4|9=60|35=0|34=707|49=QA3Ver4_APA|52=20180710-15:55:59.230|56=TRAX|10=219|8=FIX.4.4|9=60|35=0|34=708|49=QA3Ver4_APA|52=20180710-15:56:30.219|56=TRAX|10=217|8=FIX.4.4|9=60|35=0|34=709|49=QA3Ver4_APA|52=20180710-15:57:00.227|56=TRAX|10=215|8=FIX.4.4|9=60|35=0|34=710|49=QA3Ver4_APA|52=20180710-15:57:31.218|56=TRAX|10=211|8=FIX.4.4|9=60|35=0|34=711|49=QA3Ver4_APA|52=20180710-15:58:01.224|56=TRAX|10=207|8=FIX.4.4|9=60|35=0|34=712|49=QA3Ver4_APA|52=20180710-15:58:32.221|56=TRAX|10=209|8=FIX.4.4|9=60|35=0|34=713|49=QA3Ver4_APA|52=20180710-15:59:03.235|56=TRAX|10=214|8=FIX.4.4|9=60|35=0|34=714|49=QA3Ver4_APA|52=20180710-15:59:34.215|56=TRAX|10=217|8=FIX.4.4|9=60|35=0|34=715|49=QA3Ver4_APA|52=20180710-16:00:04.229|56=TRAX|10=207|8=FIX.4.4|9=60|35=0|34=716|49=QA3Ver4_APA|52=20180710-16:00:35.225|56=TRAX|10=208|8=FIX.4.4|9=60|35=0|34=717|49=QA3Ver4_APA|52=20180710-16:01:06.219|56=TRAX|10=211|8=FIX.4.4|9=60|35=0|34=718|49=QA3Ver4_APA|52=20180710-16:01:37.217|56=TRAX|10=214|8=FIX.4.4|9=60|35=0|34=719|49=QA3Ver4_APA|52=20180710-16:02:07.217|56=TRAX|10=213|8=FIX.4.4|9=60|35=0|34=720|49=QA3Ver4_APA|52=20180710-16:02:37.225|56=TRAX|10=207|8=FIX.4.4|9=60|35=0|34=721|49=QA3Ver4_APA|52=20180710-16:03:07.225|56=TRAX|10=206|8=FIX.4.4|9=60|35=0|34=722|49=QA3Ver4_APA|52=20180710-16:03:37.227|56=TRAX|10=212|8=FIX.4.4|9=60|35=0|34=723|49=QA3Ver4_APA|52=20180710-16:04:07.230|56=TRAX|10=205|8=FIX.4.4|9=60|35=0|34=724|49=QA3Ver4_APA|52=20180710-16:04:38.221|56=TRAX|10=210|8=FIX.4.4|9=60|35=0|34=725|49=QA3Ver4_APA|52=20180710-16:05:08.227|56=TRAX|10=215|8=FIX.4.4|9=60|35=0|34=726|49=QA3Ver4_APA|52=20180710-16:05:39.216|56=TRAX|10=218|8=FIX.4.4|9=60|35=0|34=727|49=QA3Ver4_APA|52=20180710-16:06:09.221|56=TRAX|10=213|8=FIX.4.4|9=60|35=0|34=728|49=QA3Ver4_APA|52=20180710-16:06:40.226|56=TRAX|10=214|8=FIX.4.4|9=60|35=0|34=729|49=QA3Ver4_APA|52=20180710-16:07:10.228|56=TRAX|10=215|8=FIX.4.4|9=60|35=0|34=730|49=QA3Ver4_APA|52=20180710-16:07:41.221|56=TRAX|10=204|8=FIX.4.4|9=60|35=0|34=731|49=QA3Ver4_APA|52=20180710-16:08:11.226|56=TRAX|10=208|8=FIX.4.4|9=60|35=0|34=732|49=QA3Ver4_APA|52=20180710-16:08:42.216|56=TRAX|10=212|8=FIX.4.4|9=60|35=0|34=733|49=QA3Ver4_APA|52=20180710-16:09:12.230|56=TRAX|10=207|8=FIX.4.4|9=60|35=0|34=734|49=QA3Ver4_APA|52=20180710-16:09:43.224|56=TRAX|10=215|8=FIX.4.4|9=60|35=0|34=735|49=QA3Ver4_APA|52=20180710-16:10:14.222|56=TRAX|10=204|8=FIX.4.4|9=60|35=0|34=736|49=QA3Ver4_APA|52=20180710-16:10:45.219|56=TRAX|10=215|8=FIX.4.4|9=60|35=0|34=737|49=QA3Ver4_APA|52=20180710-16:11:16.214|56=TRAX|10=210|8=FIX.4.4|9=60|35=0|34=738|49=QA3Ver4_APA|52=20180710-16:11:46.222|56=TRAX|10=213|8=FIX.4.4|9=60|35=0|34=739|49=QA3Ver4_APA|52=20180710-16:12:16.222|56=TRAX|10=212|8=FIX.4.4|9=60|35=0|34=740|49=QA3Ver4_APA|52=20180710-16:12:47.230|56=TRAX|10=207|8=FIX.4.4|9=60|35=0|34=741|49=QA3Ver4_APA|52=20180710-16:13:18.222|56=TRAX|10=208|8=FIX.4.4|9=60|35=0|34=742|49=QA3Ver4_APA|52=20180710-16:13:49.224|56=TRAX|10=215|8=FIX.4.4|9=60|35=0|34=743|49=QA3Ver4_APA|52=20180710-16:14:20.178|56=TRAX|10=214|8=FIX.4.4|9=60|35=0|34=744|49=QA3Ver4_APA|52=20180710-16:14:50.187|56=TRAX|10=218|8=FIX.4.4|9=60|35=0|34=745|49=QA3Ver4_APA|52=20180710-16:15:20.213|56=TRAX|10=207|8=FIX.4.4|9=60|35=0|34=746|49=QA3Ver4_APA|52=20180710-16:15:50.228|56=TRAX|10=217|8=FIX.4.4|9=60|35=0|34=747|49=QA3Ver4_APA|52=20180710-16:16:21.209|56=TRAX|10=216|8=FIX.4.4|9=60|35=0|34=748|49=QA3Ver4_APA|52=20180710-16:16:51.224|56=TRAX|10=217|8=FIX.4.4|9=60|35=0|34=749|49=QA3Ver4_APA|52=20180710-16:17:22.222|56=TRAX|10=215|8=FIX.4.4|9=60|35=0|34=750|49=QA3Ver4_APA|52=20180710-16:17:53.213|56=TRAX|10=211|8=FIX.4.4|9=60|35=0|34=751|49=QA3Ver4_APA|52=20180710-16:18:24.221|56=TRAX|10=210|8=FIX.4.4|9=60|35=0|34=752|49=QA3Ver4_APA|52=20180710-16:18:55.215|56=TRAX|10=218|8=FIX.4.4|9=60|35=0|34=753|49=QA3Ver4_APA|52=20180710-16:19:25.221|56=TRAX|10=214|8=FIX.4.4|9=60|35=0|34=754|49=QA3Ver4_APA|52=20180710-16:19:56.208|56=TRAX|10=224|8=FIX.4.4|9=60|35=0|34=755|49=QA3Ver4_APA|52=20180710-16:20:26.218|56=TRAX|10=215|8=FIX.4.4|9=60|35=0|34=756|49=QA3Ver4_APA|52=20180710-16:20:57.208|56=TRAX|10=219|8=FIX.4.4|9=60|35=0|34=757|49=QA3Ver4_APA|52=20180710-16:21:27.214|56=TRAX|10=215|8=FIX.4.4|9=60|35=0|34=758|49=QA3Ver4_APA|52=20180710-16:21:58.206|56=TRAX|10=221|8=FIX.4.4|9=60|35=0|34=759|49=QA3Ver4_APA|52=20180710-16:22:28.216|56=TRAX|10=221|8=FIX.4.4|9=60|35=0|34=760|49=QA3Ver4_APA|52=20180710-16:22:59.212|56=TRAX|10=213|8=FIX.4.4|9=60|35=0|34=761|49=QA3Ver4_APA|52=20180710-16:23:29.217|56=TRAX|10=217|8=FIX.4.4|9=60|35=0|34=762|49=QA3Ver4_APA|52=20180710-16:23:59.220|56=TRAX|10=215|8=FIX.4.4|9=60|35=0|34=763|49=QA3Ver4_APA|52=20180710-16:24:30.206|56=TRAX|10=210|8=FIX.4.4|9=60|35=0|34=764|49=QA3Ver4_APA|52=20180710-16:25:00.216|56=TRAX|10=210|8=FIX.4.4|9=60|35=0|34=765|49=QA3Ver4_APA|52=20180710-16:25:31.214|56=TRAX|10=213|8=FIX.4.4|9=60|35=0|34=766|49=QA3Ver4_APA|52=20180710-16:26:01.225|56=TRAX|10=214|8=FIX.4.4|9=60|35=0|34=767|49=QA3Ver4_APA|52=20180710-16:26:32.219|56=TRAX|10=222|8=FIX.4.4|9=60|35=0|34=768|49=QA3Ver4_APA|52=20180710-16:27:03.214|56=TRAX|10=217|8=FIX.4.4|9=60|35=0|34=769|49=QA3Ver4_APA|52=20180710-16:27:34.203|56=TRAX|10=220|8=FIX.4.4|9=60|35=0|34=770|49=QA3Ver4_APA|52=20180710-16:28:04.212|56=TRAX|10=210|8=FIX.4.4|9=60|35=0|34=771|49=QA3Ver4_APA|52=20180710-16:28:34.214|56=TRAX|10=216|8=FIX.4.4|9=60|35=0|34=772|49=QA3Ver4_APA|52=20180710-16:29:05.208|56=TRAX|10=219|8=FIX.4.4|9=60|35=0|34=773|49=QA3Ver4_APA|52=20180710-16:29:35.217|56=TRAX|10=223|8=FIX.4.4|9=60|35=0|34=774|49=QA3Ver4_APA|52=20180710-16:30:06.209|56=TRAX|10=215|8=FIX.4.4|9=60|35=0|34=775|49=QA3Ver4_APA|52=20180710-16:30:36.224|56=TRAX|10=216|8=FIX.4.4|9=60|35=0|34=776|49=QA3Ver4_APA|52=20180710-16:31:07.209|56=TRAX|10=219|8=FIX.4.4|9=60|35=0|34=777|49=QA3Ver4_APA|52=20180710-16:31:37.217|56=TRAX|10=222|8=FIX.4.4|9=60|35=0|34=778|49=QA3Ver4_APA|52=20180710-16:32:07.217|56=TRAX|10=221|8=FIX.4.4|9=60|35=0|34=779|49=QA3Ver4_APA|52=20180710-16:32:38.204|56=TRAX|10=222|8=FIX.4.4|9=60|35=0|34=780|49=QA3Ver4_APA|52=20180710-16:33:09.202|56=TRAX|10=211|8=FIX.4.4|9=60|35=0|34=781|49=QA3Ver4_APA|52=20180710-16:33:39.212|56=TRAX|10=216|8=FIX.4.4|9=60|35=0|34=782|49=QA3Ver4_APA|52=20180710-16:34:10.207|56=TRAX|10=211|8=FIX.4.4|9=60|35=0|34=783|49=QA3Ver4_APA|52=20180710-16:34:40.216|56=TRAX|10=215|8=FIX.4.4|9=60|35=0|34=784|49=QA3Ver4_APA|52=20180710-16:35:11.208|56=TRAX|10=216|8=FIX.4.4|9=60|35=0|34=785|49=QA3Ver4_APA|52=20180710-16:35:42.201|56=TRAX|10=214|8=FIX.4.4|9=60|35=0|34=786|49=QA3Ver4_APA|52=20180710-16:36:12.212|56=TRAX|10=215|8=FIX.4.4|9=60|35=0|34=787|49=QA3Ver4_APA|52=20180710-16:36:43.208|56=TRAX|10=225|8=FIX.4.4|9=60|35=0|34=788|49=QA3Ver4_APA|52=20180710-16:37:14.201|56=TRAX|10=218|8=FIX.4.4|9=60|35=0|34=789|49=QA3Ver4_APA|52=20180710-16:37:44.210|56=TRAX|10=222|8=FIX.4.4|9=60|35=0|34=790|49=QA3Ver4_APA|52=20180710-16:38:15.201|56=TRAX|10=213|8=FIX.4.4|9=60|35=0|34=791|49=QA3Ver4_APA|52=20180710-16:38:46.214|56=TRAX|10=222|8=FIX.4.4|9=60|35=0|34=792|49=QA3Ver4_APA|52=20180710-16:39:17.206|56=TRAX|10=223|8=FIX.4.4|9=60|35=0|34=793|49=QA3Ver4_APA|52=20180710-16:39:47.212|56=TRAX|10=224|8=FIX.4.4|9=60|35=0|34=794|49=QA3Ver4_APA|52=20180710-16:40:18.202|56=TRAX|10=214|8=FIX.4.4|9=60|35=0|34=795|49=QA3Ver4_APA|52=20180710-16:40:48.208|56=TRAX|10=224|8=FIX.4.4|9=60|35=0|34=796|49=QA3Ver4_APA|52=20180710-16:41:19.213|56=TRAX|10=220|8=FIX.4.4|9=60|35=0|34=797|49=QA3Ver4_APA|52=20180710-16:41:50.185|56=TRAX|10=224|8=FIX.4.4|9=60|35=0|34=798|49=QA3Ver4_APA|52=20180710-16:42:20.210|56=TRAX|10=212|8=FIX.4.4|9=60|35=0|34=799|49=QA3Ver4_APA|52=20180710-16:42:50.219|56=TRAX|10=225|8=FIX.4.4|9=60|35=0|34=800|49=QA3Ver4_APA|52=20180710-16:43:21.208|56=TRAX|10=205|8=FIX.4.4|9=60|35=0|34=801|49=QA3Ver4_APA|52=20180710-16:43:52.198|56=TRAX|10=218|8=FIX.4.4|9=60|35=0|34=802|49=QA3Ver4_APA|52=20180710-16:44:22.203|56=TRAX|10=204|8=FIX.4.4|9=60|35=0|34=803|49=QA3Ver4_APA|52=20180710-16:44:52.203|56=TRAX|10=208|8=FIX.4.4|9=60|35=0|34=804|49=QA3Ver4_APA|52=20180710-16:45:22.208|56=TRAX|10=212|8=FIX.4.4|9=60|35=0|34=805|49=QA3Ver4_APA|52=20180710-16:45:53.212|56=TRAX|10=212|8=FIX.4.4|9=60|35=0|34=806|49=QA3Ver4_APA|52=20180710-16:46:24.209|56=TRAX|10=218|8=FIX.4.4|9=60|35=0|34=807|49=QA3Ver4_APA|52=20180710-16:46:55.203|56=TRAX|10=217|8=FIX.4.4|9=60|35=0|34=808|49=QA3Ver4_APA|52=20180710-16:47:26.199|56=TRAX|10=231|8=FIX.4.4|9=60|35=0|34=809|49=QA3Ver4_APA|52=20180710-16:47:57.197|56=TRAX|10=234|8=FIX.4.4|9=60|35=0|34=810|49=QA3Ver4_APA|52=20180710-16:48:27.209|56=TRAX|10=218|8=FIX.4.4|9=60|35=0|34=811|49=QA3Ver4_APA|52=20180710-16:48:58.199|56=TRAX|10=231|8=FIX.4.4|9=60|35=0|34=812|49=QA3Ver4_APA|52=20180710-16:49:28.209|56=TRAX|10=222|8=FIX.4.4|9=60|35=0|34=813|49=QA3Ver4_APA|52=20180710-16:49:59.210|56=TRAX|10=219|8=FIX.4.4|9=60|35=0|34=814|49=QA3Ver4_APA|52=20180710-16:50:29.210|56=TRAX|10=209|8=FIX.4.4|9=60|35=0|34=815|49=QA3Ver4_APA|52=20180710-16:51:00.196|56=TRAX|10=213|8=FIX.4.4|9=60|35=0|34=816|49=QA3Ver4_APA|52=20180710-16:51:30.206|56=TRAX|10=209|8=FIX.4.4|9=60|35=0|34=817|49=QA3Ver4_APA|52=20180710-16:52:01.200|56=TRAX|10=203|8=FIX.4.4|9=60|35=0|34=818|49=QA3Ver4_APA|52=20180710-16:52:31.200|56=TRAX|10=207|8=FIX.4.4|9=60|35=0|34=819|49=QA3Ver4_APA|52=20180710-16:53:02.196|56=TRAX|10=221|8=FIX.4.4|9=60|35=0|34=820|49=QA3Ver4_APA|52=20180710-16:53:32.204|56=TRAX|10=206|8=FIX.4.4|9=60|35=0|34=821|49=QA3Ver4_APA|52=20180710-16:54:02.204|56=TRAX|10=205|8=FIX.4.4|9=60|35=0|34=822|49=QA3Ver4_APA|52=20180710-16:54:33.202|56=TRAX|10=208|8=FIX.4.4|9=60|35=0|34=823|49=QA3Ver4_APA|52=20180710-16:55:04.193|56=TRAX|10=217|8=FIX.4.4|9=60|35=0|34=824|49=QA3Ver4_APA|52=20180710-16:55:34.200|56=TRAX|10=210|8=FIX.4.4|9=60|35=0|34=825|49=QA3Ver4_APA|52=20180710-16:56:04.205|56=TRAX|10=214|8=FIX.4.4|9=60|35=0|34=826|49=QA3Ver4_APA|52=20180710-16:56:35.198|56=TRAX|10=230|8=FIX.4.4|9=60|35=0|34=827|49=QA3Ver4_APA|52=20180710-16:57:05.207|56=TRAX|10=220|8=FIX.4.4|9=60|35=0|34=828|49=QA3Ver4_APA|52=20180710-16:57:36.194|56=TRAX|10=230|8=FIX.4.4|9=60|35=0|34=829|49=QA3Ver4_APA|52=20180710-16:58:06.205|56=TRAX|10=222|8=FIX.4.4|9=60|35=0|34=830|49=QA3Ver4_APA|52=20180710-16:58:37.201|56=TRAX|10=214|8=FIX.4.4|9=60|35=0|34=831|49=QA3Ver4_APA|52=20180710-16:59:08.191|56=TRAX|10=222|8=FIX.4.4|9=60|35=0|34=832|49=QA3Ver4_APA|52=20180710-16:59:38.199|56=TRAX|10=234|8=FIX.4.4|9=60|35=0|34=833|49=QA3Ver4_APA|52=20180710-17:00:09.198|56=TRAX|10=219|8=FIX.4.4|9=60|35=0|34=834|49=QA3Ver4_APA|52=20180710-17:00:40.192|56=TRAX|10=209|8=FIX.4.4|9=60|35=0|34=835|49=QA3Ver4_APA|52=20180710-17:01:10.202|56=TRAX|10=200|8=FIX.4.4|9=60|35=0|34=836|49=QA3Ver4_APA|52=20180710-17:01:40.203|56=TRAX|10=205|8=FIX.4.4|9=60|35=0|34=837|49=QA3Ver4_APA|52=20180710-17:02:10.203|56=TRAX|10=204|8=FIX.4.4|9=60|35=0|34=838|49=QA3Ver4_APA|52=20180710-17:02:41.198|56=TRAX|10=222|8=FIX.4.4|9=60|35=0|34=839|49=QA3Ver4_APA|52=20180710-17:03:11.202|56=TRAX|10=207|8=FIX.4.4|9=60|35=0|34=840|49=QA3Ver4_APA|52=20180710-17:03:42.193|56=TRAX|10=212|8=FIX.4.4|9=60|35=0|34=841|49=QA3Ver4_APA|52=20180710-17:04:12.197|56=TRAX|10=215|8=FIX.4.4|9=60|35=0|34=842|49=QA3Ver4_APA|52=20180710-17:04:43.194|56=TRAX|10=217|8=FIX.4.4|9=60|35=0|34=843|49=QA3Ver4_APA|52=20180710-17:05:13.195|56=TRAX|10=217|8=FIX.4.4|9=60|35=0|34=844|49=QA3Ver4_APA|52=20180710-17:05:44.192|56=TRAX|10=219|8=FIX.4.4|9=60|35=0|34=845|49=QA3Ver4_APA|52=20180710-17:06:14.199|56=TRAX|10=225|8=FIX.4.4|9=60|35=0|34=846|49=QA3Ver4_APA|52=20180710-17:06:44.200|56=TRAX|10=212|8=FIX.4.4|9=60|35=0|34=847|49=QA3Ver4_APA|52=20180710-17:07:15.194|56=TRAX|10=224|8=FIX.4.4|9=60|35=0|34=848|49=QA3Ver4_APA|52=20180710-17:07:46.195|56=TRAX|10=230|8=FIX.4.4|9=60|35=0|34=849|49=QA3Ver4_APA|52=20180710-17:08:16.202|56=TRAX|10=218|8=FIX.4.4|9=60|35=0|34=850|49=QA3Ver4_APA|52=20180710-17:08:47.200|56=TRAX|10=212|8=FIX.4.4|9=60|35=0|34=851|49=QA3Ver4_APA|52=20180710-17:09:18.196|56=TRAX|10=226|8=FIX.4.4|9=60|35=0|34=852|49=QA3Ver4_APA|52=20180710-17:09:48.208|56=TRAX|10=224|8=FIX.4.4|9=60|35=0|34=853|49=QA3Ver4_APA|52=20180710-17:10:19.204|56=TRAX|10=211|8=FIX.4.4|9=60|35=0|34=854|49=QA3Ver4_APA|52=20180710-17:10:50.198|56=TRAX|10=219|8=FIX.4.4|9=60|35=0|34=855|49=QA3Ver4_APA|52=20180710-17:11:21.179|56=TRAX|10=218|8=FIX.4.4|9=60|35=0|34=856|49=QA3Ver4_APA|52=20180710-17:11:51.190|56=TRAX|10=215|8=FIX.4.4|9=60|35=0|34=857|49=QA3Ver4_APA|52=20180710-17:12:22.191|56=TRAX|10=216|8=FIX.4.4|9=60|35=0|34=858|49=QA3Ver4_APA|52=20180710-17:12:52.198|56=TRAX|10=227|8=FIX.4.4|9=60|35=0|34=859|49=QA3Ver4_APA|52=20180710-17:13:23.195|56=TRAX|10=224|8=FIX.4.4|9=60|35=0|34=860|49=QA3Ver4_APA|52=20180710-17:13:54.189|56=TRAX|10=223|8=FIX.4.4|9=60|35=0|34=861|49=QA3Ver4_APA|52=20180710-17:14:25.187|56=TRAX|10=221|8=FIX.4.4|9=60|35=0|34=862|49=QA3Ver4_APA|52=20180710-17:14:55.192|56=TRAX|10=221|8=FIX.4.4|9=60|35=0|34=863|49=QA3Ver4_APA|52=20180710-17:15:26.191|56=TRAX|10=220|8=FIX.4.4|9=60|35=0|34=864|49=QA3Ver4_APA|52=20180710-17:15:56.191|56=TRAX|10=224|8=FIX.4.4|9=60|35=0|34=865|49=QA3Ver4_APA|52=20180710-17:16:27.186|56=TRAX|10=228|8=FIX.4.4|9=60|35=0|34=866|49=QA3Ver4_APA|52=20180710-17:16:57.187|56=TRAX|10=233|8=FIX.4.4|9=60|35=0|34=867|49=QA3Ver4_APA|52=20180710-17:17:27.199|56=TRAX|10=235|8=FIX.4.4|9=60|35=0|34=868|49=QA3Ver4_APA|52=20180710-17:17:58.187|56=TRAX|10=237|8=FIX.4.4|9=60|35=0|34=869|49=QA3Ver4_APA|52=20180710-17:18:29.198|56=TRAX|10=239|8=FIX.4.4|9=60|35=0|34=870|49=QA3Ver4_APA|52=20180710-17:19:00.193|56=TRAX|10=216|8=FIX.4.4|9=60|35=0|34=871|49=QA3Ver4_APA|52=20180710-17:19:31.188|56=TRAX|10=225|8=FIX.4.4|9=60|35=0|34=872|49=QA3Ver4_APA|52=20180710-17:20:01.204|56=TRAX|10=204|8=FIX.4.4|9=60|35=0|34=873|49=QA3Ver4_APA|52=20180710-17:20:32.198|56=TRAX|10=221|8=FIX.4.4|9=60|35=0|34=874|49=QA3Ver4_APA|52=20180710-17:21:03.189|56=TRAX|10=221|8=FIX.4.4|9=60|35=0|34=875|49=QA3Ver4_APA|52=20180710-17:21:34.183|56=TRAX|10=220|8=FIX.4.4|9=60|35=0|34=876|49=QA3Ver4_APA|52=20180710-17:22:04.183|56=TRAX|10=219|8=FIX.4.4|9=60|35=0|34=877|49=QA3Ver4_APA|52=20180710-17:22:34.188|56=TRAX|10=228|8=FIX.4.4|9=60|35=0|34=878|49=QA3Ver4_APA|52=20180710-17:23:04.188|56=TRAX|10=227|8=FIX.4.4|9=60|35=0|34=879|49=QA3Ver4_APA|52=20180710-17:23:34.197|56=TRAX|10=231|8=FIX.4.4|9=60|35=0|34=880|49=QA3Ver4_APA|52=20180710-17:24:05.193|56=TRAX|10=218|8=FIX.4.4|9=60|35=0|34=881|49=QA3Ver4_APA|52=20180710-17:24:36.188|56=TRAX|10=227|8=FIX.4.4|9=60|35=0|34=882|49=QA3Ver4_APA|52=20180710-17:25:06.191|56=TRAX|10=220|8=FIX.4.4|9=60|35=0|34=883|49=QA3Ver4_APA|52=20180710-17:25:36.193|56=TRAX|10=226|8=FIX.4.4|9=60|35=0|34=884|49=QA3Ver4_APA|52=20180710-17:26:07.186|56=TRAX|10=228|8=FIX.4.4|9=60|35=0|34=885|49=QA3Ver4_APA|52=20180710-17:26:37.192|56=TRAX|10=229|8=FIX.4.4|9=60|35=0|34=886|49=QA3Ver4_APA|52=20180710-17:27:08.189|56=TRAX|10=235|8=FIX.4.4|9=60|35=0|34=887|49=QA3Ver4_APA|52=20180710-17:27:39.184|56=TRAX|10=235|8=FIX.4.4|9=60|35=0|34=888|49=QA3Ver4_APA|52=20180710-17:28:09.191|56=TRAX|10=232|8=FIX.4.4|9=60|35=0|34=889|49=QA3Ver4_APA|52=20180710-17:28:40.185|56=TRAX|10=231|8=FIX.4.4|9=60|35=0|34=890|49=QA3Ver4_APA|52=20180710-17:29:10.190|56=TRAX|10=217|8=FIX.4.4|9=60|35=0|34=891|49=QA3Ver4_APA|52=20180710-17:29:41.188|56=TRAX|10=229|8=FIX.4.4|9=60|35=0|34=892|49=QA3Ver4_APA|52=20180710-17:30:12.183|56=TRAX|10=215|8=FIX.4.4|9=60|35=0|34=893|49=QA3Ver4_APA|52=20180710-17:30:43.179|56=TRAX|10=225|8=FIX.4.4|9=60|35=0|34=894|49=QA3Ver4_APA|52=20180710-17:31:13.194|56=TRAX|10=221|8=FIX.4.4|9=60|35=0|34=895|49=QA3Ver4_APA|52=20180710-17:31:44.181|56=TRAX|10=222|8=FIX.4.4|9=60|35=0|34=896|49=QA3Ver4_APA|52=20180710-17:32:15.180|56=TRAX|10=221|8=FIX.4.4|9=60|35=0|34=897|49=QA3Ver4_APA|52=20180710-17:32:45.191|56=TRAX|10=227|8=FIX.4.4|9=60|35=0|34=898|49=QA3Ver4_APA|52=20180710-17:33:16.189|56=TRAX|10=234|8=FIX.4.4|9=60|35=0|34=899|49=QA3Ver4_APA|52=20180710-17:33:47.181|56=TRAX|10=231|8=FIX.4.4|9=60|35=0|34=900|49=QA3Ver4_APA|52=20180710-17:34:17.193|56=TRAX|10=215|8=FIX.4.4|9=60|35=0|34=901|49=QA3Ver4_APA|52=20180710-17:34:48.191|56=TRAX|10=218|8=FIX.4.4|9=60|35=0|34=902|49=QA3Ver4_APA|52=20180710-17:35:19.193|56=TRAX|10=220|8=FIX.4.4|9=60|35=0|34=903|49=QA3Ver4_APA|52=20180710-17:35:50.188|56=TRAX|10=220|8=FIX.4.4|9=60|35=0|34=904|49=QA3Ver4_APA|52=20180710-17:36:21.182|56=TRAX|10=214|8=FIX.4.4|9=60|35=0|34=905|49=QA3Ver4_APA|52=20180710-17:36:51.184|56=TRAX|10=220|8=FIX.4.4|9=60|35=0|34=906|49=QA3Ver4_APA|52=20180710-17:37:22.177|56=TRAX|10=222|8=FIX.4.4|9=60|35=0|34=907|49=QA3Ver4_APA|52=20180710-17:37:52.186|56=TRAX|10=226|8=FIX.4.4|9=60|35=0|34=908|49=QA3Ver4_APA|52=20180710-17:38:23.185|56=TRAX|10=225|8=FIX.4.4|9=60|35=0|34=909|49=QA3Ver4_APA|52=20180710-17:38:53.191|56=TRAX|10=226|8=FIX.4.4|9=60|35=0|34=910|49=QA3Ver4_APA|52=20180710-17:39:24.190|56=TRAX|10=216|8=FIX.4.4|9=60|35=0|34=911|49=QA3Ver4_APA|52=20180710-17:39:55.181|56=TRAX|10=221|8=FIX.4.4|9=60|35=0|34=912|49=QA3Ver4_APA|52=20180710-17:40:26.180|56=TRAX|10=211|8=FIX.4.4|9=60|35=0|34=913|49=QA3Ver4_APA|52=20180710-17:40:56.190|56=TRAX|10=216|8=FIX.4.4|9=60|35=0|34=914|49=QA3Ver4_APA|52=20180710-17:41:27.185|56=TRAX|10=220|8=FIX.4.4|9=60|35=0|34=915|49=QA3Ver4_APA|52=20180710-17:41:58.187|56=TRAX|10=227|8=FIX.4.4|9=60|35=0|34=916|49=QA3Ver4_APA|52=20180710-17:42:29.175|56=TRAX|10=224|8=FIX.4.4|9=60|35=0|34=917|49=QA3Ver4_APA|52=20180710-17:42:59.189|56=TRAX|10=233|8=FIX.4.4|9=60|35=0|34=918|49=QA3Ver4_APA|52=20180710-17:43:30.184|56=TRAX|10=219|8=FIX.4.4|9=60|35=0|34=919|49=QA3Ver4_APA|52=20180710-17:44:01.180|56=TRAX|10=215|8=FIX.4.4|9=60|35=0|34=920|49=QA3Ver4_APA|52=20180710-17:44:31.198|56=TRAX|10=219|8=FIX.4.4|9=60|35=0|34=921|49=QA3Ver4_APA|52=20180710-17:45:02.179|56=TRAX|10=218|8=FIX.4.4|9=60|35=0|34=922|49=QA3Ver4_APA|52=20180710-17:45:32.195|56=TRAX|10=220|8=FIX.4.4|9=60|35=0|34=923|49=QA3Ver4_APA|52=20180710-17:46:03.185|56=TRAX|10=219|8=FIX.4.4|9=60|35=0|34=924|49=QA3Ver4_APA|52=20180710-17:46:34.180|56=TRAX|10=219|8=FIX.4.4|9=60|35=0|34=925|49=QA3Ver4_APA|52=20180710-17:47:05.180|56=TRAX|10=219|8=FIX.4.4|9=60|35=0|34=926|49=QA3Ver4_APA|52=20180710-17:47:36.178|56=TRAX|10=231|8=FIX.4.4|9=60|35=0|34=927|49=QA3Ver4_APA|52=20180710-17:48:07.177|56=TRAX|10=230|8=FIX.4.4|9=60|35=0|34=928|49=QA3Ver4_APA|52=20180710-17:48:37.185|56=TRAX|10=233|8=FIX.4.4|9=60|35=0|34=929|49=QA3Ver4_APA|52=20180710-17:49:08.184|56=TRAX|10=232|8=FIX.4.4|9=60|35=0|34=930|49=QA3Ver4_APA|52=20180710-17:49:39.180|56=TRAX|10=224|8=FIX.4.4|9=60|35=0|34=931|49=QA3Ver4_APA|52=20180710-17:50:10.178|56=TRAX|10=213|8=FIX.4.4|9=60|35=0|34=932|49=QA3Ver4_APA|52=20180710-17:50:41.176|56=TRAX|10=216|8=FIX.4.4|9=60|35=0|34=933|49=QA3Ver4_APA|52=20180710-17:51:11.185|56=TRAX|10=215|8=FIX.4.4|9=60|35=0|34=934|49=QA3Ver4_APA|52=20180710-17:51:42.185|56=TRAX|10=220|8=FIX.4.4|9=60|35=0|34=935|49=QA3Ver4_APA|52=20180710-17:52:13.176|56=TRAX|10=220|8=FIX.4.4|9=60|35=0|34=936|49=QA3Ver4_APA|52=20180710-17:52:44.171|56=TRAX|10=220|8=FIX.4.4|9=60|35=0|34=937|49=QA3Ver4_APA|52=20180710-17:53:14.181|56=TRAX|10=220|8=FIX.4.4|9=60|35=0|34=938|49=QA3Ver4_APA|52=20180710-17:53:45.178|56=TRAX|10=231|8=FIX.4.4|9=60|35=0|34=939|49=QA3Ver4_APA|52=20180710-17:54:15.178|56=TRAX|10=230|8=FIX.4.4|9=60|35=0|34=940|49=QA3Ver4_APA|52=20180710-17:54:46.174|56=TRAX|10=222|8=FIX.4.4|9=60|35=0|34=941|49=QA3Ver4_APA|52=20180710-17:55:16.185|56=TRAX|10=223|8=FIX.4.4|9=60|35=0|34=942|49=QA3Ver4_APA|52=20180710-17:55:47.179|56=TRAX|10=231|8=FIX.4.4|9=60|35=0|34=943|49=QA3Ver4_APA|52=20180710-17:56:18.174|56=TRAX|10=226|8=FIX.4.4|9=60|35=0|34=944|49=QA3Ver4_APA|52=20180710-17:56:48.180|56=TRAX|10=227|8=FIX.4.4|9=60|35=0|34=945|49=QA3Ver4_APA|52=20180710-17:57:18.182|56=TRAX|10=228|8=FIX.4.4|9=60|35=0|34=946|49=QA3Ver4_APA|52=20180710-17:57:48.182|56=TRAX|10=232|8=FIX.4.4|9=60|35=0|34=947|49=QA3Ver4_APA|52=20180710-17:58:19.173|56=TRAX|10=232|8=FIX.4.4|9=60|35=0|34=948|49=QA3Ver4_APA|52=20180710-17:58:49.184|56=TRAX|10=238|8=FIX.4.4|9=60|35=0|34=949|49=QA3Ver4_APA|52=20180710-17:59:20.171|56=TRAX|10=225|8=FIX.4.4|9=60|35=0|34=950|49=QA3Ver4_APA|52=20180710-17:59:50.181|56=TRAX|10=221|8=FIX.4.4|9=60|35=0|34=951|49=QA3Ver4_APA|52=20180710-18:00:21.178|56=TRAX|10=213|8=FIX.4.4|9=60|35=0|34=952|49=QA3Ver4_APA|52=20180710-18:00:52.174|56=TRAX|10=214|8=FIX.4.4|9=60|35=0|34=953|49=QA3Ver4_APA|52=20180710-18:01:23.173|56=TRAX|10=213|8=FIX.4.4|9=60|35=0|34=954|49=QA3Ver4_APA|52=20180710-18:01:53.181|56=TRAX|10=216|8=FIX.4.4|9=60|35=0|34=955|49=QA3Ver4_APA|52=20180710-18:02:24.176|56=TRAX|10=220|8=FIX.4.4|9=60|35=0|34=956|49=QA3Ver4_APA|52=20180710-18:02:55.175|56=TRAX|10=224|8=FIX.4.4|9=60|35=0|34=957|49=QA3Ver4_APA|52=20180710-18:03:26.167|56=TRAX|10=225|8=FIX.4.4|9=60|35=0|34=958|49=QA3Ver4_APA|52=20180710-18:03:56.178|56=TRAX|10=231|8=FIX.4.4|9=60|35=0|34=959|49=QA3Ver4_APA|52=20180710-18:04:27.168|56=TRAX|10=230|8=FIX.4.4|9=60|35=0|34=960|49=QA3Ver4_APA|52=20180710-18:04:57.179|56=TRAX|10=227|8=FIX.4.4|9=60|35=0|34=961|49=QA3Ver4_APA|52=20180710-18:05:28.177|56=TRAX|10=225|8=FIX.4.4|9=60|35=0|34=962|49=QA3Ver4_APA|52=20180710-18:05:59.171|56=TRAX|10=224|8=FIX.4.4|9=60|35=0|34=963|49=QA3Ver4_APA|52=20180710-18:06:29.174|56=TRAX|10=226|8=FIX.4.4|9=60|35=0|34=964|49=QA3Ver4_APA|52=20180710-18:07:00.167|56=TRAX|10=219|8=FIX.4.4|9=60|35=0|34=965|49=QA3Ver4_APA|52=20180710-18:07:30.178|56=TRAX|10=225|8=FIX.4.4|9=60|35=0|34=966|49=QA3Ver4_APA|52=20180710-18:08:01.173|56=TRAX|10=220|8=FIX.4.4|9=60|35=0|34=967|49=QA3Ver4_APA|52=20180710-18:08:32.169|56=TRAX|10=230|8=FIX.4.4|9=60|35=0|34=968|49=QA3Ver4_APA|52=20180710-18:09:02.169|56=TRAX|10=229|8=FIX.4.4|9=60|35=0|34=969|49=QA3Ver4_APA|52=20180710-18:09:32.176|56=TRAX|10=231|8=FIX.4.4|9=60|35=0|34=970|49=QA3Ver4_APA|52=20180710-18:10:03.173|56=TRAX|10=210|8=FIX.4.4|9=60|35=0|34=971|49=QA3Ver4_APA|52=20180710-18:10:34.179|56=TRAX|10=221|8=FIX.4.4|9=60|35=0|34=972|49=QA3Ver4_APA|52=20180710-18:11:05.175|56=TRAX|10=217|8=FIX.4.4|9=60|35=0|34=973|49=QA3Ver4_APA|52=20180710-18:11:35.179|56=TRAX|10=225|8=FIX.4.4|9=60|35=0|34=974|49=QA3Ver4_APA|52=20180710-18:12:06.175|56=TRAX|10=221|8=FIX.4.4|9=60|35=0|34=975|49=QA3Ver4_APA|52=20180710-18:12:37.172|56=TRAX|10=223|8=FIX.4.4|9=60|35=0|34=976|49=QA3Ver4_APA|52=20180710-18:13:08.171|56=TRAX|10=222|8=FIX.4.4|9=60|35=0|34=977|49=QA3Ver4_APA|52=20180710-18:13:39.167|56=TRAX|10=232|8=FIX.4.4|9=60|35=0|34=978|49=QA3Ver4_APA|52=20180710-18:14:09.172|56=TRAX|10=227|8=FIX.4.4|9=60|35=0|34=979|49=QA3Ver4_APA|52=20180710-18:14:40.166|56=TRAX|10=226|8=FIX.4.4|9=60|35=0|34=980|49=QA3Ver4_APA|52=20180710-18:15:11.164|56=TRAX|10=215|8=FIX.4.4|9=60|35=0|34=981|49=QA3Ver4_APA|52=20180710-18:15:41.176|56=TRAX|10=222|8=FIX.4.4|9=60|35=0|34=982|49=QA3Ver4_APA|52=20180710-18:16:12.173|56=TRAX|10=219|8=FIX.4.4|9=60|35=0|34=983|49=QA3Ver4_APA|52=20180710-18:16:42.183|56=TRAX|10=224|8=FIX.4.4|9=60|35=0|34=984|49=QA3Ver4_APA|52=20180710-18:17:13.181|56=TRAX|10=222|8=FIX.4.4|9=60|35=0|34=985|49=QA3Ver4_APA|52=20180710-18:17:44.179|56=TRAX|10=234|8=FIX.4.4|9=60|35=0|34=986|49=QA3Ver4_APA|52=20180710-18:18:15.174|56=TRAX|10=229|8=FIX.4.4|9=60|35=0|34=987|49=QA3Ver4_APA|52=20180710-18:18:45.174|56=TRAX|10=233|8=FIX.4.4|9=60|35=0|34=988|49=QA3Ver4_APA|52=20180710-18:19:15.175|56=TRAX|10=233|8=FIX.4.4|9=60|35=0|34=989|49=QA3Ver4_APA|52=20180710-18:19:46.170|56=TRAX|10=233|8=FIX.4.4|9=60|35=0|34=990|49=QA3Ver4_APA|52=20180710-18:20:16.175|56=TRAX|10=219|8=FIX.4.4|9=60|35=0|34=991|49=QA3Ver4_APA|52=20180710-18:20:47.160|56=TRAX|10=218|8=FIX.4.4|9=60|35=0|34=992|49=QA3Ver4_APA|52=20180710-18:21:17.167|56=TRAX|10=224|8=FIX.4.4|9=60|35=0|34=993|49=QA3Ver4_APA|52=20180710-18:21:47.175|56=TRAX|10=227|8=FIX.4.4|9=60|35=0|34=994|49=QA3Ver4_APA|52=20180710-18:22:18.161|56=TRAX|10=222|8=FIX.4.4|9=60|35=0|34=995|49=QA3Ver4_APA|52=20180710-18:22:48.161|56=TRAX|10=226|8=FIX.4.4|9=60|35=0|34=996|49=QA3Ver4_APA|52=20180710-18:23:18.161|56=TRAX|10=225|8=FIX.4.4|9=60|35=0|34=997|49=QA3Ver4_APA|52=20180710-18:23:49.160|56=TRAX|10=229|8=FIX.4.4|9=60|35=0|34=998|49=QA3Ver4_APA|52=20180710-18:24:19.161|56=TRAX|10=229|8=FIX.4.4|9=60|35=0|34=999|49=QA3Ver4_APA|52=20180710-18:24:49.173|56=TRAX|10=236|8=FIX.4.4|9=61|35=0|34=1000|49=QA3Ver4_APA|52=20180710-18:25:20.160|56=TRAX|10=245|8=FIX.4.4|9=61|35=0|34=1001|49=QA3Ver4_APA|52=20180710-18:25:50.173|56=TRAX|10=253|8=FIX.4.4|9=61|35=0|34=1002|49=QA3Ver4_APA|52=20180710-18:26:21.160|56=TRAX|10=249|8=FIX.4.4|9=61|35=0|34=10