8=FIX.4.4|9=91|35=A|34=1|49=T1Kauaiblk5|52=20210203-10:46:15.672|56=MA|98=0|108=90|95=8|96=3.0.0rc5|141=Y|10=035|8=FIX.4.4|9=699|35=E|34=2|49=T1Kauaiblk5|52=20210203-10:46:19.757|56=MA|66=ListID-030221-1366|394=2|68=5|73=5|11=ClOrdID-1367|22=4|38=100000|44=100|48=US06051GEN51|54=1|55=[N/A/]|63=3|67=1|423=1|29726=100.25|453=1|448=T1Kauaiblk5|447=C|452=11|11=ClOrdID-1368|22=4|38=100000|44=101|48=US40434AAB52|54=1|55=[N/A]|63=3|67=2|29726=101.25|11=ClOrdID-1369|22=4|38=130000|44=102|48=US95709TAH32|54=1|55=[N/A/]|63=3|67=1|29726=102.25|453=1|448=T1Kauaiblk5|447=C|452=11|11=ClOrdID-1370|22=4|38=250000|44=103|48=US025676AH01|54=1|55=[N/A/]|63=3|67=1|29726=103.25|453=1|448=T1Kauaiblk5|447=C|452=11|11=ClOrdID-1371|22=4|38=350000|44=104|48=US29379VAW37|54=1|55=[N/A/]|63=3|67=1|29726=104.25|453=1|448=T1Kauaiblk5|447=C|452=11|10=126|8=FIX.4.4|9=56|35=5|34=3|49=T1Kauaiblk5|52=20210203-10:47:12.689|56=MA|10=074|8=FIX.4.4|9=91|35=A|34=1|49=T1Kauaiblk5|52=20210211-09:09:15.201|56=MA|98=0|108=90|95=8|96=3.0.0rc5|141=Y|10=029|8=FIX.4.4|9=699|35=E|34=2|49=T1Kauaiblk5|52=20210211-09:09:21.776|56=MA|66=ListID-110221-1258|394=2|68=5|73=5|11=ClOrdID-1259|22=4|38=100000|44=100|48=US06051GEN51|54=1|55=[N/A/]|63=3|67=1|423=1|29726=100.25|453=1|448=T1Kauaiblk5|447=C|452=11|11=ClOrdID-1260|22=4|38=100000|44=101|48=US40434AAB52|54=1|55=[N/A]|63=3|67=2|29726=101.25|11=ClOrdID-1261|22=4|38=130000|44=102|48=US95709TAH32|54=1|55=[N/A/]|63=3|67=1|29726=102.25|453=1|448=T1Kauaiblk5|447=C|452=11|11=ClOrdID-1262|22=4|38=250000|44=103|48=US427866AZ15|54=1|55=[N/A/]|63=3|67=1|29726=103.25|453=1|448=T1Kauaiblk5|447=C|452=11|11=ClOrdID-1263|22=4|38=350000|44=104|48=US29379VAW37|54=1|55=[N/A/]|63=3|67=1|29726=104.25|453=1|448=T1Kauaiblk5|447=C|452=11|10=137|8=FIX.4.4|9=56|35=0|34=3|49=T1Kauaiblk5|52=20210211-09:10:52.201|56=MA|10=050|8=FIX.4.4|9=56|35=0|34=4|49=T1Kauaiblk5|52=20210211-09:12:22.201|56=MA|10=050|8=FIX.4.4|9=56|35=0|34=5|49=T1Kauaiblk5|52=20210211-09:13:52.202|56=MA|10=056|8=FIX.4.4|9=56|35=0|34=6|49=T1Kauaiblk5|52=20210211-09:15:22.202|56=MA|10=056|8=FIX.4.4|9=56|35=0|34=7|49=T1Kauaiblk5|52=20210211-09:16:53.202|56=MA|10=062|8=FIX.4.4|9=56|35=0|34=8|49=T1Kauaiblk5|52=20210211-09:18:23.202|56=MA|10=062|8=FIX.4.4|9=56|35=0|34=9|49=T1Kauaiblk5|52=20210211-09:19:54.201|56=MA|10=067|8=FIX.4.4|9=57|35=0|34=10|49=T1Kauaiblk5|52=20210211-09:21:24.202|56=MA|10=099|8=FIX.4.4|9=57|35=0|34=11|49=T1Kauaiblk5|52=20210211-09:22:55.203|56=MA|10=106|8=FIX.4.4|9=57|35=0|34=12|49=T1Kauaiblk5|52=20210211-09:24:26.202|56=MA|10=106|8=FIX.4.4|9=57|35=0|34=13|49=T1Kauaiblk5|52=20210211-09:25:57.202|56=MA|10=112|8=FIX.4.4|9=57|35=0|34=14|49=T1Kauaiblk5|52=20210211-09:27:27.202|56=MA|10=112|8=FIX.4.4|9=57|35=0|34=15|49=T1Kauaiblk5|52=20210211-09:28:57.203|56=MA|10=118|8=FIX.4.4|9=57|35=0|34=16|49=T1Kauaiblk5|52=20210211-09:30:28.202|56=MA|10=109|8=FIX.4.4|9=57|35=0|34=17|49=T1Kauaiblk5|52=20210211-09:31:58.202|56=MA|10=114|8=FIX.4.4|9=57|35=0|34=18|49=T1Kauaiblk5|52=20210211-09:33:28.202|56=MA|10=114|8=FIX.4.4|9=57|35=0|34=19|49=T1Kauaiblk5|52=20210211-09:34:58.202|56=MA|10=119|8=FIX.4.4|9=57|35=0|34=20|49=T1Kauaiblk5|52=20210211-09:36:29.202|56=MA|10=111|8=FIX.4.4|9=57|35=0|34=21|49=T1Kauaiblk5|52=20210211-09:38:00.201|56=MA|10=102|8=FIX.4.4|9=57|35=0|34=22|49=T1Kauaiblk5|52=20210211-09:39:30.202|56=MA|10=108|8=FIX.4.4|9=57|35=0|34=23|49=T1Kauaiblk5|52=20210211-09:41:00.202|56=MA|10=099|8=FIX.4.4|9=57|35=0|34=24|49=T1Kauaiblk5|52=20210211-09:42:31.202|56=MA|10=105|8=FIX.4.4|9=57|35=0|34=25|49=T1Kauaiblk5|52=20210211-09:44:01.202|56=MA|10=105|8=FIX.4.4|9=57|35=0|34=26|49=T1Kauaiblk5|52=20210211-09:45:31.202|56=MA|10=110|8=FIX.4.4|9=57|35=0|34=27|49=T1Kauaiblk5|52=20210211-09:47:01.203|56=MA|10=111|8=FIX.4.4|9=57|35=0|34=28|49=T1Kauaiblk5|52=20210211-09:48:31.203|56=MA|10=116|8=FIX.4.4|9=57|35=0|34=29|49=T1Kauaiblk5|52=20210211-09:50:02.203|56=MA|10=108|8=FIX.4.4|9=57|35=0|34=30|49=T1Kauaiblk5|52=20210211-09:51:32.203|56=MA|10=104|8=FIX.4.4|9=57|35=0|34=31|49=T1Kauaiblk5|52=20210211-09:53:02.204|56=MA|10=105|8=FIX.4.4|9=57|35=0|34=32|49=T1Kauaiblk5|52=20210211-09:54:33.202|56=MA|10=109|8=FIX.4.4|9=57|35=0|34=33|49=T1Kauaiblk5|52=20210211-09:56:03.203|56=MA|10=110|8=FIX.4.4|9=57|35=0|34=34|49=T1Kauaiblk5|52=20210211-09:57:34.202|56=MA|10=115|8=FIX.4.4|9=57|35=0|34=35|49=T1Kauaiblk5|52=20210211-09:59:04.203|56=MA|10=116|8=FIX.4.4|9=57|35=0|34=36|49=T1Kauaiblk5|52=20210211-10:00:34.204|56=MA|10=099|8=FIX.4.4|9=57|35=0|34=37|49=T1Kauaiblk5|52=20210211-10:02:05.203|56=MA|10=099|8=FIX.4.4|9=57|35=0|34=38|49=T1Kauaiblk5|52=20210211-10:03:35.203|56=MA|10=104|8=FIX.4.4|9=57|35=0|34=39|49=T1Kauaiblk5|52=20210211-10:05:06.202|56=MA|10=104|8=FIX.4.4|9=57|35=0|34=40|49=T1Kauaiblk5|52=20210211-10:06:36.202|56=MA|10=100|8=FIX.4.4|9=57|35=0|34=41|49=T1Kauaiblk5|52=20210211-10:08:06.202|56=MA|10=100|8=FIX.4.4|9=57|35=0|34=42|49=T1Kauaiblk5|52=20210211-10:09:36.204|56=MA|10=107|8=FIX.4.4|9=57|35=0|34=43|49=T1Kauaiblk5|52=20210211-10:11:07.202|56=MA|10=097|8=FIX.4.4|9=57|35=0|34=44|49=T1Kauaiblk5|52=20210211-10:12:37.202|56=MA|10=102|8=FIX.4.4|9=57|35=0|34=45|49=T1Kauaiblk5|52=20210211-10:14:07.204|56=MA|10=104|8=FIX.4.4|9=57|35=0|34=46|49=T1Kauaiblk5|52=20210211-10:15:38.203|56=MA|10=109|8=FIX.4.4|9=57|35=0|34=47|49=T1Kauaiblk5|52=20210211-10:17:08.203|56=MA|10=109|8=FIX.4.4|9=57|35=0|34=48|49=T1Kauaiblk5|52=20210211-10:18:38.204|56=MA|10=115|8=FIX.4.4|9=57|35=0|34=49|49=T1Kauaiblk5|52=20210211-10:20:09.203|56=MA|10=106|8=FIX.4.4|9=57|35=0|34=50|49=T1Kauaiblk5|52=20210211-10:21:39.203|56=MA|10=102|8=FIX.4.4|9=57|35=0|34=51|49=T1Kauaiblk5|52=20210211-10:23:09.204|56=MA|10=103|8=FIX.4.4|9=57|35=0|34=52|49=T1Kauaiblk5|52=20210211-10:24:40.204|56=MA|10=100|8=FIX.4.4|9=57|35=0|34=53|49=T1Kauaiblk5|52=20210211-10:26:11.203|56=MA|10=100|8=FIX.4.4|9=57|35=0|34=54|49=T1Kauaiblk5|52=20210211-10:27:41.203|56=MA|10=105|8=FIX.4.4|9=57|35=0|34=55|49=T1Kauaiblk5|52=20210211-10:29:11.203|56=MA|10=105|8=FIX.4.4|9=57|35=0|34=56|49=T1Kauaiblk5|52=20210211-10:30:41.203|56=MA|10=101|8=FIX.4.4|9=57|35=0|34=57|49=T1Kauaiblk5|52=20210211-10:32:11.203|56=MA|10=101|8=FIX.4.4|9=57|35=0|34=58|49=T1Kauaiblk5|52=20210211-10:33:41.204|56=MA|10=107|8=FIX.4.4|9=57|35=0|34=59|49=T1Kauaiblk5|52=20210211-10:35:11.205|56=MA|10=108|8=FIX.4.4|9=57|35=0|34=60|49=T1Kauaiblk5|52=20210211-10:36:42.203|56=MA|10=103|8=FIX.4.4|9=57|35=0|34=61|49=T1Kauaiblk5|52=20210211-10:38:12.203|56=MA|10=103|8=FIX.4.4|9=57|35=0|34=62|49=T1Kauaiblk5|52=20210211-10:39:42.204|56=MA|10=109|8=FIX.4.4|9=57|35=0|34=63|49=T1Kauaiblk5|52=20210211-10:41:13.205|56=MA|10=102|8=FIX.4.4|9=57|35=0|34=64|49=T1Kauaiblk5|52=20210211-10:42:43.205|56=MA|10=107|8=FIX.4.4|9=57|35=0|34=65|49=T1Kauaiblk5|52=20210211-10:44:13.205|56=MA|10=107|8=FIX.4.4|9=57|35=0|34=66|49=T1Kauaiblk5|52=20210211-10:45:43.206|56=MA|10=113|8=FIX.4.4|9=57|35=0|34=67|49=T1Kauaiblk5|52=20210211-10:47:13.206|56=MA|10=113|8=FIX.4.4|9=57|35=0|34=68|49=T1Kauaiblk5|52=20210211-10:48:43.207|56=MA|10=119|8=FIX.4.4|9=57|35=0|34=69|49=T1Kauaiblk5|52=20210211-10:50:13.208|56=MA|10=111|8=FIX.4.4|9=57|35=0|34=70|49=T1Kauaiblk5|52=20210211-10:51:43.209|56=MA|10=108|8=FIX.4.4|9=57|35=0|34=71|49=T1Kauaiblk5|52=20210211-10:53:13.209|56=MA|10=108|8=FIX.4.4|9=57|35=0|34=72|49=T1Kauaiblk5|52=20210211-10:54:44.209|56=MA|10=114|8=FIX.4.4|9=57|35=0|34=73|49=T1Kauaiblk5|52=20210211-10:56:14.210|56=MA|10=106|8=FIX.4.4|9=57|35=0|34=74|49=T1Kauaiblk5|52=20210211-10:57:44.210|56=MA|10=111|8=FIX.4.4|9=57|35=0|34=75|49=T1Kauaiblk5|52=20210211-10:59:14.211|56=MA|10=112|8=FIX.4.4|9=57|35=0|34=76|49=T1Kauaiblk5|52=20210211-11:00:44.211|56=MA|10=103|8=FIX.4.4|9=57|35=0|34=77|49=T1Kauaiblk5|52=20210211-11:02:14.211|56=MA|10=103|8=FIX.4.4|9=57|35=0|34=78|49=T1Kauaiblk5|52=20210211-11:03:44.212|56=MA|10=109|8=FIX.4.4|9=57|35=0|34=79|49=T1Kauaiblk5|52=20210211-11:05:14.212|56=MA|10=109|8=FIX.4.4|9=57|35=0|34=80|49=T1Kauaiblk5|52=20210211-11:06:44.213|56=MA|10=106|8=FIX.4.4|9=57|35=0|34=81|49=T1Kauaiblk5|52=20210211-11:08:14.214|56=MA|10=107|8=FIX.4.4|9=57|35=0|34=82|49=T1Kauaiblk5|52=20210211-11:09:44.215|56=MA|10=113|8=FIX.4.4|9=57|35=0|34=83|49=T1Kauaiblk5|52=20210211-11:11:14.216|56=MA|10=105|8=FIX.4.4|9=57|35=0|34=84|49=T1Kauaiblk5|52=20210211-11:12:45.215|56=MA|10=110|8=FIX.4.4|9=57|35=0|34=85|49=T1Kauaiblk5|52=20210211-11:14:15.215|56=MA|10=110|8=FIX.4.4|9=57|35=0|34=86|49=T1Kauaiblk5|52=20210211-11:15:45.215|56=MA|10=115|8=FIX.4.4|9=57|35=0|34=87|49=T1Kauaiblk5|52=20210211-11:17:15.215|56=MA|10=115|8=FIX.4.4|9=57|35=0|34=88|49=T1Kauaiblk5|52=20210211-11:18:45.216|56=MA|10=121|8=FIX.4.4|9=57|35=0|34=89|49=T1Kauaiblk5|52=20210211-11:20:15.217|56=MA|10=113|8=FIX.4.4|9=57|35=0|34=90|49=T1Kauaiblk5|52=20210211-11:21:45.218|56=MA|10=110|8=FIX.4.4|9=91|35=A|34=1|49=T1Kauaiblk5|52=20210211-11:55:20.226|56=MA|98=0|108=90|95=8|96=3.0.0rc5|141=Y|10=026|8=FIX.4.4|9=91|35=A|34=1|49=T1Kauaiblk5|52=20210211-11:56:16.227|56=MA|98=0|108=90|95=8|96=3.0.0rc5|141=Y|10=033|8=FIX.4.4|9=718|35=E|34=2|49=T1Kauaiblk5|52=20210211-11:56:20.491|56=MA|66=ListID-B110222-1270|394=2|68=5|73=5|11=ClOrdID-1271|22=4|38=1000000|44=100.261|48=US06051GEN51|54=1|55=[N/A/]|63=3|67=1|423=1|29726=100.262|453=1|448=T1Kauaiblk5|447=C|452=11|11=ClOrdID-1272|22=4|38=2000000|44=101|48=US40434AAB52|54=1|55=[N/A]|63=3|67=2|29726=101.25|11=ClOrdID-1273|22=4|38=1300000|44=102.251|48=US95709TAH32|54=1|55=[N/A/]|63=3|67=1|29726=102.25|453=1|448=T1Kauaiblk5|447=C|452=11|11=ClOrdID-1274|22=4|38=250000|44=103.1|48=US427866AZ15|54=1|55=[N/A/]|63=3|67=1|29726=103.25|453=1|448=T1Kauaiblk5|447=C|452=11|11=ClOrdID-1275|22=4|38=350000|44=104.231|48=US29379VAW37|54=1|55=[N/A/]|63=3|67=1|29726=104.25|453=1|448=T1Kauaiblk5|447=C|452=11|10=044|8=FIX.4.4|9=718|35=E|34=3|49=T1Kauaiblk5|52=20210211-11:56:22.538|56=MA|66=ListID-S110221-1276|394=2|68=5|73=5|11=ClOrdID-1277|22=4|38=1000000|44=100.261|48=US06051GEN51|54=2|55=[N/A/]|63=3|67=1|423=1|29726=100.262|453=1|448=T1Kauaiblk5|447=C|452=11|11=ClOrdID-1278|22=4|38=2000000|44=101|48=US40434AAB52|54=2|55=[N/A]|63=3|67=2|29726=101.25|11=ClOrdID-1279|22=4|38=1300000|44=102.251|48=US95709TAH32|54=2|55=[N/A/]|63=3|67=1|29726=102.25|453=1|448=T1Kauaiblk5|447=C|452=11|11=ClOrdID-1280|22=4|38=250000|44=103.1|48=US427866AZ15|54=2|55=[N/A/]|63=3|67=1|29726=103.25|453=1|448=T1Kauaiblk5|447=C|452=11|11=ClOrdID-1281|22=4|38=350000|44=104.231|48=US29379VAW37|54=2|55=[N/A/]|63=3|67=1|29726=104.25|453=1|448=T1Kauaiblk5|447=C|452=11|10=088|8=FIX.4.4|9=718|35=E|34=4|49=T1Kauaiblk5|52=20210211-11:56:23.516|56=MA|66=ListID-B110222-1282|394=2|68=5|73=5|11=ClOrdID-1283|22=4|38=1000000|44=100.261|48=US06051GEN51|54=1|55=[N/A/]|63=3|67=1|423=1|29726=100.262|453=1|448=T1Kauaiblk5|447=C|452=11|11=ClOrdID-1284|22=4|38=2000000|44=101|48=US40434AAB52|54=1|55=[N/A]|63=3|67=2|29726=101.25|11=ClOrdID-1285|22=4|38=1300000|44=102.251|48=US95709TAH32|54=1|55=[N/A/]|63=3|67=1|29726=102.25|453=1|448=T1Kauaiblk5|447=C|452=11|11=ClOrdID-1286|22=4|38=250000|44=103.1|48=US427866AZ15|54=1|55=[N/A/]|63=3|67=1|29726=103.25|453=1|448=T1Kauaiblk5|447=C|452=11|11=ClOrdID-1287|22=4|38=350000|44=104.231|48=US29379VAW37|54=1|55=[N/A/]|63=3|67=1|29726=104.25|453=1|448=T1Kauaiblk5|447=C|452=11|10=065|8=FIX.4.4|9=718|35=E|34=5|49=T1Kauaiblk5|52=20210211-11:56:24.388|56=MA|66=ListID-S110221-1288|394=2|68=5|73=5|11=ClOrdID-1289|22=4|38=1000000|44=100.261|48=US06051GEN51|54=2|55=[N/A/]|63=3|67=1|423=1|29726=100.262|453=1|448=T1Kauaiblk5|447=C|452=11|11=ClOrdID-1290|22=4|38=2000000|44=101|48=US40434AAB52|54=2|55=[N/A]|63=3|67=2|29726=101.25|11=ClOrdID-1291|22=4|38=1300000|44=102.251|48=US95709TAH32|54=2|55=[N/A/]|63=3|67=1|29726=102.25|453=1|448=T1Kauaiblk5|447=C|452=11|11=ClOrdID-1292|22=4|38=250000|44=103.1|48=US427866AZ15|54=2|55=[N/A/]|63=3|67=1|29726=103.25|453=1|448=T1Kauaiblk5|447=C|452=11|11=ClOrdID-1293|22=4|38=350000|44=104.231|48=US29379VAW37|54=2|55=[N/A/]|63=3|67=1|29726=104.25|453=1|448=T1Kauaiblk5|447=C|452=11|10=095|8=FIX.4.4|9=56|35=0|34=6|49=T1Kauaiblk5|52=20210211-11:57:54.928|56=MA|10=075|8=FIX.4.4|9=56|35=0|34=7|49=T1Kauaiblk5|52=20210211-11:59:25.226|56=MA|10=067|8=FIX.4.4|9=56|35=0|34=8|49=T1Kauaiblk5|52=20210211-12:00:55.226|56=MA|10=058|8=FIX.4.4|9=56|35=0|34=9|49=T1Kauaiblk5|52=20210211-12:02:25.227|56=MA|10=059|8=FIX.4.4|9=57|35=5|34=10|49=T1Kauaiblk5|52=20210211-12:02:30.227|56=MA|10=101|