8=FIX.4.4|9=91|35=A|34=1|49=T1Kauaiblk1|52=20201126-16:49:19.778|56=MA|98=0|108=90|95=8|96=3.0.0rc5|141=Y|10=055|8=FIX.4.4|9=91|35=A|34=1|49=T1Kauaiblk1|52=20201126-16:49:39.754|56=MA|98=0|108=90|95=8|96=3.0.0rc5|141=Y|10=051|8=FIX.4.4|9=91|35=A|34=1|49=T1Kauaiblk1|52=20201126-18:05:29.533|56=MA|98=0|108=90|95=8|96=3.0.0rc5|141=Y|10=039|8=FIX.4.4|9=91|35=A|34=1|49=T1Kauaiblk1|52=20201126-19:58:49.575|56=MA|98=0|108=90|95=8|96=3.0.0rc5|141=Y|10=056|8=FIX.4.4|9=91|35=A|34=1|49=T1Kauaiblk1|52=20201127-08:10:43.864|56=MA|98=0|108=90|95=8|96=3.0.0rc5|141=Y|10=038|8=FIX.4.4|9=640|35=E|34=2|49=T1Kauaiblk1|52=20201127-08:11:04.500|56=MA|66=MMAD-FIX44-ListID-271120-1216|394=2|68=5|73=5|11=FIX44-List-ClOrdID-1217|22=4|38=100000|48=US06051GEN51|54=1|55=[N/A/]|67=1|423=1|453=1|448=T1Kauaiblk1|447=C|452=11|11=FIX44-List-ClOrdID-1218|22=4|38=100000|48=US40434AAB52|54=1|55=[N/A]|67=2|11=FIX44-List-ClOrdID-1219|22=4|38=130000|48=US06738JYZ10|54=1|55=[N/A/]|67=1|453=1|448=T1Kauaiblk1|447=C|452=11|11=FIX44-List-ClOrdID-1220|22=4|38=250000|48=US95709TAH32|54=1|55=[N/A/]|67=1|453=1|448=T1Kauaiblk1|447=C|452=11|11=FIX44-List-ClOrdID-1221|22=4|38=350000|48=US29379VAW37|54=1|55=[N/A/]|67=1|453=1|448=T1Kauaiblk1|447=C|452=11|10=001|8=FIX.4.4|9=56|35=0|34=3|49=T1Kauaiblk1|52=20201127-08:12:34.863|56=MA|10=067|8=FIX.4.4|9=56|35=0|34=4|49=T1Kauaiblk1|52=20201127-08:14:04.864|56=MA|10=068|8=FIX.4.4|9=56|35=0|34=5|49=T1Kauaiblk1|52=20201127-08:15:34.865|56=MA|10=074|8=FIX.4.4|9=56|35=0|34=6|49=T1Kauaiblk1|52=20201127-08:17:05.865|56=MA|10=075|8=FIX.4.4|9=56|35=0|34=7|49=T1Kauaiblk1|52=20201127-08:18:36.864|56=MA|10=080|8=FIX.4.4|9=191|35=D|34=8|49=T1Kauaiblk1|52=20201127-08:19:19.254|56=MA|11=MMADJB271120-1222|453=1|448=T1Kauaiblk1|447=C|452=11|55=NA|48=US40434AAB52|22=4|54=2|60=20201127-08:19:19.254|38=1000000|40=1|423=1|10=042|8=FIX.4.4|9=56|35=0|34=9|49=T1Kauaiblk1|52=20201127-08:20:49.865|56=MA|10=080|8=FIX.4.4|9=57|35=0|34=10|49=T1Kauaiblk1|52=20201127-08:22:19.865|56=MA|10=120|8=FIX.4.4|9=57|35=0|34=11|49=T1Kauaiblk1|52=20201127-08:23:49.866|56=MA|10=126|8=FIX.4.4|9=57|35=0|34=12|49=T1Kauaiblk1|52=20201127-08:25:20.865|56=MA|10=117|8=FIX.4.4|9=57|35=0|34=13|49=T1Kauaiblk1|52=20201127-08:26:50.866|56=MA|10=123|8=FIX.4.4|9=57|35=0|34=14|49=T1Kauaiblk1|52=20201127-08:28:20.866|56=MA|10=123|8=FIX.4.4|9=57|35=0|34=15|49=T1Kauaiblk1|52=20201127-08:29:50.866|56=MA|10=128|8=FIX.4.4|9=57|35=0|34=16|49=T1Kauaiblk1|52=20201127-08:31:20.866|56=MA|10=119|8=FIX.4.4|9=57|35=0|34=17|49=T1Kauaiblk1|52=20201127-08:32:50.867|56=MA|10=125|8=FIX.4.4|9=57|35=0|34=18|49=T1Kauaiblk1|52=20201127-08:34:20.868|56=MA|10=126|8=FIX.4.4|9=57|35=0|34=19|49=T1Kauaiblk1|52=20201127-08:35:51.868|56=MA|10=132|8=FIX.4.4|9=57|35=0|34=20|49=T1Kauaiblk1|52=20201127-08:37:22.868|56=MA|10=124|8=FIX.4.4|9=57|35=0|34=21|49=T1Kauaiblk1|52=20201127-08:38:53.867|56=MA|10=129|8=FIX.4.4|9=641|35=E|34=22|49=T1Kauaiblk1|52=20201127-08:40:05.897|56=MA|66=MMAD-FIX44-ListID-271120-1229|394=2|68=5|73=5|11=FIX44-List-ClOrdID-1230|22=4|38=100000|48=US06051GEN51|54=1|55=[N/A/]|67=1|423=1|453=1|448=T1Kauaiblk1|447=C|452=11|11=FIX44-List-ClOrdID-1231|22=4|38=100000|48=US40434AAB52|54=1|55=[N/A]|67=2|11=FIX44-List-ClOrdID-1232|22=4|38=130000|48=US06738JYZ10|54=1|55=[N/A/]|67=1|453=1|448=T1Kauaiblk1|447=C|452=11|11=FIX44-List-ClOrdID-1233|22=4|38=250000|48=US95709TAH32|54=1|55=[N/A/]|67=1|453=1|448=T1Kauaiblk1|447=C|452=11|11=FIX44-List-ClOrdID-1234|22=4|38=350000|48=US29379VAW37|54=1|55=[N/A/]|67=1|453=1|448=T1Kauaiblk1|447=C|452=11|10=071|8=FIX.4.4|9=57|35=0|34=23|49=T1Kauaiblk1|52=20201127-08:41:36.868|56=MA|10=127|8=FIX.4.4|9=57|35=0|34=24|49=T1Kauaiblk1|52=20201127-08:43:06.869|56=MA|10=128|8=FIX.4.4|9=57|35=0|34=25|49=T1Kauaiblk1|52=20201127-08:44:37.113|56=MA|10=116|8=FIX.4.4|9=57|35=0|34=26|49=T1Kauaiblk1|52=20201127-08:46:07.144|56=MA|10=120|8=FIX.4.4|9=57|35=0|34=27|49=T1Kauaiblk1|52=20201127-08:47:37.172|56=MA|10=126|8=FIX.4.4|9=641|35=E|34=28|49=T1Kauaiblk1|52=20201127-08:48:08.261|56=MA|66=MMAD-FIX44-ListID-271120-1235|394=2|68=5|73=5|11=FIX44-List-ClOrdID-1236|22=4|38=100000|48=US06051GEN51|54=1|55=[N/A/]|67=1|423=1|453=1|448=T1Kauaiblk1|447=C|452=11|11=FIX44-List-ClOrdID-1237|22=4|38=100000|48=US40434AAB52|54=1|55=[N/A]|67=2|11=FIX44-List-ClOrdID-1238|22=4|38=130000|48=US06738JYZ10|54=1|55=[N/A/]|67=1|453=1|448=T1Kauaiblk1|447=C|452=11|11=FIX44-List-ClOrdID-1239|22=4|38=250000|48=US95709TAH32|54=1|55=[N/A/]|67=1|453=1|448=T1Kauaiblk1|447=C|452=11|11=FIX44-List-ClOrdID-1240|22=4|38=350000|48=US29379VAW37|54=1|55=[N/A/]|67=1|453=1|448=T1Kauaiblk1|447=C|452=11|10=091|8=FIX.4.4|9=57|35=0|34=29|49=T1Kauaiblk1|52=20201127-08:49:38.869|56=MA|10=144|8=FIX.4.4|9=57|35=0|34=30|49=T1Kauaiblk1|52=20201127-08:51:08.869|56=MA|10=126|8=FIX.4.4|9=57|35=0|34=31|49=T1Kauaiblk1|52=20201127-08:52:38.869|56=MA|10=131|8=FIX.4.4|9=57|35=0|34=32|49=T1Kauaiblk1|52=20201127-08:54:08.869|56=MA|10=131|8=FIX.4.4|9=57|35=0|34=33|49=T1Kauaiblk1|52=20201127-08:55:38.870|56=MA|10=128|8=FIX.4.4|9=57|35=0|34=34|49=T1Kauaiblk1|52=20201127-08:57:08.870|56=MA|10=128|8=FIX.4.4|9=57|35=0|34=35|49=T1Kauaiblk1|52=20201127-08:58:39.871|56=MA|10=135|8=FIX.4.4|9=57|35=0|34=36|49=T1Kauaiblk1|52=20201127-09:00:10.870|56=MA|10=112|8=FIX.4.4|9=57|35=0|34=37|49=T1Kauaiblk1|52=20201127-09:01:40.870|56=MA|10=117|8=FIX.4.4|9=57|35=0|34=38|49=T1Kauaiblk1|52=20201127-09:03:10.871|56=MA|10=118|8=FIX.4.4|9=57|35=0|34=39|49=T1Kauaiblk1|52=20201127-09:04:40.872|56=MA|10=124|8=FIX.4.4|9=57|35=0|34=40|49=T1Kauaiblk1|52=20201127-09:06:10.872|56=MA|10=115|8=FIX.4.4|9=57|35=0|34=41|49=T1Kauaiblk1|52=20201127-09:07:40.872|56=MA|10=120|8=FIX.4.4|9=57|35=0|34=42|49=T1Kauaiblk1|52=20201127-09:09:11.871|56=MA|10=120|8=FIX.4.4|9=57|35=0|34=43|49=T1Kauaiblk1|52=20201127-09:10:41.871|56=MA|10=116|8=FIX.4.4|9=57|35=0|34=44|49=T1Kauaiblk1|52=20201127-09:12:11.873|56=MA|10=118|8=FIX.4.4|9=57|35=0|34=45|49=T1Kauaiblk1|52=20201127-09:13:42.873|56=MA|10=124|8=FIX.4.4|9=57|35=0|34=46|49=T1Kauaiblk1|52=20201127-09:15:13.873|56=MA|10=125|8=FIX.4.4|9=57|35=0|34=47|49=T1Kauaiblk1|52=20201127-09:16:43.873|56=MA|10=130|8=FIX.4.4|9=57|35=0|34=48|49=T1Kauaiblk1|52=20201127-09:18:14.872|56=MA|10=130|8=FIX.4.4|9=57|35=0|34=49|49=T1Kauaiblk1|52=20201127-09:19:44.872|56=MA|10=135|8=FIX.4.4|9=57|35=0|34=50|49=T1Kauaiblk1|52=20201127-09:21:14.873|56=MA|10=118|8=FIX.4.4|9=57|35=0|34=51|49=T1Kauaiblk1|52=20201127-09:22:44.873|56=MA|10=123|8=FIX.4.4|9=57|35=0|34=52|49=T1Kauaiblk1|52=20201127-09:24:14.874|56=MA|10=124|8=FIX.4.4|9=57|35=0|34=53|49=T1Kauaiblk1|52=20201127-09:25:45.873|56=MA|10=129|8=FIX.4.4|9=57|35=0|34=54|49=T1Kauaiblk1|52=20201127-09:27:15.873|56=MA|10=129|8=FIX.4.4|9=57|35=0|34=55|49=T1Kauaiblk1|52=20201127-09:28:45.873|56=MA|10=134|8=FIX.4.4|9=57|35=0|34=56|49=T1Kauaiblk1|52=20201127-09:30:15.874|56=MA|10=126|8=FIX.4.4|9=57|35=0|34=57|49=T1Kauaiblk1|52=20201127-09:31:45.874|56=MA|10=131|8=FIX.4.4|9=57|35=0|34=58|49=T1Kauaiblk1|52=20201127-09:33:15.874|56=MA|10=131|8=FIX.4.4|9=57|35=0|34=59|49=T1Kauaiblk1|52=20201127-09:34:45.874|56=MA|10=136|8=FIX.4.4|9=57|35=0|34=60|49=T1Kauaiblk1|52=20201127-09:36:15.874|56=MA|10=127|8=FIX.4.4|9=57|35=0|34=61|49=T1Kauaiblk1|52=20201127-09:37:45.874|56=MA|10=132|8=FIX.4.4|9=57|35=0|34=62|49=T1Kauaiblk1|52=20201127-09:39:15.875|56=MA|10=133|8=FIX.4.4|9=57|35=0|34=63|49=T1Kauaiblk1|52=20201127-09:40:45.875|56=MA|10=129|8=FIX.4.4|9=57|35=0|34=64|49=T1Kauaiblk1|52=20201127-09:42:15.875|56=MA|10=129|8=FIX.4.4|9=57|35=0|34=65|49=T1Kauaiblk1|52=20201127-09:43:45.877|56=MA|10=136|8=FIX.4.4|9=57|35=0|34=66|49=T1Kauaiblk1|52=20201127-09:45:16.876|56=MA|10=136|8=FIX.4.4|9=57|35=0|34=67|49=T1Kauaiblk1|52=20201127-09:46:47.877|56=MA|10=143|8=FIX.4.4|9=57|35=0|34=68|49=T1Kauaiblk1|52=20201127-09:48:18.876|56=MA|10=143|8=FIX.4.4|9=57|35=0|34=69|49=T1Kauaiblk1|52=20201127-09:49:48.876|56=MA|10=148|8=FIX.4.4|9=57|35=0|34=70|49=T1Kauaiblk1|52=20201127-09:51:18.876|56=MA|10=130|8=FIX.4.4|9=57|35=0|34=71|49=T1Kauaiblk1|52=20201127-09:52:48.876|56=MA|10=135|8=FIX.4.4|9=57|35=0|34=72|49=T1Kauaiblk1|52=20201127-09:54:18.876|56=MA|10=135|8=FIX.4.4|9=641|35=E|34=73|49=T1Kauaiblk1|52=20201127-09:55:35.584|56=MA|66=MMAD-FIX44-ListID-271120-1241|394=2|68=5|73=5|11=FIX44-List-ClOrdID-1242|22=4|38=100000|48=US06051GEN51|54=1|55=[N/A/]|67=1|423=1|453=1|448=T1Kauaiblk1|447=C|452=11|11=FIX44-List-ClOrdID-1243|22=4|38=100000|48=US40434AAB52|54=1|55=[N/A]|67=2|11=FIX44-List-ClOrdID-1244|22=4|38=130000|48=US06738JYZ10|54=1|55=[N/A/]|67=1|453=1|448=T1Kauaiblk1|447=C|452=11|11=FIX44-List-ClOrdID-1245|22=4|38=250000|48=US95709TAH32|54=1|55=[N/A/]|67=1|453=1|448=T1Kauaiblk1|447=C|452=11|11=FIX44-List-ClOrdID-1246|22=4|38=350000|48=US29379VAW37|54=1|55=[N/A/]|67=1|453=1|448=T1Kauaiblk1|447=C|452=11|10=089|8=FIX.4.4|9=57|35=0|34=74|49=T1Kauaiblk1|52=20201127-09:57:05.877|56=MA|10=137|8=FIX.4.4|9=57|35=0|34=75|49=T1Kauaiblk1|52=20201127-09:58:35.878|56=MA|10=143|8=FIX.4.4|9=57|35=0|34=76|49=T1Kauaiblk1|52=20201127-10:00:05.878|56=MA|10=120|8=FIX.4.4|9=57|35=0|34=77|49=T1Kauaiblk1|52=20201127-10:01:35.879|56=MA|10=126|8=FIX.4.4|9=57|35=0|34=78|49=T1Kauaiblk1|52=20201127-10:03:06.877|56=MA|10=125|8=FIX.4.4|9=57|35=0|34=79|49=T1Kauaiblk1|52=20201127-10:04:36.878|56=MA|10=131|8=FIX.4.4|9=57|35=0|34=80|49=T1Kauaiblk1|52=20201127-10:06:06.878|56=MA|10=122|8=FIX.4.4|9=57|35=0|34=81|49=T1Kauaiblk1|52=20201127-10:07:36.878|56=MA|10=127|8=FIX.4.4|9=57|35=0|34=82|49=T1Kauaiblk1|52=20201127-10:09:06.878|56=MA|10=127|8=FIX.4.4|9=57|35=0|34=83|49=T1Kauaiblk1|52=20201127-10:10:36.880|56=MA|10=116|8=FIX.4.4|9=57|35=0|34=84|49=T1Kauaiblk1|52=20201127-10:12:07.880|56=MA|10=117|8=FIX.4.4|9=57|35=0|34=85|49=T1Kauaiblk1|52=20201127-10:13:38.879|56=MA|10=131|8=FIX.4.4|9=57|35=0|34=86|49=T1Kauaiblk1|52=20201127-10:15:09.880|56=MA|10=124|8=FIX.4.4|9=57|35=0|34=87|49=T1Kauaiblk1|52=20201127-10:16:39.881|56=MA|10=130|8=FIX.4.4|9=57|35=0|34=88|49=T1Kauaiblk1|52=20201127-10:18:10.879|56=MA|10=129|8=FIX.4.4|9=57|35=0|34=89|49=T1Kauaiblk1|52=20201127-10:19:40.883|56=MA|10=129|8=FIX.4.4|9=57|35=0|34=90|49=T1Kauaiblk1|52=20201127-10:21:10.884|56=MA|10=112|8=FIX.4.4|9=57|35=0|34=91|49=T1Kauaiblk1|52=20201127-10:22:40.888|56=MA|10=121|8=FIX.4.4|9=57|35=0|34=92|49=T1Kauaiblk1|52=20201127-10:24:10.888|56=MA|10=121|8=FIX.4.4|9=57|35=0|34=93|49=T1Kauaiblk1|52=20201127-10:25:40.890|56=MA|10=119|8=FIX.4.4|9=57|35=0|34=94|49=T1Kauaiblk1|52=20201127-10:27:10.892|56=MA|10=121|8=FIX.4.4|9=57|35=0|34=95|49=T1Kauaiblk1|52=20201127-10:28:40.894|56=MA|10=128|8=FIX.4.4|9=57|35=0|34=96|49=T1Kauaiblk1|52=20201127-10:30:10.897|56=MA|10=122|8=FIX.4.4|9=57|35=0|34=97|49=T1Kauaiblk1|52=20201127-10:31:40.898|56=MA|10=128|8=FIX.4.4|9=57|35=0|34=98|49=T1Kauaiblk1|52=20201127-10:33:10.901|56=MA|10=113|8=FIX.4.4|9=57|35=0|34=99|49=T1Kauaiblk1|52=20201127-10:34:40.902|56=MA|10=119|8=FIX.4.4|9=58|35=0|34=100|49=T1Kauaiblk1|52=20201127-10:36:10.904|56=MA|10=152|8=FIX.4.4|9=58|35=0|34=101|49=T1Kauaiblk1|52=20201127-10:37:40.907|56=MA|10=160|8=FIX.4.4|9=58|35=0|34=102|49=T1Kauaiblk1|52=20201127-10:39:10.909|56=MA|10=162|8=FIX.4.4|9=58|35=0|34=103|49=T1Kauaiblk1|52=20201127-10:40:40.911|56=MA|10=151|8=FIX.4.4|9=58|35=0|34=104|49=T1Kauaiblk1|52=20201127-10:42:10.913|56=MA|10=153|8=FIX.4.4|9=58|35=0|34=105|49=T1Kauaiblk1|52=20201127-10:43:40.915|56=MA|10=160|8=FIX.4.4|9=58|35=0|34=106|49=T1Kauaiblk1|52=20201127-10:45:10.917|56=MA|10=162|8=FIX.4.4|9=58|35=0|34=107|49=T1Kauaiblk1|52=20201127-10:46:40.918|56=MA|10=168|8=FIX.4.4|9=58|35=0|34=108|49=T1Kauaiblk1|52=20201127-10:48:10.919|56=MA|10=169|8=FIX.4.4|9=58|35=0|34=109|49=T1Kauaiblk1|52=20201127-10:49:40.921|56=MA|10=167|8=FIX.4.4|9=58|35=0|34=110|49=T1Kauaiblk1|52=20201127-10:51:10.923|56=MA|10=151|8=FIX.4.4|9=58|35=0|34=111|49=T1Kauaiblk1|52=20201127-10:52:40.925|56=MA|10=158|8=FIX.4.4|9=58|35=0|34=112|49=T1Kauaiblk1|52=20201127-10:54:10.926|56=MA|10=159|8=FIX.4.4|9=58|35=0|34=113|49=T1Kauaiblk1|52=20201127-10:55:40.929|56=MA|10=167|8=FIX.4.4|9=58|35=0|34=114|49=T1Kauaiblk1|52=20201127-10:57:10.929|56=MA|10=167|8=FIX.4.4|9=58|35=0|34=115|49=T1Kauaiblk1|52=20201127-10:58:40.931|56=MA|10=165|8=FIX.4.4|9=58|35=0|34=116|49=T1Kauaiblk1|52=20201127-11:00:10.934|56=MA|10=154|8=FIX.4.4|9=58|35=0|34=117|49=T1Kauaiblk1|52=20201127-11:01:40.935|56=MA|10=160|8=FIX.4.4|9=58|35=0|34=118|49=T1Kauaiblk1|52=20201127-11:03:10.936|56=MA|10=161|8=FIX.4.4|9=58|35=0|34=119|49=T1Kauaiblk1|52=20201127-11:04:40.939|56=MA|10=169|8=FIX.4.4|9=58|35=0|34=120|49=T1Kauaiblk1|52=20201127-11:06:10.940|56=MA|10=152|8=FIX.4.4|9=642|35=E|34=121|49=T1Kauaiblk1|52=20201127-11:06:53.950|56=MA|66=MMAD-FIX44-ListID-271120-1247|394=2|68=5|73=5|11=FIX44-List-ClOrdID-1248|22=4|38=100000|48=US06051GEN51|54=1|55=[N/A/]|67=1|423=1|453=1|448=T1Kauaiblk1|447=C|452=11|11=FIX44-List-ClOrdID-1249|22=4|38=100000|48=US40434AAB52|54=1|55=[N/A]|67=2|11=FIX44-List-ClOrdID-1250|22=4|38=130000|48=US06738JYZ10|54=1|55=[N/A/]|67=1|453=1|448=T1Kauaiblk1|447=C|452=11|11=FIX44-List-ClOrdID-1251|22=4|38=250000|48=US95709TAH32|54=1|55=[N/A/]|67=1|453=1|448=T1Kauaiblk1|447=C|452=11|11=FIX44-List-ClOrdID-1252|22=4|38=350000|48=US29379VAW37|54=1|55=[N/A/]|67=1|453=1|448=T1Kauaiblk1|447=C|452=11|10=127|8=FIX.4.4|9=58|35=0|34=122|49=T1Kauaiblk1|52=20201127-11:08:24.943|56=MA|10=164|8=FIX.4.4|9=58|35=0|34=123|49=T1Kauaiblk1|52=20201127-11:09:54.943|56=MA|10=169|8=FIX.4.4|9=58|35=0|34=124|49=T1Kauaiblk1|52=20201127-11:11:24.944|56=MA|10=161|8=FIX.4.4|9=58|35=0|34=125|49=T1Kauaiblk1|52=20201127-11:12:54.946|56=MA|10=168|8=FIX.4.4|9=58|35=0|34=126|49=T1Kauaiblk1|52=20201127-11:14:24.948|56=MA|10=170|8=FIX.4.4|9=58|35=0|34=127|49=T1Kauaiblk1|52=20201127-11:15:54.950|56=MA|10=168|8=FIX.4.4|9=58|35=0|34=128|49=T1Kauaiblk1|52=20201127-11:17:24.951|56=MA|10=169|8=FIX.4.4|9=58|35=0|34=129|49=T1Kauaiblk1|52=20201127-11:18:54.952|56=MA|10=175|8=FIX.4.4|9=58|35=0|34=130|49=T1Kauaiblk1|52=20201127-11:20:24.953|56=MA|10=158|8=FIX.4.4|9=58|35=0|34=131|49=T1Kauaiblk1|52=20201127-11:21:54.955|56=MA|10=165|8=FIX.4.4|9=58|35=0|34=132|49=T1Kauaiblk1|52=20201127-11:23:24.958|56=MA|10=168|8=FIX.4.4|9=58|35=0|34=133|49=T1Kauaiblk1|52=20201127-11:24:54.958|56=MA|10=173|8=FIX.4.4|9=58|35=0|34=134|49=T1Kauaiblk1|52=20201127-11:26:24.959|56=MA|10=174|8=FIX.4.4|9=58|35=0|34=135|49=T1Kauaiblk1|52=20201127-11:27:54.960|56=MA|10=171|8=FIX.4.4|9=58|35=0|34=136|49=T1Kauaiblk1|52=20201127-11:29:24.963|56=MA|10=174|8=FIX.4.4|9=58|35=0|34=137|49=T1Kauaiblk1|52=20201127-11:30:54.964|56=MA|10=171|8=FIX.4.4|9=58|35=0|34=138|49=T1Kauaiblk1|52=20201127-11:32:24.964|56=MA|10=171|8=FIX.4.4|9=58|35=0|34=139|49=T1Kauaiblk1|52=20201127-11:33:54.967|56=MA|10=179|8=FIX.4.4|9=58|35=0|34=140|49=T1Kauaiblk1|52=20201127-11:35:24.967|56=MA|10=170|8=FIX.4.4|9=58|35=0|34=141|49=T1Kauaiblk1|52=20201127-11:36:54.970|56=MA|10=169|8=FIX.4.4|9=58|35=0|34=142|49=T1Kauaiblk1|52=20201127-11:38:24.970|56=MA|10=169|8=FIX.4.4|9=58|35=0|34=143|49=T1Kauaiblk1|52=20201127-11:39:54.972|56=MA|10=176|8=FIX.4.4|9=58|35=0|34=144|49=T1Kauaiblk1|52=20201127-11:41:24.973|56=MA|10=168|8=FIX.4.4|9=58|35=0|34=145|49=T1Kauaiblk1|52=20201127-11:42:54.973|56=MA|10=173|8=FIX.4.4|9=58|35=0|34=146|49=T1Kauaiblk1|52=20201127-11:44:24.974|56=MA|10=174|8=FIX.4.4|9=58|35=0|34=147|49=T1Kauaiblk1|52=20201127-11:45:54.976|56=MA|10=181|8=FIX.4.4|9=58|35=0|34=148|49=T1Kauaiblk1|52=20201127-11:47:24.977|56=MA|10=182|8=FIX.4.4|9=58|35=0|34=149|49=T1Kauaiblk1|52=20201127-11:48:54.978|56=MA|10=188|8=FIX.4.4|9=58|35=0|34=150|49=T1Kauaiblk1|52=20201127-11:50:24.979|56=MA|10=171|8=FIX.4.4|9=58|35=0|34=151|49=T1Kauaiblk1|52=20201127-11:51:54.980|56=MA|10=168|8=FIX.4.4|9=58|35=0|34=152|49=T1Kauaiblk1|52=20201127-11:53:24.981|56=MA|10=169|8=FIX.4.4|9=58|35=0|34=153|49=T1Kauaiblk1|52=20201127-11:54:54.983|56=MA|10=176|8=FIX.4.4|9=58|35=0|34=154|49=T1Kauaiblk1|52=20201127-11:56:24.985|56=MA|10=178|8=FIX.4.4|9=58|35=0|34=155|49=T1Kauaiblk1|52=20201127-11:57:54.986|56=MA|10=184|8=FIX.4.4|9=58|35=0|34=156|49=T1Kauaiblk1|52=20201127-11:59:24.987|56=MA|10=185|8=FIX.4.4|9=58|35=0|34=157|49=T1Kauaiblk1|52=20201127-12:00:54.989|56=MA|10=178|8=FIX.4.4|9=58|35=0|34=158|49=T1Kauaiblk1|52=20201127-12:02:25.989|56=MA|10=179|8=FIX.4.4|9=58|35=0|34=159|49=T1Kauaiblk1|52=20201127-12:03:55.990|56=MA|10=176|8=FIX.4.4|9=58|35=0|34=160|49=T1Kauaiblk1|52=20201127-12:05:25.990|56=MA|10=167|8=FIX.4.4|9=58|35=0|34=161|49=T1Kauaiblk1|52=20201127-12:06:55.992|56=MA|10=174|8=FIX.4.4|9=58|35=0|34=162|49=T1Kauaiblk1|52=20201127-12:08:25.993|56=MA|10=175|8=FIX.4.4|9=58|35=0|34=163|49=T1Kauaiblk1|52=20201127-12:09:55.994|56=MA|10=181|8=FIX.4.4|9=58|35=0|34=164|49=T1Kauaiblk1|52=20201127-12:11:25.995|56=MA|10=173|8=FIX.4.4|9=58|35=0|34=165|49=T1Kauaiblk1|52=20201127-12:12:55.996|56=MA|10=179|8=FIX.4.4|9=58|35=0|34=166|49=T1Kauaiblk1|52=20201127-12:14:25.997|56=MA|10=180|8=FIX.4.4|9=58|35=0|34=167|49=T1Kauaiblk1|52=20201127-12:15:55.998|56=MA|10=186|8=FIX.4.4|9=58|35=0|34=168|49=T1Kauaiblk1|52=20201127-12:17:26.000|56=MA|10=161|8=FIX.4.4|9=58|35=0|34=169|49=T1Kauaiblk1|52=20201127-12:18:56.000|56=MA|10=166|8=FIX.4.4|9=58|35=0|34=170|49=T1Kauaiblk1|52=20201127-12:20:26.001|56=MA|10=149|8=FIX.4.4|9=58|35=0|34=171|49=T1Kauaiblk1|52=20201127-12:21:56.002|56=MA|10=155|8=FIX.4.4|9=58|35=0|34=172|49=T1Kauaiblk1|52=20201127-12:23:26.003|56=MA|10=156|8=FIX.4.4|9=58|35=0|34=173|49=T1Kauaiblk1|52=20201127-12:24:56.003|56=MA|10=161|8=FIX.4.4|9=58|35=0|34=174|49=T1Kauaiblk1|52=20201127-12:26:26.004|56=MA|10=162|8=FIX.4.4|9=58|35=0|34=175|49=T1Kauaiblk1|52=20201127-12:27:56.006|56=MA|10=169|8=FIX.4.4|9=58|35=0|34=176|49=T1Kauaiblk1|52=20201127-12:29:26.007|56=MA|10=170|8=FIX.4.4|9=58|35=0|34=177|49=T1Kauaiblk1|52=20201127-12:30:56.007|56=MA|10=166|8=FIX.4.4|9=58|35=0|34=178|49=T1Kauaiblk1|52=20201127-12:32:26.009|56=MA|10=168|8=FIX.4.4|9=58|35=0|34=179|49=T1Kauaiblk1|52=20201127-12:33:56.009|56=MA|10=173|8=FIX.4.4|9=58|35=0|34=180|49=T1Kauaiblk1|52=20201127-12:35:26.010|56=MA|10=156|8=FIX.4.4|9=58|35=0|34=181|49=T1Kauaiblk1|52=20201127-12:36:56.010|56=MA|10=161|8=FIX.4.4|9=58|35=0|34=182|49=T1Kauaiblk1|52=20201127-12:38:26.011|56=MA|10=162|8=FIX.4.4|9=58|35=0|34=183|49=T1Kauaiblk1|52=20201127-12:39:56.012|56=MA|10=168|8=FIX.4.4|9=58|35=0|34=184|49=T1Kauaiblk1|52=20201127-12:41:26.013|56=MA|10=160|8=FIX.4.4|9=58|35=0|34=185|49=T1Kauaiblk1|52=20201127-12:42:56.014|56=MA|10=166|8=FIX.4.4|9=58|35=0|34=186|49=T1Kauaiblk1|52=20201127-12:44:26.015|56=MA|10=167|8=FIX.4.4|9=58|35=0|34=187|49=T1Kauaiblk1|52=20201127-12:45:56.016|56=MA|10=173|8=FIX.4.4|9=58|35=0|34=188|49=T1Kauaiblk1|52=20201127-12:47:26.018|56=MA|10=175|8=FIX.4.4|9=58|35=0|34=189|49=T1Kauaiblk1|52=20201127-12:48:56.018|56=MA|10=180|8=FIX.4.4|9=58|35=0|34=190|49=T1Kauaiblk1|52=20201127-12:50:26.020|56=MA|10=155|8=FIX.4.4|9=58|35=0|34=191|49=T1Kauaiblk1|52=20201127-12:51:56.020|56=MA|10=160|8=FIX.4.4|9=58|35=0|34=192|49=T1Kauaiblk1|52=20201127-12:53:26.020|56=MA|10=160|8=FIX.4.4|9=58|35=0|34=193|49=T1Kauaiblk1|52=20201127-12:54:56.020|56=MA|10=165|8=FIX.4.4|9=58|35=0|34=194|49=T1Kauaiblk1|52=20201127-12:56:26.022|56=MA|10=167|8=FIX.4.4|9=58|35=0|34=195|49=T1Kauaiblk1|52=20201127-12:57:56.022|56=MA|10=172|8=FIX.4.4|9=58|35=0|34=196|49=T1Kauaiblk1|52=20201127-12:59:26.024|56=MA|10=174|8=FIX.4.4|9=58|35=0|34=197|49=T1Kauaiblk1|52=20201127-13:00:56.024|56=MA|10=165|8=FIX.4.4|9=58|35=0|34=198|49=T1Kauaiblk1|52=20201127-13:02:26.024|56=MA|10=165|8=FIX.4.4|9=58|35=0|34=199|49=T1Kauaiblk1|52=20201127-13:03:56.025|56=MA|10=171|8=FIX.4.4|9=58|35=0|34=200|49=T1Kauaiblk1|52=20201127-13:05:26.025|56=MA|10=153|8=FIX.4.4|9=58|35=0|34=201|49=T1Kauaiblk1|52=20201127-13:06:56.027|56=MA|10=160|8=FIX.4.4|9=58|35=0|34=202|49=T1Kauaiblk1|52=20201127-13:08:26.028|56=MA|10=161|8=FIX.4.4|9=58|35=0|34=203|49=T1Kauaiblk1|52=20201127-13:09:56.029|56=MA|10=167|8=FIX.4.4|9=58|35=0|34=204|49=T1Kauaiblk1|52=20201127-13:11:26.029|56=MA|10=158|8=FIX.4.4|9=58|35=0|34=205|49=T1Kauaiblk1|52=20201127-13:12:56.029|56=MA|10=163|8=FIX.4.4|9=58|35=0|34=206|49=T1Kauaiblk1|52=20201127-13:14:26.030|56=MA|10=155|8=FIX.4.4|9=58|35=0|34=207|49=T1Kauaiblk1|52=20201127-13:15:56.031|56=MA|10=161|8=FIX.4.4|9=58|35=0|34=208|49=T1Kauaiblk1|52=20201127-13:17:26.033|56=MA|10=163|8=FIX.4.4|9=58|35=0|34=209|49=T1Kauaiblk1|52=20201127-13:18:57.032|56=MA|10=168|8=FIX.4.4|9=58|35=0|34=210|49=T1Kauaiblk1|52=20201127-13:20:27.032|56=MA|10=150|8=FIX.4.4|9=58|35=0|34=211|49=T1Kauaiblk1|52=20201127-13:21:57.034|56=MA|10=157|8=FIX.4.4|9=58|35=0|34=212|49=T1Kauaiblk1|52=20201127-13:23:27.034|56=MA|10=157|8=FIX.4.4|9=58|35=0|34=213|49=T1Kauaiblk1|52=20201127-13:24:57.035|56=MA|10=163|8=FIX.4.4|9=58|35=0|34=214|49=T1Kauaiblk1|52=20201127-13:26:27.036|56=MA|10=164|8=FIX.4.4|9=58|35=0|34=215|49=T1Kauaiblk1|52=20201127-13:27:57.038|56=MA|10=171|8=FIX.4.4|9=58|35=0|34=216|49=T1Kauaiblk1|52=20201127-13:29:27.038|56=MA|10=171|8=FIX.4.4|9=58|35=0|34=217|49=T1Kauaiblk1|52=20201127-13:30:57.039|56=MA|10=168|8=FIX.4.4|9=58|35=0|34=218|49=T1Kauaiblk1|52=20201127-13:32:28.039|56=MA|10=169|8=FIX.4.4|9=58|35=0|34=219|49=T1Kauaiblk1|52=20201127-13:33:58.040|56=MA|10=166|8=FIX.4.4|9=58|35=0|34=220|49=T1Kauaiblk1|52=20201127-13:35:29.040|56=MA|10=158|8=FIX.4.4|9=58|35=0|34=221|49=T1Kauaiblk1|52=20201127-13:36:59.040|56=MA|10=163|8=FIX.4.4|9=58|35=0|34=222|49=T1Kauaiblk1|52=20201127-13:38:29.040|56=MA|10=163|8=FIX.4.4|9=58|35=0|34=223|49=T1Kauaiblk1|52=20201127-13:39:59.041|56=MA|10=169|8=FIX.4.4|9=58|35=0|34=224|49=T1Kauaiblk1|52=20201127-13:41:29.042|56=MA|10=161|8=FIX.4.4|9=58|35=0|34=225|49=T1Kauaiblk1|52=20201127-13:42:59.043|56=MA|10=167|8=FIX.4.4|9=58|35=0|34=226|49=T1Kauaiblk1|52=20201127-13:44:29.044|56=MA|10=168|8=FIX.4.4|9=58|35=0|34=227|49=T1Kauaiblk1|52=20201127-13:45:59.044|56=MA|10=173|8=FIX.4.4|9=58|35=0|34=228|49=T1Kauaiblk1|52=20201127-13:47:29.044|56=MA|10=173|8=FIX.4.4|9=58|35=0|34=229|49=T1Kauaiblk1|52=20201127-13:48:59.045|56=MA|10=179|8=FIX.4.4|9=58|35=0|34=230|49=T1Kauaiblk1|52=20201127-13:50:29.045|56=MA|10=161|8=FIX.4.4|9=58|35=0|34=231|49=T1Kauaiblk1|52=20201127-13:51:59.045|56=MA|10=166|8=FIX.4.4|9=58|35=0|34=232|49=T1Kauaiblk1|52=20201127-13:53:29.046|56=MA|10=167|8=FIX.4.4|9=58|35=0|34=233|49=T1Kauaiblk1|52=20201127-13:54:59.047|56=MA|10=173|8=FIX.4.4|9=58|35=0|34=234|49=T1Kauaiblk1|52=20201127-13:56:29.047|56=MA|10=173|8=FIX.4.4|9=58|35=0|34=235|49=T1Kauaiblk1|52=20201127-13:57:59.047|56=MA|10=178|8=FIX.4.4|9=58|35=0|34=236|49=T1Kauaiblk1|52=20201127-13:59:29.048|56=MA|10=179|8=FIX.4.4|9=58|35=0|34=237|49=T1Kauaiblk1|52=20201127-14:00:59.048|56=MA|10=170|8=FIX.4.4|9=58|35=0|34=238|49=T1Kauaiblk1|52=20201127-14:02:29.050|56=MA|10=163|8=FIX.4.4|9=58|35=0|34=239|49=T1Kauaiblk1|52=20201127-14:03:59.051|56=MA|10=169|8=FIX.4.4|9=58|35=0|34=240|49=T1Kauaiblk1|52=20201127-14:05:30.051|56=MA|10=152|8=FIX.4.4|9=58|35=0|34=241|49=T1Kauaiblk1|52=20201127-14:07:00.051|56=MA|10=152|8=FIX.4.4|9=58|35=0|34=242|49=T1Kauaiblk1|52=20201127-14:08:30.051|56=MA|10=157|8=FIX.4.4|9=58|35=0|34=243|49=T1Kauaiblk1|52=20201127-14:10:00.052|56=MA|10=149|8=FIX.4.4|9=58|35=5|34=244|49=T1Kauaiblk1|52=20201127-14:10:25.072|56=MA|10=164|8=FIX.4.4|9=91|35=A|34=1|49=T1Kauaiblk1|52=20201127-14:32:37.060|56=MA|98=0|108=90|95=8|96=3.0.0rc5|141=Y|10=030|8=FIX.4.4|9=640|35=E|34=2|49=T1Kauaiblk1|52=20201127-14:32:40.831|56=MA|66=MMAD-FIX44-ListID-271120-1259|394=2|68=5|73=5|11=FIX44-List-ClOrdID-1260|22=4|38=100000|48=US06051GEN51|54=1|55=[N/A/]|67=1|423=1|453=1|448=T1Kauaiblk1|447=C|452=11|11=FIX44-List-ClOrdID-1261|22=4|38=100000|48=US40434AAB52|54=1|55=[N/A]|67=2|11=FIX44-List-ClOrdID-1262|22=4|38=130000|48=US06738JYZ10|54=1|55=[N/A/]|67=1|453=1|448=T1Kauaiblk1|447=C|452=11|11=FIX44-List-ClOrdID-1263|22=4|38=250000|48=US95709TAH32|54=1|55=[N/A/]|67=1|453=1|448=T1Kauaiblk1|447=C|452=11|11=FIX44-List-ClOrdID-1264|22=4|38=350000|48=US29379VAW37|54=1|55=[N/A/]|67=1|453=1|448=T1Kauaiblk1|447=C|452=11|10=023|8=FIX.4.4|9=56|35=0|34=3|49=T1Kauaiblk1|52=20201127-14:34:11.060|56=MA|10=052|8=FIX.4.4|9=56|35=0|34=4|49=T1Kauaiblk1|52=20201127-14:35:42.059|56=MA|10=066|8=FIX.4.4|9=56|35=0|34=5|49=T1Kauaiblk1|52=20201127-14:37:12.060|56=MA|10=058|8=FIX.4.4|9=56|35=0|34=6|49=T1Kauaiblk1|52=20201127-14:38:42.061|56=MA|10=064|8=FIX.4.4|9=56|35=0|34=7|49=T1Kauaiblk1|52=20201127-14:40:12.062|56=MA|10=056|8=FIX.4.4|9=56|35=0|34=8|49=T1Kauaiblk1|52=20201127-14:41:43.061|56=MA|10=061|8=FIX.4.4|9=56|35=0|34=9|49=T1Kauaiblk1|52=20201127-14:43:13.062|56=MA|10=062|8=FIX.4.4|9=57|35=0|34=10|49=T1Kauaiblk1|52=20201127-14:44:43.062|56=MA|10=107|8=FIX.4.4|9=57|35=0|34=11|49=T1Kauaiblk1|52=20201127-14:46:13.062|56=MA|10=107|8=FIX.4.4|9=57|35=0|34=12|49=T1Kauaiblk1|52=20201127-14:47:43.063|56=MA|10=113|8=FIX.4.4|9=57|35=0|34=13|49=T1Kauaiblk1|52=20201127-14:49:13.065|56=MA|10=115|8=FIX.4.4|9=57|35=0|34=14|49=T1Kauaiblk1|52=20201127-14:50:44.064|56=MA|10=111|8=FIX.4.4|9=57|35=0|34=15|49=T1Kauaiblk1|52=20201127-14:52:14.064|56=MA|10=111|8=FIX.4.4|9=57|35=0|34=16|49=T1Kauaiblk1|52=20201127-14:53:44.064|56=MA|10=116|8=FIX.4.4|9=57|35=0|34=17|49=T1Kauaiblk1|52=20201127-14:55:14.065|56=MA|10=117|8=FIX.4.4|9=57|35=0|34=18|49=T1Kauaiblk1|52=20201127-14:56:44.066|56=MA|10=123|8=FIX.4.4|9=57|35=0|34=19|49=T1Kauaiblk1|52=20201127-14:58:14.067|56=MA|10=124|8=FIX.4.4|9=57|35=0|34=20|49=T1Kauaiblk1|52=20201127-14:59:45.066|56=MA|10=120|8=FIX.4.4|9=57|35=0|34=21|49=T1Kauaiblk1|52=20201127-15:01:15.067|56=MA|10=107|8=FIX.4.4|9=57|35=0|34=22|49=T1Kauaiblk1|52=20201127-15:02:45.067|56=MA|10=112|8=FIX.4.4|9=57|35=0|34=23|49=T1Kauaiblk1|52=20201127-15:04:15.069|56=MA|10=114|8=FIX.4.4|9=57|35=0|34=24|49=T1Kauaiblk1|52=20201127-15:05:46.069|56=MA|10=120|8=FIX.4.4|9=57|35=0|34=25|49=T1Kauaiblk1|52=20201127-15:07:17.069|56=MA|10=121|8=FIX.4.4|9=57|35=0|34=26|49=T1Kauaiblk1|52=20201127-15:08:47.070|56=MA|10=118|8=FIX.4.4|9=57|35=0|34=27|49=T1Kauaiblk1|52=20201127-15:10:18.070|56=MA|10=110|8=FIX.4.4|9=57|35=0|34=28|49=T1Kauaiblk1|52=20201127-15:11:48.070|56=MA|10=115|8=FIX.4.4|9=57|35=0|34=29|49=T1Kauaiblk1|52=20201127-15:13:18.070|56=MA|10=115|8=FIX.4.4|9=57|35=0|34=30|49=T1Kauaiblk1|52=20201127-15:14:48.070|56=MA|10=111|8=FIX.4.4|9=57|35=0|34=31|49=T1Kauaiblk1|52=20201127-15:16:18.072|56=MA|10=113|8=FIX.4.4|9=57|35=0|34=32|49=T1Kauaiblk1|52=20201127-15:17:49.071|56=MA|10=118|8=FIX.4.4|9=57|35=0|34=33|49=T1Kauaiblk1|52=20201127-15:19:19.071|56=MA|10=118|8=FIX.4.4|9=57|35=0|34=34|49=T1Kauaiblk1|52=20201127-15:20:49.072|56=MA|10=115|8=FIX.4.4|9=57|35=0|34=35|49=T1Kauaiblk1|52=20201127-15:22:19.072|56=MA|10=115|8=FIX.4.4|9=57|35=0|34=36|49=T1Kauaiblk1|52=20201127-15:23:49.072|56=MA|10=120|8=FIX.4.4|9=57|35=0|34=37|49=T1Kauaiblk1|52=20201127-15:25:19.072|56=MA|10=120|8=FIX.4.4|9=57|35=0|34=38|49=T1Kauaiblk1|52=20201127-15:26:49.073|56=MA|10=126|8=FIX.4.4|9=57|35=0|34=39|49=T1Kauaiblk1|52=20201127-15:28:19.074|56=MA|10=127|8=FIX.4.4|9=57|35=0|34=40|49=T1Kauaiblk1|52=20201127-15:29:49.074|56=MA|10=123|8=FIX.4.4|9=57|35=0|34=41|49=T1Kauaiblk1|52=20201127-15:31:19.074|56=MA|10=114|8=FIX.4.4|9=57|35=0|34=42|49=T1Kauaiblk1|52=20201127-15:32:49.074|56=MA|10=119|8=FIX.4.4|9=57|35=0|34=43|49=T1Kauaiblk1|52=20201127-15:34:19.075|56=MA|10=120|8=FIX.4.4|9=57|35=0|34=44|49=T1Kauaiblk1|52=20201127-15:35:49.075|56=MA|10=125|8=FIX.4.4|9=57|35=0|34=45|49=T1Kauaiblk1|52=20201127-15:37:19.075|56=MA|10=125|8=FIX.4.4|9=57|35=0|34=46|49=T1Kauaiblk1|52=20201127-15:38:49.077|56=MA|10=132|8=FIX.4.4|9=57|35=0|34=47|49=T1Kauaiblk1|52=20201127-15:40:19.077|56=MA|10=123|8=FIX.4.4|9=57|35=0|34=48|49=T1Kauaiblk1|52=20201127-15:41:49.077|56=MA|10=128|8=FIX.4.4|9=57|35=0|34=49|49=T1Kauaiblk1|52=20201127-15:43:19.077|56=MA|10=128|8=FIX.4.4|9=57|35=0|34=50|49=T1Kauaiblk1|52=20201127-15:44:49.077|56=MA|10=124|8=FIX.4.4|9=57|35=0|34=51|49=T1Kauaiblk1|52=20201127-15:46:19.077|56=MA|10=124|8=FIX.4.4|9=57|35=0|34=52|49=T1Kauaiblk1|52=20201127-15:47:49.077|56=MA|10=129|8=FIX.4.4|9=57|35=0|34=53|49=T1Kauaiblk1|52=20201127-15:49:19.078|56=MA|10=130|8=FIX.4.4|9=57|35=0|34=54|49=T1Kauaiblk1|52=20201127-15:50:49.079|56=MA|10=127|8=FIX.4.4|9=57|35=0|34=55|49=T1Kauaiblk1|52=20201127-15:52:20.078|56=MA|10=118|8=FIX.4.4|9=57|35=0|34=56|49=T1Kauaiblk1|52=20201127-15:53:50.079|56=MA|10=124|8=FIX.4.4|9=57|35=0|34=57|49=T1Kauaiblk1|52=20201127-15:55:20.079|56=MA|10=124|8=FIX.4.4|9=57|35=0|34=58|49=T1Kauaiblk1|52=20201127-15:56:50.080|56=MA|10=121|8=FIX.4.4|9=57|35=0|34=59|49=T1Kauaiblk1|52=20201127-15:58:20.080|56=MA|10=121|8=FIX.4.4|9=57|35=0|34=60|49=T1Kauaiblk1|52=20201127-15:59:50.081|56=MA|10=118|8=FIX.4.4|9=57|35=0|34=61|49=T1Kauaiblk1|52=20201127-16:01:20.081|56=MA|10=104|8=FIX.4.4|9=57|35=0|34=62|49=T1Kauaiblk1|52=20201127-16:02:51.081|56=MA|10=110|8=FIX.4.4|9=57|35=0|34=63|49=T1Kauaiblk1|52=20201127-16:04:21.082|56=MA|10=111|8=FIX.4.4|9=57|35=0|34=64|49=T1Kauaiblk1|52=20201127-16:05:51.082|56=MA|10=116|8=FIX.4.4|9=57|35=0|34=65|49=T1Kauaiblk1|52=20201127-16:07:22.081|56=MA|10=116|8=FIX.4.4|9=57|35=0|34=66|49=T1Kauaiblk1|52=20201127-16:08:52.083|56=MA|10=123|8=FIX.4.4|9=57|35=0|34=67|49=T1Kauaiblk1|52=20201127-16:10:22.083|56=MA|10=114|8=FIX.4.4|9=57|35=0|34=68|49=T1Kauaiblk1|52=20201127-16:11:53.082|56=MA|10=119|8=FIX.4.4|9=57|35=0|34=69|49=T1Kauaiblk1|52=20201127-16:13:23.084|56=MA|10=121|8=FIX.4.4|9=57|35=0|34=70|49=T1Kauaiblk1|52=20201127-16:14:54.083|56=MA|10=117|8=FIX.4.4|9=57|35=0|34=71|49=T1Kauaiblk1|52=20201127-16:16:24.084|56=MA|10=118|8=FIX.4.4|9=57|35=0|34=72|49=T1Kauaiblk1|52=20201127-16:17:55.083|56=MA|10=123|8=FIX.4.4|9=57|35=0|34=73|49=T1Kauaiblk1|52=20201127-16:19:25.083|56=MA|10=123|8=FIX.4.4|9=57|35=0|34=74|49=T1Kauaiblk1|52=20201127-16:20:55.084|56=MA|10=120|8=FIX.4.4|9=57|35=0|34=75|49=T1Kauaiblk1|52=20201127-16:22:25.086|56=MA|10=122|8=FIX.4.4|9=57|35=0|34=76|49=T1Kauaiblk1|52=20201127-16:23:55.086|56=MA|10=127|8=FIX.4.4|9=57|35=0|34=77|49=T1Kauaiblk1|52=20201127-16:25:26.085|56=MA|10=127|8=FIX.4.4|9=57|35=0|34=78|49=T1Kauaiblk1|52=20201127-16:26:56.085|56=MA|10=132|8=FIX.4.4|9=57|35=0|34=79|49=T1Kauaiblk1|52=20201127-16:28:26.086|56=MA|10=133|8=FIX.4.4|9=57|35=0|34=80|49=T1Kauaiblk1|52=20201127-16:29:57.087|56=MA|10=131|8=FIX.4.4|9=57|35=0|34=81|49=T1Kauaiblk1|52=20201127-16:31:28.086|56=MA|10=122|8=FIX.4.4|9=57|35=0|34=82|49=T1Kauaiblk1|52=20201127-16:32:58.086|56=MA|10=127|8=FIX.4.4|9=57|35=0|34=83|49=T1Kauaiblk1|52=20201127-16:34:28.086|56=MA|10=127|8=FIX.4.4|9=57|35=0|34=84|49=T1Kauaiblk1|52=20201127-16:35:58.087|56=MA|10=133|8=FIX.4.4|9=57|35=0|34=85|49=T1Kauaiblk1|52=20201127-16:37:29.087|56=MA|10=134|8=FIX.4.4|9=57|35=0|34=86|49=T1Kauaiblk1|52=20201127-16:38:59.087|56=MA|10=139|8=FIX.4.4|9=57|35=0|34=87|49=T1Kauaiblk1|52=20201127-16:40:29.088|56=MA|10=131|8=FIX.4.4|9=57|35=0|34=88|49=T1Kauaiblk1|52=20201127-16:42:00.087|56=MA|10=122|8=FIX.4.4|9=57|35=0|34=89|49=T1Kauaiblk1|52=20201127-16:43:30.088|56=MA|10=128|8=FIX.4.4|9=57|35=0|34=90|49=T1Kauaiblk1|52=20201127-16:45:00.088|56=MA|10=119|8=FIX.4.4|9=57|35=0|34=91|49=T1Kauaiblk1|52=20201127-16:46:30.088|56=MA|10=124|8=FIX.4.4|9=57|35=0|34=92|49=T1Kauaiblk1|52=20201127-16:48:00.090|56=MA|10=117|8=FIX.4.4|9=57|35=0|34=93|49=T1Kauaiblk1|52=20201127-16:49:30.090|56=MA|10=122|8=FIX.4.4|9=57|35=0|34=94|49=T1Kauaiblk1|52=20201127-16:51:00.090|56=MA|10=113|8=FIX.4.4|9=57|35=0|34=95|49=T1Kauaiblk1|52=20201127-16:52:31.089|56=MA|10=127|8=FIX.4.4|9=57|35=0|34=96|49=T1Kauaiblk1|52=20201127-16:54:01.090|56=MA|10=119|8=FIX.4.4|9=57|35=0|34=97|49=T1Kauaiblk1|52=20201127-16:55:31.091|56=MA|10=125|8=FIX.4.4|9=57|35=0|34=98|49=T1Kauaiblk1|52=20201127-16:57:02.090|56=MA|10=125|8=FIX.4.4|9=57|35=0|34=99|49=T1Kauaiblk1|52=20201127-16:58:32.091|56=MA|10=131|8=FIX.4.4|9=58|35=0|34=100|49=T1Kauaiblk1|52=20201127-17:00:02.091|56=MA|10=148|8=FIX.4.4|9=58|35=0|34=101|49=T1Kauaiblk1|52=20201127-17:01:32.092|56=MA|10=154|8=FIX.4.4|9=58|35=0|34=102|49=T1Kauaiblk1|52=20201127-17:03:03.091|56=MA|10=154|8=FIX.4.4|9=58|35=0|34=103|49=T1Kauaiblk1|52=20201127-17:04:33.091|56=MA|10=159|8=FIX.4.4|9=58|35=0|34=104|49=T1Kauaiblk1|52=20201127-17:06:03.091|56=MA|10=159|8=FIX.4.4|9=58|35=0|34=105|49=T1Kauaiblk1|52=20201127-17:07:33.092|56=MA|10=165|8=FIX.4.4|9=58|35=0|34=106|49=T1Kauaiblk1|52=20201127-17:09:03.092|56=MA|10=165|8=FIX.4.4|9=58|35=0|34=107|49=T1Kauaiblk1|52=20201127-17:10:33.092|56=MA|10=161|8=FIX.4.4|9=58|35=0|34=108|49=T1Kauaiblk1|52=20201127-17:12:03.093|56=MA|10=162|8=FIX.4.4|9=58|35=0|34=109|49=T1Kauaiblk1|52=20201127-17:13:33.093|56=MA|10=167|8=FIX.4.4|9=58|35=0|34=110|49=T1Kauaiblk1|52=20201127-17:15:04.093|56=MA|10=159|8=FIX.4.4|9=58|35=0|34=111|49=T1Kauaiblk1|52=20201127-17:16:34.093|56=MA|10=164|8=FIX.4.4|9=58|35=0|34=112|49=T1Kauaiblk1|52=20201127-17:18:04.093|56=MA|10=164|8=FIX.4.4|9=58|35=0|34=113|49=T1Kauaiblk1|52=20201127-17:19:34.093|56=MA|10=169|8=FIX.4.4|9=58|35=0|34=114|49=T1Kauaiblk1|52=20201127-17:21:04.094|56=MA|10=161|8=FIX.4.4|9=58|35=0|34=115|49=T1Kauaiblk1|52=20201127-17:22:35.095|56=MA|10=168|8=FIX.4.4|9=58|35=0|34=116|49=T1Kauaiblk1|52=20201127-17:24:06.094|56=MA|10=168|8=FIX.4.4|9=58|35=0|34=117|49=T1Kauaiblk1|52=20201127-17:25:36.095|56=MA|10=174|8=FIX.4.4|9=58|35=0|34=118|49=T1Kauaiblk1|52=20201127-17:27:07.094|56=MA|10=174|8=FIX.4.4|9=58|35=0|34=119|49=T1Kauaiblk1|52=20201127-17:28:37.095|56=MA|10=180|8=FIX.4.4|9=58|35=0|34=120|49=T1Kauaiblk1|52=20201127-17:30:07.095|56=MA|10=162|8=FIX.4.4|9=58|35=0|34=121|49=T1Kauaiblk1|52=20201127-17:31:37.096|56=MA|10=168|8=FIX.4.4|9=58|35=0|34=122|49=T1Kauaiblk1|52=20201127-17:33:07.097|56=MA|10=169|8=FIX.4.4|9=58|35=0|34=123|49=T1Kauaiblk1|52=20201127-17:34:38.096|56=MA|10=174|8=FIX.4.4|9=58|35=0|34=124|49=T1Kauaiblk1|52=20201127-17:36:08.096|56=MA|10=174|8=FIX.4.4|9=58|35=0|34=125|49=T1Kauaiblk1|52=20201127-17:37:38.096|56=MA|10=179|8=FIX.4.4|9=58|35=0|34=126|49=T1Kauaiblk1|52=20201127-17:39:08.096|56=MA|10=179|8=FIX.4.4|9=58|35=0|34=127|49=T1Kauaiblk1|52=20201127-17:40:38.098|56=MA|10=177|8=FIX.4.4|9=58|35=0|34=128|49=T1Kauaiblk1|52=20201127-17:42:09.096|56=MA|10=176|8=FIX.4.4|9=58|35=0|34=129|49=T1Kauaiblk1|52=20201127-17:43:39.096|56=MA|10=181|8=FIX.4.4|9=58|35=0|34=130|49=T1Kauaiblk1|52=20201127-17:45:09.097|56=MA|10=173|8=FIX.4.4|9=58|35=0|34=131|49=T1Kauaiblk1|52=20201127-17:46:39.098|56=MA|10=179|8=FIX.4.4|9=58|35=0|34=132|49=T1Kauaiblk1|52=20201127-17:48:09.098|56=MA|10=179|8=FIX.4.4|9=58|35=0|34=133|49=T1Kauaiblk1|52=20201127-17:49:39.098|56=MA|10=184|8=FIX.4.4|9=58|35=0|34=134|49=T1Kauaiblk1|52=20201127-17:51:09.098|56=MA|10=175|8=FIX.4.4|9=58|35=0|34=135|49=T1Kauaiblk1|52=20201127-17:52:39.099|56=MA|10=181|8=FIX.4.4|9=58|35=0|34=136|49=T1Kauaiblk1|52=20201127-17:54:10.098|56=MA|10=172|8=FIX.4.4|9=58|35=0|34=137|49=T1Kauaiblk1|52=20201127-17:55:40.100|56=MA|10=161|8=FIX.4.4|9=58|35=0|34=138|49=T1Kauaiblk1|52=20201127-17:57:11.098|56=MA|10=178|8=FIX.4.4|9=58|35=0|34=139|49=T1Kauaiblk1|52=20201127-17:58:41.099|56=MA|10=184|8=FIX.4.4|9=58|35=0|34=140|49=T1Kauaiblk1|52=20201127-18:00:11.099|56=MA|10=161|8=FIX.4.4|9=58|35=0|34=141|49=T1Kauaiblk1|52=20201127-18:01:41.099|56=MA|10=166|8=FIX.4.4|9=58|35=0|34=142|49=T1Kauaiblk1|52=20201127-18:03:11.101|56=MA|10=150|8=FIX.4.4|9=58|35=0|34=143|49=T1Kauaiblk1|52=20201127-18:04:42.100|56=MA|10=155|8=FIX.4.4|9=58|35=0|34=144|49=T1Kauaiblk1|52=20201127-18:06:12.101|56=MA|10=156|8=FIX.4.4|9=58|35=0|34=145|49=T1Kauaiblk1|52=20201127-18:07:43.100|56=MA|10=161|8=FIX.4.4|9=58|35=0|34=146|49=T1Kauaiblk1|52=20201127-18:09:13.101|56=MA|10=162|8=FIX.4.4|9=58|35=0|34=147|49=T1Kauaiblk1|52=20201127-18:10:44.100|56=MA|10=158|8=FIX.4.4|9=58|35=0|34=148|49=T1Kauaiblk1|52=20201127-18:12:14.101|56=MA|10=159|8=FIX.4.4|9=58|35=0|34=149|49=T1Kauaiblk1|52=20201127-18:13:45.101|56=MA|10=165|8=FIX.4.4|9=58|35=0|34=150|49=T1Kauaiblk1|52=20201127-18:15:15.101|56=MA|10=156|8=FIX.4.4|9=58|35=0|34=151|49=T1Kauaiblk1|52=20201127-18:16:45.101|56=MA|10=161|8=FIX.4.4|9=58|35=0|34=152|49=T1Kauaiblk1|52=20201127-18:18:15.102|56=MA|10=162|8=FIX.4.4|9=91|35=A|34=1|49=T1Kauaiblk1|52=20201201-09:46:59.945|56=MA|98=0|108=90|95=8|96=3.0.0rc5|141=Y|10=048|8=FIX.4.4|9=640|35=E|34=2|49=T1Kauaiblk1|52=20201201-09:47:03.112|56=MA|66=MMAD-FIX44-ListID-011220-1240|394=2|68=5|73=5|11=FIX44-List-ClOrdID-1241|22=4|38=100000|48=US06051GEN51|54=1|55=[N/A/]|67=1|423=1|453=1|448=T1Kauaiblk1|447=C|452=11|11=FIX44-List-ClOrdID-1242|22=4|38=100000|48=US40434AAB52|54=1|55=[N/A]|67=2|11=FIX44-List-ClOrdID-1243|22=4|38=130000|48=US06738JYZ10|54=1|55=[N/A/]|67=1|453=1|448=T1Kauaiblk1|447=C|452=11|11=FIX44-List-ClOrdID-1244|22=4|38=250000|48=US95709TAH32|54=1|55=[N/A/]|67=1|453=1|448=T1Kauaiblk1|447=C|452=11|11=FIX44-List-ClOrdID-1245|22=4|38=350000|48=US29379VAW37|54=1|55=[N/A/]|67=1|453=1|448=T1Kauaiblk1|447=C|452=11|10=251|8=FIX.4.4|9=56|35=0|34=3|49=T1Kauaiblk1|52=20201201-09:48:33.495|56=MA|10=070|8=FIX.4.4|9=56|35=0|34=4|49=T1Kauaiblk1|52=20201201-09:50:03.944|56=MA|10=060|8=FIX.4.4|9=56|35=0|34=5|49=T1Kauaiblk1|52=20201201-09:51:33.945|56=MA|10=066|8=FIX.4.4|9=56|35=0|34=6|49=T1Kauaiblk1|52=20201201-09:53:03.946|56=MA|10=067|8=FIX.4.4|9=56|35=0|34=7|49=T1Kauaiblk1|52=20201201-09:54:33.946|56=MA|10=072|8=FIX.4.4|9=56|35=0|34=8|49=T1Kauaiblk1|52=20201201-09:56:03.946|56=MA|10=072|8=FIX.4.4|9=56|35=0|34=9|49=T1Kauaiblk1|52=20201201-09:57:34.945|56=MA|10=077|8=FIX.4.4|9=57|35=0|34=10|49=T1Kauaiblk1|52=20201201-09:59:04.946|56=MA|10=118|8=FIX.4.4|9=57|35=0|34=11|49=T1Kauaiblk1|52=20201201-10:00:34.947|56=MA|10=101|8=FIX.4.4|9=57|35=0|34=12|49=T1Kauaiblk1|52=20201201-10:02:05.284|56=MA|10=096|8=FIX.4.4|9=57|35=0|34=13|49=T1Kauaiblk1|52=20201201-10:03:35.947|56=MA|10=107|8=FIX.4.4|9=57|35=0|34=14|49=T1Kauaiblk1|52=20201201-10:05:06.946|56=MA|10=107|8=FIX.4.4|9=57|35=0|34=15|49=T1Kauaiblk1|52=20201201-10:06:36.946|56=MA|10=112|8=FIX.4.4|9=57|35=0|34=16|49=T1Kauaiblk1|52=20201201-10:08:06.947|56=MA|10=113|8=FIX.4.4|9=57|35=0|34=17|49=T1Kauaiblk1|52=20201201-10:09:36.949|56=MA|10=120|8=FIX.4.4|9=57|35=0|34=18|49=T1Kauaiblk1|52=20201201-10:11:06.952|56=MA|10=105|8=FIX.4.4|9=57|35=0|34=19|49=T1Kauaiblk1|52=20201201-10:12:36.954|56=MA|10=112|8=FIX.4.4|9=57|35=0|34=20|49=T1Kauaiblk1|52=20201201-10:14:06.956|56=MA|10=105|8=FIX.4.4|9=57|35=0|34=21|49=T1Kauaiblk1|52=20201201-10:15:36.958|56=MA|10=112|8=FIX.4.4|9=57|35=0|34=22|49=T1Kauaiblk1|52=20201201-10:17:06.959|56=MA|10=113|8=FIX.4.4|9=57|35=0|34=23|49=T1Kauaiblk1|52=20201201-10:18:36.962|56=MA|10=112|8=FIX.4.4|9=57|35=0|34=24|49=T1Kauaiblk1|52=20201201-10:20:06.965|56=MA|10=106|8=FIX.4.4|9=57|35=0|34=25|49=T1Kauaiblk1|52=20201201-10:21:36.966|56=MA|10=112|8=FIX.4.4|9=57|35=0|34=26|49=T1Kauaiblk1|52=20201201-10:23:06.966|56=MA|10=112|8=FIX.4.4|9=57|35=0|34=27|49=T1Kauaiblk1|52=20201201-10:24:36.968|56=MA|10=119|8=FIX.4.4|9=57|35=0|34=28|49=T1Kauaiblk1|52=20201201-10:26:06.970|56=MA|10=112|8=FIX.4.4|9=57|35=0|34=29|49=T1Kauaiblk1|52=20201201-10:27:36.973|56=MA|10=120|8=FIX.4.4|9=57|35=0|34=30|49=T1Kauaiblk1|52=20201201-10:29:07.973|56=MA|10=112|8=FIX.4.4|9=57|35=0|34=31|49=T1Kauaiblk1|52=20201201-10:30:37.975|56=MA|10=110|8=FIX.4.4|9=57|35=0|34=32|49=T1Kauaiblk1|52=20201201-10:32:07.977|56=MA|10=112|8=FIX.4.4|9=57|35=0|34=33|49=T1Kauaiblk1|52=20201201-10:33:37.978|56=MA|10=118|8=FIX.4.4|9=57|35=0|34=34|49=T1Kauaiblk1|52=20201201-10:35:07.979|56=MA|10=119|8=FIX.4.4|9=57|35=0|34=35|49=T1Kauaiblk1|52=20201201-10:36:37.979|56=MA|10=124|8=FIX.4.4|9=57|35=0|34=36|49=T1Kauaiblk1|52=20201201-10:38:07.980|56=MA|10=116|8=FIX.4.4|9=57|35=0|34=37|49=T1Kauaiblk1|52=20201201-10:39:37.981|56=MA|10=122|8=FIX.4.4|9=57|35=0|34=38|49=T1Kauaiblk1|52=20201201-10:41:07.982|56=MA|10=114|8=FIX.4.4|9=57|35=0|34=39|49=T1Kauaiblk1|52=20201201-10:42:37.983|56=MA|10=120|8=FIX.4.4|9=57|35=0|34=40|49=T1Kauaiblk1|52=20201201-10:44:07.984|56=MA|10=112|8=FIX.4.4|9=57|35=0|34=41|49=T1Kauaiblk1|52=20201201-10:45:37.985|56=MA|10=118|8=FIX.4.4|9=57|35=0|34=42|49=T1Kauaiblk1|52=20201201-10:47:07.987|56=MA|10=120|8=FIX.4.4|9=57|35=0|34=43|49=T1Kauaiblk1|52=20201201-10:48:38.986|56=MA|10=125|8=FIX.4.4|9=57|35=0|34=44|49=T1Kauaiblk1|52=20201201-10:50:08.987|56=MA|10=117|8=FIX.4.4|9=57|35=0|34=45|49=T1Kauaiblk1|52=20201201-10:51:38.988|56=MA|10=123|8=FIX.4.4|9=57|35=0|34=46|49=T1Kauaiblk1|52=20201201-10:53:08.989|56=MA|10=124|8=FIX.4.4|9=57|35=0|34=47|49=T1Kauaiblk1|52=20201201-10:54:38.989|56=MA|10=129|8=FIX.4.4|9=57|35=0|34=48|49=T1Kauaiblk1|52=20201201-10:56:08.991|56=MA|10=122|8=FIX.4.4|9=57|35=0|34=49|49=T1Kauaiblk1|52=20201201-10:57:38.991|56=MA|10=127|8=FIX.4.4|9=75|35=5|34=50|49=T1Kauaiblk1|52=20201201-10:57:40.991|56=MA|58=user requested|10=209|8=FIX.4.4|9=91|35=A|34=1|49=T1Kauaiblk1|52=20201202-11:52:07.426|56=MA|98=0|108=90|95=8|96=3.0.0rc5|141=Y|10=026|8=FIX.4.4|9=56|35=0|34=2|49=T1Kauaiblk1|52=20201202-11:53:38.419|56=MA|10=060|8=FIX.4.4|9=56|35=0|34=3|49=T1Kauaiblk1|52=20201202-11:55:08.420|56=MA|10=052|8=FIX.4.4|9=56|35=0|34=4|49=T1Kauaiblk1|52=20201202-11:56:38.420|56=MA|10=057|8=FIX.4.4|9=56|35=0|34=5|49=T1Kauaiblk1|52=20201202-11:58:08.422|56=MA|10=059|8=FIX.4.4|9=56|35=0|34=6|49=T1Kauaiblk1|52=20201202-11:59:38.424|56=MA|10=066|8=FIX.4.4|9=56|35=0|34=7|49=T1Kauaiblk1|52=20201202-12:01:08.424|56=MA|10=052|8=FIX.4.4|9=56|35=0|34=8|49=T1Kauaiblk1|52=20201202-12:02:38.424|56=MA|10=057|8=FIX.4.4|9=56|35=0|34=9|49=T1Kauaiblk1|52=20201202-12:04:08.425|56=MA|10=058|8=FIX.4.4|9=57|35=0|34=10|49=T1Kauaiblk1|52=20201202-12:05:38.427|56=MA|10=105|8=FIX.4.4|9=57|35=0|34=11|49=T1Kauaiblk1|52=20201202-12:07:08.428|56=MA|10=106|8=FIX.4.4|9=57|35=0|34=12|49=T1Kauaiblk1|52=20201202-12:08:38.430|56=MA|10=104|8=FIX.4.4|9=57|35=0|34=13|49=T1Kauaiblk1|52=20201202-12:10:09.429|56=MA|10=104|8=FIX.4.4|9=57|35=0|34=14|49=T1Kauaiblk1|52=20201202-12:11:39.430|56=MA|10=101|8=FIX.4.4|9=57|35=0|34=15|49=T1Kauaiblk1|52=20201202-12:13:09.432|56=MA|10=103|8=FIX.4.4|9=57|35=0|34=16|49=T1Kauaiblk1|52=20201202-12:14:39.433|56=MA|10=109|8=FIX.4.4|9=57|35=0|34=17|49=T1Kauaiblk1|52=20201202-12:16:09.433|56=MA|10=109|8=FIX.4.4|9=57|35=0|34=18|49=T1Kauaiblk1|52=20201202-12:17:39.435|56=MA|10=116|8=FIX.4.4|9=57|35=0|34=19|49=T1Kauaiblk1|52=20201202-12:19:09.435|56=MA|10=116|8=FIX.4.4|9=57|35=0|34=20|49=T1Kauaiblk1|52=20201202-12:20:39.436|56=MA|10=104|8=FIX.4.4|9=57|35=0|34=21|49=T1Kauaiblk1|52=20201202-12:22:09.437|56=MA|10=105|8=FIX.4.4|9=57|35=0|34=22|49=T1Kauaiblk1|52=20201202-12:23:39.438|56=MA|10=111|8=FIX.4.4|9=57|35=0|34=23|49=T1Kauaiblk1|52=20201202-12:25:09.440|56=MA|10=104|8=FIX.4.4|9=57|35=0|34=24|49=T1Kauaiblk1|52=20201202-12:26:39.441|56=MA|10=110|8=FIX.4.4|9=57|35=0|34=25|49=T1Kauaiblk1|52=20201202-12:28:10.441|56=MA|10=102|8=FIX.4.4|9=57|35=0|34=26|49=T1Kauaiblk1|52=20201202-12:29:40.441|56=MA|10=107|8=FIX.4.4|9=57|35=0|34=27|49=T1Kauaiblk1|52=20201202-12:31:10.442|56=MA|10=099|8=FIX.4.4|9=57|35=0|34=28|49=T1Kauaiblk1|52=20201202-12:32:40.443|56=MA|10=105|8=FIX.4.4|9=57|35=0|34=29|49=T1Kauaiblk1|52=20201202-12:34:10.445|56=MA|10=107|8=FIX.4.4|9=57|35=0|34=30|49=T1Kauaiblk1|52=20201202-12:35:40.446|56=MA|10=104|8=FIX.4.4|9=57|35=0|34=31|49=T1Kauaiblk1|52=20201202-12:37:11.446|56=MA|10=105|8=FIX.4.4|9=57|35=0|34=32|49=T1Kauaiblk1|52=20201202-12:38:41.447|56=MA|10=111|8=FIX.4.4|9=57|35=0|34=33|49=T1Kauaiblk1|52=20201202-12:40:12.448|56=MA|10=104|8=FIX.4.4|9=57|35=0|34=34|49=T1Kauaiblk1|52=20201202-12:41:42.448|56=MA|10=109|8=FIX.4.4|9=57|35=0|34=35|49=T1Kauaiblk1|52=20201202-12:43:12.449|56=MA|10=110|8=FIX.4.4|9=57|35=0|34=36|49=T1Kauaiblk1|52=20201202-12:44:42.450|56=MA|10=107|8=FIX.4.4|9=57|35=0|34=37|49=T1Kauaiblk1|52=20201202-12:46:12.451|56=MA|10=108|8=FIX.4.4|9=57|35=0|34=38|49=T1Kauaiblk1|52=20201202-12:47:42.451|56=MA|10=113|8=FIX.4.4|9=57|35=0|34=39|49=T1Kauaiblk1|52=20201202-12:49:12.452|56=MA|10=114|8=FIX.4.4|9=57|35=0|34=40|49=T1Kauaiblk1|52=20201202-12:50:42.453|56=MA|10=102|8=FIX.4.4|9=57|35=0|34=41|49=T1Kauaiblk1|52=20201202-12:52:12.454|56=MA|10=103|8=FIX.4.4|9=57|35=0|34=42|49=T1Kauaiblk1|52=20201202-12:53:42.454|56=MA|10=108|8=FIX.4.4|9=57|35=0|34=43|49=T1Kauaiblk1|52=20201202-12:55:12.454|56=MA|10=108|8=FIX.4.4|9=57|35=0|34=44|49=T1Kauaiblk1|52=20201202-12:56:42.455|56=MA|10=114|8=FIX.4.4|9=57|35=0|34=45|49=T1Kauaiblk1|52=20201202-12:58:12.456|56=MA|10=115|8=FIX.4.4|9=57|35=0|34=46|49=T1Kauaiblk1|52=20201202-12:59:42.457|56=MA|10=121|8=FIX.4.4|9=57|35=0|34=47|49=T1Kauaiblk1|52=20201202-13:01:12.458|56=MA|10=108|8=FIX.4.4|9=57|35=0|34=48|49=T1Kauaiblk1|52=20201202-13:02:42.458|56=MA|10=113|8=FIX.4.4|9=57|35=0|34=49|49=T1Kauaiblk1|52=20201202-13:04:12.461|56=MA|10=107|8=FIX.4.4|9=57|35=0|34=50|49=T1Kauaiblk1|52=20201202-13:05:43.460|56=MA|10=103|8=FIX.4.4|9=57|35=0|34=51|49=T1Kauaiblk1|52=20201202-13:07:13.460|56=MA|10=103|8=FIX.4.4|9=57|35=0|34=52|49=T1Kauaiblk1|52=20201202-13:08:43.461|56=MA|10=109|8=FIX.4.4|9=57|35=0|34=53|49=T1Kauaiblk1|52=20201202-13:10:13.463|56=MA|10=102|8=FIX.4.4|9=57|35=0|34=54|49=T1Kauaiblk1|52=20201202-13:11:43.463|56=MA|10=107|8=FIX.4.4|9=57|35=0|34=55|49=T1Kauaiblk1|52=20201202-13:13:13.463|56=MA|10=107|8=FIX.4.4|9=57|35=0|34=56|49=T1Kauaiblk1|52=20201202-13:14:43.464|56=MA|10=113|8=FIX.4.4|9=57|35=0|34=57|49=T1Kauaiblk1|52=20201202-13:16:13.465|56=MA|10=114|8=FIX.4.4|9=57|35=0|34=58|49=T1Kauaiblk1|52=20201202-13:17:43.467|56=MA|10=121|8=FIX.4.4|9=57|35=0|34=59|49=T1Kauaiblk1|52=20201202-13:19:13.467|56=MA|10=121|8=FIX.4.4|9=57|35=0|34=60|49=T1Kauaiblk1|52=20201202-13:20:43.467|56=MA|10=108|8=FIX.4.4|9=57|35=0|34=61|49=T1Kauaiblk1|52=20201202-13:22:13.468|56=MA|10=109|8=FIX.4.4|9=57|35=0|34=62|49=T1Kauaiblk1|52=20201202-13:23:43.468|56=MA|10=114|8=FIX.4.4|9=57|35=0|34=63|49=T1Kauaiblk1|52=20201202-13:25:13.469|56=MA|10=115|8=FIX.4.4|9=57|35=0|34=64|49=T1Kauaiblk1|52=20201202-13:26:43.470|56=MA|10=112|8=FIX.4.4|9=57|35=0|34=65|49=T1Kauaiblk1|52=20201202-13:28:13.470|56=MA|10=112|8=FIX.4.4|9=57|35=0|34=66|49=T1Kauaiblk1|52=20201202-13:29:43.470|56=MA|10=117|8=FIX.4.4|9=57|35=0|34=67|49=T1Kauaiblk1|52=20201202-13:31:13.471|56=MA|10=109|8=FIX.4.4|9=57|35=0|34=68|49=T1Kauaiblk1|52=20201202-13:32:43.472|56=MA|10=115|8=FIX.4.4|9=57|35=0|34=69|49=T1Kauaiblk1|52=20201202-13:34:13.473|56=MA|10=116|8=FIX.4.4|9=57|35=0|34=70|49=T1Kauaiblk1|52=20201202-13:35:44.474|56=MA|10=114|8=FIX.4.4|9=57|35=0|34=71|49=T1Kauaiblk1|52=20201202-13:37:14.474|56=MA|10=114|8=FIX.4.4|9=57|35=0|34=72|49=T1Kauaiblk1|52=20201202-13:38:44.474|56=MA|10=119|8=FIX.4.4|9=57|35=0|34=73|49=T1Kauaiblk1|52=20201202-13:40:14.474|56=MA|10=110|8=FIX.4.4|9=57|35=0|34=74|49=T1Kauaiblk1|52=20201202-13:41:44.475|56=MA|10=116|8=FIX.4.4|9=57|35=0|34=75|49=T1Kauaiblk1|52=20201202-13:43:15.477|56=MA|10=119|8=FIX.4.4|9=57|35=0|34=76|49=T1Kauaiblk1|52=20201202-13:44:46.475|56=MA|10=123|8=FIX.4.4|9=57|35=0|34=77|49=T1Kauaiblk1|52=20201202-13:46:16.477|56=MA|10=125|8=FIX.4.4|9=57|35=0|34=78|49=T1Kauaiblk1|52=20201202-13:47:46.477|56=MA|10=130|8=FIX.4.4|9=57|35=0|34=79|49=T1Kauaiblk1|52=20201202-13:49:16.477|56=MA|10=130|8=FIX.4.4|9=57|35=0|34=80|49=T1Kauaiblk1|52=20201202-13:50:46.478|56=MA|10=118|8=FIX.4.4|9=57|35=0|34=81|49=T1Kauaiblk1|52=20201202-13:52:16.479|56=MA|10=119|8=FIX.4.4|9=57|35=0|34=82|49=T1Kauaiblk1|52=20201202-13:53:46.479|56=MA|10=124|8=FIX.4.4|9=57|35=0|34=83|49=T1Kauaiblk1|52=20201202-13:55:16.481|56=MA|10=117|8=FIX.4.4|9=57|35=0|34=84|49=T1Kauaiblk1|52=20201202-13:56:47.481|56=MA|10=123|8=FIX.4.4|9=57|35=0|34=85|49=T1Kauaiblk1|52=20201202-13:58:18.480|56=MA|10=123|8=FIX.4.4|9=57|35=0|34=86|49=T1Kauaiblk1|52=20201202-13:59:48.481|56=MA|10=129|8=FIX.4.4|9=57|35=0|34=87|49=T1Kauaiblk1|52=20201202-14:01:18.482|56=MA|10=116|8=FIX.4.4|9=57|35=0|34=88|49=T1Kauaiblk1|52=20201202-14:02:48.482|56=MA|10=121|8=FIX.4.4|9=57|35=0|34=89|49=T1Kauaiblk1|52=20201202-14:04:18.483|56=MA|10=122|8=FIX.4.4|9=57|35=0|34=90|49=T1Kauaiblk1|52=20201202-14:05:48.484|56=MA|10=119|8=FIX.4.4|9=57|35=0|34=91|49=T1Kauaiblk1|52=20201202-14:07:18.485|56=MA|10=120|8=FIX.4.4|9=57|35=0|34=92|49=T1Kauaiblk1|52=20201202-14:08:48.485|56=MA|10=125|8=FIX.4.4|9=57|35=0|34=93|49=T1Kauaiblk1|52=20201202-14:10:19.484|56=MA|10=116|8=FIX.4.4|9=57|35=0|34=94|49=T1Kauaiblk1|52=20201202-14:11:49.486|56=MA|10=123|8=FIX.4.4|9=57|35=0|34=95|49=T1Kauaiblk1|52=20201202-14:13:19.486|56=MA|10=123|8=FIX.4.4|9=57|35=0|34=96|49=T1Kauaiblk1|52=20201202-14:14:49.486|56=MA|10=128|8=FIX.4.4|9=57|35=0|34=97|49=T1Kauaiblk1|52=20201202-14:16:19.486|56=MA|10=128|8=FIX.4.4|9=57|35=0|34=98|49=T1Kauaiblk1|52=20201202-14:17:49.487|56=MA|10=134|8=FIX.4.4|9=57|35=0|34=99|49=T1Kauaiblk1|52=20201202-14:19:19.488|56=MA|10=135|8=FIX.4.4|9=58|35=0|34=100|49=T1Kauaiblk1|52=20201202-14:20:49.488|56=MA|10=162|8=FIX.4.4|9=58|35=0|34=101|49=T1Kauaiblk1|52=20201202-14:22:19.488|56=MA|10=162|8=FIX.4.4|9=58|35=0|34=102|49=T1Kauaiblk1|52=20201202-14:23:49.489|56=MA|10=168|8=FIX.4.4|9=58|35=0|34=103|49=T1Kauaiblk1|52=20201202-14:25:19.490|56=MA|10=160|8=FIX.4.4|9=58|35=0|34=104|49=T1Kauaiblk1|52=20201202-14:26:50.489|56=MA|10=165|8=FIX.4.4|9=58|35=0|34=105|49=T1Kauaiblk1|52=20201202-14:28:20.490|56=MA|10=157|8=FIX.4.4|9=58|35=0|34=106|49=T1Kauaiblk1|52=20201202-14:29:50.490|56=MA|10=162|8=FIX.4.4|9=58|35=0|34=107|49=T1Kauaiblk1|52=20201202-14:31:20.491|56=MA|10=154|8=FIX.4.4|9=58|35=0|34=108|49=T1Kauaiblk1|52=20201202-14:32:50.491|56=MA|10=159|8=FIX.4.4|9=58|35=0|34=109|49=T1Kauaiblk1|52=20201202-14:34:20.492|56=MA|10=160|8=FIX.4.4|9=58|35=0|34=110|49=T1Kauaiblk1|52=20201202-14:35:50.492|56=MA|10=156|8=FIX.4.4|9=58|35=0|34=111|49=T1Kauaiblk1|52=20201202-14:37:20.494|56=MA|10=158|8=FIX.4.4|9=58|35=0|34=112|49=T1Kauaiblk1|52=20201202-14:38:51.494|56=MA|10=164|8=FIX.4.4|9=58|35=0|34=113|49=T1Kauaiblk1|52=20201202-14:40:21.494|56=MA|10=155|8=FIX.4.4|9=58|35=0|34=114|49=T1Kauaiblk1|52=20201202-14:41:51.494|56=MA|10=160|8=FIX.4.4|9=58|35=0|34=115|49=T1Kauaiblk1|52=20201202-14:43:21.494|56=MA|10=160|8=FIX.4.4|9=58|35=0|34=116|49=T1Kauaiblk1|52=20201202-14:44:51.495|56=MA|10=166|8=FIX.4.4|9=58|35=0|34=117|49=T1Kauaiblk1|52=20201202-14:46:21.496|56=MA|10=167|8=FIX.4.4|9=58|35=0|34=118|49=T1Kauaiblk1|52=20201202-14:47:51.496|56=MA|10=172|8=FIX.4.4|9=58|35=0|34=119|49=T1Kauaiblk1|52=20201202-14:49:22.495|56=MA|10=172|8=FIX.4.4|9=58|35=0|34=120|49=T1Kauaiblk1|52=20201202-14:50:52.496|56=MA|10=160|8=FIX.4.4|9=58|35=0|34=121|49=T1Kauaiblk1|52=20201202-14:52:22.497|56=MA|10=161|8=FIX.4.4|9=58|35=0|34=122|49=T1Kauaiblk1|52=20201202-14:53:52.497|56=MA|10=166|8=FIX.4.4|9=642|35=E|34=123|49=T1Kauaiblk1|52=20201202-14:55:18.534|56=MA|66=MMAD-FIX44-ListID-011220-1216|394=2|68=5|73=5|11=FIX44-List-ClOrdID-1217|22=4|38=100000|48=US06051GEN51|54=1|55=[N/A/]|67=1|423=1|453=1|448=T1Kauaiblk1|447=C|452=11|11=FIX44-List-ClOrdID-1218|22=4|38=100000|48=US40434AAB52|54=1|55=[N/A]|67=2|11=FIX44-List-ClOrdID-1219|22=4|38=130000|48=US06738JYZ10|54=1|55=[N/A/]|67=1|453=1|448=T1Kauaiblk1|447=C|452=11|11=FIX44-List-ClOrdID-1220|22=4|38=250000|48=US95709TAH32|54=1|55=[N/A/]|67=1|453=1|448=T1Kauaiblk1|447=C|452=11|11=FIX44-List-ClOrdID-1221|22=4|38=350000|48=US29379VAW37|54=1|55=[N/A/]|67=1|453=1|448=T1Kauaiblk1|447=C|452=11|10=107|8=FIX.4.4|9=58|35=0|34=124|49=T1Kauaiblk1|52=20201202-14:56:49.498|56=MA|10=178|8=FIX.4.4|9=58|35=0|34=125|49=T1Kauaiblk1|52=20201202-14:58:19.498|56=MA|10=178|8=FIX.4.4|9=58|35=0|34=126|49=T1Kauaiblk1|52=20201202-14:59:49.500|56=MA|10=167|8=FIX.4.4|9=58|35=0|34=127|49=T1Kauaiblk1|52=20201202-15:01:19.817|56=MA|10=164|8=FIX.4.4|9=58|35=0|34=128|49=T1Kauaiblk1|52=20201202-15:02:50.500|56=MA|10=150|8=FIX.4.4|9=58|35=0|34=129|49=T1Kauaiblk1|52=20201202-15:04:20.500|56=MA|10=150|8=FIX.4.4|9=58|35=0|34=130|49=T1Kauaiblk1|52=20201202-15:05:50.500|56=MA|10=146|8=FIX.4.4|9=58|35=0|34=131|49=T1Kauaiblk1|52=20201202-15:07:20.501|56=MA|10=147|8=FIX.4.4|9=58|35=0|34=132|49=T1Kauaiblk1|52=20201202-15:08:50.501|56=MA|10=152|8=FIX.4.4|9=58|35=0|34=133|49=T1Kauaiblk1|52=20201202-15:10:20.501|56=MA|10=143|8=FIX.4.4|9=58|35=0|34=134|49=T1Kauaiblk1|52=20201202-15:11:50.502|56=MA|10=149|8=FIX.4.4|9=58|35=0|34=135|49=T1Kauaiblk1|52=20201202-15:13:20.502|56=MA|10=149|8=FIX.4.4|9=58|35=0|34=136|49=T1Kauaiblk1|52=20201202-15:14:50.502|56=MA|10=154|8=FIX.4.4|9=58|35=0|34=137|49=T1Kauaiblk1|52=20201202-15:16:20.503|56=MA|10=155|8=FIX.4.4|9=58|35=0|34=138|49=T1Kauaiblk1|52=20201202-15:17:50.503|56=MA|10=160|8=FIX.4.4|9=58|35=0|34=139|49=T1Kauaiblk1|52=20201202-15:19:20.503|56=MA|10=160|8=FIX.4.4|9=58|35=0|34=140|49=T1Kauaiblk1|52=20201202-15:20:50.503|56=MA|10=147|8=FIX.4.4|9=58|35=0|34=141|49=T1Kauaiblk1|52=20201202-15:22:20.505|56=MA|10=149|8=FIX.4.4|9=58|35=0|34=142|49=T1Kauaiblk1|52=20201202-15:23:50.505|56=MA|10=154|8=FIX.4.4|9=58|35=0|34=143|49=T1Kauaiblk1|52=20201202-15:25:20.507|56=MA|10=156|8=FIX.4.4|9=58|35=0|34=144|49=T1Kauaiblk1|52=20201202-15:26:51.506|56=MA|10=161|8=FIX.4.4|9=58|35=0|34=145|49=T1Kauaiblk1|52=20201202-15:28:21.507|56=MA|10=162|8=FIX.4.4|9=58|35=0|34=146|49=T1Kauaiblk1|52=20201202-15:29:52.505|56=MA|10=166|8=FIX.4.4|9=58|35=0|34=147|49=T1Kauaiblk1|52=20201202-15:31:22.506|56=MA|10=158|8=FIX.4.4|9=58|35=0|34=148|49=T1Kauaiblk1|52=20201202-15:32:52.507|56=MA|10=164|8=FIX.4.4|9=58|35=0|34=149|49=T1Kauaiblk1|52=20201202-15:34:22.507|56=MA|10=164|8=FIX.4.4|9=58|35=0|34=150|49=T1Kauaiblk1|52=20201202-15:35:52.508|56=MA|10=161|8=FIX.4.4|9=58|35=0|34=151|49=T1Kauaiblk1|52=20201202-15:37:22.508|56=MA|10=161|8=FIX.4.4|9=58|35=0|34=152|49=T1Kauaiblk1|52=20201202-15:38:52.508|56=MA|10=166|8=FIX.4.4|9=58|35=0|34=153|49=T1Kauaiblk1|52=20201202-15:40:22.510|56=MA|10=150|8=FIX.4.4|9=58|35=0|34=154|49=T1Kauaiblk1|52=20201202-15:41:53.509|56=MA|10=164|8=FIX.4.4|9=58|35=0|34=155|49=T1Kauaiblk1|52=20201202-15:43:23.510|56=MA|10=156|8=FIX.4.4|9=58|35=0|34=156|49=T1Kauaiblk1|52=20201202-15:44:53.512|56=MA|10=163|8=FIX.4.4|9=58|35=0|34=157|49=T1Kauaiblk1|52=20201202-15:46:23.513|56=MA|10=164|8=FIX.4.4|9=58|35=0|34=158|49=T1Kauaiblk1|52=20201202-15:47:53.514|56=MA|10=170|8=FIX.4.4|9=58|35=0|34=159|49=T1Kauaiblk1|52=20201202-15:49:23.516|56=MA|10=172|8=FIX.4.4|9=58|35=0|34=160|49=T1Kauaiblk1|52=20201202-15:50:53.516|56=MA|10=159|8=FIX.4.4|9=58|35=0|34=161|49=T1Kauaiblk1|52=20201202-15:52:23.520|56=MA|10=154|8=FIX.4.4|9=58|35=0|34=162|49=T1Kauaiblk1|52=20201202-15:53:54.520|56=MA|10=160|8=FIX.4.4|9=58|35=0|34=163|49=T1Kauaiblk1|52=20201202-15:55:24.521|56=MA|10=161|8=FIX.4.4|9=58|35=0|34=164|49=T1Kauaiblk1|52=20201202-15:56:54.524|56=MA|10=169|8=FIX.4.4|9=58|35=0|34=165|49=T1Kauaiblk1|52=20201202-15:58:24.525|56=MA|10=170|8=FIX.4.4|9=58|35=0|34=166|49=T1Kauaiblk1|52=20201202-15:59:54.525|56=MA|10=175|8=FIX.4.4|9=58|35=0|34=167|49=T1Kauaiblk1|52=20201202-16:01:24.528|56=MA|10=164|8=FIX.4.4|9=58|35=0|34=168|49=T1Kauaiblk1|52=20201202-16:02:54.530|56=MA|10=162|8=FIX.4.4|9=58|35=0|34=169|49=T1Kauaiblk1|52=20201202-16:04:24.530|56=MA|10=162|8=FIX.4.4|9=58|35=0|34=170|49=T1Kauaiblk1|52=20201202-16:05:54.531|56=MA|10=159|8=FIX.4.4|9=58|35=0|34=171|49=T1Kauaiblk1|52=20201202-16:07:24.533|56=MA|10=161|8=FIX.4.4|9=58|35=0|34=172|49=T1Kauaiblk1|52=20201202-16:08:54.533|56=MA|10=166|8=FIX.4.4|9=58|35=0|34=173|49=T1Kauaiblk1|52=20201202-16:10:24.536|56=MA|10=160|8=FIX.4.4|9=58|35=0|34=174|49=T1Kauaiblk1|52=20201202-16:11:54.537|56=MA|10=166|8=FIX.4.4|9=58|35=0|34=175|49=T1Kauaiblk1|52=20201202-16:13:24.538|56=MA|10=167|8=FIX.4.4|9=58|35=0|34=176|49=T1Kauaiblk1|52=20201202-16:14:54.540|56=MA|10=165|8=FIX.4.4|9=58|35=0|34=177|49=T1Kauaiblk1|52=20201202-16:16:24.541|56=MA|10=166|8=FIX.4.4|9=58|35=0|34=178|49=T1Kauaiblk1|52=20201202-16:17:54.541|56=MA|10=171|8=FIX.4.4|9=58|35=0|34=179|49=T1Kauaiblk1|52=20201202-16:19:24.543|56=MA|10=173|8=FIX.4.4|9=58|35=0|34=180|49=T1Kauaiblk1|52=20201202-16:20:54.545|56=MA|10=162|8=FIX.4.4|9=58|35=0|34=181|49=T1Kauaiblk1|52=20201202-16:22:24.545|56=MA|10=162|8=FIX.4.4|9=58|35=0|34=182|49=T1Kauaiblk1|52=20201202-16:23:54.547|56=MA|10=169|8=FIX.4.4|9=58|35=0|34=183|49=T1Kauaiblk1|52=20201202-16:25:24.550|56=MA|10=163|8=FIX.4.4|9=58|35=0|34=184|49=T1Kauaiblk1|52=20201202-16:26:55.549|56=MA|10=177|8=FIX.4.4|9=58|35=0|34=185|49=T1Kauaiblk1|52=20201202-16:28:25.551|56=MA|10=170|8=FIX.4.4|9=58|35=0|34=186|49=T1Kauaiblk1|52=20201202-16:29:55.552|56=MA|10=176|8=FIX.4.4|9=58|35=0|34=187|49=T1Kauaiblk1|52=20201202-16:31:25.554|56=MA|10=169|8=FIX.4.4|9=58|35=0|34=188|49=T1Kauaiblk1|52=20201202-16:32:55.554|56=MA|10=174|8=FIX.4.4|9=58|35=0|34=189|49=T1Kauaiblk1|52=20201202-16:34:25.555|56=MA|10=175|8=FIX.4.4|9=58|35=0|34=190|49=T1Kauaiblk1|52=20201202-16:35:55.558|56=MA|10=174|8=FIX.4.4|9=58|35=0|34=191|49=T1Kauaiblk1|52=20201202-16:37:26.556|56=MA|10=173|8=FIX.4.4|9=58|35=0|34=192|49=T1Kauaiblk1|52=20201202-16:38:56.558|56=MA|10=180|8=FIX.4.4|9=58|35=0|34=193|49=T1Kauaiblk1|52=20201202-16:40:26.560|56=MA|10=164|8=FIX.4.4|9=58|35=0|34=194|49=T1Kauaiblk1|52=20201202-16:41:56.561|56=MA|10=170|8=FIX.4.4|9=58|35=0|34=195|49=T1Kauaiblk1|52=20201202-16:43:26.562|56=MA|10=171|8=FIX.4.4|9=58|35=0|34=196|49=T1Kauaiblk1|52=20201202-16:44:56.562|56=MA|10=176|8=FIX.4.4|9=58|35=0|34=197|49=T1Kauaiblk1|52=20201202-16:46:26.563|56=MA|10=177|8=FIX.4.4|9=58|35=0|34=198|49=T1Kauaiblk1|52=20201202-16:47:56.565|56=MA|10=184|8=FIX.4.4|9=58|35=0|34=199|49=T1Kauaiblk1|52=20201202-16:49:26.565|56=MA|10=184|8=FIX.4.4|9=58|35=0|34=200|49=T1Kauaiblk1|52=20201202-16:50:56.566|56=MA|10=163|8=FIX.4.4|9=58|35=0|34=201|49=T1Kauaiblk1|52=20201202-16:52:26.568|56=MA|10=165|8=FIX.4.4|9=58|35=0|34=202|49=T1Kauaiblk1|52=20201202-16:53:56.569|56=MA|10=171|8=FIX.4.4|9=58|35=0|34=203|49=T1Kauaiblk1|52=20201202-16:55:26.569|56=MA|10=171|8=FIX.4.4|9=58|35=0|34=204|49=T1Kauaiblk1|52=20201202-16:56:56.571|56=MA|10=169|8=FIX.4.4|9=58|35=0|34=205|49=T1Kauaiblk1|52=20201202-16:58:26.571|56=MA|10=169|8=FIX.4.4|9=58|35=0|34=206|49=T1Kauaiblk1|52=20201202-16:59:56.573|56=MA|10=176|8=FIX.4.4|9=58|35=0|34=207|49=T1Kauaiblk1|52=20201202-17:01:26.573|56=MA|10=162|8=FIX.4.4|9=58|35=0|34=208|49=T1Kauaiblk1|52=20201202-17:02:56.575|56=MA|10=169|8=FIX.4.4|9=58|35=0|34=209|49=T1Kauaiblk1|52=20201202-17:04:26.575|56=MA|10=169|8=FIX.4.4|9=58|35=0|34=210|49=T1Kauaiblk1|52=20201202-17:05:56.575|56=MA|10=165|8=FIX.4.4|9=58|35=0|34=211|49=T1Kauaiblk1|52=20201202-17:07:26.577|56=MA|10=167|8=FIX.4.4|9=58|35=0|34=212|49=T1Kauaiblk1|52=20201202-17:08:56.578|56=MA|10=173|8=FIX.4.4|9=58|35=0|34=213|49=T1Kauaiblk1|52=20201202-17:10:26.579|56=MA|10=165|8=FIX.4.4|9=58|35=0|34=214|49=T1Kauaiblk1|52=20201202-17:11:56.579|56=MA|10=170|8=FIX.4.4|9=58|35=0|34=215|49=T1Kauaiblk1|52=20201202-17:13:26.581|56=MA|10=163|8=FIX.4.4|9=58|35=0|34=216|49=T1Kauaiblk1|52=20201202-17:14:56.583|56=MA|10=170|8=FIX.4.4|9=58|35=0|34=217|49=T1Kauaiblk1|52=20201202-17:16:27.583|56=MA|10=171|8=FIX.4.4|9=58|35=0|34=218|49=T1Kauaiblk1|52=20201202-17:17:57.583|56=MA|10=176|8=FIX.4.4|9=58|35=0|34=219|49=T1Kauaiblk1|52=20201202-17:19:27.585|56=MA|10=178|8=FIX.4.4|9=58|35=0|34=220|49=T1Kauaiblk1|52=20201202-17:20:57.585|56=MA|10=165|8=FIX.4.4|9=58|35=0|34=221|49=T1Kauaiblk1|52=20201202-17:22:27.586|56=MA|10=166|8=FIX.4.4|9=58|35=0|34=222|49=T1Kauaiblk1|52=20201202-17:23:57.586|56=MA|10=171|8=FIX.4.4|9=58|35=0|34=223|49=T1Kauaiblk1|52=20201202-17:25:27.587|56=MA|10=172|8=FIX.4.4|9=58|35=0|34=224|49=T1Kauaiblk1|52=20201202-17:26:57.589|56=MA|10=179|8=FIX.4.4|9=58|35=0|34=225|49=T1Kauaiblk1|52=20201202-17:28:27.589|56=MA|10=179|8=FIX.4.4|9=58|35=0|34=226|49=T1Kauaiblk1|52=20201202-17:29:57.590|56=MA|10=176|8=FIX.4.4|9=58|35=0|34=227|49=T1Kauaiblk1|52=20201202-17:31:27.592|56=MA|10=169|8=FIX.4.4|9=58|35=0|34=228|49=T1Kauaiblk1|52=20201202-17:32:58.591|56=MA|10=174|8=FIX.4.4|9=58|35=0|34=229|49=T1Kauaiblk1|52=20201202-17:34:28.592|56=MA|10=175|8=FIX.4.4|9=58|35=0|34=230|49=T1Kauaiblk1|52=20201202-17:35:58.593|56=MA|10=172|8=FIX.4.4|9=58|35=0|34=231|49=T1Kauaiblk1|52=20201202-17:37:28.594|56=MA|10=173|8=FIX.4.4|9=58|35=0|34=232|49=T1Kauaiblk1|52=20201202-17:38:58.595|56=MA|10=179|8=FIX.4.4|9=58|35=0|34=233|49=T1Kauaiblk1|52=20201202-17:40:28.595|56=MA|10=170|8=FIX.4.4|9=58|35=0|34=234|49=T1Kauaiblk1|52=20201202-17:41:58.595|56=MA|10=175|8=FIX.4.4|9=58|35=0|34=235|49=T1Kauaiblk1|52=20201202-17:43:28.597|56=MA|10=177|8=FIX.4.4|9=58|35=0|34=236|49=T1Kauaiblk1|52=20201202-17:44:58.597|56=MA|10=182|8=FIX.4.4|9=58|35=0|34=237|49=T1Kauaiblk1|52=20201202-17:46:28.598|56=MA|10=183|8=FIX.4.4|9=58|35=0|34=238|49=T1Kauaiblk1|52=20201202-17:47:58.599|56=MA|10=189|8=FIX.4.4|9=58|35=0|34=239|49=T1Kauaiblk1|52=20201202-17:49:28.600|56=MA|10=172|8=FIX.4.4|9=58|35=0|34=240|49=T1Kauaiblk1|52=20201202-17:50:58.600|56=MA|10=159|8=FIX.4.4|9=58|35=0|34=241|49=T1Kauaiblk1|52=20201202-17:52:28.602|56=MA|10=161|8=FIX.4.4|9=58|35=0|34=242|49=T1Kauaiblk1|52=20201202-17:53:59.603|56=MA|10=168|8=FIX.4.4|9=58|35=0|34=243|49=T1Kauaiblk1|52=20201202-17:55:29.603|56=MA|10=168|8=FIX.4.4|9=58|35=0|34=244|49=T1Kauaiblk1|52=20201202-17:56:59.603|56=MA|10=173|8=FIX.4.4|9=58|35=0|34=245|49=T1Kauaiblk1|52=20201202-17:58:29.603|56=MA|10=173|8=FIX.4.4|9=58|35=0|34=246|49=T1Kauaiblk1|52=20201202-17:59:59.605|56=MA|10=180|8=FIX.4.4|9=58|35=0|34=247|49=T1Kauaiblk1|52=20201202-18:01:29.605|56=MA|10=166|8=FIX.4.4|9=58|35=0|34=248|49=T1Kauaiblk1|52=20201202-18:02:59.607|56=MA|10=173|8=FIX.4.4|9=58|35=0|34=249|49=T1Kauaiblk1|52=20201202-18:04:30.606|56=MA|10=164|8=FIX.4.4|9=58|35=0|34=250|49=T1Kauaiblk1|52=20201202-18:06:00.608|56=MA|10=157|8=FIX.4.4|9=58|35=0|34=251|49=T1Kauaiblk1|52=20201202-18:07:31.608|56=MA|10=163|8=FIX.4.4|9=58|35=0|34=252|49=T1Kauaiblk1|52=20201202-18:09:01.608|56=MA|10=163|8=FIX.4.4|9=58|35=0|34=253|49=T1Kauaiblk1|52=20201202-18:10:31.609|56=MA|10=160|8=FIX.4.4|9=58|35=0|34=254|49=T1Kauaiblk1|52=20201202-18:12:01.610|56=MA|10=152|8=FIX.4.4|9=58|35=0|34=255|49=T1Kauaiblk1|52=20201202-18:13:31.611|56=MA|10=158|8=FIX.4.4|9=58|35=0|34=256|49=T1Kauaiblk1|52=20201202-18:15:01.611|56=MA|10=158|8=FIX.4.4|9=58|35=0|34=257|49=T1Kauaiblk1|52=20201202-18:16:31.612|56=MA|10=164|8=FIX.4.4|9=58|35=0|34=258|49=T1Kauaiblk1|52=20201202-18:18:01.612|56=MA|10=164|8=FIX.4.4|9=58|35=0|34=259|49=T1Kauaiblk1|52=20201202-18:19:31.613|56=MA|10=170|8=FIX.4.4|9=58|35=0|34=260|49=T1Kauaiblk1|52=20201202-18:21:01.613|56=MA|10=152|8=FIX.4.4|9=58|35=0|34=261|49=T1Kauaiblk1|52=20201202-18:22:31.614|56=MA|10=158|8=FIX.4.4|9=58|35=0|34=262|49=T1Kauaiblk1|52=20201202-18:24:01.615|56=MA|10=159|8=FIX.4.4|9=58|35=0|34=263|49=T1Kauaiblk1|52=20201202-18:25:31.615|56=MA|10=164|8=FIX.4.4|9=58|35=0|34=264|49=T1Kauaiblk1|52=20201202-18:27:01.615|56=MA|10=164|8=FIX.4.4|9=58|35=0|34=265|49=T1Kauaiblk1|52=20201202-18:28:31.617|56=MA|10=171|8=FIX.4.4|9=58|35=0|34=266|49=T1Kauaiblk1|52=20201202-18:30:01.617|56=MA|10=162|8=FIX.4.4|9=58|35=0|34=267|49=T1Kauaiblk1|52=20201202-18:31:31.617|56=MA|10=167|8=FIX.4.4|9=58|35=0|34=268|49=T1Kauaiblk1|52=20201202-18:33:01.619|56=MA|10=169|8=FIX.4.4|9=58|35=0|34=269|49=T1Kauaiblk1|52=20201202-18:34:31.620|56=MA|10=166|8=FIX.4.4|9=58|35=0|34=270|49=T1Kauaiblk1|52=20201202-18:36:02.619|56=MA|10=166|8=FIX.4.4|9=58|35=0|34=271|49=T1Kauaiblk1|52=20201202-18:37:32.621|56=MA|10=164|8=FIX.4.4|9=58|35=0|34=272|49=T1Kauaiblk1|52=20201202-18:39:02.621|56=MA|10=164|8=FIX.4.4|9=58|35=0|34=273|49=T1Kauaiblk1|52=20201202-18:40:32.621|56=MA|10=160|8=FIX.4.4|9=58|35=0|34=274|49=T1Kauaiblk1|52=20201202-18:42:02.621|56=MA|10=160|8=FIX.4.4|9=58|35=0|34=275|49=T1Kauaiblk1|52=20201202-18:43:32.623|56=MA|10=167|8=FIX.4.4|9=58|35=0|34=276|49=T1Kauaiblk1|52=20201202-18:45:03.622|56=MA|10=167|8=FIX.4.4|9=58|35=0|34=277|49=T1Kauaiblk1|52=20201202-18:46:33.623|56=MA|10=173|8=FIX.4.4|9=58|35=0|34=278|49=T1Kauaiblk1|52=20201202-18:48:03.623|56=MA|10=173|8=FIX.4.4|9=58|35=0|34=279|49=T1Kauaiblk1|52=20201202-18:49:33.625|56=MA|10=180|8=FIX.4.4|9=58|35=0|34=280|49=T1Kauaiblk1|52=20201202-18:51:04.625|56=MA|10=163|8=FIX.4.4|9=58|35=0|34=281|49=T1Kauaiblk1|52=20201202-18:52:34.625|56=MA|10=168|8=FIX.4.4|9=58|35=0|34=282|49=T1Kauaiblk1|52=20201202-18:54:04.627|56=MA|10=170|8=FIX.4.4|9=58|35=0|34=283|49=T1Kauaiblk1|52=20201202-18:55:35.625|56=MA|10=174|8=FIX.4.4|9=58|35=0|34=284|49=T1Kauaiblk1|52=20201202-18:57:05.626|56=MA|10=175|8=FIX.4.4|9=58|35=0|34=285|49=T1Kauaiblk1|52=20201202-18:58:35.628|56=MA|10=182|8=FIX.4.4|9=58|35=0|34=286|49=T1Kauaiblk1|52=20201202-19:00:06.627|56=MA|10=168|8=FIX.4.4|9=58|35=0|34=287|49=T1Kauaiblk1|52=20201202-19:01:36.628|56=MA|10=174|8=FIX.4.4|9=58|35=0|34=288|49=T1Kauaiblk1|52=20201202-19:03:06.629|56=MA|10=175|8=FIX.4.4|9=58|35=0|34=289|49=T1Kauaiblk1|52=20201202-19:04:37.628|56=MA|10=180|8=FIX.4.4|9=58|35=0|34=290|49=T1Kauaiblk1|52=20201202-19:06:07.628|56=MA|10=171|8=FIX.4.4|9=58|35=0|34=291|49=T1Kauaiblk1|52=20201202-19:07:37.630|56=MA|10=169|8=FIX.4.4|9=58|35=0|34=292|49=T1Kauaiblk1|52=20201202-19:09:08.629|56=MA|10=178|8=FIX.4.4|9=58|35=0|34=293|49=T1Kauaiblk1|52=20201202-19:10:38.630|56=MA|10=166|8=FIX.4.4|9=58|35=0|34=294|49=T1Kauaiblk1|52=20201202-19:12:08.630|56=MA|10=166|8=FIX.4.4|9=58|35=0|34=295|49=T1Kauaiblk1|52=20201202-19:13:38.631|56=MA|10=172|8=FIX.4.4|9=58|35=0|34=296|49=T1Kauaiblk1|52=20201202-19:15:08.631|56=MA|10=172|8=FIX.4.4|9=58|35=0|34=297|49=T1Kauaiblk1|52=20201202-19:16:38.632|56=MA|10=178|8=FIX.4.4|9=58|35=0|34=298|49=T1Kauaiblk1|52=20201202-19:18:08.633|56=MA|10=179|8=FIX.4.4|9=58|35=0|34=299|49=T1Kauaiblk1|52=20201202-19:19:38.633|56=MA|10=184|8=FIX.4.4|9=58|35=0|34=300|49=T1Kauaiblk1|52=20201202-19:21:08.634|56=MA|10=158|8=FIX.4.4|9=58|35=0|34=301|49=T1Kauaiblk1|52=20201202-19:22:38.635|56=MA|10=164|8=FIX.4.4|9=58|35=0|34=302|49=T1Kauaiblk1|52=20201202-19:24:08.636|56=MA|10=165|8=FIX.4.4|9=58|35=0|34=303|49=T1Kauaiblk1|52=20201202-19:25:38.636|56=MA|10=170|8=FIX.4.4|9=58|35=0|34=304|49=T1Kauaiblk1|52=20201202-19:27:08.636|56=MA|10=170|8=FIX.4.4|9=58|35=0|34=305|49=T1Kauaiblk1|52=20201202-19:28:38.636|56=MA|10=175|8=FIX.4.4|9=58|35=0|34=306|49=T1Kauaiblk1|52=20201202-19:30:08.636|56=MA|10=166|8=FIX.4.4|9=58|35=0|34=307|49=T1Kauaiblk1|52=20201202-19:31:38.637|56=MA|10=172|8=FIX.4.4|9=58|35=0|34=308|49=T1Kauaiblk1|52=20201202-19:33:09.636|56=MA|10=172|8=FIX.4.4|9=58|35=0|34=309|49=T1Kauaiblk1|52=20201202-19:34:39.638|56=MA|10=179|8=FIX.4.4|9=58|35=0|34=310|49=T1Kauaiblk1|52=20201202-19:36:10.638|56=MA|10=162|8=FIX.4.4|9=58|35=0|34=311|49=T1Kauaiblk1|52=20201202-19:37:40.640|56=MA|10=160|8=FIX.4.4|9=58|35=0|34=312|49=T1Kauaiblk1|52=20201202-19:39:11.639|56=MA|10=169|8=FIX.4.4|9=58|35=0|34=313|49=T1Kauaiblk1|52=20201202-19:40:41.639|56=MA|10=165|8=FIX.4.4|9=58|35=0|34=314|49=T1Kauaiblk1|52=20201202-19:42:11.639|56=MA|10=165|8=FIX.4.4|9=58|35=0|34=315|49=T1Kauaiblk1|52=20201202-19:43:41.640|56=MA|10=162|8=FIX.4.4|9=58|35=0|34=316|49=T1Kauaiblk1|52=20201202-19:45:11.641|56=MA|10=163|8=FIX.4.4|9=58|35=0|34=317|49=T1Kauaiblk1|52=20201202-19:46:42.640|56=MA|10=168|8=FIX.4.4|9=58|35=0|34=318|49=T1Kauaiblk1|52=20201202-19:48:12.641|56=MA|10=169|8=FIX.4.4|9=58|35=0|34=319|49=T1Kauaiblk1|52=20201202-19:49:42.642|56=MA|10=175|8=FIX.4.4|9=58|35=0|34=320|49=T1Kauaiblk1|52=20201202-19:51:12.642|56=MA|10=157|8=FIX.4.4|9=58|35=0|34=321|49=T1Kauaiblk1|52=20201202-19:52:42.643|56=MA|10=163|8=FIX.4.4|9=58|35=0|34=322|49=T1Kauaiblk1|52=20201202-19:54:13.643|56=MA|10=164|8=FIX.4.4|9=58|35=0|34=323|49=T1Kauaiblk1|52=20201202-19:55:43.644|56=MA|10=170|8=FIX.4.4|9=58|35=0|34=324|49=T1Kauaiblk1|52=20201202-19:57:14.643|56=MA|10=170|8=FIX.4.4|9=58|35=0|34=325|49=T1Kauaiblk1|52=20201202-19:58:44.643|56=MA|10=175|8=FIX.4.4|9=58|35=0|34=326|49=T1Kauaiblk1|52=20201202-20:00:14.645|56=MA|10=154|8=FIX.4.4|9=58|35=0|34=327|49=T1Kauaiblk1|52=20201202-20:01:45.644|56=MA|10=159|8=FIX.4.4|9=58|35=0|34=328|49=T1Kauaiblk1|52=20201202-20:03:15.644|56=MA|10=159|8=FIX.4.4|9=58|35=0|34=329|49=T1Kauaiblk1|52=20201202-20:04:45.645|56=MA|10=165|8=FIX.4.4|9=58|35=0|34=330|49=T1Kauaiblk1|52=20201202-20:06:15.646|56=MA|10=157|8=FIX.4.4|9=58|35=0|34=331|49=T1Kauaiblk1|52=20201202-20:07:45.647|56=MA|10=163|8=FIX.4.4|9=58|35=0|34=332|49=T1Kauaiblk1|52=20201202-20:09:16.647|56=MA|10=164|8=FIX.4.4|9=58|35=0|34=333|49=T1Kauaiblk1|52=20201202-20:10:46.647|56=MA|10=160|8=FIX.4.4|9=58|35=0|34=334|49=T1Kauaiblk1|52=20201202-20:12:16.648|56=MA|10=161|8=FIX.4.4|9=58|35=0|34=335|49=T1Kauaiblk1|52=20201202-20:13:46.648|56=MA|10=166|8=FIX.4.4|9=58|35=0|34=336|49=T1Kauaiblk1|52=20201202-20:15:17.648|56=MA|10=167|8=FIX.4.4|9=58|35=0|34=337|49=T1Kauaiblk1|52=20201202-20:16:47.648|56=MA|10=172|8=FIX.4.4|9=58|35=0|34=338|49=T1Kauaiblk1|52=20201202-20:18:17.648|56=MA|10=172|8=FIX.4.4|9=58|35=0|34=339|49=T1Kauaiblk1|52=20201202-20:19:47.648|56=MA|10=177|8=FIX.4.4|9=58|35=0|34=340|49=T1Kauaiblk1|52=20201202-20:21:17.649|56=MA|10=160|8=FIX.4.4|9=58|35=0|34=341|49=T1Kauaiblk1|52=20201202-20:22:47.650|56=MA|10=157|8=FIX.4.4|9=58|35=0|34=342|49=T1Kauaiblk1|52=20201202-20:24:17.650|56=MA|10=157|8=FIX.4.4|9=58|35=0|34=343|49=T1Kauaiblk1|52=20201202-20:25:47.650|56=MA|10=162|8=FIX.4.4|9=58|35=0|34=344|49=T1Kauaiblk1|52=20201202-20:27:17.650|56=MA|10=162|8=FIX.4.4|9=58|35=0|34=345|49=T1Kauaiblk1|52=20201202-20:28:47.651|56=MA|10=168|8=FIX.4.4|9=58|35=0|34=346|49=T1Kauaiblk1|52=20201202-20:30:17.651|56=MA|10=159|8=FIX.4.4|9=58|35=0|34=347|49=T1Kauaiblk1|52=20201202-20:31:47.651|56=MA|10=164|8=FIX.4.4|9=58|35=0|34=348|49=T1Kauaiblk1|52=20201202-20:33:17.652|56=MA|10=165|8=FIX.4.4|9=58|35=0|34=349|49=T1Kauaiblk1|52=20201202-20:34:47.653|56=MA|10=171|8=FIX.4.4|9=58|35=0|34=350|49=T1Kauaiblk1|52=20201202-20:36:18.653|56=MA|10=163|8=FIX.4.4|9=58|35=0|34=351|49=T1Kauaiblk1|52=20201202-20:37:48.653|56=MA|10=168|8=FIX.4.4|9=58|35=0|34=352|49=T1Kauaiblk1|52=20201202-20:39:18.653|56=MA|10=168|8=FIX.4.4|9=58|35=0|34=353|49=T1Kauaiblk1|52=20201202-20:40:48.653|56=MA|10=164|8=FIX.4.4|9=58|35=0|34=354|49=T1Kauaiblk1|52=20201202-20:42:18.653|56=MA|10=164|8=FIX.4.4|9=58|35=0|34=355|49=T1Kauaiblk1|52=20201202-20:43:48.654|56=MA|10=170|8=FIX.4.4|9=58|35=0|34=356|49=T1Kauaiblk1|52=20201202-20:45:18.654|56=MA|10=170|8=FIX.4.4|9=58|35=0|34=357|49=T1Kauaiblk1|52=20201202-20:46:48.654|56=MA|10=175|8=FIX.4.4|9=58|35=0|34=358|49=T1Kauaiblk1|52=20201202-20:48:18.654|56=MA|10=175|8=FIX.4.4|9=58|35=0|34=359|49=T1Kauaiblk1|52=20201202-20:49:48.656|56=MA|10=182|8=FIX.4.4|9=58|35=0|34=360|49=T1Kauaiblk1|52=20201202-20:51:19.655|56=MA|10=164|8=FIX.4.4|9=58|35=0|34=361|49=T1Kauaiblk1|52=20201202-20:52:49.657|56=MA|10=171|8=FIX.4.4|9=58|35=0|34=362|49=T1Kauaiblk1|52=20201202-20:54:19.657|56=MA|10=171|8=FIX.4.4|9=58|35=0|34=363|49=T1Kauaiblk1|52=20201202-20:55:50.656|56=MA|10=167|8=FIX.4.4|9=58|35=0|34=364|49=T1Kauaiblk1|52=20201202-20:57:20.657|56=MA|10=168|8=FIX.4.4|9=58|35=0|34=365|49=T1Kauaiblk1|52=20201202-20:58:51.658|56=MA|10=175|8=FIX.4.4|9=58|35=0|34=366|49=T1Kauaiblk1|52=20201202-21:00:22.658|56=MA|10=162|8=FIX.4.4|9=58|35=0|34=367|49=T1Kauaiblk1|52=20201202-21:01:52.658|56=MA|10=167|8=FIX.4.4|9=58|35=0|34=368|49=T1Kauaiblk1|52=20201202-21:03:23.657|56=MA|10=167|8=FIX.4.4|9=58|35=0|34=369|49=T1Kauaiblk1|52=20201202-21:04:53.657|56=MA|10=172|8=FIX.4.4|9=58|35=0|34=370|49=T1Kauaiblk1|52=20201202-21:06:23.658|56=MA|10=164|8=FIX.4.4|9=58|35=0|34=371|49=T1Kauaiblk1|52=20201202-21:07:53.658|56=MA|10=169|8=FIX.4.4|9=58|35=0|34=372|49=T1Kauaiblk1|52=20201202-21:09:23.660|56=MA|10=162|8=FIX.4.4|9=58|35=0|34=373|49=T1Kauaiblk1|52=20201202-21:10:54.659|56=MA|10=167|8=FIX.4.4|9=58|35=0|34=374|49=T1Kauaiblk1|52=20201202-21:12:24.659|56=MA|10=167|8=FIX.4.4|9=58|35=0|34=375|49=T1Kauaiblk1|52=20201202-21:13:54.661|56=MA|10=165|8=FIX.4.4|9=58|35=0|34=376|49=T1Kauaiblk1|52=20201202-21:15:25.660|56=MA|10=165|8=FIX.4.4|9=58|35=0|34=377|49=T1Kauaiblk1|52=20201202-21:16:55.660|56=MA|10=170|8=FIX.4.4|9=58|35=0|34=378|49=T1Kauaiblk1|52=20201202-21:18:25.660|56=MA|10=170|8=FIX.4.4|9=58|35=0|34=379|49=T1Kauaiblk1|52=20201202-21:19:55.661|56=MA|10=176|8=FIX.4.4|9=58|35=0|34=380|49=T1Kauaiblk1|52=20201202-21:21:26.662|56=MA|10=160|8=FIX.4.4|9=58|35=0|34=381|49=T1Kauaiblk1|52=20201202-21:22:56.662|56=MA|10=165|8=FIX.4.4|9=58|35=0|34=382|49=T1Kauaiblk1|52=20201202-21:24:27.661|56=MA|10=165|8=FIX.4.4|9=58|35=0|34=383|49=T1Kauaiblk1|52=20201202-21:25:57.661|56=MA|10=170|8=FIX.4.4|9=58|35=0|34=384|49=T1Kauaiblk1|52=20201202-21:27:27.662|56=MA|10=171|8=FIX.4.4|9=58|35=0|34=385|49=T1Kauaiblk1|52=20201202-21:28:57.662|56=MA|10=176|8=FIX.4.4|9=58|35=0|34=386|49=T1Kauaiblk1|52=20201202-21:30:27.662|56=MA|10=167|8=FIX.4.4|9=58|35=0|34=387|49=T1Kauaiblk1|52=20201202-21:31:57.663|56=MA|10=173|8=FIX.4.4|9=58|35=0|34=388|49=T1Kauaiblk1|52=20201202-21:33:27.663|56=MA|10=173|8=FIX.4.4|9=58|35=0|34=389|49=T1Kauaiblk1|52=20201202-21:34:57.663|56=MA|10=178|8=FIX.4.4|9=58|35=0|34=390|49=T1Kauaiblk1|52=20201202-21:36:27.663|56=MA|10=169|8=FIX.4.4|9=58|35=0|34=391|49=T1Kauaiblk1|52=20201202-21:37:57.665|56=MA|10=176|8=FIX.4.4|9=58|35=0|34=392|49=T1Kauaiblk1|52=20201202-21:39:28.664|56=MA|10=176|8=FIX.4.4|9=58|35=0|34=393|49=T1Kauaiblk1|52=20201202-21:40:58.665|56=MA|10=173|8=FIX.4.4|9=58|35=0|34=394|49=T1Kauaiblk1|52=20201202-21:42:29.665|56=MA|10=174|8=FIX.4.4|9=58|35=0|34=395|49=T1Kauaiblk1|52=20201202-21:43:59.666|56=MA|10=180|8=FIX.4.4|9=58|35=0|34=396|49=T1Kauaiblk1|52=20201202-21:45:29.666|56=MA|10=180|8=FIX.4.4|9=58|35=0|34=397|49=T1Kauaiblk1|52=20201202-21:47:00.665|56=MA|10=171|8=FIX.4.4|9=58|35=0|34=398|49=T1Kauaiblk1|52=20201202-21:48:30.665|56=MA|10=176|8=FIX.4.4|9=58|35=0|34=399|49=T1Kauaiblk1|52=20201202-21:50:00.666|56=MA|10=168|8=FIX.4.4|9=58|35=0|34=400|49=T1Kauaiblk1|52=20201202-21:51:30.667|56=MA|10=156|8=FIX.4.4|9=58|35=0|34=401|49=T1Kauaiblk1|52=20201202-21:53:00.667|56=MA|10=156|8=FIX.4.4|9=58|35=0|34=402|49=T1Kauaiblk1|52=20201202-21:54:30.667|56=MA|10=161|8=FIX.4.4|9=58|35=0|34=403|49=T1Kauaiblk1|52=20201202-21:56:00.667|56=MA|10=161|8=FIX.4.4|9=58|35=0|34=404|49=T1Kauaiblk1|52=20201202-21:57:30.667|56=MA|10=166|8=FIX.4.4|9=58|35=0|34=405|49=T1Kauaiblk1|52=20201202-21:59:00.667|56=MA|10=166|8=FIX.4.4|9=58|35=0|34=406|49=T1Kauaiblk1|52=20201202-22:00:30.668|56=MA|10=158|8=FIX.4.4|9=58|35=0|34=407|49=T1Kauaiblk1|52=20201202-22:02:01.668|56=MA|10=159|8=FIX.4.4|9=58|35=0|34=408|49=T1Kauaiblk1|52=20201202-22:03:31.668|56=MA|10=164|8=FIX.4.4|9=58|35=0|34=409|49=T1Kauaiblk1|52=20201202-22:05:01.668|56=MA|10=164|8=FIX.4.4|9=58|35=0|34=410|49=T1Kauaiblk1|52=20201202-22:06:31.668|56=MA|10=160|8=FIX.4.4|9=58|35=0|34=411|49=T1Kauaiblk1|52=20201202-22:08:01.669|56=MA|10=161|8=FIX.4.4|9=58|35=0|34=412|49=T1Kauaiblk1|52=20201202-22:09:31.669|56=MA|10=166|8=FIX.4.4|9=58|35=0|34=413|49=T1Kauaiblk1|52=20201202-22:11:01.669|56=MA|10=157|8=FIX.4.4|9=58|35=0|34=414|49=T1Kauaiblk1|52=20201202-22:12:31.670|56=MA|10=154|8=FIX.4.4|9=58|35=0|34=415|49=T1Kauaiblk1|52=20201202-22:14:02.670|56=MA|10=155|8=FIX.4.4|9=58|35=0|34=416|49=T1Kauaiblk1|52=20201202-22:15:32.670|56=MA|10=160|8=FIX.4.4|9=58|35=0|34=417|49=T1Kauaiblk1|52=20201202-22:17:02.671|56=MA|10=161|8=FIX.4.4|9=58|35=0|34=418|49=T1Kauaiblk1|52=20201202-22:18:33.670|56=MA|10=166|8=FIX.4.4|9=58|35=0|34=419|49=T1Kauaiblk1|52=20201202-22:20:03.671|56=MA|10=158|8=FIX.4.4|9=58|35=0|34=420|49=T1Kauaiblk1|52=20201202-22:21:33.671|56=MA|10=154|8=FIX.4.4|9=58|35=0|34=421|49=T1Kauaiblk1|52=20201202-22:23:03.671|56=MA|10=154|8=FIX.4.4|9=58|35=0|34=422|49=T1Kauaiblk1|52=20201202-22:24:33.672|56=MA|10=160|8=FIX.4.4|9=58|35=0|34=423|49=T1Kauaiblk1|52=20201202-22:26:03.673|56=MA|10=161|8=FIX.4.4|9=58|35=0|34=424|49=T1Kauaiblk1|52=20201202-22:27:33.673|56=MA|10=166|8=FIX.4.4|9=58|35=0|34=425|49=T1Kauaiblk1|52=20201202-22:29:04.672|56=MA|10=166|8=FIX.4.4|9=58|35=0|34=426|49=T1Kauaiblk1|52=20201202-22:30:34.672|56=MA|10=162|8=FIX.4.4|9=58|35=0|34=427|49=T1Kauaiblk1|52=20201202-22:32:04.673|56=MA|10=163|8=FIX.4.4|9=58|35=0|34=428|49=T1Kauaiblk1|52=20201202-22:33:34.673|56=MA|10=168|8=FIX.4.4|9=58|35=0|34=429|49=T1Kauaiblk1|52=20201202-22:35:04.674|56=MA|10=169|8=FIX.4.4|9=58|35=0|34=430|49=T1Kauaiblk1|52=20201202-22:36:35.673|56=MA|10=165|8=FIX.4.4|9=58|35=0|34=431|49=T1Kauaiblk1|52=20201202-22:38:05.674|56=MA|10=166|8=FIX.4.4|9=58|35=0|34=432|49=T1Kauaiblk1|52=20201202-22:39:35.674|56=MA|10=171|8=FIX.4.4|9=58|35=0|34=433|49=T1Kauaiblk1|52=20201202-22:41:05.674|56=MA|10=162|8=FIX.4.4|9=58|35=0|34=434|49=T1Kauaiblk1|52=20201202-22:42:35.674|56=MA|10=167|8=FIX.4.4|9=58|35=0|34=435|49=T1Kauaiblk1|52=20201202-22:44:05.675|56=MA|10=168|8=FIX.4.4|9=58|35=0|34=436|49=T1Kauaiblk1|52=20201202-22:45:35.676|56=MA|10=174|8=FIX.4.4|9=58|35=0|34=437|49=T1Kauaiblk1|52=20201202-22:47:06.675|56=MA|10=174|8=FIX.4.4|9=58|35=0|34=438|49=T1Kauaiblk1|52=20201202-22:48:36.675|56=MA|10=179|8=FIX.4.4|9=58|35=0|34=439|49=T1Kauaiblk1|52=20201202-22:50:06.676|56=MA|10=171|8=FIX.4.4|9=58|35=0|34=440|49=T1Kauaiblk1|52=20201202-22:51:37.676|56=MA|10=168|8=FIX.4.4|9=58|35=0|34=441|49=T1Kauaiblk1|52=20201202-22:53:07.676|56=MA|10=168|8=FIX.4.4|9=58|35=0|34=442|49=T1Kauaiblk1|52=20201202-22:54:37.676|56=MA|10=173|8=FIX.4.4|9=58|35=0|34=443|49=T1Kauaiblk1|52=20201202-22:56:07.677|56=MA|10=174|8=FIX.4.4|9=58|35=0|34=444|49=T1Kauaiblk1|52=20201202-22:57:38.677|56=MA|10=180|8=FIX.4.4|9=58|35=0|34=445|49=T1Kauaiblk1|52=20201202-22:59:09.677|56=MA|10=181|8=FIX.4.4|9=58|35=0|34=446|49=T1Kauaiblk1|52=20201202-23:00:39.677|56=MA|10=172|8=FIX.4.4|9=58|35=0|34=447|49=T1Kauaiblk1|52=20201202-23:02:09.677|56=MA|10=172|8=FIX.4.4|9=58|35=0|34=448|49=T1Kauaiblk1|52=20201202-23:03:39.678|56=MA|10=178|8=FIX.4.4|9=58|35=5|34=449|49=T1Kauaiblk1|52=20201202-23:05:00.583|56=MA|10=169|8=FIX.4.4|9=87|35=A|34=450|49=T1Kauaiblk1|52=20201203-10:07:43.587|56=MA|98=0|108=90|95=8|96=3.0.0rc5|10=098|8=FIX.4.4|9=109|35=5|34=451|49=T1Kauaiblk1|52=20201203-10:07:44.420|56=MA|58=MsgSeqNum too low, expecting 457 but received 1|10=209|8=FIX.4.4|9=91|35=A|34=1|49=T1Kauaiblk1|52=20201203-10:10:07.586|56=MA|98=0|108=90|95=8|96=3.0.0rc5|141=Y|10=027|8=FIX.4.4|9=640|35=E|34=2|49=T1Kauaiblk1|52=20201203-10:10:36.729|56=MA|66=MMAD-FIX44-ListID-031220-1216|394=2|68=5|73=5|11=FIX44-List-ClOrdID-1217|22=4|38=100000|48=US06051GEN51|54=1|55=[N/A/]|67=1|423=1|453=1|448=T1Kauaiblk1|447=C|452=11|11=FIX44-List-ClOrdID-1218|22=4|38=100000|48=US40434AAB52|54=1|55=[N/A]|67=2|11=FIX44-List-ClOrdID-1219|22=4|38=130000|48=US06738JYZ10|54=1|55=[N/A/]|67=1|453=1|448=T1Kauaiblk1|447=C|452=11|11=FIX44-List-ClOrdID-1220|22=4|38=250000|48=US95709TAH32|54=1|55=[N/A/]|67=1|453=1|448=T1Kauaiblk1|447=C|452=11|11=FIX44-List-ClOrdID-1221|22=4|38=350000|48=US29379VAW37|54=1|55=[N/A/]|67=1|453=1|448=T1Kauaiblk1|447=C|452=11|10=001|8=FIX.4.4|9=56|35=0|34=3|49=T1Kauaiblk1|52=20201203-10:12:07.589|56=MA|10=060|8=FIX.4.4|9=56|35=0|34=4|49=T1Kauaiblk1|52=20201203-10:13:37.590|56=MA|10=057|8=FIX.4.4|9=56|35=0|34=5|49=T1Kauaiblk1|52=20201203-10:15:07.590|56=MA|10=057|8=FIX.4.4|9=56|35=0|34=6|49=T1Kauaiblk1|52=20201203-10:16:37.591|56=MA|10=063|8=FIX.4.4|9=56|35=0|34=7|49=T1Kauaiblk1|52=20201203-10:18:07.594|56=MA|10=066|8=FIX.4.4|9=56|35=0|34=8|49=T1Kauaiblk1|52=20201203-10:19:37.595|56=MA|10=072|8=FIX.4.4|9=56|35=0|34=9|49=T1Kauaiblk1|52=20201203-10:21:07.597|56=MA|10=065|8=FIX.4.4|9=57|35=0|34=10|49=T1Kauaiblk1|52=20201203-10:22:37.598|56=MA|10=111|8=FIX.4.4|9=57|35=0|34=11|49=T1Kauaiblk1|52=20201203-10:24:07.601|56=MA|10=096|8=FIX.4.4|9=57|35=0|34=12|49=T1Kauaiblk1|52=20201203-10:25:37.601|56=MA|10=101|8=FIX.4.4|9=57|35=0|34=13|49=T1Kauaiblk1|52=20201203-10:27:07.603|56=MA|10=103|8=FIX.4.4|9=57|35=0|34=14|49=T1Kauaiblk1|52=20201203-10:28:37.604|56=MA|10=109|8=FIX.4.4|9=57|35=0|34=15|49=T1Kauaiblk1|52=20201203-10:30:07.605|56=MA|10=101|8=FIX.4.4|9=57|35=0|34=16|49=T1Kauaiblk1|52=20201203-10:31:37.608|56=MA|10=109|8=FIX.4.4|9=57|35=0|34=17|49=T1Kauaiblk1|52=20201203-10:33:07.608|56=MA|10=109|8=FIX.4.4|9=57|35=0|34=18|49=T1Kauaiblk1|52=20201203-10:34:37.610|56=MA|10=107|8=FIX.4.4|9=57|35=0|34=19|49=T1Kauaiblk1|52=20201203-10:36:07.611|56=MA|10=108|8=FIX.4.4|9=57|35=0|34=20|49=T1Kauaiblk1|52=20201203-10:37:37.612|56=MA|10=105|8=FIX.4.4|9=57|35=0|34=21|49=T1Kauaiblk1|52=20201203-10:39:07.613|56=MA|10=106|8=FIX.4.4|9=57|35=0|34=22|49=T1Kauaiblk1|52=20201203-10:40:37.616|56=MA|10=105|8=FIX.4.4|9=57|35=0|34=23|49=T1Kauaiblk1|52=20201203-10:42:07.616|56=MA|10=105|8=FIX.4.4|9=57|35=0|34=24|49=T1Kauaiblk1|52=20201203-10:43:37.617|56=MA|10=111|8=FIX.4.4|9=57|35=0|34=25|49=T1Kauaiblk1|52=20201203-10:45:07.618|56=MA|10=112|8=FIX.4.4|9=57|35=0|34=26|49=T1Kauaiblk1|52=20201203-10:46:37.621|56=MA|10=111|8=FIX.4.4|9=57|35=0|34=27|49=T1Kauaiblk1|52=20201203-10:48:08.620|56=MA|10=111|8=FIX.4.4|9=57|35=0|34=28|49=T1Kauaiblk1|52=20201203-10:49:38.622|56=MA|10=118|8=FIX.4.4|9=57|35=0|34=29|49=T1Kauaiblk1|52=20201203-10:51:08.623|56=MA|10=110|8=FIX.4.4|9=57|35=0|34=30|49=T1Kauaiblk1|52=20201203-10:52:38.624|56=MA|10=107|8=FIX.4.4|9=57|35=0|34=31|49=T1Kauaiblk1|52=20201203-10:54:08.625|56=MA|10=108|8=FIX.4.4|9=57|35=0|34=32|49=T1Kauaiblk1|52=20201203-10:55:38.626|56=MA|10=114|8=FIX.4.4|9=57|35=0|34=33|49=T1Kauaiblk1|52=20201203-10:57:08.629|56=MA|10=117|8=FIX.4.4|9=57|35=0|34=34|49=T1Kauaiblk1|52=20201203-10:58:38.629|56=MA|10=122|8=FIX.4.4|9=57|35=0|34=35|49=T1Kauaiblk1|52=20201203-11:00:08.630|56=MA|10=100|8=FIX.4.4|9=57|35=0|34=36|49=T1Kauaiblk1|52=20201203-11:01:38.631|56=MA|10=106|8=FIX.4.4|9=57|35=0|34=37|49=T1Kauaiblk1|52=20201203-11:03:08.633|56=MA|10=108|8=FIX.4.4|9=57|35=0|34=38|49=T1Kauaiblk1|52=20201203-11:04:38.633|56=MA|10=113|8=FIX.4.4|9=57|35=0|34=39|49=T1Kauaiblk1|52=20201203-11:06:08.635|56=MA|10=115|8=FIX.4.4|9=57|35=0|34=40|49=T1Kauaiblk1|52=20201203-11:07:38.636|56=MA|10=112|8=FIX.4.4|9=57|35=0|34=41|49=T1Kauaiblk1|52=20201203-11:09:08.637|56=MA|10=113|8=FIX.4.4|9=57|35=0|34=42|49=T1Kauaiblk1|52=20201203-11:10:38.638|56=MA|10=110|8=FIX.4.4|9=57|35=0|34=43|49=T1Kauaiblk1|52=20201203-11:12:08.639|56=MA|10=111|8=FIX.4.4|9=57|35=0|34=44|49=T1Kauaiblk1|52=20201203-11:13:38.641|56=MA|10=109|8=FIX.4.4|9=57|35=0|34=45|49=T1Kauaiblk1|52=20201203-11:15:08.641|56=MA|10=109|8=FIX.4.4|9=57|35=0|34=46|49=T1Kauaiblk1|52=20201203-11:16:38.642|56=MA|10=115|8=FIX.4.4|9=57|35=0|34=47|49=T1Kauaiblk1|52=20201203-11:18:08.643|56=MA|10=116|8=FIX.4.4|9=57|35=0|34=48|49=T1Kauaiblk1|52=20201203-11:19:38.646|56=MA|10=124|8=FIX.4.4|9=57|35=0|34=49|49=T1Kauaiblk1|52=20201203-11:21:09.646|56=MA|10=116|8=FIX.4.4|9=57|35=0|34=50|49=T1Kauaiblk1|52=20201203-11:22:39.646|56=MA|10=112|8=FIX.4.4|9=57|35=0|34=51|49=T1Kauaiblk1|52=20201203-11:24:09.647|56=MA|10=113|8=FIX.4.4|9=57|35=0|34=52|49=T1Kauaiblk1|52=20201203-11:25:39.650|56=MA|10=112|8=FIX.4.4|9=57|35=0|34=53|49=T1Kauaiblk1|52=20201203-11:27:10.650|56=MA|10=104|8=FIX.4.4|9=57|35=0|34=54|49=T1Kauaiblk1|52=20201203-11:28:40.650|56=MA|10=109|8=FIX.4.4|9=57|35=0|34=55|49=T1Kauaiblk1|52=20201203-11:30:10.652|56=MA|10=102|8=FIX.4.4|9=57|35=0|34=56|49=T1Kauaiblk1|52=20201203-11:31:40.653|56=MA|10=108|8=FIX.4.4|9=57|35=0|34=57|49=T1Kauaiblk1|52=20201203-11:33:10.653|56=MA|10=108|8=FIX.4.4|9=57|35=0|34=58|49=T1Kauaiblk1|52=20201203-11:34:40.655|56=MA|10=115|8=FIX.4.4|9=57|35=0|34=59|49=T1Kauaiblk1|52=20201203-11:36:10.655|56=MA|10=115|8=FIX.4.4|9=57|35=0|34=60|49=T1Kauaiblk1|52=20201203-11:37:40.656|56=MA|10=112|8=FIX.4.4|9=57|35=0|34=61|49=T1Kauaiblk1|52=20201203-11:39:10.657|56=MA|10=113|8=FIX.4.4|9=57|35=0|34=62|49=T1Kauaiblk1|52=20201203-11:40:40.658|56=MA|10=110|8=FIX.4.4|9=57|35=0|34=63|49=T1Kauaiblk1|52=20201203-11:42:10.658|56=MA|10=110|8=FIX.4.4|9=57|35=0|34=64|49=T1Kauaiblk1|52=20201203-11:43:40.660|56=MA|10=108|8=FIX.4.4|9=57|35=0|34=65|49=T1Kauaiblk1|52=20201203-11:45:10.661|56=MA|10=109|8=FIX.4.4|9=57|35=0|34=66|49=T1Kauaiblk1|52=20201203-11:46:40.662|56=MA|10=115|8=FIX.4.4|9=57|35=0|34=67|49=T1Kauaiblk1|52=20201203-11:48:10.662|56=MA|10=115|8=FIX.4.4|9=57|35=0|34=68|49=T1Kauaiblk1|52=20201203-11:49:40.663|56=MA|10=121|8=FIX.4.4|9=57|35=0|34=69|49=T1Kauaiblk1|52=20201203-11:51:10.663|56=MA|10=112|8=FIX.4.4|9=57|35=0|34=70|49=T1Kauaiblk1|52=20201203-11:52:40.664|56=MA|10=109|8=FIX.4.4|9=57|35=0|34=71|49=T1Kauaiblk1|52=20201203-11:54:10.665|56=MA|10=110|8=FIX.4.4|9=57|35=0|34=72|49=T1Kauaiblk1|52=20201203-11:55:40.667|56=MA|10=117|8=FIX.4.4|9=57|35=0|34=73|49=T1Kauaiblk1|52=20201203-11:57:10.667|56=MA|10=117|8=FIX.4.4|9=57|35=0|34=74|49=T1Kauaiblk1|52=20201203-11:58:40.667|56=MA|10=122|8=FIX.4.4|9=57|35=0|34=75|49=T1Kauaiblk1|52=20201203-12:00:10.669|56=MA|10=110|8=FIX.4.4|9=57|35=0|34=76|49=T1Kauaiblk1|52=20201203-12:01:40.671|56=MA|10=108|8=FIX.4.4|9=57|35=0|34=77|49=T1Kauaiblk1|52=20201203-12:03:11.670|56=MA|10=108|8=FIX.4.4|9=57|35=0|34=78|49=T1Kauaiblk1|52=20201203-12:04:41.671|56=MA|10=114|8=FIX.4.4|9=57|35=0|34=79|49=T1Kauaiblk1|52=20201203-12:06:11.672|56=MA|10=115|8=FIX.4.4|9=57|35=0|34=80|49=T1Kauaiblk1|52=20201203-12:07:41.673|56=MA|10=112|8=FIX.4.4|9=57|35=0|34=81|49=T1Kauaiblk1|52=20201203-12:09:11.675|56=MA|10=114|8=FIX.4.4|9=57|35=0|34=82|49=T1Kauaiblk1|52=20201203-12:10:42.674|56=MA|10=110|8=FIX.4.4|9=57|35=0|34=83|49=T1Kauaiblk1|52=20201203-12:12:12.675|56=MA|10=111|8=FIX.4.4|9=57|35=0|34=84|49=T1Kauaiblk1|52=20201203-12:13:42.677|56=MA|10=118|8=FIX.4.4|9=57|35=0|34=85|49=T1Kauaiblk1|52=20201203-12:15:12.678|56=MA|10=119|8=FIX.4.4|9=57|35=0|34=86|49=T1Kauaiblk1|52=20201203-12:16:43.678|56=MA|10=125|8=FIX.4.4|9=57|35=0|34=87|49=T1Kauaiblk1|52=20201203-12:18:13.678|56=MA|10=125|8=FIX.4.4|9=57|35=0|34=88|49=T1Kauaiblk1|52=20201203-12:19:43.679|56=MA|10=131|8=FIX.4.4|9=57|35=0|34=89|49=T1Kauaiblk1|52=20201203-12:21:13.680|56=MA|10=114|8=FIX.4.4|9=57|35=0|34=90|49=T1Kauaiblk1|52=20201203-12:22:44.680|56=MA|10=111|8=FIX.4.4|9=57|35=0|34=91|49=T1Kauaiblk1|52=20201203-12:24:14.680|56=MA|10=111|8=FIX.4.4|9=57|35=0|34=92|49=T1Kauaiblk1|52=20201203-12:25:44.682|56=MA|10=118|8=FIX.4.4|9=57|35=0|34=93|49=T1Kauaiblk1|52=20201203-12:27:14.682|56=MA|10=118|8=FIX.4.4|9=57|35=0|34=94|49=T1Kauaiblk1|52=20201203-12:28:44.684|56=MA|10=125|8=FIX.4.4|9=57|35=0|34=95|49=T1Kauaiblk1|52=20201203-12:30:14.685|56=MA|10=117|8=FIX.4.4|9=57|35=0|34=96|49=T1Kauaiblk1|52=20201203-12:31:44.685|56=MA|10=122|8=FIX.4.4|9=57|35=0|34=97|49=T1Kauaiblk1|52=20201203-12:33:14.685|56=MA|10=122|8=FIX.4.4|9=57|35=0|34=98|49=T1Kauaiblk1|52=20201203-12:34:44.685|56=MA|10=127|8=FIX.4.4|9=57|35=0|34=99|49=T1Kauaiblk1|52=20201203-12:36:14.686|56=MA|10=128|8=FIX.4.4|9=58|35=0|34=100|49=T1Kauaiblk1|52=20201203-12:37:44.686|56=MA|10=164|8=FIX.4.4|9=58|35=0|34=101|49=T1Kauaiblk1|52=20201203-12:39:14.687|56=MA|10=165|8=FIX.4.4|9=58|35=0|34=102|49=T1Kauaiblk1|52=20201203-12:40:44.688|56=MA|10=162|8=FIX.4.4|9=58|35=0|34=103|49=T1Kauaiblk1|52=20201203-12:42:14.690|56=MA|10=155|8=FIX.4.4|9=58|35=0|34=104|49=T1Kauaiblk1|52=20201203-12:43:45.690|56=MA|10=161|8=FIX.4.4|9=58|35=0|34=105|49=T1Kauaiblk1|52=20201203-12:45:15.690|56=MA|10=161|8=FIX.4.4|9=58|35=0|34=106|49=T1Kauaiblk1|52=20201203-12:46:45.690|56=MA|10=166|8=FIX.4.4|9=58|35=0|34=107|49=T1Kauaiblk1|52=20201203-12:48:15.692|56=MA|10=168|8=FIX.4.4|9=58|35=0|34=108|49=T1Kauaiblk1|52=20201203-12:49:45.692|56=MA|10=173|8=FIX.4.4|9=58|35=0|34=109|49=T1Kauaiblk1|52=20201203-12:51:15.692|56=MA|10=164|8=FIX.4.4|9=58|35=0|34=110|49=T1Kauaiblk1|52=20201203-12:52:45.693|56=MA|10=161|8=FIX.4.4|9=58|35=0|34=111|49=T1Kauaiblk1|52=20201203-12:54:15.693|56=MA|10=161|8=FIX.4.4|9=58|35=0|34=112|49=T1Kauaiblk1|52=20201203-12:55:45.694|56=MA|10=167|8=FIX.4.4|9=58|35=0|34=113|49=T1Kauaiblk1|52=20201203-12:57:15.696|56=MA|10=169|8=FIX.4.4|9=58|35=0|34=114|49=T1Kauaiblk1|52=20201203-12:58:45.696|56=MA|10=174|8=FIX.4.4|9=58|35=0|34=115|49=T1Kauaiblk1|52=20201203-13:00:15.696|56=MA|10=160|8=FIX.4.4|9=58|35=0|34=116|49=T1Kauaiblk1|52=20201203-13:01:45.696|56=MA|10=165|8=FIX.4.4|9=58|35=0|34=117|49=T1Kauaiblk1|52=20201203-13:03:15.698|56=MA|10=167|8=FIX.4.4|9=58|35=0|34=118|49=T1Kauaiblk1|52=20201203-13:04:45.698|56=MA|10=172|8=FIX.4.4|9=58|35=0|34=119|49=T1Kauaiblk1|52=20201203-13:06:15.699|56=MA|10=173|8=FIX.4.4|9=58|35=0|34=120|49=T1Kauaiblk1|52=20201203-13:07:46.242|56=MA|10=154|8=FIX.4.4|9=58|35=0|34=121|49=T1Kauaiblk1|52=20201203-13:09:16.700|56=MA|10=153|8=FIX.4.4|9=58|35=0|34=122|49=T1Kauaiblk1|52=20201203-13:10:46.700|56=MA|10=149|8=FIX.4.4|9=58|35=0|34=123|49=T1Kauaiblk1|52=20201203-13:12:16.700|56=MA|10=149|8=FIX.4.4|9=58|35=0|34=124|49=T1Kauaiblk1|52=20201203-13:13:46.701|56=MA|10=155|8=FIX.4.4|9=58|35=0|34=125|49=T1Kauaiblk1|52=20201203-13:15:16.703|56=MA|10=157|8=FIX.4.4|9=58|35=0|34=126|49=T1Kauaiblk1|52=20201203-13:16:46.703|56=MA|10=162|8=FIX.4.4|9=58|35=0|34=127|49=T1Kauaiblk1|52=20201203-13:18:16.704|56=MA|10=163|8=FIX.4.4|9=58|35=0|34=128|49=T1Kauaiblk1|52=20201203-13:19:47.703|56=MA|10=168|8=FIX.4.4|9=58|35=0|34=129|49=T1Kauaiblk1|52=20201203-13:21:17.703|56=MA|10=159|8=FIX.4.4|9=58|35=0|34=130|49=T1Kauaiblk1|52=20201203-13:22:47.704|56=MA|10=156|8=FIX.4.4|9=58|35=0|34=131|49=T1Kauaiblk1|52=20201203-13:24:17.704|56=MA|10=156|8=FIX.4.4|9=58|35=0|34=132|49=T1Kauaiblk1|52=20201203-13:25:47.706|56=MA|10=163|8=FIX.4.4|9=58|35=0|34=133|49=T1Kauaiblk1|52=20201203-13:27:18.705|56=MA|10=163|8=FIX.4.4|9=58|35=0|34=134|49=T1Kauaiblk1|52=20201203-13:28:48.706|56=MA|10=169|8=FIX.4.4|9=58|35=0|34=135|49=T1Kauaiblk1|52=20201203-13:30:18.706|56=MA|10=160|8=FIX.4.4|9=58|35=0|34=136|49=T1Kauaiblk1|52=20201203-13:31:48.707|56=MA|10=166|8=FIX.4.4|9=58|35=0|34=137|49=T1Kauaiblk1|52=20201203-13:33:18.707|56=MA|10=166|8=FIX.4.4|9=58|35=0|34=138|49=T1Kauaiblk1|52=20201203-13:34:48.708|56=MA|10=172|8=FIX.4.4|9=58|35=0|34=139|49=T1Kauaiblk1|52=20201203-13:36:18.708|56=MA|10=172|8=FIX.4.4|9=58|35=0|34=140|49=T1Kauaiblk1|52=20201203-13:37:48.710|56=MA|10=161|8=FIX.4.4|9=58|35=0|34=141|49=T1Kauaiblk1|52=20201203-13:39:18.710|56=MA|10=161|8=FIX.4.4|9=58|35=0|34=142|49=T1Kauaiblk1|52=20201203-13:40:48.711|56=MA|10=158|8=FIX.4.4|9=58|35=0|34=143|49=T1Kauaiblk1|52=20201203-13:42:18.711|56=MA|10=158|8=FIX.4.4|9=58|35=0|34=144|49=T1Kauaiblk1|52=20201203-13:43:48.711|56=MA|10=163|8=FIX.4.4|9=58|35=0|34=145|49=T1Kauaiblk1|52=20201203-13:45:18.712|56=MA|10=164|8=FIX.4.4|9=58|35=0|34=146|49=T1Kauaiblk1|52=20201203-13:46:48.712|56=MA|10=169|8=FIX.4.4|9=58|35=0|34=147|49=T1Kauaiblk1|52=20201203-13:48:18.713|56=MA|10=170|8=FIX.4.4|9=58|35=0|34=148|49=T1Kauaiblk1|52=20201203-13:49:48.713|56=MA|10=175|8=FIX.4.4|9=58|35=0|34=149|49=T1Kauaiblk1|52=20201203-13:51:18.713|56=MA|10=166|8=FIX.4.4|9=58|35=0|34=150|49=T1Kauaiblk1|52=20201203-13:52:48.713|56=MA|10=162|8=FIX.4.4|9=58|35=0|34=151|49=T1Kauaiblk1|52=20201203-13:54:18.715|56=MA|10=164|8=FIX.4.4|9=58|35=0|34=152|49=T1Kauaiblk1|52=20201203-13:55:48.715|56=MA|10=169|8=FIX.4.4|9=58|35=0|34=153|49=T1Kauaiblk1|52=20201203-13:57:18.715|56=MA|10=169|8=FIX.4.4|9=58|35=0|34=154|49=T1Kauaiblk1|52=20201203-13:58:48.715|56=MA|10=174|8=FIX.4.4|9=58|35=0|34=155|49=T1Kauaiblk1|52=20201203-14:00:18.716|56=MA|10=161|8=FIX.4.4|9=58|35=0|34=156|49=T1Kauaiblk1|52=20201203-14:01:48.717|56=MA|10=167|8=FIX.4.4|9=58|35=0|34=157|49=T1Kauaiblk1|52=20201203-14:03:19.717|56=MA|10=168|8=FIX.4.4|9=58|35=0|34=158|49=T1Kauaiblk1|52=20201203-14:04:49.717|56=MA|10=173|8=FIX.4.4|9=58|35=0|34=159|49=T1Kauaiblk1|52=20201203-14:06:19.717|56=MA|10=173|8=FIX.4.4|9=58|35=0|34=160|49=T1Kauaiblk1|52=20201203-14:07:49.718|56=MA|10=170|8=FIX.4.4|9=58|35=0|34=161|49=T1Kauaiblk1|52=20201203-14:09:19.720|56=MA|10=163|8=FIX.4.4|9=58|35=0|34=162|49=T1Kauaiblk1|52=20201203-14:10:49.720|56=MA|10=159|8=FIX.4.4|9=58|35=0|34=163|49=T1Kauaiblk1|52=20201203-14:12:20.720|56=MA|10=151|8=FIX.4.4|9=58|35=0|34=164|49=T1Kauaiblk1|52=20201203-14:13:50.720|56=MA|10=156|8=FIX.4.4|9=58|35=0|34=165|49=T1Kauaiblk1|52=20201203-14:15:20.720|56=MA|10=156|8=FIX.4.4|9=58|35=0|34=166|49=T1Kauaiblk1|52=20201203-14:16:50.721|56=MA|10=162|8=FIX.4.4|9=58|35=0|34=167|49=T1Kauaiblk1|52=20201203-14:18:20.722|56=MA|10=163|8=FIX.4.4|9=58|35=0|34=168|49=T1Kauaiblk1|52=20201203-14:19:50.722|56=MA|10=168|8=FIX.4.4|9=58|35=0|34=169|49=T1Kauaiblk1|52=20201203-14:21:21.721|56=MA|10=159|8=FIX.4.4|9=58|35=0|34=170|49=T1Kauaiblk1|52=20201203-14:22:51.722|56=MA|10=156|8=FIX.4.4|9=58|35=0|34=171|49=T1Kauaiblk1|52=20201203-14:24:21.723|56=MA|10=157|8=FIX.4.4|9=58|35=0|34=172|49=T1Kauaiblk1|52=20201203-14:25:51.723|56=MA|10=162|8=FIX.4.4|9=58|35=0|34=173|49=T1Kauaiblk1|52=20201203-14:27:21.723|56=MA|10=162|8=FIX.4.4|9=58|35=0|34=174|49=T1Kauaiblk1|52=20201203-14:28:51.725|56=MA|10=169|8=FIX.4.4|9=58|35=0|34=175|49=T1Kauaiblk1|52=20201203-14:30:22.725|56=MA|10=161|8=FIX.4.4|9=58|35=0|34=176|49=T1Kauaiblk1|52=20201203-14:31:52.725|56=MA|10=166|8=FIX.4.4|9=58|35=0|34=177|49=T1Kauaiblk1|52=20201203-14:33:22.725|56=MA|10=166|8=FIX.4.4|9=58|35=0|34=178|49=T1Kauaiblk1|52=20201203-14:34:52.725|56=MA|10=171|8=FIX.4.4|9=58|35=0|34=179|49=T1Kauaiblk1|52=20201203-14:36:22.727|56=MA|10=173|8=FIX.4.4|9=58|35=0|34=180|49=T1Kauaiblk1|52=20201203-14:37:53.726|56=MA|10=169|8=FIX.4.4|9=58|35=0|34=181|49=T1Kauaiblk1|52=20201203-14:39:23.727|56=MA|10=170|8=FIX.4.4|9=58|35=0|34=182|49=T1Kauaiblk1|52=20201203-14:40:54.726|56=MA|10=166|8=FIX.4.4|9=58|35=0|34=183|49=T1Kauaiblk1|52=20201203-14:42:24.728|56=MA|10=168|8=FIX.4.4|9=58|35=0|34=184|49=T1Kauaiblk1|52=20201203-14:43:55.727|56=MA|10=173|8=FIX.4.4|9=58|35=0|34=185|49=T1Kauaiblk1|52=20201203-14:45:25.728|56=MA|10=174|8=FIX.4.4|9=58|35=0|34=186|49=T1Kauaiblk1|52=20201203-14:46:55.729|56=MA|10=180|8=FIX.4.4|9=58|35=0|34=187|49=T1Kauaiblk1|52=20201203-14:48:25.730|56=MA|10=172|8=FIX.4.4|9=58|35=0|34=188|49=T1Kauaiblk1|52=20201203-14:49:56.728|56=MA|10=185|8=FIX.4.4|9=58|35=0|34=189|49=T1Kauaiblk1|52=20201203-14:51:26.730|56=MA|10=169|8=FIX.4.4|9=58|35=0|34=190|49=T1Kauaiblk1|52=20201203-14:52:57.729|56=MA|10=174|8=FIX.4.4|9=58|35=0|34=191|49=T1Kauaiblk1|52=20201203-14:54:27.731|56=MA|10=167|8=FIX.4.4|9=58|35=0|34=192|49=T1Kauaiblk1|52=20201203-14:55:57.731|56=MA|10=172|8=FIX.4.4|9=58|35=0|34=193|49=T1Kauaiblk1|52=20201203-14:57:27.732|56=MA|10=173|8=FIX.4.4|9=58|35=0|34=194|49=T1Kauaiblk1|52=20201203-14:58:57.732|56=MA|10=178|8=FIX.4.4|9=58|35=0|34=195|49=T1Kauaiblk1|52=20201203-15:00:27.732|56=MA|10=164|8=FIX.4.4|9=58|35=0|34=196|49=T1Kauaiblk1|52=20201203-15:01:57.732|56=MA|10=169|8=FIX.4.4|9=58|35=0|34=197|49=T1Kauaiblk1|52=20201203-15:03:27.733|56=MA|10=170|8=FIX.4.4|9=58|35=0|34=198|49=T1Kauaiblk1|52=20201203-15:04:57.733|56=MA|10=175|8=FIX.4.4|9=58|35=0|34=199|49=T1Kauaiblk1|52=20201203-15:06:28.732|56=MA|10=175|8=FIX.4.4|9=58|35=0|34=200|49=T1Kauaiblk1|52=20201203-15:07:58.733|56=MA|10=163|8=FIX.4.4|9=58|35=0|34=201|49=T1Kauaiblk1|52=20201203-15:09:28.733|56=MA|10=163|8=FIX.4.4|9=58|35=0|34=202|49=T1Kauaiblk1|52=20201203-15:10:58.733|56=MA|10=159|8=FIX.4.4|9=58|35=0|34=203|49=T1Kauaiblk1|52=20201203-15:12:28.734|56=MA|10=160|8=FIX.4.4|9=58|35=0|34=204|49=T1Kauaiblk1|52=20201203-15:13:58.736|56=MA|10=167|8=FIX.4.4|9=58|35=0|34=205|49=T1Kauaiblk1|52=20201203-15:15:29.735|56=MA|10=167|8=FIX.4.4|9=58|35=0|34=206|49=T1Kauaiblk1|52=20201203-15:16:59.736|56=MA|10=173|8=FIX.4.4|9=58|35=0|34=207|49=T1Kauaiblk1|52=20201203-15:18:30.735|56=MA|10=164|8=FIX.4.4|9=58|35=0|34=208|49=T1Kauaiblk1|52=20201203-15:20:00.736|56=MA|10=156|8=FIX.4.4|9=58|35=0|34=209|49=T1Kauaiblk1|52=20201203-15:21:30.737|56=MA|10=162|8=FIX.4.4|9=58|35=0|34=210|49=T1Kauaiblk1|52=20201203-15:23:01.737|56=MA|10=154|8=FIX.4.4|9=58|35=0|34=211|49=T1Kauaiblk1|52=20201203-15:24:32.737|56=MA|10=160|8=FIX.4.4|9=58|35=0|34=212|49=T1Kauaiblk1|52=20201203-15:26:02.737|56=MA|10=160|8=FIX.4.4|9=58|35=0|34=213|49=T1Kauaiblk1|52=20201203-15:27:32.738|56=MA|10=166|8=FIX.4.4|9=58|35=0|34=214|49=T1Kauaiblk1|52=20201203-15:29:03.737|56=MA|10=166|8=FIX.4.4|9=58|35=0|34=215|49=T1Kauaiblk1|52=20201203-15:30:33.738|56=MA|10=163|8=FIX.4.4|9=58|35=0|34=216|49=T1Kauaiblk1|52=20201203-15:32:03.738|56=MA|10=163|8=FIX.4.4|9=58|35=0|34=217|49=T1Kauaiblk1|52=20201203-15:33:33.738|56=MA|10=168|8=FIX.4.4|9=58|35=0|34=218|49=T1Kauaiblk1|52=20201203-15:35:03.739|56=MA|10=169|8=FIX.4.4|9=58|35=0|34=219|49=T1Kauaiblk1|52=20201203-15:36:33.739|56=MA|10=174|8=FIX.4.4|9=58|35=0|34=220|49=T1Kauaiblk1|52=20201203-15:38:03.739|56=MA|10=165|8=FIX.4.4|9=58|35=0|34=221|49=T1Kauaiblk1|52=20201203-15:39:33.739|56=MA|10=170|8=FIX.4.4|9=58|35=0|34=222|49=T1Kauaiblk1|52=20201203-15:41:03.741|56=MA|10=154|8=FIX.4.4|9=58|35=0|34=223|49=T1Kauaiblk1|52=20201203-15:42:34.740|56=MA|10=159|8=FIX.4.4|9=58|35=0|34=224|49=T1Kauaiblk1|52=20201203-15:44:04.740|56=MA|10=159|8=FIX.4.4|9=58|35=0|34=225|49=T1Kauaiblk1|52=20201203-15:45:34.741|56=MA|10=165|8=FIX.4.4|9=58|35=0|34=226|49=T1Kauaiblk1|52=20201203-15:47:04.741|56=MA|10=165|8=FIX.4.4|9=58|35=0|34=227|49=T1Kauaiblk1|52=20201203-15:48:34.741|56=MA|10=170|8=FIX.4.4|9=58|35=0|34=228|49=T1Kauaiblk1|52=20201203-15:50:04.741|56=MA|10=161|8=FIX.4.4|9=58|35=0|34=229|49=T1Kauaiblk1|52=20201203-15:51:34.741|56=MA|10=166|8=FIX.4.4|9=58|35=0|34=230|49=T1Kauaiblk1|52=20201203-15:53:04.742|56=MA|10=158|8=FIX.4.4|9=58|35=0|34=231|49=T1Kauaiblk1|52=20201203-15:54:34.742|56=MA|10=163|8=FIX.4.4|9=58|35=0|34=232|49=T1Kauaiblk1|52=20201203-15:56:04.742|56=MA|10=163|8=FIX.4.4|9=58|35=0|34=233|49=T1Kauaiblk1|52=20201203-15:57:34.742|56=MA|10=168|8=FIX.4.4|9=58|35=0|34=234|49=T1Kauaiblk1|52=20201203-15:59:04.743|56=MA|10=169|8=FIX.4.4|9=58|35=0|34=235|49=T1Kauaiblk1|52=20201203-16:00:34.745|56=MA|10=162|8=FIX.4.4|9=58|35=0|34=236|49=T1Kauaiblk1|52=20201203-16:02:05.744|56=MA|10=162|8=FIX.4.4|9=58|35=0|34=237|49=T1Kauaiblk1|52=20201203-16:03:36.744|56=MA|10=168|8=FIX.4.4|9=58|35=0|34=238|49=T1Kauaiblk1|52=20201203-16:05:06.744|56=MA|10=168|8=FIX.4.4|9=58|35=0|34=239|49=T1Kauaiblk1|52=20201203-16:06:36.745|56=MA|10=174|8=FIX.4.4|9=58|35=0|34=240|49=T1Kauaiblk1|52=20201203-16:08:06.746|56=MA|10=166|8=FIX.4.4|9=58|35=0|34=241|49=T1Kauaiblk1|52=20201203-16:09:36.746|56=MA|10=171|8=FIX.4.4|9=58|35=0|34=242|49=T1Kauaiblk1|52=20201203-16:11:07.745|56=MA|10=162|8=FIX.4.4|9=58|35=0|34=243|49=T1Kauaiblk1|52=20201203-16:12:37.745|56=MA|10=167|8=FIX.4.4|9=58|35=0|34=244|49=T1Kauaiblk1|52=20201203-16:14:07.746|56=MA|10=168|8=FIX.4.4|9=58|35=0|34=245|49=T1Kauaiblk1|52=20201203-16:15:37.748|56=MA|10=175|8=FIX.4.4|9=58|35=0|34=246|49=T1Kauaiblk1|52=20201203-16:17:08.747|56=MA|10=175|8=FIX.4.4|9=58|35=0|34=247|49=T1Kauaiblk1|52=20201203-16:18:38.747|56=MA|10=180|8=FIX.4.4|9=58|35=0|34=248|49=T1Kauaiblk1|52=20201203-16:20:08.748|56=MA|10=172|8=FIX.4.4|9=58|35=0|34=249|49=T1Kauaiblk1|52=20201203-16:21:38.748|56=MA|10=177|8=FIX.4.4|9=58|35=0|34=250|49=T1Kauaiblk1|52=20201203-16:23:09.747|56=MA|10=168|8=FIX.4.4|9=58|35=0|34=251|49=T1Kauaiblk1|52=20201203-16:24:39.748|56=MA|10=174|8=FIX.4.4|9=58|35=0|34=252|49=T1Kauaiblk1|52=20201203-16:26:09.748|56=MA|10=174|8=FIX.4.4|9=58|35=0|34=253|49=T1Kauaiblk1|52=20201203-16:27:39.749|56=MA|10=180|8=FIX.4.4|9=58|35=0|34=254|49=T1Kauaiblk1|52=20201203-16:29:09.749|56=MA|10=180|8=FIX.4.4|9=58|35=0|34=255|49=T1Kauaiblk1|52=20201203-16:30:39.750|56=MA|10=168|8=FIX.4.4|9=58|35=0|34=256|49=T1Kauaiblk1|52=20201203-16:32:10.749|56=MA|10=168|8=FIX.4.4|9=58|35=0|34=257|49=T1Kauaiblk1|52=20201203-16:33:40.749|56=MA|10=173|8=FIX.4.4|9=58|35=0|34=258|49=T1Kauaiblk1|52=20201203-16:35:10.749|56=MA|10=173|8=FIX.4.4|9=58|35=0|34=259|49=T1Kauaiblk1|52=20201203-16:36:40.749|56=MA|10=178|8=FIX.4.4|9=58|35=0|34=260|49=T1Kauaiblk1|52=20201203-16:38:10.750|56=MA|10=161|8=FIX.4.4|9=58|35=0|34=261|49=T1Kauaiblk1|52=20201203-16:39:40.750|56=MA|10=166|8=FIX.4.4|9=58|35=0|34=262|49=T1Kauaiblk1|52=20201203-16:41:10.752|56=MA|10=159|8=FIX.4.4|9=58|35=0|34=263|49=T1Kauaiblk1|52=20201203-16:42:41.752|56=MA|10=165|8=FIX.4.4|9=58|35=0|34=264|49=T1Kauaiblk1|52=20201203-16:44:12.752|56=MA|10=166|8=FIX.4.4|9=58|35=0|34=265|49=T1Kauaiblk1|52=20201203-16:45:42.752|56=MA|10=171|8=FIX.4.4|9=58|35=0|34=266|49=T1Kauaiblk1|52=20201203-16:47:13.752|56=MA|10=172|8=FIX.4.4|9=58|35=0|34=267|49=T1Kauaiblk1|52=20201203-16:48:43.752|56=MA|10=177|8=FIX.4.4|9=58|35=0|34=268|49=T1Kauaiblk1|52=20201203-16:50:13.752|56=MA|10=168|8=FIX.4.4|9=58|35=0|34=269|49=T1Kauaiblk1|52=20201203-16:51:43.752|56=MA|10=173|8=FIX.4.4|9=58|35=0|34=270|49=T1Kauaiblk1|52=20201203-16:53:13.752|56=MA|10=164|8=FIX.4.4|9=58|35=0|34=271|49=T1Kauaiblk1|52=20201203-16:54:43.753|56=MA|10=170|8=FIX.4.4|9=58|35=0|34=272|49=T1Kauaiblk1|52=20201203-16:56:13.754|56=MA|10=171|8=FIX.4.4|9=58|35=0|34=273|49=T1Kauaiblk1|52=20201203-16:57:44.754|56=MA|10=177|8=FIX.4.4|9=58|35=0|34=274|49=T1Kauaiblk1|52=20201203-16:59:14.754|56=MA|10=177|8=FIX.4.4|9=58|35=0|34=275|49=T1Kauaiblk1|52=20201203-17:00:44.755|56=MA|10=169|8=FIX.4.4|9=58|35=0|34=276|49=T1Kauaiblk1|52=20201203-17:02:15.755|56=MA|10=170|8=FIX.4.4|9=58|35=0|34=277|49=T1Kauaiblk1|52=20201203-17:03:46.755|56=MA|10=176|8=FIX.4.4|9=58|35=0|34=278|49=T1Kauaiblk1|52=20201203-17:05:16.755|56=MA|10=176|8=FIX.4.4|9=58|35=0|34=279|49=T1Kauaiblk1|52=20201203-17:06:46.755|56=MA|10=181|8=FIX.4.4|9=58|35=0|34=280|49=T1Kauaiblk1|52=20201203-17:08:16.755|56=MA|10=172|8=FIX.4.4|9=58|35=0|34=281|49=T1Kauaiblk1|52=20201203-17:09:46.756|56=MA|10=178|8=FIX.4.4|9=58|35=0|34=282|49=T1Kauaiblk1|52=20201203-17:11:17.756|56=MA|10=170|8=FIX.4.4|9=58|35=0|34=283|49=T1Kauaiblk1|52