8=FIX.4.4|9=81|35=A|34=1|49=MMJBAER|52=20181129-08:50:30.268|56=MA|98=0|108=90|95=8|96=3.0.0rc4|10=034|8=FIX.4.4|9=52|35=0|34=2|49=MMJBAER|52=20181129-08:52:01.261|56=MA|10=097|8=FIX.4.4|9=52|35=0|34=3|49=MMJBAER|52=20181129-08:53:31.471|56=MA|10=105|8=FIX.4.4|9=52|35=0|34=4|49=MMJBAER|52=20181129-08:55:02.258|56=MA|10=109|8=FIX.4.4|9=52|35=0|34=5|49=MMJBAER|52=20181129-08:56:32.661|56=MA|10=112|8=FIX.4.4|9=52|35=0|34=6|49=MMJBAER|52=20181129-08:58:03.257|56=MA|10=114|8=FIX.4.4|9=52|35=0|34=7|49=MMJBAER|52=20181129-08:59:33.268|56=MA|10=121|8=FIX.4.4|9=52|35=0|34=8|49=MMJBAER|52=20181129-09:01:04.257|56=MA|10=106|8=FIX.4.4|9=52|35=0|34=9|49=MMJBAER|52=20181129-09:02:34.494|56=MA|10=114|8=FIX.4.4|9=53|35=0|34=10|49=MMJBAER|52=20181129-09:04:04.897|56=MA|10=161|8=FIX.4.4|9=53|35=0|34=11|49=MMJBAER|52=20181129-09:05:35.256|56=MA|10=156|8=FIX.4.4|9=53|35=0|34=12|49=MMJBAER|52=20181129-09:07:05.256|56=MA|10=156|8=FIX.4.4|9=53|35=0|34=13|49=MMJBAER|52=20181129-09:08:35.269|56=MA|10=165|8=FIX.4.4|9=53|35=0|34=14|49=MMJBAER|52=20181129-09:10:05.349|56=MA|10=155|8=FIX.4.4|9=53|35=0|34=15|49=MMJBAER|52=20181129-09:11:35.413|56=MA|10=152|8=FIX.4.4|9=53|35=0|34=16|49=MMJBAER|52=20181129-09:13:06.254|56=MA|10=156|8=FIX.4.4|9=53|35=0|34=17|49=MMJBAER|52=20181129-09:14:36.265|56=MA|10=163|8=FIX.4.4|9=53|35=0|34=18|49=MMJBAER|52=20181129-09:16:06.266|56=MA|10=164|8=FIX.4.4|9=53|35=0|34=19|49=MMJBAER|52=20181129-09:17:37.256|56=MA|10=169|8=FIX.4.4|9=53|35=0|34=20|49=MMJBAER|52=20181129-09:19:07.262|56=MA|10=157|8=FIX.4.4|9=53|35=0|34=21|49=MMJBAER|52=20181129-09:20:38.250|56=MA|10=151|8=FIX.4.4|9=53|35=0|34=22|49=MMJBAER|52=20181129-09:22:08.264|56=MA|10=156|8=FIX.4.4|9=53|35=0|34=23|49=MMJBAER|52=20181129-09:23:38.340|56=MA|10=156|8=FIX.4.4|9=53|35=0|34=24|49=MMJBAER|52=20181129-09:25:08.372|56=MA|10=161|8=FIX.4.4|9=53|35=0|34=25|49=MMJBAER|52=20181129-09:26:38.463|56=MA|10=167|8=FIX.4.4|9=53|35=0|34=26|49=MMJBAER|52=20181129-09:28:09.253|56=MA|10=165|8=FIX.4.4|9=53|35=0|34=27|49=MMJBAER|52=20181129-09:29:39.255|56=MA|10=172|8=FIX.4.4|9=53|35=0|34=28|49=MMJBAER|52=20181129-09:31:09.255|56=MA|10=163|8=FIX.4.4|9=53|35=0|34=29|49=MMJBAER|52=20181129-09:32:39.439|56=MA|10=172|8=FIX.4.4|9=53|35=0|34=30|49=MMJBAER|52=20181129-09:34:09.624|56=MA|10=159|8=FIX.4.4|9=53|35=0|34=31|49=MMJBAER|52=20181129-09:35:40.249|56=MA|10=159|8=FIX.4.4|9=53|35=0|34=32|49=MMJBAER|52=20181129-09:37:10.468|56=MA|10=162|8=FIX.4.4|9=53|35=0|34=33|49=MMJBAER|52=20181129-09:38:41.257|56=MA|10=164|8=FIX.4.4|9=53|35=0|34=34|49=MMJBAER|52=20181129-09:40:11.424|56=MA|10=151|8=FIX.4.4|9=53|35=0|34=35|49=MMJBAER|52=20181129-09:41:42.254|56=MA|10=158|8=FIX.4.4|9=53|35=0|34=36|49=MMJBAER|52=20181129-09:43:12.257|56=MA|10=161|8=FIX.4.4|9=53|35=0|34=37|49=MMJBAER|52=20181129-09:44:42.443|56=MA|10=163|8=FIX.4.4|9=53|35=0|34=38|49=MMJBAER|52=20181129-09:46:12.839|56=MA|10=172|8=FIX.4.4|9=53|35=0|34=39|49=MMJBAER|52=20181129-09:47:43.249|56=MA|10=173|8=FIX.4.4|9=53|35=0|34=40|49=MMJBAER|52=20181129-09:49:13.411|56=MA|10=155|8=FIX.4.4|9=53|35=0|34=41|49=MMJBAER|52=20181129-09:50:43.457|56=MA|10=161|8=FIX.4.4|9=53|35=0|34=42|49=MMJBAER|52=20181129-09:52:14.241|56=MA|10=153|8=FIX.4.4|9=53|35=0|34=43|49=MMJBAER|52=20181129-09:53:44.245|56=MA|10=162|8=FIX.4.4|9=53|35=0|34=44|49=MMJBAER|52=20181129-09:55:14.343|56=MA|10=161|8=FIX.4.4|9=53|35=0|34=45|49=MMJBAER|52=20181129-09:56:44.451|56=MA|10=166|8=FIX.4.4|9=53|35=0|34=46|49=MMJBAER|52=20181129-09:58:15.243|56=MA|10=166|8=FIX.4.4|9=53|35=0|34=47|49=MMJBAER|52=20181129-09:59:45.459|56=MA|10=180|8=FIX.4.4|9=53|35=0|34=48|49=MMJBAER|52=20181129-10:01:16.248|56=MA|10=154|8=FIX.4.4|9=53|35=0|34=49|49=MMJBAER|52=20181129-10:02:46.346|56=MA|10=158|8=FIX.4.4|9=53|35=0|34=50|49=MMJBAER|52=20181129-10:04:17.236|56=MA|10=148|8=FIX.4.4|9=53|35=0|34=51|49=MMJBAER|52=20181129-10:05:47.236|56=MA|10=153|8=FIX.4.4|9=53|35=0|34=52|49=MMJBAER|52=20181129-10:07:17.239|56=MA|10=156|8=FIX.4.4|9=53|35=0|34=53|49=MMJBAER|52=20181129-10:08:48.235|56=MA|10=158|8=FIX.4.4|9=53|35=0|34=54|49=MMJBAER|52=20181129-10:10:18.239|56=MA|10=153|8=FIX.4.4|9=53|35=0|34=55|49=MMJBAER|52=20181129-10:11:48.438|56=MA|10=159|8=FIX.4.4|9=53|35=0|34=56|49=MMJBAER|52=20181129-10:13:19.233|56=MA|10=153|8=FIX.4.4|9=53|35=0|34=57|49=MMJBAER|52=20181129-10:14:49.234|56=MA|10=159|8=FIX.4.4|9=53|35=0|34=58|49=MMJBAER|52=20181129-10:16:19.239|56=MA|10=164|8=FIX.4.4|9=53|35=0|34=59|49=MMJBAER|52=20181129-10:17:50.236|56=MA|10=158|8=FIX.4.4|9=53|35=0|34=60|49=MMJBAER|52=20181129-10:19:20.243|56=MA|10=147|8=FIX.4.4|9=53|35=0|34=61|49=MMJBAER|52=20181129-10:20:51.241|56=MA|10=142|8=FIX.4.4|9=53|35=0|34=62|49=MMJBAER|52=20181129-10:22:21.242|56=MA|10=143|8=FIX.4.4|9=53|35=0|34=63|49=MMJBAER|52=20181129-10:23:51.245|56=MA|10=151|8=FIX.4.4|9=53|35=0|34=64|49=MMJBAER|52=20181129-10:25:22.240|56=MA|10=147|8=FIX.4.4|9=53|35=0|34=65|49=MMJBAER|52=20181129-10:26:53.233|56=MA|10=155|8=FIX.4.4|9=53|35=0|34=66|49=MMJBAER|52=20181129-10:28:23.234|56=MA|10=156|8=FIX.4.4|9=53|35=0|34=67|49=MMJBAER|52=20181129-10:29:54.233|56=MA|10=161|8=FIX.4.4|9=53|35=0|34=68|49=MMJBAER|52=20181129-10:31:24.242|56=MA|10=152|8=FIX.4.4|9=53|35=0|34=69|49=MMJBAER|52=20181129-10:32:55.243|56=MA|10=159|8=FIX.4.4|9=53|35=0|34=70|49=MMJBAER|52=20181129-10:34:26.238|56=MA|10=155|8=FIX.4.4|9=53|35=0|34=71|49=MMJBAER|52=20181129-10:35:56.343|56=MA|10=157|8=FIX.4.4|9=53|35=0|34=72|49=MMJBAER|52=20181129-10:37:26.443|56=MA|10=158|8=FIX.4.4|9=53|35=0|34=73|49=MMJBAER|52=20181129-10:38:57.237|56=MA|10=165|8=FIX.4.4|9=53|35=0|34=74|49=MMJBAER|52=20181129-10:40:27.444|56=MA|10=156|8=FIX.4.4|9=53|35=0|34=75|49=MMJBAER|52=20181129-10:41:57.452|56=MA|10=160|8=FIX.4.4|9=53|35=0|34=76|49=MMJBAER|52=20181129-10:43:27.458|56=MA|10=166|8=FIX.4.4|9=53|35=0|34=77|49=MMJBAER|52=20181129-10:44:58.239|56=MA|10=169|8=FIX.4.4|9=53|35=0|34=78|49=MMJBAER|52=20181129-10:46:28.332|56=MA|10=163|8=FIX.4.4|9=53|35=0|34=79|49=MMJBAER|52=20181129-10:47:59.237|56=MA|10=173|8=FIX.4.4|9=53|35=0|34=80|49=MMJBAER|52=20181129-10:49:29.463|56=MA|10=165|8=FIX.4.4|9=53|35=0|34=81|49=MMJBAER|52=20181129-10:51:00.230|56=MA|10=140|8=FIX.4.4|9=53|35=0|34=82|49=MMJBAER|52=20181129-10:52:30.476|56=MA|10=157|8=FIX.4.4|9=53|35=0|34=83|49=MMJBAER|52=20181129-10:54:01.231|56=MA|10=147|8=FIX.4.4|9=53|35=0|34=84|49=MMJBAER|52=20181129-10:55:31.232|56=MA|10=153|8=FIX.4.4|9=53|35=0|34=85|49=MMJBAER|52=20181129-10:57:01.233|56=MA|10=154|8=FIX.4.4|9=53|35=0|34=86|49=MMJBAER|52=20181129-10:58:31.335|56=MA|10=162|8=FIX.4.4|9=53|35=0|34=87|49=MMJBAER|52=20181129-11:00:02.234|56=MA|10=147|8=FIX.4.4|9=53|35=0|34=88|49=MMJBAER|52=20181129-11:01:32.451|56=MA|10=153|8=FIX.4.4|9=53|35=0|34=89|49=MMJBAER|52=20181129-11:03:02.461|56=MA|10=154|8=FIX.4.4|9=53|35=0|34=90|49=MMJBAER|52=20181129-11:04:33.228|56=MA|10=152|8=FIX.4.4|9=53|35=0|34=91|49=MMJBAER|52=20181129-11:06:03.455|56=MA|10=154|8=FIX.4.4|9=53|35=0|34=92|49=MMJBAER|52=20181129-11:07:34.234|56=MA|10=155|8=FIX.4.4|9=53|35=0|34=93|49=MMJBAER|52=20181129-11:09:04.511|56=MA|10=153|8=FIX.4.4|9=53|35=0|34=94|49=MMJBAER|52=20181129-11:10:35.220|56=MA|10=147|8=FIX.4.4|9=53|35=0|34=95|49=MMJBAER|52=20181129-11:12:05.227|56=MA|10=154|8=FIX.4.4|9=53|35=0|34=96|49=MMJBAER|52=20181129-11:13:35.441|56=MA|10=157|8=FIX.4.4|9=53|35=0|34=97|49=MMJBAER|52=20181129-11:15:06.220|56=MA|10=153|8=FIX.4.4|9=53|35=0|34=98|49=MMJBAER|52=20181129-11:16:36.222|56=MA|10=160|8=FIX.4.4|9=53|35=0|34=99|49=MMJBAER|52=20181129-11:18:06.229|56=MA|10=167|8=FIX.4.4|9=54|35=0|34=100|49=MMJBAER|52=20181129-11:19:36.419|56=MA|10=204|8=FIX.4.4|9=54|35=0|34=101|49=MMJBAER|52=20181129-11:21:07.219|56=MA|10=194|8=FIX.4.4|9=54|35=0|34=102|49=MMJBAER|52=20181129-11:22:37.230|56=MA|10=192|8=FIX.4.4|9=54|35=0|34=103|49=MMJBAER|52=20181129-11:24:07.460|56=MA|10=197|8=FIX.4.4|9=54|35=0|34=104|49=MMJBAER|52=20181129-11:25:37.461|56=MA|10=203|8=FIX.4.4|9=54|35=0|34=105|49=MMJBAER|52=20181129-11:27:08.215|56=MA|10=201|8=FIX.4.4|9=54|35=0|34=106|49=MMJBAER|52=20181129-11:28:38.338|56=MA|10=212|8=FIX.4.4|9=54|35=0|34=107|49=MMJBAER|52=20181129-11:30:08.367|56=MA|10=205|8=FIX.4.4|9=54|35=0|34=108|49=MMJBAER|52=20181129-11:31:39.222|56=MA|10=201|8=FIX.4.4|9=54|35=0|34=109|49=MMJBAER|52=20181129-11:33:09.330|56=MA|10=201|8=FIX.4.4|9=54|35=0|34=110|49=MMJBAER|52=20181129-11:34:39.461|56=MA|10=202|8=FIX.4.4|9=54|35=0|34=111|49=MMJBAER|52=20181129-11:36:10.210|56=MA|10=186|8=FIX.4.4|9=54|35=0|34=112|49=MMJBAER|52=20181129-11:37:40.210|56=MA|10=191|8=FIX.4.4|9=54|35=0|34=113|49=MMJBAER|52=20181129-11:39:10.221|56=MA|10=193|8=FIX.4.4|9=54|35=0|34=114|49=MMJBAER|52=20181129-11:40:40.360|56=MA|10=193|8=FIX.4.4|9=54|35=0|34=115|49=MMJBAER|52=20181129-11:42:10.463|56=MA|10=197|8=FIX.4.4|9=54|35=0|34=116|49=MMJBAER|52=20181129-11:43:41.213|56=MA|10=196|8=FIX.4.4|9=54|35=0|34=117|49=MMJBAER|52=20181129-11:45:11.336|56=MA|10=202|8=FIX.4.4|9=54|35=0|34=118|49=MMJBAER|52=20181129-11:46:41.438|56=MA|10=210|8=FIX.4.4|9=54|35=0|34=119|49=MMJBAER|52=20181129-11:48:12.220|56=MA|10=200|8=FIX.4.4|9=54|35=0|34=120|49=MMJBAER|52=20181129-11:49:42.220|56=MA|10=196|8=FIX.4.4|9=54|35=0|34=121|49=MMJBAER|52=20181129-11:51:12.470|56=MA|10=194|8=FIX.4.4|9=54|35=0|34=122|49=MMJBAER|52=20181129-11:52:42.654|56=MA|10=203|8=FIX.4.4|9=54|35=0|34=123|49=MMJBAER|52=20181129-11:54:13.216|56=MA|10=198|8=FIX.4.4|9=54|35=0|34=124|49=MMJBAER|52=20181129-11:55:43.442|56=MA|10=204|8=FIX.4.4|9=54|35=0|34=125|49=MMJBAER|52=20181129-11:57:14.216|56=MA|10=204|8=FIX.4.4|9=54|35=0|34=126|49=MMJBAER|52=20181129-11:58:44.360|56=MA|10=209|8=FIX.4.4|9=54|35=0|34=127|49=MMJBAER|52=20181129-12:00:14.444|56=MA|10=198|8=FIX.4.4|9=54|35=0|34=128|49=MMJBAER|52=20181129-12:01:44.463|56=MA|10=204|8=FIX.4.4|9=54|35=0|34=129|49=MMJBAER|52=20181129-12:03:15.207|56=MA|10=201|8=FIX.4.4|9=54|35=0|34=130|49=MMJBAER|52=20181129-12:04:45.416|56=MA|10=199|8=FIX.4.4|9=54|35=0|34=131|49=MMJBAER|52=20181129-12:06:16.201|56=MA|10=192|8=FIX.4.4|9=54|35=0|34=132|49=MMJBAER|52=20181129-12:07:46.347|56=MA|10=208|8=FIX.4.4|9=54|35=0|34=133|49=MMJBAER|52=20181129-12:09:16.453|56=MA|10=206|8=FIX.4.4|9=54|35=0|34=134|49=MMJBAER|52=20181129-12:10:47.199|56=MA|10=210|8=FIX.4.4|9=54|35=0|34=135|49=MMJBAER|52=20181129-12:12:17.200|56=MA|10=193|8=FIX.4.4|9=54|35=0|34=136|49=MMJBAER|52=20181129-12:13:47.342|56=MA|10=205|8=FIX.4.4|9=54|35=0|34=137|49=MMJBAER|52=20181129-12:15:17.346|56=MA|10=209|8=FIX.4.4|9=54|35=0|34=138|49=MMJBAER|52=20181129-12:16:47.350|56=MA|10=209|8=FIX.4.4|9=54|35=0|34=139|49=MMJBAER|52=20181129-12:18:17.355|56=MA|10=214|8=FIX.4.4|9=54|35=0|34=140|49=MMJBAER|52=20181129-12:19:47.452|56=MA|10=208|8=FIX.4.4|9=54|35=0|34=141|49=MMJBAER|52=20181129-12:21:17.452|56=MA|10=199|8=FIX.4.4|9=54|35=0|34=142|49=MMJBAER|52=20181129-12:22:48.195|56=MA|10=209|8=FIX.4.4|9=54|35=0|34=143|49=MMJBAER|52=20181129-12:24:18.195|56=MA|10=209|8=FIX.4.4|9=54|35=0|34=144|49=MMJBAER|52=20181129-12:25:49.194|56=MA|10=214|8=FIX.4.4|9=54|35=0|34=145|49=MMJBAER|52=20181129-12:27:19.342|56=MA|10=209|8=FIX.4.4|9=54|35=0|34=146|49=MMJBAER|52=20181129-12:28:49.447|56=MA|10=220|8=FIX.4.4|9=54|35=0|34=147|49=MMJBAER|52=20181129-12:30:19.449|56=MA|10=213|8=FIX.4.4|9=54|35=0|34=148|49=MMJBAER|52=20181129-12:31:50.192|56=MA|10=205|8=FIX.4.4|9=54|35=0|34=149|49=MMJBAER|52=20181129-12:33:20.192|56=MA|10=205|8=FIX.4.4|9=54|35=0|34=150|49=MMJBAER|52=20181129-12:34:50.192|56=MA|10=201|8=FIX.4.4|9=54|35=0|34=151|49=MMJBAER|52=20181129-12:36:20.463|56=MA|10=202|8=FIX.4.4|9=54|35=0|34=152|49=MMJBAER|52=20181129-12:37:51.192|56=MA|10=207|8=FIX.4.4|9=54|35=0|34=153|49=MMJBAER|52=20181129-12:39:21.343|56=MA|10=205|8=FIX.4.4|9=54|35=0|34=154|49=MMJBAER|52=20181129-12:40:52.191|56=MA|10=203|8=FIX.4.4|9=54|35=0|34=155|49=MMJBAER|52=20181129-12:42:22.653|56=MA|10=206|8=FIX.4.4|9=54|35=0|34=156|49=MMJBAER|52=20181129-12:43:52.859|56=MA|10=219|8=FIX.4.4|9=54|35=0|34=157|49=MMJBAER|52=20181129-12:45:23.188|56=MA|10=215|8=FIX.4.4|9=54|35=0|34=158|49=MMJBAER|52=20181129-12:46:53.188|56=MA|10=220|8=FIX.4.4|9=54|35=0|34=159|49=MMJBAER|52=20181129-12:48:24.187|56=MA|10=220|8=FIX.4.4|9=54|35=0|34=160|49=MMJBAER|52=20181129-12:49:54.187|56=MA|10=216|8=FIX.4.4|9=54|35=0|34=161|49=MMJBAER|52=20181129-12:51:24.649|56=MA|10=210|8=FIX.4.4|9=54|35=0|34=162|49=MMJBAER|52=20181129-12:52:55.186|56=MA|10=212|8=FIX.4.4|9=54|35=0|34=163|49=MMJBAER|52=20181129-12:54:25.454|56=MA|10=210|8=FIX.4.4|9=54|35=0|34=164|49=MMJBAER|52=20181129-12:55:56.186|56=MA|10=218|8=FIX.4.4|9=54|35=0|34=165|49=MMJBAER|52=20181129-12:57:26.346|56=MA|10=216|8=FIX.4.4|9=54|35=0|34=166|49=MMJBAER|52=20181129-12:58:56.361|56=MA|10=218|8=FIX.4.4|9=54|35=0|34=167|49=MMJBAER|52=20181129-13:00:26.458|56=MA|10=211|8=FIX.4.4|9=54|35=0|34=168|49=MMJBAER|52=20181129-13:01:57.182|56=MA|10=211|8=FIX.4.4|9=54|35=0|34=169|49=MMJBAER|52=20181129-13:03:27.182|56=MA|10=211|8=FIX.4.4|9=54|35=0|34=170|49=MMJBAER|52=20181129-13:04:57.182|56=MA|10=207|8=FIX.4.4|9=54|35=0|34=171|49=MMJBAER|52=20181129-13:06:27.182|56=MA|10=207|8=FIX.4.4|9=54|35=0|34=172|49=MMJBAER|52=20181129-13:07:57.452|56=MA|10=212|8=FIX.4.4|9=54|35=0|34=173|49=MMJBAER|52=20181129-13:09:27.685|56=MA|10=220|8=FIX.4.4|9=54|35=0|34=174|49=MMJBAER|52=20181129-13:10:58.179|56=MA|10=215|8=FIX.4.4|9=54|35=0|34=175|49=MMJBAER|52=20181129-13:12:28.179|56=MA|10=215|8=FIX.4.4|9=54|35=0|34=176|49=MMJBAER|52=20181129-13:13:59.178|56=MA|10=220|8=FIX.4.4|9=54|35=0|34=177|49=MMJBAER|52=20181129-13:15:29.178|56=MA|10=220|8=FIX.4.4|9=54|35=0|34=178|49=MMJBAER|52=20181129-13:16:59.458|56=MA|10=226|8=FIX.4.4|9=54|35=0|34=179|49=MMJBAER|52=20181129-13:18:30.177|56=MA|10=216|8=FIX.4.4|9=54|35=0|34=180|49=MMJBAER|52=20181129-13:20:00.177|56=MA|10=198|8=FIX.4.4|9=54|35=0|34=181|49=MMJBAER|52=20181129-13:21:31.176|56=MA|10=203|8=FIX.4.4|9=54|35=0|34=182|49=MMJBAER|52=20181129-13:23:01.340|56=MA|10=196|8=FIX.4.4|9=54|35=0|34=183|49=MMJBAER|52=20181129-13:24:31.341|56=MA|10=202|8=FIX.4.4|9=54|35=0|34=184|49=MMJBAER|52=20181129-13:26:02.175|56=MA|10=208|8=FIX.4.4|9=54|35=0|34=185|49=MMJBAER|52=20181129-13:27:32.175|56=MA|10=213|8=FIX.4.4|9=54|35=0|34=186|49=MMJBAER|52=20181129-13:29:02.667|56=MA|10=219|8=FIX.4.4|9=54|35=0|34=187|49=MMJBAER|52=20181129-13:30:33.174|56=MA|10=209|8=FIX.4.4|9=54|35=0|34=188|49=MMJBAER|52=20181129-13:32:03.483|56=MA|10=212|8=FIX.4.4|9=54|35=0|34=189|49=MMJBAER|52=20181129-13:33:34.172|56=MA|10=213|8=FIX.4.4|9=54|35=0|34=190|49=MMJBAER|52=20181129-13:35:04.172|56=MA|10=204|8=FIX.4.4|9=54|35=0|34=191|49=MMJBAER|52=20181129-13:36:34.172|56=MA|10=209|8=FIX.4.4|9=54|35=0|34=192|49=MMJBAER|52=20181129-13:38:04.686|56=MA|10=219|8=FIX.4.4|9=54|35=0|34=193|49=MMJBAER|52=20181129-13:39:35.171|56=MA|10=214|8=FIX.4.4|9=54|35=0|34=194|49=MMJBAER|52=20181129-13:41:05.340|56=MA|10=203|8=FIX.4.4|9=54|35=0|34=195|49=MMJBAER|52=20181129-13:42:35.401|56=MA|10=206|8=FIX.4.4|9=54|35=0|34=196|49=MMJBAER|52=20181129-13:44:05.669|56=MA|10=222|8=FIX.4.4|9=54|35=0|34=197|49=MMJBAER|52=20181129-13:45:36.170|56=MA|10=215|8=FIX.4.4|9=54|35=0|34=198|49=MMJBAER|52=20181129-13:47:06.408|56=MA|10=219|8=FIX.4.4|9=54|35=0|34=199|49=MMJBAER|52=20181129-13:48:37.167|56=MA|10=227|8=FIX.4.4|9=54|35=0|34=200|49=MMJBAER|52=20181129-13:50:07.167|56=MA|10=200|8=FIX.4.4|9=54|35=0|34=201|49=MMJBAER|52=20181129-13:51:37.450|56=MA|10=200|8=FIX.4.4|9=54|35=0|34=202|49=MMJBAER|52=20181129-13:53:07.491|56=MA|10=205|8=FIX.4.4|9=54|35=0|34=203|49=MMJBAER|52=20181129-13:54:38.164|56=MA|10=208|8=FIX.4.4|9=54|35=0|34=204|49=MMJBAER|52=20181129-13:56:08.164|56=MA|10=208|8=FIX.4.4|9=54|35=0|34=205|49=MMJBAER|52=20181129-13:57:38.165|56=MA|10=214|8=FIX.4.4|9=54|35=0|34=206|49=MMJBAER|52=20181129-13:59:08.340|56=MA|10=209|8=FIX.4.4|9=54|35=0|34=207|49=MMJBAER|52=20181129-14:00:39.163|56=MA|10=204|8=FIX.4.4|9=54|35=0|34=208|49=MMJBAER|52=20181129-14:02:10.162|56=MA|10=195|8=FIX.4.4|9=54|35=0|34=209|49=MMJBAER|52=20181129-14:03:40.162|56=MA|10=200|8=FIX.4.4|9=54|35=0|34=210|49=MMJBAER|52=20181129-14:05:10.162|56=MA|10=191|8=FIX.4.4|9=54|35=0|34=211|49=MMJBAER|52=20181129-14:06:41.161|56=MA|10=196|8=FIX.4.4|9=54|35=0|34=212|49=MMJBAER|52=20181129-14:08:11.161|56=MA|10=196|8=FIX.4.4|9=54|35=0|34=213|49=MMJBAER|52=20181129-14:09:42.160|56=MA|10=201|8=FIX.4.4|9=54|35=0|34=214|49=MMJBAER|52=20181129-14:11:12.160|56=MA|10=192|8=FIX.4.4|9=54|35=0|34=215|49=MMJBAER|52=20181129-14:12:42.160|56=MA|10=197|8=FIX.4.4|9=54|35=0|34=216|49=MMJBAER|52=20181129-14:14:12.452|56=MA|10=201|8=FIX.4.4|9=54|35=0|34=217|49=MMJBAER|52=20181129-14:15:42.471|56=MA|10=207|8=FIX.4.4|9=54|35=0|34=218|49=MMJBAER|52=20181129-14:17:13.159|56=MA|10=211|8=FIX.4.4|9=54|35=0|34=219|49=MMJBAER|52=20181129-14:18:43.420|56=MA|10=207|8=FIX.4.4|9=54|35=0|34=220|49=MMJBAER|52=20181129-14:20:13.676|56=MA|10=202|8=FIX.4.4|9=54|35=0|34=221|49=MMJBAER|52=20181129-14:21:44.158|56=MA|10=203|8=FIX.4.4|9=54|35=0|34=222|49=MMJBAER|52=20181129-14:23:14.475|56=MA|10=205|8=FIX.4.4|9=54|35=0|34=223|49=MMJBAER|52=20181129-14:24:44.484|56=MA|10=210|8=FIX.4.4|9=54|35=0|34=224|49=MMJBAER|52=20181129-14:26:15.155|56=MA|10=206|8=FIX.4.4|9=54|35=0|34=225|49=MMJBAER|52=20181129-14:27:45.156|56=MA|10=212|8=FIX.4.4|9=54|35=0|34=226|49=MMJBAER|52=20181129-14:29:15.692|56=MA|10=217|8=FIX.4.4|9=54|35=0|34=227|49=MMJBAER|52=20181129-14:30:46.153|56=MA|10=206|8=FIX.4.4|9=54|35=0|34=228|49=MMJBAER|52=20181129-14:32:16.153|56=MA|10=206|8=FIX.4.4|9=54|35=0|34=229|49=MMJBAER|52=20181129-14:33:46.463|56=MA|10=215|8=FIX.4.4|9=54|35=0|34=230|49=MMJBAER|52=20181129-14:35:17.152|56=MA|10=202|8=FIX.4.4|9=54|35=0|34=231|49=MMJBAER|52=20181129-14:36:47.463|56=MA|10=212|8=FIX.4.4|9=54|35=0|34=232|49=MMJBAER|52=20181129-14:38:18.151|56=MA|10=207|8=FIX.4.4|9=54|35=0|34=233|49=MMJBAER|52=20181129-14:39:48.339|56=MA|10=220|8=FIX.4.4|9=54|35=0|34=234|49=MMJBAER|52=20181129-14:41:18.469|56=MA|10=215|8=FIX.4.4|9=54|35=0|34=235|49=MMJBAER|52=20181129-14:42:48.483|56=MA|10=216|8=FIX.4.4|9=54|35=0|34=236|49=MMJBAER|52=20181129-14:44:19.148|56=MA|10=215|8=FIX.4.4|9=54|35=0|34=237|49=MMJBAER|52=20181129-14:45:49.148|56=MA|10=220|8=FIX.4.4|9=54|35=0|34=238|49=MMJBAER|52=20181129-14:47:19.500|56=MA|10=212|8=FIX.4.4|9=54|35=0|34=239|49=MMJBAER|52=20181129-14:48:50.147|56=MA|10=216|8=FIX.4.4|9=54|35=0|34=240|49=MMJBAER|52=20181129-14:50:20.147|56=MA|10=198|8=FIX.4.4|9=54|35=0|34=241|49=MMJBAER|52=20181129-14:51:50.147|56=MA|10=203|8=FIX.4.4|9=54|35=0|34=242|49=MMJBAER|52=20181129-14:53:20.465|56=MA|10=206|8=FIX.4.4|9=54|35=0|34=243|49=MMJBAER|52=20181129-14:54:50.477|56=MA|10=214|8=FIX.4.4|9=54|35=0|34=244|49=MMJBAER|52=20181129-14:56:20.527|56=MA|10=210|8=FIX.4.4|9=54|35=0|34=245|49=MMJBAER|52=20181129-14:57:51.146|56=MA|10=213|8=FIX.4.4|9=54|35=0|34=246|49=MMJBAER|52=20181129-14:59:21.463|56=MA|10=215|8=FIX.4.4|9=54|35=0|34=247|49=MMJBAER|52=20181129-15:00:52.145|56=MA|10=204|8=FIX.4.4|9=54|35=0|34=248|49=MMJBAER|52=20181129-15:02:22.469|56=MA|10=213|8=FIX.4.4|9=54|35=0|34=249|49=MMJBAER|52=20181129-15:03:53.143|56=MA|10=208|8=FIX.4.4|9=54|35=0|34=250|49=MMJBAER|52=20181129-15:05:23.143|56=MA|10=199|8=FIX.4.4|9=54|35=0|34=251|49=MMJBAER|52=20181129-15:06:53.143|56=MA|10=204|8=FIX.4.4|9=54|35=0|34=252|49=MMJBAER|52=20181129-15:08:24.142|56=MA|10=204|8=FIX.4.4|9=54|35=0|34=253|49=MMJBAER|52=20181129-15:09:54.453|56=MA|10=214|8=FIX.4.4|9=54|35=0|34=254|49=MMJBAER|52=20181129-15:11:24.477|56=MA|10=211|8=FIX.4.4|9=54|35=0|34=255|49=MMJBAER|52=20181129-15:12:55.140|56=MA|10=204|8=FIX.4.4|9=54|35=0|34=256|49=MMJBAER|52=20181129-15:14:25.140|56=MA|10=204|8=FIX.4.4|9=54|35=0|34=257|49=MMJBAER|52=20181129-15:15:55.336|56=MA|10=216|8=FIX.4.4|9=54|35=0|34=258|49=MMJBAER|52=20181129-15:17:25.337|56=MA|10=217|8=FIX.4.4|9=54|35=0|34=259|49=MMJBAER|52=20181129-15:18:55.483|56=MA|10=224|8=FIX.4.4|9=54|35=0|34=260|49=MMJBAER|52=20181129-15:20:26.137|56=MA|10=203|8=FIX.4.4|9=54|35=0|34=261|49=MMJBAER|52=20181129-15:21:56.138|56=MA|10=209|8=FIX.4.4|9=54|35=0|34=262|49=MMJBAER|52=20181129-15:23:26.659|56=MA|10=217|8=FIX.4.4|9=54|35=0|34=263|49=MMJBAER|52=20181129-15:24:57.136|56=MA|10=213|8=FIX.4.4|9=54|35=0|34=264|49=MMJBAER|52=20181129-15:26:27.136|56=MA|10=213|8=FIX.4.4|9=54|35=0|34=265|49=MMJBAER|52=20181129-15:27:57.471|56=MA|10=220|8=FIX.4.4|9=54|35=0|34=266|49=MMJBAER|52=20181129-15:29:28.134|56=MA|10=217|8=FIX.4.4|9=54|35=0|34=267|49=MMJBAER|52=20181129-15:30:58.134|56=MA|10=213|8=FIX.4.4|9=54|35=0|34=268|49=MMJBAER|52=20181129-15:32:28.341|56=MA|10=213|8=FIX.4.4|9=54|35=0|34=269|49=MMJBAER|52=20181129-15:33:59.132|56=MA|10=217|8=FIX.4.4|9=54|35=0|34=270|49=MMJBAER|52=20181129-15:35:29.132|56=MA|10=208|8=FIX.4.4|9=54|35=0|34=271|49=MMJBAER|52=20181129-15:36:59.334|56=MA|10=217|8=FIX.4.4|9=54|35=0|34=272|49=MMJBAER|52=20181129-15:38:29.460|56=MA|10=217|8=FIX.4.4|9=54|35=0|34=273|49=MMJBAER|52=20181129-15:40:00.132|56=MA|10=196|8=FIX.4.4|9=54|35=0|34=274|49=MMJBAER|52=20181129-15:41:30.496|56=MA|10=214|8=FIX.4.4|9=54|35=0|34=275|49=MMJBAER|52=20181129-15:43:01.131|56=MA|10=201|8=FIX.4.4|9=54|35=0|34=276|49=MMJBAER|52=20181129-15:44:31.131|56=MA|10=206|8=FIX.4.4|9=54|35=0|34=277|49=MMJBAER|52=20181129-15:46:02.130|56=MA|10=206|8=FIX.4.4|9=54|35=0|34=278|49=MMJBAER|52=20181129-15:47:32.471|56=MA|10=219|8=FIX.4.4|9=54|35=0|34=279|49=MMJBAER|52=20181129-15:49:03.129|56=MA|10=220|8=FIX.4.4|9=54|35=0|34=280|49=MMJBAER|52=20181129-15:50:33.129|56=MA|10=207|8=FIX.4.4|9=54|35=0|34=281|49=MMJBAER|52=20181129-15:52:03.353|56=MA|10=206|8=FIX.4.4|9=54|35=0|34=282|49=MMJBAER|52=20181129-15:53:33.402|56=MA|10=206|8=FIX.4.4|9=54|35=0|34=283|49=MMJBAER|52=20181129-15:55:03.413|56=MA|10=208|8=FIX.4.4|9=54|35=0|34=284|49=MMJBAER|52=20181129-15:56:33.477|56=MA|10=223|8=FIX.4.4|9=54|35=0|34=285|49=MMJBAER|52=20181129-15:58:04.125|56=MA|10=214|8=FIX.4.4|9=54|35=0|34=286|49=MMJBAER|52=20181129-15:59:34.125|56=MA|10=219|8=FIX.4.4|9=54|35=0|34=287|49=MMJBAER|52=20181129-16:01:04.461|56=MA|10=208|8=FIX.4.4|9=54|35=0|34=288|49=MMJBAER|52=20181129-16:02:35.124|56=MA|10=210|8=FIX.4.4|9=54|35=0|34=289|49=MMJBAER|52=20181129-16:04:05.341|56=MA|10=211|8=FIX.4.4|9=54|35=0|34=290|49=MMJBAER|52=20181129-16:05:35.465|56=MA|10=214|8=FIX.4.4|9=54|35=0|34=291|49=MMJBAER|52=20181129-16:07:05.651|56=MA|10=211|8=FIX.4.4|9=54|35=0|34=292|49=MMJBAER|52=20181129-16:08:36.123|56=MA|10=211|8=FIX.4.4|9=54|35=0|34=293|49=MMJBAER|52=20181129-16:10:06.462|56=MA|10=208|8=FIX.4.4|9=54|35=0|34=294|49=MMJBAER|52=20181129-16:11:37.121|56=MA|10=206|8=FIX.4.4|9=54|35=0|34=295|49=MMJBAER|52=20181129-16:13:07.334|56=MA|10=212|8=FIX.4.4|9=54|35=0|34=296|49=MMJBAER|52=20181129-16:14:37.476|56=MA|10=224|8=FIX.4.4|9=54|35=0|34=297|49=MMJBAER|52=20181129-16:16:08.120|56=MA|10=211|8=FIX.4.4|9=54|35=0|34=298|49=MMJBAER|52=20181129-16:17:38.334|56=MA|10=223|8=FIX.4.4|9=54|35=0|34=299|49=MMJBAER|52=20181129-16:19:08.337|56=MA|10=226|8=FIX.4.4|9=54|35=0|34=300|49=MMJBAER|52=20181129-16:20:38.467|56=MA|10=208|8=FIX.4.4|9=54|35=0|34=301|49=MMJBAER|52=20181129-16:22:09.117|56=MA|10=201|8=FIX.4.4|9=54|35=0|34=302|49=MMJBAER|52=20181129-16:23:39.334|56=MA|10=207|8=FIX.4.4|9=54|35=0|34=303|49=MMJBAER|52=20181129-16:25:09.460|56=MA|10=207|8=FIX.4.4|9=54|35=0|34=304|49=MMJBAER|52=20181129-16:26:40.117|56=MA|10=203|8=FIX.4.4|9=54|35=0|34=305|49=MMJBAER|52=20181129-16:28:10.394|56=MA|10=210|8=FIX.4.4|9=54|35=0|34=306|49=MMJBAER|52=20181129-16:29:40.445|56=MA|10=212|8=FIX.4.4|9=54|35=0|34=307|49=MMJBAER|52=20181129-16:31:10.461|56=MA|10=201|8=FIX.4.4|9=54|35=0|34=308|49=MMJBAER|52=20181129-16:32:41.114|56=MA|10=202|8=FIX.4.4|9=54|35=0|34=309|49=MMJBAER|52=20181129-16:34:11.114|56=MA|10=202|8=FIX.4.4|9=54|35=0|34=310|49=MMJBAER|52=20181129-16:35:41.114|56=MA|10=198|8=FIX.4.4|9=54|35=0|34=311|49=MMJBAER|52=20181129-16:37:12.113|56=MA|10=198|8=FIX.4.4|9=54|35=0|34=312|49=MMJBAER|52=20181129-16:38:42.114|56=MA|10=204|8=FIX.4.4|9=54|35=0|34=313|49=MMJBAER|52=20181129-16:40:12.337|56=MA|10=202|8=FIX.4.4|9=54|35=0|34=314|49=MMJBAER|52=20181129-16:41:42.447|56=MA|10=209|8=FIX.4.4|9=54|35=0|34=315|49=MMJBAER|52=20181129-16:43:13.111|56=MA|10=198|8=FIX.4.4|9=54|35=0|34=316|49=MMJBAER|52=20181129-16:44:43.343|56=MA|10=210|8=FIX.4.4|9=54|35=0|34=317|49=MMJBAER|52=20181129-16:46:13.462|56=MA|10=212|8=FIX.4.4|9=54|35=0|34=318|49=MMJBAER|52=20181129-16:47:44.109|56=MA|10=216|8=FIX.4.4|9=54|35=0|34=319|49=MMJBAER|52=20181129-16:49:14.452|56=MA|10=217|8=FIX.4.4|9=54|35=0|34=320|49=MMJBAER|52=20181129-16:50:45.108|56=MA|10=203|8=FIX.4.4|9=54|35=0|34=321|49=MMJBAER|52=20181129-16:52:15.445|56=MA|10=207|8=FIX.4.4|9=54|35=0|34=322|49=MMJBAER|52=20181129-16:53:45.522|56=MA|10=208|8=FIX.4.4|9=54|35=0|34=323|49=MMJBAER|52=20181129-16:55:16.106|56=MA|10=207|8=FIX.4.4|9=54|35=0|34=324|49=MMJBAER|52=20181129-16:56:46.106|56=MA|10=212|8=FIX.4.4|9=54|35=0|34=325|49=MMJBAER|52=20181129-16:58:16.451|56=MA|10=215|8=FIX.4.4|9=54|35=0|34=326|49=MMJBAER|52=20181129-16:59:47.105|56=MA|10=217|8=FIX.4.4|9=54|35=0|34=327|49=MMJBAER|52=20181129-17:01:17.105|56=MA|10=203|8=FIX.4.4|9=54|35=0|34=328|49=MMJBAER|52=20181129-17:02:47.440|56=MA|10=210|8=FIX.4.4|9=54|35=0|34=329|49=MMJBAER|52=20181129-17:04:18.104|56=MA|10=208|8=FIX.4.4|9=54|35=0|34=330|49=MMJBAER|52=20181129-17:05:48.104|56=MA|10=204|8=FIX.4.4|9=54|35=0|34=331|49=MMJBAER|52=20181129-17:07:18.444|56=MA|10=211|8=FIX.4.4|9=54|35=0|34=332|49=MMJBAER|52=20181129-17:08:48.450|56=MA|10=213|8=FIX.4.4|9=54|35=0|34=333|49=MMJBAER|52=20181129-17:10:19.100|56=MA|10=197|8=FIX.4.4|9=54|35=0|34=334|49=MMJBAER|52=20181129-17:11:49.100|56=MA|10=202|8=FIX.4.4|9=54|35=0|34=335|49=MMJBAER|52=20181129-17:13:19.100|56=MA|10=202|8=FIX.4.4|9=54|35=0|34=336|49=MMJBAER|52=20181129-17:14:49.100|56=MA|10=207|8=FIX.4.4|9=54|35=0|34=337|49=MMJBAER|52=20181129-17:16:19.100|56=MA|10=207|8=FIX.4.4|9=54|35=0|34=338|49=MMJBAER|52=20181129-17:17:49.100|56=MA|10=212|8=FIX.4.4|9=54|35=0|34=339|49=MMJBAER|52=20181129-17:19:20.100|56=MA|10=204|8=FIX.4.4|9=54|35=0|34=340|49=MMJBAER|52=20181129-17:20:51.099|56=MA|10=209|8=FIX.4.4|9=54|35=0|34=341|49=MMJBAER|52=20181129-17:22:22.098|56=MA|10=209|8=FIX.4.4|9=54|35=0|34=342|49=MMJBAER|52=20181129-17:23:52.098|56=MA|10=214|8=FIX.4.4|9=54|35=0|34=343|49=MMJBAER|52=20181129-17:25:23.097|56=MA|10=214|8=FIX.4.4|9=54|35=0|34=344|49=MMJBAER|52=20181129-17:26:53.097|56=MA|10=219|8=FIX.4.4|9=54|35=0|34=345|49=MMJBAER|52=20181129-17:28:24.096|56=MA|10=219|8=FIX.4.4|9=54|35=0|34=346|49=MMJBAER|52=20181129-17:29:55.096|56=MA|10=225|8=FIX.4.4|9=54|35=0|34=347|49=MMJBAER|52=20181129-17:31:25.096|56=MA|10=216|8=FIX.4.4|9=54|35=0|34=348|49=MMJBAER|52=20181129-17:32:56.095|56=MA|10=221|8=FIX.4.4|9=54|35=0|34=349|49=MMJBAER|52=20181129-17:34:27.093|56=MA|10=220|8=FIX.4.4|9=54|35=0|34=350|49=MMJBAER|52=20181129-17:35:57.096|56=MA|10=219|8=FIX.4.4|9=54|35=0|34=351|49=MMJBAER|52=20181129-17:37:27.100|56=MA|10=205|8=FIX.4.4|9=54|35=0|34=352|49=MMJBAER|52=20181129-17:38:57.104|56=MA|10=214|8=FIX.4.4|9=54|35=0|34=353|49=MMJBAER|52=20181129-17:40:27.105|56=MA|10=206|8=FIX.4.4|9=54|35=0|34=354|49=MMJBAER|52=20181129-17:41:57.105|56=MA|10=211|8=FIX.4.4|9=54|35=0|34=355|49=MMJBAER|52=20181129-17:43:27.105|56=MA|10=211|8=FIX.4.4|9=54|35=0|34=356|49=MMJBAER|52=20181129-17:44:57.105|56=MA|10=216|8=FIX.4.4|9=54|35=0|34=357|49=MMJBAER|52=20181129-17:46:28.104|56=MA|10=216|8=FIX.4.4|9=54|35=0|34=358|49=MMJBAER|52=20181129-17:47:58.105|56=MA|10=222|8=FIX.4.4|9=54|35=0|34=359|49=MMJBAER|52=20181129-17:49:28.105|56=MA|10=222|8=FIX.4.4|9=54|35=0|34=360|49=MMJBAER|52=20181129-17:50:59.104|56=MA|10=209|8=FIX.4.4|9=54|35=0|34=361|49=MMJBAER|52=20181129-17:52:30.102|56=MA|10=199|8=FIX.4.4|9=54|35=0|34=362|49=MMJBAER|52=20181129-17:54:00.102|56=MA|10=199|8=FIX.4.4|9=54|35=0|34=363|49=MMJBAER|52=20181129-17:55:31.101|56=MA|10=204|8=FIX.4.4|9=54|35=0|34=364|49=MMJBAER|52=20181129-17:57:02.101|56=MA|10=205|8=FIX.4.4|9=54|35=0|34=365|49=MMJBAER|52=20181129-17:58:33.100|56=MA|10=210|8=FIX.4.4|9=54|35=0|34=366|49=MMJBAER|52=20181129-18:00:03.100|56=MA|10=196|8=FIX.4.4|9=54|35=0|34=367|49=MMJBAER|52=20181129-18:01:34.100|56=MA|10=202|8=FIX.4.4|9=54|35=0|34=368|49=MMJBAER|52=20181129-18:03:04.100|56=MA|10=202|8=FIX.4.4|9=54|35=0|34=369|49=MMJBAER|52=20181129-18:04:35.100|56=MA|10=208|8=FIX.4.4|9=54|35=0|34=370|49=MMJBAER|52=20181129-18:06:06.100|56=MA|10=200|8=FIX.4.4|9=54|35=0|34=371|49=MMJBAER|52=20181129-18:07:37.098|56=MA|10=222|8=FIX.4.4|9=54|35=0|34=372|49=MMJBAER|52=20181129-18:09:07.098|56=MA|10=222|8=FIX.4.4|9=54|35=0|34=373|49=MMJBAER|52=20181129-18:10:38.097|56=MA|10=218|8=FIX.4.4|9=54|35=0|34=374|49=MMJBAER|52=20181129-18:12:08.097|56=MA|10=218|8=FIX.4.4|9=54|35=0|34=375|49=MMJBAER|52=20181129-18:13:39.097|56=MA|10=224|8=FIX.4.4|9=54|35=0|34=376|49=MMJBAER|52=20181129-18:15:10.096|56=MA|10=215|8=FIX.4.4|9=54|35=0|34=377|49=MMJBAER|52=20181129-18:16:40.096|56=MA|10=220|8=FIX.4.4|9=54|35=0|34=378|49=MMJBAER|52=20181129-18:18:11.095|56=MA|10=220|8=FIX.4.4|9=54|35=0|34=379|49=MMJBAER|52=20181129-18:19:42.094|56=MA|10=225|8=FIX.4.4|9=54|35=0|34=380|49=MMJBAER|52=20181129-18:21:12.094|56=MA|10=207|8=FIX.4.4|9=54|35=0|34=381|49=MMJBAER|52=20181129-18:22:43.093|56=MA|10=212|8=FIX.4.4|9=54|35=0|34=382|49=MMJBAER|52=20181129-18:24:14.093|56=MA|10=213|8=FIX.4.4|9=54|35=0|34=383|49=MMJBAER|52=20181129-18:25:45.092|56=MA|10=218|8=FIX.4.4|9=54|35=0|34=384|49=MMJBAER|52=20181129-18:27:15.092|56=MA|10=218|8=FIX.4.4|9=54|35=0|34=385|49=MMJBAER|52=20181129-18:28:46.091|56=MA|10=223|8=FIX.4.4|9=54|35=0|34=386|49=MMJBAER|52=20181129-18:30:16.092|56=MA|10=215|8=FIX.4.4|9=54|35=0|34=387|49=MMJBAER|52=20181129-18:31:47.090|56=MA|10=219|8=FIX.4.4|9=54|35=0|34=388|49=MMJBAER|52=20181129-18:33:18.090|56=MA|10=220|8=FIX.4.4|9=54|35=0|34=389|49=MMJBAER|52=20181129-18:34:49.088|56=MA|10=233|8=FIX.4.4|9=54|35=0|34=390|49=MMJBAER|52=20181129-18:36:19.090|56=MA|10=217|8=FIX.4.4|9=54|35=0|34=391|49=MMJBAER|52=20181129-18:37:50.089|56=MA|10=222|8=FIX.4.4|9=54|35=0|34=392|49=MMJBAER|52=20181129-18:39:20.089|56=MA|10=222|8=FIX.4.4|9=54|35=0|34=393|49=MMJBAER|52=20181129-18:40:51.090|56=MA|10=211|8=FIX.4.4|9=54|35=0|34=394|49=MMJBAER|52=20181129-18:42:22.087|56=MA|10=218|8=FIX.4.4|9=54|35=0|34=395|49=MMJBAER|52=20181129-18:43:52.087|56=MA|10=223|8=FIX.4.4|9=54|35=0|34=396|49=MMJBAER|52=20181129-18:45:23.088|56=MA|10=225|8=FIX.4.4|9=54|35=0|34=397|49=MMJBAER|52=20181129-18:46:54.086|56=MA|10=229|8=FIX.4.4|9=54|35=0|34=398|49=MMJBAER|52=20181129-18:48:25.086|56=MA|10=230|8=FIX.4.4|9=54|35=0|34=399|49=MMJBAER|52=20181129-18:49:56.085|56=MA|10=235|8=FIX.4.4|9=54|35=0|34=400|49=MMJBAER|52=20181129-18:51:27.085|56=MA|10=209|8=FIX.4.4|9=54|35=0|34=401|49=MMJBAER|52=20181129-18:52:58.085|56=MA|10=215|8=FIX.4.4|9=54|35=0|34=402|49=MMJBAER|52=20181129-18:54:29.083|56=MA|10=214|8=FIX.4.4|9=54|35=0|34=403|49=MMJBAER|52=20181129-18:55:59.084|56=MA|10=220|8=FIX.4.4|9=54|35=0|34=404|49=MMJBAER|52=20181129-18:57:30.083|56=MA|10=211|8=FIX.4.4|9=54|35=0|34=405|49=MMJBAER|52=20181129-18:59:01.081|56=MA|10=210|8=FIX.4.4|9=54|35=0|34=406|49=MMJBAER|52=20181129-19:00:31.081|56=MA|10=201|8=FIX.4.4|9=54|35=0|34=407|49=MMJBAER|52=20181129-19:02:01.081|56=MA|10=201|8=FIX.4.4|9=54|35=0|34=408|49=MMJBAER|52=20181129-19:03:32.080|56=MA|10=206|8=FIX.4.4|9=54|35=0|34=409|49=MMJBAER|52=20181129-19:05:03.079|56=MA|10=215|8=FIX.4.4|9=54|35=0|34=410|49=MMJBAER|52=20181129-19:06:33.079|56=MA|10=211|8=FIX.4.4|9=54|35=0|34=411|49=MMJBAER|52=20181129-19:08:04.079|56=MA|10=212|8=FIX.4.4|9=54|35=0|34=412|49=MMJBAER|52=20181129-19:09:35.077|56=MA|10=216|8=FIX.4.4|9=54|35=0|34=413|49=MMJBAER|52=20181129-19:11:05.077|56=MA|10=207|8=FIX.4.4|9=54|35=0|34=414|49=MMJBAER|52=20181129-19:12:35.077|56=MA|10=212|8=FIX.4.4|9=54|35=0|34=415|49=MMJBAER|52=20181129-19:14:06.076|56=MA|10=212|8=FIX.4.4|9=54|35=0|34=416|49=MMJBAER|52=20181129-19:15:36.076|56=MA|10=217|8=FIX.4.4|9=54|35=0|34=417|49=MMJBAER|52=20181129-19:17:06.076|56=MA|10=217|8=FIX.4.4|9=54|35=0|34=418|49=MMJBAER|52=20181129-19:18:36.076|56=MA|10=222|8=FIX.4.4|9=54|35=0|34=419|49=MMJBAER|52=20181129-19:20:06.077|56=MA|10=214|8=FIX.4.4|9=54|35=0|34=420|49=MMJBAER|52=20181129-19:21:36.077|56=MA|10=210|8=FIX.4.4|9=54|35=0|34=421|49=MMJBAER|52=20181129-19:23:06.077|56=MA|10=210|8=FIX.4.4|9=54|35=0|34=422|49=MMJBAER|52=20181129-19:24:36.077|56=MA|10=215|8=FIX.4.4|9=54|35=0|34=423|49=MMJBAER|52=20181129-19:26:06.078|56=MA|10=216|8=FIX.4.4|9=54|35=0|34=424|49=MMJBAER|52=20181129-19:27:36.078|56=MA|10=221|8=FIX.4.4|9=54|35=0|34=425|49=MMJBAER|52=20181129-19:29:07.078|56=MA|10=222|8=FIX.4.4|9=54|35=0|34=426|49=MMJBAER|52=20181129-19:30:38.078|56=MA|10=219|8=FIX.4.4|9=54|35=0|34=427|49=MMJBAER|52=20181129-19:32:09.078|56=MA|10=220|8=FIX.4.4|9=54|35=0|34=428|49=MMJBAER|52=20181129-19:33:40.076|56=MA|10=215|8=FIX.4.4|9=54|35=0|34=429|49=MMJBAER|52=20181129-19:35:10.076|56=MA|10=215|8=FIX.4.4|9=54|35=0|34=430|49=MMJBAER|52=20181129-19:36:40.076|56=MA|10=211|8=FIX.4.4|9=54|35=0|34=431|49=MMJBAER|52=20181129-19:38:11.074|56=MA|10=210|8=FIX.4.4|9=54|35=0|34=432|49=MMJBAER|52=20181129-19:39:41.074|56=MA|10=215|8=FIX.4.4|9=54|35=0|34=433|49=MMJBAER|52=20181129-19:41:11.074|56=MA|10=206|8=FIX.4.4|9=54|35=0|34=434|49=MMJBAER|52=20181129-19:42:42.072|56=MA|10=210|8=FIX.4.4|9=54|35=0|34=435|49=MMJBAER|52=20181129-19:44:12.073|56=MA|10=211|8=FIX.4.4|9=54|35=0|34=436|49=MMJBAER|52=20181129-19:45:43.071|56=MA|10=215|8=FIX.4.4|9=54|35=0|34=437|49=MMJBAER|52=20181129-19:47:13.071|56=MA|10=215|8=FIX.4.4|9=54|35=0|34=438|49=MMJBAER|52=20181129-19:48:43.071|56=MA|10=220|8=FIX.4.4|9=54|35=0|34=439|49=MMJBAER|52=20181129-19:50:14.070|56=MA|10=211|8=FIX.4.4|9=54|35=0|34=440|49=MMJBAER|52=20181129-19:51:45.070|56=MA|10=208|8=FIX.4.4|9=54|35=0|34=441|49=MMJBAER|52=20181129-19:53:16.069|56=MA|10=217|8=FIX.4.4|9=54|35=0|34=442|49=MMJBAER|52=20181129-19:54:47.068|56=MA|10=222|8=FIX.4.4|9=54|35=0|34=443|49=MMJBAER|52=20181129-19:56:17.068|56=MA|10=222|8=FIX.4.4|9=54|35=0|34=444|49=MMJBAER|52=20181129-19:57:48.068|56=MA|10=228|8=FIX.4.4|9=54|35=0|34=445|49=MMJBAER|52=20181129-19:59:19.067|56=MA|10=228|8=FIX.4.4|9=54|35=0|34=446|49=MMJBAER|52=20181129-20:00:49.067|56=MA|10=210|8=FIX.4.4|9=54|35=0|34=447|49=MMJBAER|52=20181129-20:02:19.067|56=MA|10=210|8=FIX.4.4|9=54|35=0|34=448|49=MMJBAER|52=20181129-20:03:49.067|56=MA|10=215|8=FIX.4.4|9=54|35=0|34=449|49=MMJBAER|52=20181129-20:05:20.066|56=MA|10=206|8=FIX.4.4|9=54|35=0|34=450|49=MMJBAER|52=20181129-20:06:50.066|56=MA|10=202|8=FIX.4.4|9=54|35=0|34=451|49=MMJBAER|52=20181129-20:08:20.066|56=MA|10=202|8=FIX.4.4|9=54|35=0|34=452|49=MMJBAER|52=20181129-20:09:51.065|56=MA|10=207|8=FIX.4.4|9=54|35=0|34=453|49=MMJBAER|52=20181129-20:11:21.065|56=MA|10=198|8=FIX.4.4|9=54|35=0|34=454|49=MMJBAER|52=20181129-20:12:52.064|56=MA|10=203|8=FIX.4.4|9=54|35=0|34=455|49=MMJBAER|52=20181129-20:14:22.064|56=MA|10=203|8=FIX.4.4|9=54|35=0|34=456|49=MMJBAER|52=20181129-20:15:53.062|56=MA|10=207|8=FIX.4.4|9=54|35=0|34=457|49=MMJBAER|52=20181129-20:17:23.062|56=MA|10=207|8=FIX.4.4|9=54|35=0|34=458|49=MMJBAER|52=20181129-20:18:53.062|56=MA|10=212|8=FIX.4.4|9=54|35=0|34=459|49=MMJBAER|52=20181129-20:20:24.061|56=MA|10=203|8=FIX.4.4|9=54|35=0|34=460|49=MMJBAER|52=20181129-20:21:54.061|56=MA|10=199|8=FIX.4.4|9=54|35=0|34=461|49=MMJBAER|52=20181129-20:23:25.059|56=MA|10=207|8=FIX.4.4|9=54|35=0|34=462|49=MMJBAER|52=20181129-20:24:55.059|56=MA|10=212|8=FIX.4.4|9=54|35=0|34=463|49=MMJBAER|52=20181129-20:26:25.059|56=MA|10=212|8=FIX.4.4|9=54|35=0|34=464|49=MMJBAER|52=20181129-20:27:55.059|56=MA|10=217|8=FIX.4.4|9=54|35=0|34=465|49=MMJBAER|52=20181129-20:29:26.058|56=MA|10=217|8=FIX.4.4|9=54|35=0|34=466|49=MMJBAER|52=20181129-20:30:57.057|56=MA|10=213|8=FIX.4.4|9=54|35=0|34=467|49=MMJBAER|52=20181129-20:32:27.057|56=MA|10=213|8=FIX.4.4|9=54|35=0|34=468|49=MMJBAER|52=20181129-20:33:58.055|56=MA|10=217|8=FIX.4.4|9=54|35=0|34=469|49=MMJBAER|52=20181129-20:35:28.056|56=MA|10=218|8=FIX.4.4|9=54|35=0|34=470|49=MMJBAER|52=20181129-20:36:59.055|56=MA|10=214|8=FIX.4.4|9=54|35=0|34=471|49=MMJBAER|52=20181129-20:38:30.054|56=MA|10=205|8=FIX.4.4|9=54|35=0|34=472|49=MMJBAER|52=20181129-20:40:00.054|56=MA|10=196|8=FIX.4.4|9=54|35=0|34=473|49=MMJBAER|52=20181129-20:41:30.054|56=MA|10=201|8=FIX.4.4|9=54|35=0|34=474|49=MMJBAER|52=20181129-20:43:00.054|56=MA|10=201|8=FIX.4.4|9=54|35=0|34=475|49=MMJBAER|52=20181129-20:44:30.055|56=MA|10=207|8=FIX.4.4|9=54|35=0|34=476|49=MMJBAER|52=20181129-20:46:01.054|56=MA|10=207|8=FIX.4.4|9=54|35=0|34=477|49=MMJBAER|52=20181129-20:47:32.053|56=MA|10=212|8=FIX.4.4|9=54|35=0|34=478|49=MMJBAER|52=20181129-20:49:03.052|56=MA|10=212|8=FIX.4.4|9=54|35=0|34=479|49=MMJBAER|52=20181129-20:50:34.051|56=MA|10=208|8=FIX.4.4|9=54|35=0|34=480|49=MMJBAER|52=20181129-20:52:04.051|56=MA|10=199|8=FIX.4.4|9=54|35=0|34=481|49=MMJBAER|52=20181129-20:53:34.052|56=MA|10=205|8=FIX.4.4|9=54|35=0|34=482|49=MMJBAER|52=20181129-20:55:05.050|56=MA|10=204|8=FIX.4.4|9=54|35=0|34=483|49=MMJBAER|52=20181129-20:56:35.050|56=MA|10=209|8=FIX.4.4|9=54|35=0|34=484|49=MMJBAER|52=20181129-20:58:05.050|56=MA|10=209|8=FIX.4.4|9=54|35=0|34=485|49=MMJBAER|52=20181129-20:59:36.048|56=MA|10=222|8=FIX.4.4|9=54|35=0|34=486|49=MMJBAER|52=20181129-21:01:06.049|56=MA|10=209|8=FIX.4.4|9=54|35=0|34=487|49=MMJBAER|52=20181129-21:02:37.047|56=MA|10=213|8=FIX.4.4|9=54|35=0|34=488|49=MMJBAER|52=20181129-21:04:07.047|56=MA|10=213|8=FIX.4.4|9=54|35=0|34=489|49=MMJBAER|52=20181129-21:05:37.047|56=MA|10=218|8=FIX.4.4|9=54|35=0|34=490|49=MMJBAER|52=20181129-21:07:08.045|56=MA|10=208|8=FIX.4.4|9=54|35=0|34=491|49=MMJBAER|52=20181129-21:08:38.046|56=MA|10=214|8=FIX.4.4|9=54|35=0|34=492|49=MMJBAER|52=20181129-21:10:09.046|56=MA|10=206|8=FIX.4.4|9=54|35=0|34=493|49=MMJBAER|52=20181129-21:11:40.045|56=MA|10=202|8=FIX.4.4|9=54|35=0|34=494|49=MMJBAER|52=20181129-21:13:11.043|56=MA|10=201|8=FIX.4.4|9=54|35=0|34=495|49=MMJBAER|52=20181129-21:14:41.044|56=MA|10=207|8=FIX.4.4|9=54|35=0|34=496|49=MMJBAER|52=20181129-21:16:12.042|56=MA|10=206|8=FIX.4.4|9=54|35=0|34=497|49=MMJBAER|52=20181129-21:17:42.042|56=MA|10=211|8=FIX.4.4|9=54|35=0|34=498|49=MMJBAER|52=20181129-21:19:13.042|56=MA|10=212|8=FIX.4.4|9=54|35=0|34=499|49=MMJBAER|52=20181129-21:20:44.042|56=MA|10=209|8=FIX.4.4|9=54|35=0|34=500|49=MMJBAER|52=20181129-21:22:15.043|56=MA|10=193|8=FIX.4.4|9=54|35=0|34=501|49=MMJBAER|52=20181129-21:23:46.041|56=MA|10=197|8=FIX.4.4|9=54|35=0|34=502|49=MMJBAER|52=20181129-21:25:17.041|56=MA|10=198|8=FIX.4.4|9=54|35=0|34=503|49=MMJBAER|52=20181129-21:26:48.041|56=MA|10=204|8=FIX.4.4|9=54|35=0|34=504|49=MMJBAER|52=20181129-21:28:19.039|56=MA|10=212|8=FIX.4.4|9=54|35=0|34=505|49=MMJBAER|52=20181129-21:29:49.039|56=MA|10=217|8=FIX.4.4|9=54|35=0|34=506|49=MMJBAER|52=20181129-21:31:19.039|56=MA|10=208|8=FIX.4.4|9=54|35=0|34=507|49=MMJBAER|52=20181129-21:32:50.038|56=MA|10=204|8=FIX.4.4|9=54|35=0|34=508|49=MMJBAER|52=20181129-21:34:21.037|56=MA|10=204|8=FIX.4.4|9=54|35=0|34=509|49=MMJBAER|52=20181129-21:35:51.037|56=MA|10=209|8=FIX.4.4|9=54|35=0|34=510|49=MMJBAER|52=20181129-21:37:21.037|56=MA|10=200|8=FIX.4.4|9=54|35=0|34=511|49=MMJBAER|52=20181129-21:38:52.035|56=MA|10=204|8=FIX.4.4|9=54|35=0|34=512|49=MMJBAER|52=20181129-21:40:22.035|56=MA|10=195|8=FIX.4.4|9=54|35=0|34=513|49=MMJBAER|52=20181129-21:41:53.035|56=MA|10=201|8=FIX.4.4|9=54|35=0|34=514|49=MMJBAER|52=20181129-21:43:24.035|56=MA|10=202|8=FIX.4.4|9=54|35=0|34=515|49=MMJBAER|52=20181129-21:44:55.034|56=MA|10=207|8=FIX.4.4|9=54|35=0|34=516|49=MMJBAER|52=20181129-21:46:25.034|56=MA|10=207|8=FIX.4.4|9=54|35=0|34=517|49=MMJBAER|52=20181129-21:47:56.033|56=MA|10=212|8=FIX.4.4|9=54|35=0|34=518|49=MMJBAER|52=20181129-21:49:27.032|56=MA|10=212|8=FIX.4.4|9=54|35=0|34=519|49=MMJBAER|52=20181129-21:50:58.031|56=MA|10=208|8=FIX.4.4|9=54|35=0|34=520|49=MMJBAER|52=20181129-21:52:29.031|56=MA|10=200|8=FIX.4.4|9=54|35=0|34=521|49=MMJBAER|52=20181129-21:53:59.031|56=MA|10=205|8=FIX.4.4|9=54|35=0|34=522|49=MMJBAER|52=20181129-21:55:30.030|56=MA|10=196|8=FIX.4.4|9=54|35=0|34=523|49=MMJBAER|52=20181129-21:57:00.030|56=MA|10=196|8=FIX.4.4|9=54|35=0|34=524|49=MMJBAER|52=20181129-21:58:31.029|56=MA|10=210|8=FIX.4.4|9=54|35=0|34=525|49=MMJBAER|52=20181129-22:00:01.029|56=MA|10=196|8=FIX.4.4|9=54|35=0|34=526|49=MMJBAER|52=20181129-22:01:31.029|56=MA|10=201|8=FIX.4.4|9=54|35=0|34=527|49=MMJBAER|52=20181129-22:03:02.028|56=MA|10=201|8=FIX.4.4|9=54|35=0|34=528|49=MMJBAER|52=20181129-22:04:32.028|56=MA|10=206|8=FIX.4.4|9=54|35=0|34=529|49=MMJBAER|52=20181129-22:06:02.028|56=MA|10=206|8=FIX.4.4|9=54|35=0|34=530|49=MMJBAER|52=20181129-22:07:32.028|56=MA|10=202|8=FIX.4.4|9=54|35=0|34=531|49=MMJBAER|52=20181129-22:09:03.028|56=MA|10=203|8=FIX.4.4|9=54|35=0|34=532|49=MMJBAER|52=20181129-22:10:34.026|56=MA|10=198|8=FIX.4.4|9=54|35=0|34=533|49=MMJBAER|52=20181129-22:12:04.026|56=MA|10=198|8=FIX.4.4|9=54|35=0|34=534|49=MMJBAER|52=20181129-22:13:35.024|56=MA|10=202|8=FIX.4.4|9=54|35=0|34=535|49=MMJBAER|52=20181129-22:15:05.025|56=MA|10=203|8=FIX.4.4|9=54|35=0|34=536|49=MMJBAER|52=20181129-22:16:36.023|56=MA|10=207|8=FIX.4.4|9=54|35=0|34=537|49=MMJBAER|52=20181129-22:18:06.024|56=MA|10=208|8=FIX.4.4|9=54|35=0|34=538|49=MMJBAER|52=20181129-22:19:37.023|56=MA|10=213|8=FIX.4.4|9=54|35=0|34=539|49=MMJBAER|52=20181129-22:21:08.022|56=MA|10=204|8=FIX.4.4|9=54|35=0|34=540|49=MMJBAER|52=20181129-22:22:39.022|56=MA|10=201|8=FIX.4.4|9=54|35=0|34=541|49=MMJBAER|52=20181129-22:24:09.022|56=MA|10=201|8=FIX.4.4|9=54|35=0|34=542|49=MMJBAER|52=20181129-22:25:40.021|56=MA|10=197|8=FIX.4.4|9=54|35=0|34=543|49=MMJBAER|52=20181129-22:27:11.021|56=MA|10=198|8=FIX.4.4|9=54|35=0|34=544|49=MMJBAER|52=20181129-22:28:42.019|56=MA|10=211|8=FIX.4.4|9=54|35=0|34=545|49=MMJBAER|52=20181129-22:30:12.019|56=MA|10=202|8=FIX.4.4|9=54|35=0|34=546|49=MMJBAER|52=20181129-22:31:42.019|56=MA|10=207|8=FIX.4.4|9=54|35=0|34=547|49=MMJBAER|52=20181129-22:33:13.018|56=MA|10=207|8=FIX.4.4|9=54|35=0|34=548|49=MMJBAER|52=20181129-22:34:44.017|56=MA|10=212|8=FIX.4.4|9=54|35=0|34=549|49=MMJBAER|52=20181129-22:36:14.017|56=MA|10=212|8=FIX.4.4|9=54|35=0|34=550|49=MMJBAER|52=20181129-22:37:45.016|56=MA|10=208|8=FIX.4.4|9=54|35=0|34=551|49=MMJBAER|52=20181129-22:39:16.016|56=MA|10=209|8=FIX.4.4|9=54|35=0|34=552|49=MMJBAER|52=20181129-22:40:46.016|56=MA|10=205|8=FIX.4.4|9=54|35=0|34=553|49=MMJBAER|52=20181129-22:42:17.015|56=MA|10=205|8=FIX.4.4|9=54|35=0|34=554|49=MMJBAER|52=20181129-22:43:47.016|56=MA|10=211|8=FIX.4.4|9=54|35=0|34=555|49=MMJBAER|52=20181129-22:45:18.016|56=MA|10=212|8=FIX.4.4|9=54|35=0|34=556|49=MMJBAER|52=20181129-22:46:49.015|56=MA|10=217|8=FIX.4.4|9=54|35=0|34=557|49=MMJBAER|52=20181129-22:48:20.015|56=MA|10=209|8=FIX.4.4|9=54|35=0|34=558|49=MMJBAER|52=20181129-22:49:51.014|56=MA|10=214|8=FIX.4.4|9=54|35=0|34=559|49=MMJBAER|52=20181129-22:51:22.013|56=MA|10=205|8=FIX.4.4|9=54|35=0|34=560|49=MMJBAER|52=20181129-22:52:53.013|56=MA|10=202|8=FIX.4.4|9=54|35=0|34=561|49=MMJBAER|52=20181129-22:54:24.012|56=MA|10=202|8=FIX.4.4|9=54|35=0|34=562|49=MMJBAER|52=20181129-22:55:55.011|56=MA|10=207|8=FIX.4.4|9=54|35=0|34=563|49=MMJBAER|52=20181129-22:57:25.012|56=MA|10=208|8=FIX.4.4|9=54|35=0|34=564|49=MMJBAER|52=20181129-22:58:56.010|56=MA|10=212|8=FIX.4.4|9=54|35=0|34=565|49=MMJBAER|52=20181129-23:00:27.009|56=MA|10=207|8=FIX.4.4|9=54|35=0|34=566|49=MMJBAER|52=20181129-23:01:57.020|56=MA|10=205|8=FIX.4.4|9=54|35=0|34=567|49=MMJBAER|52=20181129-23:03:28.016|56=MA|10=211|8=FIX.4.4|9=54|35=0|34=568|49=MMJBAER|52=20181129-23:04:59.009|56=MA|10=219|8=FIX.4.4|9=54|35=5|34=569|49=MMJBAER|52=20181129-23:05:02.353|56=MA|10=216|8=FIX.4.4|9=83|35=A|34=570|49=MMJBAER|52=20190125-12:31:42.416|56=MA|98=0|108=90|95=8|96=3.0.0rc5|10=132|8=FIX.4.4|9=105|35=5|34=571|49=MMJBAER|52=20190125-12:31:43.014|56=MA|58=MsgSeqNum too low, expecting 569 but received 1|10=255|8=FIX.4.4|9=81|35=A|34=1|49=MMJBAER|52=20190125-12:31:51.363|56=MA|98=0|108=90|95=8|96=3.0.0rc5|10=024|8=FIX.4.4|9=52|35=5|34=2|49=MMJBAER|52=20190125-12:31:51.453|56=MA|10=098|8=FIX.4.4|9=81|35=A|34=3|49=MMJBAER|52=20190125-12:31:56.363|56=MA|98=0|108=90|95=8|96=3.0.0rc5|10=031|8=FIX.4.4|9=61|35=2|34=4|49=MMJBAER|52=20190125-12:31:56.953|56=MA|7=2|16=0|10=231|8=FIX.4.4|9=178|35=D|34=5|49=MMJBAER|52=20190125-12:32:07.908|56=MA|11=MMAD071218-5|453=1|448=MMJBAER|447=C|452=11|55=NA|48=XS0042821321|22=4|54=2|60=20190125-12:32:07.908|38=1000000|40=1|423=1|10=040|8=FIX.4.4|9=52|35=0|34=6|49=MMJBAER|52=20190125-12:33:38.364|56=MA|10=105|8=FIX.4.4|9=52|35=0|34=7|49=MMJBAER|52=20190125-12:35:08.366|56=MA|10=107|8=FIX.4.4|9=52|35=0|34=8|49=MMJBAER|52=20190125-12:36:38.371|56=MA|10=108|8=FIX.4.4|9=52|35=0|34=9|49=MMJBAER|52=20190125-12:38:08.916|56=MA|10=113|8=FIX.4.4|9=53|35=0|34=10|49=MMJBAER|52=20190125-12:39:38.921|56=MA|10=154|8=FIX.4.4|9=53|35=0|34=11|49=MMJBAER|52=20190125-12:41:09.029|56=MA|10=145|8=FIX.4.4|9=53|35=0|34=12|49=MMJBAER|52=20190125-12:42:39.371|56=MA|10=150|8=FIX.4.4|9=53|35=0|34=13|49=MMJBAER|52=20190125-12:44:10.013|56=MA|10=135|8=FIX.4.4|9=53|35=0|34=14|49=MMJBAER|52=20190125-12:45:40.370|56=MA|10=146|8=FIX.4.4|9=53|35=0|34=15|49=MMJBAER|52=20190125-12:47:11.006|56=MA|10=143|8=FIX.4.4|9=53|35=0|34=16|49=MMJBAER|52=20190125-12:48:41.021|56=MA|10=145|8=FIX.4.4|9=53|35=0|34=17|49=MMJBAER|52=20190125-12:50:11.024|56=MA|10=139|8=FIX.4.4|9=53|35=0|34=18|49=MMJBAER|52=20190125-12:51:41.365|56=MA|10=152|8=FIX.4.4|9=53|35=0|34=19|49=MMJBAER|52=20190125-12:53:11.908|56=MA|10=155|8=FIX.4.4|9=53|35=0|34=20|49=MMJBAER|52=20190125-12:54:42.018|56=MA|10=144|8=FIX.4.4|9=53|35=0|34=21|49=MMJBAER|52=20190125-12:56:12.358|56=MA|10=151|8=FIX.4.4|9=53|35=0|34=22|49=MMJBAER|52=20190125-12:57:42.364|56=MA|10=153|8=FIX.4.4|9=53|35=0|34=23|49=MMJBAER|52=20190125-12:59:13.007|56=MA|10=148|8=FIX.4.4|9=53|35=0|34=24|49=MMJBAER|52=20190125-13:00:43.009|56=MA|10=141|8=FIX.4.4|9=53|35=0|34=25|49=MMJBAER|52=20190125-13:02:13.352|56=MA|10=142|8=FIX.4.4|9=53|35=0|34=26|49=MMJBAER|52=20190125-13:03:43.357|56=MA|10=152|8=FIX.4.4|9=53|35=0|34=27|49=MMJBAER|52=20190125-13:05:13.365|56=MA|10=151|8=FIX.4.4|9=53|35=0|34=28|49=MMJBAER|52=20190125-13:06:44.001|56=MA|10=144|8=FIX.4.4|9=53|35=0|34=29|49=MMJBAER|52=20190125-13:08:14.358|56=MA|10=159|8=FIX.4.4|9=53|35=0|34=30|49=MMJBAER|52=20190125-13:09:44.364|56=MA|10=152|8=FIX.4.4|9=53|35=0|34=31|49=MMJBAER|52=20190125-13:11:15.014|56=MA|10=136|8=FIX.4.4|9=53|35=0|34=32|49=MMJBAER|52=20190125-13:12:45.357|56=MA|10=151|8=FIX.4.4|9=53|35=0|34=33|49=MMJBAER|52=20190125-13:14:15.912|56=MA|10=148|8=FIX.4.4|9=53|35=0|34=34|49=MMJBAER|52=20190125-13:15:46.013|56=MA|10=146|8=FIX.4.4|9=53|35=0|34=35|49=MMJBAER|52=20190125-13:17:16.351|56=MA|10=151|8=FIX.4.4|9=53|35=0|34=36|49=MMJBAER|52=20190125-13:18:46.355|56=MA|10=160|8=FIX.4.4|9=53|35=0|34=37|49=MMJBAER|52=20190125-13:20:16.355|56=MA|10=151|8=FIX.4.4|9=53|35=0|34=38|49=MMJBAER|52=20190125-13:21:46.912|56=MA|10=155|8=FIX.4.4|9=53|35=0|34=39|49=MMJBAER|52=20190125-13:23:16.928|56=MA|10=162|8=FIX.4.4|9=53|35=0|34=40|49=MMJBAER|52=20190125-13:24:46.932|56=MA|10=153|8=FIX.4.4|9=53|35=0|34=41|49=MMJBAER|52=20190125-13:26:17.353|56=MA|10=151|8=FIX.4.4|9=53|35=0|34=42|49=MMJBAER|52=20190125-13:27:48.008|56=MA|10=154|8=FIX.4.4|9=53|35=0|34=43|49=MMJBAER|52=20190125-13:29:18.024|56=MA|10=152|8=FIX.4.4|9=53|35=0|34=44|49=MMJBAER|52=20190125-13:30:48.354|56=MA|10=154|8=FIX.4.4|9=53|35=0|34=45|49=MMJBAER|52=20190125-13:32:19.017|56=MA|10=151|8=FIX.4.4|9=53|35=0|34=46|49=MMJBAER|52=20190125-13:33:49.347|56=MA|10=162|8=FIX.4.4|9=53|35=0|34=47|49=MMJBAER|52=20190125-13:35:19.350|56=MA|10=156|8=FIX.4.4|9=53|35=0|34=48|49=MMJBAER|52=20190125-13:36:49.910|56=MA|10=163|8=FIX.4.4|9=53|35=0|34=49|49=MMJBAER|52=20190125-13:38:20.038|56=MA|10=156|8=FIX.4.4|9=53|35=0|34=50|49=MMJBAER|52=20190125-13:39:50.346|56=MA|10=154|8=FIX.4.4|9=53|35=0|34=51|49=MMJBAER|52=20190125-13:41:20.955|56=MA|10=151|8=FIX.4.4|9=53|35=0|34=52|49=MMJBAER|52=20190125-13:42:51.026|56=MA|10=146|8=FIX.4.4|9=53|35=0|34=53|49=MMJBAER|52=20190125-13:44:21.341|56=MA|10=146|8=FIX.4.4|9=53|35=0|34=54|49=MMJBAER|52=20190125-13:45:51.930|56=MA|10=155|8=FIX.4.4|9=53|35=0|34=55|49=MMJBAER|52=20190125-13:47:22.008|56=MA|10=152|8=FIX.4.4|9=53|35=0|34=56|49=MMJBAER|52=20190125-13:48:52.043|56=MA|10=156|8=FIX.4.4|9=53|35=0|34=57|49=MMJBAER|52=20190125-13:50:22.336|56=MA|10=152|8=FIX.4.4|9=53|35=0|34=58|49=MMJBAER|52=20190125-13:51:52.985|56=MA|10=167|8=FIX.4.4|9=53|35=0|34=59|49=MMJBAER|52=20190125-13:53:23.022|56=MA|10=150|8=FIX.4.4|9=53|35=0|34=60|49=MMJBAER|52=20190125-13:54:53.044|56=MA|10=150|8=FIX.4.4|9=53|35=0|34=61|49=MMJBAER|52=20190125-13:56:23.333|56=MA|10=151|8=FIX.4.4|9=53|35=0|34=62|49=MMJBAER|52=20190125-13:57:54.030|56=MA|10=151|8=FIX.4.4|9=53|35=0|34=63|49=MMJBAER|52=20190125-13:59:24.332|56=MA|10=156|8=FIX.4.4|9=53|35=0|34=64|49=MMJBAER|52=20190125-14:00:55.031|56=MA|10=144|8=FIX.4.4|9=53|35=0|34=65|49=MMJBAER|52=20190125-14:02:25.330|56=MA|10=146|8=FIX.4.4|9=53|35=0|34=66|49=MMJBAER|52=20190125-14:03:55.330|56=MA|10=151|8=FIX.4.4|9=53|35=0|34=67|49=MMJBAER|52=20190125-14:05:25.331|56=MA|10=152|8=FIX.4.4|9=53|35=0|34=68|49=MMJBAER|52=20190125-14:06:56.024|56=MA|10=157|8=FIX.4.4|9=53|35=0|34=69|49=MMJBAER|52=20190125-14:08:26.028|56=MA|10=161|8=FIX.4.4|9=53|35=0|34=70|49=MMJBAER|52=20190125-14:09:56.045|56=MA|10=156|8=FIX.4.4|9=53|35=0|34=71|49=MMJBAER|52=20190125-14:11:26.327|56=MA|10=150|8=FIX.4.4|9=53|35=0|34=72|49=MMJBAER|52=20190125-14:12:56.328|56=MA|10=156|8=FIX.4.4|9=53|35=0|34=73|49=MMJBAER|52=20190125-14:14:26.338|56=MA|10=157|8=FIX.4.4|9=53|35=0|34=74|49=MMJBAER|52=20190125-14:15:57.012|56=MA|10=152|8=FIX.4.4|9=53|35=0|34=75|49=MMJBAER|52=20190125-14:17:27.013|56=MA|10=153|8=FIX.4.4|9=53|35=0|34=76|49=MMJBAER|52=20190125-14:18:57.324|56=MA|10=163|8=FIX.4.4|9=53|35=0|34=77|49=MMJBAER|52=20190125-14:20:27.325|56=MA|10=155|8=FIX.4.4|9=53|35=0|34=78|49=MMJBAER|52=20190125-14:21:57.914|56=MA|10=164|8=FIX.4.4|9=53|35=0|34=79|49=MMJBAER|52=20190125-14:23:28.324|56=MA|10=160|8=FIX.4.4|9=53|35=0|34=80|49=MMJBAER|52=20190125-14:24:58.917|56=MA|10=164|8=FIX.4.4|9=53|35=0|34=81|49=MMJBAER|52=20190125-14:26:28.926|56=MA|10=164|8=FIX.4.4|9=53|35=0|34=82|49=MMJBAER|52=20190125-14:27:59.321|56=MA|10=159|8=FIX.4.4|9=53|35=0|34=83|49=MMJBAER|52=20190125-14:29:29.322|56=MA|10=160|8=FIX.4.4|9=53|35=0|34=84|49=MMJBAER|52=20190125-14:30:59.957|56=MA|10=170|8=FIX.4.4|9=53|35=0|34=85|49=MMJBAER|52=20190125-14:32:29.962|56=MA|10=166|8=FIX.4.4|9=53|35=0|34=86|49=MMJBAER|52=20190125-14:34:00.108|56=MA|10=150|8=FIX.4.4|9=53|35=0|34=87|49=MMJBAER|52=20190125-14:35:30.328|56=MA|10=159|8=FIX.4.4|9=53|35=0|34=88|49=MMJBAER|52=20190125-14:37:00.980|56=MA|10=163|8=FIX.4.4|9=53|35=0|34=89|49=MMJBAER|52=20190125-14:38:31.318|56=MA|10=164|8=FIX.4.4|9=53|35=0|34=90|49=MMJBAER|52=20190125-14:40:02.036|56=MA|10=144|8=FIX.4.4|9=53|35=0|34=91|49=MMJBAER|52=20190125-14:41:32.316|56=MA|10=150|8=FIX.4.4|9=53|35=0|34=92|49=MMJBAER|52=20190125-14:43:02.325|56=MA|10=150|8=FIX.4.4|9=53|35=0|34=93|49=MMJBAER|52=20190125-14:44:32.922|56=MA|10=158|8=FIX.4.4|9=53|35=0|34=94|49=MMJBAER|52=20190125-14:46:03.019|56=MA|10=156|8=FIX.4.4|9=53|35=0|34=95|49=MMJBAER|52=20190125-14:47:33.314|56=MA|10=159|8=FIX.4.4|9=53|35=0|34=96|49=MMJBAER|52=20190125-14:49:04.020|56=MA|10=154|8=FIX.4.4|9=53|35=0|34=97|49=MMJBAER|52=20190125-14:50:34.313|56=MA|10=155|8=FIX.4.4|9=53|35=0|34=98|49=MMJBAER|52=20190125-14:52:04.313|56=MA|10=155|8=FIX.4.4|9=53|35=0|34=99|49=MMJBAER|52=20190125-14:53:35.038|56=MA|10=165|8=FIX.4.4|9=54|35=0|34=100|49=MMJBAER|52=20190125-14:55:05.311|56=MA|10=190|8=FIX.4.4|9=54|35=0|34=101|49=MMJBAER|52=20190125-14:56:35.311|56=MA|10=195|8=FIX.4.4|9=54|35=0|34=102|49=MMJBAER|52=20190125-14:58:05.929|56=MA|10=210|8=FIX.4.4|9=54|35=0|34=103|49=MMJBAER|52=20190125-14:59:36.310|56=MA|10=200|8=FIX.4.4|9=54|35=0|34=104|49=MMJBAER|52=20190125-15:01:07.027|56=MA|10=192|8=FIX.4.4|9=54|35=0|34=105|49=MMJBAER|52=20190125-15:02:37.309|56=MA|10=200|8=FIX.4.4|9=54|35=0|34=106|49=MMJBAER|52=20190125-15:04:07.910|56=MA|10=198|8=FIX.4.4|9=54|35=0|34=107|49=MMJBAER|52=20190125-15:05:38.040|56=MA|10=198|8=FIX.4.4|9=54|35=0|34=108|49=MMJBAER|52=20190125-15:07:08.307|56=MA|10=204|8=FIX.4.4|9=54|35=0|34=109|49=MMJBAER|52=20190125-15:08:39.035|56=MA|10=208|8=FIX.4.4|9=54|35=0|34=110|49=MMJBAER|52=20190125-15:10:09.306|56=MA|10=191|8=FIX.4.4|9=54|35=0|34=111|49=MMJBAER|52=20190125-15:11:39.306|56=MA|10=196|8=FIX.4.4|9=54|35=0|34=112|49=MMJBAER|52=20190125-15:13:10.304|56=MA|10=186|8=FIX.4.4|9=54|35=0|34=113|49=MMJBAER|52=20190125-15:14:40.304|56=MA|10=191|8=FIX.4.4|9=54|35=0|34=114|49=MMJBAER|52=20190125-15:16:10.306|56=MA|10=193|8=FIX.4.4|9=54|35=0|34=115|49=MMJBAER|52=20190125-15:17:40.313|56=MA|10=196|8=FIX.4.4|9=54|35=0|34=116|49=MMJBAER|52=20190125-15:19:11.315|56=MA|10=199|8=FIX.4.4|9=54|35=0|34=117|49=MMJBAER|52=20190125-15:20:41.316|56=MA|10=196|8=FIX.4.4|9=54|35=5|34=118|49=MMJBAER|52=20190125-15:21:41.315|56=MA|10=202|8=FIX.4.4|9=83|35=A|34=119|49=MMJBAER|52=20190128-17:18:50.100|56=MA|98=0|108=90|95=8|96=3.0.0rc5|10=133|8=FIX.4.4|9=105|35=5|34=120|49=MMJBAER|52=20190128-17:18:50.692|56=MA|58=MsgSeqNum too low, expecting 121 but received 1|10=252|8=FIX.4.4|9=83|35=A|34=121|49=MMJBAER|52=20190128-17:18:55.100|56=MA|98=0|108=90|95=8|96=3.0.0rc5|10=131|8=FIX.4.4|9=105|35=5|34=122|49=MMJBAER|52=20190128-17:18:55.690|56=MA|58=MsgSeqNum too low, expecting 121 but received 4|10=004|8=FIX.4.4|9=81|35=A|34=1|49=MMJBAER|52=20190128-17:19:00.100|56=MA|98=0|108=90|95=8|96=3.0.0rc5|10=021|8=FIX.4.4|9=52|35=5|34=3|49=MMJBAER|52=20190128-17:19:00.200|56=MA|10=097|8=FIX.4.4|9=81|35=A|34=4|49=MMJBAER|52=20190128-17:19:05.100|56=MA|98=0|108=90|95=8|96=3.0.0rc5|10=029|8=FIX.4.4|9=61|35=2|34=5|49=MMJBAER|52=20190128-17:19:05.692|56=MA|7=2|16=0|10=240|8=FIX.4.4|9=179|35=D|34=6|49=MMJBAER|52=20190128-17:19:12.670|56=MA|11=MMAD071218-11|453=1|448=MMJBAER|447=C|452=11|55=NA|48=XS0042821321|22=4|54=2|60=20190128-17:19:12.669|38=1000000|40=1|423=1|10=105|8=FIX.4.4|9=52|35=0|34=7|49=MMJBAER|52=20190128-17:20:43.099|56=MA|10=111|8=FIX.4.4|9=52|35=0|34=8|49=MMJBAER|52=20190128-17:22:13.100|56=MA|10=094|8=FIX.4.4|9=52|35=0|34=9|49=MMJBAER|52=20190128-17:23:44.099|56=MA|10=117|8=FIX.4.4|9=53|35=0|34=10|49=MMJBAER|52=20190128-17:25:15.098|56=MA|10=157|8=FIX.4.4|9=53|35=0|34=11|49=MMJBAER|52=20190128-17:26:46.097|56=MA|10=162|8=FIX.4.4|9=53|35=0|34=12|49=MMJBAER|52=20190128-17:28:16.098|56=MA|10=163|8=FIX.4.4|9=53|35=0|34=13|49=MMJBAER|52=20190128-17:29:47.096|56=MA|10=167|8=FIX.4.4|9=53|35=0|34=14|49=MMJBAER|52=20190128-17:31:18.096|56=MA|10=159|8=FIX.4.4|9=53|35=0|34=15|49=MMJBAER|52=20190128-17:32:49.094|56=MA|10=163|8=FIX.4.4|9=53|35=0|34=16|49=MMJBAER|52=20190128-17:34:19.094|56=MA|10=163|8=FIX.4.4|9=53|35=0|34=17|49=MMJBAER|52=20190128-17:35:49.095|56=MA|10=169|8=FIX.4.4|9=53|35=0|34=18|49=MMJBAER|52=20190128-17:37:20.093|56=MA|10=159|8=FIX.4.4|9=53|35=0|34=19|49=MMJBAER|52=20190128-17:38:50.093|56=MA|10=164|8=FIX.4.4|9=53|35=0|34=20|49=MMJBAER|52=20190128-17:40:21.092|56=MA|10=146|8=FIX.4.4|9=53|35=0|34=21|49=MMJBAER|52=20190128-17:41:52.091|56=MA|10=151|8=FIX.4.4|9=53|35=0|34=22|49=MMJBAER|52=20190128-17:43:22.091|56=MA|10=151|8=FIX.4.4|9=53|35=0|34=23|49=MMJBAER|52=20190128-17:44:52.091|56=MA|10=156|8=FIX.4.4|9=53|35=0|34=24|49=MMJBAER|52=20190128-17:46:23.090|56=MA|10=156|8=FIX.4.4|9=53|35=0|34=25|49=MMJBAER|52=20190128-17:47:54.090|56=MA|10=162|8=FIX.4.4|9=53|35=0|34=26|49=MMJBAER|52=20190128-17:49:25.090|56=MA|10=163|8=FIX.4.4|9=53|35=0|34=27|49=MMJBAER|52=20190128-17:50:56.089|56=MA|10=168|8=FIX.4.4|9=53|35=0|34=28|49=MMJBAER|52=20190128-17:52:27.088|56=MA|10=168|8=FIX.4.4|9=53|35=0|34=29|49=MMJBAER|52=20190128-17:53:57.089|56=MA|10=174|8=FIX.4.4|9=53|35=0|34=30|49=MMJBAER|52=20190128-17:55:28.087|56=MA|10=164|8=FIX.4.4|9=53|35=0|34=31|49=MMJBAER|52=20190128-17:56:58.087|56=MA|10=169|8=FIX.4.4|9=53|35=0|34=32|49=MMJBAER|52=20190128-17:58:29.086|56=MA|10=169|8=FIX.4.4|9=53|35=0|34=33|49=MMJBAER|52=20190128-18:00:00.086|56=MA|10=147|8=FIX.4.4|9=53|35=0|34=34|49=MMJBAER|52=20190128-18:01:31.085|56=MA|10=152|8=FIX.4.4|9=53|35=0|34=35|49=MMJBAER|52=20190128-18:03:02.084|56=MA|10=152|8=FIX.4.4|9=53|35=0|34=36|49=MMJBAER|52=20190128-18:04:32.085|56=MA|10=158|8=FIX.4.4|9=53|35=0|34=37|49=MMJBAER|52=20190128-18:06:03.083|56=MA|10=157|8=FIX.4.4|9=53|35=0|34=38|49=MMJBAER|52=20190128-18:07:34.082|56=MA|10=162|8=FIX.4.4|9=53|35=0|34=39|49=MMJBAER|52=20190128-18:09:04.082|56=MA|10=162|8=FIX.4.4|9=53|35=0|34=40|49=MMJBAER|52=20190128-18:10:35.081|56=MA|10=149|8=FIX.4.4|9=53|35=0|34=41|49=MMJBAER|52=20190128-18:12:05.081|56=MA|10=149|8=FIX.4.4|9=53|35=0|34=42|49=MMJBAER|52=20190128-18:13:35.081|56=MA|10=154|8=FIX.4.4|9=53|35=0|34=43|49=MMJBAER|52=20190128-18:15:06.080|56=MA|10=154|8=FIX.4.4|9=53|35=0|34=44|49=MMJBAER|52=20190128-18:16:37.079|56=MA|10=168|8=FIX.4.4|9=53|35=0|34=45|49=MMJBAER|52=20190128-18:18:07.079|56=MA|10=168|8=FIX.4.4|9=53|35=0|34=46|49=MMJBAER|52=20190128-18:19:38.078|56=MA|10=173|8=FIX.4.4|9=53|35=0|34=47|49=MMJBAER|52=20190128-18:21:09.077|56=MA|10=164|8=FIX.4.4|9=53|35=0|34=48|49=MMJBAER|52=20190128-18:22:39.077|56=MA|10=169|8=FIX.4.4|9=53|35=0|34=49|49=MMJBAER|52=20190128-18:24:09.077|56=MA|10=169|8=FIX.4.4|9=53|35=0|34=50|49=MMJBAER|52=20190128-18:25:40.077|56=MA|10=157|8=FIX.4.4|9=53|35=0|34=51|49=MMJBAER|52=20190128-18:27:11.076|56=MA|10=157|8=FIX.4.4|9=53|35=0|34=52|49=MMJBAER|52=20190128-18:28:42.075|56=MA|10=162|8=FIX.4.4|9=53|35=0|34=53|49=MMJBAER|52=20190128-18:30:12.075|56=MA|10=153|8=FIX.4.4|9=53|35=0|34=54|49=MMJBAER|52=20190128-18:31:43.073|56=MA|10=157|8=FIX.4.4|9=53|35=0|34=55|49=MMJBAER|52=20190128-18:33:13.073|56=MA|10=157|8=FIX.4.4|9=53|35=0|34=56|49=MMJBAER|52=20190128-18:34:44.072|56=MA|10=162|8=FIX.4.4|9=53|35=0|34=57|49=MMJBAER|52=20190128-18:36:15.072|56=MA|10=163|8=FIX.4.4|9=53|35=0|34=58|49=MMJBAER|52=20190128-18:37:45.072|56=MA|10=168|8=FIX.4.4|9=53|35=0|34=59|49=MMJBAER|52=20190128-18:39:16.071|56=MA|10=168|8=FIX.4.4|9=53|35=0|34=60|49=MMJBAER|52=20190128-18:40:47.070|56=MA|10=155|8=FIX.4.4|9=53|35=0|34=61|49=MMJBAER|52=20190128-18:42:17.074|56=MA|10=159|8=FIX.4.4|9=53|35=0|34=62|49=MMJBAER|52=20190128-18:43:48.069|56=MA|10=169|8=FIX.4.4|9=53|35=0|34=63|49=MMJBAER|52=20190128-18:45:18.069|56=MA|10=169|8=FIX.4.4|9=53|35=0|34=64|49=MMJBAER|52=20190128-18:46:49.068|56=MA|10=174|8=FIX.4.4|9=53|35=0|34=65|49=MMJBAER|52=20190128-18:48:20.067|56=MA|10=165|8=FIX.4.4|9=53|35=0|34=66|49=MMJBAER|52=20190128-18:49:50.067|56=MA|10=170|8=FIX.4.4|9=53|35=0|34=67|49=MMJBAER|52=20190128-18:51:21.067|56=MA|10=162|8=FIX.4.4|9=53|35=0|34=68|49=MMJBAER|52=20190128-18:52:52.065|56=MA|10=166|8=FIX.4.4|9=53|35=0|34=69|49=MMJBAER|52=20190128-18:54:22.065|56=MA|10=166|8=FIX.4.4|9=53|35=0|34=70|49=MMJBAER|52=20190128-18:55:52.066|56=MA|10=163|8=FIX.4.4|9=53|35=0|34=71|49=MMJBAER|52=20190128-18:57:23.064|56=MA|10=162|8=FIX.4.4|9=53|35=0|34=72|49=MMJBAER|52=20190128-18:58:53.064|56=MA|10=167|8=FIX.4.4|9=53|35=0|34=73|49=MMJBAER|52=20190128-19:00:24.063|56=MA|10=153|8=FIX.4.4|9=53|35=0|34=74|49=MMJBAER|52=20190128-19:01:54.063|56=MA|10=158|8=FIX.4.4|9=53|35=0|34=75|49=MMJBAER|52=20190128-19:03:25.061|56=MA|10=157|8=FIX.4.4|9=53|35=0|34=76|49=MMJBAER|52=20190128-19:04:55.062|56=MA|10=163|8=FIX.4.4|9=53|35=0|34=77|49=MMJBAER|52=20190128-19:06:25.062|56=MA|10=163|8=FIX.4.4|9=53|35=0|34=78|49=MMJBAER|52=20190128-19:07:56.060|56=MA|10=167|8=FIX.4.4|9=53|35=0|34=79|49=MMJBAER|52=20190128-19:09:26.060|56=MA|10=167|8=FIX.4.4|9=53|35=0|34=80|49=MMJBAER|52=20190128-19:10:57.059|56=MA|10=163|8=FIX.4.4|9=53|35=0|34=81|49=MMJBAER|52=20190128-19:12:28.059|56=MA|10=164|8=FIX.4.4|9=53|35=0|34=82|49=MMJBAER|52=20190128-19:13:59.058|56=MA|10=169|8=FIX.4.4|9=53|35=0|34=83|49=MMJBAER|52=20190128-19:15:30.057|56=MA|10=160|8=FIX.4.4|9=53|35=0|34=84|49=MMJBAER|52=20190128-19:17:00.057|56=MA|10=160|8=FIX.4.4|9=53|35=0|34=85|49=MMJBAER|52=20190128-19:18:31.056|56=MA|10=165|8=FIX.4.4|9=53|35=0|34=86|49=MMJBAER|52=20190128-19:20:01.056|56=MA|10=156|8=FIX.4.4|9=53|35=0|34=87|49=MMJBAER|52=20190128-19:21:32.056|56=MA|10=162|8=FIX.4.4|9=53|35=0|34=88|49=MMJBAER|52=20190128-19:23:03.056|56=MA|10=163|8=FIX.4.4|9=53|35=0|34=89|49=MMJBAER|52=20190128-19:24:34.054|56=MA|10=167|8=FIX.4.4|9=53|35=0|34=90|49=MMJBAER|52=20190128-19:26:04.054|56=MA|10=158|8=FIX.4.4|9=53|35=0|34=91|49=MMJBAER|52=20190128-19:27:35.053|56=MA|10=163|8=FIX.4.4|9=53|35=0|34=92|49=MMJBAER|52=20190128-19:29:06.054|56=MA|10=165|8=FIX.4.4|9=53|35=0|34=93|49=MMJBAER|52=20190128-19:30:37.052|56=MA|10=160|8=FIX.4.4|9=53|35=0|34=94|49=MMJBAER|52=20190128-19:32:08.052|56=MA|10=161|8=FIX.4.4|9=53|35=0|34=95|49=MMJBAER|52=20190128-19:33:39.051|56=MA|10=166|8=FIX.4.4|9=53|35=0|34=96|49=MMJBAER|52=20190128-19:35:09.051|56=MA|10=166|8=FIX.4.4|9=53|35=0|34=97|49=MMJBAER|52=20190128-19:36:40.050|56=MA|10=162|8=FIX.4.4|9=53|35=0|34=98|49=MMJBAER|52=20190128-19:38:11.051|56=MA|10=164|8=FIX.4.4|9=53|35=0|34=99|49=MMJBAER|52=20190128-19:39:41.303|56=MA|10=169|8=FIX.4.4|9=54|35=0|34=100|49=MMJBAER|52=20190128-19:41:12.048|56=MA|10=198|8=FIX.4.4|9=54|35=0|34=101|49=MMJBAER|52=20190128-19:42:42.236|56=MA|10=202|8=FIX.4.4|9=54|35=0|34=102|49=MMJBAER|52=20190128-19:44:13.047|56=MA|10=203|8=FIX.4.4|9=54|35=0|34=103|49=MMJBAER|52=20190128-19:45:43.323|56=MA|10=205|8=FIX.4.4|9=54|35=0|34=104|49=MMJBAER|52=20190128-19:47:13.324|56=MA|10=206|8=FIX.4.4|9=54|35=0|34=105|49=MMJBAER|52=20190128-19:48:44.045|56=MA|10=212|8=FIX.4.4|9=54|35=0|34=106|49=MMJBAER|52=20190128-19:50:14.270|56=MA|10=203|8=FIX.4.4|9=54|35=0|34=107|49=MMJBAER|52=20190128-19:51:44.318|56=MA|10=211|8=FIX.4.4|9=54|35=0|34=108|49=MMJBAER|52=20190128-19:53:15.044|56=MA|10=208|8=FIX.4.4|9=54|35=0|34=109|49=MMJBAER|52=20190128-19:54:45.185|56=MA|10=219|8=FIX.4.4|9=54|35=0|34=110|49=MMJBAER|52=20190128-19:56:16.043|56=MA|10=204|8=FIX.4.4|9=54|35=0|34=111|49=MMJBAER|52=20190128-19:57:46.313|56=MA|10=209|8=FIX.4.4|9=54|35=0|34=112|49=MMJBAER|52=20190128-19:59:17.042|56=MA|10=209|8=FIX.4.4|9=54|35=0|34=113|49=MMJBAER|52=20190128-20:00:47.289|56=MA|10=204|8=FIX.4.4|9=54|35=0|34=114|49=MMJBAER|52=20190128-20:02:18.040|56=MA|10=190|8=FIX.4.4|9=54|35=0|34=115|49=MMJBAER|52=20190128-20:03:48.040|56=MA|10=195|8=FIX.4.4|9=54|35=0|34=116|49=MMJBAER|52=20190128-20:05:18.040|56=MA|10=195|8=FIX.4.4|9=54|35=0|34=117|49=MMJBAER|52=20190128-20:06:49.039|56=MA|10=209|8=FIX.4.4|9=54|35=0|34=118|49=MMJBAER|52=20190128-20:08:19.186|56=MA|10=212|8=FIX.4.4|9=54|35=0|34=119|49=MMJBAER|52=20190128-20:09:49.344|56=MA|10=213|8=FIX.4.4|9=54|35=0|34=120|49=MMJBAER|52=20190128-20:11:20.037|56=MA|10=186|8=FIX.4.4|9=54|35=0|34=121|49=MMJBAER|52=20190128-20:12:50.037|56=MA|10=191|8=FIX.4.4|9=54|35=0|34=122|49=MMJBAER|52=20190128-20:14:20.184|56=MA|10=194|8=FIX.4.4|9=54|35=0|34=123|49=MMJBAER|52=20190128-20:15:50.299|56=MA|10=206|8=FIX.4.4|9=54|35=0|34=124|49=MMJBAER|52=20190128-20:17:20.320|56=MA|10=191|8=FIX.4.4|9=54|35=0|34=125|49=MMJBAER|52=20190128-20:18:51.034|56=MA|10=199|8=FIX.4.4|9=54|35=0|34=126|49=MMJBAER|52=20190128-20:20:21.309|56=MA|10=195|8=FIX.4.4|9=54|35=0|34=127|49=MMJBAER|52=20190128-20:21:52.033|56=MA|10=195|8=FIX.4.4|9=54|35=0|34=128|49=MMJBAER|52=20190128-20:23:22.034|56=MA|10=196|8=FIX.4.4|9=54|35=0|34=129|49=MMJBAER|52=20190128-20:24:52.184|56=MA|10=207|8=FIX.4.4|9=54|35=0|34=130|49=MMJBAER|52=20190128-20:26:22.347|56=MA|10=199|8=FIX.4.4|9=54|35=0|34=131|49=MMJBAER|52=20190128-20:27:52.348|56=MA|10=205|8=FIX.4.4|9=54|35=0|34=132|49=MMJBAER|52=20190128-20:29:23.030|56=MA|10=194|8=FIX.4.4|9=54|35=0|34=133|49=MMJBAER|52=20190128-20:30:53.327|56=MA|10=199|8=FIX.4.4|9=54|35=0|34=134|49=MMJBAER|52=20190128-20:32:23.343|56=MA|10=197|8=FIX.4.4|9=54|35=0|34=135|49=MMJBAER|52=20190128-20:33:54.029|56=MA|10=204|8=FIX.4.4|9=54|35=0|34=136|49=MMJBAER|52=20190128-20:35:24.029|56=MA|10=204|8=FIX.4.4|9=54|35=0|34=137|49=MMJBAER|52=20190128-20:36:54.232|56=MA|10=205|8=FIX.4.4|9=54|35=0|34=138|49=MMJBAER|52=20190128-20:38:24.317|56=MA|10=209|8=FIX.4.4|9=54|35=0|34=139|49=MMJBAER|52=20190128-20:39:55.027|56=MA|10=213|8=FIX.4.4|9=54|35=0|34=140|49=MMJBAER|52=20190128-20:41:25.199|56=MA|10=205|8=FIX.4.4|9=54|35=0|34=141|49=MMJBAER|52=20190128-20:42:55.534|56=MA|10=203|8=FIX.4.4|9=54|35=0|34=142|49=MMJBAER|52=20190128-20:44:26.025|56=MA|10=199|8=FIX.4.4|9=54|35=0|34=143|49=MMJBAER|52=20190128-20:45:56.311|56=MA|10=202|8=FIX.4.4|9=54|35=0|34=144|49=MMJBAER|52=20190128-20:47:27.023|56=MA|10=203|8=FIX.4.4|9=54|35=0|34=145|49=MMJBAER|52=20190128-20:48:57.023|56=MA|10=208|8=FIX.4.4|9=54|35=0|34=146|49=MMJBAER|52=20190128-20:50:27.024|56=MA|10=200|8=FIX.4.4|9=54|35=0|34=147|49=MMJBAER|52=20190128-20:51:58.022|56=MA|10=204|8=FIX.4.4|9=54|35=0|34=148|49=MMJBAER|52=20190128-20:53:28.022|56=MA|10=204|8=FIX.4.4|9=54|35=0|34=149|49=MMJBAER|52=20190128-20:54:58.022|56=MA|10=209|8=FIX.4.4|9=54|35=0|34=150|49=MMJBAER|52=20190128-20:56:29.020|56=MA|10=199|8=FIX.4.4|9=54|35=0|34=151|49=MMJBAER|52=20190128-20:57:59.191|56=MA|10=213|8=FIX.4.4|9=54|35=0|34=152|49=MMJBAER|52=20190128-20:59:29.317|56=MA|10=213|8=FIX.4.4|9=54|35=0|34=153|49=MMJBAER|52=20190128-21:00:59.318|56=MA|10=205|8=FIX.4.4|9=54|35=0|34=154|49=MMJBAER|52=20190128-21:02:30.018|56=MA|10=194|8=FIX.4.4|9=54|35=0|34=155|49=MMJBAER|52=20190128-21:04:00.018|56=MA|10=194|8=FIX.4.4|9=54|35=0|34=156|49=MMJBAER|52=20190128-21:05:30.018|56=MA|10=199|8=FIX.4.4|9=54|35=0|34=157|49=MMJBAER|52=20190128-21:07:00.237|56=MA|10=202|8=FIX.4.4|9=54|35=0|34=158|49=MMJBAER|52=20190128-21:08:30.299|56=MA|10=215|8=FIX.4.4|9=54|35=0|34=159|49=MMJBAER|52=20190128-21:10:00.304|56=MA|10=193|8=FIX.4.4|9=54|35=0|34=160|49=MMJBAER|52=20190128-21:11:30.306|56=MA|10=191|8=FIX.4.4|9=54|35=0|34=161|49=MMJBAER|52=20190128-21:13:00.316|56=MA|10=192|8=FIX.4.4|9=54|35=0|34=162|49=MMJBAER|52=20190128-21:14:31.014|56=MA|10=193|8=FIX.4.4|9=54|35=0|34=163|49=MMJBAER|52=20190128-21:16:01.014|56=MA|10=193|8=FIX.4.4|9=54|35=0|34=164|49=MMJBAER|52=20190128-21:17:31.304|56=MA|10=200|8=FIX.4.4|9=54|35=0|34=165|49=MMJBAER|52=20190128-21:19:01.321|56=MA|10=199|8=FIX.4.4|9=54|35=0|34=166|49=MMJBAER|52=20190128-21:20:32.012|56=MA|10=193|8=FIX.4.4|9=54|35=0|34=167|49=MMJBAER|52=20190128-21:22:02.012|56=MA|10=193|8=FIX.4.4|9=54|35=0|34=168|49=MMJBAER|52=20190128-21:23:32.295|56=MA|10=211|8=FIX.4.4|9=54|35=0|34=169|49=MMJBAER|52=20190128-21:25:03.010|56=MA|10=197|8=FIX.4.4|9=54|35=0|34=170|49=MMJBAER|52=20190128-21:26:33.287|56=MA|10=209|8=FIX.4.4|9=54|35=0|34=171|49=MMJBAER|52=20190128-21:28:03.314|56=MA|10=200|8=FIX.4.4|9=54|35=0|34=172|49=MMJBAER|52=20190128-21:29:34.008|56=MA|10=206|8=FIX.4.4|9=54|35=0|34=173|49=MMJBAER|52=20190128-21:31:04.008|56=MA|10=197|8=FIX.4.4|9=54|35=0|34=174|49=MMJBAER|52=20190128-21:32:34.008|56=MA|10=202|8=FIX.4.4|9=54|35=0|34=175|49=MMJBAER|52=20190128-21:34:04.314|56=MA|10=202|8=FIX.4.4|9=54|35=0|34=176|49=MMJBAER|52=20190128-21:35:35.006|56=MA|10=206|8=FIX.4.4|9=54|35=0|34=177|49=MMJBAER|52=20190128-21:37:05.006|56=MA|10=206|8=FIX.4.4|9=54|35=0|34=178|49=MMJBAER|52=20190128-21:38:36.005|56=MA|10=211|8=FIX.4.4|9=54|35=0|34=179|49=MMJBAER|52=20190128-21:40:06.005|56=MA|10=202|8=FIX.4.4|9=54|35=0|34=180|49=MMJBAER|52=20190128-21:41:36.184|56=MA|10=206|8=FIX.4.4|9=54|35=0|34=181|49=MMJBAER|52=20190128-21:43:06.294|56=MA|10=208|8=FIX.4.4|9=54|35=0|34=182|49=MMJBAER|52=20190128-21:44:37.003|56=MA|10=202|8=FIX.4.4|9=54|35=0|34=183|49=MMJBAER|52=20190128-21:46:07.003|56=MA|10=202|8=FIX.4.4|9=54|35=0|34=184|49=MMJBAER|52=20190128-21:47:38.001|56=MA|10=206|8=FIX.4.4|9=54|35=0|34=185|49=MMJBAER|52=20190128-21:49:08.002|56=MA|10=207|8=FIX.4.4|9=54|35=0|34=186|49=MMJBAER|52=20190128-21:50:38.304|56=MA|10=208|8=FIX.4.4|9=54|35=0|34=187|49=MMJBAER|52=20190128-21:52:09.000|56=MA|10=202|8=FIX.4.4|9=54|35=0|34=188|49=MMJBAER|52=20190128-21:53:39.000|56=MA|10=207|8=FIX.4.4|9=54|35=0|34=189|49=MMJBAER|52=20190128-21:55:09.000|56=MA|10=207|8=FIX.4.4|9=54|35=0|34=190|49=MMJBAER|52=20190128-21:56:39.999|56=MA|10=230|8=FIX.4.4|9=54|35=0|34=191|49=MMJBAER|52=20190128-21:58:10.998|56=MA|10=221|8=FIX.4.4|9=54|35=0|34=192|49=MMJBAER|52=20190128-21:59:41.999|56=MA|10=228|8=FIX.4.4|9=54|35=0|34=193|49=MMJBAER|52=20190128-22:01:12.996|56=MA|10=212|8=FIX.4.4|9=54|35=0|34=194|49=MMJBAER|52=20190128-22:02:42.998|56=MA|10=219|8=FIX.4.4|9=54|35=0|34=195|49=MMJBAER|52=20190128-22:04:13.995|56=MA|10=217|8=FIX.4.4|9=54|35=0|34=196|49=MMJBAER|52=20190128-22:05:43.995|56=MA|10=222|8=FIX.4.4|9=54|35=0|34=197|49=MMJBAER|52=20190128-22:07:13.995|56=MA|10=222|8=FIX.4.4|9=54|35=0|34=198|49=MMJBAER|52=20190128-22:08:44.994|56=MA|10=227|8=FIX.4.4|9=54|35=0|34=199|49=MMJBAER|52=20190128-22:10:14.994|56=MA|10=218|8=FIX.4.4|9=54|35=0|34=200|49=MMJBAER|52=20190128-22:11:44.994|56=MA|10=205|8=FIX.4.4|9=54|35=0|34=201|49=MMJBAER|52=20190128-22:13:15.993|56=MA|10=205|8=FIX.4.4|9=54|35=0|34=202|49=MMJBAER|52=20190128-22:14:45.993|56=MA|10=210|8=FIX.4.4|9=54|35=0|34=203|49=MMJBAER|52=20190128-22:16:16.991|56=MA|10=209|8=FIX.4.4|9=54|35=0|34=204|49=MMJBAER|52=20190128-22:17:46.991|56=MA|10=214|8=FIX.4.4|9=54|35=0|34=205|49=MMJBAER|52=20190128-22:19:17.990|56=MA|10=214|8=FIX.4.4|9=54|35=0|34=206|49=MMJBAER|52=20190128-22:20:47.990|56=MA|10=210|8=FIX.4.4|9=54|35=0|34=207|49=MMJBAER|52=20190128-22:22:18.990|56=MA|10=211|8=FIX.4.4|9=54|35=0|34=208|49=MMJBAER|52=20190128-22:23:49.989|56=MA|10=225|8=FIX.4.4|9=54|35=0|34=209|49=MMJBAER|52=20190128-22:25:20.988|56=MA|10=216|8=FIX.4.4|9=54|35=0|34=210|49=MMJBAER|52=20190128-22:26:50.988|56=MA|10=212|8=FIX.4.4|9=54|35=0|34=211|49=MMJBAER|52=20190128-22:28:21.987|56=MA|10=212|8=FIX.4.4|9=54|35=0|34=212|49=MMJBAER|52=20190128-22:29:51.987|56=MA|10=217|8=FIX.4.4|9=54|35=0|34=213|49=MMJBAER|52=20190128-22:31:21.987|56=MA|10=208|8=FIX.4.4|9=54|35=0|34=214|49=MMJBAER|52=20190128-22:32:52.986|56=MA|10=213|8=FIX.4.4|9=54|35=0|34=215|49=MMJBAER|52=20190128-22:34:23.985|56=MA|10=213|8=FIX.4.4|9=54|35=0|34=216|49=MMJBAER|52=20190128-22:35:53.985|56=MA|10=218|8=FIX.4.4|9=54|35=0|34=217|49=MMJBAER|52=20190128-22:37:24.984|56=MA|10=218|8=FIX.4.4|9=54|35=0|34=218|49=MMJBAER|52=20190128-22:38:55.983|56=MA|10=223|8=FIX.4.4|9=54|35=0|34=219|49=MMJBAER|52=20190128-22:40:26.983|56=MA|10=215|8=FIX.4.4|9=54|35=0|34=220|49=MMJBAER|52=20190128-22:41:57.982|56=MA|10=211|8=FIX.4.4|9=54|35=0|34=221|49=MMJBAER|52=20190128-22:43:28.981|56=MA|10=211|8=FIX.4.4|9=54|35=0|34=222|49=MMJBAER|52=20190128-22:44:58.981|56=MA|10=216|8=FIX.4.4|9=54|35=0|34=223|49=MMJBAER|52=20190128-22:46:29.980|56=MA|10=216|8=FIX.4.4|9=54|35=0|34=224|49=MMJBAER|52=20190128-22:47:59.980|56=MA|10=221|8=FIX.4.4|9=54|35=0|34=225|49=MMJBAER|52=20190128-22:49:30.980|56=MA|10=213|8=FIX.4.4|9=54|35=0|34=226|49=MMJBAER|52=20190128-22:51:01.979|56=MA|10=213|8=FIX.4.4|9=54|35=0|34=227|49=MMJBAER|52=20190128-22:52:32.978|56=MA|10=218|8=FIX.4.4|9=54|35=0|34=228|49=MMJBAER|52=20190128-22:54:02.978|56=MA|10=218|8=FIX.4.4|9=54|35=0|34=229|49=MMJBAER|52=20190128-22:55:33.977|56=MA|10=223|8=FIX.4.4|9=54|35=0|34=230|49=MMJBAER|52=20190128-22:57:04.977|56=MA|10=215|8=FIX.4.4|9=54|35=0|34=231|49=MMJBAER|52=20190128-22:58:35.976|56=MA|10=220|8=FIX.4.4|9=54|35=0|34=232|49=MMJBAER|52=20190128-23:00:05.976|56=MA|10=206|8=FIX.4.4|9=54|35=0|34=233|49=MMJBAER|52=20190128-23:01:36.975|56=MA|10=211|8=FIX.4.4|9=54|35=0|34=234|49=MMJBAER|52=20190128-23:03:06.975|56=MA|10=211|8=FIX.4.4|9=54|35=0|34=235|49=MMJBAER|52=20190128-23:04:37.973|56=MA|10=215|8=FIX.4.4|9=54|35=5|34=236|49=MMJBAER|52=20190128-23:05:02.184|56=MA|10=208|8=FIX.4.4|9=83|35=A|34=237|49=MMJBAER|52=20190129-09:20:14.416|56=MA|98=0|108=90|95=8|96=3.0.0rc5|10=139|8=FIX.4.4|9=105|35=5|34=238|49=MMJBAER|52=20190129-09:20:15.008|56=MA|58=MsgSeqNum too low, expecting 241 but received 1|10=252|8=FIX.4.4|9=81|35=A|34=1|49=MMJBAER|52=20190129-09:20:19.413|56=MA|98=0|108=90|95=8|96=3.0.0rc5|10=032|8=FIX.4.4|9=52|35=5|34=2|49=MMJBAER|52=20190129-09:20:19.505|56=MA|10=108|8=FIX.4.4|9=81|35=A|34=3|49=MMJBAER|52=20190129-09:20:24.413|56=MA|98=0|108=90|95=8|96=3.0.0rc5|10=030|8=FIX.4.4|9=61|35=2|34=4|49=MMJBAER|52=20190129-09:20:25.007|56=MA|7=2|16=0|10=225|8=FIX.4.4|9=178|35=D|34=5|49=MMJBAER|52=20190129-09:20:30.676|56=MA|11=MMAD071218-9|453=1|448=MMJBAER|447=C|452=11|55=NA|48=XS0042821321|22=4|54=2|60=20190129-09:20:30.675|38=1000000|40=1|423=1|10=053|8=FIX.4.4|9=52|35=0|34=6|49=MMJBAER|52=20190129-09:22:01.022|56=MA|10=094|8=FIX.4.4|9=52|35=0|34=7|49=MMJBAER|52=20190129-09:23:31.097|56=MA|10=111|8=FIX.4.4|9=52|35=0|34=8|49=MMJBAER|52=20190129-09:25:01.411|56=MA|10=101|8=FIX.4.4|9=52|35=0|34=9|49=MMJBAER|52=20190129-09:26:32.100|56=MA|10=102|8=FIX.4.4|9=53|35=0|34=10|49=MMJBAER|52=20190129-09:28:02.106|56=MA|10=148|8=FIX.4.4|9=180|35=D|34=11|49=MMJBAER|52=20190129-09:28:16.757|56=MA|11=MMAD071218-10|453=1|448=MMJBAER|447=C|452=11|55=NA|48=US912556DU88|22=4|54=2|60=20190129-09:28:16.756|38=1000000|40=1|423=1|10=230|8=FIX.4.4|9=180|35=D|34=12|49=MMJBAER|52=20190129-09:29:13.987|56=MA|11=MMAD071218-11|453=1|448=MMJBAER|447=C|452=11|55=NA|48=US27020EAA64|22=4|54=2|60=20190129-09:29:13.987|38=1000000|40=1|423=1|10=214|8=FIX.4.4|9=53|35=0|34=13|49=MMJBAER|52=20190129-09:30:44.409|56=MA|10=156|8=FIX.4.4|9=53|35=0|34=14|49=MMJBAER|52=20190129-09:32:14.409|56=MA|10=156|8=FIX.4.4|9=53|35=0|34=15|49=MMJBAER|52=20190129-09:33:45.101|56=MA|10=151|8=FIX.4.4|9=53|35=0|34=16|49=MMJBAER|52=20190129-09:35:15.407|56=MA|10=160|8=FIX.4.4|9=53|35=0|34=17|49=MMJBAER|52=20190129-09:36:46.091|56=MA|10=165|8=FIX.4.4|9=53|35=0|34=18|49=MMJBAER|52=20190129-09:38:16.095|56=MA|10=169|8=FIX.4.4|9=53|35=0|34=19|49=MMJBAER|52=20190129-09:39:46.405|56=MA|10=169|8=FIX.4.4|9=53|35=0|34=20|49=MMJBAER|52=20190129-09:41:16.405|56=MA|10=151|8=FIX.4.4|9=53|35=0|34=21|49=MMJBAER|52=20190129-09:42:46.405|56=MA|10=156|8=FIX.4.4|9=53|35=0|34=22|49=MMJBAER|52=20190129-09:44:16.405|56=MA|10=156|8=FIX.4.4|9=53|35=0|34=23|49=MMJBAER|52=20190129-09:45:47.403|56=MA|10=160|8=FIX.4.4|9=53|35=0|34=24|49=MMJBAER|52=20190129-09:47:17.404|56=MA|10=161|8=FIX.4.4|9=53|35=0|34=25|49=MMJBAER|52=20190129-09:48:48.092|56=MA|10=170|8=FIX.4.4|9=53|35=0|34=26|49=MMJBAER|52=20190129-09:50:18.401|56=MA|10=155|8=FIX.4.4|9=53|35=0|34=27|49=MMJBAER|52=20190129-09:51:48.402|56=MA|10=161|8=FIX.4.4|9=53|35=0|34=28|49=MMJBAER|52=20190129-09:53:19.101|56=MA|10=158|8=FIX.4.4|9=53|35=0|34=29|49=MMJBAER|52=20190129-09:54:49.400|56=MA|10=165|8=FIX.4.4|9=53|35=0|34=30|49=MMJBAER|52=20190129-09:56:20.135|56=MA|10=153|8=FIX.4.4|9=53|35=0|34=31|49=MMJBAER|52=20190129-09:57:50.400|56=MA|10=153|8=FIX.4.4|9=53|35=0|34=32|49=MMJBAER|52=20190129-09:59:21.004|56=MA|10=154|8=FIX.4.4|9=53|35=0|34=33|49=MMJBAER|52=20190129-10:00:51.053|56=MA|10=140|8=FIX.4.4|9=53|35=0|34=34|49=MMJBAER|52=20190129-10:02:21.098|56=MA|10=149|8=FIX.4.4|9=53|35=0|34=35|49=MMJBAER|52=20190129-10:03:51.397|56=MA|10=156|8=FIX.4.4|9=53|35=0|34=36|49=MMJBAER|52=20190129-10:05:21.397|56=MA|10=156|8=FIX.4.4|9=53|35=0|34=37|49=MMJBAER|52=20190129-10:06:51.397|56=MA|10=161|8=FIX.4.4|9=53|35=0|34=38|49=MMJBAER|52=20190129-10:08:22.091|56=MA|10=153|8=FIX.4.4|9=53|35=0|34=39|49=MMJBAER|52=20190129-10:09:52.396|56=MA|10=166|8=FIX.4.4|9=53|35=0|34=40|49=MMJBAER|52=20190129-10:11:23.093|56=MA|10=143|8=FIX.4.4|9=53|35=0|34=41|49=MMJBAER|52=20190129-10:12:53.393|56=MA|10=151|8=FIX.4.4|9=53|35=0|34=42|49=MMJBAER|52=20190129-10:14:23.393|56=MA|10=151|8=FIX.4.4|9=53|35=0|34=43|49=MMJBAER|52=20190129-10:15:54.096|56=MA|10=157|8=FIX.4.4|9=53|35=0|34=44|49=MMJBAER|52=20190129-10:17:24.392|56=MA|10=156|8=FIX.4.4|9=53|35=0|34=45|49=MMJBAER|52=20190129-10:18:55.098|56=MA|10=165|8=FIX.4.4|9=53|35=0|34=46|49=MMJBAER|52=20190129-10:20:25.390|56=MA|10=151|8=FIX.4.4|9=53|35=0|34=47|49=MMJBAER|52=20190129-10:21:55.390|56=MA|10=156|8=FIX.4.4|9=53|35=0|34=48|49=MMJBAER|52=20190129-10:23:25.390|56=MA|10=156|8=FIX.4.4|9=53|35=0|34=49|49=MMJBAER|52=20190129-10:24:56.389|56=MA|10=170|8=FIX.4.4|9=53|35=0|34=50|49=MMJBAER|52=20190129-10:26:26.389|56=MA|10=161|8=FIX.4.4|9=53|35=0|34=51|49=MMJBAER|52=20190129-10:27:57.387|56=MA|10=165|8=FIX.4.4|9=53|35=0|34=52|49=MMJBAER|52=20190129-10:29:27.388|56=MA|10=166|8=FIX.4.4|9=53|35=0|34=53|49=MMJBAER|52=20190129-10:30:58.386|56=MA|10=161|8=FIX.4.4|9=53|35=0|34=54|49=MMJBAER|52=20190129-10:32:28.386|56=MA|10=161|8=FIX.4.4|9=53|35=0|34=55|49=MMJBAER|52=20190129-10:33:59.385|56=MA|10=166|8=FIX.4.4|9=53|35=0|34=56|49=MMJBAER|52=20190129-10:35:29.385|56=MA|10=166|8=FIX.4.4|9=53|35=0|34=57|49=MMJBAER|52=20190129-10:37:00.385|56=MA|10=158|8=FIX.4.4|9=53|35=0|34=58|49=MMJBAER|52=20190129-10:38:31.383|56=MA|10=162|8=FIX.4.4|9=53|35=0|34=59|49=MMJBAER|52=20190129-10:40:01.383|56=MA|10=153|8=FIX.4.4|9=53|35=0|34=60|49=MMJBAER|52=20190129-10:41:31.383|56=MA|10=149|8=FIX.4.4|9=53|35=0|34=61|49=MMJBAER|52=20190129-10:43:02.383|56=MA|10=150|8=FIX.4.4|9=53|35=0|34=62|49=MMJBAER|52=20190129-10:44:32.383|56=MA|10=155|8=FIX.4.4|9=53|35=0|34=63|49=MMJBAER|52=20190129-10:46:03.381|56=MA|10=154|8=FIX.4.4|9=53|35=0|34=64|49=MMJBAER|52=20190129-10:47:33.381|56=MA|10=159|8=FIX.4.4|9=53|35=0|34=65|49=MMJBAER|52=20190129-10:49:04.380|56=MA|10=159|8=FIX.4.4|9=53|35=0|34=66|49=MMJBAER|52=20190129-10:50:34.380|56=MA|10=155|8=FIX.4.4|9=53|35=0|34=67|49=MMJBAER|52=20190129-10:52:05.380|56=MA|10=156|8=FIX.4.4|9=53|35=0|34=68|49=MMJBAER|52=20190129-10:53:36.379|56=MA|10=170|8=FIX.4.4|9=53|35=0|34=69|49=MMJBAER|52=20190129-10:55:07.378|56=MA|10=170|8=FIX.4.4|9=53|35=0|34=70|49=MMJBAER|52=20190129-10:56:38.377|56=MA|10=166|8=FIX.4.4|9=53|35=0|34=71|49=MMJBAER|52=20190129-10:58:09.377|56=MA|10=167|8=FIX.4.4|9=53|35=0|34=72|49=MMJBAER|52=20190129-10:59:39.377|56=MA|10=172|8=FIX.4.4|9=53|35=0|34=73|49=MMJBAER|52=20190129-11:01:10.375|56=MA|10=148|8=FIX.4.4|9=53|35=0|34=74|49=MMJBAER|52=20190129-11:02:40.375|56=MA|10=153|8=FIX.4.4|9=53|35=0|34=75|49=MMJBAER|52=20190129-11:04:11.374|56=MA|10=153|8=FIX.4.4|9=53|35=0|34=76|49=MMJBAER|52=20190129-11:05:41.375|56=MA|10=159|8=FIX.4.4|9=53|35=0|34=77|49=MMJBAER|52=20190129-11:07:12.374|56=MA|10=159|8=FIX.4.4|9=53|35=0|34=78|49=MMJBAER|52=20190129-11:08:43.372|56=MA|10=163|8=FIX.4.4|9=53|35=0|34=79|49=MMJBAER|52=20190129-11:10:14.372|56=MA|10=155|8=FIX.4.4|9=53|35=0|34=80|49=MMJBAER|52=20190129-11:11:45.371|56=MA|10=151|8=FIX.4.4|9=53|35=0|34=81|49=MMJBAER|52=20190129-11:13:15.974|56=MA|10=160|8=FIX.4.4|9=53|35=0|34=82|49=MMJBAER|52=20190129-11:14:46.368|56=MA|10=163|8=FIX.4.4|9=53|35=0|34=83|49=MMJBAER|52=20190129-11:16:16.993|56=MA|10=167|8=FIX.4.4|9=53|35=0|34=84|49=MMJBAER|52=20190129-11:17:47.088|56=MA|10=168|8=FIX.4.4|9=53|35=0|34=85|49=MMJBAER|52=20190129-11:19:17.093|56=MA|10=164|8=FIX.4.4|9=53|35=0|34=86|49=MMJBAER|52=20190129-11:20:47.365|56=MA|10=162|8=FIX.4.4|9=53|35=0|34=87|49=MMJBAER|52=20190129-11:22:17.365|56=MA|10=162|8=FIX.4.4|9=53|35=0|34=88|49=MMJBAER|52=20190129-11:23:48.363|56=MA|10=166|8=FIX.4.4|9=53|35=0|34=89|49=MMJBAER|52=20190129-11:25:18.972|56=MA|10=172|8=FIX.4.4|9=53|35=0|34=90|49=MMJBAER|52=20190129-11:26:48.978|56=MA|10=174|8=FIX.4.4|9=53|35=0|34=91|49=MMJBAER|52=20190129-11:28:19.092|56=MA|10=162|8=FIX.4.4|9=53|35=0|34=92|49=MMJBAER|52=20190129-11:29:49.367|56=MA|10=172|8=FIX.4.4|9=53|35=0|34=93|49=MMJBAER|52=20190129-11:31:19.368|56=MA|10=164|8=FIX.4.4|9=53|35=0|34=94|49=MMJBAER|52=20190129-11:32:49.368|56=MA|10=169|8=FIX.4.4|9=53|35=0|34=95|49=MMJBAER|52=20190129-11:34:19.368|56=MA|10=169|8=FIX.4.4|9=53|35=0|34=96|49=MMJBAER|52=20190129-11:35:49.368|56=MA|10=174|8=FIX.4.4|9=53|35=0|34=97|49=MMJBAER|52=20190129-11:37:20.366|56=MA|10=164|8=FIX.4.4|9=53|35=0|34=98|49=MMJBAER|52=20190129-11:38:51.366|56=MA|10=170|8=FIX.4.4|9=53|35=0|34=99|49=MMJBAER|52=20190129-11:40:22.365|56=MA|10=161|8=FIX.4.4|9=54|35=0|34=100|49=MMJBAER|52=20190129-11:41:52.365|56=MA|10=197|8=FIX.4.4|9=54|35=0|34=101|49=MMJBAER|52=20190129-11:43:23.364|56=MA|10=197|8=FIX.4.4|9=54|35=0|34=102|49=MMJBAER|52=20190129-11:44:53.364|56=MA|10=202|8=FIX.4.4|9=54|35=0|34=103|49=MMJBAER|52=20190129-11:46:23.364|56=MA|10=202|8=FIX.4.4|9=54|35=0|34=104|49=MMJBAER|52=20190129-11:47:53.992|56=MA|10=214|8=FIX.4.4|9=54|35=0|34=105|49=MMJBAER|52=20190129-11:49:24.054|56=MA|10=204|8=FIX.4.4|9=54|35=0|34=106|49=MMJBAER|52=20190129-11:50:54.093|56=MA|10=203|8=FIX.4.4|9=54|35=0|34=107|49=MMJBAER|52=20190129-11:52:24.361|56=MA|10=201|8=FIX.4.4|9=54|35=0|34=108|49=MMJBAER|52=20190129-11:53:55.095|56=MA|10=211|8=FIX.4.4|9=54|35=0|34=109|49=MMJBAER|52=20190129-11:55:25.360|56=MA|10=206|8=FIX.4.4|9=54|35=0|34=110|49=MMJBAER|52=20190129-11:56:56.073|56=MA|10=204|8=FIX.4.4|9=54|35=0|34=111|49=MMJBAER|52=20190129-11:58:26.095|56=MA|10=208|8=FIX.4.4|9=54|35=0|34=112|49=MMJBAER|52=20190129-11:59:56.358|56=MA|10=215|8=FIX.4.4|9=54|35=0|34=113|49=MMJBAER|52=20190129-12:01:26.358|56=MA|10=201|8=FIX.4.4|9=54|35=0|34=114|49=MMJBAER|52=20190129-12:02:56.983|56=MA|10=210|8=FIX.4.4|9=54|35=0|34=115|49=MMJBAER|52=20190129-12:04:27.078|56=MA|10=206|8=FIX.4.4|9=54|35=0|34=116|49=MMJBAER|52=20190129-12:05:57.105|56=MA|10=202|8=FIX.4.4|9=54|35=0|34=117|49=MMJBAER|52=20190129-12:07:27.355|56=MA|10=209|8=FIX.4.4|9=54|35=0|34=118|49=MMJBAER|52=20190129-12:08:58.104|56=MA|10=207|8=FIX.4.4|9=54|35=0|34=119|49=MMJBAER|52=20190129-12:10:28.354|56=MA|10=205|8=FIX.4.4|9=54|35=0|34=120|49=MMJBAER|52=20190129-12:11:58.355|56=MA|10=202|8=FIX.4.4|9=54|35=0|34=121|49=MMJBAER|52=20190129-12:13:29.039|56=MA|10=202|8=FIX.4.4|9=54|35=0|34=122|49=MMJBAER|52=20190129-12:14:59.098|56=MA|10=212|8=FIX.4.4|9=54|35=0|34=123|49=MMJBAER|52=20190129-12:16:29.352|56=MA|10=205|8=FIX.4.4|9=54|35=0|34=124|49=MMJBAER|52=20190129-12:17:59.352|56=MA|10=210|8=FIX.4.4|9=54|35=0|34=125|49=MMJBAER|52=20190129-12:19:29.988|56=MA|10=225|8=FIX.4.4|9=54|35=0|34=126|49=MMJBAER|52=20190129-12:21:00.165|56=MA|10=195|8=FIX.4.4|9=54|35=0|34=127|49=MMJBAER|52=20190129-12:22:30.350|56=MA|10=196|8=FIX.4.4|9=54|35=0|34=128|49=MMJBAER|52=20190129-12:24:01.094|56=MA|10=202|8=FIX.4.4|9=54|35=0|34=129|49=MMJBAER|52=20190129-12:25:31.348|56=MA|10=209|8=FIX.4.4|9=54|35=0|34=130|49=MMJBAER|52=20190129-12:27:01.349|56=MA|10=201|8=FIX.4.4|9=54|35=0|34=131|49=MMJBAER|52=20190129-12:28:32.091|56=MA|10=201|8=FIX.4.4|9=54|35=0|34=132|49=MMJBAER|52=20190129-12:30:02.093|56=MA|10=194|8=FIX.4.4|9=54|35=0|34=133|49=MMJBAER|52=20190129-12:31:32.346|56=MA|10=200|8=FIX.4.4|9=54|35=0|34=134|49=MMJBAER|52=20190129-12:33:03.061|56=MA|10=195|8=FIX.4.4|9=54|35=0|34=135|49=MMJBAER|52=20190129-12:34:33.105|56=MA|10=199|8=FIX.4.4|9=54|35=0|34=136|49=MMJBAER|52=20190129-12:36:03.345|56=MA|10=205|8=FIX.4.4|9=54|35=0|34=137|49=MMJBAER|52=20190129-12:37:33.345|56=MA|10=210|8=FIX.4.4|9=54|35=0|34=138|49=MMJBAER|52=20190129-12:39:03.979|56=MA|10=223|8=FIX.4.4|9=54|35=0|34=139|49=MMJBAER|52=20190129-12:40:34.096|56=MA|10=210|8=FIX.4.4|9=54|35=0|34=140|49=MMJBAER|52=20190129-12:42:04.105|56=MA|10=192|8=FIX.4.4|9=54|35=0|34=141|49=MMJBAER|52=20190129-12:43:34.342|56=MA|10=200|8=FIX.4.4|9=54|35=0|34=142|49=MMJBAER|52=20190129-12:45:05.106|56=MA|10=199|8=FIX.4.4|9=54|35=0|34=143|49=MMJBAER|52=20190129-12:46:35.341|56=MA|10=205|8=FIX.4.4|9=54|35=0|34=144|49=MMJBAER|52=20190129-12:48:05.341|56=MA|10=205|8=FIX.4.4|9=54|35=0|34=145|49=MMJBAER|52=20190129-12:49:36.093|56=MA|10=215|8=FIX.4.4|9=54|35=0|34=146|49=MMJBAER|52=20190129-12:51:06.103|56=MA|10=198|8=FIX.4.4|9=54|35=0|34=147|49=MMJBAER|52=20190129-12:52:36.339|56=MA|10=214|8=FIX.4.4|9=54|35=0|34=148|49=MMJBAER|52=20190129-12:54:07.098|56=MA|10=217|8=FIX.4.4|9=54|35=0|34=149|49=MMJBAER|52=20190129-12:55:37.338|56=MA|10=219|8=FIX.4.4|9=54|35=0|34=150|49=MMJBAER|52=20190129-12:57:07.977|56=MA|10=219|8=FIX.4.4|9=54|35=0|34=151|49=MMJBAER|52=20190129-12:58:38.016|56=MA|10=209|8=FIX.4.4|9=54|35=0|34=152|49=MMJBAER|52=20190129-13:00:08.336|56=MA|10=200|8=FIX.4.4|9=54|35=0|34=153|49=MMJBAER|52=20190129-13:01:39.085|56=MA|10=207|8=FIX.4.4|9=54|35=0|34=154|49=MMJBAER|52=20190129-13:03:09.097|56=MA|10=210|8=FIX.4.4|9=54|35=0|34=155|49=MMJBAER|52=20190129-13:04:39.335|56=MA|10=210|8=FIX.4.4|9=54|35=0|34=156|49=MMJBAER|52=20190129-13:06:10.116|56=MA|10=199|8=FIX.4.4|9=54|35=0|34=157|49=MMJBAER|52=20190129-13:07:40.160|56=MA|10=203|8=FIX.4.4|9=54|35=0|34=158|49=MMJBAER|52=20190129-13:09:10.333|56=MA|10=205|8=FIX.4.4|9=54|35=0|34=159|49=MMJBAER|52=20190129-13:10:40.333|56=MA|10=201|8=FIX.4.4|9=54|35=0|34=160|49=MMJBAER|52=20190129-13:12:11.091|56=MA|10=194|8=FIX.4.4|9=54|35=0|34=161|49=MMJBAER|52=20190129-13:13:41.330|56=MA|10=195|8=FIX.4.4|9=54|35=0|34=162|49=MMJBAER|52=20190129-13:15:11.330|56=MA|10=195|8=FIX.4.4|9=54|35=0|34=163|49=MMJBAER|52=20190129-13:16:41.975|56=MA|10=215|8=FIX.4.4|9=54|35=0|34=164|49=MMJBAER|52=20190129-13:18:12.086|56=MA|10=209|8=FIX.4.4|9=54|35=0|34=165|49=MMJBAER|52=20190129-13:19:42.328|56=MA|10=213|8=FIX.4.4|9=54|35=0|34=166|49=MMJBAER|52=20190129-13:21:12.329|56=MA|10=205|8=FIX.4.4|9=54|35=0|34=167|49=MMJBAER|52=20190129-13:22:43.328|56=MA|10=210|8=FIX.4.4|9=54|35=0|34=168|49=MMJBAER|52=20190129-13:24:14.081|56=MA|10=207|8=FIX.4.4|9=54|35=0|34=169|49=MMJBAER|52=20190129-13:25:44.085|56=MA|10=216|8=FIX.4.4|9=54|35=0|34=170|49=MMJBAER|52=20190129-13:27:14.326|56=MA|10=205|8=FIX.4.4|9=54|35=0|34=171|49=MMJBAER|52=20190129-13:28:44.326|56=MA|10=210|8=FIX.4.4|9=54|35=0|34=172|49=MMJBAER|52=20190129-13:30:15.084|56=MA|10=203|8=FIX.4.4|9=54|35=0|34=173|49=MMJBAER|52=20190129-13:31:45.325|56=MA|10=206|8=FIX.4.4|9=54|35=0|34=174|49=MMJBAER|52=20190129-13:33:16.312|56=MA|10=203|8=FIX.4.4|9=54|35=0|34=175|49=MMJBAER|52=20190129-13:34:46.324|56=MA|10=211|8=FIX.4.4|9=54|35=0|34=176|49=MMJBAER|52=20190129-13:36:17.026|56=MA|10=211|8=FIX.4.4|9=54|35=0|34=177|49=MMJBAER|52=20190129-13:37:47.322|56=MA|10=215|8=FIX.4.4|9=54|35=0|34=178|49=MMJBAER|52=20190129-13:39:17.323|56=MA|10=216|8=FIX.4.4|9=54|35=0|34=179|49=MMJBAER|52=20190129-13:40:48.321|56=MA|10=211|8=FIX.4.4|9=54|35=0|34=180|49=MMJBAER|52=20190129-13:42:18.979|56=MA|10=221|8=FIX.4.4|9=54|35=0|34=181|49=MMJBAER|52=20190129-13:43:49.108|56=MA|10=211|8=FIX.4.4|9=54|35=0|34=182|49=MMJBAER|52=20190129-13:45:19.108|56=MA|10=211|8=FIX.4.4|9=54|35=0|34=183|49=MMJBAER|52=20190129-13:46:49.319|56=MA|10=220|8=FIX.4.4|9=54|35=0|34=184|49=MMJBAER|52=20190129-13:48:19.996|56=MA|10=231|8=FIX.4.4|9=54|35=0|34=185|49=MMJBAER|52=20190129-13:49:50.318|56=MA|10=216|8=FIX.4.4|9=54|35=0|34=186|49=MMJBAER|52=20190129-13:51:20.318|56=MA|10=207|8=FIX.4.4|9=54|35=0|34=187|49=MMJBAER|52=20190129-13:52:51.096|56=MA|10=216|8=FIX.4.4|9=54|35=0|34=188|49=MMJBAER|52=20190129-13:54:21.316|56=MA|10=211|8=FIX.4.4|9=54|35=0|34=189|49=MMJBAER|52=20190129-13:55:52.104|56=MA|10=212|8=FIX.4.4|9=54|35=0|34=190|49=MMJBAER|52=20190129-13:57:22.314|56=MA|10=206|8=FIX.4.4|9=54|35=0|34=191|49=MMJBAER|52=20190129-13:58:52.314|56=MA|10=211|8=FIX.4.4|9=54|35=0|34=192|49=MMJBAER|52=20190129-14:00:22.314|56=MA|10=197|8=FIX.4.4|9=54|35=0|34=193|49=MMJBAER|52=20190129-14:01:53.106|56=MA|10=202|8=FIX.4.4|9=54|35=0|34=194|49=MMJBAER|52=20190129-14:03:23.313|56=MA|10=202|8=FIX.4.4|9=54|35=0|34=195|49=MMJBAER|52=20190129-14:04:54.106|56=MA|10=208|8=FIX.4.4|9=54|35=0|34=196|49=MMJBAER|52=20190129-14:06:24.311|56=MA|10=206|8=FIX.4.4|9=54|35=0|34=197|49=MMJBAER|52=20190129-14:07:54.312|56=MA|10=212|8=FIX.4.4|9=54|35=0|34=198|49=MMJBAER|52=20190129-14:09:25.054|56=MA|10=216|8=FIX.4.4|9=54|35=0|34=199|49=MMJBAER|52=20190129-14:10:55.310|56=MA|10=207|8=FIX.4.4|9=54|35=0|34=200|49=MMJBAER|52=20190129-14:12:26.113|56=MA|10=191|8=FIX.4.4|9=54|35=0|34=201|49=MMJBAER|52=20190129-14:13:56.126|56=MA|10=200|8=FIX.4.4|9=54|35=0|34=202|49=MMJBAER|52=20190129-14:15:26.310|56=MA|10=195|8=FIX.4.4|9=54|35=0|34=203|49=MMJBAER|52=20190129-14:16:57.095|56=MA|10=211|8=FIX.4.4|9=54|35=0|34=204|49=MMJBAER|52=20190129-14:18:27.119|56=MA|10=208|8=FIX.4.4|9=54|35=0|34=205|49=MMJBAER|52=20190129-14:19:57.307|56=MA|10=212|8=FIX.4.4|9=54|35=0|34=206|49=MMJBAER|52=20190129-14:21:28.119|56=MA|10=205|8=FIX.4.4|9=54|35=0|34=207|49=MMJBAER|52=20190129-14:22:58.132|56=MA|10=205|8=FIX.4.4|9=54|35=0|34=208|49=MMJBAER|52=20190129-14:24:28.305|56=MA|10=207|8=FIX.4.4|9=54|35=0|34=209|49=MMJBAER|52=20190129-14:25:59.130|56=MA|10=209|8=FIX.4.4|9=54|35=0|34=210|49=MMJBAER|52=20190129-14:27:29.304|56=MA|10=203|8=FIX.4.4|9=54|35=0|34=211|49=MMJBAER|52=20190129-14:29:00.184|56=MA|10=201|8=FIX.4.4|9=54|35=0|34=212|49=MMJBAER|52=20190129-14:30:30.302|56=MA|10=189|8=FIX.4.4|9=54|35=0|34=213|49=MMJBAER|52=20190129-14:32:00.302|56=MA|10=189|8=FIX.4.4|9=54|35=0|34=214|49=MMJBAER|52=20190129-14:33:30.302|56=MA|10=194|8=FIX.4.4|9=54|35=0|34=215|49=MMJBAER|52=20190129-14:35:01.301|56=MA|10=194|8=FIX.4.4|9=54|35=0|34=216|49=MMJBAER|52=20190129-14:36:31.301|56=MA|10=199|8=FIX.4.4|9=54|35=0|34=217|49=MMJBAER|52=20190129-14:38:01.976|56=MA|10=217|8=FIX.4.4|9=54|35=0|34=218|49=MMJBAER|52=20190129-14:39:32.149|56=MA|10=215|8=FIX.4.4|9=54|35=0|34=219|49=MMJBAER|52=20190129-14:41:02.299|56=MA|10=212|8=FIX.4.4|9=54|35=0|34=220|49=MMJBAER|52=20190129-14:42:32.299|56=MA|10=208|8=FIX.4.4|9=54|35=0|34=221|49=MMJBAER|52=20190129-14:44:03.299|56=MA|10=209|8=FIX.4.4|9=54|35=0|34=222|49=MMJBAER|52=20190129-14:45:34.140|56=MA|10=200|8=FIX.4.4|9=54|35=0|34=223|49=MMJBAER|52=20190129-14:47:04.297|56=MA|10=213|8=FIX.4.4|9=54|35=0|34=224|49=MMJBAER|52=20190129-14:48:34.992|56=MA|10=220|8=FIX.4.4|9=54|35=0|34=225|49=MMJBAER|52=20190129-14:50:05.136|56=MA|10=202|8=FIX.4.4|9=54|35=0|34=226|49=MMJBAER|52=20190129-14:51:35.296|56=MA|10=214|8=FIX.4.4|9=54|35=0|34=227|49=MMJBAER|52=20190129-14:53:06.137|56=MA|10=209|8=FIX.4.4|9=54|35=0|34=228|49=MMJBAER|52=20190129-14:54:36.294|56=MA|10=218|8=FIX.4.4|9=54|35=0|34=229|49=MMJBAER|52=20190129-14:56:07.135|56=MA|10=213|8=FIX.4.4|9=54|35=0|34=230|49=MMJBAER|52=20190129-14:57:37.293|56=MA|10=214|8=FIX.4.4|9=54|35=0|34=231|49=MMJBAER|52=20190129-14:59:07.293|56=MA|10=214|8=FIX.4.4|9=54|35=0|34=232|49=MMJBAER|52=20190129-15:00:38.019|56=MA|10=202|8=FIX.4.4|9=54|35=0|34=233|49=MMJBAER|52=20190129-15:02:08.111|56=MA|10=195|8=FIX.4.4|9=54|35=0|34=234|49=MMJBAER|52=20190129-15:03:38.291|56=MA|10=209|8=FIX.4.4|9=54|35=0|34=235|49=MMJBAER|52=20190129-15:05:09.111|56=MA|10=201|8=FIX.4.4|9=54|35=0|34=236|49=MMJBAER|52=20190129-15:06:39.132|56=MA|10=209|8=FIX.4.4|9=54|35=0|34=237|49=MMJBAER|52=20190129-15:08:09.289|56=MA|10=222|8=FIX.4.4|9=54|35=0|34=238|49=MMJBAER|52=20190129-15:09:39.289|56=MA|10=227|8=FIX.4.4|9=54|35=0|34=239|49=MMJBAER|52=20190129-15:11:10.032|56=MA|10=196|8=FIX.4.4|9=54|35=0|34=240|49=MMJBAER|52=20190129-15:12:40.287|56=MA|10=204|8=FIX.4.4|9=54|35=0|34=241|49=MMJBAER|52=20190129-15:14:10.287|56=MA|10=204|8=FIX.4.4|9=54|35=0|34=242|49=MMJBAER|52=20190129-15:15:41.102|56=MA|10=196|8=FIX.4.4|9=54|35=0|34=243|49=MMJBAER|52=20190129-15:17:11.287|56=MA|10=210|8=FIX.4.4|9=54|35=0|34=244|49=MMJBAER|52=20190129-15:18:41.980|56=MA|10=215|8=FIX.4.4|9=54|35=0|34=245|49=MMJBAER|52=20190129-15:20:12.139|56=MA|10=203|8=FIX.4.4|9=54|35=0|34=246|49=MMJBAER|52=20190129-15:21:42.284|56=MA|10=209|8=FIX.4.4|9=54|35=0|34=247|49=MMJBAER|52=20190129-15:23:12.284|56=MA|10=209|8=FIX.4.4|9=54|35=0|34=248|49=MMJBAER|52=20190129-15:24:43.111|56=MA|10=204|8=FIX.4.4|9=54|35=0|34=249|49=MMJBAER|52=20190129-15:26:13.283|56=MA|10=214|8=FIX.4.4|9=54|35=0|34=250|49=MMJBAER|52=20190129-15:27:44.125|56=MA|10=206|8=FIX.4.4|9=54|35=0|34=251|49=MMJBAER|52=20190129-15:29:14.281|56=MA|10=209|8=FIX.4.4|9=54|35=0|34=252|49=MMJBAER|52=20190129-15:30:45.111|56=MA|10=198|8=FIX.4.4|9=54|35=0|34=253|49=MMJBAER|52=20190129-15:32:15.125|56=MA|10=203|8=FIX.4.4|9=54|35=0|34=254|49=MMJBAER|52=20190129-15:33:45.281|56=MA|10=211|8=FIX.4.4|9=54|35=0|34=255|49=MMJBAER|52=20190129-15:35:16.127|56=MA|10=211|8=FIX.4.4|9=54|35=0|34=256|49=MMJBAER|52=20190129-15:36:46.279|56=MA|10=224|8=FIX.4.4|9=54|35=0|34=257|49=MMJBAER|52=20190129-15:38:16.975|56=MA|10=227|8=FIX.4.4|9=54|35=0|34=258|49=MMJBAER|52=20190129-15:39:47.122|56=MA|10=217|8=FIX.4.4|9=54|35=0|34=259|49=MMJBAER|52=20190129-15:41:17.277|56=MA|10=219|8=FIX.4.4|9=54|35=0|34=260|49=MMJBAER|52=20190129-15:42:47.277|56=MA|10=215|8=FIX.4.4|9=54|35=0|34=261|49=MMJBAER|52=20190129-15:44:17.974|56=MA|10=219|8=FIX.4.4|9=54|35=0|34=262|49=MMJBAER|52=20190129-15:45:48.116|56=MA|10=213|8=FIX.4.4|9=54|35=0|34=263|49=MMJBAER|52=20190129-15:47:18.275|56=MA|10=219|8=FIX.4.4|9=54|35=0|34=264|49=MMJBAER|52=20190129-15:48:49.106|56=MA|10=218|8=FIX.4.4|9=54|35=0|34=265|49=MMJBAER|52=20190129-15:50:19.273|56=MA|10=214|8=FIX.4.4|9=54|35=0|34=266|49=MMJBAER|52=20190129-15:51:49.273|56=MA|10=219|8=FIX.4.4|9=54|35=0|34=267|49=MMJBAER|52=20190129-15:53:19.273|56=MA|10=219|8=FIX.4.4|9=54|35=0|34=268|49=MMJBAER|52=20190129-15:54:50.272|56=MA|10=215|8=FIX.4.4|9=54|35=0|34=269|49=MMJBAER|52=20190129-15:56:21.272|56=MA|10=216|8=FIX.4.4|9=54|35=0|34=270|49=MMJBAER|52=20190129-15:57:52.271|56=MA|10=212|8=FIX.4.4|9=54|35=0|34=271|49=MMJBAER|52=20190129-15:59:23.270|56=MA|10=212|8=FIX.4.4|9=54|35=0|34=272|49=MMJBAER|52=20190129-16:00:54.270|56=MA|10=204|8=FIX.4.4|9=54|35=0|34=273|49=MMJBAER|52=20190129-16:02:24.270|56=MA|10=204|8=FIX.4.4|9=54|35=0|34=274|49=MMJBAER|52=20190129-16:03:55.269|56=MA|10=218|8=FIX.4.4|9=54|35=0|34=275|49=MMJBAER|52=20190129-16:05:26.268|56=MA|10=218|8=FIX.4.4|9=54|35=0|34=276|49=MMJBAER|52=20190129-16:06:56.268|56=MA|10=223|8=FIX.4.4|9=54|35=0|34=277|49=MMJBAER|52=20190129-16:08:27.268|56=MA|10=224|8=FIX.4.4|9=54|35=0|34=278|49=MMJBAER|52=20190129-16:09:58.267|56=MA|10=229|8=FIX.4.4|9=54|35=0|34=279|49=MMJBAER|52=20190129-16:11:29.266|56=MA|10=220|8=FIX.4.4|9=54|35=0|34=280|49=MMJBAER|52=20190129-16:13:00.266|56=MA|10=203|8=FIX.4.4|9=54|35=0|34=281|49=MMJBAER|52=20190129-16:14:31.265|56=MA|10=208|8=FIX.4.4|9=54|35=0|34=282|49=MMJBAER|52=20190129-16:16:01.265|56=MA|10=208|8=FIX.4.4|9=54|35=0|34=283|49=MMJBAER|52=20190129-16:17:32.264|56=MA|10=213|8=FIX.4.4|9=54|35=0|34=284|49=MMJBAER|52=20190129-16:19:02.264|56=MA|10=213|8=FIX.4.4|9=54|35=0|34=285|49=MMJBAER|52=20190129-16:20:33.263|56=MA|10=209|8=FIX.4.4|9=54|35=0|34=286|49=MMJBAER|52=20190129-16:22:03.264|56=MA|10=210|8=FIX.4.4|9=54|35=0|34=287|49=MMJBAER|52=20190129-16:23:34.261|56=MA|10=213|8=FIX.4.4|9=54|35=0|34=288|49=MMJBAER|52=20190129-16:25:04.261|56=MA|10=213|8=FIX.4.4|9=54|35=0|34=289|49=MMJBAER|52=20190129-16:26:35.260|56=MA|10=218|8=FIX.4.4|9=54|35=0|34=290|49=MMJBAER|52=20190129-16:28:05.260|56=MA|10=209|8=FIX.4.4|9=54|35=0|34=291|49=MMJBAER|52=20190129-16:29:35.260|56=MA|10=214|8=FIX.4.4|9=54|35=0|34=292|49=MMJBAER|52=20190129-16:31:06.259|56=MA|10=214|8=FIX.4.4|9=54|35=0|34=293|49=MMJBAER|52=20190129-16:32:36.259|56=MA|10=219|8=FIX.4.4|9=54|35=0|34=294|49=MMJBAER|52=20190129-16:34:07.257|56=MA|10=218|8=FIX.4.4|9=54|35=0|34=295|49=MMJBAER|52=20190129-16:35:37.257|56=MA|10=223|8=FIX.4.4|9=54|35=0|34=296|49=MMJBAER|52=20190129-16:37:08.258|56=MA|10=225|8=FIX.4.4|9=54|35=0|34=297|49=MMJBAER|52=20190129-16:38:39.256|56=MA|10=229|8=FIX.4.4|9=54|35=0|34=298|49=MMJBAER|52=20190129-16:40:09.256|56=MA|10=220|8=FIX.4.4|9=54|35=0|34=299|49=MMJBAER|52=20190129-16:41:40.256|56=MA|10=217|8=FIX.4.4|9=54|35=0|34=300|49=MMJBAER|52=20190129-16:43:11.254|56=MA|10=198|8=FIX.4.4|9=54|35=0|34=301|49=MMJBAER|52=20190129-16:44:41.254|56=MA|10=203|8=FIX.4.4|9=54|35=0|34=302|49=MMJBAER|52=20190129-16:46:11.254|56=MA|10=203|8=FIX.4.4|9=54|35=0|34=303|49=MMJBAER|52=20190129-16:47:42.253|56=MA|10=208|8=FIX.4.4|9=54|35=0|34=304|49=MMJBAER|52=20190129-16:49:13.252|56=MA|10=208|8=FIX.4.4|9=54|35=0|34=305|49=MMJBAER|52=20190129-16:50:44.252|56=MA|10=205|8=FIX.4.4|9=54|35=0|34=306|49=MMJBAER|52=20190129-16:52:15.251|56=MA|10=205|8=FIX.4.4|9=54|35=0|34=307|49=MMJBAER|52=20190129-16:53:46.251|56=MA|10=211|8=FIX.4.4|9=54|35=0|34=308|49=MMJBAER|52=20190129-16:55:17.249|56=MA|10=219|8=FIX.4.4|9=54|35=0|34=309|49=MMJBAER|52=20190129-16:56:47.250|56=MA|10=216|8=FIX.4.4|9=54|35=0|34=310|49=MMJBAER|52=20190129-16:58:18.248|56=MA|10=215|8=FIX.4.4|9=54|35=0|34=311|49=MMJBAER|52=20190129-16:59:48.249|56=MA|10=221|8=FIX.4.4|9=54|35=0|34=312|49=MMJBAER|52=20190129-17:01:19.247|56=MA|10=206|8=FIX.4.4|9=54|35=0|34=313|49=MMJBAER|52=20190129-17:02:49.247|56=MA|10=211|8=FIX.4.4|9=54|35=0|34=314|49=MMJBAER|52=20190129-17:04:19.247|56=MA|10=211|8=FIX.4.4|9=54|35=0|34=315|49=MMJBAER|52=20190129-17:05:50.246|56=MA|10=207|8=FIX.4.4|9=54|35=0|34=316|49=MMJBAER|52=20190129-17:07:21.245|56=MA|10=207|8=FIX.4.4|9=54|35=0|34=317|49=MMJBAER|52=20190129-17:08:51.245|56=MA|10=212|8=FIX.4.4|9=54|35=0|34=318|49=MMJBAER|52=20190129-17:10:22.246|56=MA|10=205|8=FIX.4.4|9=54|35=0|34=319|49=MMJBAER|52=20190129-17:11:53.244|56=MA|10=209|8=FIX.4.4|9=54|35=0|34=320|49=MMJBAER|52=20190129-17:13:23.244|56=MA|10=200|8=FIX.4.4|9=54|35=0|34=321|49=MMJBAER|52=20190129-17:14:53.244|56=MA|10=205|8=FIX.4.4|9=54|35=0|34=322|49=MMJBAER|52=20190129-17:16:24.242|56=MA|10=204|8=FIX.4.4|9=54|35=0|34=323|49=MMJBAER|52=20190129-17:17:55.241|56=MA|10=209|8=FIX.4.4|9=54|35=0|34=324|49=MMJBAER|52=20190129-17:19:25.241|56=MA|10=209|8=FIX.4.4|9=54|35=0|34=325|49=MMJBAER|52=20190129-17:20:55.241|56=MA|10=205|8=FIX.4.4|9=54|35=0|34=326|49=MMJBAER|52=20190129-17:22:25.241|56=MA|10=205|8=FIX.4.4|9=54|35=0|34=327|49=MMJBAER|52=20190129-17:23:56.239|56=MA|10=218|8=FIX.4.4|9=54|35=0|34=328|49=MMJBAER|52=20190129-17:25:26.240|56=MA|10=210|8=FIX.4.4|9=54|35=0|34=329|49=MMJBAER|52=20190129-17:26:57.238|56=MA|10=223|8=FIX.4.4|9=54|35=0|34=330|49=MMJBAER|52=20190129-17:28:27.239|56=MA|10=215|8=FIX.4.4|9=54|35=0|34=331|49=MMJBAER|52=20190129-17:29:58.238|56=MA|10=220|8=FIX.4.4|9=54|35=0|34=332|49=MMJBAER|52=20190129-17:31:29.237|56=MA|10=211|8=FIX.4.4|9=54|35=0|34=333|49=MMJBAER|52=20190129-17:32:59.237|56=MA|10=216|8=FIX.4.4|9=54|35=0|34=334|49=MMJBAER|52=20190129-17:34:30.236|56=MA|10=207|8=FIX.4.4|9=54|35=0|34=335|49=MMJBAER|52=20190129-17:36:01.236|56=MA|10=208|8=FIX.4.4|9=54|35=0|34=336|49=MMJBAER|52=20190129-17:37:32.234|56=MA|10=212|8=FIX.4.4|9=54|35=0|34=337|49=MMJBAER|52=20190129-17:39:02.234|56=MA|10=212|8=FIX.4.4|9=54|35=0|34=338|49=MMJBAER|52=20190129-17:40:33.234|56=MA|10=209|8=FIX.4.4|9=54|35=0|34=339|49=MMJBAER|52=20190129-17:42:04.233|56=MA|10=209|8=FIX.4.4|9=54|35=0|34=340|49=MMJBAER|52=20190129-17:43:35.233|56=MA|10=206|8=FIX.4.4|9=54|35=0|34=341|49=MMJBAER|52=20190129-17:45:06.232|56=MA|10=206|8=FIX.4.4|9=54|35=0|34=342|49=MMJBAER|52=20190129-17:46:36.232|56=MA|10=211|8=FIX.4.4|9=54|35=0|34=343|49=MMJBAER|52=20190129-17:48:07.230|56=MA|10=210|8=FIX.4.4|9=54|35=0|34=344|49=MMJBAER|52=20190129-17:49:37.230|56=MA|10=215|8=FIX.4.4|9=54|35=0|34=345|49=MMJBAER|52=20190129-17:51:07.231|56=MA|10=207|8=FIX.4.4|9=54|35=0|34=346|49=MMJBAER|52=20190129-17:52:38.229|56=MA|10=220|8=FIX.4.4|9=54|35=0|34=347|49=MMJBAER|52=20190129-17:54:08.229|56=MA|10=220|8=FIX.4.4|9=54|35=0|34=348|49=MMJBAER|52=20190129-17:55:39.228|56=MA|10=225|8=FIX.4.4|9=54|35=0|34=349|49=MMJBAER|52=20190129-17:57:09.228|56=MA|10=225|8=FIX.4.4|9=54|35=0|34=350|49=MMJBAER|52=20190129-17:58:40.227|56=MA|10=212|8=FIX.4.4|9=54|35=0|34=351|49=MMJBAER|52=20190129-18:00:11.227|56=MA|10=199|8=FIX.4.4|9=54|35=0|34=352|49=MMJBAER|52=20190129-18:01:42.226|56=MA|10=204|8=FIX.4.4|9=54|35=0|34=353|49=MMJBAER|52=20190129-18:03:12.226|56=MA|10=204|8=FIX.4.4|9=54|35=0|34=354|49=MMJBAER|52=20190129-18:04:43.225|56=MA|10=209|8=FIX.4.4|9=54|35=0|34=355|49=MMJBAER|52=20190129-18:06:14.224|56=MA|10=209|8=FIX.4.4|9=54|35=0|34=356|49=MMJBAER|52=20190129-18:07:45.223|56=MA|10=214|8=FIX.4.4|9=54|35=0|34=357|49=MMJBAER|52=20190129-18:09:16.224|56=MA|10=216|8=FIX.4.4|9=54|35=0|34=358|49=MMJBAER|52=20190129-18:10:47.222|56=MA|10=211|8=FIX.4.4|9=54|35=0|34=359|49=MMJBAER|52=20190129-18:12:17.222|56=MA|10=211|8=FIX.4.4|9=54|35=0|34=360|49=MMJBAER|52=20190129-18:13:47.222|56=MA|10=207|8=FIX.4.4|9=54|35=0|34=361|49=MMJBAER|52=20190129-18:15:18.220|56=MA|10=206|8=FIX.4.4|9=54|35=0|34=362|49=MMJBAER|52=20190129-18:16:48.220|56=MA|10=211|8=FIX.4.4|9=54|35=0|34=363|49=MMJBAER|52=20190129-18:18:18.220|56=MA|10=211|8=FIX.4.4|9=54|35=0|34=364|49=MMJBAER|52=20190129-18:19:49.219|56=MA|10=225|8=FIX.4.4|9=54|35=0|34=365|49=MMJBAER|52=20190129-18:21:19.219|56=MA|10=216|8=FIX.4.4|9=54|35=0|34=366|49=MMJBAER|52=20190129-18:22:50.218|56=MA|10=212|8=FIX.4.4|9=54|35=0|34=367|49=MMJBAER|52=20190129-18:24:21.217|56=MA|10=212|8=FIX.4.4|9=54|35=0|34=368|49=MMJBAER|52=20190129-18:25:51.217|56=MA|10=217|8=FIX.4.4|9=54|35=0|34=369|49=MMJBAER|52=20190129-18:27:22.217|56=MA|10=218|8=FIX.4.4|9=54|35=0|34=370|49=MMJBAER|52=20190129-18:28:53.217|56=MA|10=215|8=FIX.4.4|9=54|35=0|34=371|49=MMJBAER|52=20190129-18:30:24.215|56=MA|10=205|8=FIX.4.4|9=54|35=0|34=372|49=MMJBAER|52=20190129-18:31:54.215|56=MA|10=210|8=FIX.4.4|9=54|35=0|34=373|49=MMJBAER|52=20190129-18:33:25.214|56=MA|10=210|8=FIX.4.4|9=54|35=0|34=374|49=MMJBAER|52=20190129-18:34:55.214|56=MA|10=215|8=FIX.4.4|9=54|35=0|34=375|49=MMJBAER|52=20190129-18:36:25.214|56=MA|10=215|8=FIX.4.4|9=54|35=0|34=376|49=MMJBAER|52=20190129-18:37:56