8=FIXT.1.1|9=109|35=A|34=1|49=HEMATRAXRTS27QA2_PUB|52=20180625-11:03:47.671|56=TRAX|98=0|108=30|95=8|96=2.0.0rc4|141=Y|1137=9|10=129|8=FIXT.1.1|9=67|35=0|34=2|49=HEMATRAXRTS27QA2_PUB|52=20180625-11:04:18.600|56=TRAX|10=042|8=FIXT.1.1|9=67|35=0|34=3|49=HEMATRAXRTS27QA2_PUB|52=20180625-11:04:48.808|56=TRAX|10=056|8=FIXT.1.1|9=67|35=0|34=4|49=HEMATRAXRTS27QA2_PUB|52=20180625-11:05:19.607|56=TRAX|10=053|8=FIXT.1.1|9=67|35=0|34=5|49=HEMATRAXRTS27QA2_PUB|52=20180625-11:05:50.601|56=TRAX|10=043|8=FIXT.1.1|9=67|35=0|34=6|49=HEMATRAXRTS27QA2_PUB|52=20180625-11:06:21.599|56=TRAX|10=059|8=FIXT.1.1|9=67|35=0|34=7|49=HEMATRAXRTS27QA2_PUB|52=20180625-11:06:51.605|56=TRAX|10=051|8=FIXT.1.1|9=67|35=0|34=8|49=HEMATRAXRTS27QA2_PUB|52=20180625-11:07:22.600|56=TRAX|10=046|8=FIXT.1.1|9=67|35=0|34=9|49=HEMATRAXRTS27QA2_PUB|52=20180625-11:07:53.600|56=TRAX|10=051|8=FIXT.1.1|9=68|35=0|34=10|49=HEMATRAXRTS27QA2_PUB|52=20180625-11:08:24.599|56=TRAX|10=108|8=FIXT.1.1|9=68|35=0|34=11|49=HEMATRAXRTS27QA2_PUB|52=20180625-11:08:54.600|56=TRAX|10=095|8=FIXT.1.1|9=68|35=0|34=12|49=HEMATRAXRTS27QA2_PUB|52=20180625-11:09:25.603|56=TRAX|10=098|8=FIXT.1.1|9=68|35=0|34=13|49=HEMATRAXRTS27QA2_PUB|52=20180625-11:09:55.603|56=TRAX|10=102|8=FIXT.1.1|9=68|35=0|34=14|49=HEMATRAXRTS27QA2_PUB|52=20180625-11:10:26.599|56=TRAX|10=107|8=FIXT.1.1|9=68|35=0|34=15|49=HEMATRAXRTS27QA2_PUB|52=20180625-11:10:57.598|56=TRAX|10=111|8=FIXT.1.1|9=68|35=0|34=16|49=HEMATRAXRTS27QA2_PUB|52=20180625-11:11:28.605|56=TRAX|10=100|8=FIXT.1.1|9=68|35=0|34=17|49=HEMATRAXRTS27QA2_PUB|52=20180625-11:11:59.598|56=TRAX|10=116|8=FIXT.1.1|9=68|35=0|34=18|49=HEMATRAXRTS27QA2_PUB|52=20180625-11:12:30.598|56=TRAX|10=107|8=FIXT.1.1|9=68|35=0|34=19|49=HEMATRAXRTS27QA2_PUB|52=20180625-11:13:01.597|56=TRAX|10=106|8=FIXT.1.1|9=68|35=0|34=20|49=HEMATRAXRTS27QA2_PUB|52=20180625-11:13:31.597|56=TRAX|10=101|8=FIXT.1.1|9=68|35=0|34=21|49=HEMATRAXRTS27QA2_PUB|52=20180625-11:14:02.594|56=TRAX|10=098|8=FIXT.1.1|9=68|35=0|34=22|49=HEMATRAXRTS27QA2_PUB|52=20180625-11:14:32.604|56=TRAX|10=094|8=FIXT.1.1|9=68|35=0|34=23|49=HEMATRAXRTS27QA2_PUB|52=20180625-11:15:03.590|56=TRAX|10=098|8=FIXT.1.1|9=68|35=0|34=24|49=HEMATRAXRTS27QA2_PUB|52=20180625-11:15:33.595|56=TRAX|10=107|8=FIXT.1.1|9=68|35=0|34=25|49=HEMATRAXRTS27QA2_PUB|52=20180625-11:16:03.601|56=TRAX|10=094|8=FIXT.1.1|9=68|35=0|34=26|49=HEMATRAXRTS27QA2_PUB|52=20180625-11:16:34.595|56=TRAX|10=111|8=FIXT.1.1|9=68|35=0|34=27|49=HEMATRAXRTS27QA2_PUB|52=20180625-11:17:04.599|56=TRAX|10=114|8=FIXT.1.1|9=68|35=0|34=28|49=HEMATRAXRTS27QA2_PUB|52=20180625-11:17:34.602|56=TRAX|10=103|8=FIXT.1.1|9=68|35=0|34=29|49=HEMATRAXRTS27QA2_PUB|52=20180625-11:18:05.595|56=TRAX|10=114|8=FIXT.1.1|9=68|35=0|34=30|49=HEMATRAXRTS27QA2_PUB|52=20180625-11:18:36.602|56=TRAX|10=099|8=FIXT.1.1|9=68|35=0|34=31|49=HEMATRAXRTS27QA2_PUB|52=20180625-11:19:07.602|56=TRAX|10=099|8=FIXT.1.1|9=68|35=0|34=32|49=HEMATRAXRTS27QA2_PUB|52=20180625-11:19:38.590|56=TRAX|10=110|8=FIXT.1.1|9=68|35=0|34=33|49=HEMATRAXRTS27QA2_PUB|52=20180625-11:20:09.594|56=TRAX|10=105|8=FIXT.1.1|9=68|35=0|34=34|49=HEMATRAXRTS27QA2_PUB|52=20180625-11:20:39.600|56=TRAX|10=097|8=FIXT.1.1|9=68|35=0|34=35|49=HEMATRAXRTS27QA2_PUB|52=20180625-11:21:10.589|56=TRAX|10=104|8=FIXT.1.1|9=68|35=0|34=36|49=HEMATRAXRTS27QA2_PUB|52=20180625-11:21:40.595|56=TRAX|10=105|8=FIXT.1.1|9=68|35=0|34=37|49=HEMATRAXRTS27QA2_PUB|52=20180625-11:22:11.598|56=TRAX|10=108|8=FIXT.1.1|9=68|35=0|34=38|49=HEMATRAXRTS27QA2_PUB|52=20180625-11:22:41.599|56=TRAX|10=113|8=FIXT.1.1|9=68|35=0|34=39|49=HEMATRAXRTS27QA2_PUB|52=20180625-11:23:12.586|56=TRAX|10=109|8=FIXT.1.1|9=68|35=0|34=40|49=HEMATRAXRTS27QA2_PUB|52=20180625-11:23:42.593|56=TRAX|10=102|8=FIXT.1.1|9=68|35=0|34=41|49=HEMATRAXRTS27QA2_PUB|52=20180625-11:24:13.587|56=TRAX|10=105|8=FIXT.1.1|9=68|35=0|34=42|49=HEMATRAXRTS27QA2_PUB|52=20180625-11:24:44.585|56=TRAX|10=108|8=FIXT.1.1|9=68|35=0|34=43|49=HEMATRAXRTS27QA2_PUB|52=20180625-11:25:14.587|56=TRAX|10=109|8=FIXT.1.1|9=68|35=0|34=44|49=HEMATRAXRTS27QA2_PUB|52=20180625-11:25:45.594|56=TRAX|10=112|8=FIXT.1.1|9=68|35=0|34=45|49=HEMATRAXRTS27QA2_PUB|52=20180625-11:26:16.595|56=TRAX|10=113|8=FIXT.1.1|9=68|35=0|34=46|49=HEMATRAXRTS27QA2_PUB|52=20180625-11:26:46.596|56=TRAX|10=118|8=FIXT.1.1|9=68|35=0|34=47|49=HEMATRAXRTS27QA2_PUB|52=20180625-11:27:17.592|56=TRAX|10=114|8=FIXT.1.1|9=68|35=0|34=48|49=HEMATRAXRTS27QA2_PUB|52=20180625-11:27:48.596|56=TRAX|10=123|8=FIXT.1.1|9=68|35=0|34=49|49=HEMATRAXRTS27QA2_PUB|52=20180625-11:28:18.815|56=TRAX|10=116|8=FIXT.1.1|9=68|35=0|34=50|49=HEMATRAXRTS27QA2_PUB|52=20180625-11:28:49.586|56=TRAX|10=117|8=FIXT.1.1|9=68|35=0|34=51|49=HEMATRAXRTS27QA2_PUB|52=20180625-11:29:19.592|56=TRAX|10=113|8=FIXT.1.1|9=68|35=0|34=52|49=HEMATRAXRTS27QA2_PUB|52=20180625-11:29:49.593|56=TRAX|10=118|8=FIXT.1.1|9=68|35=0|34=53|49=HEMATRAXRTS27QA2_PUB|52=20180625-11:30:19.597|56=TRAX|10=112|8=FIXT.1.1|9=68|35=0|34=54|49=HEMATRAXRTS27QA2_PUB|52=20180625-11:30:49.795|56=TRAX|10=116|8=FIXT.1.1|9=68|35=0|34=55|49=HEMATRAXRTS27QA2_PUB|52=20180625-11:31:20.594|56=TRAX|10=104|8=FIXT.1.1|9=68|35=0|34=56|49=HEMATRAXRTS27QA2_PUB|52=20180625-11:31:51.598|56=TRAX|10=113|8=FIXT.1.1|9=68|35=0|34=57|49=HEMATRAXRTS27QA2_PUB|52=20180625-11:32:22.591|56=TRAX|10=106|8=FIXT.1.1|9=68|35=0|34=58|49=HEMATRAXRTS27QA2_PUB|52=20180625-11:32:52.592|56=TRAX|10=111|8=FIXT.1.1|9=68|35=0|34=59|49=HEMATRAXRTS27QA2_PUB|52=20180625-11:33:22.595|56=TRAX|10=113|8=FIXT.1.1|9=68|35=0|34=60|49=HEMATRAXRTS27QA2_PUB|52=20180625-11:33:53.590|56=TRAX|10=104|8=FIXT.1.1|9=68|35=0|34=61|49=HEMATRAXRTS27QA2_PUB|52=20180625-11:34:23.596|56=TRAX|10=109|8=FIXT.1.1|9=68|35=0|34=62|49=HEMATRAXRTS27QA2_PUB|52=20180625-11:34:54.590|56=TRAX|10=108|8=FIXT.1.1|9=68|35=0|34=63|49=HEMATRAXRTS27QA2_PUB|52=20180625-11:35:25.590|56=TRAX|10=108|8=FIXT.1.1|9=68|35=0|34=64|49=HEMATRAXRTS27QA2_PUB|52=20180625-11:35:55.594|56=TRAX|10=116|8=FIXT.1.1|9=68|35=0|34=65|49=HEMATRAXRTS27QA2_PUB|52=20180625-11:36:26.593|56=TRAX|10=115|8=FIXT.1.1|9=68|35=0|34=66|49=HEMATRAXRTS27QA2_PUB|52=20180625-11:36:56.597|56=TRAX|10=123|8=FIXT.1.1|9=68|35=0|34=67|49=HEMATRAXRTS27QA2_PUB|52=20180625-11:37:27.593|56=TRAX|10=119|8=FIXT.1.1|9=68|35=0|34=68|49=HEMATRAXRTS27QA2_PUB|52=20180625-11:37:58.586|56=TRAX|10=126|8=FIXT.1.1|9=68|35=0|34=69|49=HEMATRAXRTS27QA2_PUB|52=20180625-11:38:28.589|56=TRAX|10=128|8=FIXT.1.1|9=68|35=0|34=70|49=HEMATRAXRTS27QA2_PUB|52=20180625-11:38:58.590|56=TRAX|10=115|8=FIXT.1.1|9=68|35=0|34=71|49=HEMATRAXRTS27QA2_PUB|52=20180625-11:39:28.594|56=TRAX|10=118|8=FIXT.1.1|9=68|35=0|34=72|49=HEMATRAXRTS27QA2_PUB|52=20180625-11:39:58.594|56=TRAX|10=122|8=FIXT.1.1|9=68|35=0|34=73|49=HEMATRAXRTS27QA2_PUB|52=20180625-11:40:29.588|56=TRAX|10=116|8=FIXT.1.1|9=68|35=0|34=74|49=HEMATRAXRTS27QA2_PUB|52=20180625-11:41:00.593|56=TRAX|10=103|8=FIXT.1.1|9=68|35=0|34=75|49=HEMATRAXRTS27QA2_PUB|52=20180625-11:41:31.592|56=TRAX|10=107|8=FIXT.1.1|9=68|35=0|34=76|49=HEMATRAXRTS27QA2_PUB|52=20180625-11:42:02.580|56=TRAX|10=104|8=FIXT.1.1|9=68|35=0|34=77|49=HEMATRAXRTS27QA2_PUB|52=20180625-11:42:32.587|56=TRAX|10=115|8=FIXT.1.1|9=68|35=0|34=78|49=HEMATRAXRTS27QA2_PUB|52=20180625-11:43:03.587|56=TRAX|10=115|8=FIXT.1.1|9=68|35=0|34=79|49=HEMATRAXRTS27QA2_PUB|52=20180625-11:43:33.587|56=TRAX|10=119|8=FIXT.1.1|9=68|35=0|34=80|49=HEMATRAXRTS27QA2_PUB|52=20180625-11:44:03.594|56=TRAX|10=107|8=FIXT.1.1|9=68|35=0|34=81|49=HEMATRAXRTS27QA2_PUB|52=20180625-11:44:34.584|56=TRAX|10=111|8=FIXT.1.1|9=68|35=0|34=82|49=HEMATRAXRTS27QA2_PUB|52=20180625-11:45:05.587|56=TRAX|10=114|8=FIXT.1.1|9=68|35=0|34=83|49=HEMATRAXRTS27QA2_PUB|52=20180625-11:45:35.591|56=TRAX|10=113|8=FIXT.1.1|9=68|35=0|34=84|49=HEMATRAXRTS27QA2_PUB|52=20180625-11:46:06.587|56=TRAX|10=118|8=FIXT.1.1|9=68|35=0|34=85|49=HEMATRAXRTS27QA2_PUB|52=20180625-11:46:36.590|56=TRAX|10=116|8=FIXT.1.1|9=68|35=0|34=86|49=HEMATRAXRTS27QA2_PUB|52=20180625-11:47:06.590|56=TRAX|10=115|8=FIXT.1.1|9=68|35=0|34=87|49=HEMATRAXRTS27QA2_PUB|52=20180625-11:47:37.585|56=TRAX|10=124|8=FIXT.1.1|9=68|35=0|34=88|49=HEMATRAXRTS27QA2_PUB|52=20180625-11:48:07.593|56=TRAX|10=122|8=FIXT.1.1|9=68|35=0|34=89|49=HEMATRAXRTS27QA2_PUB|52=20180625-11:48:38.585|56=TRAX|10=128|8=FIXT.1.1|9=68|35=0|34=90|49=HEMATRAXRTS27QA2_PUB|52=20180625-11:49:08.586|56=TRAX|10=119|8=FIXT.1.1|9=68|35=0|34=91|49=HEMATRAXRTS27QA2_PUB|52=20180625-11:49:39.588|56=TRAX|10=126|8=FIXT.1.1|9=68|35=0|34=92|49=HEMATRAXRTS27QA2_PUB|52=20180625-11:50:10.588|56=TRAX|10=108|8=FIXT.1.1|9=68|35=0|34=93|49=HEMATRAXRTS27QA2_PUB|52=20180625-11:50:40.592|56=TRAX|10=107|8=FIXT.1.1|9=68|35=0|34=94|49=HEMATRAXRTS27QA2_PUB|52=20180625-11:51:11.590|56=TRAX|10=105|8=FIXT.1.1|9=68|35=0|34=95|49=HEMATRAXRTS27QA2_PUB|52=20180625-11:51:42.590|56=TRAX|10=110|8=FIXT.1.1|9=68|35=0|34=96|49=HEMATRAXRTS27QA2_PUB|52=20180625-11:52:13.583|56=TRAX|10=112|8=FIXT.1.1|9=68|35=0|34=97|49=HEMATRAXRTS27QA2_PUB|52=20180625-11:52:44.578|56=TRAX|10=121|8=FIXT.1.1|9=68|35=0|34=98|49=HEMATRAXRTS27QA2_PUB|52=20180625-11:53:14.578|56=TRAX|10=120|8=FIXT.1.1|9=68|35=0|34=99|49=HEMATRAXRTS27QA2_PUB|52=20180625-11:53:44.588|56=TRAX|10=125|8=FIXT.1.1|9=69|35=0|34=100|49=HEMATRAXRTS27QA2_PUB|52=20180625-11:54:14.589|56=TRAX|10=156|8=FIXT.1.1|9=69|35=0|34=101|49=HEMATRAXRTS27QA2_PUB|52=20180625-11:54:45.583|56=TRAX|10=155|8=FIXT.1.1|9=69|35=0|34=102|49=HEMATRAXRTS27QA2_PUB|52=20180625-11:55:15.583|56=TRAX|10=154|8=FIXT.1.1|9=69|35=0|34=103|49=HEMATRAXRTS27QA2_PUB|52=20180625-11:55:45.583|56=TRAX|10=158|8=FIXT.1.1|9=69|35=0|34=104|49=HEMATRAXRTS27QA2_PUB|52=20180625-11:56:15.585|56=TRAX|10=159|8=FIXT.1.1|9=69|35=0|34=105|49=HEMATRAXRTS27QA2_PUB|52=20180625-11:56:46.582|56=TRAX|10=161|8=FIXT.1.1|9=69|35=0|34=106|49=HEMATRAXRTS27QA2_PUB|52=20180625-11:57:17.581|56=TRAX|10=160|8=FIXT.1.1|9=69|35=0|34=107|49=HEMATRAXRTS27QA2_PUB|52=20180625-11:57:47.587|56=TRAX|10=170|8=FIXT.1.1|9=69|35=0|34=108|49=HEMATRAXRTS27QA2_PUB|52=20180625-11:58:18.582|56=TRAX|10=165|8=FIXT.1.1|9=69|35=0|34=109|49=HEMATRAXRTS27QA2_PUB|52=20180625-11:58:49.583|56=TRAX|10=171|8=FIXT.1.1|9=69|35=0|34=110|49=HEMATRAXRTS27QA2_PUB|52=20180625-11:59:19.585|56=TRAX|10=163|8=FIXT.1.1|9=69|35=0|34=111|49=HEMATRAXRTS27QA2_PUB|52=20180625-11:59:49.804|56=TRAX|10=161|8=FIXT.1.1|9=69|35=0|34=112|49=HEMATRAXRTS27QA2_PUB|52=20180625-12:00:20.584|56=TRAX|10=143|8=FIXT.1.1|9=69|35=0|34=113|49=HEMATRAXRTS27QA2_PUB|52=20180625-12:00:51.583|56=TRAX|10=147|8=FIXT.1.1|9=69|35=0|34=114|49=HEMATRAXRTS27QA2_PUB|52=20180625-12:01:22.587|56=TRAX|10=151|8=FIXT.1.1|9=69|35=0|34=115|49=HEMATRAXRTS27QA2_PUB|52=20180625-12:01:52.587|56=TRAX|10=155|8=FIXT.1.1|9=69|35=0|34=116|49=HEMATRAXRTS27QA2_PUB|52=20180625-12:02:22.587|56=TRAX|10=154|8=FIXT.1.1|9=69|35=0|34=117|49=HEMATRAXRTS27QA2_PUB|52=20180625-12:02:53.582|56=TRAX|10=154|8=FIXT.1.1|9=69|35=0|34=118|49=HEMATRAXRTS27QA2_PUB|52=20180625-12:03:23.587|56=TRAX|10=158|8=FIXT.1.1|9=69|35=0|34=119|49=HEMATRAXRTS27QA2_PUB|52=20180625-12:03:54.585|56=TRAX|10=161|8=FIXT.1.1|9=69|35=0|34=120|49=HEMATRAXRTS27QA2_PUB|52=20180625-12:04:25.579|56=TRAX|10=155|8=FIXT.1.1|9=69|35=0|34=121|49=HEMATRAXRTS27QA2_PUB|52=20180625-12:04:55.579|56=TRAX|10=159|8=FIXT.1.1|9=69|35=0|34=122|49=HEMATRAXRTS27QA2_PUB|52=20180625-12:05:25.579|56=TRAX|10=158|8=FIXT.1.1|9=69|35=0|34=123|49=HEMATRAXRTS27QA2_PUB|52=20180625-12:05:56.585|56=TRAX|10=160|8=FIXT.1.1|9=69|35=0|34=124|49=HEMATRAXRTS27QA2_PUB|52=20180625-12:06:27.584|56=TRAX|10=159|8=FIXT.1.1|9=69|35=0|34=125|49=HEMATRAXRTS27QA2_PUB|52=20180625-12:06:58.576|56=TRAX|10=165|8=FIXT.1.1|9=69|35=0|34=126|49=HEMATRAXRTS27QA2_PUB|52=20180625-12:07:28.584|56=TRAX|10=163|8=FIXT.1.1|9=69|35=0|34=127|49=HEMATRAXRTS27QA2_PUB|52=20180625-12:07:59.584|56=TRAX|10=168|8=FIXT.1.1|9=69|35=0|34=128|49=HEMATRAXRTS27QA2_PUB|52=20180625-12:08:30.573|56=TRAX|10=157|8=FIXT.1.1|9=69|35=0|34=129|49=HEMATRAXRTS27QA2_PUB|52=20180625-12:09:00.582|56=TRAX|10=156|8=FIXT.1.1|9=69|35=0|34=130|49=HEMATRAXRTS27QA2_PUB|52=20180625-12:09:31.569|56=TRAX|10=157|8=FIXT.1.1|9=69|35=0|34=131|49=HEMATRAXRTS27QA2_PUB|52=20180625-12:10:01.577|56=TRAX|10=146|8=FIXT.1.1|9=69|35=0|34=132|49=HEMATRAXRTS27QA2_PUB|52=20180625-12:10:31.581|56=TRAX|10=145|8=FIXT.1.1|9=69|35=0|34=133|49=HEMATRAXRTS27QA2_PUB|52=20180625-12:11:02.575|56=TRAX|10=148|8=FIXT.1.1|9=69|35=0|34=134|49=HEMATRAXRTS27QA2_PUB|52=20180625-12:11:33.581|56=TRAX|10=150|8=FIXT.1.1|9=69|35=0|34=135|49=HEMATRAXRTS27QA2_PUB|52=20180625-12:12:03.583|56=TRAX|10=151|8=FIXT.1.1|9=69|35=0|34=136|49=HEMATRAXRTS27QA2_PUB|52=20180625-12:12:34.570|56=TRAX|10=152|8=FIXT.1.1|9=69|35=0|34=137|49=HEMATRAXRTS27QA2_PUB|52=20180625-12:13:04.579|56=TRAX|10=160|8=FIXT.1.1|9=69|35=0|34=138|49=HEMATRAXRTS27QA2_PUB|52=20180625-12:13:35.568|56=TRAX|10=163|8=FIXT.1.1|9=69|35=0|34=139|49=HEMATRAXRTS27QA2_PUB|52=20180625-12:14:05.576|56=TRAX|10=161|8=FIXT.1.1|9=69|35=0|34=140|49=HEMATRAXRTS27QA2_PUB|52=20180625-12:14:36.581|56=TRAX|10=153|8=FIXT.1.1|9=69|35=0|34=141|49=HEMATRAXRTS27QA2_PUB|52=20180625-12:15:07.577|56=TRAX|10=158|8=FIXT.1.1|9=69|35=0|34=142|49=HEMATRAXRTS27QA2_PUB|52=20180625-12:15:38.571|56=TRAX|10=157|8=FIXT.1.1|9=69|35=0|34=143|49=HEMATRAXRTS27QA2_PUB|52=20180625-12:16:08.578|56=TRAX|10=163|8=FIXT.1.1|9=69|35=0|34=144|49=HEMATRAXRTS27QA2_PUB|52=20180625-12:16:38.578|56=TRAX|10=167|8=FIXT.1.1|9=69|35=0|34=145|49=HEMATRAXRTS27QA2_PUB|52=20180625-12:17:08.582|56=TRAX|10=161|8=FIXT.1.1|9=69|35=0|34=146|49=HEMATRAXRTS27QA2_PUB|52=20180625-12:17:39.579|56=TRAX|10=172|8=FIXT.1.1|9=69|35=0|34=147|49=HEMATRAXRTS27QA2_PUB|52=20180625-12:18:10.575|56=TRAX|10=159|8=FIXT.1.1|9=69|35=0|34=148|49=HEMATRAXRTS27QA2_PUB|52=20180625-12:18:40.575|56=TRAX|10=163|8=FIXT.1.1|9=69|35=0|34=149|49=HEMATRAXRTS27QA2_PUB|52=20180625-12:19:11.567|56=TRAX|10=164|8=FIXT.1.1|9=69|35=0|34=150|49=HEMATRAXRTS27QA2_PUB|52=20180625-12:19:41.573|56=TRAX|10=156|8=FIXT.1.1|9=69|35=0|34=151|49=HEMATRAXRTS27QA2_PUB|52=20180625-12:20:11.580|56=TRAX|10=144|8=FIXT.1.1|9=69|35=0|34=152|49=HEMATRAXRTS27QA2_PUB|52=20180625-12:20:42.573|56=TRAX|10=151|8=FIXT.1.1|9=69|35=0|34=153|49=HEMATRAXRTS27QA2_PUB|52=20180625-12:21:13.572|56=TRAX|10=150|8=FIXT.1.1|9=69|35=0|34=154|49=HEMATRAXRTS27QA2_PUB|52=20180625-12:21:44.566|56=TRAX|10=158|8=FIXT.1.1|9=69|35=0|34=155|49=HEMATRAXRTS27QA2_PUB|52=20180625-12:22:15.569|56=TRAX|10=161|8=FIXT.1.1|9=69|35=0|34=156|49=HEMATRAXRTS27QA2_PUB|52=20180625-12:22:46.571|56=TRAX|10=159|8=FIXT.1.1|9=69|35=0|34=157|49=HEMATRAXRTS27QA2_PUB|52=20180625-12:23:16.571|56=TRAX|10=158|8=FIXT.1.1|9=69|35=0|34=158|49=HEMATRAXRTS27QA2_PUB|52=20180625-12:23:47.570|56=TRAX|10=162|8=FIXT.1.1|9=69|35=0|34=159|49=HEMATRAXRTS27QA2_PUB|52=20180625-12:24:17.570|56=TRAX|10=161|8=FIXT.1.1|9=69|35=0|34=160|49=HEMATRAXRTS27QA2_PUB|52=20180625-12:24:48.569|56=TRAX|10=165|8=FIXT.1.1|9=69|35=0|34=161|49=HEMATRAXRTS27QA2_PUB|52=20180625-12:25:18.571|56=TRAX|10=157|8=FIXT.1.1|9=69|35=0|34=162|49=HEMATRAXRTS27QA2_PUB|52=20180625-12:25:49.563|56=TRAX|10=163|8=FIXT.1.1|9=69|35=0|34=163|49=HEMATRAXRTS27QA2_PUB|52=20180625-12:26:19.569|56=TRAX|10=168|8=FIXT.1.1|9=69|35=0|34=164|49=HEMATRAXRTS27QA2_PUB|52=20180625-12:26:49.569|56=TRAX|10=172|8=FIXT.1.1|9=69|35=0|34=165|49=HEMATRAXRTS27QA2_PUB|52=20180625-12:27:19.569|56=TRAX|10=171|8=FIXT.1.1|9=69|35=0|34=166|49=HEMATRAXRTS27QA2_PUB|52=20180625-12:27:49.569|56=TRAX|10=175|8=FIXT.1.1|9=69|35=0|34=167|49=HEMATRAXRTS27QA2_PUB|52=20180625-12:28:19.805|56=TRAX|10=167|8=FIXT.1.1|9=69|35=0|34=168|49=HEMATRAXRTS27QA2_PUB|52=20180625-12:28:49.806|56=TRAX|10=172|8=FIXT.1.1|9=69|35=0|34=169|49=HEMATRAXRTS27QA2_PUB|52=20180625-12:29:19.806|56=TRAX|10=171|8=FIXT.1.1|9=69|35=0|34=170|49=HEMATRAXRTS27QA2_PUB|52=20180625-12:29:50.562|56=TRAX|10=157|8=FIXT.1.1|9=69|35=0|34=171|49=HEMATRAXRTS27QA2_PUB|52=20180625-12:30:20.562|56=TRAX|10=147|8=FIXT.1.1|9=69|35=0|34=172|49=HEMATRAXRTS27QA2_PUB|52=20180625-12:30:51.568|56=TRAX|10=158|8=FIXT.1.1|9=69|35=0|34=173|49=HEMATRAXRTS27QA2_PUB|52=20180625-12:31:22.568|56=TRAX|10=158|8=FIXT.1.1|9=69|35=0|34=174|49=HEMATRAXRTS27QA2_PUB|52=20180625-12:31:53.568|56=TRAX|10=163|8=FIXT.1.1|9=69|35=0|34=175|49=HEMATRAXRTS27QA2_PUB|52=20180625-12:32:24.565|56=TRAX|10=160|8=FIXT.1.1|9=69|35=0|34=176|49=HEMATRAXRTS27QA2_PUB|52=20180625-12:32:54.565|56=TRAX|10=164|8=FIXT.1.1|9=69|35=0|34=177|49=HEMATRAXRTS27QA2_PUB|52=20180625-12:33:25.566|56=TRAX|10=165|8=FIXT.1.1|9=69|35=0|34=178|49=HEMATRAXRTS27QA2_PUB|52=20180625-12:33:55.566|56=TRAX|10=169|8=FIXT.1.1|9=69|35=0|34=179|49=HEMATRAXRTS27QA2_PUB|52=20180625-12:34:25.595|56=TRAX|10=170|8=FIXT.1.1|9=69|35=0|34=180|49=HEMATRAXRTS27QA2_PUB|52=20180625-12:34:56.563|56=TRAX|10=161|8=FIXT.1.1|9=69|35=0|34=181|49=HEMATRAXRTS27QA2_PUB|52=20180625-12:35:26.563|56=TRAX|10=160|8=FIXT.1.1|9=69|35=0|34=182|49=HEMATRAXRTS27QA2_PUB|52=20180625-12:35:56.563|56=TRAX|10=164|8=FIXT.1.1|9=69|35=0|34=183|49=HEMATRAXRTS27QA2_PUB|52=20180625-12:36:26.563|56=TRAX|10=163|8=FIXT.1.1|9=69|35=0|34=184|49=HEMATRAXRTS27QA2_PUB|52=20180625-12:36:57.560|56=TRAX|10=165|8=FIXT.1.1|9=69|35=0|34=185|49=HEMATRAXRTS27QA2_PUB|52=20180625-12:37:27.560|56=TRAX|10=164|8=FIXT.1.1|9=69|35=0|34=186|49=HEMATRAXRTS27QA2_PUB|52=20180625-12:37:57.560|56=TRAX|10=168|8=FIXT.1.1|9=69|35=0|34=187|49=HEMATRAXRTS27QA2_PUB|52=20180625-12:38:27.560|56=TRAX|10=167|8=FIXT.1.1|9=69|35=0|34=188|49=HEMATRAXRTS27QA2_PUB|52=20180625-12:38:57.561|56=TRAX|10=172|8=FIXT.1.1|9=69|35=0|34=189|49=HEMATRAXRTS27QA2_PUB|52=20180625-12:39:28.560|56=TRAX|10=171|8=FIXT.1.1|9=69|35=0|34=190|49=HEMATRAXRTS27QA2_PUB|52=20180625-12:39:58.560|56=TRAX|10=166|8=FIXT.1.1|9=69|35=0|34=191|49=HEMATRAXRTS27QA2_PUB|52=20180625-12:40:28.560|56=TRAX|10=156|8=FIXT.1.1|9=69|35=0|34=192|49=HEMATRAXRTS27QA2_PUB|52=20180625-12:40:58.562|56=TRAX|10=162|8=FIXT.1.1|9=69|35=0|34=193|49=HEMATRAXRTS27QA2_PUB|52=20180625-12:41:29.560|56=TRAX|10=160|8=FIXT.1.1|9=69|35=0|34=194|49=HEMATRAXRTS27QA2_PUB|52=20180625-12:41:59.560|56=TRAX|10=164|8=FIXT.1.1|9=69|35=0|34=195|49=HEMATRAXRTS27QA2_PUB|52=20180625-12:42:30.559|56=TRAX|10=163|8=FIXT.1.1|9=69|35=0|34=196|49=HEMATRAXRTS27QA2_PUB|52=20180625-12:43:00.559|56=TRAX|10=162|8=FIXT.1.1|9=69|35=0|34=197|49=HEMATRAXRTS27QA2_PUB|52=20180625-12:43:31.558|56=TRAX|10=166|8=FIXT.1.1|9=69|35=0|34=198|49=HEMATRAXRTS27QA2_PUB|52=20180625-12:44:01.558|56=TRAX|10=165|8=FIXT.1.1|9=69|35=0|34=199|49=HEMATRAXRTS27QA2_PUB|52=20180625-12:44:31.559|56=TRAX|10=170|8=FIXT.1.1|9=69|35=0|34=200|49=HEMATRAXRTS27QA2_PUB|52=20180625-12:45:02.558|56=TRAX|10=151|8=FIXT.1.1|9=69|35=0|34=201|49=HEMATRAXRTS27QA2_PUB|52=20180625-12:45:32.558|56=TRAX|10=155|8=FIXT.1.1|9=69|35=0|34=202|49=HEMATRAXRTS27QA2_PUB|52=20180625-12:46:02.561|56=TRAX|10=148|8=FIXT.1.1|9=69|35=0|34=203|49=HEMATRAXRTS27QA2_PUB|52=20180625-12:46:33.560|56=TRAX|10=152|8=FIXT.1.1|9=69|35=0|34=204|49=HEMATRAXRTS27QA2_PUB|52=20180625-12:47:03.561|56=TRAX|10=152|8=FIXT.1.1|9=69|35=0|34=205|49=HEMATRAXRTS27QA2_PUB|52=20180625-12:47:34.560|56=TRAX|10=156|8=FIXT.1.1|9=69|35=0|34=206|49=HEMATRAXRTS27QA2_PUB|52=20180625-12:48:05.557|56=TRAX|10=162|8=FIXT.1.1|9=69|35=0|34=207|49=HEMATRAXRTS27QA2_PUB|52=20180625-12:48:35.557|56=TRAX|10=166|8=FIXT.1.1|9=69|35=0|34=208|49=HEMATRAXRTS27QA2_PUB|52=20180625-12:49:05.557|56=TRAX|10=165|8=FIXT.1.1|9=69|35=0|34=209|49=HEMATRAXRTS27QA2_PUB|52=20180625-12:49:35.560|56=TRAX|10=163|8=FIXT.1.1|9=69|35=0|34=210|49=HEMATRAXRTS27QA2_PUB|52=20180625-12:50:06.559|56=TRAX|10=153|8=FIXT.1.1|9=69|35=0|34=211|49=HEMATRAXRTS27QA2_PUB|52=20180625-12:50:36.559|56=TRAX|10=157|8=FIXT.1.1|9=69|35=0|34=212|49=HEMATRAXRTS27QA2_PUB|52=20180625-12:51:06.559|56=TRAX|10=156|8=FIXT.1.1|9=69|35=0|34=213|49=HEMATRAXRTS27QA2_PUB|52=20180625-12:51:37.559|56=TRAX|10=161|8=FIXT.1.1|9=69|35=0|34=214|49=HEMATRAXRTS27QA2_PUB|52=20180625-12:52:08.555|56=TRAX|10=157|8=FIXT.1.1|9=69|35=0|34=215|49=HEMATRAXRTS27QA2_PUB|52=20180625-12:52:38.555|56=TRAX|10=161|8=FIXT.1.1|9=69|35=0|34=216|49=HEMATRAXRTS27QA2_PUB|52=20180625-12:53:08.555|56=TRAX|10=160|8=FIXT.1.1|9=69|35=0|34=217|49=HEMATRAXRTS27QA2_PUB|52=20180625-12:53:38.559|56=TRAX|10=168|8=FIXT.1.1|9=69|35=0|34=218|49=HEMATRAXRTS27QA2_PUB|52=20180625-12:54:08.561|56=TRAX|10=160|8=FIXT.1.1|9=69|35=0|34=219|49=HEMATRAXRTS27QA2_PUB|52=20180625-12:54:39.562|56=TRAX|10=166|8=FIXT.1.1|9=69|35=0|34=220|49=HEMATRAXRTS27QA2_PUB|52=20180625-12:55:10.560|56=TRAX|10=146|8=FIXT.1.1|9=69|35=0|34=221|49=HEMATRAXRTS27QA2_PUB|52=20180625-12:55:41.557|56=TRAX|10=157|8=FIXT.1.1|9=69|35=0|34=222|49=HEMATRAXRTS27QA2_PUB|52=20180625-12:56:11.560|56=TRAX|10=150|8=FIXT.1.1|9=69|35=0|34=223|49=HEMATRAXRTS27QA2_PUB|52=20180625-12:56:42.560|56=TRAX|10=155|8=FIXT.1.1|9=69|35=0|34=224|49=HEMATRAXRTS27QA2_PUB|52=20180625-12:57:13.560|56=TRAX|10=155|8=FIXT.1.1|9=69|35=0|34=225|49=HEMATRAXRTS27QA2_PUB|52=20180625-12:57:44.559|56=TRAX|10=168|8=FIXT.1.1|9=69|35=0|34=226|49=HEMATRAXRTS27QA2_PUB|52=20180625-12:58:14.559|56=TRAX|10=167|8=FIXT.1.1|9=69|35=0|34=227|49=HEMATRAXRTS27QA2_PUB|52=20180625-12:58:45.559|56=TRAX|10=172|8=FIXT.1.1|9=69|35=0|34=228|49=HEMATRAXRTS27QA2_PUB|52=20180625-12:59:16.555|56=TRAX|10=168|8=FIXT.1.1|9=69|35=0|34=229|49=HEMATRAXRTS27QA2_PUB|52=20180625-12:59:46.559|56=TRAX|10=176|8=FIXT.1.1|9=69|35=0|34=230|49=HEMATRAXRTS27QA2_PUB|52=20180625-13:00:17.559|56=TRAX|10=153|8=FIXT.1.1|9=69|35=0|34=231|49=HEMATRAXRTS27QA2_PUB|52=20180625-13:00:48.558|56=TRAX|10=157|8=FIXT.1.1|9=69|35=0|34=232|49=HEMATRAXRTS27QA2_PUB|52=20180625-13:01:19.558|56=TRAX|10=157|8=FIXT.1.1|9=69|35=0|34=233|49=HEMATRAXRTS27QA2_PUB|52=20180625-13:01:49.805|56=TRAX|10=156|8=FIXT.1.1|9=69|35=0|34=234|49=HEMATRAXRTS27QA2_PUB|52=20180625-13:02:20.557|56=TRAX|10=151|8=FIXT.1.1|9=69|35=0|34=235|49=HEMATRAXRTS27QA2_PUB|52=20180625-13:02:50.558|56=TRAX|10=156|8=FIXT.1.1|9=69|35=0|34=236|49=HEMATRAXRTS27QA2_PUB|52=20180625-13:03:21.554|56=TRAX|10=152|8=FIXT.1.1|9=69|35=0|34=237|49=HEMATRAXRTS27QA2_PUB|52=20180625-13:03:52.554|56=TRAX|10=157|8=FIXT.1.1|9=69|35=0|34=238|49=HEMATRAXRTS27QA2_PUB|52=20180625-13:04:22.554|56=TRAX|10=156|8=FIXT.1.1|9=69|35=0|34=239|49=HEMATRAXRTS27QA2_PUB|52=20180625-13:04:53.554|56=TRAX|10=161|8=FIXT.1.1|9=69|35=0|34=240|49=HEMATRAXRTS27QA2_PUB|52=20180625-13:05:23.554|56=TRAX|10=151|8=FIXT.1.1|9=69|35=0|34=241|49=HEMATRAXRTS27QA2_PUB|52=20180625-13:05:53.554|56=TRAX|10=155|8=FIXT.1.1|9=69|35=0|34=242|49=HEMATRAXRTS27QA2_PUB|52=20180625-13:06:24.553|56=TRAX|10=154|8=FIXT.1.1|9=69|35=0|34=243|49=HEMATRAXRTS27QA2_PUB|52=20180625-13:06:55.553|56=TRAX|10=159|8=FIXT.1.1|9=69|35=0|34=244|49=HEMATRAXRTS27QA2_PUB|52=20180625-13:07:26.551|56=TRAX|10=157|8=FIXT.1.1|9=69|35=0|34=245|49=HEMATRAXRTS27QA2_PUB|52=20180625-13:07:56.552|56=TRAX|10=162|8=FIXT.1.1|9=69|35=0|34=246|49=HEMATRAXRTS27QA2_PUB|52=20180625-13:08:26.552|56=TRAX|10=161|8=FIXT.1.1|9=69|35=0|34=247|49=HEMATRAXRTS27QA2_PUB|52=20180625-13:08:56.552|56=TRAX|10=165|8=FIXT.1.1|9=69|35=0|34=248|49=HEMATRAXRTS27QA2_PUB|52=20180625-13:09:27.549|56=TRAX|10=171|8=FIXT.1.1|9=69|35=0|34=249|49=HEMATRAXRTS27QA2_PUB|52=20180625-13:09:57.552|56=TRAX|10=169|8=FIXT.1.1|9=69|35=0|34=250|49=HEMATRAXRTS27QA2_PUB|52=20180625-13:10:28.549|56=TRAX|10=157|8=FIXT.1.1|9=69|35=0|34=251|49=HEMATRAXRTS27QA2_PUB|52=20180625-13:10:58.550|56=TRAX|10=153|8=FIXT.1.1|9=69|35=0|34=252|49=HEMATRAXRTS27QA2_PUB|52=20180625-13:11:28.551|56=TRAX|10=153|8=FIXT.1.1|9=69|35=0|34=253|49=HEMATRAXRTS27QA2_PUB|52=20180625-13:11:58.551|56=TRAX|10=157|8=FIXT.1.1|9=69|35=0|34=254|49=HEMATRAXRTS27QA2_PUB|52=20180625-13:12:28.552|56=TRAX|10=157|8=FIXT.1.1|9=69|35=0|34=255|49=HEMATRAXRTS27QA2_PUB|52=20180625-13:12:59.550|56=TRAX|10=160|8=FIXT.1.1|9=69|35=0|34=256|49=HEMATRAXRTS27QA2_PUB|52=20180625-13:13:29.550|56=TRAX|10=159|8=FIXT.1.1|9=69|35=0|34=257|49=HEMATRAXRTS27QA2_PUB|52=20180625-13:13:59.550|56=TRAX|10=163|8=FIXT.1.1|9=69|35=0|34=258|49=HEMATRAXRTS27QA2_PUB|52=20180625-13:14:30.550|56=TRAX|10=154|8=FIXT.1.1|9=69|35=0|34=259|49=HEMATRAXRTS27QA2_PUB|52=20180625-13:15:00.551|56=TRAX|10=154|8=FIXT.1.1|9=69|35=0|34=260|49=HEMATRAXRTS27QA2_PUB|52=20180625-13:15:31.550|56=TRAX|10=149|8=FIXT.1.1|9=69|35=0|34=261|49=HEMATRAXRTS27QA2_PUB|52=20180625-13:16:01.550|56=TRAX|10=148|8=FIXT.1.1|9=69|35=0|34=262|49=HEMATRAXRTS27QA2_PUB|52=20180625-13:16:32.548|56=TRAX|10=160|8=FIXT.1.1|9=69|35=0|34=263|49=HEMATRAXRTS27QA2_PUB|52=20180625-13:17:02.550|56=TRAX|10=152|8=FIXT.1.1|9=69|35=0|34=264|49=HEMATRAXRTS27QA2_PUB|52=20180625-13:17:33.548|56=TRAX|10=164|8=FIXT.1.1|9=69|35=0|34=265|49=HEMATRAXRTS27QA2_PUB|52=20180625-13:18:03.549|56=TRAX|10=164|8=FIXT.1.1|9=69|35=0|34=266|49=HEMATRAXRTS27QA2_PUB|52=20180625-13:18:33.549|56=TRAX|10=168|8=FIXT.1.1|9=69|35=0|34=267|49=HEMATRAXRTS27QA2_PUB|52=20180625-13:19:04.547|56=TRAX|10=166|8=FIXT.1.1|9=69|35=0|34=268|49=HEMATRAXRTS27QA2_PUB|52=20180625-13:19:34.547|56=TRAX|10=170|8=FIXT.1.1|9=69|35=0|34=269|49=HEMATRAXRTS27QA2_PUB|52=20180625-13:20:05.548|56=TRAX|10=162|8=FIXT.1.1|9=69|35=0|34=270|49=HEMATRAXRTS27QA2_PUB|52=20180625-13:20:36.547|56=TRAX|10=157|8=FIXT.1.1|9=69|35=0|34=271|49=HEMATRAXRTS27QA2_PUB|52=20180625-13:21:06.548|56=TRAX|10=157|8=FIXT.1.1|9=69|35=0|34=272|49=HEMATRAXRTS27QA2_PUB|52=20180625-13:21:37.550|56=TRAX|10=155|8=FIXT.1.1|9=69|35=0|34=273|49=HEMATRAXRTS27QA2_PUB|52=20180625-13:22:07.550|56=TRAX|10=154|8=FIXT.1.1|9=69|35=0|34=274|49=HEMATRAXRTS27QA2_PUB|52=20180625-13:22:38.547|56=TRAX|10=165|8=FIXT.1.1|9=69|35=0|34=275|49=HEMATRAXRTS27QA2_PUB|52=20180625-13:23:08.549|56=TRAX|10=166|8=FIXT.1.1|9=69|35=0|34=276|49=HEMATRAXRTS27QA2_PUB|52=20180625-13:23:39.543|56=TRAX|10=165|8=FIXT.1.1|9=69|35=0|34=277|49=HEMATRAXRTS27QA2_PUB|52=20180625-13:24:09.543|56=TRAX|10=164|8=FIXT.1.1|9=69|35=0|34=278|49=HEMATRAXRTS27QA2_PUB|52=20180625-13:24:39.543|56=TRAX|10=168|8=FIXT.1.1|9=69|35=0|34=279|49=HEMATRAXRTS27QA2_PUB|52=20180625-13:25:09.547|56=TRAX|10=171|8=FIXT.1.1|9=69|35=0|34=280|49=HEMATRAXRTS27QA2_PUB|52=20180625-13:25:40.545|56=TRAX|10=156|8=FIXT.1.1|9=69|35=0|34=281|49=HEMATRAXRTS27QA2_PUB|52=20180625-13:26:10.546|56=TRAX|10=156|8=FIXT.1.1|9=69|35=0|34=282|49=HEMATRAXRTS27QA2_PUB|52=20180625-13:26:41.542|56=TRAX|10=157|8=FIXT.1.1|9=69|35=0|34=283|49=HEMATRAXRTS27QA2_PUB|52=20180625-13:27:11.545|56=TRAX|10=159|8=FIXT.1.1|9=69|35=0|34=284|49=HEMATRAXRTS27QA2_PUB|52=20180625-13:27:42.545|56=TRAX|10=164|8=FIXT.1.1|9=69|35=0|34=285|49=HEMATRAXRTS27QA2_PUB|52=20180625-13:28:12.545|56=TRAX|10=163|8=FIXT.1.1|9=69|35=0|34=286|49=HEMATRAXRTS27QA2_PUB|52=20180625-13:28:43.544|56=TRAX|10=167|8=FIXT.1.1|9=69|35=0|34=287|49=HEMATRAXRTS27QA2_PUB|52=20180625-13:29:13.544|56=TRAX|10=166|8=FIXT.1.1|9=69|35=0|34=288|49=HEMATRAXRTS27QA2_PUB|52=20180625-13:29:43.544|56=TRAX|10=170|8=FIXT.1.1|9=69|35=0|34=289|49=HEMATRAXRTS27QA2_PUB|52=20180625-13:30:13.544|56=TRAX|10=160|8=FIXT.1.1|9=69|35=0|34=290|49=HEMATRAXRTS27QA2_PUB|52=20180625-13:30:44.541|56=TRAX|10=153|8=FIXT.1.1|9=69|35=0|34=291|49=HEMATRAXRTS27QA2_PUB|52=20180625-13:31:14.543|56=TRAX|10=154|8=FIXT.1.1|9=69|35=0|34=292|49=HEMATRAXRTS27QA2_PUB|52=20180625-13:31:45.540|56=TRAX|10=156|8=FIXT.1.1|9=69|35=0|34=293|49=HEMATRAXRTS27QA2_PUB|52=20180625-13:32:15.541|56=TRAX|10=156|8=FIXT.1.1|9=69|35=0|34=294|49=HEMATRAXRTS27QA2_PUB|52=20180625-13:32:46.539|56=TRAX|10=168|8=FIXT.1.1|9=69|35=0|34=295|49=HEMATRAXRTS27QA2_PUB|52=20180625-13:33:16.540|56=TRAX|10=159|8=FIXT.1.1|9=69|35=0|34=296|49=HEMATRAXRTS27QA2_PUB|52=20180625-13:33:46.542|56=TRAX|10=165|8=FIXT.1.1|9=69|35=0|34=297|49=HEMATRAXRTS27QA2_PUB|52=20180625-13:34:16.545|56=TRAX|10=167|8=FIXT.1.1|9=69|35=0|34=298|49=HEMATRAXRTS27QA2_PUB|52=20180625-13:34:46.545|56=TRAX|10=171|8=FIXT.1.1|9=69|35=0|34=299|49=HEMATRAXRTS27QA2_PUB|52=20180625-13:35:16.545|56=TRAX|10=170|8=FIXT.1.1|9=69|35=0|34=300|49=HEMATRAXRTS27QA2_PUB|52=20180625-13:35:46.545|56=TRAX|10=156|8=FIXT.1.1|9=69|35=0|34=301|49=HEMATRAXRTS27QA2_PUB|52=20180625-13:36:16.546|56=TRAX|10=156|8=FIXT.1.1|9=69|35=0|34=302|49=HEMATRAXRTS27QA2_PUB|52=20180625-13:36:47.546|56=TRAX|10=161|8=FIXT.1.1|9=69|35=0|34=303|49=HEMATRAXRTS27QA2_PUB|52=20180625-13:37:18.538|56=TRAX|10=162|8=FIXT.1.1|9=69|35=0|34=304|49=HEMATRAXRTS27QA2_PUB|52=20180625-13:37:48.538|56=TRAX|10=166|8=FIXT.1.1|9=69|35=0|34=305|49=HEMATRAXRTS27QA2_PUB|52=20180625-13:38:18.540|56=TRAX|10=158|8=FIXT.1.1|9=69|35=0|34=306|49=HEMATRAXRTS27QA2_PUB|52=20180625-13:38:48.541|56=TRAX|10=163|8=FIXT.1.1|9=69|35=0|34=307|49=HEMATRAXRTS27QA2_PUB|52=20180625-13:39:19.541|56=TRAX|10=163|8=FIXT.1.1|9=69|35=0|34=308|49=HEMATRAXRTS27QA2_PUB|52=20180625-13:39:50.537|56=TRAX|10=164|8=FIXT.1.1|9=69|35=0|34=309|49=HEMATRAXRTS27QA2_PUB|52=20180625-13:40:20.537|56=TRAX|10=154|8=FIXT.1.1|9=69|35=0|34=310|49=HEMATRAXRTS27QA2_PUB|52=20180625-13:40:50.541|56=TRAX|10=144|8=FIXT.1.1|9=69|35=0|34=311|49=HEMATRAXRTS27QA2_PUB|52=20180625-13:41:20.541|56=TRAX|10=143|8=FIXT.1.1|9=69|35=0|34=312|49=HEMATRAXRTS27QA2_PUB|52=20180625-13:41:50.542|56=TRAX|10=148|8=FIXT.1.1|9=69|35=0|34=313|49=HEMATRAXRTS27QA2_PUB|52=20180625-13:42:21.541|56=TRAX|10=147|8=FIXT.1.1|9=69|35=0|34=314|49=HEMATRAXRTS27QA2_PUB|52=20180625-13:42:51.542|56=TRAX|10=152|8=FIXT.1.1|9=69|35=0|34=315|49=HEMATRAXRTS27QA2_PUB|52=20180625-13:43:22.541|56=TRAX|10=151|8=FIXT.1.1|9=69|35=0|34=316|49=HEMATRAXRTS27QA2_PUB|52=20180625-13:43:52.541|56=TRAX|10=155|8=FIXT.1.1|9=69|35=0|34=317|49=HEMATRAXRTS27QA2_PUB|52=20180625-13:44:22.542|56=TRAX|10=155|8=FIXT.1.1|9=69|35=0|34=318|49=HEMATRAXRTS27QA2_PUB|52=20180625-13:44:52.543|56=TRAX|10=160|8=FIXT.1.1|9=69|35=0|34=319|49=HEMATRAXRTS27QA2_PUB|52=20180625-13:45:22.544|56=TRAX|10=160|8=FIXT.1.1|9=69|35=0|34=320|49=HEMATRAXRTS27QA2_PUB|52=20180625-13:45:53.540|56=TRAX|10=152|8=FIXT.1.1|9=69|35=0|34=321|49=HEMATRAXRTS27QA2_PUB|52=20180625-13:46:23.540|56=TRAX|10=151|8=FIXT.1.1|9=69|35=0|34=322|49=HEMATRAXRTS27QA2_PUB|52=20180625-13:46:53.542|56=TRAX|10=157|8=FIXT.1.1|9=69|35=0|34=323|49=HEMATRAXRTS27QA2_PUB|52=20180625-13:47:23.542|56=TRAX|10=156|8=FIXT.1.1|9=69|35=0|34=324|49=HEMATRAXRTS27QA2_PUB|52=20180625-13:47:53.542|56=TRAX|10=160|8=FIXT.1.1|9=69|35=0|34=325|49=HEMATRAXRTS27QA2_PUB|52=20180625-13:48:23.543|56=TRAX|10=160|8=FIXT.1.1|9=69|35=0|34=326|49=HEMATRAXRTS27QA2_PUB|52=20180625-13:48:54.536|56=TRAX|10=167|8=FIXT.1.1|9=69|35=0|34=327|49=HEMATRAXRTS27QA2_PUB|52=20180625-13:49:24.542|56=TRAX|10=163|8=FIXT.1.1|9=69|35=0|34=328|49=HEMATRAXRTS27QA2_PUB|52=20180625-13:49:55.541|56=TRAX|10=167|8=FIXT.1.1|9=69|35=0|34=329|49=HEMATRAXRTS27QA2_PUB|52=20180625-13:50:25.541|56=TRAX|10=157|8=FIXT.1.1|9=69|35=0|34=330|49=HEMATRAXRTS27QA2_PUB|52=20180625-13:50:55.541|56=TRAX|10=152|8=FIXT.1.1|9=69|35=0|34=331|49=HEMATRAXRTS27QA2_PUB|52=20180625-13:51:26.541|56=TRAX|10=152|8=FIXT.1.1|9=69|35=0|34=332|49=HEMATRAXRTS27QA2_PUB|52=20180625-13:51:57.541|56=TRAX|10=157|8=FIXT.1.1|9=69|35=0|34=333|49=HEMATRAXRTS27QA2_PUB|52=20180625-13:52:27.598|56=TRAX|10=168|8=FIXT.1.1|9=69|35=0|34=334|49=HEMATRAXRTS27QA2_PUB|52=20180625-13:52:58.538|56=TRAX|10=167|8=FIXT.1.1|9=69|35=0|34=335|49=HEMATRAXRTS27QA2_PUB|52=20180625-13:53:29.538|56=TRAX|10=167|8=FIXT.1.1|9=69|35=0|34=336|49=HEMATRAXRTS27QA2_PUB|52=20180625-13:53:59.541|56=TRAX|10=165|8=FIXT.1.1|9=69|35=0|34=337|49=HEMATRAXRTS27QA2_PUB|52=20180625-13:54:30.539|56=TRAX|10=163|8=FIXT.1.1|9=69|35=0|34=338|49=HEMATRAXRTS27QA2_PUB|52=20180625-13:55:00.539|56=TRAX|10=162|8=FIXT.1.1|9=69|35=0|34=339|49=HEMATRAXRTS27QA2_PUB|52=20180625-13:55:31.535|56=TRAX|10=163|8=FIXT.1.1|9=69|35=0|34=340|49=HEMATRAXRTS27QA2_PUB|52=20180625-13:56:01.536|56=TRAX|10=154|8=FIXT.1.1|9=69|35=0|34=341|49=HEMATRAXRTS27QA2_PUB|52=20180625-13:56:31.537|56=TRAX|10=159|8=FIXT.1.1|9=69|35=0|34=342|49=HEMATRAXRTS27QA2_PUB|52=20180625-13:57:02.537|56=TRAX|10=159|8=FIXT.1.1|9=69|35=0|34=343|49=HEMATRAXRTS27QA2_PUB|52=20180625-13:57:33.537|56=TRAX|10=164|8=FIXT.1.1|9=69|35=0|34=344|49=HEMATRAXRTS27QA2_PUB|52=20180625-13:58:04.535|56=TRAX|10=162|8=FIXT.1.1|9=69|35=0|34=345|49=HEMATRAXRTS27QA2_PUB|52=20180625-13:58:35.535|56=TRAX|10=167|8=FIXT.1.1|9=69|35=0|34=346|49=HEMATRAXRTS27QA2_PUB|52=20180625-13:59:05.535|56=TRAX|10=166|8=FIXT.1.1|9=69|35=0|34=347|49=HEMATRAXRTS27QA2_PUB|52=20180625-13:59:35.535|56=TRAX|10=170|8=FIXT.1.1|9=69|35=0|34=348|49=HEMATRAXRTS27QA2_PUB|52=20180625-14:00:05.536|56=TRAX|10=156|8=FIXT.1.1|9=69|35=0|34=349|49=HEMATRAXRTS27QA2_PUB|52=20180625-14:00:36.533|56=TRAX|10=158|8=FIXT.1.1|9=69|35=0|34=350|49=HEMATRAXRTS27QA2_PUB|52=20180625-14:01:06.534|56=TRAX|10=149|8=FIXT.1.1|9=69|35=0|34=351|49=HEMATRAXRTS27QA2_PUB|52=20180625-14:01:36.534|56=TRAX|10=153|8=FIXT.1.1|9=69|35=0|34=352|49=HEMATRAXRTS27QA2_PUB|52=20180625-14:02:07.533|56=TRAX|10=152|8=FIXT.1.1|9=69|35=0|34=353|49=HEMATRAXRTS27QA2_PUB|52=20180625-14:02:37.538|56=TRAX|10=161|8=FIXT.1.1|9=69|35=0|34=354|49=HEMATRAXRTS27QA2_PUB|52=20180625-14:03:08.532|56=TRAX|10=155|8=FIXT.1.1|9=69|35=0|34=355|49=HEMATRAXRTS27QA2_PUB|52=20180625-14:03:38.532|56=TRAX|10=159|8=FIXT.1.1|9=69|35=0|34=356|49=HEMATRAXRTS27QA2_PUB|52=20180625-14:04:08.544|56=TRAX|10=161|8=FIXT.1.1|9=69|35=0|34=357|49=HEMATRAXRTS27QA2_PUB|52=20180625-14:04:38.545|56=TRAX|10=166|8=FIXT.1.1|9=69|35=0|34=358|49=HEMATRAXRTS27QA2_PUB|52=20180625-14:05:09.533|56=TRAX|10=163|8=FIXT.1.1|9=69|35=0|34=359|49=HEMATRAXRTS27QA2_PUB|52=20180625-14:05:39.533|56=TRAX|10=167|8=FIXT.1.1|9=69|35=0|34=360|49=HEMATRAXRTS27QA2_PUB|52=20180625-14:06:09.536|56=TRAX|10=160|8=FIXT.1.1|9=69|35=0|34=361|49=HEMATRAXRTS27QA2_PUB|52=20180625-14:06:40.536|56=TRAX|10=156|8=FIXT.1.1|9=69|35=0|34=362|49=HEMATRAXRTS27QA2_PUB|52=20180625-14:07:10.538|56=TRAX|10=157|8=FIXT.1.1|9=69|35=0|34=363|49=HEMATRAXRTS27QA2_PUB|52=20180625-14:07:41.539|56=TRAX|10=163|8=FIXT.1.1|9=69|35=0|34=364|49=HEMATRAXRTS27QA2_PUB|52=20180625-14:08:11.541|56=TRAX|10=155|8=FIXT.1.1|9=69|35=0|34=365|49=HEMATRAXRTS27QA2_PUB|52=20180625-14:08:42.532|56=TRAX|10=160|8=FIXT.1.1|9=69|35=0|34=366|49=HEMATRAXRTS27QA2_PUB|52=20180625-14:09:12.533|56=TRAX|10=160|8=FIXT.1.1|9=69|35=0|34=367|49=HEMATRAXRTS27QA2_PUB|52=20180625-14:09:43.532|56=TRAX|10=164|8=FIXT.1.1|9=69|35=0|34=368|49=HEMATRAXRTS27QA2_PUB|52=20180625-14:10:13.535|56=TRAX|10=157|8=FIXT.1.1|9=69|35=0|34=369|49=HEMATRAXRTS27QA2_PUB|52=20180625-14:10:44.538|56=TRAX|10=165|8=FIXT.1.1|9=69|35=0|34=370|49=HEMATRAXRTS27QA2_PUB|52=20180625-14:11:15.539|56=TRAX|10=157|8=FIXT.1.1|9=69|35=0|34=371|49=HEMATRAXRTS27QA2_PUB|52=20180625-14:11:46.533|56=TRAX|10=156|8=FIXT.1.1|9=69|35=0|34=372|49=HEMATRAXRTS27QA2_PUB|52=20180625-14:12:16.534|56=TRAX|10=156|8=FIXT.1.1|9=69|35=0|34=373|49=HEMATRAXRTS27QA2_PUB|52=20180625-14:12:47.529|56=TRAX|10=165|8=FIXT.1.1|9=69|35=0|34=374|49=HEMATRAXRTS27QA2_PUB|52=20180625-14:13:17.536|56=TRAX|10=162|8=FIXT.1.1|9=69|35=0|34=375|49=HEMATRAXRTS27QA2_PUB|52=20180625-14:13:47.806|56=TRAX|10=166|8=FIXT.1.1|9=69|35=0|34=376|49=HEMATRAXRTS27QA2_PUB|52=20180625-14:14:17.807|56=TRAX|10=166|8=FIXT.1.1|9=69|35=0|34=377|49=HEMATRAXRTS27QA2_PUB|52=20180625-14:14:48.526|56=TRAX|10=169|8=FIXT.1.1|9=69|35=0|34=378|49=HEMATRAXRTS27QA2_PUB|52=20180625-14:15:18.526|56=TRAX|10=168|8=FIXT.1.1|9=69|35=0|34=379|49=HEMATRAXRTS27QA2_PUB|52=20180625-14:15:49.532|56=TRAX|10=170|8=FIXT.1.1|9=69|35=0|34=380|49=HEMATRAXRTS27QA2_PUB|52=20180625-14:16:20.529|56=TRAX|10=158|8=FIXT.1.1|9=69|35=0|34=381|49=HEMATRAXRTS27QA2_PUB|52=20180625-14:16:50.531|56=TRAX|10=155|8=FIXT.1.1|9=69|35=0|34=382|49=HEMATRAXRTS27QA2_PUB|52=20180625-14:17:20.538|56=TRAX|10=161|8=FIXT.1.1|9=69|35=0|34=383|49=HEMATRAXRTS27QA2_PUB|52=20180625-14:17:50.547|56=TRAX|10=165|8=FIXT.1.1|9=69|35=0|34=384|49=HEMATRAXRTS27QA2_PUB|52=20180625-14:18:21.531|56=TRAX|10=158|8=FIXT.1.1|9=69|35=0|34=385|49=HEMATRAXRTS27QA2_PUB|52=20180625-14:18:51.532|56=TRAX|10=163|8=FIXT.1.1|9=69|35=0|34=386|49=HEMATRAXRTS27QA2_PUB|52=20180625-14:19:21.532|56=TRAX|10=162|8=FIXT.1.1|9=69|35=0|34=387|49=HEMATRAXRTS27QA2_PUB|52=20180625-14:19:52.539|56=TRAX|10=174|8=FIXT.1.1|9=69|35=0|34=388|49=HEMATRAXRTS27QA2_PUB|52=20180625-14:20:23.532|56=TRAX|10=158|8=FIXT.1.1|9=69|35=0|34=389|49=HEMATRAXRTS27QA2_PUB|52=20180625-14:20:54.532|56=TRAX|10=163|8=FIXT.1.1|9=69|35=0|34=390|49=HEMATRAXRTS27QA2_PUB|52=20180625-14:21:24.533|56=TRAX|10=154|8=FIXT.1.1|9=69|35=0|34=391|49=HEMATRAXRTS27QA2_PUB|52=20180625-14:21:54.533|56=TRAX|10=158|8=FIXT.1.1|9=69|35=0|34=392|49=HEMATRAXRTS27QA2_PUB|52=20180625-14:22:25.532|56=TRAX|10=157|8=FIXT.1.1|9=69|35=0|34=393|49=HEMATRAXRTS27QA2_PUB|52=20180625-14:22:56.527|56=TRAX|10=166|8=FIXT.1.1|9=69|35=0|34=394|49=HEMATRAXRTS27QA2_PUB|52=20180625-14:23:27.534|56=TRAX|10=164|8=FIXT.1.1|9=69|35=0|34=395|49=HEMATRAXRTS27QA2_PUB|52=20180625-14:23:57.798|56=TRAX|10=180|8=FIXT.1.1|9=69|35=0|34=396|49=HEMATRAXRTS27QA2_PUB|52=20180625-14:24:27.806|56=TRAX|10=169|8=FIXT.1.1|9=69|35=0|34=397|49=HEMATRAXRTS27QA2_PUB|52=20180625-14:24:58.525|56=TRAX|10=172|8=FIXT.1.1|9=69|35=0|34=398|49=HEMATRAXRTS27QA2_PUB|52=20180625-14:25:28.533|56=TRAX|10=170|8=FIXT.1.1|9=69|35=0|34=399|49=HEMATRAXRTS27QA2_PUB|52=20180625-14:25:59.529|56=TRAX|10=180|8=FIXT.1.1|9=69|35=0|34=400|49=HEMATRAXRTS27QA2_PUB|52=20180625-14:26:29.529|56=TRAX|10=161|8=FIXT.1.1|9=69|35=0|34=401|49=HEMATRAXRTS27QA2_PUB|52=20180625-14:27:00.530|56=TRAX|10=144|8=FIXT.1.1|9=69|35=0|34=402|49=HEMATRAXRTS27QA2_PUB|52=20180625-14:27:30.531|56=TRAX|10=149|8=FIXT.1.1|9=69|35=0|34=403|49=HEMATRAXRTS27QA2_PUB|52=20180625-14:28:00.532|56=TRAX|10=149|8=FIXT.1.1|9=69|35=0|34=404|49=HEMATRAXRTS27QA2_PUB|52=20180625-14:28:31.521|56=TRAX|10=152|8=FIXT.1.1|9=69|35=0|34=405|49=HEMATRAXRTS27QA2_PUB|52=20180625-14:29:01.534|56=TRAX|10=155|8=FIXT.1.1|9=69|35=0|34=406|49=HEMATRAXRTS27QA2_PUB|52=20180625-14:29:32.522|56=TRAX|10=157|8=FIXT.1.1|9=69|35=0|34=407|49=HEMATRAXRTS27QA2_PUB|52=20180625-14:30:02.522|56=TRAX|10=147|8=FIXT.1.1|9=69|35=0|34=408|49=HEMATRAXRTS27QA2_PUB|52=20180625-14:30:32.526|56=TRAX|10=155|8=FIXT.1.1|9=69|35=0|34=409|49=HEMATRAXRTS27QA2_PUB|52=20180625-14:31:02.534|56=TRAX|10=153|8=FIXT.1.1|9=69|35=0|34=410|49=HEMATRAXRTS27QA2_PUB|52=20180625-14:31:33.534|56=TRAX|10=149|8=FIXT.1.1|9=69|35=0|34=411|49=HEMATRAXRTS27QA2_PUB|52=20180625-14:32:04.529|56=TRAX|10=153|8=FIXT.1.1|9=69|35=0|34=412|49=HEMATRAXRTS27QA2_PUB|52=20180625-14:32:35.519|56=TRAX|10=157|8=FIXT.1.1|9=69|35=0|34=413|49=HEMATRAXRTS27QA2_PUB|52=20180625-14:33:05.527|56=TRAX|10=155|8=FIXT.1.1|9=69|35=0|34=414|49=HEMATRAXRTS27QA2_PUB|52=20180625-14:33:36.526|56=TRAX|10=159|8=FIXT.1.1|9=69|35=0|34=415|49=HEMATRAXRTS27QA2_PUB|52=20180625-14:34:06.529|56=TRAX|10=161|8=FIXT.1.1|9=69|35=0|34=416|49=HEMATRAXRTS27QA2_PUB|52=20180625-14:34:37.535|56=TRAX|10=163|8=FIXT.1.1|9=69|35=0|34=417|49=HEMATRAXRTS27QA2_PUB|52=20180625-14:35:07.537|56=TRAX|10=164|8=FIXT.1.1|9=69|35=0|34=418|49=HEMATRAXRTS27QA2_PUB|52=20180625-14:35:38.526|56=TRAX|10=167|8=FIXT.1.1|9=69|35=0|34=419|49=HEMATRAXRTS27QA2_PUB|52=20180625-14:36:08.528|56=TRAX|10=168|8=FIXT.1.1|9=69|35=0|34=420|49=HEMATRAXRTS27QA2_PUB|52=20180625-14:36:38.539|56=TRAX|10=165|8=FIXT.1.1|9=69|35=0|34=421|49=HEMATRAXRTS27QA2_PUB|52=20180625-14:37:09.534|56=TRAX|10=160|8=FIXT.1.1|9=69|35=0|34=422|49=HEMATRAXRTS27QA2_PUB|52=20180625-14:37:39.542|56=TRAX|10=163|8=FIXT.1.1|9=69|35=0|34=423|49=HEMATRAXRTS27QA2_PUB|52=20180625-14:38:10.540|56=TRAX|10=152|8=FIXT.1.1|9=69|35=0|34=424|49=HEMATRAXRTS27QA2_PUB|52=20180625-14:38:41.538|56=TRAX|10=164|8=FIXT.1.1|9=69|35=0|34=425|49=HEMATRAXRTS27QA2_PUB|52=20180625-14:39:12.534|56=TRAX|10=160|8=FIXT.1.1|9=69|35=0|34=426|49=HEMATRAXRTS27QA2_PUB|52=20180625-14:39:42.543|56=TRAX|10=164|8=FIXT.1.1|9=69|35=0|34=427|49=HEMATRAXRTS27QA2_PUB|52=20180625-14:40:12.545|56=TRAX|10=156|8=FIXT.1.1|9=69|35=0|34=428|49=HEMATRAXRTS27QA2_PUB|52=20180625-14:40:43.541|56=TRAX|10=157|8=FIXT.1.1|9=69|35=0|34=429|49=HEMATRAXRTS27QA2_PUB|52=20180625-14:41:14.536|56=TRAX|10=161|8=FIXT.1.1|9=69|35=0|34=430|49=HEMATRAXRTS27QA2_PUB|52=20180625-14:41:45.539|56=TRAX|10=160|8=FIXT.1.1|9=69|35=0|34=431|49=HEMATRAXRTS27QA2_PUB|52=20180625-14:42:16.539|56=TRAX|10=160|8=FIXT.1.1|9=69|35=0|34=432|49=HEMATRAXRTS27QA2_PUB|52=20180625-14:42:47.538|56=TRAX|10=164|8=FIXT.1.1|9=69|35=0|34=433|49=HEMATRAXRTS27QA2_PUB|52=20180625-14:43:17.539|56=TRAX|10=164|8=FIXT.1.1|9=69|35=0|34=434|49=HEMATRAXRTS27QA2_PUB|52=20180625-14:43:48.533|56=TRAX|10=163|8=FIXT.1.1|9=69|35=0|34=435|49=HEMATRAXRTS27QA2_PUB|52=20180625-14:44:18.543|56=TRAX|10=163|8=FIXT.1.1|9=69|35=0|34=436|49=HEMATRAXRTS27QA2_PUB|52=20180625-14:44:49.542|56=TRAX|10=167|8=FIXT.1.1|9=69|35=0|34=437|49=HEMATRAXRTS27QA2_PUB|52=20180625-14:45:20.535|56=TRAX|10=160|8=FIXT.1.1|9=69|35=0|34=438|49=HEMATRAXRTS27QA2_PUB|52=20180625-14:45:51.532|56=TRAX|10=162|8=FIXT.1.1|9=69|35=0|34=439|49=HEMATRAXRTS27QA2_PUB|52=20180625-14:46:21.533|56=TRAX|10=162|8=FIXT.1.1|9=69|35=0|34=440|49=HEMATRAXRTS27QA2_PUB|52=20180625-14:46:51.537|56=TRAX|10=161|8=FIXT.1.1|9=69|35=0|34=441|49=HEMATRAXRTS27QA2_PUB|52=20180625-14:47:21.545|56=TRAX|10=159|8=FIXT.1.1|9=69|35=0|34=442|49=HEMATRAXRTS27QA2_PUB|52=20180625-14:47:52.534|56=TRAX|10=162|8=FIXT.1.1|9=69|35=0|34=443|49=HEMATRAXRTS27QA2_PUB|52=20180625-14:48:22.541|56=TRAX|10=159|8=FIXT.1.1|9=69|35=0|34=444|49=HEMATRAXRTS27QA2_PUB|52=20180625-14:48:52.542|56=TRAX|10=164|8=FIXT.1.1|9=69|35=0|34=445|49=HEMATRAXRTS27QA2_PUB|52=20180625-14:49:22.543|56=TRAX|10=164|8=FIXT.1.1|9=69|35=0|34=446|49=HEMATRAXRTS27QA2_PUB|52=20180625-14:49:53.531|56=TRAX|10=166|8=FIXT.1.1|9=69|35=0|34=447|49=HEMATRAXRTS27QA2_PUB|52=20180625-14:50:23.532|56=TRAX|10=157|8=FIXT.1.1|9=69|35=0|34=448|49=HEMATRAXRTS27QA2_PUB|52=20180625-14:50:53.537|56=TRAX|10=166|8=FIXT.1.1|9=69|35=0|34=449|49=HEMATRAXRTS27QA2_PUB|52=20180625-14:51:24.530|56=TRAX|10=159|8=FIXT.1.1|9=69|35=0|34=450|49=HEMATRAXRTS27QA2_PUB|52=20180625-14:51:54.535|56=TRAX|10=159|8=FIXT.1.1|9=69|35=0|34=451|49=HEMATRAXRTS27QA2_PUB|52=20180625-14:52:25.536|56=TRAX|10=160|8=FIXT.1.1|9=69|35=0|34=452|49=HEMATRAXRTS27QA2_PUB|52=20180625-14:52:56.537|56=TRAX|10=166|8=FIXT.1.1|9=69|35=0|34=453|49=HEMATRAXRTS27QA2_PUB|52=20180625-14:53:27.529|56=TRAX|10=167|8=FIXT.1.1|9=69|35=0|34=454|49=HEMATRAXRTS27QA2_PUB|52=20180625-14:53:57.531|56=TRAX|10=164|8=FIXT.1.1|9=69|35=0|34=455|49=HEMATRAXRTS27QA2_PUB|52=20180625-14:54:27.537|56=TRAX|10=169|8=FIXT.1.1|9=69|35=0|34=456|49=HEMATRAXRTS27QA2_PUB|52=20180625-14:54:58.534|56=TRAX|10=171|8=FIXT.1.1|9=69|35=0|34=457|49=HEMATRAXRTS27QA2_PUB|52=20180625-14:55:28.535|56=TRAX|10=171|8=FIXT.1.1|9=69|35=0|34=458|49=HEMATRAXRTS27QA2_PUB|52=20180625-14:55:58.540|56=TRAX|10=171|8=FIXT.1.1|9=69|35=0|34=459|49=HEMATRAXRTS27QA2_PUB|52=20180625-14:56:29.532|56=TRAX|10=172|8=FIXT.1.1|9=69|35=0|34=460|49=HEMATRAXRTS27QA2_PUB|52=20180625-14:57:00.525|56=TRAX|10=156|8=FIXT.1.1|9=69|35=0|34=461|49=HEMATRAXRTS27QA2_PUB|52=20180625-14:57:30.530|56=TRAX|10=156|8=FIXT.1.1|9=69|35=0|34=462|49=HEMATRAXRTS27QA2_PUB|52=20180625-14:58:00.532|56=TRAX|10=157|8=FIXT.1.1|9=69|35=0|34=463|49=HEMATRAXRTS27QA2_PUB|52=20180625-14:58:30.533|56=TRAX|10=162|8=FIXT.1.1|9=69|35=0|34=464|49=HEMATRAXRTS27QA2_PUB|52=20180625-14:59:00.533|56=TRAX|10=161|8=FIXT.1.1|9=69|35=0|34=465|49=HEMATRAXRTS27QA2_PUB|52=20180625-14:59:31.527|56=TRAX|10=169|8=FIXT.1.1|9=69|35=0|34=466|49=HEMATRAXRTS27QA2_PUB|52=20180625-15:00:01.529|56=TRAX|10=156|8=FIXT.1.1|9=69|35=0|34=467|49=HEMATRAXRTS27QA2_PUB|52=20180625-15:00:32.527|56=TRAX|10=159|8=FIXT.1.1|9=69|35=0|34=468|49=HEMATRAXRTS27QA2_PUB|52=20180625-15:01:02.538|56=TRAX|10=160|8=FIXT.1.1|9=69|35=0|34=469|49=HEMATRAXRTS27QA2_PUB|52=20180625-15:01:33.531|56=TRAX|10=158|8=FIXT.1.1|9=69|35=0|34=470|49=HEMATRAXRTS27QA2_PUB|52=20180625-15:02:04.528|56=TRAX|10=155|8=FIXT.1.1|9=69|35=0|34=471|49=HEMATRAXRTS27QA2_PUB|52=20180625-15:02:35.524|56=TRAX|10=156|8=FIXT.1.1|9=69|35=0|34=472|49=HEMATRAXRTS27QA2_PUB|52=20180625-15:03:05.535|56=TRAX|10=157|8=FIXT.1.1|9=69|35=0|34=473|49=HEMATRAXRTS27QA2_PUB|52=20180625-15:03:36.520|56=TRAX|10=156|8=FIXT.1.1|9=69|35=0|34=474|49=HEMATRAXRTS27QA2_PUB|52=20180625-15:04:06.521|56=TRAX|10=156|8=FIXT.1.1|9=69|35=0|34=475|49=HEMATRAXRTS27QA2_PUB|52=20180625-15:04:36.525|56=TRAX|10=164|8=FIXT.1.1|9=69|35=0|34=476|49=HEMATRAXRTS27QA2_PUB|52=20180625-15:05:07.527|56=TRAX|10=166|8=FIXT.1.1|9=69|35=0|34=477|49=HEMATRAXRTS27QA2_PUB|52=20180625-15:05:37.529|56=TRAX|10=172|8=FIXT.1.1|9=69|35=0|34=478|49=HEMATRAXRTS27QA2_PUB|52=20180625-15:06:08.521|56=TRAX|10=164|8=FIXT.1.1|9=69|35=0|34=479|49=HEMATRAXRTS27QA2_PUB|52=20180625-15:06:38.523|56=TRAX|10=170|8=FIXT.1.1|9=69|35=0|34=480|49=HEMATRAXRTS27QA2_PUB|52=20180625-15:07:08.523|56=TRAX|10=160|8=FIXT.1.1|9=69|35=0|34=481|49=HEMATRAXRTS27QA2_PUB|52=20180625-15:07:39.518|56=TRAX|10=169|8=FIXT.1.1|9=69|35=0|34=482|49=HEMATRAXRTS27QA2_PUB|52=20180625-15:08:09.527|56=TRAX|10=168|8=FIXT.1.1|9=69|35=0|34=483|49=HEMATRAXRTS27QA2_PUB|52=20180625-15:08:40.534|56=TRAX|10=162|8=FIXT.1.1|9=69|35=0|34=484|49=HEMATRAXRTS27QA2_PUB|52=20180625-15:09:11.522|56=TRAX|10=159|8=FIXT.1.1|9=69|35=0|34=485|49=HEMATRAXRTS27QA2_PUB|52=20180625-15:09:41.523|56=TRAX|10=164|8=FIXT.1.1|9=69|35=0|34=486|49=HEMATRAXRTS27QA2_PUB|52=20180625-15:10:12.520|56=TRAX|10=152|8=FIXT.1.1|9=69|35=0|34=487|49=HEMATRAXRTS27QA2_PUB|52=20180625-15:10:42.521|56=TRAX|10=157|8=FIXT.1.1|9=69|35=0|34=488|49=HEMATRAXRTS27QA2_PUB|52=20180625-15:11:13.528|56=TRAX|10=164|8=FIXT.1.1|9=69|35=0|34=489|49=HEMATRAXRTS27QA2_PUB|52=20180625-15:11:44.514|56=TRAX|10=164|8=FIXT.1.1|9=69|35=0|34=490|49=HEMATRAXRTS27QA2_PUB|52=20180625-15:12:14.527|56=TRAX|10=158|8=FIXT.1.1|9=69|35=0|34=491|49=HEMATRAXRTS27QA2_PUB|52=20180625-15:12:45.521|56=TRAX|10=157|8=FIXT.1.1|9=69|35=0|34=492|49=HEMATRAXRTS27QA2_PUB|52=20180625-15:13:15.813|56=TRAX|10=160|8=FIXT.1.1|9=69|35=0|34=493|49=HEMATRAXRTS27QA2_PUB|52=20180625-15:13:45.816|56=TRAX|10=167|8=FIXT.1.1|9=69|35=0|34=494|49=HEMATRAXRTS27QA2_PUB|52=20180625-15:14:16.514|56=TRAX|10=162|8=FIXT.1.1|9=69|35=0|34=495|49=HEMATRAXRTS27QA2_PUB|52=20180625-15:14:46.520|56=TRAX|10=163|8=FIXT.1.1|9=69|35=0|34=496|49=HEMATRAXRTS27QA2_PUB|52=20180625-15:15:16.525|56=TRAX|10=167|8=FIXT.1.1|9=69|35=0|34=497|49=HEMATRAXRTS27QA2_PUB|52=20180625-15:15:47.522|56=TRAX|10=169|8=FIXT.1.1|9=69|35=0|34=498|49=HEMATRAXRTS27QA2_PUB|52=20180625-15:16:18.515|56=TRAX|10=171|8=FIXT.1.1|9=69|35=0|34=499|49=HEMATRAXRTS27QA2_PUB|52=20180625-15:16:49.517|56=TRAX|10=178|8=FIXT.1.1|9=69|35=0|34=500|49=HEMATRAXRTS27QA2_PUB|52=20180625-15:17:19.522|56=TRAX|10=155|8=FIXT.1.1|9=69|35=0|34=501|49=HEMATRAXRTS27QA2_PUB|52=20180625-15:17:50.516|56=TRAX|10=154|8=FIXT.1.1|9=69|35=0|34=502|49=HEMATRAXRTS27QA2_PUB|52=20180625-15:18:21.516|56=TRAX|10=154|8=FIXT.1.1|9=69|35=0|34=503|49=HEMATRAXRTS27QA2_PUB|52=20180625-15:18:51.520|56=TRAX|10=153|8=FIXT.1.1|9=69|35=0|34=504|49=HEMATRAXRTS27QA2_PUB|52=20180625-15:19:22.515|56=TRAX|10=157|8=FIXT.1.1|9=69|35=0|34=505|49=HEMATRAXRTS27QA2_PUB|52=20180625-15:19:52.517|56=TRAX|10=163|8=FIXT.1.1|9=69|35=0|34=506|49=HEMATRAXRTS27QA2_PUB|52=20180625-15:20:23.514|56=TRAX|10=151|8=FIXT.1.1|9=69|35=0|34=507|49=HEMATRAXRTS27QA2_PUB|52=20180625-15:20:53.516|56=TRAX|10=157|8=FIXT.1.1|9=69|35=0|34=508|49=HEMATRAXRTS27QA2_PUB|52=20180625-15:21:23.520|56=TRAX|10=151|8=FIXT.1.1|9=69|35=0|34=509|49=HEMATRAXRTS27QA2_PUB|52=20180625-15:21:54.518|56=TRAX|10=163|8=FIXT.1.1|9=69|35=0|34=510|49=HEMATRAXRTS27QA2_PUB|52=20180625-15:22:25.513|56=TRAX|10=149|8=FIXT.1.1|9=69|35=0|34=511|49=HEMATRAXRTS27QA2_PUB|52=20180625-15:22:55.519|56=TRAX|10=159|8=FIXT.1.1|9=69|35=0|34=512|49=HEMATRAXRTS27QA2_PUB|52=20180625-15:23:26.512|56=TRAX|10=152|8=FIXT.1.1|9=69|35=0|34=513|49=HEMATRAXRTS27QA2_PUB|52=20180625-15:23:56.516|56=TRAX|10=160|8=FIXT.1.1|9=69|35=0|34=514|49=HEMATRAXRTS27QA2_PUB|52=20180625-15:24:27.508|56=TRAX|10=161|8=FIXT.1.1|9=69|35=0|34=515|49=HEMATRAXRTS27QA2_PUB|52=20180625-15:24:57.511|56=TRAX|10=159|8=FIXT.1.1|9=69|35=0|34=516|49=HEMATRAXRTS27QA2_PUB|52=20180625-15:25:27.511|56=TRAX|10=158|8=FIXT.1.1|9=69|35=0|34=517|49=HEMATRAXRTS27QA2_PUB|52=20180625-15:25:58.510|56=TRAX|10=162|8=FIXT.1.1|9=69|35=0|34=518|49=HEMATRAXRTS27QA2_PUB|52=20180625-15:26:29.509|56=TRAX|10=170|8=FIXT.1.1|9=69|35=0|34=519|49=HEMATRAXRTS27QA2_PUB|52=20180625-15:27:00.516|56=TRAX|10=159|8=FIXT.1.1|9=69|35=0|34=520|49=HEMATRAXRTS27QA2_PUB|52=20180625-15:27:31.511|56=TRAX|10=150|8=FIXT.1.1|9=69|35=0|34=521|49=HEMATRAXRTS27QA2_PUB|52=20180625-15:28:02.516|56=TRAX|10=155|8=FIXT.1.1|9=69|35=0|34=522|49=HEMATRAXRTS27QA2_PUB|52=20180625-15:28:33.508|56=TRAX|10=161|8=FIXT.1.1|9=69|35=0|34=523|49=HEMATRAXRTS27QA2_PUB|52=20180625-15:29:03.514|56=TRAX|10=157|8=FIXT.1.1|9=69|35=0|34=524|49=HEMATRAXRTS27QA2_PUB|52=20180625-15:29:34.515|56=TRAX|10=163|8=FIXT.1.1|9=69|35=0|34=525|49=HEMATRAXRTS27QA2_PUB|52=20180625-15:30:05.507|56=TRAX|10=155|8=FIXT.1.1|9=69|35=0|34=526|49=HEMATRAXRTS27QA2_PUB|52=20180625-15:30:35.511|56=TRAX|10=154|8=FIXT.1.1|9=69|35=0|34=527|49=HEMATRAXRTS27QA2_PUB|52=20180625-15:31:06.508|56=TRAX|10=160|8=FIXT.1.1|9=69|35=0|34=528|49=HEMATRAXRTS27QA2_PUB|52=20180625-15:31:37.505|56=TRAX|10=162|8=FIXT.1.1|9=69|35=0|34=529|49=HEMATRAXRTS27QA2_PUB|52=20180625-15:32:07.511|56=TRAX|10=158|8=FIXT.1.1|9=69|35=0|34=530|49=HEMATRAXRTS27QA2_PUB|52=20180625-15:32:38.500|56=TRAX|10=152|8=FIXT.1.1|9=69|35=0|34=531|49=HEMATRAXRTS27QA2_PUB|52=20180625-15:33:08.510|56=TRAX|10=152|8=FIXT.1.1|9=69|35=0|34=532|49=HEMATRAXRTS27QA2_PUB|52=20180625-15:33:38.511|56=TRAX|10=157|8=FIXT.1.1|9=69|35=0|34=533|49=HEMATRAXRTS27QA2_PUB|52=20180625-15:34:09.505|56=TRAX|10=160|8=FIXT.1.1|9=69|35=0|34=534|49=HEMATRAXRTS27QA2_PUB|52=20180625-15:34:40.508|56=TRAX|10=159|8=FIXT.1.1|9=69|35=0|34=535|49=HEMATRAXRTS27QA2_PUB|52=20180625-15:35:11.502|56=TRAX|10=153|8=FIXT.1.1|9=69|35=0|34=536|49=HEMATRAXRTS27QA2_PUB|52=20180625-15:35:41.509|56=TRAX|10=164|8=FIXT.1.1|9=69|35=0|34=537|49=HEMATRAXRTS27QA2_PUB|52=20180625-15:36:11.540|56=TRAX|10=158|8=FIXT.1.1|9=69|35=0|34=538|49=HEMATRAXRTS27QA2_PUB|52=20180625-15:36:42.502|56=TRAX|10=161|8=FIXT.1.1|9=69|35=0|34=539|49=HEMATRAXRTS27QA2_PUB|52=20180625-15:37:13.502|56=TRAX|10=161|8=FIXT.1.1|9=69|35=0|34=540|49=HEMATRAXRTS27QA2_PUB|52=20180625-15:37:44.503|56=TRAX|10=158|8=FIXT.1.1|9=69|35=0|34=541|49=HEMATRAXRTS27QA2_PUB|52=20180625-15:38:14.506|56=TRAX|10=160|8=FIXT.1.1|9=69|35=0|34=542|49=HEMATRAXRTS27QA2_PUB|52=20180625-15:38:45.500|56=TRAX|10=159|8=FIXT.1.1|9=69|35=0|34=543|49=HEMATRAXRTS27QA2_PUB|52=20180625-15:39:16.500|56=TRAX|10=159|8=FIXT.1.1|9=69|35=0|34=544|49=HEMATRAXRTS27QA2_PUB|52=20180625-15:39:46.507|56=TRAX|10=170|8=FIXT.1.1|9=69|35=0|34=545|49=HEMATRAXRTS27QA2_PUB|52=20180625-15:40:16.813|56=TRAX|10=160|8=FIXT.1.1|9=69|35=0|34=546|49=HEMATRAXRTS27QA2_PUB|52=20180625-15:40:47.503|56=TRAX|10=161|8=FIXT.1.1|9=69|35=0|34=547|49=HEMATRAXRTS27QA2_PUB|52=20180625-15:41:18.492|56=TRAX|10=168|8=FIXT.1.1|9=69|35=0|34=548|49=HEMATRAXRTS27QA2_PUB|52=20180625-15:41:48.496|56=TRAX|10=176|8=FIXT.1.1|9=69|35=0|34=549|49=HEMATRAXRTS27QA2_PUB|52=20180625-15:42:18.503|56=TRAX|10=164|8=FIXT.1.1|9=69|35=0|34=550|49=HEMATRAXRTS27QA2_PUB|52=20180625-15:42:49.504|56=TRAX|10=161|8=FIXT.1.1|9=69|35=0|34=551|49=HEMATRAXRTS27QA2_PUB|52=20180625-15:43:20.495|56=TRAX|10=161|8=FIXT.1.1|9=69|35=0|34=552|49=HEMATRAXRTS27QA2_PUB|52=20180625-15:43:50.503|56=TRAX|10=155|8=FIXT.1.1|9=69|35=0|34=553|49=HEMATRAXRTS27QA2_PUB|52=20180625-15:44:21.496|56=TRAX|10=166|8=FIXT.1.1|9=69|35=0|34=554|49=HEMATRAXRTS27QA2_PUB|52=20180625-15:44:51.502|56=TRAX|10=158|8=FIXT.1.1|9=69|35=0|34=555|49=HEMATRAXRTS27QA2_PUB|52=20180625-15:45:22.501|56=TRAX|10=157|8=FIXT.1.1|9=69|35=0|34=556|49=HEMATRAXRTS27QA2_PUB|52=20180625-15:45:53.496|56=TRAX|10=175|8=FIXT.1.1|9=69|35=0|34=557|49=HEMATRAXRTS27QA2_PUB|52=20180625-15:46:24.487|56=TRAX|10=175|8=FIXT.1.1|9=69|35=0|34=558|49=HEMATRAXRTS27QA2_PUB|52=20180625-15:46:54.498|56=TRAX|10=181|8=FIXT.1.1|9=69|35=0|34=559|49=HEMATRAXRTS27QA2_PUB|52=20180625-15:47:25.498|56=TRAX|10=181|8=FIXT.1.1|9=69|35=0|34=560|49=HEMATRAXRTS27QA2_PUB|52=20180625-15:47:56.498|56=TRAX|10=177|8=FIXT.1.1|9=69|35=0|34=561|49=HEMATRAXRTS27QA2_PUB|52=20180625-15:48:27.497|56=TRAX|10=176|8=FIXT.1.1|9=69|35=0|34=562|49=HEMATRAXRTS27QA2_PUB|52=20180625-15:48:58.496|56=TRAX|10=180|8=FIXT.1.1|9=69|35=0|34=563|49=HEMATRAXRTS27QA2_PUB|52=20180625-15:49:29.492|56=TRAX|10=176|8=FIXT.1.1|9=69|35=0|34=564|49=HEMATRAXRTS27QA2_PUB|52=20180625-15:49:59.495|56=TRAX|10=183|8=FIXT.1.1|9=69|35=0|34=565|49=HEMATRAXRTS27QA2_PUB|52=20180625-15:50:30.486|56=TRAX|10=165|8=FIXT.1.1|9=69|35=0|34=566|49=HEMATRAXRTS27QA2_PUB|52=20180625-15:51:00.493|56=TRAX|10=162|8=FIXT.1.1|9=69|35=0|34=567|49=HEMATRAXRTS27QA2_PUB|52=20180625-15:51:31.497|56=TRAX|10=171|8=FIXT.1.1|9=69|35=0|34=568|49=HEMATRAXRTS27QA2_PUB|52=20180625-15:52:02.497|56=TRAX|10=171|8=FIXT.1.1|9=69|35=0|34=569|49=HEMATRAXRTS27QA2_PUB|52=20180625-15:52:33.490|56=TRAX|10=169|8=FIXT.1.1|9=69|35=0|34=570|49=HEMATRAXRTS27QA2_PUB|52=20180625-15:53:04.482|56=TRAX|10=161|8=FIXT.1.1|9=69|35=0|34=571|49=HEMATRAXRTS27QA2_PUB|52=20180625-15:53:34.494|56=TRAX|10=168|8=FIXT.1.1|9=69|35=0|34=572|49=HEMATRAXRTS27QA2_PUB|52=20180625-15:54:04.495|56=TRAX|10=168|8=FIXT.1.1|9=69|35=0|34=573|49=HEMATRAXRTS27QA2_PUB|52=20180625-15:54:35.485|56=TRAX|10=172|8=FIXT.1.1|9=69|35=0|34=574|49=HEMATRAXRTS27QA2_PUB|52=20180625-15:55:05.488|56=TRAX|10=174|8=FIXT.1.1|9=69|35=0|34=575|49=HEMATRAXRTS27QA2_PUB|52=20180625-15:55:36.489|56=TRAX|10=180|8=FIXT.1.1|9=69|35=0|34=576|49=HEMATRAXRTS27QA2_PUB|52=20180625-15:56:07.493|56=TRAX|10=175|8=FIXT.1.1|9=69|35=0|34=577|49=HEMATRAXRTS27QA2_PUB|52=20180625-15:56:38.493|56=TRAX|10=180|8=FIXT.1.1|9=69|35=0|34=578|49=HEMATRAXRTS27QA2_PUB|52=20180625-15:57:09.494|56=TRAX|10=181|8=FIXT.1.1|9=69|35=0|34=579|49=HEMATRAXRTS27QA2_PUB|52=20180625-15:57:40.479|56=TRAX|10=180|8=FIXT.1.1|9=69|35=0|34=580|49=HEMATRAXRTS27QA2_PUB|52=20180625-15:58:10.483|56=TRAX|10=165|8=FIXT.1.1|9=69|35=0|34=581|49=HEMATRAXRTS27QA2_PUB|52=20180625-15:58:41.486|56=TRAX|10=173|8=FIXT.1.1|9=69|35=0|34=582|49=HEMATRAXRTS27QA2_PUB|52=20180625-15:59:12.481|56=TRAX|10=168|8=FIXT.1.1|9=69|35=0|34=583|49=HEMATRAXRTS27QA2_PUB|52=20180625-15:59:42.488|56=TRAX|10=179|8=FIXT.1.1|9=69|35=0|34=584|49=HEMATRAXRTS27QA2_PUB|52=20180625-16:00:13.490|56=TRAX|10=158|8=FIXT.1.1|9=69|35=0|34=585|49=HEMATRAXRTS27QA2_PUB|52=20180625-16:00:43.491|56=TRAX|10=163|8=FIXT.1.1|9=69|35=0|34=586|49=HEMATRAXRTS27QA2_PUB|52=20180625-16:01:14.486|56=TRAX|10=167|8=FIXT.1.1|9=69|35=0|34=587|49=HEMATRAXRTS27QA2_PUB|52=20180625-16:01:45.491|56=TRAX|10=168|8=FIXT.1.1|9=69|35=0|34=588|49=HEMATRAXRTS27QA2_PUB|52=20180625-16:02:16.490|56=TRAX|10=167|8=FIXT.1.1|9=69|35=0|34=589|49=HEMATRAXRTS27QA2_PUB|52=20180625-16:02:47.478|56=TRAX|10=178|8=FIXT.1.1|9=69|35=0|34=590|49=HEMATRAXRTS27QA2_PUB|52=20180625-16:03:17.484|56=TRAX|10=165|8=FIXT.1.1|9=69|35=0|34=591|49=HEMATRAXRTS27QA2_PUB|52=20180625-16:03:47.488|56=TRAX|10=173|8=FIXT.1.1|9=69|35=0|34=592|49=HEMATRAXRTS27QA2_PUB|52=20180625-16:04:17.796|56=TRAX|10=174|8=FIXT.1.1|9=69|35=0|34=593|49=HEMATRAXRTS27QA2_PUB|52=20180625-16:04:47.797|56=TRAX|10=179|8=FIXT.1.1|9=69|35=0|34=594|49=HEMATRAXRTS27QA2_PUB|52=20180625-16:05:17.801|56=TRAX|10=164|8=FIXT.1.1|9=69|35=0|34=595|49=HEMATRAXRTS27QA2_PUB|52=20180625-16:05:48.479|56=TRAX|10=180|8=FIXT.1.1|9=69|35=0|34=596|49=HEMATRAXRTS27QA2_PUB|52=20180625-16:06:18.480|56=TRAX|10=171|8=FIXT.1.1|9=69|35=0|34=597|49=HEMATRAXRTS27QA2_PUB|52=20180625-16:06:48.480|56=TRAX|10=175|8=FIXT.1.1|9=69|35=0|34=598|49=HEMATRAXRTS27QA2_PUB|52=20180625-16:07:18.481|56=TRAX|10=175|8=FIXT.1.1|9=69|35=0|34=599|49=HEMATRAXRTS27QA2_PUB|52=20180625-16:07:48.482|56=TRAX|10=180|8=FIXT.1.1|9=69|35=0|34=600|49=HEMATRAXRTS27QA2_PUB|52=20180625-16:08:18.482|56=TRAX|10=161|8=FIXT.1.1|9=69|35=0|34=601|49=HEMATRAXRTS27QA2_PUB|52=20180625-16:08:48.483|56=TRAX|10=166|8=FIXT.1.1|9=69|35=0|34=602|49=HEMATRAXRTS27QA2_PUB|52=20180625-16:09:18.484|56=TRAX|10=166|8=FIXT.1.1|9=69|35=0|34=603|49=HEMATRAXRTS27QA2_PUB|52=20180625-16:09:49.483|56=TRAX|10=170|8=FIXT.1.1|9=69|35=0|34=604|49=HEMATRAXRTS27QA2_PUB|52=20180625-16:10:20.480|56=TRAX|10=149|8=FIXT.1.1|9=69|35=0|34=605|49=HEMATRAXRTS27QA2_PUB|52=20180625-16:10:50.483|56=TRAX|10=156|8=FIXT.1.1|9=69|35=0|34=606|49=HEMATRAXRTS27QA2_PUB|52=20180625-16:11:20.483|56=TRAX|10=155|8=FIXT.1.1|9=69|35=0|34=607|49=HEMATRAXRTS27QA2_PUB|52=20180625-16:11:51.481|56=TRAX|10=158|8=FIXT.1.1|9=69|35=0|34=608|49=HEMATRAXRTS27QA2_PUB|52=20180625-16:12:21.483|56=TRAX|10=159|8=FIXT.1.1|9=69|35=0|34=609|49=HEMATRAXRTS27QA2_PUB|52=20180625-16:12:52.486|56=TRAX|10=167|8=FIXT.1.1|9=69|35=0|34=610|49=HEMATRAXRTS27QA2_PUB|52=20180625-16:13:23.477|56=TRAX|10=158|8=FIXT.1.1|9=69|35=0|34=611|49=HEMATRAXRTS27QA2_PUB|52=20180625-16:13:53.480|56=TRAX|10=156|8=FIXT.1.1|9=69|35=0|34=612|49=HEMATRAXRTS27QA2_PUB|52=20180625-16:14:24.476|56=TRAX|10=161|8=FIXT.1.1|9=69|35=0|34=613|49=HEMATRAXRTS27QA2_PUB|52=20180625-16:14:54.480|56=TRAX|10=160|8=FIXT.1.1|9=69|35=0|34=614|49=HEMATRAXRTS27QA2_PUB|52=20180625-16:15:24.485|56=TRAX|10=164|8=FIXT.1.1|9=69|35=0|34=615|49=HEMATRAXRTS27QA2_PUB|52=20180625-16:15:55.484|56=TRAX|10=168|8=FIXT.1.1|9=69|35=0|34=616|49=HEMATRAXRTS27QA2_PUB|52=20180625-16:16:26.473|56=TRAX|10=166|8=FIXT.1.1|9=69|35=0|34=617|49=HEMATRAXRTS27QA2_PUB|52=20180625-16:16:56.474|56=TRAX|10=171|8=FIXT.1.1|9=69|35=0|34=618|49=HEMATRAXRTS27QA2_PUB|52=20180625-16:17:27.476|56=TRAX|10=173|8=FIXT.1.1|9=69|35=0|34=619|49=HEMATRAXRTS27QA2_PUB|52=20180625-16:17:57.479|56=TRAX|10=180|8=FIXT.1.1|9=69|35=0|34=620|49=HEMATRAXRTS27QA2_PUB|52=20180625-16:18:27.483|56=TRAX|10=165|8=FIXT.1.1|9=69|35=0|34=621|49=HEMATRAXRTS27QA2_PUB|52=20180625-16:18:58.480|56=TRAX|10=167|8=FIXT.1.1|9=69|35=0|34=622|49=HEMATRAXRTS27QA2_PUB|52=20180625-16:19:28.483|56=TRAX|10=169|8=FIXT.1.1|9=69|35=0|34=623|49=HEMATRAXRTS27QA2_PUB|52=20180625-16:19:58.483|56=TRAX|10=173|8=FIXT.1.1|9=69|35=0|34=624|49=HEMATRAXRTS27QA2_PUB|52=20180625-16:20:28.485|56=TRAX|10=165|8=FIXT.1.1|9=69|35=0|34=625|49=HEMATRAXRTS27QA2_PUB|52=20180625-16:20:59.482|56=TRAX|10=167|8=FIXT.1.1|9=69|35=0|34=626|49=HEMATRAXRTS27QA2_PUB|52=20180625-16:21:29.482|56=TRAX|10=166|8=FIXT.1.1|9=69|35=0|34=627|49=HEMATRAXRTS27QA2_PUB|52=20180625-16:22:00.482|56=TRAX|10=157|8=FIXT.1.1|9=69|35=0|34=628|49=HEMATRAXRTS27QA2_PUB|52=20180625-16:22:31.479|56=TRAX|10=168|8=FIXT.1.1|9=69|35=0|34=629|49=HEMATRAXRTS27QA2_PUB|52=20180625-16:23:02.473|56=TRAX|10=162|8=FIXT.1.1|9=69|35=0|34=630|49=HEMATRAXRTS27QA2_PUB|52=20180625-16:23:32.480|56=TRAX|10=155|8=FIXT.1.1|9=69|35=0|34=631|49=HEMATRAXRTS27QA2_PUB|52=20180625-16:24:02.480|56=TRAX|10=154|8=FIXT.1.1|9=69|35=0|34=632|49=HEMATRAXRTS27QA2_PUB|52=20180625-16:24:33.477|56=TRAX|10=165|8=FIXT.1.1|9=69|35=0|34=633|49=HEMATRAXRTS27QA2_PUB|52=20180625-16:25:03.480|56=TRAX|10=158|8=FIXT.1.1|9=69|35=0|34=634|49=HEMATRAXRTS27QA2_PUB|52=20180625-16:25:34.482|56=TRAX|10=165|8=FIXT.1.1|9=69|35=0|34=635|49=HEMATRAXRTS27QA2_PUB|52=20180625-16:26:05.476|56=TRAX|10=168|8=FIXT.1.1|9=69|35=0|34=636|49=HEMATRAXRTS27QA2_PUB|52=20180625-16:26:35.483|56=TRAX|10=170|8=FIXT.1.1|9=69|35=0|34=637|49=HEMATRAXRTS27QA2_PUB|52=20180625-16:27:06.469|56=TRAX|10=174|8=FIXT.1.1|9=69|35=0|34=638|49=HEMATRAXRTS27QA2_PUB|52=20180625-16:27:36.480|56=TRAX|10=171|8=FIXT.1.1|9=69|35=0|34=639|49=HEMATRAXRTS27QA2_PUB|52=20180625-16:28:07.468|56=TRAX|10=177|8=FIXT.1.1|9=69|35=0|34=640|49=HEMATRAXRTS27QA2_PUB|52=20180625-16:28:37.470|56=TRAX|10=165|8=FIXT.1.1|9=69|35=0|34=641|49=HEMATRAXRTS27QA2_PUB|52=20180625-16:29:07.472|56=TRAX|10=166|8=FIXT.1.1|9=69|35=0|34=642|49=HEMATRAXRTS27QA2_PUB|52=20180625-16:29:37.474|56=TRAX|10=172|8=FIXT.1.1|9=69|35=0|34=643|49=HEMATRAXRTS27QA2_PUB|52=20180625-16:30:07.479|56=TRAX|10=167|8=FIXT.1.1|9=69|35=0|34=644|49=HEMATRAXRTS27QA2_PUB|52=20180625-16:30:38.471|56=TRAX|10=164|8=FIXT.1.1|9=69|35=0|34=645|49=HEMATRAXRTS27QA2_PUB|52=20180625-16:31:08.477|56=TRAX|10=169|8=FIXT.1.1|9=69|35=0|34=646|49=HEMATRAXRTS27QA2_PUB|52=20180625-16:31:39.467|56=TRAX|10=173|8=FIXT.1.1|9=69|35=0|34=647|49=HEMATRAXRTS27QA2_PUB|52=20180625-16:32:09.473|56=TRAX|10=169|8=FIXT.1.1|9=69|35=0|34=648|49=HEMATRAXRTS27QA2_PUB|52=20180625-16:32:40.466|56=TRAX|10=167|8=FIXT.1.1|9=69|35=0|34=649|49=HEMATRAXRTS27QA2_PUB|52=20180625-16:33:10.473|56=TRAX|10=164|8=FIXT.1.1|9=69|35=0|34=650|49=HEMATRAXRTS27QA2_PUB|52=20180625-16:33:40.478|56=TRAX|10=164|8=FIXT.1.1|9=69|35=0|34=651|49=HEMATRAXRTS27QA2_PUB|52=20180625-16:34:10.480|56=TRAX|10=156|8=FIXT.1.1|9=69|35=0|34=652|49=HEMATRAXRTS27QA2_PUB|52=20180625-16:34:41.477|56=TRAX|10=167|8=FIXT.1.1|9=69|35=0|34=653|49=HEMATRAXRTS27QA2_PUB|52=20180625-16:35:12.477|56=TRAX|10=167|8=FIXT.1.1|9=69|35=0|34=654|49=HEMATRAXRTS27QA2_PUB|52=20180625-16:35:43.477|56=TRAX|10=172|8=FIXT.1.1|9=69|35=0|34=655|49=HEMATRAXRTS27QA2_PUB|52=20180625-16:36:14.476|56=TRAX|10=171|8=FIXT.1.1|9=69|35=0|34=656|49=HEMATRAXRTS27QA2_PUB|52=20180625-16:36:45.472|56=TRAX|10=172|8=FIXT.1.1|9=69|35=0|34=657|49=HEMATRAXRTS27QA2_PUB|52=20180625-16:37:15.472|56=TRAX|10=171|8=FIXT.1.1|9=69|35=0|34=658|49=HEMATRAXRTS27QA2_PUB|52=20180625-16:37:45.472|56=TRAX|10=175|8=FIXT.1.1|9=69|35=0|34=659|49=HEMATRAXRTS27QA2_PUB|52=20180625-16:38:16.471|56=TRAX|10=174|8=FIXT.1.1|9=69|35=0|34=660|49=HEMATRAXRTS27QA2_PUB|52=20180625-16:38:46.473|56=TRAX|10=171|8=FIXT.1.1|9=69|35=0|34=661|49=HEMATRAXRTS27QA2_PUB|52=20180625-16:39:17.478|56=TRAX|10=176|8=FIXT.1.1|9=69|35=0|34=662|49=HEMATRAXRTS27QA2_PUB|52=20180625-16:39:47.801|56=TRAX|10=170|8=FIXT.1.1|9=69|35=0|34=663|49=HEMATRAXRTS27QA2_PUB|52=20180625-16:40:18.469|56=TRAX|10=171|8=FIXT.1.1|9=69|35=0|34=664|49=HEMATRAXRTS27QA2_PUB|52=20180625-16:40:48.472|56=TRAX|10=169|8=FIXT.1.1|9=69|35=0|34=665|49=HEMATRAXRTS27QA2_PUB|52=20180625-16:41:19.464|56=TRAX|10=170|8=FIXT.1.1|9=69|35=0|34=666|49=HEMATRAXRTS27QA2_PUB|52=20180625-16:41:49.470|56=TRAX|10=171|8=FIXT.1.1|9=69|35=0|34=667|49=HEMATRAXRTS27QA2_PUB|52=20180625-16:42:20.475|56=TRAX|10=167|8=FIXT.1.1|9=69|35=0|34=668|49=HEMATRAXRTS27QA2_PUB|52=20180625-16:42:51.469|56=TRAX|10=175|8=FIXT.1.1|9=69|35=0|34=669|49=HEMATRAXRTS27QA2_PUB|52=20180625-16:43:21.471|56=TRAX|10=167|8=FIXT.1.1|9=69|35=0|34=670|49=HEMATRAXRTS27QA2_PUB|52=20180625-16:43:51.475|56=TRAX|10=166|8=FIXT.1.1|9=69|35=0|34=671|49=HEMATRAXRTS27QA2_PUB|52=20180625-16:44:22.465|56=TRAX|10=165|8=FIXT.1.1|9=69|35=0|34=672|49=HEMATRAXRTS27QA2_PUB|52=20180625-16:44:52.474|56=TRAX|10=169|8=FIXT.1.1|9=69|35=0|34=673|49=HEMATRAXRTS27QA2_PUB|52=20180625-16:45:23.463|56=TRAX|10=167|8=FIXT.1.1|9=69|35=0|34=674|49=HEMATRAXRTS27QA2_PUB|52=20180625-16:45:53.470|56=TRAX|10=169|8=FIXT.1.1|9=69|35=0|34=675|49=HEMATRAXRTS27QA2_PUB|52=20180625-16:46:23.472|56=TRAX|10=170|8=FIXT.1.1|9=69|35=0|34=676|49=HEMATRAXRTS27QA2_PUB|52=20180625-16:46:54.475|56=TRAX|10=178|8=FIXT.1.1|9=69|35=0|34=677|49=HEMATRAXRTS27QA2_PUB|52=20180625-16:47:25.470|56=TRAX|10=173|8=FIXT.1.1|9=69|35=0|34=678|49=HEMATRAXRTS27QA2_PUB|52=20180625-16:47:56.468|56=TRAX|10=185|8=FIXT.1.1|9=69|35=0|34=679|49=HEMATRAXRTS27QA2_PUB|52=20180625-16:48:26.472|56=TRAX|10=179|8=FIXT.1.1|9=69|35=0|34=680|49=HEMATRAXRTS27QA2_PUB|52=20180625-16:48:57.469|56=TRAX|10=181|8=FIXT.1.1|9=69|35=0|34=681|49=HEMATRAXRTS27QA2_PUB|52=20180625-16:49:27.475|56=TRAX|10=177|8=FIXT.1.1|9=69|35=0|34=682|49=HEMATRAXRTS27QA2_PUB|52=20180625-16:49:58.468|56=TRAX|10=184|8=FIXT.1.1|9=69|35=0|34=683|49=HEMATRAXRTS27QA2_PUB|52=20180625-16:50:28.473|56=TRAX|10=170|8=FIXT.1.1|9=69|35=0|34=684|49=HEMATRAXRTS27QA2_PUB|52=20180625-16:50:59.461|56=TRAX|10=172|8=FIXT.1.1|9=69|35=0|34=685|49=HEMATRAXRTS27QA2_PUB|52=20180625-16:51:29.468|56=TRAX|10=178|8=FIXT.1.1|9=69|35=0|34=686|49=HEMATRAXRTS27QA2_PUB|52=20180625-16:52:00.475|56=TRAX|10=167|8=FIXT.1.1|9=69|35=0|34=687|49=HEMATRAXRTS27QA2_PUB|52=20180625-16:52:31.473|56=TRAX|10=170|8=FIXT.1.1|9=69|35=0|34=688|49=HEMATRAXRTS27QA2_PUB|52=20180625-16:53:02.474|56=TRAX|10=171|8=FIXT.1.1|9=69|35=0|34=689|49=HEMATRAXRTS27QA2_PUB|52=20180625-16:53:33.468|56=TRAX|10=179|8=FIXT.1.1|9=69|35=0|34=690|49=HEMATRAXRTS27QA2_PUB|52=20180625-16:54:04.466|56=TRAX|10=168|8=FIXT.1.1|9=69|35=0|34=691|49=HEMATRAXRTS27QA2_PUB|52=20180625-16:54:34.473|56=TRAX|10=170|8=FIXT.1.1|9=69|35=0|34=692|49=HEMATRAXRTS27QA2_PUB|52=20180625-16:55:05.466|56=TRAX|10=172|8=FIXT.1.1|9=69|35=0|34=693|49=HEMATRAXRTS27QA2_PUB|52=20180625-16:55:35.469|56=TRAX|10=179|8=FIXT.1.1|9=69|35=0|34=694|49=HEMATRAXRTS27QA2_PUB|52=20180625-16:56:06.473|56=TRAX|10=174|8=FIXT.1.1|9=69|35=0|34=695|49=HEMATRAXRTS27QA2_PUB|52=20180625-16:56:37.471|56=TRAX|10=177|8=FIXT.1.1|9=69|35=0|34=696|49=HEMATRAXRTS27QA2_PUB|52=20180625-16:57:08.470|56=TRAX|10=176|8=FIXT.1.1|9=69|35=0|34=697|49=HEMATRAXRTS27QA2_PUB|52=20180625-16:57:38.472|56=TRAX|10=182|8=FIXT.1.1|9=69|35=0|34=698|49=HEMATRAXRTS27QA2_PUB|52=20180625-16:58:09.466|56=TRAX|10=185|8=FIXT.1.1|9=69|35=0|34=699|49=HEMATRAXRTS27QA2_PUB|52=20180625-16:58:40.458|56=TRAX|10=182|8=FIXT.1.1|9=69|35=0|34=700|49=HEMATRAXRTS27QA2_PUB|52=20180625-16:59:10.466|56=TRAX|10=162|8=FIXT.1.1|9=69|35=0|34=701|49=HEMATRAXRTS27QA2_PUB|52=20180625-16:59:41.465|56=TRAX|10=166|8=FIXT.1.1|9=69|35=0|34=702|49=HEMATRAXRTS27QA2_PUB|52=20180625-17:00:12.457|56=TRAX|10=153|8=FIXT.1.1|9=69|35=0|34=703|49=HEMATRAXRTS27QA2_PUB|52=20180625-17:00:42.468|56=TRAX|10=159|8=FIXT.1.1|9=69|35=0|34=704|49=HEMATRAXRTS27QA2_PUB|52=20180625-17:01:12.470|56=TRAX|10=151|8=FIXT.1.1|9=69|35=0|34=705|49=HEMATRAXRTS27QA2_PUB|52=20180625-17:01:43.468|56=TRAX|10=163|8=FIXT.1.1|9=69|35=0|34=706|49=HEMATRAXRTS27QA2_PUB|52=20180625-17:02:14.460|56=TRAX|10=155|8=FIXT.1.1|9=69|35=0|34=707|49=HEMATRAXRTS27QA2_PUB|52=20180625-17:02:44.464|56=TRAX|10=163|8=FIXT.1.1|9=69|35=0|34=708|49=HEMATRAXRTS27QA2_PUB|52=20180625-17:03:14.469|56=TRAX|10=167|8=FIXT.1.1|9=69|35=0|34=709|49=HEMATRAXRTS27QA2_PUB|52=20180625-17:03:45.463|56=TRAX|10=166|8=FIXT.1.1|9=69|35=0|34=710|49=HEMATRAXRTS27QA2_PUB|52=20180625-17:04:15.466|56=TRAX|10=159|8=FIXT.1.1|9=69|35=0|34=711|49=HEMATRAXRTS27QA2_PUB|52=20180625-17:04:46.456|56=TRAX|10=163|8=FIXT.1.1|9=69|35=0|34=712|49=HEMATRAXRTS27QA2_PUB|52=20180625-17:05:16.466|56=TRAX|10=163|8=FIXT.1.1|9=69|35=0|34=713|49=HEMATRAXRTS27QA2_PUB|52=20180625-17:05:47.463|56=TRAX|10=165|8=FIXT.1.1|9=69|35=0|34=714|49=HEMATRAXRTS27QA2_PUB|52=20180625-17:06:17.800|56=TRAX|10=159|8=FIXT.1.1|9=69|35=0|34=715|49=HEMATRAXRTS27QA2_PUB|52=20180625-17:06:47.800|56=TRAX|10=163|8=FIXT.1.1|9=69|35=0|34=716|49=HEMATRAXRTS27QA2_PUB|52=20180625-17:07:17.806|56=TRAX|10=168|8=FIXT.1.1|9=69|35=0|34=717|49=HEMATRAXRTS27QA2_PUB|52=20180625-17:07:47.806|56=TRAX|10=172|8=FIXT.1.1|9=69|35=0|34=718|49=HEMATRAXRTS27QA2_PUB|52=20180625-17:08:18.461|56=TRAX|10=169|8=FIXT.1.1|9=69|35=0|34=719|49=HEMATRAXRTS27QA2_PUB|52=20180625-17:08:49.462|56=TRAX|10=175|8=FIXT.1.1|9=69|35=0|34=720|49=HEMATRAXRTS27QA2_PUB|52=20180625-17:09:19.465|56=TRAX|10=168|8=FIXT.1.1|9=69|35=0|34=721|49=HEMATRAXRTS27QA2_PUB|52=20180625-17:09:50.468|56=TRAX|10=167|8=FIXT.1.1|9=69|35=0|34=722|49=HEMATRAXRTS27QA2_PUB|52=20180625-17:10:21.461|56=TRAX|10=151|8=FIXT.1.1|9=69|35=0|34=723|49=HEMATRAXRTS27QA2_PUB|52=20180625-17:10:51.464|56=TRAX|10=158|8=FIXT.1.1|9=69|35=0|34=724|49=HEMATRAXRTS27QA2_PUB|52=20180625-17:11:22.455|56=TRAX|10=158|8=FIXT.1.1|9=69|35=0|34=725|49=HEMATRAXRTS27QA2_PUB|52=20180625-17:11:52.462|56=TRAX|10=160|8=FIXT.1.1|9=69|35=0|34=726|49=HEMATRAXRTS27QA2_PUB|52=20180625-17:12:22.463|56=TRAX|10=160|8=FIXT.1.1|9=69|35=0|34=727|49=HEMATRAXRTS27QA2_PUB|52=20180625-17:12:52.464|56=TRAX|10=165|8=FIXT.1.1|9=69|35=0|34=728|49=HEMATRAXRTS27QA2_PUB|52=20180625-17:13:23.455|56=TRAX|10=165|8=FIXT.1.1|9=69|35=0|34=729|49=HEMATRAXRTS27QA2_PUB|52=20180625-17:13:53.461|56=TRAX|10=166|8=FIXT.1.1|9=69|35=0|34=730|49=HEMATRAXRTS27QA2_PUB|52=20180625-17:14:24.457|56=TRAX|10=162|8=FIXT.1.1|9=69|35=0|34=731|49=HEMATRAXRTS27QA2_PUB|52=20180625-17:14:54.466|56=TRAX|10=166|8=FIXT.1.1|9=69|35=0|34=732|49=HEMATRAXRTS27QA2_PUB|52=20180625-17:15:25.459|56=TRAX|10=168|8=FIXT.1.1|9=69|35=0|34=733|49=HEMATRAXRTS27QA2_PUB|52=20180625-17:15:55.463|56=TRAX|10=167|8=FIXT.1.1|9=69|35=0|34=734|49=HEMATRAXRTS27QA2_PUB|52=20180625-17:16:26.458|56=TRAX|10=171|8=FIXT.1.1|9=69|35=0|34=735|49=HEMATRAXRTS27QA2_PUB|52=20180625-17:16:57.460|56=TRAX|10=169|8=FIXT.1.1|9=69|35=0|34=736|49=HEMATRAXRTS27QA2_PUB|52=20180625-17:17:27.461|56=TRAX|10=169|8=FIXT.1.1|9=69|35=0|34=737|49=HEMATRAXRTS27QA2_PUB|52=20180625-17:17:58.464|56=TRAX|10=177|8=FIXT.1.1|9=69|35=0|34=738|49=HEMATRAXRTS27QA2_PUB|52=20180625-17:18:29.457|56=TRAX|10=179|8=FIXT.1.1|9=69|35=0|34=739|49=HEMATRAXRTS27QA2_PUB|52=20180625-17:19:00.453|56=TRAX|10=166|8=FIXT.1.1|9=69|35=0|34=740|49=HEMATRAXRTS27QA2_PUB|52=20180625-17:19:30.460|56=TRAX|10=159|8=FIXT.1.1|9=69|35=0|34=741|49=HEMATRAXRTS27QA2_PUB|52=20180625-17:20:01.458|56=TRAX|10=157|8=FIXT.1.1|9=69|35=0|34=742|49=HEMATRAXRTS27QA2_PUB|52=20180625-17:20:32.450|56=TRAX|10=154|8=FIXT.1.1|9=69|35=0|34=743|49=HEMATRAXRTS27QA2_PUB|52=20180625-17:21:02.450|56=TRAX|10=153|8=FIXT.1.1|9=69|35=0|34=744|49=HEMATRAXRTS27QA2_PUB|52=20180625-17:21:32.453|56=TRAX|10=160|8=FIXT.1.1|9=69|35=0|34=745|49=HEMATRAXRTS27QA2_PUB|52=20180625-17:22:02.457|56=TRAX|10=163|8=FIXT.1.1|9=69|35=0|34=746|49=HEMATRAXRTS27QA2_PUB|52=20180625-17:22:33.456|56=TRAX|10=167|8=FIXT.1.1|9=69|35=0|34=747|49=HEMATRAXRTS27QA2_PUB|52=20180625-17:23:03.461|56=TRAX|10=162|8=FIXT.1.1|9=69|35=0|34=748|49=HEMATRAXRTS27QA2_PUB|52=20180625-17:23:34.450|56=TRAX|10=165|8=FIXT.1.1|9=69|35=0|34=749|49=HEMATRAXRTS27QA2_PUB|52=20180625-17:24:04.455|56=TRAX|10=169|8=FIXT.1.1|9=69|35=0|34=750|49=HEMATRAXRTS27QA2_PUB|52=20180625-17:24:34.456|56=TRAX|10=165|8=FIXT.1.1|9=69|35=0|34=751|49=HEMATRAXRTS27QA2_PUB|52=20180625-17:25:04.462|56=TRAX|10=161|8=FIXT.1.1|9=69|35=0|34=752|49=HEMATRAXRTS27QA2_PUB|52=20180625-17:25:35.449|56=TRAX|10=171|8=FIXT.1.1|9=69|35=0|34=753|49=HEMATRAXRTS27QA2_PUB|52=20180625-17:26:05.455|56=TRAX|10=167|8=FIXT.1.1|9=69|35=0|34=754|49=HEMATRAXRTS27QA2_PUB|52=20180625-17:26:35.458|56=TRAX|10=174|8=FIXT.1.1|9=69|35=0|34=755|49=HEMATRAXRTS27QA2_PUB|52=20180625-17:27:06.459|56=TRAX|10=175|8=FIXT.1.1|9=69|35=0|34=756|49=HEMATRAXRTS27QA2_PUB|52=20180625-17:27:36.462|56=TRAX|10=173|8=FIXT.1.1|9=69|35=0|34=757|49=HEMATRAXRTS27QA2_PUB|52=20180625-17:28:07.458|56=TRAX|10=178|8=FIXT.1.1|9=69|35=0|34=758|49=HEMATRAXRTS27QA2_PUB|52=20180625-17:28:38.447|56=TRAX|10=181|8=FIXT.1.1|9=69|35=0|34=759|49=HEMATRAXRTS27QA2_PUB|52=20180625-17:29:08.457|56=TRAX|10=181|8=FIXT.1.1|9=69|35=0|34=760|49=HEMATRAXRTS27QA2_PUB|52=20180625-17:29:39.461|56=TRAX|10=172|8=FIXT.1.1|9=69|35=0|34=761|49=HEMATRAXRTS27QA2_PUB|52=20180625-17:30:10.457|56=TRAX|10=159|8=FIXT.1.1|9=69|35=0|34=762|49=HEMATRAXRTS27QA2_PUB|52=20180625-17:30:41.445|56=TRAX|10=161|8=FIXT.1.1|9=69|35=0|34=763|49=HEMATRAXRTS27QA2_PUB|52=20180625-17:31:11.448|56=TRAX|10=163|8=FIXT.1.1|9=69|35=0|34=764|49=HEMATRAXRTS27QA2_PUB|52=20180625-17:31:41.453|56=TRAX|10=163|8=FIXT.1.1|9=69|35=0|34=765|49=HEMATRAXRTS27QA2_PUB|52=20180625-17:32:11.453|56=TRAX|10=162|8=FIXT.1.1|9=69|35=0|34=766|49=HEMATRAXRTS27QA2_PUB|52=20180625-17:32:42.457|56=TRAX|10=171|8=FIXT.1.1|9=69|35=0|34=767|49=HEMATRAXRTS27QA2_PUB|52=20180625-17:33:13.452|56=TRAX|10=166|8=FIXT.1.1|9=69|35=0|34=768|49=HEMATRAXRTS27QA2_PUB|52=20180625-17:33:43.452|56=TRAX|10=170|8=FIXT.1.1|9=69|35=0|34=769|49=HEMATRAXRTS27QA2_PUB|52=20180625-17:34:13.452|56=TRAX|10=169|8=FIXT.1.1|9=69|35=0|34=770|49=HEMATRAXRTS27QA2_PUB|52=20180625-17:34:44.446|56=TRAX|10=168|8=FIXT.1.1|9=69|35=0|34=771|49=HEMATRAXRTS27QA2_PUB|52=20180625-17:35:14.451|56=TRAX|10=163|8=FIXT.1.1|9=69|35=0|34=772|49=HEMATRAXRTS27QA2_PUB|52=20180625-17:35:45.453|56=TRAX|10=170|8=FIXT.1.1|9=69|35=0|34=773|49=HEMATRAXRTS27QA2_PUB|52=20180625-17:36:15.456|56=TRAX|10=172|8=FIXT.1.1|9=69|35=0|34=774|49=HEMATRAXRTS27QA2_PUB|52=20180625-17:36:46.458|56=TRAX|10=179|8=FIXT.1.1|9=69|35=0|34=775|49=HEMATRAXRTS27QA2_PUB|52=20180625-17:37:17.450|56=TRAX|10=171|8=FIXT.1.1|9=69|35=0|34=776|49=HEMATRAXRTS27QA2_PUB|52=20180625-17:37:47.806|56=TRAX|10=180|8=FIXT.1.1|9=69|35=0|34=777|49=HEMATRAXRTS27QA2_PUB|52=20180625-17:38:18.451|56=TRAX|10=176|8=FIXT.1.1|9=69|35=0|34=778|49=HEMATRAXRTS27QA2_PUB|52=20180625-17:38:49.450|56=TRAX|10=180|8=FIXT.1.1|9=69|35=0|34=779|49=HEMATRAXRTS27QA2_PUB|52=20180625-17:39:19.450|56=TRAX|10=179|8=FIXT.1.1|9=69|35=0|34=780|49=HEMATRAXRTS27QA2_PUB|52=20180625-17:39:49.450|56=TRAX|10=174|8=FIXT.1.1|9=69|35=0|34=781|49=HEMATRAXRTS27QA2_PUB|52=20180625-17:40:19.453|56=TRAX|10=167|8=FIXT.1.1|9=69|35=0|34=782|49=HEMATRAXRTS27QA2_PUB|52=20180625-17:40:50.444|56=TRAX|10=163|8=FIXT.1.1|9=69|35=0|34=783|49=HEMATRAXRTS27QA2_PUB|52=20180625-17:41:21.442|56=TRAX|10=161|8=FIXT.1.1|9=69|35=0|34=784|49=HEMATRAXRTS27QA2_PUB|52=20180625-17:41:51.443|56=TRAX|10=166|8=FIXT.1.1|9=69|35=0|34=785|49=HEMATRAXRTS27QA2_PUB|52=20180625-17:42:21.448|56=TRAX|10=170|8=FIXT.1.1|9=69|35=0|34=786|49=HEMATRAXRTS27QA2_PUB|52=20180625-17:42:51.451|56=TRAX|10=168|8=FIXT.1.1|9=69|35=0|34=787|49=HEMATRAXRTS27QA2_PUB|52=20180625-17:43:22.445|56=TRAX|10=171|8=FIXT.1.1|9=69|35=0|34=788|49=HEMATRAXRTS27QA2_PUB|52=20180625-17:43:52.450|56=TRAX|10=171|8=FIXT.1.1|9=69|35=0|34=789|49=HEMATRAXRTS27QA2_PUB|52=20180625-17:44:23.453|56=TRAX|10=174|8=FIXT.1.1|9=69|35=0|34=790|49=HEMATRAXRTS27QA2_PUB|52=20180625-17:44:54.454|56=TRAX|10=171|8=FIXT.1.1|9=69|35=0|34=791|49=HEMATRAXRTS27QA2_PUB|52=20180625-17:45:25.447|56=TRAX|10=173|8=FIXT.1.1|9=69|35=0|34=792|49=HEMATRAXRTS27QA2_PUB|52=20180625-17:45:55.455|56=TRAX|10=176|8=FIXT.1.1|9=69|35=0|34=793|49=HEMATRAXRTS27QA2_PUB|52=20180625-17:46:26.454|56=TRAX|10=175|8=FIXT.1.1|9=69|35=0|34=794|49=HEMATRAXRTS27QA2_PUB|52=20180625-17:46:56.455|56=TRAX|10=180|8=FIXT.1.1|9=69|35=0|34=795|49=HEMATRAXRTS27QA2_PUB|52=20180625-17:47:27.440|56=TRAX|10=174|8=FIXT.1.1|9=69|35=0|34=796|49=HEMATRAXRTS27QA2_PUB|52=20180625-17:47:57.446|56=TRAX|10=184|8=FIXT.1.1|9=69|35=0|34=797|49=HEMATRAXRTS27QA2_PUB|52=20180625-17:48:28.453|56=TRAX|10=182|8=FIXT.1.1|9=69|35=0|34=798|49=HEMATRAXRTS27QA2_PUB|52=20180625-17:48:59.452|56=TRAX|10=186|8=FIXT.1.1|9=69|35=0|34=799|49=HEMATRAXRTS27QA2_PUB|52=20180625-17:49:30.450|56=TRAX|10=175|8=FIXT.1.1|9=69|35=0|34=800|49=HEMATRAXRTS27QA2_PUB|52=20180625-17:50:01.443|56=TRAX|10=150|8=FIXT.1.1|9=69|35=0|34=801|49=HEMATRAXRTS27QA2_PUB|52=20180625-17:50:31.452|56=TRAX|10=154|8=FIXT.1.1|9=69|35=0|34=802|49=HEMATRAXRTS27QA2_PUB|52=20180625-17:51:02.449|56=TRAX|10=160|8=FIXT.1.1|9=69|35=0|34=803|49=HEMATRAXRTS27QA2_PUB|52=20180625-17:51:32.452|56=TRAX|10=158|8=FIXT.1.1|9=69|35=0|34=804|49=HEMATRAXRTS27QA2_PUB|52=20180625-17:52:03.440|56=TRAX|10=155|8=FIXT.1.1|9=69|35=0|34=805|49=HEMATRAXRTS27QA2_PUB|52=20180625-17:52:33.446|56=TRAX|10=165|8=FIXT.1.1|9=69|35=0|34=806|49=HEMATRAXRTS27QA2_PUB|52=20180625-17:53:04.450|56=TRAX|10=160|8=FIXT.1.1|9=69|35=0|34=807|49=HEMATRAXRTS27QA2_PUB|52=20180625-17:53:35.438|56=TRAX|10=171|8=FIXT.1.1|9=69|35=0|34=808|49=HEMATRAXRTS27QA2_PUB|52=20180625-17:54:05.444|56=TRAX|10=167|8=FIXT.1.1|9=69|35=0|34=809|49=HEMATRAXRTS27QA2_PUB|52=20180625-17:54:36.444|56=TRAX|10=172|8=FIXT.1.1|9=69|35=0|34=810|49=HEMATRAXRTS27QA2_PUB|52=20180625-17:55:06.446|56=TRAX|10=164|8=FIXT.1.1|9=69|35=0|34=811|49=HEMATRAXRTS27QA2_PUB|52=20180625-17:55:36.450|56=TRAX|10=163|8=FIXT.1.1|9=69|35=0|34=812|49=HEMATRAXRTS27QA2_PUB|52=20180625-17:56:07.447|56=TRAX|10=169|8=FIXT.1.1|9=69|35=0|34=813|49=HEMATRAXRTS27QA2_PUB|52=20180625-17:56:38.443|56=TRAX|10=170|8=FIXT.1.1|9=69|35=0|34=814|49=HEMATRAXRTS27QA2_PUB|52=20180625-17:57:08.448|56=TRAX|10=174|8=FIXT.1.1|9=69|35=0|34=815|49=HEMATRAXRTS27QA2_PUB|52=20180625-17:57:39.443|56=TRAX|10=174|8=FIXT.1.1|9=69|35=0|34=816|49=HEMATRAXRTS27QA2_PUB|52=20180625-17:58:09.448|56=TRAX|10=178|8=FIXT.1.1|9=69|35=0|34=817|49=HEMATRAXRTS27QA2_PUB|52=20180625-17:58:40.442|56=TRAX|10=168|8=FIXT.1.1|9=69|35=0|34=818|49=HEMATRAXRTS27QA2_PUB|52=20180625-17:59:10.444|56=TRAX|10=169|8=FIXT.1.1|9=69|35=0|34=819|49=HEMATRAXRTS27QA2_PUB|52=20180625-17:59:41.443|56=TRAX|10=173|8=FIXT.1.1|9=69|35=0|34=820|49=HEMATRAXRTS27QA2_PUB|52=20180625-18:00:12.437|56=TRAX|10=153|8=FIXT.1.1|9=69|35=0|34=821|49=HEMATRAXRTS27QA2_PUB|52=20180625-18:00:43.439|56=TRAX|10=160|8=FIXT.1.1|9=69|35=0|34=822|49=HEMATRAXRTS27QA2_PUB|52=20180625-18:01:13.442|56=TRAX|10=153|8=FIXT.1.1|9=69|35=0|34=823|49=HEMATRAXRTS27QA2_PUB|52=20180625-18:01:44.443|56=TRAX|10=159|8=FIXT.1.1|9=69|35=0|34=824|49=HEMATRAXRTS27QA2_PUB|52=20180625-18:02:14.443|56=TRAX|10=158|8=FIXT.1.1|9=69|35=0|34=825|49=HEMATRAXRTS27QA2_PUB|52=20180625-18:02:45.439|56=TRAX|10=168|8=FIXT.1.1|9=69|35=0|34=826|49=HEMATRAXRTS27QA2_PUB|52=20180625-18:03:16.443|56=TRAX|10=163|8=FIXT.1.1|9=69|35=0|34=827|49=HEMATRAXRTS27QA2_PUB|52=20180625-18:03:47.433|56=TRAX|10=167|8=FIXT.1.1|9=69|35=0|34=828|49=HEMATRAXRTS27QA2_PUB|52=20180625-18:04:17.441|56=TRAX|10=165|8=FIXT.1.1|9=69|35=0|34=829|49=HEMATRAXRTS27QA2_PUB|52=20180625-18:04:47.445|56=TRAX|10=173|8=FIXT.1.1|9=69|35=0|34=830|49=HEMATRAXRTS27QA2_PUB|52=20180625-18:05:18.447|56=TRAX|10=166|8=FIXT.1.1|9=69|35=0|34=831|49=HEMATRAXRTS27QA2_PUB|52=20180625-18:05:48.792|56=TRAX|10=173|8=FIXT.1.1|9=69|35=0|34=832|49=HEMATRAXRTS27QA2_PUB|52=20180625-18:06:18.802|56=TRAX|10=164|8=FIXT.1.1|9=69|35=0|34=833|49=HEMATRAXRTS27QA2_PUB|52=20180625-18:06:48.803|56=TRAX|10=169|8=FIXT.1.1|9=69|35=0|34=834|49=HEMATRAXRTS27QA2_PUB|52=20180625-18:07:19.438|56=TRAX|10=173|8=FIXT.1.1|9=69|35=0|34=835|49=HEMATRAXRTS27QA2_PUB|52=20180625-18:07:49.439|56=TRAX|10=178|8=FIXT.1.1|9=69|35=0|34=836|49=HEMATRAXRTS27QA2_PUB|52=20180625-18:08:20.443|56=TRAX|10=164|8=FIXT.1.1|9=69|35=0|34=837|49=HEMATRAXRTS27QA2_PUB|52=20180625-18:08:51.432|56=TRAX|10=167|8=FIXT.1.1|9=69|35=0|34=838|49=HEMATRAXRTS27QA2_PUB|52=20180625-18:09:21.438|56=TRAX|10=172|8=FIXT.1.1|9=69|35=0|34=839|49=HEMATRAXRTS27QA2_PUB|52=20180625-18:09:51.441|56=TRAX|10=170|8=FIXT.1.1|9=69|35=0|34=840|49=HEMATRAXRTS27QA2_PUB|52=20180625-18:10:22.446|56=TRAX|10=157|8=FIXT.1.1|9=69|35=0|34=841|49=HEMATRAXRTS27QA2_PUB|52=20180625-18:10:53.439|56=TRAX|10=164|8=FIXT.1.1|9=69|35=0|34=842|49=HEMATRAXRTS27QA2_PUB|52=20180625-18:11:23.441|56=TRAX|10=156|8=FIXT.1.1|9=69|35=0|34=843|49=HEMATRAXRTS27QA2_PUB|52=20180625-18:11:54.445|56=TRAX|10=165|8=FIXT.1.1|9=69|35=0|34=844|49=HEMATRAXRTS27QA2_PUB|52=20180625-18:12:25.437|56=TRAX|10=166|8=FIXT.1.1|9=69|35=0|34=845|49=HEMATRAXRTS27QA2_PUB|52=20180625-18:12:55.438|56=TRAX|10=171|8=FIXT.1.1|9=69|35=0|34=846|49=HEMATRAXRTS27QA2_PUB|52=20180625-18:13:26.432|56=TRAX|10=165|8=FIXT.1.1|9=69|35=0|34=847|49=HEMATRAXRTS27QA2_PUB|52=20180625-18:13:56.437|56=TRAX|10=174|8=FIXT.1.1|9=69|35=0|34=848|49=HEMATRAXRTS27QA2_PUB|52=20180625-18:14:26.440|56=TRAX|10=167|8=FIXT.1.1|9=69|35=0|34=849|49=HEMATRAXRTS27QA2_PUB|52=20180625-18:14:57.437|56=TRAX|10=178|8=FIXT.1.1|9=69|35=0|34=850|49=HEMATRAXRTS27QA2_PUB|52=20180625-18:15:27.440|56=TRAX|10=162|8=FIXT.1.1|9=69|35=0|34=851|49=HEMATRAXRTS27QA2_PUB|52=20180625-18:15:58.436|56=TRAX|10=172|8=FIXT.1.1|9=69|35=0|34=852|49=HEMATRAXRTS27QA2_PUB|52=20180625-18:16:28.441|56=TRAX|10=167|8=FIXT.1.1|9=69|35=0|34=853|49=HEMATRAXRTS27QA2_PUB|52=20180625-18:16:59.441|56=TRAX|10=172|8=FIXT.1.1|9=69|35=0|34=854|49=HEMATRAXRTS27QA2_PUB|52=20180625-18:17:30.428|56=TRAX|10=168|8=FIXT.1.1|9=69|35=0|34=855|49=HEMATRAXRTS27QA2_PUB|52=20180625-18:18:00.435|56=TRAX|10=165|8=FIXT.1.1|9=69|35=0|34=856|49=HEMATRAXRTS27QA2_PUB|52=20180625-18:18:30.435|56=TRAX|10=169|8=FIXT.1.1|9=69|35=0|34=857|49=HEMATRAXRTS27QA2_PUB|52=20180625-18:19:01.434|56=TRAX|10=168|8=FIXT.1.1|9=69|35=0|34=858|49=HEMATRAXRTS27QA2_PUB|52=20180625-18:19:31.439|56=TRAX|10=177|8=FIXT.1.1|9=69|35=0|34=859|49=HEMATRAXRTS27QA2_PUB|52=20180625-18:20:02.432|56=TRAX|10=161|8=FIXT.1.1|9=69|35=0|34=860|49=HEMATRAXRTS27QA2_PUB|52=20180625-18:20:33.434|56=TRAX|10=159|8=FIXT.1.1|9=69|35=0|34=861|49=HEMATRAXRTS27QA2_PUB|52=20180625-18:21:04.426|56=TRAX|10=160|8=FIXT.1.1|9=69|35=0|34=862|49=HEMATRAXRTS27QA2_PUB|52=20180625-18:21:34.441|56=TRAX|10=161|8=FIXT.1.1|9=69|35=0|34=863|49=HEMATRAXRTS27QA2_PUB|52=20180625-18:22:05.427|56=TRAX|10=165|8=FIXT.1.1|9=69|35=0|34=864|49=HEMATRAXRTS27QA2_PUB|52=20180625-18:22:35.428|56=TRAX|10=170|8=FIXT.1.1|9=69|35=0|34=865|49=HEMATRAXRTS27QA2_PUB|52=20180625-18:23:05.433|56=TRAX|10=165|8=FIXT.1.1|9=69|35=0|34=866|49=HEMATRAXRTS27QA2_PUB|52=20180625-18:23:36.439|56=TRAX|10=176|8=FIXT.1.1|9=69|35=0|34=867|49=HEMATRAXRTS27QA2_PUB|52=20180625-18:24:07.436|56=TRAX|10=173|8=FIXT.1.1|9=69|35=0|34=868|49=HEMATRAXRTS27QA2_PUB|52=20180625-18:24:38.439|56=TRAX|10=181|8=FIXT.1.1|9=69|35=0|34=869|49=HEMATRAXRTS27QA2_PUB|52=20180625-18:25:08.440|56=TRAX|10=172|8=FIXT.1.1|9=69|35=0|34=870|49=HEMATRAXRTS27QA2_PUB|52=20180625-18:25:39.439|56=TRAX|10=176|8=FIXT.1.1|9=69|35=0|34=871|49=HEMATRAXRTS27QA2_PUB|52=20180625-18:26:10.436|56=TRAX|10=164|8=FIXT.1.1|9=69|35=0|34=872|49=HEMATRAXRTS27QA2_PUB|52=20180625-18:26:40.439|56=TRAX|10=171|8=FIXT.1.1|9=69|35=0|34=873|49=HEMATRAXRTS27QA2_PUB|52=20180625-18:27:11.428|56=TRAX|10=169|8=FIXT.1.1|9=69|35=0|34=874|49=HEMATRAXRTS27QA2_PUB|52=20180625-18:27:41.432|56=TRAX|10=168|8=FIXT.1.1|9=69|35=0|34=875|49=HEMATRAXRTS27QA2_PUB|52=20180625-18:28:11.438|56=TRAX|10=173|8=FIXT.1.1|9=69|35=0|34=876|49=HEMATRAXRTS27QA2_PUB|52=20180625-18:28:42.424|56=TRAX|10=173|8=FIXT.1.1|9=69|35=0|34=877|49=HEMATRAXRTS27QA2_PUB|52=20180625-18:29:12.424|56=TRAX|10=172|8=FIXT.1.1|9=69|35=0|34=878|49=HEMATRAXRTS27QA2_PUB|52=20180625-18:29:42.428|56=TRAX|10=180|8=FIXT.1.1|9=69|35=0|34=879|49=HEMATRAXRTS27QA2_PUB|52=20180625-18:30:12.434|56=TRAX|10=167|8=FIXT.1.1|9=69|35=0|34=880|49=HEMATRAXRTS27QA2_PUB|52=20180625-18:30:42.434|56=TRAX|10=162|8=FIXT.1.1|9=69|35=0|34=881|49=HEMATRAXRTS27QA2_PUB|52=20180625-18:31:13.430|56=TRAX|10=158|8=FIXT.1.1|9=69|35=0|34=882|49=HEMATRAXRTS27QA2_PUB|52=20180625-18:31:44.434|56=TRAX|10=167|8=FIXT.1.1|9=69|35=0|34=883|49=HEMATRAXRTS27QA2_PUB|52=20180625-18:32:15.426|56=TRAX|10=168|8=FIXT.1.1|9=69|35=0|34=884|49=HEMATRAXRTS27QA2_PUB|52=20180625-18:32:45.431|56=TRAX|10=168|8=FIXT.1.1|9=69|35=0|34=885|49=HEMATRAXRTS27QA2_PUB|52=20180625-18:33:15.434|56=TRAX|10=170|8=FIXT.1.1|9=69|35=0|34=886|49=HEMATRAXRTS27QA2_PUB|52=20180625-18:33:46.434|56=TRAX|10=175|8=FIXT.1.1|9=69|35=0|34=887|49=HEMATRAXRTS27QA2_PUB|52=20180625-18:34:17.428|56=TRAX|10=178|8=FIXT.1.1|9=69|35=0|34=888|49=HEMATRAXRTS27QA2_PUB|52=20180625-18:34:48.434|56=TRAX|10=180|8=FIXT.1.1|9=69|35=0|34=889|49=HEMATRAXRTS27QA2_PUB|52=20180625-18:35:18.791|56=TRAX|10=185|8=FIXT.1.1|9=69|35=0|34=890|49=HEMATRAXRTS27QA2_PUB|52=20180625-18:35:48.797|56=TRAX|10=186|8=FIXT.1.1|9=69|35=0|34=891|49=HEMATRAXRTS27QA2_PUB|52=20180625-18:36:19.435|56=TRAX|10=175|8=FIXT.1.1|9=69|35=0|34=892|49=HEMATRAXRTS27QA2_PUB|52=20180625-18:36:50.421|56=TRAX|10=166|8=FIXT.1.1|9=69|35=0|34=893|49=HEMATRAXRTS27QA2_PUB|52=20180625-18:37:20.422|56=TRAX|10=166|8=FIXT.1.1|9=69|35=0|34=894|49=HEMATRAXRTS27QA2_PUB|52=20180625-18:37:50.429|56=TRAX|10=177|8=FIXT.1.1|9=69|35=0|34=895|49=HEMATRAXRTS27QA2_PUB|52=20180625-18:38:21.429|56=TRAX|10=177|8=FIXT.1.1|9=69|35=0|34=896|49=HEMATRAXRTS27QA2_PUB|52=20180625-18:38:52.421|56=TRAX|10=174|8=FIXT.1.1|9=69|35=0|34=897|49=HEMATRAXRTS27QA2_PUB|52=20180625-18:39:22.435|56=TRAX|10=178|8=FIXT.1.1|9=69|35=0|34=898|49=HEMATRAXRTS27QA2_PUB|52=20180625-18:39:53.429|56=TRAX|10=186|8=FIXT.1.1|9=69|35=0|34=899|49=HEMATRAXRTS27QA2_PUB|52=20180625-18:40:23.429|56=TRAX|10=176|8=FIXT.1.1|9=69|35=0|34=900|49=HEMATRAXRTS27QA2_PUB|52=20180625-18:40:53.430|56=TRAX|10=154|8=FIXT.1.1|9=69|35=0|34=901|49=HEMATRAXRTS27QA2_PUB|52=20180625-18:41:24.434|56=TRAX|10=158|8=FIXT.1.1|9=69|35=0|34=902|49=HEMATRAXRTS27QA2_PUB|52=20180625-18:41:55.431|56=TRAX|10=160|8=FIXT.1.1|9=69|35=0|34=903|49=HEMATRAXRTS27QA2_PUB|52=20180625-18:42:26.420|56=TRAX|10=158|8=FIXT.1.1|9=69|35=0|34=904|49=HEMATRAXRTS27QA2_PUB|52=20180625-18:42:56.430|56=TRAX|10=163|8=FIXT.1.1|9=69|35=0|34=905|49=HEMATRAXRTS27QA2_PUB|52=20180625-18:43:26.434|56=TRAX|10=166|8=FIXT.1.1|9=69|35=0|34=906|49=HEMATRAXRTS27QA2_PUB|52=20180625-18:43:57.427|56=TRAX|10=173|8=FIXT.1.1|9=69|35=0|34=907|49=HEMATRAXRTS27QA2_PUB|52=20180625-18:44:28.427|56=TRAX|10=173|8=FIXT.1.1|9=69|35=0|34=908|49=HEMATRAXRTS27QA2_PUB|52=20180625-18:44:58.431|56=TRAX|10=172|8=FIXT.1.1|9=69|35=0|34=909|49=HEMATRAXRTS27QA2_PUB|52=20180625-18:45:29.427|56=TRAX|10=177|8=FIXT.1.1|9=69|35=0|34=910|49=HEMATRAXRTS27QA2_PUB|52=20180625-18:45:59.430|56=TRAX|10=166|8=FIXT.1.1|9=69|35=0|34=911|49=HEMATRAXRTS27QA2_PUB|52=20180625-18:46:29.433|56=TRAX|10=168|8=FIXT.1.1|9=69|35=0|34=912|49=HEMATRAXRTS27QA2_PUB|52=20180625-18:47:00.427|56=TRAX|10=162|8=FIXT.1.1|9=69|35=0|34=913|49=HEMATRAXRTS27QA2_PUB|52=20180625-18:47:30.427|56=TRAX|10=166|8=FIXT.1.1|9=69|35=0|34=914|49=HEMATRAXRTS27QA2_PUB|52=20180625-18:48:00.433|56=TRAX|10=162|8=FIXT.1.1|9=69|35=0|34=915|49=HEMATRAXRTS27QA2_PUB|52=20180625-18:48:30.433|56=TRAX|10=166|8=FIXT.1.1|9=69|35=0|34=916|49=HEMATRAXRTS27QA2_PUB|52=20180625-18:49:01.427|56=TRAX|10=169|8=FIXT.1.1|9=69|35=0|34=917|49=HEMATRAXRTS27QA2_PUB|52=20180625-18:49:32.430|56=TRAX|10=168|8=FIXT.1.1|9=69|35=0|34=918|49=HEMATRAXRTS27QA2_PUB|52=20180625-18:50:03.424|56=TRAX|10=162|8=FIXT.1.1|9=69|35=0|34=919|49=HEMATRAXRTS27QA2_PUB|52=20180625-18:50:33.425|56=TRAX|10=167|8=FIXT.1.1|9=69|35=0|34=920|49=HEMATRAXRTS27QA2_PUB|52=20180625-18:51:03.428|56=TRAX|10=160|8=FIXT.1.1|9=69|35=0|34=921|49=HEMATRAXRTS27QA2_PUB|52=20180625-18:51:34.432|56=TRAX|10=160|8=FIXT.1.1|9=69|35=0|34=922|49=HEMATRAXRTS27QA2_PUB|52=20180625-18:52:05.424|56=TRAX|10=161|8=FIXT.1.1|9=69|35=0|34=923|49=HEMATRAXRTS27QA2_PUB|52=20180625-18:52:36.428|56=TRAX|10=170|8=FIXT.1.1|9=69|35=0|34=924|49=HEMATRAXRTS27QA2_PUB|52=20180625-18:53:06.431|56=TRAX|10=163|8=FIXT.1.1|9=69|35=0|34=925|49=HEMATRAXRTS27QA2_PUB|52=20180625-18:53:37.423|56=TRAX|10=169|8=FIXT.1.1|9=69|35=0|34=926|49=HEMATRAXRTS27QA2_PUB|52=20180625-18:54:08.423|56=TRAX|10=169|8=FIXT.1.1|9=69|35=0|34=927|49=HEMATRAXRTS27QA2_PUB|52=20180625-18:54:38.424|56=TRAX|10=174|8=FIXT.1.1|9=69|35=0|34=928|49=HEMATRAXRTS27QA2_PUB|52=20180625-18:55:08.429|56=TRAX|10=178|8=FIXT.1.1|9=69|35=0|34=929|49=HEMATRAXRTS27QA2_PUB|52=20180625-18:55:39.427|56=TRAX|10=181|8=FIXT.1.1|9=69|35=0|34=930|49=HEMATRAXRTS27QA2_PUB|52=20180625-18:56:10.422|56=TRAX|10=158|8=FIXT.1.1|9=69|35=0|34=931|49=HEMATRAXRTS27QA2_PUB|52=20180625-18:56:40.424|56=TRAX|10=164|8=FIXT.1.1|9=69|35=0|34=932|49=HEMATRAXRTS27QA2_PUB|52=20180625-18:57:11.426|56=TRAX|10=166|8=FIXT.1.1|9=69|35=0|34=933|49=HEMATRAXRTS27QA2_PUB|52=20180625-18:57:42.415|56=TRAX|10=169|8=FIXT.1.1|9=69|35=0|34=934|49=HEMATRAXRTS27QA2_PUB|52=20180625-18:58:12.419|56=TRAX|10=172|8=FIXT.1.1|9=69|35=0|34=935|49=HEMATRAXRTS27QA2_PUB|52=20180625-18:58:42.426|56=TRAX|10=174|8=FIXT.1.1|9=69|35=0|34=936|49=HEMATRAXRTS27QA2_PUB|52=20180625-18:59:13.421|56=TRAX|10=169|8=FIXT.1.1|9=69|35=0|34=937|49=HEMATRAXRTS27QA2_PUB|52=20180625-18:59:43.427|56=TRAX|10=179|8=FIXT.1.1|9=69|35=0|34=938|49=HEMATRAXRTS27QA2_PUB|52=20180625-19:00:14.415|56=TRAX|10=162|8=FIXT.1.1|9=69|35=0|34=939|49=HEMATRAXRTS27QA2_PUB|52=20180625-19:00:44.416|56=TRAX|10=167|8=FIXT.1.1|9=69|35=0|34=940|49=HEMATRAXRTS27QA2_PUB|52=20180625-19:01:14.426|56=TRAX|10=158|8=FIXT.1.1|9=69|35=0|34=941|49=HEMATRAXRTS27QA2_PUB|52=20180625-19:01:45.420|56=TRAX|10=157|8=FIXT.1.1|9=69|35=0|34=942|49=HEMATRAXRTS27QA2_PUB|52=20180625-19:02:15.427|56=TRAX|10=163|8=FIXT.1.1|9=69|35=0|34=943|49=HEMATRAXRTS27QA2_PUB|52=20180625-19:02:46.428|56=TRAX|10=169|8=FIXT.1.1|9=69|35=0|34=944|49=HEMATRAXRTS27QA2_PUB|52=20180625-19:03:17.420|56=TRAX|10=161|8=FIXT.1.1|9=69|35=0|34=945|49=HEMATRAXRTS27QA2_PUB|52=20180625-19:03:47.425|56=TRAX|10=170|8=FIXT.1.1|9=69|35=0|34=946|49=HEMATRAXRTS27QA2_PUB|52=20180625-19:04:18.426|56=TRAX|10=171|8=FIXT.1.1|9=69|35=0|34=947|49=HEMATRAXRTS27QA2_PUB|52=20180625-19:04:48.801|56=TRAX|10=172|8=FIXT.1.1|9=69|35=0|34=948|49=HEMATRAXRTS27QA2_PUB|52=20180625-19:05:19.421|56=TRAX|10=170|8=FIXT.1.1|9=69|35=0|34=949|49=HEMATRAXRTS27QA2_PUB|52=20180625-19:05:50.420|56=TRAX|10=165|8=FIXT.1.1|9=69|35=0|34=950|49=HEMATRAXRTS27QA2_PUB|52=20180625-19:06:20.421|56=TRAX|10=156|8=FIXT.1.1|9=69|35=0|34=951|49=HEMATRAXRTS27QA2_PUB|52=20180625-19:06:50.421|56=TRAX|10=160|8=FIXT.1.1|9=69|35=0|34=952|49=HEMATRAXRTS27QA2_PUB|52=20180625-19:07:20.422|56=TRAX|10=160|8=FIXT.1.1|9=69|35=0|34=953|49=HEMATRAXRTS27QA2_PUB|52=20180625-19:07:51.425|56=TRAX|10=168|8=FIXT.1.1|9=69|35=0|34=954|49=HEMATRAXRTS27QA2_PUB|52=20180625-19:08:22.421|56=TRAX|10=164|8=FIXT.1.1|9=69|35=0|34=955|49=HEMATRAXRTS27QA2_PUB|52=20180625-19:08:53.417|56=TRAX|10=174|8=FIXT.1.1|9=69|35=0|34=956|49=HEMATRAXRTS27QA2_PUB|52=20180625-19:09:24.418|56=TRAX|10=175|8=FIXT.1.1|9=69|35=0|34=957|49=HEMATRAXRTS27QA2_PUB|52=20180625-19:09:55.414|56=TRAX|10=176|8=FIXT.1.1|9=69|35=0|34=958|49=HEMATRAXRTS27QA2_PUB|52=20180625-19:10:25.418|56=TRAX|10=170|8=FIXT.1.1|9=69|35=0|34=959|49=HEMATRAXRTS27QA2_PUB|52=20180625-19:10:55.420|56=TRAX|10=167|8=FIXT.1.1|9=69|35=0|34=960|49=HEMATRAXRTS27QA2_PUB|52=20180625-19:11:26.423|56=TRAX|10=161|8=FIXT.1.1|9=69|35=0|34=961|49=HEMATRAXRTS27QA2_PUB|52=20180625-19:11:57.416|56=TRAX|10=168|8=FIXT.1.1|9=69|35=0|34=962|49=HEMATRAXRTS27QA2_PUB|52=20180625-19:12:27.420|56=TRAX|10=162|8=FIXT.1.1|9=69|35=0|34=963|49=HEMATRAXRTS27QA2_PUB|52=20180625-19:12:58.421|56=TRAX|10=168|8=FIXT.1.1|9=69|35=0|34=964|49=HEMATRAXRTS27QA2_PUB|52=20180625-19:13:29.418|56=TRAX|10=174|8=FIXT.1.1|9=69|35=0|34=965|49=HEMATRAXRTS27QA2_PUB|52=20180625-19:13:59.419|56=TRAX|10=179|8=FIXT.1.1|9=69|35=0|34=966|49=HEMATRAXRTS27QA2_PUB|52=20180625-19:14:30.423|56=TRAX|10=165|8=FIXT.1.1|9=69|35=0|34=967|49=HEMATRAXRTS27QA2_PUB|52=20180625-19:15:01.412|56=TRAX|10=163|8=FIXT.1.1|9=69|35=0|34=968|49=HEMATRAXRTS27QA2_PUB|52=20180625-19:15:31.421|56=TRAX|10=167|8=FIXT.1.1|9=69|35=0|34=969|49=HEMATRAXRTS27QA2_PUB|52=20180625-19:16:02.420|56=TRAX|10=166|8=FIXT.1.1|9=69|35=0|34=970|49=HEMATRAXRTS27QA2_PUB|52=20180625-19:16:33.415|56=TRAX|10=166|8=FIXT.1.1|9=69|35=0|34=971|49=HEMATRAXRTS27QA2_PUB|52=20180625-19:17:03.418|56=TRAX|10=168|8=FIXT.1.1|9=69|35=0|34=972|49=HEMATRAXRTS27QA2_PUB|52=20180625-19:17:34.422|56=TRAX|10=168|8=FIXT.1.1|9=69|35=0|34=973|49=HEMATRAXRTS27QA2_PUB|52=20180625-19:18:05.417|56=TRAX|10=172|8=FIXT.1.1|9=69|35=0|34=974|49=HEMATRAXRTS27QA2_PUB|52=20180625-19:18:36.415|56=TRAX|10=175|8=FIXT.1.1|9=69|35=0|34=975|49=HEMATRAXRTS27QA2_PUB|52=20180625-19:19:06.421|56=TRAX|10=171|8=FIXT.1.1|9=69|35=0|34=976|49=HEMATRAXRTS27QA2_PUB|52=20180625-19:19:37.414|56=TRAX|10=178|8=FIXT.1.1|9=69|35=0|34=977|49=HEMATRAXRTS27QA2_PUB|52=20180625-19:20:08.415|56=TRAX|10=170|8=FIXT.1.1|9=69|35=0|34=978|49=HEMATRAXRTS27QA2_PUB|52=20180625-19:20:38.419|56=TRAX|10=178|8=FIXT.1.1|9=69|35=0|34=979|49=HEMATRAXRTS27QA2_PUB|52=20180625-19:21:09.412|56=TRAX|10=171|8=FIXT.1.1|9=69|35=0|34=980|49=HEMATRAXRTS27QA2_PUB|52=20180625-19:21:40.418|56=TRAX|10=164|8=FIXT.1.1|9=69|35=0|34=981|49=HEMATRAXRTS27QA2_PUB|52=20180625-19:22:10.420|56=TRAX|10=156|8=FIXT.1.1|9=69|35=0|34=982|49=HEMATRAXRTS27QA2_PUB|52=20180625-19:22:40.420|56=TRAX|10=160|8=FIXT.1.1|9=69|35=0|34=983|49=HEMATRAXRTS27QA2_PUB|52=20180625-19:23:11.413|56=TRAX|10=162|8=FIXT.1.1|9=69|35=0|34=984|49=HEMATRAXRTS27QA2_PUB|52=20180625-19:23:41.413|56=TRAX|10=166|8=FIXT.1.1|9=69|35=0|34=985|49=HEMATRAXRTS27QA2_PUB|52=20180625-19:24:12.407|56=TRAX|10=169|8=FIXT.1.1|9=69|35=0|34=986|49=HEMATRAXRTS27QA2_PUB|52=20180625-19:24:42.414|56=TRAX|10=171|8=FIXT.1.1|9=69|35=0|34=987|49=HEMATRAXRTS27QA2_PUB|52=20180625-19:25:13.417|56=TRAX|10=174|8=FIXT.1.1|9=69|35=0|34=988|49=HEMATRAXRTS27QA2_PUB|52=20180625-19:25:44.412|56=TRAX|10=174|8=FIXT.1.1|9=69|35=0|34=989|49=HEMATRAXRTS27QA2_PUB|52=20180625-19:26:15.408|56=TRAX|10=179|8=FIXT.1.1|9=69|35=0|34=990|49=HEMATRAXRTS27QA2_PUB|52=20180625-19:26:45.411|56=TRAX|10=168|8=FIXT.1.1|9=69|35=0|34=991|49=HEMATRAXRTS27QA2_PUB|52=20180625-19:27:15.418|56=TRAX|10=174|8=FIXT.1.1|9=69|35=0|34=992|49=HEMATRAXRTS27QA2_PUB|52=20180625-19:27:46.418|56=TRAX|10=179|8=FIXT.1.1|9=69|35=0|34=993|49=HEMATRAXRTS27QA2_PUB|52=20180625-19:28:17.412|56=TRAX|10=173|8=FIXT.1.1|9=69|35=0|34=994|49=HEMATRAXRTS27QA2_PUB|52=20180625-19:28:47.413|56=TRAX|10=178|8=FIXT.1.1|9=69|35=0|34=995|49=HEMATRAXRTS27QA2_PUB|52=20180625-19:29:18.407|56=TRAX|10=181|8=FIXT.1.1|9=69|35=0|34=996|49=HEMATRAXRTS27QA2_PUB|52=20180625-19:29:48.416|56=TRAX|10=185|8=FIXT.1.1|9=69|35=0|34=997|49=HEMATRAXRTS27QA2_PUB|52=20180625-19:30:18.798|56=TRAX|10=188|8=FIXT.1.1|9=69|35=0|34=998|49=HEMATRAXRTS27QA2_PUB|52=20180625-19:30:49.410|56=TRAX|10=174|8=FIXT.1.1|9=69|35=0|34=999|49=HEMATRAXRTS27QA2_PUB|52=20180625-19:31:20.409|56=TRAX|10=173|8=FIXT.1.1|9=70|35=0|34=1000|49=HEMATRAXRTS27QA2_PUB|52=20180625-19:31:50.410|56=TRAX|10=182|8=FIXT.1.1|9=70|35=0|34=1001|49=HEMATRAXRTS27QA2_PUB|52=20180625-19:32:21.408|56=TRAX|10=189|8=FIXT.1.1|9=70|35=0|34=1002|49=HEMATRAXRTS27QA2_PUB|52=20180625-19:32:51.409|56=TRAX|10=194|8=FIXT.1.1|9=70|35=0|34=1003|49=HEMATRAXRTS27QA2_PUB|52=20180625-19:33:22.413|56=TRAX|10=189|8=FIXT.1.1|9=70|35=0|34=1004|49=HEMATRAXRTS27QA2_PUB|52=20180625-19:33:53.401|56=TRAX|10=191|8=FIXT.1.1|9=70|35=0|34=1005|49=HEMATRAXRTS27QA2_PUB|52=20180625-19:34:23.413|56=TRAX|10=193|8=FIXT.1.1|9=70|35=0|34=1006|49=HEMATRAXRTS27QA2_PUB|52=20180625-19:34:54.415|56=TRAX|10=200|8=FIXT.1.1|9=70|35=0|34=1007|49=HEMATRAXRTS27QA2_PUB|52=20180625-19:35:25.400|56=TRAX|10=194|8=FIXT.1.1|9=70|35=0|34=1008|49=HEMATRAXRTS27QA2_PUB|52=20180625-19:35:55.403|56=TRAX|10=201|8=FIXT.1.1|9=70|35=0|34=1009|49=HEMATRAXRTS27QA2_PUB|52=20180625-19:36:25.407|56=TRAX|10=204|8=FIXT.1.1|9=70|35=0|34=1010|49=HEMATRAXRTS27QA2_PUB|52=20180625-19:36:55.411|56=TRAX|10=194|8=FIXT.1.1|9=70|35=0|34=1011|49=HEMATRAXRTS27QA2_PUB|52=20180625-19:37:26.411|56=TRAX|10=194|8=FIXT.1.1|9=70|35=0|34=1012|49=HEMATRAXRTS27QA2_PUB|52=20180625-19:37:57.402|56=TRAX|10=199|8=FIXT.1.1|9=70|35=0|34=1013|49=HEMATRAXRTS27QA2_PUB|52=20180625-19:38:28.399|56=TRAX|10=214|8=FIXT.1.1|9=70|35=0|34=1014|49=HEMATRAXRTS27QA2_PUB|52=20180625-19:38:58.403|56=TRAX|10=204|8=FIXT.1.1|9=70|35=0|34=1015|49=HEMATRAXRTS27QA2_PUB|52=20180625-19:39:29.406|56=TRAX|10=207|8=FIXT.1.1|9=70|35=0|34=1016|49=HEMATRAXRTS27QA2_PUB|52=20180625-19:40:00.403|56=TRAX|10=186|8=FIXT.1.1|9=70|35=0|34=1017|49=HEMATRAXRTS27QA2_PUB|52=20180625-19:40:30.404|56=TRAX|10=191|8=FIXT.1.1|9=70|35=0|34=1018|49=HEMATRAXRTS27QA2_PUB|52=20180625-19:41:01.405|56=TRAX|10=192|8=FIXT.1.1|9=70|35=0|34=1019|49=HEMATRAXRTS27QA2_PUB|52=20180625-19:41:31.413|56=TRAX|10=195|8=FIXT.1.1|9=70|35=0|34=1020|49=HEMATRAXRTS27QA2_PUB|52=20180625-19:42:02.410|56=TRAX|10=183|8=FIXT.1.1|9=70|35=0|34=1021|49=HEMATRAXRTS27QA2_PUB|52=20180625-19:42:33.406|56=TRAX|10=193|8=FIXT.1.1|9=70|35=0|34=1022|49=HEMATRAXRTS27QA2_PUB|52=20180625-19:43:03.410|56=TRAX|10=187|8=FIXT.1.1|9=70|35=0|34=1023|49=HEMATRAXRTS27QA2_PUB|52=20180625-19:43:34.405|56=TRAX|10=196|8=FIXT.1.1|9=70|35=0|34=1024|49=HEMATRAXRTS27QA2_PUB|52=20180625-19:44:04.405|56=TRAX|10=195|8=FIXT.1.1|9=70|35=0|34=1025|49=HEMATRAXRTS27QA2_PUB|52=20180625-19:44:35.397|56=TRAX|10=210|8=FIXT.1.1|9=70|35=0|34=1026|49=HEMATRAXRTS27QA2_PUB|52=20180625-19:45:05.404|56=TRAX|10=198|8=FIXT.1.1|9=70|35=0|34=1027|49=HEMATRAXRTS27QA2_PUB|52=20180625-19:45:35.409|56=TRAX|10=207|8=FIXT.1.1|9=70|35=0|34=1028|49=HEMATRAXRTS27QA2_PUB|52=20180625-19:46:06.404|56=TRAX|10=202|8=FIXT.1.1|9=70|35=0|34=1029|49=HEMATRAXRTS27QA2_PUB|52=20180625-19:46:37.409|56=TRAX|10=212|8=FIXT.1.1|9=70|35=0|34=1030|49=HEMATRAXRTS27QA2_PUB|52=20180625-19:47:08.404|56=TRAX|10=198|8=FIXT.1.1|9=70|35=0|34=1031|49=HEMATRAXRTS27QA2_PUB|52=20180625-19:47:38.405|56=TRAX|10=203|8=FIXT.1.1|9=70|35=0|34=1032|49=HEMATRAXRTS27QA2_PUB|52=20180625-19:48:08.407|56=TRAX|10=204|8=FIXT.1.1|9=70|35=0|34=1033|49=HEMATRAXRTS27QA2_PUB|52=20180625-19:48:39.411|56=TRAX|10=204|8=FIXT.1.1|9=70|35=0|34=1034|49=HEMATRAXRTS27QA2_PUB|52=20180625-19:49:10.408|56=TRAX|10=201|8=FIXT.1.1|9=70|35=0|34=1035|49=HEMATRAXRTS27QA2_PUB|52=20180625-19:49:41.402|56=TRAX|10=200|8=FIXT.1.1|9=70|35=0|34=1036|49=HEMATRAXRTS27QA2_PUB|52=20180625-19:50:12.398|56=TRAX|10=205|8=FIXT.1.1|9=70|35=0|34=1037|49=HEMATRAXRTS27QA2_PUB|52=20180625-19:50:42.406|56=TRAX|10=199|8=FIXT.1.1|9=70|35=0|34=1038|49=HEMATRAXRTS27QA2_PUB|52=20180625-19:51:12.406|56=TRAX|10=198|8=FIXT.1.1|9=70|35=0|34=1039|49=HEMATRAXRTS27QA2_PUB|52=20180625-19:51:42.409|56=TRAX|10=205|8=FIXT.1.1|9=70|35=0|34=1040|49=HEMATRAXRTS27QA2_PUB|52=20180625-19:52:13.403|56=TRAX|10=190|8=FIXT.1.1|9=70|35=0|34=1041|49=HEMATRAXRTS27QA2_PUB|52=20180625-19:52:44.401|56=TRAX|10=193|8=FIXT.1.1|9=70|35=0|34=1042|49=HEMATRAXRTS27QA2_PUB|52=20180625-19:53:15.404|56=TRAX|10=196|8=FIXT.1.1|9=70|35=0|34=1043|49=HEMATRAXRTS27QA2_PUB|52=20180625-19:53:46.400|56=TRAX|10=197|8=FIXT.1.1|9=70|35=0|34=1044|49=HEMATRAXRTS27QA2_PUB|52=20180625-19:54:17.406|56=TRAX|10=203|8=FIXT.1.1|9=70|35=0|34=1045|49=HEMATRAXRTS27QA2_PUB|52=20180625-19:54:47.408|56=TRAX|10=209|8=FIXT.1.1|9=70|35=0|34=1046|49=HEMATRAXRTS27QA2_PUB|52=20180625-19:55:18.402|56=TRAX|10=203|8=FIXT.1.1|9=70|35=0|34=1047|49=HEMATRAXRTS27QA2_PUB|52=20180625-19:55:48.405|56=TRAX|10=210|8=FIXT.1.1|9=70|35=0|34=1048|49=HEMATRAXRTS27QA2_PUB|52=20180625-19:56:19.396|56=TRAX|10=219|8=FIXT.1.1|9=70|35=0|34=1049|49=HEMATRAXRTS27QA2_PUB|52=20180625-19:56:49.397|56=TRAX|10=224|8=FIXT.1.1|9=70|35=0|34=1050|49=HEMATRAXRTS27QA2_PUB|52=20180625-19:57:19.404|56=TRAX|10=203|8=FIXT.1.1|9=70|35=0|34=1051|49=HEMATRAXRTS27QA2_PUB|52=20180625-19:57:49.789|56=TRAX|10=223|8=FIXT.1.1|9=70|35=0|34=1052|49=HEMATRAXRTS27QA2_PUB|52=20180625-19:58:19.797|56=TRAX|10=221|8=FIXT.1.1|9=70|35=0|34=1053|49=HEMATRAXRTS27QA2_PUB|52=20180625-19:58:49.798|56=TRAX|10=226|8=FIXT.1.1|9=70|35=0|34=1054|49=HEMATRAXRTS27QA2_PUB|52=20180625-19:59:20.399|56=TRAX|10=214|8=FIXT.1.1|9=70|35=0|34=1055|49=HEMATRAXRTS27QA2_PUB|52=20180625-19:59:50.399|56=TRAX|10=218|8=FIXT.1.1|9=70|35=0|34=1056|49=HEMATRAXRTS27QA2_PUB|52=20180625-20:00:21.397|56=TRAX|10=193|8=FIXT.1.1|9=70|35=0|34=1057|49=HEMATRAXRTS27QA2_PUB|52=20180625-20:00:52.399|56=TRAX|10=200|8=FIXT.1.1|9=70|35=0|34=1058|49=HEMATRAXRTS27QA2_PUB|52=20180625-20:01:23.392|56=TRAX|10=193|8=FIXT.1.1|9=70|35=0|34=1059|49=HEMATRAXRTS27QA2_PUB|52=20180625-20:01:53.397|56=TRAX|10=202|8=FIXT.1.1|9=70|35=0|34=1060|49=HEMATRAXRTS27QA2_PUB|52=20180625-20:02:24.392|56=TRAX|10=188|8=FIXT.1.1|9=70|35=0|34=1061|49=HEMATRAXRTS27QA2_PUB|52=20180625-20:02:55.397|56=TRAX|10=198|8=FIXT.1.1|9=70|35=0|34=1062|49=HEMATRAXRTS27QA2_PUB|52=20180625-20:03:25.397|56=TRAX|10=197|8=FIXT.1.1|9=70|35=0|34=1063|49=HEMATRAXRTS27QA2_PUB|52=20180625-20:03:56.398|56=TRAX|10=203|8=FIXT.1.1|9=70|35=0|34=1064|49=HEMATRAXRTS27QA2_PUB|52=20180625-20:04:26.403|56=TRAX|10=189|8=FIXT.1.1|9=70|35=0|34=1065|49=HEMATRAXRTS27QA2_PUB|52=20180625-20:04:57.397|56=TRAX|10=206|8=FIXT.1.1|9=70|35=0|34=1066|49=HEMATRAXRTS27QA2_PUB|52=20180625-20:05:27.401|56=TRAX|10=191|8=FIXT.1.1|9=70|35=0|34=1067|49=HEMATRAXRTS27QA2_PUB|52=20180625-20:05:58.390|56=TRAX|10=203|8=FIXT.1.1|9=70|35=0|34=1068|49=HEMATRAXRTS27QA2_PUB|52=20180625-20:06:28.402|56=TRAX|10=196|8=FIXT.1.1|9=70|35=0|34=1069|49=HEMATRAXRTS27QA2_PUB|52=20180625-20:06:59.390|56=TRAX|10=207|8=FIXT.1.1|9=70|35=0|34=1070|49=HEMATRAXRTS27QA2_PUB|52=20180625-20:07:29.391|56=TRAX|10=198|8=FIXT.1.1|9=70|35=0|34=1071|49=HEMATRAXRTS27QA2_PUB|52=20180625-20:07:59.394|56=TRAX|10=205|8=FIXT.1.1|9=70|35=0|34=1072|49=HEMATRAXRTS27QA2_PUB|52=20180625-20:08:29.395|56=TRAX|10=205|8=FIXT.1.1|9=70|35=0|34=1073|49=HEMATRAXRTS27QA2_PUB|52=20180625-20:09:00.392|56=TRAX|10=193|8=FIXT.1.1|9=70|35=0|34=1074|49=HEMATRAXRTS27QA2_PUB|52=20180625-20:09:31.394|56=TRAX|10=200|8=FIXT.1.1|9=70|35=0|34=1075|49=HEMATRAXRTS27QA2_PUB|52=20180625-20:10:01.395|56=TRAX|10=191|8=FIXT.1.1|9=70|35=0|34=1076|49=HEMATRAXRTS27QA2_PUB|52=20180625-20:10:31.398|56=TRAX|10=198|8=FIXT.1.1|9=70|35=0|34=1077|49=HEMATRAXRTS27QA2_PUB|52=20180625-20:11:02.402|56=TRAX|10=184|8=FIXT.1.1|9=70|35=0|34=1078|49=HEMATRAXRTS27QA2_PUB|52=20180625-20:11:33.394|56=TRAX|10=199|8=FIXT.1.1|9=70|35=0|34=1079|49=HEMATRAXRTS27QA2_PUB|52=20180625-20:12:04.399|56=TRAX|10=204|8=FIXT.1.1|9=70|35=0|34=1080|49=HEMATRAXRTS27QA2_PUB|52=20180625-20:12:35.394|56=TRAX|10=195|8=FIXT.1.1|9=70|35=0|34=1081|49=HEMATRAXRTS27QA2_PUB|52=20180625-20:13:06.386|56=TRAX|10=196|8=FIXT.1.1|9=70|35=0|34=1082|49=HEMATRAXRTS27QA2_PUB|52=20180625-20:13:36.394|56=TRAX|10=199|8=FIXT.1.1|9=70|35=0|34=1083|49=HEMATRAXRTS27QA2_PUB|52=20180625-20:14:06.396|56=TRAX|10=200|8=FIXT.1.1|9=70|35=0|34=1084|49=HEMATRAXRTS27QA2_PUB|52=20180625-20:14:37.393|56=TRAX|10=202|8=FIXT.1.1|9=70|35=0|34=1085|49=HEMATRAXRTS27QA2_PUB|52=20180625-20:15:08.396|56=TRAX|10=205|8=FIXT.1.1|9=70|35=0|34=1086|49=HEMATRAXRTS27QA2_PUB|52=20180625-20:15:39.394|56=TRAX|10=208|8=FIXT.1.1|9=70|35=0|34=1087|49=HEMATRAXRTS27QA2_PUB|52=20180625-2