8=FIXT.1.1|9=97|35=A|34=1|49=QAAPA001|52=20180912-16:06:17.714|56=TRAX|98=0|108=30|95=8|96=3.0.0rc3|141=Y|1137=9|10=136|8=FIXT.1.1|9=462|35=AE|34=2|49=QAAPA001|50=APA|57=APA|52=20180912-16:06:26.738|56=TRAX|571=APA-20180717153729978aOLN68wOTW|487=0|325=Y|423=22|55=[N/A]|48=ABCDEF123OYS|1390=1|22=4|32=1000|31=100.35|60=20180827-15:37:19.979|552=1|54=1|29=1|1041=APA-20180717153729978aOLN68wOTW4|22801=1|22802=SIZE|1934=0|1116=3|1117=2138001YRXK8OT1GR195|1118=N|1119=116|1117=XOFF|1118=G|1119=73|1117=2138001123F8QFPOZ919|1118=N|1119=1|15=GBP|120=GBP|1924=1|22600=250|22601=GBP|854=1|231=10|30=SINT|10=142|8=FIXT.1.1|9=55|35=0|34=3|49=QAAPA001|52=20180912-16:06:57.597|56=TRAX|10=111|8=FIXT.1.1|9=55|35=0|34=4|49=QAAPA001|52=20180912-16:07:27.674|56=TRAX|10=106|8=FIXT.1.1|9=462|35=AE|34=5|49=QAAPA001|50=APA|57=APA|52=20180912-16:07:33.054|56=TRAX|571=APA-20180717153729978aOLN68wOTW|487=0|325=Y|423=22|55=[N/A]|48=THCDJJAES81T|1390=1|22=4|32=1000|31=100.35|60=20180827-15:37:19.979|552=1|54=1|29=1|1041=APA-20180717153729978aOLN68wOTW5|22801=1|22802=SIZE|1934=0|1116=3|1117=2138001YRXK8OT1GR195|1118=N|1119=116|1117=XOFF|1118=G|1119=73|1117=2138001123F8QFPOZ919|1118=N|1119=1|15=GBP|120=GBP|1924=1|22600=250|22601=GBP|854=1|231=10|30=SINT|10=175|8=FIXT.1.1|9=55|35=0|34=6|49=QAAPA001|52=20180912-16:08:03.595|56=TRAX|10=105|8=FIXT.1.1|9=55|35=0|34=7|49=QAAPA001|52=20180912-16:08:33.595|56=TRAX|10=109|8=FIXT.1.1|9=55|35=0|34=8|49=QAAPA001|52=20180912-16:09:03.596|56=TRAX|10=109|8=FIXT.1.1|9=55|35=0|34=9|49=QAAPA001|52=20180912-16:09:33.597|56=TRAX|10=114|8=FIXT.1.1|9=56|35=0|34=10|49=QAAPA001|52=20180912-16:10:03.674|56=TRAX|10=140|8=FIXT.1.1|9=56|35=0|34=11|49=QAAPA001|52=20180912-16:10:33.674|56=TRAX|10=144|8=FIXT.1.1|9=56|35=0|34=12|49=QAAPA001|52=20180912-16:11:03.674|56=TRAX|10=143|8=FIXT.1.1|9=56|35=0|34=13|49=QAAPA001|52=20180912-16:11:33.674|56=TRAX|10=147|8=FIXT.1.1|9=56|35=0|34=14|49=QAAPA001|52=20180912-16:12:03.674|56=TRAX|10=146|8=FIXT.1.1|9=56|35=0|34=15|49=QAAPA001|52=20180912-16:12:33.675|56=TRAX|10=151|8=FIXT.1.1|9=56|35=0|34=16|49=QAAPA001|52=20180912-16:13:04.674|56=TRAX|10=150|8=FIXT.1.1|9=56|35=0|34=17|49=QAAPA001|52=20180912-16:13:34.674|56=TRAX|10=154|8=FIXT.1.1|9=56|35=0|34=18|49=QAAPA001|52=20180912-16:14:04.674|56=TRAX|10=153|8=FIXT.1.1|9=56|35=0|34=19|49=QAAPA001|52=20180912-16:14:34.674|56=TRAX|10=157|8=FIXT.1.1|9=56|35=0|34=20|49=QAAPA001|52=20180912-16:15:05.675|56=TRAX|10=149|8=FIXT.1.1|9=56|35=0|34=21|49=QAAPA001|52=20180912-16:15:35.675|56=TRAX|10=153|8=FIXT.1.1|9=56|35=0|34=22|49=QAAPA001|52=20180912-16:16:06.674|56=TRAX|10=152|8=FIXT.1.1|9=56|35=0|34=23|49=QAAPA001|52=20180912-16:16:36.674|56=TRAX|10=156|8=FIXT.1.1|9=56|35=0|34=24|49=QAAPA001|52=20180912-16:17:06.674|56=TRAX|10=155|8=FIXT.1.1|9=56|35=0|34=25|49=QAAPA001|52=20180912-16:17:37.674|56=TRAX|10=160|8=FIXT.1.1|9=56|35=0|34=26|49=QAAPA001|52=20180912-16:18:08.674|56=TRAX|10=160|8=FIXT.1.1|9=56|35=0|34=27|49=QAAPA001|52=20180912-16:18:38.674|56=TRAX|10=164|8=FIXT.1.1|9=56|35=0|34=28|49=QAAPA001|52=20180912-16:19:09.674|56=TRAX|10=164|8=FIXT.1.1|9=56|35=0|34=29|49=QAAPA001|52=20180912-16:19:39.675|56=TRAX|10=169|8=FIXT.1.1|9=56|35=0|34=30|49=QAAPA001|52=20180912-16:20:10.674|56=TRAX|10=141|8=FIXT.1.1|9=56|35=0|34=31|49=QAAPA001|52=20180912-16:20:40.674|56=TRAX|10=145|8=FIXT.1.1|9=56|35=0|34=32|49=QAAPA001|52=20180912-16:21:11.674|56=TRAX|10=145|8=FIXT.1.1|9=56|35=0|34=33|49=QAAPA001|52=20180912-16:21:41.674|56=TRAX|10=149|8=FIXT.1.1|9=56|35=0|34=34|49=QAAPA001|52=20180912-16:22:11.674|56=TRAX|10=148|8=FIXT.1.1|9=56|35=0|34=35|49=QAAPA001|52=20180912-16:22:41.674|56=TRAX|10=152|8=FIXT.1.1|9=56|35=0|34=36|49=QAAPA001|52=20180912-16:23:11.675|56=TRAX|10=152|8=FIXT.1.1|9=56|35=0|34=37|49=QAAPA001|52=20180912-16:23:42.674|56=TRAX|10=156|8=FIXT.1.1|9=56|35=0|34=38|49=QAAPA001|52=20180912-16:24:13.673|56=TRAX|10=155|8=FIXT.1.1|9=56|35=0|34=39|49=QAAPA001|52=20180912-16:24:43.674|56=TRAX|10=160|8=FIXT.1.1|9=56|35=0|34=40|49=QAAPA001|52=20180912-16:25:13.674|56=TRAX|10=150|8=FIXT.1.1|9=56|35=0|34=41|49=QAAPA001|52=20180912-16:25:44.674|56=TRAX|10=155|8=FIXT.1.1|9=56|35=0|34=42|49=QAAPA001|52=20180912-16:26:15.678|56=TRAX|10=159|8=FIXT.1.1|9=56|35=0|34=43|49=QAAPA001|52=20180912-16:26:45.678|56=TRAX|10=163|8=FIXT.1.1|9=56|35=0|34=44|49=QAAPA001|52=20180912-16:27:16.677|56=TRAX|10=162|8=FIXT.1.1|9=56|35=0|34=45|49=QAAPA001|52=20180912-16:27:46.677|56=TRAX|10=166|8=FIXT.1.1|9=56|35=0|34=46|49=QAAPA001|52=20180912-16:28:17.675|56=TRAX|10=164|8=FIXT.1.1|9=56|35=0|34=47|49=QAAPA001|52=20180912-16:28:48.676|56=TRAX|10=170|8=FIXT.1.1|9=56|35=0|34=48|49=QAAPA001|52=20180912-16:29:18.676|56=TRAX|10=169|8=FIXT.1.1|9=56|35=0|34=49|49=QAAPA001|52=20180912-16:29:48.676|56=TRAX|10=173|8=FIXT.1.1|9=56|35=0|34=50|49=QAAPA001|52=20180912-16:30:19.675|56=TRAX|10=154|8=FIXT.1.1|9=56|35=0|34=51|49=QAAPA001|52=20180912-16:30:49.675|56=TRAX|10=158|8=FIXT.1.1|9=56|35=0|34=52|49=QAAPA001|52=20180912-16:31:20.671|56=TRAX|10=145|8=FIXT.1.1|9=56|35=0|34=53|49=QAAPA001|52=20180912-16:31:50.673|56=TRAX|10=151|8=FIXT.1.1|9=56|35=0|34=54|49=QAAPA001|52=20180912-16:32:20.673|56=TRAX|10=150|8=FIXT.1.1|9=56|35=0|34=55|49=QAAPA001|52=20180912-16:32:50.673|56=TRAX|10=154|8=FIXT.1.1|9=56|35=0|34=56|49=QAAPA001|52=20180912-16:33:20.673|56=TRAX|10=153|8=FIXT.1.1|9=56|35=0|34=57|49=QAAPA001|52=20180912-16:33:50.673|56=TRAX|10=157|8=FIXT.1.1|9=56|35=0|34=58|49=QAAPA001|52=20180912-16:34:21.671|56=TRAX|10=155|8=FIXT.1.1|9=56|35=0|34=59|49=QAAPA001|52=20180912-16:34:51.672|56=TRAX|10=160|8=FIXT.1.1|9=56|35=0|34=60|49=QAAPA001|52=20180912-16:35:21.673|56=TRAX|10=151|8=FIXT.1.1|9=56|35=0|34=61|49=QAAPA001|52=20180912-16:35:52.672|56=TRAX|10=155|8=FIXT.1.1|9=56|35=0|34=62|49=QAAPA001|52=20180912-16:36:22.672|56=TRAX|10=154|8=FIXT.1.1|9=56|35=0|34=63|49=QAAPA001|52=20180912-16:36:52.672|56=TRAX|10=158|8=FIXT.1.1|9=56|35=0|34=64|49=QAAPA001|52=20180912-16:37:22.672|56=TRAX|10=157|8=FIXT.1.1|9=56|35=0|34=65|49=QAAPA001|52=20180912-16:37:53.672|56=TRAX|10=162|8=FIXT.1.1|9=56|35=0|34=66|49=QAAPA001|52=20180912-16:38:23.672|56=TRAX|10=161|8=FIXT.1.1|9=56|35=0|34=67|49=QAAPA001|52=20180912-16:38:54.672|56=TRAX|10=166|8=FIXT.1.1|9=56|35=0|34=68|49=QAAPA001|52=20180912-16:39:24.672|56=TRAX|10=165|8=FIXT.1.1|9=56|35=0|34=69|49=QAAPA001|52=20180912-16:39:54.673|56=TRAX|10=170|8=FIXT.1.1|9=56|35=0|34=70|49=QAAPA001|52=20180912-16:40:25.672|56=TRAX|10=151|8=FIXT.1.1|9=56|35=0|34=71|49=QAAPA001|52=20180912-16:40:55.672|56=TRAX|10=155|8=FIXT.1.1|9=56|35=0|34=72|49=QAAPA001|52=20180912-16:41:25.672|56=TRAX|10=154|8=FIXT.1.1|9=56|35=0|34=73|49=QAAPA001|52=20180912-16:41:56.672|56=TRAX|10=159|8=FIXT.1.1|9=56|35=0|34=74|49=QAAPA001|52=20180912-16:42:26.673|56=TRAX|10=159|8=FIXT.1.1|9=56|35=0|34=75|49=QAAPA001|52=20180912-16:42:57.671|56=TRAX|10=162|8=FIXT.1.1|9=56|35=0|34=76|49=QAAPA001|52=20180912-16:43:27.672|56=TRAX|10=162|8=FIXT.1.1|9=56|35=0|34=77|49=QAAPA001|52=20180912-16:43:57.673|56=TRAX|10=167|8=FIXT.1.1|9=56|35=0|34=78|49=QAAPA001|52=20180912-16:44:28.672|56=TRAX|10=166|8=FIXT.1.1|9=56|35=0|34=79|49=QAAPA001|52=20180912-16:44:58.672|56=TRAX|10=170|8=FIXT.1.1|9=56|35=0|34=80|49=QAAPA001|52=20180912-16:45:28.673|56=TRAX|10=161|8=FIXT.1.1|9=56|35=0|34=81|49=QAAPA001|52=20180912-16:45:59.671|56=TRAX|10=164|8=FIXT.1.1|9=56|35=0|34=82|49=QAAPA001|52=20180912-16:46:29.672|56=TRAX|10=164|8=FIXT.1.1|9=56|35=0|34=83|49=QAAPA001|52=20180912-16:46:59.672|56=TRAX|10=168|8=FIXT.1.1|9=56|35=0|34=84|49=QAAPA001|52=20180912-16:47:30.676|56=TRAX|10=163|8=FIXT.1.1|9=56|35=0|34=85|49=QAAPA001|52=20180912-16:48:00.676|56=TRAX|10=162|8=FIXT.1.1|9=56|35=0|34=86|49=QAAPA001|52=20180912-16:48:31.675|56=TRAX|10=166|8=FIXT.1.1|9=56|35=0|34=87|49=QAAPA001|52=20180912-16:49:01.675|56=TRAX|10=165|8=FIXT.1.1|9=56|35=0|34=88|49=QAAPA001|52=20180912-16:49:32.672|56=TRAX|10=167|8=FIXT.1.1|9=56|35=0|34=89|49=QAAPA001|52=20180912-16:50:02.672|56=TRAX|10=157|8=FIXT.1.1|9=56|35=0|34=90|49=QAAPA001|52=20180912-16:50:32.672|56=TRAX|10=152|8=FIXT.1.1|9=56|35=0|34=91|49=QAAPA001|52=20180912-16:51:02.672|56=TRAX|10=151|8=FIXT.1.1|9=56|35=0|34=92|49=QAAPA001|52=20180912-16:51:32.672|56=TRAX|10=155|8=FIXT.1.1|9=56|35=0|34=93|49=QAAPA001|52=20180912-16:52:02.672|56=TRAX|10=154|8=FIXT.1.1|9=56|35=0|34=94|49=QAAPA001|52=20180912-16:52:32.672|56=TRAX|10=158|8=FIXT.1.1|9=56|35=0|34=95|49=QAAPA001|52=20180912-16:53:02.672|56=TRAX|10=157|8=FIXT.1.1|9=56|35=0|34=96|49=QAAPA001|52=20180912-16:53:32.672|56=TRAX|10=161|8=FIXT.1.1|9=56|35=0|34=97|49=QAAPA001|52=20180912-16:54:02.672|56=TRAX|10=160|8=FIXT.1.1|9=56|35=0|34=98|49=QAAPA001|52=20180912-16:54:32.672|56=TRAX|10=164|8=FIXT.1.1|9=56|35=0|34=99|49=QAAPA001|52=20180912-16:55:02.672|56=TRAX|10=163|8=FIXT.1.1|9=57|35=0|34=100|49=QAAPA001|52=20180912-16:55:33.598|56=TRAX|10=206|8=FIXT.1.1|9=57|35=0|34=101|49=QAAPA001|52=20180912-16:56:03.672|56=TRAX|10=198|8=FIXT.1.1|9=57|35=0|34=102|49=QAAPA001|52=20180912-16:56:33.673|56=TRAX|10=203|8=FIXT.1.1|9=57|35=0|34=103|49=QAAPA001|52=20180912-16:57:04.672|56=TRAX|10=202|8=FIXT.1.1|9=57|35=0|34=104|49=QAAPA001|52=20180912-16:57:35.672|56=TRAX|10=207|8=FIXT.1.1|9=57|35=0|34=105|49=QAAPA001|52=20180912-16:58:06.671|56=TRAX|10=206|8=FIXT.1.1|9=57|35=0|34=106|49=QAAPA001|52=20180912-16:58:37.671|56=TRAX|10=211|8=FIXT.1.1|9=57|35=0|34=107|49=QAAPA001|52=20180912-16:59:08.671|56=TRAX|10=211|8=FIXT.1.1|9=57|35=0|34=108|49=QAAPA001|52=20180912-16:59:38.671|56=TRAX|10=215|8=FIXT.1.1|9=57|35=0|34=109|49=QAAPA001|52=20180912-17:00:09.670|56=TRAX|10=200|8=FIXT.1.1|9=57|35=0|34=110|49=QAAPA001|52=20180912-17:00:39.670|56=TRAX|10=195|8=FIXT.1.1|9=57|35=0|34=111|49=QAAPA001|52=20180912-17:01:09.670|56=TRAX|10=194|8=FIXT.1.1|9=57|35=0|34=112|49=QAAPA001|52=20180912-17:01:39.670|56=TRAX|10=198|8=FIXT.1.1|9=57|35=0|34=113|49=QAAPA001|52=20180912-17:02:09.670|56=TRAX|10=197|8=FIXT.1.1|9=57|35=0|34=114|49=QAAPA001|52=20180912-17:02:39.670|56=TRAX|10=201|8=FIXT.1.1|9=57|35=0|34=115|49=QAAPA001|52=20180912-17:03:09.671|56=TRAX|10=201|8=FIXT.1.1|9=57|35=0|34=116|49=QAAPA001|52=20180912-17:03:40.670|56=TRAX|10=196|8=FIXT.1.1|9=57|35=0|34=117|49=QAAPA001|52=20180912-17:04:10.670|56=TRAX|10=195|8=FIXT.1.1|9=57|35=0|34=118|49=QAAPA001|52=20180912-17:04:40.670|56=TRAX|10=199|8=FIXT.1.1|9=57|35=0|34=119|49=QAAPA001|52=20180912-17:05:10.670|56=TRAX|10=198|8=FIXT.1.1|9=57|35=0|34=120|49=QAAPA001|52=20180912-17:05:40.670|56=TRAX|10=193|8=FIXT.1.1|9=57|35=0|34=121|49=QAAPA001|52=20180912-17:06:10.670|56=TRAX|10=192|8=FIXT.1.1|9=57|35=0|34=122|49=QAAPA001|52=20180912-17:06:40.670|56=TRAX|10=196|8=FIXT.1.1|9=57|35=0|34=123|49=QAAPA001|52=20180912-17:07:10.670|56=TRAX|10=195|8=FIXT.1.1|9=57|35=0|34=124|49=QAAPA001|52=20180912-17:07:40.670|56=TRAX|10=199|8=FIXT.1.1|9=57|35=0|34=125|49=QAAPA001|52=20180912-17:08:10.670|56=TRAX|10=198|8=FIXT.1.1|9=57|35=0|34=126|49=QAAPA001|52=20180912-17:08:40.670|56=TRAX|10=202|8=FIXT.1.1|9=57|35=0|34=127|49=QAAPA001|52=20180912-17:09:10.670|56=TRAX|10=201|8=FIXT.1.1|9=57|35=0|34=128|49=QAAPA001|52=20180912-17:09:40.670|56=TRAX|10=205|8=FIXT.1.1|9=57|35=0|34=129|49=QAAPA001|52=20180912-17:10:10.670|56=TRAX|10=195|8=FIXT.1.1|9=57|35=0|34=130|49=QAAPA001|52=20180912-17:10:40.670|56=TRAX|10=190|8=FIXT.1.1|9=57|35=0|34=131|49=QAAPA001|52=20180912-17:11:10.670|56=TRAX|10=189|8=FIXT.1.1|9=57|35=0|34=132|49=QAAPA001|52=20180912-17:11:40.672|56=TRAX|10=195|8=FIXT.1.1|9=57|35=0|34=133|49=QAAPA001|52=20180912-17:12:10.672|56=TRAX|10=194|8=FIXT.1.1|9=57|35=0|34=134|49=QAAPA001|52=20180912-17:12:40.672|56=TRAX|10=198|8=FIXT.1.1|9=57|35=0|34=135|49=QAAPA001|52=20180912-17:13:10.672|56=TRAX|10=197|8=FIXT.1.1|9=57|35=0|34=136|49=QAAPA001|52=20180912-17:13:41.672|56=TRAX|10=202|8=FIXT.1.1|9=57|35=0|34=137|49=QAAPA001|52=20180912-17:14:11.672|56=TRAX|10=201|8=FIXT.1.1|9=57|35=0|34=138|49=QAAPA001|52=20180912-17:14:41.672|56=TRAX|10=205|8=FIXT.1.1|9=57|35=0|34=139|49=QAAPA001|52=20180912-17:15:11.672|56=TRAX|10=204|8=FIXT.1.1|9=57|35=0|34=140|49=QAAPA001|52=20180912-17:15:41.672|56=TRAX|10=199|8=FIXT.1.1|9=57|35=0|34=141|49=QAAPA001|52=20180912-17:16:11.672|56=TRAX|10=198|8=FIXT.1.1|9=57|35=0|34=142|49=QAAPA001|52=20180912-17:16:41.672|56=TRAX|10=202|8=FIXT.1.1|9=57|35=0|34=143|49=QAAPA001|52=20180912-17:17:11.672|56=TRAX|10=201|8=FIXT.1.1|9=57|35=0|34=144|49=QAAPA001|52=20180912-17:17:41.672|56=TRAX|10=205|8=FIXT.1.1|9=57|35=0|34=145|49=QAAPA001|52=20180912-17:18:11.672|56=TRAX|10=204|8=FIXT.1.1|9=57|35=0|34=146|49=QAAPA001|52=20180912-17:18:41.672|56=TRAX|10=208|8=FIXT.1.1|9=57|35=0|34=147|49=QAAPA001|52=20180912-17:19:11.672|56=TRAX|10=207|8=FIXT.1.1|9=57|35=0|34=148|49=QAAPA001|52=20180912-17:19:41.672|56=TRAX|10=211|8=FIXT.1.1|9=57|35=0|34=149|49=QAAPA001|52=20180912-17:20:11.672|56=TRAX|10=201|8=FIXT.1.1|9=57|35=0|34=150|49=QAAPA001|52=20180912-17:20:41.672|56=TRAX|10=196|8=FIXT.1.1|9=57|35=0|34=151|49=QAAPA001|52=20180912-17:21:11.672|56=TRAX|10=195|8=FIXT.1.1|9=57|35=0|34=152|49=QAAPA001|52=20180912-17:21:41.673|56=TRAX|10=200|8=FIXT.1.1|9=57|35=0|34=153|49=QAAPA001|52=20180912-17:22:11.675|56=TRAX|10=201|8=FIXT.1.1|9=57|35=0|34=154|49=QAAPA001|52=20180912-17:22:42.674|56=TRAX|10=205|8=FIXT.1.1|9=57|35=0|34=155|49=QAAPA001|52=20180912-17:23:12.674|56=TRAX|10=204|8=FIXT.1.1|9=57|35=0|34=156|49=QAAPA001|52=20180912-17:23:42.674|56=TRAX|10=208|8=FIXT.1.1|9=57|35=0|34=157|49=QAAPA001|52=20180912-17:24:12.674|56=TRAX|10=207|8=FIXT.1.1|9=57|35=0|34=158|49=QAAPA001|52=20180912-17:24:42.675|56=TRAX|10=212|8=FIXT.1.1|9=57|35=0|34=159|49=QAAPA001|52=20180912-17:25:13.677|56=TRAX|10=214|8=FIXT.1.1|9=57|35=0|34=160|49=QAAPA001|52=20180912-17:25:44.674|56=TRAX|10=207|8=FIXT.1.1|9=57|35=0|34=161|49=QAAPA001|52=20180912-17:26:14.674|56=TRAX|10=206|8=FIXT.1.1|9=57|35=0|34=162|49=QAAPA001|52=20180912-17:26:44.674|56=TRAX|10=210|8=FIXT.1.1|9=57|35=0|34=163|49=QAAPA001|52=20180912-17:27:15.671|56=TRAX|10=207|8=FIXT.1.1|9=57|35=0|34=164|49=QAAPA001|52=20180912-17:27:45.674|56=TRAX|10=214|8=FIXT.1.1|9=57|35=0|34=165|49=QAAPA001|52=20180912-17:28:16.674|56=TRAX|10=214|8=FIXT.1.1|9=57|35=0|34=166|49=QAAPA001|52=20180912-17:28:47.671|56=TRAX|10=216|8=FIXT.1.1|9=57|35=0|34=167|49=QAAPA001|52=20180912-17:29:17.673|56=TRAX|10=217|8=FIXT.1.1|9=57|35=0|34=168|49=QAAPA001|52=20180912-17:29:47.673|56=TRAX|10=221|8=FIXT.1.1|9=57|35=0|34=169|49=QAAPA001|52=20180912-17:30:18.673|56=TRAX|10=212|8=FIXT.1.1|9=57|35=0|34=170|49=QAAPA001|52=20180912-17:30:49.673|56=TRAX|10=208|8=FIXT.1.1|9=57|35=0|34=171|49=QAAPA001|52=20180912-17:31:20.672|56=TRAX|10=198|8=FIXT.1.1|9=57|35=0|34=172|49=QAAPA001|52=20180912-17:31:50.672|56=TRAX|10=202|8=FIXT.1.1|9=57|35=0|34=173|49=QAAPA001|52=20180912-17:32:20.672|56=TRAX|10=201|8=FIXT.1.1|9=57|35=0|34=174|49=QAAPA001|52=20180912-17:32:50.672|56=TRAX|10=205|8=FIXT.1.1|9=57|35=0|34=175|49=QAAPA001|52=20180912-17:33:20.672|56=TRAX|10=204|8=FIXT.1.1|9=57|35=0|34=176|49=QAAPA001|52=20180912-17:33:50.674|56=TRAX|10=210|8=FIXT.1.1|9=57|35=0|34=177|49=QAAPA001|52=20180912-17:34:21.672|56=TRAX|10=208|8=FIXT.1.1|9=57|35=0|34=178|49=QAAPA001|52=20180912-17:34:51.672|56=TRAX|10=212|8=FIXT.1.1|9=57|35=0|34=179|49=QAAPA001|52=20180912-17:35:21.672|56=TRAX|10=211|8=FIXT.1.1|9=57|35=0|34=180|49=QAAPA001|52=20180912-17:35:51.672|56=TRAX|10=206|8=FIXT.1.1|9=57|35=0|34=181|49=QAAPA001|52=20180912-17:36:21.672|56=TRAX|10=205|8=FIXT.1.1|9=57|35=0|34=182|49=QAAPA001|52=20180912-17:36:51.673|56=TRAX|10=210|8=FIXT.1.1|9=57|35=0|34=183|49=QAAPA001|52=20180912-17:37:22.672|56=TRAX|10=209|8=FIXT.1.1|9=57|35=0|34=184|49=QAAPA001|52=20180912-17:37:52.672|56=TRAX|10=213|8=FIXT.1.1|9=57|35=0|34=185|49=QAAPA001|52=20180912-17:38:22.672|56=TRAX|10=212|8=FIXT.1.1|9=57|35=0|34=186|49=QAAPA001|52=20180912-17:38:52.672|56=TRAX|10=216|8=FIXT.1.1|9=57|35=0|34=187|49=QAAPA001|52=20180912-17:39:22.673|56=TRAX|10=216|8=FIXT.1.1|9=57|35=0|34=188|49=QAAPA001|52=20180912-17:39:53.673|56=TRAX|10=221|8=FIXT.1.1|9=57|35=0|34=189|49=QAAPA001|52=20180912-17:40:24.673|56=TRAX|10=212|8=FIXT.1.1|9=57|35=0|34=190|49=QAAPA001|52=20180912-17:40:55.672|56=TRAX|10=207|8=FIXT.1.1|9=57|35=0|34=191|49=QAAPA001|52=20180912-17:41:25.672|56=TRAX|10=206|8=FIXT.1.1|9=57|35=0|34=192|49=QAAPA001|52=20180912-17:41:55.672|56=TRAX|10=210|8=FIXT.1.1|9=57|35=0|34=193|49=QAAPA001|52=20180912-17:42:25.672|56=TRAX|10=209|8=FIXT.1.1|9=57|35=0|34=194|49=QAAPA001|52=20180912-17:42:55.672|56=TRAX|10=213|8=FIXT.1.1|9=57|35=0|34=195|49=QAAPA001|52=20180912-17:43:25.672|56=TRAX|10=212|8=FIXT.1.1|9=57|35=0|34=196|49=QAAPA001|52=20180912-17:43:55.672|56=TRAX|10=216|8=FIXT.1.1|9=57|35=0|34=197|49=QAAPA001|52=20180912-17:44:25.672|56=TRAX|10=215|8=FIXT.1.1|9=57|35=0|34=198|49=QAAPA001|52=20180912-17:44:55.690|56=TRAX|10=219|8=FIXT.1.1|9=57|35=0|34=199|49=QAAPA001|52=20180912-17:45:26.670|56=TRAX|10=217|8=FIXT.1.1|9=57|35=0|34=200|49=QAAPA001|52=20180912-17:45:56.670|56=TRAX|10=203|8=FIXT.1.1|9=57|35=0|34=201|49=QAAPA001|52=20180912-17:46:26.670|56=TRAX|10=202|8=FIXT.1.1|9=57|35=0|34=202|49=QAAPA001|52=20180912-17:46:56.672|56=TRAX|10=208|8=FIXT.1.1|9=57|35=0|34=203|49=QAAPA001|52=20180912-17:47:26.672|56=TRAX|10=207|8=FIXT.1.1|9=57|35=0|34=204|49=QAAPA001|52=20180912-17:47:56.672|56=TRAX|10=211|8=FIXT.1.1|9=57|35=0|34=205|49=QAAPA001|52=20180912-17:48:26.672|56=TRAX|10=210|8=FIXT.1.1|9=57|35=0|34=206|49=QAAPA001|52=20180912-17:48:56.673|56=TRAX|10=215|8=FIXT.1.1|9=57|35=0|34=207|49=QAAPA001|52=20180912-17:49:27.673|56=TRAX|10=215|8=FIXT.1.1|9=57|35=0|34=208|49=QAAPA001|52=20180912-17:49:58.668|56=TRAX|10=224|8=FIXT.1.1|9=57|35=0|34=209|49=QAAPA001|52=20180912-17:50:28.668|56=TRAX|10=214|8=FIXT.1.1|9=57|35=0|34=210|49=QAAPA001|52=20180912-17:50:58.668|56=TRAX|10=209|8=FIXT.1.1|9=57|35=0|34=211|49=QAAPA001|52=20180912-17:51:28.668|56=TRAX|10=208|8=FIXT.1.1|9=57|35=0|34=212|49=QAAPA001|52=20180912-17:51:58.668|56=TRAX|10=212|8=FIXT.1.1|9=57|35=0|34=213|49=QAAPA001|52=20180912-17:52:28.669|56=TRAX|10=212|8=FIXT.1.1|9=57|35=0|34=214|49=QAAPA001|52=20180912-17:52:59.668|56=TRAX|10=216|8=FIXT.1.1|9=57|35=0|34=215|49=QAAPA001|52=20180912-17:53:29.668|56=TRAX|10=215|8=FIXT.1.1|9=57|35=0|34=216|49=QAAPA001|52=20180912-17:53:59.668|56=TRAX|10=219|8=FIXT.1.1|9=57|35=0|34=217|49=QAAPA001|52=20180912-17:54:29.668|56=TRAX|10=218|8=FIXT.1.1|9=57|35=0|34=218|49=QAAPA001|52=20180912-17:54:59.668|56=TRAX|10=222|8=FIXT.1.1|9=57|35=0|34=219|49=QAAPA001|52=20180912-17:55:29.668|56=TRAX|10=221|8=FIXT.1.1|9=57|35=0|34=220|49=QAAPA001|52=20180912-17:55:59.668|56=TRAX|10=216|8=FIXT.1.1|9=57|35=0|34=221|49=QAAPA001|52=20180912-17:56:29.672|56=TRAX|10=210|8=FIXT.1.1|9=57|35=0|34=222|49=QAAPA001|52=20180912-17:56:59.672|56=TRAX|10=214|8=FIXT.1.1|9=57|35=0|34=223|49=QAAPA001|52=20180912-17:57:29.672|56=TRAX|10=213|8=FIXT.1.1|9=57|35=0|34=224|49=QAAPA001|52=20180912-17:58:00.671|56=TRAX|10=203|8=FIXT.1.1|9=57|35=0|34=225|49=QAAPA001|52=20180912-17:58:30.671|56=TRAX|10=207|8=FIXT.1.1|9=57|35=0|34=226|49=QAAPA001|52=20180912-17:59:00.671|56=TRAX|10=206|8=FIXT.1.1|9=57|35=0|34=227|49=QAAPA001|52=20180912-17:59:30.671|56=TRAX|10=210|8=FIXT.1.1|9=57|35=0|34=228|49=QAAPA001|52=20180912-18:00:01.671|56=TRAX|10=196|8=FIXT.1.1|9=57|35=0|34=229|49=QAAPA001|52=20180912-18:00:31.671|56=TRAX|10=200|8=FIXT.1.1|9=57|35=0|34=230|49=QAAPA001|52=20180912-18:01:02.670|56=TRAX|10=190|8=FIXT.1.1|9=57|35=0|34=231|49=QAAPA001|52=20180912-18:01:32.670|56=TRAX|10=194|8=FIXT.1.1|9=57|35=0|34=232|49=QAAPA001|52=20180912-18:02:02.670|56=TRAX|10=193|8=FIXT.1.1|9=57|35=0|34=233|49=QAAPA001|52=20180912-18:02:32.670|56=TRAX|10=197|8=FIXT.1.1|9=57|35=0|34=234|49=QAAPA001|52=20180912-18:03:02.670|56=TRAX|10=196|8=FIXT.1.1|9=57|35=0|34=235|49=QAAPA001|52=20180912-18:03:32.670|56=TRAX|10=200|8=FIXT.1.1|9=57|35=0|34=236|49=QAAPA001|52=20180912-18:04:02.671|56=TRAX|10=200|8=FIXT.1.1|9=57|35=0|34=237|49=QAAPA001|52=20180912-18:04:33.546|56=TRAX|10=206|8=FIXT.1.1|9=57|35=0|34=238|49=QAAPA001|52=20180912-18:05:03.546|56=TRAX|10=205|8=FIXT.1.1|9=57|35=0|34=239|49=QAAPA001|52=20180912-18:05:33.546|56=TRAX|10=209|8=FIXT.1.1|9=57|35=0|34=240|49=QAAPA001|52=20180912-18:06:03.547|56=TRAX|10=200|8=FIXT.1.1|9=57|35=0|34=241|49=QAAPA001|52=20180912-18:06:33.670|56=TRAX|10=201|8=FIXT.1.1|9=57|35=0|34=242|49=QAAPA001|52=20180912-18:07:03.670|56=TRAX|10=200|8=FIXT.1.1|9=57|35=0|34=243|49=QAAPA001|52=20180912-18:07:33.670|56=TRAX|10=204|8=FIXT.1.1|9=57|35=0|34=244|49=QAAPA001|52=20180912-18:08:03.671|56=TRAX|10=204|8=FIXT.1.1|9=57|35=0|34=245|49=QAAPA001|52=20180912-18:08:34.670|56=TRAX|10=208|8=FIXT.1.1|9=57|35=0|34=246|49=QAAPA001|52=20180912-18:09:04.670|56=TRAX|10=207|8=FIXT.1.1|9=57|35=0|34=247|49=QAAPA001|52=20180912-18:09:34.670|56=TRAX|10=211|8=FIXT.1.1|9=57|35=0|34=248|49=QAAPA001|52=20180912-18:10:04.670|56=TRAX|10=201|8=FIXT.1.1|9=57|35=0|34=249|49=QAAPA001|52=20180912-18:10:34.670|56=TRAX|10=205|8=FIXT.1.1|9=57|35=0|34=250|49=QAAPA001|52=20180912-18:11:04.670|56=TRAX|10=195|8=FIXT.1.1|9=57|35=0|34=251|49=QAAPA001|52=20180912-18:11:34.670|56=TRAX|10=199|8=FIXT.1.1|9=57|35=0|34=252|49=QAAPA001|52=20180912-18:12:04.671|56=TRAX|10=199|8=FIXT.1.1|9=57|35=0|34=253|49=QAAPA001|52=20180912-18:12:35.672|56=TRAX|10=205|8=FIXT.1.1|9=57|35=0|34=254|49=QAAPA001|52=20180912-18:13:06.666|56=TRAX|10=208|8=FIXT.1.1|9=57|35=0|34=255|49=QAAPA001|52=20180912-18:13:36.670|56=TRAX|10=207|8=FIXT.1.1|9=57|35=0|34=256|49=QAAPA001|52=20180912-18:14:06.671|56=TRAX|10=207|8=FIXT.1.1|9=57|35=0|34=257|49=QAAPA001|52=20180912-18:14:36.671|56=TRAX|10=211|8=FIXT.1.1|9=57|35=0|34=258|49=QAAPA001|52=20180912-18:15:06.671|56=TRAX|10=210|8=FIXT.1.1|9=57|35=0|34=259|49=QAAPA001|52=20180912-18:15:37.670|56=TRAX|10=214|8=FIXT.1.1|9=57|35=0|34=260|49=QAAPA001|52=20180912-18:16:07.671|56=TRAX|10=205|8=FIXT.1.1|9=57|35=0|34=261|49=QAAPA001|52=20180912-18:16:38.671|56=TRAX|10=210|8=FIXT.1.1|9=57|35=0|34=262|49=QAAPA001|52=20180912-18:17:08.672|56=TRAX|10=210|8=FIXT.1.1|9=57|35=0|34=263|49=QAAPA001|52=20180912-18:17:39.670|56=TRAX|10=213|8=FIXT.1.1|9=57|35=0|34=264|49=QAAPA001|52=20180912-18:18:09.670|56=TRAX|10=212|8=FIXT.1.1|9=57|35=0|34=265|49=QAAPA001|52=20180912-18:18:39.670|56=TRAX|10=216|8=FIXT.1.1|9=57|35=0|34=266|49=QAAPA001|52=20180912-18:19:09.670|56=TRAX|10=215|8=FIXT.1.1|9=57|35=0|34=267|49=QAAPA001|52=20180912-18:19:39.670|56=TRAX|10=219|8=FIXT.1.1|9=57|35=0|34=268|49=QAAPA001|52=20180912-18:20:09.670|56=TRAX|10=209|8=FIXT.1.1|9=57|35=0|34=269|49=QAAPA001|52=20180912-18:20:39.670|56=TRAX|10=213|8=FIXT.1.1|9=57|35=0|34=270|49=QAAPA001|52=20180912-18:21:09.670|56=TRAX|10=203|8=FIXT.1.1|9=57|35=0|34=271|49=QAAPA001|52=20180912-18:21:39.670|56=TRAX|10=207|8=FIXT.1.1|9=57|35=0|34=272|49=QAAPA001|52=20180912-18:22:09.670|56=TRAX|10=206|8=FIXT.1.1|9=57|35=0|34=273|49=QAAPA001|52=20180912-18:22:39.670|56=TRAX|10=210|8=FIXT.1.1|9=57|35=0|34=274|49=QAAPA001|52=20180912-18:23:09.670|56=TRAX|10=209|8=FIXT.1.1|9=57|35=0|34=275|49=QAAPA001|52=20180912-18:23:39.670|56=TRAX|10=213|8=FIXT.1.1|9=57|35=0|34=276|49=QAAPA001|52=20180912-18:24:09.671|56=TRAX|10=213|8=FIXT.1.1|9=57|35=0|34=277|49=QAAPA001|52=20180912-18:24:39.671|56=TRAX|10=217|8=FIXT.1.1|9=57|35=0|34=278|49=QAAPA001|52=20180912-18:25:10.670|56=TRAX|10=207|8=FIXT.1.1|9=57|35=0|34=279|49=QAAPA001|52=20180912-18:25:40.671|56=TRAX|10=212|8=FIXT.1.1|9=57|35=0|34=280|49=QAAPA001|52=20180912-18:26:10.671|56=TRAX|10=202|8=FIXT.1.1|9=57|35=0|34=281|49=QAAPA001|52=20180912-18:26:40.671|56=TRAX|10=206|8=FIXT.1.1|9=57|35=0|34=282|49=QAAPA001|52=20180912-18:27:11.670|56=TRAX|10=205|8=FIXT.1.1|9=57|35=0|34=283|49=QAAPA001|52=20180912-18:27:41.670|56=TRAX|10=209|8=FIXT.1.1|9=57|35=0|34=284|49=QAAPA001|52=20180912-18:28:11.670|56=TRAX|10=208|8=FIXT.1.1|9=57|35=0|34=285|49=QAAPA001|52=20180912-18:28:41.670|56=TRAX|10=212|8=FIXT.1.1|9=57|35=0|34=286|49=QAAPA001|52=20180912-18:29:11.670|56=TRAX|10=211|8=FIXT.1.1|9=57|35=0|34=287|49=QAAPA001|52=20180912-18:29:41.670|56=TRAX|10=215|8=FIXT.1.1|9=57|35=0|34=288|49=QAAPA001|52=20180912-18:30:11.670|56=TRAX|10=205|8=FIXT.1.1|9=57|35=0|34=289|49=QAAPA001|52=20180912-18:30:41.671|56=TRAX|10=210|8=FIXT.1.1|9=57|35=0|34=290|49=QAAPA001|52=20180912-18:31:12.666|56=TRAX|10=205|8=FIXT.1.1|9=57|35=0|34=291|49=QAAPA001|52=20180912-18:31:42.666|56=TRAX|10=209|8=FIXT.1.1|9=57|35=0|34=292|49=QAAPA001|52=20180912-18:32:12.668|56=TRAX|10=210|8=FIXT.1.1|9=57|35=0|34=293|49=QAAPA001|52=20180912-18:32:42.669|56=TRAX|10=215|8=FIXT.1.1|9=57|35=0|34=294|49=QAAPA001|52=20180912-18:33:12.670|56=TRAX|10=206|8=FIXT.1.1|9=57|35=0|34=295|49=QAAPA001|52=20180912-18:33:43.669|56=TRAX|10=219|8=FIXT.1.1|9=57|35=0|34=296|49=QAAPA001|52=20180912-18:34:13.669|56=TRAX|10=218|8=FIXT.1.1|9=57|35=0|34=297|49=QAAPA001|52=20180912-18:34:43.670|56=TRAX|10=214|8=FIXT.1.1|9=57|35=0|34=298|49=QAAPA001|52=20180912-18:35:14.669|56=TRAX|10=222|8=FIXT.1.1|9=57|35=0|34=299|49=QAAPA001|52=20180912-18:35:45.669|56=TRAX|10=227|8=FIXT.1.1|9=57|35=0|34=300|49=QAAPA001|52=20180912-18:36:15.669|56=TRAX|10=208|8=FIXT.1.1|9=57|35=0|34=301|49=QAAPA001|52=20180912-18:36:46.668|56=TRAX|10=212|8=FIXT.1.1|9=57|35=0|34=302|49=QAAPA001|52=20180912-18:37:17.665|56=TRAX|10=209|8=FIXT.1.1|9=57|35=0|34=303|49=QAAPA001|52=20180912-18:37:48.664|56=TRAX|10=213|8=FIXT.1.1|9=57|35=0|34=304|49=QAAPA001|52=20180912-18:38:18.664|56=TRAX|10=212|8=FIXT.1.1|9=57|35=0|34=305|49=QAAPA001|52=20180912-18:38:48.665|56=TRAX|10=217|8=FIXT.1.1|9=57|35=0|34=306|49=QAAPA001|52=20180912-18:39:19.664|56=TRAX|10=216|8=FIXT.1.1|9=57|35=0|34=307|49=QAAPA001|52=20180912-18:39:49.665|56=TRAX|10=221|8=FIXT.1.1|9=57|35=0|34=308|49=QAAPA001|52=20180912-18:40:19.665|56=TRAX|10=211|8=FIXT.1.1|9=57|35=0|34=309|49=QAAPA001|52=20180912-18:40:50.664|56=TRAX|10=206|8=FIXT.1.1|9=57|35=0|34=310|49=QAAPA001|52=20180912-18:41:20.664|56=TRAX|10=196|8=FIXT.1.1|9=57|35=0|34=311|49=QAAPA001|52=20180912-18:41:50.665|56=TRAX|10=201|8=FIXT.1.1|9=57|35=0|34=312|49=QAAPA001|52=20180912-18:42:21.665|56=TRAX|10=201|8=FIXT.1.1|9=57|35=0|34=313|49=QAAPA001|52=20180912-18:42:52.665|56=TRAX|10=206|8=FIXT.1.1|9=57|35=0|34=314|49=QAAPA001|52=20180912-18:43:23.664|56=TRAX|10=205|8=FIXT.1.1|9=57|35=0|34=315|49=QAAPA001|52=20180912-18:43:53.664|56=TRAX|10=209|8=FIXT.1.1|9=57|35=0|34=316|49=QAAPA001|52=20180912-18:44:23.665|56=TRAX|10=209|8=FIXT.1.1|9=57|35=0|34=317|49=QAAPA001|52=20180912-18:44:54.665|56=TRAX|10=214|8=FIXT.1.1|9=57|35=0|34=318|49=QAAPA001|52=20180912-18:45:25.664|56=TRAX|10=213|8=FIXT.1.1|9=57|35=0|34=319|49=QAAPA001|52=20180912-18:45:55.664|56=TRAX|10=217|8=FIXT.1.1|9=57|35=0|34=320|49=QAAPA001|52=20180912-18:46:25.664|56=TRAX|10=207|8=FIXT.1.1|9=57|35=0|34=321|49=QAAPA001|52=20180912-18:46:55.664|56=TRAX|10=211|8=FIXT.1.1|9=57|35=0|34=322|49=QAAPA001|52=20180912-18:47:25.664|56=TRAX|10=210|8=FIXT.1.1|9=57|35=0|34=323|49=QAAPA001|52=20180912-18:47:55.664|56=TRAX|10=214|8=FIXT.1.1|9=57|35=0|34=324|49=QAAPA001|52=20180912-18:48:26.664|56=TRAX|10=214|8=FIXT.1.1|9=57|35=0|34=325|49=QAAPA001|52=20180912-18:48:57.664|56=TRAX|10=219|8=FIXT.1.1|9=57|35=0|34=326|49=QAAPA001|52=20180912-18:49:28.662|56=TRAX|10=217|8=FIXT.1.1|9=57|35=0|34=327|49=QAAPA001|52=20180912-18:49:58.663|56=TRAX|10=222|8=FIXT.1.1|9=57|35=0|34=328|49=QAAPA001|52=20180912-18:50:28.663|56=TRAX|10=212|8=FIXT.1.1|9=57|35=0|34=329|49=QAAPA001|52=20180912-18:50:59.662|56=TRAX|10=216|8=FIXT.1.1|9=57|35=0|34=330|49=QAAPA001|52=20180912-18:51:29.662|56=TRAX|10=206|8=FIXT.1.1|9=57|35=0|34=331|49=QAAPA001|52=20180912-18:51:59.662|56=TRAX|10=210|8=FIXT.1.1|9=57|35=0|34=332|49=QAAPA001|52=20180912-18:52:29.662|56=TRAX|10=209|8=FIXT.1.1|9=57|35=0|34=333|49=QAAPA001|52=20180912-18:53:00.662|56=TRAX|10=200|8=FIXT.1.1|9=57|35=0|34=334|49=QAAPA001|52=20180912-18:53:31.662|56=TRAX|10=205|8=FIXT.1.1|9=57|35=0|34=335|49=QAAPA001|52=20180912-18:54:02.661|56=TRAX|10=204|8=FIXT.1.1|9=57|35=0|34=336|49=QAAPA001|52=20180912-18:54:32.661|56=TRAX|10=208|8=FIXT.1.1|9=57|35=0|34=337|49=QAAPA001|52=20180912-18:55:02.661|56=TRAX|10=207|8=FIXT.1.1|9=57|35=0|34=338|49=QAAPA001|52=20180912-18:55:32.662|56=TRAX|10=212|8=FIXT.1.1|9=57|35=0|34=339|49=QAAPA001|52=20180912-18:56:02.662|56=TRAX|10=211|8=FIXT.1.1|9=57|35=0|34=340|49=QAAPA001|52=20180912-18:56:33.521|56=TRAX|10=201|8=FIXT.1.1|9=57|35=0|34=341|49=QAAPA001|52=20180912-18:57:03.660|56=TRAX|10=204|8=FIXT.1.1|9=57|35=0|34=342|49=QAAPA001|52=20180912-18:57:33.660|56=TRAX|10=208|8=FIXT.1.1|9=57|35=0|34=343|49=QAAPA001|52=20180912-18:58:03.660|56=TRAX|10=207|8=FIXT.1.1|9=57|35=0|34=344|49=QAAPA001|52=20180912-18:58:34.659|56=TRAX|10=220|8=FIXT.1.1|9=57|35=0|34=345|49=QAAPA001|52=20180912-18:59:04.659|56=TRAX|10=219|8=FIXT.1.1|9=57|35=0|34=346|49=QAAPA001|52=20180912-18:59:34.659|56=TRAX|10=223|8=FIXT.1.1|9=57|35=0|34=347|49=QAAPA001|52=20180912-19:00:05.658|56=TRAX|10=208|8=FIXT.1.1|9=57|35=0|34=348|49=QAAPA001|52=20180912-19:00:35.658|56=TRAX|10=212|8=FIXT.1.1|9=57|35=0|34=349|49=QAAPA001|52=20180912-19:01:05.660|56=TRAX|10=204|8=FIXT.1.1|9=57|35=0|34=350|49=QAAPA001|52=20180912-19:01:36.658|56=TRAX|10=207|8=FIXT.1.1|9=57|35=0|34=351|49=QAAPA001|52=20180912-19:02:06.658|56=TRAX|10=206|8=FIXT.1.1|9=57|35=0|34=352|49=QAAPA001|52=20180912-19:02:36.658|56=TRAX|10=210|8=FIXT.1.1|9=57|35=0|34=353|49=QAAPA001|52=20180912-19:03:06.659|56=TRAX|10=210|8=FIXT.1.1|9=57|35=0|34=354|49=QAAPA001|52=20180912-19:03:37.659|56=TRAX|10=215|8=FIXT.1.1|9=57|35=0|34=355|49=QAAPA001|52=20180912-19:04:08.658|56=TRAX|10=214|8=FIXT.1.1|9=57|35=0|34=356|49=QAAPA001|52=20180912-19:04:38.658|56=TRAX|10=218|8=FIXT.1.1|9=57|35=0|34=357|49=QAAPA001|52=20180912-19:05:08.659|56=TRAX|10=218|8=FIXT.1.1|9=57|35=0|34=358|49=QAAPA001|52=20180912-19:05:38.659|56=TRAX|10=222|8=FIXT.1.1|9=57|35=0|34=359|49=QAAPA001|52=20180912-19:06:08.659|56=TRAX|10=221|8=FIXT.1.1|9=57|35=0|34=360|49=QAAPA001|52=20180912-19:06:38.659|56=TRAX|10=216|8=FIXT.1.1|9=57|35=0|34=361|49=QAAPA001|52=20180912-19:07:08.660|56=TRAX|10=207|8=FIXT.1.1|9=57|35=0|34=362|49=QAAPA001|52=20180912-19:07:38.664|56=TRAX|10=215|8=FIXT.1.1|9=57|35=0|34=363|49=QAAPA001|52=20180912-19:08:09.661|56=TRAX|10=212|8=FIXT.1.1|9=57|35=0|34=364|49=QAAPA001|52=20180912-19:08:40.661|56=TRAX|10=208|8=FIXT.1.1|9=57|35=0|34=365|49=QAAPA001|52=20180912-19:09:11.661|56=TRAX|10=208|8=FIXT.1.1|9=57|35=0|34=366|49=QAAPA001|52=20180912-19:09:41.661|56=TRAX|10=212|8=FIXT.1.1|9=57|35=0|34=367|49=QAAPA001|52=20180912-19:10:11.661|56=TRAX|10=202|8=FIXT.1.1|9=57|35=0|34=368|49=QAAPA001|52=20180912-19:10:41.661|56=TRAX|10=206|8=FIXT.1.1|9=57|35=0|34=369|49=QAAPA001|52=20180912-19:11:11.661|56=TRAX|10=205|8=FIXT.1.1|9=57|35=0|34=370|49=QAAPA001|52=20180912-19:11:41.662|56=TRAX|10=201|8=FIXT.1.1|9=57|35=0|34=371|49=QAAPA001|52=20180912-19:12:12.662|56=TRAX|10=201|8=FIXT.1.1|9=57|35=0|34=372|49=QAAPA001|52=20180912-19:12:42.662|56=TRAX|10=205|8=FIXT.1.1|9=57|35=0|34=373|49=QAAPA001|52=20180912-19:13:12.663|56=TRAX|10=205|8=FIXT.1.1|9=57|35=0|34=374|49=QAAPA001|52=20180912-19:13:43.662|56=TRAX|10=209|8=FIXT.1.1|9=57|35=0|34=375|49=QAAPA001|52=20180912-19:14:13.662|56=TRAX|10=208|8=FIXT.1.1|9=57|35=0|34=376|49=QAAPA001|52=20180912-19:14:43.663|56=TRAX|10=213|8=FIXT.1.1|9=57|35=0|34=377|49=QAAPA001|52=20180912-19:15:13.663|56=TRAX|10=212|8=FIXT.1.1|9=57|35=0|34=378|49=QAAPA001|52=20180912-19:15:43.663|56=TRAX|10=216|8=FIXT.1.1|9=57|35=0|34=379|49=QAAPA001|52=20180912-19:16:13.664|56=TRAX|10=216|8=FIXT.1.1|9=57|35=0|34=380|49=QAAPA001|52=20180912-19:16:43.664|56=TRAX|10=211|8=FIXT.1.1|9=57|35=0|34=381|49=QAAPA001|52=20180912-19:17:13.664|56=TRAX|10=210|8=FIXT.1.1|9=57|35=0|34=382|49=QAAPA001|52=20180912-19:17:43.664|56=TRAX|10=214|8=FIXT.1.1|9=57|35=0|34=383|49=QAAPA001|52=20180912-19:18:13.664|56=TRAX|10=213|8=FIXT.1.1|9=57|35=0|34=384|49=QAAPA001|52=20180912-19:18:43.665|56=TRAX|10=218|8=FIXT.1.1|9=57|35=0|34=385|49=QAAPA001|52=20180912-19:19:14.665|56=TRAX|10=218|8=FIXT.1.1|9=57|35=0|34=386|49=QAAPA001|52=20180912-19:19:45.664|56=TRAX|10=222|8=FIXT.1.1|9=57|35=0|34=387|49=QAAPA001|52=20180912-19:20:15.665|56=TRAX|10=213|8=FIXT.1.1|9=57|35=0|34=388|49=QAAPA001|52=20180912-19:20:45.665|56=TRAX|10=217|8=FIXT.1.1|9=57|35=0|34=389|49=QAAPA001|52=20180912-19:21:15.666|56=TRAX|10=217|8=FIXT.1.1|9=57|35=0|34=390|49=QAAPA001|52=20180912-19:21:45.666|56=TRAX|10=212|8=FIXT.1.1|9=57|35=0|34=391|49=QAAPA001|52=20180912-19:22:15.666|56=TRAX|10=211|8=FIXT.1.1|9=57|35=0|34=392|49=QAAPA001|52=20180912-19:22:45.666|56=TRAX|10=215|8=FIXT.1.1|9=57|35=0|34=393|49=QAAPA001|52=20180912-19:23:15.666|56=TRAX|10=214|8=FIXT.1.1|9=57|35=0|34=394|49=QAAPA001|52=20180912-19:23:45.667|56=TRAX|10=219|8=FIXT.1.1|9=57|35=0|34=395|49=QAAPA001|52=20180912-19:24:15.668|56=TRAX|10=219|8=FIXT.1.1|9=57|35=0|34=396|49=QAAPA001|52=20180912-19:24:46.666|56=TRAX|10=222|8=FIXT.1.1|9=57|35=0|34=397|49=QAAPA001|52=20180912-19:25:16.667|56=TRAX|10=222|8=FIXT.1.1|9=57|35=0|34=398|49=QAAPA001|52=20180912-19:25:46.667|56=TRAX|10=226|8=FIXT.1.1|9=57|35=0|34=399|49=QAAPA001|52=20180912-19:26:16.667|56=TRAX|10=225|8=FIXT.1.1|9=57|35=0|34=400|49=QAAPA001|52=20180912-19:26:46.668|56=TRAX|10=212|8=FIXT.1.1|9=57|35=0|34=401|49=QAAPA001|52=20180912-19:27:17.668|56=TRAX|10=212|8=FIXT.1.1|9=57|35=0|34=402|49=QAAPA001|52=20180912-19:27:47.668|56=TRAX|10=216|8=FIXT.1.1|9=57|35=0|34=403|49=QAAPA001|52=20180912-19:28:17.669|56=TRAX|10=216|8=FIXT.1.1|9=57|35=0|34=404|49=QAAPA001|52=20180912-19:28:48.668|56=TRAX|10=220|8=FIXT.1.1|9=57|35=0|34=405|49=QAAPA001|52=20180912-19:29:18.669|56=TRAX|10=220|8=FIXT.1.1|9=57|35=0|34=406|49=QAAPA001|52=20180912-19:29:48.669|56=TRAX|10=224|8=FIXT.1.1|9=57|35=0|34=407|49=QAAPA001|52=20180912-19:30:18.669|56=TRAX|10=214|8=FIXT.1.1|9=57|35=0|34=408|49=QAAPA001|52=20180912-19:30:48.669|56=TRAX|10=218|8=FIXT.1.1|9=57|35=0|34=409|49=QAAPA001|52=20180912-19:31:18.669|56=TRAX|10=217|8=FIXT.1.1|9=57|35=0|34=410|49=QAAPA001|52=20180912-19:31:48.669|56=TRAX|10=212|8=FIXT.1.1|9=57|35=0|34=411|49=QAAPA001|52=20180912-19:32:18.670|56=TRAX|10=203|8=FIXT.1.1|9=57|35=0|34=412|49=QAAPA001|52=20180912-19:32:48.670|56=TRAX|10=207|8=FIXT.1.1|9=57|35=0|34=413|49=QAAPA001|52=20180912-19:33:18.671|56=TRAX|10=207|8=FIXT.1.1|9=57|35=0|34=414|49=QAAPA001|52=20180912-19:33:48.671|56=TRAX|10=211|8=FIXT.1.1|9=57|35=0|34=415|49=QAAPA001|52=20180912-19:34:18.671|56=TRAX|10=210|8=FIXT.1.1|9=57|35=0|34=416|49=QAAPA001|52=20180912-19:34:48.671|56=TRAX|10=214|8=FIXT.1.1|9=57|35=0|34=417|49=QAAPA001|52=20180912-19:35:18.671|56=TRAX|10=213|8=FIXT.1.1|9=57|35=0|34=418|49=QAAPA001|52=20180912-19:35:48.672|56=TRAX|10=218|8=FIXT.1.1|9=57|35=0|34=419|49=QAAPA001|52=20180912-19:36:19.671|56=TRAX|10=217|8=FIXT.1.1|9=57|35=0|34=420|49=QAAPA001|52=20180912-19:36:49.671|56=TRAX|10=212|8=FIXT.1.1|9=57|35=0|34=421|49=QAAPA001|52=20180912-19:37:19.672|56=TRAX|10=212|8=FIXT.1.1|9=57|35=0|34=422|49=QAAPA001|52=20180912-19:37:49.672|56=TRAX|10=216|8=FIXT.1.1|9=57|35=0|34=423|49=QAAPA001|52=20180912-19:38:19.672|56=TRAX|10=215|8=FIXT.1.1|9=57|35=0|34=424|49=QAAPA001|52=20180912-19:38:49.672|56=TRAX|10=219|8=FIXT.1.1|9=57|35=0|34=425|49=QAAPA001|52=20180912-19:39:19.673|56=TRAX|10=219|8=FIXT.1.1|9=57|35=0|34=426|49=QAAPA001|52=20180912-19:39:50.674|56=TRAX|10=216|8=FIXT.1.1|9=57|35=0|34=427|49=QAAPA001|52=20180912-19:40:21.673|56=TRAX|10=206|8=FIXT.1.1|9=57|35=0|34=428|49=QAAPA001|52=20180912-19:40:51.673|56=TRAX|10=210|8=FIXT.1.1|9=57|35=0|34=429|49=QAAPA001|52=20180912-19:41:21.674|56=TRAX|10=210|8=FIXT.1.1|9=57|35=0|34=430|49=QAAPA001|52=20180912-19:41:52.674|56=TRAX|10=206|8=FIXT.1.1|9=57|35=0|34=431|49=QAAPA001|52=20180912-19:42:22.674|56=TRAX|10=205|8=FIXT.1.1|9=57|35=0|34=432|49=QAAPA001|52=20180912-19:42:52.674|56=TRAX|10=209|8=FIXT.1.1|9=57|35=0|34=433|49=QAAPA001|52=20180912-19:43:22.674|56=TRAX|10=208|8=FIXT.1.1|9=57|35=0|34=434|49=QAAPA001|52=20180912-19:43:52.674|56=TRAX|10=212|8=FIXT.1.1|9=57|35=0|34=435|49=QAAPA001|52=20180912-19:44:22.675|56=TRAX|10=212|8=FIXT.1.1|9=57|35=0|34=436|49=QAAPA001|52=20180912-19:44:53.676|56=TRAX|10=218|8=FIXT.1.1|9=57|35=0|34=437|49=QAAPA001|52=20180912-19:45:24.679|56=TRAX|10=221|8=FIXT.1.1|9=57|35=0|34=438|49=QAAPA001|52=20180912-19:45:55.675|56=TRAX|10=222|8=FIXT.1.1|9=57|35=0|34=439|49=QAAPA001|52=20180912-19:46:25.675|56=TRAX|10=221|8=FIXT.1.1|9=57|35=0|34=440|49=QAAPA001|52=20180912-19:46:55.677|56=TRAX|10=218|8=FIXT.1.1|9=57|35=0|34=441|49=QAAPA001|52=20180912-19:47:26.677|56=TRAX|10=218|8=FIXT.1.1|9=57|35=0|34=442|49=QAAPA001|52=20180912-19:47:57.676|56=TRAX|10=222|8=FIXT.1.1|9=57|35=0|34=443|49=QAAPA001|52=20180912-19:48:27.676|56=TRAX|10=221|8=FIXT.1.1|9=57|35=0|34=444|49=QAAPA001|52=20180912-19:48:57.676|56=TRAX|10=225|8=FIXT.1.1|9=57|35=0|34=445|49=QAAPA001|52=20180912-19:49:27.678|56=TRAX|10=226|8=FIXT.1.1|9=57|35=0|34=446|49=QAAPA001|52=20180912-19:49:58.677|56=TRAX|10=230|8=FIXT.1.1|9=57|35=0|34=447|49=QAAPA001|52=20180912-19:50:28.677|56=TRAX|10=220|8=FIXT.1.1|9=57|35=0|34=448|49=QAAPA001|52=20180912-19:50:58.677|56=TRAX|10=224|8=FIXT.1.1|9=57|35=0|34=449|49=QAAPA001|52=20180912-19:51:28.678|56=TRAX|10=224|8=FIXT.1.1|9=57|35=0|34=450|49=QAAPA001|52=20180912-19:51:58.678|56=TRAX|10=219|8=FIXT.1.1|9=57|35=0|34=451|49=QAAPA001|52=20180912-19:52:28.678|56=TRAX|10=218|8=FIXT.1.1|9=57|35=0|34=452|49=QAAPA001|52=20180912-19:52:58.678|56=TRAX|10=222|8=FIXT.1.1|9=57|35=0|34=453|49=QAAPA001|52=20180912-19:53:28.678|56=TRAX|10=221|8=FIXT.1.1|9=57|35=0|34=454|49=QAAPA001|52=20180912-19:53:58.678|56=TRAX|10=225|8=FIXT.1.1|9=57|35=0|34=455|49=QAAPA001|52=20180912-19:54:28.679|56=TRAX|10=225|8=FIXT.1.1|9=57|35=0|34=456|49=QAAPA001|52=20180912-19:54:58.679|56=TRAX|10=229|8=FIXT.1.1|9=57|35=0|34=457|49=QAAPA001|52=20180912-19:55:28.679|56=TRAX|10=228|8=FIXT.1.1|9=57|35=0|34=458|49=QAAPA001|52=20180912-19:55:58.679|56=TRAX|10=232|8=FIXT.1.1|9=57|35=0|34=459|49=QAAPA001|52=20180912-19:56:28.679|56=TRAX|10=231|8=FIXT.1.1|9=57|35=0|34=460|49=QAAPA001|52=20180912-19:56:58.680|56=TRAX|10=218|8=FIXT.1.1|9=57|35=0|34=461|49=QAAPA001|52=20180912-19:57:28.680|56=TRAX|10=217|8=FIXT.1.1|9=57|35=0|34=462|49=QAAPA001|52=20180912-19:57:58.680|56=TRAX|10=221|8=FIXT.1.1|9=57|35=0|34=463|49=QAAPA001|52=20180912-19:58:28.680|56=TRAX|10=220|8=FIXT.1.1|9=57|35=0|34=464|49=QAAPA001|52=20180912-19:58:58.680|56=TRAX|10=224|8=FIXT.1.1|9=57|35=0|34=465|49=QAAPA001|52=20180912-19:59:28.681|56=TRAX|10=224|8=FIXT.1.1|9=57|35=0|34=466|49=QAAPA001|52=20180912-19:59:58.681|56=TRAX|10=228|8=FIXT.1.1|9=57|35=0|34=467|49=QAAPA001|52=20180912-20:00:28.681|56=TRAX|10=204|8=FIXT.1.1|9=57|35=0|34=468|49=QAAPA001|52=20180912-20:00:58.681|56=TRAX|10=208|8=FIXT.1.1|9=57|35=0|34=469|49=QAAPA001|52=20180912-20:01:28.682|56=TRAX|10=208|8=FIXT.1.1|9=57|35=0|34=470|49=QAAPA001|52=20180912-20:01:58.682|56=TRAX|10=203|8=FIXT.1.1|9=57|35=0|34=471|49=QAAPA001|52=20180912-20:02:28.682|56=TRAX|10=202|8=FIXT.1.1|9=57|35=0|34=472|49=QAAPA001|52=20180912-20:02:58.683|56=TRAX|10=207|8=FIXT.1.1|9=57|35=0|34=473|49=QAAPA001|52=20180912-20:03:28.683|56=TRAX|10=206|8=FIXT.1.1|9=57|35=0|34=474|49=QAAPA001|52=20180912-20:03:59.682|56=TRAX|10=210|8=FIXT.1.1|9=57|35=0|34=475|49=QAAPA001|52=20180912-20:04:29.683|56=TRAX|10=210|8=FIXT.1.1|9=57|35=0|34=476|49=QAAPA001|52=20180912-20:04:59.683|56=TRAX|10=214|8=FIXT.1.1|9=57|35=0|34=477|49=QAAPA001|52=20180912-20:05:29.683|56=TRAX|10=213|8=FIXT.1.1|9=57|35=0|34=478|49=QAAPA001|52=20180912-20:05:59.683|56=TRAX|10=217|8=FIXT.1.1|9=57|35=0|34=479|49=QAAPA001|52=20180912-20:06:29.683|56=TRAX|10=216|8=FIXT.1.1|9=57|35=0|34=480|49=QAAPA001|52=20180912-20:06:59.683|56=TRAX|10=211|8=FIXT.1.1|9=57|35=0|34=481|49=QAAPA001|52=20180912-20:07:29.684|56=TRAX|10=211|8=FIXT.1.1|9=57|35=0|34=482|49=QAAPA001|52=20180912-20:07:59.684|56=TRAX|10=215|8=FIXT.1.1|9=57|35=0|34=483|49=QAAPA001|52=20180912-20:08:29.684|56=TRAX|10=214|8=FIXT.1.1|9=57|35=0|34=484|49=QAAPA001|52=20180912-20:08:59.684|56=TRAX|10=218|8=FIXT.1.1|9=57|35=0|34=485|49=QAAPA001|52=20180912-20:09:29.684|56=TRAX|10=217|8=FIXT.1.1|9=57|35=0|34=486|49=QAAPA001|52=20180912-20:09:59.685|56=TRAX|10=222|8=FIXT.1.1|9=57|35=0|34=487|49=QAAPA001|52=20180912-20:10:29.685|56=TRAX|10=212|8=FIXT.1.1|9=57|35=0|34=488|49=QAAPA001|52=20180912-20:10:59.685|56=TRAX|10=216|8=FIXT.1.1|9=57|35=0|34=489|49=QAAPA001|52=20180912-20:11:29.686|56=TRAX|10=216|8=FIXT.1.1|9=57|35=0|34=490|49=QAAPA001|52=20180912-20:11:59.689|56=TRAX|10=214|8=FIXT.1.1|9=57|35=0|34=491|49=QAAPA001|52=20180912-20:12:29.690|56=TRAX|10=205|8=FIXT.1.1|9=57|35=0|34=492|49=QAAPA001|52=20180912-20:12:59.696|56=TRAX|10=215|8=FIXT.1.1|9=57|35=0|34=493|49=QAAPA001|52=20180912-20:13:29.701|56=TRAX|10=201|8=FIXT.1.1|9=57|35=0|34=494|49=QAAPA001|52=20180912-20:13:59.705|56=TRAX|10=209|8=FIXT.1.1|9=57|35=0|34=495|49=QAAPA001|52=20180912-20:14:29.711|56=TRAX|10=205|8=FIXT.1.1|9=57|35=0|34=496|49=QAAPA001|52=20180912-20:14:59.715|56=TRAX|10=213|8=FIXT.1.1|9=57|35=0|34=497|49=QAAPA001|52=20180912-20:15:29.720|56=TRAX|10=208|8=FIXT.1.1|9=57|35=0|34=498|49=QAAPA001|52=20180912-20:15:59.726|56=TRAX|10=218|8=FIXT.1.1|9=57|35=0|34=499|49=QAAPA001|52=20180912-20:16:29.731|56=TRAX|10=213|8=FIXT.1.1|9=57|35=0|34=500|49=QAAPA001|52=20180912-20:16:59.735|56=TRAX|10=203|8=FIXT.1.1|9=57|35=0|34=501|49=QAAPA001|52=20180912-20:17:29.738|56=TRAX|10=205|8=FIXT.1.1|9=57|35=0|34=502|49=QAAPA001|52=20180912-20:17:59.738|56=TRAX|10=209|8=FIXT.1.1|9=57|35=0|34=503|49=QAAPA001|52=20180912-20:18:29.739|56=TRAX|10=209|8=FIXT.1.1|9=57|35=0|34=504|49=QAAPA001|52=20180912-20:19:00.740|56=TRAX|10=192|8=FIXT.1.1|9=57|35=0|34=505|49=QAAPA001|52=20180912-20:19:31.739|56=TRAX|10=205|8=FIXT.1.1|9=57|35=0|34=506|49=QAAPA001|52=20180912-20:20:01.739|56=TRAX|10=195|8=FIXT.1.1|9=57|35=0|34=507|49=QAAPA001|52=20180912-20:20:31.739|56=TRAX|10=199|8=FIXT.1.1|9=57|35=0|34=508|49=QAAPA001|52=20180912-20:21:01.741|56=TRAX|10=191|8=FIXT.1.1|9=57|35=0|34=509|49=QAAPA001|52=20180912-20:21:32.737|56=TRAX|10=201|8=FIXT.1.1|9=57|35=0|34=510|49=QAAPA001|52=20180912-20:22:02.738|56=TRAX|10=192|8=FIXT.1.1|9=57|35=0|34=511|49=QAAPA001|52=20180912-20:22:32.740|56=TRAX|10=189|8=FIXT.1.1|9=57|35=0|34=512|49=QAAPA001|52=20180912-20:23:02.740|56=TRAX|10=188|8=FIXT.1.1|9=57|35=0|34=513|49=QAAPA001|52=20180912-20:23:32.740|56=TRAX|10=192|8=FIXT.1.1|9=57|35=0|34=514|49=QAAPA001|52=20180912-20:24:02.740|56=TRAX|10=191|8=FIXT.1.1|9=57|35=0|34=515|49=QAAPA001|52=20180912-20:24:32.741|56=TRAX|10=196|8=FIXT.1.1|9=57|35=0|34=516|49=QAAPA001|52=20180912-20:25:03.611|56=TRAX|10=192|8=FIXT.1.1|9=57|35=0|34=517|49=QAAPA001|52=20180912-20:25:33.612|56=TRAX|10=197|8=FIXT.1.1|9=57|35=0|34=518|49=QAAPA001|52=20180912-20:26:03.612|56=TRAX|10=196|8=FIXT.1.1|9=57|35=0|34=519|49=QAAPA001|52=20180912-20:26:33.612|56=TRAX|10=200|8=FIXT.1.1|9=57|35=0|34=520|49=QAAPA001|52=20180912-20:27:03.612|56=TRAX|10=190|8=FIXT.1.1|9=57|35=0|34=521|49=QAAPA001|52=20180912-20:27:33.612|56=TRAX|10=194|8=FIXT.1.1|9=57|35=0|34=522|49=QAAPA001|52=20180912-20:28:03.612|56=TRAX|10=193|8=FIXT.1.1|9=57|35=0|34=523|49=QAAPA001|52=20180912-20:28:33.612|56=TRAX|10=197|8=FIXT.1.1|9=57|35=0|34=524|49=QAAPA001|52=20180912-20:29:03.613|56=TRAX|10=197|8=FIXT.1.1|9=57|35=0|34=525|49=QAAPA001|52=20180912-20:29:33.613|56=TRAX|10=201|8=FIXT.1.1|9=57|35=0|34=526|49=QAAPA001|52=20180912-20:30:03.613|56=TRAX|10=191|8=FIXT.1.1|9=57|35=0|34=527|49=QAAPA001|52=20180912-20:30:33.614|56=TRAX|10=196|8=FIXT.1.1|9=57|35=0|34=528|49=QAAPA001|52=20180912-20:31:03.614|56=TRAX|10=195|8=FIXT.1.1|9=57|35=0|34=529|49=QAAPA001|52=20180912-20:31:33.614|56=TRAX|10=199|8=FIXT.1.1|9=57|35=0|34=530|49=QAAPA001|52=20180912-20:32:03.739|56=TRAX|10=197|8=FIXT.1.1|9=57|35=0|34=531|49=QAAPA001|52=20180912-20:32:34.738|56=TRAX|10=201|8=FIXT.1.1|9=57|35=0|34=532|49=QAAPA001|52=20180912-20:33:04.738|56=TRAX|10=200|8=FIXT.1.1|9=57|35=0|34=533|49=QAAPA001|52=20180912-20:33:35.740|56=TRAX|10=198|8=FIXT.1.1|9=57|35=0|34=534|49=QAAPA001|52=20180912-20:34:05.740|56=TRAX|10=197|8=FIXT.1.1|9=57|35=0|34=535|49=QAAPA001|52=20180912-20:34:35.740|56=TRAX|10=201|8=FIXT.1.1|9=57|35=0|34=536|49=QAAPA001|52=20180912-20:35:05.740|56=TRAX|10=200|8=FIXT.1.1|9=57|35=0|34=537|49=QAAPA001|52=20180912-20:35:35.740|56=TRAX|10=204|8=FIXT.1.1|9=57|35=0|34=538|49=QAAPA001|52=20180912-20:36:05.741|56=TRAX|10=204|8=FIXT.1.1|9=57|35=0|34=539|49=QAAPA001|52=20180912-20:36:36.741|56=TRAX|10=209|8=FIXT.1.1|9=57|35=0|34=540|49=QAAPA001|52=20180912-20:37:07.740|56=TRAX|10=199|8=FIXT.1.1|9=57|35=0|34=541|49=QAAPA001|52=20180912-20:37:37.741|56=TRAX|10=204|8=FIXT.1.1|9=57|35=0|34=542|49=QAAPA001|52=20180912-20:38:08.738|56=TRAX|10=210|8=FIXT.1.1|9=57|35=0|34=543|49=QAAPA001|52=20180912-20:38:39.738|56=TRAX|10=215|8=FIXT.1.1|9=57|35=0|34=544|49=QAAPA001|52=20180912-20:39:09.738|56=TRAX|10=214|8=FIXT.1.1|9=57|35=0|34=545|49=QAAPA001|52=20180912-20:39:39.738|56=TRAX|10=218|8=FIXT.1.1|9=57|35=0|34=546|49=QAAPA001|52=20180912-20:40:09.738|56=TRAX|10=208|8=FIXT.1.1|9=57|35=0|34=547|49=QAAPA001|52=20180912-20:40:39.738|56=TRAX|10=212|8=FIXT.1.1|9=57|35=0|34=548|49=QAAPA001|52=20180912-20:41:10.738|56=TRAX|10=203|8=FIXT.1.1|9=57|35=0|34=549|49=QAAPA001|52=20180912-20:41:40.738|56=TRAX|10=207|8=FIXT.1.1|9=57|35=0|34=550|49=QAAPA001|52=20180912-20:42:10.738|56=TRAX|10=197|8=FIXT.1.1|9=57|35=0|34=551|49=QAAPA001|52=20180912-20:42:41.738|56=TRAX|10=202|8=FIXT.1.1|9=57|35=0|34=552|49=QAAPA001|52=20180912-20:43:11.738|56=TRAX|10=201|8=FIXT.1.1|9=57|35=0|34=553|49=QAAPA001|52=20180912-20:43:41.740|56=TRAX|10=198|8=FIXT.1.1|9=57|35=0|34=554|49=QAAPA001|52=20180912-20:44:11.740|56=TRAX|10=197|8=FIXT.1.1|9=57|35=0|34=555|49=QAAPA001|52=20180912-20:44:42.740|56=TRAX|10=202|8=FIXT.1.1|9=57|35=0|34=556|49=QAAPA001|52=20180912-20:45:12.740|56=TRAX|10=201|8=FIXT.1.1|9=57|35=0|34=557|49=QAAPA001|52=20180912-20:45:43.741|56=TRAX|10=207|8=FIXT.1.1|9=57|35=0|34=558|49=QAAPA001|52=20180912-20:46:13.741|56=TRAX|10=206|8=FIXT.1.1|9=57|35=0|34=559|49=QAAPA001|52=20180912-20:46:44.738|56=TRAX|10=217|8=FIXT.1.1|9=57|35=0|34=560|49=QAAPA001|52=20180912-20:47:14.739|56=TRAX|10=208|8=FIXT.1.1|9=57|35=0|34=561|49=QAAPA001|52=20180912-20:47:45.737|56=TRAX|10=211|8=FIXT.1.1|9=57|35=0|34=562|49=QAAPA001|52=20180912-20:48:15.738|56=TRAX|10=211|8=FIXT.1.1|9=57|35=0|34=563|49=QAAPA001|52=20180912-20:48:45.738|56=TRAX|10=215|8=FIXT.1.1|9=57|35=0|34=564|49=QAAPA001|52=20180912-20:49:15.738|56=TRAX|10=214|8=FIXT.1.1|9=57|35=0|34=565|49=QAAPA001|52=20180912-20:49:45.739|56=TRAX|10=219|8=FIXT.1.1|9=57|35=0|34=566|49=QAAPA001|52=20180912-20:50:15.739|56=TRAX|10=209|8=FIXT.1.1|9=57|35=0|34=567|49=QAAPA001|52=20180912-20:50:46.738|56=TRAX|10=213|8=FIXT.1.1|9=57|35=0|34=568|49=QAAPA001|52=20180912-20:51:16.738|56=TRAX|10=212|8=FIXT.1.1|9=57|35=0|34=569|49=QAAPA001|52=20180912-20:51:46.738|56=TRAX|10=216|8=FIXT.1.1|9=57|35=0|34=570|49=QAAPA001|52=20180912-20:52:16.738|56=TRAX|10=206|8=FIXT.1.1|9=57|35=0|34=571|49=QAAPA001|52=20180912-20:52:46.738|56=TRAX|10=210|8=FIXT.1.1|9=57|35=0|34=572|49=QAAPA001|52=20180912-20:53:17.738|56=TRAX|10=210|8=FIXT.1.1|9=57|35=0|34=573|49=QAAPA001|52=20180912-20:53:47.738|56=TRAX|10=214|8=FIXT.1.1|9=57|35=0|34=574|49=QAAPA001|52=20180912-20:54:18.738|56=TRAX|10=214|8=FIXT.1.1|9=57|35=0|34=575|49=QAAPA001|52=20180912-20:54:49.738|56=TRAX|10=219|8=FIXT.1.1|9=57|35=0|34=576|49=QAAPA001|52=20180912-20:55:19.738|56=TRAX|10=218|8=FIXT.1.1|9=57|35=0|34=577|49=QAAPA001|52=20180912-20:55:49.738|56=TRAX|10=222|8=FIXT.1.1|9=57|35=0|34=578|49=QAAPA001|52=20180912-20:56:19.739|56=TRAX|10=222|8=FIXT.1.1|9=57|35=0|34=579|49=QAAPA001|52=20180912-20:56:50.737|56=TRAX|10=216|8=FIXT.1.1|9=57|35=0|34=580|49=QAAPA001|52=20180912-20:57:20.737|56=TRAX|10=206|8=FIXT.1.1|9=57|35=0|34=581|49=QAAPA001|52=20180912-20:57:50.737|56=TRAX|10=210|8=FIXT.1.1|9=57|35=0|34=582|49=QAAPA001|52=20180912-20:58:20.738|56=TRAX|10=210|8=FIXT.1.1|9=57|35=0|34=583|49=QAAPA001|52=20180912-20:58:51.737|56=TRAX|10=214|8=FIXT.1.1|9=57|35=0|34=584|49=QAAPA001|52=20180912-20:59:21.739|56=TRAX|10=215|8=FIXT.1.1|9=57|35=0|34=585|49=QAAPA001|52=20180912-20:59:52.738|56=TRAX|10=219|8=FIXT.1.1|9=57|35=0|34=586|49=QAAPA001|52=20180912-21:00:22.738|56=TRAX|10=204|8=FIXT.1.1|9=57|35=0|34=587|49=QAAPA001|52=20180912-21:00:52.738|56=TRAX|10=208|8=FIXT.1.1|9=57|35=0|34=588|49=QAAPA001|52=20180912-21:01:23.737|56=TRAX|10=207|8=FIXT.1.1|9=57|35=0|34=589|49=QAAPA001|52=20180912-21:01:53.738|56=TRAX|10=212|8=FIXT.1.1|9=57|35=0|34=590|49=QAAPA001|52=20180912-21:02:23.738|56=TRAX|10=202|8=FIXT.1.1|9=57|35=0|34=591|49=QAAPA001|52=20180912-21:02:53.738|56=TRAX|10=206|8=FIXT.1.1|9=57|35=0|34=592|49=QAAPA001|52=20180912-21:03:23.738|56=TRAX|10=205|8=FIXT.1.1|9=57|35=0|34=593|49=QAAPA001|52=20180912-21:03:53.738|56=TRAX|10=209|8=FIXT.1.1|9=57|35=0|34=594|49=QAAPA001|52=20180912-21:04:23.738|56=TRAX|10=208|8=FIXT.1.1|9=57|35=0|34=595|49=QAAPA001|52=20180912-21:04:53.738|56=TRAX|10=212|8=FIXT.1.1|9=57|35=0|34=596|49=QAAPA001|52=20180912-21:05:23.738|56=TRAX|10=211|8=FIXT.1.1|9=57|35=0|34=597|49=QAAPA001|52=20180912-21:05:53.738|56=TRAX|10=215|8=FIXT.1.1|9=57|35=0|34=598|49=QAAPA001|52=20180912-21:06:23.738|56=TRAX|10=214|8=FIXT.1.1|9=57|35=0|34=599|49=QAAPA001|52=20180912-21:06:53.738|56=TRAX|10=218|8=FIXT.1.1|9=57|35=0|34=600|49=QAAPA001|52=20180912-21:07:23.738|56=TRAX|10=199|8=FIXT.1.1|9=57|35=0|34=601|49=QAAPA001|52=20180912-21:07:53.739|56=TRAX|10=204|8=FIXT.1.1|9=57|35=0|34=602|49=QAAPA001|52=20180912-21:08:23.739|56=TRAX|10=203|8=FIXT.1.1|9=57|35=0|34=603|49=QAAPA001|52=20180912-21:08:53.740|56=TRAX|10=199|8=FIXT.1.1|9=57|35=0|34=604|49=QAAPA001|52=20180912-21:09:24.740|56=TRAX|10=199|8=FIXT.1.1|9=57|35=0|34=605|49=QAAPA001|52=20180912-21:09:55.741|56=TRAX|10=205|8=FIXT.1.1|9=57|35=0|34=606|49=QAAPA001|52=20180912-21:10:26.738|56=TRAX|10=202|8=FIXT.1.1|9=57|35=0|34=607|49=QAAPA001|52=20180912-21:10:56.738|56=TRAX|10=206|8=FIXT.1.1|9=57|35=0|34=608|49=QAAPA001|52=20180912-21:11:26.738|56=TRAX|10=205|8=FIXT.1.1|9=57|35=0|34=609|49=QAAPA001|52=20180912-21:11:56.738|56=TRAX|10=209|8=FIXT.1.1|9=57|35=0|34=610|49=QAAPA001|52=20180912-21:12:26.738|56=TRAX|10=199|8=FIXT.1.1|9=57|35=0|34=611|49=QAAPA001|52=20180912-21:12:56.739|56=TRAX|10=204|8=FIXT.1.1|9=57|35=0|34=612|49=QAAPA001|52=20180912-21:13:27.738|56=TRAX|10=203|8=FIXT.1.1|9=57|35=0|34=613|49=QAAPA001|52=20180912-21:13:58.739|56=TRAX|10=209|8=FIXT.1.1|9=57|35=0|34=614|49=QAAPA001|52=20180912-21:14:29.736|56=TRAX|10=206|8=FIXT.1.1|9=57|35=0|34=615|49=QAAPA001|52=20180912-21:14:59.738|56=TRAX|10=212|8=FIXT.1.1|9=57|35=0|34=616|49=QAAPA001|52=20180912-21:15:29.738|56=TRAX|10=211|8=FIXT.1.1|9=57|35=0|34=617|49=QAAPA001|52=20180912-21:16:00.739|56=TRAX|10=203|8=FIXT.1.1|9=57|35=0|34=618|49=QAAPA001|52=20180912-21:16:31.736|56=TRAX|10=205|8=FIXT.1.1|9=57|35=0|34=619|49=QAAPA001|52=20180912-21:17:01.736|56=TRAX|10=204|8=FIXT.1.1|9=57|35=0|34=620|49=QAAPA001|52=20180912-21:17:31.736|56=TRAX|10=199|8=FIXT.1.1|9=57|35=0|34=621|49=QAAPA001|52=20180912-21:18:01.736|56=TRAX|10=198|8=FIXT.1.1|9=57|35=0|34=622|49=QAAPA001|52=20180912-21:18:31.736|56=TRAX|10=202|8=FIXT.1.1|9=57|35=0|34=623|49=QAAPA001|52=20180912-21:19:01.736|56=TRAX|10=201|8=FIXT.1.1|9=57|35=0|34=624|49=QAAPA001|52=20180912-21:19:31.738|56=TRAX|10=207|8=FIXT.1.1|9=57|35=0|34=625|49=QAAPA001|52=20180912-21:20:01.738|56=TRAX|10=197|8=FIXT.1.1|9=57|35=0|34=626|49=QAAPA001|52=20180912-21:20:31.738|56=TRAX|10=201|8=FIXT.1.1|9=57|35=0|34=627|49=QAAPA001|52=20180912-21:21:01.739|56=TRAX|10=201|8=FIXT.1.1|9=57|35=0|34=628|49=QAAPA001|52=20180912-21:21:31.739|56=TRAX|10=205|8=FIXT.1.1|9=57|35=0|34=629|49=QAAPA001|52=20180912-21:22:02.737|56=TRAX|10=203|8=FIXT.1.1|9=57|35=0|34=630|49=QAAPA001|52=20180912-21:22:32.738|56=TRAX|10=199|8=FIXT.1.1|9=57|35=0|34=631|49=QAAPA001|52=20180912-21:23:02.738|56=TRAX|10=198|8=FIXT.1.1|9=57|35=0|34=632|49=QAAPA001|52=20180912-21:23:32.738|56=TRAX|10=202|8=FIXT.1.1|9=57|35=0|34=633|49=QAAPA001|52=20180912-21:24:02.738|56=TRAX|10=201|8=FIXT.1.1|9=57|35=0|34=634|49=QAAPA001|52=20180912-21:24:32.738|56=TRAX|10=205|8=FIXT.1.1|9=57|35=0|34=635|49=QAAPA001|52=20180912-21:25:02.738|56=TRAX|10=204|8=FIXT.1.1|9=57|35=0|34=636|49=QAAPA001|52=20180912-21:25:32.739|56=TRAX|10=209|8=FIXT.1.1|9=57|35=0|34=637|49=QAAPA001|52=20180912-21:26:03.630|56=TRAX|10=199|8=FIXT.1.1|9=57|35=0|34=638|49=QAAPA001|52=20180912-21:26:33.630|56=TRAX|10=203|8=FIXT.1.1|9=57|35=0|34=639|49=QAAPA001|52=20180912-21:27:03.630|56=TRAX|10=202|8=FIXT.1.1|9=57|35=0|34=640|49=QAAPA001|52=20180912-21:27:33.631|56=TRAX|10=198|8=FIXT.1.1|9=57|35=0|34=641|49=QAAPA001|52=20180912-21:28:03.736|56=TRAX|10=203|8=FIXT.1.1|9=57|35=0|34=642|49=QAAPA001|52=20180912-21:28:33.736|56=TRAX|10=207|8=FIXT.1.1|9=57|35=0|34=643|49=QAAPA001|52=20180912-21:29:03.736|56=TRAX|10=206|8=FIXT.1.1|9=57|35=0|34=644|49=QAAPA001|52=20180912-21:29:33.736|56=TRAX|10=210|8=FIXT.1.1|9=57|35=0|34=645|49=QAAPA001|52=20180912-21:30:03.736|56=TRAX|10=200|8=FIXT.1.1|9=57|35=0|34=646|49=QAAPA001|52=20180912-21:30:33.736|56=TRAX|10=204|8=FIXT.1.1|9=57|35=0|34=647|49=QAAPA001|52=20180912-21:31:03.736|56=TRAX|10=203|8=FIXT.1.1|9=57|35=0|34=648|49=QAAPA001|52=20180912-21:31:34.738|56=TRAX|10=210|8=FIXT.1.1|9=57|35=0|34=649|49=QAAPA001|52=20180912-21:32:04.738|56=TRAX|10=209|8=FIXT.1.1|9=57|35=0|34=650|49=QAAPA001|52=20180912-21:32:34.738|56=TRAX|10=204|8=FIXT.1.1|9=57|35=0|34=651|49=QAAPA001|52=20180912-21:33:04.739|56=TRAX|10=204|8=FIXT.1.1|9=57|35=0|34=652|49=QAAPA001|52=20180912-21:33:35.736|56=TRAX|10=206|8=FIXT.1.1|9=57|35=0|34=653|49=QAAPA001|52=20180912-21:34:05.736|56=TRAX|10=205|8=FIXT.1.1|9=57|35=0|34=654|49=QAAPA001|52=20180912-21:34:35.736|56=TRAX|10=209|8=FIXT.1.1|9=57|35=0|34=655|49=QAAPA001|52=20180912-21:35:05.736|56=TRAX|10=208|8=FIXT.1.1|9=57|35=0|34=656|49=QAAPA001|52=20180912-21:35:35.736|56=TRAX|10=212|8=FIXT.1.1|9=57|35=0|34=657|49=QAAPA001|52=20180912-21:36:05.736|56=TRAX|10=211|8=FIXT.1.1|9=57|35=0|34=658|49=QAAPA001|52=20180912-21:36:35.736|56=TRAX|10=215|8=FIXT.1.1|9=57|35=0|34=659|49=QAAPA001|52=20180912-21:37:05.737|56=TRAX|10=215|8=FIXT.1.1|9=57|35=0|34=660|49=QAAPA001|52=20180912-21:37:36.737|56=TRAX|10=211|8=FIXT.1.1|9=57|35=0|34=661|49=QAAPA001|52=20180912-21:38:07.736|56=TRAX|10=210|8=FIXT.1.1|9=57|35=0|34=662|49=QAAPA001|52=20180912-21:38:38.737|56=TRAX|10=216|8=FIXT.1.1|9=57|35=0|34=663|49=QAAPA001|52=20180912-21:39:09.736|56=TRAX|10=215|8=FIXT.1.1|9=57|35=0|34=664|49=QAAPA001|52=20180912-21:39:39.736|56=TRAX|10=219|8=FIXT.1.1|9=57|35=0|34=665|49=QAAPA001|52=20180912-21:40:09.737|56=TRAX|10=210|8=FIXT.1.1|9=57|35=0|34=666|49=QAAPA001|52=20180912-21:40:40.736|56=TRAX|10=205|8=FIXT.1.1|9=57|35=0|34=667|49=QAAPA001|52=20180912-21:41:10.736|56=TRAX|10=204|8=FIXT.1.1|9=57|35=0|34=668|49=QAAPA001|52=20180912-21:41:40.736|56=TRAX|10=208|8=FIXT.1.1|9=57|35=0|34=669|49=QAAPA001|52=20180912-21:42:10.736|56=TRAX|10=207|8=FIXT.1.1|9=57|35=0|34=670|49=QAAPA001|52=20180912-21:42:40.737|56=TRAX|10=203|8=FIXT.1.1|9=57|35=0|34=671|49=QAAPA001|52=20180912-21:43:11.736|56=TRAX|10=202|8=FIXT.1.1|9=57|35=0|34=672|49=QAAPA001|52=20180912-21:43:42.735|56=TRAX|10=206|8=FIXT.1.1|9=57|35=0|34=673|49=QAAPA001|52=20180912-21:44:12.736|56=TRAX|10=206|8=FIXT.1.1|9=57|35=0|34=674|49=QAAPA001|52=20180912-21:44:42.736|56=TRAX|10=210|8=FIXT.1.1|9=57|35=0|34=675|49=QAAPA001|52=20180912-21:45:12.736|56=TRAX|10=209|8=FIXT.1.1|9=57|35=0|34=676|49=QAAPA001|52=20180912-21:45:42.736|56=TRAX|10=213|8=FIXT.1.1|9=57|35=0|34=677|49=QAAPA001|52=20180912-21:46:12.736|56=TRAX|10=212|8=FIXT.1.1|9=57|35=0|34=678|49=QAAPA001|52=20180912-21:46:42.736|56=TRAX|10=216|8=FIXT.1.1|9=57|35=0|34=679|49=QAAPA001|52=20180912-21:47:13.736|56=TRAX|10=216|8=FIXT.1.1|9=57|35=0|34=680|49=QAAPA001|52=20180912-21:47:43.736|56=TRAX|10=211|8=FIXT.1.1|9=57|35=0|34=681|49=QAAPA001|52=20180912-21:48:13.736|56=TRAX|10=210|8=FIXT.1.1|9=57|35=0|34=682|49=QAAPA001|52=20180912-21:48:43.736|56=TRAX|10=214|8=FIXT.1.1|9=57|35=0|34=683|49=QAAPA001|52=20180912-21:49:13.736|56=TRAX|10=213|8=FIXT.1.1|9=57|35=0|34=684|49=QAAPA001|52=20180912-21:49:43.736|56=TRAX|10=217|8=FIXT.1.1|9=57|35=0|34=685|49=QAAPA001|52=20180912-21:50:13.736|56=TRAX|10=207|8=FIXT.1.1|9=57|35=0|34=686|49=QAAPA001|52=20180912-21:50:44.735|56=TRAX|10=211|8=FIXT.1.1|9=57|35=0|34=687|49=QAAPA001|52=20180912-21:51:14.735|56=TRAX|10=210|8=FIXT.1.1|9=57|35=0|34=688|49=QAAPA001|52=20180912-21:51:44.736|56=TRAX|10=215|8=FIXT.1.1|9=57|35=0|34=689|49=QAAPA001|52=20180912-21:52:14.736|56=TRAX|10=214|8=FIXT.1.1|9=57|35=0|34=690|49=QAAPA001|52=20180912-21:52:44.736|56=TRAX|10=209|8=FIXT.1.1|9=57|35=0|34=691|49=QAAPA001|52=20180912-21:53:14.736|56=TRAX|10=208|8=FIXT.1.1|9=57|35=0|34=692|49=QAAPA001|52=20180912-21:53:44.736|56=TRAX|10=212|8=FIXT.1.1|9=57|35=0|34=693|49=QAAPA001|52=20180912-21:54:15.736|56=TRAX|10=212|8=FIXT.1.1|9=57|35=0|34=694|49=QAAPA001|52=20180912-21:54:45.736|56=TRAX|10=216|8=FIXT.1.1|9=57|35=0|34=695|49=QAAPA001|52=20180912-21:55:15.737|56=TRAX|10=216|8=FIXT.1.1|9=57|35=0|34=696|49=QAAPA001|52=20180912-21:55:45.737|56=TRAX|10=220|8=FIXT.1.1|9=57|35=0|34=697|49=QAAPA001|52=20180912-21:56:16.735|56=TRAX|10=218|8=FIXT.1.1|9=57|35=0|34=698|49=QAAPA001|52=20180912-21:56:46.736|56=TRAX|10=223|8=FIXT.1.1|9=57|35=0|34=699|49=QAAPA001|52=20180912-21:57:16.736|56=TRAX|10=222|8=FIXT.1.1|9=57|35=0|34=700|49=QAAPA001|52=20180912-21:57:46.736|56=TRAX|10=208|8=FIXT.1.1|9=57|35=0|34=701|49=QAAPA001|52=20180912-21:58:16.736|56=TRAX|10=207|8=FIXT.1.1|9=57|35=0|34=702|49=QAAPA001|52=20180912-21:58:46.736|56=TRAX|10=211|8=FIXT.1.1|9=57|35=0|34=703|49=QAAPA001|52=20180912-21:59:16.736|56=TRAX|10=210|8=FIXT.1.1|9=57|35=0|34=704|49=QAAPA001|52=20180912-21:59:47.736|56=TRAX|10=215|8=FIXT.1.1|9=57|35=0|34=705|49=QAAPA001|52=20180912-22:00:17.736|56=TRAX|10=200|8=FIXT.1.1|9=57|35=0|34=706|49=QAAPA001|52=20180912-22:00:48.736|56=TRAX|10=205|8=FIXT.1.1|9=57|35=0|34=707|49=QAAPA001|52=20180912-22:01:19.736|56=TRAX|10=205|8=FIXT.1.1|9=57|35=0|34=708|49=QAAPA001|52=20180912-22:01:49.736|56=TRAX|10=209|8=FIXT.1.1|9=57|35=0|34=709|49=QAAPA001|52=20180912-22:02:19.736|56=TRAX|10=208|8=FIXT.1.1|9=57|35=0|34=710|49=QAAPA001|52=20180912-22:02:49.736|56=TRAX|10=203|8=FIXT.1.1|9=57|35=0|34=711|49=QAAPA001|52=20180912-22:03:19.737|56=TRAX|10=203|8=FIXT.1.1|9=57|35=0|34=712|49=QAAPA001|52=20180912-22:03:50.736|56=TRAX|10=198|8=FIXT.1.1|9=57|35=0|34=713|49=QAAPA001|52=20180912-22:04:21.736|56=TRAX|10=198|8=FIXT.1.1|9=57|35=0|34=714|49=QAAPA001|52=20180912-22:04:51.736|56=TRAX|10=202|8=FIXT.1.1|9=57|35=0|34=715|49=QAAPA001|52=20180912-22:05:21.736|56=TRAX|10=201|8=FIXT.1.1|9=57|35=0|34=716|49=QAAPA001|52=20180912-22:05:51.736|56=TRAX|10=205|8=FIXT.1.1|9=57|35=0|34=717|49=QAAPA001|52=20180912-22:06:21.736|56=TRAX|10=204|8=FIXT.1.1|9=57|35=0|34=718|49=QAAPA001|52=20180912-22:06:51.736|56=TRAX|10=208|8=FIXT.1.1|9=57|35=0|34=719|49=QAAPA001|52=20180912-22:07:21.736|56=TRAX|10=207|8=FIXT.1.1|9=57|35=0|34=720|49=QAAPA001|52=20180912-22:07:51.736|56=TRAX|10=202|8=FIXT.1.1|9=57|35=0|34=721|49=QAAPA001|52=20180912-22:08:21.736|56=TRAX|10=201|8=FIXT.1.1|9=57|35=0|34=722|49=QAAPA001|52=20180912-22:08:51.736|56=TRAX|10=205|8=FIXT.1.1|9=57|35=0|34=723|49=QAAPA001|52=20180912-22:09:21.736|56=TRAX|10=204|8=FIXT.1.1|9=57|35=0|34=724|49=QAAPA001|52=20180912-22:09:51.736|56=TRAX|10=208|8=FIXT.1.1|9=57|35=0|34=725|49=QAAPA001|52=20180912-22:10:21.737|56=TRAX|10=199|8=FIXT.1.1|9=57|35=0|34=726|49=QAAPA001|52=20180912-22:10:51.738|56=TRAX|10=204|8=FIXT.1.1|9=57|35=0|34=727|49=QAAPA001|52=20180912-22:11:22.738|56=TRAX|10=204|8=FIXT.1.1|9=57|35=0|34=728|49=QAAPA001|52=20180912-22:11:52.738|56=TRAX|10=208|8=FIXT.1.1|9=57|35=0|34=729|49=QAAPA001|52=20180912-22:12:22.738|56=TRAX|10=207|8=FIXT.1.1|9=57|35=0|34=730|49=QAAPA001|52=20180912-22:12:52.739|56=TRAX|10=203|8=FIXT.1.1|9=57|35=0|34=731|49=QAAPA001|52=20180912-22:13:22.738|56=TRAX|10=201|8=FIXT.1.1|9=57|35=0|34=732|49=QAAPA001|52=20180912-22:13:52.738|56=TRAX|10=205|8=FIXT.1.1|9=57|35=0|34=733|49=QAAPA001|52=20180912-22:14:22.739|56=TRAX|10=205|8=FIXT.1.1|9=57|35=0|34=734|49=QAAPA001|52=20180912-22:14:52.739|56=TRAX|10=209|8=FIXT.1.1|9=57|35=0|34=735|49=QAAPA001|52=20180912-22:15:23.738|56=TRAX|10=208|8=FIXT.1.1|9=57|35=0|34=736|49=QAAPA001|52=20180912-22:15:53.738|56=TRAX|10=212|8=FIXT.1.1|9=57|35=0|34=737|49=QAAPA001|52=20180912-22:16:23.738|56=TRAX|10=211|8=FIXT.1.1|9=57|35=0|34=738|49=QAAPA001|52=20180912-22:16:53.739|56=TRAX|10=216|8=FIXT.1.1|9=57|35=0|34=739|49=QAAPA001|52=20180912-22:17:23.739|56=TRAX|10=215|8=FIXT.1.1|9=57|35=0|34=740|49=QAAPA001|52=20180912-22:17:54.740|56=TRAX|10=203|8=FIXT.1.1|9=57|35=0|34=741|49=QAAPA001|52=20180912-22:18:25.740|56=TRAX|10=203|8=FIXT.1.1|9=57|35=0|34=742|49=QAAPA001|52=20180912-22:18:56.739|56=TRAX|10=216|8=FIXT.1.1|9=57|35=0|34=743|49=QAAPA001|52=20180912-22:19:27.736|56=TRAX|10=213|8=FIXT.1.1|9=57|35=0|34=744|49=QAAPA001|52=20180912-22:19:57.736|56=TRAX|10=217|8=FIXT.1.1|9=57|35=0|34=745|49=QAAPA001|52=20180912-22:20:28.737|56=TRAX|10=209|8=FIXT.1.1|9=57|35=0|34=746|49=QAAPA001|52=20180912-22:20:59.736|56=TRAX|10=213|8=FIXT.1.1|9=57|35=0|34=747|49=QAAPA001|52=20180912-22:21:29.736|56=TRAX|10=212|8=FIXT.1.1|9=57|35=0|34=748|49=QAAPA001|52=20180912-22:21:59.736|56=TRAX|10=216|8=FIXT.1.1|9=57|35=0|34=749|49=QAAPA001|52=20180912-22:22:29.736|56=TRAX|10=215|8=FIXT.1.1|9=57|35=0|34=750|49=QAAPA001|52=20180912-22:22:59.736|56=TRAX|10=210|8=FIXT.1.1|9=57|35=0|34=751|49=QAAPA001|52=20180912-22:23:29.737|56=TRAX|10=210|8=FIXT.1.1|9=57|35=0|34=752|49=QAAPA001|52=20180912-22:24:00.736|56=TRAX|10=200|8=FIXT.1.1|9=57|35=0|34=753|49=QAAPA001|52=20180912-22:24:30.736|56=TRAX|10=204|8=FIXT.1.1|9=57|35=0|34=754|49=QAAPA001|52=20180912-22:25:01.736|56=TRAX|10=204|8=FIXT.1.1|9=57|35=0|34=755|49=QAAPA001|52=20180912-22:25:31.736|56=TRAX|10=208|8=FIXT.1.1|9=57|35=0|34=756|49=QAAPA001|52=20180912-22:26:01.736|56=TRAX|10=207|8=FIXT.1.1|9=57|35=0|34=757|49=QAAPA001|52=20180912-22:26:31.736|56=TRAX|10=211|8=FIXT.1.1|9=57|35=0|34=758|49=QAAPA001|52=20180912-22:27:01.737|56=TRAX|10=211|8=FIXT.1.1|9=57|35=0|34=759|49=QAAPA001|52=20180912-22:27:32.736|56=TRAX|10=215|8=FIXT.1.1|9=57|35=0|34=760|49=QAAPA001|52=20180912-22:28:02.736|56=TRAX|10=205|8=FIXT.1.1|9=57|35=0|34=761|49=QAAPA001|52=20180912-22:28:32.736|56=TRAX|10=209|8=FIXT.1.1|9=57|35=0|34=762|49=QAAPA001|52=20180912-22:29:02.736|56=TRAX|10=208|8=FIXT.1.1|9=57|35=0|34=763|49=QAAPA001|52=20180912-22:29:32.736|56=TRAX|10=212|8=FIXT.1.1|9=57|35=0|34=764|49=QAAPA001|52=20180912-22:30:02.738|56=TRAX|10=204|8=FIXT.1.1|9=57|35=0|34=765|49=QAAPA001|52=20180912-22:30:32.738|56=TRAX|10=208|8=FIXT.1.1|9=57|35=0|34=766|49=QAAPA001|52=20180912-22:31:02.739|56=TRAX|10=208|8=FIXT.1.1|9=57|35=0|34=767|49=QAAPA001|52=20180912-22:31:33.645|56=TRAX|10=209|8=FIXT.1.1|9=57|35=0|34=768|49=QAAPA001|52=20180912-22:32:03.645|56=TRAX|10=208|8=FIXT.1.1|9=57|35=0|34=769|49=QAAPA001|52=20180912-22:32:33.646|56=TRAX|10=213|8=FIXT.1.1|9=57|35=0|34=770|49=QAAPA001|52=20180912-22:33:03.736|56=TRAX|10=203|8=FIXT.1.1|9=57|35=0|34=771|49=QAAPA001|52=20180912-22:33:33.736|56=TRAX|10=207|8=FIXT.1.1|9=57|35=0|34=772|49=QAAPA001|52=20180912-22:34:03.736|56=TRAX|10=206|8=FIXT.1.1|9=57|35=0|34=773|49=QAAPA001|52=20180912-22:34:33.736|56=TRAX|10=210|8=FIXT.1.1|9=57|35=0|34=774|49=QAAPA001|52=20180912-22:35:03.739|56=TRAX|10=212|8=FIXT.1.1|9=57|35=0|34=775|49=QAAPA001|52=20180912-22:35:34.736|56=TRAX|10=214|8=FIXT.1.1|9=57|35=0|34=776|49=QAAPA001|52=20180912-22:36:04.736|56=TRAX|10=213|8=FIXT.1.1|9=57|35=0|34=777|49=QAAPA001|52=20180912-22:36:34.736|56=TRAX|10=217|8=FIXT.1.1|9=57|35=0|34=778|49=QAAPA001|52=20180912-22:37:04.736|56=TRAX|10=216|8=FIXT.1.1|9=57|35=0|34=779|49=QAAPA001|52=20180912-22:37:34.736|56=TRAX|10=220|8=FIXT.1.1|9=57|35=0|34=780|49=QAAPA001|52=20180912-22:38:04.736|56=TRAX|10=210|8=FIXT.1.1|9=57|35=0|34=781|49=QAAPA001|52=20180912-22:38:34.736|56=TRAX|10=214|8=FIXT.1.1|9=57|35=0|34=782|49=QAAPA001|52=20180912-22:39:05.736|56=TRAX|10=214|8=FIXT.1.1|9=57|35=0|34=783|49=QAAPA001|52=20180912-22:39:35.737|56=TRAX|10=219|8=FIXT.1.1|9=57|35=0|34=784|49=QAAPA001|52=20180912-22:40:05.738|56=TRAX|10=210|8=FIXT.1.1|9=57|35=0|34=785|49=QAAPA001|52=20180912-22:40:35.738|56=TRAX|10=214|8=FIXT.1.1|9=57|35=0|34=786|49=QAAPA001|52=20180912-22:41:05.739|56=TRAX|10=214|8=FIXT.1.1|9=57|35=0|34=787|49=QAAPA001|52=20180912-22:41:35.739|56=TRAX|10=218|8=FIXT.1.1|9=57|35=0|34=788|49=QAAPA001|52=20180912-22:42:06.738|56=TRAX|10=217|8=FIXT.1.1|9=57|35=0|34=789|49=QAAPA001|52=20180912-22:42:36.739|56=TRAX|10=222|8=FIXT.1.1|9=57|35=0|34=790|49=QAAPA001|52=20180912-22:43:06.739|56=TRAX|10=212|8=FIXT.1.1|9=57|35=0|34=791|49=QAAPA001|52=20180912-22:43:37.736|56=TRAX|10=214|8=FIXT.1.1|9=57|35=0|34=792|49=QAAPA001|52=20180912-22:44:07.737|56=TRAX|10=214|8=FIXT.1.1|9=57|35=0|34=793|49=QAAPA001|52=20180912-22:44:38.736|56=TRAX|10=218|8=FIXT.1.1|9=57|35=0|34=794|49=QAAPA001|52=20180912-22:45:08.736|56=TRAX|10=217|8=FIXT.1.1|9=57|35=0|34=795|49=QAAPA001|52=20180912-22:45:38.736|56=TRAX|10=221|8=FIXT.1.1|9=57|35=0|34=796|49=QAAPA001|52=20180912-22:46:08.737|56=TRAX|10=221|8=FIXT.1.1|9=57|35=0|34=797|49=QAAPA001|52=20180912-22:46:38.738|56=TRAX|10=226|8=FIXT.1.1|9=57|35=0|34=798|49=QAAPA001|52=20180912-22:47:08.738|56=TRAX|10=225|8=FIXT.1.1|9=57|35=0|34=799|49=QAAPA001|52=20180912-22:47:38.738|56=TRAX|10=229|8=FIXT.1.1|9=57|35=0|34=800|49=QAAPA001|52=20180912-22:48:08.739|56=TRAX|10=211|8=FIXT.1.1|9=57|35=0|34=801|49=QAAPA001|52=20180912-22:48:38.739|56=TRAX|10=215|8=FIXT.1.1|9=57|35=0|34=802|49=QAAPA001|52=20180912-22:49:08.739|56=TRAX|10=214|8=FIXT.1.1|9=57|35=0|34=803|49=QAAPA001|52=20180912-22:49:39.736|56=TRAX|10=216|8=FIXT.1.1|9=57|35=0|34=804|49=QAAPA001|52=20180912-22:50:09.736|56=TRAX|10=206|8=FIXT.1.1|9=57|35=0|34=805|49=QAAPA001|52=20180912-22:50:39.736|56=TRAX|10=210|8=FIXT.1.1|9=57|35=0|34=806|49=QAAPA001|52=20180912-22:51:09.738|56=TRAX|10=211|8=FIXT.1.1|9=57|35=0|34=807|49=QAAPA001|52=20180912-22:51:39.738|56=TRAX|10=215|8=FIXT.1.1|9=57|35=0|34=808|49=QAAPA001|52=20180912-22:52:09.738|56=TRAX|10=214|8=FIXT.1.1|9=57|35=0|34=809|49=QAAPA001|52=20180912-22:52:39.738|56=TRAX|10=218|8=FIXT.1.1|9=57|35=0|34=810|49=QAAPA001|52=20180912-22:53:09.738|56=TRAX|10=208|8=FIXT.1.1|9=57|35=0|34=811|49=QAAPA001|52=20180912-22:53:39.739|56=TRAX|10=213|8=FIXT.1.1|9=57|35=0|34=812|49=QAAPA001|52=20180912-22:54:09.741|56=TRAX|10=205|8=FIXT.1.1|9=57|35=0|34=813|49=QAAPA001|52=20180912-22:54:40.735|56=TRAX|10=204|8=FIXT.1.1|9=57|35=0|34=814|49=QAAPA001|52=20180912-22:55:10.740|56=TRAX|10=199|8=FIXT.1.1|9=57|35=0|34=815|49=QAAPA001|52=20180912-22:55:40.740|56=TRAX|10=203|8=FIXT.1.1|9=57|35=0|34=816|49=QAAPA001|52=20180912-22:56:10.741|56=TRAX|10=203|8=FIXT.1.1|9=57|35=0|34=817|49=QAAPA001|52=20180912-22:56:41.738|56=TRAX|10=214|8=FIXT.1.1|9=57|35=0|34=818|49=QAAPA001|52=20180912-22:57:11.738|56=TRAX|10=213|8=FIXT.1.1|9=57|35=0|34=819|49=QAAPA001|52=20180912-22:57:41.738|56=TRAX|10=217|8=FIXT.1.1|9=57|35=0|34=820|49=QAAPA001|52=20180912-22:58:11.739|56=TRAX|10=208|8=FIXT.1.1|9=57|35=0|34=821|49=QAAPA001|52=20180912-22:58:42.736|56=TRAX|10=210|8=FIXT.1.1|9=57|35=0|34=822|49=QAAPA001|52=20180912-22:59:12.739|56=TRAX|10=212|8=FIXT.1.1|9=57|35=0|34=823|49=QAAPA001|52=20180912-22:59:43.736|56=TRAX|10=214|8=FIXT.1.1|9=57|35=0|34=824|49=QAAPA001|52=20180912-23:00:13.736|56=TRAX|10=199|8=FIXT.1.1|9=57|35=0|34=825|49=QAAPA001|52=20180912-23:00:43.738|56=TRAX|10=205|8=FIXT.1.1|9=57|35=0|34=826|49=QAAPA001|52=20180912-23:01:14.738|56=TRAX|10=205|8=FIXT.1.1|9=57|35=0|34=827|49=QAAPA001|52=20180912-23:01:44.738|56=TRAX|10=209|8=FIXT.1.1|9=57|35=0|34=828|49=QAAPA001|52=20180912-23:02:14.739|56=TRAX|10=209|8=FIXT.1.1|9=57|35=0|34=829|49=QAAPA001|52=20180912-23:02:44.739|56=TRAX|10=213|8=FIXT.1.1|9=57|35=0|34=830|49=QAAPA001|52=20180912-23:03:15.736|56=TRAX|10=201|8=FIXT.1.1|9=57|35=0|34=831|49=QAAPA001|52=20180912-23:03:45.736|56=TRAX|10=205|8=FIXT.1.1|9=57|35=0|34=832|49=QAAPA001|52=20180912-23:04:15.740|56=TRAX|10=199|8=FIXT.1.1|9=57|35=0|34=833|49=QAAPA001|52=20180912-23:04:46.739|56=TRAX|10=212|8=FIXT.1.1|9=57|35=5|34=834|49=QAAPA001|52=20180912-23:05:01.761|56=TRAX|10=205|8=FIXT.1.1|9=97|35=A|34=1|49=QAAPA001|52=20180913-06:44:53.804|56=TRAX|98=0|108=30|95=8|96=3.0.0rc3|141=Y|1137=9|10=138|8=FIXT.1.1|9=55|35=0|34=2|49=QAAPA001|52=20180913-06:45:24.231|56=TRAX|10=092|8=FIXT.1.1|9=55|35=0|34=3|49=QAAPA001|52=20180913-06:45:54.785|56=TRAX|10=110|8=FIXT.1.1|9=463|35=AE|34=4|49=QAAPA001|50=APA|57=APA|52=20180913-06:46:13.847|56=TRAX|571=APA-20180717153729978aOLN68wOTW|487=0|325=Y|423=22|55=[N/A]|48=THCDJJAES81T|1390=1|22=4|32=1000|31=100.35|60=20180827-15:37:19.979|552=1|54=1|29=1|1041=APA-20180717153729978aOLN68wOTW23|22801=1|22802=SIZE|1934=0|1116=3|1117=2138001YRXK8OT1GR195|1118=N|1119=116|1117=XOFF|1118=G|1119=73|1117=2138001123F8QFPOZ919|1118=N|1119=1|15=GBP|120=GBP|1924=1|22600=250|22601=GBP|854=1|231=10|30=SINT|10=234|8=FIXT.1.1|9=55|35=0|34=5|49=QAAPA001|52=20180913-06:46:44.229|56=TRAX|10=105|8=FIXT.1.1|9=55|35=0|34=6|49=QAAPA001|52=20180913-06:47:14.786|56=TRAX|10=112|8=FIXT.1.1|9=55|35=0|34=7|49=QAAPA001|52=20180913-06:47:45.786|56=TRAX|10=117|8=FIXT.1.1|9=55|35=0|34=8|49=QAAPA001|52=20180913-06:48:15.786|56=TRAX|10=116|8=FIXT.1.1|9=55|35=0|34=9|49=QAAPA001|52=20180913-06:48:46.785|56=TRAX|10=120|8=FIXT.1.1|9=56|35=0|34=10|49=QAAPA001|52=20180913-06:49:16.796|56=TRAX|10=161|8=FIXT.1.1|9=56|35=0|34=11|49=QAAPA001|52=20180913-06:49:47.786|56=TRAX|10=165|8=FIXT.1.1|9=56|35=0|34=12|49=QAAPA001|52=20180913-06:50:17.786|56=TRAX|10=155|8=FIXT.1.1|9=56|35=0|34=13|49=QAAPA001|52=20180913-06:50:47.786|56=TRAX|10=159|8=FIXT.1.1|9=56|35=0|34=14|49=QAAPA001|52=20180913-06:51:17.786|56=TRAX|10=158|8=FIXT.1.1|9=56|35=0|34=15|49=QAAPA001|52=20180913-06:51:47.786|56=TRAX|10=162|8=FIXT.1.1|9=56|35=0|34=16|49=QAAPA001|52=20180913-06:52:17.786|56=TRAX|10=161|8=FIXT.1.1|9=56|35=0|34=17|49=QAAPA001|52=20180913-06:52:47.786|56=TRAX|10=165|8=FIXT.1.1|9=56|35=0|34=18|49=QAAPA001|52=20180913-06:53:17.786|56=TRAX|10=164|8=FIXT.1.1|9=56|35=0|34=19|49=QAAPA001|52=20180913-06:53:48.786|56=TRAX|10=169|8=FIXT.1.1|9=56|35=0|34=20|49=QAAPA001|52=20180913-06:54:18.787|56=TRAX|10=160|8=FIXT.1.1|9=56|35=0|34=21|49=QAAPA001|52=20180913-06:54:49.786|56=TRAX|10=164|8=FIXT.1.1|9=56|35=0|34=22|49=QAAPA001|52=20180913-06:55:20.785|56=TRAX|10=154|8=FIXT.1.1|9=56|35=0|34=23|49=QAAPA001|52=20180913-06:55:50.785|56=TRAX|10=158|8=FIXT.1.1|9=56|35=0|34=24|49=QAAPA001|52=20180913-06:56:20.785|56=TRAX|10=157|8=FIXT.1.1|9=56|35=0|34=25|49=QAAPA001|52=20180913-06:56:50.786|56=TRAX|10=162|8=FIXT.1.1|9=56|35=0|34=26|49=QAAPA001|52=20180913-06:57:20.786|56=TRAX|10=161|8=FIXT.1.1|9=56|35=0|34=27|49=QAAPA001|52=20180913-06:57:50.786|56=TRAX|10=165|8=FIXT.1.1|9=56|35=0|34=28|49=QAAPA001|52=20180913-06:58:21.786|56=TRAX|10=165|8=FIXT.1.1|9=56|35=0|34=29|49=QAAPA001|52=20180913-06:58:52.786|56=TRAX|10=170|8=FIXT.1.1|9=56|35=0|34=30|49=QAAPA001|52=20180913-06:59:23.786|56=TRAX|10=161|8=FIXT.1.1|9=56|35=0|34=31|49=QAAPA001|52=20180913-06:59:54.786|56=TRAX|10=166|8=FIXT.1.1|9=56|35=0|34=32|49=QAAPA001|52=20180913-07:00:25.786|56=TRAX|10=152|8=FIXT.1.1|9=56|35=0|34=33|49=QAAPA001|52=20180913-07:00:55.786|56=TRAX|10=156|8=FIXT.1.1|9=56|35=0|34=34|49=QAAPA001|52=20180913-07:01:25.786|56=TRAX|10=155|8=FIXT.1.1|9=56|35=0|34=35|49=QAAPA001|52=20180913-07:01:56.786|56=TRAX|10=160|8=FIXT.1.1|9=56|35=0|34=36|49=QAAPA001|52=20180913-07:02:27.786|56=TRAX|10=160|8=FIXT.1.1|9=56|35=0|34=37|49=QAAPA001|52=20180913-07:02:58.787|56=TRAX|10=166|8=FIXT.1.1|9=56|35=0|34=38|49=QAAPA001|52=20180913-07:03:29.785|56=TRAX|10=164|8=FIXT.1.1|9=56|35=0|34=39|49=QAAPA001|52=20180913-07:03:59.786|56=TRAX|10=169|8=FIXT.1.1|9=56|35=0|34=40|49=QAAPA001|52=20180913-07:04:29.786|56=TRAX|10=159|8=FIXT.1.1|9=56|35=0|34=41|49=QAAPA001|52=20180913-07:05:00.786|56=TRAX|10=150|8=FIXT.1.1|9=56|35=0|34=42|49=QAAPA001|52=20180913-07:05:30.786|56=TRAX|10=154|8=FIXT.1.1|9=56|35=0|34=43|49=QAAPA001|52=20180913-07:06:00.786|56=TRAX|10=153|8=FIXT.1.1|9=56|35=0|34=44|49=QAAPA001|52=20180913-07:06:31.786|56=TRAX|10=158|8=FIXT.1.1|9=56|35=0|34=45|49=QAAPA001|52=20180913-07:07:01.786|56=TRAX|10=157|8=FIXT.1.1|9=56|35=0|34=46|49=QAAPA001|52=20180913-07:07:31.786|56=TRAX|10=161|8=FIXT.1.1|9=56|35=0|34=47|49=QAAPA001|52=20180913-07:08:01.786|56=TRAX|10=160|8=FIXT.1.1|9=56|35=0|34=48|49=QAAPA001|52=20180913-07:08:31.786|56=TRAX|10=164|8=FIXT.1.1|9=56|35=0|34=49|49=QAAPA001|52=20180913-07:09:02.787|56=TRAX|10=165|8=FIXT.1.1|9=56|35=0|34=50|49=QAAPA001|52=20180913-07:09:33.785|56=TRAX|10=159|8=FIXT.1.1|9=56|35=0|34=51|49=QAAPA001|52=20180913-07:10:03.787|56=TRAX|10=151|8=FIXT.1.1|9=56|35=0|34=52|49=QAAPA001|52=20180913-07:10:34.785|56=TRAX|10=154|8=FIXT.1.1|9=56|35=0|34=53|49=QAAPA001|52=20180913-07:11:04.786|56=TRAX|10=154|8=FIXT.1.1|9=56|35=0|34=54|49=QAAPA001|52=20180913-07:11:34.786|56=TRAX|10=158|8=FIXT.1.1|9=56|35=0|34=55|49=QAAPA001|52=20180913-07:12:04.786|56=TRAX|10=157|8=FIXT.1.1|9=56|35=0|34=56|49=QAAPA001|52=20180913-07:12:35.786|56=TRAX|10=162|8=FIXT.1.1|9=56|35=0|34=57|49=QAAPA001|52=20180913-07:13:06.785|56=TRAX|10=161|8=FIXT.1.1|9=56|35=0|34=58|49=QAAPA001|52=20180913-07:13:36.785|56=TRAX|10=165|8=FIXT.1.1|9=56|35=0|34=59|49=QAAPA001|52=20180913-07:14:06.785|56=TRAX|10=164|8=FIXT.1.1|9=56|35=0|34=60|49=QAAPA001|52=20180913-07:14:36.785|56=TRAX|10=159|8=FIXT.1.1|9=56|35=0|34=61|49=QAAPA001|52=20180913-07:15:06.786|56=TRAX|10=159|8=FIXT.1.1|9=56|35=0|34=62|49=QAAPA001|52=20180913-07:15:37.784|56=TRAX|10=162|8=FIXT.1.1|9=56|35=0|34=63|49=QAAPA001|52=20180913-07:16:07.785|56=TRAX|10=162|8=FIXT.1.1|9=56|35=0|34=64|49=QAAPA001|52=20180913-07:16:38.785|56=TRAX|10=167|8=FIXT.1.1|9=56|35=0|34=65|49=QAAPA001|52=20180913-07:17:09.785|56=TRAX|10=167|8=FIXT.1.1|9=56|35=0|34=66|49=QAAPA001|52=20180913-07:17:40.785|56=TRAX|10=163|8=FIXT.1.1|9=56|35=0|34=67|49=QAAPA001|52=20180913-07:18:11.784|56=TRAX|10=162|8=FIXT.1.1|9=56|35=0|34=68|49=QAAPA001|52=20180913-07:18:41.784|56=TRAX|10=166|8=FIXT.1.1|9=56|35=0|34=69|49=QAAPA001|52=20180913-07:19:11.784|56=TRAX|10=165|8=FIXT.1.1|9=56|35=0|34=70|49=QAAPA001|52=20180913-07:19:42.784|56=TRAX|10=161|8=FIXT.1.1|9=56|35=0|34=71|49=QAAPA001|52=20180913-07:20:12.784|56=TRAX|10=151|8=FIXT.1.1|9=56|35=0|34=72|49=QAAPA001|52=20180913-07:20:42.784|56=TRAX|10=155|8=FIXT.1.1|9=56|35=0|34=73|49=QAAPA001|52=20180913-07:21:13.784|56=TRAX|10=155|8=FIXT.1.1|9=56|35=0|34=74|49=QAAPA001|52=20180913-07:21:44.784|56=TRAX|10=160|8=FIXT.1.1|9=56|35=0|34=75|49=QAAPA001|52=20180913-07:22:14.784|56=TRAX|10=159|8=FIXT.1.1|9=56|35=0|34=76|49=QAAPA001|52=20180913-07:22:45.784|56=TRAX|10=164|8=FIXT.1.1|9=56|35=0|34=77|49=QAAPA001|52=20180913-07:23:15.784|56=TRAX|10=163|8=FIXT.1.1|9=56|35=0|34=78|49=QAAPA001|52=20180913-07:23:45.784|56=TRAX|10=167|8=FIXT.1.1|9=56|35=0|34=79|49=QAAPA001|52=20180913-07:24:15.784|56=TRAX|10=166|8=FIXT.1.1|9=56|35=0|34=80|49=QAAPA001|52=20180913-07:24:46.231|56=TRAX|10=149|8=FIXT.1.1|9=56|35=0|34=81|49=QAAPA001|52=20180913-07:25:16.783|56=TRAX|10=160|8=FIXT.1.1|9=56|35=0|34=82|49=QAAPA001|52=20180913-07:25:46.784|56=TRAX|10=165|8=FIXT.1.1|9=56|35=0|34=83|49=QAAPA001|52=20180913-07:26:16.784|56=TRAX|10=164|8=FIXT.1.1|9=56|35=0|34=84|49=QAAPA001|52=20180913-07:26:47.784|56=TRAX|10=169|8=FIXT.1.1|9=56|35=0|34=85|49=QAAPA001|52=20180913-07:27:18.784|56=TRAX|10=169|8=FIXT.1.1|9=56|35=0|34=86|49=QAAPA001|52=20180913-07:27:49.784|56=TRAX|10=174|8=FIXT.1.1|9=56|35=0|34=87|49=QAAPA001|52=20180913-07:28:19.785|56=TRAX|10=174|8=FIXT.1.1|9=56|35=0|34=88|49=QAAPA001|52=20180913-07:28:50.784|56=TRAX|10=169|8=FIXT.1.1|9=56|35=0|34=89|49=QAAPA001|52=20180913-07:29:21.784|56=TRAX|10=169|8=FIXT.1.1|9=56|35=0|34=90|49=QAAPA001|52=20180913-07:29:51.784|56=TRAX|10=164|8=FIXT.1.1|9=56|35=0|34=91|49=QAAPA001|52=20180913-07:30:21.784|56=TRAX|10=154|8=FIXT.1.1|9=56|35=0|34=92|49=QAAPA001|52=20180913-07:30:52.785|56=TRAX|10=160|8=FIXT.1.1|9=56|35=0|34=93|49=QAAPA001|52=20180913-07:31:23.784|56=TRAX|10=159|8=FIXT.1.1|9=56|35=0|34=94|49=QAAPA001|52=20180913-07:31:53.784|56=TRAX|10=163|8=FIXT.1.1|9=56|35=0|34=95|49=QAAPA001|52=20180913-07:32:24.784|56=TRAX|10=163|8=FIXT.1.1|9=56|35=0|34=96|49=QAAPA001|52=20180913-07:32:54.784|56=TRAX|10=167|8=FIXT.1.1|9=56|35=0|34=97|49=QAAPA001|52=20180913-07:33:25.784|56=TRAX|10=167|8=FIXT.1.1|9=56|35=0|34=98|49=QAAPA001|52=20180913-07:33:56.784|56=TRAX|10=172|8=FIXT.1.1|9=56|35=0|34=99|49=QAAPA001|52=20180913-07:34:27.784|56=TRAX|10=172|8=FIXT.1.1|9=57|35=0|34=100|49=QAAPA001|52=20180913-07:34:57.786|56=TRAX|10=209|8=FIXT.1.1|9=57|35=0|34=101|49=QAAPA001|52=20180913-07:35:28.784|56=TRAX|10=207|8=FIXT.1.1|9=57|35=0|34=102|49=QAAPA001|52=20180913-07:35:58.784|56=TRAX|10=211|8=FIXT.1.1|9=57|35=0|34=103|49=QAAPA001|52=20180913-07:36:29.784|56=TRAX|10=211|8=FIXT.1.1|9=57|35=0|34=104|49=QAAPA001|52=20180913-07:36:59.784|56=TRAX|10=215|8=FIXT.1.1|9=57|35=0|34=105|49=QAAPA001|52=20180913-07:37:29.784|56=TRAX|10=214|8=FIXT.1.1|9=57|35=0|34=106|49=QAAPA001|52=20180913-07:37:59.784|56=TRAX|10=218|8=FIXT.1.1|9=57|35=0|34=107|49=QAAPA001|52=20180913-07:38:30.784|56=TRAX|10=209|8=FIXT.1.1|9=57|35=0|34=108|49=QAAPA001|52=20180913-07:39:01.784|56=TRAX|10=209|8=FIXT.1.1|9=57|35=0|34=109|49=QAAPA001|52=20180913-07:39:32.784|56=TRAX|10=214|8=FIXT.1.1|9=57|35=0|34=110|49=QAAPA001|52=20180913-07:40:02.784|56=TRAX|10=195|8=FIXT.1.1|9=57|35=0|34=111|49=QAAPA001|52=20180913-07:40:32.784|56=TRAX|10=199|8=FIXT.1.1|9=57|35=0|34=112|49=QAAPA001|52=20180913-07:41:02.784|56=TRAX|10=198|8=FIXT.1.1|9=57|35=0|34=113|49=QAAPA001|52=20180913-07:41:32.784|56=TRAX|10=202|8=FIXT.1.1|9=57|35=0|34=114|49=QAAPA001|52=20180913-07:42:03.784|56=TRAX|10=202|8=FIXT.1.1|9=57|35=0|34=115|49=QAAPA001|52=20180913-07:42:33.784|56=TRAX|10=206|8=FIXT.1.1|9=57|35=0|34=116|49=QAAPA001|52=20180913-07:43:03.784|56=TRAX|10=205|8=FIXT.1.1|9=57|35=0|34=117|49=QAAPA001|52=20180913-07:43:33.784|56=TRAX|10=209|8=FIXT.1.1|9=57|35=0|34=118|49=QAAPA001|52=20180913-07:44:03.784|56=TRAX|10=208|8=FIXT.1.1|9=57|35=0|34=119|49=QAAPA001|52=20180913-07:44:33.784|56=TRAX|10=212|8=FIXT.1.1|9=57|35=0|34=120|49=QAAPA001|52=20180913-07:45:03.785|56=TRAX|10=203|8=FIXT.1.1|9=57|35=0|34=121|49=QAAPA001|52=20180913-07:45:34.784|56=TRAX|10=207|8=FIXT.1.1|9=57|35=0|34=122|49=QAAPA001|52=20180913-07:46:04.784|56=TRAX|10=206|8=FIXT.1.1|9=57|35=0|34=123|49=QAAPA001|52=20180913-07:46:34.784|56=TRAX|10=210|8=FIXT.1.1|9=57|35=0|34=124|49=QAAPA001|52=20180913-07:47:04.784|56=TRAX|10=209|8=FIXT.1.1|9=57|35=0|34=125|49=QAAPA001|52=20180913-07:47:34.784|56=TRAX|10=213|8=FIXT.1.1|9=57|35=0|34=126|49=QAAPA001|52=20180913-07:48:04.784|56=TRAX|10=212|8=FIXT.1.1|9=57|35=0|34=127|49=QAAPA001|52=20180913-07:48:35.784|56=TRAX|10=217|8=FIXT.1.1|9=57|35=0|34=128|49=QAAPA001|52=20180913-07:49:05.784|56=TRAX|10=216|8=FIXT.1.1|9=57|35=0|34=129|49=QAAPA001|52=20180913-07:49:35.784|56=TRAX|10=220|8=FIXT.1.1|9=57|35=0|34=130|49=QAAPA001|52=20180913-07:50:05.784|56=TRAX|10=201|8=FIXT.1.1|9=57|35=0|34=131|49=QAAPA001|52=20180913-07:50:35.785|56=TRAX|10=206|8=FIXT.1.1|9=57|35=0|34=132|49=QAAPA001|52=20180913-07:51:06.784|56=TRAX|10=205|8=FIXT.1.1|9=57|35=0|34=133|49=QAAPA001|52=20180913-07:51:36.784|56=TRAX|10=209|8=FIXT.1.1|9=57|35=0|34=134|49=QAAPA001|52=20180913-07:52:06.784|56=TRAX|10=208|8=FIXT.1.1|9=57|35=0|34=135|49=QAAPA001|52=20180913-07:52:36.784|56=TRAX|10=212|8=FIXT.1.1|9=57|35=0|34=136|49=QAAPA001|52=20180913-07:53:07.784|56=TRAX|10=212|8=FIXT.1.1|9=57|35=0|34=137|49=QAAPA001|52=20180913-07:53:37.784|56=TRAX|10=216|8=FIXT.1.1|9=57|35=0|34=138|49=QAAPA001|52=20180913-07:54:08.785|56=TRAX|10=217|8=FIXT.1.1|9=57|35=0|34=139|49=QAAPA001|52=20180913-07:54:39.784|56=TRAX|10=221|8=FIXT.1.1|9=57|35=0|34=140|49=QAAPA001|52=20180913-07:55:09.784|56=TRAX|10=211|8=FIXT.1.1|9=57|35=0|34=141|49=QAAPA001|52=20180913-07:55:40.784|56=TRAX|10=207|8=FIXT.1.1|9=57|35=0|34=142|49=QAAPA001|52=20180913-07:56:11.784|56=TRAX|10=207|8=FIXT.1.1|9=57|35=0|34=143|49=QAAPA001|52=20180913-07:56:41.785|56=TRAX|10=212|8=FIXT.1.1|9=57|35=0|34=144|49=QAAPA001|52=20180913-07:57:12.784|56=TRAX|10=211|8=FIXT.1.1|9=57|35=0|34=145|49=QAAPA001|52=20180913-07:57:42.784|56=TRAX|10=215|8=FIXT.1.1|9=57|35=0|34=146|49=QAAPA001|52=20180913-07:58:13.785|56=TRAX|10=216|8=FIXT.1.1|9=57|35=0|34=147|49=QAAPA001|52=20180913-07:58:43.785|56=TRAX|10=220|8=FIXT.1.1|9=57|35=0|34=148|49=QAAPA001|52=20180913-07:59:14.784|56=TRAX|10=219|8=FIXT.1.1|9=57|35=0|34=149|49=QAAPA001|52=20180913-07:59:44.784|56=TRAX|10=223|8=FIXT.1.1|9=57|35=0|34=150|49=QAAPA001|52=20180913-08:00:15.784|56=TRAX|10=200|8=FIXT.1.1|9=57|35=0|34=151|49=QAAPA001|52=20180913-08:00:46.232|56=TRAX|10=193|8=FIXT.1.1|9=57|35=0|34=152|49=QAAPA001|52=20180913-08:01:16.233|56=TRAX|10=193|8=FIXT.1.1|9=57|35=0|34=153|49=QAAPA001|52=20180913-08:01:46.233|56=TRAX|10=197|8=FIXT.1.1|9=57|35=0|34=154|49=QAAPA001|52=20180913-08:02:16.784|56=TRAX|10=207|8=FIXT.1.1|9=57|35=0|34=155|49=QAAPA001|52=20180913-08:02:47.784|56=TRAX|10=212|8=FIXT.1.1|9=57|35=0|34=156|49=QAAPA001|52=20180913-08:03:17.784|56=TRAX|10=211|8=FIXT.1.1|9=57|35=0|34=157|49=QAAPA001|52=20180913-08:03:48.784|56=TRAX|10=216|8=FIXT.1.1|9=57|35=0|34=158|49=QAAPA001|52=20180913-08:04:18.784|56=TRAX|10=215|8=FIXT.1.1|9=57|35=0|34=159|49=QAAPA001|52=20180913-08:04:48.785|56=TRAX|10=220|8=FIXT.1.1|9=57|35=0|34=160|49=QAAPA001|52=20180913-08:05:19.784|56=TRAX|10=210|8=FIXT.1.1|9=57|35=0|34=161|49=QAAPA001|52=20180913-08:05:49.784|56=TRAX|10=214|8=FIXT.1.1|9=57|35=0|34=162|49=QAAPA001|52=20180913-08:06:19.785|56=TRAX|10=214|8=FIXT.1.1|9=57|35=0|34=163|49=QAAPA001|52=20180913-08:06:50.784|56=TRAX|10=209|8=FIXT.1.1|9=57|35=0|34=164|49=QAAPA001|52=20180913-08:07:20.784|56=TRAX|10=208|8=FIXT.1.1|9=57|35=0|34=165|49=QAAPA001|52=20180913-08:07:51.784|56=TRAX|10=213|8=FIXT.1.1|9=57|35=0|34=166|49=QAAPA001|52=20180913-08:08:21.784|56=TRAX|10=212|8=FIXT.1.1|9=57|35=0|34=167|49=QAAPA001|52=20180913-08:08:52.784|56=TRAX|10=217|8=FIXT.1.1|9=57|35=0|34=168|49=QAAPA001|52=20180913-08:09:22.784|56=TRAX|10=216|8=FIXT.1.1|9=57|35=0|34=169|49=QAAPA001|52=20180913-08:09:53.784|56=TRAX|10=221|8=FIXT.1.1|9=57|35=0|34=170|49=QAAPA001|52=20180913-08:10:23.784|56=TRAX|10=202|8=FIXT.1.1|9=57|35=0|34=171|49=QAAPA001|52=20180913-08:10:53.784|56=TRAX|10=206|8=FIXT.1.1|9=57|35=0|34=172|49=QAAPA001|52=20180913-08:11:23.784|56=TRAX|10=205|8=FIXT.1.1|9=57|35=0|34=173|49=QAAPA001|52=20180913-08:11:53.784|56=TRAX|10=209|8=FIXT.1.1|9=57|35=0|34=174|49=QAAPA001|52=20180913-08:12:23.784|56=TRAX|10=208|8=FIXT.1.1|9=57|35=0|34=175|49=QAAPA001|52=20180913-08:12:54.784|56=TRAX|10=213|8=FIXT.1.1|9=57|35=0|34=176|49=QAAPA001|52=20180913-08:13:24.784|56=TRAX|10=212|8=FIXT.1.1|9=57|35=0|34=177|49=QAAPA001|52=20180913-08:13:54.784|56=TRAX|10=216|8=FIXT.1.1|9=57|35=0|34=178|49=QAAPA001|52=20180913-08:14:24.784|56=TRAX|10=215|8=FIXT.1.1|9=57|35=0|34=179|49=QAAPA001|52=20180913-08:14:55.784|56=TRAX|10=220|8=FIXT.1.1|9=57|35=0|34=180|49=QAAPA001|52=20180913-08:15:26.784|56=TRAX|10=211|8=FIXT.1.1|9=57|35=0|34=181|49=QAAPA001|52=20180913-08:15:57.784|56=TRAX|10=216|8=FIXT.1.1|9=57|35=0|34=182|49=QAAPA001|52=20180913-08:16:27.784|56=TRAX|10=215|8=FIXT.1.1|9=57|35=0|34=183|49=QAAPA001|52=20180913-08:16:57.784|56=TRAX|10=219|8=FIXT.1.1|9=57|35=0|34=184|49=QAAPA001|52=20180913-08:17:27.784|56=TRAX|10=218|8=FIXT.1.1|9=57|35=0|34=185|49=QAAPA001|52=20180913-08:17:57.784|56=TRAX|10=222|8=FIXT.1.1|9=57|35=0|34=186|49=QAAPA001|52=20180913-08:18:27.784|56=TRAX|10=221|8=FIXT.1.1|9=57|35=0|34=187|49=QAAPA001|52=20180913-08:18:57.784|56=TRAX|10=225|8=FIXT.1.1|9=57|35=0|34=188|49=QAAPA001|52=20180913-08:19:28.784|56=TRAX|10=225|8=FIXT.1.1|9=57|35=0|34=189|49=QAAPA001|52=20180913-08:19:59.783|56=TRAX|10=229|8=FIXT.1.1|9=57|35=0|34=190|49=QAAPA001|52=20180913-08:20:29.783|56=TRAX|10=210|8=FIXT.1.1|9=57|35=0|34=191|49=QAAPA001|52=20180913-08:20:59.783|56=TRAX|10=214|8=FIXT.1.1|9=57|35=0|34=192|49=QAAPA001|52=20180913-08:21:29.783|56=TRAX|10=213|8=FIXT.1.1|9=57|35=0|34=193|49=QAAPA001|52=20180913-08:22:00.783|56=TRAX|10=204|8=FIXT.1.1|9=57|35=0|34=194|49=QAAPA001|52=20180913-08:22:31.783|56=TRAX|10=209|8=FIXT.1.1|9=57|35=0|34=195|49=QAAPA001|52=20180913-08:23:01.783|56=TRAX|10=208|8=FIXT.1.1|9=57|35=0|34=196|49=QAAPA001|52=20180913-08:23:32.782|56=TRAX|10=212|8=FIXT.1.1|9=57|35=0|34=197|49=QAAPA001|52=20180913-08:24:02.782|56=TRAX|10=211|8=FIXT.1.1|9=57|35=0|34=198|49=QAAPA001|52=20180913-08:24:33.782|56=TRAX|10=216|8=FIXT.1.1|9=57|35=0|34=199|49=QAAPA001|52=20180913-08:25:03.782|56=TRAX|10=215|8=FIXT.1.1|9=57|35=0|34=200|49=QAAPA001|52=20180913-08:25:34.782|56=TRAX|10=202|8=FIXT.1.1|9=57|35=0|34=201|49=QAAPA001|52=20180913-08:26:04.782|56=TRAX|10=201|8=FIXT.1.1|9=57|35=0|34=202|49=QAAPA001|52=20180913-08:26:35.782|56=TRAX|10=206|8=FIXT.1.1|9=57|35=0|34=203|49=QAAPA001|52=20180913-08:27:05.783|56=TRAX|10=206|8=FIXT.1.1|9=57|35=0|34=204|49=QAAPA001|52=20180913-08:27:35.783|56=TRAX|10=210|8=FIXT.1.1|9=57|35=0|34=205|49=QAAPA001|52=20180913-08:28:06.782|56=TRAX|10=209|8=FIXT.1.1|9=57|35=0|34=206|49=QAAPA001|52=20180913-08:28:36.782|56=TRAX|10=213|8=FIXT.1.1|9=57|35=0|34=207|49=QAAPA001|52=20180913-08:29:07.782|56=TRAX|10=213|8=FIXT.1.1|9=57|35=0|34=208|49=QAAPA001|52=20180913-08:29:37.782|56=TRAX|10=217|8=FIXT.1.1|9=57|35=0|34=209|49=QAAPA001|52=20180913-08:30:07.782|56=TRAX|10=207|8=FIXT.1.1|9=57|35=0|34=210|49=QAAPA001|52=20180913-08:30:38.782|56=TRAX|10=203|8=FIXT.1.1|9=57|35=0|34=211|49=QAAPA001|52=20180913-08:31:08.782|56=TRAX|10=202|8=FIXT.1.1|9=57|35=0|34=212|49=QAAPA001|52=20180913-08:31:39.782|56=TRAX|10=207|8=FIXT.1.1|9=57|35=0|34=213|49=QAAPA001|52=20180913-08:32:09.782|56=TRAX|10=206|8=FIXT.1.1|9=57|35=0|34=214|49=QAAPA001|52=20180913-08:32:40.782|56=TRAX|10=202|8=FIXT.1.1|9=57|35=0|34=215|49=QAAPA001|52=20180913-08:33:10.782|56=TRAX|10=201|8=FIXT.1.1|9=57|35=0|34=216|49=QAAPA001|52=20180913-08:33:40.782|56=TRAX|10=205|8=FIXT.1.1|9=57|35=0|34=217|49=QAAPA001|52=20180913-08:34:10.782|56=TRAX|10=204|8=FIXT.1.1|9=57|35=0|34=218|49=QAAPA001|52=20180913-08:34:40.783|56=TRAX|10=209|8=FIXT.1.1|9=57|35=0|34=219|49=QAAPA001|52=20180913-08:35:11.782|56=TRAX|10=208|8=FIXT.1.1|9=57|35=0|34=220|49=QAAPA001|52=20180913-08:35:41.782|56=TRAX|10=203|8=FIXT.1.1|9=57|35=0|34=221|49=QAAPA001|52=20180913-08:36:11.782|56=TRAX|10=202|8=FIXT.1.1|9=57|35=0|34=222|49=QAAPA001|52=20180913-08:36:41.782|56=TRAX|10=206|8=FIXT.1.1|9=57|35=0|34=223|49=QAAPA001|52=20180913-08:37:11.782|56=TRAX|10=205|8=FIXT.1.1|9=57|35=0|34=224|49=QAAPA001|52=20180913-08:37:41.782|56=TRAX|10=209|8=FIXT.1.1|9=57|35=0|34=225|49=QAAPA001|52=20180913-08:38:12.782|56=TRAX|10=209|8=FIXT.1.1|9=57|35=0|34=226|49=QAAPA001|52=20180913-08:38:42.782|56=TRAX|10=213|8=FIXT.1.1|9=57|35=0|34=227|49=QAAPA001|52=20180913-08:39:12.782|56=TRAX|10=212|8=FIXT.1.1|9=57|35=0|34=228|49=QAAPA001|52=20180913-08:39:42.782|56=TRAX|10=216|8=FIXT.1.1|9=57|35=0|34=229|49=QAAPA001|52=20180913-08:40:12.782|56=TRAX|10=206|8=FIXT.1.1|9=57|35=0|34=230|49=QAAPA001|52=20180913-08:40:42.782|56=TRAX|10=201|8=FIXT.1.1|9=57|35=0|34=231|49=QAAPA001|52=20180913-08:41:12.782|56=TRAX|10=200|8=FIXT.1.1|9=57|35=0|34=232|49=QAAPA001|52=20180913-08:41:42.782|56=TRAX|10=204|8=FIXT.1.1|9=57|35=0|34=233|49=QAAPA001|52=20180913-08:42:12.782|56=TRAX|10=203|8=FIXT.1.1|9=57|35=0|34=234|49=QAAPA001|52=20180913-08:42:43.783|56=TRAX|10=209|8=FIXT.1.1|9=57|35=0|34=235|49=QAAPA001|52=20180913-08:43:14.782|56=TRAX|10=208|8=FIXT.1.1|9=57|35=0|34=236|49=QAAPA001|52=20180913-08:43:44.782|56=TRAX|10=212|8=FIXT.1.1|9=57|35=0|34=237|49=QAAPA001|52=20180913-08:44:15.783|56=TRAX|10=213|8=FIXT.1.1|9=57|35=0|34=238|49=QAAPA001|52=20180913-08:44:46.232|56=TRAX|10=207|8=FIXT.1.1|9=57|35=0|34=239|49=QAAPA001|52=20180913-08:45:16.232|56=TRAX|10=206|8=FIXT.1.1|9=57|35=0|34=240|49=QAAPA001|52=20180913-08:45:46.233|56=TRAX|10=202|8=FIXT.1.1|9=57|35=0|34=241|49=QAAPA001|52=20180913-08:46:16.781|56=TRAX|10=209|8=FIXT.1.1|9=57|35=0|34=242|49=QAAPA001|52=20180913-08:46:46.782|56=TRAX|10=214|8=FIXT.1.1|9=57|35=0|34=243|49=QAAPA001|52=20180913-08:47:16.782|56=TRAX|10=213|8=FIXT.1.1|9=57|35=0|34=244|49=QAAPA001|52=20180913-08:47:47.782|56=TRAX|10=218|8=FIXT.1.1|9=57|35=0|34=245|49=QAAPA001|52=20180913-08:48:17.782|56=TRAX|10=217|8=FIXT.1.1|9=57|35=0|34=246|49=QAAPA001|52=20180913-08:48:47.782|56=TRAX|10=221|8=FIXT.1.1|9=57|35=0|34=247|49=QAAPA001|52=20180913-08:49:17.782|56=TRAX|10=220|8=FIXT.1.1|9=57|35=0|34=248|49=QAAPA001|52=20180913-08:49:48.782|56=TRAX|10=225|8=FIXT.1.1|9=57|35=0|34=249|49=QAAPA001|52=20180913-08:50:18.782|56=TRAX|10=215|8=FIXT.1.1|9=57|35=0|34=250|49=QAAPA001|52=20180913-08:50:48.782|56=TRAX|10=210|8=FIXT.1.1|9=57|35=0|34=251|49=QAAPA001|52=20180913-08:51:18.782|56=TRAX|10=209|8=FIXT.1.1|9=57|35=0|34=252|49=QAAPA001|52=20180913-08:51:48.783|56=TRAX|10=214|8=FIXT.1.1|9=57|35=0|34=253|49=QAAPA001|52=20180913-08:52:19.782|56=TRAX|10=213|8=FIXT.1.1|9=57|35=0|34=254|49=QAAPA001|52=20180913-08:52:49.782|56=TRAX|10=217|8=FIXT.1.1|9=57|35=0|34=255|49=QAAPA001|52=20180913-08:53:20.782|56=TRAX|10=208|8=FIXT.1.1|9=57|35=0|34=256|49=QAAPA001|52=20180913-08:53:51.782|56=TRAX|10=213|8=FIXT.1.1|9=57|35=0|34=257|49=QAAPA001|52=20180913-08:54:22.782|56=TRAX|10=213|8=FIXT.1.1|9=57|35=0|34=258|49=QAAPA001|52=20180913-08:54:52.782|56=TRAX|10=217|8=FIXT.1.1|9=57|35=0|34=259|49=QAAPA001|52=20180913-08:55:22.782|56=TRAX|10=216|8=FIXT.1.1|9=57|35=0|34=260|49=QAAPA001|52=20180913-08:55:53.782|56=TRAX|10=212|8=FIXT.1.1|9=57|35=0|34=261|49=QAAPA001|52=20180913-08:56:24.782|56=TRAX|10=212|8=FIXT.1.1|9=57|35=0|34=262|49=QAAPA001|52=20180913-08:56:54.782|56=TRAX|10=216|8=FIXT.1.1|9=57|35=0|34=263|49=QAAPA001|52=20180913-08:57:24.782|56=TRAX|10=215|8=FIXT.1.1|9=57|35=0|34=264|49=QAAPA001|52=20180913-08:57:54.782|56=TRAX|10=219|8=FIXT.1.1|9=57|35=0|34=265|49=QAAPA001|52=20180913-08:58:24.782|56=TRAX|10=218|8=FIXT.1.1|9=57|35=0|34=266|49=QAAPA001|52=20180913-08:58:54.782|56=TRAX|10=222|8=FIXT.1.1|9=57|35=0|34=267|49=QAAPA001|52=20180913-08:59:24.782|56=TRAX|10=221|8=FIXT.1.1|9=57|35=0|34=268|49=QAAPA001|52=20180913-08:59:54.782|56=TRAX|10=225|8=FIXT.1.1|9=57|35=0|34=269|49=QAAPA001|52=20180913-09:00:24.782|56=TRAX|10=210|8=FIXT.1.1|9=57|35=0|34=270|49=QAAPA001|52=20180913-09:00:55.782|56=TRAX|10=206|8=FIXT.1.1|9=57|35=0|34=271|49=QAAPA001|52=20180913-09:01:25.782|56=TRAX|10=205|8=FIXT.1.1|9=57|35=0|34=272|49=QAAPA001|52=20180913-09:01:55.782|56=TRAX|10=209|8=FIXT.1.1|9=57|35=0|34=273|49=QAAPA001|52=20180913-09:02:26.783|56=TRAX|10=210|8=FIXT.1.1|9=57|35=0|34=274|49=QAAPA001|52=20180913-09:02:57.783|56=TRAX|10=215|8=FIXT.1.1|9=57|35=0|34=275|49=QAAPA001|52=20180913-09:03:28.782|56=TRAX|10=214|8=FIXT.1.1|9=57|35=0|34=276|49=QAAPA001|52=20180913-09:03:58.782|56=TRAX|10=218|8=FIXT.1.1|9=57|35=0|34=277|49=QAAPA001|52=20180913-09:04:28.782|56=TRAX|10=217|8=FIXT.1.1|9=97|35=A|34=1|49=QAAPA001|52=20180913-15:34:36.528|56=TRAX|98=0|108=30|95=8|96=3.0.0rc3|141=Y|1137=9|10=141|8=FIXT.1.1|9=463|35=AE|34=2|49=QAAPA001|50=APA|57=APA|52=20180913-15:34:47.924|56=TRAX|571=APA-20180717153729978aOLN68wOTW|487=0|325=Y|423=22|55=[N/A]|48=THCDJJAES81T|1390=1|22=4|32=1000|31=100.35|60=20180827-15:37:19.979|552=1|54=1|29=1|1041=APA-20180717153729978aOLN68wOTW29|22801=1|22802=SIZE|1934=0|1116=3|1117=2138001YRXK8OT1GR195|1118=N|1119=116|1117=XOFF|1118=G|1119=73|1117=2138001123F8QFPOZ919|1118=N|1119=1|15=GBP|120=GBP|1924=1|22600=250|22601=GBP|854=1|231=10|30=SINT|10=238|8=FIXT.1.1|9=463|35=AE|34=3|49=QAAPA001|50=APA|57=APA|52=20180913-15:35:10.298|56=TRAX|571=APA-20180717153729978aOLN68wOTW|487=0|325=Y|423=22|55=[N/A]|48=THCDJJAES814|1390=1|22=4|32=1000|31=100.35|60=20180827-15:37:19.979|552=1|54=1|29=1|1041=APA-20180717153729978aOLN68wOTW30|22801=1|22802=SIZE|1934=0|1116=3|1117=2138001YRXK8OT1GR195|1118=N|1119=116|1117=XOFF|1118=G|1119=73|1117=2138001123F8QFPOZ919|1118=N|1119=1|15=GBP|120=GBP|1924=1|22600=250|22601=GBP|854=1|231=10|30=SINT|10=194|8=FIXT.1.1|9=463|35=AE|34=4|49=QAAPA001|50=APA|57=APA|52=20180913-15:35:27.658|56=TRAX|571=APA-20180717153729978aOLN68wOTW|487=0|325=Y|423=22|55=[N/A]|48=THCDJ56ES814|1390=1|22=4|32=1000|31=100.35|60=20180827-15:37:19.979|552=1|54=1|29=1|1041=APA-20180717153729978aOLN68wOTW31|22801=1|22802=SIZE|1934=0|1116=3|1117=2138001YRXK8OT1GR195|1118=N|1119=116|1117=XOFF|1118=G|1119=73|1117=2138001123F8QFPOZ919|1118=N|1119=1|15=GBP|120=GBP|1924=1|22600=250|22601=GBP|854=1|231=10|30=SINT|10=172|8=FIXT.1.1|9=463|35=AE|34=5|49=QAAPA001|50=APA|57=APA|52=20180913-15:35:47.074|56=TRAX|571=APA-20180717153729978aOLN68wOTW|487=0|325=Y|423=22|55=[N/A]|48=THC000000004|1390=1|22=4|32=1000|31=100.35|60=20180827-15:37:19.979|552=1|54=1|29=1|1041=APA-20180717153729978aOLN68wOTW32|22801=1|22802=SIZE|1934=0|1116=3|1117=2138001YRXK8OT1GR195|1118=N|1119=116|1117=XOFF|1118=G|1119=73|1117=2138001123F8QFPOZ919|1118=N|1119=1|15=GBP|120=GBP|1924=1|22600=250|22601=GBP|854=1|231=10|30=SINT|10=046|8=FIXT.1.1|9=55|35=0|34=6|49=QAAPA001|52=20180913-15:36:17.447|56=TRAX|10=107|8=FIXT.1.1|9=55|35=0|34=7|49=QAAPA001|52=20180913-15:36:48.445|56=TRAX|10=110|8=FIXT.1.1|9=55|35=0|34=8|49=QAAPA001|52=20180913-15:37:18.445|56=TRAX|10=109|8=FIXT.1.1|9=55|35=0|34=9|49=QAAPA001|52=20180913-15:37:48.445|56=TRAX|10=113|8=FIXT.1.1|9=56|35=0|34=10|49=QAAPA001|52=20180913-15:38:18.445|56=TRAX|10=152|8=FIXT.1.1|9=56|35=0|34=11|49=QAAPA001|52=20180913-15:38:48.445|56=TRAX|10=156|8=FIXT.1.1|9=56|35=0|34=12|49=QAAPA001|52=20180913-15:39:18.445|56=TRAX|10=155|8=FIXT.1.1|9=56|35=0|34=13|49=QAAPA001|52=20180913-15:39:48.446|56=TRAX|10=160|8=FIXT.1.1|9=56|35=0|34=14|49=QAAPA001|52=20180913-15:40:18.446|56=TRAX|10=150|8=FIXT.1.1|9=56|35=0|34=15|49=QAAPA001|52=20180913-15:40:48.732|56=TRAX|10=152|8=FIXT.1.1|9=56|35=0|34=16|49=QAAPA001|52=20180913-15:41:18.732|56=TRAX|10=151|8=FIXT.1.1|9=56|35=0|34=17|49=QAAPA001|52=20180913-15:41:48.732|56=TRAX|10=155|8=FIXT.1.1|9=56|35=0|34=18|49=QAAPA001|52=20180913-15:42:18.734|56=TRAX|10=156|8=FIXT.1.1|9=56|35=0|34=19|49=QAAPA001|52=20180913-15:42:49.445|56=TRAX|10=160|8=FIXT.1.1|9=56|35=0|34=20|49=QAAPA001|52=20180913-15:43:19.445|56=TRAX|10=150|8=FIXT.1.1|9=56|35=0|34=21|49=QAAPA001|52=20180913-15:43:49.445|56=TRAX|10=154|8=FIXT.1.1|9=56|35=0|34=22|49=QAAPA001|52=20180913-15:44:19.445|56=TRAX|10=153|8=FIXT.1.1|9=56|35=0|34=23|49=QAAPA001|52=20180913-15:44:49.445|56=TRAX|10=157|8=FIXT.1.1|9=56|35=0|34=24|49=QAAPA001|52=20180913-15:45:19.445|56=TRAX|10=156|8=FIXT.1.1|9=56|35=0|34=25|49=QAAPA001|52=20180913-15:45:49.445|56=TRAX|10=160|8=FIXT.1.1|9=56|35=0|34=26|49=QAAPA001|52=20180913-15:46:19.445|56=TRAX|10=159|8=FIXT.1.1|9=97|35=A|34=1|49=QAAPA001|52=20180920-12:21:31.175|56=TRAX|98=0|108=30|95=8|96=3.0.0rc3|141=Y|1137=9|10=125|8=FIXT.1.1|9=55|35=0|34=2|49=QAAPA001|52=20180920-12:22:01.843|56=TRAX|10=086|8=FIXT.1.1|9=77|35=5|34=3|49=QAAPA001|52=20180920-12:22:09.175|56=TRAX|58=Session Tab Closed|10=166|