8=FIXT.1.1|9=105|35=A|34=1|49=HEMATRAXRTS27QA2|52=20180625-11:03:50.605|56=TRAX|98=0|108=30|95=8|96=2.0.0rc4|141=Y|1137=9|10=046|8=FIXT.1.1|9=63|35=0|34=2|49=HEMATRAXRTS27QA2|52=20180625-11:04:20.871|56=TRAX|10=227|8=FIXT.1.1|9=63|35=0|34=3|49=HEMATRAXRTS27QA2|52=20180625-11:04:50.871|56=TRAX|10=231|8=FIXT.1.1|9=63|35=0|34=4|49=HEMATRAXRTS27QA2|52=20180625-11:05:20.874|56=TRAX|10=233|8=FIXT.1.1|9=63|35=0|34=5|49=HEMATRAXRTS27QA2|52=20180625-11:05:51.604|56=TRAX|10=229|8=FIXT.1.1|9=63|35=0|34=6|49=HEMATRAXRTS27QA2|52=20180625-11:06:22.592|56=TRAX|10=235|8=FIXT.1.1|9=63|35=0|34=7|49=HEMATRAXRTS27QA2|52=20180625-11:06:52.606|56=TRAX|10=235|8=FIXT.1.1|9=63|35=0|34=8|49=HEMATRAXRTS27QA2|52=20180625-11:07:23.604|56=TRAX|10=233|8=FIXT.1.1|9=63|35=0|34=9|49=HEMATRAXRTS27QA2|52=20180625-11:07:54.602|56=TRAX|10=236|8=FIXT.1.1|9=64|35=0|34=10|49=HEMATRAXRTS27QA2|52=20180625-11:08:25.592|56=TRAX|10=028|8=FIXT.1.1|9=64|35=0|34=11|49=HEMATRAXRTS27QA2|52=20180625-11:08:55.597|56=TRAX|10=037|8=FIXT.1.1|9=64|35=0|34=12|49=HEMATRAXRTS27QA2|52=20180625-11:09:25.598|56=TRAX|10=037|8=FIXT.1.1|9=64|35=0|34=13|49=HEMATRAXRTS27QA2|52=20180625-11:09:55.603|56=TRAX|10=028|8=FIXT.1.1|9=64|35=0|34=14|49=HEMATRAXRTS27QA2|52=20180625-11:10:26.599|56=TRAX|10=033|8=FIXT.1.1|9=64|35=0|34=15|49=HEMATRAXRTS27QA2|52=20180625-11:10:57.598|56=TRAX|10=037|8=FIXT.1.1|9=64|35=0|34=16|49=HEMATRAXRTS27QA2|52=20180625-11:11:28.605|56=TRAX|10=026|8=FIXT.1.1|9=64|35=0|34=17|49=HEMATRAXRTS27QA2|52=20180625-11:11:59.598|56=TRAX|10=042|8=FIXT.1.1|9=64|35=0|34=18|49=HEMATRAXRTS27QA2|52=20180625-11:12:30.598|56=TRAX|10=033|8=FIXT.1.1|9=64|35=0|34=19|49=HEMATRAXRTS27QA2|52=20180625-11:13:01.597|56=TRAX|10=032|8=FIXT.1.1|9=64|35=0|34=20|49=HEMATRAXRTS27QA2|52=20180625-11:13:31.597|56=TRAX|10=027|8=FIXT.1.1|9=64|35=0|34=21|49=HEMATRAXRTS27QA2|52=20180625-11:14:02.591|56=TRAX|10=021|8=FIXT.1.1|9=64|35=0|34=22|49=HEMATRAXRTS27QA2|52=20180625-11:14:32.599|56=TRAX|10=033|8=FIXT.1.1|9=64|35=0|34=23|49=HEMATRAXRTS27QA2|52=20180625-11:15:03.590|56=TRAX|10=024|8=FIXT.1.1|9=64|35=0|34=24|49=HEMATRAXRTS27QA2|52=20180625-11:15:33.595|56=TRAX|10=033|8=FIXT.1.1|9=64|35=0|34=25|49=HEMATRAXRTS27QA2|52=20180625-11:16:03.601|56=TRAX|10=020|8=FIXT.1.1|9=64|35=0|34=26|49=HEMATRAXRTS27QA2|52=20180625-11:16:34.595|56=TRAX|10=037|8=FIXT.1.1|9=64|35=0|34=27|49=HEMATRAXRTS27QA2|52=20180625-11:17:04.599|56=TRAX|10=040|8=FIXT.1.1|9=64|35=0|34=28|49=HEMATRAXRTS27QA2|52=20180625-11:17:34.602|56=TRAX|10=029|8=FIXT.1.1|9=64|35=0|34=29|49=HEMATRAXRTS27QA2|52=20180625-11:18:05.595|56=TRAX|10=040|8=FIXT.1.1|9=64|35=0|34=30|49=HEMATRAXRTS27QA2|52=20180625-11:18:36.602|56=TRAX|10=025|8=FIXT.1.1|9=64|35=0|34=31|49=HEMATRAXRTS27QA2|52=20180625-11:19:07.602|56=TRAX|10=025|8=FIXT.1.1|9=64|35=0|34=32|49=HEMATRAXRTS27QA2|52=20180625-11:19:38.588|56=TRAX|10=043|8=FIXT.1.1|9=64|35=0|34=33|49=HEMATRAXRTS27QA2|52=20180625-11:20:09.594|56=TRAX|10=031|8=FIXT.1.1|9=64|35=0|34=34|49=HEMATRAXRTS27QA2|52=20180625-11:20:39.600|56=TRAX|10=023|8=FIXT.1.1|9=64|35=0|34=35|49=HEMATRAXRTS27QA2|52=20180625-11:21:10.586|56=TRAX|10=027|8=FIXT.1.1|9=64|35=0|34=36|49=HEMATRAXRTS27QA2|52=20180625-11:21:40.595|56=TRAX|10=031|8=FIXT.1.1|9=64|35=0|34=37|49=HEMATRAXRTS27QA2|52=20180625-11:22:11.598|56=TRAX|10=034|8=FIXT.1.1|9=64|35=0|34=38|49=HEMATRAXRTS27QA2|52=20180625-11:22:41.599|56=TRAX|10=039|8=FIXT.1.1|9=64|35=0|34=39|49=HEMATRAXRTS27QA2|52=20180625-11:23:12.586|56=TRAX|10=035|8=FIXT.1.1|9=64|35=0|34=40|49=HEMATRAXRTS27QA2|52=20180625-11:23:42.593|56=TRAX|10=028|8=FIXT.1.1|9=64|35=0|34=41|49=HEMATRAXRTS27QA2|52=20180625-11:24:13.585|56=TRAX|10=029|8=FIXT.1.1|9=64|35=0|34=42|49=HEMATRAXRTS27QA2|52=20180625-11:24:43.585|56=TRAX|10=033|8=FIXT.1.1|9=64|35=0|34=43|49=HEMATRAXRTS27QA2|52=20180625-11:25:14.587|56=TRAX|10=035|8=FIXT.1.1|9=64|35=0|34=44|49=HEMATRAXRTS27QA2|52=20180625-11:25:45.592|56=TRAX|10=036|8=FIXT.1.1|9=64|35=0|34=45|49=HEMATRAXRTS27QA2|52=20180625-11:26:16.595|56=TRAX|10=039|8=FIXT.1.1|9=64|35=0|34=46|49=HEMATRAXRTS27QA2|52=20180625-11:26:46.596|56=TRAX|10=044|8=FIXT.1.1|9=64|35=0|34=47|49=HEMATRAXRTS27QA2|52=20180625-11:27:17.592|56=TRAX|10=040|8=FIXT.1.1|9=64|35=0|34=48|49=HEMATRAXRTS27QA2|52=20180625-11:27:48.596|56=TRAX|10=049|8=FIXT.1.1|9=64|35=0|34=49|49=HEMATRAXRTS27QA2|52=20180625-11:28:19.599|56=TRAX|10=052|8=FIXT.1.1|9=64|35=0|34=50|49=HEMATRAXRTS27QA2|52=20180625-11:28:50.585|56=TRAX|10=034|8=FIXT.1.1|9=64|35=0|34=51|49=HEMATRAXRTS27QA2|52=20180625-11:29:20.862|56=TRAX|10=031|8=FIXT.1.1|9=64|35=0|34=52|49=HEMATRAXRTS27QA2|52=20180625-11:29:50.874|56=TRAX|10=038|8=FIXT.1.1|9=64|35=0|34=53|49=HEMATRAXRTS27QA2|52=20180625-11:30:20.875|56=TRAX|10=029|8=FIXT.1.1|9=64|35=0|34=54|49=HEMATRAXRTS27QA2|52=20180625-11:30:51.596|56=TRAX|10=034|8=FIXT.1.1|9=64|35=0|34=55|49=HEMATRAXRTS27QA2|52=20180625-11:31:22.597|56=TRAX|10=035|8=FIXT.1.1|9=64|35=0|34=56|49=HEMATRAXRTS27QA2|52=20180625-11:31:53.591|56=TRAX|10=034|8=FIXT.1.1|9=64|35=0|34=57|49=HEMATRAXRTS27QA2|52=20180625-11:32:23.598|56=TRAX|10=040|8=FIXT.1.1|9=64|35=0|34=58|49=HEMATRAXRTS27QA2|52=20180625-11:32:54.584|56=TRAX|10=040|8=FIXT.1.1|9=64|35=0|34=59|49=HEMATRAXRTS27QA2|52=20180625-11:33:24.587|56=TRAX|10=042|8=FIXT.1.1|9=64|35=0|34=60|49=HEMATRAXRTS27QA2|52=20180625-11:33:55.590|56=TRAX|10=032|8=FIXT.1.1|9=64|35=0|34=61|49=HEMATRAXRTS27QA2|52=20180625-11:34:25.591|56=TRAX|10=032|8=FIXT.1.1|9=64|35=0|34=62|49=HEMATRAXRTS27QA2|52=20180625-11:34:55.592|56=TRAX|10=037|8=FIXT.1.1|9=64|35=0|34=63|49=HEMATRAXRTS27QA2|52=20180625-11:35:26.583|56=TRAX|10=037|8=FIXT.1.1|9=64|35=0|34=64|49=HEMATRAXRTS27QA2|52=20180625-11:35:56.593|56=TRAX|10=042|8=FIXT.1.1|9=64|35=0|34=65|49=HEMATRAXRTS27QA2|52=20180625-11:36:26.593|56=TRAX|10=041|8=FIXT.1.1|9=64|35=0|34=66|49=HEMATRAXRTS27QA2|52=20180625-11:36:56.597|56=TRAX|10=049|8=FIXT.1.1|9=64|35=0|34=67|49=HEMATRAXRTS27QA2|52=20180625-11:37:27.593|56=TRAX|10=045|8=FIXT.1.1|9=64|35=0|34=68|49=HEMATRAXRTS27QA2|52=20180625-11:37:58.586|56=TRAX|10=052|8=FIXT.1.1|9=64|35=0|34=69|49=HEMATRAXRTS27QA2|52=20180625-11:38:28.589|56=TRAX|10=054|8=FIXT.1.1|9=64|35=0|34=70|49=HEMATRAXRTS27QA2|52=20180625-11:38:58.590|56=TRAX|10=041|8=FIXT.1.1|9=64|35=0|34=71|49=HEMATRAXRTS27QA2|52=20180625-11:39:28.594|56=TRAX|10=044|8=FIXT.1.1|9=64|35=0|34=72|49=HEMATRAXRTS27QA2|52=20180625-11:39:58.594|56=TRAX|10=048|8=FIXT.1.1|9=64|35=0|34=73|49=HEMATRAXRTS27QA2|52=20180625-11:40:29.588|56=TRAX|10=042|8=FIXT.1.1|9=64|35=0|34=74|49=HEMATRAXRTS27QA2|52=20180625-11:41:00.589|56=TRAX|10=034|8=FIXT.1.1|9=64|35=0|34=75|49=HEMATRAXRTS27QA2|52=20180625-11:41:30.592|56=TRAX|10=032|8=FIXT.1.1|9=64|35=0|34=76|49=HEMATRAXRTS27QA2|52=20180625-11:42:01.580|56=TRAX|10=029|8=FIXT.1.1|9=64|35=0|34=77|49=HEMATRAXRTS27QA2|52=20180625-11:42:31.582|56=TRAX|10=035|8=FIXT.1.1|9=64|35=0|34=78|49=HEMATRAXRTS27QA2|52=20180625-11:43:01.587|56=TRAX|10=039|8=FIXT.1.1|9=64|35=0|34=79|49=HEMATRAXRTS27QA2|52=20180625-11:43:31.592|56=TRAX|10=039|8=FIXT.1.1|9=64|35=0|34=80|49=HEMATRAXRTS27QA2|52=20180625-11:44:02.583|56=TRAX|10=030|8=FIXT.1.1|9=64|35=0|34=81|49=HEMATRAXRTS27QA2|52=20180625-11:44:32.590|56=TRAX|10=032|8=FIXT.1.1|9=64|35=0|34=82|49=HEMATRAXRTS27QA2|52=20180625-11:45:02.591|56=TRAX|10=032|8=FIXT.1.1|9=64|35=0|34=83|49=HEMATRAXRTS27QA2|52=20180625-11:45:33.584|56=TRAX|10=039|8=FIXT.1.1|9=64|35=0|34=84|49=HEMATRAXRTS27QA2|52=20180625-11:46:04.594|56=TRAX|10=040|8=FIXT.1.1|9=64|35=0|34=85|49=HEMATRAXRTS27QA2|52=20180625-11:46:35.588|56=TRAX|10=048|8=FIXT.1.1|9=64|35=0|34=86|49=HEMATRAXRTS27QA2|52=20180625-11:47:06.590|56=TRAX|10=041|8=FIXT.1.1|9=64|35=0|34=87|49=HEMATRAXRTS27QA2|52=20180625-11:47:37.585|56=TRAX|10=050|8=FIXT.1.1|9=64|35=0|34=88|49=HEMATRAXRTS27QA2|52=20180625-11:48:07.593|56=TRAX|10=048|8=FIXT.1.1|9=64|35=0|34=89|49=HEMATRAXRTS27QA2|52=20180625-11:48:38.585|56=TRAX|10=054|8=FIXT.1.1|9=64|35=0|34=90|49=HEMATRAXRTS27QA2|52=20180625-11:49:08.586|56=TRAX|10=045|8=FIXT.1.1|9=64|35=0|34=91|49=HEMATRAXRTS27QA2|52=20180625-11:49:39.588|56=TRAX|10=052|8=FIXT.1.1|9=64|35=0|34=92|49=HEMATRAXRTS27QA2|52=20180625-11:50:10.588|56=TRAX|10=034|8=FIXT.1.1|9=64|35=0|34=93|49=HEMATRAXRTS27QA2|52=20180625-11:50:40.592|56=TRAX|10=033|8=FIXT.1.1|9=64|35=0|34=94|49=HEMATRAXRTS27QA2|52=20180625-11:51:11.590|56=TRAX|10=031|8=FIXT.1.1|9=64|35=0|34=95|49=HEMATRAXRTS27QA2|52=20180625-11:51:42.590|56=TRAX|10=036|8=FIXT.1.1|9=64|35=0|34=96|49=HEMATRAXRTS27QA2|52=20180625-11:52:13.583|56=TRAX|10=038|8=FIXT.1.1|9=64|35=0|34=97|49=HEMATRAXRTS27QA2|52=20180625-11:52:44.578|56=TRAX|10=047|8=FIXT.1.1|9=64|35=0|34=98|49=HEMATRAXRTS27QA2|52=20180625-11:53:14.578|56=TRAX|10=046|8=FIXT.1.1|9=64|35=0|34=99|49=HEMATRAXRTS27QA2|52=20180625-11:53:44.588|56=TRAX|10=051|8=FIXT.1.1|9=65|35=0|34=100|49=HEMATRAXRTS27QA2|52=20180625-11:54:14.589|56=TRAX|10=082|8=FIXT.1.1|9=65|35=0|34=101|49=HEMATRAXRTS27QA2|52=20180625-11:54:45.583|56=TRAX|10=081|8=FIXT.1.1|9=65|35=0|34=102|49=HEMATRAXRTS27QA2|52=20180625-11:55:15.583|56=TRAX|10=080|8=FIXT.1.1|9=65|35=0|34=103|49=HEMATRAXRTS27QA2|52=20180625-11:55:45.583|56=TRAX|10=084|8=FIXT.1.1|9=65|35=0|34=104|49=HEMATRAXRTS27QA2|52=20180625-11:56:15.585|56=TRAX|10=085|8=FIXT.1.1|9=65|35=0|34=105|49=HEMATRAXRTS27QA2|52=20180625-11:56:46.582|56=TRAX|10=087|8=FIXT.1.1|9=65|35=0|34=106|49=HEMATRAXRTS27QA2|52=20180625-11:57:17.581|56=TRAX|10=086|8=FIXT.1.1|9=65|35=0|34=107|49=HEMATRAXRTS27QA2|52=20180625-11:57:47.587|56=TRAX|10=096|8=FIXT.1.1|9=65|35=0|34=108|49=HEMATRAXRTS27QA2|52=20180625-11:58:18.582|56=TRAX|10=091|8=FIXT.1.1|9=65|35=0|34=109|49=HEMATRAXRTS27QA2|52=20180625-11:58:49.583|56=TRAX|10=097|8=FIXT.1.1|9=65|35=0|34=110|49=HEMATRAXRTS27QA2|52=20180625-11:59:19.585|56=TRAX|10=089|8=FIXT.1.1|9=65|35=0|34=111|49=HEMATRAXRTS27QA2|52=20180625-11:59:50.578|56=TRAX|10=087|8=FIXT.1.1|9=65|35=0|34=112|49=HEMATRAXRTS27QA2|52=20180625-12:00:20.584|56=TRAX|10=069|8=FIXT.1.1|9=65|35=0|34=113|49=HEMATRAXRTS27QA2|52=20180625-12:00:50.862|56=TRAX|10=072|8=FIXT.1.1|9=65|35=0|34=114|49=HEMATRAXRTS27QA2|52=20180625-12:01:21.579|56=TRAX|10=077|8=FIXT.1.1|9=65|35=0|34=115|49=HEMATRAXRTS27QA2|52=20180625-12:01:51.587|56=TRAX|10=080|8=FIXT.1.1|9=65|35=0|34=116|49=HEMATRAXRTS27QA2|52=20180625-12:02:22.587|56=TRAX|10=080|8=FIXT.1.1|9=65|35=0|34=117|49=HEMATRAXRTS27QA2|52=20180625-12:02:53.582|56=TRAX|10=080|8=FIXT.1.1|9=65|35=0|34=118|49=HEMATRAXRTS27QA2|52=20180625-12:03:23.587|56=TRAX|10=084|8=FIXT.1.1|9=65|35=0|34=119|49=HEMATRAXRTS27QA2|52=20180625-12:03:54.585|56=TRAX|10=087|8=FIXT.1.1|9=65|35=0|34=120|49=HEMATRAXRTS27QA2|52=20180625-12:04:25.579|56=TRAX|10=081|8=FIXT.1.1|9=65|35=0|34=121|49=HEMATRAXRTS27QA2|52=20180625-12:04:55.579|56=TRAX|10=085|8=FIXT.1.1|9=65|35=0|34=122|49=HEMATRAXRTS27QA2|52=20180625-12:05:25.579|56=TRAX|10=084|8=FIXT.1.1|9=65|35=0|34=123|49=HEMATRAXRTS27QA2|52=20180625-12:05:56.585|56=TRAX|10=086|8=FIXT.1.1|9=65|35=0|34=124|49=HEMATRAXRTS27QA2|52=20180625-12:06:27.584|56=TRAX|10=085|8=FIXT.1.1|9=65|35=0|34=125|49=HEMATRAXRTS27QA2|52=20180625-12:06:58.576|56=TRAX|10=091|8=FIXT.1.1|9=65|35=0|34=126|49=HEMATRAXRTS27QA2|52=20180625-12:07:28.584|56=TRAX|10=089|8=FIXT.1.1|9=65|35=0|34=127|49=HEMATRAXRTS27QA2|52=20180625-12:07:59.584|56=TRAX|10=094|8=FIXT.1.1|9=65|35=0|34=128|49=HEMATRAXRTS27QA2|52=20180625-12:08:30.573|56=TRAX|10=083|8=FIXT.1.1|9=65|35=0|34=129|49=HEMATRAXRTS27QA2|52=20180625-12:09:00.578|56=TRAX|10=087|8=FIXT.1.1|9=65|35=0|34=130|49=HEMATRAXRTS27QA2|52=20180625-12:09:30.579|56=TRAX|10=083|8=FIXT.1.1|9=65|35=0|34=131|49=HEMATRAXRTS27QA2|52=20180625-12:10:00.581|56=TRAX|10=066|8=FIXT.1.1|9=65|35=0|34=132|49=HEMATRAXRTS27QA2|52=20180625-12:10:31.581|56=TRAX|10=071|8=FIXT.1.1|9=65|35=0|34=133|49=HEMATRAXRTS27QA2|52=20180625-12:11:02.575|56=TRAX|10=074|8=FIXT.1.1|9=65|35=0|34=134|49=HEMATRAXRTS27QA2|52=20180625-12:11:33.576|56=TRAX|10=080|8=FIXT.1.1|9=65|35=0|34=135|49=HEMATRAXRTS27QA2|52=20180625-12:12:03.583|56=TRAX|10=077|8=FIXT.1.1|9=65|35=0|34=136|49=HEMATRAXRTS27QA2|52=20180625-12:12:34.570|56=TRAX|10=078|8=FIXT.1.1|9=65|35=0|34=137|49=HEMATRAXRTS27QA2|52=20180625-12:13:04.579|56=TRAX|10=086|8=FIXT.1.1|9=65|35=0|34=138|49=HEMATRAXRTS27QA2|52=20180625-12:13:35.568|56=TRAX|10=089|8=FIXT.1.1|9=65|35=0|34=139|49=HEMATRAXRTS27QA2|52=20180625-12:14:05.576|56=TRAX|10=087|8=FIXT.1.1|9=65|35=0|34=140|49=HEMATRAXRTS27QA2|52=20180625-12:14:36.581|56=TRAX|10=079|8=FIXT.1.1|9=65|35=0|34=141|49=HEMATRAXRTS27QA2|52=20180625-12:15:07.577|56=TRAX|10=084|8=FIXT.1.1|9=65|35=0|34=142|49=HEMATRAXRTS27QA2|52=20180625-12:15:38.571|56=TRAX|10=083|8=FIXT.1.1|9=65|35=0|34=143|49=HEMATRAXRTS27QA2|52=20180625-12:16:08.578|56=TRAX|10=089|8=FIXT.1.1|9=65|35=0|34=144|49=HEMATRAXRTS27QA2|52=20180625-12:16:38.578|56=TRAX|10=093|8=FIXT.1.1|9=65|35=0|34=145|49=HEMATRAXRTS27QA2|52=20180625-12:17:08.582|56=TRAX|10=087|8=FIXT.1.1|9=65|35=0|34=146|49=HEMATRAXRTS27QA2|52=20180625-12:17:39.579|56=TRAX|10=098|8=FIXT.1.1|9=65|35=0|34=147|49=HEMATRAXRTS27QA2|52=20180625-12:18:10.575|56=TRAX|10=085|8=FIXT.1.1|9=65|35=0|34=148|49=HEMATRAXRTS27QA2|52=20180625-12:18:40.575|56=TRAX|10=089|8=FIXT.1.1|9=65|35=0|34=149|49=HEMATRAXRTS27QA2|52=20180625-12:19:11.567|56=TRAX|10=090|8=FIXT.1.1|9=65|35=0|34=150|49=HEMATRAXRTS27QA2|52=20180625-12:19:41.573|56=TRAX|10=082|8=FIXT.1.1|9=65|35=0|34=151|49=HEMATRAXRTS27QA2|52=20180625-12:20:11.580|56=TRAX|10=070|8=FIXT.1.1|9=65|35=0|34=152|49=HEMATRAXRTS27QA2|52=20180625-12:20:42.573|56=TRAX|10=077|8=FIXT.1.1|9=65|35=0|34=153|49=HEMATRAXRTS27QA2|52=20180625-12:21:13.572|56=TRAX|10=076|8=FIXT.1.1|9=65|35=0|34=154|49=HEMATRAXRTS27QA2|52=20180625-12:21:44.566|56=TRAX|10=084|8=FIXT.1.1|9=65|35=0|34=155|49=HEMATRAXRTS27QA2|52=20180625-12:22:15.569|56=TRAX|10=087|8=FIXT.1.1|9=65|35=0|34=156|49=HEMATRAXRTS27QA2|52=20180625-12:22:46.565|56=TRAX|10=088|8=FIXT.1.1|9=65|35=0|34=157|49=HEMATRAXRTS27QA2|52=20180625-12:23:16.565|56=TRAX|10=087|8=FIXT.1.1|9=65|35=0|34=158|49=HEMATRAXRTS27QA2|52=20180625-12:23:47.564|56=TRAX|10=091|8=FIXT.1.1|9=65|35=0|34=159|49=HEMATRAXRTS27QA2|52=20180625-12:24:17.564|56=TRAX|10=090|8=FIXT.1.1|9=65|35=0|34=160|49=HEMATRAXRTS27QA2|52=20180625-12:24:48.563|56=TRAX|10=085|8=FIXT.1.1|9=65|35=0|34=161|49=HEMATRAXRTS27QA2|52=20180625-12:25:18.564|56=TRAX|10=085|8=FIXT.1.1|9=65|35=0|34=162|49=HEMATRAXRTS27QA2|52=20180625-12:25:48.564|56=TRAX|10=089|8=FIXT.1.1|9=65|35=0|34=163|49=HEMATRAXRTS27QA2|52=20180625-12:26:19.563|56=TRAX|10=088|8=FIXT.1.1|9=65|35=0|34=164|49=HEMATRAXRTS27QA2|52=20180625-12:26:49.563|56=TRAX|10=092|8=FIXT.1.1|9=65|35=0|34=165|49=HEMATRAXRTS27QA2|52=20180625-12:27:19.563|56=TRAX|10=091|8=FIXT.1.1|9=65|35=0|34=166|49=HEMATRAXRTS27QA2|52=20180625-12:27:49.563|56=TRAX|10=095|8=FIXT.1.1|9=65|35=0|34=167|49=HEMATRAXRTS27QA2|52=20180625-12:28:20.563|56=TRAX|10=086|8=FIXT.1.1|9=65|35=0|34=168|49=HEMATRAXRTS27QA2|52=20180625-12:28:50.870|56=TRAX|10=091|8=FIXT.1.1|9=65|35=0|34=169|49=HEMATRAXRTS27QA2|52=20180625-12:29:20.870|56=TRAX|10=090|8=FIXT.1.1|9=65|35=0|34=170|49=HEMATRAXRTS27QA2|52=20180625-12:29:50.871|56=TRAX|10=086|8=FIXT.1.1|9=65|35=0|34=171|49=HEMATRAXRTS27QA2|52=20180625-12:30:21.562|56=TRAX|10=074|8=FIXT.1.1|9=65|35=0|34=172|49=HEMATRAXRTS27QA2|52=20180625-12:30:51.562|56=TRAX|10=078|8=FIXT.1.1|9=65|35=0|34=173|49=HEMATRAXRTS27QA2|52=20180625-12:31:22.562|56=TRAX|10=078|8=FIXT.1.1|9=65|35=0|34=174|49=HEMATRAXRTS27QA2|52=20180625-12:31:53.562|56=TRAX|10=083|8=FIXT.1.1|9=65|35=0|34=175|49=HEMATRAXRTS27QA2|52=20180625-12:32:24.561|56=TRAX|10=082|8=FIXT.1.1|9=65|35=0|34=176|49=HEMATRAXRTS27QA2|52=20180625-12:32:54.561|56=TRAX|10=086|8=FIXT.1.1|9=65|35=0|34=177|49=HEMATRAXRTS27QA2|52=20180625-12:33:25.560|56=TRAX|10=085|8=FIXT.1.1|9=65|35=0|34=178|49=HEMATRAXRTS27QA2|52=20180625-12:33:55.560|56=TRAX|10=089|8=FIXT.1.1|9=65|35=0|34=179|49=HEMATRAXRTS27QA2|52=20180625-12:34:25.560|56=TRAX|10=088|8=FIXT.1.1|9=65|35=0|34=180|49=HEMATRAXRTS27QA2|52=20180625-12:34:55.560|56=TRAX|10=083|8=FIXT.1.1|9=65|35=0|34=181|49=HEMATRAXRTS27QA2|52=20180625-12:35:25.560|56=TRAX|10=082|8=FIXT.1.1|9=65|35=0|34=182|49=HEMATRAXRTS27QA2|52=20180625-12:35:55.560|56=TRAX|10=086|8=FIXT.1.1|9=65|35=0|34=183|49=HEMATRAXRTS27QA2|52=20180625-12:36:25.560|56=TRAX|10=085|8=FIXT.1.1|9=65|35=0|34=184|49=HEMATRAXRTS27QA2|52=20180625-12:36:55.560|56=TRAX|10=089|8=FIXT.1.1|9=65|35=0|34=185|49=HEMATRAXRTS27QA2|52=20180625-12:37:25.560|56=TRAX|10=088|8=FIXT.1.1|9=65|35=0|34=186|49=HEMATRAXRTS27QA2|52=20180625-12:37:55.560|56=TRAX|10=092|8=FIXT.1.1|9=65|35=0|34=187|49=HEMATRAXRTS27QA2|52=20180625-12:38:25.560|56=TRAX|10=091|8=FIXT.1.1|9=65|35=0|34=188|49=HEMATRAXRTS27QA2|52=20180625-12:38:55.561|56=TRAX|10=096|8=FIXT.1.1|9=65|35=0|34=189|49=HEMATRAXRTS27QA2|52=20180625-12:39:26.560|56=TRAX|10=095|8=FIXT.1.1|9=65|35=0|34=190|49=HEMATRAXRTS27QA2|52=20180625-12:39:56.560|56=TRAX|10=090|8=FIXT.1.1|9=65|35=0|34=191|49=HEMATRAXRTS27QA2|52=20180625-12:40:26.560|56=TRAX|10=080|8=FIXT.1.1|9=65|35=0|34=192|49=HEMATRAXRTS27QA2|52=20180625-12:40:56.560|56=TRAX|10=084|8=FIXT.1.1|9=65|35=0|34=193|49=HEMATRAXRTS27QA2|52=20180625-12:41:27.560|56=TRAX|10=084|8=FIXT.1.1|9=65|35=0|34=194|49=HEMATRAXRTS27QA2|52=20180625-12:41:58.559|56=TRAX|10=097|8=FIXT.1.1|9=65|35=0|34=195|49=HEMATRAXRTS27QA2|52=20180625-12:42:28.559|56=TRAX|10=096|8=FIXT.1.1|9=65|35=0|34=196|49=HEMATRAXRTS27QA2|52=20180625-12:42:58.559|56=TRAX|10=100|8=FIXT.1.1|9=65|35=0|34=197|49=HEMATRAXRTS27QA2|52=20180625-12:43:29.559|56=TRAX|10=100|8=FIXT.1.1|9=65|35=0|34=198|49=HEMATRAXRTS27QA2|52=20180625-12:43:59.559|56=TRAX|10=104|8=FIXT.1.1|9=65|35=0|34=199|49=HEMATRAXRTS27QA2|52=20180625-12:44:30.558|56=TRAX|10=094|8=FIXT.1.1|9=65|35=0|34=200|49=HEMATRAXRTS27QA2|52=20180625-12:45:00.558|56=TRAX|10=075|8=FIXT.1.1|9=65|35=0|34=201|49=HEMATRAXRTS27QA2|52=20180625-12:45:30.558|56=TRAX|10=079|8=FIXT.1.1|9=65|35=0|34=202|49=HEMATRAXRTS27QA2|52=20180625-12:46:00.558|56=TRAX|10=078|8=FIXT.1.1|9=65|35=0|34=203|49=HEMATRAXRTS27QA2|52=20180625-12:46:30.558|56=TRAX|10=082|8=FIXT.1.1|9=65|35=0|34=204|49=HEMATRAXRTS27QA2|52=20180625-12:47:01.557|56=TRAX|10=081|8=FIXT.1.1|9=65|35=0|34=205|49=HEMATRAXRTS27QA2|52=20180625-12:47:31.557|56=TRAX|10=085|8=FIXT.1.1|9=65|35=0|34=206|49=HEMATRAXRTS27QA2|52=20180625-12:48:01.557|56=TRAX|10=084|8=FIXT.1.1|9=65|35=0|34=207|49=HEMATRAXRTS27QA2|52=20180625-12:48:32.557|56=TRAX|10=089|8=FIXT.1.1|9=65|35=0|34=208|49=HEMATRAXRTS27QA2|52=20180625-12:49:02.557|56=TRAX|10=088|8=FIXT.1.1|9=65|35=0|34=209|49=HEMATRAXRTS27QA2|52=20180625-12:49:33.556|56=TRAX|10=092|8=FIXT.1.1|9=65|35=0|34=210|49=HEMATRAXRTS27QA2|52=20180625-12:50:03.556|56=TRAX|10=073|8=FIXT.1.1|9=65|35=0|34=211|49=HEMATRAXRTS27QA2|52=20180625-12:50:33.557|56=TRAX|10=078|8=FIXT.1.1|9=65|35=0|34=212|49=HEMATRAXRTS27QA2|52=20180625-12:51:04.556|56=TRAX|10=077|8=FIXT.1.1|9=65|35=0|34=213|49=HEMATRAXRTS27QA2|52=20180625-12:51:34.556|56=TRAX|10=081|8=FIXT.1.1|9=65|35=0|34=214|49=HEMATRAXRTS27QA2|52=20180625-12:52:05.556|56=TRAX|10=081|8=FIXT.1.1|9=65|35=0|34=215|49=HEMATRAXRTS27QA2|52=20180625-12:52:35.556|56=TRAX|10=085|8=FIXT.1.1|9=65|35=0|34=216|49=HEMATRAXRTS27QA2|52=20180625-12:53:06.556|56=TRAX|10=085|8=FIXT.1.1|9=65|35=0|34=217|49=HEMATRAXRTS27QA2|52=20180625-12:53:37.555|56=TRAX|10=089|8=FIXT.1.1|9=65|35=0|34=218|49=HEMATRAXRTS27QA2|52=20180625-12:54:08.555|56=TRAX|10=089|8=FIXT.1.1|9=65|35=0|34=219|49=HEMATRAXRTS27QA2|52=20180625-12:54:39.556|56=TRAX|10=095|8=FIXT.1.1|9=65|35=0|34=220|49=HEMATRAXRTS27QA2|52=20180625-12:55:10.554|56=TRAX|10=075|8=FIXT.1.1|9=65|35=0|34=221|49=HEMATRAXRTS27QA2|52=20180625-12:55:40.554|56=TRAX|10=079|8=FIXT.1.1|9=65|35=0|34=222|49=HEMATRAXRTS27QA2|52=20180625-12:56:11.554|56=TRAX|10=079|8=FIXT.1.1|9=65|35=0|34=223|49=HEMATRAXRTS27QA2|52=20180625-12:56:42.554|56=TRAX|10=084|8=FIXT.1.1|9=65|35=0|34=224|49=HEMATRAXRTS27QA2|52=20180625-12:57:13.554|56=TRAX|10=084|8=FIXT.1.1|9=65|35=0|34=225|49=HEMATRAXRTS27QA2|52=20180625-12:57:44.553|56=TRAX|10=088|8=FIXT.1.1|9=65|35=0|34=226|49=HEMATRAXRTS27QA2|52=20180625-12:58:14.553|56=TRAX|10=087|8=FIXT.1.1|9=65|35=0|34=227|49=HEMATRAXRTS27QA2|52=20180625-12:58:45.553|56=TRAX|10=092|8=FIXT.1.1|9=65|35=0|34=228|49=HEMATRAXRTS27QA2|52=20180625-12:59:15.553|56=TRAX|10=091|8=FIXT.1.1|9=65|35=0|34=229|49=HEMATRAXRTS27QA2|52=20180625-12:59:46.553|56=TRAX|10=096|8=FIXT.1.1|9=65|35=0|34=230|49=HEMATRAXRTS27QA2|52=20180625-13:00:17.553|56=TRAX|10=073|8=FIXT.1.1|9=65|35=0|34=231|49=HEMATRAXRTS27QA2|52=20180625-13:00:48.552|56=TRAX|10=077|8=FIXT.1.1|9=65|35=0|34=232|49=HEMATRAXRTS27QA2|52=20180625-13:01:19.552|56=TRAX|10=077|8=FIXT.1.1|9=65|35=0|34=233|49=HEMATRAXRTS27QA2|52=20180625-13:01:50.551|56=TRAX|10=072|8=FIXT.1.1|9=65|35=0|34=234|49=HEMATRAXRTS27QA2|52=20180625-13:02:20.552|56=TRAX|10=072|8=FIXT.1.1|9=65|35=0|34=235|49=HEMATRAXRTS27QA2|52=20180625-13:02:50.552|56=TRAX|10=076|8=FIXT.1.1|9=65|35=0|34=236|49=HEMATRAXRTS27QA2|52=20180625-13:03:20.869|56=TRAX|10=086|8=FIXT.1.1|9=65|35=0|34=237|49=HEMATRAXRTS27QA2|52=20180625-13:03:50.870|56=TRAX|10=082|8=FIXT.1.1|9=65|35=0|34=238|49=HEMATRAXRTS27QA2|52=20180625-13:04:20.870|56=TRAX|10=081|8=FIXT.1.1|9=65|35=0|34=239|49=HEMATRAXRTS27QA2|52=20180625-13:04:50.870|56=TRAX|10=085|8=FIXT.1.1|9=65|35=0|34=240|49=HEMATRAXRTS27QA2|52=20180625-13:05:20.870|56=TRAX|10=075|8=FIXT.1.1|9=65|35=0|34=241|49=HEMATRAXRTS27QA2|52=20180625-13:05:50.871|56=TRAX|10=080|8=FIXT.1.1|9=65|35=0|34=242|49=HEMATRAXRTS27QA2|52=20180625-13:06:21.550|56=TRAX|10=074|8=FIXT.1.1|9=65|35=0|34=243|49=HEMATRAXRTS27QA2|52=20180625-13:06:51.551|56=TRAX|10=079|8=FIXT.1.1|9=65|35=0|34=244|49=HEMATRAXRTS27QA2|52=20180625-13:07:22.549|56=TRAX|10=086|8=FIXT.1.1|9=65|35=0|34=245|49=HEMATRAXRTS27QA2|52=20180625-13:07:52.549|56=TRAX|10=090|8=FIXT.1.1|9=65|35=0|34=246|49=HEMATRAXRTS27QA2|52=20180625-13:08:22.550|56=TRAX|10=081|8=FIXT.1.1|9=65|35=0|34=247|49=HEMATRAXRTS27QA2|52=20180625-13:08:53.549|56=TRAX|10=094|8=FIXT.1.1|9=65|35=0|34=248|49=HEMATRAXRTS27QA2|52=20180625-13:09:23.550|56=TRAX|10=085|8=FIXT.1.1|9=65|35=0|34=249|49=HEMATRAXRTS27QA2|52=20180625-13:09:54.549|56=TRAX|10=098|8=FIXT.1.1|9=65|35=0|34=250|49=HEMATRAXRTS27QA2|52=20180625-13:10:24.549|56=TRAX|10=079|8=FIXT.1.1|9=65|35=0|34=251|49=HEMATRAXRTS27QA2|52=20180625-13:10:55.548|56=TRAX|10=083|8=FIXT.1.1|9=65|35=0|34=252|49=HEMATRAXRTS27QA2|52=20180625-13:11:25.548|56=TRAX|10=082|8=FIXT.1.1|9=65|35=0|34=253|49=HEMATRAXRTS27QA2|52=20180625-13:11:55.548|56=TRAX|10=086|8=FIXT.1.1|9=65|35=0|34=254|49=HEMATRAXRTS27QA2|52=20180625-13:12:25.548|56=TRAX|10=085|8=FIXT.1.1|9=65|35=0|34=255|49=HEMATRAXRTS27QA2|52=20180625-13:12:56.548|56=TRAX|10=090|8=FIXT.1.1|9=65|35=0|34=256|49=HEMATRAXRTS27QA2|52=20180625-13:13:26.548|56=TRAX|10=089|8=FIXT.1.1|9=65|35=0|34=257|49=HEMATRAXRTS27QA2|52=20180625-13:13:57.547|56=TRAX|10=093|8=FIXT.1.1|9=65|35=0|34=258|49=HEMATRAXRTS27QA2|52=20180625-13:14:27.548|56=TRAX|10=093|8=FIXT.1.1|9=65|35=0|34=259|49=HEMATRAXRTS27QA2|52=20180625-13:14:58.546|56=TRAX|10=096|8=FIXT.1.1|9=65|35=0|34=260|49=HEMATRAXRTS27QA2|52=20180625-13:15:28.546|56=TRAX|10=086|8=FIXT.1.1|9=65|35=0|34=261|49=HEMATRAXRTS27QA2|52=20180625-13:15:58.546|56=TRAX|10=090|8=FIXT.1.1|9=65|35=0|34=262|49=HEMATRAXRTS27QA2|52=20180625-13:16:28.546|56=TRAX|10=089|8=FIXT.1.1|9=65|35=0|34=263|49=HEMATRAXRTS27QA2|52=20180625-13:16:59.546|56=TRAX|10=094|8=FIXT.1.1|9=65|35=0|34=264|49=HEMATRAXRTS27QA2|52=20180625-13:17:29.546|56=TRAX|10=093|8=FIXT.1.1|9=65|35=0|34=265|49=HEMATRAXRTS27QA2|52=20180625-13:18:00.546|56=TRAX|10=084|8=FIXT.1.1|9=65|35=0|34=266|49=HEMATRAXRTS27QA2|52=20180625-13:18:31.546|56=TRAX|10=089|8=FIXT.1.1|9=65|35=0|34=267|49=HEMATRAXRTS27QA2|52=20180625-13:19:02.545|56=TRAX|10=088|8=FIXT.1.1|9=65|35=0|34=268|49=HEMATRAXRTS27QA2|52=20180625-13:19:32.545|56=TRAX|10=092|8=FIXT.1.1|9=65|35=0|34=269|49=HEMATRAXRTS27QA2|52=20180625-13:20:02.545|56=TRAX|10=082|8=FIXT.1.1|9=65|35=0|34=270|49=HEMATRAXRTS27QA2|52=20180625-13:20:32.545|56=TRAX|10=077|8=FIXT.1.1|9=65|35=0|34=271|49=HEMATRAXRTS27QA2|52=20180625-13:21:03.545|56=TRAX|10=077|8=FIXT.1.1|9=65|35=0|34=272|49=HEMATRAXRTS27QA2|52=20180625-13:21:34.544|56=TRAX|10=081|8=FIXT.1.1|9=65|35=0|34=273|49=HEMATRAXRTS27QA2|52=20180625-13:22:04.544|56=TRAX|10=080|8=FIXT.1.1|9=65|35=0|34=274|49=HEMATRAXRTS27QA2|52=20180625-13:22:34.544|56=TRAX|10=084|8=FIXT.1.1|9=65|35=0|34=275|49=HEMATRAXRTS27QA2|52=20180625-13:23:04.544|56=TRAX|10=083|8=FIXT.1.1|9=65|35=0|34=276|49=HEMATRAXRTS27QA2|52=20180625-13:23:34.544|56=TRAX|10=087|8=FIXT.1.1|9=65|35=0|34=277|49=HEMATRAXRTS27QA2|52=20180625-13:24:05.543|56=TRAX|10=086|8=FIXT.1.1|9=65|35=0|34=278|49=HEMATRAXRTS27QA2|52=20180625-13:24:35.543|56=TRAX|10=090|8=FIXT.1.1|9=65|35=0|34=279|49=HEMATRAXRTS27QA2|52=20180625-13:25:05.543|56=TRAX|10=089|8=FIXT.1.1|9=65|35=0|34=280|49=HEMATRAXRTS27QA2|52=20180625-13:25:35.543|56=TRAX|10=084|8=FIXT.1.1|9=65|35=0|34=281|49=HEMATRAXRTS27QA2|52=20180625-13:26:06.542|56=TRAX|10=083|8=FIXT.1.1|9=65|35=0|34=282|49=HEMATRAXRTS27QA2|52=20180625-13:26:36.542|56=TRAX|10=087|8=FIXT.1.1|9=65|35=0|34=283|49=HEMATRAXRTS27QA2|52=20180625-13:27:06.542|56=TRAX|10=086|8=FIXT.1.1|9=65|35=0|34=284|49=HEMATRAXRTS27QA2|52=20180625-13:27:37.542|56=TRAX|10=091|8=FIXT.1.1|9=65|35=0|34=285|49=HEMATRAXRTS27QA2|52=20180625-13:28:08.542|56=TRAX|10=091|8=FIXT.1.1|9=65|35=0|34=286|49=HEMATRAXRTS27QA2|52=20180625-13:28:39.541|56=TRAX|10=095|8=FIXT.1.1|9=65|35=0|34=287|49=HEMATRAXRTS27QA2|52=20180625-13:29:09.541|56=TRAX|10=094|8=FIXT.1.1|9=65|35=0|34=288|49=HEMATRAXRTS27QA2|52=20180625-13:29:39.541|56=TRAX|10=098|8=FIXT.1.1|9=65|35=0|34=289|49=HEMATRAXRTS27QA2|52=20180625-13:30:09.541|56=TRAX|10=088|8=FIXT.1.1|9=65|35=0|34=290|49=HEMATRAXRTS27QA2|52=20180625-13:30:40.541|56=TRAX|10=075|8=FIXT.1.1|9=65|35=0|34=291|49=HEMATRAXRTS27QA2|52=20180625-13:31:11.540|56=TRAX|10=074|8=FIXT.1.1|9=65|35=0|34=292|49=HEMATRAXRTS27QA2|52=20180625-13:31:41.540|56=TRAX|10=078|8=FIXT.1.1|9=65|35=0|34=293|49=HEMATRAXRTS27QA2|52=20180625-13:32:11.540|56=TRAX|10=077|8=FIXT.1.1|9=65|35=0|34=294|49=HEMATRAXRTS27QA2|52=20180625-13:32:41.541|56=TRAX|10=082|8=FIXT.1.1|9=65|35=0|34=295|49=HEMATRAXRTS27QA2|52=20180625-13:33:12.539|56=TRAX|10=089|8=FIXT.1.1|9=65|35=0|34=296|49=HEMATRAXRTS27QA2|52=20180625-13:33:42.539|56=TRAX|10=093|8=FIXT.1.1|9=65|35=0|34=297|49=HEMATRAXRTS27QA2|52=20180625-13:34:12.540|56=TRAX|10=084|8=FIXT.1.1|9=65|35=0|34=298|49=HEMATRAXRTS27QA2|52=20180625-13:34:42.540|56=TRAX|10=088|8=FIXT.1.1|9=65|35=0|34=299|49=HEMATRAXRTS27QA2|52=20180625-13:35:13.539|56=TRAX|10=096|8=FIXT.1.1|9=65|35=0|34=300|49=HEMATRAXRTS27QA2|52=20180625-13:35:44.539|56=TRAX|10=083|8=FIXT.1.1|9=65|35=0|34=301|49=HEMATRAXRTS27QA2|52=20180625-13:36:14.539|56=TRAX|10=082|8=FIXT.1.1|9=474|35=AE|34=302|49=HEMATRAXRTS27QA2|50=APA|57=APA|52=20180625-13:36:17.817|56=TRAX|571=TradeReport|487=0|325=Y|423=1|55=[N/A]|22=104|32=2222|31=203.17|60=20180301-09:30:13.370|552=1|54=1|29=4|1041=APA-CONCAT-20NOV22-1088|1934=0|15=GBP|1924=1|22600=2500000|22601=GBP|22606=DERV|22607=INTR|22608=FORW|22610=20201212|22641=00XS53621057|22643=0DAYS|22661=Bond Forwards|854=1|231=10|30=SINT|1116=2|1117=004L5FPTUREIWK9T2N63 |1118=N|1119=116|1117=004L5FPTUREIWK9T2N63 |1118=N|1119=1|10=096|8=FIXT.1.1|9=65|35=0|34=303|49=HEMATRAXRTS27QA2|52=20180625-13:36:48.539|56=TRAX|10=091|8=FIXT.1.1|9=474|35=AE|34=304|49=HEMATRAXRTS27QA2|50=APA|57=APA|52=20180625-13:36:59.017|56=TRAX|571=TradeReport|487=0|325=Y|423=1|55=[N/A]|22=104|32=2222|31=203.17|60=20180301-09:30:13.370|552=1|54=1|29=4|1041=APA-CONCAT-20NOV22-1089|1934=0|15=GBP|1924=1|22600=2500000|22601=GBP|22606=DERV|22607=INTR|22608=FORW|22610=20201212|22641=DE0006062144|22643=0DAYS|22661=Bond Forwards|854=1|231=10|30=SINT|1116=2|1117=004L5FPTUREIWK9T2N63 |1118=N|1119=116|1117=004L5FPTUREIWK9T2N63 |1118=N|1119=1|10=057|8=FIXT.1.1|9=472|35=AE|34=305|49=HEMATRAXRTS27QA2|50=APA|57=APA|52=20180625-13:37:18.849|56=TRAX|571=TradeReport|487=0|325=Y|423=1|55=[N/A]|22=104|32=2222|31=203.17|60=20180301-09:30:13.370|552=1|54=1|29=4|1041=APA-CONCAT-20NOV22-1090|1934=0|15=GBP|1924=1|22600=2500000|22601=GBP|22606=DERV|22607=INTR|22608=FORW|22610=20201212|22641=DE0006062144|22643=0DAYS|22661=Bond Forwards|854=1|231=10|30=SINT|1116=2|1117=004L5FPTUREIWK9T2N63|1118=N|1119=116|1117=004L5FPTUREIWK9T2N63|1118=N|1119=1|10=249|8=FIXT.1.1|9=472|35=AE|34=306|49=HEMATRAXRTS27QA2|50=APA|57=APA|52=20180625-13:37:34.953|56=TRAX|571=TradeReport|487=0|325=Y|423=1|55=[N/A]|22=104|32=56.89|31=89.34|60=20180301-09:30:13.370|552=1|54=1|29=4|1041=APA-CONCAT-20NOV22-1091|1934=0|15=GBP|1924=1|22600=2500000|22601=GBP|22606=DERV|22607=INTR|22608=FORW|22610=20201212|22641=DE0006062144|22643=0DAYS|22661=Bond Forwards|854=1|231=10|30=SINT|1116=2|1117=004L5FPTUREIWK9T2N63|1118=N|1119=116|1117=004L5FPTUREIWK9T2N63|1118=N|1119=1|10=018|8=FIXT.1.1|9=473|35=AE|34=307|49=HEMATRAXRTS27QA2|50=APA|57=APA|52=20180625-13:37:48.561|56=TRAX|571=TradeReport|487=0|325=Y|423=1|55=[N/A]|22=104|32=56.894|31=89.23|60=20180301-09:30:13.370|552=1|54=1|29=4|1041=APA-CONCAT-20NOV22-1092|1934=0|15=GBP|1924=1|22600=2500000|22601=GBP|22606=DERV|22607=INTR|22608=FORW|22610=20201212|22641=DE0006062144|22643=0DAYS|22661=Bond Forwards|854=1|231=10|30=SINT|1116=2|1117=004L5FPTUREIWK9T2N63|1118=N|1119=116|1117=004L5FPTUREIWK9T2N63|1118=N|1119=1|10=071|8=FIXT.1.1|9=473|35=AE|34=308|49=HEMATRAXRTS27QA2|50=APA|57=APA|52=20180625-13:38:02.872|56=TRAX|571=TradeReport|487=0|325=Y|423=1|55=[N/A]|22=104|32=56.894|31=67.89|60=20180301-09:30:13.370|552=1|54=1|29=3|1041=APA-CONCAT-20NOV22-1092|1934=0|15=GBP|1924=1|22600=2500000|22601=GBP|22606=DERV|22607=INTR|22608=FORW|22610=20201212|22641=DE0006062144|22643=0DAYS|22661=Bond Forwards|854=1|231=10|30=SINT|1116=2|1117=004L5FPTUREIWK9T2N63|1118=N|1119=116|1117=004L5FPTUREIWK9T2N63|1118=N|1119=1|10=075|8=FIXT.1.1|9=473|35=AE|34=309|49=HEMATRAXRTS27QA2|50=APA|57=APA|52=20180625-13:38:06.864|56=TRAX|571=TradeReport|487=0|325=Y|423=1|55=[N/A]|22=104|32=56.894|31=67.89|60=20180301-09:30:13.370|552=1|54=1|29=3|1041=APA-CONCAT-20NOV22-1093|1934=0|15=GBP|1924=1|22600=2500000|22601=GBP|22606=DERV|22607=INTR|22608=FORW|22610=20201212|22641=DE0006062144|22643=0DAYS|22661=Bond Forwards|854=1|231=10|30=SINT|1116=2|1117=004L5FPTUREIWK9T2N63|1118=N|1119=116|1117=004L5FPTUREIWK9T2N63|1118=N|1119=1|10=082|8=FIXT.1.1|9=473|35=AE|34=310|49=HEMATRAXRTS27QA2|50=APA|57=APA|52=20180625-13:38:07.688|56=TRAX|571=TradeReport|487=0|325=Y|423=1|55=[N/A]|22=104|32=56.894|31=67.89|60=20180301-09:30:13.370|552=1|54=1|29=3|1041=APA-CONCAT-20NOV22-1093|1934=0|15=GBP|1924=1|22600=2500000|22601=GBP|22606=DERV|22607=INTR|22608=FORW|22610=20201212|22641=DE0006062144|22643=0DAYS|22661=Bond Forwards|854=1|231=10|30=SINT|1116=2|1117=004L5FPTUREIWK9T2N63|1118=N|1119=116|1117=004L5FPTUREIWK9T2N63|1118=N|1119=1|10=079|8=FIXT.1.1|9=470|35=AE|34=311|49=HEMATRAXRTS27QA2|50=APA|57=APA|52=20180625-13:38:14.760|56=TRAX|571=TradeReport|487=0|325=Y|423=1|55=[N/A]|22=104|32=57894|31=447|60=20180301-09:30:13.370|552=1|54=1|29=3|1041=APA-CONCAT-20NOV22-1094|1934=0|15=GBP|1924=1|22600=2500000|22601=GBP|22606=DERV|22607=INTR|22608=FORW|22610=20201212|22641=DE0006062144|22643=0DAYS|22661=Bond Forwards|854=1|231=10|30=SINT|1116=2|1117=004L5FPTUREIWK9T2N63|1118=N|1119=116|1117=004L5FPTUREIWK9T2N63|1118=N|1119=1|10=169|8=FIXT.1.1|9=65|35=0|34=312|49=HEMATRAXRTS27QA2|52=20180625-13:38:45.538|56=TRAX|10=089|8=FIXT.1.1|9=65|35=0|34=313|49=HEMATRAXRTS27QA2|52=20180625-13:39:15.872|56=TRAX|10=089|8=FIXT.1.1|9=65|35=0|34=314|49=HEMATRAXRTS27QA2|52=20180625-13:39:45.872|56=TRAX|10=093|8=FIXT.1.1|9=65|35=0|34=315|49=HEMATRAXRTS27QA2|52=20180625-13:40:16.538|56=TRAX|10=083|8=FIXT.1.1|9=65|35=0|34=316|49=HEMATRAXRTS27QA2|52=20180625-13:40:47.537|56=TRAX|10=087|8=FIXT.1.1|9=65|35=0|34=317|49=HEMATRAXRTS27QA2|52=20180625-13:41:17.537|56=TRAX|10=086|8=FIXT.1.1|9=65|35=0|34=318|49=HEMATRAXRTS27QA2|52=20180625-13:41:47.537|56=TRAX|10=090|8=FIXT.1.1|9=65|35=0|34=319|49=HEMATRAXRTS27QA2|52=20180625-13:42:17.537|56=TRAX|10=089|8=FIXT.1.1|9=65|35=0|34=320|49=HEMATRAXRTS27QA2|52=20180625-13:42:47.537|56=TRAX|10=084|8=FIXT.1.1|9=65|35=0|34=321|49=HEMATRAXRTS27QA2|52=20180625-13:43:17.538|56=TRAX|10=084|8=FIXT.1.1|9=65|35=0|34=322|49=HEMATRAXRTS27QA2|52=20180625-13:43:47.538|56=TRAX|10=088|8=FIXT.1.1|9=65|35=0|34=323|49=HEMATRAXRTS27QA2|52=20180625-13:44:18.537|56=TRAX|10=087|8=FIXT.1.1|9=65|35=0|34=324|49=HEMATRAXRTS27QA2|52=20180625-13:44:48.537|56=TRAX|10=091|8=FIXT.1.1|9=65|35=0|34=325|49=HEMATRAXRTS27QA2|52=20180625-13:45:18.537|56=TRAX|10=090|8=FIXT.1.1|9=65|35=0|34=326|49=HEMATRAXRTS27QA2|52=20180625-13:45:48.537|56=TRAX|10=094|8=FIXT.1.1|9=65|35=0|34=327|49=HEMATRAXRTS27QA2|52=20180625-13:46:18.537|56=TRAX|10=093|8=FIXT.1.1|9=65|35=0|34=328|49=HEMATRAXRTS27QA2|52=20180625-13:46:49.537|56=TRAX|10=098|8=FIXT.1.1|9=65|35=0|34=329|49=HEMATRAXRTS27QA2|52=20180625-13:47:20.536|56=TRAX|10=088|8=FIXT.1.1|9=65|35=0|34=330|49=HEMATRAXRTS27QA2|52=20180625-13:47:50.536|56=TRAX|10=083|8=FIXT.1.1|9=65|35=0|34=331|49=HEMATRAXRTS27QA2|52=20180625-13:48:21.536|56=TRAX|10=083|8=FIXT.1.1|9=65|35=0|34=332|49=HEMATRAXRTS27QA2|52=20180625-13:48:51.536|56=TRAX|10=087|8=FIXT.1.1|9=65|35=0|34=333|49=HEMATRAXRTS27QA2|52=20180625-13:49:21.536|56=TRAX|10=086|8=FIXT.1.1|9=65|35=0|34=334|49=HEMATRAXRTS27QA2|52=20180625-13:49:52.536|56=TRAX|10=091|8=FIXT.1.1|9=65|35=0|34=335|49=HEMATRAXRTS27QA2|52=20180625-13:50:23.535|56=TRAX|10=081|8=FIXT.1.1|9=65|35=0|34=336|49=HEMATRAXRTS27QA2|52=20180625-13:50:53.535|56=TRAX|10=085|8=FIXT.1.1|9=65|35=0|34=337|49=HEMATRAXRTS27QA2|52=20180625-13:51:23.536|56=TRAX|10=085|8=FIXT.1.1|9=65|35=0|34=338|49=HEMATRAXRTS27QA2|52=20180625-13:51:54.535|56=TRAX|10=089|8=FIXT.1.1|9=65|35=0|34=339|49=HEMATRAXRTS27QA2|52=20180625-13:52:24.535|56=TRAX|10=088|8=FIXT.1.1|9=65|35=0|34=340|49=HEMATRAXRTS27QA2|52=20180625-13:52:55.182|56=TRAX|10=082|8=FIXT.1.1|9=65|35=0|34=341|49=HEMATRAXRTS27QA2|52=20180625-13:53:25.534|56=TRAX|10=082|8=FIXT.1.1|9=65|35=0|34=342|49=HEMATRAXRTS27QA2|52=20180625-13:53:55.534|56=TRAX|10=086|8=FIXT.1.1|9=65|35=0|34=343|49=HEMATRAXRTS27QA2|52=20180625-13:54:25.874|56=TRAX|10=092|8=FIXT.1.1|9=65|35=0|34=344|49=HEMATRAXRTS27QA2|52=20180625-13:54:56.534|56=TRAX|10=090|8=FIXT.1.1|9=65|35=0|34=345|49=HEMATRAXRTS27QA2|52=20180625-13:55:26.535|56=TRAX|10=090|8=FIXT.1.1|9=65|35=0|34=346|49=HEMATRAXRTS27QA2|52=20180625-13:55:57.533|56=TRAX|10=093|8=FIXT.1.1|9=65|35=0|34=347|49=HEMATRAXRTS27QA2|52=20180625-13:56:27.533|56=TRAX|10=092|8=FIXT.1.1|9=65|35=0|34=348|49=HEMATRAXRTS27QA2|52=20180625-13:56:58.533|56=TRAX|10=097|8=FIXT.1.1|9=65|35=0|34=349|49=HEMATRAXRTS27QA2|52=20180625-13:57:29.533|56=TRAX|10=097|8=FIXT.1.1|9=65|35=0|34=350|49=HEMATRAXRTS27QA2|52=20180625-13:58:00.533|56=TRAX|10=079|8=FIXT.1.1|9=65|35=0|34=351|49=HEMATRAXRTS27QA2|52=20180625-13:58:31.532|56=TRAX|10=083|8=FIXT.1.1|9=65|35=0|34=352|49=HEMATRAXRTS27QA2|52=20180625-13:59:01.532|56=TRAX|10=082|8=FIXT.1.1|9=65|35=0|34=353|49=HEMATRAXRTS27QA2|52=20180625-13:59:32.532|56=TRAX|10=087|8=FIXT.1.1|9=65|35=0|34=354|49=HEMATRAXRTS27QA2|52=20180625-14:00:02.536|56=TRAX|10=076|8=FIXT.1.1|9=65|35=0|34=355|49=HEMATRAXRTS27QA2|52=20180625-14:00:32.740|56=TRAX|10=077|8=FIXT.1.1|9=65|35=0|34=356|49=HEMATRAXRTS27QA2|52=20180625-14:01:02.861|56=TRAX|10=080|8=FIXT.1.1|9=65|35=0|34=357|49=HEMATRAXRTS27QA2|52=20180625-14:01:33.530|56=TRAX|10=078|8=FIXT.1.1|9=65|35=0|34=358|49=HEMATRAXRTS27QA2|52=20180625-14:02:03.544|56=TRAX|10=082|8=FIXT.1.1|9=65|35=0|34=359|49=HEMATRAXRTS27QA2|52=20180625-14:02:34.540|56=TRAX|10=083|8=FIXT.1.1|9=65|35=0|34=360|49=HEMATRAXRTS27QA2|52=20180625-14:03:05.534|56=TRAX|10=077|8=FIXT.1.1|9=65|35=0|34=361|49=HEMATRAXRTS27QA2|52=20180625-14:03:36.530|56=TRAX|10=078|8=FIXT.1.1|9=65|35=0|34=362|49=HEMATRAXRTS27QA2|52=20180625-14:04:06.538|56=TRAX|10=085|8=FIXT.1.1|9=65|35=0|34=363|49=HEMATRAXRTS27QA2|52=20180625-14:04:36.538|56=TRAX|10=089|8=FIXT.1.1|9=65|35=0|34=364|49=HEMATRAXRTS27QA2|52=20180625-14:05:07.530|56=TRAX|10=081|8=FIXT.1.1|9=65|35=0|34=365|49=HEMATRAXRTS27QA2|52=20180625-14:05:38.529|56=TRAX|10=094|8=FIXT.1.1|9=65|35=0|34=366|49=HEMATRAXRTS27QA2|52=20180625-14:06:08.529|56=TRAX|10=093|8=FIXT.1.1|9=65|35=0|34=367|49=HEMATRAXRTS27QA2|52=20180625-14:06:38.529|56=TRAX|10=097|8=FIXT.1.1|9=65|35=0|34=368|49=HEMATRAXRTS27QA2|52=20180625-14:07:08.542|56=TRAX|10=091|8=FIXT.1.1|9=65|35=0|34=369|49=HEMATRAXRTS27QA2|52=20180625-14:07:39.540|56=TRAX|10=094|8=FIXT.1.1|9=65|35=0|34=370|49=HEMATRAXRTS27QA2|52=20180625-14:08:10.533|56=TRAX|10=078|8=FIXT.1.1|9=65|35=0|34=371|49=HEMATRAXRTS27QA2|52=20180625-14:08:41.528|56=TRAX|10=087|8=FIXT.1.1|9=65|35=0|34=372|49=HEMATRAXRTS27QA2|52=20180625-14:09:11.528|56=TRAX|10=086|8=FIXT.1.1|9=65|35=0|34=373|49=HEMATRAXRTS27QA2|52=20180625-14:09:42.528|56=TRAX|10=091|8=FIXT.1.1|9=65|35=0|34=374|49=HEMATRAXRTS27QA2|52=20180625-14:10:12.542|56=TRAX|10=077|8=FIXT.1.1|9=65|35=0|34=375|49=HEMATRAXRTS27QA2|52=20180625-14:10:43.528|56=TRAX|10=086|8=FIXT.1.1|9=65|35=0|34=376|49=HEMATRAXRTS27QA2|52=20180625-14:11:13.536|56=TRAX|10=084|8=FIXT.1.1|9=65|35=0|34=377|49=HEMATRAXRTS27QA2|52=20180625-14:11:43.538|56=TRAX|10=090|8=FIXT.1.1|9=65|35=0|34=378|49=HEMATRAXRTS27QA2|52=20180625-14:12:14.533|56=TRAX|10=085|8=FIXT.1.1|9=65|35=0|34=379|49=HEMATRAXRTS27QA2|52=20180625-14:12:45.526|56=TRAX|10=092|8=FIXT.1.1|9=65|35=0|34=380|49=HEMATRAXRTS27QA2|52=20180625-14:13:15.527|56=TRAX|10=083|8=FIXT.1.1|9=65|35=0|34=381|49=HEMATRAXRTS27QA2|52=20180625-14:13:45.534|56=TRAX|10=085|8=FIXT.1.1|9=65|35=0|34=382|49=HEMATRAXRTS27QA2|52=20180625-14:14:15.535|56=TRAX|10=085|8=FIXT.1.1|9=65|35=0|34=383|49=HEMATRAXRTS27QA2|52=20180625-14:14:46.534|56=TRAX|10=089|8=FIXT.1.1|9=65|35=0|34=384|49=HEMATRAXRTS27QA2|52=20180625-14:15:17.533|56=TRAX|10=088|8=FIXT.1.1|9=65|35=0|34=385|49=HEMATRAXRTS27QA2|52=20180625-14:15:47.540|56=TRAX|10=090|8=FIXT.1.1|9=473|35=AE|34=386|49=HEMATRAXRTS27QA2|50=APA|57=APA|52=20180625-14:16:17.284|56=TRAX|571=TradeReport|487=0|325=Y|423=1|55=[N/A]|22=104|32=57894|31=447|60=20180303-09:33:13.370|552=1|54=1|29=3|1041=APA-CONCAT-20NOV22-1094_21|1934=0|15=INR|1924=1|22600=2500000|22601=GBP|22606=DERV|22607=INTR|22608=FORW|22610=20201212|22641=DE0006062144|22643=0DAYS|22661=Bond Forwards|854=1|231=10|30=SINT|1116=2|1117=004L5FPTUREIWK9T2N63|1118=N|1119=116|1117=004L5FPTUREIWK9T2N63|1118=N|1119=1|10=144|8=FIXT.1.1|9=65|35=0|34=387|49=HEMATRAXRTS27QA2|52=20180625-14:16:47.532|56=TRAX|10=094|8=FIXT.1.1|9=473|35=AE|34=388|49=HEMATRAXRTS27QA2|50=APA|57=APA|52=20180625-14:16:56.890|56=TRAX|571=TradeReport|487=0|325=Y|423=2|55=[N/A]|22=104|32=57894|31=447|60=20180303-09:33:13.370|552=1|54=1|29=3|1041=APA-CONCAT-20NOV22-1094_22|1934=0|15=GBP|1924=1|22600=2500000|22601=INR|22606=DERV|22607=INTR|22608=FORW|22610=20201212|22641=DE0006062144|22643=0DAYS|22661=Bond Forwards|854=1|231=10|30=SINT|1116=2|1117=004L5FPTUREIWK9T2N63|1118=N|1119=116|1117=004L5FPTUREIWK9T2N63|1118=N|1119=1|10=154|8=FIXT.1.1|9=65|35=0|34=389|49=HEMATRAXRTS27QA2|52=20180625-14:17:27.525|56=TRAX|10=097|8=FIXT.1.1|9=65|35=0|34=390|49=HEMATRAXRTS27QA2|52=20180625-14:17:57.539|56=TRAX|10=097|8=FIXT.1.1|9=65|35=0|34=391|49=HEMATRAXRTS27QA2|52=20180625-14:18:27.863|56=TRAX|10=096|8=FIXT.1.1|9=65|35=0|34=392|49=HEMATRAXRTS27QA2|52=20180625-14:18:57.875|56=TRAX|10=103|8=FIXT.1.1|9=65|35=0|34=393|49=HEMATRAXRTS27QA2|52=20180625-14:19:27.876|56=TRAX|10=103|8=FIXT.1.1|9=65|35=0|34=394|49=HEMATRAXRTS27QA2|52=20180625-14:19:58.530|56=TRAX|10=095|8=FIXT.1.1|9=65|35=0|34=395|49=HEMATRAXRTS27QA2|52=20180625-14:20:28.536|56=TRAX|10=091|8=FIXT.1.1|9=65|35=0|34=396|49=HEMATRAXRTS27QA2|52=20180625-14:20:58.538|56=TRAX|10=097|8=FIXT.1.1|9=65|35=0|34=397|49=HEMATRAXRTS27QA2|52=20180625-14:21:29.532|56=TRAX|10=091|8=FIXT.1.1|9=65|35=0|34=398|49=HEMATRAXRTS27QA2|52=20180625-14:21:59.536|56=TRAX|10=099|8=FIXT.1.1|9=65|35=0|34=399|49=HEMATRAXRTS27QA2|52=20180625-14:22:30.531|56=TRAX|10=085|8=FIXT.1.1|9=65|35=0|34=400|49=HEMATRAXRTS27QA2|52=20180625-14:23:00.536|56=TRAX|10=071|8=FIXT.1.1|9=65|35=0|34=401|49=HEMATRAXRTS27QA2|52=20180625-14:23:31.534|56=TRAX|10=074|8=FIXT.1.1|9=65|35=0|34=402|49=HEMATRAXRTS27QA2|52=20180625-14:24:02.522|56=TRAX|10=071|8=FIXT.1.1|9=65|35=0|34=403|49=HEMATRAXRTS27QA2|52=20180625-14:24:32.533|56=TRAX|10=077|8=FIXT.1.1|9=65|35=0|34=404|49=HEMATRAXRTS27QA2|52=20180625-14:25:02.534|56=TRAX|10=077|8=FIXT.1.1|9=65|35=0|34=405|49=HEMATRAXRTS27QA2|52=20180625-14:25:33.530|56=TRAX|10=078|8=FIXT.1.1|9=65|35=0|34=406|49=HEMATRAXRTS27QA2|52=20180625-14:26:03.535|56=TRAX|10=082|8=FIXT.1.1|9=65|35=0|34=407|49=HEMATRAXRTS27QA2|52=20180625-14:26:34.535|56=TRAX|10=087|8=FIXT.1.1|9=65|35=0|34=408|49=HEMATRAXRTS27QA2|52=20180625-14:27:05.535|56=TRAX|10=087|8=FIXT.1.1|9=65|35=0|34=409|49=HEMATRAXRTS27QA2|52=20180625-14:27:36.521|56=TRAX|10=087|8=FIXT.1.1|9=65|35=0|34=410|49=HEMATRAXRTS27QA2|52=20180625-14:28:06.521|56=TRAX|10=077|8=FIXT.1.1|9=65|35=0|34=411|49=HEMATRAXRTS27QA2|52=20180625-14:28:36.535|56=TRAX|10=086|8=FIXT.1.1|9=65|35=0|34=412|49=HEMATRAXRTS27QA2|52=20180625-14:29:07.526|56=TRAX|10=086|8=FIXT.1.1|9=65|35=0|34=413|49=HEMATRAXRTS27QA2|52=20180625-14:29:37.535|56=TRAX|10=090|8=FIXT.1.1|9=65|35=0|34=414|49=HEMATRAXRTS27QA2|52=20180625-14:30:08.520|56=TRAX|10=075|8=FIXT.1.1|9=65|35=0|34=415|49=HEMATRAXRTS27QA2|52=20180625-14:30:38.520|56=TRAX|10=079|8=FIXT.1.1|9=65|35=0|34=416|49=HEMATRAXRTS27QA2|52=20180625-14:31:08.526|56=TRAX|10=084|8=FIXT.1.1|9=65|35=0|34=417|49=HEMATRAXRTS27QA2|52=20180625-14:31:38.526|56=TRAX|10=088|8=FIXT.1.1|9=65|35=0|34=418|49=HEMATRAXRTS27QA2|52=20180625-14:32:09.527|56=TRAX|10=089|8=FIXT.1.1|9=65|35=0|34=419|49=HEMATRAXRTS27QA2|52=20180625-14:32:39.532|56=TRAX|10=089|8=FIXT.1.1|9=65|35=0|34=420|49=HEMATRAXRTS27QA2|52=20180625-14:33:10.527|56=TRAX|10=075|8=FIXT.1.1|9=65|35=0|34=421|49=HEMATRAXRTS27QA2|52=20180625-14:33:41.529|56=TRAX|10=082|8=FIXT.1.1|9=65|35=0|34=422|49=HEMATRAXRTS27QA2|52=20180625-14:34:12.530|56=TRAX|10=074|8=FIXT.1.1|9=65|35=0|34=423|49=HEMATRAXRTS27QA2|52=20180625-14:34:43.521|56=TRAX|10=079|8=FIXT.1.1|9=65|35=0|34=424|49=HEMATRAXRTS27QA2|52=20180625-14:35:13.525|56=TRAX|10=082|8=FIXT.1.1|9=65|35=0|34=425|49=HEMATRAXRTS27QA2|52=20180625-14:35:43.537|56=TRAX|10=089|8=FIXT.1.1|9=65|35=0|34=426|49=HEMATRAXRTS27QA2|52=20180625-14:36:14.525|56=TRAX|10=086|8=FIXT.1.1|9=65|35=0|34=427|49=HEMATRAXRTS27QA2|52=20180625-14:36:44.532|56=TRAX|10=088|8=FIXT.1.1|9=65|35=0|34=428|49=HEMATRAXRTS27QA2|52=20180625-14:37:15.540|56=TRAX|10=087|8=FIXT.1.1|9=65|35=0|34=429|49=HEMATRAXRTS27QA2|52=20180625-14:37:46.529|56=TRAX|10=099|8=FIXT.1.1|9=65|35=0|34=430|49=HEMATRAXRTS27QA2|52=20180625-14:38:16.531|56=TRAX|10=082|8=FIXT.1.1|9=65|35=0|34=431|49=HEMATRAXRTS27QA2|52=20180625-14:38:46.533|56=TRAX|10=088|8=FIXT.1.1|9=65|35=0|34=432|49=HEMATRAXRTS27QA2|52=20180625-14:39:17.544|56=TRAX|10=090|8=FIXT.1.1|9=65|35=0|34=433|49=HEMATRAXRTS27QA2|52=20180625-14:39:48.539|56=TRAX|10=099|8=FIXT.1.1|9=65|35=0|34=434|49=HEMATRAXRTS27QA2|52=20180625-14:40:18.544|56=TRAX|10=085|8=FIXT.1.1|9=65|35=0|34=435|49=HEMATRAXRTS27QA2|52=20180625-14:40:49.539|56=TRAX|10=094|8=FIXT.1.1|9=65|35=0|34=436|49=HEMATRAXRTS27QA2|52=20180625-14:41:19.544|56=TRAX|10=089|8=FIXT.1.1|9=65|35=0|34=437|49=HEMATRAXRTS27QA2|52=20180625-14:41:50.533|56=TRAX|10=083|8=FIXT.1.1|9=65|35=0|34=438|49=HEMATRAXRTS27QA2|52=20180625-14:42:21.542|56=TRAX|10=083|8=FIXT.1.1|9=65|35=0|34=439|49=HEMATRAXRTS27QA2|52=20180625-14:42:52.537|56=TRAX|10=092|8=FIXT.1.1|9=65|35=0|34=440|49=HEMATRAXRTS27QA2|52=20180625-14:43:23.531|56=TRAX|10=077|8=FIXT.1.1|9=65|35=0|34=441|49=HEMATRAXRTS27QA2|52=20180625-14:43:54.531|56=TRAX|10=082|8=FIXT.1.1|9=65|35=0|34=442|49=HEMATRAXRTS27QA2|52=20180625-14:44:24.539|56=TRAX|10=089|8=FIXT.1.1|9=65|35=0|34=443|49=HEMATRAXRTS27QA2|52=20180625-14:44:54.541|56=TRAX|10=086|8=FIXT.1.1|9=65|35=0|34=444|49=HEMATRAXRTS27QA2|52=20180625-14:45:25.531|56=TRAX|10=085|8=FIXT.1.1|9=65|35=0|34=445|49=HEMATRAXRTS27QA2|52=20180625-14:45:56.543|56=TRAX|10=093|8=FIXT.1.1|9=65|35=0|34=446|49=HEMATRAXRTS27QA2|52=20180625-14:46:27.533|56=TRAX|10=092|8=FIXT.1.1|9=65|35=0|34=447|49=HEMATRAXRTS27QA2|52=20180625-14:46:57.539|56=TRAX|10=102|8=FIXT.1.1|9=65|35=0|34=448|49=HEMATRAXRTS27QA2|52=20180625-14:47:28.533|56=TRAX|10=096|8=FIXT.1.1|9=65|35=0|34=449|49=HEMATRAXRTS27QA2|52=20180625-14:47:58.536|56=TRAX|10=103|8=FIXT.1.1|9=65|35=0|34=450|49=HEMATRAXRTS27QA2|52=20180625-14:48:29.537|56=TRAX|10=095|8=FIXT.1.1|9=65|35=0|34=451|49=HEMATRAXRTS27QA2|52=20180625-14:48:59.543|56=TRAX|10=096|8=FIXT.1.1|9=65|35=0|34=452|49=HEMATRAXRTS27QA2|52=20180625-14:49:30.540|56=TRAX|10=084|8=FIXT.1.1|9=65|35=0|34=453|49=HEMATRAXRTS27QA2|52=20180625-14:50:00.544|56=TRAX|10=078|8=FIXT.1.1|9=65|35=0|34=454|49=HEMATRAXRTS27QA2|52=20180625-14:50:31.538|56=TRAX|10=086|8=FIXT.1.1|9=65|35=0|34=455|49=HEMATRAXRTS27QA2|52=20180625-14:51:02.532|56=TRAX|10=080|8=FIXT.1.1|9=65|35=0|34=456|49=HEMATRAXRTS27QA2|52=20180625-14:51:32.537|56=TRAX|10=089|8=FIXT.1.1|9=65|35=0|34=457|49=HEMATRAXRTS27QA2|52=20180625-14:52:03.532|56=TRAX|10=084|8=FIXT.1.1|9=65|35=0|34=458|49=HEMATRAXRTS27QA2|52=20180625-14:52:33.535|56=TRAX|10=091|8=FIXT.1.1|9=65|35=0|34=459|49=HEMATRAXRTS27QA2|52=20180625-14:53:03.543|56=TRAX|10=089|8=FIXT.1.1|9=65|35=0|34=460|49=HEMATRAXRTS27QA2|52=20180625-14:53:34.539|56=TRAX|10=090|8=FIXT.1.1|9=65|35=0|34=461|49=HEMATRAXRTS27QA2|52=20180625-14:54:05.534|56=TRAX|10=085|8=FIXT.1.1|9=65|35=0|34=462|49=HEMATRAXRTS27QA2|52=20180625-14:54:36.541|56=TRAX|10=088|8=FIXT.1.1|9=65|35=0|34=463|49=HEMATRAXRTS27QA2|52=20180625-14:55:07.541|56=TRAX|10=088|8=FIXT.1.1|9=65|35=0|34=464|49=HEMATRAXRTS27QA2|52=20180625-14:55:38.534|56=TRAX|10=095|8=FIXT.1.1|9=65|35=0|34=465|49=HEMATRAXRTS27QA2|52=20180625-14:56:08.538|56=TRAX|10=098|8=FIXT.1.1|9=65|35=0|34=466|49=HEMATRAXRTS27QA2|52=20180625-14:56:39.535|56=TRAX|10=100|8=FIXT.1.1|9=65|35=0|34=467|49=HEMATRAXRTS27QA2|52=20180625-14:57:10.524|56=TRAX|10=089|8=FIXT.1.1|9=65|35=0|34=468|49=HEMATRAXRTS27QA2|52=20180625-14:57:40.532|56=TRAX|10=092|8=FIXT.1.1|9=65|35=0|34=469|49=HEMATRAXRTS27QA2|52=20180625-14:58:10.532|56=TRAX|10=091|8=FIXT.1.1|9=65|35=0|34=470|49=HEMATRAXRTS27QA2|52=20180625-14:58:41.532|56=TRAX|10=087|8=FIXT.1.1|9=65|35=0|34=471|49=HEMATRAXRTS27QA2|52=20180625-14:59:11.538|56=TRAX|10=092|8=FIXT.1.1|9=65|35=0|34=472|49=HEMATRAXRTS27QA2|52=20180625-14:59:42.534|56=TRAX|10=093|8=FIXT.1.1|9=65|35=0|34=473|49=HEMATRAXRTS27QA2|52=20180625-15:00:12.537|56=TRAX|10=081|8=FIXT.1.1|9=65|35=0|34=474|49=HEMATRAXRTS27QA2|52=20180625-15:00:43.527|56=TRAX|10=085|8=FIXT.1.1|9=65|35=0|34=475|49=HEMATRAXRTS27QA2|52=20180625-15:01:13.529|56=TRAX|10=086|8=FIXT.1.1|9=65|35=0|34=476|49=HEMATRAXRTS27QA2|52=20180625-15:01:44.523|56=TRAX|10=085|8=FIXT.1.1|9=65|35=0|34=477|49=HEMATRAXRTS27QA2|52=20180625-15:02:15.521|56=TRAX|10=083|8=FIXT.1.1|9=65|35=0|34=478|49=HEMATRAXRTS27QA2|52=20180625-15:02:45.529|56=TRAX|10=095|8=FIXT.1.1|9=65|35=0|34=479|49=HEMATRAXRTS27QA2|52=20180625-15:03:15.886|56=TRAX|10=100|8=FIXT.1.1|9=65|35=0|34=480|49=HEMATRAXRTS27QA2|52=20180625-15:03:45.886|56=TRAX|10=095|8=FIXT.1.1|9=65|35=0|34=481|49=HEMATRAXRTS27QA2|52=20180625-15:04:15.890|56=TRAX|10=089|8=FIXT.1.1|9=65|35=0|34=482|49=HEMATRAXRTS27QA2|52=20180625-15:04:46.518|56=TRAX|10=091|8=FIXT.1.1|9=65|35=0|34=483|49=HEMATRAXRTS27QA2|52=20180625-15:05:16.533|56=TRAX|10=087|8=FIXT.1.1|9=65|35=0|34=484|49=HEMATRAXRTS27QA2|52=20180625-15:05:47.530|56=TRAX|10=089|8=FIXT.1.1|9=65|35=0|34=485|49=HEMATRAXRTS27QA2|52=20180625-15:06:17.533|56=TRAX|10=091|8=FIXT.1.1|9=65|35=0|34=486|49=HEMATRAXRTS27QA2|52=20180625-15:06:48.531|56=TRAX|10=094|8=FIXT.1.1|9=65|35=0|34=487|49=HEMATRAXRTS27QA2|52=20180625-15:07:18.532|56=TRAX|10=094|8=FIXT.1.1|9=65|35=0|34=488|49=HEMATRAXRTS27QA2|52=20180625-15:07:49.525|56=TRAX|10=101|8=FIXT.1.1|9=65|35=0|34=489|49=HEMATRAXRTS27QA2|52=20180625-15:08:19.530|56=TRAX|10=096|8=FIXT.1.1|9=65|35=0|34=490|49=HEMATRAXRTS27QA2|52=20180625-15:08:50.523|56=TRAX|10=085|8=FIXT.1.1|9=65|35=0|34=491|49=HEMATRAXRTS27QA2|52=20180625-15:09:20.527|56=TRAX|10=088|8=FIXT.1.1|9=65|35=0|34=492|49=HEMATRAXRTS27QA2|52=20180625-15:09:51.516|56=TRAX|10=091|8=FIXT.1.1|9=65|35=0|34=493|49=HEMATRAXRTS27QA2|52=20180625-15:10:21.524|56=TRAX|10=080|8=FIXT.1.1|9=65|35=0|34=494|49=HEMATRAXRTS27QA2|52=20180625-15:10:51.526|56=TRAX|10=086|8=FIXT.1.1|9=65|35=0|34=495|49=HEMATRAXRTS27QA2|52=20180625-15:11:22.518|56=TRAX|10=087|8=FIXT.1.1|9=65|35=0|34=496|49=HEMATRAXRTS27QA2|52=20180625-15:11:52.521|56=TRAX|10=085|8=FIXT.1.1|9=65|35=0|34=497|49=HEMATRAXRTS27QA2|52=20180625-15:12:23.520|56=TRAX|10=084|8=FIXT.1.1|9=65|35=0|34=498|49=HEMATRAXRTS27QA2|52=20180625-15:12:53.526|56=TRAX|10=094|8=FIXT.1.1|9=65|35=0|34=499|49=HEMATRAXRTS27QA2|52=20180625-15:13:24.517|56=TRAX|10=094|8=FIXT.1.1|9=65|35=0|34=500|49=HEMATRAXRTS27QA2|52=20180625-15:13:54.527|56=TRAX|10=081|8=FIXT.1.1|9=65|35=0|34=501|49=HEMATRAXRTS27QA2|52=20180625-15:14:25.520|56=TRAX|10=074|8=FIXT.1.1|9=65|35=0|34=502|49=HEMATRAXRTS27QA2|52=20180625-15:14:56.511|56=TRAX|10=079|8=FIXT.1.1|9=65|35=0|34=503|49=HEMATRAXRTS27QA2|52=20180625-15:15:26.525|56=TRAX|10=083|8=FIXT.1.1|9=65|35=0|34=504|49=HEMATRAXRTS27QA2|52=20180625-15:15:57.519|56=TRAX|10=091|8=FIXT.1.1|9=65|35=0|34=505|49=HEMATRAXRTS27QA2|52=20180625-15:16:27.522|56=TRAX|10=084|8=FIXT.1.1|9=65|35=0|34=506|49=HEMATRAXRTS27QA2|52=20180625-15:16:58.510|56=TRAX|10=086|8=FIXT.1.1|9=65|35=0|34=507|49=HEMATRAXRTS27QA2|52=20180625-15:17:28.518|56=TRAX|10=093|8=FIXT.1.1|9=65|35=0|34=508|49=HEMATRAXRTS27QA2|52=20180625-15:17:58.520|56=TRAX|10=090|8=FIXT.1.1|9=65|35=0|34=509|49=HEMATRAXRTS27QA2|52=20180625-15:18:29.516|56=TRAX|10=095|8=FIXT.1.1|9=65|35=0|34=510|49=HEMATRAXRTS27QA2|52=20180625-15:18:59.523|56=TRAX|10=088|8=FIXT.1.1|9=65|35=0|34=511|49=HEMATRAXRTS27QA2|52=20180625-15:19:30.514|56=TRAX|10=079|8=FIXT.1.1|9=65|35=0|34=512|49=HEMATRAXRTS27QA2|52=20180625-15:20:00.521|56=TRAX|10=067|8=FIXT.1.1|9=65|35=0|34=513|49=HEMATRAXRTS27QA2|52=20180625-15:20:31.512|56=TRAX|10=072|8=FIXT.1.1|9=65|35=0|34=514|49=HEMATRAXRTS27QA2|52=20180625-15:21:01.515|56=TRAX|10=074|8=FIXT.1.1|9=65|35=0|34=515|49=HEMATRAXRTS27QA2|52=20180625-15:21:32.513|56=TRAX|10=077|8=FIXT.1.1|9=65|35=0|34=516|49=HEMATRAXRTS27QA2|52=20180625-15:22:02.514|56=TRAX|10=077|8=FIXT.1.1|9=65|35=0|34=517|49=HEMATRAXRTS27QA2|52=20180625-15:22:32.517|56=TRAX|10=084|8=FIXT.1.1|9=65|35=0|34=518|49=HEMATRAXRTS27QA2|52=20180625-15:23:03.511|56=TRAX|10=078|8=FIXT.1.1|9=65|35=0|34=519|49=HEMATRAXRTS27QA2|52=20180625-15:23:33.512|56=TRAX|10=083|8=FIXT.1.1|9=65|35=0|34=520|49=HEMATRAXRTS27QA2|52=20180625-15:24:03.518|56=TRAX|10=079|8=FIXT.1.1|9=65|35=0|34=521|49=HEMATRAXRTS27QA2|52=20180625-15:24:34.508|56=TRAX|10=083|8=FIXT.1.1|9=65|35=0|34=522|49=HEMATRAXRTS27QA2|52=20180625-15:25:04.508|56=TRAX|10=082|8=FIXT.1.1|9=65|35=0|34=523|49=HEMATRAXRTS27QA2|52=20180625-15:25:34.517|56=TRAX|10=086|8=FIXT.1.1|9=65|35=0|34=524|49=HEMATRAXRTS27QA2|52=20180625-15:26:05.504|56=TRAX|10=082|8=FIXT.1.1|9=65|35=0|34=525|49=HEMATRAXRTS27QA2|52=20180625-15:26:35.514|56=TRAX|10=087|8=FIXT.1.1|9=65|35=0|34=526|49=HEMATRAXRTS27QA2|52=20180625-15:27:06.512|56=TRAX|10=085|8=FIXT.1.1|9=65|35=0|34=527|49=HEMATRAXRTS27QA2|52=20180625-15:27:36.513|56=TRAX|10=090|8=FIXT.1.1|9=65|35=0|34=528|49=HEMATRAXRTS27QA2|52=20180625-15:28:06.515|56=TRAX|10=091|8=FIXT.1.1|9=65|35=0|34=529|49=HEMATRAXRTS27QA2|52=20180625-15:28:37.508|56=TRAX|10=098|8=FIXT.1.1|9=65|35=0|34=530|49=HEMATRAXRTS27QA2|52=20180625-15:29:07.515|56=TRAX|10=086|8=FIXT.1.1|9=65|35=0|34=531|49=HEMATRAXRTS27QA2|52=20180625-15:29:38.514|56=TRAX|10=090|8=FIXT.1.1|9=65|35=0|34=532|49=HEMATRAXRTS27QA2|52=20180625-15:30:08.514|56=TRAX|10=080|8=FIXT.1.1|9=65|35=0|34=533|49=HEMATRAXRTS27QA2|52=20180625-15:30:39.502|56=TRAX|10=082|8=FIXT.1.1|9=65|35=0|34=534|49=HEMATRAXRTS27QA2|52=20180625-15:31:09.506|56=TRAX|10=085|8=FIXT.1.1|9=65|35=0|34=535|49=HEMATRAXRTS27QA2|52=20180625-15:31:40.505|56=TRAX|10=080|8=FIXT.1.1|9=65|35=0|34=536|49=HEMATRAXRTS27QA2|52=20180625-15:32:11.509|56=TRAX|10=084|8=FIXT.1.1|9=65|35=0|34=537|49=HEMATRAXRTS27QA2|52=20180625-15:32:42.499|56=TRAX|10=097|8=FIXT.1.1|9=65|35=0|34=538|49=HEMATRAXRTS27QA2|52=20180625-15:33:12.509|56=TRAX|10=088|8=FIXT.1.1|9=65|35=0|34=539|49=HEMATRAXRTS27QA2|52=20180625-15:33:43.508|56=TRAX|10=092|8=FIXT.1.1|9=65|35=0|34=540|49=HEMATRAXRTS27QA2|52=20180625-15:34:14.508|56=TRAX|10=083|8=FIXT.1.1|9=65|35=0|34=541|49=HEMATRAXRTS27QA2|52=20180625-15:34:45.501|56=TRAX|10=081|8=FIXT.1.1|9=65|35=0|34=542|49=HEMATRAXRTS27QA2|52=20180625-15:35:15.882|56=TRAX|10=092|8=FIXT.1.1|9=65|35=0|34=543|49=HEMATRAXRTS27QA2|52=20180625-15:35:46.495|56=TRAX|10=097|8=FIXT.1.1|9=65|35=0|34=544|49=HEMATRAXRTS27QA2|52=20180625-15:36:16.495|56=TRAX|10=096|8=FIXT.1.1|9=65|35=0|34=545|49=HEMATRAXRTS27QA2|52=20180625-15:36:46.502|56=TRAX|10=089|8=FIXT.1.1|9=65|35=0|34=546|49=HEMATRAXRTS27QA2|52=20180625-15:37:17.501|56=TRAX|10=088|8=FIXT.1.1|9=65|35=0|34=547|49=HEMATRAXRTS27QA2|52=20180625-15:37:48.494|56=TRAX|10=104|8=FIXT.1.1|9=65|35=0|34=548|49=HEMATRAXRTS27QA2|52=20180625-15:38:18.494|56=TRAX|10=103|8=FIXT.1.1|9=65|35=0|34=549|49=HEMATRAXRTS27QA2|52=20180625-15:38:48.507|56=TRAX|10=102|8=FIXT.1.1|9=65|35=0|34=550|49=HEMATRAXRTS27QA2|52=20180625-15:39:19.498|56=TRAX|10=102|8=FIXT.1.1|9=65|35=0|34=551|49=HEMATRAXRTS27QA2|52=20180625-15:39:49.500|56=TRAX|10=090|8=FIXT.1.1|9=65|35=0|34=552|49=HEMATRAXRTS27QA2|52=20180625-15:40:19.505|56=TRAX|10=085|8=FIXT.1.1|9=65|35=0|34=553|49=HEMATRAXRTS27QA2|52=20180625-15:40:50.499|56=TRAX|10=093|8=FIXT.1.1|9=65|35=0|34=554|49=HEMATRAXRTS27QA2|52=20180625-15:41:20.499|56=TRAX|10=092|8=FIXT.1.1|9=65|35=0|34=555|49=HEMATRAXRTS27QA2|52=20180625-15:41:51.498|56=TRAX|10=096|8=FIXT.1.1|9=65|35=0|34=556|49=HEMATRAXRTS27QA2|52=20180625-15:42:21.498|56=TRAX|10=095|8=FIXT.1.1|9=65|35=0|34=557|49=HEMATRAXRTS27QA2|52=20180625-15:42:52.490|56=TRAX|10=092|8=FIXT.1.1|9=65|35=0|34=558|49=HEMATRAXRTS27QA2|52=20180625-15:43:23.493|56=TRAX|10=095|8=FIXT.1.1|9=65|35=0|34=559|49=HEMATRAXRTS27QA2|52=20180625-15:43:53.496|56=TRAX|10=102|8=FIXT.1.1|9=65|35=0|34=560|49=HEMATRAXRTS27QA2|52=20180625-15:44:24.493|56=TRAX|10=090|8=FIXT.1.1|9=65|35=0|34=561|49=HEMATRAXRTS27QA2|52=20180625-15:44:55.500|56=TRAX|10=084|8=FIXT.1.1|9=65|35=0|34=562|49=HEMATRAXRTS27QA2|52=20180625-15:45:26.500|56=TRAX|10=084|8=FIXT.1.1|9=65|35=0|34=563|49=HEMATRAXRTS27QA2|52=20180625-15:45:56.501|56=TRAX|10=089|8=FIXT.1.1|9=65|35=0|34=564|49=HEMATRAXRTS27QA2|52=20180625-15:46:27.494|56=TRAX|10=100|8=FIXT.1.1|9=65|35=0|34=565|49=HEMATRAXRTS27QA2|52=20180625-15:46:58.501|56=TRAX|10=094|8=FIXT.1.1|9=65|35=0|34=566|49=HEMATRAXRTS27QA2|52=20180625-15:47:29.495|56=TRAX|10=106|8=FIXT.1.1|9=65|35=0|34=567|49=HEMATRAXRTS27QA2|52=20180625-15:47:59.501|56=TRAX|10=098|8=FIXT.1.1|9=65|35=0|34=568|49=HEMATRAXRTS27QA2|52=20180625-15:48:30.497|56=TRAX|10=103|8=FIXT.1.1|9=65|35=0|34=569|49=HEMATRAXRTS27QA2|52=20180625-15:49:01.492|56=TRAX|10=098|8=FIXT.1.1|9=65|35=0|34=570|49=HEMATRAXRTS27QA2|52=20180625-15:49:31.494|56=TRAX|10=095|8=FIXT.1.1|9=65|35=0|34=571|49=HEMATRAXRTS27QA2|52=20180625-15:50:02.488|56=TRAX|10=089|8=FIXT.1.1|9=65|35=0|34=572|49=HEMATRAXRTS27QA2|52=20180625-15:50:32.490|56=TRAX|10=086|8=FIXT.1.1|9=65|35=0|34=573|49=HEMATRAXRTS27QA2|52=20180625-15:51:02.492|56=TRAX|10=087|8=FIXT.1.1|9=65|35=0|34=574|49=HEMATRAXRTS27QA2|52=20180625-15:51:32.498|56=TRAX|10=097|8=FIXT.1.1|9=65|35=0|34=575|49=HEMATRAXRTS27QA2|52=20180625-15:52:03.497|56=TRAX|10=096|8=FIXT.1.1|9=65|35=0|34=576|49=HEMATRAXRTS27QA2|52=20180625-15:52:34.494|56=TRAX|10=098|8=FIXT.1.1|9=65|35=0|34=577|49=HEMATRAXRTS27QA2|52=20180625-15:53:05.491|56=TRAX|10=095|8=FIXT.1.1|9=65|35=0|34=578|49=HEMATRAXRTS27QA2|52=20180625-15:53:35.494|56=TRAX|10=102|8=FIXT.1.1|9=65|35=0|34=579|49=HEMATRAXRTS27QA2|52=20180625-15:54:06.483|56=TRAX|10=100|8=FIXT.1.1|9=65|35=0|34=580|49=HEMATRAXRTS27QA2|52=20180625-15:54:36.483|56=TRAX|10=095|8=FIXT.1.1|9=65|35=0|34=581|49=HEMATRAXRTS27QA2|52=20180625-15:55:06.488|56=TRAX|10=099|8=FIXT.1.1|9=65|35=0|34=582|49=HEMATRAXRTS27QA2|52=20180625-15:55:36.489|56=TRAX|10=104|8=FIXT.1.1|9=65|35=0|34=583|49=HEMATRAXRTS27QA2|52=20180625-15:56:07.493|56=TRAX|10=099|8=FIXT.1.1|9=65|35=0|34=584|49=HEMATRAXRTS27QA2|52=20180625-15:56:38.493|56=TRAX|10=104|8=FIXT.1.1|9=65|35=0|34=585|49=HEMATRAXRTS27QA2|52=20180625-15:57:09.494|56=TRAX|10=105|8=FIXT.1.1|9=65|35=0|34=586|49=HEMATRAXRTS27QA2|52=20180625-15:57:40.479|56=TRAX|10=104|8=FIXT.1.1|9=65|35=0|34=587|49=HEMATRAXRTS27QA2|52=20180625-15:58:10.483|56=TRAX|10=098|8=FIXT.1.1|9=65|35=0|34=588|49=HEMATRAXRTS27QA2|52=20180625-15:58:41.486|56=TRAX|10=106|8=FIXT.1.1|9=65|35=0|34=589|49=HEMATRAXRTS27QA2|52=20180625-15:59:12.481|56=TRAX|10=101|8=FIXT.1.1|9=65|35=0|34=590|49=HEMATRAXRTS27QA2|52=20180625-15:59:42.488|56=TRAX|10=103|8=FIXT.1.1|9=65|35=0|34=591|49=HEMATRAXRTS27QA2|52=20180625-16:00:13.490|56=TRAX|10=082|8=FIXT.1.1|9=65|35=0|34=592|49=HEMATRAXRTS27QA2|52=20180625-16:00:43.491|56=TRAX|10=087|8=FIXT.1.1|9=65|35=0|34=593|49=HEMATRAXRTS27QA2|52=20180625-16:01:14.486|56=TRAX|10=091|8=FIXT.1.1|9=65|35=0|34=594|49=HEMATRAXRTS27QA2|52=20180625-16:01:45.491|56=TRAX|10=092|8=FIXT.1.1|9=65|35=0|34=595|49=HEMATRAXRTS27QA2|52=20180625-16:02:16.490|56=TRAX|10=091|8=FIXT.1.1|9=65|35=0|34=596|49=HEMATRAXRTS27QA2|52=20180625-16:02:46.868|56=TRAX|10=104|8=FIXT.1.1|9=65|35=0|34=597|49=HEMATRAXRTS27QA2|52=20180625-16:03:16.868|56=TRAX|10=103|8=FIXT.1.1|9=65|35=0|34=598|49=HEMATRAXRTS27QA2|52=20180625-16:03:47.488|56=TRAX|10=106|8=FIXT.1.1|9=65|35=0|34=599|49=HEMATRAXRTS27QA2|52=20180625-16:04:18.484|56=TRAX|10=102|8=FIXT.1.1|9=65|35=0|34=600|49=HEMATRAXRTS27QA2|52=20180625-16:04:49.481|56=TRAX|10=086|8=FIXT.1.1|9=65|35=0|34=601|49=HEMATRAXRTS27QA2|52=20180625-16:05:20.484|56=TRAX|10=080|8=FIXT.1.1|9=65|35=0|34=602|49=HEMATRAXRTS27QA2|52=20180625-16:05:50.487|56=TRAX|10=087|8=FIXT.1.1|9=65|35=0|34=603|49=HEMATRAXRTS27QA2|52=20180625-16:06:20.487|56=TRAX|10=086|8=FIXT.1.1|9=65|35=0|34=604|49=HEMATRAXRTS27QA2|52=20180625-16:06:51.476|56=TRAX|10=089|8=FIXT.1.1|9=65|35=0|34=605|49=HEMATRAXRTS27QA2|52=20180625-16:07:21.483|56=TRAX|10=086|8=FIXT.1.1|9=65|35=0|34=606|49=HEMATRAXRTS27QA2|52=20180625-16:07:51.485|56=TRAX|10=092|8=FIXT.1.1|9=65|35=0|34=607|49=HEMATRAXRTS27QA2|52=20180625-16:08:21.487|56=TRAX|10=093|8=FIXT.1.1|9=65|35=0|34=608|49=HEMATRAXRTS27QA2|52=20180625-16:08:52.475|56=TRAX|10=095|8=FIXT.1.1|9=65|35=0|34=609|49=HEMATRAXRTS27QA2|52=20180625-16:09:22.486|56=TRAX|10=096|8=FIXT.1.1|9=65|35=0|34=610|49=HEMATRAXRTS27QA2|52=20180625-16:09:53.482|56=TRAX|10=088|8=FIXT.1.1|9=65|35=0|34=611|49=HEMATRAXRTS27QA2|52=20180625-16:10:23.487|56=TRAX|10=083|8=FIXT.1.1|9=65|35=0|34=612|49=HEMATRAXRTS27QA2|52=20180625-16:10:54.481|56=TRAX|10=082|8=FIXT.1.1|9=65|35=0|34=613|49=HEMATRAXRTS27QA2|52=20180625-16:11:25.481|56=TRAX|10=082|8=FIXT.1.1|9=65|35=0|34=614|49=HEMATRAXRTS27QA2|52=20180625-16:11:56.480|56=TRAX|10=086|8=FIXT.1.1|9=65|35=0|34=615|49=HEMATRAXRTS27QA2|52=20180625-16:12:27.476|56=TRAX|10=091|8=FIXT.1.1|9=65|35=0|34=616|49=HEMATRAXRTS27QA2|52=20180625-16:12:57.478|56=TRAX|10=097|8=FIXT.1.1|9=65|35=0|34=617|49=HEMATRAXRTS27QA2|52=20180625-16:13:27.485|56=TRAX|10=094|8=FIXT.1.1|9=65|35=0|34=618|49=HEMATRAXRTS27QA2|52=20180625-16:13:58.477|56=TRAX|10=100|8=FIXT.1.1|9=65|35=0|34=619|49=HEMATRAXRTS27QA2|52=20180625-16:14:29.480|56=TRAX|10=094|8=FIXT.1.1|9=65|35=0|34=620|49=HEMATRAXRTS27QA2|52=20180625-16:14:59.483|56=TRAX|10=092|8=FIXT.1.1|9=65|35=0|34=621|49=HEMATRAXRTS27QA2|52=20180625-16:15:30.476|56=TRAX|10=085|8=FIXT.1.1|9=65|35=0|34=622|49=HEMATRAXRTS27QA2|52=20180625-16:16:00.481|56=TRAX|10=080|8=FIXT.1.1|9=65|35=0|34=623|49=HEMATRAXRTS27QA2|52=20180625-16:16:30.486|56=TRAX|10=089|8=FIXT.1.1|9=65|35=0|34=624|49=HEMATRAXRTS27QA2|52=20180625-16:17:01.479|56=TRAX|10=091|8=FIXT.1.1|9=65|35=0|34=625|49=HEMATRAXRTS27QA2|52=20180625-16:17:31.486|56=TRAX|10=093|8=FIXT.1.1|9=65|35=0|34=626|49=HEMATRAXRTS27QA2|52=20180625-16:18:02.476|56=TRAX|10=092|8=FIXT.1.1|9=65|35=0|34=627|49=HEMATRAXRTS27QA2|52=20180625-16:18:32.485|56=TRAX|10=096|8=FIXT.1.1|9=65|35=0|34=628|49=HEMATRAXRTS27QA2|52=20180625-16:19:03.479|56=TRAX|10=099|8=FIXT.1.1|9=65|35=0|34=629|49=HEMATRAXRTS27QA2|52=20180625-16:19:34.478|56=TRAX|10=103|8=FIXT.1.1|9=65|35=0|34=630|49=HEMATRAXRTS27QA2|52=20180625-16:20:05.478|56=TRAX|10=085|8=FIXT.1.1|9=65|35=0|34=631|49=HEMATRAXRTS27QA2|52=20180625-16:20:35.482|56=TRAX|10=084|8=FIXT.1.1|9=65|35=0|34=632|49=HEMATRAXRTS27QA2|52=20180625-16:21:06.483|56=TRAX|10=085|8=FIXT.1.1|9=65|35=0|34=633|49=HEMATRAXRTS27QA2|52=20180625-16:21:37.477|56=TRAX|10=093|8=FIXT.1.1|9=65|35=0|34=634|49=HEMATRAXRTS27QA2|52=20180625-16:22:07.478|56=TRAX|10=093|8=FIXT.1.1|9=65|35=0|34=635|49=HEMATRAXRTS27QA2|52=20180625-16:22:38.477|56=TRAX|10=097|8=FIXT.1.1|9=65|35=0|34=636|49=HEMATRAXRTS27QA2|52=20180625-16:23:09.478|56=TRAX|10=098|8=FIXT.1.1|9=65|35=0|34=637|49=HEMATRAXRTS27QA2|52=20180625-16:23:39.484|56=TRAX|10=099|8=FIXT.1.1|9=65|35=0|34=638|49=HEMATRAXRTS27QA2|52=20180625-16:24:10.471|56=TRAX|10=086|8=FIXT.1.1|9=65|35=0|34=639|49=HEMATRAXRTS27QA2|52=20180625-16:24:40.482|56=TRAX|10=092|8=FIXT.1.1|9=65|35=0|34=640|49=HEMATRAXRTS27QA2|52=20180625-16:25:11.478|56=TRAX|10=088|8=FIXT.1.1|9=65|35=0|34=641|49=HEMATRAXRTS27QA2|52=20180625-16:25:42.477|56=TRAX|10=092|8=FIXT.1.1|9=65|35=0|34=642|49=HEMATRAXRTS27QA2|52=20180625-16:26:13.475|56=TRAX|10=090|8=FIXT.1.1|9=65|35=0|34=643|49=HEMATRAXRTS27QA2|52=20180625-16:26:44.478|56=TRAX|10=098|8=FIXT.1.1|9=65|35=0|34=644|49=HEMATRAXRTS27QA2|52=20180625-16:27:14.482|56=TRAX|10=092|8=FIXT.1.1|9=65|35=0|34=645|49=HEMATRAXRTS27QA2|52=20180625-16:27:45.475|56=TRAX|10=099|8=FIXT.1.1|9=65|35=0|34=646|49=HEMATRAXRTS27QA2|52=20180625-16:28:16.476|56=TRAX|10=100|8=FIXT.1.1|9=65|35=0|34=647|49=HEMATRAXRTS27QA2|52=20180625-16:28:46.482|56=TRAX|10=101|8=FIXT.1.1|9=65|35=0|34=648|49=HEMATRAXRTS27QA2|52=20180625-16:29:16.859|56=TRAX|10=108|8=FIXT.1.1|9=65|35=0|34=649|49=HEMATRAXRTS27QA2|52=20180625-16:29:47.467|56=TRAX|10=108|8=FIXT.1.1|9=65|35=0|34=650|49=HEMATRAXRTS27QA2|52=20180625-16:30:17.474|56=TRAX|10=087|8=FIXT.1.1|9=65|35=0|34=651|49=HEMATRAXRTS27QA2|52=20180625-16:30:47.480|56=TRAX|10=088|8=FIXT.1.1|9=65|35=0|34=652|49=HEMATRAXRTS27QA2|52=20180625-16:31:18.480|56=TRAX|10=088|8=FIXT.1.1|9=65|35=0|34=653|49=HEMATRAXRTS27QA2|52=20180625-16:31:49.473|56=TRAX|10=095|8=FIXT.1.1|9=65|35=0|34=654|49=HEMATRAXRTS27QA2|52=20180625-16:32:19.474|56=TRAX|10=095|8=FIXT.1.1|9=65|35=0|34=655|49=HEMATRAXRTS27QA2|52=20180625-16:32:50.473|56=TRAX|10=090|8=FIXT.1.1|9=65|35=0|34=656|49=HEMATRAXRTS27QA2|52=20180625-16:33:20.479|56=TRAX|10=095|8=FIXT.1.1|9=65|35=0|34=657|49=HEMATRAXRTS27QA2|52=20180625-16:33:51.466|56=TRAX|10=096|8=FIXT.1.1|9=65|35=0|34=658|49=HEMATRAXRTS27QA2|52=20180625-16:34:21.472|56=TRAX|10=092|8=FIXT.1.1|9=65|35=0|34=659|49=HEMATRAXRTS27QA2|52=20180625-16:34:52.469|56=TRAX|10=103|8=FIXT.1.1|9=65|35=0|34=660|49=HEMATRAXRTS27QA2|52=20180625-16:35:22.474|56=TRAX|10=089|8=FIXT.1.1|9=65|35=0|34=661|49=HEMATRAXRTS27QA2|52=20180625-16:35:53.472|56=TRAX|10=092|8=FIXT.1.1|9=65|35=0|34=662|49=HEMATRAXRTS27QA2|52=20180625-16:36:24.472|56=TRAX|10=092|8=FIXT.1.1|9=65|35=0|34=663|49=HEMATRAXRTS27QA2|52=20180625-16:36:54.472|56=TRAX|10=096|8=FIXT.1.1|9=65|35=0|34=664|49=HEMATRAXRTS27QA2|52=20180625-16:37:25.477|56=TRAX|10=101|8=FIXT.1.1|9=65|35=0|34=665|49=HEMATRAXRTS27QA2|52=20180625-16:37:56.464|56=TRAX|10=102|8=FIXT.1.1|9=65|35=0|34=666|49=HEMATRAXRTS27QA2|52=20180625-16:38:26.478|56=TRAX|10=106|8=FIXT.1.1|9=65|35=0|34=667|49=HEMATRAXRTS27QA2|52=20180625-16:38:57.471|56=TRAX|10=104|8=FIXT.1.1|9=65|35=0|34=668|49=HEMATRAXRTS27QA2|52=20180625-16:39:28.473|56=TRAX|10=106|8=FIXT.1.1|9=65|35=0|34=669|49=HEMATRAXRTS27QA2|52=20180625-16:39:59.463|56=TRAX|10=110|8=FIXT.1.1|9=65|35=0|34=670|49=HEMATRAXRTS27QA2|52=20180625-16:40:29.470|56=TRAX|10=089|8=FIXT.1.1|9=65|35=0|34=671|49=HEMATRAXRTS27QA2|52=20180625-16:40:59.471|56=TRAX|10=094|8=FIXT.1.1|9=65|35=0|34=672|49=HEMATRAXRTS27QA2|52=20180625-16:41:30.477|56=TRAX|10=091|8=FIXT.1.1|9=65|35=0|34=673|49=HEMATRAXRTS27QA2|52=20180625-16:42:00.478|56=TRAX|10=091|8=FIXT.1.1|9=65|35=0|34=674|49=HEMATRAXRTS27QA2|52=20180625-16:42:31.469|56=TRAX|10=096|8=FIXT.1.1|9=65|35=0|34=675|49=HEMATRAXRTS27QA2|52=20180625-16:43:01.471|56=TRAX|10=088|8=FIXT.1.1|9=65|35=0|34=676|49=HEMATRAXRTS27QA2|52=20180625-16:43:32.476|56=TRAX|10=098|8=FIXT.1.1|9=65|35=0|34=677|49=HEMATRAXRTS27QA2|52=20180625-16:44:03.465|56=TRAX|10=096|8=FIXT.1.1|9=65|35=0|34=678|49=HEMATRAXRTS27QA2|52=20180625-16:44:33.470|56=TRAX|10=096|8=FIXT.1.1|9=65|35=0|34=679|49=HEMATRAXRTS27QA2|52=20180625-16:45:03.477|56=TRAX|10=102|8=FIXT.1.1|9=65|35=0|34=680|49=HEMATRAXRTS27QA2|52=20180625-16:45:34.474|56=TRAX|10=095|8=FIXT.1.1|9=65|35=0|34=681|49=HEMATRAXRTS27QA2|52=20180625-16:46:04.475|56=TRAX|10=095|8=FIXT.1.1|9=65|35=0|34=682|49=HEMATRAXRTS27QA2|52=20180625-16:46:34.477|56=TRAX|10=101|8=FIXT.1.1|9=65|35=0|34=683|49=HEMATRAXRTS27QA2|52=20180625-16:47:05.470|56=TRAX|10=094|8=FIXT.1.1|9=65|35=0|34=684|49=HEMATRAXRTS27QA2|52=20180625-16:47:36.462|56=TRAX|10=100|8=FIXT.1.1|9=65|35=0|34=685|49=HEMATRAXRTS27QA2|52=20180625-16:48:06.471|56=TRAX|10=099|8=FIXT.1.1|9=65|35=0|34=686|49=HEMATRAXRTS27QA2|52=20180625-16:48:37.469|56=TRAX|10=111|8=FIXT.1.1|9=65|35=0|34=687|49=HEMATRAXRTS27QA2|52=20180625-16:49:07.469|56=TRAX|10=110|8=FIXT.1.1|9=65|35=0|34=688|49=HEMATRAXRTS27QA2|52=20180625-16:49:38.473|56=TRAX|10=110|8=FIXT.1.1|9=65|35=0|34=689|49=HEMATRAXRTS27QA2|52=20180625-16:50:09.469|56=TRAX|10=106|8=FIXT.1.1|9=65|35=0|34=690|49=HEMATRAXRTS27QA2|52=20180625-16:50:39.474|56=TRAX|10=097|8=FIXT.1.1|9=65|35=0|34=691|49=HEMATRAXRTS27QA2|52=20180625-16:51:10.468|56=TRAX|10=091|8=FIXT.1.1|9=65|35=0|34=692|49=HEMATRAXRTS27QA2|52=20180625-16:51:41.467|56=TRAX|10=095|8=FIXT.1.1|9=65|35=0|34=693|49=HEMATRAXRTS27QA2|52=20180625-16:52:11.475|56=TRAX|10=093|8=FIXT.1.1|9=65|35=0|34=694|49=HEMATRAXRTS27QA2|52=20180625-16:52:42.475|56=TRAX|10=098|8=FIXT.1.1|9=65|35=0|34=695|49=HEMATRAXRTS27QA2|52=20180625-16:53:13.467|56=TRAX|10=099|8=FIXT.1.1|9=65|35=0|34=696|49=HEMATRAXRTS27QA2|52=20180625-16:53:44.468|56=TRAX|10=105|8=FIXT.1.1|9=65|35=0|34=697|49=HEMATRAXRTS27QA2|52=20180625-16:54:15.462|56=TRAX|10=099|8=FIXT.1.1|9=65|35=0|34=698|49=HEMATRAXRTS27QA2|52=20180625-16:54:45.468|56=TRAX|10=109|8=FIXT.1.1|9=65|35=0|34=699|49=HEMATRAXRTS27QA2|52=20180625-16:55:15.469|56=TRAX|10=109|8=FIXT.1.1|9=65|35=0|34=700|49=HEMATRAXRTS27QA2|52=20180625-16:55:46.466|56=TRAX|10=093|8=FIXT.1.1|9=65|35=0|34=701|49=HEMATRAXRTS27QA2|52=20180625-16:56:16.466|56=TRAX|10=092|8=FIXT.1.1|9=65|35=0|34=702|49=HEMATRAXRTS27QA2|52=20180625-16:56:46.862|56=TRAX|10=096|8=FIXT.1.1|9=65|35=0|34=703|49=HEMATRAXRTS27QA2|52=20180625-16:57:16.862|56=TRAX|10=095|8=FIXT.1.1|9=65|35=0|34=704|49=HEMATRAXRTS27QA2|52=20180625-16:57:46.865|56=TRAX|10=102|8=FIXT.1.1|9=65|35=0|34=705|49=HEMATRAXRTS27QA2|52=20180625-16:58:16.871|56=TRAX|10=098|8=FIXT.1.1|9=65|35=0|34=706|49=HEMATRAXRTS27QA2|52=20180625-16:58:46.871|56=TRAX|10=102|8=FIXT.1.1|9=65|35=0|34=707|49=HEMATRAXRTS27QA2|52=20180625-16:59:17.461|56=TRAX|10=097|8=FIXT.1.1|9=65|35=0|34=708|49=HEMATRAXRTS27QA2|52=20180625-16:59:47.465|56=TRAX|10=105|8=FIXT.1.1|9=65|35=0|34=709|49=HEMATRAXRTS27QA2|52=20180625-17:00:17.465|56=TRAX|10=090|8=FIXT.1.1|9=65|35=0|34=710|49=HEMATRAXRTS27QA2|52=20180625-17:00:47.468|56=TRAX|10=088|8=FIXT.1.1|9=65|35=0|34=711|49=HEMATRAXRTS27QA2|52=20180625-17:01:18.457|56=TRAX|10=086|8=FIXT.1.1|9=65|35=0|34=712|49=HEMATRAXRTS27QA2|52=20180625-17:01:48.472|56=TRAX|10=087|8=FIXT.1.1|9=65|35=0|34=713|49=HEMATRAXRTS27QA2|52=20180625-17:02:19.011|56=TRAX|10=076|8=FIXT.1.1|9=65|35=0|34=714|49=HEMATRAXRTS27QA2|52=20180625-17:02:49.464|56=TRAX|10=092|8=FIXT.1.1|9=65|35=0|34=715|49=HEMATRAXRTS27QA2|52=20180625-17:03:19.466|56=TRAX|10=093|8=FIXT.1.1|9=65|35=0|34=716|49=HEMATRAXRTS27QA2|52=20180625-17:03:50.072|56=TRAX|10=082|8=FIXT.1.1|9=65|35=0|34=717|49=HEMATRAXRTS27QA2|52=20180625-17:04:20.458|56=TRAX|10=089|8=FIXT.1.1|9=65|35=0|34=718|49=HEMATRAXRTS27QA2|52=20180625-17:04:50.466|56=TRAX|10=092|8=FIXT.1.1|9=65|35=0|34=719|49=HEMATRAXRTS27QA2|52=20180625-17:05:20.874|56=TRAX|10=094|8=FIXT.1.1|9=65|35=0|34=720|49=HEMATRAXRTS27QA2|52=20180625-17:05:51.456|56=TRAX|10=086|8=FIXT.1.1|9=65|35=0|34=721|49=HEMATRAXRTS27QA2|52=20180625-17:06:21.463|56=TRAX|10=083|8=FIXT.1.1|9=65|35=0|34=722|49=HEMATRAXRTS27QA2|52=20180625-17:06:51.468|56=TRAX|10=092|8=FIXT.1.1|9=65|35=0|34=723|49=HEMATRAXRTS27QA2|52=20180625-17:07:22.469|56=TRAX|10=093|8=FIXT.1.1|9=65|35=0|34=724|49=HEMATRAXRTS27QA2|52=20180625-17:07:53.463|56=TRAX|10=092|8=FIXT.1.1|9=65|35=0|34=725|49=HEMATRAXRTS27QA2|52=20180625-17:08:23.467|56=TRAX|10=095|8=FIXT.1.1|9=65|35=0|34=726|49=HEMATRAXRTS27QA2|52=20180625-17:08:54.461|56=TRAX|10=094|8=FIXT.1.1|9=65|35=0|34=727|49=HEMATRAXRTS27QA2|52=20180625-17:09:25.468|56=TRAX|10=101|8=FIXT.1.1|9=65|35=0|34=728|49=HEMATRAXRTS27QA2|52=20180625-17:09:56.461|56=TRAX|10=099|8=FIXT.1.1|9=65|35=0|34=729|49=HEMATRAXRTS27QA2|52=20180625-17:10:26.461|56=TRAX|10=089|8=FIXT.1.1|9=65|35=0|34=730|49=HEMATRAXRTS27QA2|52=20180625-17:10:56.468|56=TRAX|10=091|8=FIXT.1.1|9=65|35=0|34=731|49=HEMATRAXRTS27QA2|52=20180625-17:11:27.463|56=TRAX|10=086|8=FIXT.1.1|9=65|35=0|34=732|49=HEMATRAXRTS27QA2|52=20180625-17:11:58.461|56=TRAX|10=089|8=FIXT.1.1|9=65|35=0|34=733|49=HEMATRAXRTS27QA2|52=20180625-17:12:29.460|56=TRAX|10=088|8=FIXT.1.1|9=65|35=0|34=734|49=HEMATRAXRTS27QA2|52=20180625-17:13:00.460|56=TRAX|10=079|8=FIXT.1.1|9=65|35=0|34=735|49=HEMATRAXRTS27QA2|52=20180625-17:13:31.452|56=TRAX|10=085|8=FIXT.1.1|9=65|35=0|34=736|49=HEMATRAXRTS27QA2|52=20180625-17:14:01.456|56=TRAX|10=088|8=FIXT.1.1|9=65|35=0|34=737|49=HEMATRAXRTS27QA2|52=20180625-17:14:32.459|56=TRAX|10=096|8=FIXT.1.1|9=65|35=0|34=738|49=HEMATRAXRTS27QA2|52=20180625-17:15:02.464|56=TRAX|10=091|8=FIXT.1.1|9=65|35=0|34=739|49=HEMATRAXRTS27QA2|52=20180625-17:15:33.459|56=TRAX|10=100|8=FIXT.1.1|9=65|35=0|34=740|49=HEMATRAXRTS27QA2|52=20180625-17:16:03.466|56=TRAX|10=088|8=FIXT.1.1|9=65|35=0|34=741|49=HEMATRAXRTS27QA2|52=20180625-17:16:34.461|56=TRAX|10=088|8=FIXT.1.1|9=65|35=0|34=742|49=HEMATRAXRTS27QA2|52=20180625-17:17:05.458|56=TRAX|10=094|8=FIXT.1.1|9=65|35=0|34=743|49=HEMATRAXRTS27QA2|52=20180625-17:17:35.465|56=TRAX|10=096|8=FIXT.1.1|9=65|35=0|34=744|49=HEMATRAXRTS27QA2|52=20180625-17:18:06.450|56=TRAX|10=090|8=FIXT.1.1|9=65|35=0|34=745|49=HEMATRAXRTS27QA2|52=20180625-17:18:36.465|56=TRAX|10=100|8=FIXT.1.1|9=65|35=0|34=746|49=HEMATRAXRTS27QA2|52=20180625-17:19:07.465|56=TRAX|10=100|8=FIXT.1.1|9=65|35=0|34=747|49=HEMATRAXRTS27QA2|52=20180625-17:19:38.465|56=TRAX|10=105|8=FIXT.1.1|9=65|35=0|34=748|49=HEMATRAXRTS27QA2|52=20180625-17:20:09.457|56=TRAX|10=097|8=FIXT.1.1|9=65|35=0|34=749|49=HEMATRAXRTS27QA2|52=20180625-17:20:39.459|56=TRAX|10=103|8=FIXT.1.1|9=65|35=0|34=750|49=HEMATRAXRTS27QA2|52=20180625-17:21:10.450|56=TRAX|10=076|8=FIXT.1.1|9=65|35=0|34=751|49=HEMATRAXRTS27QA2|52=20180625-17:21:40.462|56=TRAX|10=083|8=FIXT.1.1|9=65|35=0|34=752|49=HEMATRAXRTS27QA2|52=20180625-17:22:11.455|56=TRAX|10=085|8=FIXT.1.1|9=65|35=0|34=753|49=HEMATRAXRTS27QA2|52=20180625-17:22:41.456|56=TRAX|10=090|8=FIXT.1.1|9=65|35=0|34=754|49=HEMATRAXRTS27QA2|52=20180625-17:23:11.460|56=TRAX|10=084|8=FIXT.1.1|9=65|35=0|34=755|49=HEMATRAXRTS27QA2|52=20180625-17:23:42.451|56=TRAX|10=089|8=FIXT.1.1|9=65|35=0|34=756|49=HEMATRAXRTS27QA2|52=20180625-17:24:13.452|56=TRAX|10=090|8=FIXT.1.1|9=65|35=0|34=757|49=HEMATRAXRTS27QA2|52=20180625-17:24:43.458|56=TRAX|10=100|8=FIXT.1.1|9=65|35=0|34=758|49=HEMATRAXRTS27QA2|52=20180625-17:25:14.458|56=TRAX|10=100|8=FIXT.1.1|9=65|35=0|34=759|49=HEMATRAXRTS27QA2|52=20180625-17:25:44.460|56=TRAX|10=097|8=FIXT.1.1|9=65|35=0|34=760|49=HEMATRAXRTS27QA2|52=20180625-17:26:14.461|56=TRAX|10=088|8=FIXT.1.1|9=65|35=0|34=761|49=HEMATRAXRTS27QA2|52=20180625-17:26:45.454|56=TRAX|10=095|8=FIXT.1.1|9=65|35=0|34=762|49=HEMATRAXRTS27QA2|52=20180625-17:27:15.461|56=TRAX|10=092|8=FIXT.1.1|9=65|35=0|34=763|49=HEMATRAXRTS27QA2|52=20180625-17:27:46.452|56=TRAX|10=097|8=FIXT.1.1|9=65|35=0|34=764|49=HEMATRAXRTS27QA2|52=20180625-17:28:16.458|56=TRAX|10=102|8=FIXT.1.1|9=65|35=0|34=765|49=HEMATRAXRTS27QA2|52=20180625-17:28:46.458|56=TRAX|10=106|8=FIXT.1.1|9=65|35=0|34=766|49=HEMATRAXRTS27QA2|52=20180625-17:29:17.454|56=TRAX|10=102|8=FIXT.1.1|9=65|35=0|34=767|49=HEMATRAXRTS27QA2|52=20180625-17:29:48.452|56=TRAX|10=105|8=FIXT.1.1|9=65|35=0|34=768|49=HEMATRAXRTS27QA2|52=20180625-17:30:18.452|56=TRAX|10=095|8=FIXT.1.1|9=65|35=0|34=769|49=HEMATRAXRTS27QA2|52=20180625-17:30:48.453|56=TRAX|10=100|8=FIXT.1.1|9=65|35=0|34=770|49=HEMATRAXRTS27QA2|52=20180625-17:31:19.453|56=TRAX|10=091|8=FIXT.1.1|9=65|35=0|34=771|49=HEMATRAXRTS27QA2|52=20180625-17:31:49.454|56=TRAX|10=096|8=FIXT.1.1|9=65|35=0|34=772|49=HEMATRAXRTS27QA2|52=20180625-17:32:20.458|56=TRAX|10=091|8=FIXT.1.1|9=65|35=0|34=773|49=HEMATRAXRTS27QA2|52=20180625-17:32:50.459|56=TRAX|10=096|8=FIXT.1.1|9=65|35=0|34=774|49=HEMATRAXRTS27QA2|52=20180625-17:33:21.452|56=TRAX|10=089|8=FIXT.1.1|9=65|35=0|34=775|49=HEMATRAXRTS27QA2|52=20180625-17:33:52.453|56=TRAX|10=095|8=FIXT.1.1|9=65|35=0|34=776|49=HEMATRAXRTS27QA2|52=20180625-17:34:22.857|56=TRAX|10=102|8=FIXT.1.1|9=65|35=0|34=777|49=HEMATRAXRTS27QA2|52=20180625-17:34:52.865|56=TRAX|10=105|8=FIXT.1.1|9=65|35=0|34=778|49=HEMATRAXRTS27QA2|52=20180625-17:35:23.457|56=TRAX|10=102|8=FIXT.1.1|9=65|35=0|34=779|49=HEMATRAXRTS27QA2|52=20180625-17:35:54.456|56=TRAX|10=106|8=FIXT.1.1|9=65|35=0|34=780|49=HEMATRAXRTS27QA2|52=20180625-17:36:24.458|56=TRAX|10=098|8=FIXT.1.1|9=65|35=0|34=781|49=HEMATRAXRTS27QA2|52=20180625-17:36:55.449|56=TRAX|10=103|8=FIXT.1.1|9=65|35=0|34=782|49=HEMATRAXRTS27QA2|52=20180625-17:37:26.457|56=TRAX|10=102|8=FIXT.1.1|9=65|35=0|34=783|49=HEMATRAXRTS27QA2|52=20180625-17:37:57.450|56=TRAX|10=100|8=FIXT.1.1|9=65|35=0|34=784|49=HEMATRAXRTS27QA2|52=20180625-17:38:27.454|56=TRAX|10=103|8=FIXT.1.1|9=65|35=0|34=785|49=HEMATRAXRTS27QA2|52=20180625-17:38:57.454|56=TRAX|10=107|8=FIXT.1.1|9=65|35=0|34=786|49=HEMATRAXRTS27QA2|52=20180625-17:39:28.445|56=TRAX|10=107|8=FIXT.1.1|9=65|35=0|34=787|49=HEMATRAXRTS27QA2|52=20180625-17:39:58.450|56=TRAX|10=107|8=FIXT.1.1|9=65|35=0|34=788|49=HEMATRAXRTS27QA2|52=20180625-17:40:29.449|56=TRAX|10=106|8=FIXT.1.1|9=65|35=0|34=789|49=HEMATRAXRTS27QA2|52=20180625-17:40:59.449|56=TRAX|10=110|8=FIXT.1.1|9=65|35=0|34=790|49=HEMATRAXRTS27QA2|52=20180625-17:41:29.449|56=TRAX|10=100|8=FIXT.1.1|9=65|35=0|34=791|49=HEMATRAXRTS27QA2|52=20180625-17:41:59.449|56=TRAX|10=104|8=FIXT.1.1|9=65|35=0|34=792|49=HEMATRAXRTS27QA2|52=20180625-17:42:29.449|56=TRAX|10=103|8=FIXT.1.1|9=65|35=0|34=793|49=HEMATRAXRTS27QA2|52=20180625-17:42:59.450|56=TRAX|10=099|8=FIXT.1.1|9=65|35=0|34=794|49=HEMATRAXRTS27QA2|52=20180625-17:43:30.451|56=TRAX|10=091|8=FIXT.1.1|9=65|35=0|34=795|49=HEMATRAXRTS27QA2|52=20180625-17:44:00.452|56=TRAX|10=091|8=FIXT.1.1|9=65|35=0|34=796|49=HEMATRAXRTS27QA2|52=20180625-17:44:30.452|56=TRAX|10=095|8=FIXT.1.1|9=65|35=0|34=797|49=HEMATRAXRTS27QA2|52=20180625-17:45:01.448|56=TRAX|10=100|8=FIXT.1.1|9=65|35=0|34=798|49=HEMATRAXRTS27QA2|52=20180625-17:45:31.450|56=TRAX|10=097|8=FIXT.1.1|9=65|35=0|34=799|49=HEMATRAXRTS27QA2|52=20180625-17:46:02.441|56=TRAX|10=097|8=FIXT.1.1|9=65|35=0|34=800|49=HEMATRAXRTS27QA2|52=20180625-17:46:32.447|56=TRAX|10=089|8=FIXT.1.1|9=65|35=0|34=801|49=HEMATRAXRTS27QA2|52=20180625-17:47:02.447|56=TRAX|10=088|8=FIXT.1.1|9=65|35=0|34=802|49=HEMATRAXRTS27QA2|52=20180625-17:47:33.447|56=TRAX|10=093|8=FIXT.1.1|9=65|35=0|34=803|49=HEMATRAXRTS27QA2|52=20180625-17:48:04.443|56=TRAX|10=089|8=FIXT.1.1|9=65|35=0|34=804|49=HEMATRAXRTS27QA2|52=20180625-17:48:35.439|56=TRAX|10=099|8=FIXT.1.1|9=65|35=0|34=805|49=HEMATRAXRTS27QA2|52=20180625-17:49:05.446|56=TRAX|10=096|8=FIXT.1.1|9=65|35=0|34=806|49=HEMATRAXRTS27QA2|52=20180625-17:49:36.450|56=TRAX|10=096|8=FIXT.1.1|9=65|35=0|34=807|49=HEMATRAXRTS27QA2|52=20180625-17:50:07.452|56=TRAX|10=089|8=FIXT.1.1|9=65|35=0|34=808|49=HEMATRAXRTS27QA2|52=20180625-17:50:38.449|56=TRAX|10=100|8=FIXT.1.1|9=65|35=0|34=809|49=HEMATRAXRTS27QA2|52=20180625-17:51:09.446|56=TRAX|10=097|8=FIXT.1.1|9=65|35=0|34=810|49=HEMATRAXRTS27QA2|52=20180625-17:51:40.452|56=TRAX|10=081|8=FIXT.1.1|9=65|35=0|34=811|49=HEMATRAXRTS27QA2|52=20180625-17:52:11.443|56=TRAX|10=081|8=FIXT.1.1|9=65|35=0|34=812|49=HEMATRAXRTS27QA2|52=20180625-17:52:41.444|56=TRAX|10=086|8=FIXT.1.1|9=65|35=0|34=813|49=HEMATRAXRTS27QA2|52=20180625-17:53:12.440|56=TRAX|10=082|8=FIXT.1.1|9=65|35=0|34=814|49=HEMATRAXRTS27QA2|52=20180625-17:53:43.446|56=TRAX|10=093|8=FIXT.1.1|9=65|35=0|34=815|49=HEMATRAXRTS27QA2|52=20180625-17:54:14.450|56=TRAX|10=088|8=FIXT.1.1|9=65|35=0|34=816|49=HEMATRAXRTS27QA2|52=20180625-17:54:45.444|56=TRAX|10=096|8=FIXT.1.1|9=65|35=0|34=817|49=HEMATRAXRTS27QA2|52=20180625-17:55:15.451|56=TRAX|10=093|8=FIXT.1.1|9=65|35=0|34=818|49=HEMATRAXRTS27QA2|52=20180625-17:55:46.436|56=TRAX|10=101|8=FIXT.1.1|9=65|35=0|34=819|49=HEMATRAXRTS27QA2|52=20180625-17:56:16.444|56=TRAX|10=099|8=FIXT.1.1|9=65|35=0|34=820|49=HEMATRAXRTS27QA2|52=20180625-17:56:47.438|56=TRAX|10=098|8=FIXT.1.1|9=65|35=0|34=821|49=HEMATRAXRTS27QA2|52=20180625-17:57:17.442|56=TRAX|10=092|8=FIXT.1.1|9=65|35=0|34=822|49=HEMATRAXRTS27QA2|52=20180625-17:57:47.447|56=TRAX|10=101|8=FIXT.1.1|9=65|35=0|34=823|49=HEMATRAXRTS27QA2|52=20180625-17:58:18.442|56=TRAX|10=096|8=FIXT.1.1|9=65|35=0|34=824|49=HEMATRAXRTS27QA2|52=20180625-17:58:48.444|56=TRAX|10=102|8=FIXT.1.1|9=65|35=0|34=825|49=HEMATRAXRTS27QA2|52=20180625-17:59:19.448|56=TRAX|10=106|8=FIXT.1.1|9=65|35=0|34=826|49=HEMATRAXRTS27QA2|52=20180625-17:59:50.449|56=TRAX|10=103|8=FIXT.1.1|9=65|35=0|34=827|49=HEMATRAXRTS27QA2|52=20180625-18:00:20.450|56=TRAX|10=080|8=FIXT.1.1|9=65|35=0|34=828|49=HEMATRAXRTS27QA2|52=20180625-18:00:51.439|56=TRAX|10=092|8=FIXT.1.1|9=65|35=0|34=829|49=HEMATRAXRTS27QA2|52=20180625-18:01:21.442|56=TRAX|10=085|8=FIXT.1.1|9=65|35=0|34=830|49=HEMATRAXRTS27QA2|52=20180625-18:01:52.447|56=TRAX|10=086|8=FIXT.1.1|9=65|35=0|34=831|49=HEMATRAXRTS27QA2|52=20180625-18:02:22.857|56=TRAX|10=090|8=FIXT.1.1|9=65|35=0|34=832|49=HEMATRAXRTS27QA2|52=20180625-18:02:52.857|56=TRAX|10=094|8=FIXT.1.1|9=65|35=0|34=833|49=HEMATRAXRTS27QA2|52=20180625-18:03:22.861|56=TRAX|10=088|8=FIXT.1.1|9=65|35=0|34=834|49=HEMATRAXRTS27QA2|52=20180625-18:03:52.862|56=TRAX|10=093|8=FIXT.1.1|9=65|35=0|34=835|49=HEMATRAXRTS27QA2|52=20180625-18:04:22.863|56=TRAX|10=093|8=FIXT.1.1|9=65|35=0|34=836|49=HEMATRAXRTS27QA2|52=20180625-18:04:52.871|56=TRAX|10=096|8=FIXT.1.1|9=65|35=0|34=837|49=HEMATRAXRTS27QA2|52=20180625-18:05:23.444|56=TRAX|10=092|8=FIXT.1.1|9=65|35=0|34=838|49=HEMATRAXRTS27QA2|52=20180625-18:05:54.437|56=TRAX|10=099|8=FIXT.1.1|9=65|35=0|34=839|49=HEMATRAXRTS27QA2|52=20180625-18:06:24.438|56=TRAX|10=099|8=FIXT.1.1|9=65|35=0|34=840|49=HEMATRAXRTS27QA2|52=20180625-18:06:54.439|56=TRAX|10=095|8=FIXT.1.1|9=65|35=0|34=841|49=HEMATRAXRTS27QA2|52=20180625-18:07:24.447|56=TRAX|10=093|8=FIXT.1.1|9=65|35=0|34=842|49=HEMATRAXRTS27QA2|52=20180625-18:07:55.441|56=TRAX|10=092|8=FIXT.1.1|9=65|35=0|34=843|49=HEMATRAXRTS27QA2|52=20180625-18:08:26.438|56=TRAX|10=098|8=FIXT.1.1|9=65|35=0|34=844|49=HEMATRAXRTS27QA2|52=20180625-18:08:56.444|56=TRAX|10=099|8=FIXT.1.1|9=65|35=0|34=845|49=HEMATRAXRTS27QA2|52=20180625-18:09:27.443|56=TRAX|10=098|8=FIXT.1.1|9=65|35=0|34=846|49=HEMATRAXRTS27QA2|52=20180625-18:09:58.439|56=TRAX|10=108|8=FIXT.1.1|9=65|35=0|34=847|49=HEMATRAXRTS27QA2|52=20180625-18:10:29.438|56=TRAX|10=098|8=FIXT.1.1|9=65|35=0|34=848|49=HEMATRAXRTS27QA2|52=20180625-18:10:59.439|56=TRAX|10=103|8=FIXT.1.1|9=65|35=0|34=849|49=HEMATRAXRTS27QA2|52=20180625-18:11:30.431|56=TRAX|10=086|8=FIXT.1.1|9=65|35=0|34=850|49=HEMATRAXRTS27QA2|52=20180625-18:12:00.438|56=TRAX|10=083|8=FIXT.1.1|9=65|35=0|34=851|49=HEMATRAXRTS27QA2|52=20180625-18:12:31.444|56=TRAX|10=085|8=FIXT.1.1|9=65|35=0|34=852|49=HEMATRAXRTS27QA2|52=20180625-18:13:02.437|56=TRAX|10=087|8=FIXT.1.1|9=65|35=0|34=853|49=HEMATRAXRTS27QA2|52=20180625-18:13:33.437|56=TRAX|10=092|8=FIXT.1.1|9=65|35=0|34=854|49=HEMATRAXRTS27QA2|52=20180625-18:14:03.439|56=TRAX|10=093|8=FIXT.1.1|9=65|35=0|34=855|49=HEMATRAXRTS27QA2|52=20180625-18:14:34.432|56=TRAX|10=091|8=FIXT.1.1|9=65|35=0|34=856|49=HEMATRAXRTS27QA2|52=20180625-18:15:04.443|56=TRAX|10=092|8=FIXT.1.1|9=65|35=0|34=857|49=HEMATRAXRTS27QA2|52=20180625-18:15:35.431|56=TRAX|10=094|8=FIXT.1.1|9=65|35=0|34=858|49=HEMATRAXRTS27QA2|52=20180625-18:16:05.435|56=TRAX|10=097|8=FIXT.1.1|9=65|35=0|34=859|49=HEMATRAXRTS27QA2|52=20180625-18:16:35.439|56=TRAX|10=105|8=FIXT.1.1|9=65|35=0|34=860|49=HEMATRAXRTS27QA2|52=20180625-18:17:05.441|56=TRAX|10=088|8=FIXT.1.1|9=65|35=0|34=861|49=HEMATRAXRTS27QA2|52=20180625-18:17:36.439|56=TRAX|10=100|8=FIXT.1.1|9=65|35=0|34=862|49=HEMATRAXRTS27QA2|52=20180625-18:18:07.441|56=TRAX|10=093|8=FIXT.1.1|9=65|35=0|34=863|49=HEMATRAXRTS27QA2|52=20180625-18:18:38.427|56=TRAX|10=102|8=FIXT.1.1|9=65|35=0|34=864|49=HEMATRAXRTS27QA2|52=20180625-18:19:08.440|56=TRAX|10=096|8=FIXT.1.1|9=65|35=0|34=865|49=HEMATRAXRTS27QA2|52=20180625-18:19:39.435|56=TRAX|10=105|8=FIXT.1.1|9=65|35=0|34=866|49=HEMATRAXRTS27QA2|52=20180625-18:20:10.439|56=TRAX|10=091|8=FIXT.1.1|9=65|35=0|34=867|49=HEMATRAXRTS27QA2|52=20180625-18:20:41.434|56=TRAX|10=091|8=FIXT.1.1|9=65|35=0|34=868|49=HEMATRAXRTS27QA2|52=20180625-18:21:12.426|56=TRAX|10=092|8=FIXT.1.1|9=65|35=0|34=869|49=HEMATRAXRTS27QA2|52=20180625-18:21:42.428|56=TRAX|10=098|8=FIXT.1.1|9=65|35=0|34=870|49=HEMATRAXRTS27QA2|52=20180625-18:22:12.438|56=TRAX|10=089|8=FIXT.1.1|9=65|35=0|34=871|49=HEMATRAXRTS27QA2|52=20180625-18:22:43.429|56=TRAX|10=094|8=FIXT.1.1|9=65|35=0|34=872|49=HEMATRAXRTS27QA2|52=20180625-18:23:13.433|56=TRAX|10=088|8=FIXT.1.1|9=65|35=0|34=873|49=HEMATRAXRTS27QA2|52=20180625-18:23:44.433|56=TRAX|10=093|8=FIXT.1.1|9=65|35=0|34=874|49=HEMATRAXRTS27QA2|52=20180625-18:24:15.433|56=TRAX|10=093|8=FIXT.1.1|9=65|35=0|34=875|49=HEMATRAXRTS27QA2|52=20180625-18:24:45.433|56=TRAX|10=097|8=FIXT.1.1|9=65|35=0|34=876|49=HEMATRAXRTS27QA2|52=20180625-18:25:16.425|56=TRAX|10=098|8=FIXT.1.1|9=65|35=0|34=877|49=HEMATRAXRTS27QA2|52=20180625-18:25:46.438|56=TRAX|10=106|8=FIXT.1.1|9=65|35=0|34=878|49=HEMATRAXRTS27QA2|52=20180625-18:26:17.431|56=TRAX|10=099|8=FIXT.1.1|9=65|35=0|34=879|49=HEMATRAXRTS27QA2|52=20180625-18:26:47.437|56=TRAX|10=109|8=FIXT.1.1|9=65|35=0|34=880|49=HEMATRAXRTS27QA2|52=20180625-18:27:18.434|56=TRAX|10=097|8=FIXT.1.1|9=65|35=0|34=881|49=HEMATRAXRTS27QA2|52=20180625-18:27:49.431|56=TRAX|10=099|8=FIXT.1.1|9=65|35=0|34=882|49=HEMATRAXRTS27QA2|52=20180625-18:28:19.435|56=TRAX|10=102|8=FIXT.1.1|9=65|35=0|34=883|49=HEMATRAXRTS27QA2|52=20180625-18:28:50.437|56=TRAX|10=100|8=FIXT.1.1|9=65|35=0|34=884|49=HEMATRAXRTS27QA2|52=20180625-18:29:20.438|56=TRAX|10=100|8=FIXT.1.1|9=65|35=0|34=885|49=HEMATRAXRTS27QA2|52=20180625-18:29:50.438|56=TRAX|10=104|8=FIXT.1.1|9=65|35=0|34=886|49=HEMATRAXRTS27QA2|52=20180625-18:30:21.430|56=TRAX|10=087|8=FIXT.1.1|9=65|35=0|34=887|49=HEMATRAXRTS27QA2|52=20180625-18:30:52.431|56=TRAX|10=093|8=FIXT.1.1|9=65|35=0|34=888|49=HEMATRAXRTS27QA2|52=20180625-18:31:22.867|56=TRAX|10=105|8=FIXT.1.1|9=65|35=0|34=889|49=HEMATRAXRTS27QA2|52=20180625-18:31:53.431|56=TRAX|10=097|8=FIXT.1.1|9=65|35=0|34=890|49=HEMATRAXRTS27QA2|52=20180625-18:32:24.429|56=TRAX|10=095|8=FIXT.1.1|9=65|35=0|34=891|49=HEMATRAXRTS27QA2|52=20180625-18:32:54.432|56=TRAX|10=093|8=FIXT.1.1|9=65|35=0|34=892|49=HEMATRAXRTS27QA2|52=20180625-18:33:25.426|56=TRAX|10=096|8=FIXT.1.1|9=65|35=0|34=893|49=HEMATRAXRTS27QA2|52=20180625-18:33:55.433|56=TRAX|10=098|8=FIXT.1.1|9=65|35=0|34=894|49=HEMATRAXRTS27QA2|52=20180625-18:34:26.431|56=TRAX|10=096|8=FIXT.1.1|9=65|35=0|34=895|49=HEMATRAXRTS27QA2|52=20180625-18:34:57.429|56=TRAX|10=108|8=FIXT.1.1|9=65|35=0|34=896|49=HEMATRAXRTS27QA2|52=20180625-18:35:27.433|56=TRAX|10=102|8=FIXT.1.1|9=65|35=0|34=897|49=HEMATRAXRTS27QA2|52=20180625-18:35:58.430|56=TRAX|10=104|8=FIXT.1.1|9=65|35=0|34=898|49=HEMATRAXRTS27QA2|52=20180625-18:36:29.429|56=TRAX|10=112|8=FIXT.1.1|9=65|35=0|34=899|49=HEMATRAXRTS27QA2|52=20180625-18:37:00.429|56=TRAX|10=103|8=FIXT.1.1|9=65|35=0|34=900|49=HEMATRAXRTS27QA2|52=20180625-18:37:31.424|56=TRAX|10=085|8=FIXT.1.1|9=65|35=0|34=901|49=HEMATRAXRTS27QA2|52=20180625-18:38:01.428|56=TRAX|10=088|8=FIXT.1.1|9=65|35=0|34=902|49=HEMATRAXRTS27QA2|52=20180625-18:38:31.432|56=TRAX|10=087|8=FIXT.1.1|9=65|35=0|34=903|49=HEMATRAXRTS27QA2|52=20180625-18:39:02.431|56=TRAX|10=086|8=FIXT.1.1|9=65|35=0|34=904|49=HEMATRAXRTS27QA2|52=20180625-18:39:33.428|56=TRAX|10=097|8=FIXT.1.1|9=65|35=0|34=905|49=HEMATRAXRTS27QA2|52=20180625-18:40:04.430|56=TRAX|10=081|8=FIXT.1.1|9=65|35=0|34=906|49=HEMATRAXRTS27QA2|52=20180625-18:40:35.436|56=TRAX|10=092|8=FIXT.1.1|9=65|35=0|34=907|49=HEMATRAXRTS27QA2|52=20180625-18:41:06.428|56=TRAX|10=093|8=FIXT.1.1|9=65|35=0|34=908|49=HEMATRAXRTS27QA2|52=20180625-18:41:36.435|56=TRAX|10=095|8=FIXT.1.1|9=65|35=0|34=909|49=HEMATRAXRTS27QA2|52=20180625-18:42:07.432|56=TRAX|10=092|8=FIXT.1.1|9=65|35=0|34=910|49=HEMATRAXRTS27QA2|52=20180625-18:42:38.428|56=TRAX|10=093|8=FIXT.1.1|9=65|35=0|34=911|49=HEMATRAXRTS27QA2|52=20180625-18:43:08.428|56=TRAX|10=092|8=FIXT.1.1|9=65|35=0|34=912|49=HEMATRAXRTS27QA2|52=20180625-18:43:38.434|56=TRAX|10=093|8=FIXT.1.1|9=65|35=0|34=913|49=HEMATRAXRTS27QA2|52=20180625-18:44:09.427|56=TRAX|10=095|8=FIXT.1.1|9=65|35=0|34=914|49=HEMATRAXRTS27QA2|52=20180625-18:44:39.428|56=TRAX|10=100|8=FIXT.1.1|9=65|35=0|34=915|49=HEMATRAXRTS27QA2|52=20180625-18:45:10.430|56=TRAX|10=084|8=FIXT.1.1|9=65|35=0|34=916|49=HEMATRAXRTS27QA2|52=20180625-18:45:41.426|56=TRAX|10=094|8=FIXT.1.1|9=65|35=0|34=917|49=HEMATRAXRTS27QA2|52=20180625-18:46:11.430|56=TRAX|10=088|8=FIXT.1.1|9=65|35=0|34=918|49=HEMATRAXRTS27QA2|52=20180625-18:46:42.426|56=TRAX|10=098|8=FIXT.1.1|9=65|35=0|34=919|49=HEMATRAXRTS27QA2|52=20180625-18:47:12.430|56=TRAX|10=092|8=FIXT.1.1|9=65|35=0|34=920|49=HEMATRAXRTS27QA2|52=20180625-18:47:43.431|56=TRAX|10=089|8=FIXT.1.1|9=65|35=0|34=921|49=HEMATRAXRTS27QA2|52=20180625-18:48:14.421|56=TRAX|10=088|8=FIXT.1.1|9=65|35=0|34=922|49=HEMATRAXRTS27QA2|52=20180625-18:48:45.427|56=TRAX|10=099|8=FIXT.1.1|9=65|35=0|34=923|49=HEMATRAXRTS27QA2|52=20180625-18:49:16.418|56=TRAX|10=099|8=FIXT.1.1|9=65|35=0|34=924|49=HEMATRAXRTS27QA2|52=20180625-18:49:46.432|56=TRAX|10=099|8=FIXT.1.1|9=65|35=0|34=925|49=HEMATRAXRTS27QA2|52=20180625-18:50:17.426|56=TRAX|10=093|8=FIXT.1.1|9=65|35=0|34=926|49=HEMATRAXRTS27QA2|52=20180625-18:50:47.429|56=TRAX|10=100|8=FIXT.1.1|9=65|35=0|34=927|49=HEMATRAXRTS27QA2|52=20180625-18:51:18.430|56=TRAX|10=092|8=FIXT.1.1|9=65|35=0|34=928|49=HEMATRAXRTS27QA2|52=20180625-18:51:49.424|56=TRAX|10=100|8=FIXT.1.1|9=65|35=0|34=929|49=HEMATRAXRTS27QA2|52=20180625-18:52:20.416|56=TRAX|10=092|8=FIXT.1.1|9=65|35=0|34=930|49=HEMATRAXRTS27QA2|52=20180625-18:52:50.428|56=TRAX|10=090|8=FIXT.1.1|9=65|35=0|34=931|49=HEMATRAXRTS27QA2|52=20180625-18:53:20.428|56=TRAX|10=089|8=FIXT.1.1|9=65|35=0|34=932|49=HEMATRAXRTS27QA2|52=20180625-18:53:51.417|56=TRAX|10=092|8=FIXT.1.1|9=65|35=0|34=933|49=HEMATRAXRTS27QA2|52=20180625-18:54:21.425|56=TRAX|10=090|8=FIXT.1.1|9=65|35=0|34=934|49=HEMATRAXRTS27QA2|52=20180625-18:54:51.430|56=TRAX|10=090|8=FIXT.1.1|9=65|35=0|34=935|49=HEMATRAXRTS27QA2|52=20180625-18:55:22.419|56=TRAX|10=097|8=FIXT.1.1|9=65|35=0|34=936|49=HEMATRAXRTS27QA2|52=20180625-18:55:52.428|56=TRAX|10=101|8=FIXT.1.1|9=65|35=0|34=937|49=HEMATRAXRTS27QA2|52=20180625-18:56:23.415|56=TRAX|10=097|8=FIXT.1.1|9=65|35=0|34=938|49=HEMATRAXRTS27QA2|52=20180625-18:56:53.422|56=TRAX|10=099|8=FIXT.1.1|9=65|35=0|34=939|49=HEMATRAXRTS27QA2|52=20180625-18:57:23.428|56=TRAX|10=104|8=FIXT.1.1|9=65|35=0|34=940|49=HEMATRAXRTS27QA2|52=20180625-18:57:53.866|56=TRAX|10=105|8=FIXT.1.1|9=65|35=0|34=941|49=HEMATRAXRTS27QA2|52=20180625-18:58:24.424|56=TRAX|10=095|8=FIXT.1.1|9=65|35=0|34=942|49=HEMATRAXRTS27QA2|52=20180625-18:58:55.419|56=TRAX|10=104|8=FIXT.1.1|9=65|35=0|34=943|49=HEMATRAXRTS27QA2|52=20180625-18:59:26.426|56=TRAX|10=102|8=FIXT.1.1|9=65|35=0|34=944|49=HEMATRAXRTS27QA2|52=20180625-18:59:57.421|56=TRAX|10=102|8=FIXT.1.1|9=65|35=0|34=945|49=HEMATRAXRTS27QA2|52=20180625-19:00:28.415|56=TRAX|10=091|8=FIXT.1.1|9=65|35=0|34=946|49=HEMATRAXRTS27QA2|52=20180625-19:00:58.416|56=TRAX|10=096|8=FIXT.1.1|9=65|35=0|34=947|49=HEMATRAXRTS27QA2|52=20180625-19:01:29.421|56=TRAX|10=092|8=FIXT.1.1|9=65|35=0|34=948|49=HEMATRAXRTS27QA2|52=20180625-19:01:59.421|56=TRAX|10=096|8=FIXT.1.1|9=65|35=0|34=949|49=HEMATRAXRTS27QA2|52=20180625-19:02:29.421|56=TRAX|10=095|8=FIXT.1.1|9=65|35=0|34=950|49=HEMATRAXRTS27QA2|52=20180625-19:03:00.419|56=TRAX|10=084|8=FIXT.1.1|9=65|35=0|34=951|49=HEMATRAXRTS27QA2|52=20180625-19:03:30.420|56=TRAX|10=080|8=FIXT.1.1|9=65|35=0|34=952|49=HEMATRAXRTS27QA2|52=20180625-19:04:00.425|56=TRAX|10=084|8=FIXT.1.1|9=65|35=0|34=953|49=HEMATRAXRTS27QA2|52=20180625-19:04:31.415|56=TRAX|10=088|8=FIXT.1.1|9=65|35=0|34=954|49=HEMATRAXRTS27QA2|52=20180625-19:05:01.415|56=TRAX|10=087|8=FIXT.1.1|9=65|35=0|34=955|49=HEMATRAXRTS27QA2|52=20180625-19:05:31.422|56=TRAX|10=089|8=FIXT.1.1|9=65|35=0|34=956|49=HEMATRAXRTS27QA2|52=20180625-19:06:02.419|56=TRAX|10=095|8=FIXT.1.1|9=65|35=0|34=957|49=HEMATRAXRTS27QA2|52=20180625-19:06:32.425|56=TRAX|10=096|8=FIXT.1.1|9=65|35=0|34=958|49=HEMATRAXRTS27QA2|52=20180625-19:07:02.425|56=TRAX|10=095|8=FIXT.1.1|9=65|35=0|34=959|49=HEMATRAXRTS27QA2|52=20180625-19:07:33.418|56=TRAX|10=102|8=FIXT.1.1|9=65|35=0|34=960|49=HEMATRAXRTS27QA2|52=20180625-19:08:03.425|56=TRAX|10=090|8=FIXT.1.1|9=65|35=0|34=961|49=HEMATRAXRTS27QA2|52=20180625-19:08:34.411|56=TRAX|10=090|8=FIXT.1.1|9=65|35=0|34=962|49=HEMATRAXRTS27QA2|52=20180625-19:09:05.422|56=TRAX|10=092|8=FIXT.1.1|9=65|35=0|34=963|49=HEMATRAXRTS27QA2|52=20180625-19:09:36.416|56=TRAX|10=100|8=FIXT.1.1|9=65|35=0|34=964|49=HEMATRAXRTS27QA2|52=20180625-19:10:06.424|56=TRAX|10=089|8=FIXT.1.1|9=65|35=0|34=965|49=HEMATRAXRTS27QA2|52=20180625-19:10:37.417|56=TRAX|10=096|8=FIXT.1.1|9=65|35=0|34=966|49=HEMATRAXRTS27QA2|52=20180625-19:11:07.418|56=TRAX|10=096|8=FIXT.1.1|9=65|35=0|34=967|49=HEMATRAXRTS27QA2|52=20180625-19:11:38.420|56=TRAX|10=094|8=FIXT.1.1|9=65|35=0|34=968|49=HEMATRAXRTS27QA2|52=20180625-19:12:08.423|56=TRAX|10=096|8=FIXT.1.1|9=65|35=0|34=969|49=HEMATRAXRTS27QA2|52=20180625-19:12:39.417|56=TRAX|10=104|8=FIXT.1.1|9=65|35=0|34=970|49=HEMATRAXRTS27QA2|52=20180625-19:13:09.417|56=TRAX|10=094|8=FIXT.1.1|9=65|35=0|34=971|49=HEMATRAXRTS27QA2|52=20180625-19:13:40.408|56=TRAX|10=090|8=FIXT.1.1|9=65|35=0|34=972|49=HEMATRAXRTS27QA2|52=20180625-19:14:10.416|56=TRAX|10=088|8=FIXT.1.1|9=65|35=0|34=973|49=HEMATRAXRTS27QA2|52=20180625-19:14:41.422|56=TRAX|10=090|8=FIXT.1.1|9=65|35=0|34=974|49=HEMATRAXRTS27QA2|52=20180625-19:15:11.423|56=TRAX|10=090|8=FIXT.1.1|9=65|35=0|34=975|49=HEMATRAXRTS27QA2|52=20180625-19:15:42.416|56=TRAX|10=097|8=FIXT.1.1|9=65|35=0|34=976|49=HEMATRAXRTS27QA2|52=20180625-19:16:13.415|56=TRAX|10=096|8=FIXT.1.1|9=65|35=0|34=977|49=HEMATRAXRTS27QA2|52=20180625-19:16:43.421|56=TRAX|10=097|8=FIXT.1.1|9=65|35=0|34=978|49=HEMATRAXRTS27QA2|52=20180625-19:17:14.414|56=TRAX|10=099|8=FIXT.1.1|9=65|35=0|34=979|49=HEMATRAXRTS27QA2|52=20180625-19:17:44.419|56=TRAX|10=108|8=FIXT.1.1|9=65|35=0|34=980|49=HEMATRAXRTS27QA2|52=20180625-19:18:15.407|56=TRAX|10=096|8=FIXT.1.1|9=65|35=0|34=981|49=HEMATRAXRTS27QA2|52=20180625-19:18:45.413|56=TRAX|10=097|8=FIXT.1.1|9=65|35=0|34=982|49=HEMATRAXRTS27QA2|52=20180625-19:19:15.418|56=TRAX|10=101|8=FIXT.1.1|9=65|35=0|34=983|49=HEMATRAXRTS27QA2|52=20180625-19:19:46.417|56=TRAX|10=105|8=FIXT.1.1|9=65|35=0|34=984|49=HEMATRAXRTS27QA2|52=20180625-19:20:16.418|56=TRAX|10=096|8=FIXT.1.1|9=65|35=0|34=985|49=HEMATRAXRTS27QA2|52=20180625-19:20:47.415|56=TRAX|10=098|8=FIXT.1.1|9=65|35=0|34=986|49=HEMATRAXRTS27QA2|52=20180625-19:21:18.412|56=TRAX|10=095|8=FIXT.1.1|9=65|35=0|34=987|49=HEMATRAXRTS27QA2|52=20180625-19:21:49.414|56=TRAX|10=102|8=FIXT.1.1|9=65|35=0|34=988|49=HEMATRAXRTS27QA2|52=20180625-19:22:19.419|56=TRAX|10=106|8=FIXT.1.1|9=65|35=0|34=989|49=HEMATRAXRTS27QA2|52=20180625-19:22:50.418|56=TRAX|10=101|8=FIXT.1.1|9=65|35=0|34=990|49=HEMATRAXRTS27QA2|52=20180625-19:23:20.419|56=TRAX|10=092|8=FIXT.1.1|9=65|35=0|34=991|49=HEMATRAXRTS27QA2|52=20180625-19:23:51.417|56=TRAX|10=095|8=FIXT.1.1|9=65|35=0|34=992|49=HEMATRAXRTS27QA2|52=20180625-19:24:22.412|56=TRAX|10=090|8=FIXT.1.1|9=65|35=0|34=993|49=HEMATRAXRTS27QA2|52=20180625-19:24:53.412|56=TRAX|10=095|8=FIXT.1.1|9=65|35=0|34=994|49=HEMATRAXRTS27QA2|52=20180625-19:25:23.418|56=TRAX|10=100|8=FIXT.1.1|9=65|35=0|34=995|49=HEMATRAXRTS27QA2|52=20180625-19:25:53.868|56=TRAX|10=113|8=FIXT.1.1|9=65|35=0|34=996|49=HEMATRAXRTS27QA2|52=20180625-19:26:24.415|56=TRAX|10=101|8=FIXT.1.1|9=65|35=0|34=997|49=HEMATRAXRTS27QA2|52=20180625-19:26:55.418|56=TRAX|10=109|8=FIXT.1.1|9=65|35=0|34=998|49=HEMATRAXRTS27QA2|52=20180625-19:27:26.412|56=TRAX|10=103|8=FIXT.1.1|9=65|35=0|34=999|49=HEMATRAXRTS27QA2|52=20180625-19:27:57.410|56=TRAX|10=106|8=FIXT.1.1|9=66|35=0|34=1000|49=HEMATRAXRTS27QA2|52=20180625-19:28:27.414|56=TRAX|10=131|8=FIXT.1.1|9=66|35=0|34=1001|49=HEMATRAXRTS27QA2|52=20180625-19:28:57.415|56=TRAX|10=136|8=FIXT.1.1|9=66|35=0|34=1002|49=HEMATRAXRTS27QA2|52=20180625-19:29:28.406|56=TRAX|10=136|8=FIXT.1.1|9=66|35=0|34=1003|49=HEMATRAXRTS27QA2|52=20180625-19:29:59.406|56=TRAX|10=141|8=FIXT.1.1|9=66|35=0|34=1004|49=HEMATRAXRTS27QA2|52=20180625-19:30:29.409|56=TRAX|10=134|8=FIXT.1.1|9=66|35=0|34=1005|49=HEMATRAXRTS27QA2|52=20180625-19:31:00.412|56=TRAX|10=119|8=FIXT.1.1|9=66|35=0|34=1006|49=HEMATRAXRTS27QA2|52=20180625-19:31:30.414|56=TRAX|10=125|8=FIXT.1.1|9=66|35=0|34=1007|49=HEMATRAXRTS27QA2|52=20180625-19:32:01.415|56=TRAX|10=126|8=FIXT.1.1|9=66|35=0|34=1008|49=HEMATRAXRTS27QA2|52=20180625-19:32:32.406|56=TRAX|10=131|8=FIXT.1.1|9=66|35=0|34=1009|49=HEMATRAXRTS27QA2|52=20180625-19:33:02.414|56=TRAX|10=129|8=FIXT.1.1|9=66|35=0|34=1010|49=HEMATRAXRTS27QA2|52=20180625-19:33:32.414|56=TRAX|10=124|8=FIXT.1.1|9=66|35=0|34=1011|49=HEMATRAXRTS27QA2|52=20180625-19:34:02.415|56=TRAX|10=124|8=FIXT.1.1|9=66|35=0|34=1012|49=HEMATRAXRTS27QA2|52=20180625-19:34:33.407|56=TRAX|10=130|8=FIXT.1.1|9=66|35=0|34=1013|49=HEMATRAXRTS27QA2|52=20180625-19:35:03.411|56=TRAX|10=124|8=FIXT.1.1|9=66|35=0|34=1014|49=HEMATRAXRTS27QA2|52=20180625-19:35:34.402|56=TRAX|10=129|8=FIXT.1.1|9=66|35=0|34=1015|49=HEMATRAXRTS27QA2|52=20180625-19:36:04.405|56=TRAX|10=131|8=FIXT.1.1|9=66|35=0|34=1016|49=HEMATRAXRTS27QA2|52=20180625-19:36:34.405|56=TRAX|10=135|8=FIXT.1.1|9=66|35=0|34=1017|49=HEMATRAXRTS27QA2|52=20180625-19:37:04.414|56=TRAX|10=134|8=FIXT.1.1|9=66|35=0|34=1018|49=HEMATRAXRTS27QA2|52=20180625-19:37:35.406|56=TRAX|10=140|8=FIXT.1.1|9=66|35=0|34=1019|49=HEMATRAXRTS27QA2|52=20180625-19:38:05.409|56=TRAX|10=142|8=FIXT.1.1|9=66|35=0|34=1020|49=HEMATRAXRTS27QA2|52=20180625-19:38:36.406|56=TRAX|10=135|8=FIXT.1.1|9=66|35=0|34=1021|49=HEMATRAXRTS27QA2|52=20180625-19:39:07.404|56=TRAX|10=133|8=FIXT.1.1|9=66|35=0|34=1022|49=HEMATRAXRTS27QA2|52=20180625-19:39:37.408|56=TRAX|10=141|8=FIXT.1.1|9=66|35=0|34=1023|49=HEMATRAXRTS27QA2|52=20180625-19:40:07.412|56=TRAX|10=126|8=FIXT.1.1|9=66|35=0|34=1024|49=HEMATRAXRTS27QA2|52=20180625-19:40:38.403|56=TRAX|10=131|8=FIXT.1.1|9=66|35=0|34=1025|49=HEMATRAXRTS27QA2|52=20180625-19:41:08.409|56=TRAX|10=136|8=FIXT.1.1|9=66|35=0|34=1026|49=HEMATRAXRTS27QA2|52=20180625-19:41:39.410|56=TRAX|10=133|8=FIXT.1.1|9=66|35=0|34=1027|49=HEMATRAXRTS27QA2|52=20180625-19:42:10.408|56=TRAX|10=131|8=FIXT.1.1|9=66|35=0|34=1028|49=HEMATRAXRTS27QA2|52=20180625-19:42:41.405|56=TRAX|10=133|8=FIXT.1.1|9=66|35=0|34=1029|49=HEMATRAXRTS27QA2|52=20180625-19:43:12.411|56=TRAX|10=130|8=FIXT.1.1|9=66|35=0|34=1030|49=HEMATRAXRTS27QA2|52=20180625-19:43:43.406|56=TRAX|10=130|8=FIXT.1.1|9=66|35=0|34=1031|49=HEMATRAXRTS27QA2|52=20180625-19:44:13.410|56=TRAX|10=124|8=FIXT.1.1|9=66|35=0|34=1032|49=HEMATRAXRTS27QA2|52=20180625-19:44:44.412|56=TRAX|10=131|8=FIXT.1.1|9=66|35=0|34=1033|49=HEMATRAXRTS27QA2|52=20180625-19:45:15.399|56=TRAX|10=145|8=FIXT.1.1|9=66|35=0|34=1034|49=HEMATRAXRTS27QA2|52=20180625-19:45:45.405|56=TRAX|10=137|8=FIXT.1.1|9=66|35=0|34=1035|49=HEMATRAXRTS27QA2|52=20180625-19:46:15.410|56=TRAX|10=132|8=FIXT.1.1|9=66|35=0|34=1036|49=HEMATRAXRTS27QA2|52=20180625-19:46:46.404|56=TRAX|10=140|8=FIXT.1.1|9=66|35=0|34=1037|49=HEMATRAXRTS27QA2|52=20180625-19:47:17.399|56=TRAX|10=153|8=FIXT.1.1|9=66|35=0|34=1038|49=HEMATRAXRTS27QA2|52=20180625-19:47:47.405|56=TRAX|10=145|8=FIXT.1.1|9=66|35=0|34=1039|49=HEMATRAXRTS27QA2|52=20180625-19:48:17.405|56=TRAX|10=144|8=FIXT.1.1|9=66|35=0|34=1040|49=HEMATRAXRTS27QA2|52=20180625-19:48:48.410|56=TRAX|10=136|8=FIXT.1.1|9=66|35=0|34=1041|49=HEMATRAXRTS27QA2|52=20180625-19:49:19.400|56=TRAX|10=135|8=FIXT.1.1|9=66|35=0|34=1042|49=HEMATRAXRTS27QA2|52=20180625-19:49:49.402|56=TRAX|10=141|8=FIXT.1.1|9=66|35=0|34=1043|49=HEMATRAXRTS27QA2|52=20180625-19:50:20.408|56=TRAX|10=129|8=FIXT.1.1|9=66|35=0|34=1044|49=HEMATRAXRTS27QA2|52=20180625-19:50:51.408|56=TRAX|10=134|8=FIXT.1.1|9=66|35=0|34=1045|49=HEMATRAXRTS27QA2|52=20180625-19:51:22.405|56=TRAX|10=131|8=FIXT.1.1|9=66|35=0|34=1046|49=HEMATRAXRTS27QA2|52=20180625-19:51:53.400|56=TRAX|10=131|8=FIXT.1.1|9=66|35=0|34=1047|49=HEMATRAXRTS27QA2|52=20180625-19:52:23.408|56=TRAX|10=138|8=FIXT.1.1|9=66|35=0|34=1048|49=HEMATRAXRTS27QA2|52=20180625-19:52:54.402|56=TRAX|10=137|8=FIXT.1.1|9=66|35=0|34=1049|49=HEMATRAXRTS27QA2|52=20180625-19:53:24.868|56=TRAX|10=152|8=FIXT.1.1|9=66|35=0|34=1050|49=HEMATRAXRTS27QA2|52=20180625-19:53:54.869|56=TRAX|10=148|8=FIXT.1.1|9=66|35=0|34=1051|49=HEMATRAXRTS27QA2|52=20180625-19:54:25.400|56=TRAX|10=129|8=FIXT.1.1|9=66|35=0|34=1052|49=HEMATRAXRTS27QA2|52=20180625-19:54:56.402|56=TRAX|10=136|8=FIXT.1.1|9=66|35=0|34=1053|49=HEMATRAXRTS27QA2|52=20180625-19:55:27.403|56=TRAX|10=137|8=FIXT.1.1|9=66|35=0|34=1054|49=HEMATRAXRTS27QA2|52=20180625-19:55:58.394|56=TRAX|10=151|8=FIXT.1.1|9=66|35=0|34=1055|49=HEMATRAXRTS27QA2|52=20180625-19:56:28.404|56=TRAX|10=142|8=FIXT.1.1|9=66|35=0|34=1056|49=HEMATRAXRTS27QA2|52=20180625-19:56:58.404|56=TRAX|10=146|8=FIXT.1.1|9=66|35=0|34=1057|49=HEMATRAXRTS27QA2|52=20180625-19:57:29.399|56=TRAX|10=159|8=FIXT.1.1|9=66|35=0|34=1058|49=HEMATRAXRTS27QA2|52=20180625-19:57:59.400|56=TRAX|10=146|8=FIXT.1.1|9=66|35=0|34=1059|49=HEMATRAXRTS27QA2|52=20180625-19:58:30.399|56=TRAX|10=154|8=FIXT.1.1|9=66|35=0|34=1060|49=HEMATRAXRTS27QA2|52=20180625-19:59:00.404|56=TRAX|10=131|8=FIXT.1.1|9=66|35=0|34=1061|49=HEMATRAXRTS27QA2|52=20180625-19:59:31.400|56=TRAX|10=132|8=FIXT.1.1|9=66|35=0|34=1062|49=HEMATRAXRTS27QA2|52=20180625-20:00:02.405|56=TRAX|10=114|8=FIXT.1.1|9=66|35=0|34=1063|49=HEMATRAXRTS27QA2|52=20180625-20:00:33.402|56=TRAX|10=116|8=FIXT.1.1|9=66|35=0|34=1064|49=HEMATRAXRTS27QA2|52=20180625-20:01:03.402|56=TRAX|10=115|8=FIXT.1.1|9=66|35=0|34=1065|49=HEMATRAXRTS27QA2|52=20180625-20:01:34.401|56=TRAX|10=119|8=FIXT.1.1|9=66|35=0|34=1066|49=HEMATRAXRTS27QA2|52=20180625-20:02:04.404|56=TRAX|10=121|8=FIXT.1.1|9=66|35=0|34=1067|49=HEMATRAXRTS27QA2|52=20180625-20:02:35.401|56=TRAX|10=123|8=FIXT.1.1|9=66|35=0|34=1068|49=HEMATRAXRTS27QA2|52=20180625-20:03:06.389|56=TRAX|10=138|8=FIXT.1.1|9=66|35=0|34=1069|49=HEMATRAXRTS27QA2|52=20180625-20:03:36.389|56=TRAX|10=142|8=FIXT.1.1|9=66|35=0|34=1070|49=HEMATRAXRTS27QA2|52=20180625-20:04:06.400|56=TRAX|10=116|8=FIXT.1.1|9=66|35=0|34=1071|49=HEMATRAXRTS27QA2|52=20180625-20:04:37.397|56=TRAX|10=136|8=FIXT.1.1|9=66|35=0|34=1072|49=HEMATRAXRTS27QA2|52=20180625-20:05:07.397|56=TRAX|10=135|8=FIXT.1.1|9=66|35=0|34=1073|49=HEMATRAXRTS27QA2|52=20180625-20:05:38.403|56=TRAX|10=128|8=FIXT.1.1|9=66|35=0|34=1074|49=HEMATRAXRTS27QA2|52=20180625-20:06:09.396|56=TRAX|10=139|8=FIXT.1.1|9=66|35=0|34=1075|49=HEMATRAXRTS27QA2|52=20180625-20:06:39.402|56=TRAX|10=131|8=FIXT.1.1|9=66|35=0|34=1076|49=HEMATRAXRTS27QA2|52=20180625-20:07:10.391|56=TRAX|10=129|8=FIXT.1.1|9=66|35=0|34=1077|49=HEMATRAXRTS27QA2|52=20180625-20:07:40.397|56=TRAX|10=139|8=FIXT.1.1|9=66|35=0|34=1078|49=HEMATRAXRTS27QA2|52=20180625-20:08:10.400|56=TRAX|10=123|8=FIXT.1.1|9=66|35=0|34=1079|49=HEMATRAXRTS27QA2|52=20180625-20:08:41.387|56=TRAX|10=142|8=FIXT.1.1|9=66|35=0|34=1080|49=HEMATRAXRTS27QA2|52=20180625-20:09:11.395|56=TRAX|10=131|8=FIXT.1.1|9=66|35=0|34=1081|49=HEMATRAXRTS27QA2|52=20180625-20:09:41.395|56=TRAX|10=135|8=FIXT.1.1|9=66|35=0|34=1082|49=HEMATRAXRTS27QA2|52=20180625-20:10:11.395|56=TRAX|10=125|8=FIXT.1.1|9=66|35=0|34=1083|49=HEMATRAXRTS27QA2|52=20180625-20:10:41.396|56=TRAX|10=130|8=FIXT.1.1|9=66|35=0|34=1084|49=HEMATRAXRTS27QA2|52=20180625-20:11:11.399|56=TRAX|10=132|8=FIXT.1.1|9=66|35=0|34=1085|49=HEMATRAXRTS27QA2|52=20180625-20:11:42.400|56=TRAX|10=120|8=F