8=FIXT.1.1|9=98|35=A|34=1|49=MTFQA2APA|52=20180523-13:32:07.243|56=TRAX|98=0|108=30|95=8|96=2.0.0rc4|141=Y|1137=9|10=007|8=FIXT.1.1|9=56|35=0|34=2|49=MTFQA2APA|52=20180523-13:32:38.239|56=TRAX|10=233|8=FIXT.1.1|9=56|35=0|34=3|49=MTFQA2APA|52=20180523-13:33:09.188|56=TRAX|10=236|8=FIXT.1.1|9=56|35=0|34=4|49=MTFQA2APA|52=20180523-13:33:39.196|56=TRAX|10=239|8=FIXT.1.1|9=56|35=0|34=5|49=MTFQA2APA|52=20180523-13:34:09.196|56=TRAX|10=238|8=FIXT.1.1|9=56|35=0|34=6|49=MTFQA2APA|52=20180523-13:34:39.210|56=TRAX|10=229|8=FIXT.1.1|9=78|35=5|34=7|49=MTFQA2APA|52=20180523-13:35:01.237|56=TRAX|58=Session Tab Closed|10=046|8=FIXT.1.1|9=98|35=A|34=1|49=MTFQA2APA|52=20180523-13:35:06.225|56=TRAX|98=0|108=30|95=8|96=2.0.0rc4|141=Y|1137=9|10=009|8=FIXT.1.1|9=78|35=5|34=2|49=MTFQA2APA|52=20180523-13:35:08.223|56=TRAX|58=Session Tab Closed|10=043|8=FIXT.1.1|9=98|35=A|34=1|49=MTFQA2APA|52=20180523-13:35:20.231|56=TRAX|98=0|108=30|95=8|96=2.0.0rc4|141=Y|1137=9|10=002|8=FIXT.1.1|9=56|35=0|34=2|49=MTFQA2APA|52=20180523-13:35:50.238|56=TRAX|10=229|8=FIXT.1.1|9=56|35=0|34=3|49=MTFQA2APA|52=20180523-13:36:21.205|56=TRAX|10=223|8=FIXT.1.1|9=56|35=0|34=4|49=MTFQA2APA|52=20180523-13:36:51.233|56=TRAX|10=228|8=FIXT.1.1|9=363|35=AE|34=5|49=MTFQA2APA|50=APA|52=20180523-13:37:08.686|56=TRAX|57=APA|1128=6|571=10|1041=testReferenceZ3|22806=NewVersion|487=0|939=0|325=Y|423=1|48=PBPRAVEEN812|22=4|854=0|32=100|31=100|15=EUR|60=20180224-02:00:00|22600=100|22601=EUR|1924=1|552=1|54=1|1057=Y|29=1|30=APXL|1116=2|1117=19PFVVJYI4C4JRY16X73|1118=N|1119=116|1117=19PFVVJYI4C4JRY16X73|1118=N|1119=1|10=237|8=FIXT.1.1|9=56|35=0|34=6|49=MTFQA2APA|52=20180523-13:37:39.211|56=TRAX|10=233|8=FIXT.1.1|9=56|35=0|34=7|49=MTFQA2APA|52=20180523-13:38:09.241|56=TRAX|10=235|8=FIXT.1.1|9=363|35=AE|34=8|49=MTFQA2APA|50=APA|52=20180523-13:38:24.087|56=TRAX|57=APA|1128=6|571=10|1041=testReferenceZ3|22806=NewVersion|487=0|939=0|325=Y|423=1|1116=2|1117=19PFVVJYI4C4JRY16X73|1118=N|1119=116|1117=19PFVVJYI4C4JRY16X73|1118=N|1119=1|48=PBPRAVEEN812|22=4|854=0|32=100|31=100|15=EUR|60=20180224-02:00:00|22600=100|22601=EUR|1924=1|552=1|54=1|1057=Y|29=1|30=APXL|10=234|8=FIXT.1.1|9=56|35=0|34=9|49=MTFQA2APA|52=20180523-13:38:54.198|56=TRAX|10=248|8=FIXT.1.1|9=364|35=AE|34=10|49=MTFQA2APA|50=APA|52=20180523-13:39:18.143|56=TRAX|57=APA|1128=6|571=10|1041=testReferenceZ3|22806=NewVersion|487=0|939=0|325=Y|423=1|1116=2|1117=19PFVVJYI4C4JRY16X73|1118=N|1119=116|1117=1128SIJQ26096WL7IO82|1118=N|1119=1|48=PBPRAVEEN812|22=4|854=0|32=100|31=100|15=EUR|60=20180224-02:00:00|22600=100|22601=EUR|1924=1|552=1|54=1|1057=Y|29=1|30=APXL|10=150|8=FIXT.1.1|9=57|35=0|34=11|49=MTFQA2APA|52=20180523-13:39:48.218|56=TRAX|10=031|8=FIXT.1.1|9=364|35=AE|34=12|49=MTFQA2APA|50=APA|52=20180523-13:39:50.090|56=TRAX|57=APA|1128=6|571=10|1041=testReferenceZ4|22806=NewVersion|487=0|939=0|325=Y|423=1|1116=2|1117=19PFVVJYI4C4JRY16X73|1118=N|1119=116|1117=1128SIJQ26096WL7IO82|1118=N|1119=1|48=PBPRAVEEN812|22=4|854=0|32=100|31=100|15=EUR|60=20180224-02:00:00|22600=100|22601=EUR|1924=1|552=1|54=1|1057=Y|29=1|30=APXL|10=150|8=FIXT.1.1|9=364|35=AE|34=13|49=MTFQA2APA|50=APA|52=20180523-13:40:09.078|56=TRAX|57=APA|1128=6|571=10|1041=testReferenceZ5|22806=NewVersion|487=0|939=0|325=Y|423=1|1116=2|1117=19PFVVJYI4C4JRY16X73|1118=N|1119=116|1117=1128SIJQ26096WL7IO82|1118=N|1119=1|48=PBPRAVEEN812|22=4|854=0|32=100|31=100|15=EUR|60=20180224-02:00:00|22600=100|22601=EUR|1924=1|552=1|54=1|1057=Y|29=1|30=APXL|10=154|8=FIXT.1.1|9=57|35=0|34=14|49=MTFQA2APA|52=20180523-13:40:39.229|56=TRAX|10=028|8=FIXT.1.1|9=57|35=0|34=15|49=MTFQA2APA|52=20180523-13:41:09.232|56=TRAX|10=021|8=FIXT.1.1|9=364|35=AE|34=16|49=MTFQA2APA|50=APA|52=20180523-13:41:19.397|56=TRAX|57=APA|1128=6|571=10|1041=testReferenceZ6|22806=NewVersion|487=0|939=0|325=Y|423=1|1116=2|1117=19PFVVJYI4C4JRY16X73|1118=N|1119=116|1117=1128SIJQ26096WL7IO82|1118=N|1119=1|48=PBPRAVEEN812|22=4|854=0|32=100|31=100|15=EUR|60=20180522-11:30:30|22600=100|22601=EUR|1924=1|552=1|54=1|1057=Y|29=1|30=APXL|10=171|8=FIXT.1.1|9=364|35=AE|34=17|49=MTFQA2APA|50=APA|52=20180523-13:41:44.660|56=TRAX|57=APA|1128=6|571=10|1041=testReferenceZ7|22806=NewVersion|487=0|939=0|325=Y|423=1|1116=2|1117=19PFVVJYI4C4JRY16X73|1118=N|1119=116|1117=1128SIJQ26096WL7IO82|1118=N|1119=1|48=PBPRAVEEN812|22=4|854=0|32=100|31=100|15=EUR|60=20180522-11:30:30|22600=100|22601=EUR|1924=1|552=1|54=1|1057=Y|29=1|30=APXL|10=164|8=FIXT.1.1|9=364|35=AE|34=18|49=MTFQA2APA|50=APA|52=20180523-13:41:50.804|56=TRAX|57=APA|1128=6|571=10|1041=testReferenceZ8|22806=NewVersion|487=0|939=0|325=Y|423=1|1116=2|1117=19PFVVJYI4C4JRY16X73|1118=N|1119=116|1117=1128SIJQ26096WL7IO82|1118=N|1119=1|48=PBPRAVEEN812|22=4|854=0|32=100|31=100|15=EUR|60=20180522-11:30:30|22600=100|22601=EUR|1924=1|552=1|54=1|1057=Y|29=1|30=APXL|10=163|8=FIXT.1.1|9=57|35=0|34=19|49=MTFQA2APA|52=20180523-13:42:21.242|56=TRAX|10=021|8=FIXT.1.1|9=364|35=AE|34=20|49=MTFQA2APA|50=APA|52=20180523-13:42:27.677|56=TRAX|57=APA|1128=6|571=10|1041=testReferenceZ9|22806=NewVersion|487=0|939=0|325=Y|423=1|1116=2|1117=19PFVVJYI4C4JRY16X73|1118=N|1119=116|1117=1128SIJQ26096WL7IO82|1118=N|1119=1|48=PBPRAVEEN812|22=4|854=0|32=100|31=100|15=EUR|60=20180522-11:30:30|22600=100|22601=EUR|1924=1|552=1|54=1|1057=N|29=1|30=APXL|10=159|8=FIXT.1.1|9=365|35=AE|34=21|49=MTFQA2APA|50=APA|52=20180523-13:42:32.122|56=TRAX|57=APA|1128=6|571=10|1041=testReferenceZ10|22806=NewVersion|487=0|939=0|325=Y|423=1|1116=2|1117=19PFVVJYI4C4JRY16X73|1118=N|1119=116|1117=1128SIJQ26096WL7IO82|1118=N|1119=1|48=PBPRAVEEN812|22=4|854=0|32=100|31=100|15=EUR|60=20180522-11:30:30|22600=100|22601=EUR|1924=1|552=1|54=1|1057=N|29=1|30=APXL|10=182|8=FIXT.1.1|9=365|35=AE|34=22|49=MTFQA2APA|50=APA|52=20180523-13:42:35.136|56=TRAX|57=APA|1128=6|571=10|1041=testReferenceZ11|22806=NewVersion|487=0|939=0|325=Y|423=1|1116=2|1117=19PFVVJYI4C4JRY16X73|1118=N|1119=116|1117=1128SIJQ26096WL7IO82|1118=N|1119=1|48=PBPRAVEEN812|22=4|854=0|32=100|31=100|15=EUR|60=20180522-11:30:30|22600=100|22601=EUR|1924=1|552=1|54=1|1057=N|29=1|30=APXL|10=192|8=FIXT.1.1|9=57|35=0|34=23|49=MTFQA2APA|52=20180523-13:43:05.234|56=TRAX|10=020|8=FIXT.1.1|9=57|35=0|34=24|49=MTFQA2APA|52=20180523-13:43:35.246|56=TRAX|10=027|8=FIXT.1.1|9=57|35=0|34=25|49=MTFQA2APA|52=20180523-13:44:06.210|56=TRAX|10=018|8=FIXT.1.1|9=57|35=0|34=26|49=MTFQA2APA|52=20180523-13:44:36.215|56=TRAX|10=027|8=FIXT.1.1|9=57|35=0|34=27|49=MTFQA2APA|52=20180523-13:45:06.235|56=TRAX|10=028|8=FIXT.1.1|9=57|35=0|34=28|49=MTFQA2APA|52=20180523-13:45:36.250|56=TRAX|10=029|8=FIXT.1.1|9=57|35=0|34=29|49=MTFQA2APA|52=20180523-13:46:07.235|56=TRAX|10=032|8=FIXT.1.1|9=57|35=0|34=30|49=MTFQA2APA|52=20180523-13:46:37.243|56=TRAX|10=026|8=FIXT.1.1|9=57|35=0|34=31|49=MTFQA2APA|52=20180523-13:47:07.246|56=TRAX|10=028|8=FIXT.1.1|9=57|35=0|34=32|49=MTFQA2APA|52=20180523-13:47:38.237|56=TRAX|10=033|8=FIXT.1.1|9=57|35=0|34=33|49=MTFQA2APA|52=20180523-13:48:08.245|56=TRAX|10=031|8=FIXT.1.1|9=57|35=0|34=34|49=MTFQA2APA|52=20180523-13:48:39.236|56=TRAX|10=036|8=FIXT.1.1|9=57|35=0|34=35|49=MTFQA2APA|52=20180523-13:49:10.232|56=TRAX|10=023|8=FIXT.1.1|9=57|35=0|34=36|49=MTFQA2APA|52=20180523-13:49:41.231|56=TRAX|10=027|8=FIXT.1.1|9=57|35=0|34=37|49=MTFQA2APA|52=20180523-13:50:11.238|56=TRAX|10=024|8=FIXT.1.1|9=57|35=0|34=38|49=MTFQA2APA|52=20180523-13:50:42.233|56=TRAX|10=024|8=FIXT.1.1|9=57|35=0|34=39|49=MTFQA2APA|52=20180523-13:51:12.238|56=TRAX|10=028|8=FIXT.1.1|9=57|35=0|34=40|49=MTFQA2APA|52=20180523-13:51:42.240|56=TRAX|10=016|8=FIXT.1.1|9=57|35=0|34=41|49=MTFQA2APA|52=20180523-13:52:13.237|56=TRAX|10=022|8=FIXT.1.1|9=57|35=0|34=42|49=MTFQA2APA|52=20180523-13:52:43.249|56=TRAX|10=029|8=FIXT.1.1|9=57|35=0|34=43|49=MTFQA2APA|52=20180523-13:53:13.252|56=TRAX|10=022|8=FIXT.1.1|9=57|35=0|34=44|49=MTFQA2APA|52=20180523-13:53:44.259|56=TRAX|10=034|8=FIXT.1.1|9=57|35=0|34=45|49=MTFQA2APA|52=20180523-13:54:15.246|56=TRAX|10=030|8=FIXT.1.1|9=57|35=0|34=46|49=MTFQA2APA|52=20180523-13:54:45.252|56=TRAX|10=031|8=FIXT.1.1|9=57|35=0|34=47|49=MTFQA2APA|52=20180523-13:55:15.257|56=TRAX|10=035|8=FIXT.1.1|9=57|35=0|34=48|49=MTFQA2APA|52=20180523-13:55:46.252|56=TRAX|10=035|8=FIXT.1.1|9=57|35=0|34=49|49=MTFQA2APA|52=20180523-13:56:17.249|56=TRAX|10=041|8=FIXT.1.1|9=57|35=0|34=50|49=MTFQA2APA|52=20180523-13:56:47.258|56=TRAX|10=036|8=FIXT.1.1|9=57|35=0|34=51|49=MTFQA2APA|52=20180523-13:57:17.259|56=TRAX|10=036|8=FIXT.1.1|9=57|35=0|34=52|49=MTFQA2APA|52=20180523-13:57:48.259|56=TRAX|10=041|8=FIXT.1.1|9=57|35=0|34=53|49=MTFQA2APA|52=20180523-13:58:19.234|56=TRAX|10=034|8=FIXT.1.1|9=57|35=0|34=54|49=MTFQA2APA|52=20180523-13:58:49.263|56=TRAX|10=040|8=FIXT.1.1|9=57|35=0|34=55|49=MTFQA2APA|52=20180523-13:59:20.256|56=TRAX|10=033|8=FIXT.1.1|9=57|35=0|34=56|49=MTFQA2APA|52=20180523-13:59:51.255|56=TRAX|10=037|8=FIXT.1.1|9=57|35=0|34=57|49=MTFQA2APA|52=20180523-14:00:21.260|56=TRAX|10=018|8=FIXT.1.1|9=57|35=0|34=58|49=MTFQA2APA|52=20180523-14:00:51.262|56=TRAX|10=024|8=FIXT.1.1|9=57|35=0|34=59|49=MTFQA2APA|52=20180523-14:01:22.260|56=TRAX|10=022|8=FIXT.1.1|9=57|35=0|34=60|49=MTFQA2APA|52=20180523-14:01:52.261|56=TRAX|10=018|8=FIXT.1.1|9=57|35=0|34=61|49=MTFQA2APA|52=20180523-14:02:23.258|56=TRAX|10=024|8=FIXT.1.1|9=57|35=0|34=62|49=MTFQA2APA|52=20180523-14:02:53.266|56=TRAX|10=027|8=FIXT.1.1|9=57|35=0|34=63|49=MTFQA2APA|52=20180523-14:03:23.266|56=TRAX|10=026|8=FIXT.1.1|9=57|35=0|34=64|49=MTFQA2APA|52=20180523-14:03:54.260|56=TRAX|10=025|8=FIXT.1.1|9=57|35=0|34=65|49=MTFQA2APA|52=20180523-14:04:24.266|56=TRAX|10=030|8=FIXT.1.1|9=57|35=0|34=66|49=MTFQA2APA|52=20180523-14:04:54.268|56=TRAX|10=036|8=FIXT.1.1|9=57|35=0|34=67|49=MTFQA2APA|52=20180523-14:05:24.271|56=TRAX|10=029|8=FIXT.1.1|9=57|35=0|34=68|49=MTFQA2APA|52=20180523-14:05:55.259|56=TRAX|10=040|8=FIXT.1.1|9=57|35=0|34=69|49=MTFQA2APA|52=20180523-14:06:25.272|56=TRAX|10=034|8=FIXT.1.1|9=57|35=0|34=70|49=MTFQA2APA|52=20180523-14:06:56.269|56=TRAX|10=036|8=FIXT.1.1|9=57|35=0|34=71|49=MTFQA2APA|52=20180523-14:07:26.273|56=TRAX|10=030|8=FIXT.1.1|9=57|35=0|34=72|49=MTFQA2APA|52=20180523-14:07:56.276|56=TRAX|10=037|8=FIXT.1.1|9=57|35=0|34=73|49=MTFQA2APA|52=20180523-14:08:27.268|56=TRAX|10=038|8=FIXT.1.1|9=57|35=0|34=74|49=MTFQA2APA|52=20180523-14:08:58.233|56=TRAX|10=035|8=FIXT.1.1|9=57|35=0|34=75|49=MTFQA2APA|52=20180523-14:09:28.275|56=TRAX|10=040|8=FIXT.1.1|9=57|35=0|34=76|49=MTFQA2APA|52=20180523-14:09:59.269|56=TRAX|10=048|8=FIXT.1.1|9=57|35=0|34=77|49=MTFQA2APA|52=20180523-14:10:29.277|56=TRAX|10=037|8=FIXT.1.1|9=57|35=0|34=78|49=MTFQA2APA|52=20180523-14:11:00.266|56=TRAX|10=026|8=FIXT.1.1|9=57|35=0|34=79|49=MTFQA2APA|52=20180523-14:11:30.275|56=TRAX|10=030|8=FIXT.1.1|9=57|35=0|34=80|49=MTFQA2APA|52=20180523-14:12:01.267|56=TRAX|10=022|8=FIXT.1.1|9=57|35=0|34=81|49=MTFQA2APA|52=20180523-14:12:31.268|56=TRAX|10=027|8=FIXT.1.1|9=57|35=0|34=82|49=MTFQA2APA|52=20180523-14:13:01.276|56=TRAX|10=025|8=FIXT.1.1|9=57|35=0|34=83|49=MTFQA2APA|52=20180523-14:13:31.278|56=TRAX|10=031|8=FIXT.1.1|9=57|35=0|34=84|49=MTFQA2APA|52=20180523-14:14:02.283|56=TRAX|10=027|8=FIXT.1.1|9=57|35=0|34=85|49=MTFQA2APA|52=20180523-14:14:33.270|56=TRAX|10=028|8=FIXT.1.1|9=57|35=0|34=86|49=MTFQA2APA|52=20180523-14:15:03.272|56=TRAX|10=029|8=FIXT.1.1|9=57|35=0|34=87|49=MTFQA2APA|52=20180523-14:15:33.276|56=TRAX|10=037|8=FIXT.1.1|9=57|35=0|34=88|49=MTFQA2APA|52=20180523-14:16:04.273|56=TRAX|10=034|8=FIXT.1.1|9=57|35=0|34=89|49=MTFQA2APA|52=20180523-14:16:34.282|56=TRAX|10=038|8=FIXT.1.1|9=57|35=0|34=90|49=MTFQA2APA|52=20180523-14:17:04.285|56=TRAX|10=031|8=FIXT.1.1|9=57|35=0|34=91|49=MTFQA2APA|52=20180523-14:17:34.286|56=TRAX|10=036|8=FIXT.1.1|9=57|35=0|34=92|49=MTFQA2APA|52=20180523-14:18:05.284|56=TRAX|10=034|8=FIXT.1.1|9=57|35=0|34=93|49=MTFQA2APA|52=20180523-14:18:36.227|56=TRAX|10=036|8=FIXT.1.1|9=57|35=0|34=94|49=MTFQA2APA|52=20180523-14:19:06.244|56=TRAX|10=034|8=FIXT.1.1|9=57|35=0|34=95|49=MTFQA2APA|52=20180523-14:19:37.243|56=TRAX|10=038|8=FIXT.1.1|9=57|35=0|34=96|49=MTFQA2APA|52=20180523-14:20:07.288|56=TRAX|10=037|8=FIXT.1.1|9=57|35=0|34=97|49=MTFQA2APA|52=20180523-14:20:38.244|56=TRAX|10=034|8=FIXT.1.1|9=57|35=0|34=98|49=MTFQA2APA|52=20180523-14:21:08.283|56=TRAX|10=036|8=FIXT.1.1|9=57|35=0|34=99|49=MTFQA2APA|52=20180523-14:21:39.284|56=TRAX|10=042|8=FIXT.1.1|9=58|35=0|34=100|49=MTFQA2APA|52=20180523-14:22:10.275|56=TRAX|10=064|8=FIXT.1.1|9=58|35=0|34=101|49=MTFQA2APA|52=20180523-14:22:40.285|56=TRAX|10=069|8=FIXT.1.1|9=58|35=0|34=102|49=MTFQA2APA|52=20180523-14:23:10.289|56=TRAX|10=072|8=FIXT.1.1|9=58|35=0|34=103|49=MTFQA2APA|52=20180523-14:23:41.278|56=TRAX|10=075|8=FIXT.1.1|9=58|35=0|34=104|49=MTFQA2APA|52=20180523-14:24:12.276|56=TRAX|10=073|8=FIXT.1.1|9=58|35=0|34=105|49=MTFQA2APA|52=20180523-14:24:42.290|56=TRAX|10=073|8=FIXT.1.1|9=58|35=0|34=106|49=MTFQA2APA|52=20180523-14:25:13.281|56=TRAX|10=073|8=FIXT.1.1|9=58|35=0|34=107|49=MTFQA2APA|52=20180523-14:25:43.286|56=TRAX|10=082|8=FIXT.1.1|9=58|35=0|34=108|49=MTFQA2APA|52=20180523-14:26:14.282|56=TRAX|10=078|8=FIXT.1.1|9=58|35=0|34=109|49=MTFQA2APA|52=20180523-14:26:45.293|56=TRAX|10=085|8=FIXT.1.1|9=58|35=0|34=110|49=MTFQA2APA|52=20180523-14:27:16.280|56=TRAX|10=072|8=FIXT.1.1|9=58|35=0|34=111|49=MTFQA2APA|52=20180523-14:27:46.290|56=TRAX|10=077|8=FIXT.1.1|9=58|35=0|34=112|49=MTFQA2APA|52=20180523-14:28:17.290|56=TRAX|10=077|8=FIXT.1.1|9=58|35=0|34=113|49=MTFQA2APA|52=20180523-14:28:47.292|56=TRAX|10=083|8=FIXT.1.1|9=58|35=0|34=114|49=MTFQA2APA|52=20180523-14:29:18.284|56=TRAX|10=084|8=FIXT.1.1|9=58|35=0|34=115|49=MTFQA2APA|52=20180523-14:29:49.276|56=TRAX|10=090|8=FIXT.1.1|9=58|35=0|34=116|49=MTFQA2APA|52=20180523-14:30:20.252|56=TRAX|10=066|8=FIXT.1.1|9=58|35=0|34=117|49=MTFQA2APA|52=20180523-14:30:50.270|56=TRAX|10=070|8=FIXT.1.1|9=58|35=0|34=118|49=MTFQA2APA|52=20180523-14:31:20.279|56=TRAX|10=078|8=FIXT.1.1|9=58|35=0|34=119|49=MTFQA2APA|52=20180523-14:31:51.275|56=TRAX|10=079|8=FIXT.1.1|9=58|35=0|34=120|49=MTFQA2APA|52=20180523-14:32:21.276|56=TRAX|10=070|8=FIXT.1.1|9=58|35=0|34=121|49=MTFQA2APA|52=20180523-14:32:51.277|56=TRAX|10=075|8=FIXT.1.1|9=58|35=0|34=122|49=MTFQA2APA|52=20180523-14:33:21.278|56=TRAX|10=075|8=FIXT.1.1|9=58|35=0|34=123|49=MTFQA2APA|52=20180523-14:33:51.279|56=TRAX|10=080|8=FIXT.1.1|9=58|35=0|34=124|49=MTFQA2APA|52=20180523-14:34:21.280|56=TRAX|10=071|8=FIXT.1.1|9=58|35=0|34=125|49=MTFQA2APA|52=20180523-14:34:51.281|56=TRAX|10=076|8=FIXT.1.1|9=58|35=0|34=126|49=MTFQA2APA|52=20180523-14:35:21.282|56=TRAX|10=076|8=FIXT.1.1|9=58|35=0|34=127|49=MTFQA2APA|52=20180523-14:35:51.297|56=TRAX|10=086|8=FIXT.1.1|9=58|35=0|34=128|49=MTFQA2APA|52=20180523-14:36:21.301|56=TRAX|10=071|8=FIXT.1.1|9=58|35=0|34=129|49=MTFQA2APA|52=20180523-14:36:52.299|56=TRAX|10=092|8=FIXT.1.1|9=58|35=0|34=130|49=MTFQA2APA|52=20180523-14:37:22.299|56=TRAX|10=082|8=FIXT.1.1|9=58|35=0|34=131|49=MTFQA2APA|52=20180523-14:37:53.291|56=TRAX|10=079|8=FIXT.1.1|9=58|35=0|34=132|49=MTFQA2APA|52=20180523-14:38:23.294|56=TRAX|10=081|8=FIXT.1.1|9=58|35=0|34=133|49=MTFQA2APA|52=20180523-14:38:54.304|56=TRAX|10=078|8=FIXT.1.1|9=58|35=0|34=134|49=MTFQA2APA|52=20180523-14:39:25.261|56=TRAX|10=080|8=FIXT.1.1|9=58|35=0|34=135|49=MTFQA2APA|52=20180523-14:39:55.299|56=TRAX|10=095|8=FIXT.1.1|9=58|35=0|34=136|49=MTFQA2APA|52=20180523-14:40:26.267|56=TRAX|10=081|8=FIXT.1.1|9=58|35=0|34=137|49=MTFQA2APA|52=20180523-14:40:56.294|56=TRAX|10=085|8=FIXT.1.1|9=58|35=0|34=138|49=MTFQA2APA|52=20180523-14:41:26.295|56=TRAX|10=085|8=FIXT.1.1|9=58|35=0|34=139|49=MTFQA2APA|52=20180523-14:41:56.300|56=TRAX|10=076|8=FIXT.1.1|9=58|35=0|34=140|49=MTFQA2APA|52=20180523-14:42:27.307|56=TRAX|10=074|8=FIXT.1.1|9=58|35=0|34=141|49=MTFQA2APA|52=20180523-14:42:58.299|56=TRAX|10=089|8=FIXT.1.1|9=58|35=0|34=142|49=MTFQA2APA|52=20180523-14:43:29.297|56=TRAX|10=087|8=FIXT.1.1|9=58|35=0|34=143|49=MTFQA2APA|52=20180523-14:44:00.297|56=TRAX|10=078|8=FIXT.1.1|9=58|35=0|34=144|49=MTFQA2APA|52=20180523-14:44:30.305|56=TRAX|10=072|8=FIXT.1.1|9=58|35=0|34=145|49=MTFQA2APA|52=20180523-14:45:00.305|56=TRAX|10=071|8=FIXT.1.1|9=58|35=0|34=146|49=MTFQA2APA|52=20180523-14:45:30.306|56=TRAX|10=076|8=FIXT.1.1|9=58|35=0|34=147|49=MTFQA2APA|52=20180523-14:46:00.308|56=TRAX|10=077|8=FIXT.1.1|9=58|35=0|34=148|49=MTFQA2APA|52=20180523-14:46:31.300|56=TRAX|10=074|8=FIXT.1.1|9=58|35=0|34=149|49=MTFQA2APA|52=20180523-14:47:02.299|56=TRAX|10=091|8=FIXT.1.1|9=58|35=0|34=150|49=MTFQA2APA|52=20180523-14:47:32.306|56=TRAX|10=075|8=FIXT.1.1|9=58|35=0|34=151|49=MTFQA2APA|52=20180523-14:48:02.309|56=TRAX|10=077|8=FIXT.1.1|9=58|35=0|34=152|49=MTFQA2APA|52=20180523-14:48:33.270|56=TRAX|10=079|8=FIXT.1.1|9=58|35=0|34=153|49=MTFQA2APA|52=20180523-14:49:03.311|56=TRAX|10=074|8=FIXT.1.1|9=58|35=0|34=154|49=MTFQA2APA|52=20180523-14:49:33.314|56=TRAX|10=081|8=FIXT.1.1|9=58|35=0|34=155|49=MTFQA2APA|52=20180523-14:50:04.301|56=TRAX|10=068|8=FIXT.1.1|9=58|35=0|34=156|49=MTFQA2APA|52=20180523-14:50:34.316|56=TRAX|10=078|8=FIXT.1.1|9=58|35=0|34=157|49=MTFQA2APA|52=20180523-14:51:05.312|56=TRAX|10=074|8=FIXT.1.1|9=58|35=0|34=158|49=MTFQA2APA|52=20180523-14:51:36.226|56=TRAX|10=083|8=FIXT.1.1|9=58|35=0|34=159|49=MTFQA2APA|52=20180523-14:52:06.238|56=TRAX|10=085|8=FIXT.1.1|9=58|35=0|34=160|49=MTFQA2APA|52=20180523-14:52:36.318|56=TRAX|10=079|8=FIXT.1.1|9=58|35=0|34=161|49=MTFQA2APA|52=20180523-14:53:07.312|56=TRAX|10=073|8=FIXT.1.1|9=58|35=0|34=162|49=MTFQA2APA|52=20180523-14:53:37.317|56=TRAX|10=082|8=FIXT.1.1|9=58|35=0|34=163|49=MTFQA2APA|52=20180523-14:54:08.276|56=TRAX|10=086|8=FIXT.1.1|9=58|35=0|34=164|49=MTFQA2APA|52=20180523-14:54:38.320|56=TRAX|10=080|8=FIXT.1.1|9=58|35=0|34=165|49=MTFQA2APA|52=20180523-14:55:08.321|56=TRAX|10=080|8=FIXT.1.1|9=58|35=0|34=166|49=MTFQA2APA|52=20180523-14:55:39.309|56=TRAX|10=091|8=FIXT.1.1|9=58|35=0|34=167|49=MTFQA2APA|52=20180523-14:56:10.322|56=TRAX|10=077|8=FIXT.1.1|9=58|35=0|34=168|49=MTFQA2APA|52=20180523-14:56:41.314|56=TRAX|10=083|8=FIXT.1.1|9=58|35=0|34=169|49=MTFQA2APA|52=20180523-14:57:11.315|56=TRAX|10=083|8=FIXT.1.1|9=58|35=0|34=170|49=MTFQA2APA|52=20180523-14:57:41.316|56=TRAX|10=079|8=FIXT.1.1|9=58|35=0|34=171|49=MTFQA2APA|52=20180523-14:58:12.311|56=TRAX|10=074|8=FIXT.1.1|9=58|35=0|34=172|49=MTFQA2APA|52=20180523-14:58:42.314|56=TRAX|10=081|8=FIXT.1.1|9=58|35=0|34=173|49=MTFQA2APA|52=20180523-14:59:13.313|56=TRAX|10=080|8=FIXT.1.1|9=58|35=0|34=174|49=MTFQA2APA|52=20180523-14:59:43.325|56=TRAX|10=087|8=FIXT.1.1|9=58|35=0|34=175|49=MTFQA2APA|52=20180523-15:00:14.319|56=TRAX|10=076|8=FIXT.1.1|9=58|35=0|34=176|49=MTFQA2APA|52=20180523-15:00:44.322|56=TRAX|10=074|8=FIXT.1.1|9=58|35=0|34=177|49=MTFQA2APA|52=20180523-15:01:15.312|56=TRAX|10=073|8=FIXT.1.1|9=58|35=0|34=178|49=MTFQA2APA|52=20180523-15:01:45.315|56=TRAX|10=080|8=FIXT.1.1|9=58|35=0|34=179|49=MTFQA2APA|52=20180523-15:02:15.317|56=TRAX|10=081|8=FIXT.1.1|9=58|35=0|34=180|49=MTFQA2APA|52=20180523-15:02:45.318|56=TRAX|10=077|8=FIXT.1.1|9=58|35=0|34=181|49=MTFQA2APA|52=20180523-15:03:15.319|56=TRAX|10=077|8=FIXT.1.1|9=58|35=0|34=182|49=MTFQA2APA|52=20180523-15:03:45.325|56=TRAX|10=078|8=FIXT.1.1|9=58|35=0|34=183|49=MTFQA2APA|52=20180523-15:04:15.326|56=TRAX|10=078|8=FIXT.1.1|9=58|35=0|34=184|49=MTFQA2APA|52=20180523-15:04:45.329|56=TRAX|10=085|8=FIXT.1.1|9=58|35=0|34=185|49=MTFQA2APA|52=20180523-15:05:15.332|56=TRAX|10=078|8=FIXT.1.1|9=58|35=0|34=186|49=MTFQA2APA|52=20180523-15:05:46.322|56=TRAX|10=082|8=FIXT.1.1|9=58|35=0|34=187|49=MTFQA2APA|52=20180523-15:06:16.324|56=TRAX|10=083|8=FIXT.1.1|9=58|35=0|34=188|49=MTFQA2APA|52=20180523-15:06:47.320|56=TRAX|10=084|8=FIXT.1.1|9=58|35=0|34=189|49=MTFQA2APA|52=20180523-15:07:17.322|56=TRAX|10=085|8=FIXT.1.1|9=58|35=0|34=190|49=MTFQA2APA|52=20180523-15:07:47.335|56=TRAX|10=084|8=FIXT.1.1|9=58|35=0|34=191|49=MTFQA2APA|52=20180523-15:08:18.332|56=TRAX|10=081|8=FIXT.1.1|9=58|35=0|34=192|49=MTFQA2APA|52=20180523-15:08:49.329|56=TRAX|10=092|8=FIXT.1.1|9=58|35=0|34=193|49=MTFQA2APA|52=20180523-15:09:19.329|56=TRAX|10=091|8=FIXT.1.1|9=58|35=0|34=194|49=MTFQA2APA|52=20180523-15:09:50.324|56=TRAX|10=082|8=FIXT.1.1|9=58|35=0|34=195|49=MTFQA2APA|52=20180523-15:10:20.325|56=TRAX|10=073|8=FIXT.1.1|9=58|35=0|34=196|49=MTFQA2APA|52=20180523-15:10:50.326|56=TRAX|10=078|8=FIXT.1.1|9=58|35=0|34=197|49=MTFQA2APA|52=20180523-15:11:20.331|56=TRAX|10=073|8=FIXT.1.1|9=58|35=0|34=198|49=MTFQA2APA|52=20180523-15:11:50.332|56=TRAX|10=078|8=FIXT.1.1|9=58|35=0|34=199|49=MTFQA2APA|52=20180523-15:12:20.341|56=TRAX|10=077|8=FIXT.1.1|9=58|35=0|34=200|49=MTFQA2APA|52=20180523-15:12:51.335|56=TRAX|10=067|8=FIXT.1.1|9=58|35=0|34=201|49=MTFQA2APA|52=20180523-15:13:22.329|56=TRAX|10=070|8=FIXT.1.1|9=58|35=0|34=202|49=MTFQA2APA|52=20180523-15:13:52.336|56=TRAX|10=072|8=FIXT.1.1|9=58|35=0|34=203|49=MTFQA2APA|52=20180523-15:14:22.338|56=TRAX|10=073|8=FIXT.1.1|9=58|35=0|34=204|49=MTFQA2APA|52=20180523-15:14:53.329|56=TRAX|10=078|8=FIXT.1.1|9=58|35=0|34=205|49=MTFQA2APA|52=20180523-15:15:23.344|56=TRAX|10=074|8=FIXT.1.1|9=58|35=0|34=206|49=MTFQA2APA|52=20180523-15:15:53.344|56=TRAX|10=078|8=FIXT.1.1|9=58|35=0|34=207|49=MTFQA2APA|52=20180523-15:16:24.332|56=TRAX|10=075|8=FIXT.1.1|9=58|35=0|34=208|49=MTFQA2APA|52=20180523-15:16:54.342|56=TRAX|10=080|8=FIXT.1.1|9=58|35=0|34=209|49=MTFQA2APA|52=20180523-15:17:25.337|56=TRAX|10=084|8=FIXT.1.1|9=58|35=0|34=210|49=MTFQA2APA|52=20180523-15:17:55.343|56=TRAX|10=076|8=FIXT.1.1|9=58|35=0|34=211|49=MTFQA2APA|52=20180523-15:18:25.345|56=TRAX|10=077|8=FIXT.1.1|9=58|35=0|34=212|49=MTFQA2APA|52=20180523-15:18:56.340|56=TRAX|10=077|8=FIXT.1.1|9=58|35=0|34=213|49=MTFQA2APA|52=20180523-15:19:26.345|56=TRAX|10=081|8=FIXT.1.1|9=58|35=0|34=214|49=MTFQA2APA|52=20180523-15:19:57.337|56=TRAX|10=087|8=FIXT.1.1|9=58|35=0|34=215|49=MTFQA2APA|52=20180523-15:20:27.339|56=TRAX|10=079|8=FIXT.1.1|9=58|35=0|34=216|49=MTFQA2APA|52=20180523-15:20:57.339|56=TRAX|10=083|8=FIXT.1.1|9=58|35=0|34=217|49=MTFQA2APA|52=20180523-15:21:27.344|56=TRAX|10=078|8=FIXT.1.1|9=58|35=0|34=218|49=MTFQA2APA|52=20180523-15:21:57.346|56=TRAX|10=084|8=FIXT.1.1|9=58|35=0|34=219|49=MTFQA2APA|52=20180523-15:22:28.236|56=TRAX|10=082|8=FIXT.1.1|9=58|35=0|34=220|49=MTFQA2APA|52=20180523-15:22:58.248|56=TRAX|10=080|8=FIXT.1.1|9=58|35=0|34=221|49=MTFQA2APA|52=20180523-15:23:28.349|56=TRAX|10=081|8=FIXT.1.1|9=58|35=0|34=222|49=MTFQA2APA|52=20180523-15:23:58.353|56=TRAX|10=080|8=FIXT.1.1|9=58|35=0|34=223|49=MTFQA2APA|52=20180523-15:24:29.346|56=TRAX|10=082|8=FIXT.1.1|9=58|35=0|34=224|49=MTFQA2APA|52=20180523-15:25:00.342|56=TRAX|10=069|8=FIXT.1.1|9=58|35=0|34=225|49=MTFQA2APA|52=20180523-15:25:30.354|56=TRAX|10=076|8=FIXT.1.1|9=58|35=0|34=226|49=MTFQA2APA|52=20180523-15:26:01.342|56=TRAX|10=073|8=FIXT.1.1|9=58|35=0|34=227|49=MTFQA2APA|52=20180523-15:26:31.343|56=TRAX|10=078|8=FIXT.1.1|9=58|35=0|34=228|49=MTFQA2APA|52=20180523-15:27:01.349|56=TRAX|10=083|8=FIXT.1.1|9=58|35=0|34=229|49=MTFQA2APA|52=20180523-15:27:31.351|56=TRAX|10=080|8=FIXT.1.1|9=58|35=0|34=230|49=MTFQA2APA|52=20180523-15:28:01.357|56=TRAX|10=076|8=FIXT.1.1|9=58|35=0|34=231|49=MTFQA2APA|52=20180523-15:28:32.352|56=TRAX|10=076|8=FIXT.1.1|9=58|35=0|34=232|49=MTFQA2APA|52=20180523-15:29:02.353|56=TRAX|10=076|8=FIXT.1.1|9=58|35=0|34=233|49=MTFQA2APA|52=20180523-15:29:32.358|56=TRAX|10=085|8=FIXT.1.1|9=58|35=0|34=234|49=MTFQA2APA|52=20180523-15:30:03.353|56=TRAX|10=071|8=FIXT.1.1|9=58|35=0|34=235|49=MTFQA2APA|52=20180523-15:30:33.357|56=TRAX|10=079|8=FIXT.1.1|9=58|35=0|34=236|49=MTFQA2APA|52=20180523-15:31:03.363|56=TRAX|10=075|8=FIXT.1.1|9=58|35=0|34=237|49=MTFQA2APA|52=20180523-15:31:34.318|56=TRAX|10=080|8=FIXT.1.1|9=58|35=0|34=238|49=MTFQA2APA|52=20180523-15:32:04.318|56=TRAX|10=079|8=FIXT.1.1|9=58|35=0|34=239|49=MTFQA2APA|52=20180523-15:32:34.318|56=TRAX|10=083|8=FIXT.1.1|9=58|35=0|34=240|49=MTFQA2APA|52=20180523-15:33:04.339|56=TRAX|10=076|8=FIXT.1.1|9=58|35=0|34=241|49=MTFQA2APA|52=20180523-15:33:34.342|56=TRAX|10=074|8=FIXT.1.1|9=366|35=AE|34=242|49=MTFQA2APA|50=APA|52=20180523-15:34:03.657|56=TRAX|57=APA|1128=6|571=10|1041=testReferenceZ12|22806=NewVersion|487=0|939=0|325=Y|423=1|1116=2|1117=19PFVVJYI4C4JRY16X73|1118=N|1119=116|1117=1128SIJQ26096WL7IO82|1118=N|1119=1|48=PBPRAVEEN812|22=4|854=0|32=100|31=100|15=EUR|60=20180522-11:30:30|22600=100|22601=EUR|1924=1|552=1|54=1|1057=N|29=1|30=MAEL|10=230|8=FIXT.1.1|9=366|35=AE|34=243|49=MTFQA2APA|50=APA|52=20180523-15:34:15.590|56=TRAX|57=APA|1128=6|571=10|1041=testReferenceZ13|22806=NewVersion|487=0|939=0|325=Y|423=1|1116=2|1117=19PFVVJYI4C4JRY16X73|1118=N|1119=116|1117=1128SIJQ26096WL7IO82|1118=N|1119=1|48=PBPRAVEEN812|22=4|854=0|32=100|31=100|15=EUR|60=20180522-11:30:30|22600=100|22601=EUR|1924=1|552=1|54=1|1057=N|29=1|30=MAEL|10=231|8=FIXT.1.1|9=58|35=0|34=244|49=MTFQA2APA|52=20180523-15:34:46.240|56=TRAX|10=078|8=FIXT.1.1|9=366|35=AE|34=245|49=MTFQA2APA|50=APA|52=20180523-15:34:57.809|56=TRAX|57=APA|1128=6|571=10|1041=testReferenceZ14|22806=NewVersion|487=0|939=0|325=Y|423=1|1116=2|1117=19PFVVJYI4C4JRY16X73|1118=N|1119=116|1117=1128SIJQ26096WL7IO82|1118=N|1119=1|48=PBPRAVEEN812|22=4|854=0|32=100|31=100|15=EUR|60=20180522-11:30:30|22600=100|22601=EUR|1924=1|552=1|54=1|1057=Y|29=1|30=MAEL|10=254|8=FIXT.1.1|9=58|35=0|34=246|49=MTFQA2APA|52=20180523-15:35:28.347|56=TRAX|10=089|8=FIXT.1.1|9=58|35=0|34=247|49=MTFQA2APA|52=20180523-15:35:59.230|56=TRAX|10=085|8=FIXT.1.1|9=373|35=AE|34=248|49=MTFQA2APA|50=APA|52=20180523-15:36:17.454|56=TRAX|57=APA|1128=6|571=10|1041=testReferenceZ15|22806=NewVersion|487=0|939=0|325=Y|423=1|1116=2|1117=19PFVVJYI4C4JRY16X73|1118=N|1119=116|1117=1128SIJQ26096WL7IO82|1118=N|1119=1|2388=1|48=PBPRAVEEN812|22=4|854=0|32=100|31=100|15=EUR|60=20180522-11:30:30|22600=100|22601=EUR|1924=1|552=1|54=1|1057=Y|29=1|30=MAEL|10=062|8=FIXT.1.1|9=67|35=0|34=249|49=MTFQA2APA|52=20180523-15:36:45.226|56=TRAX|112=TEST|10=106|8=FIXT.1.1|9=58|35=0|34=250|49=MTFQA2APA|52=20180523-15:37:15.235|56=TRAX|10=078|8=FIXT.1.1|9=373|35=AE|34=251|49=MTFQA2APA|50=APA|52=20180523-15:37:18.107|56=TRAX|57=APA|1128=6|571=10|1041=testReferenceZ15|22806=NewVersion|487=0|939=0|325=Y|423=1|1116=2|1117=19PFVVJYI4C4JRY16X73|1118=N|1119=116|1117=1128SIJQ26096WL7IO82|1118=N|1119=1|2388=1|48=PBPRAVEEN812|22=4|854=0|32=100|31=100|15=EUR|60=20180522-11:30:30|22600=100|22601=EUR|1924=1|552=1|54=1|1057=Y|29=1|30=MAEL|10=053|8=FIXT.1.1|9=58|35=0|34=252|49=MTFQA2APA|52=20180523-15:37:48.239|56=TRAX|10=090|8=FIXT.1.1|9=58|35=0|34=253|49=MTFQA2APA|52=20180523-15:38:18.344|56=TRAX|10=086|8=FIXT.1.1|9=58|35=0|34=254|49=MTFQA2APA|52=20180523-15:38:48.351|56=TRAX|10=088|8=FIXT.1.1|9=58|35=0|34=255|49=MTFQA2APA|52=20180523-15:39:19.343|56=TRAX|10=089|8=FIXT.1.1|9=58|35=0|34=256|49=MTFQA2APA|52=20180523-15:39:50.347|56=TRAX|10=089|8=FIXT.1.1|9=58|35=0|34=257|49=MTFQA2APA|52=20180523-15:40:20.352|56=TRAX|10=075|8=FIXT.1.1|9=374|35=AE|34=258|49=MTFQA2APA|50=APA|52=20180523-15:40:27.846|56=TRAX|57=APA|1128=6|571=10|1041=testReferenceZ15|22806=NewVersion|487=0|939=0|325=Y|423=1|1116=2|1117=19PFVVJYI4C4JRY16X73|1118=N|1119=116|1117=1128SIJQ26096WL7IO82|1118=N|1119=1|48=PBPRAVEEN812|22=4|854=0|32=100|31=100|15=EUR|60=20180522-11:30:30|22600=100|22601=EUR|22688=5|1924=1|552=1|54=1|1057=Y|29=1|30=MAEL|10=122|8=FIXT.1.1|9=58|35=0|34=259|49=MTFQA2APA|52=20180523-15:40:58.220|56=TRAX|10=082|8=FIXT.1.1|9=374|35=AE|34=260|49=MTFQA2APA|50=APA|52=20180523-15:41:26.431|56=TRAX|57=APA|1128=6|571=10|1041=testReferenceZ15|22806=NewVersion|487=0|939=0|325=Y|423=1|1116=2|1117=19PFVVJYI4C4JRY16X73|1118=N|1119=116|1117=1128SIJQ26096WL7IO82|1118=N|1119=1|22688=5|48=PBPRAVEEN812|22=4|854=0|32=100|31=100|15=EUR|60=20180522-11:30:30|22600=100|22601=EUR|1924=1|552=1|54=1|1057=Y|29=1|30=MAEL|10=105|8=FIXT.1.1|9=58|35=0|34=261|49=MTFQA2APA|52=20180523-15:41:57.233|56=TRAX|10=079|8=FIXT.1.1|9=374|35=AE|34=262|49=MTFQA2APA|50=APA|52=20180523-15:42:02.306|56=TRAX|57=APA|1128=6|571=10|1041=testReferenceZ15|22806=NewVersion|487=0|939=0|325=Y|423=1|1116=2|1117=19PFVVJYI4C4JRY16X73|1118=N|1119=116|1117=1128SIJQ26096WL7IO82|1118=N|1119=1|22688=4|48=PBPRAVEEN812|22=4|854=0|32=100|31=100|15=EUR|60=20180522-11:30:30|22600=100|22601=EUR|1924=1|552=1|54=1|1057=Y|29=1|30=MAEL|10=102|8=FIXT.1.1|9=374|35=AE|34=263|49=MTFQA2APA|50=APA|52=20180523-15:42:17.371|56=TRAX|57=APA|1128=6|571=10|1041=testReferenceZ16|22806=NewVersion|487=0|939=0|325=Y|423=1|1116=2|1117=19PFVVJYI4C4JRY16X73|1118=N|1119=116|1117=1128SIJQ26096WL7IO82|1118=N|1119=1|22688=4|48=PBPRAVEEN812|22=4|854=0|32=100|31=100|15=EUR|60=20180522-11:30:30|22600=100|22601=EUR|1924=1|552=1|54=1|1057=Y|29=1|30=MAEL|10=112|8=FIXT.1.1|9=58|35=0|34=264|49=MTFQA2APA|52=20180523-15:42:48.238|56=TRAX|10=088|8=FIXT.1.1|9=58|35=0|34=265|49=MTFQA2APA|52=20180523-15:43:18.347|56=TRAX|10=088|8=FIXT.1.1|9=374|35=AE|34=266|49=MTFQA2APA|50=APA|52=20180523-15:43:37.704|56=TRAX|57=APA|1128=6|571=10|1041=testReferenceZ17|22806=NewVersion|487=0|939=0|325=Y|423=1|1116=2|1117=19PFVVJYI4C4JRY16X73|1118=N|1119=116|1117=1128SIJQ26096WL7IO82|1118=N|1119=1|22688=5|48=PBPRAVEEN812|22=4|854=0|32=100|31=100|15=EUR|60=20180522-11:30:30|22600=100|22601=EUR|1924=1|552=1|54=1|1057=Y|29=1|30=MAEL|10=120|8=FIXT.1.1|9=374|35=AE|34=267|49=MTFQA2APA|50=APA|52=20180523-15:43:55.471|56=TRAX|57=APA|1128=6|571=10|1041=testReferenceZ18|22806=NewVersion|487=0|939=0|325=Y|423=1|1116=2|1117=19PFVVJYI4C4JRY16X73|1118=N|1119=116|1117=1128SIJQ26096WL7IO82|1118=N|1119=1|22688=5|48=PBPRAVEEN812|22=4|854=0|32=100|31=100|15=EUR|60=20180522-11:30:30|22600=100|22601=EUR|1924=1|552=1|54=1|1057=Y|29=1|30=XXXX|10=188|8=FIXT.1.1|9=374|35=AE|34=268|49=MTFQA2APA|50=APA|52=20180523-15:44:12.176|56=TRAX|57=APA|1128=6|571=10|1041=testReferenceZ19|22806=NewVersion|487=0|939=0|325=Y|423=1|1116=2|1117=19PFVVJYI4C4JRY16X73|1118=N|1119=116|1117=1128SIJQ26096WL7IO82|1118=N|1119=1|22688=5|48=PBPRAVEEN812|22=4|854=0|32=100|31=100|15=EUR|60=20180522-11:30:30|22600=100|22601=EUR|1924=1|552=1|54=1|1057=Y|29=1|30=XOFF|10=141|8=FIXT.1.1|9=58|35=0|34=269|49=MTFQA2APA|52=20180523-15:44:42.328|56=TRAX|10=089|8=FIXT.1.1|9=58|35=0|34=270|49=MTFQA2APA|52=20180523-15:45:12.354|56=TRAX|10=078|8=FIXT.1.1|9=374|35=AE|34=271|49=MTFQA2APA|50=APA|52=20180523-15:45:28.048|56=TRAX|57=APA|1128=6|571=10|1041=testReferenceZ20|22806=NewVersion|487=0|939=0|325=Y|423=1|1116=2|1117=19PFVVJYI4C4JRY16X73|1118=N|1119=116|1117=1128SIJQ26096WL7IO82|1118=N|1119=1|22688=1|48=PBPRAVEEN812|22=4|854=0|32=100|31=100|15=EUR|60=20180522-11:30:30|22600=100|22601=EUR|1924=1|552=1|54=1|1057=Y|29=1|30=XOFF|10=129|8=FIXT.1.1|9=374|35=AE|34=272|49=MTFQA2APA|50=APA|52=20180523-15:45:47.589|56=TRAX|57=APA|1128=6|571=10|1041=testReferenceZ21|22806=NewVersion|487=0|939=0|325=Y|423=1|1116=2|1117=19PFVVJYI4C4JRY16X73|1118=N|1119=116|1117=1128SIJQ26096WL7IO82|1118=N|1119=1|22688=2|48=PBPRAVEEN812|22=4|854=0|32=100|31=100|15=EUR|60=20180522-11:30:30|22600=100|22601=EUR|1924=1|552=1|54=1|1057=Y|29=1|30=XOFF|10=143|8=FIXT.1.1|9=374|35=AE|34=273|49=MTFQA2APA|50=APA|52=20180523-15:46:07.370|56=TRAX|57=APA|1128=6|571=10|1041=testReferenceZ22|22806=NewVersion|487=0|939=0|325=Y|423=1|1116=2|1117=19PFVVJYI4C4JRY16X73|1118=N|1119=116|1117=1128SIJQ26096WL7IO82|1118=N|1119=1|22688=3|48=PBPRAVEEN812|22=4|854=0|32=100|31=100|15=EUR|60=20180522-11:30:30|22600=100|22601=EUR|1924=1|552=1|54=1|1057=Y|29=1|30=XOFF|10=131|8=FIXT.1.1|9=374|35=AE|34=274|49=MTFQA2APA|50=APA|52=20180523-15:46:26.930|56=TRAX|57=APA|1128=6|571=10|1041=testReferenceZ23|22806=NewVersion|487=0|939=0|325=Y|423=1|1116=2|1117=19PFVVJYI4C4JRY16X73|1118=N|1119=116|1117=1128SIJQ26096WL7IO82|1118=N|1119=1|22688=4|48=PBPRAVEEN812|22=4|854=0|32=100|31=100|15=EUR|60=20180522-11:30:30|22600=100|22601=EUR|1924=1|552=1|54=1|1057=Y|29=1|30=XOFF|10=137|8=FIXT.1.1|9=58|35=0|34=275|49=MTFQA2APA|52=20180523-15:46:57.219|56=TRAX|10=093|8=FIXT.1.1|9=58|35=0|34=276|49=MTFQA2APA|52=20180523-15:47:27.329|56=TRAX|10=094|8=FIXT.1.1|9=58|35=0|34=277|49=MTFQA2APA|52=20180523-15:47:57.329|56=TRAX|10=098|8=FIXT.1.1|9=58|35=0|34=278|49=MTFQA2APA|52=20180523-15:48:27.348|56=TRAX|10=098|8=FIXT.1.1|9=58|35=0|34=279|49=MTFQA2APA|52=20180523-15:48:57.351|56=TRAX|10=096|8=FIXT.1.1|9=58|35=0|34=280|49=MTFQA2APA|52=20180523-15:49:28.349|56=TRAX|10=094|8=FIXT.1.1|9=58|35=0|34=281|49=MTFQA2APA|52=20180523-15:49:58.356|56=TRAX|10=096|8=FIXT.1.1|9=58|35=0|34=282|49=MTFQA2APA|52=20180523-15:50:29.351|56=TRAX|10=082|8=FIXT.1.1|9=58|35=0|34=283|49=MTFQA2APA|52=20180523-15:50:59.351|56=TRAX|10=086|8=FIXT.1.1|9=58|35=0|34=284|49=MTFQA2APA|52=20180523-15:51:29.356|56=TRAX|10=090|8=FIXT.1.1|9=58|35=0|34=285|49=MTFQA2APA|52=20180523-15:51:59.358|56=TRAX|10=096|8=FIXT.1.1|9=58|35=0|34=286|49=MTFQA2APA|52=20180523-15:52:29.360|56=TRAX|10=088|8=FIXT.1.1|9=58|35=0|34=287|49=MTFQA2APA|52=20180523-15:53:00.354|56=TRAX|10=082|8=FIXT.1.1|9=58|35=0|34=288|49=MTFQA2APA|52=20180523-15:53:30.363|56=TRAX|10=086|8=FIXT.1.1|9=58|35=0|34=289|49=MTFQA2APA|52=20180523-15:54:00.363|56=TRAX|10=085|8=FIXT.1.1|9=58|35=0|34=290|49=MTFQA2APA|52=20180523-15:54:30.363|56=TRAX|10=080|8=FIXT.1.1|9=58|35=0|34=291|49=MTFQA2APA|52=20180523-15:55:01.361|56=TRAX|10=078|8=FIXT.1.1|9=58|35=0|34=292|49=MTFQA2APA|52=20180523-15:55:31.361|56=TRAX|10=082|8=FIXT.1.1|9=58|35=0|34=293|49=MTFQA2APA|52=20180523-15:56:01.380|56=TRAX|10=082|8=FIXT.1.1|9=58|35=0|34=294|49=MTFQA2APA|52=20180523-15:56:31.382|56=TRAX|10=088|8=FIXT.1.1|9=58|35=0|34=295|49=MTFQA2APA|52=20180523-15:57:02.376|56=TRAX|10=091|8=FIXT.1.1|9=58|35=0|34=296|49=MTFQA2APA|52=20180523-15:57:32.376|56=TRAX|10=095|8=FIXT.1.1|9=58|35=0|34=297|49=MTFQA2APA|52=20180523-15:58:03.373|56=TRAX|10=092|8=FIXT.1.1|9=58|35=0|34=298|49=MTFQA2APA|52=20180523-15:58:34.385|56=TRAX|10=100|8=FIXT.1.1|9=58|35=0|34=299|49=MTFQA2APA|52=20180523-15:59:05.373|56=TRAX|10=097|8=FIXT.1.1|9=58|35=0|34=300|49=MTFQA2APA|52=20180523-15:59:35.374|56=TRAX|10=084|8=FIXT.1.1|9=58|35=0|34=301|49=MTFQA2APA|52=20180523-16:00:05.375|56=TRAX|10=070|8=FIXT.1.1|9=58|35=0|34=302|49=MTFQA2APA|52=20180523-16:00:36.388|56=TRAX|10=079|8=FIXT.1.1|9=58|35=0|34=303|49=MTFQA2APA|52=20180523-16:01:07.378|56=TRAX|10=078|8=FIXT.1.1|9=58|35=0|34=304|49=MTFQA2APA|52=20180523-16:01:38.377|56=TRAX|10=082|8=FIXT.1.1|9=58|35=0|34=305|49=MTFQA2APA|52=20180523-16:02:08.378|56=TRAX|10=082|8=FIXT.1.1|9=58|35=0|34=306|49=MTFQA2APA|52=20180523-16:02:38.386|56=TRAX|10=085|8=FIXT.1.1|9=58|35=0|34=307|49=MTFQA2APA|52=20180523-16:03:08.392|56=TRAX|10=081|8=FIXT.1.1|9=58|35=0|34=308|49=MTFQA2APA|52=20180523-16:03:39.392|56=TRAX|10=086|8=FIXT.1.1|9=58|35=0|34=309|49=MTFQA2APA|52=20180523-16:04:10.385|56=TRAX|10=079|8=FIXT.1.1|9=58|35=0|34=310|49=MTFQA2APA|52=20180523-16:04:40.391|56=TRAX|10=071|8=FIXT.1.1|9=58|35=0|34=311|49=MTFQA2APA|52=20180523-16:05:11.389|56=TRAX|10=078|8=FIXT.1.1|9=58|35=0|34=312|49=MTFQA2APA|52=20180523-16:05:42.388|56=TRAX|10=082|8=FIXT.1.1|9=58|35=0|34=313|49=MTFQA2APA|52=20180523-16:06:13.394|56=TRAX|10=079|8=FIXT.1.1|9=58|35=0|34=314|49=MTFQA2APA|52=20180523-16:06:44.382|56=TRAX|10=081|8=FIXT.1.1|9=58|35=0|34=315|49=MTFQA2APA|52=20180523-16:07:14.388|56=TRAX|10=086|8=FIXT.1.1|9=58|35=0|34=316|49=MTFQA2APA|52=20180523-16:07:45.384|56=TRAX|10=087|8=FIXT.1.1|9=58|35=0|34=317|49=MTFQA2APA|52=20180523-16:08:15.390|56=TRAX|10=083|8=FIXT.1.1|9=58|35=0|34=318|49=MTFQA2APA|52=20180523-16:08:45.394|56=TRAX|10=091|8=FIXT.1.1|9=58|35=0|34=319|49=MTFQA2APA|52=20180523-16:09:15.396|56=TRAX|10=092|8=FIXT.1.1|9=58|35=0|34=320|49=MTFQA2APA|52=20180523-16:09:46.390|56=TRAX|10=082|8=FIXT.1.1|9=58|35=0|34=321|49=MTFQA2APA|52=20180523-16:10:17.386|56=TRAX|10=078|8=FIXT.1.1|9=58|35=0|34=322|49=MTFQA2APA|52=20180523-16:10:47.393|56=TRAX|10=080|8=FIXT.1.1|9=58|35=0|34=323|49=MTFQA2APA|52=20180523-16:11:17.394|56=TRAX|10=080|8=FIXT.1.1|9=58|35=0|34=324|49=MTFQA2APA|52=20180523-16:11:47.400|56=TRAX|10=072|8=FIXT.1.1|9=58|35=0|34=325|49=MTFQA2APA|52=20180523-16:12:18.388|56=TRAX|10=087|8=FIXT.1.1|9=58|35=0|34=326|49=MTFQA2APA|52=20180523-16:12:48.390|56=TRAX|10=084|8=FIXT.1.1|9=58|35=0|34=327|49=MTFQA2APA|52=20180523-16:13:18.400|56=TRAX|10=075|8=FIXT.1.1|9=58|35=0|34=328|49=MTFQA2APA|52=20180523-16:13:49.404|56=TRAX|10=084|8=FIXT.1.1|9=58|35=0|34=329|49=MTFQA2APA|52=20180523-16:14:20.402|56=TRAX|10=073|8=FIXT.1.1|9=58|35=0|34=330|49=MTFQA2APA|52=20180523-16:14:51.404|56=TRAX|10=071|8=FIXT.1.1|9=58|35=0|34=331|49=MTFQA2APA|52=20180523-16:15:21.405|56=TRAX|10=071|8=FIXT.1.1|9=58|35=0|34=332|49=MTFQA2APA|52=20180523-16:15:52.251|56=TRAX|10=075|8=FIXT.1.1|9=58|35=0|34=333|49=MTFQA2APA|52=20180523-16:16:22.397|56=TRAX|10=085|8=FIXT.1.1|9=58|35=0|34=334|49=MTFQA2APA|52=20180523-16:16:52.399|56=TRAX|10=091|8=FIXT.1.1|9=58|35=0|34=335|49=MTFQA2APA|52=20180523-16:17:22.402|56=TRAX|10=075|8=FIXT.1.1|9=58|35=0|34=336|49=MTFQA2APA|52=20180523-16:17:53.400|56=TRAX|10=078|8=FIXT.1.1|9=58|35=0|34=337|49=MTFQA2APA|52=20180523-16:18:23.400|56=TRAX|10=077|8=FIXT.1.1|9=58|35=0|34=338|49=MTFQA2APA|52=20180523-16:18:54.409|56=TRAX|10=091|8=FIXT.1.1|9=58|35=0|34=339|49=MTFQA2APA|52=20180523-16:19:25.397|56=TRAX|10=097|8=FIXT.1.1|9=58|35=0|34=340|49=MTFQA2APA|52=20180523-16:19:55.409|56=TRAX|10=086|8=FIXT.1.1|9=58|35=0|34=341|49=MTFQA2APA|52=20180523-16:20:26.406|56=TRAX|10=074|8=FIXT.1.1|9=58|35=0|34=342|49=MTFQA2APA|52=20180523-16:20:57.411|56=TRAX|10=075|8=FIXT.1.1|9=58|35=0|34=343|49=MTFQA2APA|52=20180523-16:21:28.412|56=TRAX|10=076|8=FIXT.1.1|9=58|35=0|34=344|49=MTFQA2APA|52=20180523-16:21:59.402|56=TRAX|10=080|8=FIXT.1.1|9=58|35=0|34=345|49=MTFQA2APA|52=20180523-16:22:29.402|56=TRAX|10=079|8=FIXT.1.1|9=58|35=0|34=346|49=MTFQA2APA|52=20180523-16:22:59.405|56=TRAX|10=086|8=FIXT.1.1|9=58|35=0|34=347|49=MTFQA2APA|52=20180523-16:23:29.413|56=TRAX|10=084|8=FIXT.1.1|9=58|35=0|34=348|49=MTFQA2APA|52=20180523-16:24:00.408|56=TRAX|10=079|8=FIXT.1.1|9=58|35=0|34=349|49=MTFQA2APA|52=20180523-16:24:31.403|56=TRAX|10=079|8=FIXT.1.1|9=58|35=0|34=350|49=MTFQA2APA|52=20180523-16:25:02.416|56=TRAX|10=074|8=FIXT.1.1|9=58|35=0|34=351|49=MTFQA2APA|52=20180523-16:25:33.403|56=TRAX|10=075|8=FIXT.1.1|9=58|35=0|34=352|49=MTFQA2APA|52=20180523-16:26:03.418|56=TRAX|10=080|8=FIXT.1.1|9=58|35=0|34=353|49=MTFQA2APA|52=20180523-16:26:34.414|56=TRAX|10=081|8=FIXT.1.1|9=58|35=0|34=354|49=MTFQA2APA|52=20180523-16:27:04.414|56=TRAX|10=080|8=FIXT.1.1|9=58|35=0|34=355|49=MTFQA2APA|52=20180523-16:27:35.410|56=TRAX|10=081|8=FIXT.1.1|9=58|35=0|34=356|49=MTFQA2APA|52=20180523-16:28:06.420|56=TRAX|10=082|8=FIXT.1.1|9=58|35=0|34=357|49=MTFQA2APA|52=20180523-16:28:37.413|56=TRAX|10=089|8=FIXT.1.1|9=58|35=0|34=358|49=MTFQA2APA|52=20180523-16:29:07.414|56=TRAX|10=089|8=FIXT.1.1|9=58|35=0|34=359|49=MTFQA2APA|52=20180523-16:29:38.409|56=TRAX|10=098|8=FIXT.1.1|9=58|35=0|34=360|49=MTFQA2APA|52=20180523-16:30:08.422|56=TRAX|10=074|8=FIXT.1.1|9=58|35=0|34=361|49=MTFQA2APA|52=20180523-16:30:39.411|56=TRAX|10=077|8=FIXT.1.1|9=58|35=0|34=362|49=MTFQA2APA|52=20180523-16:31:09.422|56=TRAX|10=078|8=FIXT.1.1|9=58|35=0|34=363|49=MTFQA2APA|52=20180523-16:31:39.423|56=TRAX|10=083|8=FIXT.1.1|9=58|35=0|34=364|49=MTFQA2APA|52=20180523-16:32:10.414|56=TRAX|10=074|8=FIXT.1.1|9=58|35=0|34=365|49=MTFQA2APA|52=20180523-16:32:41.411|56=TRAX|10=076|8=FIXT.1.1|9=58|35=0|34=366|49=MTFQA2APA|52=20180523-16:33:11.415|56=TRAX|10=079|8=FIXT.1.1|9=58|35=0|34=367|49=MTFQA2APA|52=20180523-16:33:41.426|56=TRAX|10=085|8=FIXT.1.1|9=58|35=0|34=368|49=MTFQA2APA|52=20180523-16:34:11.427|56=TRAX|10=085|8=FIXT.1.1|9=58|35=0|34=369|49=MTFQA2APA|52=20180523-16:34:41.429|56=TRAX|10=091|8=FIXT.1.1|9=58|35=0|34=370|49=MTFQA2APA|52=20180523-16:35:12.424|56=TRAX|10=077|8=FIXT.1.1|9=58|35=0|34=371|49=MTFQA2APA|52=20180523-16:35:42.425|56=TRAX|10=082|8=FIXT.1.1|9=58|35=0|34=372|49=MTFQA2APA|52=20180523-16:36:13.421|56=TRAX|10=078|8=FIXT.1.1|9=58|35=0|34=373|49=MTFQA2APA|52=20180523-16:36:44.418|56=TRAX|10=089|8=FIXT.1.1|9=58|35=0|34=374|49=MTFQA2APA|52=20180523-16:37:14.424|56=TRAX|10=085|8=FIXT.1.1|9=58|35=0|34=375|49=MTFQA2APA|52=20180523-16:37:45.421|56=TRAX|10=087|8=FIXT.1.1|9=58|35=0|34=376|49=MTFQA2APA|52=20180523-16:38:16.390|56=TRAX|10=092|8=FIXT.1.1|9=58|35=0|34=377|49=MTFQA2APA|52=20180523-16:38:46.420|56=TRAX|10=090|8=FIXT.1.1|9=58|35=0|34=378|49=MTFQA2APA|52=20180523-16:39:16.434|56=TRAX|10=094|8=FIXT.1.1|9=58|35=0|34=379|49=MTFQA2APA|52=20180523-16:39:47.422|56=TRAX|10=096|8=FIXT.1.1|9=58|35=0|34=380|49=MTFQA2APA|52=20180523-16:40:17.422|56=TRAX|10=077|8=FIXT.1.1|9=58|35=0|34=381|49=MTFQA2APA|52=20180523-16:40:47.430|56=TRAX|10=080|8=FIXT.1.1|9=58|35=0|34=382|49=MTFQA2APA|52=20180523-16:41:17.432|56=TRAX|10=081|8=FIXT.1.1|9=58|35=0|34=383|49=MTFQA2APA|52=20180523-16:41:47.432|56=TRAX|10=085|8=FIXT.1.1|9=58|35=0|34=384|49=MTFQA2APA|52=20180523-16:42:18.437|56=TRAX|10=090|8=FIXT.1.1|9=58|35=0|34=385|49=MTFQA2APA|52=20180523-16:42:49.429|56=TRAX|10=096|8=FIXT.1.1|9=58|35=0|34=386|49=MTFQA2APA|52=20180523-16:43:20.432|56=TRAX|10=081|8=FIXT.1.1|9=58|35=0|34=387|49=MTFQA2APA|52=20180523-16:43:50.439|56=TRAX|10=092|8=FIXT.1.1|9=58|35=0|34=388|49=MTFQA2APA|52=20180523-16:44:21.435|56=TRAX|10=088|8=FIXT.1.1|9=58|35=0|34=389|49=MTFQA2APA|52=20180523-16:44:52.257|56=TRAX|10=095|8=FIXT.1.1|9=58|35=0|34=390|49=MTFQA2APA|52=20180523-16:45:22.264|56=TRAX|10=083|8=FIXT.1.1|9=58|35=0|34=391|49=MTFQA2APA|52=20180523-16:45:52.440|56=TRAX|10=083|8=FIXT.1.1|9=58|35=0|34=392|49=MTFQA2APA|52=20180523-16:46:23.432|56=TRAX|10=084|8=FIXT.1.1|9=58|35=0|34=393|49=MTFQA2APA|52=20180523-16:46:53.433|56=TRAX|10=089|8=FIXT.1.1|9=58|35=0|34=394|49=MTFQA2APA|52=20180523-16:47:23.439|56=TRAX|10=094|8=FIXT.1.1|9=58|35=0|34=395|49=MTFQA2APA|52=20180523-16:47:54.430|56=TRAX|10=090|8=FIXT.1.1|9=58|35=0|34=396|49=MTFQA2APA|52=20180523-16:48:24.439|56=TRAX|10=098|8=FIXT.1.1|9=58|35=0|34=397|49=MTFQA2APA|52=20180523-16:48:55.431|56=TRAX|10=095|8=FIXT.1.1|9=58|35=0|34=398|49=MTFQA2APA|52=20180523-16:49:25.431|56=TRAX|10=094|8=FIXT.1.1|9=58|35=0|34=399|49=MTFQA2APA|52=20180523-16:49:55.439|56=TRAX|10=106|8=FIXT.1.1|9=58|35=0|34=400|49=MTFQA2APA|52=20180523-16:50:26.447|56=TRAX|10=078|8=FIXT.1.1|9=58|35=0|34=401|49=MTFQA2APA|52=20180523-16:50:56.448|56=TRAX|10=083|8=FIXT.1.1|9=58|35=0|34=402|49=MTFQA2APA|52=20180523-16:51:26.448|56=TRAX|10=082|8=FIXT.1.1|9=58|35=0|34=403|49=MTFQA2APA|52=20180523-16:51:56.448|56=TRAX|10=086|8=FIXT.1.1|9=58|35=0|34=404|49=MTFQA2APA|52=20180523-16:52:27.417|56=TRAX|10=082|8=FIXT.1.1|9=58|35=0|34=405|49=MTFQA2APA|52=20180523-16:52:57.444|56=TRAX|10=086|8=FIXT.1.1|9=58|35=0|34=406|49=MTFQA2APA|52=20180523-16:53:28.440|56=TRAX|10=082|8=FIXT.1.1|9=58|35=0|34=407|49=MTFQA2APA|52=20180523-16:53:58.444|56=TRAX|10=090|8=FIXT.1.1|9=58|35=0|34=408|49=MTFQA2APA|52=20180523-16:54:29.439|56=TRAX|10=094|8=FIXT.1.1|9=58|35=0|34=409|49=MTFQA2APA|52=20180523-16:54:59.441|56=TRAX|10=091|8=FIXT.1.1|9=58|35=0|34=410|49=MTFQA2APA|52=20180523-16:55:29.451|56=TRAX|10=082|8=FIXT.1.1|9=58|35=0|34=411|49=MTFQA2APA|52=20180523-16:56:00.444|56=TRAX|10=075|8=FIXT.1.1|9=58|35=0|34=412|49=MTFQA2APA|52=20180523-16:56:31.442|56=TRAX|10=078|8=FIXT.1.1|9=58|35=0|34=413|49=MTFQA2APA|52=20180523-16:57:01.443|56=TRAX|10=078|8=FIXT.1.1|9=58|35=0|34=414|49=MTFQA2APA|52=20180523-16:57:32.441|56=TRAX|10=081|8=FIXT.1.1|9=58|35=0|34=415|49=MTFQA2APA|52=20180523-16:58:02.449|56=TRAX|10=088|8=FIXT.1.1|9=58|35=0|34=416|49=MTFQA2APA|52=20180523-16:58:33.442|56=TRAX|10=086|8=FIXT.1.1|9=58|35=0|34=417|49=MTFQA2APA|52=20180523-16:59:03.458|56=TRAX|10=092|8=FIXT.1.1|9=58|35=0|34=418|49=MTFQA2APA|52=20180523-16:59:34.453|56=TRAX|10=092|8=FIXT.1.1|9=58|35=0|34=419|49=MTFQA2APA|52=20180523-17:00:04.455|56=TRAX|10=079|8=FIXT.1.1|9=58|35=0|34=420|49=MTFQA2APA|52=20180523-17:00:34.456|56=TRAX|10=075|8=FIXT.1.1|9=58|35=0|34=421|49=MTFQA2APA|52=20180523-17:01:05.449|56=TRAX|10=077|8=FIXT.1.1|9=58|35=0|34=422|49=MTFQA2APA|52=20180523-17:01:35.458|56=TRAX|10=081|8=FIXT.1.1|9=58|35=0|34=423|49=MTFQA2APA|52=20180523-17:02:06.446|56=TRAX|10=078|8=FIXT.1.1|9=58|35=0|34=424|49=MTFQA2APA|52=20180523-17:02:36.456|56=TRAX|10=083|8=FIXT.1.1|9=58|35=0|34=425|49=MTFQA2APA|52=20180523-17:03:07.449|56=TRAX|10=085|8=FIXT.1.1|9=58|35=0|34=426|49=MTFQA2APA|52=20180523-17:03:38.462|56=TRAX|10=085|8=FIXT.1.1|9=58|35=0|34=427|49=MTFQA2APA|52=20180523-17:04:08.462|56=TRAX|10=084|8=FIXT.1.1|9=58|35=0|34=428|49=MTFQA2APA|52=20180523-17:04:39.451|56=TRAX|10=087|8=FIXT.1.1|9=58|35=0|34=429|49=MTFQA2APA|52=20180523-17:05:10.463|56=TRAX|10=081|8=FIXT.1.1|9=58|35=0|34=430|49=MTFQA2APA|52=20180523-17:05:41.450|56=TRAX|10=073|8=FIXT.1.1|9=58|35=0|34=431|49=MTFQA2APA|52=20180523-17:06:11.465|56=TRAX|10=078|8=FIXT.1.1|9=58|35=0|34=432|49=MTFQA2APA|52=20180523-17:06:41.465|56=TRAX|10=082|8=FIXT.1.1|9=58|35=0|34=433|49=MTFQA2APA|52=20180523-17:07:12.462|56=TRAX|10=079|8=FIXT.1.1|9=58|35=0|34=434|49=MTFQA2APA|52=20180523-17:07:42.465|56=TRAX|10=086|8=FIXT.1.1|9=58|35=0|34=435|49=MTFQA2APA|52=20180523-17:08:13.461|56=TRAX|10=082|8=FIXT.1.1|9=58|35=0|34=436|49=MTFQA2APA|52=20180523-17:08:44.458|56=TRAX|10=093|8=FIXT.1.1|9=58|35=0|34=437|49=MTFQA2APA|52=20180523-17:09:14.469|56=TRAX|10=094|8=FIXT.1.1|9=58|35=0|34=438|49=MTFQA2APA|52=20180523-17:09:45.464|56=TRAX|10=094|8=FIXT.1.1|9=58|35=0|34=439|49=MTFQA2APA|52=20180523-17:10:15.469|56=TRAX|10=089|8=FIXT.1.1|9=58|35=0|34=440|49=MTFQA2APA|52=20180523-17:10:46.465|56=TRAX|10=081|8=FIXT.1.1|9=58|35=0|34=441|49=MTFQA2APA|52=20180523-17:11:17.458|56=TRAX|10=083|8=FIXT.1.1|9=58|35=0|34=442|49=MTFQA2APA|52=20180523-17:11:47.459|56=TRAX|10=088|8=FIXT.1.1|9=58|35=0|34=443|49=MTFQA2APA|52=20180523-17:12:17.472|56=TRAX|10=082|8=FIXT.1.1|9=58|35=0|34=444|49=MTFQA2APA|52=20180523-17:12:48.468|56=TRAX|10=092|8=FIXT.1.1|9=58|35=0|34=445|49=MTFQA2APA|52=20180523-17:13:19.451|56=TRAX|10=084|8=FIXT.1.1|9=58|35=0|34=446|49=MTFQA2APA|52=20180523-17:13:49.462|56=TRAX|10=090|8=FIXT.1.1|9=58|35=0|34=447|49=MTFQA2APA|52=20180523-17:14:19.467|56=TRAX|10=094|8=FIXT.1.1|9=58|35=0|34=448|49=MTFQA2APA|52=20180523-17:14:49.470|56=TRAX|10=092|8=FIXT.1.1|9=58|35=0|34=449|49=MTFQA2APA|52=20180523-17:15:19.470|56=TRAX|10=091|8=FIXT.1.1|9=58|35=0|34=450|49=MTFQA2APA|52=20180523-17:15:50.472|56=TRAX|10=080|8=FIXT.1.1|9=58|35=0|34=451|49=MTFQA2APA|52=20180523-17:16:21.469|56=TRAX|10=086|8=FIXT.1.1|9=58|35=0|34=452|49=MTFQA2APA|52=20180523-17:16:51.476|56=TRAX|10=088|8=FIXT.1.1|9=58|35=0|34=453|49=MTFQA2APA|52=20180523-17:17:22.261|56=TRAX|10=080|8=FIXT.1.1|9=58|35=0|34=454|49=MTFQA2APA|52=20180523-17:17:52.273|56=TRAX|10=087|8=FIXT.1.1|9=58|35=0|34=455|49=MTFQA2APA|52=20180523-17:18:22.273|56=TRAX|10=086|8=FIXT.1.1|9=58|35=0|34=456|49=MTFQA2APA|52=20180523-17:18:52.475|56=TRAX|10=094|8=FIXT.1.1|9=58|35=0|34=457|49=MTFQA2APA|52=20180523-17:19:23.468|56=TRAX|10=096|8=FIXT.1.1|9=58|35=0|34=458|49=MTFQA2APA|52=20180523-17:19:53.469|56=TRAX|10=101|8=FIXT.1.1|9=58|35=0|34=459|49=MTFQA2APA|52=20180523-17:20:23.475|56=TRAX|10=088|8=FIXT.1.1|9=58|35=0|34=460|49=MTFQA2APA|52=20180523-17:20:54.467|56=TRAX|10=085|8=FIXT.1.1|9=58|35=0|34=461|49=MTFQA2APA|52=20180523-17:21:25.460|56=TRAX|10=078|8=FIXT.1.1|9=58|35=0|34=462|49=MTFQA2APA|52=20180523-17:21:56.456|56=TRAX|10=088|8=FIXT.1.1|9=58|35=0|34=463|49=MTFQA2APA|52=20180523-17:22:27.448|56=TRAX|10=089|8=FIXT.1.1|9=58|35=0|34=464|49=MTFQA2APA|52=20180523-17:22:57.451|56=TRAX|10=087|8=FIXT.1.1|9=58|35=0|34=465|49=MTFQA2APA|52=20180523-17:23:28.445|56=TRAX|10=090|8=FIXT.1.1|9=58|35=0|34=466|49=MTFQA2APA|52=20180523-17:23:58.448|56=TRAX|10=097|8=FIXT.1.1|9=58|35=0|34=467|49=MTFQA2APA|52=20180523-17:24:29.444|56=TRAX|10=093|8=FIXT.1.1|9=58|35=0|34=468|49=MTFQA2APA|52=20180523-17:25:00.438|56=TRAX|10=087|8=FIXT.1.1|9=58|35=0|34=469|49=MTFQA2APA|52=20180523-17:25:31.428|56=TRAX|10=091|8=FIXT.1.1|9=58|35=0|34=470|49=MTFQA2APA|52=20180523-17:26:01.437|56=TRAX|10=081|8=FIXT.1.1|9=58|35=0|34=471|49=MTFQA2APA|52=20180523-17:26:31.437|56=TRAX|10=085|8=FIXT.1.1|9=58|35=0|34=472|49=MTFQA2APA|52=20180523-17:27:02.423|56=TRAX|10=080|8=FIXT.1.1|9=58|35=0|34=473|49=MTFQA2APA|52=20180523-17:27:33.421|56=TRAX|10=083|8=FIXT.1.1|9=58|35=0|34=474|49=MTFQA2APA|52=20180523-17:28:04.430|56=TRAX|10=083|8=FIXT.1.1|9=58|35=0|34=475|49=MTFQA2APA|52=20180523-17:28:35.425|56=TRAX|10=092|8=FIXT.1.1|9=58|35=0|34=476|49=MTFQA2APA|52=20180523-17:29:06.433|56=TRAX|10=091|8=FIXT.1.1|9=58|35=0|34=477|49=MTFQA2APA|52=20180523-17:29:37.424|56=TRAX|10=096|8=FIXT.1.1|9=58|35=0|34=478|49=MTFQA2APA|52=20180523-17:30:08.418|56=TRAX|10=090|8=FIXT.1.1|9=58|35=0|34=479|49=MTFQA2APA|52=20180523-17:30:39.431|56=TRAX|10=090|8=FIXT.1.1|9=58|35=0|34=480|49=MTFQA2APA|52=20180523-17:31:10.423|56=TRAX|10=073|8=FIXT.1.1|9=58|35=0|34=481|49=MTFQA2APA|52=20180523-17:31:40.428|56=TRAX|10=082|8=FIXT.1.1|9=58|35=0|34=482|49=MTFQA2APA|52=20180523-17:32:11.420|56=TRAX|10=074|8=FIXT.1.1|9=58|35=0|34=483|49=MTFQA2APA|52=20180523-17:32:41.428|56=TRAX|10=086|8=FIXT.1.1|9=58|35=0|34=484|49=MTFQA2APA|52=20180523-17:33:12.419|56=TRAX|10=086|8=FIXT.1.1|9=58|35=0|34=485|49=MTFQA2APA|52=20180523-17:33:42.432|56=TRAX|10=085|8=FIXT.1.1|9=58|35=0|34=486|49=MTFQA2APA|52=20180523-17:34:13.415|56=TRAX|10=086|8=FIXT.1.1|9=58|35=0|34=487|49=MTFQA2APA|52=20180523-17:34:43.423|56=TRAX|10=089|8=FIXT.1.1|9=58|35=0|34=488|49=MTFQA2APA|52=20180523-17:35:13.430|56=TRAX|10=086|8=FIXT.1.1|9=58|35=0|34=489|49=MTFQA2APA|52=20180523-17:35:44.426|56=TRAX|10=096|8=FIXT.1.1|9=58|35=0|34=490|49=MTFQA2APA|52=20180523-17:36:15.426|56=TRAX|10=087|8=FIXT.1.1|9=58|35=0|34=491|49=MTFQA2APA|52=20180523-17:36:46.423|56=TRAX|10=089|8=FIXT.1.1|9=58|35=0|34=492|49=MTFQA2APA|52=20180523-17:37:17.419|56=TRAX|10=094|8=FIXT.1.1|9=58|35=0|34=493|49=MTFQA2APA|52=20180523-17:37:47.432|56=TRAX|10=093|8=FIXT.1.1|9=58|35=0|34=494|49=MTFQA2APA|52=20180523-17:38:18.428|56=TRAX|10=098|8=FIXT.1.1|9=58|35=0|34=495|49=MTFQA2APA|52=20180523-17:38:48.432|56=TRAX|10=097|8=FIXT.1.1|9=58|35=0|34=496|49=MTFQA2APA|52=20180523-17:39:19.423|56=TRAX|10=097|8=FIXT.1.1|9=58|35=0|34=497|49=MTFQA2APA|52=20180523-17:39:49.434|56=TRAX|10=103|8=FIXT.1.1|9=58|35=0|34=498|49=MTFQA2APA|52=20180523-17:40:20.431|56=TRAX|10=082|8=FIXT.1.1|9=58|35=0|34=499|49=MTFQA2APA|52=20180523-17:40:51.427|56=TRAX|10=092|8=FIXT.1.1|9=58|35=0|34=500|49=MTFQA2APA|52=20180523-17:41:22.203|56=TRAX|10=066|8=FIXT.1.1|9=58|35=0|34=501|49=MTFQA2APA|52=20180523-17:41:52.206|56=TRAX|10=073|8=FIXT.1.1|9=58|35=0|34=502|49=MTFQA2APA|52=20180523-17:42:22.212|56=TRAX|10=069|8=FIXT.1.1|9=58|35=0|34=503|49=MTFQA2APA|52=20180523-17:42:52.430|56=TRAX|10=075|8=FIXT.1.1|9=58|35=0|34=504|49=MTFQA2APA|52=20180523-17:43:22.438|56=TRAX|10=082|8=FIXT.1.1|9=58|35=0|34=505|49=MTFQA2APA|52=20180523-17:43:53.433|56=TRAX|10=082|8=FIXT.1.1|9=58|35=0|34=506|49=MTFQA2APA|52=20180523-17:44:24.431|56=TRAX|10=080|8=FIXT.1.1|9=58|35=0|34=507|49=MTFQA2APA|52=20180523-17:44:54.439|56=TRAX|10=092|8=FIXT.1.1|9=58|35=0|34=508|49=MTFQA2APA|52=20180523-17:45:25.434|56=TRAX|10=087|8=FIXT.1.1|9=58|35=0|34=509|49=MTFQA2APA|52=20180523-17:45:55.437|56=TRAX|10=094|8=FIXT.1.1|9=58|35=0|34=510|49=MTFQA2APA|52=20180523-17:46:26.432|56=TRAX|10=080|8=FIXT.1.1|9=58|35=0|34=511|49=MTFQA2APA|52=20180523-17:46:57.442|56=TRAX|10=086|8=FIXT.1.1|9=58|35=0|34=512|49=MTFQA2APA|52=20180523-17:47:28.440|56=TRAX|10=084|8=FIXT.1.1|9=58|35=0|34=513|49=MTFQA2APA|52=20180523-17:47:59.437|56=TRAX|10=095|8=FIXT.1.1|9=58|35=0|34=514|49=MTFQA2APA|52=20180523-17:48:30.451|56=TRAX|10=082|8=FIXT.1.1|9=58|35=0|34=515|49=MTFQA2APA|52=20180523-17:49:00.435|56=TRAX|10=083|8=FIXT.1.1|9=58|35=0|34=516|49=MTFQA2APA|52=20180523-17:49:30.436|56=TRAX|10=088|8=FIXT.1.1|9=58|35=0|34=517|49=MTFQA2APA|52=20180523-17:50:00.437|56=TRAX|10=079|8=FIXT.1.1|9=58|35=0|34=518|49=MTFQA2APA|52=20180523-17:50:31.447|56=TRAX|10=085|8=FIXT.1.1|9=58|35=0|34=519|49=MTFQA2APA|52=20180523-17:51:02.443|56=TRAX|10=081|8=FIXT.1.1|9=58|35=0|34=520|49=MTFQA2APA|52=20180523-17:51:33.438|56=TRAX|10=081|8=FIXT.1.1|9=58|35=0|34=521|49=MTFQA2APA|52=20180523-17:52:04.449|56=TRAX|10=083|8=FIXT.1.1|9=58|35=0|34=522|49=MTFQA2APA|52=20180523-17:52:35.442|56=TRAX|10=081|8=FIXT.1.1|9=58|35=0|34=523|49=MTFQA2APA|52=20180523-17:53:05.443|56=TRAX|10=081|8=FIXT.1.1|9=58|35=0|34=524|49=MTFQA2APA|52=20180523-17:53:36.439|56=TRAX|10=091|8=FIXT.1.1|9=58|35=0|34=525|49=MTFQA2APA|52=20180523-17:54:06.450|56=TRAX|10=083|8=FIXT.1.1|9=58|35=0|34=526|49=MTFQA2APA|52=20180523-17:54:37.446|56=TRAX|10=093|8=FIXT.1.1|9=58|35=0|34=527|49=MTFQA2APA|52=20180523-17:55:08.443|56=TRAX|10=090|8=FIXT.1.1|9=58|35=0|34=528|49=MTFQA2APA|52=20180523-17:55:38.443|56=TRAX|10=094|8=FIXT.1.1|9=58|35=0|34=529|49=MTFQA2APA|52=20180523-17:56:08.447|56=TRAX|10=097|8=FIXT.1.1|9=58|35=0|34=530|49=MTFQA2APA|52=20180523-17:56:39.453|56=TRAX|10=090|8=FIXT.1.1|9=58|35=0|34=531|49=MTFQA2APA|52=20180523-17:57:09.454|56=TRAX|10=090|8=FIXT.1.1|9=58|35=0|34=532|49=MTFQA2APA|52=20180523-17:57:40.451|56=TRAX|10=083|8=FIXT.1.1|9=58|35=0|34=533|49=MTFQA2APA|52=20180523-17:58:11.441|56=TRAX|10=082|8=FIXT.1.1|9=58|35=0|34=534|49=MTFQA2APA|52=20180523-17:58:41.456|56=TRAX|10=092|8=FIXT.1.1|9=58|35=0|34=535|49=MTFQA2APA|52=20180523-17:59:12.443|56=TRAX|10=088|8=FIXT.1.1|9=58|35=0|34=536|49=MTFQA2APA|52=20180523-17:59:42.447|56=TRAX|10=096|8=FIXT.1.1|9=58|35=0|34=537|49=MTFQA2APA|52=20180523-18:00:13.458|56=TRAX|10=084|8=FIXT.1.1|9=58|35=0|34=538|49=MTFQA2APA|52=20180523-18:00:44.444|56=TRAX|10=084|8=FIXT.1.1|9=58|35=0|34=539|49=MTFQA2APA|52=20180523-18:01:14.454|56=TRAX|10=084|8=FIXT.1.1|9=58|35=0|34=540|49=MTFQA2APA|52=20180523-18:01:44.454|56=TRAX|10=079|8=FIXT.1.1|9=58|35=0|34=541|49=MTFQA2APA|52=20180523-18:02:15.449|56=TRAX|10=083|8=FIXT.1.1|9=58|35=0|34=542|49=MTFQA2APA|52=20180523-18:02:45.455|56=TRAX|10=084|8=FIXT.1.1|9=58|35=0|34=543|49=MTFQA2APA|52=20180523-18:03:15.460|56=TRAX|10=079|8=FIXT.1.1|9=58|35=0|34=544|49=MTFQA2APA|52=20180523-18:03:45.460|56=TRAX|10=083|8=FIXT.1.1|9=58|35=0|34=545|49=MTFQA2APA|52=20180523-18:04:16.455|56=TRAX|10=087|8=FIXT.1.1|9=58|35=0|34=546|49=MTFQA2APA|52=20180523-18:04:46.455|56=TRAX|10=091|8=FIXT.1.1|9=58|35=0|34=547|49=MTFQA2APA|52=20180523-18:05:16.457|56=TRAX|10=092|8=FIXT.1.1|9=58|35=0|34=548|49=MTFQA2APA|52=20180523-18:05:47.452|56=TRAX|10=092|8=FIXT.1.1|9=58|35=0|34=549|49=MTFQA2APA|52=20180523-18:06:17.457|56=TRAX|10=096|8=FIXT.1.1|9=58|35=0|34=550|49=MTFQA2APA|52=20180523-18:06:47.466|56=TRAX|10=091|8=FIXT.1.1|9=58|35=0|34=551|49=MTFQA2APA|52=20180523-18:07:18.462|56=TRAX|10=087|8=FIXT.1.1|9=58|35=0|34=552|49=MTFQA2APA|52=20180523-18:07:49.458|56=TRAX|10=097|8=FIXT.1.1|9=58|35=0|34=553|49=MTFQA2APA|52=20180523-18:08:20.453|56=TRAX|10=083|8=FIXT.1.1|9=58|35=0|34=554|49=MTFQA2APA|52=20180523-18:08:50.454|56=TRAX|10=088|8=FIXT.1.1|9=58|35=0|34=555|49=MTFQA2APA|52=20180523-18:09:20.466|56=TRAX|10=090|8=FIXT.1.1|9=58|35=0|34=556|49=MTFQA2APA|52=20180523-18:09:51.463|56=TRAX|10=092|8=FIXT.1.1|9=58|35=0|34=557|49=MTFQA2APA|52=20180523-18:10:22.211|56=TRAX|10=074|8=FIXT.1.1|9=58|35=0|34=558|49=MTFQA2APA|52=20180523-18:10:52.211|56=TRAX|10=078|8=FIXT.1.1|9=58|35=0|34=559|49=MTFQA2APA|52=20180523-18:11:22.214|56=TRAX|10=080|8=FIXT.1.1|9=58|35=0|34=560|49=MTFQA2APA|52=20180523-18:11:52.224|56=TRAX|10=076|8=FIXT.1.1|9=58|35=0|34=561|49=MTFQA2APA|52=20180523-18:12:22.466|56=TRAX|10=083|8=FIXT.1.1|9=58|35=0|34=562|49=MTFQA2APA|52=20180523-18:12:52.469|56=TRAX|10=090|8=FIXT.1.1|9=58|35=0|34=563|49=MTFQA2APA|52=20180523-18:13:23.461|56=TRAX|10=082|8=FIXT.1.1|9=58|35=0|34=564|49=MTFQA2APA|52=20180523-18:13:54.473|56=TRAX|10=090|8=FIXT.1.1|9=58|35=0|34=565|49=MTFQA2APA|52=20180523-18:14:25.463|56=TRAX|10=089|8=FIXT.1.1|9=58|35=0|34=566|49=MTFQA2APA|52=20180523-18:14:55.465|56=TRAX|10=095|8=FIXT.1.1|9=58|35=0|34=567|49=MTFQA2APA|52=20180523-18:15:26.462|56=TRAX|10=092|8=FIXT.1.1|9=58|35=0|34=568|49=MTFQA2APA|52=20180523-18:15:56.468|56=TRAX|10=102|8=FIXT.1.1|9=58|35=0|34=569|49=MTFQA2APA|52=20180523-18:16:27.464|56=TRAX|10=098|8=FIXT.1.1|9=58|35=0|34=570|49=MTFQA2APA|52=20180523-18:16:57.470|56=TRAX|10=090|8=FIXT.1.1|9=58|35=0|34=571|49=MTFQA2APA|52=20180523-18:17:28.466|56=TRAX|10=095|8=FIXT.1.1|9=58|35=0|34=572|49=MTFQA2APA|52=20180523-18:17:58.466|56=TRAX|10=099|8=FIXT.1.1|9=58|35=0|34=573|49=MTFQA2APA|52=20180523-18:18:28.471|56=TRAX|10=094|8=FIXT.1.1|9=58|35=0|34=574|49=MTFQA2APA|52=20180523-18:18:58.477|56=TRAX|10=104|8=FIXT.1.1|9=58|35=0|34=575|49=MTFQA2APA|52=20180523-18:19:29.472|56=TRAX|10=099|8=FIXT.1.1|9=58|35=0|34=576|49=MTFQA2APA|52=20180523-18:19:59.479|56=TRAX|10=110|8=FIXT.1.1|9=58|35=0|34=577|49=MTFQA2APA|52=20180523-18:20:30.475|56=TRAX|10=088|8=FIXT.1.1|9=58|35=0|34=578|49=MTFQA2APA|52=20180523-18:21:01.469|56=TRAX|10=091|8=FIXT.1.1|9=58|35=0|34=579|49=MTFQA2APA|52=20180523-18:21:31.469|56=TRAX|10=095|8=FIXT.1.1|9=58|35=0|34=580|49=MTFQA2APA|52=20180523-18:22:01.481|56=TRAX|10=079|8=FIXT.1.1|9=58|35=0|34=581|49=MTFQA2APA|52=20180523-18:22:32.474|56=TRAX|10=086|8=FIXT.1.1|9=58|35=0|34=582|49=MTFQA2APA|52=20180523-18:23:03.471|56=TRAX|10=083|8=FIXT.1.1|9=58|35=0|34=583|49=MTFQA2APA|52=20180523-18:23:33.472|56=TRAX|10=088|8=FIXT.1.1|9=58|35=0|34=584|49=MTFQA2APA|52=20180523-18:24:03.485|56=TRAX|10=091|8=FIXT.1.1|9=58|35=0|34=585|49=MTFQA2APA|52=20180523-18:24:34.478|56=TRAX|10=098|8=FIXT.1.1|9=58|35=0|34=586|49=MTFQA2APA|52=20180523-18:25:04.478|56=TRAX|10=097|8=FIXT.1.1|9=58|35=0|34=587|49=MTFQA2APA|52=20180523-18:25:34.487|56=TRAX|10=101|8=FIXT.1.1|9=58|35=0|34=588|49=MTFQA2APA|52=20180523-18:26:05.479|56=TRAX|10=102|8=FIXT.1.1|9=58|35=0|34=589|49=MTFQA2APA|52=20180523-18:26:35.481|56=TRAX|10=099|8=FIXT.1.1|9=58|35=0|34=590|49=MTFQA2APA|52=20180523-18:27:06.489|56=TRAX|10=098|8=FIXT.1.1|9=58|35=0|34=591|49=MTFQA2APA|52=20180523-18:27:37.485|56=TRAX|10=099|8=FIXT.1.1|9=58|35=0|34=592|49=MTFQA2APA|52=20180523-18:28:08.482|56=TRAX|10=096|8=FIXT.1.1|9=58|35=0|34=593|49=MTFQA2APA|52=20180523-18:28:38.482|56=TRAX|10=100|8=FIXT.1.1|9=58|35=0|34=594|49=MTFQA2APA|52=20180523-18:29:08.492|56=TRAX|10=100|8=FIXT.1.1|9=58|35=0|34=595|49=MTFQA2APA|52=20180523-18:29:39.480|56=TRAX|10=102|8=FIXT.1.1|9=58|35=0|34=596|49=MTFQA2APA|52=20180523-18:30:09.485|56=TRAX|10=097|8=FIXT.1.1|9=58|35=0|34=597|49=MTFQA2APA|52=20180523-18:30:39.486|56=TRAX|10=102|8=FIXT.1.1|9=58|35=0|34=598|49=MTFQA2APA|52=20180523-18:31:10.481|56=TRAX|10=088|8=FIXT.1.1|9=58|35=0|34=599|49=MTFQA2APA|52=20180523-18:31:40.495|56=TRAX|10=097|8=FIXT.1.1|9=58|35=0|34=600|49=MTFQA2APA|52=20180523-18:32:11.488|56=TRAX|10=081|8=FIXT.1.1|9=58|35=0|34=601|49=MTFQA2APA|52=20180523-18:32:41.493|56=TRAX|10=081|8=FIXT.1.1|9=58|35=0|34=602|49=MTFQA2APA|52=20180523-18:33:12.490|56=TRAX|10=078|8=FIXT.1.1|9=58|35=0|34=603|49=MTFQA2APA|52=20180523-18:33:43.498|56=TRAX|10=091|8=FIXT.1.1|9=58|35=0|34=604|49=MTFQA2APA|52=20180523-18:34:14.497|56=TRAX|10=090|8=FIXT.1.1|9=58|35=0|34=605|49=MTFQA2APA|52=20180523-18:34:44.498|56=TRAX|10=095|8=FIXT.1.1|9=58|35=0|34=606|49=MTFQA2APA|52=20180523-18:35:15.485|56=TRAX|10=091|8=FIXT.1.1|9=58|35=0|34=607|49=MTFQA2APA|52=20180523-18:35:45.495|56=TRAX|10=096|8=FIXT.1.1|9=58|35=0|34=608|49=MTFQA2APA|52=20180523-18:36:16.491|56=TRAX|10=092|8=FIXT.1.1|9=58|35=0|34=609|49=MTFQA2APA|52=20180523-18:36:47.487|56=TRAX|10=102|8=FIXT.1.1|9=58|35=0|34=610|49=MTFQA2APA|52=20180523-18:37:17.499|56=TRAX|10=095|8=FIXT.1.1|9=58|35=0|34=611|49=MTFQA2APA|52=20180523-18:37:47.500|56=TRAX|10=082|8=FIXT.1.1|9=58|35=0|34=612|49=MTFQA2APA|52=20180523-18:38:18.494|56=TRAX|10=094|8=FIXT.1.1|9=58|35=0|34=613|49=MTFQA2APA|52=20180523-18:38:49.492|56=TRAX|10=097|8=FIXT.1.1|9=58|35=0|34=614|49=MTFQA2APA|52=20180523-18:39:19.498|56=TRAX|10=102|8=FIXT.1.1|9=58|35=0|34=615|49=MTFQA2APA|52=20180523-18:39:50.490|56=TRAX|10=090|8=FIXT.1.1|9=58|35=0|34=616|49=MTFQA2APA|52=20180523-18:40:20.499|56=TRAX|10=089|8=FIXT.1.1|9=58|35=0|34=617|49=MTFQA2APA|52=20180523-18:40:50.506|56=TRAX|10=082|8=FIXT.1.1|9=58|35=0|34=618|49=MTFQA2APA|52=20180523-18:41:21.502|56=TRAX|10=078|8=FIXT.1.1|9=58|35=0|34=619|49=MTFQA2APA|52=20180523-18:41:52.233|56=TRAX|10=084|8=FIXT.1.1|9=58|35=0|34=620|49=MTFQA2APA|52=20180523-18:42:22.493|56=TRAX|10=082|8=FIXT.1.1|9=58|35=0|34=621|49=MTFQA2APA|52=20180523-18:42:52.509|56=TRAX|10=084|8=FIXT.1.1|9=58|35=0|34=622|49=MTFQA2APA|52=20180523-18:43:23.509|56=TRAX|10=084|8=FIXT.1.1|9=58|35=0|34=623|49=MTFQA2APA|52=20180523-18:43:54.502|56=TRAX|10=082|8=FIXT.1.1|9=58|35=0|34=624|49=MTFQA2APA|52=20180523-18:44:25.500|56=TRAX|10=080|8=FIXT.1.1|9=58|35=0|34=625|49=MTFQA2APA|52=20180523-18:44:55.503|56=TRAX|10=087|8=FIXT.1.1|9=58|35=0|34=626|49=MTFQA2APA|52=20180523-18:45:26.498|56=TRAX|10=100|8=FIXT.1.1|9=58|35=0|34=627|49=MTFQA2APA|52=20180523-18:45:56.507|56=TRAX|10=095|8=FIXT.1.1|9=58|35=0|34=628|49=MTFQA2APA|52=20180523-18:46:27.503|56=TRAX|10=091|8=FIXT.1.1|9=58|35=0|34=629|49=MTFQA2APA|52=20180523-18:46:58.513|56=TRAX|10=097|8=FIXT.1.1|9=58|35=0|34=630|49=MTFQA2APA|52=20180523-18:47:28.513|56=TRAX|10=087|8=FIXT.1.1|9=58|35=0|34=631|49=MTFQA2APA|52=20180523-18:47:59.502|56=TRAX|10=090|8=FIXT.1.1|9=58|35=0|34=632|49=MTFQA2APA|52=20180523-18:48:29.514|56=TRAX|10=092|8=FIXT.1.1|9=58|35=0|34=633|49=MTFQA2APA|52=20180523-18:49:00.509|56=TRAX|10=087|8=FIXT.1.1|9=58|35=0|34=634|49=MTFQA2APA|52=20180523-18:49:31.507|56=TRAX|10=090|8=FIXT.1.1|9=58|35=0|34=635|49=MTFQA2APA|52=20180523-18:50:02.505|56=TRAX|10=079|8=FIXT.1.1|9=58|35=0|34=636|49=MTFQA2APA|52=20180523-18:50:32.511|56=TRAX|10=080|8=FIXT.1.1|9=58|35=0|34=637|49=MTFQA2APA|52=20180523-18:51:02.516|56=TRAX|10=084|8=FIXT.1.1|9=58|35=0|34=638|49=MTFQA2APA|52=20180523-18:51:33.504|56=TRAX|10=086|8=FIXT.1.1|9=58|35=0|34=639|49=MTFQA2APA|52=20180523-18:52:03.512|56=TRAX|10=084|8=FIXT.1.1|9=58|35=0|34=640|49=MTFQA2APA|52=20180523-18:52:33.513|56=TRAX|10=080|8=FIXT.1.1|9=58|35=0|34=641|49=MTFQA2APA|52=20180523-18:53:04.510|56=TRAX|10=077|8=FIXT.1.1|9=58|35=0|34=642|49=MTFQA2APA|52=20180523-18:53:34.520|56=TRAX|10=082|8=FIXT.1.1|9=58|35=0|34=643|49=MTFQA2APA|52=20180523-18:54:05.510|56=TRAX|10=081|8=FIXT.1.1|9=58|35=0|34=644|49=MTFQA2APA|52=20180523-18:54:36.508|56=TRAX|10=093|8=FIXT.1.1|9=58|35=0|34=645|49=MTFQA2APA|52=20180523-18:55:06.520|56=TRAX|10=086|8=FIXT.1.1|9=58|35=0|34=646|49=MTFQA2APA|52=20180523-18:55:37.513|56=TRAX|10=093|8=FIXT.1.1|9=58|35=0|34=647|49=MTFQA2APA|52=20180523-18:56:08.510|56=TRAX|10=090|8=FIXT.1.1|9=58|35=0|34=648|49=MTFQA2APA|52=20180523-18:56:38.520|56=TRAX|10=095|8=FIXT.1.1|9=58|35=0|34=649|49=MTFQA2APA|52=20180523-18:57:09.517|56=TRAX|10=101|8=FIXT.1.1|9=58|35=0|34=650|49=MTFQA2APA|52=20180523-18:57:40.525|56=TRAX|10=087|8=FIXT.1.1|9=58|35=0|34=651|49=MTFQA2APA|52=20180523-18:58:11.516|56=TRAX|10=087|8=FIXT.1.1|9=58|35=0|34=652|49=MTFQA2APA|52=20180523-18:58:41.517|56=TRAX|10=092|8=FIXT.1.1|9=58|35=0|34=653|49=MTFQA2APA|52=20180523-18:59:11.524|56=TRAX|10=089|8=FIXT.1.1|9=58|35=0|34=654|49=MTFQA2APA|52=20180523-18:59:41.528|56=TRAX|10=097|8=FIXT.1.1|9=58|35=0|34=655|49=MTFQA2APA|52=20180523-19:00:12.528|56=TRAX|10=083|8=FIXT.1.1|9=58|35=0|34=656|49=MTFQA2APA|52=20180523-19:00:43.522|56=TRAX|10=082|8=FIXT.1.1|9=58|35=0|34=657|49=MTFQA2APA|52=20180523-19:01:13.526|56=TRAX|10=085|8=FIXT.1.1|9=58|35=0|34=658|49=MTFQA2APA|52=20180523-19:01:43.531|56=TRAX|10=085|8=FIXT.1.1|9=58|35=0|34=659|49=MTFQA2APA|52=20180523-19:02:14.522|56=TRAX|10=085|8=FIXT.1.1|9=58|35=0|34=660|49=MTFQA2APA|52=20180523-19:02:45.519|56=TRAX|10=087|8=FIXT.1.1|9=58|35=0|34=661|49=MTFQA2APA|52=20180523-19:03:15.532|56=TRAX|10=081|8=FIXT.1.1|9=58|35=0|34=662|49=MTFQA2APA|52=20180523-19:03:46.523|56=TRAX|10=086|8=FIXT.1.1|9=58|35=0|34=663|49=MTFQA2APA|52=20180523-19:04:17.520|56=TRAX|10=083|8=FIXT.1.1|9=58|35=0|34=664|49=MTFQA2APA|52=20180523-19:04:47.531|56=TRAX|10=089|8=FIXT.1.1|9=58|35=0|34=665|49=MTFQA2APA|52=20180523-19:05:18.522|56=TRAX|10=089|8=FIXT.1.1|9=58|35=0|34=666|49=MTFQA2APA|52=20180523-19:05:48.535|56=TRAX|10=097|8=FIXT.1.1|9=58|35=0|34=667|49=MTFQA2APA|52=20180523-19:06:19.532|56=TRAX|10=094|8=FIXT.1.1|9=58|35=0|34=668|49=MTFQA2APA|52=20180523-19:06:50.524|56=TRAX|10=091|8=FIXT.1.1|9=58|35=0|34=669|49=MTFQA2APA|52=20180523-19:07:20.533|56=TRAX|10=090|8=FIXT.1.1|9=58|35=0|34=670|49=MTFQA2APA|52=20180523-19:07:51.525|56=TRAX|10=087|8=FIXT.1.1|9=58|35=0|34=671|49=MTFQA2APA|52=20180523-19:08:21.538|56=TRAX|10=090|8=FIXT.1.1|9=58|35=0|34=672|49=MTFQA2APA|52=20180523-19:08:52.237|56=TRAX|10=091|8=FIXT.1.1|9=58|35=0|34=673|49=MTFQA2APA|52=20180523-19:09:22.243|56=TRAX|10=087|8=FIXT.1.1|9=58|35=0|34=674|49=MTFQA2APA|52=20180523-19:09:52.513|56=TRAX|10=091|8=FIXT.1.1|9=58|35=0|34=675|49=MTFQA2APA|52=20180523-19:10:22.528|56=TRAX|10=087|8=FIXT.1.1|9=58|35=0|34=676|49=MTFQA2APA|52=20180523-19:10:53.527|56=TRAX|10=091|8=FIXT.1.1|9=58|35=0|34=677|49=MTFQA2APA|52=20180523-19:11:23.537|56=TRAX|10=091|8=FIXT.1.1|9=58|35=0|34=678|49=MTFQA2APA|52=20180523-19:11:54.529|56=TRAX|10=097|8=FIXT.1.1|9=58|35=0|34=679|49=MTFQA2APA|52=20180523-19:12:24.542|56=TRAX|10=091|8=FIXT.1.1|9=58|35=0|34=680|49=MTFQA2APA|52=20180523-19:12:54.542|56=TRAX|10=086|8=FIXT.1.1|9=58|35=0|34=681|49=MTFQA2APA|52=20180523-19:13:25.540|56=TRAX|10=084|8=FIXT.1.1|9=58|35=0|34=682|49=MTFQA2APA|52=20180523-19:13:55.542|56=TRAX|10=090|8=FIXT.1.1|9=58|35=0|34=683|49=MTFQA2APA|52=20180523-19:14:26.541|56=TRAX|10=089|8=FIXT.1.1|9=58|35=0|34=684|49=MTFQA2APA|52=20180523-19:14:57.537|56=TRAX|10=099|8=FIXT.1.1|9=58|35=0|34=685|49=MTFQA2APA|52=20180523-19:15:28.533|56=TRAX|10=095|8=FIXT.1.1|9=58|35=0|34=686|49=MTFQA2APA|52=20180523-19:15:58.544|56=TRAX|10=101|8=FIXT.1.1|9=58|35=0|34=687|49=MTFQA2APA|52=20180523-19:16:29.534|56=TRAX|10=100|8=FIXT.1.1|9=58|35=0|34=688|49=MTFQA2APA|52=20180523-19:16:59.534|56=TRAX|10=104|8=FIXT.1.1|9=58|35=0|34=689|49=MTFQA2APA|52=20180523-19:17:29.547|56=TRAX|10=107|8=FIXT.1.1|9=58|35=0|34=690|49=MTFQA2APA|52=20180523-19:18:00.549|56=TRAX|10=091|8=FIXT.1.1|9=58|35=0|34=691|49=MTFQA2APA|52=20180523-19:18:31.546|56=TRAX|10=093|8=FIXT.1.1|9=58|35=0|34=692|49=MTFQA2APA|52=20180523-19:19:02.538|56=TRAX|10=094|8=FIXT.1.1|9=58|35=0|34=693|49=MTFQA2APA|52=20180523-19:19:32.552|56=TRAX|10=094|8=FIXT.1.1|9=58|35=0|34=694|49=MTFQA2APA|52=20180523-19:20:03.551|56=TRAX|10=084|8=FIXT.1.1|9=58|35=0|34=695|49=MTFQA2APA|52=20180523-19:20:34.547|56=TRAX|10=094|8=FIXT.1.1|9=58|35=0|34=696|49=MTFQA2APA|52=20180523-19:21:04.553|56=TRAX|10=090|8=FIXT.1.1|9=58|35=0|34=697|49=MTFQA2APA|52=20180523-19:21:34.554|56=TRAX|10=095|8=FIXT.1.1|9=58|35=0|34=698|49=MTFQA2APA|52=20180523-19:22:05.549|56=TRAX|10=099|8=FIXT.1.1|9=58|35=0|34=699|49=MTFQA2APA|52=20180523-19:22:36.545|56=TRAX|10=100|8=FIXT.1.1|9=58|35=0|34=700|49=MTFQA2APA|52=20180523-19:23:07.542|56=TRAX|10=079|8=FIXT.1.1|9=58|35=0|34=701|49=MTFQA2APA|52=20180523-19:23:37.550|56=TRAX|10=082|8=FIXT.1.1|9=58|35=0|34=702|49=MTFQA2APA|52=20180523-19:24:08.557|56=TRAX|10=089|8=FIXT.1.1|9=58|35=0|34=703|49=MTFQA2APA|52=20180523-19:24:39.558|56=TRAX|10=095|8=FIXT.1.1|9=58|35=0|34=704|49=MTFQA2APA|52=20180523-19:25:10.556|56=TRAX|10=084|8=FIXT.1.1|9=58|35=0|34=705|49=MTFQA2APA|52=20180523-19:25:41.552|56=TRAX|10=085|8=FIXT.1.1|9=58|35=0|34=706|49=MTFQA2APA|52=20180523-19:26:12.548|56=TRAX|10=090|8=FIXT.1.1|9=58|35=0|34=707|49=MTFQA2APA|52=20180523-19:26:42.553|56=TRAX|10=090|8=FIXT.1.1|9=58|35=0|34=708|49=MTFQA2APA|52=20180523-19:27:13.551|56=TRAX|10=088|8=FIXT.1.1|9=58|35=0|34=709|49=MTFQA2APA|52=20180523-19:27:43.556|56=TRAX|10=097|8=FIXT.1.1|9=58|35=0|34=710|49=MTFQA2APA|52=20180523-19:28:14.562|56=TRAX|10=085|8=FIXT.1.1|9=58|35=0|34=711|49=MTFQA2APA|52=20180523-19:28:45.552|56=TRAX|10=089|8=FIXT.1.1|9=58|35=0|34=712|49=MTFQA2APA|52=20180523-19:29:16.551|56=TRAX|10=088|8=FIXT.1.1|9=58|35=0|34=713|49=MTFQA2APA|52=20180523-19:29:46.561|56=TRAX|10=093|8=FIXT.1.1|9=58|35=0|34=714|49=MTFQA2APA|52=20180523-19:30:16.564|56=TRAX|10=086|8=FIXT.1.1|9=58|35=0|34=715|49=MTFQA2APA|52=20180523-19:30:47.556|56=TRAX|10=092|8=FIXT.1.1|9=58|35=0|34=716|49=MTFQA2APA|52=20180523-19:31:18.551|56=TRAX|10=087|8=FIXT.1.1|9=58|35=0|34=717|49=MTFQA2APA|52=20180523-19:31:48.564|56=TRAX|10=095|8=FIXT.1.1|9=58|35=0|34=718|49=MTFQA2APA|52=20180523-19:32:19.562|56=TRAX|10=093|8=FIXT.1.1|9=58|35=0|34=719|49=MTFQA2APA|52=20180523-19:32:49.562|56=TRAX|10=097|8=FIXT.1.1|9=58|35=0|34=720|49=MTFQA2APA|52=20180523-19:33:20.567|56=TRAX|10=084|8=FIXT.1.1|9=58|35=0|34=721|49=MTFQA2APA|52=20180523-19:33:50.568|56=TRAX|10=089|8=FIXT.1.1|9=58|35=0|34=722|49=MTFQA2APA|52=20180523-19:34:20.568|56=TRAX|10=088|8=FIXT.1.1|9=58|35=0|34=723|49=MTFQA2APA|52=20180523-19:34:51.566|56=TRAX|10=091|8=FIXT.1.1|9=58|35=0|34=724|49=MTFQA2APA|52=20180523-19:35:22.258|56=TRAX|10=089|8=FIXT.1.1|9=58|35=0|34=725|49=MTFQA2APA|52=20180523-19:35:52.561|56=TRAX|10=090|8=FIXT.1.1|9=58|35=0|34=726|49=MTFQA2APA|52=20180523-19:36:22.561|56=TRAX|10=089|8=FIXT.1.1|9=58|35=0|34=727|49=MTFQA2APA|52=20180523-19:36:52.568|56=TRAX|10=100|8=FIXT.1.1|9=58|35=0|34=728|49=MTFQA2APA|52=20180523-19:37:23.559|56=TRAX|10=100|8=FIXT.1.1|9=58|35=0|34=729|49=MTFQA2APA|52=20180523-19:37:53.567|56=TRAX|10=103|8=FIXT.1.1|9=58|35=0|34=730|49=MTFQA2APA|52=20180523-19:38:23.570|56=TRAX|10=087|8=FIXT.1.1|9=58|35=0|34=731|49=MTFQA2APA|52=20180523-19:38:54.569|56=TRAX|10=100|8=FIXT.1.1|9=58|35=0|34=732|49=MTFQA2APA|52=20180523-19:39:25.563|56=TRAX|10=094|8=FIXT.1.1|9=58|35=0|34=733|49=MTFQA2APA|52=20180523-19:39:55.576|56=TRAX|10=102|8=FIXT.1.1|9=58|35=0|34=734|49=MTFQA2APA|52=20180523-19:40:26.570|56=TRAX|10=087|8=FIXT.1.1|9=58|35=0|34=735|49=MTFQA2APA|52=20180523-19:40:57.567|56=TRAX|10=098|8=FIXT.1.1|9=58|35=0|34=736|49=MTFQA2APA|52=20180523-19:41:28.563|56=TRAX|10=094|8=FIXT.1.1|9=58|35=0|34=737|49=MTFQA2APA|52=20180523-19:41:58.572|56=TRAX|10=098|8=FIXT.1.1|9=58|35=0|34=738|49=MTFQA2APA|52=20180523-19:42:29.569|56=TRAX|10=104|8=FIXT.1.1|9=58|35=0|34=739|49=MTFQA2APA|52=20180523-19:42:59.570|56=TRAX|10=100|8=FIXT.1.1|9=58|35=0|34=740|49=MTFQA2APA|52=20180523-19:43:29.579|56=TRAX|10=099|8=FIXT.1.1|9=58|35=0|34=741|49=MTFQA2APA|52=20180523-19:44:00.575|56=TRAX|10=086|8=FIXT.1.1|9=58|35=0|34=742|49=MTFQA2APA|52=20180523-19:44:30.576|56=TRAX|10=091|8=FIXT.1.1|9=58|35=0|34=743|49=MTFQA2APA|52=20180523-19:45:00.578|56=TRAX|10=092|8=FIXT.1.1|9=58|35=0|34=744|49=MTFQA2APA|52=20180523-19:45:30.581|56=TRAX|10=090|8=FIXT.1.1|9=58|35=0|34=745|49=MTFQA2APA|52=20180523-19:46:01.577|56=TRAX|10=095|8=FIXT.1.1|9=58|35=0|34=746|49=MTFQA2APA|52=20180523-19:46:32.569|56=TRAX|10=101|8=FIXT.1.1|9=58|35=0|34=747|49=MTFQA2APA|52=20180523-19:47:02.569|56=TRAX|10=100|8=FIXT.1.1|9=58|35=0|34=748|49=MTFQA2APA|52=20180523-19:47:32.573|56=TRAX|10=099|8=FIXT.1.1|9=58|35=0|34=749|49=MTFQA2APA|52=20180523-19:48:03.570|56=TRAX|10=096|8=FIXT.1.1|9=58|35=0|34=750|49=MTFQA2APA|52=20180523-19:48:33.573|56=TRAX|10=094|8=FIXT.1.1|9=58|35=0|34=751|49=MTFQA2APA|52=20180523-19:49:03.586|56=TRAX|10=097|8=FIXT.1.1|9=58|35=0|34=752|49=MTFQA2APA|52=20180523-19:49:34.583|56=TRAX|10=099|8=FIXT.1.1|9=58|35=0|34=753|49=MTFQA2APA|52=20180523-19:50:05.579|56=TRAX|10=095|8=FIXT.1.1|9=58|35=0|34=754|49=MTFQA2APA|52=20180523-19:50:35.585|56=TRAX|10=096|8=FIXT.1.1|9=58|35=0|34=755|49=MTFQA2APA|52=20180523-19:51:05.586|56=TRAX|10=096|8=FIXT.1.1|9=58|35=0|34=756|49=MTFQA2APA|52=20180523-19:51:36.579|56=TRAX|10=103|8=FIXT.1.1|9=58|35=0|34=757|49=MTFQA2APA|52=20180523-19:52:06.583|56=TRAX|10=097|8=FIXT.1.1|9=58|35=0|34=758|49=MTFQA2APA|52=20180523-19:52:36.591|56=TRAX|10=100|8=FIXT.1.1|9=58|35=0|34=759|49=MTFQA2APA|52=20180523-19:53:07.585|56=TRAX|10=103|8=FIXT.1.1|9=58|35=0|34=760|49=MTFQA2APA|52=20180523-19:53:38.578|56=TRAX|10=101|8=FIXT.1.1|9=58|35=0|34=761|49=MTFQA2APA|52=20180523-19:54:08.578|56=TRAX|10=100|8=FIXT.1.1|9=58|35=0|34=762|49=MTFQA2APA|52=20180523-19:54:38.581|56=TRAX|10=098|8=FIXT.1.1|9=58|35=0|34=763|49=MTFQA2APA|52=20180523-19:55:08.593|56=TRAX|10=100|8=FIXT.1.1|9=58|35=0|34=764|49=MTFQA2APA|52=20180523-19:55:39.586|56=TRAX|10=107|8=FIXT.1.1|9=58|35=0|34=765|49=MTFQA2APA|52=20180523-19:56:10.582|56=TRAX|10=094|8=FIXT.1.1|9=58|35=0|34=766|49=MTFQA2APA|52=20180523-19:56:40.594|56=TRAX|10=101|8=FIXT.1.1|9=58|35=0|34=767|49=MTFQA2APA|52=20180523-19:57:11.590|56=TRAX|10=097|8=FIXT.1.1|9=58|35=0|34=768|49=MTFQA2APA|52=20180523-19:57:42.583|56=TRAX|10=104|8=FIXT.1.1|9=58|35=0|34=769|49=MTFQA2APA|52=20180523-19:58:12.583|56=TRAX|10=103|8=FIXT.1.1|9=58|35=0|34=770|49=MTFQA2APA|52=20180523-19:58:42.594|56=TRAX|10=100|8=FIXT.1.1|9=58|35=0|34=771|49=MTFQA2APA|52=20180523-19:59:13.587|56=TRAX|10=102|8=FIXT.1.1|9=58|35=0|34=772|49=MTFQA2APA|52=20180523-19:59:43.593|56=TRAX|10=103|8=FIXT.1.1|9=58|35=0|34=773|49=MTFQA2APA|52=20180523-20:00:14.600|56=TRAX|10=069|8=FIXT.1.1|9=58|35=0|34=774|49=MTFQA2APA|52=20180523-20:00:45.595|56=TRAX|10=087|8=FIXT.1.1|9=58|35=0|34=775|49=MTFQA2APA|52=20180523-20:01:16.586|56=TRAX|10=087|8=FIXT.1.1|9=58|35=0|34=776|49=MTFQA2APA|52=20180523-20:01:46.589|56=TRAX|10=094|8=FIXT.1.1|9=58|35=0|34=777|49=MTFQA2APA|52=20180523-20:02:16.599|56=TRAX|10=094|8=FIXT.1.1|9=58|35=0|34=778|49=MTFQA2APA|52=20180523-20:02:47.603|56=TRAX|10=085|8=FIXT.1.1|9=58|35=0|34=779|49=MTFQA2APA|52=20180523-20:03:17.603|56=TRAX|10=084|8=FIXT.1.1|9=58|35=0|34=780|49=MTFQA2APA|52=20180523-20:03:48.600|56=TRAX|10=077|8=FIXT.1.1|9=58|35=0|34=781|49=MTFQA2APA|52=20180523-20:04:19.592|56=TRAX|10=087|8=FIXT.1.1|9=58|35=0|34=782|49=MTFQA2APA|52=20180523-20:04:49.605|56=TRAX|10=086|8=FIXT.1.1|9=58|35=0|34=783|49=MTFQA2APA|52=20180523-20:05:20.597|56=TRAX|10=087|8=FIXT.1.1|9=58|35=0|34=784|49=MTFQA2APA|52=20180523-20:05:50.604|56=TRAX|10=080|8=FIXT.1.1|9=58|35=0|34=785|49=MTFQA2APA|52=20180523-20:06:21.616|56=TRAX|10=083|8=FIXT.1.1|9=58|35=0|34=786|49=MTFQA2APA|52=20180523-20:06:52.271|56=TRAX|10=085|8=FIXT.1.1|9=58|35=0|34=787|49=MTFQA2APA|52=20180523-20:07:22.597|56=TRAX|10=095|8=FIXT.1.1|9=58|35=0|34=788|49=MTFQA2APA|52=20180523-20:07:52.608|56=TRAX|10=092|8=FIXT.1.1|9=58|35=0|34=789|49=MTFQA2APA|52=20180523-20:08:22.609|56=TRAX|10=092|8=FIXT.1.1|9=58|35=0|34=790|49=MTFQA2APA|52=20180523-20:08:53.601|56=TRAX|10=080|8=FIXT.1.1|9=58|35=0|34=791|49=MTFQA2APA|52=20180523-20:09:23.609|56=TRAX|10=087|8=FIXT.1.1|9=58|35=0|34=792|49=MTFQA2APA|52=20180523-20:09:54.601|56=TRAX|10=084|8=FIXT.1.1|9=58|35=0|34=793|49=MTFQA2APA|52=20180523-20:10:25.597|56=TRAX|10=089|8=FIXT.1.1|9=58|35=0|34=794|49=MTFQA2APA|52=20180523-20:10:55.609|56=TRAX|10=087|8=FIXT.1.1|9=58|35=0|34=795|49=MTFQA2APA|52=20180523-20:11:25.613|56=TRAX|10=081|8=FIXT.1.1|9=58|35=0|34=796|49=MTFQA2APA|52=20180523-20:11:56.608|56=TRAX|10=090|8=FIXT.1.1|9=58|35=0|34=797|49=MTFQA2APA|52=20180523-20:12:27.604|56=TRAX|10=086|8=FIXT.1.1|9=58|35=0|34=798|49=MTFQA2APA|52=20180523-20:12:57.613|56=TRAX|10=090|8=FIXT.1.1|9=58|35=0|34=799|49=MTFQA2APA|52=20180523-20:13:27.616|56=TRAX|10=092|8=FIXT.1.1|9=58|35=0|34=800|49=MTFQA2APA|52=20180523-20:13:58.610|56=TRAX|10=073|8=FIXT.1.1|9=58|35=0|34=801|49=MTFQA2APA|52=20180523-20:14:28.616|56=TRAX|10=078|8=FIXT.1.1|9=58|35=0|34=802|49=MTFQA2APA|52=20180523-20:14:59.611|56=TRAX|10=078|8=FIXT.1.1|9=58|35=0|34=803|49=MTFQA2APA|52=20180523-20:15:30.607|56=TRAX|10=074|8=FIXT.1.1|9=58|35=0|34=804|49=MTFQA2APA|52=20180523-20:16:01.604|56=TRAX|10=071|8=FIXT.1.1|9=58|35=0|34=805|49=MTFQA2APA|52=20180523-20:16:31.616|56=TRAX|10=078|8=FIXT.1.1|9=58|35=0|34=806|49=MTFQA2APA|52=20180523-20:17:02.619|56=TRAX|10=081|8=FIXT.1.1|9=58|35=0|34=807|49=MTFQA2APA|52=20180523-20:17:33.607|56=TRAX|10=083|8=FIXT.1.1|9=58|35=0|34=808|49=MTFQA2APA|52=20180523-20:18:03.615|56=TRAX|10=081|8=FIXT.1.1|9=58|35=0|34=809|49=MTFQA2APA|52=20180523-20:18:34.622|56=TRAX|10=084|8=FIXT.1.1|9=58|35=0|34=810|49=MTFQA2APA|52=20180523-20:19:05.610|56=TRAX|10=072|8=FIXT.1.1|9=58|35=0|34=811|49=MTFQA2APA|52=20180523-20:19:35.617|56=TRAX|10=083|8=FIXT.1.1|9=58|35=0|34=812|49=MTFQA2APA|52=20180523-20:20:06.611|56=TRAX|10=068|8=FIXT.1.1|9=58|35=0|34=813|49=MTFQA2APA|52=20180523-20:20:36.618|56=TRAX|10=079|8=FIXT.1.1|9=58|35=0|34=814|49=MTFQA2APA|52=20180523-20:21:06.618|56=TRAX|10=078|8=FIXT.1.1|9=58|35=0|34=815|49=MTFQA2APA|52=20180523-20:21:37.612|56=TRAX|10=077|8=FIXT.1.1|9=58|35=0|34=816|49=MTFQA2APA|52=20180523-20:22:07.621|56=TRAX|10=076|8=FIXT.1.1|9=58|35=0|34=817|49=MTFQA2APA|52=20180523-20:22:37.621|56=TRAX|10=080|8=FIXT.1.1|9=58|35=0|34=818|49=MTFQA2APA|52=20180523-20:23:08.615|56=TRAX|10=083|8=FIXT.1.1|9=58|35=0|34=819|49=MTFQA2APA|52=20180523-20:23:38.623|56=TRAX|10=086|8=FIXT.1.1|9=58|35=0|34=820|49=MTFQA2APA|52=20180523-20:24:09.618|56=TRAX|10=081|8=FIXT.1.1|9=58|35=0|34=821|49=MTFQA2APA|52=20180523-20:24:40.616|56=TRAX|10=075|8=FIXT.1.1|9=58|35=0|34=822|49=MTFQA2APA|52=20180523-20:25:10.616|56=TRAX|10=074|8=FIXT.1.1|9=58|35=0|34=823|49=MTFQA2APA|52=20180523-20:25:40.624|56=TRAX|10=077|8=FIXT.1.1|9=58|35=0|34=824|49=MTFQA2APA|52=20180523-20:26:10.624|56=TRAX|10=076|8=FIXT.1.1|9=58|35=0|34=825|49=MTFQA2APA|52=20180523-20:26:41.622|56=TRAX|10=079|8=FIXT.1.1|9=58|35=0|34=826|49=MTFQA2APA|52=20180523-20:27:11.631|56=TRAX|10=078|8=FIXT.1.1|9=58|35=0|34=827|49=MTFQA2APA|52=20180523-20:27:42.623|56=TRAX|10=084|8=FIXT.1.1|9=58|35=0|34=828|49=MTFQA2APA|52=20180523-20:28:12.629|56=TRAX|10=089|8=FIXT.1.1|9=58|35=0|34=829|49=MTFQA2APA|52=20180523-20:28:43.627|56=TRAX|10=092|8=FIXT.1.1|9=58|35=0|34=830|49=MTFQA2APA|52=20180523-20:29:14.634|56=TRAX|10=081|8=FIXT.1.1|9=58|35=0|34=831|49=MTFQA2APA|52=20180523-20:29:45.630|56=TRAX|10=082|8=FIXT.1.1|9=58|35=0|34=832|49=MTFQA2APA|52=20180523-20:30:16.627|56=TRAX|10=079|8=FIXT.1.1|9=58|35=0|34=833|49=MTFQA2APA|52=20180523-20:30:46.627|56=TRAX|10=083|8=FIXT.1.1|9=58|35=0|34=834|49=MTFQA2APA|52=20180523-20:31:16.627|56=TRAX|10=082|8=FIXT.1.1|9=58|35=0|34=835|49=MTFQA2APA|52=20180523-20:31:46.632|56=TRAX|10=082|8=FIXT.1.1|9=58|35=0|34=836|49=MTFQA2APA|52=20180523-20:32:17.630|56=TRAX|10=080|8=FIXT.1.1|9=58|35=0|34=837|49=MTFQA2APA|52=20180523-20:32:47.632|56=TRAX|10=086|8=FIXT.1.1|9=58|35=0|34=838|49=MTFQA2APA|52=20180523-20:33:17.634|56=TRAX|10=087|8=FIXT.1.1|9=58|35=0|34=839|49=MTFQA2APA|52=20180523-20:33:48.638|56=TRAX|10=096|8=FIXT.1.1|9=58|35=0|34=840|49=MTFQA2APA|52=20180523-20:34:19.640|56=TRAX|10=080|8=FIXT.1.1|9=58|35=0|34=841|49=MTFQA2APA|52=20180523-20:34:50.631|56=TRAX|10=076|8=FIXT.1.1|9=58|35=0|34=842|49=MTFQA2APA|52=20180523-20:35:20.637|56=TRAX|10=081|8=FIXT.1.1|9=58|35=0|34=843|49=MTFQA2APA|52=20180523-20:35:50.637|56=TRAX|10=085|8=FIXT.1.1|9=58|35=0|34=844|49=MTFQA2APA|52=20180523-20:36:20.640|56=TRAX|10=078|8=FIXT.1.1|9=58|35=0|34=845|49=MTFQA2APA|52=20180523-20:36:51.633|56=TRAX|10=085|8=FIXT.1.1|9=58|35=0|34=846|49=MTFQA2APA|52=20180523-20:37:21.643|56=TRAX|10=085|8=FIXT.1.1|9=58|35=0|34=847|49=MTFQA2APA|52=20180523-20:37:52.281|56=TRAX|10=088|8=FIXT.1.1|9=58|35=0|34=848|49=MTFQA2APA|52=20180523-20:38:22.290|56=TRAX|10=087|8=FIXT.1.1|9=58|35=0|34=849|49=MTFQA2APA|52=20180523-20:38:52.644|56=TRAX|10=094|8=FIXT.1.1|9=58|35=0|34=850|49=MTFQA2APA|52=20180523-20:39:23.638|56=TRAX|10=088|8=FIXT.1.1|9=58|35=0|34=851|49=MTFQA2APA|52=20180523-20:39:54.632|56=TRAX|10=087|8=FIXT.1.1|9=58|35=0|34=852|49=MTFQA2APA|52=20180523-20:40:24.643|56=TRAX|10=079|8=FIXT.1.1|9=58|35=0|34=853|49=MTFQA2APA|52=20180523-20:40:55.633|56=TRAX|10=083|8=FIXT.1.1|9=58|35=0|34=854|49=MTFQA2APA|52=20180523-20:41:25.637|56=TRAX|10=086|8=FIXT.1.1|9=58|35=0|34=855|49=MTFQA2APA|52=20180523-20:41:55.642|56=TRAX|10=086|8=FIXT.1.1|9=58|35=0|34=856|49=MTFQA2APA|52=20180523-20:42:26.636|56=TRAX|10=089|8=FIXT.1.1|9=58|35=0|34=857|49=MTFQA2APA|52=20180523-20:42:56.645|56=TRAX|10=093|8=FIXT.1.1|9=58|35=0|34=858|49=MTFQA2APA|52=20180523-20:43:27.641|56=TRAX|10=089|8=FIXT.1.1|9=58|35=0|34=859|49=MTFQA2APA|52=20180523-20:43:57.649|56=TRAX|10=101|8=FIXT.1.1|9=58|35=0|34=860|49=MTFQA2APA|52=20180523-20:44:28.637|56=TRAX|10=089|8=FIXT.1.1|9=58|35=0|34=861|49=MTFQA2APA|52=20180523-20:44:58.648|56=TRAX|10=095|8=FIXT.1.1|9=58|35=0|34=862|49=MTFQA2APA|52=20180523-20:45:29.642|56=TRAX|10=089|8=FIXT.1.1|9=58|35=0|34=863|49=MTFQA2APA|52=20180523-20:45:59.653|56=TRAX|10=095|8=FIXT.1.1|9=58|35=0|34=864|49=MTFQA2APA|52=20180523-20:46:30.645|56=TRAX|10=087|8=FIXT.1.1|9=58|35=0|34=865|49=MTFQA2APA|52=20180523-20:47:00.645|56=TRAX|10=086|8=FIXT.1.1|9=58|35=0|34=866|49=MTFQA2APA|52=20180523-20:47:30.648|56=TRAX|10=093|8=FIXT.1.1|9=58|35=0|34=867|49=MTFQA2APA|52=20180523-20:48:00.655|56=TRAX|10=090|8=FIXT.1.1|9=58|35=0|34=868|49=MTFQA2APA|52=20180523-20:48:31.650|56=TRAX|10=090|8=FIXT.1.1|9=58|35=0|34=869|49=MTFQA2APA|52=20180523-20:49:01.658|56=TRAX|10=097|8=FIXT.1.1|9=58|35=0|34=870|49=MTFQA2APA|52=20180523-20:49:32.646|56=TRAX|10=090|8=FIXT.1.1|9=58|35=0|34=871|49=MTFQA2APA|52=20180523-20:50:03.657|56=TRAX|10=083|8=FIXT.1.1|9=58|35=0|34=872|49=MTFQA2APA|52=20180523-20:50:34.646|56=TRAX|10=086|8=FIXT.1.1|9=58|35=0|34=873|49=MTFQA2APA|52=20180523-20:51:04.652|56=TRAX|10=082|8=FIXT.1.1|9=58|35=0|34=874|49=MTFQA2APA|52=20180523-20:51:34.660|56=TRAX|10=085|8=FIXT.1.1|9=58|35=0|34=875|49=MTFQA2APA|52=20180523-20:52:04.660|56=TRAX|10=084|8=FIXT.1.1|9=58|35=0|34=876|49=MTFQA2APA|52=20180523-20:52:35.657|56=TRAX|10=095|8=FIXT.1.1|9=58|35=0|34=877|49=MTFQA2APA|52=20180523-20:53:05.662|56=TRAX|10=090|8=FIXT.1.1|9=58|35=0|34=878|49=MTFQA2APA|52=20180523-20:53:35.663|56=TRAX|10=095|8=FIXT.1.1|9=58|35=0|34=879|49=MTFQA2APA|52=20180523-20:54:06.660|56=TRAX|10=092|8=FIXT.1.1|9=58|35=0|34=880|49=MTFQA2APA|52=20180523-20:54:37.652|56=TRAX|10=089|8=FIXT.1.1|9=58|35=0|34=881|49=MTFQA2APA|52=20180523-20:55:07.663|56=TRAX|10=090|8=FIXT.1.1|9=58|35=0|34=882|49=MTFQA2APA|52=20180523-20:55:38.651|56=TRAX|10=092|8=FIXT.1.1|9=58|35=0|34=883|49=MTFQA2APA|52=20180523-20:56:08.665|56=TRAX|10=096|8=FIXT.1.1|9=58|35=0|34=884|49=MTFQA2APA|52=20180523-20:56:39.656|56=TRAX|10=101|8=FIXT.1.1|9=58|35=0|34=885|49=MTFQA2APA|52=20180523-20:57:10.667|56=TRAX|10=094|8=FIXT.1.1|9=58|35=0|34=886|49=MTFQA2APA|52=20180523-20:57:41.658|56=TRAX|10=099|8=FIXT.1.1|9=58|35=0|34=887|49=MTFQA2APA|52=20180523-20:58:11.668|56=TRAX|10=099|8=FIXT.1.1|9=58|35=0|34=888|49=MTFQA2APA|52=20180523-20:58:42.660|56=TRAX|10=096|8=FIXT.1.1|9=58|35=0|34=889|49=MTFQA2APA|52=20180523-20:59:12.660|56=TRAX|10=095|8=FIXT.1.1|9=58|35=0|34=890|49=MTFQA2APA|52=20180523-20:59:42.670|56=TRAX|10=091|8=FIXT.1.1|9=58|35=0|34=891|49=MTFQA2APA|52=20180523-21:00:13.666|56=TRAX|10=082|8=FIXT.1.1|9=58|35=0|34=892|49=MTFQA2APA|52=20180523-21:00:44.663|56=TRAX|10=084|8=FIXT.1.1|9=58|35=0|34=893|49=MTFQA2APA|52=20180523-21:01:15.657|56=TRAX|10=087|8=FIXT.1.1|9=58|35=0|34=894|49=MTFQA2APA|52=20180523-21:01:45.666|56=TRAX|10=091|8=FIXT.1.1|9=58|35=0|34=895|49=MTFQA2APA|52=20180523-21:02:16.660|56=TRAX|10=085|8=FIXT.1.1|9=58|35=0|34=896|49=MTFQA2APA|52=20180523-21:02:46.667|56=TRAX|10=096|8=FIXT.1.1|9=58|35=0|34=897|49=MTFQA2APA|52=20180523-21:03:17.673|56=TRAX|10=093|8=FIXT.1.1|9=58|35=0|34=898|49=MTFQA2APA|52=20180523-21:03:48.663|56=TRAX|10=097|8=FIXT.1.1|9=58|35=0|34=899|49=MTFQA2APA|52=20180523-21:04:19.660|56=TRAX|10=094|8=FIXT.1.1|9=58|35=0|34=900|49=MTFQA2APA|52=20180523-21:04:49.670|56=TRAX|10=081|8=FIXT.1.1|9=58|35=0|34=901|49=MTFQA2APA|52=20180523-21:05:20.664|56=TRAX|10=075|8=FIXT.1.1|9=58|35=0|34=902|49=MTFQA2APA|52=20180523-21:05:50.665|56=TRAX|10=080|8=FIXT.1.1|9=58|35=0|34=903|49=MTFQA2APA|52=20180523-21:06:20.672|56=TRAX|10=077|8=FIXT.1.1|9=58|35=0|34=904|49=MTFQA2APA|52=20180523-21:06:51.667|56=TRAX|10=086|8=FIXT.1.1|9=58|35=0|34=905|49=MTFQA2APA|52=20180523-21:07:21.669|56=TRAX|10=087|8=FIXT.1.1|9=58|35=0|34=906|49=MTFQA2APA|52=20180523-21:07:51.679|56=TRAX|10=092|8=FIXT.1.1|9=58|35=0|34=907|49=MTFQA2APA|52=20180523-21:08:22.300|56=TRAX|10=073|8=FIXT.1.1|9=58|35=0|34=908|49=MTFQA2APA|52=20180523-21:08:52.305|56=TRAX|10=082|8=FIXT.1.1|9=58|35=0|34=909|49=MTFQA2APA|52=20180523-21:09:22.308|56=TRAX|10=084|8=FIXT.1.1|9=58|35=0|34=910|49=MTFQA2APA|52=20180523-21:09:52.676|56=TRAX|10=087|8=FIXT.1.1|9=58|35=0|34=911|49=MTFQA2APA|52=20180523-21:10:23.668|56=TRAX|10=079|8=FIXT.1.1|9=58|35=0|34=912|49=MTFQA2APA|52=20180523-21:10:53.681|56=TRAX|10=078|8=FIXT.1.1|9=58|35=0|34=913|49=MTFQA2APA|52=20180523-21:11:24.678|56=TRAX|10=084|8=FIXT.1.1|9=58|35=0|34=914|49=MTFQA2APA|52=20180523-21:11:55.675|56=TRAX|10=086|8=FIXT.1.1|9=58|35=0|34=915|49=MTFQA2APA|52=20180523-21:12:25.678|56=TRAX|10=088|8=FIXT.1.1|9=58|35=0|34=916|49=MTFQA2APA|52=20180523-21:12:55.682|56=TRAX|10=087|8=FIXT.1.1|9=58|35=0|34=917|49=MTFQA2APA|52=20180523-21:13:26.673|56=TRAX|10=087|8=FIXT.1.1|9=58|35=0|34=918|49=MTFQA2APA|52=20180523-21:13:56.673|56=TRAX|10=091|8=FIXT.1.1|9=58|35=0|34=919|49=MTFQA2APA|52=20180523-21:14:26.688|56=TRAX|10=096|8=FIXT.1.1|9=58|35=0|34=920|49=MTFQA2APA|52=20180523-21:14:57.683|56=TRAX|10=087|8=FIXT.1.1|9=58|35=0|34=921|49=MTFQA2APA|52=20180523-21:15:27.686|56=TRAX|10=089|8=FIXT.1.1|9=58|35=0|34=922|49=MTFQA2APA|52=20180523-21:15:58.677|56=TRAX|10=094|8=FIXT.1.1|9=58|35=0|34=923|49=MTFQA2APA|52=20180523-21:16:28.678|56=TRAX|10=094|8=FIXT.1.1|9=58|35=0|34=924|49=MTFQA2APA|52=20180523-21:16:58.688|56=TRAX|10=099|8=FIXT.1.1|9=58|35=0|34=925|49=MTFQA2APA|52=20180523-21:17:29.682|56=TRAX|10=093|8=FIXT.1.1|9=58|35=0|34=926|49=MTFQA2APA|52=20180523-21:17:59.690|56=TRAX|10=096|8=FIXT.1.1|9=58|35=0|34=927|49=MTFQA2APA|52=20180523-21:18:30.683|56=TRAX|10=089|8=FIXT.1.1|9=58|35=0|34=928|49=MTFQA2APA|52=20180523-21:19:00.689|56=TRAX|10=094|8=FIXT.1.1|9=58|35=0|34=929|49=MTFQA2APA|52=20180523-21:19:31.681|56=TRAX|10=091|8=FIXT.1.1|9=58|35=0|34=930|49=MTFQA2APA|52=20180523-21:20:01.687|56=TRAX|10=078|8=FIXT.1.1|9=58|35=0|34=931|49=MTFQA2APA|52=20180523-21:20:32.694|56=TRAX|10=081|8=FIXT.1.1|9=58|35=0|34=932|49=MTFQA2APA|52=20180523-21:21:03.686|56=TRAX|10=082|8=FIXT.1.1|9=58|35=0|34=933|49=MTFQA2APA|52=20180523-21:21:34.695|56=TRAX|10=087|8=FIXT.1.1|9=58|35=0|34=934|49=MTFQA2APA|52=20180523-21:22:05.683|56=TRAX|10=084|8=FIXT.1.1|9=58|35=0|34=935|49=MTFQA2APA|52=20180523-21:22:35.697|56=TRAX|10=093|8=FIXT.1.1|9=58|35=0|34=936|49=MTFQA2APA|52=20180523-21:23:06.692|56=TRAX|10=088|8=FIXT.1.1|9=58|35=0|34=937|49=MTFQA2APA|52=20180523-21:23:37.684|56=TRAX|10=094|8=FIXT.1.1|9=58|35=0|34=938|49=MTFQA2APA|52=20180523-21:24:07.699|56=TRAX|10=099|8=FIXT.1.1|9=58|35=0|34=939|49=MTFQA2APA|52=20180523-21:24:38.695|56=TRAX|10=100|8=FIXT.1.1|9=58|35=0|34=940|49=MTFQA2APA|52=20180523-21:25:09.687|56=TRAX|10=092|8=FIXT.1.1|9=58|35=0|34=941|49=MTFQA2APA|52=20180523-21:25:39.693|56=TRAX|10=093|8=FIXT.1.1|9=58|35=0|34=942|49=MTFQA2APA|52=20180523-21:26:10.690|56=TRAX|10=081|8=FIXT.1.1|9=58|35=0|34=943|49=MTFQA2APA|52=20180523-21:26:40.702|56=TRAX|10=079|8=FIXT.1.1|9=58|35=0|34=944|49=MTFQA2APA|52=20180523-21:27:11.699|56=TRAX|10=094|8=FIXT.1.1|9=58|35=0|34=945|49=MTFQA2APA|52=20180523-21:27:42.695|56=TRAX|10=095|8=FIXT.1.1|9=58|35=0|34=946|49=MTFQA2APA|52=20180523-21:28:12.704|56=TRAX|10=085|8=FIXT.1.1|9=58|35=0|34=947|49=MTFQA2APA|52=20180523-21:28:43.700|56=TRAX|10=086|8=FIXT.1.1|9=58|35=0|34=948|49=MTFQA2APA|52=20180523-21:29:14.690|56=TRAX|10=094|8=FIXT.1.1|9=58|35=0|34=949|49=MTFQA2APA|52=20180523-21:29:44.704|56=TRAX|10=094|8=FIXT.1.1|9=58|35=0|34=950|49=MTFQA2APA|52=20180523-21:30:15.705|56=TRAX|10=077|8=FIXT.1.1|9=58|35=0|34=951|49=MTFQA2APA|52=20180523-21:30:46.699|56=TRAX|10=094|8=FIXT.1.1|9=58|35=0|34=952|49=MTFQA2APA|52=20180523-21:31:17.706|56=TRAX|10=083|8=FIXT.1.1|9=58|35=0|34=953|49=MTFQA2APA|52=20180523-21:31:48.699|56=TRAX|10=099|8=FIXT.1.1|9=58|35=0|34=954|49=MTFQA2APA|52=20180523-21:32:19.694|56=TRAX|10=094|8=FIXT.1.1|9=58|35=0|34=955|49=MTFQA2APA|52=20180523-21:32:49.700|56=TRAX|10=086|8=FIXT.1.1|9=58|35=0|34=956|49=MTFQA2APA|52=20180523-21:33:20.703|56=TRAX|10=080|8=FIXT.1.1|9=58|35=0|34=957|49=MTFQA2APA|52=20180523-21:33:51.701|56=TRAX|10=083|8=FIXT.1.1|9=58|35=0|34=958|49=MTFQA2APA|52=20180523-21:34:21.706|56=TRAX|10=087|8=FIXT.1.1|9=58|35=0|34=959|49=MTFQA2APA|52=20180523-21:34:51.710|56=TRAX|10=086|8=FIXT.1.1|9=58|35=0|34=960|49=MTFQA2APA|52=20180523-21:35:21.712|56=TRAX|10=078|8=FIXT.1.1|9=58|35=0|34=961|49=MTFQA2APA|52=20180523-21:35:52.312|56=TRAX|10=079|8=FIXT.1.1|9=58|35=0|34=962|49=MTFQA2APA|52=20180523-21:36:22.314|56=TRAX|10=080|8=FIXT.1.1|9=58|35=0|34=963|49=MTFQA2APA|52=20180523-21:36:52.323|56=TRAX|10=084|8=FIXT.1.1|9=58|35=0|34=964|49=MTFQA2APA|52=20180523-21:37:22.707|56=TRAX|10=089|8=FIXT.1.1|9=58|35=0|34=965|49=MTFQA2APA|52=20180523-21:37:53.701|56=TRAX|10=088|8=FIXT.1.1|9=58|35=0|34=966|49=MTFQA2APA|52=20180523-21:38:23.714|56=TRAX|10=091|8=FIXT.1.1|9=58|35=0|34=967|49=MTFQA2APA|52=20180523-21:38:54.716|56=TRAX|10=098|8=FIXT.1.1|9=58|35=0|34=968|49=MTFQA2APA|52=20180523-21:39:25.704|56=TRAX|10=095|8=FIXT.1.1|9=58|35=0|34=969|49=MTFQA2APA|52=20180523-21:39:55.712|56=TRAX|10=098|8=FIXT.1.1|9=58|35=0|34=970|49=MTFQA2APA|52=20180523-21:40:26.710|56=TRAX|10=078|8=FIXT.1.1|9=58|35=0|34=971|49=MTFQA2APA|52=20180523-21:40:56.715|56=TRAX|10=087|8=FIXT.1.1|9=58|35=0|34=972|49=MTFQA2APA|52=20180523-21:41:27.707|56=TRAX|10=088|8=FIXT.1.1|9=58|35=0|34=973|49=MTFQA2APA|52=20180523-21:41:57.718|56=TRAX|10=094|8=FIXT.1.1|9=58|35=0|34=974|49=MTFQA2APA|52=20180523-21:42:28.720|56=TRAX|10=087|8=FIXT.1.1|9=58|35=0|34=975|49=MTFQA2APA|52=20180523-21:42:59.716|56=TRAX|10=097|8=FIXT.1.1|9=58|35=0|34=976|49=MTFQA2APA|52=20180523-21:43:30.712|56=TRAX|10=084|8=FIXT.1.1|9=58|35=0|34=977|49=MTFQA2APA|52=20180523-21:44:00.720|56=TRAX|10=082|8=FIXT.1.1|9=58|35=0|34=978|49=MTFQA2APA|52=20180523-21:44:31.715|56=TRAX|10=091|8=FIXT.1.1|9=58|35=0|34=979|49=MTFQA2APA|52=20180523-21:45:02.710|56=TRAX|10=086|8=FIXT.1.1|9=58|35=0|34=980|49=MTFQA2APA|52=20180523-21:45:33.723|56=TRAX|10=086|8=FIXT.1.1|9=58|35=0|34=981|49=MTFQA2APA|52=20180523-21:46:04.714|56=TRAX|10=086|8=FIXT.1.1|9=58|35=0|34=982|49=MTFQA2APA|52=20180523-21:46:34.720|56=TRAX|10=087|8=FIXT.1.1|9=58|35=0|34=983|49=MTFQA2APA|52=20180523-21:47:05.713|56=TRAX|10=089|8=FIXT.1.1|9=58|35=0|34=984|49=MTFQA2APA|52=20180523-21:47:35.718|56=TRAX|10=098|8=FIXT.1.1|9=58|35=0|34=985|49=MTFQA2APA|52=20180523-21:48:05.719|56=TRAX|10=098|8=FIXT.1.1|9=58|35=0|34=986|49=MTFQA2APA|52=20180523-21:48:36.727|56=TRAX|10=102|8=FIXT.1.1|9=58|35=0|34=987|49=MTFQA2APA|52=20180523-21:49:07.721|56=TRAX|10=096|8=FIXT.1.1|9=58|35=0|34=988|49=MTFQA2APA|52=20180523-21:49:37.727|56=TRAX|10=106|8=FIXT.1.1|9=58|35=0|34=989|49=MTFQA2APA|52=20180523-21:50:08.719|56=TRAX|10=098|8=FIXT.1.1|9=58|35=0|34=990|49=MTFQA2APA|52=20180523-21:50:38.730|56=TRAX|10=086|8=FIXT.1.1|9=58|35=0|34=991|49=MTFQA2APA|52=20180523-21:51:09.726|56=TRAX|10=091|8=FIXT.1.1|9=58|35=0|34=992|49=MTFQA2APA|52=20180523-21:51:39.729|56=TRAX|10=098|8=FIXT.1.1|9=58|35=0|34=993|49=MTFQA2APA|52=20180523-21:52:10.726|56=TRAX|10=086|8=FIXT.1.1|9=58|35=0|34=994|49=MTFQA2APA|52=20180523-21:52:41.720|56=TRAX|10=085|8=FIXT.1.1|9=58|35=0|34=995|49=MTFQA2APA|52=20180523-21:53:11.728|56=TRAX|10=092|8=FIXT.1.1|9=58|35=0|34=996|49=MTFQA2APA|52=20180523-21:53:42.719|56=TRAX|10=097|8=FIXT.1.1|9=58|35=0|34=997|49=MTFQA2APA|52=20180523-21:54:12.728|56=TRAX|10=096|8=FIXT.1.1|9=58|35=0|34=998|49=MTFQA2APA|52=20180523-21:54:43.719|56=TRAX|10=101|8=FIXT.1.1|9=58|35=0|34=999|49=MTFQA2APA|52=20180523-21:55:13.723|56=TRAX|10=095|8=FIXT.1.1|9=59|35=0|34=1000|49=MTFQA2APA|52=20180523-21:55:44.712|56=TRAX|10=120|8=FIXT.1.1|9=59|35=0|34=1001|49=MTFQA2APA|52=20180523-21:56:14.720|56=TRAX|10=118|8=FIXT.1.1|9=59|35=0|34=1002|49=MTFQA2APA|52=20180523-21:56:45.714|56=TRAX|10=126|8=FIXT.1.1|9=59|35=0|34=1003|49=MTFQA2APA|52=20180523-21:57:15.715|56=TRAX|10=126|8=FIXT.1.1|9=59|35=0|34=1004|49=MTFQA2APA|52=20180523-21:57:46.702|56=TRAX|10=127|8=FIXT.1.1|9=59|35=0|34=1005|49=MTFQA2APA|52=20180523-21:58:17.698|56=TRAX|10=141|8=FIXT.1.1|9=59|35=0|34=1006|49=MTFQA2APA|52=20180523-21:58:47.701|56=TRAX|10=130|8=FIXT.1.1|9=59|35=0|34=1007|49=MTFQA2APA|52=20180523-21:59:17.706|56=TRAX|10=134|8=FIXT.1.1|9=59|35=0|34=1008|49=MTFQA2APA|52=20180523-21:59:48.699|56=TRAX|10=150|8=FIXT.1.1|9=59|35=0|34=1009|49=MTFQA2APA|52=20180523-22:00:18.708|56=TRAX|10=126|8=FIXT.1.1|9=59|35=0|34=1010|49=MTFQA2APA|52=20180523-22:00:48.709|56=TRAX|10=122|8=FIXT.1.1|9=59|35=0|34=1011|49=MTFQA2APA|52=20180523-22:01:19.702|56=TRAX|10=115|8=FIXT.1.1|9=59|35=0|34=1012|49=MTFQA2APA|52=20180523-22:01:50.698|56=TRAX|10=125|8=FIXT.1.1|9=59|35=0|34=1013|49=MTFQA2APA|52=20180523-22:02:20.708|56=TRAX|10=116|8=FIXT.1.1|9=59|35=0|34=1014|49=MTFQA2APA|52=20180523-22:02:50.708|56=TRAX|10=120|8=FIXT.1.1|9=59|35=0|34=1015|49=MTFQA2APA|52=20180523-22:03:21.697|56=TRAX|10=127|8=FIXT.1.1|9=59|35=0|34=1016|49=MTFQA2APA|52=20180523-22:03:51.697|56=TRAX|10=131|8=FIXT.1.1|9=59|35=0|34=1017|49=MTFQA2APA|52=20180523-22:04:21.708|56=TRAX|10=123|8=FIXT.1.1|9=59|35=0|34=1018|49=MTFQA2APA|52=20180523-22:04:52.292|56=TRAX|10=126|8=FIXT.1.1|9=59|35=0|34=1019|49=MTFQA2APA|52=20180523-22:05:22.299|56=TRAX|10=132|8=FIXT.1.1|9=59|35=0|34=1020|49=MTFQA2APA|52=20180523-22:05:52.702|56=TRAX|10=116|8=FIXT.1.1|9=59|35=0|34=1021|49=MTFQA2APA|52=20180523-22:06:23.710|56=TRAX|10=115|8=FIXT.1.1|9=59|35=0|34=1022|49=MTFQA2APA|52=20180523-22:06:54.705|56=TRAX|10=124|8=FIXT.1.1|9=59|35=0|34=1023|49=MTFQA2APA|52=20180523-22:07:25.697|56=TRAX|10=134|8=FIXT.1.1|9=59|35=0|34=1024|49=MTFQA2APA|52=20180523-22:07:55.703|56=TRAX|10=126|8=FIXT.1.1|9=59|35=0|34=1025|49=MTFQA2APA|52=20180523-22:08:25.710|56=TRAX|10=123|8=FIXT.1.1|9=59|35=0|34=1026|49=MTFQA2APA|52=20180523-22:08:56.701|56=TRAX|10=128|8=FIXT.1.1|9=59|35=0|34=1027|49=MTFQA2APA|52=20180523-22:09:26.713|56=TRAX|10=130|8=FIXT.1.1|9=59|35=0|34=1028|49=MTFQA2APA|52=20180523-22:09:57.701|56=TRAX|10=132|8=FIXT.1.1|9=59|35=0|34=1029|49=MTFQA2APA|52=20180523-22:10:27.712|56=TRAX|10=124|8=FIXT.1.1|9=59|35=0|34=1030|49=MTFQA2APA|52=20180523-22:10:58.704|56=TRAX|10=121|8=FIXT.1.1|9=59|35=0|34=1031|49=MTFQA2APA|52=20180523-22:11:28.714|56=TRAX|10=121|8=FIXT.1.1|9=59|35=0|34=1032|49=MTFQA2APA|52=20180523-22:11:59.708|56=TRAX|10=129|8=FIXT.1.1|9=59|35=0|34=1033|49=MTFQA2APA|52=20180523-22:12:30.704|56=TRAX|10=116|8=FIXT.1.1|9=59|35=0|34=1034|49=MTFQA2APA|52=20180523-22:13:00.709|56=TRAX|10=120|8=FIXT.1.1|9=59|35=0|34=1035|49=MTFQA2APA|52=20180523-22:13:31.706|56=TRAX|10=122|8=FIXT.1.1|9=59|35=0|34=1036|49=MTFQA2APA|52=20180523-22:14:01.708|56=TRAX|10=123|8=FIXT.1.1|9=59|35=0|34=1037|49=MTFQA2APA|52=20180523-22:14:31.718|56=TRAX|10=128|8=FIXT.1.1|9=59|35=0|34=1038|49=MTFQA2APA|52=20180523-22:15:02.715|56=TRAX|10=125|8=FIXT.1.1|9=59|35=0|34=1039|49=MTFQA2APA|52=20180523-22:15:33.708|56=TRAX|10=132|8=FIXT.1.1|9=59|35=0|34=1040|49=MTFQA2APA|52=20180523-22:16:03.713|56=TRAX|10=118|8=FIXT.1.1|9=59|35=0|34=1041|49=MTFQA2APA|52=20180523-22:16:34.707|56=TRAX|10=126|8=FIXT.1.1|9=59|35=0|34=1042|49=MTFQA2APA|52=20180523-22:17:04.712|56=TRAX|10=121|8=FIXT.1.1|9=59|35=0|34=1043|49=MTFQA2APA|52=20180523-22:17:34.715|56=TRAX|10=128|8=FIXT.1.1|9=59|35=0|34=1044|49=MTFQA2APA|52=20180523-22:18:05.710|56=TRAX|10=123|8=FIXT.1.1|9=59|35=0|34=1045|49=MTFQA2APA|52=20180523-22:18:36.723|56=TRAX|10=132|8=FIXT.1.1|9=59|35=0|34=1046|49=MTFQA2APA|52=20180523-22:19:06.723|56=TRAX|10=131|8=FIXT.1.1|9=59|35=0|34=1047|49=MTFQA2APA|52=20180523-22:19:37.714|56=TRAX|10=136|8=FIXT.1.1|9=59|35=0|34=1048|49=MTFQA2APA|52=20180523-22:20:07.723|56=TRAX|10=126|8=FIXT.1.1|9=59|35=0|34=1049|49=MTFQA2APA|52=20180523-22:20:38.719|56=TRAX|10=136|8=FIXT.1.1|9=59|35=0|34=1050|49=MTFQA2APA|52=20180523-22:21:09.712|56=TRAX|10=120|8=FIXT.1.1|9=59|35=0|34=1051|49=MTFQA2APA|52=20180523-22:21:40.725|56=TRAX|10=120|8=FIXT.1.1|9=59|35=0|34=1052|49=MTFQA2APA|52=20180523-22:22:10.727|56=TRAX|10=121|8=FIXT.1.1|9=59|35=0|34=1053|49=MTFQA2APA|52=20180523-22:22:41.713|56=TRAX|10=121|8=FIXT.1.1|9=59|35=0|34=1054|49=MTFQA2APA|52=20180523-22:23:11.720|56=TRAX|10=118|8=FIXT.1.1|9=59|35=0|34=1055|49=MTFQA2APA|52=20180523-22:23:42.702|56=TRAX|10=123|8=FIXT.1.1|9=59|35=0|34=1056|49=MTFQA2APA|52=20180523-22:24:12.726|56=TRAX|10=128|8=FIXT.1.1|9=59|35=0|34=1057|49=MTFQA2APA|52=20180523-22:24:43.721|56=TRAX|10=128|8=FIXT.1.1|9=59|35=0|34=1058|49=MTFQA2APA|52=20180523-22:25:14.716|56=TRAX|10=132|8=FIXT.1.1|9=59|35=0|34=1059|49=MTFQA2APA|52=20180523-22:25:44.730|56=TRAX|10=132|8=FIXT.1.1|9=59|35=0|34=1060|49=MTFQA2APA|52=20180523-22:26:15.717|56=TRAX|10=128|8=FIXT.1.1|9=59|35=0|34=1061|49=MTFQA2APA|52=20180523-22:26:45.722|56=TRAX|10=128|8=FIXT.1.1|9=59|35=0|34=1062|49=MTFQA2APA|52=20180523-22:27:15.723|56=TRAX|10=128|8=FIXT.1.1|9=59|35=0|34=1063|49=MTFQA2APA|52=20180523-22:27:45.730|56=TRAX|10=130|8=FIXT.1.1|9=59|35=0|34=1064|49=MTFQA2APA|52=20180523-22:28:15.731|56=TRAX|10=130|8=FIXT.1.1|9=59|35=0|34=1065|49=MTFQA2APA|52=20180523-22:28:46.720|56=TRAX|10=133|8=FIXT.1.1|9=59|35=0|34=1066|49=MTFQA2APA|52=20180523-22:29:16.735|56=TRAX|10=138|8=FIXT.1.1|9=59|35=0|34=1067|49=MTFQA2APA|52=20180523-22:29:47.722|56=TRAX|10=139|8=FIXT.1.1|9=59|35=0|34=1068|49=MTFQA2APA|52=20180523-22:30:17.732|56=TRAX|10=130|8=FIXT.1.1|9=59|35=0|34=1069|49=MTFQA2APA|52=20180523-22:30:48.722|56=TRAX|10=134|8=FIXT.1.1|9=59|35=0|34=1070|49=MTFQA2APA|52=20180523-22:31:18.732|56=TRAX|10=125|8=FIXT.1.1|9=59|35=0|34=1071|49=MTFQA2APA|52=20180523-22:31:49.737|56=TRAX|10=135|8=FIXT.1.1|9=59|35=0|34=1072|49=MTFQA2APA|52=20180523-22:32:20.734|56=TRAX|10=123|8=FIXT.1.1|9=59|35=0|34=1073|49=MTFQA2APA|52=20180523-22:32:50.734|56=TRAX|10=127|8=FIXT.1.1|9=59|35=0|34=1074|49=MTFQA2APA|52=20180523-22:33:20.738|56=TRAX|10=130|8=FIXT.1.1|9=59|35=0|34=1075|49=MTFQA2APA|52=20180523-22:33:51.730|56=TRAX|10=127|8=FIXT.1.1|9=59|35=0|34=1076|49=MTFQA2APA|52=20180523-22:34:21.739|56=TRAX|10=135|8=FIXT.1.1|9=59|35=0|34=1077|49=MTFQA2APA|52=20180523-22:34:52.304|56=TRAX|10=128|8=FIXT.1.1|9=59|35=0|34=1078|49=MTFQA2APA|52=20180523-22:35:22.740|56=TRAX|10=131|8=FIXT.1.1|9=59|35=0|34=1079|49=MTFQA2APA|52=20180523-22:35:53.732|56=TRAX|10=137|8=FIXT.1.1|9=59|35=0|34=1080|49=MTFQA2APA|52=20180523-22:36:23.743|56=TRAX|10=129|8=FIXT.1.1|9=59|35=0|34=1081|49=MTFQA2APA|52=20180523-22:36:54.733|56=TRAX|10=133|8=FIXT.1.1|9=59|35=0|34=1082|49=MTFQA2APA|52=20180523-22:37:24.739|56=TRAX|10=138|8=FIXT.1.1|9=59|35=0|34=1083|49=MTFQA2APA|52=20180523-22:37:54.745|56=TRAX|10=139|8=FIXT.1.1|9=59|35=0|34=1084|49=MTFQA2APA|52=20180523-22:38:25.743|56=TRAX|10=137|8=FIXT.1.1|9=59|35=0|34=1085|49=MTFQA2APA|52=20180523-22:38:55.743|56=TRAX|10=141|8=FIXT.1.1|9=59|35=0|34=1086|49=MTFQA2APA|52=20180523-22:39:26.747|56=TRAX|10=145|8=FIXT.1.1|9=59|35=0|34=1087|49=MTFQA2APA|52=20180523-22:39:57.737|56=TRAX|10=149|8=FIXT.1.1|9=59|35=0|34=1088|49=MTFQA2APA|52=20180523-22:40:27.737|56=TRAX|10=139|8=FIXT.1.1|9=59|35=0|34=1089|49=MTFQA2APA|52=20180523-22:40:57.745|56=TRAX|10=142|8=FIXT.1.1|9=59|35=0|34=1090|49=MTFQA2APA|52=20180523-22:41:27.748|56=TRAX|10=135|8=FIXT.1.1|9=59|35=0|34=1091|49=MTFQA2APA|52=20180523-22:41:58.746|56=TRAX|10=138|8=FIXT.1.1|9=59|35=0|34=1092|49=MTFQA2APA|52=20180523-22:42:28.750|56=TRAX|10=132|8=FIXT.1.1|9=59|35=0|34=1093|49=MTFQA2APA|52=20180523-22:42:59.739|56=TRAX|10=144|8=FIXT.1.1|9=59|35=0|34=1094|49=MTFQA2APA|52=20180523-22:43:30.752|56=TRAX|10=130|8=FIXT.1.1|9=59|35=0|34=1095|49=MTFQA2APA|52=20180523-22:44:01.745|56=TRAX|10=132|8=FIXT.1.1|9=59|35=0|34=1096|49=MTFQA2APA|52=20180523-22:44:31.745|56=TRAX|10=136|8=FIXT.1.1|9=59|35=0|34=1097|49=MTFQA2APA|52=20180523-22:45:01.749|56=TRAX|10=139|8=FIXT.1.1|9=59|35=0|34=1098|49=MTFQA2APA|52=20180523-22:45:32.742|56=TRAX|10=137|8=FIXT.1.1|9=59|35=0|34=1099|49=MTFQA2APA|52=20180523-22:46:02.751|56=TRAX|10=136|8=FIXT.1.1|9=59|35=0|34=1100|49=MTFQA2APA|52=20180523-22:46:33.743|56=TRAX|10=124|8=FIXT.1.1|9=59|35=0|34=1101|49=MTFQA2APA|52=20180523-22:47:03.755|56=TRAX|10=126|8=FIXT.1.1|9=59|35=0|34=1102|49=MTFQA2APA|52=20180523-22:47:34.750|56=TRAX|10=126|8=FIXT.1.1|9=59|35=0|34=1103|49=MTFQA2APA|52=20180523-22:48:04.757|56=TRAX|10=132|8=FIXT.1.1|9=59|35=0|34=1104|49=MTFQA2APA|52=20180523-22:48:35.745|56=TRAX|10=134|8=FIXT.1.1|9=59|35=0|34=1105|49=MTFQA2APA|52=20180523-22:49:05.745|56=TRAX|10=133|8=FIXT.1.1|9=59|35=0|34=1106|49=MTFQA2APA|52=20180523-22:49:35.758|56=TRAX|10=141|8=FIXT.1.1|9=59|35=0|34=1107|49=MTFQA2APA|52=20180523-22:50:06.749|56=TRAX|10=132|8=FIXT.1.1|9=59|35=0|34=1108|49=MTFQA2APA|52=20180523-22:50:36.761|56=TRAX|10=130|8=FIXT.1.1|9=59|35=0|34=1109|49=MTFQA2APA|52=20180523-22:51:07.755|56=TRAX|10=133|8=FIXT.1.1|9=59|35=0|34=1110|49=MTFQA2APA|52=20180523-22:51:37.762|56=TRAX|10=126|8=FIXT.1.1|9=59|35=0|34=1111|49=MTFQA2APA|52=20180523-22:52:08.752|56=TRAX|10=125|8=FIXT.1.1|9=59|35=0|34=1112|49=MTFQA2APA|52=20180523-22:52:38.763|56=TRAX|10=131|8=FIXT.1.1|9=59|35=0|34=1113|49=MTFQA2APA|52=20180523-22:53:08.763|56=TRAX|10=130|8=FIXT.1.1|9=59|35=0|34=1114|49=MTFQA2APA|52=20180523-22:53:39.760|56=TRAX|10=132|8=FIXT.1.1|9=59|35=0|34=1115|49=MTFQA2APA|52=20180523-22:54:10.764|56=TRAX|10=127|8=FIXT.1.1|9=59|35=0|34=1116|49=MTFQA2APA|52=20180523-22:54:41.761|56=TRAX|10=129|8=FIXT.1.1|9=59|35=0|34=1117|49=MTFQA2APA|52=20180523-22:55:12.752|56=TRAX|10=129|8=FIXT.1.1|9=59|35=0|34=1118|49=MTFQA2APA|52=20180523-22:55:42.764|56=TRAX|10=136|8=FIXT.1.1|9=59|35=0|34=1119|49=MTFQA2APA|52=20180523-22:56:13.760|56=TRAX|10=132|8=FIXT.1.1|9=59|35=0|34