8=FIXT.1.1|9=100|35=A|34=1|49=HEMAQA1_APA|52=20180725-08:56:19.807|56=TRAX|98=0|108=30|95=8|96=2.0.0rc4|141=Y|1137=9|10=208|8=FIXT.1.1|9=58|35=0|34=2|49=HEMAQA1_APA|52=20180725-08:56:50.730|56=TRAX|10=129|8=FIXT.1.1|9=58|35=0|34=3|49=HEMAQA1_APA|52=20180725-08:57:21.728|56=TRAX|10=136|8=FIXT.1.1|9=58|35=0|34=4|49=HEMAQA1_APA|52=20180725-08:57:51.734|56=TRAX|10=137|8=FIXT.1.1|9=58|35=0|34=5|49=HEMAQA1_APA|52=20180725-08:58:22.737|56=TRAX|10=140|8=FIXT.1.1|9=58|35=0|34=6|49=HEMAQA1_APA|52=20180725-08:58:53.728|56=TRAX|10=145|8=FIXT.1.1|9=58|35=0|34=7|49=HEMAQA1_APA|52=20180725-08:59:23.731|56=TRAX|10=138|8=FIXT.1.1|9=58|35=0|34=8|49=HEMAQA1_APA|52=20180725-08:59:53.736|56=TRAX|10=147|8=FIXT.1.1|9=58|35=0|34=9|49=HEMAQA1_APA|52=20180725-09:00:23.738|56=TRAX|10=134|8=FIXT.1.1|9=59|35=0|34=10|49=HEMAQA1_APA|52=20180725-09:00:53.738|56=TRAX|10=178|8=FIXT.1.1|9=59|35=0|34=11|49=HEMAQA1_APA|52=20180725-09:01:23.897|56=TRAX|10=183|8=FIXT.1.1|9=59|35=0|34=12|49=HEMAQA1_APA|52=20180725-09:01:53.903|56=TRAX|10=175|8=FIXT.1.1|9=59|35=0|34=13|49=HEMAQA1_APA|52=20180725-09:02:24.740|56=TRAX|10=174|8=FIXT.1.1|9=59|35=0|34=14|49=HEMAQA1_APA|52=20180725-09:02:55.729|56=TRAX|10=186|8=FIXT.1.1|9=59|35=0|34=15|49=HEMAQA1_APA|52=20180725-09:03:25.730|56=TRAX|10=177|8=FIXT.1.1|9=59|35=0|34=16|49=HEMAQA1_APA|52=20180725-09:03:55.736|56=TRAX|10=187|8=FIXT.1.1|9=59|35=0|34=17|49=HEMAQA1_APA|52=20180725-09:04:25.738|56=TRAX|10=188|8=FIXT.1.1|9=59|35=0|34=18|49=HEMAQA1_APA|52=20180725-09:04:56.738|56=TRAX|10=193|8=FIXT.1.1|9=59|35=0|34=19|49=HEMAQA1_APA|52=20180725-09:05:26.741|56=TRAX|10=186|8=FIXT.1.1|9=59|35=0|34=20|49=HEMAQA1_APA|52=20180725-09:05:57.729|56=TRAX|10=188|8=FIXT.1.1|9=59|35=0|34=21|49=HEMAQA1_APA|52=20180725-09:06:27.731|56=TRAX|10=180|8=FIXT.1.1|9=59|35=0|34=22|49=HEMAQA1_APA|52=20180725-09:06:57.739|56=TRAX|10=192|8=FIXT.1.1|9=59|35=0|34=23|49=HEMAQA1_APA|52=20180725-09:07:28.731|56=TRAX|10=184|8=FIXT.1.1|9=59|35=0|34=24|49=HEMAQA1_APA|52=20180725-09:07:58.738|56=TRAX|10=195|8=FIXT.1.1|9=59|35=0|34=25|49=HEMAQA1_APA|52=20180725-09:08:29.729|56=TRAX|10=195|8=FIXT.1.1|9=59|35=0|34=26|49=HEMAQA1_APA|52=20180725-09:08:59.740|56=TRAX|10=192|8=FIXT.1.1|9=59|35=0|34=27|49=HEMAQA1_APA|52=20180725-09:09:30.727|56=TRAX|10=188|8=FIXT.1.1|9=59|35=0|34=28|49=HEMAQA1_APA|52=20180725-09:10:00.729|56=TRAX|10=180|8=FIXT.1.1|9=59|35=0|34=29|49=HEMAQA1_APA|52=20180725-09:10:30.738|56=TRAX|10=184|8=FIXT.1.1|9=59|35=0|34=30|49=HEMAQA1_APA|52=20180725-09:11:01.733|56=TRAX|10=170|8=FIXT.1.1|9=59|35=0|34=31|49=HEMAQA1_APA|52=20180725-09:11:32.733|56=TRAX|10=175|8=FIXT.1.1|9=59|35=0|34=32|49=HEMAQA1_APA|52=20180725-09:12:02.733|56=TRAX|10=174|8=FIXT.1.1|9=59|35=0|34=33|49=HEMAQA1_APA|52=20180725-09:12:32.739|56=TRAX|10=184|8=FIXT.1.1|9=59|35=0|34=34|49=HEMAQA1_APA|52=20180725-09:13:03.732|56=TRAX|10=177|8=FIXT.1.1|9=59|35=0|34=35|49=HEMAQA1_APA|52=20180725-09:13:34.730|56=TRAX|10=180|8=FIXT.1.1|9=59|35=0|34=36|49=HEMAQA1_APA|52=20180725-09:14:04.734|56=TRAX|10=183|8=FIXT.1.1|9=59|35=0|34=37|49=HEMAQA1_APA|52=20180725-09:14:34.734|56=TRAX|10=187|8=FIXT.1.1|9=59|35=0|34=38|49=HEMAQA1_APA|52=20180725-09:15:04.734|56=TRAX|10=186|8=FIXT.1.1|9=59|35=0|34=39|49=HEMAQA1_APA|52=20180725-09:15:34.734|56=TRAX|10=190|8=FIXT.1.1|9=59|35=0|34=40|49=HEMAQA1_APA|52=20180725-09:16:05.729|56=TRAX|10=185|8=FIXT.1.1|9=59|35=0|34=41|49=HEMAQA1_APA|52=20180725-09:16:35.736|56=TRAX|10=187|8=FIXT.1.1|9=59|35=0|34=42|49=HEMAQA1_APA|52=20180725-09:17:05.738|56=TRAX|10=188|8=FIXT.1.1|9=59|35=0|34=43|49=HEMAQA1_APA|52=20180725-09:17:36.734|56=TRAX|10=189|8=FIXT.1.1|9=59|35=0|34=44|49=HEMAQA1_APA|52=20180725-09:18:06.735|56=TRAX|10=189|8=FIXT.1.1|9=59|35=0|34=45|49=HEMAQA1_APA|52=20180725-09:18:37.729|56=TRAX|10=197|8=FIXT.1.1|9=59|35=0|34=46|49=HEMAQA1_APA|52=20180725-09:19:07.732|56=TRAX|10=190|8=FIXT.1.1|9=59|35=0|34=47|49=HEMAQA1_APA|52=20180725-09:19:37.736|56=TRAX|10=198|8=FIXT.1.1|9=59|35=0|34=48|49=HEMAQA1_APA|52=20180725-09:20:08.731|56=TRAX|10=184|8=FIXT.1.1|9=59|35=0|34=49|49=HEMAQA1_APA|52=20180725-09:20:38.731|56=TRAX|10=188|8=FIXT.1.1|9=59|35=0|34=50|49=HEMAQA1_APA|52=20180725-09:21:08.736|56=TRAX|10=183|8=FIXT.1.1|9=59|35=0|34=51|49=HEMAQA1_APA|52=20180725-09:21:39.737|56=TRAX|10=189|8=FIXT.1.1|9=59|35=0|34=52|49=HEMAQA1_APA|52=20180725-09:22:09.740|56=TRAX|10=182|8=FIXT.1.1|9=59|35=0|34=53|49=HEMAQA1_APA|52=20180725-09:22:40.728|56=TRAX|10=184|8=FIXT.1.1|9=59|35=0|34=54|49=HEMAQA1_APA|52=20180725-09:23:10.733|56=TRAX|10=179|8=FIXT.1.1|9=59|35=0|34=55|49=HEMAQA1_APA|52=20180725-09:23:41.738|56=TRAX|10=189|8=FIXT.1.1|9=59|35=0|34=56|49=HEMAQA1_APA|52=20180725-09:24:11.738|56=TRAX|10=188|8=FIXT.1.1|9=59|35=0|34=57|49=HEMAQA1_APA|52=20180725-09:24:42.735|56=TRAX|10=190|8=FIXT.1.1|9=59|35=0|34=58|49=HEMAQA1_APA|52=20180725-09:25:13.733|56=TRAX|10=188|8=FIXT.1.1|9=59|35=0|34=59|49=HEMAQA1_APA|52=20180725-09:25:44.732|56=TRAX|10=192|8=FIXT.1.1|9=59|35=0|34=60|49=HEMAQA1_APA|52=20180725-09:26:14.739|56=TRAX|10=189|8=FIXT.1.1|9=59|35=0|34=61|49=HEMAQA1_APA|52=20180725-09:26:45.737|56=TRAX|10=192|8=FIXT.1.1|9=59|35=0|34=62|49=HEMAQA1_APA|52=20180725-09:27:16.736|56=TRAX|10=191|8=FIXT.1.1|9=59|35=0|34=63|49=HEMAQA1_APA|52=20180725-09:27:46.738|56=TRAX|10=197|8=FIXT.1.1|9=59|35=0|34=64|49=HEMAQA1_APA|52=20180725-09:28:17.726|56=TRAX|10=194|8=FIXT.1.1|9=59|35=0|34=65|49=HEMAQA1_APA|52=20180725-09:28:47.727|56=TRAX|10=199|8=FIXT.1.1|9=59|35=0|34=66|49=HEMAQA1_APA|52=20180725-09:29:17.736|56=TRAX|10=198|8=FIXT.1.1|9=59|35=0|34=67|49=HEMAQA1_APA|52=20180725-09:29:48.725|56=TRAX|10=201|8=FIXT.1.1|9=59|35=0|34=68|49=HEMAQA1_APA|52=20180725-09:30:18.725|56=TRAX|10=191|8=FIXT.1.1|9=59|35=0|34=69|49=HEMAQA1_APA|52=20180725-09:30:48.730|56=TRAX|10=191|8=FIXT.1.1|9=59|35=0|34=70|49=HEMAQA1_APA|52=20180725-09:31:19.728|56=TRAX|10=189|8=FIXT.1.1|9=59|35=0|34=71|49=HEMAQA1_APA|52=20180725-09:31:49.734|56=TRAX|10=190|8=FIXT.1.1|9=59|35=0|34=72|49=HEMAQA1_APA|52=20180725-09:32:20.730|56=TRAX|10=177|8=FIXT.1.1|9=59|35=0|34=73|49=HEMAQA1_APA|52=20180725-09:32:50.737|56=TRAX|10=188|8=FIXT.1.1|9=59|35=0|34=74|49=HEMAQA1_APA|52=20180725-09:33:20.737|56=TRAX|10=187|8=FIXT.1.1|9=59|35=0|34=75|49=HEMAQA1_APA|52=20180725-09:33:51.734|56=TRAX|10=189|8=FIXT.1.1|9=59|35=0|34=76|49=HEMAQA1_APA|52=20180725-09:34:22.729|56=TRAX|10=193|8=FIXT.1.1|9=59|35=0|34=77|49=HEMAQA1_APA|52=20180725-09:34:52.733|56=TRAX|10=192|8=FIXT.1.1|9=59|35=0|34=78|49=HEMAQA1_APA|52=20180725-09:35:22.738|56=TRAX|10=196|8=FIXT.1.1|9=59|35=0|34=79|49=HEMAQA1_APA|52=20180725-09:35:52.738|56=TRAX|10=200|8=FIXT.1.1|9=59|35=0|34=80|49=HEMAQA1_APA|52=20180725-09:36:23.735|56=TRAX|10=188|8=FIXT.1.1|9=59|35=0|34=81|49=HEMAQA1_APA|52=20180725-09:36:53.737|56=TRAX|10=194|8=FIXT.1.1|9=59|35=0|34=82|49=HEMAQA1_APA|52=20180725-09:37:23.896|56=TRAX|10=199|8=FIXT.1.1|9=59|35=0|34=83|49=HEMAQA1_APA|52=20180725-09:37:53.905|56=TRAX|10=194|8=FIXT.1.1|9=59|35=0|34=84|49=HEMAQA1_APA|52=20180725-09:38:23.911|56=TRAX|10=190|8=FIXT.1.1|9=59|35=0|34=85|49=HEMAQA1_APA|52=20180725-09:38:54.727|56=TRAX|10=200|8=FIXT.1.1|9=59|35=0|34=86|49=HEMAQA1_APA|52=20180725-09:39:25.734|56=TRAX|10=198|8=FIXT.1.1|9=59|35=0|34=87|49=HEMAQA1_APA|52=20180725-09:39:56.725|56=TRAX|10=203|8=FIXT.1.1|9=59|35=0|34=88|49=HEMAQA1_APA|52=20180725-09:40:26.727|56=TRAX|10=195|8=FIXT.1.1|9=59|35=0|34=89|49=HEMAQA1_APA|52=20180725-09:40:57.737|56=TRAX|10=201|8=FIXT.1.1|9=59|35=0|34=90|49=HEMAQA1_APA|52=20180725-09:41:28.728|56=TRAX|10=192|8=FIXT.1.1|9=59|35=0|34=91|49=HEMAQA1_APA|52=20180725-09:41:58.738|56=TRAX|10=197|8=FIXT.1.1|9=59|35=0|34=92|49=HEMAQA1_APA|52=20180725-09:42:29.729|56=TRAX|10=197|8=FIXT.1.1|9=59|35=0|34=93|49=HEMAQA1_APA|52=20180725-09:42:59.735|56=TRAX|10=198|8=FIXT.1.1|9=59|35=0|34=94|49=HEMAQA1_APA|52=20180725-09:43:30.731|56=TRAX|10=185|8=FIXT.1.1|9=59|35=0|34=95|49=HEMAQA1_APA|52=20180725-09:44:01.730|56=TRAX|10=184|8=FIXT.1.1|9=59|35=0|34=96|49=HEMAQA1_APA|52=20180725-09:44:31.730|56=TRAX|10=188|8=FIXT.1.1|9=59|35=0|34=97|49=HEMAQA1_APA|52=20180725-09:45:01.732|56=TRAX|10=189|8=FIXT.1.1|9=59|35=0|34=98|49=HEMAQA1_APA|52=20180725-09:45:32.723|56=TRAX|10=194|8=FIXT.1.1|9=59|35=0|34=99|49=HEMAQA1_APA|52=20180725-09:46:02.735|56=TRAX|10=196|8=FIXT.1.1|9=60|35=0|34=100|49=HEMAQA1_APA|52=20180725-09:46:33.725|56=TRAX|10=222|8=FIXT.1.1|9=60|35=0|34=101|49=HEMAQA1_APA|52=20180725-09:47:04.724|56=TRAX|10=221|8=FIXT.1.1|9=60|35=0|34=102|49=HEMAQA1_APA|52=20180725-09:47:34.734|56=TRAX|10=226|8=FIXT.1.1|9=60|35=0|34=103|49=HEMAQA1_APA|52=20180725-09:48:05.725|56=TRAX|10=226|8=FIXT.1.1|9=60|35=0|34=104|49=HEMAQA1_APA|52=20180725-09:48:35.733|56=TRAX|10=229|8=FIXT.1.1|9=60|35=0|34=105|49=HEMAQA1_APA|52=20180725-09:49:06.728|56=TRAX|10=233|8=FIXT.1.1|9=60|35=0|34=106|49=HEMAQA1_APA|52=20180725-09:49:36.732|56=TRAX|10=232|8=FIXT.1.1|9=60|35=0|34=107|49=HEMAQA1_APA|52=20180725-09:50:06.732|56=TRAX|10=222|8=FIXT.1.1|9=60|35=0|34=108|49=HEMAQA1_APA|52=20180725-09:50:37.722|56=TRAX|10=226|8=FIXT.1.1|9=60|35=0|34=109|49=HEMAQA1_APA|52=20180725-09:51:07.735|56=TRAX|10=229|8=FIXT.1.1|9=60|35=0|34=110|49=HEMAQA1_APA|52=20180725-09:51:38.736|56=TRAX|10=226|8=FIXT.1.1|9=60|35=0|34=111|49=HEMAQA1_APA|52=20180725-09:52:09.726|56=TRAX|10=225|8=FIXT.1.1|9=60|35=0|34=112|49=HEMAQA1_APA|52=20180725-09:52:40.722|56=TRAX|10=217|8=FIXT.1.1|9=60|35=0|34=113|49=HEMAQA1_APA|52=20180725-09:53:11.722|56=TRAX|10=217|8=FIXT.1.1|9=60|35=0|34=114|49=HEMAQA1_APA|52=20180725-09:53:41.733|56=TRAX|10=223|8=FIXT.1.1|9=60|35=0|34=115|49=HEMAQA1_APA|52=20180725-09:54:12.727|56=TRAX|10=226|8=FIXT.1.1|9=60|35=0|34=116|49=HEMAQA1_APA|52=20180725-09:54:42.730|56=TRAX|10=224|8=FIXT.1.1|9=60|35=0|34=117|49=HEMAQA1_APA|52=20180725-09:55:12.736|56=TRAX|10=229|8=FIXT.1.1|9=60|35=0|34=118|49=HEMAQA1_APA|52=20180725-09:55:43.722|56=TRAX|10=229|8=FIXT.1.1|9=60|35=0|34=119|49=HEMAQA1_APA|52=20180725-09:56:13.728|56=TRAX|10=234|8=FIXT.1.1|9=60|35=0|34=120|49=HEMAQA1_APA|52=20180725-09:56:43.734|56=TRAX|10=226|8=FIXT.1.1|9=60|35=0|34=121|49=HEMAQA1_APA|52=20180725-09:57:14.729|56=TRAX|10=230|8=FIXT.1.1|9=60|35=0|34=122|49=HEMAQA1_APA|52=20180725-09:57:44.736|56=TRAX|10=232|8=FIXT.1.1|9=60|35=0|34=123|49=HEMAQA1_APA|52=20180725-09:58:14.736|56=TRAX|10=231|8=FIXT.1.1|9=60|35=0|34=124|49=HEMAQA1_APA|52=20180725-09:58:45.723|56=TRAX|10=232|8=FIXT.1.1|9=60|35=0|34=125|49=HEMAQA1_APA|52=20180725-09:59:15.726|56=TRAX|10=234|8=FIXT.1.1|9=60|35=0|34=126|49=HEMAQA1_APA|52=20180725-09:59:46.722|56=TRAX|10=235|8=FIXT.1.1|9=60|35=0|34=127|49=HEMAQA1_APA|52=20180725-10:00:16.728|56=TRAX|10=217|8=FIXT.1.1|9=60|35=0|34=128|49=HEMAQA1_APA|52=20180725-10:00:46.733|56=TRAX|10=217|8=FIXT.1.1|9=60|35=0|34=129|49=HEMAQA1_APA|52=20180725-10:01:17.725|56=TRAX|10=218|8=FIXT.1.1|9=60|35=0|34=130|49=HEMAQA1_APA|52=20180725-10:01:48.736|56=TRAX|10=216|8=FIXT.1.1|9=60|35=0|34=131|49=HEMAQA1_APA|52=20180725-10:02:19.724|56=TRAX|10=213|8=FIXT.1.1|9=60|35=0|34=132|49=HEMAQA1_APA|52=20180725-10:02:49.733|56=TRAX|10=217|8=FIXT.1.1|9=60|35=0|34=133|49=HEMAQA1_APA|52=20180725-10:03:20.724|56=TRAX|10=208|8=FIXT.1.1|9=60|35=0|34=134|49=HEMAQA1_APA|52=20180725-10:03:51.730|56=TRAX|10=210|8=FIXT.1.1|9=60|35=0|34=135|49=HEMAQA1_APA|52=20180725-10:04:22.725|56=TRAX|10=214|8=FIXT.1.1|9=60|35=0|34=136|49=HEMAQA1_APA|52=20180725-10:04:53.725|56=TRAX|10=219|8=FIXT.1.1|9=60|35=0|34=137|49=HEMAQA1_APA|52=20180725-10:05:23.902|56=TRAX|10=215|8=FIXT.1.1|9=60|35=0|34=138|49=HEMAQA1_APA|52=20180725-10:05:53.912|56=TRAX|10=220|8=FIXT.1.1|9=60|35=0|34=139|49=HEMAQA1_APA|52=20180725-10:06:24.735|56=TRAX|10=223|8=FIXT.1.1|9=60|35=0|34=140|49=HEMAQA1_APA|52=20180725-10:06:55.729|56=TRAX|10=222|8=FIXT.1.1|9=60|35=0|34=141|49=HEMAQA1_APA|52=20180725-10:07:26.720|56=TRAX|10=213|8=FIXT.1.1|9=60|35=0|34=142|49=HEMAQA1_APA|52=20180725-10:07:56.731|56=TRAX|10=219|8=FIXT.1.1|9=60|35=0|34=143|49=HEMAQA1_APA|52=20180725-10:08:27.727|56=TRAX|10=224|8=FIXT.1.1|9=60|35=0|34=144|49=HEMAQA1_APA|52=20180725-10:08:57.729|56=TRAX|10=230|8=FIXT.1.1|9=60|35=0|34=145|49=HEMAQA1_APA|52=20180725-10:09:27.734|56=TRAX|10=225|8=FIXT.1.1|9=60|35=0|34=146|49=HEMAQA1_APA|52=20180725-10:09:58.720|56=TRAX|10=225|8=FIXT.1.1|9=60|35=0|34=147|49=HEMAQA1_APA|52=20180725-10:10:29.734|56=TRAX|10=221|8=FIXT.1.1|9=60|35=0|34=148|49=HEMAQA1_APA|52=20180725-10:11:00.721|56=TRAX|10=208|8=FIXT.1.1|9=60|35=0|34=149|49=HEMAQA1_APA|52=20180725-10:11:30.728|56=TRAX|10=219|8=FIXT.1.1|9=60|35=0|34=150|49=HEMAQA1_APA|52=20180725-10:12:01.732|56=TRAX|10=205|8=FIXT.1.1|9=60|35=0|34=151|49=HEMAQA1_APA|52=20180725-10:12:32.724|56=TRAX|10=211|8=FIXT.1.1|9=60|35=0|34=152|49=HEMAQA1_APA|52=20180725-10:13:02.727|56=TRAX|10=213|8=FIXT.1.1|9=60|35=0|34=153|49=HEMAQA1_APA|52=20180725-10:13:33.720|56=TRAX|10=211|8=FIXT.1.1|9=60|35=0|34=154|49=HEMAQA1_APA|52=20180725-10:14:03.722|56=TRAX|10=212|8=FIXT.1.1|9=60|35=0|34=155|49=HEMAQA1_APA|52=20180725-10:14:33.729|56=TRAX|10=223|8=FIXT.1.1|9=60|35=0|34=156|49=HEMAQA1_APA|52=20180725-10:15:04.720|56=TRAX|10=214|8=FIXT.1.1|9=60|35=0|34=157|49=HEMAQA1_APA|52=20180725-10:15:34.723|56=TRAX|10=221|8=FIXT.1.1|9=60|35=0|34=158|49=HEMAQA1_APA|52=20180725-10:16:05.719|56=TRAX|10=226|8=FIXT.1.1|9=60|35=0|34=159|49=HEMAQA1_APA|52=20180725-10:16:35.726|56=TRAX|10=228|8=FIXT.1.1|9=60|35=0|34=160|49=HEMAQA1_APA|52=20180725-10:17:06.724|56=TRAX|10=217|8=FIXT.1.1|9=60|35=0|34=161|49=HEMAQA1_APA|52=20180725-10:17:36.728|56=TRAX|10=225|8=FIXT.1.1|9=60|35=0|34=162|49=HEMAQA1_APA|52=20180725-10:18:07.721|56=TRAX|10=218|8=FIXT.1.1|9=60|35=0|34=163|49=HEMAQA1_APA|52=20180725-10:18:37.726|56=TRAX|10=227|8=FIXT.1.1|9=60|35=0|34=164|49=HEMAQA1_APA|52=20180725-10:19:07.728|56=TRAX|10=228|8=FIXT.1.1|9=60|35=0|34=165|49=HEMAQA1_APA|52=20180725-10:19:38.729|56=TRAX|10=234|8=FIXT.1.1|9=60|35=0|34=166|49=HEMAQA1_APA|52=20180725-10:20:09.728|56=TRAX|10=224|8=FIXT.1.1|9=60|35=0|34=167|49=HEMAQA1_APA|52=20180725-10:20:39.732|56=TRAX|10=223|8=FIXT.1.1|9=60|35=0|34=168|49=HEMAQA1_APA|52=20180725-10:21:10.718|56=TRAX|10=218|8=FIXT.1.1|9=60|35=0|34=169|49=HEMAQA1_APA|52=20180725-10:21:40.722|56=TRAX|10=217|8=FIXT.1.1|9=60|35=0|34=170|49=HEMAQA1_APA|52=20180725-10:22:10.722|56=TRAX|10=207|8=FIXT.1.1|9=60|35=0|34=171|49=HEMAQA1_APA|52=20180725-10:22:40.722|56=TRAX|10=211|8=FIXT.1.1|9=60|35=0|34=172|49=HEMAQA1_APA|52=20180725-10:23:10.730|56=TRAX|10=209|8=FIXT.1.1|9=60|35=0|34=173|49=HEMAQA1_APA|52=20180725-10:23:41.722|56=TRAX|10=215|8=FIXT.1.1|9=60|35=0|34=174|49=HEMAQA1_APA|52=20180725-10:24:12.728|56=TRAX|10=221|8=FIXT.1.1|9=60|35=0|34=175|49=HEMAQA1_APA|52=20180725-10:24:43.728|56=TRAX|10=226|8=FIXT.1.1|9=60|35=0|34=176|49=HEMAQA1_APA|52=20180725-10:25:14.732|56=TRAX|10=221|8=FIXT.1.1|9=60|35=0|34=177|49=HEMAQA1_APA|52=20180725-10:25:45.723|56=TRAX|10=226|8=FIXT.1.1|9=60|35=0|34=178|49=HEMAQA1_APA|52=20180725-10:26:16.723|56=TRAX|10=226|8=FIXT.1.1|9=60|35=0|34=179|49=HEMAQA1_APA|52=20180725-10:26:47.731|56=TRAX|10=230|8=FIXT.1.1|9=60|35=0|34=180|49=HEMAQA1_APA|52=20180725-10:27:17.731|56=TRAX|10=220|8=FIXT.1.1|9=60|35=0|34=181|49=HEMAQA1_APA|52=20180725-10:27:48.722|56=TRAX|10=225|8=FIXT.1.1|9=60|35=0|34=182|49=HEMAQA1_APA|52=20180725-10:28:18.724|56=TRAX|10=226|8=FIXT.1.1|9=60|35=0|34=183|49=HEMAQA1_APA|52=20180725-10:28:48.728|56=TRAX|10=234|8=FIXT.1.1|9=60|35=0|34=184|49=HEMAQA1_APA|52=20180725-10:29:19.723|56=TRAX|10=229|8=FIXT.1.1|9=60|35=0|34=185|49=HEMAQA1_APA|52=20180725-10:29:49.723|56=TRAX|10=233|8=FIXT.1.1|9=60|35=0|34=186|49=HEMAQA1_APA|52=20180725-10:30:19.725|56=TRAX|10=225|8=FIXT.1.1|9=60|35=0|34=187|49=HEMAQA1_APA|52=20180725-10:30:49.728|56=TRAX|10=232|8=FIXT.1.1|9=60|35=0|34=188|49=HEMAQA1_APA|52=20180725-10:31:20.721|56=TRAX|10=216|8=FIXT.1.1|9=60|35=0|34=189|49=HEMAQA1_APA|52=20180725-10:31:51.722|56=TRAX|10=222|8=FIXT.1.1|9=60|35=0|34=190|49=HEMAQA1_APA|52=20180725-10:32:21.723|56=TRAX|10=213|8=FIXT.1.1|9=60|35=0|34=191|49=HEMAQA1_APA|52=20180725-10:32:52.732|56=TRAX|10=218|8=FIXT.1.1|9=60|35=0|34=192|49=HEMAQA1_APA|52=20180725-10:33:23.718|56=TRAX|10=222|8=FIXT.1.1|9=60|35=0|34=193|49=HEMAQA1_APA|52=20180725-10:33:53.722|56=TRAX|10=221|8=FIXT.1.1|9=60|35=0|34=194|49=HEMAQA1_APA|52=20180725-10:34:23.722|56=TRAX|10=220|8=FIXT.1.1|9=60|35=0|34=195|49=HEMAQA1_APA|52=20180725-10:34:53.722|56=TRAX|10=224|8=FIXT.1.1|9=60|35=0|34=196|49=HEMAQA1_APA|52=20180725-10:35:23.722|56=TRAX|10=223|8=FIXT.1.1|9=60|35=0|34=197|49=HEMAQA1_APA|52=20180725-10:35:54.729|56=TRAX|10=235|8=FIXT.1.1|9=60|35=0|34=198|49=HEMAQA1_APA|52=20180725-10:36:24.913|56=TRAX|10=229|8=FIXT.1.1|9=60|35=0|34=199|49=HEMAQA1_APA|52=20180725-10:36:55.721|56=TRAX|10=231|8=FIXT.1.1|9=60|35=0|34=200|49=HEMAQA1_APA|52=20180725-10:37:25.727|56=TRAX|10=218|8=FIXT.1.1|9=60|35=0|34=201|49=HEMAQA1_APA|52=20180725-10:37:55.728|56=TRAX|10=223|8=FIXT.1.1|9=60|35=0|34=202|49=HEMAQA1_APA|52=20180725-10:38:26.722|56=TRAX|10=217|8=FIXT.1.1|9=60|35=0|34=203|49=HEMAQA1_APA|52=20180725-10:38:56.730|56=TRAX|10=220|8=FIXT.1.1|9=60|35=0|34=204|49=HEMAQA1_APA|52=20180725-10:39:27.729|56=TRAX|10=228|8=FIXT.1.1|9=60|35=0|34=205|49=HEMAQA1_APA|52=20180725-10:39:58.730|56=TRAX|10=225|8=FIXT.1.1|9=60|35=0|34=206|49=HEMAQA1_APA|52=20180725-10:40:29.729|56=TRAX|10=224|8=FIXT.1.1|9=60|35=0|34=207|49=HEMAQA1_APA|52=20180725-10:41:00.717|56=TRAX|10=212|8=FIXT.1.1|9=60|35=0|34=208|49=HEMAQA1_APA|52=20180725-10:41:30.730|56=TRAX|10=211|8=FIXT.1.1|9=60|35=0|34=209|49=HEMAQA1_APA|52=20180725-10:42:01.721|56=TRAX|10=211|8=FIXT.1.1|9=60|35=0|34=210|49=HEMAQA1_APA|52=20180725-10:42:32.723|56=TRAX|10=209|8=FIXT.1.1|9=60|35=0|34=211|49=HEMAQA1_APA|52=20180725-10:43:03.725|56=TRAX|10=211|8=FIXT.1.1|9=60|35=0|34=212|49=HEMAQA1_APA|52=20180725-10:43:34.721|56=TRAX|10=212|8=FIXT.1.1|9=60|35=0|34=213|49=HEMAQA1_APA|52=20180725-10:44:05.723|56=TRAX|10=214|8=FIXT.1.1|9=60|35=0|34=214|49=HEMAQA1_APA|52=20180725-10:44:36.720|56=TRAX|10=216|8=FIXT.1.1|9=60|35=0|34=215|49=HEMAQA1_APA|52=20180725-10:45:06.727|56=TRAX|10=222|8=FIXT.1.1|9=60|35=0|34=216|49=HEMAQA1_APA|52=20180725-10:45:36.727|56=TRAX|10=226|8=FIXT.1.1|9=60|35=0|34=217|49=HEMAQA1_APA|52=20180725-10:46:07.729|56=TRAX|10=228|8=FIXT.1.1|9=60|35=0|34=218|49=HEMAQA1_APA|52=20180725-10:46:38.720|56=TRAX|10=224|8=FIXT.1.1|9=60|35=0|34=219|49=HEMAQA1_APA|52=20180725-10:47:09.721|56=TRAX|10=225|8=FIXT.1.1|9=60|35=0|34=220|49=HEMAQA1_APA|52=20180725-10:47:39.722|56=TRAX|10=221|8=FIXT.1.1|9=60|35=0|34=221|49=HEMAQA1_APA|52=20180725-10:48:10.716|56=TRAX|10=215|8=FIXT.1.1|9=60|35=0|34=222|49=HEMAQA1_APA|52=20180725-10:48:40.726|56=TRAX|10=220|8=FIXT.1.1|9=60|35=0|34=223|49=HEMAQA1_APA|52=20180725-10:49:11.727|56=TRAX|10=221|8=FIXT.1.1|9=60|35=0|34=224|49=HEMAQA1_APA|52=20180725-10:49:42.717|56=TRAX|10=225|8=FIXT.1.1|9=60|35=0|34=225|49=HEMAQA1_APA|52=20180725-10:50:12.726|56=TRAX|10=215|8=FIXT.1.1|9=60|35=0|34=226|49=HEMAQA1_APA|52=20180725-10:50:43.717|56=TRAX|10=220|8=FIXT.1.1|9=60|35=0|34=227|49=HEMAQA1_APA|52=20180725-10:51:14.715|56=TRAX|10=218|8=FIXT.1.1|9=60|35=0|34=228|49=HEMAQA1_APA|52=20180725-10:51:44.721|56=TRAX|10=219|8=FIXT.1.1|9=60|35=0|34=229|49=HEMAQA1_APA|52=20180725-10:52:14.729|56=TRAX|10=226|8=FIXT.1.1|9=60|35=0|34=230|49=HEMAQA1_APA|52=20180725-10:52:45.718|56=TRAX|10=220|8=FIXT.1.1|9=60|35=0|34=231|49=HEMAQA1_APA|52=20180725-10:53:16.715|56=TRAX|10=217|8=FIXT.1.1|9=60|35=0|34=232|49=HEMAQA1_APA|52=20180725-10:53:46.725|56=TRAX|10=222|8=FIXT.1.1|9=60|35=0|34=233|49=HEMAQA1_APA|52=20180725-10:54:16.725|56=TRAX|10=221|8=FIXT.1.1|9=60|35=0|34=234|49=HEMAQA1_APA|52=20180725-10:54:46.727|56=TRAX|10=227|8=FIXT.1.1|9=60|35=0|34=235|49=HEMAQA1_APA|52=20180725-10:55:16.727|56=TRAX|10=226|8=FIXT.1.1|9=60|35=0|34=236|49=HEMAQA1_APA|52=20180725-10:55:47.718|56=TRAX|10=231|8=FIXT.1.1|9=60|35=0|34=237|49=HEMAQA1_APA|52=20180725-10:56:17.727|56=TRAX|10=230|8=FIXT.1.1|9=60|35=0|34=238|49=HEMAQA1_APA|52=20180725-10:56:48.726|56=TRAX|10=234|8=FIXT.1.1|9=60|35=0|34=239|49=HEMAQA1_APA|52=20180725-10:57:18.727|56=TRAX|10=234|8=FIXT.1.1|9=60|35=0|34=240|49=HEMAQA1_APA|52=20180725-10:57:49.717|56=TRAX|10=229|8=FIXT.1.1|9=60|35=0|34=241|49=HEMAQA1_APA|52=20180725-10:58:19.725|56=TRAX|10=227|8=FIXT.1.1|9=60|35=0|34=242|49=HEMAQA1_APA|52=20180725-10:58:50.714|56=TRAX|10=221|8=FIXT.1.1|9=60|35=0|34=243|49=HEMAQA1_APA|52=20180725-10:59:20.715|56=TRAX|10=221|8=FIXT.1.1|9=60|35=0|34=244|49=HEMAQA1_APA|52=20180725-10:59:51.715|56=TRAX|10=226|8=FIXT.1.1|9=60|35=0|34=245|49=HEMAQA1_APA|52=20180725-11:00:21.726|56=TRAX|10=213|8=FIXT.1.1|9=60|35=0|34=246|49=HEMAQA1_APA|52=20180725-11:00:52.726|56=TRAX|10=218|8=FIXT.1.1|9=60|35=0|34=247|49=HEMAQA1_APA|52=20180725-11:01:23.717|56=TRAX|10=218|8=FIXT.1.1|9=60|35=0|34=248|49=HEMAQA1_APA|52=20180725-11:01:54.720|56=TRAX|10=217|8=FIXT.1.1|9=60|35=0|34=249|49=HEMAQA1_APA|52=20180725-11:02:24.912|56=TRAX|10=219|8=FIXT.1.1|9=60|35=0|34=250|49=HEMAQA1_APA|52=20180725-11:02:54.918|56=TRAX|10=220|8=FIXT.1.1|9=60|35=0|34=251|49=HEMAQA1_APA|52=20180725-11:03:24.919|56=TRAX|10=220|8=FIXT.1.1|9=60|35=0|34=252|49=HEMAQA1_APA|52=20180725-11:03:55.725|56=TRAX|10=220|8=FIXT.1.1|9=60|35=0|34=253|49=HEMAQA1_APA|52=20180725-11:04:26.722|56=TRAX|10=217|8=FIXT.1.1|9=60|35=0|34=254|49=HEMAQA1_APA|52=20180725-11:04:57.715|56=TRAX|10=224|8=FIXT.1.1|9=60|35=0|34=255|49=HEMAQA1_APA|52=20180725-11:05:27.724|56=TRAX|10=223|8=FIXT.1.1|9=60|35=0|34=256|49=HEMAQA1_APA|52=20180725-11:05:57.728|56=TRAX|10=231|8=FIXT.1.1|9=60|35=0|34=257|49=HEMAQA1_APA|52=20180725-11:06:28.725|56=TRAX|10=228|8=FIXT.1.1|9=60|35=0|34=258|49=HEMAQA1_APA|52=20180725-11:06:59.714|56=TRAX|10=231|8=FIXT.1.1|9=60|35=0|34=259|49=HEMAQA1_APA|52=20180725-11:07:29.723|56=TRAX|10=230|8=FIXT.1.1|9=60|35=0|34=260|49=HEMAQA1_APA|52=20180725-11:07:59.728|56=TRAX|10=230|8=FIXT.1.1|9=60|35=0|34=261|49=HEMAQA1_APA|52=20180725-11:08:30.717|56=TRAX|10=219|8=FIXT.1.1|9=60|35=0|34=262|49=HEMAQA1_APA|52=20180725-11:09:00.723|56=TRAX|10=215|8=FIXT.1.1|9=60|35=0|34=263|49=HEMAQA1_APA|52=20180725-11:09:31.720|56=TRAX|10=217|8=FIXT.1.1|9=60|35=0|34=264|49=HEMAQA1_APA|52=20180725-11:10:01.724|56=TRAX|10=211|8=FIXT.1.1|9=60|35=0|34=265|49=HEMAQA1_APA|52=20180725-11:10:32.717|56=TRAX|10=218|8=FIXT.1.1|9=60|35=0|34=266|49=HEMAQA1_APA|52=20180725-11:11:03.725|56=TRAX|10=217|8=FIXT.1.1|9=60|35=0|34=267|49=HEMAQA1_APA|52=20180725-11:11:34.717|56=TRAX|10=223|8=FIXT.1.1|9=60|35=0|34=268|49=HEMAQA1_APA|52=20180725-11:12:04.717|56=TRAX|10=222|8=FIXT.1.1|9=60|35=0|34=269|49=HEMAQA1_APA|52=20180725-11:12:34.722|56=TRAX|10=222|8=FIXT.1.1|9=60|35=0|34=270|49=HEMAQA1_APA|52=20180725-11:13:04.723|56=TRAX|10=213|8=FIXT.1.1|9=60|35=0|34=271|49=HEMAQA1_APA|52=20180725-11:13:35.724|56=TRAX|10=219|8=FIXT.1.1|9=60|35=0|34=272|49=HEMAQA1_APA|52=20180725-11:14:06.712|56=TRAX|10=216|8=FIXT.1.1|9=60|35=0|34=273|49=HEMAQA1_APA|52=20180725-11:14:36.712|56=TRAX|10=220|8=FIXT.1.1|9=60|35=0|34=274|49=HEMAQA1_APA|52=20180725-11:15:06.722|56=TRAX|10=220|8=FIXT.1.1|9=60|35=0|34=275|49=HEMAQA1_APA|52=20180725-11:15:37.713|56=TRAX|10=225|8=FIXT.1.1|9=60|35=0|34=276|49=HEMAQA1_APA|52=20180725-11:16:07.713|56=TRAX|10=224|8=FIXT.1.1|9=60|35=0|34=277|49=HEMAQA1_APA|52=20180725-11:16:37.724|56=TRAX|10=230|8=FIXT.1.1|9=60|35=0|34=278|49=HEMAQA1_APA|52=20180725-11:17:08.716|56=TRAX|10=231|8=FIXT.1.1|9=60|35=0|34=279|49=HEMAQA1_APA|52=20180725-11:17:38.721|56=TRAX|10=231|8=FIXT.1.1|9=60|35=0|34=280|49=HEMAQA1_APA|52=20180725-11:18:09.721|56=TRAX|10=222|8=FIXT.1.1|9=60|35=0|34=281|49=HEMAQA1_APA|52=20180725-11:18:40.727|56=TRAX|10=224|8=FIXT.1.1|9=60|35=0|34=282|49=HEMAQA1_APA|52=20180725-11:19:11.725|56=TRAX|10=222|8=FIXT.1.1|9=60|35=0|34=283|49=HEMAQA1_APA|52=20180725-11:19:42.715|56=TRAX|10=226|8=FIXT.1.1|9=60|35=0|34=284|49=HEMAQA1_APA|52=20180725-11:20:12.724|56=TRAX|10=216|8=FIXT.1.1|9=60|35=0|34=285|49=HEMAQA1_APA|52=20180725-11:20:42.725|56=TRAX|10=221|8=FIXT.1.1|9=60|35=0|34=286|49=HEMAQA1_APA|52=20180725-11:21:13.713|56=TRAX|10=218|8=FIXT.1.1|9=60|35=0|34=287|49=HEMAQA1_APA|52=20180725-11:21:43.723|56=TRAX|10=223|8=FIXT.1.1|9=60|35=0|34=288|49=HEMAQA1_APA|52=20180725-11:22:14.727|56=TRAX|10=227|8=FIXT.1.1|9=60|35=0|34=289|49=HEMAQA1_APA|52=20180725-11:22:45.723|56=TRAX|10=228|8=FIXT.1.1|9=60|35=0|34=290|49=HEMAQA1_APA|52=20180725-11:23:15.724|56=TRAX|10=219|8=FIXT.1.1|9=60|35=0|34=291|49=HEMAQA1_APA|52=20180725-11:23:46.720|56=TRAX|10=220|8=FIXT.1.1|9=60|35=0|34=292|49=HEMAQA1_APA|52=20180725-11:24:17.725|56=TRAX|10=225|8=FIXT.1.1|9=60|35=0|34=293|49=HEMAQA1_APA|52=20180725-11:24:48.726|56=TRAX|10=231|8=FIXT.1.1|9=60|35=0|34=294|49=HEMAQA1_APA|52=20180725-11:25:19.718|56=TRAX|10=232|8=FIXT.1.1|9=60|35=0|34=295|49=HEMAQA1_APA|52=20180725-11:25:50.711|56=TRAX|10=221|8=FIXT.1.1|9=60|35=0|34=296|49=HEMAQA1_APA|52=20180725-11:26:20.711|56=TRAX|10=220|8=FIXT.1.1|9=60|35=0|34=297|49=HEMAQA1_APA|52=20180725-11:26:50.719|56=TRAX|10=232|8=FIXT.1.1|9=60|35=0|34=298|49=HEMAQA1_APA|52=20180725-11:27:21.711|56=TRAX|10=224|8=FIXT.1.1|9=60|35=0|34=299|49=HEMAQA1_APA|52=20180725-11:27:52.711|56=TRAX|10=229|8=FIXT.1.1|9=60|35=0|34=300|49=HEMAQA1_APA|52=20180725-11:28:22.711|56=TRAX|10=210|8=FIXT.1.1|9=60|35=0|34=301|49=HEMAQA1_APA|52=20180725-11:28:52.722|56=TRAX|10=216|8=FIXT.1.1|9=60|35=0|34=302|49=HEMAQA1_APA|52=20180725-11:29:23.710|56=TRAX|10=213|8=FIXT.1.1|9=60|35=0|34=303|49=HEMAQA1_APA|52=20180725-11:29:53.722|56=TRAX|10=220|8=FIXT.1.1|9=60|35=0|34=304|49=HEMAQA1_APA|52=20180725-11:30:24.718|56=TRAX|10=216|8=FIXT.1.1|9=60|35=0|34=305|49=HEMAQA1_APA|52=20180725-11:30:54.918|56=TRAX|10=222|8=FIXT.1.1|9=60|35=0|34=306|49=HEMAQA1_APA|52=20180725-11:31:24.921|56=TRAX|10=215|8=FIXT.1.1|9=60|35=0|34=307|49=HEMAQA1_APA|52=20180725-11:31:54.921|56=TRAX|10=219|8=FIXT.1.1|9=60|35=0|34=308|49=HEMAQA1_APA|52=20180725-11:32:25.718|56=TRAX|10=223|8=FIXT.1.1|9=60|35=0|34=309|49=HEMAQA1_APA|52=20180725-11:32:55.722|56=TRAX|10=222|8=FIXT.1.1|9=60|35=0|34=310|49=HEMAQA1_APA|52=20180725-11:33:26.722|56=TRAX|10=213|8=FIXT.1.1|9=60|35=0|34=311|49=HEMAQA1_APA|52=20180725-11:33:57.718|56=TRAX|10=223|8=FIXT.1.1|9=60|35=0|34=312|49=HEMAQA1_APA|52=20180725-11:34:27.725|56=TRAX|10=220|8=FIXT.1.1|9=60|35=0|34=313|49=HEMAQA1_APA|52=20180725-11:34:58.711|56=TRAX|10=220|8=FIXT.1.1|9=60|35=0|34=314|49=HEMAQA1_APA|52=20180725-11:35:28.711|56=TRAX|10=219|8=FIXT.1.1|9=60|35=0|34=315|49=HEMAQA1_APA|52=20180725-11:35:58.711|56=TRAX|10=223|8=FIXT.1.1|9=60|35=0|34=316|49=HEMAQA1_APA|52=20180725-11:36:28.718|56=TRAX|10=229|8=FIXT.1.1|9=60|35=0|34=317|49=HEMAQA1_APA|52=20180725-11:36:58.718|56=TRAX|10=233|8=FIXT.1.1|9=60|35=0|34=318|49=HEMAQA1_APA|52=20180725-11:37:28.718|56=TRAX|10=232|8=FIXT.1.1|9=60|35=0|34=319|49=HEMAQA1_APA|52=20180725-11:37:58.718|56=TRAX|10=236|8=FIXT.1.1|9=60|35=0|34=320|49=HEMAQA1_APA|52=20180725-11:38:28.719|56=TRAX|10=227|8=FIXT.1.1|9=60|35=0|34=321|49=HEMAQA1_APA|52=20180725-11:38:58.724|56=TRAX|10=227|8=FIXT.1.1|9=60|35=0|34=322|49=HEMAQA1_APA|52=20180725-11:39:29.725|56=TRAX|10=228|8=FIXT.1.1|9=60|35=0|34=323|49=HEMAQA1_APA|52=20180725-11:40:00.723|56=TRAX|10=208|8=FIXT.1.1|9=60|35=0|34=324|49=HEMAQA1_APA|52=20180725-11:40:31.718|56=TRAX|10=217|8=FIXT.1.1|9=60|35=0|34=325|49=HEMAQA1_APA|52=20180725-11:41:01.725|56=TRAX|10=214|8=FIXT.1.1|9=60|35=0|34=326|49=HEMAQA1_APA|52=20180725-11:41:32.710|56=TRAX|10=213|8=FIXT.1.1|9=60|35=0|34=327|49=HEMAQA1_APA|52=20180725-11:42:02.717|56=TRAX|10=219|8=FIXT.1.1|9=60|35=0|34=328|49=HEMAQA1_APA|52=20180725-11:42:32.717|56=TRAX|10=223|8=FIXT.1.1|9=60|35=0|34=329|49=HEMAQA1_APA|52=20180725-11:43:03.723|56=TRAX|10=220|8=FIXT.1.1|9=60|35=0|34=330|49=HEMAQA1_APA|52=20180725-11:43:34.716|56=TRAX|10=218|8=FIXT.1.1|9=60|35=0|34=331|49=HEMAQA1_APA|52=20180725-11:44:04.716|56=TRAX|10=217|8=FIXT.1.1|9=60|35=0|34=332|49=HEMAQA1_APA|52=20180725-11:44:34.716|56=TRAX|10=221|8=FIXT.1.1|9=60|35=0|34=333|49=HEMAQA1_APA|52=20180725-11:45:04.716|56=TRAX|10=220|8=FIXT.1.1|9=60|35=0|34=334|49=HEMAQA1_APA|52=20180725-11:45:34.716|56=TRAX|10=224|8=FIXT.1.1|9=60|35=0|34=335|49=HEMAQA1_APA|52=20180725-11:46:04.722|56=TRAX|10=220|8=FIXT.1.1|9=60|35=0|34=336|49=HEMAQA1_APA|52=20180725-11:46:35.716|56=TRAX|10=228|8=FIXT.1.1|9=60|35=0|34=337|49=HEMAQA1_APA|52=20180725-11:47:05.722|56=TRAX|10=224|8=FIXT.1.1|9=60|35=0|34=338|49=HEMAQA1_APA|52=20180725-11:47:35.722|56=TRAX|10=228|8=FIXT.1.1|9=60|35=0|34=339|49=HEMAQA1_APA|52=20180725-11:48:06.714|56=TRAX|10=229|8=FIXT.1.1|9=60|35=0|34=340|49=HEMAQA1_APA|52=20180725-11:48:36.717|56=TRAX|10=227|8=FIXT.1.1|9=60|35=0|34=341|49=HEMAQA1_APA|52=20180725-11:49:06.718|56=TRAX|10=227|8=FIXT.1.1|9=60|35=0|34=342|49=HEMAQA1_APA|52=20180725-11:49:37.721|56=TRAX|10=226|8=FIXT.1.1|9=60|35=0|34=343|49=HEMAQA1_APA|52=20180725-11:50:08.716|56=TRAX|10=221|8=FIXT.1.1|9=60|35=0|34=344|49=HEMAQA1_APA|52=20180725-11:50:38.716|56=TRAX|10=225|8=FIXT.1.1|9=60|35=0|34=345|49=HEMAQA1_APA|52=20180725-11:51:08.721|56=TRAX|10=220|8=FIXT.1.1|9=60|35=0|34=346|49=HEMAQA1_APA|52=20180725-11:51:39.716|56=TRAX|10=229|8=FIXT.1.1|9=60|35=0|34=347|49=HEMAQA1_APA|52=20180725-11:52:10.716|56=TRAX|10=220|8=FIXT.1.1|9=60|35=0|34=348|49=HEMAQA1_APA|52=20180725-11:52:40.716|56=TRAX|10=224|8=FIXT.1.1|9=60|35=0|34=349|49=HEMAQA1_APA|52=20180725-11:53:10.716|56=TRAX|10=223|8=FIXT.1.1|9=60|35=0|34=350|49=HEMAQA1_APA|52=20180725-11:53:41.716|56=TRAX|10=219|8=FIXT.1.1|9=60|35=0|34=351|49=HEMAQA1_APA|52=20180725-11:54:11.718|56=TRAX|10=220|8=FIXT.1.1|9=60|35=0|34=352|49=HEMAQA1_APA|52=20180725-11:54:42.718|56=TRAX|10=225|8=FIXT.1.1|9=60|35=0|34=353|49=HEMAQA1_APA|52=20180725-11:55:13.715|56=TRAX|10=222|8=FIXT.1.1|9=60|35=0|34=354|49=HEMAQA1_APA|52=20180725-11:55:43.719|56=TRAX|10=230|8=FIXT.1.1|9=60|35=0|34=355|49=HEMAQA1_APA|52=20180725-11:56:14.721|56=TRAX|10=223|8=FIXT.1.1|9=60|35=0|34=356|49=HEMAQA1_APA|52=20180725-11:56:45.715|56=TRAX|10=231|8=FIXT.1.1|9=60|35=0|34=357|49=HEMAQA1_APA|52=20180725-11:57:16.716|56=TRAX|10=232|8=FIXT.1.1|9=60|35=0|34=358|49=HEMAQA1_APA|52=20180725-11:57:46.721|56=TRAX|10=232|8=FIXT.1.1|9=60|35=0|34=359|49=HEMAQA1_APA|52=20180725-11:58:17.722|56=TRAX|10=233|8=FIXT.1.1|9=60|35=0|34=360|49=HEMAQA1_APA|52=20180725-11:58:48.714|56=TRAX|10=230|8=FIXT.1.1|9=60|35=0|34=361|49=HEMAQA1_APA|52=20180725-11:59:18.715|56=TRAX|10=230|8=FIXT.1.1|9=60|35=0|34=362|49=HEMAQA1_APA|52=20180725-11:59:48.715|56=TRAX|10=234|8=FIXT.1.1|9=60|35=0|34=363|49=HEMAQA1_APA|52=20180725-12:00:18.720|56=TRAX|10=215|8=FIXT.1.1|9=60|35=0|34=364|49=HEMAQA1_APA|52=20180725-12:00:48.721|56=TRAX|10=220|8=FIXT.1.1|9=60|35=0|34=365|49=HEMAQA1_APA|52=20180725-12:01:19.714|56=TRAX|10=222|8=FIXT.1.1|9=60|35=0|34=366|49=HEMAQA1_APA|52=20180725-12:01:49.714|56=TRAX|10=226|8=FIXT.1.1|9=60|35=0|34=367|49=HEMAQA1_APA|52=20180725-12:02:20.706|56=TRAX|10=218|8=FIXT.1.1|9=60|35=0|34=368|49=HEMAQA1_APA|52=20180725-12:02:50.708|56=TRAX|10=224|8=FIXT.1.1|9=60|35=0|34=369|49=HEMAQA1_APA|52=20180725-12:03:21.718|56=TRAX|10=225|8=FIXT.1.1|9=60|35=0|34=370|49=HEMAQA1_APA|52=20180725-12:03:52.706|56=TRAX|10=218|8=FIXT.1.1|9=60|35=0|34=371|49=HEMAQA1_APA|52=20180725-12:04:22.707|56=TRAX|10=218|8=FIXT.1.1|9=60|35=0|34=372|49=HEMAQA1_APA|52=20180725-12:04:52.707|56=TRAX|10=222|8=FIXT.1.1|9=60|35=0|34=373|49=HEMAQA1_APA|52=20180725-12:05:22.719|56=TRAX|10=224|8=FIXT.1.1|9=60|35=0|34=374|49=HEMAQA1_APA|52=20180725-12:05:52.719|56=TRAX|10=228|8=FIXT.1.1|9=60|35=0|34=375|49=HEMAQA1_APA|52=20180725-12:06:23.707|56=TRAX|10=225|8=FIXT.1.1|9=60|35=0|34=376|49=HEMAQA1_APA|52=20180725-12:06:53.720|56=TRAX|10=224|8=FIXT.1.1|9=60|35=0|34=377|49=HEMAQA1_APA|52=20180725-12:07:24.707|56=TRAX|10=229|8=FIXT.1.1|9=60|35=0|34=378|49=HEMAQA1_APA|52=20180725-12:07:54.713|56=TRAX|10=230|8=FIXT.1.1|9=60|35=0|34=379|49=HEMAQA1_APA|52=20180725-12:08:24.721|56=TRAX|10=228|8=FIXT.1.1|9=60|35=0|34=380|49=HEMAQA1_APA|52=20180725-12:08:54.721|56=TRAX|10=223|8=FIXT.1.1|9=60|35=0|34=381|49=HEMAQA1_APA|52=20180725-12:09:25.713|56=TRAX|10=224|8=FIXT.1.1|9=60|35=0|34=382|49=HEMAQA1_APA|52=20180725-12:09:55.921|56=TRAX|10=229|8=FIXT.1.1|9=60|35=0|34=383|49=HEMAQA1_APA|52=20180725-12:10:26.714|56=TRAX|10=220|8=FIXT.1.1|9=60|35=0|34=384|49=HEMAQA1_APA|52=20180725-12:10:56.716|56=TRAX|10=226|8=FIXT.1.1|9=60|35=0|34=385|49=HEMAQA1_APA|52=20180725-12:11:26.720|56=TRAX|10=220|8=FIXT.1.1|9=60|35=0|34=386|49=HEMAQA1_APA|52=20180725-12:11:57.706|56=TRAX|10=229|8=FIXT.1.1|9=60|35=0|34=387|49=HEMAQA1_APA|52=20180725-12:12:27.718|56=TRAX|10=231|8=FIXT.1.1|9=60|35=0|34=388|49=HEMAQA1_APA|52=20180725-12:12:58.714|56=TRAX|10=232|8=FIXT.1.1|9=60|35=0|34=389|49=HEMAQA1_APA|52=20180725-12:13:28.715|56=TRAX|10=232|8=FIXT.1.1|9=60|35=0|34=390|49=HEMAQA1_APA|52=20180725-12:13:59.714|56=TRAX|10=227|8=FIXT.1.1|9=60|35=0|34=391|49=HEMAQA1_APA|52=20180725-12:14:29.714|56=TRAX|10=226|8=FIXT.1.1|9=60|35=0|34=392|49=HEMAQA1_APA|52=20180725-12:15:00.714|56=TRAX|10=217|8=FIXT.1.1|9=60|35=0|34=393|49=HEMAQA1_APA|52=20180725-12:15:31.713|56=TRAX|10=221|8=FIXT.1.1|9=60|35=0|34=394|49=HEMAQA1_APA|52=20180725-12:16:01.713|56=TRAX|10=220|8=FIXT.1.1|9=60|35=0|34=395|49=HEMAQA1_APA|52=20180725-12:16:31.713|56=TRAX|10=224|8=FIXT.1.1|9=60|35=0|34=396|49=HEMAQA1_APA|52=20180725-12:17:01.720|56=TRAX|10=221|8=FIXT.1.1|9=60|35=0|34=397|49=HEMAQA1_APA|52=20180725-12:17:32.720|56=TRAX|10=226|8=FIXT.1.1|9=60|35=0|34=398|49=HEMAQA1_APA|52=20180725-12:18:03.709|56=TRAX|10=233|8=FIXT.1.1|9=60|35=0|34=399|49=HEMAQA1_APA|52=20180725-12:18:33.714|56=TRAX|10=233|8=FIXT.1.1|9=60|35=0|34=400|49=HEMAQA1_APA|52=20180725-12:19:04.719|56=TRAX|10=220|8=FIXT.1.1|9=60|35=0|34=401|49=HEMAQA1_APA|52=20180725-12:19:35.718|56=TRAX|10=224|8=FIXT.1.1|9=60|35=0|34=402|49=HEMAQA1_APA|52=20180725-12:20:06.712|56=TRAX|10=209|8=FIXT.1.1|9=60|35=0|34=403|49=HEMAQA1_APA|52=20180725-12:20:37.712|56=TRAX|10=214|8=FIXT.1.1|9=60|35=0|34=404|49=HEMAQA1_APA|52=20180725-12:21:07.713|56=TRAX|10=214|8=FIXT.1.1|9=60|35=0|34=405|49=HEMAQA1_APA|52=20180725-12:21:37.713|56=TRAX|10=218|8=FIXT.1.1|9=60|35=0|34=406|49=HEMAQA1_APA|52=20180725-12:22:08.712|56=TRAX|10=217|8=FIXT.1.1|9=60|35=0|34=407|49=HEMAQA1_APA|52=20180725-12:22:38.719|56=TRAX|10=228|8=FIXT.1.1|9=60|35=0|34=408|49=HEMAQA1_APA|52=20180725-12:23:09.715|56=TRAX|10=224|8=FIXT.1.1|9=60|35=0|34=409|49=HEMAQA1_APA|52=20180725-12:23:40.712|56=TRAX|10=217|8=FIXT.1.1|9=60|35=0|34=410|49=HEMAQA1_APA|52=20180725-12:24:10.716|56=TRAX|10=211|8=FIXT.1.1|9=60|35=0|34=411|49=HEMAQA1_APA|52=20180725-12:24:41.709|56=TRAX|10=218|8=FIXT.1.1|9=60|35=0|34=412|49=HEMAQA1_APA|52=20180725-12:25:11.714|56=TRAX|10=213|8=FIXT.1.1|9=60|35=0|34=413|49=HEMAQA1_APA|52=20180725-12:25:42.712|56=TRAX|10=216|8=FIXT.1.1|9=60|35=0|34=414|49=HEMAQA1_APA|52=20180725-12:26:12.713|56=TRAX|10=216|8=FIXT.1.1|9=60|35=0|34=415|49=HEMAQA1_APA|52=20180725-12:26:43.712|56=TRAX|10=220|8=FIXT.1.1|9=60|35=0|34=416|49=HEMAQA1_APA|52=20180725-12:27:13.713|56=TRAX|10=220|8=FIXT.1.1|9=60|35=0|34=417|49=HEMAQA1_APA|52=20180725-12:27:44.719|56=TRAX|10=231|8=FIXT.1.1|9=60|35=0|34=418|49=HEMAQA1_APA|52=20180725-12:28:15.712|56=TRAX|10=224|8=FIXT.1.1|9=60|35=0|34=419|49=HEMAQA1_APA|52=20180725-12:28:45.715|56=TRAX|10=231|8=FIXT.1.1|9=60|35=0|34=420|49=HEMAQA1_APA|52=20180725-12:29:16.706|56=TRAX|10=222|8=FIXT.1.1|9=60|35=0|34=421|49=HEMAQA1_APA|52=20180725-12:29:46.718|56=TRAX|10=229|8=FIXT.1.1|9=60|35=0|34=422|49=HEMAQA1_APA|52=20180725-12:30:17.712|56=TRAX|10=214|8=FIXT.1.1|9=60|35=0|34=423|49=HEMAQA1_APA|52=20180725-12:30:48.713|56=TRAX|10=220|8=FIXT.1.1|9=60|35=0|34=424|49=HEMAQA1_APA|52=20180725-12:31:19.712|56=TRAX|10=219|8=FIXT.1.1|9=60|35=0|34=425|49=HEMAQA1_APA|52=20180725-12:31:49.712|56=TRAX|10=223|8=FIXT.1.1|9=60|35=0|34=426|49=HEMAQA1_APA|52=20180725-12:32:20.703|56=TRAX|10=214|8=FIXT.1.1|9=60|35=0|34=427|49=HEMAQA1_APA|52=20180725-12:32:50.710|56=TRAX|10=216|8=FIXT.1.1|9=60|35=0|34=428|49=HEMAQA1_APA|52=20180725-12:33:20.711|56=TRAX|10=216|8=FIXT.1.1|9=60|35=0|34=429|49=HEMAQA1_APA|52=20180725-12:33:50.715|56=TRAX|10=224|8=FIXT.1.1|9=60|35=0|34=430|49=HEMAQA1_APA|52=20180725-12:34:21.704|56=TRAX|10=213|8=FIXT.1.1|9=60|35=0|34=431|49=HEMAQA1_APA|52=20180725-12:34:52.710|56=TRAX|10=215|8=FIXT.1.1|9=60|35=0|34=432|49=HEMAQA1_APA|52=20180725-12:35:22.713|56=TRAX|10=217|8=FIXT.1.1|9=60|35=0|34=433|49=HEMAQA1_APA|52=20180725-12:35:53.702|56=TRAX|10=220|8=FIXT.1.1|9=60|35=0|34=434|49=HEMAQA1_APA|52=20180725-12:36:23.705|56=TRAX|10=222|8=FIXT.1.1|9=60|35=0|34=435|49=HEMAQA1_APA|52=20180725-12:36:53.710|56=TRAX|10=222|8=FIXT.1.1|9=60|35=0|34=436|49=HEMAQA1_APA|52=20180725-12:37:23.711|56=TRAX|10=222|8=FIXT.1.1|9=60|35=0|34=437|49=HEMAQA1_APA|52=20180725-12:37:54.716|56=TRAX|10=232|8=FIXT.1.1|9=60|35=0|34=438|49=HEMAQA1_APA|52=20180725-12:38:25.717|56=TRAX|10=233|8=FIXT.1.1|9=60|35=0|34=439|49=HEMAQA1_APA|52=20180725-12:38:56.710|56=TRAX|10=231|8=FIXT.1.1|9=60|35=0|34=440|49=HEMAQA1_APA|52=20180725-12:39:26.717|56=TRAX|10=228|8=FIXT.1.1|9=60|35=0|34=441|49=HEMAQA1_APA|52=20180725-12:39:56.920|56=TRAX|10=228|8=FIXT.1.1|9=60|35=0|34=442|49=HEMAQA1_APA|52=20180725-12:40:26.920|56=TRAX|10=218|8=FIXT.1.1|9=60|35=0|34=443|49=HEMAQA1_APA|52=20180725-12:40:57.710|56=TRAX|10=220|8=FIXT.1.1|9=60|35=0|34=444|49=HEMAQA1_APA|52=20180725-12:41:27.710|56=TRAX|10=219|8=FIXT.1.1|9=60|35=0|34=445|49=HEMAQA1_APA|52=20180725-12:41:58.714|56=TRAX|10=228|8=FIXT.1.1|9=60|35=0|34=446|49=HEMAQA1_APA|52=20180725-12:42:29.712|56=TRAX|10=226|8=FIXT.1.1|9=60|35=0|34=447|49=HEMAQA1_APA|52=20180725-12:43:00.711|56=TRAX|10=216|8=FIXT.1.1|9=60|35=0|34=448|49=HEMAQA1_APA|52=20180725-12:43:30.711|56=TRAX|10=220|8=FIXT.1.1|9=60|35=0|34=449|49=HEMAQA1_APA|52=20180725-12:44:00.715|56=TRAX|10=223|8=FIXT.1.1|9=60|35=0|34=450|49=HEMAQA1_APA|52=20180725-12:44:31.709|56=TRAX|10=222|8=FIXT.1.1|9=60|35=0|34=451|49=HEMAQA1_APA|52=20180725-12:45:02.704|56=TRAX|10=217|8=FIXT.1.1|9=60|35=0|34=452|49=HEMAQA1_APA|52=20180725-12:45:32.710|56=TRAX|10=218|8=FIXT.1.1|9=60|35=0|34=453|49=HEMAQA1_APA|52=20180725-12:46:03.709|56=TRAX|10=226|8=FIXT.1.1|9=60|35=0|34=454|49=HEMAQA1_APA|52=20180725-12:46:34.710|56=TRAX|10=223|8=FIXT.1.1|9=60|35=0|34=455|49=HEMAQA1_APA|52=20180725-12:47:05.709|56=TRAX|10=231|8=FIXT.1.1|9=60|35=0|34=456|49=HEMAQA1_APA|52=20180725-12:47:36.710|56=TRAX|10=228|8=FIXT.1.1|9=60|35=0|34=457|49=HEMAQA1_APA|52=20180725-12:48:06.710|56=TRAX|10=227|8=FIXT.1.1|9=60|35=0|34=458|49=HEMAQA1_APA|52=20180725-12:48:37.701|56=TRAX|10=232|8=FIXT.1.1|9=60|35=0|34=459|49=HEMAQA1_APA|52=20180725-12:49:07.714|56=TRAX|10=235|8=FIXT.1.1|9=60|35=0|34=460|49=HEMAQA1_APA|52=20180725-12:49:38.714|56=TRAX|10=231|8=FIXT.1.1|9=60|35=0|34=461|49=HEMAQA1_APA|52=20180725-12:50:09.701|56=TRAX|10=218|8=FIXT.1.1|9=60|35=0|34=462|49=HEMAQA1_APA|52=20180725-12:50:39.703|56=TRAX|10=224|8=FIXT.1.1|9=60|35=0|34=463|49=HEMAQA1_APA|52=20180725-12:51:09.709|56=TRAX|10=229|8=FIXT.1.1|9=60|35=0|34=464|49=HEMAQA1_APA|52=20180725-12:51:40.709|56=TRAX|10=225|8=FIXT.1.1|9=60|35=0|34=465|49=HEMAQA1_APA|52=20180725-12:52:10.709|56=TRAX|10=224|8=FIXT.1.1|9=60|35=0|34=466|49=HEMAQA1_APA|52=20180725-12:52:41.709|56=TRAX|10=229|8=FIXT.1.1|9=60|35=0|34=467|49=HEMAQA1_APA|52=20180725-12:53:12.701|56=TRAX|10=221|8=FIXT.1.1|9=60|35=0|34=468|49=HEMAQA1_APA|52=20180725-12:53:42.708|56=TRAX|10=232|8=FIXT.1.1|9=60|35=0|34=469|49=HEMAQA1_APA|52=20180725-12:54:12.708|56=TRAX|10=231|8=FIXT.1.1|9=60|35=0|34=470|49=HEMAQA1_APA|52=20180725-12:54:43.708|56=TRAX|10=227|8=FIXT.1.1|9=60|35=0|34=471|49=HEMAQA1_APA|52=20180725-12:55:13.715|56=TRAX|10=224|8=FIXT.1.1|9=60|35=0|34=472|49=HEMAQA1_APA|52=20180725-12:55:44.709|56=TRAX|10=232|8=FIXT.1.1|9=60|35=0|34=473|49=HEMAQA1_APA|52=20180725-12:56:14.709|56=TRAX|10=231|8=FIXT.1.1|9=60|35=0|34=474|49=HEMAQA1_APA|52=20180725-12:56:45.708|56=TRAX|10=235|8=FIXT.1.1|9=60|35=0|34=475|49=HEMAQA1_APA|52=20180725-12:57:15.710|56=TRAX|10=227|8=FIXT.1.1|9=60|35=0|34=476|49=HEMAQA1_APA|52=20180725-12:57:45.710|56=TRAX|10=231|8=FIXT.1.1|9=60|35=0|34=477|49=HEMAQA1_APA|52=20180725-12:58:15.712|56=TRAX|10=232|8=FIXT.1.1|9=60|35=0|34=478|49=HEMAQA1_APA|52=20180725-12:58:46.714|56=TRAX|10=239|8=FIXT.1.1|9=60|35=0|34=479|49=HEMAQA1_APA|52=20180725-12:59:17.701|56=TRAX|10=235|8=FIXT.1.1|9=60|35=0|34=480|49=HEMAQA1_APA|52=20180725-12:59:47.708|56=TRAX|10=237|8=FIXT.1.1|9=60|35=0|34=481|49=HEMAQA1_APA|52=20180725-13:00:17.708|56=TRAX|10=222|8=FIXT.1.1|9=60|35=0|34=482|49=HEMAQA1_APA|52=20180725-13:00:47.709|56=TRAX|10=227|8=FIXT.1.1|9=60|35=0|34=483|49=HEMAQA1_APA|52=20180725-13:01:18.708|56=TRAX|10=226|8=FIXT.1.1|9=60|35=0|34=484|49=HEMAQA1_APA|52=20180725-13:01:48.709|56=TRAX|10=231|8=FIXT.1.1|9=60|35=0|34=485|49=HEMAQA1_APA|52=20180725-13:02:18.716|56=TRAX|10=228|8=FIXT.1.1|9=60|35=0|34=486|49=HEMAQA1_APA|52=20180725-13:02:49.701|56=TRAX|10=227|8=FIXT.1.1|9=60|35=0|34=487|49=HEMAQA1_APA|52=20180725-13:03:19.701|56=TRAX|10=226|8=FIXT.1.1|9=60|35=0|34=488|49=HEMAQA1_APA|52=20180725-13:03:49.709|56=TRAX|10=238|8=FIXT.1.1|9=60|35=0|34=489|49=HEMAQA1_APA|52=20180725-13:04:19.709|56=TRAX|10=237|8=FIXT.1.1|9=60|35=0|34=490|49=HEMAQA1_APA|52=20180725-13:04:49.710|56=TRAX|10=224|8=FIXT.1.1|9=60|35=0|34=491|49=HEMAQA1_APA|52=20180725-13:05:20.700|56=TRAX|10=214|8=FIXT.1.1|9=60|35=0|34=492|49=HEMAQA1_APA|52=20180725-13:05:50.713|56=TRAX|10=222|8=FIXT.1.1|9=60|35=0|34=493|49=HEMAQA1_APA|52=20180725-13:06:21.700|56=TRAX|10=218|8=FIXT.1.1|9=60|35=0|34=494|49=HEMAQA1_APA|52=20180725-13:06:51.712|56=TRAX|10=225|8=FIXT.1.1|9=60|35=0|34=495|49=HEMAQA1_APA|52=20180725-13:07:22.700|56=TRAX|10=222|8=FIXT.1.1|9=60|35=0|34=496|49=HEMAQA1_APA|52=20180725-13:07:52.701|56=TRAX|10=227|8=FIXT.1.1|9=60|35=0|34=497|49=HEMAQA1_APA|52=20180725-13:08:23.699|56=TRAX|10=243|8=FIXT.1.1|9=60|35=0|34=498|49=HEMAQA1_APA|52=20180725-13:08:53.700|56=TRAX|10=230|8=FIXT.1.1|9=60|35=0|34=499|49=HEMAQA1_APA|52=20180725-13:09:24.699|56=TRAX|10=247|8=FIXT.1.1|9=60|35=0|34=500|49=HEMAQA1_APA|52=20180725-13:09:54.699|56=TRAX|10=233|8=FIXT.1.1|9=60|35=0|34=501|49=HEMAQA1_APA|52=20180725-13:10:24.701|56=TRAX|10=207|8=FIXT.1.1|9=60|35=0|34=502|49=HEMAQA1_APA|52=20180725-13:10:55.699|56=TRAX|10=228|8=FIXT.1.1|9=60|35=0|34=503|49=HEMAQA1_APA|52=20180725-13:11:25.699|56=TRAX|10=227|8=FIXT.1.1|9=60|35=0|34=504|49=HEMAQA1_APA|52=20180725-13:11:55.699|56=TRAX|10=231|8=FIXT.1.1|9=60|35=0|34=505|49=HEMAQA1_APA|52=20180725-13:12:25.700|56=TRAX|10=213|8=FIXT.1.1|9=60|35=0|34=506|49=HEMAQA1_APA|52=20180725-13:12:56.699|56=TRAX|10=235|8=FIXT.1.1|9=60|35=0|34=507|49=HEMAQA1_APA|52=20180725-13:13:26.708|56=TRAX|10=225|8=FIXT.1.1|9=60|35=0|34=508|49=HEMAQA1_APA|52=20180725-13:13:56.925|56=TRAX|10=230|8=FIXT.1.1|9=60|35=0|34=509|49=HEMAQA1_APA|52=20180725-13:14:26.926|56=TRAX|10=230|8=FIXT.1.1|9=60|35=0|34=510|49=HEMAQA1_APA|52=20180725-13:14:57.699|56=TRAX|10=233|8=FIXT.1.1|9=60|35=0|34=511|49=HEMAQA1_APA|52=20180725-13:15:27.700|56=TRAX|10=215|8=FIXT.1.1|9=60|35=0|34=512|49=HEMAQA1_APA|52=20180725-13:15:58.699|56=TRAX|10=237|8=FIXT.1.1|9=60|35=0|34=513|49=HEMAQA1_APA|52=20180725-13:16:28.700|56=TRAX|10=219|8=FIXT.1.1|9=60|35=0|34=514|49=HEMAQA1_APA|52=20180725-13:16:59.699|56=TRAX|10=241|8=FIXT.1.1|9=60|35=0|34=515|49=HEMAQA1_APA|52=20180725-13:17:29.699|56=TRAX|10=240|8=FIXT.1.1|9=60|35=0|34=516|49=HEMAQA1_APA|52=20180725-13:17:59.699|56=TRAX|10=244|8=FIXT.1.1|9=60|35=0|34=517|49=HEMAQA1_APA|52=20180725-13:18:29.699|56=TRAX|10=243|8=FIXT.1.1|9=60|35=0|34=518|49=HEMAQA1_APA|52=20180725-13:18:59.699|56=TRAX|10=247|8=FIXT.1.1|9=60|35=0|34=519|49=HEMAQA1_APA|52=20180725-13:19:29.700|56=TRAX|10=229|8=FIXT.1.1|9=60|35=0|34=520|49=HEMAQA1_APA|52=20180725-13:20:00.698|56=TRAX|10=218|8=FIXT.1.1|9=60|35=0|34=521|49=HEMAQA1_APA|52=20180725-13:20:30.698|56=TRAX|10=222|8=FIXT.1.1|9=60|35=0|34=522|49=HEMAQA1_APA|52=20180725-13:21:00.701|56=TRAX|10=206|8=FIXT.1.1|9=60|35=0|34=523|49=HEMAQA1_APA|52=20180725-13:21:30.709|56=TRAX|10=218|8=FIXT.1.1|9=60|35=0|34=524|49=HEMAQA1_APA|52=20180725-13:22:01.705|56=TRAX|10=214|8=FIXT.1.1|9=60|35=0|34=525|49=HEMAQA1_APA|52=20180725-13:22:32.699|56=TRAX|10=231|8=FIXT.1.1|9=60|35=0|34=526|49=HEMAQA1_APA|52=20180725-13:23:02.705|56=TRAX|10=218|8=FIXT.1.1|9=60|35=0|34=527|49=HEMAQA1_APA|52=20180725-13:23:32.709|56=TRAX|10=226|8=FIXT.1.1|9=60|35=0|34=528|49=HEMAQA1_APA|52=20180725-13:24:03.708|56=TRAX|10=225|8=FIXT.1.1|9=60|35=0|34=529|49=HEMAQA1_APA|52=20180725-13:24:33.708|56=TRAX|10=229|8=FIXT.1.1|9=60|35=0|34=530|49=HEMAQA1_APA|52=20180725-13:25:04.711|56=TRAX|10=214|8=FIXT.1.1|9=60|35=0|34=531|49=HEMAQA1_APA|52=20180725-13:25:35.697|56=TRAX|10=232|8=FIXT.1.1|9=60|35=0|34=532|49=HEMAQA1_APA|52=20180725-13:26:05.710|56=TRAX|10=217|8=FIXT.1.1|9=60|35=0|34=533|49=HEMAQA1_APA|52=20180725-13:26:36.706|56=TRAX|10=227|8=FIXT.1.1|9=60|35=0|34=534|49=HEMAQA1_APA|52=20180725-13:27:07.710|56=TRAX|10=222|8=FIXT.1.1|9=60|35=0|34=535|49=HEMAQA1_APA|52=20180725-13:27:38.711|56=TRAX|10=228|8=FIXT.1.1|9=60|35=0|34=536|49=HEMAQA1_APA|52=20180725-13:28:09.701|56=TRAX|10=227|8=FIXT.1.1|9=60|35=0|34=537|49=HEMAQA1_APA|52=20180725-13:28:40.699|56=TRAX|10=239|8=FIXT.1.1|9=60|35=0|34=538|49=HEMAQA1_APA|52=20180725-13:29:10.704|56=TRAX|10=225|8=FIXT.1.1|9=60|35=0|34=539|49=HEMAQA1_APA|52=20180725-13:29:40.707|56=TRAX|10=232|8=FIXT.1.1|9=60|35=0|34=540|49=HEMAQA1_APA|52=20180725-13:30:11.709|56=TRAX|10=216|8=FIXT.1.1|9=60|35=0|34=541|49=HEMAQA1_APA|52=20180725-13:30:42.700|56=TRAX|10=212|8=FIXT.1.1|9=60|35=0|34=542|49=HEMAQA1_APA|52=20180725-13:31:12.704|56=TRAX|10=215|8=FIXT.1.1|9=60|35=0|34=543|49=HEMAQA1_APA|52=20180725-13:31:43.696|56=TRAX|10=230|8=FIXT.1.1|9=60|35=0|34=544|49=HEMAQA1_APA|52=20180725-13:32:13.697|56=TRAX|10=230|8=FIXT.1.1|9=60|35=0|34=545|49=HEMAQA1_APA|52=20180725-13:32:43.702|56=TRAX|10=221|8=FIXT.1.1|9=60|35=0|34=546|49=HEMAQA1_APA|52=20180725-13:33:14.697|56=TRAX|10=234|8=FIXT.1.1|9=60|35=0|34=547|49=HEMAQA1_APA|52=20180725-13:33:44.701|56=TRAX|10=224|8=FIXT.1.1|9=60|35=0|34=548|49=HEMAQA1_APA|52=20180725-13:34:15.696|56=TRAX|10=237|8=FIXT.1.1|9=60|35=0|34=549|49=HEMAQA1_APA|52=20180725-13:34:45.709|56=TRAX|10=236|8=FIXT.1.1|9=60|35=0|34=550|49=HEMAQA1_APA|52=20180725-13:35:16.702|56=TRAX|10=220|8=FIXT.1.1|9=60|35=0|34=551|49=HEMAQA1_APA|52=20180725-13:35:46.709|56=TRAX|10=231|8=FIXT.1.1|9=60|35=0|34=552|49=HEMAQA1_APA|52=20180725-13:36:17.695|56=TRAX|10=235|8=FIXT.1.1|9=60|35=0|34=553|49=HEMAQA1_APA|52=20180725-13:36:47.707|56=TRAX|10=233|8=FIXT.1.1|9=60|35=0|34=554|49=HEMAQA1_APA|52=20180725-13:37:17.708|56=TRAX|10=233|8=FIXT.1.1|9=60|35=0|34=555|49=HEMAQA1_APA|52=20180725-13:37:48.701|56=TRAX|10=231|8=FIXT.1.1|9=60|35=0|34=556|49=HEMAQA1_APA|52=20180725-13:38:19.699|56=TRAX|10=247|8=FIXT.1.1|9=60|35=0|34=557|49=HEMAQA1_APA|52=20180725-13:38:49.705|56=TRAX|10=239|8=FIXT.1.1|9=60|35=0|34=558|49=HEMAQA1_APA|52=20180725-13:39:20.705|56=TRAX|10=230|8=FIXT.1.1|9=60|35=0|34=559|49=HEMAQA1_APA|52=20180725-13:39:51.693|56=TRAX|10=241|8=FIXT.1.1|9=60|35=0|34=560|49=HEMAQA1_APA|52=20180725-13:40:22.696|56=TRAX|10=226|8=FIXT.1.1|9=60|35=0|34=561|49=HEMAQA1_APA|52=20180725-13:40:53.693|56=TRAX|10=228|8=FIXT.1.1|9=60|35=0|34=562|49=HEMAQA1_APA|52=20180725-13:41:23.703|56=TRAX|10=219|8=FIXT.1.1|9=60|35=0|34=563|49=HEMAQA1_APA|52=20180725-13:41:54.702|56=TRAX|10=223|8=FIXT.1.1|9=60|35=0|34=564|49=HEMAQA1_APA|52=20180725-13:42:25.700|56=TRAX|10=221|8=FIXT.1.1|9=60|35=0|34=565|49=HEMAQA1_APA|52=20180725-13:42:55.701|56=TRAX|10=226|8=FIXT.1.1|9=60|35=0|34=566|49=HEMAQA1_APA|52=20180725-13:43:26.691|56=TRAX|10=234|8=FIXT.1.1|9=60|35=0|34=567|49=HEMAQA1_APA|52=20180725-13:43:56.695|56=TRAX|10=242|8=FIXT.1.1|9=60|35=0|34=568|49=HEMAQA1_APA|52=20180725-13:44:26.705|56=TRAX|10=233|8=FIXT.1.1|9=60|35=0|34=569|49=HEMAQA1_APA|52=20180725-13:44:56.919|56=TRAX|10=244|8=FIXT.1.1|9=60|35=0|34=570|49=HEMAQA1_APA|52=20180725-13:45:27.695|56=TRAX|10=236|8=FIXT.1.1|9=60|35=0|34=571|49=HEMAQA1_APA|52=20180725-13:45:58.693|56=TRAX|10=239|8=FIXT.1.1|9=60|35=0|34=572|49=HEMAQA1_APA|52=20180725-13:46:28.703|56=TRAX|10=230|8=FIXT.1.1|9=60|35=0|34=573|49=HEMAQA1_APA|52=20180725-13:46:59.692|56=TRAX|10=242|8=FIXT.1.1|9=60|35=0|34=574|49=HEMAQA1_APA|52=20180725-13:47:29.704|56=TRAX|10=235|8=FIXT.1.1|9=60|35=0|34=575|49=HEMAQA1_APA|52=20180725-13:48:00.698|56=TRAX|10=238|8=FIXT.1.1|9=60|35=0|34=576|49=HEMAQA1_APA|52=20180725-13:48:31.697|56=TRAX|10=242|8=FIXT.1.1|9=60|35=0|34=577|49=HEMAQA1_APA|52=20180725-13:49:01.701|56=TRAX|10=227|8=FIXT.1.1|9=60|35=0|34=578|49=HEMAQA1_APA|52=20180725-13:49:32.699|56=TRAX|10=248|8=FIXT.1.1|9=60|35=0|34=579|49=HEMAQA1_APA|52=20180725-13:50:02.700|56=TRAX|10=221|8=FIXT.1.1|9=60|35=0|34=580|49=HEMAQA1_APA|52=20180725-13:50:33.699|56=TRAX|10=234|8=FIXT.1.1|9=60|35=0|34=581|49=HEMAQA1_APA|52=20180725-13:51:04.690|56=TRAX|10=225|8=FIXT.1.1|9=60|35=0|34=582|49=HEMAQA1_APA|52=20180725-13:51:35.688|56=TRAX|10=237|8=FIXT.1.1|9=60|35=0|34=583|49=HEMAQA1_APA|52=20180725-13:52:05.698|56=TRAX|10=237|8=FIXT.1.1|9=60|35=0|34=584|49=HEMAQA1_APA|52=20180725-13:52:36.702|56=TRAX|10=228|8=FIXT.1.1|9=60|35=0|34=585|49=HEMAQA1_APA|52=20180725-13:53:06.702|56=TRAX|10=227|8=FIXT.1.1|9=60|35=0|34=586|49=HEMAQA1_APA|52=20180725-13:53:37.690|56=TRAX|10=238|8=FIXT.1.1|9=60|35=0|34=587|49=HEMAQA1_APA|52=20180725-13:54:07.692|56=TRAX|10=239|8=FIXT.1.1|9=60|35=0|34=588|49=HEMAQA1_APA|52=20180725-13:54:37.701|56=TRAX|10=234|8=FIXT.1.1|9=60|35=0|34=589|49=HEMAQA1_APA|52=20180725-13:55:08.700|56=TRAX|10=233|8=FIXT.1.1|9=60|35=0|34=590|49=HEMAQA1_APA|52=20180725-13:55:39.689|56=TRAX|10=245|8=FIXT.1.1|9=60|35=0|34=591|49=HEMAQA1_APA|52=20180725-13:56:09.698|56=TRAX|10=244|8=FIXT.1.1|9=60|35=0|34=592|49=HEMAQA1_APA|52=20180725-13:56:40.686|56=TRAX|10=237|8=FIXT.1.1|9=60|35=0|34=593|49=HEMAQA1_APA|52=20180725-13:57:10.694|56=TRAX|10=235|8=FIXT.1.1|9=60|35=0|34=594|49=HEMAQA1_APA|52=20180725-13:57:41.687|56=TRAX|10=242|8=FIXT.1.1|9=60|35=0|34=595|49=HEMAQA1_APA|52=20180725-13:58:11.701|56=TRAX|10=228|8=FIXT.1.1|9=60|35=0|34=596|49=HEMAQA1_APA|52=20180725-13:58:42.692|56=TRAX|10=242|8=FIXT.1.1|9=60|35=0|34=597|49=HEMAQA1_APA|52=20180725-13:59:12.697|56=TRAX|10=246|8=FIXT.1.1|9=60|35=0|34=598|49=HEMAQA1_APA|52=20180725-13:59:43.685|56=TRAX|10=248|8=FIXT.1.1|9=60|35=0|34=599|49=HEMAQA1_APA|52=20180725-14:00:14.686|56=TRAX|10=235|8=FIXT.1.1|9=60|35=0|34=600|49=HEMAQA1_APA|52=20180725-14:00:44.697|56=TRAX|10=223|8=FIXT.1.1|9=60|35=0|34=601|49=HEMAQA1_APA|52=20180725-14:01:15.686|56=TRAX|10=221|8=FIXT.1.1|9=60|35=0|34=602|49=HEMAQA1_APA|52=20180725-14:01:45.689|56=TRAX|10=228|8=FIXT.1.1|9=60|35=0|34=603|49=HEMAQA1_APA|52=20180725-14:02:15.699|56=TRAX|10=228|8=FIXT.1.1|9=60|35=0|34=604|49=HEMAQA1_APA|52=20180725-14:02:46.684|56=TRAX|10=227|8=FIXT.1.1|9=60|35=0|34=605|49=HEMAQA1_APA|52=20180725-14:03:16.696|56=TRAX|10=229|8=FIXT.1.1|9=60|35=0|34=606|49=HEMAQA1_APA|52=20180725-14:03:47.684|56=TRAX|10=231|8=FIXT.1.1|9=60|35=0|34=607|49=HEMAQA1_APA|52=20180725-14:04:17.696|56=TRAX|10=233|8=FIXT.1.1|9=60|35=0|34=608|49=HEMAQA1_APA|52=20180725-14:04:48.689|56=TRAX|10=240|8=FIXT.1.1|9=60|35=0|34=609|49=HEMAQA1_APA|52=20180725-14:05:19.684|56=TRAX|10=235|8=FIXT.1.1|9=60|35=0|34=610|49=HEMAQA1_APA|52=20180725-14:05:49.685|56=TRAX|10=231|8=FIXT.1.1|9=60|35=0|34=611|49=HEMAQA1_APA|52=20180725-14:06:19.696|56=TRAX|10=232|8=FIXT.1.1|9=60|35=0|34=612|49=HEMAQA1_APA|52=20180725-14:06:50.695|56=TRAX|10=227|8=FIXT.1.1|9=60|35=0|34=613|49=HEMAQA1_APA|52=20180725-14:07:21.697|56=TRAX|10=229|8=FIXT.1.1|9=60|35=0|34=614|49=HEMAQA1_APA|52=20180725-14:07:52.693|56=TRAX|10=230|8=FIXT.1.1|9=60|35=0|34=615|49=HEMAQA1_APA|52=20180725-14:08:23.689|56=TRAX|10=235|8=FIXT.1.1|9=60|35=0|34=616|49=HEMAQA1_APA|52=20180725-14:08:54.692|56=TRAX|10=234|8=FIXT.1.1|9=60|35=0|34=617|49=HEMAQA1_APA|52=20180725-14:09:25.693|56=TRAX|10=235|8=FIXT.1.1|9=60|35=0|34=618|49=HEMAQA1_APA|52=20180725-14:09:56.685|56=TRAX|10=241|8=FIXT.1.1|9=60|35=0|34=619|49=HEMAQA1_APA|52=20180725-14:10:26.697|56=TRAX|10=234|8=FIXT.1.1|9=60|35=0|34=620|49=HEMAQA1_APA|52=20180725-14:10:57.681|56=TRAX|10=223|8=FIXT.1.1|9=60|35=0|34=621|49=HEMAQA1_APA|52=20180725-14:11:27.681|56=TRAX|10=222|8=FIXT.1.1|9=60|35=0|34=622|49=HEMAQA1_APA|52=20180725-14:11:57.909|56=TRAX|10=229|8=FIXT.1.1|9=60|35=0|34=623|49=HEMAQA1_APA|52=20180725-14:12:28.681|56=TRAX|10=226|8=FIXT.1.1|9=60|35=0|34=624|49=HEMAQA1_APA|52=20180725-14:12:58.691|56=TRAX|10=231|8=FIXT.1.1|9=60|35=0|34=625|49=HEMAQA1_APA|52=20180725-14:13:29.680|56=TRAX|10=229|8=FIXT.1.1|9=60|35=0|34=626|49=HEMAQA1_APA|52=20180725-14:13:59.683|56=TRAX|10=236|8=FIXT.1.1|9=60|35=0|34=627|49=HEMAQA1_APA|52=20180725-14:14:29.692|56=TRAX|10=235|8=FIXT.1.1|9=60|35=0|34=628|49=HEMAQA1_APA|52=20180725-14:15:00.692|56=TRAX|10=226|8=FIXT.1.1|9=60|35=0|34=629|49=HEMAQA1_APA|52=20180725-14:15:31.684|56=TRAX|10=232|8=FIXT.1.1|9=60|35=0|34=630|49=HEMAQA1_APA|52=20180725-14:16:01.694|56=TRAX|10=223|8=FIXT.1.1|9=60|35=0|34=631|49=HEMAQA1_APA|52=20180725-14:16:32.679|56=TRAX|10=231|8=FIXT.1.1|9=60|35=0|34=632|49=HEMAQA1_APA|52=20180725-14:17:02.687|56=TRAX|10=229|8=FIXT.1.1|9=60|35=0|34=633|49=HEMAQA1_APA|52=20180725-14:17:33.678|56=TRAX|10=234|8=FIXT.1.1|9=60|35=0|34=634|49=HEMAQA1_APA|52=20180725-14:18:03.683|56=TRAX|10=229|8=FIXT.1.1|9=60|35=0|34=635|49=HEMAQA1_APA|52=20180725-14:18:34.678|56=TRAX|10=238|8=FIXT.1.1|9=60|35=0|34=636|49=HEMAQA1_APA|52=20180725-14:19:04.682|56=TRAX|10=232|8=FIXT.1.1|9=60|35=0|34=637|49=HEMAQA1_APA|52=20180725-14:19:35.677|56=TRAX|10=241|8=FIXT.1.1|9=60|35=0|34=638|49=HEMAQA1_APA|52=20180725-14:20:05.678|56=TRAX|10=232|8=FIXT.1.1|9=60|35=0|34=639|49=HEMAQA1_APA|52=20180725-14:20:35.678|56=TRAX|10=236|8=FIXT.1.1|9=60|35=0|34=640|49=HEMAQA1_APA|52=20180725-14:21:05.684|56=TRAX|10=223|8=FIXT.1.1|9=60|35=0|34=641|49=HEMAQA1_APA|52=20180725-14:21:36.677|56=TRAX|10=230|8=FIXT.1.1|9=60|35=0|34=642|49=HEMAQA1_APA|52=20180725-14:22:07.676|56=TRAX|10=229|8=FIXT.1.1|9=60|35=0|34=643|49=HEMAQA1_APA|52=20180725-14:22:37.677|56=TRAX|10=234|8=FIXT.1.1|9=60|35=0|34=644|49=HEMAQA1_APA|52=20180725-14:23:08.688|56=TRAX|10=236|8=FIXT.1.1|9=60|35=0|34=645|49=HEMAQA1_APA|52=20180725-14:23:39.690|56=TRAX|10=234|8=FIXT.1.1|9=60|35=0|34=646|49=HEMAQA1_APA|52=20180725-14:24:10.684|56=TRAX|10=228|8=FIXT.1.1|9=60|35=0|34=647|49=HEMAQA1_APA|52=20180725-14:24:40.685|56=TRAX|10=233|8=FIXT.1.1|9=60|35=0|34=648|49=HEMAQA1_APA|52=20180725-14:25:10.689|56=TRAX|10=236|8=FIXT.1.1|9=60|35=0|34=649|49=HEMAQA1_APA|52=20180725-14:25:41.687|56=TRAX|10=239|8=FIXT.1.1|9=60|35=0|34=650|49=HEMAQA1_APA|52=20180725-14:26:12.685|56=TRAX|10=228|8=FIXT.1.1|9=60|35=0|34=651|49=HEMAQA1_APA|52=20180725-14:26:43.687|56=TRAX|10=235|8=FIXT.1.1|9=60|35=0|34=652|49=HEMAQA1_APA|52=20180725-14:27:14.683|56=TRAX|10=231|8=FIXT.1.1|9=60|35=0|34=653|49=HEMAQA1_APA|52=20180725-14:27:44.684|56=TRAX|10=236|8=FIXT.1.1|9=60|35=0|34=654|49=HEMAQA1_APA|52=20180725-14:28:15.674|56=TRAX|10=235|8=FIXT.1.1|9=60|35=0|34=655|49=HEMAQA1_APA|52=20180725-14:28:45.684|56=TRAX|10=240|8=FIXT.1.1|9=60|35=0|34=656|49=HEMAQA1_APA|52=20180725-14:29:16.685|56=TRAX|10=241|8=FIXT.1.1|9=60|35=0|34=657|49=HEMAQA1_APA|52=20180725-14:29:46.689|56=TRAX|10=249|8=FIXT.1.1|9=60|35=0|34=658|49=HEMAQA1_APA|52=20180725-14:30:17.686|56=TRAX|10=237|8=FIXT.1.1|9=60|35=0|34=659|49=HEMAQA1_APA|52=20180725-14:30:48.676|56=TRAX|10=241|8=FIXT.1.1|9=60|35=0|34=660|49=HEMAQA1_APA|52=20180725-14:31:18.685|56=TRAX|10=231|8=FIXT.1.1|9=60|35=0|34=661|49=HEMAQA1_APA|52=20180725-14:31:49.682|56=TRAX|10=233|8=FIXT.1.1|9=60|35=0|34=662|49=HEMAQA1_APA|52=20180725-14:32:19.686|56=TRAX|10=236|8=FIXT.1.1|9=60|35=0|34=663|49=HEMAQA1_APA|52=20180725-14:32:50.673|56=TRAX|10=228|8=FIXT.1.1|9=60|35=0|34=664|49=HEMAQA1_APA|52=20180725-14:33:20.674|56=TRAX|10=228|8=FIXT.1.1|9=60|35=0|34=665|49=HEMAQA1_APA|52=20180725-14:33:50.681|56=TRAX|10=230|8=FIXT.1.1|9=60|35=0|34=666|49=HEMAQA1_APA|52=20180725-14:34:20.681|56=TRAX|10=229|8=FIXT.1.1|9=60|35=0|34=667|49=HEMAQA1_APA|52=20180725-14:34:51.675|56=TRAX|10=237|8=FIXT.1.1|9=60|35=0|34=668|49=HEMAQA1_APA|52=20180725-14:35:21.679|56=TRAX|10=240|8=FIXT.1.1|9=60|35=0|34=669|49=HEMAQA1_APA|52=20180725-14:35:51.683|56=TRAX|10=239|8=FIXT.1.1|9=60|35=0|34=670|49=HEMAQA1_APA|52=20180725-14:36:22.677|56=TRAX|10=233|8=FIXT.1.1|9=60|35=0|34=671|49=HEMAQA1_APA|52=20180725-14:36:52.685|56=TRAX|10=236|8=FIXT.1.1|9=60|35=0|34=672|49=HEMAQA1_APA|52=20180725-14:37:23.671|56=TRAX|10=231|8=FIXT.1.1|9=60|35=0|34=673|49=HEMAQA1_APA|52=20180725-14:37:53.682|56=TRAX|10=237|8=FIXT.1.1|9=60|35=0|34=674|49=HEMAQA1_APA|52=20180725-14:38:24.682|56=TRAX|10=237|8=FIXT.1.1|9=60|35=0|34=675|49=HEMAQA1_APA|52=20180725-14:38:54.683|56=TRAX|10=242|8=FIXT.1.1|9=60|35=0|34=676|49=HEMAQA1_APA|52=20180725-14:39:25.670|56=TRAX|10=238|8=FIXT.1.1|9=60|35=0|34=677|49=HEMAQA1_APA|52=20180725-14:39:55.682|56=TRAX|10=245|8=FIXT.1.1|9=60|35=0|34=678|49=HEMAQA1_APA|52=20180725-14:40:26.670|56=TRAX|10=233|8=FIXT.1.1|9=60|35=0|34=679|49=HEMAQA1_APA|52=20180725-14:40:56.673|56=TRAX|10=240|8=FIXT.1.1|9=60|35=0|34=680|49=HEMAQA1_APA|52=20180725-14:41:27.669|56=TRAX|10=236|8=FIXT.1.1|9=60|35=0|34=681|49=HEMAQA1_APA|52=20180725-14:41:57.669|56=TRAX|10=240|8=FIXT.1.1|9=60|35=0|34=682|49=HEMAQA1_APA|52=20180725-14:42:27.682|56=TRAX|10=234|8=FIXT.1.1|9=60|35=0|34=683|49=HEMAQA1_APA|52=20180725-14:42:57.891|56=TRAX|10=240|8=FIXT.1.1|9=60|35=0|34=684|49=HEMAQA1_APA|52=20180725-14:43:27.891|56=TRAX|10=239|8=FIXT.1.1|9=60|35=0|34=685|49=HEMAQA1_APA|52=20180725-14:43:57.896|56=TRAX|10=248|8=FIXT.1.1|9=60|35=0|34=686|49=HEMAQA1_APA|52=20180725-14:44:28.668|56=TRAX|10=245|8=FIXT.1.1|9=60|35=0|34=687|49=HEMAQA1_APA|52=20180725-14:44:58.670|56=TRAX|10=242|8=FIXT.1.1|9=60|35=0|34=688|49=HEMAQA1_APA|52=20180725-14:45:28.895|56=TRAX|10=250|8=FIXT.1.1|9=60|35=0|34=689|49=HEMAQA1_APA|52=20180725-14:45:58.895|56=TRAX|10=254|8=FIXT.1.1|9=60|35=0|34=690|49=HEMAQA1_APA|52=20180725-14:46:29.667|56=TRAX|10=242|8=FIXT.1.1|9=60|35=0|34=691|49=HEMAQA1_APA|52=20180725-14:46:59.668|56=TRAX|10=247|8=FIXT.1.1|9=60|35=0|34=692|49=HEMAQA1_APA|52=20180725-14:47:30.675|56=TRAX|10=236|8=FIXT.1.1|9=60|35=0|34=693|49=HEMAQA1_APA|52=20180725-14:48:01.680|56=TRAX|10=232|8=FIXT.1.1|9=60|35=0|34=694|49=HEMAQA1_APA|52=20180725-14:48:31.680|56=TRAX|10=236|8=FIXT.1.1|9=60|35=0|34=695|49=HEMAQA1_APA|52=20180725-14:49:02.675|56=TRAX|10=240|8=FIXT.1.1|9=60|35=0|34=696|49=HEMAQA1_APA|52=20180725-14:49:32.679|56=TRAX|10=248|8=FIXT.1.1|9=60|35=0|34=697|49=HEMAQA1_APA|52=20180725-14:50:03.665|56=TRAX|10=234|8=FIXT.1.1|9=60|35=0|34=698|49=HEMAQA1_APA|52=20180725-14:50:33.677|56=TRAX|10=241|8=FIXT.1.1|9=60|35=0|34=699|49=HEMAQA1_APA|52=20180725-14:51:04.666|56=TRAX|10=239|8=FIXT.1.1|9=60|35=0|34=700|49=HEMAQA1_APA|52=20180725-14:51:34.680|56=TRAX|10=221|8=FIXT.1.1|9=60|35=0|34=701|49=HEMAQA1_APA|52=20180725-14:52:05.669|56=TRAX|10=228|8=FIXT.1.1|9=60|35=0|34=702|49=HEMAQA1_APA|52=20180725-14:52:36.677|56=TRAX|10=232|8=FIXT.1.1|9=60|35=0|34=703|49=HEMAQA1_APA|52=20180725-14:53:06.678|56=TRAX|10=232|8=FIXT.1.1|9=60|35=0|34=704|49=HEMAQA1_APA|52=20180725-14:53:37.665|56=TRAX|10=233|8=FIXT.1.1|9=60|35=0|34=705|49=HEMAQA1_APA|52=20180725-14:54:08.664|56=TRAX|10=232|8=FIXT.1.1|9=60|35=0|34=706|49=HEMAQA1_APA|52=20180725-14:54:38.665|56=TRAX|10=237|8=FIXT.1.1|9=60|35=0|34=707|49=HEMAQA1_APA|52=20180725-14:55:08.669|56=TRAX|10=240|8=FIXT.1.1|9=60|35=0|34=708|49=HEMAQA1_APA|52=20180725-14:55:39.673|56=TRAX|10=240|8=FIXT.1.1|9=60|35=0|34=709|49=HEMAQA1_APA|52=20180725-14:56:10.669|56=TRAX|10=236|8=FIXT.1.1|9=60|35=0|34=710|49=HEMAQA1_APA|52=20180725-14:56:41.665|56=TRAX|10=228|8=FIXT.1.1|9=60|35=0|34=711|49=HEMAQA1_APA|52=20180725-14:57:11.669|56=TRAX|10=231|8=FIXT.1.1|9=60|35=0|34=712|49=HEMAQA1_APA|52=20180725-14:57:42.667|56=TRAX|10=234|8=FIXT.1.1|9=60|35=0|34=713|49=HEMAQA1_APA|52=20180725-14:58:13.675|56=TRAX|10=233|8=FIXT.1.1|9=60|35=0|34=714|49=HEMAQA1_APA|52=20180725-14:58:44.670|56=TRAX|10=233|8=FIXT.1.1|9=60|35=0|34=715|49=HEMAQA1_APA|52=20180725-14:59:15.665|56=TRAX|10=237|8=FIXT.1.1|9=60|35=0|34=716|49=HEMAQA1_APA|52=20180725-14:59:45.677|56=TRAX|10=244|8=FIXT.1.1|9=60|35=0|34=717|49=HEMAQA1_APA|52=20180725-15:00:16.673|56=TRAX|10=226|8=FIXT.1.1|9=60|35=0|34=718|49=HEMAQA1_APA|52=20180725-15:00:46.675|56=TRAX|10=232|8=FIXT.1.1|9=60|35=0|34=719|49=HEMAQA1_APA|52=20180725-15:01:17.662|56=TRAX|10=228|8=FIXT.1.1|9=60|35=0|34=720|49=HEMAQA1_APA|52=20180725-15:01:47.674|56=TRAX|10=226|8=FIXT.1.1|9=60|35=0|34=721|49=HEMAQA1_APA|52=20180725-15:02:18.664|56=TRAX|10=225|8=FIXT.1.1|9=60|35=0|34=722|49=HEMAQA1_APA|52=20180725-15:02:48.667|56=TRAX|10=232|8=FIXT.1.1|9=60|35=0|34=723|49=HEMAQA1_APA|52=20180725-15:03:19.661|56=TRAX|10=226|8=FIXT.1.1|9=60|35=0|34=724|49=HEMAQA1_APA|52=20180725-15:03:49.663|56=TRAX|10=232|8=FIXT.1.1|9=60|35=0|34=725|49=HEMAQA1_APA|52=20180725-15:04:20.665|56=TRAX|10=225|8=FIXT.1.1|9=60|35=0|34=726|49=HEMAQA1_APA|52=20180725-15:04:50.671|56=TRAX|10=226|8=FIXT.1.1|9=60|35=0|34=727|49=HEMAQA1_APA|52=20180725-15:05:21.660|56=TRAX|10=224|8=FIXT.1.1|9=60|35=0|34=728|49=HEMAQA1_APA|52=20180725-15:05:51.661|56=TRAX|10=229|8=FIXT.1.1|9=60|35=0|34=729|49=HEMAQA1_APA|52=20180725-15:06:21.663|56=TRAX|10=230|8=FIXT.1.1|9=60|35=0|34=730|49=HEMAQA1_APA|52=20180725-15:06:51.672|56=TRAX|10=225|8=FIXT.1.1|9=60|35=0|34=731|49=HEMAQA1_APA|52=20180725-15:07:22.666|56=TRAX|10=228|8=FIXT.1.1|9=60|35=0|34=732|49=HEMAQA1_APA|52=20180725-15:07:52.671|56=TRAX|10=228|8=FIXT.1.1|9=60|35=0|34=733|49=HEMAQA1_APA|52=20180725-15:08:23.666|56=TRAX|10=232|8=FIXT.1.1|9=60|35=0|34=734|49=HEMAQA1_APA|52=20180725-15:08:54.665|56=TRAX|10=236|8=FIXT.1.1|9=60|35=0|34=735|49=HEMAQA1_APA|52=20180725-15:09:24.674|56=TRAX|10=235|8=FIXT.1.1|9=60|35=0|34=736|49=HEMAQA1_APA|52=20180725-15:09:55.661|56=TRAX|10=236|8=FIXT.1.1|9=60|35=0|34=737|49=HEMAQA1_APA|52=20180725-15:10:25.668|56=TRAX|10=233|8=FIXT.1.1|9=60|35=0|34=738|49=HEMAQA1_APA|52=20180725-15:10:55.668|56=TRAX|10=237|8=FIXT.1.1|9=60|35=0|34=739|49=HEMAQA1_APA|52=20180725-15:11:25.669|56=TRAX|10=237|8=FIXT.1.1|9=60|35=0|34=740|49=HEMAQA1_APA|52=20180725-15:11:56.668|56=TRAX|10=232|8=FIXT.1.1|9=60|35=0|34=741|49=HEMAQA1_APA|52=20180725-15:12:27.661|56=TRAX|10=225|8=FIXT.1.1|9=60|35=0|34=742|49=HEMAQA1_APA|52=20180725-15:12:57.661|56=TRAX|10=229|8=FIXT.1.1|9=60|35=0|34=743|49=HEMAQA1_APA|52=20180725-15:13:27.662|56=TRAX|10=229|8=FIXT.1.1|9=60|35=0|34=744|49=HEMAQA1_APA|52=20180725-15:13:57.669|56=TRAX|10=240|8=FIXT.1.1|9=60|35=0|34=745|49=HEMAQA1_APA|52=20180725-15:14:28.662|56=TRAX|10=233|8=FIXT.1.1|9=60|35=0|34=746|49=HEMAQA1_APA|52=20180725-15:14:58.667|56=TRAX|10=242|8=FIXT.1.1|9=60|35=0|34=747|49=HEMAQA1_APA|52=20180725-15:15:28.884|56=TRAX|10=242|8=FIXT.1.1|9=60|35=0|34=748|49=HEMAQA1_APA|52=20180725-15:15:58.884|56=TRAX|10=246|8=FIXT.1.1|9=60|35=0|34=749|49=HEMAQA1_APA|52=20180725-15:16:29.666|56=TRAX|10=244|8=FIXT.1.1|9=60|35=0|34=750|49=HEMAQA1_APA|52=20180725-15:17:00.661|56=TRAX|10=221|8=FIXT.1.1|9=60|35=0|34=751|49=HEMAQA1_APA|52=20180725-15:17:30.663|56=TRAX|10=227|8=FIXT.1.1|9=60|35=0|34=752|49=HEMAQA1_APA|52=20180725-15:18:00.670|56=TRAX|10=224|8=FIXT.1.1|9=60|35=0|34=753|49=HEMAQA1_APA|52=20180725-15:18:31.660|56=TRAX|10=228|8=FIXT.1.1|9=60|35=0|34=754|49=HEMAQA1_APA|52=20180725-15:19:01.661|56=TRAX|10=228|8=FIXT.1.1|9=60|35=0|34=755|49=HEMAQA1_APA|52=20180725-15:19:32.661|56=TRAX|10=233|8=FIXT.1.1|9=60|35=0|34=756|49=HEMAQA1_APA|52=20180725-15:20:03.660|56=TRAX|10=223|8=FIXT.1.1|9=60|35=0|34=757|49=HEMAQA1_APA|52=20180725-15:20:33.660|56=TRAX|10=227|8=FIXT.1.1|9=60|35=0|34=758|49=HEMAQA1_APA|52=20180725-15:21:03.661|56=TRAX|10=227|8=FIXT.1.1|9=60|35=0|34=759|49=HEMAQA1_APA|52=20180725-15:21:34.660|56=TRAX|10=231|8=FIXT.1.1|9=60|35=0|34=760|49=HEMAQA1_APA|52=20180725-15:22:04.660|56=TRAX|10=221|8=FIXT.1.1|9=60|35=0|34=761|49=HEMAQA1_APA|52=20180725-15:22:34.660|56=TRAX|10=225|8=FIXT.1.1|9=60|35=0|34=762|49=HEMAQA1_APA|52=20180725-15:23:05.659|56=TRAX|10=233|8=FIXT.1.1|9=60|35=0|34=763|49=HEMAQA1_APA|52=20180725-15:23:35.660|56=TRAX|10=229|8=FIXT.1.1|9=60|35=0|34=764|49=HEMAQA1_APA|52=20180725-15:24:06.658|56=TRAX|10=236|8=FIXT.1.1|9=60|35=0|34=765|49=HEMAQA1_APA|52=20180725-15:24:36.658|56=TRAX|10=240|8=FIXT.1.1|9=60|35=0|34=766|49=HEMAQA1_APA|52=20180725-15:25:06.658|56=TRAX|10=239|8=FIXT.1.1|9=60|35=0|34=767|49=HEMAQA1_APA|52=20180725-15:25:36.658|56=TRAX|10=243|8=FIXT.1.1|9=60|35=0|34=768|49=HEMAQA1_APA|52=20180725-15:26:06.658|56=TRAX|10=242|8=FIXT.1.1|9=60|35=0|34=769|49=HEMAQA1_APA|52=20180725-15:26:36.659|56=TRAX|10=247|8=FIXT.1.1|9=60|35=0|34=770|49=HEMAQA1_APA|52=20180725-15:27:06.660|56=TRAX|10=229|8=FIXT.1.1|9=60|35=0|34=771|49=HEMAQA1_APA|52=20180725-15:27:37.659|56=TRAX|10=242|8=FIXT.1.1|9=60|35=0|34=772|49=HEMAQA1_APA|52=20180725-15:28:08.658|56=TRAX|10=241|8=FIXT.1.1|9=60|35=0|34=773|49=HEMAQA1_APA|52=20180725-15:28:38.659|56=TRAX|10=246|8=FIXT.1.1|9=60|35=0|34=774|49=HEMAQA1_APA|52=20180725-15:29:09.658|56=TRAX|10=245|8=FIXT.1.1|9=60|35=0|34=775|49=HEMAQA1_APA|52=20180725-15:29:39.658|56=TRAX|10=249|8=FIXT.1.1|9=60|35=0|34=776|49=HEMAQA1_APA|52=20180725-15:30:09.658|56=TRAX|10=239|8=FIXT.1.1|9=60|35=0|34=777|49=HEMAQA1_APA|52=20180725-15:30:39.659|56=TRAX|10=244|8=FIXT.1.1|9=60|35=0|34=778|49=HEMAQA1_APA|52=20180725-15:31:09.659|56=TRAX|10=243|8=FIXT.1.1|9=60|35=0|34=779|49=HEMAQA1_APA|52=20180725-15:31:40.659|56=TRAX|10=239|8=FIXT.1.1|9=60|35=0|34=780|49=HEMAQA1_APA|52=20180725-15:32:11.658|56=TRAX|10=229|8=FIXT.1.1|9=60|35=0|34=781|49=HEMAQA1_APA|52=20180725-15:32:41.671|56=TRAX|10=228|8=FIXT.1.1|9=60|35=0|34=782|49=HEMAQA1_APA|52=20180725-15:33:11.673|56=TRAX|10=229|8=FIXT.1.1|9=60|35=0|34=783|49=HEMAQA1_APA|52=20180725-15:33:42.663|56=TRAX|10=233|8=FIXT.1.1|9=60|35=0|34=784|49=HEMAQA1_APA|52=20180725-15:34:13.658|56=TRAX|10=237|8=FIXT.1.1|9=60|35=0|34=785|49=HEMAQA1_APA|52=20180725-15:34:43.658|56=TRAX|10=241|8=FIXT.1.1|9=60|35=0|34=786|49=HEMAQA1_APA|52=20180725-15:35:13.673|56=TRAX|10=237|8=FIXT.1.1|9=60|35=0|34=787|49=HEMAQA1_APA|52=20180725-15:35:44.659|56=TRAX|10=246|8=FIXT.1.1|9=60|35=0|34=788|49=HEMAQA1_APA|52=20180725-15:36:14.659|56=TRAX|10=245|8=FIXT.1.1|9=60|35=0|34=789|49=HEMAQA1_APA|52=20180725-15:36:44.659|56=TRAX|10=249|8=FIXT.1.1|9=60|35=0|34=790|49=HEMAQA1_APA|52=20180725-15:37:15.660|56=TRAX|10=232|8=FIXT.1.1|9=60|35=0|34=791|49=HEMAQA1_APA|52=20180725-15:37:46.660|56=TRAX|10=237|8=FIXT.1.1|9=60|35=0|34=792|49=HEMAQA1_APA|52=20180725-15:38:16.660|56=TRAX|10=236|8=FIXT.1.1|9=60|35=0|34=793|49=HEMAQA1_APA|52=20180725-15:38:47.658|56=TRAX|10=248|8=FIXT.1.1|9=60|35=0|34=794|49=HEMAQA1_APA|52=20180725-15:39:17.658|56=TRAX|10=247|8=FIXT.1.1|9=60|35=0|34=795|49=HEMAQA1_APA|52=20180725-15:39:47.658|56=TRAX|10=251|8=FIXT.1.1|9=60|35=0|34=796|49=HEMAQA1_APA|52=20180725-15:40:17.659|56=TRAX|10=242|8=FIXT.1.1|9=60|35=0|34=797|49=HEMAQA1_APA|52=20180725-15:40:48.658|56=TRAX|10=246|8=FIXT.1.1|9=60|35=0|34=798|49=HEMAQA1_APA|52=20180725-15:41:18.658|56=TRAX|10=245|8=FIXT.1.1|9=60|35=0|34=799|49=HEMAQA1_APA|52=20180725-15:41:48.658|56=TRAX|10=249|8=FIXT.1.1|9=60|35=0|34=800|49=HEMAQA1_APA|52=20180725-15:42:19.657|56=TRAX|10=230|8=FIXT.1.1|9=60|35=0|34=801|49=HEMAQA1_APA|52=20180725-15:42:49.657|56=TRAX|10=234|8=FIXT.1.1|9=60|35=0|34=802|49=HEMAQA1_APA|52=20180725-15:43:19.657|56=TRAX|10=233|8=FIXT.1.1|9=60|35=0|34=803|49=HEMAQA1_APA|52=20180725-15:43:49.657|56=TRAX|10=237|8=FIXT.1.1|9=60|35=0|34=804|49=HEMAQA1_APA|52=20180725-15:44:19.657|56=TRAX|10=236|8=FIXT.1.1|9=60|35=0|34=805|49=HEMAQA1_APA|52=20180725-15:44:50.657|56=TRAX|10=232|8=FIXT.1.1|9=60|35=0|34=806|49=HEMAQA1_APA|52=20180725-15:45:21.656|56=TRAX|10=231|8=FIXT.1.1|9=60|35=0|34=807|49=HEMAQA1_APA|52=20180725-15:45:51.656|56=TRAX|10=235|8=FIXT.1.1|9=60|35=0|34=808|49=HEMAQA1_APA|52=20180725-15:46:21.657|56=TRAX|10=235|8=FIXT.1.1|9=60|35=0|34=809|49=HEMAQA1_APA|52=20180725-15:46:52.656|56=TRAX|10=239|8=FIXT.1.1|9=60|35=0|34=810|49=HEMAQA1_APA|52=20180725-15:47:22.656|56=TRAX|10=229|8=FIXT.1.1|9=60|35=0|34=811|49=HEMAQA1_APA|52=20180725-15:47:52.656|56=TRAX|10=233|8=FIXT.1.1|9=60|35=0|34=812|49=HEMAQA1_APA|52=20180725-15:48:22.658|56=TRAX|10=234|8=FIXT.1.1|9=60|35=0|34=813|49=HEMAQA1_APA|52=20180725-15:48:52.658|56=TRAX|10=238|8=FIXT.1.1|9=60|35=0|34=814|49=HEMAQA1_APA|52=20180725-15:49:22.658|56=TRAX|10=237|8=FIXT.1.1|9=60|35=0|34=815|49=HEMAQA1_APA|52=20180725-15:49:53.656|56=TRAX|10=240|8=FIXT.1.1|9=60|35=0|34=816|49=HEMAQA1_APA|52=20180725-15:50:23.656|56=TRAX|10=230|8=FIXT.1.1|9=60|35=0|34=817|49=HEMAQA1_APA|52=20180725-15:50:53.657|56=TRAX|10=235|8=FIXT.1.1|9=60|35=0|34=818|49=HEMAQA1_APA|52=20180725-15:51:24.658|56=TRAX|10=236|8=FIXT.1.1|9=60|35=0|34=819|49=HEMAQA1_APA|52=20180725-15:51:54.658|56=TRAX|10=240|8=FIXT.1.1|9=60|35=0|34=820|49=HEMAQA1_APA|52=20180725-15:52:25.656|56=TRAX|10=229|8=FIXT.1.1|9=60|35=0|34=821|49=HEMAQA1_APA|52=20180725-15:52:55.658|56=TRAX|10=235|8=FIXT.1.1|9=60|35=0|34=822|49=HEMAQA1_APA|52=20180725-15:53:26.660|56=TRAX|10=228|8=FIXT.1.1|9=60|35=0|34=823|49=HEMAQA1_APA|52=20180725-15:53:56.669|56=TRAX|10=241|8=FIXT.1.1|9=60|35=0|34=824|49=HEMAQA1_APA|52=20180725-15:54:27.656|56=TRAX|10=237|8=FIXT.1.1|9=60|35=0|34=825|49=HEMAQA1_APA|52=20180725-15:54:57.657|56=TRAX|10=242|8=FIXT.1.1|9=60|35=0|34=826|49=HEMAQA1_APA|52=20180725-15:55:27.657|56=TRAX|10=241|8=FIXT.1.1|9=60|35=0|34=827|49=HEMAQA1_APA|52=20180725-15:55:57.668|56=TRAX|10=247|8=FIXT.1.1|9=60|35=0|34=828|49=HEMAQA1_APA|52=20180725-15:56:27.671|56=TRAX|10=240|8=FIXT.1.1|9=60|35=0|34=829|49=HEMAQA1_APA|52=20180725-15:56:58.660|56=TRAX|10=243|8=FIXT.1.1|9=60|35=0|34=830|49=HEMAQA1_APA|52=20180725-15:57:28.660|56=TRAX|10=233|8=FIXT.1.1|9=60|35=0|34=831|49=HEMAQA1_APA|52=20180725-15:57:58.667|56=TRAX|10=244|8=FIXT.1.1|9=60|35=0|34=832|49=HEMAQA1_APA|52=20180725-15:58:29.659|56=TRAX|10=245|8=FIXT.1.1|9=60|35=0|34=833|49=HEMAQA1_APA|52=20180725-15:58:59.904|56=TRAX|10=242|8=FIXT.1.1|9=60|35=0|34=834|49=HEMAQA1_APA|52=20180725-15:59:30.655|56=TRAX|10=236|8=FIXT.1.1|9=60|35=0|34=835|49=HEMAQA1_APA|52=20180725-16:00:01.654|56=TRAX|10=221|8=FIXT.1.1|9=60|35=0|34=836|49=HEMAQA1_APA|52=20180725-16:00:31.655|56=TRAX|10=226|8=FIXT.1.1|9=60|35=0|34=837|49=HEMAQA1_APA|52=20180725-16:01:01.656|56=TRAX|10=226|8=FIXT.1.1|9=60|35=0|34=838|49=HEMAQA1_APA|52=20180725-16:01:31.656|56=TRAX|10=230|8=FIXT.1.1|9=60|35=0|34=839|49=HEMAQA1_APA|52=20180725-16:02:01.666|56=TRAX|10=230|8=FIXT.1.1|9=60|35=0|34=840|49=HEMAQA1_APA|52=20180725-16:02:32.656|56=TRAX|10=225|8=FIXT.1.1|9=60|35=0|34=841|49=HEMAQA1_APA|52=20180725-16:03:02.663|56=TRAX|10=222|8=FIXT.1.1|9=60|35=0|34=842|49=HEMAQA1_APA|52=20180725-16:03:33.654|56=TRAX|10=227|8=FIXT.1.1|9=60|35=0|34=843|49=HEMAQA1_APA|52=20180725-16:04:03.655|56=TRAX|10=227|8=FIXT.1.1|9=60|35=0|34=844|49=HEMAQA1_APA|52=20180725-16:04:33.656|56=TRAX|10=232|8=FIXT.1.1|9=60|35=0|34=845|49=HEMAQA1_APA|52=20180725-16:05:04.654|56=TRAX|10=230|8=FIXT.1.1|9=60|35=0|34=846|49=HEMAQA1_APA|52=20180725-16:05:34.654|56=TRAX|10=234|8=FIXT.1.1|9=60|35=0|34=847|49=HEMAQA1_APA|52=20180725-16:06:04.655|56=TRAX|10=234|8=FIXT.1.1|9=60|35=0|34=848|49=HEMAQA1_APA|52=20180725-16:06:34.655|56=TRAX|10=238|8=FIXT.1.1|9=60|35=0|34=849|49=HEMAQA1_APA|52=20180725-16:07:04.656|56=TRAX|10=238|8=FIXT.1.1|9=60|35=0|34=850|49=HEMAQA1_APA|52=20180725-16:07:35.665|56=TRAX|10=234|8=FIXT.1.1|9=60|35=0|34=851|49=HEMAQA1_APA|52=20180725-16:08:06.655|56=TRAX|10=233|8=FIXT.1.1|9=60|35=0|34=852|49=HEMAQA1_APA|52=20180725-16:08:36.669|56=TRAX|10=242|8=FIXT.1.1|9=60|35=0|34=853|49=HEMAQA1_APA|52=20180725-16:09:07.665|56=TRAX|10=238|8=FIXT.1.1|9=60|35=0|34=854|49=HEMAQA1_APA|52=20180725-16:09:37.666|56=TRAX|10=243|8=FIXT.1.1|9=60|35=0|34=855|49=HEMAQA1_APA|52=20180725-16:10:08.667|56=TRAX|10=235|8=FIXT.1.1|9=60|35=0|34=856|49=HEMAQA1_APA|52=20180725-16:10:39.660|56=TRAX|10=233|8=FIXT.1.1|9=60|35=0|34=857|49=HEMAQA1_APA|52=20180725-16:11:10.655|56=TRAX|10=228|8=FIXT.1.1|9=60|35=0|34=858|49=HEMAQA1_APA|52=20180725-16:11:41.654|56=TRAX|10=232|8=FIXT.1.1|9=60|35=0|34=859|49=HEMAQA1_APA|52=20180725-16:12:11.655|56=TRAX|10=232|8=FIXT.1.1|9=60|35=0|34=860|49=HEMAQA1_APA|52=20180725-16:12:41.655|56=TRAX|10=227|8=FIXT.1.1|9=60|35=0|34=861|49=HEMAQA1_APA|52=20180725-16:13:11.656|56=TRAX|10=227|8=FIXT.1.1|9=60|35=0|34=862|49=HEMAQA1_APA|52=20180725-16:13:41.656|56=TRAX|10=231|8=FIXT.1.1|9=60|35=0|34=863|49=HEMAQA1_APA|52=20180725-16:14:12.654|56=TRAX|10=229|8=FIXT.1.1|9=60|35=0|34=864|49=HEMAQA1_APA|52=20180725-16:14:42.655|56=TRAX|10=234|8=FIXT.1.1|9=60|35=0|34=865|49=HEMAQA1_APA|52=20180725-16:15:12.655|56=TRAX|10=233|8=FIXT.1.1|9=60|35=0|34=866|49=HEMAQA1_APA|52=20180725-16:15:43.654|56=TRAX|10=237|8=FIXT.1.1|9=60|35=0|34=867|49=HEMAQA1_APA|52=20180725-16:16:13.655|56=TRAX|10=237|8=FIXT.1.1|9=60|35=0|34=868|49=HEMAQA1_APA|52=20180725-16:16:44.654|56=TRAX|10=241|8=FIXT.1.1|9=60|35=0|34=869|49=HEMAQA1_APA|52=20180725-16:17:14.654|56=TRAX|10=240|8=FIXT.1.1|9=60|35=0|34=870|49=HEMAQA1_APA|52=20180725-16:17:44.654|56=TRAX|10=235|8=FIXT.1.1|9=60|35=0|34=871|49=HEMAQA1_APA|52=20180725-16:18:14.657|56=TRAX|10=237|8=FIXT.1.1|9=60|35=0|34=872|49=HEMAQA1_APA|52=20180725-16:18:44.661|56=TRAX|10=236|8=FIXT.1.1|9=60|35=0|34=873|49=HEMAQA1_APA|52=20180725-16:19:15.668|56=TRAX|10=243|8=FIXT.1.1|9=60|35=0|34=874|49=HEMAQA1_APA|52=20180725-16:19:46.662|56=TRAX|10=242|8=FIXT.1.1|9=60|35=0|34=875|49=HEMAQA1_APA|52=20180725-16:20:17.652|56=TRAX|10=232|8=FIXT.1.1|9=60|35=0|34=876|49=HEMAQA1_APA|52=20180725-16:20:47.667|56=TRAX|10=242|8=FIXT.1.1|9=60|35=0|34=877|49=HEMAQA1_APA|52=20180725-16:21:18.664|56=TRAX|10=239|8=FIXT.1.1|9=60|35=0|34=878|49=HEMAQA1_APA|52=20180725-16:21:49.663|56=TRAX|10=243|8=FIXT.1.1|9=60|35=0|34=879|49=HEMAQA1_APA|52=20180725-16:22:20.662|56=TRAX|10=233|8=FIXT.1.1|9=60|35=0|34=880|49=HEMAQA1_APA|52=20180725-16:22:51.656|56=TRAX|10=232|8=FIXT.1.1|9=60|35=0|34=881|49=HEMAQA1_APA|52=20180725-16:23:21.664|56=TRAX|10=230|8=FIXT.1.1|9=60|35=0|34=882|49=HEMAQA1_APA|52=20180725-16:23:52.653|56=TRAX|10=233|8=FIXT.1.1|9=60|35=0|34=883|49=HEMAQA1_APA|52=20180725-16:24:23.653|56=TRAX|10=233|8=FIXT.1.1|9=60|35=0|34=884|49=HEMAQA1_APA|52=20180725-16:24:53.654|56=TRAX|10=238|8=FIXT.1.1|9=60|35=0|34=885|49=HEMAQA1_APA|52=20180725-16:25:24.652|56=TRAX|10=236|8=FIXT.1.1|9=60|35=0|34=886|49=HEMAQA1_APA|52=20180725-16:25:54.652|56=TRAX|10=240|8=FIXT.1.1|9=60|35=0|34=887|49=HEMAQA1_APA|52=20180725-16:26:24.653|56=TRAX|10=240|8=FIXT.1.1|9=60|35=0|34=888|49=HEMAQA1_APA|52=20180725-16:26:55.652|56=TRAX|10=244|8=FIXT.1.1|9=60|35=0|34=889|49=HEMAQA1_APA|52=20180725-16:27:25.654|56=TRAX|10=245|8=FIXT.1.1|9=60|35=0|34=890|49=HEMAQA1_APA|52=20180725-16:27:56.653|56=TRAX|10=240|8=FIXT.1.1|9=60|35=0|34=891|49=HEMAQA1_APA|52=20180725-16:28:26.653|56=TRAX|10=239|8=FIXT.1.1|9=60|35=0|34=892|49=HEMAQA1_APA|52=20180725-16:28:56.653|56=TRAX|10=243|8=FIXT.1.1|9=60|35=0|34=893|49=HEMAQA1_APA|52=20180725-16:29:26.653|56=TRAX|10=242|8=FIXT.1.1|9=60|35=0|34=894|49=HEMAQA1_APA|52=20180725-16:29:56.653|56=TRAX|10=246|8=FIXT.1.1|9=60|35=0|34=895|49=HEMAQA1_APA|52=20180725-16:30:27.653|56=TRAX|10=237|8=FIXT.1.1|9=60|35=0|34=896|49=HEMAQA1_APA|52=20180725-16:30:58.653|56=TRAX|10=242|8=FIXT.1.1|9=60|35=0|34=897|49=HEMAQA1_APA|52=20180725-16:31:28.654|56=TRAX|10=242|8=FIXT.1.1|9=60|35=0|34=898|49=HEMAQA1_APA|52=20180725-16:31:59.653|56=TRAX|10=246|8=FIXT.1.1|9=60|35=0|34=899|49=HEMAQA1_APA|52=20180725-16:32:30.653|56=TRAX|10=237|8=FIXT.1.1|9=60|35=0|34=900|49=HEMAQA1_APA|52=20180725-16:33:00.653|56=TRAX|10=218|8=FIXT.1.1|9=60|35=0|34=901|49=HEMAQA1_APA|52=20180725-16:33:30.654|56=TRAX|10=223|8=FIXT.1.1|9=60|35=0|34=902|49=HEMAQA1_APA|52=20180725-16:34:00.916|56=TRAX|10=223|8=FIXT.1.1|9=60|35=0|34=903|49=HEMAQA1_APA|52=20180725-16:34:30.916|56=TRAX|10=227|8=FIXT.1.1|9=60|35=0|34=904|49=HEMAQA1_APA|52=20180725-16:35:00.916|56=TRAX|10=226|8=FIXT.1.1|9=60|35=0|34=905|49=HEMAQA1_APA|52=20180725-16:35:31.652|56=TRAX|10=228|8=FIXT.1.1|9=60|35=0|34=906|49=HEMAQA1_APA|52=20180725-16:36:01.652|56=TRAX|10=227|8=FIXT.1.1|9=60|35=0|34=907|49=HEMAQA1_APA|52=20180725-16:36:31.652|56=TRAX|10=231|8=FIXT.1.1|9=60|35=0|34=908|49=HEMAQA1_APA|52=20180725-16:37:01.653|56=TRAX|10=231|8=FIXT.1.1|9=60|35=0|34=909|49=HEMAQA1_APA|52=20180725-16:37:32.652|56=TRAX|10=235|8=FIXT.1.1|9=60|35=0|34=910|49=HEMAQA1_APA|52=20180725-16:38:03.652|56=TRAX|10=226|8=FIXT.1.1|9=60|35=0|34=911|49=HEMAQA1_APA|52=20180725-16:38:33.653|56=TRAX|10=231|8=FIXT.1.1|9=60|35=0|34=912|49=HEMAQA1_APA|52=20180725-16:39:04.651|56=TRAX|10=229|8=FIXT.1.1|9=60|35=0|34=913|49=HEMAQA1_APA|52=20180725-16:39:35.651|56=TRAX|10=234|8=FIXT.1.1|9=60|35=0|34=914|49=HEMAQA1_APA|52=20180725-16:40:05.651|56=TRAX|10=224|8=FIXT.1.1|9=60|35=0|34=915|49=HEMAQA1_APA|52=20180725-16:40:35.651|56=TRAX|10=228|8=FIXT.1.1|9=60|35=0|34=916|49=HEMAQA1_APA|52=20180725-16:41:05.651|56=TRAX|10=227|8=FIXT.1.1|9=60|35=0|34=917|49=HEMAQA1_APA|52=20180725-16:41:35.651|56=TRAX|10=231|8=FIXT.1.1|9=60|35=0|34=918|49=HEMAQA1_APA|52=20180725-16:42:05.651|56=TRAX|10=230|8=FIXT.1.1|9=60|35=0|34=919|49=HEMAQA1_APA|52=20180725-16:42:35.651|56=TRAX|10=234|8=FIXT.1.1|9=60|35=0|34=920|49=HEMAQA1_APA|52=20180725-16:43:06.651|56=TRAX|10=225|8=FIXT.1.1|9=60|35=0|34=921|49=HEMAQA1_APA|52=20180725-16:43:36.652|56=TRAX|10=230|8=FIXT.1.1|9=60|35=0|34=922|49=HEMAQA1_APA|52=20180725-16:44:06.652|56=TRAX|10=229|8=FIXT.1.1|9=60|35=0|34=923|49=HEMAQA1_APA|52=20180725-16:44:37.651|56=TRAX|10=233|8=FIXT.1.1|9=60|35=0|34=924|49=HEMAQA1_APA|52=20180725-16:45:07.651|56=TRAX|10=232|8=FIXT.1.1|9=60|35=0|34=925|49=HEMAQA1_APA|52=20180725-16:45:38.652|56=TRAX|10=238|8=FIXT.1.1|9=60|35=0|34=926|49=HEMAQA1_APA|52=20180725-16:46:09.652|56=TRAX|10=238|8=FIXT.1.1|9=60|35=0|34=927|49=HEMAQA1_APA|52=20180725-16:46:40.651|56=TRAX|10=233|8=FIXT.1.1|9=60|35=0|34=928|49=HEMAQA1_APA|52=20180725-16:47:10.651|56=TRAX|10=232|8=FIXT.1.1|9=60|35=0|34=929|49=HEMAQA1_APA|52=20180725-16:47:41.651|56=TRAX|10=237|8=FIXT.1.1|9=60|35=0|34=930|49=HEMAQA1_APA|52=20180725-16:48:12.652|56=TRAX|10=229|8=FIXT.1.1|9=60|35=0|34=931|49=HEMAQA1_APA|52=20180725-16:48:43.652|56=TRAX|10=234|8=FIXT.1.1|9=60|35=0|34=932|49=HEMAQA1_APA|52=20180725-16:49:14.651|56=TRAX|10=233|8=FIXT.1.1|9=60|35=0|34=933|49=HEMAQA1_APA|52=20180725-16:49:44.651|56=TRAX|10=237|8=FIXT.1.1|9=60|35=0|34=934|49=HEMAQA1_APA|52=20180725-16:50:14.652|56=TRAX|10=228|8=FIXT.1.1|9=60|35=0|34=935|49=HEMAQA1_APA|52=20180725-16:50:44.652|56=TRAX|10=232|8=FIXT.1.1|9=60|35=0|34=936|49=HEMAQA1_APA|52=20180725-16:51:15.651|56=TRAX|10=231|8=FIXT.1.1|9=60|35=0|34=937|49=HEMAQA1_APA|52=20180725-16:51:45.652|56=TRAX|10=236|8=FIXT.1.1|9=60|35=0|34=938|49=HEMAQA1_APA|52=20180725-16:52:15.663|56=TRAX|10=237|8=FIXT.1.1|9=60|35=0|34=939|49=HEMAQA1_APA|52=20180725-16:52:46.657|56=TRAX|10=245|8=FIXT.1.1|9=60|35=0|34=940|49=HEMAQA1_APA|52=20180725-16:53:16.663|56=TRAX|10=232|8=FIXT.1.1|9=60|35=0|34=941|49=HEMAQA1_APA|52=20180725-16:53:47.655|56=TRAX|10=238|8=FIXT.1.1|9=60|35=0|34=942|49=HEMAQA1_APA|52=20180725-16:54:18.659|56=TRAX|10=242|8=FIXT.1.1|9=60|35=0|34=943|49=HEMAQA1_APA|52=20180725-16:54:49.651|56=TRAX|10=239|8=FIXT.1.1|9=60|35=0|34=944|49=HEMAQA1_APA|52=20180725-16:55:19.651|56=TRAX|10=238|8=FIXT.1.1|9=60|35=0|34=945|49=HEMAQA1_APA|52=20180725-16:55:50.650|56=TRAX|10=233|8=FIXT.1.1|9=60|35=0|34=946|49=HEMAQA1_APA|52=20180725-16:56:20.650|56=TRAX|10=232|8=FIXT.1.1|9=60|35=0|34=947|49=HEMAQA1_APA|52=20180725-16:56:50.650|56=TRAX|10=236|8=FIXT.1.1|9=60|35=0|34=948|49=HEMAQA1_APA|52=20180725-16:57:20.650|56=TRAX|10=235|8=FIXT.1.1|9=60|35=0|34=949|49=HEMAQA1_APA|52=20180725-16:57:50.661|56=TRAX|10=241|8=FIXT.1.1|9=60|35=0|34=950|49=HEMAQA1_APA|52=20180725-16:58:21.650|56=TRAX|10=230|8=FIXT.1.1|9=60|35=0|34=951|49=HEMAQA1_APA|52=20180725-16:58:52.649|56=TRAX|10=243|8=FIXT.1.1|9=60|35=0|34=952|49=HEMAQA1_APA|52=20180725-16:59:22.649|56=TRAX|10=242|8=FIXT.1.1|9=60|35=0|34=953|49=HEMAQA1_APA|52=20180725-16:59:52.664|56=TRAX|10=243|8=FIXT.1.1|9=60|35=0|34=954|49=HEMAQA1_APA|52=20180725-17:00:23.648|56=TRAX|10=231|8=FIXT.1.1|9=60|35=0|34=955|49=HEMAQA1_APA|52=20180725-17:00:53.649|56=TRAX|10=236|8=FIXT.1.1|9=60|35=0|34=956|49=HEMAQA1_APA|52=20180725-17:01:23.649|56=TRAX|10=235|8=FIXT.1.1|9=60|35=0|34=957|49=HEMAQA1_APA|52=20180725-17:01:53.649|56=TRAX|10=239|8=FIXT.1.1|9=60|35=0|34=958|49=HEMAQA1_APA|52=20180725-17:02:23.662|56=TRAX|10=233|8=FIXT.1.1|9=60|35=0|34=959|49=HEMAQA1_APA|52=20180725-17:02:54.649|56=TRAX|10=243|8=FIXT.1.1|9=60|35=0|34=960|49=HEMAQA1_APA|52=20180725-17:03:24.649|56=TRAX|10=233|8=FIXT.1.1|9=60|35=0|34=961|49=HEMAQA1_APA|52=20180725-17:03:54.649|56=TRAX|10=237|8=FIXT.1.1|9=60|35=0|34=962|49=HEMAQA1_APA|52=20180725-17:04:24.649|56=TRAX|10=236|8=FIXT.1.1|9=60|35=0|34=963|49=HEMAQA1_APA|52=20180725-17:04:54.649|56=TRAX|10=240|8=FIXT.1.1|9=60|35=0|34=964|49=HEMAQA1_APA|52=20180725-17:05:24.649|56=TRAX|10=239|8=FIXT.1.1|9=60|35=0|34=965|49=HEMAQA1_APA|52=20180725-17:05:54.650|56=TRAX|10=235|8=FIXT.1.1|9=60|35=0|34=966|49=HEMAQA1_APA|52=20180725-17:06:25.649|56=TRAX|10=243|8=FIXT.1.1|9=60|35=0|34=967|49=HEMAQA1_APA|52=20180725-17:06:56.649|56=TRAX|10=248|8=FIXT.1.1|9=60|35=0|34=968|49=HEMAQA1_APA|52=20180725-17:07:26.649|56=TRAX|10=247|8=FIXT.1.1|9=60|35=0|34=969|49=HEMAQA1_APA|52=20180725-17:07:56.650|56=TRAX|10=243|8=FIXT.1.1|9=60|35=0|34=970|49=HEMAQA1_APA|52=20180725-17:08:27.649|56=TRAX|10=242|8=FIXT.1.1|9=60|35=0|34=971|49=HEMAQA1_APA|52=20180725-17:08:57.649|56=TRAX|10=246|8=FIXT.1.1|9=60|35=0|34=972|49=HEMAQA1_APA|52=20180725-17:09:27.650|56=TRAX|10=237|8=FIXT.1.1|9=60|35=0|34=973|49=HEMAQA1_APA|52=20180725-17:09:58.648|56=TRAX|10=249|8=FIXT.1.1|9=60|35=0|34=974|49=HEMAQA1_APA|52=20180725-17:10:28.649|56=TRAX|10=240|8=FIXT.1.1|9=60|35=0|34=975|49=HEMAQA1_APA|52=20180725-17:10:58.649|56=TRAX|10=244|8=FIXT.1.1|9=60|35=0|34=976|49=HEMAQA1_APA|52=20180725-17:11:28.649|56=TRAX|10=243|8=FIXT.1.1|9=60|35=0|34=977|49=HEMAQA1_APA|52=20180725-17:11:58.649|56=TRAX|10=247|8=FIXT.1.1|9=60|35=0|34=978|49=HEMAQA1_APA|52=20180725-17:12:28.649|56=TRAX|10=246|8=FIXT.1.1|9=60|35=0|34=979|49=HEMAQA1_APA|52=20180725-17:12:59.650|56=TRAX|10=243|8=FIXT.1.1|9=60|35=0|34=980|49=HEMAQA1_APA|52=20180725-17:13:30.649|56=TRAX|10=233|8=FIXT.1.1|9=60|35=0|34=981|49=HEMAQA1_APA|52=20180725-17:14:00.929|56=TRAX|10=233|8=FIXT.1.1|9=60|35=0|34=982|49=HEMAQA1_APA|52=20180725-17:14:31.649|56=TRAX|10=237|8=FIXT.1.1|9=60|35=0|34=983|49=HEMAQA1_APA|52=20180725-17:15:02.648|56=TRAX|10=236|8=FIXT.1.1|9=60|35=0|34=984|49=HEMAQA1_APA|52=20180725-17:15:32.649|56=TRAX|10=241|8=FIXT.1.1|9=60|35=0|34=985|49=HEMAQA1_APA|52=20180725-17:16:03.648|56=TRAX|10=240|8=FIXT.1.1|9=60|35=0|34=986|49=HEMAQA1_APA|52=20180725-17:16:33.648|56=TRAX|10=244|8=FIXT.1.1|9=60|35=0|34=987|49=HEMAQA1_APA|52=20180725-17:17:03.648|56=TRAX|10=243|8=FIXT.1.1|9=60|35=0|34=988|49=HEMAQA1_APA|52=20180725-17:17:33.648|56=TRAX|10=247|8=FIXT.1.1|9=60|35=0|34=989|49=HEMAQA1_APA|52=20180725-17:18:03.648|56=TRAX|10=246|8=FIXT.1.1|9=60|35=0|34=990|49=HEMAQA1_APA|52=20180725-17:18:33.648|56=TRAX|10=241|8=FIXT.1.1|9=60|35=0|34=991|49=HEMAQA1_APA|52=20180725-17:19:03.648|56=TRAX|10=240|8=FIXT.1.1|9=60|35=0|34=992|49=HEMAQA1_APA|52=20180725-17:19:34.647|56=TRAX|10=244|8=FIXT.1.1|9=60|35=0|34=993|49=HEMAQA1_APA|52=20180725-17:20:04.647|56=TRAX|10=234|8=FIXT.1.1|9=60|35=0|34=994|49=HEMAQA1_APA|52=20180725-17:20:34.647|56=TRAX|10=238|8=FIXT.1.1|9=60|35=0|34=995|49=HEMAQA1_APA|52=20180725-17:21:04.647|56=TRAX|10=237|8=FIXT.1.1|9=60|35=0|34=996|49=HEMAQA1_APA|52=20180725-17:21:34.647|56=TRAX|10=241|8=FIXT.1.1|9=60|35=0|34=997|49=HEMAQA1_APA|52=20180725-17:22:04.647|56=TRAX|10=240|8=FIXT.1.1|9=60|35=0|34=998|49=HEMAQA1_APA|52=20180725-17:22:34.647|56=TRAX|10=244|8=FIXT.1.1|9=60|35=0|34=999|49=HEMAQA1_APA|52=20180725-17:23:04.647|56=TRAX|10=243|8=FIXT.1.1|9=61|35=0|34=1000|49=HEMAQA1_APA|52=20180725-17:23:34.647|56=TRAX|10=013|8=FIXT.1.1|9=61|35=0|34=1001|49=HEMAQA1_APA|52=20180725-17:24:04.647|56=TRAX|10=012|8=FIXT.1.1|9=61|35=0|34=1002|49=HEMAQA1_APA|52=20180725-17:24:34.647|56=TRAX|10=016|8=FIXT.1.1|9=61|35=0|34=1003|49=HEMAQA1_APA|52=20180725-17:25:04.647|56=TRAX|10=015|8=FIXT.1.1|9=61|35=0|34=1004|49=HEMAQA1_APA|52=20180725-17:25:34.648|56=TRAX|10=020|8=FIXT.1.1|9=61|35=0|34=1005|49=HEMAQA1_APA|52=20180725-17:26:05.647|56=TRAX|10=019|8=FIXT.1.1|9=61|35=0|34=1006|49=HEMAQA1_APA|52=20180725-17:26:35.647|56=TRAX|10=023|8=FIXT.1.1|9=61|35=0|34=1007|49=HEMAQA1_APA|52=20180725-17:27:05.647|56=TRAX|10=022|8=FIXT.1.1|9=61|35=0|34=1008|49=HEMAQA1_APA|52=20180725-17:27:35.647|56=TRAX|10=026|8=FIXT.1.1|9=61|35=0|34=1009|49=HEMAQA1_APA|52=20180725-17:28:05.648|56=TRAX|10=026|8=FIXT.1.1|9=61|35=0|34=1010|49=HEMAQA1_APA|52=20180725-17:28:35.648|56=TRAX|10=021|8=FIXT.1.1|9=61|35=0|34=1011|49=HEMAQA1_APA|52=20180725-17:29:06.647|56=TRAX|10=020|8=FIXT.1.1|9=61|35=0|34=1012|49=HEMAQA1_APA|52=20180725-17:29:36.647|56=TRAX|10=024|8=FIXT.1.1|9=61|35=0|34=1013|49=HEMAQA1_APA|52=20180725-17:30:06.647|56=TRAX|10=014|8=FIXT.1.1|9=61|35=0|34=1014|49=HEMAQA1_APA|52=20180725-17:30:36.647|56=TRAX|10=018|8=FIXT.1.1|9=61|35=0|34=1015|49=HEMAQA1_APA|52=20180725-17:31:06.647|56=TRAX|10=017|8=FIXT.1.1|9=61|35=0|34=1016|49=HEMAQA1_APA|52=20180725-17:31:36.647|56=TRAX|10=021|8=FIXT.1.1|9=61|35=0|34=1017|49=HEMAQA1_APA|52=20180725-17:32:06.647|56=TRAX|10=020|8=FIXT.1.1|9=61|35=0|34=1018|49=HEMAQA1_APA|52=20180725-17:32:36.647|56=TRAX|10=024|8=FIXT.1.1|9=61|35=0|34=1019|49=HEMAQA1_APA|52=20180725-17:33:06.647|56=TRAX|10=023|8=FIXT.1.1|9=61|35=0|34=1020|49=HEMAQA1_APA|52=20180725-17:33:36.647|56=TRAX|10=018|8=FIXT.1.1|9=61|35=0|34=1021|49=HEMAQA1_APA|52=20180725-17:34:06.648|56=TRAX|10=018|8=FIXT.1.1|9=61|35=0|34=1022|49=HEMAQA1_APA|52=20180725-17:34:36.648|56=TRAX|10=022|8=FIXT.1.1|9=61|35=0|34=1023|49=HEMAQA1_APA|52=20180725-17:35:07.647|56=TRAX|10=021|8=FIXT.1.1|9=61|35=0|34=1024|49=HEMAQA1_APA|52=20180725-17:35:37.647|56=TRAX|10=025|8=FIXT.1.1|9=61|35=0|34=1025|49=HEMAQA1_APA|52=20180725-17:36:08.646|56=TRAX|10=024|8=FIXT.1.1|9=61|35=0|34=1026|49=HEMAQA1_APA|52=20180725-17:36:38.646|56=TRAX|10=028|8=FIXT.1.1|9=61|35=0|34=1027|49=HEMAQA1_APA|52=20180725-17:37:08.646|56=TRAX|10=027|8=FIXT.1.1|9=61|35=0|34=1028|49=HEMAQA1_APA|52=20180725-17:37:38.646|56=TRAX|10=031|8=FIXT.1.1|9=61|35=0|34=1029|49=HEMAQA1_APA|52=20180725-17:38:08.646|56=TRAX|10=030|8=FIXT.1.1|9=61|35=0|34=1030|49=HEMAQA1_APA|52=20180725-17:38:39.647|56=TRAX|10=027|8=FIXT.1.1|9=61|35=0|34=1031|49=HEMAQA1_APA|52=20180725-17:39:10.645|56=TRAX|10=016|8=FIXT.1.1|9=61|35=0|34=1032|49=HEMAQA1_APA|52=20180725-17:39:40.645|56=TRAX|10=020|8=FIXT.1.1|9=61|35=0|34=1033|49=HEMAQA1_APA|52=20180725-17:40:10.645|56=TRAX|10=010|8=FIXT.1.1|9=61|35=0|34=1034|49=HEMAQA1_APA|52=20180725-17:40:40.645|56=TRAX|10=014|8=FIXT.1.1|9=61|35=0|34=1035|49=HEMAQA1_APA|52=20180725-17:41:10.646|56=TRAX|10=014|8=FIXT.1.1|9=61|35=0|34=1036|49=HEMAQA1_APA|52=20180725-17:41:41.645|56=TRAX|10=018|8=FIXT.1.1|9=61|35=0|34=1037|49=HEMAQA1_APA|52=20180725-17:42:11.645|56=TRAX|10=017|8=FIXT.1.1|9=61|35=0|34=1038|49=HEMAQA1_APA|52=20180725-17:42:41.645|56=TRAX|10=021|8=FIXT.1.1|9=61|35=0|34=1039|49=HEMAQA1_APA|52=20180725-17:43:11.645|56=TRAX|10=020|8=FIXT.1.1|9=61|35=0|34=1040|49=HEMAQA1_APA|52=20180725-17:43:41.645|56=TRAX|10=015|8=FIXT.1.1|9=61|35=0|34=1041|49=HEMAQA1_APA|52=20180725-17:44:11.645|56=TRAX|10=014|8=FIXT.1.1|9=61|35=0|34=1042|49=HEMAQA1_APA|52=20180725-17:44:41.645|56=TRAX|10=018|8=FIXT.1.1|9=61|35=0|34=1043|49=HEMAQA1_APA|52=20180725-17:45:11.645|56=TRAX|10=017|8=FIXT.1.1|9=61|35=0|34=1044|49=HEMAQA1_APA|52=20180725-17:45:41.645|56=TRAX|10=021|8=FIXT.1.1|9=61|35=0|34=1045|49=HEMAQA1_APA|52=20180725-17:46:11.646|56=TRAX|10=021|8=FIXT.1.1|9=61|35=0|34=1046|49=HEMAQA1_APA|52=20180725-17:46:42.645|56=TRAX|10=025|8=FIXT.1.1|9=61|35=0|34=1047|49=HEMAQA1_APA|52=20180725-17:47:12.645|56=TRAX|10=024|8=FIXT.1.1|9=61|35=0|34=1048|49=HEMAQA1_APA|52=20180725-17:47:42.645|56=TRAX|10=028|8=FIXT.1.1|9=61|35=0|34=1049|49=HEMAQA1_APA|52=20180725-17:48:12.645|56=TRAX|10=027|8=FIXT.1.1|9=61|35=0|34=1050|49=HEMAQA1_APA|52=20180725-17:48:42.645|56=TRAX|10=022|8=FIXT.1.1|9=61|35=0|34=1051|49=HEMAQA1_APA|52=20180725-17:49:12.645|56=TRAX|10=021|8=FIXT.1.1|9=61|35=0|34=1052|49=HEMAQA1_APA|52=20180725-17:49:42.645|56=TRAX|10=025|8=FIXT.1.1|9=61|35=0|34=1053|49=HEMAQA1_APA|52=20180725-17:50:12.645|56=TRAX|10=015|8=FIXT.1.1|9=61|35=0|34=1054|49=HEMAQA1_APA|52=20180725-17:50:43.645|56=TRAX|10=020|8=FIXT.1.1|9=61|35=0|34=1055|49=HEMAQA1_APA|52=20180725-17:51:13.645|56=TRAX|10=019|8=FIXT.1.1|9=61|35=0|34=1056|49=HEMAQA1_APA|52=20180725-17:51:44.644|56=TRAX|10=023|8=FIXT.1.1|9=61|35=0|34=1057|49=HEMAQA1_APA|52=20180725-17:52:14.645|56=TRAX|10=023|8=FIXT.1.1|9=61|35=0|34=1058|49=HEMAQA1_APA|52=20180725-17:52:45.643|56=TRAX|10=026|8=FIXT.1.1|9=61|35=0|34=1059|49=HEMAQA1_APA|52=20180725-17:53:15.643|56=TRAX|10=025|8=FIXT.1.1|9=61|35=0|34=1060|49=HEMAQA1_APA|52=20180725-17:53:45.644|56=TRAX|10=021|8=FIXT.1.1|9=61|35=0|34=1061|49=HEMAQA1_APA|52=20180725-17:54:15.644|56=TRAX|10=020|8=FIXT.1.1|9=61|35=0|34=1062|49=HEMAQA1_APA|52=20180725-17:54:45.644|56=TRAX|10=024|8=FIXT.1.1|9=61|35=0|34=1063|49=HEMAQA1_APA|52=20180725-17:55:16.643|56=TRAX|10=023|8=FIXT.1.1|9=61|35=0|34=1064|49=HEMAQA1_APA|52=20180725-17:55:46.644|56=TRAX|10=028|8=FIXT.1.1|9=61|35=0|34=1065|49=HEMAQA1_APA|52=20180725-17:56:17.644|56=TRAX|10=028|8=FIXT.1.1|9=61|35=0|34=1066|49=HEMAQA1_APA|52=20180725-17:56:47.644|56=TRAX|10=032|8=FIXT.1.1|9=61|35=0|34=1067|49=HEMAQA1_APA|52=20180725-17:57:18.643|56=TRAX|10=031|8=FIXT.1.1|9=61|35=0|34=1068|49=HEMAQA1_APA|52=20180725-17:57:48.643|56=TRAX|10=035|8=FIXT.1.1|9=61|35=0|34=1069|49=HEMAQA1_APA|52=20180725-17:58:18.643|56=TRAX|10=034|8=FIXT.1.1|9=61|35=0|34=1070|49=HEMAQA1_APA|52=20180725-17:58:48.643|56=TRAX|10=029|8=FIXT.1.1|9=61|35=0|34=1071|49=HEMAQA1_APA|52=20180725-17:59:18.643|56=TRAX|10=028|8=FIXT.1.1|9=61|35=0|34=1072|49=HEMAQA1_APA|52=20180725-17:59:48.643|56=TRAX|10=032|8=FIXT.1.1|9=61|35=0|34=1073|49=HEMAQA1_APA|52=20180725-18:00:18.643|56=TRAX|10=017|8=FIXT.1.1|9=61|35=0|34=1074|49=HEMAQA1_APA|52=20180725-18:00:48.644|56=TRAX|10=022|8=FIXT.1.1|9=61|35=0|34=1075|49=HEMAQA1_APA|52=20180725-18:01:19.643|56=TRAX|10=021|8=FIXT.1.1|9=61|35=0|34=1076|49=HEMAQA1_APA|52=20180725-18:01:49.643|56=TRAX|10=025|8=FIXT.1.1|9=61|35=0|34=1077|49=HEMAQA1_APA|52=20180725-18:02:19.643|56=TRAX|10=024|8=FIXT.1.1|9=61|35=0|34=1078|49=HEMAQA1_APA|52=20180725-18:02:49.644|56=TRAX|10=029|8=FIXT.1.1|9=61|35=0|34=1079|49=HEMAQA1_APA|52=20180725-18:03:20.643|56=TRAX|10=019|8=FIXT.1.1|9=61|35=0|34=1080|49=HEMAQA1_APA|52=20180725-18:03:50.643|56=TRAX|10=014|8=FIXT.1.1|9=61|35=0|34=1081|49=HEMAQA1_APA|52=20180725-18:04:20.643|56=TRAX|10=013|8=FIXT.1.1|9=61|35=0|34=1082|49=HEMAQA1_APA|52=20180725-18:04:50.643|56=TRAX|10=017|8=FIXT.1.1|9=61|35=0|34=1083|49=HEMAQA1_APA|52=20180725-18:05:20.643|56=TRAX|10=016|8=FIXT.1.1|9=61|35=0|34=1084|49=HEMAQA1_APA|52=20180725-18:05:50.644|56=TRAX|10=021|8=FIXT.1.1|9=61|35=0|34=1085|49=HEMAQA1_APA|52=20180725-18:06:20.644|56=TRAX|10=020|8=FIXT.1.1|9=61|35=0|34=1086|49=HEMAQA1_APA|52=20180725-18:06:51.643|56=TRAX|10=024|8=FIXT.1.1|9=61|35=0|34=1087|49=HEMAQA1_APA|52=20180725-18:07:21.643|56=TRAX|10=023|8=FIXT.1.1|9=61|35=0|34=1088|49=HEMAQA1_APA|52=20180725-18:07:51.643|56=TRAX|10=027|8=FIXT.1.1|9=61|35=0|34=1089|49=HEMAQA1_APA|52=20180725-18:08:21.643|56=TRAX|10=026|8=FIXT.1.1|9=61|35=0|34=1090|49=HEMAQA1_APA|52=20180725-18:08:51.643|56=TRAX|10=021|8=FIXT.1.1|9=61|35=0|34=1091|49=HEMAQA1_APA|52=20180725-18:09:21.644|56=TRAX|10=021|8=FIXT.1.1|9=61|35=0|34=1092|49=HEMAQA1_APA|52=20180725-18:09:52.643|56=TRAX|10=025|8=FIXT.1.1|9=61|35=0|34=1093|49=HEMAQA1_APA|52=20180725-18:10:22.643|56=TRAX|10=015|8=FIXT.1.1|9=61|35=0|34=1094|49=HEMAQA1_APA|52=20180725-18:10:52.643|56=TRAX|10=019|8=FIXT.1.1|9=61|35=0|34=1095|49=HEMAQA1_APA|52=20180725-18:11:22.644|56=TRAX|10=019|8=FIXT.1.1|9=61|35=0|34=1096|49=HEMAQA1_APA|52=20180725-18:11:53.643|56=TRAX|10=023|8=FIXT.1.1|9=61|35=0|34=1097|49=HEMAQA1_APA|52=20180725-18:12:24.642|56=TRAX|10=022|8=FIXT.1.1|9=61|35=0|34=1098|49=HEMAQA1_APA|52=20180725-18:12:54.642|56=TRAX|10=026|8=FIXT.1.1|9=61|35=0|34=1099|49=HEMAQA1_APA|52=20180725-18:13:25.642|56=TRAX|10=026|8=FIXT.1.1|9=61|35=0|34=1100|49=HEMAQA1_APA|52=20180725-18:13:56.642|56=TRAX|10=013|8=FIXT.1.1|9=61|35=0|34=1101|49=HEMAQA1_APA|52=20180725-18:14:27.641|56=TRAX|10=012|8=FIXT.1.1|9=61|35=0|34=1102|49=HEMAQA1_APA|52=20180725-18:14:57.641|56=TRAX|10=016|8=FIXT.1.1|9=61|35=0|34=1103|49=HEMAQA1_APA|52=20180725-18:15:27.641|56=TRAX|10=015|8=FIXT.1.1|9=61|35=0|34=1104|49=HEMAQA1_APA|52=20180725-18:15:57.641|56=TRAX|10=019|8=FIXT.1.1|9=61|35=0|34=1105|49=HEMAQA1_APA|52=20180725-18:16:27.641|56=TRAX|10=018|8=FIXT.1.1|9=61|35=0|34=1106|49=HEMAQA1_APA|52=20180725-18:16:57.641|56=TRAX|10=022|8=FIXT.1.1|9=61|35=0|34=1107|49=HEMAQA1_APA|52=20180725-18:17:27.641|56=TRAX|10=021|8=FIXT.1.1|9=61|35=0|34=1108|49=HEMAQA1_APA|52=20180725-18:17:57.641|56=TRAX|10=025|8=FIXT.1.1|9=61|35=0|34=1109|49=HEMAQA1_APA|52=20180725-18:18:27.641|56=TRAX|10=024|8=FIXT.1.1|9=61|35=0|34=1110|49=HEMAQA1_APA|52=20180725-18:18:57.642|56=TRAX|10=020|8=FIXT.1.1|9=61|35=0|34=1111|49=HEMAQA1_APA|52=20180725-18:19:28.642|56=TRAX|10=020|8=FIXT.1.1|9=61|35=0|34=1112|49=HEMAQA1_APA|52=20180725-18:19:59.642|56=TRAX|10=025|8=FIXT.1.1|9=61|35=0|34=1113|49=HEMAQA1_APA|52=20180725-18:20:30.641|56=TRAX|10=006|8=FIXT.1.1|9=61|35=0|34=1114|49=HEMAQA1_APA|52=20180725-18:21:00.642|56=TRAX|10=006|8=FIXT.1.1|9=61|35=0|34=1115|49=HEMAQA1_APA|52=20180725-18:21:31.641|56=TRAX|10=010|8=FIXT.1.1|9=61|35=0|34=1116|49=HEMAQA1_APA|52=20180725-18:22:01.641|56=TRAX|10=009|8=FIXT.1.1|9=61|35=0|34=1117|49=HEMAQA1_APA|52=20180725-18:22:31.641|56=TRAX|10=013|8=FIXT.1.1|9=61|35=0|34=1118|49=HEMAQA1_APA|52=20180725-18:23:01.642|56=TRAX|10=013|8=FIXT.1.1|9=61|35=0|34=1119|49=HEMAQA1_APA|52=20180725-18:23:31.939|56=TRAX|10=026|8=FIXT.1.1|9=61|35=0|34=1120|49=HEMAQA1_APA|52=20180725-18:24:01.939|56=TRAX|10=016|8=FIXT.1.1|9=61|35=0|34=1121|49=HEMAQA1_APA|52=20180725-18:24:31.941|56=TRAX|10=013|8=FIXT.1.1|9=61|35=0|34=1122|49=HEMAQA1_APA|52=20180725-18:25:02.641|56=TRAX|10=010|8=FIXT.1.1|9=61|35=0|34=1123|49=HEMAQA1_APA|52=20180725-18:25:32.641|56=TRAX|10=014|8=FIXT.1.1|9=61|35=0|34=1124|49=HEMAQA1_APA|52=20180725-18:26:02.641|56=TRAX|10=013|8=FIXT.1.1|9=61|35=0|34=1125|49=HEMAQA1_APA|52=20180725-18:26:32.641|56=TRAX|10=017|8=FIXT.1.1|9=61|35=0|34=1126|49=HEMAQA1_APA|52=20180725-18:27:02.641|56=TRAX|10=016|8=FIXT.1.1|9=61|35=0|34=1127|49=HEMAQA1_APA|52=20180725-18:27:32.641|56=TRAX|10=020|8=FIXT.1.1|9=61|35=0|34=1128|49=HEMAQA1_APA|52=20180725-18:28:02.641|56=TRAX|10=019|8=FIXT.1.1|9=61|35=0|34=1129|49=HEMAQA1_APA|52=20180725-18:28:32.641|56=TRAX|10=023|8=FIXT.1.1|9=61|35=0|34=1130|49=HEMAQA1_APA|52=20180725-18:29:02.642|56=TRAX|10=014|8=FIXT.1.1|9=61|35=0|34=1131|49=HEMAQA1_APA|52=20180725-18:29:33.641|56=TRAX|10=018|8=FIXT.1.1|9=61|35=0|34=1132|49=HEMAQA1_APA|52=20180725-18:30:03.643|56=TRAX|10=010|8=FIXT.1.1|9=61|35=0|34=1133|49=HEMAQA1_APA|52=20180725-18:30:34.641|56=TRAX|10=013|8=FIXT.1.1|9=61|35=0|34=1134|49=HEMAQA1_APA|52=20180725-18:31:05.641|56=TRAX|10=013|8=FIXT.1.1|9=61|35=0|34=1135|49=HEMAQA1_APA|52=20180725-18:31:35.641|56=TRAX|10=017|8=FIXT.1.1|9=61|35=0|34=1136|49=HEMAQA1_APA|52=20180725-18:32:05.641|56=TRAX|10=016|8=FIXT.1.1|9=61|35=0|34=1137|49=HEMAQA1_APA|52=20180725-18:32:36.641|56=TRAX|10=021|8=FIXT.1.1|9=61|35=0|34=1138|49=HEMAQA1_APA|52=20180725-18:33:07.641|56=TRAX|10=021|8=FIXT.1.1|9=61|35=0|34=1139|49=HEMAQA1_APA|52=20180725-18:33:38.640|56=TRAX|10=025|8=FIXT.1.1|9=61|35=0|34=1140|49=HEMAQA1_APA|52=20180725-18:34:08.640|56=TRAX|10=015|8=FIXT.1.1|9=61|35=0|34=1141|49=HEMAQA1_APA|52=20180725-18:34:39.639|56=TRAX|10=028|8=FIXT.1.1|9=61|35=0|34=1142|49=HEMAQA1_APA|52=20180725-18:35:09.640|56=TRAX|10=019|8=FIXT.1.1|9=61|35=0|34=1143|49=HEMAQA1_APA|52=20180725-18:35:40.641|56=TRAX|10=016|8=FIXT.1.1|9=61|35=0|34=1144|49=HEMAQA1_APA|52=20180725-18:36:11.639|56=TRAX|10=023|8=FIXT.1.1|9=61|35=0|34=1145|49=HEMAQA1_APA|52=20180725-18:36:41.639|56=TRAX|10=027|8=FIXT.1.1|9=61|35=0|34=1146|49=HEMAQA1_APA|52=20180725-18:37:11.640|56=TRAX|10=018|8=FIXT.1.1|9=61|35=0|34=1147|49=HEMAQA1_APA|52=20180725-18:37:42.640|56=TRAX|10=023|8=FIXT.1.1|9=61|35=0|34=1148|49=HEMAQA1_APA|52=20180725-18:38:12.641|56=TRAX|10=023|8=FIXT.1.1|9=61|35=0|34=1149|49=HEMAQA1_APA|52=20180725-18:38:43.640|56=TRAX|10=027|8=FIXT.1.1|9=61|35=0|34=1150|49=HEMAQA1_APA|52=20180725-18:39:13.640|56=TRAX|10=017|8=FIXT.1.1|9=61|35=0|34=1151|49=HEMAQA1_APA|52=20180725-18:39:44.639|56=TRAX|10=030|8=FIXT.1.1|9=61|35=0|34=1152|49=HEMAQA1_APA|52=20180725-18:40:14.639|56=TRAX|10=020|8=FIXT.1.1|9=61|35=0|34=1153|49=HEMAQA1_APA|52=20180725-18:40:44.640|56=TRAX|10=016|8=FIXT.1.1|9=61|35=0|34=1154|49=HEMAQA1_APA|52=20180725-18:41:15.639|56=TRAX|10=024|8=FIXT.1.1|9=61|35=0|34=1155|49=HEMAQA1_APA|52=20180725-18:41:45.640|56=TRAX|10=020|8=FIXT.1.1|9=61|35=0|34=1156|49=HEMAQA1_APA|52=20180725-18:42:16.640|56=TRAX|10=020|8=FIXT.1.1|9=61|35=0|34=1157|49=HEMAQA1_APA|52=20180725-18:42:46.640|56=TRAX|10=024|8=FIXT.1.1|9=61|35=0|34=1158|49=HEMAQA1_APA|52=20180725-18:43:16.640|56=TRAX|10=023|8=FIXT.1.1|9=61|35=0|34=1159|49=HEMAQA1_APA|52=20180725-18:43:46.640|56=TRAX|10=027|8=FIXT.1.1|9=61|35=0|34=1160|49=HEMAQA1_APA|52=20180725-18:44:16.640|56=TRAX|10=017|8=FIXT.1.1|9=61|35=0|34=1161|49=HEMAQA1_APA|52=20180725-18:44:47.639|56=TRAX|10=030|8=FIXT.1.1|9=61|35=0|34=1162|49=HEMAQA1_APA|52=20180725-18:45:17.639|56=TRAX|10=029|8=FIXT.1.1|9=61|35=0|34=1163|49=HEMAQA1_APA|52=20180725-18:45:47.639|56=TRAX|10=033|8=FIXT.1.1|9=61|35=0|34=1164|49=HEMAQA1_APA|52=20180725-18:46:17.639|56=TRAX|10=032|8=FIXT.1.1|9=61|35=0|34=1165|49=HEMAQA1_APA|52=20180725-18:46:47.639|56=TRAX|10=036|8=FIXT.1.1|9=61|35=0|34=1166|49=HEMAQA1_APA|52=20180725-18:47:17.639|56=TRAX|10=035|8=FIXT.1.1|9=61|35=0|34=1167|49=HEMAQA1_APA|52=20180725-18:47:47.639|56=TRAX|10=039|8=FIXT.1.1|9=61|35=0|34=1168|49=HEMAQA1_APA|52=20180725-18:48:17.639|56=TRAX|10=038|8=FIXT.1.1|9=61|35=0|34=1169|49=HEMAQA1_APA|52=20180725-18:48:47.641|56=TRAX|10=035|8=FIXT.1.1|9=61|35=0|34=1170|49=HEMAQA1_APA|52=20180725-18:49:18.640|56=TRAX|10=025|8=FIXT.1.1|9=61|35=0|34=1171|49=HEMAQA1_APA|52=20180725-18:49:49.639|56=TRAX|10=038|8=FIXT.1.1|9=61|35=0|34=1172|49=HEMAQA1_APA|52=20180725-18:50:19.639|56=TRAX|10=028|8=FIXT.1.1|9=61|35=0|34=1173|49=HEMAQA1_APA|52=20180725-18:50:49.639|56=TRAX|10=032|8=FIXT.1.1|9=61|35=0|34=1174|49=HEMAQA1_APA|52=20180725-18:51:19.639|56=TRAX|10=031|8=FIXT.1.1|9=61|35=0|34=1175|49=HEMAQA1_APA|52=20180725-18:51:49.639|56=TRAX|10=035|8=FIXT.1.1|9=61|35=0|34=1176|49=HEMAQA1_APA|52=20180725-18:52:19.639|56=TRAX|10=034|8=FIXT.1.1|9=61|35=0|34=1177|49=HEMAQA1_APA|52=20180725-18:52:49.639|56=TRAX|10=038|8=FIXT.1.1|9=61|35=0|34=1178|49=HEMAQA1_APA|52=20180725-18:53:20.638|56=TRAX|10=028|8=FIXT.1.1|9=61|35=0|34=1179|49=HEMAQA1_APA|52=20180725-18:53:51.639|56=TRAX|10=034|8=FIXT.1.1|9=61|35=0|34=1180|49=HEMAQA1_APA|52=20180725-18:54:22.638|56=TRAX|10=024|8=FIXT.1.1|9=61|35=0|34=1181|49=HEMAQA1_APA|52=20180725-18:54:52.638|56=TRAX|10=028|8=FIXT.1.1|9=61|35=0|34=1182|49=HEMAQA1_APA|52=20180725-18:55:23.638|56=TRAX|10=028|8=FIXT.1.1|9=61|35=0|34=1183|49=HEMAQA1_APA|52=20180725-18:55:54.638|56=TRAX|10=033|8=FIXT.1.1|9=61|35=0|34=1184|49=HEMAQA1_APA|52=20180725-18:56:24.638|56=TRAX|10=032|8=FIXT.1.1|9=61|35=0|34=1185|49=HEMAQA1_APA|52=20180725-18:56:55.637|56=TRAX|10=036|8=FIXT.1.1|9=61|35=0|34=1186|49=HEMAQA1_APA|52=20180725-18:57:25.638|56=TRAX|10=036|8=FIXT.1.1|9=61|35=0|34=1187|49=HEMAQA1_APA|52=20180725-18:57:56.637|56=TRAX|10=040|8=FIXT.1.1|9=61|35=0|34=1188|49=HEMAQA1_APA|52=20180725-18:58:26.639|56=TRAX|10=041|8=FIXT.1.1|9=61|35=0|34=1189|49=HEMAQA1_APA|52=20180725-18:58:57.637|56=TRAX|10=044|8=FIXT.1.1|9=61|35=0|34=1190|49=HEMAQA1_APA|52=20180725-18:59:27.637|56=TRAX|10=034|8=FIXT.1.1|9=61|35=0|34=1191|49=HEMAQA1_APA|52=20180725-18:59:57.637|56=TRAX|10=038|8=FIXT.1.1|9=61|35=0|34=1192|49=HEMAQA1_APA|52=20180725-19:00:27.637|56=TRAX|10=023|8=FIXT.1.1|9=61|35=0|34=1193|49=HEMAQA1_APA|52=20180725-19:00:57.637|56=TRAX|10=027|8=FIXT.1.1|9=61|35=0|34=1194|49=HEMAQA1_APA|52=20180725-19:01:27.638|56=TRAX|10=027|8=FIXT.1.1|9=61|35=0|34=1195|49=HEMAQA1_APA|52=20180725-19:01:57.638|56=TRAX|10=031|8=FIXT.1.1|9=61|35=0|34=1196|49=HEMAQA1_APA|52=20180725-19:02:27.638|56=TRAX|10=030|8=FIXT.1.1|9=61|35=0|34=1197|49=HEMAQA1_APA|52=20180725-19:02:58.638|56=TRAX|10=035|8=FIXT.1.1|9=61|35=0|34=1198|49=HEMAQA1_APA|52=20180725-19:03:29.637|56=TRAX|10=034|8=FIXT.1.1|9=61|35=0|34=1199|49=HEMAQA1_APA|52=20180725-19:03:59.638|56=TRAX|10=039|8=FIXT.1.1|9=61|35=0|34=1200|49=HEMAQA1_APA|52=20180725-19:04:30.638|56=TRAX|10=012|8=FIXT.1.1|9=61|35=0|34=1201|49=HEMAQA1_APA|52=20180725-19:05:00.638|56=TRAX|10=011|8=FIXT.1.1|9=61|35=0|34=1202|49=HEMAQA1_APA|52=20180725-19:05:30.639|56=TRAX|10=016|8=FIXT.1.1|9=61|35=0|34=1203|49=HEMAQA1_APA|52=20180725-19:06:01.637|56=TRAX|10=014|8=FIXT.1.1|9