8=FIXT.1.1|9=103|35=A|34=1|49=PUBQA2_Verion5|52=20180329-15:35:44.967|56=TRAX|98=0|108=30|95=8|96=2.0.0rc4|141=Y|1137=9|10=118|8=FIXT.1.1|9=103|35=A|34=1|49=PUBQA2_Verion5|52=20180329-15:56:03.956|56=TRAX|98=0|108=30|95=8|96=2.0.0rc4|141=Y|1137=9|10=114|8=FIXT.1.1|9=103|35=A|34=1|49=PUBQA2_Verion5|52=20180403-08:13:12.779|56=TRAX|98=0|108=30|95=8|96=2.0.0rc4|141=Y|1137=9|10=105|8=FIXT.1.1|9=61|35=0|34=2|49=PUBQA2_Verion5|52=20180403-08:13:43.737|56=TRAX|10=025|8=FIXT.1.1|9=61|35=0|34=3|49=PUBQA2_Verion5|52=20180403-08:14:13.774|56=TRAX|10=025|8=FIXT.1.1|9=61|35=0|34=4|49=PUBQA2_Verion5|52=20180403-08:14:43.880|56=TRAX|10=027|8=FIXT.1.1|9=61|35=0|34=5|49=PUBQA2_Verion5|52=20180403-08:15:13.889|56=TRAX|10=035|8=FIXT.1.1|9=61|35=0|34=6|49=PUBQA2_Verion5|52=20180403-08:15:44.774|56=TRAX|10=033|8=FIXT.1.1|9=61|35=0|34=7|49=PUBQA2_Verion5|52=20180403-08:16:15.768|56=TRAX|10=036|8=FIXT.1.1|9=61|35=0|34=8|49=PUBQA2_Verion5|52=20180403-08:16:45.778|56=TRAX|10=041|8=FIXT.1.1|9=61|35=0|34=9|49=PUBQA2_Verion5|52=20180403-08:17:16.774|56=TRAX|10=037|8=FIXT.1.1|9=62|35=0|34=10|49=PUBQA2_Verion5|52=20180403-08:17:47.769|56=TRAX|10=086|8=FIXT.1.1|9=62|35=0|34=11|49=PUBQA2_Verion5|52=20180403-08:18:18.781|56=TRAX|10=080|8=FIXT.1.1|9=62|35=0|34=12|49=PUBQA2_Verion5|52=20180403-08:18:49.770|56=TRAX|10=083|8=FIXT.1.1|9=62|35=0|34=13|49=PUBQA2_Verion5|52=20180403-08:19:19.778|56=TRAX|10=090|8=FIXT.1.1|9=62|35=0|34=14|49=PUBQA2_Verion5|52=20180403-08:19:50.778|56=TRAX|10=086|8=FIXT.1.1|9=62|35=0|34=15|49=PUBQA2_Verion5|52=20180403-08:20:20.782|56=TRAX|10=071|8=FIXT.1.1|9=62|35=0|34=16|49=PUBQA2_Verion5|52=20180403-08:20:51.781|56=TRAX|10=075|8=FIXT.1.1|9=62|35=0|34=17|49=PUBQA2_Verion5|52=20180403-08:21:22.771|56=TRAX|10=074|8=FIXT.1.1|9=62|35=0|34=18|49=PUBQA2_Verion5|52=20180403-08:21:52.777|56=TRAX|10=084|8=FIXT.1.1|9=62|35=0|34=19|49=PUBQA2_Verion5|52=20180403-08:22:23.769|56=TRAX|10=085|8=FIXT.1.1|9=62|35=0|34=20|49=PUBQA2_Verion5|52=20180403-08:22:53.784|56=TRAX|10=077|8=FIXT.1.1|9=62|35=0|34=21|49=PUBQA2_Verion5|52=20180403-08:23:24.777|56=TRAX|10=079|8=FIXT.1.1|9=62|35=0|34=22|49=PUBQA2_Verion5|52=20180403-08:23:55.774|56=TRAX|10=081|8=FIXT.1.1|9=62|35=0|34=23|49=PUBQA2_Verion5|52=20180403-08:24:26.784|56=TRAX|10=082|8=FIXT.1.1|9=62|35=0|34=24|49=PUBQA2_Verion5|52=20180403-08:24:57.773|56=TRAX|10=085|8=FIXT.1.1|9=62|35=0|34=25|49=PUBQA2_Verion5|52=20180403-08:25:27.778|56=TRAX|10=089|8=FIXT.1.1|9=62|35=0|34=26|49=PUBQA2_Verion5|52=20180403-08:25:57.779|56=TRAX|10=094|8=FIXT.1.1|9=62|35=0|34=27|49=PUBQA2_Verion5|52=20180403-08:26:28.772|56=TRAX|10=087|8=FIXT.1.1|9=62|35=0|34=28|49=PUBQA2_Verion5|52=20180403-08:26:58.776|56=TRAX|10=095|8=FIXT.1.1|9=62|35=0|34=29|49=PUBQA2_Verion5|52=20180403-08:27:29.784|56=TRAX|10=094|8=FIXT.1.1|9=62|35=0|34=30|49=PUBQA2_Verion5|52=20180403-08:28:00.774|56=TRAX|10=075|8=FIXT.1.1|9=62|35=0|34=31|49=PUBQA2_Verion5|52=20180403-08:28:30.778|56=TRAX|10=083|8=FIXT.1.1|9=62|35=0|34=32|49=PUBQA2_Verion5|52=20180403-08:29:01.779|56=TRAX|10=084|8=FIXT.1.1|9=62|35=0|34=33|49=PUBQA2_Verion5|52=20180403-08:29:32.773|56=TRAX|10=083|8=FIXT.1.1|9=62|35=0|34=34|49=PUBQA2_Verion5|52=20180403-08:30:03.773|56=TRAX|10=074|8=FIXT.1.1|9=62|35=0|34=35|49=PUBQA2_Verion5|52=20180403-08:30:34.744|56=TRAX|10=077|8=FIXT.1.1|9=62|35=0|34=36|49=PUBQA2_Verion5|52=20180403-08:31:04.803|56=TRAX|10=072|8=FIXT.1.1|9=62|35=0|34=37|49=PUBQA2_Verion5|52=20180403-08:31:35.783|56=TRAX|10=084|8=FIXT.1.1|9=62|35=0|34=38|49=PUBQA2_Verion5|52=20180403-08:32:05.784|56=TRAX|10=084|8=FIXT.1.1|9=62|35=0|34=39|49=PUBQA2_Verion5|52=20180403-08:32:36.776|56=TRAX|10=090|8=FIXT.1.1|9=62|35=0|34=40|49=PUBQA2_Verion5|52=20180403-08:33:07.775|56=TRAX|10=080|8=FIXT.1.1|9=62|35=0|34=41|49=PUBQA2_Verion5|52=20180403-08:33:37.783|56=TRAX|10=083|8=FIXT.1.1|9=62|35=0|34=42|49=PUBQA2_Verion5|52=20180403-08:34:08.766|56=TRAX|10=084|8=FIXT.1.1|9=62|35=0|34=43|49=PUBQA2_Verion5|52=20180403-08:34:38.785|56=TRAX|10=089|8=FIXT.1.1|9=62|35=0|34=44|49=PUBQA2_Verion5|52=20180403-08:35:09.786|56=TRAX|10=090|8=FIXT.1.1|9=62|35=0|34=45|49=PUBQA2_Verion5|52=20180403-08:35:40.781|56=TRAX|10=081|8=FIXT.1.1|9=62|35=0|34=46|49=PUBQA2_Verion5|52=20180403-08:36:10.784|56=TRAX|10=083|8=FIXT.1.1|9=62|35=0|34=47|49=PUBQA2_Verion5|52=20180403-08:36:41.774|56=TRAX|10=087|8=FIXT.1.1|9=62|35=0|34=48|49=PUBQA2_Verion5|52=20180403-08:37:11.774|56=TRAX|10=086|8=FIXT.1.1|9=62|35=0|34=49|49=PUBQA2_Verion5|52=20180403-08:37:41.784|56=TRAX|10=091|8=FIXT.1.1|9=62|35=0|34=50|49=PUBQA2_Verion5|52=20180403-08:38:11.784|56=TRAX|10=081|8=FIXT.1.1|9=62|35=0|34=51|49=PUBQA2_Verion5|52=20180403-08:38:42.777|56=TRAX|10=088|8=FIXT.1.1|9=62|35=0|34=52|49=PUBQA2_Verion5|52=20180403-08:39:13.775|56=TRAX|10=086|8=FIXT.1.1|9=62|35=0|34=53|49=PUBQA2_Verion5|52=20180403-08:39:43.784|56=TRAX|10=090|8=FIXT.1.1|9=62|35=0|34=54|49=PUBQA2_Verion5|52=20180403-08:40:13.785|56=TRAX|10=081|8=FIXT.1.1|9=62|35=0|34=55|49=PUBQA2_Verion5|52=20180403-08:40:43.785|56=TRAX|10=085|8=FIXT.1.1|9=62|35=0|34=56|49=PUBQA2_Verion5|52=20180403-08:41:13.789|56=TRAX|10=088|8=FIXT.1.1|9=62|35=0|34=57|49=PUBQA2_Verion5|52=20180403-08:41:43.888|56=TRAX|10=092|8=FIXT.1.1|9=62|35=0|34=58|49=PUBQA2_Verion5|52=20180403-08:42:13.893|56=TRAX|10=087|8=FIXT.1.1|9=62|35=0|34=59|49=PUBQA2_Verion5|52=20180403-08:42:43.911|56=TRAX|10=082|8=FIXT.1.1|9=62|35=0|34=60|49=PUBQA2_Verion5|52=20180403-08:43:14.778|56=TRAX|10=084|8=FIXT.1.1|9=62|35=0|34=61|49=PUBQA2_Verion5|52=20180403-08:43:44.789|56=TRAX|10=090|8=FIXT.1.1|9=62|35=0|34=62|49=PUBQA2_Verion5|52=20180403-08:44:15.780|56=TRAX|10=081|8=FIXT.1.1|9=62|35=0|34=63|49=PUBQA2_Verion5|52=20180403-08:44:45.785|56=TRAX|10=090|8=FIXT.1.1|9=62|35=0|34=64|49=PUBQA2_Verion5|52=20180403-08:45:15.785|56=TRAX|10=089|8=FIXT.1.1|9=62|35=0|34=65|49=PUBQA2_Verion5|52=20180403-08:45:45.790|56=TRAX|10=089|8=FIXT.1.1|9=62|35=0|34=66|49=PUBQA2_Verion5|52=20180403-08:46:16.786|56=TRAX|10=094|8=FIXT.1.1|9=62|35=0|34=67|49=PUBQA2_Verion5|52=20180403-08:46:47.786|56=TRAX|10=099|8=FIXT.1.1|9=62|35=0|34=68|49=PUBQA2_Verion5|52=20180403-08:47:18.783|56=TRAX|10=096|8=FIXT.1.1|9=62|35=0|34=69|49=PUBQA2_Verion5|52=20180403-08:47:48.790|56=TRAX|10=098|8=FIXT.1.1|9=62|35=0|34=70|49=PUBQA2_Verion5|52=20180403-08:48:19.782|56=TRAX|10=090|8=FIXT.1.1|9=62|35=0|34=71|49=PUBQA2_Verion5|52=20180403-08:48:49.782|56=TRAX|10=094|8=FIXT.1.1|9=62|35=0|34=72|49=PUBQA2_Verion5|52=20180403-08:49:19.783|56=TRAX|10=094|8=FIXT.1.1|9=62|35=0|34=73|49=PUBQA2_Verion5|52=20180403-08:49:49.793|56=TRAX|10=099|8=FIXT.1.1|9=62|35=0|34=74|49=PUBQA2_Verion5|52=20180403-08:50:19.793|56=TRAX|10=089|8=FIXT.1.1|9=62|35=0|34=75|49=PUBQA2_Verion5|52=20180403-08:50:50.784|56=TRAX|10=085|8=FIXT.1.1|9=62|35=0|34=76|49=PUBQA2_Verion5|52=20180403-08:51:20.785|56=TRAX|10=085|8=FIXT.1.1|9=62|35=0|34=77|49=PUBQA2_Verion5|52=20180403-08:51:51.786|56=TRAX|10=091|8=FIXT.1.1|9=62|35=0|34=78|49=PUBQA2_Verion5|52=20180403-08:52:22.783|56=TRAX|10=088|8=FIXT.1.1|9=62|35=0|34=79|49=PUBQA2_Verion5|52=20180403-08:52:52.787|56=TRAX|10=096|8=FIXT.1.1|9=62|35=0|34=80|49=PUBQA2_Verion5|52=20180403-08:53:22.792|56=TRAX|10=082|8=FIXT.1.1|9=62|35=0|34=81|49=PUBQA2_Verion5|52=20180403-08:53:53.782|56=TRAX|10=086|8=FIXT.1.1|9=71|35=1|34=82|49=PUBQA2_Verion5|52=20180403-08:53:59.794|56=TRAX|112=TEST|10=115|8=FIXT.1.1|9=62|35=0|34=83|49=PUBQA2_Verion5|52=20180403-08:54:30.782|56=TRAX|10=084|8=FIXT.1.1|9=62|35=0|34=84|49=PUBQA2_Verion5|52=20180403-08:55:00.782|56=TRAX|10=083|8=FIXT.1.1|9=62|35=0|34=85|49=PUBQA2_Verion5|52=20180403-08:55:30.794|56=TRAX|10=090|8=FIXT.1.1|9=62|35=0|34=86|49=PUBQA2_Verion5|52=20180403-08:56:01.793|56=TRAX|10=089|8=FIXT.1.1|9=62|35=0|34=87|49=PUBQA2_Verion5|52=20180403-08:56:32.789|56=TRAX|10=099|8=FIXT.1.1|9=62|35=0|34=88|49=PUBQA2_Verion5|52=20180403-08:57:03.782|56=TRAX|10=092|8=FIXT.1.1|9=62|35=0|34=89|49=PUBQA2_Verion5|52=20180403-08:57:33.791|56=TRAX|10=096|8=FIXT.1.1|9=62|35=0|34=90|49=PUBQA2_Verion5|52=20180403-08:58:03.793|56=TRAX|10=088|8=FIXT.1.1|9=62|35=0|34=91|49=PUBQA2_Verion5|52=20180403-08:58:34.793|56=TRAX|10=093|8=FIXT.1.1|9=62|35=0|34=92|49=PUBQA2_Verion5|52=20180403-08:59:04.795|56=TRAX|10=094|8=FIXT.1.1|9=62|35=0|34=93|49=PUBQA2_Verion5|52=20180403-08:59:34.796|56=TRAX|10=099|8=FIXT.1.1|9=62|35=0|34=94|49=PUBQA2_Verion5|52=20180403-09:00:05.786|56=TRAX|10=084|8=FIXT.1.1|9=62|35=0|34=95|49=PUBQA2_Verion5|52=20180403-09:00:36.798|56=TRAX|10=092|8=FIXT.1.1|9=62|35=0|34=96|49=PUBQA2_Verion5|52=20180403-09:01:07.787|56=TRAX|10=090|8=FIXT.1.1|9=62|35=0|34=97|49=PUBQA2_Verion5|52=20180403-09:01:37.793|56=TRAX|10=091|8=FIXT.1.1|9=62|35=0|34=98|49=PUBQA2_Verion5|52=20180403-09:02:07.798|56=TRAX|10=095|8=FIXT.1.1|9=62|35=0|34=99|49=PUBQA2_Verion5|52=20180403-09:02:37.800|56=TRAX|10=083|8=FIXT.1.1|9=63|35=0|34=100|49=PUBQA2_Verion5|52=20180403-09:03:08.797|56=TRAX|10=129|8=FIXT.1.1|9=63|35=0|34=101|49=PUBQA2_Verion5|52=20180403-09:03:39.796|56=TRAX|10=133|8=FIXT.1.1|9=63|35=0|34=102|49=PUBQA2_Verion5|52=20180403-09:04:09.801|56=TRAX|10=119|8=FIXT.1.1|9=63|35=0|34=103|49=PUBQA2_Verion5|52=20180403-09:04:40.791|56=TRAX|10=123|8=FIXT.1.1|9=63|35=0|34=104|49=PUBQA2_Verion5|52=20180403-09:05:10.791|56=TRAX|10=122|8=FIXT.1.1|9=63|35=0|34=105|49=PUBQA2_Verion5|52=20180403-09:05:41.789|56=TRAX|10=134|8=FIXT.1.1|9=63|35=0|34=106|49=PUBQA2_Verion5|52=20180403-09:06:11.794|56=TRAX|10=129|8=FIXT.1.1|9=63|35=0|34=107|49=PUBQA2_Verion5|52=20180403-09:06:41.795|56=TRAX|10=134|8=FIXT.1.1|9=63|35=0|34=108|49=PUBQA2_Verion5|52=20180403-09:07:11.802|56=TRAX|10=122|8=FIXT.1.1|9=63|35=0|34=109|49=PUBQA2_Verion5|52=20180403-09:07:42.801|56=TRAX|10=126|8=FIXT.1.1|9=63|35=0|34=110|49=PUBQA2_Verion5|52=20180403-09:08:12.802|56=TRAX|10=117|8=FIXT.1.1|9=63|35=0|34=111|49=PUBQA2_Verion5|52=20180403-09:08:43.796|56=TRAX|10=134|8=FIXT.1.1|9=63|35=0|34=112|49=PUBQA2_Verion5|52=20180403-09:09:14.795|56=TRAX|10=133|8=FIXT.1.1|9=63|35=0|34=113|49=PUBQA2_Verion5|52=20180403-09:09:45.792|56=TRAX|10=135|8=FIXT.1.1|9=63|35=0|34=114|49=PUBQA2_Verion5|52=20180403-09:10:15.795|56=TRAX|10=128|8=FIXT.1.1|9=63|35=0|34=115|49=PUBQA2_Verion5|52=20180403-09:10:45.803|56=TRAX|10=122|8=FIXT.1.1|9=63|35=0|34=116|49=PUBQA2_Verion5|52=20180403-09:11:16.802|56=TRAX|10=121|8=FIXT.1.1|9=63|35=0|34=117|49=PUBQA2_Verion5|52=20180403-09:11:47.794|56=TRAX|10=136|8=FIXT.1.1|9=63|35=0|34=118|49=PUBQA2_Verion5|52=20180403-09:12:17.794|56=TRAX|10=135|8=FIXT.1.1|9=63|35=0|34=119|49=PUBQA2_Verion5|52=20180403-09:12:47.800|56=TRAX|10=127|8=FIXT.1.1|9=63|35=0|34=120|49=PUBQA2_Verion5|52=20180403-09:13:18.794|56=TRAX|10=130|8=FIXT.1.1|9=63|35=0|34=121|49=PUBQA2_Verion5|52=20180403-09:13:48.794|56=TRAX|10=134|8=FIXT.1.1|9=63|35=0|34=122|49=PUBQA2_Verion5|52=20180403-09:14:18.799|56=TRAX|10=138|8=FIXT.1.1|9=63|35=0|34=123|49=PUBQA2_Verion5|52=20180403-09:14:48.803|56=TRAX|10=128|8=FIXT.1.1|9=63|35=0|34=124|49=PUBQA2_Verion5|52=20180403-09:15:18.889|56=TRAX|10=141|8=FIXT.1.1|9=63|35=0|34=125|49=PUBQA2_Verion5|52=20180403-09:15:48.902|56=TRAX|10=131|8=FIXT.1.1|9=63|35=0|34=126|49=PUBQA2_Verion5|52=20180403-09:16:19.798|56=TRAX|10=144|8=FIXT.1.1|9=63|35=0|34=127|49=PUBQA2_Verion5|52=20180403-09:16:49.799|56=TRAX|10=149|8=FIXT.1.1|9=63|35=0|34=128|49=PUBQA2_Verion5|52=20180403-09:17:20.794|56=TRAX|10=135|8=FIXT.1.1|9=63|35=0|34=129|49=PUBQA2_Verion5|52=20180403-09:17:51.795|56=TRAX|10=141|8=FIXT.1.1|9=63|35=0|34=130|49=PUBQA2_Verion5|52=20180403-09:18:21.802|56=TRAX|10=120|8=FIXT.1.1|9=63|35=0|34=131|49=PUBQA2_Verion5|52=20180403-09:18:51.802|56=TRAX|10=124|8=FIXT.1.1|9=63|35=0|34=132|49=PUBQA2_Verion5|52=20180403-09:19:22.798|56=TRAX|10=138|8=FIXT.1.1|9=63|35=0|34=133|49=PUBQA2_Verion5|52=20180403-09:19:52.807|56=TRAX|10=133|8=FIXT.1.1|9=63|35=0|34=134|49=PUBQA2_Verion5|52=20180403-09:20:23.798|56=TRAX|10=133|8=FIXT.1.1|9=63|35=0|34=135|49=PUBQA2_Verion5|52=20180403-09:20:54.796|56=TRAX|10=136|8=FIXT.1.1|9=63|35=0|34=136|49=PUBQA2_Verion5|52=20180403-09:21:24.804|56=TRAX|10=125|8=FIXT.1.1|9=63|35=0|34=137|49=PUBQA2_Verion5|52=20180403-09:21:55.797|56=TRAX|10=141|8=FIXT.1.1|9=63|35=0|34=138|49=PUBQA2_Verion5|52=20180403-09:22:25.800|56=TRAX|10=125|8=FIXT.1.1|9=63|35=0|34=139|49=PUBQA2_Verion5|52=20180403-09:22:55.800|56=TRAX|10=129|8=FIXT.1.1|9=63|35=0|34=140|49=PUBQA2_Verion5|52=20180403-09:23:25.806|56=TRAX|10=125|8=FIXT.1.1|9=63|35=0|34=141|49=PUBQA2_Verion5|52=20180403-09:23:56.799|56=TRAX|10=141|8=FIXT.1.1|9=63|35=0|34=142|49=PUBQA2_Verion5|52=20180403-09:24:26.810|56=TRAX|10=124|8=FIXT.1.1|9=63|35=0|34=143|49=PUBQA2_Verion5|52=20180403-09:24:57.809|56=TRAX|10=137|8=FIXT.1.1|9=63|35=0|34=144|49=PUBQA2_Verion5|52=20180403-09:25:28.802|56=TRAX|10=130|8=FIXT.1.1|9=63|35=0|34=145|49=PUBQA2_Verion5|52=20180403-09:25:58.809|56=TRAX|10=141|8=FIXT.1.1|9=63|35=0|34=146|49=PUBQA2_Verion5|52=20180403-09:26:29.806|56=TRAX|10=138|8=FIXT.1.1|9=63|35=0|34=147|49=PUBQA2_Verion5|52=20180403-09:27:00.802|56=TRAX|10=125|8=FIXT.1.1|9=63|35=0|34=148|49=PUBQA2_Verion5|52=20180403-09:27:31.799|56=TRAX|10=145|8=FIXT.1.1|9=63|35=0|34=149|49=PUBQA2_Verion5|52=20180403-09:28:01.812|56=TRAX|10=130|8=FIXT.1.1|9=63|35=0|34=150|49=PUBQA2_Verion5|52=20180403-09:28:32.796|56=TRAX|10=137|8=FIXT.1.1|9=63|35=0|34=151|49=PUBQA2_Verion5|52=20180403-09:29:02.808|56=TRAX|10=130|8=FIXT.1.1|9=63|35=0|34=152|49=PUBQA2_Verion5|52=20180403-09:29:33.806|56=TRAX|10=133|8=FIXT.1.1|9=63|35=0|34=153|49=PUBQA2_Verion5|52=20180403-09:30:04.799|56=TRAX|10=135|8=FIXT.1.1|9=63|35=0|34=154|49=PUBQA2_Verion5|52=20180403-09:30:34.800|56=TRAX|10=122|8=FIXT.1.1|9=63|35=0|34=155|49=PUBQA2_Verion5|52=20180403-09:31:04.810|56=TRAX|10=122|8=FIXT.1.1|9=63|35=0|34=156|49=PUBQA2_Verion5|52=20180403-09:31:35.802|56=TRAX|10=128|8=FIXT.1.1|9=63|35=0|34=157|49=PUBQA2_Verion5|52=20180403-09:32:06.800|56=TRAX|10=126|8=FIXT.1.1|9=63|35=0|34=158|49=PUBQA2_Verion5|52=20180403-09:32:37.813|56=TRAX|10=135|8=FIXT.1.1|9=63|35=0|34=159|49=PUBQA2_Verion5|52=20180403-09:33:08.799|56=TRAX|10=148|8=FIXT.1.1|9=63|35=0|34=160|49=PUBQA2_Verion5|52=20180403-09:33:38.801|56=TRAX|10=127|8=FIXT.1.1|9=63|35=0|34=161|49=PUBQA2_Verion5|52=20180403-09:34:08.810|56=TRAX|10=126|8=FIXT.1.1|9=63|35=0|34=162|49=PUBQA2_Verion5|52=20180403-09:34:39.813|56=TRAX|10=134|8=FIXT.1.1|9=63|35=0|34=163|49=PUBQA2_Verion5|52=20180403-09:35:10.813|56=TRAX|10=125|8=FIXT.1.1|9=63|35=0|34=164|49=PUBQA2_Verion5|52=20180403-09:35:41.812|56=TRAX|10=129|8=FIXT.1.1|9=63|35=0|34=165|49=PUBQA2_Verion5|52=20180403-09:36:12.809|56=TRAX|10=135|8=FIXT.1.1|9=63|35=0|34=166|49=PUBQA2_Verion5|52=20180403-09:36:42.813|56=TRAX|10=134|8=FIXT.1.1|9=63|35=0|34=167|49=PUBQA2_Verion5|52=20180403-09:37:13.770|56=TRAX|10=136|8=FIXT.1.1|9=63|35=0|34=168|49=PUBQA2_Verion5|52=20180403-09:37:43.814|56=TRAX|10=139|8=FIXT.1.1|9=63|35=0|34=169|49=PUBQA2_Verion5|52=20180403-09:38:14.800|56=TRAX|10=134|8=FIXT.1.1|9=63|35=0|34=170|49=PUBQA2_Verion5|52=20180403-09:38:44.806|56=TRAX|10=135|8=FIXT.1.1|9=63|35=0|34=171|49=PUBQA2_Verion5|52=20180403-09:39:15.812|56=TRAX|10=132|8=FIXT.1.1|9=63|35=0|34=172|49=PUBQA2_Verion5|52=20180403-09:39:46.808|56=TRAX|10=142|8=FIXT.1.1|9=63|35=0|34=173|49=PUBQA2_Verion5|52=20180403-09:40:16.809|56=TRAX|10=133|8=FIXT.1.1|9=63|35=0|34=174|49=PUBQA2_Verion5|52=20180403-09:40:47.813|56=TRAX|10=133|8=FIXT.1.1|9=63|35=0|34=175|49=PUBQA2_Verion5|52=20180403-09:41:18.782|56=TRAX|10=138|8=FIXT.1.1|9=63|35=0|34=176|49=PUBQA2_Verion5|52=20180403-09:41:48.800|56=TRAX|10=133|8=FIXT.1.1|9=63|35=0|34=177|49=PUBQA2_Verion5|52=20180403-09:42:18.864|56=TRAX|10=142|8=FIXT.1.1|9=63|35=0|34=178|49=PUBQA2_Verion5|52=20180403-09:42:49.767|56=TRAX|10=149|8=FIXT.1.1|9=63|35=0|34=179|49=PUBQA2_Verion5|52=20180403-09:43:20.766|56=TRAX|10=139|8=FIXT.1.1|9=63|35=0|34=180|49=PUBQA2_Verion5|52=20180403-09:43:51.764|56=TRAX|10=133|8=FIXT.1.1|9=63|35=0|34=181|49=PUBQA2_Verion5|52=20180403-09:44:22.763|56=TRAX|10=132|8=FIXT.1.1|9=63|35=0|34=182|49=PUBQA2_Verion5|52=20180403-09:44:53.762|56=TRAX|10=136|8=FIXT.1.1|9=63|35=0|34=183|49=PUBQA2_Verion5|52=20180403-09:45:24.761|56=TRAX|10=135|8=FIXT.1.1|9=63|35=0|34=184|49=PUBQA2_Verion5|52=20180403-09:45:54.803|56=TRAX|10=136|8=FIXT.1.1|9=63|35=0|34=185|49=PUBQA2_Verion5|52=20180403-09:46:25.791|56=TRAX|10=142|8=FIXT.1.1|9=63|35=0|34=186|49=PUBQA2_Verion5|52=20180403-09:46:56.792|56=TRAX|10=148|8=FIXT.1.1|9=63|35=0|34=187|49=PUBQA2_Verion5|52=20180403-09:47:26.798|56=TRAX|10=153|8=FIXT.1.1|9=63|35=0|34=188|49=PUBQA2_Verion5|52=20180403-09:47:57.794|56=TRAX|10=154|8=FIXT.1.1|9=63|35=0|34=189|49=PUBQA2_Verion5|52=20180403-09:48:28.761|56=TRAX|10=148|8=FIXT.1.1|9=63|35=0|34=190|49=PUBQA2_Verion5|52=20180403-09:48:59.761|56=TRAX|10=144|8=FIXT.1.1|9=63|35=0|34=191|49=PUBQA2_Verion5|52=20180403-09:49:30.759|56=TRAX|10=142|8=FIXT.1.1|9=63|35=0|34=192|49=PUBQA2_Verion5|52=20180403-09:50:01.758|56=TRAX|10=132|8=FIXT.1.1|9=63|35=0|34=193|49=PUBQA2_Verion5|52=20180403-09:50:32.757|56=TRAX|10=136|8=FIXT.1.1|9=63|35=0|34=194|49=PUBQA2_Verion5|52=20180403-09:51:03.755|56=TRAX|10=134|8=FIXT.1.1|9=63|35=0|34=195|49=PUBQA2_Verion5|52=20180403-09:51:34.754|56=TRAX|10=138|8=FIXT.1.1|9=63|35=0|34=196|49=PUBQA2_Verion5|52=20180403-09:52:04.788|56=TRAX|10=144|8=FIXT.1.1|9=63|35=0|34=197|49=PUBQA2_Verion5|52=20180403-09:52:35.789|56=TRAX|10=150|8=FIXT.1.1|9=63|35=0|34=198|49=PUBQA2_Verion5|52=20180403-09:53:06.753|56=TRAX|10=141|8=FIXT.1.1|9=63|35=0|34=199|49=PUBQA2_Verion5|52=20180403-09:53:37.752|56=TRAX|10=145|8=FIXT.1.1|9=63|35=0|34=200|49=PUBQA2_Verion5|52=20180403-09:54:08.751|56=TRAX|10=126|8=FIXT.1.1|9=63|35=0|34=201|49=PUBQA2_Verion5|52=20180403-09:54:39.749|56=TRAX|10=138|8=FIXT.1.1|9=63|35=0|34=202|49=PUBQA2_Verion5|52=20180403-09:55:10.748|56=TRAX|10=128|8=FIXT.1.1|9=63|35=0|34=203|49=PUBQA2_Verion5|52=20180403-09:55:41.747|56=TRAX|10=132|8=FIXT.1.1|9=63|35=0|34=204|49=PUBQA2_Verion5|52=20180403-09:56:12.745|56=TRAX|10=130|8=FIXT.1.1|9=63|35=0|34=205|49=PUBQA2_Verion5|52=20180403-09:56:42.777|56=TRAX|10=139|8=FIXT.1.1|9=63|35=0|34=206|49=PUBQA2_Verion5|52=20180403-09:57:13.744|56=TRAX|10=133|8=FIXT.1.1|9=63|35=0|34=207|49=PUBQA2_Verion5|52=20180403-09:57:44.743|56=TRAX|10=137|8=FIXT.1.1|9=63|35=0|34=208|49=PUBQA2_Verion5|52=20180403-09:58:15.741|56=TRAX|10=135|8=FIXT.1.1|9=63|35=0|34=209|49=PUBQA2_Verion5|52=20180403-09:58:46.740|56=TRAX|10=139|8=FIXT.1.1|9=63|35=0|34=210|49=PUBQA2_Verion5|52=20180403-09:59:16.771|56=TRAX|10=133|8=FIXT.1.1|9=63|35=0|34=211|49=PUBQA2_Verion5|52=20180403-09:59:47.738|56=TRAX|10=141|8=FIXT.1.1|9=63|35=0|34=212|49=PUBQA2_Verion5|52=20180403-10:00:17.772|56=TRAX|10=115|8=FIXT.1.1|9=63|35=0|34=213|49=PUBQA2_Verion5|52=20180403-10:00:48.770|56=TRAX|10=118|8=FIXT.1.1|9=63|35=0|34=214|49=PUBQA2_Verion5|52=20180403-10:01:18.770|56=TRAX|10=117|8=FIXT.1.1|9=63|35=0|34=215|49=PUBQA2_Verion5|52=20180403-10:01:48.781|56=TRAX|10=123|8=FIXT.1.1|9=63|35=0|34=216|49=PUBQA2_Verion5|52=20180403-10:02:18.841|56=TRAX|10=119|8=FIXT.1.1|9=63|35=0|34=217|49=PUBQA2_Verion5|52=20180403-10:02:48.924|56=TRAX|10=125|8=FIXT.1.1|9=63|35=0|34=218|49=PUBQA2_Verion5|52=20180403-10:03:19.776|56=TRAX|10=130|8=FIXT.1.1|9=63|35=0|34=219|49=PUBQA2_Verion5|52=20180403-10:03:50.769|56=TRAX|10=128|8=FIXT.1.1|9=63|35=0|34=220|49=PUBQA2_Verion5|52=20180403-10:04:20.781|56=TRAX|10=112|8=FIXT.1.1|9=63|35=0|34=221|49=PUBQA2_Verion5|52=20180403-10:04:51.773|56=TRAX|10=118|8=FIXT.1.1|9=63|35=0|34=222|49=PUBQA2_Verion5|52=20180403-10:05:21.780|56=TRAX|10=115|8=FIXT.1.1|9=63|35=0|34=223|49=PUBQA2_Verion5|52=20180403-10:05:52.775|56=TRAX|10=124|8=FIXT.1.1|9=63|35=0|34=224|49=PUBQA2_Verion5|52=20180403-10:06:23.777|56=TRAX|10=126|8=FIXT.1.1|9=63|35=0|34=225|49=PUBQA2_Verion5|52=20180403-10:06:54.774|56=TRAX|10=128|8=FIXT.1.1|9=63|35=0|34=226|49=PUBQA2_Verion5|52=20180403-10:07:24.782|56=TRAX|10=126|8=FIXT.1.1|9=63|35=0|34=227|49=PUBQA2_Verion5|52=20180403-10:07:55.780|56=TRAX|10=129|8=FIXT.1.1|9=63|35=0|34=228|49=PUBQA2_Verion5|52=20180403-10:08:26.781|56=TRAX|10=130|8=FIXT.1.1|9=63|35=0|34=229|49=PUBQA2_Verion5|52=20180403-10:08:57.784|56=TRAX|10=138|8=FIXT.1.1|9=63|35=0|34=230|49=PUBQA2_Verion5|52=20180403-10:09:28.783|56=TRAX|10=128|8=FIXT.1.1|9=63|35=0|34=231|49=PUBQA2_Verion5|52=20180403-10:09:59.779|56=TRAX|10=138|8=FIXT.1.1|9=63|35=0|34=232|49=PUBQA2_Verion5|52=20180403-10:10:30.740|56=TRAX|10=108|8=FIXT.1.1|9=63|35=0|34=233|49=PUBQA2_Verion5|52=20180403-10:11:01.739|56=TRAX|10=116|8=FIXT.1.1|9=63|35=0|34=234|49=PUBQA2_Verion5|52=20180403-10:11:32.738|56=TRAX|10=120|8=FIXT.1.1|9=63|35=0|34=235|49=PUBQA2_Verion5|52=20180403-10:12:02.770|56=TRAX|10=115|8=FIXT.1.1|9=63|35=0|34=236|49=PUBQA2_Verion5|52=20180403-10:12:32.771|56=TRAX|10=120|8=FIXT.1.1|9=63|35=0|34=237|49=PUBQA2_Verion5|52=20180403-10:13:02.773|56=TRAX|10=121|8=FIXT.1.1|9=63|35=0|34=238|49=PUBQA2_Verion5|52=20180403-10:13:33.763|56=TRAX|10=125|8=FIXT.1.1|9=103|35=A|34=1|49=PUBQA2_Verion5|52=20180404-09:19:41.740|56=TRAX|98=0|108=30|95=8|96=2.0.0rc4|141=Y|1137=9|10=103|8=FIXT.1.1|9=61|35=0|34=2|49=PUBQA2_Verion5|52=20180404-09:20:12.727|56=TRAX|10=020|8=FIXT.1.1|9=61|35=0|34=3|49=PUBQA2_Verion5|52=20180404-09:20:43.731|56=TRAX|10=020|8=FIXT.1.1|9=61|35=0|34=4|49=PUBQA2_Verion5|52=20180404-09:21:13.731|56=TRAX|10=019|8=FIXT.1.1|9=61|35=0|34=5|49=PUBQA2_Verion5|52=20180404-09:21:44.730|56=TRAX|10=023|8=FIXT.1.1|9=61|35=0|34=6|49=PUBQA2_Verion5|52=20180404-09:22:15.113|56=TRAX|10=018|8=FIXT.1.1|9=61|35=0|34=7|49=PUBQA2_Verion5|52=20180404-09:22:45.733|56=TRAX|10=030|8=FIXT.1.1|9=61|35=0|34=8|49=PUBQA2_Verion5|52=20180404-09:23:16.732|56=TRAX|10=029|8=FIXT.1.1|9=61|35=0|34=9|49=PUBQA2_Verion5|52=20180404-09:23:47.724|56=TRAX|10=035|8=FIXT.1.1|9=62|35=0|34=10|49=PUBQA2_Verion5|52=20180404-09:24:18.727|56=TRAX|10=078|8=FIXT.1.1|9=62|35=0|34=11|49=PUBQA2_Verion5|52=20180404-09:24:49.691|56=TRAX|10=083|8=FIXT.1.1|9=62|35=0|34=12|49=PUBQA2_Verion5|52=20180404-09:25:19.731|56=TRAX|10=077|8=FIXT.1.1|9=62|35=0|34=13|49=PUBQA2_Verion5|52=20180404-09:25:50.735|56=TRAX|10=077|8=FIXT.1.1|9=62|35=0|34=14|49=PUBQA2_Verion5|52=20180404-09:26:21.731|56=TRAX|10=073|8=FIXT.1.1|9=62|35=0|34=15|49=PUBQA2_Verion5|52=20180404-09:26:52.734|56=TRAX|10=081|8=FIXT.1.1|9=62|35=0|34=16|49=PUBQA2_Verion5|52=20180404-09:27:23.732|56=TRAX|10=079|8=FIXT.1.1|9=62|35=0|34=17|49=PUBQA2_Verion5|52=20180404-09:27:53.733|56=TRAX|10=084|8=FIXT.1.1|9=62|35=0|34=18|49=PUBQA2_Verion5|52=20180404-09:28:24.727|56=TRAX|10=087|8=FIXT.1.1|9=62|35=0|34=19|49=PUBQA2_Verion5|52=20180404-09:28:54.734|56=TRAX|10=089|8=FIXT.1.1|9=62|35=0|34=20|49=PUBQA2_Verion5|52=20180404-09:29:25.730|56=TRAX|10=076|8=FIXT.1.1|9=62|35=0|34=21|49=PUBQA2_Verion5|52=20180404-09:29:56.729|56=TRAX|10=089|8=FIXT.1.1|9=62|35=0|34=22|49=PUBQA2_Verion5|52=20180404-09:30:27.723|56=TRAX|10=074|8=FIXT.1.1|9=62|35=0|34=23|49=PUBQA2_Verion5|52=20180404-09:30:57.723|56=TRAX|10=078|8=FIXT.1.1|9=62|35=0|34=24|49=PUBQA2_Verion5|52=20180404-09:31:27.725|56=TRAX|10=079|8=FIXT.1.1|9=62|35=0|34=25|49=PUBQA2_Verion5|52=20180404-09:31:57.730|56=TRAX|10=079|8=FIXT.1.1|9=62|35=0|34=26|49=PUBQA2_Verion5|52=20180404-09:32:27.733|56=TRAX|10=081|8=FIXT.1.1|9=62|35=0|34=27|49=PUBQA2_Verion5|52=20180404-09:32:58.727|56=TRAX|10=089|8=FIXT.1.1|9=62|35=0|34=28|49=PUBQA2_Verion5|52=20180404-09:33:28.734|56=TRAX|10=086|8=FIXT.1.1|9=62|35=0|34=29|49=PUBQA2_Verion5|52=20180404-09:33:58.734|56=TRAX|10=090|8=FIXT.1.1|9=62|35=0|34=30|49=PUBQA2_Verion5|52=20180404-09:34:29.734|56=TRAX|10=081|8=FIXT.1.1|9=62|35=0|34=31|49=PUBQA2_Verion5|52=20180404-09:35:00.730|56=TRAX|10=068|8=FIXT.1.1|9=62|35=0|34=32|49=PUBQA2_Verion5|52=20180404-09:35:30.735|56=TRAX|10=077|8=FIXT.1.1|9=62|35=0|34=33|49=PUBQA2_Verion5|52=20180404-09:36:01.732|56=TRAX|10=074|8=FIXT.1.1|9=62|35=0|34=34|49=PUBQA2_Verion5|52=20180404-09:36:32.725|56=TRAX|10=081|8=FIXT.1.1|9=62|35=0|34=35|49=PUBQA2_Verion5|52=20180404-09:37:02.730|56=TRAX|10=076|8=FIXT.1.1|9=62|35=0|34=36|49=PUBQA2_Verion5|52=20180404-09:37:33.721|56=TRAX|10=081|8=FIXT.1.1|9=62|35=0|34=37|49=PUBQA2_Verion5|52=20180404-09:38:04.711|56=TRAX|10=080|8=FIXT.1.1|9=62|35=0|34=38|49=PUBQA2_Verion5|52=20180404-09:38:34.715|56=TRAX|10=088|8=FIXT.1.1|9=62|35=0|34=39|49=PUBQA2_Verion5|52=20180404-09:39:05.708|56=TRAX|10=090|8=FIXT.1.1|9=62|35=0|34=40|49=PUBQA2_Verion5|52=20180404-09:39:36.704|56=TRAX|10=082|8=FIXT.1.1|9=62|35=0|34=41|49=PUBQA2_Verion5|52=20180404-09:40:07.700|56=TRAX|10=069|8=FIXT.1.1|9=62|35=0|34=42|49=PUBQA2_Verion5|52=20180404-09:40:38.695|56=TRAX|10=087|8=FIXT.1.1|9=62|35=0|34=43|49=PUBQA2_Verion5|52=20180404-09:41:09.685|56=TRAX|10=086|8=FIXT.1.1|9=62|35=0|34=44|49=PUBQA2_Verion5|52=20180404-09:41:40.680|56=TRAX|10=077|8=FIXT.1.1|9=62|35=0|34=45|49=PUBQA2_Verion5|52=20180404-09:42:11.674|56=TRAX|10=080|8=FIXT.1.1|9=62|35=0|34=46|49=PUBQA2_Verion5|52=20180404-09:42:41.675|56=TRAX|10=085|8=FIXT.1.1|9=62|35=0|34=47|49=PUBQA2_Verion5|52=20180404-09:43:11.678|56=TRAX|10=087|8=FIXT.1.1|9=62|35=0|34=48|49=PUBQA2_Verion5|52=20180404-09:43:42.671|56=TRAX|10=085|8=FIXT.1.1|9=62|35=0|34=49|49=PUBQA2_Verion5|52=20180404-09:44:12.674|56=TRAX|10=087|8=FIXT.1.1|9=62|35=0|34=50|49=PUBQA2_Verion5|52=20180404-09:44:42.678|56=TRAX|10=086|8=FIXT.1.1|9=62|35=0|34=51|49=PUBQA2_Verion5|52=20180404-09:45:13.661|56=TRAX|10=078|8=FIXT.1.1|9=62|35=0|34=52|49=PUBQA2_Verion5|52=20180404-09:45:43.673|56=TRAX|10=085|8=FIXT.1.1|9=62|35=0|34=53|49=PUBQA2_Verion5|52=20180404-09:46:14.669|56=TRAX|10=090|8=FIXT.1.1|9=62|35=0|34=54|49=PUBQA2_Verion5|52=20180404-09:46:45.040|56=TRAX|10=078|8=FIXT.1.1|9=62|35=0|34=55|49=PUBQA2_Verion5|52=20180404-09:47:15.668|56=TRAX|10=093|8=FIXT.1.1|9=62|35=0|34=56|49=PUBQA2_Verion5|52=20180404-09:47:46.659|56=TRAX|10=098|8=FIXT.1.1|9=62|35=0|34=57|49=PUBQA2_Verion5|52=20180404-09:48:16.662|56=TRAX|10=091|8=FIXT.1.1|9=62|35=0|34=58|49=PUBQA2_Verion5|52=20180404-09:48:46.666|56=TRAX|10=099|8=FIXT.1.1|9=62|35=0|34=59|49=PUBQA2_Verion5|52=20180404-09:49:16.667|56=TRAX|10=099|8=FIXT.1.1|9=62|35=0|34=60|49=PUBQA2_Verion5|52=20180404-09:49:47.662|56=TRAX|10=090|8=FIXT.1.1|9=62|35=0|34=61|49=PUBQA2_Verion5|52=20180404-09:50:17.668|56=TRAX|10=086|8=FIXT.1.1|9=62|35=0|34=62|49=PUBQA2_Verion5|52=20180404-09:50:48.659|56=TRAX|10=091|8=FIXT.1.1|9=62|35=0|34=63|49=PUBQA2_Verion5|52=20180404-09:51:18.660|56=TRAX|10=082|8=FIXT.1.1|9=62|35=0|34=64|49=PUBQA2_Verion5|52=20180404-09:51:48.661|56=TRAX|10=087|8=FIXT.1.1|9=62|35=0|34=65|49=PUBQA2_Verion5|52=20180404-09:52:19.660|56=TRAX|10=086|8=FIXT.1.1|9=62|35=0|34=66|49=PUBQA2_Verion5|52=20180404-09:52:50.656|56=TRAX|10=087|8=FIXT.1.1|9=62|35=0|34=67|49=PUBQA2_Verion5|52=20180404-09:53:20.663|56=TRAX|10=084|8=FIXT.1.1|9=62|35=0|34=68|49=PUBQA2_Verion5|52=20180404-09:53:50.664|56=TRAX|10=089|8=FIXT.1.1|9=62|35=0|34=69|49=PUBQA2_Verion5|52=20180404-09:54:21.661|56=TRAX|10=086|8=FIXT.1.1|9=62|35=0|34=70|49=PUBQA2_Verion5|52=20180404-09:54:52.655|56=TRAX|10=085|8=FIXT.1.1|9=62|35=0|34=71|49=PUBQA2_Verion5|52=20180404-09:55:22.661|56=TRAX|10=081|8=FIXT.1.1|9=62|35=0|34=72|49=PUBQA2_Verion5|52=20180404-09:55:52.665|56=TRAX|10=089|8=FIXT.1.1|9=62|35=0|34=73|49=PUBQA2_Verion5|52=20180404-09:56:22.671|56=TRAX|10=085|8=FIXT.1.1|9=62|35=0|34=74|49=PUBQA2_Verion5|52=20180404-09:56:53.657|56=TRAX|10=094|8=FIXT.1.1|9=62|35=0|34=75|49=PUBQA2_Verion5|52=20180404-09:57:23.669|56=TRAX|10=096|8=FIXT.1.1|9=62|35=0|34=76|49=PUBQA2_Verion5|52=20180404-09:57:54.658|56=TRAX|10=099|8=FIXT.1.1|9=62|35=0|34=77|49=PUBQA2_Verion5|52=20180404-09:58:24.661|56=TRAX|10=092|8=FIXT.1.1|9=62|35=0|34=78|49=PUBQA2_Verion5|52=20180404-09:58:54.661|56=TRAX|10=096|8=FIXT.1.1|9=62|35=0|34=79|49=PUBQA2_Verion5|52=20180404-09:59:24.671|56=TRAX|10=096|8=FIXT.1.1|9=62|35=0|34=80|49=PUBQA2_Verion5|52=20180404-09:59:54.671|56=TRAX|10=091|8=FIXT.1.1|9=62|35=0|34=81|49=PUBQA2_Verion5|52=20180404-10:00:25.663|56=TRAX|10=069|8=FIXT.1.1|9=62|35=0|34=82|49=PUBQA2_Verion5|52=20180404-10:00:56.662|56=TRAX|10=073|8=FIXT.1.1|9=62|35=0|34=83|49=PUBQA2_Verion5|52=20180404-10:01:26.671|56=TRAX|10=072|8=FIXT.1.1|9=62|35=0|34=84|49=PUBQA2_Verion5|52=20180404-10:01:57.658|56=TRAX|10=082|8=FIXT.1.1|9=62|35=0|34=85|49=PUBQA2_Verion5|52=20180404-10:02:27.665|56=TRAX|10=079|8=FIXT.1.1|9=62|35=0|34=86|49=PUBQA2_Verion5|52=20180404-10:02:58.661|56=TRAX|10=080|8=FIXT.1.1|9=62|35=0|34=87|49=PUBQA2_Verion5|52=20180404-10:03:28.662|56=TRAX|10=080|8=FIXT.1.1|9=62|35=0|34=88|49=PUBQA2_Verion5|52=20180404-10:03:58.672|56=TRAX|10=085|8=FIXT.1.1|9=62|35=0|34=89|49=PUBQA2_Verion5|52=20180404-10:04:29.667|56=TRAX|10=089|8=FIXT.1.1|9=62|35=0|34=90|49=PUBQA2_Verion5|52=20180404-10:05:00.663|56=TRAX|10=067|8=FIXT.1.1|9=62|35=0|34=91|49=PUBQA2_Verion5|52=20180404-10:05:30.663|56=TRAX|10=071|8=FIXT.1.1|9=62|35=0|34=92|49=PUBQA2_Verion5|52=20180404-10:06:00.663|56=TRAX|10=070|8=FIXT.1.1|9=62|35=0|34=93|49=PUBQA2_Verion5|52=20180404-10:06:30.663|56=TRAX|10=074|8=FIXT.1.1|9=62|35=0|34=94|49=PUBQA2_Verion5|52=20180404-10:07:00.671|56=TRAX|10=072|8=FIXT.1.1|9=62|35=0|34=95|49=PUBQA2_Verion5|52=20180404-10:07:31.653|56=TRAX|10=077|8=FIXT.1.1|9=62|35=0|34=96|49=PUBQA2_Verion5|52=20180404-10:08:02.650|56=TRAX|10=074|8=FIXT.1.1|9=62|35=0|34=97|49=PUBQA2_Verion5|52=20180404-10:08:33.630|56=TRAX|10=077|8=FIXT.1.1|9=62|35=0|34=98|49=PUBQA2_Verion5|52=20180404-10:09:04.629|56=TRAX|10=085|8=FIXT.1.1|9=62|35=0|34=99|49=PUBQA2_Verion5|52=20180404-10:09:34.652|56=TRAX|10=085|8=FIXT.1.1|9=63|35=0|34=100|49=PUBQA2_Verion5|52=20180404-10:10:04.654|56=TRAX|10=108|8=FIXT.1.1|9=63|35=0|34=101|49=PUBQA2_Verion5|52=20180404-10:10:35.652|56=TRAX|10=111|8=FIXT.1.1|9=63|35=0|34=102|49=PUBQA2_Verion5|52=20180404-10:11:05.653|56=TRAX|10=111|8=FIXT.1.1|9=63|35=0|34=103|49=PUBQA2_Verion5|52=20180404-10:11:36.650|56=TRAX|10=113|8=FIXT.1.1|9=63|35=0|34=104|49=PUBQA2_Verion5|52=20180404-10:12:07.647|56=TRAX|10=119|8=FIXT.1.1|9=63|35=0|34=105|49=PUBQA2_Verion5|52=20180404-10:12:37.654|56=TRAX|10=121|8=FIXT.1.1|9=63|35=0|34=106|49=PUBQA2_Verion5|52=20180404-10:13:08.650|56=TRAX|10=117|8=FIXT.1.1|9=63|35=0|34=107|49=PUBQA2_Verion5|52=20180404-10:13:39.648|56=TRAX|10=129|8=FIXT.1.1|9=63|35=0|34=108|49=PUBQA2_Verion5|52=20180404-10:14:09.654|56=TRAX|10=125|8=FIXT.1.1|9=63|35=0|34=109|49=PUBQA2_Verion5|52=20180404-10:14:40.653|56=TRAX|10=120|8=FIXT.1.1|9=63|35=0|34=110|49=PUBQA2_Verion5|52=20180404-10:15:11.652|56=TRAX|10=110|8=FIXT.1.1|9=63|35=0|34=111|49=PUBQA2_Verion5|52=20180404-10:15:41.652|56=TRAX|10=114|8=FIXT.1.1|9=63|35=0|34=112|49=PUBQA2_Verion5|52=20180404-10:16:11.652|56=TRAX|10=113|8=FIXT.1.1|9=63|35=0|34=113|49=PUBQA2_Verion5|52=20180404-10:16:41.653|56=TRAX|10=118|8=FIXT.1.1|9=81|35=5|34=114|49=PUBQA2_Verion5|52=20180404-10:16:55.629|56=TRAX|58=user requested|10=224|8=FIXT.1.1|9=103|35=A|34=1|49=PUBQA2_Verion5|52=20180404-10:30:40.045|56=TRAX|98=0|108=30|95=8|96=2.0.0rc4|141=Y|1137=9|10=085|8=FIXT.1.1|9=61|35=0|34=2|49=PUBQA2_Verion5|52=20180404-10:31:10.045|56=TRAX|10=005|8=FIXT.1.1|9=61|35=0|34=3|49=PUBQA2_Verion5|52=20180404-10:31:41.016|56=TRAX|10=008|8=FIXT.1.1|9=61|35=0|34=4|49=PUBQA2_Verion5|52=20180404-10:32:11.055|56=TRAX|10=010|8=FIXT.1.1|9=61|35=0|34=5|49=PUBQA2_Verion5|52=20180404-10:32:42.047|56=TRAX|10=016|8=FIXT.1.1|9=61|35=0|34=6|49=PUBQA2_Verion5|52=20180404-10:33:12.051|56=TRAX|10=010|8=FIXT.1.1|9=61|35=0|34=7|49=PUBQA2_Verion5|52=20180404-10:33:43.042|56=TRAX|10=015|8=FIXT.1.1|9=61|35=0|34=8|49=PUBQA2_Verion5|52=20180404-10:34:13.043|56=TRAX|10=015|8=FIXT.1.1|9=61|35=0|34=9|49=PUBQA2_Verion5|52=20180404-10:34:43.056|56=TRAX|10=023|8=FIXT.1.1|9=62|35=0|34=10|49=PUBQA2_Verion5|52=20180404-10:35:14.031|56=TRAX|10=056|8=FIXT.1.1|9=62|35=0|34=11|49=PUBQA2_Verion5|52=20180404-10:35:44.049|56=TRAX|10=069|8=FIXT.1.1|9=62|35=0|34=12|49=PUBQA2_Verion5|52=20180404-10:36:14.049|56=TRAX|10=068|8=FIXT.1.1|9=62|35=0|34=13|49=PUBQA2_Verion5|52=20180404-10:36:44.053|56=TRAX|10=067|8=FIXT.1.1|9=413|35=AE|34=14|49=PUBQA2_Verion5|50=APA|57=APA|52=20180404-10:36:54.282|56=TRAX|571=TradeReport1|487=0|325=Y|423=22|55=[N/A]|48=DE000A2AAP11|22=4|32=869.09|31=8498.90|60=20180313-00:20:13.370|552=1|54=1|29=5|1041=PPB-1582_005|996=Bbl|997=H|1147=100088434|1934=0|1116=2|1117=05B6OC1W7N8NJQRIYS63|1118=N|1119=116|1117=05B6OC1W7N8NJQRIYS63|1118=N|1119=1|15=EUR|120=GBP|1924=1|22600=55000|22601=EUR|854=1|231=10|30=KBLM|10=236|8=FIXT.1.1|9=62|35=5|34=15|49=PUBQA2_Verion5|52=20180404-10:37:18.057|56=TRAX|10=080|8=FIXT.1.1|9=103|35=A|34=1|49=PUBQA2_Verion5|52=20180404-10:37:19.056|56=TRAX|98=0|108=30|95=8|96=2.0.0rc4|141=Y|1137=9|10=100|8=FIXT.1.1|9=61|35=0|34=2|49=PUBQA2_Verion5|52=20180404-10:37:50.045|56=TRAX|10=015|8=FIXT.1.1|9=61|35=0|34=3|49=PUBQA2_Verion5|52=20180404-10:38:20.047|56=TRAX|10=016|8=FIXT.1.1|9=79|35=5|34=4|49=PUBQA2_Verion5|52=20180404-10:38:46.015|56=TRAX|58=user requested|10=126|8=FIXT.1.1|9=103|35=A|34=1|49=PUBQA2_Verion5|52=20180404-10:39:09.267|56=TRAX|98=0|108=30|95=8|96=2.0.0rc4|141=Y|1137=9|10=105|8=FIXT.1.1|9=61|35=0|34=2|49=PUBQA2_Verion5|52=20180404-10:39:39.272|56=TRAX|10=026|8=FIXT.1.1|9=61|35=0|34=3|49=PUBQA2_Verion5|52=20180404-10:40:10.268|56=TRAX|10=013|8=FIXT.1.1|9=61|35=0|34=4|49=PUBQA2_Verion5|52=20180404-10:40:41.236|56=TRAX|10=013|8=FIXT.1.1|9=61|35=0|34=5|49=PUBQA2_Verion5|52=20180404-10:41:11.270|56=TRAX|10=010|8=FIXT.1.1|9=61|35=0|34=6|49=PUBQA2_Verion5|52=20180404-10:41:42.254|56=TRAX|10=017|8=FIXT.1.1|9=79|35=5|34=7|49=PUBQA2_Verion5|52=20180404-10:41:56.237|56=TRAX|58=user requested|10=130|8=FIXT.1.1|9=103|35=A|34=1|49=PUBQA2_Verion5|52=20180404-10:42:52.272|56=TRAX|98=0|108=30|95=8|96=2.0.0rc4|141=Y|1137=9|10=093|8=FIXT.1.1|9=61|35=0|34=2|49=PUBQA2_Verion5|52=20180404-10:43:23.271|56=TRAX|10=013|8=FIXT.1.1|9=61|35=0|34=3|49=PUBQA2_Verion5|52=20180404-10:43:54.228|56=TRAX|10=020|8=FIXT.1.1|9=61|35=0|34=4|49=PUBQA2_Verion5|52=20180404-10:44:25.228|56=TRAX|10=020|8=FIXT.1.1|9=61|35=0|34=5|49=PUBQA2_Verion5|52=20180404-10:44:55.260|56=TRAX|10=020|8=FIXT.1.1|9=61|35=0|34=6|49=PUBQA2_Verion5|52=20180404-10:45:26.255|56=TRAX|10=024|8=FIXT.1.1|9=61|35=0|34=7|49=PUBQA2_Verion5|52=20180404-10:45:56.271|56=TRAX|10=026|8=FIXT.1.1|9=61|35=0|34=8|49=PUBQA2_Verion5|52=20180404-10:46:27.267|56=TRAX|10=031|8=FIXT.1.1|9=61|35=0|34=9|49=PUBQA2_Verion5|52=20180404-10:46:58.263|56=TRAX|10=032|8=FIXT.1.1|9=62|35=0|34=10|49=PUBQA2_Verion5|52=20180404-10:47:28.267|56=TRAX|10=075|8=FIXT.1.1|9=62|35=0|34=11|49=PUBQA2_Verion5|52=20180404-10:47:59.273|56=TRAX|10=077|8=FIXT.1.1|9=62|35=0|34=12|49=PUBQA2_Verion5|52=20180404-10:48:30.264|56=TRAX|10=068|8=FIXT.1.1|9=62|35=0|34=13|49=PUBQA2_Verion5|52=20180404-10:49:00.269|56=TRAX|10=072|8=FIXT.1.1|9=62|35=0|34=14|49=PUBQA2_Verion5|52=20180404-10:49:30.272|56=TRAX|10=070|8=FIXT.1.1|9=62|35=0|34=15|49=PUBQA2_Verion5|52=20180404-10:50:01.078|56=TRAX|10=065|8=FIXT.1.1|9=62|35=0|34=16|49=PUBQA2_Verion5|52=20180404-10:50:31.107|56=TRAX|10=062|8=FIXT.1.1|9=62|35=0|34=17|49=PUBQA2_Verion5|52=20180404-10:51:01.261|56=TRAX|10=062|8=FIXT.1.1|9=62|35=0|34=18|49=PUBQA2_Verion5|52=20180404-10:51:31.270|56=TRAX|10=066|8=FIXT.1.1|9=62|35=0|34=19|49=PUBQA2_Verion5|52=20180404-10:52:01.471|56=TRAX|10=068|8=FIXT.1.1|9=62|35=0|34=20|49=PUBQA2_Verion5|52=20180404-10:52:32.275|56=TRAX|10=066|8=FIXT.1.1|9=62|35=0|34=21|49=PUBQA2_Verion5|52=20180404-10:53:03.267|56=TRAX|10=067|8=FIXT.1.1|9=62|35=0|34=22|49=PUBQA2_Verion5|52=20180404-10:53:33.267|56=TRAX|10=071|8=FIXT.1.1|9=62|35=0|34=23|49=PUBQA2_Verion5|52=20180404-10:54:04.262|56=TRAX|10=066|8=FIXT.1.1|9=62|35=0|34=24|49=PUBQA2_Verion5|52=20180404-10:54:35.234|56=TRAX|10=070|8=FIXT.1.1|9=62|35=0|34=25|49=PUBQA2_Verion5|52=20180404-10:55:05.269|56=TRAX|10=077|8=FIXT.1.1|9=62|35=0|34=26|49=PUBQA2_Verion5|52=20180404-10:55:35.274|56=TRAX|10=077|8=FIXT.1.1|9=62|35=0|34=27|49=PUBQA2_Verion5|52=20180404-10:56:05.274|56=TRAX|10=076|8=FIXT.1.1|9=62|35=0|34=28|49=PUBQA2_Verion5|52=20180404-10:56:36.230|56=TRAX|10=073|8=FIXT.1.1|9=62|35=0|34=29|49=PUBQA2_Verion5|52=20180404-10:57:06.267|56=TRAX|10=082|8=FIXT.1.1|9=62|35=0|34=30|49=PUBQA2_Verion5|52=20180404-10:57:37.273|56=TRAX|10=075|8=FIXT.1.1|9=62|35=0|34=31|49=PUBQA2_Verion5|52=20180404-10:58:08.261|56=TRAX|10=072|8=FIXT.1.1|9=62|35=0|34=32|49=PUBQA2_Verion5|52=20180404-10:58:38.270|56=TRAX|10=076|8=FIXT.1.1|9=62|35=0|34=33|49=PUBQA2_Verion5|52=20180404-10:59:09.269|56=TRAX|10=084|8=FIXT.1.1|9=62|35=0|34=34|49=PUBQA2_Verion5|52=20180404-10:59:40.266|56=TRAX|10=077|8=FIXT.1.1|9=62|35=0|34=35|49=PUBQA2_Verion5|52=20180404-11:00:10.267|56=TRAX|10=063|8=FIXT.1.1|9=62|35=0|34=36|49=PUBQA2_Verion5|52=20180404-11:00:41.263|56=TRAX|10=064|8=FIXT.1.1|9=62|35=0|34=37|49=PUBQA2_Verion5|52=20180404-11:01:11.266|56=TRAX|10=066|8=FIXT.1.1|9=62|35=0|34=38|49=PUBQA2_Verion5|52=20180404-11:01:41.271|56=TRAX|10=066|8=FIXT.1.1|9=62|35=0|34=39|49=PUBQA2_Verion5|52=20180404-11:02:12.272|56=TRAX|10=067|8=FIXT.1.1|9=62|35=0|34=40|49=PUBQA2_Verion5|52=20180404-11:02:43.265|56=TRAX|10=065|8=FIXT.1.1|9=62|35=0|34=41|49=PUBQA2_Verion5|52=20180404-11:03:14.231|56=TRAX|10=058|8=FIXT.1.1|9=62|35=0|34=42|49=PUBQA2_Verion5|52=20180404-11:03:44.231|56=TRAX|10=062|8=FIXT.1.1|9=62|35=0|34=43|49=PUBQA2_Verion5|52=20180404-11:04:14.263|56=TRAX|10=066|8=FIXT.1.1|9=62|35=0|34=44|49=PUBQA2_Verion5|52=20180404-11:04:44.263|56=TRAX|10=070|8=FIXT.1.1|9=62|35=0|34=45|49=PUBQA2_Verion5|52=20180404-11:05:15.254|56=TRAX|10=070|8=FIXT.1.1|9=62|35=0|34=46|49=PUBQA2_Verion5|52=20180404-11:05:45.267|56=TRAX|10=078|8=FIXT.1.1|9=62|35=0|34=47|49=PUBQA2_Verion5|52=20180404-11:06:15.268|56=TRAX|10=078|8=FIXT.1.1|9=62|35=0|34=48|49=PUBQA2_Verion5|52=20180404-11:06:46.268|56=TRAX|10=083|8=FIXT.1.1|9=62|35=0|34=49|49=PUBQA2_Verion5|52=20180404-11:07:17.276|56=TRAX|10=082|8=FIXT.1.1|9=62|35=0|34=50|49=PUBQA2_Verion5|52=20180404-11:07:47.276|56=TRAX|10=077|8=FIXT.1.1|9=62|35=0|34=51|49=PUBQA2_Verion5|52=20180404-11:08:17.277|56=TRAX|10=077|8=FIXT.1.1|9=62|35=0|34=52|49=PUBQA2_Verion5|52=20180404-11:08:48.273|56=TRAX|10=078|8=FIXT.1.1|9=62|35=0|34=53|49=PUBQA2_Verion5|52=20180404-11:09:19.264|56=TRAX|10=078|8=FIXT.1.1|9=62|35=0|34=54|49=PUBQA2_Verion5|52=20180404-11:09:50.269|56=TRAX|10=079|8=FIXT.1.1|9=62|35=0|34=55|49=PUBQA2_Verion5|52=20180404-11:10:20.272|56=TRAX|10=063|8=FIXT.1.1|9=62|35=0|34=56|49=PUBQA2_Verion5|52=20180404-11:10:50.277|56=TRAX|10=072|8=FIXT.1.1|9=62|35=0|34=57|49=PUBQA2_Verion5|52=20180404-11:11:21.277|56=TRAX|10=072|8=FIXT.1.1|9=62|35=0|34=58|49=PUBQA2_Verion5|52=20180404-11:11:52.278|56=TRAX|10=078|8=FIXT.1.1|9=62|35=0|34=59|49=PUBQA2_Verion5|52=20180404-11:12:23.259|56=TRAX|10=077|8=FIXT.1.1|9=62|35=0|34=60|49=PUBQA2_Verion5|52=20180404-11:12:53.263|56=TRAX|10=067|8=FIXT.1.1|9=62|35=0|34=61|49=PUBQA2_Verion5|52=20180404-11:13:23.276|56=TRAX|10=070|8=FIXT.1.1|9=62|35=0|34=62|49=PUBQA2_Verion5|52=20180404-11:13:54.260|56=TRAX|10=068|8=FIXT.1.1|9=62|35=0|34=63|49=PUBQA2_Verion5|52=20180404-11:14:24.265|56=TRAX|10=072|8=FIXT.1.1|9=62|35=0|34=64|49=PUBQA2_Verion5|52=20180404-11:14:54.270|56=TRAX|10=072|8=FIXT.1.1|9=62|35=0|34=65|49=PUBQA2_Verion5|52=20180404-11:15:25.272|56=TRAX|10=074|8=FIXT.1.1|9=62|35=0|34=66|49=PUBQA2_Verion5|52=20180404-11:15:55.276|56=TRAX|10=082|8=FIXT.1.1|9=62|35=0|34=67|49=PUBQA2_Verion5|52=20180404-11:16:26.273|56=TRAX|10=079|8=FIXT.1.1|9=62|35=0|34=68|49=PUBQA2_Verion5|52=20180404-11:16:56.273|56=TRAX|10=083|8=FIXT.1.1|9=80|35=5|34=69|49=PUBQA2_Verion5|52=20180404-11:17:02.270|56=TRAX|58=user requested|10=170|8=FIXT.1.1|9=103|35=A|34=1|49=PUBQA2_Verion5|52=20180404-11:22:51.274|56=TRAX|98=0|108=30|95=8|96=2.0.0rc4|141=Y|1137=9|10=093|8=FIXT.1.1|9=61|35=0|34=2|49=PUBQA2_Verion5|52=20180404-11:23:21.279|56=TRAX|10=018|8=FIXT.1.1|9=61|35=0|34=3|49=PUBQA2_Verion5|52=20180404-11:23:51.286|56=TRAX|10=020|8=FIXT.1.1|9=61|35=0|34=4|49=PUBQA2_Verion5|52=20180404-11:24:21.289|56=TRAX|10=022|8=FIXT.1.1|9=61|35=0|34=5|49=PUBQA2_Verion5|52=20180404-11:24:52.071|56=TRAX|10=016|8=FIXT.1.1|9=61|35=0|34=6|49=PUBQA2_Verion5|52=20180404-11:25:22.110|56=TRAX|10=009|8=FIXT.1.1|9=79|35=5|34=7|49=PUBQA2_Verion5|52=20180404-11:25:23.249|56=TRAX|58=user requested|10=130|8=FIXT.1.1|9=103|35=A|34=1|49=PUBQA2_Verion5|52=20180404-11:25:38.093|56=TRAX|98=0|108=30|95=8|96=2.0.0rc4|141=Y|1137=9|10=100|8=FIXT.1.1|9=61|35=0|34=2|49=PUBQA2_Verion5|52=20180404-11:26:08.948|56=TRAX|10=029|8=FIXT.1.1|9=61|35=0|34=3|49=PUBQA2_Verion5|52=20180404-11:26:39.087|56=TRAX|10=028|8=FIXT.1.1|9=61|35=0|34=4|49=PUBQA2_Verion5|52=20180404-11:27:09.091|56=TRAX|10=022|8=FIXT.1.1|9=61|35=0|34=5|49=PUBQA2_Verion5|52=20180404-11:27:40.086|56=TRAX|10=022|8=FIXT.1.1|9=61|35=0|34=6|49=PUBQA2_Verion5|52=20180404-11:28:10.086|56=TRAX|10=021|8=FIXT.1.1|9=61|35=0|34=7|49=PUBQA2_Verion5|52=20180404-11:28:40.089|56=TRAX|10=028|8=FIXT.1.1|9=61|35=0|34=8|49=PUBQA2_Verion5|52=20180404-11:29:11.086|56=TRAX|10=025|8=FIXT.1.1|9=61|35=0|34=9|49=PUBQA2_Verion5|52=20180404-11:29:41.087|56=TRAX|10=030|8=FIXT.1.1|9=62|35=0|34=10|49=PUBQA2_Verion5|52=20180404-11:30:11.090|56=TRAX|10=054|8=FIXT.1.1|9=62|35=0|34=11|49=PUBQA2_Verion5|52=20180404-11:30:41.097|56=TRAX|10=065|8=FIXT.1.1|9=62|35=0|34=12|49=PUBQA2_Verion5|52=20180404-11:31:12.053|56=TRAX|10=057|8=FIXT.1.1|9=62|35=0|34=13|49=PUBQA2_Verion5|52=20180404-11:31:43.052|56=TRAX|10=061|8=FIXT.1.1|9=62|35=0|34=14|49=PUBQA2_Verion5|52=20180404-11:32:13.095|56=TRAX|10=067|8=FIXT.1.1|9=62|35=0|34=15|49=PUBQA2_Verion5|52=20180404-11:32:44.081|56=TRAX|10=067|8=FIXT.1.1|9=62|35=0|34=16|49=PUBQA2_Verion5|52=20180404-11:33:14.094|56=TRAX|10=070|8=FIXT.1.1|9=62|35=0|34=17|49=PUBQA2_Verion5|52=20180404-11:33:45.090|56=TRAX|10=071|8=FIXT.1.1|9=62|35=0|34=18|49=PUBQA2_Verion5|52=20180404-11:34:16.086|56=TRAX|10=076|8=FIXT.1.1|9=62|35=0|34=19|49=PUBQA2_Verion5|52=20180404-11:34:46.094|56=TRAX|10=079|8=FIXT.1.1|9=62|35=0|34=20|49=PUBQA2_Verion5|52=20180404-11:35:16.979|56=TRAX|10=081|8=FIXT.1.1|9=62|35=0|34=21|49=PUBQA2_Verion5|52=20180404-11:35:47.089|56=TRAX|10=078|8=FIXT.1.1|9=62|35=0|34=22|49=PUBQA2_Verion5|52=20180404-11:36:17.097|56=TRAX|10=076|8=FIXT.1.1|9=62|35=0|34=23|49=PUBQA2_Verion5|52=20180404-11:36:47.097|56=TRAX|10=080|8=FIXT.1.1|9=62|35=0|34=24|49=PUBQA2_Verion5|52=20180404-11:37:18.087|56=TRAX|10=079|8=FIXT.1.1|9=62|35=0|34=25|49=PUBQA2_Verion5|52=20180404-11:37:48.092|56=TRAX|10=079|8=FIXT.1.1|9=62|35=0|34=26|49=PUBQA2_Verion5|52=20180404-11:38:19.085|56=TRAX|10=081|8=FIXT.1.1|9=62|35=0|34=27|49=PUBQA2_Verion5|52=20180404-11:38:49.096|56=TRAX|10=087|8=FIXT.1.1|9=62|35=0|34=28|49=PUBQA2_Verion5|52=20180404-11:39:20.095|56=TRAX|10=077|8=FIXT.1.1|9=62|35=0|34=29|49=PUBQA2_Verion5|52=20180404-11:39:51.084|56=TRAX|10=080|8=FIXT.1.1|9=62|35=0|34=30|49=PUBQA2_Verion5|52=20180404-11:40:21.095|56=TRAX|10=063|8=FIXT.1.1|9=62|35=0|34=31|49=PUBQA2_Verion5|52=20180404-11:40:51.095|56=TRAX|10=067|8=FIXT.1.1|9=62|35=0|34=32|49=PUBQA2_Verion5|52=20180404-11:41:22.093|56=TRAX|10=065|8=FIXT.1.1|9=62|35=0|34=33|49=PUBQA2_Verion5|52=20180404-11:41:53.086|56=TRAX|10=072|8=FIXT.1.1|9=62|35=0|34=34|49=PUBQA2_Verion5|52=20180404-11:42:24.091|56=TRAX|10=068|8=FIXT.1.1|9=62|35=0|34=35|49=PUBQA2_Verion5|52=20180404-11:42:55.086|56=TRAX|10=077|8=FIXT.1.1|9=62|35=0|34=36|49=PUBQA2_Verion5|52=20180404-11:43:25.098|56=TRAX|10=079|8=FIXT.1.1|9=62|35=0|34=37|49=PUBQA2_Verion5|52=20180404-11:43:55.099|56=TRAX|10=084|8=FIXT.1.1|9=62|35=0|34=38|49=PUBQA2_Verion5|52=20180404-11:44:26.086|56=TRAX|10=080|8=FIXT.1.1|9=62|35=0|34=39|49=PUBQA2_Verion5|52=20180404-11:44:56.093|56=TRAX|10=082|8=FIXT.1.1|9=62|35=0|34=40|49=PUBQA2_Verion5|52=20180404-11:45:27.089|56=TRAX|10=078|8=FIXT.1.1|9=62|35=0|34=41|49=PUBQA2_Verion5|52=20180404-11:45:57.097|56=TRAX|10=081|8=FIXT.1.1|9=62|35=0|34=42|49=PUBQA2_Verion5|52=20180404-11:46:28.091|56=TRAX|10=075|8=FIXT.1.1|9=62|35=0|34=43|49=PUBQA2_Verion5|52=20180404-11:46:58.094|56=TRAX|10=082|8=FIXT.1.1|9=62|35=0|34=44|49=PUBQA2_Verion5|52=20180404-11:47:28.099|56=TRAX|10=086|8=FIXT.1.1|9=62|35=0|34=45|49=PUBQA2_Verion5|52=20180404-11:47:59.078|56=TRAX|10=088|8=FIXT.1.1|9=62|35=0|34=46|49=PUBQA2_Verion5|52=20180404-11:48:29.088|56=TRAX|10=088|8=FIXT.1.1|9=62|35=0|34=47|49=PUBQA2_Verion5|52=20180404-11:48:59.100|56=TRAX|10=077|8=FIXT.1.1|9=62|35=0|34=48|49=PUBQA2_Verion5|52=20180404-11:49:30.094|56=TRAX|10=080|8=FIXT.1.1|9=62|35=0|34=49|49=PUBQA2_Verion5|52=20180404-11:50:01.061|56=TRAX|10=065|8=FIXT.1.1|9=62|35=0|34=50|49=PUBQA2_Verion5|52=20180404-11:50:31.090|56=TRAX|10=062|8=FIXT.1.1|9=62|35=0|34=51|49=PUBQA2_Verion5|52=20180404-11:51:01.095|56=TRAX|10=066|8=FIXT.1.1|9=62|35=0|34=52|49=PUBQA2_Verion5|52=20180404-11:51:32.099|56=TRAX|10=075|8=FIXT.1.1|9=62|35=0|34=53|49=PUBQA2_Verion5|52=20180404-11:52:03.101|56=TRAX|10=059|8=FIXT.1.1|9=62|35=0|34=54|49=PUBQA2_Verion5|52=20180404-11:52:34.096|56=TRAX|10=077|8=FIXT.1.1|9=62|35=0|34=55|49=PUBQA2_Verion5|52=20180404-11:53:05.094|56=TRAX|10=075|8=FIXT.1.1|9=62|35=0|34=56|49=PUBQA2_Verion5|52=20180404-11:53:35.094|56=TRAX|10=079|8=FIXT.1.1|9=62|35=0|34=57|49=PUBQA2_Verion5|52=20180404-11:54:06.098|56=TRAX|10=083|8=FIXT.1.1|9=62|35=0|34=58|49=PUBQA2_Verion5|52=20180404-11:54:37.091|56=TRAX|10=081|8=FIXT.1.1|9=62|35=0|34=59|49=PUBQA2_Verion5|52=20180404-11:55:07.095|56=TRAX|10=084|8=FIXT.1.1|9=62|35=0|34=60|49=PUBQA2_Verion5|52=20180404-11:55:38.091|56=TRAX|10=076|8=FIXT.1.1|9=62|35=0|34=61|49=PUBQA2_Verion5|52=20180404-11:56:09.090|56=TRAX|10=075|8=FIXT.1.1|9=62|35=0|34=62|49=PUBQA2_Verion5|52=20180404-11:56:40.085|56=TRAX|10=075|8=FIXT.1.1|9=62|35=0|34=63|49=PUBQA2_Verion5|52=20180404-11:57:10.086|56=TRAX|10=075|8=FIXT.1.1|9=62|35=0|34=64|49=PUBQA2_Verion5|52=20180404-11:57:41.082|56=TRAX|10=076|8=FIXT.1.1|9=62|35=0|34=65|49=PUBQA2_Verion5|52=20180404-11:58:12.072|56=TRAX|10=075|8=FIXT.1.1|9=62|35=0|34=66|49=PUBQA2_Verion5|52=20180404-11:58:42.072|56=TRAX|10=079|8=FIXT.1.1|9=62|35=0|34=67|49=PUBQA2_Verion5|52=20180404-11:59:12.081|56=TRAX|10=078|8=FIXT.1.1|9=62|35=0|34=68|49=PUBQA2_Verion5|52=20180404-11:59:43.076|56=TRAX|10=087|8=FIXT.1.1|9=62|35=0|34=69|49=PUBQA2_Verion5|52=20180404-12:00:14.072|56=TRAX|10=069|8=FIXT.1.1|9=62|35=0|34=70|49=PUBQA2_Verion5|52=20180404-12:00:44.078|56=TRAX|10=070|8=FIXT.1.1|9=62|35=0|34=71|49=PUBQA2_Verion5|52=20180404-12:01:14.079|56=TRAX|10=070|8=FIXT.1.1|9=62|35=0|34=72|49=PUBQA2_Verion5|52=20180404-12:01:45.073|56=TRAX|10=069|8=FIXT.1.1|9=62|35=0|34=73|49=PUBQA2_Verion5|52=20180404-12:02:15.081|56=TRAX|10=067|8=FIXT.1.1|9=62|35=0|34=74|49=PUBQA2_Verion5|52=20180404-12:02:46.080|56=TRAX|10=071|8=FIXT.1.1|9=62|35=0|34=75|49=PUBQA2_Verion5|52=20180404-12:03:16.080|56=TRAX|10=070|8=FIXT.1.1|9=62|35=0|34=76|49=PUBQA2_Verion5|52=20180404-12:03:46.985|56=TRAX|10=088|8=FIXT.1.1|9=62|35=0|34=77|49=PUBQA2_Verion5|52=20180404-12:04:17.074|56=TRAX|10=077|8=FIXT.1.1|9=62|35=0|34=78|49=PUBQA2_Verion5|52=20180404-12:04:48.076|56=TRAX|10=084|8=FIXT.1.1|9=62|35=0|34=79|49=PUBQA2_Verion5|52=20180404-12:05:18.080|56=TRAX|10=078|8=FIXT.1.1|9=62|35=0|34=80|49=PUBQA2_Verion5|52=20180404-12:05:49.073|56=TRAX|10=076|8=FIXT.1.1|9=62|35=0|34=81|49=PUBQA2_Verion5|52=20180404-12:06:19.081|56=TRAX|10=074|8=FIXT.1.1|9=62|35=0|34=82|49=PUBQA2_Verion5|52=20180404-12:06:49.082|56=TRAX|10=079|8=FIXT.1.1|9=62|35=0|34=83|49=PUBQA2_Verion5|52=20180404-12:07:20.067|56=TRAX|10=073|8=FIXT.1.1|9=62|35=0|34=84|49=PUBQA2_Verion5|52=20180404-12:07:50.078|56=TRAX|10=079|8=FIXT.1.1|9=62|35=0|34=85|49=PUBQA2_Verion5|52=20180404-12:08:21.082|56=TRAX|10=074|8=FIXT.1.1|9=62|35=0|34=86|49=PUBQA2_Verion5|52=20180404-12:08:52.070|56=TRAX|10=076|8=FIXT.1.1|9=62|35=0|34=87|49=PUBQA2_Verion5|52=20180404-12:09:22.072|56=TRAX|10=077|8=FIXT.1.1|9=62|35=0|34=88|49=PUBQA2_Verion5|52=20180404-12:09:52.081|56=TRAX|10=081|8=FIXT.1.1|9=62|35=0|34=89|49=PUBQA2_Verion5|52=20180404-12:10:22.081|56=TRAX|10=071|8=FIXT.1.1|9=62|35=0|34=90|49=PUBQA2_Verion5|52=20180404-12:10:53.074|56=TRAX|10=069|8=FIXT.1.1|9=62|35=0|34=91|49=PUBQA2_Verion5|52=20180404-12:11:24.075|56=TRAX|10=070|8=FIXT.1.1|9=62|35=0|34=92|49=PUBQA2_Verion5|52=20180404-12:11:54.078|56=TRAX|10=077|8=FIXT.1.1|9=62|35=0|34=93|49=PUBQA2_Verion5|52=20180404-12:12:24.080|56=TRAX|10=069|8=FIXT.1.1|9=62|35=0|34=94|49=PUBQA2_Verion5|52=20180404-12:12:55.056|56=TRAX|10=077|8=FIXT.1.1|9=62|35=0|34=95|49=PUBQA2_Verion5|52=20180404-12:13:25.076|56=TRAX|10=078|8=FIXT.1.1|9=62|35=0|34=96|49=PUBQA2_Verion5|52=20180404-12:13:55.080|56=TRAX|10=077|8=FIXT.1.1|9=62|35=0|34=97|49=PUBQA2_Verion5|52=20180404-12:14:26.077|56=TRAX|10=083|8=FIXT.1.1|9=62|35=0|34=98|49=PUBQA2_Verion5|52=20180404-12:14:56.084|56=TRAX|10=085|8=FIXT.1.1|9=62|35=0|34=99|49=PUBQA2_Verion5|52=20180404-12:15:27.074|56=TRAX|10=084|8=FIXT.1.1|9=63|35=0|34=100|49=PUBQA2_Verion5|52=20180404-12:15:57.074|56=TRAX|10=119|8=FIXT.1.1|9=63|35=0|34=101|49=PUBQA2_Verion5|52=20180404-12:16:27.083|56=TRAX|10=118|8=FIXT.1.1|9=63|35=0|34=102|49=PUBQA2_Verion5|52=20180404-12:16:58.085|56=TRAX|10=125|8=FIXT.1.1|9=63|35=0|34=103|49=PUBQA2_Verion5|52=20180404-12:17:29.086|56=TRAX|10=126|8=FIXT.1.1|9=63|35=0|34=104|49=PUBQA2_Verion5|52=20180404-12:18:00.081|56=TRAX|10=112|8=FIXT.1.1|9=63|35=0|34=105|49=PUBQA2_Verion5|52=20180404-12:18:31.079|56=TRAX|10=124|8=FIXT.1.1|9=63|35=0|34=106|49=PUBQA2_Verion5|52=20180404-12:19:01.084|56=TRAX|10=119|8=FIXT.1.1|9=63|35=0|34=107|49=PUBQA2_Verion5|52=20180404-12:19:32.087|56=TRAX|10=127|8=FIXT.1.1|9=63|35=0|34=108|49=PUBQA2_Verion5|52=20180404-12:20:03.074|56=TRAX|10=114|8=FIXT.1.1|9=63|35=0|34=109|49=PUBQA2_Verion5|52=20180404-12:20:34.079|56=TRAX|10=124|8=FIXT.1.1|9=63|35=0|34=110|49=PUBQA2_Verion5|52=20180404-12:21:04.087|56=TRAX|10=113|8=FIXT.1.1|9=63|35=0|34=111|49=PUBQA2_Verion5|52=20180404-12:21:35.084|56=TRAX|10=115|8=FIXT.1.1|9=63|35=0|34=112|49=PUBQA2_Verion5|52=20180404-12:22:06.080|56=TRAX|10=111|8=FIXT.1.1|9=63|35=0|34=113|49=PUBQA2_Verion5|52=20180404-12:22:36.088|56=TRAX|10=123|8=FIXT.1.1|9=63|35=0|34=114|49=PUBQA2_Verion5|52=20180404-12:23:07.075|56=TRAX|10=119|8=FIXT.1.1|9=63|35=0|34=115|49=PUBQA2_Verion5|52=20180404-12:23:37.081|56=TRAX|10=120|8=FIXT.1.1|9=63|35=0|34=116|49=PUBQA2_Verion5|52=20180404-12:24:07.089|56=TRAX|10=127|8=FIXT.1.1|9=63|35=0|34=117|49=PUBQA2_Verion5|52=20180404-12:24:38.076|56=TRAX|10=128|8=FIXT.1.1|9=63|35=0|34=118|49=PUBQA2_Verion5|52=20180404-12:25:08.085|56=TRAX|10=127|8=FIXT.1.1|9=63|35=0|34=119|49=PUBQA2_Verion5|52=20180404-12:25:39.084|56=TRAX|10=131|8=FIXT.1.1|9=63|35=0|34=120|49=PUBQA2_Verion5|52=20180404-12:26:10.046|56=TRAX|10=111|8=FIXT.1.1|9=63|35=0|34=121|49=PUBQA2_Verion5|52=20180404-12:26:41.045|56=TRAX|10=115|8=FIXT.1.1|9=63|35=0|34=122|49=PUBQA2_Verion5|52=20180404-12:27:12.044|56=TRAX|10=114|8=FIXT.1.1|9=63|35=0|34=123|49=PUBQA2_Verion5|52=20180404-12:27:42.076|56=TRAX|10=123|8=FIXT.1.1|9=63|35=0|34=124|49=PUBQA2_Verion5|52=20180404-12:28:13.082|56=TRAX|10=120|8=FIXT.1.1|9=63|35=0|34=125|49=PUBQA2_Verion5|52=20180404-12:28:44.077|56=TRAX|10=129|8=FIXT.1.1|9=63|35=0|34=126|49=PUBQA2_Verion5|52=20180404-12:29:14.086|56=TRAX|10=128|8=FIXT.1.1|9=63|35=0|34=127|49=PUBQA2_Verion5|52=20180404-12:29:45.081|56=TRAX|10=128|8=FIXT.1.1|9=63|35=0|34=128|49=PUBQA2_Verion5|52=20180404-12:30:16.045|56=TRAX|10=119|8=FIXT.1.1|9=63|35=0|34=129|49=PUBQA2_Verion5|52=20180404-12:30:46.083|56=TRAX|10=125|8=FIXT.1.1|9=63|35=0|34=130|49=PUBQA2_Verion5|52=20180404-12:31:16.085|56=TRAX|10=117|8=FIXT.1.1|9=63|35=0|34=131|49=PUBQA2_Verion5|52=20180404-12:31:46.946|56=TRAX|10=127|8=FIXT.1.1|9=63|35=0|34=132|49=PUBQA2_Verion5|52=20180404-12:32:16.991|56=TRAX|10=126|8=FIXT.1.1|9=63|35=0|34=133|49=PUBQA2_Verion5|52=20180404-12:32:47.084|56=TRAX|10=124|8=FIXT.1.1|9=63|35=0|34=134|49=PUBQA2_Verion5|52=20180404-12:33:18.074|56=TRAX|10=123|8=FIXT.1.1|9=63|35=0|34=135|49=PUBQA2_Verion5|52=20180404-12:33:48.074|56=TRAX|10=127|8=FIXT.1.1|9=63|35=0|34=136|49=PUBQA2_Verion5|52=20180404-12:34:18.090|56=TRAX|10=124|8=FIXT.1.1|9=63|35=0|34=137|49=PUBQA2_Verion5|52=20180404-12:34:48.090|56=TRAX|10=128|8=FIXT.1.1|9=63|35=0|34=138|49=PUBQA2_Verion5|52=20180404-12:35:19.087|56=TRAX|10=134|8=FIXT.1.1|9=63|35=0|34=139|49=PUBQA2_Verion5|52=20180404-12:35:49.089|56=TRAX|10=140|8=FIXT.1.1|9=63|35=0|34=140|49=PUBQA2_Verion5|52=20180404-12:36:20.084|56=TRAX|10=117|8=FIXT.1.1|9=63|35=0|34=141|49=PUBQA2_Verion5|52=20180404-12:36:50.086|56=TRAX|10=123|8=FIXT.1.1|9=63|35=0|34=142|49=PUBQA2_Verion5|52=20180404-12:37:21.085|56=TRAX|10=122|8=FIXT.1.1|9=63|35=0|34=143|49=PUBQA2_Verion5|52=20180404-12:37:52.087|56=TRAX|10=129|8=FIXT.1.1|9=63|35=0|34=144|49=PUBQA2_Verion5|52=20180404-12:38:23.089|56=TRAX|10=131|8=FIXT.1.1|9=63|35=0|34=145|49=PUBQA2_Verion5|52=20180404-12:38:54.080|56=TRAX|10=127|8=FIXT.1.1|9=63|35=0|34=146|49=PUBQA2_Verion5|52=20180404-12:39:24.083|56=TRAX|10=129|8=FIXT.1.1|9=63|35=0|34=147|49=PUBQA2_Verion5|52=20180404-12:39:55.087|56=TRAX|10=138|8=FIXT.1.1|9=63|35=0|34=148|49=PUBQA2_Verion5|52=20180404-12:40:26.089|56=TRAX|10=131|8=FIXT.1.1|9=63|35=0|34=149|49=PUBQA2_Verion5|52=20180404-12:40:57.077|56=TRAX|10=133|8=FIXT.1.1|9=63|35=0|34=150|49=PUBQA2_Verion5|52=20180404-12:41:27.086|56=TRAX|10=123|8=FIXT.1.1|9=63|35=0|34=151|49=PUBQA2_Verion5|52=20180404-12:41:57.088|56=TRAX|10=129|8=FIXT.1.1|9=63|35=0|34=152|49=PUBQA2_Verion5|52=20180404-12:42:28.083|56=TRAX|10=124|8=FIXT.1.1|9=63|35=0|34=153|49=PUBQA2_Verion5|52=20180404-12:42:58.089|56=TRAX|10=134|8=FIXT.1.1|9=63|35=0|34=154|49=PUBQA2_Verion5|52=20180404-12:43:28.089|56=TRAX|10=133|8=FIXT.1.1|9=63|35=0|34=155|49=PUBQA2_Verion5|52=20180404-12:43:59.094|56=TRAX|10=134|8=FIXT.1.1|9=63|35=0|34=156|49=PUBQA2_Verion5|52=20180404-12:44:30.079|56=TRAX|10=128|8=FIXT.1.1|9=63|35=0|34=157|49=PUBQA2_Verion5|52=20180404-12:45:00.079|56=TRAX|10=127|8=FIXT.1.1|9=63|35=0|34=158|49=PUBQA2_Verion5|52=20180404-12:45:30.092|56=TRAX|10=126|8=FIXT.1.1|9=63|35=0|34=159|49=PUBQA2_Verion5|52=20180404-12:46:01.090|56=TRAX|10=124|8=FIXT.1.1|9=63|35=0|34=160|49=PUBQA2_Verion5|52=20180404-12:46:31.090|56=TRAX|10=119|8=FIXT.1.1|9=63|35=0|34=161|49=PUBQA2_Verion5|52=20180404-12:47:02.090|56=TRAX|10=119|8=FIXT.1.1|9=63|35=0|34=162|49=PUBQA2_Verion5|52=20180404-12:47:33.089|56=TRAX|10=132|8=FIXT.1.1|9=63|35=0|34=163|49=PUBQA2_Verion5|52=20180404-12:48:03.096|56=TRAX|10=129|8=FIXT.1.1|9=63|35=0|34=164|49=PUBQA2_Verion5|52=20180404-12:48:34.093|56=TRAX|10=131|8=FIXT.1.1|9=63|35=0|34=165|49=PUBQA2_Verion5|52=20180404-12:49:05.087|56=TRAX|10=134|8=FIXT.1.1|9=63|35=0|34=166|49=PUBQA2_Verion5|52=20180404-12:49:35.092|56=TRAX|10=134|8=FIXT.1.1|9=63|35=0|34=167|49=PUBQA2_Verion5|52=20180404-12:50:05.095|56=TRAX|10=127|8=FIXT.1.1|9=63|35=0|34=168|49=PUBQA2_Verion5|52=20180404-12:50:36.096|56=TRAX|10=133|8=FIXT.1.1|9=63|35=0|34=169|49=PUBQA2_Verion5|52=20180404-12:51:07.092|56=TRAX|10=129|8=FIXT.1.1|9=63|35=0|34=170|49=PUBQA2_Verion5|52=20180404-12:51:37.092|56=TRAX|10=124|8=FIXT.1.1|9=63|35=0|34=171|49=PUBQA2_Verion5|52=20180404-12:52:08.095|56=TRAX|10=127|8=FIXT.1.1|9=63|35=0|34=172|49=PUBQA2_Verion5|52=20180404-12:52:39.082|56=TRAX|10=128|8=FIXT.1.1|9=81|35=5|34=173|49=PUBQA2_Verion5|52=20180404-12:53:09.082|56=TRAX|58=user requested|10=224|8=FIXT.1.1|9=103|35=A|34=1|49=PUBQA2_Verion5|52=20180404-12:53:30.191|56=TRAX|98=0|108=30|95=8|96=2.0.0rc4|141=Y|1137=9|10=093|8=FIXT.1.1|9=61|35=0|34=2|49=PUBQA2_Verion5|52=20180404-12:54:00.198|56=TRAX|10=020|8=FIXT.1.1|9=61|35=0|34=3|49=PUBQA2_Verion5|52=20180404-12:54:31.191|56=TRAX|10=018|8=FIXT.1.1|9=61|35=0|34=4|49=PUBQA2_Verion5|52=20180404-12:55:01.198|56=TRAX|10=024|8=FIXT.1.1|9=61|35=0|34=5|49=PUBQA2_Verion5|52=20180404-12:55:31.936|56=TRAX|10=028|8=FIXT.1.1|9=61|35=0|34=6|49=PUBQA2_Verion5|52=20180404-12:56:01.949|56=TRAX|10=031|8=FIXT.1.1|9=61|35=0|34=7|49=PUBQA2_Verion5|52=20180404-12:56:32.198|56=TRAX|10=032|8=FIXT.1.1|9=61|35=0|34=8|49=PUBQA2_Verion5|52=20180404-12:57:03.199|56=TRAX|10=033|8=FIXT.1.1|9=61|35=0|34=9|49=PUBQA2_Verion5|52=20180404-12:57:33.200|56=TRAX|10=020|8=FIXT.1.1|9=62|35=0|34=10|49=PUBQA2_Verion5|52=20180404-12:58:03.201|56=TRAX|10=060|8=FIXT.1.1|9=62|35=0|34=11|49=PUBQA2_Verion5|52=20180404-12:58:34.205|56=TRAX|10=069|8=FIXT.1.1|9=62|35=0|34=12|49=PUBQA2_Verion5|52=20180404-12:59:05.205|56=TRAX|10=069|8=FIXT.1.1|9=62|35=0|34=13|49=PUBQA2_Verion5|52=20180404-12:59:36.164|56=TRAX|10=078|8=FIXT.1.1|9=62|35=0|34=14|49=PUBQA2_Verion5|52=20180404-13:00:06.192|56=TRAX|10=064|8=FIXT.1.1|9=62|35=0|34=15|49=PUBQA2_Verion5|52=20180404-13:00:36.194|56=TRAX|10=070|8=FIXT.1.1|9=62|35=0|34=16|49=PUBQA2_Verion5|52=20180404-13:01:06.195|56=TRAX|10=070|8=FIXT.1.1|9=62|35=0|34=17|49=PUBQA2_Verion5|52=20180404-13:01:37.194|56=TRAX|10=074|8=FIXT.1.1|9=62|35=0|34=18|49=PUBQA2_Verion5|52=20180404-13:02:08.194|56=TRAX|10=074|8=FIXT.1.1|9=62|35=0|34=19|49=PUBQA2_Verion5|52=20180404-13:02:39.207|56=TRAX|10=074|8=FIXT.1.1|9=62|35=0|34=20|49=PUBQA2_Verion5|52=20180404-13:03:10.207|56=TRAX|10=056|8=FIXT.1.1|9=62|35=0|34=21|49=PUBQA2_Verion5|52=20180404-13:03:41.193|56=TRAX|10=065|8=FIXT.1.1|9=62|35=0|34=22|49=PUBQA2_Verion5|52=20180404-13:04:11.197|56=TRAX|10=068|8=FIXT.1.1|9=62|35=0|34=23|49=PUBQA2_Verion5|52=20180404-13:04:41.200|56=TRAX|10=057|8=FIXT.1.1|9=62|35=0|34=24|49=PUBQA2_Verion5|52=20180404-13:05:11.204|56=TRAX|10=060|8=FIXT.1.1|9=62|35=0|34=25|49=PUBQA2_Verion5|52=20180404-13:05:42.203|56=TRAX|10=064|8=FIXT.1.1|9=62|35=0|34=26|49=PUBQA2_Verion5|52=20180404-13:06:13.205|56=TRAX|10=066|8=FIXT.1.1|9=62|35=0|34=27|49=PUBQA2_Verion5|52=20180404-13:06:44.206|56=TRAX|10=072|8=FIXT.1.1|9=62|35=0|34=28|49=PUBQA2_Verion5|52=20180404-13:07:15.198|56=TRAX|10=082|8=FIXT.1.1|9=62|35=0|34=29|49=PUBQA2_Verion5|52=20180404-13:07:46.199|56=TRAX|10=088|8=FIXT.1.1|9=62|35=0|34=30|49=PUBQA2_Verion5|52=20180404-13:08:17.208|56=TRAX|10=070|8=FIXT.1.1|9=62|35=0|34=31|49=PUBQA2_Verion5|52=20180404-13:08:48.196|56=TRAX|10=081|8=FIXT.1.1|9=62|35=0|34=32|49=PUBQA2_Verion5|52=20180404-13:09:19.197|56=TRAX|10=082|8=FIXT.1.1|9=62|35=0|34=33|49=PUBQA2_Verion5|52=20180404-13:09:49.198|56=TRAX|10=087|8=FIXT.1.1|9=62|35=0|34=34|49=PUBQA2_Verion5|52=20180404-13:10:19.201|56=TRAX|10=062|8=FIXT.1.1|9=62|35=0|34=35|49=PUBQA2_Verion5|52=20180404-13:10:49.206|56=TRAX|10=071|8=FIXT.1.1|9=62|35=0|34=36|49=PUBQA2_Verion5|52=20180404-13:11:20.208|56=TRAX|10=064|8=FIXT.1.1|9=62|35=0|34=37|49=PUBQA2_Verion5|52=20180404-13:11:50.208|56=TRAX|10=068|8=FIXT.1.1|9=62|35=0|34=38|49=PUBQA2_Verion5|52=20180404-13:12:20.209|56=TRAX|10=068|8=FIXT.1.1|9=62|35=0|34=39|49=PUBQA2_Verion5|52=20180404-13:12:51.205|56=TRAX|10=069|8=FIXT.1.1|9=62|35=0|34=40|49=PUBQA2_Verion5|52=20180404-13:13:21.205|56=TRAX|10=059|8=FIXT.1.1|9=62|35=0|34=41|49=PUBQA2_Verion5|52=20180404-13:13:52.201|56=TRAX|10=060|8=FIXT.1.1|9=62|35=0|34=42|49=PUBQA2_Verion5|52=20180404-13:14:23.198|56=TRAX|10=075|8=FIXT.1.1|9=62|35=0|34=43|49=PUBQA2_Verion5|52=20180404-13:14:53.207|56=TRAX|10=070|8=FIXT.1.1|9=62|35=0|34=44|49=PUBQA2_Verion5|52=20180404-13:15:23.210|56=TRAX|10=063|8=FIXT.1.1|9=62|35=0|34=45|49=PUBQA2_Verion5|52=20180404-13:15:54.196|56=TRAX|10=081|8=FIXT.1.1|9=62|35=0|34=46|49=PUBQA2_Verion5|52=20180404-13:16:24.196|56=TRAX|10=080|8=FIXT.1.1|9=62|35=0|34=47|49=PUBQA2_Verion5|52=20180404-13:16:55.188|56=TRAX|10=086|8=FIXT.1.1|9=62|35=0|34=48|49=PUBQA2_Verion5|52=20180404-13:17:25.209|56=TRAX|10=079|8=FIXT.1.1|9=62|35=0|34=49|49=PUBQA2_Verion5|52=20180404-13:17:55.209|56=TRAX|10=083|8=FIXT.1.1|9=62|35=0|34=50|49=PUBQA2_Verion5|52=20180404-13:18:26.204|56=TRAX|10=069|8=FIXT.1.1|9=62|35=0|34=51|49=PUBQA2_Verion5|52=20180404-13:18:56.209|56=TRAX|10=078|8=FIXT.1.1|9=62|35=0|34=52|49=PUBQA2_Verion5|52=20180404-13:19:27.196|56=TRAX|10=083|8=FIXT.1.1|9=62|35=0|34=53|49=PUBQA2_Verion5|52=20180404-13:19:58.190|56=TRAX|10=082|8=FIXT.1.1|9=62|35=0|34=54|49=PUBQA2_Verion5|52=20180404-13:20:28.202|56=TRAX|10=066|8=FIXT.1.1|9=62|35=0|34=55|49=PUBQA2_Verion5|52=20180404-13:20:58.211|56=TRAX|10=070|8=FIXT.1.1|9=62|35=0|34=56|49=PUBQA2_Verion5|52=20180404-13:21:29.204|56=TRAX|10=072|8=FIXT.1.1|9=62|35=0|34=57|49=PUBQA2_Verion5|52=20180404-13:22:00.197|56=TRAX|10=074|8=FIXT.1.1|9=62|35=0|34=58|49=PUBQA2_Verion5|52=20180404-13:22:30.207|56=TRAX|10=070|8=FIXT.1.1|9=62|35=0|34=59|49=PUBQA2_Verion5|52=20180404-13:23:01.210|56=TRAX|10=064|8=FIXT.1.1|9=62|35=0|34=60|49=PUBQA2_Verion5|52=20180404-13:23:31.931|56=TRAX|10=069|8=FIXT.1.1|9=62|35=0|34=61|49=PUBQA2_Verion5|52=20180404-13:24:01.951|56=TRAX|10=070|8=FIXT.1.1|9=62|35=0|34=62|49=PUBQA2_Verion5|52=20180404-13:24:32.206|56=TRAX|10=068|8=FIXT.1.1|9=62|35=0|34=63|49=PUBQA2_Verion5|52=20180404-13:25:02.208|56=TRAX|10=069|8=FIXT.1.1|9=62|35=0|34=64|49=PUBQA2_Verion5|52=20180404-13:25:33.201|56=TRAX|10=067|8=FIXT.1.1|9=62|35=0|34=65|49=PUBQA2_Verion5|52=20180404-13:26:03.207|56=TRAX|10=072|8=FIXT.1.1|9=62|35=0|34=66|49=PUBQA2_Verion5|52=20180404-13:26:34.211|56=TRAX|10=072|8=FIXT.1.1|9=62|35=0|34=67|49=PUBQA2_Verion5|52=20180404-13:27:05.212|56=TRAX|10=073|8=FIXT.1.1|9=62|35=0|34=68|49=PUBQA2_Verion5|52=20180404-13:27:36.205|56=TRAX|10=080|8=FIXT.1.1|9=62|35=0|34=69|49=PUBQA2_Verion5|52=20180404-13:28:07.211|56=TRAX|10=077|8=FIXT.1.1|9=62|35=0|34=70|49=PUBQA2_Verion5|52=20180404-13:28:37.211|56=TRAX|10=072|8=FIXT.1.1|9=62|35=0|34=71|49=PUBQA2_Verion5|52=20180404-13:29:07.212|56=TRAX|10=072|8=FIXT.1.1|9=62|35=0|34=72|49=PUBQA2_Verion5|52=20180404-13:29:38.210|56=TRAX|10=075|8=FIXT.1.1|9=62|35=0|34=73|49=PUBQA2_Verion5|52=20180404-13:30:09.199|56=TRAX|10=082|8=FIXT.1.1|9=62|35=0|34=74|49=PUBQA2_Verion5|52=20180404-13:30:39.207|56=TRAX|10=076|8=FIXT.1.1|9=62|35=0|34=75|49=PUBQA2_Verion5|52=20180404-13:31:10.201|56=TRAX|10=061|8=FIXT.1.1|9=62|35=0|34=76|49=PUBQA2_Verion5|52=20180404-13:31:41.206|56=TRAX|10=071|8=FIXT.1.1|9=62|35=0|34=77|49=PUBQA2_Verion5|52=20180404-13:32:11.211|56=TRAX|10=066|8=FIXT.1.1|9=62|35=0|34=78|49=PUBQA2_Verion5|52=20180404-13:32:42.204|56=TRAX|10=073|8=FIXT.1.1|9=62|35=0|34=79|49=PUBQA2_Verion5|52=20180404-13:33:13.208|56=TRAX|10=077|8=FIXT.1.1|9=62|35=0|34=80|49=PUBQA2_Verion5|52=20180404-13:33:43.212|56=TRAX|10=067|8=FIXT.1.1|9=62|35=0|34=81|49=PUBQA2_Verion5|52=20180404-13:34:14.211|56=TRAX|10=066|8=FIXT.1.1|9=62|35=0|34=82|49=PUBQA2_Verion5|52=20180404-13:34:45.208|56=TRAX|10=077|8=FIXT.1.1|9=62|35=0|34=83|49=PUBQA2_Verion5|52=20180404-13:35:16.204|56=TRAX|10=073|8=FIXT.1.1|9=62|35=0|34=84|49=PUBQA2_Verion5|52=20180404-13:35:46.214|56=TRAX|10=078|8=FIXT.1.1|9=62|35=0|34=85|49=PUBQA2_Verion5|52=20180404-13:36:17.201|56=TRAX|10=074|8=FIXT.1.1|9=62|35=0|34=86|49=PUBQA2_Verion5|52=20180404-13:36:47.215|56=TRAX|10=083|8=FIXT.1.1|9=62|35=0|34=87|49=PUBQA2_Verion5|52=20180404-13:37:18.200|56=TRAX|10=077|8=FIXT.1.1|9=62|35=0|34=88|49=PUBQA2_Verion5|52=20180404-13:37:48.211|56=TRAX|10=083|8=FIXT.1.1|9=62|35=0|34=89|49=PUBQA2_Verion5|52=20180404-13:38:19.211|56=TRAX|10=083|8=FIXT.1.1|9=62|35=0|34=90|49=PUBQA2_Verion5|52=20180404-13:38:50.193|56=TRAX|10=079|8=FIXT.1.1|9=62|35=0|34=91|49=PUBQA2_Verion5|52=20180404-13:39:21.197|56=TRAX|10=083|8=FIXT.1.1|9=62|35=0|34=92|49=PUBQA2_Verion5|52=20180404-13:39:52.190|56=TRAX|10=081|8=FIXT.1.1|9=62|35=0|34=93|49=PUBQA2_Verion5|52=20180404-13:40:22.191|56=TRAX|10=072|8=FIXT.1.1|9=62|35=0|34=94|49=PUBQA2_Verion5|52=20180404-13:40:52.191|56=TRAX|10=076|8=FIXT.1.1|9=62|35=0|34=95|49=PUBQA2_Verion5|52=20180404-13:41:22.191|56=TRAX|10=075|8=FIXT.1.1|9=62|35=0|34=96|49=PUBQA2_Verion5|52=20180404-13:41:52.199|56=TRAX|10=087|8=FIXT.1.1|9=62|35=0|34=97|49=PUBQA2_Verion5|52=20180404-13:42:23.191|56=TRAX|10=079|8=FIXT.1.1|9=62|35=0|34=98|49=PUBQA2_Verion5|52=20180404-13:42:53.191|56=TRAX|10=083|8=FIXT.1.1|9=62|35=0|34=99|49=PUBQA2_Verion5|52=20180404-13:43:23.192|56=TRAX|10=083|8=FIXT.1.1|9=63|35=0|34=100|49=PUBQA2_Verion5|52=20180404-13:43:53.197|56=TRAX|10=123|8=FIXT.1.1|9=63|35=0|34=101|49=PUBQA2_Verion5|52=20180404-13:44:23.197|56=TRAX|10=122|8=FIXT.1.1|9=63|35=0|34=102|49=PUBQA2_Verion5|52=20180404-13:44:53.199|56=TRAX|10=128|8=FIXT.1.1|9=63|35=0|34=103|49=PUBQA2_Verion5|52=20180404-13:45:24.197|56=TRAX|10=126|8=FIXT.1.1|9=63|35=0|34=104|49=PUBQA2_Verion5|52=20180404-13:45:55.197|56=TRAX|10=131|8=FIXT.1.1|9=63|35=0|34=105|49=PUBQA2_Verion5|52=20180404-13:46:26.173|56=TRAX|10=125|8=FIXT.1.1|9=63|35=0|34=106|49=PUBQA2_Verion5|52=20180404-13:46:56.196|56=TRAX|10=134|8=FIXT.1.1|9=63|35=0|34=107|49=PUBQA2_Verion5|52=20180404-13:47:27.195|56=TRAX|10=133|8=FIXT.1.1|9=63|35=0|34=108|49=PUBQA2_Verion5|52=20180404-13:47:58.191|56=TRAX|10=134|8=FIXT.1.1|9=63|35=0|34=109|49=PUBQA2_Verion5|52=20180404-13:48:28.196|56=TRAX|10=138|8=FIXT.1.1|9=63|35=0|34=110|49=PUBQA2_Verion5|52=20180404-13:48:59.196|56=TRAX|10=134|8=FIXT.1.1|9=63|35=0|34=111|49=PUBQA2_Verion5|52=20180404-13:49:29.196|56=TRAX|10=133|8=FIXT.1.1|9=63|35=0|34=112|49=PUBQA2_Verion5|52=20180404-13:50:00.174|56=TRAX|10=111|8=FIXT.1.1|9=63|35=0|34=113|49=PUBQA2_Verion5|52=20180404-13:50:31.173|56=TRAX|10=115|8=FIXT.1.1|9=63|35=0|34=114|49=PUBQA2_Verion5|52=20180404-13:51:02.172|56=TRAX|10=114|8=FIXT.1.1|9=63|35=0|34=115|49=PUBQA2_Verion5|52=20180404-13:51:33.170|56=TRAX|10=117|8=FIXT.1.1|9=63|35=0|34=116|49=PUBQA2_Verion5|52=20180404-13:52:03.170|56=TRAX|10=116|8=FIXT.1.1|9=63|35=0|34=117|49=PUBQA2_Verion5|52=20180404-13:52:33.187|56=TRAX|10=128|8=FIXT.1.1|9=63|35=0|34=118|49=PUBQA2_Verion5|52=20180404-13:53:03.187|56=TRAX|10=127|8=FIXT.1.1|9=63|35=0|34=119|49=PUBQA2_Verion5|52=20180404-13:53:33.187|56=TRAX|10=131|8=FIXT.1.1|9=63|35=0|34=120|49=PUBQA2_Verion5|52=20180404-13:54:03.199|56=TRAX|10=124|8=FIXT.1.1|9=63|35=0|34=121|49=PUBQA2_Verion5|52=20180404-13:54:34.210|56=TRAX|10=113|8=FIXT.1.1|9=63|35=0|34=122|49=PUBQA2_Verion5|52=20180404-13:55:05.206|56=TRAX|10=118|8=FIXT.1.1|9=63|35=0|34=123|49=PUBQA2_Verion5|52=20180404-13:55:35.212|56=TRAX|10=119|8=FIXT.1.1|9=63|35=0|34=124|49=PUBQA2_Verion5|52=20180404-13:56:06.169|56=TRAX|10=130|8=FIXT.1.1|9=63|35=0|34=125|49=PUBQA2_Verion5|52=20180404-13:56:36.203|56=TRAX|10=123|8=FIXT.1.1|9=63|35=0|34=126|49=PUBQA2_Verion5|52=20180404-13:57:07.209|56=TRAX|10=129|8=FIXT.1.1|9=63|35=0|34=127|49=PUBQA2_Verion5|52=20180404-13:57:37.209|56=TRAX|10=133|8=FIXT.1.1|9=63|35=0|34=128|49=PUBQA2_Verion5|52=20180404-13:58:07.209|56=TRAX|10=132|8=FIXT.1.1|9=63|35=0|34=129|49=PUBQA2_Verion5|52=20180404-13:58:37.210|56=TRAX|10=128|8=FIXT.1.1|9=63|35=0|34=130|49=PUBQA2_Verion5|52=20180404-13:59:07.211|56=TRAX|10=119|8=FIXT.1.1|9=63|35=0|34=131|49=PUBQA2_Verion5|52=20180404-13:59:38.200|56=TRAX|10=122|8=FIXT.1.1|9=63|35=0|34=132|49=PUBQA2_Verion5|52=20180404-14:00:08.202|56=TRAX|10=109|8=FIXT.1.1|9=63|35=0|34=133|49=PUBQA2_Verion5|52=20180404-14:00:38.210|56=TRAX|10=112|8=FIXT.1.1|9=63|35=0|34=134|49=PUBQA2_Verion5|52=20180404-14:01:09.215|56=TRAX|10=117|8=FIXT.1.1|9=63|35=0|34=135|49=PUBQA2_Verion5|52=20180404-14:01:40.212|56=TRAX|10=110|8=FIXT.1.1|9=63|35=0|34=136|49=PUBQA2_Verion5|52=20180404-14:02:11.206|56=TRAX|10=113|8=FIXT.1.1|9=63|35=0|34=137|49=PUBQA2_Verion5|52=20180404-14:02:42.201|56=TRAX|10=113|8=FIXT.1.1|9=63|35=0|34=138|49=PUBQA2_Verion5|52=20180404-14:03:12.201|56=TRAX|10=112|8=FIXT.1.1|9=63|35=0|34=139|49=PUBQA2_Verion5|52=20180404-14:03:42.206|56=TRAX|10=121|8=FIXT.1.1|9=63|35=0|34=140|49=PUBQA2_Verion5|52=20180404-14:04:13.211|56=TRAX|10=108|8=FIXT.1.1|9=63|35=0|34=141|49=PUBQA2_Verion5|52=20180404-14:04:44.201|56=TRAX|10=112|8=FIXT.1.1|9=63|35=0|34=142|49=PUBQA2_Verion5|52=20180404-14:05:14.210|56=TRAX|10=111|8=FIXT.1.1|9=63|35=0|34=143|49=PUBQA2_Verion5|52=20180404-14:05:45.214|56=TRAX|10=120|8=FIXT.1.1|9=63|35=0|34=144|49=PUBQA2_Verion5|52=20180404-14:06:16.213|56=TRAX|10=119|8=FIXT.1.1|9=63|35=0|34=145|49=PUBQA2_Verion5|52=20180404-14:06:46.214|56=TRAX|10=124|8=FIXT.1.1|9=63|35=0|34=146|49=PUBQA2_Verion5|52=20180404-14:07:17.216|56=TRAX|10=126|8=FIXT.1.1|9=63|35=0|34=147|49=PUBQA2_Verion5|52=20180404-14:07:48.202|56=TRAX|10=126|8=FIXT.1.1|9=63|35=0|34=148|49=PUBQA2_Verion5|52=20180404-14:08:18.208|56=TRAX|10=131|8=FIXT.1.1|9=63|35=0|34=149|49=PUBQA2_Verion5|52=20180404-14:08:48.214|56=TRAX|10=132|8=FIXT.1.1|9=63|35=0|34=150|49=PUBQA2_Verion5|52=20180404-14:09:19.197|56=TRAX|10=133|8=FIXT.1.1|9=63|35=0|34=151|49=PUBQA2_Verion5|52=20180404-14:09:49.214|56=TRAX|10=127|8=FIXT.1.1|9=63|35=0|34=152|49=PUBQA2_Verion5|52=20180404-14:10:19.215|56=TRAX|10=118|8=FIXT.1.1|9=63|35=0|34=153|49=PUBQA2_Verion5|52=20180404-14:10:50.215|56=TRAX|10=114|8=FIXT.1.1|9=63|35=0|34=154|49=PUBQA2_Verion5|52=20180404-14:11:20.215|56=TRAX|10=113|8=FIXT.1.1|9=63|35=0|34=155|49=PUBQA2_Verion5|52=20180404-14:11:50.215|56=TRAX|10=117|8=FIXT.1.1|9=63|35=0|34=156|49=PUBQA2_Verion5|52=20180404-14:12:20.219|56=TRAX|10=120|8=FIXT.1.1|9=63|35=0|34=157|49=PUBQA2_Verion5|52=20180404-14:12:51.205|56=TRAX|10=120|8=FIXT.1.1|9=63|35=0|34=158|49=PUBQA2_Verion5|52=20180404-14:13:21.217|56=TRAX|10=122|8=FIXT.1.1|9=63|35=0|34=159|49=PUBQA2_Verion5|52=20180404-14:13:51.220|56=TRAX|10=120|8=FIXT.1.1|9=63|35=0|34=160|49=PUBQA2_Verion5|52=20180404-14:14:22.211|56=TRAX|10=111|8=FIXT.1.1|9=63|35=0|34=161|49=PUBQA2_Verion5|52=20180404-14:14:53.219|56=TRAX|10=124|8=FIXT.1.1|9=63|35=0|34=162|49=PUBQA2_Verion5|52=20180404-14:15:24.208|56=TRAX|10=122|8=FIXT.1.1|9=63|35=0|34=163|49=PUBQA2_Verion5|52=20180404-14:15:55.218|56=TRAX|10=128|8=FIXT.1.1|9=63|35=0|34=164|49=PUBQA2_Verion5|52=20180404-14:16:26.214|56=TRAX|10=124|8=FIXT.1.1|9=63|35=0|34=165|49=PUBQA2_Verion5|52=20180404-14:16:56.219|56=TRAX|10=133|8=FIXT.1.1|9=63|35=0|34=166|49=PUBQA2_Verion5|52=20180404-14:17:27.206|56=TRAX|10=129|8=FIXT.1.1|9=63|35=0|34=167|49=PUBQA2_Verion5|52=20180404-14:17:58.207|56=TRAX|10=135|8=FIXT.1.1|9=63|35=0|34=168|49=PUBQA2_Verion5|52=20180404-14:18:29.210|56=TRAX|10=129|8=FIXT.1.1|9=63|35=0|34=169|49=PUBQA2_Verion5|52=20180404-14:18:59.220|56=TRAX|10=134|8=FIXT.1.1|9=63|35=0|34=170|49=PUBQA2_Verion5|52=20180404-14:19:29.220|56=TRAX|10=124|8=FIXT.1.1|9=63|35=0|34=171|49=PUBQA2_Verion5|52=20180404-14:20:00.199|56=TRAX|10=121|8=FIXT.1.1|9=63|35=0|34=172|49=PUBQA2_Verion5|52=20180404-14:20:31.177|56=TRAX|10=122|8=FIXT.1.1|9=63|35=0|34=173|49=PUBQA2_Verion5|52=20180404-14:21:01.210|56=TRAX|10=109|8=FIXT.1.1|9=63|35=0|34=174|49=PUBQA2_Verion5|52=20180404-14:21:31.216|56=TRAX|10=119|8=FIXT.1.1|9=63|35=0|34=175|49=PUBQA2_Verion5|52=20180404-14:22:02.220|56=TRAX|10=114|8=FIXT.1.1|9=63|35=0|34=176|49=PUBQA2_Verion5|52=20180404-14:22:33.208|56=TRAX|10=125|8=FIXT.1.1|9=63|35=0|34=177|49=PUBQA2_Verion5|52=20180404-14:23:03.213|56=TRAX|10=120|8=FIXT.1.1|9=63|35=0|34=178|49=PUBQA2_Verion5|52=20180404-14:23:34.220|56=TRAX|10=123|8=FIXT.1.1|9=63|35=0|34=179|49=PUBQA2_Verion5|52=20180404-14:24:04.222|56=TRAX|10=124|8=FIXT.1.1|9=63|35=0|34=180|49=PUBQA2_Verion5|52=20180404-14:24:35.179|56=TRAX|10=131|8=FIXT.1.1|9=63|35=0|34=181|49=PUBQA2_Verion5|52=20180404-14:25:05.220|56=TRAX|10=117|8=FIXT.1.1|9=63|35=0|34=182|49=PUBQA2_Verion5|52=20180404-14:25:36.209|56=TRAX|10=129|8=FIXT.1.1|9=63|35=0|34=183|49=PUBQA2_Verion5|52=20180404-14:26:06.210|56=TRAX|10=120|8=FIXT.1.1|9=63|35=0|34=184|49=PUBQA2_Verion5|52=20180404-14:26:36.222|56=TRAX|10=127|8=FIXT.1.1|9=63|35=0|34=185|49=PUBQA2_Verion5|52=20180404-14:27:06.223|56=TRAX|10=127|8=FIXT.1.1|9=63|35=0|34=186|49=PUBQA2_Verion5|52=20180404-14:27:37.221|56=TRAX|10=130|8=FIXT.1.1|9=63|35=0|34=187|49=PUBQA2_Verion5|52=20180404-14:28:08.215|56=TRAX|10=133|8=FIXT.1.1|9=63|35=0|34=188|49=PUBQA2_Verion5|52=20180404-14:28:38.217|56=TRAX|10=139|8=FIXT.1.1|9=63|35=0|34=189|49=PUBQA2_Verion5|52=20180404-14:29:08.222|56=TRAX|10=134|8=FIXT.1.1|9=63|35=0|34=190|49=PUBQA2_Verion5|52=20180404-14:29:39.212|56=TRAX|10=129|8=FIXT.1.1|9=63|35=0|34=191|49=PUBQA2_Verion5|52=20180404-14:30:10.181|56=TRAX|10=116|8=FIXT.1.1|9=63|35=0|34=192|49=PUBQA2_Verion5|52=20180404-14:30:40.181|56=TRAX|10=120|8=FIXT.1.1|9=63|35=0|34=193|49=PUBQA2_Verion5|52=20180404-14:31:10.220|56=TRAX|10=113|8=FIXT.1.1|9=63|35=0|34=194|49=PUBQA2_Verion5|52=20180404-14:31:41.217|56=TRAX|10=124|8=FIXT.1.1|9=63|35=0|34=195|49=PUBQA2_Verion5|52=20180404-14:32:11.220|56=TRAX|10=117|8=FIXT.1.1|9=63|35=0|34=196|49=PUBQA2_Verion5|52=20180404-14:32:42.225|56=TRAX|10=127|8=FIXT.1.1|9=63|35=0|34=197|49=PUBQA2_Verion5|52=20180404-14:33:13.222|56=TRAX|10=124|8=FIXT.1.1|9=63|35=0|34=198|49=PUBQA2_Verion5|52=20180404-14:33:43.224|56=TRAX|10=130|8=FIXT.1.1|9=63|35=0|34=199|49=PUBQA2_Verion5|52=20180404-14:34:14.213|56=TRAX|10=128|8=FIXT.1.1|9=63|35=0|34=200|49=PUBQA2_Verion5|52=20180404-14:34:44.225|56=TRAX|10=117|8=FIXT.1.1|9=63|35=0|34=201|49=PUBQA2_Verion5|52=20180404-14:35:15.182|56=TRAX|10=119|8=FIXT.1.1|9=63|35=0|34=202|49=PUBQA2_Verion5|52=20180404-14:35:45.216|56=TRAX|10=121|8=FIXT.1.1|9=63|35=0|34=203|49=PUBQA2_Verion5|52=20180404-14:36:16.214|56=TRAX|10=119|8=FIXT.1.1|9=63|35=0|34=204|49=PUBQA2_Verion5|52=20180404-14:36:47.224|56=TRAX|10=125|8=FIXT.1.1|9=63|35=0|34=205|49=PUBQA2_Verion5|52=20180404-14:37:18.211|56=TRAX|10=121|8=FIXT.1.1|9=63|35=0|34=206|49=PUBQA2_Verion5|52=20180404-14:37:48.216|56=TRAX|10=130|8=FIXT.1.1|9=63|35=0|34=207|49=PUBQA2_Verion5|52=20180404-14:38:18.218|56=TRAX|10=131|8=FIXT.1.1|9=81|35=5|34=208|49=PUBQA2_Verion5|52=20180404-14:38:40.225|56=TRAX|58=user requested|10=222|8=FIXT.1.1|9=103|35=A|34=1|49=PUBQA2_Verion5|52=20180405-11:51:35.260|56=TRAX|98=0|108=30|95=8|96=2.0.0rc4|141=Y|1137=9|10=093|8=FIXT.1.1|9=61|35=0|34=2|49=PUBQA2_Verion5|52=20180405-11:52:06.237|56=TRAX|10=018|8=FIXT.1.1|9=61|35=0|34=3|49=PUBQA2_Verion5|52=20180405-11:52:36.251|56=TRAX|10=018|8=FIXT.1.1|9=61|35=0|34=4|49=PUBQA2_Verion5|52=20180405-11:53:07.248|56=TRAX|10=024|8=FIXT.1.1|9=61|35=0|34=5|49=PUBQA2_Verion5|52=20180405-11:53:37.248|56=TRAX|10=028|8=FIXT.1.1|9=61|35=0|34=6|49=PUBQA2_Verion5|52=20180405-11:54:07.289|56=TRAX|10=032|8=FIXT.1.1|9=61|35=0|34=7|49=PUBQA2_Verion5|52=20180405-11:54:38.239|56=TRAX|10=032|8=FIXT.1.1|9=61|35=0|34=8|49=PUBQA2_Verion5|52=20180405-11:55:08.247|56=TRAX|10=030|8=FIXT.1.1|9=61|35=0|34=9|49=PUBQA2_Verion5|52=20180405-11:55:39.244|56=TRAX|10=032|8=FIXT.1.1|9=62|35=0|34=10|49=PUBQA2_Verion5|52=20180405-11:56:10.245|56=TRAX|10=064|8=FIXT.1.1|9=62|35=0|34=11|49=PUBQA2_Verion5|52=20180405-11:56:41.244|56=TRAX|10=068|8=FIXT.1.1|9=62|35=0|34=12|49=PUBQA2_Verion5|52=20180405-11:57:11.252|56=TRAX|10=066|8=FIXT.1.1|9=62|35=0|34=13|49=PUBQA2_Verion5|52=20180405-11:57:41.252|56=TRAX|10=070|8=FIXT.1.1|9=62|35=0|34=14|49=PUBQA2_Verion5|52=20180405-11:58:12.241|56=TRAX|10=068|8=FIXT.1.1|9=62|35=0|34=15|49=PUBQA2_Verion5|52=20180405-11:58:43.240|56=TRAX|10=072|8=FIXT.1.1|9=62|35=0|34=16|49=PUBQA2_Verion5|52=20180405-11:59:13.251|56=TRAX|10=073|8=FIXT.1.1|9=62|35=0|34=17|49=PUBQA2_Verion5|52=20180405-11:59:44.231|56=TRAX|10=076|8=FIXT.1.1|9=62|35=0|34=18|49=PUBQA2_Verion5|52=20180405-12:00:14.240|56=TRAX|10=061|8=FIXT.1.1|9=62|35=0|34=19|49=PUBQA2_Verion5|52=20180405-12:00:44.253|56=TRAX|10=069|8=FIXT.1.1|9=62|35=0|34=20|49=PUBQA2_Verion5|52=20180405-12:01:15.252|56=TRAX|10=059|8=FIXT.1.1|9=62|35=0|34=21|49=PUBQA2_Verion5|52=20180405-12:01:46.240|56=TRAX|10=061|8=FIXT.1.1|9=62|35=0|34=22|49=PUBQA2_Verion5|52=20180405-12:02:16.250|56=TRAX|10=061|8=FIXT.1.1|9=62|35=0|34=23|49=PUBQA2_Verion5|52=20180405-12:02:47.232|56=TRAX|10=066|8=FIXT.1.1|9=62|35=0|34=24|49=PUBQA2_Verion5|52=20180405-12:03:17.245|56=TRAX|10=069|8=FIXT.1.1|9=62|35=0|34=25|49=PUBQA2_Verion5|52=20180405-12:03:47.247|56=TRAX|10=075|8=FIXT.1.1|9=62|35=0|34=26|49=PUBQA2_Verion5|52=20180405-12:04:18.211|56=TRAX|10=066|8=FIXT.1.1|9=62|35=0|34=27|49=PUBQA2_Verion5|52=20180405-12:04:48.249|56=TRAX|10=081|8=FIXT.1.1|9=62|35=0|34=28|49=PUBQA2_Verion5|52=20180405-12:05:19.238|56=TRAX|10=079|8=FIXT.1.1|9=62|35=0|34=29|49=PUBQA2_Verion5|52=20180405-12:05:50.245|56=TRAX|10=073|8=FIXT.1.1|9=62|35=0|34=30|49=PUBQA2_Verion5|52=20180405-12:06:20.246|56=TRAX|10=064|8=FIXT.1.1|9=62|35=0|34=31|49=PUBQA2_Verion5|52=20180405-12:06:51.239|56=TRAX|10=071|8=FIXT.1.1|9=62|35=0|34=32|49=PUBQA2_Verion5|52=20180405-12:07:21.241|56=TRAX|10=063|8=FIXT.1.1|9=62|35=0|34=33|49=PUBQA2_Verion5|52=20180405-12:07:51.247|56=TRAX|10=073|8=FIXT.1.1|9=62|35=0|34=34|49=PUBQA2_Verion5|52=20180405-12:08:22.251|56=TRAX|10=068|8=FIXT.1.1|9=62|35=0|34=35|49=PUBQA2_Verion5|52=20180405-12:08:53.253|56=TRAX|10=075|8=FIXT.1.1|9=62|35=0|34=36|49=PUBQA2_Verion5|52=20180405-12:09:24.241|56=TRAX|10=072|8=FIXT.1.1|9=62|35=0|34=37|49=PUBQA2_Verion5|52=20180405-12:09:54.253|56=TRAX|10=079|8=FIXT.1.1|9=62|35=0|34=38|49=PUBQA2_Verion5|52=20180405-12:10:25.246|56=TRAX|10=072|8=FIXT.1.1|9=62|35=0|34=39|49=PUBQA2_Verion5|52=20180405-12:10:56.249|56=TRAX|10=080|8=FIXT.1.1|9=62|35=0|34=40|49=PUBQA2_Verion5|52=20180405-12:11:27.233|56=TRAX|10=064|8=FIXT.1.1|9=62|35=0|34=41|49=PUBQA2_Verion5|52=20180405-12:11:57.252|56=TRAX|10=069|8=FIXT.1.1|9=62|35=0|34=42|49=PUBQA2_Verion5|52=20180405-12:12:28.252|56=TRAX|10=069|8=FIXT.1.1|9=62|35=0|34=43|49=PUBQA2_Verion5|52=20180405-12:12:59.247|56=TRAX|10=078|8=FIXT.1.1|9=62|35=0|34=44|49=PUBQA2_Verion5|52=20180405-12:13:30.248|56=TRAX|10=070|8=FIXT.1.1|9=62|35=0|34=45|49=PUBQA2_Verion5|52=20180405-12:14:01.253|56=TRAX|10=066|8=FIXT.1.1|9=62|35=0|34=46|49=PUBQA2_Verion5|52=20180405-12:14:32.254|56=TRAX|10=072|8=FIXT.1.1|9=62|35=0|34=47|49=PUBQA2_Verion5|52=20180405-12:15:03.255|56=TRAX|10=073|8=FIXT.1.1|9=62|35=0|34=48|49=PUBQA2_Verion5|52=20180405-12:15:34.258|56=TRAX|10=081|8=FIXT.1.1|9=62|35=0|34=49|49=PUBQA2_Verion5|52=20180405-12:16:05.248|56=TRAX|10=080|8=FIXT.1.1|9=62|35=0|34=50|49=PUBQA2_Verion5|52=20180405-12:16:36.249|56=TRAX|10=077|8=FIXT.1.1|9=62|35=0|34=51|49=PUBQA2_Verion5|52=20180405-12:17:06.249|56=TRAX|10=076|8=FIXT.1.1|9=62|35=0|34=52|49=PUBQA2_Verion5|52=20180405-12:17:36.258|56=TRAX|10=080|8=FIXT.1.1|9=62|35=0|34=53|49=PUBQA2_Verion5|52=20180405-12:18:07.247|56=TRAX|10=078|8=FIXT.1.1|9=62|35=0|34=54|49=PUBQA2_Verion5|52=20180405-12:18:37.255|56=TRAX|10=081|8=FIXT.1.1|9=62|35=0|34=55|49=PUBQA2_Verion5|52=20180405-12:19:07.257|56=TRAX|10=082|8=FIXT.1.1|9=62|35=0|34=56|49=PUBQA2_Verion5|52=20180405-12:19:38.259|56=TRAX|10=089|8=FIXT.1.1|9=62|35=0|34=57|49=PUBQA2_Verion5|52=20180405-12:20:09.253|56=TRAX|10=074|8=FIXT.1.1|9=62|35=0|34=58|49=PUBQA2_Verion5|52=20180405-12:20:39.260|56=TRAX|10=076|8=FIXT.1.1|9=62|35=0|34=59|49=PUBQA2_Verion5|52=20180405-12:21:10.255|56=TRAX|10=071|8=FIXT.1.1|9=62|35=0|34=60|49=PUBQA2_Verion5|52=20180405-12:21:41.257|56=TRAX|10=069|8=FIXT.1.1|9=62|35=0|34=61|49=PUBQA2_Verion5|52=20180405-12:22:12.252|56=TRAX|10=064|8=FIXT.1.1|9=62|35=0|34=62|49=PUBQA2_Verion5|52=20180405-12:22:42.253|56=TRAX|10=069|8=FIXT.1.1|9=62|35=0|34=63|49=PUBQA2_Verion5|52=20180405-12:23:13.243|56=TRAX|10=068|8=FIXT.1.1|9=62|35=0|34=64|49=PUBQA2_Verion5|52=20180405-12:23:43.251|56=TRAX|10=071|8=FIXT.1.1|9=62|35=0|34=65|49=PUBQA2_Verion5|52=20180405-12:24:13.256|56=TRAX|10=075|8=FIXT.1.1|9=62|35=0|34=66|49=PUBQA2_Verion5|52=20180405-12:24:44.250|56=TRAX|10=074|8=FIXT.1.1|9=62|35=0|34=67|49=PUBQA2_Verion5|52=20180405-12:25:15.250|56=TRAX|10=074|8=FIXT.1.1|9=62|35=0|34=68|49=PUBQA2_Verion5|52=20180405-12:25:45.262|56=TRAX|10=081|8=FIXT.1.1|9=62|35=0|34=69|49=PUBQA2_Verion5|52=20180405-12:26:16.258|56=TRAX|10=086|8=FIXT.1.1|9=62|35=0|34=70|49=PUBQA2_Verion5|52=20180405-12:26:47.255|56=TRAX|10=079|8=FIXT.1.1|9=62|35=0|34=71|49=PUBQA2_Verion5|52=20180405-12:27:18.255|56=TRAX|10=079|8=FIXT.1.1|9=62|35=0|34=72|49=PUBQA2_Verion5|52=20180405-12:27:48.255|56=TRAX|10=083|8=FIXT.1.1|9=62|35=0|34=73|49=PUBQA2_Verion5|52=20180405-12:28:19.247|56=TRAX|10=084|8=FIXT.1.1|9=62|35=0|34=74|49=PUBQA2_Verion5|52=20180405-12:28:49.253|56=TRAX|10=085|8=FIXT.1.1|9=62|35=0|34=75|49=PUBQA2_Verion5|52=20180405-12:29:19.259|56=TRAX|10=090|8=FIXT.1.1|9=62|35=0|34=76|49=PUBQA2_Verion5|52=20180405-12:29:50.252|56=TRAX|10=079|8=FIXT.1.1|9=62|35=0|34=77|49=PUBQA2_Verion5|52=20180405-12:30:20.258|56=TRAX|10=075|8=FIXT.1.1|9=62|35=0|34=78|49=PUBQA2_Verion5|52=20180405-12:30:51.253|56=TRAX|10=075|8=FIXT.1.1|9=62|35=0|34=79|49=PUBQA2_Verion5|52=20180405-12:31:21.258|56=TRAX|10=079|8=FIXT.1.1|9=62|35=0|34=80|49=PUBQA2_Verion5|52=20180405-12:31:52.250|56=TRAX|10=067|8=FIXT.1.1|9=62|35=0|34=81|49=PUBQA2_Verion5|52=20180405-12:32:22.260|56=TRAX|10=067|8=FIXT.1.1|9=62|35=0|34=82|49=PUBQA2_Verion5|52=20180405-12:32:53.264|56=TRAX|10=076|8=FIXT.1.1|9=62|35=0|34=83|49=PUBQA2_Verion5|52=20180405-12:33:23.304|56=TRAX|10=070|8=FIXT.1.1|9=62|35=0|34=84|49=PUBQA2_Verion5|52=20180405-12:33:53.309|56=TRAX|10=079|8=FIXT.1.1|9=62|35=0|34=85|49=PUBQA2_Verion5|52=20180405-12:34:24.257|56=TRAX|10=081|8=FIXT.1.1|9=62|35=0|34=86|49=PUBQA2_Verion5|52=20180405-12:34:55.256|56=TRAX|10=085|8=FIXT.1.1|9=62|35=0|34=87|49=PUBQA2_Verion5|52=20180405-12:35:25.266|56=TRAX|10=085|8=FIXT.1.1|9=62|35=0|34=88|49=PUBQA2_Verion5|52=20180405-12:35:56.266|56=TRAX|10=090|8=FIXT.1.1|9=62|35=0|34=89|49=PUBQA2_Verion5|52=20180405-12:36:27.252|56=TRAX|10=085|8=FIXT.1.1|9=62|35=0|34=90|49=PUBQA2_Verion5|52=20180405-12:36:57.254|56=TRAX|10=082|8=FIXT.1.1|9=62|35=0|34=91|49=PUBQA2_Verion5|52=20180405-12:37:27.265|56=TRAX|10=083|8=FIXT.1.1|9=62|35=0|34=92|49=PUBQA2_Verion5|52=20180405-12:37:58.266|56=TRAX|10=089|8=FIXT.1.1|9=62|35=0|34=93|49=PUBQA2_Verion5|52=20180405-12:38:28.267|56=TRAX|10=089|8=FIXT.1.1|9=62|35=0|34=94|49=PUBQA2_Verion5|52=20180405-12:38:58.267|56=TRAX|10=093|8=FIXT.1.1|9=62|35=0|34=95|49=PUBQA2_Verion5|52=20180405-12:39:28.268|56=TRAX|10=093|8=FIXT.1.1|9=62|35=0|34=96|49=PUBQA2_Verion5|52=20180405-12:39:59.257|56=TRAX|10=096|8=FIXT.1.1|9=62|35=0|34=97|49=PUBQA2_Verion5|52=20180405-12:40:29.268|56=TRAX|10=088|8=FIXT.1.1|9=62|35=0|34=98|49=PUBQA2_Verion5|52=20180405-12:41:00.261|56=TRAX|10=072|8=FIXT.1.1|9=62|35=0|34=99|49=PUBQA2_Verion5|52=20180405-12:41:31.255|56=TRAX|10=080|8=FIXT.1.1|9=63|35=0|34=100|49=PUBQA2_Verion5|52=20180405-12:42:01.266|56=TRAX|10=112|8=FIXT.1.1|9=63|35=0|34=101|49=PUBQA2_Verion5|52=20180405-12:42:31.267|56=TRAX|10=117|8=FIXT.1.1|9=63|35=0|34=102|49=PUBQA2_Verion5|52=20180405-12:43:02.258|56=TRAX|10=117|8=FIXT.1.1|9=63|35=0|34=103|49=PUBQA2_Verion5|52=20180405-12:43:32.265|56=TRAX|10=119|8=FIXT.1.1|9=63|35=0|34=104|49=PUBQA2_Verion5|52=20180405-12:44:03.263|56=TRAX|10=117|8=FIXT.1.1|9=63|35=0|34=105|49=PUBQA2_Verion5|52=20180405-12:44:33.263|56=TRAX|10=121|8=FIXT.1.1|9=63|35=0|34=106|49=PUBQA2_Verion5|52=20180405-12:45:03.268|56=TRAX|10=125|8=FIXT.1.1|9=63|35=0|34=107|49=PUBQA2_Verion5|52=20180405-12:45:34.254|56=TRAX|10=125|8=FIXT.1.1|9=63|35=0|34=108|49=PUBQA2_Verion5|52=20180405-12:46:04.267|56=TRAX|10=128|8=FIXT.1.1|9=63|35=0|34=109|49=PUBQA2_Verion5|52=20180405-12:46:35.264|56=TRAX|10=130|8=FIXT.1.1|9=63|35=0|34=110|49=PUBQA2_Verion5|52=20180405-12:47:05.264|56=TRAX|10=120|8=FIXT.1.1|9=63|35=0|34=111|49=PUBQA2_Verion5|52=20180405-12:47:36.264|56=TRAX|10=125|8=FIXT.1.1|9=63|35=0|34=112|49=PUBQA2_Verion5|52=20180405-12:48:07.269|56=TRAX|10=130|8=FIXT.1.1|9=63|35=0|34=113|49=PUBQA2_Verion5|52=20180405-12:48:37.270|56=TRAX|10=126|8=FIXT.1.1|9=63|35=0|34=114|49=PUBQA2_Verion5|52=20180405-12:49:08.273|56=TRAX|10=129|8=FIXT.1.1|9=63|35=0|34=115|49=PUBQA2_Verion5|52=20180405-12:49:39.269|56=TRAX|10=139|8=FIXT.1.1|9=63|35=0|34=116|49=PUBQA2_Verion5|52=20180405-12:50:10.263|56=TRAX|10=115|8=FIXT.1.1|9=63|35=0|34=117|49=PUBQA2_Verion5|52=20180405-12:50:41.266|56=TRAX|10=123|8=FIXT.1.1|9=63|35=0|34=118|49=PUBQA2_Verion5|52=20180405-12:51:12.251|56=TRAX|10=117|8=FIXT.1.1|9=63|35=0|34=119|49=PUBQA2_Verion5|52=20180405-12:51:42.262|56=TRAX|10=123|8=FIXT.1.1|9=63|35=0|34=120|49=PUBQA2_Verion5|52=20180405-12:52:12.265|56=TRAX|10=116|8=FIXT.1.1|9=63|35=0|34=121|49=PUBQA2_Verion5|52=20180405-12:52:43.271|56=TRAX|10=118|8=FIXT.1.1|9=63|35=0|34=122|49=PUBQA2_Verion5|52=20180405-12:53:14.270|56=TRAX|10=117|8=FIXT.1.1|9=63|35=0|34=123|49=PUBQA2_Verion5|52=20180405-12:53:44.272|56=TRAX|10=123|8=FIXT.1.1|9=63|35=0|34=124|49=PUBQA2_Verion5|52=20180405-12:54:15.270|56=TRAX|10=121|8=FIXT.1.1|9=63|35=0|34=125|49=PUBQA2_Verion5|52=20180405-12:54:46.273|56=TRAX|10=129|8=FIXT.1.1|9=63|35=0|34=126|49=PUBQA2_Verion5|52=20180405-12:55:17.264|56=TRAX|10=129|8=FIXT.1.1|9=63|35=0|34=127|49=PUBQA2_Verion5|52=20180405-12:55:48.269|56=TRAX|10=139|8=FIXT.1.1|9=63|35=0|34=128|49=PUBQA2_Verion5|52=20180405-12:56:18.275|56=TRAX|10=135|8=FIXT.1.1|9=63|35=0|34=129|49=PUBQA2_Verion5|52=20180405-12:56:49.271|56=TRAX|10=136|8=FIXT.1.1|9=63|35=0|34=130|49=PUBQA2_Verion5|52=20180405-12:57:20.271|56=TRAX|10=118|8=FIXT.1.1|9=63|35=0|34=131|49=PUBQA2_Verion5|52=20180405-12:57:51.268|56=TRAX|10=129|8=FIXT.1.1|9=63|35=0|34=132|49=PUBQA2_Verion5|52=20180405-12:58:21.275|56=TRAX|10=126|8=FIXT.1.1|9=63|35=0|34=133|49=PUBQA2_Verion5|52=20180405-12:58:52.274|56=TRAX|10=130|8=FIXT.1.1|9=63|35=0|34=134|49=PUBQA2_Verion5|52=20180405-12:59:23.268|56=TRAX|10=133|8=FIXT.1.1|9=63|35=0|34=135|49=PUBQA2_Verion5|52=20180405-12:59:53.269|56=TRAX|10=138|8=FIXT.1.1|9=63|35=0|34=136|49=PUBQA2_Verion5|52=20180405-13:00:23.277|56=TRAX|10=122|8=FIXT.1.1|9=63|35=0|34=137|49=PUBQA2_Verion5|52=20180405-13:00:53.316|56=TRAX|10=120|8=FIXT.1.1|9=63|35=0|34=138|49=PUBQA2_Verion5|52=20180405-13:01:24.266|56=TRAX|10=124|8=FIXT.1.1|9=63|35=0|34=139|49=PUBQA2_Verion5|52=20180405-13:01:54.269|56=TRAX|10=131|8=FIXT.1.1|9=63|35=0|34=140|49=PUBQA2_Verion5|52=20180405-13:02:24.272|56=TRAX|10=115|8=FIXT.1.1|9=63|35=0|34=141|49=PUBQA2_Verion5|52=20180405-13:02:55.277|56=TRAX|10=125|8=FIXT.1.1|9=63|35=0|34=142|49=PUBQA2_Verion5|52=20180405-13:03:26.274|56=TRAX|10=122|8=FIXT.1.1|9=63|35=0|34=143|49=PUBQA2_Verion5|52=20180405-13:03:57.273|56=TRAX|10=126|8=FIXT.1.1|9=63|35=0|34=144|49=PUBQA2_Verion5|52=20180405-13:04:28.275|56=TRAX|10=128|8=FIXT.1.1|9=63|35=0|34=145|49=PUBQA2_Verion5|52=20180405-13:04:58.279|56=TRAX|10=136|8=FIXT.1.1|9=63|35=0|34=146|49=PUBQA2_Verion5|52=20180405-13:05:29.265|56=TRAX|10=131|8=FIXT.1.1|9=63|35=0|34=147|49=PUBQA2_Verion5|52=20180405-13:06:00.271|56=TRAX|10=119|8=FIXT.1.1|9=63|35=0|34=148|49=PUBQA2_Verion5|52=20180405-13:06:30.274|56=TRAX|10=126|8=FIXT.1.1|9=63|35=0|34=149|49=PUBQA2_Verion5|52=20180405-13:07:01.237|56=TRAX|10=125|8=FIXT.1.1|9=63|35=0|34=150|49=PUBQA2_Verion5|52=20180405-13:07:31.257|56=TRAX|10=122|8=FIXT.1.1|9=63|35=0|34=151|49=PUBQA2_Verion5|52=20180405-13:08:01.274|56=TRAX|10=120|8=FIXT.1.1|9=63|35=0|34=152|49=PUBQA2_Verion5|52=20180405-13:08:32.275|56=TRAX|10=126|8=FIXT.1.1|9=63|35=0|34=153|49=PUBQA2_Verion5|52=20180405-13:09:03.258|56=TRAX|10=127|8=FIXT.1.1|9=63|35=0|34=154|49=PUBQA2_Verion5|52=20180405-13:09:33.275|56=TRAX|10=130|8=FIXT.1.1|9=63|35=0|34=155|49=PUBQA2_Verion5|52=20180405-13:10:03.280|56=TRAX|10=116|8=FIXT.1.1|9=63|35=0|34=156|49=PUBQA2_Verion5|52=20180405-13:10:34.275|56=TRAX|10=125|8=FIXT.1.1|9=63|35=0|34=157|49=PUBQA2_Verion5|52=20180405-13:11:05.277|56=TRAX|10=127|8=FIXT.1.1|9=63|35=0|34=158|49=PUBQA2_Verion5|52=20180405-13:11:36.270|56=TRAX|10=125|8=FIXT.1.1|9=63|35=0|34=159|49=PUBQA2_Verion5|52=20180405-13:12:06.278|56=TRAX|10=132|8=FIXT.1.1|9=63|35=0|34=160|49=PUBQA2_Verion5|52=20180405-13:12:37.265|56=TRAX|10=124|8=FIXT.1.1|9=63|35=0|34=161|49=PUBQA2_Verion5|52=20180405-13:13:07.281|56=TRAX|10=121|8=FIXT.1.1|9=63|35=0|34=162|49=PUBQA2_Verion5|52=20180405-13:13:38.273|56=TRAX|10=127|8=FIXT.1.1|9=63|35=0|34=163|49=PUBQA2_Verion5|52=20180405-13:14:09.278|56=TRAX|10=132|8=FIXT.1.1|9=63|35=0|34=164|49=PUBQA2_Verion5|52=20180405-13:14:40.238|56=TRAX|10=124|8=FIXT.1.1|9=63|35=0|34=165|49=PUBQA2_Verion5|52=20180405-13:15:10.265|56=TRAX|10=123|8=FIXT.1.1|9=63|35=0|34=166|49=PUBQA2_Verion5|52=20180405-13:15:41.266|56=TRAX|10=129|8=FIXT.1.1|9=63|35=0|34=167|49=PUBQA2_Verion5|52=20180405-13:16:11.274|56=TRAX|10=127|8=FIXT.1.1|9=63|35=0|34=168|49=PUBQA2_Verion5|52=20180405-13:16:41.277|56=TRAX|10=134|8=FIXT.1.1|9=63|35=0|34=169|49=PUBQA2_Verion5|52=20180405-13:17:12.258|56=TRAX|10=133|8=FIXT.1.1|9=63|35=0|34=170|49=PUBQA2_Verion5|52=20180405-13:17:42.276|56=TRAX|10=128|8=FIXT.1.1|9=63|35=0|34=171|49=PUBQA2_Verion5|52=20180405-13:18:12.276|56=TRAX|10=127|8=FIXT.1.1|9=63|35=0|34=172|49=PUBQA2_Verion5|52=20180405-13:18:43.278|56=TRAX|10=134|8=FIXT.1.1|9=63|35=0|34=173|49=PUBQA2_Verion5|52=20180405-13:19:14.281|56=TRAX|10=128|8=FIXT.1.1|9=63|35=0|34=174|49=PUBQA2_Verion5|52=20180405-13:19:45.276|56=TRAX|10=137|8=FIXT.1.1|9=63|35=0|34=175|49=PUBQA2_Verion5|52=20180405-13:20:16.264|56=TRAX|10=125|8=FIXT.1.1|9=63|35=0|34=176|49=PUBQA2_Verion5|52=20180405-13:20:46.279|56=TRAX|10=135|8=FIXT.1.1|9=63|35=0|34=177|49=PUBQA2_Verion5|52=20180405-13:21:16.282|56=TRAX|10=128|8=FIXT.1.1|9=63|35=0|34=178|49=PUBQA2_Verion5|52=20180405-13:21:47.277|56=TRAX|10=137|8=FIXT.1.1|9=63|35=0|34=179|49=PUBQA2_Verion5|52=20180405-13:22:18.238|56=TRAX|10=134|8=FIXT.1.1|9=63|35=0|34=180|49=PUBQA2_Verion5|52=20180405-13:22:48.270|56=TRAX|10=125|8=FIXT.1.1|9=63|35=0|34=181|49=PUBQA2_Verion5|52=20180405-13:23:18.281|56=TRAX|10=126|8=FIXT.1.1|9=63|35=0|34=182|49=PUBQA2_Verion5|52=20180405-13:23:49.281|56=TRAX|10=131|8=FIXT.1.1|9=63|35=0|34=183|49=PUBQA2_Verion5|52=20180405-13:24:20.274|56=TRAX|10=124|8=FIXT.1.1|9=63|35=0|34=184|49=PUBQA2_Verion5|52=20180405-13:24:51.261|56=TRAX|10=125|8=FIXT.1.1|9=63|35=0|34=185|49=PUBQA2_Verion5|52=20180405-13:25:22.258|56=TRAX|10=131|8=FIXT.1.1|9=63|35=0|34=186|49=PUBQA2_Verion5|52=20180405-13:25:52.282|56=TRAX|10=132|8=FIXT.1.1|9=63|35=0|34=187|49=PUBQA2_Verion5|52=20180405-13:26:23.283|56=TRAX|10=133|8=FIXT.1.1|9=63|35=0|34=188|49=PUBQA2_Verion5|52=20180405-13:26:53.295|56=TRAX|10=140|8=FIXT.1.1|9=63|35=0|34=189|49=PUBQA2_Verion5|52=20180405-13:27:23.321|56=TRAX|10=129|8=FIXT.1.1|9=63|35=0|34=190|49=PUBQA2_Verion5|52=20180405-13:27:54.275|56=TRAX|10=133|8=FIXT.1.1|9=63|35=0|34=191|49=PUBQA2_Verion5|52=20180405-13:28:24.283|56=TRAX|10=131|8=FIXT.1.1|9=63|35=0|34=192|49=PUBQA2_Verion5|52=20180405-13:28:55.267|56=TRAX|10=138|8=FIXT.1.1|9=63|35=0|34=193|49=PUBQA2_Verion5|52=20180405-13:29:25.270|56=TRAX|10=131|8=FIXT.1.1|9=63|35=0|34=194|49=PUBQA2_Verion5|52=20180405-13:29:55.277|56=TRAX|10=142|8=FIXT.1.1|9=63|35=0|34=195|49=PUBQA2_Verion5|52=20180405-13:30:25.283|56=TRAX|10=129|8=FIXT.1.1|9=63|35=0|34=196|49=PUBQA2_Verion5|52=20180405-13:30:56.263|56=TRAX|10=132|8=FIXT.1.1|9=63|35=0|34=197|49=PUBQA2_Verion5|52=20180405-13:31:26.285|56=TRAX|10=135|8=FIXT.1.1|9=63|35=0|34=198|49=PUBQA2_Verion5|52=20180405-13:31:57.274|56=TRAX|10=138|8=FIXT.1.1|9=63|35=0|34=199|49=PUBQA2_Verion5|52=20180405-13:32:27.279|56=TRAX|10=142|8=FIXT.1.1|9=63|35=0|34=200|49=PUBQA2_Verion5|52=20180405-13:32:57.282|56=TRAX|10=122|8=FIXT.1.1|9=63|35=0|34=201|49=PUBQA2_Verion5|52=20180405-13:33:27.283|56=TRAX|10=122|8=FIXT.1.1|9=63|35=0|34=202|49=PUBQA2_Verion5|52=20180405-13:33:57.286|56=TRAX|10=129|8=FIXT.1.1|9=63|35=0|34=203|49=PUBQA2_Verion5|52=20180405-13:34:28.272|56=TRAX|10=124|8=FIXT.1.1|9=63|35=0|34=204|49=PUBQA2_Verion5|52=20180405-13:34:58.287|56=TRAX|10=134|8=FIXT.1.1|9=63|35=0|34=205|49=PUBQA2_Verion5|52=20180405-13:35:29.280|56=TRAX|10=127|8=FIXT.1.1|9=63|35=0|34=206|49=PUBQA2_Verion5|52=20180405-13:36:00.279|56=TRAX|10=126|8=FIXT.1.1|9=63|35=0|34=207|49=PUBQA2_Verion5|52=20180405-13:36:31.283|56=TRAX|10=126|8=FIXT.1.1|9=63|35=0|34=208|49=PUBQA2_Verion5|52=20180405-13:37:01.287|56=TRAX|10=129|8=FIXT.1.1|9=63|35=0|34=209|49=PUBQA2_Verion5|52=20180405-13:37:32.288|56=TRAX|10=135|8=FIXT.1.1|9=63|35=0|34=210|49=PUBQA2_Verion5|52=20180405-13:38:03.283|56=TRAX|10=121|8=FIXT.1.1|9=63|35=0|34=211|49=PUBQA2_Verion5|52=20180405-13:38:33.286|56=TRAX|10=128|8=FIXT.1.1|9=63|35=0|34=212|49=PUBQA2_Verion5|52=20180405-13:39:04.284|56=TRAX|10=126|8=FIXT.1.1|9=63|35=0|34=213|49=PUBQA2_Verion5|52=20180405-13:39:34.286|56=TRAX|10=132|8=FIXT.1.1|9=63|35=0|34=214|49=PUBQA2_Verion5|52=20180405-13:40:05.279|56=TRAX|10=125|8=FIXT.1.1|9=63|35=0|34=215|49=PUBQA2_Verion5|52=20180405-13:40:35.290|56=TRAX|10=122|8=FIXT.1.1|9=63|35=0|34=216|49=PUBQA2_Verion5|52=20180405-13:41:06.279|56=TRAX|10=129|8=FIXT.1.1|9=63|35=0|34=217|49=PUBQA2_Verion5|52=20180405-13:41:36.281|56=TRAX|10=126|8=FIXT.1.1|9=63|35=0|34=218|49=PUBQA2_Verion5|52=20180405-13:42:06.281|56=TRAX|10=125|8=FIXT.1.1|9=63|35=0|34=219|49=PUBQA2_Verion5|52=20180405-13:42:36.289|56=TRAX|10=137|8=FIXT.1.1|9=63|35=0|34=220|49=PUBQA2_Verion5|52=20180405-13:43:06.289|56=TRAX|10=127|8=FIXT.1.1|9=63|35=0|34=221|49=PUBQA2_Verion5|52=20180405-13:43:37.281|56=TRAX|10=124|8=FIXT.1.1|9=63|35=0|34=222|49=PUBQA2_Verion5|52=20180405-13:44:07.288|56=TRAX|10=130|8=FIXT.1.1|9=63|35=0|34=223|49=PUBQA2_Verion5|52=20180405-13:44:37.288|56=TRAX|10=134|8=FIXT.1.1|9=63|35=0|34=224|49=PUBQA2_Verion5|52=20180405-13:45:07.291|56=TRAX|10=127|8=FIXT.1.1|9=63|35=0|34=225|49=PUBQA2_Verion5|52=20180405-13:45:38.271|56=TRAX|10=130|8=FIXT.1.1|9=63|35=0|34=226|49=PUBQA2_Verion5|52=20180405-13:46:08.273|56=TRAX|10=131|8=FIXT.1.1|9=63|35=0|34=227|49=PUBQA2_Verion5|52=20180405-13:46:38.273|56=TRAX|10=135|8=FIXT.1.1|9=63|35=0|34=228|49=PUBQA2_Verion5|52=20180405-13:47:08.292|56=TRAX|10=135|8=FIXT.1.1|9=63|35=0|34=229|49=PUBQA2_Verion5|52=20180405-13:47:38.292|56=TRAX|10=139|8=FIXT.1.1|9=63|35=0|34=230|49=PUBQA2_Verion5|52=20180405-13:48:08.293|56=TRAX|10=130|8=FIXT.1.1|9=63|35=0|34=231|49=PUBQA2_Verion5|52=20180405-13:48:39.270|56=TRAX|10=130|8=FIXT.1.1|9=63|35=0|34=232|49=PUBQA2_Verion5|52=20180405-13:49:09.290|56=TRAX|10=131|8=FIXT.1.1|9=63|35=0|34=233|49=PUBQA2_Verion5|52=20180405-13:49:40.294|56=TRAX|10=131|8=FIXT.1.1|9=63|35=0|34=234|49=PUBQA2_Verion5|52=20180405-13:50:11.275|56=TRAX|10=121|8=FIXT.1.1|9=63|35=0|34=235|49=PUBQA2_Verion5|52=20180405-13:50:41.283|56=TRAX|10=124|8=FIXT.1.1|9=63|35=0|34=236|49=PUBQA2_Verion5|52=20180405-13:51:12.283|56=TRAX|10=124|8=FIXT.1.1|9=63|35=0|34=237|49=PUBQA2_Verion5|52=20180405-13:51:42.285|56=TRAX|10=130|8=FIXT.1.1|9=63|35=0|34=238|49=PUBQA2_Verion5|52=20180405-13:52:12.289|56=TRAX|10=133|8=FIXT.1.1|9=63|35=0|34=239|49=PUBQA2_Verion5|52=20180405-13:52:42.293|56=TRAX|10=132|8=FIXT.1.1|9=63|35=0|34=240|49=PUBQA2_Verion5|52=20180405-13:53:13.294|56=TRAX|10=124|8=FIXT.1.1|9=63|35=0|34=241|49=PUBQA2_Verion5|52=20180405-13:53:43.296|56=TRAX|10=130|8=FIXT.1.1|9=63|35=0|34=242|49=PUBQA2_Verion5|52=20180405-13:54:14.274|56=TRAX|10=126|8=FIXT.1.1|9=63|35=0|34=243|49=PUBQA2_Verion5|52=20180405-13:54:44.281|56=TRAX|10=128|8=FIXT.1.1|9=63|35=0|34=244|49=PUBQA2_Verion5|52=20180405-13:55:15.290|56=TRAX|10=128|8=FIXT.1.1|9=63|35=0|34=245|49=PUBQA2_Verion5|52=20180405-13:55:45.295|56=TRAX|10=137|8=FIXT.1.1|9=63|35=0|34=246|49=PUBQA2_Verion5|52=20180405-13:56:15.295|56=TRAX|10=136|8=FIXT.1.1|9=63|35=0|34=247|49=PUBQA2_Verion5|52=20180405-13:56:46.297|56=TRAX|10=143|8=FIXT.1.1|9=63|35=0|34=248|49=PUBQA2_Verion5|52=20180405-13:57:17.284|56=TRAX|10=139|8=FIXT.1.1|9=63|35=0|34=249|49=PUBQA2_Verion5|52=20180405-13:57:48.289|56=TRAX|10=149|8=FIXT.1.1|9=63|35=0|34=250|49=PUBQA2_Verion5|52=20180405-13:58:18.296|56=TRAX|10=137|8=FIXT.1.1|9=63|35=0|34=251|49=PUBQA2_Verion5|52=20180405-13:58:49.286|56=TRAX|10=141|8=FIXT.1.1|9=63|35=0|34=252|49=PUBQA2_Verion5|52=20180405-13:59:19.298|56=TRAX|10=143|8=FIXT.1.1|9=63|35=0|34=253|49=PUBQA2_Verion5|52=20180405-13:59:50.291|56=TRAX|10=132|8=FIXT.1.1|9=63|35=0|34=254|49=PUBQA2_Verion5|52=20180405-14:00:20.291|56=TRAX|10=117|8=FIXT.1.1|9=63|35=0|34=255|49=PUBQA2_Verion5|52=20180405-14:00:50.291|56=TRAX|10=121|8=FIXT.1.1|9=63|35=0|34=256|49=PUBQA2_Verion5|52=20180405-14:01:21.290|56=TRAX|10=120|8=FIXT.1.1|9=63|35=0|34=257|49=PUBQA2_Verion5|52=20180405-14:01:51.294|56=TRAX|10=128|8=FIXT.1.1|9=63|35=0|34=258|49=PUBQA2_Verion5|52=20180405-14:02:22.288|56=TRAX|10=131|8=FIXT.1.1|9=63|35=0|34=259|49=PUBQA2_Verion5|52=20180405-14:02:52.296|56=TRAX|10=134|8=FIXT.1.1|9=63|35=0|34=260|49=PUBQA2_Verion5|52=20180405-14:03:22.297|56=TRAX|10=125|8=FIXT.1.1|9=63|35=0|34=261|49=PUBQA2_Verion5|52=20180405-14:03:53.281|56=TRAX|10=123|8=FIXT.1.1|9=63|35=0|34=262|49=PUBQA2_Verion5|52=20180405-14:04:23.295|56=TRAX|10=127|8=FIXT.1.1|9=63|35=0|34=263|49=PUBQA2_Verion5|52=20180405-14:04:53.300|56=TRAX|10=118|8=FIXT.1.1|9=63|35=0|34=264|49=PUBQA2_Verion5|52=20180405-14:05:23.313|56=TRAX|10=121|8=FIXT.1.1|9=63|35=0|34=265|49=PUBQA2_Verion5|52=20180405-14:05:53.339|56=TRAX|10=133|8=FIXT.1.1|9=63|35=0|34=266|49=PUBQA2_Verion5|52=20180405-14:06:24.289|56=TRAX|10=137|8=FIXT.1.1|9=63|35=0|34=267|49=PUBQA2_Verion5|52=20180405-14:06:54.300|56=TRAX|10=125|8=FIXT.1.1|9=63|35=0|34=268|49=PUBQA2_Verion5|52=20180405-14:07:25.298|56=TRAX|10=141|8=FIXT.1.1|9=63|35=0|34=269|49=PUBQA2_Verion5|52=20180405-14:07:56.294|56=TRAX|10=142|8=FIXT.1.1|9=63|35=0|34=270|49=PUBQA2_Verion5|52=20180405-14:08:26.294|56=TRAX|10=132|8=FIXT.1.1|9=63|35=0|34=271|49=PUBQA2_Verion5|52=20180405-14:08:57.278|56=TRAX|10=139|8=FIXT.1.1|9=63|35=0|34=272|49=PUBQA2_Verion5|52=20180405-14:09:27.291|56=TRAX|10=133|8=FIXT.1.1|9=63|35=0|34=273|49=PUBQA2_Verion5|52=20180405-14:09:57.301|56=TRAX|10=129|8=FIXT.1.1|9=63|35=0|34=274|49=PUBQA2_Verion5|52=20180405-14:10:28.301|56=TRAX|10=120|8=FIXT.1.1|9=63|35=0|34=275|49=PUBQA2_Verion5|52=20180405-14:10:58.301|56=TRAX|10=124|8=FIXT.1.1|9=63|35=0|34=276|49=PUBQA2_Verion5|52=20180405-14:11:29.281|56=TRAX|10=131|8=FIXT.1.1|9=63|35=0|34=277|49=PUBQA2_Verion5|52=20180405-14:11:59.302|56=TRAX|10=129|8=FIXT.1.1|9=63|35=0|34=278|49=PUBQA2_Verion5|52=20180405-14:12:30.294|56=TRAX|10=130|8=FIXT.1.1|9=63|35=0|34=279|49=PUBQA2_Verion5|52=20180405-14:13:00.304|56=TRAX|10=121|8=FIXT.1.1|9=63|35=0|34=280|49=PUBQA2_Verion5|52=20180405-14:13:31.288|56=TRAX|10=128|8=FIXT.1.1|9=63|35=0|34=281|49=PUBQA2_Verion5|52=20180405-14:14:01.288|56=TRAX|10=127|8=FIXT.1.1|9=63|35=0|34=282|49=PUBQA2_Verion5|52=20180405-14:14:31.305|56=TRAX|10=121|8=FIXT.1.1|9=63|35=0|34=283|49=PUBQA2_Verion5|52=20180405-14:15:02.296|56=TRAX|10=130|8=FIXT.1.1|9=63|35=0|34=284|49=PUBQA2_Verion5|52=20180405-14:15:32.301|56=TRAX|10=121|8=FIXT.1.1|9=63|35=0|34=285|49=PUBQA2_Verion5|52=20180405-14:16:03.300|56=TRAX|10=120|8=FIXT.1.1|9=63|35=0|34=286|49=PUBQA2_Verion5|52=20180405-14:16:34.298|56=TRAX|10=141|8=FIXT.1.1|9=63|35=0|34=287|49=PUBQA2_Verion5|52=20180405-14:17:04.307|56=TRAX|10=131|8=FIXT.1.1|9=63|35=0|34=288|49=PUBQA2_Verion5|52=20180405-14:17:35.293|56=TRAX|10=140|8=FIXT.1.1|9=63|35=0|34=289|49=PUBQA2_Verion5|52=20180405-14:18:05.305|56=TRAX|10=133|8=FIXT.1.1|9=63|35=0|34=290|49=PUBQA2_Verion5|52=20180405-14:18:36.302|56=TRAX|10=126|8=FIXT.1.1|9=63|35=0|34=291|49=PUBQA2_Verion5|52=20180405-14:19:07.295|56=TRAX|10=137|8=FIXT.1.1|9=63|35=0|34=292|49=PUBQA2_Verion5|52=20180405-14:19:37.299|56=TRAX|10=145|8=FIXT.1.1|9=63|35=0|34=293|49=PUBQA2_Verion5|52=20180405-14:20:07.307|56=TRAX|10=125|8=FIXT.1.1|9=63|35=0|34=294|49=PUBQA2_Verion5|52=20180405-14:20:38.301|56=TRAX|10=124|8=FIXT.1.1|9=63|35=0|34=295|49=PUBQA2_Verion5|52=20180405-14:21:09.304|56=TRAX|10=127|8=FIXT.1.1|9=63|35=0|34=296|49=PUBQA2_Verion5|52=20180405-14:21:39.306|56=TRAX|10=133|8=FIXT.1.1|9=63|35=0|34=297|49=PUBQA2_Verion5|52=20180405-14:22:10.297|56=TRAX|10=133|8=FIXT.1.1|9=63|35=0|34=298|49=PUBQA2_Verion5|52=20180405-14:22:40.304|56=TRAX|10=126|8=FIXT.1.1|9=63|35=0|34=299|49=PUBQA2_Verion5|52=20180405-14:23:11.307|56=TRAX|10=129|8=FIXT.1.1|9=63|35=0|34=300|49=PUBQA2_Verion5|52=20180405-14:23:42.304|56=TRAX|10=113|8=FIXT.1.1|9=63|35=0|34=301|49=PUBQA2_Verion5|52=20180405-14:24:12.306|56=TRAX|10=114|8=FIXT.1.1|9=63|35=0|34=302|49=PUBQA2_Verion5|52=20180405-14:24:43.295|56=TRAX|10=126|8=FIXT.1.1|9=63|35=0|34=303|49=PUBQA2_Verion5|52=20180405-14:25:13.297|56=TRAX|10=127|8=FIXT.1.1|9=63|35=0|34=304|49=PUBQA2_Verion5|52=20180405-14:25:44.301|56=TRAX|10=118|8=FIXT.1.1|9=63|35=0|34=305|49=PUBQA2_Verion5|52=20180405-14:26:14.303|56=TRAX|10=119|8=FIXT.1.1|9=63|35=0|34=306|49=PUBQA2_Verion5|52=20180405-14:26:45.303|56=TRAX|10=124|8=FIXT.1.1|9=63|35=0|34=307|49=PUBQA2_Verion5|52=20180405-14:27:15.306|56=TRAX|10=126|8=FIXT.1.1|9=63|35=0|34=308|49=PUBQA2_Verion5|52=20180405-14:27:46.296|56=TRAX|10=139|8=FIXT.1.1|9=63|35=0|34=309|49=PUBQA2_Verion5|52=20180405-14:28:16.297|56=TRAX|10=139|8=FIXT.1.1|9=63|35=0|34=310|49=PUBQA2_Verion5|52=20180405-14:28:46.309|56=TRAX|10=128|8=FIXT.1.1|9=63|35=0|34=311|49=PUBQA2_Verion5|52=20180405-14:29:16.312|56=TRAX|10=121|8=FIXT.1.1|9=63|35=0|34=312|49=PUBQA2_Verion5|52=20180405-14:29:46.312|56=TRAX|10=125|8=FIXT.1.1|9=63|35=0|34=313|49=PUBQA2_Verion5|52=20180405-14:30:17.297|56=TRAX|10=128|8=FIXT.1.1|9=63|35=0|34=314|49=PUBQA2_Verion5|52=20180405-14:30:47.299|56=TRAX|10=134|8=FIXT.1.1|9=63|35=0|34=315|49=PUBQA2_Verion5|52=20180405-14:31:17.300|56=TRAX|10=116|8=FIXT.1.1|9=63|35=0|34=316|49=PUBQA2_Verion5|52=20180405-14:31:48.304|56=TRAX|10=125|8=FIXT.1.1|9=63|35=0|34=317|49=PUBQA2_Verion5|52=20180405-14:32:18.308|56=TRAX|10=128|8=FIXT.1.1|9=63|35=0|34=318|49=PUBQA2_Verion5|52=20180405-14:32:48.309|56=TRAX|10=133|8=FIXT.1.1|9=63|35=0|34=319|49=PUBQA2_Verion5|52=20180405-14:33:18.310|56=TRAX|10=124|8=FIXT.1.1|9=63|35=0|34=320|49=PUBQA2_Verion5|52=20180405-14:33:49.297|56=TRAX|10=134|8=FIXT.1.1|9=63|35=0|34=321|49=PUBQA2_Verion5|52=20180405-14:34:19.312|56=TRAX|10=121|8=FIXT.1.1|9=63|35=0|34=322|49=PUBQA2_Verion5|52=20180405-14:34:50.302|56=TRAX|10=116|8=FIX