8=FIXT.1.1|9=103|35=A|34=1|49=HEMAAPAPUB|52=20170912-16:03:17.340|56=TRAX|98=0|108=30|95=11|96=1.0.0rc11.2|141=Y|1137=9|10=057|8=FIXT.1.1|9=57|35=0|34=2|49=HEMAAPAPUB|52=20170912-16:03:48.311|56=TRAX|10=059|8=FIXT.1.1|9=57|35=0|34=3|49=HEMAAPAPUB|52=20170912-16:04:19.310|56=TRAX|10=058|8=FIXT.1.1|9=57|35=0|34=4|49=HEMAAPAPUB|52=20170912-16:04:49.369|56=TRAX|10=076|8=FIXT.1.1|9=57|35=0|34=5|49=HEMAAPAPUB|52=20170912-16:05:19.373|56=TRAX|10=070|8=FIXT.1.1|9=57|35=0|34=6|49=HEMAAPAPUB|52=20170912-16:05:49.373|56=TRAX|10=074|8=FIXT.1.1|9=57|35=0|34=7|49=HEMAAPAPUB|52=20170912-16:06:19.384|56=TRAX|10=075|8=FIXT.1.1|9=57|35=0|34=8|49=HEMAAPAPUB|52=20170912-16:06:50.301|56=TRAX|10=060|8=FIXT.1.1|9=57|35=0|34=9|49=HEMAAPAPUB|52=20170912-16:07:20.307|56=TRAX|10=065|8=FIXT.1.1|9=58|35=0|34=10|49=HEMAAPAPUB|52=20170912-16:07:51.311|56=TRAX|10=105|8=FIXT.1.1|9=58|35=0|34=11|49=HEMAAPAPUB|52=20170912-16:08:22.292|56=TRAX|10=113|8=FIXT.1.1|9=58|35=0|34=12|49=HEMAAPAPUB|52=20170912-16:08:53.303|56=TRAX|10=111|8=FIXT.1.1|9=58|35=0|34=13|49=HEMAAPAPUB|52=20170912-16:09:24.288|56=TRAX|10=123|8=FIXT.1.1|9=58|35=0|34=14|49=HEMAAPAPUB|52=20170912-16:09:55.287|56=TRAX|10=127|8=FIXT.1.1|9=58|35=0|34=15|49=HEMAAPAPUB|52=20170912-16:10:25.308|56=TRAX|10=111|8=FIXT.1.1|9=58|35=0|34=16|49=HEMAAPAPUB|52=20170912-16:10:56.313|56=TRAX|10=112|8=FIXT.1.1|9=58|35=0|34=17|49=HEMAAPAPUB|52=20170912-16:11:27.305|56=TRAX|10=113|8=FIXT.1.1|9=58|35=0|34=18|49=HEMAAPAPUB|52=20170912-16:11:57.314|56=TRAX|10=117|8=FIXT.1.1|9=58|35=0|34=19|49=HEMAAPAPUB|52=20170912-16:12:27.315|56=TRAX|10=117|8=FIXT.1.1|9=58|35=0|34=20|49=HEMAAPAPUB|52=20170912-16:12:58.309|56=TRAX|10=116|8=FIXT.1.1|9=58|35=0|34=21|49=HEMAAPAPUB|52=20170912-16:13:28.312|56=TRAX|10=109|8=FIXT.1.1|9=58|35=0|34=22|49=HEMAAPAPUB|52=20170912-16:13:59.312|56=TRAX|10=114|8=FIXT.1.1|9=58|35=0|34=23|49=HEMAAPAPUB|52=20170912-16:14:30.317|56=TRAX|10=110|8=FIXT.1.1|9=58|35=0|34=24|49=HEMAAPAPUB|52=20170912-16:15:01.317|56=TRAX|10=110|8=FIXT.1.1|9=58|35=0|34=25|49=HEMAAPAPUB|52=20170912-16:15:31.323|56=TRAX|10=111|8=FIXT.1.1|9=58|35=0|34=26|49=HEMAAPAPUB|52=20170912-16:16:02.326|56=TRAX|10=114|8=FIXT.1.1|9=58|35=0|34=27|49=HEMAAPAPUB|52=20170912-16:16:33.323|56=TRAX|10=116|8=FIXT.1.1|9=58|35=0|34=28|49=HEMAAPAPUB|52=20170912-16:17:03.333|56=TRAX|10=116|8=FIXT.1.1|9=58|35=0|34=29|49=HEMAAPAPUB|52=20170912-16:17:34.330|56=TRAX|10=118|8=FIXT.1.1|9=58|35=0|34=30|49=HEMAAPAPUB|52=20170912-16:18:04.331|56=TRAX|10=109|8=FIXT.1.1|9=58|35=0|34=31|49=HEMAAPAPUB|52=20170912-16:18:34.331|56=TRAX|10=113|8=FIXT.1.1|9=58|35=0|34=32|49=HEMAAPAPUB|52=20170912-16:19:04.336|56=TRAX|10=117|8=FIXT.1.1|9=58|35=0|34=33|49=HEMAAPAPUB|52=20170912-16:19:34.343|56=TRAX|10=119|8=FIXT.1.1|9=58|35=0|34=34|49=HEMAAPAPUB|52=20170912-16:20:05.340|56=TRAX|10=107|8=FIXT.1.1|9=58|35=0|34=35|49=HEMAAPAPUB|52=20170912-16:20:35.340|56=TRAX|10=111|8=FIXT.1.1|9=58|35=0|34=36|49=HEMAAPAPUB|52=20170912-16:21:05.343|56=TRAX|10=113|8=FIXT.1.1|9=58|35=0|34=37|49=HEMAAPAPUB|52=20170912-16:21:35.344|56=TRAX|10=118|8=FIXT.1.1|9=58|35=0|34=38|49=HEMAAPAPUB|52=20170912-16:22:05.346|56=TRAX|10=119|8=FIXT.1.1|9=58|35=0|34=39|49=HEMAAPAPUB|52=20170912-16:22:36.347|56=TRAX|10=125|8=FIXT.1.1|9=58|35=0|34=40|49=HEMAAPAPUB|52=20170912-16:23:06.350|56=TRAX|10=109|8=FIXT.1.1|9=58|35=0|34=41|49=HEMAAPAPUB|52=20170912-16:23:37.348|56=TRAX|10=121|8=FIXT.1.1|9=58|35=0|34=42|49=HEMAAPAPUB|52=20170912-16:24:08.351|56=TRAX|10=115|8=FIXT.1.1|9=58|35=0|34=43|49=HEMAAPAPUB|52=20170912-16:24:38.357|56=TRAX|10=125|8=FIXT.1.1|9=58|35=0|34=44|49=HEMAAPAPUB|52=20170912-16:25:09.350|56=TRAX|10=118|8=FIXT.1.1|9=58|35=0|34=45|49=HEMAAPAPUB|52=20170912-16:25:39.352|56=TRAX|10=124|8=FIXT.1.1|9=58|35=0|34=46|49=HEMAAPAPUB|52=20170912-16:26:09.359|56=TRAX|10=130|8=FIXT.1.1|9=58|35=0|34=47|49=HEMAAPAPUB|52=20170912-16:26:39.360|56=TRAX|10=126|8=FIXT.1.1|9=58|35=0|34=48|49=HEMAAPAPUB|52=20170912-16:27:09.363|56=TRAX|10=128|8=FIXT.1.1|9=58|35=0|34=49|49=HEMAAPAPUB|52=20170912-16:27:40.358|56=TRAX|10=128|8=FIXT.1.1|9=58|35=0|34=50|49=HEMAAPAPUB|52=20170912-16:28:11.362|56=TRAX|10=114|8=FIXT.1.1|9=58|35=0|34=51|49=HEMAAPAPUB|52=20170912-16:28:41.366|56=TRAX|10=122|8=FIXT.1.1|9=58|35=0|34=52|49=HEMAAPAPUB|52=20170912-16:29:11.368|56=TRAX|10=123|8=FIXT.1.1|9=58|35=0|34=53|49=HEMAAPAPUB|52=20170912-16:29:42.364|56=TRAX|10=124|8=FIXT.1.1|9=58|35=0|34=54|49=HEMAAPAPUB|52=20170912-16:30:12.364|56=TRAX|10=114|8=FIXT.1.1|9=58|35=0|34=55|49=HEMAAPAPUB|52=20170912-16:30:43.366|56=TRAX|10=121|8=FIXT.1.1|9=58|35=0|34=56|49=HEMAAPAPUB|52=20170912-16:31:13.368|56=TRAX|10=122|8=FIXT.1.1|9=58|35=0|34=57|49=HEMAAPAPUB|52=20170912-16:31:43.370|56=TRAX|10=119|8=FIXT.1.1|9=58|35=0|34=58|49=HEMAAPAPUB|52=20170912-16:32:13.370|56=TRAX|10=118|8=FIXT.1.1|9=58|35=0|34=59|49=HEMAAPAPUB|52=20170912-16:32:44.369|56=TRAX|10=131|8=FIXT.1.1|9=58|35=0|34=60|49=HEMAAPAPUB|52=20170912-16:33:15.362|56=TRAX|10=115|8=FIXT.1.1|9=58|35=0|34=61|49=HEMAAPAPUB|52=20170912-16:33:45.373|56=TRAX|10=121|8=FIXT.1.1|9=58|35=0|34=62|49=HEMAAPAPUB|52=20170912-16:34:15.374|56=TRAX|10=121|8=FIXT.1.1|9=58|35=0|34=63|49=HEMAAPAPUB|52=20170912-16:34:45.376|56=TRAX|10=127|8=FIXT.1.1|9=58|35=0|34=64|49=HEMAAPAPUB|52=20170912-16:35:16.369|56=TRAX|10=129|8=FIXT.1.1|9=58|35=0|34=65|49=HEMAAPAPUB|52=20170912-16:35:47.378|56=TRAX|10=134|8=FIXT.1.1|9=58|35=0|34=66|49=HEMAAPAPUB|52=20170912-16:36:18.370|56=TRAX|10=126|8=FIXT.1.1|9=58|35=0|34=67|49=HEMAAPAPUB|52=20170912-16:36:48.374|56=TRAX|10=134|8=FIXT.1.1|9=58|35=0|34=68|49=HEMAAPAPUB|52=20170912-16:37:18.376|56=TRAX|10=135|8=FIXT.1.1|9=58|35=0|34=69|49=HEMAAPAPUB|52=20170912-16:37:48.378|56=TRAX|10=141|8=FIXT.1.1|9=58|35=0|34=70|49=HEMAAPAPUB|52=20170912-16:38:18.378|56=TRAX|10=131|8=FIXT.1.1|9=58|35=0|34=71|49=HEMAAPAPUB|52=20170912-16:38:49.372|56=TRAX|10=130|8=FIXT.1.1|9=58|35=0|34=72|49=HEMAAPAPUB|52=20170912-16:39:19.373|56=TRAX|10=130|8=FIXT.1.1|9=58|35=0|34=73|49=HEMAAPAPUB|52=20170912-16:39:49.383|56=TRAX|10=135|8=FIXT.1.1|9=58|35=0|34=74|49=HEMAAPAPUB|52=20170912-16:40:20.383|56=TRAX|10=117|8=FIXT.1.1|9=58|35=0|34=75|49=HEMAAPAPUB|52=20170912-16:40:51.382|56=TRAX|10=121|8=FIXT.1.1|9=58|35=0|34=76|49=HEMAAPAPUB|52=20170912-16:41:21.386|56=TRAX|10=124|8=FIXT.1.1|9=58|35=0|34=77|49=HEMAAPAPUB|52=20170912-16:41:52.379|56=TRAX|10=131|8=FIXT.1.1|9=58|35=0|34=78|49=HEMAAPAPUB|52=20170912-16:42:23.381|56=TRAX|10=124|8=FIXT.1.1|9=58|35=0|34=79|49=HEMAAPAPUB|52=20170912-16:42:53.387|56=TRAX|10=134|8=FIXT.1.1|9=58|35=0|34=80|49=HEMAAPAPUB|52=20170912-16:43:24.386|56=TRAX|10=124|8=FIXT.1.1|9=58|35=0|34=81|49=HEMAAPAPUB|52=20170912-16:43:54.421|56=TRAX|10=118|8=FIXT.1.1|9=58|35=0|34=82|49=HEMAAPAPUB|52=20170912-16:44:24.423|56=TRAX|10=119|8=FIXT.1.1|9=58|35=0|34=83|49=HEMAAPAPUB|52=20170912-16:44:55.385|56=TRAX|10=131|8=FIXT.1.1|9=58|35=0|34=84|49=HEMAAPAPUB|52=20170912-16:45:25.390|56=TRAX|10=126|8=FIXT.1.1|9=58|35=0|34=85|49=HEMAAPAPUB|52=20170912-16:45:56.391|56=TRAX|10=132|8=FIXT.1.1|9=58|35=0|34=86|49=HEMAAPAPUB|52=20170912-16:46:27.392|56=TRAX|10=133|8=FIXT.1.1|9=58|35=0|34=87|49=HEMAAPAPUB|52=20170912-16:46:57.393|56=TRAX|10=138|8=FIXT.1.1|9=58|35=0|34=88|49=HEMAAPAPUB|52=20170912-16:47:28.379|56=TRAX|10=142|8=FIXT.1.1|9=58|35=0|34=89|49=HEMAAPAPUB|52=20170912-16:47:58.394|56=TRAX|10=143|8=FIXT.1.1|9=58|35=0|34=90|49=HEMAAPAPUB|52=20170912-16:48:28.422|56=TRAX|10=125|8=FIXT.1.1|9=58|35=0|34=91|49=HEMAAPAPUB|52=20170912-16:48:58.429|56=TRAX|10=136|8=FIXT.1.1|9=58|35=0|34=92|49=HEMAAPAPUB|52=20170912-16:49:28.456|56=TRAX|10=135|8=FIXT.1.1|9=58|35=0|34=93|49=HEMAAPAPUB|52=20170912-16:49:59.394|56=TRAX|10=141|8=FIXT.1.1|9=58|35=0|34=94|49=HEMAAPAPUB|52=20170912-16:50:30.391|56=TRAX|10=120|8=FIXT.1.1|9=58|35=0|34=95|49=HEMAAPAPUB|52=20170912-16:51:00.395|56=TRAX|10=123|8=FIXT.1.1|9=58|35=0|34=96|49=HEMAAPAPUB|52=20170912-16:51:31.393|56=TRAX|10=126|8=FIXT.1.1|9=58|35=0|34=97|49=HEMAAPAPUB|52=20170912-16:52:02.374|56=TRAX|10=125|8=FIXT.1.1|9=58|35=0|34=98|49=HEMAAPAPUB|52=20170912-16:52:32.401|56=TRAX|10=120|8=FIXT.1.1|9=58|35=0|34=99|49=HEMAAPAPUB|52=20170912-16:53:03.402|56=TRAX|10=121|8=FIXT.1.1|9=59|35=0|34=100|49=HEMAAPAPUB|52=20170912-16:53:34.402|56=TRAX|10=157|8=FIXT.1.1|9=59|35=0|34=101|49=HEMAAPAPUB|52=20170912-16:54:04.404|56=TRAX|10=158|8=FIXT.1.1|9=59|35=0|34=102|49=HEMAAPAPUB|52=20170912-16:54:34.721|56=TRAX|10=164|8=FIXT.1.1|9=59|35=0|34=103|49=HEMAAPAPUB|52=20170912-16:55:04.860|56=TRAX|10=167|8=FIXT.1.1|9=59|35=0|34=104|49=HEMAAPAPUB|52=20170912-16:55:35.195|56=TRAX|10=173|8=FIXT.1.1|9=59|35=0|34=105|49=HEMAAPAPUB|52=20170912-16:56:05.406|56=TRAX|10=167|8=FIXT.1.1|9=59|35=0|34=106|49=HEMAAPAPUB|52=20170912-16:56:36.355|56=TRAX|10=175|8=FIXT.1.1|9=59|35=0|34=107|49=HEMAAPAPUB|52=20170912-16:57:06.407|56=TRAX|10=172|8=FIXT.1.1|9=59|35=0|34=108|49=HEMAAPAPUB|52=20170912-16:57:36.614|56=TRAX|10=176|8=FIXT.1.1|9=59|35=0|34=109|49=HEMAAPAPUB|52=20170912-16:58:06.826|56=TRAX|10=180|8=FIXT.1.1|9=59|35=0|34=110|49=HEMAAPAPUB|52=20170912-16:58:37.084|56=TRAX|10=172|8=FIXT.1.1|9=59|35=0|34=111|49=HEMAAPAPUB|52=20170912-16:59:07.178|56=TRAX|10=175|8=FIXT.1.1|9=59|35=0|34=112|49=HEMAAPAPUB|52=20170912-16:59:37.251|56=TRAX|10=171|8=FIXT.1.1|9=59|35=0|34=113|49=HEMAAPAPUB|52=20170912-17:00:07.407|56=TRAX|10=159|8=FIXT.1.1|9=59|35=0|34=114|49=HEMAAPAPUB|52=20170912-17:00:37.410|56=TRAX|10=157|8=FIXT.1.1|9=59|35=0|34=115|49=HEMAAPAPUB|52=20170912-17:01:07.410|56=TRAX|10=156|8=FIXT.1.1|9=59|35=0|34=116|49=HEMAAPAPUB|52=20170912-17:01:37.846|56=TRAX|10=173|8=FIXT.1.1|9=59|35=0|34=117|49=HEMAAPAPUB|52=20170912-17:02:07.877|56=TRAX|10=176|8=FIXT.1.1|9=59|35=0|34=118|49=HEMAAPAPUB|52=20170912-17:02:37.971|56=TRAX|10=175|8=FIXT.1.1|9=59|35=0|34=119|49=HEMAAPAPUB|52=20170912-17:03:08.028|56=TRAX|10=168|8=FIXT.1.1|9=59|35=0|34=120|49=HEMAAPAPUB|52=20170912-17:03:38.410|56=TRAX|10=158|8=FIXT.1.1|9=59|35=0|34=121|49=HEMAAPAPUB|52=20170912-17:04:08.416|56=TRAX|10=163|8=FIXT.1.1|9=59|35=0|34=122|49=HEMAAPAPUB|52=20170912-17:04:38.613|56=TRAX|10=166|8=FIXT.1.1|9=59|35=0|34=123|49=HEMAAPAPUB|52=20170912-17:05:08.756|56=TRAX|10=173|8=FIXT.1.1|9=59|35=0|34=124|49=HEMAAPAPUB|52=20170912-17:05:38.890|56=TRAX|10=176|8=FIXT.1.1|9=59|35=0|34=125|49=HEMAAPAPUB|52=20170912-17:06:09.381|56=TRAX|10=171|8=FIXT.1.1|9=59|35=0|34=126|49=HEMAAPAPUB|52=20170912-17:06:39.418|56=TRAX|10=176|8=FIXT.1.1|9=59|35=0|34=127|49=HEMAAPAPUB|52=20170912-17:07:09.455|56=TRAX|10=176|8=FIXT.1.1|9=59|35=0|34=128|49=HEMAAPAPUB|52=20170912-17:07:39.940|56=TRAX|10=179|8=FIXT.1.1|9=59|35=0|34=129|49=HEMAAPAPUB|52=20170912-17:08:10.255|56=TRAX|10=169|8=FIXT.1.1|9=59|35=0|34=130|49=HEMAAPAPUB|52=20170912-17:08:40.256|56=TRAX|10=165|8=FIXT.1.1|9=59|35=0|34=131|49=HEMAAPAPUB|52=20170912-17:09:10.421|56=TRAX|10=158|8=FIXT.1.1|9=59|35=0|34=132|49=HEMAAPAPUB|52=20170912-17:09:40.425|56=TRAX|10=166|8=FIXT.1.1|9=59|35=0|34=133|49=HEMAAPAPUB|52=20170912-17:10:11.419|56=TRAX|10=160|8=FIXT.1.1|9=59|35=0|34=134|49=HEMAAPAPUB|52=20170912-17:10:41.427|56=TRAX|10=163|8=FIXT.1.1|9=59|35=0|34=135|49=HEMAAPAPUB|52=20170912-17:11:12.420|56=TRAX|10=156|8=FIXT.1.1|9=59|35=0|34=136|49=HEMAAPAPUB|52=20170912-17:11:42.420|56=TRAX|10=160|8=FIXT.1.1|9=59|35=0|34=137|49=HEMAAPAPUB|52=20170912-17:12:12.423|56=TRAX|10=162|8=FIXT.1.1|9=59|35=0|34=138|49=HEMAAPAPUB|52=20170912-17:12:42.424|56=TRAX|10=167|8=FIXT.1.1|9=59|35=0|34=139|49=HEMAAPAPUB|52=20170912-17:13:12.429|56=TRAX|10=171|8=FIXT.1.1|9=59|35=0|34=140|49=HEMAAPAPUB|52=20170912-17:13:43.429|56=TRAX|10=167|8=FIXT.1.1|9=59|35=0|34=141|49=HEMAAPAPUB|52=20170912-17:14:14.426|56=TRAX|10=164|8=FIXT.1.1|9=59|35=0|34=142|49=HEMAAPAPUB|52=20170912-17:14:44.426|56=TRAX|10=168|8=FIXT.1.1|9=59|35=0|34=143|49=HEMAAPAPUB|52=20170912-17:15:14.426|56=TRAX|10=167|8=FIXT.1.1|9=59|35=0|34=144|49=HEMAAPAPUB|52=20170912-17:15:44.427|56=TRAX|10=172|8=FIXT.1.1|9=59|35=0|34=145|49=HEMAAPAPUB|52=20170912-17:16:14.431|56=TRAX|10=166|8=FIXT.1.1|9=59|35=0|34=146|49=HEMAAPAPUB|52=20170912-17:16:44.433|56=TRAX|10=172|8=FIXT.1.1|9=59|35=0|34=147|49=HEMAAPAPUB|52=20170912-17:17:15.433|56=TRAX|10=172|8=FIXT.1.1|9=59|35=0|34=148|49=HEMAAPAPUB|52=20170912-17:17:45.437|56=TRAX|10=180|8=FIXT.1.1|9=59|35=0|34=149|49=HEMAAPAPUB|52=20170912-17:18:16.438|56=TRAX|10=181|8=FIXT.1.1|9=59|35=0|34=150|49=HEMAAPAPUB|52=20170912-17:18:46.438|56=TRAX|10=176|8=FIXT.1.1|9=59|35=0|34=151|49=HEMAAPAPUB|52=20170912-17:19:17.433|56=TRAX|10=171|8=FIXT.1.1|9=59|35=0|34=152|49=HEMAAPAPUB|52=20170912-17:19:47.437|56=TRAX|10=179|8=FIXT.1.1|9=59|35=0|34=153|49=HEMAAPAPUB|52=20170912-17:20:18.439|56=TRAX|10=172|8=FIXT.1.1|9=59|35=0|34=154|49=HEMAAPAPUB|52=20170912-17:20:48.441|56=TRAX|10=169|8=FIXT.1.1|9=59|35=0|34=155|49=HEMAAPAPUB|52=20170912-17:21:19.434|56=TRAX|10=171|8=FIXT.1.1|9=59|35=0|34=156|49=HEMAAPAPUB|52=20170912-17:21:49.439|56=TRAX|10=180|8=FIXT.1.1|9=59|35=0|34=157|49=HEMAAPAPUB|52=20170912-17:22:19.485|56=TRAX|10=180|8=FIXT.1.1|9=59|35=0|34=158|49=HEMAAPAPUB|52=20170912-17:22:50.094|56=TRAX|10=172|8=FIXT.1.1|9=59|35=0|34=159|49=HEMAAPAPUB|52=20170912-17:23:20.437|56=TRAX|10=172|8=FIXT.1.1|9=59|35=0|34=160|49=HEMAAPAPUB|52=20170912-17:23:50.440|56=TRAX|10=161|8=FIXT.1.1|9=59|35=0|34=161|49=HEMAAPAPUB|52=20170912-17:24:20.444|56=TRAX|10=164|8=FIXT.1.1|9=59|35=0|34=162|49=HEMAAPAPUB|52=20170912-17:24:50.447|56=TRAX|10=171|8=FIXT.1.1|9=59|35=0|34=163|49=HEMAAPAPUB|52=20170912-17:25:20.454|56=TRAX|10=168|8=FIXT.1.1|9=59|35=0|34=164|49=HEMAAPAPUB|52=20170912-17:25:50.856|56=TRAX|10=178|8=FIXT.1.1|9=59|35=0|34=165|49=HEMAAPAPUB|52=20170912-17:26:21.288|56=TRAX|10=177|8=FIXT.1.1|9=59|35=0|34=166|49=HEMAAPAPUB|52=20170912-17:26:51.446|56=TRAX|10=177|8=FIXT.1.1|9=59|35=0|34=167|49=HEMAAPAPUB|52=20170912-17:27:21.448|56=TRAX|10=178|8=FIXT.1.1|9=59|35=0|34=168|49=HEMAAPAPUB|52=20170912-17:27:51.448|56=TRAX|10=182|8=FIXT.1.1|9=59|35=0|34=169|49=HEMAAPAPUB|52=20170912-17:28:21.989|56=TRAX|10=191|8=FIXT.1.1|9=59|35=0|34=170|49=HEMAAPAPUB|52=20170912-17:28:52.162|56=TRAX|10=170|8=FIXT.1.1|9=59|35=0|34=171|49=HEMAAPAPUB|52=20170912-17:29:22.358|56=TRAX|10=176|8=FIXT.1.1|9=59|35=0|34=172|49=HEMAAPAPUB|52=20170912-17:29:52.448|56=TRAX|10=180|8=FIXT.1.1|9=59|35=0|34=173|49=HEMAAPAPUB|52=20170912-17:30:22.450|56=TRAX|10=163|8=FIXT.1.1|9=59|35=0|34=174|49=HEMAAPAPUB|52=20170912-17:30:52.451|56=TRAX|10=168|8=FIXT.1.1|9=59|35=0|34=175|49=HEMAAPAPUB|52=20170912-17:31:22.452|56=TRAX|10=168|8=FIXT.1.1|9=59|35=0|34=176|49=HEMAAPAPUB|52=20170912-17:31:52.455|56=TRAX|10=175|8=FIXT.1.1|9=59|35=0|34=177|49=HEMAAPAPUB|52=20170912-17:32:22.459|56=TRAX|10=178|8=FIXT.1.1|9=59|35=0|34=178|49=HEMAAPAPUB|52=20170912-17:32:52.459|56=TRAX|10=182|8=FIXT.1.1|9=59|35=0|34=179|49=HEMAAPAPUB|52=20170912-17:33:23.456|56=TRAX|10=179|8=FIXT.1.1|9=59|35=0|34=180|49=HEMAAPAPUB|52=20170912-17:33:53.456|56=TRAX|10=174|8=FIXT.1.1|9=59|35=0|34=181|49=HEMAAPAPUB|52=20170912-17:34:23.462|56=TRAX|10=170|8=FIXT.1.1|9=59|35=0|34=182|49=HEMAAPAPUB|52=20170912-17:34:54.462|56=TRAX|10=175|8=FIXT.1.1|9=59|35=0|34=183|49=HEMAAPAPUB|52=20170912-17:35:25.463|56=TRAX|10=176|8=FIXT.1.1|9=59|35=0|34=184|49=HEMAAPAPUB|52=20170912-17:35:56.463|56=TRAX|10=181|8=FIXT.1.1|9=59|35=0|34=185|49=HEMAAPAPUB|52=20170912-17:36:26.463|56=TRAX|10=180|8=FIXT.1.1|9=59|35=0|34=186|49=HEMAAPAPUB|52=20170912-17:36:57.463|56=TRAX|10=185|8=FIXT.1.1|9=59|35=0|34=187|49=HEMAAPAPUB|52=20170912-17:37:28.464|56=TRAX|10=186|8=FIXT.1.1|9=59|35=0|34=188|49=HEMAAPAPUB|52=20170912-17:37:59.458|56=TRAX|10=194|8=FIXT.1.1|9=59|35=0|34=189|49=HEMAAPAPUB|52=20170912-17:38:29.458|56=TRAX|10=193|8=FIXT.1.1|9=59|35=0|34=190|49=HEMAAPAPUB|52=20170912-17:39:00.468|56=TRAX|10=176|8=FIXT.1.1|9=59|35=0|34=191|49=HEMAAPAPUB|52=20170912-17:39:30.468|56=TRAX|10=180|8=FIXT.1.1|9=59|35=0|34=192|49=HEMAAPAPUB|52=20170912-17:40:01.464|56=TRAX|10=167|8=FIXT.1.1|9=59|35=0|34=193|49=HEMAAPAPUB|52=20170912-17:40:31.465|56=TRAX|10=172|8=FIXT.1.1|9=59|35=0|34=194|49=HEMAAPAPUB|52=20170912-17:41:02.465|56=TRAX|10=172|8=FIXT.1.1|9=59|35=0|34=195|49=HEMAAPAPUB|52=20170912-17:41:32.466|56=TRAX|10=177|8=FIXT.1.1|9=59|35=0|34=196|49=HEMAAPAPUB|52=20170912-17:42:02.471|56=TRAX|10=172|8=FIXT.1.1|9=59|35=0|34=197|49=HEMAAPAPUB|52=20170912-17:42:33.471|56=TRAX|10=177|8=FIXT.1.1|9=59|35=0|34=198|49=HEMAAPAPUB|52=20170912-17:43:04.473|56=TRAX|10=179|8=FIXT.1.1|9=59|35=0|34=199|49=HEMAAPAPUB|52=20170912-17:43:34.475|56=TRAX|10=185|8=FIXT.1.1|9=59|35=0|34=200|49=HEMAAPAPUB|52=20170912-17:44:05.468|56=TRAX|10=169|8=FIXT.1.1|9=59|35=0|34=201|49=HEMAAPAPUB|52=20170912-17:44:35.469|56=TRAX|10=174|8=FIXT.1.1|9=59|35=0|34=202|49=HEMAAPAPUB|52=20170912-17:45:05.475|56=TRAX|10=170|8=FIXT.1.1|9=59|35=0|34=203|49=HEMAAPAPUB|52=20170912-17:45:36.476|56=TRAX|10=176|8=FIXT.1.1|9=59|35=0|34=204|49=HEMAAPAPUB|52=20170912-17:46:07.451|56=TRAX|10=169|8=FIXT.1.1|9=59|35=0|34=205|49=HEMAAPAPUB|52=20170912-17:46:37.475|56=TRAX|10=179|8=FIXT.1.1|9=59|35=0|34=206|49=HEMAAPAPUB|52=20170912-17:47:07.476|56=TRAX|10=179|8=FIXT.1.1|9=59|35=0|34=207|49=HEMAAPAPUB|52=20170912-17:47:37.480|56=TRAX|10=178|8=FIXT.1.1|9=59|35=0|34=208|49=HEMAAPAPUB|52=20170912-17:48:07.480|56=TRAX|10=177|8=FIXT.1.1|9=59|35=0|34=209|49=HEMAAPAPUB|52=20170912-17:48:37.482|56=TRAX|10=183|8=FIXT.1.1|9=59|35=0|34=210|49=HEMAAPAPUB|52=20170912-17:49:07.483|56=TRAX|10=174|8=FIXT.1.1|9=59|35=0|34=211|49=HEMAAPAPUB|52=20170912-17:49:38.483|56=TRAX|10=179|8=FIXT.1.1|9=59|35=0|34=212|49=HEMAAPAPUB|52=20170912-17:50:09.484|56=TRAX|10=171|8=FIXT.1.1|9=59|35=0|34=213|49=HEMAAPAPUB|52=20170912-17:50:40.482|56=TRAX|10=165|8=FIXT.1.1|9=59|35=0|34=214|49=HEMAAPAPUB|52=20170912-17:51:11.482|56=TRAX|10=165|8=FIXT.1.1|9=59|35=0|34=215|49=HEMAAPAPUB|52=20170912-17:51:41.482|56=TRAX|10=169|8=FIXT.1.1|9=59|35=0|34=216|49=HEMAAPAPUB|52=20170912-17:52:11.483|56=TRAX|10=169|8=FIXT.1.1|9=59|35=0|34=217|49=HEMAAPAPUB|52=20170912-17:52:41.488|56=TRAX|10=178|8=FIXT.1.1|9=59|35=0|34=218|49=HEMAAPAPUB|52=20170912-17:53:12.484|56=TRAX|10=174|8=FIXT.1.1|9=59|35=0|34=219|49=HEMAAPAPUB|52=20170912-17:53:42.489|56=TRAX|10=183|8=FIXT.1.1|9=59|35=0|34=220|49=HEMAAPAPUB|52=20170912-17:54:13.490|56=TRAX|10=166|8=FIXT.1.1|9=59|35=0|34=221|49=HEMAAPAPUB|52=20170912-17:54:44.482|56=TRAX|10=172|8=FIXT.1.1|9=59|35=0|34=222|49=HEMAAPAPUB|52=20170912-17:55:14.487|56=TRAX|10=176|8=FIXT.1.1|9=59|35=0|34=223|49=HEMAAPAPUB|52=20170912-17:55:44.491|56=TRAX|10=175|8=FIXT.1.1|9=59|35=0|34=224|49=HEMAAPAPUB|52=20170912-17:56:15.489|56=TRAX|10=182|8=FIXT.1.1|9=59|35=0|34=225|49=HEMAAPAPUB|52=20170912-17:56:45.491|56=TRAX|10=179|8=FIXT.1.1|9=59|35=0|34=226|49=HEMAAPAPUB|52=20170912-17:57:15.495|56=TRAX|10=182|8=FIXT.1.1|9=59|35=0|34=227|49=HEMAAPAPUB|52=20170912-17:57:46.490|56=TRAX|10=182|8=FIXT.1.1|9=59|35=0|34=228|49=HEMAAPAPUB|52=20170912-17:58:16.490|56=TRAX|10=181|8=FIXT.1.1|9=59|35=0|34=229|49=HEMAAPAPUB|52=20170912-17:58:46.495|56=TRAX|10=190|8=FIXT.1.1|9=59|35=0|34=230|49=HEMAAPAPUB|52=20170912-17:59:17.494|56=TRAX|10=180|8=FIXT.1.1|9=59|35=0|34=231|49=HEMAAPAPUB|52=20170912-17:59:47.495|56=TRAX|10=185|8=FIXT.1.1|9=59|35=0|34=232|49=HEMAAPAPUB|52=20170912-18:00:17.498|56=TRAX|10=173|8=FIXT.1.1|9=59|35=0|34=233|49=HEMAAPAPUB|52=20170912-18:00:48.499|56=TRAX|10=179|8=FIXT.1.1|9=59|35=0|34=234|49=HEMAAPAPUB|52=20170912-18:01:19.497|56=TRAX|10=177|8=FIXT.1.1|9=59|35=0|34=235|49=HEMAAPAPUB|52=20170912-18:01:49.498|56=TRAX|10=182|8=FIXT.1.1|9=59|35=0|34=236|49=HEMAAPAPUB|52=20170912-18:02:20.502|56=TRAX|10=159|8=FIXT.1.1|9=59|35=0|34=237|49=HEMAAPAPUB|52=20170912-18:02:51.499|56=TRAX|10=179|8=FIXT.1.1|9=59|35=0|34=238|49=HEMAAPAPUB|52=20170912-18:03:21.501|56=TRAX|10=162|8=FIXT.1.1|9=59|35=0|34=239|49=HEMAAPAPUB|52=20170912-18:03:52.500|56=TRAX|10=166|8=FIXT.1.1|9=59|35=0|34=240|49=HEMAAPAPUB|52=20170912-18:04:22.505|56=TRAX|10=161|8=FIXT.1.1|9=59|35=0|34=241|49=HEMAAPAPUB|52=20170912-18:04:53.504|56=TRAX|10=165|8=FIXT.1.1|9=59|35=0|34=242|49=HEMAAPAPUB|52=20170912-18:05:24.501|56=TRAX|10=162|8=FIXT.1.1|9=59|35=0|34=243|49=HEMAAPAPUB|52=20170912-18:05:54.504|56=TRAX|10=169|8=FIXT.1.1|9=59|35=0|34=244|49=HEMAAPAPUB|52=20170912-18:06:25.507|56=TRAX|10=172|8=FIXT.1.1|9=59|35=0|34=245|49=HEMAAPAPUB|52=20170912-18:06:56.504|56=TRAX|10=174|8=FIXT.1.1|9=59|35=0|34=246|49=HEMAAPAPUB|52=20170912-18:07:26.508|56=TRAX|10=177|8=FIXT.1.1|9=59|35=0|34=247|49=HEMAAPAPUB|52=20170912-18:07:57.503|56=TRAX|10=177|8=FIXT.1.1|9=59|35=0|34=248|49=HEMAAPAPUB|52=20170912-18:08:28.503|56=TRAX|10=177|8=FIXT.1.1|9=59|35=0|34=249|49=HEMAAPAPUB|52=20170912-18:08:58.508|56=TRAX|10=186|8=FIXT.1.1|9=59|35=0|34=250|49=HEMAAPAPUB|52=20170912-18:09:28.510|56=TRAX|10=169|8=FIXT.1.1|9=59|35=0|34=251|49=HEMAAPAPUB|52=20170912-18:09:59.511|56=TRAX|10=175|8=FIXT.1.1|9=59|35=0|34=252|49=HEMAAPAPUB|52=20170912-18:10:30.473|56=TRAX|10=164|8=FIXT.1.1|9=59|35=0|34=253|49=HEMAAPAPUB|52=20170912-18:11:00.476|56=TRAX|10=166|8=FIXT.1.1|9=59|35=0|34=254|49=HEMAAPAPUB|52=20170912-18:11:30.515|56=TRAX|10=164|8=FIXT.1.1|9=59|35=0|34=255|49=HEMAAPAPUB|52=20170912-18:12:01.515|56=TRAX|10=164|8=FIXT.1.1|9=59|35=0|34=256|49=HEMAAPAPUB|52=20170912-18:12:32.509|56=TRAX|10=172|8=FIXT.1.1|9=59|35=0|34=257|49=HEMAAPAPUB|52=20170912-18:13:03.517|56=TRAX|10=171|8=FIXT.1.1|9=59|35=0|34=258|49=HEMAAPAPUB|52=20170912-18:13:34.516|56=TRAX|10=175|8=FIXT.1.1|9=59|35=0|34=259|49=HEMAAPAPUB|52=20170912-18:14:05.492|56=TRAX|10=178|8=FIXT.1.1|9=59|35=0|34=260|49=HEMAAPAPUB|52=20170912-18:14:35.493|56=TRAX|10=174|8=FIXT.1.1|9=59|35=0|34=261|49=HEMAAPAPUB|52=20170912-18:15:05.516|56=TRAX|10=169|8=FIXT.1.1|9=59|35=0|34=262|49=HEMAAPAPUB|52=20170912-18:15:35.517|56=TRAX|10=174|8=FIXT.1.1|9=59|35=0|34=263|49=HEMAAPAPUB|52=20170912-18:16:05.519|56=TRAX|10=175|8=FIXT.1.1|9=59|35=0|34=264|49=HEMAAPAPUB|52=20170912-18:16:35.523|56=TRAX|10=174|8=FIXT.1.1|9=59|35=0|34=265|49=HEMAAPAPUB|52=20170912-18:17:05.523|56=TRAX|10=173|8=FIXT.1.1|9=59|35=0|34=266|49=HEMAAPAPUB|52=20170912-18:17:36.522|56=TRAX|10=177|8=FIXT.1.1|9=59|35=0|34=267|49=HEMAAPAPUB|52=20170912-18:18:06.522|56=TRAX|10=176|8=FIXT.1.1|9=59|35=0|34=268|49=HEMAAPAPUB|52=20170912-18:18:36.523|56=TRAX|10=181|8=FIXT.1.1|9=59|35=0|34=269|49=HEMAAPAPUB|52=20170912-18:19:07.525|56=TRAX|10=183|8=FIXT.1.1|9=59|35=0|34=270|49=HEMAAPAPUB|52=20170912-18:19:38.523|56=TRAX|10=177|8=FIXT.1.1|9=59|35=0|34=271|49=HEMAAPAPUB|52=20170912-18:20:09.520|56=TRAX|10=165|8=FIXT.1.1|9=59|35=0|34=272|49=HEMAAPAPUB|52=20170912-18:20:39.525|56=TRAX|10=174|8=FIXT.1.1|9=59|35=0|34=273|49=HEMAAPAPUB|52=20170912-18:21:09.525|56=TRAX|10=173|8=FIXT.1.1|9=59|35=0|34=274|49=HEMAAPAPUB|52=20170912-18:21:40.526|56=TRAX|10=170|8=FIXT.1.1|9=59|35=0|34=275|49=HEMAAPAPUB|52=20170912-18:22:11.526|56=TRAX|10=170|8=FIXT.1.1|9=59|35=0|34=276|49=HEMAAPAPUB|52=20170912-18:22:41.531|56=TRAX|10=170|8=FIXT.1.1|9=59|35=0|34=277|49=HEMAAPAPUB|52=20170912-18:23:12.525|56=TRAX|10=173|8=FIXT.1.1|9=59|35=0|34=278|49=HEMAAPAPUB|52=20170912-18:23:42.527|56=TRAX|10=179|8=FIXT.1.1|9=59|35=0|34=279|49=HEMAAPAPUB|52=20170912-18:24:12.527|56=TRAX|10=178|8=FIXT.1.1|9=59|35=0|34=280|49=HEMAAPAPUB|52=20170912-18:24:42.533|56=TRAX|10=170|8=FIXT.1.1|9=59|35=0|34=281|49=HEMAAPAPUB|52=20170912-18:25:12.534|56=TRAX|10=170|8=FIXT.1.1|9=59|35=0|34=282|49=HEMAAPAPUB|52=20170912-18:25:43.531|56=TRAX|10=172|8=FIXT.1.1|9=59|35=0|34=283|49=HEMAAPAPUB|52=20170912-18:26:13.533|56=TRAX|10=173|8=FIXT.1.1|9=59|35=0|34=284|49=HEMAAPAPUB|52=20170912-18:26:44.532|56=TRAX|10=177|8=FIXT.1.1|9=59|35=0|34=285|49=HEMAAPAPUB|52=20170912-18:27:14.535|56=TRAX|10=179|8=FIXT.1.1|9=59|35=0|34=286|49=HEMAAPAPUB|52=20170912-18:27:44.535|56=TRAX|10=183|8=FIXT.1.1|9=59|35=0|34=287|49=HEMAAPAPUB|52=20170912-18:28:15.538|56=TRAX|10=186|8=FIXT.1.1|9=59|35=0|34=288|49=HEMAAPAPUB|52=20170912-18:28:46.537|56=TRAX|10=190|8=FIXT.1.1|9=59|35=0|34=289|49=HEMAAPAPUB|52=20170912-18:29:17.534|56=TRAX|10=187|8=FIXT.1.1|9=59|35=0|34=290|49=HEMAAPAPUB|52=20170912-18:29:47.540|56=TRAX|10=179|8=FIXT.1.1|9=59|35=0|34=291|49=HEMAAPAPUB|52=20170912-18:30:18.536|56=TRAX|10=175|8=FIXT.1.1|9=59|35=0|34=292|49=HEMAAPAPUB|52=20170912-18:30:48.536|56=TRAX|10=179|8=FIXT.1.1|9=59|35=0|34=293|49=HEMAAPAPUB|52=20170912-18:31:19.536|56=TRAX|10=179|8=FIXT.1.1|9=59|35=0|34=294|49=HEMAAPAPUB|52=20170912-18:31:49.542|56=TRAX|10=180|8=FIXT.1.1|9=59|35=0|34=295|49=HEMAAPAPUB|52=20170912-18:32:19.545|56=TRAX|10=182|8=FIXT.1.1|9=59|35=0|34=296|49=HEMAAPAPUB|52=20170912-18:32:50.519|56=TRAX|10=179|8=FIXT.1.1|9=59|35=0|34=297|49=HEMAAPAPUB|52=20170912-18:33:20.546|56=TRAX|10=178|8=FIXT.1.1|9=59|35=0|34=298|49=HEMAAPAPUB|52=20170912-18:33:51.547|56=TRAX|10=184|8=FIXT.1.1|9=59|35=0|34=299|49=HEMAAPAPUB|52=20170912-18:34:22.538|56=TRAX|10=184|8=FIXT.1.1|9=59|35=0|34=300|49=HEMAAPAPUB|52=20170912-18:34:52.542|56=TRAX|10=165|8=FIXT.1.1|9=59|35=0|34=301|49=HEMAAPAPUB|52=20170912-18:35:22.543|56=TRAX|10=165|8=FIXT.1.1|9=59|35=0|34=302|49=HEMAAPAPUB|52=20170912-18:35:53.550|56=TRAX|10=168|8=FIXT.1.1|9=59|35=0|34=303|49=HEMAAPAPUB|52=20170912-18:36:23.550|56=TRAX|10=167|8=FIXT.1.1|9=59|35=0|34=304|49=HEMAAPAPUB|52=20170912-18:36:53.550|56=TRAX|10=171|8=FIXT.1.1|9=59|35=0|34=305|49=HEMAAPAPUB|52=20170912-18:37:24.551|56=TRAX|10=172|8=FIXT.1.1|9=59|35=0|34=306|49=HEMAAPAPUB|52=20170912-18:37:55.550|56=TRAX|10=176|8=FIXT.1.1|9=59|35=0|34=307|49=HEMAAPAPUB|52=20170912-18:38:25.552|56=TRAX|10=177|8=FIXT.1.1|9=59|35=0|34=308|49=HEMAAPAPUB|52=20170912-18:38:56.552|56=TRAX|10=182|8=FIXT.1.1|9=59|35=0|34=309|49=HEMAAPAPUB|52=20170912-18:39:27.551|56=TRAX|10=181|8=FIXT.1.1|9=59|35=0|34=310|49=HEMAAPAPUB|52=20170912-18:39:57.556|56=TRAX|10=181|8=FIXT.1.1|9=59|35=0|34=311|49=HEMAAPAPUB|52=20170912-18:40:27.557|56=TRAX|10=172|8=FIXT.1.1|9=59|35=0|34=312|49=HEMAAPAPUB|52=20170912-18:40:58.553|56=TRAX|10=173|8=FIXT.1.1|9=59|35=0|34=313|49=HEMAAPAPUB|52=20170912-18:41:28.555|56=TRAX|10=174|8=FIXT.1.1|9=59|35=0|34=314|49=HEMAAPAPUB|52=20170912-18:41:58.558|56=TRAX|10=181|8=FIXT.1.1|9=59|35=0|34=315|49=HEMAAPAPUB|52=20170912-18:42:29.533|56=TRAX|10=174|8=FIXT.1.1|9=59|35=0|34=316|49=HEMAAPAPUB|52=20170912-18:42:59.559|56=TRAX|10=186|8=FIXT.1.1|9=59|35=0|34=317|49=HEMAAPAPUB|52=20170912-18:43:29.559|56=TRAX|10=185|8=FIXT.1.1|9=59|35=0|34=318|49=HEMAAPAPUB|52=20170912-18:44:00.479|56=TRAX|10=177|8=FIXT.1.1|9=59|35=0|34=319|49=HEMAAPAPUB|52=20170912-18:44:30.481|56=TRAX|10=174|8=FIXT.1.1|9=59|35=0|34=320|49=HEMAAPAPUB|52=20170912-18:45:00.491|56=TRAX|10=165|8=FIXT.1.1|9=59|35=0|34=321|49=HEMAAPAPUB|52=20170912-18:45:30.501|56=TRAX|10=161|8=FIXT.1.1|9=59|35=0|34=322|49=HEMAAPAPUB|52=20170912-18:46:00.562|56=TRAX|10=167|8=FIXT.1.1|9=59|35=0|34=323|49=HEMAAPAPUB|52=20170912-18:46:30.562|56=TRAX|10=171|8=FIXT.1.1|9=59|35=0|34=324|49=HEMAAPAPUB|52=20170912-18:47:01.563|56=TRAX|10=172|8=FIXT.1.1|9=59|35=0|34=325|49=HEMAAPAPUB|52=20170912-18:47:32.566|56=TRAX|10=180|8=FIXT.1.1|9=59|35=0|34=326|49=HEMAAPAPUB|52=20170912-18:48:03.562|56=TRAX|10=176|8=FIXT.1.1|9=59|35=0|34=327|49=HEMAAPAPUB|52=20170912-18:48:33.563|56=TRAX|10=181|8=FIXT.1.1|9=59|35=0|34=328|49=HEMAAPAPUB|52=20170912-18:49:03.566|56=TRAX|10=183|8=FIXT.1.1|9=59|35=0|34=329|49=HEMAAPAPUB|52=20170912-18:49:33.569|56=TRAX|10=190|8=FIXT.1.1|9=59|35=0|34=330|49=HEMAAPAPUB|52=20170912-18:50:04.568|56=TRAX|10=171|8=FIXT.1.1|9=59|35=0|34=331|49=HEMAAPAPUB|52=20170912-18:50:34.569|56=TRAX|10=176|8=FIXT.1.1|9=59|35=0|34=332|49=HEMAAPAPUB|52=20170912-18:51:05.570|56=TRAX|10=168|8=FIXT.1.1|9=59|35=0|34=333|49=HEMAAPAPUB|52=20170912-18:51:36.572|56=TRAX|10=175|8=FIXT.1.1|9=59|35=0|34=334|49=HEMAAPAPUB|52=20170912-18:52:06.574|56=TRAX|10=176|8=FIXT.1.1|9=59|35=0|34=335|49=HEMAAPAPUB|52=20170912-18:52:37.573|56=TRAX|10=180|8=FIXT.1.1|9=59|35=0|34=336|49=HEMAAPAPUB|52=20170912-18:53:08.572|56=TRAX|10=179|8=FIXT.1.1|9=59|35=0|34=337|49=HEMAAPAPUB|52=20170912-18:53:38.572|56=TRAX|10=183|8=FIXT.1.1|9=59|35=0|34=338|49=HEMAAPAPUB|52=20170912-18:54:08.576|56=TRAX|10=186|8=FIXT.1.1|9=59|35=0|34=339|49=HEMAAPAPUB|52=20170912-18:54:38.577|56=TRAX|10=191|8=FIXT.1.1|9=59|35=0|34=340|49=HEMAAPAPUB|52=20170912-18:55:09.575|56=TRAX|10=180|8=FIXT.1.1|9=59|35=0|34=341|49=HEMAAPAPUB|52=20170912-18:55:39.575|56=TRAX|10=184|8=FIXT.1.1|9=59|35=0|34=342|49=HEMAAPAPUB|52=20170912-18:56:10.552|56=TRAX|10=170|8=FIXT.1.1|9=59|35=0|34=343|49=HEMAAPAPUB|52=20170912-18:56:40.556|56=TRAX|10=178|8=FIXT.1.1|9=59|35=0|34=344|49=HEMAAPAPUB|52=20170912-18:57:10.573|56=TRAX|10=176|8=FIXT.1.1|9=59|35=0|34=345|49=HEMAAPAPUB|52=20170912-18:57:41.575|56=TRAX|10=183|8=FIXT.1.1|9=59|35=0|34=346|49=HEMAAPAPUB|52=20170912-18:58:11.576|56=TRAX|10=183|8=FIXT.1.1|9=59|35=0|34=347|49=HEMAAPAPUB|52=20170912-18:58:42.577|56=TRAX|10=189|8=FIXT.1.1|9=59|35=0|34=348|49=HEMAAPAPUB|52=20170912-18:59:12.582|56=TRAX|10=184|8=FIXT.1.1|9=59|35=0|34=349|49=HEMAAPAPUB|52=20170912-18:59:42.584|56=TRAX|10=190|8=FIXT.1.1|9=59|35=0|34=350|49=HEMAAPAPUB|52=20170912-19:00:13.580|56=TRAX|10=163|8=FIXT.1.1|9=59|35=0|34=351|49=HEMAAPAPUB|52=20170912-19:00:43.582|56=TRAX|10=169|8=FIXT.1.1|9=59|35=0|34=352|49=HEMAAPAPUB|52=20170912-19:01:13.583|56=TRAX|10=169|8=FIXT.1.1|9=59|35=0|34=353|49=HEMAAPAPUB|52=20170912-19:01:44.561|56=TRAX|10=170|8=FIXT.1.1|9=59|35=0|34=354|49=HEMAAPAPUB|52=20170912-19:02:14.586|56=TRAX|10=176|8=FIXT.1.1|9=59|35=0|34=355|49=HEMAAPAPUB|52=20170912-19:02:45.585|56=TRAX|10=180|8=FIXT.1.1|9=59|35=0|34=356|49=HEMAAPAPUB|52=20170912-19:03:15.590|56=TRAX|10=175|8=FIXT.1.1|9=59|35=0|34=357|49=HEMAAPAPUB|52=20170912-19:03:46.586|56=TRAX|10=185|8=FIXT.1.1|9=59|35=0|34=358|49=HEMAAPAPUB|52=20170912-19:04:16.588|56=TRAX|10=186|8=FIXT.1.1|9=59|35=0|34=359|49=HEMAAPAPUB|52=20170912-19:04:46.590|56=TRAX|10=183|8=FIXT.1.1|9=59|35=0|34=360|49=HEMAAPAPUB|52=20170912-19:05:16.593|56=TRAX|10=176|8=FIXT.1.1|9=59|35=0|34=361|49=HEMAAPAPUB|52=20170912-19:05:47.588|56=TRAX|10=185|8=FIXT.1.1|9=59|35=0|34=362|49=HEMAAPAPUB|52=20170912-19:06:18.591|56=TRAX|10=179|8=FIXT.1.1|9=59|35=0|34=363|49=HEMAAPAPUB|52=20170912-19:06:48.594|56=TRAX|10=186|8=FIXT.1.1|9=59|35=0|34=364|49=HEMAAPAPUB|52=20170912-19:07:19.593|56=TRAX|10=185|8=FIXT.1.1|9=59|35=0|34=365|49=HEMAAPAPUB|52=20170912-19:07:49.596|56=TRAX|10=192|8=FIXT.1.1|9=59|35=0|34=366|49=HEMAAPAPUB|52=20170912-19:08:20.589|56=TRAX|10=185|8=FIXT.1.1|9=59|35=0|34=367|49=HEMAAPAPUB|52=20170912-19:08:50.596|56=TRAX|10=187|8=FIXT.1.1|9=59|35=0|34=368|49=HEMAAPAPUB|52=20170912-19:09:21.598|56=TRAX|10=189|8=FIXT.1.1|9=59|35=0|34=369|49=HEMAAPAPUB|52=20170912-19:09:51.598|56=TRAX|10=193|8=FIXT.1.1|9=59|35=0|34=370|49=HEMAAPAPUB|52=20170912-19:10:21.599|56=TRAX|10=175|8=FIXT.1.1|9=59|35=0|34=371|49=HEMAAPAPUB|52=20170912-19:10:52.599|56=TRAX|10=180|8=FIXT.1.1|9=59|35=0|34=372|49=HEMAAPAPUB|52=20170912-19:11:23.598|56=TRAX|10=179|8=FIXT.1.1|9=59|35=0|34=373|49=HEMAAPAPUB|52=20170912-19:11:54.598|56=TRAX|10=184|8=FIXT.1.1|9=59|35=0|34=374|49=HEMAAPAPUB|52=20170912-19:12:25.600|56=TRAX|10=168|8=FIXT.1.1|9=59|35=0|34=375|49=HEMAAPAPUB|52=20170912-19:12:56.600|56=TRAX|10=173|8=FIXT.1.1|9=59|35=0|34=376|49=HEMAAPAPUB|52=20170912-19:13:27.578|56=TRAX|10=187|8=FIXT.1.1|9=59|35=0|34=377|49=HEMAAPAPUB|52=20170912-19:13:57.597|56=TRAX|10=192|8=FIXT.1.1|9=59|35=0|34=378|49=HEMAAPAPUB|52=20170912-19:14:27.601|56=TRAX|10=177|8=FIXT.1.1|9=59|35=0|34=379|49=HEMAAPAPUB|52=20170912-19:14:58.601|56=TRAX|10=182|8=FIXT.1.1|9=59|35=0|34=380|49=HEMAAPAPUB|52=20170912-19:15:28.606|56=TRAX|10=177|8=FIXT.1.1|9=59|35=0|34=381|49=HEMAAPAPUB|52=20170912-19:15:58.608|56=TRAX|10=183|8=FIXT.1.1|9=59|35=0|34=382|49=HEMAAPAPUB|52=20170912-19:16:29.582|56=TRAX|10=184|8=FIXT.1.1|9=59|35=0|34=383|49=HEMAAPAPUB|52=20170912-19:16:59.604|56=TRAX|10=183|8=FIXT.1.1|9=59|35=0|34=384|49=HEMAAPAPUB|52=20170912-19:17:29.610|56=TRAX|10=179|8=FIXT.1.1|9=59|35=0|34=385|49=HEMAAPAPUB|52=20170912-19:18:00.611|56=TRAX|10=171|8=FIXT.1.1|9=59|35=0|34=386|49=HEMAAPAPUB|52=20170912-19:18:30.611|56=TRAX|10=175|8=FIXT.1.1|9=59|35=0|34=387|49=HEMAAPAPUB|52=20170912-19:19:01.502|56=TRAX|10=174|8=FIXT.1.1|9=59|35=0|34=388|49=HEMAAPAPUB|52=20170912-19:19:31.614|56=TRAX|10=182|8=FIXT.1.1|9=59|35=0|34=389|49=HEMAAPAPUB|52=20170912-19:20:02.605|56=TRAX|10=173|8=FIXT.1.1|9=59|35=0|34=390|49=HEMAAPAPUB|52=20170912-19:20:32.610|56=TRAX|10=164|8=FIXT.1.1|9=59|35=0|34=391|49=HEMAAPAPUB|52=20170912-19:21:02.610|56=TRAX|10=163|8=FIXT.1.1|9=59|35=0|34=392|49=HEMAAPAPUB|52=20170912-19:21:33.608|56=TRAX|10=175|8=FIXT.1.1|9=59|35=0|34=393|49=HEMAAPAPUB|52=20170912-19:22:03.608|56=TRAX|10=174|8=FIXT.1.1|9=59|35=0|34=394|49=HEMAAPAPUB|52=20170912-19:22:33.613|56=TRAX|10=174|8=FIXT.1.1|9=59|35=0|34=395|49=HEMAAPAPUB|52=20170912-19:23:03.618|56=TRAX|10=178|8=FIXT.1.1|9=59|35=0|34=396|49=HEMAAPAPUB|52=20170912-19:23:34.610|56=TRAX|10=175|8=FIXT.1.1|9=59|35=0|34=397|49=HEMAAPAPUB|52=20170912-19:24:04.618|56=TRAX|10=182|8=FIXT.1.1|9=59|35=0|34=398|49=HEMAAPAPUB|52=20170912-19:24:34.618|56=TRAX|10=186|8=FIXT.1.1|9=59|35=0|34=399|49=HEMAAPAPUB|52=20170912-19:25:05.594|56=TRAX|10=189|8=FIXT.1.1|9=59|35=0|34=400|49=HEMAAPAPUB|52=20170912-19:25:35.604|56=TRAX|10=167|8=FIXT.1.1|9=59|35=0|34=401|49=HEMAAPAPUB|52=20170912-19:26:05.617|56=TRAX|10=170|8=FIXT.1.1|9=59|35=0|34=402|49=HEMAAPAPUB|52=20170912-19:26:36.616|56=TRAX|10=174|8=FIXT.1.1|9=59|35=0|34=403|49=HEMAAPAPUB|52=20170912-19:27:06.620|56=TRAX|10=168|8=FIXT.1.1|9=59|35=0|34=404|49=HEMAAPAPUB|52=20170912-19:27:36.620|56=TRAX|10=172|8=FIXT.1.1|9=59|35=0|34=405|49=HEMAAPAPUB|52=20170912-19:28:06.620|56=TRAX|10=171|8=FIXT.1.1|9=59|35=0|34=406|49=HEMAAPAPUB|52=20170912-19:28:36.622|56=TRAX|10=177|8=FIXT.1.1|9=59|35=0|34=407|49=HEMAAPAPUB|52=20170912-19:29:07.623|56=TRAX|10=178|8=FIXT.1.1|9=59|35=0|34=408|49=HEMAAPAPUB|52=20170912-19:29:38.626|56=TRAX|10=186|8=FIXT.1.1|9=59|35=0|34=409|49=HEMAAPAPUB|52=20170912-19:30:09.624|56=TRAX|10=175|8=FIXT.1.1|9=59|35=0|34=410|49=HEMAAPAPUB|52=20170912-19:30:40.625|56=TRAX|10=163|8=FIXT.1.1|9=59|35=0|34=411|49=HEMAAPAPUB|52=20170912-19:31:10.628|56=TRAX|10=165|8=FIXT.1.1|9=59|35=0|34=412|49=HEMAAPAPUB|52=20170912-19:31:41.630|56=TRAX|10=163|8=FIXT.1.1|9=59|35=0|34=413|49=HEMAAPAPUB|52=20170912-19:32:12.628|56=TRAX|10=170|8=FIXT.1.1|9=59|35=0|34=414|49=HEMAAPAPUB|52=20170912-19:32:42.628|56=TRAX|10=174|8=FIXT.1.1|9=59|35=0|34=415|49=HEMAAPAPUB|52=20170912-19:33:13.631|56=TRAX|10=168|8=FIXT.1.1|9=59|35=0|34=416|49=HEMAAPAPUB|52=20170912-19:33:44.634|56=TRAX|10=176|8=FIXT.1.1|9=59|35=0|34=417|49=HEMAAPAPUB|52=20170912-19:34:15.633|56=TRAX|10=175|8=FIXT.1.1|9=59|35=0|34=418|49=HEMAAPAPUB|52=20170912-19:34:46.632|56=TRAX|10=179|8=FIXT.1.1|9=59|35=0|34=419|49=HEMAAPAPUB|52=20170912-19:35:16.635|56=TRAX|10=181|8=FIXT.1.1|9=59|35=0|34=420|49=HEMAAPAPUB|52=20170912-19:35:47.610|56=TRAX|10=170|8=FIXT.1.1|9=59|35=0|34=421|49=HEMAAPAPUB|52=20170912-19:36:17.630|56=TRAX|10=171|8=FIXT.1.1|9=59|35=0|34=422|49=HEMAAPAPUB|52=20170912-19:36:47.631|56=TRAX|10=176|8=FIXT.1.1|9=59|35=0|34=423|49=HEMAAPAPUB|52=20170912-19:37:18.630|56=TRAX|10=175|8=FIXT.1.1|9=59|35=0|34=424|49=HEMAAPAPUB|52=20170912-19:37:48.633|56=TRAX|10=182|8=FIXT.1.1|9=59|35=0|34=425|49=HEMAAPAPUB|52=20170912-19:38:19.640|56=TRAX|10=180|8=FIXT.1.1|9=59|35=0|34=426|49=HEMAAPAPUB|52=20170912-19:38:50.615|56=TRAX|10=178|8=FIXT.1.1|9=59|35=0|34=427|49=HEMAAPAPUB|52=20170912-19:39:20.633|56=TRAX|10=177|8=FIXT.1.1|9=59|35=0|34=428|49=HEMAAPAPUB|52=20170912-19:39:50.638|56=TRAX|10=186|8=FIXT.1.1|9=59|35=0|34=429|49=HEMAAPAPUB|52=20170912-19:40:20.643|56=TRAX|10=172|8=FIXT.1.1|9=59|35=0|34=430|49=HEMAAPAPUB|52=20170912-19:40:51.639|56=TRAX|10=173|8=FIXT.1.1|9=59|35=0|34=431|49=HEMAAPAPUB|52=20170912-19:41:22.642|56=TRAX|10=167|8=FIXT.1.1|9=59|35=0|34=432|49=HEMAAPAPUB|52=20170912-19:41:52.646|56=TRAX|10=175|8=FIXT.1.1|9=59|35=0|34=433|49=HEMAAPAPUB|52=20170912-19:42:23.643|56=TRAX|10=172|8=FIXT.1.1|9=59|35=0|34=434|49=HEMAAPAPUB|52=20170912-19:42:54.642|56=TRAX|10=176|8=FIXT.1.1|9=59|35=0|34=435|49=HEMAAPAPUB|52=20170912-19:43:24.644|56=TRAX|10=177|8=FIXT.1.1|9=59|35=0|34=436|49=HEMAAPAPUB|52=20170912-19:43:54.648|56=TRAX|10=185|8=FIXT.1.1|9=59|35=0|34=437|49=HEMAAPAPUB|52=20170912-19:44:24.649|56=TRAX|10=185|8=FIXT.1.1|9=59|35=0|34=438|49=HEMAAPAPUB|52=20170912-19:44:54.650|56=TRAX|10=181|8=FIXT.1.1|9=59|35=0|34=439|49=HEMAAPAPUB|52=20170912-19:45:25.642|56=TRAX|10=182|8=FIXT.1.1|9=59|35=0|34=440|49=HEMAAPAPUB|52=20170912-19:45:55.647|56=TRAX|10=182|8=FIXT.1.1|9=59|35=0|34=441|49=HEMAAPAPUB|52=20170912-19:46:25.653|56=TRAX|10=178|8=FIXT.1.1|9=59|35=0|34=442|49=HEMAAPAPUB|52=20170912-19:46:56.652|56=TRAX|10=182|8=FIXT.1.1|9=59|35=0|34=443|49=HEMAAPAPUB|52=20170912-19:47:27.645|56=TRAX|10=184|8=FIXT.1.1|9=59|35=0|34=444|49=HEMAAPAPUB|52=20170912-19:47:57.651|56=TRAX|10=185|8=FIXT.1.1|9=59|35=0|34=445|49=HEMAAPAPUB|52=20170912-19:48:28.655|56=TRAX|10=189|8=FIXT.1.1|9=59|35=0|34=446|49=HEMAAPAPUB|52=20170912-19:48:59.653|56=TRAX|10=192|8=FIXT.1.1|9=59|35=0|34=447|49=HEMAAPAPUB|52=20170912-19:49:29.653|56=TRAX|10=191|8=FIXT.1.1|9=59|35=0|34=448|49=HEMAAPAPUB|52=20170912-19:50:00.650|56=TRAX|10=170|8=FIXT.1.1|9=59|35=0|34=449|49=HEMAAPAPUB|52=20170912-19:50:30.656|56=TRAX|10=180|8=FIXT.1.1|9=59|35=0|34=450|49=HEMAAPAPUB|52=20170912-19:51:01.490|56=TRAX|10=167|8=FIXT.1.1|9=59|35=0|34=451|49=HEMAAPAPUB|52=20170912-19:51:31.496|56=TRAX|10=177|8=FIXT.1.1|9=59|35=0|34=452|49=HEMAAPAPUB|52=20170912-19:52:01.504|56=TRAX|10=166|8=FIXT.1.1|9=59|35=0|34=453|49=HEMAAPAPUB|52=20170912-19:52:31.520|56=TRAX|10=168|8=FIXT.1.1|9=59|35=0|34=454|49=HEMAAPAPUB|52=20170912-19:53:01.537|56=TRAX|10=175|8=FIXT.1.1|9=59|35=0|34=455|49=HEMAAPAPUB|52=20170912-19:53:31.654|56=TRAX|10=179|8=FIXT.1.1|9=59|35=0|34=456|49=HEMAAPAPUB|52=20170912-19:54:01.655|56=TRAX|10=179|8=FIXT.1.1|9=59|35=0|34=457|49=HEMAAPAPUB|52=20170912-19:54:31.661|56=TRAX|10=180|8=FIXT.1.1|9=59|35=0|34=458|49=HEMAAPAPUB|52=20170912-19:55:02.640|56=TRAX|10=177|8=FIXT.1.1|9=59|35=0|34=459|49=HEMAAPAPUB|52=20170912-19:55:32.657|56=TRAX|10=189|8=FIXT.1.1|9=59|35=0|34=460|49=HEMAAPAPUB|52=20170912-19:56:02.658|56=TRAX|10=180|8=FIXT.1.1|9=59|35=0|34=461|49=HEMAAPAPUB|52=20170912-19:56:32.661|56=TRAX|10=178|8=FIXT.1.1|9=59|35=0|34=462|49=HEMAAPAPUB|52=20170912-19:57:02.662|56=TRAX|10=178|8=FIXT.1.1|9=59|35=0|34=463|49=HEMAAPAPUB|52=20170912-19:57:33.660|56=TRAX|10=181|8=FIXT.1.1|9=59|35=0|34=464|49=HEMAAPAPUB|52=20170912-19:58:03.663|56=TRAX|10=183|8=FIXT.1.1|9=59|35=0|34=465|49=HEMAAPAPUB|52=20170912-19:58:33.664|56=TRAX|10=188|8=FIXT.1.1|9=59|35=0|34=466|49=HEMAAPAPUB|52=20170912-19:59:03.664|56=TRAX|10=187|8=FIXT.1.1|9=59|35=0|34=467|49=HEMAAPAPUB|52=20170912-19:59:33.667|56=TRAX|10=194|8=FIXT.1.1|9=59|35=0|34=468|49=HEMAAPAPUB|52=20170912-20:00:03.670|56=TRAX|10=164|8=FIXT.1.1|9=59|35=0|34=469|49=HEMAAPAPUB|52=20170912-20:00:33.673|56=TRAX|10=171|8=FIXT.1.1|9=59|35=0|34=470|49=HEMAAPAPUB|52=20170912-20:01:03.673|56=TRAX|10=161|8=FIXT.1.1|9=59|35=0|34=471|49=HEMAAPAPUB|52=20170912-20:01:34.670|56=TRAX|10=163|8=FIXT.1.1|9=59|35=0|34=472|49=HEMAAPAPUB|52=20170912-20:02:04.674|56=TRAX|10=166|8=FIXT.1.1|9=59|35=0|34=473|49=HEMAAPAPUB|52=20170912-20:02:34.675|56=TRAX|10=171|8=FIXT.1.1|9=59|35=0|34=474|49=HEMAAPAPUB|52=20170912-20:03:05.668|56=TRAX|10=173|8=FIXT.1.1|9=59|35=0|34=475|49=HEMAAPAPUB|52=20170912-20:03:35.672|56=TRAX|10=172|8=FIXT.1.1|9=59|35=0|34=476|49=HEMAAPAPUB|52=20170912-20:04:05.674|56=TRAX|10=173|8=FIXT.1.1|9=59|35=0|34=477|49=HEMAAPAPUB|52=20170912-20:04:36.669|56=TRAX|10=182|8=FIXT.1.1|9=59|35=0|34=478|49=HEMAAPAPUB|52=20170912-20:05:06.671|56=TRAX|10=174|8=FIXT.1.1|9=59|35=0|34=479|49=HEMAAPAPUB|52=20170912-20:05:36.680|56=TRAX|10=178|8=FIXT.1.1|9=59|35=0|34=480|49=HEMAAPAPUB|52=20170912-20:06:07.672|56=TRAX|10=170|8=FIXT.1.1|9=59|35=0|34=481|49=HEMAAPAPUB|52=20170912-20:06:37.681|56=TRAX|10=174|8=FIXT.1.1|9=59|35=0|34=482|49=HEMAAPAPUB|52=20170912-20:07:07.683|56=TRAX|10=175|8=FIXT.1.1|9=59|35=0|34=483|49=HEMAAPAPUB|52=20170912-20:07:38.679|56=TRAX|10=185|8=FIXT.1.1|9=59|35=0|34=484|49=HEMAAPAPUB|52=20170912-20:08:09.684|56=TRAX|10=181|8=FIXT.1.1|9=59|35=0|34=485|49=HEMAAPAPUB|52=20170912-20:08:39.685|56=TRAX|10=186|8=FIXT.1.1|9=59|35=0|34=486|49=HEMAAPAPUB|52=20170912-20:09:09.685|56=TRAX|10=185|8=FIXT.1.1|9=59|35=0|34=487|49=HEMAAPAPUB|52=20170912-20:09:40.682|56=TRAX|10=178|8=FIXT.1.1|9=59|35=0|34=488|49=HEMAAPAPUB|52=20170912-20:10:11.673|56=TRAX|10=169|8=FIXT.1.1|9=59|35=0|34=489|49=HEMAAPAPUB|52=20170912-20:10:42.686|56=TRAX|10=178|8=FIXT.1.1|9=59|35=0|34=490|49=HEMAAPAPUB|52=20170912-20:11:13.683|56=TRAX|10=166|8=FIXT.1.1|9=59|35=0|34=491|49=HEMAAPAPUB|52=20170912-20:11:43.683|56=TRAX|10=170|8=FIXT.1.1|9=59|35=0|34=492|49=HEMAAPAPUB|52=20170912-20:12:13.690|56=TRAX|10=167|8=FIXT.1.1|9=59|35=0|34=493|49=HEMAAPAPUB|52=20170912-20:12:44.690|56=TRAX|10=172|8=FIXT.1.1|9=59|35=0|34=494|49=HEMAAPAPUB|52=20170912-20:13:15.688|56=TRAX|10=179|8=FIXT.1.1|9=59|35=0|34=495|49=HEMAAPAPUB|52=20170912-20:13:45.688|56=TRAX|10=183|8=FIXT.1.1|9=59|35=0|34=496|49=HEMAAPAPUB|52=20170912-20:14:15.690|56=TRAX|10=175|8=FIXT.1.1|9=59|35=0|34=497|49=HEMAAPAPUB|52=20170912-20:14:46.692|56=TRAX|10=182|8=FIXT.1.1|9=59|35=0|34=498|49=HEMAAPAPUB|52=20170912-20:15:17.694|56=TRAX|10=184|8=FIXT.1.1|9=59|35=0|34=499|49=HEMAAPAPUB|52=20170912-20:15:48.678|56=TRAX|10=191|8=FIXT.1.1|9=59|35=0|34=500|49=HEMAAPAPUB|52=20170912-20:16:18.690|56=TRAX|10=166|8=FIXT.1.1|9=59|35=0|34=501|49=HEMAAPAPUB|52=20170912-20:16:48.695|56=TRAX|10=175|8=FIXT.1.1|9=59|35=0|34=502|49=HEMAAPAPUB|52=20170912-20:17:18.697|56=TRAX|10=176|8=FIXT.1.1|9=59|35=0|34=503|49=HEMAAPAPUB|52=20170912-20:17:49.689|56=TRAX|10=182|8=FIXT.1.1|9=59|35=0|34=504|49=HEMAAPAPUB|52=20170912-20:18:19.693|56=TRAX|10=176|8=FIXT.1.1|9=59|35=0|34=505|49=HEMAAPAPUB|52=20170912-20:18:49.696|56=TRAX|10=183|8=FIXT.1.1|9=59|35=0|34=506|49=HEMAAPAPUB|52=20170912-20:19:19.699|56=TRAX|10=185|8=FIXT.1.1|9=59|35=0|34=507|49=HEMAAPAPUB|52=20170912-20:19:50.695|56=TRAX|10=177|8=FIXT.1.1|9=59|35=0|34=508|49=HEMAAPAPUB|52=20170912-20:20:20.695|56=TRAX|10=167|8=FIXT.1.1|9=59|35=0|34=509|49=HEMAAPAPUB|52=20170912-20:20:50.698|56=TRAX|10=174|8=FIXT.1.1|9=59|35=0|34=510|49=HEMAAPAPUB|52=20170912-20:21:21.698|56=TRAX|10=165|8=FIXT.1.1|9=59|35=0|34=511|49=HEMAAPAPUB|52=20170912-20:21:52.704|56=TRAX|10=158|8=FIXT.1.1|9=59|35=0|34=512|49=HEMAAPAPUB|52=20170912-20:22:23.695|56=TRAX|10=167|8=FIXT.1.1|9=59|35=0|34=513|49=HEMAAPAPUB|52=20170912-20:22:53.697|56=TRAX|10=173|8=FIXT.1.1|9=59|35=0|34=514|49=HEMAAPAPUB|52=20170912-20:23:23.701|56=TRAX|10=158|8=FIXT.1.1|9=59|35=0|34=515|49=HEMAAPAPUB|52=20170912-20:23:53.701|56=TRAX|10=162|8=FIXT.1.1|9=59|35=0|34=516|49=HEMAAPAPUB|52=20170912-20:24:24.707|56=TRAX|10=168|8=FIXT.1.1|9=59|35=0|34=517|49=HEMAAPAPUB|52=20170912-20:24:54.708|56=TRAX|10=173|8=FIXT.1.1|9=59|35=0|34=518|49=HEMAAPAPUB|52=20170912-20:25:24.708|56=TRAX|10=172|8=FIXT.1.1|9=59|35=0|34=519|49=HEMAAPAPUB|52=20170912-20:25:54.710|56=TRAX|10=169|8=FIXT.1.1|9=59|35=0|34=520|49=HEMAAPAPUB|52=20170912-20:26:25.702|56=TRAX|10=161|8=FIXT.1.1|9=59|35=0|34=521|49=HEMAAPAPUB|52=20170912-20:26:55.703|56=TRAX|10=166|8=FIXT.1.1|9=59|35=0|34=522|49=HEMAAPAPUB|52=20170912-20:27:25.709|56=TRAX|10=171|8=FIXT.1.1|9=59|35=0|34=523|49=HEMAAPAPUB|52=20170912-20:27:55.709|56=TRAX|10=175|8=FIXT.1.1|9=59|35=0|34=524|49=HEMAAPAPUB|52=20170912-20:28:26.700|56=TRAX|10=166|8=FIXT.1.1|9=59|35=0|34=525|49=HEMAAPAPUB|52=20170912-20:28:56.712|56=TRAX|10=173|8=FIXT.1.1|9=59|35=0|34=526|49=HEMAAPAPUB|52=20170912-20:29:27.707|56=TRAX|10=177|8=FIXT.1.1|9=59|35=0|34=527|49=HEMAAPAPUB|52=20170912-20:29:58.712|56=TRAX|10=178|8=FIXT.1.1|9=59|35=0|34=528|49=HEMAAPAPUB|52=20170912-20:30:29.695|56=TRAX|10=179|8=FIXT.1.1|9=59|35=0|34=529|49=HEMAAPAPUB|52=20170912-20:30:59.716|56=TRAX|10=177|8=FIXT.1.1|9=59|35=0|34=530|49=HEMAAPAPUB|52=20170912-20:31:30.710|56=TRAX|10=153|8=FIXT.1.1|9=59|35=0|34=531|49=HEMAAPAPUB|52=20170912-20:32:00.716|56=TRAX|10=158|8=FIXT.1.1|9=59|35=0|34=532|49=HEMAAPAPUB|52=20170912-20:32:31.502|56=TRAX|10=156|8=FIXT.1.1|9=59|35=0|34=533|49=HEMAAPAPUB|52=20170912-20:33:01.521|56=TRAX|10=156|8=FIXT.1.1|9=59|35=0|34=534|49=HEMAAPAPUB|52=20170912-20:33:31.712|56=TRAX|10=162|8=FIXT.1.1|9=59|35=0|34=535|49=HEMAAPAPUB|52=20170912-20:34:01.712|56=TRAX|10=161|8=FIXT.1.1|9=59|35=0|34=536|49=HEMAAPAPUB|52=20170912-20:34:31.722|56=TRAX|10=166|8=FIXT.1.1|9=59|35=0|34=537|49=HEMAAPAPUB|52=20170912-20:35:02.722|56=TRAX|10=166|8=FIXT.1.1|9=59|35=0|34=538|49=HEMAAPAPUB|52=20170912-20:35:33.717|56=TRAX|10=175|8=FIXT.1.1|9=59|35=0|34=539|49=HEMAAPAPUB|52=20170912-20:36:03.721|56=TRAX|10=169|8=FIXT.1.1|9=59|35=0|34=540|49=HEMAAPAPUB|52=20170912-20:36:33.724|56=TRAX|10=167|8=FIXT.1.1|9=59|35=0|34=541|49=HEMAAPAPUB|52=20170912-20:37:04.722|56=TRAX|10=165|8=FIXT.1.1|9=59|35=0|34=542|49=HEMAAPAPUB|52=20170912-20:37:35.723|56=TRAX|10=171|8=FIXT.1.1|9=59|35=0|34=543|49=HEMAAPAPUB|52=20170912-20:38:05.727|56=TRAX|10=174|8=FIXT.1.1|9=59|35=0|34=544|49=HEMAAPAPUB|52=20170912-20:38:36.719|56=TRAX|10=180|8=FIXT.1.1|9=59|35=0|34=545|49=HEMAAPAPUB|52=20170912-20:39:06.726|56=TRAX|10=177|8=FIXT.1.1|9=59|35=0|34=546|49=HEMAAPAPUB|52=20170912-20:39:37.721|56=TRAX|10=177|8=FIXT.1.1|9=59|35=0|34=547|49=HEMAAPAPUB|52=20170912-20:40:07.726|56=TRAX|10=172|8=FIXT.1.1|9=59|35=0|34=548|49=HEMAAPAPUB|52=20170912-20:40:38.705|56=TRAX|10=174|8=FIXT.1.1|9=59|35=0|34=549|49=HEMAAPAPUB|52=20170912-20:41:08.724|56=TRAX|10=174|8=FIXT.1.1|9=59|35=0|34=550|49=HEMAAPAPUB|52=20170912-20:41:39.726|56=TRAX|10=172|8=FIXT.1.1|9=59|35=0|34=551|49=HEMAAPAPUB|52=20170912-20:42:09.731|56=TRAX|10=167|8=FIXT.1.1|9=59|35=0|34=552|49=HEMAAPAPUB|52=20170912-20:42:39.734|56=TRAX|10=174|8=FIXT.1.1|9=59|35=0|34=553|49=HEMAAPAPUB|52=20170912-20:43:10.732|56=TRAX|10=163|8=FIXT.1.1|9=59|35=0|34=554|49=HEMAAPAPUB|52=20170912-20:43:40.734|56=TRAX|10=169|8=FIXT.1.1|9=59|35=0|34=555|49=HEMAAPAPUB|52=20170912-20:44:11.728|56=TRAX|10=172|8=FIXT.1.1|9=59|35=0|34=556|49=HEMAAPAPUB|52=20170912-20:44:41.737|56=TRAX|10=176|8=FIXT.1.1|9=59|35=0|34=557|49=HEMAAPAPUB|52=20170912-20:45:12.729|56=TRAX|10=177|8=FIXT.1.1|9=59|35=0|34=558|49=HEMAAPAPUB|52=20170912-20:45:42.733|56=TRAX|10=176|8=FIXT.1.1|9=59|35=0|34=559|49=HEMAAPAPUB|52=20170912-20:46:12.733|56=TRAX|10=175|8=FIXT.1.1|9=59|35=0|34=560|49=HEMAAPAPUB|52=20170912-20:46:42.734|56=TRAX|10=171|8=FIXT.1.1|9=59|35=0|34=561|49=HEMAAPAPUB|52=20170912-20:47:13.739|56=TRAX|10=176|8=FIXT.1.1|9=59|35=0|34=562|49=HEMAAPAPUB|52=20170912-20:47:44.738|56=TRAX|10=180|8=FIXT.1.1|9=59|35=0|34=563|49=HEMAAPAPUB|52=20170912-20:48:15.735|56=TRAX|10=177|8=FIXT.1.1|9=59|35=0|34=564|49=HEMAAPAPUB|52=20170912-20:48:46.722|56=TRAX|10=178|8=FIXT.1.1|9=59|35=0|34=565|49=HEMAAPAPUB|52=20170912-20:49:16.743|56=TRAX|10=180|8=FIXT.1.1|9=59|35=0|34=566|49=HEMAAPAPUB|52=20170912-20:49:47.744|56=TRAX|10=186|8=FIXT.1.1|9=59|35=0|34=567|49=HEMAAPAPUB|52=20170912-20:50:18.742|56=TRAX|10=175|8=FIXT.1.1|9=59|35=0|34=568|49=HEMAAPAPUB|52=20170912-20:50:49.744|56=TRAX|10=182|8=FIXT.1.1|9=59|35=0|34=569|49=HEMAAPAPUB|52=20170912-20:51:20.740|56=TRAX|10=169|8=FIXT.1.1|9=59|35=0|34=570|49=HEMAAPAPUB|52=20170912-20:51:51.741|56=TRAX|10=166|8=FIXT.1.1|9=59|35=0|34=571|49=HEMAAPAPUB|52=20170912-20:52:21.744|56=TRAX|10=168|8=FIXT.1.1|9=59|35=0|34=572|49=HEMAAPAPUB|52=20170912-20:52:51.744|56=TRAX|10=172|8=FIXT.1.1|9=59|35=0|34=573|49=HEMAAPAPUB|52=20170912-20:53:21.748|56=TRAX|10=175|8=FIXT.1.1|9=59|35=0|34=574|49=HEMAAPAPUB|52=20170912-20:53:52.748|56=TRAX|10=180|8=FIXT.1.1|9=59|35=0|34=575|49=HEMAAPAPUB|52=20170912-20:54:22.750|56=TRAX|10=172|8=FIXT.1.1|9=59|35=0|34=576|49=HEMAAPAPUB|52=20170912-20:54:53.747|56=TRAX|10=183|8=FIXT.1.1|9=59|35=0|34=577|49=HEMAAPAPUB|52=20170912-20:55:24.743|56=TRAX|10=179|8=FIXT.1.1|9=59|35=0|34=578|49=HEMAAPAPUB|52=20170912-20:55:54.748|56=TRAX|10=188|8=FIXT.1.1|9=59|35=0|34=579|49=HEMAAPAPUB|52=20170912-20:56:24.750|56=TRAX|10=180|8=FIXT.1.1|9=59|35=0|34=580|49=HEMAAPAPUB|52=20170912-20:56:54.754|56=TRAX|10=179|8=FIXT.1.1|9=59|35=0|34=581|49=HEMAAPAPUB|52=20170912-20:57:25.749|56=TRAX|10=183|8=FIXT.1.1|9=59|35=0|34=582|49=HEMAAPAPUB|52=20170912-20:57:55.752|56=TRAX|10=181|8=FIXT.1.1|9=59|35=0|34=583|49=HEMAAPAPUB|52=20170912-20:58:25.754|56=TRAX|10=182|8=FIXT.1.1|9=59|35=0|34=584|49=HEMAAPAPUB|52=20170912-20:58:56.757|56=TRAX|10=190|8=FIXT.1.1|9=59|35=0|34=585|49=HEMAAPAPUB|52=20170912-20:59:27.735|56=TRAX|10=186|8=FIXT.1.1|9=59|35=0|34=586|49=HEMAAPAPUB|52=20170912-20:59:57.755|56=TRAX|10=192|8=FIXT.1.1|9=59|35=0|34=587|49=HEMAAPAPUB|52=20170912-21:00:28.755|56=TRAX|10=178|8=FIXT.1.1|9=59|35=0|34=588|49=HEMAAPAPUB|52=20170912-21:00:59.741|56=TRAX|10=178|8=FIXT.1.1|9=59|35=0|34=589|49=HEMAAPAPUB|52=20170912-21:01:29.754|56=TRAX|10=181|8=FIXT.1.1|9=59|35=0|34=590|49=HEMAAPAPUB|52=20170912-21:02:00.754|56=TRAX|10=163|8=FIXT.1.1|9=59|35=0|34=591|49=HEMAAPAPUB|52=20170912-21:02:30.758|56=TRAX|10=171|8=FIXT.1.1|9=59|35=0|34=592|49=HEMAAPAPUB|52=20170912-21:03:01.513|56=TRAX|10=160|8=FIXT.1.1|9=59|35=0|34=593|49=HEMAAPAPUB|52=20170912-21:03:31.534|56=TRAX|10=167|8=FIXT.1.1|9=59|35=0|34=594|49=HEMAAPAPUB|52=20170912-21:04:01.534|56=TRAX|10=166|8=FIXT.1.1|9=59|35=0|34=595|49=HEMAAPAPUB|52=20170912-21:04:31.748|56=TRAX|10=177|8=FIXT.1.1|9=59|35=0|34=596|49=HEMAAPAPUB|52=20170912-21:05:01.757|56=TRAX|10=176|8=FIXT.1.1|9=59|35=0|34=597|49=HEMAAPAPUB|52=20170912-21:05:31.759|56=TRAX|10=182|8=FIXT.1.1|9=59|35=0|34=598|49=HEMAAPAPUB|52=20170912-21:06:02.766|56=TRAX|10=180|8=FIXT.1.1|9=59|35=0|34=599|49=HEMAAPAPUB|52=20170912-21:06:33.760|56=TRAX|10=179|8=FIXT.1.1|9=59|35=0|34=600|49=HEMAAPAPUB|52=20170912-21:07:03.766|56=TRAX|10=166|8=FIXT.1.1|9=59|35=0|34=601|49=HEMAAPAPUB|52=20170912-21:07:34.769|56=TRAX|10=174|8=FIXT.1.1|9=59|35=0|34=602|49=HEMAAPAPUB|52=20170912-21:08:05.751|56=TRAX|10=165|8=FIXT.1.1|9=59|35=0|34=603|49=HEMAAPAPUB|52=20170912-21:08:35.761|56=TRAX|10=170|8=FIXT.1.1|9=59|35=0|34=604|49=HEMAAPAPUB|52=20170912-21:09:05.764|56=TRAX|10=172|8=FIXT.1.1|9=59|35=0|34=605|49=HEMAAPAPUB|52=20170912-21:09:35.768|56=TRAX|10=180|8=FIXT.1.1|9=59|35=0|34=606|49=HEMAAPAPUB|52=20170912-21:10:06.768|56=TRAX|10=171|8=FIXT.1.1|9=59|35=0|34=607|49=HEMAAPAPUB|52=20170912-21:10:36.768|56=TRAX|10=175|8=FIXT.1.1|9=59|35=0|34=608|49=HEMAAPAPUB|52=20170912-21:11:06.770|56=TRAX|10=167|8=FIXT.1.1|9=59|35=0|34=609|49=HEMAAPAPUB|52=20170912-21:11:37.771|56=TRAX|10=173|8=FIXT.1.1|9=59|35=0|34=610|49=HEMAAPAPUB|52=20170912-21:12:08.769|56=TRAX|10=171|8=FIXT.1.1|9=59|35=0|34=611|49=HEMAAPAPUB|52=20170912-21:12:39.775|56=TRAX|10=173|8=FIXT.1.1|9=59|35=0|34=612|49=HEMAAPAPUB|52=20170912-21:13:10.769|56=TRAX|10=167|8=FIXT.1.1|9=59|35=0|34=613|49=HEMAAPAPUB|52=20170912-21:13:40.772|56=TRAX|10=165|8=FIXT.1.1|9=59|35=0|34=614|49=HEMAAPAPUB|52=20170912-21:14:10.776|56=TRAX|10=168|8=FIXT.1.1|9=59|35=0|34=615|49=HEMAAPAPUB|52=20170912-21:14:40.777|56=TRAX|10=173|8=FIXT.1.1|9=59|35=0|34=616|49=HEMAAPAPUB|52=20170912-21:15:11.777|56=TRAX|10=173|8=FIXT.1.1|9=59|35=0|34=617|49=HEMAAPAPUB|52=20170912-21:15:42.781|56=TRAX|10=173|8=FIXT.1.1|9=59|35=0|34=618|49=HEMAAPAPUB|52=20170912-21:16:13.772|56=TRAX|10=173|8=FIXT.1.1|9=59|35=0|34=619|49=HEMAAPAPUB|52=20170912-21:16:43.779|56=TRAX|10=184|8=FIXT.1.1|9=59|35=0|34=620|49=HEMAAPAPUB|52=20170912-21:17:13.781|56=TRAX|10=167|8=FIXT.1.1|9=59|35=0|34=621|49=HEMAAPAPUB|52=20170912-21:17:44.764|56=TRAX|10=173|8=FIXT.1.1|9=59|35=0|34=622|49=HEMAAPAPUB|52=20170912-21:18:14.780|56=TRAX|10=170|8=FIXT.1.1|9=59|35=0|34=623|49=HEMAAPAPUB|52=20170912-21:18:44.781|56=TRAX|10=175|8=FIXT.1.1|9=59|35=0|34=624|49=HEMAAPAPUB|52=20170912-21:19:15.780|56=TRAX|10=174|8=FIXT.1.1|9=59|35=0|34=625|49=HEMAAPAPUB|52=20170912-21:19:45.784|56=TRAX|10=182|8=FIXT.1.1|9=59|35=0|34=626|49=HEMAAPAPUB|52=20170912-21:20:16.785|56=TRAX|10=174|8=FIXT.1.1|9=59|35=0|34=627|49=HEMAAPAPUB|52=20170912-21:20:47.767|56=TRAX|10=179|8=FIXT.1.1|9=59|35=0|34=628|49=HEMAAPAPUB|52=20170912-21:21:17.772|56=TRAX|10=174|8=FIXT.1.1|9=59|35=0|34=629|49=HEMAAPAPUB|52=20170912-21:21:48.787|56=TRAX|10=185|8=FIXT.1.1|9=59|35=0|34=630|49=HEMAAPAPUB|52=20170912-21:22:19.790|56=TRAX|10=170|8=FIXT.1.1|9=59|35=0|34=631|49=HEMAAPAPUB|52=20170912-21:22:50.766|56=TRAX|10=169|8=FIXT.1.1|9=59|35=0|34=632|49=HEMAAPAPUB|52=20170912-21:23:20.791|56=TRAX|10=166|8=FIXT.1.1|9=59|35=0|34=633|49=HEMAAPAPUB|52=20170912-21:23:51.789|56=TRAX|10=178|8=FIXT.1.1|9=59|35=0|34=634|49=HEMAAPAPUB|52=20170912-21:24:21.789|56=TRAX|10=177|8=FIXT.1.1|9=59|35=0|34=635|49=HEMAAPAPUB|52=20170912-21:24:51.790|56=TRAX|10=173|8=FIXT.1.1|9=59|35=0|34=636|49=HEMAAPAPUB|52=20170912-21:25:21.795|56=TRAX|10=177|8=FIXT.1.1|9=59|35=0|34=637|49=HEMAAPAPUB|52=20170912-21:25:52.788|56=TRAX|10=184|8=FIXT.1.1|9=59|35=0|34=638|49=HEMAAPAPUB|52=20170912-21:26:22.791|56=TRAX|10=177|8=FIXT.1.1|9=59|35=0|34=639|49=HEMAAPAPUB|52=20170912-21:26:52.794|56=TRAX|10=184|8=FIXT.1.1|9=59|35=0|34=640|49=HEMAAPAPUB|52=20170912-21:27:22.794|56=TRAX|10=174|8=FIXT.1.1|9=59|35=0|34=641|49=HEMAAPAPUB|52=20170912-21:27:53.793|56=TRAX|10=178|8=FIXT.1.1|9=59|35=0|34=642|49=HEMAAPAPUB|52=20170912-21:28:23.798|56=TRAX|10=182|8=FIXT.1.1|9=59|35=0|34=643|49=HEMAAPAPUB|52=20170912-21:28:54.794|56=TRAX|10=183|8=FIXT.1.1|9=59|35=0|34=644|49=HEMAAPAPUB|52=20170912-21:29:25.801|56=TRAX|10=172|8=FIXT.1.1|9=59|35=0|34=645|49=HEMAAPAPUB|52=20170912-21:29:56.784|56=TRAX|10=187|8=FIXT.1.1|9=59|35=0|34=646|49=HEMAAPAPUB|52=20170912-21:30:26.798|56=TRAX|10=182|8=FIXT.1.1|9=59|35=0|34=647|49=HEMAAPAPUB|52=20170912-21:30:57.800|56=TRAX|10=171|8=FIXT.1.1|9=59|35=0|34=648|49=HEMAAPAPUB|52=20170912-21:31:28.797|56=TRAX|10=186|8=FIXT.1.1|9=59|35=0|34=649|49=HEMAAPAPUB|52=20170912-21:31:58.802|56=TRAX|10=177|8=FIXT.1.1|9=59|35=0|34=650|49=HEMAAPAPUB|52=20170912-21:32:29.798|56=TRAX|10=182|8=FIXT.1.1|9=59|35=0|34=651|49=HEMAAPAPUB|52=20170912-21:32:59.804|56=TRAX|10=174|8=FIXT.1.1|9=59|35=0|34=652|49=HEMAAPAPUB|52=20170912-21:33:30.800|56=TRAX|10=161|8=FIXT.1.1|9=59|35=0|34=653|49=HEMAAPAPUB|52=20170912-21:34:00.803|56=TRAX|10=163|8=FIXT.1.1|9=59|35=0|34=654|49=HEMAAPAPUB|52=20170912-21:34:30.808|56=TRAX|10=172|8=FIXT.1.1|9=59|35=0|34=655|49=HEMAAPAPUB|52=20170912-21:35:01.525|56=TRAX|10=168|8=FIXT.1.1|9=59|35=0|34=656|49=HEMAAPAPUB|52=20170912-21:35:31.808|56=TRAX|10=176|8=FIXT.1.1|9=59|35=0|34=657|49=HEMAAPAPUB|52=20170912-21:36:01.809|56=TRAX|10=176|8=FIXT.1.1|9=59|35=0|34=658|49=HEMAAPAPUB|52=20170912-21:36:31.809|56=TRAX|10=180|8=FIXT.1.1|9=59|35=0|34=659|49=HEMAAPAPUB|52=20170912-21:37:01.809|56=TRAX|10=179|8=FIXT.1.1|9=59|35=0|34=660|49=HEMAAPAPUB|52=20170912-21:37:31.811|56=TRAX|10=167|8=FIXT.1.1|9=59|35=0|34=661|49=HEMAAPAPUB|52=20170912-21:38:02.810|56=TRAX|10=166|8=FIXT.1.1|9=59|35=0|34=662|49=HEMAAPAPUB|52=20170912-21:38:33.805|56=TRAX|10=175|8=FIXT.1.1|9=59|35=0|34=663|49=HEMAAPAPUB|52=20170912-21:39:03.814|56=TRAX|10=174|8=FIXT.1.1|9=59|35=0|34=664|49=HEMAAPAPUB|52=20170912-21:39:33.815|56=TRAX|10=179|8=FIXT.1.1|9=59|35=0|34=665|49=HEMAAPAPUB|52=20170912-21:40:04.814|56=TRAX|10=169|8=FIXT.1.1|9=59|35=0|34=666|49=HEMAAPAPUB|52=20170912-21:40:35.816|56=TRAX|10=176|8=FIXT.1.1|9=59|35=0|34=667|49=HEMAAPAPUB|52=20170912-21:41:06.815|56=TRAX|10=175|8=FIXT.1.1|9=59|35=0|34=668|49=HEMAAPAPUB|52=20170912-21:41:36.818|56=TRAX|10=182|8=FIXT.1.1|9=59|35=0|34=669|49=HEMAAPAPUB|52=20170912-21:42:06.818|56=TRAX|10=181|8=FIXT.1.1|9=59|35=0|34=670|49=HEMAAPAPUB|52=20170912-21:42:36.819|56=TRAX|10=177|8=FIXT.1.1|9=59|35=0|34=671|49=HEMAAPAPUB|52=20170912-21:43:07.811|56=TRAX|10=169|8=FIXT.1.1|9=59|35=0|34=672|49=HEMAAPAPUB|52=20170912-21:43:37.818|56=TRAX|10=180|8=FIXT.1.1|9=59|35=0|34=673|49=HEMAAPAPUB|52=20170912-21:44:08.820|56=TRAX|10=173|8=FIXT.1.1|9=59|35=0|34=674|49=HEMAAPAPUB|52=20170912-21:44:39.816|56=TRAX|10=183|8=FIXT.1.1|9=59|35=0|34=675|49=HEMAAPAPUB|52=20170912-21:45:09.819|56=TRAX|10=185|8=FIXT.1.1|9=59|35=0|34=676|49=HEMAAPAPUB|52=20170912-21:45:39.820|56=TRAX|10=181|8=FIXT.1.1|9=59|35=0|34=677|49=HEMAAPAPUB|52=20170912-21:46:10.824|56=TRAX|10=176|8=FIXT.1.1|9=59|35=0|34=678|49=HEMAAPAPUB|52=20170912-21:46:40.826|56=TRAX|10=182|8=FIXT.1.1|9=59|35=0|34=679|49=HEMAAPAPUB|52=20170912-21:47:10.827|56=TRAX|10=182|8=FIXT.1.1|9=59|35=0|34=680|49=HEMAAPAPUB|52=20170912-21:47:41.816|56=TRAX|10=176|8=FIXT.1.1|9=59|35=0|34=681|49=HEMAAPAPUB|52=20170912-21:48:11.820|56=TRAX|10=170|8=FIXT.1.1|9=59|35=0|34=682|49=HEMAAPAPUB|52=20170912-21:48:41.825|56=TRAX|10=179|8=FIXT.1.1|9=59|35=0|34=683|49=HEMAAPAPUB|52=20170912-21:49:11.827|56=TRAX|10=180|8=FIXT.1.1|9=59|35=0|34=684|49=HEMAAPAPUB|52=20170912-21:49:42.824|56=TRAX|10=182|8=FIXT.1.1|9=59|35=0|34=685|49=HEMAAPAPUB|52=20170912-21:50:13.826|56=TRAX|10=175|8=FIXT.1.1|9=59|35=0|34=686|49=HEMAAPAPUB|52=20170912-21:50:44.828|56=TRAX|10=182|8=FIXT.1.1|9=59|35=0|34=687|49=HEMAAPAPUB|52=20170912-21:51:15.829|56=TRAX|10=183|8=FIXT.1.1|9=59|35=0|34=688|49=HEMAAPAPUB|52=20170912-21:51:46.830|56=TRAX|10=180|8=FIXT.1.1|9=59|35=0|34=689|49=HEMAAPAPUB|52=20170912-21:52:16.832|56=TRAX|10=181|8=FIXT.1.1|9=59|35=0|34=690|49=HEMAAPAPUB|52=20170912-21:52:47.814|56=TRAX|10=177|8=FIXT.1.1|9=59|35=0|34=691|49=HEMAAPAPUB|52=20170912-21:53:17.831|56=TRAX|10=175|8=FIXT.1.1|9=59|35=0|34=692|49=HEMAAPAPUB|52=20170912-21:53:48.835|56=TRAX|10=184|8=FIXT.1.1|9=59|35=0|34=693|49=HEMAAPAPUB|52=20170912-21:54:19.830|56=TRAX|10=179|8=FIXT.1.1|9=59|35=0|34=694|49=HEMAAPAPUB|52=20170912-21:54:49.832|56=TRAX|10=185|8=FIXT.1.1|9=59|35=0|34=695|49=HEMAAPAPUB|52=20170912-21:55:19.835|56=TRAX|10=187|8=FIXT.1.1|9=59|35=0|34=696|49=HEMAAPAPUB|52=20170912-21:55:50.839|56=TRAX|10=187|8=FIXT.1.1|9=59|35=0|34=697|49=HEMAAPAPUB|52=20170912-21:56:21.832|56=TRAX|10=180|8=FIXT.1.1|9=59|35=0|34=698|49=HEMAAPAPUB|52=20170912-21:56:51.832|56=TRAX|10=184|8=FIXT.1.1|9=59|35=0|34=699|49=HEMAAPAPUB|52=20170912-21:57:21.840|56=TRAX|10=182|8=FIXT.1.1|9=59|35=0|34=700|49=HEMAAPAPUB|52=20170912-21:57:52.839|56=TRAX|10=177|8=FIXT.1.1|9=59|35=0|34=701|49=HEMAAPAPUB|52=20170912-21:58:22.841|56=TRAX|10=169|8=FIXT.1.1|9=59|35=0|34=702|49=HEMAAPAPUB|52=20170912-21:58:52.842|56=TRAX|10=174|8=FIXT.1.1|9=59|35=0|34=703|49=HEMAAPAPUB|52=20170912-21:59:22.843|56=TRAX|10=174|8=FIXT.1.1|9=59|35=0|34=704|49=HEMAAPAPUB|52=20170912-21:59:52.844|56=TRAX|10=179|8=FIXT.1.1|9=59|35=0|34=705|49=HEMAAPAPUB|52=20170912-22:00:23.846|56=TRAX|10=167|8=FIXT.1.1|9=59|35=0|34=706|49=HEMAAPAPUB|52=20170912-22:00:54.838|56=TRAX|10=173|8=FIXT.1.1|9=59|35=0|34=707|49=HEMAAPAPUB|52=20170912-22:01:24.842|56=TRAX|10=167|8=FIXT.1.1|9=59|35=0|34=708|49=HEMAAPAPUB|52=20170912-22:01:55.848|56=TRAX|10=178|8=FIXT.1.1|9=59|35=0|34=709|49=HEMAAPAPUB|52=20170912-22:02:26.847|56=TRAX|10=177|8=FIXT.1.1|9=59|35=0|34=710|49=HEMAAPAPUB|52=20170912-22:02:56.848|56=TRAX|10=173|8=FIXT.1.1|9=59|35=0|34=711|49=HEMAAPAPUB|52=20170912-22:03:26.849|56=TRAX|10=173|8=FIXT.1.1|9=59|35=0|34=712|49=HEMAAPAPUB|52=20170912-22:03:56.849|56=TRAX|10=177|8=FIXT.1.1|9=59|35=0|34=713|49=HEMAAPAPUB|52=20170912-22:04:27.848|56=TRAX|10=176|8=FIXT.1.1|9=59|35=0|34=714|49=HEMAAPAPUB|52=20170912-22:04:57.851|56=TRAX|10=174|8=FIXT.1.1|9=59|35=0|34=715|49=HEMAAPAPUB|52=20170912-22:05:27.853|56=TRAX|10=175|8=FIXT.1.1|9=59|35=0|34=716|49=HEMAAPAPUB|52=20170912-22:05:57.854|56=TRAX|10=180|8=FIXT.1.1|9=59|35=0|34=717|49=HEMAAPAPUB|52=20170912-22:06:28.850|56=TRAX|10=176|8=FIXT.1.1|9=59|35=0|34=718|49=HEMAAPAPUB|52=20170912-22:06:58.854|56=TRAX|10=184|8=FIXT.1.1|9=59|35=0|34=719|49=HEMAAPAPUB|52=20170912-22:07:29.853|56=TRAX|10=183|8=FIXT.1.1|9=59|35=0|34=720|49=HEMAAPAPUB|52=20170912-22:08:00.849|56=TRAX|10=170|8=FIXT.1.1|9=59|35=0|34=721|49=HEMAAPAPUB|52=20170912-22:08:30.850|56=TRAX|10=166|8=FIXT.1.1|9=59|35=0|34=722|49=HEMAAPAPUB|52=20170912-22:09:01.550|56=TRAX|10=163|8=FIXT.1.1|9=59|35=0|34=723|49=HEMAAPAPUB|52=20170912-22:09:31.857|56=TRAX|10=177|8=FIXT.1.1|9=59|35=0|34=724|49=HEMAAPAPUB|52=20170912-22:10:02.855|56=TRAX|10=166|8=FIXT.1.1|9=59|35=0|34=725|49=HEMAAPAPUB|52=20170912-22:10:32.860|56=TRAX|10=166|8=FIXT.1.1|9=59|35=0|34=726|49=HEMAAPAPUB|52=20170912-22:11:03.834|56=TRAX|10=167|8=FIXT.1.1|9=59|35=0|34=727|49=HEMAAPAPUB|52=20170912-22:11:33.854|56=TRAX|10=173|8=FIXT.1.1|9=59|35=0|34=728|49=HEMAAPAPUB|52=20170912-22:12:03.862|56=TRAX|10=171|8=FIXT.1.1|9=59|35=0|34=729|49=HEMAAPAPUB|52=20170912-22:12:34.863|56=TRAX|10=177|8=FIXT.1.1|9=59|35=0|34=730|49=HEMAAPAPUB|52=20170912-22:13:05.864|56=TRAX|10=169|8=FIXT.1.1|9=59|35=0|34=731|49=HEMAAPAPUB|52=20170912-22:13:36.864|56=TRAX|10=174|8=FIXT.1.1|9=59|35=0|34=732|49=HEMAAPAPUB|52=20170912-22:14:07.862|56=TRAX|10=172|8=FIXT.1.1|9=59|35=0|34=733|49=HEMAAPAPUB|52=20170912-22:14:38.846|56=TRAX|10=179|8=FIXT.1.1|9=59|35=0|34=734|49=HEMAAPAPUB|52=20170912-22:15:08.862|56=TRAX|10=176|8=FIXT.1.1|9=59|35=0|34=735|49=HEMAAPAPUB|52=20170912-22:15:38.867|56=TRAX|10=185|8=FIXT.1.1|9=59|35=0|34=736|49=HEMAAPAPUB|52=20170912-22:16:09.866|56=TRAX|10=184|8=FIXT.1.1|9=59|35=0|34=737|49=HEMAAPAPUB|52=20170912-22:16:40.868|56=TRAX|10=182|8=FIXT.1.1|9=59|35=0|34=738|49=HEMAAPAPUB|52=20170912-22:17:11.869|56=TRAX|10=183|8=FIXT.1.1|9=59|35=0|34=739|49=HEMAAPAPUB|52=20170912-22:17:42.848|56=TRAX|10=185|8=FIXT.1.1|9=59|35=0|34=740|49=HEMAAPAPUB|52=20170912-22:18:12.872|56=TRAX|10=172|8=FIXT.1.1|9=59|35=0|34=741|49=HEMAAPAPUB|52=20170912-22:18:42.873|56=TRAX|10=177|8=FIXT.1.1|9=59|35=0|34=742|49=HEMAAPAPUB|52=20170912-22:19:13.865|56=TRAX|10=178|8=FIXT.1.1|9=59|35=0|34=743|49=HEMAAPAPUB|52=20170912-22:19:43.866|56=TRAX|10=183|8=FIXT.1.1|9=59|35=0|34=744|49=HEMAAPAPUB|52=20170912-22:20:14.857|56=TRAX|10=174|8=FIXT.1.1|9=59|35=0|34=745|49=HEMAAPAPUB|52=20170912-22:20:44.873|56=TRAX|10=176|8=FIXT.1.1|9=59|35=0|34=746|49=HEMAAPAPUB|52=20170912-22:21:14.874|56=TRAX|10=176|8=FIXT.1.1|9=59|35=0|34=747|49=HEMAAPAPUB|52=20170912-22:21:44.875|56=TRAX|10=181|8=FIXT.1.1|9=59|35=0|34=748|49=HEMAAPAPUB|52=20170912-22:22:15.870|56=TRAX|10=176|8=FIXT.1.1|9=59|35=0|34=749|49=HEMAAPAPUB|52=20170912-22:22:46.851|56=TRAX|10=180|8=FIXT.1.1|9=59|35=0|34=750|49=HEMAAPAPUB|52=20170912-22:23:16.874|56=TRAX|10=175|8=FIXT.1.1|9=59|35=0|34=751|49=HEMAAPAPUB|52=20170912-22:23:46.878|56=TRAX|10=183|8=FIXT.1.1|9=59|35=0|34=752|49=HEMAAPAPUB|52=20170912-22:24:17.875|56=TRAX|10=180|8=FIXT.1.1|9=59|35=0|34=753|49=HEMAAPAPUB|52=20170912-22:24:47.877|56=TRAX|10=186|8=FIXT.1.1|9=59|35=0|34=754|49=HEMAAPAPUB|52=20170912-22:25:17.881|56=TRAX|10=180|8=FIXT.1.1|9=59|35=0|34=755|49=HEMAAPAPUB|52=20170912-22:25:48.881|56=TRAX|10=185|8=FIXT.1.1|9=59|35=0|34=756|49=HEMAAPAPUB|52=20170912-22:26:19.877|56=TRAX|10=190|8=FIXT.1.1|9=59|35=0|34=757|49=HEMAAPAPUB|52=20170912-22:26:50.869|56=TRAX|10=187|8=FIXT.1.1|9=59|35=0|34=758|49=HEMAAPAPUB|52=20170912-22:27:20.881|56=TRAX|10=180|8=FIXT.1.1|9=59|35=0|34=759|49=HEMAAPAPUB|52=20170912-22:27:51.880|56=TRAX|10=184|8=FIXT.1.1|9=59|35=0|34=760|49=HEMAAPAPUB|52=20170912-22:28:21.881|56=TRAX|10=175|8=FIXT.1.1|9=59|35=0|34=761|49=HEMAAPAPUB|52=20170912-22:28:52.878|56=TRAX|10=186|8=FIXT.1.1|9=59|35=0|34=762|49=HEMAAPAPUB|52=20170912-22:29:22.886|56=TRAX|10=184|8=FIXT.1.1|9=59|35=0|34=763|49=HEMAAPAPUB|52=20170912-22:29:52.886|56=TRAX|10=188|8=FIXT.1.1|9=59|35=0|34=764|49=HEMAAPAPUB|52=20170912-22:30:22.886|56=TRAX|10=178|8=FIXT.1.1|9=59|35=0|34=765|49=HEMAAPAPUB|52=20170912-22:30:53.885|56=TRAX|10=182|8=FIXT.1.1|9=59|35=0|34=766|49=HEMAAPAPUB|52=20170912-22:31:23.890|56=TRAX|10=177|8=FIXT.1.1|9=59|35=0|34=767|49=HEMAAPAPUB|52=20170912-22:31:54.891|56=TRAX|10=183|8=FIXT.1.1|9=59|35=0|34=768|49=HEMAAPAPUB|52=20170912-22:32:25.884|56=TRAX|10=185|8=FIXT.1.1|9=59|35=0|34=769|49=HEMAAPAPUB|52=20170912-22:32:55.893|56=TRAX|10=189|8=FIXT.1.1|9=59|35=0|34=770|49=HEMAAPAPUB|52=20170912-22:33:25.893|56=TRAX|10=179|8=FIXT.1.1|9=59|35=0|34=771|49=HEMAAPAPUB|52=20170912-22:33:56.878|56=TRAX|10=187|8=FIXT.1.1|9=59|35=0|34=772|49=HEMAAPAPUB|52=20170912-22:34:26.886|56=TRAX|10=185|8=FIXT.1.1|9=59|35=0|34=773|49=HEMAAPAPUB|52=20170912-22:34:57.893|56=TRAX|10=188|8=FIXT.1.1|9=59|35=0|34=774|49=HEMAAPAPUB|52=20170912-22:35:28.891|56=TRAX|10=186|8=FIXT.1.1|9=59|35=0|34=775|49=HEMAAPAPUB|52=20170912-22:35:58.897|56=TRAX|10=196|8=FIXT.1.1|9=59|35=0|34=776|49=HEMAAPAPUB|52=20170912-22:36:29.896|56=TRAX|10=195|8=FIXT.1.1|9=59|35=0|34=777|49=HEMAAPAPUB|52=20170912-22:37:00.899|56=TRAX|10=189|8=FIXT.1.1|9=59|35=0|34=778|49=HEMAAPAPUB|52=20170912-22:37:31.547|56=TRAX|10=184|8=FIXT.1.1|9=59|35=0|34=779|49=HEMAAPAPUB|52=20170912-22:38:01.554|56=TRAX|10=181|8=FIXT.1.1|9=59|35=0|34=780|49=HEMAAPAPUB|52=20170912-22:38:31.554|56=TRAX|10=176|8=FIXT.1.1|9=59|35=0|34=781|49=HEMAAPAPUB|52=20170912-22:39:01.567|56=TRAX|10=179|8=FIXT.1.1|9=59|35=0|34=782|49=HEMAAPAPUB|52=20170912-22:39:31.901|56=TRAX|10=175|8=FIXT.1.1|9=59|35=0|34=783|49=HEMAAPAPUB|52=20170912-22:40:02.895|56=TRAX|10=178|8=FIXT.1.1|9=59|35=0|34=784|49=HEMAAPAPUB|52=20170912-22:40:33.902|56=TRAX|10=172|8=FIXT.1.1|9=59|35=0|34=785|49=HEMAAPAPUB|52=20170912-22:41:03.902|56=TRAX|10=171|8=FIXT.1.1|9=59|35=0|34=786|49=HEMAAPAPUB|52=20170912-22:41:34.898|56=TRAX|10=190|8=FIXT.1.1|9=59|35=0|34=787|49=HEMAAPAPUB|52=20170912-22:42:04.898|56=TRAX|10=189|8=FIXT.1.1|9=59|35=0|34=788|49=HEMAAPAPUB|52=20170912-22:42:34.907|56=TRAX|10=184|8=FIXT.1.1|9=59|35=0|34=789|49=HEMAAPAPUB|52=20170912-22:43:05.902|56=TRAX|10=179|8=FIXT.1.1|9=59|35=0|34=790|49=HEMAAPAPUB|52=20170912-22:43:35.905|56=TRAX|10=177|8=FIXT.1.1|9=59|35=0|34=791|49=HEMAAPAPUB|52=20170912-22:44:05.909|56=TRAX|10=180|8=FIXT.1.1|9=59|35=0|34=792|49=HEMAAPAPUB|52=20170912-22:44:36.902|56=TRAX|10=178|8=FIXT.1.1|9=59|35=0|34=793|49=HEMAAPAPUB|52=20170912-22:45:06.907|56=TRAX|10=182|8=FIXT.1.1|9=59|35=0|34=794|49=HEMAAPAPUB|52=20170912-22:45:36.910|56=TRAX|10=180|8=FIXT.1.1|9=59|35=0|34=795|49=HEMAAPAPUB|52=20170912-22:46:06.910|56=TRAX|10=179|8=FIXT.1.1|9=59|35=0|34=796|49=HEMAAPAPUB|52=20170912-22:46:37.912|56=TRAX|10=186|8=FIXT.1.1|9=59|35=0|34=797|49=HEMAAPAPUB|52=20170912-22:47:08.899|56=TRAX|10=200|8=FIXT.1.1|9=59|35=0|34=798|49=HEMAAPAPUB|52=20170912-22:47:38.908|56=TRAX|10=195|8=FIXT.1.1|9=59|35=0|34=799|49=HEMAAPAPUB|52=20170912-22:48:09.908|56=TRAX|10=195|8=FIXT.1.1|9=59|35=0|34=800|49=HEMAAPAPUB|52=20170912-22:48:39.916|56=TRAX|10=180|8=FIXT.1.1|9=59|35=0|34=801|49=HEMAAPAPUB|52=20170912-22:49:10.913|56=TRAX|10=168|8=FIXT.1.1|9=59|35=0|34=802|49=HEMAAPAPUB|52=20170912-22:49:41.914|56=TRAX|10=174|8=FIXT.1.1|9=59|35=0|34=803|49=HEMAAPAPUB|52=20170912-22:50:11.914|56=TRAX|10=164|8=FIXT.1.1|9=59|35=0|34=804|49=HEMAAPAPUB|52=20170912-22:50:42.916|56=TRAX|10=171|8=FIXT.1.1|9=59|35=0|34=805|49=HEMAAPAPUB|52=20170912-22:51:13.918|56=TRAX|10=173|8=FIXT.1.1|9=59|35=0|34=806|49=HEMAAPAPUB|52=20170912-22:51:43.919|56=TRAX|10=178|8=FIXT.1.1|9=59|35=0|34=807|49=HEMAAPAPUB|52=20170912-22:52:13.920|56=TRAX|10=169|8=FIXT.1.1|9=59|35=0|34=808|49=HEMAAPAPUB|52=20170912-22:52:44.918|56=TRAX|10=181|8=FIXT.1.1|9=59|35=0|34=809|49=HEMAAPAPUB|52=20170912-22:53:15.923|56=TRAX|10=177|8=FIXT.1.1|9=59|35=0|34=810|49=HEMAAPAPUB|52=20170912-22:53:45.924|56=TRAX|10=173|8=FIXT.1.1|9=59|35=0|34=811|49=HEMAAPAPUB|52=20170912-22:54:16.923|56=TRAX|10=172|8=FIXT.1.1|9=59|35=0|34=812|49=HEMAAPAPUB|52=20170912-22:54:47.925|56=TRAX|10=179|8=FIXT.1.1|9=59|35=0|34=813|49=HEMAAPAPUB|52=20170912-22:55:18.925|56=TRAX|10=179|8=FIXT.1.1|9=59|35=0|34=814|49=HEMAAPAPUB|52=20170912-22:55:49.925|56=TRAX|10=184|8=FIXT.1.1|9=59|35=0|34=815|49=HEMAAPAPUB|52=20170912-22:56:20.918|56=TRAX|10=177|8=FIXT.1.1|9=59|35=0|34=816|49=HEMAAPAPUB|52=20170912-22:56:50.924|56=TRAX|10=178|8=FIXT.1.1|9=59|35=0|34=817|49=HEMAAPAPUB|52=20170912-22:57:21.922|56=TRAX|10=176|8=FIXT.1.1|9=59|35=0|34=818|49=HEMAAPAPUB|52=20170912-22:57:51.929|56=TRAX|10=187|8=FIXT.1.1|9=59|35=0|34=819|49=HEMAAPAPUB|52=20170912-22:58:21.930|56=TRAX|10=178|8=FIXT.1.1|9=59|35=0|34=820|49=HEMAAPAPUB|52=20170912-22:58:52.930|56=TRAX|10=174|8=FIXT.1.1|9=59|35=0|34=821|49=HEMAAPAPUB|52=20170912-22:59:22.931|56=TRAX|10=174|8=FIXT.1.1|9=59|35=0|34=822|49=HEMAAPAPUB|52=20170912-22:59:53.927|56=TRAX|10=184|8=FIXT.1.1|9=59|35=5|34=823|49=HEMAAPAPUB|52=20170912-23:00:00.744|56=TRAX|10=166|8=FIXT.1.1|9=103|35=A|34=1|49=HEMAAPAPUB|52=20170913-07:26:36.530|56=TRAX|98=0|108=30|95=11|96=1.0.0rc11.2|141=Y|1137=9|10=065|8=FIXT.1.1|9=57|35=0|34=2|49=HEMAAPAPUB|52=20170913-07:27:07.512|56=TRAX|10=064|8=FIXT.1.1|9=57|35=0|34=3|49=HEMAAPAPUB|52=20170913-07:27:38.511|56=TRAX|10=068|8=FIXT.1.1|9=57|35=0|34=4|49=HEMAAPAPUB|52=20170913-07:28:08.511|56=TRAX|10=067|8=FIXT.1.1|9=57|35=0|34=5|49=HEMAAPAPUB|52=20170913-07:28:39.510|56=TRAX|10=071|8=FIXT.1.1|9=57|35=0|34=6|49=HEMAAPAPUB|52=20170913-07:29:10.509|56=TRAX|10=070|8=FIXT.1.1|9=57|35=0|34=7|49=HEMAAPAPUB|52=20170913-07:29:40.559|56=TRAX|10=079|8=FIXT.1.1|9=57|35=0|34=8|49=HEMAAPAPUB|52=20170913-07:30:10.573|56=TRAX|10=065|8=FIXT.1.1|9=57|35=0|34=9|49=HEMAAPAPUB|52=20170913-07:30:41.506|56=TRAX|10=066|8=FIXT.1.1|9=58|35=0|34=10|49=HEMAAPAPUB|52=20170913-07:31:12.505|56=TRAX|10=105|8=FIXT.1.1|9=58|35=0|34=11|49=HEMAAPAPUB|52=20170913-07:31:42.529|56=TRAX|10=115|8=FIXT.1.1|9=58|35=0|34=12|49=HEMAAPAPUB|52=20170913-07:32:13.532|56=TRAX|10=109|8=FIXT.1.1|9=58|35=0|34=13|49=HEMAAPAPUB|52=20170913-07:32:43.532|56=TRAX|10=113|8=FIXT.1.1|9=58|35=0|34=14|49=HEMAAPAPUB|52=20170913-07:33:14.531|56=TRAX|10=112|8=FIXT.1.1|9=58|35=0|34=15|49=HEMAAPAPUB|52=20170913-07:33:45.529|56=TRAX|10=124|8=FIXT.1.1|9=58|35=0|34=16|49=HEMAAPAPUB|52=20170913-07:34:15.530|56=TRAX|10=115|8=FIXT.1.1|9=58|35=0|34=17|49=HEMAAPAPUB|52=20170913-07:34:45.531|56=TRAX|10=120|8=FIXT.1.1|9=58|35=0|34=18|49=HEMAAPAPUB|52=20170913-07:35:16.527|56=TRAX|10=125|8=FIXT.1.1|9=58|35=0|34=19|49=HEMAAPAPUB|52=20170913-07:35:46.532|56=TRAX|10=125|8=FIXT.1.1|9=58|35=0|34=20|49=HEMAAPAPUB|52=20170913-07:36:16.533|56=TRAX|10=116|8=FIXT.1.1|9=58|35=0|34=21|49=HEMAAPAPUB|52=20170913-07:36:46.534|56=TRAX|10=121|8=FIXT.1.1|9=58|35=0|34=22|49=HEMAAPAPUB|52=20170913-07:37:16.534|56=TRAX|10=120|8=FIXT.1.1|9=58|35=0|34=23|49=HEMAAPAPUB|52=20170913-07:37:46.538|56=TRAX|10=128|8=FIXT.1.1|9=58|35=0|34=24|49=HEMAAPAPUB|52=20170913-07:38:17.539|56=TRAX|10=129|8=FIXT.1.1|9=58|35=0|34=25|49=HEMAAPAPUB|52=20170913-07:38:48.533|56=TRAX|10=128|8=FIXT.1.1|9=58|35=0|34=26|49=HEMAAPAPUB|52=20170913-07:39:18.536|56=TRAX|10=130|8=FIXT.1.1|9=58|35=0|34=27|49=HEMAAPAPUB|52=20170913-07:39:48.539|56=TRAX|10=137|8=FIXT.1.1|9=58|35=0|34=28|49=HEMAAPAPUB|52=20170913-07:40:18.539|56=TRAX|10=127|8=FIXT.1.1|9=58|35=0|34=29|49=HEMAAPAPUB|52=20170913-07:40:48.539|56=TRAX|10=131|8=FIXT.1.1|9=58|35=0|34=30|49=HEMAAPAPUB|52=20170913-07:41:18.541|56=TRAX|10=114|8=FIXT.1.1|9=58|35=0|34=31|49=HEMAAPAPUB|52=20170913-07:41:49.541|56=TRAX|10=119|8=FIXT.1.1|9=58|35=0|34=32|49=HEMAAPAPUB|52=20170913-07:42:19.543|56=TRAX|10=120|8=FIXT.1.1|9=58|35=0|34=33|49=HEMAAPAPUB|52=20170913-07:42:49.543|56=TRAX|10=124|8=FIXT.1.1|9=58|35=0|34=34|49=HEMAAPAPUB|52=20170913-07:43:20.543|56=TRAX|10=115|8=FIXT.1.1|9=58|35=0|34=35|49=HEMAAPAPUB|52=20170913-07:43:51.544|56=TRAX|10=121|8=FIXT.1.1|9=58|35=0|34=36|49=HEMAAPAPUB|52=20170913-07:44:22.547|56=TRAX|10=124|8=FIXT.1.1|9=58|35=0|34=37|49=HEMAAPAPUB|52=20170913-07:44:53.548|56=TRAX|10=130|8=FIXT.1.1|9=58|35=0|34=38|49=HEMAAPAPUB|52=20170913-07:45:24.545|56=TRAX|10=127|8=FIXT.1.1|9=58|35=0|34=39|49=HEMAAPAPUB|52=20170913-07:45:54.552|56=TRAX|10=129|8=FIXT.1.1|9=58|35=0|34=40|49=HEMAAPAPUB|52=20170913-07:46:24.553|56=TRAX|10=120|8=FIXT.1.1|9=58|35=0|34=41|49=HEMAAPAPUB|52=20170913-07:46:55.553|56=TRAX|10=125|8=FIXT.1.1|9=58|35=0|34=42|49=HEMAAPAPUB|52=20170913-07:47:25.553|56=TRAX|10=124|8=FIXT.1.1|9=58|35=0|34=43|49=HEMAAPAPUB|52=20170913-07:47:56.553|56=TRAX|10=129|8=FIXT.1.1|9=58|35=0|34=44|49=HEMAAPAPUB|52=20170913-07:48:27.555|56=TRAX|10=131|8=FIXT.1.1|9=58|35=0|34=45|49=HEMAAPAPUB|52=20170913-07:48:57.557|56=TRAX|10=137|8=FIXT.1.1|9=58|35=0|34=46|49=HEMAAPAPUB|52=20170913-07:49:28.550|56=TRAX|10=130|8=FIXT.1.1|9=58|35=0|34=47|49=HEMAAPAPUB|52=20170913-07:49:59.550|56=TRAX|10=135|8=FIXT.1.1|9=58|35=0|34=48|49=HEMAAPAPUB|52=20170913-07:50:29.554|56=TRAX|10=129|8=FIXT.1.1|9=58|35=0|34=49|49=HEMAAPAPUB|52=20170913-07:50:59.557|56=TRAX|10=136|8=FIXT.1.1|9=58|35=0|34=50|49=HEMAAPAPUB|52=20170913-07:51:30.552|56=TRAX|10=113|8=FIXT.1.1|9=58|35=0|34=51|49=HEMAAPAPUB|52=20170913-07:52:00.557|56=TRAX|10=117|8=FIXT.1.1|9=58|35=0|34=52|49=HEMAAPAPUB|52=20170913-07:52:30.558|56=TRAX|10=122|8=FIXT.1.1|9=58|35=0|34=53|49=HEMAAPAPUB|52=20170913-07:53:01.555|56=TRAX|10=119|8=FIXT.1.1|9=58|35=0|34=54|49=HEMAAPAPUB|52=20170913-07:53:31.558|56=TRAX|10=126|8=FIXT.1.1|9=58|35=0|34=55|49=HEMAAPAPUB|52=20170913-07:54:02.556|56=TRAX|10=124|8=FIXT.1.1|9=58|35=0|34=56|49=HEMAAPAPUB|52=20170913-07:54:32.559|56=TRAX|10=131|8=FIXT.1.1|9=58|35=0|34=57|49=HEMAAPAPUB|52=20170913-07:55:02.565|56=TRAX|10=127|8=FIXT.1.1|9=58|35=0|34=58|49=HEMAAPAPUB|52=20170913-07:55:33.561|56=TRAX|10=128|8=FIXT.1.1|9=58|35=0|34=59|49=HEMAAPAPUB|52=20170913-07:56:04.560|56=TRAX|10=127|8=FIXT.1.1|9=58|35=0|34=60|49=HEMAAPAPUB|52=20170913-07:56:34.564|56=TRAX|10=126|8=FIXT.1.1|9=58|35=0|34=61|49=HEMAAPAPUB|52=20170913-07:57:04.569|56=TRAX|10=130|8=FIXT.1.1|9=58|35=0|34=62|49=HEMAAPAPUB|52=20170913-07:57:35.563|56=TRAX|10=129|8=FIXT.1.1|9=58|35=0|34=63|49=HEMAAPAPUB|52=20170913-07:58:06.562|56=TRAX|10=128|8=FIXT.1.1|9=58|35=0|34=64|49=HEMAAPAPUB|52=20170913-07:58:36.562|56=TRAX|10=132|8=FIXT.1.1|9=58|35=0|34=65|49=HEMAAPAPUB|52=20170913-07:59:06.571|56=TRAX|10=131|8=FIXT.1.1|9=58|35=0|34=66|49=HEMAAPAPUB|52=20170913-07:59:36.571|56=TRAX|10=135|8=FIXT.1.1|9=58|35=0|34=67|49=HEMAAPAPUB|52=20170913-08:00:07.569|56=TRAX|10=128|8=FIXT.1.1|9=58|35=0|34=68|49=HEMAAPAPUB|52=20170913-08:00:37.570|56=TRAX|10=124|8=FIXT.1.1|9=58|35=0|34=69|49=HEMAAPAPUB|52=20170913-08:01:07.574|56=TRAX|10=127|8=FIXT.1.1|9=58|35=0|34=70|49=HEMAAPAPUB|52=20170913-08:01:38.573|56=TRAX|10=122|8=FIXT.1.1|9=58|35=0|34=71|49=HEMAAPAPUB|52=20170913-08:02:09.571|56=TRAX|10=120|8=FIXT.1.1|9=58|35=0|34=72|49=HEMAAPAPUB|52=20170913-08:02:39.573|56=TRAX|10=126|8=FIXT.1.1|9=58|35=0|34=73|49=HEMAAPAPUB|52=20170913-08:03:09.573|56=TRAX|10=125|8=FIXT.1.1|9=58|35=0|34=74|49=HEMAAPAPUB|52=20170913-08:03:40.570|56=TRAX|10=118|8=FIXT.1.1|9=58|35=0|34=75|49=HEMAAPAPUB|52=20170913-08:04:10.573|56=TRAX|10=120|8=FIXT.1.1|9=58|35=0|34=76|49=HEMAAPAPUB|52=20170913-08:04:40.576|56=TRAX|10=127|8=FIXT.1.1|9=58|35=0|34=77|49=HEMAAPAPUB|52=20170913-08:05:10.580|56=TRAX|10=121|8=FIXT.1.1|9=58|35=0|34=78|49=HEMAAPAPUB|52=20170913-08:05:41.572|56=TRAX|10=127|8=FIXT.1.1|9=58|35=0|34=79|49=HEMAAPAPUB|52=20170913-08:06:11.582|56=TRAX|10=127|8=FIXT.1.1|9=58|35=0|34=80|49=HEMAAPAPUB|52=20170913-08:06:42.581|56=TRAX|10=122|8=FIXT.1.1|9=58|35=0|34=81|49=HEMAAPAPUB|52=20170913-08:07:12.584|56=TRAX|10=124|8=FIXT.1.1|9=58|35=0|34=82|49=HEMAAPAPUB|52=20170913-08:07:42.584|56=TRAX|10=128|8=FIXT.1.1|9=58|35=0|34=83|49=HEMAAPAPUB|52=20170913-08:08:13.577|56=TRAX|10=130|8=FIXT.1.1|9=58|35=0|34=84|49=HEMAAPAPUB|52=20170913-08:08:44.581|56=TRAX|10=130|8=FIXT.1.1|9=58|35=0|34=85|49=HEMAAPAPUB|52=20170913-08:09:14.583|56=TRAX|10=131|8=FIXT.1.1|9=58|35=0|34=86|49=HEMAAPAPUB|52=20170913-08:09:44.587|56=TRAX|10=139|8=FIXT.1.1|9=58|35=0|34=87|49=HEMAAPAPUB|52=20170913-08:10:15.579|56=TRAX|10=131|8=FIXT.1.1|9=58|35=0|34=88|49=HEMAAPAPUB|52=20170913-08:10:45.588|56=TRAX|10=135|8=FIXT.1.1|9=58|35=0|34=89|49=HEMAAPAPUB|52=20170913-08:11:16.585|56=TRAX|10=132|8=FIXT.1.1|9=58|35=0|34=90|49=HEMAAPAPUB|52=20170913-08:11:46.588|56=TRAX|10=130|8=FIXT.1.1|9=58|35=0|34=91|49=HEMAAPAPUB|52=20170913-08:12:16.591|56=TRAX|10=123|8=FIXT.1.1|9=58|35=0|34=92|49=HEMAAPAPUB|52=20170913-08:12:47.589|56=TRAX|10=135|8=FIXT.1.1|9=58|35=0|34=93|49=HEMAAPAPUB|52=20170913-08:13:17.591|56=TRAX|10=127|8=FIXT.1.1|9=58|35=0|34=94|49=HEMAAPAPUB|52=20170913-08:13:48.584|56=TRAX|10=134|8=FIXT.1.1|9=58|35=0|34=95|49=HEMAAPAPUB|52=20170913-08:14:18.590|56=TRAX|10=130|8=FIXT.1.1|9=58|35=0|34=96|49=HEMAAPAPUB|52=20170913-08:14:49.585|56=TRAX|10=139|8=FIXT.1.1|9=58|35=0|34=97|49=HEMAAPAPUB|52=20170913-08:15:19.594|56=TRAX|10=138|8=FIXT.1.1|9=58|35=0|34=98|49=HEMAAPAPUB|52=20170913-08:15:50.593|56=TRAX|10=133|8=FIXT.1.1|9=58|35=0|34=99|49=HEMAAPAPUB|52=20170913-08:16:21.588|56=TRAX|10=137|8=FIXT.1.1|9=59|35=0|34=100|49=HEMAAPAPUB|52=20170913-08:16:51.592|56=TRAX|10=167|8=FIXT.1.1|9=59|35=0|34=101|49=HEMAAPAPUB|52=20170913-08:17:21.597|56=TRAX|10=171|8=FIXT.1.1|9=59|35=0|34=102|49=HEMAAPAPUB|52=20170913-08:17:52.598|56=TRAX|10=177|8=FIXT.1.1|9=59|35=0|34=103|49=HEMAAPAPUB|52=20170913-08:18:22.598|56=TRAX|10=176|8=FIXT.1.1|9=59|35=0|34=104|49=HEMAAPAPUB|52=20170913-08:18:53.595|56=TRAX|10=178|8=FIXT.1.1|9=59|35=0|34=105|49=HEMAAPAPUB|52=20170913-08:19:23.597|56=TRAX|10=179|8=FIXT.1.1|9=59|35=0|34=106|49=HEMAAPAPUB|52=20170913-08:19:53.599|56=TRAX|10=185|8=FIXT.1.1|9=59|35=0|34=107|49=HEMAAPAPUB|52=20170913-08:20:24.593|56=TRAX|10=170|8=FIXT.1.1|9=59|35=0|34=108|49=HEMAAPAPUB|52=20170913-08:20:54.602|56=TRAX|10=165|8=FIXT.1.1|9=59|35=0|34=109|49=HEMAAPAPUB|52=20170913-08:21:25.603|56=TRAX|10=166|8=FIXT.1.1|9=59|35=0|34=110|49=HEMAAPAPUB|52=20170913-08:21:56.594|56=TRAX|10=171|8=FIXT.1.1|9=59|35=0|34=111|49=HEMAAPAPUB|52=20170913-08:22:26.601|56=TRAX|10=159|8=FIXT.1.1|9=59|35=0|34=112|49=HEMAAPAPUB|52=20170913-08:22:57.604|56=TRAX|10=167|8=FIXT.1.1|9=59|35=0|34=113|49=HEMAAPAPUB|52=20170913-08:23:28.605|56=TRAX|10=168|8=FIXT.1.1|9=59|35=0|34=114|49=HEMAAPAPUB|52=20170913-08:23:59.600|56=TRAX|10=168|8=FIXT.1.1|9=59|35=0|34=115|49=HEMAAPAPUB|52=20170913-08:24:30.604|56=TRAX|10=163|8=FIXT.1.1|9=59|35=0|34=116|49=HEMAAPAPUB|52=20170913-08:25:01.603|56=TRAX|10=162|8=FIXT.1.1|9=59|35=0|34=117|49=HEMAAPAPUB|52=20170913-08:25:31.603|56=TRAX|10=166|8=FIXT.1.1|9=59|35=0|34=118|49=HEMAAPAPUB|52=20170913-08:26:01.608|56=TRAX|10=170|8=FIXT.1.1|9=59|35=0|34=119|49=HEMAAPAPUB|52=20170913-08:26:32.603|56=TRAX|10=170|8=FIXT.1.1|9=59|35=0|34=120|49=HEMAAPAPUB|52=20170913-08:27:03.602|56=TRAX|10=160|8=FIXT.1.1|9=59|35=0|34=121|49=HEMAAPAPUB|52=20170913-08:27:33.610|56=TRAX|10=163|8=FIXT.1.1|9=59|35=0|34=122|49=HEMAAPAPUB|52=20170913-08:28:03.610|56=TRAX|10=162|8=FIXT.1.1|9=59|35=0|34=123|49=HEMAAPAPUB|52=20170913-08:28:34.607|56=TRAX|10=173|8=FIXT.1.1|9=59|35=0|34=124|49=HEMAAPAPUB|52=20170913-08:29:05.604|56=TRAX|10=170|8=FIXT.1.1|9=59|35=0|34=125|49=HEMAAPAPUB|52=20170913-08:29:35.604|56=TRAX|10=174|8=FIXT.1.1|9=59|35=0|34=126|49=HEMAAPAPUB|52=20170913-08:30:05.613|56=TRAX|10=164|8=FIXT.1.1|9=59|35=0|34=127|49=HEMAAPAPUB|52=20170913-08:30:35.613|56=TRAX|10=168|8=FIXT.1.1|9=59|35=0|34=128|49=HEMAAPAPUB|52=20170913-08:31:05.615|56=TRAX|10=169|8=FIXT.1.1|9=59|35=0|34=129|49=HEMAAPAPUB|52=20170913-08:31:35.616|56=TRAX|10=174|8=FIXT.1.1|9=59|35=0|34=130|49=HEMAAPAPUB|52=20170913-08:32:06.613|56=TRAX|10=162|8=FIXT.1.1|9=59|35=0|34=131|49=HEMAAPAPUB|52=20170913-08:32:36.617|56=TRAX|10=170|8=FIXT.1.1|9=59|35=0|34=132|49=HEMAAPAPUB|52=20170913-08:33:07.615|56=TRAX|10=168|8=FIXT.1.1|9=59|35=0|34=133|49=HEMAAPAPUB|52=20170913-08:33:38.614|56=TRAX|10=172|8=FIXT.1.1|9=59|35=0|34=134|49=HEMAAPAPUB|52=20170913-08:34:09.612|56=TRAX|10=170|8=FIXT.1.1|9=59|35=0|34=135|49=HEMAAPAPUB|52=20170913-08:34:39.619|56=TRAX|10=181|8=FIXT.1.1|9=59|35=0|34=136|49=HEMAAPAPUB|52=20170913-08:35:10.596|56=TRAX|10=176|8=FIXT.1.1|9=59|35=0|34=137|49=HEMAAPAPUB|52=20170913-08:35:40.619|56=TRAX|10=176|8=FIXT.1.1|9=59|35=0|34=138|49=HEMAAPAPUB|52=20170913-08:36:11.618|56=TRAX|10=175|8=FIXT.1.1|9=59|35=0|34=139|49=HEMAAPAPUB|52=20170913-08:36:41.620|56=TRAX|10=172|8=FIXT.1.1|9=59|35=0|34=140|49=HEMAAPAPUB|52=20170913-08:37:12.618|56=TRAX|10=170|8=FIXT.1.1|9=59|35=0|34=141|49=HEMAAPAPUB|52=20170913-08:37:42.622|56=TRAX|10=169|8=FIXT.1.1|9=59|35=0|34=142|49=HEMAAPAPUB|52=20170913-08:38:13.619|56=TRAX|10=175|8=FIXT.1.1|9=59|35=0|34=143|49=HEMAAPAPUB|52=20170913-08:38:43.619|56=TRAX|10=179|8=FIXT.1.1|9=59|35=0|34=144|49=HEMAAPAPUB|52=20170913-08:39:13.626|56=TRAX|10=176|8=FIXT.1.1|9=59|35=0|34=145|49=HEMAAPAPUB|52=20170913-08:39:44.623|56=TRAX|10=178|8=FIXT.1.1|9=59|35=0|34=146|49=HEMAAPAPUB|52=20170913-08:40:14.623|56=TRAX|10=168|8=FIXT.1.1|9=59|35=0|34=147|49=HEMAAPAPUB|52=20170913-08:40:45.624|56=TRAX|10=174|8=FIXT.1.1|9=59|35=0|34=148|49=HEMAAPAPUB|52=20170913-08:41:15.625|56=TRAX|10=174|8=FIXT.1.1|9=59|35=0|34=149|49=HEMAAPAPUB|52=20170913-08:41:45.626|56=TRAX|10=179|8=FIXT.1.1|9=59|35=0|34=150|49=HEMAAPAPUB|52=20170913-08:42:15.626|56=TRAX|10=169|8=FIXT.1.1|9=59|35=0|34=151|49=HEMAAPAPUB|52=20170913-08:42:45.626|56=TRAX|10=173|8=FIXT.1.1|9=59|35=0|34=152|49=HEMAAPAPUB|52=20170913-08:43:15.627|56=TRAX|10=173|8=FIXT.1.1|9=59|35=0|34=153|49=HEMAAPAPUB|52=20170913-08:43:45.632|56=TRAX|10=173|8=FIXT.1.1|9=59|35=0|34=154|49=HEMAAPAPUB|52=20170913-08:44:16.630|56=TRAX|10=171|8=FIXT.1.1|9=59|35=0|34=155|49=HEMAAPAPUB|52=20170913-08:44:46.631|56=TRAX|10=176|8=FIXT.1.1|9=59|35=0|34=156|49=HEMAAPAPUB|52=20170913-08:45:16.634|56=TRAX|10=178|8=FIXT.1.1|9=59|35=0|34=157|49=HEMAAPAPUB|52=20170913-08:45:47.630|56=TRAX|10=179|8=FIXT.1.1|9=59|35=0|34=158|49=HEMAAPAPUB|52=20170913-08:46:17.638|56=TRAX|10=186|8=FIXT.1.1|9=59|35=0|34=159|49=HEMAAPAPUB|52=20170913-08:46:48.631|56=TRAX|10=184|8=FIXT.1.1|9=59|35=0|34=160|49=HEMAAPAPUB|52=20170913-08:47:18.637|56=TRAX|10=180|8=FIXT.1.1|9=59|35=0|34=161|49=HEMAAPAPUB|52=20170913-08:47:49.636|56=TRAX|10=184|8=FIXT.1.1|9=59|35=0|34=162|49=HEMAAPAPUB|52=20170913-08:48:20.634|56=TRAX|10=173|8=FIXT.1.1|9=59|35=0|34=163|49=HEMAAPAPUB|52=20170913-08:48:51.633|56=TRAX|10=177|8=FIXT.1.1|9=59|35=0|34=164|49=HEMAAPAPUB|52=20170913-08:49:21.639|56=TRAX|10=182|8=FIXT.1.1|9=59|35=0|34=165|49=HEMAAPAPUB|52=20170913-08:49:51.641|56=TRAX|10=179|8=FIXT.1.1|9=59|35=0|34=166|49=HEMAAPAPUB|52=20170913-08:50:22.640|56=TRAX|10=169|8=FIXT.1.1|9=59|35=0|34=167|49=HEMAAPAPUB|52=20170913-08:50:53.637|56=TRAX|10=180|8=FIXT.1.1|9=59|35=0|34=168|49=HEMAAPAPUB|52=20170913-08:51:23.645|56=TRAX|10=178|8=FIXT.1.1|9=59|35=0|34=169|49=HEMAAPAPUB|52=20170913-08:51:54.643|56=TRAX|10=181|8=FIXT.1.1|9=59|35=0|34=170|49=HEMAAPAPUB|52=20170913-08:52:24.644|56=TRAX|10=172|8=FIXT.1.1|9=59|35=0|34=171|49=HEMAAPAPUB|52=20170913-08:52:55.641|56=TRAX|10=174|8=FIXT.1.1|9=59|35=0|34=172|49=HEMAAPAPUB|52=20170913-08:53:26.621|56=TRAX|10=172|8=FIXT.1.1|9=59|35=0|34=173|49=HEMAAPAPUB|52=20170913-08:53:56.647|56=TRAX|10=184|8=FIXT.1.1|9=59|35=0|34=174|49=HEMAAPAPUB|52=20170913-08:54:27.645|56=TRAX|10=182|8=FIXT.1.1|9=59|35=0|34=175|49=HEMAAPAPUB|52=20170913-08:54:57.646|56=TRAX|10=187|8=FIXT.1.1|9=59|35=0|34=176|49=HEMAAPAPUB|52=20170913-08:55:27.647|56=TRAX|10=187|8=FIXT.1.1|9=59|35=0|34=177|49=HEMAAPAPUB|52=20170913-08:55:58.646|56=TRAX|10=191|8=FIXT.1.1|9=59|35=0|34=178|49=HEMAAPAPUB|52=20170913-08:56:28.646|56=TRAX|10=190|8=FIXT.1.1|9=59|35=0|34=179|49=HEMAAPAPUB|52=20170913-08:56:58.647|56=TRAX|10=195|8=FIXT.1.1|9=59|35=0|34=180|49=HEMAAPAPUB|52=20170913-08:57:28.648|56=TRAX|10=186|8=FIXT.1.1|9=59|35=0|34=181|49=HEMAAPAPUB|52=20170913-08:57:59.647|56=TRAX|10=190|8=FIXT.1.1|9=59|35=0|34=182|49=HEMAAPAPUB|52=20170913-08:58:29.649|56=TRAX|10=191|8=FIXT.1.1|9=59|35=0|34=183|49=HEMAAPAPUB|52=20170913-08:58:59.650|56=TRAX|10=187|8=FIXT.1.1|9=59|35=0|34=184|49=HEMAAPAPUB|52=20170913-08:59:29.651|56=TRAX|10=187|8=FIXT.1.1|9=59|35=0|34=185|49=HEMAAPAPUB|52=20170913-08:59:59.658|56=TRAX|10=198|8=FIXT.1.1|9=59|35=0|34=186|49=HEMAAPAPUB|52=20170913-09:00:29.658|56=TRAX|10=183|8=FIXT.1.1|9=59|35=0|34=187|49=HEMAAPAPUB|52=20170913-09:01:00.651|56=TRAX|10=167|8=FIXT.1.1|9=59|35=0|34=188|49=HEMAAPAPUB|52=20170913-09:01:30.652|56=TRAX|10=172|8=FIXT.1.1|9=59|35=0|34=189|49=HEMAAPAPUB|52=20170913-09:02:00.656|56=TRAX|10=175|8=FIXT.1.1|9=59|35=0|34=190|49=HEMAAPAPUB|52=20170913-09:02:30.657|56=TRAX|10=171|8=FIXT.1.1|9=59|35=0|34=191|49=HEMAAPAPUB|52=20170913-09:03:01.654|56=TRAX|10=168|8=FIXT.1.1|9=59|35=0|34=192|49=HEMAAPAPUB|52=20170913-09:03:31.659|56=TRAX|10=177|8=FIXT.1.1|9=59|35=0|34=193|49=HEMAAPAPUB|52=20170913-09:04:01.660|56=TRAX|10=168|8=FIXT.1.1|9=59|35=0|34=194|49=HEMAAPAPUB|52=20170913-09:04:31.662|56=TRAX|10=174|8=FIXT.1.1|9=59|35=0|34=195|49=HEMAAPAPUB|52=20170913-09:05:01.664|56=TRAX|10=175|8=FIXT.1.1|9=59|35=0|34=196|49=HEMAAPAPUB|52=20170913-09:05:31.665|56=TRAX|10=180|8=FIXT.1.1|9=59|35=0|34=197|49=HEMAAPAPUB|52=20170913-09:06:02.661|56=TRAX|10=176|8=FIXT.1.1|9=59|35=0|34=198|49=HEMAAPAPUB|52=20170913-09:06:32.666|56=TRAX|10=185|8=FIXT.1.1|9=59|35=0|34=199|49=HEMAAPAPUB|52=20170913-09:07:03.641|56=TRAX|10=178|8=FIXT.1.1|9=59|35=0|34=200|49=HEMAAPAPUB|52=20170913-09:07:33.668|56=TRAX|10=173|8=FIXT.1.1|9=59|35=0|34=201|49=HEMAAPAPUB|52=20170913-09:08:04.659|56=TRAX|10=173|8=FIXT.1.1|9=59|35=0|34=202|49=HEMAAPAPUB|52=20170913-09:08:35.641|56=TRAX|10=169|8=FIXT.1.1|9=59|35=0|34=203|49=HEMAAPAPUB|52=20170913-09:09:06.640|56=TRAX|10=168|8=FIXT.1.1|9=59|35=0|34=204|49=HEMAAPAPUB|52=20170913-09:09:36.659|56=TRAX|10=182|8=FIXT.1.1|9=59|35=0|34=205|49=HEMAAPAPUB|52=20170913-09:10:06.667|56=TRAX|10=171|8=FIXT.1.1|9=59|35=0|34=206|49=HEMAAPAPUB|52=20170913-09:10:37.664|56=TRAX|10=173|8=FIXT.1.1|9=59|35=0|34=207|49=HEMAAPAPUB|52=20170913-09:11:08.642|56=TRAX|10=169|8=FIXT.1.1|9=59|35=0|34=208|49=HEMAAPAPUB|52=20170913-09:11:38.664|56=TRAX|10=177|8=FIXT.1.1|9=59|35=0|34=209|49=HEMAAPAPUB|52=20170913-09:12:09.643|56=TRAX|10=174|8=FIXT.1.1|9=59|35=0|34=210|49=HEMAAPAPUB|52=20170913-09:12:39.665|56=TRAX|10=173|8=FIXT.1.1|9=59|35=0|34=211|49=HEMAAPAPUB|52=20170913-09:13:09.669|56=TRAX|10=176|8=FIXT.1.1|9=59|35=0|34=212|49=HEMAAPAPUB|52=20170913-09:13:39.671|56=TRAX|10=173|8=FIXT.1.1|9=59|35=0|34=213|49=HEMAAPAPUB|52=20170913-09:14:10.598|56=TRAX|10=172|8=FIXT.1.1|9=59|35=0|34=214|49=HEMAAPAPUB|52=20170913-09:14:40.611|56=TRAX|10=162|8=FIXT.1.1|9=59|35=0|34=215|49=HEMAAPAPUB|52=20170913-09:15:10.623|56=TRAX|10=164|8=FIXT.1.1|9=59|35=0|34=216|49=HEMAAPAPUB|52=20170913-09:15:40.668|56=TRAX|10=177|8=FIXT.1.1|9=59|35=0|34=217|49=HEMAAPAPUB|52=20170913-09:16:10.674|56=TRAX|10=173|8=FIXT.1.1|9=59|35=0|34=218|49=HEMAAPAPUB|52=20170913-09:16:41.672|56=TRAX|10=176|8=FIXT.1.1|9=59|35=0|34=219|49=HEMAAPAPUB|52=20170913-09:17:11.673|56=TRAX|10=176|8=FIXT.1.1|9=59|35=0|34=220|49=HEMAAPAPUB|52=20170913-09:17:41.674|56=TRAX|10=172|8=FIXT.1.1|9=59|35=0|34=221|49=HEMAAPAPUB|52=20170913-09:18:11.677|56=TRAX|10=174|8=FIXT.1.1|9=59|35=0|34=222|49=HEMAAPAPUB|52=20170913-09:18:42.673|56=TRAX|10=175|8=FIXT.1.1|9=59|35=0|34=223|49=HEMAAPAPUB|52=20170913-09:19:12.677|56=TRAX|10=178|8=FIXT.1.1|9=59|35=0|34=224|49=HEMAAPAPUB|52=20170913-09:19:42.682|56=TRAX|10=178|8=FIXT.1.1|9=59|35=0|34=225|49=HEMAAPAPUB|52=20170913-09:20:13.673|56=TRAX|10=169|8=FIXT.1.1|9=59|35=0|34=226|49=HEMAAPAPUB|52=20170913-09:20:43.680|56=TRAX|10=171|8=FIXT.1.1|9=59|35=0|34=227|49=HEMAAPAPUB|52=20170913-09:21:13.684|56=TRAX|10=174|8=FIXT.1.1|9=59|35=0|34=228|49=HEMAAPAPUB|52=20170913-09:21:44.681|56=TRAX|10=176|8=FIXT.1.1|9=59|35=0|34=229|49=HEMAAPAPUB|52=20170913-09:22:14.683|56=TRAX|10=177|8=FIXT.1.1|9=59|35=0|34=230|49=HEMAAPAPUB|52=20170913-09:22:44.685|56=TRAX|10=174|8=FIXT.1.1|9=59|35=0|34=231|49=HEMAAPAPUB|52=20170913-09:23:15.682|56=TRAX|10=171|8=FIXT.1.1|9=59|35=0|34=232|49=HEMAAPAPUB|52=20170913-09:23:45.684|56=TRAX|10=177|8=FIXT.1.1|9=59|35=0|34=233|49=HEMAAPAPUB|52=20170913-09:24:15.684|56=TRAX|10=176|8=FIXT.1.1|9=59|35=0|34=234|49=HEMAAPAPUB|52=20170913-09:24:45.688|56=TRAX|10=184|8=FIXT.1.1|9=59|35=0|34=235|49=HEMAAPAPUB|52=20170913-09:25:16.681|56=TRAX|10=177|8=FIXT.1.1|9=59|35=0|34=236|49=HEMAAPAPUB|52=20170913-09:25:46.687|56=TRAX|10=187|8=FIXT.1.1|9=59|35=0|34=237|49=HEMAAPAPUB|52=20170913-09:26:16.690|56=TRAX|10=180|8=FIXT.1.1|9=59|35=0|34=238|49=HEMAAPAPUB|52=20170913-09:26:46.690|56=TRAX|10=184|8=FIXT.1.1|9=59|35=0|34=239|49=HEMAAPAPUB|52=20170913-09:27:17.688|56=TRAX|10=191|8=FIXT.1.1|9=59|35=0|34=240|49=HEMAAPAPUB|52=20170913-09:27:48.685|56=TRAX|10=184|8=FIXT.1.1|9=59|35=0|34=241|49=HEMAAPAPUB|52=20170913-09:28:18.687|56=TRAX|10=185|8=FIXT.1.1|9=59|35=0|34=242|49=HEMAAPAPUB|52=20170913-09:28:48.688|56=TRAX|10=190|8=FIXT.1.1|9=59|35=0|34=243|49=HEMAAPAPUB|52=20170913-09:29:18.689|56=TRAX|10=190|8=FIXT.1.1|9=59|35=0|34=244|49=HEMAAPAPUB|52=20170913-09:29:49.688|56=TRAX|10=194|8=FIXT.1.1|9=59|35=0|34=245|49=HEMAAPAPUB|52=20170913-09:30:19.689|56=TRAX|10=185|8=FIXT.1.1|9=59|35=0|34=246|49=HEMAAPAPUB|52=20170913-09:30:49.691|56=TRAX|10=182|8=FIXT.1.1|9=59|35=0|34=247|49=HEMAAPAPUB|52=20170913-09:31:19.691|56=TRAX|10=181|8=FIXT.1.1|9=59|35=0|34=248|49=HEMAAPAPUB|52=20170913-09:31:49.692|56=TRAX|10=186|8=FIXT.1.1|9=59|35=0|34=249|49=HEMAAPAPUB|52=20170913-09:32:19.699|56=TRAX|10=192|8=FIXT.1.1|9=59|35=0|34=250|49=HEMAAPAPUB|52=20170913-09:32:49.699|56=TRAX|10=187|8=FIXT.1.1|9=59|35=0|34=251|49=HEMAAPAPUB|52=20170913-09:33:19.699|56=TRAX|10=186|8=FIXT.1.1|9=59|35=0|34=252|49=HEMAAPAPUB|52=20170913-09:33:50.698|56=TRAX|10=181|8=FIXT.1.1|9=59|35=0|34=253|49=HEMAAPAPUB|52=20170913-09:34:20.698|56=TRAX|10=180|8=FIXT.1.1|9=59|35=0|34=254|49=HEMAAPAPUB|52=20170913-09:34:50.698|56=TRAX|10=184|8=FIXT.1.1|9=59|35=0|34=255|49=HEMAAPAPUB|52=20170913-09:35:20.703|56=TRAX|10=170|8=FIXT.1.1|9=59|35=0|34=256|49=HEMAAPAPUB|52=20170913-09:35:51.697|56=TRAX|10=187|8=FIXT.1.1|9=59|35=0|34=257|49=HEMAAPAPUB|52=20170913-09:36:21.705|56=TRAX|10=176|8=FIXT.1.1|9=59|35=0|34=258|49=HEMAAPAPUB|52=20170913-09:36:52.697|56=TRAX|10=191|8=FIXT.1.1|9=59|35=0|34=259|49=HEMAAPAPUB|52=20170913-09:37:22.700|56=TRAX|10=175|8=FIXT.1.1|9=59|35=0|34=260|49=HEMAAPAPUB|52=20170913-09:37:53.699|56=TRAX|10=188|8=FIXT.1.1|9=59|35=0|34=261|49=HEMAAPAPUB|52=20170913-09:38:23.706|56=TRAX|10=176|8=FIXT.1.1|9=59|35=0|34=262|49=HEMAAPAPUB|52=20170913-09:38:54.702|56=TRAX|10=177|8=FIXT.1.1|9=59|35=0|34=263|49=HEMAAPAPUB|52=20170913-09:39:24.704|56=TRAX|10=178|8=FIXT.1.1|9=59|35=0|34=264|49=HEMAAPAPUB|52=20170913-09:39:55.704|56=TRAX|10=183|8=FIXT.1.1|9=59|35=0|34=265|49=HEMAAPAPUB|52=20170913-09:40:25.706|56=TRAX|10=175|8=FIXT.1.1|9=59|35=0|34=266|49=HEMAAPAPUB|52=20170913-09:40:56.703|56=TRAX|10=177|8=FIXT.1.1|9=59|35=0|34=267|49=HEMAAPAPUB|52=20170913-09:41:26.706|56=TRAX|10=179|8=FIXT.1.1|9=59|35=0|34=268|49=HEMAAPAPUB|52=20170913-09:41:56.714|56=TRAX|10=182|8=FIXT.1.1|9=59|35=0|34=269|49=HEMAAPAPUB|52=20170913-09:42:27.713|56=TRAX|10=181|8=FIXT.1.1|9=59|35=0|34=270|49=HEMAAPAPUB|52=20170913-09:42:57.714|56=TRAX|10=177|8=FIXT.1.1|9=59|35=0|34=271|49=HEMAAPAPUB|52=20170913-09:43:28.711|56=TRAX|10=174|8=FIXT.1.1|9=59|35=0|34=272|49=HEMAAPAPUB|52=20170913-09:43:59.709|56=TRAX|10=186|8=FIXT.1.1|9=59|35=0|34=273|49=HEMAAPAPUB|52=20170913-09:44:29.718|56=TRAX|10=185|8=FIXT.1.1|9=59|35=0|34=274|49=HEMAAPAPUB|52=20170913-09:44:59.718|56=TRAX|10=189|8=FIXT.1.1|9=59|35=0|34=275|49=HEMAAPAPUB|52=20170913-09:45:29.719|56=TRAX|10=189|8=FIXT.1.1|9=59|35=0|34=276|49=HEMAAPAPUB|52=20170913-09:46:00.715|56=TRAX|10=176|8=FIXT.1.1|9=59|35=0|34=277|49=HEMAAPAPUB|52=20170913-09:46:30.718|56=TRAX|10=183|8=FIXT.1.1|9=59|35=0|34=278|49=HEMAAPAPUB|52=20170913-09:47:00.720|56=TRAX|10=175|8=FIXT.1.1|9=59|35=0|34=279|49=HEMAAPAPUB|52=20170913-09:47:31.719|56=TRAX|10=188|8=FIXT.1.1|9=59|35=0|34=280|49=HEMAAPAPUB|52=20170913-09:48:01.720|56=TRAX|10=170|8=FIXT.1.1|9=59|35=0|34=281|49=HEMAAPAPUB|52=20170913-09:48:31.724|56=TRAX|10=178|8=FIXT.1.1|9=59|35=0|34=282|49=HEMAAPAPUB|52=20170913-09:49:02.720|56=TRAX|10=174|8=FIXT.1.1|9=59|35=0|34=283|49=HEMAAPAPUB|52=20170913-09:49:33.718|56=TRAX|10=186|8=FIXT.1.1|9=59|35=0|34=284|49=HEMAAPAPUB|52=20170913-09:50:03.725|56=TRAX|10=174|8=FIXT.1.1|9=59|35=0|34=285|49=HEMAAPAPUB|52=20170913-09:50:34.724|56=TRAX|10=178|8=FIXT.1.1|9=59|35=0|34=286|49=HEMAAPAPUB|52=20170913-09:51:05.603|56=TRAX|10=174|8=FIXT.1.1|9=59|35=0|34=287|49=HEMAAPAPUB|52=20170913-09:51:35.612|56=TRAX|10=178|8=FIXT.1.1|9=59|35=0|34=288|49=HEMAAPAPUB|52=20170913-09:52:05.728|56=TRAX|10=185|8=FIXT.1.1|9=59|35=0|34=289|49=HEMAAPAPUB|52=20170913-09:52:36.722|56=TRAX|10=184|8=FIXT.1.1|9=59|35=0|34=290|49=HEMAAPAPUB|52=20170913-09:53:06.726|56=TRAX|10=178|8=FIXT.1.1|9=59|35=0|34=291|49=HEMAAPAPUB|52=20170913-09:53:37.723|56=TRAX|10=180|8=FIXT.1.1|9=59|35=0|34=292|49=HEMAAPAPUB|52=20170913-09:54:07.729|56=TRAX|10=185|8=FIXT.1.1|9=59|35=0|34=293|49=HEMAAPAPUB|52=20170913-09:54:37.734|56=TRAX|10=185|8=FIXT.1.1|9=59|35=0|34=294|49=HEMAAPAPUB|52=20170913-09:55:08.733|56=TRAX|10=184|8=FIXT.1.1|9=59|35=0|34=295|49=HEMAAPAPUB|52=20170913-09:55:38.734|56=TRAX|10=189|8=FIXT.1.1|9=59|35=0|34=296|49=HEMAAPAPUB|52=20170913-09:56:09.727|56=TRAX|10=191|8=FIXT.1.1|9=59|35=0|34=297|49=HEMAAPAPUB|52=20170913-09:56:39.733|56=TRAX|10=192|8=FIXT.1.1|9=59|35=0|34=298|49=HEMAAPAPUB|52=20170913-09:57:10.734|56=TRAX|10=184|8=FIXT.1.1|9=59|35=0|34=299|49=HEMAAPAPUB|52=20170913-09:57:41.734|56=TRAX|10=189|8=FIXT.1.1|9=59|35=0|34=300|49=HEMAAPAPUB|52=20170913-09:58:12.734|56=TRAX|10=171|8=FIXT.1.1|9=59|35=0|34=301|49=HEMAAPAPUB|52=20170913-09:58:42.735|56=TRAX|10=176|8=FIXT.1.1|9=59|35=0|34=302|49=HEMAAPAPUB|52=20170913-09:59:12.738|56=TRAX|10=178|8=FIXT.1.1|9=59|35=0|34=303|49=HEMAAPAPUB|52=20170913-09:59:43.734|56=TRAX|10=179|8=FIXT.1.1|9=59|35=0|34=304|49=HEMAAPAPUB|52=20170913-10:00:13.740|56=TRAX|10=152|8=FIXT.1.1|9=59|35=0|34=305|49=HEMAAPAPUB|52=20170913-10:00:44.734|56=TRAX|10=160|8=FIXT.1.1|9=59|35=0|34=306|49=HEMAAPAPUB|52=20170913-10:01:14.735|56=TRAX|10=160|8=FIXT.1.1|9=59|35=0|34=307|49=HEMAAPAPUB|52=20170913-10:01:44.739|56=TRAX|10=168|8=FIXT.1.1|9=59|35=0|34=308|49=HEMAAPAPUB|52=20170913-10:02:15.739|56=TRAX|10=168|8=FIXT.1.1|9=59|35=0|34=309|49=HEMAAPAPUB|52=20170913-10:02:45.743|56=TRAX|10=167|8=FIXT.1.1|9=59|35=0|34=310|49=HEMAAPAPUB|52=20170913-10:03:16.740|56=TRAX|10=155|8=FIXT.1.1|9=59|35=0|34=311|49=HEMAAPAPUB|52=20170913-10:03:46.746|56=TRAX|10=165|8=FIXT.1.1|9=59|35=0|34=312|49=HEMAAPAPUB|52=20170913-10:04:16.748|56=TRAX|10=166|8=FIXT.1.1|9=59|35=0|34=313|49=HEMAAPAPUB|52=20170913-10:04:47.744|56=TRAX|10=167|8=FIXT.1.1|9=59|35=0|34=314|49=HEMAAPAPUB|52=20170913-10:05:18.743|56=TRAX|10=166|8=FIXT.1.1|9=59|35=0|34=315|49=HEMAAPAPUB|52=20170913-10:05:49.751|56=TRAX|10=170|8=FIXT.1.1|9=59|35=0|34=316|49=HEMAAPAPUB|52=20170913-10:06:20.744|56=TRAX|10=163|8=FIXT.1.1|9=59|35=0|34=317|49=HEMAAPAPUB|52=20170913-10:06:50.752|56=TRAX|10=166|8=FIXT.1.1|9=59|35=0|34=318|49=HEMAAPAPUB|52=20170913-10:07:21.748|56=TRAX|10=171|8=FIXT.1.1|9=59|35=0|34=319|49=HEMAAPAPUB|52=20170913-10:07:52.747|56=TRAX|10=175|8=FIXT.1.1|9=59|35=0|34=320|49=HEMAAPAPUB|52=20170913-10:08:23.746|56=TRAX|10=165|8=FIXT.1.1|9=59|35=0|34=321|49=HEMAAPAPUB|52=20170913-10:08:53.748|56=TRAX|10=171|8=FIXT.1.1|9=59|35=0|34=322|49=HEMAAPAPUB|52=20170913-10:09:23.754|56=TRAX|10=167|8=FIXT.1.1|9=59|35=0|34=323|49=HEMAAPAPUB|52=20170913-10:09:54.749|56=TRAX|10=176|8=FIXT.1.1|9=59|35=0|34=324|49=HEMAAPAPUB|52=20170913-10:10:24.754|56=TRAX|10=162|8=FIXT.1.1|9=59|35=0|34=325|49=HEMAAPAPUB|52=20170913-10:10:55.752|56=TRAX|10=165|8=FIXT.1.1|9=59|35=0|34=326|49=HEMAAPAPUB|52=20170913-10:11:25.756|56=TRAX|10=168|8=FIXT.1.1|9=59|35=0|34=327|49=HEMAAPAPUB|52=20170913-10:11:55.757|56=TRAX|10=173|8=FIXT.1.1|9=59|35=0|34=328|49=HEMAAPAPUB|52=20170913-10:12:26.756|56=TRAX|10=172|8=FIXT.1.1|9=59|35=0|34=329|49=HEMAAPAPUB|52=20170913-10:12:57.754|56=TRAX|10=175|8=FIXT.1.1|9=59|35=0|34=330|49=HEMAAPAPUB|52=20170913-10:13:27.761|56=TRAX|10=163|8=FIXT.1.1|9=59|35=0|34=331|49=HEMAAPAPUB|52=20170913-10:13:57.761|56=TRAX|10=167|8=FIXT.1.1|9=59|35=0|34=332|49=HEMAAPAPUB|52=20170913-10:14:27.763|56=TRAX|10=168|8=FIXT.1.1|9=59|35=0|34=333|49=HEMAAPAPUB|52=20170913-10:14:58.758|56=TRAX|10=177|8=FIXT.1.1|9=59|35=0|34=334|49=HEMAAPAPUB|52=20170913-10:15:28.759|56=TRAX|10=177|8=FIXT.1.1|9=59|35=0|34=335|49=HEMAAPAPUB|52=20170913-10:15:59.758|56=TRAX|10=181|8=FIXT.1.1|9=59|35=0|34=336|49=HEMAAPAPUB|52=20170913-10:16:29.760|56=TRAX|10=173|8=FIXT.1.1|9=59|35=0|34=337|49=HEMAAPAPUB|52=20170913-10:17:00.757|56=TRAX|10=170|8=FIXT.1.1|9=59|35=0|34=338|49=HEMAAPAPUB|52=20170913-10:17:30.758|56=TRAX|10=175|8=FIXT.1.1|9=59|35=0|34=339|49=HEMAAPAPUB|52=20170913-10:18:01.742|56=TRAX|10=168|8=FIXT.1.1|9=59|35=0|34=340|49=HEMAAPAPUB|52=20170913-10:18:31.765|56=TRAX|10=168|8=FIXT.1.1|9=59|35=0|34=341|49=HEMAAPAPUB|52=20170913-10:19:02.764|56=TRAX|10=167|8=FIXT.1.1|9=59|35=0|34=342|49=HEMAAPAPUB|52=20170913-10:19:32.765|56=TRAX|10=172|8=FIXT.1.1|9=59|35=0|34=343|49=HEMAAPAPUB|52=20170913-10:20:03.764|56=TRAX|10=162|8=FIXT.1.1|9=59|35=0|34=344|49=HEMAAPAPUB|52=20170913-10:20:34.767|56=TRAX|10=170|8=FIXT.1.1|9=59|35=0|34=345|49=HEMAAPAPUB|52=20170913-10:21:04.771|56=TRAX|10=164|8=FIXT.1.1|9=59|35=0|34=346|49=HEMAAPAPUB|52=20170913-10:21:35.614|56=TRAX|10=165|8=FIXT.1.1|9=59|35=0|34=347|49=HEMAAPAPUB|52=20170913-10:22:05.635|56=TRAX|10=167|8=FIXT.1.1|9=59|35=0|34=348|49=HEMAAPAPUB|52=20170913-10:22:35.764|56=TRAX|10=174|8=FIXT.1.1|9=59|35=0|34=349|49=HEMAAPAPUB|52=20170913-10:23:05.770|56=TRAX|10=170|8=FIXT.1.1|9=59|35=0|34=350|49=HEMAAPAPUB|52=20170913-10:23:36.767|56=TRAX|10=172|8=FIXT.1.1|9=59|35=0|34=351|49=HEMAAPAPUB|52=20170913-10:24:07.766|56=TRAX|10=171|8=FIXT.1.1|9=59|35=0|34=352|49=HEMAAPAPUB|52=20170913-10:24:37.770|56=TRAX|10=170|8=FIXT.1.1|9=59|35=0|34=353|49=HEMAAPAPUB|52=20170913-10:25:08.749|56=TRAX|10=176|8=FIXT.1.1|9=59|35=0|34=354|49=HEMAAPAPUB|52=20170913-10:25:38.749|56=TRAX|10=180|8=FIXT.1.1|9=59|35=0|34=355|49=HEMAAPAPUB|52=20170913-10:26:08.749|56=TRAX|10=179|8=FIXT.1.1|9=59|35=0|34=356|49=HEMAAPAPUB|52=20170913-10:26:38.770|56=TRAX|10=177|8=FIXT.1.1|9=59|35=0|34=357|49=HEMAAPAPUB|52=20170913-10:27:09.732|56=TRAX|10=175|8=FIXT.1.1|9=59|35=0|34=358|49=HEMAAPAPUB|52=20170913-10:27:39.736|56=TRAX|10=183|8=FIXT.1.1|9=59|35=0|34=359|49=HEMAAPAPUB|52=20170913-10:28:10.706|56=TRAX|10=171|8=FIXT.1.1|9=59|35=0|34=360|49=HEMAAPAPUB|52=20170913-10:28:40.711|56=TRAX|10=162|8=FIXT.1.1|9=59|35=0|34=361|49=HEMAAPAPUB|52=20170913-10:29:11.682|56=TRAX|10=169|8=FIXT.1.1|9=59|35=0|34=362|49=HEMAAPAPUB|52=20170913-10:29:42.668|56=TRAX|10=178|8=FIXT.1.1|9=59|35=0|34=363|49=HEMAAPAPUB|52=20170913-10:30:13.656|56=TRAX|10=166|8=FIXT.1.1|9=59|35=0|34=364|49=HEMAAPAPUB|52=20170913-10:30:43.666|56=TRAX|10=171|8=FIXT.1.1|9=59|35=0|34=365|49=HEMAAPAPUB|52=20170913-10:31:14.652|56=TRAX|10=166|8=FIXT.1.1|9=59|35=0|34=366|49=HEMAAPAPUB|52=20170913-10:31:45.624|56=TRAX|10=170|8=FIXT.1.1|9=59|35=0|34=367|49=HEMAAPAPUB|52=20170913-10:32:16.620|56=TRAX|10=166|8=FIXT.1.1|9=59|35=0|34=368|49=HEMAAPAPUB|52=20170913-10:32:47.615|56=TRAX|10=175|8=FIXT.1.1|9=59|35=0|34=369|49=HEMAAPAPUB|52=20170913-10:33:17.638|56=TRAX|10=179|8=FIXT.1.1|9=59|35=0|34=370|49=HEMAAPAPUB|52=20170913-10:33:48.627|56=TRAX|10=173|8=FIXT.1.1|9=59|35=0|34=371|49=HEMAAPAPUB|52=20170913-10:34:19.622|56=TRAX|10=168|8=FIXT.1.1|9=59|35=0|34=372|49=HEMAAPAPUB|52=20170913-10:34:49.623|56=TRAX|10=173|8=FIXT.1.1|9=59|35=0|34=373|49=HEMAAPAPUB|52=20170913-10:35:20.615|56=TRAX|10=165|8=FIXT.1.1|9=59|35=0|34=374|49=HEMAAPAPUB|52=20170913-10:35:51.616|56=TRAX|10=171|8=FIXT.1.1|9=59|35=0|34=375|49=HEMAAPAPUB|52=20170913-10:36:22.605|56=TRAX|10=169|8=FIXT.1.1|9=59|35=0|34=376|49=HEMAAPAPUB|52=20170913-10:36:52.612|56=TRAX|10=171|8=FIXT.1.1|9=59|35=0|34=377|49=HEMAAPAPUB|52=20170913-10:37:23.606|56=TRAX|10=174|8=FIXT.1.1|9=59|35=0|34=378|49=HEMAAPAPUB|52=20170913-10:37:53.611|56=TRAX|10=174|8=FIXT.1.1|9=59|35=0|34=379|49=HEMAAPAPUB|52=20170913-10:38:24.605|56=TRAX|10=177|8=FIXT.1.1|9=59|35=0|34=380|49=HEMAAPAPUB|52=20170913-10:38:55.584|56=TRAX|10=179|8=FIXT.1.1|9=59|35=0|34=381|49=HEMAAPAPUB|52=20170913-10:39:26.583|56=TRAX|10=178|8=FIXT.1.1|9=59|35=0|34=382|49=HEMAAPAPUB|52=20170913-10:39:57.583|56=TRAX|10=183|8=FIXT.1.1|9=59|35=0|34=383|49=HEMAAPAPUB|52=20170913-10:40:28.581|56=TRAX|10=172|8=FIXT.1.1|9=59|35=0|34=384|49=HEMAAPAPUB|52=20170913-10:40:59.580|56=TRAX|10=176|8=FIXT.1.1|9=59|35=0|34=385|49=HEMAAPAPUB|52=20170913-10:41:30.578|56=TRAX|10=174|8=FIXT.1.1|9=59|35=0|34=386|49=HEMAAPAPUB|52=20170913-10:42:01.577|56=TRAX|10=173|8=FIXT.1.1|9=59|35=0|34=387|49=HEMAAPAPUB|52=20170913-10:42:31.579|56=TRAX|10=179|8=FIXT.1.1|9=59|35=0|34=388|49=HEMAAPAPUB|52=20170913-10:43:01.599|56=TRAX|10=180|8=FIXT.1.1|9=59|35=0|34=389|49=HEMAAPAPUB|52=20170913-10:43:32.601|56=TRAX|10=169|8=FIXT.1.1|9=59|35=0|34=390|49=HEMAAPAPUB|52=20170913-10:44:03.600|56=TRAX|10=159|8=FIXT.1.1|9=59|35=0|34=391|49=HEMAAPAPUB|52=20170913-10:44:33.603|56=TRAX|10=166|8=FIXT.1.1|9=59|35=0|34=392|49=HEMAAPAPUB|52=20170913-10:45:04.600|56=TRAX|10=163|8=FIXT.1.1|9=59|35=0|34=393|49=HEMAAPAPUB|52=20170913-10:45:35.438|56=TRAX|10=177|8=FIXT.1.1|9=59|35=0|34=394|49=HEMAAPAPUB|52=20170913-10:46:05.579|56=TRAX|10=182|8=FIXT.1.1|9=59|35=0|34=395|49=HEMAAPAPUB|52=20170913-10:46:35.604|56=TRAX|10=175|8=FIXT.1.1|9=59|35=0|34=396|49=HEMAAPAPUB|52=20170913-10:47:05.606|56=TRAX|10=176|8=FIXT.1.1|9=59|35=0|34=397|49=HEMAAPAPUB|52=20170913-10:47:36.602|56=TRAX|10=177|8=FIXT.1.1|9=59|35=0|34=398|49=HEMAAPAPUB|52=20170913-10:48:07.585|56=TRAX|10=187|