8=FIXT.1.1|9=95|35=A|34=1|49=PUBQA3|52=20180206-10:15:29.276|56=TRAX|98=0|108=30|95=8|96=2.0.0rc4|141=Y|1137=9|10=057|8=FIXT.1.1|9=53|35=0|34=2|49=PUBQA3|52=20180206-10:16:00.236|56=TRAX|10=004|8=FIXT.1.1|9=53|35=0|34=3|49=PUBQA3|52=20180206-10:16:30.239|56=TRAX|10=011|8=FIXT.1.1|9=53|35=0|34=4|49=PUBQA3|52=20180206-10:17:00.243|56=TRAX|10=005|8=FIXT.1.1|9=53|35=0|34=5|49=PUBQA3|52=20180206-10:17:30.243|56=TRAX|10=009|8=FIXT.1.1|9=53|35=0|34=6|49=PUBQA3|52=20180206-10:18:01.245|56=TRAX|10=011|8=FIXT.1.1|9=53|35=0|34=7|49=PUBQA3|52=20180206-10:18:31.245|56=TRAX|10=015|8=FIXT.1.1|9=53|35=0|34=8|49=PUBQA3|52=20180206-10:19:01.565|56=TRAX|10=019|8=FIXT.1.1|9=53|35=0|34=9|49=PUBQA3|52=20180206-10:19:32.238|56=TRAX|10=021|8=FIXT.1.1|9=54|35=0|34=10|49=PUBQA3|52=20180206-10:20:02.239|56=TRAX|10=052|8=FIXT.1.1|9=54|35=0|34=11|49=PUBQA3|52=20180206-10:20:32.248|56=TRAX|10=056|8=FIXT.1.1|9=54|35=0|34=12|49=PUBQA3|52=20180206-10:21:03.241|56=TRAX|10=049|8=FIXT.1.1|9=54|35=0|34=13|49=PUBQA3|52=20180206-10:21:33.244|56=TRAX|10=056|8=FIXT.1.1|9=54|35=0|34=14|49=PUBQA3|52=20180206-10:22:03.248|56=TRAX|10=059|8=FIXT.1.1|9=54|35=0|34=15|49=PUBQA3|52=20180206-10:22:34.243|56=TRAX|10=059|8=FIXT.1.1|9=54|35=0|34=16|49=PUBQA3|52=20180206-10:23:05.242|56=TRAX|10=058|8=FIXT.1.1|9=54|35=0|34=17|49=PUBQA3|52=20180206-10:23:35.243|56=TRAX|10=063|8=FIXT.1.1|9=54|35=0|34=18|49=PUBQA3|52=20180206-10:24:06.249|56=TRAX|10=069|8=FIXT.1.1|9=54|35=0|34=19|49=PUBQA3|52=20180206-10:24:36.251|56=TRAX|10=066|8=FIXT.1.1|9=54|35=0|34=20|49=PUBQA3|52=20180206-10:25:07.244|56=TRAX|10=059|8=FIXT.1.1|9=54|35=0|34=21|49=PUBQA3|52=20180206-10:25:37.244|56=TRAX|10=063|8=FIXT.1.1|9=54|35=0|34=22|49=PUBQA3|52=20180206-10:26:07.253|56=TRAX|10=062|8=FIXT.1.1|9=54|35=0|34=23|49=PUBQA3|52=20180206-10:26:38.248|56=TRAX|10=071|8=FIXT.1.1|9=54|35=0|34=24|49=PUBQA3|52=20180206-10:27:09.248|56=TRAX|10=071|8=FIXT.1.1|9=54|35=0|34=25|49=PUBQA3|52=20180206-10:27:39.251|56=TRAX|10=069|8=FIXT.1.1|9=54|35=0|34=26|49=PUBQA3|52=20180206-10:28:10.228|56=TRAX|10=064|8=FIXT.1.1|9=54|35=0|34=27|49=PUBQA3|52=20180206-10:28:40.228|56=TRAX|10=068|8=FIXT.1.1|9=54|35=0|34=28|49=PUBQA3|52=20180206-10:29:11.273|56=TRAX|10=068|8=FIXT.1.1|9=54|35=0|34=29|49=PUBQA3|52=20180206-10:29:42.225|56=TRAX|10=070|8=FIXT.1.1|9=54|35=0|34=30|49=PUBQA3|52=20180206-10:30:13.270|56=TRAX|10=052|8=FIXT.1.1|9=54|35=0|34=31|49=PUBQA3|52=20180206-10:30:44.223|56=TRAX|10=055|8=FIXT.1.1|9=54|35=0|34=32|49=PUBQA3|52=20180206-10:31:15.222|56=TRAX|10=054|8=FIXT.1.1|9=54|35=0|34=33|49=PUBQA3|52=20180206-10:31:46.221|56=TRAX|10=058|8=FIXT.1.1|9=54|35=0|34=34|49=PUBQA3|52=20180206-10:32:16.240|56=TRAX|10=058|8=FIXT.1.1|9=54|35=0|34=35|49=PUBQA3|52=20180206-10:32:46.242|56=TRAX|10=064|8=FIXT.1.1|9=54|35=0|34=36|49=PUBQA3|52=20180206-10:33:16.247|56=TRAX|10=068|8=FIXT.1.1|9=54|35=0|34=37|49=PUBQA3|52=20180206-10:33:46.271|56=TRAX|10=069|8=FIXT.1.1|9=54|35=0|34=38|49=PUBQA3|52=20180206-10:34:17.249|56=TRAX|10=074|8=FIXT.1.1|9=54|35=0|34=39|49=PUBQA3|52=20180206-10:34:48.222|56=TRAX|10=070|8=FIXT.1.1|9=54|35=0|34=40|49=PUBQA3|52=20180206-10:35:18.240|56=TRAX|10=060|8=FIXT.1.1|9=54|35=0|34=41|49=PUBQA3|52=20180206-10:35:49.241|56=TRAX|10=066|8=FIXT.1.1|9=54|35=0|34=42|49=PUBQA3|52=20180206-10:36:20.247|56=TRAX|10=063|8=FIXT.1.1|9=54|35=0|34=43|49=PUBQA3|52=20180206-10:36:50.248|56=TRAX|10=068|8=FIXT.1.1|9=54|35=0|34=44|49=PUBQA3|52=20180206-10:37:21.250|56=TRAX|10=061|8=FIXT.1.1|9=54|35=0|34=45|49=PUBQA3|52=20180206-10:37:52.245|56=TRAX|10=070|8=FIXT.1.1|9=54|35=0|34=46|49=PUBQA3|52=20180206-10:38:22.248|56=TRAX|10=072|8=FIXT.1.1|9=54|35=0|34=47|49=PUBQA3|52=20180206-10:38:52.250|56=TRAX|10=069|8=FIXT.1.1|9=54|35=0|34=48|49=PUBQA3|52=20180206-10:39:23.246|56=TRAX|10=074|8=FIXT.1.1|9=54|35=0|34=49|49=PUBQA3|52=20180206-10:39:54.244|56=TRAX|10=077|8=FIXT.1.1|9=54|35=0|34=50|49=PUBQA3|52=20180206-10:40:25.253|56=TRAX|10=059|8=FIXT.1.1|9=54|35=0|34=51|49=PUBQA3|52=20180206-10:40:55.253|56=TRAX|10=063|8=FIXT.1.1|9=54|35=0|34=52|49=PUBQA3|52=20180206-10:41:26.226|56=TRAX|10=063|8=FIXT.1.1|9=54|35=0|34=53|49=PUBQA3|52=20180206-10:41:56.248|56=TRAX|10=071|8=FIXT.1.1|9=54|35=0|34=54|49=PUBQA3|52=20180206-10:42:27.227|56=TRAX|10=068|8=FIXT.1.1|9=54|35=0|34=55|49=PUBQA3|52=20180206-10:42:57.254|56=TRAX|10=072|8=FIXT.1.1|9=54|35=0|34=56|49=PUBQA3|52=20180206-10:43:28.247|56=TRAX|10=074|8=FIXT.1.1|9=54|35=0|34=57|49=PUBQA3|52=20180206-10:43:58.251|56=TRAX|10=073|8=FIXT.1.1|9=54|35=0|34=58|49=PUBQA3|52=20180206-10:44:28.254|56=TRAX|10=075|8=FIXT.1.1|9=54|35=0|34=59|49=PUBQA3|52=20180206-10:44:58.254|56=TRAX|10=079|8=FIXT.1.1|9=54|35=0|34=60|49=PUBQA3|52=20180206-10:45:28.254|56=TRAX|10=069|8=FIXT.1.1|9=54|35=0|34=61|49=PUBQA3|52=20180206-10:45:58.254|56=TRAX|10=073|8=FIXT.1.1|9=54|35=0|34=62|49=PUBQA3|52=20180206-10:46:29.250|56=TRAX|10=069|8=FIXT.1.1|9=54|35=0|34=63|49=PUBQA3|52=20180206-10:46:59.256|56=TRAX|10=079|8=FIXT.1.1|9=54|35=0|34=64|49=PUBQA3|52=20180206-10:47:30.254|56=TRAX|10=068|8=FIXT.1.1|9=54|35=0|34=65|49=PUBQA3|52=20180206-10:48:01.254|56=TRAX|10=068|8=FIXT.1.1|9=54|35=0|34=66|49=PUBQA3|52=20180206-10:48:31.256|56=TRAX|10=074|8=FIXT.1.1|9=54|35=0|34=67|49=PUBQA3|52=20180206-10:49:01.564|56=TRAX|10=075|8=FIXT.1.1|9=54|35=0|34=68|49=PUBQA3|52=20180206-10:49:31.567|56=TRAX|10=082|8=FIXT.1.1|9=54|35=0|34=69|49=PUBQA3|52=20180206-10:50:02.260|56=TRAX|10=063|8=FIXT.1.1|9=54|35=0|34=70|49=PUBQA3|52=20180206-10:50:32.260|56=TRAX|10=058|8=FIXT.1.1|9=54|35=0|34=71|49=PUBQA3|52=20180206-10:51:02.260|56=TRAX|10=057|8=FIXT.1.1|9=54|35=0|34=72|49=PUBQA3|52=20180206-10:51:32.261|56=TRAX|10=062|8=FIXT.1.1|9=54|35=0|34=73|49=PUBQA3|52=20180206-10:52:02.261|56=TRAX|10=061|8=FIXT.1.1|9=54|35=0|34=74|49=PUBQA3|52=20180206-10:52:33.256|56=TRAX|10=070|8=FIXT.1.1|9=54|35=0|34=75|49=PUBQA3|52=20180206-10:53:03.258|56=TRAX|10=071|8=FIXT.1.1|9=54|35=0|34=76|49=PUBQA3|52=20180206-10:53:33.261|56=TRAX|10=069|8=FIXT.1.1|9=54|35=0|34=77|49=PUBQA3|52=20180206-10:54:03.261|56=TRAX|10=068|8=FIXT.1.1|9=54|35=0|34=78|49=PUBQA3|52=20180206-10:54:34.257|56=TRAX|10=078|8=FIXT.1.1|9=54|35=0|34=79|49=PUBQA3|52=20180206-10:55:04.261|56=TRAX|10=072|8=FIXT.1.1|9=54|35=0|34=80|49=PUBQA3|52=20180206-10:55:34.262|56=TRAX|10=068|8=FIXT.1.1|9=54|35=0|34=81|49=PUBQA3|52=20180206-10:56:05.261|56=TRAX|10=067|8=FIXT.1.1|9=54|35=0|34=82|49=PUBQA3|52=20180206-10:56:35.261|56=TRAX|10=071|8=FIXT.1.1|9=54|35=0|34=83|49=PUBQA3|52=20180206-10:57:05.261|56=TRAX|10=070|8=FIXT.1.1|9=54|35=0|34=84|49=PUBQA3|52=20180206-10:57:35.261|56=TRAX|10=074|8=FIXT.1.1|9=54|35=0|34=85|49=PUBQA3|52=20180206-10:58:05.261|56=TRAX|10=073|8=FIXT.1.1|9=54|35=0|34=86|49=PUBQA3|52=20180206-10:58:35.264|56=TRAX|10=080|8=FIXT.1.1|9=54|35=0|34=87|49=PUBQA3|52=20180206-10:59:05.269|56=TRAX|10=084|8=FIXT.1.1|9=54|35=0|34=88|49=PUBQA3|52=20180206-10:59:36.264|56=TRAX|10=084|8=FIXT.1.1|9=54|35=0|34=89|49=PUBQA3|52=20180206-11:00:07.262|56=TRAX|10=068|8=FIXT.1.1|9=54|35=0|34=90|49=PUBQA3|52=20180206-11:00:37.262|56=TRAX|10=063|8=FIXT.1.1|9=54|35=0|34=91|49=PUBQA3|52=20180206-11:01:07.269|56=TRAX|10=069|8=FIXT.1.1|9=54|35=0|34=92|49=PUBQA3|52=20180206-11:01:37.270|56=TRAX|10=065|8=FIXT.1.1|9=54|35=0|34=93|49=PUBQA3|52=20180206-11:02:07.270|56=TRAX|10=064|8=FIXT.1.1|9=54|35=0|34=94|49=PUBQA3|52=20180206-11:02:38.264|56=TRAX|10=072|8=FIXT.1.1|9=54|35=0|34=95|49=PUBQA3|52=20180206-11:03:08.270|56=TRAX|10=068|8=FIXT.1.1|9=54|35=0|34=96|49=PUBQA3|52=20180206-11:03:38.273|56=TRAX|10=075|8=FIXT.1.1|9=54|35=0|34=97|49=PUBQA3|52=20180206-11:04:09.274|56=TRAX|10=076|8=FIXT.1.1|9=54|35=0|34=98|49=PUBQA3|52=20180206-11:04:39.274|56=TRAX|10=080|8=FIXT.1.1|9=54|35=0|34=99|49=PUBQA3|52=20180206-11:05:10.267|56=TRAX|10=073|8=FIXT.1.1|9=55|35=0|34=100|49=PUBQA3|52=20180206-11:05:40.275|56=TRAX|10=107|8=FIXT.1.1|9=55|35=0|34=101|49=PUBQA3|52=20180206-11:06:11.272|56=TRAX|10=104|8=FIXT.1.1|9=55|35=0|34=102|49=PUBQA3|52=20180206-11:06:42.270|56=TRAX|10=107|8=FIXT.1.1|9=55|35=0|34=103|49=PUBQA3|52=20180206-11:07:12.272|56=TRAX|10=108|8=FIXT.1.1|9=55|35=0|34=104|49=PUBQA3|52=20180206-11:07:42.274|56=TRAX|10=114|8=FIXT.1.1|9=55|35=0|34=105|49=PUBQA3|52=20180206-11:08:12.277|56=TRAX|10=116|8=FIXT.1.1|9=55|35=0|34=106|49=PUBQA3|52=20180206-11:08:42.277|56=TRAX|10=120|8=FIXT.1.1|9=55|35=0|34=107|49=PUBQA3|52=20180206-11:09:13.272|56=TRAX|10=115|8=FIXT.1.1|9=55|35=0|34=108|49=PUBQA3|52=20180206-11:09:43.278|56=TRAX|10=125|8=FIXT.1.1|9=55|35=0|34=109|49=PUBQA3|52=20180206-11:10:14.271|56=TRAX|10=109|8=FIXT.1.1|9=55|35=0|34=110|49=PUBQA3|52=20180206-11:10:44.273|56=TRAX|10=106|8=FIXT.1.1|9=55|35=0|34=111|49=PUBQA3|52=20180206-11:11:14.276|56=TRAX|10=108|8=FIXT.1.1|9=55|35=0|34=112|49=PUBQA3|52=20180206-11:11:44.281|56=TRAX|10=108|8=FIXT.1.1|9=55|35=0|34=113|49=PUBQA3|52=20180206-11:12:15.280|56=TRAX|10=107|8=FIXT.1.1|9=55|35=0|34=114|49=PUBQA3|52=20180206-11:12:46.276|56=TRAX|10=117|8=FIXT.1.1|9=55|35=0|34=115|49=PUBQA3|52=20180206-11:13:16.280|56=TRAX|10=111|8=FIXT.1.1|9=55|35=0|34=116|49=PUBQA3|52=20180206-11:13:47.277|56=TRAX|10=122|8=FIXT.1.1|9=55|35=0|34=117|49=PUBQA3|52=20180206-11:14:17.282|56=TRAX|10=117|8=FIXT.1.1|9=55|35=0|34=118|49=PUBQA3|52=20180206-11:14:48.278|56=TRAX|10=127|8=FIXT.1.1|9=55|35=0|34=119|49=PUBQA3|52=20180206-11:15:19.278|56=TRAX|10=127|8=FIXT.1.1|9=55|35=0|34=120|49=PUBQA3|52=20180206-11:15:49.285|56=TRAX|10=120|8=FIXT.1.1|9=55|35=0|34=121|49=PUBQA3|52=20180206-11:16:20.260|56=TRAX|10=104|8=FIXT.1.1|9=55|35=0|34=122|49=PUBQA3|52=20180206-11:16:50.280|56=TRAX|10=110|8=FIXT.1.1|9=55|35=0|34=123|49=PUBQA3|52=20180206-11:17:20.283|56=TRAX|10=112|8=FIXT.1.1|9=55|35=0|34=124|49=PUBQA3|52=20180206-11:17:50.284|56=TRAX|10=117|8=FIXT.1.1|9=55|35=0|34=125|49=PUBQA3|52=20180206-11:18:20.285|56=TRAX|10=117|8=FIXT.1.1|9=55|35=0|34=126|49=PUBQA3|52=20180206-11:18:51.278|56=TRAX|10=124|8=FIXT.1.1|9=55|35=0|34=127|49=PUBQA3|52=20180206-11:19:21.285|56=TRAX|10=121|8=FIXT.1.1|9=55|35=0|34=128|49=PUBQA3|52=20180206-11:19:52.287|56=TRAX|10=128|8=FIXT.1.1|9=55|35=0|34=129|49=PUBQA3|52=20180206-11:20:23.287|56=TRAX|10=119|8=FIXT.1.1|9=55|35=0|34=130|49=PUBQA3|52=20180206-11:20:54.287|56=TRAX|10=115|8=FIXT.1.1|9=55|35=0|34=131|49=PUBQA3|52=20180206-11:21:24.287|56=TRAX|10=114|8=FIXT.1.1|9=55|35=0|34=132|49=PUBQA3|52=20180206-11:21:54.288|56=TRAX|10=119|8=FIXT.1.1|9=55|35=0|34=133|49=PUBQA3|52=20180206-11:22:25.284|56=TRAX|10=115|8=FIXT.1.1|9=55|35=0|34=134|49=PUBQA3|52=20180206-11:22:55.286|56=TRAX|10=121|8=FIXT.1.1|9=55|35=0|34=135|49=PUBQA3|52=20180206-11:23:25.288|56=TRAX|10=122|8=FIXT.1.1|9=55|35=0|34=136|49=PUBQA3|52=20180206-11:23:56.287|56=TRAX|10=126|8=FIXT.1.1|9=55|35=0|34=137|49=PUBQA3|52=20180206-11:24:27.286|56=TRAX|10=125|8=FIXT.1.1|9=55|35=0|34=138|49=PUBQA3|52=20180206-11:24:58.287|56=TRAX|10=131|8=FIXT.1.1|9=55|35=0|34=139|49=PUBQA3|52=20180206-11:25:28.291|56=TRAX|10=125|8=FIXT.1.1|9=55|35=0|34=140|49=PUBQA3|52=20180206-11:25:59.269|56=TRAX|10=126|8=FIXT.1.1|9=55|35=0|34=141|49=PUBQA3|52=20180206-11:26:29.287|56=TRAX|10=125|8=FIXT.1.1|9=55|35=0|34=142|49=PUBQA3|52=20180206-11:26:59.290|56=TRAX|10=123|8=FIXT.1.1|9=55|35=0|34=143|49=PUBQA3|52=20180206-11:27:30.287|56=TRAX|10=120|8=FIXT.1.1|9=55|35=0|34=144|49=PUBQA3|52=20180206-11:28:00.295|56=TRAX|10=118|8=FIXT.1.1|9=55|35=0|34=145|49=PUBQA3|52=20180206-11:28:31.291|56=TRAX|10=119|8=FIXT.1.1|9=55|35=0|34=146|49=PUBQA3|52=20180206-11:29:01.295|56=TRAX|10=122|8=FIXT.1.1|9=55|35=0|34=147|49=PUBQA3|52=20180206-11:29:31.295|56=TRAX|10=126|8=FIXT.1.1|9=55|35=0|34=148|49=PUBQA3|52=20180206-11:30:01.582|56=TRAX|10=115|8=FIXT.1.1|9=55|35=0|34=149|49=PUBQA3|52=20180206-11:30:32.289|56=TRAX|10=124|8=FIXT.1.1|9=55|35=0|34=150|49=PUBQA3|52=20180206-11:31:02.298|56=TRAX|10=114|8=FIXT.1.1|9=55|35=0|34=151|49=PUBQA3|52=20180206-11:31:33.298|56=TRAX|10=119|8=FIXT.1.1|9=55|35=0|34=152|49=PUBQA3|52=20180206-11:32:04.291|56=TRAX|10=112|8=FIXT.1.1|9=55|35=0|34=153|49=PUBQA3|52=20180206-11:32:34.299|56=TRAX|10=124|8=FIXT.1.1|9=55|35=0|34=154|49=PUBQA3|52=20180206-11:33:04.300|56=TRAX|10=106|8=FIXT.1.1|9=55|35=0|34=155|49=PUBQA3|52=20180206-11:33:35.299|56=TRAX|10=128|8=FIXT.1.1|9=55|35=0|34=156|49=PUBQA3|52=20180206-11:34:06.295|56=TRAX|10=124|8=FIXT.1.1|9=55|35=0|34=157|49=PUBQA3|52=20180206-11:34:36.295|56=TRAX|10=128|8=FIXT.1.1|9=55|35=0|34=158|49=PUBQA3|52=20180206-11:35:07.276|56=TRAX|10=127|8=FIXT.1.1|9=55|35=0|34=159|49=PUBQA3|52=20180206-11:35:37.276|56=TRAX|10=131|8=FIXT.1.1|9=55|35=0|34=160|49=PUBQA3|52=20180206-11:36:07.297|56=TRAX|10=124|8=FIXT.1.1|9=55|35=0|34=161|49=PUBQA3|52=20180206-11:36:38.296|56=TRAX|10=128|8=FIXT.1.1|9=55|35=0|34=162|49=PUBQA3|52=20180206-11:37:08.302|56=TRAX|10=115|8=FIXT.1.1|9=55|35=0|34=163|49=PUBQA3|52=20180206-11:37:39.301|56=TRAX|10=119|8=FIXT.1.1|9=55|35=0|34=164|49=PUBQA3|52=20180206-11:38:10.303|56=TRAX|10=112|8=FIXT.1.1|9=55|35=0|34=165|49=PUBQA3|52=20180206-11:38:41.295|56=TRAX|10=127|8=FIXT.1.1|9=55|35=0|34=166|49=PUBQA3|52=20180206-11:39:11.299|56=TRAX|10=130|8=FIXT.1.1|9=55|35=0|34=167|49=PUBQA3|52=20180206-11:39:41.299|56=TRAX|10=134|8=FIXT.1.1|9=55|35=0|34=168|49=PUBQA3|52=20180206-11:40:11.305|56=TRAX|10=112|8=FIXT.1.1|9=55|35=0|34=169|49=PUBQA3|52=20180206-11:40:42.280|56=TRAX|10=119|8=FIXT.1.1|9=55|35=0|34=170|49=PUBQA3|52=20180206-11:41:13.278|56=TRAX|10=117|8=FIXT.1.1|9=55|35=0|34=171|49=PUBQA3|52=20180206-11:41:43.278|56=TRAX|10=121|8=FIXT.1.1|9=55|35=0|34=172|49=PUBQA3|52=20180206-11:42:13.299|56=TRAX|10=123|8=FIXT.1.1|9=55|35=0|34=173|49=PUBQA3|52=20180206-11:42:44.296|56=TRAX|10=125|8=FIXT.1.1|9=55|35=0|34=174|49=PUBQA3|52=20180206-11:43:14.297|56=TRAX|10=125|8=FIXT.1.1|9=55|35=0|34=175|49=PUBQA3|52=20180206-11:43:45.278|56=TRAX|10=129|8=FIXT.1.1|9=55|35=0|34=176|49=PUBQA3|52=20180206-11:44:15.304|56=TRAX|10=118|8=FIXT.1.1|9=55|35=0|34=177|49=PUBQA3|52=20180206-11:44:46.300|56=TRAX|10=119|8=FIXT.1.1|9=55|35=0|34=178|49=PUBQA3|52=20180206-11:45:17.297|56=TRAX|10=134|8=FIXT.1.1|9=55|35=0|34=179|49=PUBQA3|52=20180206-11:45:47.301|56=TRAX|10=124|8=FIXT.1.1|9=55|35=0|34=180|49=PUBQA3|52=20180206-11:46:17.303|56=TRAX|10=116|8=FIXT.1.1|9=55|35=0|34=181|49=PUBQA3|52=20180206-11:46:48.298|56=TRAX|10=134|8=FIXT.1.1|9=55|35=0|34=182|49=PUBQA3|52=20180206-11:47:18.308|56=TRAX|10=125|8=FIXT.1.1|9=55|35=0|34=183|49=PUBQA3|52=20180206-11:47:49.307|56=TRAX|10=129|8=FIXT.1.1|9=55|35=0|34=184|49=PUBQA3|52=20180206-11:48:20.309|56=TRAX|10=122|8=FIXT.1.1|9=55|35=0|34=185|49=PUBQA3|52=20180206-11:48:51.301|56=TRAX|10=119|8=FIXT.1.1|9=55|35=0|34=186|49=PUBQA3|52=20180206-11:49:21.305|56=TRAX|10=122|8=FIXT.1.1|9=55|35=0|34=187|49=PUBQA3|52=20180206-11:49:51.307|56=TRAX|10=128|8=FIXT.1.1|9=55|35=0|34=188|49=PUBQA3|52=20180206-11:50:22.310|56=TRAX|10=113|8=FIXT.1.1|9=55|35=0|34=189|49=PUBQA3|52=20180206-11:50:53.310|56=TRAX|10=118|8=FIXT.1.1|9=55|35=0|34=190|49=PUBQA3|52=20180206-11:51:24.305|56=TRAX|10=113|8=FIXT.1.1|9=55|35=0|34=191|49=PUBQA3|52=20180206-11:51:54.310|56=TRAX|10=113|8=FIXT.1.1|9=55|35=0|34=192|49=PUBQA3|52=20180206-11:52:25.303|56=TRAX|10=115|8=FIXT.1.1|9=55|35=0|34=193|49=PUBQA3|52=20180206-11:52:56.285|56=TRAX|10=129|8=FIXT.1.1|9=55|35=0|34=194|49=PUBQA3|52=20180206-11:53:26.308|56=TRAX|10=124|8=FIXT.1.1|9=55|35=0|34=195|49=PUBQA3|52=20180206-11:53:57.302|56=TRAX|10=123|8=FIXT.1.1|9=55|35=0|34=196|49=PUBQA3|52=20180206-11:54:28.284|56=TRAX|10=132|8=FIXT.1.1|9=55|35=0|34=197|49=PUBQA3|52=20180206-11:54:58.303|56=TRAX|10=128|8=FIXT.1.1|9=55|35=0|34=198|49=PUBQA3|52=20180206-11:55:28.303|56=TRAX|10=127|8=FIXT.1.1|9=55|35=0|34=199|49=PUBQA3|52=20180206-11:55:59.307|56=TRAX|10=136|8=FIXT.1.1|9=55|35=0|34=200|49=PUBQA3|52=20180206-11:56:29.310|56=TRAX|10=111|8=FIXT.1.1|9=55|35=0|34=201|49=PUBQA3|52=20180206-11:57:00.311|56=TRAX|10=103|8=FIXT.1.1|9=55|35=0|34=202|49=PUBQA3|52=20180206-11:57:31.303|56=TRAX|10=109|8=FIXT.1.1|9=55|35=0|34=203|49=PUBQA3|52=20180206-11:58:01.303|56=TRAX|10=108|8=FIXT.1.1|9=55|35=0|34=204|49=PUBQA3|52=20180206-11:58:31.564|56=TRAX|10=121|8=FIXT.1.1|9=55|35=0|34=205|49=PUBQA3|52=20180206-11:59:01.572|56=TRAX|10=119|8=FIXT.1.1|9=55|35=0|34=206|49=PUBQA3|52=20180206-11:59:31.600|56=TRAX|10=115|8=FIXT.1.1|9=55|35=0|34=207|49=PUBQA3|52=20180206-12:00:01.604|56=TRAX|10=104|8=FIXT.1.1|9=55|35=0|34=208|49=PUBQA3|52=20180206-12:00:31.739|56=TRAX|10=117|8=FIXT.1.1|9=55|35=0|34=209|49=PUBQA3|52=20180206-12:01:02.308|56=TRAX|10=109|8=FIXT.1.1|9=55|35=0|34=210|49=PUBQA3|52=20180206-12:01:32.313|56=TRAX|10=100|8=FIXT.1.1|9=55|35=0|34=211|49=PUBQA3|52=20180206-12:02:03.311|56=TRAX|10=098|8=FIXT.1.1|9=55|35=0|34=212|49=PUBQA3|52=20180206-12:02:34.287|56=TRAX|10=115|8=FIXT.1.1|9=55|35=0|34=213|49=PUBQA3|52=20180206-12:03:04.306|56=TRAX|10=106|8=FIXT.1.1|9=55|35=0|34=214|49=PUBQA3|52=20180206-12:03:34.309|56=TRAX|10=113|8=FIXT.1.1|9=55|35=0|34=215|49=PUBQA3|52=20180206-12:04:05.310|56=TRAX|10=105|8=FIXT.1.1|9=55|35=0|34=216|49=PUBQA3|52=20180206-12:04:35.312|56=TRAX|10=111|8=FIXT.1.1|9=55|35=0|34=217|49=PUBQA3|52=20180206-12:05:06.307|56=TRAX|10=115|8=FIXT.1.1|9=55|35=0|34=218|49=PUBQA3|52=20180206-12:05:36.314|56=TRAX|10=117|8=FIXT.1.1|9=55|35=0|34=219|49=PUBQA3|52=20180206-12:06:07.313|56=TRAX|10=116|8=FIXT.1.1|9=55|35=0|34=220|49=PUBQA3|52=20180206-12:06:38.310|56=TRAX|10=109|8=FIXT.1.1|9=55|35=0|34=221|49=PUBQA3|52=20180206-12:07:08.314|56=TRAX|10=112|8=FIXT.1.1|9=55|35=0|34=222|49=PUBQA3|52=20180206-12:07:39.312|56=TRAX|10=115|8=FIXT.1.1|9=55|35=0|34=223|49=PUBQA3|52=20180206-12:08:09.315|56=TRAX|10=117|8=FIXT.1.1|9=55|35=0|34=224|49=PUBQA3|52=20180206-12:08:39.319|56=TRAX|10=125|8=FIXT.1.1|9=55|35=0|34=225|49=PUBQA3|52=20180206-12:09:09.319|56=TRAX|10=124|8=FIXT.1.1|9=55|35=0|34=226|49=PUBQA3|52=20180206-12:09:40.317|56=TRAX|10=118|8=FIXT.1.1|9=55|35=0|34=227|49=PUBQA3|52=20180206-12:10:10.321|56=TRAX|10=103|8=FIXT.1.1|9=55|35=0|34=228|49=PUBQA3|52=20180206-12:10:40.321|56=TRAX|10=107|8=FIXT.1.1|9=55|35=0|34=229|49=PUBQA3|52=20180206-12:11:11.317|56=TRAX|10=112|8=FIXT.1.1|9=55|35=0|34=230|49=PUBQA3|52=20180206-12:11:41.321|56=TRAX|10=102|8=FIXT.1.1|9=55|35=0|34=231|49=PUBQA3|52=20180206-12:12:12.314|56=TRAX|10=104|8=FIXT.1.1|9=55|35=0|34=232|49=PUBQA3|52=20180206-12:12:42.324|56=TRAX|10=109|8=FIXT.1.1|9=55|35=0|34=233|49=PUBQA3|52=20180206-12:13:13.317|56=TRAX|10=111|8=FIXT.1.1|9=55|35=0|34=234|49=PUBQA3|52=20180206-12:13:43.319|56=TRAX|10=117|8=FIXT.1.1|9=55|35=0|34=235|49=PUBQA3|52=20180206-12:14:13.323|56=TRAX|10=111|8=FIXT.1.1|9=55|35=0|34=236|49=PUBQA3|52=20180206-12:14:43.323|56=TRAX|10=115|8=FIXT.1.1|9=55|35=0|34=237|49=PUBQA3|52=20180206-12:15:14.322|56=TRAX|10=114|8=FIXT.1.1|9=55|35=0|34=238|49=PUBQA3|52=20180206-12:15:45.302|56=TRAX|10=117|8=FIXT.1.1|9=55|35=0|34=239|49=PUBQA3|52=20180206-12:16:15.321|56=TRAX|10=117|8=FIXT.1.1|9=55|35=0|34=240|49=PUBQA3|52=20180206-12:16:46.317|56=TRAX|10=118|8=FIXT.1.1|9=55|35=0|34=241|49=PUBQA3|52=20180206-12:17:17.300|56=TRAX|10=110|8=FIXT.1.1|9=55|35=0|34=242|49=PUBQA3|52=20180206-12:17:48.299|56=TRAX|10=132|8=FIXT.1.1|9=55|35=0|34=243|49=PUBQA3|52=20180206-12:18:18.315|56=TRAX|10=120|8=FIXT.1.1|9=55|35=0|34=244|49=PUBQA3|52=20180206-12:18:49.297|56=TRAX|10=134|8=FIXT.1.1|9=55|35=0|34=245|49=PUBQA3|52=20180206-12:19:19.306|56=TRAX|10=124|8=FIXT.1.1|9=55|35=0|34=246|49=PUBQA3|52=20180206-12:19:49.315|56=TRAX|10=128|8=FIXT.1.1|9=55|35=0|34=247|49=PUBQA3|52=20180206-12:20:20.318|56=TRAX|10=113|8=FIXT.1.1|9=55|35=0|34=248|49=PUBQA3|52=20180206-12:20:50.322|56=TRAX|10=112|8=FIXT.1.1|9=55|35=0|34=249|49=PUBQA3|52=20180206-12:21:20.322|56=TRAX|10=111|8=FIXT.1.1|9=55|35=0|34=250|49=PUBQA3|52=20180206-12:21:51.299|56=TRAX|10=120|8=FIXT.1.1|9=55|35=0|34=251|49=PUBQA3|52=20180206-12:22:21.321|56=TRAX|10=105|8=FIXT.1.1|9=55|35=0|34=252|49=PUBQA3|52=20180206-12:22:52.320|56=TRAX|10=109|8=FIXT.1.1|9=55|35=0|34=253|49=PUBQA3|52=20180206-12:23:22.322|56=TRAX|10=110|8=FIXT.1.1|9=55|35=0|34=254|49=PUBQA3|52=20180206-12:23:52.324|56=TRAX|10=116|8=FIXT.1.1|9=55|35=0|34=255|49=PUBQA3|52=20180206-12:24:22.324|56=TRAX|10=115|8=FIXT.1.1|9=55|35=0|34=256|49=PUBQA3|52=20180206-12:24:52.325|56=TRAX|10=120|8=FIXT.1.1|9=55|35=0|34=257|49=PUBQA3|52=20180206-12:25:23.316|56=TRAX|10=120|8=FIXT.1.1|9=55|35=0|34=258|49=PUBQA3|52=20180206-12:25:53.325|56=TRAX|10=124|8=FIXT.1.1|9=55|35=0|34=259|49=PUBQA3|52=20180206-12:26:23.325|56=TRAX|10=123|8=FIXT.1.1|9=55|35=0|34=260|49=PUBQA3|52=20180206-12:26:53.327|56=TRAX|10=120|8=FIXT.1.1|9=55|35=0|34=261|49=PUBQA3|52=20180206-12:27:24.319|56=TRAX|10=121|8=FIXT.1.1|9=55|35=0|34=262|49=PUBQA3|52=20180206-12:27:55.327|56=TRAX|10=125|8=FIXT.1.1|9=55|35=0|34=263|49=PUBQA3|52=20180206-12:28:26.323|56=TRAX|10=121|8=FIXT.1.1|9=55|35=0|34=264|49=PUBQA3|52=20180206-12:28:57.318|56=TRAX|10=130|8=FIXT.1.1|9=55|35=0|34=265|49=PUBQA3|52=20180206-12:29:28.321|56=TRAX|10=124|8=FIXT.1.1|9=55|35=0|34=266|49=PUBQA3|52=20180206-12:29:58.321|56=TRAX|10=128|8=FIXT.1.1|9=55|35=0|34=267|49=PUBQA3|52=20180206-12:30:29.300|56=TRAX|10=116|8=FIXT.1.1|9=55|35=0|34=268|49=PUBQA3|52=20180206-12:30:59.300|56=TRAX|10=120|8=FIXT.1.1|9=55|35=0|34=269|49=PUBQA3|52=20180206-12:31:29.322|56=TRAX|10=123|8=FIXT.1.1|9=55|35=0|34=270|49=PUBQA3|52=20180206-12:32:00.300|56=TRAX|10=101|8=FIXT.1.1|9=55|35=0|34=271|49=PUBQA3|52=20180206-12:32:30.300|56=TRAX|10=105|8=FIXT.1.1|9=55|35=0|34=272|49=PUBQA3|52=20180206-12:33:01.299|56=TRAX|10=122|8=FIXT.1.1|9=55|35=0|34=273|49=PUBQA3|52=20180206-12:33:31.324|56=TRAX|10=115|8=FIXT.1.1|9=55|35=0|34=274|49=PUBQA3|52=20180206-12:34:01.326|56=TRAX|10=116|8=FIXT.1.1|9=55|35=0|34=275|49=PUBQA3|52=20180206-12:34:31.565|56=TRAX|10=125|8=FIXT.1.1|9=55|35=0|34=276|49=PUBQA3|52=20180206-12:35:01.579|56=TRAX|10=129|8=FIXT.1.1|9=55|35=0|34=277|49=PUBQA3|52=20180206-12:35:31.581|56=TRAX|10=126|8=FIXT.1.1|9=55|35=0|34=278|49=PUBQA3|52=20180206-12:36:02.324|56=TRAX|10=121|8=FIXT.1.1|9=55|35=0|34=279|49=PUBQA3|52=20180206-12:36:33.321|56=TRAX|10=123|8=FIXT.1.1|9=55|35=0|34=280|49=PUBQA3|52=20180206-12:37:03.323|56=TRAX|10=115|8=FIXT.1.1|9=55|35=0|34=281|49=PUBQA3|52=20180206-12:37:33.326|56=TRAX|10=122|8=FIXT.1.1|9=55|35=0|34=282|49=PUBQA3|52=20180206-12:38:04.325|56=TRAX|10=121|8=FIXT.1.1|9=55|35=0|34=283|49=PUBQA3|52=20180206-12:38:34.325|56=TRAX|10=125|8=FIXT.1.1|9=55|35=0|34=284|49=PUBQA3|52=20180206-12:39:05.325|56=TRAX|10=125|8=FIXT.1.1|9=55|35=0|34=285|49=PUBQA3|52=20180206-12:39:36.327|56=TRAX|10=132|8=FIXT.1.1|9=55|35=0|34=286|49=PUBQA3|52=20180206-12:40:07.323|56=TRAX|10=119|8=FIXT.1.1|9=55|35=0|34=287|49=PUBQA3|52=20180206-12:40:38.329|56=TRAX|10=130|8=FIXT.1.1|9=55|35=0|34=288|49=PUBQA3|52=20180206-12:41:09.306|56=TRAX|10=125|8=FIXT.1.1|9=55|35=0|34=289|49=PUBQA3|52=20180206-12:41:39.326|56=TRAX|10=131|8=FIXT.1.1|9=55|35=0|34=290|49=PUBQA3|52=20180206-12:42:09.332|56=TRAX|10=118|8=FIXT.1.1|9=55|35=0|34=291|49=PUBQA3|52=20180206-12:42:39.333|56=TRAX|10=123|8=FIXT.1.1|9=55|35=0|34=292|49=PUBQA3|52=20180206-12:43:09.333|56=TRAX|10=122|8=FIXT.1.1|9=55|35=0|34=293|49=PUBQA3|52=20180206-12:43:39.334|56=TRAX|10=127|8=FIXT.1.1|9=55|35=0|34=294|49=PUBQA3|52=20180206-12:44:09.334|56=TRAX|10=126|8=FIXT.1.1|9=55|35=0|34=295|49=PUBQA3|52=20180206-12:44:40.309|56=TRAX|10=124|8=FIXT.1.1|9=55|35=0|34=296|49=PUBQA3|52=20180206-12:45:10.333|56=TRAX|10=120|8=FIXT.1.1|9=55|35=0|34=297|49=PUBQA3|52=20180206-12:45:40.334|56=TRAX|10=125|8=FIXT.1.1|9=55|35=0|34=298|49=PUBQA3|52=20180206-12:46:11.310|56=TRAX|10=119|8=FIXT.1.1|9=55|35=0|34=299|49=PUBQA3|52=20180206-12:46:41.329|56=TRAX|10=133|8=FIXT.1.1|9=55|35=0|34=300|49=PUBQA3|52=20180206-12:47:11.332|56=TRAX|10=108|8=FIXT.1.1|9=55|35=0|34=301|49=PUBQA3|52=20180206-12:47:42.333|56=TRAX|10=114|8=FIXT.1.1|9=55|35=0|34=302|49=PUBQA3|52=20180206-12:48:12.333|56=TRAX|10=113|8=FIXT.1.1|9=55|35=0|34=303|49=PUBQA3|52=20180206-12:48:42.337|56=TRAX|10=121|8=FIXT.1.1|9=55|35=0|34=304|49=PUBQA3|52=20180206-12:49:13.337|56=TRAX|10=121|8=FIXT.1.1|9=55|35=0|34=305|49=PUBQA3|52=20180206-12:49:44.329|56=TRAX|10=127|8=FIXT.1.1|9=55|35=0|34=306|49=PUBQA3|52=20180206-12:50:14.330|56=TRAX|10=109|8=FIXT.1.1|9=55|35=0|34=307|49=PUBQA3|52=20180206-12:50:44.333|56=TRAX|10=116|8=FIXT.1.1|9=55|35=0|34=308|49=PUBQA3|52=20180206-12:51:14.337|56=TRAX|10=119|8=FIXT.1.1|9=55|35=0|34=309|49=PUBQA3|52=20180206-12:51:45.332|56=TRAX|10=119|8=FIXT.1.1|9=55|35=0|34=310|49=PUBQA3|52=20180206-12:52:15.334|56=TRAX|10=111|8=FIXT.1.1|9=55|35=0|34=311|49=PUBQA3|52=20180206-12:52:45.336|56=TRAX|10=117|8=FIXT.1.1|9=55|35=0|34=312|49=PUBQA3|52=20180206-12:53:15.341|56=TRAX|10=112|8=FIXT.1.1|9=55|35=0|34=313|49=PUBQA3|52=20180206-12:53:45.341|56=TRAX|10=116|8=FIXT.1.1|9=55|35=0|34=314|49=PUBQA3|52=20180206-12:54:16.335|56=TRAX|10=119|8=FIXT.1.1|9=55|35=0|34=315|49=PUBQA3|52=20180206-12:54:46.340|56=TRAX|10=119|8=FIXT.1.1|9=55|35=0|34=316|49=PUBQA3|52=20180206-12:55:16.343|56=TRAX|10=121|8=FIXT.1.1|9=55|35=0|34=317|49=PUBQA3|52=20180206-12:55:47.340|56=TRAX|10=123|8=FIXT.1.1|9=55|35=0|34=318|49=PUBQA3|52=20180206-12:56:18.338|56=TRAX|10=130|8=FIXT.1.1|9=55|35=0|34=319|49=PUBQA3|52=20180206-12:56:48.345|56=TRAX|10=132|8=FIXT.1.1|9=55|35=0|34=320|49=PUBQA3|52=20180206-12:57:18.345|56=TRAX|10=122|8=FIXT.1.1|9=55|35=0|34=321|49=PUBQA3|52=20180206-12:57:49.344|56=TRAX|10=126|8=FIXT.1.1|9=55|35=0|34=322|49=PUBQA3|52=20180206-12:58:20.346|56=TRAX|10=119|8=FIXT.1.1|9=55|35=0|34=323|49=PUBQA3|52=20180206-12:58:51.339|56=TRAX|10=126|8=FIXT.1.1|9=55|35=0|34=324|49=PUBQA3|52=20180206-12:59:21.341|56=TRAX|10=118|8=FIXT.1.1|9=55|35=0|34=325|49=PUBQA3|52=20180206-12:59:51.348|56=TRAX|10=129|8=FIXT.1.1|9=55|35=0|34=326|49=PUBQA3|52=20180206-13:00:21.348|56=TRAX|10=114|8=FIXT.1.1|9=55|35=0|34=327|49=PUBQA3|52=20180206-13:00:52.346|56=TRAX|10=117|8=FIXT.1.1|9=55|35=0|34=328|49=PUBQA3|52=20180206-13:01:23.345|56=TRAX|10=116|8=FIXT.1.1|9=55|35=0|34=329|49=PUBQA3|52=20180206-13:01:53.346|56=TRAX|10=121|8=FIXT.1.1|9=55|35=0|34=330|49=PUBQA3|52=20180206-13:02:23.348|56=TRAX|10=113|8=FIXT.1.1|9=55|35=0|34=331|49=PUBQA3|52=20180206-13:02:54.346|56=TRAX|10=116|8=FIXT.1.1|9=55|35=0|34=332|49=PUBQA3|52=20180206-13:03:25.347|56=TRAX|10=117|8=FIXT.1.1|9=55|35=0|34=333|49=PUBQA3|52=20180206-13:03:55.349|56=TRAX|10=123|8=FIXT.1.1|9=55|35=0|34=334|49=PUBQA3|52=20180206-13:04:26.349|56=TRAX|10=123|8=FIXT.1.1|9=55|35=0|34=335|49=PUBQA3|52=20180206-13:04:57.346|56=TRAX|10=125|8=FIXT.1.1|9=55|35=0|34=336|49=PUBQA3|52=20180206-13:05:27.353|56=TRAX|10=122|8=FIXT.1.1|9=55|35=0|34=337|49=PUBQA3|52=20180206-13:05:58.345|56=TRAX|10=128|8=FIXT.1.1|9=55|35=0|34=338|49=PUBQA3|52=20180206-13:06:28.348|56=TRAX|10=130|8=FIXT.1.1|9=55|35=0|34=339|49=PUBQA3|52=20180206-13:06:59.327|56=TRAX|10=132|8=FIXT.1.1|9=55|35=0|34=340|49=PUBQA3|52=20180206-13:07:29.352|56=TRAX|10=120|8=FIXT.1.1|9=55|35=0|34=341|49=PUBQA3|52=20180206-13:08:00.351|56=TRAX|10=110|8=FIXT.1.1|9=55|35=0|34=342|49=PUBQA3|52=20180206-13:08:30.353|56=TRAX|10=116|8=FIXT.1.1|9=55|35=0|34=343|49=PUBQA3|52=20180206-13:09:01.347|56=TRAX|10=119|8=FIXT.1.1|9=55|35=0|34=344|49=PUBQA3|52=20180206-13:09:31.350|56=TRAX|10=117|8=FIXT.1.1|9=55|35=0|34=345|49=PUBQA3|52=20180206-13:10:01.354|56=TRAX|10=111|8=FIXT.1.1|9=55|35=0|34=346|49=PUBQA3|52=20180206-13:10:31.577|56=TRAX|10=122|8=FIXT.1.1|9=55|35=0|34=347|49=PUBQA3|52=20180206-13:11:01.595|56=TRAX|10=121|8=FIXT.1.1|9=55|35=0|34=348|49=PUBQA3|52=20180206-13:11:32.348|56=TRAX|10=122|8=FIXT.1.1|9=55|35=0|34=349|49=PUBQA3|52=20180206-13:12:02.349|56=TRAX|10=122|8=FIXT.1.1|9=55|35=0|34=350|49=PUBQA3|52=20180206-13:12:32.351|56=TRAX|10=110|8=FIXT.1.1|9=55|35=0|34=351|49=PUBQA3|52=20180206-13:13:02.355|56=TRAX|10=113|8=FIXT.1.1|9=55|35=0|34=352|49=PUBQA3|52=20180206-13:13:33.351|56=TRAX|10=114|8=FIXT.1.1|9=55|35=0|34=353|49=PUBQA3|52=20180206-13:14:03.352|56=TRAX|10=114|8=FIXT.1.1|9=55|35=0|34=354|49=PUBQA3|52=20180206-13:14:33.357|56=TRAX|10=123|8=FIXT.1.1|9=55|35=0|34=355|49=PUBQA3|52=20180206-13:15:04.355|56=TRAX|10=121|8=FIXT.1.1|9=55|35=0|34=356|49=PUBQA3|52=20180206-13:15:34.359|56=TRAX|10=129|8=FIXT.1.1|9=55|35=0|34=357|49=PUBQA3|52=20180206-13:16:05.357|56=TRAX|10=127|8=FIXT.1.1|9=55|35=0|34=358|49=PUBQA3|52=20180206-13:16:36.355|56=TRAX|10=130|8=FIXT.1.1|9=55|35=0|34=359|49=PUBQA3|52=20180206-13:17:07.357|56=TRAX|10=132|8=FIXT.1.1|9=55|35=0|34=360|49=PUBQA3|52=20180206-13:17:38.350|56=TRAX|10=121|8=FIXT.1.1|9=55|35=0|34=361|49=PUBQA3|52=20180206-13:18:08.350|56=TRAX|10=120|8=FIXT.1.1|9=55|35=0|34=362|49=PUBQA3|52=20180206-13:18:39.351|56=TRAX|10=126|8=FIXT.1.1|9=55|35=0|34=363|49=PUBQA3|52=20180206-13:19:09.357|56=TRAX|10=131|8=FIXT.1.1|9=55|35=0|34=364|49=PUBQA3|52=20180206-13:19:39.357|56=TRAX|10=135|8=FIXT.1.1|9=55|35=0|34=365|49=PUBQA3|52=20180206-13:20:09.360|56=TRAX|10=119|8=FIXT.1.1|9=55|35=0|34=366|49=PUBQA3|52=20180206-13:20:39.361|56=TRAX|10=124|8=FIXT.1.1|9=55|35=0|34=367|49=PUBQA3|52=20180206-13:21:10.352|56=TRAX|10=115|8=FIXT.1.1|9=55|35=0|34=368|49=PUBQA3|52=20180206-13:21:41.333|56=TRAX|10=119|8=FIXT.1.1|9=55|35=0|34=369|49=PUBQA3|52=20180206-13:22:11.355|56=TRAX|10=122|8=FIXT.1.1|9=55|35=0|34=370|49=PUBQA3|52=20180206-13:22:42.360|56=TRAX|10=114|8=FIXT.1.1|9=55|35=0|34=371|49=PUBQA3|52=20180206-13:23:13.359|56=TRAX|10=122|8=FIXT.1.1|9=55|35=0|34=372|49=PUBQA3|52=20180206-13:23:44.356|56=TRAX|10=124|8=FIXT.1.1|9=55|35=0|34=373|49=PUBQA3|52=20180206-13:24:14.359|56=TRAX|10=126|8=FIXT.1.1|9=55|35=0|34=374|49=PUBQA3|52=20180206-13:24:44.360|56=TRAX|10=122|8=FIXT.1.1|9=55|35=0|34=375|49=PUBQA3|52=20180206-13:25:15.359|56=TRAX|10=130|8=FIXT.1.1|9=55|35=0|34=376|49=PUBQA3|52=20180206-13:25:45.361|56=TRAX|10=127|8=FIXT.1.1|9=55|35=0|34=377|49=PUBQA3|52=20180206-13:26:16.355|56=TRAX|10=130|8=FIXT.1.1|9=55|35=0|34=378|49=PUBQA3|52=20180206-13:26:46.355|56=TRAX|10=134|8=FIXT.1.1|9=55|35=0|34=379|49=PUBQA3|52=20180206-13:27:16.355|56=TRAX|10=133|8=FIXT.1.1|9=55|35=0|34=380|49=PUBQA3|52=20180206-13:27:46.355|56=TRAX|10=128|8=FIXT.1.1|9=55|35=0|34=381|49=PUBQA3|52=20180206-13:28:16.363|56=TRAX|10=126|8=FIXT.1.1|9=55|35=0|34=382|49=PUBQA3|52=20180206-13:28:47.364|56=TRAX|10=132|8=FIXT.1.1|9=55|35=0|34=383|49=PUBQA3|52=20180206-13:29:17.366|56=TRAX|10=133|8=FIXT.1.1|9=55|35=0|34=384|49=PUBQA3|52=20180206-13:29:48.357|56=TRAX|10=138|8=FIXT.1.1|9=55|35=0|34=385|49=PUBQA3|52=20180206-13:30:18.365|56=TRAX|10=127|8=FIXT.1.1|9=55|35=0|34=386|49=PUBQA3|52=20180206-13:30:48.367|56=TRAX|10=133|8=FIXT.1.1|9=55|35=0|34=387|49=PUBQA3|52=20180206-13:31:19.359|56=TRAX|10=134|8=FIXT.1.1|9=55|35=0|34=388|49=PUBQA3|52=20180206-13:31:49.361|56=TRAX|10=131|8=FIXT.1.1|9=55|35=0|34=389|49=PUBQA3|52=20180206-13:32:19.367|56=TRAX|10=136|8=FIXT.1.1|9=55|35=0|34=390|49=PUBQA3|52=20180206-13:32:49.368|56=TRAX|10=132|8=FIXT.1.1|9=55|35=0|34=391|49=PUBQA3|52=20180206-13:33:20.368|56=TRAX|10=123|8=FIXT.1.1|9=55|35=0|34=392|49=PUBQA3|52=20180206-13:33:50.370|56=TRAX|10=120|8=FIXT.1.1|9=55|35=0|34=393|49=PUBQA3|52=20180206-13:34:21.366|56=TRAX|10=125|8=FIXT.1.1|9=55|35=0|34=394|49=PUBQA3|52=20180206-13:34:51.369|56=TRAX|10=132|8=FIXT.1.1|9=55|35=0|34=395|49=PUBQA3|52=20180206-13:35:21.369|56=TRAX|10=131|8=FIXT.1.1|9=55|35=0|34=396|49=PUBQA3|52=20180206-13:35:52.371|56=TRAX|10=129|8=FIXT.1.1|9=55|35=0|34=397|49=PUBQA3|52=20180206-13:36:23.369|56=TRAX|10=136|8=FIXT.1.1|9=55|35=0|34=398|49=PUBQA3|52=20180206-13:36:53.380|56=TRAX|10=133|8=FIXT.1.1|9=55|35=0|34=399|49=PUBQA3|52=20180206-13:37:24.378|56=TRAX|10=140|8=FIXT.1.1|9=55|35=0|34=400|49=PUBQA3|52=20180206-13:37:54.384|56=TRAX|10=123|8=FIXT.1.1|9=55|35=0|34=401|49=PUBQA3|52=20180206-13:38:24.386|56=TRAX|10=124|8=FIXT.1.1|9=55|35=0|34=402|49=PUBQA3|52=20180206-13:38:54.397|56=TRAX|10=130|8=FIXT.1.1|9=55|35=0|34=403|49=PUBQA3|52=20180206-13:39:25.396|56=TRAX|10=129|8=FIXT.1.1|9=55|35=0|34=404|49=PUBQA3|52=20180206-13:39:55.403|56=TRAX|10=122|8=FIXT.1.1|9=55|35=0|34=405|49=PUBQA3|52=20180206-13:40:26.409|56=TRAX|10=119|8=FIXT.1.1|9=55|35=0|34=406|49=PUBQA3|52=20180206-13:40:56.414|56=TRAX|10=119|8=FIXT.1.1|9=55|35=0|34=407|49=PUBQA3|52=20180206-13:41:27.419|56=TRAX|10=124|8=FIXT.1.1|9=55|35=0|34=408|49=PUBQA3|52=20180206-13:41:58.421|56=TRAX|10=122|8=FIXT.1.1|9=55|35=0|34=409|49=PUBQA3|52=20180206-13:42:28.423|56=TRAX|10=123|8=FIXT.1.1|9=55|35=0|34=410|49=PUBQA3|52=20180206-13:42:59.422|56=TRAX|10=118|8=FIXT.1.1|9=55|35=0|34=411|49=PUBQA3|52=20180206-13:43:29.426|56=TRAX|10=121|8=FIXT.1.1|9=55|35=0|34=412|49=PUBQA3|52=20180206-13:44:00.426|56=TRAX|10=112|8=FIXT.1.1|9=55|35=0|34=413|49=PUBQA3|52=20180206-13:44:30.430|56=TRAX|10=111|8=FIXT.1.1|9=55|35=0|34=414|49=PUBQA3|52=20180206-13:45:01.434|56=TRAX|10=115|8=FIXT.1.1|9=55|35=0|34=415|49=PUBQA3|52=20180206-13:45:31.640|56=TRAX|10=118|8=FIXT.1.1|9=55|35=0|34=416|49=PUBQA3|52=20180206-13:46:01.640|56=TRAX|10=117|8=FIXT.1.1|9=55|35=0|34=417|49=PUBQA3|52=20180206-13:46:31.675|56=TRAX|10=129|8=FIXT.1.1|9=55|35=0|34=418|49=PUBQA3|52=20180206-13:47:02.433|56=TRAX|10=121|8=FIXT.1.1|9=55|35=0|34=419|49=PUBQA3|52=20180206-13:47:32.440|56=TRAX|10=123|8=FIXT.1.1|9=55|35=0|34=420|49=PUBQA3|52=20180206-13:48:03.435|56=TRAX|10=118|8=FIXT.1.1|9=55|35=0|34=421|49=PUBQA3|52=20180206-13:48:33.443|56=TRAX|10=121|8=FIXT.1.1|9=55|35=0|34=422|49=PUBQA3|52=20180206-13:49:04.439|56=TRAX|10=126|8=FIXT.1.1|9=55|35=0|34=423|49=PUBQA3|52=20180206-13:49:34.442|56=TRAX|10=124|8=FIXT.1.1|9=55|35=0|34=424|49=PUBQA3|52=20180206-13:50:05.441|56=TRAX|10=114|8=FIXT.1.1|9=55|35=0|34=425|49=PUBQA3|52=20180206-13:50:35.448|56=TRAX|10=125|8=FIXT.1.1|9=55|35=0|34=426|49=PUBQA3|52=20180206-13:51:05.448|56=TRAX|10=124|8=FIXT.1.1|9=55|35=0|34=427|49=PUBQA3|52=20180206-13:51:35.452|56=TRAX|10=123|8=FIXT.1.1|9=55|35=0|34=428|49=PUBQA3|52=20180206-13:52:05.453|56=TRAX|10=123|8=FIXT.1.1|9=55|35=0|34=429|49=PUBQA3|52=20180206-13:52:36.451|56=TRAX|10=126|8=FIXT.1.1|9=55|35=0|34=430|49=PUBQA3|52=20180206-13:53:07.451|56=TRAX|10=117|8=FIXT.1.1|9=55|35=0|34=431|49=PUBQA3|52=20180206-13:53:38.449|56=TRAX|10=129|8=FIXT.1.1|9=55|35=0|34=432|49=PUBQA3|52=20180206-13:54:08.454|56=TRAX|10=124|8=FIXT.1.1|9=55|35=0|34=433|49=PUBQA3|52=20180206-13:54:39.431|56=TRAX|10=124|8=FIXT.1.1|9=55|35=0|34=434|49=PUBQA3|52=20180206-13:55:09.432|56=TRAX|10=124|8=FIXT.1.1|9=55|35=0|34=435|49=PUBQA3|52=20180206-13:55:39.432|56=TRAX|10=128|8=FIXT.1.1|9=55|35=0|34=436|49=PUBQA3|52=20180206-13:56:09.435|56=TRAX|10=130|8=FIXT.1.1|9=55|35=0|34=437|49=PUBQA3|52=20180206-13:56:40.434|56=TRAX|10=125|8=FIXT.1.1|9=55|35=0|34=438|49=PUBQA3|52=20180206-13:57:11.433|56=TRAX|10=124|8=FIXT.1.1|9=55|35=0|34=439|49=PUBQA3|52=20180206-13:57:42.432|56=TRAX|10=128|8=FIXT.1.1|9=55|35=0|34=440|49=PUBQA3|52=20180206-13:58:13.430|56=TRAX|10=117|8=FIXT.1.1|9=55|35=0|34=441|49=PUBQA3|52=20180206-13:58:44.429|56=TRAX|10=130|8=FIXT.1.1|9=55|35=0|34=442|49=PUBQA3|52=20180206-13:59:15.428|56=TRAX|10=129|8=FIXT.1.1|9=55|35=0|34=443|49=PUBQA3|52=20180206-13:59:46.427|56=TRAX|10=133|8=FIXT.1.1|9=55|35=0|34=444|49=PUBQA3|52=20180206-14:00:17.426|56=TRAX|10=118|8=FIXT.1.1|9=55|35=0|34=445|49=PUBQA3|52=20180206-14:00:48.424|56=TRAX|10=121|8=FIXT.1.1|9=55|35=0|34=446|49=PUBQA3|52=20180206-14:01:19.423|56=TRAX|10=120|8=FIXT.1.1|9=55|35=0|34=447|49=PUBQA3|52=20180206-14:01:50.422|56=TRAX|10=115|8=FIXT.1.1|9=55|35=0|34=448|49=PUBQA3|52=20180206-14:02:21.421|56=TRAX|10=114|8=FIXT.1.1|9=55|35=0|34=449|49=PUBQA3|52=20180206-14:02:52.420|56=TRAX|10=118|8=FIXT.1.1|9=55|35=0|34=450|49=PUBQA3|52=20180206-14:03:23.417|56=TRAX|10=115|8=FIXT.1.1|9=55|35=0|34=451|49=PUBQA3|52=20180206-14:03:54.417|56=TRAX|10=120|8=FIXT.1.1|9=55|35=0|34=452|49=PUBQA3|52=20180206-14:04:25.415|56=TRAX|10=118|8=FIXT.1.1|9=55|35=0|34=453|49=PUBQA3|52=20180206-14:04:56.414|56=TRAX|10=122|8=FIXT.1.1|9=55|35=0|34=454|49=PUBQA3|52=20180206-14:05:27.413|56=TRAX|10=121|8=FIXT.1.1|9=55|35=0|34=455|49=PUBQA3|52=20180206-14:05:58.411|56=TRAX|10=124|8=FIXT.1.1|9=55|35=0|34=456|49=PUBQA3|52=20180206-14:06:29.410|56=TRAX|10=123|8=FIXT.1.1|9=55|35=0|34=457|49=PUBQA3|52=20180206-14:07:00.409|56=TRAX|10=122|8=FIXT.1.1|9=55|35=0|34=458|49=PUBQA3|52=20180206-14:07:31.408|56=TRAX|10=126|8=FIXT.1.1|9=55|35=0|34=459|49=PUBQA3|52=20180206-14:08:01.618|56=TRAX|10=128|8=FIXT.1.1|9=55|35=0|34=460|49=PUBQA3|52=20180206-14:08:31.626|56=TRAX|10=122|8=FIXT.1.1|9=55|35=0|34=461|49=PUBQA3|52=20180206-14:09:02.405|56=TRAX|10=117|8=FIXT.1.1|9=55|35=0|34=462|49=PUBQA3|52=20180206-14:09:33.404|56=TRAX|10=121|8=FIXT.1.1|9=55|35=0|34=463|49=PUBQA3|52=20180206-14:10:04.402|56=TRAX|10=110|8=FIXT.1.1|9=55|35=0|34=464|49=PUBQA3|52=20180206-14:10:35.402|56=TRAX|10=115|8=FIXT.1.1|9=55|35=0|34=465|49=PUBQA3|52=20180206-14:11:05.403|56=TRAX|10=115|8=FIXT.1.1|9=55|35=0|34=466|49=PUBQA3|52=20180206-14:11:36.399|56=TRAX|10=134|8=FIXT.1.1|9=55|35=0|34=467|49=PUBQA3|52=20180206-14:12:07.398|56=TRAX|10=133|8=FIXT.1.1|9=55|35=0|34=468|49=PUBQA3|52=20180206-14:12:38.396|56=TRAX|10=136|8=FIXT.1.1|9=55|35=0|34=469|49=PUBQA3|52=20180206-14:13:09.396|56=TRAX|10=136|8=FIXT.1.1|9=55|35=0|34=470|49=PUBQA3|52=20180206-14:13:40.394|56=TRAX|10=121|8=FIXT.1.1|9=55|35=0|34=471|49=PUBQA3|52=20180206-14:14:11.393|56=TRAX|10=120|8=FIXT.1.1|9=55|35=0|34=472|49=PUBQA3|52=20180206-14:14:42.392|56=TRAX|10=124|8=FIXT.1.1|9=55|35=0|34=473|49=PUBQA3|52=20180206-14:15:13.391|56=TRAX|10=123|8=FIXT.1.1|9=55|35=0|34=474|49=PUBQA3|52=20180206-14:15:44.390|56=TRAX|10=127|8=FIXT.1.1|9=55|35=0|34=475|49=PUBQA3|52=20180206-14:16:15.389|56=TRAX|10=135|8=FIXT.1.1|9=55|35=0|34=476|49=PUBQA3|52=20180206-14:16:46.387|56=TRAX|10=138|8=FIXT.1.1|9=55|35=0|34=477|49=PUBQA3|52=20180206-14:17:17.386|56=TRAX|10=137|8=FIXT.1.1|9=55|35=0|34=478|49=PUBQA3|52=20180206-14:17:48.385|56=TRAX|10=141|8=FIXT.1.1|9=55|35=0|34=479|49=PUBQA3|52=20180206-14:18:19.384|56=TRAX|10=140|8=FIXT.1.1|9=55|35=0|34=480|49=PUBQA3|52=20180206-14:18:50.382|56=TRAX|10=125|8=FIXT.1.1|9=55|35=0|34=481|49=PUBQA3|52=20180206-14:19:21.381|56=TRAX|10=124|8=FIXT.1.1|9=55|35=0|34=482|49=PUBQA3|52=20180206-14:19:52.380|56=TRAX|10=128|8=FIXT.1.1|9=55|35=0|34=483|49=PUBQA3|52=20180206-14:20:23.379|56=TRAX|10=127|8=FIXT.1.1|9=55|35=0|34=484|49=PUBQA3|52=20180206-14:20:54.378|56=TRAX|10=131|8=FIXT.1.1|9=55|35=0|34=485|49=PUBQA3|52=20180206-14:21:25.376|56=TRAX|10=129|8=FIXT.1.1|9=55|35=0|34=486|49=PUBQA3|52=20180206-14:21:56.374|56=TRAX|10=132|8=FIXT.1.1|9=55|35=0|34=487|49=PUBQA3|52=20180206-14:22:26.374|56=TRAX|10=131|8=FIXT.1.1|9=55|35=0|34=488|49=PUBQA3|52=20180206-14:22:57.373|56=TRAX|10=135|8=FIXT.1.1|9=55|35=0|34=489|49=PUBQA3|52=20180206-14:23:28.372|56=TRAX|10=134|8=FIXT.1.1|9=55|35=0|34=490|49=PUBQA3|52=20180206-14:23:59.371|56=TRAX|10=129|8=FIXT.1.1|9=55|35=0|34=491|49=PUBQA3|52=20180206-14:24:30.369|56=TRAX|10=127|8=FIXT.1.1|9=55|35=0|34=492|49=PUBQA3|52=20180206-14:25:01.368|56=TRAX|10=126|8=FIXT.1.1|9=55|35=0|34=493|49=PUBQA3|52=20180206-14:25:31.593|56=TRAX|10=130|8=FIXT.1.1|9=55|35=0|34=494|49=PUBQA3|52=20180206-14:26:02.365|56=TRAX|10=127|8=FIXT.1.1|9=55|35=0|34=495|49=PUBQA3|52=20180206-14:26:33.364|56=TRAX|10=131|8=FIXT.1.1|9=55|35=0|34=496|49=PUBQA3|52=20180206-14:27:04.362|56=TRAX|10=129|8=FIXT.1.1|9=55|35=0|34=497|49=PUBQA3|52=20180206-14:27:35.361|56=TRAX|10=133|8=FIXT.1.1|9=55|35=0|34=498|49=PUBQA3|52=20180206-14:28:06.360|56=TRAX|10=132|8=FIXT.1.1|9=55|35=0|34=499|49=PUBQA3|52=20180206-14:28:37.359|56=TRAX|10=145|8=FIXT.1.1|9=55|35=0|34=500|49=PUBQA3|52=20180206-14:29:08.358|56=TRAX|10=126|8=FIXT.1.1|9=55|35=0|34=501|49=PUBQA3|52=20180206-14:29:39.356|56=TRAX|10=129|8=FIXT.1.1|9=55|35=0|34=502|49=PUBQA3|52=20180206-14:30:10.355|56=TRAX|10=110|8=FIXT.1.1|9=55|35=0|34=503|49=PUBQA3|52=20180206-14:30:41.354|56=TRAX|10=114|8=FIXT.1.1|9=55|35=0|34=504|49=PUBQA3|52=20180206-14:31:12.353|56=TRAX|10=113|8=FIXT.1.1|9=55|35=0|34=505|49=PUBQA3|52=20180206-14:31:43.352|56=TRAX|10=117|8=FIXT.1.1|9=55|35=0|34=506|49=PUBQA3|52=20180206-14:32:14.351|56=TRAX|10=116|8=FIXT.1.1|9=55|35=0|34=507|49=PUBQA3|52=20180206-14:32:45.349|56=TRAX|10=128|8=FIXT.1.1|9=55|35=0|34=508|49=PUBQA3|52=20180206-14:33:16.348|56=TRAX|10=127|8=FIXT.1.1|9=55|35=0|34=509|49=PUBQA3|52=20180206-14:33:47.347|56=TRAX|10=131|8=FIXT.1.1|9=55|35=0|34=510|49=PUBQA3|52=20180206-14:34:18.346|56=TRAX|10=121|8=FIXT.1.1|9=55|35=0|34=511|49=PUBQA3|52=20180206-14:34:49.344|56=TRAX|10=124|8=FIXT.1.1|9=55|35=0|34=512|49=PUBQA3|52=20180206-14:35:20.343|56=TRAX|10=114|8=FIXT.1.1|9=55|35=0|34=513|49=PUBQA3|52=20180206-14:35:51.342|56=TRAX|10=118|8=FIXT.1.1|9=55|35=0|34=514|49=PUBQA3|52=20180206-14:36:22.341|56=TRAX|10=117|8=FIXT.1.1|9=55|35=0|34=515|49=PUBQA3|52=20180206-14:36:53.340|56=TRAX|10=121|8=FIXT.1.1|9=55|35=0|34=516|49=PUBQA3|52=20180206-14:37:24.338|56=TRAX|10=128|8=FIXT.1.1|9=55|35=0|34=517|49=PUBQA3|52=20180206-14:37:55.338|56=TRAX|10=133|8=FIXT.1.1|9=55|35=0|34=518|49=PUBQA3|52=20180206-14:38:26.337|56=TRAX|10=132|8=FIXT.1.1|9=55|35=0|34=519|49=PUBQA3|52=20180206-14:38:57.336|56=TRAX|10=136|8=FIXT.1.1|9=55|35=0|34=520|49=PUBQA3|52=20180206-14:39:28.335|56=TRAX|10=126|8=FIXT.1.1|9=55|35=0|34=521|49=PUBQA3|52=20180206-14:39:59.333|56=TRAX|10=129|8=FIXT.1.1|9=55|35=0|34=522|49=PUBQA3|52=20180206-14:40:30.332|56=TRAX|10=110|8=FIXT.1.1|9=55|35=0|34=523|49=PUBQA3|52=20180206-14:41:01.331|56=TRAX|10=109|8=FIXT.1.1|9=55|35=0|34=524|49=PUBQA3|52=20180206-14:41:31.510|56=TRAX|10=112|8=FIXT.1.1|9=55|35=0|34=525|49=PUBQA3|52=20180206-14:42:01.529|56=TRAX|10=121|8=FIXT.1.1|9=55|35=0|34=526|49=PUBQA3|52=20180206-14:42:32.327|56=TRAX|10=122|8=FIXT.1.1|9=55|35=0|34=527|49=PUBQA3|52=20180206-14:43:03.325|56=TRAX|10=120|8=FIXT.1.1|9=55|35=0|34=528|49=PUBQA3|52=20180206-14:43:34.324|56=TRAX|10=124|8=FIXT.1.1|9=55|35=0|34=529|49=PUBQA3|52=20180206-14:44:05.323|56=TRAX|10=123|8=FIXT.1.1|9=55|35=0|34=530|49=PUBQA3|52=20180206-14:44:36.322|56=TRAX|10=118|8=FIXT.1.1|9=55|35=0|34=531|49=PUBQA3|52=20180206-14:45:07.321|56=TRAX|10=117|8=FIXT.1.1|9=55|35=0|34=532|49=PUBQA3|52=20180206-14:45:38.319|56=TRAX|10=129|8=FIXT.1.1|9=55|35=0|34=533|49=PUBQA3|52=20180206-14:46:09.318|56=TRAX|10=128|8=FIXT.1.1|9=55|35=0|34=534|49=PUBQA3|52=20180206-14:46:40.317|56=TRAX|10=123|8=FIXT.1.1|9=55|35=0|34=535|49=PUBQA3|52=20180206-14:47:11.316|56=TRAX|10=122|8=FIXT.1.1|9=55|35=0|34=536|49=PUBQA3|52=20180206-14:47:42.315|56=TRAX|10=126|8=FIXT.1.1|9=55|35=0|34=537|49=PUBQA3|52=20180206-14:48:13.313|56=TRAX|10=124|8=FIXT.1.1|9=55|35=0|34=538|49=PUBQA3|52=20180206-14:48:44.312|56=TRAX|10=128|8=FIXT.1.1|9=55|35=0|34=539|49=PUBQA3|52=20180206-14:49:15.311|56=TRAX|10=127|8=FIXT.1.1|9=55|35=0|34=540|49=PUBQA3|52=20180206-14:49:46.310|56=TRAX|10=122|8=FIXT.1.1|9=55|35=0|34=541|49=PUBQA3|52=20180206-14:50:17.308|56=TRAX|10=120|8=FIXT.1.1|9=55|35=0|34=542|49=PUBQA3|52=20180206-14:50:47.334|56=TRAX|10=123|8=FIXT.1.1|9=55|35=0|34=543|49=PUBQA3|52=20180206-14:51:18.336|56=TRAX|10=125|8=FIXT.1.1|9=55|35=0|34=544|49=PUBQA3|52=20180206-14:51:49.330|56=TRAX|10=124|8=FIXT.1.1|9=55|35=0|34=545|49=PUBQA3|52=20180206-14:52:20.329|56=TRAX|10=123|8=FIXT.1.1|9=55|35=0|34=546|49=PUBQA3|52=20180206-14:52:50.332|56=TRAX|10=121|8=FIXT.1.1|9=55|35=0|34=547|49=PUBQA3|52=20180206-14:53:20.334|56=TRAX|10=122|8=FIXT.1.1|9=55|35=0|34=548|49=PUBQA3|52=20180206-14:53:51.336|56=TRAX|10=129|8=FIXT.1.1|9=55|35=0|34=549|49=PUBQA3|52=20180206-14:54:22.338|56=TRAX|10=131|8=FIXT.1.1|9=55|35=0|34=550|49=PUBQA3|52=20180206-14:54:53.338|56=TRAX|10=127|8=FIXT.1.1|9=55|35=0|34=551|49=PUBQA3|52=20180206-14:55:24.335|56=TRAX|10=124|8=FIXT.1.1|9=55|35=0|34=552|49=PUBQA3|52=20180206-14:55:54.336|56=TRAX|10=129|8=FIXT.1.1|9=55|35=0|34=553|49=PUBQA3|52=20180206-14:56:24.339|56=TRAX|10=131|8=FIXT.1.1|9=55|35=0|34=554|49=PUBQA3|52=20180206-14:56:54.339|56=TRAX|10=135|8=FIXT.1.1|9=55|35=0|34=555|49=PUBQA3|52=20180206-14:57:25.337|56=TRAX|10=133|8=FIXT.1.1|9=55|35=0|34=556|49=PUBQA3|52=20180206-14:57:56.333|56=TRAX|10=134|8=FIXT.1.1|9=55|35=0|34=557|49=PUBQA3|52=20180206-14:58:26.339|56=TRAX|10=139|8=FIXT.1.1|9=55|35=0|34=558|49=PUBQA3|52=20180206-14:58:56.343|56=TRAX|10=138|8=FIXT.1.1|9=55|35=0|34=559|49=PUBQA3|52=20180206-14:59:27.318|56=TRAX|10=140|8=FIXT.1.1|9=55|35=0|34=560|49=PUBQA3|52=20180206-14:59:57.343|56=TRAX|10=133|8=FIXT.1.1|9=55|35=0|34=561|49=PUBQA3|52=20180206-15:00:28.345|56=TRAX|10=121|8=FIXT.1.1|9=55|35=0|34=562|49=PUBQA3|52=20180206-15:00:59.341|56=TRAX|10=122|8=FIXT.1.1|9=55|35=0|34=563|49=PUBQA3|52=20180206-15:01:30.346|56=TRAX|10=118|8=FIXT.1.1|9=55|35=0|34=564|49=PUBQA3|52=20180206-15:02:01.338|56=TRAX|10=119|8=FIXT.1.1|9=55|35=0|34=565|49=PUBQA3|52=20180206-15:02:31.344|56=TRAX|10=120|8=FIXT.1.1|9=55|35=0|34=566|49=PUBQA3|52=20180206-15:03:01.512|56=TRAX|10=116|8=FIXT.1.1|9=55|35=0|34=567|49=PUBQA3|52=20180206-15:03:31.541|56=TRAX|10=122|8=FIXT.1.1|9=55|35=0|34=568|49=PUBQA3|52=20180206-15:04:02.348|56=TRAX|10=127|8=FIXT.1.1|9=55|35=0|34=569|49=PUBQA3|52=20180206-15:04:33.347|56=TRAX|10=131|8=FIXT.1.1|9=55|35=0|34=570|49=PUBQA3|52=20180206-15:05:03.348|56=TRAX|10=122|8=FIXT.1.1|9=55|35=0|34=571|49=PUBQA3|52=20180206-15:05:34.345|56=TRAX|10=124|8=FIXT.1.1|9=55|35=0|34=572|49=PUBQA3|52=20180206-15:06:04.349|56=TRAX|10=127|8=FIXT.1.1|9=55|35=0|34=573|49=PUBQA3|52=20180206-15:06:35.342|56=TRAX|10=125|8=FIXT.1.1|9=55|35=0|34=574|49=PUBQA3|52=20180206-15:07:05.345|56=TRAX|10=127|8=FIXT.1.1|9=55|35=0|34=575|49=PUBQA3|52=20180206-15:07:35.348|56=TRAX|10=134|8=FIXT.1.1|9=55|35=0|34=576|49=PUBQA3|52=20180206-15:08:05.349|56=TRAX|10=134|8=FIXT.1.1|9=55|35=0|34=577|49=PUBQA3|52=20180206-15:08:36.351|56=TRAX|10=132|8=FIXT.1.1|9=55|35=0|34=578|49=PUBQA3|52=20180206-15:09:06.351|56=TRAX|10=131|8=FIXT.1.1|9=55|35=0|34=579|49=PUBQA3|52=20180206-15:09:37.350|56=TRAX|10=135|8=FIXT.1.1|9=55|35=0|34=580|49=PUBQA3|52=20180206-15:10:08.346|56=TRAX|10=122|8=FIXT.1.1|9=55|35=0|34=581|49=PUBQA3|52=20180206-15:10:38.354|56=TRAX|10=125|8=FIXT.1.1|9=55|35=0|34=582|49=PUBQA3|52=20180206-15:11:08.354|56=TRAX|10=124|8=FIXT.1.1|9=55|35=0|34=583|49=PUBQA3|52=20180206-15:11:38.354|56=TRAX|10=128|8=FIXT.1.1|9=55|35=0|34=584|49=PUBQA3|52=20180206-15:12:09.356|56=TRAX|10=130|8=FIXT.1.1|9=55|35=0|34=585|49=PUBQA3|52=20180206-15:12:40.348|56=TRAX|10=127|8=FIXT.1.1|9=55|35=0|34=586|49=PUBQA3|52=20180206-15:13:10.351|56=TRAX|10=120|8=FIXT.1.1|9=55|35=0|34=587|49=PUBQA3|52=20180206-15:13:40.355|56=TRAX|10=128|8=FIXT.1.1|9=55|35=0|34=588|49=PUBQA3|52=20180206-15:14:11.352|56=TRAX|10=125|8=FIXT.1.1|9=55|35=0|34=589|49=PUBQA3|52=20180206-15:14:42.350|56=TRAX|10=128|8=FIXT.1.1|9=55|35=0|34=590|49=PUBQA3|52=20180206-15:15:12.358|56=TRAX|10=126|8=FIXT.1.1|9=55|35=0|34=591|49=PUBQA3|52=20180206-15:15:43.350|56=TRAX|10=123|8=FIXT.1.1|9=55|35=0|34=592|49=PUBQA3|52=20180206-15:16:13.351|56=TRAX|10=123|8=FIXT.1.1|9=55|35=0|34=593|49=PUBQA3|52=20180206-15:16:43.359|56=TRAX|10=135|8=FIXT.1.1|9=55|35=0|34=594|49=PUBQA3|52=20180206-15:17:14.354|56=TRAX|10=130|8=FIXT.1.1|9=55|35=0|34=595|49=PUBQA3|52=20180206-15:17:44.361|56=TRAX|10=132|8=FIXT.1.1|9=55|35=0|34=596|49=PUBQA3|52=20180206-15:18:15.354|56=TRAX|10=134|8=FIXT.1.1|9=55|35=0|34=597|49=PUBQA3|52=20180206-15:18:45.360|56=TRAX|10=135|8=FIXT.1.1|9=55|35=0|34=598|49=PUBQA3|52=20180206-15:19:16.335|56=TRAX|10=137|8=FIXT.1.1|9=55|35=0|34=599|49=PUBQA3|52=20180206-15:19:47.334|56=TRAX|10=141|8=FIXT.1.1|9=55|35=0|34=600|49=PUBQA3|52=20180206-15:20:18.335|56=TRAX|10=115|8=FIXT.1.1|9=55|35=0|34=601|49=PUBQA3|52=20180206-15:20:49.333|56=TRAX|10=118|8=FIXT.1.1|9=55|35=0|34=602|49=PUBQA3|52=20180206-15:21:20.332|56=TRAX|10=108|8=FIXT.1.1|9=55|35=0|34=603|49=PUBQA3|52=20180206-15:21:51.329|56=TRAX|10=119|8=FIXT.1.1|9=55|35=0|34=604|49=PUBQA3|52=20180206-15:22:22.328|56=TRAX|10=118|8=FIXT.1.1|9=55|35=0|34=605|49=PUBQA3|52=20180206-15:22:53.327|56=TRAX|10=122|8=FIXT.1.1|9=55|35=0|34=606|49=PUBQA3|52=20180206-15:23:24.326|56=TRAX|10=121|8=FIXT.1.1|9=55|35=0|34=607|49=PUBQA3|52=20180206-15:23:55.325|56=TRAX|10=125|8=FIXT.1.1|9=55|35=0|34=608|49=PUBQA3|52=20180206-15:24:26.323|56=TRAX|10=123|8=FIXT.1.1|9=55|35=0|34=609|49=PUBQA3|52=20180206-15:24:56.323|56=TRAX|10=127|8=FIXT.1.1|9=55|35=0|34=610|49=PUBQA3|52=20180206-15:25:27.322|56=TRAX|10=117|8=FIXT.1.1|9=55|35=0|34=611|49=PUBQA3|52=20180206-15:25:58.320|56=TRAX|10=120|8=FIXT.1.1|9=55|35=0|34=612|49=PUBQA3|52=20180206-15:26:29.319|56=TRAX|10=128|8=FIXT.1.1|9=55|35=0|34=613|49=PUBQA3|52=20180206-15:27:00.317|56=TRAX|10=117|8=FIXT.1.1|9=55|35=0|34=614|49=PUBQA3|52=20180206-15:27:31.316|56=TRAX|10=121|8=FIXT.1.1|9=55|35=0|34=615|49=PUBQA3|52=20180206-15:28:01.494|56=TRAX|10=127|8=FIXT.1.1|9=55|35=0|34=616|49=PUBQA3|52=20180206-15:28:32.314|56=TRAX|10=123|8=FIXT.1.1|9=55|35=0|34=617|49=PUBQA3|52=20180206-15:29:03.313|56=TRAX|10=122|8=FIXT.1.1|9=55|35=0|34=618|49=PUBQA3|52=20180206-15:29:33.335|56=TRAX|10=130|8=FIXT.1.1|9=55|35=0|34=619|49=PUBQA3|52=20180206-15:30:04.337|56=TRAX|10=123|8=FIXT.1.1|9=55|35=0|34=620|49=PUBQA3|52=20180206-15:30:35.337|56=TRAX|10=119|8=FIXT.1.1|9=55|35=0|34=621|49=PUBQA3|52=20180206-15:31:06.335|56=TRAX|10=117|8=FIXT.1.1|9=55|35=0|34=622|49=PUBQA3|52=20180206-15:31:36.341|56=TRAX|10=118|8=FIXT.1.1|9=55|35=0|34=623|49=PUBQA3|52=20180206-15:32:07.333|56=TRAX|10=119|8=FIXT.1.1|9=55|35=0|34=624|49=PUBQA3|52=20180206-15:32:37.339|56=TRAX|10=129|8=FIXT.1.1|9=55|35=0|34=625|49=PUBQA3|52=20180206-15:33:07.340|56=TRAX|10=120|8=FIXT.1.1|9=55|35=0|34=626|49=PUBQA3|52=20180206-15:33:37.342|56=TRAX|10=126|8=FIXT.1.1|9=55|35=0|34=627|49=PUBQA3|52=20180206-15:34:08.341|56=TRAX|10=125|8=FIXT.1.1|9=55|35=0|34=628|49=PUBQA3|52=20180206-15:34:39.332|56=TRAX|10=130|8=FIXT.1.1|9=55|35=0|34=629|49=PUBQA3|52=20180206-15:35:09.340|56=TRAX|10=128|8=FIXT.1.1|9=55|35=0|34=630|49=PUBQA3|52=20180206-15:35:40.340|56=TRAX|10=115|8=FIXT.1.1|9=55|35=0|34=631|49=PUBQA3|52=20180206-15:36:10.341|56=TRAX|10=115|8=FIXT.1.1|9=55|35=0|34=632|49=PUBQA3|52=20180206-15:36:41.341|56=TRAX|10=120|8=FIXT.1.1|9=55|35=0|34=633|49=PUBQA3|52=20180206-15:37:11.346|56=TRAX|10=124|8=FIXT.1.1|9=55|35=0|34=634|49=PUBQA3|52=20180206-15:37:42.318|56=TRAX|10=128|8=FIXT.1.1|9=55|35=0|34=635|49=PUBQA3|52=20180206-15:38:12.340|56=TRAX|10=122|8=FIXT.1.1|9=55|35=0|34=636|49=PUBQA3|52=20180206-15:38:43.340|56=TRAX|10=127|8=FIXT.1.1|9=55|35=0|34=637|49=PUBQA3|52=20180206-15:39:13.343|56=TRAX|10=129|8=FIXT.1.1|9=55|35=0|34=638|49=PUBQA3|52=20180206-15:39:43.345|56=TRAX|10=135|8=FIXT.1.1|9=55|35=0|34=639|49=PUBQA3|52=20180206-15:40:13.346|56=TRAX|10=126|8=FIXT.1.1|9=55|35=0|34=640|49=PUBQA3|52=20180206-15:40:44.346|56=TRAX|10=122|8=FIXT.1.1|9=55|35=0|34=641|49=PUBQA3|52=20180206-15:41:15.340|56=TRAX|10=116|8=FIXT.1.1|9=55|35=0|34=642|49=PUBQA3|52=20180206-15:41:45.343|56=TRAX|10=123|8=FIXT.1.1|9=55|35=0|34=643|49=PUBQA3|52=20180206-15:42:15.343|56=TRAX|10=122|8=FIXT.1.1|9=55|35=0|34=644|49=PUBQA3|52=20180206-15:42:45.343|56=TRAX|10=126|8=FIXT.1.1|9=55|35=0|34=645|49=PUBQA3|52=20180206-15:43:15.343|56=TRAX|10=125|8=FIXT.1.1|9=55|35=0|34=646|49=PUBQA3|52=20180206-15:43:46.324|56=TRAX|10=129|8=FIXT.1.1|9=55|35=0|34=647|49=PUBQA3|52=20180206-15:44:16.349|56=TRAX|10=135|8=FIXT.1.1|9=55|35=0|34=648|49=PUBQA3|52=20180206-15:44:47.333|56=TRAX|10=133|8=FIXT.1.1|9=55|35=0|34=649|49=PUBQA3|52=20180206-15:45:17.349|56=TRAX|10=139|8=FIXT.1.1|9=55|35=0|34=650|49=PUBQA3|52=20180206-15:45:48.332|56=TRAX|10=127|8=FIXT.1.1|9=55|35=0|34=651|49=PUBQA3|52=20180206-15:46:18.335|56=TRAX|10=129|8=FIXT.1.1|9=55|35=0|34=652|49=PUBQA3|52=20180206-15:46:48.339|56=TRAX|10=137|8=FIXT.1.1|9=55|35=0|34=653|49=PUBQA3|52=20180206-15:47:18.340|56=TRAX|10=128|8=FIXT.1.1|9=55|35=0|34=654|49=PUBQA3|52=20180206-15:47:48.343|56=TRAX|10=135|8=FIXT.1.1|9=55|35=0|34=655|49=PUBQA3|52=20180206-15:48:18.343|56=TRAX|10=134|8=FIXT.1.1|9=55|35=0|34=656|49=PUBQA3|52=20180206-15:48:48.352|56=TRAX|10=138|8=FIXT.1.1|9=55|35=0|34=657|49=PUBQA3|52=20180206-15:49:19.327|56=TRAX|10=140|8=FIXT.1.1|9=55|35=0|34=658|49=PUBQA3|52=20180206-15:49:49.345|56=TRAX|10=144|8=FIXT.1.1|9=55|35=0|34=659|49=PUBQA3|52=20180206-15:50:20.349|56=TRAX|10=130|8=FIXT.1.1|9=55|35=0|34=660|49=PUBQA3|52=20180206-15:50:51.347|56=TRAX|10=124|8=FIXT.1.1|9=55|35=0|34=661|49=PUBQA3|52=20180206-15:51:21.349|56=TRAX|10=125|8=FIXT.1.1|9=55|35=0|34=662|49=PUBQA3|52=20180206-15:51:51.355|56=TRAX|10=126|8=FIXT.1.1|9=55|35=0|34=663|49=PUBQA3|52=20180206-15:52:22.353|56=TRAX|10=124|8=FIXT.1.1|9=55|35=0|34=664|49=PUBQA3|52=20180206-15:52:53.348|56=TRAX|10=133|8=FIXT.1.1|9=55|35=0|34=665|49=PUBQA3|52=20180206-15:53:23.356|56=TRAX|10=131|8=FIXT.1.1|9=55|35=0|34=666|49=PUBQA3|52=20180206-15:53:54.351|56=TRAX|10=131|8=FIXT.1.1|9=55|35=0|34=667|49=PUBQA3|52=20180206-15:54:24.351|56=TRAX|10=130|8=FIXT.1.1|9=55|35=0|34=668|49=PUBQA3|52=20180206-15:54:54.352|56=TRAX|10=135|8=FIXT.1.1|9=55|35=0|34=669|49=PUBQA3|52=20180206-15:55:25.351|56=TRAX|10=134|8=FIXT.1.1|9=55|35=0|34=670|49=PUBQA3|52=20180206-15:55:55.354|56=TRAX|10=132|8=FIXT.1.1|9=55|35=0|34=671|49=PUBQA3|52=20180206-15:56:25.356|56=TRAX|10=133|8=FIXT.1.1|9=55|35=0|34=672|49=PUBQA3|52=20180206-15:56:56.359|56=TRAX|10=141|8=FIXT.1.1|9=55|35=0|34=673|49=PUBQA3|52=20180206-15:57:27.357|56=TRAX|10=139|8=FIXT.1.1|9=55|35=0|34=674|49=PUBQA3|52=20180206-15:57:58.354|56=TRAX|10=141|8=FIXT.1.1|9=55|35=0|34=675|49=PUBQA3|52=20180206-15:58:28.354|56=TRAX|10=140|8=FIXT.1.1|9=55|35=0|34=676|49=PUBQA3|52=20180206-15:58:58.355|56=TRAX|10=145|8=FIXT.1.1|9=55|35=0|34=677|49=PUBQA3|52=20180206-15:59:29.357|56=TRAX|10=147|8=FIXT.1.1|9=55|35=0|34=678|49=PUBQA3|52=20180206-15:59:59.363|56=TRAX|10=148|8=FIXT.1.1|9=55|35=0|34=679|49=PUBQA3|52=20180206-16:00:30.358|56=TRAX|10=129|8=FIXT.1.1|9=55|35=0|34=680|49=PUBQA3|52=20180206-16:01:00.361|56=TRAX|10=113|8=FIXT.1.1|9=55|35=0|34=681|49=PUBQA3|52=20180206-16:01:31.359|56=TRAX|10=125|8=FIXT.1.1|9=55|35=0|34=682|49=PUBQA3|52=20180206-16:02:01.361|56=TRAX|10=117|8=FIXT.1.1|9=55|35=0|34=683|49=PUBQA3|52=20180206-16:02:31.479|56=TRAX|10=131|8=FIXT.1.1|9=55|35=0|34=684|49=PUBQA3|52=20180206-16:03:01.481|56=TRAX|10=123|8=FIXT.1.1|9=55|35=0|34=685|49=PUBQA3|52=20180206-16:03:31.491|56=TRAX|10=128|8=FIXT.1.1|9=55|35=0|34=686|49=PUBQA3|52=20180206-16:04:01.497|56=TRAX|10=133|8=FIXT.1.1|9=55|35=0|34=687|49=PUBQA3|52=20180206-16:04:31.522|56=TRAX|10=126|8=FIXT.1.1|9=55|35=0|34=688|49=PUBQA3|52=20180206-16:05:02.365|56=TRAX|10=131|8=FIXT.1.1|9=55|35=0|34=689|49=PUBQA3|52=20180206-16:05:33.367|56=TRAX|10=138|8=FIXT.1.1|9=55|35=0|34=690|49=PUBQA3|52=20180206-16:06:04.361|56=TRAX|10=123|8=FIXT.1.1|9=55|35=0|34=691|49=PUBQA3|52=20180206-16:06:34.361|56=TRAX|10=127|8=FIXT.1.1|9=55|35=0|34=692|49=PUBQA3|52=20180206-16:07:04.367|56=TRAX|10=132|8=FIXT.1.1|9=55|35=0|34=693|49=PUBQA3|52=20180206-16:07:35.369|56=TRAX|10=139|8=FIXT.1.1|9=55|35=0|34=694|49=PUBQA3|52=20180206-16:08:06.367|56=TRAX|10=137|8=FIXT.1.1|9=55|35=0|34=695|49=PUBQA3|52=20180206-16:08:37.365|56=TRAX|10=140|8=FIXT.1.1|9=55|35=0|34=696|49=PUBQA3|52=20180206-16:09:08.368|56=TRAX|10=143|8=FIXT.1.1|9=55|35=0|34=697|49=PUBQA3|52=20180206-16:09:39.372|56=TRAX|10=143|8=FIXT.1.1|9=55|35=0|34=698|49=PUBQA3|52=20180206-16:10:10.372|56=TRAX|10=125|8=FIXT.1.1|9=55|35=0|34=699|49=PUBQA3|52=20180206-16:10:41.369|56=TRAX|10=136|8=FIXT.1.1|9=55|35=0|34=700|49=PUBQA3|52=20180206-16:11:12.365|56=TRAX|10=114|8=FIXT.1.1|9=55|35=0|34=701|49=PUBQA3|52=20180206-16:11:42.373|56=TRAX|10=117|8=FIXT.1.1|9=55|35=0|34=702|49=PUBQA3|52=20180206-16:12:13.366|56=TRAX|10=119|8=FIXT.1.1|9=55|35=0|34=703|49=PUBQA3|52=20180206-16:12:43.374|56=TRAX|10=122|8=FIXT.1.1|9=55|35=0|34=704|49=PUBQA3|52=20180206-16:13:13.374|56=TRAX|10=121|8=FIXT.1.1|9=55|35=0|34=705|49=PUBQA3|52=20180206-16:13:44.373|56=TRAX|10=125|8=FIXT.1.1|9=55|35=0|34=706|49=PUBQA3|52=20180206-16:14:15.375|56=TRAX|10=127|8=FIXT.1.1|9=55|35=0|34=707|49=PUBQA3|52=20180206-16:14:46.374|56=TRAX|10=131|8=FIXT.1.1|9=55|35=0|34=708|49=PUBQA3|52=20180206-16:15:16.374|56=TRAX|10=130|8=FIXT.1.1|9=55|35=0|34=709|49=PUBQA3|52=20180206-16:15:46.374|56=TRAX|10=134|8=FIXT.1.1|9=55|35=0|34=710|49=PUBQA3|52=20180206-16:16:17.378|56=TRAX|10=129|8=FIXT.1.1|9=55|35=0|34=711|49=PUBQA3|52=20180206-16:16:48.377|56=TRAX|10=133|8=FIXT.1.1|9=55|35=0|34=712|49=PUBQA3|52=20180206-16:17:19.376|56=TRAX|10=132|8=FIXT.1.1|9=55|35=0|34=713|49=PUBQA3|52=20180206-16:17:49.377|56=TRAX|10=137|8=FIXT.1.1|9=55|35=0|34=714|49=PUBQA3|52=20180206-16:18:20.378|56=TRAX|10=129|8=FIXT.1.1|9=55|35=0|34=715|49=PUBQA3|52=20180206-16:18:51.375|56=TRAX|10=131|8=FIXT.1.1|9=55|35=0|34=716|49=PUBQA3|52=20180206-16:19:21.380|56=TRAX|10=126|8=FIXT.1.1|9=55|35=0|34=717|49=PUBQA3|52=20180206-16:19:52.377|56=TRAX|10=137|8=FIXT.1.1|9=55|35=0|34=718|49=PUBQA3|52=20180206-16:20:23.382|56=TRAX|10=124|8=FIXT.1.1|9=55|35=0|34=719|49=PUBQA3|52=20180206-16:20:54.378|56=TRAX|10=134|8=FIXT.1.1|9=55|35=0|34=720|49=PUBQA3|52=20180206-16:21:24.383|56=TRAX|10=120|8=FIXT.1.1|9=55|35=0|34=721|49=PUBQA3|52=20180206-16:21:55.376|56=TRAX|10=127|8=FIXT.1.1|9=55|35=0|34=722|49=PUBQA3|52=20180206-16:22:26.369|56=TRAX|10=129|8=FIXT.1.1|9=55|35=0|34=723|49=PUBQA3|52=20180206-16:22:56.377|56=TRAX|10=132|8=FIXT.1.1|9=55|35=0|34=724|49=PUBQA3|52=20180206-16:23:26.383|56=TRAX|10=128|8=FIXT.1.1|9=55|35=0|34=725|49=PUBQA3|52=20180206-16:23:56.383|56=TRAX|10=132|8=FIXT.1.1|9=55|35=0|34=726|49=PUBQA3|52=20180206-16:24:26.384|56=TRAX|10=132|8=FIXT.1.1|9=55|35=0|34=727|49=PUBQA3|52=20180206-16:24:56.384|56=TRAX|10=136|8=FIXT.1.1|9=55|35=0|34=728|49=PUBQA3|52=20180206-16:25:27.383|56=TRAX|10=135|8=FIXT.1.1|9=55|35=0|34=729|49=PUBQA3|52=20180206-16:25:57.388|56=TRAX|10=144|8=FIXT.1.1|9=55|35=0|34=730|49=PUBQA3|52=20180206-16:26:27.389|56=TRAX|10=135|8=FIXT.1.1|9=55|35=0|34=731|49=PUBQA3|52=20180206-16:26:58.383|56=TRAX|10=134|8=FIXT.1.1|9=55|35=0|34=732|49=PUBQA3|52=20180206-16:27:29.390|56=TRAX|10=132|8=FIXT.1.1|9=55|35=0|34=733|49=PUBQA3|52=20180206-16:28:00.382|56=TRAX|10=124|8=FIXT.1.1|9=55|35=0|34=734|49=PUBQA3|52=20180206-16:28:30.387|56=TRAX|10=133|8=FIXT.1.1|9=55|35=0|34=735|49=PUBQA3|52=20180206-16:29:01.390|56=TRAX|10=127|8=FIXT.1.1|9=55|35=0|34=736|49=PUBQA3|52=20180206-16:29:31.390|56=TRAX|10=131|8=FIXT.1.1|9=55|35=0|34=737|49=PUBQA3|52=20180206-16:30:01.391|56=TRAX|10=122|8=FIXT.1.1|9=55|35=0|34=738|49=PUBQA3|52=20180206-16:30:31.510|56=TRAX|10=119|8=FIXT.1.1|9=55|35=0|34=739|49=PUBQA3|52=20180206-16:31:02.391|56=TRAX|10=126|8=FIXT.1.1|9=55|35=0|34=740|49=PUBQA3|52=20180206-16:31:33.390|56=TRAX|10=121|8=FIXT.1.1|9=55|35=0|34=741|49=PUBQA3|52=20180206-16:32:04.385|56=TRAX|10=125|8=FIXT.1.1|9=55|35=0|34=742|49=PUBQA3|52=20180206-16:32:34.387|56=TRAX|10=131|8=FIXT.1.1|9=55|35=0|34=743|49=PUBQA3|52=20180206-16:33:04.387|56=TRAX|10=130|8=FIXT.1.1|9=55|35=0|34=744|49=PUBQA3|52=20180206-16:33:34.395|56=TRAX|10=133|8=FIXT.1.1|9=55|35=0|34=745|49=PUBQA3|52=20180206-16:34:05.389|56=TRAX|10=136|8=FIXT.1.1|9=55|35=0|34=746|49=PUBQA3|52=20180206-16:34:35.394|56=TRAX|10=136|8=FIXT.1.1|9=55|35=0|34=747|49=PUBQA3|52=20180206-16:35:05.396|56=TRAX|10=137|8=FIXT.1.1|9=55|35=0|34=748|49=PUBQA3|52=20180206-16:35:36.394|56=TRAX|10=140|8=FIXT.1.1|9=55|35=0|34=749|49=PUBQA3|52=20180206-16:36:06.396|56=TRAX|10=141|8=FIXT.1.1|9=55|35=0|34=750|49=PUBQA3|52=20180206-16:36:37.383|56=TRAX|10=133|8=FIXT.1.1|9=55|35=0|34=751|49=PUBQA3|52=20180206-16:37:07.398|56=TRAX|10=138|8=FIXT.1.1|9=55|35=0|34=752|49=PUBQA3|52=20180206-16:37:38.395|56=TRAX|10=140|8=FIXT.1.1|9=55|35=0|34=753|49=PUBQA3|52=20180206-16:38:09.391|56=TRAX|10=136|8=FIXT.1.1|9=55|35=0|34=754|49=PUBQA3|52=20180206-16:38:39.398|56=TRAX|10=147|8=FIXT.1.1|9=55|35=0|34=755|49=PUBQA3|52=20180206-16:39:09.399|56=TRAX|10=147|8=FIXT.1.1|9=55|35=0|34=756|49=PUBQA3|52=20180206-16:39:39.400|56=TRAX|10=134|8=FIXT.1.1|9=55|35=0|34=757|49=PUBQA3|52=20180206-16:40:10.398|56=TRAX|10=132|8=FIXT.1.1|9=55|35=0|34=758|49=PUBQA3|52=20180206-16:40:41.395|56=TRAX|10=134|8=FIXT.1.1|9=55|35=0|34=759|49=PUBQA3|52=20180206-16:41:12.400|56=TRAX|10=121|8=FIXT.1.1|9=55|35=0|34=760|49=PUBQA3|52=20180206-16:41:43.396|56=TRAX|10=131|8=FIXT.1.1|9=55|35=0|34=761|49=PUBQA3|52=20180206-16:42:13.399|56=TRAX|10=133|8=FIXT.1.1|9=55|35=0|34=762|49=PUBQA3|52=20180206-16:42:44.378|56=TRAX|10=135|8=FIXT.1.1|9=55|35=0|34=763|49=PUBQA3|52=20180206-16:43:15.377|56=TRAX|10=134|8=FIXT.1.1|9=55|35=0|34=764|49=PUBQA3|52=20180206-16:43:45.377|56=TRAX|10=138|8=FIXT.1.1|9=55|35=0|34=765|49=PUBQA3|52=20180206-16:44:15.399|56=TRAX|10=141|8=FIXT.1.1|9=55|35=0|34=766|49=PUBQA3|52=20180206-16:44:45.399|56=TRAX|10=145|8=FIXT.1.1|9=55|35=0|34=767|49=PUBQA3|52=20180206-16:45:16.375|56=TRAX|10=139|8=FIXT.1.1|9=55|35=0|34=768|49=PUBQA3|52=20180206-16:45:46.395|56=TRAX|10=145|8=FIXT.1.1|9=55|35=0|34=769|49=PUBQA3|52=20180206-16:46:17.376|56=TRAX|10=144|8=FIXT.1.1|9=55|35=0|34=770|49=PUBQA3|52=20180206-16:46:47.401|56=TRAX|10=128|8=FIXT.1.1|9=55|35=0|34=771|49=PUBQA3|52=20180206-16:47:18.375|56=TRAX|10=138|8=FIXT.1.1|9=55|35=0|34=772|49=PUBQA3|52=20180206-16:47:49.374|56=TRAX|10=142|8=FIXT.1.1|9=55|35=0|34=773|49=PUBQA3|52=20180206-16:48:20.373|56=TRAX|10=132|8=FIXT.1.1|9=55|35=0|34=774|49=PUBQA3|52=20180206-16:48:51.373|56=TRAX|10=137|8=FIXT.1.1|9=55|35=0|34=775|49=PUBQA3|52=20180206-16:49:22.370|56=TRAX|10=134|8=FIXT.1.1|9=55|35=0|34=776|49=PUBQA3|52=20180206-16:49:52.387|56=TRAX|10=146|8=FIXT.1.1|9=55|35=0|34=777|49=PUBQA3|52=20180206-16:50:22.392|56=TRAX|10=132|8=FIXT.1.1|9=55|35=0|34=778|49=PUBQA3|52=20180206-16:50:53.391|56=TRAX|10=136|8=FIXT.1.1|9=55|35=0|34=779|49=PUBQA3|52=20180206-16:51:24.370|56=TRAX|10=133|8=FIXT.1.1|9=55|35=0|34=780|49=PUBQA3|52=20180206-16:51:54.388|56=TRAX|10=137|8=FIXT.1.1|9=55|35=0|34=781|49=PUBQA3|52=20180206-16:52:25.369|56=TRAX|10=136|8=FIXT.1.1|9=55|35=0|34=782|49=PUBQA3|52=20180206-16:52:55.392|56=TRAX|10=136|8=FIXT.1.1|9=55|35=0|34=783|49=PUBQA3|52=20180206-16:53:25.393|56=TRAX|10=136|8=FIXT.1.1|9=55|35=0|34=784|49=PUBQA3|52=20180206-16:53:55.397|56=TRAX|10=144|8=FIXT.1.1|9=55|35=0|34=785|49=PUBQA3|52=20180206-16:54:26.397|56=TRAX|10=144|8=FIXT.1.1|9=55|35=0|34=786|49=PUBQA3|52=20180206-16:54:56.398|56=TRAX|10=149|8=FIXT.1.1|9=55|35=0|34=787|49=PUBQA3|52=20180206-16:55:27.399|56=TRAX|10=150|8=FIXT.1.1|9=55|35=0|34=788|49=PUBQA3|52=20180206-16:55:57.399|56=TRAX|10=154|8=FIXT.1.1|9=55|35=0|34=789|49=PUBQA3|52=20180206-16:56:28.394|56=TRAX|10=149|8=FIXT.1.1|9=55|35=0|34=790|49=PUBQA3|52=20180206-16:56:58.397|56=TRAX|10=147|8=FIXT.1.1|9=55|35=0|34=791|49=PUBQA3|52=20180206-16:57:28.400|56=TRAX|10=131|8=FIXT.1.1|9=55|35=0|34=792|49=PUBQA3|52=20180206-16:57:59.400|56=TRAX|10=136|8=FIXT.1.1|9=55|35=0|34=793|49=PUBQA3|52=20180206-16:58:30.399|56=TRAX|10=144|8=FIXT.1.1|9=55|35=0|34=794|49=PUBQA3|52=20180206-16:59:01.394|56=TRAX|10=139|8=FIXT.1.1|9=55|35=0|34=795|49=PUBQA3|52=20180206-16:59:31.396|56=TRAX|10=145|8=FIXT.1.1|9=55|35=0|34=796|49=PUBQA3|52=20180206-17:00:01.402|56=TRAX|10=118|8=FIXT.1.1|9=55|35=0|34=797|49=PUBQA3|52=20180206-17:00:31.522|56=TRAX|10=125|8=FIXT.1.1|9=55|35=0|34=798|49=PUBQA3|52=20180206-17:01:02.396|56=TRAX|10=134|8=FIXT.1.1|9=55|35=0|34=799|49=PUBQA3|52=20180206-17:01:32.399|56=TRAX|10=141|8=FIXT.1.1|9=55|35=0|34=800|49=PUBQA3|52=20180206-17:02:03.403|56=TRAX|10=109|8=FIXT.1.1|9=55|35=0|34=801|49=PUBQA3|52=20180206-17:02:34.402|56=TRAX|10=113|8=FIXT.1.1|9=55|35=0|34=802|49=PUBQA3|52=20180206-17:03:05.398|56=TRAX|10=127|8=FIXT.1.1|9=55|35=0|34=803|49=PUBQA3|52=20180206-17:03:35.399|56=TRAX|10=132|8=FIXT.1.1|9=55|35=0|34=804|49=PUBQA3|52=20180206-17:04:05.404|56=TRAX|10=118|8=FIXT.1.1|9=55|35=0|34=805|49=PUBQA3|52=20180206-17:04:35.404|56=TRAX|10=122|8=FIXT.1.1|9=55|35=0|34=806|49=PUBQA3|52=20180206-17:05:05.408|56=TRAX|10=125|8=FIXT.1.1|9=55|35=0|34=807|49=PUBQA3|52=20180206-17:05:36.405|56=TRAX|10=127|8=FIXT.1.1|9=55|35=0|34=808|49=PUBQA3|52=20180206-17:06:07.404|56=TRAX|10=126|8=FIXT.1.1|9=55|35=0|34=809|49=PUBQA3|52=20180206-17:06:37.409|56=TRAX|10=135|8=FIXT.1.1|9=55|35=0|34=810|49=PUBQA3|52=20180206-17:07:07.409|56=TRAX|10=125|8=FIXT.1.1|9=55|35=0|34=811|49=PUBQA3|52=20180206-17:07:38.406|56=TRAX|10=127|8=FIXT.1.1|9=55|35=0|34=812|49=PUBQA3|52=20180206-17:08:09.406|56=TRAX|10=127|8=FIXT.1.1|9=55|35=0|34=813|49=PUBQA3|52=20180206-17:08:39.412|56=TRAX|10=128|8=FIXT.1.1|9=55|35=0|34=814|49=PUBQA3|52=20180206-17:09:10.406|56=TRAX|10=122|8=FIXT.1.1|9=55|35=0|34=815|49=PUBQA3|52=20180206-17:09:40.406|56=TRAX|10=126|8=FIXT.1.1|9=55|35=0|34=816|49=PUBQA3|52=20180206-17:10:10.410|56=TRAX|10=111|8=FIXT.1.1|9=55|35=0|34=817|49=PUBQA3|52=20180206-17:10:41.412|56=TRAX|10=118|8=FIXT.1.1|9=55|35=0|34=818|49=PUBQA3|52=20180206-17:11:12.412|56=TRAX|10=118|8=FIXT.1.1|9=55|35=0|34=819|49=PUBQA3|52=20180206-17:11:42.412|56=TRAX|10=122|8=FIXT.1.1|9=55|35=0|34=820|49=PUBQA3|52=20180206-17:12:12.415|56=TRAX|10=115|8=FIXT.1.1|9=55|35=0|34=821|49=PUBQA3|52=20180206-17:12:43.414|56=TRAX|10=119|8=FIXT.1.1|9=55|35=0|34=822|49=PUBQA3|52=20180206-17:13:13.417|56=TRAX|10=121|8=FIXT.1.1|9=55|35=0|34=823|49=PUBQA3|52=20180206-17:13:44.413|56=TRAX|10=122|8=FIXT.1.1|9=55|35=0|34=824|49=PUBQA3|52=20180206-17:14:14.413|56=TRAX|10=121|8=FIXT.1.1|9=55|35=0|34=825|49=PUBQA3|52=20180206-17:14:45.411|56=TRAX|10=124|8=FIXT.1.1|9=55|35=0|34=826|49=PUBQA3|52=20180206-17:15:15.419|56=TRAX|10=131|8=FIXT.1.1|9=55|35=0|34=827|49=PUBQA3|52=20180206-17:15:46.418|56=TRAX|10=135|8=FIXT.1.1|9=55|35=0|34=828|49=PUBQA3|52=20180206-17:16:17.419|56=TRAX|10=136|8=FIXT.1.1|9=55|35=0|34=829|49=PUBQA3|52=20180206-17:16:48.417|56=TRAX|10=139|8=FIXT.1.1|9=55|35=0|34=830|49=PUBQA3|52=20180206-17:17:19.414|56=TRAX|10=127|8=FIXT.1.1|9=55|35=0|34=831|49=PUBQA3|52=20180206-17:17:49.420|56=TRAX|10=128|8=FIXT.1.1|9=55|35=0|34=832|49=PUBQA3|52=20180206-17:18:20.408|56=TRAX|10=125|8=FIXT.1.1|9=55|35=0|34=833|49=PUBQA3|52=20180206-17:18:50.414|56=TRAX|10=126|8=FIXT.1.1|9=55|35=0|34=834|49=PUBQA3|52=20180206-17:19:20.422|56=TRAX|10=124|8=FIXT.1.1|9=55|35=0|34=835|49=PUBQA3|52=20180206-17:19:50.423|56=TRAX|10=129|8=FIXT.1.1|9=55|35=0|34=836|49=PUBQA3|52=20180206-17:20:21.420|56=TRAX|10=117|8=FIXT.1.1|9=55|35=0|34=837|49=PUBQA3|52=20180206-17:20:51.421|56=TRAX|10=122|8=FIXT.1.1|9=55|35=0|34=838|49=PUBQA3|52=20180206-17:21:21.422|56=TRAX|10=122|8=FIXT.1.1|9=55|35=0|34=839|49=PUBQA3|52=20180206-17:21:51.425|56=TRAX|10=129|8=FIXT.1.1|9=55|35=0|34=840|49=PUBQA3|52=20180206-17:22:21.425|56=TRAX|10=119|8=FIXT.1.1|9=55|35=0|34=841|49=PUBQA3|52=20180206-17:22:52.423|56=TRAX|10=122|8=FIXT.1.1|9=55|35=0|34=842|49=PUBQA3|52=20180206-17:23:23.422|56=TRAX|10=121|8=FIXT.1.1|9=55|35=0|34=843|49=PUBQA3|52=20180206-17:23:54.422|56=TRAX|10=126|8=FIXT.1.1|9=55|35=0|34=844|49=PUBQA3|52=20180206-17:24:25.421|56=TRAX|10=125|8=FIXT.1.1|9=55|35=0|34=845|49=PUBQA3|52=20180206-17:24:55.424|56=TRAX|10=132|8=FIXT.1.1|9=55|35=0|34=846|49=PUBQA3|52=20180206-17:25:25.429|56=TRAX|10=136|8=FIXT.1.1|9=55|35=0|34=847|49=PUBQA3|52=20180206-17:25:56.422|56=TRAX|10=134|8=FIXT.1.1|9=55|35=0|34=848|49=PUBQA3|52=20180206-17:26:26.425|56=TRAX|10=136|8=FIXT.1.1|9=55|35=0|34=849|49=PUBQA3|52=20180206-17:26:57.425|56=TRAX|10=141|8=FIXT.1.1|9=55|35=0|34=850|49=PUBQA3|52=20180206-17:27:27.429|56=TRAX|10=135|8=FIXT.1.1|9=55|35=0|34=851|49=PUBQA3|52=20180206-17:27:58.428|56=TRAX|10=139|8=FIXT.1.1|9=55|35=0|34=852|49=PUBQA3|52=20180206-17:28:28.432|56=TRAX|10=133|8=FIXT.1.1|9=55|35=0|34=853|49=PUBQA3|52=20180206-17:28:59.425|56=TRAX|10=140|8=FIXT.1.1|9=55|35=0|34=854|49=PUBQA3|52=20180206-17:29:29.432|56=TRAX|10=137|8=FIXT.1.1|9=55|35=0|34=855|49=PUBQA3|52=20180206-17:30:00.415|56=TRAX|10=120|8=FIXT.1.1|9=55|35=0|34=856|49=PUBQA3|52=20180206-17:30:30.433|56=TRAX|10=124|8=FIXT.1.1|9=55|35=0|34=857|49=PUBQA3|52=20180206-17:31:01.430|56=TRAX|10=121|8=FIXT.1.1|9=55|35=0|34=858|49=PUBQA3|52=20180206-17:31:31.435|56=TRAX|10=130|8=FIXT.1.1|9=55|35=0|34=859|49=PUBQA3|52=20180206-17:32:01.508|56=TRAX|10=130|8=FIXT.1.1|9=55|35=0|34=860|49=PUBQA3|52=20180206-17:32:31.520|56=TRAX|10=119|8=FIXT.1.1|9=55|35=0|34=861|49=PUBQA3|52=20180206-17:33:02.434|56=TRAX|10=123|8=FIXT.1.1|9=55|35=0|34=862|49=PUBQA3|52=20180206-17:33:33.434|56=TRAX|10=128|8=FIXT.1.1|9=55|35=0|34=863|49=PUBQA3|52=20180206-17:34:04.433|56=TRAX|10=127|8=FIXT.1.1|9=55|35=0|34=864|49=PUBQA3|52=20180206-17:34:35.430|56=TRAX|10=129|8=FIXT.1.1|9=55|35=0|34=865|49=PUBQA3|52=20180206-17:35:05.430|56=TRAX|10=128|8=FIXT.1.1|9=55|35=0|34=866|49=PUBQA3|52=20180206-17:35:35.436|56=TRAX|10=138|8=FIXT.1.1|9=55|35=0|34=867|49=PUBQA3|52=20180206-17:36:06.434|56=TRAX|10=136|8=FIXT.1.1|9=55|35=0|34=868|49=PUBQA3|52=20180206-17:36:36.435|56=TRAX|10=141|8=FIXT.1.1|9=55|35=0|34=869|49=PUBQA3|52=20180206-17:37:06.439|56=TRAX|10=144|8=FIXT.1.1|9=55|35=0|34=870|49=PUBQA3|52=20180206-17:37:37.438|56=TRAX|10=139|8=FIXT.1.1|9=55|35=0|34=871|49=PUBQA3|52=20180206-17:38:07.440|56=TRAX|10=131|8=FIXT.1.1|9=55|35=0|34=872|49=PUBQA3|52=20180206-17:38:38.437|56=TRAX|10=142|8=FIXT.1.1|9=55|35=0|34=873|49=PUBQA3|52=20180206-17:39:09.435|56=TRAX|10=140|8=FIXT.1.1|9=55|35=0|34=874|49=PUBQA3|52=20180206-17:39:39.437|56=TRAX|10=146|8=FIXT.1.1|9=55|35=0|34=875|49=PUBQA3|52=20180206-17:40:09.438|56=TRAX|10=137|8=FIXT.1.1|9=55|35=0|34=876|49=PUBQA3|52=20180206-17:40:39.438|56=TRAX|10=141|8=FIXT.1.1|9=55|35=0|34=877|49=PUBQA3|52=20180206-17:41:09.444|56=TRAX|10=137|8=FIXT.1.1|9=55|35=0|34=878|49=PUBQA3|52=20180206-17:41:40.439|56=TRAX|10=137|8=FIXT.1.1|9=55|35=0|34=879|49=PUBQA3|52=20180206-17:42:10.443|56=TRAX|10=131|8=FIXT.1.1|9=55|35=0|34=880|49=PUBQA3|52=20180206-17:42:41.440|56=TRAX|10=124|8=FIXT.1.1|9=55|35=0|34=881|49=PUBQA3|52=20180206-17:43:11.443|56=TRAX|10=126|8=FIXT.1.1|9=55|35=0|34=882|49=PUBQA3|52=20180206-17:43:41.446|56=TRAX|10=133|8=FIXT.1.1|9=55|35=0|34=883|49=PUBQA3|52=20180206-17:44:12.440|56=TRAX|10=127|8=FIXT.1.1|9=55|35=0|34=884|49=PUBQA3|52=20180206-17:44:42.442|56=TRAX|10=133|8=FIXT.1.1|9=55|35=0|34=885|49=PUBQA3|52=20180206-17:45:12.446|56=TRAX|10=136|8=FIXT.1.1|9=55|35=0|34=886|49=PUBQA3|52=20180206-17:45:43.444|56=TRAX|10=139|8=FIXT.1.1|9=55|35=0|34=887|49=PUBQA3|52=20180206-17:46:14.443|56=TRAX|10=138|8=FIXT.1.1|9=55|35=0|34=888|49=PUBQA3|52=20180206-17:46:44.448|56=TRAX|10=147|8=FIXT.1.1|9=55|35=0|34=889|49=PUBQA3|52=20180206-17:47:15.447|56=TRAX|10=146|8=FIXT.1.1|9=55|35=0|34=890|49=PUBQA3|52=20180206-17:47:45.447|56=TRAX|10=141|8=FIXT.1.1|9=55|35=0|34=891|49=PUBQA3|52=20180206-17:48:15.449|56=TRAX|10=142|8=FIXT.1.1|9=55|35=0|34=892|49=PUBQA3|52=20180206-17:48:45.450|56=TRAX|10=138|8=FIXT.1.1|9=55|35=0|34=893|49=PUBQA3|52=20180206-17:49:16.451|56=TRAX|10=139|8=FIXT.1.1|9=55|35=0|34=894|49=PUBQA3|52=20180206-17:49:47.444|56=TRAX|10=146|8=FIXT.1.1|9=55|35=0|34=895|49=PUBQA3|52=20180206-17:50:17.450|56=TRAX|10=133|8=FIXT.1.1|9=55|35=0|34=896|49=PUBQA3|52=20180206-17:50:47.452|56=TRAX|10=139|8=FIXT.1.1|9=55|35=0|34=897|49=PUBQA3|52=20180206-17:51:18.455|56=TRAX|10=142|8=FIXT.1.1|9=55|35=0|34=898|49=PUBQA3|52=20180206-17:51:49.447|56=TRAX|10=148|8=FIXT.1.1|9=55|35=0|34=899|49=PUBQA3|52=20180206-17:52:19.455|56=TRAX|10=146|8=FIXT.1.1|9=55|35=0|34=900|49=PUBQA3|52=20180206-17:52:50.449|56=TRAX|10=127|8=FIXT.1.1|9=55|35=0|34=901|49=PUBQA3|52=20180206-17:53:21.451|56=TRAX|10=120|8=FIXT.1.1|9=55|35=0|34=902|49=PUBQA3|52=20180206-17:53:52.452|56=TRAX|10=126|8=FIXT.1.1|9=55|35=0|34=903|49=PUBQA3|52=20180206-17:54:22.458|56=TRAX|10=131|8=FIXT.1.1|9=55|35=0|34=904|49=PUBQA3|52=20180206-17:54:53.452|56=TRAX|10=130|8=FIXT.1.1|9=55|35=0|34=905|49=PUBQA3|52=20180206-17:55:24.459|56=TRAX|10=137|8=FIXT.1.1|9=55|35=0|34=906|49=PUBQA3|52=20180206-17:55:55.458|56=TRAX|10=141|8=FIXT.1.1|9=55|35=0|34=907|49=PUBQA3|52=20180206-17:56:26.460|56=TRAX|10=134|8=FIXT.1.1|9=55|35=0|34=908|49=PUBQA3|52=20180206-17:56:57.454|56=TRAX|10=142|8=FIXT.1.1|9=55|35=0|34=909|49=PUBQA3|52=20180206-17:57:27.461|56=TRAX|10=139|8=FIXT.1.1|9=55|35=0|34=910|49=PUBQA3|52=20180206-17:57:58.455|56=TRAX|10=138|8=FIXT.1.1|9=55|35=0|34=911|49=PUBQA3|52=20180206-17:58:28.460|56=TRAX|10=133|8=FIXT.1.1|9=55|35=0|34=912|49=PUBQA3|52=20180206-17:58:59.453|56=TRAX|10=140|8=FIXT.1.1|9=55|35=0|34=913|49=PUBQA3|52=20180206-17:59:29.458|56=TRAX|10=144|8=FIXT.1.1|9=55|35=0|34=914|49=PUBQA3|52=20180206-17:59:59.462|56=TRAX|10=143|8=FIXT.1.1|9=55|35=0|34=915|49=PUBQA3|52=20180206-18:00:30.457|56=TRAX|10=124|8=FIXT.1.1|9=55|35=0|34=916|49=PUBQA3|52=20180206-18:01:00.459|56=TRAX|10=125|8=FIXT.1.1|9=55|35=0|34=917|49=PUBQA3|52=20180206-18:01:30.462|56=TRAX|10=123|8=FIXT.1.1|9=55|35=0|34=918|49=PUBQA3|52=20180206-18:02:01.459|56=TRAX|10=129|8=FIXT.1.1|9=55|35=0|34=919|49=PUBQA3|52=20180206-18:02:31.465|56=TRAX|10=130|8=FIXT.1.1|9=55|35=0|34=920|49=PUBQA3|52=20180206-18:03:01.521|56=TRAX|10=113|8=FIXT.1.1|9=55|35=0|34=921|49=PUBQA3|52=20180206-18:03:31.528|56=TRAX|10=124|8=FIXT.1.1|9=55|35=0|34=922|49=PUBQA3|52=20180206-18:04:02.463|56=TRAX|10=122|8=FIXT.1.1|9=55|35=0|34=923|49=PUBQA3|52=20180206-18:04:32.463|56=TRAX|10=126|8=FIXT.1.1|9=55|35=0|34=924|49=PUBQA3|52=20180206-18:05:03.466|56=TRAX|10=129|8=FIXT.1.1|9=55|35=0|34=925|49=PUBQA3|52=20180206-18:05:34.461|56=TRAX|10=129|8=FIXT.1.1|9=55|35=0|34=926|49=PUBQA3|52=20180206-18:06:04.464|56=TRAX|10=131|8=FIXT.1.1|9=55|35=0|34=927|49=PUBQA3|52=20180206-18:06:34.466|56=TRAX|10=137|8=FIXT.1.1|9=55|35=0|34=928|49=PUBQA3|52=20180206-18:07:05.458|56=TRAX|10=138|8=FIXT.1.1|9=55|35=0|34=929|49=PUBQA3|52=20180206-18:07:35.466|56=TRAX|10=141|8=FIXT.1.1|9=55|35=0|34=930|49=PUBQA3|52=20180206-18:08:05.466|56=TRAX|10=131|8=FIXT.1.1|9=55|35=0|34=931|49=PUBQA3|52=20180206-18:08:36.464|56=TRAX|10=134|8=FIXT.1.1|9=55|35=0|34=932|49=PUBQA3|52=20180206-18:09:06.469|56=TRAX|10=138|8=FIXT.1.1|9=55|35=0|34=933|49=PUBQA3|52=20180206-18:09:37.468|56=TRAX|10=142|8=FIXT.1.1|9=55|35=0|34=934|49=PUBQA3|52=20180206-18:10:08.466|56=TRAX|10=131|8=FIXT.1.1|9=55|35=0|34=935|49=PUBQA3|52=20180206-18:10:38.471|56=TRAX|10=131|8=FIXT.1.1|9=55|35=0|34=936|49=PUBQA3|52=20180206-18:11:09.469|56=TRAX|10=138|8=FIXT.1.1|9=55|35=0|34=937|49=PUBQA3|52=20180206-18:11:39.471|56=TRAX|10=135|8=FIXT.1.1|9=55|35=0|34=938|49=PUBQA3|52=20180206-18:12:09.472|56=TRAX|10=135|8=FIXT.1.1|9=55|35=0|34=939|49=PUBQA3|52=20180206-18:12:40.473|56=TRAX|10=132|8=FIXT.1.1|9=55|35=0|34=940|49=PUBQA3|52=20180206-18:13:11.474|56=TRAX|10=124|8=FIXT.1.1|9=55|35=0|34=941|49=PUBQA3|52=20180206-18:13:41.476|56=TRAX|10=130|8=FIXT.1.1|9=55|35=0|34=942|49=PUBQA3|52=20180206-18:14:12.469|56=TRAX|10=132|8=FIXT.1.1|9=55|35=0|34=943|49=PUBQA3|52=20180206-18:14:42.478|56=TRAX|10=136|8=FIXT.1.1|9=55|35=0|34=944|49=PUBQA3|52=20180206-18:15:13.473|56=TRAX|10=131|8=FIXT.1.1|9=55|35=0|34=945|49=PUBQA3|52=20180206-18:15:44.477|56=TRAX|10=140|8=FIXT.1.1|9=55|35=0|34=946|49=PUBQA3|52=20180206-18:16:15.475|56=TRAX|10=138|8=FIXT.1.1|9=55|35=0|34=947|49=PUBQA3|52=20180206-18:16:45.475|56=TRAX|10=142|8=FIXT.1.1|9=55|35=0|34=948|49=PUBQA3|52=20180206-18:17:16.474|56=TRAX|10=141|8=FIXT.1.1|9=55|35=0|34=949|49=PUBQA3|52=20180206-18:17:46.480|56=TRAX|10=142|8=FIXT.1.1|9=55|35=0|34=950|49=PUBQA3|52=20180206-18:18:17.478|56=TRAX|10=140|8=FIXT.1.1|9=55|35=0|34=951|49=PUBQA3|52=20180206-18:18:48.474|56=TRAX|10=141|8=FIXT.1.1|9=55|35=0|34=952|49=PUBQA3|52=20180206-18:19:18.477|56=TRAX|10=143|8=FIXT.1.1|9=55|35=0|34=953|49=PUBQA3|52=20180206-18:19:48.478|56=TRAX|10=148|8=FIXT.1.1|9=55|35=0|34=954|49=PUBQA3|52=20180206-18:20:18.481|56=TRAX|10=132|8=FIXT.1.1|9=55|35=0|34=955|49=PUBQA3|52=20180206-18:20:48.481|56=TRAX|10=136|8=FIXT.1.1|9=55|35=0|34=956|49=PUBQA3|52=20180206-18:21:19.479|56=TRAX|10=143|8=FIXT.1.1|9=55|35=0|34=957|49=PUBQA3|52=20180206-18:21:50.480|56=TRAX|10=131|8=FIXT.1.1|9=55|35=0|34=958|49=PUBQA3|52=20180206-18:22:20.485|56=TRAX|10=135|8=FIXT.1.1|9=55|35=0|34=959|49=PUBQA3|52=20180206-18:22:51.483|56=TRAX|10=138|8=FIXT.1.1|9=55|35=0|34=960|49=PUBQA3|52=20180206-18:23:22.480|56=TRAX|10=126|8=FIXT.1.1|9=55|35=0|34=961|49=PUBQA3|52=20180206-18:23:52.484|56=TRAX|10=134|8=FIXT.1.1|9=55|35=0|34=962|49=PUBQA3|52=20180206-18:24:22.485|56=TRAX|10=134|8=FIXT.1.1|9=55|35=0|34=963|49=PUBQA3|52=20180206-18:24:53.483|56=TRAX|10=137|8=FIXT.1.1|9=55|35=0|34=964|49=PUBQA3|52=20180206-18:25:23.486|56=TRAX|10=139|8=FIXT.1.1|9=55|35=0|34=965|49=PUBQA3|52=20180206-18:25:53.487|56=TRAX|10=144|8=FIXT.1.1|9=55|35=0|34=966|49=PUBQA3|52=20180206-18:26:24.483|56=TRAX|10=140|8=FIXT.1.1|9=55|35=0|34=967|49=PUBQA3|52=20180206-18:26:54.486|56=TRAX|10=147|8=FIXT.1.1|9=55|35=0|34=968|49=PUBQA3|52=20180206-18:27:25.484|56=TRAX|10=145|8=FIXT.1.1|9=55|35=0|34=969|49=PUBQA3|52=20180206-18:27:55.489|56=TRAX|10=154|8=FIXT.1.1|9=55|35=0|34=970|49=PUBQA3|52=20180206-18:28:26.488|56=TRAX|10=144|8=FIXT.1.1|9=55|35=0|34=971|49=PUBQA3|52=20180206-18:28:57.491|56=TRAX|10=143|8=FIXT.1.1|9=55|35=0|34=972|49=PUBQA3|52=20180206-18:29:27.493|56=TRAX|10=144|8=FIXT.1.1|9=55|35=0|34=973|49=PUBQA3|52=20180206-18:29:57.494|56=TRAX|10=149|8=FIXT.1.1|9=55|35=0|34=974|49=PUBQA3|52=20180206-18:30:28.487|56=TRAX|10=142|8=FIXT.1.1|9=55|35=0|34=975|49=PUBQA3|52=20180206-18:30:58.488|56=TRAX|10=147|8=FIXT.1.1|9=55|35=0|34=976|49=PUBQA3|52=20180206-18:31:28.490|56=TRAX|10=139|8=FIXT.1.1|9=55|35=0|34=977|49=PUBQA3|52=20180206-18:31:59.487|56=TRAX|10=150|8=FIXT.1.1|9=55|35=0|34=978|49=PUBQA3|52=20180206-18:32:29.493|56=TRAX|10=146|8=FIXT.1.1|9=55|35=0|34=979|49=PUBQA3|52=20180206-18:32:59.495|56=TRAX|10=152|8=FIXT.1.1|9=55|35=0|34=980|49=PUBQA3|52=20180206-18:33:29.497|56=TRAX|10=144|8=FIXT.1.1|9=55|35=0|34=981|49=PUBQA3|52=20180206-18:34:00.494|56=TRAX|10=132|8=FIXT.1.1|9=55|35=0|34=982|49=PUBQA3|52=20180206-18:34:30.498|56=TRAX|10=140|8=FIXT.1.1|9=55|35=0|34=983|49=PUBQA3|52=20180206-18:35:00.498|56=TRAX|10=139|8=FIXT.1.1|9=55|35=0|34=984|49=PUBQA3|52=20180206-18:35:31.498|56=TRAX|10=144|8=FIXT.1.1|9=55|35=0|34=985|49=PUBQA3|52=20180206-18:36:01.555|56=TRAX|10=137|8=FIXT.1.1|9=55|35=0|34=986|49=PUBQA3|52=20180206-18:36:32.496|56=TRAX|10=146|8=FIXT.1.1|9=55|35=0|34=987|49=PUBQA3|52=20180206-18:37:02.497|56=TRAX|10=146|8=FIXT.1.1|9=55|35=0|34=988|49=PUBQA3|52=20180206-18:37:33.496|56=TRAX|10=150|8=FIXT.1.1|9=55|35=0|34=989|49=PUBQA3|52=20180206-18:38:03.496|56=TRAX|10=149|8=FIXT.1.1|9=55|35=0|34=990|49=PUBQA3|52=20180206-18:38:34.498|56=TRAX|10=147|8=FIXT.1.1|9=55|35=0|34=991|49=PUBQA3|52=20180206-18:39:04.501|56=TRAX|10=131|8=FIXT.1.1|9=55|35=0|34=992|49=PUBQA3|52=20180206-18:39:35.495|56=TRAX|10=148|8=FIXT.1.1|9=55|35=0|34=993|49=PUBQA3|52=20180206-18:40:05.496|56=TRAX|10=139|8=FIXT.1.1|9=55|35=0|34=994|49=PUBQA3|52=20180206-18:40:35.503|56=TRAX|10=132|8=FIXT.1.1|9=55|35=0|34=995|49=PUBQA3|52=20180206-18:41:06.496|56=TRAX|10=143|8=FIXT.1.1|9=55|35=0|34=996|49=PUBQA3|52=20180206-18:41:36.505|56=TRAX|10=138|8=FIXT.1.1|9=55|35=0|34=997|49=PUBQA3|52=20180206-18:42:07.506|56=TRAX|10=139|8=FIXT.1.1|9=55|35=0|34=998|49=PUBQA3|52=20180206-18:42:38.500|56=TRAX|10=138|8=FIXT.1.1|9=55|35=0|34=999|49=PUBQA3|52=20180206-18:43:09.499|56=TRAX|10=155|8=FIXT.1.1|9=56|35=0|34=1000|49=PUBQA3|52=20180206-18:43:40.498|56=TRAX|10=172|8=FIXT.1.1|9=56|35=0|34=1001|49=PUBQA3|52=20180206-18:44:10.502|56=TRAX|10=157|8=FIXT.1.1|9=56|35=0|34=1002|49=PUBQA3|52=20180206-18:44:40.502|56=TRAX|10=161|8=FIXT.1.1|9=56|35=0|34=1003|49=PUBQA3|52=20180206-18:45:10.505|56=TRAX|10=163|8=FIXT.1.1|9=56|35=0|34=1004|49=PUBQA3|52=20180206-18:45:40.508|56=TRAX|10=170|8=FIXT.1.1|9=56|35=0|34=1005|49=PUBQA3|52=20180206-18:46:11.507|56=TRAX|10=169|8=FIXT.1.1|9=56|35=0|34=1006|49=PUBQA3|52=20180206-18:46:42.502|56=TRAX|10=169|8=FIXT.1.1|9=56|35=0|34=1007|49=PUBQA3|52=20180206-18:47:12.502|56=TRAX|10=168|8=FIXT.1.1|9=56|35=0|34=1008|49=PUBQA3|52=20180206-18:47:42.506|56=TRAX|10=176|8=FIXT.1.1|9=56|35=0|34=1009|49=PUBQA3|52=20180206-18:48:13.495|56=TRAX|10=183|8=FIXT.1.1|9=56|35=0|34=1010|49=PUBQA3|52=20180206-18:48:43.505|56=TRAX|10=170|8=FIXT.1.1|9=56|35=0|34=1011|49=PUBQA3|52=20180206-18:49:13.508|56=TRAX|10=172|8=FIXT.1.1|9=56|35=0|34=1012|49=PUBQA3|52=20180206-18:49:43.514|56=TRAX|10=173|8=FIXT.1.1|9=56|35=0|34=1013|49=PUBQA3|52=20180206-18:50:14.511|56=TRAX|10=161|8=FIXT.1.1|9=56|35=0|34=1014|49=PUBQA3|52=20180206-18:50:45.507|56=TRAX|10=171|8=FIXT.1.1|9=56|35=0|34=1015|49=PUBQA3|52=20180206-18:51:15.512|56=TRAX|10=166|8=FIXT.1.1|9=56|35=0|34=1016|49=PUBQA3|52=20180206-18:51:46.497|56=TRAX|10=183|8=FIXT.1.1|9=56|35=0|34=1017|49=PUBQA3|52=20180206-18:52:16.511|56=TRAX|10=169|8=FIXT.1.1|9=56|35=0|34=1018|49=PUBQA3|52=20180206-18:52:47.509|56=TRAX|10=181|8=FIXT.1.1|9=56|35=0|34=1019|49=PUBQA3|52=20180206-18:53:18.509|56=TRAX|10=181|8=FIXT.1.1|9=56|35=0|34=1020|49=PUBQA3|52=20180206-18:53:48.515|56=TRAX|10=173|8=FIXT.1.1|9=56|35=0|34=1021|49=PUBQA3|52=20180206-18:54:19.509|56=TRAX|10=176|8=FIXT.1.1|9=56|35=0|34=1022|49=PUBQA3|52=20180206-18:54:49.518|56=TRAX|10=180|8=FIXT.1.1|9=56|35=0|34=1023|49=PUBQA3|52=20180206-18:55:20.510|56=TRAX|10=163|8=FIXT.1.1|9=56|35=0|34=1024|49=PUBQA3|52=20180206-18:55:50.518|56=TRAX|10=175|8=FIXT.1.1|9=56|35=0|34=1025|49=PUBQA3|52=20180206-18:56:21.511|56=TRAX|10=168|8=FIXT.1.1|9=56|35=0|34=1026|49=PUBQA3|52=20180206-18:56:51.518|56=TRAX|10=179|8=FIXT.1.1|9=56|35=0|34=1027|49=PUBQA3|52=20180206-18:57:21.518|56=TRAX|10=178|8=FIXT.1.1|9=56|35=0|34=1028|49=PUBQA3|52=20180206-18:57:52.521|56=TRAX|10=177|8=FIXT.1.1|9=56|35=0|34=1029|49=PUBQA3|52=20180206-18:58:23.515|56=TRAX|10=180|8=FIXT.1.1|9=56|35=0|34=1030|49=PUBQA3|52=20180206-18:58:53.518|56=TRAX|10=178|8=FIXT.1.1|9=56|35=0|34=1031|49=PUBQA3|52=20180206-18:59:24.517|56=TRAX|10=177|8=FIXT.1.1|9=56|35=0|34=1032|49=PUBQA3|52=20180206-18:59:54.517|56=TRAX|10=181|8=FIXT.1.1|9=56|35=0|34=1033|49=PUBQA3|52=20180206-19:00:24.518|56=TRAX|10=167|8=FIXT.1.1|9=56|35=0|34=1034|49=PUBQA3|52=20180206-19:00:54.518|56=TRAX|10=171|8=FIXT.1.1|9=56|35=0|34=1035|49=PUBQA3|52=20180206-19:01:24.525|56=TRAX|10=168|8=FIXT.1.1|9=56|35=0|34=1036|49=PUBQA3|52=20180206-19:01:55.517|56=TRAX|10=174|8=FIXT.1.1|9=56|35=0|34=1037|49=PUBQA3|52=20180206-19:02:25.518|56=TRAX|10=174|8=FIXT.1.1|9=56|35=0|34=1038|49=PUBQA3|52=20180206-19:02:55.521|56=TRAX|10=172|8=FIXT.1.1|9=56|35=0|34=1039|49=PUBQA3|52=20180206-19:03:25.527|56=TRAX|10=177|8=FIXT.1.1|9=56|35=0|34=1040|49=PUBQA3|52=20180206-19:03:56.523|56=TRAX|10=169|8=FIXT.1.1|9=56|35=0|34=1041|49=PUBQA3|52=20180206-19:04:27.525|56=TRAX|10=171|8=FIXT.1.1|9=56|35=0|34=1042|49=PUBQA3|52=20180206-19:04:58.523|56=TRAX|10=174|8=FIXT.1.1|9=56|35=0|34=1043|49=PUBQA3|52=20180206-19:05:28.525|56=TRAX|10=175|8=FIXT.1.1|9=56|35=0|34=1044|49=PUBQA3|52=20180206-19:05:58.528|56=TRAX|10=182|8=FIXT.1.1|9=56|35=0|34=1045|49=PUBQA3|52=20180206-19:06:29.522|56=TRAX|10=176|8=FIXT.1.1|9=56|35=0|34=1046|49=PUBQA3|52=20180206-19:06:59.523|56=TRAX|10=181|8=FIXT.1.1|9=56|35=0|34=1047|49=PUBQA3|52=20180206-19:07:29.527|56=TRAX|10=184|8=FIXT.1.1|9=56|35=0|34=1048|49=PUBQA3|52=20180206-19:08:00.525|56=TRAX|10=173|8=FIXT.1.1|9=56|35=0|34=1049|49=PUBQA3|52=20180206-19:08:30.525|56=TRAX|10=177|8=FIXT.1.1|9=56|35=0|34=1050|49=PUBQA3|52=20180206-19:09:00.530|56=TRAX|10=163|8=FIXT.1.1|9=56|35=0|34=1051|49=PUBQA3|52=20180206-19:09:31.527|56=TRAX|10=174|8=FIXT.1.1|9=56|35=0|34=1052|49=PUBQA3|52=20180206-19:10:01.544|56=TRAX|10=163|8=FIXT.1.1|9=56|35=0|34=1053|49=PUBQA3|52=20180206-19:10:31.557|56=TRAX|10=171|8=FIXT.1.1|9=56|35=0|34=1054|49=PUBQA3|52=20180206-19:11:01.559|56=TRAX|10=172|8=FIXT.1.1|9=56|35=0|34=1055|49=PUBQA3|52=20180206-19:11:31.560|56=TRAX|10=168|8=FIXT.1.1|9=56|35=0|34=1056|49=PUBQA3|52=20180206-19:12:01.574|56=TRAX|10=172|8=FIXT.1.1|9=56|35=0|34=1057|49=PUBQA3|52=20180206-19:12:32.528|56=TRAX|10=176|8=FIXT.1.1|9=56|35=0|34=1058|49=PUBQA3|52=20180206-19:13:02.534|56=TRAX|10=172|8=FIXT.1.1|9=56|35=0|34=1059|49=PUBQA3|52=20180206-19:13:33.529|56=TRAX|10=181|8=FIXT.1.1|9=56|35=0|34=1060|49=PUBQA3|52=20180206-19:14:03.533|56=TRAX|10=166|8=FIXT.1.1|9=56|35=0|34=1061|49=PUBQA3|52=20180206-19:14:34.535|56=TRAX|10=173|8=FIXT.1.1|9=56|35=0|34=1062|49=PUBQA3|52=20180206-19:15:05.539|56=TRAX|10=177|8=FIXT.1.1|9=56|35=0|34=1063|49=PUBQA3|52=20180206-19:15:36.535|56=TRAX|10=178|8=FIXT.1.1|9=56|35=0|34=1064|49=PUBQA3|52=20180206-19:16:07.532|56=TRAX|10=175|8=FIXT.1.1|9=56|35=0|34=1065|49=PUBQA3|52=20180206-19:16:37.539|56=TRAX|10=186|8=FIXT.1.1|9=56|35=0|34=1066|49=PUBQA3|52=20180206-19:17:07.539|56=TRAX|10=185|8=FIXT.1.1|9=56|35=0|34=1067|49=PUBQA3|52=20180206-19:17:38.542|56=TRAX|10=184|8=FIXT.1.1|9=56|35=0|34=1068|49=PUBQA3|52=20180206-19:18:09.540|56=TRAX|10=182|8=FIXT.1.1|9=56|35=0|34=1069|49=PUBQA3|52=20180206-19:18:39.540|56=TRAX|10=186|8=FIXT.1.1|9=56|35=0|34=1070|49=PUBQA3|52=20180206-19:19:10.538|56=TRAX|10=175|8=FIXT.1.1|9=56|35=0|34=1071|49=PUBQA3|52=20180206-19:19:40.542|56=TRAX|10=174|8=FIXT.1.1|9=56|35=0|34=1072|49=PUBQA3|52=20180206-19:20:11.539|56=TRAX|10=171|8=FIXT.1.1|9=56|35=0|34=1073|49=PUBQA3|52=20180206-19:20:41.540|56=TRAX|10=167|8=FIXT.1.1|9=56|35=0|34=1074|49=PUBQA3|52=20180206-19:21:11.543|56=TRAX|10=169|8=FIXT.1.1|9=56|35=0|34=1075|49=PUBQA3|52=20180206-19:21:42.541|56=TRAX|10=172|8=FIXT.1.1|9=56|35=0|34=1076|49=PUBQA3|52=20180206-19:22:13.539|56=TRAX|10=179|8=FIXT.1.1|9=56|35=0|34=1077|49=PUBQA3|52=20180206-19:22:43.539|56=TRAX|10=183|8=FIXT.1.1|9=56|35=0|34=1078|49=PUBQA3|52=20180206-19:23:13.546|56=TRAX|10=180|8=FIXT.1.1|9=56|35=0|34=1079|49=PUBQA3|52=20180206-19:23:44.541|56=TRAX|10=180|8=FIXT.1.1|9=56|35=0|34=1080|49=PUBQA3|52=20180206-19:24:14.546|56=TRAX|10=175|8=FIXT.1.1|9=56|35=0|34=1081|49=PUBQA3|52=20180206-19:24:45.540|56=TRAX|10=174|8=FIXT.1.1|9=56|35=0|34=1082|49=PUBQA3|52=20180206-19:25:15.544|56=TRAX|10=177|8=FIXT.1.1|9=56|35=0|34=1083|49=PUBQA3|52=20180206-19:25:45.545|56=TRAX|10=182|8=FIXT.1.1|9=56|35=0|34=1084|49=PUBQA3|52=20180206-19:26:15.549|56=TRAX|10=185|8=FIXT.1.1|9=56|35=0|34=1085|49=PUBQA3|52=20180206-19:26:46.544|56=TRAX|10=185|8=FIXT.1.1|9=56|35=0|34=1086|49=PUBQA3|52=20180206-19:27:16.547|56=TRAX|10=187|8=FIXT.1.1|9=56|35=0|34=1087|49=PUBQA3|52=20180206-19:27:46.550|56=TRAX|10=185|8=FIXT.1.1|9=56|35=0|34=1088|49=PUBQA3|52=20180206-19:28:17.544|56=TRAX|10=188|8=FIXT.1.1|9=56|35=0|34=1089|49=PUBQA3|52=20180206-19:28:47.545|56=TRAX|10=193|8=FIXT.1.1|9=56|35=0|34=1090|49=PUBQA3|52=20180206-19:29:17.546|56=TRAX|10=184|8=FIXT.1.1|9=56|35=0|34=1091|49=PUBQA3|52=20180206-19:29:47.552|56=TRAX|10=185|8=FIXT.1.1|9=56|35=0|34=1092|49=PUBQA3|52=20180206-19:30:17.554|56=TRAX|10=177|8=FIXT.1.1|9=56|35=0|34=1093|49=PUBQA3|52=20180206-19:30:47.555|56=TRAX|10=182|8=FIXT.1.1|9=56|35=0|34=1094|49=PUBQA3|52=20180206-19:31:17.555|56=TRAX|10=181|8=FIXT.1.1|9=56|35=0|34=1095|49=PUBQA3|52=20180206-19:31:48.551|56=TRAX|10=182|8=FIXT.1.1|9=56|35=0|34=1096|49=PUBQA3|52=20180206-19:32:18.551|56=TRAX|10=181|8=FIXT.1.1|9=56|35=0|34=1097|49=PUBQA3|52=20180206-19:32:48.553|56=TRAX|10=187|8=FIXT.1.1|9=56|35=0|34=1098|49=PUBQA3|52=20180206-19:33:19.557|56=TRAX|10=191|8=FIXT.1.1|9=56|35=0|34=1099|49=PUBQA3|52=20180206-19:33:50.554|56=TRAX|10=184|8=FIXT.1.1|9=56|35=0|34=1100|49=PUBQA3|52=20180206-19:34:21.550|56=TRAX|10=162|8=FIXT.1.1|9=56|35=0|34=1101|49=PUBQA3|52=20180206-19:34:51.553|56=TRAX|10=169|8=FIXT.1.1|9=56|35=0|34=1102|49=PUBQA3|52=20180206-19:35:22.552|56=TRAX|10=168|8=FIXT.1.1|9=56|35=0|34=1103|49=PUBQA3|52=20180206-19:35:52.559|56=TRAX|10=179|8=FIXT.1.1|9=56|35=0|34=1104|49=PUBQA3|52=20180206-19:36:22.559|56=TRAX|10=178|8=FIXT.1.1|9=56|35=0|34=1105|49=PUBQA3|52=20180206-19:36:53.535|56=TRAX|10=177|8=FIXT.1.1|9=56|35=0|34=1106|49=PUBQA3|52=20180206-19:37:23.558|56=TRAX|10=181|8=FIXT.1.1|9=56|35=0|34=1107|49=PUBQA3|52=20180206-19:37:53.559|56=TRAX|10=186|8=FIXT.1.1|9=56|35=0|34=1108|49=PUBQA3|52=20180206-19:38:23.559|56=TRAX|10=185|8=FIXT.1.1|9=56|35=0|34=1109|49=PUBQA3|52=20180206-19:38:54.563|56=TRAX|10=185|8=FIXT.1.1|9=56|35=0|34=1110|49=PUBQA3|52=20180206-19:39:25.562|56=TRAX|10=175|8=FIXT.1.1|9=56|35=0|34=1111|49=PUBQA3|52=20180206-19:39:55.563|56=TRAX|10=180|8=FIXT.1.1|9=56|35=0|34=1112|49=PUBQA3|52=20180206-19:40:26.564|56=TRAX|10=172|8=FIXT.1.1|9=56|35=0|34=1113|49=PUBQA3|52=20180206-19:40:56.565|56=TRAX|10=177|8=FIXT.1.1|9=56|35=0|34=1114|49=PUBQA3|52=20180206-19:41:27.563|56=TRAX|10=175|8=FIXT.1.1|9=56|35=0|34=1115|49=PUBQA3|52=20180206-19:41:58.562|56=TRAX|10=179|8=FIXT.1.1|9=56|35=0|34=1116|49=PUBQA3|52=20180206-19:42:28.564|56=TRAX|10=180|8=FIXT.1.1|9=56|35=0|34=1117|49=PUBQA3|52=20180206-19:42:59.565|56=TRAX|10=186|8=FIXT.1.1|9=56|35=0|34=1118|49=PUBQA3|52=20180206-19:43:30.560|56=TRAX|10=172|8=FIXT.1.1|9=56|35=0|34=1119|49=PUBQA3|52=20180206-19:44:00.560|56=TRAX|10=171|8=FIXT.1.1|9=56|35=0|34=1120|49=PUBQA3|52=20180206-19:44:30.561|56=TRAX|10=167|8=FIXT.1.1|9=56|35=0|34=1121|49=PUBQA3|52=20180206-19:45:00.561|56=TRAX|10=166|8=FIXT.1.1|9=56|35=0|34=1122|49=PUBQA3|52=20180206-19:45:30.568|56=TRAX|10=177|8=FIXT.1.1|9=56|35=0|34=1123|49=PUBQA3|52=20180206-19:46:01.570|56=TRAX|10=170|8=FIXT.1.1|9=56|35=0|34=1124|49=PUBQA3|52=20180206-19:46:32.569|56=TRAX|10=183|8=FIXT.1.1|9=56|35=0|34=1125|49=PUBQA3|52=20180206-19:47:03.562|56=TRAX|10=176|8=FIXT.1.1|9=56|35=0|34=1126|49=PUBQA3|52=20180206-19:47:33.571|56=TRAX|10=180|8=FIXT.1.1|9=56|35=0|34=1127|49=PUBQA3|52=20180206-19:48:04.571|56=TRAX|10=180|8=FIXT.1.1|9=56|35=0|34=1128|49=PUBQA3|52=20180206-19:48:35.559|56=TRAX|10=191|8=FIXT.1.1|9=56|35=0|34=1129|49=PUBQA3|52=20180206-19:49:05.565|56=TRAX|10=187|8=FIXT.1.1|9=56|35=0|34=1130|49=PUBQA3|52=20180206-19:49:36.567|56=TRAX|10=185|8=FIXT.1.1|9=56|35=0|34=1131|49=PUBQA3|52=20180206-19:50:06.568|56=TRAX|10=176|8=FIXT.1.1|9=56|35=0|34=1132|49=PUBQA3|52=20180206-19:50:36.570|56=TRAX|10=173|8=FIXT.1.1|9=56|35=0|34=1133|49=PUBQA3|52=20180206-19:51:07.567|56=TRAX|10=179|8=FIXT.1.1|9=56|35=0|34=1134|49=PUBQA3|52=20180206-19:51:37.572|56=TRAX|10=179|8=FIXT.1.1|9=56|35=0|34=1135|49=PUBQA3|52=20180206-19:52:07.575|56=TRAX|10=181|8=FIXT.1.1|9=56|35=0|34=1136|49=PUBQA3|52=20180206-19:52:38.575|56=TRAX|10=186|8=FIXT.1.1|9=56|35=0|34=1137|49=PUBQA3|52=20180206-19:53:08.576|56=TRAX|10=186|8=FIXT.1.1|9=56|35=0|34=1138|49=PUBQA3|52=20180206-19:53:39.559|56=TRAX|10=192|8=FIXT.1.1|9=56|35=0|34=1139|49=PUBQA3|52=20180206-19:54:09.575|56=TRAX|10=189|8=FIXT.1.1|9=56|35=0|34=1140|49=PUBQA3|52=20180206-19:54:39.578|56=TRAX|10=187|8=FIXT.1.1|9=56|35=0|34=1141|49=PUBQA3|52=20180206-19:55:10.572|56=TRAX|10=172|8=FIXT.1.1|9=56|35=0|34=1142|49=PUBQA3|52=20180206-19:55:40.577|56=TRAX|10=181|8=FIXT.1.1|9=56|35=0|34=1143|49=PUBQA3|52=20180206-19:56:11.578|56=TRAX|10=182|8=FIXT.1.1|9=56|35=0|34=1144|49=PUBQA3|52=20180206-19:56:42.564|56=TRAX|10=182|8=FIXT.1.1|9=56|35=0|34=1145|49=PUBQA3|52=20180206-19:57:12.577|56=TRAX|10=185|8=FIXT.1.1|9=56|35=0|34=1146|49=PUBQA3|52=20180206-19:57:43.580|56=TRAX|10=184|8=FIXT.1.1|9=56|35=0|34=1147|49=PUBQA3|52=20180206-19:58:14.579|56=TRAX|10=192|8=FIXT.1.1|9=56|35=0|34=1148|49=PUBQA3|52=20180206-19:58:45.577|56=TRAX|10=195|8=FIXT.1.1|9=56|35=0|34=1149|49=PUBQA3|52=20180206-19:59:15.581|56=TRAX|10=189|8=FIXT.1.1|9=56|35=0|34=1150|49=PUBQA3|52=20180206-19:59:46.577|56=TRAX|10=190|8=FIXT.1.1|9=56|35=0|34=1151|49=PUBQA3|52=20180206-20:00:16.579|56=TRAX|10=168|8=FIXT.1.1|9=56|35=0|34=1152|49=PUBQA3|52=20180206-20:00:47.585|56=TRAX|10=170|8=FIXT.1.1|9=56|35=0|34=1153|49=PUBQA3|52=20180206-20:01:18.584|56=TRAX|10=169|8=FIXT.1.1|9=56|35=0|34=1154|49=PUBQA3|52=20180206-20:01:49.576|56=TRAX|10=175|8=FIXT.1.1|9=56|35=0|34=1155|49=PUBQA3|52=20180206-20:02:19.577|56=TRAX|10=175|8=FIXT.1.1|9=56|35=0|34=1156|49=PUBQA3|52=20180206-20:02:49.582|56=TRAX|10=175|8=FIXT.1.1|9=56|35=0|34=1157|49=PUBQA3|52=20180206-20:03:19.583|56=TRAX|10=175|8=FIXT.1.1|9=56|35=0|34=1158|49=PUBQA3|52=20180206-20:03:49.586|56=TRAX|10=182|8=FIXT.1.1|9=56|35=0|34=1159|49=PUBQA3|52=20180206-20:04:20.586|56=TRAX|10=173|8=FIXT.1.1|9=56|35=0|34=1160|49=PUBQA3|52=20180206-20:04:51.581|56=TRAX|10=164|8=FIXT.1.1|9=56|35=0|34=1161|49=PUBQA3|52=20180206-20:05:21.585|56=TRAX|10=167|8=FIXT.1.1|9=56|35=0|34=1162|49=PUBQA3|52=20180206-20:05:52.583|56=TRAX|10=170|8=FIXT.1.1|9=56|35=0|34=1163|49=PUBQA3|52=20180206-20:06:22.584|56=TRAX|10=170|8=FIXT.1.1|9=56|35=0|34=1164|49=PUBQA3|52=20180206-20:06:53.582|56=TRAX|10=173|8=FIXT.1.1|9=56|35=0|34=1165|49=PUBQA3|52=20180206-20:07:23.592|56=TRAX|10=173|8=FIXT.1.1|9=56|35=0|34=1166|49=PUBQA3|52=20180206-20:07:54.589|56=TRAX|10=184|8=FIXT.1.1|9=56|35=0|34=1167|49=PUBQA3|52=20180206-20:08:25.584|56=TRAX|10=179|8=FIXT.1.1|9=56|35=0|34=1168|49=PUBQA3|52=20180206-20:08:55.590|56=TRAX|10=180|8=FIXT.1.1|9=56|35=0|34=1169|49=PUBQA3|52=20180206-20:09:26.593|56=TRAX|10=183|8=FIXT.1.1|9=56|35=0|34=1170|49=PUBQA3|52=20180206-20:09:57.590|56=TRAX|10=176|8=FIXT.1.1|9=56|35=0|34=1171|49=PUBQA3|52=20180206-20:10:27.593|56=TRAX|10=169|8=FIXT.1.1|9=56|35=0|34=1172|49=PUBQA3|52=20180206-20:10:58.586|56=TRAX|10=176|8=FIXT.1.1|9=56|35=0|34=1173|49=PUBQA3|52=20180206-20:11:28.588|56=TRAX|10=177|8=FIXT.1.1|9=56|35=0|34=1174|49=PUBQA3|52=20180206-20:11:58.594|56=TRAX|10=178|8=FIXT.1.1|9=56|35=0|34=1175|49=PUBQA3|52=20180206-20:12:29.592|56=TRAX|10=176|8=FIXT.1.1|9=56|35=0|34=1176|49=PUBQA3|52=20180206-20:13:00.589|56=TRAX|10=173|8=FIXT.1.1|9=56|35=0|34=1177|49=PUBQA3|52=20180206-20:13:31.578|56=TRAX|10=176|8=FIXT.1.1|9=56|35=0|34=1178|49=PUBQA3|52=20180206-20:14:01.592|56=TRAX|10=171|8=FIXT.1.1|9=56|35=0|34=1179|49=PUBQA3|52=20180206-20:14:32.593|56=TRAX|10=177|8=FIXT.1.1|9=56|35=0|34=1180|49=PUBQA3|52=20180206-20:15:02.597|56=TRAX|10=171|8=FIXT.1.1|9=56|35=0|34=1181|49=PUBQA3|52=20180206-20:15:33.596|56=TRAX|10=175|8=FIXT.1.1|9=56|35=0|34=1182|49=PUBQA3|52=20180206-20:16:04.598|56=TRAX|10=177|8=FIXT.1.1|9=56|35=0|34=1183|49=PUBQA3|52=20180206-20:16:35.594|56=TRAX|10=178|8=FIXT.1.1|9=56|35=0|34=1184|49=PUBQA3|52=20180206-20:17:05.597|56=TRAX|10=180|8=FIXT.1.1|9=56|35=0|34=1185|49=PUBQA3|52=20180206-20:17:36.593|56=TRAX|10=181|8=FIXT.1.1|9=56|35=0|34=1186|49=PUBQA3|52=20180206-20:18:06.601|56=TRAX|10=170|8=FIXT.1.1|9=56|35=0|34=1187|49=PUBQA3|52=20180206-20:18:36.603|56=TRAX|10=176|8=FIXT.1.1|9=56|35=0|34=1188|49=PUBQA3|52=20180206-20:19:07.597|56=TRAX|10=188|8=FIXT.1.1|9=56|35=0|34=1189|49=PUBQA3|52=20180206-20:19:38.597|56=TRAX|10=193|8=FIXT.1.1|9=56|35=0|34=1190|49=PUBQA3|52=20180206-20:20:08.598|56=TRAX|10=175|8=FIXT.1.1|9=56|35=0|34=1191|49=PUBQA3|52=20180206-20:20:38.605|56=TRAX|10=168|8=FIXT.1.1|9=56|35=0|34=1192|49=PUBQA3|52=20180206-20:21:09.601|56=TRAX|10=164|8=FIXT.1.1|9=56|35=0|34=1193|49=PUBQA3|52=20180206-20:21:40.605|56=TRAX|10=164|8=FIXT.1.1|9=56|35=0|34=1194|49=PUBQA3|52=20180206-20:22:11.600|56=TRAX|10=159|8=FIXT.1.1|9=56|35=0|34=1195|49=PUBQA3|52=20180206-20:22:41.607|56=TRAX|10=170|8=FIXT.1.1|9=56|35=0|34=1196|49=PUBQA3|52=20180206-20:23:12.602|56=TRAX|10=165|8=FIXT.1.1|9=56|35=0|34=1197|49=PUBQA3|52=20180206-20:23:43.599|56=TRAX|10=185|8=FIXT.1.1|9=56|35=0|34=1198|49=PUBQA3|52=20180206-20:24:13.602|56=TRAX|10=169|8=FIXT.1.1|9=56|35=0|34=1199|49=PUBQA3|52=20180206-20:24:43.606|56=TRAX|10=177|8=FIXT.1.1|9=56|35=0|34=1200|49=PUBQA3|52=20180206-20:25:13.609|56=TRAX|10=161|8=FIXT.1.1|9=56|35=0|34=1201|49=PUBQA3|52=20180206-20:25:44.601|56=TRAX|10=158|8=FIXT.1.1|9=56|35=0|34=1202|49=PUBQA3|52=20180206-20:26:15.610|56=TRAX|10=158|8=FIXT.1.1|9=56|35=0|34=1203|49=PUBQA3|52=20180206-20:26:46.608|56=TRAX|10=170|8=FIXT.1.1|9=56|35=0|34=1204|49=PUBQA3|52=20180206-20:27:16.611|56=TRAX|10=163|8=FIXT.1.1|9=56|35=0|34=1205|49=PUBQA3|52=20180206-20:27:47.606|56=TRAX|10=172|8=FIXT.1.1|9=56|35=0|34=1206|49=PUBQA3|52=20180206-20:28:18.604|56=TRAX|10=170|8=FIXT.1.1|9=56|35=0|34=1207|49=PUBQA3|52=20180206-20:28:48.613|56=TRAX|10=174|8=FIXT.1.1|9=56|35=0|34=1208|49=PUBQA3|52=20180206-20:29:18.613|56=TRAX|10=173|8=FIXT.1.1|9=56|35=0|34=1209|49=PUBQA3|52=20180206-20:29:49.608|56=TRAX|10=182|8=FIXT.1.1|9=56|35=0|34=1210|49=PUBQA3|52=20180206-20:30:20.611|56=TRAX|10=149|8=FIXT.1.1|9=56|35=0|34=1211|49=PUBQA3|52=20180206-20:30:51.610|56=TRAX|10=153|8=FIXT.1.1|9=56|35=0|34=1212|49=PUBQA3|52=20180206-20:31:22.614|56=TRAX|10=157|8=FIXT.1.1|9=56|35=0|34=1213|49=PUBQA3|52=20180206-20:31:52.614|56=TRAX|10=161|8=FIXT.1.1|9=56|35=0|34=1214|49=PUBQA3|52=20180206-20:32:23.612|56=TRAX|10=159|8=FIXT.1.1|9=56|35=0|34=1215|49=PUBQA3|52=20180206-20:32:54.610|56=TRAX|10=162|8=FIXT.1.1|9=56|35=0|34=1216|49=PUBQA3|52=20180206-20:33:25.611|56=TRAX|10=163|8=FIXT.1.1|9=56|35=0|34=1217|49=PUBQA3|52=20180206-20:33:55.616|56=TRAX|10=172|8=FIXT.1.1|9=56|35=0|34=1218|49=PUBQA3|52=20180206-20:34:26.617|56=TRAX|10=173|8=FIXT.1.1|9=56|35=0|34=1219|49=PUBQA3|52=20180206-20:34:57.615|56=TRAX|10=176|8=FIXT.1.1|9=56|35=0|34=1220|49=PUBQA3|52=20180206-20:35:27.618|56=TRAX|10=169|8=FIXT.1.1|9=56|35=0|34=1221|49=PUBQA3|52=20180206-20:35:58.617|56=TRAX|10=173|8=FIXT.1.1|9=56|35=0|34=1222|49=PUBQA3|52=20180206-20:36:28.618|56=TRAX|10=173|8=FIXT.1.1|9=56|35=0|34=1223|49=PUBQA3|52=20180206-20:36:59.614|56=TRAX|10=174|8=FIXT.1.1|9=56|35=0|34=1224|49=PUBQA3|52=20180206-20:37:29.616|56=TRAX|10=175|8=FIXT.1.1|9=56|35=0|34=1225|49=PUBQA3|52=20180206-20:37:59.617|56=TRAX|10=180|8=FIXT.1.1|9=56|35=0|34=1226|49=PUBQA3|52=20180206-20:38:30.615|56=TRAX|10=169|8=FIXT.1.1|9=56|35=0|34=1227|49=PUBQA3|52=20180206-20:39:00.620|56=TRAX|10=164|8=FIXT.1.1|9=56|35=0|34=1228|49=PUBQA3|52=20180206-20:39:31.598|56=TRAX|10=183|8=FIXT.1.1|9=56|35=0|34=1229|49=PUBQA3|52=20180206-20:40:01.615|56=TRAX|10=163|8=FIXT.1.1|9=56|35=0|34=1230|49=PUBQA3|52=20180206-20:40:31.624|56=TRAX|10=158|8=FIXT.1.1|9=56|35=0|34=1231|49=PUBQA3|52=20180206-20:41:02.623|56=TRAX|10=157|8=FIXT.1.1|9=56|35=0|34=1232|49=PUBQA3|52=20180206-20:41:32.625|56=TRAX|10=163|8=FIXT.1.1|9=56|35=0|34=1233|49=PUBQA3|52=20180206-20:42:03.623|56=TRAX|10=161|8=FIXT.1.1|9=56|35=0|34=1234|49=PUBQA3|52=20180206-20:42:33.623|56=TRAX|10=165|8=FIXT.1.1|9=56|35=0|34=1235|49=PUBQA3|52=20180206-20:43:04.622|56=TRAX|10=164|8=FIXT.1.1|9=56|35=0|34=1236|49=PUBQA3|52=20180206-20:43:34.627|56=TRAX|10=173|8=FIXT.1.1|9=56|35=0|34=1237|49=PUBQA3|52=20180206-20:44:05.622|56=TRAX|10=168|8=FIXT.1.1|9=56|35=0|34=1238|49=PUBQA3|52=20180206-20:44:35.623|56=TRAX|10=173|8=FIXT.1.1|9=56|35=0|34=1239|49=PUBQA3|52=20180206-20:45:06.626|56=TRAX|10=176|8=FIXT.1.1|9=56|35=0|34=1240|49=PUBQA3|52=20180206-20:45:37.625|56=TRAX|10=171|8=FIXT.1.1|9=56|35=0|34=1241|49=PUBQA3|52=20180206-20:46:07.625|56=TRAX|10=170|8=FIXT.1.1|9=56|35=0|34=1242|49=PUBQA3|52=20180206-20:46:37.628|56=TRAX|10=177|8=FIXT.1.1|9=56|35=0|34=1243|49=PUBQA3|52=20180206-20:47:08.630|56=TRAX|10=170|8=FIXT.1.1|9=56|35=0|34=1244|49=PUBQA3|52=20180206-20:47:39.629|56=TRAX|10=183|8=FIXT.1.1|9=56|35=0|34=1245|49=PUBQA3|52=20180206-20:48:09.631|56=TRAX|10=175|8=FIXT.1.1|9=56|35=0|34=1246|49=PUBQA3|52=20180206-20:48:39.631|56=TRAX|10=179|8=FIXT.1.1|9=56|35=0|34=1247|49=PUBQA3|52=20180206-20:49:10.632|56=TRAX|10=171|8=FIXT.1.1|9=56|35=0|34=1248|49=PUBQA3|52=20180206-20:49:41.625|56=TRAX|10=178|8=FIXT.1.1|9=56|35=0|34=1249|49=PUBQA3|52=20180206-20:50:11.630|56=TRAX|10=164|8=FIXT.1.1|9=56|35=0|34=1250|49=PUBQA3|52=20180206-20:50:41.631|56=TRAX|10=160|8=FIXT.1.1|9=56|35=0|34=1251|49=PUBQA3|52=20180206-20:51:12.628|56=TRAX|10=166|8=FIXT.1.1|9=56|35=0|34=1252|49=PUBQA3|52=20180206-20:51:42.633|56=TRAX|10=166|8=FIXT.1.1|9=56|35=0|34=1253|49=PUBQA3|52=20180206-20:52:13.628|56=TRAX|10=170|8=FIXT.1.1|9=56|35=0|34=1254|49=PUBQA3|52=20180206-20:52:43.632|56=TRAX|10=169|8=FIXT.1.1|9=56|35=0|34=1255|49=PUBQA3|52=20180206-20:53:13.633|56=TRAX|10=169|8=FIXT.1.1|9=56|35=0|34=1256|49=PUBQA3|52=20180206-20:53:43.638|56=TRAX|10=178|8=FIXT.1.1|9=56|35=0|34=1257|49=PUBQA3|52=20180206-20:54:14.635|56=TRAX|10=175|8=FIXT.1.1|9=56|35=0|34=1258|49=PUBQA3|52=20180206-20:54:45.632|56=TRAX|10=177|8=FIXT.1.1|9=56|35=0|34=1259|49=PUBQA3|52=20180206-20:55:15.635|56=TRAX|10=179|8=FIXT.1.1|9=56|35=0|34=1260|49=PUBQA3|52=20180206-20:55:46.636|56=TRAX|10=176|8=FIXT.1.1|9=56|35=0|34=1261|49=PUBQA3|52=20180206-20:56:16.639|56=TRAX|10=178|8=FIXT.1.1|9=56|35=0|34=1262|49=PUBQA3|52=20180206-20:56:46.640|56=TRAX|10=174|8=FIXT.1.1|9=56|35=0|34=1263|49=PUBQA3|52=20180206-20:57:17.632|56=TRAX|10=175|8=FIXT.1.1|9=56|35=0|34=1264|49=PUBQA3|52=20180206-20:57:47.636|56=TRAX|10=183|8=FIXT.1.1|9=56|35=0|34=1265|49=PUBQA3|52=20180206-20:58:18.636|56=TRAX|10=183|8=FIXT.1.1|9=56|35=0|34=1266|49=PUBQA3|52=20180206-20:58:49.637|56=TRAX|10=189|8=FIXT.1.1|9=56|35=0|34=1267|49=PUBQA3|52=20180206-20:59:19.639|56=TRAX|10=190|8=FIXT.1.1|9=56|35=0|34=1268|49=PUBQA3|52=20180206-20:59:50.639|56=TRAX|10=186|8=FIXT.1.1|9=56|35=0|34=1269|49=PUBQA3|52=20180206-21:00:20.642|56=TRAX|10=165|8=FIXT.1.1|9=56|35=0|34=1270|49=PUBQA3|52=20180206-21:00:51.645|56=TRAX|10=164|8=FIXT.1.1|9=56|35=0|34=1271|49=PUBQA3|52=20180206-21:01:22.638|56=TRAX|10=166|8=FIXT.1.1|9=56|35=0|34=1272|49=PUBQA3|52=20180206-21:01:52.646|56=TRAX|10=169|8=FIXT.1.1|9=56|35=0|34=1273|49=PUBQA3|52=20180206-21:02:22.646|56=TRAX|10=168|8=FIXT.1.1|9=56|35=0|34=1274|49=PUBQA3|52=20180206-21:02:53.645|56=TRAX|10=172|8=FIXT.1.1|9=56|35=0|34=1275|49=PUBQA3|52=20180206-21:03:24.646|56=TRAX|10=173|8=FIXT.1.1|9=56|35=0|34=1276|49=PUBQA3|52=20180206-21:03:55.639|56=TRAX|10=180|8=FIXT.1.1|9=56|35=0|34=1277|49=PUBQA3|52=20180206-21:04:25.639|56=TRAX|10=179|8=FIXT.1.1|9=56|35=0|34=1278|49=PUBQA3|52=20180206-21:04:55.645|56=TRAX|10=180|8=FIXT.1.1|9=56|35=0|34=1279|49=PUBQA3|52=20180206-21:05:25.646|56=TRAX|10=180|8=FIXT.1.1|9=56|35=0|34=