8=FIXT.1.1|9=110|35=A|34=1|49=RHAQA3_INBOUND_001|52=20180814-15:50:18.305|56=TRAXQA3|98=0|108=30|95=8|96=3.0.0rc3|141=Y|1137=9|10=116|8=FIXT.1.1|9=68|35=0|34=2|49=RHAQA3_INBOUND_001|52=20180814-15:50:49.254|56=TRAXQA3|10=054|8=FIXT.1.1|9=68|35=0|34=3|49=RHAQA3_INBOUND_001|52=20180814-15:51:19.777|56=TRAXQA3|10=063|8=FIXT.1.1|9=68|35=0|34=4|49=RHAQA3_INBOUND_001|52=20180814-15:51:49.788|56=TRAXQA3|10=069|8=FIXT.1.1|9=68|35=0|34=5|49=RHAQA3_INBOUND_001|52=20180814-15:52:20.254|56=TRAXQA3|10=048|8=FIXT.1.1|9=68|35=0|34=6|49=RHAQA3_INBOUND_001|52=20180814-15:52:50.255|56=TRAXQA3|10=053|8=FIXT.1.1|9=68|35=0|34=7|49=RHAQA3_INBOUND_001|52=20180814-15:53:21.255|56=TRAXQA3|10=053|8=FIXT.1.1|9=68|35=0|34=8|49=RHAQA3_INBOUND_001|52=20180814-15:53:52.253|56=TRAXQA3|10=056|8=FIXT.1.1|9=68|35=0|34=9|49=RHAQA3_INBOUND_001|52=20180814-15:54:22.253|56=TRAXQA3|10=055|8=FIXT.1.1|9=69|35=0|34=10|49=RHAQA3_INBOUND_001|52=20180814-15:54:52.253|56=TRAXQA3|10=099|8=FIXT.1.1|9=69|35=0|34=11|49=RHAQA3_INBOUND_001|52=20180814-15:55:22.253|56=TRAXQA3|10=098|8=FIXT.1.1|9=69|35=0|34=12|49=RHAQA3_INBOUND_001|52=20180814-15:55:53.252|56=TRAXQA3|10=102|8=FIXT.1.1|9=69|35=0|34=13|49=RHAQA3_INBOUND_001|52=20180814-15:56:23.252|56=TRAXQA3|10=101|8=FIXT.1.1|9=69|35=0|34=14|49=RHAQA3_INBOUND_001|52=20180814-15:56:53.253|56=TRAXQA3|10=106|8=FIXT.1.1|9=69|35=0|34=15|49=RHAQA3_INBOUND_001|52=20180814-15:57:24.241|56=TRAXQA3|10=103|8=FIXT.1.1|9=69|35=0|34=16|49=RHAQA3_INBOUND_001|52=20180814-15:57:54.252|56=TRAXQA3|10=109|8=FIXT.1.1|9=69|35=0|34=17|49=RHAQA3_INBOUND_001|52=20180814-15:58:24.253|56=TRAXQA3|10=109|8=FIXT.1.1|9=69|35=0|34=18|49=RHAQA3_INBOUND_001|52=20180814-15:58:55.248|56=TRAXQA3|10=118|8=FIXT.1.1|9=69|35=0|34=19|49=RHAQA3_INBOUND_001|52=20180814-15:59:26.249|56=TRAXQA3|10=119|8=FIXT.1.1|9=69|35=0|34=20|49=RHAQA3_INBOUND_001|52=20180814-15:59:56.251|56=TRAXQA3|10=107|8=FIXT.1.1|9=69|35=0|34=21|49=RHAQA3_INBOUND_001|52=20180814-16:00:26.252|56=TRAXQA3|10=093|8=FIXT.1.1|9=69|35=0|34=22|49=RHAQA3_INBOUND_001|52=20180814-16:00:57.252|56=TRAXQA3|10=098|8=FIXT.1.1|9=69|35=0|34=23|49=RHAQA3_INBOUND_001|52=20180814-16:01:27.252|56=TRAXQA3|10=097|8=FIXT.1.1|9=69|35=0|34=24|49=RHAQA3_INBOUND_001|52=20180814-16:01:58.252|56=TRAXQA3|10=102|8=FIXT.1.1|9=69|35=0|34=25|49=RHAQA3_INBOUND_001|52=20180814-16:02:29.250|56=TRAXQA3|10=100|8=FIXT.1.1|9=69|35=0|34=26|49=RHAQA3_INBOUND_001|52=20180814-16:03:00.250|56=TRAXQA3|10=091|8=FIXT.1.1|9=69|35=0|34=27|49=RHAQA3_INBOUND_001|52=20180814-16:03:30.250|56=TRAXQA3|10=095|8=FIXT.1.1|9=69|35=0|34=28|49=RHAQA3_INBOUND_001|52=20180814-16:04:01.252|56=TRAXQA3|10=097|8=FIXT.1.1|9=69|35=0|34=29|49=RHAQA3_INBOUND_001|52=20180814-16:04:31.772|56=TRAXQA3|10=108|8=FIXT.1.1|9=69|35=0|34=30|49=RHAQA3_INBOUND_001|52=20180814-16:05:01.784|56=TRAXQA3|10=101|8=FIXT.1.1|9=69|35=0|34=31|49=RHAQA3_INBOUND_001|52=20180814-16:05:32.249|56=TRAXQA3|10=102|8=FIXT.1.1|9=69|35=0|34=32|49=RHAQA3_INBOUND_001|52=20180814-16:06:02.252|56=TRAXQA3|10=095|8=FIXT.1.1|9=69|35=0|34=33|49=RHAQA3_INBOUND_001|52=20180814-16:06:33.241|56=TRAXQA3|10=098|8=FIXT.1.1|9=69|35=0|34=34|49=RHAQA3_INBOUND_001|52=20180814-16:07:03.248|56=TRAXQA3|10=104|8=FIXT.1.1|9=69|35=0|34=35|49=RHAQA3_INBOUND_001|52=20180814-16:07:33.248|56=TRAXQA3|10=108|8=FIXT.1.1|9=69|35=0|34=36|49=RHAQA3_INBOUND_001|52=20180814-16:08:03.248|56=TRAXQA3|10=107|8=FIXT.1.1|9=69|35=0|34=37|49=RHAQA3_INBOUND_001|52=20180814-16:08:33.249|56=TRAXQA3|10=112|8=FIXT.1.1|9=69|35=0|34=38|49=RHAQA3_INBOUND_001|52=20180814-16:09:04.251|56=TRAXQA3|10=105|8=FIXT.1.1|9=69|35=0|34=39|49=RHAQA3_INBOUND_001|52=20180814-16:09:35.251|56=TRAXQA3|10=110|8=FIXT.1.1|9=69|35=0|34=40|49=RHAQA3_INBOUND_001|52=20180814-16:10:06.237|56=TRAXQA3|10=096|8=FIXT.1.1|9=69|35=0|34=41|49=RHAQA3_INBOUND_001|52=20180814-16:10:36.246|56=TRAXQA3|10=100|8=FIXT.1.1|9=69|35=0|34=42|49=RHAQA3_INBOUND_001|52=20180814-16:11:06.246|56=TRAXQA3|10=099|8=FIXT.1.1|9=69|35=0|34=43|49=RHAQA3_INBOUND_001|52=20180814-16:11:36.246|56=TRAXQA3|10=103|8=FIXT.1.1|9=69|35=0|34=44|49=RHAQA3_INBOUND_001|52=20180814-16:12:06.249|56=TRAXQA3|10=105|8=FIXT.1.1|9=69|35=0|34=45|49=RHAQA3_INBOUND_001|52=20180814-16:12:37.245|56=TRAXQA3|10=106|8=FIXT.1.1|9=69|35=0|34=46|49=RHAQA3_INBOUND_001|52=20180814-16:13:07.245|56=TRAXQA3|10=105|8=FIXT.1.1|9=69|35=0|34=47|49=RHAQA3_INBOUND_001|52=20180814-16:13:38.237|56=TRAXQA3|10=111|8=FIXT.1.1|9=69|35=0|34=48|49=RHAQA3_INBOUND_001|52=20180814-16:14:08.245|56=TRAXQA3|10=109|8=FIXT.1.1|9=69|35=0|34=49|49=RHAQA3_INBOUND_001|52=20180814-16:14:38.245|56=TRAXQA3|10=113|8=FIXT.1.1|9=69|35=0|34=50|49=RHAQA3_INBOUND_001|52=20180814-16:15:09.245|56=TRAXQA3|10=104|8=FIXT.1.1|9=69|35=0|34=51|49=RHAQA3_INBOUND_001|52=20180814-16:15:40.244|56=TRAXQA3|10=099|8=FIXT.1.1|9=69|35=0|34=52|49=RHAQA3_INBOUND_001|52=20180814-16:16:10.245|56=TRAXQA3|10=099|8=FIXT.1.1|9=69|35=0|34=53|49=RHAQA3_INBOUND_001|52=20180814-16:16:41.242|56=TRAXQA3|10=101|8=FIXT.1.1|9=69|35=0|34=54|49=RHAQA3_INBOUND_001|52=20180814-16:17:11.244|56=TRAXQA3|10=102|8=FIXT.1.1|9=69|35=0|34=55|49=RHAQA3_INBOUND_001|52=20180814-16:17:41.244|56=TRAXQA3|10=106|8=FIXT.1.1|9=69|35=0|34=56|49=RHAQA3_INBOUND_001|52=20180814-16:18:12.248|56=TRAXQA3|10=110|8=FIXT.1.1|9=69|35=0|34=57|49=RHAQA3_INBOUND_001|52=20180814-16:18:43.244|56=TRAXQA3|10=111|8=FIXT.1.1|9=69|35=0|34=58|49=RHAQA3_INBOUND_001|52=20180814-16:19:13.244|56=TRAXQA3|10=110|8=FIXT.1.1|9=69|35=0|34=59|49=RHAQA3_INBOUND_001|52=20180814-16:19:43.244|56=TRAXQA3|10=114|8=FIXT.1.1|9=69|35=0|34=60|49=RHAQA3_INBOUND_001|52=20180814-16:20:14.243|56=TRAXQA3|10=095|8=FIXT.1.1|9=69|35=0|34=61|49=RHAQA3_INBOUND_001|52=20180814-16:20:44.246|56=TRAXQA3|10=102|8=FIXT.1.1|9=69|35=0|34=62|49=RHAQA3_INBOUND_001|52=20180814-16:21:15.242|56=TRAXQA3|10=098|8=FIXT.1.1|9=69|35=0|34=63|49=RHAQA3_INBOUND_001|52=20180814-16:21:45.242|56=TRAXQA3|10=102|8=FIXT.1.1|9=69|35=0|34=64|49=RHAQA3_INBOUND_001|52=20180814-16:22:16.242|56=TRAXQA3|10=102|8=FIXT.1.1|9=69|35=0|34=65|49=RHAQA3_INBOUND_001|52=20180814-16:22:47.241|56=TRAXQA3|10=106|8=FIXT.1.1|9=69|35=0|34=66|49=RHAQA3_INBOUND_001|52=20180814-16:23:17.242|56=TRAXQA3|10=106|8=FIXT.1.1|9=69|35=0|34=67|49=RHAQA3_INBOUND_001|52=20180814-16:23:47.245|56=TRAXQA3|10=113|8=FIXT.1.1|9=69|35=0|34=68|49=RHAQA3_INBOUND_001|52=20180814-16:24:18.241|56=TRAXQA3|10=109|8=FIXT.1.1|9=69|35=0|34=69|49=RHAQA3_INBOUND_001|52=20180814-16:24:49.238|56=TRAXQA3|10=120|8=FIXT.1.1|9=69|35=0|34=70|49=RHAQA3_INBOUND_001|52=20180814-16:25:19.241|56=TRAXQA3|10=104|8=FIXT.1.1|9=69|35=0|34=71|49=RHAQA3_INBOUND_001|52=20180814-16:25:49.241|56=TRAXQA3|10=108|8=FIXT.1.1|9=69|35=0|34=72|49=RHAQA3_INBOUND_001|52=20180814-16:26:20.240|56=TRAXQA3|10=098|8=FIXT.1.1|9=69|35=0|34=73|49=RHAQA3_INBOUND_001|52=20180814-16:26:50.240|56=TRAXQA3|10=102|8=FIXT.1.1|9=69|35=0|34=74|49=RHAQA3_INBOUND_001|52=20180814-16:27:20.241|56=TRAXQA3|10=102|8=FIXT.1.1|9=69|35=0|34=75|49=RHAQA3_INBOUND_001|52=20180814-16:27:51.240|56=TRAXQA3|10=106|8=FIXT.1.1|9=69|35=0|34=76|49=RHAQA3_INBOUND_001|52=20180814-16:28:21.240|56=TRAXQA3|10=105|8=FIXT.1.1|9=69|35=0|34=77|49=RHAQA3_INBOUND_001|52=20180814-16:28:51.242|56=TRAXQA3|10=111|8=FIXT.1.1|9=69|35=0|34=78|49=RHAQA3_INBOUND_001|52=20180814-16:29:22.239|56=TRAXQA3|10=117|8=FIXT.1.1|9=69|35=0|34=79|49=RHAQA3_INBOUND_001|52=20180814-16:29:52.239|56=TRAXQA3|10=121|8=FIXT.1.1|9=69|35=0|34=80|49=RHAQA3_INBOUND_001|52=20180814-16:30:22.239|56=TRAXQA3|10=102|8=FIXT.1.1|9=69|35=0|34=81|49=RHAQA3_INBOUND_001|52=20180814-16:30:53.239|56=TRAXQA3|10=107|8=FIXT.1.1|9=69|35=0|34=82|49=RHAQA3_INBOUND_001|52=20180814-16:31:24.238|56=TRAXQA3|10=106|8=FIXT.1.1|9=69|35=0|34=83|49=RHAQA3_INBOUND_001|52=20180814-16:31:55.239|56=TRAXQA3|10=112|8=FIXT.1.1|9=69|35=0|34=84|49=RHAQA3_INBOUND_001|52=20180814-16:32:25.243|56=TRAXQA3|10=106|8=FIXT.1.1|9=69|35=0|34=85|49=RHAQA3_INBOUND_001|52=20180814-16:32:56.238|56=TRAXQA3|10=115|8=FIXT.1.1|9=69|35=0|34=86|49=RHAQA3_INBOUND_001|52=20180814-16:33:26.238|56=TRAXQA3|10=114|8=FIXT.1.1|9=69|35=0|34=87|49=RHAQA3_INBOUND_001|52=20180814-16:33:56.238|56=TRAXQA3|10=118|8=FIXT.1.1|9=69|35=0|34=88|49=RHAQA3_INBOUND_001|52=20180814-16:34:26.238|56=TRAXQA3|10=117|8=FIXT.1.1|9=69|35=0|34=89|49=RHAQA3_INBOUND_001|52=20180814-16:34:56.774|56=TRAXQA3|10=126|8=FIXT.1.1|9=69|35=0|34=90|49=RHAQA3_INBOUND_001|52=20180814-16:35:27.226|56=TRAXQA3|10=109|8=FIXT.1.1|9=69|35=0|34=91|49=RHAQA3_INBOUND_001|52=20180814-16:35:57.241|56=TRAXQA3|10=110|8=FIXT.1.1|9=69|35=0|34=92|49=RHAQA3_INBOUND_001|52=20180814-16:36:28.228|56=TRAXQA3|10=115|8=FIXT.1.1|9=69|35=0|34=93|49=RHAQA3_INBOUND_001|52=20180814-16:36:58.240|56=TRAXQA3|10=113|8=FIXT.1.1|9=69|35=0|34=94|49=RHAQA3_INBOUND_001|52=20180814-16:37:29.237|56=TRAXQA3|10=119|8=FIXT.1.1|9=69|35=0|34=95|49=RHAQA3_INBOUND_001|52=20180814-16:38:00.236|56=TRAXQA3|10=109|8=FIXT.1.1|9=69|35=0|34=96|49=RHAQA3_INBOUND_001|52=20180814-16:38:30.236|56=TRAXQA3|10=113|8=FIXT.1.1|9=69|35=0|34=97|49=RHAQA3_INBOUND_001|52=20180814-16:39:00.240|56=TRAXQA3|10=107|8=FIXT.1.1|9=69|35=0|34=98|49=RHAQA3_INBOUND_001|52=20180814-16:39:31.236|56=TRAXQA3|10=117|8=FIXT.1.1|9=69|35=0|34=99|49=RHAQA3_INBOUND_001|52=20180814-16:40:02.236|56=TRAXQA3|10=108|8=FIXT.1.1|9=70|35=0|34=100|49=RHAQA3_INBOUND_001|52=20180814-16:40:32.239|56=TRAXQA3|10=137|8=FIXT.1.1|9=70|35=0|34=101|49=RHAQA3_INBOUND_001|52=20180814-16:41:03.235|56=TRAXQA3|10=133|8=FIXT.1.1|9=70|35=0|34=102|49=RHAQA3_INBOUND_001|52=20180814-16:41:33.236|56=TRAXQA3|10=138|8=FIXT.1.1|9=70|35=0|34=103|49=RHAQA3_INBOUND_001|52=20180814-16:42:03.237|56=TRAXQA3|10=138|8=FIXT.1.1|9=70|35=0|34=104|49=RHAQA3_INBOUND_001|52=20180814-16:42:34.235|56=TRAXQA3|10=141|8=FIXT.1.1|9=70|35=0|34=105|49=RHAQA3_INBOUND_001|52=20180814-16:43:04.235|56=TRAXQA3|10=140|8=FIXT.1.1|9=70|35=0|34=106|49=RHAQA3_INBOUND_001|52=20180814-16:43:34.237|56=TRAXQA3|10=146|8=FIXT.1.1|9=70|35=0|34=107|49=RHAQA3_INBOUND_001|52=20180814-16:44:05.235|56=TRAXQA3|10=144|8=FIXT.1.1|9=70|35=0|34=108|49=RHAQA3_INBOUND_001|52=20180814-16:44:36.234|56=TRAXQA3|10=148|8=FIXT.1.1|9=70|35=0|34=109|49=RHAQA3_INBOUND_001|52=20180814-16:45:06.234|56=TRAXQA3|10=147|8=FIXT.1.1|9=70|35=0|34=110|49=RHAQA3_INBOUND_001|52=20180814-16:45:37.234|56=TRAXQA3|10=143|8=FIXT.1.1|9=70|35=0|34=111|49=RHAQA3_INBOUND_001|52=20180814-16:46:07.234|56=TRAXQA3|10=142|8=FIXT.1.1|9=70|35=0|34=112|49=RHAQA3_INBOUND_001|52=20180814-16:46:38.233|56=TRAXQA3|10=146|8=FIXT.1.1|9=70|35=0|34=113|49=RHAQA3_INBOUND_001|52=20180814-16:47:08.235|56=TRAXQA3|10=147|8=FIXT.1.1|9=70|35=0|34=114|49=RHAQA3_INBOUND_001|52=20180814-16:47:39.235|56=TRAXQA3|10=152|8=FIXT.1.1|9=70|35=0|34=115|49=RHAQA3_INBOUND_001|52=20180814-16:48:10.232|56=TRAXQA3|10=140|8=FIXT.1.1|9=70|35=0|34=116|49=RHAQA3_INBOUND_001|52=20180814-16:48:41.232|56=TRAXQA3|10=145|8=FIXT.1.1|9=70|35=0|34=117|49=RHAQA3_INBOUND_001|52=20180814-16:49:11.233|56=TRAXQA3|10=145|8=FIXT.1.1|9=70|35=0|34=118|49=RHAQA3_INBOUND_001|52=20180814-16:49:42.232|56=TRAXQA3|10=149|8=FIXT.1.1|9=70|35=0|34=119|49=RHAQA3_INBOUND_001|52=20180814-16:50:13.232|56=TRAXQA3|10=140|8=FIXT.1.1|9=70|35=0|34=120|49=RHAQA3_INBOUND_001|52=20180814-16:50:43.234|56=TRAXQA3|10=137|8=FIXT.1.1|9=70|35=0|34=121|49=RHAQA3_INBOUND_001|52=20180814-16:51:14.231|56=TRAXQA3|10=134|8=FIXT.1.1|9=70|35=0|34=122|49=RHAQA3_INBOUND_001|52=20180814-16:51:45.231|56=TRAXQA3|10=139|8=FIXT.1.1|9=70|35=0|34=123|49=RHAQA3_INBOUND_001|52=20180814-16:52:15.231|56=TRAXQA3|10=138|8=FIXT.1.1|9=70|35=0|34=124|49=RHAQA3_INBOUND_001|52=20180814-16:52:46.234|56=TRAXQA3|10=146|8=FIXT.1.1|9=70|35=0|34=125|49=RHAQA3_INBOUND_001|52=20180814-16:53:17.234|56=TRAXQA3|10=146|8=FIXT.1.1|9=70|35=0|34=126|49=RHAQA3_INBOUND_001|52=20180814-16:53:48.230|56=TRAXQA3|10=147|8=FIXT.1.1|9=70|35=0|34=127|49=RHAQA3_INBOUND_001|52=20180814-16:54:19.230|56=TRAXQA3|10=147|8=FIXT.1.1|9=70|35=0|34=128|49=RHAQA3_INBOUND_001|52=20180814-16:54:49.230|56=TRAXQA3|10=151|8=FIXT.1.1|9=70|35=0|34=129|49=RHAQA3_INBOUND_001|52=20180814-16:55:19.230|56=TRAXQA3|10=150|8=FIXT.1.1|9=70|35=0|34=130|49=RHAQA3_INBOUND_001|52=20180814-16:55:50.229|56=TRAXQA3|10=145|8=FIXT.1.1|9=70|35=0|34=131|49=RHAQA3_INBOUND_001|52=20180814-16:56:20.232|56=TRAXQA3|10=138|8=FIXT.1.1|9=70|35=0|34=132|49=RHAQA3_INBOUND_001|52=20180814-16:56:51.229|56=TRAXQA3|10=149|8=FIXT.1.1|9=70|35=0|34=133|49=RHAQA3_INBOUND_001|52=20180814-16:57:21.229|56=TRAXQA3|10=148|8=FIXT.1.1|9=70|35=0|34=134|49=RHAQA3_INBOUND_001|52=20180814-16:57:52.232|56=TRAXQA3|10=147|8=FIXT.1.1|9=70|35=0|34=135|49=RHAQA3_INBOUND_001|52=20180814-16:58:22.768|56=TRAXQA3|10=160|8=FIXT.1.1|9=70|35=0|34=136|49=RHAQA3_INBOUND_001|52=20180814-16:58:52.770|56=TRAXQA3|10=157|8=FIXT.1.1|9=70|35=0|34=137|49=RHAQA3_INBOUND_001|52=20180814-16:59:23.232|56=TRAXQA3|10=150|8=FIXT.1.1|9=70|35=0|34=138|49=RHAQA3_INBOUND_001|52=20180814-16:59:54.229|56=TRAXQA3|10=161|8=FIXT.1.1|9=70|35=0|34=139|49=RHAQA3_INBOUND_001|52=20180814-17:00:25.228|56=TRAXQA3|10=146|8=FIXT.1.1|9=70|35=0|34=140|49=RHAQA3_INBOUND_001|52=20180814-17:00:55.761|56=TRAXQA3|10=143|8=FIXT.1.1|9=70|35=0|34=141|49=RHAQA3_INBOUND_001|52=20180814-17:01:26.227|56=TRAXQA3|10=140|8=FIXT.1.1|9=70|35=0|34=142|49=RHAQA3_INBOUND_001|52=20180814-17:01:56.227|56=TRAXQA3|10=144|8=FIXT.1.1|9=70|35=0|34=143|49=RHAQA3_INBOUND_001|52=20180814-17:02:26.229|56=TRAXQA3|10=145|8=FIXT.1.1|9=70|35=0|34=144|49=RHAQA3_INBOUND_001|52=20180814-17:02:57.226|56=TRAXQA3|10=147|8=FIXT.1.1|9=70|35=0|34=145|49=RHAQA3_INBOUND_001|52=20180814-17:03:27.227|56=TRAXQA3|10=147|8=FIXT.1.1|9=70|35=0|34=146|49=RHAQA3_INBOUND_001|52=20180814-17:03:58.226|56=TRAXQA3|10=151|8=FIXT.1.1|9=70|35=0|34=147|49=RHAQA3_INBOUND_001|52=20180814-17:04:28.226|56=TRAXQA3|10=150|8=FIXT.1.1|9=70|35=0|34=148|49=RHAQA3_INBOUND_001|52=20180814-17:04:59.226|56=TRAXQA3|10=155|8=FIXT.1.1|9=70|35=0|34=149|49=RHAQA3_INBOUND_001|52=20180814-17:05:29.226|56=TRAXQA3|10=154|8=FIXT.1.1|9=70|35=0|34=150|49=RHAQA3_INBOUND_001|52=20180814-17:06:00.226|56=TRAXQA3|10=136|8=FIXT.1.1|9=70|35=0|34=151|49=RHAQA3_INBOUND_001|52=20180814-17:06:30.229|56=TRAXQA3|10=143|8=FIXT.1.1|9=70|35=0|34=152|49=RHAQA3_INBOUND_001|52=20180814-17:07:01.225|56=TRAXQA3|10=139|8=FIXT.1.1|9=70|35=0|34=153|49=RHAQA3_INBOUND_001|52=20180814-17:07:31.225|56=TRAXQA3|10=143|8=FIXT.1.1|9=70|35=0|34=154|49=RHAQA3_INBOUND_001|52=20180814-17:08:01.767|56=TRAXQA3|10=153|8=FIXT.1.1|9=70|35=0|34=155|49=RHAQA3_INBOUND_001|52=20180814-17:08:31.770|56=TRAXQA3|10=151|8=FIXT.1.1|9=70|35=0|34=156|49=RHAQA3_INBOUND_001|52=20180814-17:09:01.770|56=TRAXQA3|10=150|8=FIXT.1.1|9=70|35=0|34=157|49=RHAQA3_INBOUND_001|52=20180814-17:09:32.224|56=TRAXQA3|10=149|8=FIXT.1.1|9=70|35=0|34=158|49=RHAQA3_INBOUND_001|52=20180814-17:10:02.224|56=TRAXQA3|10=139|8=FIXT.1.1|9=70|35=0|34=159|49=RHAQA3_INBOUND_001|52=20180814-17:10:32.228|56=TRAXQA3|10=147|8=FIXT.1.1|9=70|35=0|34=160|49=RHAQA3_INBOUND_001|52=20180814-17:11:03.213|56=TRAXQA3|10=132|8=FIXT.1.1|9=70|35=0|34=161|49=RHAQA3_INBOUND_001|52=20180814-17:11:33.223|56=TRAXQA3|10=137|8=FIXT.1.1|9=70|35=0|34=162|49=RHAQA3_INBOUND_001|52=20180814-17:12:03.223|56=TRAXQA3|10=136|8=FIXT.1.1|9=70|35=0|34=163|49=RHAQA3_INBOUND_001|52=20180814-17:12:33.223|56=TRAXQA3|10=140|8=FIXT.1.1|9=70|35=0|34=164|49=RHAQA3_INBOUND_001|52=20180814-17:13:03.223|56=TRAXQA3|10=139|8=FIXT.1.1|9=70|35=0|34=165|49=RHAQA3_INBOUND_001|52=20180814-17:13:33.223|56=TRAXQA3|10=143|8=FIXT.1.1|9=70|35=0|34=166|49=RHAQA3_INBOUND_001|52=20180814-17:14:03.223|56=TRAXQA3|10=142|8=FIXT.1.1|9=70|35=0|34=167|49=RHAQA3_INBOUND_001|52=20180814-17:14:34.222|56=TRAXQA3|10=146|8=FIXT.1.1|9=70|35=0|34=168|49=RHAQA3_INBOUND_001|52=20180814-17:15:04.222|56=TRAXQA3|10=145|8=FIXT.1.1|9=70|35=0|34=169|49=RHAQA3_INBOUND_001|52=20180814-17:15:35.221|56=TRAXQA3|10=149|8=FIXT.1.1|9=70|35=0|34=170|49=RHAQA3_INBOUND_001|52=20180814-17:16:05.221|56=TRAXQA3|10=139|8=FIXT.1.1|9=70|35=0|34=171|49=RHAQA3_INBOUND_001|52=20180814-17:16:35.221|56=TRAXQA3|10=143|8=FIXT.1.1|9=70|35=0|34=172|49=RHAQA3_INBOUND_001|52=20180814-17:17:06.222|56=TRAXQA3|10=144|8=FIXT.1.1|9=70|35=0|34=173|49=RHAQA3_INBOUND_001|52=20180814-17:17:37.210|56=TRAXQA3|10=146|8=FIXT.1.1|9=70|35=0|34=174|49=RHAQA3_INBOUND_001|52=20180814-17:18:07.220|56=TRAXQA3|10=146|8=FIXT.1.1|9=70|35=0|34=175|49=RHAQA3_INBOUND_001|52=20180814-17:18:37.223|56=TRAXQA3|10=153|8=FIXT.1.1|9=70|35=0|34=176|49=RHAQA3_INBOUND_001|52=20180814-17:19:08.220|56=TRAXQA3|10=150|8=FIXT.1.1|9=70|35=0|34=177|49=RHAQA3_INBOUND_001|52=20180814-17:19:38.221|56=TRAXQA3|10=155|8=FIXT.1.1|9=70|35=0|34=178|49=RHAQA3_INBOUND_001|52=20180814-17:20:09.224|56=TRAXQA3|10=149|8=FIXT.1.1|9=70|35=0|34=179|49=RHAQA3_INBOUND_001|52=20180814-17:20:40.219|56=TRAXQA3|10=149|8=FIXT.1.1|9=70|35=0|34=180|49=RHAQA3_INBOUND_001|52=20180814-17:21:10.220|56=TRAXQA3|10=131|8=FIXT.1.1|9=70|35=0|34=181|49=RHAQA3_INBOUND_001|52=20180814-17:21:40.220|56=TRAXQA3|10=135|8=FIXT.1.1|9=70|35=0|34=182|49=RHAQA3_INBOUND_001|52=20180814-17:22:11.219|56=TRAXQA3|10=143|8=FIXT.1.1|9=70|35=0|34=183|49=RHAQA3_INBOUND_001|52=20180814-17:22:41.219|56=TRAXQA3|10=147|8=FIXT.1.1|9=70|35=0|34=184|49=RHAQA3_INBOUND_001|52=20180814-17:23:11.219|56=TRAXQA3|10=146|8=FIXT.1.1|9=70|35=0|34=185|49=RHAQA3_INBOUND_001|52=20180814-17:23:41.219|56=TRAXQA3|10=150|8=FIXT.1.1|9=70|35=0|34=186|49=RHAQA3_INBOUND_001|52=20180814-17:24:12.217|56=TRAXQA3|10=148|8=FIXT.1.1|9=70|35=0|34=187|49=RHAQA3_INBOUND_001|52=20180814-17:24:42.221|56=TRAXQA3|10=147|8=FIXT.1.1|9=70|35=0|34=188|49=RHAQA3_INBOUND_001|52=20180814-17:25:12.773|56=TRAXQA3|10=158|8=FIXT.1.1|9=70|35=0|34=189|49=RHAQA3_INBOUND_001|52=20180814-17:25:43.218|56=TRAXQA3|10=157|8=FIXT.1.1|9=70|35=0|34=190|49=RHAQA3_INBOUND_001|52=20180814-17:26:13.218|56=TRAXQA3|10=147|8=FIXT.1.1|9=70|35=0|34=191|49=RHAQA3_INBOUND_001|52=20180814-17:26:44.218|56=TRAXQA3|10=152|8=FIXT.1.1|9=70|35=0|34=192|49=RHAQA3_INBOUND_001|52=20180814-17:27:14.218|56=TRAXQA3|10=151|8=FIXT.1.1|9=70|35=0|34=193|49=RHAQA3_INBOUND_001|52=20180814-17:27:45.218|56=TRAXQA3|10=156|8=FIXT.1.1|9=70|35=0|34=194|49=RHAQA3_INBOUND_001|52=20180814-17:28:16.217|56=TRAXQA3|10=155|8=FIXT.1.1|9=70|35=0|34=195|49=RHAQA3_INBOUND_001|52=20180814-17:28:46.220|56=TRAXQA3|10=153|8=FIXT.1.1|9=70|35=0|34=196|49=RHAQA3_INBOUND_001|52=20180814-17:29:17.216|56=TRAXQA3|10=158|8=FIXT.1.1|9=70|35=0|34=197|49=RHAQA3_INBOUND_001|52=20180814-17:29:48.216|56=TRAXQA3|10=163|8=FIXT.1.1|9=70|35=0|34=198|49=RHAQA3_INBOUND_001|52=20180814-17:30:19.216|56=TRAXQA3|10=154|8=FIXT.1.1|9=70|35=0|34=199|49=RHAQA3_INBOUND_001|52=20180814-17:30:49.216|56=TRAXQA3|10=158|8=FIXT.1.1|9=70|35=0|34=200|49=RHAQA3_INBOUND_001|52=20180814-17:31:20.205|56=TRAXQA3|10=129|8=FIXT.1.1|9=70|35=0|34=201|49=RHAQA3_INBOUND_001|52=20180814-17:31:50.207|56=TRAXQA3|10=135|8=FIXT.1.1|9=70|35=0|34=202|49=RHAQA3_INBOUND_001|52=20180814-17:32:20.215|56=TRAXQA3|10=133|8=FIXT.1.1|9=70|35=0|34=203|49=RHAQA3_INBOUND_001|52=20180814-17:32:50.215|56=TRAXQA3|10=137|8=FIXT.1.1|9=70|35=0|34=204|49=RHAQA3_INBOUND_001|52=20180814-17:33:20.215|56=TRAXQA3|10=136|8=FIXT.1.1|9=70|35=0|34=205|49=RHAQA3_INBOUND_001|52=20180814-17:33:50.215|56=TRAXQA3|10=140|8=FIXT.1.1|9=70|35=0|34=206|49=RHAQA3_INBOUND_001|52=20180814-17:34:20.215|56=TRAXQA3|10=139|8=FIXT.1.1|9=70|35=0|34=207|49=RHAQA3_INBOUND_001|52=20180814-17:34:51.215|56=TRAXQA3|10=144|8=FIXT.1.1|9=70|35=0|34=208|49=RHAQA3_INBOUND_001|52=20180814-17:35:21.215|56=TRAXQA3|10=143|8=FIXT.1.1|9=70|35=0|34=209|49=RHAQA3_INBOUND_001|52=20180814-17:35:52.217|56=TRAXQA3|10=150|8=FIXT.1.1|9=70|35=0|34=210|49=RHAQA3_INBOUND_001|52=20180814-17:36:23.218|56=TRAXQA3|10=142|8=FIXT.1.1|9=70|35=0|34=211|49=RHAQA3_INBOUND_001|52=20180814-17:36:54.204|56=TRAXQA3|10=142|8=FIXT.1.1|9=70|35=0|34=212|49=RHAQA3_INBOUND_001|52=20180814-17:37:24.214|56=TRAXQA3|10=142|8=FIXT.1.1|9=70|35=0|34=213|49=RHAQA3_INBOUND_001|52=20180814-17:37:54.217|56=TRAXQA3|10=149|8=FIXT.1.1|9=70|35=0|34=214|49=RHAQA3_INBOUND_001|52=20180814-17:38:25.213|56=TRAXQA3|10=145|8=FIXT.1.1|9=70|35=0|34=215|49=RHAQA3_INBOUND_001|52=20180814-17:38:55.213|56=TRAXQA3|10=149|8=FIXT.1.1|9=70|35=0|34=216|49=RHAQA3_INBOUND_001|52=20180814-17:39:25.213|56=TRAXQA3|10=148|8=FIXT.1.1|9=70|35=0|34=217|49=RHAQA3_INBOUND_001|52=20180814-17:39:56.212|56=TRAXQA3|10=152|8=FIXT.1.1|9=70|35=0|34=218|49=RHAQA3_INBOUND_001|52=20180814-17:40:26.212|56=TRAXQA3|10=142|8=FIXT.1.1|9=70|35=0|34=219|49=RHAQA3_INBOUND_001|52=20180814-17:40:56.212|56=TRAXQA3|10=146|8=FIXT.1.1|9=70|35=0|34=220|49=RHAQA3_INBOUND_001|52=20180814-17:41:26.212|56=TRAXQA3|10=136|8=FIXT.1.1|9=70|35=0|34=221|49=RHAQA3_INBOUND_001|52=20180814-17:41:56.213|56=TRAXQA3|10=141|8=FIXT.1.1|9=70|35=0|34=222|49=RHAQA3_INBOUND_001|52=20180814-17:42:27.212|56=TRAXQA3|10=140|8=FIXT.1.1|9=70|35=0|34=223|49=RHAQA3_INBOUND_001|52=20180814-17:42:57.214|56=TRAXQA3|10=146|8=FIXT.1.1|9=70|35=0|34=224|49=RHAQA3_INBOUND_001|52=20180814-17:43:28.211|56=TRAXQA3|10=143|8=FIXT.1.1|9=70|35=0|34=225|49=RHAQA3_INBOUND_001|52=20180814-17:43:58.211|56=TRAXQA3|10=147|8=FIXT.1.1|9=70|35=0|34=226|49=RHAQA3_INBOUND_001|52=20180814-17:44:28.211|56=TRAXQA3|10=146|8=FIXT.1.1|9=70|35=0|34=227|49=RHAQA3_INBOUND_001|52=20180814-17:44:59.211|56=TRAXQA3|10=151|8=FIXT.1.1|9=70|35=0|34=228|49=RHAQA3_INBOUND_001|52=20180814-17:45:29.211|56=TRAXQA3|10=150|8=FIXT.1.1|9=70|35=0|34=229|49=RHAQA3_INBOUND_001|52=20180814-17:45:59.213|56=TRAXQA3|10=156|8=FIXT.1.1|9=70|35=0|34=230|49=RHAQA3_INBOUND_001|52=20180814-17:46:30.210|56=TRAXQA3|10=135|8=FIXT.1.1|9=70|35=0|34=231|49=RHAQA3_INBOUND_001|52=20180814-17:47:00.210|56=TRAXQA3|10=134|8=FIXT.1.1|9=70|35=0|34=232|49=RHAQA3_INBOUND_001|52=20180814-17:47:30.210|56=TRAXQA3|10=138|8=FIXT.1.1|9=70|35=0|34=233|49=RHAQA3_INBOUND_001|52=20180814-17:48:01.210|56=TRAXQA3|10=138|8=FIXT.1.1|9=70|35=0|34=234|49=RHAQA3_INBOUND_001|52=20180814-17:48:32.209|56=TRAXQA3|10=151|8=FIXT.1.1|9=70|35=0|34=235|49=RHAQA3_INBOUND_001|52=20180814-17:49:02.209|56=TRAXQA3|10=150|8=FIXT.1.1|9=70|35=0|34=236|49=RHAQA3_INBOUND_001|52=20180814-17:49:32.209|56=TRAXQA3|10=154|8=FIXT.1.1|9=70|35=0|34=237|49=RHAQA3_INBOUND_001|52=20180814-17:50:02.209|56=TRAXQA3|10=144|8=FIXT.1.1|9=70|35=0|34=238|49=RHAQA3_INBOUND_001|52=20180814-17:50:32.212|56=TRAXQA3|10=142|8=FIXT.1.1|9=70|35=0|34=239|49=RHAQA3_INBOUND_001|52=20180814-17:51:03.203|56=TRAXQA3|10=142|8=FIXT.1.1|9=70|35=0|34=240|49=RHAQA3_INBOUND_001|52=20180814-17:51:33.208|56=TRAXQA3|10=142|8=FIXT.1.1|9=70|35=0|34=241|49=RHAQA3_INBOUND_001|52=20180814-17:52:03.208|56=TRAXQA3|10=141|8=FIXT.1.1|9=70|35=0|34=242|49=RHAQA3_INBOUND_001|52=20180814-17:52:33.208|56=TRAXQA3|10=145|8=FIXT.1.1|9=70|35=0|34=243|49=RHAQA3_INBOUND_001|52=20180814-17:53:03.208|56=TRAXQA3|10=144|8=FIXT.1.1|9=70|35=0|34=244|49=RHAQA3_INBOUND_001|52=20180814-17:53:34.209|56=TRAXQA3|10=150|8=FIXT.1.1|9=70|35=0|34=245|49=RHAQA3_INBOUND_001|52=20180814-17:54:05.207|56=TRAXQA3|10=148|8=FIXT.1.1|9=70|35=0|34=246|49=RHAQA3_INBOUND_001|52=20180814-17:54:35.207|56=TRAXQA3|10=152|8=FIXT.1.1|9=70|35=0|34=247|49=RHAQA3_INBOUND_001|52=20180814-17:55:05.207|56=TRAXQA3|10=151|8=FIXT.1.1|9=70|35=0|34=248|49=RHAQA3_INBOUND_001|52=20180814-17:55:36.198|56=TRAXQA3|10=165|8=FIXT.1.1|9=70|35=0|34=249|49=RHAQA3_INBOUND_001|52=20180814-17:56:06.207|56=TRAXQA3|10=155|8=FIXT.1.1|9=70|35=0|34=250|49=RHAQA3_INBOUND_001|52=20180814-17:56:37.206|56=TRAXQA3|10=150|8=FIXT.1.1|9=70|35=0|34=251|49=RHAQA3_INBOUND_001|52=20180814-17:57:07.210|56=TRAXQA3|10=144|8=FIXT.1.1|9=70|35=0|34=252|49=RHAQA3_INBOUND_001|52=20180814-17:57:38.207|56=TRAXQA3|10=155|8=FIXT.1.1|9=70|35=0|34=253|49=RHAQA3_INBOUND_001|52=20180814-17:58:09.206|56=TRAXQA3|10=154|8=FIXT.1.1|9=70|35=0|34=254|49=RHAQA3_INBOUND_001|52=20180814-17:58:39.206|56=TRAXQA3|10=158|8=FIXT.1.1|9=70|35=0|34=255|49=RHAQA3_INBOUND_001|52=20180814-17:59:10.207|56=TRAXQA3|10=150|8=FIXT.1.1|9=70|35=0|34=256|49=RHAQA3_INBOUND_001|52=20180814-17:59:41.206|56=TRAXQA3|10=154|8=FIXT.1.1|9=70|35=0|34=257|49=RHAQA3_INBOUND_001|52=20180814-18:00:12.205|56=TRAXQA3|10=139|8=FIXT.1.1|9=70|35=0|34=258|49=RHAQA3_INBOUND_001|52=20180814-18:00:42.205|56=TRAXQA3|10=143|8=FIXT.1.1|9=70|35=0|34=259|49=RHAQA3_INBOUND_001|52=20180814-18:01:12.205|56=TRAXQA3|10=142|8=FIXT.1.1|9=70|35=0|34=260|49=RHAQA3_INBOUND_001|52=20180814-18:01:42.205|56=TRAXQA3|10=137|8=FIXT.1.1|9=70|35=0|34=261|49=RHAQA3_INBOUND_001|52=20180814-18:02:12.760|56=TRAXQA3|10=142|8=FIXT.1.1|9=70|35=0|34=262|49=RHAQA3_INBOUND_001|52=20180814-18:02:43.204|56=TRAXQA3|10=140|8=FIXT.1.1|9=70|35=0|34=263|49=RHAQA3_INBOUND_001|52=20180814-18:03:13.207|56=TRAXQA3|10=142|8=FIXT.1.1|9=70|35=0|34=264|49=RHAQA3_INBOUND_001|52=20180814-18:03:44.204|56=TRAXQA3|10=144|8=FIXT.1.1|9=70|35=0|34=265|49=RHAQA3_INBOUND_001|52=20180814-18:04:15.204|56=TRAXQA3|10=144|8=FIXT.1.1|9=70|35=0|34=266|49=RHAQA3_INBOUND_001|52=20180814-18:04:46.203|56=TRAXQA3|10=148|8=FIXT.1.1|9=70|35=0|34=267|49=RHAQA3_INBOUND_001|52=20180814-18:05:16.203|56=TRAXQA3|10=147|8=FIXT.1.1|9=70|35=0|34=268|49=RHAQA3_INBOUND_001|52=20180814-18:05:47.203|56=TRAXQA3|10=152|8=FIXT.1.1|9=70|35=0|34=269|49=RHAQA3_INBOUND_001|52=20180814-18:06:17.203|56=TRAXQA3|10=151|8=FIXT.1.1|9=70|35=0|34=270|49=RHAQA3_INBOUND_001|52=20180814-18:06:47.207|56=TRAXQA3|10=150|8=FIXT.1.1|9=70|35=0|34=271|49=RHAQA3_INBOUND_001|52=20180814-18:07:18.202|56=TRAXQA3|10=145|8=FIXT.1.1|9=70|35=0|34=272|49=RHAQA3_INBOUND_001|52=20180814-18:07:48.202|56=TRAXQA3|10=149|8=FIXT.1.1|9=70|35=0|34=273|49=RHAQA3_INBOUND_001|52=20180814-18:08:18.206|56=TRAXQA3|10=152|8=FIXT.1.1|9=70|35=0|34=274|49=RHAQA3_INBOUND_001|52=20180814-18:08:49.201|56=TRAXQA3|10=152|8=FIXT.1.1|9=70|35=0|34=275|49=RHAQA3_INBOUND_001|52=20180814-18:09:19.202|56=TRAXQA3|10=152|8=FIXT.1.1|9=70|35=0|34=276|49=RHAQA3_INBOUND_001|52=20180814-18:09:50.205|56=TRAXQA3|10=151|8=FIXT.1.1|9=70|35=0|34=277|49=RHAQA3_INBOUND_001|52=20180814-18:10:21.202|56=TRAXQA3|10=139|8=FIXT.1.1|9=70|35=0|34=278|49=RHAQA3_INBOUND_001|52=20180814-18:10:52.198|56=TRAXQA3|10=158|8=FIXT.1.1|9=70|35=0|34=279|49=RHAQA3_INBOUND_001|52=20180814-18:11:22.201|56=TRAXQA3|10=142|8=FIXT.1.1|9=70|35=0|34=280|49=RHAQA3_INBOUND_001|52=20180814-18:11:53.201|56=TRAXQA3|10=138|8=FIXT.1.1|9=70|35=0|34=281|49=RHAQA3_INBOUND_001|52=20180814-18:12:24.201|56=TRAXQA3|10=138|8=FIXT.1.1|9=70|35=0|34=282|49=RHAQA3_INBOUND_001|52=20180814-18:12:55.200|56=TRAXQA3|10=142|8=FIXT.1.1|9=70|35=0|34=283|49=RHAQA3_INBOUND_001|52=20180814-18:13:25.204|56=TRAXQA3|10=145|8=FIXT.1.1|9=70|35=0|34=284|49=RHAQA3_INBOUND_001|52=20180814-18:13:56.200|56=TRAXQA3|10=146|8=FIXT.1.1|9=70|35=0|34=285|49=RHAQA3_INBOUND_001|52=20180814-18:14:26.201|56=TRAXQA3|10=146|8=FIXT.1.1|9=70|35=0|34=286|49=RHAQA3_INBOUND_001|52=20180814-18:14:57.202|56=TRAXQA3|10=152|8=FIXT.1.1|9=70|35=0|34=287|49=RHAQA3_INBOUND_001|52=20180814-18:15:28.188|56=TRAXQA3|10=165|8=FIXT.1.1|9=70|35=0|34=288|49=RHAQA3_INBOUND_001|52=20180814-18:15:58.199|56=TRAXQA3|10=171|8=FIXT.1.1|9=70|35=0|34=289|49=RHAQA3_INBOUND_001|52=20180814-18:16:29.200|56=TRAXQA3|10=154|8=FIXT.1.1|9=70|35=0|34=290|49=RHAQA3_INBOUND_001|52=20180814-18:16:59.200|56=TRAXQA3|10=149|8=FIXT.1.1|9=70|35=0|34=291|49=RHAQA3_INBOUND_001|52=20180814-18:17:30.198|56=TRAXQA3|10=156|8=FIXT.1.1|9=70|35=0|34=292|49=RHAQA3_INBOUND_001|52=20180814-18:18:00.198|56=TRAXQA3|10=155|8=FIXT.1.1|9=70|35=0|34=293|49=RHAQA3_INBOUND_001|52=20180814-18:18:30.198|56=TRAXQA3|10=159|8=FIXT.1.1|9=70|35=0|34=294|49=RHAQA3_INBOUND_001|52=20180814-18:19:00.198|56=TRAXQA3|10=158|8=FIXT.1.1|9=70|35=0|34=295|49=RHAQA3_INBOUND_001|52=20180814-18:19:31.197|56=TRAXQA3|10=162|8=FIXT.1.1|9=70|35=0|34=296|49=RHAQA3_INBOUND_001|52=20180814-18:20:01.197|56=TRAXQA3|10=152|8=FIXT.1.1|9=70|35=0|34=297|49=RHAQA3_INBOUND_001|52=20180814-18:20:32.194|56=TRAXQA3|10=154|8=FIXT.1.1|9=70|35=0|34=298|49=RHAQA3_INBOUND_001|52=20180814-18:21:02.196|56=TRAXQA3|10=155|8=FIXT.1.1|9=70|35=0|34=299|49=RHAQA3_INBOUND_001|52=20180814-18:21:32.201|56=TRAXQA3|10=146|8=FIXT.1.1|9=70|35=0|34=300|49=RHAQA3_INBOUND_001|52=20180814-18:22:03.196|56=TRAXQA3|10=141|8=FIXT.1.1|9=70|35=0|34=301|49=RHAQA3_INBOUND_001|52=20180814-18:22:33.196|56=TRAXQA3|10=145|8=FIXT.1.1|9=70|35=0|34=302|49=RHAQA3_INBOUND_001|52=20180814-18:23:03.201|56=TRAXQA3|10=131|8=FIXT.1.1|9=70|35=0|34=303|49=RHAQA3_INBOUND_001|52=20180814-18:23:34.186|56=TRAXQA3|10=148|8=FIXT.1.1|9=70|35=0|34=304|49=RHAQA3_INBOUND_001|52=20180814-18:24:04.196|56=TRAXQA3|10=148|8=FIXT.1.1|9=70|35=0|34=305|49=RHAQA3_INBOUND_001|52=20180814-18:24:35.196|56=TRAXQA3|10=153|8=FIXT.1.1|9=70|35=0|34=306|49=RHAQA3_INBOUND_001|52=20180814-18:25:05.198|56=TRAXQA3|10=154|8=FIXT.1.1|9=70|35=0|34=307|49=RHAQA3_INBOUND_001|52=20180814-18:25:36.195|56=TRAXQA3|10=156|8=FIXT.1.1|9=70|35=0|34=308|49=RHAQA3_INBOUND_001|52=20180814-18:26:07.195|56=TRAXQA3|10=156|8=FIXT.1.1|9=70|35=0|34=309|49=RHAQA3_INBOUND_001|52=20180814-18:26:37.195|56=TRAXQA3|10=160|8=FIXT.1.1|9=70|35=0|34=310|49=RHAQA3_INBOUND_001|52=20180814-18:27:08.194|56=TRAXQA3|10=150|8=FIXT.1.1|9=70|35=0|34=311|49=RHAQA3_INBOUND_001|52=20180814-18:27:38.194|56=TRAXQA3|10=154|8=FIXT.1.1|9=70|35=0|34=312|49=RHAQA3_INBOUND_001|52=20180814-18:28:08.194|56=TRAXQA3|10=153|8=FIXT.1.1|9=70|35=0|34=313|49=RHAQA3_INBOUND_001|52=20180814-18:28:38.194|56=TRAXQA3|10=157|8=FIXT.1.1|9=70|35=0|34=314|49=RHAQA3_INBOUND_001|52=20180814-18:29:08.194|56=TRAXQA3|10=156|8=FIXT.1.1|9=70|35=0|34=315|49=RHAQA3_INBOUND_001|52=20180814-18:29:38.194|56=TRAXQA3|10=160|8=FIXT.1.1|9=70|35=0|34=316|49=RHAQA3_INBOUND_001|52=20180814-18:30:09.197|56=TRAXQA3|10=154|8=FIXT.1.1|9=70|35=0|34=317|49=RHAQA3_INBOUND_001|52=20180814-18:30:40.193|56=TRAXQA3|10=146|8=FIXT.1.1|9=70|35=0|34=318|49=RHAQA3_INBOUND_001|52=20180814-18:31:10.193|56=TRAXQA3|10=145|8=FIXT.1.1|9=70|35=0|34=319|49=RHAQA3_INBOUND_001|52=20180814-18:31:40.193|56=TRAXQA3|10=149|8=FIXT.1.1|9=70|35=0|34=320|49=RHAQA3_INBOUND_001|52=20180814-18:32:11.193|56=TRAXQA3|10=140|8=FIXT.1.1|9=70|35=0|34=321|49=RHAQA3_INBOUND_001|52=20180814-18:32:42.192|56=TRAXQA3|10=144|8=FIXT.1.1|9=70|35=0|34=322|49=RHAQA3_INBOUND_001|52=20180814-18:33:12.192|56=TRAXQA3|10=143|8=FIXT.1.1|9=70|35=0|34=323|49=RHAQA3_INBOUND_001|52=20180814-18:33:42.192|56=TRAXQA3|10=147|8=FIXT.1.1|9=70|35=0|34=324|49=RHAQA3_INBOUND_001|52=20180814-18:34:12.747|56=TRAXQA3|10=152|8=FIXT.1.1|9=70|35=0|34=325|49=RHAQA3_INBOUND_001|52=20180814-18:34:42.758|56=TRAXQA3|10=158|8=FIXT.1.1|9=70|35=0|34=326|49=RHAQA3_INBOUND_001|52=20180814-18:35:13.193|56=TRAXQA3|10=151|8=FIXT.1.1|9=70|35=0|34=327|49=RHAQA3_INBOUND_001|52=20180814-18:35:44.193|56=TRAXQA3|10=156|8=FIXT.1.1|9=70|35=0|34=328|49=RHAQA3_INBOUND_001|52=20180814-18:36:15.195|56=TRAXQA3|10=158|8=FIXT.1.1|9=70|35=0|34=329|49=RHAQA3_INBOUND_001|52=20180814-18:36:46.191|56=TRAXQA3|10=159|8=FIXT.1.1|9=70|35=0|34=330|49=RHAQA3_INBOUND_001|52=20180814-18:37:16.191|56=TRAXQA3|10=149|8=FIXT.1.1|9=70|35=0|34=331|49=RHAQA3_INBOUND_001|52=20180814-18:37:46.191|56=TRAXQA3|10=153|8=FIXT.1.1|9=70|35=0|34=332|49=RHAQA3_INBOUND_001|52=20180814-18:38:17.191|56=TRAXQA3|10=153|8=FIXT.1.1|9=70|35=0|34=333|49=RHAQA3_INBOUND_001|52=20180814-18:38:47.193|56=TRAXQA3|10=159|8=FIXT.1.1|9=70|35=0|34=334|49=RHAQA3_INBOUND_001|52=20180814-18:39:18.190|56=TRAXQA3|10=156|8=FIXT.1.1|9=70|35=0|34=335|49=RHAQA3_INBOUND_001|52=20180814-18:39:49.190|56=TRAXQA3|10=161|8=FIXT.1.1|9=70|35=0|34=336|49=RHAQA3_INBOUND_001|52=20180814-18:40:19.194|56=TRAXQA3|10=155|8=FIXT.1.1|9=70|35=0|34=337|49=RHAQA3_INBOUND_001|52=20180814-18:40:50.191|56=TRAXQA3|10=148|8=FIXT.1.1|9=70|35=0|34=338|49=RHAQA3_INBOUND_001|52=20180814-18:41:20.194|56=TRAXQA3|10=150|8=FIXT.1.1|9=70|35=0|34=339|49=RHAQA3_INBOUND_001|52=20180814-18:41:51.189|56=TRAXQA3|10=159|8=FIXT.1.1|9=70|35=0|34=340|49=RHAQA3_INBOUND_001|52=20180814-18:42:21.189|56=TRAXQA3|10=149|8=FIXT.1.1|9=70|35=0|34=341|49=RHAQA3_INBOUND_001|52=20180814-18:42:52.188|56=TRAXQA3|10=153|8=FIXT.1.1|9=70|35=0|34=342|49=RHAQA3_INBOUND_001|52=20180814-18:43:22.188|56=TRAXQA3|10=152|8=FIXT.1.1|9=70|35=0|34=343|49=RHAQA3_INBOUND_001|52=20180814-18:43:52.189|56=TRAXQA3|10=157|8=FIXT.1.1|9=70|35=0|34=344|49=RHAQA3_INBOUND_001|52=20180814-18:44:23.188|56=TRAXQA3|10=156|8=FIXT.1.1|9=70|35=0|34=345|49=RHAQA3_INBOUND_001|52=20180814-18:44:53.189|56=TRAXQA3|10=161|8=FIXT.1.1|9=70|35=0|34=346|49=RHAQA3_INBOUND_001|52=20180814-18:45:24.182|56=TRAXQA3|10=154|8=FIXT.1.1|9=70|35=0|34=347|49=RHAQA3_INBOUND_001|52=20180814-18:45:54.186|56=TRAXQA3|10=162|8=FIXT.1.1|9=70|35=0|34=348|49=RHAQA3_INBOUND_001|52=20180814-18:46:24.189|56=TRAXQA3|10=164|8=FIXT.1.1|9=70|35=0|34=349|49=RHAQA3_INBOUND_001|52=20180814-18:46:55.187|56=TRAXQA3|10=167|8=FIXT.1.1|9=70|35=0|34=350|49=RHAQA3_INBOUND_001|52=20180814-18:47:26.187|56=TRAXQA3|10=158|8=FIXT.1.1|9=70|35=0|34=351|49=RHAQA3_INBOUND_001|52=20180814-18:47:57.178|56=TRAXQA3|10=163|8=FIXT.1.1|9=70|35=0|34=352|49=RHAQA3_INBOUND_001|52=20180814-18:48:27.187|56=TRAXQA3|10=162|8=FIXT.1.1|9=70|35=0|34=353|49=RHAQA3_INBOUND_001|52=20180814-18:48:57.187|56=TRAXQA3|10=166|8=FIXT.1.1|9=70|35=0|34=354|49=RHAQA3_INBOUND_001|52=20180814-18:49:28.189|56=TRAXQA3|10=168|8=FIXT.1.1|9=70|35=0|34=355|49=RHAQA3_INBOUND_001|52=20180814-18:49:59.186|56=TRAXQA3|10=170|8=FIXT.1.1|9=70|35=0|34=356|49=RHAQA3_INBOUND_001|52=20180814-18:50:29.186|56=TRAXQA3|10=160|8=FIXT.1.1|9=70|35=0|34=357|49=RHAQA3_INBOUND_001|52=20180814-18:51:00.185|56=TRAXQA3|10=150|8=FIXT.1.1|9=70|35=0|34=358|49=RHAQA3_INBOUND_001|52=20180814-18:51:30.187|56=TRAXQA3|10=156|8=FIXT.1.1|9=70|35=0|34=359|49=RHAQA3_INBOUND_001|52=20180814-18:52:01.185|56=TRAXQA3|10=154|8=FIXT.1.1|9=70|35=0|34=360|49=RHAQA3_INBOUND_001|52=20180814-18:52:31.185|56=TRAXQA3|10=149|8=FIXT.1.1|9=70|35=0|34=361|49=RHAQA3_INBOUND_001|52=20180814-18:53:01.185|56=TRAXQA3|10=148|8=FIXT.1.1|9=70|35=0|34=362|49=RHAQA3_INBOUND_001|52=20180814-18:53:32.185|56=TRAXQA3|10=153|8=FIXT.1.1|9=70|35=0|34=363|49=RHAQA3_INBOUND_001|52=20180814-18:54:02.187|56=TRAXQA3|10=154|8=FIXT.1.1|9=70|35=0|34=364|49=RHAQA3_INBOUND_001|52=20180814-18:54:33.184|56=TRAXQA3|10=156|8=FIXT.1.1|9=70|35=0|34=365|49=RHAQA3_INBOUND_001|52=20180814-18:55:03.184|56=TRAXQA3|10=155|8=FIXT.1.1|9=70|35=0|34=366|49=RHAQA3_INBOUND_001|52=20180814-18:55:34.173|56=TRAXQA3|10=158|8=FIXT.1.1|9=70|35=0|34=367|49=RHAQA3_INBOUND_001|52=20180814-18:56:04.183|56=TRAXQA3|10=158|8=FIXT.1.1|9=70|35=0|34=368|49=RHAQA3_INBOUND_001|52=20180814-18:56:34.183|56=TRAXQA3|10=162|8=FIXT.1.1|9=70|35=0|34=369|49=RHAQA3_INBOUND_001|52=20180814-18:57:04.184|56=TRAXQA3|10=162|8=FIXT.1.1|9=70|35=0|34=370|49=RHAQA3_INBOUND_001|52=20180814-18:57:35.183|56=TRAXQA3|10=157|8=FIXT.1.1|9=70|35=0|34=371|49=RHAQA3_INBOUND_001|52=20180814-18:58:05.185|56=TRAXQA3|10=158|8=FIXT.1.1|9=70|35=0|34=372|49=RHAQA3_INBOUND_001|52=20180814-18:58:36.183|56=TRAXQA3|10=161|8=FIXT.1.1|9=70|35=0|34=373|49=RHAQA3_INBOUND_001|52=20180814-18:59:07.183|56=TRAXQA3|10=161|8=FIXT.1.1|9=70|35=0|34=374|49=RHAQA3_INBOUND_001|52=20180814-18:59:38.182|56=TRAXQA3|10=165|8=FIXT.1.1|9=70|35=0|34=375|49=RHAQA3_INBOUND_001|52=20180814-19:00:08.182|56=TRAXQA3|10=150|8=FIXT.1.1|9=70|35=0|34=376|49=RHAQA3_INBOUND_001|52=20180814-19:00:39.182|56=TRAXQA3|10=155|8=FIXT.1.1|9=70|35=0|34=377|49=RHAQA3_INBOUND_001|52=20180814-19:01:09.182|56=TRAXQA3|10=154|8=FIXT.1.1|9=70|35=0|34=378|49=RHAQA3_INBOUND_001|52=20180814-19:01:40.182|56=TRAXQA3|10=150|8=FIXT.1.1|9=70|35=0|34=379|49=RHAQA3_INBOUND_001|52=20180814-19:02:10.183|56=TRAXQA3|10=150|8=FIXT.1.1|9=70|35=0|34=380|49=RHAQA3_INBOUND_001|52=20180814-19:02:41.181|56=TRAXQA3|10=144|8=FIXT.1.1|9=70|35=0|34=381|49=RHAQA3_INBOUND_001|52=20180814-19:03:11.185|56=TRAXQA3|10=147|8=FIXT.1.1|9=70|35=0|34=382|49=RHAQA3_INBOUND_001|52=20180814-19:03:42.181|56=TRAXQA3|10=148|8=FIXT.1.1|9=70|35=0|34=383|49=RHAQA3_INBOUND_001|52=20180814-19:04:12.181|56=TRAXQA3|10=147|8=FIXT.1.1|9=70|35=0|34=384|49=RHAQA3_INBOUND_001|52=20180814-19:04:42.181|56=TRAXQA3|10=151|8=FIXT.1.1|9=70|35=0|34=385|49=RHAQA3_INBOUND_001|52=20180814-19:05:12.751|56=TRAXQA3|10=153|8=FIXT.1.1|9=70|35=0|34=386|49=RHAQA3_INBOUND_001|52=20180814-19:05:42.751|56=TRAXQA3|10=157|8=FIXT.1.1|9=70|35=0|34=387|49=RHAQA3_INBOUND_001|52=20180814-19:06:13.169|56=TRAXQA3|10=160|8=FIXT.1.1|9=70|35=0|34=388|49=RHAQA3_INBOUND_001|52=20180814-19:06:43.181|56=TRAXQA3|10=158|8=FIXT.1.1|9=70|35=0|34=389|49=RHAQA3_INBOUND_001|52=20180814-19:07:14.178|56=TRAXQA3|10=164|8=FIXT.1.1|9=70|35=0|34=390|49=RHAQA3_INBOUND_001|52=20180814-19:07:44.179|56=TRAXQA3|10=160|8=FIXT.1.1|9=70|35=0|34=391|49=RHAQA3_INBOUND_001|52=20180814-19:08:14.179|56=TRAXQA3|10=159|8=FIXT.1.1|9=70|35=0|34=392|49=RHAQA3_INBOUND_001|52=20180814-19:08:45.179|56=TRAXQA3|10=164|8=FIXT.1.1|9=70|35=0|34=393|49=RHAQA3_INBOUND_001|52=20180814-19:09:15.179|56=TRAXQA3|10=163|8=FIXT.1.1|9=70|35=0|34=394|49=RHAQA3_INBOUND_001|52=20180814-19:09:46.178|56=TRAXQA3|10=167|8=FIXT.1.1|9=70|35=0|34=395|49=RHAQA3_INBOUND_001|52=20180814-19:10:16.181|56=TRAXQA3|10=151|8=FIXT.1.1|9=70|35=0|34=396|49=RHAQA3_INBOUND_001|52=20180814-19:10:47.178|56=TRAXQA3|10=162|8=FIXT.1.1|9=70|35=0|34=397|49=RHAQA3_INBOUND_001|52=20180814-19:11:17.178|56=TRAXQA3|10=161|8=FIXT.1.1|9=70|35=0|34=398|49=RHAQA3_INBOUND_001|52=20180814-19:11:48.181|56=TRAXQA3|10=160|8=FIXT.1.1|9=70|35=0|34=399|49=RHAQA3_INBOUND_001|52=20180814-19:12:19.177|56=TRAXQA3|10=165|8=FIXT.1.1|9=70|35=0|34=400|49=RHAQA3_INBOUND_001|52=20180814-19:12:49.177|56=TRAXQA3|10=151|8=FIXT.1.1|9=70|35=0|34=401|49=RHAQA3_INBOUND_001|52=20180814-19:13:19.182|56=TRAXQA3|10=146|8=FIXT.1.1|9=70|35=0|34=402|49=RHAQA3_INBOUND_001|52=20180814-19:13:50.177|56=TRAXQA3|10=146|8=FIXT.1.1|9=70|35=0|34=403|49=RHAQA3_INBOUND_001|52=20180814-19:14:20.177|56=TRAXQA3|10=145|8=FIXT.1.1|9=70|35=0|34=404|49=RHAQA3_INBOUND_001|52=20180814-19:14:50.177|56=TRAXQA3|10=149|8=FIXT.1.1|9=70|35=0|34=405|49=RHAQA3_INBOUND_001|52=20180814-19:15:21.176|56=TRAXQA3|10=148|8=FIXT.1.1|9=70|35=0|34=406|49=RHAQA3_INBOUND_001|52=20180814-19:15:51.176|56=TRAXQA3|10=152|8=FIXT.1.1|9=70|35=0|34=407|49=RHAQA3_INBOUND_001|52=20180814-19:16:22.170|56=TRAXQA3|10=146|8=FIXT.1.1|9=70|35=0|34=408|49=RHAQA3_INBOUND_001|52=20180814-19:16:52.171|56=TRAXQA3|10=151|8=FIXT.1.1|9=70|35=0|34=409|49=RHAQA3_INBOUND_001|52=20180814-19:17:23.176|56=TRAXQA3|10=156|8=FIXT.1.1|9=70|35=0|34=410|49=RHAQA3_INBOUND_001|52=20180814-19:17:53.176|56=TRAXQA3|10=151|8=FIXT.1.1|9=70|35=0|34=411|49=RHAQA3_INBOUND_001|52=20180814-19:18:24.175|56=TRAXQA3|10=150|8=FIXT.1.1|9=70|35=0|34=412|49=RHAQA3_INBOUND_001|52=20180814-19:18:54.175|56=TRAXQA3|10=154|8=FIXT.1.1|9=70|35=0|34=413|49=RHAQA3_INBOUND_001|52=20180814-19:19:24.175|56=TRAXQA3|10=153|8=FIXT.1.1|9=70|35=0|34=414|49=RHAQA3_INBOUND_001|52=20180814-19:19:54.175|56=TRAXQA3|10=157|8=FIXT.1.1|9=70|35=0|34=415|49=RHAQA3_INBOUND_001|52=20180814-19:20:25.177|56=TRAXQA3|10=150|8=FIXT.1.1|9=70|35=0|34=416|49=RHAQA3_INBOUND_001|52=20180814-19:20:56.174|56=TRAXQA3|10=152|8=FIXT.1.1|9=70|35=0|34=417|49=RHAQA3_INBOUND_001|52=20180814-19:21:26.174|56=TRAXQA3|10=151|8=FIXT.1.1|9=70|35=0|34=418|49=RHAQA3_INBOUND_001|52=20180814-19:21:57.170|56=TRAXQA3|10=152|8=FIXT.1.1|9=70|35=0|34=419|49=RHAQA3_INBOUND_001|52=20180814-19:22:27.174|56=TRAXQA3|10=155|8=FIXT.1.1|9=70|35=0|34=420|49=RHAQA3_INBOUND_001|52=20180814-19:22:57.178|56=TRAXQA3|10=154|8=FIXT.1.1|9=70|35=0|34=421|49=RHAQA3_INBOUND_001|52=20180814-19:23:28.173|56=TRAXQA3|10=149|8=FIXT.1.1|9=70|35=0|34=422|49=RHAQA3_INBOUND_001|52=20180814-19:23:58.175|56=TRAXQA3|10=155|8=FIXT.1.1|9=70|35=0|34=423|49=RHAQA3_INBOUND_001|52=20180814-19:24:29.173|56=TRAXQA3|10=153|8=FIXT.1.1|9=70|35=0|34=424|49=RHAQA3_INBOUND_001|52=20180814-19:24:59.173|56=TRAXQA3|10=157|8=FIXT.1.1|9=70|35=0|34=425|49=RHAQA3_INBOUND_001|52=20180814-19:25:29.173|56=TRAXQA3|10=156|8=FIXT.1.1|9=70|35=0|34=426|49=RHAQA3_INBOUND_001|52=20180814-19:26:00.163|56=TRAXQA3|10=146|8=FIXT.1.1|9=70|35=0|34=427|49=RHAQA3_INBOUND_001|52=20180814-19:26:30.175|56=TRAXQA3|10=153|8=FIXT.1.1|9=70|35=0|34=428|49=RHAQA3_INBOUND_001|52=20180814-19:27:01.172|56=TRAXQA3|10=150|8=FIXT.1.1|9=70|35=0|34=429|49=RHAQA3_INBOUND_001|52=20180814-19:27:32.172|56=TRAXQA3|10=155|8=FIXT.1.1|9=70|35=0|34=430|49=RHAQA3_INBOUND_001|52=20180814-19:28:02.172|56=TRAXQA3|10=145|8=FIXT.1.1|9=70|35=0|34=431|49=RHAQA3_INBOUND_001|52=20180814-19:28:33.173|56=TRAXQA3|10=151|8=FIXT.1.1|9=70|35=0|34=432|49=RHAQA3_INBOUND_001|52=20180814-19:29:04.171|56=TRAXQA3|10=149|8=FIXT.1.1|9=70|35=0|34=433|49=RHAQA3_INBOUND_001|52=20180814-19:29:35.171|56=TRAXQA3|10=154|8=FIXT.1.1|9=70|35=0|34=434|49=RHAQA3_INBOUND_001|52=20180814-19:30:05.171|56=TRAXQA3|10=144|8=FIXT.1.1|9=70|35=0|34=435|49=RHAQA3_INBOUND_001|52=20180814-19:30:36.171|56=TRAXQA3|10=149|8=FIXT.1.1|9=70|35=0|34=436|49=RHAQA3_INBOUND_001|52=20180814-19:31:06.171|56=TRAXQA3|10=148|8=FIXT.1.1|9=70|35=0|34=437|49=RHAQA3_INBOUND_001|52=20180814-19:31:36.172|56=TRAXQA3|10=153|8=FIXT.1.1|9=70|35=0|34=438|49=RHAQA3_INBOUND_001|52=20180814-19:32:07.170|56=TRAXQA3|10=151|8=FIXT.1.1|9=70|35=0|34=439|49=RHAQA3_INBOUND_001|52=20180814-19:32:38.159|56=TRAXQA3|10=163|8=FIXT.1.1|9=70|35=0|34=440|49=RHAQA3_INBOUND_001|52=20180814-19:33:08.170|56=TRAXQA3|10=146|8=FIXT.1.1|9=70|35=0|34=441|49=RHAQA3_INBOUND_001|52=20180814-19:33:38.170|56=TRAXQA3|10=150|8=FIXT.1.1|9=70|35=0|34=442|49=RHAQA3_INBOUND_001|52=20180814-19:34:09.169|56=TRAXQA3|10=158|8=FIXT.1.1|9=70|35=0|34=443|49=RHAQA3_INBOUND_001|52=20180814-19:34:39.169|56=TRAXQA3|10=162|8=FIXT.1.1|9=70|35=0|34=444|49=RHAQA3_INBOUND_001|52=20180814-19:35:10.168|56=TRAXQA3|10=152|8=FIXT.1.1|9=70|35=0|34=445|49=RHAQA3_INBOUND_001|52=20180814-19:35:40.172|56=TRAXQA3|10=151|8=FIXT.1.1|9=70|35=0|34=446|49=RHAQA3_INBOUND_001|52=20180814-19:36:11.169|56=TRAXQA3|10=157|8=FIXT.1.1|9=70|35=0|34=447|49=RHAQA3_INBOUND_001|52=20180814-19:36:42.168|56=TRAXQA3|10=161|8=FIXT.1.1|9=70|35=0|34=448|49=RHAQA3_INBOUND_001|52=20180814-19:37:12.168|56=TRAXQA3|10=160|8=FIXT.1.1|9=70|35=0|34=449|49=RHAQA3_INBOUND_001|52=20180814-19:37:42.168|56=TRAXQA3|10=164|8=FIXT.1.1|9=70|35=0|34=450|49=RHAQA3_INBOUND_001|52=20180814-19:38:13.168|56=TRAXQA3|10=155|8=FIXT.1.1|9=70|35=0|34=451|49=RHAQA3_INBOUND_001|52=20180814-19:38:43.738|56=TRAXQA3|10=162|8=FIXT.1.1|9=70|35=0|34=452|49=RHAQA3_INBOUND_001|52=20180814-19:39:14.166|56=TRAXQA3|10=157|8=FIXT.1.1|9=70|35=0|34=453|49=RHAQA3_INBOUND_001|52=20180814-19:39:44.167|56=TRAXQA3|10=162|8=FIXT.1.1|9=70|35=0|34=454|49=RHAQA3_INBOUND_001|52=20180814-19:40:14.167|56=TRAXQA3|10=152|8=FIXT.1.1|9=70|35=0|34=455|49=RHAQA3_INBOUND_001|52=20180814-19:40:44.167|56=TRAXQA3|10=156|8=FIXT.1.1|9=70|35=0|34=456|49=RHAQA3_INBOUND_001|52=20180814-19:41:14.167|56=TRAXQA3|10=155|8=FIXT.1.1|9=70|35=0|34=457|49=RHAQA3_INBOUND_001|52=20180814-19:41:45.166|56=TRAXQA3|10=159|8=FIXT.1.1|9=70|35=0|34=458|49=RHAQA3_INBOUND_001|52=20180814-19:42:15.166|56=TRAXQA3|10=158|8=FIXT.1.1|9=70|35=0|34=459|49=RHAQA3_INBOUND_001|52=20180814-19:42:45.166|56=TRAXQA3|10=162|8=FIXT.1.1|9=70|35=0|34=460|49=RHAQA3_INBOUND_001|52=20180814-19:43:16.160|56=TRAXQA3|10=147|8=FIXT.1.1|9=70|35=0|34=461|49=RHAQA3_INBOUND_001|52=20180814-19:43:46.166|56=TRAXQA3|10=157|8=FIXT.1.1|9=70|35=0|34=462|49=RHAQA3_INBOUND_001|52=20180814-19:44:17.165|56=TRAXQA3|10=156|8=FIXT.1.1|9=70|35=0|34=463|49=RHAQA3_INBOUND_001|52=20180814-19:44:47.165|56=TRAXQA3|10=160|8=FIXT.1.1|9=70|35=0|34=464|49=RHAQA3_INBOUND_001|52=20180814-19:45:17.165|56=TRAXQA3|10=159|8=FIXT.1.1|9=70|35=0|34=465|49=RHAQA3_INBOUND_001|52=20180814-19:45:47.165|56=TRAXQA3|10=163|8=FIXT.1.1|9=70|35=0|34=466|49=RHAQA3_INBOUND_001|52=20180814-19:46:17.168|56=TRAXQA3|10=165|8=FIXT.1.1|9=70|35=0|34=467|49=RHAQA3_INBOUND_001|52=20180814-19:46:48.165|56=TRAXQA3|10=167|8=FIXT.1.1|9=70|35=0|34=468|49=RHAQA3_INBOUND_001|52=20180814-19:47:19.164|56=TRAXQA3|10=166|8=FIXT.1.1|9=70|35=0|34=469|49=RHAQA3_INBOUND_001|52=20180814-19:47:49.164|56=TRAXQA3|10=170|8=FIXT.1.1|9=70|35=0|34=470|49=RHAQA3_INBOUND_001|52=20180814-19:48:20.163|56=TRAXQA3|10=151|8=FIXT.1.1|9=70|35=0|34=471|49=RHAQA3_INBOUND_001|52=20180814-19:48:50.164|56=TRAXQA3|10=156|8=FIXT.1.1|9=70|35=0|34=472|49=RHAQA3_INBOUND_001|52=20180814-19:49:21.166|56=TRAXQA3|10=158|8=FIXT.1.1|9=70|35=0|34=473|49=RHAQA3_INBOUND_001|52=20180814-19:49:52.167|56=TRAXQA3|10=164|8=FIXT.1.1|9=70|35=0|34=474|49=RHAQA3_INBOUND_001|52=20180814-19:50:23.163|56=TRAXQA3|10=151|8=FIXT.1.1|9=70|35=0|34=475|49=RHAQA3_INBOUND_001|52=20180814-19:50:53.163|56=TRAXQA3|10=155|8=FIXT.1.1|9=70|35=0|34=476|49=RHAQA3_INBOUND_001|52=20180814-19:51:23.163|56=TRAXQA3|10=154|8=FIXT.1.1|9=70|35=0|34=477|49=RHAQA3_INBOUND_001|52=20180814-19:51:53.163|56=TRAXQA3|10=158|8=FIXT.1.1|9=70|35=0|34=478|49=RHAQA3_INBOUND_001|52=20180814-19:52:23.163|56=TRAXQA3|10=157|8=FIXT.1.1|9=70|35=0|34=479|49=RHAQA3_INBOUND_001|52=20180814-19:52:53.163|56=TRAXQA3|10=161|8=FIXT.1.1|9=70|35=0|34=480|49=RHAQA3_INBOUND_001|52=20180814-19:53:23.163|56=TRAXQA3|10=151|8=FIXT.1.1|9=70|35=0|34=481|49=RHAQA3_INBOUND_001|52=20180814-19:53:53.163|56=TRAXQA3|10=155|8=FIXT.1.1|9=70|35=0|34=482|49=RHAQA3_INBOUND_001|52=20180814-19:54:23.164|56=TRAXQA3|10=155|8=FIXT.1.1|9=70|35=0|34=483|49=RHAQA3_INBOUND_001|52=20180814-19:54:54.163|56=TRAXQA3|10=159|8=FIXT.1.1|9=70|35=0|34=484|49=RHAQA3_INBOUND_001|52=20180814-19:55:24.165|56=TRAXQA3|10=160|8=FIXT.1.1|9=70|35=0|34=485|49=RHAQA3_INBOUND_001|52=20180814-19:55:55.165|56=TRAXQA3|10=165|8=FIXT.1.1|9=70|35=0|34=486|49=RHAQA3_INBOUND_001|52=20180814-19:56:25.166|56=TRAXQA3|10=165|8=FIXT.1.1|9=70|35=0|34=487|49=RHAQA3_INBOUND_001|52=20180814-19:56:56.163|56=TRAXQA3|10=167|8=FIXT.1.1|9=70|35=0|34=488|49=RHAQA3_INBOUND_001|52=20180814-19:57:27.162|56=TRAXQA3|10=166|8=FIXT.1.1|9=70|35=0|34=489|49=RHAQA3_INBOUND_001|52=20180814-19:57:57.162|56=TRAXQA3|10=170|8=FIXT.1.1|9=70|35=0|34=490|49=RHAQA3_INBOUND_001|52=20180814-19:58:28.165|56=TRAXQA3|10=164|8=FIXT.1.1|9=70|35=0|34=491|49=RHAQA3_INBOUND_001|52=20180814-19:58:59.162|56=TRAXQA3|10=166|8=FIXT.1.1|9=70|35=0|34=492|49=RHAQA3_INBOUND_001|52=20180814-19:59:30.162|56=TRAXQA3|10=157|8=FIXT.1.1|9=70|35=0|34=493|49=RHAQA3_INBOUND_001|52=20180814-20:00:00.164|56=TRAXQA3|10=135|8=FIXT.1.1|9=70|35=0|34=494|49=RHAQA3_INBOUND_001|52=20180814-20:00:31.161|56=TRAXQA3|10=137|8=FIXT.1.1|9=70|35=0|34=495|49=RHAQA3_INBOUND_001|52=20180814-20:01:01.161|56=TRAXQA3|10=136|8=FIXT.1.1|9=70|35=0|34=496|49=RHAQA3_INBOUND_001|52=20180814-20:01:31.161|56=TRAXQA3|10=140|8=FIXT.1.1|9=70|35=0|34=497|49=RHAQA3_INBOUND_001|52=20180814-20:02:01.164|56=TRAXQA3|10=142|8=FIXT.1.1|9=70|35=0|34=498|49=RHAQA3_INBOUND_001|52=20180814-20:02:32.151|56=TRAXQA3|10=143|8=FIXT.1.1|9=70|35=0|34=499|49=RHAQA3_INBOUND_001|52=20180814-20:03:02.161|56=TRAXQA3|10=143|8=FIXT.1.1|9=70|35=0|34=500|49=RHAQA3_INBOUND_001|52=20180814-20:03:32.161|56=TRAXQA3|10=129|8=FIXT.1.1|9=70|35=0|34=501|49=RHAQA3_INBOUND_001|52=20180814-20:04:02.166|56=TRAXQA3|10=133|8=FIXT.1.1|9=70|35=0|34=502|49=RHAQA3_INBOUND_001|52=20180814-20:04:33.151|56=TRAXQA3|10=132|8=FIXT.1.1|9=70|35=0|34=503|49=RHAQA3_INBOUND_001|52=20180814-20:05:03.161|56=TRAXQA3|10=132|8=FIXT.1.1|9=70|35=0|34=504|49=RHAQA3_INBOUND_001|52=20180814-20:05:33.161|56=TRAXQA3|10=136|8=FIXT.1.1|9=70|35=0|34=505|49=RHAQA3_INBOUND_001|52=20180814-20:06:03.161|56=TRAXQA3|10=135|8=FIXT.1.1|9=70|35=0|34=506|49=RHAQA3_INBOUND_001|52=20180814-20:06:33.161|56=TRAXQA3|10=139|8=FIXT.1.1|9=70|35=0|34=507|49=RHAQA3_INBOUND_001|52=20180814-20:07:03.161|56=TRAXQA3|10=138|8=FIXT.1.1|9=70|35=0|34=508|49=RHAQA3_INBOUND_001|52=20180814-20:07:33.161|56=TRAXQA3|10=142|8=FIXT.1.1|9=70|35=0|34=509|49=RHAQA3_INBOUND_001|52=20180814-20:08:03.161|56=TRAXQA3|10=141|8=FIXT.1.1|9=70|35=0|34=510|49=RHAQA3_INBOUND_001|52=20180814-20:08:33.164|56=TRAXQA3|10=139|8=FIXT.1.1|9=70|35=0|34=511|49=RHAQA3_INBOUND_001|52=20180814-20:09:04.165|56=TRAXQA3|10=140|8=FIXT.1.1|9=70|35=0|34=512|49=RHAQA3_INBOUND_001|52=20180814-20:09:35.161|56=TRAXQA3|10=141|8=FIXT.1.1|9=70|35=0|34=513|49=RHAQA3_INBOUND_001|52=20180814-20:10:05.161|56=TRAXQA3|10=131|8=FIXT.1.1|9=70|35=0|34=514|49=RHAQA3_INBOUND_001|52=20180814-20:10:35.161|56=TRAXQA3|10=135|8=FIXT.1.1|9=70|35=0|34=515|49=RHAQA3_INBOUND_001|52=20180814-20:11:05.161|56=TRAXQA3|10=134|8=FIXT.1.1|9=70|35=0|34=516|49=RHAQA3_INBOUND_001|52=20180814-20:11:36.161|56=TRAXQA3|10=139|8=FIXT.1.1|9=70|35=0|34=517|49=RHAQA3_INBOUND_001|52=20180814-20:12:06.161|56=TRAXQA3|10=138|8=FIXT.1.1|9=70|35=0|34=518|49=RHAQA3_INBOUND_001|52=20180814-20:12:36.164|56=TRAXQA3|10=145|8=FIXT.1.1|9=70|35=0|34=519|49=RHAQA3_INBOUND_001|52=20180814-20:13:07.160|56=TRAXQA3|10=141|8=FIXT.1.1|9=70|35=0|34=520|49=RHAQA3_INBOUND_001|52=20180814-20:13:37.160|56=TRAXQA3|10=136|8=FIXT.1.1|9=70|35=0|34=521|49=RHAQA3_INBOUND_001|52=20180814-20:14:08.160|56=TRAXQA3|10=136|8=FIXT.1.1|9=70|35=0|34=522|49=RHAQA3_INBOUND_001|52=20180814-20:14:39.151|56=TRAXQA3|10=141|8=FIXT.1.1|9=70|35=0|34=523|49=RHAQA3_INBOUND_001|52=20180814-20:15:09.161|56=TRAXQA3|10=141|8=FIXT.1.1|9=70|35=0|34=524|49=RHAQA3_INBOUND_001|52=20180814-20:15:40.155|56=TRAXQA3|10=140|8=FIXT.1.1|9=70|35=0|34=525|49=RHAQA3_INBOUND_001|52=20180814-20:16:10.159|56=TRAXQA3|10=143|8=FIXT.1.1|9=70|35=0|34=526|49=RHAQA3_INBOUND_001|52=20180814-20:16:41.160|56=TRAXQA3|10=140|8=FIXT.1.1|9=70|35=0|34=527|49=RHAQA3_INBOUND_001|52=20180814-20:17:12.159|56=TRAXQA3|10=148|8=FIXT.1.1|9=70|35=0|34=528|49=RHAQA3_INBOUND_001|52=20180814-20:17:42.159|56=TRAXQA3|10=152|8=FIXT.1.1|9=70|35=0|34=529|49=RHAQA3_INBOUND_001|52=20180814-20:18:12.160|56=TRAXQA3|10=143|8=FIXT.1.1|9=70|35=0|34=530|49=RHAQA3_INBOUND_001|52=20180814-20:18:43.160|56=TRAXQA3|10=139|8=FIXT.1.1|9=70|35=0|34=531|49=RHAQA3_INBOUND_001|52=20180814-20:19:13.162|56=TRAXQA3|10=140|8=FIXT.1.1|9=70|35=0|34=532|49=RHAQA3_INBOUND_001|52=20180814-20:19:44.160|56=TRAXQA3|10=143|8=FIXT.1.1|9=70|35=0|34=533|49=RHAQA3_INBOUND_001|52=20180814-20:20:14.732|56=TRAXQA3|10=138|8=FIXT.1.1|9=70|35=0|34=534|49=RHAQA3_INBOUND_001|52=20180814-20:20:44.746|56=TRAXQA3|10=147|8=FIXT.1.1|9=70|35=0|34=535|49=RHAQA3_INBOUND_001|52=20180814-20:21:15.163|56=TRAXQA3|10=140|8=FIXT.1.1|9=70|35=0|34=536|49=RHAQA3_INBOUND_001|52=20180814-20:21:45.163|56=TRAXQA3|10=144|8=FIXT.1.1|9=70|35=0|34=537|49=RHAQA3_INBOUND_001|52=20180814-20:22:16.160|56=TRAXQA3|10=141|8=FIXT.1.1|9=70|35=0|34=538|49=RHAQA3_INBOUND_001|52=20180814-20:22:47.159|56=TRAXQA3|10=154|8=FIXT.1.1|9=70|35=0|34=539|49=RHAQA3_INBOUND_001|52=20180814-20:23:17.161|56=TRAXQA3|10=146|8=FIXT.1.1|9=70|35=0|34=540|49=RHAQA3_INBOUND_001|52=20180814-20:23:48.159|56=TRAXQA3|10=149|8=FIXT.1.1|9=70|35=0|34=541|49=RHAQA3_INBOUND_001|52=20180814-20:24:19.159|56=TRAXQA3|10=149|8=FIXT.1.1|9=70|35=0|34=542|49=RHAQA3_INBOUND_001|52=20180814-20:24:49.163|56=TRAXQA3|10=148|8=FIXT.1.1|9=70|35=0|34=543|49=RHAQA3_INBOUND_001|52=20180814-20:25:20.159|56=TRAXQA3|10=144|8=FIXT.1.1|9=70|35=0|34=544|49=RHAQA3_INBOUND_001|52=20180814-20:25:50.159|56=TRAXQA3|10=148|8=FIXT.1.1|9=70|35=0|34=545|49=RHAQA3_INBOUND_001|52=20180814-20:26:20.159|56=TRAXQA3|10=147|8=FIXT.1.1|9=70|35=0|34=546|49=RHAQA3_INBOUND_001|52=20180814-20:26:50.159|56=TRAXQA3|10=151|8=FIXT.1.1|9=70|35=0|34=547|49=RHAQA3_INBOUND_001|52=20180814-20:27:20.160|56=TRAXQA3|10=142|8=FIXT.1.1|9=70|35=0|34=548|49=RHAQA3_INBOUND_001|52=20180814-20:27:51.160|56=TRAXQA3|10=147|8=FIXT.1.1|9=70|35=0|34=549|49=RHAQA3_INBOUND_001|52=20180814-20:28:22.159|56=TRAXQA3|10=155|8=FIXT.1.1|9=70|35=0|34=550|49=RHAQA3_INBOUND_001|52=20180814-20:28:53.151|56=TRAXQA3|10=143|8=FIXT.1.1|9=70|35=0|34=551|49=RHAQA3_INBOUND_001|52=20180814-20:29:23.162|56=TRAXQA3|10=144|8=FIXT.1.1|9=70|35=0|34=552|49=RHAQA3_INBOUND_001|52=20180814-20:29:54.164|56=TRAXQA3|10=151|8=FIXT.1.1|9=70|35=0|34=553|49=RHAQA3_INBOUND_001|52=20180814-20:30:25.159|56=TRAXQA3|10=146|8=FIXT.1.1|9=70|35=0|34=554|49=RHAQA3_INBOUND_001|52=20180814-20:30:55.159|56=TRAXQA3|10=150|8=FIXT.1.1|9=70|35=0|34=555|49=RHAQA3_INBOUND_001|52=20180814-20:31:25.159|56=TRAXQA3|10=149|8=FIXT.1.1|9=70|35=0|34=556|49=RHAQA3_INBOUND_001|52=20180814-20:31:56.162|56=TRAXQA3|10=148|8=FIXT.1.1|9=70|35=0|34=557|49=RHAQA3_INBOUND_001|52=20180814-20:32:26.162|56=TRAXQA3|10=147|8=FIXT.1.1|9=70|35=0|34=558|49=RHAQA3_INBOUND_001|52=20180814-20:32:57.158|56=TRAXQA3|10=157|8=FIXT.1.1|9=70|35=0|34=559|49=RHAQA3_INBOUND_001|52=20180814-20:33:27.160|56=TRAXQA3|10=149|8=FIXT.1.1|9=70|35=0|34=560|49=RHAQA3_INBOUND_001|52=20180814-20:33:58.158|56=TRAXQA3|10=152|8=FIXT.1.1|9=70|35=0|34=561|49=RHAQA3_INBOUND_001|52=20180814-20:34:29.157|56=TRAXQA3|10=151|8=FIXT.1.1|9=70|35=0|34=562|49=RHAQA3_INBOUND_001|52=20180814-20:34:59.161|56=TRAXQA3|10=150|8=FIXT.1.1|9=70|35=0|34=563|49=RHAQA3_INBOUND_001|52=20180814-20:35:30.158|56=TRAXQA3|10=147|8=FIXT.1.1|9=70|35=0|34=564|49=RHAQA3_INBOUND_001|52=20180814-20:36:01.158|56=TRAXQA3|10=147|8=FIXT.1.1|9=70|35=0|34=565|49=RHAQA3_INBOUND_001|52=20180814-20:36:32.159|56=TRAXQA3|10=153|8=FIXT.1.1|9=70|35=0|34=566|49=RHAQA3_INBOUND_001|52=20180814-20:37:02.162|56=TRAXQA3|10=146|8=FIXT.1.1|9=70|35=0|34=567|49=RHAQA3_INBOUND_001|52=20180814-20:37:33.157|56=TRAXQA3|10=155|8=FIXT.1.1|9=70|35=0|34=568|49=RHAQA3_INBOUND_001|52=20180814-20:38:03.157|56=TRAXQA3|10=154|8=FIXT.1.1|9=70|35=0|34=569|49=RHAQA3_INBOUND_001|52=20180814-20:38:33.158|56=TRAXQA3|10=159|8=FIXT.1.1|9=70|35=0|34=570|49=RHAQA3_INBOUND_001|52=20180814-20:39:04.158|56=TRAXQA3|10=150|8=FIXT.1.1|9=70|35=0|34=571|49=RHAQA3_INBOUND_001|52=20180814-20:39:34.158|56=TRAXQA3|10=154|8=FIXT.1.1|9=70|35=0|34=572|49=RHAQA3_INBOUND_001|52=20180814-20:40:05.157|56=TRAXQA3|10=144|8=FIXT.1.1|9=70|35=0|34=573|49=RHAQA3_INBOUND_001|52=20180814-20:40:35.161|56=TRAXQA3|10=143|8=FIXT.1.1|9=70|35=0|34=574|49=RHAQA3_INBOUND_001|52=20180814-20:41:06.158|56=TRAXQA3|10=149|8=FIXT.1.1|9=70|35=0|34=575|49=RHAQA3_INBOUND_001|52=20180814-20:41:36.158|56=TRAXQA3|10=153|8=FIXT.1.1|9=70|35=0|34=576|49=RHAQA3_INBOUND_001|52=20180814-20:42:07.161|56=TRAXQA3|10=147|8=FIXT.1.1|9=70|35=0|34=577|49=RHAQA3_INBOUND_001|52=20180814-20:42:38.158|56=TRAXQA3|10=158|8=FIXT.1.1|9=70|35=0|34=578|49=RHAQA3_INBOUND_001|52=20180814-20:43:09.158|56=TRAXQA3|10=158|8=FIXT.1.1|9=70|35=0|34=579|49=RHAQA3_INBOUND_001|52=20180814-20:43:40.162|56=TRAXQA3|10=149|8=FIXT.1.1|9=70|35=0|34=580|49=RHAQA3_INBOUND_001|52=20180814-20:44:11.158|56=TRAXQA3|10=145|8=FIXT.1.1|9=70|35=0|34=581|49=RHAQA3_INBOUND_001|52=20180814-20:44:41.158|56=TRAXQA3|10=149|8=FIXT.1.1|9=70|35=0|34=582|49=RHAQA3_INBOUND_001|52=20180814-20:45:11.158|56=TRAXQA3|10=148|8=FIXT.1.1|9=70|35=0|34=583|49=RHAQA3_INBOUND_001|52=20180814-20:45:42.157|56=TRAXQA3|10=152|8=FIXT.1.1|9=70|35=0|34=584|49=RHAQA3_INBOUND_001|52=20180814-20:46:13.158|56=TRAXQA3|10=153|8=FIXT.1.1|9=70|35=0|34=585|49=RHAQA3_INBOUND_001|52=20180814-20:46:43.161|56=TRAXQA3|10=151|8=FIXT.1.1|9=70|35=0|34=586|49=RHAQA3_INBOUND_001|52=20180814-20:47:14.158|56=TRAXQA3|10=157|8=FIXT.1.1|9=70|35=0|34=587|49=RHAQA3_INBOUND_001|52=20180814-20:47:44.158|56=TRAXQA3|10=161|8=FIXT.1.1|9=70|35=0|34=588|49=RHAQA3_INBOUND_001|52=20180814-20:48:14.162|56=TRAXQA3|10=155|8=FIXT.1.1|9=70|35=0|34=589|49=RHAQA3_INBOUND_001|52=20180814-20:48:45.158|56=TRAXQA3|10=165|8=FIXT.1.1|9=70|35=0|34=590|49=RHAQA3_INBOUND_001|52=20180814-20:49:15.158|56=TRAXQA3|10=155|8=FIXT.1.1|9=70|35=0|34=591|49=RHAQA3_INBOUND_001|52=20180814-20:49:45.744|56=TRAXQA3|10=160|8=FIXT.1.1|9=70|35=0|34=592|49=RHAQA3_INBOUND_001|52=20180814-20:50:15.747|56=TRAXQA3|10=153|8=FIXT.1.1|9=70|35=0|34=593|49=RHAQA3_INBOUND_001|52=20180814-20:50:46.160|56=TRAXQA3|10=147|8=FIXT.1.1|9=70|35=0|34=594|49=RHAQA3_INBOUND_001|52=20180814-20:51:17.157|56=TRAXQA3|10=153|8=FIXT.1.1|9=70|35=0|34=595|49=RHAQA3_INBOUND_001|52=20180814-20:51:47.157|56=TRAXQA3|10=157|8=FIXT.1.1|9=70|35=0|34=596|49=RHAQA3_INBOUND_001|52=20180814-20:52:17.161|56=TRAXQA3|10=151|8=FIXT.1.1|9=70|35=0|34=597|49=RHAQA3_INBOUND_001|52=20180814-20:52:48.156|56=TRAXQA3|10=160|8=FIXT.1.1|9=70|35=0|34=598|49=RHAQA3_INBOUND_001|52=20180814-20:53:18.156|56=TRAXQA3|10=159|8=FIXT.1.1|9=70|35=0|34=599|49=RHAQA3_INBOUND_001|52=20180814-20:53:48.156|56=TRAXQA3|10=163|8=FIXT.1.1|9=70|35=0|34=600|49=RHAQA3_INBOUND_001|52=20180814-20:54:18.156|56=TRAXQA3|10=144|8=FIXT.1.1|9=70|35=0|34=601|49=RHAQA3_INBOUND_001|52=20180814-20:54:49.155|56=TRAXQA3|10=148|8=FIXT.1.1|9=70|35=0|34=602|49=RHAQA3_INBOUND_001|52=20180814-20:55:19.156|56=TRAXQA3|10=148|8=FIXT.1.1|9=70|35=0|34=603|49=RHAQA3_INBOUND_001|52=20180814-20:55:50.155|56=TRAXQA3|10=143|8=FIXT.1.1|9=70|35=0|34=604|49=RHAQA3_INBOUND_001|52=20180814-20:56:20.155|56=TRAXQA3|10=142|8=FIXT.1.1|9=70|35=0|34=605|49=RHAQA3_INBOUND_001|52=20180814-20:56:50.155|56=TRAXQA3|10=146|8=FIXT.1.1|9=70|35=0|34=606|49=RHAQA3_INBOUND_001|52=20180814-20:57:20.157|56=TRAXQA3|10=147|8=FIXT.1.1|9=70|35=0|34=607|49=RHAQA3_INBOUND_001|52=20180814-20:57:51.152|56=TRAXQA3|10=147|8=FIXT.1.1|9=70|35=0|34=608|49=RHAQA3_INBOUND_001|52=20180814-20:58:22.155|56=TRAXQA3|10=150|8=FIXT.1.1|9=70|35=0|34=609|49=RHAQA3_INBOUND_001|52=20180814-20:58:52.156|56=TRAXQA3|10=155|8=FIXT.1.1|9=70|35=0|34=610|49=RHAQA3_INBOUND_001|52=20180814-20:59:22.156|56=TRAXQA3|10=145|8=FIXT.1.1|9=70|35=0|34=611|49=RHAQA3_INBOUND_001|52=20180814-20:59:53.156|56=TRAXQA3|10=150|8=FIXT.1.1|9=70|35=0|34=612|49=RHAQA3_INBOUND_001|52=20180814-21:00:23.156|56=TRAXQA3|10=135|8=FIXT.1.1|9=70|35=0|34=613|49=RHAQA3_INBOUND_001|52=20180814-21:00:53.156|56=TRAXQA3|10=139|8=FIXT.1.1|9=70|35=0|34=614|49=RHAQA3_INBOUND_001|52=20180814-21:01:23.156|56=TRAXQA3|10=138|8=FIXT.1.1|9=70|35=0|34=615|49=RHAQA3_INBOUND_001|52=20180814-21:01:54.155|56=TRAXQA3|10=142|8=FIXT.1.1|9=70|35=0|34=616|49=RHAQA3_INBOUND_001|52=20180814-21:02:25.156|56=TRAXQA3|10=143|8=FIXT.1.1|9=70|35=0|34=617|49=RHAQA3_INBOUND_001|52=20180814-21:02:56.159|56=TRAXQA3|10=151|8=FIXT.1.1|9=70|35=0|34=618|49=RHAQA3_INBOUND_001|52=20180814-21:03:27.155|56=TRAXQA3|10=147|8=FIXT.1.1|9=70|35=0|34=619|49=RHAQA3_INBOUND_001|52=20180814-21:03:57.158|56=TRAXQA3|10=154|8=FIXT.1.1|9=70|35=0|34=620|49=RHAQA3_INBOUND_001|52=20180814-21:04:28.159|56=TRAXQA3|10=146|8=FIXT.1.1|9=70|35=0|34=621|49=RHAQA3_INBOUND_001|52=20180814-21:04:59.157|56=TRAXQA3|10=149|8=FIXT.1.1|9=70|35=0|34=622|49=RHAQA3_INBOUND_001|52=20180814-21:05:29.158|56=TRAXQA3|10=149|8=FIXT.1.1|9=70|35=0|34=623|49=RHAQA3_INBOUND_001|52=20180814-21:06:00.155|56=TRAXQA3|10=137|8=FIXT.1.1|9=70|35=0|34=624|49=RHAQA3_INBOUND_001|52=20180814-21:06:31.155|56=TRAXQA3|10=142|8=FIXT.1.1|9=70|35=0|34=625|49=RHAQA3_INBOUND_001|52=20180814-21:07:01.155|56=TRAXQA3|10=141|8=FIXT.1.1|9=70|35=0|34=626|49=RHAQA3_INBOUND_001|52=20180814-21:07:31.155|56=TRAXQA3|10=145|8=FIXT.1.1|9=70|35=0|34=627|49=RHAQA3_INBOUND_001|52=20180814-21:08:01.156|56=TRAXQA3|10=145|8=FIXT.1.1|9=70|35=0|34=628|49=RHAQA3_INBOUND_001|52=20180814-21:08:31.157|56=TRAXQA3|10=150|8=FIXT.1.1|9=70|35=0|34=629|49=RHAQA3_INBOUND_001|52=20180814-21:09:02.156|56=TRAXQA3|10=149|8=FIXT.1.1|9=70|35=0|34=630|49=RHAQA3_INBOUND_001|52=20180814-21:09:33.143|56=TRAXQA3|10=141|8=FIXT.1.1|9=70|35=0|34=631|49=RHAQA3_INBOUND_001|52=20180814-21:10:03.154|56=TRAXQA3|10=133|8=FIXT.1.1|9=70|35=0|34=632|49=RHAQA3_INBOUND_001|52=20180814-21:10:33.157|56=TRAXQA3|10=140|8=FIXT.1.1|9=70|35=0|34=633|49=RHAQA3_INBOUND_001|52=20180814-21:11:04.153|56=TRAXQA3|10=136|8=FIXT.1.1|9=70|35=0|34=634|49=RHAQA3_INBOUND_001|52=20180814-21:11:34.153|56=TRAXQA3|10=140|8=FIXT.1.1|9=70|35=0|34=635|49=RHAQA3_INBOUND_001|52=20180814-21:12:04.157|56=TRAXQA3|10=143|8=FIXT.1.1|9=70|35=0|34=636|49=RHAQA3_INBOUND_001|52=20180814-21:12:35.154|56=TRAXQA3|10=145|8=FIXT.1.1|9=70|35=0|34=637|49=RHAQA3_INBOUND_001|52=20180814-21:13:05.154|56=TRAXQA3|10=144|8=FIXT.1.1|9=70|35=0|34=638|49=RHAQA3_INBOUND_001|52=20180814-21:13:35.156|56=TRAXQA3|10=150|8=FIXT.1.1|9=70|35=0|34=639|49=RHAQA3_INBOUND_001|52=20180814-21:14:06.154|56=TRAXQA3|10=148|8=FIXT.1.1|9=70|35=0|34=640|49=RHAQA3_INBOUND_001|52=20180814-21:14:37.153|56=TRAXQA3|10=143|8=FIXT.1.1|9=70|35=0|34=641|49=RHAQA3_INBOUND_001|52=20180814-21:15:07.153|56=TRAXQA3|10=142|8=FIXT.1.1|9=70|35=0|34=642|49=RHAQA3_INBOUND_001|52=20180814-21:15:37.158|56=TRAXQA3|10=151|8=FIXT.1.1|9=70|35=0|34=643|49=RHAQA3_INBOUND_001|52=20180814-21:16:08.154|56=TRAXQA3|10=147|8=FIXT.1.1|9=70|35=0|34=644|49=RHAQA3_INBOUND_001|52=20180814-21:16:39.154|56=TRAXQA3|10=152|8=FIXT.1.1|9=70|35=0|34=645|49=RHAQA3_INBOUND_001|52=20180814-21:17:09.154|56=TRAXQA3|10=151|8=FIXT.1.1|9=70|35=0|34=646|49=RHAQA3_INBOUND_001|52=20180814-21:17:40.157|56=TRAXQA3|10=150|8=FIXT.1.1|9=70|35=0|34=647|49=RHAQA3_INBOUND_001|52=20180814-21:18:11.154|56=TRAXQA3|10=147|8=FIXT.1.1|9=70|35=0|34=648|49=RHAQA3_INBOUND_001|52=20180814-21:18:41.156|56=TRAXQA3|10=153|8=FIXT.1.1|9=70|35=0|34=649|49=RHAQA3_INBOUND_001|52=20180814-21:19:12.153|56=TRAXQA3|10=150|8=FIXT.1.1|9=70|35=0|34=650|49=RHAQA3_INBOUND_001|52=20180814-21:19:42.154|56=TRAXQA3|10=146|8=FIXT.1.1|9=70|35=0|34=651|49=RHAQA3_INBOUND_001|52=20180814-21:20:12.154|56=TRAXQA3|10=136|8=FIXT.1.1|9=70|35=0|34=652|49=RHAQA3_INBOUND_001|52=20180814-21:20:42.158|56=TRAXQA3|10=144|8=FIXT.1.1|9=70|35=0|34=653|49=RHAQA3_INBOUND_001|52=20180814-21:21:13.153|56=TRAXQA3|10=139|8=FIXT.1.1|9=70|35=0|34=654|49=RHAQA3_INBOUND_001|52=20180814-21:21:44.156|56=TRAXQA3|10=147|8=FIXT.1.1|9=70|35=0|34=655|49=RHAQA3_INBOUND_001|52=20180814-21:22:15.143|56=TRAXQA3|10=143|8=FIXT.1.1|9=70|35=0|34=656|49=RHAQA3_INBOUND_001|52=20180814-21:22:45.154|56=TRAXQA3|10=149|8=FIXT.1.1|9=70|35=0|34=657|49=RHAQA3_INBOUND_001|52=20180814-21:23:15.157|56=TRAXQA3|10=151|8=FIXT.1.1|9=70|35=0|34=658|49=RHAQA3_INBOUND_001|52=20180814-21:23:46.158|56=TRAXQA3|10=157|8=FIXT.1.1|9=70|35=0|34=659|49=RHAQA3_INBOUND_001|52=20180814-21:24:16.740|56=TRAXQA3|10=153|8=FIXT.1.1|9=70|35=0|34=660|49=RHAQA3_INBOUND_001|52=20180814-21:24:46.746|56=TRAXQA3|10=154|8=FIXT.1.1|9=70|35=0|34=661|49=RHAQA3_INBOUND_001|52=20180814-21:25:16.755|56=TRAXQA3|10=153|8=FIXT.1.1|9=70|35=0|34=662|49=RHAQA3_INBOUND_001|52=20180814-21:25:46.755|56=TRAXQA3|10=157|8=FIXT.1.1|9=70|35=0|34=663|49=RHAQA3_INBOUND_001|52=20180814-21:26:17.153|56=TRAXQA3|10=149|8=FIXT.1.1|9=70|35=0|34=664|49=RHAQA3_INBOUND_001|52=20180814-21:26:48.153|56=TRAXQA3|10=154|8=FIXT.1.1|9=70|35=0|34=665|49=RHAQA3_INBOUND_001|52=20180814-21:27:19.153|56=TRAXQA3|10=154|8=FIXT.1.1|9=70|35=0|34=666|49=RHAQA3_INBOUND_001|52=20180814-21:27:49.155|56=TRAXQA3|10=160|8=FIXT.1.1|9=70|35=0|34=667|49=RHAQA3_INBOUND_001|52=20180814-21:28:20.152|56=TRAXQA3|10=148|8=FIXT.1.1|9=70|35=0|34=668|49=RHAQA3_INBOUND_001|52=20180814-21:28:51.152|56=TRAXQA3|10=153|8=FIXT.1.1|9=70|35=0|34=669|49=RHAQA3_INBOUND_001|52=20180814-21:29:22.151|56=TRAXQA3|10=152|8=FIXT.1.1|9=70|35=0|34=670|49=RHAQA3_INBOUND_001|52=20180814-21:29:52.151|56=TRAXQA3|10=147|8=FIXT.1.1|9=70|35=0|34=671|49=RHAQA3_INBOUND_001|52=20180814-21:30:22.152|56=TRAXQA3|10=138|8=FIXT.1.1|9=70|35=0|34=672|49=RHAQA3_INBOUND_001|52=20180814-21:30:52.152|56=TRAXQA3|10=142|8=FIXT.1.1|9=70|35=0|34=673|49=RHAQA3_INBOUND_001|52=20180814-21:31:22.154|56=TRAXQA3|10=143|8=FIXT.1.1|9=70|35=0|34=674|49=RHAQA3_INBOUND_001|52=20180814-21:31:53.152|56=TRAXQA3|10=146|8=FIXT.1.1|9=70|35=0|34=675|49=RHAQA3_INBOUND_001|52=20180814-21:32:24.151|56=TRAXQA3|10=145|8=FIXT.1.1|9=70|35=0|34=676|49=RHAQA3_INBOUND_001|52=20180814-21:32:55.153|56=TRAXQA3|10=152|8=FIXT.1.1|9=70|35=0|34=677|49=RHAQA3_INBOUND_001|52=20180814-21:33:26.155|56=TRAXQA3|10=154|8=FIXT.1.1|9=70|35=0|34=678|49=RHAQA3_INBOUND_001|52=20180814-21:33:57.152|56=TRAXQA3|10=156|8=FIXT.1.1|9=70|35=0|34=679|49=RHAQA3_INBOUND_001|52=20180814-21:34:27.152|56=TRAXQA3|10=155|8=FIXT.1.1|9=70|35=0|34=680|49=RHAQA3_INBOUND_001|52=20180814-21:34:57.152|56=TRAXQA3|10=150|8=FIXT.1.1|9=70|35=0|34=681|49=RHAQA3_INBOUND_001|52=20180814-21:35:28.143|56=TRAXQA3|10=150|8=FIXT.1.1|9=70|35=0|34=682|49=RHAQA3_INBOUND_001|52=20180814-21:35:59.152|56=TRAXQA3|10=155|8=FIXT.1.1|9=70|35=0|34=683|49=RHAQA3_INBOUND_001|52=20180814-21:36:29.152|56=TRAXQA3|10=154|8=FIXT.1.1|9=70|35=0|34=684|49=RHAQA3_INBOUND_001|52=20180814-21:36:59.152|56=TRAXQA3|10=158|8=FIXT.1.1|9=70|35=0|34=685|49=RHAQA3_INBOUND_001|52=20180814-21:37:30.154|56=TRAXQA3|10=151|8=FIXT.1.1|9=70|35=0|34=686|49=RHAQA3_INBOUND_001|52=20180814-21:38:01.152|56=TRAXQA3|10=149|8=FIXT.1.1|9=70|35=0|34=687|49=RHAQA3_INBOUND_001|52=20180814-21:38:31.152|56=TRAXQA3|10=153|8=FIXT.1.1|9=70|35=0|34=688|49=RHAQA3_INBOUND_001|52=20180814-21:39:01.152|56=TRAXQA3|10=152|8=FIXT.1.1|9=70|35=0|34=689|49=RHAQA3_INBOUND_001|52=20180814-21:39:32.152|56=TRAXQA3|10=157|8=FIXT.1.1|9=70|35=0|34=690|49=RHAQA3_INBOUND_001|52=20180814-21:40:02.154|56=TRAXQA3|10=140|8=FIXT.1.1|9=70|35=0|34=691|49=RHAQA3_INBOUND_001|52=20180814-21:40:33.153|56=TRAXQA3|10=144|8=FIXT.1.1|9=70|35=0|34=692|49=RHAQA3_INBOUND_001|52=20180814-21:41:04.151|56=TRAXQA3|10=142|8=FIXT.1.1|9=70|35=0|34=693|49=RHAQA3_INBOUND_001|52=20180814-21:41:34.151|56=TRAXQA3|10=146|8=FIXT.1.1|9=70|35=0|34=694|49=RHAQA3_INBOUND_001|52=20180814-21:42:04.151|56=TRAXQA3|10=145|8=FIXT.1.1|9=70|35=0|34=695|49=RHAQA3_INBOUND_001|52=20180814-21:42:34.151|56=TRAXQA3|10=149|8=FIXT.1.1|9=70|35=0|34=696|49=RHAQA3_INBOUND_001|52=20180814-21:43:05.151|56=TRAXQA3|10=149|8=FIXT.1.1|9=70|35=0|34=697|49=RHAQA3_INBOUND_001|52=20180814-21:43:35.151|56=TRAXQA3|10=153|8=FIXT.1.1|9=70|35=0|34=698|49=RHAQA3_INBOUND_001|52=20180814-21:44:06.152|56=TRAXQA3|10=154|8=FIXT.1.1|9=70|35=0|34=699|49=RHAQA3_INBOUND_001|52=20180814-21:44:37.150|56=TRAXQA3|10=157|8=FIXT.1.1|9=70|35=0|34=700|49=RHAQA3_INBOUND_001|52=20180814-21:45:08.150|56=TRAXQA3|10=139|8=FIXT.1.1|9=70|35=0|34=701|49=RHAQA3_INBOUND_001|52=20180814-21:45:39.152|56=TRAXQA3|10=146|8=FIXT.1.1|9=70|35=0|34=702|49=RHAQA3_INBOUND_001|52=20180814-21:46:10.150|56=TRAXQA3|10=135|8=FIXT.1.1|9=70|35=0|34=703|49=RHAQA3_INBOUND_001|52=20180814-21:46:40.150|56=TRAXQA3|10=139|8=FIXT.1.1|9=70|35=0|34=704|49=RHAQA3_INBOUND_001|52=20180814-21:47:10.150|56=TRAXQA3|10=138|8=FIXT.1.1|9=70|35=0|34=705|49=RHAQA3_INBOUND_001|52=20180814-21:47:40.150|56=TRAXQA3|10=142|8=FIXT.1.1|9=70|35=0|34=706|49=RHAQA3_INBOUND_001|52=20180814-21:48:11.148|56=TRAXQA3|10=149|8=FIXT.1.1|9=70|35=0|34=707|49=RHAQA3_INBOUND_001|52=20180814-21:48:41.154|56=TRAXQA3|10=150|8=FIXT.1.1|9=70|35=0|34=708|49=RHAQA3_INBOUND_001|52=20180814-21:49:12.150|56=TRAXQA3|10=146|8=FIXT.1.1|9=70|35=0|34=709|49=RHAQA3_INBOUND_001|52=20180814-21:49:42.150|56=TRAXQA3|10=150|8=FIXT.1.1|9=70|35=0|34=710|49=RHAQA3_INBOUND_001|52=20180814-21:50:12.150|56=TRAXQA3|10=131|8=FIXT.1.1|9=70|35=0|34=711|49=RHAQA3_INBOUND_001|52=20180814-21:50:42.151|56=TRAXQA3|10=136|8=FIXT.1.1|9=70|35=0|34=712|49=RHAQA3_INBOUND_001|52=20180814-21:51:13.150|56=TRAXQA3|10=135|8=FIXT.1.1|9=70|35=0|34=713|49=RHAQA3_INBOUND_001|52=20180814-21:51:43.150|56=TRAXQA3|10=139|8=FIXT.1.1|9=70|35=0|34=714|49=RHAQA3_INBOUND_001|52=20180814-21:52:13.150|56=TRAXQA3|10=138|8=FIXT.1.1|9=70|35=0|34=715|49=RHAQA3_INBOUND_001|52=20180814-21:52:44.153|56=TRAXQA3|10=146|8=FIXT.1.1|9=70|35=0|34=716|49=RHAQA3_INBOUND_001|52=20180814-21:53:15.150|56=TRAXQA3|10=143|8=FIXT.1.1|9=70|35=0|34=717|49=RHAQA3_INBOUND_001|52=20180814-21:53:45.150|56=TRAXQA3|10=147|8=FIXT.1.1|9=70|35=0|34=718|49=RHAQA3_INBOUND_001|52=20180814-21:54:15.154|56=TRAXQA3|10=150|8=FIXT.1.1|9=70|35=0|34=719|49=RHAQA3_INBOUND_001|52=20180814-21:54:46.149|56=TRAXQA3|10=159|8=FIXT.1.1|9=70|35=0|34=720|49=RHAQA3_INBOUND_001|52=20180814-21:55:16.150|56=TRAXQA3|10=141|8=FIXT.1.1|9=70|35=0|34=721|49=RHAQA3_INBOUND_001|52=20180814-21:55:46.150|56=TRAXQA3|10=145|8=FIXT.1.1|9=70|35=0|34=722|49=RHAQA3_INBOUND_001|52=20180814-21:56:16.150|56=TRAXQA3|10=144|8=FIXT.1.1|9=70|35=0|34=723|49=RHAQA3_INBOUND_001|52=20180814-21:56:46.752|56=TRAXQA3|10=156|8=FIXT.1.1|9=70|35=0|34=724|49=RHAQA3_INBOUND_001|52=20180814-21:57:16.753|56=TRAXQA3|10=156|8=FIXT.1.1|9=70|35=0|34=725|49=RHAQA3_INBOUND_001|52=20180814-21:57:47.150|56=TRAXQA3|10=152|8=FIXT.1.1|9=70|35=0|34=726|49=RHAQA3_INBOUND_001|52=20180814-21:58:17.150|56=TRAXQA3|10=151|8=FIXT.1.1|9=70|35=0|34=727|49=RHAQA3_INBOUND_001|52=20180814-21:58:47.150|56=TRAXQA3|10=155|8=FIXT.1.1|9=70|35=0|34=728|49=RHAQA3_INBOUND_001|52=20180814-21:59:17.150|56=TRAXQA3|10=154|8=FIXT.1.1|9=70|35=0|34=729|49=RHAQA3_INBOUND_001|52=20180814-21:59:48.150|56=TRAXQA3|10=159|8=FIXT.1.1|9=70|35=0|34=730|49=RHAQA3_INBOUND_001|52=20180814-22:00:18.150|56=TRAXQA3|10=135|8=FIXT.1.1|9=70|35=0|34=731|49=RHAQA3_INBOUND_001|52=20180814-22:00:49.149|56=TRAXQA3|10=148|8=FIXT.1.1|9=70|35=0|34=732|49=RHAQA3_INBOUND_001|52=20180814-22:01:19.149|56=TRAXQA3|10=147|8=FIXT.1.1|9=70|35=0|34=733|49=RHAQA3_INBOUND_001|52=20180814-22:01:49.149|56=TRAXQA3|10=151|8=FIXT.1.1|9=70|35=0|34=734|49=RHAQA3_INBOUND_001|52=20180814-22:02:19.149|56=TRAXQA3|10=150|8=FIXT.1.1|9=70|35=0|34=735|49=RHAQA3_INBOUND_001|52=20180814-22:02:49.149|56=TRAXQA3|10=154|8=FIXT.1.1|9=70|35=0|34=736|49=RHAQA3_INBOUND_001|52=20180814-22:03:19.149|56=TRAXQA3|10=153|8=FIXT.1.1|9=70|35=0|34=737|49=RHAQA3_INBOUND_001|52=20180814-22:03:50.148|56=TRAXQA3|10=148|8=FIXT.1.1|9=70|35=0|34=738|49=RHAQA3_INBOUND_001|52=20180814-22:04:20.152|56=TRAXQA3|10=142|8=FIXT.1.1|9=70|35=0|34=739|49=RHAQA3_INBOUND_001|52=20180814-22:04:51.148|56=TRAXQA3|10=152|8=FIXT.1.1|9=70|35=0|34=740|49=RHAQA3_INBOUND_001|52=20180814-22:05:22.148|56=TRAXQA3|10=143|8=FIXT.1.1|9=70|35=0|34=741|49=RHAQA3_INBOUND_001|52=20180814-22:05:52.148|56=TRAXQA3|10=147|8=FIXT.1.1|9=70|35=0|34=742|49=RHAQA3_INBOUND_001|52=20180814-22:06:23.148|56=TRAXQA3|10=147|8=FIXT.1.1|9=70|35=0|34=743|49=RHAQA3_INBOUND_001|52=20180814-22:06:53.148|56=TRAXQA3|10=151|8=FIXT.1.1|9=70|35=0|34=744|49=RHAQA3_INBOUND_001|52=20180814-22:07:23.148|56=TRAXQA3|10=150|8=FIXT.1.1|9=70|35=0|34=745|49=RHAQA3_INBOUND_001|52=20180814-22:07:53.148|56=TRAXQA3|10=154|8=FIXT.1.1|9=70|35=0|34=746|49=RHAQA3_INBOUND_001|52=20180814-22:08:23.148|56=TRAXQA3|10=153|8=FIXT.1.1|9=70|35=0|34=747|49=RHAQA3_INBOUND_001|52=20180814-22:08:53.148|56=TRAXQA3|10=157|8=FIXT.1.1|9=70|35=0|34=748|49=RHAQA3_INBOUND_001|52=20180814-22:09:23.148|56=TRAXQA3|10=156|8=FIXT.1.1|9=70|35=0|34=749|49=RHAQA3_INBOUND_001|52=20180814-22:09:54.148|56=TRAXQA3|10=161|8=FIXT.1.1|9=70|35=0|34=750|49=RHAQA3_INBOUND_001|52=20180814-22:10:24.148|56=TRAXQA3|10=142|8=FIXT.1.1|9=70|35=0|34=751|49=RHAQA3_INBOUND_001|52=20180814-22:10:54.149|56=TRAXQA3|10=147|8=FIXT.1.1|9=70|35=0|34=752|49=RHAQA3_INBOUND_001|52=20180814-22:11:25.148|56=TRAXQA3|10=146|8=FIXT.1.1|9=70|35=0|34=753|49=RHAQA3_INBOUND_001|52=20180814-22:11:55.150|56=TRAXQA3|10=143|8=FIXT.1.1|9=70|35=0|34=754|49=RHAQA3_INBOUND_001|52=20180814-22:12:26.148|56=TRAXQA3|10=150|8=FIXT.1.1|9=70|35=0|34=755|49=RHAQA3_INBOUND_001|52=20180814-22:12:56.148|56=TRAXQA3|10=154|8=FIXT.1.1|9=70|35=0|34=756|49=RHAQA3_INBOUND_001|52=20180814-22:13:26.148|56=TRAXQA3|10=153|8=FIXT.1.1|9=70|35=0|34=757|49=RHAQA3_INBOUND_001|52=20180814-22:13:56.148|56=TRAXQA3|10=157|8=FIXT.1.1|9=70|35=0|34=758|49=RHAQA3_INBOUND_001|52=20180814-22:14:26.148|56=TRAXQA3|10=156|8=FIXT.1.1|9=70|35=0|34=759|49=RHAQA3_INBOUND_001|52=20180814-22:14:56.148|56=TRAXQA3|10=160|8=FIXT.1.1|9=70|35=0|34=760|49=RHAQA3_INBOUND_001|52=20180814-22:15:26.148|56=TRAXQA3|10=150|8=FIXT.1.1|9=70|35=0|34=761|49=RHAQA3_INBOUND_001|52=20180814-22:15:56.149|56=TRAXQA3|10=155|8=FIXT.1.1|9=70|35=0|34=762|49=RHAQA3_INBOUND_001|52=20180814-22:16:27.152|56=TRAXQA3|10=149|8=FIXT.1.1|9=70|35=0|34=763|49=RHAQA3_INBOUND_001|52=20180814-22:16:58.137|56=TRAXQA3|10=157|8=FIXT.1.1|9=70|35=0|34=764|49=RHAQA3_INBOUND_001|52=20180814-22:17:28.148|56=TRAXQA3|10=158|8=FIXT.1.1|9=70|35=0|34=765|49=RHAQA3_INBOUND_001|52=20180814-22:17:58.149|56=TRAXQA3|10=163|8=FIXT.1.1|9=70|35=0|34=766|49=RHAQA3_INBOUND_001|52=20180814-22:18:29.149|56=TRAXQA3|10=163|8=FIXT.1.1|9=70|35=0|34=767|49=RHAQA3_INBOUND_001|52=20180814-22:18:59.152|56=TRAXQA3|10=161|8=FIXT.1.1|9=70|35=0|34=768|49=RHAQA3_INBOUND_001|52=20180814-22:19:30.152|56=TRAXQA3|10=152|8=FIXT.1.1|9=70|35=0|34=769|49=RHAQA3_INBOUND_001|52=20180814-22:20:01.148|56=TRAXQA3|10=148|8=FIXT.1.1|9=70|35=0|34=770|49=RHAQA3_INBOUND_001|52=20180814-22:20:31.148|56=TRAXQA3|10=143|8=FIXT.1.1|9=70|35=0|34=771|49=RHAQA3_INBOUND_001|52=20180814-22:21:01.151|56=TRAXQA3|10=136|8=FIXT.1.1|9=70|35=0|34=772|49=RHAQA3_INBOUND_001|52=20180814-22:21:32.148|56=TRAXQA3|10=147|8=FIXT.1.1|9=70|35=0|34=773|49=RHAQA3_INBOUND_001|52=20180814-22:22:02.148|56=TRAXQA3|10=146|8=FIXT.1.1|9=70|35=0|34=774|49=RHAQA3_INBOUND_001|52=20180814-22:22:33.151|56=TRAXQA3|10=145|8=FIXT.1.1|9=70|35=0|34=775|49=RHAQA3_INBOUND_001|52=20180814-22:23:04.146|56=TRAXQA3|10=149|8=FIXT.1.1|9=70|35=0|34=776|49=RHAQA3_INBOUND_001|52=20180814-22:23:34.147|56=TRAXQA3|10=154|8=FIXT.1.1|9=70|35=0|34=777|49=RHAQA3_INBOUND_001|52=20180814-22:24:04.147|56=TRAXQA3|10=153|8=FIXT.1.1|9=70|35=0|34=778|49=RHAQA3_INBOUND_001|52=20180814-22:24:35.146|56=TRAXQA3|10=157|8=FIXT.1.1|9=70|35=0|34=779|49=RHAQA3_INBOUND_001|52=20180814-22:25:05.148|56=TRAXQA3|10=158|8=FIXT.1.1|9=70|35=0|34=780|49=RHAQA3_INBOUND_001|52=20180814-22:25:36.151|56=TRAXQA3|10=148|8=FIXT.1.1|9=70|35=0|34=781|49=RHAQA3_INBOUND_001|52=20180814-22:26:07.146|56=TRAXQA3|10=152|8=FIXT.1.1|9=70|35=0|34=782|49=RHAQA3_INBOUND_001|52=20180814-22:26:37.146|56=TRAXQA3|10=156|8=FIXT.1.1|9=70|35=0|34=783|49=RHAQA3_INBOUND_001|52=20180814-22:27:07.146|56=TRAXQA3|10=155|8=FIXT.1.1|9=70|35=0|34=784|49=RHAQA3_INBOUND_001|52=20180814-22:27:37.147|56=TRAXQA3|10=160|8=FIXT.1.1|9=70|35=0|34=785|49=RHAQA3_INBOUND_001|52=20180814-22:28:08.146|56=TRAXQA3|10=159|8=FIXT.1.1|9=70|35=0|34=786|49=RHAQA3_INBOUND_001|52=20180814-22:28:38.150|56=TRAXQA3|10=158|8=FIXT.1.1|9=70|35=0|34=787|49=RHAQA3_INBOUND_001|52=20180814-22:29:09.146|56=TRAXQA3|10=163|8=FIXT.1.1|9=70|35=0|34=788|49=RHAQA3_INBOUND_001|52=20180814-22:29:39.147|56=TRAXQA3|10=168|8=FIXT.1.1|9=70|35=0|34=789|49=RHAQA3_INBOUND_001|52=20180814-22:30:10.146|56=TRAXQA3|10=149|8=FIXT.1.1|9=70|35=0|34=790|49=RHAQA3_INBOUND_001|52=20180814-22:30:40.146|56=TRAXQA3|10=144|8=FIXT.1.1|9=70|35=0|34=791|49=RHAQA3_INBOUND_001|52=20180814-22:31:10.149|56=TRAXQA3|10=146|8=FIXT.1.1|9=70|35=0|34=792|49=RHAQA3_INBOUND_001|52=20180814-22:31:41.146|56=TRAXQA3|10=148|8=FIXT.1.1|9=70|35=0|34=793|49=RHAQA3_INBOUND_001|52=20180814-22:32:11.151|56=TRAXQA3|10=143|8=FIXT.1.1|9=70|35=0|34=794|49=RHAQA3_INBOUND_001|52=20180814-22:32:42.147|56=TRAXQA3|10=153|8=FIXT.1.1|9=70|35=0|34=795|49=RHAQA3_INBOUND_001|52=20180814-22:33:13.146|56=TRAXQA3|10=152|8=FIXT.1.1|9=70|35=0|34=796|49=RHAQA3_INBOUND_001|52=20180814-22:33:44.146|56=TRAXQA3|10=157|8=FIXT.1.1|9=70|35=0|34=797|49=RHAQA3_INBOUND_001|52=20180814-22:34:14.146|56=TRAXQA3|10=156|8=FIXT.1.1|9=70|35=0|34=798|49=RHAQA3_INBOUND_001|52=20180814-22:34:44.146|56=TRAXQA3|10=160|8=FIXT.1.1|9=70|35=0|34=799|49=RHAQA3_INBOUND_001|52=20180814-22:35:14.146|56=TRAXQA3|10=159|8=FIXT.1.1|9=70|35=0|34=800|49=RHAQA3_INBOUND_001|52=20180814-22:35:44.148|56=TRAXQA3|10=147|8=FIXT.1.1|9=70|35=0|34=801|49=RHAQA3_INBOUND_001|52=20180814-22:36:15.145|56=TRAXQA3|10=144|8=FIXT.1.1|9=70|35=0|34=802|49=RHAQA3_INBOUND_001|52=20180814-22:36:45.145|56=TRAXQA3|10=148|8=FIXT.1.1|9=70|35=0|34=803|49=RHAQA3_INBOUND_001|52=20180814-22:37:15.149|56=TRAXQA3|10=151|8=FIXT.1.1|9=70|35=0|34=804|49=RHAQA3_INBOUND_001|52=20180814-22:37:46.145|56=TRAXQA3|10=152|8=FIXT.1.1|9=70|35=0|34=805|49=RHAQA3_INBOUND_001|52=20180814-22:38:17.147|56=TRAXQA3|10=154|8=FIXT.1.1|9=70|35=0|34=806|49=RHAQA3_INBOUND_001|52=20180814-22:38:47.747|56=TRAXQA3|10=164|8=FIXT.1.1|9=70|35=0|34=807|49=RHAQA3_INBOUND_001|52=20180814-22:39:18.144|56=TRAXQA3|10=155|8=FIXT.1.1|9=70|35=0|34=808|49=RHAQA3_INBOUND_001|52=20180814-22:39:48.148|56=TRAXQA3|10=163|8=FIXT.1.1|9=70|35=0|34=809|49=RHAQA3_INBOUND_001|52=20180814-22:40:19.148|56=TRAXQA3|10=154|8=FIXT.1.1|9=70|35=0|34=810|49=RHAQA3_INBOUND_001|52=20180814-22:40:50.144|56=TRAXQA3|10=137|8=FIXT.1.1|9=70|35=0|34=811|49=RHAQA3_INBOUND_001|52=20180814-22:41:20.144|56=TRAXQA3|10=136|8=FIXT.1.1|9=70|35=0|34=812|49=RHAQA3_INBOUND_001|52=20180814-22:41:50.144|56=TRAXQA3|10=140|8=FIXT.1.1|9=70|35=0|34=813|49=RHAQA3_INBOUND_001|52=20180814-22:42:20.144|56=TRAXQA3|10=139|8=FIXT.1.1|9=70|35=0|34=814|49=RHAQA3_INBOUND_001|52=20180814-22:42:50.144|56=TRAXQA3|10=143|8=FIXT.1.1|9=70|35=0|34=815|49=RHAQA3_INBOUND_001|52=20180814-22:43:21.144|56=TRAXQA3|10=143|8=FIXT.1.1|9=70|35=0|34=816|49=RHAQA3_INBOUND_001|52=20180814-22:43:51.144|56=TRAXQA3|10=147|8=FIXT.1.1|9=70|35=0|34=817|49=RHAQA3_INBOUND_001|52=20180814-22:44:21.144|56=TRAXQA3|10=146|8=FIXT.1.1|9=70|35=0|34=818|49=RHAQA3_INBOUND_001|52=20180814-22:44:51.147|56=TRAXQA3|10=153|8=FIXT.1.1|9=70|35=0|34=819|49=RHAQA3_INBOUND_001|52=20180814-22:45:22.145|56=TRAXQA3|10=151|8=FIXT.1.1|9=70|35=0|34=820|49=RHAQA3_INBOUND_001|52=20180814-22:45:53.144|56=TRAXQA3|10=146|8=FIXT.1.1|9=70|35=0|34=821|49=RHAQA3_INBOUND_001|52=20180814-22:46:23.144|56=TRAXQA3|10=145|8=FIXT.1.1|9=70|35=0|34=822|49=RHAQA3_INBOUND_001|52=20180814-22:46:53.144|56=TRAXQA3|10=149|8=FIXT.1.1|9=70|35=0|34=823|49=RHAQA3_INBOUND_001|52=20180814-22:47:23.144|56=TRAXQA3|10=148|8=FIXT.1.1|9=70|35=0|34=824|49=RHAQA3_INBOUND_001|52=20180814-22:47:53.144|56=TRAXQA3|10=152|8=FIXT.1.1|9=70|35=0|34=825|49=RHAQA3_INBOUND_001|52=20180814-22:48:24.144|56=TRAXQA3|10=152|8=FIXT.1.1|9=70|35=0|34=826|49=RHAQA3_INBOUND_001|52=20180814-22:48:54.144|56=TRAXQA3|10=156|8=FIXT.1.1|9=70|35=0|34=827|49=RHAQA3_INBOUND_001|52=20180814-22:49:24.144|56=TRAXQA3|10=155|8=FIXT.1.1|9=70|35=0|34=828|49=RHAQA3_INBOUND_001|52=20180814-22:49:54.144|56=TRAXQA3|10=159|8=FIXT.1.1|9=70|35=0|34=829|49=RHAQA3_INBOUND_001|52=20180814-22:50:24.144|56=TRAXQA3|10=149|8=FIXT.1.1|9=70|35=0|34=830|49=RHAQA3_INBOUND_001|52=20180814-22:50:54.147|56=TRAXQA3|10=147|8=FIXT.1.1|9=70|35=0|34=831|49=RHAQA3_INBOUND_001|52=20180814-22:51:25.144|56=TRAXQA3|10=144|8=FIXT.1.1|9=70|35=0|34=832|49=RHAQA3_INBOUND_001|52=20180814-22:51:55.144|56=TRAXQA3|10=148|8=FIXT.1.1|9=70|35=0|34=833|49=RHAQA3_INBOUND_001|52=20180814-22:52:25.144|56=TRAXQA3|10=147|8=FIXT.1.1|9=70|35=0|34=834|49=RHAQA3_INBOUND_001|52=20180814-22:52:55.144|56=TRAXQA3|10=151|8=FIXT.1.1|9=70|35=0|34=835|49=RHAQA3_INBOUND_001|52=20180814-22:53:25.145|56=TRAXQA3|10=151|8=FIXT.1.1|9=70|35=0|34=836|49=RHAQA3_INBOUND_001|52=20180814-22:53:55.146|56=TRAXQA3|10=156|8=FIXT.1.1|9=70|35=0|34=837|49=RHAQA3_INBOUND_001|52=20180814-22:54:26.149|56=TRAXQA3|10=159|8=FIXT.1.1|9=70|35=0|34=838|49=RHAQA3_INBOUND_001|52=20180814-22:54:57.144|56=TRAXQA3|10=159|8=FIXT.1.1|9=70|35=0|34=839|49=RHAQA3_INBOUND_001|52=20180814-22:55:27.144|56=TRAXQA3|10=158|8=FIXT.1.1|9=70|35=0|34=840|49=RHAQA3_INBOUND_001|52=20180814-22:55:58.145|56=TRAXQA3|10=155|8=FIXT.1.1|9=70|35=0|34=841|49=RHAQA3_INBOUND_001|52=20180814-22:56:29.135|56=TRAXQA3|10=154|8=FIXT.1.1|9=70|35=0|34=842|49=RHAQA3_INBOUND_001|52=20180814-22:56:59.143|56=TRAXQA3|10=157|8=FIXT.1.1|9=70|35=0|34=843|49=RHAQA3_INBOUND_001|52=20180814-22:57:29.143|56=TRAXQA3|10=156|8=FIXT.1.1|9=70|35=0|34=844|49=RHAQA3_INBOUND_001|52=20180814-22:57:59.143|56=TRAXQA3|10=160|8=FIXT.1.1|9=70|35=0|34=845|49=RHAQA3_INBOUND_001|52=20180814-22:58:29.143|56=TRAXQA3|10=159|8=FIXT.1.1|9=70|35=0|34=846|49=RHAQA3_INBOUND_001|52=20180814-22:59:00.142|56=TRAXQA3|10=149|8=FIXT.1.1|9=70|35=0|34=847|49=RHAQA3_INBOUND_001|52=20180814-22:59:30.144|56=TRAXQA3|10=155|8=FIXT.1.1|9=70|35=0|34=848|49=RHAQA3_INBOUND_001|52=20180814-23:00:01.140|56=TRAXQA3|10=137|8=FIXT.1.1|9=70|35=0|34=849|49=RHAQA3_INBOUND_001|52=20180814-23:00:31.142|56=TRAXQA3|10=143|8=FIXT.1.1|9=70|35=0|34=850|49=RHAQA3_INBOUND_001|52=20180814-23:01:01.142|56=TRAXQA3|10=133|8=FIXT.1.1|9=70|35=0|34=851|49=RHAQA3_INBOUND_001|52=20180814-23:01:31.142|56=TRAXQA3|10=137|8=FIXT.1.1|9=70|35=0|34=852|49=RHAQA3_INBOUND_001|52=20180814-23:02:01.144|56=TRAXQA3|10=138|8=FIXT.1.1|9=70|35=0|34=853|49=RHAQA3_INBOUND_001|52=20180814-23:02:32.145|56=TRAXQA3|10=144|8=FIXT.1.1|9=70|35=0|34=854|49=RHAQA3_INBOUND_001|52=20180814-23:03:03.145|56=TRAXQA3|10=144|8=FIXT.1.1|9=70|35=0|34=855|49=RHAQA3_INBOUND_001|52=20180814-23:03:33.145|56=TRAXQA3|10=148|8=FIXT.1.1|9=70|35=0|34=856|49=RHAQA3_INBOUND_001|52=20180814-23:04:04.142|56=TRAXQA3|10=145|8=FIXT.1.1|9=70|35=0|34=857|49=RHAQA3_INBOUND_001|52=20180814-23:04:34.143|56=TRAXQA3|10=150|8=FIXT.1.1|9=70|35=5|34=858|49=RHAQA3_INBOUND_001|52=20180814-23:05:00.768|56=TRAXQA3|10=163|8=FIXT.1.1|9=110|35=A|34=1|49=RHAQA3_INBOUND_001|52=20180815-07:33:10.927|56=TRAXQA3|98=0|108=30|95=8|96=3.0.0rc3|141=Y|1137=9|10=121|8=FIXT.1.1|9=68|35=0|34=2|49=RHAQA3_INBOUND_001|52=20180815-07:33:41.796|56=TRAXQA3|10=060|8=FIXT.1.1|9=68|35=0|34=3|49=RHAQA3_INBOUND_001|52=20180815-07:34:11.905|56=TRAXQA3|10=051|8=FIXT.1.1|9=68|35=0|34=4|49=RHAQA3_INBOUND_001|52=20180815-07:34:41.905|56=TRAXQA3|10=055|8=FIXT.1.1|9=68|35=0|34=5|49=RHAQA3_INBOUND_001|52=20180815-07:35:11.906|56=TRAXQA3|10=055|8=FIXT.1.1|9=68|35=0|34=6|49=RHAQA3_INBOUND_001|52=20180815-07:35:41.906|56=TRAXQA3|10=059|8=FIXT.1.1|9=68|35=0|34=7|49=RHAQA3_INBOUND_001|52=20180815-07:36:11.911|56=TRAXQA3|10=054|8=FIXT.1.1|9=421|35=AE|34=8|49=RHAQA3_INBOUND_001|50=APA|57=APA|52=20180815-07:36:14.816|56=TRAXQA3|571=TradeReport1_A1|487=0|325=Y|423=1|55=[N/A]|48=GBSI0407A019|22=4|31=241|32=5400|60=20180814-04:58:13.370|552=1|54=2|29=5|1041=COFIA_TC0S325|997=H|1934=0|1116=3|1117=05BPHY57BRZ28M05ST85|1118=N|1119=116|1117=315700XCYIVBHQW6F758|1118=N|1119=1|1117=315700XCYIVBHQW6F758|1118=N|1119=17|1924=1|22600=1008601|22601=COP|854=1|231=10|30=ADAT|10=182|8=FIXT.1.1|9=68|35=0|34=9|49=RHAQA3_INBOUND_001|52=20180815-07:36:44.906|56=TRAXQA3|10=066|8=FIXT.1.1|9=69|35=0|34=10|49=RHAQA3_INBOUND_001|52=20180815-07:37:14.907|56=TRAXQA3|10=106|8=FIXT.1.1|9=422|35=AE|34=11|49=RHAQA3_INBOUND_001|50=APA|57=APA|52=20180815-07:37:18.999|56=TRAXQA3|571=TradeReport1_A1|487=0|325=Y|423=1|55=[N/A]|48=GBSI0407A019|22=4|31=241|32=5400|60=20180814-04:58:13.370|552=1|54=2|29=5|1041=COFIA_TC0S326|997=H|1934=0|1116=3|1117=05BPHY57BRZ28M05ST85|1118=N|1119=116|1117=315700XCYIVBHQW6F758|1118=N|1119=1|1117=315700XCYIVBHQW6F758|1118=N|1119=17|1924=1|22600=1008601|22601=GBP|854=1|231=10|30=ADAT|10=234|8=FIXT.1.1|9=69|35=0|34=12|49=RHAQA3_INBOUND_001|52=20180815-07:37:49.906|56=TRAXQA3|10=115|8=FIXT.1.1|9=422|35=AE|34=13|49=RHAQA3_INBOUND_001|50=APA|57=APA|52=20180815-07:38:16.890|56=TRAXQA3|571=TradeReport1_A1|487=0|325=Y|423=1|55=[N/A]|48=GBSI0407A019|22=4|31=627|32=6612|60=20180814-04:58:13.370|552=1|54=2|29=5|1041=COFIA_TC0ED349|997=H|1934=0|1116=3|1117=05BPHY57BRZ28M05ST85|1118=N|1119=116|1117=315700XCYIVBHQW6F758|1118=N|1119=1|1117=315700XCYIVBHQW6F758|1118=N|1119=17|1924=1|22600=206701|22601=GBP|854=1|231=10|30=KBLM|10=006|8=FIXT.1.1|9=69|35=0|34=14|49=RHAQA3_INBOUND_001|52=20180815-07:38:46.906|56=TRAXQA3|10=115|8=FIXT.1.1|9=425|35=AE|34=15|49=RHAQA3_INBOUND_001|50=APA|57=APA|52=20180815-07:39:05.599|56=TRAXQA3|571=TradeReport1_A5|487=0|325=Y|423=1|55=[N/A]|48=SE0010905828|22=4|31=9|32=78|60=20180814-04:58:13.370|552=1|54=2|29=5|1041=COFIA_TC0005_22B28R3S4|997=H|1934=0|1116=3|1117=05BPHY57BRZ28M05ST85|1118=N|1119=116|1117=315700XCYIVBHQW6F758|1118=N|1119=1|1117=315700XCYIVBHQW6F758|1118=N|1119=17|1924=1|22600=40001|22601=COP|854=1|231=10|30=SINT|10=233|8=FIXT.1.1|9=69|35=0|34=16|49=RHAQA3_INBOUND_001|52=20180815-07:39:35.905|56=TRAXQA3|10=115|8=FIXT.1.1|9=433|35=AE|34=17|49=RHAQA3_INBOUND_001|50=APA|57=APA|52=20180815-07:39:45.078|56=TRAXQA3|571=TradeReport1_A5AS4|487=0|325=Y|423=1|55=[N/A]|48=SE0010893750|22=4|31=700|32=809|60=20180814-04:58:13.370|552=1|54=2|29=5|1041=COFIA_TC0005_22B2888_1R6|997=H|1934=0|1116=3|1117=05BPHY57BRZ28M05ST85|1118=N|1119=116|1117=315700XCYIVBHQW6F758|1118=N|1119=1|1117=315700XCYIVBHQW6F758|1118=N|1119=17|1924=1|22600=50001|22601=COP|854=1|231=10|30=ADAT|10=151|8=FIXT.1.1|9=421|35=AE|34=18|49=RHAQA3_INBOUND_001|50=APA|57=APA|52=20180815-07:39:59.508|56=TRAXQA3|571=TradeReport1_A5AS4|487=0|325=Y|423=1|55=[N/A]|48=SE0010893750|22=4|31=700|32=809|60=20180814-04:58:13.370|552=1|54=2|29=5|1041=COFIA_TCASC1|997=H|1934=0|1116=3|1117=05BPHY57BRZ28M05ST85|1118=N|1119=116|1117=315700XCYIVBHQW6F758|1118=N|1119=1|1117=315700XCYIVBHQW6F758|1118=N|1119=17|1924=1|22600=50001|22601=COP|854=1|231=10|30=ADAT|10=228|8=FIXT.1.1|9=69|35=0|34=19|49=RHAQA3_INBOUND_001|52=20180815-07:40:29.913|56=TRAXQA3|10=112|8=FIXT.1.1|9=69|35=0|34=20|49=RHAQA3_INBOUND_001|52=20180815-07:41:00.781|56=TRAXQA3|10=097|8=FIXT.1.1|9=69|35=0|34=21|49=RHAQA3_INBOUND_001|52=20180815-07:41:30.781|56=TRAXQA3|10=101|8=FIXT.1.1|9=69|35=0|34=22|49=RHAQA3_INBOUND_001|52=20180815-07:42:00.796|56=TRAXQA3|10=106|8=FIXT.1.1|9=69|35=0|34=23|49=RHAQA3_INBOUND_001|52=20180815-07:42:30.905|56=TRAXQA3|10=102|8=FIXT.1.1|9=69|35=0|34=24|49=RHAQA3_INBOUND_001|52=20180815-07:43:00.908|56=TRAXQA3|10=104|8=FIXT.1.1|9=69|35=0|34=25|49=RHAQA3_INBOUND_001|52=20180815-07:43:31.905|56=TRAXQA3|10=106|8=FIXT.1.1|9=69|35=0|34=26|49=RHAQA3_INBOUND_001|52=20180815-07:44:02.905|56=TRAXQA3|10=106|8=FIXT.1.1|9=69|35=0|34=27|49=RHAQA3_INBOUND_001|52=20180815-07:44:32.909|56=TRAXQA3|10=114|8=FIXT.1.1|9=422|35=AE|34=28|49=RHAQA3_INBOUND_001|50=APA|57=APA|52=20180815-07:44:46.092|56=TRAXQA3|571=TradeReport1_A1|487=0|325=Y|423=1|55=[N/A]|48=GBSI0407A019|22=4|31=241|32=5400|60=20180814-04:58:13.370|552=1|54=2|29=5|1041=COFIA_TC0S327|997=H|1934=0|1116=3|1117=05BPHY57BRZ28M05ST85|1118=N|1119=116|1117=315700XCYIVBHQW6F758|1118=N|1119=1|1117=315700XCYIVBHQW6F758|1118=N|1119=17|1924=1|22600=1008601|22601=GBP|854=1|231=10|30=FTER|10=249|8=FIXT.1.1|9=69|35=0|34=29|49=RHAQA3_INBOUND_001|52=20180815-07:45:16.904|56=TRAXQA3|10=114|8=FIXT.1.1|9=69|35=0|34=30|49=RHAQA3_INBOUND_001|52=20180815-07:45:46.904|56=TRAXQA3|10=109|8=FIXT.1.1|9=69|35=0|34=31|49=RHAQA3_INBOUND_001|52=20180815-07:46:16.904|56=TRAXQA3|10=108|8=FIXT.1.1|9=69|35=0|34=32|49=RHAQA3_INBOUND_001|52=20180815-07:46:46.904|56=TRAXQA3|10=112|8=FIXT.1.1|9=69|35=0|34=33|49=RHAQA3_INBOUND_001|52=20180815-07:47:16.904|56=TRAXQA3|10=111|8=FIXT.1.1|9=69|35=0|34=34|49=RHAQA3_INBOUND_001|52=20180815-07:47:46.904|56=TRAXQA3|10=115|8=FIXT.1.1|9=69|35=0|34=35|49=RHAQA3_INBOUND_001|52=20180815-07:48:16.904|56=TRAXQA3|10=114|8=FIXT.1.1|9=69|35=0|34=36|49=RHAQA3_INBOUND_001|52=20180815-07:48:46.904|56=TRAXQA3|10=118|8=FIXT.1.1|9=69|35=0|34=37|49=RHAQA3_INBOUND_001|52=20180815-07:49:16.904|56=TRAXQA3|10=117|8=FIXT.1.1|9=69|35=0|34=38|49=RHAQA3_INBOUND_001|52=20180815-07:49:46.904|56=TRAXQA3|10=121|8=FIXT.1.1|9=69|35=0|34=39|49=RHAQA3_INBOUND_001|52=20180815-07:50:16.904|56=TRAXQA3|10=111|8=FIXT.1.1|9=69|35=0|34=40|49=RHAQA3_INBOUND_001|52=20180815-07:50:46.908|56=TRAXQA3|10=110|8=FIXT.1.1|9=69|35=0|34=41|49=RHAQA3_INBOUND_001|52=20180815-07:51:16.910|56=TRAXQA3|10=102|8=FIXT.1.1|9=69|35=0|34=42|49=RHAQA3_INBOUND_001|52=20180815-07:51:47.794|56=TRAXQA3|10=117|8=FIXT.1.1|9=69|35=0|34=43|49=RHAQA3_INBOUND_001|52=20180815-07:52:17.794|56=TRAXQA3|10=116|8=FIXT.1.1|9=69|35=0|34=44|49=RHAQA3_INBOUND_001|52=20180815-07:52:47.907|56=TRAXQA3|10=116|8=FIXT.1.1|9=69|35=0|34=45|49=RHAQA3_INBOUND_001|52=20180815-07:53:18.904|56=TRAXQA3|10=113|8=FIXT.1.1|9=69|35=0|34=46|49=RHAQA3_INBOUND_001|52=20180815-07:53:48.904|56=TRAXQA3|10=117|8=FIXT.1.1|9=69|35=0|34=47|49=RHAQA3_INBOUND_001|52=20180815-07:54:18.904|56=TRAXQA3|10=116|8=FIXT.1.1|9=69|35=0|34=48|49=RHAQA3_INBOUND_001|52=20180815-07:54:48.904|56=TRAXQA3|10=120|8=FIXT.1.1|9=69|35=0|34=49|49=RHAQA3_INBOUND_001|52=20180815-07:55:18.904|56=TRAXQA3|10=119|8=FIXT.1.1|9=69|35=0|34=50|49=RHAQA3_INBOUND_001|52=20180815-07:55:48.904|56=TRAXQA3|10=114|8=FIXT.1.1|9=69|35=0|34=51|49=RHAQA3_INBOUND_001|52=20180815-07:56:19.904|56=TRAXQA3|10=114|8=FIXT.1.1|9=69|35=0|34=52|49=RHAQA3_INBOUND_001|52=20180815-07:56:49.909|56=TRAXQA3|10=123|8=FIXT.1.1|9=69|35=0|34=53|49=RHAQA3_INBOUND_001|52=20180815-07:57:20.907|56=TRAXQA3|10=112|8=FIXT.1.1|9=69|35=0|34=54|49=RHAQA3_INBOUND_001|52=20180815-07:57:51.905|56=TRAXQA3|10=115|8=FIXT.1.1|9=69|35=0|34=55|49=RHAQA3_INBOUND_001|52=20180815-07:58:21.907|56=TRAXQA3|10=116|8=FIXT.1.1|9=69|35=0|34=56|49=RHAQA3_INBOUND_001|52=20180815-07:58:52.903|56=TRAXQA3|10=117|8=FIXT.1.1|9=69|35=0|34=57|49=RHAQA3_INBOUND_001|52=20180815-07:59:22.903|56=TRAXQA3|10=116|8=FIXT.1.1|9=69|35=0|34=58|49=RHAQA3_INBOUND_001|52=20180815-07:59:53.903|56=TRAXQA3|10=121|8=FIXT.1.1|9=69|35=0|34=59|49=RHAQA3_INBOUND_001|52=20180815-08:00:24.902|56=TRAXQA3|10=106|8=FIXT.1.1|9=69|35=0|34=60|49=RHAQA3_INBOUND_001|52=20180815-08:00:54.902|56=TRAXQA3|10=101|8=FIXT.1.1|9=69|35=0|34=61|49=RHAQA3_INBOUND_001|52=20180815-08:01:24.903|56=TRAXQA3|10=101|8=FIXT.1.1|9=69|35=0|34=62|49=RHAQA3_INBOUND_001|52=20180815-08:01:55.905|56=TRAXQA3|10=108|8=FIXT.1.1|9=69|35=0|34=63|49=RHAQA3_INBOUND_001|52=20180815-08:02:26.902|56=TRAXQA3|10=105|8=FIXT.1.1|9=69|35=0|34=64|49=RHAQA3_INBOUND_001|52=20180815-08:02:56.902|56=TRAXQA3|10=109|8=FIXT.1.1|9=69|35=0|34=65|49=RHAQA3_INBOUND_001|52=20180815-08:03:26.902|56=TRAXQA3|10=108|8=FIXT.1.1|9=69|35=0|34=66|49=RHAQA3_INBOUND_001|52=20180815-08:03:56.902|56=TRAXQA3|10=112|8=FIXT.1.1|9=69|35=0|34=67|49=RHAQA3_INBOUND_001|52=20180815-08:04:26.902|56=TRAXQA3|10=111|8=FIXT.1.1|9=69|35=0|34=68|49=RHAQA3_INBOUND_001|52=20180815-08:04:56.904|56=TRAXQA3|10=117|8=FIXT.1.1|9=69|35=0|34=69|49=RHAQA3_INBOUND_001|52=20180815-08:05:27.902|56=TRAXQA3|10=115|8=FIXT.1.1|9=69|35=0|34=70|49=RHAQA3_INBOUND_001|52=20180815-08:05:57.902|56=TRAXQA3|10=110|8=FIXT.1.1|9=69|35=0|34=71|49=RHAQA3_INBOUND_001|52=20180815-08:06:27.906|56=TRAXQA3|10=113|8=FIXT.1.1|9=69|35=0|34=72|49=RHAQA3_INBOUND_001|52=20180815-08:06:57.907|56=TRAXQA3|10=118|8=FIXT.1.1|9=69|35=0|34=73|49=RHAQA3_INBOUND_001|52=20180815-08:07:28.902|56=TRAXQA3|10=113|8=FIXT.1.1|9=69|35=0|34=74|49=RHAQA3_INBOUND_001|52=20180815-08:07:58.903|56=TRAXQA3|10=118|8=FIXT.1.1|9=69|35=0|34=75|49=RHAQA3_INBOUND_001|52=20180815-08:08:29.907|56=TRAXQA3|10=122|8=FIXT.1.1|9=69|35=0|34=76|49=RHAQA3_INBOUND_001|52=20180815-08:09:00.902|56=TRAXQA3|10=108|8=FIXT.1.1|9=69|35=0|34=77|49=RHAQA3_INBOUND_001|52=20180815-08:09:30.902|56=TRAXQA3|10=112|8=FIXT.1.1|9=69|35=0|34=78|49=RHAQA3_INBOUND_001|52=20180815-08:10:00.902|56=TRAXQA3|10=102|8=FIXT.1.1|9=69|35=0|34=79|49=RHAQA3_INBOUND_001|52=20180815-08:10:30.902|56=TRAXQA3|10=106|8=FIXT.1.1|9=69|35=0|34=80|49=RHAQA3_INBOUND_001|52=20180815-08:11:00.903|56=TRAXQA3|10=097|8=FIXT.1.1|9=69|35=0|34=81|49=RHAQA3_INBOUND_001|52=20180815-08:11:31.904|56=TRAXQA3|10=103|8=FIXT.1.1|9=69|35=0|34=82|49=RHAQA3_INBOUND_001|52=20180815-08:12:02.902|56=TRAXQA3|10=101|8=FIXT.1.1|9=69|35=0|34=83|49=RHAQA3_INBOUND_001|52=20180815-08:12:32.902|56=TRAXQA3|10=105|8=FIXT.1.1|9=69|35=0|34=84|49=RHAQA3_INBOUND_001|52=20180815-08:13:02.908|56=TRAXQA3|10=110|8=FIXT.1.1|9=69|35=0|34=85|49=RHAQA3_INBOUND_001|52=20180815-08:13:33.902|56=TRAXQA3|10=109|8=FIXT.1.1|9=69|35=0|34=86|49=RHAQA3_INBOUND_001|52=20180815-08:14:03.903|56=TRAXQA3|10=109|8=FIXT.1.1|9=69|35=0|34=87|49=RHAQA3_INBOUND_001|52=20180815-08:14:34.903|56=TRAXQA3|10=114|8=FIXT.1.1|9=69|35=0|34=88|49=RHAQA3_INBOUND_001|52=20180815-08:15:04.907|56=TRAXQA3|10=117|8=FIXT.1.1|9=69|35=0|34=89|49=RHAQA3_INBOUND_001|52=20180815-08:15:35.902|56=TRAXQA3|10=117|8=FIXT.1.1|9=69|35=0|34=90|49=RHAQA3_INBOUND_001|52=20180815-08:16:06.901|56=TRAXQA3|10=107|8=FIXT.1.1|9=69|35=0|34=91|49=RHAQA3_INBOUND_001|52=20180815-08:16:36.913|56=TRAXQA3|10=114|8=FIXT.1.1|9=69|35=0|34=92|49=RHAQA3_INBOUND_001|52=20180815-08:17:07.902|56=TRAXQA3|10=112|8=FIXT.1.1|9=69|35=0|34=93|49=RHAQA3_INBOUND_001|52=20180815-08:17:37.902|56=TRAXQA3|10=116|8=FIXT.1.1|9=69|35=0|34=94|49=RHAQA3_INBOUND_001|52=20180815-08:18:08.901|56=TRAXQA3|10=115|8=FIXT.1.1|9=69|35=0|34=95|49=RHAQA3_INBOUND_001|52=20180815-08:18:38.901|56=TRAXQA3|10=119|8=FIXT.1.1|9=69|35=0|34=96|49=RHAQA3_INBOUND_001|52=20180815-08:19:08.901|56=TRAXQA3|10=118|8=FIXT.1.1|9=69|35=0|34=97|49=RHAQA3_INBOUND_001|52=20180815-08:19:38.904|56=TRAXQA3|10=125|8=FIXT.1.1|9=69|35=0|34=98|49=RHAQA3_INBOUND_001|52=20180815-08:20:09.900|56=TRAXQA3|10=112|8=FIXT.1.1|9=69|35=0|34=99|49=RHAQA3_INBOUND_001|52=20180815-08:20:39.900|56=TRAXQA3|10=116|8=FIXT.1.1|9=70|35=0|34=100|49=RHAQA3_INBOUND_001|52=20180815-08:21:09.901|56=TRAXQA3|10=138|8=FIXT.1.1|9=70|35=0|34=101|49=RHAQA3_INBOUND_001|52=20180815-08:21:39.903|56=TRAXQA3|10=144|8=FIXT.1.1|9=70|35=0|34=102|49=RHAQA3_INBOUND_001|52=20180815-08:22:09.903|56=TRAXQA3|10=143|8=FIXT.1.1|9=70|35=0|34=103|49=RHAQA3_INBOUND_001|52=20180815-08:22:40.900|56=TRAXQA3|10=136|8=FIXT.1.1|9=70|35=0|34=104|49=RHAQA3_INBOUND_001|52=20180815-08:23:10.903|56=TRAXQA3|10=138|8=FIXT.1.1|9=70|35=0|34=105|49=RHAQA3_INBOUND_001|52=20180815-08:23:41.900|56=TRAXQA3|10=140|8=FIXT.1.1|9=70|35=0|34=106|49=RHAQA3_INBOUND_001|52=20180815-08:24:11.900|56=TRAXQA3|10=139|8=FIXT.1.1|9=70|35=0|34=107|49=RHAQA3_INBOUND_001|52=20180815-08:24:41.900|56=TRAXQA3|10=143|8=FIXT.1.1|9=70|35=0|34=108|49=RHAQA3_INBOUND_001|52=20180815-08:25:11.901|56=TRAXQA3|10=143|8=FIXT.1.1|9=70|35=0|34=109|49=RHAQA3_INBOUND_001|52=20180815-08:25:42.901|56=TRAXQA3|10=148|8=FIXT.1.1|9=70|35=0|34=110|49=RHAQA3_INBOUND_001|52=20180815-08:26:13.900|56=TRAXQA3|10=138|8=FIXT.1.1|9=70|35=0|34=111|49=RHAQA3_INBOUND_001|52=20180815-08:26:43.905|56=TRAXQA3|10=147|8=FIXT.1.1|9=70|35=0|34=112|49=RHAQA3_INBOUND_001|52=20180815-08:27:14.900|56=TRAXQA3|10=142|8=FIXT.1.1|9=70|35=0|34=113|49=RHAQA3_INBOUND_001|52=20180815-08:27:44.900|56=TRAXQA3|10=146|8=FIXT.1.1|9=70|35=0|34=114|49=RHAQA3_INBOUND_001|52=20180815-08:28:14.901|56=TRAXQA3|10=146|8=FIXT.1.1|9=70|35=0|34=115|49=RHAQA3_INBOUND_001|52=20180815-08:28:45.900|56=TRAXQA3|10=150|8=FIXT.1.1|9=70|35=0|34=116|49=RHAQA3_INBOUND_001|52=20180815-08:29:15.906|56=TRAXQA3|10=155|8=FIXT.1.1|9=70|35=0|34=117|49=RHAQA3_INBOUND_001|52=20180815-08:29:46.900|56=TRAXQA3|10=154|8=FIXT.1.1|9=70|35=0|34=118|49=RHAQA3_INBOUND_001|52=20180815-08:30:16.900|56=TRAXQA3|10=144|8=FIXT.1.1|9=70|35=0|34=119|49=RHAQA3_INBOUND_001|52=20180815-08:30:46.900|56=TRAXQA3|10=148|8=FIXT.1.1|9=70|35=0|34=120|49=RHAQA3_INBOUND_001|52=20180815-08:31:16.900|56=TRAXQA3|10=138|8=FIXT.1.1|9=70|35=0|34=121|49=RHAQA3_INBOUND_001|52=20180815-08:31:46.903|56=TRAXQA3|10=145|8=FIXT.1.1|9=70|35=0|34=122|49=RHAQA3_INBOUND_001|52=20180815-08:32:17.792|56=TRAXQA3|10=151|8=FIXT.1.1|9=70|35=0|34=123|49=RHAQA3_INBOUND_001|52=20180815-08:32:47.900|56=TRAXQA3|10=146|8=FIXT.1.1|9=70|35=0|34=124|49=RHAQA3_INBOUND_001|52=20180815-08:33:17.900|56=TRAXQA3|10=145|8=FIXT.1.1|9=70|35=0|34=125|49=RHAQA3_INBOUND_001|52=20180815-08:33:47.900|56=TRAXQA3|10=149|8=FIXT.1.1|9=70|35=0|34=126|49=RHAQA3_INBOUND_001|52=20180815-08:34:17.900|56=TRAXQA3|10=148|8=FIXT.1.1|9=70|35=0|34=127|49=RHAQA3_INBOUND_001|52=20180815-08:34:47.904|56=TRAXQA3|10=156|8=FIXT.1.1|9=70|35=0|34=128|49=RHAQA3_INBOUND_001|52=20180815-08:35:18.900|56=TRAXQA3|10=152|8=FIXT.1.1|9=70|35=0|34=129|49=RHAQA3_INBOUND_001|52=20180815-08:35:48.902|56=TRAXQA3|10=158|8=FIXT.1.1|9=70|35=0|34=130|49=RHAQA3_INBOUND_001|52=20180815-08:36:19.900|56=TRAXQA3|10=147|8=FIXT.1.1|9=70|35=0|34=131|49=RHAQA3_INBOUND_001|52=20180815-08:36:49.900|56=TRAXQA3|10=151|8=FIXT.1.1|9=70|35=0|34=132|49=RHAQA3_INBOUND_001|52=20180815-08:37:19.900|56=TRAXQA3|10=150|8=FIXT.1.1|9=70|35=0|34=133|49=RHAQA3_INBOUND_001|52=20180815-08:37:49.900|56=TRAXQA3|10=154|8=FIXT.1.1|9=70|35=0|34=134|49=RHAQA3_INBOUND_001|52=20180815-08:38:19.906|56=TRAXQA3|10=159|8=FIXT.1.1|9=70|35=0|34=135|49=RHAQA3_INBOUND_001|52=20180815-08:38:50.898|56=TRAXQA3|10=165|8=FIXT.1.1|9=70|35=0|34=136|49=RHAQA3_INBOUND_001|52=20180815-08:39:21.901|56=TRAXQA3|10=150|8=FIXT.1.1|9=70|35=0|34=137|49=RHAQA3_INBOUND_001|52=20180815-08:39:51.906|56=TRAXQA3|10=159|8=FIXT.1.1|9=70|35=0|34=138|49=RHAQA3_INBOUND_001|52=20180815-08:40:22.897|56=TRAXQA3|10=159|8=FIXT.1.1|9=70|35=0|34=139|49=RHAQA3_INBOUND_001|52=20180815-08:40:53.903|56=TRAXQA3|10=152|8=FIXT.1.1|9=70|35=0|34=140|49=RHAQA3_INBOUND_001|52=20180815-08:41:24.896|56=TRAXQA3|10=154|8=FIXT.1.1|9=70|35=0|34=141|49=RHAQA3_INBOUND_001|52=20180815-08:41:54.896|56=TRAXQA3|10=158|8=FIXT.1.1|9=70|35=0|34=142|49=RHAQA3_INBOUND_001|52=20180815-08:42:24.896|56=TRAXQA3|10=157|8=FIXT.1.1|9=70|35=0|34=143|49=RHAQA3_INBOUND_001|52=20180815-08:42:54.896|56=TRAXQA3|10=161|8=FIXT.1.1|9=70|35=0|34=144|49=RHAQA3_INBOUND_001|52=20180815-08:43:24.896|56=TRAXQA3|10=160|8=FIXT.1.1|9=70|35=0|34=145|49=RHAQA3_INBOUND_001|52=20180815-08:43:54.896|56=TRAXQA3|10=164|8=FIXT.1.1|9=70|35=0|34=146|49=RHAQA3_INBOUND_001|52=20180815-08:44:24.896|56=TRAXQA3|10=163|8=FIXT.1.1|9=70|35=0|34=147|49=RHAQA3_INBOUND_001|52=20180815-08:44:54.896|56=TRAXQA3|10=167|8=FIXT.1.1|9=70|35=0|34=148|49=RHAQA3_INBOUND_001|52=20180815-08:45:24.896|56=TRAXQA3|10=166|8=FIXT.1.1|9=70|35=0|34=149|49=RHAQA3_INBOUND_001|52=20180815-08:45:54.896|56=TRAXQA3|10=170|8=FIXT.1.1|9=70|35=0|34=150|49=RHAQA3_INBOUND_001|52=20180815-08:46:24.896|56=TRAXQA3|10=160|8=FIXT.1.1|9=70|35=0|34=151|49=RHAQA3_INBOUND_001|52=20180815-08:46:54.896|56=TRAXQA3|10=164|8=FIXT.1.1|9=70|35=0|34=152|49=RHAQA3_INBOUND_001|52=20180815-08:47:24.897|56=TRAXQA3|10=164|8=FIXT.1.1|9=70|35=0|34=153|49=RHAQA3_INBOUND_001|52=20180815-08:47:54.897|56=TRAXQA3|10=168|8=FIXT.1.1|9=70|35=0|34=154|49=RHAQA3_INBOUND_001|52=20180815-08:48:25.906|56=TRAXQA3|10=159|8=FIXT.1.1|9=70|35=0|34=155|49=RHAQA3_INBOUND_001|52=20180815-08:48:56.905|56=TRAXQA3|10=163|8=FIXT.1.1|9=70|35=0|34=156|49=RHAQA3_INBOUND_001|52=20180815-08:49:27.898|56=TRAXQA3|10=174|8=FIXT.1.1|9=70|35=0|34=157|49=RHAQA3_INBOUND_001|52=20180815-08:49:57.898|56=TRAXQA3|10=178|8=FIXT.1.1|9=70|35=0|34=158|49=RHAQA3_INBOUND_001|52=20180815-08:50:27.898|56=TRAXQA3|10=168|8=FIXT.1.1|9=70|35=0|34=159|49=RHAQA3_INBOUND_001|52=20180815-08:50:57.909|56=TRAXQA3|10=165|8=FIXT.1.1|9=70|35=0|34=160|49=RHAQA3_INBOUND_001|52=20180815-08:51:28.899|56=TRAXQA3|10=164|8=FIXT.1.1|9=88|35=5|34=161|49=RHAQA3_INBOUND_001|52=20180815-08:51:49.898|56=TRAXQA3|58=user requested|10=017|8=FIXT.1.1|9=110|35=A|34=1|49=RHAQA3_INBOUND_001|52=20180815-09:00:28.115|56=TRAXQA3|98=0|108=30|95=8|96=3.0.0rc3|141=Y|1137=9|10=115|8=FIXT.1.1|9=421|35=AE|34=2|49=RHAQA3_INBOUND_001|50=APA|57=APA|52=20180815-09:00:29.912|56=TRAXQA3|571=TradeReport1_A1|487=0|325=Y|423=1|55=[N/A]|48=DE000C15X7A8|22=4|31=241|32=5400|60=20180814-04:58:13.370|552=1|54=2|29=5|1041=COFIA_TC0S327|997=H|1934=0|1116=3|1117=05BPHY57BRZ28M05ST85|1118=N|1119=116|1117=315700XCYIVBHQW6F758|1118=N|1119=1|1117=315700XCYIVBHQW6F758|1118=N|1119=17|1924=1|22600=1008601|22601=GBP|854=1|231=10|30=ADAT|10=164|8=FIXT.1.1|9=421|35=AE|34=3|49=RHAQA3_INBOUND_001|50=APA|57=APA|52=20180815-09:00:40.248|56=TRAXQA3|571=TradeReport1_A1|487=0|325=Y|423=1|55=[N/A]|48=DE000C15X7A8|22=4|31=241|32=5400|60=20180814-04:58:13.370|552=1|54=2|29=5|1041=COFIA_TC0S328|997=H|1934=0|1116=3|1117=05BPHY57BRZ28M05ST85|1118=N|1119=116|1117=315700XCYIVBHQW6F758|1118=N|1119=1|1117=315700XCYIVBHQW6F758|1118=N|1119=17|1924=1|22600=1008601|22601=GBP|854=1|231=10|30=ADAT|10=161|8=FIXT.1.1|9=68|35=0|34=4|49=RHAQA3_INBOUND_001|52=20180815-09:01:11.083|56=TRAXQA3|10=045|8=FIXT.1.1|9=68|35=0|34=5|49=RHAQA3_INBOUND_001|52=20180815-09:01:41.084|56=TRAXQA3|10=050|8=FIXT.1.1|9=68|35=0|34=6|49=RHAQA3_INBOUND_001|52=20180815-09:02:11.092|56=TRAXQA3|10=048|8=FIXT.1.1|9=68|35=0|34=7|49=RHAQA3_INBOUND_001|52=20180815-09:02:41.757|56=TRAXQA3|10=060|8=FIXT.1.1|9=68|35=0|34=8|49=RHAQA3_INBOUND_001|52=20180815-09:03:12.086|56=TRAXQA3|10=055|8=FIXT.1.1|9=68|35=0|34=9|49=RHAQA3_INBOUND_001|52=20180815-09:03:43.084|56=TRAXQA3|10=058|8=FIXT.1.1|9=424|35=AE|34=10|49=RHAQA3_INBOUND_001|50=APA|57=APA|52=20180815-09:04:08.151|56=TRAXQA3|571=TradeReport1_A1|487=0|325=Y|423=1|55=[N/A]|48=SE0010911545|22=4|31=241|32=5400|60=20180814-04:58:13.370|552=1|54=2|29=5|1041=COFIA_TC0S32_Q1|997=H|1934=0|1116=3|1117=05BPHY57BRZ28M05ST85|1118=N|1119=116|1117=315700XCYIVBHQW6F758|1118=N|1119=1|1117=315700XCYIVBHQW6F758|1118=N|1119=17|1924=1|22600=1008601|22601=GBP|854=1|231=10|30=ADAT|10=068|8=FIXT.1.1|9=69|35=0|34=11|49=RHAQA3_INBOUND_001|52=20180815-09:04:39.084|56=TRAXQA3|10=106|8=FIXT.1.1|9=69|35=0|34=12|49=RHAQA3_INBOUND_001|52=20180815-09:05:09.084|56=TRAXQA3|10=105|8=FIXT.1.1|9=69|35=0|34=13|49=RHAQA3_INBOUND_001|52=20180815-09:05:39.084|56=TRAXQA3|10=109|8=FIXT.1.1|9=424|35=AE|34=14|49=RHAQA3_INBOUND_001|50=APA|57=APA|52=20180815-09:05:52.849|56=TRAXQA3|571=TradeReport1_A1|487=0|325=Y|423=1|55=[N/A]|48=SE0010911545|22=4|31=241|32=5400|60=20180814-04:58:13.370|552=1|54=2|29=5|1041=COFIA_TC0S32_Q2|997=H|1934=0|1116=3|1117=05BPHY57BRZ28M05ST85|1118=N|1119=116|1117=05BPHY57BRZ28M05ST85|1118=N|1119=1|1117=315700XCYIVBHQW6F758|1118=N|1119=17|1924=1|22600=1008601|22601=GBP|854=1|231=10|30=ADAT|10=100|8=FIXT.1.1|9=69|35=0|34=15|49=RHAQA3_INBOUND_001|52=20180815-09:06:23.084|56=TRAXQA3|10=105|8=FIXT.1.1|9=69|35=0