8=FIXT.1.1|9=111|35=A|34=1|49=HEMAQA3_INBOUND_001|52=20180816-10:50:57.524|56=TRAXQA3|98=0|108=30|95=8|96=3.0.0rc3|141=Y|1137=9|10=184|8=FIXT.1.1|9=69|35=0|34=2|49=HEMAQA3_INBOUND_001|52=20180816-10:51:27.526|56=TRAXQA3|10=115|8=FIXT.1.1|9=420|35=AE|34=3|49=HEMAQA3_INBOUND_001|50=APA|57=APA|52=20180816-10:51:39.825|56=TRAXQA3|571=TradeReport1_A1|487=0|325=Y|423=1|55=[N/A]|48=GBPK41125001|22=4|31=241|32=5400|60=20180814-04:58:13.370|552=1|54=2|29=5|1041=COFIA_HE011|997=H|1934=0|1116=3|1117=05BPHY57BRZ28M05ST85|1118=N|1119=116|1117=05BPHY57BRZ28M05ST85|1118=N|1119=1|1117=315700XCYIVBHQW6F758|1118=N|1119=17|1924=1|22600=1008601|22601=CHF|854=1|231=10|30=IFCA|10=054|8=FIXT.1.1|9=69|35=0|34=4|49=HEMAQA3_INBOUND_001|52=20180816-10:52:10.528|56=TRAXQA3|10=112|8=FIXT.1.1|9=69|35=0|34=5|49=HEMAQA3_INBOUND_001|52=20180816-10:52:40.738|56=TRAXQA3|10=119|8=FIXT.1.1|9=69|35=0|34=6|49=HEMAQA3_INBOUND_001|52=20180816-10:53:11.517|56=TRAXQA3|10=114|8=FIXT.1.1|9=69|35=0|34=7|49=HEMAQA3_INBOUND_001|52=20180816-10:53:41.526|56=TRAXQA3|10=118|8=FIXT.1.1|9=69|35=0|34=8|49=HEMAQA3_INBOUND_001|52=20180816-10:54:12.516|56=TRAXQA3|10=117|8=FIXT.1.1|9=69|35=0|34=9|49=HEMAQA3_INBOUND_001|52=20180816-10:54:42.526|56=TRAXQA3|10=122|8=FIXT.1.1|9=70|35=0|34=10|49=HEMAQA3_INBOUND_001|52=20180816-10:55:13.515|56=TRAXQA3|10=151|8=FIXT.1.1|9=70|35=0|34=11|49=HEMAQA3_INBOUND_001|52=20180816-10:55:43.516|56=TRAXQA3|10=156|8=FIXT.1.1|9=70|35=0|34=12|49=HEMAQA3_INBOUND_001|52=20180816-10:56:13.519|56=TRAXQA3|10=158|8=FIXT.1.1|9=70|35=0|34=13|49=HEMAQA3_INBOUND_001|52=20180816-10:56:44.512|56=TRAXQA3|10=156|8=FIXT.1.1|9=70|35=0|34=14|49=HEMAQA3_INBOUND_001|52=20180816-10:57:14.524|56=TRAXQA3|10=158|8=FIXT.1.1|9=70|35=0|34=15|49=HEMAQA3_INBOUND_001|52=20180816-10:57:45.519|56=TRAXQA3|10=167|8=FIXT.1.1|9=70|35=0|34=16|49=HEMAQA3_INBOUND_001|52=20180816-10:58:16.513|56=TRAXQA3|10=161|8=FIXT.1.1|9=70|35=0|34=17|49=HEMAQA3_INBOUND_001|52=20180816-10:58:46.513|56=TRAXQA3|10=165|8=FIXT.1.1|9=70|35=0|34=18|49=HEMAQA3_INBOUND_001|52=20180816-10:59:16.522|56=TRAXQA3|10=164|8=FIXT.1.1|9=70|35=0|34=19|49=HEMAQA3_INBOUND_001|52=20180816-10:59:47.521|56=TRAXQA3|10=168|8=FIXT.1.1|9=70|35=0|34=20|49=HEMAQA3_INBOUND_001|52=20180816-11:00:18.519|56=TRAXQA3|10=152|8=FIXT.1.1|9=70|35=0|34=21|49=HEMAQA3_INBOUND_001|52=20180816-11:00:49.511|56=TRAXQA3|10=149|8=FIXT.1.1|9=70|35=0|34=22|49=HEMAQA3_INBOUND_001|52=20180816-11:01:19.516|56=TRAXQA3|10=153|8=FIXT.1.1|9=70|35=0|34=23|49=HEMAQA3_INBOUND_001|52=20180816-11:01:49.516|56=TRAXQA3|10=157|8=FIXT.1.1|9=70|35=0|34=24|49=HEMAQA3_INBOUND_001|52=20180816-11:02:19.516|56=TRAXQA3|10=156|8=FIXT.1.1|9=70|35=0|34=25|49=HEMAQA3_INBOUND_001|52=20180816-11:02:50.511|56=TRAXQA3|10=147|8=FIXT.1.1|9=70|35=0|34=26|49=HEMAQA3_INBOUND_001|52=20180816-11:03:21.508|56=TRAXQA3|10=153|8=FIXT.1.1|9=70|35=0|34=27|49=HEMAQA3_INBOUND_001|52=20180816-11:03:51.512|56=TRAXQA3|10=152|8=FIXT.1.1|9=70|35=0|34=28|49=HEMAQA3_INBOUND_001|52=20180816-11:04:22.513|56=TRAXQA3|10=153|8=FIXT.1.1|9=70|35=0|34=29|49=HEMAQA3_INBOUND_001|52=20180816-11:04:52.515|56=TRAXQA3|10=159|8=FIXT.1.1|9=70|35=0|34=30|49=HEMAQA3_INBOUND_001|52=20180816-11:05:23.511|56=TRAXQA3|10=146|8=FIXT.1.1|9=70|35=0|34=31|49=HEMAQA3_INBOUND_001|52=20180816-11:05:54.508|56=TRAXQA3|10=157|8=FIXT.1.1|9=70|35=0|34=32|49=HEMAQA3_INBOUND_001|52=20180816-11:06:24.521|56=TRAXQA3|10=151|8=FIXT.1.1|9=70|35=0|34=33|49=HEMAQA3_INBOUND_001|52=20180816-11:06:55.517|56=TRAXQA3|10=161|8=FIXT.1.1|9=70|35=0|34=34|49=HEMAQA3_INBOUND_001|52=20180816-11:07:25.517|56=TRAXQA3|10=160|8=FIXT.1.1|9=70|35=0|34=35|49=HEMAQA3_INBOUND_001|52=20180816-11:07:56.512|56=TRAXQA3|10=160|8=FIXT.1.1|9=70|35=0|34=36|49=HEMAQA3_INBOUND_001|52=20180816-11:08:26.519|56=TRAXQA3|10=166|8=FIXT.1.1|9=70|35=0|34=37|49=HEMAQA3_INBOUND_001|52=20180816-11:08:56.522|56=TRAXQA3|10=164|8=FIXT.1.1|9=70|35=0|34=38|49=HEMAQA3_INBOUND_001|52=20180816-11:09:27.508|56=TRAXQA3|10=168|8=FIXT.1.1|9=70|35=0|34=39|49=HEMAQA3_INBOUND_001|52=20180816-11:09:57.517|56=TRAXQA3|10=172|8=FIXT.1.1|9=70|35=0|34=40|49=HEMAQA3_INBOUND_001|52=20180816-11:10:28.511|56=TRAXQA3|10=148|8=FIXT.1.1|9=70|35=0|34=41|49=HEMAQA3_INBOUND_001|52=20180816-11:10:59.510|56=TRAXQA3|10=152|8=FIXT.1.1|9=70|35=0|34=42|49=HEMAQA3_INBOUND_001|52=20180816-11:11:29.517|56=TRAXQA3|10=158|8=FIXT.1.1|9=70|35=0|34=43|49=HEMAQA3_INBOUND_001|52=20180816-11:11:59.522|56=TRAXQA3|10=158|8=FIXT.1.1|9=70|35=0|34=44|49=HEMAQA3_INBOUND_001|52=20180816-11:12:30.516|56=TRAXQA3|10=152|8=FIXT.1.1|9=70|35=0|34=45|49=HEMAQA3_INBOUND_001|52=20180816-11:13:00.519|56=TRAXQA3|10=154|8=FIXT.1.1|9=70|35=0|34=46|49=HEMAQA3_INBOUND_001|52=20180816-11:13:30.519|56=TRAXQA3|10=158|8=FIXT.1.1|9=70|35=0|34=47|49=HEMAQA3_INBOUND_001|52=20180816-11:14:01.518|56=TRAXQA3|10=157|8=FIXT.1.1|9=70|35=0|34=48|49=HEMAQA3_INBOUND_001|52=20180816-11:14:32.519|56=TRAXQA3|10=163|8=FIXT.1.1|9=70|35=0|34=49|49=HEMAQA3_INBOUND_001|52=20180816-11:15:03.506|56=TRAXQA3|10=159|8=FIXT.1.1|9=70|35=0|34=50|49=HEMAQA3_INBOUND_001|52=20180816-11:15:33.518|56=TRAXQA3|10=157|8=FIXT.1.1|9=70|35=0|34=51|49=HEMAQA3_INBOUND_001|52=20180816-11:16:04.509|56=TRAXQA3|10=157|8=FIXT.1.1|9=70|35=0|34=52|49=HEMAQA3_INBOUND_001|52=20180816-11:16:35.507|56=TRAXQA3|10=160|8=FIXT.1.1|9=70|35=0|34=53|49=HEMAQA3_INBOUND_001|52=20180816-11:17:05.515|56=TRAXQA3|10=158|8=FIXT.1.1|9=70|35=0|34=54|49=HEMAQA3_INBOUND_001|52=20180816-11:17:35.516|56=TRAXQA3|10=163|8=FIXT.1.1|9=70|35=0|34=55|49=HEMAQA3_INBOUND_001|52=20180816-11:18:06.514|56=TRAXQA3|10=161|8=FIXT.1.1|9=70|35=0|34=56|49=HEMAQA3_INBOUND_001|52=20180816-11:18:36.514|56=TRAXQA3|10=165|8=FIXT.1.1|9=70|35=0|34=57|49=HEMAQA3_INBOUND_001|52=20180816-11:19:07.508|56=TRAXQA3|10=168|8=FIXT.1.1|9=70|35=0|34=58|49=HEMAQA3_INBOUND_001|52=20180816-11:19:37.514|56=TRAXQA3|10=169|8=FIXT.1.1|9=70|35=0|34=59|49=HEMAQA3_INBOUND_001|52=20180816-11:20:08.517|56=TRAXQA3|10=163|8=FIXT.1.1|9=70|35=0|34=60|49=HEMAQA3_INBOUND_001|52=20180816-11:20:39.519|56=TRAXQA3|10=161|8=FIXT.1.1|9=70|35=0|34=61|49=HEMAQA3_INBOUND_001|52=20180816-11:21:10.517|56=TRAXQA3|10=150|8=FIXT.1.1|9=70|35=0|34=62|49=HEMAQA3_INBOUND_001|52=20180816-11:21:40.748|56=TRAXQA3|10=160|8=FIXT.1.1|9=70|35=0|34=63|49=HEMAQA3_INBOUND_001|52=20180816-11:22:11.508|56=TRAXQA3|10=154|8=FIXT.1.1|9=70|35=0|34=64|49=HEMAQA3_INBOUND_001|52=20180816-11:22:41.520|56=TRAXQA3|10=152|8=FIXT.1.1|9=70|35=0|34=65|49=HEMAQA3_INBOUND_001|52=20180816-11:23:12.506|56=TRAXQA3|10=156|8=FIXT.1.1|9=70|35=0|34=66|49=HEMAQA3_INBOUND_001|52=20180816-11:23:42.516|56=TRAXQA3|10=161|8=FIXT.1.1|9=70|35=0|34=67|49=HEMAQA3_INBOUND_001|52=20180816-11:24:13.510|56=TRAXQA3|10=155|8=FIXT.1.1|9=70|35=0|34=68|49=HEMAQA3_INBOUND_001|52=20180816-11:24:44.513|56=TRAXQA3|10=163|8=FIXT.1.1|9=70|35=0|34=69|49=HEMAQA3_INBOUND_001|52=20180816-11:25:15.514|56=TRAXQA3|10=164|8=FIXT.1.1|9=70|35=0|34=70|49=HEMAQA3_INBOUND_001|52=20180816-11:25:45.514|56=TRAXQA3|10=159|8=FIXT.1.1|9=70|35=0|34=71|49=HEMAQA3_INBOUND_001|52=20180816-11:26:16.514|56=TRAXQA3|10=159|8=FIXT.1.1|9=70|35=0|34=72|49=HEMAQA3_INBOUND_001|52=20180816-11:26:47.515|56=TRAXQA3|10=165|8=FIXT.1.1|9=70|35=0|34=73|49=HEMAQA3_INBOUND_001|52=20180816-11:27:17.520|56=TRAXQA3|10=160|8=FIXT.1.1|9=70|35=0|34=74|49=HEMAQA3_INBOUND_001|52=20180816-11:27:48.508|56=TRAXQA3|10=171|8=FIXT.1.1|9=70|35=0|34=75|49=HEMAQA3_INBOUND_001|52=20180816-11:28:18.520|56=TRAXQA3|10=164|8=FIXT.1.1|9=70|35=0|34=76|49=HEMAQA3_INBOUND_001|52=20180816-11:28:49.509|56=TRAXQA3|10=176|8=FIXT.1.1|9=70|35=0|34=77|49=HEMAQA3_INBOUND_001|52=20180816-11:29:19.516|56=TRAXQA3|10=173|8=FIXT.1.1|9=70|35=0|34=78|49=HEMAQA3_INBOUND_001|52=20180816-11:29:49.518|56=TRAXQA3|10=179|8=FIXT.1.1|9=70|35=0|34=79|49=HEMAQA3_INBOUND_001|52=20180816-11:30:20.514|56=TRAXQA3|10=157|8=FIXT.1.1|9=70|35=0|34=80|49=HEMAQA3_INBOUND_001|52=20180816-11:30:51.504|56=TRAXQA3|10=152|8=FIXT.1.1|9=70|35=0|34=81|49=HEMAQA3_INBOUND_001|52=20180816-11:31:21.512|56=TRAXQA3|10=150|8=FIXT.1.1|9=70|35=0|34=82|49=HEMAQA3_INBOUND_001|52=20180816-11:31:51.513|56=TRAXQA3|10=155|8=FIXT.1.1|9=70|35=0|34=83|49=HEMAQA3_INBOUND_001|52=20180816-11:32:21.513|56=TRAXQA3|10=154|8=FIXT.1.1|9=70|35=0|34=84|49=HEMAQA3_INBOUND_001|52=20180816-11:32:51.516|56=TRAXQA3|10=161|8=FIXT.1.1|9=70|35=0|34=85|49=HEMAQA3_INBOUND_001|52=20180816-11:33:21.517|56=TRAXQA3|10=161|8=FIXT.1.1|9=70|35=0|34=86|49=HEMAQA3_INBOUND_001|52=20180816-11:33:52.515|56=TRAXQA3|10=164|8=FIXT.1.1|9=70|35=0|34=87|49=HEMAQA3_INBOUND_001|52=20180816-11:34:23.509|56=TRAXQA3|10=167|8=FIXT.1.1|9=70|35=0|34=88|49=HEMAQA3_INBOUND_001|52=20180816-11:34:54.512|56=TRAXQA3|10=166|8=FIXT.1.1|9=70|35=0|34=89|49=HEMAQA3_INBOUND_001|52=20180816-11:35:25.510|56=TRAXQA3|10=164|8=FIXT.1.1|9=70|35=0|34=90|49=HEMAQA3_INBOUND_001|52=20180816-11:35:55.511|56=TRAXQA3|10=160|8=FIXT.1.1|9=70|35=0|34=91|49=HEMAQA3_INBOUND_001|52=20180816-11:36:25.513|56=TRAXQA3|10=161|8=FIXT.1.1|9=70|35=0|34=92|49=HEMAQA3_INBOUND_001|52=20180816-11:36:56.506|56=TRAXQA3|10=168|8=FIXT.1.1|9=70|35=0|34=93|49=HEMAQA3_INBOUND_001|52=20180816-11:37:26.513|56=TRAXQA3|10=165|8=FIXT.1.1|9=70|35=0|34=94|49=HEMAQA3_INBOUND_001|52=20180816-11:37:57.506|56=TRAXQA3|10=172|8=FIXT.1.1|9=70|35=0|34=95|49=HEMAQA3_INBOUND_001|52=20180816-11:38:27.518|56=TRAXQA3|10=174|8=FIXT.1.1|9=70|35=0|34=96|49=HEMAQA3_INBOUND_001|52=20180816-11:38:58.518|56=TRAXQA3|10=179|8=FIXT.1.1|9=70|35=0|34=97|49=HEMAQA3_INBOUND_001|52=20180816-11:39:29.513|56=TRAXQA3|10=174|8=FIXT.1.1|9=70|35=0|34=98|49=HEMAQA3_INBOUND_001|52=20180816-11:40:00.505|56=TRAXQA3|10=157|8=FIXT.1.1|9=70|35=0|34=99|49=HEMAQA3_INBOUND_001|52=20180816-11:40:30.516|56=TRAXQA3|10=163|8=FIXT.1.1|9=71|35=0|34=100|49=HEMAQA3_INBOUND_001|52=20180816-11:41:01.516|56=TRAXQA3|10=194|8=FIXT.1.1|9=71|35=0|34=101|49=HEMAQA3_INBOUND_001|52=20180816-11:41:32.516|56=TRAXQA3|10=199|8=FIXT.1.1|9=71|35=0|34=102|49=HEMAQA3_INBOUND_001|52=20180816-11:42:03.507|56=TRAXQA3|10=199|8=FIXT.1.1|9=71|35=0|34=103|49=HEMAQA3_INBOUND_001|52=20180816-11:42:33.515|56=TRAXQA3|10=202|8=FIXT.1.1|9=71|35=0|34=104|49=HEMAQA3_INBOUND_001|52=20180816-11:43:03.516|56=TRAXQA3|10=202|8=FIXT.1.1|9=71|35=0|34=105|49=HEMAQA3_INBOUND_001|52=20180816-11:43:34.510|56=TRAXQA3|10=201|8=FIXT.1.1|9=71|35=0|34=106|49=HEMAQA3_INBOUND_001|52=20180816-11:44:04.518|56=TRAXQA3|10=208|8=FIXT.1.1|9=71|35=0|34=107|49=HEMAQA3_INBOUND_001|52=20180816-11:44:35.510|56=TRAXQA3|10=205|8=FIXT.1.1|9=71|35=0|34=108|49=HEMAQA3_INBOUND_001|52=20180816-11:45:05.521|56=TRAXQA3|10=206|8=FIXT.1.1|9=71|35=0|34=109|49=HEMAQA3_INBOUND_001|52=20180816-11:45:36.510|56=TRAXQA3|10=209|8=FIXT.1.1|9=71|35=0|34=110|49=HEMAQA3_INBOUND_001|52=20180816-11:46:07.510|56=TRAXQA3|10=200|8=FIXT.1.1|9=71|35=0|34=111|49=HEMAQA3_INBOUND_001|52=20180816-11:46:37.517|56=TRAXQA3|10=211|8=FIXT.1.1|9=71|35=0|34=112|49=HEMAQA3_INBOUND_001|52=20180816-11:47:08.512|56=TRAXQA3|10=206|8=FIXT.1.1|9=71|35=0|34=113|49=HEMAQA3_INBOUND_001|52=20180816-11:47:38.520|56=TRAXQA3|10=209|8=FIXT.1.1|9=71|35=0|34=114|49=HEMAQA3_INBOUND_001|52=20180816-11:48:09.510|56=TRAXQA3|10=208|8=FIXT.1.1|9=71|35=0|34=115|49=HEMAQA3_INBOUND_001|52=20180816-11:48:40.513|56=TRAXQA3|10=207|8=FIXT.1.1|9=71|35=0|34=116|49=HEMAQA3_INBOUND_001|52=20180816-11:49:10.758|56=TRAXQA3|10=217|8=FIXT.1.1|9=71|35=0|34=117|49=HEMAQA3_INBOUND_001|52=20180816-11:49:41.521|56=TRAXQA3|10=210|8=FIXT.1.1|9=71|35=0|34=118|49=HEMAQA3_INBOUND_001|52=20180816-11:50:12.518|56=TRAXQA3|10=207|8=FIXT.1.1|9=71|35=0|34=119|49=HEMAQA3_INBOUND_001|52=20180816-11:50:42.523|56=TRAXQA3|10=207|8=FIXT.1.1|9=71|35=0|34=120|49=HEMAQA3_INBOUND_001|52=20180816-11:51:13.515|56=TRAXQA3|10=199|8=FIXT.1.1|9=71|35=0|34=121|49=HEMAQA3_INBOUND_001|52=20180816-11:51:43.522|56=TRAXQA3|10=201|8=FIXT.1.1|9=71|35=0|34=122|49=HEMAQA3_INBOUND_001|52=20180816-11:52:13.522|56=TRAXQA3|10=200|8=FIXT.1.1|9=71|35=0|34=123|49=HEMAQA3_INBOUND_001|52=20180816-11:52:44.520|56=TRAXQA3|10=203|8=FIXT.1.1|9=71|35=0|34=124|49=HEMAQA3_INBOUND_001|52=20180816-11:53:14.521|56=TRAXQA3|10=203|8=FIXT.1.1|9=71|35=0|34=125|49=HEMAQA3_INBOUND_001|52=20180816-11:53:45.518|56=TRAXQA3|10=214|8=FIXT.1.1|9=71|35=0|34=126|49=HEMAQA3_INBOUND_001|52=20180816-11:54:16.518|56=TRAXQA3|10=214|8=FIXT.1.1|9=71|35=0|34=127|49=HEMAQA3_INBOUND_001|52=20180816-11:54:47.509|56=TRAXQA3|10=219|8=FIXT.1.1|9=71|35=0|34=128|49=HEMAQA3_INBOUND_001|52=20180816-11:55:17.521|56=TRAXQA3|10=212|8=FIXT.1.1|9=71|35=0|34=129|49=HEMAQA3_INBOUND_001|52=20180816-11:55:48.510|56=TRAXQA3|10=215|8=FIXT.1.1|9=71|35=0|34=130|49=HEMAQA3_INBOUND_001|52=20180816-11:56:19.512|56=TRAXQA3|10=208|8=FIXT.1.1|9=71|35=0|34=131|49=HEMAQA3_INBOUND_001|52=20180816-11:56:49.517|56=TRAXQA3|10=217|8=FIXT.1.1|9=71|35=0|34=132|49=HEMAQA3_INBOUND_001|52=20180816-11:57:20.517|56=TRAXQA3|10=208|8=FIXT.1.1|9=71|35=0|34=133|49=HEMAQA3_INBOUND_001|52=20180816-11:57:50.519|56=TRAXQA3|10=214|8=FIXT.1.1|9=71|35=0|34=134|49=HEMAQA3_INBOUND_001|52=20180816-11:58:21.516|56=TRAXQA3|10=211|8=FIXT.1.1|9=71|35=0|34=135|49=HEMAQA3_INBOUND_001|52=20180816-11:58:52.515|56=TRAXQA3|10=215|8=FIXT.1.1|9=71|35=0|34=136|49=HEMAQA3_INBOUND_001|52=20180816-11:59:23.507|56=TRAXQA3|10=216|8=FIXT.1.1|9=71|35=0|34=137|49=HEMAQA3_INBOUND_001|52=20180816-11:59:53.514|56=TRAXQA3|10=218|8=FIXT.1.1|9=71|35=0|34=138|49=HEMAQA3_INBOUND_001|52=20180816-12:00:24.514|56=TRAXQA3|10=204|8=FIXT.1.1|9=71|35=0|34=139|49=HEMAQA3_INBOUND_001|52=20180816-12:00:55.513|56=TRAXQA3|10=208|8=FIXT.1.1|9=71|35=0|34=140|49=HEMAQA3_INBOUND_001|52=20180816-12:01:26.503|56=TRAXQA3|10=198|8=FIXT.1.1|9=71|35=0|34=141|49=HEMAQA3_INBOUND_001|52=20180816-12:01:56.505|56=TRAXQA3|10=204|8=FIXT.1.1|9=71|35=0|34=142|49=HEMAQA3_INBOUND_001|52=20180816-12:02:26.511|56=TRAXQA3|10=200|8=FIXT.1.1|9=71|35=0|34=143|49=HEMAQA3_INBOUND_001|52=20180816-12:02:56.512|56=TRAXQA3|10=205|8=FIXT.1.1|9=71|35=0|34=144|49=HEMAQA3_INBOUND_001|52=20180816-12:03:27.509|56=TRAXQA3|10=211|8=FIXT.1.1|9=71|35=0|34=145|49=HEMAQA3_INBOUND_001|52=20180816-12:03:57.509|56=TRAXQA3|10=215|8=FIXT.1.1|9=71|35=0|34=146|49=HEMAQA3_INBOUND_001|52=20180816-12:04:27.512|56=TRAXQA3|10=208|8=FIXT.1.1|9=71|35=0|34=147|49=HEMAQA3_INBOUND_001|52=20180816-12:04:58.509|56=TRAXQA3|10=219|8=FIXT.1.1|9=71|35=0|34=148|49=HEMAQA3_INBOUND_001|52=20180816-12:05:29.508|56=TRAXQA3|10=218|8=FIXT.1.1|9=71|35=0|34=149|49=HEMAQA3_INBOUND_001|52=20180816-12:05:59.509|56=TRAXQA3|10=223|8=FIXT.1.1|9=71|35=0|34=150|49=HEMAQA3_INBOUND_001|52=20180816-12:06:29.511|56=TRAXQA3|10=206|8=FIXT.1.1|9=71|35=0|34=151|49=HEMAQA3_INBOUND_001|52=20180816-12:07:00.500|56=TRAXQA3|10=195|8=FIXT.1.1|9=71|35=0|34=152|49=HEMAQA3_INBOUND_001|52=20180816-12:07:31.497|56=TRAXQA3|10=215|8=FIXT.1.1|9=71|35=0|34=153|49=HEMAQA3_INBOUND_001|52=20180816-12:08:01.500|56=TRAXQA3|10=199|8=FIXT.1.1|9=71|35=0|34=154|49=HEMAQA3_INBOUND_001|52=20180816-12:08:31.505|56=TRAXQA3|10=208|8=FIXT.1.1|9=71|35=0|34=155|49=HEMAQA3_INBOUND_001|52=20180816-12:09:01.506|56=TRAXQA3|10=208|8=FIXT.1.1|9=71|35=0|34=156|49=HEMAQA3_INBOUND_001|52=20180816-12:09:31.507|56=TRAXQA3|10=213|8=FIXT.1.1|9=71|35=0|34=157|49=HEMAQA3_INBOUND_001|52=20180816-12:10:01.507|56=TRAXQA3|10=203|8=FIXT.1.1|9=71|35=0|34=158|49=HEMAQA3_INBOUND_001|52=20180816-12:10:32.504|56=TRAXQA3|10=205|8=FIXT.1.1|9=71|35=0|34=159|49=HEMAQA3_INBOUND_001|52=20180816-12:11:02.506|56=TRAXQA3|10=206|8=FIXT.1.1|9=71|35=0|34=160|49=HEMAQA3_INBOUND_001|52=20180816-12:11:33.507|56=TRAXQA3|10=203|8=FIXT.1.1|9=71|35=0|34=161|49=HEMAQA3_INBOUND_001|52=20180816-12:12:04.508|56=TRAXQA3|10=204|8=FIXT.1.1|9=71|35=0|34=162|49=HEMAQA3_INBOUND_001|52=20180816-12:12:35.499|56=TRAXQA3|10=218|8=FIXT.1.1|9=71|35=0|34=163|49=HEMAQA3_INBOUND_001|52=20180816-12:13:05.505|56=TRAXQA3|10=205|8=FIXT.1.1|9=71|35=0|34=164|49=HEMAQA3_INBOUND_001|52=20180816-12:13:36.493|56=TRAXQA3|10=216|8=FIXT.1.1|9=71|35=0|34=165|49=HEMAQA3_INBOUND_001|52=20180816-12:14:06.494|56=TRAXQA3|10=216|8=FIXT.1.1|9=71|35=0|34=166|49=HEMAQA3_INBOUND_001|52=20180816-12:14:36.500|56=TRAXQA3|10=208|8=FIXT.1.1|9=71|35=0|34=167|49=HEMAQA3_INBOUND_001|52=20180816-12:15:07.493|56=TRAXQA3|10=219|8=FIXT.1.1|9=71|35=0|34=168|49=HEMAQA3_INBOUND_001|52=20180816-12:15:37.501|56=TRAXQA3|10=213|8=FIXT.1.1|9=71|35=0|34=169|49=HEMAQA3_INBOUND_001|52=20180816-12:16:08.491|56=TRAXQA3|10=221|8=FIXT.1.1|9=71|35=0|34=170|49=HEMAQA3_INBOUND_001|52=20180816-12:16:38.503|56=TRAXQA3|10=210|8=FIXT.1.1|9=71|35=0|34=171|49=HEMAQA3_INBOUND_001|52=20180816-12:17:08.503|56=TRAXQA3|10=209|8=FIXT.1.1|9=71|35=0|34=172|49=HEMAQA3_INBOUND_001|52=20180816-12:17:39.499|56=TRAXQA3|10=228|8=FIXT.1.1|9=71|35=0|34=173|49=HEMAQA3_INBOUND_001|52=20180816-12:18:10.491|56=TRAXQA3|10=211|8=FIXT.1.1|9=71|35=0|34=174|49=HEMAQA3_INBOUND_001|52=20180816-12:18:40.499|56=TRAXQA3|10=223|8=FIXT.1.1|9=71|35=0|34=175|49=HEMAQA3_INBOUND_001|52=20180816-12:19:10.746|56=TRAXQA3|10=217|8=FIXT.1.1|9=71|35=0|34=176|49=HEMAQA3_INBOUND_001|52=20180816-12:19:40.751|56=TRAXQA3|10=217|8=FIXT.1.1|9=71|35=0|34=177|49=HEMAQA3_INBOUND_001|52=20180816-12:20:11.499|56=TRAXQA3|10=217|8=FIXT.1.1|9=71|35=0|34=178|49=HEMAQA3_INBOUND_001|52=20180816-12:20:41.499|56=TRAXQA3|10=221|8=FIXT.1.1|9=71|35=0|34=179|49=HEMAQA3_INBOUND_001|52=20180816-12:21:12.496|56=TRAXQA3|10=218|8=FIXT.1.1|9=71|35=0|34=180|49=HEMAQA3_INBOUND_001|52=20180816-12:21:43.488|56=TRAXQA3|10=215|8=FIXT.1.1|9=71|35=0|34=181|49=HEMAQA3_INBOUND_001|52=20180816-12:22:13.492|56=TRAXQA3|10=209|8=FIXT.1.1|9=71|35=0|34=182|49=HEMAQA3_INBOUND_001|52=20180816-12:22:43.497|56=TRAXQA3|10=218|8=FIXT.1.1|9=71|35=0|34=183|49=HEMAQA3_INBOUND_001|52=20180816-12:23:14.493|56=TRAXQA3|10=214|8=FIXT.1.1|9=71|35=0|34=184|49=HEMAQA3_INBOUND_001|52=20180816-12:23:45.492|56=TRAXQA3|10=218|8=FIXT.1.1|9=71|35=0|34=185|49=HEMAQA3_INBOUND_001|52=20180816-12:24:16.498|56=TRAXQA3|10=224|8=FIXT.1.1|9=71|35=0|34=186|49=HEMAQA3_INBOUND_001|52=20180816-12:24:47.483|56=TRAXQA3|10=223|8=FIXT.1.1|9=71|35=0|34=187|49=HEMAQA3_INBOUND_001|52=20180816-12:25:17.484|56=TRAXQA3|10=223|8=FIXT.1.1|9=71|35=0|34=188|49=HEMAQA3_INBOUND_001|52=20180816-12:25:47.491|56=TRAXQA3|10=225|8=FIXT.1.1|9=71|35=0|34=189|49=HEMAQA3_INBOUND_001|52=20180816-12:26:18.486|56=TRAXQA3|10=229|8=FIXT.1.1|9=71|35=0|34=190|49=HEMAQA3_INBOUND_001|52=20180816-12:26:49.485|56=TRAXQA3|10=224|8=FIXT.1.1|9=71|35=0|34=191|49=HEMAQA3_INBOUND_001|52=20180816-12:27:19.489|56=TRAXQA3|10=227|8=FIXT.1.1|9=71|35=0|34=192|49=HEMAQA3_INBOUND_001|52=20180816-12:27:50.485|56=TRAXQA3|10=219|8=FIXT.1.1|9=71|35=0|34=193|49=HEMAQA3_INBOUND_001|52=20180816-12:28:20.490|56=TRAXQA3|10=214|8=FIXT.1.1|9=71|35=0|34=194|49=HEMAQA3_INBOUND_001|52=20180816-12:28:50.492|56=TRAXQA3|10=220|8=FIXT.1.1|9=71|35=0|34=195|49=HEMAQA3_INBOUND_001|52=20180816-12:29:21.487|56=TRAXQA3|10=224|8=FIXT.1.1|9=71|35=0|34=196|49=HEMAQA3_INBOUND_001|52=20180816-12:29:51.487|56=TRAXQA3|10=228|8=FIXT.1.1|9=71|35=0|34=197|49=HEMAQA3_INBOUND_001|52=20180816-12:30:21.497|56=TRAXQA3|10=219|8=FIXT.1.1|9=71|35=0|34=198|49=HEMAQA3_INBOUND_001|52=20180816-12:30:52.483|56=TRAXQA3|10=219|8=FIXT.1.1|9=71|35=0|34=199|49=HEMAQA3_INBOUND_001|52=20180816-12:31:22.495|56=TRAXQA3|10=221|8=FIXT.1.1|9=71|35=0|34=200|49=HEMAQA3_INBOUND_001|52=20180816-12:31:53.484|56=TRAXQA3|10=206|8=FIXT.1.1|9=71|35=0|34=201|49=HEMAQA3_INBOUND_001|52=20180816-12:32:23.484|56=TRAXQA3|10=205|8=FIXT.1.1|9=71|35=0|34=202|49=HEMAQA3_INBOUND_001|52=20180816-12:32:53.498|56=TRAXQA3|10=214|8=FIXT.1.1|9=71|35=0|34=203|49=HEMAQA3_INBOUND_001|52=20180816-12:33:24.493|56=TRAXQA3|10=209|8=FIXT.1.1|9=71|35=0|34=204|49=HEMAQA3_INBOUND_001|52=20180816-12:33:54.497|56=TRAXQA3|10=217|8=FIXT.1.1|9=71|35=0|34=205|49=HEMAQA3_INBOUND_001|52=20180816-12:34:25.496|56=TRAXQA3|10=216|8=FIXT.1.1|9=71|35=0|34=206|49=HEMAQA3_INBOUND_001|52=20180816-12:34:56.492|56=TRAXQA3|10=217|8=FIXT.1.1|9=71|35=0|34=207|49=HEMAQA3_INBOUND_001|52=20180816-12:35:26.499|56=TRAXQA3|10=223|8=FIXT.1.1|9=71|35=0|34=208|49=HEMAQA3_INBOUND_001|52=20180816-12:35:57.490|56=TRAXQA3|10=219|8=FIXT.1.1|9=71|35=0|34=209|49=HEMAQA3_INBOUND_001|52=20180816-12:36:27.495|56=TRAXQA3|10=223|8=FIXT.1.1|9=71|35=0|34=210|49=HEMAQA3_INBOUND_001|52=20180816-12:36:57.497|56=TRAXQA3|10=220|8=FIXT.1.1|9=71|35=0|34=211|49=HEMAQA3_INBOUND_001|52=20180816-12:37:28.501|56=TRAXQA3|10=206|8=FIXT.1.1|9=71|35=0|34=212|49=HEMAQA3_INBOUND_001|52=20180816-12:37:59.489|56=TRAXQA3|10=226|8=FIXT.1.1|9=71|35=0|34=213|49=HEMAQA3_INBOUND_001|52=20180816-12:38:30.487|56=TRAXQA3|10=215|8=FIXT.1.1|9=71|35=0|34=214|49=HEMAQA3_INBOUND_001|52=20180816-12:39:00.498|56=TRAXQA3|10=216|8=FIXT.1.1|9=71|35=0|34=215|49=HEMAQA3_INBOUND_001|52=20180816-12:39:31.491|56=TRAXQA3|10=214|8=FIXT.1.1|9=71|35=0|34=216|49=HEMAQA3_INBOUND_001|52=20180816-12:40:01.491|56=TRAXQA3|10=204|8=FIXT.1.1|9=71|35=0|34=217|49=HEMAQA3_INBOUND_001|52=20180816-12:40:31.491|56=TRAXQA3|10=208|8=FIXT.1.1|9=71|35=0|34=218|49=HEMAQA3_INBOUND_001|52=20180816-12:41:02.490|56=TRAXQA3|10=207|8=FIXT.1.1|9=71|35=0|34=219|49=HEMAQA3_INBOUND_001|52=20180816-12:41:33.489|56=TRAXQA3|10=220|8=FIXT.1.1|9=71|35=0|34=220|49=HEMAQA3_INBOUND_001|52=20180816-12:42:04.488|56=TRAXQA3|10=210|8=FIXT.1.1|9=71|35=0|34=221|49=HEMAQA3_INBOUND_001|52=20180816-12:42:34.492|56=TRAXQA3|10=209|8=FIXT.1.1|9=71|35=0|34=222|49=HEMAQA3_INBOUND_001|52=20180816-12:43:04.496|56=TRAXQA3|10=212|8=FIXT.1.1|9=71|35=0|34=223|49=HEMAQA3_INBOUND_001|52=20180816-12:43:34.498|56=TRAXQA3|10=218|8=FIXT.1.1|9=71|35=0|34=224|49=HEMAQA3_INBOUND_001|52=20180816-12:44:04.499|56=TRAXQA3|10=218|8=FIXT.1.1|9=71|35=0|34=225|49=HEMAQA3_INBOUND_001|52=20180816-12:44:35.492|56=TRAXQA3|10=216|8=FIXT.1.1|9=71|35=0|34=226|49=HEMAQA3_INBOUND_001|52=20180816-12:45:05.494|56=TRAXQA3|10=217|8=FIXT.1.1|9=71|35=0|34=227|49=HEMAQA3_INBOUND_001|52=20180816-12:45:36.486|56=TRAXQA3|10=223|8=FIXT.1.1|9=71|35=0|34=228|49=HEMAQA3_INBOUND_001|52=20180816-12:46:06.496|56=TRAXQA3|10=223|8=FIXT.1.1|9=71|35=0|34=229|49=HEMAQA3_INBOUND_001|52=20180816-12:46:36.502|56=TRAXQA3|10=215|8=FIXT.1.1|9=71|35=0|34=230|49=HEMAQA3_INBOUND_001|52=20180816-12:47:07.497|56=TRAXQA3|10=219|8=FIXT.1.1|9=71|35=0|34=231|49=HEMAQA3_INBOUND_001|52=20180816-12:47:38.496|56=TRAXQA3|10=223|8=FIXT.1.1|9=71|35=0|34=232|49=HEMAQA3_INBOUND_001|52=20180816-12:48:08.498|56=TRAXQA3|10=224|8=FIXT.1.1|9=71|35=0|34=233|49=HEMAQA3_INBOUND_001|52=20180816-12:48:39.495|56=TRAXQA3|10=226|8=FIXT.1.1|9=71|35=0|34=234|49=HEMAQA3_INBOUND_001|52=20180816-12:49:09.496|56=TRAXQA3|10=226|8=FIXT.1.1|9=71|35=0|34=235|49=HEMAQA3_INBOUND_001|52=20180816-12:49:40.487|56=TRAXQA3|10=222|8=FIXT.1.1|9=71|35=0|34=236|49=HEMAQA3_INBOUND_001|52=20180816-12:50:10.487|56=TRAXQA3|10=212|8=FIXT.1.1|9=71|35=0|34=237|49=HEMAQA3_INBOUND_001|52=20180816-12:50:40.487|56=TRAXQA3|10=216|8=FIXT.1.1|9=71|35=0|34=238|49=HEMAQA3_INBOUND_001|52=20180816-12:51:10.496|56=TRAXQA3|10=215|8=FIXT.1.1|9=71|35=0|34=239|49=HEMAQA3_INBOUND_001|52=20180816-12:51:40.497|56=TRAXQA3|10=220|8=FIXT.1.1|9=71|35=0|34=240|49=HEMAQA3_INBOUND_001|52=20180816-12:52:10.755|56=TRAXQA3|10=207|8=FIXT.1.1|9=71|35=0|34=241|49=HEMAQA3_INBOUND_001|52=20180816-12:52:40.755|56=TRAXQA3|10=211|8=FIXT.1.1|9=71|35=0|34=242|49=HEMAQA3_INBOUND_001|52=20180816-12:53:10.755|56=TRAXQA3|10=210|8=FIXT.1.1|9=71|35=0|34=243|49=HEMAQA3_INBOUND_001|52=20180816-12:53:40.756|56=TRAXQA3|10=215|8=FIXT.1.1|9=71|35=0|34=244|49=HEMAQA3_INBOUND_001|52=20180816-12:54:10.762|56=TRAXQA3|10=211|8=FIXT.1.1|9=71|35=0|34=245|49=HEMAQA3_INBOUND_001|52=20180816-12:54:41.489|56=TRAXQA3|10=222|8=FIXT.1.1|9=71|35=0|34=246|49=HEMAQA3_INBOUND_001|52=20180816-12:55:11.489|56=TRAXQA3|10=221|8=FIXT.1.1|9=71|35=0|34=247|49=HEMAQA3_INBOUND_001|52=20180816-12:55:41.497|56=TRAXQA3|10=224|8=FIXT.1.1|9=71|35=0|34=248|49=HEMAQA3_INBOUND_001|52=20180816-12:56:11.499|56=TRAXQA3|10=225|8=FIXT.1.1|9=71|35=0|34=249|49=HEMAQA3_INBOUND_001|52=20180816-12:56:41.499|56=TRAXQA3|10=229|8=FIXT.1.1|9=71|35=0|34=250|49=HEMAQA3_INBOUND_001|52=20180816-12:57:12.498|56=TRAXQA3|10=219|8=FIXT.1.1|9=71|35=0|34=251|49=HEMAQA3_INBOUND_001|52=20180816-12:57:43.495|56=TRAXQA3|10=221|8=FIXT.1.1|9=71|35=0|34=252|49=HEMAQA3_INBOUND_001|52=20180816-12:58:13.500|56=TRAXQA3|10=207|8=FIXT.1.1|9=71|35=0|34=253|49=HEMAQA3_INBOUND_001|52=20180816-12:58:44.495|56=TRAXQA3|10=225|8=FIXT.1.1|9=71|35=0|34=254|49=HEMAQA3_INBOUND_001|52=20180816-12:59:14.495|56=TRAXQA3|10=224|8=FIXT.1.1|9=71|35=0|34=255|49=HEMAQA3_INBOUND_001|52=20180816-12:59:45.489|56=TRAXQA3|10=232|8=FIXT.1.1|9=71|35=0|34=256|49=HEMAQA3_INBOUND_001|52=20180816-13:00:15.495|56=TRAXQA3|10=214|8=FIXT.1.1|9=71|35=0|34=257|49=HEMAQA3_INBOUND_001|52=20180816-13:00:45.499|56=TRAXQA3|10=222|8=FIXT.1.1|9=71|35=0|34=258|49=HEMAQA3_INBOUND_001|52=20180816-13:01:16.490|56=TRAXQA3|10=213|8=FIXT.1.1|9=71|35=0|34=259|49=HEMAQA3_INBOUND_001|52=20180816-13:01:46.496|56=TRAXQA3|10=223|8=FIXT.1.1|9=71|35=0|34=260|49=HEMAQA3_INBOUND_001|52=20180816-13:02:17.488|56=TRAXQA3|10=215|8=FIXT.1.1|9=71|35=0|34=261|49=HEMAQA3_INBOUND_001|52=20180816-13:02:47.492|56=TRAXQA3|10=214|8=FIXT.1.1|9=71|35=0|34=262|49=HEMAQA3_INBOUND_001|52=20180816-13:03:17.501|56=TRAXQA3|10=204|8=FIXT.1.1|9=71|35=0|34=263|49=HEMAQA3_INBOUND_001|52=20180816-13:03:48.492|56=TRAXQA3|10=218|8=FIXT.1.1|9=71|35=0|34=264|49=HEMAQA3_INBOUND_001|52=20180816-13:04:18.498|56=TRAXQA3|10=223|8=FIXT.1.1|9=71|35=0|34=265|49=HEMAQA3_INBOUND_001|52=20180816-13:04:48.498|56=TRAXQA3|10=227|8=FIXT.1.1|9=71|35=0|34=266|49=HEMAQA3_INBOUND_001|52=20180816-13:05:18.498|56=TRAXQA3|10=226|8=FIXT.1.1|9=71|35=0|34=267|49=HEMAQA3_INBOUND_001|52=20180816-13:05:49.493|56=TRAXQA3|10=226|8=FIXT.1.1|9=71|35=0|34=268|49=HEMAQA3_INBOUND_001|52=20180816-13:06:19.503|56=TRAXQA3|10=217|8=FIXT.1.1|9=71|35=0|34=269|49=HEMAQA3_INBOUND_001|52=20180816-13:06:50.492|56=TRAXQA3|10=220|8=FIXT.1.1|9=71|35=0|34=270|49=HEMAQA3_INBOUND_001|52=20180816-13:07:20.500|56=TRAXQA3|10=200|8=FIXT.1.1|9=71|35=0|34=271|49=HEMAQA3_INBOUND_001|52=20180816-13:07:51.499|56=TRAXQA3|10=222|8=FIXT.1.1|9=71|35=0|34=272|49=HEMAQA3_INBOUND_001|52=20180816-13:08:21.501|56=TRAXQA3|10=205|8=FIXT.1.1|9=71|35=0|34=273|49=HEMAQA3_INBOUND_001|52=20180816-13:08:52.494|56=TRAXQA3|10=221|8=FIXT.1.1|9=71|35=0|34=274|49=HEMAQA3_INBOUND_001|52=20180816-13:09:22.505|56=TRAXQA3|10=213|8=FIXT.1.1|9=71|35=0|34=275|49=HEMAQA3_INBOUND_001|52=20180816-13:09:53.502|56=TRAXQA3|10=215|8=FIXT.1.1|9=71|35=0|34=276|49=HEMAQA3_INBOUND_001|52=20180816-13:10:23.505|56=TRAXQA3|10=208|8=FIXT.1.1|9=71|35=0|34=277|49=HEMAQA3_INBOUND_001|52=20180816-13:10:54.505|56=TRAXQA3|10=213|8=FIXT.1.1|9=71|35=0|34=278|49=HEMAQA3_INBOUND_001|52=20180816-13:11:25.496|56=TRAXQA3|10=222|8=FIXT.1.1|9=71|35=0|34=279|49=HEMAQA3_INBOUND_001|52=20180816-13:11:56.493|56=TRAXQA3|10=224|8=FIXT.1.1|9=71|35=0|34=280|49=HEMAQA3_INBOUND_001|52=20180816-13:12:26.495|56=TRAXQA3|10=216|8=FIXT.1.1|9=71|35=0|34=281|49=HEMAQA3_INBOUND_001|52=20180816-13:12:56.504|56=TRAXQA3|10=211|8=FIXT.1.1|9=71|35=0|34=282|49=HEMAQA3_INBOUND_001|52=20180816-13:13:27.495|56=TRAXQA3|10=220|8=FIXT.1.1|9=71|35=0|34=283|49=HEMAQA3_INBOUND_001|52=20180816-13:13:57.503|56=TRAXQA3|10=214|8=FIXT.1.1|9=71|35=0|34=284|49=HEMAQA3_INBOUND_001|52=20180816-13:14:28.493|56=TRAXQA3|10=222|8=FIXT.1.1|9=71|35=0|34=285|49=HEMAQA3_INBOUND_001|52=20180816-13:14:58.504|56=TRAXQA3|10=219|8=FIXT.1.1|9=71|35=0|34=286|49=HEMAQA3_INBOUND_001|52=20180816-13:15:28.504|56=TRAXQA3|10=218|8=FIXT.1.1|9=71|35=0|34=287|49=HEMAQA3_INBOUND_001|52=20180816-13:15:59.507|56=TRAXQA3|10=226|8=FIXT.1.1|9=71|35=0|34=288|49=HEMAQA3_INBOUND_001|52=20180816-13:16:30.494|56=TRAXQA3|10=222|8=FIXT.1.1|9=71|35=0|34=289|49=HEMAQA3_INBOUND_001|52=20180816-13:17:00.503|56=TRAXQA3|10=212|8=FIXT.1.1|9=71|35=0|34=290|49=HEMAQA3_INBOUND_001|52=20180816-13:17:31.494|56=TRAXQA3|10=217|8=FIXT.1.1|9=71|35=0|34=291|49=HEMAQA3_INBOUND_001|52=20180816-13:18:01.501|56=TRAXQA3|10=205|8=FIXT.1.1|9=71|35=0|34=292|49=HEMAQA3_INBOUND_001|52=20180816-13:18:31.508|56=TRAXQA3|10=216|8=FIXT.1.1|9=71|35=0|34=293|49=HEMAQA3_INBOUND_001|52=20180816-13:19:02.494|56=TRAXQA3|10=220|8=FIXT.1.1|9=71|35=0|34=294|49=HEMAQA3_INBOUND_001|52=20180816-13:19:32.498|56=TRAXQA3|10=228|8=FIXT.1.1|9=71|35=0|34=295|49=HEMAQA3_INBOUND_001|52=20180816-13:20:03.505|56=TRAXQA3|10=208|8=FIXT.1.1|9=71|35=0|34=296|49=HEMAQA3_INBOUND_001|52=20180816-13:20:33.509|56=TRAXQA3|10=216|8=FIXT.1.1|9=71|35=0|34=297|49=HEMAQA3_INBOUND_001|52=20180816-13:21:03.510|56=TRAXQA3|10=207|8=FIXT.1.1|9=71|35=0|34=298|49=HEMAQA3_INBOUND_001|52=20180816-13:21:34.502|56=TRAXQA3|10=213|8=FIXT.1.1|9=71|35=0|34=299|49=HEMAQA3_INBOUND_001|52=20180816-13:22:05.508|56=TRAXQA3|10=219|8=FIXT.1.1|9=71|35=0|34=300|49=HEMAQA3_INBOUND_001|52=20180816-13:22:36.499|56=TRAXQA3|10=215|8=FIXT.1.1|9=71|35=0|34=301|49=HEMAQA3_INBOUND_001|52=20180816-13:23:06.501|56=TRAXQA3|10=198|8=FIXT.1.1|9=71|35=0|34=302|49=HEMAQA3_INBOUND_001|52=20180816-13:23:36.505|56=TRAXQA3|10=206|8=FIXT.1.1|9=71|35=0|34=303|49=HEMAQA3_INBOUND_001|52=20180816-13:24:06.508|56=TRAXQA3|10=208|8=FIXT.1.1|9=71|35=0|34=304|49=HEMAQA3_INBOUND_001|52=20180816-13:24:37.498|56=TRAXQA3|10=221|8=FIXT.1.1|9=71|35=0|34=305|49=HEMAQA3_INBOUND_001|52=20180816-13:25:07.501|56=TRAXQA3|10=205|8=FIXT.1.1|9=71|35=0|34=306|49=HEMAQA3_INBOUND_001|52=20180816-13:25:37.506|56=TRAXQA3|10=214|8=FIXT.1.1|9=71|35=0|34=307|49=HEMAQA3_INBOUND_001|52=20180816-13:26:07.506|56=TRAXQA3|10=213|8=FIXT.1.1|9=71|35=0|34=308|49=HEMAQA3_INBOUND_001|52=20180816-13:26:38.506|56=TRAXQA3|10=218|8=FIXT.1.1|9=71|35=0|34=309|49=HEMAQA3_INBOUND_001|52=20180816-13:27:09.498|56=TRAXQA3|10=228|8=FIXT.1.1|9=71|35=0|34=310|49=HEMAQA3_INBOUND_001|52=20180816-13:27:39.509|56=TRAXQA3|10=216|8=FIXT.1.1|9=71|35=0|34=311|49=HEMAQA3_INBOUND_001|52=20180816-13:28:10.500|56=TRAXQA3|10=198|8=FIXT.1.1|9=71|35=0|34=312|49=HEMAQA3_INBOUND_001|52=20180816-13:28:40.510|56=TRAXQA3|10=203|8=FIXT.1.1|9=71|35=0|34=313|49=HEMAQA3_INBOUND_001|52=20180816-13:29:10.774|56=TRAXQA3|10=214|8=FIXT.1.1|9=71|35=0|34=314|49=HEMAQA3_INBOUND_001|52=20180816-13:29:41.500|56=TRAXQA3|10=206|8=FIXT.1.1|9=71|35=0|34=315|49=HEMAQA3_INBOUND_001|52=20180816-13:30:11.507|56=TRAXQA3|10=203|8=FIXT.1.1|9=71|35=0|34=316|49=HEMAQA3_INBOUND_001|52=20180816-13:30:41.509|56=TRAXQA3|10=209|8=FIXT.1.1|9=71|35=0|34=317|49=HEMAQA3_INBOUND_001|52=20180816-13:31:12.508|56=TRAXQA3|10=208|8=FIXT.1.1|9=71|35=0|34=318|49=HEMAQA3_INBOUND_001|52=20180816-13:31:43.504|56=TRAXQA3|10=209|8=FIXT.1.1|9=71|35=0|34=319|49=HEMAQA3_INBOUND_001|52=20180816-13:32:14.500|56=TRAXQA3|10=205|8=FIXT.1.1|9=71|35=0|34=320|49=HEMAQA3_INBOUND_001|52=20180816-13:32:44.502|56=TRAXQA3|10=202|8=FIXT.1.1|9=71|35=0|34=321|49=HEMAQA3_INBOUND_001|52=20180816-13:33:14.505|56=TRAXQA3|10=204|8=FIXT.1.1|9=71|35=0|34=322|49=HEMAQA3_INBOUND_001|52=20180816-13:33:45.507|56=TRAXQA3|10=211|8=FIXT.1.1|9=71|35=0|34=323|49=HEMAQA3_INBOUND_001|52=20180816-13:34:16.501|56=TRAXQA3|10=205|8=FIXT.1.1|9=71|35=0|34=324|49=HEMAQA3_INBOUND_001|52=20180816-13:34:46.509|56=TRAXQA3|10=217|8=FIXT.1.1|9=71|35=0|34=325|49=HEMAQA3_INBOUND_001|52=20180816-13:35:17.505|56=TRAXQA3|10=213|8=FIXT.1.1|9=71|35=0|34=326|49=HEMAQA3_INBOUND_001|52=20180816-13:35:47.507|56=TRAXQA3|10=219|8=FIXT.1.1|9=71|35=0|34=327|49=HEMAQA3_INBOUND_001|52=20180816-13:36:18.505|56=TRAXQA3|10=217|8=FIXT.1.1|9=71|35=0|34=328|49=HEMAQA3_INBOUND_001|52=20180816-13:36:48.505|56=TRAXQA3|10=221|8=FIXT.1.1|9=71|35=0|34=329|49=HEMAQA3_INBOUND_001|52=20180816-13:37:19.498|56=TRAXQA3|10=232|8=FIXT.1.1|9=71|35=0|34=330|49=HEMAQA3_INBOUND_001|52=20180816-13:37:49.503|56=TRAXQA3|10=214|8=FIXT.1.1|9=71|35=0|34=331|49=HEMAQA3_INBOUND_001|52=20180816-13:38:20.504|56=TRAXQA3|10=206|8=FIXT.1.1|9=71|35=0|34=332|49=HEMAQA3_INBOUND_001|52=20180816-13:38:51.501|56=TRAXQA3|10=208|8=FIXT.1.1|9=71|35=0|34=333|49=HEMAQA3_INBOUND_001|52=20180816-13:39:22.493|56=TRAXQA3|10=218|8=FIXT.1.1|9=71|35=0|34=334|49=HEMAQA3_INBOUND_001|52=20180816-13:39:52.500|56=TRAXQA3|10=211|8=FIXT.1.1|9=71|35=0|34=335|49=HEMAQA3_INBOUND_001|52=20180816-13:40:22.501|56=TRAXQA3|10=202|8=FIXT.1.1|9=71|35=0|34=336|49=HEMAQA3_INBOUND_001|52=20180816-13:40:53.501|56=TRAXQA3|10=207|8=FIXT.1.1|9=71|35=0|34=337|49=HEMAQA3_INBOUND_001|52=20180816-13:41:24.497|56=TRAXQA3|10=221|8=FIXT.1.1|9=71|35=0|34=338|49=HEMAQA3_INBOUND_001|52=20180816-13:41:55.494|56=TRAXQA3|10=223|8=FIXT.1.1|9=71|35=0|34=339|49=HEMAQA3_INBOUND_001|52=20180816-13:42:26.493|56=TRAXQA3|10=222|8=FIXT.1.1|9=71|35=0|34=340|49=HEMAQA3_INBOUND_001|52=20180816-13:42:57.486|56=TRAXQA3|10=220|8=FIXT.1.1|9=71|35=0|34=341|49=HEMAQA3_INBOUND_001|52=20180816-13:43:27.493|56=TRAXQA3|10=217|8=FIXT.1.1|9=71|35=0|34=342|49=HEMAQA3_INBOUND_001|52=20180816-13:43:58.487|56=TRAXQA3|10=225|8=FIXT.1.1|9=71|35=0|34=343|49=HEMAQA3_INBOUND_001|52=20180816-13:44:29.486|56=TRAXQA3|10=224|8=FIXT.1.1|9=71|35=0|34=344|49=HEMAQA3_INBOUND_001|52=20180816-13:45:00.484|56=TRAXQA3|10=213|8=FIXT.1.1|9=71|35=0|34=345|49=HEMAQA3_INBOUND_001|52=20180816-13:45:31.481|56=TRAXQA3|10=215|8=FIXT.1.1|9=71|35=0|34=346|49=HEMAQA3_INBOUND_001|52=20180816-13:46:02.480|56=TRAXQA3|10=214|8=FIXT.1.1|9=71|35=0|34=347|49=HEMAQA3_INBOUND_001|52=20180816-13:46:32.495|56=TRAXQA3|10=224|8=FIXT.1.1|9=71|35=0|34=348|49=HEMAQA3_INBOUND_001|52=20180816-13:47:03.479|56=TRAXQA3|10=226|8=FIXT.1.1|9=71|35=0|34=349|49=HEMAQA3_INBOUND_001|52=20180816-13:47:33.484|56=TRAXQA3|10=226|8=FIXT.1.1|9=71|35=0|34=350|49=HEMAQA3_INBOUND_001|52=20180816-13:48:04.483|56=TRAXQA3|10=216|8=FIXT.1.1|9=71|35=0|34=351|49=HEMAQA3_INBOUND_001|52=20180816-13:48:35.486|56=TRAXQA3|10=224|8=FIXT.1.1|9=71|35=0|34=352|49=HEMAQA3_INBOUND_001|52=20180816-13:49:05.486|56=TRAXQA3|10=223|8=FIXT.1.1|9=71|35=0|34=353|49=HEMAQA3_INBOUND_001|52=20180816-13:49:36.491|56=TRAXQA3|10=224|8=FIXT.1.1|9=71|35=0|34=354|49=HEMAQA3_INBOUND_001|52=20180816-13:50:07.478|56=TRAXQA3|10=220|8=FIXT.1.1|9=71|35=0|34=355|49=HEMAQA3_INBOUND_001|52=20180816-13:50:37.490|56=TRAXQA3|10=218|8=FIXT.1.1|9=71|35=0|34=356|49=HEMAQA3_INBOUND_001|52=20180816-13:51:08.476|56=TRAXQA3|10=222|8=FIXT.1.1|9=71|35=0|34=357|49=HEMAQA3_INBOUND_001|52=20180816-13:51:38.478|56=TRAXQA3|10=228|8=FIXT.1.1|9=71|35=0|34=358|49=HEMAQA3_INBOUND_001|52=20180816-13:52:09.474|56=TRAXQA3|10=224|8=FIXT.1.1|9=71|35=0|34=359|49=HEMAQA3_INBOUND_001|52=20180816-13:52:39.482|56=TRAXQA3|10=227|8=FIXT.1.1|9=71|35=0|34=360|49=HEMAQA3_INBOUND_001|52=20180816-13:53:10.473|56=TRAXQA3|10=209|8=FIXT.1.1|9=71|35=0|34=361|49=HEMAQA3_INBOUND_001|52=20180816-13:53:40.473|56=TRAXQA3|10=213|8=FIXT.1.1|9=71|35=0|34=362|49=HEMAQA3_INBOUND_001|52=20180816-13:54:10.484|56=TRAXQA3|10=214|8=FIXT.1.1|9=71|35=0|34=363|49=HEMAQA3_INBOUND_001|52=20180816-13:54:40.744|56=TRAXQA3|10=217|8=FIXT.1.1|9=71|35=0|34=364|49=HEMAQA3_INBOUND_001|52=20180816-13:55:10.754|56=TRAXQA3|10=217|8=FIXT.1.1|9=71|35=0|34=365|49=HEMAQA3_INBOUND_001|52=20180816-13:55:41.473|56=TRAXQA3|10=220|8=FIXT.1.1|9=71|35=0|34=366|49=HEMAQA3_INBOUND_001|52=20180816-13:56:11.473|56=TRAXQA3|10=219|8=FIXT.1.1|9=71|35=0|34=367|49=HEMAQA3_INBOUND_001|52=20180816-13:56:41.473|56=TRAXQA3|10=223|8=FIXT.1.1|9=71|35=0|34=368|49=HEMAQA3_INBOUND_001|52=20180816-13:57:11.483|56=TRAXQA3|10=223|8=FIXT.1.1|9=71|35=0|34=369|49=HEMAQA3_INBOUND_001|52=20180816-13:57:42.471|56=TRAXQA3|10=225|8=FIXT.1.1|9=71|35=0|34=370|49=HEMAQA3_INBOUND_001|52=20180816-13:58:12.481|56=TRAXQA3|10=216|8=FIXT.1.1|9=71|35=0|34=371|49=HEMAQA3_INBOUND_001|52=20180816-13:58:42.482|56=TRAXQA3|10=221|8=FIXT.1.1|9=71|35=0|34=372|49=HEMAQA3_INBOUND_001|52=20180816-13:59:13.477|56=TRAXQA3|10=225|8=FIXT.1.1|9=71|35=0|34=373|49=HEMAQA3_INBOUND_001|52=20180816-13:59:43.480|56=TRAXQA3|10=223|8=FIXT.1.1|9=71|35=0|34=374|49=HEMAQA3_INBOUND_001|52=20180816-14:00:14.480|56=TRAXQA3|10=209|8=FIXT.1.1|9=71|35=0|34=375|49=HEMAQA3_INBOUND_001|52=20180816-14:00:45.474|56=TRAXQA3|10=217|8=FIXT.1.1|9=71|35=0|34=376|49=HEMAQA3_INBOUND_001|52=20180816-14:01:15.478|56=TRAXQA3|10=220|8=FIXT.1.1|9=71|35=0|34=377|49=HEMAQA3_INBOUND_001|52=20180816-14:01:46.472|56=TRAXQA3|10=219|8=FIXT.1.1|9=71|35=0|34=378|49=HEMAQA3_INBOUND_001|52=20180816-14:02:17.470|56=TRAXQA3|10=217|8=FIXT.1.1|9=71|35=0|34=379|49=HEMAQA3_INBOUND_001|52=20180816-14:02:47.480|56=TRAXQA3|10=222|8=FIXT.1.1|9=71|35=0|34=380|49=HEMAQA3_INBOUND_001|52=20180816-14:03:18.477|56=TRAXQA3|10=219|8=FIXT.1.1|9=71|35=0|34=381|49=HEMAQA3_INBOUND_001|52=20180816-14:03:49.474|56=TRAXQA3|10=221|8=FIXT.1.1|9=71|35=0|34=382|49=HEMAQA3_INBOUND_001|52=20180816-14:04:19.477|56=TRAXQA3|10=223|8=FIXT.1.1|9=71|35=0|34=383|49=HEMAQA3_INBOUND_001|52=20180816-14:04:50.473|56=TRAXQA3|10=215|8=FIXT.1.1|9=71|35=0|34=384|49=HEMAQA3_INBOUND_001|52=20180816-14:05:21.470|56=TRAXQA3|10=212|8=FIXT.1.1|9=71|35=0|34=385|49=HEMAQA3_INBOUND_001|52=20180816-14:05:51.477|56=TRAXQA3|10=223|8=FIXT.1.1|9=71|35=0|34=386|49=HEMAQA3_INBOUND_001|52=20180816-14:06:22.475|56=TRAXQA3|10=221|8=FIXT.1.1|9=71|35=0|34=387|49=HEMAQA3_INBOUND_001|52=20180816-14:06:53.472|56=TRAXQA3|10=223|8=FIXT.1.1|9=71|35=0|34=388|49=HEMAQA3_INBOUND_001|52=20180816-14:07:24.473|56=TRAXQA3|10=224|8=FIXT.1.1|9=71|35=0|34=389|49=HEMAQA3_INBOUND_001|52=20180816-14:07:54.475|56=TRAXQA3|10=230|8=FIXT.1.1|9=71|35=0|34=390|49=HEMAQA3_INBOUND_001|52=20180816-14:08:25.468|56=TRAXQA3|10=223|8=FIXT.1.1|9=71|35=0|34=391|49=HEMAQA3_INBOUND_001|52=20180816-14:08:55.472|56=TRAXQA3|10=222|8=FIXT.1.1|9=71|35=0|34=392|49=HEMAQA3_INBOUND_001|52=20180816-14:09:26.470|56=TRAXQA3|10=220|8=FIXT.1.1|9=71|35=0|34=393|49=HEMAQA3_INBOUND_001|52=20180816-14:09:57.470|56=TRAXQA3|10=225|8=FIXT.1.1|9=71|35=0|34=394|49=HEMAQA3_INBOUND_001|52=20180816-14:10:28.469|56=TRAXQA3|10=224|8=FIXT.1.1|9=71|35=0|34=395|49=HEMAQA3_INBOUND_001|52=20180816-14:10:58.470|56=TRAXQA3|10=220|8=FIXT.1.1|9=71|35=0|34=396|49=HEMAQA3_INBOUND_001|52=20180816-14:11:28.471|56=TRAXQA3|10=220|8=FIXT.1.1|9=71|35=0|34=397|49=HEMAQA3_INBOUND_001|52=20180816-14:11:59.474|56=TRAXQA3|10=228|8=FIXT.1.1|9=71|35=0|34=398|49=HEMAQA3_INBOUND_001|52=20180816-14:12:29.474|56=TRAXQA3|10=227|8=FIXT.1.1|9=71|35=0|34=399|49=HEMAQA3_INBOUND_001|52=20180816-14:13:00.459|56=TRAXQA3|10=221|8=FIXT.1.1|9=71|35=0|34=400|49=HEMAQA3_INBOUND_001|52=20180816-14:13:30.460|56=TRAXQA3|10=199|8=FIXT.1.1|9=71|35=0|34=401|49=HEMAQA3_INBOUND_001|52=20180816-14:14:00.462|56=TRAXQA3|10=200|8=FIXT.1.1|9=71|35=0|34=402|49=HEMAQA3_INBOUND_001|52=20180816-14:14:30.469|56=TRAXQA3|10=211|8=FIXT.1.1|9=71|35=0|34=403|49=HEMAQA3_INBOUND_001|52=20180816-14:15:01.470|56=TRAXQA3|10=203|8=FIXT.1.1|9=71|35=0|34=404|49=HEMAQA3_INBOUND_001|52=20180816-14:15:31.470|56=TRAXQA3|10=207|8=FIXT.1.1|9=71|35=0|34=405|49=HEMAQA3_INBOUND_001|52=20180816-14:16:01.472|56=TRAXQA3|10=208|8=FIXT.1.1|9=71|35=0|34=406|49=HEMAQA3_INBOUND_001|52=20180816-14:16:32.469|56=TRAXQA3|10=219|8=FIXT.1.1|9=71|35=0|34=407|49=HEMAQA3_INBOUND_001|52=20180816-14:17:03.469|56=TRAXQA3|10=219|8=FIXT.1.1|9=71|35=0|34=408|49=HEMAQA3_INBOUND_001|52=20180816-14:17:34.460|56=TRAXQA3|10=215|8=FIXT.1.1|9=71|35=0|34=409|49=HEMAQA3_INBOUND_001|52=20180816-14:18:04.467|56=TRAXQA3|10=221|8=FIXT.1.1|9=71|35=0|34=410|49=HEMAQA3_INBOUND_001|52=20180816-14:18:35.465|56=TRAXQA3|10=215|8=FIXT.1.1|9=71|35=0|34=411|49=HEMAQA3_INBOUND_001|52=20180816-14:19:05.465|56=TRAXQA3|10=214|8=FIXT.1.1|9=71|35=0|34=412|49=HEMAQA3_INBOUND_001|52=20180816-14:19:36.471|56=TRAXQA3|10=216|8=FIXT.1.1|9=71|35=0|34=413|49=HEMAQA3_INBOUND_001|52=20180816-14:20:07.461|56=TRAXQA3|10=206|8=FIXT.1.1|9=71|35=0|34=414|49=HEMAQA3_INBOUND_001|52=20180816-14:20:37.463|56=TRAXQA3|10=212|8=FIXT.1.1|9=71|35=0|34=415|49=HEMAQA3_INBOUND_001|52=20180816-14:21:08.460|56=TRAXQA3|10=209|8=FIXT.1.1|9=71|35=0|34=416|49=HEMAQA3_INBOUND_001|52=20180816-14:21:38.466|56=TRAXQA3|10=219|8=FIXT.1.1|9=71|35=0|34=417|49=HEMAQA3_INBOUND_001|52=20180816-14:22:09.460|56=TRAXQA3|10=213|8=FIXT.1.1|9=71|35=0|34=418|49=HEMAQA3_INBOUND_001|52=20180816-14:22:39.470|56=TRAXQA3|10=218|8=FIXT.1.1|9=71|35=0|34=419|49=HEMAQA3_INBOUND_001|52=20180816-14:23:10.469|56=TRAXQA3|10=217|8=FIXT.1.1|9=71|35=0|34=420|49=HEMAQA3_INBOUND_001|52=20180816-14:23:40.469|56=TRAXQA3|10=212|8=FIXT.1.1|9=71|35=0|34=421|49=HEMAQA3_INBOUND_001|52=20180816-14:24:10.739|56=TRAXQA3|10=211|8=FIXT.1.1|9=71|35=0|34=422|49=HEMAQA3_INBOUND_001|52=20180816-14:24:40.747|56=TRAXQA3|10=214|8=FIXT.1.1|9=71|35=0|34=423|49=HEMAQA3_INBOUND_001|52=20180816-14:25:10.749|56=TRAXQA3|10=215|8=FIXT.1.1|9=71|35=0|34=424|49=HEMAQA3_INBOUND_001|52=20180816-14:25:41.457|56=TRAXQA3|10=216|8=FIXT.1.1|9=71|35=0|34=425|49=HEMAQA3_INBOUND_001|52=20180816-14:26:11.469|56=TRAXQA3|10=218|8=FIXT.1.1|9=71|35=0|34=426|49=HEMAQA3_INBOUND_001|52=20180816-14:26:42.458|56=TRAXQA3|10=221|8=FIXT.1.1|9=71|35=0|34=427|49=HEMAQA3_INBOUND_001|52=20180816-14:27:12.460|56=TRAXQA3|10=213|8=FIXT.1.1|9=71|35=0|34=428|49=HEMAQA3_INBOUND_001|52=20180816-14:27:43.455|56=TRAXQA3|10=222|8=FIXT.1.1|9=71|35=0|34=429|49=HEMAQA3_INBOUND_001|52=20180816-14:28:13.462|56=TRAXQA3|10=219|8=FIXT.1.1|9=71|35=0|34=430|49=HEMAQA3_INBOUND_001|52=20180816-14:28:44.455|56=TRAXQA3|10=217|8=FIXT.1.1|9=71|35=0|34=431|49=HEMAQA3_INBOUND_001|52=20180816-14:29:15.459|56=TRAXQA3|10=221|8=FIXT.1.1|9=71|35=0|34=432|49=HEMAQA3_INBOUND_001|52=20180816-14:29:46.455|56=TRAXQA3|10=222|8=FIXT.1.1|9=71|35=0|34=433|49=HEMAQA3_INBOUND_001|52=20180816-14:30:17.453|56=TRAXQA3|10=211|8=FIXT.1.1|9=71|35=0|34=434|49=HEMAQA3_INBOUND_001|52=20180816-14:30:47.461|56=TRAXQA3|10=214|8=FIXT.1.1|9=71|35=0|34=435|49=HEMAQA3_INBOUND_001|52=20180816-14:31:17.463|56=TRAXQA3|10=215|8=FIXT.1.1|9=71|35=0|34=436|49=HEMAQA3_INBOUND_001|52=20180816-14:31:48.457|56=TRAXQA3|10=223|8=FIXT.1.1|9=71|35=0|34=437|49=HEMAQA3_INBOUND_001|52=20180816-14:32:18.462|56=TRAXQA3|10=218|8=FIXT.1.1|9=71|35=0|34=438|49=HEMAQA3_INBOUND_001|52=20180816-14:32:48.467|56=TRAXQA3|10=227|8=FIXT.1.1|9=71|35=0|34=439|49=HEMAQA3_INBOUND_001|52=20180816-14:33:19.466|56=TRAXQA3|10=226|8=FIXT.1.1|9=71|35=0|34=440|49=HEMAQA3_INBOUND_001|52=20180816-14:33:50.459|56=TRAXQA3|10=215|8=FIXT.1.1|9=71|35=0|34=441|49=HEMAQA3_INBOUND_001|52=20180816-14:34:20.467|56=TRAXQA3|10=213|8=FIXT.1.1|9=71|35=0|34=442|49=HEMAQA3_INBOUND_001|52=20180816-14:34:50.467|56=TRAXQA3|10=217|8=FIXT.1.1|9=71|35=0|34=443|49=HEMAQA3_INBOUND_001|52=20180816-14:35:21.461|56=TRAXQA3|10=211|8=FIXT.1.1|9=71|35=0|34=444|49=HEMAQA3_INBOUND_001|52=20180816-14:35:51.462|56=TRAXQA3|10=216|8=FIXT.1.1|9=71|35=0|34=445|49=HEMAQA3_INBOUND_001|52=20180816-14:36:22.460|56=TRAXQA3|10=214|8=FIXT.1.1|9=71|35=0|34=446|49=HEMAQA3_INBOUND_001|52=20180816-14:36:53.456|56=TRAXQA3|10=224|8=FIXT.1.1|9=71|35=0|34=447|49=HEMAQA3_INBOUND_001|52=20180816-14:37:23.467|56=TRAXQA3|10=225|8=FIXT.1.1|9=71|35=0|34=448|49=HEMAQA3_INBOUND_001|52=20180816-14:37:54.457|56=TRAXQA3|10=229|8=FIXT.1.1|9=71|35=0|34=449|49=HEMAQA3_INBOUND_001|52=20180816-14:38:24.465|56=TRAXQA3|10=227|8=FIXT.1.1|9=71|35=0|34=450|49=HEMAQA3_INBOUND_001|52=20180816-14:38:55.454|56=TRAXQA3|10=221|8=FIXT.1.1|9=71|35=0|34=451|49=HEMAQA3_INBOUND_001|52=20180816-14:39:25.464|56=TRAXQA3|10=221|8=FIXT.1.1|9=71|35=0|34=452|49=HEMAQA3_INBOUND_001|52=20180816-14:39:56.455|56=TRAXQA3|10=226|8=FIXT.1.1|9=71|35=0|34=453|49=HEMAQA3_INBOUND_001|52=20180816-14:40:27.450|56=TRAXQA3|10=212|8=FIXT.1.1|9=71|35=0|34=454|49=HEMAQA3_INBOUND_001|52=20180816-14:40:57.455|56=TRAXQA3|10=221|8=FIXT.1.1|9=71|35=0|34=455|49=HEMAQA3_INBOUND_001|52=20180816-14:41:27.462|56=TRAXQA3|10=218|8=FIXT.1.1|9=71|35=0|34=456|49=HEMAQA3_INBOUND_001|52=20180816-14:41:57.462|56=TRAXQA3|10=222|8=FIXT.1.1|9=71|35=0|34=457|49=HEMAQA3_INBOUND_001|52=20180816-14:42:28.451|56=TRAXQA3|10=220|8=FIXT.1.1|9=71|35=0|34=458|49=HEMAQA3_INBOUND_001|52=20180816-14:42:58.457|56=TRAXQA3|10=230|8=FIXT.1.1|9=71|35=0|34=459|49=HEMAQA3_INBOUND_001|52=20180816-14:43:29.460|56=TRAXQA3|10=224|8=FIXT.1.1|9=71|35=0|34=460|49=HEMAQA3_INBOUND_001|52=20180816-14:43:59.460|56=TRAXQA3|10=219|8=FIXT.1.1|9=71|35=0|34=461|49=HEMAQA3_INBOUND_001|52=20180816-14:44:29.461|56=TRAXQA3|10=219|8=FIXT.1.1|9=71|35=0|34=462|49=HEMAQA3_INBOUND_001|52=20180816-14:45:00.456|56=TRAXQA3|10=214|8=FIXT.1.1|9=71|35=0|34=463|49=HEMAQA3_INBOUND_001|52=20180816-14:45:30.460|56=TRAXQA3|10=213|8=FIXT.1.1|9=71|35=0|34=464|49=HEMAQA3_INBOUND_001|52=20180816-14:46:00.461|56=TRAXQA3|10=213|8=FIXT.1.1|9=71|35=0|34=465|49=HEMAQA3_INBOUND_001|52=20180816-14:46:30.461|56=TRAXQA3|10=217|8=FIXT.1.1|9=71|35=0|34=466|49=HEMAQA3_INBOUND_001|52=20180816-14:47:00.461|56=TRAXQA3|10=216|8=FIXT.1.1|9=71|35=0|34=467|49=HEMAQA3_INBOUND_001|52=20180816-14:47:31.459|56=TRAXQA3|10=228|8=FIXT.1.1|9=71|35=0|34=468|49=HEMAQA3_INBOUND_001|52=20180816-14:48:02.457|56=TRAXQA3|10=226|8=FIXT.1.1|9=71|35=0|34=469|49=HEMAQA3_INBOUND_001|52=20180816-14:48:32.457|56=TRAXQA3|10=230|8=FIXT.1.1|9=71|35=0|34=470|49=HEMAQA3_INBOUND_001|52=20180816-14:49:03.456|56=TRAXQA3|10=220|8=FIXT.1.1|9=71|35=0|34=471|49=HEMAQA3_INBOUND_001|52=20180816-14:49:34.452|56=TRAXQA3|10=221|8=FIXT.1.1|9=71|35=0|34=472|49=HEMAQA3_INBOUND_001|52=20180816-14:50:05.450|56=TRAXQA3|10=210|8=FIXT.1.1|9=71|35=0|34=473|49=HEMAQA3_INBOUND_001|52=20180816-14:50:35.456|56=TRAXQA3|10=220|8=FIXT.1.1|9=71|35=0|34=474|49=HEMAQA3_INBOUND_001|52=20180816-14:51:06.457|56=TRAXQA3|10=221|8=FIXT.1.1|9=71|35=0|34=475|49=HEMAQA3_INBOUND_001|52=20180816-14:51:36.457|56=TRAXQA3|10=225|8=FIXT.1.1|9=71|35=0|34=476|49=HEMAQA3_INBOUND_001|52=20180816-14:52:07.455|56=TRAXQA3|10=223|8=FIXT.1.1|9=71|35=0|34=477|49=HEMAQA3_INBOUND_001|52=20180816-14:52:37.460|56=TRAXQA3|10=223|8=FIXT.1.1|9=71|35=0|34=478|49=HEMAQA3_INBOUND_001|52=20180816-14:53:08.454|56=TRAXQA3|10=226|8=FIXT.1.1|9=71|35=0|34=479|49=HEMAQA3_INBOUND_001|52=20180816-14:53:39.456|56=TRAXQA3|10=233|8=FIXT.1.1|9=71|35=0|34=480|49=HEMAQA3_INBOUND_001|52=20180816-14:54:10.460|56=TRAXQA3|10=210|8=FIXT.1.1|9=71|35=0|34=481|49=HEMAQA3_INBOUND_001|52=20180816-14:54:40.738|56=TRAXQA3|10=222|8=FIXT.1.1|9=71|35=0|34=482|49=HEMAQA3_INBOUND_001|52=20180816-14:55:10.739|56=TRAXQA3|10=222|8=FIXT.1.1|9=71|35=0|34=483|49=HEMAQA3_INBOUND_001|52=20180816-14:55:40.745|56=TRAXQA3|10=223|8=FIXT.1.1|9=71|35=0|34=484|49=HEMAQA3_INBOUND_001|52=20180816-14:56:11.458|56=TRAXQA3|10=224|8=FIXT.1.1|9=71|35=0|34=485|49=HEMAQA3_INBOUND_001|52=20180816-14:56:42.454|56=TRAXQA3|10=225|8=FIXT.1.1|9=71|35=0|34=486|49=HEMAQA3_INBOUND_001|52=20180816-14:57:12.455|56=TRAXQA3|10=225|8=FIXT.1.1|9=71|35=0|34=487|49=HEMAQA3_INBOUND_001|52=20180816-14:57:43.456|56=TRAXQA3|10=231|8=FIXT.1.1|9=71|35=0|34=488|49=HEMAQA3_INBOUND_001|52=20180816-14:58:14.448|56=TRAXQA3|10=232|8=FIXT.1.1|9=71|35=0|34=489|49=HEMAQA3_INBOUND_001|52=20180816-14:58:45.447|56=TRAXQA3|10=236|8=FIXT.1.1|9=71|35=0|34=490|49=HEMAQA3_INBOUND_001|52=20180816-14:59:16.446|56=TRAXQA3|10=226|8=FIXT.1.1|9=71|35=0|34=491|49=HEMAQA3_INBOUND_001|52=20180816-14:59:46.447|56=TRAXQA3|10=231|8=FIXT.1.1|9=71|35=0|34=492|49=HEMAQA3_INBOUND_001|52=20180816-15:00:16.454|56=TRAXQA3|10=214|8=FIXT.1.1|9=71|35=0|34=493|49=HEMAQA3_INBOUND_001|52=20180816-15:00:47.453|56=TRAXQA3|10=218|8=FIXT.1.1|9=71|35=0|34=494|49=HEMAQA3_INBOUND_001|52=20180816-15:01:17.454|56=TRAXQA3|10=218|8=FIXT.1.1|9=71|35=0|34=495|49=HEMAQA3_INBOUND_001|52=20180816-15:01:48.451|56=TRAXQA3|10=220|8=FIXT.1.1|9=71|35=0|34=496|49=HEMAQA3_INBOUND_001|52=20180816-15:02:19.457|56=TRAXQA3|10=226|8=FIXT.1.1|9=71|35=0|34=497|49=HEMAQA3_INBOUND_001|52=20180816-15:02:50.457|56=TRAXQA3|10=222|8=FIXT.1.1|9=71|35=0|34=498|49=HEMAQA3_INBOUND_001|52=20180816-15:03:21.454|56=TRAXQA3|10=219|8=FIXT.1.1|9=71|35=0|34=499|49=HEMAQA3_INBOUND_001|52=20180816-15:03:52.451|56=TRAXQA3|10=221|8=FIXT.1.1|9=71|35=0|34=500|49=HEMAQA3_INBOUND_001|52=20180816-15:04:23.451|56=TRAXQA3|10=203|8=FIXT.1.1|9=71|35=0|34=501|49=HEMAQA3_INBOUND_001|52=20180816-15:04:54.452|56=TRAXQA3|10=209|8=FIXT.1.1|9=71|35=0|34=502|49=HEMAQA3_INBOUND_001|52=20180816-15:05:25.446|56=TRAXQA3|10=212|8=FIXT.1.1|9=71|35=0|34=503|49=HEMAQA3_INBOUND_001|52=20180816-15:05:55.457|56=TRAXQA3|10=218|8=FIXT.1.1|9=71|35=0|34=504|49=HEMAQA3_INBOUND_001|52=20180816-15:06:26.454|56=TRAXQA3|10=215|8=FIXT.1.1|9=71|35=0|34=505|49=HEMAQA3_INBOUND_001|52=20180816-15:06:57.456|56=TRAXQA3|10=222|8=FIXT.1.1|9=71|35=0|34=506|49=HEMAQA3_INBOUND_001|52=20180816-15:07:28.447|56=TRAXQA3|10=222|8=FIXT.1.1|9=71|35=0|34=507|49=HEMAQA3_INBOUND_001|52=20180816-15:07:58.453|56=TRAXQA3|10=223|8=FIXT.1.1|9=71|35=0|34=508|49=HEMAQA3_INBOUND_001|52=20180816-15:08:29.452|56=TRAXQA3|10=222|8=FIXT.1.1|9=71|35=0|34=509|49=HEMAQA3_INBOUND_001|52=20180816-15:09:00.457|56=TRAXQA3|10=218|8=FIXT.1.1|9=71|35=0|34=510|49=HEMAQA3_INBOUND_001|52=20180816-15:09:31.453|56=TRAXQA3|10=210|8=FIXT.1.1|9=71|35=0|34=511|49=HEMAQA3_INBOUND_001|52=20180816-15:10:02.442|56=TRAXQA3|10=199|8=FIXT.1.1|9=71|35=0|34=512|49=HEMAQA3_INBOUND_001|52=20180816-15:10:32.458|56=TRAXQA3|10=210|8=FIXT.1.1|9=71|35=0|34=513|49=HEMAQA3_INBOUND_001|52=20180816-15:11:03.446|56=TRAXQA3|10=207|8=FIXT.1.1|9=71|35=0|34=514|49=HEMAQA3_INBOUND_001|52=20180816-15:11:33.455|56=TRAXQA3|10=211|8=FIXT.1.1|9=111|35=A|34=1|49=HEMAQA3_INBOUND_001|52=20180817-08:50:00.888|56=TRAXQA3|98=0|108=30|95=8|96=3.0.0rc3|141=Y|1137=9|10=193|8=FIXT.1.1|9=417|35=AE|34=2|49=HEMAQA3_INBOUND_001|50=APA|57=APA|52=20180817-08:50:26.588|56=TRAXQA3|571=TradeReport1|487=0|325=Y|423=1|55=[N/A]|48=EZ65LF8Q2N36|22=4|31=1.34|32=1000|60=20180206-04:58:13.370|552=1|54=2|29=5|1041=ISINCON_98A1|997=H|1934=0|1116=3|1117=05BPHY57BRZ28M05ST85|1118=N|1119=116|1117=2138001123F8QFPOZ919|1118=N|1119=1|1117=2138001123F8QFPOZ919|1118=N|1119=17|1924=1|22600=30001|22601=EUR|854=1|231=10|30=ADAT|10=049|8=FIXT.1.1|9=69|35=0|34=3|49=HEMAQA3_INBOUND_001|52=20180817-08:50:56.888|56=TRAXQA3|10=136|8=FIXT.1.1|9=69|35=0|34=4|49=HEMAQA3_INBOUND_001|52=20180817-08:51:26.893|56=TRAXQA3|10=131|8=FIXT.1.1|9=69|35=0|34=5|49=HEMAQA3_INBOUND_001|52=20180817-08:51:57.756|56=TRAXQA3|10=134|8=FIXT.1.1|9=69|35=0|34=6|49=HEMAQA3_INBOUND_001|52=20180817-08:52:27.888|56=TRAXQA3|10=139|8=FIXT.1.1|9=69|35=0|34=7|49=HEMAQA3_INBOUND_001|52=20180817-08:52:57.889|56=TRAXQA3|10=144|8=FIXT.1.1|9=69|35=0|34=8|49=HEMAQA3_INBOUND_001|52=20180817-08:53:28.888|56=TRAXQA3|10=143|8=FIXT.1.1|9=69|35=0|34=9|49=HEMAQA3_INBOUND_001|52=20180817-08:53:58.889|56=TRAXQA3|10=148|8=FIXT.1.1|9=70|35=0|34=10|49=HEMAQA3_INBOUND_001|52=20180817-08:54:28.892|56=TRAXQA3|10=172|8=FIXT.1.1|9=70|35=0|34=11|49=HEMAQA3_INBOUND_001|52=20180817-08:54:59.886|56=TRAXQA3|10=180|8=FIXT.1.1|9=70|35=0|34=12|49=HEMAQA3_INBOUND_001|52=20180817-08:55:30.883|56=TRAXQA3|10=168|8=FIXT.1.1|9=70|35=0|34=13|49=HEMAQA3_INBOUND_001|52=20180817-08:56:00.884|56=TRAXQA3|10=168|8=FIXT.1.1|9=70|35=0|34=14|49=HEMAQA3_INBOUND_001|52=20180817-08:56:30.886|56=TRAXQA3|10=174|8=FIXT.1.1|9=70|35=0|34=15|49=HEMAQA3_INBOUND_001|52=20180817-08:57:00.889|56=TRAXQA3|10=176|8=FIXT.1.1|9=70|35=0|34=16|49=HEMAQA3_INBOUND_001|52=20180817-08:57:31.881|56=TRAXQA3|10=173|8=FIXT.1.1|9=419|35=AE|34=17|49=HEMAQA3_INBOUND_001|50=APA|57=APA|52=20180817-08:57:39.423|56=TRAXQA3|571=TradeReport1_A1|487=0|325=Y|423=1|55=[N/A]|48=XS0883767906|22=4|31=241|32=5400|60=20180814-04:58:13.370|552=1|54=2|29=5|1041=IISUER_A1|997=H|1934=0|1116=3|1117=05BPHY57BRZ28M05ST85|1118=N|1119=116|1117=05BPHY57BRZ28M05ST85|1118=N|1119=1|1117=315700XCYIVBHQW6F758|1118=N|1119=17|1924=1|22600=1008601|22601=CHF|854=1|231=10|30=IFCA|10=076|8=FIXT.1.1|9=70|35=0|34=18|49=HEMAQA3_INBOUND_001|52=20180817-08:58:09.757|56=TRAXQA3|10=183|8=FIXT.1.1|9=70|35=0|34=19|49=HEMAQA3_INBOUND_001|52=20180817-08:58:39.893|56=TRAXQA3|10=188|8=FIXT.1.1|9=419|35=AE|34=20|49=HEMAQA3_INBOUND_001|50=APA|57=APA|52=20180817-08:58:46.835|56=TRAXQA3|571=TradeReport1_A1|487=0|325=Y|423=1|55=[N/A]|48=XS0883767906|22=4|31=241|32=5400|60=20180814-04:58:13.370|552=1|54=2|29=5|1041=IISUER_A7|997=H|1934=0|1116=3|1117=05BPHY57BRZ28M05ST85|1118=N|1119=116|1117=05BPHY57BRZ28M05ST85|1118=N|1119=1|1117=315700XCYIVBHQW6F758|1118=N|1119=17|1924=1|22600=1008601|22601=USD|854=1|231=10|30=IFCA|10=109|8=FIXT.1.1|9=426|35=AE|34=21|49=HEMAQA3_INBOUND_001|50=APA|57=APA|52=20180817-08:59:03.679|56=TRAXQA3|571=TradeReport1_A1|487=0|325=Y|423=1|1390=1|55=[N/A]|48=XS0883767906|22=4|31=241|32=5400|60=20180814-04:58:13.370|552=1|54=2|29=5|1041=IISUER_A8|997=H|1934=0|1116=3|1117=05BPHY57BRZ28M05ST85|1118=N|1119=116|1117=05BPHY57BRZ28M05ST85|1118=N|1119=1|1117=315700XCYIVBHQW6F758|1118=N|1119=17|1924=1|22600=1008601|22601=USD|854=1|231=10|30=IFCA|10=169|8=FIXT.1.1|9=70|35=0|34=22|49=HEMAQA3_INBOUND_001|52=20180817-08:59:33.895|56=TRAXQA3|10=179|8=FIXT.1.1|9=419|35=AE|34=23|49=HEMAQA3_INBOUND_001|50=APA|57=APA|52=20180817-08:59:57.666|56=TRAXQA3|571=TradeReport1_A1|487=0|325=Y|423=1|55=[N/A]|48=US48125VUK42|22=4|31=241|32=5400|60=20180814-04:58:13.370|552=1|54=2|29=5|1041=IISUER_A2|997=H|1934=0|1116=3|1117=05BPHY57BRZ28M05ST85|1118=N|1119=116|1117=05BPHY57BRZ28M05ST85|1118=N|1119=1|1117=315700XCYIVBHQW6F758|1118=N|1119=17|1924=1|22600=1008601|22601=USD|854=1|231=10|30=ISEC|10=200|8=FIXT.1.1|9=424|35=AE|34=24|49=HEMAQA3_INBOUND_001|50=APA|57=APA|52=20180817-09:00:22.919|56=TRAXQA3|571=TradeReport1_A1|487=0|325=Y|423=1|55=[N/A]|48=US48126DE961|22=4|31=241|32=5400|60=20180814-04:58:13.370|552=1|54=2|29=5|1041=1041=IISUER_A3|997=H|1934=0|1116=3|1117=05BPHY57BRZ28M05ST85|1118=N|1119=116|1117=05BPHY57BRZ28M05ST85|1118=N|1119=1|1117=315700XCYIVBHQW6F758|1118=N|1119=17|1924=1|22600=1008601|22601=USD|854=1|231=10|30=IXSP|10=163|8=FIXT.1.1|9=424|35=AE|34=25|49=HEMAQA3_INBOUND_001|50=APA|57=APA|52=20180817-09:00:43.572|56=TRAXQA3|571=TradeReport1_A1|487=0|325=Y|423=1|55=[N/A]|48=US48126DE961|22=4|31=241|32=5400|60=20180814-04:58:13.370|552=1|54=2|29=5|1041=1041=IISUER-a3|997=H|1934=0|1116=3|1117=05BPHY57BRZ28M05ST85|1118=N|1119=116|1117=05BPHY57BRZ28M05ST85|1118=N|1119=1|1117=315700XCYIVBHQW6F758|1118=N|1119=17|1924=1|22600=1008601|22601=USD|854=1|231=10|30=IXSP|10=144|8=FIXT.1.1|9=70|35=0|34=26|49=HEMAQA3_INBOUND_001|52=20180817-09:01:13.760|56=TRAXQA3|10=160|8=FIXT.1.1|9=419|35=AE|34=27|49=HEMAQA3_INBOUND_001|50=APA|57=APA|52=20180817-09:01:24.048|56=TRAXQA3|571=TradeReport1_A1|487=0|325=Y|423=1|55=[N/A]|48=US48126DE961|22=4|31=241|32=5400|60=20180814-04:58:13.370|552=1|54=2|29=5|1041=IISUER_A9|997=H|1934=0|1116=3|1117=05BPHY57BRZ28M05ST85|1118=N|1119=116|1117=05BPHY57BRZ28M05ST85|1118=N|1119=1|1117=315700XCYIVBHQW6F758|1118=N|1119=17|1924=1|22600=1008601|22601=USD|854=1|231=10|30=IXSP|10=169|8=FIXT.1.1|9=419|35=AE|34=28|49=HEMAQA3_INBOUND_001|50=APA|57=APA|52=20180817-09:01:45.493|56=TRAXQA3|571=TradeReport1_A1|487=0|325=Y|423=1|55=[N/A]|48=US46637G1242|22=4|31=241|32=5400|60=20180814-04:58:13.370|552=1|54=2|29=5|1041=IISUER_A4|997=H|1934=0|1116=3|1117=05BPHY57BRZ28M05ST85|1118=N|1119=116|1117=05BPHY57BRZ28M05ST85|1118=N|1119=1|1117=315700XCYIVBHQW6F758|1118=N|1119=17|1924=1|22600=1008601|22601=USD|854=1|231=10|30=SINT|10=146|8=FIXT.1.1|9=419|35=AE|34=29|49=HEMAQA3_INBOUND_001|50=APA|57=APA|52=20180817-09:02:08.343|56=TRAXQA3|571=TradeReport1_A1|487=0|325=Y|423=1|55=[N/A]|48=GBPK41125001|22=4|31=241|32=5400|60=20180814-04:58:13.370|552=1|54=2|29=5|1041=IISUER_A5|997=H|1934=0|1116=3|1117=05BPHY57BRZ28M05ST85|1118=N|1119=116|1117=05BPHY57BRZ28M05ST85|1118=N|1119=1|1117=315700XCYIVBHQW6F758|1118=N|1119=17|1924=1|22600=1008601|22601=USD|854=1|231=10|30=SINT|10=126|8=FIXT.1.1|9=420|35=AE|34=30|49=HEMAQA3_INBOUND_001|50=APA|57=APA|52=20180817-09:02:32.729|56=TRAXQA3|571=TradeReport1_A1|487=0|325=Y|423=1|55=[N/A]|48=GBPK41125001|22=4|31=241|32=5400|60=20180814-04:58:13.370|552=1|54=2|29=5|1041=IISUER_A10|997=H|1934=0|1116=3|1117=05BPHY57BRZ28M05ST85|1118=N|1119=116|1117=05BPHY57BRZ28M05ST85|1118=N|1119=1|1117=315700XCYIVBHQW6F758|1118=N|1119=17|1924=1|22600=1008601|22601=CHF|854=1|231=10|30=SINT|10=132|8=FIXT.1.1|9=427|35=AE|34=31|49=HEMAQA3_INBOUND_001|50=APA|57=APA|52=20180817-09:02:55.272|56=TRAXQA3|571=TradeReport1_A1|487=0|1390=1|325=Y|423=1|55=[N/A]|48=GBPK41125001|22=4|31=241|32=5400|60=20180814-04:58:13.370|552=1|54=2|29=5|1041=IISUER_A12|997=H|1934=0|1116=3|1117=05BPHY57BRZ28M05ST85|1118=N|1119=116|1117=05BPHY57BRZ28M05ST85|1118=N|1119=1|1117=315700XCYIVBHQW6F758|1118=N|1119=17|1924=1|22600=1008601|22601=CHF|854=1|231=10|30=SINT|10=200|8=FIXT.1.1|9=419|35=AE|34=32|49=HEMAQA3_INBOUND_001|50=APA|57=APA|52=20180817-09:03:17.103|56=TRAXQA3|571=TradeReport1_A1|487=0|325=Y|423=1|55=[N/A]|48=GBPK41125001|22=4|31=241|32=5400|60=20180814-04:58:13.370|552=1|54=2|29=5|1041=IISUER_A6|997=H|1934=0|1116=3|1117=05BPHY57BRZ28M05ST85|1118=N|1119=116|1117=05BPHY57BRZ28M05ST85|1118=N|1119=1|1117=315700XCYIVBHQW6F758|1118=N|1119=17|1924=1|22600=1008601|22601=USD|854=1|231=10|30=ADAT|10=080|8=FIXT.1.1|9=420|35=AE|34=33|49=HEMAQA3_INBOUND_001|50=APA|57=APA|52=20180817-09:03:30.995|56=TRAXQA3|571=TradeReport1_A1|487=0|325=Y|423=1|55=[N/A]|48=GBPK41125001|22=4|31=241|32=5400|60=20180814-04:58:13.370|552=1|54=2|29=5|1041=IISUER_A13|997=H|1934=0|1116=3|1117=05BPHY57BRZ28M05ST85|1118=N|1119=116|1117=05BPHY57BRZ28M05ST85|1118=N|1119=1|1117=315700XCYIVBHQW6F758|1118=N|1119=17|1924=1|22600=1008601|22601=chf|854=1|231=10|30=ADAT|10=202|8=FIXT.1.1|9=70|35=0|34=34|49=HEMAQA3_INBOUND_001|52=20180817-09:04:01.753|56=TRAXQA3|10=161|8=FIXT.1.1|9=427|35=AE|34=35|49=HEMAQA3_INBOUND_001|50=APA|57=APA|52=20180817-09:04:08.733|56=TRAXQA3|571=TradeReport1_A1|487=0|325=Y|1390=1|423=1|55=[N/A]|48=GBPK41125001|22=4|31=241|32=5400|60=20180814-04:58:13.370|552=1|54=2|29=5|1041=IISUER_A14|997=H|1934=0|1116=3|1117=05BPHY57BRZ28M05ST85|1118=N|1119=116|1117=05BPHY57BRZ28M05ST85|1118=N|1119=1|1117=315700XCYIVBHQW6F758|1118=N|1119=17|1924=1|22600=1008601|22601=chf|854=1|231=10|30=ADAT|10=012|8=FIXT.1.1|9=70|35=0|34=36|49=HEMAQA3_INBOUND_001|52=20180817-09:04:38.882|56=TRAXQA3|10=176|8=FIXT.1.1|9=70|35=0|34=37|49=HEMAQA3_INBOUND_001|52=20180817-09:05:08.883|56=TRAXQA3|10=176|8=FIXT.1.1|9=70|35=0|34=38|49=HEMAQA3_INBOUND_001|52=20180817-09:05:39.757|56=TRAXQA3|10=181|8=FIXT.1.1|9=70|35=0|34=39|49=HEMAQA3_INBOUND_001|52=20180817-09:06:09.881|56=TRAXQA3|10=178|8=FIXT.1.1|9=70|35=0|34=40|49=HEMAQA3_INBOUND_001|52=20180817-09:06:39.883|56=TRAXQA3|10=175|8=FIXT.1.1|9=70|35=0|34=41|49=HEMAQA3_INBOUND_001|52=20180817-09:07:10.879|56=TRAXQA3|10=171|8=FIXT.1.1|9=70|35=0|34=42|49=HEMAQA3_INBOUND_001|52=20180817-09:07:40.887|56=TRAXQA3|10=174|8=FIXT.1.1|9=70|35=0|34=43|49=HEMAQA3_INBOUND_001|52=20180817-09:08:10.891|56=TRAXQA3|10=168|8=FIXT.1.1|9=70|35=0|34=44|49=HEMAQA3_INBOUND_001|52=20180817-09:08:41.887|56=TRAXQA3|10=178|8=FIXT.1.1|9=70|35=0|34=45|49=HEMAQA3_INBOUND_001|52=20180817-09:09:12.876|56=TRAXQA3|10=176|8=FIXT.1.1|9=70|35=0|34=46|49=HEMAQA3_INBOUND_001|52=20180817-09:09:42.888|56=TRAXQA3|10=183|8=FIXT.1.1|9=70|35=0|34=47|49=HEMAQA3_INBOUND_001|52=20180817-09:10:13.878|56=TRAXQA3|10=173|8=FIXT.1.1|9=70|35=0|34=48|49=HEMAQA3_INBOUND_001|52=20180817-09:10:43.889|56=TRAXQA3|10=179|8=FIXT.1.1|9=70|35=0|34=49|49=HEMAQA3_INBOUND_001|52=20180817-09:11:14.879|56=TRAXQA3|10=178|8=FIXT.1.1|9=70|35=0|34=50|49=HEMAQA3_INBOUND_001|52=20180817-09:11:45.872|56=TRAXQA3|10=167|8=FIXT.1.1|9=70|35=0|34=51|49=HEMAQA3_INBOUND_001|52=20180817-09:12:15.878|56=TRAXQA3|10=172|8=FIXT.1.1|9=70|35=0|34=52|49=HEMAQA3_INBOUND_001|52=20180817-09:12:46.872|56=TRAXQA3|10=171|8=FIXT.1.1|9=70|35=0|34=53|49=HEMAQA3_INBOUND_001|52=20180817-09:13:16.885|56=TRAXQA3|10=174|8=FIXT.1.1|9=70|35=0|34=54|49=HEMAQA3_INBOUND_001|52=20180817-09:13:47.878|56=TRAXQA3|10=181|8=FIXT.1.1|9=70|35=0|34=55|49=HEMAQA3_INBOUND_001|52=20180817-09:14:17.880|56=TRAXQA3|10=173|8=FIXT.1.1|9=70|35=0|34=56|49=HEMAQA3_INBOUND_001|52=20180817-09:14:47.882|56=TRAXQA3|10=179|8=FIXT.1.1|9=70|35=0|34=57|49=HEMAQA3_INBOUND_001|52=20180817-09:15:17.882|56=TRAXQA3|10=178|8=FIXT.1.1|9=70|35=0|34=58|49=HEMAQA3_INBOUND_001|52=20180817-09:15:48.879|56=TRAXQA3|10=189|8=FIXT.1.1|9=70|35=0|34=59|49=HEMAQA3_INBOUND_001|52=20180817-09:16:19.877|56=TRAXQA3|10=187|8=FIXT.1.1|9=70|35=0|34=60|49=HEMAQA3_INBOUND_001|52=20180817-09:16:49.882|56=TRAXQA3|10=178|8=FIXT.1.1|9=70|35=0|34=61|49=HEMAQA3_INBOUND_001|52=20180817-09:17:20.873|56=TRAXQA3|10=169|8=FIXT.1.1|9=70|35=0|34=62|49=HEMAQA3_INBOUND_001|52=20180817-09:17:50.877|56=TRAXQA3|10=177|8=FIXT.1.1|9=70|35=0|34=63|49=HEMAQA3_INBOUND_001|52=20180817-09:18:21.879|56=TRAXQA3|10=179|8=FIXT.1.1|9=70|35=0|34=64|49=HEMAQA3_INBOUND_001|52=20180817-09:18:52.868|56=TRAXQA3|10=182|8=FIXT.1.1|9=70|35=0|34=65|49=HEMAQA3_INBOUND_001|52=20180817-09:19:23.866|56=TRAXQA3|10=180|8=FIXT.1.1|9=70|35=0|34=66|49=HEMAQA3_INBOUND_001|52=20180817-09:19:53.866|56=TRAXQA3|10=184|8=FIXT.1.1|9=70|35=0|34=67|49=HEMAQA3_INBOUND_001|52=20180817-09:20:23.868|56=TRAXQA3|10=176|8=FIXT.1.1|9=70|35=0|34=68|49=HEMAQA3_INBOUND_001|52=20180817-09:20:53.872|56=TRAXQA3|10=175|8=FIXT.1.1|9=70|35=0|34=69|49=HEMAQA3_INBOUND_001|52=20180817-09:21:23.874|56=TRAXQA3|10=176|8=FIXT.1.1|9=70|35=0|34=70|49=HEMAQA3_INBOUND_001|52=20180817-09:21:53.876|56=TRAXQA3|10=173|8=FIXT.1.1|9=70|35=0|34=71|49=HEMAQA3_INBOUND_001|52=20180817-09:22:23.878|56=TRAXQA3|10=174|8=FIXT.1.1|9=70|35=0|34=72|49=HEMAQA3_INBOUND_001|52=20180817-09:22:54.877|56=TRAXQA3|10=178|8=FIXT.1.1|9=427|35=AE|34=73|49=HEMAQA3_INBOUND_001|50=APA|57=APA|52=20180817-09:23:05.672|56=TRAXQA3|571=TradeReport1_A1|487=0|325=Y|1390=1|423=1|55=[N/A]|48=GBPK41125001|22=4|31=241|32=5400|60=20180514-04:58:13.370|552=1|54=2|29=5|1041=IISUER_A19|997=H|1934=0|1116=3|1117=05BPHY57BRZ28M05ST85|1118=N|1119=116|1117=05BPHY57BRZ28M05ST85|1118=N|1119=1|1117=315700XCYIVBHQW6F758|1118=N|1119=17|1924=1|22600=1008601|22601=chf|854=1|231=10|30=ADAT|10=016|8=FIXT.1.1|9=70|35=0|34=74|49=HEMAQA3_INBOUND_001|52=20180817-09:23:35.874|56=TRAXQA3|10=177|8=FIXT.1.1|9=70|35=0|34=75|49=HEMAQA3_INBOUND_001|52=20180817-09:24:06.748|56=TRAXQA3|10=177|8=FIXT.1.1|9=70|35=0|34=76|49=HEMAQA3_INBOUND_001|52=20180817-09:24:36.871|56=TRAXQA3|10=178|8=FIXT.1.1|9=70|35=0|34=77|49=HEMAQA3_INBOUND_001|52=20180817-09:25:07.868|56=TRAXQA3|10=184|8=FIXT.1.1|9=70|35=0|34=78|49=HEMAQA3_INBOUND_001|52=20180817-09:25:37.873|56=TRAXQA3|10=184|8=FIXT.1.1|9=70|35=0|34=79|49=HEMAQA3_INBOUND_001|52=20180817-09:26:08.864|56=TRAXQA3|10=184|8=FIXT.1.1|9=70|35=0|34=80|49=HEMAQA3_INBOUND_001|52=20180817-09:26:38.878|56=TRAXQA3|10=184|8=FIXT.1.1|9=70|35=0|34=81|49=HEMAQA3_INBOUND_001|52=20180817-09:27:08.879|56=TRAXQA3|10=184|8=FIXT.1.1|9=70|35=0|34=82|49=HEMAQA3_INBOUND_001|52=20180817-09:27:39.865|56=TRAXQA3|10=184|8=FIXT.1.1|9=70|35=0|34=83|49=HEMAQA3_INBOUND_001|52=20180817-09:28:09.865|56=TRAXQA3|10=183|8=FIXT.1.1|9=70|35=0|34=84|49=HEMAQA3_INBOUND_001|52=20180817-09:28:39.865|56=TRAXQA3|10=187|8=FIXT.1.1|9=70|35=0|34=85|49=HEMAQA3_INBOUND_001|52=20180817-09:29:09.877|56=TRAXQA3|10=189|8=FIXT.1.1|9=70|35=0|34=86|49=HEMAQA3_INBOUND_001|52=20180817-09:29:40.865|56=TRAXQA3|10=182|8=FIXT.1.1|9=70|35=0|34=87|49=HEMAQA3_INBOUND_001|52=20180817-09:30:10.877|56=TRAXQA3|10=175|8=FIXT.1.1|9=70|35=0|34=88|49=HEMAQA3_INBOUND_001|52=20180817-09:30:41.877|56=TRAXQA3|10=180|8=FIXT.1.1|9=70|35=0|34=89|49=HEMAQA3_INBOUND_001|52=20180817-09:31:12.874|56=TRAXQA3|10=177|8=FIXT.1.1|9=70|35=0|34=90|49=HEMAQA3_INBOUND_001|52=20180817-09:31:42.878|56=TRAXQA3|10=176|8=FIXT.1.1|9=70|35=0|34=91|49=HEMAQA3_INBOUND_001|52=20180817-09:32:13.878|56=TRAXQA3|10=176|8=FIXT.1.1|9=70|35=0|34=92|49=HEMAQA3_INBOUND_001|52=20180817-09:32:44.876|56=TRAXQA3|10=179|8=FIXT.1.1|9=70|35=0|34=93|49=HEMAQA3_INBOUND_001|52=20180817-09:33:14.876|56=TRAXQA3|10=178|8=FIXT.1.1|9=70|35=0|34=94|49=HEMAQA3_INBOUND_001|52=20180817-09:33:44.876|56=TRAXQA3|10=182|8=FIXT.1.1|9=70|35=0|34=95|49=HEMAQA3_INBOUND_001|52=20180817-09:34:14.876|56=TRAXQA3|10=181|8=FIXT.1.1|9=70|35=0|34=96|49=HEMAQA3_INBOUND_001|52=20180817-09:34:45.864|56=TRAXQA3|10=183|8=FIXT.1.1|9=70|35=0|34=97|49=HEMAQA3_INBOUND_001|52=20180817-09:35:15.865|56=TRAXQA3|10=183|8=FIXT.1.1|9=70|35=0|34=98|49=HEMAQA3_INBOUND_001|52=20180817-09:35:45.871|56=TRAXQA3|10=184|8=FIXT.1.1|9=70|35=0|34=99|49=HEMAQA3_INBOUND_001|52=20180817-09:36:16.863|56=TRAXQA3|10=185|8=FIXT.1.1|9=71|35=0|34=100|49=HEMAQA3_INBOUND_001|52=20180817-09:36:46.865|56=TRAXQA3|10=222|8=FIXT.1.1|9=71|35=0|34=101|49=HEMAQA3_INBOUND_001|52=20180817-09:37:17.863|56=TRAXQA3|10=220|8=FIXT.1.1|9=71|35=0|34=102|49=HEMAQA3_INBOUND_001|52=20180817-09:37:47.863|56=TRAXQA3|10=224|8=FIXT.1.1|9=71|35=0|34=103|49=HEMAQA3_INBOUND_001|52=20180817-09:38:18.865|56=TRAXQA3|10=226|8=FIXT.1.1|9=71|35=0|34=104|49=HEMAQA3_INBOUND_001|52=20180817-09:38:48.865|56=TRAXQA3|10=230|8=FIXT.1.1|9=71|35=0|34=105|49=HEMAQA3_INBOUND_001|52=20180817-09:39:18.871|56=TRAXQA3|10=226|8=FIXT.1.1|9=71|35=0|34=106|49=HEMAQA3_INBOUND_001|52=20180817-09:39:48.876|56=TRAXQA3|10=235|8=FIXT.1.1|9=71|35=0|34=107|49=HEMAQA3_INBOUND_001|52=20180817-09:40:19.877|56=TRAXQA3|10=227|8=FIXT.1.1|9=71|35=0|34=108|49=HEMAQA3_INBOUND_001|52=20180817-09:40:50.865|56=TRAXQA3|10=220|8=FIXT.1.1|9=71|35=0|34=109|49=HEMAQA3_INBOUND_001|52=20180817-09:41:20.872|56=TRAXQA3|10=217|8=FIXT.1.1|9=71|35=0|34=110|49=HEMAQA3_INBOUND_001|52=20180817-09:41:50.874|56=TRAXQA3|10=214|8=FIXT.1.1|9=71|35=0|34=111|49=HEMAQA3_INBOUND_001|52=20180817-09:42:20.877|56=TRAXQA3|10=216|8=FIXT.1.1|9=71|35=0|34=112|49=HEMAQA3_INBOUND_001|52=20180817-09:42:50.877|56=TRAXQA3|10=220|8=FIXT.1.1|9=71|35=0|34=113|49=HEMAQA3_INBOUND_001|52=20180817-09:43:21.870|56=TRAXQA3|10=213|8=FIXT.1.1|9=71|35=0|34=114|49=HEMAQA3_INBOUND_001|52=20180817-09:43:52.864|56=TRAXQA3|10=221|8=FIXT.1.1|9=71|35=0|34=115|49=HEMAQA3_INBOUND_001|52=20180817-09:44:22.868|56=TRAXQA3|10=224|8=FIXT.1.1|9=71|35=0|34=116|49=HEMAQA3_INBOUND_001|52=20180817-09:44:53.865|56=TRAXQA3|10=226|8=FIXT.1.1|9=71|35=0|34=117|49=HEMAQA3_INBOUND_001|52=20180817-09:45:23.874|56=TRAXQA3|10=225|8=FIXT.1.1|9=71|35=0|34=118|49=HEMAQA3_INBOUND_001|52=20180817-09:45:53.879|56=TRAXQA3|10=234|8=FIXT.1.1|9=71|35=0|34=119|49=HEMAQA3_INBOUND_001|52=20180817-09:46:24.880|56=TRAXQA3|10=226|8=FIXT.1.1|9=71|35=0|34=120|49=HEMAQA3_INBOUND_001|52=20180817-09:46:54.881|56=TRAXQA3|10=222|8=FIXT.1.1|9=71|35=0|34=121|49=HEMAQA3_INBOUND_001|52=20180817-09:47:25.867|56=TRAXQA3|10=226|8=FIXT.1.1|9=71|35=0|34=122|49=HEMAQA3_INBOUND_001|52=20180817-09:47:55.877|56=TRAXQA3|10=231|8=FIXT.1.1|9=71|35=0|34=123|49=HEMAQA3_INBOUND_001|52=20180817-09:48:26.877|56=TRAXQA3|10=231|8=FIXT.1.1|9=71|35=0|34=124|49=HEMAQA3_INBOUND_001|52=20180817-09:48:57.875|56=TRAXQA3|10=234|8=FIXT.1.1|9=71|35=0|34=125|49=HEMAQA3_INBOUND_001|52=20180817-09:49:27.880|56=TRAXQA3|10=229|8=FIXT.1.1|9=71|35=0|34=126|49=HEMAQA3_INBOUND_001|52=20180817-09:49:58.870|56=TRAXQA3|10=233|8=FIXT.1.1|9=71|35=0|34=127|49=HEMAQA3_INBOUND_001|52=20180817-09:50:28.880|56=TRAXQA3|10=224|8=FIXT.1.1|9=71|35=0|34=128|49=HEMAQA3_INBOUND_001|52=20180817-09:50:59.875|56=TRAXQA3|10=233|8=FIXT.1.1|9=71|35=0|34=129|49=HEMAQA3_INBOUND_001|52=20180817-09:51:30.873|56=TRAXQA3|10=222|8=FIXT.1.1|9=71|35=0|34=130|49=HEMAQA3_INBOUND_001|52=20180817-09:52:01.872|56=TRAXQA3|10=212|8=FIXT.1.1|9=71|35=0|34=131|49=HEMAQA3_INBOUND_001|52=20180817-09:52:31.878|56=TRAXQA3|10=222|8=FIXT.1.1|9=71|35=0|34=132|49=HEMAQA3_INBOUND_001|52=20180817-09:53:02.869|56=TRAXQA3|10=222|8=FIXT.1.1|9=71|35=0|34=133|49=HEMAQA3_INBOUND_001|52=20180817-09:53:32.883|56=TRAXQA3|10=222|8=FIXT.1.1|9=71|35=0|34=134|49=HEMAQA3_INBOUND_001|52=20180817-09:54:03.877|56=TRAXQA3|10=225|8=FIXT.1.1|9=71|35=0|34=135|49=HEMAQA3_INBOUND_001|52=20180817-09:54:33.881|56=TRAXQA3|10=224|8=FIXT.1.1|9=71|35=0|34=136|49=HEMAQA3_INBOUND_001|52=20180817-09:55:04.881|56=TRAXQA3|10=224|8=FIXT.1.1|9=71|35=0|34=137|49=HEMAQA3_INBOUND_001|52=20180817-09:55:34.881|56=TRAXQA3|10=228|8=FIXT.1.1|9=71|35=0|34=138|49=HEMAQA3_INBOUND_001|52=20180817-09:56:05.873|56=TRAXQA3|10=229|8=FIXT.1.1|9=71|35=0|34=139|49=HEMAQA3_INBOUND_001|52=20180817-09:56:35.885|56=TRAXQA3|10=236|8=FIXT.1.1|9=71|35=0|34=140|49=HEMAQA3_INBOUND_001|52=20180817-09:57:05.885|56=TRAXQA3|10=226|8=FIXT.1.1|9=71|35=0|34=141|49=HEMAQA3_INBOUND_001|52=20180817-09:57:36.743|56=TRAXQA3|10=224|8=FIXT.1.1|9=71|35=0|34=142|49=HEMAQA3_INBOUND_001|52=20180817-09:58:06.750|56=TRAXQA3|10=221|8=FIXT.1.1|9=71|35=0|34=143|49=HEMAQA3_INBOUND_001|52=20180817-09:58:36.873|56=TRAXQA3|10=231|8=FIXT.1.1|9=71|35=0|34=144|49=HEMAQA3_INBOUND_001|52=20180817-09:59:06.874|56=TRAXQA3|10=231|8=FIXT.1.1|9=71|35=0|34=145|49=HEMAQA3_INBOUND_001|52=20180817-09:59:36.878|56=TRAXQA3|10=239|8=FIXT.1.1|9=71|35=0|34=146|49=HEMAQA3_INBOUND_001|52=20180817-10:00:07.872|56=TRAXQA3|10=210|8=FIXT.1.1|9=71|35=0|34=147|49=HEMAQA3_INBOUND_001|52=20180817-10:00:38.871|56=TRAXQA3|10=214|8=FIXT.1.1|9=71|35=0|34=148|49=HEMAQA3_INBOUND_001|52=20180817-10:01:08.871|56=TRAXQA3|10=213|8=FIXT.1.1|9=71|35=0|34=149|49=HEMAQA3_INBOUND_001|52=20180817-10:01:39.870|56=TRAXQA3|10=217|8=FIXT.1.1|9=71|35=0|34=150|49=HEMAQA3_INBOUND_001|52=20180817-10:02:09.882|56=TRAXQA3|10=210|8=FIXT.1.1|9=71|35=0|34=151|49=HEMAQA3_INBOUND_001|52=20180817-10:02:39.883|56=TRAXQA3|10=215|8=FIXT.1.1|9=71|35=0|34=152|49=HEMAQA3_INBOUND_001|52=20180817-10:03:10.879|56=TRAXQA3|10=211|8=FIXT.1.1|9=71|35=0|34=153|49=HEMAQA3_INBOUND_001|52=20180817-10:03:41.873|56=TRAXQA3|10=210|8=FIXT.1.1|9=71|35=0|34=154|49=HEMAQA3_INBOUND_001|52=20180817-10:04:11.880|56=TRAXQA3|10=207|8=FIXT.1.1|9=71|35=0|34=155|49=HEMAQA3_INBOUND_001|52=20180817-10:04:42.869|56=TRAXQA3|10=219|8=FIXT.1.1|9=71|35=0|34=156|49=HEMAQA3_INBOUND_001|52=20180817-10:05:12.874|56=TRAXQA3|10=214|8=FIXT.1.1|9=71|35=0|34=157|49=HEMAQA3_INBOUND_001|52=20180817-10:05:43.867|56=TRAXQA3|10=221|8=FIXT.1.1|9=71|35=0|34=158|49=HEMAQA3_INBOUND_001|52=20180817-10:06:13.881|56=TRAXQA3|10=216|8=FIXT.1.1|9=71|35=0|34=159|49=HEMAQA3_INBOUND_001|52=20180817-10:06:44.877|56=TRAXQA3|10=226|8=FIXT.1.1|9=71|35=0|34=160|49=HEMAQA3_INBOUND_001|52=20180817-10:07:15.876|56=TRAXQA3|10=216|8=FIXT.1.1|9=71|35=0|34=161|49=HEMAQA3_INBOUND_001|52=20180817-10:07:45.878|56=TRAXQA3|10=222|8=FIXT.1.1|9=71|35=0|34=162|49=HEMAQA3_INBOUND_001|52=20180817-10:08:16.879|56=TRAXQA3|10=223|8=FIXT.1.1|9=71|35=0|34=163|49=HEMAQA3_INBOUND_001|52=20180817-10:08:47.878|56=TRAXQA3|10=227|8=FIXT.1.1|9=71|35=0|34=164|49=HEMAQA3_INBOUND_001|52=20180817-10:09:18.866|56=TRAXQA3|10=224|8=FIXT.1.1|9=71|35=0|34=165|49=HEMAQA3_INBOUND_001|52=20180817-10:09:48.874|56=TRAXQA3|10=227|8=FIXT.1.1|9=71|35=0|34=166|49=HEMAQA3_INBOUND_001|52=20180817-10:10:18.877|56=TRAXQA3|10=220|8=FIXT.1.1|9=71|35=0|34=167|49=HEMAQA3_INBOUND_001|52=20180817-10:10:49.876|56=TRAXQA3|10=224|8=FIXT.1.1|9=71|35=0|34=168|49=HEMAQA3_INBOUND_001|52=20180817-10:11:20.874|56=TRAXQA3|10=213|8=FIXT.1.1|9=71|35=0|34=169|49=HEMAQA3_INBOUND_001|52=20180817-10:11:51.872|56=TRAXQA3|10=216|8=FIXT.1.1|9=71|35=0|34=170|49=HEMAQA3_INBOUND_001|52=20180817-10:12:21.878|56=TRAXQA3|10=212|8=FIXT.1.1|9=71|35=0|34=171|49=HEMAQA3_INBOUND_001|52=20180817-10:12:52.864|56=TRAXQA3|10=212|8=FIXT.1.1|9=71|35=0|34=172|49=HEMAQA3_INBOUND_001|52=20180817-10:13:22.868|56=TRAXQA3|10=215|8=FIXT.1.1|9=71|35=0|34=173|49=HEMAQA3_INBOUND_001|52=20180817-10:13:52.876|56=TRAXQA3|10=218|8=FIXT.1.1|9=71|35=0|34=174|49=HEMAQA3_INBOUND_001|52=20180817-10:14:23.872|56=TRAXQA3|10=214|8=FIXT.1.1|9=71|35=0|34=175|49=HEMAQA3_INBOUND_001|52=20180817-10:14:53.878|56=TRAXQA3|10=224|8=FIXT.1.1|9=71|35=0|34=176|49=HEMAQA3_INBOUND_001|52=20180817-10:15:24.877|56=TRAXQA3|10=223|8=FIXT.1.1|9=71|35=0|34=177|49=HEMAQA3_INBOUND_001|52=20180817-10:15:54.877|56=TRAXQA3|10=227|8=FIXT.1.1|9=71|35=0|34=178|49=HEMAQA3_INBOUND_001|52=20180817-10:16:25.865|56=TRAXQA3|10=224|8=FIXT.1.1|9=71|35=0|34=179|49=HEMAQA3_INBOUND_001|52=20180817-10:16:55.871|56=TRAXQA3|10=225|8=FIXT.1.1|9=71|35=0|34=180|49=HEMAQA3_INBOUND_001|52=20180817-10:17:26.870|56=TRAXQA3|10=215|8=FIXT.1.1|9=71|35=0|34=181|49=HEMAQA3_INBOUND_001|52=20180817-10:17:57.870|56=TRAXQA3|10=220|8=FIXT.1.1|9=71|35=0|34=182|49=HEMAQA3_INBOUND_001|52=20180817-10:18:28.869|56=TRAXQA3|10=228|8=FIXT.1.1|9=71|35=0|34=183|49=HEMAQA3_INBOUND_001|52=20180817-10:18:59.866|56=TRAXQA3|10=230|8=FIXT.1.1|9=71|35=0|34=184|49=HEMAQA3_INBOUND_001|52=20180817-10:19:30.864|56=TRAXQA3|10=219|8=FIXT.1.1|9=71|35=0|34=185|49=HEMAQA3_INBOUND_001|52=20180817-10:20:00.865|56=TRAXQA3|10=210|8=FIXT.1.1|9=71|35=0|34=186|49=HEMAQA3_INBOUND_001|52=20180817-10:20:30.877|56=TRAXQA3|10=217|8=FIXT.1.1|9=71|35=0|34=187|49=HEMAQA3_INBOUND_001|52=20180817-10:21:00.879|56=TRAXQA3|10=218|8=FIXT.1.1|9=71|35=0|34=188|49=HEMAQA3_INBOUND_001|52=20180817-10:21:31.870|56=TRAXQA3|10=214|8=FIXT.1.1|9=71|35=0|34=189|49=HEMAQA3_INBOUND_001|52=20180817-10:22:01.875|56=TRAXQA3|10=218|8=FIXT.1.1|9=71|35=0|34=190|49=HEMAQA3_INBOUND_001|52=20180817-10:22:32.878|56=TRAXQA3|10=217|8=FIXT.1.1|9=71|35=0|34=191|49=HEMAQA3_INBOUND_001|52=20180817-10:23:03.874|56=TRAXQA3|10=213|8=FIXT.1.1|9=71|35=0|34=192|49=HEMAQA3_INBOUND_001|52=20180817-10:23:34.870|56=TRAXQA3|10=214|8=FIXT.1.1|9=71|35=0|34=193|49=HEMAQA3_INBOUND_001|52=20180817-10:24:04.877|56=TRAXQA3|10=220|8=FIXT.1.1|9=71|35=0|34=194|49=HEMAQA3_INBOUND_001|52=20180817-10:24:34.880|56=TRAXQA3|10=218|8=FIXT.1.1|9=71|35=0|34=195|49=HEMAQA3_INBOUND_001|52=20180817-10:25:05.867|56=TRAXQA3|10=223|8=FIXT.1.1|9=71|35=0|34=196|49=HEMAQA3_INBOUND_001|52=20180817-10:25:36.742|56=TRAXQA3|10=220|8=FIXT.1.1|9=71|35=0|34=197|49=HEMAQA3_INBOUND_001|52=20180817-10:26:06.745|56=TRAXQA3|10=222|8=FIXT.1.1|9=71|35=0|34=198|49=HEMAQA3_INBOUND_001|52=20180817-10:26:36.881|56=TRAXQA3|10=227|8=FIXT.1.1|9=71|35=0|34=199|49=HEMAQA3_INBOUND_001|52=20180817-10:27:07.868|56=TRAXQA3|10=232|8=FIXT.1.1|9=71|35=0|34=200|49=HEMAQA3_INBOUND_001|52=20180817-10:27:37.876|56=TRAXQA3|10=217|8=FIXT.1.1|9=71|35=0|34=201|49=HEMAQA3_INBOUND_001|52=20180817-10:28:08.881|56=TRAXQA3|10=213|8=FIXT.1.1|9=71|35=0|34=202|49=HEMAQA3_INBOUND_001|52=20180817-10:28:39.878|56=TRAXQA3|10=224|8=FIXT.1.1|9=71|35=0|34=203|49=HEMAQA3_INBOUND_001|52=20180817-10:29:10.876|56=TRAXQA3|10=213|8=FIXT.1.1|9=71|35=0|34=204|49=HEMAQA3_INBOUND_001|52=20180817-10:29:40.880|56=TRAXQA3|10=212|8=FIXT.1.1|9=71|35=0|34=205|49=HEMAQA3_INBOUND_001|52=20180817-10:30:10.881|56=TRAXQA3|10=203|8=FIXT.1.1|9=71|35=0|34=206|49=HEMAQA3_INBOUND_001|52=20180817-10:30:41.867|56=TRAXQA3|10=212|8=FIXT.1.1|9=71|35=0|34=207|49=HEMAQA3_INBOUND_001|52=20180817-10:31:11.867|56=TRAXQA3|10=211|8=FIXT.1.1|9=71|35=0|34=208|49=HEMAQA3_INBOUND_001|52=20180817-10:31:41.879|56=TRAXQA3|10=218|8=FIXT.1.1|9=71|35=0|34=209|49=HEMAQA3_INBOUND_001|52=20180817-10:32:12.867|56=TRAXQA3|10=215|8=FIXT.1.1|9=71|35=0|34=210|49=HEMAQA3_INBOUND_001|52=20180817-10:32:42.870|56=TRAXQA3|10=204|8=FIXT.1.1|9=71|35=0|34=211|49=HEMAQA3_INBOUND_001|52=20180817-10:33:13.882|56=TRAXQA3|10=207|8=FIXT.1.1|9=71|35=0|34=212|49=HEMAQA3_INBOUND_001|52=20180817-10:33:44.876|56=TRAXQA3|10=215|8=FIXT.1.1|9=71|35=0|34=213|49=HEMAQA3_INBOUND_001|52=20180817-10:34:14.876|56=TRAXQA3|10=214|8=FIXT.1.1|9=71|35=0|34=214|49=HEMAQA3_INBOUND_001|52=20180817-10:34:45.871|56=TRAXQA3|10=214|8=FIXT.1.1|9=71|35=0|34=215|49=HEMAQA3_INBOUND_001|52=20180817-10:35:15.875|56=TRAXQA3|10=217|8=FIXT.1.1|9=71|35=0|34=216|49=HEMAQA3_INBOUND_001|52=20180817-10:35:46.868|56=TRAXQA3|10=224|8=FIXT.1.1|9=71|35=0|34=217|49=HEMAQA3_INBOUND_001|52=20180817-10:36:16.875|56=TRAXQA3|10=221|8=FIXT.1.1|9=71|35=0|34=218|49=HEMAQA3_INBOUND_001|52=20180817-10:36:47.872|56=TRAXQA3|10=223|8=FIXT.1.1|9=71|35=0|34=219|49=HEMAQA3_INBOUND_001|52=20180817-10:37:17.872|56=TRAXQA3|10=222|8=FIXT.1.1|9=71|35=0|34=220|49=HEMAQA3_INBOUND_001|52=20180817-10:37:47.877|56=TRAXQA3|10=222|8=FIXT.1.1|9=71|35=0|34=221|49=HEMAQA3_INBOUND_001|52=20180817-10:38:18.873|56=TRAXQA3|10=218|8=FIXT.1.1|9=71|35=0|34=222|49=HEMAQA3_INBOUND_001|52=20180817-10:38:48.877|56=TRAXQA3|10=226|8=FIXT.1.1|9=71|35=0|34=223|49=HEMAQA3_INBOUND_001|52=20180817-10:39:18.877|56=TRAXQA3|10=225|8=FIXT.1.1|9=71|35=0|34=224|49=HEMAQA3_INBOUND_001|52=20180817-10:39:49.866|56=TRAXQA3|10=228|8=FIXT.1.1|9=71|35=0|34=225|49=HEMAQA3_INBOUND_001|52=20180817-10:40:19.869|56=TRAXQA3|10=221|8=FIXT.1.1|9=71|35=0|34=226|49=HEMAQA3_INBOUND_001|52=20180817-10:40:49.869|56=TRAXQA3|10=225|8=FIXT.1.1|9=71|35=0|34=227|49=HEMAQA3_INBOUND_001|52=20180817-10:41:19.875|56=TRAXQA3|10=221|8=FIXT.1.1|9=71|35=0|34=228|49=HEMAQA3_INBOUND_001|52=20180817-10:41:50.879|56=TRAXQA3|10=221|8=FIXT.1.1|9=71|35=0|34=229|49=HEMAQA3_INBOUND_001|52=20180817-10:42:20.879|56=TRAXQA3|10=220|8=FIXT.1.1|9=71|35=0|34=230|49=HEMAQA3_INBOUND_001|52=20180817-10:42:51.870|56=TRAXQA3|10=207|8=FIXT.1.1|9=71|35=0|34=231|49=HEMAQA3_INBOUND_001|52=20180817-10:43:21.876|56=TRAXQA3|10=212|8=FIXT.1.1|9=71|35=0|34=232|49=HEMAQA3_INBOUND_001|52=20180817-10:43:51.878|56=TRAXQA3|10=218|8=FIXT.1.1|9=71|35=0|34=233|49=HEMAQA3_INBOUND_001|52=20180817-10:44:22.879|56=TRAXQA3|10=219|8=FIXT.1.1|9=71|35=0|34=234|49=HEMAQA3_INBOUND_001|52=20180817-10:44:53.872|56=TRAXQA3|10=217|8=FIXT.1.1|9=71|35=0|34=235|49=HEMAQA3_INBOUND_001|52=20180817-10:45:24.870|56=TRAXQA3|10=215|8=FIXT.1.1|9=71|35=0|34=236|49=HEMAQA3_INBOUND_001|52=20180817-10:45:55.873|56=TRAXQA3|10=223|8=FIXT.1.1|9=71|35=0|34=237|49=HEMAQA3_INBOUND_001|52=20180817-10:46:25.878|56=TRAXQA3|10=227|8=FIXT.1.1|9=71|35=0|34=238|49=HEMAQA3_INBOUND_001|52=20180817-10:46:55.878|56=TRAXQA3|10=231|8=FIXT.1.1|9=71|35=0|34=239|49=HEMAQA3_INBOUND_001|52=20180817-10:47:26.866|56=TRAXQA3|10=228|8=FIXT.1.1|9=71|35=0|34=240|49=HEMAQA3_INBOUND_001|52=20180817-10:47:56.876|56=TRAXQA3|10=224|8=FIXT.1.1|9=71|35=0|34=241|49=HEMAQA3_INBOUND_001|52=20180817-10:48:27.879|56=TRAXQA3|10=227|8=FIXT.1.1|9=71|35=0|34=242|49=HEMAQA3_INBOUND_001|52=20180817-10:48:57.879|56=TRAXQA3|10=231|8=FIXT.1.1|9=71|35=0|34=243|49=HEMAQA3_INBOUND_001|52=20180817-10:49:28.877|56=TRAXQA3|10=229|8=FIXT.1.1|9=71|35=0|34=244|49=HEMAQA3_INBOUND_001|52=20180817-10:49:59.870|56=TRAXQA3|10=227|8=FIXT.1.1|9=71|35=0|34=245|49=HEMAQA3_INBOUND_001|52=20180817-10:50:30.865|56=TRAXQA3|10=213|8=FIXT.1.1|9=71|35=0|34=246|49=HEMAQA3_INBOUND_001|52=20180817-10:51:00.872|56=TRAXQA3|10=210|8=FIXT.1.1|9=71|35=0|34=247|49=HEMAQA3_INBOUND_001|52=20180817-10:51:30.872|56=TRAXQA3|10=214|8=FIXT.1.1|9=71|35=0|34=248|49=HEMAQA3_INBOUND_001|52=20180817-10:52:01.865|56=TRAXQA3|10=216|8=FIXT.1.1|9=71|35=0|34=249|49=HEMAQA3_INBOUND_001|52=20180817-10:52:31.879|56=TRAXQA3|10=225|8=FIXT.1.1|9=71|35=0|34=250|49=HEMAQA3_INBOUND_001|52=20180817-10:53:02.868|56=TRAXQA3|10=214|8=FIXT.1.1|9=71|35=0|34=251|49=HEMAQA3_INBOUND_001|52=20180817-10:53:32.870|56=TRAXQA3|10=211|8=FIXT.1.1|9=71|35=0|34=252|49=HEMAQA3_INBOUND_001|52=20180817-10:54:02.877|56=TRAXQA3|10=217|8=FIXT.1.1|9=71|35=0|34=253|49=HEMAQA3_INBOUND_001|52=20180817-10:54:33.865|56=TRAXQA3|10=219|8=FIXT.1.1|9=71|35=0|34=254|49=HEMAQA3_INBOUND_001|52=20180817-10:55:03.865|56=TRAXQA3|10=218|8=FIXT.1.1|9=71|35=0|34=255|49=HEMAQA3_INBOUND_001|52=20180817-10:55:33.868|56=TRAXQA3|10=225|8=FIXT.1.1|9=71|35=0|34=256|49=HEMAQA3_INBOUND_001|52=20180817-10:56:04.865|56=TRAXQA3|10=222|8=FIXT.1.1|9=71|35=0|34=257|49=HEMAQA3_INBOUND_001|52=20180817-10:56:34.866|56=TRAXQA3|10=227|8=FIXT.1.1|9=71|35=0|34=258|49=HEMAQA3_INBOUND_001|52=20180817-10:57:04.876|56=TRAXQA3|10=227|8=FIXT.1.1|9=71|35=0|34=259|49=HEMAQA3_INBOUND_001|52=20180817-10:57:34.880|56=TRAXQA3|10=226|8=FIXT.1.1|9=71|35=0|34=260|49=HEMAQA3_INBOUND_001|52=20180817-10:58:05.871|56=TRAXQA3|10=217|8=FIXT.1.1|9=71|35=0|34=261|49=HEMAQA3_INBOUND_001|52=20180817-10:58:35.877|56=TRAXQA3|10=227|8=FIXT.1.1|9=71|35=0|34=262|49=HEMAQA3_INBOUND_001|52=20180817-10:59:06.751|56=TRAXQA3|10=218|8=FIXT.1.1|9=71|35=0|34=263|49=HEMAQA3_INBOUND_001|52=20180817-10:59:36.754|56=TRAXQA3|10=225|8=FIXT.1.1|9=71|35=0|34=264|49=HEMAQA3_INBOUND_001|52=20180817-11:00:06.754|56=TRAXQA3|10=210|8=FIXT.1.1|9=71|35=0|34=265|49=HEMAQA3_INBOUND_001|52=20180817-11:00:36.872|56=TRAXQA3|10=215|8=FIXT.1.1|9=71|35=0|34=266|49=HEMAQA3_INBOUND_001|52=20180817-11:01:06.876|56=TRAXQA3|10=218|8=FIXT.1.1|9=71|35=0|34=267|49=HEMAQA3_INBOUND_001|52=20180817-11:01:37.870|56=TRAXQA3|10=217|8=FIXT.1.1|9=71|35=0|34=268|49=HEMAQA3_INBOUND_001|52=20180817-11:02:07.880|56=TRAXQA3|10=217|8=FIXT.1.1|9=71|35=0|34=269|49=HEMAQA3_INBOUND_001|52=20180817-11:02:38.868|56=TRAXQA3|10=228|8=FIXT.1.1|9=71|35=0|34=270|49=HEMAQA3_INBOUND_001|52=20180817-11:03:08.870|56=TRAXQA3|10=211|8=FIXT.1.1|9=71|35=0|34=271|49=HEMAQA3_INBOUND_001|52=20180817-11:03:38.879|56=TRAXQA3|10=224|8=FIXT.1.1|9=71|35=0|34=272|49=HEMAQA3_INBOUND_001|52=20180817-11:04:09.874|56=TRAXQA3|10=219|8=FIXT.1.1|9=71|35=0|34=273|49=HEMAQA3_INBOUND_001|52=20180817-11:04:39.879|56=TRAXQA3|10=228|8=FIXT.1.1|9=71|35=0|34=274|49=HEMAQA3_INBOUND_001|52=20180817-11:05:10.869|56=TRAXQA3|10=218|8=FIXT.1.1|9=71|35=0|34=275|49=HEMAQA3_INBOUND_001|52=20180817-11:05:41.874|56=TRAXQA3|10=219|8=FIXT.1.1|9=71|35=0|34=276|49=HEMAQA3_INBOUND_001|52=20180817-11:06:12.878|56=TRAXQA3|10=223|8=FIXT.1.1|9=71|35=0|34=277|49=HEMAQA3_INBOUND_001|52=20180817-11:06:43.869|56=TRAXQA3|10=228|8=FIXT.1.1|9=71|35=0|34=278|49=HEMAQA3_INBOUND_001|52=20180817-11:07:14.878|56=TRAXQA3|10=228|8=FIXT.1.1|9=71|35=0|34=279|49=HEMAQA3_INBOUND_001|52=20180817-11:07:44.879|56=TRAXQA3|10=233|8=FIXT.1.1|9=71|35=0|34=280|49=HEMAQA3_INBOUND_001|52=20180817-11:08:14.881|56=TRAXQA3|10=216|8=FIXT.1.1|9=71|35=0|34=281|49=HEMAQA3_INBOUND_001|52=20180817-11:08:45.877|56=TRAXQA3|10=226|8=FIXT.1.1|9=71|35=0|34=282|49=HEMAQA3_INBOUND_001|52=20180817-11:09:16.880|56=TRAXQA3|10=220|8=FIXT.1.1|9=71|35=0|34=283|49=HEMAQA3_INBOUND_001|52=20180817-11:09:47.879|56=TRAXQA3|10=233|8=FIXT.1.1|9=71|35=0|34=284|49=HEMAQA3_INBOUND_001|52=20180817-11:10:17.881|56=TRAXQA3|10=216|8=FIXT.1.1|9=71|35=0|34=285|49=HEMAQA3_INBOUND_001|52=20180817-11:10:47.887|56=TRAXQA3|10=226|8=FIXT.1.1|9=71|35=0|34=286|49=HEMAQA3_INBOUND_001|52=20180817-11:11:18.878|56=TRAXQA3|10=226|8=FIXT.1.1|9=71|35=0|34=287|49=HEMAQA3_INBOUND_001|52=20180817-11:11:48.890|56=TRAXQA3|10=224|8=FIXT.1.1|9=71|35=0|34=288|49=HEMAQA3_INBOUND_001|52=20180817-11:12:19.889|56=TRAXQA3|10=232|8=FIXT.1.1|9=71|35=0|34=289|49=HEMAQA3_INBOUND_001|52=20180817-11:12:50.887|56=TRAXQA3|10=226|8=FIXT.1.1|9=71|35=0|34=290|49=HEMAQA3_INBOUND_001|52=20180817-11:13:20.888|56=TRAXQA3|10=217|8=FIXT.1.1|9=71|35=0|34=291|49=HEMAQA3_INBOUND_001|52=20180817-11:13:51.884|56=TRAXQA3|10=218|8=FIXT.1.1|9=71|35=0|34=292|49=HEMAQA3_INBOUND_001|52=20180817-11:14:22.885|56=TRAXQA3|10=219|8=FIXT.1.1|9=71|35=0|34=293|49=HEMAQA3_INBOUND_001|52=20180817-11:14:52.886|56=TRAXQA3|10=224|8=FIXT.1.1|9=71|35=0|34=294|49=HEMAQA3_INBOUND_001|52=20180817-11:15:23.889|56=TRAXQA3|10=227|8=FIXT.1.1|9=71|35=0|34=295|49=HEMAQA3_INBOUND_001|52=20180817-11:15:53.896|56=TRAXQA3|10=229|8=FIXT.1.1|9=71|35=0|34=296|49=HEMAQA3_INBOUND_001|52=20180817-11:16:24.887|56=TRAXQA3|10=229|8=FIXT.1.1|9=71|35=0|34=297|49=HEMAQA3_INBOUND_001|52=20180817-11:16:54.895|56=TRAXQA3|10=232|8=FIXT.1.1|9=71|35=0|34=298|49=HEMAQA3_INBOUND_001|52=20180817-11:17:25.892|56=TRAXQA3|10=229|8=FIXT.1.1|9=71|35=0|34=299|49=HEMAQA3_INBOUND_001|52=20180817-11:17:56.885|56=TRAXQA3|10=236|8=FIXT.1.1|9=71|35=0|34=300|49=HEMAQA3_INBOUND_001|52=20180817-11:18:26.886|56=TRAXQA3|10=218|8=FIXT.1.1|9=71|35=0|34=301|49=HEMAQA3_INBOUND_001|52=20180817-11:18:56.887|56=TRAXQA3|10=223|8=FIXT.1.1|9=71|35=0|34=302|49=HEMAQA3_INBOUND_001|52=20180817-11:19:26.893|56=TRAXQA3|10=219|8=FIXT.1.1|9=71|35=0|34=303|49=HEMAQA3_INBOUND_001|52=20180817-11:19:56.896|56=TRAXQA3|10=226|8=FIXT.1.1|9=71|35=0|34=304|49=HEMAQA3_INBOUND_001|52=20180817-11:20:27.892|56=TRAXQA3|10=213|8=FIXT.1.1|9=71|35=0|34=305|49=HEMAQA3_INBOUND_001|52=20180817-11:20:58.890|56=TRAXQA3|10=216|8=FIXT.1.1|9=71|35=0|34=306|49=HEMAQA3_INBOUND_001|52=20180817-11:21:28.893|56=TRAXQA3|10=218|8=FIXT.1.1|9=71|35=0|34=307|49=HEMAQA3_INBOUND_001|52=20180817-11:21:59.901|56=TRAXQA3|10=213|8=FIXT.1.1|9=71|35=0|34=308|49=HEMAQA3_INBOUND_001|52=20180817-11:22:30.901|56=TRAXQA3|10=204|8=FIXT.1.1|9=71|35=0|34=309|49=HEMAQA3_INBOUND_001|52=20180817-11:23:00.906|56=TRAXQA3|10=208|8=FIXT.1.1|9=71|35=0|34=310|49=HEMAQA3_INBOUND_001|52=20180817-11:23:31.903|56=TRAXQA3|10=201|8=FIXT.1.1|9=71|35=0|34=311|49=HEMAQA3_INBOUND_001|52=20180817-11:24:02.893|56=TRAXQA3|10=209|8=FIXT.1.1|9=71|35=0|34=312|49=HEMAQA3_INBOUND_001|52=20180817-11:24:32.908|56=TRAXQA3|10=210|8=FIXT.1.1|9=71|35=0|34=313|49=HEMAQA3_INBOUND_001|52=20180817-11:25:03.896|56=TRAXQA3|10=216|8=FIXT.1.1|9=71|35=0|34=314|49=HEMAQA3_INBOUND_001|52=20180817-11:25:33.901|56=TRAXQA3|10=207|8=FIXT.1.1|9=71|35=0|34=315|49=HEMAQA3_INBOUND_001|52=20180817-11:26:03.905|56=TRAXQA3|10=210|8=FIXT.1.1|9=71|35=0|34=316|49=HEMAQA3_INBOUND_001|52=20180817-11:26:34.897|56=TRAXQA3|10=225|8=FIXT.1.1|9=71|35=0|34=317|49=HEMAQA3_INBOUND_001|52=20180817-11:27:04.905|56=TRAXQA3|10=214|8=FIXT.1.1|9=71|35=0|34=318|49=HEMAQA3_INBOUND_001|52=20180817-11:27:35.897|56=TRAXQA3|10=229|8=FIXT.1.1|9=71|35=0|34=319|49=HEMAQA3_INBOUND_001|52=20180817-11:28:05.908|56=TRAXQA3|10=221|8=FIXT.1.1|9=71|35=0|34=320|49=HEMAQA3_INBOUND_001|52=20180817-11:28:36.782|56=TRAXQA3|10=217|8=FIXT.1.1|9=71|35=0|34=321|49=HEMAQA3_INBOUND_001|52=20180817-11:29:06.785|56=TRAXQA3|10=219|8=FIXT.1.1|9=71|35=0|34=322|49=HEMAQA3_INBOUND_001|52=20180817-11:29:36.787|56=TRAXQA3|10=225|8=FIXT.1.1|9=71|35=0|34=323|49=HEMAQA3_INBOUND_001|52=20180817-11:30:06.787|56=TRAXQA3|10=215|8=FIXT.1.1|9=71|35=0|34=324|49=HEMAQA3_INBOUND_001|52=20180817-11:30:36.906|56=TRAXQA3|10=212|8=FIXT.1.1|9=71|35=0|34=325|49=HEMAQA3_INBOUND_001|52=20180817-11:31:07.908|56=TRAXQA3|10=214|8=FIXT.1.1|9=71|35=0|34=326|49=HEMAQA3_INBOUND_001|52=20180817-11:31:37.910|56=TRAXQA3|10=211|8=FIXT.1.1|9=71|35=0|34=327|49=HEMAQA3_INBOUND_001|52=20180817-11:32:08.914|56=TRAXQA3|10=215|8=FIXT.1.1|9=71|35=0|34=328|49=HEMAQA3_INBOUND_001|52=20180817-11:32:39.900|56=TRAXQA3|10=215|8=FIXT.1.1|9=71|35=0|34=329|49=HEMAQA3_INBOUND_001|52=20180817-11:33:09.912|56=TRAXQA3|10=217|8=FIXT.1.1|9=71|35=0|34=330|49=HEMAQA3_INBOUND_001|52=20180817-11:33:39.916|56=TRAXQA3|10=216|8=FIXT.1.1|9=71|35=0|34=331|49=HEMAQA3_INBOUND_001|52=20180817-11:34:10.913|56=TRAXQA3|10=204|8=FIXT.1.1|9=71|35=0|34=332|49=HEMAQA3_INBOUND_001|52=20180817-11:34:40.917|56=TRAXQA3|10=212|8=FIXT.1.1|9=71|35=0|34=333|49=HEMAQA3_INBOUND_001|52=20180817-11:35:11.910|56=TRAXQA3|10=205|8=FIXT.1.1|9=71|35=0|34=334|49=HEMAQA3_INBOUND_001|52=20180817-11:35:42.920|56=TRAXQA3|10=211|8=FIXT.1.1|9=71|35=0|34=335|49=HEMAQA3_INBOUND_001|52=20180817-11:36:13.911|56=TRAXQA3|10=211|8=FIXT.1.1|9=71|35=0|34=336|49=HEMAQA3_INBOUND_001|52=20180817-11:36:43.920|56=TRAXQA3|10=215|8=FIXT.1.1|9=71|35=0|34=337|49=HEMAQA3_INBOUND_001|52=20180817-11:37:14.920|56=TRAXQA3|10=215|8=FIXT.1.1|9=71|35=0|34=338|49=HEMAQA3_INBOUND_001|52=20180817-11:37:45.911|56=TRAXQA3|10=220|8=FIXT.1.1|9=71|35=0|34=339|49=HEMAQA3_INBOUND_001|52=20180817-11:38:16.908|56=TRAXQA3|10=226|8=FIXT.1.1|9=71|35=0|34=340|49=HEMAQA3_INBOUND_001|52=20180817-11:38:46.916|56=TRAXQA3|10=220|8=FIXT.1.1|9=71|35=0|34=341|49=HEMAQA3_INBOUND_001|52=20180817-11:39:17.909|56=TRAXQA3|10=222|8=FIXT.1.1|9=71|35=0|34=342|49=HEMAQA3_INBOUND_001|52=20180817-11:39:47.910|56=TRAXQA3|10=218|8=FIXT.1.1|9=428|35=AE|34=343|49=HEMAQA3_INBOUND_001|50=APA|57=APA|52=20180817-11:40:15.463|56=TRAXQA3|571=TradeReport1_A1|487=0|325=Y|1390=1|423=1|55=[N/A]|48=GBPK41125001|22=4|31=241|32=5400|60=20180514-04:58:13.370|552=1|54=2|29=5|1041=IISUER_A20|997=H|1934=0|1116=3|1117=201O4WPVDWS2OVE3MS58|1118=N|1119=116|1117=201O4WPVDWS2OVE3MS58|1118=N|1119=1|1117=315700XCYIVBHQW6F758|1118=N|1119=17|1924=1|22600=1008601|22601=chf|854=1|231=10|30=ADAT|10=166|8=FIXT.1.1|9=71|35=0|34=344|49=HEMAQA3_INBOUND_001|52=20180817-11:40:45.916|56=TRAXQA3|10=216|8=FIXT.1.1|9=71|35=0|34=345|49=HEMAQA3_INBOUND_001|52=20180817-11:41:15.916|56=TRAXQA3|10=215|8=FIXT.1.1|9=71|35=0|34=346|49=HEMAQA3_INBOUND_001|52=20180817-11:41:46.914|56=TRAXQA3|10=218|8=FIXT.1.1|9=71|35=0|34=347|49=HEMAQA3_INBOUND_001|52=20180817-11:42:16.917|56=TRAXQA3|10=220|8=FIXT.1.1|9=429|35=AE|34=348|49=HEMAQA3_INBOUND_001|50=APA|57=APA|52=20180817-11:42:45.622|56=TRAXQA3|571=TradeReport1_A1|487=0|325=Y|1390=1|423=1|55=[N/A]|48=GBPK41125001|22=4|31=241|32=5400|60=20180514-04:58:13.370|552=1|54=2|29=5|1041=IISUER_A202|997=H|1934=0|1116=3|1117=0292001987H9L5UH7J52|1118=N|1119=116|1117=0292001987H9L5UH7J52|1118=N|1119=1|1117=315700XCYIVBHQW6F758|1118=N|1119=17|1924=1|22600=1008601|22601=chf|854=1|231=10|30=ADAT|10=064|8=FIXT.1.1|9=71|35=0|34=349|49=HEMAQA3_INBOUND_001|52=20180817-11:43:15.798|56=TRAXQA3|10=229|8=FIXT.1.1|9=71|35=0|34=350|49=HEMAQA3_INBOUND_001|52=20180817-11:43:45.903|56=TRAXQA3|10=212|8=FIXT.1.1|9=71|35=0|34=351|49=HEMAQA3_INBOUND_001|52=20180817-11:44:15.904|56=TRAXQA3|10=212|8=FIXT.1.1|9=71|35=0|34=352|49=HEMAQA3_INBOUND_001|52=20180817-11:44:45.905|56=TRAXQA3|10=217|8=FIXT.1.1|9=71|35=0|34=353|49=HEMAQA3_INBOUND_001|52=20180817-11:45:16.898|56=TRAXQA3|10=228|8=FIXT.1.1|9=71|35=0|34=354|49=HEMAQA3_INBOUND_001|52=20180817-11:45:46.901|56=TRAXQA3|10=217|8=FIXT.1.1|9=71|35=0|34=355|49=HEMAQA3_INBOUND_001|52=20180817-11:46:16.909|56=TRAXQA3|10=224|8=FIXT.1.1|9=71|35=0|34=356|49=HEMAQA3_INBOUND_001|52=20180817-11:46:47.896|56=TRAXQA3|10=234|8=FIXT.1.1|9=71|35=0|34=357|49=HEMAQA3_INBOUND_001|52=20180817-11:47:17.904|56=TRAXQA3|10=223|8=FIXT.1.1|9=71|35=0|34=358|49=HEMAQA3_INBOUND_001|52=20180817-11:47:48.907|56=TRAXQA3|10=231|8=FIXT.1.1|9=71|35=0|34=359|49=HEMAQA3_INBOUND_001|52=20180817-11:48:19.897|56=TRAXQA3|10=239|8=FIXT.1.1|9=71|35=0|34=360|49=HEMAQA3_INBOUND_001|52=20180817-11:48:49.900|56=TRAXQA3|10=219|8=FIXT.1.1|9=71|35=0|34=361|49=HEMAQA3_INBOUND_001|52=20180817-11:49:20.904|56=TRAXQA3|10=214|8=FIXT.1.1|9=71|35=0|34=362|49=HEMAQA3_INBOUND_001|52=20180817-11:49:51.889|56=TRAXQA3|10=231|8=FIXT.1.1|9=71|35=0|34=363|49=HEMAQA3_INBOUND_001|52=20180817-11:50:21.902|56=TRAXQA3|10=207|8=FIXT.1.1|9=71|35=0|34=364|49=HEMAQA3_INBOUND_001|52=20180817-11:50:52.888|56=TRAXQA3|10=225|8=FIXT.1.1|9=71|35=0|34=365|49=HEMAQA3_INBOUND_001|52=20180817-11:51:22.897|56=TRAXQA3|10=224|8=FIXT.1.1|9=71|35=0|34=366|49=HEMAQA3_INBOUND_001|52=20180817-11:51:53.891|56=TRAXQA3|10=223|8=FIXT.1.1|9=71|35=0|34=367|49=HEMAQA3_INBOUND_001|52=20180817-11:52:23.898|56=TRAXQA3|10=229|8=FIXT.1.1|9=71|35=0|34=368|49=HEMAQA3_INBOUND_001|52=20180817-11:52:54.899|56=TRAXQA3|10=235|8=FIXT.1.1|9=71|35=0|34=369|49=HEMAQA3_INBOUND_001|52=20180817-11:53:25.896|56=TRAXQA3|10=232|8=FIXT.1.1|9=71|35=0|34=370|49=HEMAQA3_INBOUND_001|52=20180817-11:53:56.886|56=TRAXQA3|10=227|8=FIXT.1.1|9=71|35=0|34=371|49=HEMAQA3_INBOUND_001|52=20180817-11:54:26.891|56=TRAXQA3|10=222|8=FIXT.1.1|9=71|35=0|34=372|49=HEMAQA3_INBOUND_001|52=20180817-11:54:57.893|56=TRAXQA3|10=229|8=FIXT.1.1|9=71|35=0|34=373|49=HEMAQA3_INBOUND_001|52=20180817-11:55:28.883|56=TRAXQA3|10=228|8=FIXT.1.1|9=71|35=0|34=374|49=HEMAQA3_INBOUND_001|52=20180817-11:55:58.890|56=TRAXQA3|10=230|8=FIXT.1.1|9=71|35=0|34=375|49=HEMAQA3_INBOUND_001|52=20180817-11:56:29.883|56=TRAXQA3|10=232|8=FIXT.1.1|9=71|35=0|34=376|49=HEMAQA3_INBOUND_001|52=20180817-11:56:59.883|56=TRAXQA3|10=236|8=FIXT.1.1|9=71|35=0|34=377|49=HEMAQA3_INBOUND_001|52=20180817-11:57:30.884|56=TRAXQA3|10=228|8=FIXT.1.1|9=71|35=0|34=378|49=HEMAQA3_INBOUND_001|52=20180817-11:58:01.878|56=TRAXQA3|10=231|8=FIXT.1.1|9=71|35=0|34=379|49=HEMAQA3_INBOUND_001|52=20180817-11:58:31.888|56=TRAXQA3|10=236|8=FIXT.1.1|9=71|35=0|34=380|49=HEMAQA3_INBOUND_001|52=20180817-11:59:02.877|56=TRAXQA3|10=225|8=FIXT.1.1|9=71|35=0|34=381|49=HEMAQA3_INBOUND_001|52=20180817-11:59:32.890|56=TRAXQA3|10=224|8=FIXT.1.1|9=71|35=0|34=382|49=HEMAQA3_INBOUND_001|52=20180817-12:00:03.885|56=TRAXQA3|10=214|8=FIXT.1.1|9=71|35=0|34=383|49=HEMAQA3_INBOUND_001|52=20180817-12:00:33.887|56=TRAXQA3|10=220|8=FIXT.1.1|9=71|35=0|34=384|49=HEMAQA3_INBOUND_001|52=20180817-12:01:03.890|56=TRAXQA3|10=213|8=FIXT.1.1|9=71|35=0|34=385|49=HEMAQA3_INBOUND_001|52=20180817-12:01:34.883|56=TRAXQA3|10=220|8=FIXT.1.1|9=71|35=0|34=386|49=HEMAQA3_INBOUND_001|52=20180817-12:02:04.886|56=TRAXQA3|10=222|8=FIXT.1.1|9=71|35=0|34=387|49=HEMAQA3_INBOUND_001|52=20180817-12:02:35.881|56=TRAXQA3|10=222|8=FIXT.1.1|9=71|35=0|34=388|49=HEMAQA3_INBOUND_001|52=20180817-12:03:06.878|56=TRAXQA3|10=228|8=FIXT.1.1|9=71|35=0|34=389|49=HEMAQA3_INBOUND_001|52=20180817-12:03:36.884|56=TRAXQA3|10=229|8=FIXT.1.1|9=71|35=0|34=390|49=HEMAQA3_INBOUND_001|52=20180817-12:04:07.887|56=TRAXQA3|10=223|8=FIXT.1.1|9=71|35=0|34=391|49=HEMAQA3_INBOUND_001|52=20180817-12:04:38.886|56=TRAXQA3|10=227|8=FIXT.1.1|9=71|35=0|34=392|49=HEMAQA3_INBOUND_001|52=20180817-12:05:09.872|56=TRAXQA3|10=222|8=FIXT.1.1|9=71|35=0|34=393|49=HEMAQA3_INBOUND_001|52=20180817-12:05:39.881|56=TRAXQA3|10=226|8=FIXT.1.1|9=71|35=0|34=394|49=HEMAQA3_INBOUND_001|52=20180817-12:06:10.871|56=TRAXQA3|10=216|8=FIXT.1.1|9=71|35=0|34=395|49=HEMAQA3_INBOUND_001|52=20180817-12:06:40.883|56=TRAXQA3|10=223|8=FIXT.1.1|9=71|35=0|34=396|49=HEMAQA3_INBOUND_001|52=20180817-12:07:11.879|56=TRAXQA3|10=228|8=FIXT.1.1|9=71|35=0|34=397|49=HEMAQA3_INBOUND_001|52=20180817-12:07:42.869|56=TRAXQA3|10=232|8=FIXT.1.1|9=71|35=0|34=398|49=HEMAQA3_INBOUND_001|52=20180817-12:08:12.881|56=TRAXQA3|10=225|8=FIXT.1.1|9=71|35=0|34=399|49=HEMAQA3_INBOUND_001|52=20180817-12:08:43.881|56=TRAXQA3|10=230|8=FIXT.1.1|9=71|35=0|34=400|49=HEMAQA3_INBOUND_001|52=20180817-12:09:14.878|56=TRAXQA3|10=218|8=FIXT.1.1|9=71|35=0|34=401|49=HEMAQA3_INBOUND_001|52=20180817-12:09:44.881|56=TRAXQA3|10=216|8=FIXT.1.1|9=71|35=0|34=402|49=HEMAQA3_INBOUND_001|52=20180817-12:10:14.882|56=TRAXQA3|10=207|8=FIXT.1.1|9=71|35=0|34=403|49=HEMAQA3_INBOUND_001|52=20180817-12:10:45.765|56=TRAXQA3|10=212|8=FIXT.1.1|9=71|35=0|34=404|49=HEMAQA3_INBOUND_001|52=20180817-12:11:15.765|56=TRAXQA3|10=211|8=FIXT.1.1|9=71|35=0|34=405|49=HEMAQA3_INBOUND_001|52=20180817-12:11:45.873|56=TRAXQA3|10=215|8=FIXT.1.1|9=71|35=0|34=406|49=HEMAQA3_INBOUND_001|52=20180817-12:12:15.879|56=TRAXQA3|10=220|8=FIXT.1.1|9=71|35=0|34=407|49=HEMAQA3_INBOUND_001|52=20180817-12:12:46.874|56=TRAXQA3|10=220|8=FIXT.1.1|9=71|35=0|34=408|49=HEMAQA3_INBOUND_001|52=20180817-12:13:17.882|56=TRAXQA3|10=219|8=FIXT.1.1|9=71|35=0|34=409|49=HEMAQA3_INBOUND_001|52=20180817-12:13:47.882|56=TRAXQA3|10=223|8=FIXT.1.1|9=71|35=0|34=410|49=HEMAQA3_INBOUND_001|52=20180817-12:14:18.882|56=TRAXQA3|10=214|8=FIXT.1.1|9=71|35=0|34=411|49=HEMAQA3_INBOUND_001|52=20180817-12:14:49.870|56=TRAXQA3|10=216|8=FIXT.1.1|9=71|35=0|34=412|49=HEMAQA3_INBOUND_001|52=20180817-12:15:19.873|56=TRAXQA3|10=218|8=FIXT.1.1|9=71|35=0|34=413|49=HEMAQA3_INBOUND_001|52=20180817-12:15:50.868|56=TRAXQA3|10=218|8=FIXT.1.1|9=71|35=0|34=414|49=HEMAQA3_INBOUND_001|52=20180817-12:16:21.867|56=TRAXQA3|10=217|8=FIXT.1.1|9=71|35=0|34=415|49=HEMAQA3_INBOUND_001|52=20180817-12:16:52.865|56=TRAXQA3|10=220|8=FIXT.1.1|9=71|35=0|34=416|49=HEMAQA3_INBOUND_001|52=20180817-12:17:22.867|56=TRAXQA3|10=221|8=FIXT.1.1|9=71|35=0|34=417|49=HEMAQA3_INBOUND_001|52=20180817-12:17:53.875|56=TRAXQA3|10=225|8=FIXT.1.1|9=71|35=0|34=418|49=HEMAQA3_INBOUND_001|52=20180817-12:18:24.865|56=TRAXQA3|10=224|8=FIXT.1.1|9=71|35=0|34=419|49=HEMAQA3_INBOUND_001|52=20180817-12:18:54.869|56=TRAXQA3|10=232|8=FIXT.1.1|9=71|35=0|34=420|49=HEMAQA3_INBOUND_001|52=20180817-12:19:25.879|56=TRAXQA3|10=224|8=FIXT.1.1|9=71|35=0|34=421|49=HEMAQA3_INBOUND_001|52=20180817-12:19:56.875|56=TRAXQA3|10=225|8=FIXT.1.1|9=71|35=0|34=422|49=HEMAQA3_INBOUND_001|52=20180817-12:20:27.877|56=TRAXQA3|10=218|8=FIXT.1.1|9=71|35=0|34=423|49=HEMAQA3_INBOUND_001|52=20180817-12:20:57.878|56=TRAXQA3|10=223|8=FIXT.1.1|9=71|35=0|34=424|49=HEMAQA3_INBOUND_001|52=20180817-12:21:28.864|56=TRAXQA3|10=218|8=FIXT.1.1|9=71|35=0|34=425|49=HEMAQA3_INBOUND_001|52=20180817-12:21:58.873|56=TRAXQA3|10=222|8=FIXT.1.1|9=71|35=0|34=426|49=HEMAQA3_INBOUND_001|52=20180817-12:22:28.877|56=TRAXQA3|10=225|8=FIXT.1.1|9=71|35=0|34=427|49=HEMAQA3_INBOUND_001|52=20180817-12:22:58.877|56=TRAXQA3|10=229|8=FIXT.1.1|9=71|35=0|34=428|49=HEMAQA3_INBOUND_001|52=20180817-12:23:29.867|56=TRAXQA3|10=228|8=FIXT.1.1|9=71|35=0|34=429|49=HEMAQA3_INBOUND_001|52=20180817-12:24:00.868|56=TRAXQA3|10=220|8=FIXT.1.1|9=71|35=0|34=430|49=HEMAQA3_INBOUND_001|52=20180817-12:24:30.874|56=TRAXQA3|10=212|8=FIXT.1.1|9=71|35=0|34=431|49=HEMAQA3_INBOUND_001|52=20180817-12:25:01.867|56=TRAXQA3|10=214|8=FIXT.1.1|9=71|35=0|34=432|49=HEMAQA3_INBOUND_001|52=20180817-12:25:31.874|56=TRAXQA3|10=216|8=FIXT.1.1|9=71|35=0|34=433|49=HEMAQA3_INBOUND_001|52=20180817-12:26:02.871|56=TRAXQA3|10=213|8=FIXT.1.1|9=71|35=0|34=434|49=HEMAQA3_INBOUND_001|52=20180817-12:26:33.872|56=TRAXQA3|10=219|8=FIXT.1.1|9=71|35=0|34=435|49=HEMAQA3_INBOUND_001|52=20180817-12:27:04.867|56=TRAXQA3|10=223|8=FIXT.1.1|9=71|35=0|34=436|49=HEMAQA3_INBOUND_001|52=20180817-12:27:34.867|56=TRAXQA3|10=227|8=FIXT.1.1|9=71|35=0|34=437|49=HEMAQA3_INBOUND_001|52=20180817-12:28:05.873|56=TRAXQA3|10=224|8=FIXT.1.1|9=71|35=0|34=438|49=HEMAQA3_INBOUND_001|52=20180817-12:28:36.873|56=TRAXQA3|10=229|8=FIXT.1.1|9=71|35=0|34=439|49=HEMAQA3_INBOUND_001|52=20180817-12:29:06.873|56=TRAXQA3|10=228|8=FIXT.1.1|9=71|35=0|34=440|49=HEMAQA3_INBOUND_001|52=20180817-12:29:36.875|56=TRAXQA3|10=225|8=FIXT.1.1|9=71|35=0|34=441|49=HEMAQA3_INBOUND_001|52=20180817-12:30:07.870|56=TRAXQA3|10=211|8=FIXT.1.1|9=71|35=0|34=442|49=HEMAQA3_INBOUND_001|52=20180817-12:30:38.862|56=TRAXQA3|10=217|8=FIXT.1.1|9=71|35=0|34=443|49=HEMAQA3_INBOUND_001|52=20180817-12:31:08.874|56=TRAXQA3|10=219|8=FIXT.1.1|9=71|35=0|34=444|49=HEMAQA3_INBOUND_001|52=20180817-12:31:39.876|56=TRAXQA3|10=226|8=FIXT.1.1|9=71|35=0|34=445|49=HEMAQA3_INBOUND_001|52=20180817-12:32:10.869|56=TRAXQA3|10=219|8=FIXT.1.1|9=71|35=0|34=446|49=HEMAQA3_INBOUND_001|52=20180817-12:32:41.861|56=TRAXQA3|10=216|8=FIXT.1.1|9=71|35=0|34=447|49=HEMAQA3_INBOUND_001|52=20180817-12:33:11.861|56=TRAXQA3|10=215|8=FIXT.1.1|9=71|35=0|34=448|49=HEMAQA3_INBOUND_001|52=20180817-12:33:41.863|56=TRAXQA3|10=221|8=FIXT.1.1|9=71|35=0|34=449|49=HEMAQA3_INBOUND_001|52=20180817-12:34:11.867|56=TRAXQA3|10=224|8=FIXT.1.1|9=71|35=0|34=450|49=HEMAQA3_INBOUND_001|52=20180817-12:34:41.873|56=TRAXQA3|10=216|8=FIXT.1.1|9=71|35=0|34=451|49=HEMAQA3_INBOUND_001|52=20180817-12:35:12.869|56=TRAXQA3|10=221|8=FIXT.1.1|9=71|35=0|34=452|49=HEMAQA3_INBOUND_001|52=20180817-12:35:43.868|56=TRAXQA3|10=225|8=FIXT.1.1|9=71|35=0|34=453|49=HEMAQA3_INBOUND_001|52=20180817-12:36:14.865|56=TRAXQA3|10=222|8=FIXT.1.1|9=71|35=0|34=454|49=HEMAQA3_INBOUND_001|52=20180817-12:36:45.741|56=TRAXQA3|10=220|8=FIXT.1.1|9=71|35=0|34=455|49=HEMAQA3_INBOUND_001|52=20180817-12:37:15.753|56=TRAXQA3|10=222|8=FIXT.1.1|9=71|35=0|34=456|49=HEMAQA3_INBOUND_001|52=20180817-12:37:45.753|56=TRAXQA3|10=226|8=FIXT.1.1|9=71|35=0|34=457|49=HEMAQA3_INBOUND_001|52=20180817-12:38:15.753|56=TRAXQA3|10=225|8=FIXT.1.1|9=71|35=0|34=458|49=HEMAQA3_INBOUND_001|52=20180817-12:38:45.866|56=TRAXQA3|10=234|8=FIXT.1.1|9=71|35=0|34=459|49=HEMAQA3_INBOUND_001|52=20180817-12:39:16.857|56=TRAXQA3|10=234|8=FIXT.1.1|9=71|35=0|34=460|49=HEMAQA3_INBOUND_001|52=20180817-12:39:46.857|56=TRAXQA3|10=229|8=FIXT.1.1|9=71|35=0|34=461|49=HEMAQA3_INBOUND_001|52=20180817-12:40:16.857|56=TRAXQA3|10=219|8=FIXT.1.1|9=71|35=0|34=462|49=HEMAQA3_INBOUND_001|52=20180817-12:40:46.870|56=TRAXQA3|10=218|8=FIXT.1.1|9=71|35=0|34=463|49=HEMAQA3_INBOUND_001|52=20180817-12:41:17.858|56=TRAXQA3|10=224|8=FIXT.1.1|9=71|35=0|34=464|49=HEMAQA3_INBOUND_001|52=20180817-12:41:47.869|56=TRAXQA3|10=230|8=FIXT.1.1|9=71|35=0|34=465|49=HEMAQA3_INBOUND_001|52=20180817-12:42:18.856|56=TRAXQA3|10=226|8=FIXT.1.1|9=71|35=0|34=466|49=HEMAQA3_INBOUND_001|52=20180817-12:42:48.863|56=TRAXQA3|10=228|8=FIXT.1.1|9=71|35=0|34=467|49=HEMAQA3_INBOUND_001|52=20180817-12:43:19.857|56=TRAXQA3|10=231|8=FIXT.1.1|9=71|35=0|34=468|49=HEMAQA3_INBOUND_001|52=20180817-12:43:49.868|56=TRAXQA3|10=237|8=FIXT.1.1|9=71|35=0|34=469|49=HEMAQA3_INBOUND_001|52=20180817-12:44:20.855|56=TRAXQA3|10=224|8=FIXT.1.1|9=71|35=0|34=470|49=HEMAQA3_INBOUND_001|52=20180817-12:44:50.857|56=TRAXQA3|10=221|8=FIXT.1.1|9=71|35=0|34=471|49=HEMAQA3_INBOUND_001|52=20180817-12:45:21.863|56=TRAXQA3|10=218|8=FIXT.1.1|9=71|35=0|34=472|49=HEMAQA3_INBOUND_001|52=20180817-12:45:51.870|56=TRAXQA3|10=220|8=FIXT.1.1|9=71|35=0|34=473|49=HEMAQA3_INBOUND_001|52=20180817-12:46:22.861|56=TRAXQA3|10=220|8=FIXT.1.1|9=71|35=0|34=474|49=HEMAQA3_INBOUND_001|52=20180817-12:46:52.863|56=TRAXQA3|10=226|8=FIXT.1.1|9=71|35=0|34=475|49=HEMAQA3_INBOUND_001|52=20180817-12:47:23.855|56=TRAXQA3|10=227|8=FIXT.1.1|9=71|35=0|34=476|49=HEMAQA3_INBOUND_001|52=20180817-12:47:54.853|56=TRAXQA3|10=230|8=FIXT.1.1|9=71|35=0|34=477|49=HEMAQA3_INBOUND_001|52=20180817-12:48:24.858|56=TRAXQA3|10=234|8=FIXT.1.1|9=71|35=0|34=478|49=HEMAQA3_INBOUND_001|52=20180817-12:48:54.866|56=TRAXQA3|10=237|8=FIXT.1.1|9=71|35=0|34=479|49=HEMAQA3_INBOUND_001|52=20180817-12:49:25.856|56=TRAXQA3|10=236|8=FIXT.1.1|9=71|35=0|34=480|49=HEMAQA3_INBOUND_001|52=20180817-12:49:55.862|5