8=FIXT.1.1|9=108|35=A|34=1|49=HEMAMTFRTS27QA2_PUB|52=20180625-11:03:53.600|56=TRAX|98=0|108=30|95=8|96=2.0.0rc4|141=Y|1137=9|10=029|8=FIXT.1.1|9=66|35=0|34=2|49=HEMAMTFRTS27QA2_PUB|52=20180625-11:04:23.602|56=TRAX|10=207|8=FIXT.1.1|9=66|35=0|34=3|49=HEMAMTFRTS27QA2_PUB|52=20180625-11:04:53.603|56=TRAX|10=212|8=FIXT.1.1|9=66|35=0|34=4|49=HEMAMTFRTS27QA2_PUB|52=20180625-11:05:23.874|56=TRAX|10=221|8=FIXT.1.1|9=66|35=0|34=5|49=HEMAMTFRTS27QA2_PUB|52=20180625-11:05:54.595|56=TRAX|10=226|8=FIXT.1.1|9=66|35=0|34=6|49=HEMAMTFRTS27QA2_PUB|52=20180625-11:06:24.600|56=TRAX|10=212|8=FIXT.1.1|9=66|35=0|34=7|49=HEMAMTFRTS27QA2_PUB|52=20180625-11:06:54.606|56=TRAX|10=222|8=FIXT.1.1|9=66|35=0|34=8|49=HEMAMTFRTS27QA2_PUB|52=20180625-11:07:25.592|56=TRAX|10=226|8=FIXT.1.1|9=66|35=0|34=9|49=HEMAMTFRTS27QA2_PUB|52=20180625-11:07:55.598|56=TRAX|10=236|8=FIXT.1.1|9=67|35=0|34=10|49=HEMAMTFRTS27QA2_PUB|52=20180625-11:08:26.602|56=TRAX|10=006|8=FIXT.1.1|9=67|35=0|34=11|49=HEMAMTFRTS27QA2_PUB|52=20180625-11:08:57.601|56=TRAX|10=010|8=FIXT.1.1|9=67|35=0|34=12|49=HEMAMTFRTS27QA2_PUB|52=20180625-11:09:27.603|56=TRAX|10=011|8=FIXT.1.1|9=67|35=0|34=13|49=HEMAMTFRTS27QA2_PUB|52=20180625-11:09:58.603|56=TRAX|10=016|8=FIXT.1.1|9=67|35=0|34=14|49=HEMAMTFRTS27QA2_PUB|52=20180625-11:10:29.597|56=TRAX|10=019|8=FIXT.1.1|9=67|35=0|34=15|49=HEMAMTFRTS27QA2_PUB|52=20180625-11:11:00.603|56=TRAX|10=254|8=FIXT.1.1|9=67|35=0|34=16|49=HEMAMTFRTS27QA2_PUB|52=20180625-11:11:31.597|56=TRAX|10=015|8=FIXT.1.1|9=67|35=0|34=17|49=HEMAMTFRTS27QA2_PUB|52=20180625-11:12:01.597|56=TRAX|10=014|8=FIXT.1.1|9=67|35=0|34=18|49=HEMAMTFRTS27QA2_PUB|52=20180625-11:12:31.597|56=TRAX|10=018|8=FIXT.1.1|9=67|35=0|34=19|49=HEMAMTFRTS27QA2_PUB|52=20180625-11:13:01.597|56=TRAX|10=017|8=FIXT.1.1|9=67|35=0|34=20|49=HEMAMTFRTS27QA2_PUB|52=20180625-11:13:31.597|56=TRAX|10=012|8=FIXT.1.1|9=67|35=0|34=21|49=HEMAMTFRTS27QA2_PUB|52=20180625-11:14:02.593|56=TRAX|10=008|8=FIXT.1.1|9=67|35=0|34=22|49=HEMAMTFRTS27QA2_PUB|52=20180625-11:14:32.601|56=TRAX|10=002|8=FIXT.1.1|9=67|35=0|34=23|49=HEMAMTFRTS27QA2_PUB|52=20180625-11:15:03.590|56=TRAX|10=009|8=FIXT.1.1|9=67|35=0|34=24|49=HEMAMTFRTS27QA2_PUB|52=20180625-11:15:33.595|56=TRAX|10=018|8=FIXT.1.1|9=67|35=0|34=25|49=HEMAMTFRTS27QA2_PUB|52=20180625-11:16:03.601|56=TRAX|10=005|8=FIXT.1.1|9=67|35=0|34=26|49=HEMAMTFRTS27QA2_PUB|52=20180625-11:16:34.595|56=TRAX|10=022|8=FIXT.1.1|9=67|35=0|34=27|49=HEMAMTFRTS27QA2_PUB|52=20180625-11:17:04.599|56=TRAX|10=025|8=FIXT.1.1|9=67|35=0|34=28|49=HEMAMTFRTS27QA2_PUB|52=20180625-11:17:34.602|56=TRAX|10=014|8=FIXT.1.1|9=67|35=0|34=29|49=HEMAMTFRTS27QA2_PUB|52=20180625-11:18:05.595|56=TRAX|10=025|8=FIXT.1.1|9=67|35=0|34=30|49=HEMAMTFRTS27QA2_PUB|52=20180625-11:18:36.602|56=TRAX|10=010|8=FIXT.1.1|9=67|35=0|34=31|49=HEMAMTFRTS27QA2_PUB|52=20180625-11:19:07.602|56=TRAX|10=010|8=FIXT.1.1|9=67|35=0|34=32|49=HEMAMTFRTS27QA2_PUB|52=20180625-11:19:37.873|56=TRAX|10=024|8=FIXT.1.1|9=67|35=0|34=33|49=HEMAMTFRTS27QA2_PUB|52=20180625-11:20:08.587|56=TRAX|10=017|8=FIXT.1.1|9=67|35=0|34=34|49=HEMAMTFRTS27QA2_PUB|52=20180625-11:20:38.589|56=TRAX|10=023|8=FIXT.1.1|9=67|35=0|34=35|49=HEMAMTFRTS27QA2_PUB|52=20180625-11:21:09.586|56=TRAX|10=020|8=FIXT.1.1|9=67|35=0|34=36|49=HEMAMTFRTS27QA2_PUB|52=20180625-11:21:39.590|56=TRAX|10=019|8=FIXT.1.1|9=67|35=0|34=37|49=HEMAMTFRTS27QA2_PUB|52=20180625-11:22:09.593|56=TRAX|10=021|8=FIXT.1.1|9=67|35=0|34=38|49=HEMAMTFRTS27QA2_PUB|52=20180625-11:22:40.598|56=TRAX|10=022|8=FIXT.1.1|9=67|35=0|34=39|49=HEMAMTFRTS27QA2_PUB|52=20180625-11:23:11.585|56=TRAX|10=018|8=FIXT.1.1|9=67|35=0|34=40|49=HEMAMTFRTS27QA2_PUB|52=20180625-11:23:41.585|56=TRAX|10=013|8=FIXT.1.1|9=67|35=0|34=41|49=HEMAMTFRTS27QA2_PUB|52=20180625-11:24:11.585|56=TRAX|10=012|8=FIXT.1.1|9=67|35=0|34=42|49=HEMAMTFRTS27QA2_PUB|52=20180625-11:24:41.586|56=TRAX|10=017|8=FIXT.1.1|9=67|35=0|34=43|49=HEMAMTFRTS27QA2_PUB|52=20180625-11:25:11.594|56=TRAX|10=015|8=FIXT.1.1|9=67|35=0|34=44|49=HEMAMTFRTS27QA2_PUB|52=20180625-11:25:42.585|56=TRAX|10=020|8=FIXT.1.1|9=67|35=0|34=45|49=HEMAMTFRTS27QA2_PUB|52=20180625-11:26:12.586|56=TRAX|10=020|8=FIXT.1.1|9=67|35=0|34=46|49=HEMAMTFRTS27QA2_PUB|52=20180625-11:26:42.599|56=TRAX|10=028|8=FIXT.1.1|9=67|35=0|34=47|49=HEMAMTFRTS27QA2_PUB|52=20180625-11:27:13.599|56=TRAX|10=028|8=FIXT.1.1|9=67|35=0|34=48|49=HEMAMTFRTS27QA2_PUB|52=20180625-11:27:44.594|56=TRAX|10=028|8=FIXT.1.1|9=67|35=0|34=49|49=HEMAMTFRTS27QA2_PUB|52=20180625-11:28:15.588|56=TRAX|10=031|8=FIXT.1.1|9=67|35=0|34=50|49=HEMAMTFRTS27QA2_PUB|52=20180625-11:28:46.585|56=TRAX|10=024|8=FIXT.1.1|9=67|35=0|34=51|49=HEMAMTFRTS27QA2_PUB|52=20180625-11:29:16.585|56=TRAX|10=023|8=FIXT.1.1|9=67|35=0|34=52|49=HEMAMTFRTS27QA2_PUB|52=20180625-11:29:46.593|56=TRAX|10=026|8=FIXT.1.1|9=67|35=0|34=53|49=HEMAMTFRTS27QA2_PUB|52=20180625-11:30:17.592|56=TRAX|10=016|8=FIXT.1.1|9=67|35=0|34=54|49=HEMAMTFRTS27QA2_PUB|52=20180625-11:30:47.592|56=TRAX|10=020|8=FIXT.1.1|9=67|35=0|34=55|49=HEMAMTFRTS27QA2_PUB|52=20180625-11:31:17.593|56=TRAX|10=020|8=FIXT.1.1|9=67|35=0|34=56|49=HEMAMTFRTS27QA2_PUB|52=20180625-11:31:48.596|56=TRAX|10=028|8=FIXT.1.1|9=67|35=0|34=57|49=HEMAMTFRTS27QA2_PUB|52=20180625-11:32:18.598|56=TRAX|10=029|8=FIXT.1.1|9=67|35=0|34=58|49=HEMAMTFRTS27QA2_PUB|52=20180625-11:32:49.590|56=TRAX|10=026|8=FIXT.1.1|9=67|35=0|34=59|49=HEMAMTFRTS27QA2_PUB|52=20180625-11:33:19.598|56=TRAX|10=033|8=FIXT.1.1|9=67|35=0|34=60|49=HEMAMTFRTS27QA2_PUB|52=20180625-11:33:50.583|56=TRAX|10=014|8=FIXT.1.1|9=67|35=0|34=61|49=HEMAMTFRTS27QA2_PUB|52=20180625-11:34:20.593|56=TRAX|10=014|8=FIXT.1.1|9=67|35=0|34=62|49=HEMAMTFRTS27QA2_PUB|52=20180625-11:34:51.597|56=TRAX|10=023|8=FIXT.1.1|9=67|35=0|34=63|49=HEMAMTFRTS27QA2_PUB|52=20180625-11:35:22.590|56=TRAX|10=016|8=FIXT.1.1|9=67|35=0|34=64|49=HEMAMTFRTS27QA2_PUB|52=20180625-11:35:52.590|56=TRAX|10=020|8=FIXT.1.1|9=67|35=0|34=65|49=HEMAMTFRTS27QA2_PUB|52=20180625-11:36:23.593|56=TRAX|10=023|8=FIXT.1.1|9=67|35=0|34=66|49=HEMAMTFRTS27QA2_PUB|52=20180625-11:36:54.589|56=TRAX|10=033|8=FIXT.1.1|9=67|35=0|34=67|49=HEMAMTFRTS27QA2_PUB|52=20180625-11:37:24.596|56=TRAX|10=030|8=FIXT.1.1|9=67|35=0|34=68|49=HEMAMTFRTS27QA2_PUB|52=20180625-11:37:55.582|56=TRAX|10=030|8=FIXT.1.1|9=67|35=0|34=69|49=HEMAMTFRTS27QA2_PUB|52=20180625-11:38:25.588|56=TRAX|10=035|8=FIXT.1.1|9=67|35=0|34=70|49=HEMAMTFRTS27QA2_PUB|52=20180625-11:38:55.589|56=TRAX|10=031|8=FIXT.1.1|9=67|35=0|34=71|49=HEMAMTFRTS27QA2_PUB|52=20180625-11:39:26.588|56=TRAX|10=030|8=FIXT.1.1|9=67|35=0|34=72|49=HEMAMTFRTS27QA2_PUB|52=20180625-11:39:56.588|56=TRAX|10=034|8=FIXT.1.1|9=67|35=0|34=73|49=HEMAMTFRTS27QA2_PUB|52=20180625-11:40:26.588|56=TRAX|10=024|8=FIXT.1.1|9=67|35=0|34=74|49=HEMAMTFRTS27QA2_PUB|52=20180625-11:40:57.588|56=TRAX|10=029|8=FIXT.1.1|9=67|35=0|34=75|49=HEMAMTFRTS27QA2_PUB|52=20180625-11:41:28.587|56=TRAX|10=028|8=FIXT.1.1|9=67|35=0|34=76|49=HEMAMTFRTS27QA2_PUB|52=20180625-11:41:58.589|56=TRAX|10=034|8=FIXT.1.1|9=67|35=0|34=77|49=HEMAMTFRTS27QA2_PUB|52=20180625-11:42:28.594|56=TRAX|10=029|8=FIXT.1.1|9=67|35=0|34=78|49=HEMAMTFRTS27QA2_PUB|52=20180625-11:42:59.592|56=TRAX|10=032|8=FIXT.1.1|9=67|35=0|34=79|49=HEMAMTFRTS27QA2_PUB|52=20180625-11:43:30.588|56=TRAX|10=028|8=FIXT.1.1|9=67|35=0|34=80|49=HEMAMTFRTS27QA2_PUB|52=20180625-11:44:00.594|56=TRAX|10=015|8=FIXT.1.1|9=67|35=0|34=81|49=HEMAMTFRTS27QA2_PUB|52=20180625-11:44:31.592|56=TRAX|10=018|8=FIXT.1.1|9=67|35=0|34=82|49=HEMAMTFRTS27QA2_PUB|52=20180625-11:45:02.591|56=TRAX|10=017|8=FIXT.1.1|9=67|35=0|34=83|49=HEMAMTFRTS27QA2_PUB|52=20180625-11:45:33.584|56=TRAX|10=024|8=FIXT.1.1|9=67|35=0|34=84|49=HEMAMTFRTS27QA2_PUB|52=20180625-11:46:04.594|56=TRAX|10=025|8=FIXT.1.1|9=67|35=0|34=85|49=HEMAMTFRTS27QA2_PUB|52=20180625-11:46:35.588|56=TRAX|10=033|8=FIXT.1.1|9=67|35=0|34=86|49=HEMAMTFRTS27QA2_PUB|52=20180625-11:47:06.590|56=TRAX|10=026|8=FIXT.1.1|9=67|35=0|34=87|49=HEMAMTFRTS27QA2_PUB|52=20180625-11:47:37.585|56=TRAX|10=035|8=FIXT.1.1|9=67|35=0|34=88|49=HEMAMTFRTS27QA2_PUB|52=20180625-11:48:07.593|56=TRAX|10=033|8=FIXT.1.1|9=67|35=0|34=89|49=HEMAMTFRTS27QA2_PUB|52=20180625-11:48:37.866|56=TRAX|10=040|8=FIXT.1.1|9=67|35=0|34=90|49=HEMAMTFRTS27QA2_PUB|52=20180625-11:49:07.867|56=TRAX|10=031|8=FIXT.1.1|9=67|35=0|34=91|49=HEMAMTFRTS27QA2_PUB|52=20180625-11:49:38.581|56=TRAX|10=029|8=FIXT.1.1|9=67|35=0|34=92|49=HEMAMTFRTS27QA2_PUB|52=20180625-11:50:09.584|56=TRAX|10=023|8=FIXT.1.1|9=67|35=0|34=93|49=HEMAMTFRTS27QA2_PUB|52=20180625-11:50:39.585|56=TRAX|10=028|8=FIXT.1.1|9=67|35=0|34=94|49=HEMAMTFRTS27QA2_PUB|52=20180625-11:51:10.590|56=TRAX|10=015|8=FIXT.1.1|9=67|35=0|34=95|49=HEMAMTFRTS27QA2_PUB|52=20180625-11:51:41.578|56=TRAX|10=026|8=FIXT.1.1|9=67|35=0|34=96|49=HEMAMTFRTS27QA2_PUB|52=20180625-11:52:11.578|56=TRAX|10=025|8=FIXT.1.1|9=67|35=0|34=97|49=HEMAMTFRTS27QA2_PUB|52=20180625-11:52:41.584|56=TRAX|10=026|8=FIXT.1.1|9=67|35=0|34=98|49=HEMAMTFRTS27QA2_PUB|52=20180625-11:53:12.588|56=TRAX|10=030|8=FIXT.1.1|9=67|35=0|34=99|49=HEMAMTFRTS27QA2_PUB|52=20180625-11:53:43.585|56=TRAX|10=032|8=FIXT.1.1|9=68|35=0|34=100|49=HEMAMTFRTS27QA2_PUB|52=20180625-11:54:14.589|56=TRAX|10=067|8=FIXT.1.1|9=68|35=0|34=101|49=HEMAMTFRTS27QA2_PUB|52=20180625-11:54:45.583|56=TRAX|10=066|8=FIXT.1.1|9=68|35=0|34=102|49=HEMAMTFRTS27QA2_PUB|52=20180625-11:55:15.583|56=TRAX|10=065|8=FIXT.1.1|9=68|35=0|34=103|49=HEMAMTFRTS27QA2_PUB|52=20180625-11:55:45.583|56=TRAX|10=069|8=FIXT.1.1|9=68|35=0|34=104|49=HEMAMTFRTS27QA2_PUB|52=20180625-11:56:15.585|56=TRAX|10=070|8=FIXT.1.1|9=68|35=0|34=105|49=HEMAMTFRTS27QA2_PUB|52=20180625-11:56:46.582|56=TRAX|10=072|8=FIXT.1.1|9=68|35=0|34=106|49=HEMAMTFRTS27QA2_PUB|52=20180625-11:57:17.581|56=TRAX|10=071|8=FIXT.1.1|9=68|35=0|34=107|49=HEMAMTFRTS27QA2_PUB|52=20180625-11:57:47.587|56=TRAX|10=081|8=FIXT.1.1|9=68|35=0|34=108|49=HEMAMTFRTS27QA2_PUB|52=20180625-11:58:18.582|56=TRAX|10=076|8=FIXT.1.1|9=68|35=0|34=109|49=HEMAMTFRTS27QA2_PUB|52=20180625-11:58:49.583|56=TRAX|10=082|8=FIXT.1.1|9=68|35=0|34=110|49=HEMAMTFRTS27QA2_PUB|52=20180625-11:59:19.585|56=TRAX|10=074|8=FIXT.1.1|9=68|35=0|34=111|49=HEMAMTFRTS27QA2_PUB|52=20180625-11:59:50.578|56=TRAX|10=072|8=FIXT.1.1|9=68|35=0|34=112|49=HEMAMTFRTS27QA2_PUB|52=20180625-12:00:20.584|56=TRAX|10=054|8=FIXT.1.1|9=68|35=0|34=113|49=HEMAMTFRTS27QA2_PUB|52=20180625-12:00:51.583|56=TRAX|10=058|8=FIXT.1.1|9=68|35=0|34=114|49=HEMAMTFRTS27QA2_PUB|52=20180625-12:01:22.587|56=TRAX|10=062|8=FIXT.1.1|9=68|35=0|34=115|49=HEMAMTFRTS27QA2_PUB|52=20180625-12:01:52.587|56=TRAX|10=066|8=FIXT.1.1|9=68|35=0|34=116|49=HEMAMTFRTS27QA2_PUB|52=20180625-12:02:22.587|56=TRAX|10=065|8=FIXT.1.1|9=68|35=0|34=117|49=HEMAMTFRTS27QA2_PUB|52=20180625-12:02:53.582|56=TRAX|10=065|8=FIXT.1.1|9=68|35=0|34=118|49=HEMAMTFRTS27QA2_PUB|52=20180625-12:03:23.587|56=TRAX|10=069|8=FIXT.1.1|9=68|35=0|34=119|49=HEMAMTFRTS27QA2_PUB|52=20180625-12:03:54.585|56=TRAX|10=072|8=FIXT.1.1|9=68|35=0|34=120|49=HEMAMTFRTS27QA2_PUB|52=20180625-12:04:25.579|56=TRAX|10=066|8=FIXT.1.1|9=68|35=0|34=121|49=HEMAMTFRTS27QA2_PUB|52=20180625-12:04:55.579|56=TRAX|10=070|8=FIXT.1.1|9=68|35=0|34=122|49=HEMAMTFRTS27QA2_PUB|52=20180625-12:05:25.579|56=TRAX|10=069|8=FIXT.1.1|9=68|35=0|34=123|49=HEMAMTFRTS27QA2_PUB|52=20180625-12:05:56.585|56=TRAX|10=071|8=FIXT.1.1|9=68|35=0|34=124|49=HEMAMTFRTS27QA2_PUB|52=20180625-12:06:27.584|56=TRAX|10=070|8=FIXT.1.1|9=68|35=0|34=125|49=HEMAMTFRTS27QA2_PUB|52=20180625-12:06:58.576|56=TRAX|10=076|8=FIXT.1.1|9=68|35=0|34=126|49=HEMAMTFRTS27QA2_PUB|52=20180625-12:07:28.584|56=TRAX|10=074|8=FIXT.1.1|9=68|35=0|34=127|49=HEMAMTFRTS27QA2_PUB|52=20180625-12:07:59.584|56=TRAX|10=079|8=FIXT.1.1|9=68|35=0|34=128|49=HEMAMTFRTS27QA2_PUB|52=20180625-12:08:30.573|56=TRAX|10=068|8=FIXT.1.1|9=68|35=0|34=129|49=HEMAMTFRTS27QA2_PUB|52=20180625-12:09:00.581|56=TRAX|10=066|8=FIXT.1.1|9=68|35=0|34=130|49=HEMAMTFRTS27QA2_PUB|52=20180625-12:09:31.569|56=TRAX|10=068|8=FIXT.1.1|9=68|35=0|34=131|49=HEMAMTFRTS27QA2_PUB|52=20180625-12:10:01.577|56=TRAX|10=057|8=FIXT.1.1|9=68|35=0|34=132|49=HEMAMTFRTS27QA2_PUB|52=20180625-12:10:31.581|56=TRAX|10=056|8=FIXT.1.1|9=68|35=0|34=133|49=HEMAMTFRTS27QA2_PUB|52=20180625-12:11:02.575|56=TRAX|10=059|8=FIXT.1.1|9=68|35=0|34=134|49=HEMAMTFRTS27QA2_PUB|52=20180625-12:11:33.579|56=TRAX|10=068|8=FIXT.1.1|9=68|35=0|34=135|49=HEMAMTFRTS27QA2_PUB|52=20180625-12:12:03.583|56=TRAX|10=062|8=FIXT.1.1|9=68|35=0|34=136|49=HEMAMTFRTS27QA2_PUB|52=20180625-12:12:34.570|56=TRAX|10=063|8=FIXT.1.1|9=68|35=0|34=137|49=HEMAMTFRTS27QA2_PUB|52=20180625-12:13:04.579|56=TRAX|10=071|8=FIXT.1.1|9=68|35=0|34=138|49=HEMAMTFRTS27QA2_PUB|52=20180625-12:13:35.568|56=TRAX|10=074|8=FIXT.1.1|9=68|35=0|34=139|49=HEMAMTFRTS27QA2_PUB|52=20180625-12:14:05.576|56=TRAX|10=072|8=FIXT.1.1|9=68|35=0|34=140|49=HEMAMTFRTS27QA2_PUB|52=20180625-12:14:36.581|56=TRAX|10=064|8=FIXT.1.1|9=68|35=0|34=141|49=HEMAMTFRTS27QA2_PUB|52=20180625-12:15:07.577|56=TRAX|10=069|8=FIXT.1.1|9=68|35=0|34=142|49=HEMAMTFRTS27QA2_PUB|52=20180625-12:15:37.871|56=TRAX|10=070|8=FIXT.1.1|9=68|35=0|34=143|49=HEMAMTFRTS27QA2_PUB|52=20180625-12:16:08.578|56=TRAX|10=074|8=FIXT.1.1|9=68|35=0|34=144|49=HEMAMTFRTS27QA2_PUB|52=20180625-12:16:38.578|56=TRAX|10=078|8=FIXT.1.1|9=68|35=0|34=145|49=HEMAMTFRTS27QA2_PUB|52=20180625-12:17:08.582|56=TRAX|10=072|8=FIXT.1.1|9=68|35=0|34=146|49=HEMAMTFRTS27QA2_PUB|52=20180625-12:17:39.579|56=TRAX|10=083|8=FIXT.1.1|9=68|35=0|34=147|49=HEMAMTFRTS27QA2_PUB|52=20180625-12:18:10.575|56=TRAX|10=070|8=FIXT.1.1|9=68|35=0|34=148|49=HEMAMTFRTS27QA2_PUB|52=20180625-12:18:40.575|56=TRAX|10=074|8=FIXT.1.1|9=68|35=0|34=149|49=HEMAMTFRTS27QA2_PUB|52=20180625-12:19:11.567|56=TRAX|10=075|8=FIXT.1.1|9=68|35=0|34=150|49=HEMAMTFRTS27QA2_PUB|52=20180625-12:19:41.573|56=TRAX|10=067|8=FIXT.1.1|9=68|35=0|34=151|49=HEMAMTFRTS27QA2_PUB|52=20180625-12:20:11.580|56=TRAX|10=055|8=FIXT.1.1|9=68|35=0|34=152|49=HEMAMTFRTS27QA2_PUB|52=20180625-12:20:42.573|56=TRAX|10=062|8=FIXT.1.1|9=68|35=0|34=153|49=HEMAMTFRTS27QA2_PUB|52=20180625-12:21:13.572|56=TRAX|10=061|8=FIXT.1.1|9=68|35=0|34=154|49=HEMAMTFRTS27QA2_PUB|52=20180625-12:21:44.566|56=TRAX|10=069|8=FIXT.1.1|9=68|35=0|34=155|49=HEMAMTFRTS27QA2_PUB|52=20180625-12:22:15.569|56=TRAX|10=072|8=FIXT.1.1|9=68|35=0|34=156|49=HEMAMTFRTS27QA2_PUB|52=20180625-12:22:46.568|56=TRAX|10=076|8=FIXT.1.1|9=68|35=0|34=157|49=HEMAMTFRTS27QA2_PUB|52=20180625-12:23:16.568|56=TRAX|10=075|8=FIXT.1.1|9=68|35=0|34=158|49=HEMAMTFRTS27QA2_PUB|52=20180625-12:23:47.567|56=TRAX|10=079|8=FIXT.1.1|9=68|35=0|34=159|49=HEMAMTFRTS27QA2_PUB|52=20180625-12:24:17.568|56=TRAX|10=079|8=FIXT.1.1|9=68|35=0|34=160|49=HEMAMTFRTS27QA2_PUB|52=20180625-12:24:48.566|56=TRAX|10=073|8=FIXT.1.1|9=68|35=0|34=161|49=HEMAMTFRTS27QA2_PUB|52=20180625-12:25:18.567|56=TRAX|10=073|8=FIXT.1.1|9=68|35=0|34=162|49=HEMAMTFRTS27QA2_PUB|52=20180625-12:25:48.567|56=TRAX|10=077|8=FIXT.1.1|9=68|35=0|34=163|49=HEMAMTFRTS27QA2_PUB|52=20180625-12:26:19.566|56=TRAX|10=076|8=FIXT.1.1|9=68|35=0|34=164|49=HEMAMTFRTS27QA2_PUB|52=20180625-12:26:49.566|56=TRAX|10=080|8=FIXT.1.1|9=68|35=0|34=165|49=HEMAMTFRTS27QA2_PUB|52=20180625-12:27:19.566|56=TRAX|10=079|8=FIXT.1.1|9=68|35=0|34=166|49=HEMAMTFRTS27QA2_PUB|52=20180625-12:27:49.566|56=TRAX|10=083|8=FIXT.1.1|9=68|35=0|34=167|49=HEMAMTFRTS27QA2_PUB|52=20180625-12:28:20.566|56=TRAX|10=074|8=FIXT.1.1|9=68|35=0|34=168|49=HEMAMTFRTS27QA2_PUB|52=20180625-12:28:51.562|56=TRAX|10=075|8=FIXT.1.1|9=68|35=0|34=169|49=HEMAMTFRTS27QA2_PUB|52=20180625-12:29:21.562|56=TRAX|10=074|8=FIXT.1.1|9=68|35=0|34=170|49=HEMAMTFRTS27QA2_PUB|52=20180625-12:29:51.562|56=TRAX|10=069|8=FIXT.1.1|9=68|35=0|34=171|49=HEMAMTFRTS27QA2_PUB|52=20180625-12:30:21.565|56=TRAX|10=062|8=FIXT.1.1|9=68|35=0|34=172|49=HEMAMTFRTS27QA2_PUB|52=20180625-12:30:51.565|56=TRAX|10=066|8=FIXT.1.1|9=68|35=0|34=173|49=HEMAMTFRTS27QA2_PUB|52=20180625-12:31:22.565|56=TRAX|10=066|8=FIXT.1.1|9=68|35=0|34=174|49=HEMAMTFRTS27QA2_PUB|52=20180625-12:31:53.565|56=TRAX|10=071|8=FIXT.1.1|9=68|35=0|34=175|49=HEMAMTFRTS27QA2_PUB|52=20180625-12:32:24.563|56=TRAX|10=069|8=FIXT.1.1|9=68|35=0|34=176|49=HEMAMTFRTS27QA2_PUB|52=20180625-12:32:54.563|56=TRAX|10=073|8=FIXT.1.1|9=68|35=0|34=177|49=HEMAMTFRTS27QA2_PUB|52=20180625-12:33:25.563|56=TRAX|10=073|8=FIXT.1.1|9=68|35=0|34=178|49=HEMAMTFRTS27QA2_PUB|52=20180625-12:33:55.563|56=TRAX|10=077|8=FIXT.1.1|9=68|35=0|34=179|49=HEMAMTFRTS27QA2_PUB|52=20180625-12:34:25.580|56=TRAX|10=075|8=FIXT.1.1|9=68|35=0|34=180|49=HEMAMTFRTS27QA2_PUB|52=20180625-12:34:56.560|56=TRAX|10=069|8=FIXT.1.1|9=68|35=0|34=181|49=HEMAMTFRTS27QA2_PUB|52=20180625-12:35:26.560|56=TRAX|10=068|8=FIXT.1.1|9=68|35=0|34=182|49=HEMAMTFRTS27QA2_PUB|52=20180625-12:35:56.560|56=TRAX|10=072|8=FIXT.1.1|9=68|35=0|34=183|49=HEMAMTFRTS27QA2_PUB|52=20180625-12:36:26.560|56=TRAX|10=071|8=FIXT.1.1|9=68|35=0|34=184|49=HEMAMTFRTS27QA2_PUB|52=20180625-12:36:56.560|56=TRAX|10=075|8=FIXT.1.1|9=68|35=0|34=185|49=HEMAMTFRTS27QA2_PUB|52=20180625-12:37:26.560|56=TRAX|10=074|8=FIXT.1.1|9=68|35=0|34=186|49=HEMAMTFRTS27QA2_PUB|52=20180625-12:37:56.560|56=TRAX|10=078|8=FIXT.1.1|9=68|35=0|34=187|49=HEMAMTFRTS27QA2_PUB|52=20180625-12:38:26.560|56=TRAX|10=077|8=FIXT.1.1|9=68|35=0|34=188|49=HEMAMTFRTS27QA2_PUB|52=20180625-12:38:56.560|56=TRAX|10=081|8=FIXT.1.1|9=68|35=0|34=189|49=HEMAMTFRTS27QA2_PUB|52=20180625-12:39:26.563|56=TRAX|10=083|8=FIXT.1.1|9=68|35=0|34=190|49=HEMAMTFRTS27QA2_PUB|52=20180625-12:39:56.563|56=TRAX|10=078|8=FIXT.1.1|9=68|35=0|34=191|49=HEMAMTFRTS27QA2_PUB|52=20180625-12:40:27.560|56=TRAX|10=066|8=FIXT.1.1|9=68|35=0|34=192|49=HEMAMTFRTS27QA2_PUB|52=20180625-12:40:58.559|56=TRAX|10=079|8=FIXT.1.1|9=68|35=0|34=193|49=HEMAMTFRTS27QA2_PUB|52=20180625-12:41:28.559|56=TRAX|10=078|8=FIXT.1.1|9=68|35=0|34=194|49=HEMAMTFRTS27QA2_PUB|52=20180625-12:41:58.562|56=TRAX|10=076|8=FIXT.1.1|9=68|35=0|34=195|49=HEMAMTFRTS27QA2_PUB|52=20180625-12:42:28.562|56=TRAX|10=075|8=FIXT.1.1|9=68|35=0|34=196|49=HEMAMTFRTS27QA2_PUB|52=20180625-12:42:58.563|56=TRAX|10=080|8=FIXT.1.1|9=68|35=0|34=197|49=HEMAMTFRTS27QA2_PUB|52=20180625-12:43:29.562|56=TRAX|10=079|8=FIXT.1.1|9=68|35=0|34=198|49=HEMAMTFRTS27QA2_PUB|52=20180625-12:43:59.562|56=TRAX|10=083|8=FIXT.1.1|9=68|35=0|34=199|49=HEMAMTFRTS27QA2_PUB|52=20180625-12:44:30.561|56=TRAX|10=073|8=FIXT.1.1|9=68|35=0|34=200|49=HEMAMTFRTS27QA2_PUB|52=20180625-12:45:00.561|56=TRAX|10=054|8=FIXT.1.1|9=68|35=0|34=201|49=HEMAMTFRTS27QA2_PUB|52=20180625-12:45:31.558|56=TRAX|10=065|8=FIXT.1.1|9=68|35=0|34=202|49=HEMAMTFRTS27QA2_PUB|52=20180625-12:46:02.558|56=TRAX|10=065|8=FIXT.1.1|9=68|35=0|34=203|49=HEMAMTFRTS27QA2_PUB|52=20180625-12:46:33.557|56=TRAX|10=069|8=FIXT.1.1|9=68|35=0|34=204|49=HEMAMTFRTS27QA2_PUB|52=20180625-12:47:03.558|56=TRAX|10=069|8=FIXT.1.1|9=68|35=0|34=205|49=HEMAMTFRTS27QA2_PUB|52=20180625-12:47:34.557|56=TRAX|10=073|8=FIXT.1.1|9=68|35=0|34=206|49=HEMAMTFRTS27QA2_PUB|52=20180625-12:48:04.557|56=TRAX|10=072|8=FIXT.1.1|9=68|35=0|34=207|49=HEMAMTFRTS27QA2_PUB|52=20180625-12:48:34.557|56=TRAX|10=076|8=FIXT.1.1|9=68|35=0|34=208|49=HEMAMTFRTS27QA2_PUB|52=20180625-12:49:04.557|56=TRAX|10=075|8=FIXT.1.1|9=68|35=0|34=209|49=HEMAMTFRTS27QA2_PUB|52=20180625-12:49:35.557|56=TRAX|10=080|8=FIXT.1.1|9=68|35=0|34=210|49=HEMAMTFRTS27QA2_PUB|52=20180625-12:50:06.556|56=TRAX|10=061|8=FIXT.1.1|9=68|35=0|34=211|49=HEMAMTFRTS27QA2_PUB|52=20180625-12:50:36.556|56=TRAX|10=065|8=FIXT.1.1|9=68|35=0|34=212|49=HEMAMTFRTS27QA2_PUB|52=20180625-12:51:06.556|56=TRAX|10=064|8=FIXT.1.1|9=68|35=0|34=213|49=HEMAMTFRTS27QA2_PUB|52=20180625-12:51:37.556|56=TRAX|10=069|8=FIXT.1.1|9=68|35=0|34=214|49=HEMAMTFRTS27QA2_PUB|52=20180625-12:52:07.870|56=TRAX|10=067|8=FIXT.1.1|9=68|35=0|34=215|49=HEMAMTFRTS27QA2_PUB|52=20180625-12:52:37.871|56=TRAX|10=072|8=FIXT.1.1|9=68|35=0|34=216|49=HEMAMTFRTS27QA2_PUB|52=20180625-12:53:07.871|56=TRAX|10=071|8=FIXT.1.1|9=68|35=0|34=217|49=HEMAMTFRTS27QA2_PUB|52=20180625-12:53:38.556|56=TRAX|10=076|8=FIXT.1.1|9=68|35=0|34=218|49=HEMAMTFRTS27QA2_PUB|52=20180625-12:54:08.558|56=TRAX|10=077|8=FIXT.1.1|9=68|35=0|34=219|49=HEMAMTFRTS27QA2_PUB|52=20180625-12:54:39.559|56=TRAX|10=083|8=FIXT.1.1|9=68|35=0|34=220|49=HEMAMTFRTS27QA2_PUB|52=20180625-12:55:10.557|56=TRAX|10=063|8=FIXT.1.1|9=68|35=0|34=221|49=HEMAMTFRTS27QA2_PUB|52=20180625-12:55:41.554|56=TRAX|10=065|8=FIXT.1.1|9=68|35=0|34=222|49=HEMAMTFRTS27QA2_PUB|52=20180625-12:56:11.557|56=TRAX|10=067|8=FIXT.1.1|9=68|35=0|34=223|49=HEMAMTFRTS27QA2_PUB|52=20180625-12:56:42.557|56=TRAX|10=072|8=FIXT.1.1|9=68|35=0|34=224|49=HEMAMTFRTS27QA2_PUB|52=20180625-12:57:13.557|56=TRAX|10=072|8=FIXT.1.1|9=68|35=0|34=225|49=HEMAMTFRTS27QA2_PUB|52=20180625-12:57:44.556|56=TRAX|10=076|8=FIXT.1.1|9=68|35=0|34=226|49=HEMAMTFRTS27QA2_PUB|52=20180625-12:58:14.556|56=TRAX|10=075|8=FIXT.1.1|9=68|35=0|34=227|49=HEMAMTFRTS27QA2_PUB|52=20180625-12:58:45.556|56=TRAX|10=080|8=FIXT.1.1|9=68|35=0|34=228|49=HEMAMTFRTS27QA2_PUB|52=20180625-12:59:16.552|56=TRAX|10=076|8=FIXT.1.1|9=68|35=0|34=229|49=HEMAMTFRTS27QA2_PUB|52=20180625-12:59:46.556|56=TRAX|10=084|8=FIXT.1.1|9=68|35=0|34=230|49=HEMAMTFRTS27QA2_PUB|52=20180625-13:00:17.556|56=TRAX|10=061|8=FIXT.1.1|9=68|35=0|34=231|49=HEMAMTFRTS27QA2_PUB|52=20180625-13:00:48.555|56=TRAX|10=065|8=FIXT.1.1|9=68|35=0|34=232|49=HEMAMTFRTS27QA2_PUB|52=20180625-13:01:19.555|56=TRAX|10=065|8=FIXT.1.1|9=68|35=0|34=233|49=HEMAMTFRTS27QA2_PUB|52=20180625-13:01:50.554|56=TRAX|10=060|8=FIXT.1.1|9=68|35=0|34=234|49=HEMAMTFRTS27QA2_PUB|52=20180625-13:02:20.555|56=TRAX|10=060|8=FIXT.1.1|9=68|35=0|34=235|49=HEMAMTFRTS27QA2_PUB|52=20180625-13:02:50.555|56=TRAX|10=064|8=FIXT.1.1|9=68|35=0|34=236|49=HEMAMTFRTS27QA2_PUB|52=20180625-13:03:21.552|56=TRAX|10=061|8=FIXT.1.1|9=68|35=0|34=237|49=HEMAMTFRTS27QA2_PUB|52=20180625-13:03:52.551|56=TRAX|10=065|8=FIXT.1.1|9=68|35=0|34=238|49=HEMAMTFRTS27QA2_PUB|52=20180625-13:04:22.551|56=TRAX|10=064|8=FIXT.1.1|9=68|35=0|34=239|49=HEMAMTFRTS27QA2_PUB|52=20180625-13:04:53.551|56=TRAX|10=069|8=FIXT.1.1|9=68|35=0|34=240|49=HEMAMTFRTS27QA2_PUB|52=20180625-13:05:23.551|56=TRAX|10=059|8=FIXT.1.1|9=68|35=0|34=241|49=HEMAMTFRTS27QA2_PUB|52=20180625-13:05:53.551|56=TRAX|10=063|8=FIXT.1.1|9=68|35=0|34=242|49=HEMAMTFRTS27QA2_PUB|52=20180625-13:06:24.550|56=TRAX|10=062|8=FIXT.1.1|9=68|35=0|34=243|49=HEMAMTFRTS27QA2_PUB|52=20180625-13:06:55.551|56=TRAX|10=068|8=FIXT.1.1|9=68|35=0|34=244|49=HEMAMTFRTS27QA2_PUB|52=20180625-13:07:26.549|56=TRAX|10=075|8=FIXT.1.1|9=68|35=0|34=245|49=HEMAMTFRTS27QA2_PUB|52=20180625-13:07:56.549|56=TRAX|10=079|8=FIXT.1.1|9=68|35=0|34=246|49=HEMAMTFRTS27QA2_PUB|52=20180625-13:08:26.549|56=TRAX|10=078|8=FIXT.1.1|9=68|35=0|34=247|49=HEMAMTFRTS27QA2_PUB|52=20180625-13:08:56.549|56=TRAX|10=082|8=FIXT.1.1|9=68|35=0|34=248|49=HEMAMTFRTS27QA2_PUB|52=20180625-13:09:26.549|56=TRAX|10=081|8=FIXT.1.1|9=68|35=0|34=249|49=HEMAMTFRTS27QA2_PUB|52=20180625-13:09:57.549|56=TRAX|10=086|8=FIXT.1.1|9=68|35=0|34=250|49=HEMAMTFRTS27QA2_PUB|52=20180625-13:10:27.549|56=TRAX|10=067|8=FIXT.1.1|9=68|35=0|34=251|49=HEMAMTFRTS27QA2_PUB|52=20180625-13:10:58.548|56=TRAX|10=071|8=FIXT.1.1|9=68|35=0|34=252|49=HEMAMTFRTS27QA2_PUB|52=20180625-13:11:28.548|56=TRAX|10=070|8=FIXT.1.1|9=68|35=0|34=253|49=HEMAMTFRTS27QA2_PUB|52=20180625-13:11:58.548|56=TRAX|10=074|8=FIXT.1.1|9=68|35=0|34=254|49=HEMAMTFRTS27QA2_PUB|52=20180625-13:12:28.549|56=TRAX|10=074|8=FIXT.1.1|9=68|35=0|34=255|49=HEMAMTFRTS27QA2_PUB|52=20180625-13:12:59.547|56=TRAX|10=077|8=FIXT.1.1|9=68|35=0|34=256|49=HEMAMTFRTS27QA2_PUB|52=20180625-13:13:29.547|56=TRAX|10=076|8=FIXT.1.1|9=68|35=0|34=257|49=HEMAMTFRTS27QA2_PUB|52=20180625-13:13:59.547|56=TRAX|10=080|8=FIXT.1.1|9=68|35=0|34=258|49=HEMAMTFRTS27QA2_PUB|52=20180625-13:14:30.547|56=TRAX|10=071|8=FIXT.1.1|9=68|35=0|34=259|49=HEMAMTFRTS27QA2_PUB|52=20180625-13:15:00.548|56=TRAX|10=071|8=FIXT.1.1|9=68|35=0|34=260|49=HEMAMTFRTS27QA2_PUB|52=20180625-13:15:31.547|56=TRAX|10=066|8=FIXT.1.1|9=68|35=0|34=261|49=HEMAMTFRTS27QA2_PUB|52=20180625-13:16:01.547|56=TRAX|10=065|8=FIXT.1.1|9=68|35=0|34=262|49=HEMAMTFRTS27QA2_PUB|52=20180625-13:16:32.546|56=TRAX|10=069|8=FIXT.1.1|9=68|35=0|34=263|49=HEMAMTFRTS27QA2_PUB|52=20180625-13:17:02.547|56=TRAX|10=069|8=FIXT.1.1|9=68|35=0|34=264|49=HEMAMTFRTS27QA2_PUB|52=20180625-13:17:33.545|56=TRAX|10=072|8=FIXT.1.1|9=68|35=0|34=265|49=HEMAMTFRTS27QA2_PUB|52=20180625-13:18:03.546|56=TRAX|10=072|8=FIXT.1.1|9=68|35=0|34=266|49=HEMAMTFRTS27QA2_PUB|52=20180625-13:18:33.546|56=TRAX|10=076|8=FIXT.1.1|9=68|35=0|34=267|49=HEMAMTFRTS27QA2_PUB|52=20180625-13:19:04.545|56=TRAX|10=075|8=FIXT.1.1|9=68|35=0|34=268|49=HEMAMTFRTS27QA2_PUB|52=20180625-13:19:34.545|56=TRAX|10=079|8=FIXT.1.1|9=68|35=0|34=269|49=HEMAMTFRTS27QA2_PUB|52=20180625-13:20:05.546|56=TRAX|10=071|8=FIXT.1.1|9=68|35=0|34=270|49=HEMAMTFRTS27QA2_PUB|52=20180625-13:20:36.545|56=TRAX|10=066|8=FIXT.1.1|9=68|35=0|34=271|49=HEMAMTFRTS27QA2_PUB|52=20180625-13:21:06.545|56=TRAX|10=065|8=FIXT.1.1|9=68|35=0|34=272|49=HEMAMTFRTS27QA2_PUB|52=20180625-13:21:37.544|56=TRAX|10=069|8=FIXT.1.1|9=68|35=0|34=273|49=HEMAMTFRTS27QA2_PUB|52=20180625-13:22:07.544|56=TRAX|10=068|8=FIXT.1.1|9=68|35=0|34=274|49=HEMAMTFRTS27QA2_PUB|52=20180625-13:22:38.543|56=TRAX|10=072|8=FIXT.1.1|9=68|35=0|34=275|49=HEMAMTFRTS27QA2_PUB|52=20180625-13:23:08.543|56=TRAX|10=071|8=FIXT.1.1|9=68|35=0|34=276|49=HEMAMTFRTS27QA2_PUB|52=20180625-13:23:38.543|56=TRAX|10=075|8=FIXT.1.1|9=68|35=0|34=277|49=HEMAMTFRTS27QA2_PUB|52=20180625-13:24:08.543|56=TRAX|10=074|8=FIXT.1.1|9=68|35=0|34=278|49=HEMAMTFRTS27QA2_PUB|52=20180625-13:24:38.543|56=TRAX|10=078|8=FIXT.1.1|9=68|35=0|34=279|49=HEMAMTFRTS27QA2_PUB|52=20180625-13:25:09.544|56=TRAX|10=079|8=FIXT.1.1|9=68|35=0|34=280|49=HEMAMTFRTS27QA2_PUB|52=20180625-13:25:40.542|56=TRAX|10=064|8=FIXT.1.1|9=68|35=0|34=281|49=HEMAMTFRTS27QA2_PUB|52=20180625-13:26:10.543|56=TRAX|10=064|8=FIXT.1.1|9=68|35=0|34=282|49=HEMAMTFRTS27QA2_PUB|52=20180625-13:26:41.312|56=TRAX|10=063|8=FIXT.1.1|9=68|35=0|34=283|49=HEMAMTFRTS27QA2_PUB|52=20180625-13:27:11.542|56=TRAX|10=067|8=FIXT.1.1|9=68|35=0|34=284|49=HEMAMTFRTS27QA2_PUB|52=20180625-13:27:42.542|56=TRAX|10=072|8=FIXT.1.1|9=68|35=0|34=285|49=HEMAMTFRTS27QA2_PUB|52=20180625-13:28:12.542|56=TRAX|10=071|8=FIXT.1.1|9=68|35=0|34=286|49=HEMAMTFRTS27QA2_PUB|52=20180625-13:28:43.541|56=TRAX|10=075|8=FIXT.1.1|9=68|35=0|34=287|49=HEMAMTFRTS27QA2_PUB|52=20180625-13:29:13.541|56=TRAX|10=074|8=FIXT.1.1|9=68|35=0|34=288|49=HEMAMTFRTS27QA2_PUB|52=20180625-13:29:43.541|56=TRAX|10=078|8=FIXT.1.1|9=68|35=0|34=289|49=HEMAMTFRTS27QA2_PUB|52=20180625-13:30:13.541|56=TRAX|10=068|8=FIXT.1.1|9=68|35=0|34=290|49=HEMAMTFRTS27QA2_PUB|52=20180625-13:30:43.541|56=TRAX|10=063|8=FIXT.1.1|9=68|35=0|34=291|49=HEMAMTFRTS27QA2_PUB|52=20180625-13:31:14.540|56=TRAX|10=062|8=FIXT.1.1|9=68|35=0|34=292|49=HEMAMTFRTS27QA2_PUB|52=20180625-13:31:44.540|56=TRAX|10=066|8=FIXT.1.1|9=68|35=0|34=293|49=HEMAMTFRTS27QA2_PUB|52=20180625-13:32:14.540|56=TRAX|10=065|8=FIXT.1.1|9=68|35=0|34=294|49=HEMAMTFRTS27QA2_PUB|52=20180625-13:32:44.540|56=TRAX|10=069|8=FIXT.1.1|9=68|35=0|34=295|49=HEMAMTFRTS27QA2_PUB|52=20180625-13:33:14.540|56=TRAX|10=068|8=FIXT.1.1|9=68|35=0|34=296|49=HEMAMTFRTS27QA2_PUB|52=20180625-13:33:45.540|56=TRAX|10=073|8=FIXT.1.1|9=68|35=0|34=297|49=HEMAMTFRTS27QA2_PUB|52=20180625-13:34:16.539|56=TRAX|10=081|8=FIXT.1.1|9=68|35=0|34=298|49=HEMAMTFRTS27QA2_PUB|52=20180625-13:34:46.539|56=TRAX|10=085|8=FIXT.1.1|9=68|35=0|34=299|49=HEMAMTFRTS27QA2_PUB|52=20180625-13:35:16.539|56=TRAX|10=084|8=FIXT.1.1|9=68|35=0|34=300|49=HEMAMTFRTS27QA2_PUB|52=20180625-13:35:46.539|56=TRAX|10=070|8=FIXT.1.1|9=68|35=0|34=301|49=HEMAMTFRTS27QA2_PUB|52=20180625-13:36:16.540|56=TRAX|10=061|8=FIXT.1.1|9=68|35=0|34=302|49=HEMAMTFRTS27QA2_PUB|52=20180625-13:36:47.539|56=TRAX|10=074|8=FIXT.1.1|9=68|35=0|34=303|49=HEMAMTFRTS27QA2_PUB|52=20180625-13:37:17.874|56=TRAX|10=075|8=FIXT.1.1|9=68|35=0|34=304|49=HEMAMTFRTS27QA2_PUB|52=20180625-13:37:47.880|56=TRAX|10=076|8=FIXT.1.1|9=68|35=0|34=305|49=HEMAMTFRTS27QA2_PUB|52=20180625-13:38:18.538|56=TRAX|10=076|8=FIXT.1.1|9=68|35=0|34=306|49=HEMAMTFRTS27QA2_PUB|52=20180625-13:38:48.538|56=TRAX|10=080|8=FIXT.1.1|9=68|35=0|34=307|49=HEMAMTFRTS27QA2_PUB|52=20180625-13:39:19.537|56=TRAX|10=079|8=FIXT.1.1|9=68|35=0|34=308|49=HEMAMTFRTS27QA2_PUB|52=20180625-13:39:49.537|56=TRAX|10=083|8=FIXT.1.1|9=68|35=0|34=309|49=HEMAMTFRTS27QA2_PUB|52=20180625-13:40:19.538|56=TRAX|10=074|8=FIXT.1.1|9=68|35=0|34=310|49=HEMAMTFRTS27QA2_PUB|52=20180625-13:40:50.537|56=TRAX|10=060|8=FIXT.1.1|9=68|35=0|34=311|49=HEMAMTFRTS27QA2_PUB|52=20180625-13:41:20.537|56=TRAX|10=059|8=FIXT.1.1|9=68|35=0|34=312|49=HEMAMTFRTS27QA2_PUB|52=20180625-13:41:50.538|56=TRAX|10=064|8=FIXT.1.1|9=68|35=0|34=313|49=HEMAMTFRTS27QA2_PUB|52=20180625-13:42:21.537|56=TRAX|10=063|8=FIXT.1.1|9=68|35=0|34=314|49=HEMAMTFRTS27QA2_PUB|52=20180625-13:42:51.538|56=TRAX|10=068|8=FIXT.1.1|9=68|35=0|34=315|49=HEMAMTFRTS27QA2_PUB|52=20180625-13:43:22.537|56=TRAX|10=067|8=FIXT.1.1|9=68|35=0|34=316|49=HEMAMTFRTS27QA2_PUB|52=20180625-13:43:52.537|56=TRAX|10=071|8=FIXT.1.1|9=68|35=0|34=317|49=HEMAMTFRTS27QA2_PUB|52=20180625-13:44:22.537|56=TRAX|10=070|8=FIXT.1.1|9=68|35=0|34=318|49=HEMAMTFRTS27QA2_PUB|52=20180625-13:44:52.537|56=TRAX|10=074|8=FIXT.1.1|9=68|35=0|34=319|49=HEMAMTFRTS27QA2_PUB|52=20180625-13:45:22.537|56=TRAX|10=073|8=FIXT.1.1|9=68|35=0|34=320|49=HEMAMTFRTS27QA2_PUB|52=20180625-13:45:52.537|56=TRAX|10=068|8=FIXT.1.1|9=68|35=0|34=321|49=HEMAMTFRTS27QA2_PUB|52=20180625-13:46:22.537|56=TRAX|10=067|8=FIXT.1.1|9=68|35=0|34=322|49=HEMAMTFRTS27QA2_PUB|52=20180625-13:46:53.536|56=TRAX|10=071|8=FIXT.1.1|9=68|35=0|34=323|49=HEMAMTFRTS27QA2_PUB|52=20180625-13:47:23.536|56=TRAX|10=070|8=FIXT.1.1|9=68|35=0|34=324|49=HEMAMTFRTS27QA2_PUB|52=20180625-13:47:53.536|56=TRAX|10=074|8=FIXT.1.1|9=68|35=0|34=325|49=HEMAMTFRTS27QA2_PUB|52=20180625-13:48:23.536|56=TRAX|10=073|8=FIXT.1.1|9=68|35=0|34=326|49=HEMAMTFRTS27QA2_PUB|52=20180625-13:48:53.536|56=TRAX|10=077|8=FIXT.1.1|9=68|35=0|34=327|49=HEMAMTFRTS27QA2_PUB|52=20180625-13:49:24.536|56=TRAX|10=077|8=FIXT.1.1|9=68|35=0|34=328|49=HEMAMTFRTS27QA2_PUB|52=20180625-13:49:55.535|56=TRAX|10=081|8=FIXT.1.1|9=68|35=0|34=329|49=HEMAMTFRTS27QA2_PUB|52=20180625-13:50:25.535|56=TRAX|10=071|8=FIXT.1.1|9=68|35=0|34=330|49=HEMAMTFRTS27QA2_PUB|52=20180625-13:50:55.535|56=TRAX|10=066|8=FIXT.1.1|9=68|35=0|34=331|49=HEMAMTFRTS27QA2_PUB|52=20180625-13:51:26.535|56=TRAX|10=066|8=FIXT.1.1|9=68|35=0|34=332|49=HEMAMTFRTS27QA2_PUB|52=20180625-13:51:57.534|56=TRAX|10=070|8=FIXT.1.1|9=68|35=0|34=333|49=HEMAMTFRTS27QA2_PUB|52=20180625-13:52:27.535|56=TRAX|10=070|8=FIXT.1.1|9=68|35=0|34=334|49=HEMAMTFRTS27QA2_PUB|52=20180625-13:52:58.534|56=TRAX|10=074|8=FIXT.1.1|9=68|35=0|34=335|49=HEMAMTFRTS27QA2_PUB|52=20180625-13:53:29.534|56=TRAX|10=074|8=FIXT.1.1|9=68|35=0|34=336|49=HEMAMTFRTS27QA2_PUB|52=20180625-13:53:59.535|56=TRAX|10=079|8=FIXT.1.1|9=68|35=0|34=337|49=HEMAMTFRTS27QA2_PUB|52=20180625-13:54:30.533|56=TRAX|10=068|8=FIXT.1.1|9=68|35=0|34=338|49=HEMAMTFRTS27QA2_PUB|52=20180625-13:55:00.533|56=TRAX|10=067|8=FIXT.1.1|9=68|35=0|34=339|49=HEMAMTFRTS27QA2_PUB|52=20180625-13:55:30.533|56=TRAX|10=071|8=FIXT.1.1|9=68|35=0|34=340|49=HEMAMTFRTS27QA2_PUB|52=20180625-13:56:00.533|56=TRAX|10=061|8=FIXT.1.1|9=68|35=0|34=341|49=HEMAMTFRTS27QA2_PUB|52=20180625-13:56:30.533|56=TRAX|10=065|8=FIXT.1.1|9=68|35=0|34=342|49=HEMAMTFRTS27QA2_PUB|52=20180625-13:57:00.534|56=TRAX|10=065|8=FIXT.1.1|9=68|35=0|34=343|49=HEMAMTFRTS27QA2_PUB|52=20180625-13:57:31.533|56=TRAX|10=069|8=FIXT.1.1|9=68|35=0|34=344|49=HEMAMTFRTS27QA2_PUB|52=20180625-13:58:01.533|56=TRAX|10=068|8=FIXT.1.1|9=68|35=0|34=345|49=HEMAMTFRTS27QA2_PUB|52=20180625-13:58:31.535|56=TRAX|10=074|8=FIXT.1.1|9=68|35=0|34=346|49=HEMAMTFRTS27QA2_PUB|52=20180625-13:59:01.535|56=TRAX|10=073|8=FIXT.1.1|9=68|35=0|34=347|49=HEMAMTFRTS27QA2_PUB|52=20180625-13:59:32.533|56=TRAX|10=076|8=FIXT.1.1|9=68|35=0|34=348|49=HEMAMTFRTS27QA2_PUB|52=20180625-14:00:02.536|56=TRAX|10=064|8=FIXT.1.1|9=68|35=0|34=349|49=HEMAMTFRTS27QA2_PUB|52=20180625-14:00:33.531|56=TRAX|10=064|8=FIXT.1.1|9=68|35=0|34=350|49=HEMAMTFRTS27QA2_PUB|52=20180625-14:01:03.540|56=TRAX|10=054|8=FIXT.1.1|9=68|35=0|34=351|49=HEMAMTFRTS27QA2_PUB|52=20180625-14:01:34.530|56=TRAX|10=058|8=FIXT.1.1|9=68|35=0|34=352|49=HEMAMTFRTS27QA2_PUB|52=20180625-14:02:04.532|56=TRAX|10=059|8=FIXT.1.1|9=68|35=0|34=353|49=HEMAMTFRTS27QA2_PUB|52=20180625-14:02:34.540|56=TRAX|10=062|8=FIXT.1.1|9=68|35=0|34=354|49=HEMAMTFRTS27QA2_PUB|52=20180625-14:03:05.534|56=TRAX|10=065|8=FIXT.1.1|9=68|35=0|34=355|49=HEMAMTFRTS27QA2_PUB|52=20180625-14:03:36.532|56=TRAX|10=068|8=FIXT.1.1|9=68|35=0|34=356|49=HEMAMTFRTS27QA2_PUB|52=20180625-14:04:06.538|56=TRAX|10=073|8=FIXT.1.1|9=68|35=0|34=357|49=HEMAMTFRTS27QA2_PUB|52=20180625-14:04:36.538|56=TRAX|10=077|8=FIXT.1.1|9=68|35=0|34=358|49=HEMAMTFRTS27QA2_PUB|52=20180625-14:05:07.530|56=TRAX|10=069|8=FIXT.1.1|9=68|35=0|34=359|49=HEMAMTFRTS27QA2_PUB|52=20180625-14:05:38.533|56=TRAX|10=077|8=FIXT.1.1|9=68|35=0|34=360|49=HEMAMTFRTS27QA2_PUB|52=20180625-14:06:09.536|56=TRAX|10=071|8=FIXT.1.1|9=68|35=0|34=361|49=HEMAMTFRTS27QA2_PUB|52=20180625-14:06:40.529|56=TRAX|10=069|8=FIXT.1.1|9=68|35=0|34=362|49=HEMAMTFRTS27QA2_PUB|52=20180625-14:07:10.538|56=TRAX|10=068|8=FIXT.1.1|9=68|35=0|34=363|49=HEMAMTFRTS27QA2_PUB|52=20180625-14:07:41.539|56=TRAX|10=074|8=FIXT.1.1|9=68|35=0|34=364|49=HEMAMTFRTS27QA2_PUB|52=20180625-14:08:11.541|56=TRAX|10=066|8=FIXT.1.1|9=68|35=0|34=365|49=HEMAMTFRTS27QA2_PUB|52=20180625-14:08:42.528|56=TRAX|10=076|8=FIXT.1.1|9=68|35=0|34=366|49=HEMAMTFRTS27QA2_PUB|52=20180625-14:09:12.533|56=TRAX|10=071|8=FIXT.1.1|9=68|35=0|34=367|49=HEMAMTFRTS27QA2_PUB|52=20180625-14:09:43.528|56=TRAX|10=080|8=FIXT.1.1|9=68|35=0|34=368|49=HEMAMTFRTS27QA2_PUB|52=20180625-14:10:13.535|56=TRAX|10=068|8=FIXT.1.1|9=68|35=0|34=369|49=HEMAMTFRTS27QA2_PUB|52=20180625-14:10:44.538|56=TRAX|10=076|8=FIXT.1.1|9=68|35=0|34=370|49=HEMAMTFRTS27QA2_PUB|52=20180625-14:11:15.539|56=TRAX|10=068|8=FIXT.1.1|9=68|35=0|34=371|49=HEMAMTFRTS27QA2_PUB|52=20180625-14:11:46.527|56=TRAX|10=070|8=FIXT.1.1|9=68|35=0|34=372|49=HEMAMTFRTS27QA2_PUB|52=20180625-14:12:16.527|56=TRAX|10=069|8=FIXT.1.1|9=68|35=0|34=373|49=HEMAMTFRTS27QA2_PUB|52=20180625-14:12:46.527|56=TRAX|10=073|8=FIXT.1.1|9=68|35=0|34=374|49=HEMAMTFRTS27QA2_PUB|52=20180625-14:13:16.527|56=TRAX|10=072|8=FIXT.1.1|9=68|35=0|34=375|49=HEMAMTFRTS27QA2_PUB|52=20180625-14:13:47.449|56=TRAX|10=080|8=FIXT.1.1|9=68|35=0|34=376|49=HEMAMTFRTS27QA2_PUB|52=20180625-14:14:17.527|56=TRAX|10=076|8=FIXT.1.1|9=68|35=0|34=377|49=HEMAMTFRTS27QA2_PUB|52=20180625-14:14:47.540|56=TRAX|10=075|8=FIXT.1.1|9=68|35=0|34=378|49=HEMAMTFRTS27QA2_PUB|52=20180625-14:15:18.526|56=TRAX|10=079|8=FIXT.1.1|9=68|35=0|34=379|49=HEMAMTFRTS27QA2_PUB|52=20180625-14:15:49.532|56=TRAX|10=081|8=FIXT.1.1|9=68|35=0|34=380|49=HEMAMTFRTS27QA2_PUB|52=20180625-14:16:20.529|56=TRAX|10=069|8=FIXT.1.1|9=68|35=0|34=381|49=HEMAMTFRTS27QA2_PUB|52=20180625-14:16:50.531|56=TRAX|10=066|8=FIXT.1.1|9=68|35=0|34=382|49=HEMAMTFRTS27QA2_PUB|52=20180625-14:17:20.538|56=TRAX|10=072|8=FIXT.1.1|9=68|35=0|34=383|49=HEMAMTFRTS27QA2_PUB|52=20180625-14:17:50.539|56=TRAX|10=077|8=FIXT.1.1|9=68|35=0|34=384|49=HEMAMTFRTS27QA2_PUB|52=20180625-14:18:21.525|56=TRAX|10=072|8=FIXT.1.1|9=68|35=0|34=385|49=HEMAMTFRTS27QA2_PUB|52=20180625-14:18:51.529|56=TRAX|10=080|8=FIXT.1.1|9=68|35=0|34=386|49=HEMAMTFRTS27QA2_PUB|52=20180625-14:19:21.532|56=TRAX|10=073|8=FIXT.1.1|9=68|35=0|34=387|49=HEMAMTFRTS27QA2_PUB|52=20180625-14:19:52.539|56=TRAX|10=085|8=FIXT.1.1|9=68|35=0|34=388|49=HEMAMTFRTS27QA2_PUB|52=20180625-14:20:23.532|56=TRAX|10=069|8=FIXT.1.1|9=68|35=0|34=389|49=HEMAMTFRTS27QA2_PUB|52=20180625-14:20:54.532|56=TRAX|10=074|8=FIXT.1.1|9=68|35=0|34=390|49=HEMAMTFRTS27QA2_PUB|52=20180625-14:21:24.533|56=TRAX|10=065|8=FIXT.1.1|9=68|35=0|34=391|49=HEMAMTFRTS27QA2_PUB|52=20180625-14:21:54.533|56=TRAX|10=069|8=FIXT.1.1|9=68|35=0|34=392|49=HEMAMTFRTS27QA2_PUB|52=20180625-14:22:25.532|56=TRAX|10=068|8=FIXT.1.1|9=68|35=0|34=393|49=HEMAMTFRTS27QA2_PUB|52=20180625-14:22:56.527|56=TRAX|10=077|8=FIXT.1.1|9=68|35=0|34=394|49=HEMAMTFRTS27QA2_PUB|52=20180625-14:23:27.534|56=TRAX|10=075|8=FIXT.1.1|9=68|35=0|34=395|49=HEMAMTFRTS27QA2_PUB|52=20180625-14:23:58.527|56=TRAX|10=082|8=FIXT.1.1|9=68|35=0|34=396|49=HEMAMTFRTS27QA2_PUB|52=20180625-14:24:28.532|56=TRAX|10=077|8=FIXT.1.1|9=68|35=0|34=397|49=HEMAMTFRTS27QA2_PUB|52=20180625-14:24:59.528|56=TRAX|10=087|8=FIXT.1.1|9=68|35=0|34=398|49=HEMAMTFRTS27QA2_PUB|52=20180625-14:25:29.863|56=TRAX|10=088|8=FIXT.1.1|9=68|35=0|34=399|49=HEMAMTFRTS27QA2_PUB|52=20180625-14:25:59.872|56=TRAX|10=092|8=FIXT.1.1|9=68|35=0|34=400|49=HEMAMTFRTS27QA2_PUB|52=20180625-14:26:29.874|56=TRAX|10=075|8=FIXT.1.1|9=68|35=0|34=401|49=HEMAMTFRTS27QA2_PUB|52=20180625-14:27:00.530|56=TRAX|10=055|8=FIXT.1.1|9=68|35=0|34=402|49=HEMAMTFRTS27QA2_PUB|52=20180625-14:27:30.531|56=TRAX|10=060|8=FIXT.1.1|9=68|35=0|34=403|49=HEMAMTFRTS27QA2_PUB|52=20180625-14:28:00.532|56=TRAX|10=060|8=FIXT.1.1|9=68|35=0|34=404|49=HEMAMTFRTS27QA2_PUB|52=20180625-14:28:31.521|56=TRAX|10=063|8=FIXT.1.1|9=68|35=0|34=405|49=HEMAMTFRTS27QA2_PUB|52=20180625-14:29:01.532|56=TRAX|10=064|8=FIXT.1.1|9=68|35=0|34=406|49=HEMAMTFRTS27QA2_PUB|52=20180625-14:29:32.522|56=TRAX|10=068|8=FIXT.1.1|9=68|35=0|34=407|49=HEMAMTFRTS27QA2_PUB|52=20180625-14:30:02.522|56=TRAX|10=058|8=FIXT.1.1|9=68|35=0|34=408|49=HEMAMTFRTS27QA2_PUB|52=20180625-14:30:32.526|56=TRAX|10=066|8=FIXT.1.1|9=68|35=0|34=409|49=HEMAMTFRTS27QA2_PUB|52=20180625-14:31:02.534|56=TRAX|10=064|8=FIXT.1.1|9=68|35=0|34=410|49=HEMAMTFRTS27QA2_PUB|52=20180625-14:31:33.534|56=TRAX|10=060|8=FIXT.1.1|9=68|35=0|34=411|49=HEMAMTFRTS27QA2_PUB|52=20180625-14:32:04.529|56=TRAX|10=064|8=FIXT.1.1|9=68|35=0|34=412|49=HEMAMTFRTS27QA2_PUB|52=20180625-14:32:35.519|56=TRAX|10=068|8=FIXT.1.1|9=68|35=0|34=413|49=HEMAMTFRTS27QA2_PUB|52=20180625-14:33:05.527|56=TRAX|10=066|8=FIXT.1.1|9=68|35=0|34=414|49=HEMAMTFRTS27QA2_PUB|52=20180625-14:33:36.526|56=TRAX|10=070|8=FIXT.1.1|9=68|35=0|34=415|49=HEMAMTFRTS27QA2_PUB|52=20180625-14:34:06.529|56=TRAX|10=072|8=FIXT.1.1|9=68|35=0|34=416|49=HEMAMTFRTS27QA2_PUB|52=20180625-14:34:37.535|56=TRAX|10=074|8=FIXT.1.1|9=68|35=0|34=417|49=HEMAMTFRTS27QA2_PUB|52=20180625-14:35:07.537|56=TRAX|10=075|8=FIXT.1.1|9=68|35=0|34=418|49=HEMAMTFRTS27QA2_PUB|52=20180625-14:35:38.526|56=TRAX|10=078|8=FIXT.1.1|9=68|35=0|34=419|49=HEMAMTFRTS27QA2_PUB|52=20180625-14:36:08.528|56=TRAX|10=079|8=FIXT.1.1|9=68|35=0|34=420|49=HEMAMTFRTS27QA2_PUB|52=20180625-14:36:38.539|56=TRAX|10=076|8=FIXT.1.1|9=68|35=0|34=421|49=HEMAMTFRTS27QA2_PUB|52=20180625-14:37:09.534|56=TRAX|10=071|8=FIXT.1.1|9=68|35=0|34=422|49=HEMAMTFRTS27QA2_PUB|52=20180625-14:37:39.542|56=TRAX|10=074|8=FIXT.1.1|9=68|35=0|34=423|49=HEMAMTFRTS27QA2_PUB|52=20180625-14:38:10.540|56=TRAX|10=063|8=FIXT.1.1|9=68|35=0|34=424|49=HEMAMTFRTS27QA2_PUB|52=20180625-14:38:41.538|56=TRAX|10=075|8=FIXT.1.1|9=68|35=0|34=425|49=HEMAMTFRTS27QA2_PUB|52=20180625-14:39:12.532|56=TRAX|10=069|8=FIXT.1.1|9=68|35=0|34=426|49=HEMAMTFRTS27QA2_PUB|52=20180625-14:39:42.543|56=TRAX|10=075|8=FIXT.1.1|9=68|35=0|34=427|49=HEMAMTFRTS27QA2_PUB|52=20180625-14:40:12.545|56=TRAX|10=067|8=FIXT.1.1|9=68|35=0|34=428|49=HEMAMTFRTS27QA2_PUB|52=20180625-14:40:43.541|56=TRAX|10=068|8=FIXT.1.1|9=68|35=0|34=429|49=HEMAMTFRTS27QA2_PUB|52=20180625-14:41:14.536|56=TRAX|10=072|8=FIXT.1.1|9=68|35=0|34=430|49=HEMAMTFRTS27QA2_PUB|52=20180625-14:41:45.539|56=TRAX|10=071|8=FIXT.1.1|9=68|35=0|34=431|49=HEMAMTFRTS27QA2_PUB|52=20180625-14:42:16.539|56=TRAX|10=071|8=FIXT.1.1|9=68|35=0|34=432|49=HEMAMTFRTS27QA2_PUB|52=20180625-14:42:47.538|56=TRAX|10=075|8=FIXT.1.1|9=68|35=0|34=433|49=HEMAMTFRTS27QA2_PUB|52=20180625-14:43:17.539|56=TRAX|10=075|8=FIXT.1.1|9=68|35=0|34=434|49=HEMAMTFRTS27QA2_PUB|52=20180625-14:43:48.530|56=TRAX|10=071|8=FIXT.1.1|9=68|35=0|34=435|49=HEMAMTFRTS27QA2_PUB|52=20180625-14:44:18.543|56=TRAX|10=074|8=FIXT.1.1|9=68|35=0|34=436|49=HEMAMTFRTS27QA2_PUB|52=20180625-14:44:49.542|56=TRAX|10=078|8=FIXT.1.1|9=68|35=0|34=437|49=HEMAMTFRTS27QA2_PUB|52=20180625-14:45:20.535|56=TRAX|10=071|8=FIXT.1.1|9=68|35=0|34=438|49=HEMAMTFRTS27QA2_PUB|52=20180625-14:45:51.530|56=TRAX|10=071|8=FIXT.1.1|9=68|35=0|34=439|49=HEMAMTFRTS27QA2_PUB|52=20180625-14:46:21.530|56=TRAX|10=070|8=FIXT.1.1|9=68|35=0|34=440|49=HEMAMTFRTS27QA2_PUB|52=20180625-14:46:51.537|56=TRAX|10=072|8=FIXT.1.1|9=68|35=0|34=441|49=HEMAMTFRTS27QA2_PUB|52=20180625-14:47:21.545|56=TRAX|10=070|8=FIXT.1.1|9=68|35=0|34=442|49=HEMAMTFRTS27QA2_PUB|52=20180625-14:47:52.530|56=TRAX|10=069|8=FIXT.1.1|9=68|35=0|34=443|49=HEMAMTFRTS27QA2_PUB|52=20180625-14:48:22.541|56=TRAX|10=070|8=FIXT.1.1|9=68|35=0|34=444|49=HEMAMTFRTS27QA2_PUB|52=20180625-14:48:52.542|56=TRAX|10=075|8=FIXT.1.1|9=68|35=0|34=445|49=HEMAMTFRTS27QA2_PUB|52=20180625-14:49:22.543|56=TRAX|10=075|8=FIXT.1.1|9=68|35=0|34=446|49=HEMAMTFRTS27QA2_PUB|52=20180625-14:49:53.531|56=TRAX|10=077|8=FIXT.1.1|9=68|35=0|34=447|49=HEMAMTFRTS27QA2_PUB|52=20180625-14:50:23.532|56=TRAX|10=068|8=FIXT.1.1|9=68|35=0|34=448|49=HEMAMTFRTS27QA2_PUB|52=20180625-14:50:53.537|56=TRAX|10=077|8=FIXT.1.1|9=68|35=0|34=449|49=HEMAMTFRTS27QA2_PUB|52=20180625-14:51:24.530|56=TRAX|10=070|8=FIXT.1.1|9=68|35=0|34=450|49=HEMAMTFRTS27QA2_PUB|52=20180625-14:51:54.535|56=TRAX|10=070|8=FIXT.1.1|9=68|35=0|34=451|49=HEMAMTFRTS27QA2_PUB|52=20180625-14:52:25.536|56=TRAX|10=071|8=FIXT.1.1|9=68|35=0|34=452|49=HEMAMTFRTS27QA2_PUB|52=20180625-14:52:56.537|56=TRAX|10=077|8=FIXT.1.1|9=68|35=0|34=453|49=HEMAMTFRTS27QA2_PUB|52=20180625-14:53:27.529|56=TRAX|10=078|8=FIXT.1.1|9=68|35=0|34=454|49=HEMAMTFRTS27QA2_PUB|52=20180625-14:53:57.531|56=TRAX|10=075|8=FIXT.1.1|9=68|35=0|34=455|49=HEMAMTFRTS27QA2_PUB|52=20180625-14:54:27.537|56=TRAX|10=080|8=FIXT.1.1|9=68|35=0|34=456|49=HEMAMTFRTS27QA2_PUB|52=20180625-14:54:58.534|56=TRAX|10=082|8=FIXT.1.1|9=68|35=0|34=457|49=HEMAMTFRTS27QA2_PUB|52=20180625-14:55:28.535|56=TRAX|10=082|8=FIXT.1.1|9=68|35=0|34=458|49=HEMAMTFRTS27QA2_PUB|52=20180625-14:55:58.540|56=TRAX|10=082|8=FIXT.1.1|9=68|35=0|34=459|49=HEMAMTFRTS27QA2_PUB|52=20180625-14:56:29.532|56=TRAX|10=083|8=FIXT.1.1|9=68|35=0|34=460|49=HEMAMTFRTS27QA2_PUB|52=20180625-14:56:59.892|56=TRAX|10=087|8=FIXT.1.1|9=68|35=0|34=461|49=HEMAMTFRTS27QA2_PUB|52=20180625-14:57:29.895|56=TRAX|10=089|8=FIXT.1.1|9=68|35=0|34=462|49=HEMAMTFRTS27QA2_PUB|52=20180625-14:58:00.528|56=TRAX|10=073|8=FIXT.1.1|9=68|35=0|34=463|49=HEMAMTFRTS27QA2_PUB|52=20180625-14:58:30.530|56=TRAX|10=070|8=FIXT.1.1|9=68|35=0|34=464|49=HEMAMTFRTS27QA2_PUB|52=20180625-14:59:00.533|56=TRAX|10=072|8=FIXT.1.1|9=68|35=0|34=465|49=HEMAMTFRTS27QA2_PUB|52=20180625-14:59:31.527|56=TRAX|10=080|8=FIXT.1.1|9=68|35=0|34=466|49=HEMAMTFRTS27QA2_PUB|52=20180625-15:00:01.529|56=TRAX|10=067|8=FIXT.1.1|9=68|35=0|34=467|49=HEMAMTFRTS27QA2_PUB|52=20180625-15:00:32.527|56=TRAX|10=070|8=FIXT.1.1|9=68|35=0|34=468|49=HEMAMTFRTS27QA2_PUB|52=20180625-15:01:02.535|56=TRAX|10=068|8=FIXT.1.1|9=68|35=0|34=469|49=HEMAMTFRTS27QA2_PUB|52=20180625-15:01:33.528|56=TRAX|10=075|8=FIXT.1.1|9=68|35=0|34=470|49=HEMAMTFRTS27QA2_PUB|52=20180625-15:02:04.528|56=TRAX|10=066|8=FIXT.1.1|9=68|35=0|34=471|49=HEMAMTFRTS27QA2_PUB|52=20180625-15:02:35.521|56=TRAX|10=064|8=FIXT.1.1|9=68|35=0|34=472|49=HEMAMTFRTS27QA2_PUB|52=20180625-15:03:05.531|56=TRAX|10=064|8=FIXT.1.1|9=68|35=0|34=473|49=HEMAMTFRTS27QA2_PUB|52=20180625-15:03:35.531|56=TRAX|10=068|8=FIXT.1.1|9=68|35=0|34=474|49=HEMAMTFRTS27QA2_PUB|52=20180625-15:04:06.521|56=TRAX|10=067|8=FIXT.1.1|9=68|35=0|34=475|49=HEMAMTFRTS27QA2_PUB|52=20180625-15:04:36.525|56=TRAX|10=075|8=FIXT.1.1|9=68|35=0|34=476|49=HEMAMTFRTS27QA2_PUB|52=20180625-15:05:07.524|56=TRAX|10=074|8=FIXT.1.1|9=68|35=0|34=477|49=HEMAMTFRTS27QA2_PUB|52=20180625-15:05:37.525|56=TRAX|10=079|8=FIXT.1.1|9=68|35=0|34=478|49=HEMAMTFRTS27QA2_PUB|52=20180625-15:06:08.521|56=TRAX|10=075|8=FIXT.1.1|9=68|35=0|34=479|49=HEMAMTFRTS27QA2_PUB|52=20180625-15:06:38.523|56=TRAX|10=081|8=FIXT.1.1|9=68|35=0|34=480|49=HEMAMTFRTS27QA2_PUB|52=20180625-15:07:08.523|56=TRAX|10=071|8=FIXT.1.1|9=68|35=0|34=481|49=HEMAMTFRTS27QA2_PUB|52=20180625-15:07:39.518|56=TRAX|10=080|8=FIXT.1.1|9=68|35=0|34=482|49=HEMAMTFRTS27QA2_PUB|52=20180625-15:08:09.527|56=TRAX|10=079|8=FIXT.1.1|9=68|35=0|34=483|49=HEMAMTFRTS27QA2_PUB|52=20180625-15:08:40.530|56=TRAX|10=069|8=FIXT.1.1|9=68|35=0|34=484|49=HEMAMTFRTS27QA2_PUB|52=20180625-15:09:11.522|56=TRAX|10=070|8=FIXT.1.1|9=68|35=0|34=485|49=HEMAMTFRTS27QA2_PUB|52=20180625-15:09:41.523|56=TRAX|10=075|8=FIXT.1.1|9=68|35=0|34=486|49=HEMAMTFRTS27QA2_PUB|52=20180625-15:10:12.520|56=TRAX|10=063|8=FIXT.1.1|9=68|35=0|34=487|49=HEMAMTFRTS27QA2_PUB|52=20180625-15:10:42.521|56=TRAX|10=068|8=FIXT.1.1|9=68|35=0|34=488|49=HEMAMTFRTS27QA2_PUB|52=20180625-15:11:13.528|56=TRAX|10=075|8=FIXT.1.1|9=68|35=0|34=489|49=HEMAMTFRTS27QA2_PUB|52=20180625-15:11:44.514|56=TRAX|10=075|8=FIXT.1.1|9=68|35=0|34=490|49=HEMAMTFRTS27QA2_PUB|52=20180625-15:12:14.523|56=TRAX|10=065|8=FIXT.1.1|9=68|35=0|34=491|49=HEMAMTFRTS27QA2_PUB|52=20180625-15:12:44.525|56=TRAX|10=071|8=FIXT.1.1|9=68|35=0|34=492|49=HEMAMTFRTS27QA2_PUB|52=20180625-15:13:15.516|56=TRAX|10=071|8=FIXT.1.1|9=68|35=0|34=493|49=HEMAMTFRTS27QA2_PUB|52=20180625-15:13:45.519|56=TRAX|10=078|8=FIXT.1.1|9=68|35=0|34=494|49=HEMAMTFRTS27QA2_PUB|52=20180625-15:14:15.526|56=TRAX|10=075|8=FIXT.1.1|9=68|35=0|34=495|49=HEMAMTFRTS27QA2_PUB|52=20180625-15:14:46.520|56=TRAX|10=074|8=FIXT.1.1|9=68|35=0|34=496|49=HEMAMTFRTS27QA2_PUB|52=20180625-15:15:16.525|56=TRAX|10=078|8=FIXT.1.1|9=68|35=0|34=497|49=HEMAMTFRTS27QA2_PUB|52=20180625-15:15:47.522|56=TRAX|10=080|8=FIXT.1.1|9=68|35=0|34=498|49=HEMAMTFRTS27QA2_PUB|52=20180625-15:16:18.515|56=TRAX|10=082|8=FIXT.1.1|9=68|35=0|34=499|49=HEMAMTFRTS27QA2_PUB|52=20180625-15:16:49.517|56=TRAX|10=089|8=FIXT.1.1|9=68|35=0|34=500|49=HEMAMTFRTS27QA2_PUB|52=20180625-15:17:19.519|56=TRAX|10=072|8=FIXT.1.1|9=68|35=0|34=501|49=HEMAMTFRTS27QA2_PUB|52=20180625-15:17:50.516|56=TRAX|10=065|8=FIXT.1.1|9=68|35=0|34=502|49=HEMAMTFRTS27QA2_PUB|52=20180625-15:18:21.516|56=TRAX|10=065|8=FIXT.1.1|9=68|35=0|34=503|49=HEMAMTFRTS27QA2_PUB|52=20180625-15:18:51.520|56=TRAX|10=064|8=FIXT.1.1|9=68|35=0|34=504|49=HEMAMTFRTS27QA2_PUB|52=20180625-15:19:22.515|56=TRAX|10=068|8=FIXT.1.1|9=68|35=0|34=505|49=HEMAMTFRTS27QA2_PUB|52=20180625-15:19:52.517|56=TRAX|10=074|8=FIXT.1.1|9=68|35=0|34=506|49=HEMAMTFRTS27QA2_PUB|52=20180625-15:20:23.514|56=TRAX|10=062|8=FIXT.1.1|9=68|35=0|34=507|49=HEMAMTFRTS27QA2_PUB|52=20180625-15:20:53.516|56=TRAX|10=068|8=FIXT.1.1|9=68|35=0|34=508|49=HEMAMTFRTS27QA2_PUB|52=20180625-15:21:23.520|56=TRAX|10=062|8=FIXT.1.1|9=68|35=0|34=509|49=HEMAMTFRTS27QA2_PUB|52=20180625-15:21:54.518|56=TRAX|10=074|8=FIXT.1.1|9=68|35=0|34=510|49=HEMAMTFRTS27QA2_PUB|52=20180625-15:22:25.513|56=TRAX|10=060|8=FIXT.1.1|9=68|35=0|34=511|49=HEMAMTFRTS27QA2_PUB|52=20180625-15:22:55.519|56=TRAX|10=070|8=FIXT.1.1|9=68|35=0|34=512|49=HEMAMTFRTS27QA2_PUB|52=20180625-15:23:26.512|56=TRAX|10=063|8=FIXT.1.1|9=68|35=0|34=513|49=HEMAMTFRTS27QA2_PUB|52=20180625-15:23:56.516|56=TRAX|10=071|8=FIXT.1.1|9=68|35=0|34=514|49=HEMAMTFRTS27QA2_PUB|52=20180625-15:24:27.508|56=TRAX|10=072|8=FIXT.1.1|9=68|35=0|34=515|49=HEMAMTFRTS27QA2_PUB|52=20180625-15:24:57.511|56=TRAX|10=070|8=FIXT.1.1|9=68|35=0|34=516|49=HEMAMTFRTS27QA2_PUB|52=20180625-15:25:27.511|56=TRAX|10=069|8=FIXT.1.1|9=68|35=0|34=517|49=HEMAMTFRTS27QA2_PUB|52=20180625-15:25:58.510|56=TRAX|10=073|8=FIXT.1.1|9=68|35=0|34=518|49=HEMAMTFRTS27QA2_PUB|52=20180625-15:26:29.509|56=TRAX|10=081|8=FIXT.1.1|9=68|35=0|34=519|49=HEMAMTFRTS27QA2_PUB|52=20180625-15:26:59.884|56=TRAX|10=091|8=FIXT.1.1|9=68|35=0|34=520|49=HEMAMTFRTS27QA2_PUB|52=20180625-15:27:29.891|56=TRAX|10=079|8=FIXT.1.1|9=68|35=0|34=521|49=HEMAMTFRTS27QA2_PUB|52=20180625-15:28:00.512|56=TRAX|10=060|8=FIXT.1.1|9=68|35=0|34=522|49=HEMAMTFRTS27QA2_PUB|52=20180625-15:28:31.505|56=TRAX|10=067|8=FIXT.1.1|9=68|35=0|34=523|49=HEMAMTFRTS27QA2_PUB|52=20180625-15:29:01.507|56=TRAX|10=068|8=FIXT.1.1|9=68|35=0|34=524|49=HEMAMTFRTS27QA2_PUB|52=20180625-15:29:32.507|56=TRAX|10=073|8=FIXT.1.1|9=68|35=0|34=525|49=HEMAMTFRTS27QA2_PUB|52=20180625-15:30:02.509|56=TRAX|10=065|8=FIXT.1.1|9=68|35=0|34=526|49=HEMAMTFRTS27QA2_PUB|52=20180625-15:30:32.514|56=TRAX|10=065|8=FIXT.1.1|9=68|35=0|34=527|49=HEMAMTFRTS27QA2_PUB|52=20180625-15:31:03.512|56=TRAX|10=063|8=FIXT.1.1|9=68|35=0|34=528|49=HEMAMTFRTS27QA2_PUB|52=20180625-15:31:34.505|56=TRAX|10=070|8=FIXT.1.1|9=68|35=0|34=529|49=HEMAMTFRTS27QA2_PUB|52=20180625-15:32:05.506|56=TRAX|10=071|8=FIXT.1.1|9=68|35=0|34=530|49=HEMAMTFRTS27QA2_PUB|52=20180625-15:32:36.505|56=TRAX|10=066|8=FIXT.1.1|9=68|35=0|34=531|49=HEMAMTFRTS27QA2_PUB|52=20180625-15:33:07.505|56=TRAX|10=066|8=FIXT.1.1|9=68|35=0|34=532|49=HEMAMTFRTS27QA2_PUB|52=20180625-15:33:38.511|56=TRAX|10=068|8=FIXT.1.1|9=68|35=0|34=533|49=HEMAMTFRTS27QA2_PUB|52=20180625-15:34:09.505|56=TRAX|10=071|8=FIXT.1.1|9=68|35=0|34=534|49=HEMAMTFRTS27QA2_PUB|52=20180625-15:34:40.508|56=TRAX|10=070|8=FIXT.1.1|9=68|35=0|34=535|49=HEMAMTFRTS27QA2_PUB|52=20180625-15:35:11.502|56=TRAX|10=064|8=FIXT.1.1|9=68|35=0|34=536|49=HEMAMTFRTS27QA2_PUB|52=20180625-15:35:41.506|56=TRAX|10=072|8=FIXT.1.1|9=68|35=0|34=537|49=HEMAMTFRTS27QA2_PUB|52=20180625-15:36:11.508|56=TRAX|10=073|8=FIXT.1.1|9=68|35=0|34=538|49=HEMAMTFRTS27QA2_PUB|52=20180625-15:36:42.502|56=TRAX|10=072|8=FIXT.1.1|9=68|35=0|34=539|49=HEMAMTFRTS27QA2_PUB|52=20180625-15:37:13.502|56=TRAX|10=072|8=FIXT.1.1|9=68|35=0|34=540|49=HEMAMTFRTS27QA2_PUB|52=20180625-15:37:44.500|56=TRAX|10=066|8=FIXT.1.1|9=68|35=0|34=541|49=HEMAMTFRTS27QA2_PUB|52=20180625-15:38:14.506|56=TRAX|10=071|8=FIXT.1.1|9=68|35=0|34=542|49=HEMAMTFRTS27QA2_PUB|52=20180625-15:38:45.500|56=TRAX|10=070|8=FIXT.1.1|9=68|35=0|34=543|49=HEMAMTFRTS27QA2_PUB|52=20180625-15:39:16.500|56=TRAX|10=070|8=FIXT.1.1|9=68|35=0|34=544|49=HEMAMTFRTS27QA2_PUB|52=20180625-15:39:46.507|56=TRAX|10=081|8=FIXT.1.1|9=68|35=0|34=545|49=HEMAMTFRTS27QA2_PUB|52=20180625-15:40:17.500|56=TRAX|10=065|8=FIXT.1.1|9=68|35=0|34=546|49=HEMAMTFRTS27QA2_PUB|52=20180625-15:40:47.503|56=TRAX|10=072|8=FIXT.1.1|9=68|35=0|34=547|49=HEMAMTFRTS27QA2_PUB|52=20180625-15:41:18.492|56=TRAX|10=079|8=FIXT.1.1|9=68|35=0|34=548|49=HEMAMTFRTS27QA2_PUB|52=20180625-15:41:48.496|56=TRAX|10=087|8=FIXT.1.1|9=68|35=0|34=549|49=HEMAMTFRTS27QA2_PUB|52=20180625-15:42:18.503|56=TRAX|10=075|8=FIXT.1.1|9=68|35=0|34=550|49=HEMAMTFRTS27QA2_PUB|52=20180625-15:42:49.504|56=TRAX|10=072|8=FIXT.1.1|9=68|35=0|34=551|49=HEMAMTFRTS27QA2_PUB|52=20180625-15:43:20.495|56=TRAX|10=072|8=FIXT.1.1|9=68|35=0|34=552|49=HEMAMTFRTS27QA2_PUB|52=20180625-15:43:50.503|56=TRAX|10=066|8=FIXT.1.1|9=68|35=0|34=553|49=HEMAMTFRTS27QA2_PUB|52=20180625-15:44:21.496|56=TRAX|10=077|8=FIXT.1.1|9=68|35=0|34=554|49=HEMAMTFRTS27QA2_PUB|52=20180625-15:44:51.502|56=TRAX|10=069|8=FIXT.1.1|9=68|35=0|34=555|49=HEMAMTFRTS27QA2_PUB|52=20180625-15:45:22.501|56=TRAX|10=068|8=FIXT.1.1|9=68|35=0|34=556|49=HEMAMTFRTS27QA2_PUB|52=20180625-15:45:53.496|56=TRAX|10=086|8=FIXT.1.1|9=68|35=0|34=557|49=HEMAMTFRTS27QA2_PUB|52=20180625-15:46:24.487|56=TRAX|10=086|8=FIXT.1.1|9=68|35=0|34=558|49=HEMAMTFRTS27QA2_PUB|52=20180625-15:46:54.498|56=TRAX|10=092|8=FIXT.1.1|9=68|35=0|34=559|49=HEMAMTFRTS27QA2_PUB|52=20180625-15:47:25.498|56=TRAX|10=092|8=FIXT.1.1|9=68|35=0|34=560|49=HEMAMTFRTS27QA2_PUB|52=20180625-15:47:56.498|56=TRAX|10=088|8=FIXT.1.1|9=68|35=0|34=561|49=HEMAMTFRTS27QA2_PUB|52=20180625-15:48:27.497|56=TRAX|10=087|8=FIXT.1.1|9=68|35=0|34=562|49=HEMAMTFRTS27QA2_PUB|52=20180625-15:48:58.496|56=TRAX|10=091|8=FIXT.1.1|9=68|35=0|34=563|49=HEMAMTFRTS27QA2_PUB|52=20180625-15:49:29.492|56=TRAX|10=087|8=FIXT.1.1|9=68|35=0|34=564|49=HEMAMTFRTS27QA2_PUB|52=20180625-15:49:59.495|56=TRAX|10=094|8=FIXT.1.1|9=68|35=0|34=565|49=HEMAMTFRTS27QA2_PUB|52=20180625-15:50:30.486|56=TRAX|10=076|8=FIXT.1.1|9=68|35=0|34=566|49=HEMAMTFRTS27QA2_PUB|52=20180625-15:51:00.493|56=TRAX|10=073|8=FIXT.1.1|9=68|35=0|34=567|49=HEMAMTFRTS27QA2_PUB|52=20180625-15:51:30.869|56=TRAX|10=084|8=FIXT.1.1|9=68|35=0|34=568|49=HEMAMTFRTS27QA2_PUB|52=20180625-15:52:00.872|56=TRAX|10=077|8=FIXT.1.1|9=68|35=0|34=569|49=HEMAMTFRTS27QA2_PUB|52=20180625-15:52:31.494|56=TRAX|10=082|8=FIXT.1.1|9=68|35=0|34=570|49=HEMAMTFRTS27QA2_PUB|52=20180625-15:53:02.492|56=TRAX|10=071|8=FIXT.1.1|9=68|35=0|34=571|49=HEMAMTFRTS27QA2_PUB|52=20180625-15:53:33.489|56=TRAX|10=082|8=FIXT.1.1|9=68|35=0|34=572|49=HEMAMTFRTS27QA2_PUB|52=20180625-15:54:03.496|56=TRAX|10=079|8=FIXT.1.1|9=68|35=0|34=573|49=HEMAMTFRTS27QA2_PUB|52=20180625-15:54:34.485|56=TRAX|10=082|8=FIXT.1.1|9=68|35=0|34=574|49=HEMAMTFRTS27QA2_PUB|52=20180625-15:55:04.489|56=TRAX|10=085|8=FIXT.1.1|9=68|35=0|34=575|49=HEMAMTFRTS27QA2_PUB|52=20180625-15:55:35.480|56=TRAX|10=081|8=FIXT.1.1|9=68|35=0|34=576|49=HEMAMTFRTS27QA2_PUB|52=20180625-15:56:05.487|56=TRAX|10=087|8=FIXT.1.1|9=68|35=0|34=577|49=HEMAMTFRTS27QA2_PUB|52=20180625-15:56:36.482|56=TRAX|10=087|8=FIXT.1.1|9=68|35=0|34=578|49=HEMAMTFRTS27QA2_PUB|52=20180625-15:57:06.493|56=TRAX|10=088|8=FIXT.1.1|9=68|35=0|34=579|49=HEMAMTFRTS27QA2_PUB|52=20180625-15:57:37.487|56=TRAX|10=096|8=FIXT.1.1|9=68|35=0|34=580|49=HEMAMTFRTS27QA2_PUB|52=20180625-15:58:08.487|56=TRAX|10=087|8=FIXT.1.1|9=68|35=0|34=581|49=HEMAMTFRTS27QA2_PUB|52=20180625-15:58:39.478|56=TRAX|10=092|8=FIXT.1.1|9=68|35=0|34=582|49=HEMAMTFRTS27QA2_PUB|52=20180625-15:59:09.487|56=TRAX|10=091|8=FIXT.1.1|9=68|35=0|34=583|49=HEMAMTFRTS27QA2_PUB|52=20180625-15:59:40.483|56=TRAX|10=083|8=FIXT.1.1|9=68|35=0|34=584|49=HEMAMTFRTS27QA2_PUB|52=20180625-16:00:10.490|56=TRAX|10=066|8=FIXT.1.1|9=68|35=0|34=585|49=HEMAMTFRTS27QA2_PUB|52=20180625-16:00:41.486|56=TRAX|10=076|8=FIXT.1.1|9=68|35=0|34=586|49=HEMAMTFRTS27QA2_PUB|52=20180625-16:01:12.478|56=TRAX|10=077|8=FIXT.1.1|9=68|35=0|34=587|49=HEMAMTFRTS27QA2_PUB|52=20180625-16:01:42.492|56=TRAX|10=077|8=FIXT.1.1|9=68|35=0|34=588|49=HEMAMTFRTS27QA2_PUB|52=20180625-16:02:13.485|56=TRAX|10=079|8=FIXT.1.1|9=68|35=0|34=589|49=HEMAMTFRTS27QA2_PUB|52=20180625-16:02:44.477|56=TRAX|10=085|8=FIXT.1.1|9=68|35=0|34=590|49=HEMAMTFRTS27QA2_PUB|52=20180625-16:03:14.487|56=TRAX|10=076|8=FIXT.1.1|9=68|35=0|34=591|49=HEMAMTFRTS27QA2_PUB|52=20180625-16:03:45.485|56=TRAX|10=079|8=FIXT.1.1|9=68|35=0|34=592|49=HEMAMTFRTS27QA2_PUB|52=20180625-16:04:16.476|56=TRAX|10=079|8=FIXT.1.1|9=68|35=0|34=593|49=HEMAMTFRTS27QA2_PUB|52=20180625-16:04:46.488|56=TRAX|10=086|8=FIXT.1.1|9=68|35=0|34=594|49=HEMAMTFRTS27QA2_PUB|52=20180625-16:05:17.484|56=TRAX|10=082|8=FIXT.1.1|9=68|35=0|34=595|49=HEMAMTFRTS27QA2_PUB|52=20180625-16:05:47.485|56=TRAX|10=087|8=FIXT.1.1|9=68|35=0|34=596|49=HEMAMTFRTS27QA2_PUB|52=20180625-16:06:18.480|56=TRAX|10=082|8=FIXT.1.1|9=68|35=0|34=597|49=HEMAMTFRTS27QA2_PUB|52=20180625-16:06:48.480|56=TRAX|10=086|8=FIXT.1.1|9=68|35=0|34=598|49=HEMAMTFRTS27QA2_PUB|52=20180625-16:07:18.481|56=TRAX|10=086|8=FIXT.1.1|9=68|35=0|34=599|49=HEMAMTFRTS27QA2_PUB|52=20180625-16:07:48.482|56=TRAX|10=091|8=FIXT.1.1|9=68|35=0|34=600|49=HEMAMTFRTS27QA2_PUB|52=20180625-16:08:18.482|56=TRAX|10=072|8=FIXT.1.1|9=68|35=0|34=601|49=HEMAMTFRTS27QA2_PUB|52=20180625-16:08:48.483|56=TRAX|10=077|8=FIXT.1.1|9=68|35=0|34=602|49=HEMAMTFRTS27QA2_PUB|52=20180625-16:09:18.484|56=TRAX|10=077|8=FIXT.1.1|9=68|35=0|34=603|49=HEMAMTFRTS27QA2_PUB|52=20180625-16:09:49.483|56=TRAX|10=081|8=FIXT.1.1|9=68|35=0|34=604|49=HEMAMTFRTS27QA2_PUB|52=20180625-16:10:20.480|56=TRAX|10=060|8=FIXT.1.1|9=68|35=0|34=605|49=HEMAMTFRTS27QA2_PUB|52=20180625-16:10:50.483|56=TRAX|10=067|8=FIXT.1.1|9=68|35=0|34=606|49=HEMAMTFRTS27QA2_PUB|52=20180625-16:11:20.483|56=TRAX|10=066|8=FIXT.1.1|9=68|35=0|34=607|49=HEMAMTFRTS27QA2_PUB|52=20180625-16:11:51.477|56=TRAX|10=074|8=FIXT.1.1|9=68|35=0|34=608|49=HEMAMTFRTS27QA2_PUB|52=20180625-16:12:21.483|56=TRAX|10=070|8=FIXT.1.1|9=68|35=0|34=609|49=HEMAMTFRTS27QA2_PUB|52=20180625-16:12:52.486|56=TRAX|10=078|8=FIXT.1.1|9=68|35=0|34=610|49=HEMAMTFRTS27QA2_PUB|52=20180625-16:13:23.477|56=TRAX|10=069|8=FIXT.1.1|9=68|35=0|34=611|49=HEMAMTFRTS27QA2_PUB|52=20180625-16:13:53.480|56=TRAX|10=067|8=FIXT.1.1|9=68|35=0|34=612|49=HEMAMTFRTS27QA2_PUB|52=20180625-16:14:24.476|56=TRAX|10=072|8=FIXT.1.1|9=68|35=0|34=613|49=HEMAMTFRTS27QA2_PUB|52=20180625-16:14:54.480|56=TRAX|10=071|8=FIXT.1.1|9=68|35=0|34=614|49=HEMAMTFRTS27QA2_PUB|52=20180625-16:15:24.485|56=TRAX|10=075|8=FIXT.1.1|9=68|35=0|34=615|49=HEMAMTFRTS27QA2_PUB|52=20180625-16:15:55.484|56=TRAX|10=079|8=FIXT.1.1|9=68|35=0|34=616|49=HEMAMTFRTS27QA2_PUB|52=20180625-16:16:26.473|56=TRAX|10=077|8=FIXT.1.1|9=68|35=0|34=617|49=HEMAMTFRTS27QA2_PUB|52=20180625-16:16:56.474|56=TRAX|10=082|8=FIXT.1.1|9=68|35=0|34=618|49=HEMAMTFRTS27QA2_PUB|52=20180625-16:17:27.476|56=TRAX|10=084|8=FIXT.1.1|9=68|35=0|34=619|49=HEMAMTFRTS27QA2_PUB|52=20180625-16:17:57.479|56=TRAX|10=091|8=FIXT.1.1|9=68|35=0|34=620|49=HEMAMTFRTS27QA2_PUB|52=20180625-16:18:27.483|56=TRAX|10=076|8=FIXT.1.1|9=68|35=0|34=621|49=HEMAMTFRTS27QA2_PUB|52=20180625-16:18:58.480|56=TRAX|10=078|8=FIXT.1.1|9=68|35=0|34=622|49=HEMAMTFRTS27QA2_PUB|52=20180625-16:19:28.483|56=TRAX|10=080|8=FIXT.1.1|9=68|35=0|34=623|49=HEMAMTFRTS27QA2_PUB|52=20180625-16:19:58.483|56=TRAX|10=084|8=FIXT.1.1|9=68|35=0|34=624|49=HEMAMTFRTS27QA2_PUB|52=20180625-16:20:28.485|56=TRAX|10=076|8=FIXT.1.1|9=68|35=0|34=625|49=HEMAMTFRTS27QA2_PUB|52=20180625-16:20:59.482|56=TRAX|10=078|8=FIXT.1.1|9=68|35=0|34=626|49=HEMAMTFRTS27QA2_PUB|52=20180625-16:21:29.482|56=TRAX|10=077|8=FIXT.1.1|9=68|35=0|34=627|49=HEMAMTFRTS27QA2_PUB|52=20180625-16:22:00.482|56=TRAX|10=068|8=FIXT.1.1|9=68|35=0|34=628|49=HEMAMTFRTS27QA2_PUB|52=20180625-16:22:30.869|56=TRAX|10=081|8=FIXT.1.1|9=68|35=0|34=629|49=HEMAMTFRTS27QA2_PUB|52=20180625-16:23:01.477|56=TRAX|10=076|8=FIXT.1.1|9=68|35=0|34=630|49=HEMAMTFRTS27QA2_PUB|52=20180625-16:23:31.481|56=TRAX|10=066|8=FIXT.1.1|9=68|35=0|34=631|49=HEMAMTFRTS27QA2_PUB|52=20180625-16:24:02.480|56=TRAX|10=065|8=FIXT.1.1|9=68|35=0|34=632|49=HEMAMTFRTS27QA2_PUB|52=20180625-16:24:33.477|56=TRAX|10=076|8=FIXT.1.1|9=68|35=0|34=633|49=HEMAMTFRTS27QA2_PUB|52=20180625-16:25:03.480|56=TRAX|10=069|8=FIXT.1.1|9=68|35=0|34=634|49=HEMAMTFRTS27QA2_PUB|52=20180625-16:25:34.482|56=TRAX|10=076|8=FIXT.1.1|9=68|35=0|34=635|49=HEMAMTFRTS27QA2_PUB|52=20180625-16:26:05.476|56=TRAX|10=079|8=FIXT.1.1|9=68|35=0|34=636|49=HEMAMTFRTS27QA2_PUB|52=20180625-16:26:35.483|56=TRAX|10=081|8=FIXT.1.1|9=68|35=0|34=637|49=HEMAMTFRTS27QA2_PUB|52=20180625-16:27:06.469|56=TRAX|10=085|8=FIXT.1.1|9=68|35=0|34=638|49=HEMAMTFRTS27QA2_PUB|52=20180625-16:27:36.480|56=TRAX|10=082|8=FIXT.1.1|9=68|35=0|34=639|49=HEMAMTFRTS27QA2_PUB|52=20180625-16:28:07.468|56=TRAX|10=088|8=FIXT.1.1|9=68|35=0|34=640|49=HEMAMTFRTS27QA2_PUB|52=20180625-16:28:37.470|56=TRAX|10=076|8=FIXT.1.1|9=68|35=0|34=641|49=HEMAMTFRTS27QA2_PUB|52=20180625-16:29:07.472|56=TRAX|10=077|8=FIXT.1.1|9=68|35=0|34=642|49=HEMAMTFRTS27QA2_PUB|52=20180625-16:29:37.474|56=TRAX|10=083|8=FIXT.1.1|9=68|35=0|34=643|49=HEMAMTFRTS27QA2_PUB|52=20180625-16:30:07.479|56=TRAX|10=078|8=FIXT.1.1|9=68|35=0|34=644|49=HEMAMTFRTS27QA2_PUB|52=20180625-16:30:38.471|56=TRAX|10=075|8=FIXT.1.1|9=68|35=0|34=645|49=HEMAMTFRTS27QA2_PUB|52=20180625-16:31:08.477|56=TRAX|10=080|8=FIXT.1.1|9=68|35=0|34=646|49=HEMAMTFRTS27QA2_PUB|52=20180625-16:31:39.467|56=TRAX|10=084|8=FIXT.1.1|9=68|35=0|34=647|49=HEMAMTFRTS27QA2_PUB|52=20180625-16:32:09.473|56=TRAX|10=080|8=FIXT.1.1|9=68|35=0|34=648|49=HEMAMTFRTS27QA2_PUB|52=20180625-16:32:40.466|56=TRAX|10=078|8=FIXT.1.1|9=68|35=0|34=649|49=HEMAMTFRTS27QA2_PUB|52=20180625-16:33:10.473|56=TRAX|10=075|8=FIXT.1.1|9=68|35=0|34=650|49=HEMAMTFRTS27QA2_PUB|52=20180625-16:33:40.478|56=TRAX|10=075|8=FIXT.1.1|9=68|35=0|34=651|49=HEMAMTFRTS27QA2_PUB|52=20180625-16:34:10.480|56=TRAX|10=067|8=FIXT.1.1|9=68|35=0|34=652|49=HEMAMTFRTS27QA2_PUB|52=20180625-16:34:41.477|56=TRAX|10=078|8=FIXT.1.1|9=68|35=0|34=653|49=HEMAMTFRTS27QA2_PUB|52=20180625-16:35:12.477|56=TRAX|10=078|8=FIXT.1.1|9=68|35=0|34=654|49=HEMAMTFRTS27QA2_PUB|52=20180625-16:35:43.477|56=TRAX|10=083|8=FIXT.1.1|9=68|35=0|34=655|49=HEMAMTFRTS27QA2_PUB|52=20180625-16:36:14.476|56=TRAX|10=082|8=FIXT.1.1|9=68|35=0|34=656|49=HEMAMTFRTS27QA2_PUB|52=20180625-16:36:45.472|56=TRAX|10=083|8=FIXT.1.1|9=68|35=0|34=657|49=HEMAMTFRTS27QA2_PUB|52=20180625-16:37:15.472|56=TRAX|10=082|8=FIXT.1.1|9=68|35=0|34=658|49=HEMAMTFRTS27QA2_PUB|52=20180625-16:37:45.472|56=TRAX|10=086|8=FIXT.1.1|9=68|35=0|34=659|49=HEMAMTFRTS27QA2_PUB|52=20180625-16:38:16.471|56=TRAX|10=085|8=FIXT.1.1|9=68|35=0|34=660|49=HEMAMTFRTS27QA2_PUB|52=20180625-16:38:46.473|56=TRAX|10=082|8=FIXT.1.1|9=68|35=0|34=661|49=HEMAMTFRTS27QA2_PUB|52=20180625-16:39:17.478|56=TRAX|10=087|8=FIXT.1.1|9=68|35=0|34=662|49=HEMAMTFRTS27QA2_PUB|52=20180625-16:39:48.473|56=TRAX|10=087|8=FIXT.1.1|9=68|35=0|34=663|49=HEMAMTFRTS27QA2_PUB|52=20180625-16:40:19.471|56=TRAX|10=076|8=FIXT.1.1|9=68|35=0|34=664|49=HEMAMTFRTS27QA2_PUB|52=20180625-16:40:50.467|56=TRAX|10=077|8=FIXT.1.1|9=68|35=0|34=665|49=HEMAMTFRTS27QA2_PUB|52=20180625-16:41:21.470|56=TRAX|10=071|8=FIXT.1.1|9=68|35=0|34=666|49=HEMAMTFRTS27QA2_PUB|52=20180625-16:41:51.472|56=TRAX|10=077|8=FIXT.1.1|9=68|35=0|34=667|49=HEMAMTFRTS27QA2_PUB|52=20180625-16:42:22.474|56=TRAX|10=079|8=FIXT.1.1|9=68|35=0|34=668|49=HEMAMTFRTS27QA2_PUB|52=20180625-16:42:53.470|56=TRAX|10=080|8=FIXT.1.1|9=68|35=0|34=669|49=HEMAMTFRTS27QA2_PUB|52=20180625-16:43:24.467|56=TRAX|10=086|8=FIXT.1.1|9=68|35=0|34=670|49=HEMAMTFRTS27QA2_PUB|52=20180625-16:43:55.468|56=TRAX|10=083|8=FIXT.1.1|9=68|35=0|34=671|49=HEMAMTFRTS27QA2_PUB|52=20180625-16:44:25.470|56=TRAX|10=075|8=FIXT.1.1|9=68|35=0|34=672|49=HEMAMTFRTS27QA2_PUB|52=20180625-16:44:55.472|56=TRAX|10=081|8=FIXT.1.1|9=68|35=0|34=673|49=HEMAMTFRTS27QA2_PUB|52=20180625-16:45:26.477|56=TRAX|10=086|8=FIXT.1.1|9=68|35=0|34=674|49=HEMAMTFRTS27QA2_PUB|52=20180625-16:45:57.470|56=TRAX|10=084|8=FIXT.1.1|9=68|35=0|34=675|49=HEMAMTFRTS27QA2_PUB|52=20180625-16:46:28.473|56=TRAX|10=087|8=FIXT.1.1|9=68|35=0|34=676|49=HEMAMTFRTS27QA2_PUB|52=20180625-16:46:59.476|56=TRAX|10=095|8=FIXT.1.1|9=68|35=0|34=677|49=HEMAMTFRTS27QA2_PUB|52=20180625-16:47:30.468|56=TRAX|10=087|8=FIXT.1.1|9=68|35=0|34=678|49=HEMAMTFRTS27QA2_PUB|52=20180625-16:48:00.470|56=TRAX|10=079|8=FIXT.1.1|9=68|35=0|34=679|49=HEMAMTFRTS27QA2_PUB|52=20180625-16:48:30.860|56=TRAX|10=086|8=FIXT.1.1|9=68|35=0|34=680|49=HEMAMTFRTS27QA2_PUB|52=20180625-16:49:00.860|56=TRAX|10=076|8=FIXT.1.1|9=68|35=0|34=681|49=HEMAMTFRTS27QA2_PUB|52=20180625-16:49:30.873|56=TRAX|10=084|8=FIXT.1.1|9=68|35=0|34=682|49=HEMAMTFRTS27QA2_PUB|52=20180625-16:50:01.468|56=TRAX|10=075|8=FIXT.1.1|9=68|35=0|34=683|49=HEMAMTFRTS27QA2_PUB|52=20180625-16:50:32.466|56=TRAX|10=078|8=FIXT.1.1|9=68|35=0|34=684|49=HEMAMTFRTS27QA2_PUB|52=20180625-16:51:02.470|56=TRAX|10=072|8=FIXT.1.1|9=68|35=0|34=685|49=HEMAMTFRTS27QA2_PUB|52=20180625-16:51:33.468|56=TRAX|10=084|8=FIXT.1.1|9=68|35=0|34=686|49=HEMAMTFRTS27QA2_PUB|52=20180625-16:52:04.472|56=TRAX|10=079|8=FIXT.1.1|9=68|35=0|34=687|49=HEMAMTFRTS27QA2_PUB|52=20180625-16:52:35.464|56=TRAX|10=085|8=FIXT.1.1|9=68|35=0|34=688|49=HEMAMTFRTS27QA2_PUB|52=20180625-16:53:05.468|56=TRAX|10=088|8=FIXT.1.1|9=68|35=0|34=689|49=HEMAMTFRTS27QA2_PUB|52=20180625-16:53:35.471|56=TRAX|10=086|8=FIXT.1.1|9=68|35=0|34=690|49=HEMAMTFRTS27QA2_PUB|52=20180625-16:54:06.474|56=TRAX|10=080|8=FIXT.1.1|9=68|35=0|34=691|49=HEMAMTFRTS27QA2_PUB|52=20180625-16:54:37.466|56=TRAX|10=086|8=FIXT.1.1|9=68|35=0|34=692|49=HEMAMTFRTS27QA2_PUB|52=20180625-16:55:07.468|56=TRAX|10=087|8=FIXT.1.1|9=68|35=0|34=693|49=HEMAMTFRTS27QA2_PUB|52=20180625-16:55:38.466|56=TRAX|10=090|8=FIXT.1.1|9=68|35=0|34=694|49=HEMAMTFRTS27QA2_PUB|52=20180625-16:56:08.474|56=TRAX|10=088|8=FIXT.1.1|9=68|35=0|34=695|49=HEMAMTFRTS27QA2_PUB|52=20180625-16:56:39.459|56=TRAX|10=096|8=FIXT.1.1|9=68|35=0|34=696|49=HEMAMTFRTS27QA2_PUB|52=20180625-16:57:09.466|56=TRAX|10=093|8=FIXT.1.1|9=68|35=0|34=697|49=HEMAMTFRTS27QA2_PUB|52=20180625-16:57:39.473|56=TRAX|10=095|8=FIXT.1.1|9=68|35=0|34=698|49=HEMAMTFRTS27QA2_PUB|52=20180625-16:58:10.467|56=TRAX|10=089|8=FIXT.1.1|9=68|35=0|34=699|49=HEMAMTFRTS27QA2_PUB|52=20180625-16:58:41.465|56=TRAX|10=092|8=FIXT.1.1|9=68|35=0|34=700|49=HEMAMTFRTS27QA2_PUB|52=20180625-16:59:11.471|56=TRAX|10=070|8=FIXT.1.1|9=68|35=0|34=701|49=HEMAMTFRTS27QA2_PUB|52=20180625-16:59:42.472|56=TRAX|10=076|8=FIXT.1.1|9=68|35=0|34=702|49=HEMAMTFRTS27QA2_PUB|52=20180625-17:00:13.464|56=TRAX|10=063|8=FIXT.1.1|9=68|35=0|34=703|49=HEMAMTFRTS27QA2_PUB|52=20180625-17:00:43.472|56=TRAX|10=066|8=FIXT.1.1|9=68|35=0|34=704|49=HEMAMTFRTS27QA2_PUB|52=20180625-17:01:14.466|56=TRAX|10=069|8=FIXT.1.1|9=68|35=0|34=705|49=HEMAMTFRTS27QA2_PUB|52=20180625-17:01:44.468|56=TRAX|10=075|8=FIXT.1.1|9=68|35=0|34=706|49=HEMAMTFRTS27QA2_PUB|52=20180625-17:02:15.461|56=TRAX|10=068|8=FIXT.1.1|9=68|35=0|34=707|49=HEMAMTFRTS27QA2_PUB|52=20180625-17:02:46.469|56=TRAX|10=081|8=FIXT.1.1|9=68|35=0|34=708|49=HEMAMTFRTS27QA2_PUB|52=20180625-17:03:16.469|56=TRAX|10=080|8=FIXT.1.1|9=68|35=0|34=709|49=HEMAMTFRTS27QA2_PUB|52=20180625-17:03:46.469|56=TRAX|10=084|8=FIXT.1.1|9=68|35=0|34=710|49=HEMAMTFRTS27QA2_PUB|52=20180625-17:04:17.463|56=TRAX|10=069|8=FIXT.1.1|9=68|35=0|34=711|49=HEMAMTFRTS27QA2_PUB|52=20180625-17:04:47.470|56=TRAX|10=071|8=FIXT.1.1|9=68|35=0|34=712|49=HEMAMTFRTS27QA2_PUB|52=20180625-17:05:17.471|56=TRAX|10=071|8=FIXT.1.1|9=68|35=0|34=713|49=HEMAMTFRTS27QA2_PUB|52=20180625-17:05:48.463|56=TRAX|10=077|8=FIXT.1.1|9=68|35=0|34=714|49=HEMAMTFRTS27QA2_PUB|52=20180625-17:06:18.467|56=TRAX|10=080|8=FIXT.1.1|9=68|35=0|34=715|49=HEMAMTFRTS27QA2_PUB|52=20180625-17:06:49.463|56=TRAX|10=081|8=FIXT.1.1|9=68|35=0|34=716|49=HEMAMTFRTS27QA2_PUB|52=20180625-17:07:19.467|56=TRAX|10=084|8=FIXT.1.1|9=68|35=0|34=717|49=HEMAMTFRTS27QA2_PUB|52=20180625-17:07:50.466|56=TRAX|10=079|8=FIXT.1.1|9=68|35=0|34=718|49=HEMAMTFRTS27QA2_PUB|52=20180625-17:08:21.459|56=TRAX|10=081|8=FIXT.1.1|9=68|35=0|34=719|49=HEMAMTFRTS27QA2_PUB|52=20180625-17:08:51.462|56=TRAX|10=079|8=FIXT.1.1|9=68|35=0|34=720|49=HEMAMTFRTS27QA2_PUB|52=20180625-17:09:21.462|56=TRAX|10=069|8=FIXT.1.1|9=68|35=0|34=721|49=HEMAMTFRTS27QA2_PUB|52=20180625-17:09:51.467|56=TRAX|10=078|8=FIXT.1.1|9=68|35=0|34=722|49=HEMAMTFRTS27QA2_PUB|52=20180625-17:10:22.465|56=TRAX|10=067|8=FIXT.1.1|9=68|35=0|34=723|49=HEMAMTFRTS27QA2_PUB|52=20180625-17:10:53.461|56=TRAX|10=068|8=FIXT.1.1|9=68|35=0|34=724|49=HEMAMTFRTS27QA2_PUB|52=20180625-17:11:23.461|56=TRAX|10=067|8=FIXT.1.1|9=68|35=0|34=725|49=HEMAMTFRTS27QA2_PUB|52=20180625-17:11:54.460|56=TRAX|10=071|8=FIXT.1.1|9=68|35=0|34=726|49=HEMAMTFRTS27QA2_PUB|52=20180625-17:12:25.460|56=TRAX|10=071|8=FIXT.1.1|9=68|35=0|34=727|49=HEMAMTFRTS27QA2_PUB|52=20180625-17:12:56.454|56=TRAX|10=079|8=FIXT.1.1|9=68|35=0|34=728|49=HEMAMTFRTS27QA2_PUB|52=20180625-17:13:26.460|56=TRAX|10=075|8=FIXT.1.1|9=68|35=0|34=729|49=HEMAMTFRTS27QA2_PUB|52=20180625-17:13:56.463|56=TRAX|10=082|8=FIXT.1.1|9=68|35=0|34=730|49=HEMAMTFRTS27QA2_PUB|52=20180625-17:14:27.465|56=TRAX|10=075|8=FIXT.1.1|9=68|35=0|34=731|49=HEMAMTFRTS27QA2_PUB|52=20180625-17:14:58.461|56=TRAX|10=076|8=FIXT.1.1|9=68|35=0|34=732|49=HEMAMTFRTS27QA2_PUB|52=20180625-17:15:29.465|56=TRAX|10=080|8=FIXT.1.1|9=68|35=0|34=733|49=HEMAMTFRTS27QA2_PUB|52=20180625-17:16:00.464|56=TRAX|10=070|8=FIXT.1.1|9=68|35=0|34=734|49=HEMAMTFRTS27QA2_PUB|52=20180625-17:16:31.453|56=TRAX|10=073|8=FIXT.1.1|9=68|35=0|34=735|49=HEMAMTFRTS27QA2_PUB|52=20180625-17:17:01.458|56=TRAX|10=077|8=FIXT.1.1|9=68|35=0|34=736|49=HEMAMTFRTS27QA2_PUB|52=20180625-17:17:31.464|56=TRAX|10=078|8=FIXT.1.1|9=68|35=0|34=737|49=HEMAMTFRTS27QA2_PUB|52=20180625-17:18:02.464|56=TRAX|10=078|8=FIXT.1.1|9=68|35=0|34=738|49=HEMAMTFRTS27QA2_PUB|52=20180625-17:18:33.458|56=TRAX|10=086|8=FIXT.1.1|9=68|35=0|34=739|49=HEMAMTFRTS27QA2_PUB|52=20180625-17:19:03.465|56=TRAX|10=083|8=FIXT.1.1|9=68|35=0|34=740|49=HEMAMTFRTS27QA2_PUB|52=20180625-17:19:34.453|56=TRAX|10=076|8=FIXT.1.1|9=68|35=0|34=741|49=HEMAMTFRTS27QA2_PUB|52=20180625-17:20:04.463|56=TRAX|10=067|8=FIXT.1.1|9=68|35=0|34=742|49=HEMAMTFRTS27QA2_PUB|52=20180625-17:20:35.457|56=TRAX|10=075|8=FIXT.1.1|9=68|35=0|34=743|49=HEMAMTFRTS27QA2_PUB|52=20180625-17:21:06.456|56=TRAX|10=074|8=FIXT.1.1|9=68|35=0|34=744|49=HEMAMTFRTS27QA2_PUB|52=20180625-17:21:37.464|56=TRAX|10=078|8=FIXT.1.1|9=68|35=0|34=745|49=HEMAMTFRTS27QA2_PUB|52=20180625-17:22:08.457|56=TRAX|10=080|8=FIXT.1.1|9=68|35=0|34=746|49=HEMAMTFRTS27QA2_PUB|52=20180625-17:22:38.463|56=TRAX|10=081|8=FIXT.1.1|9=68|35=0|34=747|49=HEMAMTFRTS27QA2_PUB|52=20180625-17:23:09.456|56=TRAX|10=083|8=FIXT.1.1|9=68|35=0|34=748|49=HEMAMTFRTS27QA2_PUB|52=20180625-17:23:40.456|56=TRAX|10=079|8=FIXT.1.1|9=68|35=0|34=749|49=HEMAMTFRTS27QA2_PUB|52=20180625-17:24:10.459|56=TRAX|10=081|8=FIXT.1.1|9=68|35=0|34=750|49=HEMAMTFRTS27QA2_PUB|52=20180625-17:24:41.457|56=TRAX|10=075|8=FIXT.1.1|9=68|35=0|34=751|49=HEMAMTFRTS27QA2_PUB|52=20180625-17:25:12.460|56=TRAX|10=069|8=FIXT.1.1|9=68|35=0|34=752|49=HEMAMTFRTS27QA2_PUB|52=20180625-17:25:43.460|56=TRAX|10=074|8=FIXT.1.1|9=68|35=0|34=753|49=HEMAMTFRTS27QA2_PUB|52=20180625-17:26:14.461|56=TRAX|10=075|8=FIXT.1.1|9=68|35=0|34=754|49=HEMAMTFRTS27QA2_PUB|52=20180625-17:26:44.869|56=TRAX|10=091|8=FIXT.1.1|9=68|35=0|34=755|49=HEMAMTFRTS27QA2_PUB|52=20180625-17:27:15.461|56=TRAX|10=079|8=FIXT.1.1|9=68|35=0|34=756|49=HEMAMTFRTS27QA2_PUB|52=20180625-17:27:46.452|56=TRAX|10=084|8=FIXT.1.1|9=68|35=0|34=757|49=HEMAMTFRTS27QA2_PUB|52=20180625-17:28:16.458|56=TRAX|10=089|8=FIXT.1.1|9=68|35=0|34=758|49=HEMAMTFRTS27QA2_PUB|52=20180625-17:28:46.458|56=TRAX|10=093|8=FIXT.1.1|9=68|35=0|34=759|49=HEMAMTFRTS27QA2_PUB|52=20180625-17:29:17.454|56=TRAX|10=089|8=FIXT.1.1|9=68|35=0|34=760|49=HEMAMTFRTS27QA2_PUB|52=20180625-17:29:48.452|56=TRAX|10=083|8=FIXT.1.1|9=68|35=0|34=761|49=HEMAMTFRTS27QA2_PUB|52=20180625-17:30:18.452|56=TRAX|10=073|8=FIXT.1.1|9=68|35=0|34=762|49=HEMAMTFRTS27QA2_PUB|52=20180625-17:30:48.453|56=TRAX|10=078|8=FIXT.1.1|9=68|35=0|34=763|49=HEMAMTFRTS27QA2_PUB|52=20180625-17:31:19.453|56=TRAX|10=078|8=FIXT.1.1|9=68|35=0|34=764|49=HEMAMTFRTS27QA2_PUB|52=20180625-17:31:49.454|56=TRAX|10=083|8=FIXT.1.1|9=68|35=0|34=765|49=HEMAMTFRTS27QA2_PUB|52=20180625-17:32:20.458|56=TRAX|10=078|8=FIXT.1.1|9=68|35=0|34=766|49=HEMAMTFRTS27QA2_PUB|52=20180625-17:32:50.459|56=TRAX|10=083|8=FIXT.1.1|9=68|35=0|34=767|49=HEMAMTFRTS27QA2_PUB|52=20180625-17:33:21.452|56=TRAX|10=076|8=FIXT.1.1|9=68|35=0|34=768|49=HEMAMTFRTS27QA2_PUB|52=20180625-17:33:52.453|56=TRAX|10=082|8=FIXT.1.1|9=68|35=0|34=769|49=HEMAMTFRTS27QA2_PUB|52=20180625-17:34:23.444|56=TRAX|10=082|8=FIXT.1.1|9=68|35=0|34=770|49=HEMAMTFRTS27QA2_PUB|52=20180625-17:34:53.452|56=TRAX|10=076|8=FIXT.1.1|9=68|35=0|34=771|49=HEMAMTFRTS27QA2_PUB|52=20180625-17:35:23.457|56=TRAX|10=080|8=FIXT.1.1|9=68|35=0|34=772|49=HEMAMTFRTS27QA2_PUB|52=20180625-17:35:54.456|56=TRAX|10=084|8=FIXT.1.1|9=68|35=0|34=773|49=HEMAMTFRTS27QA2_PUB|52=20180625-17:36:24.458|56=TRAX|10=085|8=FIXT.1.1|9=68|35=0|34=774|49=HEMAMTFRTS27QA2_PUB|52=20180625-17:36:55.449|56=TRAX|10=090|8=FIXT.1.1|9=68|35=0|34=775|49=HEMAMTFRTS27QA2_PUB|52=20180625-17:37:26.459|56=TRAX|10=091|8=FIXT.1.1|9=68|35=0|34=776|49=HEMAMTFRTS27QA2_PUB|52=20180625-17:37:57.450|56=TRAX|10=087|8=FIXT.1.1|9=68|35=0|34=777|49=HEMAMTFRTS27QA2_PUB|52=20180625-17:38:27.454|56=TRAX|10=090|8=FIXT.1.1|9=68|35=0|34=778|49=HEMAMTFRTS27QA2_PUB|52=20180625-17:38:57.454|56=TRAX|10=094|8=FIXT.1.1|9=68|35=0|34=779|49=HEMAMTFRTS27QA2_PUB|52=20180625-17:39:28.445|56=TRAX|10=094|8=FIXT.1.1|9=68|35=0|34=780|49=HEMAMTFRTS27QA2_PUB|52=20180625-17:39:58.450|56=TRAX|10=085|8=FIXT.1.1|9=68|35=0|34=781|49=HEMAMTFRTS27QA2_PUB|52=20180625-17:40:29.449|56=TRAX|10=084|8=FIXT.1.1|9=68|35=0|34=782|49=HEMAMTFRTS27QA2_PUB|52=20180625-17:40:59.449|56=TRAX|10=088|8=FIXT.1.1|9=68|35=0|34=783|49=HEMAMTFRTS27QA2_PUB|52=20180625-17:41:29.449|56=TRAX|10=087|8=FIXT.1.1|9=68|35=0|34=784|49=HEMAMTFRTS27QA2_PUB|52=20180625-17:41:59.449|56=TRAX|10=091|8=FIXT.1.1|9=68|35=0|34=785|49=HEMAMTFRTS27QA2_PUB|52=20180625-17:42:29.449|56=TRAX|10=090|8=FIXT.1.1|9=68|35=0|34=786|49=HEMAMTFRTS27QA2_PUB|52=20180625-17:42:59.450|56=TRAX|10=086|8=FIXT.1.1|9=68|35=0|34=787|49=HEMAMTFRTS27QA2_PUB|52=20180625-17:43:30.451|56=TRAX|10=078|8=FIXT.1.1|9=68|35=0|34=788|49=HEMAMTFRTS27QA2_PUB|52=20180625-17:44:00.452|56=TRAX|10=078|8=FIXT.1.1|9=68|35=0|34=789|49=HEMAMTFRTS27QA2_PUB|52=20180625-17:44:30.452|56=TRAX|10=082|8=FIXT.1.1|9=68|35=0|34=790|49=HEMAMTFRTS27QA2_PUB|52=20180625-17:45:01.448|56=TRAX|10=078|8=FIXT.1.1|9=68|35=0|34=791|49=HEMAMTFRTS27QA2_PUB|52=20180625-17:45:31.450|56=TRAX|10=075|8=FIXT.1.1|9=68|35=0|34=792|49=HEMAMTFRTS27QA2_PUB|52=20180625-17:46:02.441|56=TRAX|10=075|8=FIXT.1.1|9=68|35=0|34=793|49=HEMAMTFRTS27QA2_PUB|52=20180625-17:46:32.447|56=TRAX|10=085|8=FIXT.1.1|9=68|35=0|34=794|49=HEMAMTFRTS27QA2_PUB|52=20180625-17:47:02.447|56=TRAX|10=084|8=FIXT.1.1|9=68|35=0|34=795|49=HEMAMTFRTS27QA2_PUB|52=20180625-17:47:33.447|56=TRAX|10=089|8=FIXT.1.1|9=68|35=0|34=796|49=HEMAMTFRTS27QA2_PUB|52=20180625-17:48:04.443|56=TRAX|10=085|8=FIXT.1.1|9=68|35=0|34=797|49=HEMAMTFRTS27QA2_PUB|52=20180625-17:48:35.439|56=TRAX|10=095|8=FIXT.1.1|9=68|35=0|34=798|49=HEMAMTFRTS27QA2_PUB|52=20180625-17:49:05.446|56=TRAX|10=092|8=FIXT.1.1|9=68|35=0|34=799|49=HEMAMTFRTS27QA2_PUB|52=20180625-17:49:36.450|56=TRAX|10=092|8=FIXT.1.1|9=68|35=0|34=800|49=HEMAMTFRTS27QA2_PUB|52=20180625-17:50:07.452|56=TRAX|10=067|8=FIXT.1.1|9=68|35=0|34=801|49=HEMAMTFRTS27QA2_PUB|52=20180625-17:50:38.449|56=TRAX|10=078|8=FIXT.1.1|9=68|35=0|34=802|49=HEMAMTFRTS27QA2_PUB|52=20180625-17:51:09.446|56=TRAX|10=075|8=FIXT.1.1|9=68|35=0|34=803|49=HEMAMTFRTS27QA2_PUB|52=20180625-17:51:40.452|56=TRAX|10=068|8=FIXT.1.1|9=68|35=0|34=804|49=HEMAMTFRTS27QA2_PUB|52=20180625-17:52:11.443|56=TRAX|10=068|8=FIXT.1.1|9=68|35=0|34=805|49=HEMAMTFRTS27QA2_PUB|52=20180625-17:52:41.444|56=TRAX|10=073|8=FIXT.1.1|9=68|35=0|34=806|49=HEMAMTFRTS27QA2_PUB|52=20180625-17:53:12.440|56=TRAX|10=069|8=FIXT.1.1|9=68|35=0|34=807|49=HEMAMTFRTS27QA2_PUB|52=20180625-17:53:43.446|56=TRAX|10=080|8=FIXT.1.1|9=68|35=0|34=808|49=HEMAMTFRTS27QA2_PUB|52=20180625-17:54:14.450|56=TRAX|10=075|8=FIXT.1.1|9=68|35=0|34=809|49=HEMAMTFRTS27QA2_PUB|52=20180625-17:54:44.867|56=TRAX|10=091|8=FIXT.1.1|9=68|35=0|34=810|49=HEMAMTFRTS27QA2_PUB|52=20180625-17:55:15.451|56=TRAX|10=071|8=FIXT.1.1|9=68|35=0|34=811|49=HEMAMTFRTS27QA2_PUB|52=20180625-17:55:46.436|56=TRAX|10=079|8=FIXT.1.1|9=68|35=0|34=812|49=HEMAMTFRTS27QA2_PUB|52=20180625-17:56:16.444|56=TRAX|10=077|8=FIXT.1.1|9=68|35=0|34=813|49=HEMAMTFRTS27QA2_PUB|52=20180625-17:56:47.438|56=TRAX|10=085|8=FIXT.1.1|9=68|35=0|34=814|49=HEMAMTFRTS27QA2_PUB|52=20180625-17:57:17.442|56=TRAX|10=079|8=FIXT.1.1|9=68|35=0|34=815|49=HEMAMTFRTS27QA2_PUB|52=20180625-17:57:47.447|56=TRAX|10=088|8=FIXT.1.1|9=68|35=0|34=816|49=HEMAMTFRTS27QA2_PUB|52=20180625-17:58:18.442|56=TRAX|10=083|8=FIXT.1.1|9=68|35=0|34=817|49=HEMAMTFRTS27QA2_PUB|52=20180625-17:58:48.446|56=TRAX|10=091|8=FIXT.1.1|9=68|35=0|34=818|49=HEMAMTFRTS27QA2_PUB|52=20180625-17:59:19.448|56=TRAX|10=093|8=FIXT.1.1|9=68|35=0|34=819|49=HEMAMTFRTS27QA2_PUB|52=20180625-17:59:50.449|56=TRAX|10=090|8=FIXT.1.1|9=68|35=0|34=820|49=HEMAMTFRTS27QA2_PUB|52=20180625-18:00:20.450|56=TRAX|10=058|8=FIXT.1.1|9=68|35=0|34=821|49=HEMAMTFRTS27QA2_PUB|52=20180625-18:00:51.439|56=TRAX|10=070|8=FIXT.1.1|9=68|35=0|34=822|49=HEMAMTFRTS27QA2_PUB|52=20180625-18:01:21.442|56=TRAX|10=063|8=FIXT.1.1|9=68|35=0|34=823|49=HEMAMTFRTS27QA2_PUB|52=20180625-18:01:52.447|56=TRAX|10=073|8=FIXT.1.1|9=68|35=0|34=824|49=HEMAMTFRTS27QA2_PUB|52=20180625-18:02:23.442|56=TRAX|10=068|8=FIXT.1.1|9=68|35=0|34=825|49=HEMAMTFRTS27QA2_PUB|52=20180625-18:02:54.441|56=TRAX|10=072|8=FIXT.1.1|9=68|35=0|34=826|49=HEMAMTFRTS27QA2_PUB|52=20180625-18:03:24.446|56=TRAX|10=076|8=FIXT.1.1|9=68|35=0|34=827|49=HEMAMTFRTS27QA2_PUB|52=20180625-18:03:54.448|56=TRAX|10=082|8=FIXT.1.1|9=68|35=0|34=828|49=HEMAMTFRTS27QA2_PUB|52=20180625-18:04:25.441|56=TRAX|10=075|8=FIXT.1.1|9=68|35=0|34=829|49=HEMAMTFRTS27QA2_PUB|52=20180625-18:04:56.440|56=TRAX|10=079|8=FIXT.1.1|9=68|35=0|34=830|49=HEMAMTFRTS27QA2_PUB|52=20180625-18:05:26.440|56=TRAX|10=069|8=FIXT.1.1|9=68|35=0|34=831|49=HEMAMTFRTS27QA2_PUB|52=20180625-18:05:56.441|56=TRAX|10=074|8=FIXT.1.1|9=68|35=0|34=832|49=HEMAMTFRTS27QA2_PUB|52=20180625-18:06:27.446|56=TRAX|10=079|8=FIXT.1.1|9=68|35=0|34=833|49=HEMAMTFRTS27QA2_PUB|52=20180625-18:06:58.444|56=TRAX|10=082|8=FIXT.1.1|9=68|35=0|34=834|49=HEMAMTFRTS27QA2_PUB|52=20180625-18:07:29.439|56=TRAX|10=086|8=FIXT.1.1|9=68|35=0|34=835|49=HEMAMTFRTS27QA2_PUB|52=20180625-18:08:00.440|56=TRAX|10=069|8=FIXT.1.1|9=68|35=0|34=836|49=HEMAMTFRTS27QA2_PUB|52=20180625-18:08:30.443|56=TRAX|10=076|8=FIXT.1.1|9=68|35=0|34=837|49=HEMAMTFRTS27QA2_PUB|52=20180625-18:09:00.444|56=TRAX|10=076|8=FIXT.1.1|9=68|35=0|34=838|49=HEMAMTFRTS27QA2_PUB|52=20180625-18:09:31.434|56=TRAX|10=080|8=FIXT.1.1|9=68|35=0|34=839|49=HEMAMTFRTS27QA2_PUB|52=20180625-18:10:01.438|56=TRAX|10=074|8=FIXT.1.1|9=68|35=0|34=840|49=HEMAMTFRTS27QA2_PUB|52=20180625-18:10:32.442|56=TRAX|10=065|8=FIXT.1.1|9=68|35=0|34=841|49=HEMAMTFRTS27QA2_PUB|52=20180625-18:11:03.445|56=TRAX|10=068|8=FIXT.1.1|9=68|35=0|34=842|49=HEMAMTFRTS27QA2_PUB|52=20180625-18:11:34.443|56=TRAX|10=071|8=FIXT.1.1|9=68|35=0|34=843|49=HEMAMTFRTS27QA2_PUB|52=20180625-18:12:04.443|56=TRAX|10=070|8=FIXT.1.1|9=68|35=0|34=844|49=HEMAMTFRTS27QA2_PUB|52=20180625-18:12:35.434|56=TRAX|10=075|8=FIXT.1.1|9=68|35=0|34=845|49=HEMAMTFRTS27QA2_PUB|52=20180625-18:13:05.436|56=TRAX|10=076|8=FIXT.1.1|9=68|35=0|34=846|49=HEMAMTFRTS27QA2_PUB|52=20180625-18:13:35.440|56=TRAX|10=075|8=FIXT.1.1|9=68|35=0|34=847|49=HEMAMTFRTS27QA2_PUB|52=20180625-18:14:06.442|56=TRAX|10=077|8=FIXT.1.1|9=68|35=0|34=848|49=HEMAMTFRTS27QA2_PUB|52=20180625-18:14:37.436|56=TRAX|10=085|8=FIXT.1.1|9=68|35=0|34=849|49=HEMAMTFRTS27QA2_PUB|52=20180625-18:15:08.444|56=TRAX|10=084|8=FIXT.1.1|9=68|35=0|34=850|49=HEMAMTFRTS27QA2_PUB|52=20180625-18:15:39.433|56=TRAX|10=078|8=FIXT.1.1|9=68|35=0|34=851|49=HEMAMTFRTS27QA2_PUB|52=20180625-18:16:09.436|56=TRAX|10=080|8=FIXT.1.1|9=68|35=0|34=852|49=HEMAMTFRTS27QA2_PUB|52=20180625-18:16:39.442|56=TRAX|10=081|8=FIXT.1.1|9=68|35=0|34=853|49=HEMAMTFRTS27QA2_PUB|52=20180625-18:17:10.434|56=TRAX|10=073|8=FIXT.1.1|9=68|35=0|34=854|49=HEMAMTFRTS27QA2_PUB|52=20180625-18:17:40.435|56=TRAX|10=078|8=FIXT.1.1|9=68|35=0|34=855|49=HEMAMTFRTS27QA2_PUB|52=20180625-18:18:10.438|56=TRAX|10=080|8=FIXT.1.1|9=68|35=0|34=856|49=HEMAMTFRTS27QA2_PUB|52=20180625-18:18:41.427|56=TRAX|10=083|8=FIXT.1.1|9=68|35=0|34=857|49=HEMAMTFRTS27QA2_PUB|52=20180625-18:19:11.432|56=TRAX|10=078|8=FIXT.1.1|9=68|35=0|34=858|49=HEMAMTFRTS27QA2_PUB|52=20180625-18:19:41.434|56=TRAX|10=084|8=FIXT.1.1|9=68|35=0|34=859|49=HEMAMTFRTS27QA2_PUB|52=20180625-18:20:11.442|56=TRAX|10=073|8=FIXT.1.1|9=68|35=0|34=860|49=HEMAMTFRTS27QA2_PUB|52=20180625-18:20:42.428|56=TRAX|10=073|8=FIXT.1.1|9=68|35=0|34=861|49=HEMAMTFRTS27QA2_PUB|52=20180625-18:21:12.428|56=TRAX|10=072|8=FIXT.1.1|9=68|35=0|34=862|49=HEMAMTFRTS27QA2_PUB|52=20180625-18:21:42.428|56=TRAX|10=076|8=FIXT.1.1|9=68|35=0|34=863|49=HEMAMTFRTS27QA2_PUB|52=20180625-18:22:12.438|56=TRAX|10=076|8=FIXT.1.1|9=68|35=0|34=864|49=HEMAMTFRTS27QA2_PUB|52=20180625-18:22:43.429|56=TRAX|10=081|8=FIXT.1.1|9=68|35=0|34=865|49=HEMAMTFRTS27QA2_PUB|52=20180625-18:23:13.433|56=TRAX|10=075|8=FIXT.1.1|9=68|35=0|34=866|49=HEMAMTFRTS27QA2_PUB|52=20180625-18:23:44.433|56=TRAX|10=080|8=FIXT.1.1|9=68|35=0|34=867|49=HEMAMTFRTS27QA2_PUB|52=20180625-18:24:15.433|56=TRAX|10=080|8=FIXT.1.1|9=68|35=0|34=868|49=HEMAMTFRTS27QA2_PUB|52=20180625-18:24:45.433|56=TRAX|10=084|8=FIXT.1.1|9=68|35=0|34=869|49=HEMAMTFRTS27QA2_PUB|52=20180625-18:25:15.862|56=TRAX|10=089|8=FIXT.1.1|9=68|35=0|34=870|49=HEMAMTFRTS27QA2_PUB|52=20180625-18:25:45.870|56=TRAX|10=083|8=FIXT.1.1|9=68|35=0|34=871|49=HEMAMTFRTS27QA2_PUB|52=20180625-18:26:16.433|56=TRAX|10=078|8=FIXT.1.1|9=68|35=0|34=872|49=HEMAMTFRTS27QA2_PUB|52=20180625-18:26:47.437|56=TRAX|10=087|8=FIXT.1.1|9=68|35=0|34=873|49=HEMAMTFRTS27QA2_PUB|52=20180625-18:27:18.434|56=TRAX|10=084|8=FIXT.1.1|9=68|35=0|34=874|49=HEMAMTFRTS27QA2_PUB|52=20180625-18:27:49.431|56=TRAX|10=086|8=FIXT.1.1|9=68|35=0|34=875|49=HEMAMTFRTS27QA2_PUB|52=20180625-18:28:19.435|56=TRAX|10=089|8=FIXT.1.1|9=68|35=0|34=876|49=HEMAMTFRTS27QA2_PUB|52=20180625-18:28:50.437|56=TRAX|10=087|8=FIXT.1.1|9=68|35=0|34=877|49=HEMAMTFRTS27QA2_PUB|52=20180625-18:29:20.438|56=TRAX|10=087|8=FIXT.1.1|9=68|35=0|34=878|49=HEMAMTFRTS27QA2_PUB|52=20180625-18:29:50.438|56=TRAX|10=091|8=FIXT.1.1|9=68|35=0|34=879|49=HEMAMTFRTS27QA2_PUB|52=20180625-18:30:21.430|56=TRAX|10=074|8=FIXT.1.1|9=68|35=0|34=880|49=HEMAMTFRTS27QA2_PUB|52=20180625-18:30:52.431|56=TRAX|10=071|8=FIXT.1.1|9=68|35=0|34=881|49=HEMAMTFRTS27QA2_PUB|52=20180625-18:31:23.435|56=TRAX|10=075|8=FIXT.1.1|9=68|35=0|34=882|49=HEMAMTFRTS27QA2_PUB|52=20180625-18:31:54.431|56=TRAX|10=076|8=FIXT.1.1|9=68|35=0|34=883|49=HEMAMTFRTS27QA2_PUB|52=20180625-18:32:25.430|56=TRAX|10=075|8=FIXT.1.1|9=68|35=0|34=884|49=HEMAMTFRTS27QA2_PUB|52=20180625-18:32:55.430|56=TRAX|10=079|8=FIXT.1.1|9=68|35=0|34=885|49=HEMAMTFRTS27QA2_PUB|52=20180625-18:33:26.430|56=TRAX|10=079|8=FIXT.1.1|9=68|35=0|34=886|49=HEMAMTFRTS27QA2_PUB|52=20180625-18:33:56.430|56=TRAX|10=083|8=FIXT.1.1|9=68|35=0|34=887|49=HEMAMTFRTS27QA2_PUB|52=20180625-18:34:26.431|56=TRAX|10=083|8=FIXT.1.1|9=68|35=0|34=888|49=HEMAMTFRTS27QA2_PUB|52=20180625-18:34:57.429|56=TRAX|10=095|8=FIXT.1.1|9=68|35=0|34=889|49=HEMAMTFRTS27QA2_PUB|52=20180625-18:35:27.433|56=TRAX|10=089|8=FIXT.1.1|9=68|35=0|34=890|49=HEMAMTFRTS27QA2_PUB|52=20180625-18:35:58.430|56=TRAX|10=082|8=FIXT.1.1|9=68|35=0|34=891|49=HEMAMTFRTS27QA2_PUB|52=20180625-18:36:29.429|56=TRAX|10=090|8=FIXT.1.1|9=68|35=0|34=892|49=HEMAMTFRTS27QA2_PUB|52=20180625-18:37:00.429|56=TRAX|10=081|8=FIXT.1.1|9=68|35=0|34=893|49=HEMAMTFRTS27QA2_PUB|52=20180625-18:37:31.424|56=TRAX|10=081|8=FIXT.1.1|9=68|35=0|34=894|49=HEMAMTFRTS27QA2_PUB|52=20180625-18:38:01.428|56=TRAX|10=084|8=FIXT.1.1|9=68|35=0|34=895|49=HEMAMTFRTS27QA2_PUB|52=20180625-18:38:31.432|56=TRAX|10=083|8=FIXT.1.1|9=68|35=0|34=896|49=HEMAMTFRTS27QA2_PUB|52=20180625-18:39:02.431|56=TRAX|10=082|8=FIXT.1.1|9=68|35=0|34=897|49=HEMAMTFRTS27QA2_PUB|52=20180625-18:39:33.428|56=TRAX|10=093|8=FIXT.1.1|9=68|35=0|34=898|49=HEMAMTFRTS27QA2_PUB|52=20180625-18:40:04.430|56=TRAX|10=077|8=FIXT.1.1|9=68|35=0|34=899|49=HEMAMTFRTS27QA2_PUB|52=20180625-18:40:35.436|56=TRAX|10=088|8=FIXT.1.1|9=68|35=0|34=900|49=HEMAMTFRTS27QA2_PUB|52=20180625-18:41:06.428|56=TRAX|10=071|8=FIXT.1.1|9=68|35=0|34=901|49=HEMAMTFRTS27QA2_PUB|52=20180625-18:41:36.435|56=TRAX|10=073|8=FIXT.1.1|9=68|35=0|34=902|49=HEMAMTFRTS27QA2_PUB|52=20180625-18:42:07.432|56=TRAX|10=070|8=FIXT.1.1|9=68|35=0|34=903|49=HEMAMTFRTS27QA2_PUB|52=20180625-18:42:38.428|56=TRAX|10=080|8=FIXT.1.1|9=68|35=0|34=904|49=HEMAMTFRTS27QA2_PUB|52=20180625-18:43:08.428|56=TRAX|10=079|8=FIXT.1.1|9=68|35=0|34=905|49=HEMAMTFRTS27QA2_PUB|52=20180625-18:43:38.434|56=TRAX|10=080|8=FIXT.1.1|9=68|35=0|34=906|49=HEMAMTFRTS27QA2_PUB|52=20180625-18:44:09.427|56=TRAX|10=082|8=FIXT.1.1|9=68|35=0|34=907|49=HEMAMTFRTS27QA2_PUB|52=20180625-18:44:39.428|56=TRAX|10=087|8=FIXT.1.1|9=68|35=0|34=908|49=HEMAMTFRTS27QA2_PUB|52=20180625-18:45:10.430|56=TRAX|10=071|8=FIXT.1.1|9=68|35=0|34=909|49=HEMAMTFRTS27QA2_PUB|52=20180625-18:45:41.426|56=TRAX|10=081|8=FIXT.1.1|9=68|35=0|34=910|49=HEMAMTFRTS27QA2_PUB|52=20180625-18:46:11.430|56=TRAX|10=066|8=FIXT.1.1|9=68|35=0|34=911|49=HEMAMTFRTS27QA2_PUB|52=20180625-18:46:42.426|56=TRAX|10=076|8=FIXT.1.1|9=68|35=0|34=912|49=HEMAMTFRTS27QA2_PUB|52=20180625-18:47:12.430|56=TRAX|10=070|8=FIXT.1.1|9=68|35=0|34=913|49=HEMAMTFRTS27QA2_PUB|52=20180625-18:47:43.431|56=TRAX|10=076|8=FIXT.1.1|9=68|35=0|34=914|49=HEMAMTFRTS27QA2_PUB|52=20180625-18:48:14.421|56=TRAX|10=075|8=FIXT.1.1|9=68|35=0|34=915|49=HEMAMTFRTS27QA2_PUB|52=20180625-18:48:45.427|56=TRAX|10=086|8=FIXT.1.1|9=68|35=0|34=916|49=HEMAMTFRTS27QA2_PUB|52=20180625-18:49:15.863|56=TRAX|10=089|8=FIXT.1.1|9=68|35=0|34=917|49=HEMAMTFRTS27QA2_PUB|52=20180625-18:49:45.863|56=TRAX|10=093|8=FIXT.1.1|9=68|35=0|34=918|49=HEMAMTFRTS27QA2_PUB|52=20180625-18:50:16.424|56=TRAX|10=077|8=FIXT.1.1|9=68|35=0|34=919|49=HEMAMTFRTS27QA2_PUB|52=20180625-18:50:46.426|56=TRAX|10=083|8=FIXT.1.1|9=68|35=0|34=920|49=HEMAMTFRTS27QA2_PUB|52=20180625-18:51:17.425|56=TRAX|10=073|8=FIXT.1.1|9=68|35=0|34=921|49=HEMAMTFRTS27QA2_PUB|52=20180625-18:51:47.429|56=TRAX|10=081|8=FIXT.1.1|9=68|35=0|34=922|49=HEMAMTFRTS27QA2_PUB|52=20180625-18:52:18.431|56=TRAX|10=074|8=FIXT.1.1|9=68|35=0|34=923|49=HEMAMTFRTS27QA2_PUB|52=20180625-18:52:49.423|56=TRAX|10=080|8=FIXT.1.1|9=68|35=0|34=924|49=HEMAMTFRTS27QA2_PUB|52=20180625-18:53:19.429|56=TRAX|10=085|8=FIXT.1.1|9=68|35=0|34=925|49=HEMAMTFRTS27QA2_PUB|52=20180625-18:53:50.426|56=TRAX|10=078|8=FIXT.1.1|9=68|35=0|34=926|49=HEMAMTFRTS27QA2_PUB|52=20180625-18:54:21.425|56=TRAX|10=077|8=FIXT.1.1|9=68|35=0|34=927|49=HEMAMTFRTS27QA2_PUB|52=20180625-18:54:51.430|56=TRAX|10=077|8=FIXT.1.1|9=68|35=0|34=928|49=HEMAMTFRTS27QA2_PUB|52=20180625-18:55:22.419|56=TRAX|10=084|8=FIXT.1.1|9=68|35=0|34=929|49=HEMAMTFRTS27QA2_PUB|52=20180625-18:55:52.428|56=TRAX|10=088|8=FIXT.1.1|9=68|35=0|34=930|49=HEMAMTFRTS27QA2_PUB|52=20180625-18:56:23.415|56=TRAX|10=075|8=FIXT.1.1|9=68|35=0|34=931|49=HEMAMTFRTS27QA2_PUB|52=20180625-18:56:53.422|56=TRAX|10=077|8=FIXT.1.1|9=68|35=0|34=932|49=HEMAMTFRTS27QA2_PUB|52=20180625-18:57:23.428|56=TRAX|10=082|8=FIXT.1.1|9=68|35=0|34=933|49=HEMAMTFRTS27QA2_PUB|52=20180625-18:57:54.429|56=TRAX|10=088|8=FIXT.1.1|9=68|35=0|34=934|49=HEMAMTFRTS27QA2_PUB|52=20180625-18:58:25.422|56=TRAX|10=081|8=FIXT.1.1|9=68|35=0|34=935|49=HEMAMTFRTS27QA2_PUB|52=20180625-18:58:56.429|56=TRAX|10=093|8=FIXT.1.1|9=68|35=0|34=936|49=HEMAMTFRTS27QA2_PUB|52=20180625-18:59:27.426|56=TRAX|10=090|8=FIXT.1.1|9=68|35=0|34=937|49=HEMAMTFRTS27QA2_PUB|52=20180625-18:59:58.425|56=TRAX|10=094|8=FIXT.1.1|9=68|35=0|34=938|49=HEMAMTFRTS27QA2_PUB|52=20180625-19:00:29.421|56=TRAX|10=076|8=FIXT.1.1|9=68|35=0|34=939|49=HEMAMTFRTS27QA2_PUB|52=20180625-19:01:00.423|56=TRAX|10=069|8=FIXT.1.1|9=68|35=0|34=940|49=HEMAMTFRTS27QA2_PUB|52=20180625-19:01:31.413|56=TRAX|10=064|8=FIXT.1.1|9=68|35=0|34=941|49=HEMAMTFRTS27QA2_PUB|52=20180625-19:02:01.420|56=TRAX|10=061|8=FIXT.1.1|9=68|35=0|34=942|49=HEMAMTFRTS27QA2_PUB|52=20180625-19:02:31.427|56=TRAX|10=072|8=FIXT.1.1|9=68|35=0|34=943|49=HEMAMTFRTS27QA2_PUB|52=20180625-19:03:02.424|56=TRAX|10=069|8=FIXT.1.1|9=68|35=0|34=944|49=HEMAMTFRTS27QA2_PUB|52=20180625-19:03:33.419|56=TRAX|10=078|8=FIXT.1.1|9=68|35=0|34=945|49=HEMAMTFRTS27QA2_PUB|52=20180625-19:04:03.427|56=TRAX|10=076|8=FIXT.1.1|9=68|35=0|34=946|49=HEMAMTFRTS27QA2_PUB|52=20180625-19:04:34.420|56=TRAX|10=074|8=FIXT.1.1|9=68|35=0|34=947|49=HEMAMTFRTS27QA2_PUB|52=20180625-19:05:04.425|56=TRAX|10=078|8=FIXT.1.1|9=68|35=0|34=948|49=HEMAMTFRTS27QA2_PUB|52=20180625-19:05:35.412|56=TRAX|10=079|8=FIXT.1.1|9=68|35=0|34=949|49=HEMAMTFRTS27QA2_PUB|52=20180625-19:06:05.419|56=TRAX|10=085|8=FIXT.1.1|9=68|35=0|34=950|49=HEMAMTFRTS27QA2_PUB|52=20180625-19:06:35.419|56=TRAX|10=080|8=FIXT.1.1|9=68|35=0|34=951|49=HEMAMTFRTS27QA2_PUB|52=20180625-19:07:05.419|56=TRAX|10=079|8=FIXT.1.1|9=68|35=0|34=952|49=HEMAMTFRTS27QA2_PUB|52=20180625-19:07:35.423|56=TRAX|10=078|8=FIXT.1.1|9=68|35=0|34=953|49=HEMAMTFRTS27QA2_PUB|52=20180625-19:08:06.423|56=TRAX|10=078|8=FIXT.1.1|9=68|35=0|34=954|49=HEMAMTFRTS27QA2_PUB|52=20180625-19:08:37.418|56=TRAX|10=087|8=FIXT.1.1|9=68|35=0|34=955|49=HEMAMTFRTS27QA2_PUB|52=20180625-19:09:08.418|56=TRAX|10=087|8=FIXT.1.1|9=68|35=0|34=956|49=HEMAMTFRTS27QA2_PUB|52=20180625-19:09:39.422|56=TRAX|10=087|8=FIXT.1.1|9=68|35=0|34=957|49=HEMAMTFRTS27QA2_PUB|52=20180625-19:10:10.417|56=TRAX|10=073|8=FIXT.1.1|9=68|35=0|34=958|49=HEMAMTFRTS27QA2_PUB|52=20180625-19:10:40.421|56=TRAX|10=072|8=FIXT.1.1|9=68|35=0|34=959|49=HEMAMTFRTS27QA2_PUB|52=20180625-19:11:11.424|56=TRAX|10=075|8=FIXT.1.1|9=68|35=0|34=960|49=HEMAMTFRTS27QA2_PUB|52=20180625-19:11:42.422|56=TRAX|10=069|8=FIXT.1.1|9=68|35=0|34=961|49=HEMAMTFRTS27QA2_PUB|52=20180625-19:12:13.417|56=TRAX|10=073|8=FIXT.1.1|9=68|35=0|34=962|49=HEMAMTFRTS27QA2_PUB|52=20180625-19:12:44.417|56=TRAX|10=078|8=FIXT.1.1|9=68|35=0|34=963|49=HEMAMTFRTS27QA2_PUB|52=20180625-19:13:14.418|56=TRAX|10=078|8=FIXT.1.1|9=68|35=0|34=964|49=HEMAMTFRTS27QA2_PUB|52=20180625-19:13:45.415|56=TRAX|10=080|8=FIXT.1.1|9=68|35=0|34=965|49=HEMAMTFRTS27QA2_PUB|52=20180625-19:14:15.422|56=TRAX|10=077|8=FIXT.1.1|9=68|35=0|34=966|49=HEMAMTFRTS27QA2_PUB|52=20180625-19:14:46.413|56=TRAX|10=082|8=FIXT.1.1|9=68|35=0|34=967|49=HEMAMTFRTS27QA2_PUB|52=20180625-19:15:16.421|56=TRAX|10=080|8=FIXT.1.1|9=68|35=0|34=968|49=HEMAMTFRTS27QA2_PUB|52=20180625-19:15:47.416|56=TRAX|10=089|8=FIXT.1.1|9=68|35=0|34=969|49=HEMAMTFRTS27QA2_PUB|52=20180625-19:16:17.868|56=TRAX|10=099|8=FIXT.1.1|9=68|35=0|34=970|49=HEMAMTFRTS27QA2_PUB|52=20180625-19:16:48.406|56=TRAX|10=083|8=FIXT.1.1|9=68|35=0|34=971|49=HEMAMTFRTS27QA2_PUB|52=20180625-19:17:18.422|56=TRAX|10=080|8=FIXT.1.1|9=68|35=0|34=972|49=HEMAMTFRTS27QA2_PUB|52=20180625-19:17:49.418|56=TRAX|10=090|8=FIXT.1.1|9=68|35=0|34=973|49=HEMAMTFRTS27QA2_PUB|52=20180625-19:18:20.416|56=TRAX|10=079|8=FIXT.1.1|9=68|35=0|34=974|49=HEMAMTFRTS27QA2_PUB|52=20180625-19:18:51.419|56=TRAX|10=087|8=FIXT.1.1|9=68|35=0|34=975|49=HEMAMTFRTS27QA2_PUB|52=20180625-19:19:22.415|56=TRAX|10=083|8=FIXT.1.1|9=68|35=0|34=976|49=HEMAMTFRTS27QA2_PUB|52=20180625-19:19:53.413|56=TRAX|10=086|8=FIXT.1.1|9=68|35=0|34=977|49=HEMAMTFRTS27QA2_PUB|52=20180625-19:20:23.417|56=TRAX|10=080|8=FIXT.1.1|9=68|35=0|34=978|49=HEMAMTFRTS27QA2_PUB|52=20180625-19:20:54.412|56=TRAX|10=080|8=FIXT.1.1|9=68|35=0|34=979|49=HEMAMTFRTS27QA2_PUB|52=20180625-19:21:25.412|56=TRAX|10=080|8=FIXT.1.1|9=68|35=0|34=980|49=HEMAMTFRTS27QA2_PUB|52=20180625-19:21:55.416|56=TRAX|10=079|8=FIXT.1.1|9=68|35=0|34=981|49=HEMAMTFRTS27QA2_PUB|52=20180625-19:22:26.412|56=TRAX|10=075|8=FIXT.1.1|9=68|35=0|34=982|49=HEMAMTFRTS27QA2_PUB|52=20180625-19:22:56.414|56=TRAX|10=081|8=FIXT.1.1|9=68|35=0|34=983|49=HEMAMTFRTS27QA2_PUB|52=20180625-19:23:27.416|56=TRAX|10=083|8=FIXT.1.1|9=68|35=0|34=984|49=HEMAMTFRTS27QA2_PUB|52=20180625-19:23:58.419|56=TRAX|10=091|8=FIXT.1.1|9=68|35=0|34=985|49=HEMAMTFRTS27QA2_PUB|52=20180625-19:24:29.411|56=TRAX|10=083|8=FIXT.1.1|9=68|35=0|34=986|49=HEMAMTFRTS27QA2_PUB|52=20180625-19:25:00.412|56=TRAX|10=075|8=FIXT.1.1|9=68|35=0|34=987|49=HEMAMTFRTS27QA2_PUB|52=20180625-19:25:30.419|56=TRAX|10=086|8=FIXT.1.1|9=68|35=0|34=988|49=HEMAMTFRTS27QA2_PUB|52=20180625-19:26:01.417|56=TRAX|10=084|8=FIXT.1.1|9=68|35=0|34=989|49=HEMAMTFRTS27QA2_PUB|52=20180625-19:26:32.404|56=TRAX|10=085|8=FIXT.1.1|9=68|35=0|34=990|49=HEMAMTFRTS27QA2_PUB|52=20180625-19:27:02.411|56=TRAX|10=073|8=FIXT.1.1|9=68|35=0|34=991|49=HEMAMTFRTS27QA2_PUB|52=20180625-19:27:33.410|56=TRAX|10=077|8=FIXT.1.1|9=68|35=0|34=992|49=HEMAMTFRTS27QA2_PUB|52=20180625-19:28:03.410|56=TRAX|10=076|8=FIXT.1.1|9=68|35=0|34=993|49=HEMAMTFRTS27QA2_PUB|52=20180625-19:28:34.410|56=TRAX|10=081|8=FIXT.1.1|9=68|35=0|34=994|49=HEMAMTFRTS27QA2_PUB|52=20180625-19:29:05.410|56=TRAX|10=081|8=FIXT.1.1|9=68|35=0|34=995|49=HEMAMTFRTS27QA2_PUB|52=20180625-19:29:35.415|56=TRAX|10=090|8=FIXT.1.1|9=68|35=0|34=996|49=HEMAMTFRTS27QA2_PUB|52=20180625-19:30:06.402|56=TRAX|10=077|8=FIXT.1.1|9=68|35=0|34=997|49=HEMAMTFRTS27QA2_PUB|52=20180625-19:30:36.409|56=TRAX|10=088|8=FIXT.1.1|9=68|35=0|34=998|49=HEMAMTFRTS27QA2_PUB|52=20180625-19:31:07.407|56=TRAX|10=086|8=FIXT.1.1|9=68|35=0|34=999|49=HEMAMTFRTS27QA2_PUB|52=20180625-19:31:37.410|56=TRAX|10=084|8=FIXT.1.1|9=69|35=0|34=1000|49=HEMAMTFRTS27QA2_PUB|52=20180625-19:32:08.414|56=TRAX|10=110|8=FIXT.1.1|9=69|35=0|34=1001|49=HEMAMTFRTS27QA2_PUB|52=20180625-19:32:39.415|56=TRAX|10=116|8=FIXT.1.1|9=69|35=0|34=1002|49=HEMAMTFRTS27QA2_PUB|52=20180625-19:33:10.401|56=TRAX|10=102|8=FIXT.1.1|9=69|35=0|34=1003|49=HEMAMTFRTS27QA2_PUB|52=20180625-19:33:40.402|56=TRAX|10=107|8=FIXT.1.1|9=69|35=0|34=1004|49=HEMAMTFRTS27QA2_PUB|52=20180625-19:34:10.413|56=TRAX|10=108|8=FIXT.1.1|9=69|35=0|34=1005|49=HEMAMTFRTS27QA2_PUB|52=20180625-19:34:41.407|56=TRAX|10=116|8=FIXT.1.1|9=69|35=0|34=1006|49=HEMAMTFRTS27QA2_PUB|52=20180625-19:35:11.415|56=TRAX|10=114|8=FIXT.1.1|9=69|35=0|34=1007|49=HEMAMTFRTS27QA2_PUB|52=20180625-19:35:42.409|56=TRAX|10=122|8=FIXT.1.1|9=69|35=0|34=1008|49=HEMAMTFRTS27QA2_PUB|52=20180625-19:36:13.409|56=TRAX|10=122|8=FIXT.1.1|9=69|35=0|34=1009|49=HEMAMTFRTS27QA2_PUB|52=20180625-19:36:44.407|56=TRAX|10=125|8=FIXT.1.1|9=69|35=0|34=1010|49=HEMAMTFRTS27QA2_PUB|52=20180625-19:37:14.412|56=TRAX|10=111|8=FIXT.1.1|9=69|35=0|34=1011|49=HEMAMTFRTS27QA2_PUB|52=20180625-19:37:45.407|56=TRAX|10=120|8=FIXT.1.1|9=69|35=0|34=1012|49=HEMAMTFRTS27QA2_PUB|52=20180625-19:38:15.414|56=TRAX|10=117|8=FIXT.1.1|9=69|35=0|34=1013|49=HEMAMTFRTS27QA2_PUB|52=20180625-19:38:46.406|56=TRAX|10=123|8=FIXT.1.1|9=69|35=0|34=1014|49=HEMAMTFRTS27QA2_PUB|52=20180625-19:39:16.413|56=TRAX|10=120|8=FIXT.1.1|9=69|35=0|34=1015|49=HEMAMTFRTS27QA2_PUB|52=20180625-19:39:47.406|56=TRAX|10=127|8=FIXT.1.1|9=69|35=0|34=1016|49=HEMAMTFRTS27QA2_PUB|52=20180625-19:40:17.407|56=TRAX|10=118|8=FIXT.1.1|9=69|35=0|34=1017|49=HEMAMTFRTS27QA2_PUB|52=20180625-19:40:48.402|56=TRAX|10=118|8=FIXT.1.1|9=69|35=0|34=1018|49=HEMAMTFRTS27QA2_PUB|52=20180625-19:41:18.409|56=TRAX|10=124|8=FIXT.1.1|9=69|35=0|34=1019|49=HEMAMTFRTS27QA2_PUB|52=20180625-19:41:48.859|56=TRAX|10=137|8=FIXT.1.1|9=69|35=0|34=1020|49=HEMAMTFRTS27QA2_PUB|52=20180625-19:42:19.402|56=TRAX|10=112|8=FIXT.1.1|9=69|35=0|34=1021|49=HEMAMTFRTS27QA2_PUB|52=20180625-19:42:50.411|56=TRAX|10=108|8=FIXT.1.1|9=69|35=0|34=1022|49=HEMAMTFRTS27QA2_PUB|52=20180625-19:43:21.404|56=TRAX|10=110|8=FIXT.1.1|9=69|35=0|34=1023|49=HEMAMTFRTS27QA2_PUB|52=20180625-19:43:52.397|56=TRAX|10=126|8=FIXT.1.1|9=69|35=0|34=1024|49=HEMAMTFRTS27QA2_PUB|52=20180625-19:44:22.406|56=TRAX|10=116|8=FIXT.1.1|9=69|35=0|34=1025|49=HEMAMTFRTS27QA2_PUB|52=20180625-19:44:53.405|56=TRAX|10=120|8=FIXT.1.1|9=69|35=0|34=1026|49=HEMAMTFRTS27QA2_PUB|52=20180625-19:45:24.408|56=TRAX|10=123|8=FIXT.1.1|9=69|35=0|34=1027|49=HEMAMTFRTS27QA2_PUB|52=20180625-19:45:55.407|56=TRAX|10=127|8=FIXT.1.1|9=69|35=0|34=1028|49=HEMAMTFRTS27QA2_PUB|52=20180625-19:46:26.409|56=TRAX|10=129|8=FIXT.1.1|9=69|35=0|34=1029|49=HEMAMTFRTS27QA2_PUB|52=20180625-19:46:57.403|56=TRAX|10=128|8=FIXT.1.1|9=69|35=0|34=1030|49=HEMAMTFRTS27QA2_PUB|52=20180625-19:47:27.407|56=TRAX|10=122|8=FIXT.1.1|9=69|35=0|34=1031|49=HEMAMTFRTS27QA2_PUB|52=20180625-19:47:58.410|56=TRAX|10=121|8=FIXT.1.1|9=69|35=0|34=1032|49=HEMAMTFRTS27QA2_PUB|52=20180625-19:48:29.403|56=TRAX|10=123|8=FIXT.1.1|9=69|35=0|34=1033|49=HEMAMTFRTS27QA2_PUB|52=20180625-19:49:00.402|56=TRAX|10=113|8=FIXT.1.1|9=69|35=0|34=1034|49=HEMAMTFRTS27QA2_PUB|52=20180625-19:49:31.404|56=TRAX|10=120|8=FIXT.1.1|9=69|35=0|34=1035|49=HEMAMTFRTS27QA2_PUB|52=20180625-19:50:02.402|56=TRAX|10=109|8=FIXT.1.1|9=69|35=0|34=1036|49=HEMAMTFRTS27QA2_PUB|52=20180625-19:50:33.399|56=TRAX|10=129|8=FIXT.1.1|9=69|35=0|34=1037|49=HEMAMTFRTS27QA2_PUB|52=20180625-19:51:03.408|56=TRAX|10=119|8=FIXT.1.1|9=69|35=0|34=1038|49=HEMAMTFRTS27QA2_PUB|52=20180625-19:51:34.409|56=TRAX|10=125|8=FIXT.1.1|9=69|35=0|34=1039|49=HEMAMTFRTS27QA2_PUB|52=20180625-19:52:05.401|56=TRAX|10=117|8=FIXT.1.1|9=69|35=0|34=1040|49=HEMAMTFRTS27QA2_PUB|52=20180625-19:52:36.399|56=TRAX|10=129|8=FIXT.1.1|9=69|35=0|34=1041|49=HEMAMTFRTS27QA2_PUB|52=20180625-19:53:07.401|56=TRAX|10=113|8=FIXT.1.1|9=69|35=0|34=1042|49=HEMAMTFRTS27QA2_PUB|52=20180625-19:53:38.399|56=TRAX|10=134|8=FIXT.1.1|9=69|35=0|34=1043|49=HEMAMTFRTS27QA2_PUB|52=20180625-19:54:09.402|56=TRAX|10=119|8=FIXT.1.1|9=69|35=0|34=1044|49=HEMAMTFRTS27QA2_PUB|52=20180625-19:54:39.407|56=TRAX|10=128|8=FIXT.1.1|9=69|35=0|34=1045|49=HEMAMTFRTS27QA2_PUB|52=20180625-19:55:10.402|56=TRAX|10=114|8=FIXT.1.1|9=69|35=0|34=1046|49=HEMAMTFRTS27QA2_PUB|52=20180625-19:55:40.404|56=TRAX|10=120|8=FIXT.1.1|9=69|35=0|34=1047|49=HEMAMTFRTS27QA2_PUB|52=20180625-19:56:10.404|56=TRAX|10=119|8=FIXT.1.1|9=69|35=0|34=1048|49=HEMAMTFRTS27QA2_PUB|52=20180625-19:56:41.400|56=TRAX|10=120|8=FIXT.1.1|9=69|35=0|34=1049|49=HEMAMTFRTS27QA2_PUB|52=20180625-19:57:11.401|56=TRAX|10=120|8=FIXT.1.1|9=69|35=0|34=1050|49=HEMAMTFRTS27QA2_PUB|52=20180625-19:57:42.395|56=TRAX|10=128|8=FIXT.1.1|9=69|35=0|34=1051|49=HEMAMTFRTS27QA2_PUB|52=20180625-19:58:13.403|56=TRAX|10=118|8=FIXT.1.1|9=69|35=0|34=1052|49=HEMAMTFRTS27QA2_PUB|52=20180625-19:58:44.393|56=TRAX|10=131|8=FIXT.1.1|9=69|35=0|34=1053|49=HEMAMTFRTS27QA2_PUB|52=20180625-19:59:14.395|56=TRAX|10=132|8=FIXT.1.1|9=69|35=0|34=1054|49=HEMAMTFRTS27QA2_PUB|52=20180625-19:59:44.404|56=TRAX|10=127|8=FIXT.1.1|9=69|35=0|34=1055|49=HEMAMTFRTS27QA2_PUB|52=20180625-20:00:14.404|56=TRAX|10=103|8=FIXT.1.1|9=69|35=0|34=1056|49=HEMAMTFRTS27QA2_PUB|52=20180625-20:00:44.405|56=TRAX|10=108|8=FIXT.1.1|9=69|35=0|34=1057|49=HEMAMTFRTS27QA2_PUB|52=20180625-20:01:15.390|56=TRAX|10=111|8=FIXT.1.1|9=69|35=0|34=1058|49=HEMAMTFRTS27QA2_PUB|52=20180625-20:01:45.397|56=TRAX|10=122|8=FIXT.1.1|9=69|35=0|34=1059|49=HEMAMTFRTS27QA2_PUB|52=20180625-20:02:15.398|56=TRAX|10=122|8=FIXT.1.1|9=69|35=0|34=1060|49=HEMAMTFRTS27QA2_PUB|52=20180625-20:02:46.402|56=TRAX|10=104|8=FIXT.1.1|9=69|35=0|34=1061|49=HEMAMTFRTS27QA2_PUB|52=20180625-20:03:17.397|56=TRAX|10=117|8=FIXT.1.1|9=69|35=0|34=1062|49=HEMAMTFRTS27QA2_PUB|52=20180625-20:03:47.404|56=TRAX|10=110|8=FIXT.1.1|9=69|35=0|34=1063|49=HEMAMTFRTS27QA2_PUB|52=20180625-20:04:18.400|56=TRAX|10=106|8=FIXT.1.1|9=69|35=0|34=1064|49=HEMAMTFRTS27QA2_PUB|52=20180625-20:04:48.860|56=TRAX|10=120|8=FIXT.1.1|9=69|35=0|34=1065|49=HEMAMTFRTS27QA2_PUB|52=20180625-20:05:18.869|56=TRAX|10=128|8=FIXT.1.1|9=69|35=0|34=1066|49=HEMAMTFRTS27QA2_PUB|52=20180625-20:05:49.400|56=TRAX|10=114|8=FIXT.1.1|9=69|35=0|34=1067|49=HEMAMTFRTS27QA2_PUB|52=20180625-20:06:20.403|56=TRAX|10=108|8=FIXT.1.1|9=69|35=0|34=1068|49=HEMAMTFRTS27QA2_PUB|52=20180625-20:06:51.402|56=TRAX|10=112|8=FIXT.1.1|9=69|35=0|34=1069|49=HEMAMTFRTS27QA2_PUB|52=20180625-20:07:22.391|56=TRAX|10=119|8=FIXT.1.1|9=69|35=0|34=1070|49=HEMAMTFRTS27QA2_PUB|52=20180625-20:07:52.402|56=TRAX|10=107|8=FIXT.1.1|9=69|35=0|34=1071|49=HEMAMTFRTS27QA2_PUB|52=20180625-20:08:23.398|56=TRAX|10=121|8=FIXT.1.1|9=69|35=0|34=1072|49=HEMAMTFRTS27QA2_PUB|52=20180625-20:08:54.387|56=TRAX|10=124|8=FIXT.1.1|9=69|35=0|34=1073|49=HEMAMTFRTS27QA2_PUB|52=20180625-20:09:24.395|56=TRAX|10=122|8=FIXT.1.1|9=69|35=0|34=1074|49=HEMAMTFRTS27QA2_PUB|52=20180625-20:09:55.399|56=TRAX|10=131|8=FIXT.1.1|9=69|35=0|34=1075|49=HEMAMTFRTS27QA2_PUB|52=20180625-20:10:26.387|56=TRAX|10=119|8=FIXT.1.1|9=69|35=0|34=1076|49=HEMAMTFRTS27QA2_PUB|52=20180625-20:10:56.387|56=TRAX|10=123|8=FIXT.1.1|9=69|35=0|34=1077|49=HEMAMTFRTS27QA2_PUB|52=20180625-20:11:26.387|56=TRAX|10=122|8=FIXT.1.1|9=69|35=0|34=1078|49=HEMAMTFRTS27QA2_PUB|52=20180625-20:11:56.389|56=TRAX|10=128|8=FIXT.1.1|9=69|35=0|34=1079|49=HEMAMTFRTS27QA2_PUB|52=20180625-20:12:26.398|56=TRAX|10=127|8=FIXT.1.1|9=69|35=0|34=1080|49=HEMAMTFRTS27QA2_PUB|52=20180625-20:12:57.393|56=TRAX|10=118|8=FIXT.1.1|9=69|35=0|34=1081|49=HEMAMTFRTS27QA2_PUB|52=20180625-20:13:27.397|56=TRAX|10=121|8=FIXT.1.1|9=69|35=0|34=1082|49=HEMAMTFRTS27QA2_PUB|52=20180625-20:13:58.386|56=TRAX|10=124|8=FIXT.1.1|9=69|35=0|34=1083|49=HEMAMTFRTS27QA2_PUB|52=20180625-20:14:28.386|56=TRAX|10=123|8=FIXT.1.1|9=69|35=0|34=1084|49=HEMAMTFRTS27QA2_PUB|52=20180625-20:14:59.390|56=TRAX|10=123|8=FIXT.1.1|9=69|35=0|34=1085|49=HEMAMTFRTS27QA2_PUB|52=20180625-20:15:29.392|56=TRAX|10=124|8=FIXT.1.1|9=69|35=0|34=1086|49=HEMAMTFRTS27QA2_PUB|52=20180625-20:15:59.396|56=TRAX|10=132|8=FIXT.1.1|9=69|35=0|34=1087|49=HEMAMTFRTS27QA2_PUB|52=20180625-20:16:29.397|56=TRAX|10=132|8=FIXT.1.1|9=69|35=0|34=1088|49=HEMAMTFRTS27QA2_PUB|52=20180625-20:17:00.392|56=TRAX|10=118|8=FIXT.1.1|9=69|35=0|34=1089|49=HEMAMTFRTS27QA2_PUB|52=20180625-20:17:31.389|56=TRAX|10=129|8=FIXT.1.1|9=69|35=0|34=1090|49=HEMAMTFRTS27QA2_PUB|52=20180625-20:18:01.393|56=TRAX|10=114|8=FIXT.1.1|9=69|35=0|34=1091|49=HEMAMTFRTS27QA2_PUB|52=20180625-20:18:32.389|56=TRAX|10=124|8=FIXT.1.1|9=69|35=0|34=1092|49=HEMAMTFRTS27QA2_PUB|52=20180625-20:19:03.390|56=TRAX|10=116|8=FIXT.1.1|9=69|35=0|34=1093|49=HEMAMTFRTS27QA2_PUB|52=20180625-20:19:33.392|56=TRAX|10=122|8=FIXT.1.1|9=69|35=0|34=1094|49=HEMAMTFRTS27QA2_PUB|52=20180625-20:20:03.394|56=TRAX|10=114|8=FIXT.1.1|9=69|35=0|34=1095|49=HEMAMTFRTS27QA2_PUB|52=20180625-20:20:34.397|56=TRAX|10=122|8=FIXT.1.1|9=69|35=0|34=1096|49=HEMAMTFRTS27QA2_PUB|52=20180625-20:21:05.391|56=TRAX|10=116|8=FIXT.1.1|9=69|35=0|34=1097|49=HEMAMTFRTS27QA2_PUB|52=20180625-20:21:35.394|56=TRAX|10=123|8=FIXT.1.1|9=69|35=0|34=1098|49=HEMAMTFRTS27QA2_PUB|52=20180625-20:22:06.386|56=TRAX|10=124|8=FIXT.1.1|9=69|35=0|34=1099|49=HEMAMTFRTS27QA2_