8=FIXT.1.1|9=100|35=A|34=1|49=HEMAAPA|52=20170912-16:03:19.306|56=TRAX|98=0|108=30|95=11|96=1.0.0rc11.2|141=Y|1137=9|10=083|8=FIXT.1.1|9=54|35=0|34=2|49=HEMAAPA|52=20170912-16:03:49.306|56=TRAX|10=086|8=FIXT.1.1|9=54|35=0|34=3|49=HEMAAPA|52=20170912-16:04:19.310|56=TRAX|10=080|8=FIXT.1.1|9=465|35=AE|34=4|49=HEMAAPA|50=APA|57=APA|52=20170912-16:04:20.304|56=TRAX|571=TradeReport1|487=0|325=Y|423=22|55=[N/A]|48=RIMATESTEQ98|22=4|32=1000|31=299|60=20170908-11:20:13.370|552=1|54=1|29=1|1041=QA3Testing21076079-01|1390=2|996=Bbl|997=H|1147=100088434|22800=1|1934=0|1116=3|1117=0292002098B6I1G8B633|1118=N|1119=116|1117=MAEL|1118=G|1119=73|1117=0292002098B6I1G8B633|1118=N|1119=1|15=GBP|120=GBP|1924=1|22600=250|22601=GBP|854=1|231=10|30=XOFF|22801=1|22802=SIZE|10=092|8=FIXT.1.1|9=54|35=0|34=5|49=HEMAAPA|52=20170912-16:04:51.286|56=TRAX|10=090|8=FIXT.1.1|9=54|35=0|34=6|49=HEMAAPA|52=20170912-16:05:21.303|56=TRAX|10=079|8=FIXT.1.1|9=54|35=0|34=7|49=HEMAAPA|52=20170912-16:05:51.436|56=TRAX|10=090|8=FIXT.1.1|9=54|35=0|34=8|49=HEMAAPA|52=20170912-16:06:21.476|56=TRAX|10=093|8=FIXT.1.1|9=54|35=0|34=9|49=HEMAAPA|52=20170912-16:06:52.311|56=TRAX|10=086|8=FIXT.1.1|9=55|35=0|34=10|49=HEMAAPA|52=20170912-16:07:22.436|56=TRAX|10=133|8=FIXT.1.1|9=55|35=0|34=11|49=HEMAAPA|52=20170912-16:07:52.464|56=TRAX|10=138|8=FIXT.1.1|9=55|35=0|34=12|49=HEMAAPA|52=20170912-16:08:23.286|56=TRAX|10=140|8=FIXT.1.1|9=55|35=0|34=13|49=HEMAAPA|52=20170912-16:08:53.293|56=TRAX|10=142|8=FIXT.1.1|9=55|35=0|34=14|49=HEMAAPA|52=20170912-16:09:24.286|56=TRAX|10=144|8=FIXT.1.1|9=55|35=0|34=15|49=HEMAAPA|52=20170912-16:09:55.285|56=TRAX|10=148|8=FIXT.1.1|9=55|35=0|34=16|49=HEMAAPA|52=20170912-16:10:25.308|56=TRAX|10=134|8=FIXT.1.1|9=55|35=0|34=17|49=HEMAAPA|52=20170912-16:10:56.313|56=TRAX|10=135|8=FIXT.1.1|9=55|35=0|34=18|49=HEMAAPA|52=20170912-16:11:27.305|56=TRAX|10=136|8=FIXT.1.1|9=55|35=0|34=19|49=HEMAAPA|52=20170912-16:11:57.314|56=TRAX|10=140|8=FIXT.1.1|9=466|35=AE|34=20|49=HEMAAPA|50=APA|57=APA|52=20170912-16:12:23.609|56=TRAX|571=TradeReport1|487=0|325=Y|423=22|55=[N/A]|48=RIMATESTEQ98|22=4|32=1000|31=299|60=20170908-11:20:13.370|552=1|54=1|29=1|1041=QA3Testing21076079-02|1390=2|996=Bbl|997=H|1147=100088434|22800=1|1934=0|1116=3|1117=0292002098B6I1G8B633|1118=N|1119=116|1117=MAEL|1118=G|1119=73|1117=0292002098B6I1G8B633|1118=N|1119=1|15=GBP|120=GBP|1924=1|22600=250|22601=GBP|854=1|231=10|30=XOFF|22801=1|22802=SIZE|10=150|8=FIXT.1.1|9=55|35=0|34=21|49=HEMAAPA|52=20170912-16:12:54.312|56=TRAX|10=129|8=FIXT.1.1|9=55|35=0|34=22|49=HEMAAPA|52=20170912-16:13:24.443|56=TRAX|10=133|8=FIXT.1.1|9=55|35=0|34=23|49=HEMAAPA|52=20170912-16:13:54.529|56=TRAX|10=142|8=FIXT.1.1|9=55|35=0|34=24|49=HEMAAPA|52=20170912-16:14:24.535|56=TRAX|10=138|8=FIXT.1.1|9=55|35=0|34=25|49=HEMAAPA|52=20170912-16:14:55.313|56=TRAX|10=137|8=FIXT.1.1|9=55|35=0|34=26|49=HEMAAPA|52=20170912-16:15:25.323|56=TRAX|10=137|8=FIXT.1.1|9=55|35=0|34=27|49=HEMAAPA|52=20170912-16:15:55.325|56=TRAX|10=143|8=FIXT.1.1|9=55|35=0|34=28|49=HEMAAPA|52=20170912-16:16:25.468|56=TRAX|10=150|8=FIXT.1.1|9=55|35=0|34=29|49=HEMAAPA|52=20170912-16:16:56.304|56=TRAX|10=144|8=FIXT.1.1|9=55|35=0|34=30|49=HEMAAPA|52=20170912-16:17:26.331|56=TRAX|10=134|8=FIXT.1.1|9=55|35=0|34=31|49=HEMAAPA|52=20170912-16:17:57.336|56=TRAX|10=144|8=FIXT.1.1|9=55|35=0|34=32|49=HEMAAPA|52=20170912-16:18:27.340|56=TRAX|10=138|8=FIXT.1.1|9=55|35=0|34=33|49=HEMAAPA|52=20170912-16:18:58.339|56=TRAX|10=151|8=FIXT.1.1|9=55|35=0|34=34|49=HEMAAPA|52=20170912-16:19:28.339|56=TRAX|10=150|8=FIXT.1.1|9=55|35=0|34=35|49=HEMAAPA|52=20170912-16:19:59.345|56=TRAX|10=152|8=FIXT.1.1|9=55|35=0|34=36|49=HEMAAPA|52=20170912-16:20:30.342|56=TRAX|10=131|8=FIXT.1.1|9=55|35=0|34=37|49=HEMAAPA|52=20170912-16:21:00.344|56=TRAX|10=132|8=FIXT.1.1|9=55|35=0|34=38|49=HEMAAPA|52=20170912-16:21:31.343|56=TRAX|10=136|8=FIXT.1.1|9=55|35=0|34=39|49=HEMAAPA|52=20170912-16:22:02.344|56=TRAX|10=137|8=FIXT.1.1|9=55|35=0|34=40|49=HEMAAPA|52=20170912-16:22:33.347|56=TRAX|10=136|8=FIXT.1.1|9=55|35=0|34=41|49=HEMAAPA|52=20170912-16:23:04.349|56=TRAX|10=138|8=FIXT.1.1|9=55|35=0|34=42|49=HEMAAPA|52=20170912-16:23:34.355|56=TRAX|10=139|8=FIXT.1.1|9=55|35=0|34=43|49=HEMAAPA|52=20170912-16:24:04.356|56=TRAX|10=139|8=FIXT.1.1|9=55|35=0|34=44|49=HEMAAPA|52=20170912-16:24:35.357|56=TRAX|10=145|8=FIXT.1.1|9=55|35=0|34=45|49=HEMAAPA|52=20170912-16:25:06.354|56=TRAX|10=142|8=FIXT.1.1|9=55|35=0|34=46|49=HEMAAPA|52=20170912-16:25:36.356|56=TRAX|10=148|8=FIXT.1.1|9=55|35=0|34=47|49=HEMAAPA|52=20170912-16:26:07.359|56=TRAX|10=151|8=FIXT.1.1|9=55|35=0|34=48|49=HEMAAPA|52=20170912-16:26:38.362|56=TRAX|10=150|8=FIXT.1.1|9=55|35=0|34=49|49=HEMAAPA|52=20170912-16:27:09.363|56=TRAX|10=151|8=FIXT.1.1|9=55|35=0|34=50|49=HEMAAPA|52=20170912-16:27:40.358|56=TRAX|10=142|8=FIXT.1.1|9=55|35=0|34=51|49=HEMAAPA|52=20170912-16:28:11.362|56=TRAX|10=137|8=FIXT.1.1|9=55|35=0|34=52|49=HEMAAPA|52=20170912-16:28:41.366|56=TRAX|10=145|8=FIXT.1.1|9=55|35=0|34=53|49=HEMAAPA|52=20170912-16:29:11.368|56=TRAX|10=146|8=FIXT.1.1|9=55|35=0|34=54|49=HEMAAPA|52=20170912-16:29:42.364|56=TRAX|10=147|8=FIXT.1.1|9=55|35=0|34=55|49=HEMAAPA|52=20170912-16:30:12.364|56=TRAX|10=137|8=FIXT.1.1|9=55|35=0|34=56|49=HEMAAPA|52=20170912-16:30:43.366|56=TRAX|10=144|8=FIXT.1.1|9=55|35=0|34=57|49=HEMAAPA|52=20170912-16:31:13.368|56=TRAX|10=145|8=FIXT.1.1|9=55|35=0|34=58|49=HEMAAPA|52=20170912-16:31:43.370|56=TRAX|10=142|8=FIXT.1.1|9=55|35=0|34=59|49=HEMAAPA|52=20170912-16:32:13.370|56=TRAX|10=141|8=FIXT.1.1|9=55|35=0|34=60|49=HEMAAPA|52=20170912-16:32:44.369|56=TRAX|10=145|8=FIXT.1.1|9=55|35=0|34=61|49=HEMAAPA|52=20170912-16:33:15.362|56=TRAX|10=138|8=FIXT.1.1|9=55|35=0|34=62|49=HEMAAPA|52=20170912-16:33:45.373|56=TRAX|10=144|8=FIXT.1.1|9=55|35=0|34=63|49=HEMAAPA|52=20170912-16:34:15.374|56=TRAX|10=144|8=FIXT.1.1|9=55|35=0|34=64|49=HEMAAPA|52=20170912-16:34:45.376|56=TRAX|10=150|8=FIXT.1.1|9=55|35=0|34=65|49=HEMAAPA|52=20170912-16:35:16.369|56=TRAX|10=152|8=FIXT.1.1|9=55|35=0|34=66|49=HEMAAPA|52=20170912-16:35:47.378|56=TRAX|10=157|8=FIXT.1.1|9=55|35=0|34=67|49=HEMAAPA|52=20170912-16:36:18.370|56=TRAX|10=149|8=FIXT.1.1|9=55|35=0|34=68|49=HEMAAPA|52=20170912-16:36:48.374|56=TRAX|10=157|8=FIXT.1.1|9=55|35=0|34=69|49=HEMAAPA|52=20170912-16:37:18.376|56=TRAX|10=158|8=FIXT.1.1|9=55|35=0|34=70|49=HEMAAPA|52=20170912-16:37:48.378|56=TRAX|10=155|8=FIXT.1.1|9=55|35=0|34=71|49=HEMAAPA|52=20170912-16:38:18.378|56=TRAX|10=154|8=FIXT.1.1|9=55|35=0|34=72|49=HEMAAPA|52=20170912-16:38:49.372|56=TRAX|10=153|8=FIXT.1.1|9=55|35=0|34=73|49=HEMAAPA|52=20170912-16:39:19.373|56=TRAX|10=153|8=FIXT.1.1|9=55|35=0|34=74|49=HEMAAPA|52=20170912-16:39:49.383|56=TRAX|10=158|8=FIXT.1.1|9=55|35=0|34=75|49=HEMAAPA|52=20170912-16:40:20.383|56=TRAX|10=140|8=FIXT.1.1|9=55|35=0|34=76|49=HEMAAPA|52=20170912-16:40:51.382|56=TRAX|10=144|8=FIXT.1.1|9=55|35=0|34=77|49=HEMAAPA|52=20170912-16:41:21.386|56=TRAX|10=147|8=FIXT.1.1|9=55|35=0|34=78|49=HEMAAPA|52=20170912-16:41:52.379|56=TRAX|10=154|8=FIXT.1.1|9=55|35=0|34=79|49=HEMAAPA|52=20170912-16:42:23.381|56=TRAX|10=147|8=FIXT.1.1|9=55|35=0|34=80|49=HEMAAPA|52=20170912-16:42:53.387|56=TRAX|10=148|8=FIXT.1.1|9=55|35=0|34=81|49=HEMAAPA|52=20170912-16:43:24.386|56=TRAX|10=147|8=FIXT.1.1|9=55|35=0|34=82|49=HEMAAPA|52=20170912-16:43:55.389|56=TRAX|10=155|8=FIXT.1.1|9=55|35=0|34=83|49=HEMAAPA|52=20170912-16:44:25.390|56=TRAX|10=146|8=FIXT.1.1|9=55|35=0|34=84|49=HEMAAPA|52=20170912-16:44:56.386|56=TRAX|10=156|8=FIXT.1.1|9=55|35=0|34=85|49=HEMAAPA|52=20170912-16:45:26.388|56=TRAX|10=157|8=FIXT.1.1|9=55|35=0|34=86|49=HEMAAPA|52=20170912-16:45:56.391|56=TRAX|10=155|8=FIXT.1.1|9=55|35=0|34=87|49=HEMAAPA|52=20170912-16:46:26.480|56=TRAX|10=153|8=FIXT.1.1|9=55|35=0|34=88|49=HEMAAPA|52=20170912-16:46:56.520|56=TRAX|10=152|8=FIXT.1.1|9=55|35=0|34=89|49=HEMAAPA|52=20170912-16:47:27.388|56=TRAX|10=164|8=FIXT.1.1|9=55|35=0|34=90|49=HEMAAPA|52=20170912-16:47:58.394|56=TRAX|10=157|8=FIXT.1.1|9=55|35=0|34=91|49=HEMAAPA|52=20170912-16:48:29.388|56=TRAX|10=160|8=FIXT.1.1|9=55|35=0|34=92|49=HEMAAPA|52=20170912-16:48:59.394|56=TRAX|10=161|8=FIXT.1.1|9=55|35=0|34=93|49=HEMAAPA|52=20170912-16:49:30.394|56=TRAX|10=152|8=FIXT.1.1|9=55|35=0|34=94|49=HEMAAPA|52=20170912-16:50:00.398|56=TRAX|10=146|8=FIXT.1.1|9=55|35=0|34=95|49=HEMAAPA|52=20170912-16:50:31.397|56=TRAX|10=150|8=FIXT.1.1|9=55|35=0|34=96|49=HEMAAPA|52=20170912-16:51:01.398|56=TRAX|10=150|8=FIXT.1.1|9=55|35=0|34=97|49=HEMAAPA|52=20170912-16:51:32.393|56=TRAX|10=150|8=FIXT.1.1|9=55|35=0|34=98|49=HEMAAPA|52=20170912-16:52:03.398|56=TRAX|10=155|8=FIXT.1.1|9=55|35=0|34=99|49=HEMAAPA|52=20170912-16:52:34.394|56=TRAX|10=156|8=FIXT.1.1|9=56|35=0|34=100|49=HEMAAPA|52=20170912-16:53:04.402|56=TRAX|10=176|8=FIXT.1.1|9=56|35=0|34=101|49=HEMAAPA|52=20170912-16:53:34.402|56=TRAX|10=180|8=FIXT.1.1|9=56|35=0|34=102|49=HEMAAPA|52=20170912-16:54:04.404|56=TRAX|10=181|8=FIXT.1.1|9=56|35=0|34=103|49=HEMAAPA|52=20170912-16:54:35.397|56=TRAX|10=197|8=FIXT.1.1|9=56|35=0|34=104|49=HEMAAPA|52=20170912-16:55:05.399|56=TRAX|10=198|8=FIXT.1.1|9=56|35=0|34=105|49=HEMAAPA|52=20170912-16:55:35.405|56=TRAX|10=190|8=FIXT.1.1|9=56|35=0|34=106|49=HEMAAPA|52=20170912-16:56:05.406|56=TRAX|10=190|8=FIXT.1.1|9=56|35=0|34=107|49=HEMAAPA|52=20170912-16:56:36.405|56=TRAX|10=194|8=FIXT.1.1|9=56|35=0|34=108|49=HEMAAPA|52=20170912-16:57:06.407|56=TRAX|10=195|8=FIXT.1.1|9=56|35=0|34=109|49=HEMAAPA|52=20170912-16:57:37.406|56=TRAX|10=199|8=FIXT.1.1|9=56|35=0|34=110|49=HEMAAPA|52=20170912-16:58:08.405|56=TRAX|10=189|8=FIXT.1.1|9=56|35=0|34=111|49=HEMAAPA|52=20170912-16:58:38.408|56=TRAX|10=196|8=FIXT.1.1|9=56|35=0|34=112|49=HEMAAPA|52=20170912-16:59:09.407|56=TRAX|10=195|8=FIXT.1.1|9=56|35=0|34=113|49=HEMAAPA|52=20170912-16:59:39.411|56=TRAX|10=194|8=FIXT.1.1|9=56|35=0|34=114|49=HEMAAPA|52=20170912-17:00:10.408|56=TRAX|10=177|8=FIXT.1.1|9=56|35=0|34=115|49=HEMAAPA|52=20170912-17:00:41.410|56=TRAX|10=175|8=FIXT.1.1|9=56|35=0|34=116|49=HEMAAPA|52=20170912-17:01:12.410|56=TRAX|10=175|8=FIXT.1.1|9=56|35=0|34=117|49=HEMAAPA|52=20170912-17:01:43.407|56=TRAX|10=186|8=FIXT.1.1|9=56|35=0|34=118|49=HEMAAPA|52=20170912-17:02:14.408|56=TRAX|10=187|8=FIXT.1.1|9=56|35=0|34=119|49=HEMAAPA|52=20170912-17:02:44.409|56=TRAX|10=192|8=FIXT.1.1|9=56|35=0|34=120|49=HEMAAPA|52=20170912-17:03:14.409|56=TRAX|10=182|8=FIXT.1.1|9=56|35=0|34=121|49=HEMAAPA|52=20170912-17:03:44.415|56=TRAX|10=183|8=FIXT.1.1|9=56|35=0|34=122|49=HEMAAPA|52=20170912-17:04:15.409|56=TRAX|10=186|8=FIXT.1.1|9=56|35=0|34=123|49=HEMAAPA|52=20170912-17:04:45.419|56=TRAX|10=191|8=FIXT.1.1|9=56|35=0|34=124|49=HEMAAPA|52=20170912-17:05:16.411|56=TRAX|10=183|8=FIXT.1.1|9=56|35=0|34=125|49=HEMAAPA|52=20170912-17:05:46.414|56=TRAX|10=190|8=FIXT.1.1|9=56|35=0|34=126|49=HEMAAPA|52=20170912-17:06:16.418|56=TRAX|10=193|8=FIXT.1.1|9=56|35=0|34=127|49=HEMAAPA|52=20170912-17:06:46.419|56=TRAX|10=198|8=FIXT.1.1|9=56|35=0|34=128|49=HEMAAPA|52=20170912-17:07:16.422|56=TRAX|10=191|8=FIXT.1.1|9=56|35=0|34=129|49=HEMAAPA|52=20170912-17:07:46.423|56=TRAX|10=196|8=FIXT.1.1|9=56|35=0|34=130|49=HEMAAPA|52=20170912-17:08:17.421|56=TRAX|10=185|8=FIXT.1.1|9=56|35=0|34=131|49=HEMAAPA|52=20170912-17:08:48.416|56=TRAX|10=194|8=FIXT.1.1|9=56|35=0|34=132|49=HEMAAPA|52=20170912-17:09:18.424|56=TRAX|10=192|8=FIXT.1.1|9=56|35=0|34=133|49=HEMAAPA|52=20170912-17:09:49.424|56=TRAX|10=197|8=FIXT.1.1|9=56|35=0|34=134|49=HEMAAPA|52=20170912-17:10:20.421|56=TRAX|10=176|8=FIXT.1.1|9=56|35=0|34=135|49=HEMAAPA|52=20170912-17:10:50.422|56=TRAX|10=181|8=FIXT.1.1|9=56|35=0|34=136|49=HEMAAPA|52=20170912-17:11:20.428|56=TRAX|10=186|8=FIXT.1.1|9=56|35=0|34=137|49=HEMAAPA|52=20170912-17:11:51.425|56=TRAX|10=188|8=FIXT.1.1|9=56|35=0|34=138|49=HEMAAPA|52=20170912-17:12:22.424|56=TRAX|10=187|8=FIXT.1.1|9=56|35=0|34=139|49=HEMAAPA|52=20170912-17:12:52.425|56=TRAX|10=192|8=FIXT.1.1|9=56|35=0|34=140|49=HEMAAPA|52=20170912-17:13:23.429|56=TRAX|10=187|8=FIXT.1.1|9=56|35=0|34=141|49=HEMAAPA|52=20170912-17:13:53.432|56=TRAX|10=185|8=FIXT.1.1|9=56|35=0|34=142|49=HEMAAPA|52=20170912-17:14:23.433|56=TRAX|10=185|8=FIXT.1.1|9=56|35=0|34=143|49=HEMAAPA|52=20170912-17:14:54.424|56=TRAX|10=190|8=FIXT.1.1|9=56|35=0|34=144|49=HEMAAPA|52=20170912-17:15:24.431|56=TRAX|10=187|8=FIXT.1.1|9=56|35=0|34=145|49=HEMAAPA|52=20170912-17:15:54.435|56=TRAX|10=195|8=FIXT.1.1|9=56|35=0|34=146|49=HEMAAPA|52=20170912-17:16:25.430|56=TRAX|10=190|8=FIXT.1.1|9=56|35=0|34=147|49=HEMAAPA|52=20170912-17:16:56.428|56=TRAX|10=202|8=FIXT.1.1|9=56|35=0|34=148|49=HEMAAPA|52=20170912-17:17:26.434|56=TRAX|10=198|8=FIXT.1.1|9=56|35=0|34=149|49=HEMAAPA|52=20170912-17:17:56.573|56=TRAX|10=206|8=FIXT.1.1|9=56|35=0|34=150|49=HEMAAPA|52=20170912-17:18:27.435|56=TRAX|10=194|8=FIXT.1.1|9=56|35=0|34=151|49=HEMAAPA|52=20170912-17:18:57.436|56=TRAX|10=199|8=FIXT.1.1|9=56|35=0|34=152|49=HEMAAPA|52=20170912-17:19:27.438|56=TRAX|10=200|8=FIXT.1.1|9=56|35=0|34=153|49=HEMAAPA|52=20170912-17:19:58.434|56=TRAX|10=201|8=FIXT.1.1|9=56|35=0|34=154|49=HEMAAPA|52=20170912-17:20:28.440|56=TRAX|10=188|8=FIXT.1.1|9=56|35=0|34=155|49=HEMAAPA|52=20170912-17:20:59.456|56=TRAX|10=200|8=FIXT.1.1|9=56|35=0|34=156|49=HEMAAPA|52=20170912-17:21:30.438|56=TRAX|10=191|8=FIXT.1.1|9=56|35=0|34=157|49=HEMAAPA|52=20170912-17:22:01.441|56=TRAX|10=185|8=FIXT.1.1|9=56|35=0|34=158|49=HEMAAPA|52=20170912-17:22:31.444|56=TRAX|10=192|8=FIXT.1.1|9=56|35=0|34=159|49=HEMAAPA|52=20170912-17:23:01.444|56=TRAX|10=191|8=FIXT.1.1|9=56|35=0|34=160|49=HEMAAPA|52=20170912-17:23:32.442|56=TRAX|10=185|8=FIXT.1.1|9=56|35=0|34=161|49=HEMAAPA|52=20170912-17:24:02.444|56=TRAX|10=186|8=FIXT.1.1|9=56|35=0|34=162|49=HEMAAPA|52=20170912-17:24:33.445|56=TRAX|10=192|8=FIXT.1.1|9=56|35=0|34=163|49=HEMAAPA|52=20170912-17:25:04.448|56=TRAX|10=195|8=FIXT.1.1|9=56|35=0|34=164|49=HEMAAPA|52=20170912-17:25:35.446|56=TRAX|10=198|8=FIXT.1.1|9=56|35=0|34=165|49=HEMAAPA|52=20170912-17:26:05.448|56=TRAX|10=199|8=FIXT.1.1|9=56|35=0|34=166|49=HEMAAPA|52=20170912-17:26:36.443|56=TRAX|10=199|8=FIXT.1.1|9=56|35=0|34=167|49=HEMAAPA|52=20170912-17:27:06.451|56=TRAX|10=197|8=FIXT.1.1|9=56|35=0|34=168|49=HEMAAPA|52=20170912-17:27:37.452|56=TRAX|10=203|8=FIXT.1.1|9=56|35=0|34=169|49=HEMAAPA|52=20170912-17:28:08.448|56=TRAX|10=208|8=FIXT.1.1|9=56|35=0|34=170|49=HEMAAPA|52=20170912-17:28:39.444|56=TRAX|10=200|8=FIXT.1.1|9=56|35=0|34=171|49=HEMAAPA|52=20170912-17:29:09.445|56=TRAX|10=200|8=FIXT.1.1|9=56|35=0|34=172|49=HEMAAPA|52=20170912-17:29:39.455|56=TRAX|10=205|8=FIXT.1.1|9=56|35=0|34=173|49=HEMAAPA|52=20170912-17:30:10.438|56=TRAX|10=188|8=FIXT.1.1|9=56|35=0|34=174|49=HEMAAPA|52=20170912-17:30:40.452|56=TRAX|10=188|8=FIXT.1.1|9=56|35=0|34=175|49=HEMAAPA|52=20170912-17:31:10.452|56=TRAX|10=187|8=FIXT.1.1|9=56|35=0|34=176|49=HEMAAPA|52=20170912-17:31:41.453|56=TRAX|10=193|8=FIXT.1.1|9=56|35=0|34=177|49=HEMAAPA|52=20170912-17:32:11.457|56=TRAX|10=196|8=FIXT.1.1|9=56|35=0|34=178|49=HEMAAPA|52=20170912-17:32:42.458|56=TRAX|10=202|8=FIXT.1.1|9=56|35=0|34=179|49=HEMAAPA|52=20170912-17:33:13.456|56=TRAX|10=200|8=FIXT.1.1|9=56|35=0|34=180|49=HEMAAPA|52=20170912-17:33:43.459|56=TRAX|10=198|8=FIXT.1.1|9=56|35=0|34=181|49=HEMAAPA|52=20170912-17:34:14.456|56=TRAX|10=195|8=FIXT.1.1|9=56|35=0|34=182|49=HEMAAPA|52=20170912-17:34:45.454|56=TRAX|10=198|8=FIXT.1.1|9=56|35=0|34=183|49=HEMAAPA|52=20170912-17:35:15.461|56=TRAX|10=195|8=FIXT.1.1|9=56|35=0|34=184|49=HEMAAPA|52=20170912-17:35:45.461|56=TRAX|10=199|8=FIXT.1.1|9=56|35=0|34=185|49=HEMAAPA|52=20170912-17:36:16.458|56=TRAX|10=205|8=FIXT.1.1|9=56|35=0|34=186|49=HEMAAPA|52=20170912-17:36:46.463|56=TRAX|10=205|8=FIXT.1.1|9=56|35=0|34=187|49=HEMAAPA|52=20170912-17:37:17.465|56=TRAX|10=207|8=FIXT.1.1|9=56|35=0|34=188|49=HEMAAPA|52=20170912-17:37:48.464|56=TRAX|10=211|8=FIXT.1.1|9=56|35=0|34=189|49=HEMAAPA|52=20170912-17:38:19.459|56=TRAX|10=215|8=FIXT.1.1|9=56|35=0|34=190|49=HEMAAPA|52=20170912-17:38:49.461|56=TRAX|10=203|8=FIXT.1.1|9=56|35=0|34=191|49=HEMAAPA|52=20170912-17:39:19.463|56=TRAX|10=204|8=FIXT.1.1|9=56|35=0|34=192|49=HEMAAPA|52=20170912-17:39:49.466|56=TRAX|10=211|8=FIXT.1.1|9=56|35=0|34=193|49=HEMAAPA|52=20170912-17:40:20.470|56=TRAX|10=188|8=FIXT.1.1|9=56|35=0|34=194|49=HEMAAPA|52=20170912-17:40:51.469|56=TRAX|10=201|8=FIXT.1.1|9=56|35=0|34=195|49=HEMAAPA|52=20170912-17:41:22.465|56=TRAX|10=197|8=FIXT.1.1|9=56|35=0|34=196|49=HEMAAPA|52=20170912-17:41:52.472|56=TRAX|10=199|8=FIXT.1.1|9=56|35=0|34=197|49=HEMAAPA|52=20170912-17:42:23.473|56=TRAX|10=200|8=FIXT.1.1|9=56|35=0|34=198|49=HEMAAPA|52=20170912-17:42:54.469|56=TRAX|10=210|8=FIXT.1.1|9=56|35=0|34=199|49=HEMAAPA|52=20170912-17:43:24.469|56=TRAX|10=209|8=FIXT.1.1|9=56|35=0|34=200|49=HEMAAPA|52=20170912-17:43:54.470|56=TRAX|10=187|8=FIXT.1.1|9=56|35=0|34=201|49=HEMAAPA|52=20170912-17:44:25.467|56=TRAX|10=193|8=FIXT.1.1|9=56|35=0|34=202|49=HEMAAPA|52=20170912-17:44:55.471|56=TRAX|10=192|8=FIXT.1.1|9=56|35=0|34=203|49=HEMAAPA|52=20170912-17:45:26.468|56=TRAX|10=198|8=FIXT.1.1|9=56|35=0|34=204|49=HEMAAPA|52=20170912-17:45:56.477|56=TRAX|10=202|8=FIXT.1.1|9=56|35=0|34=205|49=HEMAAPA|52=20170912-17:46:27.476|56=TRAX|10=201|8=FIXT.1.1|9=56|35=0|34=206|49=HEMAAPA|52=20170912-17:46:57.476|56=TRAX|10=205|8=FIXT.1.1|9=56|35=0|34=207|49=HEMAAPA|52=20170912-17:47:27.478|56=TRAX|10=206|8=FIXT.1.1|9=56|35=0|34=208|49=HEMAAPA|52=20170912-17:47:57.481|56=TRAX|10=204|8=FIXT.1.1|9=56|35=0|34=209|49=HEMAAPA|52=20170912-17:48:28.474|56=TRAX|10=206|8=FIXT.1.1|9=56|35=0|34=210|49=HEMAAPA|52=20170912-17:48:58.542|56=TRAX|10=197|8=FIXT.1.1|9=56|35=0|34=211|49=HEMAAPA|52=20170912-17:49:29.482|56=TRAX|10=200|8=FIXT.1.1|9=56|35=0|34=212|49=HEMAAPA|52=20170912-17:49:59.482|56=TRAX|10=204|8=FIXT.1.1|9=56|35=0|34=213|49=HEMAAPA|52=20170912-17:50:29.485|56=TRAX|10=197|8=FIXT.1.1|9=56|35=0|34=214|49=HEMAAPA|52=20170912-17:51:00.478|56=TRAX|10=190|8=FIXT.1.1|9=56|35=0|34=215|49=HEMAAPA|52=20170912-17:51:30.481|56=TRAX|10=188|8=FIXT.1.1|9=56|35=0|34=216|49=HEMAAPA|52=20170912-17:52:01.478|56=TRAX|10=194|8=FIXT.1.1|9=56|35=0|34=217|49=HEMAAPA|52=20170912-17:52:31.488|56=TRAX|10=199|8=FIXT.1.1|9=56|35=0|34=218|49=HEMAAPA|52=20170912-17:53:02.481|56=TRAX|10=192|8=FIXT.1.1|9=56|35=0|34=219|49=HEMAAPA|52=20170912-17:53:32.487|56=TRAX|10=202|8=FIXT.1.1|9=56|35=0|34=220|49=HEMAAPA|52=20170912-17:54:03.485|56=TRAX|10=191|8=FIXT.1.1|9=56|35=0|34=221|49=HEMAAPA|52=20170912-17:54:34.486|56=TRAX|10=197|8=FIXT.1.1|9=56|35=0|34=222|49=HEMAAPA|52=20170912-17:55:04.489|56=TRAX|10=199|8=FIXT.1.1|9=56|35=0|34=223|49=HEMAAPA|52=20170912-17:55:35.485|56=TRAX|10=200|8=FIXT.1.1|9=56|35=0|34=224|49=HEMAAPA|52=20170912-17:56:05.488|56=TRAX|10=202|8=FIXT.1.1|9=56|35=0|34=225|49=HEMAAPA|52=20170912-17:56:35.490|56=TRAX|10=199|8=FIXT.1.1|9=56|35=0|34=226|49=HEMAAPA|52=20170912-17:57:06.493|56=TRAX|10=202|8=FIXT.1.1|9=56|35=0|34=227|49=HEMAAPA|52=20170912-17:57:37.488|56=TRAX|10=211|8=FIXT.1.1|9=56|35=0|34=228|49=HEMAAPA|52=20170912-17:58:07.492|56=TRAX|10=205|8=FIXT.1.1|9=56|35=0|34=229|49=HEMAAPA|52=20170912-17:58:38.469|56=TRAX|10=214|8=FIXT.1.1|9=56|35=0|34=230|49=HEMAAPA|52=20170912-17:59:08.471|56=TRAX|10=197|8=FIXT.1.1|9=56|35=0|34=231|49=HEMAAPA|52=20170912-17:59:38.493|56=TRAX|10=205|8=FIXT.1.1|9=56|35=0|34=232|49=HEMAAPA|52=20170912-18:00:08.495|56=TRAX|10=192|8=FIXT.1.1|9=56|35=0|34=233|49=HEMAAPA|52=20170912-18:00:39.497|56=TRAX|10=199|8=FIXT.1.1|9=56|35=0|34=234|49=HEMAAPA|52=20170912-18:01:10.497|56=TRAX|10=190|8=FIXT.1.1|9=56|35=0|34=235|49=HEMAAPA|52=20170912-18:01:41.493|56=TRAX|10=191|8=FIXT.1.1|9=56|35=0|34=236|49=HEMAAPA|52=20170912-18:02:11.497|56=TRAX|10=194|8=FIXT.1.1|9=56|35=0|34=237|49=HEMAAPA|52=20170912-18:02:42.494|56=TRAX|10=196|8=FIXT.1.1|9=56|35=0|34=238|49=HEMAAPA|52=20170912-18:03:13.500|56=TRAX|10=184|8=FIXT.1.1|9=56|35=0|34=239|49=HEMAAPA|52=20170912-18:03:43.502|56=TRAX|10=190|8=FIXT.1.1|9=56|35=0|34=240|49=HEMAAPA|52=20170912-18:04:13.505|56=TRAX|10=183|8=FIXT.1.1|9=56|35=0|34=241|49=HEMAAPA|52=20170912-18:04:44.500|56=TRAX|10=183|8=FIXT.1.1|9=56|35=0|34=242|49=HEMAAPA|52=20170912-18:05:14.500|56=TRAX|10=182|8=FIXT.1.1|9=56|35=0|34=243|49=HEMAAPA|52=20170912-18:05:44.506|56=TRAX|10=192|8=FIXT.1.1|9=56|35=0|34=244|49=HEMAAPA|52=20170912-18:06:15.503|56=TRAX|10=189|8=FIXT.1.1|9=56|35=0|34=245|49=HEMAAPA|52=20170912-18:06:45.503|56=TRAX|10=193|8=FIXT.1.1|9=56|35=0|34=246|49=HEMAAPA|52=20170912-18:07:15.509|56=TRAX|10=198|8=FIXT.1.1|9=56|35=0|34=247|49=HEMAAPA|52=20170912-18:07:45.509|56=TRAX|10=202|8=FIXT.1.1|9=56|35=0|34=248|49=HEMAAPA|52=20170912-18:08:16.511|56=TRAX|10=195|8=FIXT.1.1|9=56|35=0|34=249|49=HEMAAPA|52=20170912-18:08:47.510|56=TRAX|10=199|8=FIXT.1.1|9=56|35=0|34=250|49=HEMAAPA|52=20170912-18:09:18.512|56=TRAX|10=192|8=FIXT.1.1|9=56|35=0|34=251|49=HEMAAPA|52=20170912-18:09:49.505|56=TRAX|10=199|8=FIXT.1.1|9=56|35=0|34=252|49=HEMAAPA|52=20170912-18:10:19.506|56=TRAX|10=190|8=FIXT.1.1|9=56|35=0|34=253|49=HEMAAPA|52=20170912-18:10:49.506|56=TRAX|10=194|8=FIXT.1.1|9=56|35=0|34=254|49=HEMAAPA|52=20170912-18:11:19.510|56=TRAX|10=188|8=FIXT.1.1|9=56|35=0|34=255|49=HEMAAPA|52=20170912-18:11:49.515|56=TRAX|10=197|8=FIXT.1.1|9=56|35=0|34=256|49=HEMAAPA|52=20170912-18:12:20.515|56=TRAX|10=188|8=FIXT.1.1|9=56|35=0|34=257|49=HEMAAPA|52=20170912-18:12:51.509|56=TRAX|10=196|8=FIXT.1.1|9=56|35=0|34=258|49=HEMAAPA|52=20170912-18:13:21.509|56=TRAX|10=195|8=FIXT.1.1|9=56|35=0|34=259|49=HEMAAPA|52=20170912-18:13:51.517|56=TRAX|10=198|8=FIXT.1.1|9=56|35=0|34=260|49=HEMAAPA|52=20170912-18:14:22.515|56=TRAX|10=187|8=FIXT.1.1|9=56|35=0|34=261|49=HEMAAPA|52=20170912-18:14:52.519|56=TRAX|10=195|8=FIXT.1.1|9=56|35=0|34=262|49=HEMAAPA|52=20170912-18:15:23.511|56=TRAX|10=187|8=FIXT.1.1|9=56|35=0|34=263|49=HEMAAPA|52=20170912-18:15:53.519|56=TRAX|10=199|8=FIXT.1.1|9=56|35=0|34=264|49=HEMAAPA|52=20170912-18:16:24.518|56=TRAX|10=198|8=FIXT.1.1|9=56|35=0|34=265|49=HEMAAPA|52=20170912-18:16:54.523|56=TRAX|10=198|8=FIXT.1.1|9=56|35=0|34=266|49=HEMAAPA|52=20170912-18:17:24.523|56=TRAX|10=197|8=FIXT.1.1|9=56|35=0|34=267|49=HEMAAPA|52=20170912-18:17:54.524|56=TRAX|10=202|8=FIXT.1.1|9=56|35=0|34=268|49=HEMAAPA|52=20170912-18:18:25.519|56=TRAX|10=206|8=FIXT.1.1|9=56|35=0|34=269|49=HEMAAPA|52=20170912-18:18:55.526|56=TRAX|10=208|8=FIXT.1.1|9=56|35=0|34=270|49=HEMAAPA|52=20170912-18:19:26.523|56=TRAX|10=196|8=FIXT.1.1|9=56|35=0|34=271|49=HEMAAPA|52=20170912-18:19:56.526|56=TRAX|10=203|8=FIXT.1.1|9=56|35=0|34=272|49=HEMAAPA|52=20170912-18:20:27.525|56=TRAX|10=193|8=FIXT.1.1|9=56|35=0|34=273|49=HEMAAPA|52=20170912-18:20:58.525|56=TRAX|10=198|8=FIXT.1.1|9=56|35=0|34=274|49=HEMAAPA|52=20170912-18:21:29.521|56=TRAX|10=194|8=FIXT.1.1|9=56|35=0|34=275|49=HEMAAPA|52=20170912-18:21:59.528|56=TRAX|10=205|8=FIXT.1.1|9=56|35=0|34=276|49=HEMAAPA|52=20170912-18:22:30.527|56=TRAX|10=195|8=FIXT.1.1|9=56|35=0|34=277|49=HEMAAPA|52=20170912-18:23:01.525|56=TRAX|10=193|8=FIXT.1.1|9=56|35=0|34=278|49=HEMAAPA|52=20170912-18:23:31.528|56=TRAX|10=200|8=FIXT.1.1|9=56|35=0|34=279|49=HEMAAPA|52=20170912-18:24:02.532|56=TRAX|10=195|8=FIXT.1.1|9=56|35=0|34=280|49=HEMAAPA|52=20170912-18:24:33.533|56=TRAX|10=192|8=FIXT.1.1|9=56|35=0|34=281|49=HEMAAPA|52=20170912-18:25:04.535|56=TRAX|10=194|8=FIXT.1.1|9=56|35=0|34=282|49=HEMAAPA|52=20170912-18:25:35.527|56=TRAX|10=200|8=FIXT.1.1|9=56|35=0|34=283|49=HEMAAPA|52=20170912-18:26:05.533|56=TRAX|10=196|8=FIXT.1.1|9=56|35=0|34=284|49=HEMAAPA|52=20170912-18:26:35.534|56=TRAX|10=201|8=FIXT.1.1|9=56|35=0|34=285|49=HEMAAPA|52=20170912-18:27:05.538|56=TRAX|10=204|8=FIXT.1.1|9=56|35=0|34=286|49=HEMAAPA|52=20170912-18:27:36.533|56=TRAX|10=204|8=FIXT.1.1|9=56|35=0|34=287|49=HEMAAPA|52=20170912-18:28:06.538|56=TRAX|10=208|8=FIXT.1.1|9=56|35=0|34=288|49=HEMAAPA|52=20170912-18:28:37.531|56=TRAX|10=206|8=FIXT.1.1|9=56|35=0|34=289|49=HEMAAPA|52=20170912-18:29:07.533|56=TRAX|10=207|8=FIXT.1.1|9=56|35=0|34=290|49=HEMAAPA|52=20170912-18:29:37.536|56=TRAX|10=205|8=FIXT.1.1|9=56|35=0|34=291|49=HEMAAPA|52=20170912-18:30:07.536|56=TRAX|10=195|8=FIXT.1.1|9=56|35=0|34=292|49=HEMAAPA|52=20170912-18:30:37.539|56=TRAX|10=202|8=FIXT.1.1|9=56|35=0|34=293|49=HEMAAPA|52=20170912-18:31:07.542|56=TRAX|10=195|8=FIXT.1.1|9=56|35=0|34=294|49=HEMAAPA|52=20170912-18:31:38.538|56=TRAX|10=205|8=FIXT.1.1|9=56|35=0|34=295|49=HEMAAPA|52=20170912-18:32:08.541|56=TRAX|10=198|8=FIXT.1.1|9=56|35=0|34=296|49=HEMAAPA|52=20170912-18:32:39.541|56=TRAX|10=203|8=FIXT.1.1|9=56|35=0|34=297|49=HEMAAPA|52=20170912-18:33:09.544|56=TRAX|10=205|8=FIXT.1.1|9=56|35=0|34=298|49=HEMAAPA|52=20170912-18:33:40.539|56=TRAX|10=205|8=FIXT.1.1|9=56|35=0|34=299|49=HEMAAPA|52=20170912-18:34:10.548|56=TRAX|10=204|8=FIXT.1.1|9=56|35=0|34=300|49=HEMAAPA|52=20170912-18:34:41.546|56=TRAX|10=189|8=FIXT.1.1|9=56|35=0|34=301|49=HEMAAPA|52=20170912-18:35:12.543|56=TRAX|10=186|8=FIXT.1.1|9=56|35=0|34=302|49=HEMAAPA|52=20170912-18:35:42.546|56=TRAX|10=193|8=FIXT.1.1|9=56|35=0|34=303|49=HEMAAPA|52=20170912-18:36:12.550|56=TRAX|10=187|8=FIXT.1.1|9=56|35=0|34=304|49=HEMAAPA|52=20170912-18:36:43.547|56=TRAX|10=198|8=FIXT.1.1|9=56|35=0|34=305|49=HEMAAPA|52=20170912-18:37:13.549|56=TRAX|10=199|8=FIXT.1.1|9=56|35=0|34=306|49=HEMAAPA|52=20170912-18:37:43.552|56=TRAX|10=197|8=FIXT.1.1|9=56|35=0|34=307|49=HEMAAPA|52=20170912-18:38:14.550|56=TRAX|10=195|8=FIXT.1.1|9=56|35=0|34=308|49=HEMAAPA|52=20170912-18:38:45.547|56=TRAX|10=206|8=FIXT.1.1|9=56|35=0|34=309|49=HEMAAPA|52=20170912-18:39:15.551|56=TRAX|10=200|8=FIXT.1.1|9=56|35=0|34=310|49=HEMAAPA|52=20170912-18:39:46.551|56=TRAX|10=196|8=FIXT.1.1|9=56|35=0|34=311|49=HEMAAPA|52=20170912-18:40:16.556|56=TRAX|10=191|8=FIXT.1.1|9=56|35=0|34=312|49=HEMAAPA|52=20170912-18:40:46.558|56=TRAX|10=197|8=FIXT.1.1|9=56|35=0|34=313|49=HEMAAPA|52=20170912-18:41:17.558|56=TRAX|10=197|8=FIXT.1.1|9=56|35=0|34=314|49=HEMAAPA|52=20170912-18:41:48.558|56=TRAX|10=202|8=FIXT.1.1|9=56|35=0|34=315|49=HEMAAPA|52=20170912-18:42:19.550|56=TRAX|10=194|8=FIXT.1.1|9=56|35=0|34=316|49=HEMAAPA|52=20170912-18:42:49.553|56=TRAX|10=201|8=FIXT.1.1|9=56|35=0|34=317|49=HEMAAPA|52=20170912-18:43:19.555|56=TRAX|10=202|8=FIXT.1.1|9=56|35=0|34=318|49=HEMAAPA|52=20170912-18:43:50.555|56=TRAX|10=198|8=FIXT.1.1|9=56|35=0|34=319|49=HEMAAPA|52=20170912-18:44:21.556|56=TRAX|10=199|8=FIXT.1.1|9=56|35=0|34=320|49=HEMAAPA|52=20170912-18:44:51.558|56=TRAX|10=196|8=FIXT.1.1|9=56|35=0|34=321|49=HEMAAPA|52=20170912-18:45:22.564|56=TRAX|10=193|8=FIXT.1.1|9=56|35=0|34=322|49=HEMAAPA|52=20170912-18:45:53.560|56=TRAX|10=194|8=FIXT.1.1|9=56|35=0|34=323|49=HEMAAPA|52=20170912-18:46:23.560|56=TRAX|10=193|8=FIXT.1.1|9=56|35=0|34=324|49=HEMAAPA|52=20170912-18:46:54.561|56=TRAX|10=199|8=FIXT.1.1|9=56|35=0|34=325|49=HEMAAPA|52=20170912-18:47:24.567|56=TRAX|10=204|8=FIXT.1.1|9=56|35=0|34=326|49=HEMAAPA|52=20170912-18:47:55.566|56=TRAX|10=208|8=FIXT.1.1|9=56|35=0|34=327|49=HEMAAPA|52=20170912-18:48:25.567|56=TRAX|10=208|8=FIXT.1.1|9=56|35=0|34=328|49=HEMAAPA|52=20170912-18:48:56.560|56=TRAX|10=206|8=FIXT.1.1|9=56|35=0|34=329|49=HEMAAPA|52=20170912-18:49:26.568|56=TRAX|10=213|8=FIXT.1.1|9=56|35=0|34=330|49=HEMAAPA|52=20170912-18:49:57.570|56=TRAX|10=202|8=FIXT.1.1|9=56|35=0|34=331|49=HEMAAPA|52=20170912-18:50:28.566|56=TRAX|10=198|8=FIXT.1.1|9=56|35=0|34=332|49=HEMAAPA|52=20170912-18:50:58.571|56=TRAX|10=198|8=FIXT.1.1|9=56|35=0|34=333|49=HEMAAPA|52=20170912-18:51:29.570|56=TRAX|10=197|8=FIXT.1.1|9=56|35=0|34=334|49=HEMAAPA|52=20170912-18:51:59.570|56=TRAX|10=201|8=FIXT.1.1|9=56|35=0|34=335|49=HEMAAPA|52=20170912-18:52:30.571|56=TRAX|10=193|8=FIXT.1.1|9=56|35=0|34=336|49=HEMAAPA|52=20170912-18:53:00.575|56=TRAX|10=196|8=FIXT.1.1|9=56|35=0|34=337|49=HEMAAPA|52=20170912-18:53:31.558|56=TRAX|10=202|8=FIXT.1.1|9=56|35=0|34=338|49=HEMAAPA|52=20170912-18:54:01.577|56=TRAX|10=202|8=FIXT.1.1|9=56|35=0|34=339|49=HEMAAPA|52=20170912-18:54:32.559|56=TRAX|10=207|8=FIXT.1.1|9=56|35=0|34=340|49=HEMAAPA|52=20170912-18:55:02.571|56=TRAX|10=191|8=FIXT.1.1|9=56|35=0|34=341|49=HEMAAPA|52=20170912-18:55:32.575|56=TRAX|10=199|8=FIXT.1.1|9=56|35=0|34=342|49=HEMAAPA|52=20170912-18:56:02.576|56=TRAX|10=199|8=FIXT.1.1|9=56|35=0|34=343|49=HEMAAPA|52=20170912-18:56:32.578|56=TRAX|10=205|8=FIXT.1.1|9=56|35=0|34=344|49=HEMAAPA|52=20170912-18:57:02.581|56=TRAX|10=198|8=FIXT.1.1|9=56|35=0|34=345|49=HEMAAPA|52=20170912-18:57:33.575|56=TRAX|10=206|8=FIXT.1.1|9=56|35=0|34=346|49=HEMAAPA|52=20170912-18:58:03.582|56=TRAX|10=203|8=FIXT.1.1|9=56|35=0|34=347|49=HEMAAPA|52=20170912-18:58:34.575|56=TRAX|10=210|8=FIXT.1.1|9=56|35=0|34=348|49=HEMAAPA|52=20170912-18:59:04.584|56=TRAX|10=209|8=FIXT.1.1|9=56|35=0|34=349|49=HEMAAPA|52=20170912-18:59:35.584|56=TRAX|10=214|8=FIXT.1.1|9=56|35=0|34=350|49=HEMAAPA|52=20170912-19:00:06.576|56=TRAX|10=192|8=FIXT.1.1|9=56|35=0|34=351|49=HEMAAPA|52=20170912-19:00:36.577|56=TRAX|10=197|8=FIXT.1.1|9=56|35=0|34=352|49=HEMAAPA|52=20170912-19:01:06.580|56=TRAX|10=190|8=FIXT.1.1|9=56|35=0|34=353|49=HEMAAPA|52=20170912-19:01:36.581|56=TRAX|10=195|8=FIXT.1.1|9=56|35=0|34=354|49=HEMAAPA|52=20170912-19:02:06.585|56=TRAX|10=198|8=FIXT.1.1|9=56|35=0|34=355|49=HEMAAPA|52=20170912-19:02:37.587|56=TRAX|10=205|8=FIXT.1.1|9=56|35=0|34=356|49=HEMAAPA|52=20170912-19:03:08.587|56=TRAX|10=205|8=FIXT.1.1|9=56|35=0|34=357|49=HEMAAPA|52=20170912-19:03:38.588|56=TRAX|10=210|8=FIXT.1.1|9=56|35=0|34=358|49=HEMAAPA|52=20170912-19:04:08.590|56=TRAX|10=202|8=FIXT.1.1|9=56|35=0|34=359|49=HEMAAPA|52=20170912-19:04:38.590|56=TRAX|10=206|8=FIXT.1.1|9=56|35=0|34=360|49=HEMAAPA|52=20170912-19:05:08.590|56=TRAX|10=196|8=FIXT.1.1|9=56|35=0|34=361|49=HEMAAPA|52=20170912-19:05:38.590|56=TRAX|10=200|8=FIXT.1.1|9=56|35=0|34=362|49=HEMAAPA|52=20170912-19:06:09.591|56=TRAX|10=201|8=FIXT.1.1|9=56|35=0|34=363|49=HEMAAPA|52=20170912-19:06:39.594|56=TRAX|10=208|8=FIXT.1.1|9=56|35=0|34=364|49=HEMAAPA|52=20170912-19:07:10.587|56=TRAX|10=201|8=FIXT.1.1|9=56|35=0|34=365|49=HEMAAPA|52=20170912-19:07:40.592|56=TRAX|10=201|8=FIXT.1.1|9=56|35=0|34=366|49=HEMAAPA|52=20170912-19:08:10.597|56=TRAX|10=205|8=FIXT.1.1|9=56|35=0|34=367|49=HEMAAPA|52=20170912-19:08:41.591|56=TRAX|10=204|8=FIXT.1.1|9=56|35=0|34=368|49=HEMAAPA|52=20170912-19:09:11.597|56=TRAX|10=209|8=FIXT.1.1|9=56|35=0|34=369|49=HEMAAPA|52=20170912-19:09:42.591|56=TRAX|10=208|8=FIXT.1.1|9=56|35=0|34=370|49=HEMAAPA|52=20170912-19:10:13.592|56=TRAX|10=191|8=FIXT.1.1|9=56|35=0|34=371|49=HEMAAPA|52=20170912-19:10:43.596|56=TRAX|10=199|8=FIXT.1.1|9=56|35=0|34=372|49=HEMAAPA|52=20170912-19:11:14.600|56=TRAX|10=185|8=FIXT.1.1|9=56|35=0|34=373|49=HEMAAPA|52=20170912-19:11:45.602|56=TRAX|10=192|8=FIXT.1.1|9=56|35=0|34=374|49=HEMAAPA|52=20170912-19:12:16.600|56=TRAX|10=190|8=FIXT.1.1|9=56|35=0|34=375|49=HEMAAPA|52=20170912-19:12:47.598|56=TRAX|10=211|8=FIXT.1.1|9=56|35=0|34=376|49=HEMAAPA|52=20170912-19:13:18.602|56=TRAX|10=197|8=FIXT.1.1|9=56|35=0|34=377|49=HEMAAPA|52=20170912-19:13:49.603|56=TRAX|10=203|8=FIXT.1.1|9=56|35=0|34=378|49=HEMAAPA|52=20170912-19:14:19.606|56=TRAX|10=205|8=FIXT.1.1|9=56|35=0|34=379|49=HEMAAPA|52=20170912-19:14:50.579|56=TRAX|10=210|8=FIXT.1.1|9=56|35=0|34=380|49=HEMAAPA|52=20170912-19:15:20.599|56=TRAX|10=202|8=FIXT.1.1|9=56|35=0|34=381|49=HEMAAPA|52=20170912-19:15:51.605|56=TRAX|10=195|8=FIXT.1.1|9=56|35=0|34=382|49=HEMAAPA|52=20170912-19:16:21.607|56=TRAX|10=196|8=FIXT.1.1|9=56|35=0|34=383|49=HEMAAPA|52=20170912-19:16:52.604|56=TRAX|10=198|8=FIXT.1.1|9=56|35=0|34=384|49=HEMAAPA|52=20170912-19:17:22.607|56=TRAX|10=200|8=FIXT.1.1|9=56|35=0|34=385|49=HEMAAPA|52=20170912-19:17:53.608|56=TRAX|10=206|8=FIXT.1.1|9=56|35=0|34=386|49=HEMAAPA|52=20170912-19:18:24.603|56=TRAX|10=201|8=FIXT.1.1|9=56|35=0|34=387|49=HEMAAPA|52=20170912-19:18:54.610|56=TRAX|10=203|8=FIXT.1.1|9=56|35=0|34=388|49=HEMAAPA|52=20170912-19:19:24.613|56=TRAX|10=205|8=FIXT.1.1|9=56|35=0|34=389|49=HEMAAPA|52=20170912-19:19:55.614|56=TRAX|10=211|8=FIXT.1.1|9=56|35=0|34=390|49=HEMAAPA|52=20170912-19:20:26.588|56=TRAX|10=203|8=FIXT.1.1|9=56|35=0|34=391|49=HEMAAPA|52=20170912-19:20:56.610|56=TRAX|10=193|8=FIXT.1.1|9=56|35=0|34=392|49=HEMAAPA|52=20170912-19:21:26.616|56=TRAX|10=198|8=FIXT.1.1|9=56|35=0|34=393|49=HEMAAPA|52=20170912-19:21:57.616|56=TRAX|10=203|8=FIXT.1.1|9=56|35=0|34=394|49=HEMAAPA|52=20170912-19:22:28.590|56=TRAX|10=204|8=FIXT.1.1|9=56|35=0|34=395|49=HEMAAPA|52=20170912-19:22:58.609|56=TRAX|10=209|8=FIXT.1.1|9=56|35=0|34=396|49=HEMAAPA|52=20170912-19:23:28.610|56=TRAX|10=200|8=FIXT.1.1|9=56|35=0|34=397|49=HEMAAPA|52=20170912-19:23:58.615|56=TRAX|10=209|8=FIXT.1.1|9=56|35=0|34=398|49=HEMAAPA|52=20170912-19:24:28.616|56=TRAX|10=209|8=FIXT.1.1|9=56|35=0|34=399|49=HEMAAPA|52=20170912-19:24:58.620|56=TRAX|10=208|8=FIXT.1.1|9=56|35=0|34=400|49=HEMAAPA|52=20170912-19:25:29.617|56=TRAX|10=196|8=FIXT.1.1|9=56|35=0|34=401|49=HEMAAPA|52=20170912-19:25:59.622|56=TRAX|10=196|8=FIXT.1.1|9=56|35=0|34=402|49=HEMAAPA|52=20170912-19:26:30.618|56=TRAX|10=192|8=FIXT.1.1|9=56|35=0|34=403|49=HEMAAPA|52=20170912-19:27:00.619|56=TRAX|10=192|8=FIXT.1.1|9=56|35=0|34=404|49=HEMAAPA|52=20170912-19:27:30.620|56=TRAX|10=188|8=FIXT.1.1|9=56|35=0|34=405|49=HEMAAPA|52=20170912-19:28:01.551|56=TRAX|10=191|8=FIXT.1.1|9=56|35=0|34=406|49=HEMAAPA|52=20170912-19:28:31.627|56=TRAX|10=199|8=FIXT.1.1|9=56|35=0|34=407|49=HEMAAPA|52=20170912-19:29:02.618|56=TRAX|10=199|8=FIXT.1.1|9=56|35=0|34=408|49=HEMAAPA|52=20170912-19:29:32.626|56=TRAX|10=202|8=FIXT.1.1|9=56|35=0|34=409|49=HEMAAPA|52=20170912-19:30:02.627|56=TRAX|10=193|8=FIXT.1.1|9=56|35=0|34=410|49=HEMAAPA|52=20170912-19:30:32.629|56=TRAX|10=190|8=FIXT.1.1|9=56|35=0|34=411|49=HEMAAPA|52=20170912-19:31:02.630|56=TRAX|10=181|8=FIXT.1.1|9=56|35=0|34=412|49=HEMAAPA|52=20170912-19:31:33.624|56=TRAX|10=189|8=FIXT.1.1|9=56|35=0|34=413|49=HEMAAPA|52=20170912-19:32:03.624|56=TRAX|10=188|8=FIXT.1.1|9=56|35=0|34=414|49=HEMAAPA|52=20170912-19:32:33.628|56=TRAX|10=196|8=FIXT.1.1|9=56|35=0|34=415|49=HEMAAPA|52=20170912-19:33:04.629|56=TRAX|10=197|8=FIXT.1.1|9=56|35=0|34=416|49=HEMAAPA|52=20170912-19:33:35.625|56=TRAX|10=198|8=FIXT.1.1|9=56|35=0|34=417|49=HEMAAPA|52=20170912-19:34:05.630|56=TRAX|10=193|8=FIXT.1.1|9=56|35=0|34=418|49=HEMAAPA|52=20170912-19:34:35.635|56=TRAX|10=202|8=FIXT.1.1|9=56|35=0|34=419|49=HEMAAPA|52=20170912-19:35:06.633|56=TRAX|10=200|8=FIXT.1.1|9=56|35=0|34=420|49=HEMAAPA|52=20170912-19:35:37.624|56=TRAX|10=196|8=FIXT.1.1|9=56|35=0|34=421|49=HEMAAPA|52=20170912-19:36:07.634|56=TRAX|10=196|8=FIXT.1.1|9=56|35=0|34=422|49=HEMAAPA|52=20170912-19:36:38.631|56=TRAX|10=198|8=FIXT.1.1|9=56|35=0|34=423|49=HEMAAPA|52=20170912-19:37:09.637|56=TRAX|10=204|8=FIXT.1.1|9=56|35=0|34=424|49=HEMAAPA|52=20170912-19:37:40.638|56=TRAX|10=201|8=FIXT.1.1|9=56|35=0|34=425|49=HEMAAPA|52=20170912-19:38:11.632|56=TRAX|10=195|8=FIXT.1.1|9=56|35=0|34=426|49=HEMAAPA|52=20170912-19:38:42.634|56=TRAX|10=202|8=FIXT.1.1|9=56|35=0|34=427|49=HEMAAPA|52=20170912-19:39:12.634|56=TRAX|10=201|8=FIXT.1.1|9=56|35=0|34=428|49=HEMAAPA|52=20170912-19:39:42.634|56=TRAX|10=205|8=FIXT.1.1|9=56|35=0|34=429|49=HEMAAPA|52=20170912-19:40:12.638|56=TRAX|10=199|8=FIXT.1.1|9=56|35=0|34=430|49=HEMAAPA|52=20170912-19:40:43.641|56=TRAX|10=189|8=FIXT.1.1|9=56|35=0|34=431|49=HEMAAPA|52=20170912-19:41:14.644|56=TRAX|10=192|8=FIXT.1.1|9=56|35=0|34=432|49=HEMAAPA|52=20170912-19:41:45.641|56=TRAX|10=194|8=FIXT.1.1|9=56|35=0|34=433|49=HEMAAPA|52=20170912-19:42:16.641|56=TRAX|10=194|8=FIXT.1.1|9=56|35=0|34=434|49=HEMAAPA|52=20170912-19:42:46.647|56=TRAX|10=204|8=FIXT.1.1|9=56|35=0|34=435|49=HEMAAPA|52=20170912-19:43:17.640|56=TRAX|10=197|8=FIXT.1.1|9=56|35=0|34=436|49=HEMAAPA|52=20170912-19:43:48.641|56=TRAX|10=203|8=FIXT.1.1|9=56|35=0|34=437|49=HEMAAPA|52=20170912-19:44:18.642|56=TRAX|10=203|8=FIXT.1.1|9=56|35=0|34=438|49=HEMAAPA|52=20170912-19:44:48.643|56=TRAX|10=208|8=FIXT.1.1|9=56|35=0|34=439|49=HEMAAPA|52=20170912-19:45:18.648|56=TRAX|10=212|8=FIXT.1.1|9=56|35=0|34=440|49=HEMAAPA|52=20170912-19:45:49.644|56=TRAX|10=204|8=FIXT.1.1|9=56|35=0|34=441|49=HEMAAPA|52=20170912-19:46:19.646|56=TRAX|10=205|8=FIXT.1.1|9=56|35=0|34=442|49=HEMAAPA|52=20170912-19:46:49.652|56=TRAX|10=206|8=FIXT.1.1|9=56|35=0|34=443|49=HEMAAPA|52=20170912-19:47:20.652|56=TRAX|10=197|8=FIXT.1.1|9=56|35=0|34=444|49=HEMAAPA|52=20170912-19:47:51.652|56=TRAX|10=202|8=FIXT.1.1|9=56|35=0|34=445|49=HEMAAPA|52=20170912-19:48:21.655|56=TRAX|10=204|8=FIXT.1.1|9=56|35=0|34=446|49=HEMAAPA|52=20170912-19:48:51.655|56=TRAX|10=208|8=FIXT.1.1|9=56|35=0|34=447|49=HEMAAPA|52=20170912-19:49:22.650|56=TRAX|10=203|8=FIXT.1.1|9=56|35=0|34=448|49=HEMAAPA|52=20170912-19:49:52.652|56=TRAX|10=209|8=FIXT.1.1|9=56|35=0|34=449|49=HEMAAPA|52=20170912-19:50:23.652|56=TRAX|10=200|8=FIXT.1.1|9=56|35=0|34=450|49=HEMAAPA|52=20170912-19:50:53.653|56=TRAX|10=196|8=FIXT.1.1|9=56|35=0|34=451|49=HEMAAPA|52=20170912-19:51:23.653|56=TRAX|10=195|8=FIXT.1.1|9=56|35=0|34=452|49=HEMAAPA|52=20170912-19:51:54.658|56=TRAX|10=205|8=FIXT.1.1|9=56|35=0|34=453|49=HEMAAPA|52=20170912-19:52:25.658|56=TRAX|10=205|8=FIXT.1.1|9=56|35=0|34=454|49=HEMAAPA|52=20170912-19:52:56.659|56=TRAX|10=211|8=FIXT.1.1|9=56|35=0|34=455|49=HEMAAPA|52=20170912-19:53:27.659|56=TRAX|10=211|8=FIXT.1.1|9=56|35=0|34=456|49=HEMAAPA|52=20170912-19:53:58.644|56=TRAX|10=210|8=FIXT.1.1|9=56|35=0|34=457|49=HEMAAPA|52=20170912-19:54:28.659|56=TRAX|10=215|8=FIXT.1.1|9=56|35=0|34=458|49=HEMAAPA|52=20170912-19:54:59.660|56=TRAX|10=212|8=FIXT.1.1|9=56|35=0|34=459|49=HEMAAPA|52=20170912-19:55:29.662|56=TRAX|10=213|8=FIXT.1.1|9=56|35=0|34=460|49=HEMAAPA|52=20170912-19:55:59.663|56=TRAX|10=209|8=FIXT.1.1|9=56|35=0|34=461|49=HEMAAPA|52=20170912-19:56:30.665|56=TRAX|10=202|8=FIXT.1.1|9=56|35=0|34=462|49=HEMAAPA|52=20170912-19:57:00.665|56=TRAX|10=201|8=FIXT.1.1|9=56|35=0|34=463|49=HEMAAPA|52=20170912-19:57:31.667|56=TRAX|10=208|8=FIXT.1.1|9=56|35=0|34=464|49=HEMAAPA|52=20170912-19:58:02.557|56=TRAX|10=206|8=FIXT.1.1|9=56|35=0|34=465|49=HEMAAPA|52=20170912-19:58:32.664|56=TRAX|10=209|8=FIXT.1.1|9=56|35=0|34=466|49=HEMAAPA|52=20170912-19:59:03.664|56=TRAX|10=209|8=FIXT.1.1|9=56|35=0|34=467|49=HEMAAPA|52=20170912-19:59:33.667|56=TRAX|10=216|8=FIXT.1.1|9=56|35=0|34=468|49=HEMAAPA|52=20170912-20:00:03.670|56=TRAX|10=186|8=FIXT.1.1|9=56|35=0|34=469|49=HEMAAPA|52=20170912-20:00:33.673|56=TRAX|10=193|8=FIXT.1.1|9=56|35=0|34=470|49=HEMAAPA|52=20170912-20:01:03.673|56=TRAX|10=183|8=FIXT.1.1|9=56|35=0|34=471|49=HEMAAPA|52=20170912-20:01:34.670|56=TRAX|10=185|8=FIXT.1.1|9=56|35=0|34=472|49=HEMAAPA|52=20170912-20:02:04.674|56=TRAX|10=188|8=FIXT.1.1|9=56|35=0|34=473|49=HEMAAPA|52=20170912-20:02:34.675|56=TRAX|10=193|8=FIXT.1.1|9=56|35=0|34=474|49=HEMAAPA|52=20170912-20:03:05.658|56=TRAX|10=194|8=FIXT.1.1|9=56|35=0|34=475|49=HEMAAPA|52=20170912-20:03:35.672|56=TRAX|10=194|8=FIXT.1.1|9=56|35=0|34=476|49=HEMAAPA|52=20170912-20:04:05.674|56=TRAX|10=195|8=FIXT.1.1|9=56|35=0|34=477|49=HEMAAPA|52=20170912-20:04:36.669|56=TRAX|10=204|8=FIXT.1.1|9=56|35=0|34=478|49=HEMAAPA|52=20170912-20:05:06.671|56=TRAX|10=196|8=FIXT.1.1|9=56|35=0|34=479|49=HEMAAPA|52=20170912-20:05:36.680|56=TRAX|10=200|8=FIXT.1.1|9=56|35=0|34=480|49=HEMAAPA|52=20170912-20:06:07.672|56=TRAX|10=192|8=FIXT.1.1|9=56|35=0|34=481|49=HEMAAPA|52=20170912-20:06:37.681|56=TRAX|10=196|8=FIXT.1.1|9=56|35=0|34=482|49=HEMAAPA|52=20170912-20:07:07.683|56=TRAX|10=197|8=FIXT.1.1|9=56|35=0|34=483|49=HEMAAPA|52=20170912-20:07:38.679|56=TRAX|10=207|8=FIXT.1.1|9=56|35=0|34=484|49=HEMAAPA|52=20170912-20:08:09.684|56=TRAX|10=203|8=FIXT.1.1|9=56|35=0|34=485|49=HEMAAPA|52=20170912-20:08:39.685|56=TRAX|10=208|8=FIXT.1.1|9=56|35=0|34=486|49=HEMAAPA|52=20170912-20:09:09.685|56=TRAX|10=207|8=FIXT.1.1|9=56|35=0|34=487|49=HEMAAPA|52=20170912-20:09:40.682|56=TRAX|10=200|8=FIXT.1.1|9=56|35=0|34=488|49=HEMAAPA|52=20170912-20:10:11.673|56=TRAX|10=191|8=FIXT.1.1|9=56|35=0|34=489|49=HEMAAPA|52=20170912-20:10:42.686|56=TRAX|10=200|8=FIXT.1.1|9=56|35=0|34=490|49=HEMAAPA|52=20170912-20:11:13.683|56=TRAX|10=188|8=FIXT.1.1|9=56|35=0|34=491|49=HEMAAPA|52=20170912-20:11:43.683|56=TRAX|10=192|8=FIXT.1.1|9=56|35=0|34=492|49=HEMAAPA|52=20170912-20:12:13.690|56=TRAX|10=189|8=FIXT.1.1|9=56|35=0|34=493|49=HEMAAPA|52=20170912-20:12:44.690|56=TRAX|10=194|8=FIXT.1.1|9=56|35=0|34=494|49=HEMAAPA|52=20170912-20:13:15.688|56=TRAX|10=201|8=FIXT.1.1|9=56|35=0|34=495|49=HEMAAPA|52=20170912-20:13:45.688|56=TRAX|10=205|8=FIXT.1.1|9=56|35=0|34=496|49=HEMAAPA|52=20170912-20:14:15.690|56=TRAX|10=197|8=FIXT.1.1|9=56|35=0|34=497|49=HEMAAPA|52=20170912-20:14:46.692|56=TRAX|10=204|8=FIXT.1.1|9=56|35=0|34=498|49=HEMAAPA|52=20170912-20:15:17.694|56=TRAX|10=206|8=FIXT.1.1|9=56|35=0|34=499|49=HEMAAPA|52=20170912-20:15:48.668|56=TRAX|10=212|8=FIXT.1.1|9=56|35=0|34=500|49=HEMAAPA|52=20170912-20:16:18.690|56=TRAX|10=188|8=FIXT.1.1|9=56|35=0|34=501|49=HEMAAPA|52=20170912-20:16:48.695|56=TRAX|10=197|8=FIXT.1.1|9=56|35=0|34=502|49=HEMAAPA|52=20170912-20:17:18.697|56=TRAX|10=198|8=FIXT.1.1|9=56|35=0|34=503|49=HEMAAPA|52=20170912-20:17:49.689|56=TRAX|10=204|8=FIXT.1.1|9=56|35=0|34=504|49=HEMAAPA|52=20170912-20:18:19.693|56=TRAX|10=198|8=FIXT.1.1|9=56|35=0|34=505|49=HEMAAPA|52=20170912-20:18:49.696|56=TRAX|10=205|8=FIXT.1.1|9=56|35=0|34=506|49=HEMAAPA|52=20170912-20:19:19.699|56=TRAX|10=207|8=FIXT.1.1|9=56|35=0|34=507|49=HEMAAPA|52=20170912-20:19:50.695|56=TRAX|10=199|8=FIXT.1.1|9=56|35=0|34=508|49=HEMAAPA|52=20170912-20:20:20.695|56=TRAX|10=189|8=FIXT.1.1|9=56|35=0|34=509|49=HEMAAPA|52=20170912-20:20:50.698|56=TRAX|10=196|8=FIXT.1.1|9=56|35=0|34=510|49=HEMAAPA|52=20170912-20:21:21.698|56=TRAX|10=187|8=FIXT.1.1|9=56|35=0|34=511|49=HEMAAPA|52=20170912-20:21:52.704|56=TRAX|10=180|8=FIXT.1.1|9=56|35=0|34=512|49=HEMAAPA|52=20170912-20:22:23.695|56=TRAX|10=189|8=FIXT.1.1|9=56|35=0|34=513|49=HEMAAPA|52=20170912-20:22:53.697|56=TRAX|10=195|8=FIXT.1.1|9=56|35=0|34=514|49=HEMAAPA|52=20170912-20:23:23.701|56=TRAX|10=180|8=FIXT.1.1|9=56|35=0|34=515|49=HEMAAPA|52=20170912-20:23:53.701|56=TRAX|10=184|8=FIXT.1.1|9=56|35=0|34=516|49=HEMAAPA|52=20170912-20:24:24.707|56=TRAX|10=190|8=FIXT.1.1|9=56|35=0|34=517|49=HEMAAPA|52=20170912-20:24:54.708|56=TRAX|10=195|8=FIXT.1.1|9=56|35=0|34=518|49=HEMAAPA|52=20170912-20:25:24.708|56=TRAX|10=194|8=FIXT.1.1|9=56|35=0|34=519|49=HEMAAPA|52=20170912-20:25:54.710|56=TRAX|10=191|8=FIXT.1.1|9=56|35=0|34=520|49=HEMAAPA|52=20170912-20:26:25.702|56=TRAX|10=183|8=FIXT.1.1|9=56|35=0|34=521|49=HEMAAPA|52=20170912-20:26:55.703|56=TRAX|10=188|8=FIXT.1.1|9=56|35=0|34=522|49=HEMAAPA|52=20170912-20:27:25.709|56=TRAX|10=193|8=FIXT.1.1|9=56|35=0|34=523|49=HEMAAPA|52=20170912-20:27:55.709|56=TRAX|10=197|8=FIXT.1.1|9=56|35=0|34=524|49=HEMAAPA|52=20170912-20:28:26.690|56=TRAX|10=196|8=FIXT.1.1|9=56|35=0|34=525|49=HEMAAPA|52=20170912-20:28:56.712|56=TRAX|10=195|8=FIXT.1.1|9=56|35=0|34=526|49=HEMAAPA|52=20170912-20:29:27.707|56=TRAX|10=199|8=FIXT.1.1|9=56|35=0|34=527|49=HEMAAPA|52=20170912-20:29:58.712|56=TRAX|10=200|8=FIXT.1.1|9=56|35=0|34=528|49=HEMAAPA|52=20170912-20:30:29.694|56=TRAX|10=200|8=FIXT.1.1|9=56|35=0|34=529|49=HEMAAPA|52=20170912-20:30:59.716|56=TRAX|10=199|8=FIXT.1.1|9=56|35=0|34=530|49=HEMAAPA|52=20170912-20:31:30.710|56=TRAX|10=175|8=FIXT.1.1|9=56|35=0|34=531|49=HEMAAPA|52=20170912-20:32:00.716|56=TRAX|10=180|8=FIXT.1.1|9=56|35=0|34=532|49=HEMAAPA|52=20170912-20:32:31.713|56=TRAX|10=182|8=FIXT.1.1|9=56|35=0|34=533|49=HEMAAPA|52=20170912-20:33:02.577|56=TRAX|10=190|8=FIXT.1.1|9=56|35=0|34=534|49=HEMAAPA|52=20170912-20:33:32.597|56=TRAX|10=196|8=FIXT.1.1|9=56|35=0|34=535|49=HEMAAPA|52=20170912-20:34:02.712|56=TRAX|10=184|8=FIXT.1.1|9=56|35=0|34=536|49=HEMAAPA|52=20170912-20:34:33.721|56=TRAX|10=189|8=FIXT.1.1|9=56|35=0|34=537|49=HEMAAPA|52=20170912-20:35:04.722|56=TRAX|10=190|8=FIXT.1.1|9=56|35=0|34=538|49=HEMAAPA|52=20170912-20:35:34.723|56=TRAX|10=195|8=FIXT.1.1|9=56|35=0|34=539|49=HEMAAPA|52=20170912-20:36:05.721|56=TRAX|10=193|8=FIXT.1.1|9=56|35=0|34=540|49=HEMAAPA|52=20170912-20:36:35.725|56=TRAX|10=192|8=FIXT.1.1|9=56|35=0|34=541|49=HEMAAPA|52=20170912-20:37:06.722|56=TRAX|10=189|8=FIXT.1.1|9=56|35=0|34=542|49=HEMAAPA|52=20170912-20:37:36.726|56=TRAX|10=197|8=FIXT.1.1|9=56|35=0|34=543|49=HEMAAPA|52=20170912-20:38:06.726|56=TRAX|10=196|8=FIXT.1.1|9=56|35=0|34=544|49=HEMAAPA|52=20170912-20:38:37.727|56=TRAX|10=202|8=FIXT.1.1|9=56|35=0|34=545|49=HEMAAPA|52=20170912-20:39:08.728|56=TRAX|10=203|8=FIXT.1.1|9=56|35=0|34=546|49=HEMAAPA|52=20170912-20:39:39.726|56=TRAX|10=206|8=FIXT.1.1|9=56|35=0|34=547|49=HEMAAPA|52=20170912-20:40:09.728|56=TRAX|10=198|8=FIXT.1.1|9=56|35=0|34=548|49=HEMAAPA|52=20170912-20:40:39.729|56=TRAX|10=203|8=FIXT.1.1|9=56|35=0|34=549|49=HEMAAPA|52=20170912-20:41:09.730|56=TRAX|10=194|8=FIXT.1.1|9=56|35=0|34=550|49=HEMAAPA|52=20170912-20:41:40.727|56=TRAX|10=187|8=FIXT.1.1|9=56|35=0|34=551|49=HEMAAPA|52=20170912-20:42:10.731|56=TRAX|10=181|8=FIXT.1.1|9=56|35=0|34=552|49=HEMAAPA|52=20170912-20:42:41.731|56=TRAX|10=186|8=FIXT.1.1|9=56|35=0|34=553|49=HEMAAPA|52=20170912-20:43:12.728|56=TRAX|10=192|8=FIXT.1.1|9=56|35=0|34=554|49=HEMAAPA|52=20170912-20:43:42.729|56=TRAX|10=197|8=FIXT.1.1|9=56|35=0|34=555|49=HEMAAPA|52=20170912-20:44:13.734|56=TRAX|10=193|8=FIXT.1.1|9=56|35=0|34=556|49=HEMAAPA|52=20170912-20:44:44.728|56=TRAX|10=201|8=FIXT.1.1|9=56|35=0|34=557|49=HEMAAPA|52=20170912-20:45:15.714|56=TRAX|10=196|8=FIXT.1.1|9=56|35=0|34=558|49=HEMAAPA|52=20170912-20:45:45.732|56=TRAX|10=200|8=FIXT.1.1|9=56|35=0|34=559|49=HEMAAPA|52=20170912-20:46:15.734|56=TRAX|10=201|8=FIXT.1.1|9=56|35=0|34=560|49=HEMAAPA|52=20170912-20:46:45.734|56=TRAX|10=196|8=FIXT.1.1|9=56|35=0|34=561|49=HEMAAPA|52=20170912-20:47:16.739|56=TRAX|10=201|8=FIXT.1.1|9=56|35=0|34=562|49=HEMAAPA|52=20170912-20:47:47.730|56=TRAX|10=197|8=FIXT.1.1|9=56|35=0|34=563|49=HEMAAPA|52=20170912-20:48:18.739|56=TRAX|10=206|8=FIXT.1.1|9=56|35=0|34=564|49=HEMAAPA|52=20170912-20:48:48.741|56=TRAX|10=203|8=FIXT.1.1|9=56|35=0|34=565|49=HEMAAPA|52=20170912-20:49:19.734|56=TRAX|10=205|8=FIXT.1.1|9=56|35=0|34=566|49=HEMAAPA|52=20170912-20:49:49.743|56=TRAX|10=209|8=FIXT.1.1|9=56|35=0|34=567|49=HEMAAPA|52=20170912-20:50:20.726|56=TRAX|10=192|8=FIXT.1.1|9=56|35=0|34=568|49=HEMAAPA|52=20170912-20:50:51.744|56=TRAX|10=197|8=FIXT.1.1|9=56|35=0|34=569|49=HEMAAPA|52=20170912-20:51:22.744|56=TRAX|10=197|8=FIXT.1.1|9=56|35=0|34=570|49=HEMAAPA|52=20170912-20:51:53.744|56=TRAX|10=193|8=FIXT.1.1|9=56|35=0|34=571|49=HEMAAPA|52=20170912-20:52:23.747|56=TRAX|10=195|8=FIXT.1.1|9=56|35=0|34=572|49=HEMAAPA|52=20170912-20:52:54.734|56=TRAX|10=196|8=FIXT.1.1|9=56|35=0|34=573|49=HEMAAPA|52=20170912-20:53:24.738|56=TRAX|10=199|8=FIXT.1.1|9=56|35=0|34=574|49=HEMAAPA|52=20170912-20:53:54.746|56=TRAX|10=202|8=FIXT.1.1|9=56|35=0|34=575|49=HEMAAPA|52=20170912-20:54:25.745|56=TRAX|10=201|8=FIXT.1.1|9=56|35=0|34=576|49=HEMAAPA|52=20170912-20:54:55.749|56=TRAX|10=209|8=FIXT.1.1|9=56|35=0|34=577|49=HEMAAPA|52=20170912-20:55:25.752|56=TRAX|10=202|8=FIXT.1.1|9=56|35=0|34=578|49=HEMAAPA|52=20170912-20:55:56.745|56=TRAX|10=209|8=FIXT.1.1|9=56|35=0|34=579|49=HEMAAPA|52=20170912-20:56:26.746|56=TRAX|10=209|8=FIXT.1.1|9=56|35=0|34=580|49=HEMAAPA|52=20170912-20:56:56.748|56=TRAX|10=206|8=FIXT.1.1|9=56|35=0|34=581|49=HEMAAPA|52=20170912-20:57:27.750|56=TRAX|10=199|8=FIXT.1.1|9=56|35=0|34=582|49=HEMAAPA|52=20170912-20:57:57.751|56=TRAX|10=204|8=FIXT.1.1|9=56|35=0|34=583|49=HEMAAPA|52=20170912-20:58:27.755|56=TRAX|10=207|8=FIXT.1.1|9=56|35=0|34=584|49=HEMAAPA|52=20170912-20:58:58.757|56=TRAX|10=214|8=FIXT.1.1|9=56|35=0|34=585|49=HEMAAPA|52=20170912-20:59:29.752|56=TRAX|10=209|8=FIXT.1.1|9=56|35=0|34=586|49=HEMAAPA|52=20170912-21:00:00.756|56=TRAX|10=190|8=FIXT.1.1|9=56|35=0|34=587|49=HEMAAPA|52=20170912-21:00:31.752|56=TRAX|10=191|8=FIXT.1.1|9=56|35=0|34=588|49=HEMAAPA|52=20170912-21:01:02.580|56=TRAX|10=190|8=FIXT.1.1|9=56|35=0|34=589|49=HEMAAPA|52=20170912-21:01:32.587|56=TRAX|10=201|8=FIXT.1.1|9=56|35=0|34=590|49=HEMAAPA|52=20170912-21:02:02.743|56=TRAX|10=185|8=FIXT.1.1|9=56|35=0|34=591|49=HEMAAPA|52=20170912-21:02:32.759|56=TRAX|10=196|8=FIXT.1.1|9=56|35=0|34=592|49=HEMAAPA|52=20170912-21:03:03.761|56=TRAX|10=189|8=FIXT.1.1|9=56|35=0|34=593|49=HEMAAPA|52=20170912-21:03:34.754|56=TRAX|10=196|8=FIXT.1.1|9=56|35=0|34=594|49=HEMAAPA|52=20170912-21:04:04.755|56=TRAX|10=196|8=FIXT.1.1|9=56|35=0|34=595|49=HEMAAPA|52=20170912-21:04:34.761|56=TRAX|10=197|8=FIXT.1.1|9=56|35=0|34=596|49=HEMAAPA|52=20170912-21:05:04.764|56=TRAX|10=199|8=FIXT.1.1|9=56|35=0|34=597|49=HEMAAPA|52=20170912-21:05:34.767|56=TRAX|10=206|8=FIXT.1.1|9=56|35=0|34=598|49=HEMAAPA|52=20170912-21:06:05.752|56=TRAX|10=200|8=FIXT.1.1|9=56|35=0|34=599|49=HEMAAPA|52=20170912-21:06:35.763|56=TRAX|10=206|8=FIXT.1.1|9=56|35=0|34=600|49=HEMAAPA|52=20170912-21:07:05.765|56=TRAX|10=189|8=FIXT.1.1|9=56|35=0|34=601|49=HEMAAPA|52=20170912-21:07:35.767|56=TRAX|10=195|8=FIXT.1.1|9=56|35=0|34=602|49=HEMAAPA|52=20170912-21:08:06.768|56=TRAX|10=196|8=FIXT.1.1|9=56|35=0|34=603|49=HEMAAPA|52=20170912-21:08:36.769|56=TRAX|10=201|8=FIXT.1.1|9=56|35=0|34=604|49=HEMAAPA|52=20170912-21:09:07.770|56=TRAX|10=193|8=FIXT.1.1|9=56|35=0|34=605|49=HEMAAPA|52=20170912-21:09:38.764|56=TRAX|10=201|8=FIXT.1.1|9=56|35=0|34=606|49=HEMAAPA|52=20170912-21:10:08.766|56=TRAX|10=193|8=FIXT.1.1|9=56|35=0|34=607|49=HEMAAPA|52=20170912-21:10:39.767|56=TRAX|10=199|8=FIXT.1.1|9=56|35=0|34=608|49=HEMAAPA|52=20170912-21:11:09.771|56=TRAX|10=193|8=FIXT.1.1|9=56|35=0|34=609|49=HEMAAPA|52=20170912-21:11:40.773|56=TRAX|10=191|8=FIXT.1.1|9=56|35=0|34=610|49=HEMAAPA|52=20170912-21:12:11.772|56=TRAX|10=181|8=FIXT.1.1|9=56|35=0|34=611|49=HEMAAPA|52=20170912-21:12:42.774|56=TRAX|10=188|8=FIXT.1.1|9=56|35=0|34=612|49=HEMAAPA|52=20170912-21:13:13.772|56=TRAX|10=186|8=FIXT.1.1|9=56|35=0|34=613|49=HEMAAPA|52=20170912-21:13:43.775|56=TRAX|10=193|8=FIXT.1.1|9=56|35=0|34=614|49=HEMAAPA|52=20170912-21:14:14.756|56=TRAX|10=192|8=FIXT.1.1|9=56|35=0|34=615|49=HEMAAPA|52=20170912-21:14:44.777|56=TRAX|10=199|8=FIXT.1.1|9=56|35=0|34=616|49=HEMAAPA|52=20170912-21:15:15.780|56=TRAX|10=193|8=FIXT.1.1|9=56|35=0|34=617|49=HEMAAPA|52=20170912-21:15:46.778|56=TRAX|10=205|8=FIXT.1.1|9=56|35=0|34=618|49=HEMAAPA|52=20170912-21:16:17.779|56=TRAX|10=206|8=FIXT.1.1|9=56|35=0|34=619|49=HEMAAPA|52=20170912-21:16:48.781|56=TRAX|10=204|8=FIXT.1.1|9=56|35=0|34=620|49=HEMAAPA|52=20170912-21:17:18.782|56=TRAX|10=195|8=FIXT.1.1|9=56|35=0|34=621|49=HEMAAPA|52=20170912-21:17:48.784|56=TRAX|10=201|8=FIXT.1.1|9=56|35=0|34=622|49=HEMAAPA|52=20170912-21:18:19.784|56=TRAX|10=201|8=FIXT.1.1|9=56|35=0|34=623|49=HEMAAPA|52=20170912-21:18:50.765|56=TRAX|10=196|8=FIXT.1.1|9=56|35=0|34=624|49=HEMAAPA|52=20170912-21:19:20.783|56=TRAX|10=195|8=FIXT.1.1|9=56|35=0|34=625|49=HEMAAPA|52=20170912-21:19:50.786|56=TRAX|10=202|8=FIXT.1.1|9=56|35=0|34=626|49=HEMAAPA|52=20170912-21:20:20.787|56=TRAX|10=193|8=FIXT.1.1|9=56|35=0|34=627|49=HEMAAPA|52=20170912-21:20:50.787|56=TRAX|10=197|8=FIXT.1.1|9=56|35=0|34=628|49=HEMAAPA|52=20170912-21:21:21.786|56=TRAX|10=196|8=FIXT.1.1|9=56|35=0|34=629|49=HEMAAPA|52=20170912-21:21:52.783|56=TRAX|10=198|8=FIXT.1.1|9=56|35=0|34=630|49=HEMAAPA|52=20170912-21:22:22.787|56=TRAX|10=192|8=FIXT.1.1|9=56|35=0|34=631|49=HEMAAPA|52=20170912-21:22:52.791|56=TRAX|10=191|8=FIXT.1.1|9=56|35=0|34=632|49=HEMAAPA|52=20170912-21:23:23.785|56=TRAX|10=194|8=FIXT.1.1|9=56|35=0|34=633|49=HEMAAPA|52=20170912-21:23:53.790|56=TRAX|10=194|8=FIXT.1.1|9=56|35=0|34=634|49=HEMAAPA|52=20170912-21:24:23.792|56=TRAX|10=195|8=FIXT.1.1|9=56|35=0|34=635|49=HEMAAPA|52=20170912-21:24:53.793|56=TRAX|10=200|8=FIXT.1.1|9=56|35=0|34=636|49=HEMAAPA|52=20170912-21:25:23.793|56=TRAX|10=199|8=FIXT.1.1|9=56|35=0|34=637|49=HEMAAPA|52=20170912-21:25:54.793|56=TRAX|10=204|8=FIXT.1.1|9=56|35=0|34=638|49=HEMAAPA|52=20170912-21:26:25.793|56=TRAX|10=204|8=FIXT.1.1|9=56|35=0|34=639|49=HEMAAPA|52=20170912-21:26:55.797|56=TRAX|10=212|8=FIXT.1.1|9=56|35=0|34=640|49=HEMAAPA|52=20170912-21:27:26.789|56=TRAX|10=204|8=FIXT.1.1|9=56|35=0|34=641|49=HEMAAPA|52=20170912-21:27:56.793|56=TRAX|10=203|8=FIXT.1.1|9=56|35=0|34=642|49=HEMAAPA|52=20170912-21:28:27.800|56=TRAX|10=192|8=FIXT.1.1|9=56|35=0|34=643|49=HEMAAPA|52=20170912-21:28:58.799|56=TRAX|10=214|8=FIXT.1.1|9=56|35=0|34=644|49=HEMAAPA|52=20170912-21:29:29.801|56=TRAX|10=198|8=FIXT.1.1|9=56|35=0|34=645|49=HEMAAPA|52=20170912-21:30:00.776|56=TRAX|10=191|8=FIXT.1.1|9=56|35=0|34=646|49=HEMAAPA|52=20170912-21:30:30.799|56=TRAX|10=200|8=FIXT.1.1|9=56|35=0|34=647|49=HEMAAPA|52=20170912-21:31:00.799|56=TRAX|10=199|8=FIXT.1.1|9=56|35=0|34=648|49=HEMAAPA|52=20170912-21:31:30.800|56=TRAX|10=186|8=FIXT.1.1|9=56|35=0|34=649|49=HEMAAPA|52=20170912-21:32:00.800|56=TRAX|10=185|8=FIXT.1.1|9=56|35=0|34=650|49=HEMAAPA|52=20170912-21:32:30.802|56=TRAX|10=182|8=FIXT.1.1|9=56|35=0|34=651|49=HEMAAPA|52=20170912-21:33:01.805|56=TRAX|10=185|8=FIXT.1.1|9=56|35=0|34=652|49=HEMAAPA|52=20170912-21:33:31.806|56=TRAX|10=190|8=FIXT.1.1|9=56|35=0|34=653|49=HEMAAPA|52=20170912-21:34:01.807|56=TRAX|10=190|8=FIXT.1.1|9=56|35=0|34=654|49=HEMAAPA|52=20170912-21:34:32.586|56=TRAX|10=199|8=FIXT.1.1|9=56|35=0|34=655|49=HEMAAPA|52=20170912-21:35:02.620|56=TRAX|10=187|8=FIXT.1.1|9=56|35=0|34=656|49=HEMAAPA|52=20170912-21:35:32.782|56=TRAX|10=200|8=FIXT.1.1|9=56|35=0|34=657|49=HEMAAPA|52=20170912-21:36:02.795|56=TRAX|10=203|8=FIXT.1.1|9=56|35=0|34=658|49=HEMAAPA|52=20170912-21:36:32.806|56=TRAX|10=200|8=FIXT.1.1|9=56|35=0|34=659|49=HEMAAPA|52=20170912-21:37:03.809|56=TRAX|10=203|8=FIXT.1.1|9=56|35=0|34=660|49=HEMAAPA|52=20170912-21:37:33.810|56=TRAX|10=190|8=FIXT.1.1|9=56|35=0|34=661|49=HEMAAPA|52=20170912-21:38:04.808|56=TRAX|10=197|8=FIXT.1.1|9=56|35=0|34=662|49=HEMAAPA|52=20170912-21:38:34.812|56=TRAX|10=196|8=FIXT.1.1|9=56|35=0|34=663|49=HEMAAPA|52=20170912-21:39:05.809|56=TRAX|10=202|8=FIXT.1.1|9=56|35=0|34=664|49=HEMAAPA|52=20170912-21:39:35.814|56=TRAX|10=202|8=FIXT.1.1|9=56|35=0|34=665|49=HEMAAPA|52=20170912-21:40:06.814|56=TRAX|10=193|8=FIXT.1.1|9=56|35=0|34=666|49=HEMAAPA|52=20170912-21:40:37.809|56=TRAX|10=202|8=FIXT.1.1|9=56|35=0|34=667|49=HEMAAPA|52=20170912-21:41:07.810|56=TRAX|10=193|8=FIXT.1.1|9=56|35=0|34=668|49=HEMAAPA|52=20170912-21:41:37.811|56=TRAX|10=198|8=FIXT.1.1|9=56|35=0|34=669|49=HEMAAPA|52=20170912-21:42:07.815|56=TRAX|10=201|8=FIXT.1.1|9=56|35=0|34=670|49=HEMAAPA|52=20170912-21:42:37.818|56=TRAX|10=199|8=FIXT.1.1|9=56|35=0|34=671|49=HEMAAPA|52=20170912-21:43:08.818|56=TRAX|10=199|8=FIXT.1.1|9=56|35=0|34=672|49=HEMAAPA|52=20170912-21:43:39.815|56=TRAX|10=201|8=FIXT.1.1|9=56|35=0|34=673|49=HEMAAPA|52=20170912-21:44:09.822|56=TRAX|10=198|8=FIXT.1.1|9=56|35=0|34=674|49=HEMAAPA|52=20170912-21:44:40.817|56=TRAX|10=198|8=FIXT.1.1|9=56|35=0|34=675|49=HEMAAPA|52=20170912-21:45:10.823|56=TRAX|10=194|8=FIXT.1.1|9=56|35=0|34=676|49=HEMAAPA|52=20170912-21:45:40.823|56=TRAX|10=198|8=FIXT.1.1|9=56|35=0|34=677|49=HEMAAPA|52=20170912-21:46:10.824|56=TRAX|10=198|8=FIXT.1.1|9=56|35=0|34=678|49=HEMAAPA|52=20170912-21:46:40.826|56=TRAX|10=204|8=FIXT.1.1|9=56|35=0|34=679|49=HEMAAPA|52=20170912-21:47:10.827|56=TRAX|10=204|8=FIXT.1.1|9=56|35=0|34=680|49=HEMAAPA|52=20170912-21:47:41.816|56=TRAX|10=198|8=FIXT.1.1|9=56|35=0|34=681|49=HEMAAPA|52=20170912-21:48:11.820|56=TRAX|10=192|8=FIXT.1.1|9=56|35=0|34=682|49=HEMAAPA|52=20170912-21:48:41.825|56=TRAX|10=201|8=FIXT.1.1|9=56|35=0|34=683|49=HEMAAPA|52=20170912-21:49:11.827|56=TRAX|10=202|8=FIXT.1.1|9=56|35=0|34=684|49=HEMAAPA|52=20170912-21:49:42.824|56=TRAX|10=204|8=FIXT.1.1|9=56|35=0|34=685|49=HEMAAPA|52=20170912-21:50:13.826|56=TRAX|10=197|8=FIXT.1.1|9=56|35=0|34=686|49=HEMAAPA|52=20170912-21:50:44.828|56=TRAX|10=204|8=FIXT.1.1|9=56|35=0|34=687|49=HEMAAPA|52=20170912-21:51:15.829|56=TRAX|10=205|8=FIXT.1.1|9=56|35=0|34=688|49=HEMAAPA|52=20170912-21:51:46.830|56=TRAX|10=202|8=FIXT.1.1|9=56|35=0|34=689|49=HEMAAPA|52=20170912-21:52:16.832|56=TRAX|10=203|8=FIXT.1.1|9=56|35=0|34=690|49=HEMAAPA|52=20170912-21:52:47.814|56=TRAX|10=199|8=FIXT.1.1|9=56|35=0|34=691|49=HEMAAPA|52=20170912-21:53:17.831|56=TRAX|10=197|8=FIXT.1.1|9=56|35=0|34=692|49=HEMAAPA|52=20170912-21:53:48.835|56=TRAX|10=206|8=FIXT.1.1|9=56|35=0|34=693|49=HEMAAPA|52=20170912-21:54:19.830|56=TRAX|10=201|8=FIXT.1.1|9=56|35=0|34=694|49=HEMAAPA|52=20170912-21:54:49.832|56=TRAX|10=207|8=FIXT.1.1|9=56|35=0|34=695|49=HEMAAPA|52=20170912-21:55:19.835|56=TRAX|10=209|8=FIXT.1.1|9=56|35=0|34=696|49=HEMAAPA|52=20170912-21:55:50.839|56=TRAX|10=209|8=FIXT.1.1|9=56|35=0|34=697|49=HEMAAPA|52=20170912-21:56:21.832|56=TRAX|10=202|8=FIXT.1.1|9=56|35=0|34=698|49=HEMAAPA|52=20170912-21:56:51.832|56=TRAX|10=206|8=FIXT.1.1|9=56|35=0|34=699|49=HEMAAPA|52=20170912-21:57:21.840|56=TRAX|10=204|8=FIXT.1.1|9=56|35=0|34=700|49=HEMAAPA|52=20170912-21:57:52.839|56=TRAX|10=199|8=FIXT.1.1|9=56|35=0|34=701|49=HEMAAPA|52=20170912-21:58:22.841|56=TRAX|10=191|8=FIXT.1.1|9=56|35=0|34=702|49=HEMAAPA|52=20170912-21:58:52.842|56=TRAX|10=196|8=FIXT.1.1|9=56|35=0|34=703|49=HEMAAPA|52=20170912-21:59:22.843|56=TRAX|10=196|8=FIXT.1.1|9=56|35=0|34=704|49=HEMAAPA|52=20170912-21:59:52.844|56=TRAX|10=201|8=FIXT.1.1|9=56|35=0|34=705|49=HEMAAPA|52=20170912-22:00:23.846|56=TRAX|10=189|8=FIXT.1.1|9=56|35=0|34=706|49=HEMAAPA|52=20170912-22:00:54.838|56=TRAX|10=195|8=FIXT.1.1|9=56|35=0|34=707|49=HEMAAPA|52=20170912-22:01:24.842|56=TRAX|10=189|8=FIXT.1.1|9=56|35=0|34=708|49=HEMAAPA|52=20170912-22:01:55.848|56=TRAX|10=200|8=FIXT.1.1|9=56|35=0|34=709|49=HEMAAPA|52=20170912-22:02:26.847|56=TRAX|10=199|8=FIXT.1.1|9=56|35=0|34=710|49=HEMAAPA|52=20170912-22:02:56.848|56=TRAX|10=195|8=FIXT.1.1|9=56|35=0|34=711|49=HEMAAPA|52=20170912-22:03:26.849|56=TRAX|10=195|8=FIXT.1.1|9=56|35=0|34=712|49=HEMAAPA|52=20170912-22:03:56.849|56=TRAX|10=199|8=FIXT.1.1|9=56|35=0|34=713|49=HEMAAPA|52=20170912-22:04:27.848|56=TRAX|10=198|8=FIXT.1.1|9=56|35=0|34=714|49=HEMAAPA|52=20170912-22:04:57.851|56=TRAX|10=196|8=FIXT.1.1|9=56|35=0|34=715|49=HEMAAPA|52=20170912-22:05:27.853|56=TRAX|10=197|8=FIXT.1.1|9=56|35=0|34=716|49=HEMAAPA|52=20170912-22:05:57.854|56=TRAX|10=202|8=FIXT.1.1|9=56|35=0|34=717|49=HEMAAPA|52=20170912-22:06:28.850|56=TRAX|10=198|8=FIXT.1.1|9=56|35=0|34=718|49=HEMAAPA|52=20170912-22:06:58.854|56=TRAX|10=206|8=FIXT.1.1|9=56|35=0|34=719|49=HEMAAPA|52=20170912-22:07:29.853|56=TRAX|10=205|8=FIXT.1.1|9=56|35=0|34=720|49=HEMAAPA|52=20170912-22:08:00.849|56=TRAX|10=192|8=FIXT.1.1|9=56|35=0|34=721|49=HEMAAPA|52=20170912-22:08:30.850|56=TRAX|10=188|8=FIXT.1.1|9=56|35=0|34=722|49=HEMAAPA|52=20170912-22:09:01.850|56=TRAX|10=188|8=FIXT.1.1|9=56|35=0|34=723|49=HEMAAPA|52=20170912-22:09:31.857|56=TRAX|10=199|8=FIXT.1.1|9=56|35=0|34=724|49=HEMAAPA|52=20170912-22:10:02.592|56=TRAX|10=186|8=FIXT.1.1|9=56|35=0|34=725|49=HEMAAPA|52=20170912-22:10:32.860|56=TRAX|10=188|8=FIXT.1.1|9=56|35=0|34=726|49=HEMAAPA|52=20170912-22:11:03.834|56=TRAX|10=189|8=FIXT.1.1|9=56|35=0|34=727|49=HEMAAPA|52=20170912-22:11:33.854|56=TRAX|10=195|8=FIXT.1.1|9=56|35=0|34=728|49=HEMAAPA|52=20170912-22:12:03.862|56=TRAX|10=193|8=FIXT.1.1|9=56|35=0|34=729|49=HEMAAPA|52=20170912-22:12:34.863|56=TRAX|10=199|8=FIXT.1.1|9=56|35=0|34=730|49=HEMAAPA|52=20170912-22:13:05.864|56=TRAX|10=191|8=FIXT.1.1|9=56|35=0|34=731|49=HEMAAPA|52=20170912-22:13:36.864|56=TRAX|10=196|8=FIXT.1.1|9=56|35=0|34=732|49=HEMAAPA|52=20170912-22:14:07.862|56=TRAX|10=194|8=FIXT.1.1|9=56|35=0|34=733|49=HEMAAPA|52=20170912-22:14:38.846|56=TRAX|10=201|8=FIXT.1.1|9=56|35=0|34=734|49=HEMAAPA|52=20170912-22:15:08.862|56=TRAX|10=198|8=FIXT.1.1|9=56|35=0|34=735|49=HEMAAPA|52=20170912-22:15:38.867|56=TRAX|10=207|8=FIXT.1.1|9=56|35=0|34=736|49=HEMAAPA|52=20170912-22:16:09.866|56=TRAX|10=206|8=FIXT.1.1|9=56|35=0|34=737|49=HEMAAPA|52=20170912-22:16:40.868|56=TRAX|10=204|8=FIXT.1.1|9=56|35=0|34=738|49=HEMAAPA|52=20170912-22:17:11.869|56=TRAX|10=205|8=FIXT.1.1|9=56|35=0|34=739|49=HEMAAPA|52=20170912-22:17:42.848|56=TRAX|10=207|8=FIXT.1.1|9=56|35=0|34=740|49=HEMAAPA|52=20170912-22:18:12.872|56=TRAX|10=194|8=FIXT.1.1|9=56|35=0|34=741|49=HEMAAPA|52=20170912-22:18:42.873|56=TRAX|10=199|8=FIXT.1.1|9=56|35=0|34=742|49=HEMAAPA|52=20170912-22:19:13.865|56=TRAX|10=200|8=FIXT.1.1|9=56|35=0|34=743|49=HEMAAPA|52=20170912-22:19:43.866|56=TRAX|10=205|8=FIXT.1.1|9=56|35=0|34=744|49=HEMAAPA|52=20170912-22:20:14.857|56=TRAX|10=196|8=FIXT.1.1|9=56|35=0|34=745|49=HEMAAPA|52=20170912-22:20:44.873|56=TRAX|10=198|8=FIXT.1.1|9=56|35=0|34=746|49=HEMAAPA|52=20170912-22:21:14.874|56=TRAX|10=198|8=FIXT.1.1|9=56|35=0|34=747|49=HEMAAPA|52=20170912-22:21:44.875|56=TRAX|10=203|8=FIXT.1.1|9=56|35=0|34=748|49=HEMAAPA|52=20170912-22:22:15.870|56=TRAX|10=198|8=FIXT.1.1|9=56|35=0|34=749|49=HEMAAPA|52=20170912-22:22:46.851|56=TRAX|10=202|8=FIXT.1.1|9=56|35=0|34=750|49=HEMAAPA|52=20170912-22:23:16.874|56=TRAX|10=197|8=FIXT.1.1|9=56|35=0|34=751|49=HEMAAPA|52=20170912-22:23:46.878|56=TRAX|10=205|8=FIXT.1.1|9=56|35=0|34=752|49=HEMAAPA|52=20170912-22:24:17.875|56=TRAX|10=202|8=FIXT.1.1|9=56|35=0|34=753|49=HEMAAPA|52=20170912-22:24:47.877|56=TRAX|10=208|8=FIXT.1.1|9=56|35=0|34=754|49=HEMAAPA|52=20170912-22:25:17.881|56=TRAX|10=202|8=FIXT.1.1|9=56|35=0|34=755|49=HEMAAPA|52=20170912-22:25:48.881|56=TRAX|10=207|8=FIXT.1.1|9=56|35=0|34=756|49=HEMAAPA|52=20170912-22:26:19.877|56=TRAX|10=212|8=FIXT.1.1|9=56|35=0|34=757|49=HEMAAPA|52=20170912-22:26:50.869|56=TRAX|10=209|8=FIXT.1.1|9=56|35=0|34=758|49=HEMAAPA|52=20170912-22:27:20.881|56=TRAX|10=202|8=FIXT.1.1|9=56|35=0|34=759|49=HEMAAPA|52=20170912-22:27:51.880|56=TRAX|10=206|8=FIXT.1.1|9=56|35=0|34=760|49=HEMAAPA|52=20170912-22:28:21.881|56=TRAX|10=197|8=FIXT.1.1|9=56|35=0|34=761|49=HEMAAPA|52=20170912-22:28:52.878|56=TRAX|10=208|8=FIXT.1.1|9=56|35=0|34=762|49=HEMAAPA|52=20170912-22:29:22.886|56=TRAX|10=206|8=FIXT.1.1|9=56|35=0|34=763|49=HEMAAPA|52=20170912-22:29:52.886|56=TRAX|10=210|8=FIXT.1.1|9=56|35=0|34=764|49=HEMAAPA|52=20170912-22:30:22.886|56=TRAX|10=200|8=FIXT.1.1|9=56|35=0|34=765|49=HEMAAPA|52=20170912-22:30:53.885|56=TRAX|10=204|8=FIXT.1.1|9=56|35=0|34=766|49=HEMAAPA|52=20170912-22:31:23.890|56=TRAX|10=199|8=FIXT.1.1|9=56|35=0|34=767|49=HEMAAPA|52=20170912-22:31:54.891|56=TRAX|10=205|8=FIXT.1.1|9=56|35=0|34=768|49=HEMAAPA|52=20170912-22:32:25.884|56=TRAX|10=207|8=FIXT.1.1|9=56|35=0|34=769|49=HEMAAPA|52=20170912-22:32:55.893|56=TRAX|10=211|8=FIXT.1.1|9=56|35=0|34=770|49=HEMAAPA|52=20170912-22:33:25.893|56=TRAX|10=201|8=FIXT.1.1|9=56|35=0|34=771|49=HEMAAPA|52=20170912-22:33:56.878|56=TRAX|10=209|8=FIXT.1.1|9=56|35=0|34=772|49=HEMAAPA|52=20170912-22:34:26.886|56=TRAX|10=207|8=FIXT.1.1|9=56|35=0|34=773|49=HEMAAPA|52=20170912-22:34:57.893|56=TRAX|10=210|8=FIXT.1.1|9=56|35=0|34=774|49=HEMAAPA|52=20170912-22:35:28.891|56=TRAX|10=208|8=FIXT.1.1|9=56|35=0|34=775|49=HEMAAPA|52=20170912-22:35:58.897|56=TRAX|10=218|8=FIXT.1.1|9=56|35=0|34=776|49=HEMAAPA|52=20170912-22:36:29.896|56=TRAX|10=217|8=FIXT.1.1|9=56|35=0|34=777|49=HEMAAPA|52=20170912-22:37:00.899|56=TRAX|10=211|8=FIXT.1.1|9=56|35=0|34=778|49=HEMAAPA|52=20170912-22:37:31.898|56=TRAX|10=215|8=FIXT.1.1|9=56|35=0|34=779|49=HEMAAPA|52=20170912-22:38:02.604|56=TRAX|10=200|8=FIXT.1.1|9=56|35=0|34=780|49=HEMAAPA|52=20170912-22:38:32.607|56=TRAX|10=198|8=FIXT.1.1|9=56|35=0|34=781|49=HEMAAPA|52=20170912-22:39:02.642|56=TRAX|10=196|8=FIXT.1.1|9=56|35=0|34=782|49=HEMAAPA|52=20170912-22:39:32.902|56=TRAX|10=199|8=FIXT.1.1|9=56|35=0|34=783|49=HEMAAPA|52=20170912-22:40:03.901|56=TRAX|10=189|8=FIXT.1.1|9=56|35=0|34=784|49=HEMAAPA|52=20170912-22:40:33.902|56=TRAX|10=194|8=FIXT.1.1|9=56|35=0|34=785|49=HEMAAPA|52=20170912-22:41:03.902|56=TRAX|10=193|8=FIXT.1.1|9=56|35=0|34=786|49=HEMAAPA|52=20170912-22:41:34.898|56=TRAX|10=212|8=FIXT.1.1|9=56|35=0|34=787|49=HEMAAPA|52=20170912-22:42:04.898|56=TRAX|10=211|8=FIXT.1.1|9=56|35=0|34=788|49=HEMAAPA|52=20170912-22:42:34.907|56=TRAX|10=206|8=FIXT.1.1|9=56|35=0|34=789|49=HEMAAPA|52=20170912-22:43:05.902|56=TRAX|10=201|8=FIXT.1.1|9=56|35=0|34=790|49=HEMAAPA|52=20170912-22:43:35.905|56=TRAX|10=199|8=FIXT.1.1|9=56|35=0|34=791|49=HEMAAPA|52=20170912-22:44:05.909|56=TRAX|10=202|8=FIXT.1.1|9=56|35=0|34=792|49=HEMAAPA|52=20170912-22:44:36.902|56=TRAX|10=200|8=FIXT.1.1|9=56|35=0|34=793|49=HEMAAPA|52=20170912-22:45:06.907|56=TRAX|10=204|8=FIXT.1.1|9=56|35=0|34=794|49=HEMAAPA|52=20170912-22:45:36.910|56=TRAX|10=202|8=FIXT.1.1|9=56|35=0|34=795|49=HEMAAPA|52=20170912-22:46:06.910|56=TRAX|10=201|8=FIXT.1.1|9=56|35=0|34=796|49=HEMAAPA|52=20170912-22:46:37.912|56=TRAX|10=208|8=FIXT.1.1|9=56|35=0|34=797|49=HEMAAPA|52=20170912-22:47:08.899|56=TRAX|10=222|8=FIXT.1.1|9=56|35=0|34=798|49=HEMAAPA|52=20170912-22:47:38.908|56=TRAX|10=217|8=FIXT.1.1|9=56|35=0|34=799|49=HEMAAPA|52=20170912-22:48:09.908|56=TRAX|10=217|8=FIXT.1.1|9=56|35=0|34=800|49=HEMAAPA|52=20170912-22:48:39.916|56=TRAX|10=202|8=FIXT.1.1|9=56|35=0|34=801|49=HEMAAPA|52=20170912-22:49:10.913|56=TRAX|10=190|8=FIXT.1.1|9=56|35=0|34=802|49=HEMAAPA|52=20170912-22:49:41.914|56=TRAX|10=196|8=FIXT.1.1|9=56|35=0|34=803|49=HEMAAPA|52=20170912-22:50:11.914|56=TRAX|10=186|8=FIXT.1.1|9=56|35=0|34=804|49=HEMAAPA|52=20170912-22:50:42.916|56=TRAX|10=193|8=FIXT.1.1|9=56|35=0|34=805|49=HEMAAPA|52=20170912-22:51:13.918|56=TRAX|10=195|8=FIXT.1.1|9=56|35=0|34=806|49=HEMAAPA|52=20170912-22:51:43.919|56=TRAX|10=200|8=FIXT.1.1|9=56|35=0|34=807|49=HEMAAPA|52=20170912-22:52:13.920|56=TRAX|10=191|8=FIXT.1.1|9=56|35=0|34=808|49=HEMAAPA|52=20170912-22:52:44.918|56=TRAX|10=203|8=FIXT.1.1|9=56|35=0|34=809|49=HEMAAPA|52=20170912-22:53:15.923|56=TRAX|10=199|8=FIXT.1.1|9=56|35=0|34=810|49=HEMAAPA|52=20170912-22:53:45.924|56=TRAX|10=195|8=FIXT.1.1|9=56|35=0|34=811|49=HEMAAPA|52=20170912-22:54:16.923|56=TRAX|10=194|8=FIXT.1.1|9=56|35=0|34=812|49=HEMAAPA|52=20170912-22:54:47.925|56=TRAX|10=201|8=FIXT.1.1|9=56|35=0|34=813|49=HEMAAPA|52=20170912-22:55:18.925|56=TRAX|10=201|8=FIXT.1.1|9=56|35=0|34=814|49=HEMAAPA|52=20170912-22:55:49.925|56=TRAX|10=206|8=FIXT.1.1|9=56|35=0|34=815|49=HEMAAPA|52=20170912-22:56:20.918|56=TRAX|10=199|8=FIXT.1.1|9=56|35=0|34=816|49=HEMAAPA|52=20170912-22:56:50.924|56=TRAX|10=200|8=FIXT.1.1|9=56|35=0|34=817|49=HEMAAPA|52=20170912-22:57:21.922|56=TRAX|10=198|8=FIXT.1.1|9=56|35=0|34=818|49=HEMAAPA|52=20170912-22:57:51.929|56=TRAX|10=209|8=FIXT.1.1|9=56|35=0|34=819|49=HEMAAPA|52=20170912-22:58:21.930|56=TRAX|10=200|8=FIXT.1.1|9=56|35=0|34=820|49=HEMAAPA|52=20170912-22:58:52.930|56=TRAX|10=196|8=FIXT.1.1|9=56|35=0|34=821|49=HEMAAPA|52=20170912-22:59:22.931|56=TRAX|10=196|8=FIXT.1.1|9=56|35=0|34=822|49=HEMAAPA|52=20170912-22:59:53.927|56=TRAX|10=206|8=FIXT.1.1|9=65|35=1|34=823|49=HEMAAPA|52=20170912-23:00:17.916|56=TRAX|112=TEST|10=211|8=FIXT.1.1|9=56|35=5|34=824|49=HEMAAPA|52=20170912-23:00:17.957|56=TRAX|10=203|8=FIXT.1.1|9=100|35=A|34=1|49=HEMAAPA|52=20170913-07:26:34.724|56=TRAX|98=0|108=30|95=11|96=1.0.0rc11.2|141=Y|1137=9|10=090|8=FIXT.1.1|9=54|35=0|34=2|49=HEMAAPA|52=20170913-07:27:05.513|56=TRAX|10=085|8=FIXT.1.1|9=54|35=0|34=3|49=HEMAAPA|52=20170913-07:27:35.529|56=TRAX|10=096|8=FIXT.1.1|9=54|35=0|34=4|49=HEMAAPA|52=20170913-07:28:06.511|56=TRAX|10=087|8=FIXT.1.1|9=54|35=0|34=5|49=HEMAAPA|52=20170913-07:28:36.612|56=TRAX|10=093|8=FIXT.1.1|9=54|35=0|34=6|49=HEMAAPA|52=20170913-07:29:06.617|56=TRAX|10=097|8=FIXT.1.1|9=54|35=0|34=7|49=HEMAAPA|52=20170913-07:29:37.508|56=TRAX|10=101|8=FIXT.1.1|9=54|35=0|34=8|49=HEMAAPA|52=20170913-07:30:08.507|56=TRAX|10=091|8=FIXT.1.1|9=54|35=0|34=9|49=HEMAAPA|52=20170913-07:30:39.506|56=TRAX|10=095|8=FIXT.1.1|9=55|35=0|34=10|49=HEMAAPA|52=20170913-07:31:10.505|56=TRAX|10=125|8=FIXT.1.1|9=55|35=0|34=11|49=HEMAAPA|52=20170913-07:31:41.524|56=TRAX|10=131|8=FIXT.1.1|9=55|35=0|34=12|49=HEMAAPA|52=20170913-07:32:12.524|56=TRAX|10=131|8=FIXT.1.1|9=55|35=0|34=13|49=HEMAAPA|52=20170913-07:32:42.532|56=TRAX|10=134|8=FIXT.1.1|9=55|35=0|34=14|49=HEMAAPA|52=20170913-07:33:13.527|56=TRAX|10=138|8=FIXT.1.1|9=55|35=0|34=15|49=HEMAAPA|52=20170913-07:33:43.533|56=TRAX|10=139|8=FIXT.1.1|9=55|35=0|34=16|49=HEMAAPA|52=20170913-07:34:14.530|56=TRAX|10=136|8=FIXT.1.1|9=55|35=0|34=17|49=HEMAAPA|52=20170913-07:34:44.531|56=TRAX|10=141|8=FIXT.1.1|9=55|35=0|34=18|49=HEMAAPA|52=20170913-07:35:15.527|56=TRAX|10=146|8=FIXT.1.1|9=55|35=0|34=19|49=HEMAAPA|52=20170913-07:35:45.532|56=TRAX|10=146|8=FIXT.1.1|9=55|35=0|34=20|49=HEMAAPA|52=20170913-07:36:16.533|56=TRAX|10=138|8=FIXT.1.1|9=55|35=0|34=21|49=HEMAAPA|52=20170913-07:36:46.534|56=TRAX|10=143|8=FIXT.1.1|9=55|35=0|34=22|49=HEMAAPA|52=20170913-07:37:16.534|56=TRAX|10=142|8=FIXT.1.1|9=55|35=0|34=23|49=HEMAAPA|52=20170913-07:37:46.538|56=TRAX|10=150|8=FIXT.1.1|9=55|35=0|34=24|49=HEMAAPA|52=20170913-07:38:17.539|56=TRAX|10=151|8=FIXT.1.1|9=55|35=0|34=25|49=HEMAAPA|52=20170913-07:38:48.533|56=TRAX|10=150|8=FIXT.1.1|9=55|35=0|34=26|49=HEMAAPA|52=20170913-07:39:18.536|56=TRAX|10=152|8=FIXT.1.1|9=55|35=0|34=27|49=HEMAAPA|52=20170913-07:39:48.539|56=TRAX|10=159|8=FIXT.1.1|9=55|35=0|34=28|49=HEMAAPA|52=20170913-07:40:18.539|56=TRAX|10=149|8=FIXT.1.1|9=55|35=0|34=29|49=HEMAAPA|52=20170913-07:40:48.539|56=TRAX|10=153|8=FIXT.1.1|9=55|35=0|34=30|49=HEMAAPA|52=20170913-07:41:18.541|56=TRAX|10=136|8=FIXT.1.1|9=55|35=0|34=31|49=HEMAAPA|52=20170913-07:41:49.541|56=TRAX|10=141|8=FIXT.1.1|9=55|35=0|34=32|49=HEMAAPA|52=20170913-07:42:19.543|56=TRAX|10=142|8=FIXT.1.1|9=55|35=0|34=33|49=HEMAAPA|52=20170913-07:42:49.543|56=TRAX|10=146|8=FIXT.1.1|9=55|35=0|34=34|49=HEMAAPA|52=20170913-07:43:20.543|56=TRAX|10=137|8=FIXT.1.1|9=55|35=0|34=35|49=HEMAAPA|52=20170913-07:43:51.544|56=TRAX|10=143|8=FIXT.1.1|9=55|35=0|34=36|49=HEMAAPA|52=20170913-07:44:22.547|56=TRAX|10=146|8=FIXT.1.1|9=55|35=0|34=37|49=HEMAAPA|52=20170913-07:44:53.548|56=TRAX|10=152|8=FIXT.1.1|9=55|35=0|34=38|49=HEMAAPA|52=20170913-07:45:24.545|56=TRAX|10=149|8=FIXT.1.1|9=55|35=0|34=39|49=HEMAAPA|52=20170913-07:45:54.552|56=TRAX|10=151|8=FIXT.1.1|9=55|35=0|34=40|49=HEMAAPA|52=20170913-07:46:24.553|56=TRAX|10=142|8=FIXT.1.1|9=55|35=0|34=41|49=HEMAAPA|52=20170913-07:46:55.553|56=TRAX|10=147|8=FIXT.1.1|9=55|35=0|34=42|49=HEMAAPA|52=20170913-07:47:25.553|56=TRAX|10=146|8=FIXT.1.1|9=55|35=0|34=43|49=HEMAAPA|52=20170913-07:47:56.553|56=TRAX|10=151|8=FIXT.1.1|9=55|35=0|34=44|49=HEMAAPA|52=20170913-07:48:27.555|56=TRAX|10=153|8=FIXT.1.1|9=55|35=0|34=45|49=HEMAAPA|52=20170913-07:48:57.557|56=TRAX|10=159|8=FIXT.1.1|9=55|35=0|34=46|49=HEMAAPA|52=20170913-07:49:28.550|56=TRAX|10=152|8=FIXT.1.1|9=55|35=0|34=47|49=HEMAAPA|52=20170913-07:49:59.550|56=TRAX|10=157|8=FIXT.1.1|9=55|35=0|34=48|49=HEMAAPA|52=20170913-07:50:29.554|56=TRAX|10=151|8=FIXT.1.1|9=55|35=0|34=49|49=HEMAAPA|52=20170913-07:50:59.557|56=TRAX|10=158|8=FIXT.1.1|9=55|35=0|34=50|49=HEMAAPA|52=20170913-07:51:30.552|56=TRAX|10=135|8=FIXT.1.1|9=55|35=0|34=51|49=HEMAAPA|52=20170913-07:52:00.557|56=TRAX|10=139|8=FIXT.1.1|9=55|35=0|34=52|49=HEMAAPA|52=20170913-07:52:30.558|56=TRAX|10=144|8=FIXT.1.1|9=55|35=0|34=53|49=HEMAAPA|52=20170913-07:53:01.555|56=TRAX|10=141|8=FIXT.1.1|9=55|35=0|34=54|49=HEMAAPA|52=20170913-07:53:31.558|56=TRAX|10=148|8=FIXT.1.1|9=55|35=0|34=55|49=HEMAAPA|52=20170913-07:54:02.556|56=TRAX|10=146|8=FIXT.1.1|9=55|35=0|34=56|49=HEMAAPA|52=20170913-07:54:32.559|56=TRAX|10=153|8=FIXT.1.1|9=55|35=0|34=57|49=HEMAAPA|52=20170913-07:55:02.565|56=TRAX|10=149|8=FIXT.1.1|9=55|35=0|34=58|49=HEMAAPA|52=20170913-07:55:33.561|56=TRAX|10=150|8=FIXT.1.1|9=55|35=0|34=59|49=HEMAAPA|52=20170913-07:56:04.560|56=TRAX|10=149|8=FIXT.1.1|9=55|35=0|34=60|49=HEMAAPA|52=20170913-07:56:34.564|56=TRAX|10=148|8=FIXT.1.1|9=55|35=0|34=61|49=HEMAAPA|52=20170913-07:57:04.569|56=TRAX|10=152|8=FIXT.1.1|9=55|35=0|34=62|49=HEMAAPA|52=20170913-07:57:35.563|56=TRAX|10=151|8=FIXT.1.1|9=55|35=0|34=63|49=HEMAAPA|52=20170913-07:58:06.562|56=TRAX|10=150|8=FIXT.1.1|9=55|35=0|34=64|49=HEMAAPA|52=20170913-07:58:36.562|56=TRAX|10=154|8=FIXT.1.1|9=55|35=0|34=65|49=HEMAAPA|52=20170913-07:59:06.571|56=TRAX|10=153|8=FIXT.1.1|9=55|35=0|34=66|49=HEMAAPA|52=20170913-07:59:36.571|56=TRAX|10=157|8=FIXT.1.1|9=55|35=0|34=67|49=HEMAAPA|52=20170913-08:00:06.639|56=TRAX|10=147|8=FIXT.1.1|9=55|35=0|34=68|49=HEMAAPA|52=20170913-08:00:36.660|56=TRAX|10=145|8=FIXT.1.1|9=55|35=0|34=69|49=HEMAAPA|52=20170913-08:01:07.574|56=TRAX|10=149|8=FIXT.1.1|9=55|35=0|34=70|49=HEMAAPA|52=20170913-08:01:38.573|56=TRAX|10=144|8=FIXT.1.1|9=55|35=0|34=71|49=HEMAAPA|52=20170913-08:02:09.571|56=TRAX|10=142|8=FIXT.1.1|9=55|35=0|34=72|49=HEMAAPA|52=20170913-08:02:39.573|56=TRAX|10=148|8=FIXT.1.1|9=55|35=0|34=73|49=HEMAAPA|52=20170913-08:03:09.573|56=TRAX|10=147|8=FIXT.1.1|9=55|35=0|34=74|49=HEMAAPA|52=20170913-08:03:40.570|56=TRAX|10=140|8=FIXT.1.1|9=55|35=0|34=75|49=HEMAAPA|52=20170913-08:04:10.573|56=TRAX|10=142|8=FIXT.1.1|9=55|35=0|34=76|49=HEMAAPA|52=20170913-08:04:40.576|56=TRAX|10=149|8=FIXT.1.1|9=55|35=0|34=77|49=HEMAAPA|52=20170913-08:05:10.580|56=TRAX|10=143|8=FIXT.1.1|9=55|35=0|34=78|49=HEMAAPA|52=20170913-08:05:41.572|56=TRAX|10=149|8=FIXT.1.1|9=55|35=0|34=79|49=HEMAAPA|52=20170913-08:06:11.582|56=TRAX|10=149|8=FIXT.1.1|9=55|35=0|34=80|49=HEMAAPA|52=20170913-08:06:42.581|56=TRAX|10=144|8=FIXT.1.1|9=55|35=0|34=81|49=HEMAAPA|52=20170913-08:07:12.584|56=TRAX|10=146|8=FIXT.1.1|9=55|35=0|34=82|49=HEMAAPA|52=20170913-08:07:42.584|56=TRAX|10=150|8=FIXT.1.1|9=55|35=0|34=83|49=HEMAAPA|52=20170913-08:08:13.577|56=TRAX|10=152|8=FIXT.1.1|9=55|35=0|34=84|49=HEMAAPA|52=20170913-08:08:44.581|56=TRAX|10=152|8=FIXT.1.1|9=55|35=0|34=85|49=HEMAAPA|52=20170913-08:09:14.583|56=TRAX|10=153|8=FIXT.1.1|9=55|35=0|34=86|49=HEMAAPA|52=20170913-08:09:44.587|56=TRAX|10=161|8=FIXT.1.1|9=55|35=0|34=87|49=HEMAAPA|52=20170913-08:10:15.579|56=TRAX|10=153|8=FIXT.1.1|9=55|35=0|34=88|49=HEMAAPA|52=20170913-08:10:45.588|56=TRAX|10=157|8=FIXT.1.1|9=55|35=0|34=89|49=HEMAAPA|52=20170913-08:11:16.585|56=TRAX|10=154|8=FIXT.1.1|9=55|35=0|34=90|49=HEMAAPA|52=20170913-08:11:46.588|56=TRAX|10=152|8=FIXT.1.1|9=55|35=0|34=91|49=HEMAAPA|52=20170913-08:12:16.591|56=TRAX|10=145|8=FIXT.1.1|9=55|35=0|34=92|49=HEMAAPA|52=20170913-08:12:47.589|56=TRAX|10=157|8=FIXT.1.1|9=55|35=0|34=93|49=HEMAAPA|52=20170913-08:13:17.591|56=TRAX|10=149|8=FIXT.1.1|9=55|35=0|34=94|49=HEMAAPA|52=20170913-08:13:48.584|56=TRAX|10=156|8=FIXT.1.1|9=55|35=0|34=95|49=HEMAAPA|52=20170913-08:14:18.590|56=TRAX|10=152|8=FIXT.1.1|9=55|35=0|34=96|49=HEMAAPA|52=20170913-08:14:49.585|56=TRAX|10=161|8=FIXT.1.1|9=55|35=0|34=97|49=HEMAAPA|52=20170913-08:15:19.594|56=TRAX|10=160|8=FIXT.1.1|9=55|35=0|34=98|49=HEMAAPA|52=20170913-08:15:50.593|56=TRAX|10=155|8=FIXT.1.1|9=55|35=0|34=99|49=HEMAAPA|52=20170913-08:16:21.588|56=TRAX|10=159|8=FIXT.1.1|9=56|35=0|34=100|49=HEMAAPA|52=20170913-08:16:51.592|56=TRAX|10=189|8=FIXT.1.1|9=56|35=0|34=101|49=HEMAAPA|52=20170913-08:17:21.597|56=TRAX|10=193|8=FIXT.1.1|9=56|35=0|34=102|49=HEMAAPA|52=20170913-08:17:52.598|56=TRAX|10=199|8=FIXT.1.1|9=56|35=0|34=103|49=HEMAAPA|52=20170913-08:18:22.598|56=TRAX|10=198|8=FIXT.1.1|9=56|35=0|34=104|49=HEMAAPA|52=20170913-08:18:53.595|56=TRAX|10=200|8=FIXT.1.1|9=56|35=0|34=105|49=HEMAAPA|52=20170913-08:19:23.597|56=TRAX|10=201|8=FIXT.1.1|9=56|35=0|34=106|49=HEMAAPA|52=20170913-08:19:53.599|56=TRAX|10=207|8=FIXT.1.1|9=56|35=0|34=107|49=HEMAAPA|52=20170913-08:20:24.593|56=TRAX|10=192|8=FIXT.1.1|9=56|35=0|34=108|49=HEMAAPA|52=20170913-08:20:54.602|56=TRAX|10=187|8=FIXT.1.1|9=56|35=0|34=109|49=HEMAAPA|52=20170913-08:21:25.603|56=TRAX|10=188|8=FIXT.1.1|9=56|35=0|34=110|49=HEMAAPA|52=20170913-08:21:56.594|56=TRAX|10=193|8=FIXT.1.1|9=56|35=0|34=111|49=HEMAAPA|52=20170913-08:22:26.601|56=TRAX|10=181|8=FIXT.1.1|9=56|35=0|34=112|49=HEMAAPA|52=20170913-08:22:57.604|56=TRAX|10=189|8=FIXT.1.1|9=56|35=0|34=113|49=HEMAAPA|52=20170913-08:23:28.605|56=TRAX|10=190|8=FIXT.1.1|9=56|35=0|34=114|49=HEMAAPA|52=20170913-08:23:59.600|56=TRAX|10=190|8=FIXT.1.1|9=56|35=0|34=115|49=HEMAAPA|52=20170913-08:24:30.604|56=TRAX|10=185|8=FIXT.1.1|9=56|35=0|34=116|49=HEMAAPA|52=20170913-08:25:01.603|56=TRAX|10=184|8=FIXT.1.1|9=56|35=0|34=117|49=HEMAAPA|52=20170913-08:25:31.603|56=TRAX|10=188|8=FIXT.1.1|9=56|35=0|34=118|49=HEMAAPA|52=20170913-08:26:01.608|56=TRAX|10=192|8=FIXT.1.1|9=56|35=0|34=119|49=HEMAAPA|52=20170913-08:26:32.603|56=TRAX|10=192|8=FIXT.1.1|9=56|35=0|34=120|49=HEMAAPA|52=20170913-08:27:03.602|56=TRAX|10=182|8=FIXT.1.1|9=56|35=0|34=121|49=HEMAAPA|52=20170913-08:27:33.610|56=TRAX|10=185|8=FIXT.1.1|9=56|35=0|34=122|49=HEMAAPA|52=20170913-08:28:03.610|56=TRAX|10=184|8=FIXT.1.1|9=56|35=0|34=123|49=HEMAAPA|52=20170913-08:28:34.607|56=TRAX|10=195|8=FIXT.1.1|9=56|35=0|34=124|49=HEMAAPA|52=20170913-08:29:05.604|56=TRAX|10=192|8=FIXT.1.1|9=56|35=0|34=125|49=HEMAAPA|52=20170913-08:29:35.604|56=TRAX|10=196|8=FIXT.1.1|9=56|35=0|34=126|49=HEMAAPA|52=20170913-08:30:05.613|56=TRAX|10=186|8=FIXT.1.1|9=56|35=0|34=127|49=HEMAAPA|52=20170913-08:30:35.613|56=TRAX|10=190|8=FIXT.1.1|9=56|35=0|34=128|49=HEMAAPA|52=20170913-08:31:05.615|56=TRAX|10=191|8=FIXT.1.1|9=56|35=0|34=129|49=HEMAAPA|52=20170913-08:31:35.616|56=TRAX|10=196|8=FIXT.1.1|9=56|35=0|34=130|49=HEMAAPA|52=20170913-08:32:06.613|56=TRAX|10=184|8=FIXT.1.1|9=56|35=0|34=131|49=HEMAAPA|52=20170913-08:32:36.617|56=TRAX|10=192|8=FIXT.1.1|9=56|35=0|34=132|49=HEMAAPA|52=20170913-08:33:07.615|56=TRAX|10=190|8=FIXT.1.1|9=56|35=0|34=133|49=HEMAAPA|52=20170913-08:33:37.644|56=TRAX|10=196|8=FIXT.1.1|9=56|35=0|34=134|49=HEMAAPA|52=20170913-08:34:07.649|56=TRAX|10=200|8=FIXT.1.1|9=56|35=0|34=135|49=HEMAAPA|52=20170913-08:34:38.619|56=TRAX|10=202|8=FIXT.1.1|9=56|35=0|34=136|49=HEMAAPA|52=20170913-08:35:09.616|56=TRAX|10=199|8=FIXT.1.1|9=56|35=0|34=137|49=HEMAAPA|52=20170913-08:35:39.618|56=TRAX|10=205|8=FIXT.1.1|9=56|35=0|34=138|49=HEMAAPA|52=20170913-08:36:09.618|56=TRAX|10=204|8=FIXT.1.1|9=56|35=0|34=139|49=HEMAAPA|52=20170913-08:36:39.620|56=TRAX|10=201|8=FIXT.1.1|9=56|35=0|34=140|49=HEMAAPA|52=20170913-08:37:09.625|56=TRAX|10=196|8=FIXT.1.1|9=56|35=0|34=141|49=HEMAAPA|52=20170913-08:37:40.613|56=TRAX|10=189|8=FIXT.1.1|9=56|35=0|34=142|49=HEMAAPA|52=20170913-08:38:10.619|56=TRAX|10=194|8=FIXT.1.1|9=56|35=0|34=143|49=HEMAAPA|52=20170913-08:38:41.618|56=TRAX|10=198|8=FIXT.1.1|9=56|35=0|34=144|49=HEMAAPA|52=20170913-08:39:11.625|56=TRAX|10=195|8=FIXT.1.1|9=56|35=0|34=145|49=HEMAAPA|52=20170913-08:39:42.623|56=TRAX|10=198|8=FIXT.1.1|9=56|35=0|34=146|49=HEMAAPA|52=20170913-08:40:12.623|56=TRAX|10=188|8=FIXT.1.1|9=56|35=0|34=147|49=HEMAAPA|52=20170913-08:40:42.624|56=TRAX|10=193|8=FIXT.1.1|9=56|35=0|34=148|49=HEMAAPA|52=20170913-08:41:12.625|56=TRAX|10=193|8=FIXT.1.1|9=56|35=0|34=149|49=HEMAAPA|52=20170913-08:41:42.625|56=TRAX|10=197|8=FIXT.1.1|9=56|35=0|34=150|49=HEMAAPA|52=20170913-08:42:12.626|56=TRAX|10=188|8=FIXT.1.1|9=56|35=0|34=151|49=HEMAAPA|52=20170913-08:42:42.631|56=TRAX|10=188|8=FIXT.1.1|9=56|35=0|34=152|49=HEMAAPA|52=20170913-08:43:13.627|56=TRAX|10=193|8=FIXT.1.1|9=56|35=0|34=153|49=HEMAAPA|52=20170913-08:43:43.634|56=TRAX|10=195|8=FIXT.1.1|9=56|35=0|34=154|49=HEMAAPA|52=20170913-08:44:14.628|56=TRAX|10=198|8=FIXT.1.1|9=56|35=0|34=155|49=HEMAAPA|52=20170913-08:44:44.631|56=TRAX|10=196|8=FIXT.1.1|9=56|35=0|34=156|49=HEMAAPA|52=20170913-08:45:14.633|56=TRAX|10=197|8=FIXT.1.1|9=56|35=0|34=157|49=HEMAAPA|52=20170913-08:45:45.629|56=TRAX|10=207|8=FIXT.1.1|9=56|35=0|34=158|49=HEMAAPA|52=20170913-08:46:15.638|56=TRAX|10=206|8=FIXT.1.1|9=56|35=0|34=159|49=HEMAAPA|52=20170913-08:46:46.631|56=TRAX|10=204|8=FIXT.1.1|9=56|35=0|34=160|49=HEMAAPA|52=20170913-08:47:16.637|56=TRAX|10=200|8=FIXT.1.1|9=56|35=0|34=161|49=HEMAAPA|52=20170913-08:47:47.636|56=TRAX|10=204|8=FIXT.1.1|9=56|35=0|34=162|49=HEMAAPA|52=20170913-08:48:17.637|56=TRAX|10=204|8=FIXT.1.1|9=56|35=0|34=163|49=HEMAAPA|52=20170913-08:48:47.637|56=TRAX|10=208|8=FIXT.1.1|9=56|35=0|34=164|49=HEMAAPA|52=20170913-08:49:17.639|56=TRAX|10=209|8=FIXT.1.1|9=56|35=0|34=165|49=HEMAAPA|52=20170913-08:49:47.641|56=TRAX|10=206|8=FIXT.1.1|9=56|35=0|34=166|49=HEMAAPA|52=20170913-08:50:18.635|56=TRAX|10=200|8=FIXT.1.1|9=56|35=0|34=167|49=HEMAAPA|52=20170913-08:50:48.642|56=TRAX|10=202|8=FIXT.1.1|9=56|35=0|34=168|49=HEMAAPA|52=20170913-08:51:18.643|56=TRAX|10=202|8=FIXT.1.1|9=56|35=0|34=169|49=HEMAAPA|52=20170913-08:51:48.643|56=TRAX|10=206|8=FIXT.1.1|9=56|35=0|34=170|49=HEMAAPA|52=20170913-08:52:18.644|56=TRAX|10=197|8=FIXT.1.1|9=56|35=0|34=171|49=HEMAAPA|52=20170913-08:52:48.646|56=TRAX|10=203|8=FIXT.1.1|9=56|35=0|34=172|49=HEMAAPA|52=20170913-08:53:18.646|56=TRAX|10=202|8=FIXT.1.1|9=56|35=0|34=173|49=HEMAAPA|52=20170913-08:53:49.645|56=TRAX|10=206|8=FIXT.1.1|9=56|35=0|34=174|49=HEMAAPA|52=20170913-08:54:20.644|56=TRAX|10=196|8=FIXT.1.1|9=56|35=0|34=175|49=HEMAAPA|52=20170913-08:54:50.644|56=TRAX|10=200|8=FIXT.1.1|9=56|35=0|34=176|49=HEMAAPA|52=20170913-08:55:20.646|56=TRAX|10=201|8=FIXT.1.1|9=56|35=0|34=177|49=HEMAAPA|52=20170913-08:55:50.647|56=TRAX|10=206|8=FIXT.1.1|9=56|35=0|34=178|49=HEMAAPA|52=20170913-08:56:21.650|56=TRAX|10=200|8=FIXT.1.1|9=56|35=0|34=179|49=HEMAAPA|52=20170913-08:56:52.646|56=TRAX|10=210|8=FIXT.1.1|9=56|35=0|34=180|49=HEMAAPA|52=20170913-08:57:22.647|56=TRAX|10=201|8=FIXT.1.1|9=56|35=0|34=181|49=HEMAAPA|52=20170913-08:57:53.646|56=TRAX|10=205|8=FIXT.1.1|9=56|35=0|34=182|49=HEMAAPA|52=20170913-08:58:23.649|56=TRAX|10=207|8=FIXT.1.1|9=56|35=0|34=183|49=HEMAAPA|52=20170913-08:58:53.655|56=TRAX|10=208|8=FIXT.1.1|9=56|35=0|34=184|49=HEMAAPA|52=20170913-08:59:24.651|56=TRAX|10=204|8=FIXT.1.1|9=56|35=0|34=185|49=HEMAAPA|52=20170913-08:59:54.655|56=TRAX|10=212|8=FIXT.1.1|9=56|35=0|34=186|49=HEMAAPA|52=20170913-09:00:25.652|56=TRAX|10=195|8=FIXT.1.1|9=56|35=0|34=187|49=HEMAAPA|52=20170913-09:00:55.653|56=TRAX|10=200|8=FIXT.1.1|9=56|35=0|34=188|49=HEMAAPA|52=20170913-09:01:26.652|56=TRAX|10=199|8=FIXT.1.1|9=56|35=0|34=189|49=HEMAAPA|52=20170913-09:01:56.656|56=TRAX|10=207|8=FIXT.1.1|9=56|35=0|34=190|49=HEMAAPA|52=20170913-09:02:26.657|56=TRAX|10=198|8=FIXT.1.1|9=56|35=0|34=191|49=HEMAAPA|52=20170913-09:02:56.662|56=TRAX|10=198|8=FIXT.1.1|9=56|35=0|34=192|49=HEMAAPA|52=20170913-09:03:27.658|56=TRAX|10=203|8=FIXT.1.1|9=56|35=0|34=193|49=HEMAAPA|52=20170913-09:03:58.658|56=TRAX|10=208|8=FIXT.1.1|9=56|35=0|34=194|49=HEMAAPA|52=20170913-09:04:28.660|56=TRAX|10=200|8=FIXT.1.1|9=56|35=0|34=195|49=HEMAAPA|52=20170913-09:04:58.660|56=TRAX|10=204|8=FIXT.1.1|9=56|35=0|34=196|49=HEMAAPA|52=20170913-09:05:28.664|56=TRAX|10=207|8=FIXT.1.1|9=56|35=0|34=197|49=HEMAAPA|52=20170913-09:05:59.666|56=TRAX|10=214|8=FIXT.1.1|9=56|35=0|34=198|49=HEMAAPA|52=20170913-09:06:29.666|56=TRAX|10=213|8=FIXT.1.1|9=56|35=0|34=199|49=HEMAAPA|52=20170913-09:07:00.659|56=TRAX|10=206|8=FIXT.1.1|9=56|35=0|34=200|49=HEMAAPA|52=20170913-09:07:30.667|56=TRAX|10=191|8=FIXT.1.1|9=56|35=0|34=201|49=HEMAAPA|52=20170913-09:08:01.641|56=TRAX|10=183|8=FIXT.1.1|9=56|35=0|34=202|49=HEMAAPA|52=20170913-09:08:31.641|56=TRAX|10=187|8=FIXT.1.1|9=56|35=0|34=203|49=HEMAAPA|52=20170913-09:09:01.660|56=TRAX|10=187|8=FIXT.1.1|9=56|35=0|34=204|49=HEMAAPA|52=20170913-09:09:32.641|56=TRAX|10=191|8=FIXT.1.1|9=56|35=0|34=205|49=HEMAAPA|52=20170913-09:10:02.664|56=TRAX|10=186|8=FIXT.1.1|9=56|35=0|34=206|49=HEMAAPA|52=20170913-09:10:32.668|56=TRAX|10=194|8=FIXT.1.1|9=56|35=0|34=207|49=HEMAAPA|52=20170913-09:11:03.642|56=TRAX|10=186|8=FIXT.1.1|9=56|35=0|34=208|49=HEMAAPA|52=20170913-09:11:33.666|56=TRAX|10=196|8=FIXT.1.1|9=56|35=0|34=209|49=HEMAAPA|52=20170913-09:12:03.670|56=TRAX|10=190|8=FIXT.1.1|9=56|35=0|34=210|49=HEMAAPA|52=20170913-09:12:34.666|56=TRAX|10=191|8=FIXT.1.1|9=56|35=0|34=211|49=HEMAAPA|52=20170913-09:13:04.669|56=TRAX|10=193|8=FIXT.1.1|9=56|35=0|34=212|49=HEMAAPA|52=20170913-09:13:34.671|56=TRAX|10=190|8=FIXT.1.1|9=56|35=0|34=213|49=HEMAAPA|52=20170913-09:14:05.668|56=TRAX|10=196|8=FIXT.1.1|9=56|35=0|34=214|49=HEMAAPA|52=20170913-09:14:35.670|56=TRAX|10=193|8=FIXT.1.1|9=56|35=0|34=215|49=HEMAAPA|52=20170913-09:15:05.671|56=TRAX|10=193|8=FIXT.1.1|9=56|35=0|34=216|49=HEMAAPA|52=20170913-09:15:36.666|56=TRAX|10=202|8=FIXT.1.1|9=56|35=0|34=217|49=HEMAAPA|52=20170913-09:16:06.672|56=TRAX|10=198|8=FIXT.1.1|9=56|35=0|34=218|49=HEMAAPA|52=20170913-09:16:37.649|56=TRAX|10=207|8=FIXT.1.1|9=56|35=0|34=219|49=HEMAAPA|52=20170913-09:17:07.661|56=TRAX|10=200|8=FIXT.1.1|9=56|35=0|34=220|49=HEMAAPA|52=20170913-09:17:37.662|56=TRAX|10=196|8=FIXT.1.1|9=56|35=0|34=221|49=HEMAAPA|52=20170913-09:18:07.677|56=TRAX|10=201|8=FIXT.1.1|9=56|35=0|34=222|49=HEMAAPA|52=20170913-09:18:37.679|56=TRAX|10=207|8=FIXT.1.1|9=56|35=0|34=223|49=HEMAAPA|52=20170913-09:19:08.678|56=TRAX|10=206|8=FIXT.1.1|9=56|35=0|34=224|49=HEMAAPA|52=20170913-09:19:39.682|56=TRAX|10=206|8=FIXT.1.1|9=56|35=0|34=225|49=HEMAAPA|52=20170913-09:20:10.673|56=TRAX|10=188|8=FIXT.1.1|9=56|35=0|34=226|49=HEMAAPA|52=20170913-09:20:40.680|56=TRAX|10=190|8=FIXT.1.1|9=56|35=0|34=227|49=HEMAAPA|52=20170913-09:21:10.682|56=TRAX|10=191|8=FIXT.1.1|9=56|35=0|34=228|49=HEMAAPA|52=20170913-09:21:40.684|56=TRAX|10=197|8=FIXT.1.1|9=56|35=0|34=229|49=HEMAAPA|52=20170913-09:22:11.683|56=TRAX|10=196|8=FIXT.1.1|9=56|35=0|34=230|49=HEMAAPA|52=20170913-09:22:42.685|56=TRAX|10=194|8=FIXT.1.1|9=56|35=0|34=231|49=HEMAAPA|52=20170913-09:23:13.681|56=TRAX|10=190|8=FIXT.1.1|9=56|35=0|34=232|49=HEMAAPA|52=20170913-09:23:43.683|56=TRAX|10=196|8=FIXT.1.1|9=56|35=0|34=233|49=HEMAAPA|52=20170913-09:24:13.684|56=TRAX|10=196|8=FIXT.1.1|9=56|35=0|34=234|49=HEMAAPA|52=20170913-09:24:43.688|56=TRAX|10=204|8=FIXT.1.1|9=56|35=0|34=235|49=HEMAAPA|52=20170913-09:25:14.684|56=TRAX|10=200|8=FIXT.1.1|9=56|35=0|34=236|49=HEMAAPA|52=20170913-09:25:44.687|56=TRAX|10=207|8=FIXT.1.1|9=56|35=0|34=237|49=HEMAAPA|52=20170913-09:26:14.690|56=TRAX|10=200|8=FIXT.1.1|9=56|35=0|34=238|49=HEMAAPA|52=20170913-09:26:45.690|56=TRAX|10=205|8=FIXT.1.1|9=56|35=0|34=239|49=HEMAAPA|52=20170913-09:27:16.688|56=TRAX|10=212|8=FIXT.1.1|9=56|35=0|34=240|49=HEMAAPA|52=20170913-09:27:47.685|56=TRAX|10=205|8=FIXT.1.1|9=56|35=0|34=241|49=HEMAAPA|52=20170913-09:28:17.687|56=TRAX|10=206|8=FIXT.1.1|9=56|35=0|34=242|49=HEMAAPA|52=20170913-09:28:47.688|56=TRAX|10=211|8=FIXT.1.1|9=56|35=0|34=243|49=HEMAAPA|52=20170913-09:29:17.688|56=TRAX|10=210|8=FIXT.1.1|9=56|35=0|34=244|49=HEMAAPA|52=20170913-09:29:47.688|56=TRAX|10=214|8=FIXT.1.1|9=56|35=0|34=245|49=HEMAAPA|52=20170913-09:30:17.689|56=TRAX|10=205|8=FIXT.1.1|9=56|35=0|34=246|49=HEMAAPA|52=20170913-09:30:47.690|56=TRAX|10=201|8=FIXT.1.1|9=56|35=0|34=247|49=HEMAAPA|52=20170913-09:31:17.694|56=TRAX|10=204|8=FIXT.1.1|9=56|35=0|34=248|49=HEMAAPA|52=20170913-09:31:48.690|56=TRAX|10=205|8=FIXT.1.1|9=56|35=0|34=249|49=HEMAAPA|52=20170913-09:32:18.699|56=TRAX|10=213|8=FIXT.1.1|9=56|35=0|34=250|49=HEMAAPA|52=20170913-09:32:48.699|56=TRAX|10=208|8=FIXT.1.1|9=56|35=0|34=251|49=HEMAAPA|52=20170913-09:33:19.699|56=TRAX|10=208|8=FIXT.1.1|9=56|35=0|34=252|49=HEMAAPA|52=20170913-09:33:50.698|56=TRAX|10=203|8=FIXT.1.1|9=56|35=0|34=253|49=HEMAAPA|52=20170913-09:34:20.698|56=TRAX|10=202|8=FIXT.1.1|9=56|35=0|34=254|49=HEMAAPA|52=20170913-09:34:50.698|56=TRAX|10=206|8=FIXT.1.1|9=56|35=0|34=255|49=HEMAAPA|52=20170913-09:35:20.703|56=TRAX|10=192|8=FIXT.1.1|9=56|35=0|34=256|49=HEMAAPA|52=20170913-09:35:51.697|56=TRAX|10=209|8=FIXT.1.1|9=56|35=0|34=257|49=HEMAAPA|52=20170913-09:36:21.705|56=TRAX|10=198|8=FIXT.1.1|9=56|35=0|34=258|49=HEMAAPA|52=20170913-09:36:52.697|56=TRAX|10=213|8=FIXT.1.1|9=56|35=0|34=259|49=HEMAAPA|52=20170913-09:37:22.700|56=TRAX|10=197|8=FIXT.1.1|9=56|35=0|34=260|49=HEMAAPA|52=20170913-09:37:53.699|56=TRAX|10=210|8=FIXT.1.1|9=56|35=0|34=261|49=HEMAAPA|52=20170913-09:38:23.706|56=TRAX|10=198|8=FIXT.1.1|9=56|35=0|34=262|49=HEMAAPA|52=20170913-09:38:54.702|56=TRAX|10=199|8=FIXT.1.1|9=56|35=0|34=263|49=HEMAAPA|52=20170913-09:39:24.704|56=TRAX|10=200|8=FIXT.1.1|9=56|35=0|34=264|49=HEMAAPA|52=20170913-09:39:55.704|56=TRAX|10=205|8=FIXT.1.1|9=56|35=0|34=265|49=HEMAAPA|52=20170913-09:40:25.706|56=TRAX|10=197|8=FIXT.1.1|9=56|35=0|34=266|49=HEMAAPA|52=20170913-09:40:56.703|56=TRAX|10=199|8=FIXT.1.1|9=56|35=0|34=267|49=HEMAAPA|52=20170913-09:41:26.706|56=TRAX|10=201|8=FIXT.1.1|9=56|35=0|34=268|49=HEMAAPA|52=20170913-09:41:56.714|56=TRAX|10=204|8=FIXT.1.1|9=56|35=0|34=269|49=HEMAAPA|52=20170913-09:42:27.713|56=TRAX|10=203|8=FIXT.1.1|9=56|35=0|34=270|49=HEMAAPA|52=20170913-09:42:57.714|56=TRAX|10=199|8=FIXT.1.1|9=56|35=0|34=271|49=HEMAAPA|52=20170913-09:43:28.711|56=TRAX|10=196|8=FIXT.1.1|9=56|35=0|34=272|49=HEMAAPA|52=20170913-09:43:59.709|56=TRAX|10=208|8=FIXT.1.1|9=56|35=0|34=273|49=HEMAAPA|52=20170913-09:44:29.718|56=TRAX|10=207|8=FIXT.1.1|9=56|35=0|34=274|49=HEMAAPA|52=20170913-09:44:59.718|56=TRAX|10=211|8=FIXT.1.1|9=56|35=0|34=275|49=HEMAAPA|52=20170913-09:45:29.719|56=TRAX|10=211|8=FIXT.1.1|9=56|35=0|34=276|49=HEMAAPA|52=20170913-09:46:00.715|56=TRAX|10=198|8=FIXT.1.1|9=56|35=0|34=277|49=HEMAAPA|52=20170913-09:46:30.718|56=TRAX|10=205|8=FIXT.1.1|9=56|35=0|34=278|49=HEMAAPA|52=20170913-09:47:00.720|56=TRAX|10=197|8=FIXT.1.1|9=56|35=0|34=279|49=HEMAAPA|52=20170913-09:47:31.719|56=TRAX|10=210|8=FIXT.1.1|9=56|35=0|34=280|49=HEMAAPA|52=20170913-09:48:01.720|56=TRAX|10=192|8=FIXT.1.1|9=56|35=0|34=281|49=HEMAAPA|52=20170913-09:48:31.724|56=TRAX|10=200|8=FIXT.1.1|9=56|35=0|34=282|49=HEMAAPA|52=20170913-09:49:02.720|56=TRAX|10=196|8=FIXT.1.1|9=56|35=0|34=283|49=HEMAAPA|52=20170913-09:49:33.718|56=TRAX|10=208|8=FIXT.1.1|9=56|35=0|34=284|49=HEMAAPA|52=20170913-09:50:03.725|56=TRAX|10=196|8=FIXT.1.1|9=56|35=0|34=285|49=HEMAAPA|52=20170913-09:50:34.724|56=TRAX|10=200|8=FIXT.1.1|9=56|35=0|34=286|49=HEMAAPA|52=20170913-09:51:05.723|56=TRAX|10=199|8=FIXT.1.1|9=56|35=0|34=287|49=HEMAAPA|52=20170913-09:51:36.724|56=TRAX|10=205|8=FIXT.1.1|9=56|35=0|34=288|49=HEMAAPA|52=20170913-09:52:06.724|56=TRAX|10=204|8=FIXT.1.1|9=56|35=0|34=289|49=HEMAAPA|52=20170913-09:52:37.665|56=TRAX|10=213|8=FIXT.1.1|9=56|35=0|34=290|49=HEMAAPA|52=20170913-09:53:07.666|56=TRAX|10=204|8=FIXT.1.1|9=56|35=0|34=291|49=HEMAAPA|52=20170913-09:53:37.673|56=TRAX|10=206|8=FIXT.1.1|9=56|35=0|34=292|49=HEMAAPA|52=20170913-09:54:07.729|56=TRAX|10=207|8=FIXT.1.1|9=56|35=0|34=293|49=HEMAAPA|52=20170913-09:54:37.734|56=TRAX|10=207|8=FIXT.1.1|9=56|35=0|34=294|49=HEMAAPA|52=20170913-09:55:08.733|56=TRAX|10=206|8=FIXT.1.1|9=56|35=0|34=295|49=HEMAAPA|52=20170913-09:55:38.734|56=TRAX|10=211|8=FIXT.1.1|9=56|35=0|34=296|49=HEMAAPA|52=20170913-09:56:09.727|56=TRAX|10=213|8=FIXT.1.1|9=56|35=0|34=297|49=HEMAAPA|52=20170913-09:56:39.733|56=TRAX|10=214|8=FIXT.1.1|9=56|35=0|34=298|49=HEMAAPA|52=20170913-09:57:10.734|56=TRAX|10=206|8=FIXT.1.1|9=56|35=0|34=299|49=HEMAAPA|52=20170913-09:57:41.734|56=TRAX|10=211|8=FIXT.1.1|9=56|35=0|34=300|49=HEMAAPA|52=20170913-09:58:12.734|56=TRAX|10=193|8=FIXT.1.1|9=56|35=0|34=301|49=HEMAAPA|52=20170913-09:58:42.735|56=TRAX|10=198|8=FIXT.1.1|9=56|35=0|34=302|49=HEMAAPA|52=20170913-09:59:12.738|56=TRAX|10=200|8=FIXT.1.1|9=56|35=0|34=303|49=HEMAAPA|52=20170913-09:59:43.734|56=TRAX|10=201|8=FIXT.1.1|9=56|35=0|34=304|49=HEMAAPA|52=20170913-10:00:13.740|56=TRAX|10=174|8=FIXT.1.1|9=56|35=0|34=305|49=HEMAAPA|52=20170913-10:00:44.734|56=TRAX|10=182|8=FIXT.1.1|9=56|35=0|34=306|49=HEMAAPA|52=20170913-10:01:14.735|56=TRAX|10=182|8=FIXT.1.1|9=56|35=0|34=307|49=HEMAAPA|52=20170913-10:01:44.739|56=TRAX|10=190|8=FIXT.1.1|9=56|35=0|34=308|49=HEMAAPA|52=20170913-10:02:15.739|56=TRAX|10=190|8=FIXT.1.1|9=56|35=0|34=309|49=HEMAAPA|52=20170913-10:02:45.743|56=TRAX|10=189|8=FIXT.1.1|9=56|35=0|34=310|49=HEMAAPA|52=20170913-10:03:16.740|56=TRAX|10=177|8=FIXT.1.1|9=56|35=0|34=311|49=HEMAAPA|52=20170913-10:03:46.746|56=TRAX|10=187|8=FIXT.1.1|9=56|35=0|34=312|49=HEMAAPA|52=20170913-10:04:16.748|56=TRAX|10=188|8=FIXT.1.1|9=56|35=0|34=313|49=HEMAAPA|52=20170913-10:04:47.744|56=TRAX|10=189|8=FIXT.1.1|9=56|35=0|34=314|49=HEMAAPA|52=20170913-10:05:18.743|56=TRAX|10=188|8=FIXT.1.1|9=56|35=0|34=315|49=HEMAAPA|52=20170913-10:05:49.751|56=TRAX|10=192|8=FIXT.1.1|9=56|35=0|34=316|49=HEMAAPA|52=20170913-10:06:20.744|56=TRAX|10=185|8=FIXT.1.1|9=56|35=0|34=317|49=HEMAAPA|52=20170913-10:06:50.752|56=TRAX|10=188|8=FIXT.1.1|9=56|35=0|34=318|49=HEMAAPA|52=20170913-10:07:21.748|56=TRAX|10=193|8=FIXT.1.1|9=56|35=0|34=319|49=HEMAAPA|52=20170913-10:07:52.747|56=TRAX|10=197|8=FIXT.1.1|9=56|35=0|34=320|49=HEMAAPA|52=20170913-10:08:23.746|56=TRAX|10=187|8=FIXT.1.1|9=56|35=0|34=321|49=HEMAAPA|52=20170913-10:08:53.748|56=TRAX|10=193|8=FIXT.1.1|9=56|35=0|34=322|49=HEMAAPA|52=20170913-10:09:23.754|56=TRAX|10=189|8=FIXT.1.1|9=56|35=0|34=323|49=HEMAAPA|52=20170913-10:09:54.749|56=TRAX|10=198|8=FIXT.1.1|9=56|35=0|34=324|49=HEMAAPA|52=20170913-10:10:24.754|56=TRAX|10=184|8=FIXT.1.1|9=56|35=0|34=325|49=HEMAAPA|52=20170913-10:10:55.752|56=TRAX|10=187|8=FIXT.1.1|9=56|35=0|34=326|49=HEMAAPA|52=20170913-10:11:25.756|56=TRAX|10=190|8=FIXT.1.1|9=56|35=0|34=327|49=HEMAAPA|52=20170913-10:11:55.757|56=TRAX|10=195|8=FIXT.1.1|9=56|35=0|34=328|49=HEMAAPA|52=20170913-10:12:26.756|56=TRAX|10=194|8=FIXT.1.1|9=56|35=0|34=329|49=HEMAAPA|52=20170913-10:12:57.754|56=TRAX|10=197|8=FIXT.1.1|9=56|35=0|34=330|49=HEMAAPA|52=20170913-10:13:27.761|56=TRAX|10=185|8=FIXT.1.1|9=56|35=0|34=331|49=HEMAAPA|52=20170913-10:13:57.761|56=TRAX|10=189|8=FIXT.1.1|9=56|35=0|34=332|49=HEMAAPA|52=20170913-10:14:27.763|56=TRAX|10=190|8=FIXT.1.1|9=56|35=0|34=333|49=HEMAAPA|52=20170913-10:14:58.758|56=TRAX|10=199|8=FIXT.1.1|9=56|35=0|34=334|49=HEMAAPA|52=20170913-10:15:28.759|56=TRAX|10=199|8=FIXT.1.1|9=56|35=0|34=335|49=HEMAAPA|52=20170913-10:15:59.758|56=TRAX|10=203|8=FIXT.1.1|9=56|35=0|34=336|49=HEMAAPA|52=20170913-10:16:29.760|56=TRAX|10=195|8=FIXT.1.1|9=56|35=0|34=337|49=HEMAAPA|52=20170913-10:17:00.757|56=TRAX|10=192|8=FIXT.1.1|9=56|35=0|34=338|49=HEMAAPA|52=20170913-10:17:30.758|56=TRAX|10=197|8=FIXT.1.1|9=56|35=0|34=339|49=HEMAAPA|52=20170913-10:18:01.741|56=TRAX|10=189|8=FIXT.1.1|9=56|35=0|34=340|49=HEMAAPA|52=20170913-10:18:31.765|56=TRAX|10=190|8=FIXT.1.1|9=56|35=0|34=341|49=HEMAAPA|52=20170913-10:19:02.764|56=TRAX|10=189|8=FIXT.1.1|9=56|35=0|34=342|49=HEMAAPA|52=20170913-10:19:32.765|56=TRAX|10=194|8=FIXT.1.1|9=56|35=0|34=343|49=HEMAAPA|52=20170913-10:20:03.764|56=TRAX|10=184|8=FIXT.1.1|9=56|35=0|34=344|49=HEMAAPA|52=20170913-10:20:34.767|56=TRAX|10=192|8=FIXT.1.1|9=56|35=0|34=345|49=HEMAAPA|52=20170913-10:21:04.771|56=TRAX|10=186|8=FIXT.1.1|9=56|35=0|34=346|49=HEMAAPA|52=20170913-10:21:35.764|56=TRAX|10=193|8=FIXT.1.1|9=56|35=0|34=347|49=HEMAAPA|52=20170913-10:22:05.765|56=TRAX|10=193|8=FIXT.1.1|9=56|35=0|34=348|49=HEMAAPA|52=20170913-10:22:36.769|56=TRAX|10=202|8=FIXT.1.1|9=56|35=0|34=349|49=HEMAAPA|52=20170913-10:23:06.770|56=TRAX|10=193|8=FIXT.1.1|9=56|35=0|34=350|49=HEMAAPA|52=20170913-10:23:37.707|56=TRAX|10=189|8=FIXT.1.1|9=56|35=0|34=351|49=HEMAAPA|52=20170913-10:24:07.766|56=TRAX|10=193|8=FIXT.1.1|9=56|35=0|34=352|49=HEMAAPA|52=20170913-10:24:37.770|56=TRAX|10=192|8=FIXT.1.1|9=56|35=0|34=353|49=HEMAAPA|52=20170913-10:25:08.748|56=TRAX|10=197|8=FIXT.1.1|9=56|35=0|34=354|49=HEMAAPA|52=20170913-10:25:38.748|56=TRAX|10=201|8=FIXT.1.1|9=56|35=0|34=355|49=HEMAAPA|52=20170913-10:26:08.748|56=TRAX|10=200|8=FIXT.1.1|9=56|35=0|34=356|49=HEMAAPA|52=20170913-10:26:38.770|56=TRAX|10=199|8=FIXT.1.1|9=56|35=0|34=357|49=HEMAAPA|52=20170913-10:27:09.731|56=TRAX|10=196|8=FIXT.1.1|9=56|35=0|34=358|49=HEMAAPA|52=20170913-10:27:39.736|56=TRAX|10=205|8=FIXT.1.1|9=56|35=0|34=359|49=HEMAAPA|52=20170913-10:28:10.705|56=TRAX|10=192|8=FIXT.1.1|9=56|35=0|34=360|49=HEMAAPA|52=20170913-10:28:40.711|56=TRAX|10=184|8=FIXT.1.1|9=56|35=0|34=361|49=HEMAAPA|52=20170913-10:29:11.681|56=TRAX|10=190|8=FIXT.1.1|9=56|35=0|34=362|49=HEMAAPA|52=20170913-10:29:42.667|56=TRAX|10=199|8=FIXT.1.1|9=56|35=0|34=363|49=HEMAAPA|52=20170913-10:30:13.655|56=TRAX|10=187|8=FIXT.1.1|9=56|35=0|34=364|49=HEMAAPA|52=20170913-10:30:43.666|56=TRAX|10=193|8=FIXT.1.1|9=56|35=0|34=365|49=HEMAAPA|52=20170913-10:31:14.652|56=TRAX|10=188|8=FIXT.1.1|9=56|35=0|34=366|49=HEMAAPA|52=20170913-10:31:45.623|56=TRAX|10=191|8=FIXT.1.1|9=56|35=0|34=367|49=HEMAAPA|52=20170913-10:32:16.619|56=TRAX|10=196|8=FIXT.1.1|9=56|35=0|34=368|49=HEMAAPA|52=20170913-10:32:47.614|56=TRAX|10=196|8=FIXT.1.1|9=56|35=0|34=369|49=HEMAAPA|52=20170913-10:33:17.638|56=TRAX|10=201|8=FIXT.1.1|9=56|35=0|34=370|49=HEMAAPA|52=20170913-10:33:48.627|56=TRAX|10=195|8=FIXT.1.1|9=56|35=0|34=371|49=HEMAAPA|52=20170913-10:34:19.622|56=TRAX|10=190|8=FIXT.1.1|9=56|35=0|34=372|49=HEMAAPA|52=20170913-10:34:49.623|56=TRAX|10=195|8=FIXT.1.1|9=56|35=0|34=373|49=HEMAAPA|52=20170913-10:35:20.615|56=TRAX|10=187|8=FIXT.1.1|9=56|35=0|34=374|49=HEMAAPA|52=20170913-10:35:51.616|56=TRAX|10=193|8=FIXT.1.1|9=56|35=0|34=375|49=HEMAAPA|52=20170913-10:36:22.605|56=TRAX|10=191|8=FIXT.1.1|9=56|35=0|34=376|49=HEMAAPA|52=20170913-10:36:52.612|56=TRAX|10=193|8=FIXT.1.1|9=56|35=0|34=377|49=HEMAAPA|52=20170913-10:37:23.606|56=TRAX|10=196|8=FIXT.1.1|9=56|35=0|34=378|49=HEMAAPA|52=20170913-10:37:53.611|56=TRAX|10=196|8=FIXT.1.1|9=56|35=0|34=379|49=HEMAAPA|52=20170913-10:38:24.605|56=TRAX|10=199|8=FIXT.1.1|9=56|35=0|34=380|49=HEMAAPA|52=20170913-10:38:55.583|56=TRAX|10=200|8=FIXT.1.1|9=56|35=0|34=381|49=HEMAAPA|52=20170913-10:39:26.582|56=TRAX|10=199|8=FIXT.1.1|9=56|35=0|34=382|49=HEMAAPA|52=20170913-10:39:57.581|56=TRAX|10=203|8=FIXT.1.1|9=56|35=0|34=383|49=HEMAAPA|52=20170913-10:40:28.580|56=TRAX|10=193|8=FIXT.1.1|9=56|35=0|34=384|49=HEMAAPA|52=20170913-10:40:59.579|56=TRAX|10=206|8=FIXT.1.1|9=56|35=0|34=385|49=HEMAAPA|52=20170913-10:41:30.578|56=TRAX|10=196|8=FIXT.1.1|9=56|35=0|34=386|49=HEMAAPA|52=20170913-10:42:01.577|56=TRAX|10=195|8=FIXT.1.1|9=56|35=0|34=387|49=HEMAAPA|52=20170913-10:42:31.577|56=TRAX|10=199|8=FIXT.1.1|9=56|35=0|34=388|49=HEMAAPA|52=20170913-10:43:01.599|56=TRAX|10=202|8=FIXT.1.1|9=56|35=0|34=389|49=HEMAAPA|52=20170913-10:43:32.601|56=TRAX|10=191|8=FIXT.1.1|9=56|35=0|34=390|49=HEMAAPA|52=20170913-10:44:03.600|56=TRAX|10=181|8=FIXT.1.1|9=56|35=0|34=391|49=HEMAAPA|52=20170913-10:44:33.603|56=TRAX|10=188|8=FIXT.1.1|9=56|35=0|34=392|49=HEMAAPA|52=20170913-10:45:04.600|56=TRAX|10=185|8=FIXT.1.1|9=56|35=0|34=393|49=HEMAAPA|52=20170913-10:45:35.598|56=TRAX|10=206|8=FIXT.1.1|9=56|35=0|34=394|49=HEMAAPA|52=20170913-10:46:06.599|56=TRAX|10=207|8=FIXT.1.1|9=56|35=0|34=395|49=HEMAAPA|52=20170913-10:46:36.604|56=TRAX|10=198|8=FIXT.1.1|9=56|35=0|34=396|49=HEMAAPA|52=20170913-10:47:06.606|56=TRAX|10=199|8=FIXT.1.1|9=56|35=0|34=397|49=HEMAAPA|52=20170913-10:47:37.484|56=TRAX|10=208|8=FIXT.1.1|9=56|35=0|34=398|49=HEMAAPA|52=20170913-10:48:07.583|56=TRAX|10=207|8=FIXT.1.1|9=56|35=0|34=399|49=HEMAAPA|52=20170913-10:48:37.609|56=TRAX|10=210|8=FIXT.1.1|9=56|35=0|34=400|49=HEMAAPA|52=20170913-10:49:08.604|56=TRAX|10=187|8=FIXT.1.1|9=56|35=0|34=401|49=HEMAAPA|52=20170913-10:49:38.604|56=TRAX|10=191|8=FIXT.1.1|9=56|35=0|34=402|49=HEMAAPA|52=20170913-10:50:08.610|56=TRAX|10=178|8=FIXT.1.1|9=56|35=0|34=403|49=HEMAAPA|52=20170913-10:50:39.610|56=TRAX|10=183|8=FIXT.1.1|9=56|35=0|34=404|49=HEMAAPA|52=20170913-10:51:10.585|56=TRAX|10=185|8=FIXT.1.1|9=56|35=0|34=405|49=HEMAAPA|52=20170913-10:51:40.608|56=TRAX|10=185|8=FIXT.1.1|9=56|35=0|34=406|49=HEMAAPA|52=20170913-10:52:10.610|56=TRAX|10=177|8=FIXT.1.1|9=56|35=0|34=407|49=HEMAAPA|52=20170913-10:52:40.611|56=TRAX|10=182|8=FIXT.1.1|9=56|35=0|34=408|49=HEMAAPA|52=20170913-10:53:11.609|56=TRAX|10=189|8=FIXT.1.1|9=56|35=0|34=409|49=HEMAAPA|52=20170913-10:53:42.608|56=TRAX|10=193|8=FIXT.1.1|9=56|35=0|34=410|49=HEMAAPA|52=20170913-10:54:13.587|56=TRAX|10=190|8=FIXT.1.1|9=56|35=0|34=411|49=HEMAAPA|52=20170913-10:54:43.608|56=TRAX|10=188|8=FIXT.1.1|9=56|35=0|34=412|49=HEMAAPA|52=20170913-10:55:14.607|56=TRAX|10=187|8=FIXT.1.1|9=56|35=0|34=413|49=HEMAAPA|52=20170913-10:55:45.607|56=TRAX|10=192|8=FIXT.1.1|9=56|35=0|34=414|49=HEMAAPA|52=20170913-10:56:15.609|56=TRAX|10=193|8=FIXT.1.1|9=56|35=0|34=415|49=HEMAAPA|52=20170913-10:56:45.611|56=TRAX|10=190|8=FIXT.1.1|9=56|35=0|34=416|49=HEMAAPA|52=20170913-10:57:16.611|56=TRAX|10=190|8=FIXT.1.1|9=56|35=0|34=417|49=HEMAAPA|52=20170913-10:57:46.617|56=TRAX|10=200|8=FIXT.1.1|9=56|35=0|34=418|49=HEMAAPA|52=20170913-10:58:16.617|56=TRAX|10=199|8=FIXT.1.1|9=56|35=0|34=419|49=HEMAAPA|52=20170913-10:58:47.613|56=TRAX|10=200|8=FIXT.1.1|9=56|35=0|34=420|49=HEMAAPA|52=20170913-10:59:18.593|56=TRAX|10=198|8=FIXT.1.1|9=56|35=0|34=421|49=HEMAAPA|52=20170913-10:59:49.611|56=TRAX|10=194|8=FIXT.1.1|9=56|35=0|34=422|49=HEMAAPA|52=20170913-11:00:19.619|56=TRAX|10=187|8=FIXT.1.1|9=56|35=0|34=423|49=HEMAAPA|52=20170913-11:00:50.615|56=TRAX|10=179|8=FIXT.1.1|9=56|35=0|34=424|49=HEMAAPA|52=20170913-11:01:21.606|56=TRAX|10=179|8=FIXT.1.1|9=56|35=0|34=425|49=HEMAAPA|52=20170913-11:01:51.606|56=TRAX|10=183|8=FIXT.1.1|9=56|35=0|34=426|49=HEMAAPA|52=20170913-11:02:21.619|56=TRAX|10=186|8=FIXT.1.1|9=56|35=0|34=427|49=HEMAAPA|52=20170913-11:02:52.616|56=TRAX|10=188|8=FIXT.1.1|9=56|35=0|34=428|49=HEMAAPA|52=20170913-11:03:23.617|56=TRAX|10=189|8=FIXT.1.1|9=56|35=0|34=429|49=HEMAAPA|52=20170913-11:03:53.617|56=TRAX|10=193|8=FIXT.1.1|9=56|35=0|34=430|49=HEMAAPA|52=20170913-11:04:23.619|56=TRAX|10=185|8=FIXT.1.1|9=56|35=0|34=431|49=HEMAAPA|52=20170913-11:04:53.622|56=TRAX|10=183|8=FIXT.1.1|9=56|35=0|34=432|49=HEMAAPA|52=20170913-11:05:23.626|56=TRAX|10=186|8=FIXT.1.1|9=56|35=0|34=433|49=HEMAAPA|52=20170913-11:05:54.617|5