8=FIXT.1.1|9=100|35=A|34=1|49=QA3TEST_002|52=20170619-08:59:41.512|56=TRAX|98=0|108=30|95=8|96=1.0.0rc9|141=Y|1137=9|10=179|8=FIXT.1.1|9=58|35=0|34=2|49=QA3TEST_002|52=20170619-09:00:11.513|56=TRAX|10=091|8=FIXT.1.1|9=58|35=0|34=3|49=QA3TEST_002|52=20170619-09:00:42.402|56=TRAX|10=093|8=FIXT.1.1|9=58|35=0|34=4|49=QA3TEST_002|52=20170619-09:01:12.512|56=TRAX|10=094|8=FIXT.1.1|9=58|35=0|34=5|49=QA3TEST_002|52=20170619-09:01:43.486|56=TRAX|10=109|8=FIXT.1.1|9=58|35=0|34=6|49=QA3TEST_002|52=20170619-09:02:13.486|56=TRAX|10=108|8=FIXT.1.1|9=58|35=0|34=7|49=QA3TEST_002|52=20170619-09:02:43.512|56=TRAX|10=102|8=FIXT.1.1|9=58|35=0|34=8|49=QA3TEST_002|52=20170619-09:03:14.507|56=TRAX|10=106|8=FIXT.1.1|9=58|35=0|34=9|49=QA3TEST_002|52=20170619-09:03:44.507|56=TRAX|10=110|8=FIXT.1.1|9=317|35=AE|34=10|49=QA3TEST_002|52=20170619-09:04:03.664|56=TRAX|57=APA|571=EquityDef|423=1|487=0|48=EQTSHARE0001|22=4|32=7500|31=200.34|60=20170526-18:00:00|552=1|54=1|29=4|1041=DeferraJune12th6|1116=2|1117=315700XCZD3UVUB9JE63|1118=N|1119=116|1117=315700XCZD3UVUB9JE63|1118=N|1119=1|15=EUR|1934=0|22600=60|854=0|30=XOFF|10=187|8=FIXT.1.1|9=59|35=0|34=11|49=QA3TEST_002|52=20170619-09:04:34.410|56=TRAX|10=145|8=FIXT.1.1|9=59|35=0|34=12|49=QA3TEST_002|52=20170619-09:05:04.413|56=TRAX|10=147|8=FIXT.1.1|9=59|35=0|34=13|49=QA3TEST_002|52=20170619-09:05:34.487|56=TRAX|10=162|8=FIXT.1.1|9=59|35=0|34=14|49=QA3TEST_002|52=20170619-09:06:04.495|56=TRAX|10=160|8=FIXT.1.1|9=59|35=0|34=15|49=QA3TEST_002|52=20170619-09:06:34.495|56=TRAX|10=164|8=FIXT.1.1|9=59|35=0|34=16|49=QA3TEST_002|52=20170619-09:07:04.505|56=TRAX|10=155|8=FIXT.1.1|9=318|35=AE|34=17|49=QA3TEST_002|52=20170619-09:07:08.090|56=TRAX|57=APA|571=EquityDef|423=1|487=0|48=AUTOTESTEQT6|22=4|32=7500|31=200.34|60=20170526-18:00:00|552=1|54=1|29=4|1041=DeferraJune12th19|1116=2|1117=315700XCZD3UVUB9JE63|1118=N|1119=116|1117=315700XCZD3UVUB9JE63|1118=N|1119=1|15=EUR|1934=0|22600=60|854=0|30=XOFF|10=115|8=FIXT.1.1|9=59|35=0|34=18|49=QA3TEST_002|52=20170619-09:07:38.514|56=TRAX|10=164|8=FIXT.1.1|9=59|35=0|34=19|49=QA3TEST_002|52=20170619-09:08:09.403|56=TRAX|10=161|8=FIXT.1.1|9=59|35=0|34=20|49=QA3TEST_002|52=20170619-09:08:39.403|56=TRAX|10=156|8=FIXT.1.1|9=59|35=0|34=21|49=QA3TEST_002|52=20170619-09:09:09.488|56=TRAX|10=168|8=FIXT.1.1|9=59|35=0|34=22|49=QA3TEST_002|52=20170619-09:09:40.487|56=TRAX|10=163|8=FIXT.1.1|9=59|35=0|34=23|49=QA3TEST_002|52=20170619-09:10:11.486|56=TRAX|10=153|8=FIXT.1.1|9=59|35=0|34=24|49=QA3TEST_002|52=20170619-09:10:41.509|56=TRAX|10=153|8=FIXT.1.1|9=59|35=0|34=25|49=QA3TEST_002|52=20170619-09:11:12.505|56=TRAX|10=149|8=FIXT.1.1|9=59|35=0|34=26|49=QA3TEST_002|52=20170619-09:11:43.512|56=TRAX|10=152|8=FIXT.1.1|9=253|35=i|34=27|49=QA3TEST_002|50=APA|52=20170619-09:11:53.309|56=TRAX|57=APA|117=RMQ001|296=1|302=1|304=1|295=1|299=RQ003|48=AUTOTESTEQT6|22=4|22680=10.45|22683=1|134=5000|62=20170610-08:59:59.000|60=20170607-06:59:59.000|15=GBP|22500=4|22501=ABC|22503=100|10=084|8=FIXT.1.1|9=59|35=0|34=28|49=QA3TEST_002|52=20170619-09:12:23.507|56=TRAX|10=157|8=FIXT.1.1|9=59|35=0|34=29|49=QA3TEST_002|52=20170619-09:12:53.507|56=TRAX|10=161|8=FIXT.1.1|9=59|35=0|34=30|49=QA3TEST_002|52=20170619-09:13:23.508|56=TRAX|10=152|8=FIXT.1.1|9=59|35=0|34=31|49=QA3TEST_002|52=20170619-09:13:54.400|56=TRAX|10=148|8=FIXT.1.1|9=59|35=0|34=32|49=QA3TEST_002|52=20170619-09:14:24.487|56=TRAX|10=162|8=FIXT.1.1|9=59|35=0|34=33|49=QA3TEST_002|52=20170619-09:14:54.506|56=TRAX|10=158|8=FIXT.1.1|9=59|35=0|34=34|49=QA3TEST_002|52=20170619-09:15:24.511|56=TRAX|10=153|8=FIXT.1.1|9=59|35=0|34=35|49=QA3TEST_002|52=20170619-09:15:55.509|56=TRAX|10=165|8=FIXT.1.1|9=59|35=0|34=36|49=QA3TEST_002|52=20170619-09:16:26.505|56=TRAX|10=161|8=FIXT.1.1|9=59|35=0|34=37|49=QA3TEST_002|52=20170619-09:16:56.509|56=TRAX|10=169|8=FIXT.1.1|9=59|35=0|34=38|49=QA3TEST_002|52=20170619-09:17:26.512|56=TRAX|10=162|8=FIXT.1.1|9=59|35=0|34=39|49=QA3TEST_002|52=20170619-09:17:56.514|56=TRAX|10=168|8=FIXT.1.1|9=367|35=AE|34=40|49=QA3TEST_002|52=20170619-09:18:17.055|56=TRAX|57=APA|571=EquityDef|423=1|487=0|48=AUTOTESTEQT6|22=4|32=7500|31=200.34|60=20170526-18:00:00|552=1|54=1|29=4|1041=DeferraJune12th191|1116=2|1117=315700XCZD3UVUB9JE63|1118=N|1119=116|1117=315700XCZD3UVUB9JE63|1118=N|1119=1|15=EUR|1934=0|22600=60|854=0|30=XOFF|2489=PACKAGE001|2490=1|748=2|22801=1|22802=TPAC|10=090|8=FIXT.1.1|9=59|35=0|34=41|49=QA3TEST_002|52=20170619-09:18:47.513|56=TRAX|10=161|8=FIXT.1.1|9=59|35=0|34=42|49=QA3TEST_002|52=20170619-09:19:17.516|56=TRAX|10=163|8=FIXT.1.1|9=367|35=AE|34=43|49=QA3TEST_002|52=20170619-09:19:31.337|56=TRAX|57=APA|571=EquityDef|423=1|487=0|48=AUTOTESTEQT6|22=4|32=7500|31=200.34|60=20170526-18:00:00|552=1|54=1|29=4|1041=DeferraJune12th192|1116=2|1117=315700XCZD3UVUB9JE63|1118=N|1119=116|1117=315700XCZD3UVUB9JE63|1118=N|1119=1|15=EUR|1934=0|22600=60|854=0|30=XOFF|2489=PACKAGE001|2490=2|748=2|22801=1|22802=TPAC|10=095|8=FIXT.1.1|9=59|35=0|34=44|49=QA3TEST_002|52=20170619-09:20:01.511|56=TRAX|10=145|8=FIXT.1.1|9=59|35=0|34=45|49=QA3TEST_002|52=20170619-09:20:31.517|56=TRAX|10=155|8=FIXT.1.1|9=59|35=0|34=46|49=QA3TEST_002|52=20170619-09:21:02.413|56=TRAX|10=150|8=FIXT.1.1|9=59|35=0|34=47|49=QA3TEST_002|52=20170619-09:21:32.515|56=TRAX|10=157|8=FIXT.1.1|9=59|35=0|34=48|49=QA3TEST_002|52=20170619-09:22:03.510|56=TRAX|10=152|8=FIXT.1.1|9=59|35=0|34=49|49=QA3TEST_002|52=20170619-09:22:33.517|56=TRAX|10=163|8=FIXT.1.1|9=59|35=0|34=50|49=QA3TEST_002|52=20170619-09:23:03.517|56=TRAX|10=153|8=FIXT.1.1|9=59|35=0|34=51|49=QA3TEST_002|52=20170619-09:23:33.520|56=TRAX|10=151|8=FIXT.1.1|9=59|35=0|34=52|49=QA3TEST_002|52=20170619-09:24:03.521|56=TRAX|10=151|8=FIXT.1.1|9=59|35=0|34=53|49=QA3TEST_002|52=20170619-09:24:34.520|56=TRAX|10=155|8=FIXT.1.1|9=59|35=0|34=54|49=QA3TEST_002|52=20170619-09:25:05.510|56=TRAX|10=154|8=FIXT.1.1|9=59|35=0|34=55|49=QA3TEST_002|52=20170619-09:25:35.513|56=TRAX|10=161|8=FIXT.1.1|9=59|35=0|34=56|49=QA3TEST_002|52=20170619-09:26:05.516|56=TRAX|10=163|8=FIXT.1.1|9=59|35=0|34=57|49=QA3TEST_002|52=20170619-09:26:35.520|56=TRAX|10=162|8=FIXT.1.1|9=59|35=0|34=58|49=QA3TEST_002|52=20170619-09:27:06.517|56=TRAX|10=168|8=FIXT.1.1|9=59|35=0|34=59|49=QA3TEST_002|52=20170619-09:27:37.523|56=TRAX|10=170|8=FIXT.1.1|9=59|35=0|34=60|49=QA3TEST_002|52=20170619-09:28:07.523|56=TRAX|10=160|8=FIXT.1.1|9=59|35=0|34=61|49=QA3TEST_002|52=20170619-09:28:38.520|56=TRAX|10=162|8=FIXT.1.1|9=59|35=0|34=62|49=QA3TEST_002|52=20170619-09:29:08.522|56=TRAX|10=163|8=FIXT.1.1|9=59|35=0|34=63|49=QA3TEST_002|52=20170619-09:29:39.523|56=TRAX|10=169|8=FIXT.1.1|9=59|35=0|34=64|49=QA3TEST_002|52=20170619-09:30:10.521|56=TRAX|10=149|8=FIXT.1.1|9=59|35=0|34=65|49=QA3TEST_002|52=20170619-09:30:41.520|56=TRAX|10=153|8=FIXT.1.1|9=261|35=i|34=66|49=QA3TEST_002|50=APA|52=20170619-09:30:49.068|56=TRAX|57=APA|117=RMQ001|296=1|302=1|304=1|295=1|299=RQ003|48=AUTOTESTEQT6|22=4|22680=10.45|22683=1|134=5000|62=20170610-08:59:59.000|60=20170607-06:59:59.000|15=GBP|22500=4|22501=ABC|22503=100|22701=Y|10=241|8=FIXT.1.1|9=59|35=0|34=67|49=QA3TEST_002|52=20170619-09:31:19.407|56=TRAX|10=165|8=FIXT.1.1|9=59|35=0|34=68|49=QA3TEST_002|52=20170619-09:31:49.411|56=TRAX|10=164|8=FIXT.1.1|9=59|35=0|34=69|49=QA3TEST_002|52=20170619-09:32:19.522|56=TRAX|10=166|8=FIXT.1.1|9=59|35=0|34=70|49=QA3TEST_002|52=20170619-09:32:49.525|56=TRAX|10=164|8=FIXT.1.1|9=59|35=0|34=71|49=QA3TEST_002|52=20170619-09:33:19.526|56=TRAX|10=164|8=FIXT.1.1|9=59|35=0|34=72|49=QA3TEST_002|52=20170619-09:33:50.529|56=TRAX|10=163|8=FIXT.1.1|9=59|35=0|34=73|49=QA3TEST_002|52=20170619-09:34:21.516|56=TRAX|10=159|8=FIXT.1.1|9=59|35=0|34=74|49=QA3TEST_002|52=20170619-09:34:51.530|56=TRAX|10=159|8=FIXT.1.1|9=59|35=0|34=75|49=QA3TEST_002|52=20170619-09:35:22.528|56=TRAX|10=166|8=FIXT.1.1|9=59|35=0|34=76|49=QA3TEST_002|52=20170619-09:35:53.504|56=TRAX|10=165|8=FIXT.1.1|9=59|35=0|34=77|49=QA3TEST_002|52=20170619-09:36:23.530|56=TRAX|10=163|8=FIXT.1.1|9=59|35=0|34=78|49=QA3TEST_002|52=20170619-09:36:53.531|56=TRAX|10=168|8=FIXT.1.1|9=59|35=0|34=79|49=QA3TEST_002|52=20170619-09:37:23.531|56=TRAX|10=167|8=FIXT.1.1|9=34875|35=i|34=80|49=QA3TEST_002|50=APA|52=20170619-09:37:26.300|56=TRAX|57=APA|117=RIMQ1|296=200|302=1|304=1|295=1|299=RQ14thJune1|48=AUTOTESTEQT6|22=4|22680=10.45|22683=1|134=6000|62=20170610-08:59:59.000|60=20170607-06:59:59.000|15=GBP|22500=4|22501=ABR14|22503=100|302=2|304=1|295=1|299=RQ14thJune2|48=QUOTEDERV004|22=4|22680=10.45|22683=1|134=6000|62=20170610-08:59:59.000|60=20170607-06:59:59.000|15=GBP|22500=4|22501=ABR14|22503=100|302=3|304=1|295=1|299=RQ14thJune3|48=QUOTEDERV004|22=4|22680=10.45|22683=1|134=6000|62=20170610-08:59:59.000|60=20170607-06:59:59.000|15=GBP|22500=4|22501=ABR14|22503=100|302=4|304=1|295=1|299=RQ14thJune4|48=QUOTEDERV004|22=4|22680=10.45|22683=1|134=6000|62=20170610-08:59:59.000|60=20170607-06:59:59.000|15=GBP|22500=4|22501=ABR14|22503=100|302=5|304=1|295=1|299=RQ14thJune5|48=QUOTEDERV004|22=4|22680=10.45|22683=1|134=6000|62=20170610-08:59:59.000|60=20170607-06:59:59.000|15=GBP|22500=4|22501=ABR14|22503=100|302=6|304=1|295=1|299=RQ14thJune6|48=QUOTEDERV004|22=4|22680=10.45|22683=1|134=6000|62=20170610-08:59:59.000|60=20170607-06:59:59.000|15=GBP|22500=4|22501=ABR14|22503=100|302=7|304=1|295=1|299=RQ14thJune7|48=QUOTEDERV004|22=4|22680=10.45|22683=1|134=6000|62=20170610-08:59:59.000|60=20170607-06:59:59.000|15=GBP|22500=4|22501=ABR14|22503=100|302=8|304=1|295=1|299=RQ14thJune8|48=QUOTEDERV004|22=4|22680=10.45|22683=1|134=6000|62=20170610-08:59:59.000|60=20170607-06:59:59.000|15=GBP|22500=4|22501=ABR14|22503=100|302=9|304=1|295=1|299=RQ14thJune9|48=QUOTEDERV004|22=4|22680=10.45|22683=1|134=6000|62=20170610-08:59:59.000|60=20170607-06:59:59.000|15=GBP|22500=4|22501=ABR14|22503=100|302=10|304=1|295=1|299=RQ14thJune10|48=QUOTEDERV004|22=4|22680=10.45|22683=1|134=6000|62=20170610-08:59:59.000|60=20170607-06:59:59.000|15=GBP|22500=4|22501=ABR14|22503=100|302=11|304=1|295=1|299=RQ14thJune11|48=QUOTEDERV004|22=4|22680=10.45|22683=1|134=6000|62=20170610-08:59:59.000|60=20170607-06:59:59.000|15=GBP|22500=4|22501=ABR14|22503=100|302=12|304=1|295=1|299=RQ14thJune12|48=QUOTEDERV004|22=4|22680=10.45|22683=1|134=6000|62=20170610-08:59:59.000|60=20170607-06:59:59.000|15=GBP|22500=4|22501=ABR14|22503=100|302=13|304=1|295=1|299=RQ14thJune13|48=QUOTEDERV004|22=4|22680=10.45|22683=1|134=6000|62=20170610-08:59:59.000|60=20170607-06:59:59.000|15=GBP|22500=4|22501=ABR14|22503=100|302=14|304=1|295=1|299=RQ14thJune14|48=QUOTEDERV004|22=4|22680=10.45|22683=1|134=6000|62=20170610-08:59:59.000|60=20170607-06:59:59.000|15=GBP|22500=4|22501=ABR14|22503=100|302=15|304=1|295=1|299=RQ14thJune15|48=QUOTEDERV004|22=4|22680=10.45|22683=1|134=6000|62=20170610-08:59:59.000|60=20170607-06:59:59.000|15=GBP|22500=4|22501=ABR14|22503=100|302=16|304=1|295=1|299=RQ14thJune16|48=QUOTEDERV004|22=4|22680=10.45|22683=1|134=6000|62=20170610-08:59:59.000|60=20170607-06:59:59.000|15=GBP|22500=4|22501=ABR14|22503=100|302=17|304=1|295=1|299=RQ14thJune17|48=QUOTEDERV004|22=4|22680=10.45|22683=1|134=6000|62=20170610-08:59:59.000|60=20170607-06:59:59.000|15=GBP|22500=4|22501=ABR14|22503=100|302=18|304=1|295=1|299=RQ14thJune18|48=QUOTEDERV004|22=4|22680=10.45|22683=1|134=6000|62=20170610-08:59:59.000|60=20170607-06:59:59.000|15=GBP|22500=4|22501=ABR14|22503=100|302=19|304=1|295=1|299=RQ14thJune19|48=QUOTEDERV004|22=4|22680=10.45|22683=1|134=6000|62=20170610-08:59:59.000|60=20170607-06:59:59.000|15=GBP|22500=4|22501=ABR14|22503=100|302=20|304=1|295=1|299=RQ14thJune20|48=QUOTEDERV004|22=4|22680=10.45|22683=1|134=6000|62=20170610-08:59:59.000|60=20170607-06:59:59.000|15=GBP|22500=4|22501=ABR14|22503=100|302=21|304=1|295=1|299=RQ14thJune21|48=QUOTEDERV004|22=4|22680=10.45|22683=1|134=6000|62=20170610-08:59:59.000|60=20170607-06:59:59.000|15=GBP|22500=4|22501=ABR14|22503=100|302=22|304=1|295=1|299=RQ14thJune22|48=QUOTEDERV004|22=4|22680=10.45|22683=1|134=6000|62=20170610-08:59:59.000|60=20170607-06:59:59.000|15=GBP|22500=4|22501=ABR14|22503=100|302=23|304=1|295=1|299=RQ14thJune23|48=QUOTEDERV004|22=4|22680=10.45|22683=1|134=6000|62=20170610-08:59:59.000|60=20170607-06:59:59.000|15=GBP|22500=4|22501=ABR14|22503=100|302=24|304=1|295=1|299=RQ14thJune24|48=QUOTEDERV004|22=4|22680=10.45|22683=1|134=6000|62=20170610-08:59:59.000|60=20170607-06:59:59.000|15=GBP|22500=4|22501=ABR14|22503=100|302=25|304=1|295=1|299=RQ14thJune25|48=QUOTEDERV004|22=4|22680=10.45|22683=1|134=6000|62=20170610-08:59:59.000|60=20170607-06:59:59.000|15=GBP|22500=4|22501=ABR14|22503=100|302=26|304=1|295=1|299=RQ14thJune26|48=QUOTEDERV004|22=4|22680=10.45|22683=1|134=6000|62=20170610-08:59:59.000|60=20170607-06:59:59.000|15=GBP|22500=4|22501=ABR14|22503=100|302=27|304=1|295=1|299=RQ14thJune27|48=QUOTEDERV004|22=4|22680=10.45|22683=1|134=6000|62=20170610-08:59:59.000|60=20170607-06:59:59.000|15=GBP|22500=4|22501=ABR14|22503=100|302=28|304=1|295=1|299=RQ14thJune28|48=QUOTEDERV004|22=4|22680=10.45|22683=1|134=6000|62=20170610-08:59:59.000|60=20170607-06:59:59.000|15=GBP|22500=4|22501=ABR14|22503=100|302=29|304=1|295=1|299=RQ14thJune29|48=QUOTEDERV004|22=4|22680=10.45|22683=1|134=6000|62=20170610-08:59:59.000|60=20170607-06:59:59.000|15=GBP|22500=4|22501=ABR14|22503=100|302=30|304=1|295=1|299=RQ14thJune30|48=QUOTEDERV004|22=4|22680=10.45|22683=1|134=6000|62=20170610-08:59:59.000|60=20170607-06:59:59.000|15=GBP|22500=4|22501=ABR14|22503=100|302=31|304=1|295=1|299=RQ14thJune31|48=QUOTEDERV004|22=4|22680=10.45|22683=1|134=6000|62=20170610-08:59:59.000|60=20170607-06:59:59.000|15=GBP|22500=4|22501=ABR14|22503=100|302=32|304=1|295=1|299=RQ14thJune32|48=QUOTEDERV004|22=4|22680=10.45|22683=1|134=6000|62=20170610-08:59:59.000|60=20170607-06:59:59.000|15=GBP|22500=4|22501=ABR14|22503=100|302=33|304=1|295=1|299=RQ14thJune33|48=QUOTEDERV004|22=4|22680=10.45|22683=1|134=6000|62=20170610-08:59:59.000|60=20170607-06:59:59.000|15=GBP|22500=4|22501=ABR14|22503=100|302=34|304=1|295=1|299=RQ14thJune34|48=QUOTEDERV004|22=4|22680=10.45|22683=1|134=6000|62=20170610-08:59:59.000|60=20170607-06:59:59.000|15=GBP|22500=4|22501=ABR14|22503=100|302=35|304=1|295=1|299=RQ14thJune35|48=QUOTEDERV004|22=4|22680=10.45|22683=1|134=6000|62=20170610-08:59:59.000|60=20170607-06:59:59.000|15=GBP|22500=4|22501=ABR14|22503=100|302=36|304=1|295=1|299=RQ14thJune36|48=QUOTEDERV004|22=4|22680=10.45|22683=1|134=6000|62=20170610-08:59:59.000|60=20170607-06:59:59.000|15=GBP|22500=4|22501=ABR14|22503=100|302=37|304=1|295=1|299=RQ14thJune37|48=QUOTEDERV004|22=4|22680=10.45|22683=1|134=6000|62=20170610-08:59:59.000|60=20170607-06:59:59.000|15=GBP|22500=4|22501=ABR14|22503=100|302=38|304=1|295=1|299=RQ14thJune38|48=QUOTEDERV004|22=4|22680=10.45|22683=1|134=6000|62=20170610-08:59:59.000|60=20170607-06:59:59.000|15=GBP|22500=4|22501=ABR14|22503=100|302=39|304=1|295=1|299=RQ14thJune39|48=QUOTEDERV004|22=4|22680=10.45|22683=1|134=6000|62=20170610-08:59:59.000|60=20170607-06:59:59.000|15=GBP|22500=4|22501=ABR14|22503=100|302=40|304=1|295=1|299=RQ14thJune40|48=QUOTEDERV004|22=4|22680=10.45|22683=1|134=6000|62=20170610-08:59:59.000|60=20170607-06:59:59.000|15=GBP|22500=4|22501=ABR14|22503=100|302=41|304=1|295=1|299=RQ14thJune41|48=QUOTEDERV004|22=4|22680=10.45|22683=1|134=6000|62=20170610-08:59:59.000|60=20170607-06:59:59.000|15=GBP|22500=4|22501=ABR14|22503=100|302=42|304=1|295=1|299=RQ14thJune42|48=QUOTEDERV004|22=4|22680=10.45|22683=1|134=6000|62=20170610-08:59:59.000|60=20170607-06:59:59.000|15=GBP|22500=4|22501=ABR14|22503=100|302=43|304=1|295=1|299=RQ14thJune43|48=QUOTEDERV004|22=4|22680=10.45|22683=1|134=6000|62=20170610-08:59:59.000|60=20170607-06:59:59.000|15=GBP|22500=4|22501=ABR14|22503=100|302=44|304=1|295=1|299=RQ14thJune44|48=QUOTEDERV004|22=4|22680=10.45|22683=1|134=6000|62=20170610-08:59:59.000|60=20170607-06:59:59.000|15=GBP|22500=4|22501=ABR14|22503=100|302=45|304=1|295=1|299=RQ14thJune45|48=QUOTEDERV004|22=4|22680=10.45|22683=1|134=6000|62=20170610-08:59:59.000|60=20170607-06:59:59.000|15=GBP|22500=4|22501=ABR14|22503=100|302=46|304=1|295=1|299=RQ14thJune46|48=QUOTEDERV004|22=4|22680=10.45|22683=1|134=6000|62=20170610-08:59:59.000|60=20170607-06:59:59.000|15=GBP|22500=4|22501=ABR14|22503=100|302=47|304=1|295=1|299=RQ14thJune47|48=QUOTEDERV004|22=4|22680=10.45|22683=1|134=6000|62=20170610-08:59:59.000|60=20170607-06:59:59.000|15=GBP|22500=4|22501=ABR14|22503=100|302=48|304=1|295=1|299=RQ14thJune48|48=QUOTEDERV004|22=4|22680=10.45|22683=1|134=6000|62=20170610-08:59:59.000|60=20170607-06:59:59.000|15=GBP|22500=4|22501=ABR14|22503=100|302=49|304=1|295=1|299=RQ14thJune49|48=QUOTEDERV004|22=4|22680=10.45|22683=1|134=6000|62=20170610-08:59:59.000|60=20170607-06:59:59.000|15=GBP|22500=4|22501=ABR14|22503=100|302=50|304=1|295=1|299=RQ14thJune50|48=QUOTEDERV004|22=4|22680=10.45|22683=1|134=6000|62=20170610-08:59:59.000|60=20170607-06:59:59.000|15=GBP|22500=4|22501=ABR14|22503=100|302=51|304=1|295=1|299=RQ14thJune51|48=QUOTEDERV004|22=4|22680=10.45|22683=1|134=6000|62=20170610-08:59:59.000|60=20170607-06:59:59.000|15=GBP|22500=4|22501=ABR14|22503=100|302=52|304=1|295=1|299=RQ14thJune52|48=QUOTEDERV004|22=4|22680=10.45|22683=1|134=6000|62=20170610-08:59:59.000|60=20170607-06:59:59.000|15=GBP|22500=4|22501=ABR14|22503=100|302=53|304=1|295=1|299=RQ14thJune53|48=QUOTEDERV004|22=4|22680=10.45|22683=1|134=6000|62=20170610-08:59:59.000|60=20170607-06:59:59.000|15=GBP|22500=4|22501=ABR14|22503=100|302=54|304=1|295=1|299=RQ14thJune54|48=QUOTEDERV004|22=4|22680=10.45|22683=1|134=6000|62=20170610-08:59:59.000|60=20170607-06:59:59.000|15=GBP|22500=4|22501=ABR14|22503=100|302=55|304=1|295=1|299=RQ14thJune55|48=QUOTEDERV004|22=4|22680=10.45|22683=1|134=6000|62=20170610-08:59:59.000|60=20170607-06:59:59.000|15=GBP|22500=4|22501=ABR14|22503=100|302=56|304=1|295=1|299=RQ14thJune56|48=QUOTEDERV004|22=4|22680=10.45|22683=1|134=6000|62=20170610-08:59:59.000|60=20170607-06:59:59.000|15=GBP|22500=4|22501=ABR14|22503=100|302=57|304=1|295=1|299=RQ14thJune57|48=QUOTEDERV004|22=4|22680=10.45|22683=1|134=6000|62=20170610-08:59:59.000|60=20170607-06:59:59.000|15=GBP|22500=4|22501=ABR14|22503=100|302=58|304=1|295=1|299=RQ14thJune58|48=QUOTEDERV004|22=4|22680=10.45|22683=1|134=6000|62=20170610-08:59:59.000|60=20170607-06:59:59.000|15=GBP|22500=4|22501=ABR14|22503=100|302=59|304=1|295=1|299=RQ14thJune59|48=QUOTEDERV004|22=4|22680=10.45|22683=1|134=6000|62=20170610-08:59:59.000|60=20170607-06:59:59.000|15=GBP|22500=4|22501=ABR14|22503=100|302=60|304=1|295=1|299=RQ14thJune60|48=QUOTEDERV004|22=4|22680=10.45|22683=1|134=6000|62=20170610-08:59:59.000|60=20170607-06:59:59.000|15=GBP|22500=4|22501=ABR14|22503=100|302=61|304=1|295=1|299=RQ14thJune61|48=QUOTEDERV004|22=4|22680=10.45|22683=1|134=6000|62=20170610-08:59:59.000|60=20170607-06:59:59.000|15=GBP|22500=4|22501=ABR14|22503=100|302=62|304=1|295=1|299=RQ14thJune62|48=QUOTEDERV004|22=4|22680=10.45|22683=1|134=6000|62=20170610-08:59:59.000|60=20170607-06:59:59.000|15=GBP|22500=4|22501=ABR14|22503=100|302=63|304=1|295=1|299=RQ14thJune63|48=QUOTEDERV004|22=4|22680=10.45|22683=1|134=6000|62=20170610-08:59:59.000|60=20170607-06:59:59.000|15=GBP|22500=4|22501=ABR14|22503=100|302=64|304=1|295=1|299=RQ14thJune64|48=QUOTEDERV004|22=4|22680=10.45|22683=1|134=6000|62=20170610-08:59:59.000|60=20170607-06:59:59.000|15=GBP|22500=4|22501=ABR14|22503=100|302=65|304=1|295=1|299=RQ14thJune65|48=QUOTEDERV004|22=4|22680=10.45|22683=1|134=6000|62=20170610-08:59:59.000|60=20170607-06:59:59.000|15=GBP|22500=4|22501=ABR14|22503=100|302=66|304=1|295=1|299=RQ14thJune66|48=QUOTEDERV004|22=4|22680=10.45|22683=1|134=6000|62=20170610-08:59:59.000|60=20170607-06:59:59.000|15=GBP|22500=4|22501=ABR14|22503=100|302=67|304=1|295=1|299=RQ14thJune67|48=QUOTEDERV004|22=4|22680=10.45|22683=1|134=6000|62=20170610-08:59:59.000|60=20170607-06:59:59.000|15=GBP|22500=4|22501=ABR14|22503=100|302=68|304=1|295=1|299=RQ14thJune68|48=QUOTEDERV004|22=4|22680=10.45|22683=1|134=6000|62=20170610-08:59:59.000|60=20170607-06:59:59.000|15=GBP|22500=4|22501=ABR14|22503=100|302=69|304=1|295=1|299=RQ14thJune69|48=QUOTEDERV004|22=4|22680=10.45|22683=1|134=6000|62=20170610-08:59:59.000|60=20170607-06:59:59.000|15=GBP|22500=4|22501=ABR14|22503=100|302=70|304=1|295=1|299=RQ14thJune70|48=QUOTEDERV004|22=4|22680=10.45|22683=1|134=6000|62=20170610-08:59:59.000|60=20170607-06:59:59.000|15=GBP|22500=4|22501=ABR14|22503=100|302=71|304=1|295=1|299=RQ14thJune71|48=QUOTEDERV004|22=4|22680=10.45|22683=1|134=6000|62=20170610-08:59:59.000|60=20170607-06:59:59.000|15=GBP|22500=4|22501=ABR14|22503=100|302=72|304=1|295=1|299=RQ14thJune72|48=QUOTEDERV004|22=4|22680=10.45|22683=1|134=6000|62=20170610-08:59:59.000|60=20170607-06:59:59.000|15=GBP|22500=4|22501=ABR14|22503=100|302=73|304=1|295=1|299=RQ14thJune73|48=QUOTEDERV004|22=4|22680=10.45|22683=1|134=6000|62=20170610-08:59:59.000|60=20170607-06:59:59.000|15=GBP|22500=4|22501=ABR14|22503=100|302=74|304=1|295=1|299=RQ14thJune74|48=QUOTEDERV004|22=4|22680=10.45|22683=1|134=6000|62=20170610-08:59:59.000|60=20170607-06:59:59.000|15=GBP|22500=4|22501=ABR14|22503=100|302=75|304=1|295=1|299=RQ14thJune75|48=QUOTEDERV004|22=4|22680=10.45|22683=1|134=6000|62=20170610-08:59:59.000|60=20170607-06:59:59.000|15=GBP|22500=4|22501=ABR14|22503=100|302=76|304=1|295=1|299=RQ14thJune76|48=QUOTEDERV004|22=4|22680=10.45|22683=1|134=6000|62=20170610-08:59:59.000|60=20170607-06:59:59.000|15=GBP|22500=4|22501=ABR14|22503=100|302=77|304=1|295=1|299=RQ14thJune77|48=QUOTEDERV004|22=4|22680=10.45|22683=1|134=6000|62=20170610-08:59:59.000|60=20170607-06:59:59.000|15=GBP|22500=4|22501=ABR14|22503=100|302=78|304=1|295=1|299=RQ14thJune78|48=QUOTEDERV004|22=4|22680=10.45|22683=1|134=6000|62=20170610-08:59:59.000|60=20170607-06:59:59.000|15=GBP|22500=4|22501=ABR14|22503=100|302=79|304=1|295=1|299=RQ14thJune79|48=QUOTEDERV004|22=4|22680=10.45|22683=1|134=6000|62=20170610-08:59:59.000|60=20170607-06:59:59.000|15=GBP|22500=4|22501=ABR14|22503=100|302=80|304=1|295=1|299=RQ14thJune80|48=QUOTEDERV004|22=4|22680=10.45|22683=1|134=6000|62=20170610-08:59:59.000|60=20170607-06:59:59.000|15=GBP|22500=4|22501=ABR14|22503=100|302=81|304=1|295=1|299=RQ14thJune81|48=QUOTEDERV004|22=4|22680=10.45|22683=1|134=6000|62=20170610-08:59:59.000|60=20170607-06:59:59.000|15=GBP|22500=4|22501=ABR14|22503=100|302=82|304=1|295=1|299=RQ14thJune82|48=QUOTEDERV004|22=4|22680=10.45|22683=1|134=6000|62=20170610-08:59:59.000|60=20170607-06:59:59.000|15=GBP|22500=4|22501=ABR14|22503=100|302=83|304=1|295=1|299=RQ14thJune83|48=QUOTEDERV004|22=4|22680=10.45|22683=1|134=6000|62=20170610-08:59:59.000|60=20170607-06:59:59.000|15=GBP|22500=4|22501=ABR14|22503=100|302=84|304=1|295=1|299=RQ14thJune84|48=QUOTEDERV004|22=4|22680=10.45|22683=1|134=6000|62=20170610-08:59:59.000|60=20170607-06:59:59.000|15=GBP|22500=4|22501=ABR14|22503=100|302=85|304=1|295=1|299=RQ14thJune85|48=QUOTEDERV004|22=4|22680=10.45|22683=1|134=6000|62=20170610-08:59:59.000|60=20170607-06:59:59.000|15=GBP|22500=4|22501=ABR14|22503=100|302=86|304=1|295=1|299=RQ14thJune86|48=QUOTEDERV004|22=4|22680=10.45|22683=1|134=6000|62=20170610-08:59:59.000|60=20170607-06:59:59.000|15=GBP|22500=4|22501=ABR14|22503=100|302=87|304=1|295=1|299=RQ14thJune87|48=QUOTEDERV004|22=4|22680=10.45|22683=1|134=6000|62=20170610-08:59:59.000|60=20170607-06:59:59.000|15=GBP|22500=4|22501=ABR14|22503=100|302=88|304=1|295=1|299=RQ14thJune88|48=QUOTEDERV004|22=4|22680=10.45|22683=1|134=6000|62=20170610-08:59:59.000|60=20170607-06:59:59.000|15=GBP|22500=4|22501=ABR14|22503=100|302=89|304=1|295=1|299=RQ14thJune89|48=QUOTEDERV004|22=4|22680=10.45|22683=1|134=6000|62=20170610-08:59:59.000|60=20170607-06:59:59.000|15=GBP|22500=4|22501=ABR14|22503=100|302=90|304=1|295=1|299=RQ14thJune90|48=QUOTEDERV004|22=4|22680=10.45|22683=1|134=6000|62=20170610-08:59:59.000|60=20170607-06:59:59.000|15=GBP|22500=4|22501=ABR14|22503=100|302=91|304=1|295=1|299=RQ14thJune91|48=QUOTEDERV004|22=4|22680=10.45|22683=1|134=6000|62=20170610-08:59:59.000|60=20170607-06:59:59.000|15=GBP|22500=4|22501=ABR14|22503=100|302=92|304=1|295=1|299=RQ14thJune92|48=QUOTEDERV004|22=4|22680=10.45|22683=1|134=6000|62=20170610-08:59:59.000|60=20170607-06:59:59.000|15=GBP|22500=4|22501=ABR14|22503=100|302=93|304=1|295=1|299=RQ14thJune93|48=QUOTEDERV004|22=4|22680=10.45|22683=1|134=6000|62=20170610-08:59:59.000|60=20170607-06:59:59.000|15=GBP|22500=4|22501=ABR14|22503=100|302=94|304=1|295=1|299=RQ14thJune94|48=QUOTEDERV004|22=4|22680=10.45|22683=1|134=6000|62=20170610-08:59:59.000|60=20170607-06:59:59.000|15=GBP|22500=4|22501=ABR14|22503=100|302=95|304=1|295=1|299=RQ14thJune95|48=QUOTEDERV004|22=4|22680=10.45|22683=1|134=6000|62=20170610-08:59:59.000|60=20170607-06:59:59.000|15=GBP|22500=4|22501=ABR14|22503=100|302=96|304=1|295=1|299=RQ14thJune96|48=QUOTEDERV004|22=4|22680=10.45|22683=1|134=6000|62=20170610-08:59:59.000|60=20170607-06:59:59.000|15=GBP|22500=4|22501=ABR14|22503=100|302=97|304=1|295=1|299=RQ14thJune97|48=QUOTEDERV004|22=4|22680=10.45|22683=1|134=6000|62=20170610-08:59:59.000|60=20170607-06:59:59.000|15=GBP|22500=4|22501=ABR14|22503=100|302=98|304=1|295=1|299=RQ14thJune98|48=QUOTEDERV004|22=4|22680=10.45|22683=1|134=6000|62=20170610-08:59:59.000|60=20170607-06:59:59.000|15=GBP|22500=4|22501=ABR14|22503=100|302=99|304=1|295=1|299=RQ14thJune99|48=QUOTEDERV004|22=4|22680=10.45|22683=1|134=6000|62=20170610-08:59:59.000|60=20170607-06:59:59.000|15=GBP|22500=4|22501=ABR14|22503=100|302=100|304=1|295=1|299=RQ14thJune100|48=QUOTEDERV004|22=4|22680=10.45|22683=1|134=6000|62=20170610-08:59:59.000|60=20170607-06:59:59.000|15=GBP|22500=4|22501=ABR14|22503=100|302=101|304=1|295=1|299=RQ14thJune101|48=QUOTEDERV004|22=4|22680=10.45|22683=1|134=6000|62=20170610-08:59:59.000|60=20170607-06:59:59.000|15=GBP|22500=4|22501=ABR14|22503=100|302=102|304=1|295=1|299=RQ14thJune102|48=QUOTEDERV004|22=4|22680=10.45|22683=1|134=6000|62=20170610-08:59:59.000|60=20170607-06:59:59.000|15=GBP|22500=4|22501=ABR14|22503=100|302=103|304=1|295=1|299=RQ14thJune103|48=QUOTEDERV004|22=4|22680=10.45|22683=1|134=6000|62=20170610-08:59:59.000|60=20170607-06:59:59.000|15=GBP|22500=4|22501=ABR14|22503=100|302=104|304=1|295=1|299=RQ14thJune104|48=QUOTEDERV004|22=4|22680=10.45|22683=1|134=6000|62=20170610-08:59:59.000|60=20170607-06:59:59.000|15=GBP|22500=4|22501=ABR14|22503=100|302=105|304=1|295=1|299=RQ14thJune105|48=QUOTEDERV004|22=4|22680=10.45|22683=1|134=6000|62=20170610-08:59:59.000|60=20170607-06:59:59.000|15=GBP|22500=4|22501=ABR14|22503=100|302=106|304=1|295=1|299=RQ14thJune106|48=QUOTEDERV004|22=4|22680=10.45|22683=1|134=6000|62=20170610-08:59:59.000|60=20170607-06:59:59.000|15=GBP|22500=4|22501=ABR14|22503=100|302=107|304=1|295=1|299=RQ14thJune107|48=QUOTEDERV004|22=4|22680=10.45|22683=1|134=6000|62=20170610-08:59:59.000|60=20170607-06:59:59.000|15=GBP|22500=4|22501=ABR14|22503=100|302=108|304=1|295=1|299=RQ14thJune108|48=QUOTEDERV004|22=4|22680=10.45|22683=1|134=6000|62=20170610-08:59:59.000|60=20170607-06:59:59.000|15=GBP|22500=4|22501=ABR14|22503=100|302=109|304=1|295=1|299=RQ14thJune109|48=QUOTEDERV004|22=4|22680=10.45|22683=1|134=6000|62=20170610-08:59:59.000|60=20170607-06:59:59.000|15=GBP|22500=4|22501=ABR14|22503=100|302=110|304=1|295=1|299=RQ14thJune110|48=QUOTEDERV004|22=4|22680=10.45|22683=1|134=6000|62=20170610-08:59:59.000|60=20170607-06:59:59.000|15=GBP|22500=4|22501=ABR14|22503=100|302=111|304=1|295=1|299=RQ14thJune111|48=QUOTEDERV004|22=4|22680=10.45|22683=1|134=6000|62=20170610-08:59:59.000|60=20170607-06:59:59.000|15=GBP|22500=4|22501=ABR14|22503=100|302=112|304=1|295=1|299=RQ14thJune112|48=QUOTEDERV004|22=4|22680=10.45|22683=1|134=6000|62=20170610-08:59:59.000|60=20170607-06:59:59.000|15=GBP|22500=4|22501=ABR14|22503=100|302=113|304=1|295=1|299=RQ14thJune113|48=QUOTEDERV004|22=4|22680=10.45|22683=1|134=6000|62=20170610-08:59:59.000|60=20170607-06:59:59.000|15=GBP|22500=4|22501=ABR14|22503=100|302=114|304=1|295=1|299=RQ14thJune114|48=QUOTEDERV004|22=4|22680=10.45|22683=1|134=6000|62=20170610-08:59:59.000|60=20170607-06:59:59.000|15=GBP|22500=4|22501=ABR14|22503=100|302=115|304=1|295=1|299=RQ14thJune115|48=QUOTEDERV004|22=4|22680=10.45|22683=1|134=6000|62=20170610-08:59:59.000|60=20170607-06:59:59.000|15=GBP|22500=4|22501=ABR14|22503=100|302=116|304=1|295=1|299=RQ14thJune116|48=QUOTEDERV004|22=4|22680=10.45|22683=1|134=6000|62=20170610-08:59:59.000|60=20170607-06:59:59.000|15=GBP|22500=4|22501=ABR14|22503=100|302=117|304=1|295=1|299=RQ14thJune117|48=QUOTEDERV004|22=4|22680=10.45|22683=1|134=6000|62=20170610-08:59:59.000|60=20170607-06:59:59.000|15=GBP|22500=4|22501=ABR14|22503=100|302=118|304=1|295=1|299=RQ14thJune118|48=QUOTEDERV004|22=4|22680=10.45|22683=1|134=6000|62=20170610-08:59:59.000|60=20170607-06:59:59.000|15=GBP|22500=4|22501=ABR14|22503=100|302=119|304=1|295=1|299=RQ14thJune119|48=QUOTEDERV004|22=4|22680=10.45|22683=1|134=6000|62=20170610-08:59:59.000|60=20170607-06:59:59.000|15=GBP|22500=4|22501=ABR14|22503=100|302=120|304=1|295=1|299=RQ14thJune120|48=QUOTEDERV004|22=4|22680=10.45|22683=1|134=6000|62=20170610-08:59:59.000|60=20170607-06:59:59.000|15=GBP|22500=4|22501=ABR14|22503=100|302=121|304=1|295=1|299=RQ14thJune121|48=QUOTEDERV004|22=4|22680=10.45|22683=1|134=6000|62=20170610-08:59:59.000|60=20170607-06:59:59.000|15=GBP|22500=4|22501=ABR14|22503=100|302=122|304=1|295=1|299=RQ14thJune122|48=QUOTEDERV004|22=4|22680=10.45|22683=1|134=6000|62=20170610-08:59:59.000|60=20170607-06:59:59.000|15=GBP|22500=4|22501=ABR14|22503=100|302=123|304=1|295=1|299=RQ14thJune123|48=QUOTEDERV004|22=4|22680=10.45|22683=1|134=6000|62=20170610-08:59:59.000|60=20170607-06:59:59.000|15=GBP|22500=4|22501=ABR14|22503=100|302=124|304=1|295=1|299=RQ14thJune124|48=QUOTEDERV004|22=4|22680=10.45|22683=1|134=6000|62=20170610-08:59:59.000|60=20170607-06:59:59.000|15=GBP|22500=4|22501=ABR14|22503=100|302=125|304=1|295=1|299=RQ14thJune125|48=QUOTEDERV004|22=4|22680=10.45|22683=1|134=6000|62=20170610-08:59:59.000|60=20170607-06:59:59.000|15=GBP|22500=4|22501=ABR14|22503=100|302=126|304=1|295=1|299=RQ14thJune126|48=QUOTEDERV004|22=4|22680=10.45|22683=1|134=6000|62=20170610-08:59:59.000|60=20170607-06:59:59.000|15=GBP|22500=4|22501=ABR14|22503=100|302=127|304=1|295=1|299=RQ14thJune127|48=QUOTEDERV004|22=4|22680=10.45|22683=1|134=6000|62=20170610-08:59:59.000|60=20170607-06:59:59.000|15=GBP|22500=4|22501=ABR14|22503=100|302=128|304=1|295=1|299=RQ14thJune128|48=QUOTEDERV004|22=4|22680=10.45|22683=1|134=6000|62=20170610-08:59:59.000|60=20170607-06:59:59.000|15=GBP|22500=4|22501=ABR14|22503=100|302=129|304=1|295=1|299=RQ14thJune129|48=QUOTEDERV004|22=4|22680=10.45|22683=1|134=6000|62=20170610-08:59:59.000|60=20170607-06:59:59.000|15=GBP|22500=4|22501=ABR14|22503=100|302=130|304=1|295=1|299=RQ14thJune130|48=QUOTEDERV004|22=4|22680=10.45|22683=1|134=6000|62=20170610-08:59:59.000|60=20170607-06:59:59.000|15=GBP|22500=4|22501=ABR14|22503=100|302=131|304=1|295=1|299=RQ14thJune131|48=QUOTEDERV004|22=4|22680=10.45|22683=1|134=6000|62=20170610-08:59:59.000|60=20170607-06:59:59.000|15=GBP|22500=4|22501=ABR14|22503=100|302=132|304=1|295=1|299=RQ14thJune132|48=QUOTEDERV004|22=4|22680=10.45|22683=1|134=6000|62=20170610-08:59:59.000|60=20170607-06:59:59.000|15=GBP|22500=4|22501=ABR14|22503=100|302=133|304=1|295=1|299=RQ14thJune133|48=QUOTEDERV004|22=4|22680=10.45|22683=1|134=6000|62=20170610-08:59:59.000|60=20170607-06:59:59.000|15=GBP|22500=4|22501=ABR14|22503=100|302=134|304=1|295=1|299=RQ14thJune134|48=QUOTEDERV004|22=4|22680=10.45|22683=1|134=6000|62=20170610-08:59:59.000|60=20170607-06:59:59.000|15=GBP|22500=4|22501=ABR14|22503=100|302=135|304=1|295=1|299=RQ14thJune135|48=QUOTEDERV004|22=4|22680=10.45|22683=1|134=6000|62=20170610-08:59:59.000|60=20170607-06:59:59.000|15=GBP|22500=4|22501=ABR14|22503=100|302=136|304=1|295=1|299=RQ14thJune136|48=QUOTEDERV004|22=4|22680=10.45|22683=1|134=6000|62=20170610-08:59:59.000|60=20170607-06:59:59.000|15=GBP|22500=4|22501=ABR14|22503=100|302=137|304=1|295=1|299=RQ14thJune137|48=QUOTEDERV004|22=4|22680=10.45|22683=1|134=6000|62=20170610-08:59:59.000|60=20170607-06:59:59.000|15=GBP|22500=4|22501=ABR14|22503=100|302=138|304=1|295=1|299=RQ14thJune138|48=QUOTEDERV004|22=4|22680=10.45|22683=1|134=6000|62=20170610-08:59:59.000|60=20170607-06:59:59.000|15=GBP|22500=4|22501=ABR14|22503=100|302=139|304=1|295=1|299=RQ14thJune139|48=QUOTEDERV004|22=4|22680=10.45|22683=1|134=6000|62=20170610-08:59:59.000|60=20170607-06:59:59.000|15=GBP|22500=4|22501=ABR14|22503=100|302=140|304=1|295=1|299=RQ14thJune140|48=QUOTEDERV004|22=4|22680=10.45|22683=1|134=6000|62=20170610-08:59:59.000|60=20170607-06:59:59.000|15=GBP|22500=4|22501=ABR14|22503=100|302=141|304=1|295=1|299=RQ14thJune141|48=QUOTEDERV004|22=4|22680=10.45|22683=1|134=6000|62=20170610-08:59:59.000|60=20170607-06:59:59.000|15=GBP|22500=4|22501=ABR14|22503=100|302=142|304=1|295=1|299=RQ14thJune142|48=QUOTEDERV004|22=4|22680=10.45|22683=1|134=6000|62=20170610-08:59:59.000|60=20170607-06:59:59.000|15=GBP|22500=4|22501=ABR14|22503=100|302=143|304=1|295=1|299=RQ14thJune143|48=QUOTEDERV004|22=4|22680=10.45|22683=1|134=6000|62=20170610-08:59:59.000|60=20170607-06:59:59.000|15=GBP|22500=4|22501=ABR14|22503=100|302=144|304=1|295=1|299=RQ14thJune144|48=QUOTEDERV004|22=4|22680=10.45|22683=1|134=6000|62=20170610-08:59:59.000|60=20170607-06:59:59.000|15=GBP|22500=4|22501=ABR14|22503=100|302=145|304=1|295=1|299=RQ14thJune145|48=QUOTEDERV004|22=4|22680=10.45|22683=1|134=6000|62=20170610-08:59:59.000|60=20170607-06:59:59.000|15=GBP|22500=4|22501=ABR14|22503=100|302=146|304=1|295=1|299=RQ14thJune146|48=QUOTEDERV004|22=4|22680=10.45|22683=1|134=6000|62=20170610-08:59:59.000|60=20170607-06:59:59.000|15=GBP|22500=4|22501=ABR14|22503=100|302=147|304=1|295=1|299=RQ14thJune147|48=QUOTEDERV004|22=4|22680=10.45|22683=1|134=6000|62=20170610-08:59:59.000|60=20170607-06:59:59.000|15=GBP|22500=4|22501=ABR14|22503=100|302=148|304=1|295=1|299=RQ14thJune148|48=QUOTEDERV004|22=4|22680=10.45|22683=1|134=6000|62=20170610-08:59:59.000|60=20170607-06:59:59.000|15=GBP|22500=4|22501=ABR14|22503=100|302=149|304=1|295=1|299=RQ14thJune149|48=QUOTEDERV004|22=4|22680=10.45|22683=1|134=6000|62=20170610-08:59:59.000|60=20170607-06:59:59.000|15=GBP|22500=4|22501=ABR14|22503=100|302=150|304=1|295=1|299=RQ14thJune150|48=QUOTEDERV004|22=4|22680=10.45|22683=1|134=6000|62=20170610-08:59:59.000|60=20170607-06:59:59.000|15=GBP|22500=4|22501=ABR14|22503=100|302=151|304=1|295=1|299=RQ14thJune151|48=QUOTEDERV004|22=4|22680=10.45|22683=1|134=6000|62=20170610-08:59:59.000|60=20170607-06:59:59.000|15=GBP|22500=4|22501=ABR14|22503=100|302=152|304=1|295=1|299=RQ14thJune152|48=QUOTEDERV004|22=4|22680=10.45|22683=1|134=6000|62=20170610-08:59:59.000|60=20170607-06:59:59.000|15=GBP|22500=4|22501=ABR14|22503=100|302=153|304=1|295=1|299=RQ14thJune153|48=QUOTEDERV004|22=4|22680=10.45|22683=1|134=6000|62=20170610-08:59:59.000|60=20170607-06:59:59.000|15=GBP|22500=4|22501=ABR14|22503=100|302=154|304=1|295=1|299=RQ14thJune154|48=QUOTEDERV004|22=4|22680=10.45|22683=1|134=6000|62=20170610-08:59:59.000|60=20170607-06:59:59.000|15=GBP|22500=4|22501=ABR14|22503=100|302=155|304=1|295=1|299=RQ14thJune155|48=QUOTEDERV004|22=4|22680=10.45|22683=1|134=6000|62=20170610-08:59:59.000|60=20170607-06:59:59.000|15=GBP|22500=4|22501=ABR14|22503=100|302=156|304=1|295=1|299=RQ14thJune156|48=QUOTEDERV004|22=4|22680=10.45|22683=1|134=6000|62=20170610-08:59:59.000|60=20170607-06:59:59.000|15=GBP|22500=4|22501=ABR14|22503=100|302=157|304=1|295=1|299=RQ14thJune157|48=QUOTEDERV004|22=4|22680=10.45|22683=1|134=6000|62=20170610-08:59:59.000|60=20170607-06:59:59.000|15=GBP|22500=4|22501=ABR14|22503=100|302=158|304=1|295=1|299=RQ14thJune158|48=QUOTEDERV004|22=4|22680=10.45|22683=1|134=6000|62=20170610-08:59:59.000|60=20170607-06:59:59.000|15=GBP|22500=4|22501=ABR14|22503=100|302=159|304=1|295=1|299=RQ14thJune159|48=QUOTEDERV004|22=4|22680=10.45|22683=1|134=6000|62=20170610-08:59:59.000|60=20170607-06:59:59.000|15=GBP|22500=4|22501=ABR14|22503=100|302=160|304=1|295=1|299=RQ14thJune160|48=QUOTEDERV004|22=4|22680=10.45|22683=1|134=6000|62=20170610-08:59:59.000|60=20170607-06:59:59.000|15=GBP|22500=4|22501=ABR14|22503=100|302=161|304=1|295=1|299=RQ14thJune161|48=QUOTEDERV004|22=4|22680=10.45|22683=1|134=6000|62=20170610-08:59:59.000|60=20170607-06:59:59.000|15=GBP|22500=4|22501=ABR14|22503=100|302=162|304=1|295=1|299=RQ14thJune162|48=QUOTEDERV004|22=4|22680=10.45|22683=1|134=6000|62=20170610-08:59:59.000|60=20170607-06:59:59.000|15=GBP|22500=4|22501=ABR14|22503=100|302=163|304=1|295=1|299=RQ14thJune163|48=QUOTEDERV004|22=4|22680=10.45|22683=1|134=6000|62=20170610-08:59:59.000|60=20170607-06:59:59.000|15=GBP|22500=4|22501=ABR14|22503=100|302=164|304=1|295=1|299=RQ14thJune164|48=QUOTEDERV004|22=4|22680=10.45|22683=1|134=6000|62=20170610-08:59:59.000|60=20170607-06:59:59.000|15=GBP|22500=4|22501=ABR14|22503=100|302=165|304=1|295=1|299=RQ14thJune165|48=QUOTEDERV004|22=4|22680=10.45|22683=1|134=6000|62=20170610-08:59:59.000|60=20170607-06:59:59.000|15=GBP|22500=4|22501=ABR14|22503=100|302=166|304=1|295=1|299=RQ14thJune166|48=QUOTEDERV004|22=4|22680=10.45|22683=1|134=6000|62=20170610-08:59:59.000|60=20170607-06:59:59.000|15=GBP|22500=4|22501=ABR14|22503=100|302=167|304=1|295=1|299=RQ14thJune167|48=QUOTEDERV004|22=4|22680=10.45|22683=1|134=6000|62=20170610-08:59:59.000|60=20170607-06:59:59.000|15=GBP|22500=4|22501=ABR14|22503=100|302=168|304=1|295=1|299=RQ14thJune168|48=QUOTEDERV004|22=4|22680=10.45|22683=1|134=6000|62=20170610-08:59:59.000|60=20170607-06:59:59.000|15=GBP|22500=4|22501=ABR14|22503=100|302=169|304=1|295=1|299=RQ14thJune169|48=QUOTEDERV004|22=4|22680=10.45|22683=1|134=6000|62=20170610-08:59:59.000|60=20170607-06:59:59.000|15=GBP|22500=4|22501=ABR14|22503=100|302=170|304=1|295=1|299=RQ14thJune170|48=QUOTEDERV004|22=4|22680=10.45|22683=1|134=6000|62=20170610-08:59:59.000|60=20170607-06:59:59.000|15=GBP|22500=4|22501=ABR14|22503=100|302=171|304=1|295=1|299=RQ14thJune171|48=QUOTEDERV004|22=4|22680=10.45|22683=1|134=6000|62=20170610-08:59:59.000|60=20170607-06:59:59.000|15=GBP|22500=4|22501=ABR14|22503=100|302=172|304=1|295=1|299=RQ14thJune172|48=QUOTEDERV004|22=4|22680=10.45|22683=1|134=6000|62=20170610-08:59:59.000|60=20170607-06:59:59.000|15=GBP|22500=4|22501=ABR14|22503=100|302=173|304=1|295=1|299=RQ14thJune173|48=QUOTEDERV004|22=4|22680=10.45|22683=1|134=6000|62=20170610-08:59:59.000|60=20170607-06:59:59.000|15=GBP|22500=4|22501=ABR14|22503=100|302=174|304=1|295=1|299=RQ14thJune174|48=QUOTEDERV004|22=4|22680=10.45|22683=1|134=6000|62=20170610-08:59:59.000|60=20170607-06:59:59.000|15=GBP|22500=4|22501=ABR14|22503=100|302=175|304=1|295=1|299=RQ14thJune175|48=QUOTEDERV004|22=4|22680=10.45|22683=1|134=6000|62=20170610-08:59:59.000|60=20170607-06:59:59.000|15=GBP|22500=4|22501=ABR14|22503=100|302=176|304=1|295=1|299=RQ14thJune176|48=QUOTEDERV004|22=4|22680=10.45|22683=1|134=6000|62=20170610-08:59:59.000|60=20170607-06:59:59.000|15=GBP|22500=4|22501=ABR14|22503=100|302=177|304=1|295=1|299=RQ14thJune177|48=QUOTEDERV004|22=4|22680=10.45|22683=1|134=6000|62=20170610-08:59:59.000|60=20170607-06:59:59.000|15=GBP|22500=4|22501=ABR14|22503=100|302=178|304=1|295=1|299=RQ14thJune178|48=QUOTEDERV004|22=4|22680=10.45|22683=1|134=6000|62=20170610-08:59:59.000|60=20170607-06:59:59.000|15=GBP|22500=4|22501=ABR14|22503=100|302=179|304=1|295=1|299=RQ14thJune179|48=QUOTEDERV004|22=4|22680=10.45|22683=1|134=6000|62=20170610-08:59:59.000|60=20170607-06:59:59.000|15=GBP|22500=4|22501=ABR14|22503=100|302=180|304=1|295=1|299=RQ14thJune180|48=QUOTEDERV004|22=4|22680=10.45|22683=1|134=6000|62=20170610-08:59:59.000|60=20170607-06:59:59.000|15=GBP|22500=4|22501=ABR14|22503=100|302=181|304=1|295=1|299=RQ14thJune181|48=QUOTEDERV004|22=4|22680=10.45|22683=1|134=6000|62=20170610-08:59:59.000|60=20170607-06:59:59.000|15=GBP|22500=4|22501=ABR14|22503=100|302=182|304=1|295=1|299=RQ14thJune182|48=QUOTEDERV004|22=4|22680=10.45|22683=1|134=6000|62=20170610-08:59:59.000|60=20170607-06:59:59.000|15=GBP|22500=4|22501=ABR14|22503=100|302=183|304=1|295=1|299=RQ14thJune183|48=QUOTEDERV004|22=4|22680=10.45|22683=1|134=6000|62=20170610-08:59:59.000|60=20170607-06:59:59.000|15=GBP|22500=4|22501=ABR14|22503=100|302=184|304=1|295=1|299=RQ14thJune184|48=QUOTEDERV004|22=4|22680=10.45|22683=1|134=6000|62=20170610-08:59:59.000|60=20170607-06:59:59.000|15=GBP|22500=4|22501=ABR14|22503=100|302=185|304=1|295=1|299=RQ14thJune185|48=QUOTEDERV004|22=4|22680=10.45|22683=1|134=6000|62=20170610-08:59:59.000|60=20170607-06:59:59.000|15=GBP|22500=4|22501=ABR14|22503=100|302=186|304=1|295=1|299=RQ14thJune186|48=QUOTEDERV004|22=4|22680=10.45|22683=1|134=6000|62=20170610-08:59:59.000|60=20170607-06:59:59.000|15=GBP|22500=4|22501=ABR14|22503=100|302=187|304=1|295=1|299=RQ14thJune187|48=QUOTEDERV004|22=4|22680=10.45|22683=1|134=6000|62=20170610-08:59:59.000|60=20170607-06:59:59.000|15=GBP|22500=4|22501=ABR14|22503=100|302=188|304=1|295=1|299=RQ14thJune188|48=QUOTEDERV004|22=4|22680=10.45|22683=1|134=6000|62=20170610-08:59:59.000|60=20170607-06:59:59.000|15=GBP|22500=4|22501=ABR14|22503=100|302=189|304=1|295=1|299=RQ14thJune189|48=QUOTEDERV004|22=4|22680=10.45|22683=1|134=6000|62=20170610-08:59:59.000|60=20170607-06:59:59.000|15=GBP|22500=4|22501=ABR14|22503=100|302=190|304=1|295=1|299=RQ14thJune190|48=QUOTEDERV004|22=4|22680=10.45|22683=1|134=6000|62=20170610-08:59:59.000|60=20170607-06:59:59.000|15=GBP|22500=4|22501=ABR14|22503=100|302=191|304=1|295=1|299=RQ14thJune191|48=QUOTEDERV004|22=4|22680=10.45|22683=1|134=6000|62=20170610-08:59:59.000|60=20170607-06:59:59.000|15=GBP|22500=4|22501=ABR14|22503=100|302=192|304=1|295=1|299=RQ14thJune192|48=QUOTEDERV004|22=4|22680=10.45|22683=1|134=6000|62=20170610-08:59:59.000|60=20170607-06:59:59.000|15=GBP|22500=4|22501=ABR14|22503=100|302=193|304=1|295=1|299=RQ14thJune193|48=QUOTEDERV004|22=4|22680=10.45|22683=1|134=6000|62=20170610-08:59:59.000|60=20170607-06:59:59.000|15=GBP|22500=4|22501=ABR14|22503=100|302=194|304=1|295=1|299=RQ14thJune194|48=QUOTEDERV004|22=4|22680=10.45|22683=1|134=6000|62=20170610-08:59:59.000|60=20170607-06:59:59.000|15=GBP|22500=4|22501=ABR14|22503=100|302=195|304=1|295=1|299=RQ14thJune195|48=QUOTEDERV004|22=4|22680=10.45|22683=1|134=6000|62=20170610-08:59:59.000|60=20170607-06:59:59.000|15=GBP|22500=4|22501=ABR14|22503=100|302=196|304=1|295=1|299=RQ14thJune196|48=QUOTEDERV004|22=4|22680=10.45|22683=1|134=6000|62=20170610-08:59:59.000|60=20170607-06:59:59.000|15=GBP|22500=4|22501=ABR14|22503=100|302=197|304=1|295=1|299=RQ14thJune197|48=QUOTEDERV004|22=4|22680=10.45|22683=1|134=6000|62=20170610-08:59:59.000|60=20170607-06:59:59.000|15=GBP|22500=4|22501=ABR14|22503=100|302=198|304=1|295=1|299=RQ14thJune198|48=QUOTEDERV004|22=4|22680=10.45|22683=1|134=6000|62=20170610-08:59:59.000|60=20170607-06:59:59.000|15=GBP|22500=4|22501=ABR14|22503=100|302=199|304=1|295=1|299=RQ14thJune199|48=QUOTEDERV004|22=4|22680=10.45|22683=1|134=6000|62=20170610-08:59:59.000|60=20170607-06:59:59.000|15=GBP|22500=4|22501=ABR14|22503=100|302=200|304=1|295=1|299=RQ14thJune200|48=QUOTEDERV004|22=4|22680=10.45|22683=1|134=6000|62=20170610-08:59:59.000|60=20170607-06:59:59.000|15=GBP|22500=4|22501=ABR14|22503=100|10=231|8=FIXT.1.1|9=59|35=0|34=81|49=QA3TEST_002|52=20170619-09:37:56.524|56=TRAX|10=168|8=FIXT.1.1|9=59|35=0|34=82|49=QA3TEST_002|52=20170619-09:38:26.529|56=TRAX|10=172|8=FIXT.1.1|9=59|35=0|34=83|49=QA3TEST_002|52=20170619-09:38:57.409|56=TRAX|10=174|8=FIXT.1.1|9=59|35=0|34=84|49=QA3TEST_002|52=20170619-09:39:27.411|56=TRAX|10=166|8=FIXT.1.1|9=59|35=0|34=85|49=QA3TEST_002|52=20170619-09:39:57.507|56=TRAX|10=176|8=FIXT.1.1|9=59|35=0|34=86|49=QA3TEST_002|52=20170619-09:40:27.507|56=TRAX|10=166|8=FIXT.1.1|9=59|35=0|34=87|49=QA3TEST_002|52=20170619-09:40:57.533|56=TRAX|10=169|8=FIXT.1.1|9=59|35=0|34=88|49=QA3TEST_002|52=20170619-09:41:28.533|56=TRAX|10=169|8=FIXT.1.1|9=59|35=0|34=89|49=QA3TEST_002|52=20170619-09:41:59.512|56=TRAX|10=171|8=FIXT.1.1|9=59|35=0|34=90|49=QA3TEST_002|52=20170619-09:42:29.533|56=TRAX|10=164|8=FIXT.1.1|9=59|35=0|34=91|49=QA3TEST_002|52=20170619-09:43:00.530|56=TRAX|10=152|8=FIXT.1.1|9=59|35=0|34=92|49=QA3TEST_002|52=20170619-09:43:31.536|56=TRAX|10=163|8=FIXT.1.1|9=59|35=0|34=93|49=QA3TEST_002|52=20170619-09:44:02.528|56=TRAX|10=164|8=FIXT.1.1|9=59|35=0|34=94|49=QA3TEST_002|52=20170619-09:44:32.528|56=TRAX|10=168|8=FIXT.1.1|9=59|35=0|34=95|49=QA3TEST_002|52=20170619-09:45:02.536|56=TRAX|10=166|8=FIXT.1.1|9=59|35=0|34=96|49=QA3TEST_002|52=20170619-09:45:33.533|56=TRAX|10=168|8=FIXT.1.1|9=59|35=0|34=97|49=QA3TEST_002|52=20170619-09:46:04.511|56=TRAX|10=164|8=FIXT.1.1|9=59|35=0|34=98|49=QA3TEST_002|52=20170619-09:46:34.539|56=TRAX|10=178|8=FIXT.1.1|9=59|35=0|34=99|49=QA3TEST_002|52=20170619-09:47:05.536|56=TRAX|10=175|8=FIXT.1.1|9=60|35=0|34=100|49=QA3TEST_002|52=20170619-09:47:36.530|56=TRAX|10=196|8=FIXT.1.1|9=60|35=0|34=101|49=QA3TEST_002|52=20170619-09:48:06.534|56=TRAX|10=199|8=FIXT.1.1|9=60|35=0|34=102|49=QA3TEST_002|52=20170619-09:48:37.534|56=TRAX|10=204|8=FIXT.1.1|9=60|35=0|34=103|49=QA3TEST_002|52=20170619-09:49:08.533|56=TRAX|10=203|8=FIXT.1.1|9=60|35=0|34=104|49=QA3TEST_002|52=20170619-09:49:39.532|56=TRAX|10=207|8=FIXT.1.1|9=60|35=0|34=105|49=QA3TEST_002|52=20170619-09:50:10.534|56=TRAX|10=191|8=FIXT.1.1|9=60|35=0|34=106|49=QA3TEST_002|52=20170619-09:50:40.536|56=TRAX|10=197|8=FIXT.1.1|9=60|35=0|34=107|49=QA3TEST_002|52=20170619-09:51:10.540|56=TRAX|10=191|8=FIXT.1.1|9=60|35=0|34=108|49=QA3TEST_002|52=20170619-09:51:41.534|56=TRAX|10=199|8=FIXT.1.1|9=60|35=0|34=109|49=QA3TEST_002|52=20170619-09:52:11.535|56=TRAX|10=199|8=FIXT.1.1|9=60|35=0|34=110|49=QA3TEST_002|52=20170619-09:52:41.535|56=TRAX|10=194|8=FIXT.1.1|9=60|35=0|34=111|49=QA3TEST_002|52=20170619-09:53:12.541|56=TRAX|10=191|8=FIXT.1.1|9=60|35=0|34=112|49=QA3TEST_002|52=20170619-09:53:43.533|56=TRAX|10=197|8=FIXT.1.1|9=60|35=0|34=113|49=QA3TEST_002|52=20170619-09:54:13.541|56=TRAX|10=195|8=FIXT.1.1|9=60|35=0|34=114|49=QA3TEST_002|52=20170619-09:54:44.541|56=TRAX|10=200|8=FIXT.1.1|9=60|35=0|34=115|49=QA3TEST_002|52=20170619-09:55:15.532|56=TRAX|10=200|8=FIXT.1.1|9=60|35=0|34=116|49=QA3TEST_002|52=20170619-09:55:45.538|56=TRAX|10=210|8=FIXT.1.1|9=60|35=0|34=117|49=QA3TEST_002|52=20170619-09:56:15.543|56=TRAX|10=205|8=FIXT.1.1|9=60|35=0|34=118|49=QA3TEST_002|52=20170619-09:56:46.528|56=TRAX|10=213|8=FIXT.1.1|9=60|35=0|34=119|49=QA3TEST_002|52=20170619-09:57:16.540|56=TRAX|10=206|8=FIXT.1.1|9=60|35=0|34=120|49=QA3TEST_002|52=20170619-09:57:46.545|56=TRAX|10=206|8=FIXT.1.1|9=60|35=0|34=121|49=QA3TEST_002|52=20170619-09:58:16.545|56=TRAX|10=205|8=FIXT.1.1|9=60|35=0|34=122|49=QA3TEST_002|52=20170619-09:58:47.523|56=TRAX|10=206|8=FIXT.1.1|9=60|35=0|34=123|49=QA3TEST_002|52=20170619-09:59:17.547|56=TRAX|10=211|8=FIXT.1.1|9=60|35=0|34=124|49=QA3TEST_002|52=20170619-09:59:47.548|56=TRAX|10=216|8=FIXT.1.1|9=60|35=0|34=125|49=QA3TEST_002|52=20170619-10:00:18.548|56=TRAX|10=193|8=FIXT.1.1|9=60|35=0|34=126|49=QA3TEST_002|52=20170619-10:00:49.540|56=TRAX|10=190|8=FIXT.1.1|9=60|35=0|34=127|49=QA3TEST_002|52=20170619-10:01:19.540|56=TRAX|10=189|8=FIXT.1.1|9=60|35=0|34=128|49=QA3TEST_002|52=20170619-10:01:49.550|56=TRAX|10=194|8=FIXT.1.1|9=60|35=0|34=129|49=QA3TEST_002|52=20170619-10:02:20.537|56=TRAX|10=190|8=FIXT.1.1|9=60|35=0|34=130|49=QA3TEST_002|52=20170619-10:02:51.551|56=TRAX|10=182|8=FIXT.1.1|9=60|35=0|34=131|49=QA3TEST_002|52=20170619-10:03:21.551|56=TRAX|10=181|8=FIXT.1.1|9=60|35=0|34=132|49=QA3TEST_002|52=20170619-10:03:52.548|56=TRAX|10=192|8=FIXT.1.1|9=60|35=0|34=133|49=QA3TEST_002|52=20170619-10:04:23.546|56=TRAX|10=190|8=FIXT.1.1|9=60|35=0|34=134|49=QA3TEST_002|52=20170619-10:04:53.548|56=TRAX|10=196|8=FIXT.1.1|9=60|35=0|34=135|49=QA3TEST_002|52=20170619-10:05:23.552|56=TRAX|10=190|8=FIXT.1.1|9=60|35=0|34=136|49=QA3TEST_002|52=20170619-10:05:54.554|56=TRAX|10=197|8=FIXT.1.1|9=60|35=0|34=137|49=QA3TEST_002|52=20170619-10:06:25.552|56=TRAX|10=195|8=FIXT.1.1|9=60|35=0|34=138|49=QA3TEST_002|52=20170619-10:06:56.538|56=TRAX|10=204|8=FIXT.1.1|9=60|35=0|34=139|49=QA3TEST_002|52=20170619-10:07:26.550|56=TRAX|10=197|8=FIXT.1.1|9=60|35=0|34=140|49=QA3TEST_002|52=20170619-10:07:56.553|56=TRAX|10=195|8=FIXT.1.1|9=60|35=0|34=141|49=QA3TEST_002|52=20170619-10:08:27.404|56=TRAX|10=190|8=FIXT.1.1|9=60|35=0|34=142|49=QA3TEST_002|52=20170619-10:08:57.427|56=TRAX|10=199|8=FIXT.1.1|9=60|35=0|34=143|49=QA3TEST_002|52=20170619-10:09:27.555|56=TRAX|10=200|8=FIXT.1.1|9=60|35=0|34=144|49=QA3TEST_002|52=20170619-10:09:58.554|56=TRAX|10=204|8=FIXT.1.1|9=60|35=0|34=145|49=QA3TEST_002|52=20170619-10:10:28.554|56=TRAX|10=194|8=FIXT.1.1|9=60|35=0|34=146|49=QA3TEST_002|52=20170619-10:10:58.554|56=TRAX|10=198|8=FIXT.1.1|9=60|35=0|34=147|49=QA3TEST_002|52=20170619-10:11:29.557|56=TRAX|10=201|8=FIXT.1.1|9=60|35=0|34=148|49=QA3TEST_002|52=20170619-10:11:59.559|56=TRAX|10=207|8=FIXT.1.1|9=60|35=0|34=149|49=QA3TEST_002|52=20170619-10:12:30.551|56=TRAX|10=190|8=FIXT.1.1|9=60|35=0|34=150|49=QA3TEST_002|52=20170619-10:13:00.554|56=TRAX|10=183|8=FIXT.1.1|9=60|35=0|34=151|49=QA3TEST_002|52=20170619-10:13:30.559|56=TRAX|10=192|8=FIXT.1.1|9=60|35=0|34=152|49=QA3TEST_002|52=20170619-10:14:01.554|56=TRAX|10=187|8=FIXT.1.1|9=60|35=0|34=153|49=QA3TEST_002|52=20170619-10:14:31.556|56=TRAX|10=193|8=FIXT.1.1|9=60|35=0|34=154|49=QA3TEST_002|52=20170619-10:15:02.560|56=TRAX|10=188|8=FIXT.1.1|9=60|35=0|34=155|49=QA3TEST_002|52=20170619-10:15:33.554|56=TRAX|10=196|8=FIXT.1.1|9=60|35=0|34=156|49=QA3TEST_002|52=20170619-10:16:03.561|56=TRAX|10=193|8=FIXT.1.1|9=60|35=0|34=157|49=QA3TEST_002|52=20170619-10:16:34.556|56=TRAX|10=202|8=FIXT.1.1|9=60|35=0|34=158|49=QA3TEST_002|52=20170619-10:17:04.560|56=TRAX|10=196|8=FIXT.1.1|9=60|35=0|34=159|49=QA3TEST_002|52=20170619-10:17:34.564|56=TRAX|10=204|8=FIXT.1.1|9=60|35=0|34=160|49=QA3TEST_002|52=20170619-10:18:04.564|56=TRAX|10=194|8=FIXT.1.1|9=60|35=0|34=161|49=QA3TEST_002|52=20170619-10:18:35.561|56=TRAX|10=196|8=FIXT.1.1|9=60|35=0|34=162|49=QA3TEST_002|52=20170619-10:19:06.562|56=TRAX|10=197|8=FIXT.1.1|9=60|35=0|34=163|49=QA3TEST_002|52=20170619-10:19:36.566|56=TRAX|10=205|8=FIXT.1.1|9=60|35=0|34=164|49=QA3TEST_002|52=20170619-10:20:07.565|56=TRAX|10=195|8=FIXT.1.1|9=60|35=0|34=165|49=QA3TEST_002|52=20170619-10:20:38.565|56=TRAX|10=200|8=FIXT.1.1|9=60|35=0|34=166|49=QA3TEST_002|52=20170619-10:21:08.565|56=TRAX|10=199|8=FIXT.1.1|9=60|35=0|34=167|49=QA3TEST_002|52=20170619-10:21:39.561|56=TRAX|10=200|8=FIXT.1.1|9=60|35=0|34=168|49=QA3TEST_002|52=20170619-10:22:09.565|56=TRAX|10=203|8=FIXT.1.1|9=60|35=0|34=169|49=QA3TEST_002|52=20170619-10:22:40.566|56=TRAX|10=200|8=FIXT.1.1|9=60|35=0|34=170|49=QA3TEST_002|52=20170619-10:23:10.569|56=TRAX|10=193|8=FIXT.1.1|9=60|35=0|34=171|49=QA3TEST_002|52=20170619-10:23:41.569|56=TRAX|10=198|8=FIXT.1.1|9=60|35=0|34=172|49=QA3TEST_002|52=20170619-10:24:12.567|56=TRAX|10=196|8=FIXT.1.1|9=60|35=0|34=173|49=QA3TEST_002|52=20170619-10:24:43.570|56=TRAX|10=195|8=FIXT.1.1|9=60|35=0|34=174|49=QA3TEST_002|52=20170619-10:25:14.568|56=TRAX|10=202|8=FIXT.1.1|9=60|35=0|34=175|49=QA3TEST_002|52=20170619-10:25:45.570|56=TRAX|10=200|8=FIXT.1.1|9=60|35=0|34=176|49=QA3TEST_002|52=20170619-10:26:15.570|56=TRAX|10=199|8=FIXT.1.1|9=60|35=0|34=177|49=QA3TEST_002|52=20170619-10:26:45.573|56=TRAX|10=206|8=FIXT.1.1|9=60|35=0|34=178|49=QA3TEST_002|52=20170619-10:27:15.573|56=TRAX|10=205|8=FIXT.1.1|9=60|35=0|34=179|49=QA3TEST_002|52=20170619-10:27:45.574|56=TRAX|10=210|8=FIXT.1.1|9=60|35=0|34=180|49=QA3TEST_002|52=20170619-10:28:16.569|56=TRAX|10=205|8=FIXT.1.1|9=60|35=0|34=181|49=QA3TEST_002|52=20170619-10:28:46.570|56=TRAX|10=201|8=FIXT.1.1|9=60|35=0|34=182|49=QA3TEST_002|52=20170619-10:29:16.572|56=TRAX|10=202|8=FIXT.1.1|9=60|35=0|34=183|49=QA3TEST_002|52=20170619-10:29:46.572|56=TRAX|10=206|8=FIXT.1.1|9=60|35=0|34=184|49=QA3TEST_002|52=20170619-10:30:17.570|56=TRAX|10=195|8=FIXT.1.1|9=60|35=0|34=185|49=QA3TEST_002|52=20170619-10:30:47.575|56=TRAX|10=204|8=FIXT.1.1|9=60|35=0|34=186|49=QA3TEST_002|52=20170619-10:31:17.577|56=TRAX|10=205|8=FIXT.1.1|9=60|35=0|34=187|49=QA3TEST_002|52=20170619-10:31:48.570|56=TRAX|10=203|8=FIXT.1.1|9=60|35=0|34=188|49=QA3TEST_002|52=20170619-10:32:18.571|56=TRAX|10=203|8=FIXT.1.1|9=60|35=0|34=189|49=QA3TEST_002|52=20170619-10:32:48.576|56=TRAX|10=212|8=FIXT.1.1|9=60|35=0|34=190|49=QA3TEST_002|52=20170619-10:33:18.579|56=TRAX|10=205|8=FIXT.1.1|9=60|35=0|34=191|49=QA3TEST_002|52=20170619-10:33:49.579|56=TRAX|10=210|8=FIXT.1.1|9=60|35=0|34=192|49=QA3TEST_002|52=20170619-10:34:20.579|56=TRAX|10=201|8=FIXT.1.1|9=60|35=0|34=193|49=QA3TEST_002|52=20170619-10:34:50.581|56=TRAX|10=198|8=FIXT.1.1|9=60|35=0|34=194|49=QA3TEST_002|52=20170619-10:35:21.576|56=TRAX|10=202|8=FIXT.1.1|9=60|35=0|34=195|49=QA3TEST_002|52=20170619-10:35:51.578|56=TRAX|10=208|8=FIXT.1.1|9=60|35=0|34=196|49=QA3TEST_002|52=20170619-10:36:22.582|56=TRAX|10=203|8=FIXT.1.1|9=60|35=0|34=197|49=QA3TEST_002|52=20170619-10:36:53.576|56=TRAX|10=211|8=FIXT.1.1|9=60|35=0|34=198|49=QA3TEST_002|52=20170619-10:37:24.575|56=TRAX|10=210|8=FIXT.1.1|9=60|35=0|34=199|49=QA3TEST_002|52=20170619-10:37:55.574|56=TRAX|10=214|8=FIXT.1.1|9=60|35=0|34=200|49=QA3TEST_002|52=20170619-10:38:26.579|56=TRAX|10=201|8=FIXT.1.1|9=60|35=0|34=201|49=QA3TEST_002|52=20170619-10:38:56.582|56=TRAX|10=199|8=FIXT.1.1|9=60|35=0|34=202|49=QA3TEST_002|52=20170619-10:39:27.410|56=TRAX|10=189|8=FIXT.1.1|9=60|35=0|34=203|49=QA3TEST_002|52=20170619-10:39:57.415|56=TRAX|10=198|8=FIXT.1.1|9=60|35=0|34=204|49=QA3TEST_002|52=20170619-10:40:27.417|56=TRAX|10=190|8=FIXT.1.1|9=60|35=0|34=205|49=QA3TEST_002|52=20170619-10:40:57.581|56=TRAX|10=196|8=FIXT.1.1|9=60|35=0|34=206|49=QA3TEST_002|52=20170619-10:41:27.583|56=TRAX|10=197|8=FIXT.1.1|9=60|35=0|34=207|49=QA3TEST_002|52=20170619-10:41:58.581|56=TRAX|10=200|8=FIXT.1.1|9=60|35=0|34=208|49=QA3TEST_002|52=20170619-10:42:28.584|56=TRAX|10=202|8=FIXT.1.1|9=60|35=0|34=209|49=QA3TEST_002|52=20170619-10:42:59.579|56=TRAX|10=211|8=FIXT.1.1|9=60|35=0|34=210|49=QA3TEST_002|52=20170619-10:43:29.579|56=TRAX|10=201|8=FIXT.1.1|9=60|35=0|34=211|49=QA3TEST_002|52=20170619-10:43:59.587|56=TRAX|10=204|8=FIXT.1.1|9=60|35=0|34=212|49=QA3TEST_002|52=20170619-10:44:30.584|56=TRAX|10=192|8=FIXT.1.1|9=60|35=0|34=213|49=QA3TEST_002|52=20170619-10:45:00.586|56=TRAX|10=193|8=FIXT.1.1|9=60|35=0|34=214|49=QA3TEST_002|52=20170619-10:45:31.584|56=TRAX|10=196|8=FIXT.1.1|9=60|35=0|34=215|49=QA3TEST_002|52=20170619-10:46:01.589|56=TRAX|10=200|8=FIXT.1.1|9=60|35=0|34=216|49=QA3TEST_002|52=20170619-10:46:32.581|56=TRAX|10=197|8=FIXT.1.1|9=60|35=0|34=217|49=QA3TEST_002|52=20170619-10:47:03.585|56=TRAX|10=201|8=FIXT.1.1|9=60|35=0|34=218|49=QA3TEST_002|52=20170619-10:47:34.586|56=TRAX|10=207|8=FIXT.1.1|9=60|35=0|34=219|49=QA3TEST_002|52=20170619-10:48:05.589|56=TRAX|10=210|8=FIXT.1.1|9=60|35=0|34=220|49=QA3TEST_002|52=20170619-10:48:36.584|56=TRAX|10=201|8=FIXT.1.1|9=60|35=0|34=221|49=QA3TEST_002|52=20170619-10:49:06.590|56=TRAX|10=197|8=FIXT.1.1|9=60|35=0|34=222|49=QA3TEST_002|52=20170619-10:49:37.592|56=TRAX|10=204|8=FIXT.1.1|9=60|35=0|34=223|49=QA3TEST_002|52=20170619-10:50:08.589|56=TRAX|10=201|8=FIXT.1.1|9=60|35=0|34=224|49=QA3TEST_002|52=20170619-10:50:38.590|56=TRAX|10=197|8=FIXT.1.1|9=60|35=0|34=225|49=QA3TEST_002|52=20170619-10:51:09.589|56=TRAX|10=205|8=FIXT.1.1|9=60|35=0|34=226|49=QA3TEST_002|52=20170619-10:51:40.595|56=TRAX|10=198|8=FIXT.1.1|9=60|35=0|34=227|49=QA3TEST_002|52=20170619-10:52:11.592|56=TRAX|10=195|8=FIXT.1.1|9=60|35=0|34=228|49=QA3TEST_002|52=20170619-10:52:42.586|56=TRAX|10=203|8=FIXT.1.1|9=60|35=0|34=229|49=QA3TEST_002|52=20170619-10:53:12.593|56=TRAX|10=200|8=FIXT.1.1|9=60|35=0|34=230|49=QA3TEST_002|52=20170619-10:53:43.592|56=TRAX|10=195|8=FIXT.1.1|9=60|35=0|34=231|49=QA3TEST_002|52=20170619-10:54:14.587|56=TRAX|10=199|8=FIXT.1.1|9=60|35=0|34=232|49=QA3TEST_002|52=20170619-10:54:44.591|56=TRAX|10=198|8=FIXT.1.1|9=60|35=0|34=233|49=QA3TEST_002|52=20170619-10:55:15.586|56=TRAX|10=202|8=FIXT.1.1|9=60|35=0|34=234|49=QA3TEST_002|52=20170619-10:55:46.591|56=TRAX|10=203|8=FIXT.1.1|9=60|35=0|34=235|49=QA3TEST_002|52=20170619-10:56:17.568|56=TRAX|10=207|8=FIXT.1.1|9=60|35=0|34=236|49=QA3TEST_002|52=20170619-10:56:47.591|56=TRAX|10=207|8=FIXT.1.1|9=60|35=0|34=237|49=QA3TEST_002|52=20170619-10:57:18.582|56=TRAX|10=207|8=FIXT.1.1|9=60|35=0|34=238|49=QA3TEST_002|52=20170619-10:57:48.589|56=TRAX|10=218|8=FIXT.1.1|9=60|35=0|34=239|49=QA3TEST_002|52=20170619-10:58:19.584|56=TRAX|10=213|8=FIXT.1.1|9=60|35=0|34=240|49=QA3TEST_002|52=20170619-10:58:49.589|56=TRAX|10=213|8=FIXT.1.1|9=60|35=0|34=241|49=QA3TEST_002|52=20170619-10:59:19.593|56=TRAX|10=207|8=FIXT.1.1|9=60|35=0|34=242|49=QA3TEST_002|52=20170619-10:59:50.587|56=TRAX|10=206|8=FIXT.1.1|9=60|35=0|34=243|49=QA3TEST_002|52=20170619-11:00:21.590|56=TRAX|10=186|8=FIXT.1.1|9=60|35=0|34=244|49=QA3TEST_002|52=20170619-11:00:52.587|56=TRAX|10=197|8=FIXT.1.1|9=60|35=0|34=245|49=QA3TEST_002|52=20170619-11:01:23.587|56=TRAX|10=197|8=FIXT.1.1|9=60|35=0|34=246|49=QA3TEST_002|52=20170619-11:01:53.593|56=TRAX|10=198|8=FIXT.1.1|9=60|35=0|34=247|49=QA3TEST_002|52=20170619-11:02:24.584|56=TRAX|10=198|8=FIXT.1.1|9=60|35=0|34=248|49=QA3TEST_002|52=20170619-11:02:54.590|56=TRAX|10=199|8=FIXT.1.1|9=60|35=0|34=249|49=QA3TEST_002|52=20170619-11:03:25.588|56=TRAX|10=206|8=FIXT.1.1|9=60|35=0|34=250|49=QA3TEST_002|52=20170619-11:03:56.594|56=TRAX|10=199|8=FIXT.1.1|9=60|35=0|34=251|49=QA3TEST_002|52=20170619-11:04:27.411|56=TRAX|10=187|8=FIXT.1.1|9=60|35=0|34=252|49=QA3TEST_002|52=20170619-11:04:57.587|56=TRAX|10=205|8=FIXT.1.1|9=60|35=0|34=253|49=QA3TEST_002|52=20170619-11:05:27.589|56=TRAX|10=206|8=FIXT.1.1|9=60|35=0|34=254|49=QA3TEST_002|52=20170619-11:05:57.593|56=TRAX|10=205|8=FIXT.1.1|9=60|35=0|34=255|49=QA3TEST_002|52=20170619-11:06:28.590|56=TRAX|10=202|8=FIXT.1.1|9=60|35=0|34=256|49=QA3TEST_002|52=20170619-11:06:58.594|56=TRAX|10=210|8=FIXT.1.1|9=60|35=0|34=257|49=QA3TEST_002|52=20170619-11:07:29.588|56=TRAX|10=213|8=FIXT.1.1|9=60|35=0|34=258|49=QA3TEST_002|52=20170619-11:08:00.569|56=TRAX|10=203|8=FIXT.1.1|9=60|35=0|34=259|49=QA3TEST_002|52=20170619-11:08:30.595|56=TRAX|10=206|8=FIXT.1.1|9=60|35=0|34=260|49=QA3TEST_002|52=20170619-11:09:00.595|56=TRAX|10=196|8=FIXT.1.1|9=60|35=0|34=261|49=QA3TEST_002|52=20170619-11:09:31.589|56=TRAX|10=204|8=FIXT.1.1|9=60|35=0|34=262|49=QA3TEST_002|52=20170619-11:10:01.589|56=TRAX|10=194|8=FIXT.1.1|9=60|35=0|34=263|49=QA3TEST_002|52=20170619-11:10:31.591|56=TRAX|10=191|8=FIXT.1.1|9=60|35=0|34=264|49=QA3TEST_002|52=20170619-11:11:02.593|56=TRAX|10=193|8=FIXT.1.1|9=60|35=0|34=265|49=QA3TEST_002|52=20170619-11:11:32.597|56=TRAX|10=201|8=FIXT.1.1|9=60|35=0|34=266|49=QA3TEST_002|52=20170619-11:12:03.591|56=TRAX|10=195|8=FIXT.1.1|9=60|35=0|34=267|49=QA3TEST_002|52=20170619-11:12:33.595|56=TRAX|10=203|8=FIXT.1.1|9=60|35=0|34=268|49=QA3TEST_002|52=20170619-11:13:03.595|56=TRAX|10=202|8=FIXT.1.1|9=60|35=0|34=269|49=QA3TEST_002|52=20170619-11:13:33.599|56=TRAX|10=210|8=FIXT.1.1|9=60|35=0|34=270|49=QA3TEST_002|52=20170619-11:14:04.596|56=TRAX|10=198|8=FIXT.1.1|9=60|35=0|34=271|49=QA3TEST_002|52=20170619-11:14:34.597|56=TRAX|10=203|8=FIXT.1.1|9=60|35=0|34=272|49=QA3TEST_002|52=20170619-11:15:05.594|56=TRAX|10=200|8=FIXT.1.1|9=60|35=0|34=273|49=QA3TEST_002|52=20170619-11:15:35.603|56=TRAX|10=195|8=FIXT.1.1|9=60|35=0|34=274|49=QA3TEST_002|52=20170619-11:16:06.597|56=TRAX|10=207|8=FIXT.1.1|9=60|35=0|34=275|49=QA3TEST_002|52=20170619-11:16:36.598|56=TRAX|10=212|8=FIXT.1.1|9=60|35=0|34=276|49=QA3TEST_002|52=20170619-11:17:07.601|56=TRAX|10=197|8=FIXT.1.1|9=60|35=0|34=277|49=QA3TEST_002|52=20170619-11:17:37.604|56=TRAX|10=204|8=FIXT.1.1|9=60|35=0|34=278|49=QA3TEST_002|52=20170619-11:18:08.604|56=TRAX|10=204|8=FIXT.1.1|9=60|35=0|34=279|49=QA3TEST_002|52=20170619-11:18:38.604|56=TRAX|10=208|8=FIXT.1.1|9=60|35=0|34=280|49=QA3TEST_002|52=20170619-11:19:09.601|56=TRAX|10=196|8=FIXT.1.1|9=60|35=0|34=281|49=QA3TEST_002|52=20170619-11:19:39.602|56=TRAX|10=201|8=FIXT.1.1|9=60|35=0|34=282|49=QA3TEST_002|52=20170619-11:20:09.602|56=TRAX|10=191|8=FIXT.1.1|9=60|35=0|34=283|49=QA3TEST_002|52=20170619-11:20:40.600|56=TRAX|10=185|8=FIXT.1.1|9=60|35=0|34=284|49=QA3TEST_002|52=20170619-11:21:10.605|56=TRAX|10=189|8=FIXT.1.1|9=60|35=0|34=285|49=QA3TEST_002|52=20170619-11:21:41.609|56=TRAX|10=198|8=FIXT.1.1|9=60|35=0|34=286|49=QA3TEST_002|52=20170619-11:22:12.602|56=TRAX|10=191|8=FIXT.1.1|9=60|35=0|34=287|49=QA3TEST_002|52=20170619-11:22:42.609|56=TRAX|10=202|8=FIXT.1.1|9=60|35=0|34=288|49=QA3TEST_002|52=20170619-11:23:13.610|56=TRAX|10=194|8=FIXT.1.1|9=60|35=0|34=289|49=QA3TEST_002|52=20170619-11:23:44.607|56=TRAX|10=205|8=FIXT.1.1|9=60|35=0|34=290|49=QA3TEST_002|52=20170619-11:24:15.605|56=TRAX|10=194|8=FIXT.1.1|9=60|35=0|34=291|49=QA3TEST_002|52=20170619-11:24:45.605|56=TRAX|10=198|8=FIXT.1.1|9=60|35=0|34=292|49=QA3TEST_002|52=20170619-11:25:15.608|56=TRAX|10=200|8=FIXT.1.1|9=60|35=0|34=293|49=QA3TEST_002|52=20170619-11:25:46.604|56=TRAX|10=201|8=FIXT.1.1|9=60|35=0|34=294|49=QA3TEST_002|52=20170619-11:26:16.607|56=TRAX|10=203|8=FIXT.1.1|9=60|35=0|34=295|49=QA3TEST_002|52=20170619-11:26:46.612|56=TRAX|10=203|8=FIXT.1.1|9=60|35=0|34=296|49=QA3TEST_002|52=20170619-11:27:16.612|56=TRAX|10=202|8=FIXT.1.1|9=60|35=0|34=297|49=QA3TEST_002|52=20170619-11:27:47.608|56=TRAX|10=212|8=FIXT.1.1|9=60|35=0|34=298|49=QA3TEST_002|52=20170619-11:28:17.612|56=TRAX|10=206|8=FIXT.1.1|9=60|35=0|34=299|49=QA3TEST_002|52=20170619-11:28:48.608|56=TRAX|10=216|8=FIXT.1.1|9=60|35=0|34=300|49=QA3TEST_002|52=20170619-11:29:18.612|56=TRAX|10=192|8=FIXT.1.1|9=60|35=0|34=301|49=QA3TEST_002|52=20170619-11:29:48.612|56=TRAX|10=196|8=FIXT.1.1|9=60|35=0|34=302|49=QA3TEST_002|52=20170619-11:30:18.614|56=TRAX|10=188|8=FIXT.1.1|9=60|35=0|34=303|49=QA3TEST_002|52=20170619-11:30:49.605|56=TRAX|10=193|8=FIXT.1.1|9=60|35=0|34=304|49=QA3TEST_002|52=20170619-11:31:19.613|56=TRAX|10=191|8=FIXT.1.1|9=60|35=0|34=305|49=QA3TEST_002|52=20170619-11:31:50.618|56=TRAX|10=192|8=FIXT.1.1|9=60|35=0|34=306|49=QA3TEST_002|52=20170619-11:32:21.618|56=TRAX|10=192|8=FIXT.1.1|9=60|35=0|34=307|49=QA3TEST_002|52=20170619-11:32:51.619|56=TRAX|10=197|8=FIXT.1.1|9=60|35=0|34=308|49=QA3TEST_002|52=20170619-11:33:22.620|56=TRAX|10=189|8=FIXT.1.1|9=60|35=0|34=309|49=QA3TEST_002|52=20170619-11:33:53.615|56=TRAX|10=198|8=FIXT.1.1|9=60|35=0|34=310|49=QA3TEST_002|52=20170619-11:34:23.618|56=TRAX|10=191|8=FIXT.1.1|9=60|35=0|34=311|49=QA3TEST_002|52=20170619-11:34:54.619|56=TRAX|10=197|8=FIXT.1.1|9=60|35=0|34=312|49=QA3TEST_002|52=20170619-11:35:24.621|56=TRAX|10=189|8=FIXT.1.1|9=60|35=0|34=313|49=QA3TEST_002|52=20170619-11:35:55.618|56=TRAX|10=200|8=FIXT.1.1|9=60|35=0|34=314|49=QA3TEST_002|52=20170619-11:36:26.596|56=TRAX|10=205|8=FIXT.1.1|9=60|35=0|34=315|49=QA3TEST_002|52=20170619-11:36:56.620|56=TRAX|10=197|8=FIXT.1.1|9=60|35=0|34=316|49=QA3TEST_002|52=20170619-11:37:26.622|56=TRAX|10=198|8=FIXT.1.1|9=60|35=0|34=317|49=QA3TEST_002|52=20170619-11:37:56.624|56=TRAX|10=204|8=FIXT.1.1|9=60|35=0|34=318|49=QA3TEST_002|52=20170619-11:38:27.429|56=TRAX|10=207|8=FIXT.1.1|9=60|35=0|34=319|49=QA3TEST_002|52=20170619-11:38:57.620|56=TRAX|10=204|8=FIXT.1.1|9=60|35=0|34=320|49=QA3TEST_002|52=20170619-11:39:27.622|56=TRAX|10=196|8=FIXT.1.1|9=60|35=0|34=321|49=QA3TEST_002|52=20170619-11:39:57.622|56=TRAX|10=200|8=FIXT.1.1|9=60|35=0|34=322|49=QA3TEST_002|52=20170619-11:40:27.624|56=TRAX|10=192|8=FIXT.1.1|9=60|35=0|34=323|49=QA3TEST_002|52=20170619-11:40:58.621|56=TRAX|10=194|8=FIXT.1.1|9=60|35=0|34=324|49=QA3TEST_002|52=20170619-11:41:28.623|56=TRAX|10=195|8=FIXT.1.1|9=60|35=0|34=325|49=QA3TEST_002|52=20170619-11:41:59.625|56=TRAX|10=202|8=FIXT.1.1|9=60|35=0|34=326|49=QA3TEST_002|52=20170619-11:42:29.628|56=TRAX|10=204|8=FIXT.1.1|9=60|35=0|34=327|49=QA3TEST_002|52=20170619-11:43:00.624|56=TRAX|10=191|8=FIXT.1.1|9=60|35=0|34=328|49=QA3TEST_002|52=20170619-11:43:30.624|56=TRAX|10=195|8=FIXT.1.1|9=60|35=0|34=329|49=QA3TEST_002|52=20170619-11:44:00.625|56=TRAX|10=195|8=FIXT.1.1|9=60|35=0|34=330|49=QA3TEST_002|52=20170619-11:44:30.625|56=TRAX|10=190|8=FIXT.1.1|9=60|35=0|34=331|49=QA3TEST_002|52=20170619-11:45:00.627|56=TRAX|10=191|8=FIXT.1.1|9=60|35=0|34=332|49=QA3TEST_002|52=20170619-11:45:31.623|56=TRAX|10=192|8=FIXT.1.1|9=60|35=0|34=333|49=QA3TEST_002|52=20170619-11:46:01.628|56=TRAX|10=196|8=FIXT.1.1|9=60|35=0|34=334|49=QA3TEST_002|52=20170619-11:46:32.631|56=TRAX|10=195|8=FIXT.1.1|9=60|35=0|34=335|49=QA3TEST_002|52=20170619-11:47:03.630|56=TRAX|10=194|8=FIXT.1.1|9=60|35=0|34=336|49=QA3TEST_002|52=20170619-11:47:33.633|56=TRAX|10=201|8=FIXT.1.1|9=60|35=0|34=337|49=QA3TEST_002|52=20170619-11:48:04.630|56=TRAX|10=198|8=FIXT.1.1|9=60|35=0|34=338|49=QA3TEST_002|52=20170619-11:48:35.631|56=TRAX|10=204|8=FIXT.1.1|9=60|35=0|34=339|49=QA3TEST_002|52=20170619-11:49:06.635|56=TRAX|10=208|8=FIXT.1.1|9=60|35=0|34=340|49=QA3TEST_002|52=20170619-11:49:37.615|56=TRAX|10=202|8=FIXT.1.1|9=60|35=0|34=341|49=QA3TEST_002|52=20170619-11:50:07.628|56=TRAX|10=196|8=FIXT.1.1|9=60|35=0|34=342|49=QA3TEST_002|52=20170619-11:50:37.636|56=TRAX|10=199|8=FIXT.1.1|9=60|35=0|34=343|49=QA3TEST_002|52=20170619-11:51:08.634|56=TRAX|10=197|8=FIXT.1.1|9=60|35=0|34=344|49=QA3TEST_002|52=20170619-11:51:38.637|56=TRAX|10=204|8=FIXT.1.1|9=60|35=0|34=345|49=QA3TEST_002|52=20170619-11:52:09.628|56=TRAX|10=204|8=FIXT.1.1|9=60|35=0|34=346|49=QA3TEST_002|52=20170619-11:52:39.634|56=TRAX|10=205|8=FIXT.1.1|9=60|35=0|34=347|49=QA3TEST_002|52=20170619-11:53:10.633|56=TRAX|10=195|8=FIXT.1.1|9=60|35=0|34=348|49=QA3TEST_002|52=20170619-11:53:41.631|56=TRAX|10=198|8=FIXT.1.1|9=60|35=0|34=349|49=QA3TEST_002|52=20170619-11:54:11.633|56=TRAX|10=199|8=FIXT.1.1|9=60|35=0|34=350|49=QA3TEST_002|52=20170619-11:54:41.636|56=TRAX|10=197|8=FIXT.1.1|9=60|35=0|34=351|49=QA3TEST_002|52=20170619-11:55:11.639|56=TRAX|10=199|8=FIXT.1.1|9=60|35=0|34=352|49=QA3TEST_002|52=20170619-11:55:42.637|56=TRAX|10=202|8=FIXT.1.1|9=60|35=0|34=353|49=QA3TEST_002|52=20170619-11:56:12.638|56=TRAX|10=202|8=FIXT.1.1|9=60|35=0|34=354|49=QA3TEST_002|52=20170619-11:56:42.641|56=TRAX|10=200|8=FIXT.1.1|9=60|35=0|34=355|49=QA3TEST_002|52=20170619-11:57:13.639|56=TRAX|10=207|8=FIXT.1.1|9=60|35=0|34=356|49=QA3TEST_002|52=20170619-11:57:43.639|56=TRAX|10=211|8=FIXT.1.1|9=60|35=0|34=357|49=QA3TEST_002|52=20170619-11:58:14.636|56=TRAX|10=208|8=FIXT.1.1|9=60|35=0|34=358|49=QA3TEST_002|52=20170619-11:58:44.636|56=TRAX|10=212|8=FIXT.1.1|9=60|35=0|34=359|49=QA3TEST_002|52=20170619-11:59:14.638|56=TRAX|10=213|8=FIXT.1.1|9=60|35=0|34=360|49=QA3TEST_002|52=20170619-11:59:45.645|56=TRAX|10=207|8=FIXT.1.1|9=60|35=0|34=361|49=QA3TEST_002|52=20170619-12:00:16.618|56=TRAX|10=193|8=FIXT.1.1|9=60|35=0|34=362|49=QA3TEST_002|52=20170619-12:00:46.639|56=TRAX|10=200|8=FIXT.1.1|9=60|35=0|34=363|49=QA3TEST_002|52=20170619-12:01:17.638|56=TRAX|10=199|8=FIXT.1.1|9=60|35=0|34=364|49=QA3TEST_002|52=20170619-12:01:47.644|56=TRAX|10=200|8=FIXT.1.1|9=60|35=0|34=365|49=QA3TEST_002|52=20170619-12:02:18.640|56=TRAX|10=196|8=FIXT.1.1|9=60|35=0|34=366|49=QA3TEST_002|52=20170619-12:02:48.643|56=TRAX|10=203|8=FIXT.1.1|9=60|35=0|34=367|49=QA3TEST_002|52=20170619-12:03:19.647|56=TRAX|10=207|8=FIXT.1.1|9=60|35=0|34=368|49=QA3TEST_002|52=20170619-12:03:50.644|56=TRAX|10=200|8=FIXT.1.1|9=60|35=0|34=369|49=QA3TEST_002|52=20170619-12:04:20.645|56=TRAX|10=200|8=FIXT.1.1|9=60|35=0|34=370|49=QA3TEST_002|52=20170619-12:04:51.642|56=TRAX|10=193|8=FIXT.1.1|9=60|35=0|34=371|49=QA3TEST_002|52=20170619-12:05:21.643|56=TRAX|10=193|8=FIXT.1.1|9=60|35=0|34=372|49=QA3TEST_002|52=20170619-12:05:51.646|56=TRAX|10=200|8=FIXT.1.1|9=60|35=0|34=373|49=QA3TEST_002|52=20170619-12:06:21.649|56=TRAX|10=202|8=FIXT.1.1|9=60|35=0|34=374|49=QA3TEST_002|52=20170619-12:06:52.650|56=TRAX|10=199|8=FIXT.1.1|9=60|35=0|34=375|49=QA3TEST_002|52=20170619-12:07:23.644|56=TRAX|10=202|8=FIXT.1.1|9=60|35=0|34=376|49=QA3TEST_002|52=20170619-12:07:53.652|56=TRAX|10=205|8=FIXT.1.1|9=60|35=0|34=377|49=QA3TEST_002|52=20170619-12:08:23.653|56=TRAX|10=205|8=FIXT.1.1|9=60|35=0|34=378|49=QA3TEST_002|52=20170619-12:08:54.645|56=TRAX|10=211|8=FIXT.1.1|9=60|35=0|34=379|49=QA3TEST_002|52=20170619-12:09:24.648|56=TRAX|10=213|8=FIXT.1.1|9=60|35=0|34=380|49=QA3TEST_002|52=20170619-12:09:54.651|56=TRAX|10=202|8=FIXT.1.1|9=60|35=0|34=381|49=QA3TEST_002|52=20170619-12:10:25.655|56=TRAX|10=197|8=FIXT.1.1|9=60|35=0|34=382|49=QA3TEST_002|52=20170619-12:10:56.650|56=TRAX|10=197|8=FIXT.1.1|9=60|35=0|34=383|49=QA3TEST_002|52=20170619-12:11:26.655|56=TRAX|10=201|8=FIXT.1.1|9=60|35=0|34=384|49=QA3TEST_002|52=20170619-12:11:57.446|56=TRAX|10=204|8=FIXT.1.1|9=60|35=0|34=385|49=QA3TEST_002|52=20170619-12:12:27.654|56=TRAX|10=204|8=FIXT.1.1|9=60|35=0|34=386|49=QA3TEST_002|52=20170619-12:12:57.655|56=TRAX|10=209|8=FIXT.1.1|9=60|35=0|34=387|49=QA3TEST_002|52=20170619-12:13:28.650|56=TRAX|10=204|8=FIXT.1.1|9=60|35=0|34=388|49=QA3TEST_002|52=20170619-12:13:58.657|56=TRAX|10=215|8=FIXT.1.1|9=60|35=0|34=389|49=QA3TEST_002|52=20170619-12:14:29.653|56=TRAX|10=211|8=FIXT.1.1|9=60|35=0|34=390|49=QA3TEST_002|52=20170619-12:15:00.657|56=TRAX|10=197|8=FIXT.1.1|9=60|35=0|34=391|49=QA3TEST_002|52=20170619-12:15:30.659|56=TRAX|10=203|8=FIXT.1.1|9=60|35=0|34=392|49=QA3TEST_002|52=20170619-12:16:01.653|56=TRAX|10=197|8=FIXT.1.1|9=60|35=0|34=393|49=QA3TEST_002|52=20170619-12:16:32.659|56=TRAX|10=208|8=FIXT.1.1|9=60|35=0|34=394|49=QA3TEST_002|52=20170619-12:17:03.658|56=TRAX|10=207|8=FIXT.1.1|9=60|35=0|34=395|49=QA3TEST_002|52=20170619-12:17:34.655|56=TRAX|10=209|8=FIXT.1.1|9=60|35=0|34=396|49=QA3TEST_002|52=20170619-12:18:05.662|56=TRAX|10=207|8=FIXT.1.1|9=60|35=0|34=397|49=QA3TEST_002|52=20170619-12:18:36.656|56=TRAX|10=215|8=FIXT.1.1|9=60|35=0|34=398|49=QA3TEST_002|52=20170619-12:19:06.661|56=TRAX|10=210|8=FIXT.1.1|9=60|35=0|34=399|49=QA3TEST_002|52=20170619-12:19:37.659|56=TRAX|10=222|8=FIXT.1.1|9=60|35=0|34=400|49=QA3TEST_002|52=20170619-12:20:08.657|56=TRAX|10=193|8=FIXT.1.1|9=60|35=0|34=401|49=QA3TEST_002|52=20170619-12:20:39.663|56=TRAX|10=195|8=FIXT.1.1|9=60|35=0|34=402|49=QA3TEST_002|52=20170619-12:21:10.658|56=TRAX|10=190|8=FIXT.1.1|9=60|35=0|34=403|49=QA3TEST_002|52=20170619-12:21:40.662|56=TRAX|10=189|8=FIXT.1.1|9=60|35=0|34=404|49=QA3TEST_002|52=20170619-12:22:10.664|56=TRAX|10=190|8=FIXT.1.1|9=60|35=0|34=405|49=QA3TEST_002|52=20170619-12:22:41.666|56=TRAX|10=197|8=FIXT.1.1|9=60|35=0|34=406|49=QA3TEST_002|52=20170619-12:23:12.664|56=TRAX|10=195|8=FIXT.1.1|9=60|35=0|34=407|49=QA3TEST_002|52=20170619-12:23:42.666|56=TRAX|10=201|8=FIXT.1.1|9=60|35=0|34=408|49=QA3TEST_002|52=20170619-12:24:13.665|56=TRAX|10=200|8=FIXT.1.1|9=60|35=0|34=409|49=QA3TEST_002|52=20170619-12:24:44.661|56=TRAX|10=201|8=FIXT.1.1|9=60|35=0|34=410|49=QA3TEST_002|52=20170619-12:25:14.667|56=TRAX|10=197|8=FIXT.1.1|9=60|35=0|34=411|49=QA3TEST_002|52=20170619-12:25:45.663|56=TRAX|10=198|8=FIXT.1.1|9=60|35=0|34=412|49=QA3TEST_002|52=20170619-12:26:16.663|56=TRAX|10=198|8=FIXT.1.1|9=60|35=0|34=413|49=QA3TEST_002|52=20170619-12:26:46.666|56=TRAX|10=205|8=FIXT.1.1|9=60|35=0|34=414|49=QA3TEST_002|52=20170619-12:27:17.670|56=TRAX|10=200|8=FIXT.1.1|9=60|35=0|34=415|49=QA3TEST_002|52=20170619-12:27:48.670|56=TRAX|10=205|8=FIXT.1.1|9=60|35=0|34=416|49=QA3TEST_002|52=20170619-12:28:19.665|56=TRAX|10=209|8=FIXT.1.1|9=60|35=0|34=417|49=QA3TEST_002|52=20170619-12:28:49.670|56=TRAX|10=209|8=FIXT.1.1|9=60|35=0|34=418|49=QA3TEST_002|52=20170619-12:29:20.666|56=TRAX|10=205|8=FIXT.1.1|9=60|35=0|34=419|49=QA3TEST_002|52=20170619-12:29:50.668|56=TRAX|10=211|8=FIXT.1.1|9=60|35=0|34=420|49=QA3TEST_002|52=20170619-12:30:20.673|56=TRAX|10=188|8=FIXT.1.1|9=60|35=0|34=421|49=QA3TEST_002|52=20170619-12:30:51.672|56=TRAX|10=192|8=FIXT.1.1|9=60|35=0|34=422|49=QA3TEST_002|52=20170619-12:31:21.672|56=TRAX|10=191|8=FIXT.1.1|9=60|35=0|34=423|49=QA3TEST_002|52=20170619-12:31:51.672|56=TRAX|10=195|8=FIXT.1.1|9=60|35=0|34=424|49=QA3TEST_002|52=20170619-12:32:21.673|56=TRAX|10=195|8=FIXT.1.1|9=60|35=0|34=425|49=QA3TEST_002|52=20170619-12:32:52.670|56=TRAX|10=197|8=FIXT.1.1|9=60|35=0|34=426|49=QA3TEST_002|52=20170619-12:33:22.674|56=TRAX|10=200|8=FIXT.1.1|9=60|35=0|34=427|49=QA3TEST_002|52=20170619-12:33:52.674|56=TRAX|10=204|8=FIXT.1.1|9=60|35=0|34=428|49=QA3TEST_002|52=20170619-12:34:22.675|56=TRAX|10=204|8=FIXT.1.1|9=60|35=0|34=429|49=QA3TEST_002|52=20170619-12:34:52.676|56=TRAX|10=209|8=FIXT.1.1|9=60|35=0|34=430|49=QA3TEST_002|52=20170619-12:35:23.674|56=TRAX|10=198|8=FIXT.1.1|9=60|35=0|34=431|49=QA3TEST_002|52=20170619-12:35:54.671|56=TRAX|10=200|8=FIXT.1.1|9=60|35=0|34=432|49=QA3TEST_002|52=20170619-12:36:25.650|56=TRAX|10=197|8=FIXT.1.1|9=60|35=0|34=433|49=QA3TEST_002|52=20170619-12:36:55.657|56=TRAX|10=208|8=FIXT.1.1|9=60|35=0|34=434|49=QA3TEST_002|52=20170619-12:37:25.670|56=TRAX|10=202|8=FIXT.1.1|9=60|35=0|34=435|49=QA3TEST_002|52=20170619-12:37:56.648|56=TRAX|10=212|8=FIXT.1.1|9=60|35=0|34=436|49=QA3TEST_002|52=20170619-12:38:26.669|56=TRAX|10=214|8=FIXT.1.1|9=60|35=0|34=437|49=QA3TEST_002|52=20170619-12:38:57.431|56=TRAX|10=206|8=FIXT.1.1|9=60|35=0|34=438|49=QA3TEST_002|52=20170619-12:39:27.432|56=TRAX|10=206|8=FIXT.1.1|9=60|35=0|34=439|49=QA3TEST_002|52=20170619-12:39:57.449|56=TRAX|10=218|8=FIXT.1.1|9=60|35=0|34=440|49=QA3TEST_002|52=20170619-12:40:27.453|56=TRAX|10=194|8=FIXT.1.1|9=60|35=0|34=441|49=QA3TEST_002|52=20170619-12:40:57.484|56=TRAX|10=202|8=FIXT.1.1|9=60|35=0|34=442|49=QA3TEST_002|52=20170619-12:41:27.669|56=TRAX|10=206|8=FIXT.1.1|9=60|35=0|34=443|49=QA3TEST_002|52=20170619-12:41:57.673|56=TRAX|10=205|8=FIXT.1.1|9=60|35=0|34=444|49=QA3TEST_002|52=20170619-12:42:27.676|56=TRAX|10=207|8=FIXT.1.1|9=60|35=0|34=445|49=QA3TEST_002|52=20170619-12:42:58.674|56=TRAX|10=210|8=FIXT.1.1|9=60|35=0|34=446|49=QA3TEST_002|52=20170619-12:43:29.676|56=TRAX|10=212|8=FIXT.1.1|9=60|35=0|34=447|49=QA3TEST_002|52=20170619-12:44:00.672|56=TRAX|10=199|8=FIXT.1.1|9=60|35=0|34=448|49=QA3TEST_002|52=20170619-12:44:31.650|56=TRAX|10=200|8=FIXT.1.1|9=60|35=0|34=449|49=QA3TEST_002|52=20170619-12:45:01.670|56=TRAX|10=201|8=FIXT.1.1|9=60|35=0|34=450|49=QA3TEST_002|52=20170619-12:45:31.670|56=TRAX|10=196|8=FIXT.1.1|9=60|35=0|34=451|49=QA3TEST_002|52=20170619-12:46:02.650|56=TRAX|10=194|8=FIXT.1.1|9=60|35=0|34=452|49=QA3TEST_002|52=20170619-12:46:32.650|56=TRAX|10=198|8=FIXT.1.1|9=60|35=0|34=453|49=QA3TEST_002|52=20170619-12:47:02.674|56=TRAX|10=203|8=FIXT.1.1|9=60|35=0|34=454|49=QA3TEST_002|52=20170619-12:47:33.650|56=TRAX|10=202|8=FIXT.1.1|9=60|35=0|34=455|49=QA3TEST_002|52=20170619-12:48:03.676|56=TRAX|10=209|8=FIXT.1.1|9=60|35=0|34=456|49=QA3TEST_002|52=20170619-12:48:34.669|56=TRAX|10=216|8=FIXT.1.1|9=60|35=0|34=457|49=QA3TEST_002|52=20170619-12:49:05.649|56=TRAX|10=214|8=FIXT.1.1|9=60|35=0|34=458|49=QA3TEST_002|52=20170619-12:49:35.674|56=TRAX|10=216|8=FIXT.1.1|9=60|35=0|34=459|49=QA3TEST_002|52=20170619-12:50:06.671|56=TRAX|10=204|8=FIXT.1.1|9=60|35=0|34=460|49=QA3TEST_002|52=20170619-12:50:37.649|56=TRAX|10=205|8=FIXT.1.1|9=60|35=0|34=461|49=QA3TEST_002|52=20170619-12:51:07.649|56=TRAX|10=204|8=FIXT.1.1|9=60|35=0|34=462|49=QA3TEST_002|52=20170619-12:51:37.674|56=TRAX|10=206|8=FIXT.1.1|9=60|35=0|34=463|49=QA3TEST_002|52=20170619-12:52:08.648|56=TRAX|10=207|8=FIXT.1.1|9=60|35=0|34=464|49=QA3TEST_002|52=20170619-12:52:38.675|56=TRAX|10=211|8=FIXT.1.1|9=60|35=0|34=465|49=QA3TEST_002|52=20170619-12:53:09.668|56=TRAX|10=213|8=FIXT.1.1|9=60|35=0|34=466|49=QA3TEST_002|52=20170619-12:53:40.649|56=TRAX|10=208|8=FIXT.1.1|9=60|35=0|34=467|49=QA3TEST_002|52=20170619-12:54:10.674|56=TRAX|10=205|8=FIXT.1.1|9=60|35=0|34=468|49=QA3TEST_002|52=20170619-12:54:41.673|56=TRAX|10=209|8=FIXT.1.1|9=60|35=0|34=469|49=QA3TEST_002|52=20170619-12:55:12.648|56=TRAX|10=211|8=FIXT.1.1|9=60|35=0|34=470|49=QA3TEST_002|52=20170619-12:55:42.667|56=TRAX|10=207|8=FIXT.1.1|9=60|35=0|34=471|49=QA3TEST_002|52=20170619-12:56:13.647|56=TRAX|10=205|8=FIXT.1.1|9=60|35=0|34=472|49=QA3TEST_002|52=20170619-12:56:43.666|56=TRAX|10=210|8=FIXT.1.1|9=60|35=0|34=473|49=QA3TEST_002|52=20170619-12:57:14.667|56=TRAX|10=211|8=FIXT.1.1|9=60|35=0|34=474|49=QA3TEST_002|52=20170619-12:57:45.672|56=TRAX|10=212|8=FIXT.1.1|9=60|35=0|34=475|49=QA3TEST_002|52=20170619-12:58:16.647|56=TRAX|10=214|8=FIXT.1.1|9=60|35=0|34=476|49=QA3TEST_002|52=20170619-12:58:46.665|56=TRAX|10=218|8=FIXT.1.1|9=60|35=0|34=477|49=QA3TEST_002|52=20170619-12:59:17.671|56=TRAX|10=215|8=FIXT.1.1|9=60|35=0|34=478|49=QA3TEST_002|52=20170619-12:59:48.647|56=TRAX|10=223|8=FIXT.1.1|9=60|35=0|34=479|49=QA3TEST_002|52=20170619-13:00:18.647|56=TRAX|10=208|8=FIXT.1.1|9=60|35=0|34=480|49=QA3TEST_002|52=20170619-13:00:49.646|56=TRAX|10=203|8=FIXT.1.1|9=60|35=0|34=481|49=QA3TEST_002|52=20170619-13:01:19.667|56=TRAX|10=205|8=FIXT.1.1|9=60|35=0|34=482|49=QA3TEST_002|52=20170619-13:01:49.668|56=TRAX|10=210|8=FIXT.1.1|9=60|35=0|34=483|49=QA3TEST_002|52=20170619-13:02:20.646|56=TRAX|10=197|8=FIXT.1.1|9=60|35=0|34=484|49=QA3TEST_002|52=20170619-13:02:50.673|56=TRAX|10=201|8=FIXT.1.1|9=60|35=0|34=485|49=QA3TEST_002|52=20170619-13:03:21.669|56=TRAX|10=206|8=FIXT.1.1|9=60|35=0|34=486|49=QA3TEST_002|52=20170619-13:03:52.646|56=TRAX|10=206|8=FIXT.1.1|9=60|35=0|34=487|49=QA3TEST_002|52=20170619-13:04:22.668|56=TRAX|10=209|8=FIXT.1.1|9=60|35=0|34=488|49=QA3TEST_002|52=20170619-13:04:53.670|56=TRAX|10=207|8=FIXT.1.1|9=60|35=0|34=489|49=QA3TEST_002|52=20170619-13:05:24.646|56=TRAX|10=210|8=FIXT.1.1|9=60|35=0|34=490|49=QA3TEST_002|52=20170619-13:05:54.655|56=TRAX|10=205|8=FIXT.1.1|9=60|35=0|34=491|49=QA3TEST_002|52=20170619-13:06:25.668|56=TRAX|10=209|8=FIXT.1.1|9=60|35=0|34=492|49=QA3TEST_002|52=20170619-13:06:56.645|56=TRAX|10=209|8=FIXT.1.1|9=60|35=0|34=493|49=QA3TEST_002|52=20170619-13:07:26.671|56=TRAX|10=207|8=FIXT.1.1|9=60|35=0|34=494|49=QA3TEST_002|52=20170619-13:07:57.436|56=TRAX|10=211|8=FIXT.1.1|9=60|35=0|34=495|49=QA3TEST_002|52=20170619-13:08:27.645|56=TRAX|10=212|8=FIXT.1.1|9=60|35=0|34=496|49=QA3TEST_002|52=20170619-13:08:57.671|56=TRAX|10=215|8=FIXT.1.1|9=60|35=0|34=497|49=QA3TEST_002|52=20170619-13:09:28.644|56=TRAX|10=215|8=FIXT.1.1|9=60|35=0|34=498|49=QA3TEST_002|52=20170619-13:09:58.667|56=TRAX|10=224|8=FIXT.1.1|9=60|35=0|34=499|49=QA3TEST_002|52=20170619-13:10:29.667|56=TRAX|10=215|8=FIXT.1.1|9=60|35=0|34=500|49=QA3TEST_002|52=20170619-13:11:00.641|56=TRAX|10=180|8=FIXT.1.1|9=60|35=0|34=501|49=QA3TEST_002|52=20170619-13:11:30.664|56=TRAX|10=189|8=FIXT.1.1|9=60|35=0|34=502|49=QA3TEST_002|52=20170619-13:12:01.639|56=TRAX|10=191|8=FIXT.1.1|9=60|35=0|34=503|49=QA3TEST_002|52=20170619-13:12:32.664|56=TRAX|10=194|8=FIXT.1.1|9=60|35=0|34=504|49=QA3TEST_002|52=20170619-13:13:03.658|56=TRAX|10=197|8=FIXT.1.1|9=60|35=0|34=505|49=QA3TEST_002|52=20170619-13:13:34.663|56=TRAX|10=198|8=FIXT.1.1|9=60|35=0|34=506|49=QA3TEST_002|52=20170619-13:14:05.636|56=TRAX|10=198|8=FIXT.1.1|9=60|35=0|34=507|49=QA3TEST_002|52=20170619-13:14:35.662|56=TRAX|10=201|8=FIXT.1.1|9=60|35=0|34=508|49=QA3TEST_002|52=20170619-13:15:06.661|56=TRAX|10=200|8=FIXT.1.1|9=60|35=0|34=509|49=QA3TEST_002|52=20170619-13:15:37.635|56=TRAX|10=206|8=FIXT.1.1|9=60|35=0|34=510|49=QA3TEST_002|52=20170619-13:16:07.654|56=TRAX|10=197|8=FIXT.1.1|9=60|35=0|34=511|49=QA3TEST_002|52=20170619-13:16:38.657|56=TRAX|10=205|8=FIXT.1.1|9=60|35=0|34=512|49=QA3TEST_002|52=20170619-13:17:08.661|56=TRAX|10=199|8=FIXT.1.1|9=60|35=0|34=513|49=QA3TEST_002|52=20170619-13:17:38.661|56=TRAX|10=203|8=FIXT.1.1|9=60|35=0|34=514|49=QA3TEST_002|52=20170619-13:18:09.634|56=TRAX|10=203|8=FIXT.1.1|9=60|35=0|34=515|49=QA3TEST_002|52=20170619-13:18:39.656|56=TRAX|10=211|8=FIXT.1.1|9=60|35=0|34=516|49=QA3TEST_002|52=20170619-13:19:09.657|56=TRAX|10=211|8=FIXT.1.1|9=60|35=0|34=517|49=QA3TEST_002|52=20170619-13:19:40.633|56=TRAX|10=201|8=FIXT.1.1|9=60|35=0|34=518|49=QA3TEST_002|52=20170619-13:20:11.659|56=TRAX|10=200|8=FIXT.1.1|9=60|35=0|34=519|49=QA3TEST_002|52=20170619-13:20:42.655|56=TRAX|10=201|8=FIXT.1.1|9=60|35=0|34=520|49=QA3TEST_002|52=20170619-13:21:13.632|56=TRAX|10=187|8=FIXT.1.1|9=60|35=0|34=521|49=QA3TEST_002|52=20170619-13:21:43.650|56=TRAX|10=191|8=FIXT.1.1|9=60|35=0|34=522|49=QA3TEST_002|52=20170619-13:22:14.650|56=TRAX|10=191|8=FIXT.1.1|9=60|35=0|34=523|49=QA3TEST_002|52=20170619-13:22:45.631|56=TRAX|10=195|8=FIXT.1.1|9=60|35=0|34=524|49=QA3TEST_002|52=20170619-13:23:15.654|56=TRAX|10=199|8=FIXT.1.1|9=60|35=0|34=525|49=QA3TEST_002|52=20170619-13:23:46.630|56=TRAX|10=198|8=FIXT.1.1|9=60|35=0|34=526|49=QA3TEST_002|52=20170619-13:24:16.657|56=TRAX|10=206|8=FIXT.1.1|9=60|35=0|34=527|49=QA3TEST_002|52=20170619-13:24:47.631|56=TRAX|10=203|8=FIXT.1.1|9=60|35=0|34=528|49=QA3TEST_002|52=20170619-13:25:17.632|56=TRAX|10=203|8=FIXT.1.1|9=60|35=0|34=529|49=QA3TEST_002|52=20170619-13:25:47.654|56=TRAX|10=211|8=FIXT.1.1|9=60|35=0|34=530|49=QA3TEST_002|52=20170619-13:26:18.651|56=TRAX|10=199|8=FIXT.1.1|9=60|35=0|34=531|49=QA3TEST_002|52=20170619-13:26:49.630|56=TRAX|10=201|8=FIXT.1.1|9=60|35=0|34=532|49=QA3TEST_002|52=20170619-13:27:19.653|56=TRAX|10=205|8=FIXT.1.1|9=60|35=0|34=533|49=QA3TEST_002|52=20170619-13:27:50.652|56=TRAX|10=200|8=FIXT.1.1|9=60|35=0|34=534|49=QA3TEST_002|52=20170619-13:28:21.629|56=TRAX|10=204|8=FIXT.1.1|9=60|35=0|34=535|49=QA3TEST_002|52=20170619-13:28:51.657|56=TRAX|10=209|8=FIXT.1.1|9=60|35=0|34=536|49=QA3TEST_002|52=20170619-13:29:22.630|56=TRAX|10=200|8=FIXT.1.1|9=60|35=0|34=537|49=QA3TEST_002|52=20170619-13:29:52.655|56=TRAX|10=211|8=FIXT.1.1|9=60|35=0|34=538|49=QA3TEST_002|52=20170619-13:30:23.650|56=TRAX|10=197|8=FIXT.1.1|9=60|35=0|34=539|49=QA3TEST_002|52=20170619-13:30:54.629|56=TRAX|10=208|8=FIXT.1.1|9=60|35=0|34=540|49=QA3TEST_002|52=20170619-13:31:24.664|56=TRAX|10=197|8=FIXT.1.1|9=60|35=0|34=541|49=QA3TEST_002|52=20170619-13:31:55.649|56=TRAX|10=205|8=FIXT.1.1|9=60|35=0|34=542|49=QA3TEST_002|52=20170619-13:32:26.629|56=TRAX|10=203|8=FIXT.1.1|9=60|35=0|34=543|49=QA3TEST_002|52=20170619-13:32:56.655|56=TRAX|10=206|8=FIXT.1.1|9=60|35=0|34=544|49=QA3TEST_002|52=20170619-13:33:27.396|56=TRAX|10=208|8=FIXT.1.1|9=60|35=0|34=545|49=QA3TEST_002|52=20170619-13:33:57.653|56=TRAX|10=208|8=FIXT.1.1|9=60|35=0|34=546|49=QA3TEST_002|52=20170619-13:34:27.654|56=TRAX|10=208|8=FIXT.1.1|9=60|35=0|34=547|49=QA3TEST_002|52=20170619-13:34:58.628|56=TRAX|10=214|8=FIXT.1.1|9=60|35=0|34=548|49=QA3TEST_002|52=20170619-13:35:28.649|56=TRAX|10=216|8=FIXT.1.1|9=60|35=0|34=549|49=QA3TEST_002|52=20170619-13:35:58.649|56=TRAX|10=220|8=FIXT.1.1|9=60|35=0|34=550|49=QA3TEST_002|52=20170619-13:36:29.628|56=TRAX|10=208|8=FIXT.1.1|9=60|35=0|34=551|49=QA3TEST_002|52=20170619-13:36:59.640|56=TRAX|10=206|8=FIXT.1.1|9=60|35=0|34=552|49=QA3TEST_002|52=20170619-13:37:30.628|56=TRAX|10=203|8=FIXT.1.1|9=60|35=0|34=553|49=QA3TEST_002|52=20170619-13:38:00.654|56=TRAX|10=201|8=FIXT.1.1|9=60|35=0|34=554|49=QA3TEST_002|52=20170619-13:38:30.654|56=TRAX|10=205|8=FIXT.1.1|9=60|35=0|34=555|49=QA3TEST_002|52=20170619-13:39:01.627|56=TRAX|10=205|8=FIXT.1.1|9=60|35=0|34=556|49=QA3TEST_002|52=20170619-13:39:31.646|56=TRAX|10=210|8=FIXT.1.1|9=60|35=0|34=557|49=QA3TEST_002|52=20170619-13:40:02.642|56=TRAX|10=197|8=FIXT.1.1|9=60|35=0|34=558|49=QA3TEST_002|52=20170619-13:40:33.627|56=TRAX|10=205|8=FIXT.1.1|9=60|35=0|34=559|49=QA3TEST_002|52=20170619-13:41:03.646|56=TRAX|10=205|8=FIXT.1.1|9=60|35=0|34=560|49=QA3TEST_002|52=20170619-13:41:33.646|56=TRAX|10=200|8=FIXT.1.1|9=60|35=0|34=561|49=QA3TEST_002|52=20170619-13:42:03.650|56=TRAX|10=194|8=FIXT.1.1|9=60|35=0|34=562|49=QA3TEST_002|52=20170619-13:42:33.651|56=TRAX|10=199|8=FIXT.1.1|9=60|35=0|34=563|49=QA3TEST_002|52=20170619-13:43:04.626|56=TRAX|10=201|8=FIXT.1.1|9=60|35=0|34=564|49=QA3TEST_002|52=20170619-13:43:34.652|56=TRAX|10=204|8=FIXT.1.1|9=60|35=0|34=565|49=QA3TEST_002|52=20170619-13:44:05.627|56=TRAX|10=206|8=FIXT.1.1|9=60|35=0|34=566|49=QA3TEST_002|52=20170619-13:44:36.626|56=TRAX|10=210|8=FIXT.1.1|9=60|35=0|34=567|49=QA3TEST_002|52=20170619-13:45:06.626|56=TRAX|10=209|8=FIXT.1.1|9=60|35=0|34=568|49=QA3TEST_002|52=20170619-13:45:36.650|56=TRAX|10=210|8=FIXT.1.1|9=60|35=0|34=569|49=QA3TEST_002|52=20170619-13:46:07.625|56=TRAX|10=212|8=FIXT.1.1|9=60|35=0|34=570|49=QA3TEST_002|52=20170619-13:46:37.643|56=TRAX|10=207|8=FIXT.1.1|9=60|35=0|34=571|49=QA3TEST_002|52=20170619-13:47:08.624|56=TRAX|10=206|8=FIXT.1.1|9=60|35=0|34=572|49=QA3TEST_002|52=20170619-13:47:38.647|56=TRAX|10=215|8=FIXT.1.1|9=60|35=0|34=573|49=QA3TEST_002|52=20170619-13:48:09.624|56=TRAX|10=210|8=FIXT.1.1|9=60|35=0|34=574|49=QA3TEST_002|52=20170619-13:48:39.625|56=TRAX|10=215|8=FIXT.1.1|9=60|35=0|34=575|49=QA3TEST_002|52=20170619-13:49:09.647|56=TRAX|10=218|8=FIXT.1.1|9=60|35=0|34=576|49=QA3TEST_002|52=20170619-13:49:40.650|56=TRAX|10=208|8=FIXT.1.1|9=60|35=0|34=577|49=QA3TEST_002|52=20170619-13:50:11.623|56=TRAX|10=199|8=FIXT.1.1|9=60|35=0|34=578|49=QA3TEST_002|52=20170619-13:50:41.641|56=TRAX|10=203|8=FIXT.1.1|9=60|35=0|34=579|49=QA3TEST_002|52=20170619-13:51:12.622|56=TRAX|10=202|8=FIXT.1.1|9=60|35=0|34=580|49=QA3TEST_002|52=20170619-13:51:42.630|56=TRAX|10=196|8=FIXT.1.1|9=60|35=0|34=581|49=QA3TEST_002|52=20170619-13:52:12.643|56=TRAX|10=199|8=FIXT.1.1|9=60|35=0|34=582|49=QA3TEST_002|52=20170619-13:52:43.623|56=TRAX|10=202|8=FIXT.1.1|9=60|35=0|34=583|49=QA3TEST_002|52=20170619-13:53:13.640|56=TRAX|10=200|8=FIXT.1.1|9=60|35=0|34=584|49=QA3TEST_002|52=20170619-13:53:44.644|56=TRAX|10=209|8=FIXT.1.1|9=60|35=0|34=585|49=QA3TEST_002|52=20170619-13:54:14.647|56=TRAX|10=211|8=FIXT.1.1|9=60|35=0|34=586|49=QA3TEST_002|52=20170619-13:54:45.638|56=TRAX|10=216|8=FIXT.1.1|9=60|35=0|34=587|49=QA3TEST_002|52=20170619-13:55:16.648|56=TRAX|10=217|8=FIXT.1.1|9=60|35=0|34=588|49=QA3TEST_002|52=20170619-13:55:47.622|56=TRAX|10=214|8=FIXT.1.1|9=60|35=0|34=589|49=QA3TEST_002|52=20170619-13:56:17.639|56=TRAX|10=221|8=FIXT.1.1|9=60|35=0|34=590|49=QA3TEST_002|52=20170619-13:56:48.621|56=TRAX|10=208|8=FIXT.1.1|9=60|35=0|34=591|49=QA3TEST_002|52=20170619-13:57:18.639|56=TRAX|10=216|8=FIXT.1.1|9=60|35=0|34=592|49=QA3TEST_002|52=20170619-13:57:48.639|56=TRAX|10=220|8=FIXT.1.1|9=60|35=0|34=593|49=QA3TEST_002|52=20170619-13:58:19.621|56=TRAX|10=211|8=FIXT.1.1|9=60|35=0|34=594|49=QA3TEST_002|52=20170619-13:58:49.645|56=TRAX|10=221|8=FIXT.1.1|9=60|35=0|34=595|49=QA3TEST_002|52=20170619-13:59:20.645|56=TRAX|10=212|8=FIXT.1.1|9=60|35=0|34=596|49=QA3TEST_002|52=20170619-13:59:50.646|56=TRAX|10=217|8=FIXT.1.1|9=60|35=0|34=597|49=QA3TEST_002|52=20170619-14:00:20.647|56=TRAX|10=203|8=FIXT.1.1|9=60|35=0|34=598|49=QA3TEST_002|52=20170619-14:00:51.621|56=TRAX|10=200|8=FIXT.1.1|9=60|35=0|34=599|49=QA3TEST_002|52=20170619-14:01:21.632|56=TRAX|10=201|8=FIXT.1.1|9=60|35=0|34=600|49=QA3TEST_002|52=20170619-14:01:52.627|56=TRAX|10=192|8=FIXT.1.1|9=60|35=0|34=601|49=QA3TEST_002|52=20170619-14:02:23.620|56=TRAX|10=185|8=FIXT.1.1|9=60|35=0|34=602|49=QA3TEST_002|52=20170619-14:02:53.642|56=TRAX|10=193|8=FIXT.1.1|9=60|35=0|34=603|49=QA3TEST_002|52=20170619-14:03:24.640|56=TRAX|10=191|8=FIXT.1.1|9=60|35=0|34=604|49=QA3TEST_002|52=20170619-14:03:55.620|56=TRAX|10=194|8=FIXT.1.1|9=60|35=0|34=605|49=QA3TEST_002|52=20170619-14:04:25.620|56=TRAX|10=193|8=FIXT.1.1|9=60|35=0|34=606|49=QA3TEST_002|52=20170619-14:04:56.620|56=TRAX|10=198|8=FIXT.1.1|9=60|35=0|34=607|49=QA3TEST_002|52=20170619-14:05:26.646|56=TRAX|10=205|8=FIXT.1.1|9=60|35=0|34=608|49=QA3TEST_002|52=20170619-14:05:57.370|56=TRAX|10=204|8=FIXT.1.1|9=60|35=0|34=609|49=QA3TEST_002|52=20170619-14:06:27.619|56=TRAX|10=209|8=FIXT.1.1|9=60|35=0|34=610|49=QA3TEST_002|52=20170619-14:06:57.637|56=TRAX|10=204|8=FIXT.1.1|9=60|35=0|34=611|49=QA3TEST_002|52=20170619-14:07:28.646|56=TRAX|10=204|8=FIXT.1.1|9=60|35=0|34=612|49=QA3TEST_002|52=20170619-14:07:59.618|56=TRAX|10=208|8=FIXT.1.1|9=60|35=0|34=613|49=QA3TEST_002|52=20170619-14:08:29.638|56=TRAX|10=209|8=FIXT.1.1|9=60|35=0|34=614|49=QA3TEST_002|52=20170619-14:09:00.637|56=TRAX|10=199|8=FIXT.1.1|9=60|35=0|34=615|49=QA3TEST_002|52=20170619-14:09:30.639|56=TRAX|10=205|8=FIXT.1.1|9=60|35=0|34=616|49=QA3TEST_002|52=20170619-14:10:01.641|56=TRAX|10=189|8=FIXT.1.1|9=60|35=0|34=617|49=QA3TEST_002|52=20170619-14:10:32.618|56=TRAX|10=198|8=FIXT.1.1|9=60|35=0|34=618|49=QA3TEST_002|52=20170619-14:11:02.631|56=TRAX|10=192|8=FIXT.1.1|9=60|35=0|34=619|49=QA3TEST_002|52=20170619-14:11:32.642|56=TRAX|10=198|8=FIXT.1.1|9=60|35=0|34=620|49=QA3TEST_002|52=20170619-14:12:03.618|56=TRAX|10=192|8=FIXT.1.1|9=60|35=0|34=621|49=QA3TEST_002|52=20170619-14:12:33.637|56=TRAX|10=197|8=FIXT.1.1|9=60|35=0|34=622|49=QA3TEST_002|52=20170619-14:13:04.636|56=TRAX|10=196|8=FIXT.1.1|9=60|35=0|34=623|49=QA3TEST_002|52=20170619-14:13:34.642|56=TRAX|10=197|8=FIXT.1.1|9=60|35=0|34=624|49=QA3TEST_002|52=20170619-14:14:04.644|56=TRAX|10=198|8=FIXT.1.1|9=60|35=0|34=625|49=QA3TEST_002|52=20170619-14:14:35.617|56=TRAX|10=203|8=FIXT.1.1|9=60|35=0|34=626|49=QA3TEST_002|52=20170619-14:15:05.634|56=TRAX|10=201|8=FIXT.1.1|9=60|35=0|34=627|49=QA3TEST_002|52=20170619-14:15:35.640|56=TRAX|10=202|8=FIXT.1.1|9=60|35=0|34=628|49=QA3TEST_002|52=20170619-14:16:06.616|56=TRAX|10=205|8=FIXT.1.1|9=60|35=0|34=629|49=QA3TEST_002|52=20170619-14:16:36.638|56=TRAX|10=213|8=FIXT.1.1|9=60|35=0|34=630|49=QA3TEST_002|52=20170619-14:17:07.642|56=TRAX|10=199|8=FIXT.1.1|9=60|35=0|34=631|49=QA3TEST_002|52=20170619-14:17:38.616|56=TRAX|10=205|8=FIXT.1.1|9=60|35=0|34=632|49=QA3TEST_002|52=20170619-14:18:08.637|56=TRAX|10=207|8=FIXT.1.1|9=60|35=0|34=633|49=QA3TEST_002|52=20170619-14:18:38.639|56=TRAX|10=213|8=FIXT.1.1|9=60|35=0|34=634|49=QA3TEST_002|52=20170619-14:19:09.616|56=TRAX|10=208|8=FIXT.1.1|9=60|35=0|34=635|49=QA3TEST_002|52=20170619-14:19:39.638|56=TRAX|10=216|8=FIXT.1.1|9=60|35=0|34=636|49=QA3TEST_002|52=20170619-14:20:09.640|56=TRAX|10=199|8=FIXT.1.1|9=60|35=0|34=637|49=QA3TEST_002|52=20170619-14:20:40.615|56=TRAX|10=197|8=FIXT.1.1|9=60|35=0|34=638|49=QA3TEST_002|52=20170619-14:21:10.639|56=TRAX|10=202|8=FIXT.1.1|9=60|35=0|34=639|49=QA3TEST_002|52=20170619-14:21:41.615|56=TRAX|10=201|8=FIXT.1.1|9=60|35=0|34=640|49=QA3TEST_002|52=20170619-14:22:11.642|56=TRAX|10=191|8=FIXT.1.1|9=60|35=0|34=641|49=QA3TEST_002|52=20170619-14:22:42.615|56=TRAX|10=196|8=FIXT.1.1|9=60|35=0|34=642|49=QA3TEST_002|52=20170619-14:23:12.615|56=TRAX|10=195|8=FIXT.1.1|9=60|35=0|34=643|49=QA3TEST_002|52=20170619-14:23:42.615|56=TRAX|10=199|8=FIXT.1.1|9=60|35=0|34=644|49=QA3TEST_002|52=20170619-14:24:13.639|56=TRAX|10=205|8=FIXT.1.1|9=60|35=0|34=645|49=QA3TEST_002|52=20170619-14:24:44.614|56=TRAX|10=203|8=FIXT.1.1|9=60|35=0|34=646|49=QA3TEST_002|52=20170619-14:25:14.631|56=TRAX|10=201|8=FIXT.1.1|9=60|35=0|34=647|49=QA3TEST_002|52=20170619-14:25:45.615|56=TRAX|10=208|8=FIXT.1.1|9=60|35=0|34=648|49=QA3TEST_002|52=20170619-14:26:15.637|56=TRAX|10=211|8=FIXT.1.1|9=60|35=0|34=649|49=QA3TEST_002|52=20170619-14:26:45.639|56=TRAX|10=217|8=FIXT.1.1|9=60|35=0|34=650|49=QA3TEST_002|52=20170619-14:27:16.614|56=TRAX|10=201|8=FIXT.1.1|9=60|35=0|34=651|49=QA3TEST_002|52=20170619-14:27:46.639|56=TRAX|10=212|8=FIXT.1.1|9=60|35=0|34=652|49=QA3TEST_002|52=20170619-14:28:17.638|56=TRAX|10=211|8=FIXT.1.1|9=60|35=0|34=653|49=QA3TEST_002|52=20170619-14:28:48.613|56=TRAX|10=209|8=FIXT.1.1|9=60|35=0|34=654|49=QA3TEST_002|52=20170619-14:29:18.637|56=TRAX|10=214|8=FIXT.1.1|9=60|35=0|34=655|49=QA3TEST_002|52=20170619-14:29:49.613|56=TRAX|10=213|8=FIXT.1.1|9=60|35=0|34=656|49=QA3TEST_002|52=20170619-14:30:19.639|56=TRAX|10=211|8=FIXT.1.1|9=60|35=0|34=657|49=QA3TEST_002|52=20170619-14:30:49.640|56=TRAX|10=207|8=FIXT.1.1|9=60|35=0|34=658|49=QA3TEST_002|52=20170619-14:31:20.637|56=TRAX|10=204|8=FIXT.1.1|9=60|35=0|34=659|49=QA3TEST_002|52=20170619-14:31:51.613|56=TRAX|10=203|8=FIXT.1.1|9=60|35=0|34=660|49=QA3TEST_002|52=20170619-14:32:21.640|56=TRAX|10=193|8=FIXT.1.1|9=60|35=0|34=661|49=QA3TEST_002|52=20170619-14:32:51.640|56=TRAX|10=197|8=FIXT.1.1|9=60|35=0|34=662|49=QA3TEST_002|52=20170619-14:33:22.613|56=TRAX|10=197|8=FIXT.1.1|9=60|35=0|34=663|49=QA3TEST_002|52=20170619-14:33:53.612|56=TRAX|10=201|8=FIXT.1.1|9=60|35=0|34=664|49=QA3TEST_002|52=20170619-14:34:23.636|56=TRAX|10=206|8=FIXT.1.1|9=60|35=0|34=665|49=QA3TEST_002|52=20170619-14:34:54.628|56=TRAX|10=212|8=FIXT.1.1|9=60|35=0|34=666|49=QA3TEST_002|52=20170619-14:35:25.613|56=TRAX|10=206|8=FIXT.1.1|9=60|35=0|34=667|49=QA3TEST_002|52=20170619-14:35:55.620|56=TRAX|10=208|8=FIXT.1.1|9=60|35=0|34=668|49=QA3TEST_002|52=20170619-14:36:25.632|56=TRAX|10=210|8=FIXT.1.1|9=60|35=0|34=669|49=QA3TEST_002|52=20170619-14:36:56.612|56=TRAX|10=213|8=FIXT.1.1|9=60|35=0|34=670|49=QA3TEST_002|52=20170619-14:37:26.632|56=TRAX|10=205|8=FIXT.1.1|9=60|35=0|34=671|49=QA3TEST_002|52=20170619-14:37:57.353|56=TRAX|10=210|8=FIXT.1.1|9=60|35=0|34=672|49=QA3TEST_002|52=20170619-14:38:27.611|56=TRAX|10=206|8=FIXT.1.1|9=60|35=0|34=673|49=QA3TEST_002|52=20170619-14:38:57.611|56=TRAX|10=210|8=FIXT.1.1|9=60|35=0|34=674|49=QA3TEST_002|52=20170619-14:39:28.610|56=TRAX|10=209|8=FIXT.1.1|9=60|35=0|34=675|49=QA3TEST_002|52=20170619-14:39:58.617|56=TRAX|10=220|8=FIXT.1.1|9=60|35=0|34=676|49=QA3TEST_002|52=20170619-14:40:29.610|56=TRAX|10=204|8=FIXT.1.1|9=60|35=0|34=677|49=QA3TEST_002|52=20170619-14:40:59.623|56=TRAX|10=212|8=FIXT.1.1|9=60|35=0|34=678|49=QA3TEST_002|52=20170619-14:41:29.637|56=TRAX|10=216|8=FIXT.1.1|9=60|35=0|34=679|49=QA3TEST_002|52=20170619-14:42:00.634|56=TRAX|10=204|8=FIXT.1.1|9=60|35=0|34=680|49=QA3TEST_002|52=20170619-14:42:31.630|56=TRAX|10=196|8=FIXT.1.1|9=60|35=0|34=681|49=QA3TEST_002|52=20170619-14:43:01.635|56=TRAX|10=200|8=FIXT.1.1|9=60|35=0|34=682|49=QA3TEST_002|52=20170619-14:43:32.609|56=TRAX|10=206|8=FIXT.1.1|9=60|35=0|34=683|49=QA3TEST_002|52=20170619-14:44:02.629|56=TRAX|10=207|8=FIXT.1.1|9=60|35=0|34=684|49=QA3TEST_002|52=20170619-14:44:33.630|56=TRAX|10=204|8=FIXT.1.1|9=60|35=0|34=685|49=QA3TEST_002|52=20170619-14:45:04.609|56=TRAX|10=210|8=FIXT.1.1|9=60|35=0|34=686|49=QA3TEST_002|52=20170619-14:45:34.625|56=TRAX|10=212|8=FIXT.1.1|9=60|35=0|34=687|49=QA3TEST_002|52=20170619-14:46:04.634|56=TRAX|10=211|8=FIXT.1.1|9=60|35=0|34=688|49=QA3TEST_002|52=20170619-14:46:35.609|56=TRAX|10=218|8=FIXT.1.1|9=60|35=0|34=689|49=QA3TEST_002|52=20170619-14:47:05.627|56=TRAX|10=217|8=FIXT.1.1|9=60|35=0|34=690|49=QA3TEST_002|52=20170619-14:47:36.633|56=TRAX|10=210|8=FIXT.1.1|9=60|35=0|34=691|49=QA3TEST_002|52=20170619-14:48:07.608|56=TRAX|10=212|8=FIXT.1.1|9=60|35=0|34=692|49=QA3TEST_002|52=20170619-14:48:37.634|56=TRAX|10=215|8=FIXT.1.1|9=60|35=0|34=693|49=QA3TEST_002|52=20170619-14:49:08.633|56=TRAX|10=214|8=FIXT.1.1|9=60|35=0|34=694|49=QA3TEST_002|52=20170619-14:49:39.608|56=TRAX|10=221|8=FIXT.1.1|9=60|35=0|34=695|49=QA3TEST_002|52=20170619-14:50:09.627|56=TRAX|10=212|8=FIXT.1.1|9=60|35=0|34=696|49=QA3TEST_002|52=20170619-14:50:40.608|56=TRAX|10=207|8=FIXT.1.1|9=60|35=0|34=697|49=QA3TEST_002|52=20170619-14:51:10.608|56=TRAX|10=206|8=FIXT.1.1|9=60|35=0|34=698|49=QA3TEST_002|52=20170619-14:51:40.608|56=TRAX|10=210|8=FIXT.1.1|9=60|35=0|34=699|49=QA3TEST_002|52=20170619-14:52:11.607|56=TRAX|10=209|8=FIXT.1.1|9=60|35=0|34=700|49=QA3TEST_002|52=20170619-14:52:41.627|56=TRAX|10=197|8=FIXT.1.1|9=60|35=0|34=701|49=QA3TEST_002|52=20170619-14:53:11.628|56=TRAX|10=197|8=FIXT.1.1|9=60|35=0|34=702|49=QA3TEST_002|52=20170619-14:53:42.607|56=TRAX|10=199|8=FIXT.1.1|9=60|35=0|34=703|49=QA3TEST_002|52=20170619-14:54:12.633|56=TRAX|10=197|8=FIXT.1.1|9=60|35=0|34=704|49=QA3TEST_002|52=20170619-14:54:43.625|56=TRAX|10=203|8=FIXT.1.1|9=60|35=0|34=705|49=QA3TEST_002|52=20170619-14:55:13.631|56=TRAX|10=199|8=FIXT.1.1|9=60|35=0|34=706|49=QA3TEST_002|52=20170619-14:55:43.633|56=TRAX|10=205|8=FIXT.1.1|9=60|35=0|34=707|49=QA3TEST_002|52=20170619-14:56:14.606|56=TRAX|10=205|8=FIXT.1.1|9=60|35=0|34=708|49=QA3TEST_002|52=20170619-14:56:44.632|56=TRAX|10=208|8=FIXT.1.1|9=60|35=0|34=709|49=QA3TEST_002|52=20170619-14:57:14.633|56=TRAX|10=208|8=FIXT.1.1|9=60|35=0|34=710|49=QA3TEST_002|52=20170619-14:57:45.607|56=TRAX|10=205|8=FIXT.1.1|9=60|35=0|34=711|49=QA3TEST_002|52=20170619-14:58:15.624|56=TRAX|10=203|8=FIXT.1.1|9=60|35=0|34=712|49=QA3TEST_002|52=20170619-14:58:45.625|56=TRAX|10=208|8=FIXT.1.1|9=60|35=0|34=713|49=QA3TEST_002|52=20170619-14:59:16.606|56=TRAX|10=207|8=FIXT.1.1|9=60|35=0|34=714|49=QA3TEST_002|52=20170619-14:59:46.630|56=TRAX|10=208|8=FIXT.1.1|9=60|35=0|34=715|49=QA3TEST_002|52=20170619-15:00:17.629|56=TRAX|10=202|8=FIXT.1.1|9=60|35=0|34=716|49=QA3TEST_002|52=20170619-15:00:48.606|56=TRAX|10=202|8=FIXT.1.1|9=60|35=0|34=717|49=QA3TEST_002|52=20170619-15:01:18.626|56=TRAX|10=203|8=FIXT.1.1|9=60|35=0|34=718|49=QA3TEST_002|52=20170619-15:01:48.631|56=TRAX|10=203|8=FIXT.1.1|9=60|35=0|34=719|49=QA3TEST_002|52=20170619-15:02:19.606|56=TRAX|10=205|8=FIXT.1.1|9=60|35=0|34=720|49=QA3TEST_002|52=20170619-15:02:49.618|56=TRAX|10=203|8=FIXT.1.1|9=60|35=0|34=721|49=QA3TEST_002|52=20170619-15:03:20.631|56=TRAX|10=189|8=FIXT.1.1|9=60|35=0|34=722|49=QA3TEST_002|52=20170619-15:03:51.605|56=TRAX|10=195|8=FIXT.1.1|9=60|35=0|34=723|49=QA3TEST_002|52=20170619-15:04:21.631|56=TRAX|10=193|8=FIXT.1.1|9=60|35=0|34=724|49=QA3TEST_002|52=20170619-15:04:52.625|56=TRAX|10=201|8=FIXT.1.1|9=60|35=0|34=725|49=QA3TEST_002|52=20170619-15:05:23.605|56=TRAX|10=199|8=FIXT.1.1|9=60|35=0|34=726|49=QA3TEST_002|52=20170619-15:05:53.626|56=TRAX|10=206|8=FIXT.1.1|9=60|35=0|34=727|49=QA3TEST_002|52=20170619-15:06:24.604|56=TRAX|10=202|8=FIXT.1.1|9=60|35=0|34=728|49=QA3TEST_002|52=20170619-15:06:54.605|56=TRAX|10=207|8=FIXT.1.1|9=60|35=0|34=729|49=QA3TEST_002|52=20170619-15:07:24.627|56=TRAX|10=210|8=FIXT.1.1|9=60|35=0|34=730|49=QA3TEST_002|52=20170619-15:07:55.604|56=TRAX|10=201|8=FIXT.1.1|9=60|35=0|34=731|49=QA3TEST_002|52=20170619-15:08:25.613|56=TRAX|10=200|8=FIXT.1.1|9=60|35=0|34=732|49=QA3TEST_002|52=20170619-15:08:55.613|56=TRAX|10=204|8=FIXT.1.1|9=60|35=0|34=733|49=QA3TEST_002|52=20170619-15:09:26.604|56=TRAX|10=204|8=FIXT.1.1|9=60|35=0|34=734|49=QA3TEST_002|52=20170619-15:09:56.625|56=TRAX|10=211|8=FIXT.1.1|9=60|35=0|34=735|49=QA3TEST_002|52=20170619-15:10:27.331|56=TRAX|10=196|8=FIXT.1.1|9=60|35=0|34=736|49=QA3TEST_002|52=20170619-15:10:57.604|56=TRAX|10=203|8=FIXT.1.1|9=60|35=0|34=737|49=QA3TEST_002|52=20170619-15:11:27.630|56=TRAX|10=201|8=FIXT.1.1|9=60|35=0|34=738|49=QA3TEST_002|52=20170619-15:11:58.629|56=TRAX|10=214|8=FIXT.1.1|9=60|35=0|34=739|49=QA3TEST_002|52=20170619-15:12:29.603|56=TRAX|10=206|8=FIXT.1.1|9=60|35=0|34=740|49=QA3TEST_002|52=20170619-15:12:59.614|56=TRAX|10=203|8=FIXT.1.1|9=60|35=0|34=741|49=QA3TEST_002|52=20170619-15:13:29.621|56=TRAX|10=200|8=FIXT.1.1|9=60|35=0|34=742|49=QA3TEST_002|52=20170619-15:14:00.603|56=TRAX|10=191|8=FIXT.1.1|9=60|35=0|34=743|49=QA3TEST_002|52=20170619-15:14:30.622|56=TRAX|10=196|8=FIXT.1.1|9=60|35=0|34=744|49=QA3TEST_002|52=20170619-15:15:00.622|56=TRAX|10=195|8=FIXT.1.1|9=60|35=0|34=745|49=QA3TEST_002|52=20170619-15:15:31.603|56=TRAX|10=199|8=FIXT.1.1|9=60|35=0|34=746|49=QA3TEST_002|52=20170619-15:16:01.609|56=TRAX|10=204|8=FIXT.1.1|9=60|35=0|34=747|49=QA3TEST_002|52=20170619-15:16:32.602|56=TRAX|10=202|8=FIXT.1.1|9=60|35=0|34=748|49=QA3TEST_002|52=20170619-15:17:02.631|56=TRAX|10=203|8=FIXT.1.1|9=60|35=0|34=749|49=QA3TEST_002|52=20170619-15:17:32.623|56=TRAX|10=208|8=FIXT.1.1|9=60|35=0|34=750|49=QA3TEST_002|52=20170619-15:18:03.602|56=TRAX|10=196|8=FIXT.1.1|9=60|35=0|34=751|49=QA3TEST_002|52=20170619-15:18:33.620|56=TRAX|10=200|8=FIXT.1.1|9=60|35=0|34=752|49=QA3TEST_002|52=20170619-15:19:03.621|56=TRAX|10=200|8=FIXT.1.1|9=60|35=0|34=753|49=QA3TEST_002|52=20170619-15:19:34.601|56=TRAX|10=203|8=FIXT.1.1|9=60|35=0|34=754|49=QA3TEST_002|52=20170619-15:20:04.622|56=TRAX|10=196|8=FIXT.1.1|9=60|35=0|34=755|49=QA3TEST_002|52=20170619-15:20:35.602|56=TRAX|10=199|8=FIXT.1.1|9=60|35=0|34=756|49=QA3TEST_002|52=20170619-15:21:05.606|56=TRAX|10=202|8=FIXT.1.1|9=60|35=0|34=757|49=QA3TEST_002|52=20170619-15:21:35.614|56=TRAX|10=205|8=FIXT.1.1|9=60|35=0|34=758|49=QA3TEST_002|52=20170619-15:22:06.602|56=TRAX|10=202|8=FIXT.1.1|9=60|35=0|34=759|49=QA3TEST_002|52=20170619-15:22:36.614|56=TRAX|10=209|8=FIXT.1.1|9=60|35=0|34=760|49=QA3TEST_002|52=20170619-15:23:06.622|56=TRAX|10=198|8=FIXT.1.1|9=60|35=0|34=761|49=QA3TEST_002|52=20170619-15:23:37.601|56=TRAX|10=200|8=FIXT.1.1|9=60|35=0|34=762|49=QA3TEST_002|52=20170619-15:24:07.603|56=TRAX|10=201|8=FIXT.1.1|9=60|35=0|34=763|49=QA3TEST_002|52=20170619-15:24:38.601|56=TRAX|10=204|8=FIXT.1.1|9=60|35=0|34=764|49=QA3TEST_002|52=20170619-15:25:08.627|56=TRAX|10=211|8=FIXT.1.1|9=60|35=0|34=765|49=QA3TEST_002|52=20170619-15:25:39.624|56=TRAX|10=213|8=FIXT.1.1|9=60|35=0|34=766|49=QA3TEST_002|52=20170619-15:26:10.600|56=TRAX|10=198|8=FIXT.1.1|9=60|35=0|34=767|49=QA3TEST_002|52=20170619-15:26:40.621|56=TRAX|10=205|8=FIXT.1.1|9=60|35=0|34=768|49=QA3TEST_002|52=2017