8=FIXT.1.1|9=106|35=A|34=1|49=HEMA_RTS2728_TRAX|52=20180809-14:12:10.804|56=TRAX|98=0|108=30|95=8|96=3.0.0rc3|141=Y|1137=9|10=151|8=FIXT.1.1|9=106|35=A|34=1|49=HEMA_RTS2728_TRAX|52=20180809-14:28:12.744|56=TRAX|98=0|108=30|95=8|96=3.0.0rc3|141=Y|1137=9|10=163|8=FIXT.1.1|9=106|35=A|34=1|49=HEMA_RTS2728_TRAX|52=20180809-14:29:20.647|56=TRAX|98=0|108=30|95=8|96=3.0.0rc3|141=Y|1137=9|10=165|8=FIXT.1.1|9=106|35=A|34=1|49=HEMA_RTS2728_TRAX|52=20180809-14:31:06.585|56=TRAX|98=0|108=30|95=8|96=3.0.0rc3|141=Y|1137=9|10=163|8=FIXT.1.1|9=106|35=A|34=1|49=HEMA_RTS2728_TRAX|52=20180810-08:28:45.752|56=TRAX|98=0|108=30|95=8|96=3.0.0rc3|141=Y|1137=9|10=163|