8=FIXT.1.1|9=98|35=A|34=1|49=MTFQA2PUB|52=20180523-13:32:08.214|56=TRAX|98=0|108=30|95=8|96=2.0.0rc4|141=Y|1137=9|10=027|8=FIXT.1.1|9=98|35=A|34=1|49=MTFQA2PUB|52=20180523-13:32:36.196|56=TRAX|98=0|108=30|95=8|96=2.0.0rc4|141=Y|1137=9|10=037|8=FIXT.1.1|9=98|35=A|34=1|49=MTFQA2PUB|52=20180523-13:35:21.232|56=TRAX|98=0|108=30|95=8|96=2.0.0rc4|141=Y|1137=9|10=025|8=FIXT.1.1|9=98|35=A|34=1|49=MTFQA2PUB|52=20180524-10:56:11.707|56=TRAX|98=0|108=30|95=8|96=2.0.0rc4|141=Y|1137=9|10=032|8=FIXT.1.1|9=98|35=A|34=1|49=MTFQA2PUB|52=20180524-10:56:20.680|56=TRAX|98=0|108=30|95=8|96=2.0.0rc4|141=Y|1137=9|10=032|8=FIXT.1.1|9=98|35=A|34=1|49=MTFQA2PUB|52=20180524-10:56:25.680|56=TRAX|98=0|108=30|95=8|96=2.0.0rc4|141=Y|1137=9|10=037|8=FIXT.1.1|9=98|35=A|34=1|49=MTFQA2PUB|52=20180619-11:51:27.926|56=TRAX|98=0|108=30|95=8|96=2.0.0rc4|141=Y|1137=9|10=043|