8=FIXT.1.1|9=96|35=A|34=1|49=APA_QA3|52=20180703-13:00:13.214|56=TRAX|98=0|108=30|95=8|96=2.0.0rc4|141=Y|1137=9|10=116|8=FIXT.1.1|9=261|35=i|34=2|49=APA_QA3|50=APA|52=20180703-13:00:34.528|56=TRAX|57=APA|117=PPB129|296=1|302=1|304=1|295=1|299=PPB1292_01|48=XS0253963754|22=4|22680=10.45|22682=26|22683=6|134=60|135=23|62=20180305-08:59:59.000|60=20180305-06:59:59.000|22500=4|22503=100|22504=AATS|10=218|8=FIXT.1.1|9=54|35=0|34=3|49=APA_QA3|52=20180703-13:01:05.213|56=TRAX|10=079|8=FIXT.1.1|9=54|35=0|34=4|49=APA_QA3|52=20180703-13:01:35.213|56=TRAX|10=083|8=FIXT.1.1|9=54|35=0|34=5|49=APA_QA3|52=20180703-13:02:05.214|56=TRAX|10=083|8=FIXT.1.1|9=54|35=0|34=6|49=APA_QA3|52=20180703-13:02:36.214|56=TRAX|10=088|8=FIXT.1.1|9=54|35=0|34=7|49=APA_QA3|52=20180703-13:03:06.227|56=TRAX|10=091|8=FIXT.1.1|9=54|35=0|34=8|49=APA_QA3|52=20180703-13:03:37.218|56=TRAX|10=096|8=FIXT.1.1|9=54|35=0|34=9|49=APA_QA3|52=20180703-13:04:07.227|56=TRAX|10=095|8=FIXT.1.1|9=55|35=0|34=10|49=APA_QA3|52=20180703-13:04:37.941|56=TRAX|10=142|8=FIXT.1.1|9=310|35=i|34=11|49=APA_QA3|50=APA|52=20180703-13:04:41.777|56=TRAX|57=APA|117=APA-837TCWOTAGS18|296=1|302=1|304=1|295=1|299=APA-837TCQWOTAGS18|48=SALTESTSFPS1|22=4|22682=16|22683=6|135=100|62=20170617-22:59:59.000|60=20170613-11:36:24.961|15=GBP|22684=1.15678929|22685=1|22686=SALTESTBONAB|22687=4|22500=2|22503=11|10=221|8=FIXT.1.1|9=55|35=0|34=12|49=APA_QA3|52=20180703-13:05:12.215|56=TRAX|10=132|8=FIXT.1.1|9=55|35=0|34=13|49=APA_QA3|52=20180703-13:05:42.941|56=TRAX|10=142|8=FIXT.1.1|9=55|35=0|34=14|49=APA_QA3|52=20180703-13:06:13.212|56=TRAX|10=133|8=FIXT.1.1|9=55|35=0|34=15|49=APA_QA3|52=20180703-13:06:43.214|56=TRAX|10=139|8=FIXT.1.1|9=55|35=0|34=16|49=APA_QA3|52=20180703-13:07:14.211|56=TRAX|10=136|8=FIXT.1.1|9=55|35=0|34=17|49=APA_QA3|52=20180703-13:07:44.219|56=TRAX|10=148|8=FIXT.1.1|9=55|35=0|34=18|49=APA_QA3|52=20180703-13:08:14.221|56=TRAX|10=140|8=FIXT.1.1|9=321|35=i|34=19|49=APA_QA3|50=APA|52=20180703-13:08:24.925|56=TRAX|57=APA|117=APA-837TCWOTAGS18|296=1|302=1|304=1|295=1|299=APA-837TCQWOTAGS18|48=SALTESTSFPS1|22=4|22682=16|22683=6|135=100|62=20170617-22:59:59.000|60=20170613-11:36:24.961|15=GBP|22684=1.15678929|22685=1|22686=SALTESTBONAB|22687=4|22500=2|22503=11|22504=MAEL|10=065|8=FIXT.1.1|9=321|35=i|34=20|49=APA_QA3|50=APA|52=20180703-13:08:43.743|56=TRAX|57=APA|117=APA-837TCWOTAGS18|296=1|302=1|304=1|295=1|299=APA-837TCQWOTAGS18|48=SALTESTSFPS1|22=4|22682=16|22683=6|135=100|62=20170617-22:59:59.000|60=20170613-11:36:24.961|15=GBP|22684=1.15678929|22685=1|22686=SALTESTBONAB|22687=4|22500=2|22503=11|22504=XOFF|10=076|8=FIXT.1.1|9=55|35=0|34=21|49=APA_QA3|52=20180703-13:09:13.942|56=TRAX|10=144|8=FIXT.1.1|9=55|35=0|34=22|49=APA_QA3|52=20180703-13:09:44.211|56=TRAX|10=138|8=FIXT.1.1|9=55|35=0|34=23|49=APA_QA3|52=20180703-13:10:15.218|56=TRAX|10=136|8=FIXT.1.1|9=55|35=0|34=24|49=APA_QA3|52=20180703-13:10:46.210|56=TRAX|10=133|8=FIXT.1.1|9=55|35=0|34=25|49=APA_QA3|52=20180703-13:11:16.214|56=TRAX|10=136|8=FIXT.1.1|9=55|35=0|34=26|49=APA_QA3|52=20180703-13:11:46.215|56=TRAX|10=141|8=FIXT.1.1|9=55|35=0|34=27|49=APA_QA3|52=20180703-13:12:16.219|56=TRAX|10=144|8=FIXT.1.1|9=55|35=0|34=28|49=APA_QA3|52=20180703-13:12:47.209|56=TRAX|10=148|8=FIXT.1.1|9=55|35=0|34=29|49=APA_QA3|52=20180703-13:13:17.209|56=TRAX|10=147|8=FIXT.1.1|9=55|35=0|34=30|49=APA_QA3|52=20180703-13:13:47.209|56=TRAX|10=142|8=FIXT.1.1|9=55|35=0|34=31|49=APA_QA3|52=20180703-13:14:18.208|56=TRAX|10=141|8=FIXT.1.1|9=55|35=0|34=32|49=APA_QA3|52=20180703-13:14:48.208|56=TRAX|10=145|8=FIXT.1.1|9=55|35=0|34=33|49=APA_QA3|52=20180703-13:15:18.208|56=TRAX|10=144|8=FIXT.1.1|9=55|35=0|34=34|49=APA_QA3|52=20180703-13:15:48.208|56=TRAX|10=148|8=FIXT.1.1|9=55|35=0|34=35|49=APA_QA3|52=20180703-13:16:19.208|56=TRAX|10=148|8=FIXT.1.1|9=55|35=0|34=36|49=APA_QA3|52=20180703-13:16:49.208|56=TRAX|10=152|8=FIXT.1.1|9=55|35=0|34=37|49=APA_QA3|52=20180703-13:17:20.207|56=TRAX|10=142|8=FIXT.1.1|9=55|35=0|34=38|49=APA_QA3|52=20180703-13:17:50.207|56=TRAX|10=146|8=FIXT.1.1|9=55|35=0|34=39|49=APA_QA3|52=20180703-13:18:20.207|56=TRAX|10=145|8=FIXT.1.1|9=55|35=0|34=40|49=APA_QA3|52=20180703-13:18:50.207|56=TRAX|10=140|8=FIXT.1.1|9=55|35=0|34=41|49=APA_QA3|52=20180703-13:19:20.207|56=TRAX|10=139|8=FIXT.1.1|9=55|35=0|34=42|49=APA_QA3|52=20180703-13:19:50.207|56=TRAX|10=143|8=FIXT.1.1|9=55|35=0|34=43|49=APA_QA3|52=20180703-13:20:21.206|56=TRAX|10=133|8=FIXT.1.1|9=55|35=0|34=44|49=APA_QA3|52=20180703-13:20:51.206|56=TRAX|10=137|8=FIXT.1.1|9=55|35=0|34=45|49=APA_QA3|52=20180703-13:21:22.206|56=TRAX|10=137|8=FIXT.1.1|9=55|35=0|34=46|49=APA_QA3|52=20180703-13:21:52.206|56=TRAX|10=141|8=FIXT.1.1|9=55|35=0|34=47|49=APA_QA3|52=20180703-13:22:22.206|56=TRAX|10=140|8=FIXT.1.1|9=55|35=0|34=48|49=APA_QA3|52=20180703-13:22:52.206|56=TRAX|10=144|8=FIXT.1.1|9=55|35=0|34=49|49=APA_QA3|52=20180703-13:23:23.205|56=TRAX|10=143|8=FIXT.1.1|9=55|35=0|34=50|49=APA_QA3|52=20180703-13:23:53.205|56=TRAX|10=138|8=FIXT.1.1|9=55|35=0|34=51|49=APA_QA3|52=20180703-13:24:23.205|56=TRAX|10=137|8=FIXT.1.1|9=55|35=0|34=52|49=APA_QA3|52=20180703-13:24:53.205|56=TRAX|10=141|8=FIXT.1.1|9=55|35=0|34=53|49=APA_QA3|52=20180703-13:25:23.211|56=TRAX|10=137|8=FIXT.1.1|9=55|35=0|34=54|49=APA_QA3|52=20180703-13:25:53.211|56=TRAX|10=141|8=FIXT.1.1|9=55|35=0|34=55|49=APA_QA3|52=20180703-13:26:24.203|56=TRAX|10=142|8=FIXT.1.1|9=55|35=0|34=56|49=APA_QA3|52=20180703-13:26:54.227|56=TRAX|10=152|8=FIXT.1.1|9=55|35=0|34=57|49=APA_QA3|52=20180703-13:27:25.213|56=TRAX|10=147|8=FIXT.1.1|9=55|35=0|34=58|49=APA_QA3|52=20180703-13:27:55.213|56=TRAX|10=151|8=FIXT.1.1|9=55|35=0|34=59|49=APA_QA3|52=20180703-13:28:26.211|56=TRAX|10=149|8=FIXT.1.1|9=55|35=0|34=60|49=APA_QA3|52=20180703-13:28:57.209|56=TRAX|10=152|8=FIXT.1.1|9=55|35=0|34=61|49=APA_QA3|52=20180703-13:29:28.205|56=TRAX|10=148|8=FIXT.1.1|9=55|35=0|34=62|49=APA_QA3|52=20180703-13:29:58.210|56=TRAX|10=148|8=FIXT.1.1|9=55|35=0|34=63|49=APA_QA3|52=20180703-13:30:28.217|56=TRAX|10=145|8=FIXT.1.1|9=55|35=0|34=64|49=APA_QA3|52=20180703-13:30:59.206|56=TRAX|10=148|8=FIXT.1.1|9=55|35=0|34=65|49=APA_QA3|52=20180703-13:31:29.206|56=TRAX|10=147|8=FIXT.1.1|9=55|35=0|34=66|49=APA_QA3|52=20180703-13:32:00.204|56=TRAX|10=136|8=FIXT.1.1|9=55|35=0|34=67|49=APA_QA3|52=20180703-13:32:30.207|56=TRAX|10=143|8=FIXT.1.1|9=55|35=0|34=68|49=APA_QA3|52=20180703-13:33:01.206|56=TRAX|10=142|8=FIXT.1.1|9=55|35=0|34=69|49=APA_QA3|52=20180703-13:33:31.221|56=TRAX|10=143|8=FIXT.1.1|9=55|35=0|34=70|49=APA_QA3|52=20180703-13:34:02.207|56=TRAX|10=138|8=FIXT.1.1|9=55|35=0|34=71|49=APA_QA3|52=20180703-13:34:33.202|56=TRAX|10=138|8=FIXT.1.1|9=55|35=0|34=72|49=APA_QA3|52=20180703-13:35:03.210|56=TRAX|10=136|8=FIXT.1.1|9=55|35=0|34=73|49=APA_QA3|52=20180703-13:35:34.204|56=TRAX|10=144|8=FIXT.1.1|9=55|35=0|34=74|49=APA_QA3|52=20180703-13:36:04.209|56=TRAX|10=148|8=FIXT.1.1|9=55|35=0|34=75|49=APA_QA3|52=20180703-13:36:35.207|56=TRAX|10=151|8=FIXT.1.1|9=55|35=0|34=76|49=APA_QA3|52=20180703-13:37:05.216|56=TRAX|10=150|8=FIXT.1.1|9=55|35=0|34=77|49=APA_QA3|52=20180703-13:37:36.207|56=TRAX|10=155|8=FIXT.1.1|9=55|35=0|34=78|49=APA_QA3|52=20180703-13:38:07.202|56=TRAX|10=150|8=FIXT.1.1|9=55|35=0|34=79|49=APA_QA3|52=20180703-13:38:37.204|56=TRAX|10=156|8=FIXT.1.1|9=55|35=0|34=80|49=APA_QA3|52=20180703-13:39:07.209|56=TRAX|10=151|8=FIXT.1.1|9=55|35=0|34=81|49=APA_QA3|52=20180703-13:39:38.202|56=TRAX|10=149|8=FIXT.1.1|9=55|35=0|34=82|49=APA_QA3|52=20180703-13:40:08.208|56=TRAX|10=145|8=FIXT.1.1|9=55|35=0|34=83|49=APA_QA3|52=20180703-13:40:38.212|56=TRAX|10=144|8=FIXT.1.1|9=55|35=0|34=84|49=APA_QA3|52=20180703-13:41:09.203|56=TRAX|10=144|8=FIXT.1.1|9=55|35=0|34=85|49=APA_QA3|52=20180703-13:41:40.199|56=TRAX|10=154|8=FIXT.1.1|9=55|35=0|34=86|49=APA_QA3|52=20180703-13:42:10.210|56=TRAX|10=137|8=FIXT.1.1|9=55|35=0|34=87|49=APA_QA3|52=20180703-13:42:41.205|56=TRAX|10=146|8=FIXT.1.1|9=55|35=0|34=88|49=APA_QA3|52=20180703-13:43:12.204|56=TRAX|10=145|8=FIXT.1.1|9=55|35=0|34=89|49=APA_QA3|52=20180703-13:43:43.222|56=TRAX|10=150|8=FIXT.1.1|9=55|35=0|34=90|49=APA_QA3|52=20180703-13:44:13.937|56=TRAX|10=153|8=FIXT.1.1|9=55|35=0|34=91|49=APA_QA3|52=20180703-13:44:43.939|56=TRAX|10=159|8=FIXT.1.1|9=55|35=0|34=92|49=APA_QA3|52=20180703-13:45:14.218|56=TRAX|10=149|8=FIXT.1.1|9=55|35=0|34=93|49=APA_QA3|52=20180703-13:45:44.218|56=TRAX|10=153|8=FIXT.1.1|9=55|35=0|34=94|49=APA_QA3|52=20180703-13:46:15.200|56=TRAX|10=144|8=FIXT.1.1|9=55|35=0|34=95|49=APA_QA3|52=20180703-13:46:46.200|56=TRAX|10=149|8=FIXT.1.1|9=55|35=0|34=96|49=APA_QA3|52=20180703-13:47:16.201|56=TRAX|10=149|8=FIXT.1.1|9=55|35=0|34=97|49=APA_QA3|52=20180703-13:47:46.202|56=TRAX|10=154|8=FIXT.1.1|9=55|35=0|34=98|49=APA_QA3|52=20180703-13:48:17.198|56=TRAX|10=168|8=FIXT.1.1|9=55|35=0|34=99|49=APA_QA3|52=20180703-13:48:47.209|56=TRAX|10=165|8=FIXT.1.1|9=56|35=0|34=100|49=APA_QA3|52=20180703-13:49:18.212|56=TRAX|10=190|8=FIXT.1.1|9=56|35=0|34=101|49=APA_QA3|52=20180703-13:49:49.206|56=TRAX|10=198|8=FIXT.1.1|9=56|35=0|34=102|49=APA_QA3|52=20180703-13:50:20.204|56=TRAX|10=178|8=FIXT.1.1|9=56|35=0|34=103|49=APA_QA3|52=20180703-13:50:50.210|56=TRAX|10=179|8=FIXT.1.1|9=56|35=0|34=104|49=APA_QA3|52=20180703-13:51:21.208|56=TRAX|10=186|8=FIXT.1.1|9=56|35=0|34=105|49=APA_QA3|52=20180703-13:51:52.203|56=TRAX|10=186|8=FIXT.1.1|9=56|35=0|34=106|49=APA_QA3|52=20180703-13:52:22.206|56=TRAX|10=188|8=FIXT.1.1|9=56|35=0|34=107|49=APA_QA3|52=20180703-13:52:53.204|56=TRAX|10=191|8=FIXT.1.1|9=56|35=0|34=108|49=APA_QA3|52=20180703-13:53:24.200|56=TRAX|10=187|8=FIXT.1.1|9=56|35=0|34=109|49=APA_QA3|52=20180703-13:53:54.218|56=TRAX|10=200|8=FIXT.1.1|9=56|35=0|34=110|49=APA_QA3|52=20180703-13:54:24.218|56=TRAX|10=190|8=FIXT.1.1|9=56|35=0|34=111|49=APA_QA3|52=20180703-13:54:54.218|56=TRAX|10=194|8=FIXT.1.1|9=56|35=0|34=112|49=APA_QA3|52=20180703-13:55:25.201|56=TRAX|10=186|8=FIXT.1.1|9=56|35=0|34=113|49=APA_QA3|52=20180703-13:55:55.204|56=TRAX|10=193|8=FIXT.1.1|9=56|35=0|34=114|49=APA_QA3|52=20180703-13:56:25.208|56=TRAX|10=196|8=FIXT.1.1|9=56|35=0|34=115|49=APA_QA3|52=20180703-13:56:55.209|56=TRAX|10=201|8=FIXT.1.1|9=56|35=0|34=116|49=APA_QA3|52=20180703-13:57:26.203|56=TRAX|10=195|8=FIXT.1.1|9=56|35=0|34=117|49=APA_QA3|52=20180703-13:57:57.195|56=TRAX|10=210|8=FIXT.1.1|9=56|35=0|34=118|49=APA_QA3|52=20180703-13:58:27.205|56=TRAX|10=201|8=FIXT.1.1|9=56|35=0|34=119|49=APA_QA3|52=20180703-13:58:57.209|56=TRAX|10=209|8=FIXT.1.1|9=56|35=0|34=120|49=APA_QA3|52=20180703-13:59:28.210|56=TRAX|10=192|8=FIXT.1.1|9=56|35=0|34=121|49=APA_QA3|52=20180703-13:59:59.197|56=TRAX|10=211|8=FIXT.1.1|9=56|35=0|34=122|49=APA_QA3|52=20180703-14:00:29.204|56=TRAX|10=185|8=FIXT.1.1|9=56|35=0|34=123|49=APA_QA3|52=20180703-14:00:59.210|56=TRAX|10=186|8=FIXT.1.1|9=56|35=0|34=124|49=APA_QA3|52=20180703-14:01:30.209|56=TRAX|10=185|8=FIXT.1.1|9=56|35=0|34=125|49=APA_QA3|52=20180703-14:02:01.207|56=TRAX|10=183|8=FIXT.1.1|9=56|35=0|34=126|49=APA_QA3|52=20180703-14:02:31.207|56=TRAX|10=187|8=FIXT.1.1|9=56|35=0|34=127|49=APA_QA3|52=20180703-14:03:02.206|56=TRAX|10=186|8=FIXT.1.1|9=56|35=0|34=128|49=APA_QA3|52=20180703-14:03:33.202|56=TRAX|10=187|8=FIXT.1.1|9=56|35=0|34=129|49=APA_QA3|52=20180703-14:04:03.210|56=TRAX|10=185|8=FIXT.1.1|9=56|35=0|34=130|49=APA_QA3|52=20180703-14:04:33.211|56=TRAX|10=181|8=FIXT.1.1|9=56|35=0|34=131|49=APA_QA3|52=20180703-14:05:04.204|56=TRAX|10=183|8=FIXT.1.1|9=56|35=0|34=132|49=APA_QA3|52=20180703-14:05:35.201|56=TRAX|10=185|8=FIXT.1.1|9=56|35=0|34=133|49=APA_QA3|52=20180703-14:06:06.201|56=TRAX|10=185|8=FIXT.1.1|9=56|35=0|34=134|49=APA_QA3|52=20180703-14:06:37.202|56=TRAX|10=191|8=FIXT.1.1|9=56|35=0|34=135|49=APA_QA3|52=20180703-14:07:07.202|56=TRAX|10=190|8=FIXT.1.1|9=56|35=0|34=136|49=APA_QA3|52=20180703-14:07:38.207|56=TRAX|10=200|8=FIXT.1.1|9=56|35=0|34=137|49=APA_QA3|52=20180703-14:08:09.205|56=TRAX|10=198|8=FIXT.1.1|9=56|35=0|34=138|49=APA_QA3|52=20180703-14:08:39.205|56=TRAX|10=202|8=FIXT.1.1|9=56|35=0|34=139|49=APA_QA3|52=20180703-14:09:10.200|56=TRAX|10=188|8=FIXT.1.1|9=56|35=0|34=140|49=APA_QA3|52=20180703-14:09:41.196|56=TRAX|10=198|8=FIXT.1.1|9=56|35=0|34=141|49=APA_QA3|52=20180703-14:10:11.206|56=TRAX|10=180|8=FIXT.1.1|9=56|35=0|34=142|49=APA_QA3|52=20180703-14:10:42.202|56=TRAX|10=181|8=FIXT.1.1|9=56|35=0|34=143|49=APA_QA3|52=20180703-14:11:12.206|56=TRAX|10=184|8=FIXT.1.1|9=56|35=0|34=144|49=APA_QA3|52=20180703-14:11:43.204|56=TRAX|10=187|8=FIXT.1.1|9=56|35=0|34=145|49=APA_QA3|52=20180703-14:12:13.950|56=TRAX|10=194|8=FIXT.1.1|9=56|35=0|34=146|49=APA_QA3|52=20180703-14:12:43.959|56=TRAX|10=207|8=FIXT.1.1|9=56|35=0|34=147|49=APA_QA3|52=20180703-14:13:13.959|56=TRAX|10=206|8=FIXT.1.1|9=56|35=0|34=148|49=APA_QA3|52=20180703-14:13:43.959|56=TRAX|10=210|8=FIXT.1.1|9=56|35=0|34=149|49=APA_QA3|52=20180703-14:14:14.213|56=TRAX|10=193|8=FIXT.1.1|9=56|35=0|34=150|49=APA_QA3|52=20180703-14:14:45.214|56=TRAX|10=190|8=FIXT.1.1|9=56|35=0|34=151|49=APA_QA3|52=20180703-14:15:15.214|56=TRAX|10=189|8=FIXT.1.1|9=56|35=0|34=152|49=APA_QA3|52=20180703-14:15:46.199|56=TRAX|10=206|8=FIXT.1.1|9=56|35=0|34=153|49=APA_QA3|52=20180703-14:16:16.199|56=TRAX|10=205|8=FIXT.1.1|9=56|35=0|34=154|49=APA_QA3|52=20180703-14:16:47.197|56=TRAX|10=208|8=FIXT.1.1|9=56|35=0|34=155|49=APA_QA3|52=20180703-14:17:18.193|56=TRAX|10=204|8=FIXT.1.1|9=56|35=0|34=156|49=APA_QA3|52=20180703-14:17:48.193|56=TRAX|10=208|8=FIXT.1.1|9=56|35=0|34=157|49=APA_QA3|52=20180703-14:18:18.193|56=TRAX|10=207|8=FIXT.1.1|9=56|35=0|34=158|49=APA_QA3|52=20180703-14:18:48.210|56=TRAX|10=201|8=FIXT.1.1|9=56|35=0|34=159|49=APA_QA3|52=20180703-14:19:19.202|56=TRAX|10=202|8=FIXT.1.1|9=56|35=0|34=160|49=APA_QA3|52=20180703-14:19:49.204|56=TRAX|10=199|8=FIXT.1.1|9=56|35=0|34=161|49=APA_QA3|52=20180703-14:20:20.199|56=TRAX|10=194|8=FIXT.1.1|9=56|35=0|34=162|49=APA_QA3|52=20180703-14:20:50.199|56=TRAX|10=198|8=FIXT.1.1|9=56|35=0|34=163|49=APA_QA3|52=20180703-14:21:21.198|56=TRAX|10=197|8=FIXT.1.1|9=56|35=0|34=164|49=APA_QA3|52=20180703-14:21:51.198|56=TRAX|10=201|8=FIXT.1.1|9=56|35=0|34=165|49=APA_QA3|52=20180703-14:22:22.197|56=TRAX|10=200|8=FIXT.1.1|9=56|35=0|34=166|49=APA_QA3|52=20180703-14:22:52.200|56=TRAX|10=189|8=FIXT.1.1|9=56|35=0|34=167|49=APA_QA3|52=20180703-14:23:22.201|56=TRAX|10=189|8=FIXT.1.1|9=56|35=0|34=168|49=APA_QA3|52=20180703-14:23:53.196|56=TRAX|10=207|8=FIXT.1.1|9=56|35=0|34=169|49=APA_QA3|52=20180703-14:24:24.197|56=TRAX|10=208|8=FIXT.1.1|9=56|35=0|34=170|49=APA_QA3|52=20180703-14:24:54.197|56=TRAX|10=203|8=FIXT.1.1|9=56|35=0|34=171|49=APA_QA3|52=20180703-14:25:24.212|56=TRAX|10=190|8=FIXT.1.1|9=56|35=0|34=172|49=APA_QA3|52=20180703-14:25:54.212|56=TRAX|10=194|8=FIXT.1.1|9=56|35=0|34=173|49=APA_QA3|52=20180703-14:26:25.190|56=TRAX|10=199|8=FIXT.1.1|9=56|35=0|34=174|49=APA_QA3|52=20180703-14:26:55.194|56=TRAX|10=207|8=FIXT.1.1|9=56|35=0|34=175|49=APA_QA3|52=20180703-14:27:25.215|56=TRAX|10=200|8=FIXT.1.1|9=56|35=0|34=176|49=APA_QA3|52=20180703-14:27:56.193|56=TRAX|10=210|8=FIXT.1.1|9=56|35=0|34=177|49=APA_QA3|52=20180703-14:28:27.192|56=TRAX|10=209|8=FIXT.1.1|9=56|35=0|34=178|49=APA_QA3|52=20180703-14:28:57.192|56=TRAX|10=213|8=FIXT.1.1|9=56|35=0|34=179|49=APA_QA3|52=20180703-14:29:28.192|56=TRAX|10=213|8=FIXT.1.1|9=56|35=0|34=180|49=APA_QA3|52=20180703-14:29:58.196|56=TRAX|10=212|8=FIXT.1.1|9=56|35=0|34=181|49=APA_QA3|52=20180703-14:30:29.190|56=TRAX|10=197|8=FIXT.1.1|9=56|35=0|34=182|49=APA_QA3|52=20180703-14:30:59.190|56=TRAX|10=201|8=FIXT.1.1|9=56|35=0|34=183|49=APA_QA3|52=20180703-14:31:29.193|56=TRAX|10=203|8=FIXT.1.1|9=56|35=0|34=184|49=APA_QA3|52=20180703-14:32:00.189|56=TRAX|10=199|8=FIXT.1.1|9=56|35=0|34=185|49=APA_QA3|52=20180703-14:32:30.207|56=TRAX|10=194|8=FIXT.1.1|9=56|35=0|34=186|49=APA_QA3|52=20180703-14:33:00.207|56=TRAX|10=193|8=FIXT.1.1|9=56|35=0|34=187|49=APA_QA3|52=20180703-14:33:31.206|56=TRAX|10=197|8=FIXT.1.1|9=56|35=0|34=188|49=APA_QA3|52=20180703-14:34:02.188|56=TRAX|10=206|8=FIXT.1.1|9=56|35=0|34=189|49=APA_QA3|52=20180703-14:34:32.202|56=TRAX|10=197|8=FIXT.1.1|9=56|35=0|34=190|49=APA_QA3|52=20180703-14:35:03.200|56=TRAX|10=186|8=FIXT.1.1|9=56|35=0|34=191|49=APA_QA3|52=20180703-14:35:33.200|56=TRAX|10=190|8=FIXT.1.1|9=56|35=0|34=192|49=APA_QA3|52=20180703-14:36:04.196|56=TRAX|10=204|8=FIXT.1.1|9=56|35=0|34=193|49=APA_QA3|52=20180703-14:36:35.187|56=TRAX|10=209|8=FIXT.1.1|9=56|35=0|34=194|49=APA_QA3|52=20180703-14:37:05.195|56=TRAX|10=207|8=FIXT.1.1|9=56|35=0|34=195|49=APA_QA3|52=20180703-14:37:36.184|56=TRAX|10=210|8=FIXT.1.1|9=56|35=0|34=196|49=APA_QA3|52=20180703-14:38:06.185|56=TRAX|10=210|8=FIXT.1.1|9=56|35=0|34=197|49=APA_QA3|52=20180703-14:38:36.189|56=TRAX|10=218|8=FIXT.1.1|9=56|35=0|34=198|49=APA_QA3|52=20180703-14:39:06.199|56=TRAX|10=218|8=FIXT.1.1|9=56|35=0|34=199|49=APA_QA3|52=20180703-14:39:37.185|56=TRAX|10=218|8=FIXT.1.1|9=56|35=0|34=200|49=APA_QA3|52=20180703-14:40:08.184|56=TRAX|10=190|8=FIXT.1.1|9=56|35=0|34=201|49=APA_QA3|52=20180703-14:40:38.184|56=TRAX|10=194|8=FIXT.1.1|9=56|35=0|34=202|49=APA_QA3|52=20180703-14:41:08.187|56=TRAX|10=196|8=FIXT.1.1|9=56|35=0|34=203|49=APA_QA3|52=20180703-14:41:39.184|56=TRAX|10=198|8=FIXT.1.1|9=56|35=0|34=204|49=APA_QA3|52=20180703-14:42:09.184|56=TRAX|10=197|8=FIXT.1.1|9=56|35=0|34=205|49=APA_QA3|52=20180703-14:42:39.193|56=TRAX|10=201|8=FIXT.1.1|9=56|35=0|34=206|49=APA_QA3|52=20180703-14:43:10.189|56=TRAX|10=197|8=FIXT.1.1|9=56|35=0|34=207|49=APA_QA3|52=20180703-14:43:40.189|56=TRAX|10=201|8=FIXT.1.1|9=56|35=0|34=208|49=APA_QA3|52=20180703-14:44:11.187|56=TRAX|10=199|8=FIXT.1.1|9=56|35=0|34=209|49=APA_QA3|52=20180703-14:44:41.187|56=TRAX|10=203|8=FIXT.1.1|9=56|35=0|34=210|49=APA_QA3|52=20180703-14:45:12.186|56=TRAX|10=193|8=FIXT.1.1|9=56|35=0|34=211|49=APA_QA3|52=20180703-14:45:42.192|56=TRAX|10=194|8=FIXT.1.1|9=56|35=0|34=212|49=APA_QA3|52=20180703-14:46:13.188|56=TRAX|10=199|8=FIXT.1.1|9=56|35=0|34=213|49=APA_QA3|52=20180703-14:46:43.193|56=TRAX|10=199|8=FIXT.1.1|9=56|35=0|34=214|49=APA_QA3|52=20180703-14:47:13.194|56=TRAX|10=199|8=FIXT.1.1|9=56|35=0|34=215|49=APA_QA3|52=20180703-14:47:43.960|56=TRAX|10=204|8=FIXT.1.1|9=56|35=0|34=216|49=APA_QA3|52=20180703-14:48:13.960|56=TRAX|10=203|8=FIXT.1.1|9=56|35=0|34=217|49=APA_QA3|52=20180703-14:48:43.961|56=TRAX|10=208|8=FIXT.1.1|9=56|35=0|34=218|49=APA_QA3|52=20180703-14:49:14.180|56=TRAX|10=201|8=FIXT.1.1|9=56|35=0|34=219|49=APA_QA3|52=20180703-14:49:44.180|56=TRAX|10=205|8=FIXT.1.1|9=56|35=0|34=220|49=APA_QA3|52=20180703-14:50:14.181|56=TRAX|10=187|8=FIXT.1.1|9=56|35=0|34=221|49=APA_QA3|52=20180703-14:50:44.184|56=TRAX|10=194|8=FIXT.1.1|9=56|35=0|34=222|49=APA_QA3|52=20180703-14:51:14.194|56=TRAX|10=194|8=FIXT.1.1|9=56|35=0|34=223|49=APA_QA3|52=20180703-14:51:45.189|56=TRAX|10=203|8=FIXT.1.1|9=56|35=0|34=224|49=APA_QA3|52=20180703-14:52:16.185|56=TRAX|10=199|8=FIXT.1.1|9=56|35=0|34=225|49=APA_QA3|52=20180703-14:52:47.182|56=TRAX|10=201|8=FIXT.1.1|9=56|35=0|34=226|49=APA_QA3|52=20180703-14:53:17.192|56=TRAX|10=201|8=FIXT.1.1|9=56|35=0|34=227|49=APA_QA3|52=20180703-14:53:48.182|56=TRAX|10=205|8=FIXT.1.1|9=56|35=0|34=228|49=APA_QA3|52=20180703-14:54:18.191|56=TRAX|10=204|8=FIXT.1.1|9=56|35=0|34=229|49=APA_QA3|52=20180703-14:54:48.191|56=TRAX|10=208|8=FIXT.1.1|9=56|35=0|34=230|49=APA_QA3|52=20180703-14:55:19.186|56=TRAX|10=203|8=FIXT.1.1|9=56|35=0|34=231|49=APA_QA3|52=20180703-14:55:50.186|56=TRAX|10=199|8=FIXT.1.1|9=56|35=0|34=232|49=APA_QA3|52=20180703-14:56:21.182|56=TRAX|10=195|8=FIXT.1.1|9=56|35=0|34=233|49=APA_QA3|52=20180703-14:56:51.189|56=TRAX|10=206|8=FIXT.1.1|9=56|35=0|34=234|49=APA_QA3|52=20180703-14:57:22.186|56=TRAX|10=203|8=FIXT.1.1|9=56|35=0|34=235|49=APA_QA3|52=20180703-14:57:53.184|56=TRAX|10=206|8=FIXT.1.1|9=56|35=0|34=236|49=APA_QA3|52=20180703-14:58:24.177|56=TRAX|10=208|8=FIXT.1.1|9=56|35=0|34=237|49=APA_QA3|52=20180703-14:58:55.197|56=TRAX|10=215|8=FIXT.1.1|9=56|35=0|34=238|49=APA_QA3|52=20180703-14:59:26.197|56=TRAX|10=215|8=FIXT.1.1|9=56|35=0|34=239|49=APA_QA3|52=20180703-14:59:57.176|56=TRAX|10=217|8=FIXT.1.1|9=56|35=0|34=240|49=APA_QA3|52=20180703-15:00:28.176|56=TRAX|10=194|8=FIXT.1.1|9=56|35=0|34=241|49=APA_QA3|52=20180703-15:00:58.182|56=TRAX|10=195|8=FIXT.1.1|9=56|35=0|34=242|49=APA_QA3|52=20180703-15:01:28.182|56=TRAX|10=194|8=FIXT.1.1|9=56|35=0|34=243|49=APA_QA3|52=20180703-15:01:58.188|56=TRAX|10=204|8=FIXT.1.1|9=56|35=0|34=244|49=APA_QA3|52=20180703-15:02:29.183|56=TRAX|10=199|8=FIXT.1.1|9=56|35=0|34=245|49=APA_QA3|52=20180703-15:03:00.183|56=TRAX|10=190|8=FIXT.1.1|9=56|35=0|34=246|49=APA_QA3|52=20180703-15:03:31.190|56=TRAX|10=193|8=FIXT.1.1|9=56|35=0|34=247|49=APA_QA3|52=20180703-15:04:02.182|56=TRAX|10=194|8=FIXT.1.1|9=56|35=0|34=248|49=APA_QA3|52=20180703-15:04:32.193|56=TRAX|10=200|8=FIXT.1.1|9=56|35=0|34=249|49=APA_QA3|52=20180703-15:05:03.179|56=TRAX|10=204|8=FIXT.1.1|9=56|35=0|34=250|49=APA_QA3|52=20180703-15:05:33.179|56=TRAX|10=199|8=FIXT.1.1|9=56|35=0|34=251|49=APA_QA3|52=20180703-15:06:03.179|56=TRAX|10=198|8=FIXT.1.1|9=56|35=0|34=252|49=APA_QA3|52=20180703-15:06:34.178|56=TRAX|10=202|8=FIXT.1.1|9=56|35=0|34=253|49=APA_QA3|52=20180703-15:07:04.181|56=TRAX|10=195|8=FIXT.1.1|9=56|35=0|34=254|49=APA_QA3|52=20180703-15:07:34.181|56=TRAX|10=199|8=FIXT.1.1|9=56|35=0|34=255|49=APA_QA3|52=20180703-15:08:04.185|56=TRAX|10=202|8=FIXT.1.1|9=56|35=0|34=256|49=APA_QA3|52=20180703-15:08:35.185|56=TRAX|10=207|8=FIXT.1.1|9=56|35=0|34=257|49=APA_QA3|52=20180703-15:09:05.187|56=TRAX|10=208|8=FIXT.1.1|9=56|35=0|34=258|49=APA_QA3|52=20180703-15:09:36.177|56=TRAX|10=212|8=FIXT.1.1|9=56|35=0|34=259|49=APA_QA3|52=20180703-15:10:07.187|56=TRAX|10=204|8=FIXT.1.1|9=56|35=0|34=260|49=APA_QA3|52=20180703-15:10:38.180|56=TRAX|10=193|8=FIXT.1.1|9=56|35=0|34=261|49=APA_QA3|52=20180703-15:11:08.186|56=TRAX|10=198|8=FIXT.1.1|9=56|35=0|34=262|49=APA_QA3|52=20180703-15:11:39.171|56=TRAX|10=197|8=FIXT.1.1|9=56|35=0|34=263|49=APA_QA3|52=20180703-15:12:09.171|56=TRAX|10=196|8=FIXT.1.1|9=56|35=0|34=264|49=APA_QA3|52=20180703-15:12:39.171|56=TRAX|10=200|8=FIXT.1.1|9=56|35=0|34=265|49=APA_QA3|52=20180703-15:13:09.171|56=TRAX|10=199|8=FIXT.1.1|9=56|35=0|34=266|49=APA_QA3|52=20180703-15:13:39.171|56=TRAX|10=203|8=FIXT.1.1|9=56|35=0|34=267|49=APA_QA3|52=20180703-15:14:09.171|56=TRAX|10=202|8=FIXT.1.1|9=56|35=0|34=268|49=APA_QA3|52=20180703-15:14:40.181|56=TRAX|10=199|8=FIXT.1.1|9=56|35=0|34=269|49=APA_QA3|52=20180703-15:15:10.182|56=TRAX|10=199|8=FIXT.1.1|9=56|35=0|34=270|49=APA_QA3|52=20180703-15:15:40.183|56=TRAX|10=195|8=FIXT.1.1|9=56|35=0|34=271|49=APA_QA3|52=20180703-15:16:10.183|56=TRAX|10=194|8=FIXT.1.1|9=56|35=0|34=272|49=APA_QA3|52=20180703-15:16:41.183|56=TRAX|10=199|8=FIXT.1.1|9=56|35=0|34=273|49=APA_QA3|52=20180703-15:17:12.182|56=TRAX|10=198|8=FIXT.1.1|9=56|35=0|34=274|49=APA_QA3|52=20180703-15:17:42.182|56=TRAX|10=202|8=FIXT.1.1|9=56|35=0|34=275|49=APA_QA3|52=20180703-15:18:13.177|56=TRAX|10=206|8=FIXT.1.1|9=56|35=0|34=276|49=APA_QA3|52=20180703-15:18:43.177|56=TRAX|10=210|8=FIXT.1.1|9=56|35=0|34=277|49=APA_QA3|52=20180703-15:19:13.177|56=TRAX|10=209|8=FIXT.1.1|9=56|35=0|34=278|49=APA_QA3|52=20180703-15:19:43.948|56=TRAX|10=219|8=FIXT.1.1|9=56|35=0|34=279|49=APA_QA3|52=20180703-15:20:13.948|56=TRAX|10=209|8=FIXT.1.1|9=56|35=0|34=280|49=APA_QA3|52=20180703-15:20:43.948|56=TRAX|10=204|8=FIXT.1.1|9=56|35=0|34=281|49=APA_QA3|52=20180703-15:21:13.948|56=TRAX|10=203|8=FIXT.1.1|9=56|35=0|34=282|49=APA_QA3|52=20180703-15:21:43.954|56=TRAX|10=204|8=FIXT.1.1|9=56|35=0|34=283|49=APA_QA3|52=20180703-15:22:14.170|56=TRAX|10=194|8=FIXT.1.1|9=56|35=0|34=284|49=APA_QA3|52=20180703-15:22:44.170|56=TRAX|10=198|8=FIXT.1.1|9=56|35=0|34=285|49=APA_QA3|52=20180703-15:23:15.170|56=TRAX|10=198|8=FIXT.1.1|9=56|35=0|34=286|49=APA_QA3|52=20180703-15:23:46.168|56=TRAX|10=210|8=FIXT.1.1|9=56|35=0|34=287|49=APA_QA3|52=20180703-15:24:17.167|56=TRAX|10=209|8=FIXT.1.1|9=56|35=0|34=288|49=APA_QA3|52=20180703-15:24:47.185|56=TRAX|10=213|8=FIXT.1.1|9=56|35=0|34=289|49=APA_QA3|52=20180703-15:25:18.180|56=TRAX|10=208|8=FIXT.1.1|9=56|35=0|34=290|49=APA_QA3|52=20180703-15:25:48.180|56=TRAX|10=203|8=FIXT.1.1|9=56|35=0|34=291|49=APA_QA3|52=20180703-15:26:18.184|56=TRAX|10=206|8=FIXT.1.1|9=56|35=0|34=292|49=APA_QA3|52=20180703-15:26:49.179|56=TRAX|10=215|8=FIXT.1.1|9=56|35=0|34=293|49=APA_QA3|52=20180703-15:27:20.178|56=TRAX|10=205|8=FIXT.1.1|9=56|35=0|34=294|49=APA_QA3|52=20180703-15:27:51.175|56=TRAX|10=207|8=FIXT.1.1|9=56|35=0|34=295|49=APA_QA3|52=20180703-15:28:21.178|56=TRAX|10=209|8=FIXT.1.1|9=56|35=0|34=296|49=APA_QA3|52=20180703-15:28:52.173|56=TRAX|10=209|8=FIXT.1.1|9=56|35=0|34=297|49=APA_QA3|52=20180703-15:29:23.170|56=TRAX|10=206|8=FIXT.1.1|9=56|35=0|34=298|49=APA_QA3|52=20180703-15:29:54.170|56=TRAX|10=211|8=FIXT.1.1|9=56|35=0|34=299|49=APA_QA3|52=20180703-15:30:25.168|56=TRAX|10=209|8=FIXT.1.1|9=56|35=0|34=300|49=APA_QA3|52=20180703-15:30:55.170|56=TRAX|10=188|8=FIXT.1.1|9=56|35=0|34=301|49=APA_QA3|52=20180703-15:31:26.168|56=TRAX|10=195|8=FIXT.1.1|9=56|35=0|34=302|49=APA_QA3|52=20180703-15:31:56.168|56=TRAX|10=199|8=FIXT.1.1|9=56|35=0|34=303|49=APA_QA3|52=20180703-15:32:27.169|56=TRAX|10=200|8=FIXT.1.1|9=56|35=0|34=304|49=APA_QA3|52=20180703-15:32:57.170|56=TRAX|10=196|8=FIXT.1.1|9=56|35=0|34=305|49=APA_QA3|52=20180703-15:33:27.170|56=TRAX|10=195|8=FIXT.1.1|9=56|35=0|34=306|49=APA_QA3|52=20180703-15:33:57.170|56=TRAX|10=199|8=FIXT.1.1|9=56|35=0|34=307|49=APA_QA3|52=20180703-15:34:28.165|56=TRAX|10=203|8=FIXT.1.1|9=56|35=0|34=308|49=APA_QA3|52=20180703-15:34:58.177|56=TRAX|10=210|8=FIXT.1.1|9=56|35=0|34=309|49=APA_QA3|52=20180703-15:35:29.168|56=TRAX|10=210|8=FIXT.1.1|9=56|35=0|34=310|49=APA_QA3|52=20180703-15:35:59.169|56=TRAX|10=206|8=FIXT.1.1|9=56|35=0|34=311|49=APA_QA3|52=20180703-15:36:30.167|56=TRAX|10=195|8=FIXT.1.1|9=56|35=0|34=312|49=APA_QA3|52=20180703-15:37:00.170|56=TRAX|10=188|8=FIXT.1.1|9=56|35=0|34=313|49=APA_QA3|52=20180703-15:37:31.163|56=TRAX|10=195|8=FIXT.1.1|9=56|35=0|34=314|49=APA_QA3|52=20180703-15:38:01.170|56=TRAX|10=192|8=FIXT.1.1|9=56|35=0|34=315|49=APA_QA3|52=20180703-15:38:32.171|56=TRAX|10=198|8=FIXT.1.1|9=56|35=0|34=316|49=APA_QA3|52=20180703-15:39:03.164|56=TRAX|10=200|8=FIXT.1.1|9=56|35=0|34=317|49=APA_QA3|52=20180703-15:39:33.165|56=TRAX|10=205|8=FIXT.1.1|9=56|35=0|34=318|49=APA_QA3|52=20180703-15:40:04.163|56=TRAX|10=194|8=FIXT.1.1|9=56|35=0|34=319|49=APA_QA3|52=20180703-15:40:34.166|56=TRAX|10=201|8=FIXT.1.1|9=56|35=0|34=320|49=APA_QA3|52=20180703-15:41:05.162|56=TRAX|10=188|8=FIXT.1.1|9=56|35=0|34=321|49=APA_QA3|52=20180703-15:41:36.161|56=TRAX|10=192|8=FIXT.1.1|9=56|35=0|34=322|49=APA_QA3|52=20180703-15:42:06.161|56=TRAX|10=191|8=FIXT.1.1|9=56|35=0|34=323|49=APA_QA3|52=20180703-15:42:36.161|56=TRAX|10=195|8=FIXT.1.1|9=56|35=0|34=324|49=APA_QA3|52=20180703-15:43:06.166|56=TRAX|10=199|8=FIXT.1.1|9=56|35=0|34=325|49=APA_QA3|52=20180703-15:43:37.161|56=TRAX|10=199|8=FIXT.1.1|9=56|35=0|34=326|49=APA_QA3|52=20180703-15:44:08.160|56=TRAX|10=198|8=FIXT.1.1|9=56|35=0|34=327|49=APA_QA3|52=20180703-15:44:38.163|56=TRAX|10=205|8=FIXT.1.1|9=56|35=0|34=328|49=APA_QA3|52=20180703-15:45:09.159|56=TRAX|10=210|8=FIXT.1.1|9=56|35=0|34=329|49=APA_QA3|52=20180703-15:45:39.162|56=TRAX|10=208|8=FIXT.1.1|9=56|35=0|34=330|49=APA_QA3|52=20180703-15:46:09.176|56=TRAX|10=203|8=FIXT.1.1|9=56|35=0|34=331|49=APA_QA3|52=20180703-15:46:40.175|56=TRAX|10=198|8=FIXT.1.1|9=56|35=0|34=332|49=APA_QA3|52=20180703-15:47:11.171|56=TRAX|10=194|8=FIXT.1.1|9=56|35=0|34=333|49=APA_QA3|52=20180703-15:47:42.169|56=TRAX|10=206|8=FIXT.1.1|9=56|35=0|34=334|49=APA_QA3|52=20180703-15:48:12.170|56=TRAX|10=197|8=FIXT.1.1|9=56|35=0|34=335|49=APA_QA3|52=20180703-15:48:43.165|56=TRAX|10=206|8=FIXT.1.1|9=56|35=0|34=336|49=APA_QA3|52=20180703-15:49:13.947|56=TRAX|10=213|8=FIXT.1.1|9=56|35=0|34=337|49=APA_QA3|52=20180703-15:49:43.957|56=TRAX|10=218|8=FIXT.1.1|9=56|35=0|34=338|49=APA_QA3|52=20180703-15:50:13.957|56=TRAX|10=208|8=FIXT.1.1|9=56|35=0|34=339|49=APA_QA3|52=20180703-15:50:43.957|56=TRAX|10=212|8=FIXT.1.1|9=56|35=0|34=340|49=APA_QA3|52=20180703-15:51:14.156|56=TRAX|10=194|8=FIXT.1.1|9=56|35=0|34=341|49=APA_QA3|52=20180703-15:51:44.160|56=TRAX|10=193|8=FIXT.1.1|9=56|35=0|34=342|49=APA_QA3|52=20180703-15:52:14.160|56=TRAX|10=192|8=FIXT.1.1|9=56|35=0|34=343|49=APA_QA3|52=20180703-15:52:44.160|56=TRAX|10=196|8=FIXT.1.1|9=56|35=0|34=344|49=APA_QA3|52=20180703-15:53:14.163|56=TRAX|10=198|8=FIXT.1.1|9=56|35=0|34=345|49=APA_QA3|52=20180703-15:53:45.162|56=TRAX|10=202|8=FIXT.1.1|9=56|35=0|34=346|49=APA_QA3|52=20180703-15:54:15.162|56=TRAX|10=201|8=FIXT.1.1|9=56|35=0|34=347|49=APA_QA3|52=20180703-15:54:46.161|56=TRAX|10=205|8=FIXT.1.1|9=56|35=0|34=348|49=APA_QA3|52=20180703-15:55:16.161|56=TRAX|10=204|8=FIXT.1.1|9=56|35=0|34=349|49=APA_QA3|52=20180703-15:55:47.157|56=TRAX|10=214|8=FIXT.1.1|9=56|35=0|34=350|49=APA_QA3|52=20180703-15:56:17.160|56=TRAX|10=198|8=FIXT.1.1|9=56|35=0|34=351|49=APA_QA3|52=20180703-15:56:47.160|56=TRAX|10=202|8=FIXT.1.1|9=56|35=0|34=352|49=APA_QA3|52=20180703-15:57:17.160|56=TRAX|10=201|8=FIXT.1.1|9=56|35=0|34=353|49=APA_QA3|52=20180703-15:57:47.160|56=TRAX|10=205|8=FIXT.1.1|9=56|35=0|34=354|49=APA_QA3|52=20180703-15:58:17.160|56=TRAX|10=204|8=FIXT.1.1|9=56|35=0|34=355|49=APA_QA3|52=20180703-15:58:47.162|56=TRAX|10=210|8=FIXT.1.1|9=56|35=0|34=356|49=APA_QA3|52=20180703-15:59:18.178|56=TRAX|10=217|8=FIXT.1.1|9=56|35=0|34=357|49=APA_QA3|52=20180703-15:59:49.176|56=TRAX|10=220|8=FIXT.1.1|9=56|35=0|34=358|49=APA_QA3|52=20180703-16:00:20.170|56=TRAX|10=191|8=FIXT.1.1|9=56|35=0|34=359|49=APA_QA3|52=20180703-16:00:51.168|56=TRAX|10=203|8=FIXT.1.1|9=56|35=0|34=360|49=APA_QA3|52=20180703-16:01:22.166|56=TRAX|10=192|8=FIXT.1.1|9=56|35=0|34=361|49=APA_QA3|52=20180703-16:01:53.165|56=TRAX|10=196|8=FIXT.1.1|9=56|35=0|34=362|49=APA_QA3|52=20180703-16:02:24.161|56=TRAX|10=192|8=FIXT.1.1|9=56|35=0|34=363|49=APA_QA3|52=20180703-16:02:54.163|56=TRAX|10=198|8=FIXT.1.1|9=56|35=0|34=364|49=APA_QA3|52=20180703-16:03:24.168|56=TRAX|10=202|8=FIXT.1.1|9=56|35=0|34=365|49=APA_QA3|52=20180703-16:03:55.166|56=TRAX|10=205|8=FIXT.1.1|9=56|35=0|34=366|49=APA_QA3|52=20180703-16:04:26.161|56=TRAX|10=200|8=FIXT.1.1|9=56|35=0|34=367|49=APA_QA3|52=20180703-16:04:56.165|56=TRAX|10=208|8=FIXT.1.1|9=56|35=0|34=368|49=APA_QA3|52=20180703-16:05:27.157|56=TRAX|10=209|8=FIXT.1.1|9=56|35=0|34=369|49=APA_QA3|52=20180703-16:05:57.168|56=TRAX|10=215|8=FIXT.1.1|9=56|35=0|34=370|49=APA_QA3|52=20180703-16:06:28.159|56=TRAX|10=206|8=FIXT.1.1|9=56|35=0|34=371|49=APA_QA3|52=20180703-16:06:59.156|56=TRAX|10=208|8=FIXT.1.1|9=56|35=0|34=372|49=APA_QA3|52=20180703-16:07:29.162|56=TRAX|10=204|8=FIXT.1.1|9=56|35=0|34=373|49=APA_QA3|52=20180703-16:08:00.157|56=TRAX|10=199|8=FIXT.1.1|9=56|35=0|34=374|49=APA_QA3|52=20180703-16:08:30.169|56=TRAX|10=206|8=FIXT.1.1|9=56|35=0|34=375|49=APA_QA3|52=20180703-16:09:01.157|56=TRAX|10=203|8=FIXT.1.1|9=56|35=0|34=376|49=APA_QA3|52=20180703-16:09:32.154|56=TRAX|10=205|8=FIXT.1.1|9=56|35=0|34=377|49=APA_QA3|52=20180703-16:10:02.157|56=TRAX|10=198|8=FIXT.1.1|9=56|35=0|34=378|49=APA_QA3|52=20180703-16:10:33.152|56=TRAX|10=198|8=FIXT.1.1|9=56|35=0|34=379|49=APA_QA3|52=20180703-16:11:03.162|56=TRAX|10=198|8=FIXT.1.1|9=56|35=0|34=380|49=APA_QA3|52=20180703-16:11:34.157|56=TRAX|10=198|8=FIXT.1.1|9=56|35=0|34=381|49=APA_QA3|52=20180703-16:12:05.151|56=TRAX|10=192|8=FIXT.1.1|9=56|35=0|34=382|49=APA_QA3|52=20180703-16:12:35.160|56=TRAX|10=196|8=FIXT.1.1|9=56|35=0|34=383|49=APA_QA3|52=20180703-16:13:06.153|56=TRAX|10=198|8=FIXT.1.1|9=56|35=0|34=384|49=APA_QA3|52=20180703-16:13:36.158|56=TRAX|10=207|8=FIXT.1.1|9=56|35=0|34=385|49=APA_QA3|52=20180703-16:14:07.155|56=TRAX|10=204|8=FIXT.1.1|9=56|35=0|34=386|49=APA_QA3|52=20180703-16:14:37.160|56=TRAX|10=204|8=FIXT.1.1|9=56|35=0|34=387|49=APA_QA3|52=20180703-16:15:08.157|56=TRAX|10=210|8=FIXT.1.1|9=56|35=0|34=388|49=APA_QA3|52=20180703-16:15:38.170|56=TRAX|10=209|8=FIXT.1.1|9=56|35=0|34=389|49=APA_QA3|52=20180703-16:16:09.161|56=TRAX|10=209|8=FIXT.1.1|9=56|35=0|34=390|49=APA_QA3|52=20180703-16:16:40.153|56=TRAX|10=197|8=FIXT.1.1|9=56|35=0|34=391|49=APA_QA3|52=20180703-16:17:10.161|56=TRAX|10=195|8=FIXT.1.1|9=56|35=0|34=392|49=APA_QA3|52=20180703-16:17:41.151|56=TRAX|10=199|8=FIXT.1.1|9=56|35=0|34=393|49=APA_QA3|52=20180703-16:18:11.155|56=TRAX|10=202|8=FIXT.1.1|9=56|35=0|34=394|49=APA_QA3|52=20180703-16:18:42.149|56=TRAX|10=210|8=FIXT.1.1|9=56|35=0|34=395|49=APA_QA3|52=20180703-16:19:12.158|56=TRAX|10=209|8=FIXT.1.1|9=56|35=0|34=396|49=APA_QA3|52=20180703-16:19:42.161|56=TRAX|10=207|8=FIXT.1.1|9=56|35=0|34=397|49=APA_QA3|52=20180703-16:20:13.158|56=TRAX|10=204|8=FIXT.1.1|9=56|35=0|34=398|49=APA_QA3|52=20180703-16:20:43.950|56=TRAX|10=208|8=FIXT.1.1|9=56|35=0|34=399|49=APA_QA3|52=20180703-16:21:14.149|56=TRAX|10=208|8=FIXT.1.1|9=56|35=0|34=400|49=APA_QA3|52=20180703-16:21:44.153|56=TRAX|10=189|8=FIXT.1.1|9=56|35=0|34=401|49=APA_QA3|52=20180703-16:22:15.149|56=TRAX|10=194|8=FIXT.1.1|9=56|35=0|34=402|49=APA_QA3|52=20180703-16:22:45.156|56=TRAX|10=196|8=FIXT.1.1|9=56|35=0|34=403|49=APA_QA3|52=20180703-16:23:15.160|56=TRAX|10=190|8=FIXT.1.1|9=56|35=0|34=404|49=APA_QA3|52=20180703-16:23:46.154|56=TRAX|10=198|8=FIXT.1.1|9=56|35=0|34=405|49=APA_QA3|52=20180703-16:24:16.157|56=TRAX|10=200|8=FIXT.1.1|9=56|35=0|34=406|49=APA_QA3|52=20180703-16:24:47.156|56=TRAX|10=204|8=FIXT.1.1|9=56|35=0|34=407|49=APA_QA3|52=20180703-16:25:17.167|56=TRAX|10=205|8=FIXT.1.1|9=56|35=0|34=408|49=APA_QA3|52=20180703-16:25:48.157|56=TRAX|10=209|8=FIXT.1.1|9=56|35=0|34=409|49=APA_QA3|52=20180703-16:26:19.152|56=TRAX|10=204|8=FIXT.1.1|9=56|35=0|34=410|49=APA_QA3|52=20180703-16:26:49.160|56=TRAX|10=198|8=FIXT.1.1|9=56|35=0|34=411|49=APA_QA3|52=20180703-16:27:20.159|56=TRAX|10=197|8=FIXT.1.1|9=56|35=0|34=412|49=APA_QA3|52=20180703-16:27:51.149|56=TRAX|10=201|8=FIXT.1.1|9=56|35=0|34=413|49=APA_QA3|52=20180703-16:28:22.146|56=TRAX|10=198|8=FIXT.1.1|9=56|35=0|34=414|49=APA_QA3|52=20180703-16:28:52.147|56=TRAX|10=203|8=FIXT.1.1|9=56|35=0|34=415|49=APA_QA3|52=20180703-16:29:23.145|56=TRAX|10=201|8=FIXT.1.1|9=56|35=0|34=416|49=APA_QA3|52=20180703-16:29:53.155|56=TRAX|10=206|8=FIXT.1.1|9=56|35=0|34=417|49=APA_QA3|52=20180703-16:30:23.158|56=TRAX|10=199|8=FIXT.1.1|9=56|35=0|34=418|49=APA_QA3|52=20180703-16:30:54.153|56=TRAX|10=199|8=FIXT.1.1|9=56|35=0|34=419|49=APA_QA3|52=20180703-16:31:24.157|56=TRAX|10=202|8=FIXT.1.1|9=56|35=0|34=420|49=APA_QA3|52=20180703-16:31:55.154|56=TRAX|10=195|8=FIXT.1.1|9=56|35=0|34=421|49=APA_QA3|52=20180703-16:32:26.147|56=TRAX|10=197|8=FIXT.1.1|9=56|35=0|34=422|49=APA_QA3|52=20180703-16:32:56.156|56=TRAX|10=201|8=FIXT.1.1|9=56|35=0|34=423|49=APA_QA3|52=20180703-16:33:27.153|56=TRAX|10=198|8=FIXT.1.1|9=56|35=0|34=424|49=APA_QA3|52=20180703-16:33:57.156|56=TRAX|10=205|8=FIXT.1.1|9=56|35=0|34=425|49=APA_QA3|52=20180703-16:34:28.153|56=TRAX|10=202|8=FIXT.1.1|9=56|35=0|34=426|49=APA_QA3|52=20180703-16:34:59.149|56=TRAX|10=212|8=FIXT.1.1|9=56|35=0|34=427|49=APA_QA3|52=20180703-16:35:29.156|56=TRAX|10=209|8=FIXT.1.1|9=56|35=0|34=428|49=APA_QA3|52=20180703-16:36:00.148|56=TRAX|10=201|8=FIXT.1.1|9=56|35=0|34=429|49=APA_QA3|52=20180703-16:36:31.143|56=TRAX|10=201|8=FIXT.1.1|9=56|35=0|34=430|49=APA_QA3|52=20180703-16:37:01.159|56=TRAX|10=198|8=FIXT.1.1|9=56|35=0|34=431|49=APA_QA3|52=20180703-16:37:32.148|56=TRAX|10=201|8=FIXT.1.1|9=56|35=0|34=432|49=APA_QA3|52=20180703-16:38:02.154|56=TRAX|10=197|8=FIXT.1.1|9=56|35=0|34=433|49=APA_QA3|52=20180703-16:38:32.154|56=TRAX|10=201|8=FIXT.1.1|9=56|35=0|34=434|49=APA_QA3|52=20180703-16:39:03.150|56=TRAX|10=197|8=FIXT.1.1|9=56|35=0|34=435|49=APA_QA3|52=20180703-16:39:33.157|56=TRAX|10=208|8=FIXT.1.1|9=56|35=0|34=436|49=APA_QA3|52=20180703-16:40:04.147|56=TRAX|10=198|8=FIXT.1.1|9=56|35=0|34=437|49=APA_QA3|52=20180703-16:40:35.140|56=TRAX|10=196|8=FIXT.1.1|9=56|35=0|34=438|49=APA_QA3|52=20180703-16:41:05.148|56=TRAX|10=203|8=FIXT.1.1|9=56|35=0|34=439|49=APA_QA3|52=20180703-16:41:36.146|56=TRAX|10=206|8=FIXT.1.1|9=56|35=0|34=440|49=APA_QA3|52=20180703-16:42:07.142|56=TRAX|10=193|8=FIXT.1.1|9=56|35=0|34=441|49=APA_QA3|52=20180703-16:42:37.150|56=TRAX|10=196|8=FIXT.1.1|9=56|35=0|34=442|49=APA_QA3|52=20180703-16:43:07.158|56=TRAX|10=203|8=FIXT.1.1|9=56|35=0|34=443|49=APA_QA3|52=20180703-16:43:38.152|56=TRAX|10=202|8=FIXT.1.1|9=56|35=0|34=444|49=APA_QA3|52=20180703-16:44:09.148|56=TRAX|10=207|8=FIXT.1.1|9=56|35=0|34=445|49=APA_QA3|52=20180703-16:44:39.150|56=TRAX|10=204|8=FIXT.1.1|9=56|35=0|34=446|49=APA_QA3|52=20180703-16:45:10.143|56=TRAX|10=197|8=FIXT.1.1|9=56|35=0|34=447|49=APA_QA3|52=20180703-16:45:40.149|56=TRAX|10=207|8=FIXT.1.1|9=56|35=0|34=448|49=APA_QA3|52=20180703-16:46:11.144|56=TRAX|10=202|8=FIXT.1.1|9=56|35=0|34=449|49=APA_QA3|52=20180703-16:46:41.154|56=TRAX|10=207|8=FIXT.1.1|9=56|35=0|34=450|49=APA_QA3|52=20180703-16:47:12.141|56=TRAX|10=194|8=FIXT.1.1|9=56|35=0|34=451|49=APA_QA3|52=20180703-16:47:42.151|56=TRAX|10=199|8=FIXT.1.1|9=56|35=0|34=452|49=APA_QA3|52=20180703-16:48:12.151|56=TRAX|10=198|8=FIXT.1.1|9=56|35=0|34=453|49=APA_QA3|52=20180703-16:48:43.144|56=TRAX|10=205|8=FIXT.1.1|9=56|35=0|34=454|49=APA_QA3|52=20180703-16:49:13.158|56=TRAX|10=209|8=FIXT.1.1|9=56|35=0|34=455|49=APA_QA3|52=20180703-16:49:43.947|56=TRAX|10=219|8=FIXT.1.1|9=56|35=0|34=456|49=APA_QA3|52=20180703-16:50:14.143|56=TRAX|10=198|8=FIXT.1.1|9=56|35=0|34=457|49=APA_QA3|52=20180703-16:50:45.138|56=TRAX|10=207|8=FIXT.1.1|9=56|35=0|34=458|49=APA_QA3|52=20180703-16:51:15.149|56=TRAX|10=208|8=FIXT.1.1|9=56|35=0|34=459|49=APA_QA3|52=20180703-16:51:46.137|56=TRAX|10=210|8=FIXT.1.1|9=56|35=0|34=460|49=APA_QA3|52=20180703-16:52:16.150|56=TRAX|10=195|8=FIXT.1.1|9=56|35=0|34=461|49=APA_QA3|52=20180703-16:52:47.142|56=TRAX|10=201|8=FIXT.1.1|9=56|35=0|34=462|49=APA_QA3|52=20180703-16:53:18.137|56=TRAX|10=205|8=FIXT.1.1|9=56|35=0|34=463|49=APA_QA3|52=20180703-16:53:48.151|56=TRAX|10=205|8=FIXT.1.1|9=56|35=0|34=464|49=APA_QA3|52=20180703-16:54:19.143|56=TRAX|10=206|8=FIXT.1.1|9=56|35=0|34=465|49=APA_QA3|52=20180703-16:54:50.135|56=TRAX|10=203|8=FIXT.1.1|9=56|35=0|34=466|49=APA_QA3|52=20180703-16:55:20.143|56=TRAX|10=201|8=FIXT.1.1|9=56|35=0|34=467|49=APA_QA3|52=20180703-16:55:51.142|56=TRAX|10=205|8=FIXT.1.1|9=56|35=0|34=468|49=APA_QA3|52=20180703-16:56:22.142|56=TRAX|10=205|8=FIXT.1.1|9=56|35=0|34=469|49=APA_QA3|52=20180703-16:56:53.139|56=TRAX|10=216|8=FIXT.1.1|9=56|35=0|34=470|49=APA_QA3|52=20180703-16:57:23.151|56=TRAX|10=200|8=FIXT.1.1|9=56|35=0|34=471|49=APA_QA3|52=20180703-16:57:54.142|56=TRAX|10=205|8=FIXT.1.1|9=56|35=0|34=472|49=APA_QA3|52=20180703-16:58:25.138|56=TRAX|10=210|8=FIXT.1.1|9=56|35=0|34=473|49=APA_QA3|52=20180703-16:58:56.135|56=TRAX|10=212|8=FIXT.1.1|9=56|35=0|34=474|49=APA_QA3|52=20180703-16:59:26.142|56=TRAX|10=209|8=FIXT.1.1|9=56|35=0|34=475|49=APA_QA3|52=20180703-16:59:57.135|56=TRAX|10=216|8=FIXT.1.1|9=56|35=0|34=476|49=APA_QA3|52=20180703-17:00:27.146|56=TRAX|10=203|8=FIXT.1.1|9=56|35=0|34=477|49=APA_QA3|52=20180703-17:00:58.135|56=TRAX|10=206|8=FIXT.1.1|9=56|35=0|34=478|49=APA_QA3|52=20180703-17:01:28.145|56=TRAX|10=206|8=FIXT.1.1|9=56|35=0|34=479|49=APA_QA3|52=20180703-17:01:59.145|56=TRAX|10=211|8=FIXT.1.1|9=56|35=0|34=480|49=APA_QA3|52=20180703-17:02:30.134|56=TRAX|10=191|8=FIXT.1.1|9=56|35=0|34=481|49=APA_QA3|52=20180703-17:03:00.146|56=TRAX|10=193|8=FIXT.1.1|9=56|35=0|34=482|49=APA_QA3|52=20180703-17:03:31.137|56=TRAX|10=198|8=FIXT.1.1|9=56|35=0|34=483|49=APA_QA3|52=20180703-17:04:02.135|56=TRAX|10=196|8=FIXT.1.1|9=56|35=0|34=484|49=APA_QA3|52=20180703-17:04:33.135|56=TRAX|10=201|8=FIXT.1.1|9=56|35=0|34=485|49=APA_QA3|52=20180703-17:05:04.133|56=TRAX|10=199|8=FIXT.1.1|9=56|35=0|34=486|49=APA_QA3|52=20180703-17:05:34.142|56=TRAX|10=203|8=FIXT.1.1|9=56|35=0|34=487|49=APA_QA3|52=20180703-17:06:05.134|56=TRAX|10=204|8=FIXT.1.1|9=56|35=0|34=488|49=APA_QA3|52=20180703-17:06:36.133|56=TRAX|10=208|8=FIXT.1.1|9=56|35=0|34=489|49=APA_QA3|52=20180703-17:07:06.135|56=TRAX|10=209|8=FIXT.1.1|9=56|35=0|34=490|49=APA_QA3|52=20180703-17:07:37.134|56=TRAX|10=204|8=FIXT.1.1|9=56|35=0|34=491|49=APA_QA3|52=20180703-17:08:07.139|56=TRAX|10=208|8=FIXT.1.1|9=56|35=0|34=492|49=APA_QA3|52=20180703-17:08:38.138|56=TRAX|10=212|8=FIXT.1.1|9=56|35=0|34=493|49=APA_QA3|52=20180703-17:09:08.150|56=TRAX|10=205|8=FIXT.1.1|9=56|35=0|34=494|49=APA_QA3|52=20180703-17:09:39.142|56=TRAX|10=211|8=FIXT.1.1|9=56|35=0|34=495|49=APA_QA3|52=20180703-17:10:10.135|56=TRAX|10=195|8=FIXT.1.1|9=56|35=0|34=496|49=APA_QA3|52=20180703-17:10:40.135|56=TRAX|10=199|8=FIXT.1.1|9=56|35=0|34=497|49=APA_QA3|52=20180703-17:11:10.143|56=TRAX|10=197|8=FIXT.1.1|9=56|35=0|34=498|49=APA_QA3|52=20180703-17:11:41.131|56=TRAX|10=199|8=FIXT.1.1|9=56|35=0|34=499|49=APA_QA3|52=20180703-17:12:12.131|56=TRAX|10=199|8=FIXT.1.1|9=56|35=0|34=500|49=APA_QA3|52=20180703-17:12:42.146|56=TRAX|10=191|8=FIXT.1.1|9=56|35=0|34=501|49=APA_QA3|52=20180703-17:13:13.128|56=TRAX|10=191|8=FIXT.1.1|9=56|35=0|34=502|49=APA_QA3|52=20180703-17:13:43.136|56=TRAX|10=194|8=FIXT.1.1|9=56|35=0|34=503|49=APA_QA3|52=20180703-17:14:13.948|56=TRAX|10=204|8=FIXT.1.1|9=56|35=0|34=504|49=APA_QA3|52=20180703-17:14:43.956|56=TRAX|10=207|8=FIXT.1.1|9=56|35=0|34=505|49=APA_QA3|52=20180703-17:15:14.127|56=TRAX|10=197|8=FIXT.1.1|9=56|35=0|34=506|49=APA_QA3|52=20180703-17:15:44.130|56=TRAX|10=195|8=FIXT.1.1|9=56|35=0|34=507|49=APA_QA3|52=20180703-17:16:14.138|56=TRAX|10=202|8=FIXT.1.1|9=56|35=0|34=508|49=APA_QA3|52=20180703-17:16:45.132|56=TRAX|10=201|8=FIXT.1.1|9=56|35=0|34=509|49=APA_QA3|52=20180703-17:17:15.136|56=TRAX|10=204|8=FIXT.1.1|9=56|35=0|34=510|49=APA_QA3|52=20180703-17:17:45.136|56=TRAX|10=199|8=FIXT.1.1|9=56|35=0|34=511|49=APA_QA3|52=20180703-17:18:16.130|56=TRAX|10=193|8=FIXT.1.1|9=56|35=0|34=512|49=APA_QA3|52=20180703-17:18:47.130|56=TRAX|10=198|8=FIXT.1.1|9=56|35=0|34=513|49=APA_QA3|52=20180703-17:19:17.135|56=TRAX|10=202|8=FIXT.1.1|9=56|35=0|34=514|49=APA_QA3|52=20180703-17:19:48.134|56=TRAX|10=206|8=FIXT.1.1|9=56|35=0|34=515|49=APA_QA3|52=20180703-17:20:18.144|56=TRAX|10=197|8=FIXT.1.1|9=56|35=0|34=516|49=APA_QA3|52=20180703-17:20:49.136|56=TRAX|10=203|8=FIXT.1.1|9=56|35=0|34=517|49=APA_QA3|52=20180703-17:21:20.133|56=TRAX|10=191|8=FIXT.1.1|9=56|35=0|34=518|49=APA_QA3|52=20180703-17:21:51.129|56=TRAX|10=201|8=FIXT.1.1|9=56|35=0|34=519|49=APA_QA3|52=20180703-17:22:22.127|56=TRAX|10=199|8=FIXT.1.1|9=56|35=0|34=520|49=APA_QA3|52=20180703-17:22:52.130|56=TRAX|10=188|8=FIXT.1.1|9=56|35=0|34=521|49=APA_QA3|52=20180703-17:23:23.130|56=TRAX|10=188|8=FIXT.1.1|9=56|35=0|34=522|49=APA_QA3|52=20180703-17:23:53.135|56=TRAX|10=197|8=FIXT.1.1|9=56|35=0|34=523|49=APA_QA3|52=20180703-17:24:24.129|56=TRAX|10=200|8=FIXT.1.1|9=56|35=0|34=524|49=APA_QA3|52=20180703-17:24:54.141|56=TRAX|10=198|8=FIXT.1.1|9=56|35=0|34=525|49=APA_QA3|52=20180703-17:25:25.126|56=TRAX|10=201|8=FIXT.1.1|9=56|35=0|34=526|49=APA_QA3|52=20180703-17:25:55.134|56=TRAX|10=204|8=FIXT.1.1|9=56|35=0|34=527|49=APA_QA3|52=20180703-17:26:26.125|56=TRAX|10=204|8=FIXT.1.1|9=56|35=0|34=528|49=APA_QA3|52=20180703-17:26:56.131|56=TRAX|10=205|8=FIXT.1.1|9=56|35=0|34=529|49=APA_QA3|52=20180703-17:27:26.139|56=TRAX|10=212|8=FIXT.1.1|9=56|35=0|34=530|49=APA_QA3|52=20180703-17:27:57.128|56=TRAX|10=206|8=FIXT.1.1|9=56|35=0|34=531|49=APA_QA3|52=20180703-17:28:28.136|56=TRAX|10=205|8=FIXT.1.1|9=56|35=0|34=532|49=APA_QA3|52=20180703-17:28:59.123|56=TRAX|10=206|8=FIXT.1.1|9=56|35=0|34=533|49=APA_QA3|52=20180703-17:29:29.131|56=TRAX|10=204|8=FIXT.1.1|9=56|35=0|34=534|49=APA_QA3|52=20180703-17:29:59.141|56=TRAX|10=209|8=FIXT.1.1|9=56|35=0|34=535|49=APA_QA3|52=20180703-17:30:30.124|56=TRAX|10=192|8=FIXT.1.1|9=56|35=0|34=536|49=APA_QA3|52=20180703-17:31:00.135|56=TRAX|10=193|8=FIXT.1.1|9=56|35=0|34=537|49=APA_QA3|52=20180703-17:31:31.125|56=TRAX|10=197|8=FIXT.1.1|9=56|35=0|34=538|49=APA_QA3|52=20180703-17:32:01.134|56=TRAX|10=196|8=FIXT.1.1|9=56|35=0|34=539|49=APA_QA3|52=20180703-17:32:32.127|56=TRAX|10=203|8=FIXT.1.1|9=56|35=0|34=540|49=APA_QA3|52=20180703-17:33:02.134|56=TRAX|10=191|8=FIXT.1.1|9=56|35=0|34=541|49=APA_QA3|52=20180703-17:33:33.132|56=TRAX|10=194|8=FIXT.1.1|9=56|35=0|34=542|49=APA_QA3|52=20180703-17:34:04.121|56=TRAX|10=192|8=FIXT.1.1|9=56|35=0|34=543|49=APA_QA3|52=20180703-17:34:34.127|56=TRAX|10=202|8=FIXT.1.1|9=56|35=0|34=544|49=APA_QA3|52=20180703-17:35:04.130|56=TRAX|10=195|8=FIXT.1.1|9=56|35=0|34=545|49=APA_QA3|52=20180703-17:35:35.122|56=TRAX|10=201|8=FIXT.1.1|9=56|35=0|34=546|49=APA_QA3|52=20180703-17:36:05.132|56=TRAX|10=201|8=FIXT.1.1|9=56|35=0|34=547|49=APA_QA3|52=20180703-17:36:36.121|56=TRAX|10=204|8=FIXT.1.1|9=56|35=0|34=548|49=APA_QA3|52=20180703-17:37:06.127|56=TRAX|10=209|8=FIXT.1.1|9=56|35=0|34=549|49=APA_QA3|52=20180703-17:37:36.127|56=TRAX|10=213|8=FIXT.1.1|9=56|35=0|34=550|49=APA_QA3|52=20180703-17:38:07.124|56=TRAX|10=201|8=FIXT.1.1|9=56|35=0|34=551|49=APA_QA3|52=20180703-17:38:37.139|56=TRAX|10=211|8=FIXT.1.1|9=56|35=0|34=552|49=APA_QA3|52=20180703-17:39:08.126|56=TRAX|10=207|8=FIXT.1.1|9=56|35=0|34=553|49=APA_QA3|52=20180703-17:39:39.121|56=TRAX|10=207|8=FIXT.1.1|9=56|35=0|34=554|49=APA_QA3|52=20180703-17:40:09.123|56=TRAX|10=199|8=FIXT.1.1|9=56|35=0|34=555|49=APA_QA3|52=20180703-17:40:40.120|56=TRAX|10=192|8=FIXT.1.1|9=56|35=0|34=556|49=APA_QA3|52=20180703-17:41:10.124|56=TRAX|10=195|8=FIXT.1.1|9=56|35=0|34=557|49=APA_QA3|52=20180703-17:41:41.119|56=TRAX|10=204|8=FIXT.1.1|9=56|35=0|34=558|49=APA_QA3|52=20180703-17:42:11.128|56=TRAX|10=203|8=FIXT.1.1|9=56|35=0|34=559|49=APA_QA3|52=20180703-17:42:42.121|56=TRAX|10=201|8=FIXT.1.1|9=56|35=0|34=560|49=APA_QA3|52=20180703-17:43:13.120|56=TRAX|10=191|8=FIXT.1.1|9=56|35=0|34=561|49=APA_QA3|52=20180703-17:43:43.127|56=TRAX|10=202|8=FIXT.1.1|9=56|35=0|34=562|49=APA_QA3|52=20180703-17:44:13.951|56=TRAX|10=206|8=FIXT.1.1|9=56|35=0|34=563|49=APA_QA3|52=20180703-17:44:44.123|56=TRAX|10=202|8=FIXT.1.1|9=56|35=0|34=564|49=APA_QA3|52=20180703-17:45:15.120|56=TRAX|10=199|8=FIXT.1.1|9=56|35=0|34=565|49=APA_QA3|52=20180703-17:45:45.131|56=TRAX|10=205|8=FIXT.1.1|9=56|35=0|34=566|49=APA_QA3|52=20180703-17:46:16.127|56=TRAX|10=210|8=FIXT.1.1|9=56|35=0|34=567|49=APA_QA3|52=20180703-17:46:47.119|56=TRAX|10=216|8=FIXT.1.1|9=56|35=0|34=568|49=APA_QA3|52=20180703-17:47:17.120|56=TRAX|10=207|8=FIXT.1.1|9=56|35=0|34=569|49=APA_QA3|52=20180703-17:47:48.117|56=TRAX|10=218|8=FIXT.1.1|9=56|35=0|34=570|49=APA_QA3|52=20180703-17:48:18.122|56=TRAX|10=204|8=FIXT.1.1|9=56|35=0|34=571|49=APA_QA3|52=20180703-17:48:48.122|56=TRAX|10=208|8=FIXT.1.1|9=56|35=0|34=572|49=APA_QA3|52=20180703-17:49:18.128|56=TRAX|10=213|8=FIXT.1.1|9=56|35=0|34=573|49=APA_QA3|52=20180703-17:49:49.115|56=TRAX|10=214|8=FIXT.1.1|9=56|35=0|34=574|49=APA_QA3|52=20180703-17:50:19.117|56=TRAX|10=206|8=FIXT.1.1|9=56|35=0|34=575|49=APA_QA3|52=20180703-17:50:49.123|56=TRAX|10=207|8=FIXT.1.1|9=56|35=0|34=576|49=APA_QA3|52=20180703-17:51:19.128|56=TRAX|10=211|8=FIXT.1.1|9=56|35=0|34=577|49=APA_QA3|52=20180703-17:51:50.127|56=TRAX|10=206|8=FIXT.1.1|9=56|35=0|34=578|49=APA_QA3|52=20180703-17:52:21.118|56=TRAX|10=206|8=FIXT.1.1|9=56|35=0|34=579|49=APA_QA3|52=20180703-17:52:51.126|56=TRAX|10=209|8=FIXT.1.1|9=56|35=0|34=580|49=APA_QA3|52=20180703-17:53:22.119|56=TRAX|10=202|8=FIXT.1.1|9=56|35=0|34=581|49=APA_QA3|52=20180703-17:53:53.115|56=TRAX|10=203|8=FIXT.1.1|9=56|35=0|34=582|49=APA_QA3|52=20180703-17:54:23.117|56=TRAX|10=204|8=FIXT.1.1|9=56|35=0|34=583|49=APA_QA3|52=20180703-17:54:53.117|56=TRAX|10=208|8=FIXT.1.1|9=56|35=0|34=584|49=APA_QA3|52=20180703-17:55:24.115|56=TRAX|10=206|8=FIXT.1.1|9=56|35=0|34=585|49=APA_QA3|52=20180703-17:55:54.125|56=TRAX|10=211|8=FIXT.1.1|9=56|35=0|34=586|49=APA_QA3|52=20180703-17:56:25.119|56=TRAX|10=214|8=FIXT.1.1|9=56|35=0|34=587|49=APA_QA3|52=20180703-17:56:56.113|56=TRAX|10=213|8=FIXT.1.1|9=56|35=0|34=588|49=APA_QA3|52=20180703-17:57:26.114|56=TRAX|10=213|8=FIXT.1.1|9=56|35=0|34=589|49=APA_QA3|52=20180703-17:57:56.123|56=TRAX|10=217|8=FIXT.1.1|9=56|35=0|34=590|49=APA_QA3|52=20180703-17:58:27.119|56=TRAX|10=213|8=FIXT.1.1|9=56|35=0|34=591|49=APA_QA3|52=20180703-17:58:58.115|56=TRAX|10=214|8=FIXT.1.1|9=56|35=0|34=592|49=APA_QA3|52=20180703-17:59:29.111|56=TRAX|10=210|8=FIXT.1.1|9=56|35=0|34=593|49=APA_QA3|52=20180703-18:00:00.110|56=TRAX|10=186|8=FIXT.1.1|9=56|35=0|34=594|49=APA_QA3|52=20180703-18:00:30.118|56=TRAX|10=198|8=FIXT.1.1|9=56|35=0|34=595|49=APA_QA3|52=20180703-18:01:00.124|56=TRAX|10=194|8=FIXT.1.1|9=56|35=0|34=596|49=APA_QA3|52=20180703-18:01:31.114|56=TRAX|10=198|8=FIXT.1.1|9=56|35=0|34=597|49=APA_QA3|52=20180703-18:02:01.119|56=TRAX|10=202|8=FIXT.1.1|9=56|35=0|34=598|49=APA_QA3|52=20180703-18:02:31.119|56=TRAX|10=206|8=FIXT.1.1|9=56|35=0|34=599|49=APA_QA3|52=20180703-18:03:02.111|56=TRAX|10=198|8=FIXT.1.1|9=56|35=0|34=600|49=APA_QA3|52=20180703-18:03:32.117|56=TRAX|10=190|8=FIXT.1.1|9=56|35=0|34=601|49=APA_QA3|52=20180703-18:04:03.114|56=TRAX|10=187|8=FIXT.1.1|9=56|35=0|34=602|49=APA_QA3|52=20180703-18:04:33.117|56=TRAX|10=194|8=FIXT.1.1|9=56|35=0|34=603|49=APA_QA3|52=20180703-18:05:04.109|56=TRAX|10=195|8=FIXT.1.1|9=56|35=0|34=604|49=APA_QA3|52=20180703-18:05:34.113|56=TRAX|10=194|8=FIXT.1.1|9=56|35=0|34=605|49=APA_QA3|52=20180703-18:06:05.110|56=TRAX|10=191|8=FIXT.1.1|9=56|35=0|34=606|49=APA_QA3|52=20180703-18:06:35.120|56=TRAX|10=196|8=FIXT.1.1|9=56|35=0|34=607|49=APA_QA3|52=20180703-18:07:06.113|56=TRAX|10=198|8=FIXT.1.1|9=56|35=0|34=608|49=APA_QA3|52=20180703-18:07:37.108|56=TRAX|10=207|8=FIXT.1.1|9=56|35=0|34=609|49=APA_QA3|52=20180703-18:08:07.116|56=TRAX|10=205|8=FIXT.1.1|9=56|35=0|34=610|49=APA_QA3|52=20180703-18:08:37.120|56=TRAX|10=195|8=FIXT.1.1|9=56|35=0|34=611|49=APA_QA3|52=20180703-18:09:08.109|56=TRAX|10=202|8=FIXT.1.1|9=56|35=0|34=612|49=APA_QA3|52=20180703-18:09:38.119|56=TRAX|10=207|8=FIXT.1.1|9=56|35=0|34=613|49=APA_QA3|52=20180703-18:10:09.117|56=TRAX|10=196|8=FIXT.1.1|9=56|35=0|34=614|49=APA_QA3|52=20180703-18:10:40.105|56=TRAX|10=189|8=FIXT.1.1|9=56|35=0|34=615|49=APA_QA3|52=20180703-18:11:10.109|56=TRAX|10=192|8=FIXT.1.1|9=56|35=0|34=616|49=APA_QA3|52=20180703-18:11:40.112|56=TRAX|10=190|8=FIXT.1.1|9=56|35=0|34=617|49=APA_QA3|52=20180703-18:12:11.112|56=TRAX|10=190|8=FIXT.1.1|9=56|35=0|34=618|49=APA_QA3|52=20180703-18:12:41.125|56=TRAX|10=198|8=FIXT.1.1|9=56|35=0|34=619|49=APA_QA3|52=20180703-18:13:12.112|56=TRAX|10=194|8=FIXT.1.1|9=56|35=0|34=620|49=APA_QA3|52=20180703-18:13:43.105|56=TRAX|10=192|8=FIXT.1.1|9=56|35=0|34=621|49=APA_QA3|52=20180703-18:14:13.107|56=TRAX|10=193|8=FIXT.1.1|9=56|35=0|34=622|49=APA_QA3|52=20180703-18:14:43.115|56=TRAX|10=196|8=FIXT.1.1|9=56|35=0|34=623|49=APA_QA3|52=20180703-18:15:13.944|56=TRAX|10=205|8=FIXT.1.1|9=56|35=0|34=624|49=APA_QA3|52=20180703-18:15:43.954|56=TRAX|10=210|8=FIXT.1.1|9=56|35=0|34=625|49=APA_QA3|52=20180703-18:16:14.115|56=TRAX|10=199|8=FIXT.1.1|9=56|35=0|34=626|49=APA_QA3|52=20180703-18:16:44.115|56=TRAX|10=203|8=FIXT.1.1|9=56|35=0|34=627|49=APA_QA3|52=20180703-18:17:15.113|56=TRAX|10=201|8=FIXT.1.1|9=56|35=0|34=628|49=APA_QA3|52=20180703-18:17:45.116|56=TRAX|10=208|8=FIXT.1.1|9=56|35=0|34=629|49=APA_QA3|52=20180703-18:18:15.116|56=TRAX|10=207|8=FIXT.1.1|9=56|35=0|34=630|49=APA_QA3|52=20180703-18:18:46.107|56=TRAX|10=203|8=FIXT.1.1|9=56|35=0|34=631|49=APA_QA3|52=20180703-18:19:16.113|56=TRAX|10=199|8=FIXT.1.1|9=56|35=0|34=632|49=APA_QA3|52=20180703-18:19:47.107|56=TRAX|10=207|8=FIXT.1.1|9=56|35=0|34=633|49=APA_QA3|52=20180703-18:20:17.111|56=TRAX|10=192|8=FIXT.1.1|9=56|35=0|34=634|49=APA_QA3|52=20180703-18:20:48.103|56=TRAX|10=198|8=FIXT.1.1|9=56|35=0|34=635|49=APA_QA3|52=20180703-18:21:18.104|56=TRAX|10=198|8=FIXT.1.1|9=56|35=0|34=636|49=APA_QA3|52=20180703-18:21:48.113|56=TRAX|10=202|8=FIXT.1.1|9=56|35=0|34=637|49=APA_QA3|52=20180703-18:22:19.110|56=TRAX|10=199|8=FIXT.1.1|9=56|35=0|34=638|49=APA_QA3|52=20180703-18:22:49.114|56=TRAX|10=207|8=FIXT.1.1|9=56|35=0|34=639|49=APA_QA3|52=20180703-18:23:20.109|56=TRAX|10=202|8=FIXT.1.1|9=56|35=0|34=640|49=APA_QA3|52=20180703-18:23:51.109|56=TRAX|10=198|8=FIXT.1.1|9=56|35=0|34=641|49=APA_QA3|52=20180703-18:24:22.107|56=TRAX|10=196|8=FIXT.1.1|9=56|35=0|34=642|49=APA_QA3|52=20180703-18:24:52.121|56=TRAX|10=196|8=FIXT.1.1|9=56|35=0|34=643|49=APA_QA3|52=20180703-18:25:23.114|56=TRAX|10=198|8=FIXT.1.1|9=56|35=0|34=644|49=APA_QA3|52=20180703-18:25:54.113|56=TRAX|10=202|8=FIXT.1.1|9=56|35=0|34=645|49=APA_QA3|52=20180703-18:26:25.104|56=TRAX|10=202|8=FIXT.1.1|9=56|35=0|34=646|49=APA_QA3|52=20180703-18:26:55.111|56=TRAX|10=204|8=FIXT.1.1|9=56|35=0|34=647|49=APA_QA3|52=20180703-18:27:26.104|56=TRAX|10=206|8=FIXT.1.1|9=56|35=0|34=648|49=APA_QA3|52=20180703-18:27:57.102|56=TRAX|10=209|8=FIXT.1.1|9=56|35=0|34=649|49=APA_QA3|52=20180703-18:28:27.106|56=TRAX|10=212|8=FIXT.1.1|9=56|35=0|34=650|49=APA_QA3|52=20180703-18:28:58.102|56=TRAX|10=204|8=FIXT.1.1|9=56|35=0|34=651|49=APA_QA3|52=20180703-18:29:28.115|56=TRAX|10=207|8=FIXT.1.1|9=56|35=0|34=652|49=APA_QA3|52=20180703-18:29:59.106|56=TRAX|10=212|8=FIXT.1.1|9=56|35=0|34=653|49=APA_QA3|52=20180703-18:30:30.100|56=TRAX|10=188|8=FIXT.1.1|9=56|35=0|34=654|49=APA_QA3|52=20180703-18:31:00.105|56=TRAX|10=192|8=FIXT.1.1|9=56|35=0|34=655|49=APA_QA3|52=20180703-18:31:31.100|56=TRAX|10=192|8=FIXT.1.1|9=56|35=0|34=656|49=APA_QA3|52=20180703-18:32:01.107|56=TRAX|10=198|8=FIXT.1.1|9=56|35=0|34=657|49=APA_QA3|52=20180703-18:32:32.101|56=TRAX|10=197|8=FIXT.1.1|9=56|35=0|34=658|49=APA_QA3|52=20180703-18:33:02.109|56=TRAX|10=204|8=FIXT.1.1|9=56|35=0|34=659|49=APA_QA3|52=20180703-18:33:33.100|56=TRAX|10=200|8=FIXT.1.1|9=56|35=0|34=660|49=APA_QA3|52=20180703-18:34:03.110|56=TRAX|10=191|8=FIXT.1.1|9=56|35=0|34=661|49=APA_QA3|52=20180703-18:34:34.101|56=TRAX|10=196|8=FIXT.1.1|9=56|35=0|34=662|49=APA_QA3|52=20180703-18:35:04.107|56=TRAX|10=201|8=FIXT.1.1|9=56|35=0|34=663|49=APA_QA3|52=20180703-18:35:35.098|56=TRAX|10=215|8=FIXT.1.1|9=56|35=0|34=664|49=APA_QA3|52=20180703-18:36:05.103|56=TRAX|10=201|8=FIXT.1.1|9=56|35=0|34=665|49=APA_QA3|52=20180703-18:36:35.110|56=TRAX|10=203|8=FIXT.1.1|9=56|35=0|34=666|49=APA_QA3|52=20180703-18:37:06.098|56=TRAX|10=218|8=FIXT.1.1|9=56|35=0|34=667|49=APA_QA3|52=20180703-18:37:36.106|56=TRAX|10=212|8=FIXT.1.1|9=56|35=0|34=668|49=APA_QA3|52=20180703-18:38:06.115|56=TRAX|10=211|8=FIXT.1.1|9=56|35=0|34=669|49=APA_QA3|52=20180703-18:38:37.095|56=TRAX|10=223|8=FIXT.1.1|9=56|35=0|34=670|49=APA_QA3|52=20180703-18:39:07.102|56=TRAX|10=202|8=FIXT.1.1|9=56|35=0|34=671|49=APA_QA3|52=20180703-18:39:37.103|56=TRAX|10=207|8=FIXT.1.1|9=56|35=0|34=672|49=APA_QA3|52=20180703-18:40:08.099|56=TRAX|10=212|8=FIXT.1.1|9=56|35=0|34=673|49=APA_QA3|52=20180703-18:40:38.108|56=TRAX|10=207|8=FIXT.1.1|9=56|35=0|34=674|49=APA_QA3|52=20180703-18:41:09.106|56=TRAX|10=205|8=FIXT.1.1|9=56|35=0|34=675|49=APA_QA3|52=20180703-18:41:40.095|56=TRAX|10=208|8=FIXT.1.1|9=56|35=0|34=676|49=APA_QA3|52=20180703-18:42:10.102|56=TRAX|10=196|8=FIXT.1.1|9=56|35=0|34=677|49=APA_QA3|52=20180703-18:42:41.097|56=TRAX|10=214|8=FIXT.1.1|9=56|35=0|34=678|49=APA_QA3|52=20180703-18:43:11.099|56=TRAX|10=215|8=FIXT.1.1|9=56|35=0|34=679|49=APA_QA3|52=20180703-18:43:42.097|56=TRAX|10=218|8=FIXT.1.1|9=56|35=0|34=680|49=APA_QA3|52=20180703-18:44:12.100|56=TRAX|10=193|8=FIXT.1.1|9=56|35=0|34=681|49=APA_QA3|52=20180703-18:44:43.096|56=TRAX|10=212|8=FIXT.1.1|9=56|35=0|34=682|49=APA_QA3|52=20180703-18:45:13.111|56=TRAX|10=199|8=FIXT.1.1|9=56|35=0|34=683|49=APA_QA3|52=20180703-18:45:43.938|56=TRAX|10=220|8=FIXT.1.1|9=56|35=0|34=684|49=APA_QA3|52=20180703-18:46:13.940|56=TRAX|10=212|8=FIXT.1.1|9=56|35=0|34=685|49=APA_QA3|52=20180703-18:46:44.101|56=TRAX|10=206|8=FIXT.1.1|9=56|35=0|34=686|49=APA_QA3|52=20180703-18:47:15.096|56=TRAX|10=219|8=FIXT.1.1|9=56|35=0|34=687|49=APA_QA3|52=20180703-18:47:45.100|56=TRAX|10=209|8=FIXT.1.1|9=56|35=0|34=688|49=APA_QA3|52=20180703-18:48:16.098|56=TRAX|10=225|8=FIXT.1.1|9=56|35=0|34=689|49=APA_QA3|52=20180703-18:48:46.106|56=TRAX|10=219|8=FIXT.1.1|9=56|35=0|34=690|49=APA_QA3|52=20180703-18:49:17.097|56=TRAX|10=219|8=FIXT.1.1|9=56|35=0|34=691|49=APA_QA3|52=20180703-18:49:48.095|56=TRAX|10=222|8=FIXT.1.1|9=56|35=0|34=692|49=APA_QA3|52=20180703-18:50:19.092|56=TRAX|10=210|8=FIXT.1.1|9=56|35=0|34=693|49=APA_QA3|52=20180703-18:50:49.102|56=TRAX|10=206|8=FIXT.1.1|9=56|35=0|34=694|49=APA_QA3|52=20180703-18:51:20.092|56=TRAX|10=205|8=FIXT.1.1|9=56|35=0|34=695|49=APA_QA3|52=20180703-18:51:50.099|56=TRAX|10=216|8=FIXT.1.1|9=56|35=0|34=696|49=APA_QA3|52=20180703-18:52:20.105|56=TRAX|10=203|8=FIXT.1.1|9=56|35=0|34=697|49=APA_QA3|52=20180703-18:52:51.098|56=TRAX|10=219|8=FIXT.1.1|9=56|35=0|34=698|49=APA_QA3|52=20180703-18:53:21.100|56=TRAX|10=202|8=FIXT.1.1|9=56|35=0|34=699|49=APA_QA3|52=20180703-18:53:51.104|56=TRAX|10=210|8=FIXT.1.1|9=56|35=0|34=700|49=APA_QA3|52=20180703-18:54:22.097|56=TRAX|10=203|8=FIXT.1.1|9=56|35=0|34=701|49=APA_QA3|52=20180703-18:54:52.108|56=TRAX|10=200|8=FIXT.1.1|9=56|35=0|34=702|49=APA_QA3|52=20180703-18:55:23.095|56=TRAX|10=205|8=FIXT.1.1|9=56|35=0|34=703|49=APA_QA3|52=20180703-18:55:54.093|56=TRAX|10=208|8=FIXT.1.1|9=56|35=0|34=704|49=APA_QA3|52=20180703-18:56:24.095|56=TRAX|10=209|8=FIXT.1.1|9=56|35=0|34=705|49=APA_QA3|52=20180703-18:56:55.090|56=TRAX|10=209|8=FIXT.1.1|9=56|35=0|34=706|49=APA_QA3|52=20180703-18:57:25.095|56=TRAX|10=213|8=FIXT.1.1|9=56|35=0|34=707|49=APA_QA3|52=20180703-18:57:56.090|56=TRAX|10=213|8=FIXT.1.1|9=56|35=0|34=708|49=APA_QA3|52=20180703-18:58:26.102|56=TRAX|10=206|8=FIXT.1.1|9=56|35=0|34=709|49=APA_QA3|52=20180703-18:58:57.089|56=TRAX|10=225|8=FIXT.1.1|9=56|35=0|34=710|49=APA_QA3|52=20180703-18:59:27.095|56=TRAX|10=212|8=FIXT.1.1|9=56|35=0|34=711|49=APA_QA3|52=20180703-18:59:57.095|56=TRAX|10=216|8=FIXT.1.1|9=56|35=0|34=712|49=APA_QA3|52=20180703-19:00:28.095|56=TRAX|10=202|8=FIXT.1.1|9=56|35=0|34=713|49=APA_QA3|52=20180703-19:00:58.102|56=TRAX|10=195|8=FIXT.1.1|9=56|35=0|34=714|49=APA_QA3|52=20180703-19:01:29.088|56=TRAX|10=208|8=FIXT.1.1|9=56|35=0|34=715|49=APA_QA3|52=20180703-19:01:59.097|56=TRAX|10=212|8=FIXT.1.1|9=56|35=0|34=716|49=APA_QA3|52=20180703-19:02:30.086|56=TRAX|10=201|8=FIXT.1.1|9=56|35=0|34=717|49=APA_QA3|52=20180703-19:03:00.099|56=TRAX|10=204|8=FIXT.1.1|9=56|35=0|34=718|49=APA_QA3|52=20180703-19:03:31.095|56=TRAX|10=205|8=FIXT.1.1|9=56|35=0|34=719|49=APA_QA3|52=20180703-19:04:02.088|56=TRAX|10=207|8=FIXT.1.1|9=56|35=0|34=720|49=APA_QA3|52=20180703-19:04:32.099|56=TRAX|10=204|8=FIXT.1.1|9=56|35=0|34=721|49=APA_QA3|52=20180703-19:05:03.093|56=TRAX|10=198|8=FIXT.1.1|9=56|35=0|34=722|49=APA_QA3|52=20180703-19:05:34.088|56=TRAX|10=207|8=FIXT.1.1|9=56|35=0|34=723|49=APA_QA3|52=20180703-19:06:04.093|56=TRAX|10=202|8=FIXT.1.1|9=56|35=0|34=724|49=APA_QA3|52=20180703-19:06:35.086|56=TRAX|10=209|8=FIXT.1.1|9=56|35=0|34=725|49=APA_QA3|52=20180703-19:07:05.087|56=TRAX|10=209|8=FIXT.1.1|9=56|35=0|34=726|49=APA_QA3|52=20180703-19:07:35.096|56=TRAX|10=213|8=FIXT.1.1|9=56|35=0|34=727|49=APA_QA3|52=20180703-19:08:06.092|56=TRAX|10=209|8=FIXT.1.1|9=56|35=0|34=728|49=APA_QA3|52=20180703-19:08:37.091|56=TRAX|10=213|8=FIXT.1.1|9=56|35=0|34=729|49=APA_QA3|52=20180703-19:09:07.094|56=TRAX|10=215|8=FIXT.1.1|9=56|35=0|34=730|49=APA_QA3|52=20180703-19:09:38.086|56=TRAX|10=212|8=FIXT.1.1|9=56|35=0|34=731|49=APA_QA3|52=20180703-19:10:08.097|56=TRAX|10=204|8=FIXT.1.1|9=56|35=0|34=732|49=APA_QA3|52=20180703-19:10:39.088|56=TRAX|10=209|8=FIXT.1.1|9=56|35=0|34=733|49=APA_QA3|52=20180703-19:11:10.085|56=TRAX|10=197|8=FIXT.1.1|9=56|35=0|34=734|49=APA_QA3|52=20180703-19:11:41.083|56=TRAX|10=200|8=FIXT.1.1|9=56|35=0|34=735|49=APA_QA3|52=20180703-19:12:11.087|56=TRAX|10=203|8=FIXT.1.1|9=56|35=0|34=736|49=APA_QA3|52=20180703-19:12:42.086|56=TRAX|10=207|8=FIXT.1.1|9=56|35=0|34=737|49=APA_QA3|52=20180703-19:13:12.087|56=TRAX|10=207|8=FIXT.1.1|9=56|35=0|34=738|49=APA_QA3|52=20180703-19:13:43.087|56=TRAX|10=212|8=FIXT.1.1|9=56|35=0|34=739|49=APA_QA3|52=20180703-19:14:13.096|56=TRAX|10=211|8=FIXT.1.1|9=56|35=0|34=740|49=APA_QA3|52=20180703-19:14:43.937|56=TRAX|10=210|8=FIXT.1.1|9=56|35=0|34=741|49=APA_QA3|52=20180703-19:15:13.941|56=TRAX|10=204|8=FIXT.1.1|9=56|35=0|34=742|49=APA_QA3|52=20180703-19:15:44.081|56=TRAX|10=204|8=FIXT.1.1|9=56|35=0|34=743|49=APA_QA3|52=20180703-19:16:14.087|56=TRAX|10=209|8=FIXT.1.1|9=56|35=0|34=744|49=APA_QA3|52=20180703-19:16:44.098|56=TRAX|10=215|8=FIXT.1.1|9=56|35=0|34=745|49=APA_QA3|52=20180703-19:17:15.088|56=TRAX|10=214|8=FIXT.1.1|9=56|35=0|34=746|49=APA_QA3|52=20180703-19:17:46.084|56=TRAX|10=215|8=FIXT.1.1|9=56|35=0|34=747|49=APA_QA3|52=20180703-19:18:16.089|56=TRAX|10=219|8=FIXT.1.1|9=56|35=0|34=748|49=APA_QA3|52=20180703-19:18:46.094|56=TRAX|10=219|8=FIXT.1.1|9=56|35=0|34=749|49=APA_QA3|52=20180703-19:19:17.080|56=TRAX|10=214|8=FIXT.1.1|9=56|35=0|34=750|49=APA_QA3|52=20180703-19:19:47.091|56=TRAX|10=211|8=FIXT.1.1|9=56|35=0|34=751|49=APA_QA3|52=20180703-19:20:18.085|56=TRAX|10=205|8=FIXT.1.1|9=56|35=0|34=752|49=APA_QA3|52=20180703-19:20:48.089|56=TRAX|10=213|8=FIXT.1.1|9=56|35=0|34=753|49=APA_QA3|52=20180703-19:21:19.085|56=TRAX|10=209|8=FIXT.1.1|9=56|35=0|34=754|49=APA_QA3|52=20180703-19:21:49.091|56=TRAX|10=210|8=FIXT.1.1|9=56|35=0|34=755|49=APA_QA3|52=20180703-19:22:20.089|56=TRAX|10=208|8=FIXT.1.1|9=56|35=0|34=756|49=APA_QA3|52=20180703-19:22:50.097|56=TRAX|10=211|8=FIXT.1.1|9=56|35=0|34=757|49=APA_QA3|52=20180703-19:23:21.090|56=TRAX|10=204|8=FIXT.1.1|9=56|35=0|34=758|49=APA_QA3|52=20180703-19:23:52.085|56=TRAX|10=213|8=FIXT.1.1|9=56|35=0|34=759|49=APA_QA3|52=20180703-19:24:22.092|56=TRAX|10=210|8=FIXT.1.1|9=56|35=0|34=760|49=APA_QA3|52=20180703-19:24:53.084|56=TRAX|10=207|8=FIXT.1.1|9=56|35=0|34=761|49=APA_QA3|52=20180703-19:25:23.089|56=TRAX|10=211|8=FIXT.1.1|9=56|35=0|34=762|49=APA_QA3|52=20180703-19:25:54.080|56=TRAX|10=207|8=FIXT.1.1|9=56|35=0|34=763|49=APA_QA3|52=20180703-19:26:24.088|56=TRAX|10=214|8=FIXT.1.1|9=56|35=0|34=764|49=APA_QA3|52=20180703-19:26:54.088|56=TRAX|10=218|8=FIXT.1.1|9=56|35=0|34=765|49=APA_QA3|52=20180703-19:27:25.084|56=TRAX|10=214|8=FIXT.1.1|9=56|35=0|34=766|49=APA_QA3|52=20180703-19:27:55.085|56=TRAX|10=219|8=FIXT.1.1|9=56|35=0|34=767|49=APA_QA3|52=20180703-19:28:26.080|56=TRAX|10=214|8=FIXT.1.1|9=56|35=0|34=768|49=APA_QA3|52=20180703-19:28:56.091|56=TRAX|10=220|8=FIXT.1.1|9=56|35=0|34=769|49=APA_QA3|52=20180703-19:29:27.084|56=TRAX|10=222|8=FIXT.1.1|9=56|35=0|34=770|49=APA_QA3|52=20180703-19:29:58.078|56=TRAX|10=221|8=FIXT.1.1|9=56|35=0|34=771|49=APA_QA3|52=20180703-19:30:28.081|56=TRAX|10=205|8=FIXT.1.1|9=56|35=0|34=772|49=APA_QA3|52=20180703-19:30:59.077|56=TRAX|10=215|8=FIXT.1.1|9=56|35=0|34=773|49=APA_QA3|52=20180703-19:31:29.080|56=TRAX|10=208|8=FIXT.1.1|9=56|35=0|34=774|49=APA_QA3|52=20180703-19:31:59.088|56=TRAX|10=220|8=FIXT.1.1|9=56|35=0|34=775|49=APA_QA3|52=20180703-19:32:30.088|56=TRAX|10=211|8=FIXT.1.1|9=56|35=0|34=776|49=APA_QA3|52=20180703-19:33:01.080|56=TRAX|10=203|8=FIXT.1.1|9=56|35=0|34=777|49=APA_QA3|52=20180703-19:33:31.086|56=TRAX|10=213|8=FIXT.1.1|9=56|35=0|34=778|49=APA_QA3|52=20180703-19:34:02.078|56=TRAX|10=214|8=FIXT.1.1|9=56|35=0|34=779|49=APA_QA3|52=20180703-19:34:32.088|56=TRAX|10=219|8=FIXT.1.1|9=56|35=0|34=780|49=APA_QA3|52=20180703-19:35:03.079|56=TRAX|10=210|8=FIXT.1.1|9=56|35=0|34=781|49=APA_QA3|52=20180703-19:35:34.077|56=TRAX|10=213|8=FIXT.1.1|9=56|35=0|34=782|49=APA_QA3|52=20180703-19:36:04.088|56=TRAX|10=214|8=FIXT.1.1|9=56|35=0|34=783|49=APA_QA3|52=20180703-19:36:35.076|56=TRAX|10=216|8=FIXT.1.1|9=56|35=0|34=784|49=APA_QA3|52=20180703-19:37:05.087|56=TRAX|10=217|8=FIXT.1.1|9=56|35=0|34=785|49=APA_QA3|52=20180703-19:37:36.077|56=TRAX|10=221|8=FIXT.1.1|9=56|35=0|34=786|49=APA_QA3|52=20180703-19:38:06.085|56=TRAX|10=219|8=FIXT.1.1|9=56|35=0|34=787|49=APA_QA3|52=20180703-19:38:36.093|56=TRAX|10=222|8=FIXT.1.1|9=56|35=0|34=788|49=APA_QA3|52=20180703-19:39:07.084|56=TRAX|10=222|8=FIXT.1.1|9=56|35=0|34=789|49=APA_QA3|52=20180703-19:39:38.076|56=TRAX|10=228|8=FIXT.1.1|9=56|35=0|34=790|49=APA_QA3|52=20180703-19:40:08.084|56=TRAX|10=208|8=FIXT.1.1|9=56|35=0|34=791|49=APA_QA3|52=20180703-19:40:39.079|56=TRAX|10=217|8=FIXT.1.1|9=56|35=0|34=792|49=APA_QA3|52=20180703-19:41:09.085|56=TRAX|10=213|8=FIXT.1.1|9=56|35=0|34=793|49=APA_QA3|52=20180703-19:41:40.078|56=TRAX|10=211|8=FIXT.1.1|9=56|35=0|34=794|49=APA_QA3|52=20180703-19:42:11.072|56=TRAX|10=205|8=FIXT.1.1|9=56|35=0|34=795|49=APA_QA3|52=20180703-19:42:41.076|56=TRAX|10=213|8=FIXT.1.1|9=56|35=0|34=796|49=APA_QA3|52=20180703-19:43:11.083|56=TRAX|10=210|8=FIXT.1.1|9=56|35=0|34=797|49=APA_QA3|52=20180703-19:43:41.085|56=TRAX|10=216|8=FIXT.1.1|9=56|35=0|34=798|49=APA_QA3|52=20180703-19:44:12.083|56=TRAX|10=214|8=FIXT.1.1|9=56|35=0|34=799|49=APA_QA3|52=20180703-19:44:42.089|56=TRAX|10=224|8=FIXT.1.1|9=56|35=0|34=800|49=APA_QA3|52=20180703-19:45:13.080|56=TRAX|10=197|8=FIXT.1.1|9=56|35=0|34=801|49=APA_QA3|52=20180703-19:45:43.942|56=TRAX|10=208|8=FIXT.1.1|9=56|35=0|34=802|49=APA_QA3|52=20180703-19:46:14.070|56=TRAX|10=200|8=FIXT.1.1|9=56|35=0|34=803|49=APA_QA3|52=20180703-19:46:44.083|56=TRAX|10=208|8=FIXT.1.1|9=56|35=0|34=804|49=APA_QA3|52=20180703-19:47:15.072|56=TRAX|10=206|8=FIXT.1.1|9=56|35=0|34=805|49=APA_QA3|52=20180703-19:47:45.081|56=TRAX|10=210|8=FIXT.1.1|9=56|35=0|34=806|49=APA_QA3|52=20180703-19:48:16.071|56=TRAX|10=209|8=FIXT.1.1|9=56|35=0|34=807|49=APA_QA3|52=20180703-19:48:46.082|56=TRAX|10=215|8=FIXT.1.1|9=56|35=0|34=808|49=APA_QA3|52=20180703-19:49:17.076|56=TRAX|10=218|8=FIXT.1.1|9=56|35=0|34=809|49=APA_QA3|52=20180703-19:49:48.070|56=TRAX|10=217|8=FIXT.1.1|9=56|35=0|34=810|49=APA_QA3|52=20180703-19:50:18.074|56=TRAX|10=202|8=FIXT.1.1|9=56|35=0|34=811|49=APA_QA3|52=20180703-19:50:49.077|56=TRAX|10=210|8=FIXT.1.1|9=56|35=0|34=812|49=APA_QA3|52=20180703-19:51:20.073|56=TRAX|10=197|8=FIXT.1.1|9=56|35=0|34=813|49=APA_QA3|52=20180703-19:51:50.080|56=TRAX|10=199|8=FIXT.1.1|9=56|35=0|34=814|49=APA_QA3|52=20180703-19:52:21.069|56=TRAX|10=206|8=FIXT.1.1|9=56|35=0|34=815|49=APA_QA3|52=20180703-19:52:51.079|56=TRAX|10=211|8=FIXT.1.1|9=56|35=0|34=816|49=APA_QA3|52=20180703-19:53:22.069|56=TRAX|10=210|8=FIXT.1.1|9=56|35=0|34=817|49=APA_QA3|52=20180703-19:53:52.081|56=TRAX|10=208|8=FIXT.1.1|9=56|35=0|34=818|49=APA_QA3|52=20180703-19:54:23.074|56=TRAX|10=210|8=FIXT.1.1|9=56|35=0|34=819|49=APA_QA3|52=20180703-19:54:54.068|56=TRAX|10=218|8=FIXT.1.1|9=56|35=0|34=820|49=APA_QA3|52=20180703-19:55:24.080|56=TRAX|10=202|8=FIXT.1.1|9=56|35=0|34=821|49=APA_QA3|52=20180703-19:55:55.069|56=TRAX|10=214|8=FIXT.1.1|9=56|35=0|34=822|49=APA_QA3|52=20180703-19:56:26.067|56=TRAX|10=212|8=FIXT.1.1|9=56|35=0|34=823|49=APA_QA3|52=20180703-19:56:56.074|56=TRAX|10=214|8=FIXT.1.1|9=56|35=0|34=824|49=APA_QA3|52=20180703-19:57:27.071|56=TRAX|10=211|8=FIXT.1.1|9=56|35=0|34=825|49=APA_QA3|52=20180703-19:57:57.077|56=TRAX|10=221|8=FIXT.1.1|9=56|35=0|34=826|49=APA_QA3|52=20180703-19:58:28.075|56=TRAX|10=219|8=FIXT.1.1|9=56|35=0|34=827|49=APA_QA3|52=20180703-19:58:59.067|56=TRAX|10=225|8=FIXT.1.1|9=56|35=0|34=828|49=APA_QA3|52=20180703-19:59:30.067|56=TRAX|10=216|8=FIXT.1.1|9=56|35=0|34=829|49=APA_QA3|52=20180703-20:00:00.081|56=TRAX|10=188|8=FIXT.1.1|9=56|35=0|34=830|49=APA_QA3|52=20180703-20:00:31.071|56=TRAX|10=183|8=FIXT.1.1|9=56|35=0|34=831|49=APA_QA3|52=20180703-20:01:01.071|56=TRAX|10=182|8=FIXT.1.1|9=56|35=0|34=832|49=APA_QA3|52=20180703-20:01:31.077|56=TRAX|10=192|8=FIXT.1.1|9=56|35=0|34=833|49=APA_QA3|52=20180703-20:02:02.067|56=TRAX|10=191|8=FIXT.1.1|9=56|35=0|34=834|49=APA_QA3|52=20180703-20:02:32.068|56=TRAX|10=196|8=FIXT.1.1|9=56|35=0|34=835|49=APA_QA3|52=20180703-20:03:03.065|56=TRAX|10=193|8=FIXT.1.1|9=56|35=0|34=836|49=APA_QA3|52=20180703-20:03:33.077|56=TRAX|10=200|8=FIXT.1.1|9=56|35=0|34=837|49=APA_QA3|52=20180703-20:04:04.076|56=TRAX|10=199|8=FIXT.1.1|9=56|35=0|34=838|49=APA_QA3|52=20180703-20:04:35.070|56=TRAX|10=198|8=FIXT.1.1|9=56|35=0|34=839|49=APA_QA3|52=20180703-20:05:06.065|56=TRAX|10=202|8=FIXT.1.1|9=56|35=0|34=840|49=APA_QA3|52=20180703-20:05:36.073|56=TRAX|10=196|8=FIXT.1.1|9=56|35=0|34=841|49=APA_QA3|52=20180703-20:06:07.065|56=TRAX|10=197|8=FIXT.1.1|9=56|35=0|34=842|49=APA_QA3|52=20180703-20:06:37.070|56=TRAX|10=197|8=FIXT.1.1|9=56|35=0|34=843|49=APA_QA3|52=20180703-20:07:08.067|56=TRAX|10=203|8=FIXT.1.1|9=56|35=0|34=844|49=APA_QA3|52=20180703-20:07:38.073|56=TRAX|10=204|8=FIXT.1.1|9=56|35=0|34=845|49=APA_QA3|52=20180703-20:08:09.070|56=TRAX|10=201|8=FIXT.1.1|9=56|35=0|34=846|49=APA_QA3|52=20180703-20:08:39.072|56=TRAX|10=207|8=FIXT.1.1|9=56|35=0|34=847|49=APA_QA3|52=20180703-20:09:10.068|56=TRAX|10=203|8=FIXT.1.1|9=56|35=0|34=848|49=APA_QA3|52=20180703-20:09:41.060|56=TRAX|10=200|8=FIXT.1.1|9=56|35=0|34=849|49=APA_QA3|52=20180703-20:10:11.071|56=TRAX|10=192|8=FIXT.1.1|9=56|35=0|34=850|49=APA_QA3|52=20180703-20:10:42.067|56=TRAX|10=193|8=FIXT.1.1|9=56|35=0|34=851|49=APA_QA3|52=20180703-20:11:12.070|56=TRAX|10=186|8=FIXT.1.1|9=56|35=0|34=852|49=APA_QA3|52=20180703-20:11:43.069|56=TRAX|10=199|8=FIXT.1.1|9=56|35=0|34=853|49=APA_QA3|52=20180703-20:12:13.939|56=TRAX|10=204|8=FIXT.1.1|9=56|35=0|34=854|49=APA_QA3|52=20180703-20:12:44.068|56=TRAX|10=202|8=FIXT.1.1|9=56|35=0|34=855|49=APA_QA3|52=20180703-20:13:14.074|56=TRAX|10=198|8=FIXT.1.1|9=56|35=0|34=856|49=APA_QA3|52=20180703-20:13:45.069|56=TRAX|10=207|8=FIXT.1.1|9=56|35=0|34=857|49=APA_QA3|52=20180703-20:14:16.062|56=TRAX|10=200|8=FIXT.1.1|9=56|35=0|34=858|49=APA_QA3|52=20180703-20:14:47.065|56=TRAX|10=208|8=FIXT.1.1|9=56|35=0|34=859|49=APA_QA3|52=20180703-20:15:18.062|56=TRAX|10=205|8=FIXT.1.1|9=56|35=0|34=860|49=APA_QA3|52=20180703-20:15:48.065|56=TRAX|10=203|8=FIXT.1.1|9=56|35=0|34=861|49=APA_QA3|52=20180703-20:16:19.062|56=TRAX|10=200|8=FIXT.1.1|9=56|35=0|34=862|49=APA_QA3|52=20180703-20:16:49.074|56=TRAX|10=207|8=FIXT.1.1|9=56|35=0|34=863|49=APA_QA3|52=20180703-20:17:20.061|56=TRAX|10=194|8=FIXT.1.1|9=56|35=0|34=864|49=APA_QA3|52=20180703-20:17:51.061|56=TRAX|10=199|8=FIXT.1.1|9=56|35=0|34=865|49=APA_QA3|52=20180703-20:18:21.068|56=TRAX|10=205|8=FIXT.1.1|9=56|35=0|34=866|49=APA_QA3|52=20180703-20:18:52.062|56=TRAX|10=204|8=FIXT.1.1|9=56|35=0|34=867|49=APA_QA3|52=20180703-20:19:22.065|56=TRAX|10=206|8=FIXT.1.1|9=56|35=0|34=868|49=APA_QA3|52=20180703-20:19:53.063|56=TRAX|10=209|8=FIXT.1.1|9=56|35=0|34=869|49=APA_QA3|52=20180703-20:20:23.069|56=TRAX|10=205|8=FIXT.1.1|9=56|35=0|34=870|49=APA_QA3|52=20180703-20:20:54.060|56=TRAX|10=192|8=FIXT.1.1|9=56|35=0|34=871|49=APA_QA3|52=20180703-20:21:24.068|56=TRAX|10=199|8=FIXT.1.1|9=56|35=0|34=872|49=APA_QA3|52=20180703-20:21:55.062|56=TRAX|10=198|8=FIXT.1.1|9=56|35=0|34=873|49=APA_QA3|52=20180703-20:22:26.056|56=TRAX|10=201|8=FIXT.1.1|9=56|35=0|34=874|49=APA_QA3|52=20180703-20:22:56.061|56=TRAX|10=201|8=FIXT.1.1|9=56|35=0|34=875|49=APA_QA3|52=20180703-20:23:27.059|56=TRAX|10=208|8=FIXT.1.1|9=56|35=0|34=876|49=APA_QA3|52=20180703-20:23:57.068|56=TRAX|10=212|8=FIXT.1.1|9=56|35=0|34=877|49=APA_QA3|52=20180703-20:24:28.057|56=TRAX|10=210|8=FIXT.1.1|9=56|35=0|34=878|49=APA_QA3|52=20180703-20:24:58.068|56=TRAX|10=216|8=FIXT.1.1|9=56|35=0|34=879|49=APA_QA3|52=20180703-20:25:29.054|56=TRAX|10=211|8=FIXT.1.1|9=56|35=0|34=880|49=APA_QA3|52=20180703-20:25:59.067|56=TRAX|10=210|8=FIXT.1.1|9=56|35=0|34=881|49=APA_QA3|52=20180703-20:26:30.057|56=TRAX|10=200|8=FIXT.1.1|9=56|35=0|34=882|49=APA_QA3|52=20180703-20:27:01.057|56=TRAX|10=200|8=FIXT.1.1|9=56|35=0|34=883|49=APA_QA3|52=20180703-20:27:31.064|56=TRAX|10=202|8=FIXT.1.1|9=56|35=0|34=884|49=APA_QA3|52=20180703-20:28:01.065|56=TRAX|10=202|8=FIXT.1.1|9=56|35=0|34=885|49=APA_QA3|52=20180703-20:28:32.058|56=TRAX|10=209|8=FIXT.1.1|9=56|35=0|34=886|49=APA_QA3|52=20180703-20:29:02.064|56=TRAX|10=205|8=FIXT.1.1|9=56|35=0|34=887|49=APA_QA3|52=20180703-20:29:33.061|56=TRAX|10=207|8=FIXT.1.1|9=56|35=0|34=888|49=APA_QA3|52=20180703-20:30:03.069|56=TRAX|10=205|8=FIXT.1.1|9=56|35=0|34=889|49=APA_QA3|52=20180703-20:30:34.059|56=TRAX|10=209|8=FIXT.1.1|9=56|35=0|34=890|49=APA_QA3|52=20180703-20:31:04.065|56=TRAX|10=196|8=FIXT.1.1|9=56|35=0|34=891|49=APA_QA3|52=20180703-20:31:35.059|56=TRAX|10=204|8=FIXT.1.1|9=56|35=0|34=892|49=APA_QA3|52=20180703-20:32:06.055|56=TRAX|10=200|8=FIXT.1.1|9=56|35=0|34=893|49=APA_QA3|52=20180703-20:32:36.055|56=TRAX|10=204|8=FIXT.1.1|9=56|35=0|34=894|49=APA_QA3|52=20180703-20:33:06.057|56=TRAX|10=205|8=FIXT.1.1|9=56|35=0|34=895|49=APA_QA3|52=20180703-20:33:36.068|56=TRAX|10=211|8=FIXT.1.1|9=56|35=0|34=896|49=APA_QA3|52=20180703-20:34:07.063|56=TRAX|10=206|8=FIXT.1.1|9=56|35=0|34=897|49=APA_QA3|52=20180703-20:34:38.055|56=TRAX|10=212|8=FIXT.1.1|9=56|35=0|34=898|49=APA_QA3|52=20180703-20:35:08.061|56=TRAX|10=208|8=FIXT.1.1|9=56|35=0|34=899|49=APA_QA3|52=20180703-20:35:39.061|56=TRAX|10=213|8=FIXT.1.1|9=56|35=0|34=900|49=APA_QA3|52=20180703-20:36:09.063|56=TRAX|10=196|8=FIXT.1.1|9=56|35=0|34=901|49=APA_QA3|52=20180703-20:36:40.060|56=TRAX|10=189|8=FIXT.1.1|9=56|35=0|34=902|49=APA_QA3|52=20180703-20:37:10.065|56=TRAX|10=193|8=FIXT.1.1|9=56|35=0|34=903|49=APA_QA3|52=20180703-20:37:41.056|56=TRAX|10=198|8=FIXT.1.1|9=56|35=0|34=904|49=APA_QA3|52=20180703-20:38:12.054|56=TRAX|10=196|8=FIXT.1.1|9=56|35=0|34=905|49=APA_QA3|52=20180703-20:38:42.058|56=TRAX|10=204|8=FIXT.1.1|9=56|35=0|34=906|49=APA_QA3|52=20180703-20:39:12.062|56=TRAX|10=198|8=FIXT.1.1|9=56|35=0|34=907|49=APA_QA3|52=20180703-20:39:42.071|56=TRAX|10=202|8=FIXT.1.1|9=56|35=0|34=908|49=APA_QA3|52=20180703-20:40:13.065|56=TRAX|10=196|8=FIXT.1.1|9=56|35=0|34=909|49=APA_QA3|52=20180703-20:40:43.937|56=TRAX|10=208|8=FIXT.1.1|9=56|35=0|34=910|49=APA_QA3|52=20180703-20:41:14.052|56=TRAX|10=187|8=FIXT.1.1|9=56|35=0|34=911|49=APA_QA3|52=20180703-20:41:44.062|56=TRAX|10=192|8=FIXT.1.1|9=56|35=0|34=912|49=APA_QA3|52=20180703-20:42:15.055|56=TRAX|10=194|8=FIXT.1.1|9=56|35=0|34=913|49=APA_QA3|52=20180703-20:42:46.050|56=TRAX|10=194|8=FIXT.1.1|9=56|35=0|34=914|49=APA_QA3|52=20180703-20:43:16.057|56=TRAX|10=200|8=FIXT.1.1|9=56|35=0|34=915|49=APA_QA3|52=20180703-20:43:46.064|56=TRAX|10=202|8=FIXT.1.1|9=56|35=0|34=916|49=APA_QA3|52=20180703-20:44:17.059|56=TRAX|10=206|8=FIXT.1.1|9=56|35=0|34=917|49=APA_QA3|52=20180703-20:44:48.059|56=TRAX|10=211|8=FIXT.1.1|9=56|35=0|34=918|49=APA_QA3|52=20180703-20:45:19.054|56=TRAX|10=206|8=FIXT.1.1|9=56|35=0|34=919|49=APA_QA3|52=20180703-20:45:49.065|56=TRAX|10=212|8=FIXT.1.1|9=56|35=0|34=920|49=APA_QA3|52=20180703-20:46:20.055|56=TRAX|10=193|8=FIXT.1.1|9=56|35=0|34=921|49=APA_QA3|52=20180703-20:46:50.055|56=TRAX|10=197|8=FIXT.1.1|9=56|35=0|34=922|49=APA_QA3|52=20180703-20:47:21.055|56=TRAX|10=197|8=FIXT.1.1|9=56|35=0|34=923|49=APA_QA3|52=20180703-20:47:52.055|56=TRAX|10=202|8=FIXT.1.1|9=56|35=0|34=924|49=APA_QA3|52=20180703-20:48:22.061|56=TRAX|10=198|8=FIXT.1.1|9=56|35=0|34=925|49=APA_QA3|52=20180703-20:48:53.061|56=TRAX|10=203|8=FIXT.1.1|9=56|35=0|34=926|49=APA_QA3|52=20180703-20:49:24.050|56=TRAX|10=201|8=FIXT.1.1|9=56|35=0|34=927|49=APA_QA3|52=20180703-20:49:54.055|56=TRAX|10=210|8=FIXT.1.1|9=56|35=0|34=928|49=APA_QA3|52=20180703-20:50:24.059|56=TRAX|10=204|8=FIXT.1.1|9=56|35=0|34=929|49=APA_QA3|52=20180703-20:50:54.061|56=TRAX|10=201|8=FIXT.1.1|9=56|35=0|34=930|49=APA_QA3|52=20180703-20:51:25.050|56=TRAX|10=190|8=FIXT.1.1|9=56|35=0|34=931|49=APA_QA3|52=20180703-20:51:55.055|56=TRAX|10=199|8=FIXT.1.1|9=56|35=0|34=932|49=APA_QA3|52=20180703-20:52:26.049|56=TRAX|10=202|8=FIXT.1.1|9=56|35=0|34=933|49=APA_QA3|52=20180703-20:52:57.047|56=TRAX|10=205|8=FIXT.1.1|9=56|35=0|34=934|49=APA_QA3|52=20180703-20:53:27.051|56=TRAX|10=199|8=FIXT.1.1|9=56|35=0|34=935|49=APA_QA3|52=20180703-20:53:57.058|56=TRAX|10=210|8=FIXT.1.1|9=56|35=0|34=936|49=APA_QA3|52=20180703-20:54:28.051|56=TRAX|10=203|8=FIXT.1.1|9=56|35=0|34=937|49=APA_QA3|52=20180703-20:54:58.059|56=TRAX|10=215|8=FIXT.1.1|9=56|35=0|34=938|49=APA_QA3|52=20180703-20:55:29.053|56=TRAX|10=209|8=FIXT.1.1|9=56|35=0|34=939|49=APA_QA3|52=20180703-20:56:00.046|56=TRAX|10=202|8=FIXT.1.1|9=56|35=0|34=940|49=APA_QA3|52=20180703-20:56:30.056|56=TRAX|10=198|8=FIXT.1.1|9=56|35=0|34=941|49=APA_QA3|52=20180703-20:57:00.059|56=TRAX|10=200|8=FIXT.1.1|9=56|35=0|34=942|49=APA_QA3|52=20180703-20:57:31.051|56=TRAX|10=197|8=FIXT.1.1|9=56|35=0|34=943|49=APA_QA3|52=20180703-20:58:01.060|56=TRAX|10=196|8=FIXT.1.1|9=56|35=0|34=944|49=APA_QA3|52=20180703-20:58:32.052|56=TRAX|10=202|8=FIXT.1.1|9=56|35=0|34=945|49=APA_QA3|52=20180703-20:59:03.050|56=TRAX|10=200|8=FIXT.1.1|9=56|35=0|34=946|49=APA_QA3|52=20180703-20:59:33.054|56=TRAX|10=208|8=FIXT.1.1|9=56|35=0|34=947|49=APA_QA3|52=20180703-21:00:03.057|56=TRAX|10=196|8=FIXT.1.1|9=56|35=0|34=948|49=APA_QA3|52=20180703-21:00:34.054|56=TRAX|10=198|8=FIXT.1.1|9=56|35=0|34=949|49=APA_QA3|52=20180703-21:01:05.055|56=TRAX|10=199|8=FIXT.1.1|9=56|35=0|34=950|49=APA_QA3|52=20180703-21:01:36.048|56=TRAX|10=197|8=FIXT.1.1|9=56|35=0|34=951|49=APA_QA3|52=20180703-21:02:06.057|56=TRAX|10=196|8=FIXT.1.1|9=56|35=0|34=952|49=APA_QA3|52=20180703-21:02:37.054|56=TRAX|10=198|8=FIXT.1.1|9=56|35=0|34=953|49=APA_QA3|52=20180703-21:03:08.050|56=TRAX|10=194|8=FIXT.1.1|9=56|35=0|34=954|49=APA_QA3|52=20180703-21:03:39.044|56=TRAX|10=202|8=FIXT.1.1|9=56|35=0|34=955|49=APA_QA3|52=20180703-21:04:10.044|56=TRAX|10=193|8=FIXT.1.1|9=56|35=0|34=956|49=APA_QA3|52=20180703-21:04:40.045|56=TRAX|10=198|8=FIXT.1.1|9=56|35=0|34=957|49=APA_QA3|52=20180703-21:05:10.050|56=TRAX|10=193|8=FIXT.1.1|9=56|35=0|34=958|49=APA_QA3|52=20180703-21:05:40.051|56=TRAX|10=198|8=FIXT.1.1|9=56|35=0|34=959|49=APA_QA3|52=20180703-21:06:11.048|56=TRAX|10=204|8=FIXT.1.1|9=56|35=0|34=960|49=APA_QA3|52=20180703-21:06:41.053|56=TRAX|10=195|8=FIXT.1.1|9=56|35=0|34=961|49=APA_QA3|52=20180703-21:07:12.050|56=TRAX|10=192|8=FIXT.1.1|9=56|35=0|34=962|49=APA_QA3|52=20180703-21:07:43.044|56=TRAX|10=200|8=FIXT.1.1|9=56|35=0|34=963|49=APA_QA3|52=20180703-21:08:13.053|56=TRAX|10=199|8=FIXT.1.1|9=56|35=0|34=964|49=APA_QA3|52=20180703-21:08:43.933|56=TRAX|10=210|8=FIXT.1.1|9=56|35=0|34=965|49=APA_QA3|52=20180703-21:09:13.933|56=TRAX|10=209|8=FIXT.1.1|9=56|35=0|34=966|49=APA_QA3|52=20180703-21:09:44.047|56=TRAX|10=210|8=FIXT.1.1|9=56|35=0|34=967|49=APA_QA3|52=20180703-21:10:14.047|56=TRAX|10=200|8=FIXT.1.1|9=56|35=0|34=968|49=APA_QA3|52=20180703-21:10:45.044|56=TRAX|10=202|8=FIXT.1.1|9=56|35=0|34=969|49=APA_QA3|52=20180703-21:11:15.048|56=TRAX|10=205|8=FIXT.1.1|9=56|35=0|34=970|49=APA_QA3|52=20180703-21:11:46.046|56=TRAX|10=199|8=FIXT.1.1|9=56|35=0|34=971|49=APA_QA3|52=20180703-21:12:16.048|56=TRAX|10=200|8=FIXT.1.1|9=56|35=0|34=972|49=APA_QA3|52=20180703-21:12:47.049|56=TRAX|10=206|8=FIXT.1.1|9=56|35=0|34=973|49=APA_QA3|52=20180703-21:13:17.052|56=TRAX|10=199|8=FIXT.1.1|9=56|35=0|34=974|49=APA_QA3|52=20180703-21:13:48.043|56=TRAX|10=204|8=FIXT.1.1|9=56|35=0|34=975|49=APA_QA3|52=20180703-21:14:18.048|56=TRAX|10=208|8=FIXT.1.1|9=56|35=0|34=976|49=APA_QA3|52=20180703-21:14:49.041|56=TRAX|10=206|8=FIXT.1.1|9=56|35=0|34=977|49=APA_QA3|52=20180703-21:15:20.039|56=TRAX|10=204|8=FIXT.1.1|9=56|35=0|34=978|49=APA_QA3|52=20180703-21:15:50.045|56=TRAX|10=205|8=FIXT.1.1|9=56|35=0|34=979|49=APA_QA3|52=20180703-21:16:20.045|56=TRAX|10=204|8=FIXT.1.1|9=56|35=0|34=980|49=APA_QA3|52=20180703-21:16:51.038|56=TRAX|10=202|8=FIXT.1.1|9=56|35=0|34=981|49=APA_QA3|52=20180703-21:17:21.041|56=TRAX|10=195|8=FIXT.1.1|9=56|35=0|34=982|49=APA_QA3|52=20180703-21:17:51.056|56=TRAX|10=205|8=FIXT.1.1|9=56|35=0|34=983|49=APA_QA3|52=20180703-21:18:22.048|56=TRAX|10=206|8=FIXT.1.1|9=56|35=0|34=984|49=APA_QA3|52=20180703-21:18:53.041|56=TRAX|10=204|8=FIXT.1.1|9=56|35=0|34=985|49=APA_QA3|52=20180703-21:19:23.049|56=TRAX|10=211|8=FIXT.1.1|9=56|35=0|34=986|49=APA_QA3|52=20180703-21:19:54.037|56=TRAX|10=213|8=FIXT.1.1|9=56|35=0|34=987|49=APA_QA3|52=20180703-21:20:25.036|56=TRAX|10=203|8=FIXT.1.1|9=56|35=0|34=988|49=APA_QA3|52=20180703-21:20:55.047|56=TRAX|10=209|8=FIXT.1.1|9=56|35=0|34=989|49=APA_QA3|52=20180703-21:21:25.048|56=TRAX|10=209|8=FIXT.1.1|9=56|35=0|34=990|49=APA_QA3|52=20180703-21:21:56.043|56=TRAX|10=200|8=FIXT.1.1|9=56|35=0|34=991|49=APA_QA3|52=20180703-21:22:27.044|56=TRAX|10=201|8=FIXT.1.1|9=56|35=0|34=992|49=APA_QA3|52=20180703-21:22:58.036|56=TRAX|10=207|8=FIXT.1.1|9=56|35=0|34=993|49=APA_QA3|52=20180703-21:23:28.041|56=TRAX|10=202|8=FIXT.1.1|9=56|35=0|34=994|49=APA_QA3|52=20180703-21:23:58.046|56=TRAX|10=211|8=FIXT.1.1|9=56|35=0|34=995|49=APA_QA3|52=20180703-21:24:28.048|56=TRAX|10=212|8=FIXT.1.1|9=56|35=0|34=996|49=APA_QA3|52=20180703-21:24:58.050|56=TRAX|10=209|8=FIXT.1.1|9=56|35=0|34=997|49=APA_QA3|52=20180703-21:25:29.043|56=TRAX|10=211|8=FIXT.1.1|9=56|35=0|34=998|49=APA_QA3|52=20180703-21:25:59.043|56=TRAX|10=215|8=FIXT.1.1|9=56|35=0|34=999|49=APA_QA3|52=20180703-21:26:30.041|56=TRAX|10=204|8=FIXT.1.1|9=57|35=0|34=1000|49=APA_QA3|52=20180703-21:27:00.044|56=TRAX|10=228|8=FIXT.1.1|9=57|35=0|34=1001|49=APA_QA3|52=20180703-21:27:31.036|56=TRAX|10=234|8=FIXT.1.1|9=57|35=0|34=1002|49=APA_QA3|52=20180703-21:28:02.036|56=TRAX|10=234|8=FIXT.1.1|9=57|35=0|34=1003|49=APA_QA3|52=20180703-21:28:33.038|56=TRAX|10=241|8=FIXT.1.1|9=57|35=0|34=1004|49=APA_QA3|52=20180703-21:29:03.039|56=TRAX|10=241|8=FIXT.1.1|9=57|35=0|34=1005|49=APA_QA3|52=20180703-21:29:33.039|56=TRAX|10=245|8=FIXT.1.1|9=57|35=0|34=1006|49=APA_QA3|52=20180703-21:30:04.034|56=TRAX|10=231|8=FIXT.1.1|9=57|35=0|34=1007|49=APA_QA3|52=20180703-21:30:34.046|56=TRAX|10=238|8=FIXT.1.1|9=57|35=0|34=1008|49=APA_QA3|52=20180703-21:31:05.037|56=TRAX|10=238|8=FIXT.1.1|9=57|35=0|34=1009|49=APA_QA3|52=20180703-21:31:35.038|56=TRAX|10=243|8=FIXT.1.1|9=57|35=0|34=1010|49=APA_QA3|52=20180703-21:32:05.039|56=TRAX|10=234|8=FIXT.1.1|9=57|35=0|34=1011|49=APA_QA3|52=20180703-21:32:35.041|56=TRAX|10=231|8=FIXT.1.1|9=57|35=0|34=1012|49=APA_QA3|52=20180703-21:33:06.038|56=TRAX|10=237|8=FIXT.1.1|9=57|35=0|34=1013|49=APA_QA3|52=20180703-21:33:37.037|56=TRAX|10=241|8=FIXT.1.1|9=57|35=0|34=1014|49=APA_QA3|52=20180703-21:34:08.033|56=TRAX|10=237|8=FIXT.1.1|9=57|35=0|34=1015|49=APA_QA3|52=20180703-21:34:38.036|56=TRAX|10=244|8=FIXT.1.1|9=57|35=0|34=1016|49=APA_QA3|52=20180703-21:35:08.036|56=TRAX|10=243|8=FIXT.1.1|9=57|35=0|34=1017|49=APA_QA3|52=20180703-21:35:38.039|56=TRAX|10=250|8=FIXT.1.1|9=57|35=0|34=1018|49=APA_QA3|52=20180703-21:36:08.041|56=TRAX|10=242|8=FIXT.1.1|9=57|35=0|34=1019|49=APA_QA3|52=20180703-21:36:39.031|56=TRAX|10=246|8=FIXT.1.1|9=57|35=0|34=1020|49=APA_QA3|52=20180703-21:37:09.032|56=TRAX|10=237|8=FIXT.1.1|9=57|35=0|34=1021|49=APA_QA3|52=20180703-21:37:39.037|56=TRAX|10=246|8=FIXT.1.1|9=57|35=0|34=1022|49=APA_QA3|52=20180703-21:38:09.040|56=TRAX|10=239|8=FIXT.1.1|9=57|35=0|34=1023|49=APA_QA3|52=20180703-21:38:40.034|56=TRAX|10=238|8=FIXT.1.1|9=57|35=0|34=1024|49=APA_QA3|52=20180703-21:39:11.031|56=TRAX|10=235|8=FIXT.1.1|9=57|35=0|34=1025|49=APA_QA3|52=20180703-21:39:41.040|56=TRAX|10=239|8=FIXT.1.1|9=57|35=0|34=1026|49=APA_QA3|52=20180703-21:40:12.039|56=TRAX|10=238|8=FIXT.1.1|9=57|35=0|34=1027|49=APA_QA3|52=20180703-21:40:43.036|56=TRAX|10=240|8=FIXT.1.1|9=57|35=0|34=1028|49=APA_QA3|52=20180703-21:41:13.036|56=TRAX|10=239|8=FIXT.1.1|9=57|35=0|34=1029|49=APA_QA3|52=20180703-21:41:43.932|56=TRAX|10=248|8=FIXT.1.1|9=57|35=0|34=1030|49=APA_QA3|52=20180703-21:42:14.044|56=TRAX|10=233|8=FIXT.1.1|9=57|35=0|34=1031|49=APA_QA3|52=20180703-21:42:45.042|56=TRAX|10=236|8=FIXT.1.1|9=57|35=0|34=1032|49=APA_QA3|52=20180703-21:43:15.047|56=TRAX|10=240|8=FIXT.1.1|9=57|35=0|34=1033|49=APA_QA3|52=20180703-21:43:46.037|56=TRAX|10=244|8=FIXT.1.1|9=57|35=0|34=1034|49=APA_QA3|52=20180703-21:44:16.039|56=TRAX|10=245|8=FIXT.1.1|9=57|35=0|34=1035|49=APA_QA3|52=20180703-21:44:46.044|56=TRAX|10=245|8=FIXT.1.1|9=57|35=0|34=1036|49=APA_QA3|52=20180703-21:45:17.039|56=TRAX|10=249|8=FIXT.1.1|9=57|35=0|34=1037|49=APA_QA3|52=20180703-21:45:48.040|56=TRAX|10=246|8=FIXT.1.1|9=57|35=0|34=1038|49=APA_QA3|52=20180703-21:46:19.040|56=TRAX|10=246|8=FIXT.1.1|9=57|35=0|34=1039|49=APA_QA3|52=20180703-21:46:50.038|56=TRAX|10=249|8=FIXT.1.1|9=57|35=0|34=1040|49=APA_QA3|52=20180703-21:47:20.043|56=TRAX|10=235|8=FIXT.1.1|9=57|35=0|34=1041|49=APA_QA3|52=20180703-21:47:51.025|56=TRAX|10=240|8=FIXT.1.1|9=57|35=0|34=1042|49=APA_QA3|52=20180703-21:48:21.041|56=TRAX|10=237|8=FIXT.1.1|9=57|35=0|34=1043|49=APA_QA3|52=20180703-21:48:52.037|56=TRAX|10=247|8=FIXT.1.1|9=57|35=0|34=1044|49=APA_QA3|52=20180703-21:49:22.038|56=TRAX|10=247|8=FIXT.1.1|9=57|35=0|34=1045|49=APA_QA3|52=20180703-21:49:53.033|56=TRAX|10=247|8=FIXT.1.1|9=57|35=0|34=1046|49=APA_QA3|52=20180703-21:50:23.033|56=TRAX|10=237|8=FIXT.1.1|9=57|35=0|34=1047|49=APA_QA3|52=20180703-21:50:54.031|56=TRAX|10=240|8=FIXT.1.1|9=57|35=0|34=1048|49=APA_QA3|52=20180703-21:51:24.040|56=TRAX|10=239|8=FIXT.1.1|9=57|35=0|34=1049|49=APA_QA3|52=20180703-21:51:55.033|56=TRAX|10=246|8=FIXT.1.1|9=57|35=0|34=1050|49=APA_QA3|52=20180703-21:52:26.034|56=TRAX|10=238|8=FIXT.1.1|9=57|35=0|34=1051|49=APA_QA3|52=20180703-21:52:57.034|56=TRAX|10=243|8=FIXT.1.1|9=57|35=0|34=1052|49=APA_QA3|52=20180703-21:53:27.042|56=TRAX|10=241|8=FIXT.1.1|9=57|35=0|34=1053|49=APA_QA3|52=20180703-21:53:58.022|56=TRAX|10=244|8=FIXT.1.1|9=57|35=0|34=1054|49=APA_QA3|52=20180703-21:54:28.036|56=TRAX|10=248|8=FIXT.1.1|9=57|35=0|34=1055|49=APA_QA3|52=20180703-21:54:59.029|56=TRAX|10=255|8=FIXT.1.1|9=57|35=0|34=1056|49=APA_QA3|52=20180703-21:55:29.029|56=TRAX|10=254|8=FIXT.1.1|9=57|35=0|34=1057|49=APA_QA3|52=20180703-21:55:59.032|56=TRAX|10=252|8=FIXT.1.1|9=57|35=0|34=1058|49=APA_QA3|52=20180703-21:56:30.043|56=TRAX|10=245|8=FIXT.1.1|9=57|35=0|34=1059|49=APA_QA3|52=20180703-21:57:01.027|56=TRAX|10=247|8=FIXT.1.1|9=57|35=0|34=1060|49=APA_QA3|52=20180703-21:57:31.038|56=TRAX|10=244|8=FIXT.1.1|9=57|35=0|34=1061|49=APA_QA3|52=20180703-21:58:02.036|56=TRAX|10=242|8=FIXT.1.1|9=57|35=0|34=1062|49=APA_QA3|52=20180703-21:58:33.036|56=TRAX|10=247|8=FIXT.1.1|9=57|35=0|34=1063|49=APA_QA3|52=20180703-21:59:04.032|56=TRAX|10=243|8=FIXT.1.1|9=57|35=0|34=1064|49=APA_QA3|52=20180703-21:59:35.031|56=TRAX|10=247|8=FIXT.1.1|9=57|35=0|34=1065|49=APA_QA3|52=20180703-22:00:06.032|56=TRAX|10=234|8=FIXT.1.1|9=57|35=0|34=1066|49=APA_QA3|52=20180703-22:00:36.036|56=TRAX|10=242|8=FIXT.1.1|9=57|35=0|34=1067|49=APA_QA3|52=20180703-22:01:07.031|56=TRAX|10=237|8=FIXT.1.1|9=57|35=0|34=1068|49=APA_QA3|52=20180703-22:01:38.031|56=TRAX|10=242|8=FIXT.1.1|9=57|35=0|34=1069|49=APA_QA3|52=20180703-22:02:08.035|56=TRAX|10=245|8=FIXT.1.1|9=57|35=0|34=1070|49=APA_QA3|52=20180703-22:02:39.020|56=TRAX|10=235|8=FIXT.1.1|9=57|35=0|34=1071|49=APA_QA3|52=20180703-22:03:09.039|56=TRAX|10=244|8=FIXT.1.1|9=57|35=0|34=1072|49=APA_QA3|52=20180703-22:03:40.022|56=TRAX|10=232|8=FIXT.1.1|9=57|35=0|34=1073|49=APA_QA3|52=20180703-22:04:10.038|56=TRAX|10=238|8=FIXT.1.1|9=57|35=0|34=1074|49=APA_QA3|52=20180703-22:04:41.020|56=TRAX|10=234|8=FIXT.1.1|9=57|35=0|34=1075|49=APA_QA3|52=20180703-22:05:11.038|56=TRAX|10=242|8=FIXT.1.1|9=57|35=0|34=1076|49=APA_QA3|52=20180703-22:05:42.022|56=TRAX|10=240|8=FIXT.1.1|9=57|35=0|34=1077|49=APA_QA3|52=20180703-22:06:13.021|56=TRAX|10=239|8=FIXT.1.1|9=57|35=0|34=1078|49=APA_QA3|52=20180703-22:06:43.023|56=TRAX|10=245|8=FIXT.1.1|9=57|35=0|34=1079|49=APA_QA3|52=20180703-22:07:13.944|56=TRAX|10=000|8=FIXT.1.1|9=57|35=0|34=1080|49=APA_QA3|52=20180703-22:07:44.030|56=TRAX|10=238|8=FIXT.1.1|9=57|35=0|34=1081|49=APA_QA3|52=20180703-22:08:15.031|56=TRAX|10=239|8=FIXT.1.1|9=57|35=0|34=1082|49=APA_QA3|52=20180703-22:08:46.021|56=TRAX|10=243|8=FIXT.1.1|9=57|35=0|34=1083|49=APA_QA3|52=20180703-22:09:17.022|56=TRAX|10=244|8=FIXT.1.1|9=57|35=0|34=1084|49=APA_QA3|52=20180703-22:09:47.034|56=TRAX|10=251|8=FIXT.1.1|9=57|35=0|34=1085|49=APA_QA3|52=20180703-22:10:18.019|56=TRAX|10=245|8=FIXT.1.1|9=57|35=0|34=1086|49=APA_QA3|52=20180703-22:10:48.019|56=TRAX|10=249|8=FIXT.1.1|9=57|35=0|34=1087|49=APA_QA3|52=20180703-22:11:18.024|56=TRAX|10=244|8=FIXT.1.1|9=57|35=0|34=1088|49=APA_QA3|52=20180703-22:11:49.023|56=TRAX|10=248|8=FIXT.1.1|9=57|35=0|34=1089|49=APA_QA3|52=20180703-22:12:20.023|56=TRAX|10=239|8=FIXT.1.1|9=57|35=0|34=1090|49=APA_QA3|52=20180703-22:12:50.025|56=TRAX|10=236|8=FIXT.1.1|9=57|35=0|34=1091|49=APA_QA3|52=20180703-22:13:20.028|56=TRAX|10=238|8=FIXT.1.1|9=57|35=0|34=1092|49=APA_QA3|52=20180703-22:13:51.029|56=TRAX|10=244|8=FIXT.1.1|9=57|35=0|34=1093|49=APA_QA3|52=20180703-22:14:22.019|56=TRAX|10=243|8=FIXT.1.1|9=57|35=0|34=1094|49=APA_QA3|52=20180703-22:14:53.020|56=TRAX|10=240|8=FIXT.1.1|9=57|35=0|34=1095|49=APA_QA3|52=20180703-22:15:23.024|56=TRAX|10=243|8=FIXT.1.1|9=57|35=0|34=1096|49=APA_QA3|52=20180703-22:15:54.023|56=TRAX|10=247|8=FIXT.1.1|9=57|35=0|34=1097|49=APA_QA3|52=20180703-22:16:24.026|56=TRAX|10=249|8=FIXT.1.1|9=57|35=0|34=1098|49=APA_QA3|52=20180703-22:16:55.016|56=TRAX|10=253|8=FIXT.1.1|9=57|35=0|34=1099|49=APA_QA3|52=20180703-22:17:25.028|56=TRAX|10=255|8=FIXT.1.1|9=57|35=0|34=1100|49=APA_QA3|52=20180703-22:17:55.028|56=TRAX|10=241|8=FIXT.1.1|9=57|35=0|34=1101|49=APA_QA3|52=20180703-22:18:26.017|56=TRAX|10=239|8=FIXT.1.1|9=57|35=0|34=1102|49=APA_QA3|52=20180703-22:18:57.016|56=TRAX|10=243|8=FIXT.1.1|9=57|35=0|34=1103|49=APA_QA3|52=20180703-22:19:27.020|56=TRAX|10=237|8=FIXT.1.1|9=57|35=0|34=1104|49=APA_QA3|52=20180703-22:19:57.020|56=TRAX|10=241|8=FIXT.1.1|9=57|35=0|34=1105|49=APA_QA3|52=20180703-22:20:28.015|56=TRAX|10=236|8=FIXT.1.1|9=57|35=0|34=1106|49=APA_QA3|52=20180703-22:20:58.016|56=TRAX|10=241|8=FIXT.1.1|9=57|35=0|34=1107|49=APA_QA3|52=20180703-22:21:28.022|56=TRAX|10=237|8=FIXT.1.1|9=57|35=0|34=1108|49=APA_QA3|52=20180703-22:21:59.018|56=TRAX|10=247|8=FIXT.1.1|9=57|35=0|34=1109|49=APA_QA3|52=20180703-22:22:29.031|56=TRAX|10=241|8=FIXT.1.1|9=57|35=0|34=1110|49=APA_QA3|52=20180703-22:23:00.024|56=TRAX|10=225|8=FIXT.1.1|9=57|35=0|34=1111|49=APA_QA3|52=20180703-22:23:31.020|56=TRAX|10=226|8=FIXT.1.1|9=57|35=0|34=1112|49=APA_QA3|52=20180703-22:24:02.014|56=TRAX|10=229|8=FIXT.1.1|9=57|35=0|34=1113|49=APA_QA3|52=20180703-22:24:32.015|56=TRAX|10=234|8=FIXT.1.1|9=57|35=0|34=1114|49=APA_QA3|52=20180703-22:25:02.016|56=TRAX|10=234|8=FIXT.1.1|9=57|35=0|34=1115|49=APA_QA3|52=20180703-22:25:33.017|56=TRAX|10=240|8=FIXT.1.1|9=57|35=0|34=1116|49=APA_QA3|52=20180703-22:26:04.018|56=TRAX|10=241|8=FIXT.1.1|9=57|35=0|34=1117|49=APA_QA3|52=20180703-22:26:35.018|56=TRAX|10=246|8=FIXT.1.1|9=57|35=0|34=1118|49=APA_QA3|52=20180703-22:27:05.020|56=TRAX|10=238|8=FIXT.1.1|9=57|35=0|34=1119|49=APA_QA3|52=20180703-22:27:36.011|56=TRAX|10=243|8=FIXT.1.1|9=57|35=0|34=1120|49=APA_QA3|52=20180703-22:28:06.019|56=TRAX|10=241|8=FIXT.1.1|9=57|35=0|34=1121|49=APA_QA3|52=20180703-22:28:37.016|56=TRAX|10=243|8=FIXT.1.1|9=57|35=0|34=1122|49=APA_QA3|52=20180703-22:29:07.024|56=TRAX|10=241|8=FIXT.1.1|9=57|35=0|34=1123|49=APA_QA3|52=20180703-22:29:38.014|56=TRAX|10=245|8=FIXT.1.1|9=57|35=0|34=1124|49=APA_QA3|52=20180703-22:30:09.013|56=TRAX|10=235|8=FIXT.1.1|9=57|35=0|34=1125|49=APA_QA3|52=20180703-22:30:39.022|56=TRAX|10=239|8=FIXT.1.1|9=57|35=0|34=1126|49=APA_QA3|52=20180703-22:31:10.015|56=TRAX|10=232|8=FIXT.1.1|9=57|35=0|34=1127|49=APA_QA3|52=20180703-22:31:41.010|56=TRAX|10=232|8=FIXT.1.1|9=57|35=0|34=1128|49=APA_QA3|52=20180703-22:32:11.022|56=TRAX|10=234|8=FIXT.1.1|9=57|35=0|34=1129|49=APA_QA3|52=20180703-22:32:42.017|56=TRAX|10=243|8=FIXT.1.1|9=57|35=0|34=1130|49=APA_QA3|52=20180703-22:33:12.020|56=TRAX|10=227|8=FIXT.1.1|9=57|35=0|34=1131|49=APA_QA3|52=20180703-22:33:43.010|56=TRAX|10=231|8=FIXT.1.1|9=57|35=0|34=1132|49=APA_QA3|52=20180703-22:34:13.015|56=TRAX|10=235|8=FIXT.1.1|9=57|35=0|34=1133|49=APA_QA3|52=20180703-22:34:43.936|56=TRAX|10=251|8=FIXT.1.1|9=57|35=0|34=1134|49=APA_QA3|52=20180703-22:35:13.950|56=TRAX|10=246|8=FIXT.1.1|9=57|35=0|34=1135|49=APA_QA3|52=20180703-22:35:44.024|56=TRAX|10=243|8=FIXT.1.1|9=57|35=0|34=1136|49=APA_QA3|52=20180703-22:36:15.013|56=TRAX|10=241|8=FIXT.1.1|9=57|35=0|34=1137|49=APA_QA3|52=20180703-22:36:45.014|56=TRAX|10=246|8=FIXT.1.1|9=57|35=0|34=1138|49=APA_QA3|52=20180703-22:37:15.025|56=TRAX|10=247|8=FIXT.1.1|9=57|35=0|34=1139|49=APA_QA3|52=20180703-22:37:46.020|56=TRAX|10=247|8=FIXT.1.1|9=57|35=0|34=1140|49=APA_QA3|52=20180703-22:38:17.017|56=TRAX|10=244|8=FIXT.1.1|9=57|35=0|34=1141|49=APA_QA3|52=20180703-22:38:48.012|56=TRAX|10=244|8=FIXT.1.1|9=57|35=0|34=1142|49=APA_QA3|52=20180703-22:39:19.010|56=TRAX|10=242|8=FIXT.1.1|9=57|35=0|34=1143|49=APA_QA3|52=20180703-22:39:49.017|56=TRAX|10=253|8=FIXT.1.1|9=57|35=0|34=1144|49=APA_QA3|52=20180703-22:40:20.013|56=TRAX|10=231|8=FIXT.1.1|9=57|35=0|34=1145|49=APA_QA3|52=20180703-22:40:50.017|56=TRAX|10=239|8=FIXT.1.1|9=57|35=0|34=1146|49=APA_QA3|52=20180703-22:41:21.016|56=TRAX|10=238|8=FIXT.1.1|9=57|35=0|34=1147|49=APA_QA3|52=20180703-22:41:52.014|56=TRAX|10=241|8=FIXT.1.1|9=57|35=0|34=1148|49=APA_QA3|52=20180703-22:42:23.014|56=TRAX|10=241|8=FIXT.1.1|9=57|35=0|34=1149|49=APA_QA3|52=20180703-22:42:54.008|56=TRAX|10=249|8=FIXT.1.1|9=57|35=0|34=1150|49=APA_QA3|52=20180703-22:43:24.011|56=TRAX|10=233|8=FIXT.1.1|9=57|35=0|34=1151|49=APA_QA3|52=20180703-22:43:55.008|56=TRAX|10=244|8=FIXT.1.1|9=57|35=0|34=1152|49=APA_QA3|52=20180703-22:44:25.011|56=TRAX|10=237|8=FIXT.1.1|9=57|35=0|34=1153|49=APA_QA3|52=20180703-22:44:56.007|56=TRAX|10=247|8=FIXT.1.1|9=57|35=0|34=1154|49=APA_QA3|52=20180703-22:45:26.010|56=TRAX|10=240|8=FIXT.1.1|9=57|35=0|34=1155|49=APA_QA3|52=20180703-22:45:57.011|56=TRAX|10=246|8=FIXT.1.1|9=57|35=0|34=1156|49=APA_QA3|52=20180703-22:46:27.023|56=TRAX|10=248|8=FIXT.1.1|9=57|35=0|34=1157|49=APA_QA3|52=20180703-22:46:58.006|56=TRAX|10=254|8=FIXT.1.1|9=57|35=0|34=1158|49=APA_QA3|52=20180703-22:47:29.006|56=TRAX|10=254|8=FIXT.1.1|9=57|35=0|34=1159|49=APA_QA3|52=20180703-22:47:59.012|56=TRAX|10=255|8=FIXT.1.1|9=57|35=0|34=1160|49=APA_QA3|52=20180703-22:48:30.006|56=TRAX|10=240|8=FIXT.1.1|9=57|35=0|34=1161|49=APA_QA3|52=20180703-22:49:01.005|56=TRAX|10=239|8=FIXT.1.1|9=57|35=0|34=1162|49=APA_QA3|52=20180703-22:49:31.010|56=TRAX|10=239|8=FIXT.1.1|9=57|35=0|34=1163|49=APA_QA3|52=20180703-22:50:02.011|56=TRAX|10=231|8=FIXT.1.1|9=57|35=0|34=1164|49=APA_QA3|52=20180703-22:50:32.012|56=TRAX|10=236|8=FIXT.1.1|9=57|35=0|34=1165|49=APA_QA3|52=20180703-22:51:03.010|56=TRAX|10=234|8=FIXT.1.1|9=57|35=0|34=1166|49=APA_QA3|52=20180703-22:51:34.006|56=TRAX|10=244|8=FIXT.1.1|9=57|35=0|34=1167|49=APA_QA3|52=20180703-22:52:04.007|56=TRAX|10=244|8=FIXT.1.1|9=57|35=0|34=1168|49=APA_QA3|52=20180703-22:52:34.021|56=TRAX|10=244|8=FIXT.1.1|9=57|35=0|34=1169|49=APA_QA3|52=20180703-22:53:05.014|56=TRAX|10=246|8=FIXT.1.1|9=57|35=0|34=1170|49=APA_QA3|52=20180703-22:53:35.021|56=TRAX|10=239|8=FIXT.1.1|9=57|35=0|34=1171|49=APA_QA3|52=20180703-22:54:06.008|56=TRAX|10=244|8=FIXT.1.1|9=57|35=0|34=1172|49=APA_QA3|52=20180703-22:54:37.007|56=TRAX|10=248|8=FIXT.1.1|9=57|35=0|34=1173|49=APA_QA3|52=20180703-22:55:07.009|56=TRAX|10=249|8=FIXT.1.1|9=57|35=0|34=1174|49=APA_QA3|52=20180703-22:55:37.015|56=TRAX|10=250|8=FIXT.1.1|9=57|35=0|34=1175|49=APA_QA3|52=20180703-22:56:08.014|56=TRAX|10=249|8=FIXT.1.1|9=57|35=0|34=1176|49=APA_QA3|52=20180703-22:56:39.004|56=TRAX|10=253|8=FIXT.1.1|9=57|35=0|34=1177|49=APA_QA3|52=20180703-22:57:10.021|56=TRAX|10=243|8=FIXT.1.1|9=57|35=0|34=1178|49=APA_QA3|52=20180703-22:57:41.001|56=TRAX|10=246|8=FIXT.1.1|9=57|35=0|34=1179|49=APA_QA3|52=20180703-22:58:11.010|56=TRAX|10=245|8=FIXT.1.1|9=57|35=0|34=1180|49=APA_QA3|52=20180703-22:58:41.014|56=TRAX|10=244|8=FIXT.1.1|9=57|35=0|34=1181|49=APA_QA3|52=20180703-22:59:12.011|56=TRAX|10=241|8=FIXT.1.1|9=57|35=0|34=1182|49=APA_QA3|52=20180703-22:59:42.016|56=TRAX|10=250|8=FIXT.1.1|9=57|35=0|34=1183|49=APA_QA3|52=20180703-23:00:13.015|56=TRAX|10=235|8=FIXT.1.1|9=57|35=0|34=1184|49=APA_QA3|52=20180703-23:00:43.948|56=TRAX|10=254|8=FIXT.1.1|9=57|35=0|34=1185|49=APA_QA3|52=20180703-23:01:14.006|56=TRAX|10=239|8=FIXT.1.1|9=57|35=0|34=1186|49=APA_QA3|52=20180703-23:01:44.018|56=TRAX|10=246|8=FIXT.1.1|9=57|35=0|34=1187|49=APA_QA3|52=20180703-23:02:15.006|56=TRAX|10=243|8=FIXT.1.1|9=57|35=0|34=1188|49=APA_QA3|52=20180703-23:02:45.015|56=TRAX|10=247|8=FIXT.1.1|9=57|35=0|34=1189|49=APA_QA3|52=20180703-23:03:16.009|56=TRAX|10=250|8=FIXT.1.1|9=57|35=0|34=1190|49=APA_QA3|52=20180703-23:03:47.009|56=TRAX|10=246|8=FIXT.1.1|9=57|35=0|34=1191|49=APA_QA3|52=20180703-23:04:17.014|56=TRAX|10=241|8=FIXT.1.1|9=57|35=0|34=1192|49=APA_QA3|52=20180703-23:04:48.008|56=TRAX|10=249|8=FIXT.1.1|9=57|35=5|34=1193|49=APA_QA3|52=20180703-23:05:01.012|56=TRAX|10=240|8=FIXT.1.1|9=96|35=A|34=1|49=APA_QA3|52=20180704-08:54:02.142|56=TRAX|98=0|108=30|95=8|96=2.0.0rc4|141=Y|1137=9|10=128|8=FIXT.1.1|9=54|35=0|34=2|49=APA_QA3|52=20180704-08:54:32.150|56=TRAX|10=091|8=FIXT.1.1|9=54|35=0|34=3|49=APA_QA3|52=20180704-08:55:02.946|56=TRAX|10=103|8=FIXT.1.1|9=54|35=0|34=4|49=APA_QA3|52=20180704-08:55:33.154|56=TRAX|10=099|8=FIXT.1.1|9=54|35=0|34=5|49=APA_QA3|52=20180704-08:56:04.141|56=TRAX|10=095|8=FIXT.1.1|9=617|35=AE|34=6|49=APA_QA3|50=APA|57=APA|52=20180704-08:56:33.999|56=TRAX|571=TradeReport|487=0|325=Y|423=1|55=[N/A]|22=104|32=2222|31=203.17|60=20170705-06:20:13.370|552=1|54=1|29=3|1041=APA-concat-27|1934=0|15=GBP|1924=1|22600=250|22601=GBP|854=1|231=10|30=SINT|22606=DERV|22609=LMAE|22607=COMM|22608=FUTR|22610=20200705|22614=OOO|22627=USD|22639=20180705|22640=11|22641=RIMADRVC1DR1|22642=05B6OC1W7N8NJQRIYS63|22631=EONA|22643=10DAYS|22648=PHYS|22649=XXXX|22650=XXXX|22651=XXXX|22652=SWAP|22653=GBCL|22661=Metal commodity futures|1116=2|1117=05B6OC1W7N8NJQRIYS63|1118=N|1119=116|1117=1K5LZHJ5JD3MJDCQOD47|1118=N|1119=1|10=072|8=FIXT.1.1|9=54|35=0|34=7|49=APA_QA3|52=20180704-08:57:04.141|56=TRAX|10=098|8=FIXT.1.1|9=54|35=0|34=8|49=APA_QA3|52=20180704-08:57:34.141|56=TRAX|10=102|8=FIXT.1.1|9=54|35=0|34=9|49=APA_QA3|52=20180704-08:58:04.144|56=TRAX|10=104|8=FIXT.1.1|9=55|35=0|34=10|49=APA_QA3|52=20180704-08:58:34.943|56=TRAX|10=155|8=FIXT.1.1|9=55|35=0|34=11|49=APA_QA3|52=20180704-08:59:04.946|56=TRAX|10=157|8=FIXT.1.1|9=55|35=0|34=12|49=APA_QA3|52=20180704-08:59:34.947|56=TRAX|10=162|8=FIXT.1.1|9=55|35=0|34=13|49=APA_QA3|52=20180704-09:00:04.950|56=TRAX|10=141|8=FIXT.1.1|9=55|35=0|34=14|49=APA_QA3|52=20180704-09:00:34.952|56=TRAX|10=147|8=FIXT.1.1|9=55|35=0|34=15|49=APA_QA3|52=20180704-09:01:05.140|56=TRAX|10=136|8=FIXT.1.1|9=55|35=0|34=16|49=APA_QA3|52=20180704-09:01:36.136|56=TRAX|10=146|8=FIXT.1.1|9=55|35=0|34=17|49=APA_QA3|52=20180704-09:02:06.145|56=TRAX|10=145|8=FIXT.1.1|9=55|35=0|34=18|49=APA_QA3|52=20180704-09:02:37.132|56=TRAX|10=146|8=FIXT.1.1|9=55|35=0|34=19|49=APA_QA3|52=20180704-09:03:07.142|56=TRAX|10=146|8=FIXT.1.1|9=55|35=0|34=20|49=APA_QA3|52=20180704-09:03:37.146|56=TRAX|10=145|8=FIXT.1.1|9=55|35=0|34=21|49=APA_QA3|52=20180704-09:04:08.131|56=TRAX|10=139|8=FIXT.1.1|9=55|35=0|34=22|49=APA_QA3|52=20180704-09:04:38.136|56=TRAX|10=148|8=FIXT.1.1|9=55|35=0|34=23|49=APA_QA3|52=20180704-09:05:09.134|56=TRAX|10=146|8=FIXT.1.1|9=55|35=0|34=24|49=APA_QA3|52=20180704-09:05:40.131|56=TRAX|10=139|8=FIXT.1.1|9=55|35=0|34=25|49=APA_QA3|52=20180704-09:06:10.138|56=TRAX|10=145|8=FIXT.1.1|9=55|35=0|34=26|49=APA_QA3|52=20180704-09:06:41.134|56=TRAX|10=146|8=FIXT.1.1|9=55|35=0|34=27|49=APA_QA3|52=20180704-09:07:12.131|56=TRAX|10=143|8=FIXT.1.1|9=55|35=0|34=28|49=APA_QA3|52=20180704-09:07:42.141|56=TRAX|10=148|8=FIXT.1.1|9=55|35=0|34=29|49=APA_QA3|52=20180704-09:08:12.144|56=TRAX|10=150|8=FIXT.1.1|9=55|35=0|34=30|49=APA_QA3|52=20180704-09:08:43.140|56=TRAX|10=142|8=FIXT.1.1|9=55|35=0|34=31|49=APA_QA3|52=20180704-09:09:13.144|56=TRAX|10=145|8=FIXT.1.1|9=55|35=0|34=32|49=APA_QA3|52=20180704-09:09:43.144|56=TRAX|10=149|8=FIXT.1.1|9=55|35=0|34=33|49=APA_QA3|52=20180704-09:10:14.137|56=TRAX|10=142|8=FIXT.1.1|9=55|35=0|34=34|49=APA_QA3|52=20180704-09:10:45.137|56=TRAX|10=147|8=FIXT.1.1|9=55|35=0|34=35|49=APA_QA3|52=20180704-09:11:16.135|56=TRAX|10=145|8=FIXT.1.1|9=55|35=0|34=36|49=APA_QA3|52=20180704-09:11:46.143|56=TRAX|10=148|8=FIXT.1.1|9=55|35=0|34=37|49=APA_QA3|52=20180704-09:12:17.135|56=TRAX|10=149|8=FIXT.1.1|9=55|35=0|34=38|49=APA_QA3|52=20180704-09:12:48.132|56=TRAX|10=151|8=FIXT.1.1|9=55|35=0|34=39|49=APA_QA3|52=20180704-09:13:18.140|56=TRAX|10=149|8=FIXT.1.1|9=55|35=0|34=40|49=APA_QA3|52=20180704-09:13:49.132|56=TRAX|10=146|8=FIXT.1.1|9=55|35=0|34=41|49=APA_QA3|52=20180704-09:14:19.134|56=TRAX|10=147|8=FIXT.1.1|9=55|35=0|34=42|49=APA_QA3|52=20180704-09:14:50.129|56=TRAX|10=147|8=FIXT.1.1|9=55|35=0|34=43|49=APA_QA3|52=20180704-09:15:20.129|56=TRAX|10=146|8=FIXT.1.1|9=55|35=0|34=44|49=APA_QA3|52=20180704-09:15:50.129|56=TRAX|10=150|8=FIXT.1.1|9=55|35=0|34=45|49=APA_QA3|52=20180704-09:16:20.140|56=TRAX|10=142|8=FIXT.1.1|9=55|35=0|34=46|49=APA_QA3|52=20180704-09:16:51.137|56=TRAX|10=153|8=FIXT.1.1|9=55|35=0|34=47|49=APA_QA3|52=20180704-09:17:22.126|56=TRAX|10=151|8=FIXT.1.1|9=55|35=0|34=48|49=APA_QA3|52=20180704-09:17:52.127|56=TRAX|10=156|8=FIXT.1.1|9=55|35=0|34=49|49=APA_QA3|52=20180704-09:18:22.138|56=TRAX|10=157|8=FIXT.1.1|9=55|35=0|34=50|49=APA_QA3|52=20180704-09:18:52.139|56=TRAX|10=153|8=FIXT.1.1|9=55|35=0|34=51|49=APA_QA3|52=20180704-09:19:23.131|56=TRAX|10=145|8=FIXT.1.1|9=55|35=0|34=52|49=APA_QA3|52=20180704-09