8=FIXT.1.1|9=104|35=A|34=1|49=HEMAMTFRTS27QA2|52=20180625-11:03:56.597|56=TRAX|98=0|108=30|95=8|96=2.0.0rc4|141=Y|1137=9|10=229|8=FIXT.1.1|9=62|35=0|34=2|49=HEMAMTFRTS27QA2|52=20180625-11:04:27.603|56=TRAX|10=138|8=FIXT.1.1|9=62|35=0|34=3|49=HEMAMTFRTS27QA2|52=20180625-11:04:57.804|56=TRAX|10=145|8=FIXT.1.1|9=62|35=0|34=4|49=HEMAMTFRTS27QA2|52=20180625-11:05:28.595|56=TRAX|10=152|8=FIXT.1.1|9=62|35=0|34=5|49=HEMAMTFRTS27QA2|52=20180625-11:05:58.595|56=TRAX|10=156|8=FIXT.1.1|9=62|35=0|34=6|49=HEMAMTFRTS27QA2|52=20180625-11:06:29.606|56=TRAX|10=149|8=FIXT.1.1|9=62|35=0|34=7|49=HEMAMTFRTS27QA2|52=20180625-11:07:00.592|56=TRAX|10=144|8=FIXT.1.1|9=62|35=0|34=8|49=HEMAMTFRTS27QA2|52=20180625-11:07:30.602|56=TRAX|10=140|8=FIXT.1.1|9=62|35=0|34=9|49=HEMAMTFRTS27QA2|52=20180625-11:08:01.606|56=TRAX|10=144|8=FIXT.1.1|9=63|35=0|34=10|49=HEMAMTFRTS27QA2|52=20180625-11:08:32.597|56=TRAX|10=198|8=FIXT.1.1|9=63|35=0|34=11|49=HEMAMTFRTS27QA2|52=20180625-11:09:02.600|56=TRAX|10=182|8=FIXT.1.1|9=63|35=0|34=12|49=HEMAMTFRTS27QA2|52=20180625-11:09:32.604|56=TRAX|10=190|8=FIXT.1.1|9=63|35=0|34=13|49=HEMAMTFRTS27QA2|52=20180625-11:10:03.597|56=TRAX|10=192|8=FIXT.1.1|9=63|35=0|34=14|49=HEMAMTFRTS27QA2|52=20180625-11:10:33.598|56=TRAX|10=197|8=FIXT.1.1|9=63|35=0|34=15|49=HEMAMTFRTS27QA2|52=20180625-11:11:04.592|56=TRAX|10=191|8=FIXT.1.1|9=63|35=0|34=16|49=HEMAMTFRTS27QA2|52=20180625-11:11:34.599|56=TRAX|10=202|8=FIXT.1.1|9=63|35=0|34=17|49=HEMAMTFRTS27QA2|52=20180625-11:12:04.601|56=TRAX|10=185|8=FIXT.1.1|9=63|35=0|34=18|49=HEMAMTFRTS27QA2|52=20180625-11:12:35.591|56=TRAX|10=198|8=FIXT.1.1|9=63|35=0|34=19|49=HEMAMTFRTS27QA2|52=20180625-11:13:05.598|56=TRAX|10=204|8=FIXT.1.1|9=63|35=0|34=20|49=HEMAMTFRTS27QA2|52=20180625-11:13:36.604|56=TRAX|10=188|8=FIXT.1.1|9=63|35=0|34=21|49=HEMAMTFRTS27QA2|52=20180625-11:14:07.593|56=TRAX|10=195|8=FIXT.1.1|9=63|35=0|34=22|49=HEMAMTFRTS27QA2|52=20180625-11:14:37.920|56=TRAX|10=193|8=FIXT.1.1|9=63|35=0|34=23|49=HEMAMTFRTS27QA2|52=20180625-11:15:08.595|56=TRAX|10=201|8=FIXT.1.1|9=63|35=0|34=24|49=HEMAMTFRTS27QA2|52=20180625-11:15:39.590|56=TRAX|10=201|8=FIXT.1.1|9=63|35=0|34=25|49=HEMAMTFRTS27QA2|52=20180625-11:16:09.597|56=TRAX|10=207|8=FIXT.1.1|9=63|35=0|34=26|49=HEMAMTFRTS27QA2|52=20180625-11:16:40.598|56=TRAX|10=204|8=FIXT.1.1|9=63|35=0|34=27|49=HEMAMTFRTS27QA2|52=20180625-11:17:11.601|56=TRAX|10=189|8=FIXT.1.1|9=63|35=0|34=28|49=HEMAMTFRTS27QA2|52=20180625-11:17:42.593|56=TRAX|10=204|8=FIXT.1.1|9=63|35=0|34=29|49=HEMAMTFRTS27QA2|52=20180625-11:18:13.597|56=TRAX|10=208|8=FIXT.1.1|9=63|35=0|34=30|49=HEMAMTFRTS27QA2|52=20180625-11:18:44.599|56=TRAX|10=206|8=FIXT.1.1|9=63|35=0|34=31|49=HEMAMTFRTS27QA2|52=20180625-11:19:15.590|56=TRAX|10=197|8=FIXT.1.1|9=63|35=0|34=32|49=HEMAMTFRTS27QA2|52=20180625-11:19:45.595|56=TRAX|10=206|8=FIXT.1.1|9=63|35=0|34=33|49=HEMAMTFRTS27QA2|52=20180625-11:20:16.598|56=TRAX|10=200|8=FIXT.1.1|9=63|35=0|34=34|49=HEMAMTFRTS27QA2|52=20180625-11:20:47.587|56=TRAX|10=203|8=FIXT.1.1|9=63|35=0|34=35|49=HEMAMTFRTS27QA2|52=20180625-11:21:17.598|56=TRAX|10=204|8=FIXT.1.1|9=63|35=0|34=36|49=HEMAMTFRTS27QA2|52=20180625-11:21:47.599|56=TRAX|10=209|8=FIXT.1.1|9=63|35=0|34=37|49=HEMAMTFRTS27QA2|52=20180625-11:22:18.591|56=TRAX|10=201|8=FIXT.1.1|9=63|35=0|34=38|49=HEMAMTFRTS27QA2|52=20180625-11:22:48.600|56=TRAX|10=196|8=FIXT.1.1|9=63|35=0|34=39|49=HEMAMTFRTS27QA2|52=20180625-11:23:19.588|56=TRAX|10=211|8=FIXT.1.1|9=63|35=0|34=40|49=HEMAMTFRTS27QA2|52=20180625-11:23:50.585|56=TRAX|10=195|8=FIXT.1.1|9=63|35=0|34=41|49=HEMAMTFRTS27QA2|52=20180625-11:24:20.585|56=TRAX|10=194|8=FIXT.1.1|9=63|35=0|34=42|49=HEMAMTFRTS27QA2|52=20180625-11:24:50.598|56=TRAX|10=202|8=FIXT.1.1|9=63|35=0|34=43|49=HEMAMTFRTS27QA2|52=20180625-11:25:21.585|56=TRAX|10=198|8=FIXT.1.1|9=63|35=0|34=44|49=HEMAMTFRTS27QA2|52=20180625-11:25:51.585|56=TRAX|10=202|8=FIXT.1.1|9=63|35=0|34=45|49=HEMAMTFRTS27QA2|52=20180625-11:26:21.593|56=TRAX|10=200|8=FIXT.1.1|9=63|35=0|34=46|49=HEMAMTFRTS27QA2|52=20180625-11:26:52.587|56=TRAX|10=208|8=FIXT.1.1|9=63|35=0|34=47|49=HEMAMTFRTS27QA2|52=20180625-11:27:22.591|56=TRAX|10=202|8=FIXT.1.1|9=63|35=0|34=48|49=HEMAMTFRTS27QA2|52=20180625-11:27:52.594|56=TRAX|10=209|8=FIXT.1.1|9=63|35=0|34=49|49=HEMAMTFRTS27QA2|52=20180625-11:28:23.593|56=TRAX|10=208|8=FIXT.1.1|9=63|35=0|34=50|49=HEMAMTFRTS27QA2|52=20180625-11:28:54.599|56=TRAX|10=210|8=FIXT.1.1|9=63|35=0|34=51|49=HEMAMTFRTS27QA2|52=20180625-11:29:25.594|56=TRAX|10=205|8=FIXT.1.1|9=63|35=0|34=52|49=HEMAMTFRTS27QA2|52=20180625-11:29:56.592|56=TRAX|10=208|8=FIXT.1.1|9=63|35=0|34=53|49=HEMAMTFRTS27QA2|52=20180625-11:30:27.595|56=TRAX|10=202|8=FIXT.1.1|9=63|35=0|34=54|49=HEMAMTFRTS27QA2|52=20180625-11:30:58.587|56=TRAX|10=208|8=FIXT.1.1|9=63|35=0|34=55|49=HEMAMTFRTS27QA2|52=20180625-11:31:29.591|56=TRAX|10=203|8=FIXT.1.1|9=63|35=0|34=56|49=HEMAMTFRTS27QA2|52=20180625-11:31:59.598|56=TRAX|10=214|8=FIXT.1.1|9=63|35=0|34=57|49=HEMAMTFRTS27QA2|52=20180625-11:32:30.598|56=TRAX|10=205|8=FIXT.1.1|9=63|35=0|34=58|49=HEMAMTFRTS27QA2|52=20180625-11:33:01.598|56=TRAX|10=205|8=FIXT.1.1|9=63|35=0|34=59|49=HEMAMTFRTS27QA2|52=20180625-11:33:32.589|56=TRAX|10=210|8=FIXT.1.1|9=63|35=0|34=60|49=HEMAMTFRTS27QA2|52=20180625-11:34:02.597|56=TRAX|10=199|8=FIXT.1.1|9=63|35=0|34=61|49=HEMAMTFRTS27QA2|52=20180625-11:34:33.590|56=TRAX|10=197|8=FIXT.1.1|9=63|35=0|34=62|49=HEMAMTFRTS27QA2|52=20180625-11:35:04.598|56=TRAX|10=205|8=FIXT.1.1|9=63|35=0|34=63|49=HEMAMTFRTS27QA2|52=20180625-11:35:35.593|56=TRAX|10=205|8=FIXT.1.1|9=63|35=0|34=64|49=HEMAMTFRTS27QA2|52=20180625-11:36:06.590|56=TRAX|10=202|8=FIXT.1.1|9=63|35=0|34=65|49=HEMAMTFRTS27QA2|52=20180625-11:36:36.590|56=TRAX|10=206|8=FIXT.1.1|9=63|35=0|34=66|49=HEMAMTFRTS27QA2|52=20180625-11:37:07.589|56=TRAX|10=214|8=FIXT.1.1|9=63|35=0|34=67|49=HEMAMTFRTS27QA2|52=20180625-11:37:37.801|56=TRAX|10=205|8=FIXT.1.1|9=63|35=0|34=68|49=HEMAMTFRTS27QA2|52=20180625-11:38:08.583|56=TRAX|10=212|8=FIXT.1.1|9=63|35=0|34=69|49=HEMAMTFRTS27QA2|52=20180625-11:38:38.583|56=TRAX|10=216|8=FIXT.1.1|9=63|35=0|34=70|49=HEMAMTFRTS27QA2|52=20180625-11:39:08.587|56=TRAX|10=210|8=FIXT.1.1|9=63|35=0|34=71|49=HEMAMTFRTS27QA2|52=20180625-11:39:38.590|56=TRAX|10=208|8=FIXT.1.1|9=63|35=0|34=72|49=HEMAMTFRTS27QA2|52=20180625-11:40:09.588|56=TRAX|10=206|8=FIXT.1.1|9=63|35=0|34=73|49=HEMAMTFRTS27QA2|52=20180625-11:40:39.591|56=TRAX|10=204|8=FIXT.1.1|9=63|35=0|34=74|49=HEMAMTFRTS27QA2|52=20180625-11:41:10.589|56=TRAX|10=202|8=FIXT.1.1|9=63|35=0|34=75|49=HEMAMTFRTS27QA2|52=20180625-11:41:41.589|56=TRAX|10=207|8=FIXT.1.1|9=63|35=0|34=76|49=HEMAMTFRTS27QA2|52=20180625-11:42:11.592|56=TRAX|10=200|8=FIXT.1.1|9=63|35=0|34=77|49=HEMAMTFRTS27QA2|52=20180625-11:42:42.582|56=TRAX|10=204|8=FIXT.1.1|9=63|35=0|34=78|49=HEMAMTFRTS27QA2|52=20180625-11:43:12.586|56=TRAX|10=207|8=FIXT.1.1|9=63|35=0|34=79|49=HEMAMTFRTS27QA2|52=20180625-11:43:42.589|56=TRAX|10=214|8=FIXT.1.1|9=63|35=0|34=80|49=HEMAMTFRTS27QA2|52=20180625-11:44:12.589|56=TRAX|10=204|8=FIXT.1.1|9=63|35=0|34=81|49=HEMAMTFRTS27QA2|52=20180625-11:44:42.591|56=TRAX|10=201|8=FIXT.1.1|9=63|35=0|34=82|49=HEMAMTFRTS27QA2|52=20180625-11:45:13.587|56=TRAX|10=206|8=FIXT.1.1|9=63|35=0|34=83|49=HEMAMTFRTS27QA2|52=20180625-11:45:43.593|56=TRAX|10=207|8=FIXT.1.1|9=63|35=0|34=84|49=HEMAMTFRTS27QA2|52=20180625-11:46:14.586|56=TRAX|10=209|8=FIXT.1.1|9=63|35=0|34=85|49=HEMAMTFRTS27QA2|52=20180625-11:46:44.589|56=TRAX|10=216|8=FIXT.1.1|9=63|35=0|34=86|49=HEMAMTFRTS27QA2|52=20180625-11:47:15.582|56=TRAX|10=209|8=FIXT.1.1|9=63|35=0|34=87|49=HEMAMTFRTS27QA2|52=20180625-11:47:45.587|56=TRAX|10=218|8=FIXT.1.1|9=63|35=0|34=88|49=HEMAMTFRTS27QA2|52=20180625-11:48:16.577|56=TRAX|10=217|8=FIXT.1.1|9=63|35=0|34=89|49=HEMAMTFRTS27QA2|52=20180625-11:48:46.581|56=TRAX|10=216|8=FIXT.1.1|9=63|35=0|34=90|49=HEMAMTFRTS27QA2|52=20180625-11:49:17.584|56=TRAX|10=210|8=FIXT.1.1|9=63|35=0|34=91|49=HEMAMTFRTS27QA2|52=20180625-11:49:47.587|56=TRAX|10=217|8=FIXT.1.1|9=63|35=0|34=92|49=HEMAMTFRTS27QA2|52=20180625-11:50:18.590|56=TRAX|10=202|8=FIXT.1.1|9=63|35=0|34=93|49=HEMAMTFRTS27QA2|52=20180625-11:50:49.583|56=TRAX|10=209|8=FIXT.1.1|9=63|35=0|34=94|49=HEMAMTFRTS27QA2|52=20180625-11:51:19.591|56=TRAX|10=207|8=FIXT.1.1|9=63|35=0|34=95|49=HEMAMTFRTS27QA2|52=20180625-11:51:50.576|56=TRAX|10=206|8=FIXT.1.1|9=63|35=0|34=96|49=HEMAMTFRTS27QA2|52=20180625-11:52:20.582|56=TRAX|10=202|8=FIXT.1.1|9=63|35=0|34=97|49=HEMAMTFRTS27QA2|52=20180625-11:52:50.583|56=TRAX|10=207|8=FIXT.1.1|9=63|35=0|34=98|49=HEMAMTFRTS27QA2|52=20180625-11:53:20.590|56=TRAX|10=204|8=FIXT.1.1|9=63|35=0|34=99|49=HEMAMTFRTS27QA2|52=20180625-11:53:50.590|56=TRAX|10=208|8=FIXT.1.1|9=64|35=0|34=100|49=HEMAMTFRTS27QA2|52=20180625-11:54:21.584|56=TRAX|10=242|8=FIXT.1.1|9=64|35=0|34=101|49=HEMAMTFRTS27QA2|52=20180625-11:54:51.589|56=TRAX|10=251|8=FIXT.1.1|9=64|35=0|34=102|49=HEMAMTFRTS27QA2|52=20180625-11:55:22.588|56=TRAX|10=250|8=FIXT.1.1|9=64|35=0|34=103|49=HEMAMTFRTS27QA2|52=20180625-11:55:53.582|56=TRAX|10=249|8=FIXT.1.1|9=64|35=0|34=104|49=HEMAMTFRTS27QA2|52=20180625-11:56:23.586|56=TRAX|10=252|8=FIXT.1.1|9=64|35=0|34=105|49=HEMAMTFRTS27QA2|52=20180625-11:56:54.582|56=TRAX|10=253|8=FIXT.1.1|9=64|35=0|34=106|49=HEMAMTFRTS27QA2|52=20180625-11:57:24.584|56=TRAX|10=254|8=FIXT.1.1|9=64|35=0|34=107|49=HEMAMTFRTS27QA2|52=20180625-11:57:55.582|56=TRAX|10=001|8=FIXT.1.1|9=64|35=0|34=108|49=HEMAMTFRTS27QA2|52=20180625-11:58:26.589|56=TRAX|10=008|8=FIXT.1.1|9=64|35=0|34=109|49=HEMAMTFRTS27QA2|52=20180625-11:58:57.581|56=TRAX|10=005|8=FIXT.1.1|9=64|35=0|34=110|49=HEMAMTFRTS27QA2|52=20180625-11:59:27.585|56=TRAX|10=255|8=FIXT.1.1|9=64|35=0|34=111|49=HEMAMTFRTS27QA2|52=20180625-11:59:58.581|56=TRAX|10=000|8=FIXT.1.1|9=64|35=0|34=112|49=HEMAMTFRTS27QA2|52=20180625-12:00:29.580|56=TRAX|10=241|8=FIXT.1.1|9=64|35=0|34=113|49=HEMAMTFRTS27QA2|52=20180625-12:00:59.588|56=TRAX|10=253|8=FIXT.1.1|9=64|35=0|34=114|49=HEMAMTFRTS27QA2|52=20180625-12:01:30.578|56=TRAX|10=243|8=FIXT.1.1|9=64|35=0|34=115|49=HEMAMTFRTS27QA2|52=20180625-12:02:00.585|56=TRAX|10=240|8=FIXT.1.1|9=64|35=0|34=116|49=HEMAMTFRTS27QA2|52=20180625-12:02:31.572|56=TRAX|10=241|8=FIXT.1.1|9=64|35=0|34=117|49=HEMAMTFRTS27QA2|52=20180625-12:03:01.580|56=TRAX|10=239|8=FIXT.1.1|9=64|35=0|34=118|49=HEMAMTFRTS27QA2|52=20180625-12:03:31.581|56=TRAX|10=244|8=FIXT.1.1|9=64|35=0|34=119|49=HEMAMTFRTS27QA2|52=20180625-12:04:02.583|56=TRAX|10=246|8=FIXT.1.1|9=64|35=0|34=120|49=HEMAMTFRTS27QA2|52=20180625-12:04:33.579|56=TRAX|10=247|8=FIXT.1.1|9=64|35=0|34=121|49=HEMAMTFRTS27QA2|52=20180625-12:05:03.580|56=TRAX|10=238|8=FIXT.1.1|9=64|35=0|34=122|49=HEMAMTFRTS27QA2|52=20180625-12:05:34.586|56=TRAX|10=249|8=FIXT.1.1|9=64|35=0|34=123|49=HEMAMTFRTS27QA2|52=20180625-12:06:05.578|56=TRAX|10=250|8=FIXT.1.1|9=64|35=0|34=124|49=HEMAMTFRTS27QA2|52=20180625-12:06:35.585|56=TRAX|10=252|8=FIXT.1.1|9=64|35=0|34=125|49=HEMAMTFRTS27QA2|52=20180625-12:07:06.572|56=TRAX|10=248|8=FIXT.1.1|9=64|35=0|34=126|49=HEMAMTFRTS27QA2|52=20180625-12:07:36.577|56=TRAX|10=001|8=FIXT.1.1|9=64|35=0|34=127|49=HEMAMTFRTS27QA2|52=20180625-12:08:07.570|56=TRAX|10=250|8=FIXT.1.1|9=64|35=0|34=128|49=HEMAMTFRTS27QA2|52=20180625-12:08:37.576|56=TRAX|10=004|8=FIXT.1.1|9=64|35=0|34=129|49=HEMAMTFRTS27QA2|52=20180625-12:09:07.792|56=TRAX|10=003|8=FIXT.1.1|9=64|35=0|34=130|49=HEMAMTFRTS27QA2|52=20180625-12:09:37.797|56=TRAX|10=003|8=FIXT.1.1|9=64|35=0|34=131|49=HEMAMTFRTS27QA2|52=20180625-12:10:07.816|56=TRAX|10=241|8=FIXT.1.1|9=64|35=0|34=132|49=HEMAMTFRTS27QA2|52=20180625-12:10:38.578|56=TRAX|10=251|8=FIXT.1.1|9=64|35=0|34=133|49=HEMAMTFRTS27QA2|52=20180625-12:11:08.579|56=TRAX|10=251|8=FIXT.1.1|9=64|35=0|34=134|49=HEMAMTFRTS27QA2|52=20180625-12:11:38.583|56=TRAX|10=250|8=FIXT.1.1|9=64|35=0|34=135|49=HEMAMTFRTS27QA2|52=20180625-12:12:09.575|56=TRAX|10=251|8=FIXT.1.1|9=64|35=0|34=136|49=HEMAMTFRTS27QA2|52=20180625-12:12:39.578|56=TRAX|10=002|8=FIXT.1.1|9=64|35=0|34=137|49=HEMAMTFRTS27QA2|52=20180625-12:13:10.577|56=TRAX|10=248|8=FIXT.1.1|9=64|35=0|34=138|49=HEMAMTFRTS27QA2|52=20180625-12:13:40.583|56=TRAX|10=249|8=FIXT.1.1|9=64|35=0|34=139|49=HEMAMTFRTS27QA2|52=20180625-12:14:11.577|56=TRAX|10=252|8=FIXT.1.1|9=64|35=0|34=140|49=HEMAMTFRTS27QA2|52=20180625-12:14:42.575|56=TRAX|10=246|8=FIXT.1.1|9=64|35=0|34=141|49=HEMAMTFRTS27QA2|52=20180625-12:15:12.576|56=TRAX|10=246|8=FIXT.1.1|9=64|35=0|34=142|49=HEMAMTFRTS27QA2|52=20180625-12:15:43.575|56=TRAX|10=250|8=FIXT.1.1|9=64|35=0|34=143|49=HEMAMTFRTS27QA2|52=20180625-12:16:13.575|56=TRAX|10=249|8=FIXT.1.1|9=64|35=0|34=144|49=HEMAMTFRTS27QA2|52=20180625-12:16:44.580|56=TRAX|10=250|8=FIXT.1.1|9=64|35=0|34=145|49=HEMAMTFRTS27QA2|52=20180625-12:17:15.579|56=TRAX|10=002|8=FIXT.1.1|9=64|35=0|34=146|49=HEMAMTFRTS27QA2|52=20180625-12:17:46.575|56=TRAX|10=003|8=FIXT.1.1|9=64|35=0|34=147|49=HEMAMTFRTS27QA2|52=20180625-12:18:17.575|56=TRAX|10=003|8=FIXT.1.1|9=64|35=0|34=148|49=HEMAMTFRTS27QA2|52=20180625-12:18:47.579|56=TRAX|10=011|8=FIXT.1.1|9=64|35=0|34=149|49=HEMAMTFRTS27QA2|52=20180625-12:19:18.577|56=TRAX|10=009|8=FIXT.1.1|9=64|35=0|34=150|49=HEMAMTFRTS27QA2|52=20180625-12:19:49.573|56=TRAX|10=001|8=FIXT.1.1|9=64|35=0|34=151|49=HEMAMTFRTS27QA2|52=20180625-12:20:20.572|56=TRAX|10=238|8=FIXT.1.1|9=64|35=0|34=152|49=HEMAMTFRTS27QA2|52=20180625-12:20:51.573|56=TRAX|10=244|8=FIXT.1.1|9=64|35=0|34=153|49=HEMAMTFRTS27QA2|52=20180625-12:21:21.573|56=TRAX|10=243|8=FIXT.1.1|9=64|35=0|34=154|49=HEMAMTFRTS27QA2|52=20180625-12:21:51.576|56=TRAX|10=250|8=FIXT.1.1|9=64|35=0|34=155|49=HEMAMTFRTS27QA2|52=20180625-12:22:22.564|56=TRAX|10=247|8=FIXT.1.1|9=64|35=0|34=156|49=HEMAMTFRTS27QA2|52=20180625-12:22:52.565|56=TRAX|10=252|8=FIXT.1.1|9=64|35=0|34=157|49=HEMAMTFRTS27QA2|52=20180625-12:23:23.564|56=TRAX|10=251|8=FIXT.1.1|9=64|35=0|34=158|49=HEMAMTFRTS27QA2|52=20180625-12:23:53.564|56=TRAX|10=255|8=FIXT.1.1|9=64|35=0|34=159|49=HEMAMTFRTS27QA2|52=20180625-12:24:24.565|56=TRAX|10=000|8=FIXT.1.1|9=64|35=0|34=160|49=HEMAMTFRTS27QA2|52=20180625-12:24:55.564|56=TRAX|10=251|8=FIXT.1.1|9=64|35=0|34=161|49=HEMAMTFRTS27QA2|52=20180625-12:25:25.564|56=TRAX|10=250|8=FIXT.1.1|9=64|35=0|34=162|49=HEMAMTFRTS27QA2|52=20180625-12:25:55.564|56=TRAX|10=254|8=FIXT.1.1|9=64|35=0|34=163|49=HEMAMTFRTS27QA2|52=20180625-12:26:25.564|56=TRAX|10=253|8=FIXT.1.1|9=64|35=0|34=164|49=HEMAMTFRTS27QA2|52=20180625-12:26:56.563|56=TRAX|10=001|8=FIXT.1.1|9=64|35=0|34=165|49=HEMAMTFRTS27QA2|52=20180625-12:27:26.563|56=TRAX|10=000|8=FIXT.1.1|9=64|35=0|34=166|49=HEMAMTFRTS27QA2|52=20180625-12:27:56.563|56=TRAX|10=004|8=FIXT.1.1|9=64|35=0|34=167|49=HEMAMTFRTS27QA2|52=20180625-12:28:27.564|56=TRAX|10=005|8=FIXT.1.1|9=64|35=0|34=168|49=HEMAMTFRTS27QA2|52=20180625-12:28:58.562|56=TRAX|10=008|8=FIXT.1.1|9=64|35=0|34=169|49=HEMAMTFRTS27QA2|52=20180625-12:29:28.562|56=TRAX|10=007|8=FIXT.1.1|9=64|35=0|34=170|49=HEMAMTFRTS27QA2|52=20180625-12:29:58.562|56=TRAX|10=002|8=FIXT.1.1|9=64|35=0|34=171|49=HEMAMTFRTS27QA2|52=20180625-12:30:28.562|56=TRAX|10=248|8=FIXT.1.1|9=64|35=0|34=172|49=HEMAMTFRTS27QA2|52=20180625-12:30:58.563|56=TRAX|10=253|8=FIXT.1.1|9=64|35=0|34=173|49=HEMAMTFRTS27QA2|52=20180625-12:31:29.561|56=TRAX|10=251|8=FIXT.1.1|9=64|35=0|34=174|49=HEMAMTFRTS27QA2|52=20180625-12:31:59.562|56=TRAX|10=000|8=FIXT.1.1|9=64|35=0|34=175|49=HEMAMTFRTS27QA2|52=20180625-12:32:30.561|56=TRAX|10=246|8=FIXT.1.1|9=64|35=0|34=176|49=HEMAMTFRTS27QA2|52=20180625-12:33:01.560|56=TRAX|10=245|8=FIXT.1.1|9=64|35=0|34=177|49=HEMAMTFRTS27QA2|52=20180625-12:33:31.561|56=TRAX|10=250|8=FIXT.1.1|9=64|35=0|34=178|49=HEMAMTFRTS27QA2|52=20180625-12:34:02.561|56=TRAX|10=250|8=FIXT.1.1|9=64|35=0|34=179|49=HEMAMTFRTS27QA2|52=20180625-12:34:33.561|56=TRAX|10=255|8=FIXT.1.1|9=64|35=0|34=180|49=HEMAMTFRTS27QA2|52=20180625-12:35:04.560|56=TRAX|10=245|8=FIXT.1.1|9=64|35=0|34=181|49=HEMAMTFRTS27QA2|52=20180625-12:35:34.560|56=TRAX|10=249|8=FIXT.1.1|9=64|35=0|34=182|49=HEMAMTFRTS27QA2|52=20180625-12:36:04.560|56=TRAX|10=248|8=FIXT.1.1|9=64|35=0|34=183|49=HEMAMTFRTS27QA2|52=20180625-12:36:34.560|56=TRAX|10=252|8=FIXT.1.1|9=64|35=0|34=184|49=HEMAMTFRTS27QA2|52=20180625-12:37:04.561|56=TRAX|10=252|8=FIXT.1.1|9=64|35=0|34=185|49=HEMAMTFRTS27QA2|52=20180625-12:37:35.560|56=TRAX|10=000|8=FIXT.1.1|9=64|35=0|34=186|49=HEMAMTFRTS27QA2|52=20180625-12:38:05.562|56=TRAX|10=001|8=FIXT.1.1|9=64|35=0|34=187|49=HEMAMTFRTS27QA2|52=20180625-12:38:36.561|56=TRAX|10=005|8=FIXT.1.1|9=64|35=0|34=188|49=HEMAMTFRTS27QA2|52=20180625-12:39:07.560|56=TRAX|10=004|8=FIXT.1.1|9=64|35=0|34=189|49=HEMAMTFRTS27QA2|52=20180625-12:39:37.560|56=TRAX|10=008|8=FIXT.1.1|9=64|35=0|34=190|49=HEMAMTFRTS27QA2|52=20180625-12:40:07.560|56=TRAX|10=245|8=FIXT.1.1|9=64|35=0|34=191|49=HEMAMTFRTS27QA2|52=20180625-12:40:38.560|56=TRAX|10=250|8=FIXT.1.1|9=64|35=0|34=192|49=HEMAMTFRTS27QA2|52=20180625-12:41:08.806|56=TRAX|10=252|8=FIXT.1.1|9=64|35=0|34=193|49=HEMAMTFRTS27QA2|52=20180625-12:41:38.806|56=TRAX|10=000|8=FIXT.1.1|9=64|35=0|34=194|49=HEMAMTFRTS27QA2|52=20180625-12:42:09.559|56=TRAX|10=005|8=FIXT.1.1|9=64|35=0|34=195|49=HEMAMTFRTS27QA2|52=20180625-12:42:39.559|56=TRAX|10=009|8=FIXT.1.1|9=64|35=0|34=196|49=HEMAMTFRTS27QA2|52=20180625-12:43:10.558|56=TRAX|10=255|8=FIXT.1.1|9=64|35=0|34=197|49=HEMAMTFRTS27QA2|52=20180625-12:43:40.558|56=TRAX|10=003|8=FIXT.1.1|9=64|35=0|34=198|49=HEMAMTFRTS27QA2|52=20180625-12:44:10.560|56=TRAX|10=251|8=FIXT.1.1|9=64|35=0|34=199|49=HEMAMTFRTS27QA2|52=20180625-12:44:41.558|56=TRAX|10=007|8=FIXT.1.1|9=64|35=0|34=200|49=HEMAMTFRTS27QA2|52=20180625-12:45:11.558|56=TRAX|10=244|8=FIXT.1.1|9=64|35=0|34=201|49=HEMAMTFRTS27QA2|52=20180625-12:45:41.558|56=TRAX|10=248|8=FIXT.1.1|9=64|35=0|34=202|49=HEMAMTFRTS27QA2|52=20180625-12:46:11.559|56=TRAX|10=248|8=FIXT.1.1|9=64|35=0|34=203|49=HEMAMTFRTS27QA2|52=20180625-12:46:42.557|56=TRAX|10=251|8=FIXT.1.1|9=64|35=0|34=204|49=HEMAMTFRTS27QA2|52=20180625-12:47:12.557|56=TRAX|10=250|8=FIXT.1.1|9=64|35=0|34=205|49=HEMAMTFRTS27QA2|52=20180625-12:47:42.557|56=TRAX|10=254|8=FIXT.1.1|9=64|35=0|34=206|49=HEMAMTFRTS27QA2|52=20180625-12:48:12.557|56=TRAX|10=253|8=FIXT.1.1|9=64|35=0|34=207|49=HEMAMTFRTS27QA2|52=20180625-12:48:42.557|56=TRAX|10=001|8=FIXT.1.1|9=64|35=0|34=208|49=HEMAMTFRTS27QA2|52=20180625-12:49:12.557|56=TRAX|10=000|8=FIXT.1.1|9=64|35=0|34=209|49=HEMAMTFRTS27QA2|52=20180625-12:49:43.557|56=TRAX|10=005|8=FIXT.1.1|9=64|35=0|34=210|49=HEMAMTFRTS27QA2|52=20180625-12:50:14.556|56=TRAX|10=242|8=FIXT.1.1|9=64|35=0|34=211|49=HEMAMTFRTS27QA2|52=20180625-12:50:44.556|56=TRAX|10=246|8=FIXT.1.1|9=64|35=0|34=212|49=HEMAMTFRTS27QA2|52=20180625-12:51:15.556|56=TRAX|10=246|8=FIXT.1.1|9=64|35=0|34=213|49=HEMAMTFRTS27QA2|52=20180625-12:51:46.555|56=TRAX|10=250|8=FIXT.1.1|9=64|35=0|34=214|49=HEMAMTFRTS27QA2|52=20180625-12:52:16.556|56=TRAX|10=250|8=FIXT.1.1|9=64|35=0|34=215|49=HEMAMTFRTS27QA2|52=20180625-12:52:47.555|56=TRAX|10=254|8=FIXT.1.1|9=64|35=0|34=216|49=HEMAMTFRTS27QA2|52=20180625-12:53:17.556|56=TRAX|10=254|8=FIXT.1.1|9=64|35=0|34=217|49=HEMAMTFRTS27QA2|52=20180625-12:53:48.555|56=TRAX|10=002|8=FIXT.1.1|9=64|35=0|34=218|49=HEMAMTFRTS27QA2|52=20180625-12:54:19.554|56=TRAX|10=001|8=FIXT.1.1|9=64|35=0|34=219|49=HEMAMTFRTS27QA2|52=20180625-12:54:49.554|56=TRAX|10=005|8=FIXT.1.1|9=64|35=0|34=220|49=HEMAMTFRTS27QA2|52=20180625-12:55:19.554|56=TRAX|10=251|8=FIXT.1.1|9=64|35=0|34=221|49=HEMAMTFRTS27QA2|52=20180625-12:55:49.554|56=TRAX|10=255|8=FIXT.1.1|9=64|35=0|34=222|49=HEMAMTFRTS27QA2|52=20180625-12:56:19.554|56=TRAX|10=254|8=FIXT.1.1|9=64|35=0|34=223|49=HEMAMTFRTS27QA2|52=20180625-12:56:49.554|56=TRAX|10=002|8=FIXT.1.1|9=64|35=0|34=224|49=HEMAMTFRTS27QA2|52=20180625-12:57:20.553|56=TRAX|10=248|8=FIXT.1.1|9=64|35=0|34=225|49=HEMAMTFRTS27QA2|52=20180625-12:57:50.553|56=TRAX|10=252|8=FIXT.1.1|9=64|35=0|34=226|49=HEMAMTFRTS27QA2|52=20180625-12:58:20.553|56=TRAX|10=251|8=FIXT.1.1|9=64|35=0|34=227|49=HEMAMTFRTS27QA2|52=20180625-12:58:50.553|56=TRAX|10=255|8=FIXT.1.1|9=64|35=0|34=228|49=HEMAMTFRTS27QA2|52=20180625-12:59:20.553|56=TRAX|10=254|8=FIXT.1.1|9=64|35=0|34=229|49=HEMAMTFRTS27QA2|52=20180625-12:59:51.552|56=TRAX|10=002|8=FIXT.1.1|9=64|35=0|34=230|49=HEMAMTFRTS27QA2|52=20180625-13:00:21.553|56=TRAX|10=235|8=FIXT.1.1|9=64|35=0|34=231|49=HEMAMTFRTS27QA2|52=20180625-13:00:52.552|56=TRAX|10=239|8=FIXT.1.1|9=64|35=0|34=232|49=HEMAMTFRTS27QA2|52=20180625-13:01:22.552|56=TRAX|10=238|8=FIXT.1.1|9=64|35=0|34=233|49=HEMAMTFRTS27QA2|52=20180625-13:01:52.552|56=TRAX|10=242|8=FIXT.1.1|9=64|35=0|34=234|49=HEMAMTFRTS27QA2|52=20180625-13:02:23.552|56=TRAX|10=242|8=FIXT.1.1|9=64|35=0|34=235|49=HEMAMTFRTS27QA2|52=20180625-13:02:53.552|56=TRAX|10=246|8=FIXT.1.1|9=64|35=0|34=236|49=HEMAMTFRTS27QA2|52=20180625-13:03:24.551|56=TRAX|10=245|8=FIXT.1.1|9=64|35=0|34=237|49=HEMAMTFRTS27QA2|52=20180625-13:03:54.551|56=TRAX|10=249|8=FIXT.1.1|9=64|35=0|34=238|49=HEMAMTFRTS27QA2|52=20180625-13:04:24.551|56=TRAX|10=248|8=FIXT.1.1|9=64|35=0|34=239|49=HEMAMTFRTS27QA2|52=20180625-13:04:54.551|56=TRAX|10=252|8=FIXT.1.1|9=64|35=0|34=240|49=HEMAMTFRTS27QA2|52=20180625-13:05:25.552|56=TRAX|10=244|8=FIXT.1.1|9=64|35=0|34=241|49=HEMAMTFRTS27QA2|52=20180625-13:05:56.550|56=TRAX|10=247|8=FIXT.1.1|9=64|35=0|34=242|49=HEMAMTFRTS27QA2|52=20180625-13:06:27.550|56=TRAX|10=247|8=FIXT.1.1|9=64|35=0|34=243|49=HEMAMTFRTS27QA2|52=20180625-13:06:58.550|56=TRAX|10=252|8=FIXT.1.1|9=64|35=0|34=244|49=HEMAMTFRTS27QA2|52=20180625-13:07:29.550|56=TRAX|10=252|8=FIXT.1.1|9=64|35=0|34=245|49=HEMAMTFRTS27QA2|52=20180625-13:07:59.550|56=TRAX|10=000|8=FIXT.1.1|9=64|35=0|34=246|49=HEMAMTFRTS27QA2|52=20180625-13:08:30.549|56=TRAX|10=255|8=FIXT.1.1|9=64|35=0|34=247|49=HEMAMTFRTS27QA2|52=20180625-13:09:00.549|56=TRAX|10=254|8=FIXT.1.1|9=64|35=0|34=248|49=HEMAMTFRTS27QA2|52=20180625-13:09:30.549|56=TRAX|10=002|8=FIXT.1.1|9=64|35=0|34=249|49=HEMAMTFRTS27QA2|52=20180625-13:10:00.549|56=TRAX|10=248|8=FIXT.1.1|9=64|35=0|34=250|49=HEMAMTFRTS27QA2|52=20180625-13:10:31.548|56=TRAX|10=243|8=FIXT.1.1|9=64|35=0|34=251|49=HEMAMTFRTS27QA2|52=20180625-13:11:01.548|56=TRAX|10=242|8=FIXT.1.1|9=64|35=0|34=252|49=HEMAMTFRTS27QA2|52=20180625-13:11:31.548|56=TRAX|10=246|8=FIXT.1.1|9=64|35=0|34=253|49=HEMAMTFRTS27QA2|52=20180625-13:12:01.548|56=TRAX|10=245|8=FIXT.1.1|9=64|35=0|34=254|49=HEMAMTFRTS27QA2|52=20180625-13:12:31.548|56=TRAX|10=249|8=FIXT.1.1|9=64|35=0|34=255|49=HEMAMTFRTS27QA2|52=20180625-13:13:02.547|56=TRAX|10=248|8=FIXT.1.1|9=64|35=0|34=256|49=HEMAMTFRTS27QA2|52=20180625-13:13:32.547|56=TRAX|10=252|8=FIXT.1.1|9=64|35=0|34=257|49=HEMAMTFRTS27QA2|52=20180625-13:14:02.547|56=TRAX|10=251|8=FIXT.1.1|9=64|35=0|34=258|49=HEMAMTFRTS27QA2|52=20180625-13:14:33.547|56=TRAX|10=000|8=FIXT.1.1|9=64|35=0|34=259|49=HEMAMTFRTS27QA2|52=20180625-13:15:03.547|56=TRAX|10=255|8=FIXT.1.1|9=64|35=0|34=260|49=HEMAMTFRTS27QA2|52=20180625-13:15:34.546|56=TRAX|10=250|8=FIXT.1.1|9=64|35=0|34=261|49=HEMAMTFRTS27QA2|52=20180625-13:16:04.546|56=TRAX|10=249|8=FIXT.1.1|9=64|35=0|34=262|49=HEMAMTFRTS27QA2|52=20180625-13:16:34.546|56=TRAX|10=253|8=FIXT.1.1|9=64|35=0|34=263|49=HEMAMTFRTS27QA2|52=20180625-13:17:04.546|56=TRAX|10=252|8=FIXT.1.1|9=64|35=0|34=264|49=HEMAMTFRTS27QA2|52=20180625-13:17:34.804|56=TRAX|10=253|8=FIXT.1.1|9=64|35=0|34=265|49=HEMAMTFRTS27QA2|52=20180625-13:18:05.546|56=TRAX|10=000|8=FIXT.1.1|9=64|35=0|34=266|49=HEMAMTFRTS27QA2|52=20180625-13:18:35.546|56=TRAX|10=004|8=FIXT.1.1|9=64|35=0|34=267|49=HEMAMTFRTS27QA2|52=20180625-13:19:06.545|56=TRAX|10=003|8=FIXT.1.1|9=64|35=0|34=268|49=HEMAMTFRTS27QA2|52=20180625-13:19:36.545|56=TRAX|10=007|8=FIXT.1.1|9=64|35=0|34=269|49=HEMAMTFRTS27QA2|52=20180625-13:20:07.544|56=TRAX|10=253|8=FIXT.1.1|9=64|35=0|34=270|49=HEMAMTFRTS27QA2|52=20180625-13:20:37.545|56=TRAX|10=249|8=FIXT.1.1|9=64|35=0|34=271|49=HEMAMTFRTS27QA2|52=20180625-13:21:07.545|56=TRAX|10=248|8=FIXT.1.1|9=64|35=0|34=272|49=HEMAMTFRTS27QA2|52=20180625-13:21:37.547|56=TRAX|10=254|8=FIXT.1.1|9=64|35=0|34=273|49=HEMAMTFRTS27QA2|52=20180625-13:22:07.547|56=TRAX|10=253|8=FIXT.1.1|9=64|35=0|34=274|49=HEMAMTFRTS27QA2|52=20180625-13:22:38.545|56=TRAX|10=000|8=FIXT.1.1|9=64|35=0|34=275|49=HEMAMTFRTS27QA2|52=20180625-13:23:08.546|56=TRAX|10=000|8=FIXT.1.1|9=64|35=0|34=276|49=HEMAMTFRTS27QA2|52=20180625-13:23:38.546|56=TRAX|10=004|8=FIXT.1.1|9=64|35=0|34=277|49=HEMAMTFRTS27QA2|52=20180625-13:24:08.546|56=TRAX|10=003|8=FIXT.1.1|9=445|35=AE|34=278|49=HEMAMTFRTS27QA2|50=APA|57=APA|52=20180625-13:24:24.091|56=TRAX|571=TradeReport|487=0|325=Y|423=1|55=[N/A]|22=104|32=2222|31=203.17|60=20180301-09:30:13.370|552=1|54=1|29=3|1041=APA-BMX001|1934=0|15=GBP|1924=1|22600=2500000|22601=GBP|22606=DERV|22607=INTR|22608=OPTN|22610=20201212|22641=AT0000393517|22661=Bond Options|854=1|231=10|30=SINT|1116=2|1117=00TR8NKAEL48RGTZEW89|1118=N|1119=116|1117=00TR8NKAEL48RGTZEW89|1118=N|1119=1|10=204|8=FIXT.1.1|9=64|35=0|34=279|49=HEMAMTFRTS27QA2|52=20180625-13:24:54.543|56=TRAX|10=003|8=FIXT.1.1|9=64|35=0|34=280|49=HEMAMTFRTS27QA2|52=20180625-13:25:24.543|56=TRAX|10=249|8=FIXT.1.1|9=64|35=0|34=281|49=HEMAMTFRTS27QA2|52=20180625-13:25:54.803|56=TRAX|10=252|8=FIXT.1.1|9=64|35=0|34=282|49=HEMAMTFRTS27QA2|52=20180625-13:26:24.805|56=TRAX|10=253|8=FIXT.1.1|9=446|35=AE|34=283|49=HEMAMTFRTS27QA2|50=APA|57=APA|52=20180625-13:26:28.265|56=TRAX|571=TradeReport|487=0|325=Y|423=2|55=[N/A]|22=104|32=2222|31=203.17|60=20180301-09:30:13.370|552=1|54=1|29=3|1041=APA-BMX0011|1934=0|15=GBP|1924=1|22600=2500000|22601=GBP|22606=DERV|22607=INTR|22608=OPTN|22610=20201212|22641=AT0000393517|22661=Bond Options|854=1|231=10|30=SINT|1116=2|1117=00TR8NKAEL48RGTZEW89|1118=N|1119=116|1117=00TR8NKAEL48RGTZEW89|1118=N|1119=1|10=004|8=FIXT.1.1|9=445|35=AE|34=284|49=HEMAMTFRTS27QA2|50=APA|57=APA|52=20180625-13:26:40.706|56=TRAX|571=TradeReport|487=0|325=Y|423=2|55=[N/A]|22=104|32=22.22|31=4656|60=20180301-09:30:13.370|552=1|54=1|29=3|1041=APA-BMX0012|1934=0|15=GBP|1924=1|22600=2500000|22601=GBP|22606=DERV|22607=INTR|22608=OPTN|22610=20201212|22641=AT0000393517|22661=Bond Options|854=1|231=10|30=SINT|1116=2|1117=00TR8NKAEL48RGTZEW89|1118=N|1119=116|1117=00TR8NKAEL48RGTZEW89|1118=N|1119=1|10=215|8=FIXT.1.1|9=443|35=AE|34=285|49=HEMAMTFRTS27QA2|50=APA|57=APA|52=20180625-13:27:00.854|56=TRAX|571=TradeReport|487=0|325=Y|423=4|55=[N/A]|22=1.04|32=56|31=4656|60=20180301-09:30:13.370|552=1|54=1|29=3|1041=APA-BMX0013|1934=0|15=GBP|1924=1|22600=2500000|22601=GBP|22606=DERV|22607=INTR|22608=OPTN|22610=20201212|22641=AT0000393517|22661=Bond Options|854=1|231=10|30=SINT|1116=2|1117=00TR8NKAEL48RGTZEW89|1118=N|1119=116|1117=00TR8NKAEL48RGTZEW89|1118=N|1119=1|10=125|8=FIXT.1.1|9=444|35=AE|34=286|49=HEMAMTFRTS27QA2|50=APA|57=APA|52=20180625-13:27:12.745|56=TRAX|571=TradeReport|487=0|325=Y|423=4|55=[N/A]|22=104|32=5.6|31=465.6|60=20180301-09:30:13.370|552=1|54=1|29=3|1041=APA-BMX0014|1934=0|15=GBP|1924=1|22600=2500000|22601=GBP|22606=DERV|22607=INTR|22608=OPTN|22610=20201212|22641=AT0000393517|22661=Bond Options|854=1|231=10|30=SINT|1116=2|1117=00TR8NKAEL48RGTZEW89|1118=N|1119=116|1117=00TR8NKAEL48RGTZEW89|1118=N|1119=1|10=176|8=FIXT.1.1|9=446|35=AE|34=287|49=HEMAMTFRTS27QA2|50=APA|57=APA|52=20180625-13:27:29.913|56=TRAX|571=TradeReport|487=0|325=Y|423=5|55=[N/A]|22=104|32=78.90|31=34.89|60=20180301-09:30:13.370|552=1|54=1|29=3|1041=APA-BMX0015|1934=0|15=GBP|1924=1|22600=2500000|22601=GBP|22606=DERV|22607=INTR|22608=OPTN|22610=20201212|22641=AT0000393517|22661=Bond Options|854=1|231=10|30=SINT|1116=2|1117=00TR8NKAEL48RGTZEW89|1118=N|1119=116|1117=00TR8NKAEL48RGTZEW89|1118=N|1119=1|10=042|8=FIXT.1.1|9=443|35=AE|34=288|49=HEMAMTFRTS27QA2|50=APA|57=APA|52=20180625-13:27:41.560|56=TRAX|571=TradeReport|487=0|325=Y|423=6|55=[N/A]|22=104|32=34|31=54.89|60=20180301-09:30:13.370|552=1|54=1|29=3|1041=APA-BMX0016|1934=0|15=GBP|1924=1|22600=2500000|22601=GBP|22606=DERV|22607=INTR|22608=OPTN|22610=20201212|22641=AT0000393517|22661=Bond Options|854=1|231=10|30=SINT|1116=2|1117=00TR8NKAEL48RGTZEW89|1118=N|1119=116|1117=00TR8NKAEL48RGTZEW89|1118=N|1119=1|10=133|8=FIXT.1.1|9=444|35=AE|34=289|49=HEMAMTFRTS27QA2|50=APA|57=APA|52=20180625-13:27:51.033|56=TRAX|571=TradeReport|487=0|325=Y|423=6|55=[N/A]|22=104|32=366|31=33.89|60=20180301-09:30:13.370|552=1|54=1|29=3|1041=APA-BMX0017|1934=0|15=GBP|1924=1|22600=2500000|22601=GBP|22606=DERV|22607=INTR|22608=OPTN|22610=20201212|22641=AT0000393517|22661=Bond Options|854=1|231=10|30=SINT|1116=2|1117=00TR8NKAEL48RGTZEW89|1118=N|1119=116|1117=00TR8NKAEL48RGTZEW89|1118=N|1119=1|10=185|8=FIXT.1.1|9=461|35=AE|34=290|49=HEMAMTFRTS27QA2|50=APA|57=APA|52=20180625-13:28:12.008|56=TRAX|571=TradeReport|487=0|325=Y|423=6|55=[N/A]|22=104|32=366|31=33.89|60=20180301-09:30:13.370|552=1|54=1|29=3|1041=APA-BMX0018|1934=0|15=GBP|1924=1|22600=2500000|22601=GBP|22606=DERV|22607=INTR|22608=OPTN|22610=20201212|22641=AT0000393517|22661=Bond Options|854=1|231=10|221=OTHER|222=34|30=SINT|1116=2|1117=00TR8NKAEL48RGTZEW89|1118=N|1119=116|1117=00TR8NKAEL48RGTZEW89|1118=N|1119=1|10=065|8=FIXT.1.1|9=461|35=AE|34=291|49=HEMAMTFRTS27QA2|50=APA|57=APA|52=20180625-13:28:24.864|56=TRAX|571=TradeReport|487=0|325=Y|423=5|55=[N/A]|22=104|32=35466|31=235|60=20180301-09:30:13.370|552=1|54=1|29=3|1041=APA-BMX0019|1934=0|15=GBP|1924=1|22600=2500000|22601=GBP|22606=DERV|22607=INTR|22608=OPTN|22610=20201212|22641=AT0000393517|22661=Bond Options|854=1|231=10|221=OTHER|222=34|30=SINT|1116=2|1117=00TR8NKAEL48RGTZEW89|1118=N|1119=116|1117=00TR8NKAEL48RGTZEW89|1118=N|1119=1|10=077|8=FIXT.1.1|9=459|35=AE|34=292|49=HEMAMTFRTS27QA2|50=APA|57=APA|52=20180625-13:28:37.112|56=TRAX|571=TradeReport|487=0|325=Y|423=4|55=[N/A]|22=104|32=44|31=35.8|60=20180301-09:30:13.370|552=1|54=1|29=3|1041=APA-BMX0020|1934=0|15=GBP|1924=1|22600=2500000|22601=GBP|22606=DERV|22607=INTR|22608=OPTN|22610=20201212|22641=AT0000393517|22661=Bond Options|854=1|231=10|221=OTHER|222=34|30=SINT|1116=2|1117=00TR8NKAEL48RGTZEW89|1118=N|1119=116|1117=00TR8NKAEL48RGTZEW89|1118=N|1119=1|10=214|8=FIXT.1.1|9=464|35=AE|34=293|49=HEMAMTFRTS27QA2|50=APA|57=APA|52=20180625-13:28:49.792|56=TRAX|571=TradeReport|487=0|325=Y|423=4|55=[N/A]|22=104|32=44.777|31=35.448|60=20180301-09:30:13.370|552=1|54=1|29=3|1041=APA-BMX0021|1934=0|15=GBP|1924=1|22600=250000|22601=GBP|22606=DERV|22607=INTR|22608=OPTN|22610=20201212|22641=AT0000393517|22661=Bond Options|854=1|231=10|221=OTHER|222=34|30=SINT|1116=2|1117=00TR8NKAEL48RGTZEW89|1118=N|1119=116|1117=00TR8NKAEL48RGTZEW89|1118=N|1119=1|10=240|8=FIXT.1.1|9=464|35=AE|34=294|49=HEMAMTFRTS27QA2|50=APA|57=APA|52=20180625-13:29:09.640|56=TRAX|571=TradeReport|487=0|325=Y|423=2|55=[N/A]|22=104|32=678.997|31=56.89|60=20180301-09:30:13.370|552=1|54=1|29=3|1041=APA-BMX0022|1934=0|15=GBP|1924=1|22600=250000|22601=GBP|22606=DERV|22607=INTR|22608=OPTN|22610=20201212|22641=AT0000393517|22661=Bond Options|854=1|231=10|221=OTHER|222=34|30=SINT|1116=2|1117=00TR8NKAEL48RGTZEW89|1118=N|1119=116|1117=00TR8NKAEL48RGTZEW89|1118=N|1119=1|10=250|8=FIXT.1.1|9=466|35=AE|34=295|49=HEMAMTFRTS27QA2|50=APA|57=APA|52=20180625-13:29:32.236|56=TRAX|571=TradeReport|487=0|325=Y|423=1|55=[N/A]|22=104.67|32=678.97|31=56.89|60=20180301-09:30:13.370|552=1|54=1|29=2|1041=APA-BMX0022|1934=0|15=GBP|1924=1|22600=250000|22601=GBP|22606=DERV|22607=INTR|22608=OPTN|22610=20201212|22641=AT0000393517|22661=Bond Options|854=1|231=10|221=OTHER|222=34|30=SINT|1116=2|1117=00TR8NKAEL48RGTZEW89|1118=N|1119=116|1117=00TR8NKAEL48RGTZEW89|1118=N|1119=1|10=090|8=FIXT.1.1|9=459|35=AE|34=296|49=HEMAMTFRTS27QA2|50=APA|57=APA|52=20180625-13:29:39.879|56=TRAX|571=TradeReport|487=0|325=Y|423=1|55=[N/A]|22=104|32=6787|31=569|60=20180301-09:30:13.370|552=1|54=1|29=2|1041=APA-BMX0022|1934=0|15=GBP|1924=1|22600=250000|22601=GBP|22606=DERV|22607=INTR|22608=OPTN|22610=20201212|22641=AT0000393517|22661=Bond Options|854=1|231=10|221=OTHER|222=34|30=SINT|1116=2|1117=00TR8NKAEL48RGTZEW89|1118=N|1119=116|1117=00TR8NKAEL48RGTZEW89|1118=N|1119=1|10=009|8=FIXT.1.1|9=459|35=AE|34=297|49=HEMAMTFRTS27QA2|50=APA|57=APA|52=20180625-13:29:44.023|56=TRAX|571=TradeReport|487=0|325=Y|423=1|55=[N/A]|22=104|32=6787|31=569|60=20180301-09:30:13.370|552=1|54=1|29=2|1041=APA-BMX0023|1934=0|15=GBP|1924=1|22600=250000|22601=GBP|22606=DERV|22607=INTR|22608=OPTN|22610=20201212|22641=AT0000393517|22661=Bond Options|854=1|231=10|221=OTHER|222=34|30=SINT|1116=2|1117=00TR8NKAEL48RGTZEW89|1118=N|1119=116|1117=00TR8NKAEL48RGTZEW89|1118=N|1119=1|10=244|8=FIXT.1.1|9=461|35=AE|34=298|49=HEMAMTFRTS27QA2|50=APA|57=APA|52=20180625-13:29:52.990|56=TRAX|571=TradeReport|487=0|325=Y|423=1|55=[N/A]|22=104|32=6.787|31=5.69|60=20180301-09:30:13.370|552=1|54=1|29=2|1041=APA-BMX0024|1934=0|15=GBP|1924=1|22600=250000|22601=GBP|22606=DERV|22607=INTR|22608=OPTN|22610=20201212|22641=AT0000393517|22661=Bond Options|854=1|231=10|221=OTHER|222=34|30=SINT|1116=2|1117=00TR8NKAEL48RGTZEW89|1118=N|1119=116|1117=00TR8NKAEL48RGTZEW89|1118=N|1119=1|10=087|8=FIXT.1.1|9=463|35=AE|34=299|49=HEMAMTFRTS27QA2|50=APA|57=APA|52=20180625-13:30:11.727|56=TRAX|571=TradeReport|487=0|325=Y|423=2|55=[N/A]|22=104|32=698787|31=55669|60=20180301-09:30:13.370|552=1|54=1|29=4|1041=APA-BMX0024|1934=0|15=GBP|1924=1|22600=250000|22601=GBP|22606=DERV|22607=INTR|22608=OPTN|22610=20201212|22641=AT0000393517|22661=Bond Options|854=1|231=10|221=OTHER|222=34|30=SINT|1116=2|1117=00TR8NKAEL48RGTZEW89|1118=N|1119=116|1117=00TR8NKAEL48RGTZEW89|1118=N|1119=1|10=206|8=FIXT.1.1|9=463|35=AE|34=300|49=HEMAMTFRTS27QA2|50=APA|57=APA|52=20180625-13:30:16.847|56=TRAX|571=TradeReport|487=0|325=Y|423=2|55=[N/A]|22=104|32=698787|31=55669|60=20180301-09:30:13.370|552=1|54=1|29=4|1041=APA-BMX0025|1934=0|15=GBP|1924=1|22600=250000|22601=GBP|22606=DERV|22607=INTR|22608=OPTN|22610=20201212|22641=AT0000393517|22661=Bond Options|854=1|231=10|221=OTHER|222=34|30=SINT|1116=2|1117=00TR8NKAEL48RGTZEW89|1118=N|1119=116|1117=00TR8NKAEL48RGTZEW89|1118=N|1119=1|10=198|8=FIXT.1.1|9=465|35=AE|34=301|49=HEMAMTFRTS27QA2|50=APA|57=APA|52=20180625-13:30:25.160|56=TRAX|571=TradeReport|487=0|325=Y|423=2|55=[N/A]|22=104|32=6.98787|31=5.5669|60=20180301-09:30:13.370|552=1|54=1|29=4|1041=APA-BMX0026|1934=0|15=GBP|1924=1|22600=250000|22601=GBP|22606=DERV|22607=INTR|22608=OPTN|22610=20201212|22641=AT0000393517|22661=Bond Options|854=1|231=10|221=OTHER|222=34|30=SINT|1116=2|1117=00TR8NKAEL48RGTZEW89|1118=N|1119=116|1117=00TR8NKAEL48RGTZEW89|1118=N|1119=1|10=026|8=FIXT.1.1|9=459|35=AE|34=302|49=HEMAMTFRTS27QA2|50=APA|57=APA|52=20180625-13:30:34.575|56=TRAX|571=TradeReport|487=0|325=Y|423=2|55=[N/A]|22=104|32=78.89|31=90|60=20180301-09:30:13.370|552=1|54=1|29=4|1041=APA-BMX0076|1934=0|15=GBP|1924=1|22600=250000|22601=GBP|22606=DERV|22607=INTR|22608=OPTN|22610=20201212|22641=AT0000393517|22661=Bond Options|854=1|231=10|221=OTHER|222=34|30=SINT|1116=2|1117=00TR8NKAEL48RGTZEW89|1118=N|1119=116|1117=00TR8NKAEL48RGTZEW89|1118=N|1119=1|10=236|8=FIXT.1.1|9=64|35=0|34=303|49=HEMAMTFRTS27QA2|52=20180625-13:31:04.803|56=TRAX|10=239|8=FIXT.1.1|9=64|35=0|34=304|49=HEMAMTFRTS27QA2|52=20180625-13:31:34.803|56=TRAX|10=243|8=FIXT.1.1|9=64|35=0|34=305|49=HEMAMTFRTS27QA2|52=20180625-13:32:04.804|56=TRAX|10=243|8=FIXT.1.1|9=64|35=0|34=306|49=HEMAMTFRTS27QA2|52=20180625-13:32:35.540|56=TRAX|10=245|8=FIXT.1.1|9=564|35=AE|34=307|49=HEMAMTFRTS27QA2|50=APA|57=APA|52=20180625-13:33:00.301|56=TRAX|571=TradeReport|487=0|325=Y|423=1|55=[N/A]|22=104|32=2222|31=203.17|60=20180301-06:20:13.370|552=1|54=1|29=3|1041=APA-CONCAT-20DEC221-1075|1934=0|15=GBP|1924=1|22600=2500000|22601=GBP|22606=DERV|22607=INTR|22608=SWAP|22614=USD|22661=Inflation 'multi currency swaps' or 'cross-currency swaps' and futures/forwards on Inflation 'multi currency swaps' or 'cross-currency swaps'|854=1|231=10|30=SINT|1116=2|1117=00TR8NKAEL48RGTZEW89|1118=N|1119=116|1117=00TR8NKAEL48RGTZEW89|1118=N|1119=1|10=067|8=FIXT.1.1|9=559|35=AE|34=308|49=HEMAMTFRTS27QA2|50=APA|57=APA|52=20180625-13:33:16.332|56=TRAX|571=TradeReport|487=0|325=Y|423=1|55=[N/A]|22=104|32=25|31=454|60=20180301-06:20:13.370|552=1|54=1|29=3|1041=APA-CONCAT-20DEC221-1076|1934=0|15=GBP|1924=1|22600=2500000|22601=GBP|22606=DERV|22607=INTR|22608=SWAP|22614=USD|22661=Inflation 'multi currency swaps' or 'cross-currency swaps' and futures/forwards on Inflation 'multi currency swaps' or 'cross-currency swaps'|854=1|231=10|30=SINT|1116=2|1117=00TR8NKAEL48RGTZEW89|1118=N|1119=116|1117=00TR8NKAEL48RGTZEW89|1118=N|1119=1|10=101|8=FIXT.1.1|9=64|35=0|34=309|49=HEMAMTFRTS27QA2|52=20180625-13:33:46.539|56=TRAX|10=003|8=FIXT.1.1|9=64|35=0|34=310|49=HEMAMTFRTS27QA2|52=20180625-13:34:16.542|56=TRAX|10=243|8=FIXT.1.1|9=64|35=0|34=311|49=HEMAMTFRTS27QA2|52=20180625-13:34:46.542|56=TRAX|10=247|8=FIXT.1.1|9=64|35=0|34=312|49=HEMAMTFRTS27QA2|52=20180625-13:35:16.542|56=TRAX|10=246|8=FIXT.1.1|9=64|35=0|34=313|49=HEMAMTFRTS27QA2|52=20180625-13:35:46.542|56=TRAX|10=250|8=FIXT.1.1|9=64|35=0|34=314|49=HEMAMTFRTS27QA2|52=20180625-13:36:16.543|56=TRAX|10=250|8=FIXT.1.1|9=64|35=0|34=315|49=HEMAMTFRTS27QA2|52=20180625-13:36:47.542|56=TRAX|10=254|8=FIXT.1.1|9=64|35=0|34=316|49=HEMAMTFRTS27QA2|52=20180625-13:37:17.803|56=TRAX|10=253|8=FIXT.1.1|9=64|35=0|34=317|49=HEMAMTFRTS27QA2|52=20180625-13:37:47.803|56=TRAX|10=001|8=FIXT.1.1|9=64|35=0|34=318|49=HEMAMTFRTS27QA2|52=20180625-13:38:17.803|56=TRAX|10=000|8=FIXT.1.1|9=64|35=0|34=319|49=HEMAMTFRTS27QA2|52=20180625-13:38:47.803|56=TRAX|10=004|8=FIXT.1.1|9=64|35=0|34=320|49=HEMAMTFRTS27QA2|52=20180625-13:39:18.537|56=TRAX|10=255|8=FIXT.1.1|9=64|35=0|34=321|49=HEMAMTFRTS27QA2|52=20180625-13:39:48.538|56=TRAX|10=004|8=FIXT.1.1|9=64|35=0|34=322|49=HEMAMTFRTS27QA2|52=20180625-13:40:19.540|56=TRAX|10=244|8=FIXT.1.1|9=64|35=0|34=323|49=HEMAMTFRTS27QA2|52=20180625-13:40:50.539|56=TRAX|10=248|8=FIXT.1.1|9=64|35=0|34=324|49=HEMAMTFRTS27QA2|52=20180625-13:41:20.539|56=TRAX|10=247|8=FIXT.1.1|9=64|35=0|34=325|49=HEMAMTFRTS27QA2|52=20180625-13:41:50.540|56=TRAX|10=243|8=FIXT.1.1|9=64|35=0|34=326|49=HEMAMTFRTS27QA2|52=20180625-13:42:21.539|56=TRAX|10=251|8=FIXT.1.1|9=64|35=0|34=327|49=HEMAMTFRTS27QA2|52=20180625-13:42:51.540|56=TRAX|10=247|8=FIXT.1.1|9=64|35=0|34=328|49=HEMAMTFRTS27QA2|52=20180625-13:43:22.539|56=TRAX|10=255|8=FIXT.1.1|9=64|35=0|34=329|49=HEMAMTFRTS27QA2|52=20180625-13:43:52.539|56=TRAX|10=003|8=FIXT.1.1|9=64|35=0|34=330|49=HEMAMTFRTS27QA2|52=20180625-13:44:22.539|56=TRAX|10=249|8=FIXT.1.1|9=64|35=0|34=331|49=HEMAMTFRTS27QA2|52=20180625-13:44:52.540|56=TRAX|10=245|8=FIXT.1.1|9=64|35=0|34=332|49=HEMAMTFRTS27QA2|52=20180625-13:45:22.541|56=TRAX|10=245|8=FIXT.1.1|9=64|35=0|34=333|49=HEMAMTFRTS27QA2|52=20180625-13:45:53.537|56=TRAX|10=255|8=FIXT.1.1|9=64|35=0|34=334|49=HEMAMTFRTS27QA2|52=20180625-13:46:23.537|56=TRAX|10=254|8=FIXT.1.1|9=64|35=0|34=335|49=HEMAMTFRTS27QA2|52=20180625-13:46:53.539|56=TRAX|10=004|8=FIXT.1.1|9=64|35=0|34=336|49=HEMAMTFRTS27QA2|52=20180625-13:47:23.539|56=TRAX|10=003|8=FIXT.1.1|9=64|35=0|34=337|49=HEMAMTFRTS27QA2|52=20180625-13:47:53.539|56=TRAX|10=007|8=FIXT.1.1|9=64|35=0|34=338|49=HEMAMTFRTS27QA2|52=20180625-13:48:23.539|56=TRAX|10=006|8=FIXT.1.1|9=64|35=0|34=339|49=HEMAMTFRTS27QA2|52=20180625-13:48:53.539|56=TRAX|10=010|8=FIXT.1.1|9=64|35=0|34=340|49=HEMAMTFRTS27QA2|52=20180625-13:49:24.539|56=TRAX|10=001|8=FIXT.1.1|9=64|35=0|34=341|49=HEMAMTFRTS27QA2|52=20180625-13:49:55.538|56=TRAX|10=005|8=FIXT.1.1|9=64|35=0|34=342|49=HEMAMTFRTS27QA2|52=20180625-13:50:25.538|56=TRAX|10=251|8=FIXT.1.1|9=64|35=0|34=343|49=HEMAMTFRTS27QA2|52=20180625-13:50:55.538|56=TRAX|10=255|8=FIXT.1.1|9=64|35=0|34=344|49=HEMAMTFRTS27QA2|52=20180625-13:51:26.538|56=TRAX|10=255|8=FIXT.1.1|9=64|35=0|34=345|49=HEMAMTFRTS27QA2|52=20180625-13:51:57.538|56=TRAX|10=004|8=FIXT.1.1|9=64|35=0|34=346|49=HEMAMTFRTS27QA2|52=20180625-13:52:28.534|56=TRAX|10=000|8=FIXT.1.1|9=64|35=0|34=347|49=HEMAMTFRTS27QA2|52=20180625-13:52:58.536|56=TRAX|10=006|8=FIXT.1.1|9=64|35=0|34=348|49=HEMAMTFRTS27QA2|52=20180625-13:53:29.536|56=TRAX|10=006|8=FIXT.1.1|9=64|35=0|34=349|49=HEMAMTFRTS27QA2|52=20180625-13:53:59.538|56=TRAX|10=012|8=FIXT.1.1|9=64|35=0|34=350|49=HEMAMTFRTS27QA2|52=20180625-13:54:30.536|56=TRAX|10=248|8=FIXT.1.1|9=64|35=0|34=351|49=HEMAMTFRTS27QA2|52=20180625-13:55:00.537|56=TRAX|10=248|8=FIXT.1.1|9=64|35=0|34=352|49=HEMAMTFRTS27QA2|52=20180625-13:55:31.533|56=TRAX|10=249|8=FIXT.1.1|9=64|35=0|34=353|49=HEMAMTFRTS27QA2|52=20180625-13:56:01.533|56=TRAX|10=248|8=FIXT.1.1|9=64|35=0|34=354|49=HEMAMTFRTS27QA2|52=20180625-13:56:31.533|56=TRAX|10=252|8=FIXT.1.1|9=64|35=0|34=355|49=HEMAMTFRTS27QA2|52=20180625-13:57:02.533|56=TRAX|10=252|8=FIXT.1.1|9=64|35=0|34=356|49=HEMAMTFRTS27QA2|52=20180625-13:57:33.533|56=TRAX|10=001|8=FIXT.1.1|9=64|35=0|34=357|49=HEMAMTFRTS27QA2|52=20180625-13:58:04.532|56=TRAX|10=000|8=FIXT.1.1|9=64|35=0|34=358|49=HEMAMTFRTS27QA2|52=20180625-13:58:35.532|56=TRAX|10=005|8=FIXT.1.1|9=64|35=0|34=359|49=HEMAMTFRTS27QA2|52=20180625-13:59:05.532|56=TRAX|10=004|8=FIXT.1.1|9=64|35=0|34=360|49=HEMAMTFRTS27QA2|52=20180625-13:59:35.532|56=TRAX|10=255|8=FIXT.1.1|9=64|35=0|34=361|49=HEMAMTFRTS27QA2|52=20180625-14:00:05.536|56=TRAX|10=244|8=FIXT.1.1|9=64|35=0|34=362|49=HEMAMTFRTS27QA2|52=20180625-14:00:36.531|56=TRAX|10=244|8=FIXT.1.1|9=64|35=0|34=363|49=HEMAMTFRTS27QA2|52=20180625-14:01:06.531|56=TRAX|10=243|8=FIXT.1.1|9=64|35=0|34=364|49=HEMAMTFRTS27QA2|52=20180625-14:01:36.534|56=TRAX|10=250|8=FIXT.1.1|9=64|35=0|34=365|49=HEMAMTFRTS27QA2|52=20180625-14:02:07.530|56=TRAX|10=246|8=FIXT.1.1|9=64|35=0|34=366|49=HEMAMTFRTS27QA2|52=20180625-14:02:37.538|56=TRAX|10=002|8=FIXT.1.1|9=64|35=0|34=367|49=HEMAMTFRTS27QA2|52=20180625-14:03:08.530|56=TRAX|10=250|8=FIXT.1.1|9=64|35=0|34=368|49=HEMAMTFRTS27QA2|52=20180625-14:03:38.530|56=TRAX|10=254|8=FIXT.1.1|9=64|35=0|34=369|49=HEMAMTFRTS27QA2|52=20180625-14:04:08.544|56=TRAX|10=002|8=FIXT.1.1|9=64|35=0|34=370|49=HEMAMTFRTS27QA2|52=20180625-14:04:38.545|56=TRAX|10=254|8=FIXT.1.1|9=64|35=0|34=371|49=HEMAMTFRTS27QA2|52=20180625-14:05:09.530|56=TRAX|10=248|8=FIXT.1.1|9=64|35=0|34=372|49=HEMAMTFRTS27QA2|52=20180625-14:05:39.530|56=TRAX|10=252|8=FIXT.1.1|9=64|35=0|34=373|49=HEMAMTFRTS27QA2|52=20180625-14:06:09.536|56=TRAX|10=001|8=FIXT.1.1|9=64|35=0|34=374|49=HEMAMTFRTS27QA2|52=20180625-14:06:40.532|56=TRAX|10=249|8=FIXT.1.1|9=64|35=0|34=375|49=HEMAMTFRTS27QA2|52=20180625-14:07:10.538|56=TRAX|10=254|8=FIXT.1.1|9=64|35=0|34=376|49=HEMAMTFRTS27QA2|52=20180625-14:07:41.539|56=TRAX|10=004|8=FIXT.1.1|9=64|35=0|34=377|49=HEMAMTFRTS27QA2|52=20180625-14:08:11.541|56=TRAX|10=252|8=FIXT.1.1|9=64|35=0|34=378|49=HEMAMTFRTS27QA2|52=20180625-14:08:42.530|56=TRAX|10=255|8=FIXT.1.1|9=64|35=0|34=379|49=HEMAMTFRTS27QA2|52=20180625-14:09:12.533|56=TRAX|10=001|8=FIXT.1.1|9=64|35=0|34=380|49=HEMAMTFRTS27QA2|52=20180625-14:09:43.530|56=TRAX|10=250|8=FIXT.1.1|9=64|35=0|34=381|49=HEMAMTFRTS27QA2|52=20180625-14:10:13.535|56=TRAX|10=245|8=FIXT.1.1|9=64|35=0|34=382|49=HEMAMTFRTS27QA2|52=20180625-14:10:44.538|56=TRAX|10=253|8=FIXT.1.1|9=64|35=0|34=383|49=HEMAMTFRTS27QA2|52=20180625-14:11:15.539|56=TRAX|10=254|8=FIXT.1.1|9=64|35=0|34=384|49=HEMAMTFRTS27QA2|52=20180625-14:11:46.530|56=TRAX|10=250|8=FIXT.1.1|9=64|35=0|34=385|49=HEMAMTFRTS27QA2|52=20180625-14:12:16.530|56=TRAX|10=249|8=FIXT.1.1|9=64|35=0|34=386|49=HEMAMTFRTS27QA2|52=20180625-14:12:47.527|56=TRAX|10=004|8=FIXT.1.1|9=64|35=0|34=387|49=HEMAMTFRTS27QA2|52=20180625-14:13:17.536|56=TRAX|10=003|8=FIXT.1.1|9=64|35=0|34=388|49=HEMAMTFRTS27QA2|52=20180625-14:13:48.527|56=TRAX|10=008|8=FIXT.1.1|9=64|35=0|34=389|49=HEMAMTFRTS27QA2|52=20180625-14:14:18.528|56=TRAX|10=008|8=FIXT.1.1|9=64|35=0|34=390|49=HEMAMTFRTS27QA2|52=20180625-14:14:49.526|56=TRAX|10=002|8=FIXT.1.1|9=64|35=0|34=391|49=HEMAMTFRTS27QA2|52=20180625-14:15:19.531|56=TRAX|10=253|8=FIXT.1.1|9=64|35=0|34=392|49=HEMAMTFRTS27QA2|52=20180625-14:15:49.532|56=TRAX|10=002|8=FIXT.1.1|9=64|35=0|34=393|49=HEMAMTFRTS27QA2|52=20180625-14:16:20.529|56=TRAX|10=255|8=FIXT.1.1|9=64|35=0|34=394|49=HEMAMTFRTS27QA2|52=20180625-14:16:50.531|56=TRAX|10=252|8=FIXT.1.1|9=64|35=0|34=395|49=HEMAMTFRTS27QA2|52=20180625-14:17:20.538|56=TRAX|10=002|8=FIXT.1.1|9=64|35=0|34=396|49=HEMAMTFRTS27QA2|52=20180625-14:17:50.543|56=TRAX|10=002|8=FIXT.1.1|9=64|35=0|34=397|49=HEMAMTFRTS27QA2|52=20180625-14:18:21.528|56=TRAX|10=005|8=FIXT.1.1|9=556|35=AE|34=398|49=HEMAMTFRTS27QA2|50=APA|57=APA|52=20180625-14:18:37.961|56=TRAX|571=TradeReport|487=0|325=Y|423=1|55=[N/A]|22=104|32=2222|31=203.17|60=20170705-06:20:13.370|552=1|54=1|29=3|1041=APAO1|1934=0|15=EUR|1924=1|22600=2500000|22601=GBP|22606=DERV|22607=INTR|22608=SWAP|22614=USD|22661=Fixed-to-Fixed 'multi currency swaps' or 'cross-currency swaps' and futures/forwards on Fixed-to-Fixed 'multi currency swaps' or 'cross-currency swaps' |854=1|231=10|30=SINT|1116=2|1117=00TR8NKAEL48RGTZEW89|1118=N|1119=116|1117=00TR8NKAEL48RGTZEW89|1118=N|1119=1|10=069|8=FIXT.1.1|9=64|35=0|34=399|49=HEMAMTFRTS27QA2|52=20180625-14:19:08.531|56=TRAX|10=007|8=FIXT.1.1|9=556|35=AE|34=400|49=HEMAMTFRTS27QA2|50=APA|57=APA|52=20180625-14:19:35.492|56=TRAX|571=TradeReport|487=0|325=Y|423=2|55=[N/A]|22=104|32=2222|31=203.17|60=20170705-06:20:13.370|552=1|54=1|29=3|1041=APAO2|1934=0|15=GBP|1924=1|22600=2500000|22601=EUR|22606=DERV|22607=INTR|22608=SWAP|22614=USD|22661=Fixed-to-Fixed 'multi currency swaps' or 'cross-currency swaps' and futures/forwards on Fixed-to-Fixed 'multi currency swaps' or 'cross-currency swaps' |854=1|231=10|30=SINT|1116=2|1117=00TR8NKAEL48RGTZEW89|1118=N|1119=116|1117=00TR8NKAEL48RGTZEW89|1118=N|1119=1|10=053|8=FIXT.1.1|9=64|35=0|34=401|49=HEMAMTFRTS27QA2|52=20180625-14:20:05.535|56=TRAX|10=240|8=FIXT.1.1|9=64|35=0|34=402|49=HEMAMTFRTS27QA2|52=20180625-14:20:35.808|56=TRAX|10=247|8=FIXT.1.1|9=64|35=0|34=403|49=HEMAMTFRTS27QA2|52=20180625-14:21:06.524|56=TRAX|10=242|8=FIXT.1.1|9=64|35=0|34=404|49=HEMAMTFRTS27QA2|52=20180625-14:21:36.538|56=TRAX|10=251|8=FIXT.1.1|9=556|35=AE|34=405|49=HEMAMTFRTS27QA2|50=APA|57=APA|52=20180625-14:21:39.956|56=TRAX|571=TradeReport|487=0|325=Y|423=2|55=[N/A]|22=104|32=2222|31=203.17|60=20180302-09:35:13.370|552=1|54=1|29=3|1041=APAO3|1934=0|15=GBP|1924=1|22600=2500000|22601=EUR|22606=DERV|22607=INTR|22608=SWAP|22614=USD|22661=Fixed-to-Fixed 'multi currency swaps' or 'cross-currency swaps' and futures/forwards on Fixed-to-Fixed 'multi currency swaps' or 'cross-currency swaps' |854=1|231=10|30=SINT|1116=2|1117=00TR8NKAEL48RGTZEW89|1118=N|1119=116|1117=00TR8NKAEL48RGTZEW89|1118=N|1119=1|10=064|8=FIXT.1.1|9=556|35=AE|34=406|49=HEMAMTFRTS27QA2|50=APA|57=APA|52=20180625-14:21:59.081|56=TRAX|571=TradeReport|487=0|325=Y|423=1|55=[N/A]|22=104|32=2222|31=203.17|60=20180302-09:35:13.370|552=1|54=1|29=3|1041=APAO4|1934=0|15=EUR|1924=1|22600=2500000|22601=USD|22606=DERV|22607=INTR|22608=SWAP|22614=USD|22661=Fixed-to-Fixed 'multi currency swaps' or 'cross-currency swaps' and futures/forwards on Fixed-to-Fixed 'multi currency swaps' or 'cross-currency swaps' |854=1|231=10|30=SINT|1116=2|1117=00TR8NKAEL48RGTZEW89|1118=N|1119=116|1117=00TR8NKAEL48RGTZEW89|1118=N|1119=1|10=075|8=FIXT.1.1|9=64|35=0|34=407|49=HEMAMTFRTS27QA2|52=20180625-14:22:29.530|56=TRAX|10=249|8=FIXT.1.1|9=64|35=0|34=408|49=HEMAMTFRTS27QA2|52=20180625-14:22:59.806|56=TRAX|10=003|8=FIXT.1.1|9=64|35=0|34=409|49=HEMAMTFRTS27QA2|52=20180625-14:23:30.532|56=TRAX|10=246|8=FIXT.1.1|9=64|35=0|34=410|49=HEMAMTFRTS27QA2|52=20180625-14:24:01.523|56=TRAX|10=237|8=FIXT.1.1|9=64|35=0|34=411|49=HEMAMTFRTS27QA2|52=20180625-14:24:31.523|56=TRAX|10=241|8=FIXT.1.1|9=64|35=0|34=412|49=HEMAMTFRTS27QA2|52=20180625-14:25:02.534|56=TRAX|10=243|8=FIXT.1.1|9=64|35=0|34=413|49=HEMAMTFRTS27QA2|52=20180625-14:25:33.534|56=TRAX|10=248|8=FIXT.1.1|9=64|35=0|34=414|49=HEMAMTFRTS27QA2|52=20180625-14:26:03.538|56=TRAX|10=251|8=FIXT.1.1|9=64|35=0|34=415|49=HEMAMTFRTS27QA2|52=20180625-14:26:34.535|56=TRAX|10=253|8=FIXT.1.1|9=64|35=0|34=416|49=HEMAMTFRTS27QA2|52=20180625-14:27:05.535|56=TRAX|10=253|8=FIXT.1.1|9=64|35=0|34=417|49=HEMAMTFRTS27QA2|52=20180625-14:27:36.521|56=TRAX|10=253|8=FIXT.1.1|9=64|35=0|34=418|49=HEMAMTFRTS27QA2|52=20180625-14:28:06.521|56=TRAX|10=252|8=FIXT.1.1|9=64|35=0|34=419|49=HEMAMTFRTS27QA2|52=20180625-14:28:36.535|56=TRAX|10=005|8=FIXT.1.1|9=64|35=0|34=420|49=HEMAMTFRTS27QA2|52=20180625-14:29:07.526|56=TRAX|10=252|8=FIXT.1.1|9=64|35=0|34=421|49=HEMAMTFRTS27QA2|52=20180625-14:29:37.535|56=TRAX|10=000|8=FIXT.1.1|9=64|35=0|34=422|49=HEMAMTFRTS27QA2|52=20180625-14:30:08.520|56=TRAX|10=241|8=FIXT.1.1|9=64|35=0|34=423|49=HEMAMTFRTS27QA2|52=20180625-14:30:38.523|56=TRAX|10=248|8=FIXT.1.1|9=64|35=0|34=424|49=HEMAMTFRTS27QA2|52=20180625-14:31:08.526|56=TRAX|10=250|8=FIXT.1.1|9=64|35=0|34=425|49=HEMAMTFRTS27QA2|52=20180625-14:31:38.526|56=TRAX|10=254|8=FIXT.1.1|9=64|35=0|34=426|49=HEMAMTFRTS27QA2|52=20180625-14:32:09.527|56=TRAX|10=255|8=FIXT.1.1|9=64|35=0|34=427|49=HEMAMTFRTS27QA2|52=20180625-14:32:39.532|56=TRAX|10=255|8=FIXT.1.1|9=64|35=0|34=428|49=HEMAMTFRTS27QA2|52=20180625-14:33:10.527|56=TRAX|10=250|8=FIXT.1.1|9=64|35=0|34=429|49=HEMAMTFRTS27QA2|52=20180625-14:33:41.529|56=TRAX|10=001|8=FIXT.1.1|9=64|35=0|34=430|49=HEMAMTFRTS27QA2|52=20180625-14:34:12.530|56=TRAX|10=240|8=FIXT.1.1|9=64|35=0|34=431|49=HEMAMTFRTS27QA2|52=20180625-14:34:43.521|56=TRAX|10=245|8=FIXT.1.1|9=64|35=0|34=432|49=HEMAMTFRTS27QA2|52=20180625-14:35:13.525|56=TRAX|10=248|8=FIXT.1.1|9=64|35=0|34=433|49=HEMAMTFRTS27QA2|52=20180625-14:35:43.537|56=TRAX|10=255|8=FIXT.1.1|9=64|35=0|34=434|49=HEMAMTFRTS27QA2|52=20180625-14:36:14.525|56=TRAX|10=252|8=FIXT.1.1|9=64|35=0|34=435|49=HEMAMTFRTS27QA2|52=20180625-14:36:44.532|56=TRAX|10=254|8=FIXT.1.1|9=64|35=0|34=436|49=HEMAMTFRTS27QA2|52=20180625-14:37:15.544|56=TRAX|10=001|8=FIXT.1.1|9=64|35=0|34=437|49=HEMAMTFRTS27QA2|52=20180625-14:37:46.531|56=TRAX|10=002|8=FIXT.1.1|9=64|35=0|34=438|49=HEMAMTFRTS27QA2|52=20180625-14:38:16.535|56=TRAX|10=005|8=FIXT.1.1|9=64|35=0|34=439|49=HEMAMTFRTS27QA2|52=20180625-14:38:47.536|56=TRAX|10=011|8=FIXT.1.1|9=64|35=0|34=440|49=HEMAMTFRTS27QA2|52=20180625-14:39:17.544|56=TRAX|10=000|8=FIXT.1.1|9=64|35=0|34=441|49=HEMAMTFRTS27QA2|52=20180625-14:39:48.539|56=TRAX|10=009|8=FIXT.1.1|9=64|35=0|34=442|49=HEMAMTFRTS27QA2|52=20180625-14:40:18.544|56=TRAX|10=251|8=FIXT.1.1|9=64|35=0|34=443|49=HEMAMTFRTS27QA2|52=20180625-14:40:49.539|56=TRAX|10=004|8=FIXT.1.1|9=64|35=0|34=444|49=HEMAMTFRTS27QA2|52=20180625-14:41:19.544|56=TRAX|10=255|8=FIXT.1.1|9=64|35=0|34=445|49=HEMAMTFRTS27QA2|52=20180625-14:41:50.533|56=TRAX|10=249|8=FIXT.1.1|9=64|35=0|34=446|49=HEMAMTFRTS27QA2|52=20180625-14:42:21.542|56=TRAX|10=249|8=FIXT.1.1|9=64|35=0|34=447|49=HEMAMTFRTS27QA2|52=20180625-14:42:52.537|56=TRAX|10=002|8=FIXT.1.1|9=64|35=0|34=448|49=HEMAMTFRTS27QA2|52=20180625-14:43:23.531|56=TRAX|10=252|8=FIXT.1.1|9=64|35=0|34=449|49=HEMAMTFRTS27QA2|52=20180625-14:43:54.534|56=TRAX|10=004|8=FIXT.1.1|9=64|35=0|34=450|49=HEMAMTFRTS27QA2|52=20180625-14:44:24.542|56=TRAX|10=249|8=FIXT.1.1|9=64|35=0|34=451|49=HEMAMTFRTS27QA2|52=20180625-14:44:55.536|56=TRAX|10=001|8=FIXT.1.1|9=64|35=0|34=452|49=HEMAMTFRTS27QA2|52=20180625-14:45:26.531|56=TRAX|10=252|8=FIXT.1.1|9=64|35=0|34=453|49=HEMAMTFRTS27QA2|52=20180625-14:45:56.543|56=TRAX|10=003|8=FIXT.1.1|9=64|35=0|34=454|49=HEMAMTFRTS27QA2|52=20180625-14:46:27.533|56=TRAX|10=002|8=FIXT.1.1|9=64|35=0|34=455|49=HEMAMTFRTS27QA2|52=20180625-14:46:57.539|56=TRAX|10=012|8=FIXT.1.1|9=64|35=0|34=456|49=HEMAMTFRTS27QA2|52=20180625-14:47:28.533|56=TRAX|10=006|8=FIXT.1.1|9=64|35=0|34=457|49=HEMAMTFRTS27QA2|52=20180625-14:47:58.536|56=TRAX|10=013|8=FIXT.1.1|9=64|35=0|34=458|49=HEMAMTFRTS27QA2|52=20180625-14:48:29.537|56=TRAX|10=014|8=FIXT.1.1|9=64|35=0|34=459|49=HEMAMTFRTS27QA2|52=20180625-14:48:59.543|56=TRAX|10=015|8=FIXT.1.1|9=64|35=0|34=460|49=HEMAMTFRTS27QA2|52=20180625-14:49:29.824|56=TRAX|10=007|8=FIXT.1.1|9=64|35=0|34=461|49=HEMAMTFRTS27QA2|52=20180625-14:50:00.544|56=TRAX|10=244|8=FIXT.1.1|9=64|35=0|34=462|49=HEMAMTFRTS27QA2|52=20180625-14:50:31.538|56=TRAX|10=252|8=FIXT.1.1|9=64|35=0|34=463|49=HEMAMTFRTS27QA2|52=20180625-14:51:02.532|56=TRAX|10=246|8=FIXT.1.1|9=64|35=0|34=464|49=HEMAMTFRTS27QA2|52=20180625-14:51:32.537|56=TRAX|10=255|8=FIXT.1.1|9=64|35=0|34=465|49=HEMAMTFRTS27QA2|52=20180625-14:52:03.532|56=TRAX|10=250|8=FIXT.1.1|9=64|35=0|34=466|49=HEMAMTFRTS27QA2|52=20180625-14:52:33.535|56=TRAX|10=001|8=FIXT.1.1|9=64|35=0|34=467|49=HEMAMTFRTS27QA2|52=20180625-14:53:03.543|56=TRAX|10=255|8=FIXT.1.1|9=64|35=0|34=468|49=HEMAMTFRTS27QA2|52=20180625-14:53:34.539|56=TRAX|10=009|8=FIXT.1.1|9=64|35=0|34=469|49=HEMAMTFRTS27QA2|52=20180625-14:54:05.534|56=TRAX|10=004|8=FIXT.1.1|9=64|35=0|34=470|49=HEMAMTFRTS27QA2|52=20180625-14:54:36.541|56=TRAX|10=254|8=FIXT.1.1|9=64|35=0|34=471|49=HEMAMTFRTS27QA2|52=20180625-14:55:07.541|56=TRAX|10=254|8=FIXT.1.1|9=64|35=0|34=472|49=HEMAMTFRTS27QA2|52=20180625-14:55:38.534|56=TRAX|10=005|8=FIXT.1.1|9=64|35=0|34=473|49=HEMAMTFRTS27QA2|52=20180625-14:56:08.538|56=TRAX|10=008|8=FIXT.1.1|9=64|35=0|34=474|49=HEMAMTFRTS27QA2|52=20180625-14:56:39.535|56=TRAX|10=010|8=FIXT.1.1|9=64|35=0|34=475|49=HEMAMTFRTS27QA2|52=20180625-14:57:10.524|56=TRAX|10=255|8=FIXT.1.1|9=64|35=0|34=476|49=HEMAMTFRTS27QA2|52=20180625-14:57:40.532|56=TRAX|10=002|8=FIXT.1.1|9=64|35=0|34=477|49=HEMAMTFRTS27QA2|52=20180625-14:58:10.532|56=TRAX|10=001|8=FIXT.1.1|9=64|35=0|34=478|49=HEMAMTFRTS27QA2|52=20180625-14:58:41.532|56=TRAX|10=006|8=FIXT.1.1|9=64|35=0|34=479|49=HEMAMTFRTS27QA2|52=20180625-14:59:11.538|56=TRAX|10=011|8=FIXT.1.1|9=64|35=0|34=480|49=HEMAMTFRTS27QA2|52=20180625-14:59:42.534|56=TRAX|10=003|8=FIXT.1.1|9=64|35=0|34=481|49=HEMAMTFRTS27QA2|52=20180625-15:00:12.537|56=TRAX|10=247|8=FIXT.1.1|9=64|35=0|34=482|49=HEMAMTFRTS27QA2|52=20180625-15:00:43.527|56=TRAX|10=251|8=FIXT.1.1|9=64|35=0|34=483|49=HEMAMTFRTS27QA2|52=20180625-15:01:13.529|56=TRAX|10=252|8=FIXT.1.1|9=64|35=0|34=484|49=HEMAMTFRTS27QA2|52=20180625-15:01:44.523|56=TRAX|10=251|8=FIXT.1.1|9=64|35=0|34=485|49=HEMAMTFRTS27QA2|52=20180625-15:02:15.524|56=TRAX|10=252|8=FIXT.1.1|9=64|35=0|34=486|49=HEMAMTFRTS27QA2|52=20180625-15:02:45.529|56=TRAX|10=005|8=FIXT.1.1|9=64|35=0|34=487|49=HEMAMTFRTS27QA2|52=20180625-15:03:16.527|56=TRAX|10=003|8=FIXT.1.1|9=64|35=0|34=488|49=HEMAMTFRTS27QA2|52=20180625-15:03:47.522|56=TRAX|10=003|8=FIXT.1.1|9=64|35=0|34=489|49=HEMAMTFRTS27QA2|52=20180625-15:04:17.526|56=TRAX|10=006|8=FIXT.1.1|9=64|35=0|34=490|49=HEMAMTFRTS27QA2|52=20180625-15:04:48.524|56=TRAX|10=000|8=FIXT.1.1|9=64|35=0|34=491|49=HEMAMTFRTS27QA2|52=20180625-15:05:18.526|56=TRAX|10=001|8=FIXT.1.1|9=64|35=0|34=492|49=HEMAMTFRTS27QA2|52=20180625-15:05:49.525|56=TRAX|10=005|8=FIXT.1.1|9=64|35=0|34=493|49=HEMAMTFRTS27QA2|52=20180625-15:06:20.532|56=TRAX|10=250|8=FIXT.1.1|9=64|35=0|34=494|49=HEMAMTFRTS27QA2|52=20180625-15:06:50.532|56=TRAX|10=254|8=FIXT.1.1|9=64|35=0|34=495|49=HEMAMTFRTS27QA2|52=20180625-15:07:21.524|56=TRAX|10=255|8=FIXT.1.1|9=64|35=0|34=496|49=HEMAMTFRTS27QA2|52=20180625-15:07:52.526|56=TRAX|10=006|8=FIXT.1.1|9=64|35=0|34=497|49=HEMAMTFRTS27QA2|52=20180625-15:08:22.530|56=TRAX|10=000|8=FIXT.1.1|9=64|35=0|34=498|49=HEMAMTFRTS27QA2|52=20180625-15:08:53.523|56=TRAX|10=007|8=FIXT.1.1|9=64|35=0|34=499|49=HEMAMTFRTS27QA2|52=20180625-15:09:24.520|56=TRAX|10=004|8=FIXT.1.1|9=64|35=0|34=500|49=HEMAMTFRTS27QA2|52=20180625-15:09:55.518|56=TRAX|10=254|8=FIXT.1.1|9=64|35=0|34=501|49=HEMAMTFRTS27QA2|52=20180625-15:10:25.522|56=TRAX|10=239|8=FIXT.1.1|9=64|35=0|34=502|49=HEMAMTFRTS27QA2|52=20180625-15:10:56.526|56=TRAX|10=248|8=FIXT.1.1|9=64|35=0|34=503|49=HEMAMTFRTS27QA2|52=20180625-15:11:27.529|56=TRAX|10=251|8=FIXT.1.1|9=64|35=0|34=504|49=HEMAMTFRTS27QA2|52=20180625-15:11:58.516|56=TRAX|10=252|8=FIXT.1.1|9=64|35=0|34=505|49=HEMAMTFRTS27QA2|52=20180625-15:12:28.528|56=TRAX|10=254|8=FIXT.1.1|9=64|35=0|34=506|49=HEMAMTFRTS27QA2|52=20180625-15:12:59.514|56=TRAX|10=254|8=FIXT.1.1|9=64|35=0|34=507|49=HEMAMTFRTS27QA2|52=20180625-15:13:29.520|56=TRAX|10=250|8=FIXT.1.1|9=64|35=0|34=508|49=HEMAMTFRTS27QA2|52=20180625-15:13:59.809|56=TRAX|10=008|8=FIXT.1.1|9=64|35=0|34=509|49=HEMAMTFRTS27QA2|52=20180625-15:14:29.823|56=TRAX|10=003|8=FIXT.1.1|9=64|35=0|34=510|49=HEMAMTFRTS27QA2|52=20180625-15:15:00.512|56=TRAX|10=236|8=FIXT.1.1|9=64|35=0|34=511|49=HEMAMTFRTS27QA2|52=20180625-15:15:30.517|56=TRAX|10=245|8=FIXT.1.1|9=64|35=0|34=512|49=HEMAMTFRTS27QA2|52=20180625-15:16:01.518|56=TRAX|10=246|8=FIXT.1.1|9=64|35=0|34=513|49=HEMAMTFRTS27QA2|52=20180625-15:16:31.522|56=TRAX|10=245|8=FIXT.1.1|9=64|35=0|34=514|49=HEMAMTFRTS27QA2|52=20180625-15:17:02.515|56=TRAX|10=247|8=FIXT.1.1|9=64|35=0|34=515|49=HEMAMTFRTS27QA2|52=20180625-15:17:32.515|56=TRAX|10=251|8=FIXT.1.1|9=64|35=0|34=516|49=HEMAMTFRTS27QA2|52=20180625-15:18:03.522|56=TRAX|10=249|8=FIXT.1.1|9=64|35=0|34=517|49=HEMAMTFRTS27QA2|52=20180625-15:18:34.516|56=TRAX|10=001|8=FIXT.1.1|9=64|35=0|34=518|49=HEMAMTFRTS27QA2|52=20180625-15:19:04.522|56=TRAX|10=253|8=FIXT.1.1|9=64|35=0|34=519|49=HEMAMTFRTS27QA2|52=20180625-15:19:35.521|56=TRAX|10=001|8=FIXT.1.1|9=64|35=0|34=520|49=HEMAMTFRTS27QA2|52=20180625-15:20:06.510|56=TRAX|10=237|8=FIXT.1.1|9=64|35=0|34=521|49=HEMAMTFRTS27QA2|52=20180625-15:20:36.514|56=TRAX|10=245|8=FIXT.1.1|9=64|35=0|34=522|49=HEMAMTFRTS27QA2|52=20180625-15:21:07.520|56=TRAX|10=242|8=FIXT.1.1|9=64|35=0|34=523|49=HEMAMTFRTS27QA2|52=20180625-15:21:38.513|56=TRAX|10=249|8=FIXT.1.1|9=64|35=0|34=524|49=HEMAMTFRTS27QA2|52=20180625-15:22:08.513|56=TRAX|10=248|8=FIXT.1.1|9=64|35=0|34=525|49=HEMAMTFRTS27QA2|52=20180625-15:22:38.513|56=TRAX|10=252|8=FIXT.1.1|9=64|35=0|34=526|49=HEMAMTFRTS27QA2|52=20180625-15:23:08.513|56=TRAX|10=251|8=FIXT.1.1|9=64|35=0|34=527|49=HEMAMTFRTS27QA2|52=20180625-15:23:39.506|56=TRAX|10=002|8=FIXT.1.1|9=64|35=0|34=528|49=HEMAMTFRTS27QA2|52=20180625-15:24:09.512|56=TRAX|10=254|8=FIXT.1.1|9=64|35=0|34=529|49=HEMAMTFRTS27QA2|52=20180625-15:24:40.517|56=TRAX|10=255|8=FIXT.1.1|9=64|35=0|34=530|49=HEMAMTFRTS27QA2|52=20180625-15:25:11.513|56=TRAX|10=242|8=FIXT.1.1|9=64|35=0|34=531|49=HEMAMTFRTS27QA2|52=20180625-15:25:42.504|56=TRAX|10=247|8=FIXT.1.1|9=64|35=0|34=532|49=HEMAMTFRTS27QA2|52=20180625-15:26:12.513|56=TRAX|10=246|8=FIXT.1.1|9=64|35=0|34=533|49=HEMAMTFRTS27QA2|52=20180625-15:26:43.514|56=TRAX|10=252|8=FIXT.1.1|9=64|35=0|34=534|49=HEMAMTFRTS27QA2|52=20180625-15:27:14.510|56=TRAX|10=248|8=FIXT.1.1|9=64|35=0|34=535|49=HEMAMTFRTS27QA2|52=20180625-15:27:45.516|56=TRAX|10=003|8=FIXT.1.1|9=64|35=0|34=536|49=HEMAMTFRTS27QA2|52=20180625-15:28:16.502|56=TRAX|10=254|8=FIXT.1.1|9=64|35=0|34=537|49=HEMAMTFRTS27QA2|52=20180625-15:28:46.508|56=TRAX|10=008|8=FIXT.1.1|9=64|35=0|34=538|49=HEMAMTFRTS27QA2|52=20180625-15:29:17.514|56=TRAX|10=005|8=FIXT.1.1|9=64|35=0|34=539|49=HEMAMTFRTS27QA2|52=20180625-15:29:47.514|56=TRAX|10=009|8=FIXT.1.1|9=64|35=0|34=540|49=HEMAMTFRTS27QA2|52=20180625-15:30:18.506|56=TRAX|10=248|8=FIXT.1.1|9=64|35=0|34=541|49=HEMAMTFRTS27QA2|52=20180625-15:30:48.512|56=TRAX|10=249|8=FIXT.1.1|9=64|35=0|34=542|49=HEMAMTFRTS27QA2|52=20180625-15:31:19.505|56=TRAX|10=251|8=FIXT.1.1|9=64|35=0|34=543|49=HEMAMTFRTS27QA2|52=20180625-15:31:49.506|56=TRAX|10=000|8=FIXT.1.1|9=64|35=0|34=544|49=HEMAMTFRTS27QA2|52=20180625-15:32:20.511|56=TRAX|10=243|8=FIXT.1.1|9=64|35=0|34=545|49=HEMAMTFRTS27QA2|52=20180625-15:32:51.500|56=TRAX|10=246|8=FIXT.1.1|9=64|35=0|34=546|49=HEMAMTFRTS27QA2|52=20180625-15:33:21.504|56=TRAX|10=249|8=FIXT.1.1|9=64|35=0|34=547|49=HEMAMTFRTS27QA2|52=20180625-15:33:52.504|56=TRAX|10=254|8=FIXT.1.1|9=64|35=0|34=548|49=HEMAMTFRTS27QA2|52=20180625-15:34:22.504|56=TRAX|10=253|8=FIXT.1.1|9=64|35=0|34=549|49=HEMAMTFRTS27QA2|52=20180625-15:34:53.500|56=TRAX|10=254|8=FIXT.1.1|9=64|35=0|34=550|49=HEMAMTFRTS27QA2|52=20180625-15:35:24.496|56=TRAX|10=003|8=FIXT.1.1|9=64|35=0|34=551|49=HEMAMTFRTS27QA2|52=20180625-15:35:54.502|56=TRAX|10=251|8=FIXT.1.1|9=64|35=0|34=552|49=HEMAMTFRTS27QA2|52=20180625-15:36:24.502|56=TRAX|10=250|8=FIXT.1.1|9=64|35=0|34=553|49=HEMAMTFRTS27QA2|52=20180625-15:36:54.502|56=TRAX|10=254|8=FIXT.1.1|9=64|35=0|34=554|49=HEMAMTFRTS27QA2|52=20180625-15:37:24.503|56=TRAX|10=254|8=FIXT.1.1|9=64|35=0|34=555|49=HEMAMTFRTS27QA2|52=20180625-15:37:55.508|56=TRAX|10=008|8=FIXT.1.1|9=64|35=0|34=556|49=HEMAMTFRTS27QA2|52=20180625-15:38:26.508|56=TRAX|10=008|8=FIXT.1.1|9=64|35=0|34=557|49=HEMAMTFRTS27QA2|52=20180625-15:38:57.495|56=TRAX|10=018|8=FIXT.1.1|9=64|35=0|34=558|49=HEMAMTFRTS27QA2|52=20180625-15:39:27.495|56=TRAX|10=017|8=FIXT.1.1|9=64|35=0|34=559|49=HEMAMTFRTS27QA2|52=20180625-15:39:57.507|56=TRAX|10=015|8=FIXT.1.1|9=64|35=0|34=560|49=HEMAMTFRTS27QA2|52=20180625-15:40:28.501|56=TRAX|10=247|8=FIXT.1.1|9=64|35=0|34=561|49=HEMAMTFRTS27QA2|52=20180625-15:40:59.504|56=TRAX|10=255|8=FIXT.1.1|9=64|35=0|34=562|49=HEMAMTFRTS27QA2|52=20180625-15:41:30.499|56=TRAX|10=003|8=FIXT.1.1|9=64|35=0|34=563|49=HEMAMTFRTS27QA2|52=20180625-15:42:00.798|56=TRAX|10=004|8=FIXT.1.1|9=64|35=0|34=564|49=HEMAMTFRTS27QA2|52=20180625-15:42:30.809|56=TRAX|10=001|8=FIXT.1.1|9=64|35=0|34=565|49=HEMAMTFRTS27QA2|52=20180625-15:43:01.497|56=TRAX|10=004|8=FIXT.1.1|9=64|35=0|34=566|49=HEMAMTFRTS27QA2|52=20180625-15:43:32.497|56=TRAX|10=009|8=FIXT.1.1|9=64|35=0|34=567|49=HEMAMTFRTS27QA2|52=20180625-15:44:02.504|56=TRAX|10=253|8=FIXT.1.1|9=64|35=0|34=568|49=HEMAMTFRTS27QA2|52=20180625-15:44:33.496|56=TRAX|10=012|8=FIXT.1.1|9=64|35=0|34=569|49=HEMAMTFRTS27QA2|52=20180625-15:45:03.498|56=TRAX|10=013|8=FIXT.1.1|9=64|35=0|34=570|49=HEMAMTFRTS27QA2|52=20180625-15:45:34.495|56=TRAX|10=006|8=FIXT.1.1|9=64|35=0|34=571|49=HEMAMTFRTS27QA2|52=20180625-15:46:05.495|56=TRAX|10=006|8=FIXT.1.1|9=64|35=0|34=572|49=HEMAMTFRTS27QA2|52=20180625-15:46:36.493|56=TRAX|10=009|8=FIXT.1.1|9=64|35=0|34=573|49=HEMAMTFRTS27QA2|52=20180625-15:47:06.494|56=TRAX|10=009|8=FIXT.1.1|9=64|35=0|34=574|49=HEMAMTFRTS27QA2|52=20180625-15:47:37.493|56=TRAX|10=013|8=FIXT.1.1|9=64|35=0|34=575|49=HEMAMTFRTS27QA2|52=20180625-15:48:07.496|56=TRAX|10=015|8=FIXT.1.1|9=64|35=0|34=576|49=HEMAMTFRTS27QA2|52=20180625-15:48:38.499|56=TRAX|10=023|8=FIXT.1.1|9=64|35=0|34=577|49=HEMAMTFRTS27QA2|52=20180625-15:49:09.487|56=TRAX|10=020|8=FIXT.1.1|9=64|35=0|34=578|49=HEMAMTFRTS27QA2|52=20180625-15:49:39.493|56=TRAX|10=021|8=FIXT.1.1|9=64|35=0|34=579|49=HEMAMTFRTS27QA2|52=20180625-15:50:10.493|56=TRAX|10=003|8=FIXT.1.1|9=64|35=0|34=580|49=HEMAMTFRTS27QA2|52=20180625-15:50:41.492|56=TRAX|10=254|8=FIXT.1.1|9=64|35=0|34=581|49=HEMAMTFRTS27QA2|52=20180625-15:51:12.485|56=TRAX|10=000|8=FIXT.1.1|9=64|35=0|34=582|49=HEMAMTFRTS27QA2|52=20180625-15:51:42.491|56=TRAX|10=001|8=FIXT.1.1|9=64|35=0|34=583|49=HEMAMTFRTS27QA2|52=20180625-15:52:12.492|56=TRAX|10=001|8=FIXT.1.1|9=64|35=0|34=584|49=HEMAMTFRTS27QA2|52=20180625-15:52:43.491|56=TRAX|10=005|8=FIXT.1.1|9=64|35=0|34=585|49=HEMAMTFRTS27QA2|52=20180625-15:53:14.485|56=TRAX|10=008|8=FIXT.1.1|9=64|35=0|34=586|49=HEMAMTFRTS27QA2|52=20180625-15:53:44.491|56=TRAX|10=009|8=FIXT.1.1|9=64|35=0|34=587|49=HEMAMTFRTS27QA2|52=20180625-15:54:14.496|56=TRAX|10=013|8=FIXT.1.1|9=64|35=0|34=588|49=HEMAMTFRTS27QA2|52=20180625-15:54:45.488|56=TRAX|10=019|8=FIXT.1.1|9=64|35=0|34=589|49=HEMAMTFRTS27QA2|52=20180625-15:55:15.493|56=TRAX|10=014|8=FIXT.1.1|9=64|35=0|34=590|49=HEMAMTFRTS27QA2|52=20180625-15:55:46.489|56=TRAX|10=015|8=FIXT.1.1|9=64|35=0|34=591|49=HEMAMTFRTS27QA2|52=20180625-15:56:17.488|56=TRAX|10=014|8=FIXT.1.1|9=64|35=0|34=592|49=HEMAMTFRTS27QA2|52=20180625-15:56:48.492|56=TRAX|10=014|8=FIXT.1.1|9=64|35=0|34=593|49=HEMAMTFRTS27QA2|52=20180625-15:57:18.494|56=TRAX|10=015|8=FIXT.1.1|9=64|35=0|34=594|49=HEMAMTFRTS27QA2|52=20180625-15:57:48.494|56=TRAX|10=019|8=FIXT.1.1|9=64|35=0|34=595|49=HEMAMTFRTS27QA2|52=20180625-15:58:19.487|56=TRAX|10=021|8=FIXT.1.1|9=64|35=0|34=596|49=HEMAMTFRTS27QA2|52=20180625-15:58:50.490|56=TRAX|10=011|8=FIXT.1.1|9=64|35=0|34=597|49=HEMAMTFRTS27QA2|52=20180625-15:59:21.486|56=TRAX|10=016|8=FIXT.1.1|9=64|35=0|34=598|49=HEMAMTFRTS27QA2|52=20180625-15:59:52.489|56=TRAX|10=024|8=FIXT.1.1|9=64|35=0|34=599|49=HEMAMTFRTS27QA2|52=20180625-16:00:22.493|56=TRAX|10=004|8=FIXT.1.1|9=64|35=0|34=600|49=HEMAMTFRTS27QA2|52=20180625-16:00:53.486|56=TRAX|10=249|8=FIXT.1.1|9=64|35=0|34=601|49=HEMAMTFRTS27QA2|52=20180625-16:01:23.491|56=TRAX|10=244|8=FIXT.1.1|9=64|35=0|34=602|49=HEMAMTFRTS27QA2|52=20180625-16:01:54.486|56=TRAX|10=253|8=FIXT.1.1|9=64|35=0|34=603|49=HEMAMTFRTS27QA2|52=20180625-16:02:25.485|56=TRAX|10=252|8=FIXT.1.1|9=64|35=0|34=604|49=HEMAMTFRTS27QA2|52=20180625-16:02:56.485|56=TRAX|10=001|8=FIXT.1.1|9=64|35=0|34=605|49=HEMAMTFRTS27QA2|52=20180625-16:03:26.492|56=TRAX|10=254|8=FIXT.1.1|9=64|35=0|34=606|49=HEMAMTFRTS27QA2|52=20180625-16:03:57.485|56=TRAX|10=005|8=FIXT.1.1|9=64|35=0|34=607|49=HEMAMTFRTS27QA2|52=20180625-16:04:27.485|56=TRAX|10=004|8=FIXT.1.1|9=64|35=0|34=608|49=HEMAMTFRTS27QA2|52=20180625-16:04:58.484|56=TRAX|10=008|8=FIXT.1.1|9=64|35=0|34=609|49=HEMAMTFRTS27QA2|52=20180625-16:05:28.487|56=TRAX|10=010|8=FIXT.1.1|9=64|35=0|34=610|49=HEMAMTFRTS27QA2|52=20180625-16:05:59.486|56=TRAX|10=005|8=FIXT.1.1|9=64|35=0|34=611|49=HEMAMTFRTS27QA2|52=20180625-16:06:29.486|56=TRAX|10=004|8=FIXT.1.1|9=64|35=0|34=612|49=HEMAMTFRTS27QA2|52=20180625-16:07:00.476|56=TRAX|10=250|8=FIXT.1.1|9=64|35=0|34=613|49=HEMAMTFRTS27QA2|52=20180625-16:07:30.485|56=TRAX|10=254|8=FIXT.1.1|9=64|35=0|34=614|49=HEMAMTFRTS27QA2|52=20180625-16:08:00.485|56=TRAX|10=253|8=FIXT.1.1|9=64|35=0|34=615|49=HEMAMTFRTS27QA2|52=20180625-16:08:30.797|56=TRAX|10=007|8=FIXT.1.1|9=64|35=0|34=616|49=HEMAMTFRTS27QA2|52=20180625-16:09:01.477|56=TRAX|10=002|8=FIXT.1.1|9=64|35=0|34=617|49=HEMAMTFRTS27QA2|52=20180625-16:09:31.489|56=TRAX|10=009|8=FIXT.1.1|9=64|35=0|34=618|49=HEMAMTFRTS27QA2|52=20180625-16:10:02.481|56=TRAX|10=248|8=FIXT.1.1|9=64|35=0|34=619|49=HEMAMTFRTS27QA2|52=20180625-16:10:32.488|56=TRAX|10=003|8=FIXT.1.1|9=64|35=0|34=620|49=HEMAMTFRTS27QA2|52=20180625-16:11:02.489|56=TRAX|10=250|8=FIXT.1.1|9=64|35=0|34=621|49=HEMAMTFRTS27QA2|52=20180625-16:11:33.481|56=TRAX|10=247|8=FIXT.1.1|9=64|35=0|34=622|49=HEMAMTFRTS27QA2|52=20180625-16:12:03.481|56=TRAX|10=246|8=FIXT.1.1|9=64|35=0|34=623|49=HEMAMTFRTS27QA2|52=20180625-16:12:33.481|56=TRAX|10=250|8=FIXT.1.1|9=64|35=0|34=624|49=HEMAMTFRTS27QA2|52=20180625-16:13:04.488|56=TRAX|10=001|8=FIXT.1.1|9=64|35=0|34=625|49=HEMAMTFRTS27QA2|52=20180625-16:13:35.482|56=TRAX|10=000|8=FIXT.1.1|9=64|35=0|34=626|49=HEMAMTFRTS27QA2|52=20180625-16:14:05.487|56=TRAX|10=004|8=FIXT.1.1|9=64|35=0|34=627|49=HEMAMTFRTS27QA2|52=20180625-16:14:36.473|56=TRAX|10=004|8=FIXT.1.1|9=64|35=0|34=628|49=HEMAMTFRTS27QA2|52=20180625-16:15:06.485|56=TRAX|10=006|8=FIXT.1.1|9=64|35=0|34=629|49=HEMAMTFRTS27QA2|52=20180625-16:15:36.486|56=TRAX|10=011|8=FIXT.1.1|9=64|35=0|34=630|49=HEMAMTFRTS27QA2|52=20180625-16:16:07.487|56=TRAX|10=003|8=FIXT.1.1|9=64|35=0|34=631|49=HEMAMTFRTS27QA2|52=20180625-16:16:38.473|56=TRAX|10=003|8=FIXT.1.1|9=64|35=0|34=632|49=HEMAMTFRTS27QA2|52=20180625-16:17:08.482|56=TRAX|10=002|8=FIXT.1.1|9=64|35=0|34=633|49=HEMAMTFRTS27QA2|52=20180625-16:17:39.485|56=TRAX|10=010|8=FIXT.1.1|9=64|35=0|34=634|49=HEMAMTFRTS27QA2|52=20180625-16:18:10.479|56=TRAX|10=004|8=FIXT.1.1|9=64|35=0|34=635|49=HEMAMTFRTS27QA2|52=20180625-16:18:41.479|56=TRAX|10=009|8=FIXT.1.1|9=64|35=0|34=636|49=HEMAMTFRTS27QA2|52=20180625-16:19:12.472|56=TRAX|10=002|8=FIXT.1.1|9=64|35=0|34=637|49=HEMAMTFRTS27QA2|52=20180625-16:19:43.481|56=TRAX|10=007|8=FIXT.1.1|9=64|35=0|34=638|49=HEMAMTFRTS27QA2|52=20180625-16:20:14.470|56=TRAX|10=252|8=FIXT.1.1|9=64|35=0|34=639|49=HEMAMTFRTS27QA2|52=20180625-16:20:44.481|56=TRAX|10=002|8=FIXT.1.1|9=64|35=0|34=640|49=HEMAMTFRTS27QA2|52=20180625-16:21:15.480|56=TRAX|10=248|8=FIXT.1.1|9=64|35=0|34=641|49=HEMAMTFRTS27QA2|52=20180625-16:21:46.477|56=TRAX|10=003|8=FIXT.1.1|9=64|35=0|34=642|49=HEMAMTFRTS27QA2|52=20180625-16:22:17.478|56=TRAX|10=004|8=FIXT.1.1|9=64|35=0|34=643|49=HEMAMTFRTS27QA2|52=20180625-16:22:48.473|56=TRAX|10=004|8=FIXT.1.1|9=64|35=0|34=644|49=HEMAMTFRTS27QA2|52=20180625-16:23:18.480|56=TRAX|10=001|8=FIXT.1.1|9=64|35=0|34=645|49=HEMAMTFRTS27QA2|52=20180625-16:23:49.476|56=TRAX|10=011|8=FIXT.1.1|9=64|35=0|34=646|49=HEMAMTFRTS27QA2|52=20180625-16:24:20.477|56=TRAX|10=003|8=FIXT.1.1|9=64|35=0|34=647|49=HEMAMTFRTS27QA2|52=20180625-16:24:50.478|56=TRAX|10=008|8=FIXT.1.1|9=64|35=0|34=648|49=HEMAMTFRTS27QA2|52=20180625-16:25:21.475|56=TRAX|10=005|8=FIXT.1.1|9=64|35=0|34=649|49=HEMAMTFRTS27QA2|52=20180625-16:25:52.480|56=TRAX|10=006|8=FIXT.1.1|9=64|35=0|34=650|49=HEMAMTFRTS27QA2|52=20180625-16:26:23.473|56=TRAX|10=255|8=FIXT.1.1|9=64|35=0|34=651|49=HEMAMTFRTS27QA2|52=20180625-16:26:53.475|56=TRAX|10=005|8=FIXT.1.1|9=64|35=0|34=652|49=HEMAMTFRTS27QA2|52=20180625-16:27:23.480|56=TRAX|10=000|8=FIXT.1.1|9=64|35=0|34=653|49=HEMAMTFRTS27QA2|52=20180625-16:27:54.479|56=TRAX|10=013|8=FIXT.1.1|9=64|35=0|34=654|49=HEMAMTFRTS27QA2|52=20180625-16:28:25.472|56=TRAX|10=006|8=FIXT.1.1|9=64|35=0|34=655|49=HEMAMTFRTS27QA2|52=20180625-16:28:55.478|56=TRAX|10=016|8=FIXT.1.1|9=64|35=0|34=656|49=HEMAMTFRTS27QA2|52=20180625-16:29:26.480|56=TRAX|10=009|8=FIXT.1.1|9=64|35=0|34=657|49=HEMAMTFRTS27QA2|52=20180625-16:29:57.475|56=TRAX|10=018|8=FIXT.1.1|9=64|35=0|34=658|49=HEMAMTFRTS27QA2|52=20180625-16:30:27.478|56=TRAX|10=011|8=FIXT.1.1|9=64|35=0|34=659|49=HEMAMTFRTS27QA2|52=20180625-16:30:58.467|56=TRAX|10=014|8=FIXT.1.1|9=64|35=0|34=660|49=HEMAMTFRTS27QA2|52=20180625-16:31:28.474|56=TRAX|10=002|8=FIXT.1.1|9=64|35=0|34=661|49=HEMAMTFRTS27QA2|52=20180625-16:31:58.474|56=TRAX|10=006|8=FIXT.1.1|9=64|35=0|34=662|49=HEMAMTFRTS27QA2|52=20180625-16:32:28.478|56=TRAX|10=009|8=FIXT.1.1|9=64|35=0|34=663|49=HEMAMTFRTS27QA2|52=20180625-16:32:59.466|56=TRAX|10=011|8=FIXT.1.1|9=64|35=0|34=664|49=HEMAMTFRTS27QA2|52=20180625-16:33:29.473|56=TRAX|10=008|8=FIXT.1.1|9=64|35=0|34=665|49=HEMAMTFRTS27QA2|52=20180625-16:33:59.474|56=TRAX|10=013|8=FIXT.1.1|9=64|35=0|34=666|49=HEMAMTFRTS27QA2|52=20180625-16:34:30.474|56=TRAX|10=004|8=FIXT.1.1|9=64|35=0|34=667|49=HEMAMTFRTS27QA2|52=20180625-16:35:00.795|56=TRAX|10=009|8=FIXT.1.1|9=64|35=0|34=668|49=HEMAMTFRTS27QA2|52=20180625-16:35:30.806|56=TRAX|10=006|8=FIXT.1.1|9=64|35=0|34=669|49=HEMAMTFRTS27QA2|52=20180625-16:36:01.473|56=TRAX|10=006|8=FIXT.1.1|9=64|35=0|34=670|49=HEMAMTFRTS27QA2|52=20180625-16:36:32.471|56=TRAX|10=000|8=FIXT.1.1|9=64|35=0|34=671|49=HEMAMTFRTS27QA2|52=20180625-16:37:02.473|56=TRAX|10=001|8=FIXT.1.1|9=64|35=0|34=672|49=HEMAMTFRTS27QA2|52=20180625-16:37:33.471|56=TRAX|10=004|8=FIXT.1.1|9=64|35=0|34=673|49=HEMAMTFRTS27QA2|52=20180625-16:38:04.478|56=TRAX|10=011|8=FIXT.1.1|9=64|35=0|34=674|49=HEMAMTFRTS27QA2|52=20180625-16:38:34.478|56=TRAX|10=015|8=FIXT.1.1|9=64|35=0|34=675|49=HEMAMTFRTS27QA2|52=20180625-16:39:05.471|56=TRAX|10=008|8=FIXT.1.1|9=64|35=0|34=676|49=HEMAMTFRTS27QA2|52=20180625-16:39:36.468|56=TRAX|10=019|8=FIXT.1.1|9=64|35=0|34=677|49=HEMAMTFRTS27QA2|52=20180625-16:40:06.478|56=TRAX|10=010|8=FIXT.1.1|9=64|35=0|34=678|49=HEMAMTFRTS27QA2|52=20180625-16:40:37.470|56=TRAX|10=007|8=FIXT.1.1|9=64|35=0|34=679|49=HEMAMTFRTS27QA2|52=20180625-16:41:08.464|56=TRAX|10=010|8=FIXT.1.1|9=64|35=0|34=680|49=HEMAMTFRTS27QA2|52=20180625-16:41:38.472|56=TRAX|10=004|8=FIXT.1.1|9=64|35=0|34=681|49=HEMAMTFRTS27QA2|52=20180625-16:42:09.470|56=TRAX|10=002|8=FIXT.1.1|9=64|35=0|34=682|49=HEMAMTFRTS27QA2|52=20180625-16:42:39.477|56=TRAX|10=013|8=FIXT.1.1|9=64|35=0|34=683|49=HEMAMTFRTS27QA2|52=20180625-16:43:10.476|56=TRAX|10=003|8=FIXT.1.1|9=64|35=0|34=684|49=HEMAMTFRTS27QA2|52=20180625-16:43:41.470|56=TRAX|10=002|8=FIXT.1.1|9=64|35=0|34=685|49=HEMAMTFRTS27QA2|52=20180625-16:44:12.472|56=TRAX|10=004|8=FIXT.1.1|9=64|35=0|34=686|49=HEMAMTFRTS27QA2|52=20180625-16:44:42.474|56=TRAX|10=010|8=FIXT.1.1|9=64|35=0|34=687|49=HEMAMTFRTS27QA2|52=20180625-16:45:13.471|56=TRAX|10=007|8=FIXT.1.1|9=64|35=0|34=688|49=HEMAMTFRTS27QA2|52=20180625-16:45:43.478|56=TRAX|10=018|8=FIXT.1.1|9=64|35=0|34=689|49=HEMAMTFRTS27QA2|52=20180625-16:46:14.468|56=TRAX|10=017|8=FIXT.1.1|9=64|35=0|34=690|49=HEMAMTFRTS27QA2|52=20180625-16:46:44.472|56=TRAX|10=007|8=FIXT.1.1|9=64|35=0|34=691|49=HEMAMTFRTS27QA2|52=20180625-16:47:15.471|56=TRAX|10=006|8=FIXT.1.1|9=64|35=0|34=692|49=HEMAMTFRTS27QA2|52=20180625-16:47:46.465|56=TRAX|10=014|8=FIXT.1.1|9=64|35=0|34=693|49=HEMAMTFRTS27QA2|52=20180625-16:48:17.469|56=TRAX|10=018|8=FIXT.1.1|9=64|35=0|34=694|49=HEMAMTFRTS27QA2|52=20180625-16:48:47.471|56=TRAX|10=015|8=FIXT.1.1|9=64|35=0|34=695|49=HEMAMTFRTS27QA2|52=20180625-16:49:18.469|56=TRAX|10=022|8=FIXT.1.1|9=64|35=0|34=696|49=HEMAMTFRTS27QA2|52=20180625-16:49:48.476|56=TRAX|10=024|8=FIXT.1.1|9=64|35=0|34=697|49=HEMAMTFRTS27QA2|52=20180625-16:50:19.474|56=TRAX|10=013|8=FIXT.1.1|9=64|35=0|34=698|49=HEMAMTFRTS27QA2|52=20180625-16:50:50.473|56=TRAX|10=008|8=FIXT.1.1|9=64|35=0|34=699|49=HEMAMTFRTS27QA2|52=20180625-16:51:21.470|56=TRAX|10=005|8=FIXT.1.1|9=64|35=0|34=700|49=HEMAMTFRTS27QA2|52=20180625-16:51:52.475|56=TRAX|10=253|8=FIXT.1.1|9=64|35=0|34=701|49=HEMAMTFRTS27QA2|52=20180625-16:52:23.471|56=TRAX|10=249|8=FIXT.1.1|9=64|35=0|34=702|49=HEMAMTFRTS27QA2|52=20180625-16:52:54.460|56=TRAX|10=252|8=FIXT.1.1|9=64|35=0|34=703|49=HEMAMTFRTS27QA2|52=20180625-16:53:24.467|56=TRAX|10=002|8=FIXT.1.1|9=64|35=0|34=704|49=HEMAMTFRTS27QA2|52=20180625-16:53:54.474|56=TRAX|10=004|8=FIXT.1.1|9=64|35=0|34=705|49=HEMAMTFRTS27QA2|52=20180625-16:54:25.466|56=TRAX|10=005|8=FIXT.1.1|9=64|35=0|34=706|49=HEMAMTFRTS27QA2|52=20180625-16:54:56.466|56=TRAX|10=010|8=FIXT.1.1|9=64|35=0|34=707|49=HEMAMTFRTS27QA2|52=20180625-16:55:26.472|56=TRAX|10=006|8=FIXT.1.1|9=64|35=0|34=708|49=HEMAMTFRTS27QA2|52=20180625-16:55:57.466|56=TRAX|10=014|8=FIXT.1.1|9=64|35=0|34=709|49=HEMAMTFRTS27QA2|52=20180625-16:56:27.469|56=TRAX|10=016|8=FIXT.1.1|9=64|35=0|34=710|49=HEMAMTFRTS27QA2|52=20180625-16:56:58.466|56=TRAX|10=009|8=FIXT.1.1|9=64|35=0|34=711|49=HEMAMTFRTS27QA2|52=20180625-16:57:28.468|56=TRAX|10=010|8=FIXT.1.1|9=64|35=0|34=712|49=HEMAMTFRTS27QA2|52=20180625-16:57:59.469|56=TRAX|10=016|8=FIXT.1.1|9=64|35=0|34=713|49=HEMAMTFRTS27QA2|52=20180625-16:58:30.472|56=TRAX|10=001|8=FIXT.1.1|9=64|35=0|34=714|49=HEMAMTFRTS27QA2|52=20180625-16:59:00.799|56=TRAX|10=012|8=FIXT.1.1|9=64|35=0|34=715|49=HEMAMTFRTS27QA2|52=20180625-16:59:30.802|56=TRAX|10=001|8=FIXT.1.1|9=64|35=0|34=716|49=HEMAMTFRTS27QA2|52=20180625-17:00:01.464|56=TRAX|10=247|8=FIXT.1.1|9=64|35=0|34=717|49=HEMAMTFRTS27QA2|52=20180625-17:00:31.465|56=TRAX|10=252|8=FIXT.1.1|9=64|35=0|34=718|49=HEMAMTFRTS27QA2|52=20180625-17:01:02.457|56=TRAX|10=253|8=FIXT.1.1|9=64|35=0|34=719|49=HEMAMTFRTS27QA2|52=20180625-17:01:32.466|56=TRAX|10=001|8=FIXT.1.1|9=64|35=0|34=720|49=HEMAMTFRTS27QA2|52=20180625-17:02:03.456|56=TRAX|10=247|8=FIXT.1.1|9=64|35=0|34=721|49=HEMAMTFRTS27QA2|52=20180625-17:02:33.464|56=TRAX|10=250|8=FIXT.1.1|9=64|35=0|34=722|49=HEMAMTFRTS27QA2|52=20180625-17:03:03.465|56=TRAX|10=250|8=FIXT.1.1|9=64|35=0|34=723|49=HEMAMTFRTS27QA2|52=20180625-17:03:34.463|56=TRAX|10=253|8=FIXT.1.1|9=64|35=0|34=724|49=HEMAMTFRTS27QA2|52=20180625-17:04:05.463|56=TRAX|10=253|8=FIXT.1.1|9=64|35=0|34=725|49=HEMAMTFRTS27QA2|52=20180625-17:04:35.467|56=TRAX|10=005|8=FIXT.1.1|9=64|35=0|34=726|49=HEMAMTFRTS27QA2|52=20180625-17:05:06.459|56=TRAX|10=006|8=FIXT.1.1|9=64|35=0|34=727|49=HEMAMTFRTS27QA2|52=20180625-17:05:36.462|56=TRAX|10=004|8=FIXT.1.1|9=64|35=0|34=728|49=HEMAMTFRTS27QA2|52=20180625-17:06:07.462|56=TRAX|10=004|8=FIXT.1.1|9=64|35=0|34=729|49=HEMAMTFRTS27QA2|52=20180625-17:06:37.463|56=TRAX|10=009|8=FIXT.1.1|9=64|35=0|34=730|49=HEMAMTFRTS27QA2|52=20180625-17:07:07.465|56=TRAX|10=001|8=FIXT.1.1|9=64|35=0|34=731|49=HEMAMTFRTS27QA2|52=20180625-17:07:38.467|56=TRAX|10=008|8=FIXT.1.1|9=64|35=0|34=732|49=HEMAMTFRTS27QA2|52=20180625-17:08:09.462|56=TRAX|10=003|8=FIXT.1.1|9=64|35=0|34=733|49=HEMAMTFRTS27QA2|52=20180625-17:08:39.467|56=TRAX|10=012|8=FIXT.1.1|9=64|35=0|34=734|49=HEMAMTFRTS27QA2|52=20180625-17:09:10.463|56=TRAX|10=255|8=FIXT.1.1|9=64|35=0|34=735|49=HEMAMTFRTS27QA2|52=20180625-17:09:40.465|56=TRAX|10=005|8=FIXT.1.1|9=64|35=0|34=736|49=HEMAMTFRTS27QA2|52=20180625-17:10:11.461|56=TRAX|10=248|8=FIXT.1.1|9=64|35=0|34=737|49=HEMAMTFRTS27QA2|52=20180625-17:10:42.460|56=TRAX|10=252|8=FIXT.1.1|9=64|35=0|34=738|49=HEMAMTFRTS27QA2|52=20180625-17:11:12.466|56=TRAX|10=001|8=FIXT.1.1|9=64|35=0|34=739|49=HEMAMTFRTS27QA2|52=20180625-17:11:43.459|56=TRAX|10=008|8=FIXT.1.1|9=64|35=0|34=740|49=HEMAMTFRTS27QA2|52=20180625-17:12:14.460|56=TRAX|10=247|8=FIXT.1.1|9=64|35=0|34=741|49=HEMAMTFRTS27QA2|52=20180625-17:12:45.459|56=TRAX|10=004|8=FIXT.1.1|9=64|35=0|34=742|49=HEMAMTFRTS27QA2|52=20180625-17:13:15.461|56=TRAX|10=252|8=FIXT.1.1|9=64|35=0|34=743|49=HEMAMTFRTS27QA2|52=20180625-17:13:46.463|56=TRAX|10=003|8=FIXT.1.1|9=64|35=0|34=744|49=HEMAMTFRTS27QA2|52=20180625-17:14:17.461|56=TRAX|10=001|8=FIXT.1.1|9=64|35=0|34=745|49=HEMAMTFRTS27QA2|52=20180625-17:14:48.456|56=TRAX|10=010|8=FIXT.1.1|9=64|35=0|34=746|49=HEMAMTFRTS27QA2|52=20180625-17:15:18.456|56=TRAX|10=009|8=FIXT.1.1|9=64|35=0|34=747|49=HEMAMTFRTS27QA2|52=20180625-17:15:48.461|56=TRAX|10=009|8=FIXT.1.1|9=64|35=0|34=748|49=HEMAMTFRTS27QA2|52=20180625-17:16:19.465|56=TRAX|10=013|8=FIXT.1.1|9=64|35=0|34=749|49=HEMAMTFRTS27QA2|52=20180625-17:16:50.459|56=TRAX|10=012|8=FIXT.1.1|9=64|35=0|34=750|49=HEMAMTFRTS27QA2|52=20180625-17:17:20.463|56=TRAX|10=253|8=FIXT.1.1|9=64|35=0|34=751|49=HEMAMTFRTS27QA2|52=20180625-17:17:51.457|56=TRAX|10=005|8=FIXT.1.1|9=64|35=0|34=752|49=HEMAMTFRTS27QA2|52=20180625-17:18:21.458|56=TRAX|10=005|8=FIXT.1.1|9=64|35=0|34=753|49=HEMAMTFRTS27QA2|52=20180625-17:18:51.460|56=TRAX|10=002|8=FIXT.1.1|9=64|35=0|34=754|49=HEMAMTFRTS27QA2|52=20180625-17:19:22.450|56=TRAX|10=001|8=FIXT.1.1|9=64|35=0|34=755|49=HEMAMTFRTS27QA2|52=20180625-17:19:52.455|56=TRAX|10=010|8=FIXT.1.1|9=64|35=0|34=756|49=HEMAMTFRTS27QA2|52=20180625-17:20:23.460|56=TRAX|10=253|8=FIXT.1.1|9=64|35=0|34=757|49=HEMAMTFRTS27QA2|52=20180625-17:20:54.459|56=TRAX|10=010|8=FIXT.1.1|9=64|35=0|34=758|49=HEMAMTFRTS27QA2|52=20180625-17:21:24.461|56=TRAX|10=002|8=FIXT.1.1|9=64|35=0|34=759|49=HEMAMTFRTS27QA2|52=20180625-17:21:54.461|56=TRAX|10=006|8=FIXT.1.1|9=64|35=0|34=760|49=HEMAMTFRTS27QA2|52=20180625-17:22:24.463|56=TRAX|10=254|8=FIXT.1.1|9=64|35=0|34=761|49=HEMAMTFRTS27QA2|52=20180625-17:22:55.449|56=TRAX|10=007|8=FIXT.1.1|9=64|35=0|34=762|49=HEMAMTFRTS27QA2|52=20180625-17:23:25.457|56=TRAX|10=005|8=FIXT.1.1|9=64|35=0|34=763|49=HEMAMTFRTS27QA2|52=20180625-17:23:56.458|56=TRAX|10=011|8=FIXT.1.1|9=64|35=0|34=764|49=HEMAMTFRTS27QA2|52=20180625-17:24:27.454|56=TRAX|10=007|8=FIXT.1.1|9=64|35=0|34=765|49=HEMAMTFRTS27QA2|52=20180625-17:24:57.455|56=TRAX|10=012|8=FIXT.1.1|9=64|35=0|34=766|49=HEMAMTFRTS27QA2|52=20180625-17:25:27.459|56=TRAX|10=015|8=FIXT.1.1|9=64|35=0|34=767|49=HEMAMTFRTS27QA2|52=20180625-17:25:58.462|56=TRAX|10=014|8=FIXT.1.1|9=64|35=0|34=768|49=HEMAMTFRTS27QA2|52=20180625-17:26:29.455|56=TRAX|10=016|8=FIXT.1.1|9=64|35=0|34=769|49=HEMAMTFRTS27QA2|52=20180625-17:27:00.455|56=TRAX|10=007|8=FIXT.1.1|9=64|35=0|34=770|49=HEMAMTFRTS27QA2|52=20180625-17:27:31.461|56=TRAX|10=000|8=FIXT.1.1|9=64|35=0|34=771|49=HEMAMTFRTS27QA2|52=20180625-17:28:01.798|56=TRAX|10=012|8=FIXT.1.1|9=64|35=0|34=772|49=HEMAMTFRTS27QA2|52=20180625-17:28:31.806|56=TRAX|10=006|8=FIXT.1.1|9=64|35=0|34=773|49=HEMAMTFRTS27QA2|52=20180625-17:29:02.458|56=TRAX|10=009|8=FIXT.1.1|9=64|35=0|34=774|49=HEMAMTFRTS27QA2|52=20180625-17:29:32.458|56=TRAX|10=013|8=FIXT.1.1|9=64|35=0|34=775|49=HEMAMTFRTS27QA2|52=20180625-17:30:03.456|56=TRAX|10=002|8=FIXT.1.1|9=64|35=0|34=776|49=HEMAMTFRTS27QA2|52=20180625-17:30:33.460|56=TRAX|10=001|8=FIXT.1.1|9=64|35=0|34=777|49=HEMAMTFRTS27QA2|52=20180625-17:31:04.446|56=TRAX|10=005|8=FIXT.1.1|9=64|35=0|34=778|49=HEMAMTFRTS27QA2|52=20180625-17:31:34.452|56=TRAX|10=006|8=FIXT.1.1|9=64|35=0|34=779|49=HEMAMTFRTS27QA2|52=20180625-17:32:05.453|56=TRAX|10=007|8=FIXT.1.1|9=64|35=0|34=780|49=HEMAMTFRTS27QA2|52=20180625-17:32:36.449|56=TRAX|10=008|8=FIXT.1.1|9=64|35=0|34=781|49=HEMAMTFRTS27QA2|52=20180625-17:33:06.449|56=TRAX|10=007|8=FIXT.1.1|9=64|35=0|34=782|49=HEMAMTFRTS27QA2|52=20180625-17:33:36.458|56=TRAX|10=011|8=FIXT.1.1|9=64|35=0|34=783|49=HEMAMTFRTS27QA2|52=20180625-17:34:07.444|56=TRAX|10=006|8=FIXT.1.1|9=64|35=0|34=784|49=HEMAMTFRTS27QA2|52=20180625-17:34:37.452|56=TRAX|10=009|8=FIXT.1.1|9=64|35=0|34=785|49=HEMAMTFRTS27QA2|52=20180625-17:35:07.457|56=TRAX|10=013|8=FIXT.1.1|9=64|35=0|34=786|49=HEMAMTFRTS27QA2|52=20180625-17:35:38.451|56=TRAX|10=012|8=FIXT.1.1|9=64|35=0|34=787|49=HEMAMTFRTS27QA2|52=20180625-17:36:08.455|56=TRAX|10=015|8=FIXT.1.1|9=64|35=0|34=788|49=HEMAMTFRTS27QA2|52=20180625-17:36:39.444|56=TRAX|10=018|8=FIXT.1.1|9=64|35=0|34=789|49=HEMAMTFRTS27QA2|52=20180625-17:37:09.452|56=TRAX|10=016|8=FIXT.1.1|9=64|35=0|34=790|49=HEMAMTFRTS27QA2|52=20180625-17:37:39.458|56=TRAX|10=017|8=FIXT.1.1|9=64|35=0|34=791|49=HEMAMTFRTS27QA2|52=20180625-17:38:10.450|56=TRAX|10=000|8=FIXT.1.1|9=64|35=0|34=792|49=HEMAMTFRTS27QA2|52=20180625-17:38:40.451|56=TRAX|10=005|8=FIXT.1.1|9=64|35=0|34=793|49=HEMAMTFRTS27QA2|52=20180625-17:39:11.449|56=TRAX|10=012|8=FIXT.1.1|9=64|35=0|34=794|49=HEMAMTFRTS27QA2|52=20180625-17:39:41.450|56=TRAX|10=008|8=FIXT.1.1|9=64|35=0|34=795|49=HEMAMTFRTS27QA2|52=20180625-17:40:11.455|56=TRAX|10=003|8=FIXT.1.1|9=64|35=0|34=796|49=HEMAMTFRTS27QA2|52=20180625-17:40:42.456|56=TRAX|10=009|8=FIXT.1.1|9=64|35=0|34=797|49=HEMAMTFRTS27QA2|52=20180625-17:41:13.449|56=TRAX|10=011|8=FIXT.1.1|9=64|35=0|34=798|49=HEMAMTFRTS27QA2|52=20180625-17:41:43.449|56=TRAX|10=015|8=FIXT.1.1|9=64|35=0|34=799|49=HEMAMTFRTS27QA2|52=20180625-17:42:13.449|56=TRAX|10=014|8=FIXT.1.1|9=64|35=0|34=800|49=HEMAMTFRTS27QA2|52=20180625-17:42:43.452|56=TRAX|10=250|8=FIXT.1.1|9=64|35=0|34=801|49=HEMAMTFRTS27QA2|52=20180625-17:43:14.449|56=TRAX|10=000|8=FIXT.1.1|9=64|35=0|34=802|49=HEMAMTFRTS27QA2|52=20180625-17:43:44.449|56=TRAX|10=004|8=FIXT.1.1|9=64|35=0|34=803|49=HEMAMTFRTS27QA2|52=20180625-17:44:15.452|56=TRAX|10=254|8=FIXT.1.1|9=64|35=0|34=804|49=HEMAMTFRTS27QA2|52=20180625-17:44:46.444|56=TRAX|10=004|8=FIXT.1.1|9=64|35=0|34=805|49=HEMAMTFRTS27QA2|52=20180625-17:45:16.455|56=TRAX|10=005|8=FIXT.1.1|9=64|35=0|34=806|49=HEMAMTFRTS27QA2|52=20180625-17:45:47.453|56=TRAX|10=008|8=FIXT.1.1|9=64|35=0|34=807|49=HEMAMTFRTS27QA2|52=20180625-17:46:18.447|56=TRAX|10=011|8=FIXT.1.1|9=64|35=0|34=808|49=HEMAMTFRTS27QA2|52=20180625-17:46:48.447|56=TRAX|10=015|8=FIXT.1.1|9=64|35=0|34=809|49=HEMAMTFRTS27QA2|52=20180625-17:47:19.446|56=TRAX|10=014|8=FIXT.1.1|9=64|35=0|34=810|49=HEMAMTFRTS27QA2|52=20180625-17:47:49.446|56=TRAX|10=009|8=FIXT.1.1|9=64|35=0|34=811|49=HEMAMTFRTS27QA2|52=20180625-17:48:19.447|56=TRAX|10=009|8=FIXT.1.1|9=64|35=0|34=812|49=HEMAMTFRTS27QA2|52=20180625-17:48:50.444|56=TRAX|10=002|8=FIXT.1.1|9=64|35=0|34=813|49=HEMAMTFRTS27QA2|52=20180625-17:49:20.452|56=TRAX|10=000|8=FIXT.1.1|9=64|35=0|34=814|49=HEMAMTFRTS27QA2|52=20180625-17:49:50.453|56=TRAX|10=005|8=FIXT.1.1|9=64|35=0|34=815|49=HEMAMTFRTS27QA2|52=20180625-17:50:21.438|56=TRAX|10=255|8=FIXT.1.1|9=64|35=0|34=816|49=HEMAMTFRTS27QA2|52=20180625-17:50:51.444|56=TRAX|10=000|8=FIXT.1.1|9=64|35=0|34=817|49=HEMAMTFRTS27QA2|52=20180625-17:51:21.445|56=TRAX|10=000|8=FIXT.1.1|9=64|35=0|34=818|49=HEMAMTFRTS27QA2|52=20180625-17:51:52.444|56=TRAX|10=004|8=FIXT.1.1|9=64|35=0|34=819|49=HEMAMTFRTS27QA2|52=20180625-17:52:23.438|56=TRAX|10=007|8=FIXT.1.1|9=64|35=0|34=820|49=HEMAMTFRTS27QA2|52=20180625-17:52:53.444|56=TRAX|10=255|8=FIXT.1.1|9=64|35=0|34=821|49=HEMAMTFRTS27QA2|52=20180625-17:53:23.449|56=TRAX|10=003|8=FIXT.1.1|9=64|35=0|34=822|49=HEMAMTFRTS27QA2|52=20180625-17:53:54.444|56=TRAX|10=003|8=FIXT.1.1|9=64|35=0|34=823|49=HEMAMTFRTS27QA2|52=20180625-17:54:24.444|56=TRAX|10=002|8=FIXT.1.1|9=64|35=0|34=824|49=HEMAMTFRTS27QA2|52=20180625-17:54:55.442|56=TRAX|10=005|8=FIXT.1.1|9=64|35=0|34=825|49=HEMAMTFRTS27QA2|52=20180625-17:55:25.443|56=TRAX|10=005|8=FIXT.1.1|9=64|35=0|34=826|49=HEMAMTFRTS27QA2|52=20180625-17:55:55.445|56=TRAX|10=011|8=FIXT.1.1|9=64|35=0|34=827|49=HEMAMTFRTS27QA2|52=20180625-17:56:26.440|56=TRAX|10=006|8=FIXT.1.1|9=64|35=0|34=828|49=HEMAMTFRTS27QA2|52=20180625-17:56:56.440|56=TRAX|10=010|8=FIXT.1.1|9=64|35=0|34=829|49=HEMAMTFRTS27QA2|52=20180625-17:57:26.447|56=TRAX|10=016|8=FIXT.1.1|9=64|35=0|34=830|49=HEMAMTFRTS27QA2|52=20180625-17:57:57.437|56=TRAX|10=011|8=FIXT.1.1|9=64|35=0|34=831|49=HEMAMTFRTS27QA2|52=20180625-17:58:27.447|56=TRAX|10=011|8=FIXT.1.1|9=64|35=0|34=832|49=HEMAMTFRTS27QA2|52=20180625-17:58:57.448|56=TRAX|10=016|8=FIXT.1.1|9=64|35=0|34=833|49=HEMAMTFRTS27QA2|52=20180625-17:59:28.443|56=TRAX|10=011|8=FIXT.1.1|9=64|35=0|34=834|49=HEMAMTFRTS27QA2|52=20180625-17:59:58.443|56=TRAX|10=015|8=FIXT.1.1|9=64|35=0|34=835|49=HEMAMTFRTS27QA2|52=20180625-18:00:28.445|56=TRAX|10=002|8=FIXT.1.1|9=64|35=0|34=836|49=HEMAMTFRTS27QA2|52=20180625-18:00:59.435|56=TRAX|10=006|8=FIXT.1.1|9=64|35=0|34=837|49=HEMAMTFRTS27QA2|52=20180625-18:01:29.435|56=TRAX|10=005|8=FIXT.1.1|9=64|35=0|34=838|49=HEMAMTFRTS27QA2|52=20180625-18:01:59.448|56=TRAX|10=013|8=FIXT.1.1|9=64|35=0|34=839|49=HEMAMTFRTS27QA2|52=20180625-18:02:30.443|56=TRAX|10=255|8=FIXT.1.1|9=64|35=0|34=840|49=HEMAMTFRTS27QA2|52=20180625-18:03:00.444|56=TRAX|10=246|8=FIXT.1.1|9=64|35=0|34=841|49=HEMAMTFRTS27QA2|52=20180625-18:03:31.435|56=TRAX|10=251|8=FIXT.1.1|9=64|35=0|34=842|49=HEMAMTFRTS27QA2|52=20180625-18:04:01.440|56=TRAX|10=246|8=FIXT.1.1|9=64|35=0|34=843|49=HEMAMTFRTS27QA2|52=20180625-18:04:31.440|56=TRAX|10=250|8=FIXT.1.1|9=64|35=0|34=844|49=HEMAMTFRTS27QA2|52=20180625-18:05:01.440|56=TRAX|10=249|8=FIXT.1.1|9=64|35=0|34=845|49=HEMAMTFRTS27QA2|52=20180625-18:05:31.444|56=TRAX|10=001|8=FIXT.1.1|9=64|35=0|34=846|49=HEMAMTFRTS27QA2|52=20180625-18:06:01.799|56=TRAX|10=013|8=FIXT.1.1|9=64|35=0|34=847|49=HEMAMTFRTS27QA2|52=20180625-18:06:32.438|56=TRAX|10=008|8=FIXT.1.1|9=64|35=0|34=848|49=HEMAMTFRTS27QA2|52=20180625-18:07:02.442|56=TRAX|10=002|8=FIXT.1.1|9=64|35=0|34=849|49=HEMAMTFRTS27QA2|52=20180625-18:07:32.446|56=TRAX|10=010|8=FIXT.1.1|9=64|35=0|34=850|49=HEMAMTFRTS27QA2|52=20180625-18:08:03.440|56=TRAX|10=251|8=FIXT.1.1|9=64|35=0|34=851|49=HEMAMTFRTS27QA2|52=20180625-18:08:33.440|56=TRAX|10=255|8=FIXT.1.1|9=64|35=0|34=852|49=HEMAMTFRTS27QA2|52=20180625-18:09:03.446|56=TRAX|10=004|8=FIXT.1.1|9=64|35=0|34=853|49=HEMAMTFRTS27QA2|52=20180625-18:09:34.443|56=TRAX|10=006|8=FIXT.1.1|9=64|35=0|34=854|49=HEMAMTFRTS27QA2|52=20180625-18:10:05.439|56=TRAX|10=002|8=FIXT.1.1|9=64|35=0|34=855|49=HEMAMTFRTS27QA2|52=20180625-18:10:36.433|56=TRAX|10=001|8=FIXT.1.1|9=64|35=0|34=856|49=HEMAMTFRTS27QA2|52=20180625-18:11:06.445|56=TRAX|10=003|8=FIXT.1.1|9=64|35=0|34=857|49=HEMAMTFRTS27QA2|52=20180625-18:11:37.437|56=TRAX|10=009|8=FIXT.1.1|9=64|35=0|34=858|49=HEMAMTFRTS27QA2|52=20180625-18:12:08.436|56=TRAX|10=008|8=FIXT.1.1|9=64|35=0|34=859|49=HEMAMTFRTS27QA2|52=20180625-18:12:38.445|56=TRAX|10=012|8=FIXT.1.1|9=64|35=0|34=860|49=HEMAMTFRTS27QA2|52=20180625-18:13:08.445|56=TRAX|10=002|8=FIXT.1.1|9=64|35=0|34=861|49=HEMAMTFRTS27QA2|52=20180625-18:13:39.429|56=TRAX|10=009|8=FIXT.1.1|9=64|35=0|34=862|49=HEMAMTFRTS27QA2|52=20180625-18:14:09.436|56=TRAX|10=006|8=FIXT.1.1|9=64|35=0|34=863|49=HEMAMTFRTS27QA2|52=20180625-18:14:39.436|56=TRAX|10=010|8=FIXT.1.1|9=64|35=0|34=864|49=HEMAMTFRTS27QA2|52=20180625-18:15:09.436|56=TRAX|10=009|8=FIXT.1.1|9=64|35=0|34=865|49=HEMAMTFRTS27QA2|52=20180625-18:15:40.443|56=TRAX|10=003|8=FIXT.1.1|9=64|35=0|34=866|49=HEMAMTFRTS27QA2|52=20180625-18:16:11.428|56=TRAX|10=006|8=FIXT.1.1|9=64|35=0|34=867|49=HEMAMTFRTS27QA2|52=20180625-18:16:41.435|56=TRAX|10=008|8=FIXT.1.1|9=64|35=0|34=868|49=HEMAMTFRTS27QA2|52=20180625-18:17:11.442|56=TRAX|10=005|8=FIXT.1.1|9=64|35=0|34=869|49=HEMAMTFRTS27QA2|52=20180625-18:17:42.431|56=TRAX|10=008|8=FIXT.1.1|9=64|35=0|34=870|49=HEMAMTFRTS27QA2|52=20180625-18:18:12.440|56=TRAX|10=254|8=FIXT.1.1|9=64|35=0|34=871|49=HEMAMTFRTS27QA2|52=20180625-18:18:43.436|56=TRAX|10=008|8=FIXT.1.1|9=64|35=0|34=872|49=HEMAMTFRTS27QA2|52=20180625-18:19:14.432|56=TRAX|10=004|8=FIXT.1.1|9=64|35=0|34=873|49=HEMAMTFRTS27QA2|52=20180625-18:19:45.437|56=TRAX|10=014|8=FIXT.1.1|9=64|35=0|34=874|49=HEMAMTFRTS27QA2|52=20180625-18:20:15.437|56=TRAX|10=004|8=FIXT.1.1|9=64|35=0|34=875|49=HEMAMTFRTS27QA2|52=20180625-18:20:46.430|56=TRAX|10=002|8=FIXT.1.1|9=64|35=0|34=876|49=HEMAMTFRTS27QA2|52=20180625-18:21:16.439|56=TRAX|10=010|8=FIXT.1.1|9=64|35=0|34=877|49=HEMAMTFRTS27QA2|52=20180625-18:21:47.441|56=TRAX|10=008|8=FIXT.1.1|9=64|35=0|34=878|49=HEMAMTFRTS27QA2|52=20180625-18:22:18.436|56=TRAX|10=012|8=FIXT.1.1|9=64|35=0|34=879|49=HEMAMTFRTS27QA2|52=20180625-18:22:49.433|56=TRAX|10=014|8=FIXT.1.1|9=64|35=0|34=880|49=HEMAMTFRTS27QA2|52=20180625-18:23:19.437|56=TRAX|10=008|8=FIXT.1.1|9=64|35=0|34=881|49=HEMAMTFRTS27QA2|52=20180625-18:23:50.425|56=TRAX|10=001|8=FIXT.1.1|9=64|35=0|34=882|49=HEMAMTFRTS27QA2|52=20180625-18:24:20.432|56=TRAX|10=254|8=FIXT.1.1|9=64|35=0|34=883|49=HEMAMTFRTS27QA2|52=20180625-18:24:50.440|56=TRAX|10=001|8=FIXT.1.1|9=64|35=0|34=884|49=HEMAMTFRTS27QA2|52=20180625-18:25:21.432|56=TRAX|10=002|8=FIXT.1.1|9=64|35=0|34=885|49=HEMAMTFRTS27QA2|52=20180625-18:25:52.425|56=TRAX|10=009|8=FIXT.1.1|9=64|35=0|34=886|49=HEMAMTFRTS27QA2|52=20180625-18:26:22.435|56=TRAX|10=009|8=FIXT.1.1|9=64|35=0|34=887|49=HEMAMTFRTS27QA2|52=20180625-18:26:52.438|56=TRAX|10=016|8=FIXT.1.1|9=64|35=0|34=888|49=HEMAMTFRTS27QA2|52=20180625-18:27:23.439|56=TRAX|10=017|8=FIXT.1.1|9=64|35=0|34=889|49=HEMAMTFRTS27QA2|52=20180625-18:27:54.431|56=TRAX|10=014|8=FIXT.1.1|9=64|35=0|34=890|49=HEMAMTFRTS27QA2|52=20180625-18:28:24.434|56=TRAX|10=007|8=FIXT.1.1|9=64|35=0|34=891|49=HEMAMTFRTS27QA2|52=20180625-18:28:54.435|56=TRAX|10=012|8=FIXT.1.1|9=64|35=0|34=892|49=HEMAMTFRTS27QA2|52=20180625-18:29:25.424|56=TRAX|10=010|8=FIXT.1.1|9=64|35=0|34=893|49=HEMAMTFRTS27QA2|52=20180625-18:29:55.424|56=TRAX|10=014|8=FIXT.1.1|9=64|35=0|34=894|49=HEMAMTFRTS27QA2|52=20180625-18:30:25.431|56=TRAX|10=002|8=FIXT.1.1|9=64|35=0|34=895|49=HEMAMTFRTS27QA2|52=20180625-18:30:55.435|56=TRAX|10=010|8=FIXT.1.1|9=64|35=0|34=896|49=HEMAMTFRTS27QA2|52=20180625-18:31:26.437|56=TRAX|10=012|8=FIXT.1.1|9=64|35=0|34=897|49=HEMAMTFRTS27QA2|52=20180625-18:31:57.431|56=TRAX|10=011|8=FIXT.1.1|9=64|35=0|34=898|49=HEMAMTFRTS27QA2|52=20180625-18:32:27.437|56=TRAX|10=016|8=FIXT.1.1|9=64|35=0|34=899|49=HEMAMTFRTS27QA2|52=20180625-18:32:58.437|56=TRAX|10=021|8=FIXT.1.1|9=64|35=0|34=900|49=HEMAMTFRTS27QA2|52=20180625-18:33:28.437|56=TRAX|10=002|8=FIXT.1.1|9=64|35=0|34=901|49=HEMAMTFRTS27QA2|52=20180625-18:33:59.431|56=TRAX|10=001|8=FIXT.1.1|9=64|35=0|34=902|49=HEMAMTFRTS27QA2|52=20180625-18:34:30.428|56=TRAX|10=254|8=FIXT.1.1|9=64|35=0|34=903|49=HEMAMTFRTS27QA2|52=20180625-18:35:01.430|56=TRAX|10=247|8=FIXT.1.1|9=64|35=0|34=904|49=HEMAMTFRTS27QA2|52=20180625-18:35:31.435|56=TRAX|10=000|8=FIXT.1.1|9=64|35=0|34=905|49=HEMAMTFRTS27QA2|52=20180625-18:36:02.433|56=TRAX|10=254|8=FIXT.1.1|9=64|35=0|34=906|49=HEMAMTFRTS27QA2|52=20180625-18:36:32.788|56=TRAX|10=015|8=FIXT.1.1|9=64|35=0|34=907|49=HEMAMTFRTS27QA2|52=20180625-18:37:02.797|56=TRAX|10=014|8=FIXT.1.1|9=64|35=0|34=908|49=HEMAMTFRTS27QA2|52=20180625-18:37:33.428|56=TRAX|10=010|8=FIXT.1.1|9=64|35=0|34=909|49=HEMAMTFRTS27QA2|52=20180625-18:38:04.428|56=TRAX|10=010|8=FIXT.1.1|9=64|35=0|34=910|49=HEMAMTFRTS27QA2|52=20180625-18:38:35.431|56=TRAX|10=000|8=FIXT.1.1|9=64|35=0|34=911|49=HEMAMTFRTS27QA2|52=20180625-18:39:06.421|56=TRAX|10=255|8=FIXT.1.1|9=64|35=0|34=912|49=HEMAMTFRTS27QA2|52=20180625-18:39:36.427|56=TRAX|10=009|8=FIXT.1.1|9=64|35=0|34=913|49=HEMAMTFRTS27QA2|52=20180625-18:40:06.436|56=TRAX|10=255|8=FIXT.1.1|9=64|35=0|34=914|49=HEMAMTFRTS27QA2|52=20180625-18:40:37.434|56=TRAX|10=002|8=FIXT.1.1|9=64|35=0|34=915|49=HEMAMTFRTS27QA2|52=20180625-18:41:08.430|56=TRAX|10=254|8=FIXT.1.1|9=64|35=0|34=916|49=HEMAMTFRTS27QA2|52=20180625-18:41:39.435|56=TRAX|10=008|8=FIXT.1.1|9=64|35=0|34=917|49=HEMAMTFRTS27QA2|52=20180625-18:42:10.432|56=TRAX|10=252|8=FIXT.1.1|9=64|35=0|34=918|49=HEMAMTFRTS27QA2|52=20180625-18:42:40.433|56=TRAX|10=001|8=FIXT.1.1|9=64|35=0|34=919|49=HEMAMTFRTS27QA2|52=20180625-18:43:11.426|56=TRAX|10=003|8=FIXT.1.1|9=64|35=0|34=920|49=HEMAMTFRTS27QA2|52=20180625-18:43:41.427|56=TRAX|10=255|8=FIXT.1.1|9=64|35=0|34=921|49=HEMAMTFRTS27QA2|52=20180625-18:44:12.431|56=TRAX|10=250|8=FIXT.1.1|9=64|35=0|34=922|49=HEMAMTFRTS27QA2|52=20180625-18:44:43.432|56=TRAX|10=000|8=FIXT.1.1|9=64|35=0|34=923|49=HEMAMTFRTS27QA2|52=20180625-18:45:14.426|56=TRAX|10=003|8=FIXT.1.1|9=64|35=0|34=924|49=HEMAMTFRTS27QA2|52=20180625-18:45:45.431|56=TRAX|10=004|8=FIXT.1.1|9=64|35=0|34=925|49=HEMAMTFRTS27QA2|52=20180625-18:46:15.431|56=TRAX|10=003|8=FIXT.1.1|9=64|35=0|34=926|49=HEMAMTFRTS27QA2|52=20180625-18:46:46.421|56=TRAX|10=007|8=FIXT.1.1|9=64|35=0|34=927|49=HEMAMTFRTS27QA2|52=20180625-18:47:16.433|56=TRAX|10=009|8=FIXT.1.1|9=64|35=0|34=928|49=HEMAMTFRTS27QA2|52=20180625-18:47:47.433|56=TRAX|10=014|8=FIXT.1.1|9=64|35=0|34=929|49=HEMAMTFRTS27QA2|52=20180625-18:48:18.428|56=TRAX|10=018|8=FIXT.1.1|9=64|35=0|34=930|49=HEMAMTFRTS27QA2|52=20180625-18:48:48.431|56=TRAX|10=007|8=FIXT.1.1|9=64|35=0|34=931|49=HEMAMTFRTS27QA2|52=20180625-18:49:19.424|56=TRAX|10=009|8=FIXT.1.1|9=64|35=0|34=932|49=HEMAMTFRTS27QA2|52=20180625-18:49:49.425|56=TRAX|10=014|8=FIXT.1.1|9=64|35=0|34=933|49=HEMAMTFRTS27QA2|52=20180625-18:50:19.432|56=TRAX|10=002|8=FIXT.1.1|9=64|35=0|34=934|49=HEMAMTFRTS27QA2|52=20180625-18:50:50.431|56=TRAX|10=253|8=FIXT.1.1|9=64|35=0|34=935|49=HEMAMTFRTS27QA2|52=20180625-18:51:20.431|56=TRAX|10=252|8=FIXT.1.1|9=64|35=0|34=936|49=HEMAMTFRTS27QA2|52=20180625-18:51:51.423|56=TRAX|10=002|8=FIXT.1.1|9=64|35=0|34=937|49=HEMAMTFRTS27QA2|52=20180625-18:52:21.426|56=TRAX|10=004|8=FIXT.1.1|9=64|35=0|34=938|49=HEMAMTFRTS27QA2|52=20180625-18:52:51.431|56=TRAX|10=004|8=FIXT.1.1|9=64|35=0|34=939|49=HEMAMTFRTS27QA2|52=20180625-18:53:22.423|56=TRAX|10=005|8=FIXT.1.1|9=64|35=0|34=940|49=HEMAMTFRTS27QA2|52=20180625-18:53:52.429|56=TRAX|10=006|8=FIXT.1.1|9=64|35=0|34=941|49=HEMAMTFRTS27QA2|52=20180625-18:54:23.416|56=TRAX|10=002|8=FIXT.1.1|9=64|35=0|34=942|49=HEMAMTFRTS27QA2|52=20180625-18:54:53.422|56=TRAX|10=003|8=FIXT.1.1|9=64|35=0|34=943|49=HEMAMTFRTS27QA2|52=20180625-18:55:23.426|56=TRAX|10=006|8=FIXT.1.1|9=64|35=0|34=944|49=HEMAMTFRTS27QA2|52=20180625-18:55:54.423|56=TRAX|10=008|8=FIXT.1.1|9=64|35=0|34=945|49=HEMAMTFRTS27QA2|52=20180625-18:56:24.425|56=TRAX|10=009|8=FIXT.1.1|9=64|35=0|34=946|49=HEMAMTFRTS27QA2|52=20180625-18:56:55.426|56=TRAX|10=015|8=FIXT.1.1|9=64|35=0|34=947|49=HEMAMTFRTS27QA2|52=20180625-18:57:26.419|56=TRAX|10=017|8=FIXT.1.1|9=64|35=0|34=948|49=HEMAMTFRTS27QA2|52=20180625-18:57:56.422|56=TRAX|10=015|8=FIXT.1.1|9=64|35=0|34=949|49=HEMAMTFRTS27QA2|52=20180625-18:58:26.429|56=TRAX|10=021|8=FIXT.1.1|9=64|35=0|34=950|49=HEMAMTFRTS27QA2|52=20180625-18:58:56.429|56=TRAX|10=016|8=FIXT.1.1|9=64|35=0|34=951|49=HEMAMTFRTS27QA2|52=20180625-18:59:27.426|56=TRAX|10=013|8=FIXT.1.1|9=64|35=0|34=952|49=HEMAMTFRTS27QA2|52=20180625-18:59:58.425|56=TRAX|10=017|8=FIXT.1.1|9=64|35=0|34=953|49=HEMAMTFRTS27QA2|52=20180625-19:00:29.421|56=TRAX|10=255|8=FIXT.1.1|9=64|35=0|34=954|49=HEMAMTFRTS27QA2|52=20180625-19:01:00.423|56=TRAX|10=248|8=FIXT.1.1|9=64|35=0|34=955|49=HEMAMTFRTS27QA2|52=20180625-19:01:31.413|56=TRAX|10=252|8=FIXT.1.1|9=64|35=0|34=956|49=HEMAMTFRTS27QA2|52=20180625-19:02:01.420|56=TRAX|10=249|8=FIXT.1.1|9=64|35=0|34=957|49=HEMAMTFRTS27QA2|52=20180625-19:02:31.427|56=TRAX|10=004|8=FIXT.1.1|9=64|35=0|34=958|49=HEMAMTFRTS27QA2|52=20180625-19:03:02.424|56=TRAX|10=001|8=FIXT.1.1|9=64|35=0|34=959|49=HEMAMTFRTS27QA2|52=20180625-19:03:32.802|56=TRAX|10=005|8=FIXT.1.1|9=64|35=0|34=960|49=HEMAMTFRTS27QA2|52=20180625-19:04:02.802|56=TRAX|10=251|8=FIXT.1.1|9=64|35=0|34=961|49=HEMAMTFRTS27QA2|52=20180625-19:04:33.419|56=TRAX|10=004|8=FIXT.1.1|9=64|35=0|34=962|49=HEMAMTFRTS27QA2|52=20180625-19:05:04.425|56=TRAX|10=001|8=FIXT.1.1|9=64|35=0|34=963|49=HEMAMTFRTS27QA2|52=20180625-19:05:35.412|56=TRAX|10=002|8=FIXT.1.1|9=64|35=0|34=964|49=HEMAMTFRTS27QA2|52=20180625-19:06:05.419|56=TRAX|10=008|8=FIXT.1.1|9=64|35=0|34=965|49=HEMAMTFRTS27QA2|52=20180625-19:06:35.419|56=TRAX|10=012|8=FIXT.1.1|9=64|35=0|34=966|49=HEMAMTFRTS27QA2|52=20180625-19:07:05.419|56=TRAX|10=011|8=FIXT.1.1|9=64|35=0|34=967|49=HEMAMTFRTS27QA2|52=20180625-19:07:35.423|56=TRAX|10=010|8=FIXT.1.1|9=64|35=0|34=968|49=HEMAMTFRTS27QA2|52=20180625-19:08:06.423|56=TRAX|10=010|8=FIXT.1.1|9=64|35=0|34=969|49=HEMAMTFRTS27QA2|52=20180625-19:08:37.418|56=TRAX|10=019|8=FIXT.1.1|9=64|35=0|34=970|49=HEMAMTFRTS27QA2|52=20180625-19:09:08.418|56=TRAX|10=010|8=FIXT.1.1|9=64|35=0|34=971|49=HEMAMTFRTS27QA2|52=20180625-19:09:39.422|56=TRAX|10=010|8=FIXT.1.1|9=64|35=0|34=972|49=HEMAMTFRTS27QA2|52=20180625-19:10:10.417|56=TRAX|10=252|8=FIXT.1.1|9=64|35=0|34=973|49=HEMAMTFRTS27QA2|52=20180625-19:10:40.421|56=TRAX|10=251|8=FIXT.1.1|9=64|35=0|34=974|49=HEMAMTFRTS27QA2|52=20180625-19:11:11.424|56=TRAX|10=254|8=FIXT.1.1|9=64|35=0|34=975|49=HEMAMTFRTS27QA2|52=20180625-19:11:42.422|56=TRAX|10=001|8=FIXT.1.1|9=64|35=0|34=976|49=HEMAMTFRTS27QA2|52=20180625-19:12:13.417|56=TRAX|10=005|8=FIXT.1.1|9=64|35=0|34=977|49=HEMAMTFRTS27QA2|52=20180625-19:12:44.417|56=TRAX|10=010|8=FIXT.1.1|9=64|35=0|34=978|49=HEMAMTFRTS27QA2|52=20180625-19:13:14.418|56=TRAX|10=010|8=FIXT.1.1|9=64|35=0|34=979|49=HEMAMTFRTS27QA2|52=20180625-19:13:45.415|56=TRAX|10=012|8=FIXT.1.1|9=64|35=0|34=980|49=HEMAMTFRTS27QA2|52=20180625-19:14:15.422|56=TRAX|10=000|8=FIXT.1.1|9=64|35=0|34=981|49=HEMAMTFRTS27QA2|52=20180625-19:14:46.413|56=TRAX|10=005|8=FIXT.1.1|9=64|35=0|34=982|49=HEMAMTFRTS27QA2|52=20180625-19:15:16.421|56=TRAX|10=003|8=FIXT.1.1|9=64|35=0|34=983|49=HEMAMTFRTS27QA2|52=20180625-19:15:47.416|56=TRAX|10=012|8=FIXT.1.1|9=64|35=0|34=984|49=HEMAMTFRTS27QA2|52=20180625-19:16:18.419|56=TRAX|10=015|8=FIXT.1.1|9=64|35=0|34=985|49=HEMAMTFRTS27QA2|52=20180625-19:16:49.407|56=TRAX|10=017|8=FIXT.1.1|9=64|35=0|34=986|49=HEMAMTFRTS27QA2|52=20180625-19:17:19.422|56=TRAX|10=013|8=FIXT.1.1|9=64|35=0|34=987|49=HEMAMTFRTS27QA2|52=20180625-19:17:50.422|56=TRAX|10=009|8=FIXT.1.1|9=64|35=0|34=988|49=HEMAMTFRTS27QA2|52=20180625-19:18:21.414|56=TRAX|10=010|8=FIXT.1.1|9=64|35=0|34=989|49=HEMAMTFRTS27QA2|52=20180625-19:18:51.419|56=TRAX|10=019|8=FIXT.1.1|9=64|35=0|34=990|49=HEMAMTFRTS27QA2|52=20180625-19:19:22.415|56=TRAX|10=006|8=FIXT.1.1|9=64|35=0|34=991|49=HEMAMTFRTS27QA2|52=20180625-19:19:53.413|56=TRAX|10=009|8=FIXT.1.1|9=64|35=0|34=992|49=HEMAMTFRTS27QA2|52=20180625-19:20:23.417|56=TRAX|10=003|8=FIXT.1.1|9=64|35=0|34=993|49=HEMAMTFRTS27QA2|52=20180625-19:20:54.412|56=TRAX|10=003|8=FIXT.1.1|9=64|35=0|34=994|49=HEMAMTFRTS27QA2|52=20180625-19:21:25.412|56=TRAX|10=003|8=FIXT.1.1|9=64|35=0|34=995|49=HEMAMTFRTS27QA2|52=20180625-19:21:55.416|56=TRAX|10=011|8=FIXT.1.1|9=64|35=0|34=996|49=HEMAMTFRTS27QA2|52=20180625-19:22:26.412|56=TRAX|10=007|8=FIXT.1.1|9=64|35=0|34=997|49=HEMAMTFRTS27QA2|52=20180625-19:22:56.414|56=TRAX|10=013|8=FIXT.1.1|9=64|35=0|34=998|49=HEMAMTFRTS27QA2|52=20180625-19:23:27.416|56=TRAX|10=015|8=FIXT.1.1|9=64|35=0|34=999|49=HEMAMTFRTS27QA2|52=20180625-19:23:58.419|56=TRAX|10=023|8=FIXT.1.1|9=65|35=0|34=1000|49=HEMAMTFRTS27QA2|52=20180625-19:24:29.411|56=TRAX|10=037|8=FIXT.1.1|9=65|35=0|34=1001|49=HEMAMTFRTS27QA2|52=20180625-19:25:00.412|56=TRAX|10=029|8=FIXT.1.1|9=65|35=0|34=1002|49=HEMAMTFRTS27QA2|52=20180625-19:25:30.419|56=TRAX|10=040|8=FIXT.1.1|9=65|35=0|34=1003|49=HEMAMTFRTS27QA2|52=20180625-19:26:01.417|56=TRAX|10=038|8=FIXT.1.1|9=65|35=0|34=1004|49=HEMAMTFRTS27QA2|52=20180625-19:26:32.404|56=TRAX|10=039|8=FIXT.1.1|9=65|35=0|34=1005|49=HEMAMTFRTS27QA2|52=20180625-19:27:02.411|56=TRAX|10=036|8=FIXT.1.1|9=65|35=0|34=1006|49=HEMAMTFRTS27QA2|52=20180625-19:27:32.800|56=TRAX|10=042|8=FIXT.1.1|9=65|35=0|34=1007|49=HEMAMTFRTS27QA2|52=20180625-19:28:02.800|56=TRAX|10=041|8=FIXT.1.1|9=65|35=0|34=1008|49=HEMAMTFRTS27QA2|52=20180625-19:28:33.409|56=TRAX|10=051|8=FIXT.1.1|9=65|35=0|34=1009|49=HEMAMTFRTS27QA2|52=20180625-19:29:04.405|56=TRAX|10=047|8=FIXT.1.1|9=65|35=0|34=1010|49=HEMAMTFRTS27QA2|52=20180625-19:29:34.415|56=TRAX|10=043|8=FIXT.1.1|9=65|35=0|34=1011|49=HEMAMTFRTS27QA2|52=20180625-19:30:04.417|56=TRAX|10=035|8=FIXT.1.1|9=65|35=0|34=1012|49=HEMAMTFRTS27QA2|52=20180625-19:30:35.404|56=TRAX|10=036|8=FIXT.1.1|9=65|35=0|34=1013|49=HEMAMTFRTS27QA2|52=20180625-19:31:05.409|56=TRAX|10=040|8=FIXT.1.1|9=65|35=0|34=1014|49=HEMAMTFRTS27QA2|52=20180625-19:31:35.411|56=TRAX|10=037|8=FIXT.1.1|9=65|35=0|34=1015|49=HEMAMTFRTS27QA2|52=20180625-19:32:06.405|56=TRAX|10=040|8=FIXT.1.1|9=65|35=0|34=1016|49=HEMAMTFRTS27QA2|52=20180625-19:32:36.408|56=TRAX|10=047|8=FIXT.1.1|9=65|35=0|34=1017|49=HEMAMTFRTS27QA2|52=20180625-19:33:06.409|56=TRAX|10=047|8=FIXT.1.1|9=65|35=0|34=1018|49=HEMAMTFRTS27QA2|52=20180625-19:33:37.409|56=TRAX|10=052|8=FIXT.1.1|9=65|35=0|34=1019|49=HEMAMTFRTS27QA2|52=20180625-19:34:08.408|56=TRAX|10=051|8=FIXT.1.1|9=65|35=0|34=1020|49=HEMAMTFRTS27QA2|52=20180625-19:34:38.408|56=TRAX|10=046|8=FIXT.1.1|9=65|35=0|34=1021|49=HEMAMTFRTS27QA2|52=20180625-19:35:09.408|56=TRAX|10=046|8=FIXT.1.1