8=FIXT.1.1|9=95|35=A|34=1|49=APAQA3|52=20180206-10:15:29.266|56=TRAX|98=0|108=30|95=8|96=2.0.0rc4|141=Y|1137=9|10=035|8=FIXT.1.1|9=53|35=0|34=2|49=APAQA3|52=20180206-10:16:00.236|56=TRAX|10=239|8=FIXT.1.1|9=53|35=0|34=3|49=APAQA3|52=20180206-10:16:30.239|56=TRAX|10=246|8=FIXT.1.1|9=53|35=0|34=4|49=APAQA3|52=20180206-10:17:00.243|56=TRAX|10=240|8=FIXT.1.1|9=53|35=0|34=5|49=APAQA3|52=20180206-10:17:30.243|56=TRAX|10=244|8=FIXT.1.1|9=53|35=0|34=6|49=APAQA3|52=20180206-10:18:01.245|56=TRAX|10=246|8=FIXT.1.1|9=53|35=0|34=7|49=APAQA3|52=20180206-10:18:31.245|56=TRAX|10=250|8=FIXT.1.1|9=53|35=0|34=8|49=APAQA3|52=20180206-10:19:02.238|56=TRAX|10=252|8=FIXT.1.1|9=53|35=0|34=9|49=APAQA3|52=20180206-10:19:32.238|56=TRAX|10=000|8=FIXT.1.1|9=54|35=0|34=10|49=APAQA3|52=20180206-10:20:02.239|56=TRAX|10=031|8=FIXT.1.1|9=54|35=0|34=11|49=APAQA3|52=20180206-10:20:32.248|56=TRAX|10=035|8=FIXT.1.1|9=386|35=AE|34=12|49=APAQA3|50=APA|57=APA|52=20180206-10:20:34.348|56=TRAX|571=TradeReport|487=0|325=Y|423=22|55=[N/A]|48=XS0253963754|22=4|32=4|31=50.00|60=20180202-01:20:13.370|552=1|54=1|29=5|1041=PPB-1278-Def10_34A1|1934=0|15=GBP|1924=1|22600=25000|22601=EUR|854=1|231=10|30=XOFF|1116=2|1117=05B6OC1W7N8NJQRIYS63|1118=N|1119=116|1117=05B6OC1W7N8NJQRIYS63|1118=N|1119=1|22801=1|22802=ILQD|10=017|8=FIXT.1.1|9=54|35=0|34=13|49=APAQA3|52=20180206-10:21:05.247|56=TRAX|10=037|8=FIXT.1.1|9=54|35=0|34=14|49=APAQA3|52=20180206-10:21:35.247|56=TRAX|10=041|8=FIXT.1.1|9=386|35=AE|34=15|49=APAQA3|50=APA|57=APA|52=20180206-10:21:45.987|56=TRAX|571=TradeReport|487=0|325=Y|423=22|55=[N/A]|48=XS0253963754|22=4|32=4|31=50.00|60=20180201-01:20:13.370|552=1|54=1|29=5|1041=PPB-1278-Def10_34A2|1934=0|15=GBP|1924=1|22600=25000|22601=EUR|854=1|231=10|30=XOFF|1116=2|1117=05B6OC1W7N8NJQRIYS63|1118=N|1119=116|1117=05B6OC1W7N8NJQRIYS63|1118=N|1119=1|22801=1|22802=ILQD|10=032|8=FIXT.1.1|9=54|35=0|34=16|49=APAQA3|52=20180206-10:22:16.248|56=TRAX|10=044|8=FIXT.1.1|9=54|35=0|34=17|49=APAQA3|52=20180206-10:22:47.243|56=TRAX|10=044|8=FIXT.1.1|9=54|35=0|34=18|49=APAQA3|52=20180206-10:23:17.250|56=TRAX|10=041|8=FIXT.1.1|9=54|35=0|34=19|49=APAQA3|52=20180206-10:23:47.250|56=TRAX|10=045|8=FIXT.1.1|9=54|35=0|34=20|49=APAQA3|52=20180206-10:24:18.244|56=TRAX|10=039|8=FIXT.1.1|9=54|35=0|34=21|49=APAQA3|52=20180206-10:24:48.244|56=TRAX|10=043|8=FIXT.1.1|9=54|35=0|34=22|49=APAQA3|52=20180206-10:25:18.249|56=TRAX|10=047|8=FIXT.1.1|9=54|35=0|34=23|49=APAQA3|52=20180206-10:25:48.250|56=TRAX|10=043|8=FIXT.1.1|9=54|35=0|34=24|49=APAQA3|52=20180206-10:26:19.251|56=TRAX|10=044|8=FIXT.1.1|9=54|35=0|34=25|49=APAQA3|52=20180206-10:26:49.251|56=TRAX|10=048|8=FIXT.1.1|9=54|35=0|34=26|49=APAQA3|52=20180206-10:27:19.760|56=TRAX|10=052|8=FIXT.1.1|9=54|35=0|34=27|49=APAQA3|52=20180206-10:27:50.253|56=TRAX|10=045|8=FIXT.1.1|9=54|35=0|34=28|49=APAQA3|52=20180206-10:28:21.228|56=TRAX|10=047|8=FIXT.1.1|9=54|35=0|34=29|49=APAQA3|52=20180206-10:28:52.227|56=TRAX|10=051|8=FIXT.1.1|9=54|35=0|34=30|49=APAQA3|52=20180206-10:29:23.226|56=TRAX|10=041|8=FIXT.1.1|9=54|35=0|34=31|49=APAQA3|52=20180206-10:29:54.225|56=TRAX|10=045|8=FIXT.1.1|9=54|35=0|34=32|49=APAQA3|52=20180206-10:30:25.224|56=TRAX|10=035|8=FIXT.1.1|9=54|35=0|34=33|49=APAQA3|52=20180206-10:30:56.223|56=TRAX|10=039|8=FIXT.1.1|9=54|35=0|34=34|49=APAQA3|52=20180206-10:31:27.221|56=TRAX|10=037|8=FIXT.1.1|9=54|35=0|34=35|49=APAQA3|52=20180206-10:31:58.220|56=TRAX|10=041|8=FIXT.1.1|9=54|35=0|34=36|49=APAQA3|52=20180206-10:32:28.240|56=TRAX|10=042|8=FIXT.1.1|9=54|35=0|34=37|49=APAQA3|52=20180206-10:32:58.244|56=TRAX|10=050|8=FIXT.1.1|9=54|35=0|34=38|49=APAQA3|52=20180206-10:33:29.240|56=TRAX|10=046|8=FIXT.1.1|9=54|35=0|34=39|49=APAQA3|52=20180206-10:33:59.246|56=TRAX|10=056|8=FIXT.1.1|9=54|35=0|34=40|49=APAQA3|52=20180206-10:34:30.245|56=TRAX|10=037|8=FIXT.1.1|9=54|35=0|34=41|49=APAQA3|52=20180206-10:35:00.246|56=TRAX|10=037|8=FIXT.1.1|9=54|35=0|34=42|49=APAQA3|52=20180206-10:35:31.244|56=TRAX|10=040|8=FIXT.1.1|9=54|35=0|34=43|49=APAQA3|52=20180206-10:36:02.245|56=TRAX|10=041|8=FIXT.1.1|9=54|35=0|34=44|49=APAQA3|52=20180206-10:36:32.248|56=TRAX|10=048|8=FIXT.1.1|9=54|35=0|34=45|49=APAQA3|52=20180206-10:37:03.249|56=TRAX|10=049|8=FIXT.1.1|9=54|35=0|34=46|49=APAQA3|52=20180206-10:37:34.245|56=TRAX|10=050|8=FIXT.1.1|9=54|35=0|34=47|49=APAQA3|52=20180206-10:38:04.245|56=TRAX|10=049|8=FIXT.1.1|9=54|35=0|34=48|49=APAQA3|52=20180206-10:38:35.242|56=TRAX|10=051|8=FIXT.1.1|9=54|35=0|34=49|49=APAQA3|52=20180206-10:39:05.244|56=TRAX|10=052|8=FIXT.1.1|9=54|35=0|34=50|49=APAQA3|52=20180206-10:39:35.248|56=TRAX|10=051|8=FIXT.1.1|9=54|35=0|34=51|49=APAQA3|52=20180206-10:40:06.246|56=TRAX|10=040|8=FIXT.1.1|9=54|35=0|34=52|49=APAQA3|52=20180206-10:40:36.252|56=TRAX|10=041|8=FIXT.1.1|9=54|35=0|34=53|49=APAQA3|52=20180206-10:41:07.226|56=TRAX|10=042|8=FIXT.1.1|9=54|35=0|34=54|49=APAQA3|52=20180206-10:41:37.226|56=TRAX|10=046|8=FIXT.1.1|9=54|35=0|34=55|49=APAQA3|52=20180206-10:42:07.239|56=TRAX|10=049|8=FIXT.1.1|9=54|35=0|34=56|49=APAQA3|52=20180206-10:42:37.254|56=TRAX|10=050|8=FIXT.1.1|9=54|35=0|34=57|49=APAQA3|52=20180206-10:43:08.246|56=TRAX|10=051|8=FIXT.1.1|9=54|35=0|34=58|49=APAQA3|52=20180206-10:43:38.252|56=TRAX|10=052|8=FIXT.1.1|9=54|35=0|34=59|49=APAQA3|52=20180206-10:44:09.251|56=TRAX|10=051|8=FIXT.1.1|9=54|35=0|34=60|49=APAQA3|52=20180206-10:44:39.253|56=TRAX|10=048|8=FIXT.1.1|9=54|35=0|34=61|49=APAQA3|52=20180206-10:45:09.254|56=TRAX|10=048|8=FIXT.1.1|9=54|35=0|34=62|49=APAQA3|52=20180206-10:45:39.254|56=TRAX|10=052|8=FIXT.1.1|9=54|35=0|34=63|49=APAQA3|52=20180206-10:46:10.253|56=TRAX|10=042|8=FIXT.1.1|9=54|35=0|34=64|49=APAQA3|52=20180206-10:46:41.251|56=TRAX|10=045|8=FIXT.1.1|9=54|35=0|34=65|49=APAQA3|52=20180206-10:47:11.254|56=TRAX|10=047|8=FIXT.1.1|9=54|35=0|34=66|49=APAQA3|52=20180206-10:47:41.258|56=TRAX|10=055|8=FIXT.1.1|9=54|35=0|34=67|49=APAQA3|52=20180206-10:48:12.250|56=TRAX|10=047|8=FIXT.1.1|9=54|35=0|34=68|49=APAQA3|52=20180206-10:48:42.253|56=TRAX|10=054|8=FIXT.1.1|9=54|35=0|34=69|49=APAQA3|52=20180206-10:49:12.259|56=TRAX|10=059|8=FIXT.1.1|9=54|35=0|34=70|49=APAQA3|52=20180206-10:49:43.256|56=TRAX|10=052|8=FIXT.1.1|9=54|35=0|34=71|49=APAQA3|52=20180206-10:50:14.254|56=TRAX|10=041|8=FIXT.1.1|9=54|35=0|34=72|49=APAQA3|52=20180206-10:50:44.254|56=TRAX|10=045|8=FIXT.1.1|9=54|35=0|34=73|49=APAQA3|52=20180206-10:51:14.254|56=TRAX|10=044|8=FIXT.1.1|9=54|35=0|34=74|49=APAQA3|52=20180206-10:51:44.254|56=TRAX|10=048|8=FIXT.1.1|9=54|35=0|34=75|49=APAQA3|52=20180206-10:52:14.254|56=TRAX|10=047|8=FIXT.1.1|9=54|35=0|34=76|49=APAQA3|52=20180206-10:52:44.261|56=TRAX|10=049|8=FIXT.1.1|9=54|35=0|34=77|49=APAQA3|52=20180206-10:53:15.258|56=TRAX|10=055|8=FIXT.1.1|9=54|35=0|34=78|49=APAQA3|52=20180206-10:53:45.264|56=TRAX|10=056|8=FIXT.1.1|9=54|35=0|34=79|49=APAQA3|52=20180206-10:54:15.265|56=TRAX|10=056|8=FIXT.1.1|9=54|35=0|34=80|49=APAQA3|52=20180206-10:54:46.259|56=TRAX|10=055|8=FIXT.1.1|9=54|35=0|34=81|49=APAQA3|52=20180206-10:55:16.262|56=TRAX|10=048|8=FIXT.1.1|9=54|35=0|34=82|49=APAQA3|52=20180206-10:55:46.264|56=TRAX|10=054|8=FIXT.1.1|9=54|35=0|34=83|49=APAQA3|52=20180206-10:56:16.267|56=TRAX|10=056|8=FIXT.1.1|9=54|35=0|34=84|49=APAQA3|52=20180206-10:56:47.264|56=TRAX|10=058|8=FIXT.1.1|9=54|35=0|34=85|49=APAQA3|52=20180206-10:57:18.261|56=TRAX|10=055|8=FIXT.1.1|9=54|35=0|34=86|49=APAQA3|52=20180206-10:57:48.261|56=TRAX|10=059|8=FIXT.1.1|9=54|35=0|34=87|49=APAQA3|52=20180206-10:58:18.264|56=TRAX|10=061|8=FIXT.1.1|9=54|35=0|34=88|49=APAQA3|52=20180206-10:58:48.268|56=TRAX|10=069|8=FIXT.1.1|9=54|35=0|34=89|49=APAQA3|52=20180206-10:59:19.264|56=TRAX|10=065|8=FIXT.1.1|9=54|35=0|34=90|49=APAQA3|52=20180206-10:59:49.771|56=TRAX|10=063|8=FIXT.1.1|9=54|35=0|34=91|49=APAQA3|52=20180206-11:00:20.266|56=TRAX|10=039|8=FIXT.1.1|9=54|35=0|34=92|49=APAQA3|52=20180206-11:00:50.269|56=TRAX|10=046|8=FIXT.1.1|9=54|35=0|34=93|49=APAQA3|52=20180206-11:01:21.264|56=TRAX|10=041|8=FIXT.1.1|9=54|35=0|34=94|49=APAQA3|52=20180206-11:01:51.267|56=TRAX|10=048|8=FIXT.1.1|9=54|35=0|34=95|49=APAQA3|52=20180206-11:02:22.245|56=TRAX|10=044|8=FIXT.1.1|9=54|35=0|34=96|49=APAQA3|52=20180206-11:02:52.264|56=TRAX|10=049|8=FIXT.1.1|9=54|35=0|34=97|49=APAQA3|52=20180206-11:03:22.270|56=TRAX|10=045|8=FIXT.1.1|9=54|35=0|34=98|49=APAQA3|52=20180206-11:03:53.267|56=TRAX|10=056|8=FIXT.1.1|9=54|35=0|34=99|49=APAQA3|52=20180206-11:04:23.273|56=TRAX|10=052|8=FIXT.1.1|9=55|35=0|34=100|49=APAQA3|52=20180206-11:04:54.268|56=TRAX|10=092|8=FIXT.1.1|9=55|35=0|34=101|49=APAQA3|52=20180206-11:05:24.268|56=TRAX|10=091|8=FIXT.1.1|9=55|35=0|34=102|49=APAQA3|52=20180206-11:05:54.268|56=TRAX|10=095|8=FIXT.1.1|9=55|35=0|34=103|49=APAQA3|52=20180206-11:06:24.273|56=TRAX|10=090|8=FIXT.1.1|9=55|35=0|34=104|49=APAQA3|52=20180206-11:06:54.274|56=TRAX|10=095|8=FIXT.1.1|9=55|35=0|34=105|49=APAQA3|52=20180206-11:07:24.277|56=TRAX|10=097|8=FIXT.1.1|9=55|35=0|34=106|49=APAQA3|52=20180206-11:07:54.277|56=TRAX|10=101|8=FIXT.1.1|9=55|35=0|34=107|49=APAQA3|52=20180206-11:08:24.277|56=TRAX|10=100|8=FIXT.1.1|9=55|35=0|34=108|49=APAQA3|52=20180206-11:08:54.277|56=TRAX|10=104|8=FIXT.1.1|9=55|35=0|34=109|49=APAQA3|52=20180206-11:09:25.275|56=TRAX|10=102|8=FIXT.1.1|9=55|35=0|34=110|49=APAQA3|52=20180206-11:09:55.278|56=TRAX|10=100|8=FIXT.1.1|9=55|35=0|34=111|49=APAQA3|52=20180206-11:10:26.275|56=TRAX|10=088|8=FIXT.1.1|9=55|35=0|34=112|49=APAQA3|52=20180206-11:10:56.281|56=TRAX|10=089|8=FIXT.1.1|9=55|35=0|34=113|49=APAQA3|52=20180206-11:11:27.277|56=TRAX|10=094|8=FIXT.1.1|9=55|35=0|34=114|49=APAQA3|52=20180206-11:11:57.280|56=TRAX|10=092|8=FIXT.1.1|9=55|35=0|34=115|49=APAQA3|52=20180206-11:12:28.273|56=TRAX|10=094|8=FIXT.1.1|9=55|35=0|34=116|49=APAQA3|52=20180206-11:12:58.283|56=TRAX|10=099|8=FIXT.1.1|9=55|35=0|34=117|49=APAQA3|52=20180206-11:13:29.280|56=TRAX|10=096|8=FIXT.1.1|9=55|35=0|34=118|49=APAQA3|52=20180206-11:13:59.283|56=TRAX|10=103|8=FIXT.1.1|9=55|35=0|34=119|49=APAQA3|52=20180206-11:14:30.275|56=TRAX|10=095|8=FIXT.1.1|9=55|35=0|34=120|49=APAQA3|52=20180206-11:15:00.284|56=TRAX|10=085|8=FIXT.1.1|9=55|35=0|34=121|49=APAQA3|52=20180206-11:15:31.278|56=TRAX|10=093|8=FIXT.1.1|9=55|35=0|34=122|49=APAQA3|52=20180206-11:16:01.283|56=TRAX|10=088|8=FIXT.1.1|9=55|35=0|34=123|49=APAQA3|52=20180206-11:16:32.277|56=TRAX|10=096|8=FIXT.1.1|9=55|35=0|34=124|49=APAQA3|52=20180206-11:17:03.282|56=TRAX|10=092|8=FIXT.1.1|9=55|35=0|34=125|49=APAQA3|52=20180206-11:17:34.279|56=TRAX|10=103|8=FIXT.1.1|9=55|35=0|34=126|49=APAQA3|52=20180206-11:18:04.282|56=TRAX|10=096|8=FIXT.1.1|9=55|35=0|34=127|49=APAQA3|52=20180206-11:18:34.284|56=TRAX|10=102|8=FIXT.1.1|9=55|35=0|34=128|49=APAQA3|52=20180206-11:19:05.282|56=TRAX|10=100|8=FIXT.1.1|9=55|35=0|34=129|49=APAQA3|52=20180206-11:19:35.284|56=TRAX|10=106|8=FIXT.1.1|9=55|35=0|34=130|49=APAQA3|52=20180206-11:20:06.282|56=TRAX|10=086|8=FIXT.1.1|9=55|35=0|34=131|49=APAQA3|52=20180206-11:20:36.284|56=TRAX|10=092|8=FIXT.1.1|9=55|35=0|34=132|49=APAQA3|52=20180206-11:21:07.286|56=TRAX|10=094|8=FIXT.1.1|9=55|35=0|34=133|49=APAQA3|52=20180206-11:21:38.282|56=TRAX|10=095|8=FIXT.1.1|9=55|35=0|34=134|49=APAQA3|52=20180206-11:22:08.287|56=TRAX|10=099|8=FIXT.1.1|9=55|35=0|34=135|49=APAQA3|52=20180206-11:22:38.288|56=TRAX|10=104|8=FIXT.1.1|9=55|35=0|34=136|49=APAQA3|52=20180206-11:23:09.288|56=TRAX|10=104|8=FIXT.1.1|9=55|35=0|34=137|49=APAQA3|52=20180206-11:23:39.290|56=TRAX|10=101|8=FIXT.1.1|9=55|35=0|34=138|49=APAQA3|52=20180206-11:24:10.291|56=TRAX|10=093|8=FIXT.1.1|9=55|35=0|34=139|49=APAQA3|52=20180206-11:24:41.287|56=TRAX|10=103|8=FIXT.1.1|9=55|35=0|34=140|49=APAQA3|52=20180206-11:25:12.286|56=TRAX|10=093|8=FIXT.1.1|9=55|35=0|34=141|49=APAQA3|52=20180206-11:25:43.284|56=TRAX|10=096|8=FIXT.1.1|9=55|35=0|34=142|49=APAQA3|52=20180206-11:26:13.292|56=TRAX|10=094|8=FIXT.1.1|9=55|35=0|34=143|49=APAQA3|52=20180206-11:26:44.291|56=TRAX|10=098|8=FIXT.1.1|9=55|35=0|34=144|49=APAQA3|52=20180206-11:27:14.293|56=TRAX|10=099|8=FIXT.1.1|9=55|35=0|34=145|49=APAQA3|52=20180206-11:27:45.294|56=TRAX|10=105|8=FIXT.1.1|9=55|35=0|34=146|49=APAQA3|52=20180206-11:28:16.289|56=TRAX|10=109|8=FIXT.1.1|9=55|35=0|34=147|49=APAQA3|52=20180206-11:28:46.291|56=TRAX|10=106|8=FIXT.1.1|9=55|35=0|34=148|49=APAQA3|52=20180206-11:29:17.283|56=TRAX|10=107|8=FIXT.1.1|9=55|35=0|34=149|49=APAQA3|52=20180206-11:29:47.292|56=TRAX|10=111|8=FIXT.1.1|9=55|35=0|34=150|49=APAQA3|52=20180206-11:30:18.292|56=TRAX|10=093|8=FIXT.1.1|9=55|35=0|34=151|49=APAQA3|52=20180206-11:30:49.289|56=TRAX|10=104|8=FIXT.1.1|9=55|35=0|34=152|49=APAQA3|52=20180206-11:31:19.775|56=TRAX|10=103|8=FIXT.1.1|9=55|35=0|34=153|49=APAQA3|52=20180206-11:31:50.291|56=TRAX|10=092|8=FIXT.1.1|9=55|35=0|34=154|49=APAQA3|52=20180206-11:32:20.299|56=TRAX|10=099|8=FIXT.1.1|9=55|35=0|34=155|49=APAQA3|52=20180206-11:32:51.291|56=TRAX|10=096|8=FIXT.1.1|9=55|35=0|34=156|49=APAQA3|52=20180206-11:33:22.299|56=TRAX|10=104|8=FIXT.1.1|9=55|35=0|34=157|49=APAQA3|52=20180206-11:33:52.300|56=TRAX|10=091|8=FIXT.1.1|9=55|35=0|34=158|49=APAQA3|52=20180206-11:34:23.294|56=TRAX|10=103|8=FIXT.1.1|9=55|35=0|34=159|49=APAQA3|52=20180206-11:34:53.297|56=TRAX|10=110|8=FIXT.1.1|9=55|35=0|34=160|49=APAQA3|52=20180206-11:35:23.299|56=TRAX|10=102|8=FIXT.1.1|9=55|35=0|34=161|49=APAQA3|52=20180206-11:35:54.298|56=TRAX|10=106|8=FIXT.1.1|9=55|35=0|34=162|49=APAQA3|52=20180206-11:36:25.294|56=TRAX|10=102|8=FIXT.1.1|9=55|35=0|34=163|49=APAQA3|52=20180206-11:36:55.298|56=TRAX|10=110|8=FIXT.1.1|9=55|35=0|34=164|49=APAQA3|52=20180206-11:37:25.298|56=TRAX|10=109|8=FIXT.1.1|9=55|35=0|34=165|49=APAQA3|52=20180206-11:37:56.277|56=TRAX|10=111|8=FIXT.1.1|9=55|35=0|34=166|49=APAQA3|52=20180206-11:38:26.298|56=TRAX|10=113|8=FIXT.1.1|9=55|35=0|34=167|49=APAQA3|52=20180206-11:38:56.300|56=TRAX|10=101|8=FIXT.1.1|9=55|35=0|34=168|49=APAQA3|52=20180206-11:39:27.298|56=TRAX|10=117|8=FIXT.1.1|9=55|35=0|34=169|49=APAQA3|52=20180206-11:39:57.302|56=TRAX|10=107|8=FIXT.1.1|9=55|35=0|34=170|49=APAQA3|52=20180206-11:40:28.278|56=TRAX|10=101|8=FIXT.1.1|9=55|35=0|34=171|49=APAQA3|52=20180206-11:40:58.296|56=TRAX|10=105|8=FIXT.1.1|9=55|35=0|34=172|49=APAQA3|52=20180206-11:41:28.304|56=TRAX|10=094|8=FIXT.1.1|9=55|35=0|34=173|49=APAQA3|52=20180206-11:41:59.278|56=TRAX|10=109|8=FIXT.1.1|9=55|35=0|34=174|49=APAQA3|52=20180206-11:42:29.295|56=TRAX|10=107|8=FIXT.1.1|9=55|35=0|34=175|49=APAQA3|52=20180206-11:42:59.301|56=TRAX|10=099|8=FIXT.1.1|9=55|35=0|34=176|49=APAQA3|52=20180206-11:43:30.301|56=TRAX|10=090|8=FIXT.1.1|9=55|35=0|34=177|49=APAQA3|52=20180206-11:44:00.301|56=TRAX|10=089|8=FIXT.1.1|9=55|35=0|34=178|49=APAQA3|52=20180206-11:44:30.302|56=TRAX|10=094|8=FIXT.1.1|9=55|35=0|34=179|49=APAQA3|52=20180206-11:45:00.302|56=TRAX|10=093|8=FIXT.1.1|9=55|35=0|34=180|49=APAQA3|52=20180206-11:45:30.303|56=TRAX|10=089|8=FIXT.1.1|9=55|35=0|34=181|49=APAQA3|52=20180206-11:46:00.303|56=TRAX|10=088|8=FIXT.1.1|9=55|35=0|34=182|49=APAQA3|52=20180206-11:46:31.302|56=TRAX|10=092|8=FIXT.1.1|9=55|35=0|34=183|49=APAQA3|52=20180206-11:47:01.306|56=TRAX|10=095|8=FIXT.1.1|9=55|35=0|34=184|49=APAQA3|52=20180206-11:47:32.303|56=TRAX|10=097|8=FIXT.1.1|9=55|35=0|34=185|49=APAQA3|52=20180206-11:48:03.302|56=TRAX|10=096|8=FIXT.1.1|9=55|35=0|34=186|49=APAQA3|52=20180206-11:48:33.305|56=TRAX|10=103|8=FIXT.1.1|9=55|35=0|34=187|49=APAQA3|52=20180206-11:49:04.304|56=TRAX|10=102|8=FIXT.1.1|9=55|35=0|34=188|49=APAQA3|52=20180206-11:49:34.308|56=TRAX|10=110|8=FIXT.1.1|9=55|35=0|34=189|49=APAQA3|52=20180206-11:50:05.310|56=TRAX|10=094|8=FIXT.1.1|9=55|35=0|34=190|49=APAQA3|52=20180206-11:50:36.304|56=TRAX|10=093|8=FIXT.1.1|9=55|35=0|34=191|49=APAQA3|52=20180206-11:51:06.309|56=TRAX|10=097|8=FIXT.1.1|9=55|35=0|34=192|49=APAQA3|52=20180206-11:51:37.301|56=TRAX|10=094|8=FIXT.1.1|9=55|35=0|34=193|49=APAQA3|52=20180206-11:52:07.306|56=TRAX|10=098|8=FIXT.1.1|9=55|35=0|34=194|49=APAQA3|52=20180206-11:52:37.307|56=TRAX|10=103|8=FIXT.1.1|9=55|35=0|34=195|49=APAQA3|52=20180206-11:53:08.310|56=TRAX|10=097|8=FIXT.1.1|9=55|35=0|34=196|49=APAQA3|52=20180206-11:53:39.305|56=TRAX|10=106|8=FIXT.1.1|9=55|35=0|34=197|49=APAQA3|52=20180206-11:54:09.309|56=TRAX|10=109|8=FIXT.1.1|9=55|35=0|34=198|49=APAQA3|52=20180206-11:54:40.283|56=TRAX|10=106|8=FIXT.1.1|9=55|35=0|34=199|49=APAQA3|52=20180206-11:55:10.310|56=TRAX|10=096|8=FIXT.1.1|9=55|35=0|34=200|49=APAQA3|52=20180206-11:55:41.283|56=TRAX|10=092|8=FIXT.1.1|9=55|35=0|34=201|49=APAQA3|52=20180206-11:56:11.306|56=TRAX|10=087|8=FIXT.1.1|9=55|35=0|34=202|49=APAQA3|52=20180206-11:56:42.302|56=TRAX|10=088|8=FIXT.1.1|9=55|35=0|34=203|49=APAQA3|52=20180206-11:57:12.304|56=TRAX|10=089|8=FIXT.1.1|9=55|35=0|34=204|49=APAQA3|52=20180206-11:57:43.305|56=TRAX|10=095|8=FIXT.1.1|9=55|35=0|34=205|49=APAQA3|52=20180206-11:58:13.306|56=TRAX|10=095|8=FIXT.1.1|9=55|35=0|34=206|49=APAQA3|52=20180206-11:58:44.306|56=TRAX|10=100|8=FIXT.1.1|9=55|35=0|34=207|49=APAQA3|52=20180206-11:59:14.308|56=TRAX|10=101|8=FIXT.1.1|9=55|35=0|34=208|49=APAQA3|52=20180206-11:59:45.306|56=TRAX|10=104|8=FIXT.1.1|9=55|35=0|34=209|49=APAQA3|52=20180206-12:00:15.313|56=TRAX|10=087|8=FIXT.1.1|9=55|35=0|34=210|49=APAQA3|52=20180206-12:00:46.287|56=TRAX|10=093|8=FIXT.1.1|9=55|35=0|34=211|49=APAQA3|52=20180206-12:01:16.287|56=TRAX|10=092|8=FIXT.1.1|9=55|35=0|34=212|49=APAQA3|52=20180206-12:01:46.308|56=TRAX|10=090|8=FIXT.1.1|9=55|35=0|34=213|49=APAQA3|52=20180206-12:02:16.310|56=TRAX|10=082|8=FIXT.1.1|9=55|35=0|34=214|49=APAQA3|52=20180206-12:02:47.309|56=TRAX|10=095|8=FIXT.1.1|9=55|35=0|34=215|49=APAQA3|52=20180206-12:03:17.314|56=TRAX|10=090|8=FIXT.1.1|9=55|35=0|34=216|49=APAQA3|52=20180206-12:03:48.309|56=TRAX|10=099|8=FIXT.1.1|9=55|35=0|34=217|49=APAQA3|52=20180206-12:04:18.316|56=TRAX|10=096|8=FIXT.1.1|9=55|35=0|34=218|49=APAQA3|52=20180206-12:04:49.309|56=TRAX|10=103|8=FIXT.1.1|9=55|35=0|34=219|49=APAQA3|52=20180206-12:05:19.312|56=TRAX|10=096|8=FIXT.1.1|9=55|35=0|34=220|49=APAQA3|52=20180206-12:05:49.315|56=TRAX|10=094|8=FIXT.1.1|9=55|35=0|34=221|49=APAQA3|52=20180206-12:06:19.764|56=TRAX|10=101|8=FIXT.1.1|9=55|35=0|34=222|49=APAQA3|52=20180206-12:06:49.777|56=TRAX|10=109|8=FIXT.1.1|9=55|35=0|34=223|49=APAQA3|52=20180206-12:07:19.789|56=TRAX|10=111|8=FIXT.1.1|9=55|35=0|34=224|49=APAQA3|52=20180206-12:07:50.316|56=TRAX|10=093|8=FIXT.1.1|9=55|35=0|34=225|49=APAQA3|52=20180206-12:08:21.313|56=TRAX|10=090|8=FIXT.1.1|9=55|35=0|34=226|49=APAQA3|52=20180206-12:08:52.312|56=TRAX|10=094|8=FIXT.1.1|9=55|35=0|34=227|49=APAQA3|52=20180206-12:09:22.314|56=TRAX|10=095|8=FIXT.1.1|9=55|35=0|34=228|49=APAQA3|52=20180206-12:09:52.316|56=TRAX|10=101|8=FIXT.1.1|9=55|35=0|34=229|49=APAQA3|52=20180206-12:10:22.318|56=TRAX|10=093|8=FIXT.1.1|9=55|35=0|34=230|49=APAQA3|52=20180206-12:10:53.321|56=TRAX|10=083|8=FIXT.1.1|9=55|35=0|34=231|49=APAQA3|52=20180206-12:11:24.318|56=TRAX|10=089|8=FIXT.1.1|9=55|35=0|34=232|49=APAQA3|52=20180206-12:11:54.321|56=TRAX|10=087|8=FIXT.1.1|9=55|35=0|34=233|49=APAQA3|52=20180206-12:12:24.321|56=TRAX|10=086|8=FIXT.1.1|9=55|35=0|34=234|49=APAQA3|52=20180206-12:12:55.323|56=TRAX|10=093|8=FIXT.1.1|9=55|35=0|34=235|49=APAQA3|52=20180206-12:13:25.325|56=TRAX|10=094|8=FIXT.1.1|9=55|35=0|34=236|49=APAQA3|52=20180206-12:13:56.318|56=TRAX|10=101|8=FIXT.1.1|9=55|35=0|34=237|49=APAQA3|52=20180206-12:14:26.319|56=TRAX|10=101|8=FIXT.1.1|9=55|35=0|34=238|49=APAQA3|52=20180206-12:14:56.323|56=TRAX|10=100|8=FIXT.1.1|9=55|35=0|34=239|49=APAQA3|52=20180206-12:15:27.300|56=TRAX|10=095|8=FIXT.1.1|9=55|35=0|34=240|49=APAQA3|52=20180206-12:15:57.321|56=TRAX|10=093|8=FIXT.1.1|9=55|35=0|34=241|49=APAQA3|52=20180206-12:16:27.325|56=TRAX|10=096|8=FIXT.1.1|9=55|35=0|34=242|49=APAQA3|52=20180206-12:16:58.317|56=TRAX|10=102|8=FIXT.1.1|9=55|35=0|34=243|49=APAQA3|52=20180206-12:17:29.298|56=TRAX|10=110|8=FIXT.1.1|9=55|35=0|34=244|49=APAQA3|52=20180206-12:17:59.298|56=TRAX|10=114|8=FIXT.1.1|9=55|35=0|34=245|49=APAQA3|52=20180206-12:18:30.297|56=TRAX|10=104|8=FIXT.1.1|9=55|35=0|34=246|49=APAQA3|52=20180206-12:19:00.319|56=TRAX|10=098|8=FIXT.1.1|9=55|35=0|34=247|49=APAQA3|52=20180206-12:19:31.297|56=TRAX|10=108|8=FIXT.1.1|9=55|35=0|34=248|49=APAQA3|52=20180206-12:20:01.320|56=TRAX|10=085|8=FIXT.1.1|9=55|35=0|34=249|49=APAQA3|52=20180206-12:20:31.323|56=TRAX|10=092|8=FIXT.1.1|9=55|35=0|34=250|49=APAQA3|52=20180206-12:21:02.316|56=TRAX|10=085|8=FIXT.1.1|9=55|35=0|34=251|49=APAQA3|52=20180206-12:21:32.317|56=TRAX|10=090|8=FIXT.1.1|9=55|35=0|34=252|49=APAQA3|52=20180206-12:22:02.320|56=TRAX|10=083|8=FIXT.1.1|9=55|35=0|34=253|49=APAQA3|52=20180206-12:22:32.322|56=TRAX|10=089|8=FIXT.1.1|9=55|35=0|34=254|49=APAQA3|52=20180206-12:23:03.320|56=TRAX|10=087|8=FIXT.1.1|9=55|35=0|34=255|49=APAQA3|52=20180206-12:23:33.324|56=TRAX|10=095|8=FIXT.1.1|9=55|35=0|34=256|49=APAQA3|52=20180206-12:24:04.317|56=TRAX|10=097|8=FIXT.1.1|9=55|35=0|34=257|49=APAQA3|52=20180206-12:24:34.322|56=TRAX|10=097|8=FIXT.1.1|9=55|35=0|34=258|49=APAQA3|52=20180206-12:25:04.325|56=TRAX|10=099|8=FIXT.1.1|9=55|35=0|34=259|49=APAQA3|52=20180206-12:25:35.300|56=TRAX|10=097|8=FIXT.1.1|9=55|35=0|34=260|49=APAQA3|52=20180206-12:26:05.318|56=TRAX|10=096|8=FIXT.1.1|9=55|35=0|34=261|49=APAQA3|52=20180206-12:26:35.321|56=TRAX|10=094|8=FIXT.1.1|9=55|35=0|34=262|49=APAQA3|52=20180206-12:27:05.326|56=TRAX|10=098|8=FIXT.1.1|9=55|35=0|34=263|49=APAQA3|52=20180206-12:27:36.325|56=TRAX|10=102|8=FIXT.1.1|9=55|35=0|34=264|49=APAQA3|52=20180206-12:28:06.326|56=TRAX|10=102|8=FIXT.1.1|9=55|35=0|34=265|49=APAQA3|52=20180206-12:28:36.326|56=TRAX|10=106|8=FIXT.1.1|9=55|35=0|34=266|49=APAQA3|52=20180206-12:29:07.321|56=TRAX|10=101|8=FIXT.1.1|9=55|35=0|34=267|49=APAQA3|52=20180206-12:29:37.326|56=TRAX|10=110|8=FIXT.1.1|9=55|35=0|34=268|49=APAQA3|52=20180206-12:30:08.309|56=TRAX|10=102|8=FIXT.1.1|9=55|35=0|34=269|49=APAQA3|52=20180206-12:30:38.319|56=TRAX|10=107|8=FIXT.1.1|9=55|35=0|34=270|49=APAQA3|52=20180206-12:31:08.325|56=TRAX|10=094|8=FIXT.1.1|9=55|35=0|34=271|49=APAQA3|52=20180206-12:31:39.325|56=TRAX|10=099|8=FIXT.1.1|9=55|35=0|34=272|49=APAQA3|52=20180206-12:32:09.326|56=TRAX|10=099|8=FIXT.1.1|9=55|35=0|34=273|49=APAQA3|52=20180206-12:32:40.299|56=TRAX|10=104|8=FIXT.1.1|9=55|35=0|34=274|49=APAQA3|52=20180206-12:33:10.318|56=TRAX|10=095|8=FIXT.1.1|9=55|35=0|34=275|49=APAQA3|52=20180206-12:33:41.317|56=TRAX|10=099|8=FIXT.1.1|9=55|35=0|34=276|49=APAQA3|52=20180206-12:34:11.321|56=TRAX|10=093|8=FIXT.1.1|9=55|35=0|34=277|49=APAQA3|52=20180206-12:34:41.324|56=TRAX|10=100|8=FIXT.1.1|9=55|35=0|34=278|49=APAQA3|52=20180206-12:35:11.324|56=TRAX|10=099|8=FIXT.1.1|9=55|35=0|34=279|49=APAQA3|52=20180206-12:35:42.322|56=TRAX|10=102|8=FIXT.1.1|9=55|35=0|34=280|49=APAQA3|52=20180206-12:36:12.325|56=TRAX|10=095|8=FIXT.1.1|9=55|35=0|34=281|49=APAQA3|52=20180206-12:36:42.326|56=TRAX|10=100|8=FIXT.1.1|9=55|35=0|34=282|49=APAQA3|52=20180206-12:37:13.327|56=TRAX|10=101|8=FIXT.1.1|9=55|35=0|34=283|49=APAQA3|52=20180206-12:37:44.322|56=TRAX|10=101|8=FIXT.1.1|9=55|35=0|34=284|49=APAQA3|52=20180206-12:38:14.324|56=TRAX|10=102|8=FIXT.1.1|9=55|35=0|34=285|49=APAQA3|52=20180206-12:38:44.329|56=TRAX|10=111|8=FIXT.1.1|9=55|35=0|34=286|49=APAQA3|52=20180206-12:39:15.327|56=TRAX|10=109|8=FIXT.1.1|9=55|35=0|34=287|49=APAQA3|52=20180206-12:39:46.328|56=TRAX|10=115|8=FIXT.1.1|9=55|35=0|34=288|49=APAQA3|52=20180206-12:40:16.331|56=TRAX|10=099|8=FIXT.1.1|9=55|35=0|34=289|49=APAQA3|52=20180206-12:40:47.307|56=TRAX|10=107|8=FIXT.1.1|9=55|35=0|34=290|49=APAQA3|52=20180206-12:41:17.331|56=TRAX|10=094|8=FIXT.1.1|9=55|35=0|34=291|49=APAQA3|52=20180206-12:41:48.329|56=TRAX|10=106|8=FIXT.1.1|9=55|35=0|34=292|49=APAQA3|52=20180206-12:42:19.328|56=TRAX|10=105|8=FIXT.1.1|9=55|35=0|34=293|49=APAQA3|52=20180206-12:42:49.764|56=TRAX|10=113|8=FIXT.1.1|9=55|35=0|34=294|49=APAQA3|52=20180206-12:43:19.767|56=TRAX|10=115|8=FIXT.1.1|9=55|35=0|34=295|49=APAQA3|52=20180206-12:43:49.792|56=TRAX|10=117|8=FIXT.1.1|9=55|35=0|34=296|49=APAQA3|52=20180206-12:44:20.331|56=TRAX|10=097|8=FIXT.1.1|9=55|35=0|34=297|49=APAQA3|52=20180206-12:44:51.334|56=TRAX|10=105|8=FIXT.1.1|9=55|35=0|34=298|49=APAQA3|52=20180206-12:45:22.333|56=TRAX|10=104|8=FIXT.1.1|9=55|35=0|34=299|49=APAQA3|52=20180206-12:45:53.328|56=TRAX|10=113|8=FIXT.1.1|9=55|35=0|34=300|49=APAQA3|52=20180206-12:46:24.309|56=TRAX|10=094|8=FIXT.1.1|9=55|35=0|34=301|49=APAQA3|52=20180206-12:46:54.335|56=TRAX|10=097|8=FIXT.1.1|9=55|35=0|34=302|49=APAQA3|52=20180206-12:47:24.336|56=TRAX|10=097|8=FIXT.1.1|9=55|35=0|34=303|49=APAQA3|52=20180206-12:47:54.336|56=TRAX|10=101|8=FIXT.1.1|9=55|35=0|34=304|49=APAQA3|52=20180206-12:48:25.335|56=TRAX|10=100|8=FIXT.1.1|9=55|35=0|34=305|49=APAQA3|52=20180206-12:48:56.331|56=TRAX|10=101|8=FIXT.1.1|9=55|35=0|34=306|49=APAQA3|52=20180206-12:49:27.332|56=TRAX|10=102|8=FIXT.1.1|9=55|35=0|34=307|49=APAQA3|52=20180206-12:49:57.337|56=TRAX|10=111|8=FIXT.1.1|9=55|35=0|34=308|49=APAQA3|52=20180206-12:50:28.336|56=TRAX|10=101|8=FIXT.1.1|9=55|35=0|34=309|49=APAQA3|52=20180206-12:50:58.336|56=TRAX|10=105|8=FIXT.1.1|9=55|35=0|34=310|49=APAQA3|52=20180206-12:51:29.338|56=TRAX|10=098|8=FIXT.1.1|9=55|35=0|34=311|49=APAQA3|52=20180206-12:51:59.338|56=TRAX|10=102|8=FIXT.1.1|9=55|35=0|34=312|49=APAQA3|52=20180206-12:52:30.339|56=TRAX|10=094|8=FIXT.1.1|9=55|35=0|34=313|49=APAQA3|52=20180206-12:53:01.336|56=TRAX|10=091|8=FIXT.1.1|9=55|35=0|34=314|49=APAQA3|52=20180206-12:53:31.342|56=TRAX|10=092|8=FIXT.1.1|9=55|35=0|34=315|49=APAQA3|52=20180206-12:54:02.340|56=TRAX|10=090|8=FIXT.1.1|9=55|35=0|34=316|49=APAQA3|52=20180206-12:54:33.338|56=TRAX|10=102|8=FIXT.1.1|9=55|35=0|34=317|49=APAQA3|52=20180206-12:55:04.334|56=TRAX|10=098|8=FIXT.1.1|9=55|35=0|34=318|49=APAQA3|52=20180206-12:55:34.337|56=TRAX|10=105|8=FIXT.1.1|9=55|35=0|34=319|49=APAQA3|52=20180206-12:56:05.343|56=TRAX|10=102|8=FIXT.1.1|9=55|35=0|34=320|49=APAQA3|52=20180206-12:56:36.336|56=TRAX|10=100|8=FIXT.1.1|9=55|35=0|34=321|49=APAQA3|52=20180206-12:57:06.341|56=TRAX|10=095|8=FIXT.1.1|9=55|35=0|34=322|49=APAQA3|52=20180206-12:57:36.343|56=TRAX|10=101|8=FIXT.1.1|9=55|35=0|34=323|49=APAQA3|52=20180206-12:58:07.338|56=TRAX|10=105|8=FIXT.1.1|9=55|35=0|34=324|49=APAQA3|52=20180206-12:58:37.345|56=TRAX|10=107|8=FIXT.1.1|9=55|35=0|34=325|49=APAQA3|52=20180206-12:59:08.344|56=TRAX|10=106|8=FIXT.1.1|9=55|35=0|34=326|49=APAQA3|52=20180206-12:59:39.341|56=TRAX|10=108|8=FIXT.1.1|9=55|35=0|34=327|49=APAQA3|52=20180206-13:00:10.343|56=TRAX|10=087|8=FIXT.1.1|9=55|35=0|34=328|49=APAQA3|52=20180206-13:00:41.348|56=TRAX|10=097|8=FIXT.1.1|9=55|35=0|34=329|49=APAQA3|52=20180206-13:01:12.345|56=TRAX|10=094|8=FIXT.1.1|9=55|35=0|34=330|49=APAQA3|52=20180206-13:01:42.350|56=TRAX|10=085|8=FIXT.1.1|9=55|35=0|34=331|49=APAQA3|52=20180206-13:02:13.342|56=TRAX|10=086|8=FIXT.1.1|9=55|35=0|34=332|49=APAQA3|52=20180206-13:02:43.344|56=TRAX|10=092|8=FIXT.1.1|9=55|35=0|34=333|49=APAQA3|52=20180206-13:03:13.347|56=TRAX|10=094|8=FIXT.1.1|9=55|35=0|34=334|49=APAQA3|52=20180206-13:03:44.324|56=TRAX|10=094|8=FIXT.1.1|9=55|35=0|34=335|49=APAQA3|52=20180206-13:04:14.344|56=TRAX|10=095|8=FIXT.1.1|9=55|35=0|34=336|49=APAQA3|52=20180206-13:04:44.348|56=TRAX|10=103|8=FIXT.1.1|9=55|35=0|34=337|49=APAQA3|52=20180206-13:05:15.347|56=TRAX|10=102|8=FIXT.1.1|9=55|35=0|34=338|49=APAQA3|52=20180206-13:05:45.350|56=TRAX|10=100|8=FIXT.1.1|9=55|35=0|34=339|49=APAQA3|52=20180206-13:06:16.326|56=TRAX|10=103|8=FIXT.1.1|9=55|35=0|34=340|49=APAQA3|52=20180206-13:06:46.326|56=TRAX|10=098|8=FIXT.1.1|9=55|35=0|34=341|49=APAQA3|52=20180206-13:07:16.346|56=TRAX|10=099|8=FIXT.1.1|9=55|35=0|34=342|49=APAQA3|52=20180206-13:07:47.345|56=TRAX|10=103|8=FIXT.1.1|9=55|35=0|34=343|49=APAQA3|52=20180206-13:08:17.349|56=TRAX|10=106|8=FIXT.1.1|9=55|35=0|34=344|49=APAQA3|52=20180206-13:08:47.352|56=TRAX|10=104|8=FIXT.1.1|9=55|35=0|34=345|49=APAQA3|52=20180206-13:09:18.327|56=TRAX|10=106|8=FIXT.1.1|9=55|35=0|34=346|49=APAQA3|52=20180206-13:09:48.347|56=TRAX|10=112|8=FIXT.1.1|9=55|35=0|34=347|49=APAQA3|52=20180206-13:10:19.350|56=TRAX|10=097|8=FIXT.1.1|9=55|35=0|34=348|49=APAQA3|52=20180206-13:10:49.779|56=TRAX|10=116|8=FIXT.1.1|9=55|35=0|34=349|49=APAQA3|52=20180206-13:11:20.329|56=TRAX|10=098|8=FIXT.1.1|9=55|35=0|34=350|49=APAQA3|52=20180206-13:11:50.329|56=TRAX|10=093|8=FIXT.1.1|9=55|35=0|34=351|49=APAQA3|52=20180206-13:12:20.350|56=TRAX|10=086|8=FIXT.1.1|9=55|35=0|34=352|49=APAQA3|52=20180206-13:12:51.347|56=TRAX|10=097|8=FIXT.1.1|9=55|35=0|34=353|49=APAQA3|52=20180206-13:13:21.355|56=TRAX|10=095|8=FIXT.1.1|9=55|35=0|34=354|49=APAQA3|52=20180206-13:13:51.358|56=TRAX|10=102|8=FIXT.1.1|9=55|35=0|34=355|49=APAQA3|52=20180206-13:14:21.358|56=TRAX|10=101|8=FIXT.1.1|9=55|35=0|34=356|49=APAQA3|52=20180206-13:14:52.356|56=TRAX|10=104|8=FIXT.1.1|9=55|35=0|34=357|49=APAQA3|52=20180206-13:15:23.355|56=TRAX|10=103|8=FIXT.1.1|9=55|35=0|34=358|49=APAQA3|52=20180206-13:15:54.332|56=TRAX|10=103|8=FIXT.1.1|9=55|35=0|34=359|49=APAQA3|52=20180206-13:16:25.349|56=TRAX|10=111|8=FIXT.1.1|9=55|35=0|34=360|49=APAQA3|52=20180206-13:16:55.350|56=TRAX|10=098|8=FIXT.1.1|9=55|35=0|34=361|49=APAQA3|52=20180206-13:17:25.357|56=TRAX|10=104|8=FIXT.1.1|9=55|35=0|34=362|49=APAQA3|52=20180206-13:17:56.353|56=TRAX|10=105|8=FIXT.1.1|9=55|35=0|34=363|49=APAQA3|52=20180206-13:18:26.356|56=TRAX|10=107|8=FIXT.1.1|9=55|35=0|34=364|49=APAQA3|52=20180206-13:18:57.353|56=TRAX|10=109|8=FIXT.1.1|9=55|35=0|34=365|49=APAQA3|52=20180206-13:19:27.357|56=TRAX|10=112|8=FIXT.1.1|9=55|35=0|34=366|49=APAQA3|52=20180206-13:19:58.360|56=TRAX|10=111|8=FIXT.1.1|9=55|35=0|34=367|49=APAQA3|52=20180206-13:20:29.361|56=TRAX|10=103|8=FIXT.1.1|9=55|35=0|34=368|49=APAQA3|52=20180206-13:21:00.334|56=TRAX|10=094|8=FIXT.1.1|9=55|35=0|34=369|49=APAQA3|52=20180206-13:21:31.360|56=TRAX|10=098|8=FIXT.1.1|9=55|35=0|34=370|49=APAQA3|52=20180206-13:22:02.352|56=TRAX|10=090|8=FIXT.1.1|9=55|35=0|34=371|49=APAQA3|52=20180206-13:22:33.333|56=TRAX|10=094|8=FIXT.1.1|9=55|35=0|34=372|49=APAQA3|52=20180206-13:23:03.333|56=TRAX|10=093|8=FIXT.1.1|9=55|35=0|34=373|49=APAQA3|52=20180206-13:23:33.360|56=TRAX|10=097|8=FIXT.1.1|9=55|35=0|34=374|49=APAQA3|52=20180206-13:24:04.359|56=TRAX|10=105|8=FIXT.1.1|9=55|35=0|34=375|49=APAQA3|52=20180206-13:24:34.359|56=TRAX|10=109|8=FIXT.1.1|9=55|35=0|34=376|49=APAQA3|52=20180206-13:25:05.361|56=TRAX|10=102|8=FIXT.1.1|9=55|35=0|34=377|49=APAQA3|52=20180206-13:25:35.361|56=TRAX|10=106|8=FIXT.1.1|9=55|35=0|34=378|49=APAQA3|52=20180206-13:26:06.335|56=TRAX|10=107|8=FIXT.1.1|9=55|35=0|34=379|49=APAQA3|52=20180206-13:26:36.356|56=TRAX|10=114|8=FIXT.1.1|9=55|35=0|34=380|49=APAQA3|52=20180206-13:27:07.354|56=TRAX|10=103|8=FIXT.1.1|9=55|35=0|34=381|49=APAQA3|52=20180206-13:27:37.359|56=TRAX|10=112|8=FIXT.1.1|9=55|35=0|34=382|49=APAQA3|52=20180206-13:28:07.364|56=TRAX|10=107|8=FIXT.1.1|9=55|35=0|34=383|49=APAQA3|52=20180206-13:28:38.356|56=TRAX|10=113|8=FIXT.1.1|9=55|35=0|34=384|49=APAQA3|52=20180206-13:29:08.357|56=TRAX|10=113|8=FIXT.1.1|9=55|35=0|34=385|49=APAQA3|52=20180206-13:29:38.357|56=TRAX|10=117|8=FIXT.1.1|9=55|35=0|34=386|49=APAQA3|52=20180206-13:30:08.361|56=TRAX|10=102|8=FIXT.1.1|9=55|35=0|34=387|49=APAQA3|52=20180206-13:30:38.363|56=TRAX|10=108|8=FIXT.1.1|9=55|35=0|34=388|49=APAQA3|52=20180206-13:31:09.361|56=TRAX|10=106|8=FIXT.1.1|9=55|35=0|34=389|49=APAQA3|52=20180206-13:31:39.362|56=TRAX|10=111|8=FIXT.1.1|9=55|35=0|34=390|49=APAQA3|52=20180206-13:32:09.364|56=TRAX|10=103|8=FIXT.1.1|9=55|35=0|34=391|49=APAQA3|52=20180206-13:32:39.365|56=TRAX|10=108|8=FIXT.1.1|9=55|35=0|34=392|49=APAQA3|52=20180206-13:33:10.363|56=TRAX|10=097|8=FIXT.1.1|9=55|35=0|34=393|49=APAQA3|52=20180206-13:33:40.363|56=TRAX|10=101|8=FIXT.1.1|9=55|35=0|34=394|49=APAQA3|52=20180206-13:34:10.365|56=TRAX|10=102|8=FIXT.1.1|9=55|35=0|34=395|49=APAQA3|52=20180206-13:34:40.367|56=TRAX|10=108|8=FIXT.1.1|9=55|35=0|34=396|49=APAQA3|52=20180206-13:35:11.366|56=TRAX|10=107|8=FIXT.1.1|9=55|35=0|34=397|49=APAQA3|52=20180206-13:35:41.370|56=TRAX|10=106|8=FIXT.1.1|9=55|35=0|34=398|49=APAQA3|52=20180206-13:36:12.369|56=TRAX|10=114|8=FIXT.1.1|9=55|35=0|34=399|49=APAQA3|52=20180206-13:36:42.378|56=TRAX|10=118|8=FIXT.1.1|9=55|35=0|34=400|49=APAQA3|52=20180206-13:37:13.374|56=TRAX|10=096|8=FIXT.1.1|9=55|35=0|34=401|49=APAQA3|52=20180206-13:37:43.380|56=TRAX|10=097|8=FIXT.1.1|9=55|35=0|34=402|49=APAQA3|52=20180206-13:38:13.385|56=TRAX|10=101|8=FIXT.1.1|9=55|35=0|34=403|49=APAQA3|52=20180206-13:38:43.392|56=TRAX|10=103|8=FIXT.1.1|9=55|35=0|34=404|49=APAQA3|52=20180206-13:39:13.398|56=TRAX|10=108|8=FIXT.1.1|9=55|35=0|34=405|49=APAQA3|52=20180206-13:39:43.400|56=TRAX|10=096|8=FIXT.1.1|9=55|35=0|34=406|49=APAQA3|52=20180206-13:40:13.401|56=TRAX|10=087|8=FIXT.1.1|9=55|35=0|34=407|49=APAQA3|52=20180206-13:40:43.414|56=TRAX|10=095|8=FIXT.1.1|9=55|35=0|34=408|49=APAQA3|52=20180206-13:41:14.391|56=TRAX|10=099|8=FIXT.1.1|9=55|35=0|34=409|49=APAQA3|52=20180206-13:41:44.410|56=TRAX|10=095|8=FIXT.1.1|9=55|35=0|34=410|49=APAQA3|52=20180206-13:42:14.414|56=TRAX|10=089|8=FIXT.1.1|9=55|35=0|34=411|49=APAQA3|52=20180206-13:42:44.419|56=TRAX|10=098|8=FIXT.1.1|9=55|35=0|34=412|49=APAQA3|52=20180206-13:43:14.422|56=TRAX|10=091|8=FIXT.1.1|9=55|35=0|34=413|49=APAQA3|52=20180206-13:43:44.423|56=TRAX|10=096|8=FIXT.1.1|9=55|35=0|34=414|49=APAQA3|52=20180206-13:44:14.426|56=TRAX|10=098|8=FIXT.1.1|9=55|35=0|34=415|49=APAQA3|52=20180206-13:44:44.432|56=TRAX|10=099|8=FIXT.1.1|9=55|35=0|34=416|49=APAQA3|52=20180206-13:45:14.433|56=TRAX|10=099|8=FIXT.1.1|9=55|35=0|34=417|49=APAQA3|52=20180206-13:45:45.433|56=TRAX|10=104|8=FIXT.1.1|9=55|35=0|34=418|49=APAQA3|52=20180206-13:46:16.431|56=TRAX|10=102|8=FIXT.1.1|9=55|35=0|34=419|49=APAQA3|52=20180206-13:46:46.440|56=TRAX|10=106|8=FIXT.1.1|9=55|35=0|34=420|49=APAQA3|52=20180206-13:47:17.441|56=TRAX|10=098|8=FIXT.1.1|9=55|35=0|34=421|49=APAQA3|52=20180206-13:47:48.440|56=TRAX|10=102|8=FIXT.1.1|9=55|35=0|34=422|49=APAQA3|52=20180206-13:48:19.437|56=TRAX|10=108|8=FIXT.1.1|9=55|35=0|34=423|49=APAQA3|52=20180206-13:48:49.445|56=TRAX|10=111|8=FIXT.1.1|9=55|35=0|34=424|49=APAQA3|52=20180206-13:49:19.849|56=TRAX|10=118|8=FIXT.1.1|9=55|35=0|34=425|49=APAQA3|52=20180206-13:49:49.864|56=TRAX|10=119|8=FIXT.1.1|9=55|35=0|34=426|49=APAQA3|52=20180206-13:50:20.440|56=TRAX|10=091|8=FIXT.1.1|9=55|35=0|34=427|49=APAQA3|52=20180206-13:50:50.441|56=TRAX|10=096|8=FIXT.1.1|9=55|35=0|34=428|49=APAQA3|52=20180206-13:51:20.447|56=TRAX|10=101|8=FIXT.1.1|9=55|35=0|34=429|49=APAQA3|52=20180206-13:51:50.449|56=TRAX|10=107|8=FIXT.1.1|9=55|35=0|34=430|49=APAQA3|52=20180206-13:52:20.452|56=TRAX|10=091|8=FIXT.1.1|9=55|35=0|34=431|49=APAQA3|52=20180206-13:52:51.449|56=TRAX|10=102|8=FIXT.1.1|9=55|35=0|34=432|49=APAQA3|52=20180206-13:53:22.446|56=TRAX|10=099|8=FIXT.1.1|9=55|35=0|34=433|49=APAQA3|52=20180206-13:53:52.447|56=TRAX|10=104|8=FIXT.1.1|9=55|35=0|34=434|49=APAQA3|52=20180206-13:54:22.450|56=TRAX|10=097|8=FIXT.1.1|9=55|35=0|34=435|49=APAQA3|52=20180206-13:54:52.450|56=TRAX|10=101|8=FIXT.1.1|9=55|35=0|34=436|49=APAQA3|52=20180206-13:55:23.432|56=TRAX|10=101|8=FIXT.1.1|9=55|35=0|34=437|49=APAQA3|52=20180206-13:55:53.434|56=TRAX|10=107|8=FIXT.1.1|9=55|35=0|34=438|49=APAQA3|52=20180206-13:56:23.434|56=TRAX|10=106|8=FIXT.1.1|9=55|35=0|34=439|49=APAQA3|52=20180206-13:56:54.432|56=TRAX|10=109|8=FIXT.1.1|9=55|35=0|34=440|49=APAQA3|52=20180206-13:57:25.431|56=TRAX|10=099|8=FIXT.1.1|9=55|35=0|34=441|49=APAQA3|52=20180206-13:57:56.430|56=TRAX|10=103|8=FIXT.1.1|9=55|35=0|34=442|49=APAQA3|52=20180206-13:58:27.429|56=TRAX|10=111|8=FIXT.1.1|9=55|35=0|34=443|49=APAQA3|52=20180206-13:58:58.428|56=TRAX|10=115|8=FIXT.1.1|9=55|35=0|34=444|49=APAQA3|52=20180206-13:59:29.426|56=TRAX|10=113|8=FIXT.1.1|9=55|35=0|34=445|49=APAQA3|52=20180206-14:00:00.425|56=TRAX|10=089|8=FIXT.1.1|9=55|35=0|34=446|49=APAQA3|52=20180206-14:00:31.424|56=TRAX|10=093|8=FIXT.1.1|9=55|35=0|34=447|49=APAQA3|52=20180206-14:01:02.423|56=TRAX|10=092|8=FIXT.1.1|9=55|35=0|34=448|49=APAQA3|52=20180206-14:01:33.422|56=TRAX|10=096|8=FIXT.1.1|9=55|35=0|34=449|49=APAQA3|52=20180206-14:02:04.420|56=TRAX|10=094|8=FIXT.1.1|9=55|35=0|34=450|49=APAQA3|52=20180206-14:02:35.419|56=TRAX|10=098|8=FIXT.1.1|9=55|35=0|34=451|49=APAQA3|52=20180206-14:03:06.418|56=TRAX|10=097|8=FIXT.1.1|9=55|35=0|34=452|49=APAQA3|52=20180206-14:03:37.417|56=TRAX|10=101|8=FIXT.1.1|9=55|35=0|34=453|49=APAQA3|52=20180206-14:04:08.416|56=TRAX|10=100|8=FIXT.1.1|9=55|35=0|34=454|49=APAQA3|52=20180206-14:04:39.414|56=TRAX|10=103|8=FIXT.1.1|9=55|35=0|34=455|49=APAQA3|52=20180206-14:05:10.413|56=TRAX|10=093|8=FIXT.1.1|9=55|35=0|34=456|49=APAQA3|52=20180206-14:05:41.412|56=TRAX|10=097|8=FIXT.1.1|9=55|35=0|34=457|49=APAQA3|52=20180206-14:06:12.411|56=TRAX|10=096|8=FIXT.1.1|9=55|35=0|34=458|49=APAQA3|52=20180206-14:06:43.410|56=TRAX|10=100|8=FIXT.1.1|9=55|35=0|34=459|49=APAQA3|52=20180206-14:07:14.408|56=TRAX|10=107|8=FIXT.1.1|9=55|35=0|34=460|49=APAQA3|52=20180206-14:07:45.407|56=TRAX|10=102|8=FIXT.1.1|9=55|35=0|34=461|49=APAQA3|52=20180206-14:08:16.406|56=TRAX|10=101|8=FIXT.1.1|9=55|35=0|34=462|49=APAQA3|52=20180206-14:08:47.405|56=TRAX|10=105|8=FIXT.1.1|9=55|35=0|34=463|49=APAQA3|52=20180206-14:09:18.404|56=TRAX|10=104|8=FIXT.1.1|9=55|35=0|34=464|49=APAQA3|52=20180206-14:09:49.402|56=TRAX|10=107|8=FIXT.1.1|9=55|35=0|34=465|49=APAQA3|52=20180206-14:10:19.820|56=TRAX|10=101|8=FIXT.1.1|9=55|35=0|34=466|49=APAQA3|52=20180206-14:10:50.400|56=TRAX|10=091|8=FIXT.1.1|9=55|35=0|34=467|49=APAQA3|52=20180206-14:11:21.399|56=TRAX|10=108|8=FIXT.1.1|9=55|35=0|34=468|49=APAQA3|52=20180206-14:11:52.398|56=TRAX|10=112|8=FIXT.1.1|9=55|35=0|34=469|49=APAQA3|52=20180206-14:12:23.396|56=TRAX|10=110|8=FIXT.1.1|9=55|35=0|34=470|49=APAQA3|52=20180206-14:12:54.395|56=TRAX|10=105|8=FIXT.1.1|9=55|35=0|34=471|49=APAQA3|52=20180206-14:13:25.394|56=TRAX|10=104|8=FIXT.1.1|9=55|35=0|34=472|49=APAQA3|52=20180206-14:13:56.393|56=TRAX|10=108|8=FIXT.1.1|9=55|35=0|34=473|49=APAQA3|52=20180206-14:14:27.392|56=TRAX|10=107|8=FIXT.1.1|9=55|35=0|34=474|49=APAQA3|52=20180206-14:14:58.391|56=TRAX|10=111|8=FIXT.1.1|9=55|35=0|34=475|49=APAQA3|52=20180206-14:15:29.389|56=TRAX|10=118|8=FIXT.1.1|9=55|35=0|34=476|49=APAQA3|52=20180206-14:16:00.388|56=TRAX|10=108|8=FIXT.1.1|9=55|35=0|34=477|49=APAQA3|52=20180206-14:16:31.387|56=TRAX|10=112|8=FIXT.1.1|9=55|35=0|34=478|49=APAQA3|52=20180206-14:17:02.386|56=TRAX|10=111|8=FIXT.1.1|9=55|35=0|34=479|49=APAQA3|52=20180206-14:17:33.385|56=TRAX|10=115|8=FIXT.1.1|9=55|35=0|34=480|49=APAQA3|52=20180206-14:18:04.383|56=TRAX|10=104|8=FIXT.1.1|9=55|35=0|34=481|49=APAQA3|52=20180206-14:18:35.382|56=TRAX|10=108|8=FIXT.1.1|9=55|35=0|34=482|49=APAQA3|52=20180206-14:19:06.381|56=TRAX|10=107|8=FIXT.1.1|9=55|35=0|34=483|49=APAQA3|52=20180206-14:19:37.380|56=TRAX|10=111|8=FIXT.1.1|9=55|35=0|34=484|49=APAQA3|52=20180206-14:20:08.379|56=TRAX|10=110|8=FIXT.1.1|9=55|35=0|34=485|49=APAQA3|52=20180206-14:20:39.377|56=TRAX|10=113|8=FIXT.1.1|9=55|35=0|34=486|49=APAQA3|52=20180206-14:21:10.376|56=TRAX|10=103|8=FIXT.1.1|9=55|35=0|34=487|49=APAQA3|52=20180206-14:21:41.375|56=TRAX|10=107|8=FIXT.1.1|9=55|35=0|34=488|49=APAQA3|52=20180206-14:22:12.374|56=TRAX|10=106|8=FIXT.1.1|9=55|35=0|34=489|49=APAQA3|52=20180206-14:22:43.373|56=TRAX|10=110|8=FIXT.1.1|9=55|35=0|34=490|49=APAQA3|52=20180206-14:23:14.371|56=TRAX|10=099|8=FIXT.1.1|9=55|35=0|34=491|49=APAQA3|52=20180206-14:23:45.370|56=TRAX|10=103|8=FIXT.1.1|9=55|35=0|34=492|49=APAQA3|52=20180206-14:24:16.369|56=TRAX|10=111|8=FIXT.1.1|9=55|35=0|34=493|49=APAQA3|52=20180206-14:24:47.368|56=TRAX|10=115|8=FIXT.1.1|9=55|35=0|34=494|49=APAQA3|52=20180206-14:25:18.367|56=TRAX|10=114|8=FIXT.1.1|9=55|35=0|34=495|49=APAQA3|52=20180206-14:25:49.365|56=TRAX|10=117|8=FIXT.1.1|9=55|35=0|34=496|49=APAQA3|52=20180206-14:26:19.748|56=TRAX|10=121|8=FIXT.1.1|9=55|35=0|34=497|49=APAQA3|52=20180206-14:26:49.770|56=TRAX|10=120|8=FIXT.1.1|9=55|35=0|34=498|49=APAQA3|52=20180206-14:27:20.362|56=TRAX|10=108|8=FIXT.1.1|9=55|35=0|34=499|49=APAQA3|52=20180206-14:27:51.361|56=TRAX|10=112|8=FIXT.1.1|9=55|35=0|34=500|49=APAQA3|52=20180206-14:28:22.359|56=TRAX|10=101|8=FIXT.1.1|9=55|35=0|34=501|49=APAQA3|52=20180206-14:28:53.358|56=TRAX|10=105|8=FIXT.1.1|9=55|35=0|34=502|49=APAQA3|52=20180206-14:29:24.357|56=TRAX|10=104|8=FIXT.1.1|9=55|35=0|34=503|49=APAQA3|52=20180206-14:29:55.356|56=TRAX|10=108|8=FIXT.1.1|9=55|35=0|34=504|49=APAQA3|52=20180206-14:30:26.355|56=TRAX|10=098|8=FIXT.1.1|9=55|35=0|34=505|49=APAQA3|52=20180206-14:30:57.353|56=TRAX|10=101|8=FIXT.1.1|9=55|35=0|34=506|49=APAQA3|52=20180206-14:31:28.352|56=TRAX|10=100|8=FIXT.1.1|9=55|35=0|34=507|49=APAQA3|52=20180206-14:31:59.351|56=TRAX|10=104|8=FIXT.1.1|9=55|35=0|34=508|49=APAQA3|52=20180206-14:32:30.350|56=TRAX|10=094|8=FIXT.1.1|9=55|35=0|34=509|49=APAQA3|52=20180206-14:33:01.349|56=TRAX|10=102|8=FIXT.1.1|9=55|35=0|34=510|49=APAQA3|52=20180206-14:33:32.347|56=TRAX|10=096|8=FIXT.1.1|9=55|35=0|34=511|49=APAQA3|52=20180206-14:34:03.346|56=TRAX|10=095|8=FIXT.1.1|9=55|35=0|34=512|49=APAQA3|52=20180206-14:34:34.345|56=TRAX|10=099|8=FIXT.1.1|9=55|35=0|34=513|49=APAQA3|52=20180206-14:35:05.344|56=TRAX|10=098|8=FIXT.1.1|9=55|35=0|34=514|49=APAQA3|52=20180206-14:35:36.343|56=TRAX|10=102|8=FIXT.1.1|9=55|35=0|34=515|49=APAQA3|52=20180206-14:36:07.341|56=TRAX|10=100|8=FIXT.1.1|9=55|35=0|34=516|49=APAQA3|52=20180206-14:36:38.340|56=TRAX|10=104|8=FIXT.1.1|9=55|35=0|34=517|49=APAQA3|52=20180206-14:37:09.339|56=TRAX|10=112|8=FIXT.1.1|9=55|35=0|34=518|49=APAQA3|52=20180206-14:37:40.338|56=TRAX|10=107|8=FIXT.1.1|9=55|35=0|34=519|49=APAQA3|52=20180206-14:38:11.337|56=TRAX|10=106|8=FIXT.1.1|9=55|35=0|34=520|49=APAQA3|52=20180206-14:38:42.335|56=TRAX|10=100|8=FIXT.1.1|9=55|35=0|34=521|49=APAQA3|52=20180206-14:39:13.334|56=TRAX|10=099|8=FIXT.1.1|9=55|35=0|34=522|49=APAQA3|52=20180206-14:39:44.333|56=TRAX|10=103|8=FIXT.1.1|9=55|35=0|34=523|49=APAQA3|52=20180206-14:40:15.332|56=TRAX|10=093|8=FIXT.1.1|9=55|35=0|34=524|49=APAQA3|52=20180206-14:40:46.331|56=TRAX|10=097|8=FIXT.1.1|9=55|35=0|34=525|49=APAQA3|52=20180206-14:41:17.329|56=TRAX|10=104|8=FIXT.1.1|9=55|35=0|34=526|49=APAQA3|52=20180206-14:41:48.328|56=TRAX|10=108|8=FIXT.1.1|9=55|35=0|34=527|49=APAQA3|52=20180206-14:42:19.327|56=TRAX|10=107|8=FIXT.1.1|9=55|35=0|34=528|49=APAQA3|52=20180206-14:42:49.703|56=TRAX|10=109|8=FIXT.1.1|9=55|35=0|34=529|49=APAQA3|52=20180206-14:43:19.709|56=TRAX|10=114|8=FIXT.1.1|9=55|35=0|34=530|49=APAQA3|52=20180206-14:43:49.743|56=TRAX|10=107|8=FIXT.1.1|9=55|35=0|34=531|49=APAQA3|52=20180206-14:44:20.322|56=TRAX|10=091|8=FIXT.1.1|9=55|35=0|34=532|49=APAQA3|52=20180206-14:44:51.321|56=TRAX|10=095|8=FIXT.1.1|9=55|35=0|34=533|49=APAQA3|52=20180206-14:45:22.320|56=TRAX|10=094|8=FIXT.1.1|9=55|35=0|34=534|49=APAQA3|52=20180206-14:45:53.319|56=TRAX|10=107|8=FIXT.1.1|9=55|35=0|34=535|49=APAQA3|52=20180206-14:46:24.318|56=TRAX|10=106|8=FIXT.1.1|9=55|35=0|34=536|49=APAQA3|52=20180206-14:46:55.316|56=TRAX|10=109|8=FIXT.1.1|9=55|35=0|34=537|49=APAQA3|52=20180206-14:47:26.315|56=TRAX|10=108|8=FIXT.1.1|9=55|35=0|34=538|49=APAQA3|52=20180206-14:47:57.314|56=TRAX|10=112|8=FIXT.1.1|9=55|35=0|34=539|49=APAQA3|52=20180206-14:48:28.313|56=TRAX|10=111|8=FIXT.1.1|9=55|35=0|34=540|49=APAQA3|52=20180206-14:48:59.312|56=TRAX|10=106|8=FIXT.1.1|9=55|35=0|34=541|49=APAQA3|52=20180206-14:49:30.310|56=TRAX|10=095|8=FIXT.1.1|9=55|35=0|34=542|49=APAQA3|52=20180206-14:50:01.309|56=TRAX|10=094|8=FIXT.1.1|9=55|35=0|34=543|49=APAQA3|52=20180206-14:50:31.335|56=TRAX|10=097|8=FIXT.1.1|9=55|35=0|34=544|49=APAQA3|52=20180206-14:51:02.331|56=TRAX|10=093|8=FIXT.1.1|9=55|35=0|34=545|49=APAQA3|52=20180206-14:51:33.328|56=TRAX|10=104|8=FIXT.1.1|9=55|35=0|34=546|49=APAQA3|52=20180206-14:52:04.332|56=TRAX|10=099|8=FIXT.1.1|9=55|35=0|34=547|49=APAQA3|52=20180206-14:52:34.336|56=TRAX|10=107|8=FIXT.1.1|9=55|35=0|34=548|49=APAQA3|52=20180206-14:53:04.338|56=TRAX|10=108|8=FIXT.1.1|9=55|35=0|34=549|49=APAQA3|52=20180206-14:53:35.334|56=TRAX|10=109|8=FIXT.1.1|9=55|35=0|34=550|49=APAQA3|52=20180206-14:54:06.333|56=TRAX|10=099|8=FIXT.1.1|9=55|35=0|34=551|49=APAQA3|52=20180206-14:54:37.330|56=TRAX|10=101|8=FIXT.1.1|9=55|35=0|34=552|49=APAQA3|52=20180206-14:55:07.333|56=TRAX|10=103|8=FIXT.1.1|9=55|35=0|34=553|49=APAQA3|52=20180206-14:55:37.337|56=TRAX|10=111|8=FIXT.1.1|9=55|35=0|34=554|49=APAQA3|52=20180206-14:56:08.336|56=TRAX|10=110|8=FIXT.1.1|9=55|35=0|34=555|49=APAQA3|52=20180206-14:56:38.341|56=TRAX|10=110|8=FIXT.1.1|9=55|35=0|34=556|49=APAQA3|52=20180206-14:57:09.338|56=TRAX|10=116|8=FIXT.1.1|9=55|35=0|34=557|49=APAQA3|52=20180206-14:57:39.339|56=TRAX|10=121|8=FIXT.1.1|9=55|35=0|34=558|49=APAQA3|52=20180206-14:58:10.341|56=TRAX|10=105|8=FIXT.1.1|9=55|35=0|34=559|49=APAQA3|52=20180206-14:58:41.338|56=TRAX|10=116|8=FIXT.1.1|9=55|35=0|34=560|49=APAQA3|52=20180206-14:59:12.338|56=TRAX|10=107|8=FIXT.1.1|9=55|35=0|34=561|49=APAQA3|52=20180206-14:59:42.342|56=TRAX|10=106|8=FIXT.1.1|9=55|35=0|34=562|49=APAQA3|52=20180206-15:00:12.345|56=TRAX|10=094|8=FIXT.1.1|9=55|35=0|34=563|49=APAQA3|52=20180206-15:00:42.345|56=TRAX|10=098|8=FIXT.1.1|9=55|35=0|34=564|49=APAQA3|52=20180206-15:01:12.345|56=TRAX|10=097|8=FIXT.1.1|9=55|35=0|34=565|49=APAQA3|52=20180206-15:01:43.338|56=TRAX|10=104|8=FIXT.1.1|9=55|35=0|34=566|49=APAQA3|52=20180206-15:02:13.339|56=TRAX|10=104|8=FIXT.1.1|9=55|35=0|34=567|49=APAQA3|52=20180206-15:02:43.340|56=TRAX|10=100|8=FIXT.1.1|9=55|35=0|34=568|49=APAQA3|52=20180206-15:03:13.348|56=TRAX|10=107|8=FIXT.1.1|9=55|35=0|34=569|49=APAQA3|52=20180206-15:03:44.345|56=TRAX|10=109|8=FIXT.1.1|9=55|35=0|34=570|49=APAQA3|52=20180206-15:04:14.346|56=TRAX|10=100|8=FIXT.1.1|9=55|35=0|34=571|49=APAQA3|52=20180206-15:04:45.322|56=TRAX|10=099|8=FIXT.1.1|9=55|35=0|34=572|49=APAQA3|52=20180206-15:05:15.327|56=TRAX|10=103|8=FIXT.1.1|9=55|35=0|34=573|49=APAQA3|52=20180206-15:05:45.350|56=TRAX|10=103|8=FIXT.1.1|9=55|35=0|34=574|49=APAQA3|52=20180206-15:06:16.348|56=TRAX|10=110|8=FIXT.1.1|9=55|35=0|34=575|49=APAQA3|52=20180206-15:06:46.348|56=TRAX|10=114|8=FIXT.1.1|9=55|35=0|34=576|49=APAQA3|52=20180206-15:07:17.347|56=TRAX|10=113|8=FIXT.1.1|9=55|35=0|34=577|49=APAQA3|52=20180206-15:07:48.331|56=TRAX|10=111|8=FIXT.1.1|9=55|35=0|34=578|49=APAQA3|52=20180206-15:08:18.349|56=TRAX|10=119|8=FIXT.1.1|9=55|35=0|34=579|49=APAQA3|52=20180206-15:08:49.347|56=TRAX|10=122|8=FIXT.1.1|9=55|35=0|34=580|49=APAQA3|52=20180206-15:09:19.350|56=TRAX|10=106|8=FIXT.1.1|9=55|35=0|34=581|49=APAQA3|52=20180206-15:09:49.709|56=TRAX|10=118|8=FIXT.1.1|9=55|35=0|34=582|49=APAQA3|52=20180206-15:10:19.732|56=TRAX|10=104|8=FIXT.1.1|9=55|35=0|34=583|49=APAQA3|52=20180206-15:10:50.347|56=TRAX|10=102|8=FIXT.1.1|9=55|35=0|34=584|49=APAQA3|52=20180206-15:11:20.350|56=TRAX|10=095|8=FIXT.1.1|9=55|35=0|34=585|49=APAQA3|52=20180206-15:11:51.346|56=TRAX|10=105|8=FIXT.1.1|9=55|35=0|34=586|49=APAQA3|52=20180206-15:12:21.352|56=TRAX|10=101|8=FIXT.1.1|9=55|35=0|34=587|49=APAQA3|52=20180206-15:12:52.349|56=TRAX|10=112|8=FIXT.1.1|9=55|35=0|34=588|49=APAQA3|52=20180206-15:13:22.354|56=TRAX|10=107|8=FIXT.1.1|9=55|35=0|34=589|49=APAQA3|52=20180206-15:13:53.350|56=TRAX|10=108|8=FIXT.1.1|9=55|35=0|34=590|49=APAQA3|52=20180206-15:14:24.355|56=TRAX|10=104|8=FIXT.1.1|9=55|35=0|34=591|49=APAQA3|52=20180206-15:14:55.358|56=TRAX|10=112|8=FIXT.1.1|9=55|35=0|34=592|49=APAQA3|52=20180206-15:15:26.354|56=TRAX|10=108|8=FIXT.1.1|9=55|35=0|34=593|49=APAQA3|52=20180206-15:15:57.350|56=TRAX|10=109|8=FIXT.1.1|9=55|35=0|34=594|49=APAQA3|52=20180206-15:16:27.360|56=TRAX|10=109|8=FIXT.1.1|9=55|35=0|34=595|49=APAQA3|52=20180206-15:16:57.360|56=TRAX|10=113|8=FIXT.1.1|9=55|35=0|34=596|49=APAQA3|52=20180206-15:17:27.360|56=TRAX|10=112|8=FIXT.1.1|9=55|35=0|34=597|49=APAQA3|52=20180206-15:17:57.360|56=TRAX|10=116|8=FIXT.1.1|9=55|35=0|34=598|49=APAQA3|52=20180206-15:18:28.355|56=TRAX|10=120|8=FIXT.1.1|9=55|35=0|34=599|49=APAQA3|52=20180206-15:18:58.359|56=TRAX|10=128|8=FIXT.1.1|9=55|35=0|34=600|49=APAQA3|52=20180206-15:19:29.335|56=TRAX|10=104|8=FIXT.1.1|9=55|35=0|34=601|49=APAQA3|52=20180206-15:20:00.334|56=TRAX|10=085|8=FIXT.1.1|9=55|35=0|34=602|49=APAQA3|52=20180206-15:20:31.332|56=TRAX|10=088|8=FIXT.1.1|9=55|35=0|34=603|49=APAQA3|52=20180206-15:21:02.331|56=TRAX|10=087|8=FIXT.1.1|9=55|35=0|34=604|49=APAQA3|52=20180206-15:21:33.330|56=TRAX|10=091|8=FIXT.1.1|9=55|35=0|34=605|49=APAQA3|52=20180206-15:22:04.329|56=TRAX|10=099|8=FIXT.1.1|9=55|35=0|34=606|49=APAQA3|52=20180206-15:22:35.328|56=TRAX|10=103|8=FIXT.1.1|9=55|35=0|34=607|49=APAQA3|52=20180206-15:23:06.326|56=TRAX|10=101|8=FIXT.1.1|9=55|35=0|34=608|49=APAQA3|52=20180206-15:23:37.325|56=TRAX|10=105|8=FIXT.1.1|9=55|35=0|34=609|49=APAQA3|52=20180206-15:24:08.324|56=TRAX|10=104|8=FIXT.1.1|9=55|35=0|34=610|49=APAQA3|52=20180206-15:24:39.323|56=TRAX|10=099|8=FIXT.1.1|9=55|35=0|34=611|49=APAQA3|52=20180206-15:25:10.322|56=TRAX|10=089|8=FIXT.1.1|9=55|35=0|34=612|49=APAQA3|52=20180206-15:25:41.321|56=TRAX|10=093|8=FIXT.1.1|9=55|35=0|34=613|49=APAQA3|52=20180206-15:26:12.319|56=TRAX|10=100|8=FIXT.1.1|9=55|35=0|34=614|49=APAQA3|52=20180206-15:26:43.318|56=TRAX|10=104|8=FIXT.1.1|9=55|35=0|34=615|49=APAQA3|52=20180206-15:27:14.317|56=TRAX|10=103|8=FIXT.1.1|9=55|35=0|34=616|49=APAQA3|52=20180206-15:27:45.316|56=TRAX|10=107|8=FIXT.1.1|9=55|35=0|34=617|49=APAQA3|52=20180206-15:28:16.314|56=TRAX|10=105|8=FIXT.1.1|9=55|35=0|34=618|49=APAQA3|52=20180206-15:28:47.313|56=TRAX|10=109|8=FIXT.1.1|9=55|35=0|34=619|49=APAQA3|52=20180206-15:29:17.338|56=TRAX|10=115|8=FIXT.1.1|9=55|35=0|34=620|49=APAQA3|52=20180206-15:29:47.340|56=TRAX|10=103|8=FIXT.1.1|9=55|35=0|34=621|49=APAQA3|52=20180206-15:30:18.334|56=TRAX|10=097|8=FIXT.1.1|9=55|35=0|34=622|49=APAQA3|52=20180206-15:30:49.333|56=TRAX|10=101|8=FIXT.1.1|9=55|35=0|34=623|49=APAQA3|52=20180206-15:31:19.337|56=TRAX|10=104|8=FIXT.1.1|9=55|35=0|34=624|49=APAQA3|52=20180206-15:31:49.337|56=TRAX|10=108|8=FIXT.1.1|9=55|35=0|34=625|49=APAQA3|52=20180206-15:32:19.339|56=TRAX|10=109|8=FIXT.1.1|9=55|35=0|34=626|49=APAQA3|52=20180206-15:32:49.340|56=TRAX|10=105|8=FIXT.1.1|9=55|35=0|34=627|49=APAQA3|52=20180206-15:33:19.683|56=TRAX|10=114|8=FIXT.1.1|9=55|35=0|34=628|49=APAQA3|52=20180206-15:33:49.708|56=TRAX|10=116|8=FIXT.1.1|9=55|35=0|34=629|49=APAQA3|52=20180206-15:34:20.343|56=TRAX|10=102|8=FIXT.1.1|9=55|35=0|34=630|49=APAQA3|52=20180206-15:34:50.343|56=TRAX|10=097|8=FIXT.1.1|9=55|35=0|34=631|49=APAQA3|52=20180206-15:35:21.337|56=TRAX|10=100|8=FIXT.1.1|9=55|35=0|34=632|49=APAQA3|52=20180206-15:35:51.338|56=TRAX|10=105|8=FIXT.1.1|9=55|35=0|34=633|49=APAQA3|52=20180206-15:36:21.342|56=TRAX|10=099|8=FIXT.1.1|9=55|35=0|34=634|49=APAQA3|52=20180206-15:36:51.345|56=TRAX|10=106|8=FIXT.1.1|9=55|35=0|34=635|49=APAQA3|52=20180206-15:37:22.318|56=TRAX|10=106|8=FIXT.1.1|9=55|35=0|34=636|49=APAQA3|52=20180206-15:37:52.344|56=TRAX|10=109|8=FIXT.1.1|9=55|35=0|34=637|49=APAQA3|52=20180206-15:38:23.341|56=TRAX|10=106|8=FIXT.1.1|9=55|35=0|34=638|49=APAQA3|52=20180206-15:38:54.319|56=TRAX|10=116|8=FIXT.1.1|9=55|35=0|34=639|49=APAQA3|52=20180206-15:39:24.342|56=TRAX|10=111|8=FIXT.1.1|9=55|35=0|34=640|49=APAQA3|52=20180206-15:39:54.342|56=TRAX|10=106|8=FIXT.1.1|9=55|35=0|34=641|49=APAQA3|52=20180206-15:40:25.346|56=TRAX|10=101|8=FIXT.1.1|9=55|35=0|34=642|49=APAQA3|52=20180206-15:40:56.346|56=TRAX|10=106|8=FIXT.1.1|9=55|35=0|34=643|49=APAQA3|52=20180206-15:41:26.348|56=TRAX|10=107|8=FIXT.1.1|9=55|35=0|34=644|49=APAQA3|52=20180206-15:41:57.339|56=TRAX|10=112|8=FIXT.1.1|9=55|35=0|34=645|49=APAQA3|52=20180206-15:42:27.342|56=TRAX|10=105|8=FIXT.1.1|9=55|35=0|34=646|49=APAQA3|52=20180206-15:42:58.343|56=TRAX|10=111|8=FIXT.1.1|9=55|35=0|34=647|49=APAQA3|52=20180206-15:43:28.345|56=TRAX|10=112|8=FIXT.1.1|9=55|35=0|34=648|49=APAQA3|52=20180206-15:43:59.322|56=TRAX|10=112|8=FIXT.1.1|9=55|35=0|34=649|49=APAQA3|52=20180206-15:44:29.347|56=TRAX|10=118|8=FIXT.1.1|9=55|35=0|34=650|49=APAQA3|52=20180206-15:44:59.349|56=TRAX|10=115|8=FIXT.1.1|9=55|35=0|34=651|49=APAQA3|52=20180206-15:45:30.341|56=TRAX|10=098|8=FIXT.1.1|9=55|35=0|34=652|49=APAQA3|52=20180206-15:46:01.351|56=TRAX|10=099|8=FIXT.1.1|9=55|35=0|34=653|49=APAQA3|52=20180206-15:46:31.351|56=TRAX|10=103|8=FIXT.1.1|9=55|35=0|34=654|49=APAQA3|52=20180206-15:47:02.334|56=TRAX|10=104|8=FIXT.1.1|9=55|35=0|34=655|49=APAQA3|52=20180206-15:47:32.344|56=TRAX|10=109|8=FIXT.1.1|9=55|35=0|34=656|49=APAQA3|52=20180206-15:48:02.350|56=TRAX|10=105|8=FIXT.1.1|9=55|35=0|34=657|49=APAQA3|52=20180206-15:48:33.325|56=TRAX|10=112|8=FIXT.1.1|9=55|35=0|34=658|49=APAQA3|52=20180206-15:49:03.349|56=TRAX|10=117|8=FIXT.1.1|9=55|35=0|34=659|49=APAQA3|52=20180206-15:49:33.351|56=TRAX|10=114|8=FIXT.1.1|9=55|35=0|34=660|49=APAQA3|52=20180206-15:50:04.346|56=TRAX|10=100|8=FIXT.1.1|9=55|35=0|34=661|49=APAQA3|52=20180206-15:50:34.352|56=TRAX|10=101|8=FIXT.1.1|9=55|35=0|34=662|49=APAQA3|52=20180206-15:51:05.350|56=TRAX|10=099|8=FIXT.1.1|9=55|35=0|34=663|49=APAQA3|52=20180206-15:51:36.354|56=TRAX|10=108|8=FIXT.1.1|9=55|35=0|34=664|49=APAQA3|52=20180206-15:52:07.342|56=TRAX|10=105|8=FIXT.1.1|9=55|35=0|34=665|49=APAQA3|52=20180206-15:52:37.348|56=TRAX|10=115|8=FIXT.1.1|9=55|35=0|34=666|49=APAQA3|52=20180206-15:53:07.350|56=TRAX|10=107|8=FIXT.1.1|9=55|35=0|34=667|49=APAQA3|52=20180206-15:53:37.355|56=TRAX|10=116|8=FIXT.1.1|9=55|35=0|34=668|49=APAQA3|52=20180206-15:54:08.357|56=TRAX|10=118|8=FIXT.1.1|9=55|35=0|34=669|49=APAQA3|52=20180206-15:54:39.349|56=TRAX|10=124|8=FIXT.1.1|9=55|35=0|34=670|49=APAQA3|52=20180206-15:55:09.352|56=TRAX|10=108|8=FIXT.1.1|9=55|35=0|34=671|49=APAQA3|52=20180206-15:55:39.357|56=TRAX|10=117|8=FIXT.1.1|9=55|35=0|34=672|49=APAQA3|52=20180206-15:56:10.357|56=TRAX|10=108|8=FIXT.1.1|9=55|35=0|34=673|49=APAQA3|52=20180206-15:56:41.353|56=TRAX|10=109|8=FIXT.1.1|9=55|35=0|34=674|49=APAQA3|52=20180206-15:57:11.358|56=TRAX|10=113|8=FIXT.1.1|9=55|35=0|34=675|49=APAQA3|52=20180206-15:57:41.358|56=TRAX|10=117|8=FIXT.1.1|9=55|35=0|34=676|49=APAQA3|52=20180206-15:58:12.352|56=TRAX|10=111|8=FIXT.1.1|9=55|35=0|34=677|49=APAQA3|52=20180206-15:58:42.356|56=TRAX|10=119|8=FIXT.1.1|9=55|35=0|34=678|49=APAQA3|52=20180206-15:59:12.359|56=TRAX|10=121|8=FIXT.1.1|9=55|35=0|34=679|49=APAQA3|52=20180206-15:59:42.360|56=TRAX|10=117|8=FIXT.1.1|9=55|35=0|34=680|49=APAQA3|52=20180206-16:00:13.355|56=TRAX|10=098|8=FIXT.1.1|9=55|35=0|34=681|49=APAQA3|52=20180206-16:00:43.361|56=TRAX|10=099|8=FIXT.1.1|9=55|35=0|34=682|49=APAQA3|52=20180206-16:01:14.358|56=TRAX|10=105|8=FIXT.1.1|9=55|35=0|34=683|49=APAQA3|52=20180206-16:01:44.360|56=TRAX|10=102|8=FIXT.1.1|9=55|35=0|34=684|49=APAQA3|52=20180206-16:02:15.361|56=TRAX|10=103|8=FIXT.1.1|9=55|35=0|34=685|49=APAQA3|52=20180206-16:02:46.364|56=TRAX|10=111|8=FIXT.1.1|9=55|35=0|34=686|49=APAQA3|52=20180206-16:03:16.364|56=TRAX|10=110|8=FIXT.1.1|9=55|35=0|34=687|49=APAQA3|52=20180206-16:03:47.363|56=TRAX|10=114|8=FIXT.1.1|9=55|35=0|34=688|49=APAQA3|52=20180206-16:04:17.366|56=TRAX|10=116|8=FIXT.1.1|9=55|35=0|34=689|49=APAQA3|52=20180206-16:04:48.361|56=TRAX|10=116|8=FIXT.1.1|9=55|35=0|34=690|49=APAQA3|52=20180206-16:05:18.361|56=TRAX|10=106|8=FIXT.1.1|9=55|35=0|34=691|49=APAQA3|52=20180206-16:05:49.366|56=TRAX|10=116|8=FIXT.1.1|9=55|35=0|34=692|49=APAQA3|52=20180206-16:06:19.367|56=TRAX|10=116|8=FIXT.1.1|9=55|35=0|34=693|49=APAQA3|52=20180206-16:06:49.698|56=TRAX|10=127|8=FIXT.1.1|9=55|35=0|34=694|49=APAQA3|52=20180206-16:07:20.363|56=TRAX|10=107|8=FIXT.1.1|9=55|35=0|34=695|49=APAQA3|52=20180206-16:07:50.371|56=TRAX|10=110|8=FIXT.1.1|9=55|35=0|34=696|49=APAQA3|52=20180206-16:08:21.370|56=TRAX|10=109|8=FIXT.1.1|9=55|35=0|34=697|49=APAQA3|52=20180206-16:08:51.371|56=TRAX|10=114|8=FIXT.1.1|9=55|35=0|34=698|49=APAQA3|52=20180206-16:09:22.368|56=TRAX|10=120|8=FIXT.1.1|9=55|35=0|34=699|49=APAQA3|52=20180206-16:09:53.371|56=TRAX|10=119|8=FIXT.1.1|9=55|35=0|34=700|49=APAQA3|52=20180206-16:10:23.373|56=TRAX|10=093|8=FIXT.1.1|9=55|35=0|34=701|49=APAQA3|52=20180206-16:10:54.366|56=TRAX|10=100|8=FIXT.1.1|9=55|35=0|34=702|49=APAQA3|52=20180206-16:11:24.371|56=TRAX|10=095|8=FIXT.1.1|9=55|35=0|34=703|49=APAQA3|52=20180206-16:11:55.372|56=TRAX|10=101|8=FIXT.1.1|9=55|35=0|34=704|49=APAQA3|52=20180206-16:12:26.367|56=TRAX|10=105|8=FIXT.1.1|9=55|35=0|34=705|49=APAQA3|52=20180206-16:12:56.368|56=TRAX|10=110|8=FIXT.1.1|9=55|35=0|34=706|49=APAQA3|52=20180206-16:13:26.372|56=TRAX|10=104|8=FIXT.1.1|9=55|35=0|34=707|49=APAQA3|52=20180206-16:13:56.374|56=TRAX|10=110|8=FIXT.1.1|9=55|35=0|34=708|49=APAQA3|52=20180206-16:14:27.374|56=TRAX|10=110|8=FIXT.1.1|9=55|35=0|34=709|49=APAQA3|52=20180206-16:14:58.369|56=TRAX|10=119|8=FIXT.1.1|9=55|35=0|34=710|49=APAQA3|52=20180206-16:15:28.377|56=TRAX|10=108|8=FIXT.1.1|9=55|35=0|34=711|49=APAQA3|52=20180206-16:15:58.378|56=TRAX|10=113|8=FIXT.1.1|9=55|35=0|34=712|49=APAQA3|52=20180206-16:16:29.377|56=TRAX|10=112|8=FIXT.1.1|9=55|35=0|34=713|49=APAQA3|52=20180206-16:17:00.378|56=TRAX|10=104|8=FIXT.1.1|9=55|35=0|34=714|49=APAQA3|52=20180206-16:17:30.378|56=TRAX|10=108|8=FIXT.1.1|9=55|35=0|34=715|49=APAQA3|52=20180206-16:18:01.376|56=TRAX|10=106|8=FIXT.1.1|9=55|35=0|34=716|49=APAQA3|52=20180206-16:18:32.377|56=TRAX|10=112|8=FIXT.1.1|9=55|35=0|34=717|49=APAQA3|52=20180206-16:19:02.381|56=TRAX|10=106|8=FIXT.1.1|9=55|35=0|34=718|49=APAQA3|52=20180206-16:19:33.382|56=TRAX|10=112|8=FIXT.1.1|9=55|35=0|34=719|49=APAQA3|52=20180206-16:20:04.360|56=TRAX|10=099|8=FIXT.1.1|9=55|35=0|34=720|49=APAQA3|52=20180206-16:20:34.377|56=TRAX|10=102|8=FIXT.1.1|9=55|35=0|34=721|49=APAQA3|52=20180206-16:21:04.381|56=TRAX|10=096|8=FIXT.1.1|9=55|35=0|34=722|49=APAQA3|52=20180206-16:21:35.380|56=TRAX|10=100|8=FIXT.1.1|9=55|35=0|34=723|49=APAQA3|52=20180206-16:22:05.383|56=TRAX|10=102|8=FIXT.1.1|9=55|35=0|34=724|49=APAQA3|52=20180206-16:22:36.377|56=TRAX|10=110|8=FIXT.1.1|9=55|35=0|34=725|49=APAQA3|52=20180206-16:23:07.378|56=TRAX|10=111|8=FIXT.1.1|9=55|35=0|34=726|49=APAQA3|52=20180206-16:23:37.379|56=TRAX|10=116|8=FIXT.1.1|9=55|35=0|34=727|49=APAQA3|52=20180206-16:24:07.381|56=TRAX|10=108|8=FIXT.1.1|9=55|35=0|34=728|49=APAQA3|52=20180206-16:24:37.382|56=TRAX|10=113|8=FIXT.1.1|9=55|35=0|34=729|49=APAQA3|52=20180206-16:25:08.383|56=TRAX|10=114|8=FIXT.1.1|9=55|35=0|34=730|49=APAQA3|52=20180206-16:25:39.380|56=TRAX|10=107|8=FIXT.1.1|9=55|35=0|34=731|49=APAQA3|52=20180206-16:26:09.383|56=TRAX|10=109|8=FIXT.1.1|9=55|35=0|34=732|49=APAQA3|52=20180206-16:26:40.382|56=TRAX|10=104|8=FIXT.1.1|9=55|35=0|34=733|49=APAQA3|52=20180206-16:27:11.365|56=TRAX|10=105|8=FIXT.1.1|9=55|35=0|34=734|49=APAQA3|52=20180206-16:27:41.381|56=TRAX|10=107|8=FIXT.1.1|9=55|35=0|34=735|49=APAQA3|52=20180206-16:28:11.384|56=TRAX|10=109|8=FIXT.1.1|9=55|35=0|34=736|49=APAQA3|52=20180206-16:28:41.389|56=TRAX|10=118|8=FIXT.1.1|9=55|35=0|34=737|49=APAQA3|52=20180206-16:29:11.389|56=TRAX|10=117|8=FIXT.1.1|9=55|35=0|34=738|49=APAQA3|52=20180206-16:29:42.389|56=TRAX|10=122|8=FIXT.1.1|9=55|35=0|34=739|49=APAQA3|52=20180206-16:30:12.391|56=TRAX|10=105|8=FIXT.1.1|9=55|35=0|34=740|49=APAQA3|52=20180206-16:30:42.391|56=TRAX|10=100|8=FIXT.1.1|9=55|35=0|34=741|49=APAQA3|52=20180206-16:31:13.392|56=TRAX|10=101|8=FIXT.1.1|9=55|35=0|34=742|49=APAQA3|52=20180206-16:31:43.393|56=TRAX|10=106|8=FIXT.1.1|9=55|35=0|34=743|49=APAQA3|52=20180206-16:32:14.391|56=TRAX|10=104|8=FIXT.1.1|9=55|35=0|34=744|49=APAQA3|52=20180206-16:32:44.392|56=TRAX|10=109|8=FIXT.1.1|9=55|35=0|34=745|49=APAQA3|52=20180206-16:33:14.394|56=TRAX|10=110|8=FIXT.1.1|9=55|35=0|34=746|49=APAQA3|52=20180206-16:33:45.394|56=TRAX|10=115|8=FIXT.1.1|9=55|35=0|34=747|49=APAQA3|52=20180206-16:34:16.391|56=TRAX|10=112|8=FIXT.1.1|9=55|35=0|34=748|49=APAQA3|52=20180206-16:34:47.380|56=TRAX|10=115|8=FIXT.1.1|9=55|35=0|34=749|49=APAQA3|52=20180206-16:35:17.393|56=TRAX|10=118|8=FIXT.1.1|9=55|35=0|34=750|49=APAQA3|52=20180206-16:35:48.388|56=TRAX|10=118|8=FIXT.1.1|9=55|35=0|34=751|49=APAQA3|52=20180206-16:36:18.394|56=TRAX|10=114|8=FIXT.1.1|9=55|35=0|34=752|49=APAQA3|52=20180206-16:36:48.397|56=TRAX|10=121|8=FIXT.1.1|9=55|35=0|34=753|49=APAQA3|52=20180206-16:37:18.399|56=TRAX|10=122|8=FIXT.1.1|9=55|35=0|34=754|49=APAQA3|52=20180206-16:37:49.395|56=TRAX|10=123|8=FIXT.1.1|9=55|35=0|34=755|49=APAQA3|52=20180206-16:38:19.700|56=TRAX|10=112|8=FIXT.1.1|9=55|35=0|34=756|49=APAQA3|52=20180206-16:38:49.711|56=TRAX|10=118|8=FIXT.1.1|9=55|35=0|34=757|49=APAQA3|52=20180206-16:39:19.714|56=TRAX|10=120|8=FIXT.1.1|9=55|35=0|34=758|49=APAQA3|52=20180206-16:39:50.397|56=TRAX|10=123|8=FIXT.1.1|9=55|35=0|34=759|49=APAQA3|52=20180206-16:40:21.394|56=TRAX|10=111|8=FIXT.1.1|9=55|35=0|34=760|49=APAQA3|52=20180206-16:40:51.399|56=TRAX|10=111|8=FIXT.1.1|9=55|35=0|34=761|49=APAQA3|52=20180206-16:41:21.401|56=TRAX|10=094|8=FIXT.1.1|9=55|35=0|34=762|49=APAQA3|52=20180206-16:41:51.402|56=TRAX|10=099|8=FIXT.1.1|9=55|35=0|34=763|49=APAQA3|52=20180206-16:42:22.376|56=TRAX|10=109|8=FIXT.1.1|9=55|35=0|34=764|49=APAQA3|52=20180206-16:42:52.394|56=TRAX|10=113|8=FIXT.1.1|9=55|35=0|34=765|49=APAQA3|52=20180206-16:43:22.400|56=TRAX|10=100|8=FIXT.1.1|9=55|35=0|34=766|49=APAQA3|52=20180206-16:43:53.376|56=TRAX|10=117|8=FIXT.1.1|9=55|35=0|34=767|49=APAQA3|52=20180206-16:44:24.394|56=TRAX|10=117|8=FIXT.1.1|9=55|35=0|34=768|49=APAQA3|52=20180206-16:44:55.375|56=TRAX|10=121|8=FIXT.1.1|9=55|35=0|34=769|49=APAQA3|52=20180206-16:45:25.399|56=TRAX|10=126|8=FIXT.1.1|9=55|35=0|34=770|49=APAQA3|52=20180206-16:45:56.393|56=TRAX|10=116|8=FIXT.1.1|9=55|35=0|34=771|49=APAQA3|52=20180206-16:46:27.402|56=TRAX|10=107|8=FIXT.1.1|9=55|35=0|34=772|49=APAQA3|52=20180206-16:46:58.400|56=TRAX|10=110|8=FIXT.1.1|9=55|35=0|34=773|49=APAQA3|52=20180206-16:47:29.375|56=TRAX|10=121|8=FIXT.1.1|9=55|35=0|34=774|49=APAQA3|52=20180206-16:48:00.374|56=TRAX|10=111|8=FIXT.1.1|9=55|35=0|34=775|49=APAQA3|52=20180206-16:48:31.372|56=TRAX|10=114|8=FIXT.1.1|9=55|35=0|34=776|49=APAQA3|52=20180206-16:49:02.371|56=TRAX|10=113|8=FIXT.1.1|9=55|35=0|34=777|49=APAQA3|52=20180206-16:49:33.370|56=TRAX|10=117|8=FIXT.1.1|9=55|35=0|34=778|49=APAQA3|52=20180206-16:50:04.369|56=TRAX|10=116|8=FIXT.1.1|9=55|35=0|34=779|49=APAQA3|52=20180206-16:50:34.395|56=TRAX|10=119|8=FIXT.1.1|9=55|35=0|34=780|49=APAQA3|52=20180206-16:51:05.392|56=TRAX|10=107|8=FIXT.1.1|9=55|35=0|34=781|49=APAQA3|52=20180206-16:51:36.369|56=TRAX|10=116|8=FIXT.1.1|9=55|35=0|34=782|49=APAQA3|52=20180206-16:52:06.389|56=TRAX|10=117|8=FIXT.1.1|9=55|35=0|34=783|49=APAQA3|52=20180206-16:52:37.396|56=TRAX|10=120|8=FIXT.1.1|9=55|35=0|34=784|49=APAQA3|52=20180206-16:53:08.392|56=TRAX|10=116|8=FIXT.1.1|9=55|35=0|34=785|49=APAQA3|52=20180206-16:53:39.389|56=TRAX|10=127|8=FIXT.1.1|9=55|35=0|34=786|49=APAQA3|52=20180206-16:54:09.391|56=TRAX|10=119|8=FIXT.1.1|9=55|35=0|34=787|49=APAQA3|52=20180206-16:54:39.392|56=TRAX|10=124|8=FIXT.1.1|9=55|35=0|34=788|49=APAQA3|52=20180206-16:55:09.394|56=TRAX|10=125|8=FIXT.1.1|9=55|35=0|34=789|49=APAQA3|52=20180206-16:55:39.396|56=TRAX|10=131|8=FIXT.1.1|9=55|35=0|34=790|49=APAQA3|52=20180206-16:56:09.396|56=TRAX|10=121|8=FIXT.1.1|9=55|35=0|34=791|49=APAQA3|52=20180206-16:56:40.397|56=TRAX|10=118|8=FIXT.1.1|9=55|35=0|34=792|49=APAQA3|52=20180206-16:57:10.399|56=TRAX|10=119|8=FIXT.1.1|9=55|35=0|34=793|49=APAQA3|52=20180206-16:57:41.396|56=TRAX|10=121|8=FIXT.1.1|9=55|35=0|34=794|49=APAQA3|52=20180206-16:58:11.400|56=TRAX|10=106|8=FIXT.1.1|9=55|35=0|34=795|49=APAQA3|52=20180206-16:58:42.394|56=TRAX|10=123|8=FIXT.1.1|9=55|35=0|34=796|49=APAQA3|52=20180206-16:59:12.401|56=TRAX|10=111|8=FIXT.1.1|9=55|35=0|34=797|49=APAQA3|52=20180206-16:59:43.394|56=TRAX|10=127|8=FIXT.1.1|9=55|35=0|34=798|49=APAQA3|52=20180206-17:00:13.402|56=TRAX|10=102|8=FIXT.1.1|9=55|35=0|34=799|49=APAQA3|52=20180206-17:00:43.402|56=TRAX|10=106|8=FIXT.1.1|9=55|35=0|34=800|49=APAQA3|52=20180206-17:01:13.404|56=TRAX|10=089|8=FIXT.1.1|9=55|35=0|34=801|49=APAQA3|52=20180206-17:01:44.405|56=TRAX|10=095|8=FIXT.1.1|9=55|35=0|34=802|49=APAQA3|52=20180206-17:02:15.401|56=TRAX|10=091|8=FIXT.1.1|9=55|35=0|34=803|49=APAQA3|52=20180206-17:02:46.403|56=TRAX|10=098|8=FIXT.1.1|9=55|35=0|34=804|49=APAQA3|52=20180206-17:03:17.402|56=TRAX|10=097|8=FIXT.1.1|9=55|35=0|34=805|49=APAQA3|52=20180206-17:03:47.406|56=TRAX|10=105|8=FIXT.1.1|9=55|35=0|34=806|49=APAQA3|52=20180206-17:04:18.407|56=TRAX|10=106|8=FIXT.1.1|9=55|35=0|34=807|49=APAQA3|52=20180206-17:04:48.407|56=TRAX|10=110|8=FIXT.1.1|9=55|35=0|34=808|49=APAQA3|52=20180206-17:05:19.406|56=TRAX|10=109|8=FIXT.1.1|9=55|35=0|34=809|49=APAQA3|52=20180206-17:05:49.690|56=TRAX|10=118|8=FIXT.1.1|9=55|35=0|34=810|49=APAQA3|52=20180206-17:06:20.401|56=TRAX|10=090|8=FIXT.1.1|9=55|35=0|34=811|49=APAQA3|52=20180206-17:06:50.406|56=TRAX|10=099|8=FIXT.1.1|9=55|35=0|34=812|49=APAQA3|52=20180206-17:07:20.408|56=TRAX|10=100|8=FIXT.1.1|9=55|35=0|34=813|49=APAQA3|52=20180206-17:07:51.405|56=TRAX|10=102|8=FIXT.1.1|9=55|35=0|34=814|49=APAQA3|52=20180206-17:08:21.405|56=TRAX|10=101|8=FIXT.1.1|9=55|35=0|34=815|49=APAQA3|52=20180206-17:08:52.407|56=TRAX|10=108|8=FIXT.1.1|9=55|35=0|34=816|49=APAQA3|52=20180206-17:09:22.409|56=TRAX|10=109|8=FIXT.1.1|9=55|35=0|34=817|49=APAQA3|52=20180206-17:09:52.412|56=TRAX|10=107|8=FIXT.1.1|9=55|35=0|34=818|49=APAQA3|52=20180206-17:10:23.413|56=TRAX|10=099|8=FIXT.1.1|9=55|35=0|34=819|49=APAQA3|52=20180206-17:10:54.414|56=TRAX|10=105|8=FIXT.1.1|9=55|35=0|34=820|49=APAQA3|52=20180206-17:11:25.412|56=TRAX|10=094|8=FIXT.1.1|9=55|35=0|34=821|49=APAQA3|52=20180206-17:11:55.415|56=TRAX|10=101|8=FIXT.1.1|9=55|35=0|34=822|49=APAQA3|52=20180206-17:12:26.408|56=TRAX|10=103|8=FIXT.1.1|9=55|35=0|34=823|49=APAQA3|52=20180206-17:12:56.414|56=TRAX|10=104|8=FIXT.1.1|9=55|35=0|34=824|49=APAQA3|52=20180206-17:13:26.417|56=TRAX|10=106|8=FIXT.1.1|9=55|35=0|34=825|49=APAQA3|52=20180206-17:13:57.410|56=TRAX|10=104|8=FIXT.1.1|9=55|35=0|34=826|49=APAQA3|52=20180206-17:14:27.417|56=TRAX|10=110|8=FIXT.1.1|9=55|35=0|34=827|49=APAQA3|52=20180206-17:14:58.417|56=TRAX|10=115|8=FIXT.1.1|9=55|35=0|34=828|49=APAQA3|52=20180206-17:15:29.419|56=TRAX|10=117|8=FIXT.1.1|9=55|35=0|34=829|49=APAQA3|52=20180206-17:16:00.413|56=TRAX|10=102|8=FIXT.1.1|9=55|35=0|34=830|49=APAQA3|52=20180206-17:16:30.416|56=TRAX|10=100|8=FIXT.1.1|9=55|35=0|34=831|49=APAQA3|52=20180206-17:17:00.419|56=TRAX|10=102|8=FIXT.1.1|9=55|35=0|34=832|49=APAQA3|52=20180206-17:17:31.421|56=TRAX|10=100|8=FIXT.1.1|9=55|35=0|34=833|49=APAQA3|52=20180206-17:18:02.417|56=TRAX|10=105|8=FIXT.1.1|9=55|35=0|34=834|49=APAQA3|52=20180206-17:18:32.417|56=TRAX|10=109|8=FIXT.1.1|9=55|35=0|34=835|49=APAQA3|52=20180206-17:19:02.417|56=TRAX|10=108|8=FIXT.1.1|9=55|35=0|34=836|49=APAQA3|52=20180206-17:19:33.423|56=TRAX|10=110|8=FIXT.1.1|9=55|35=0|34=837|49=APAQA3|52=20180206-17:20:04.418|56=TRAX|10=105|8=FIXT.1.1|9=55|35=0|34=838|49=APAQA3|52=20180206-17:20:34.424|56=TRAX|10=106|8=FIXT.1.1|9=55|35=0|34=839|49=APAQA3|52=20180206-17:21:05.419|56=TRAX|10=110|8=FIXT.1.1|9=55|35=0|34=840|49=APAQA3|52=20180206-17:21:35.420|56=TRAX|10=097|8=FIXT.1.1|9=55|35=0|34=841|49=APAQA3|52=20180206-17:22:05.421|56=TRAX|10=097|8=FIXT.1.1|9=55|35=0|34=842|49=APAQA3|52=20180206-17:22:35.424|56=TRAX|10=104|8=FIXT.1.1|9=55|35=0|34=843|49=APAQA3|52=20180206-17:23:06.423|56=TRAX|10=103|8=FIXT.1.1|9=55|35=0|34=844|49=APAQA3|52=20180206-17:23:37.421|56=TRAX|10=106|8=FIXT.1.1|9=55|35=0|34=845|49=APAQA3|52=20180206-17:24:07.423|56=TRAX|10=107|8=FIXT.1.1|9=55|35=0|34=846|49=APAQA3|52=20180206-17:24:37.427|56=TRAX|10=115|8=FIXT.1.1|9=55|35=0|34=847|49=APAQA3|52=20180206-17:25:08.424|56=TRAX|10=112|8=FIXT.1.1|9=55|35=0|34=848|49=APAQA3|52=20180206-17:25:38.429|56=TRAX|10=121|8=FIXT.1.1|9=55|35=0|34=849|49=APAQA3|52=20180206-17:26:09.430|56=TRAX|10=113|8=FIXT.1.1|9=55|35=0|34=850|49=APAQA3|52=20180206-17:26:40.421|56=TRAX|10=100|8=FIXT.1.1|9=55|35=0|34=851|49=APAQA3|52=20180206-17:27:10.421|56=TRAX|10=099|8=FIXT.1.1|9=55|35=0|34=852|49=APAQA3|52=20180206-17:27:40.426|56=TRAX|10=108|8=FIXT.1.1|9=55|35=0|34=853|49=APAQA3|52=20180206-17:28:10.430|56=TRAX|10=102|8=FIXT.1.1|9=55|35=0|34=854|49=APAQA3|52=20180206-17:28:40.432|56=TRAX|10=108|8=FIXT.1.1|9=55|35=0|34=855|49=APAQA3|52=20180206-17:29:11.423|56=TRAX|10=108|8=FIXT.1.1|9=55|35=0|34=856|49=APAQA3|52=20180206-17:29:41.427|56=TRAX|10=116|8=FIXT.1.1|9=55|35=0|34=857|49=APAQA3|52=20180206-17:30:11.428|56=TRAX|10=107|8=FIXT.1.1|9=55|35=0|34=858|49=APAQA3|52=20180206-17:30:42.429|56=TRAX|10=113|8=FIXT.1.1|9=55|35=0|34=859|49=APAQA3|52=20180206-17:31:12.434|56=TRAX|10=108|8=FIXT.1.1|9=55|35=0|34=860|49=APAQA3|52=20180206-17:31:43.429|56=TRAX|10=108|8=FIXT.1.1|9=55|35=0|34=861|49=APAQA3|52=20180206-17:32:13.430|56=TRAX|10=099|8=FIXT.1.1|9=55|35=0|34=862|49=APAQA3|52=20180206-17:32:43.435|56=TRAX|10=108|8=FIXT.1.1|9=55|35=0|34=863|49=APAQA3|52=20180206-17:33:14.429|56=TRAX|10=111|8=FIXT.1.1|9=55|35=0|34=864|49=APAQA3|52=20180206-17:33:44.430|56=TRAX|10=107|8=FIXT.1.1|9=55|35=0|34=865|49=APAQA3|52=20180206-17:34:14.435|56=TRAX|10=111|8=FIXT.1.1|9=55|35=0|34=866|49=APAQA3|52=20180206-17:34:45.433|56=TRAX|10=114|8=FIXT.1.1|9=55|35=0|34=867|49=APAQA3|52=20180206-17:35:16.429|56=TRAX|10=119|8=FIXT.1.1|9=55|35=0|34=868|49=APAQA3|52=20180206-17:35:46.438|56=TRAX|10=123|8=FIXT.1.1|9=55|35=0|34=869|49=APAQA3|52=20180206-17:36:17.439|56=TRAX|10=124|8=FIXT.1.1|9=55|35=0|34=870|49=APAQA3|52=20180206-17:36:48.434|56=TRAX|10=115|8=FIXT.1.1|9=55|35=0|34=871|49=APAQA3|52=20180206-17:37:18.436|56=TRAX|10=116|8=FIXT.1.1|9=55|35=0|34=872|49=APAQA3|52=20180206-17:37:49.415|56=TRAX|10=118|8=FIXT.1.1|9=55|35=0|34=873|49=APAQA3|52=20180206-17:38:19.437|56=TRAX|10=121|8=FIXT.1.1|9=55|35=0|34=874|49=APAQA3|52=20180206-17:38:49.439|56=TRAX|10=127|8=FIXT.1.1|9=55|35=0|34=875|49=APAQA3|52=20180206-17:39:19.708|56=TRAX|10=125|8=FIXT.1.1|9=55|35=0|34=876|49=APAQA3|52=20180206-17:39:49.723|56=TRAX|10=126|8=FIXT.1.1|9=55|35=0|34=877|49=APAQA3|52=20180206-17:40:20.441|56=TRAX|10=105|8=FIXT.1.1|9=55|35=0|34=878|49=APAQA3|52=20180206-17:40:51.442|56=TRAX|10=111|8=FIXT.1.1|9=55|35=0|34=879|49=APAQA3|52=20180206-17:41:21.443|56=TRAX|10=111|8=FIXT.1.1|9=55|35=0|34=880|49=APAQA3|52=20180206-17:41:52.441|56=TRAX|10=105|8=FIXT.1.1|9=55|35=0|34=881|49=APAQA3|52=20180206-17:42:22.444|56=TRAX|10=107|8=FIXT.1.1|9=55|35=0|34=882|49=APAQA3|52=20180206-17:42:53.442|56=TRAX|10=110|8=FIXT.1.1|9=55|35=0|34=883|49=APAQA3|52=20180206-17:43:23.447|56=TRAX|10=114|8=FIXT.1.1|9=55|35=0|34=884|49=APAQA3|52=20180206-17:43:54.442|56=TRAX|10=114|8=FIXT.1.1|9=55|35=0|34=885|49=APAQA3|52=20180206-17:44:24.446|56=TRAX|10=117|8=FIXT.1.1|9=55|35=0|34=886|49=APAQA3|52=20180206-17:44:55.449|56=TRAX|10=125|8=FIXT.1.1|9=55|35=0|34=887|49=APAQA3|52=20180206-17:45:25.449|56=TRAX|10=124|8=FIXT.1.1|9=55|35=0|34=888|49=APAQA3|52=20180206-17:45:56.442|56=TRAX|10=122|8=FIXT.1.1|9=55|35=0|34=889|49=APAQA3|52=20180206-17:46:26.446|56=TRAX|10=125|8=FIXT.1.1|9=55|35=0|34=890|49=APAQA3|52=20180206-17:46:57.447|56=TRAX|10=122|8=FIXT.1.1|9=55|35=0|34=891|49=APAQA3|52=20180206-17:47:27.447|56=TRAX|10=121|8=FIXT.1.1|9=55|35=0|34=892|49=APAQA3|52=20180206-17:47:58.448|56=TRAX|10=127|8=FIXT.1.1|9=55|35=0|34=893|49=APAQA3|52=20180206-17:48:29.447|56=TRAX|10=126|8=FIXT.1.1|9=55|35=0|34=894|49=APAQA3|52=20180206-17:49:00.446|56=TRAX|10=116|8=FIXT.1.1|9=55|35=0|34=895|49=APAQA3|52=20180206-17:49:30.448|56=TRAX|10=122|8=FIXT.1.1|9=55|35=0|34=896|49=APAQA3|52=20180206-17:50:01.446|56=TRAX|10=111|8=FIXT.1.1|9=55|35=0|34=897|49=APAQA3|52=20180206-17:50:31.446|56=TRAX|10=115|8=FIXT.1.1|9=55|35=0|34=898|49=APAQA3|52=20180206-17:51:01.449|56=TRAX|10=117|8=FIXT.1.1|9=55|35=0|34=899|49=APAQA3|52=20180206-17:51:32.446|56=TRAX|10=119|8=FIXT.1.1|9=55|35=0|34=900|49=APAQA3|52=20180206-17:52:02.455|56=TRAX|10=100|8=FIXT.1.1|9=55|35=0|34=901|49=APAQA3|52=20180206-17:52:33.448|56=TRAX|10=107|8=FIXT.1.1|9=55|35=0|34=902|49=APAQA3|52=20180206-17:53:03.452|56=TRAX|10=101|8=FIXT.1.1|9=55|35=0|34=903|49=APAQA3|52=20180206-17:53:34.449|56=TRAX|10=112|8=FIXT.1.1|9=55|35=0|34=904|49=APAQA3|52=20180206-17:54:04.451|56=TRAX|10=104|8=FIXT.1.1|9=55|35=0|34=905|49=APAQA3|52=20180206-17:54:34.454|56=TRAX|10=111|8=FIXT.1.1|9=55|35=0|34=906|49=APAQA3|52=20180206-17:55:04.455|56=TRAX|10=111|8=FIXT.1.1|9=55|35=0|34=907|49=APAQA3|52=20180206-17:55:35.450|56=TRAX|10=111|8=FIXT.1.1|9=55|35=0|34=908|49=APAQA3|52=20180206-17:56:05.457|56=TRAX|10=117|8=FIXT.1.1|9=55|35=0|34=909|49=APAQA3|52=20180206-17:56:36.456|56=TRAX|10=121|8=FIXT.1.1|9=55|35=0|34=910|49=APAQA3|52=20180206-17:57:06.459|56=TRAX|10=114|8=FIXT.1.1|9=55|35=0|34=911|49=APAQA3|52=20180206-17:57:37.453|56=TRAX|10=113|8=FIXT.1.1|9=55|35=0|34=912|49=APAQA3|52=20180206-17:58:07.461|56=TRAX|10=111|8=FIXT.1.1|9=55|35=0|34=913|49=APAQA3|52=20180206-17:58:38.453|56=TRAX|10=117|8=FIXT.1.1|9=55|35=0|34=914|49=APAQA3|52=20180206-17:59:08.457|56=TRAX|10=120|8=FIXT.1.1|9=55|35=0|34=915|49=APAQA3|52=20180206-17:59:39.459|56=TRAX|10=127|8=FIXT.1.1|9=55|35=0|34=916|49=APAQA3|52=20180206-18:00:09.461|56=TRAX|10=105|8=FIXT.1.1|9=55|35=0|34=917|49=APAQA3|52=20180206-18:00:39.463|56=TRAX|10=111|8=FIXT.1.1|9=55|35=0|34=918|49=APAQA3|52=20180206-18:01:09.463|56=TRAX|10=110|8=FIXT.1.1|9=55|35=0|34=919|49=APAQA3|52=20180206-18:01:40.460|56=TRAX|10=103|8=FIXT.1.1|9=55|35=0|34=920|49=APAQA3|52=20180206-18:02:11.459|56=TRAX|10=102|8=FIXT.1.1|9=55|35=0|34=921|49=APAQA3|52=20180206-18:02:41.462|56=TRAX|10=100|8=FIXT.1.1|9=55|35=0|34=922|49=APAQA3|52=20180206-18:03:12.458|56=TRAX|10=105|8=FIXT.1.1|9=55|35=0|34=923|49=APAQA3|52=20180206-18:03:42.466|56=TRAX|10=108|8=FIXT.1.1|9=55|35=0|34=924|49=APAQA3|52=20180206-18:04:13.462|56=TRAX|10=104|8=FIXT.1.1|9=55|35=0|34=925|49=APAQA3|52=20180206-18:04:43.463|56=TRAX|10=109|8=FIXT.1.1|9=55|35=0|34=926|49=APAQA3|52=20180206-18:05:14.460|56=TRAX|10=106|8=FIXT.1.1|9=55|35=0|34=927|49=APAQA3|52=20180206-18:05:44.465|56=TRAX|10=115|8=FIXT.1.1|9=55|35=0|34=928|49=APAQA3|52=20180206-18:06:14.465|56=TRAX|10=114|8=FIXT.1.1|9=55|35=0|34=929|49=APAQA3|52=20180206-18:06:44.466|56=TRAX|10=119|8=FIXT.1.1|9=55|35=0|34=930|49=APAQA3|52=20180206-18:07:15.465|56=TRAX|10=109|8=FIXT.1.1|9=55|35=0|34=931|49=APAQA3|52=20180206-18:07:45.468|56=TRAX|10=116|8=FIXT.1.1|9=55|35=0|34=932|49=APAQA3|52=20180206-18:08:15.472|56=TRAX|10=110|8=FIXT.1.1|9=55|35=0|34=933|49=APAQA3|52=20180206-18:08:46.467|56=TRAX|10=119|8=FIXT.1.1|9=55|35=0|34=934|49=APAQA3|52=20180206-18:09:16.468|56=TRAX|10=119|8=FIXT.1.1|9=55|35=0|34=935|49=APAQA3|52=20180206-18:09:46.472|56=TRAX|10=118|8=FIXT.1.1|9=55|35=0|34=936|49=APAQA3|52=20180206-18:10:17.472|56=TRAX|10=109|8=FIXT.1.1|9=55|35=0|34=937|49=APAQA3|52=20180206-18:10:48.468|56=TRAX|10=119|8=FIXT.1.1|9=55|35=0|34=938|49=APAQA3|52=20180206-18:11:18.469|56=TRAX|10=119|8=FIXT.1.1|9=55|35=0|34=939|49=APAQA3|52=20180206-18:11:48.470|56=TRAX|10=115|8=FIXT.1.1|9=55|35=0|34=940|49=APAQA3|52=20180206-18:12:18.475|56=TRAX|10=110|8=FIXT.1.1|9=55|35=0|34=941|49=APAQA3|52=20180206-18:12:49.475|56=TRAX|10=115|8=FIXT.1.1|9=55|35=0|34=942|49=APAQA3|52=20180206-18:13:19.733|56=TRAX|10=111|8=FIXT.1.1|9=55|35=0|34=943|49=APAQA3|52=20180206-18:13:50.472|56=TRAX|10=107|8=FIXT.1.1|9=55|35=0|34=944|49=APAQA3|52=20180206-18:14:20.477|56=TRAX|10=111|8=FIXT.1.1|9=55|35=0|34=945|49=APAQA3|52=20180206-18:14:51.473|56=TRAX|10=112|8=FIXT.1.1|9=55|35=0|34=946|49=APAQA3|52=20180206-18:15:21.473|56=TRAX|10=111|8=FIXT.1.1|9=55|35=0|34=947|49=APAQA3|52=20180206-18:15:52.472|56=TRAX|10=115|8=FIXT.1.1|9=55|35=0|34=948|49=APAQA3|52=20180206-18:16:22.478|56=TRAX|10=120|8=FIXT.1.1|9=55|35=0|34=949|49=APAQA3|52=20180206-18:16:53.476|56=TRAX|10=123|8=FIXT.1.1|9=55|35=0|34=950|49=APAQA3|52=20180206-18:17:23.477|56=TRAX|10=114|8=FIXT.1.1|9=55|35=0|34=951|49=APAQA3|52=20180206-18:17:54.476|56=TRAX|10=118|8=FIXT.1.1|9=55|35=0|34=952|49=APAQA3|52=20180206-18:18:24.482|56=TRAX|10=114|8=FIXT.1.1|9=55|35=0|34=953|49=APAQA3|52=20180206-18:18:55.481|56=TRAX|10=118|8=FIXT.1.1|9=55|35=0|34=954|49=APAQA3|52=20180206-18:19:26.474|56=TRAX|10=120|8=FIXT.1.1|9=55|35=0|34=955|49=APAQA3|52=20180206-18:19:56.477|56=TRAX|10=127|8=FIXT.1.1|9=55|35=0|34=956|49=APAQA3|52=20180206-18:20:27.484|56=TRAX|10=116|8=FIXT.1.1|9=55|35=0|34=957|49=APAQA3|52=20180206-18:20:57.484|56=TRAX|10=120|8=FIXT.1.1|9=55|35=0|34=958|49=APAQA3|52=20180206-18:21:28.483|56=TRAX|10=119|8=FIXT.1.1|9=55|35=0|34=959|49=APAQA3|52=20180206-18:21:59.482|56=TRAX|10=123|8=FIXT.1.1|9=55|35=0|34=960|49=APAQA3|52=20180206-18:22:30.484|56=TRAX|10=107|8=FIXT.1.1|9=55|35=0|34=961|49=APAQA3|52=20180206-18:23:01.483|56=TRAX|10=106|8=FIXT.1.1|9=55|35=0|34=962|49=APAQA3|52=20180206-18:23:31.483|56=TRAX|10=110|8=FIXT.1.1|9=55|35=0|34=963|49=APAQA3|52=20180206-18:24:01.486|56=TRAX|10=112|8=FIXT.1.1|9=55|35=0|34=964|49=APAQA3|52=20180206-18:24:31.486|56=TRAX|10=116|8=FIXT.1.1|9=55|35=0|34=965|49=APAQA3|52=20180206-18:25:02.471|56=TRAX|10=110|8=FIXT.1.1|9=55|35=0|34=966|49=APAQA3|52=20180206-18:25:32.484|56=TRAX|10=118|8=FIXT.1.1|9=55|35=0|34=967|49=APAQA3|52=20180206-18:26:02.485|56=TRAX|10=118|8=FIXT.1.1|9=55|35=0|34=968|49=APAQA3|52=20180206-18:26:32.490|56=TRAX|10=118|8=FIXT.1.1|9=55|35=0|34=969|49=APAQA3|52=20180206-18:27:03.483|56=TRAX|10=120|8=FIXT.1.1|9=55|35=0|34=970|49=APAQA3|52=20180206-18:27:33.489|56=TRAX|10=121|8=FIXT.1.1|9=55|35=0|34=971|49=APAQA3|52=20180206-18:28:04.488|56=TRAX|10=120|8=FIXT.1.1|9=55|35=0|34=972|49=APAQA3|52=20180206-18:28:35.487|56=TRAX|10=124|8=FIXT.1.1|9=55|35=0|34=973|49=APAQA3|52=20180206-18:29:05.489|56=TRAX|10=125|8=FIXT.1.1|9=55|35=0|34=974|49=APAQA3|52=20180206-18:29:35.489|56=TRAX|10=129|8=FIXT.1.1|9=55|35=0|34=975|49=APAQA3|52=20180206-18:30:06.490|56=TRAX|10=112|8=FIXT.1.1|9=55|35=0|34=976|49=APAQA3|52=20180206-18:30:36.490|56=TRAX|10=116|8=FIXT.1.1|9=55|35=0|34=977|49=APAQA3|52=20180206-18:31:06.491|56=TRAX|10=116|8=FIXT.1.1|9=55|35=0|34=978|49=APAQA3|52=20180206-18:31:37.489|56=TRAX|10=128|8=FIXT.1.1|9=55|35=0|34=979|49=APAQA3|52=20180206-18:32:07.495|56=TRAX|10=124|8=FIXT.1.1|9=55|35=0|34=980|49=APAQA3|52=20180206-18:32:38.495|56=TRAX|10=120|8=FIXT.1.1|9=55|35=0|34=981|49=APAQA3|52=20180206-18:33:09.488|56=TRAX|10=122|8=FIXT.1.1|9=55|35=0|34=982|49=APAQA3|52=20180206-18:33:39.491|56=TRAX|10=120|8=FIXT.1.1|9=55|35=0|34=983|49=APAQA3|52=20180206-18:34:09.492|56=TRAX|10=120|8=FIXT.1.1|9=55|35=0|34=984|49=APAQA3|52=20180206-18:34:40.496|56=TRAX|10=120|8=FIXT.1.1|9=55|35=0|34=985|49=APAQA3|52=20180206-18:35:11.493|56=TRAX|10=117|8=FIXT.1.1|9=55|35=0|34=986|49=APAQA3|52=20180206-18:35:42.495|56=TRAX|10=124|8=FIXT.1.1|9=55|35=0|34=987|49=APAQA3|52=20180206-18:36:13.493|56=TRAX|10=122|8=FIXT.1.1|9=55|35=0|34=988|49=APAQA3|52=20180206-18:36:44.499|56=TRAX|10=133|8=FIXT.1.1|9=55|35=0|34=989|49=APAQA3|52=20180206-18:37:14.501|56=TRAX|10=116|8=FIXT.1.1|9=55|35=0|34=990|49=APAQA3|52=20180206-18:37:45.493|56=TRAX|10=122|8=FIXT.1.1|9=55|35=0|34=991|49=APAQA3|52=20180206-18:38:15.502|56=TRAX|10=112|8=FIXT.1.1|9=55|35=0|34=992|49=APAQA3|52=20180206-18:38:46.502|56=TRAX|10=117|8=FIXT.1.1|9=55|35=0|34=993|49=APAQA3|52=20180206-18:39:17.494|56=TRAX|10=127|8=FIXT.1.1|9=55|35=0|34=994|49=APAQA3|52=20180206-18:39:47.500|56=TRAX|10=119|8=FIXT.1.1|9=55|35=0|34=995|49=APAQA3|52=20180206-18:40:17.504|56=TRAX|10=113|8=FIXT.1.1|9=55|35=0|34=996|49=APAQA3|52=20180206-18:40:48.497|56=TRAX|10=129|8=FIXT.1.1|9=55|35=0|34=997|49=APAQA3|52=20180206-18:41:18.503|56=TRAX|10=116|8=FIXT.1.1|9=55|35=0|34=998|49=APAQA3|52=20180206-18:41:49.499|56=TRAX|10=135|8=FIXT.1.1|9=55|35=0|34=999|49=APAQA3|52=20180206-18:42:19.738|56=TRAX|10=130|8=FIXT.1.1|9=56|35=0|34=1000|49=APAQA3|52=20180206-18:42:50.489|56=TRAX|10=151|8=FIXT.1.1|9=56|35=0|34=1001|49=APAQA3|52=20180206-18:43:20.500|56=TRAX|10=134|8=FIXT.1.1|9=56|35=0|34=1002|49=APAQA3|52=20180206-18:43:50.503|56=TRAX|10=141|8=FIXT.1.1|9=56|35=0|34=1003|49=APAQA3|52=20180206-18:44:21.500|56=TRAX|10=138|8=FIXT.1.1|9=56|35=0|34=1004|49=APAQA3|52=20180206-18:44:51.504|56=TRAX|10=146|8=FIXT.1.1|9=56|35=0|34=1005|49=APAQA3|52=20180206-18:45:21.507|56=TRAX|10=148|8=FIXT.1.1|9=56|35=0|34=1006|49=APAQA3|52=20180206-18:45:52.509|56=TRAX|10=155|8=FIXT.1.1|9=56|35=0|34=1007|49=APAQA3|52=20180206-18:46:22.509|56=TRAX|10=154|8=FIXT.1.1|9=56|35=0|34=1008|49=APAQA3|52=20180206-18:46:53.507|56=TRAX|10=157|8=FIXT.1.1|9=56|35=0|34=1009|49=APAQA3|52=20180206-18:47:23.507|56=TRAX|10=156|8=FIXT.1.1|9=56|35=0|34=1010|49=APAQA3|52=20180206-18:47:53.512|56=TRAX|10=147|8=FIXT.1.1|9=56|35=0|34=1011|49=APAQA3|52=20180206-18:48:24.510|56=TRAX|10=145|8=FIXT.1.1|9=56|35=0|34=1012|49=APAQA3|52=20180206-18:48:54.512|56=TRAX|10=151|8=FIXT.1.1|9=56|35=0|34=1013|49=APAQA3|52=20180206-18:49:25.513|56=TRAX|10=152|8=FIXT.1.1|9=56|35=0|34=1014|49=APAQA3|52=20180206-18:49:55.513|56=TRAX|10=156|8=FIXT.1.1|9=56|35=0|34=1015|49=APAQA3|52=20180206-18:50:26.507|56=TRAX|10=150|8=FIXT.1.1|9=56|35=0|34=1016|49=APAQA3|52=20180206-18:50:56.509|56=TRAX|10=156|8=FIXT.1.1|9=56|35=0|34=1017|49=APAQA3|52=20180206-18:51:26.511|56=TRAX|10=148|8=FIXT.1.1|9=56|35=0|34=1018|49=APAQA3|52=20180206-18:51:57.500|56=TRAX|10=151|8=FIXT.1.1|9=56|35=0|34=1019|49=APAQA3|52=20180206-18:52:27.509|56=TRAX|10=159|8=FIXT.1.1|9=56|35=0|34=1020|49=APAQA3|52=20180206-18:52:57.512|56=TRAX|10=148|8=FIXT.1.1|9=56|35=0|34=1021|49=APAQA3|52=20180206-18:53:28.514|56=TRAX|10=150|8=FIXT.1.1|9=56|35=0|34=1022|49=APAQA3|52=20180206-18:53:58.516|56=TRAX|10=156|8=FIXT.1.1|9=56|35=0|34=1023|49=APAQA3|52=20180206-18:54:29.517|56=TRAX|10=157|8=FIXT.1.1|9=56|35=0|34=1024|49=APAQA3|52=20180206-18:55:00.511|56=TRAX|10=142|8=FIXT.1.1|9=56|35=0|34=1025|49=APAQA3|52=20180206-18:55:30.518|56=TRAX|10=153|8=FIXT.1.1|9=56|35=0|34=1026|49=APAQA3|52=20180206-18:56:01.518|56=TRAX|10=153|8=FIXT.1.1|9=56|35=0|34=1027|49=APAQA3|52=20180206-18:56:31.519|56=TRAX|10=158|8=FIXT.1.1|9=56|35=0|34=1028|49=APAQA3|52=20180206-18:57:02.515|56=TRAX|10=154|8=FIXT.1.1|9=56|35=0|34=1029|49=APAQA3|52=20180206-18:57:32.521|56=TRAX|10=155|8=FIXT.1.1|9=56|35=0|34=1030|49=APAQA3|52=20180206-18:58:03.515|56=TRAX|10=149|8=FIXT.1.1|9=56|35=0|34=1031|49=APAQA3|52=20180206-18:58:33.516|56=TRAX|10=154|8=FIXT.1.1|9=56|35=0|34=1032|49=APAQA3|52=20180206-18:59:03.516|56=TRAX|10=153|8=FIXT.1.1|9=56|35=0|34=1033|49=APAQA3|52=20180206-18:59:33.520|56=TRAX|10=152|8=FIXT.1.1|9=56|35=0|34=1034|49=APAQA3|52=20180206-19:00:04.519|56=TRAX|10=146|8=FIXT.1.1|9=56|35=0|34=1035|49=APAQA3|52=20180206-19:00:34.523|56=TRAX|10=145|8=FIXT.1.1|9=56|35=0|34=1036|49=APAQA3|52=20180206-19:01:04.524|56=TRAX|10=145|8=FIXT.1.1|9=56|35=0|34=1037|49=APAQA3|52=20180206-19:01:35.523|56=TRAX|10=149|8=FIXT.1.1|9=56|35=0|34=1038|49=APAQA3|52=20180206-19:02:05.524|56=TRAX|10=149|8=FIXT.1.1|9=56|35=0|34=1039|49=APAQA3|52=20180206-19:02:36.524|56=TRAX|10=154|8=FIXT.1.1|9=56|35=0|34=1040|49=APAQA3|52=20180206-19:03:07.521|56=TRAX|10=142|8=FIXT.1.1|9=56|35=0|34=1041|49=APAQA3|52=20180206-19:03:38.520|56=TRAX|10=146|8=FIXT.1.1|9=56|35=0|34=1042|49=APAQA3|52=20180206-19:04:08.520|56=TRAX|10=145|8=FIXT.1.1|9=56|35=0|34=1043|49=APAQA3|52=20180206-19:04:38.524|56=TRAX|10=153|8=FIXT.1.1|9=56|35=0|34=1044|49=APAQA3|52=20180206-19:05:08.528|56=TRAX|10=156|8=FIXT.1.1|9=56|35=0|34=1045|49=APAQA3|52=20180206-19:05:39.528|56=TRAX|10=161|8=FIXT.1.1|9=56|35=0|34=1046|49=APAQA3|52=20180206-19:06:10.524|56=TRAX|10=148|8=FIXT.1.1|9=56|35=0|34=1047|49=APAQA3|52=20180206-19:06:40.528|56=TRAX|10=156|8=FIXT.1.1|9=56|35=0|34=1048|49=APAQA3|52=20180206-19:07:10.528|56=TRAX|10=155|8=FIXT.1.1|9=56|35=0|34=1049|49=APAQA3|52=20180206-19:07:40.532|56=TRAX|10=154|8=FIXT.1.1|9=56|35=0|34=1050|49=APAQA3|52=20180206-19:08:11.529|56=TRAX|10=151|8=FIXT.1.1|9=56|35=0|34=1051|49=APAQA3|52=20180206-19:08:41.532|56=TRAX|10=149|8=FIXT.1.1|9=56|35=0|34=1052|49=APAQA3|52=20180206-19:09:12.529|56=TRAX|10=155|8=FIXT.1.1|9=56|35=0|34=1053|49=APAQA3|52=20180206-19:09:43.526|56=TRAX|10=157|8=FIXT.1.1|9=56|35=0|34=1054|49=APAQA3|52=20180206-19:10:14.525|56=TRAX|10=147|8=FIXT.1.1|9=56|35=0|34=1055|49=APAQA3|52=20180206-19:10:44.533|56=TRAX|10=150|8=FIXT.1.1|9=56|35=0|34=1056|49=APAQA3|52=20180206-19:11:15.531|56=TRAX|10=148|8=FIXT.1.1|9=56|35=0|34=1057|49=APAQA3|52=20180206-19:11:45.534|56=TRAX|10=155|8=FIXT.1.1|9=56|35=0|34=1058|49=APAQA3|52=20180206-19:12:16.536|56=TRAX|10=157|8=FIXT.1.1|9=56|35=0|34=1059|49=APAQA3|52=20180206-19:12:47.532|56=TRAX|10=158|8=FIXT.1.1|9=56|35=0|34=1060|49=APAQA3|52=20180206-19:13:18.534|56=TRAX|10=151|8=FIXT.1.1|9=56|35=0|34=1061|49=APAQA3|52=20180206-19:13:48.536|56=TRAX|10=157|8=FIXT.1.1|9=56|35=0|34=1062|49=APAQA3|52=20180206-19:14:19.535|56=TRAX|10=156|8=FIXT.1.1|9=56|35=0|34=1063|49=APAQA3|52=20180206-19:14:49.536|56=TRAX|10=161|8=FIXT.1.1|9=56|35=0|34=1064|49=APAQA3|52=20180206-19:15:19.745|56=TRAX|10=162|8=FIXT.1.1|9=56|35=0|34=1065|49=APAQA3|52=20180206-19:15:49.752|56=TRAX|10=164|8=FIXT.1.1|9=56|35=0|34=1066|49=APAQA3|52=20180206-19:16:20.536|56=TRAX|10=155|8=FIXT.1.1|9=56|35=0|34=1067|49=APAQA3|52=20180206-19:16:51.535|56=TRAX|10=159|8=FIXT.1.1|9=56|35=0|34=1068|49=APAQA3|52=20180206-19:17:21.539|56=TRAX|10=162|8=FIXT.1.1|9=56|35=0|34=1069|49=APAQA3|52=20180206-19:17:51.541|56=TRAX|10=159|8=FIXT.1.1|9=56|35=0|34=1070|49=APAQA3|52=20180206-19:18:22.541|56=TRAX|10=150|8=FIXT.1.1|9=56|35=0|34=1071|49=APAQA3|52=20180206-19:18:52.541|56=TRAX|10=154|8=FIXT.1.1|9=56|35=0|34=1072|49=APAQA3|52=20180206-19:19:23.542|56=TRAX|10=155|8=FIXT.1.1|9=56|35=0|34=1073|49=APAQA3|52=20180206-19:19:53.542|56=TRAX|10=159|8=FIXT.1.1|9=56|35=0|34=1074|49=APAQA3|52=20180206-19:20:24.535|56=TRAX|10=152|8=FIXT.1.1|9=56|35=0|34=1075|49=APAQA3|52=20180206-19:20:54.538|56=TRAX|10=159|8=FIXT.1.1|9=56|35=0|34=1076|49=APAQA3|52=20180206-19:21:25.537|56=TRAX|10=158|8=FIXT.1.1|9=56|35=0|34=1077|49=APAQA3|52=20180206-19:21:55.540|56=TRAX|10=156|8=FIXT.1.1|9=56|35=0|34=1078|49=APAQA3|52=20180206-19:22:25.541|56=TRAX|10=156|8=FIXT.1.1|9=56|35=0|34=1079|49=APAQA3|52=20180206-19:22:55.545|56=TRAX|10=164|8=FIXT.1.1|9=56|35=0|34=1080|49=APAQA3|52=20180206-19:23:26.539|56=TRAX|10=158|8=FIXT.1.1|9=56|35=0|34=1081|49=APAQA3|52=20180206-19:23:56.543|56=TRAX|10=157|8=FIXT.1.1|9=56|35=0|34=1082|49=APAQA3|52=20180206-19:24:27.544|56=TRAX|10=158|8=FIXT.1.1|9=56|35=0|34=1083|49=APAQA3|52=20180206-19:24:57.545|56=TRAX|10=163|8=FIXT.1.1|9=56|35=0|34=1084|49=APAQA3|52=20180206-19:25:27.545|56=TRAX|10=162|8=FIXT.1.1|9=56|35=0|34=1085|49=APAQA3|52=20180206-19:25:57.546|56=TRAX|10=167|8=FIXT.1.1|9=56|35=0|34=1086|49=APAQA3|52=20180206-19:26:27.550|56=TRAX|10=161|8=FIXT.1.1|9=56|35=0|34=1087|49=APAQA3|52=20180206-19:26:58.542|56=TRAX|10=167|8=FIXT.1.1|9=56|35=0|34=1088|49=APAQA3|52=20180206-19:27:28.546|56=TRAX|10=170|8=FIXT.1.1|9=56|35=0|34=1089|49=APAQA3|52=20180206-19:27:59.543|56=TRAX|10=172|8=FIXT.1.1|9=56|35=0|34=1090|49=APAQA3|52=20180206-19:28:29.546|56=TRAX|10=165|8=FIXT.1.1|9=56|35=0|34=1091|49=APAQA3|52=20180206-19:28:59.549|56=TRAX|10=172|8=FIXT.1.1|9=56|35=0|34=1092|49=APAQA3|52=20180206-19:29:30.546|56=TRAX|10=160|8=FIXT.1.1|9=56|35=0|34=1093|49=APAQA3|52=20180206-19:30:00.549|56=TRAX|10=153|8=FIXT.1.1|9=56|35=0|34=1094|49=APAQA3|52=20180206-19:30:31.545|56=TRAX|10=154|8=FIXT.1.1|9=56|35=0|34=1095|49=APAQA3|52=20180206-19:31:01.555|56=TRAX|10=154|8=FIXT.1.1|9=56|35=0|34=1096|49=APAQA3|52=20180206-19:31:31.556|56=TRAX|10=159|8=FIXT.1.1|9=56|35=0|34=1097|49=APAQA3|52=20180206-19:32:02.555|56=TRAX|10=158|8=FIXT.1.1|9=56|35=0|34=1098|49=APAQA3|52=20180206-19:32:32.556|56=TRAX|10=163|8=FIXT.1.1|9=56|35=0|34=1099|49=APAQA3|52=20180206-19:33:03.550|56=TRAX|10=157|8=FIXT.1.1|9=56|35=0|34=1100|49=APAQA3|52=20180206-19:33:33.550|56=TRAX|10=143|8=FIXT.1.1|9=56|35=0|34=1101|49=APAQA3|52=20180206-19:34:03.553|56=TRAX|10=145|8=FIXT.1.1|9=56|35=0|34=1102|49=APAQA3|52=20180206-19:34:34.554|56=TRAX|10=151|8=FIXT.1.1|9=56|35=0|34=1103|49=APAQA3|52=20180206-19:35:04.558|56=TRAX|10=154|8=FIXT.1.1|9=56|35=0|34=1104|49=APAQA3|52=20180206-19:35:35.553|56=TRAX|10=154|8=FIXT.1.1|9=56|35=0|34=1105|49=APAQA3|52=20180206-19:36:06.551|56=TRAX|10=152|8=FIXT.1.1|9=56|35=0|34=1106|49=APAQA3|52=20180206-19:36:36.559|56=TRAX|10=164|8=FIXT.1.1|9=56|35=0|34=1107|49=APAQA3|52=20180206-19:37:06.559|56=TRAX|10=163|8=FIXT.1.1|9=56|35=0|34=1108|49=APAQA3|52=20180206-19:37:36.562|56=TRAX|10=161|8=FIXT.1.1|9=56|35=0|34=1109|49=APAQA3|52=20180206-19:38:07.554|56=TRAX|10=162|8=FIXT.1.1|9=56|35=0|34=1110|49=APAQA3|52=20180206-19:38:37.557|56=TRAX|10=160|8=FIXT.1.1|9=56|35=0|34=1111|49=APAQA3|52=20180206-19:39:08.556|56=TRAX|10=159|8=FIXT.1.1|9=56|35=0|34=1112|49=APAQA3|52=20180206-19:39:38.562|56=TRAX|10=160|8=FIXT.1.1|9=56|35=0|34=1113|49=APAQA3|52=20180206-19:40:09.561|56=TRAX|10=150|8=FIXT.1.1|9=56|35=0|34=1114|49=APAQA3|52=20180206-19:40:40.557|56=TRAX|10=151|8=FIXT.1.1|9=56|35=0|34=1115|49=APAQA3|52=20180206-19:41:10.564|56=TRAX|10=148|8=FIXT.1.1|9=56|35=0|34=1116|49=APAQA3|52=20180206-19:41:40.565|56=TRAX|10=153|8=FIXT.1.1|9=56|35=0|34=1117|49=APAQA3|52=20180206-19:42:10.565|56=TRAX|10=152|8=FIXT.1.1|9=56|35=0|34=1118|49=APAQA3|52=20180206-19:42:41.563|56=TRAX|10=155|8=FIXT.1.1|9=56|35=0|34=1119|49=APAQA3|52=20180206-19:43:12.561|56=TRAX|10=153|8=FIXT.1.1|9=56|35=0|34=1120|49=APAQA3|52=20180206-19:43:42.562|56=TRAX|10=149|8=FIXT.1.1|9=56|35=0|34=1121|49=APAQA3|52=20180206-19:44:13.560|56=TRAX|10=147|8=FIXT.1.1|9=56|35=0|34=1122|49=APAQA3|52=20180206-19:44:44.562|56=TRAX|10=154|8=FIXT.1.1|9=56|35=0|34=1123|49=APAQA3|52=20180206-19:45:15.562|56=TRAX|10=154|8=FIXT.1.1|9=56|35=0|34=1124|49=APAQA3|52=20180206-19:45:45.563|56=TRAX|10=159|8=FIXT.1.1|9=56|35=0|34=1125|49=APAQA3|52=20180206-19:46:15.566|56=TRAX|10=161|8=FIXT.1.1|9=56|35=0|34=1126|49=APAQA3|52=20180206-19:46:46.568|56=TRAX|10=168|8=FIXT.1.1|9=56|35=0|34=1127|49=APAQA3|52=20180206-19:47:17.571|56=TRAX|10=162|8=FIXT.1.1|9=56|35=0|34=1128|49=APAQA3|52=20180206-19:47:48.565|56=TRAX|10=170|8=FIXT.1.1|9=56|35=0|34=1129|49=APAQA3|52=20180206-19:48:18.566|56=TRAX|10=170|8=FIXT.1.1|9=56|35=0|34=1130|49=APAQA3|52=20180206-19:48:48.568|56=TRAX|10=167|8=FIXT.1.1|9=56|35=0|34=1131|49=APAQA3|52=20180206-19:49:19.565|56=TRAX|10=164|8=FIXT.1.1|9=56|35=0|34=1132|49=APAQA3|52=20180206-19:49:49.571|56=TRAX|10=165|8=FIXT.1.1|9=56|35=0|34=1133|49=APAQA3|52=20180206-19:50:19.767|56=TRAX|10=162|8=FIXT.1.1|9=56|35=0|34=1134|49=APAQA3|52=20180206-19:50:50.563|56=TRAX|10=152|8=FIXT.1.1|9=56|35=0|34=1135|49=APAQA3|52=20180206-19:51:20.568|56=TRAX|10=156|8=FIXT.1.1|9=56|35=0|34=1136|49=APAQA3|52=20180206-19:51:50.569|56=TRAX|10=161|8=FIXT.1.1|9=56|35=0|34=1137|49=APAQA3|52=20180206-19:52:20.569|56=TRAX|10=160|8=FIXT.1.1|9=56|35=0|34=1138|49=APAQA3|52=20180206-19:52:50.572|56=TRAX|10=158|8=FIXT.1.1|9=56|35=0|34=1139|49=APAQA3|52=20180206-19:53:21.573|56=TRAX|10=159|8=FIXT.1.1|9=56|35=0|34=1140|49=APAQA3|52=20180206-19:53:51.576|56=TRAX|10=157|8=FIXT.1.1|9=56|35=0|34=1141|49=APAQA3|52=20180206-19:54:22.566|56=TRAX|10=156|8=FIXT.1.1|9=56|35=0|34=1142|49=APAQA3|52=20180206-19:54:52.576|56=TRAX|10=161|8=FIXT.1.1|9=56|35=0|34=1143|49=APAQA3|52=20180206-19:55:23.571|56=TRAX|10=156|8=FIXT.1.1|9=56|35=0|34=1144|49=APAQA3|52=20180206-19:55:53.577|56=TRAX|10=166|8=FIXT.1.1|9=56|35=0|34=1145|49=APAQA3|52=20180206-19:56:24.575|56=TRAX|10=164|8=FIXT.1.1|9=56|35=0|34=1146|49=APAQA3|52=20180206-19:56:54.577|56=TRAX|10=170|8=FIXT.1.1|9=56|35=0|34=1147|49=APAQA3|52=20180206-19:57:25.573|56=TRAX|10=166|8=FIXT.1.1|9=56|35=0|34=1148|49=APAQA3|52=20180206-19:57:55.578|56=TRAX|10=175|8=FIXT.1.1|9=56|35=0|34=1149|49=APAQA3|52=20180206-19:58:26.579|56=TRAX|10=176|8=FIXT.1.1|9=56|35=0|34=1150|49=APAQA3|52=20180206-19:58:57.582|56=TRAX|10=166|8=FIXT.1.1|9=56|35=0|34=1151|49=APAQA3|52=20180206-19:59:28.577|56=TRAX|10=170|8=FIXT.1.1|9=56|35=0|34=1152|49=APAQA3|52=20180206-19:59:58.577|56=TRAX|10=174|8=FIXT.1.1|9=56|35=0|34=1153|49=APAQA3|52=20180206-20:00:28.577|56=TRAX|10=150|8=FIXT.1.1|9=56|35=0|34=1154|49=APAQA3|52=20180206-20:00:58.577|56=TRAX|10=154|8=FIXT.1.1|9=56|35=0|34=1155|49=APAQA3|52=20180206-20:01:28.579|56=TRAX|10=155|8=FIXT.1.1|9=56|35=0|34=1156|49=APAQA3|52=20180206-20:01:58.580|56=TRAX|10=151|8=FIXT.1.1|9=56|35=0|34=1157|49=APAQA3|52=20180206-20:02:29.579|56=TRAX|10=159|8=FIXT.1.1|9=56|35=0|34=1158|49=APAQA3|52=20180206-20:02:59.584|56=TRAX|10=159|8=FIXT.1.1|9=56|35=0|34=1159|49=APAQA3|52=20180206-20:03:30.583|56=TRAX|10=149|8=FIXT.1.1|9=56|35=0|34=1160|49=APAQA3|52=20180206-20:04:01.579|56=TRAX|10=145|8=FIXT.1.1|9=56|35=0|34=1161|49=APAQA3|52=20180206-20:04:31.585|56=TRAX|10=146|8=FIXT.1.1|9=56|35=0|34=1162|49=APAQA3|52=20180206-20:05:01.585|56=TRAX|10=145|8=FIXT.1.1|9=56|35=0|34=1163|49=APAQA3|52=20180206-20:05:32.582|56=TRAX|10=147|8=FIXT.1.1|9=56|35=0|34=1164|49=APAQA3|52=20180206-20:06:02.589|56=TRAX|10=153|8=FIXT.1.1|9=56|35=0|34=1165|49=APAQA3|52=20180206-20:06:33.584|56=TRAX|10=153|8=FIXT.1.1|9=56|35=0|34=1166|49=APAQA3|52=20180206-20:07:03.591|56=TRAX|10=150|8=FIXT.1.1|9=56|35=0|34=1167|49=APAQA3|52=20180206-20:07:33.592|56=TRAX|10=155|8=FIXT.1.1|9=56|35=0|34=1168|49=APAQA3|52=20180206-20:08:04.583|56=TRAX|10=155|8=FIXT.1.1|9=56|35=0|34=1169|49=APAQA3|52=20180206-20:08:34.588|56=TRAX|10=164|8=FIXT.1.1|9=56|35=0|34=1170|49=APAQA3|52=20180206-20:09:04.592|56=TRAX|10=149|8=FIXT.1.1|9=56|35=0|34=1171|49=APAQA3|52=20180206-20:09:35.587|56=TRAX|10=158|8=FIXT.1.1|9=56|35=0|34=1172|49=APAQA3|52=20180206-20:10:06.586|56=TRAX|10=148|8=FIXT.1.1|9=56|35=0|34=1173|49=APAQA3|52=20180206-20:10:36.594|56=TRAX|10=151|8=FIXT.1.1|9=56|35=0|34=1174|49=APAQA3|52=20180206-20:11:07.586|56=TRAX|10=152|8=FIXT.1.1|9=56|35=0|34=1175|49=APAQA3|52=20180206-20:11:37.588|56=TRAX|10=158|8=FIXT.1.1|9=56|35=0|34=1176|49=APAQA3|52=20180206-20:12:07.589|56=TRAX|10=158|8=FIXT.1.1|9=56|35=0|34=1177|49=APAQA3|52=20180206-20:12:37.595|56=TRAX|10=159|8=FIXT.1.1|9=56|35=0|34=1178|49=APAQA3|52=20180206-20:13:08.596|56=TRAX|10=160|8=FIXT.1.1|9=56|35=0|34=1179|49=APAQA3|52=20180206-20:13:39.588|56=TRAX|10=166|8=FIXT.1.1|9=56|35=0|34=1180|49=APAQA3|52=20180206-20:14:09.596|56=TRAX|10=155|8=FIXT.1.1|9=56|35=0|34=1181|49=APAQA3|52=20180206-20:14:40.590|56=TRAX|10=145|8=FIXT.1.1|9=56|35=0|34=1182|49=APAQA3|52=20180206-20:15:10.592|56=TRAX|10=146|8=FIXT.1.1|9=56|35=0|34=1183|49=APAQA3|52=20180206-20:15:41.590|56=TRAX|10=149|8=FIXT.1.1|9=56|35=0|34=1184|49=APAQA3|52=20180206-20:16:11.592|56=TRAX|10=150|8=FIXT.1.1|9=56|35=0|34=1185|49=APAQA3|52=20180206-20:16:41.600|56=TRAX|10=144|8=FIXT.1.1|9=56|35=0|34=1186|49=APAQA3|52=20180206-20:17:12.599|56=TRAX|10=161|8=FIXT.1.1|9=56|35=0|34=1187|49=APAQA3|52=20180206-20:17:42.600|56=TRAX|10=148|8=FIXT.1.1|9=56|35=0|34=1188|49=APAQA3|52=20180206-20:18:13.601|56=TRAX|10=149|8=FIXT.1.1|9=56|35=0|34=1189|49=APAQA3|52=20180206-20:18:44.597|56=TRAX|10=168|8=FIXT.1.1|9=56|35=0|34=1190|49=APAQA3|52=20180206-20:19:14.600|56=TRAX|10=143|8=FIXT.1.1|9=56|35=0|34=1191|49=APAQA3|52=20180206-20:19:44.604|56=TRAX|10=151|8=FIXT.1.1|9=56|35=0|34=1192|49=APAQA3|52=20180206-20:20:15.602|56=TRAX|10=140|8=FIXT.1.1|9=56|35=0|34=1193|49=APAQA3|52=20180206-20:20:46.605|56=TRAX|10=148|8=FIXT.1.1|9=56|35=0|34=1194|49=APAQA3|52=20180206-20:21:17.603|56=TRAX|10=146|8=FIXT.1.1|9=56|35=0|34=1195|49=APAQA3|52=20180206-20:21:47.606|56=TRAX|10=153|8=FIXT.1.1|9=56|35=0|34=1196|49=APAQA3|52=20180206-20:22:18.601|56=TRAX|10=148|8=FIXT.1.1|9=56|35=0|34=1197|49=APAQA3|52=20180206-20:22:49.604|56=TRAX|10=156|8=FIXT.1.1|9=56|35=0|34=1198|49=APAQA3|52=20180206-20:23:19.780|56=TRAX|10=160|8=FIXT.1.1|9=56|35=0|34=1199|49=APAQA3|52=20180206-20:23:50.606|56=TRAX|10=153|8=FIXT.1.1|9=56|35=0|34=1200|49=APAQA3|52=20180206-20:24:21.606|56=TRAX|10=135|8=FIXT.1.1|9=56|35=0|34=1201|49=APAQA3|52=20180206-20:24:51.608|56=TRAX|10=141|8=FIXT.1.1|9=56|35=0|34=1202|49=APAQA3|52=20180206-20:25:22.601|56=TRAX|10=134|8=FIXT.1.1|9=56|35=0|34=1203|49=APAQA3|52=20180206-20:25:52.607|56=TRAX|10=144|8=FIXT.1.1|9=56|35=0|34=1204|49=APAQA3|52=20180206-20:26:22.610|56=TRAX|10=137|8=FIXT.1.1|9=56|35=0|34=1205|49=APAQA3|52=20180206-20:26:53.609|56=TRAX|10=150|8=FIXT.1.1|9=56|35=0|34=1206|49=APAQA3|52=20180206-20:27:23.609|56=TRAX|10=149|8=FIXT.1.1|9=56|35=0|34=1207|49=APAQA3|52=20180206-20:27:54.602|56=TRAX|10=147|8=FIXT.1.1|9=56|35=0|34=1208|49=APAQA3|52=20180206-20:28:24.603|56=TRAX|10=147|8=FIXT.1.1|9=56|35=0|34=1209|49=APAQA3|52=20180206-20:28:54.605|56=TRAX|10=153|8=FIXT.1.1|9=56|35=0|34=1210|49=APAQA3|52=20180206-20:29:24.614|56=TRAX|10=143|8=FIXT.1.1|9=56|35=0|34=1211|49=APAQA3|52=20180206-20:29:55.613|56=TRAX|10=147|8=FIXT.1.1|9=56|35=0|34=1212|49=APAQA3|52=20180206-20:30:26.612|56=TRAX|10=137|8=FIXT.1.1|9=56|35=0|34=1213|49=APAQA3|52=20180206-20:30:56.614|56=TRAX|10=143|8=FIXT.1.1|9=56|35=0|34=1214|49=APAQA3|52=20180206-20:31:27.609|56=TRAX|10=147|8=FIXT.1.1|9=56|35=0|34=1215|49=APAQA3|52=20180206-20:31:57.614|56=TRAX|10=147|8=FIXT.1.1|9=56|35=0|34=1216|49=APAQA3|52=20180206-20:32:28.609|56=TRAX|10=151|8=FIXT.1.1|9=56|35=0|34=1217|49=APAQA3|52=20180206-20:32:58.611|56=TRAX|10=148|8=FIXT.1.1|9=56|35=0|34=1218|49=APAQA3|52=20180206-20:33:28.613|56=TRAX|10=149|8=FIXT.1.1|9=56|35=0|34=1219|49=APAQA3|52=20180206-20:33:58.614|56=TRAX|10=154|8=FIXT.1.1|9=56|35=0|34=1220|49=APAQA3|52=20180206-20:34:28.617|56=TRAX|10=147|8=FIXT.1.1|9=56|35=0|34=1221|49=APAQA3|52=20180206-20:34:59.612|56=TRAX|10=147|8=FIXT.1.1|9=56|35=0|34=1222|49=APAQA3|52=20180206-20:35:29.615|56=TRAX|10=149|8=FIXT.1.1|9=56|35=0|34=1223|49=APAQA3|52=20180206-20:36:00.613|56=TRAX|10=138|8=FIXT.1.1|9=56|35=0|34=1224|49=APAQA3|52=20180206-20:36:30.613|56=TRAX|10=142|8=FIXT.1.1|9=56|35=0|34=1225|49=APAQA3|52=20180206-20:37:00.620|56=TRAX|10=139|8=FIXT.1.1|9=56|35=0|34=1226|49=APAQA3|52=20180206-20:37:30.620|56=TRAX|10=143|8=FIXT.1.1|9=56|35=0|34=1227|49=APAQA3|52=20180206-20:38:01.595|56=TRAX|10=154|8=FIXT.1.1|9=56|35=0|34=1228|49=APAQA3|52=20180206-20:38:31.611|56=TRAX|10=147|8=FIXT.1.1|9=56|35=0|34=1229|49=APAQA3|52=20180206-20:39:01.623|56=TRAX|10=149|8=FIXT.1.1|9=56|35=0|34=1230|49=APAQA3|52=20180206-20:39:32.618|56=TRAX|10=149|8=FIXT.1.1|9=56|35=0|34=1231|49=APAQA3|52=20180206-20:40:02.618|56=TRAX|10=139|8=FIXT.1.1|9=56|35=0|34=1232|49=APAQA3|52=20180206-20:40:32.624|56=TRAX|10=140|8=FIXT.1.1|9=56|35=0|34=1233|49=APAQA3|52=20180206-20:41:03.624|56=TRAX|10=140|8=FIXT.1.1|9=56|35=0|34=1234|49=APAQA3|52=20180206-20:41:33.625|56=TRAX|10=145|8=FIXT.1.1|9=56|35=0|34=1235|49=APAQA3|52=20180206-20:42:04.623|56=TRAX|10=143|8=FIXT.1.1|9=56|35=0|34=1236|49=APAQA3|52=20180206-20:42:34.626|56=TRAX|10=150|8=FIXT.1.1|9=56|35=0|34=1237|49=APAQA3|52=20180206-20:43:05.625|56=TRAX|10=149|8=FIXT.1.1|9=56|35=0|34=1238|49=APAQA3|52=20180206-20:43:36.620|56=TRAX|10=149|8=FIXT.1.1|9=56|35=0|34=1239|49=APAQA3|52=20180206-20:44:06.622|56=TRAX|10=150|8=FIXT.1.1|9=56|35=0|34=1240|49=APAQA3|52=20180206-20:44:36.624|56=TRAX|10=147|8=FIXT.1.1|9=56|35=0|34=1241|49=APAQA3|52=20180206-20:45:06.626|56=TRAX|10=148|8=FIXT.1.1|9=56|35=0|34=1242|49=APAQA3|52=20180206-20:45:37.625|56=TRAX|10=152|8=FIXT.1.1|9=56|35=0|34=1243|49=APAQA3|52=20180206-20:46:07.625|56=TRAX|10=151|8=FIXT.1.1|9=56|35=0|34=1244|49=APAQA3|52=20180206-20:46:37.628|56=TRAX|10=158|8=FIXT.1.1|9=56|35=0|34=1245|49=APAQA3|52=20180206-20:47:08.630|56=TRAX|10=151|8=FIXT.1.1|9=56|35=0|34=1246|49=APAQA3|52=20180206-20:47:39.629|56=TRAX|10=164|8=FIXT.1.1|9=56|35=0|34=1247|49=APAQA3|52=20180206-20:48:09.631|56=TRAX|10=156|8=FIXT.1.1|9=56|35=0|34=1248|49=APAQA3|52=20180206-20:48:39.631|56=TRAX|10=160|8=FIXT.1.1|9=56|35=0|34=1249|49=APAQA3|52=20180206-20:49:10.632|56=TRAX|10=152|8=FIXT.1.1|9=56|35=0|34=1250|49=APAQA3|52=20180206-20:49:41.625|56=TRAX|10=150|8=FIXT.1.1|9=56|35=0|34=1251|49=APAQA3|52=20180206-20:50:11.630|56=TRAX|10=136|8=FIXT.1.1|9=56|35=0|34=1252|49=APAQA3|52=20180206-20:50:41.631|56=TRAX|10=141|8=FIXT.1.1|9=56|35=0|34=1253|49=APAQA3|52=20180206-20:51:12.628|56=TRAX|10=147|8=FIXT.1.1|9=56|35=0|34=1254|49=APAQA3|52=20180206-20:51:42.633|56=TRAX|10=147|8=FIXT.1.1|9=56|35=0|34=1255|49=APAQA3|52=20180206-20:52:13.628|56=TRAX|10=151|8=FIXT.1.1|9=56|35=0|34=1256|49=APAQA3|52=20180206-20:52:43.632|56=TRAX|10=150|8=FIXT.1.1|9=56|35=0|34=1257|49=APAQA3|52=20180206-20:53:13.633|56=TRAX|10=150|8=FIXT.1.1|9=56|35=0|34=1258|49=APAQA3|52=20180206-20:53:43.638|56=TRAX|10=159|8=FIXT.1.1|9=56|35=0|34=1259|49=APAQA3|52=20180206-20:54:14.635|56=TRAX|10=156|8=FIXT.1.1|9=56|35=0|34=1260|49=APAQA3|52=20180206-20:54:45.632|56=TRAX|10=149|8=FIXT.1.1|9=56|35=0|34=1261|49=APAQA3|52=20180206-20:55:15.635|56=TRAX|10=151|8=FIXT.1.1|9=56|35=0|34=1262|49=APAQA3|52=20180206-20:55:46.636|56=TRAX|10=157|8=FIXT.1.1|9=56|35=0|34=1263|49=APAQA3|52=20180206-20:56:16.639|56=TRAX|10=159|8=FIXT.1.1|9=56|35=0|34=1264|49=APAQA3|52=20180206-20:56:46.640|56=TRAX|10=155|8=FIXT.1.1|9=56|35=0|34=1265|49=APAQA3|52=20180206-20:57:17.632|56=TRAX|10=156|8=FIXT.1.1|9=56|35=0|34=1266|49=APAQA3|52=20180206-20:57:47.636|56=TRAX|10=164|8=FIXT.1.1|9=56|35=0|34=1267|49=APAQA3|52=20180206-20:58:18.636|56=TRAX|10=164|8=FIXT.1.1|9=56|35=0|34=1268|49=APAQA3|52=20180206-20:58:49.637|56=TRAX|10=170|8=FIXT.1.1|9=56|35=0|34=1269|49=APAQA3|52=20180206-20:59:19.639|56=TRAX|10=171|8=FIXT.1.1|9=56|35=0|34=1270|49=APAQA3|52=20180206-20:59:49.856|56=TRAX|10=167|8=FIXT.1.1|9=56|35=0|34=1271|49=APAQA3|52=20180206-21:00:20.642|56=TR