8=FIXT.1.1|9=104|35=A|34=1|49=RECEIVERAPA|52=20170920-13:35:38.792|56=TRAX|98=0|108=30|95=11|96=1.0.0rc11.2|141=Y|1137=9|10=156|8=FIXT.1.1|9=58|35=0|34=2|49=RECEIVERAPA|52=20170920-13:36:09.750|56=TRAX|10=149|8=FIXT.1.1|9=58|35=0|34=3|49=RECEIVERAPA|52=20170920-13:36:40.763|56=TRAX|10=149|8=FIXT.1.1|9=58|35=0|34=4|49=RECEIVERAPA|52=20170920-13:37:11.764|56=TRAX|10=150|8=FIXT.1.1|9=58|35=0|34=5|49=RECEIVERAPA|52=20170920-13:37:42.755|56=TRAX|10=155|8=FIXT.1.1|9=58|35=0|34=6|49=RECEIVERAPA|52=20170920-13:38:13.751|56=TRAX|10=151|8=FIXT.1.1|9=58|35=0|34=7|49=RECEIVERAPA|52=20170920-13:38:43.756|56=TRAX|10=160|8=FIXT.1.1|9=58|35=0|34=8|49=RECEIVERAPA|52=20170920-13:39:14.720|56=TRAX|10=151|8=FIXT.1.1|9=58|35=0|34=9|49=RECEIVERAPA|52=20170920-13:39:44.755|56=TRAX|10=163|8=FIXT.1.1|9=59|35=0|34=10|49=RECEIVERAPA|52=20170920-13:40:14.757|56=TRAX|10=195|8=FIXT.1.1|9=59|35=0|34=11|49=RECEIVERAPA|52=20170920-13:40:45.752|56=TRAX|10=195|8=FIXT.1.1|9=59|35=0|34=12|49=RECEIVERAPA|52=20170920-13:41:15.755|56=TRAX|10=197|8=FIXT.1.1|9=59|35=0|34=13|49=RECEIVERAPA|52=20170920-13:41:45.762|56=TRAX|10=199|8=FIXT.1.1|9=59|35=0|34=14|49=RECEIVERAPA|52=20170920-13:42:16.752|56=TRAX|10=198|8=FIXT.1.1|9=59|35=0|34=15|49=RECEIVERAPA|52=20170920-13:42:46.758|56=TRAX|10=208|8=FIXT.1.1|9=59|35=0|34=16|49=RECEIVERAPA|52=20170920-13:43:16.762|56=TRAX|10=202|8=FIXT.1.1|9=59|35=0|34=17|49=RECEIVERAPA|52=20170920-13:43:47.723|56=TRAX|10=204|8=FIXT.1.1|9=59|35=0|34=18|49=RECEIVERAPA|52=20170920-13:44:17.765|56=TRAX|10=209|8=FIXT.1.1|9=59|35=0|34=19|49=RECEIVERAPA|52=20170920-13:44:48.156|56=TRAX|10=208|8=FIXT.1.1|9=59|35=0|34=20|49=RECEIVERAPA|52=20170920-13:45:18.766|56=TRAX|10=205|8=FIXT.1.1|9=59|35=0|34=21|49=RECEIVERAPA|52=20170920-13:45:49.761|56=TRAX|10=205|8=FIXT.1.1|9=59|35=0|34=22|49=RECEIVERAPA|52=20170920-13:46:19.764|56=TRAX|10=207|8=FIXT.1.1|9=59|35=0|34=23|49=RECEIVERAPA|52=20170920-13:46:50.758|56=TRAX|10=206|8=FIXT.1.1|9=59|35=0|34=24|49=RECEIVERAPA|52=20170920-13:47:21.768|56=TRAX|10=207|8=FIXT.1.1|9=59|35=0|34=25|49=RECEIVERAPA|52=20170920-13:47:51.768|56=TRAX|10=211|8=FIXT.1.1|9=59|35=0|34=26|49=RECEIVERAPA|52=20170920-13:48:22.766|56=TRAX|10=209|8=FIXT.1.1|9=59|35=0|34=27|49=RECEIVERAPA|52=20170920-13:48:53.765|56=TRAX|10=213|8=FIXT.1.1|9=59|35=0|34=28|49=RECEIVERAPA|52=20170920-13:49:23.765|56=TRAX|10=212|8=FIXT.1.1|9=59|35=0|34=29|49=RECEIVERAPA|52=20170920-13:49:54.757|56=TRAX|10=218|8=FIXT.1.1|9=59|35=0|34=30|49=RECEIVERAPA|52=20170920-13:50:24.762|56=TRAX|10=195|8=FIXT.1.1|9=59|35=0|34=31|49=RECEIVERAPA|52=20170920-13:50:55.762|56=TRAX|10=200|8=FIXT.1.1|9=59|35=0|34=32|49=RECEIVERAPA|52=20170920-13:51:25.765|56=TRAX|10=202|8=FIXT.1.1|9=59|35=0|34=33|49=RECEIVERAPA|52=20170920-13:51:55.769|56=TRAX|10=210|8=FIXT.1.1|9=59|35=0|34=34|49=RECEIVERAPA|52=20170920-13:52:26.757|56=TRAX|10=207|8=FIXT.1.1|9=59|35=0|34=35|49=RECEIVERAPA|52=20170920-13:52:56.768|56=TRAX|10=213|8=FIXT.1.1|9=59|35=0|34=36|49=RECEIVERAPA|52=20170920-13:53:27.758|56=TRAX|10=212|8=FIXT.1.1|9=59|35=0|34=37|49=RECEIVERAPA|52=20170920-13:53:57.760|56=TRAX|10=209|8=FIXT.1.1|9=59|35=0|34=38|49=RECEIVERAPA|52=20170920-13:54:27.760|56=TRAX|10=208|8=FIXT.1.1|9=59|35=0|34=39|49=RECEIVERAPA|52=20170920-13:54:58.773|56=TRAX|10=217|8=FIXT.1.1|9=59|35=0|34=40|49=RECEIVERAPA|52=20170920-13:55:29.729|56=TRAX|10=209|8=FIXT.1.1|9=59|35=0|34=41|49=RECEIVERAPA|52=20170920-13:55:59.748|56=TRAX|10=214|8=FIXT.1.1|9=59|35=0|34=42|49=RECEIVERAPA|52=20170920-13:56:29.771|56=TRAX|10=209|8=FIXT.1.1|9=59|35=0|34=43|49=RECEIVERAPA|52=20170920-13:57:00.764|56=TRAX|10=202|8=FIXT.1.1|9=59|35=0|34=44|49=RECEIVERAPA|52=20170920-13:57:31.763|56=TRAX|10=206|8=FIXT.1.1|9=59|35=0|34=45|49=RECEIVERAPA|52=20170920-13:58:01.765|56=TRAX|10=207|8=FIXT.1.1|9=59|35=0|34=46|49=RECEIVERAPA|52=20170920-13:58:32.762|56=TRAX|10=209|8=FIXT.1.1|9=59|35=0|34=47|49=RECEIVERAPA|52=20170920-13:59:02.770|56=TRAX|10=207|8=FIXT.1.1|9=59|35=0|34=48|49=RECEIVERAPA|52=20170920-13:59:32.772|56=TRAX|10=213|8=FIXT.1.1|9=59|35=0|34=49|49=RECEIVERAPA|52=20170920-14:00:03.770|56=TRAX|10=197|8=FIXT.1.1|9=59|35=0|34=50|49=RECEIVERAPA|52=20170920-14:00:33.775|56=TRAX|10=197|8=FIXT.1.1|9=59|35=0|34=51|49=RECEIVERAPA|52=20170920-14:01:04.762|56=TRAX|10=193|8=FIXT.1.1|9=59|35=0|34=52|49=RECEIVERAPA|52=20170920-14:01:35.767|56=TRAX|10=203|8=FIXT.1.1|9=59|35=0|34=53|49=RECEIVERAPA|52=20170920-14:02:06.765|56=TRAX|10=201|8=FIXT.1.1|9=59|35=0|34=54|49=RECEIVERAPA|52=20170920-14:02:36.775|56=TRAX|10=206|8=FIXT.1.1|9=59|35=0|34=55|49=RECEIVERAPA|52=20170920-14:03:07.757|56=TRAX|10=206|8=FIXT.1.1|9=59|35=0|34=56|49=RECEIVERAPA|52=20170920-14:03:38.731|56=TRAX|10=203|8=FIXT.1.1|9=59|35=0|34=57|49=RECEIVERAPA|52=20170920-14:04:08.770|56=TRAX|10=205|8=FIXT.1.1|9=59|35=0|34=58|49=RECEIVERAPA|52=20170920-14:04:38.773|56=TRAX|10=212|8=FIXT.1.1|9=59|35=0|34=59|49=RECEIVERAPA|52=20170920-14:05:09.764|56=TRAX|10=212|8=FIXT.1.1|9=59|35=0|34=60|49=RECEIVERAPA|52=20170920-14:05:39.773|56=TRAX|10=207|8=FIXT.1.1|9=59|35=0|34=61|49=RECEIVERAPA|52=20170920-14:06:09.775|56=TRAX|10=208|8=FIXT.1.1|9=59|35=0|34=62|49=RECEIVERAPA|52=20170920-14:06:40.775|56=TRAX|10=204|8=FIXT.1.1|9=59|35=0|34=63|49=RECEIVERAPA|52=20170920-14:07:11.772|56=TRAX|10=201|8=FIXT.1.1|9=59|35=0|34=64|49=RECEIVERAPA|52=20170920-14:07:42.766|56=TRAX|10=209|8=FIXT.1.1|9=59|35=0|34=65|49=RECEIVERAPA|52=20170920-14:08:13.764|56=TRAX|10=207|8=FIXT.1.1|9=59|35=0|34=66|49=RECEIVERAPA|52=20170920-14:08:43.771|56=TRAX|10=209|8=FIXT.1.1|9=59|35=0|34=67|49=RECEIVERAPA|52=20170920-14:09:14.768|56=TRAX|10=215|8=FIXT.1.1|9=59|35=0|34=68|49=RECEIVERAPA|52=20170920-14:09:45.735|56=TRAX|10=214|8=FIXT.1.1|9=59|35=0|34=69|49=RECEIVERAPA|52=20170920-14:10:15.769|56=TRAX|10=211|8=FIXT.1.1|9=59|35=0|34=70|49=RECEIVERAPA|52=20170920-14:10:46.758|56=TRAX|10=205|8=FIXT.1.1|9=59|35=0|34=71|49=RECEIVERAPA|52=20170920-14:11:16.770|56=TRAX|10=198|8=FIXT.1.1|9=59|35=0|34=72|49=RECEIVERAPA|52=20170920-14:11:47.736|56=TRAX|10=205|8=FIXT.1.1|9=59|35=0|34=73|49=RECEIVERAPA|52=20170920-14:12:17.774|56=TRAX|10=206|8=FIXT.1.1|9=59|35=0|34=74|49=RECEIVERAPA|52=20170920-14:12:48.099|56=TRAX|10=211|8=FIXT.1.1|9=59|35=0|34=75|49=RECEIVERAPA|52=20170920-14:13:18.773|56=TRAX|10=209|8=FIXT.1.1|9=59|35=0|34=76|49=RECEIVERAPA|52=20170920-14:13:48.779|56=TRAX|10=219|8=FIXT.1.1|9=59|35=0|34=77|49=RECEIVERAPA|52=20170920-14:14:19.779|56=TRAX|10=219|8=FIXT.1.1|9=59|35=0|34=78|49=RECEIVERAPA|52=20170920-14:14:50.737|56=TRAX|10=209|8=FIXT.1.1|9=59|35=0|34=79|49=RECEIVERAPA|52=20170920-14:15:20.771|56=TRAX|10=206|8=FIXT.1.1|9=59|35=0|34=80|49=RECEIVERAPA|52=20170920-14:15:50.779|56=TRAX|10=209|8=FIXT.1.1|9=59|35=0|34=81|49=RECEIVERAPA|52=20170920-14:16:21.781|56=TRAX|10=202|8=FIXT.1.1|9=59|35=0|34=82|49=RECEIVERAPA|52=20170920-14:16:52.769|56=TRAX|10=213|8=FIXT.1.1|9=59|35=0|34=83|49=RECEIVERAPA|52=20170920-14:17:22.773|56=TRAX|10=207|8=FIXT.1.1|9=59|35=0|34=84|49=RECEIVERAPA|52=20170920-14:17:52.774|56=TRAX|10=212|8=FIXT.1.1|9=59|35=0|34=85|49=RECEIVERAPA|52=20170920-14:18:22.784|56=TRAX|10=212|8=FIXT.1.1|9=59|35=0|34=86|49=RECEIVERAPA|52=20170920-14:18:53.774|56=TRAX|10=216|8=FIXT.1.1|9=59|35=0|34=87|49=RECEIVERAPA|52=20170920-14:19:23.777|56=TRAX|10=218|8=FIXT.1.1|9=59|35=0|34=88|49=RECEIVERAPA|52=20170920-14:19:54.771|56=TRAX|10=217|8=FIXT.1.1|9=59|35=0|34=89|49=RECEIVERAPA|52=20170920-14:20:24.773|56=TRAX|10=209|8=FIXT.1.1|9=59|35=0|34=90|49=RECEIVERAPA|52=20170920-14:20:54.780|56=TRAX|10=202|8=FIXT.1.1|9=59|35=0|34=91|49=RECEIVERAPA|52=20170920-14:21:25.776|56=TRAX|10=207|8=FIXT.1.1|9=59|35=0|34=92|49=RECEIVERAPA|52=20170920-14:21:55.779|56=TRAX|10=214|8=FIXT.1.1|9=59|35=0|34=93|49=RECEIVERAPA|52=20170920-14:22:26.772|56=TRAX|10=207|8=FIXT.1.1|9=59|35=0|34=94|49=RECEIVERAPA|52=20170920-14:22:57.743|56=TRAX|10=210|8=FIXT.1.1|9=59|35=0|34=95|49=RECEIVERAPA|52=20170920-14:23:27.757|56=TRAX|10=214|8=FIXT.1.1|9=59|35=0|34=96|49=RECEIVERAPA|52=20170920-14:23:57.774|56=TRAX|10=217|8=FIXT.1.1|9=59|35=0|34=97|49=RECEIVERAPA|52=20170920-14:24:27.784|56=TRAX|10=217|8=FIXT.1.1|9=59|35=0|34=98|49=RECEIVERAPA|52=20170920-14:24:58.777|56=TRAX|10=224|8=FIXT.1.1|9=59|35=0|34=99|49=RECEIVERAPA|52=20170920-14:25:29.783|56=TRAX|10=221|8=FIXT.1.1|9=60|35=0|34=100|49=RECEIVERAPA|52=20170920-14:26:00.784|56=TRAX|10=235|8=FIXT.1.1|9=60|35=0|34=101|49=RECEIVERAPA|52=20170920-14:26:31.783|56=TRAX|10=239|8=FIXT.1.1|9=60|35=0|34=102|49=RECEIVERAPA|52=20170920-14:27:01.787|56=TRAX|10=242|8=FIXT.1.1|9=60|35=0|34=103|49=RECEIVERAPA|52=20170920-14:27:32.745|56=TRAX|10=241|8=FIXT.1.1|9=60|35=0|34=104|49=RECEIVERAPA|52=20170920-14:28:02.757|56=TRAX|10=243|8=FIXT.1.1|9=60|35=0|34=105|49=RECEIVERAPA|52=20170920-14:28:32.778|56=TRAX|10=250|8=FIXT.1.1|9=60|35=0|34=106|49=RECEIVERAPA|52=20170920-14:29:03.788|56=TRAX|10=251|8=FIXT.1.1|9=60|35=0|34=107|49=RECEIVERAPA|52=20170920-14:29:34.784|56=TRAX|10=252|8=FIXT.1.1|9=60|35=0|34=108|49=RECEIVERAPA|52=20170920-14:30:05.788|56=TRAX|10=247|8=FIXT.1.1|9=60|35=0|34=109|49=RECEIVERAPA|52=20170920-14:30:36.787|56=TRAX|10=251|8=FIXT.1.1|9=60|35=0|34=110|49=RECEIVERAPA|52=20170920-14:31:07.779|56=TRAX|10=243|8=FIXT.1.1|9=60|35=0|34=111|49=RECEIVERAPA|52=20170920-14:31:38.788|56=TRAX|10=248|8=FIXT.1.1|9=60|35=0|34=112|49=RECEIVERAPA|52=20170920-14:32:09.786|56=TRAX|10=246|8=FIXT.1.1|9=60|35=0|34=113|49=RECEIVERAPA|52=20170920-14:32:40.780|56=TRAX|10=236|8=FIXT.1.1|9=60|35=0|34=114|49=RECEIVERAPA|52=20170920-14:33:10.784|56=TRAX|10=239|8=FIXT.1.1|9=60|35=0|34=115|49=RECEIVERAPA|52=20170920-14:33:41.772|56=TRAX|10=241|8=FIXT.1.1|9=60|35=0|34=116|49=RECEIVERAPA|52=20170920-14:34:11.789|56=TRAX|10=248|8=FIXT.1.1|9=60|35=0|34=117|49=RECEIVERAPA|52=20170920-14:34:42.748|56=TRAX|10=248|8=FIXT.1.1|9=60|35=0|34=118|49=RECEIVERAPA|52=20170920-14:35:12.748|56=TRAX|10=247|8=FIXT.1.1|9=60|35=0|34=119|49=RECEIVERAPA|52=20170920-14:35:42.788|56=TRAX|10=255|8=FIXT.1.1|9=60|35=0|34=120|49=RECEIVERAPA|52=20170920-14:36:13.780|56=TRAX|10=238|8=FIXT.1.1|9=60|35=0|34=121|49=RECEIVERAPA|52=20170920-14:36:43.783|56=TRAX|10=245|8=FIXT.1.1|9=60|35=0|34=122|49=RECEIVERAPA|52=20170920-14:37:13.786|56=TRAX|10=247|8=FIXT.1.1|9=60|35=0|34=123|49=RECEIVERAPA|52=20170920-14:37:43.791|56=TRAX|10=247|8=FIXT.1.1|9=60|35=0|34=124|49=RECEIVERAPA|52=20170920-14:38:14.786|56=TRAX|10=251|8=FIXT.1.1|9=60|35=0|34=125|49=RECEIVERAPA|52=20170920-14:38:45.782|56=TRAX|10=252|8=FIXT.1.1|9=60|35=0|34=126|49=RECEIVERAPA|52=20170920-14:39:15.783|56=TRAX|10=252|8=FIXT.1.1|9=60|35=0|34=127|49=RECEIVERAPA|52=20170920-14:39:46.780|56=TRAX|10=254|8=FIXT.1.1|9=60|35=0|34=128|49=RECEIVERAPA|52=20170920-14:40:17.737|56=TRAX|10=247|8=FIXT.1.1|9=60|35=0|34=129|49=RECEIVERAPA|52=20170920-14:40:48.076|56=TRAX|10=248|8=FIXT.1.1|9=60|35=0|34=130|49=RECEIVERAPA|52=20170920-14:41:18.733|56=TRAX|10=238|8=FIXT.1.1|9=60|35=0|34=131|49=RECEIVERAPA|52=20170920-14:41:48.763|56=TRAX|10=245|8=FIXT.1.1|9=60|35=0|34=132|49=RECEIVERAPA|52=20170920-14:42:19.769|56=TRAX|10=251|8=FIXT.1.1|9=60|35=0|34=133|49=RECEIVERAPA|52=20170920-14:42:50.766|56=TRAX|10=244|8=FIXT.1.1|9=60|35=0|34=134|49=RECEIVERAPA|52=20170920-14:43:21.753|56=TRAX|10=240|8=FIXT.1.1|9=60|35=0|34=135|49=RECEIVERAPA|52=20170920-14:43:52.768|56=TRAX|10=251|8=FIXT.1.1|9=60|35=0|34=136|49=RECEIVERAPA|52=20170920-14:44:22.768|56=TRAX|10=250|8=FIXT.1.1|9=60|35=0|34=137|49=RECEIVERAPA|52=20170920-14:44:53.762|56=TRAX|10=249|8=FIXT.1.1|9=60|35=0|34=138|49=RECEIVERAPA|52=20170920-14:45:24.771|56=TRAX|10=249|8=FIXT.1.1|9=60|35=0|34=139|49=RECEIVERAPA|52=20170920-14:45:55.759|56=TRAX|10=004|8=FIXT.1.1|9=60|35=0|34=140|49=RECEIVERAPA|52=20170920-14:46:25.762|56=TRAX|10=244|8=FIXT.1.1|9=60|35=0|34=141|49=RECEIVERAPA|52=20170920-14:46:55.762|56=TRAX|10=248|8=FIXT.1.1|9=60|35=0|34=142|49=RECEIVERAPA|52=20170920-14:47:26.759|56=TRAX|10=254|8=FIXT.1.1|9=60|35=0|34=143|49=RECEIVERAPA|52=20170920-14:47:56.761|56=TRAX|10=251|8=FIXT.1.1|9=60|35=0|34=144|49=RECEIVERAPA|52=20170920-14:48:26.766|56=TRAX|10=255|8=FIXT.1.1|9=60|35=0|34=145|49=RECEIVERAPA|52=20170920-14:48:57.762|56=TRAX|10=000|8=FIXT.1.1|9=60|35=0|34=146|49=RECEIVERAPA|52=20170920-14:49:28.760|56=TRAX|10=254|8=FIXT.1.1|9=60|35=0|34=147|49=RECEIVERAPA|52=20170920-14:49:58.768|56=TRAX|10=010|8=FIXT.1.1|9=60|35=0|34=148|49=RECEIVERAPA|52=20170920-14:50:29.770|56=TRAX|10=250|8=FIXT.1.1|9=60|35=0|34=149|49=RECEIVERAPA|52=20170920-14:51:00.763|56=TRAX|10=243|8=FIXT.1.1|9=60|35=0|34=150|49=RECEIVERAPA|52=20170920-14:51:31.766|56=TRAX|10=242|8=FIXT.1.1|9=60|35=0|34=151|49=RECEIVERAPA|52=20170920-14:52:02.771|56=TRAX|10=238|8=FIXT.1.1|9=60|35=0|34=152|49=RECEIVERAPA|52=20170920-14:52:33.764|56=TRAX|10=245|8=FIXT.1.1|9=60|35=0|34=153|49=RECEIVERAPA|52=20170920-14:53:03.767|56=TRAX|10=247|8=FIXT.1.1|9=60|35=0|34=154|49=RECEIVERAPA|52=20170920-14:53:33.768|56=TRAX|10=252|8=FIXT.1.1|9=60|35=0|34=155|49=RECEIVERAPA|52=20170920-14:54:03.768|56=TRAX|10=251|8=FIXT.1.1|9=60|35=0|34=156|49=RECEIVERAPA|52=20170920-14:54:34.749|56=TRAX|10=255|8=FIXT.1.1|9=60|35=0|34=157|49=RECEIVERAPA|52=20170920-14:55:04.760|56=TRAX|10=247|8=FIXT.1.1|9=60|35=0|34=158|49=RECEIVERAPA|52=20170920-14:55:35.748|56=TRAX|10=002|8=FIXT.1.1|9=60|35=0|34=159|49=RECEIVERAPA|52=20170920-14:56:06.773|56=TRAX|10=000|8=FIXT.1.1|9=60|35=0|34=160|49=RECEIVERAPA|52=20170920-14:56:37.759|56=TRAX|10=000|8=FIXT.1.1|9=60|35=0|34=161|49=RECEIVERAPA|52=20170920-14:57:07.767|56=TRAX|10=254|8=FIXT.1.1|9=60|35=0|34=162|49=RECEIVERAPA|52=20170920-14:57:37.770|56=TRAX|10=252|8=FIXT.1.1|9=60|35=0|34=163|49=RECEIVERAPA|52=20170920-14:58:07.774|56=TRAX|10=255|8=FIXT.1.1|9=60|35=0|34=164|49=RECEIVERAPA|52=20170920-14:58:38.775|56=TRAX|10=005|8=FIXT.1.1|9=60|35=0|34=165|49=RECEIVERAPA|52=20170920-14:59:09.768|56=TRAX|10=007|8=FIXT.1.1|9=60|35=0|34=166|49=RECEIVERAPA|52=20170920-14:59:39.771|56=TRAX|10=005|8=FIXT.1.1|9=60|35=0|34=167|49=RECEIVERAPA|52=20170920-15:00:10.764|56=TRAX|10=240|8=FIXT.1.1|9=60|35=0|34=168|49=RECEIVERAPA|52=20170920-15:00:40.769|56=TRAX|10=249|8=FIXT.1.1|9=60|35=0|34=169|49=RECEIVERAPA|52=20170920-15:01:10.770|56=TRAX|10=240|8=FIXT.1.1|9=60|35=0|34=170|49=RECEIVERAPA|52=20170920-15:01:40.770|56=TRAX|10=235|8=FIXT.1.1|9=60|35=0|34=171|49=RECEIVERAPA|52=20170920-15:02:11.760|56=TRAX|10=234|8=FIXT.1.1|9=60|35=0|34=172|49=RECEIVERAPA|52=20170920-15:02:41.773|56=TRAX|10=242|8=FIXT.1.1|9=60|35=0|34=173|49=RECEIVERAPA|52=20170920-15:03:11.777|56=TRAX|10=245|8=FIXT.1.1|9=60|35=0|34=174|49=RECEIVERAPA|52=20170920-15:03:42.771|56=TRAX|10=244|8=FIXT.1.1|9=60|35=0|34=175|49=RECEIVERAPA|52=20170920-15:04:13.770|56=TRAX|10=243|8=FIXT.1.1|9=60|35=0|34=176|49=RECEIVERAPA|52=20170920-15:04:43.779|56=TRAX|10=000|8=FIXT.1.1|9=60|35=0|34=177|49=RECEIVERAPA|52=20170920-15:05:14.764|56=TRAX|10=250|8=FIXT.1.1|9=60|35=0|34=178|49=RECEIVERAPA|52=20170920-15:05:44.765|56=TRAX|10=255|8=FIXT.1.1|9=60|35=0|34=179|49=RECEIVERAPA|52=20170920-15:06:14.768|56=TRAX|10=001|8=FIXT.1.1|9=60|35=0|34=180|49=RECEIVERAPA|52=20170920-15:06:44.772|56=TRAX|10=247|8=FIXT.1.1|9=60|35=0|34=181|49=RECEIVERAPA|52=20170920-15:07:15.769|56=TRAX|10=253|8=FIXT.1.1|9=60|35=0|34=182|49=RECEIVERAPA|52=20170920-15:07:46.737|56=TRAX|10=253|8=FIXT.1.1|9=60|35=0|34=183|49=RECEIVERAPA|52=20170920-15:08:16.766|56=TRAX|10=254|8=FIXT.1.1|9=60|35=0|34=184|49=RECEIVERAPA|52=20170920-15:08:46.767|56=TRAX|10=003|8=FIXT.1.1|9=60|35=0|34=185|49=RECEIVERAPA|52=20170920-15:09:16.780|56=TRAX|10=253|8=FIXT.1.1|9=60|35=0|34=186|49=RECEIVERAPA|52=20170920-15:09:46.782|56=TRAX|10=003|8=FIXT.1.1|9=60|35=0|34=187|49=RECEIVERAPA|52=20170920-15:10:17.779|56=TRAX|10=000|8=FIXT.1.1|9=60|35=0|34=188|49=RECEIVERAPA|52=20170920-15:10:48.049|56=TRAX|10=251|8=FIXT.1.1|9=60|35=0|34=189|49=RECEIVERAPA|52=20170920-15:11:18.060|56=TRAX|10=243|8=FIXT.1.1|9=60|35=0|34=190|49=RECEIVERAPA|52=20170920-15:11:48.080|56=TRAX|10=240|8=FIXT.1.1|9=60|35=0|34=191|49=RECEIVERAPA|52=20170920-15:12:18.090|56=TRAX|10=240|8=FIXT.1.1|9=60|35=0|34=192|49=RECEIVERAPA|52=20170920-15:12:48.771|56=TRAX|10=250|8=FIXT.1.1|9=60|35=0|34=193|49=RECEIVERAPA|52=20170920-15:13:18.772|56=TRAX|10=250|8=FIXT.1.1|9=60|35=0|34=194|49=RECEIVERAPA|52=20170920-15:13:49.778|56=TRAX|10=005|8=FIXT.1.1|9=60|35=0|34=195|49=RECEIVERAPA|52=20170920-15:14:19.781|56=TRAX|10=254|8=FIXT.1.1|9=60|35=0|34=196|49=RECEIVERAPA|52=20170920-15:14:50.782|56=TRAX|10=251|8=FIXT.1.1|9=60|35=0|34=197|49=RECEIVERAPA|52=20170920-15:15:20.782|56=TRAX|10=250|8=FIXT.1.1|9=60|35=0|34=198|49=RECEIVERAPA|52=20170920-15:15:51.774|56=TRAX|10=000|8=FIXT.1.1|9=60|35=0|34=199|49=RECEIVERAPA|52=20170920-15:16:21.777|56=TRAX|10=002|8=FIXT.1.1|9=60|35=0|34=200|49=RECEIVERAPA|52=20170920-15:16:52.740|56=TRAX|10=235|8=FIXT.1.1|9=60|35=0|34=201|49=RECEIVERAPA|52=20170920-15:17:22.759|56=TRAX|10=244|8=FIXT.1.1|9=60|35=0|34=202|49=RECEIVERAPA|52=20170920-15:17:52.774|56=TRAX|10=245|8=FIXT.1.1|9=60|35=0|34=203|49=RECEIVERAPA|52=20170920-15:18:23.769|56=TRAX|10=249|8=FIXT.1.1|9=60|35=0|34=204|49=RECEIVERAPA|52=20170920-15:18:53.771|56=TRAX|10=246|8=FIXT.1.1|9=60|35=0|34=205|49=RECEIVERAPA|52=20170920-15:19:23.780|56=TRAX|10=245|8=FIXT.1.1|9=60|35=0|34=206|49=RECEIVERAPA|52=20170920-15:19:54.775|56=TRAX|10=254|8=FIXT.1.1|9=60|35=0|34=207|49=RECEIVERAPA|52=20170920-15:20:24.784|56=TRAX|10=244|8=FIXT.1.1|9=60|35=0|34=208|49=RECEIVERAPA|52=20170920-15:20:55.749|56=TRAX|10=250|8=FIXT.1.1|9=60|35=0|34=209|49=RECEIVERAPA|52=20170920-15:21:25.773|56=TRAX|10=246|8=FIXT.1.1|9=60|35=0|34=210|49=RECEIVERAPA|52=20170920-15:21:56.770|56=TRAX|10=239|8=FIXT.1.1|9=60|35=0|34=211|49=RECEIVERAPA|52=20170920-15:22:26.783|56=TRAX|10=242|8=FIXT.1.1|9=60|35=0|34=212|49=RECEIVERAPA|52=20170920-15:22:57.772|56=TRAX|10=245|8=FIXT.1.1|9=60|35=0|34=213|49=RECEIVERAPA|52=20170920-15:23:27.783|56=TRAX|10=246|8=FIXT.1.1|9=60|35=0|34=214|49=RECEIVERAPA|52=20170920-15:23:58.771|56=TRAX|10=248|8=FIXT.1.1|9=60|35=0|34=215|49=RECEIVERAPA|52=20170920-15:24:29.783|56=TRAX|10=251|8=FIXT.1.1|9=60|35=0|34=216|49=RECEIVERAPA|52=20170920-15:24:59.783|56=TRAX|10=255|8=FIXT.1.1|9=60|35=0|34=217|49=RECEIVERAPA|52=20170920-15:25:30.781|56=TRAX|10=244|8=FIXT.1.1|9=60|35=0|34=218|49=RECEIVERAPA|52=20170920-15:26:01.777|56=TRAX|10=249|8=FIXT.1.1|9=60|35=0|34=219|49=RECEIVERAPA|52=20170920-15:26:32.786|56=TRAX|10=254|8=FIXT.1.1|9=60|35=0|34=220|49=RECEIVERAPA|52=20170920-15:27:03.743|56=TRAX|10=238|8=FIXT.1.1|9=60|35=0|34=221|49=RECEIVERAPA|52=20170920-15:27:33.778|56=TRAX|10=250|8=FIXT.1.1|9=60|35=0|34=222|49=RECEIVERAPA|52=20170920-15:28:04.777|56=TRAX|10=249|8=FIXT.1.1|9=60|35=0|34=223|49=RECEIVERAPA|52=20170920-15:28:34.780|56=TRAX|10=247|8=FIXT.1.1|9=60|35=0|34=224|49=RECEIVERAPA|52=20170920-15:29:05.743|56=TRAX|10=246|8=FIXT.1.1|9=60|35=0|34=225|49=RECEIVERAPA|52=20170920-15:29:36.742|56=TRAX|10=250|8=FIXT.1.1|9=60|35=0|34=226|49=RECEIVERAPA|52=20170920-15:30:06.742|56=TRAX|10=240|8=FIXT.1.1|9=60|35=0|34=227|49=RECEIVERAPA|52=20170920-15:30:36.771|56=TRAX|10=246|8=FIXT.1.1|9=60|35=0|34=228|49=RECEIVERAPA|52=20170920-15:31:06.782|56=TRAX|10=247|8=FIXT.1.1|9=60|35=0|34=229|49=RECEIVERAPA|52=20170920-15:31:37.774|56=TRAX|10=253|8=FIXT.1.1|9=60|35=0|34=230|49=RECEIVERAPA|52=20170920-15:32:07.785|56=TRAX|10=245|8=FIXT.1.1|9=60|35=0|34=231|49=RECEIVERAPA|52=20170920-15:32:38.774|56=TRAX|10=248|8=FIXT.1.1|9=60|35=0|34=232|49=RECEIVERAPA|52=20170920-15:33:08.782|56=TRAX|10=246|8=FIXT.1.1|9=60|35=0|34=233|49=RECEIVERAPA|52=20170920-15:33:39.780|56=TRAX|10=249|8=FIXT.1.1|9=60|35=0|34=234|49=RECEIVERAPA|52=20170920-15:34:10.778|56=TRAX|10=247|8=FIXT.1.1|9=60|35=0|34=235|49=RECEIVERAPA|52=20170920-15:34:40.785|56=TRAX|10=249|8=FIXT.1.1|9=60|35=0|34=236|49=RECEIVERAPA|52=20170920-15:35:11.762|56=TRAX|10=244|8=FIXT.1.1|9=60|35=0|34=237|49=RECEIVERAPA|52=20170920-15:35:42.744|56=TRAX|10=249|8=FIXT.1.1|9=60|35=0|34=238|49=RECEIVERAPA|52=20170920-15:36:12.786|56=TRAX|10=254|8=FIXT.1.1|9=60|35=0|34=239|49=RECEIVERAPA|52=20170920-15:36:43.780|56=TRAX|10=253|8=FIXT.1.1|9=60|35=0|34=240|49=RECEIVERAPA|52=20170920-15:37:14.775|56=TRAX|10=248|8=FIXT.1.1|9=60|35=0|34=241|49=RECEIVERAPA|52=20170920-15:37:44.778|56=TRAX|10=255|8=FIXT.1.1|9=60|35=0|34=242|49=RECEIVERAPA|52=20170920-15:38:14.789|56=TRAX|10=000|8=FIXT.1.1|9=60|35=0|34=243|49=RECEIVERAPA|52=20170920-15:38:45.785|56=TRAX|10=001|8=FIXT.1.1|9=60|35=0|34=244|49=RECEIVERAPA|52=20170920-15:39:15.785|56=TRAX|10=000|8=FIXT.1.1|9=60|35=0|34=245|49=RECEIVERAPA|52=20170920-15:39:46.782|56=TRAX|10=002|8=FIXT.1.1|9=60|35=0|34=246|49=RECEIVERAPA|52=20170920-15:40:16.787|56=TRAX|10=253|8=FIXT.1.1|9=60|35=0|34=247|49=RECEIVERAPA|52=20170920-15:40:46.791|56=TRAX|10=252|8=FIXT.1.1|9=60|35=0|34=248|49=RECEIVERAPA|52=20170920-15:41:17.780|56=TRAX|10=250|8=FIXT.1.1|9=60|35=0|34=249|49=RECEIVERAPA|52=20170920-15:41:47.782|56=TRAX|10=000|8=FIXT.1.1|9=60|35=0|34=250|49=RECEIVERAPA|52=20170920-15:42:17.791|56=TRAX|10=246|8=FIXT.1.1|9=60|35=0|34=251|49=RECEIVERAPA|52=20170920-15:42:48.072|56=TRAX|10=243|8=FIXT.1.1|9=60|35=0|34=252|49=RECEIVERAPA|52=20170920-15:43:18.788|56=TRAX|10=000|8=FIXT.1.1|9=60|35=0|34=253|49=RECEIVERAPA|52=20170920-15:43:49.783|56=TRAX|10=000|8=FIXT.1.1|9=60|35=0|34=254|49=RECEIVERAPA|52=20170920-15:44:20.780|56=TRAX|10=244|8=FIXT.1.1|9=60|35=0|34=255|49=RECEIVERAPA|52=20170920-15:44:50.788|56=TRAX|10=000|8=FIXT.1.1|9=60|35=0|34=256|49=RECEIVERAPA|52=20170920-15:45:20.795|56=TRAX|10=253|8=FIXT.1.1|9=60|35=0|34=257|49=RECEIVERAPA|52=20170920-15:45:51.788|56=TRAX|10=004|8=FIXT.1.1|9=60|35=0|34=258|49=RECEIVERAPA|52=20170920-15:46:22.785|56=TRAX|10=001|8=FIXT.1.1|9=60|35=0|34=259|49=RECEIVERAPA|52=20170920-15:46:53.793|56=TRAX|10=005|8=FIXT.1.1|9=60|35=0|34=260|49=RECEIVERAPA|52=20170920-15:47:24.768|56=TRAX|10=254|8=FIXT.1.1|9=60|35=0|34=261|49=RECEIVERAPA|52=20170920-15:47:54.785|56=TRAX|10=001|8=FIXT.1.1|9=60|35=0|34=262|49=RECEIVERAPA|52=20170920-15:48:25.766|56=TRAX|10=000|8=FIXT.1.1|9=60|35=0|34=263|49=RECEIVERAPA|52=20170920-15:48:56.795|56=TRAX|10=007|8=FIXT.1.1|9=60|35=0|34=264|49=RECEIVERAPA|52=20170920-15:49:27.782|56=TRAX|10=003|8=FIXT.1.1|9=60|35=0|34=265|49=RECEIVERAPA|52=20170920-15:49:57.783|56=TRAX|10=008|8=FIXT.1.1|9=60|35=0|34=266|49=RECEIVERAPA|52=20170920-15:50:27.788|56=TRAX|10=003|8=FIXT.1.1|9=60|35=0|34=267|49=RECEIVERAPA|52=20170920-15:50:57.792|56=TRAX|10=002|8=FIXT.1.1|9=60|35=0|34=268|49=RECEIVERAPA|52=20170920-15:51:28.790|56=TRAX|10=000|8=FIXT.1.1|9=60|35=0|34=269|49=RECEIVERAPA|52=20170920-15:51:58.791|56=TRAX|10=005|8=FIXT.1.1|9=60|35=0|34=270|49=RECEIVERAPA|52=20170920-15:52:29.788|56=TRAX|10=002|8=FIXT.1.1|9=60|35=0|34=271|49=RECEIVERAPA|52=20170920-15:53:00.786|56=TRAX|10=247|8=FIXT.1.1|9=60|35=0|34=272|49=RECEIVERAPA|52=20170920-15:53:30.795|56=TRAX|10=251|8=FIXT.1.1|9=60|35=0|34=273|49=RECEIVERAPA|52=20170920-15:54:01.789|56=TRAX|10=254|8=FIXT.1.1|9=60|35=0|34=274|49=RECEIVERAPA|52=20170920-15:54:32.802|56=TRAX|10=245|8=FIXT.1.1|9=60|35=0|34=275|49=RECEIVERAPA|52=20170920-15:55:03.795|56=TRAX|10=000|8=FIXT.1.1|9=60|35=0|34=276|49=RECEIVERAPA|52=20170920-15:55:33.802|56=TRAX|10=249|8=FIXT.1.1|9=60|35=0|34=277|49=RECEIVERAPA|52=20170920-15:56:04.795|56=TRAX|10=004|8=FIXT.1.1|9=60|35=0|34=278|49=RECEIVERAPA|52=20170920-15:56:34.795|56=TRAX|10=008|8=FIXT.1.1|9=60|35=0|34=279|49=RECEIVERAPA|52=20170920-15:57:04.798|56=TRAX|10=010|8=FIXT.1.1|9=60|35=0|34=280|49=RECEIVERAPA|52=20170920-15:57:34.803|56=TRAX|10=248|8=FIXT.1.1|9=60|35=0|34=281|49=RECEIVERAPA|52=20170920-15:58:05.804|56=TRAX|10=249|8=FIXT.1.1|9=60|35=0|34=282|49=RECEIVERAPA|52=20170920-15:58:36.790|56=TRAX|10=002|8=FIXT.1.1|9=60|35=0|34=283|49=RECEIVERAPA|52=20170920-15:59:06.799|56=TRAX|10=010|8=FIXT.1.1|9=60|35=0|34=284|49=RECEIVERAPA|52=20170920-15:59:37.805|56=TRAX|10=003|8=FIXT.1.1|9=60|35=0|34=285|49=RECEIVERAPA|52=20170920-16:00:08.761|56=TRAX|10=246|8=FIXT.1.1|9=60|35=0|34=286|49=RECEIVERAPA|52=20170920-16:00:38.803|56=TRAX|10=247|8=FIXT.1.1|9=60|35=0|34=287|49=RECEIVERAPA|52=20170920-16:01:09.798|56=TRAX|10=004|8=FIXT.1.1|9=60|35=0|34=288|49=RECEIVERAPA|52=20170920-16:01:40.794|56=TRAX|10=252|8=FIXT.1.1|9=60|35=0|34=289|49=RECEIVERAPA|52=20170920-16:02:11.776|56=TRAX|10=252|8=FIXT.1.1|9=60|35=0|34=290|49=RECEIVERAPA|52=20170920-16:02:41.805|56=TRAX|10=240|8=FIXT.1.1|9=60|35=0|34=291|49=RECEIVERAPA|52=20170920-16:03:12.762|56=TRAX|10=242|8=FIXT.1.1|9=60|35=0|34=292|49=RECEIVERAPA|52=20170920-16:03:42.793|56=TRAX|10=250|8=FIXT.1.1|9=60|35=0|34=293|49=RECEIVERAPA|52=20170920-16:04:13.790|56=TRAX|10=247|8=FIXT.1.1|9=60|35=0|34=294|49=RECEIVERAPA|52=20170920-16:04:44.801|56=TRAX|10=245|8=FIXT.1.1|9=60|35=0|34=295|49=RECEIVERAPA|52=20170920-16:05:15.761|56=TRAX|10=250|8=FIXT.1.1|9=60|35=0|34=296|49=RECEIVERAPA|52=20170920-16:05:45.778|56=TRAX|10=006|8=FIXT.1.1|9=60|35=0|34=297|49=RECEIVERAPA|52=20170920-16:06:16.759|56=TRAX|10=005|8=FIXT.1.1|9=60|35=0|34=298|49=RECEIVERAPA|52=20170920-16:06:46.793|56=TRAX|10=007|8=FIXT.1.1|9=60|35=0|34=299|49=RECEIVERAPA|52=20170920-16:07:17.789|56=TRAX|10=012|8=FIXT.1.1|9=60|35=0|34=300|49=RECEIVERAPA|52=20170920-16:07:48.051|56=TRAX|10=237|8=FIXT.1.1|9=60|35=0|34=301|49=RECEIVERAPA|52=20170920-16:08:18.797|56=TRAX|10=253|8=FIXT.1.1|9=60|35=0|34=302|49=RECEIVERAPA|52=20170920-16:08:48.800|56=TRAX|10=242|8=FIXT.1.1|9=60|35=0|34=303|49=RECEIVERAPA|52=20170920-16:09:19.803|56=TRAX|10=245|8=FIXT.1.1|9=60|35=0|34=304|49=RECEIVERAPA|52=20170920-16:09:50.760|56=TRAX|10=243|8=FIXT.1.1|9=60|35=0|34=305|49=RECEIVERAPA|52=20170920-16:10:20.780|56=TRAX|10=235|8=FIXT.1.1|9=60|35=0|34=306|49=RECEIVERAPA|52=20170920-16:10:50.790|56=TRAX|10=240|8=FIXT.1.1|9=60|35=0|34=307|49=RECEIVERAPA|52=20170920-16:11:21.773|56=TRAX|10=241|8=FIXT.1.1|9=60|35=0|34=308|49=RECEIVERAPA|52=20170920-16:11:51.799|56=TRAX|10=253|8=FIXT.1.1|9=60|35=0|34=309|49=RECEIVERAPA|52=20170920-16:12:21.799|56=TRAX|10=252|8=FIXT.1.1|9=60|35=0|34=310|49=RECEIVERAPA|52=20170920-16:12:52.795|56=TRAX|10=244|8=FIXT.1.1|9=60|35=0|34=311|49=RECEIVERAPA|52=20170920-16:13:23.789|56=TRAX|10=247|8=FIXT.1.1|9=60|35=0|34=312|49=RECEIVERAPA|52=20170920-16:13:53.795|56=TRAX|10=248|8=FIXT.1.1|9=60|35=0|34=313|49=RECEIVERAPA|52=20170920-16:14:23.801|56=TRAX|10=235|8=FIXT.1.1|9=60|35=0|34=314|49=RECEIVERAPA|52=20170920-16:14:54.792|56=TRAX|10=249|8=FIXT.1.1|9=60|35=0|34=315|49=RECEIVERAPA|52=20170920-16:15:25.791|56=TRAX|10=248|8=FIXT.1.1|9=60|35=0|34=316|49=RECEIVERAPA|52=20170920-16:15:55.795|56=TRAX|10=000|8=FIXT.1.1|9=60|35=0|34=317|49=RECEIVERAPA|52=20170920-16:16:26.792|56=TRAX|10=253|8=FIXT.1.1|9=60|35=0|34=318|49=RECEIVERAPA|52=20170920-16:16:57.788|56=TRAX|10=007|8=FIXT.1.1|9=60|35=0|34=319|49=RECEIVERAPA|52=20170920-16:17:27.793|56=TRAX|10=002|8=FIXT.1.1|9=60|35=0|34=320|49=RECEIVERAPA|52=20170920-16:17:58.790|56=TRAX|10=251|8=FIXT.1.1|9=60|35=0|34=321|49=RECEIVERAPA|52=20170920-16:18:28.796|56=TRAX|10=000|8=FIXT.1.1|9=60|35=0|34=322|49=RECEIVERAPA|52=20170920-16:18:58.797|56=TRAX|10=005|8=FIXT.1.1|9=60|35=0|34=323|49=RECEIVERAPA|52=20170920-16:19:28.800|56=TRAX|10=245|8=FIXT.1.1|9=60|35=0|34=324|49=RECEIVERAPA|52=20170920-16:19:58.801|56=TRAX|10=250|8=FIXT.1.1|9=60|35=0|34=325|49=RECEIVERAPA|52=20170920-16:20:29.792|56=TRAX|10=250|8=FIXT.1.1|9=60|35=0|34=326|49=RECEIVERAPA|52=20170920-16:20:59.800|56=TRAX|10=244|8=FIXT.1.1|9=60|35=0|34=327|49=RECEIVERAPA|52=20170920-16:21:29.804|56=TRAX|10=247|8=FIXT.1.1|9=60|35=0|34=328|49=RECEIVERAPA|52=20170920-16:22:00.064|56=TRAX|10=236|8=FIXT.1.1|9=60|35=0|34=329|49=RECEIVERAPA|52=20170920-16:22:30.796|56=TRAX|10=252|8=FIXT.1.1|9=60|35=0|34=330|49=RECEIVERAPA|52=20170920-16:23:01.807|56=TRAX|10=236|8=FIXT.1.1|9=60|35=0|34=331|49=RECEIVERAPA|52=20170920-16:23:32.806|56=TRAX|10=240|8=FIXT.1.1|9=60|35=0|34=332|49=RECEIVERAPA|52=20170920-16:24:03.808|56=TRAX|10=242|8=FIXT.1.1|9=60|35=0|34=333|49=RECEIVERAPA|52=20170920-16:24:34.797|56=TRAX|10=254|8=FIXT.1.1|9=60|35=0|34=334|49=RECEIVERAPA|52=20170920-16:25:05.797|56=TRAX|10=254|8=FIXT.1.1|9=60|35=0|34=335|49=RECEIVERAPA|52=20170920-16:25:35.802|56=TRAX|10=245|8=FIXT.1.1|9=60|35=0|34=336|49=RECEIVERAPA|52=20170920-16:26:05.804|56=TRAX|10=246|8=FIXT.1.1|9=60|35=0|34=337|49=RECEIVERAPA|52=20170920-16:26:36.810|56=TRAX|10=248|8=FIXT.1.1|9=60|35=0|34=338|49=RECEIVERAPA|52=20170920-16:27:07.805|56=TRAX|10=252|8=FIXT.1.1|9=60|35=0|34=339|49=RECEIVERAPA|52=20170920-16:27:38.798|56=TRAX|10=012|8=FIXT.1.1|9=60|35=0|34=340|49=RECEIVERAPA|52=20170920-16:28:08.805|56=TRAX|10=247|8=FIXT.1.1|9=60|35=0|34=341|49=RECEIVERAPA|52=20170920-16:28:39.812|56=TRAX|10=250|8=FIXT.1.1|9=60|35=0|34=342|49=RECEIVERAPA|52=20170920-16:29:10.786|56=TRAX|10=251|8=FIXT.1.1|9=60|35=0|34=343|49=RECEIVERAPA|52=20170920-16:29:40.803|56=TRAX|10=245|8=FIXT.1.1|9=60|35=0|34=344|49=RECEIVERAPA|52=20170920-16:30:10.807|56=TRAX|10=239|8=FIXT.1.1|9=60|35=0|34=345|49=RECEIVERAPA|52=20170920-16:30:41.801|56=TRAX|10=238|8=FIXT.1.1|9=60|35=0|34=346|49=RECEIVERAPA|52=20170920-16:31:11.815|56=TRAX|10=242|8=FIXT.1.1|9=60|35=0|34=347|49=RECEIVERAPA|52=20170920-16:31:42.809|56=TRAX|10=250|8=FIXT.1.1|9=60|35=0|34=348|49=RECEIVERAPA|52=20170920-16:32:13.801|56=TRAX|10=242|8=FIXT.1.1|9=60|35=0|34=349|49=RECEIVERAPA|52=20170920-16:32:43.806|56=TRAX|10=251|8=FIXT.1.1|9=60|35=0|34=350|49=RECEIVERAPA|52=20170920-16:33:13.811|56=TRAX|10=237|8=FIXT.1.1|9=60|35=0|34=351|49=RECEIVERAPA|52=20170920-16:33:44.807|56=TRAX|10=247|8=FIXT.1.1|9=60|35=0|34=352|49=RECEIVERAPA|52=20170920-16:34:14.807|56=TRAX|10=246|8=FIXT.1.1|9=60|35=0|34=353|49=RECEIVERAPA|52=20170920-16:34:44.813|56=TRAX|10=247|8=FIXT.1.1|9=60|35=0|34=354|49=RECEIVERAPA|52=20170920-16:35:14.816|56=TRAX|10=249|8=FIXT.1.1|9=60|35=0|34=355|49=RECEIVERAPA|52=20170920-16:35:44.817|56=TRAX|10=254|8=FIXT.1.1|9=60|35=0|34=356|49=RECEIVERAPA|52=20170920-16:36:14.818|56=TRAX|10=254|8=FIXT.1.1|9=60|35=0|34=357|49=RECEIVERAPA|52=20170920-16:36:45.818|56=TRAX|10=003|8=FIXT.1.1|9=60|35=0|34=358|49=RECEIVERAPA|52=20170920-16:37:16.807|56=TRAX|10=001|8=FIXT.1.1|9=60|35=0|34=359|49=RECEIVERAPA|52=20170920-16:37:47.805|56=TRAX|10=004|8=FIXT.1.1|9=60|35=0|34=360|49=RECEIVERAPA|52=20170920-16:38:17.819|56=TRAX|10=255|8=FIXT.1.1|9=60|35=0|34=361|49=RECEIVERAPA|52=20170920-16:38:48.818|56=TRAX|10=003|8=FIXT.1.1|9=60|35=0|34=362|49=RECEIVERAPA|52=20170920-16:39:19.811|56=TRAX|10=252|8=FIXT.1.1|9=60|35=0|34=363|49=RECEIVERAPA|52=20170920-16:39:49.820|56=TRAX|10=000|8=FIXT.1.1|9=60|35=0|34=364|49=RECEIVERAPA|52=20170920-16:40:20.819|56=TRAX|10=246|8=FIXT.1.1|9=60|35=0|34=365|49=RECEIVERAPA|52=20170920-16:40:51.819|56=TRAX|10=251|8=FIXT.1.1|9=60|35=0|34=366|49=RECEIVERAPA|52=20170920-16:41:22.819|56=TRAX|10=251|8=FIXT.1.1|9=60|35=0|34=367|49=RECEIVERAPA|52=20170920-16:41:53.816|56=TRAX|10=253|8=FIXT.1.1|9=60|35=0|34=368|49=RECEIVERAPA|52=20170920-16:42:24.823|56=TRAX|10=251|8=FIXT.1.1|9=60|35=0|34=369|49=RECEIVERAPA|52=20170920-16:42:55.822|56=TRAX|10=255|8=FIXT.1.1|9=60|35=0|34=370|49=RECEIVERAPA|52=20170920-16:43:26.813|56=TRAX|10=246|8=FIXT.1.1|9=60|35=0|34=371|49=RECEIVERAPA|52=20170920-16:43:56.819|56=TRAX|10=000|8=FIXT.1.1|9=60|35=0|34=372|49=RECEIVERAPA|52=20170920-16:44:26.822|56=TRAX|10=249|8=FIXT.1.1|9=60|35=0|34=373|49=RECEIVERAPA|52=20170920-16:44:57.817|56=TRAX|10=002|8=FIXT.1.1|9=60|35=0|34=374|49=RECEIVERAPA|52=20170920-16:45:27.821|56=TRAX|10=252|8=FIXT.1.1|9=60|35=0|34=375|49=RECEIVERAPA|52=20170920-16:45:57.824|56=TRAX|10=003|8=FIXT.1.1|9=60|35=0|34=376|49=RECEIVERAPA|52=20170920-16:46:28.817|56=TRAX|10=005|8=FIXT.1.1|9=60|35=0|34=377|49=RECEIVERAPA|52=20170920-16:46:58.822|56=TRAX|10=005|8=FIXT.1.1|9=60|35=0|34=378|49=RECEIVERAPA|52=20170920-16:47:28.822|56=TRAX|10=004|8=FIXT.1.1|9=60|35=0|34=379|49=RECEIVERAPA|52=20170920-16:47:58.828|56=TRAX|10=014|8=FIXT.1.1|9=60|35=0|34=380|49=RECEIVERAPA|52=20170920-16:48:29.815|56=TRAX|10=001|8=FIXT.1.1|9=60|35=0|34=381|49=RECEIVERAPA|52=20170920-16:48:59.816|56=TRAX|10=006|8=FIXT.1.1|9=60|35=0|34=382|49=RECEIVERAPA|52=20170920-16:49:29.823|56=TRAX|10=003|8=FIXT.1.1|9=60|35=0|34=383|49=RECEIVERAPA|52=20170920-16:49:59.829|56=TRAX|10=013|8=FIXT.1.1|9=60|35=0|34=384|49=RECEIVERAPA|52=20170920-16:50:29.830|56=TRAX|10=251|8=FIXT.1.1|9=60|35=0|34=385|49=RECEIVERAPA|52=20170920-16:50:59.830|56=TRAX|10=255|8=FIXT.1.1|9=60|35=0|34=386|49=RECEIVERAPA|52=20170920-16:51:30.825|56=TRAX|10=250|8=FIXT.1.1|9=60|35=0|34=387|49=RECEIVERAPA|52=20170920-16:52:00.830|56=TRAX|10=245|8=FIXT.1.1|9=60|35=0|34=388|49=RECEIVERAPA|52=20170920-16:52:31.072|56=TRAX|10=248|8=FIXT.1.1|9=60|35=0|34=389|49=RECEIVERAPA|52=20170920-16:53:01.084|56=TRAX|10=250|8=FIXT.1.1|9=60|35=0|34=390|49=RECEIVERAPA|52=20170920-16:53:31.825|56=TRAX|10=248|8=FIXT.1.1|9=60|35=0|34=391|49=RECEIVERAPA|52=20170920-16:54:02.821|56=TRAX|10=244|8=FIXT.1.1|9=60|35=0|34=392|49=RECEIVERAPA|52=20170920-16:54:32.827|56=TRAX|10=254|8=FIXT.1.1|9=60|35=0|34=393|49=RECEIVERAPA|52=20170920-16:55:03.825|56=TRAX|10=252|8=FIXT.1.1|9=60|35=0|34=394|49=RECEIVERAPA|52=20170920-16:55:33.835|56=TRAX|10=001|8=FIXT.1.1|9=60|35=0|34=395|49=RECEIVERAPA|52=20170920-16:56:04.834|56=TRAX|10=000|8=FIXT.1.1|9=60|35=0|34=396|49=RECEIVERAPA|52=20170920-16:56:35.824|56=TRAX|10=004|8=FIXT.1.1|9=60|35=0|34=397|49=RECEIVERAPA|52=20170920-16:57:05.836|56=TRAX|10=006|8=FIXT.1.1|9=60|35=0|34=398|49=RECEIVERAPA|52=20170920-16:57:36.826|56=TRAX|10=010|8=FIXT.1.1|9=60|35=0|34=399|49=RECEIVERAPA|52=20170920-16:58:06.829|56=TRAX|10=012|8=FIXT.1.1|9=60|35=0|34=400|49=RECEIVERAPA|52=20170920-16:58:37.825|56=TRAX|10=251|8=FIXT.1.1|9=60|35=0|34=401|49=RECEIVERAPA|52=20170920-16:59:07.827|56=TRAX|10=252|8=FIXT.1.1|9=60|35=0|34=402|49=RECEIVERAPA|52=20170920-16:59:37.838|56=TRAX|10=002|8=FIXT.1.1|9=60|35=0|34=403|49=RECEIVERAPA|52=20170920-17:00:08.832|56=TRAX|10=238|8=FIXT.1.1|9=60|35=0|34=404|49=RECEIVERAPA|52=20170920-17:00:38.839|56=TRAX|10=249|8=FIXT.1.1|9=60|35=0|34=405|49=RECEIVERAPA|52=20170920-17:01:09.836|56=TRAX|10=246|8=FIXT.1.1|9=60|35=0|34=406|49=RECEIVERAPA|52=20170920-17:01:40.828|56=TRAX|10=243|8=FIXT.1.1|9=60|35=0|34=407|49=RECEIVERAPA|52=20170920-17:02:11.826|56=TRAX|10=241|8=FIXT.1.1|9=60|35=0|34=408|49=RECEIVERAPA|52=20170920-17:02:41.832|56=TRAX|10=242|8=FIXT.1.1|9=60|35=0|34=409|49=RECEIVERAPA|52=20170920-17:03:11.840|56=TRAX|10=240|8=FIXT.1.1|9=60|35=0|34=410|49=RECEIVERAPA|52=20170920-17:03:42.831|56=TRAX|10=236|8=FIXT.1.1|9=60|35=0|34=411|49=RECEIVERAPA|52=20170920-17:04:12.839|56=TRAX|10=243|8=FIXT.1.1|9=60|35=0|34=412|49=RECEIVERAPA|52=20170920-17:04:43.832|56=TRAX|10=241|8=FIXT.1.1|9=60|35=0|34=413|49=RECEIVERAPA|52=20170920-17:05:13.833|56=TRAX|10=241|8=FIXT.1.1|9=60|35=0|34=414|49=RECEIVERAPA|52=20170920-17:05:43.835|56=TRAX|10=247|8=FIXT.1.1|9=60|35=0|34=415|49=RECEIVERAPA|52=20170920-17:06:14.844|56=TRAX|10=247|8=FIXT.1.1|9=60|35=0|34=416|49=RECEIVERAPA|52=20170920-17:06:45.833|56=TRAX|10=250|8=FIXT.1.1|9=60|35=0|34=417|49=RECEIVERAPA|52=20170920-17:07:15.839|56=TRAX|10=255|8=FIXT.1.1|9=60|35=0|34=418|49=RECEIVERAPA|52=20170920-17:07:46.844|56=TRAX|10=000|8=FIXT.1.1|9=60|35=0|34=419|49=RECEIVERAPA|52=20170920-17:08:16.845|56=TRAX|10=000|8=FIXT.1.1|9=60|35=0|34=420|49=RECEIVERAPA|52=20170920-17:08:46.845|56=TRAX|10=251|8=FIXT.1.1|9=60|35=0|34=421|49=RECEIVERAPA|52=20170920-17:09:17.838|56=TRAX|10=253|8=FIXT.1.1|9=60|35=0|34=422|49=RECEIVERAPA|52=20170920-17:09:47.839|56=TRAX|10=002|8=FIXT.1.1|9=60|35=0|34=423|49=RECEIVERAPA|52=20170920-17:10:18.836|56=TRAX|10=246|8=FIXT.1.1|9=60|35=0|34=424|49=RECEIVERAPA|52=20170920-17:10:48.848|56=TRAX|10=253|8=FIXT.1.1|9=60|35=0|34=425|49=RECEIVERAPA|52=20170920-17:11:19.842|56=TRAX|10=247|8=FIXT.1.1|9=60|35=0|34=426|49=RECEIVERAPA|52=20170920-17:11:49.847|56=TRAX|10=000|8=FIXT.1.1|9=60|35=0|34=427|49=RECEIVERAPA|52=20170920-17:12:20.841|56=TRAX|10=241|8=FIXT.1.1|9=60|35=0|34=428|49=RECEIVERAPA|52=20170920-17:12:50.848|56=TRAX|10=252|8=FIXT.1.1|9=60|35=0|34=429|49=RECEIVERAPA|52=20170920-17:13:21.850|56=TRAX|10=245|8=FIXT.1.1|9=60|35=0|34=430|49=RECEIVERAPA|52=20170920-17:13:52.841|56=TRAX|10=241|8=FIXT.1.1|9=60|35=0|34=431|49=RECEIVERAPA|52=20170920-17:14:23.837|56=TRAX|10=246|8=FIXT.1.1|9=60|35=0|34=432|49=RECEIVERAPA|52=20170920-17:14:53.841|56=TRAX|10=245|8=FIXT.1.1|9=60|35=0|34=433|49=RECEIVERAPA|52=20170920-17:15:23.843|56=TRAX|10=246|8=FIXT.1.1|9=60|35=0|34=434|49=RECEIVERAPA|52=20170920-17:15:53.844|56=TRAX|10=251|8=FIXT.1.1|9=60|35=0|34=435|49=RECEIVERAPA|52=20170920-17:16:23.847|56=TRAX|10=253|8=FIXT.1.1|9=60|35=0|34=436|49=RECEIVERAPA|52=20170920-17:16:54.841|56=TRAX|10=252|8=FIXT.1.1|9=60|35=0|34=437|49=RECEIVERAPA|52=20170920-17:17:24.851|56=TRAX|10=252|8=FIXT.1.1|9=60|35=0|34=438|49=RECEIVERAPA|52=20170920-17:17:55.840|56=TRAX|10=255|8=FIXT.1.1|9=60|35=0|34=439|49=RECEIVERAPA|52=20170920-17:18:25.845|56=TRAX|10=003|8=FIXT.1.1|9=60|35=0|34=440|49=RECEIVERAPA|52=20170920-17:18:55.847|56=TRAX|10=000|8=FIXT.1.1|9=60|35=0|34=441|49=RECEIVERAPA|52=20170920-17:19:26.842|56=TRAX|10=251|8=FIXT.1.1|9=60|35=0|34=442|49=RECEIVERAPA|52=20170920-17:19:56.849|56=TRAX|10=006|8=FIXT.1.1|9=60|35=0|34=443|49=RECEIVERAPA|52=20170920-17:20:26.853|56=TRAX|10=247|8=FIXT.1.1|9=60|35=0|34=444|49=RECEIVERAPA|52=20170920-17:20:57.855|56=TRAX|10=254|8=FIXT.1.1|9=60|35=0|34=445|49=RECEIVERAPA|52=20170920-17:21:28.856|56=TRAX|10=255|8=FIXT.1.1|9=60|35=0|34=446|49=RECEIVERAPA|52=20170920-17:21:59.850|56=TRAX|10=254|8=FIXT.1.1|9=60|35=0|34=447|49=RECEIVERAPA|52=20170920-17:22:29.856|56=TRAX|10=003|8=FIXT.1.1|9=60|35=0|34=448|49=RECEIVERAPA|52=20170920-17:22:59.857|56=TRAX|10=008|8=FIXT.1.1|9=60|35=0|34=449|49=RECEIVERAPA|52=20170920-17:23:30.854|56=TRAX|10=252|8=FIXT.1.1|9=60|35=0|34=450|49=RECEIVERAPA|52=20170920-17:24:01.096|56=TRAX|10=241|8=FIXT.1.1|9=60|35=0|34=451|49=RECEIVERAPA|52=20170920-17:24:31.097|56=TRAX|10=246|8=FIXT.1.1|9=60|35=0|34=452|49=RECEIVERAPA|52=20170920-17:25:01.100|56=TRAX|10=230|8=FIXT.1.1|9=60|35=0|34=453|49=RECEIVERAPA|52=20170920-17:25:31.101|56=TRAX|10=235|8=FIXT.1.1|9=60|35=0|34=454|49=RECEIVERAPA|52=20170920-17:26:01.853|56=TRAX|10=248|8=FIXT.1.1|9=60|35=0|34=455|49=RECEIVERAPA|52=20170920-17:26:32.845|56=TRAX|10=254|8=FIXT.1.1|9=60|35=0|34=456|49=RECEIVERAPA|52=20170920-17:27:02.857|56=TRAX|10=000|8=FIXT.1.1|9=60|35=0|34=457|49=RECEIVERAPA|52=20170920-17:27:32.861|56=TRAX|10=255|8=FIXT.1.1|9=60|35=0|34=458|49=RECEIVERAPA|52=20170920-17:28:03.857|56=TRAX|10=004|8=FIXT.1.1|9=60|35=0|34=459|49=RECEIVERAPA|52=20170920-17:28:34.855|56=TRAX|10=007|8=FIXT.1.1|9=60|35=0|34=460|49=RECEIVERAPA|52=20170920-17:29:05.851|56=TRAX|10=250|8=FIXT.1.1|9=60|35=0|34=461|49=RECEIVERAPA|52=20170920-17:29:35.854|56=TRAX|10=001|8=FIXT.1.1|9=60|35=0|34=462|49=RECEIVERAPA|52=20170920-17:30:05.859|56=TRAX|10=252|8=FIXT.1.1|9=60|35=0|34=463|49=RECEIVERAPA|52=20170920-17:30:36.860|56=TRAX|10=249|8=FIXT.1.1|9=60|35=0|34=464|49=RECEIVERAPA|52=20170920-17:31:06.863|56=TRAX|10=251|8=FIXT.1.1|9=60|35=0|34=465|49=RECEIVERAPA|52=20170920-17:31:37.860|56=TRAX|10=253|8=FIXT.1.1|9=60|35=0|34=466|49=RECEIVERAPA|52=20170920-17:32:07.861|56=TRAX|10=253|8=FIXT.1.1|9=60|35=0|34=467|49=RECEIVERAPA|52=20170920-17:32:37.866|56=TRAX|10=006|8=FIXT.1.1|9=60|35=0|34=468|49=RECEIVERAPA|52=20170920-17:33:08.858|56=TRAX|10=007|8=FIXT.1.1|9=60|35=0|34=469|49=RECEIVERAPA|52=20170920-17:33:38.859|56=TRAX|10=012|8=FIXT.1.1|9=60|35=0|34=470|49=RECEIVERAPA|52=20170920-17:34:08.863|56=TRAX|10=253|8=FIXT.1.1|9=60|35=0|34=471|49=RECEIVERAPA|52=20170920-17:34:39.855|56=TRAX|10=003|8=FIXT.1.1|9=60|35=0|34=472|49=RECEIVERAPA|52=20170920-17:35:09.855|56=TRAX|10=002|8=FIXT.1.1|9=60|35=0|34=473|49=RECEIVERAPA|52=20170920-17:35:39.858|56=TRAX|10=009|8=FIXT.1.1|9=60|35=0|34=474|49=RECEIVERAPA|52=20170920-17:36:10.854|56=TRAX|10=252|8=FIXT.1.1|9=60|35=0|34=475|49=RECEIVERAPA|52=20170920-17:36:40.859|56=TRAX|10=005|8=FIXT.1.1|9=60|35=0|34=476|49=RECEIVERAPA|52=20170920-17:37:10.859|56=TRAX|10=004|8=FIXT.1.1|9=60|35=0|34=477|49=RECEIVERAPA|52=20170920-17:37:40.869|56=TRAX|10=009|8=FIXT.1.1|9=60|35=0|34=478|49=RECEIVERAPA|52=20170920-17:38:11.870|56=TRAX|10=001|8=FIXT.1.1|9=60|35=0|34=479|49=RECEIVERAPA|52=20170920-17:38:42.868|56=TRAX|10=013|8=FIXT.1.1|9=60|35=0|34=480|49=RECEIVERAPA|52=20170920-17:39:13.865|56=TRAX|10=001|8=FIXT.1.1|9=60|35=0|34=481|49=RECEIVERAPA|52=20170920-17:39:43.869|56=TRAX|10=009|8=FIXT.1.1|9=60|35=0|34=482|49=RECEIVERAPA|52=20170920-17:40:14.867|56=TRAX|10=254|8=FIXT.1.1|9=60|35=0|34=483|49=RECEIVERAPA|52=20170920-17:40:44.867|56=TRAX|10=002|8=FIXT.1.1|9=60|35=0|34=484|49=RECEIVERAPA|52=20170920-17:41:15.866|56=TRAX|10=001|8=FIXT.1.1|9=60|35=0|34=485|49=RECEIVERAPA|52=20170920-17:41:45.869|56=TRAX|10=008|8=FIXT.1.1|9=60|35=0|34=486|49=RECEIVERAPA|52=20170920-17:42:15.869|56=TRAX|10=007|8=FIXT.1.1|9=60|35=0|34=487|49=RECEIVERAPA|52=20170920-17:42:46.875|56=TRAX|10=009|8=FIXT.1.1|9=60|35=0|34=488|49=RECEIVERAPA|52=20170920-17:43:17.871|56=TRAX|10=005|8=FIXT.1.1|9=60|35=0|34=489|49=RECEIVERAPA|52=20170920-17:43:48.870|56=TRAX|10=009|8=FIXT.1.1|9=60|35=0|34=490|49=RECEIVERAPA|52=20170920-17:44:19.872|56=TRAX|10=002|8=FIXT.1.1|9=60|35=0|34=491|49=RECEIVERAPA|52=20170920-17:44:50.865|56=TRAX|10=000|8=FIXT.1.1|9=60|35=0|34=492|49=RECEIVERAPA|52=20170920-17:45:21.862|56=TRAX|10=253|8=FIXT.1.1|9=60|35=0|34=493|49=RECEIVERAPA|52=20170920-17:45:51.865|56=TRAX|10=004|8=FIXT.1.1|9=60|35=0|34=494|49=RECEIVERAPA|52=20170920-17:46:22.863|56=TRAX|10=002|8=FIXT.1.1|9=60|35=0|34=495|49=RECEIVERAPA|52=20170920-17:46:52.863|56=TRAX|10=006|8=FIXT.1.1|9=60|35=0|34=496|49=RECEIVERAPA|52=20170920-17:47:22.867|56=TRAX|10=009|8=FIXT.1.1|9=60|35=0|34=497|49=RECEIVERAPA|52=20170920-17:47:53.864|56=TRAX|10=011|8=FIXT.1.1|9=60|35=0|34=498|49=RECEIVERAPA|52=20170920-17:48:23.865|56=TRAX|10=011|8=FIXT.1.1|9=60|35=0|34=499|49=RECEIVERAPA|52=20170920-17:48:53.866|56=TRAX|10=016|8=FIXT.1.1|9=60|35=0|34=500|49=RECEIVERAPA|52=20170920-17:49:23.866|56=TRAX|10=253|8=FIXT.1.1|9=60|35=0|34=501|49=RECEIVERAPA|52=20170920-17:49:53.870|56=TRAX|10=252|8=FIXT.1.1|9=60|35=0|34=502|49=RECEIVERAPA|52=20170920-17:50:23.876|56=TRAX|10=248|8=FIXT.1.1|9=60|35=0|34=503|49=RECEIVERAPA|52=20170920-17:50:53.877|56=TRAX|10=253|8=FIXT.1.1|9=60|35=0|34=504|49=RECEIVERAPA|52=20170920-17:51:24.876|56=TRAX|10=252|8=FIXT.1.1|9=60|35=0|34=505|49=RECEIVERAPA|52=20170920-17:51:55.860|56=TRAX|10=250|8=FIXT.1.1|9=60|35=0|34=506|49=RECEIVERAPA|52=20170920-17:52:25.874|56=TRAX|10=254|8=FIXT.1.1|9=60|35=0|34=507|49=RECEIVERAPA|52=20170920-17:52:55.880|56=TRAX|10=255|8=FIXT.1.1|9=60|35=0|34=508|49=RECEIVERAPA|52=20170920-17:53:26.870|56=TRAX|10=254|8=FIXT.1.1|9=60|35=0|34=509|49=RECEIVERAPA|52=20170920-17:53:56.872|56=TRAX|10=004|8=FIXT.1.1|9=60|35=0|34=510|49=RECEIVERAPA|52=20170920-17:54:26.873|56=TRAX|10=251|8=FIXT.1.1|9=60|35=0|34=511|49=RECEIVERAPA|52=20170920-17:54:56.874|56=TRAX|10=000|8=FIXT.1.1|9=60|35=0|34=512|49=RECEIVERAPA|52=20170920-17:55:26.877|56=TRAX|10=002|8=FIXT.1.1|9=60|35=0|34=513|49=RECEIVERAPA|52=20170920-17:55:56.881|56=TRAX|10=001|8=FIXT.1.1|9=60|35=0|34=514|49=RECEIVERAPA|52=20170920-17:56:27.871|56=TRAX|10=000|8=FIXT.1.1|9=60|35=0|34=515|49=RECEIVERAPA|52=20170920-17:56:57.878|56=TRAX|10=011|8=FIXT.1.1|9=60|35=0|34=516|49=RECEIVERAPA|52=20170920-17:57:27.880|56=TRAX|10=003|8=FIXT.1.1|9=60|35=0|34=517|49=RECEIVERAPA|52=20170920-17:57:57.884|56=TRAX|10=011|8=FIXT.1.1|9=60|35=0|34=518|49=RECEIVERAPA|52=20170920-17:58:28.878|56=TRAX|10=014|8=FIXT.1.1|9=60|35=0|34=519|49=RECEIVERAPA|52=20170920-17:58:58.883|56=TRAX|10=014|8=FIXT.1.1|9=60|35=0|34=520|49=RECEIVERAPA|52=20170920-17:59:29.875|56=TRAX|10=006|8=FIXT.1.1|9=60|35=0|34=521|49=RECEIVERAPA|52=20170920-17:59:59.881|56=TRAX|10=007|8=FIXT.1.1|9=60|35=0|34=522|49=RECEIVERAPA|52=20170920-18:00:30.882|56=TRAX|10=241|8=FIXT.1.1|9=60|35=0|34=523|49=RECEIVERAPA|52=20170920-18:01:00.888|56=TRAX|10=246|8=FIXT.1.1|9=60|35=0|34=524|49=RECEIVERAPA|52=20170920-18:01:31.875|56=TRAX|10=247|8=FIXT.1.1|9=60|35=0|34=525|49=RECEIVERAPA|52=20170920-18:02:01.880|56=TRAX|10=242|8=FIXT.1.1|9=60|35=0|34=526|49=RECEIVERAPA|52=20170920-18:02:31.889|56=TRAX|10=255|8=FIXT.1.1|9=60|35=0|34=527|49=RECEIVERAPA|52=20170920-18:03:02.883|56=TRAX|10=249|8=FIXT.1.1|9=60|35=0|34=528|49=RECEIVERAPA|52=20170920-18:03:32.884|56=TRAX|10=254|8=FIXT.1.1|9=60|35=0|34=529|49=RECEIVERAPA|52=20170920-18:04:02.886|56=TRAX|10=255|8=FIXT.1.1|9=60|35=0|34=530|49=RECEIVERAPA|52=20170920-18:04:32.892|56=TRAX|10=247|8=FIXT.1.1|9=60|35=0|34=531|49=RECEIVERAPA|52=20170920-18:05:03.886|56=TRAX|10=250|8=FIXT.1.1|9=60|35=0|34=532|49=RECEIVERAPA|52=20170920-18:05:34.116|56=TRAX|10=241|8=FIXT.1.1|9=60|35=0|34=533|49=RECEIVERAPA|52=20170920-18:06:04.890|56=TRAX|10=249|8=FIXT.1.1|9=60|35=0|34=534|49=RECEIVERAPA|52=20170920-18:06:35.894|56=TRAX|10=002|8=FIXT.1.1|9=60|35=0|34=535|49=RECEIVERAPA|52=20170920-18:07:06.894|56=TRAX|10=002|8=FIXT.1.1|9=60|35=0|34=536|49=RECEIVERAPA|52=20170920-18:07:37.874|56=TRAX|10=005|8=FIXT.1.1|9=60|35=0|34=537|49=RECEIVERAPA|52=20170920-18:08:07.881|56=TRAX|10=002|8=FIXT.1.1|9=60|35=0|34=538|49=RECEIVERAPA|52=20170920-18:08:37.884|56=TRAX|10=009|8=FIXT.1.1|9=60|35=0|34=539|49=RECEIVERAPA|52=20170920-18:09:08.883|56=TRAX|10=008|8=FIXT.1.1|9=60|35=0|34=540|49=RECEIVERAPA|52=20170920-18:09:38.884|56=TRAX|10=004|8=FIXT.1.1|9=60|35=0|34=541|49=RECEIVERAPA|52=20170920-18:10:08.886|56=TRAX|10=252|8=FIXT.1.1|9=60|35=0|34=542|49=RECEIVERAPA|52=20170920-18:10:38.892|56=TRAX|10=253|8=FIXT.1.1|9=60|35=0|34=543|49=RECEIVERAPA|52=20170920-18:11:08.894|56=TRAX|10=254|8=FIXT.1.1|9=60|35=0|34=544|49=RECEIVERAPA|52=20170920-18:11:39.894|56=TRAX|10=003|8=FIXT.1.1|9=60|35=0|34=545|49=RECEIVERAPA|52=20170920-18:12:10.888|56=TRAX|10=253|8=FIXT.1.1|9=60|35=0|34=546|49=RECEIVERAPA|52=20170920-18:12:40.899|56=TRAX|10=003|8=FIXT.1.1|9=60|35=0|34=547|49=RECEIVERAPA|52=20170920-18:13:11.898|56=TRAX|10=002|8=FIXT.1.1|9=60|35=0|34=548|49=RECEIVERAPA|52=20170920-18:13:42.888|56=TRAX|10=006|8=FIXT.1.1|9=60|35=0|34=549|49=RECEIVERAPA|52=20170920-18:14:12.891|56=TRAX|10=255|8=FIXT.1.1|9=60|35=0|34=550|49=RECEIVERAPA|52=20170920-18:14:42.893|56=TRAX|10=252|8=FIXT.1.1|9=60|35=0|34=551|49=RECEIVERAPA|52=20170920-18:15:13.891|56=TRAX|10=250|8=FIXT.1.1|9=60|35=0|34=552|49=RECEIVERAPA|52=20170920-18:15:43.893|56=TRAX|10=000|8=FIXT.1.1|9=60|35=0|34=553|49=RECEIVERAPA|52=20170920-18:16:13.895|56=TRAX|10=001|8=FIXT.1.1|9=60|35=0|34=554|49=RECEIVERAPA|52=20170920-18:16:43.899|56=TRAX|10=009|8=FIXT.1.1|9=60|35=0|34=555|49=RECEIVERAPA|52=20170920-18:17:13.899|56=TRAX|10=008|8=FIXT.1.1|9=60|35=0|34=556|49=RECEIVERAPA|52=20170920-18:17:44.901|56=TRAX|10=253|8=FIXT.1.1|9=60|35=0|34=557|49=RECEIVERAPA|52=20170920-18:18:14.904|56=TRAX|10=255|8=FIXT.1.1|9=60|35=0|34=558|49=RECEIVERAPA|52=20170920-18:18:45.892|56=TRAX|10=010|8=FIXT.1.1|9=60|35=0|34=559|49=RECEIVERAPA|52=20170920-18:19:15.893|56=TRAX|10=010|8=FIXT.1.1|9=60|35=0|34=560|49=RECEIVERAPA|52=20170920-18:19:45.904|56=TRAX|10=254|8=FIXT.1.1|9=60|35=0|34=561|49=RECEIVERAPA|52=20170920-18:20:16.896|56=TRAX|10=255|8=FIXT.1.1|9=60|35=0|34=562|49=RECEIVERAPA|52=20170920-18:20:47.898|56=TRAX|10=006|8=FIXT.1.1|9=60|35=0|34=563|49=RECEIVERAPA|52=20170920-18:21:18.893|56=TRAX|10=001|8=FIXT.1.1|9=60|35=0|34=564|49=RECEIVERAPA|52=20170920-18:21:48.899|56=TRAX|10=011|8=FIXT.1.1|9=60|35=0|34=565|49=RECEIVERAPA|52=20170920-18:22:19.896|56=TRAX|10=008|8=FIXT.1.1|9=60|35=0|34=566|49=RECEIVERAPA|52=20170920-18:22:50.908|56=TRAX|10=254|8=FIXT.1.1|9=60|35=0|34=567|49=RECEIVERAPA|52=20170920-18:23:21.906|56=TRAX|10=252|8=FIXT.1.1|9=60|35=0|34=568|49=RECEIVERAPA|52=20170920-18:23:52.903|56=TRAX|10=254|8=FIXT.1.1|9=60|35=0|34=569|49=RECEIVERAPA|52=20170920-18:24:23.908|56=TRAX|10=003|8=FIXT.1.1|9=60|35=0|34=570|49=RECEIVERAPA|52=20170920-18:24:54.895|56=TRAX|10=004|8=FIXT.1.1|9=60|35=0|34=571|49=RECEIVERAPA|52=20170920-18:25:24.906|56=TRAX|10=252|8=FIXT.1.1|9=60|35=0|34=572|49=RECEIVERAPA|52=20170920-18:25:55.906|56=TRAX|10=001|8=FIXT.1.1|9=60|35=0|34=573|49=RECEIVERAPA|52=20170920-18:26:25.907|56=TRAX|10=001|8=FIXT.1.1|9=60|35=0|34=574|49=RECEIVERAPA|52=20170920-18:26:55.911|56=TRAX|10=000|8=FIXT.1.1|9=60|35=0|34=575|49=RECEIVERAPA|52=20170920-18:27:25.911|56=TRAX|10=255|8=FIXT.1.1|9=60|35=0|34=576|49=RECEIVERAPA|52=20170920-18:27:56.899|56=TRAX|10=019|8=FIXT.1.1|9=60|35=0|34=577|49=RECEIVERAPA|52=20170920-18:28:26.906|56=TRAX|10=007|8=FIXT.1.1|9=60|35=0|34=578|49=RECEIVERAPA|52=20170920-18:28:57.900|56=TRAX|10=006|8=FIXT.1.1|9=60|35=0|34=579|49=RECEIVERAPA|52=20170920-18:29:27.904|56=TRAX|10=009|8=FIXT.1.1|9=60|35=0|34=580|49=RECEIVERAPA|52=20170920-18:29:57.913|56=TRAX|10=004|8=FIXT.1.1|9=60|35=0|34=581|49=RECEIVERAPA|52=20170920-18:30:28.900|56=TRAX|10=247|8=FIXT.1.1|9=60|35=0|34=582|49=RECEIVERAPA|52=20170920-18:30:58.911|56=TRAX|10=253|8=FIXT.1.1|9=60|35=0|34=583|49=RECEIVERAPA|52=20170920-18:31:28.911|56=TRAX|10=252|8=FIXT.1.1|9=60|35=0|34=584|49=RECEIVERAPA|52=20170920-18:31:59.902|56=TRAX|10=001|8=FIXT.1.1|9=60|35=0|34=585|49=RECEIVERAPA|52=20170920-18:32:29.902|56=TRAX|10=000|8=FIXT.1.1|9=60|35=0|34=586|49=RECEIVERAPA|52=20170920-18:32:59.902|56=TRAX|10=004|8=FIXT.1.1|9=60|35=0|34=587|49=RECEIVERAPA|52=20170920-18:33:29.903|56=TRAX|10=004|8=FIXT.1.1|9=60|35=0|34=588|49=RECEIVERAPA|52=20170920-18:33:59.910|56=TRAX|10=006|8=FIXT.1.1|9=60|35=0|34=589|49=RECEIVERAPA|52=20170920-18:34:29.915|56=TRAX|10=010|8=FIXT.1.1|9=60|35=0|34=590|49=RECEIVERAPA|52=20170920-18:35:00.909|56=TRAX|10=251|8=FIXT.1.1|9=60|35=0|34=591|49=RECEIVERAPA|52=20170920-18:35:31.917|56=TRAX|10=255|8=FIXT.1.1|9=60|35=0|34=592|49=RECEIVERAPA|52=20170920-18:36:02.909|56=TRAX|10=000|8=FIXT.1.1|9=60|35=0|34=593|49=RECEIVERAPA|52=20170920-18:36:33.907|56=TRAX|10=003|8=FIXT.1.1|9=60|35=0|34=594|49=RECEIVERAPA|52=20170920-18:37:03.920|56=TRAX|10=253|8=FIXT.1.1|9=60|35=0|34=595|49=RECEIVERAPA|52=20170920-18:37:34.909|56=TRAX|10=009|8=FIXT.1.1|9=60|35=0|34=596|49=RECEIVERAPA|52=20170920-18:38:04.910|56=TRAX|10=000|8=FIXT.1.1|9=60|35=0|34=597|49=RECEIVERAPA|52=20170920-18:38:34.913|56=TRAX|10=007|8=FIXT.1.1|9=60|35=0|34=598|49=RECEIVERAPA|52=20170920-18:39:04.913|56=TRAX|10=006|8=FIXT.1.1|9=60|35=0|34=599|49=RECEIVERAPA|52=20170920-18:39:34.921|56=TRAX|10=009|8=FIXT.1.1|9=60|35=0|34=600|49=RECEIVERAPA|52=20170920-18:40:04.922|56=TRAX|10=238|8=FIXT.1.1|9=60|35=0|34=601|49=RECEIVERAPA|52=20170920-18:40:34.922|56=TRAX|10=242|8=FIXT.1.1|9=60|35=0|34=602|49=RECEIVERAPA|52=20170920-18:41:05.923|56=TRAX|10=243|8=FIXT.1.1|9=60|35=0|34=603|49=RECEIVERAPA|52=20170920-18:41:35.923|56=TRAX|10=247|8=FIXT.1.1|9=60|35=0|34=604|49=RECEIVERAPA|52=20170920-18:42:05.924|56=TRAX|10=247|8=FIXT.1.1|9=60|35=0|34=605|49=RECEIVERAPA|52=20170920-18:42:36.132|56=TRAX|10=243|8=FIXT.1.1|9=60|35=0|34=606|49=RECEIVERAPA|52=20170920-18:43:06.919|56=TRAX|10=255|8=FIXT.1.1|9=60|35=0|34=607|49=RECEIVERAPA|52=20170920-18:43:37.920|56=TRAX|10=252|8=FIXT.1.1|9=60|35=0|34=608|49=RECEIVERAPA|52=20170920-18:44:08.920|56=TRAX|10=252|8=FIXT.1.1|9=60|35=0|34=609|49=RECEIVERAPA|52=20170920-18:44:38.922|56=TRAX|10=002|8=FIXT.1.1|9=60|35=0|34=610|49=RECEIVERAPA|52=20170920-18:45:09.914|56=TRAX|10=250|8=FIXT.1.1|9=60|35=0|34=611|49=RECEIVERAPA|52=20170920-18:45:39.920|56=TRAX|10=251|8=FIXT.1.1|9=60|35=0|34=612|49=RECEIVERAPA|52=20170920-18:46:09.927|56=TRAX|10=001|8=FIXT.1.1|9=60|35=0|34=613|49=RECEIVERAPA|52=20170920-18:46:40.920|56=TRAX|10=246|8=FIXT.1.1|9=60|35=0|34=614|49=RECEIVERAPA|52=20170920-18:47:11.928|56=TRAX|10=254|8=FIXT.1.1|9=60|35=0|34=615|49=RECEIVERAPA|52=20170920-18:47:42.915|56=TRAX|10=255|8=FIXT.1.1|9=60|35=0|34=616|49=RECEIVERAPA|52=20170920-18:48:12.926|56=TRAX|10=000|8=FIXT.1.1|9=60|35=0|34=617|49=RECEIVERAPA|52=20170920-18:48:43.923|56=TRAX|10=002|8=FIXT.1.1|9=60|35=0|34=618|49=RECEIVERAPA|52=20170920-18:49:14.917|56=TRAX|10=005|8=FIXT.1.1|9=60|35=0|34=619|49=RECEIVERAPA|52=20170920-18:49:45.916|56=TRAX|10=009|8=FIXT.1.1|9=60|35=0|34=620|49=RECEIVERAPA|52=20170920-18:50:15.916|56=TRAX|10=246|8=FIXT.1.1|9=60|35=0|34=621|49=RECEIVERAPA|52=20170920-18:50:45.916|56=TRAX|10=250|8=FIXT.1.1|9=60|35=0|34=622|49=RECEIVERAPA|52=20170920-18:51:15.928|56=TRAX|10=252|8=FIXT.1.1|9=60|35=0|34=623|49=RECEIVERAPA|52=20170920-18:51:46.925|56=TRAX|10=254|8=FIXT.1.1|9=60|35=0|34=624|49=RECEIVERAPA|52=20170920-18:52:17.929|56=TRAX|10=002|8=FIXT.1.1|9=60|35=0|34=625|49=RECEIVERAPA|52=20170920-18:52:48.924|56=TRAX|10=002|8=FIXT.1.1|9=60|35=0|34=626|49=RECEIVERAPA|52=20170920-18:53:18.926|56=TRAX|10=003|8=FIXT.1.1|9=60|35=0|34=627|49=RECEIVERAPA|52=20170920-18:53:49.932|56=TRAX|10=005|8=FIXT.1.1|9=60|35=0|34=628|49=RECEIVERAPA|52=20170920-18:54:20.929|56=TRAX|10=002|8=FIXT.1.1|9=60|35=0|34=629|49=RECEIVERAPA|52=20170920-18:54:51.920|56=TRAX|10=254|8=FIXT.1.1|9=60|35=0|34=630|49=RECEIVERAPA|52=20170920-18:55:21.925|56=TRAX|10=249|8=FIXT.1.1|9=60|35=0|34=631|49=RECEIVERAPA|52=20170920-18:55:51.927|56=TRAX|10=255|8=FIXT.1.1|9=60|35=0|34=632|49=RECEIVERAPA|52=20170920-18:56:21.930|56=TRAX|10=248|8=FIXT.1.1|9=60|35=0|34=633|49=RECEIVERAPA|52=20170920-18:56:52.928|56=TRAX|10=004|8=FIXT.1.1|9=60|35=0|34=634|49=RECEIVERAPA|52=20170920-18:57:23.929|56=TRAX|10=005|8=FIXT.1.1|9=60|35=0|34=635|49=RECEIVERAPA|52=20170920-18:57:53.935|56=TRAX|10=006|8=FIXT.1.1|9=60|35=0|34=636|49=RECEIVERAPA|52=20170920-18:58:24.926|56=TRAX|10=006|8=FIXT.1.1|9=60|35=0|34=637|49=RECEIVERAPA|52=20170920-18:58:55.937|56=TRAX|10=013|8=FIXT.1.1|9=60|35=0|34=638|49=RECEIVERAPA|52=20170920-18:59:26.934|56=TRAX|10=010|8=FIXT.1.1|9=60|35=0|34=639|49=RECEIVERAPA|52=20170920-18:59:57.925|56=TRAX|10=015|8=FIXT.1.1|9=60|35=0|34=640|49=RECEIVERAPA|52=20170920-19:00:27.930|56=TRAX|10=243|8=FIXT.1.1|9=60|35=0|34=641|49=RECEIVERAPA|52=20170920-19:00:57.934|56=TRAX|10=251|8=FIXT.1.1|9=60|35=0|34=642|49=RECEIVERAPA|52=20170920-19:01:27.937|56=TRAX|10=253|8=FIXT.1.1|9=60|35=0|34=643|49=RECEIVERAPA|52=20170920-19:01:58.933|56=TRAX|10=254|8=FIXT.1.1|9=60|35=0|34=644|49=RECEIVERAPA|52=20170920-19:02:28.938|56=TRAX|10=002|8=FIXT.1.1|9=60|35=0|34=645|49=RECEIVERAPA|52=20170920-19:02:58.939|56=TRAX|10=007|8=FIXT.1.1|9=60|35=0|34=646|49=RECEIVERAPA|52=20170920-19:03:29.935|56=TRAX|10=003|8=FIXT.1.1|9=60|35=0|34=647|49=RECEIVERAPA|52=20170920-19:04:00.930|56=TRAX|10=245|8=FIXT.1.1|9=60|35=0|34=648|49=RECEIVERAPA|52=20170920-19:04:30.934|56=TRAX|10=253|8=FIXT.1.1|9=60|35=0|34=649|49=RECEIVERAPA|52=20170920-19:05:00.934|56=TRAX|10=252|8=FIXT.1.1|9=60|35=0|34=650|49=RECEIVERAPA|52=20170920-19:05:30.938|56=TRAX|10=251|8=FIXT.1.1|9=60|35=0|34=651|49=RECEIVERAPA|52=20170920-19:06:00.940|56=TRAX|10=243|8=FIXT.1.1|9=60|35=0|34=652|49=RECEIVERAPA|52=20170920-19:06:31.936|56=TRAX|10=253|8=FIXT.1.1|9=60|35=0|34=653|49=RECEIVERAPA|52=20170920-19:07:01.942|56=TRAX|10=249|8=FIXT.1.1|9=60|35=0|34=654|49=RECEIVERAPA|52=20170920-19:07:32.921|56=TRAX|10=251|8=FIXT.1.1|9=60|35=0|34=655|49=RECEIVERAPA|52=20170920-19:08:02.932|56=TRAX|10=252|8=FIXT.1.1|9=60|35=0|34=656|49=RECEIVERAPA|52=20170920-19:08:32.946|56=TRAX|10=005|8=FIXT.1.1|9=60|35=0|34=657|49=RECEIVERAPA|52=20170920-19:09:03.934|56=TRAX|10=002|8=FIXT.1.1|9=60|35=0|34=658|49=RECEIVERAPA|52=20170920-19:09:33.937|56=TRAX|10=009|8=FIXT.1.1|9=60|35=0|34=659|49=RECEIVERAPA|52=20170920-19:10:04.938|56=TRAX|10=001|8=FIXT.1.1|9=60|35=0|34=660|49=RECEIVERAPA|52=20170920-19:10:34.945|56=TRAX|10=250|8=FIXT.1.1|9=60|35=0|34=661|49=RECEIVERAPA|52=20170920-19:11:05.933|56=TRAX|10=247|8=FIXT.1.1|9=60|35=0|34=662|49=RECEIVERAPA|52=20170920-19:11:36.118|56=TRAX|10=247|8=FIXT.1.1|9=60|35=0|34=663|49=RECEIVERAPA|52=20170920-19:12:06.144|56=TRAX|10=245|8=FIXT.1.1|9=60|35=0|34=664|49=RECEIVERAPA|52=20170920-19:12:36.921|56=TRAX|10=252|8=FIXT.1.1|9=60|35=0|34=665|49=RECEIVERAPA|52=20170920-19:13:06.926|56=TRAX|10=000|8=FIXT.1.1|9=60|35=0|34=666|49=RECEIVERAPA|52=20170920-19:13:37.912|56=TRAX|10=000|8=FIXT.1.1|9=60|35=0|34=667|49=RECEIVERAPA|52=20170920-19:14:07.921|56=TRAX|10=255|8=FIXT.1.1|9=60|35=0|34=668|49=RECEIVERAPA|52=20170920-19:14:38.912|56=TRAX|10=004|8=FIXT.1.1|9=60|35=0|34=669|49=RECEIVERAPA|52=20170920-19:15:09.911|56=TRAX|10=003|8=FIXT.1.1|9=60|35=0|34=670|49=RECEIVERAPA|52=20170920-19:15:40.908|56=TRAX|10=252|8=FIXT.1.1|9=60|35=0|34=671|49=RECEIVERAPA|52=20170920-19:16:10.909|56=TRAX|10=252|8=FIXT.1.1|9=60|35=0|34=672|49=RECEIVERAPA|52=20170920-19:16:40.909|56=TRAX|10=000|8=FIXT.1.1|9=60|35=0|34=673|49=RECEIVERAPA|52=20170920-19:17:11.899|56=TRAX|10=008|8=FIXT.1.1|9=60|35=0|34=674|49=RECEIVERAPA|52=20170920-19:17:41.901|56=TRAX|10=252|8=FIXT.1.1|9=60|35=0|34=675|49=RECEIVERAPA|52=20170920-19:18:12.897|56=TRAX|10=010|8=FIXT.1.1|9=60|35=0|34=676|49=RECEIVERAPA|52=20170920-19:18:43.894|56=TRAX|10=012|8=FIXT.1.1|9=60|35=0|34=677|49=RECEIVERAPA|52=20170920-19:19:13.903|56=TRAX|10=002|8=FIXT.1.1|9=60|35=0|34=678|49=RECEIVERAPA|52=20170920-19:19:43.904|56=TRAX|10=007|8=FIXT.1.1|9=60|35=0|34=679|49=RECEIVERAPA|52=20170920-19:20:14.902|56=TRAX|10=252|8=FIXT.1.1|9=60|35=0|34=680|49=RECEIVERAPA|52=20170920-19:20:45.893|56=TRAX|10=001|8=FIXT.1.1|9=60|35=0|34=681|49=RECEIVERAPA|52=20170920-19:21:16.895|56=TRAX|10=003|8=FIXT.1.1|9=60|35=0|34=682|49=RECEIVERAPA|52=20170920-19:21:46.896|56=TRAX|10=008|8=FIXT.1.1|9=60|35=0|34=683|49=RECEIVERAPA|52=20170920-19:22:16.901|56=TRAX|10=250|8=FIXT.1.1|9=60|35=0|34=684|49=RECEIVERAPA|52=20170920-19:22:46.901|56=TRAX|10=254|8=FIXT.1.1|9=60|35=0|34=685|49=RECEIVERAPA|52=20170920-19:23:17.889|56=TRAX|10=013|8=FIXT.1.1|9=60|35=0|34=686|49=RECEIVERAPA|52=20170920-19:23:47.895|56=TRAX|10=014|8=FIXT.1.1|9=60|35=0|34=687|49=RECEIVERAPA|52=20170920-19:24:17.903|56=TRAX|10=003|8=FIXT.1.1|9=60|35=0|34=688|49=RECEIVERAPA|52=20170920-19:24:48.900|56=TRAX|10=005|8=FIXT.1.1|9=60|35=0|34=689|49=RECEIVERAPA|52=20170920-19:25:19.897|56=TRAX|10=020|8=FIXT.1.1|9=60|35=0|34=690|49=RECEIVERAPA|52=20170920-19:25:49.900|56=TRAX|10=000|8=FIXT.1.1|9=60|35=0|34=691|49=RECEIVERAPA|52=20170920-19:26:19.903|56=TRAX|10=002|8=FIXT.1.1|9=60|35=0|34=692|49=RECEIVERAPA|52=20170920-19:26:49.905|56=TRAX|10=008|8=FIXT.1.1|9=60|35=0|34=693|49=RECEIVERAPA|52=20170920-19:27:20.893|56=TRAX|10=005|8=FIXT.1.1|9=60|35=0|34=694|49=RECEIVERAPA|52=20170920-19:27:50.901|56=TRAX|10=255|8=FIXT.1.1|9=60|35=0|34=695|49=RECEIVERAPA|52=20170920-19:28:21.892|56=TRAX|10=008|8=FIXT.1.1|9=60|35=0|34=696|49=RECEIVERAPA|52=20170920-19:28:51.899|56=TRAX|10=019|8=FIXT.1.1|9=60|35=0|34=697|49=RECEIVERAPA|52=20170920-19:29:21.904|56=TRAX|10=005|8=FIXT.1.1|9=60|35=0|34=698|49=RECEIVERAPA|52=20170920-19:29:52.901|56=TRAX|10=007|8=FIXT.1.1|9=60|35=0|34=699|49=RECEIVERAPA|52=20170920-19:30:23.895|56=TRAX|10=010|8=FIXT.1.1|9=60|35=0|34=700|49=RECEIVERAPA|52=20170920-19:30:53.907|56=TRAX|10=246|8=FIXT.1.1|9=60|35=0|34=701|49=RECEIVERAPA|52=20170920-19:31:24.905|56=TRAX|10=244|8=FIXT.1.1|9=60|35=0|34=702|49=RECEIVERAPA|52=20170920-19:31:54.907|56=TRAX|10=250|8=FIXT.1.1|9=60|35=0|34=703|49=RECEIVERAPA|52=20170920-19:32:25.899|56=TRAX|10=004|8=FIXT.1.1|9=60|35=0|34=704|49=RECEIVERAPA|52=20170920-19:32:55.905|56=TRAX|10=252|8=FIXT.1.1|9=60|35=0|34=705|49=RECEIVERAPA|52=20170920-19:33:26.903|56=TRAX|10=250|8=FIXT.1.1|9=60|35=0|34=706|49=RECEIVERAPA|52=20170920-19:33:56.905|56=TRAX|10=000|8=FIXT.1.1|9=60|35=0|34=707|49=RECEIVERAPA|52=20170920-19:34:27.910|56=TRAX|10=252|8=FIXT.1.1|9=60|35=0|34=708|49=RECEIVERAPA|52=20170920-19:34:58.900|56=TRAX|10=000|8=FIXT.1.1|9=60|35=0|34=709|49=RECEIVERAPA|52=20170920-19:35:28.912|56=TRAX|10=002|8=FIXT.1.1|9=60|35=0|34=710|49=RECEIVERAPA|52=20170920-19:35:58.913|56=TRAX|10=254|8=FIXT.1.1|9=60|35=0|34=711|49=RECEIVERAPA|52=20170920-19:36:29.909|56=TRAX|10=003|8=FIXT.1.1|9=60|35=0|34=712|49=RECEIVERAPA|52=20170920-19:36:59.910|56=TRAX|10=255|8=FIXT.1.1|9=60|35=0|34=713|49=RECEIVERAPA|52=20170920-19:37:30.910|56=TRAX|10=246|8=FIXT.1.1|9=60|35=0|34=714|49=RECEIVERAPA|52=20170920-19:38:01.913|56=TRAX|10=249|8=FIXT.1.1|9=60|35=0|34=715|49=RECEIVERAPA|52=20170920-19:38:32.908|56=TRAX|10=002|8=FIXT.1.1|9=60|35=0|34=716|49=RECEIVERAPA|52=20170920-19:39:03.908|56=TRAX|10=002|8=FIXT.1.1|9=60|35=0|34=717|49=RECEIVERAPA|52=20170920-19:39:33.910|56=TRAX|10=255|8=FIXT.1.1|9=60|35=0|34=718|49=RECEIVERAPA|52=20170920-19:40:04.902|56=TRAX|10=247|8=FIXT.1.1|9=60|35=0|34=719|49=RECEIVERAPA|52=20170920-19:40:34.910|56=TRAX|10=250|8=FIXT.1.1|9=60|35=0|34=720|49=RECEIVERAPA|52=20170920-19:41:05.905|56=TRAX|10=245|8=FIXT.1.1|9=60|35=0|34=721|49=RECEIVERAPA|52=20170920-19:41:35.909|56=TRAX|10=253|8=FIXT.1.1|9=60|35=0|34=722|49=RECEIVERAPA|52=20170920-19:42:05.915|56=TRAX|10=249|8=FIXT.1.1|9=60|35=0|34=723|49=RECEIVERAPA|52=20170920-19:42:36.917|56=TRAX|10=000|8=FIXT.1.1|9=60|35=0|34=724|49=RECEIVERAPA|52=20170920-19:43:07.087|56=TRAX|10=254|8=FIXT.1.1|9=60|35=0|34=725|49=RECEIVERAPA|52=20170920-19:43:37.087|56=TRAX|10=002|8=FIXT.1.1|9=60|35=0|34=726|49=RECEIVERAPA|52=20170920-19:44:07.098|56=TRAX|10=003|8=FIXT.1.1|9=60|35=0|34=727|49=RECEIVERAPA|52=20170920-19:44:37.911|56=TRAX|10=001|8=FIXT.1.1|9=60|35=0|34=728|49=RECEIVERAPA|52=20170920-19:45:07.920|56=TRAX|10=000|8=FIXT.1.1|9=60|35=0|34=729|49=RECEIVERAPA|52=20170920-19:45:38.907|56=TRAX|10=010|8=FIXT.1.1|9=60|35=0|34=730|49=RECEIVERAPA|52=20170920-19:46:08.913|56=TRAX|10=253|8=FIXT.1.1|9=60|35=0|34=731|49=RECEIVERAPA|52=20170920-19:46:38.919|56=TRAX|10=007|8=FIXT.1.1|9=60|35=0|34=732|49=RECEIVERAPA|52=20170920-19:47:08.922|56=TRAX|10=000|8=FIXT.1.1|9=60|35=0|34=733|49=RECEIVERAPA|52=20170920-19:47:39.909|56=TRAX|10=010|8=FIXT.1.1|9=60|35=0|34=734|49=RECEIVERAPA|52=20170920-19:48:09.918|56=TRAX|10=009|8=FIXT.1.1|9=60|35=0|34=735|49=RECEIVERAPA|52=20170920-19:48:40.918|56=TRAX|10=005|8=FIXT.1.1|9=60|35=0|34=736|49=RECEIVERAPA|52=20170920-19:49:10.920|56=TRAX|10=253|8=FIXT.1.1|9=60|35=0|34=737|49=RECEIVERAPA|52=20170920-19:49:41.923|56=TRAX|10=005|8=FIXT.1.1|9=60|35=0|34=738|49=RECEIVERAPA|52=20170920-19:50:11.923|56=TRAX|10=251|8=FIXT.1.1|9=60|35=0|34=739|49=RECEIVERAPA|52=20170920-19:50:41.923|56=TRAX|10=255|8=FIXT.1.1|9=60|35=0|34=740|49=RECEIVERAPA|52=20170920-19:51:12.911|56=TRAX|10=243|8=FIXT.1.1|9=60|35=0|34=741|49=RECEIVERAPA|52=20170920-19:51:42.917|56=TRAX|10=253|8=FIXT.1.1|9=60|35=0|34=742|49=RECEIVERAPA|52=20170920-19:52:13.918|56=TRAX|10=254|8=FIXT.1.1|9=60|35=0|34=743|49=RECEIVERAPA|52=20170920-19:52:44.915|56=TRAX|10=000|8=FIXT.1.1|9=60|35=0|34=744|49=RECEIVERAPA|52=20170920-19:53:14.918|56=TRAX|10=002|8=FIXT.1.1|9=60|35=0|34=745|49=RECEIVERAPA|52=20170920-19:53:44.922|56=TRAX|10=001|8=FIXT.1.1|9=60|35=0|34=746|49=RECEIVERAPA|52=20170920-19:54:15.918|56=TRAX|10=006|8=FIXT.1.1|9=60|35=0|34=747|49=RECEIVERAPA|52=20170920-19:54:45.918|56=TRAX|10=010|8=FIXT.1.1|9=60|35=0|34=748|49=RECEIVERAPA|52=20170920-19:55:16.916|56=TRAX|10=008|8=FIXT.1.1|9=60|35=0|34=749|49=RECEIVERAPA|52=20170920-19:55:46.921|56=TRAX|10=008|8=FIXT.1.1|9=60|35=0|34=750|49=RECEIVERAPA|52=20170920-19:56:17.917|56=TRAX|10=004|8=FIXT.1.1|9=60|35=0|34=751|49=RECEIVERAPA|52=20170920-19:56:47.927|56=TRAX|10=009|8=FIXT.1.1|9=60|35=0|34=752|49=RECEIVERAPA|52=20170920-19:57:17.928|56=TRAX|10=009|8=FIXT.1.1|9=60|35=0|34=753|49=RECEIVERAPA|52=20170920-19:57:48.923|56=TRAX|10=009|8=FIXT.1.1|9=60|35=0|34=754|49=RECEIVERAPA|52=20170920-19:58:19.918|56=TRAX|10=013|8=FIXT.1.1|9=60|35=0|34=755|49=RECEIVERAPA|52=20170920-19:58:49.924|56=TRAX|10=014|8=FIXT.1.1|9=60|35=0|34=756|49=RECEIVERAPA|52=20170920-19:59:19.924|56=TRAX|10=013|8=FIXT.1.1|9=60|35=0|34=757|49=RECEIVERAPA|52=20170920-19:59:50.921|56=TRAX|10=006|8=FIXT.1.1|9=60|35=0|34=758|49=RECEIVERAPA|52=20170920-20:00:20.923|56=TRAX|10=240|8=FIXT.1.1|9=60|35=0|34=759|49=RECEIVERAPA|52=20170920-20:00:50.932|56=TRAX|10=244|8=FIXT.1.1|9=60|35=0|34=760|49=RECEIVERAPA|52=20170920-20:01:21.922|56=TRAX|10=234|8=FIXT.1.1|9=60|35=0|34=761|49=RECEIVERAPA|52=20170920-20:01:52.922|56=TRAX|10=239|8=FIXT.1.1|9=60|35=0|34=762|49=RECEIVERAPA|52=20170920-20:02:22.928|56=TRAX|10=244|8=FIXT.1.1|9=60|35=0|34=763|49=RECEIVERAPA|52=20170920-20:02:53.924|56=TRAX|10=245|8=FIXT.1.1|9=60|35=0|34=764|49=RECEIVERAPA|52=20170920-20:03:23.930|56=TRAX|10=241|8=FIXT.1.1|9=60|35=0|34=765|49=RECEIVERAPA|52=20170920-20:03:53.934|56=TRAX|10=249|8=FIXT.1.1|9=60|35=0|34=766|49=RECEIVERAPA|52=20170920-20:04:24.923|56=TRAX|10=247|8=FIXT.1.1|9=60|35=0|34=767|49=RECEIVERAPA|52=20170920-20:04:54.925|56=TRAX|10=253|8=FIXT.1.1|9=60|35=0|34=768|49=RECEIVERAPA|52=20170920-20:05:24.933|56=TRAX|10=251|8=FIXT.1.1|9=60|35=0|34=769|49=RECEIVERAPA|52=20170920-20:05:55.928|56=TRAX|10=004|8=FIXT.1.1|9=60|35=0|34=770|49=RECEIVERAPA|52=20170920-20:06:25.930|56=TRAX|10=243|8=FIXT.1.1|9=60|35=0|34=771|49=RECEIVERAPA|52=20170920-20:06:55.934|56=TRAX|10=251|8=FIXT.1.1|9=60|35=0|34=772|49=RECEIVERAPA|52=20170920-20:07:25.939|56=TRAX|10=255|8=FIXT.1.1|9=60|35=0|34=773|49=RECEIVERAPA|52=20170920-20:07:56.933|56=TRAX|10=254|8=FIXT.1.1|9=60|35=0|34=774|49=RECEIVERAPA|52=20170920-20:08:26.936|56=TRAX|10=000|8=FIXT.1.1|9=60|35=0|34=775|49=RECEIVERAPA|52=20170920-20:08:56.940|56=TRAX|10=255|8=FIXT.1.1|9=60|35=0|34=776|49=RECEIVERAPA|52=20170920-20:09:27.940|56=TRAX|10=255|8=FIXT.1.1|9=60|35=0|34=777|49=RECEIVERAPA|52=20170920-20:09:57.941|56=TRAX|10=004|8=FIXT.1.1|9=60|35=0|34=778|49=RECEIVERAPA|52=20170920-20:10:28.942|56=TRAX|10=252|8=FIXT.1.1|9=60|35=0|34=779|49=RECEIVERAPA|52=20170920-20:10:59.931|56=TRAX|10=255|8=FIXT.1.1|9=60|35=0|34=780|49=RECEIVERAPA|52=20170920-20:11:29.934|56=TRAX|10=248|8=FIXT.1.1|9=60|35=0|34=781|49=RECEIVERAPA|52=20170920-20:11:59.934|56=TRAX|10=252|8=FIXT.1.1|9=60|35=0|34=782|49=RECEIVERAPA|52=20170920-20:12:29.943|56=TRAX|10=251|8=FIXT.1.1|9=60|35=0|34=783|49=RECEIVERAPA|52=20170920-20:13:00.934|56=TRAX|10=242|8=FIXT.1.1|9=60|35=0|34=784|49=RECEIVERAPA|52=20170920-20:13:31.932|56=TRAX|10=245|8=FIXT.1.1|9=60|35=0|34=785|49=RECEIVERAPA|52=20170920-20:14:01.932|56=TRAX|10=244|8=FIXT.1.1|9=60|35=0|34=786|49=RECEIVERAPA|52=20170920-20:14:31.932|56=TRAX|10=248|8=FIXT.1.1|9=60|35=0|34=787|49=RECEIVERAPA|52=20170920-20:15:01.935|56=TRAX|10=250|8=FIXT.1.1|9=60|35=0|34=788|49=RECEIVERAPA|52=20170920-20:15:31.941|56=TRAX|10=251|8=FIXT.1.1|9=60|35=0|34=789|49=RECEIVERAPA|52=20170920-20:16:02.941|56=TRAX|10=251|8=FIXT.1.1|9=60|35=0|34=790|49=RECEIVERAPA|52=20170920-20:16:33.947|56=TRAX|10=253|8=FIXT.1.1|9=60|35=0|34=791|49=RECEIVERAPA|52=20170920-20:17:04.933|56=TRAX|10=248|8=FIXT.1.1|9=60|35=0|34=792|49=RECEIVERAPA|52=20170920-20:17:34.937|56=TRAX|10=000|8=FIXT.1.1|9=60|35=0|34=793|49=RECEIVERAPA|52=20170920-20:18:05.933|56=TRAX|10=252|8=FIXT.1.1|9=60|35=0|34=794|49=RECEIVERAPA|52=20170920-20:18:35.947|56=TRAX|10=005|8=FIXT.1.1|9=60|35=0|34=795|49=RECEIVERAPA|52=20170920-20:19:05.949|56=TRAX|10=006|8=FIXT.1.1|9=60|35=0|34=796|49=RECEIVERAPA|52=20170920-20:19:36.941|56=TRAX|10=003|8=FIXT.1.1|9=60|35=0|34=797|49=RECEIVERAPA|52=20170920-20:20:06.946|56=TRAX|10=254|8=FIXT.1.1|9=60|35=0|34=798|49=RECEIVERAPA|52=20170920-20:20:36.946|56=TRAX|10=002|8=FIXT.1.1|9=60|35=0|34=799|49=RECEIVERAPA|52=20170920-20:21:07.095|56=TRAX|10=253|8=FIXT.1.1|9=60|35=0|34=800|49=RECEIVERAPA|52=20170920-20:21:37.121|56=TRAX|10=229|8=FIXT.1.1|9=60|35=0|34=801|49=RECEIVERAPA|52=20170920-20:22:07.950|56=TRAX|10=238|8=FIXT.1.1|9=60|35=0|34=802|49=RECEIVERAPA|52=20170920-20:22:37.951|56=TRAX|10=243|8=FIXT.1.1|9=60|35=0|34=803|49=RECEIVERAPA|52=20170920-20:23:08.950|56=TRAX|10=242|8=FIXT.1.1|9=60|35=0|34=804|49=RECEIVERAPA|52=20170920-20:23:38.950|56=TRAX|10=246|8=FIXT.1.1|9=60|35=0|34=805|49=RECEIVERAPA|52=20170920-20:24:09.947|56=TRAX|10=252|8=FIXT.1.1|9=60|35=0|34=806|49=RECEIVERAPA|52=20170920-20:24:39.953|56=TRAX|10=253|8=FIXT.1.1|9=60|35=0|34=807|49=RECEIVERAPA|52=20170920-20:25:10.952|56=TRAX|10=243|8=FIXT.1.1|9=60|35=0|34=808|49=RECEIVERAPA|52=20170920-20:25:41.942|56=TRAX|10=247|8=FIXT.1.1|9=60|35=0|34=809|49=RECEIVERAPA|52=20170920-20:26:11.948|56=TRAX|10=252|8=FIXT.1.1|9=60|35=0|34=810|49=RECEIVERAPA|52=20170920-20:26:41.953|56=TRAX|10=243|8=FIXT.1.1|9=60|35=0|34=811|49=RECEIVERAPA|52=20170920-20:27:12.951|56=TRAX|10=241|8=FIXT.1.1|9=60|35=0|34=812|49=RECEIVERAPA|52=20170920-20:27:43.947|56=TRAX|10=251|8=FIXT.1.1|9=60|35=0|34=813|49=RECEIVERAPA|52=20170920-20:28:13.948|56=TRAX|10=251|8=FIXT.1.1|9=60|35=0|34=814|49=RECEIVERAPA|52=20170920-20:28:44.943|56=TRAX|10=251|8=FIXT.1.1|9=60|35=0|34=815|49=RECEIVERAPA|52=20170920-20:29:14.957|56=TRAX|10=255|8=FIXT.1.1|9=60|35=0|34=816|49=RECEIVERAPA|52=20170920-20:29:45.949|56=TRAX|10=005|8=FIXT.1.1|9=60|35=0|34=817|49=RECEIVERAPA|52=20170920-20:30:15.951|56=TRAX|10=244|8=FIXT.1.1|9=60|35=0|34=818|49=RECEIVERAPA|52=20170920-20:30:45.955|56=TRAX|10=252|8=FIXT.1.1|9=60|35=0|34=819|49=RECEIVERAPA|52=20170920-20:31:15.958|56=TRAX|10=254|8=FIXT.1.1|9=60|35=0|34=820|49=RECEIVERAPA|52=20170920-20:31:46.945|56=TRAX|10=246|8=FIXT.1.1|9=60|35=0|34=821|49=RECEIVERAPA|52=20170920-20:32:16.953|56=TRAX|10=244|8=FIXT.1.1|9=60|35=0|34=822|49=RECEIVERAPA|52=20170920-20:32:47.951|56=TRAX|10=247|8=FIXT.1.1|9=60|35=0|34=823|49=RECEIVERAPA|52=20170920-20:33:18.949|56=TRAX|10=254|8=FIXT.1.1|9=60|35=0|34=824|49=RECEIVERAPA|52=20170920-20:33:49.946|56=TRAX|10=000|8=FIXT.1.1|9=60|35=0|34=825|49=RECEIVERAPA|52=20170920-20:34:19.956|56=TRAX|10=000|8=FIXT.1.1|9=60|35=0|34=826|49=RECEIVERAPA|52=20170920-20:34:49.959|56=TRAX|10=007|8=FIXT.1.1|9=60|35=0|34=827|49=RECEIVERAPA|52=20170920-20:35:19.962|56=TRAX|10=000|8=FIXT.1.1|9=60|35=0|34=828|49=RECEIVERAPA|52=20170920-20:35:50.953|56=TRAX|10=252|8=FIXT.1.1|9=60|35=0|34=829|49=RECEIVERAPA|52=20170920-20:36:20.962|56=TRAX|10=251|8=FIXT.1.1|9=60|35=0|34=830|49=RECEIVERAPA|52=20170920-20:36:51.954|56=TRAX|10=248|8=FIXT.1.1|9=60|35=0|34=831|49=RECEIVERAPA|52=20170920-20:37:21.962|56=TRAX|10=246|8=FIXT.1.1|9=60|35=0|34=832|49=RECEIVERAPA|52=20170920-20:37:51.962|56=TRAX|10=250|8=FIXT.1.1|9=60|35=0|34=833|49=RECEIVERAPA|52=20170920-20:38:21.964|56=TRAX|10=251|8=FIXT.1.1|9=60|35=0|34=834|49=RECEIVERAPA|52=20170920-20:38:52.956|56=TRAX|10=001|8=FIXT.1.1|9=60|35=0|34=835|49=RECEIVERAPA|52=20170920-20:39:23.953|56=TRAX|10=254|8=FIXT.1.1|9=60|35=0|34=836|49=RECEIVERAPA|52=20170920-20:39:53.956|56=TRAX|10=005|8=FIXT.1.1|9=60|35=0|34=837|49=RECEIVERAPA|52=20170920-20:40:23.960|56=TRAX|10=246|8=FIXT.1.1|9=60|35=0|34=838|49=RECEIVERAPA|52=20170920-20:40:53.960|56=TRAX|10=250|8=FIXT.1.1|9=60|35=0|34=839|49=RECEIVERAPA|52=20170920-20:41:24.956|56=TRAX|10=255|8=FIXT.1.1|9=60|35=0|34=840|49=RECEIVERAPA|52=20170920-20:41:54.960|56=TRAX|10=245|8=FIXT.1.1|9=60|35=0|34=841|49=RECEIVERAPA|52=20170920-20:42:24.962|56=TRAX|10=246|8=FIXT.1.1|9=60|35=0|34=842|49=RECEIVERAPA|52=20170920-20:42:54.967|56=TRAX|10=255|8=FIXT.1.1|9=60|35=0|34=843|49=RECEIVERAPA|52=20170920-20:43:25.963|56=TRAX|10=251|8=FIXT.1.1|9=60|35=0|34=844|49=RECEIVERAPA|52=20170920-20:43:56.962|56=TRAX|10=255|8=FIXT.1.1|9=60|35=0|34=845|49=RECEIVERAPA|52=20170920-20:44:26.966|56=TRAX|10=002|8=FIXT.1.1|9=60|35=0|34=846|49=RECEIVERAPA|52=20170920-20:44:57.957|56=TRAX|10=007|8=FIXT.1.1|9=60|35=0|34=847|49=RECEIVERAPA|52=20170920-20:45:27.960|56=TRAX|10=000|8=FIXT.1.1|9=60|35=0|34=848|49=RECEIVERAPA|52=20170920-20:45:57.969|56=TRAX|10=013|8=FIXT.1.1|9=60|35=0|34=849|49=RECEIVERAPA|52=20170920-20:46:28.969|56=TRAX|10=013|8=FIXT.1.1|9=60|35=0|34=850|49=RECEIVERAPA|52=20170920-20:46:59.970|56=TRAX|10=001|8=FIXT.1.1|9=60|35=0|34=851|49=RECEIVERAPA|52=20170920-20:47:30.960|56=TRAX|10=247|8=FIXT.1.1|9=60|35=0|34=852|49=RECEIVERAPA|52=20170920-20:48:00.960|56=TRAX|10=246|8=FIXT.1.1|9=60|35=0|34=853|49=RECEIVERAPA|52=20170920-20:48:30.973|56=TRAX|10=254|8=FIXT.1.1|9=60|35=0|34=854|49=RECEIVERAPA|52=20170920-20:49:01.974|56=TRAX|10=255|8=FIXT.1.1|9=60|35=0|34=855|49=RECEIVERAPA|52=20170920-20:49:32.972|56=TRAX|10=002|8=FIXT.1.1|9=60|35=0|34=856|49=RECEIVERAPA|52=20170920-20:50:03.961|56=TRAX|10=247|8=FIXT.1.1|9=60|35=0|34=857|49=RECEIVERAPA|52=20170920-20:50:33.966|56=TRAX|10=000|8=FIXT.1.1|9=60|35=0|34=858|49=RECEIVERAPA|52=20170920-20:51:03.973|56=TRAX|10=253|8=FIXT.1.1|9=60|35=0|34=859|49=RECEIVERAPA|52=20170920-20:51:34.963|56=TRAX|10=001|8=FIXT.1.1|9=60|35=0|34=860|49=RECEIVERAPA|52=20170920-20:52:04.967|56=TRAX|10=251|8=FIXT.1.1|9=60|35=0|34=861|49=RECEIVERAPA|52=20170920-20:52:34.970|56=TRAX|10=249|8=FIXT.1.1|9=60|35=0|34=862|49=RECEIVERAPA|52=20170920-20:53:04.976|56=TRAX|10=254|8=FIXT.1.1|9=60|35=0|34=863|49=RECEIVERAPA|52=20170920-20:53:35.976|56=TRAX|10=003|8=FIXT.1.1|9=60|35=0|34=864|49=RECEIVERAPA|52=20170920-20:54:06.967|56=TRAX|10=003|8=FIXT.1.1|9=60|35=0|34=865|49=RECEIVERAPA|52=20170920-20:54:37.966|56=TRAX|10=007|8=FIXT.1.1|9=60|35=0|34=866|49=RECEIVERAPA|52=20170920-20:55:07.967|56=TRAX|10=007|8=FIXT.1.1|9=60|35=0|34=867|49=RECEIVERAPA|52=20170920-20:55:37.968|56=TRAX|10=012|8=FIXT.1.1|9=60|35=0|34=868|49=RECEIVERAPA|52=20170920-20:56:07.976|56=TRAX|10=010|8=FIXT.1.1|9=60|35=0|34=869|49=RECEIVERAPA|52=20170920-20:56:38.121|56=TRAX|10=253|8=FIXT.1.1|9=60|35=0|34=870|49=RECEIVERAPA|52=20170920-20:57:08.143|56=TRAX|10=247|8=FIXT.1.1|9=60|35=0|34=871|49=RECEIVERAPA|52=20170920-20:57:38.972|56=TRAX|10=005|8=FIXT.1.1|9=60|35=0|34=872|49=RECEIVERAPA|52=20170920-20:58:08.976|56=TRAX|10=008|8=FIXT.1.1|9=60|35=0|34=873|49=RECEIVERAPA|52=20170920-20:58:38.981|56=TRAX|10=008|8=FIXT.1.1|9=60|35=0|34=874|49=RECEIVERAPA|52=20170920-20:59:09.981|56=TRAX|10=008|8=FIXT.1.1|9=60|35=0|34=875|49=RECEIVERAPA|52=20170920-20:59:40.971|56=TRAX|10=003|8=FIXT.1.1|9=60|35=0|34=876|49=RECEIVERAPA|52=20170920-21:00:10.973|56=TRAX|10=246|8=FIXT.1.1|9=60|35=0|34=877|49=RECEIVERAPA|52=20170920-21:00:41.983|56=TRAX|10=252|8=FIXT.1.1|9=60|35=0|34=878|49=RECEIVERAPA|52=20170920-21:01:12.973|56=TRAX|10=251|8=FIXT.1.1|9=60|35=0|34=879|49=RECEIVERAPA|52=20170920-21:01:42.974|56=TRAX|10=000|8=FIXT.1.1|9=60|35=0|34=880|49=RECEIVERAPA|52=20170920-21:02:12.979|56=TRAX|10=251|8=FIXT.1.1|9=60|35=0|34=881|49=RECEIVERAPA|52=20170920-21:02:43.962|56=TRAX|10=248|8=FIXT.1.1|9=60|35=0|34=882|49=RECEIVERAPA|52=20170920-21:03:13.977|56=TRAX|10=253|8=FIXT.1.1|9=60|35=0|34=883|49=RECEIVERAPA|52=20170920-21:03:44.972|56=TRAX|10=253|8=FIXT.1.1|9=60|35=0|34=884|49=RECEIVERAPA|52=20170920-21:04:14.976|56=TRAX|10=000|8=FIXT.1.1|9=60|35=0|34=885|49=RECEIVERAPA|52=20170920-21:04:44.981|56=TRAX|10=000|8=FIXT.1.1|9=60|35=0|34=886|49=RECEIVERAPA|52=20170920-21:05:14.984|56=TRAX|10=002|8=FIXT.1.1|9=60|35=0|34=887|49=RECEIVERAPA|52=20170920-21:05:45.982|56=TRAX|10=005|8=FIXT.1.1|9=60|35=0|34=888|49=RECEIVERAPA|52=20170920-21:06:15.983|56=TRAX|10=005|8=FIXT.1.1|9=60|35=0|34=889|49=RECEIVERAPA|52=20170920-21:06:46.975|56=TRAX|10=011|8=FIXT.1.1|9=60|35=0|34=890|49=RECEIVERAPA|52=20170920-21:07:17.988|56=TRAX|10=006|8=FIXT.1.1|9=60|35=0|34=891|49=RECEIVERAPA|52=20170920-21:07:47.990|56=TRAX|10=003|8=FIXT.1.1|9=60|35=0|34=892|49=RECEIVERAPA|52=20170920-21:08:17.990|56=TRAX|10=002|8=FIXT.1.1|9=60|35=0|34=893|49=RECEIVERAPA|52=20170920-21:08:48.990|56=TRAX|10=007|8=FIXT.1.1|9=60|35=0|34=894|49=RECEIVERAPA|52=20170920-21:09:19.991|56=TRAX|10=008|8=FIXT.1.1|9=60|35=0|34=895|49=RECEIVERAPA|52=20170920-21:09:50.991|56=TRAX|10=004|8=FIXT.1.1|9=60|35=0|34=896|49=RECEIVERAPA|52=20170920-21:10:21.988|56=TRAX|10=001|8=FIXT.1.1|9=60|35=0|34=897|49=RECEIVERAPA|52=20170920-21:10:51.991|56=TRAX|10=255|8=FIXT.1.1|9=60|35=0|34=898|49=RECEIVERAPA|52=20170920-21:11:22.987|56=TRAX|10=004|8=FIXT.1.1|9=60|35=0|34=899|49=RECEIVERAPA|52=20170920-21:11:52.988|56=TRAX|10=009|8=FIXT.1.1|9=60|35=0|34=900|49=RECEIVERAPA|52=20170920-21:12:23.979|56=TRAX|10=247|8=FIXT.1.1|9=60|35=0|34=901|49=RECEIVERAPA|52=20170920-21:12:53.983|56=TRAX|10=246|8=FIXT.1.1|9=60|35=0|34=902|49=RECEIVERAPA|52=20170920-21:13:23.987|56=TRAX|10=249|8=FIXT.1.1|9=60|35=0|34=903|49=RECEIVERAPA|52=20170920-21:13:53.988|56=TRAX|10=254|8=FIXT.1.1|9=60|35=0|34=904|49=RECEIVERAPA|52=20170920-21:14:24.980|56=TRAX|10=246|8=FIXT.1.1|9=60|35=0|34=905|49=RECEIVERAPA|52=20170920-21:14:54.995|56=TRAX|10=000|8=FIXT.1.1|9=60|35=0|34=906|49=RECEIVERAPA|52=20170920-21:15:25.982|56=TRAX|10=252|8=FIXT.1.1|9=60|35=0|34=907|49=RECEIVERAPA|52=20170920-21:15:55.982|56=TRAX|10=000|8=FIXT.1.1|9=60|35=0|34=908|49=RECEIVERAPA|52=20170920-21:16:25.991|56=TRAX|10=255|8=FIXT.1.1|9=60|35=0|34=909|49=RECEIVERAPA|52=20170920-21:16:55.996|56=TRAX|10=008|8=FIXT.1.1|9=60|35=0|34=910|49=RECEIVERAPA|52=20170920-21:17:26.984|56=TRAX|10=252|8=FIXT.1.1|9=60|35=0|34=911|49=RECEIVERAPA|52=20170920-21:17:56.988|56=TRAX|10=004|8=FIXT.1.1|9=60|35=0|34=912|49=RECEIVERAPA|52=20170920-21:18:26.989|56=TRAX|10=004|8=FIXT.1.1|9=60|35=0|34=913|49=RECEIVERAPA|52=20170920-21:18:57.987|56=TRAX|10=007|8=FIXT.1.1|9=60|35=0|34=914|49=RECEIVERAPA|52=20170920-21:19:27.992|56=TRAX|10=002|8=FIXT.1.1|9=60|35=0|34=915|49=RECEIVERAPA|52=20170920-21:19:58.987|56=TRAX|10=011|8=FIXT.1.1|9=60|35=0|34=916|49=RECEIVERAPA|52=20170920-21:20:29.000|56=TRAX|10=234|8=FIXT.1.1|9=60|35=0|34=917|49=RECEIVERAPA|52=20170920-21:20:59.987|56=TRAX|10=006|8=FIXT.1.1|9=60|35=0|34=918|49=RECEIVERAPA|52=20170920-21:21:30.987|56=TRAX|10=253|8=FIXT.1.1|9=60|35=0|34=919|49=RECEIVERAPA|52=20170920-21:22:00.999|56=TRAX|10=255|8=FIXT.1.1|9=60|35=0|34=920|49=RECEIVERAPA|52=20170920-21:22:31.989|56=TRAX|10=250|8=FIXT.1.1|9=60|35=0|34=921|49=RECEIVERAPA|52=20170920-21:23:01.992|56=TRAX|10=243|8=FIXT.1.1|9=60|35=0|34=922|49=RECEIVERAPA|52=20170920-21:23:31.992|56=TRAX|10=247|8=FIXT.1.1|9=60|35=0|34=923|49=RECEIVERAPA|52=20170920-21:24:01.997|56=TRAX|10=251|8=FIXT.1.1|9=60|35=0|34=924|49=RECEIVERAPA|52=20170920-21:24:31.999|56=TRAX|10=001|8=FIXT.1.1|9=60|35=0|34=925|49=RECEIVERAPA|52=20170920-21:25:02.992|56=TRAX|10=250|8=FIXT.1.1|9=60|35=0|34=926|49=RECEIVERAPA|52=20170920-21:25:34.004|56=TRAX|10=240|8=FIXT.1.1|9=60|35=0|34=927|49=RECEIVERAPA|52=20170920-21:26:04.992|56=TRAX|10=255|8=FIXT.1.1|9=60|35=0|34=928|49=RECEIVERAPA|52=20170920-21:26:34.992|56=TRAX|10=003|8=FIXT.1.1|9=60|35=0|34=929|49=RECEIVERAPA|52=20170920-21:27:04.994|56=TRAX|10=004|8=FIXT.1.1|9=60|35=0|34=930|49=RECEIVERAPA|52=20170920-21:27:35.003|56=TRAX|10=237|8=FIXT.1.1|9=60|35=0|34=931|49=RECEIVERAPA|52=20170920-21:28:06.000|56=TRAX|10=234|8=FIXT.1.1|9=60|35=0|34=932|49=RECEIVERAPA|52=20170920-21:28:36.003|56=TRAX|10=241|8=FIXT.1.1|9=60|35=0|34=933|49=RECEIVERAPA|52=20170920-21:29:06.006|56=TRAX|10=243|8=FIXT.1.1|9=60|35=0|34=934|49=RECEIVERAPA|52=20170920-21:29:37.000|56=TRAX|10=242|8=FIXT.1.1|9=60|35=0|34=935|49=RECEIVERAPA|52=20170920-21:30:07.001|56=TRAX|10=233|8=FIXT.1.1|9=60|35=0|34=936|49=RECEIVERAPA|52=20170920-21:30:38.000|56=TRAX|10=237|8=FIXT.1.1|9=60|35=0|34=937|49=RECEIVERAPA|52=20170920-21:31:08.996|56=TRAX|10=004|8=FIXT.1.1|9=60|35=0|34=938|49=RECEIVERAPA|52=20170920-21:31:39.009|56=TRAX|10=250|8=FIXT.1.1|9=60|35=0|34=939|49=RECEIVERAPA|52=20170920-21:32:09.999|56=TRAX|10=011|8=FIXT.1.1|9=60|35=0|34=940|49=RECEIVERAPA|52=20170920-21:32:40.136|56=TRAX|10=237|8=FIXT.1.1|9=60|35=0|34=941|49=RECEIVERAPA|52=20170920-21:33:11.009|56=TRAX|10=236|8=FIXT.1.1|9=60|35=0|34=942|49=RECEIVERAPA|52=20170920-21:33:42.001|56=TRAX|10=233|8=FIXT.1.1|9=60|35=0|34=943|49=RECEIVERAPA|52=20170920-21:34:12.002|56=TRAX|10=233|8=FIXT.1.1|9=60|35=0|34=944|49=RECEIVERAPA|52=20170920-21:34:42.011|56=TRAX|10=237|8=FIXT.1.1|9=60|35=0|34=945|49=RECEIVERAPA|52=20170920-21:35:13.001|56=TRAX|10=236|8=FIXT.1.1|9=60|35=0|34=946|49=RECEIVERAPA|52=20170920-21:35:44.012|56=TRAX|10=243|8=FIXT.1.1|9=60|35=0|34=947|49=RECEIVERAPA|52=20170920-21:36:15.012|56=TRAX|10=243|8=FIXT.1.1|9=60|35=0|34=948|49=RECEIVERAPA|52=20170920-21:36:46.007|56=TRAX|10=252|8=FIXT.1.1|9=60|35=0|34=949|49=RECEIVERAPA|52=20170920-21:37:17.002|56=TRAX|10=247|8=FIXT.1.1|9=60|35=0|34=950|49=RECEIVERAPA|52=20170920-21:37:47.002|56=TRAX|10=242|8=FIXT.1.1|9=60|35=0|34=951|49=RECEIVERAPA|52=20170920-21:38:17.011|56=TRAX|10=241|8=FIXT.1.1|9=60|35=0|34=952|49=RECEIVERAPA|52=20170920-21:38:47.014|56=TRAX|10=248|8=FIXT.1.1|9=60|35=0|34=953|49=RECEIVERAPA|52=20170920-21:39:18.001|56=TRAX|10=244|8=FIXT.1.1|9=60|35=0|34=954|49=RECEIVERAPA|52=20170920-21:39:48.014|56=TRAX|10=252|8=FIXT.1.1|9=60|35=0|34=955|49=RECEIVERAPA|52=20170920-21:40:19.013|56=TRAX|10=242|8=FIXT.1.1|9=60|35=0|34=956|49=RECEIVERAPA|52=20170920-21:40:50.005|56=TRAX|10=239|8=FIXT.1.1|9=60|35=0|34=957|49=RECEIVERAPA|52=20170920-21:41:20.009|56=TRAX|10=242|8=FIXT.1.1|9=60|35=0|34=958|49=RECEIVERAPA|52=20170920-21:41:50.015|56=TRAX|10=243|8=FIXT.1.1|9=60|35=0|34=959|49=RECEIVERAPA|52=20170920-21:42:21.009|56=TRAX|10=246|8=FIXT.1.1|9=60|35=0|34=960|49=RECEIVERAPA|52=20170920-21:42:52.008|56=TRAX|10=241|8=FIXT.1.1|9=60|35=0|34=961|49=RECEIVERAPA|52=20170920-21:43:22.008|56=TRAX|10=240|8=FIXT.1.1|9=60|35=0|34=962|49=RECEIVERAPA|52=20170920-21:43:52.010|56=TRAX|10=237|8=FIXT.1.1|9=60|35=0|34=963|49=RECEIVERAPA|52=20170920-21:44:22.010|56=TRAX|10=236|8=FIXT.1.1|9=60|35=0|34=964|49=RECEIVERAPA|52=20170920-21:44:52.012|56=TRAX|10=242|8=FIXT.1.1|9=60|35=0|34=965|49=RECEIVERAPA|52=20170920-21:45:22.014|56=TRAX|10=243|8=FIXT.1.1|9=60|35=0|34=966|49=RECEIVERAPA|52=20170920-21:45:53.012|56=TRAX|10=246|8=FIXT.1.1|9=60|35=0|34=967|49=RECEIVERAPA|52=20170920-21:46:23.017|56=TRAX|10=250|8=FIXT.1.1|9=60|35=0|34=968|49=RECEIVERAPA|52=20170920-21:46:54.013|56=TRAX|10=251|8=FIXT.1.1|9=60|35=0|34=969|49=RECEIVERAPA|52=20170920-21:47:25.011|56=TRAX|10=249|8=FIXT.1.1|9=60|35=0|34=970|49=RECEIVERAPA|52=20170920-21:47:55.014|56=TRAX|10=247|8=FIXT.1.1|9=60|35=0|34=971|49=RECEIVERAPA|52=20170920-21:48:25.019|56=TRAX|10=251|8=FIXT.1.1|9=60|35=0|34=972|49=RECEIVERAPA|52=20170920-21:48:55.021|56=TRAX|10=248|8=FIXT.1.1|9=60|35=0|34=973|49=RECEIVERAPA|52=20170920-21:49:26.018|56=TRAX|10=254|8=FIXT.1.1|9=60|35=0|34=974|49=RECEIVERAPA|52=20170920-21:49:56.022|56=TRAX|10=253|8=FIXT.1.1|9=60|35=0|34=975|49=RECEIVERAPA|52=20170920-21:50:27.018|56=TRAX|10=249|8=FIXT.1.1|9=60|35=0|34=976|49=RECEIVERAPA|52=20170920-21:50:57.022|56=TRAX|10=248|8=FIXT.1.1|9=60|35=0|34=977|49=RECEIVERAPA|52=20170920-21:51:28.014|56=TRAX|10=249|8=FIXT.1.1|9=60|35=0|34=978|49=RECEIVERAPA|52=20170920-21:51:58.014|56=TRAX|10=253|8=FIXT.1.1|9=60|35=0|34=979|49=RECEIVERAPA|52=20170920-21:52:29.026|56=TRAX|10=000|8=FIXT.1.1|9=60|35=0|34=980|49=RECEIVERAPA|52=20170920-21:53:00.023|56=TRAX|10=235|8=FIXT.1.1|9=60|35=0|34=981|49=RECEIVERAPA|52=20170920-21:53:30.024|56=TRAX|10=240|8=FIXT.1.1|9=60|35=0|34=982|49=RECEIVERAPA|52=20170920-21:54:01.014|56=TRAX|10=239|8=FIXT.1.1|9=60|35=0|34=983|49=RECEIVERAPA|52=20170920-21:54:31.026|56=TRAX|10=246|8=FIXT.1.1|9=60|35=0|34=984|49=RECEIVERAPA|52=20170920-21:55:02.018|56=TRAX|10=247|8=FIXT.1.1|9=60|35=0|34=985|49=RECEIVERAPA|52=20170920-21:55:33.029|56=TRAX|10=254|8=FIXT.1.1|9=60|35=0|34=986|49=RECEIVERAPA|52=20170920-21:56:04.020|56=TRAX|10=245|8=FIXT.1.1|9=60|35=0|34=987|49=RECEIVERAPA|52=20170920-21:56:34.022|56=TRAX|10=251|8=FIXT.1.1|9=60|35=0|34=988|49=RECEIVERAPA|52=20170920-21:57:05.021|56=TRAX|10=250|8=FIXT.1.1|9=60|35=0|34=989|49=RECEIVERAPA|52=20170920-21:57:35.027|56=TRAX|10=004|8=FIXT.1.1|9=60|35=0|34=990|49=RECEIVERAPA|52=20170920-21:58:06.019|56=TRAX|10=252|8=FIXT.1.1|9=60|35=0|34=991|49=RECEIVERAPA|52=20170920-21:58:36.028|56=TRAX|10=000|8=FIXT.1.1|9=60|35=0|34=992|49=RECEIVERAPA|52=20170920-21:59:07.024|56=TRAX|10=252|8=FIXT.1.1|9=60|35=0|34=993|49=RECEIVERAPA|52=20170920-21:59:38.021|56=TRAX|10=254|8=FIXT.1.1|9=60|35=0|34=994|49=RECEIVERAPA|52=20170920-22:00:08.022|56=TRAX|10=240|8=FIXT.1.1|9=60|35=0|34=995|49=RECEIVERAPA|52=20170920-22:00:39.033|56=TRAX|10=247|8=FIXT.1.1|9=60|35=0|34=996|49=RECEIVERAPA|52=20170920-22:01:10.023|56=TRAX|10=237|8=FIXT.1.1|9=60|35=0|34=997|49=RECEIVERAPA|52=20170920-22:01:40.034|56=TRAX|10=243|8=FIXT.1.1|9=60|35=0|34=998|49=RECEIVERAPA|52=20170920-22:02:10.035|56=TRAX|10=243|8=FIXT.1.1|9=60|35=0|34=999|49=RECEIVERAPA|52=20170920-22:02:40.036|56=TRAX|10=248|8=FIXT.1.1|9=61|35=0|34=1000|49=RECEIVERAPA|52=20170920-22:03:10.191|56=TRAX|10=015|8=FIXT.1.1|9=61|35=0|34=1001|49=RECEIVERAPA|52=20170920-22:03:41.031|56=TRAX|10=013|8=FIXT.1.1|9=61|35=0|34=1002|49=RECEIVERAPA|52=20170920-22:04:12.033|56=TRAX|10=015|8=FIXT.1.1|9=61|35=0|34=1003|49=RECEIVERAPA|52=20170920-22:04:43.028|56=TRAX|10=024|8=FIXT.1.1|9=61|35=0|34=1004|49=RECEIVERAPA|52=20170920-22:05:13.036|56=TRAX|10=022|8=FIXT.1.1|9=61|35=0|34=1005|49=RECEIVERAPA|52=20170920-22:05:44.033|56=TRAX|10=024|8=FIXT.1.1|9=61|35=0|34=1006|49=RECEIVERAPA|52=20170920-22:06:15.024|56=TRAX|10=024|8=FIXT.1.1|9=61|35=0|34=1007|49=RECEIVERAPA|52=20170920-22:06:45.024|56=TRAX|10=028|8=FIXT.1.1|9=61|35=0|34=1008|49=RECEIVERAPA|52=20170920-22:07:15.032|56=TRAX|10=026|8=FIXT.1.1|9=61|35=0|34=1009|49=RECEIVERAPA|52=20170920-22:07:45.035|56=TRAX|10=033|8=FIXT.1.1|9=61|35=0|34=1010|49=RECEIVERAPA|52=20170920-22:08:16.040|56=TRAX|10=020|8=FIXT.1.1|9=61|35=0|34=1011|49=RECEIVERAPA|52=20170920-22:08:47.029|56=TRAX|10=032|8=FIXT.1.1|9=61|35=0|34=1012|49=RECEIVERAPA|52=20170920-22:09:17.031|56=TRAX|10=024|8=FIXT.1.1|9=61|35=0|34=1013|49=RECEIVERAPA|52=20170920-22:09:48.027|56=TRAX|10=034|8=FIXT.1.1|9=61|35=0|34=1014|49=RECEIVERAPA|52=20170920-22:10:18.032|56=TRAX|10=020|8=FIXT.1.1|9=61|35=0|34=1015|49=RECEIVERAPA|52=20170920-22:10:48.035|56=TRAX|10=027|8=FIXT.1.1|9=61|35=0|34=1016|49=RECEIVERAPA|52=20170920-22:11:18.038|56=TRAX|10=029|8=FIXT.1.1|9=61|35=0|34=1017|49=RECEIVERAPA|52=20170920-22:11:48.041|56=TRAX|10=027|8=FIXT.1.1|9=61|35=0|34=1018|49=RECEIVERAPA|52=20170920-22:12:19.036|56=TRAX|10=031|8=FIXT.1.1|9=61|35=0|34=1019|49=RECEIVERAPA|52=20170920-22:12:50.034|56=TRAX|10=025|8=FIXT.1.1|9=61|35=0|34=1020|49=RECEIVERAPA|52=20170920-22:13:20.043|56=TRAX|10=015|8=FIXT.1.1|9=61|35=0|34=1021|49=RECEIVERAPA|52=20170920-22:13:51.033|56=TRAX|10=019|8=FIXT.1.1|9=61|35=0|34=1022|49=RECEIVERAPA|52=20170920-22:14:21.036|56=TRAX|10=021|8=FIXT.1.1|9=61|35=0|34=1023|49=RECEIVERAPA|52=20170920-22:14:52.031|56=TRAX|10=021|8=FIXT.1.1|9=61|35=0|34=1024|49=RECEIVERAPA|52=20170920-22:15:22.041|56=TRAX|10=021|8=FIXT.1.1|9=61|35=0|34=1025|49=RECEIVERAPA|52=20170920-22:15:52.042|56=TRAX|10=026|8=FIXT.1.1|9=61|35=0|34=1026|49=RECEIVERAPA|52=20170920-22:16:22.042|56=TRAX|10=025|8=FIXT.1.1|9=61|35=0|34=1027|49=RECEIVERAPA|52=20170920-22:16:53.032|56=TRAX|10=029|8=FIXT.1.1|9=61|35=0|34=1028|49=RECEIVERAPA|52=20170920-22:17:23.044|56=TRAX|10=031|8=FIXT.1.1|9=61|35=0|34=1029|49=RECEIVERAPA|52=20170920-22:17:54.042|56=TRAX|10=034|8=FIXT.1.1|9=61|35=0|34=1030|49=RECEIVERAPA|52=20170920-22:18:25.040|56=TRAX|10=023|8=FIXT.1.1|9=61|35=0|34=1031|49=RECEIVERAPA|52=20170920-22:18:55.045|56=TRAX|10=032|8=FIXT.1.1|9=61|35=0|34=1032|49=RECEIVERAPA|52=20170920-22:19:25.048|56=TRAX|10=034|8=FIXT.1.1|9=61|35=0|34=1033|49=RECEIVERAPA|52=20170920-22:19:56.046|56=TRAX|10=037|8=FIXT.1.1|9=61|35=0|34=1034|49=RECEIVERAPA|52=20170920-22:20:26.050|56=TRAX|10=022|8=FIXT.1.1|9=61|35=0|34=1035|49=RECEIVERAPA|52=20170920-22:20:57.040|56=TRAX|10=026|8=FIXT.1.1|9=61|35=0|34=1036|49=RECEIVERAPA|52=20170920-22:21:27.043|56=TRAX|10=028|8=FIXT.1.1|9=61|35=0|34=1037|49=RECEIVERAPA|52=20170920-22:21:58.044|56=TRAX|10=034|8=FIXT.1.1|9=61|35=0|34=1038|49=RECEIVERAPA|52=20170920-22:22:28.048|56=TRAX|10=037|8=FIXT.1.1|9=61|35=0|34=1039|49=RECEIVERAPA|52=20170920-22:22:58.051|56=TRAX|10=035|8=FIXT.1.1|9=61|35=0|34=1040|49=RECEIVERAPA|52=20170920-22:23:29.048|56=TRAX|10=032|8=FIXT.1.1|9=61|35=0|34=1041|49=RECEIVERAPA|52=20170920-22:23:59.053|56=TRAX|10=032|8=FIXT.1.1|9=61|35=0|34=1042|49=RECEIVERAPA|52=20170920-22:24:30.046|56=TRAX|10=025|8=FIXT.1.1|9=61|35=0|34=1043|49=RECEIVERAPA|52=20170920-22:25:00.049|56=TRAX|10=027|8=FIXT.1.1|9=61|35=0|34=1044|49=RECEIVERAPA|52=20170920-22:25:30.054|56=TRAX|10=027|8=FIXT.1.1|9=61|35=0|34=1045|49=RECEIVERAPA|52=20170920-22:26:01.046|56=TRAX|10=028|8=FIXT.1.1|9=61|35=0|34=1046|49=RECEIVERAPA|52=20170920-22:26:31.047|56=TRAX|10=033|8=FIXT.1.1|9=61|35=0|34=1047|49=RECEIVERAPA|52=20170920-22:27:01.049|56=TRAX|10=034|8=FIXT.1.1|9=61|35=0|34=1048|49=RECEIVERAPA|52=20170920-22:27:31.053|56=TRAX|10=033|8=FIXT.1.1|9=61|35=0|34=1049|49=RECEIVERAPA|52=20170920-22:28:02.013|56=TRAX|10=029|8=FIXT.1.1|9=61|35=0|34=1050|49=RECEIVERAPA|52=20170920-22:28:32.044|56=TRAX|10=028|8=FIXT.1.1|9=61|35=0|34=1051|49=RECEIVERAPA|52=20170920-22:29:02.050|56=TRAX|10=024|8=FIXT.1.1|9=61|35=0|34=1052|49=RECEIVERAPA|52=20170920-22:29:33.048|56=TRAX|10=036|8=FIXT.1.1|9=61|35=0|34=1053|49=RECEIVERAPA|52=20170920-22:30:04.047|56=TRAX|10=026|8=FIXT.1.1|9=61|35=0|34=1054|49=RECEIVERAPA|52=20170920-22:30:34.050|56=TRAX|10=024|8=FIXT.1.1|9=61|35=0|34=1055|49=RECEIVERAPA|52=20170920-22:31:04.057|56=TRAX|10=030|8=FIXT.1.1|9=61|35=0|34=1056|49=RECEIVERAPA|52=20170920-22:31:35.050|56=TRAX|10=028|8=FIXT.1.1|9=61|35=0|34=1057|49=RECEIVERAPA|52=20170920-22:32:05.060|56=TRAX|10=028|8=FIXT.1.1|9=61|35=0|34=1058|49=RECEIVERAPA|52=20170920-22:32:36.060|56=TRAX|10=033|8=FIXT.1.1|9=61|35=0|34=1059|49=RECEIVERAPA|52=20170920-22:33:07.046|56=TRAX|10=037|8=FIXT.1.1|9=61|35=0|34=1060|49=RECEIVERAPA|52=20170920-22:33:37.061|56=TRAX|10=029|8=FIXT.1.1|9=61|35=0|34=1061|49=RECEIVERAPA|52=20170920-22:34:08.062|56=TRAX|10=030|8=FIXT.1.1|9=61|35=0|34=1062|49=RECEIVERAPA|52=20170920-22:34:38.062|56=TRAX|10=034|8=FIXT.1.1|9=61|35=0|34=1063|49=RECEIVERAPA|52=20170920-22:35:09.056|56=TRAX|10=037|8=FIXT.1.1|9=61|35=0|34=1064|49=RECEIVERAPA|52=20170920-22:35:39.057|56=TRAX|10=042|8=FIXT.1.1|9=61|35=0|34=1065|49=RECEIVERAPA|52=20170920-22:36:09.058|56=TRAX|10=042|8=FIXT.1.1|9=61|35=0|34=1066|49=RECEIVERAPA|52=20170920-22:36:40.054|56=TRAX|10=034|8=FIXT.1.1|9=61|35=0|34=1067|49=RECEIVERAPA|52=20170920-22:37:10.055|56=TRAX|10=034|8=FIXT.1.1|9=61|35=0|34=1068|49=RECEIVERAPA|52=20170920-22:37:40.162|56=TRAX|10=037|8=FIXT.1.1|9=61|35=0|34=1069|49=RECEIVERAPA|52=20170920-22:38:10.164|56=TRAX|10=038|8=FIXT.1.1|9=61|35=0|34=1070|49=RECEIVERAPA|52=20170920-22:38:41.053|56=TRAX|10=031|8=FIXT.1.1|9=61|35=0|34=1071|49=RECEIVERAPA|52=20170920-22:39:11.058|56=TRAX|10=035|8=FIXT.1.1|9=61|35=0|34=1072|49=RECEIVERAPA|52=20170920-22:39:42.054|56=TRAX|10=036|8=FIXT.1.1|9=61|35=0|34=1073|49=RECEIVERAPA|52=20170920-22:40:12.060|56=TRAX|10=023|8=FIXT.1.1|9=61|35=0|34=1074|49=RECEIVERAPA|52=20170920-22:40:43.061|56=TRAX|10=029|8=FIXT.1.1|9=61|35=0|34=1075|49=RECEIVERAPA|52=20170920-22:41:14.058|56=TRAX|10=035|8=FIXT.1.1|9=61|35=0|34=1076|49=RECEIVERAPA|52=20170920-22:41:44.058|56=TRAX|10=039|8=FIXT.1.1|9=61|35=0|34=1077|49=RECEIVERAPA|52=20170920-22:42:14.060|56=TRAX|10=031|8=FIXT.1.1|9=61|35=0|34=1078|49=RECEIVERAPA|52=20170920-22:42:45.061|56=TRAX|10=037|8=FIXT.1.1|9=61|35=0|34=1079|49=RECEIVERAPA|52=20170920-22:43:15.063|56=TRAX|10=038|8=FIXT.1.1|9=61|35=0|34=1080|49=RECEIVERAPA|52=20170920-22:43:45.070|56=TRAX|10=031|8=FIXT.1.1|9=61|35=0|34=1081|49=RECEIVERAPA|52=20170920-22:44:16.064|56=TRAX|10=034|8=FIXT.1.1|9=61|35=0|34=1082|49=RECEIVERAPA|52=20170920-22:44:47.057|56=TRAX|10=041|8=FIXT.1.1|9=61|35=0|34=1083|49=RECEIVERAPA|52=20170920-22:45:17.062|56=TRAX|10=036|8=FIXT.1.1|9=61|35=0|34=1084|49=RECEIVERAPA|52=20170920-22:45:47.069|56=TRAX|10=047|8=FIXT.1.1|9=61|35=0|34=1085|49=RECEIVERAPA|52=20170920-22:46:18.064|56=TRAX|10=042|8=FIXT.1.1|9=61|35=0|34=1086|49=RECEIVERAPA|52=20170920-22:46:48.066|56=TRAX|10=048|8=FIXT.1.1|9=61|35=0|34=1087|49=RECEIVERAPA|52=20170920-22:47:19.060|56=TRAX|10=042|8=FIXT.1.1|9=61|35=0|34=1088|49=RECEIVERAPA|52=20170920-22:47:49.062|56=TRAX|10=048|8=FIXT.1.1|9=61|35=0|34=1089|49=RECEIVERAPA|52=20170920-22:48:19.064|56=TRAX|10=049|8=FIXT.1.1|9=61|35=0|34=1090|49=RECEIVERAPA|52=20170920-22:48:49.070|56=TRAX|10=041|8=FIXT.1.1|9=61|35=0|34=1091|49=RECEIVERAPA|52=20170920-22:49:19.072|56=TRAX|10=042|8=FIXT.1.1|9=61|35=0|34=1092|49=RECEIVERAPA|52=20170920-22:49:49.072|56=TRAX|10=046|8=FIXT.1.1|9=61|35=0|34=1093|49=RECEIVERAPA|52=20170920-22:50:20.061|56=TRAX|10=026|8=FIXT.1.1|9=61|35=0|34=1094|49=RECEIVERAPA|52=20170920-22:50:50.067|56=TRAX|10=036|8=FIXT.1.1|9=61|35=0|34=1095|49=RECEIVERAPA|52=20170920-22:51:21.067|56=TRAX|10=036|8=FIXT.1.1|9=61|35=0|34=1096|49=RECEIVERAPA|52=20170920-22:51:51.071|56=TRAX|10=035|8=FIXT.1.1|9=61|35=0|34=1097|49=RECEIVERAPA|52=20170920-22:52:21.073|56=TRAX|10=036|8=FIXT.1.1|9=61|35=0|34=1098|49=RECEIVERAPA|52=20170920-22:52:52.066|56=TRAX|10=043|8=FIXT.1.1|9=61|35=0|34=1099|49=RECEIVERAPA|52=20170920-22:53:23.065|56=TRAX|10=042|8=FIXT.1.1|9=61|35=0|34=1100|49=RECEIVERAPA|52=20170920-22:53:54.079|56=TRAX|10=034|8=FIXT.1.1|9=61|35=0|34=1101|49=RECEIVERAPA|52=20170920-22:54:25.078|56=TRAX|10=033|8=FIXT.1.1|9=61|35=0|34=1102|49=RECEIVERAPA|52=20170920-22:54:56.071|56=TRAX|10=031|8=FIXT.1.1|9=61|35=0|34=1103|49=RECEIVERAPA|52=20170920-22:55:26.075|56=TRAX|10=034|8=FIXT.1.1|9=61|35=0|34=1104|49=RECEIVERAPA|52=20170920-22:55:57.070|56=TRAX|10=034|8=FIXT.1.1|9=61|35=0|34=1105|49=RECEIVERAPA|52=20170920-22:56:27.075|56=TRAX|10=038|8=FIXT.1.1|9=61|35=0|34=1106|49=RECEIVERAPA|52=20170920-22:56:58.070|56=TRAX|10=038|8=FIXT.1.1|9=61|35=0|34=1107|49=RECEIVERAPA|52=20170920-22:57:28.072|56=TRAX|10=039|8=FIXT.1.1|9=61|35=0|34=1108|49=RECEIVERAPA|52=20170920-22:57:59.069|56=TRAX|10=050|8=FIXT.1.1|9=61|35=0|34=1109|49=RECEIVERAPA|52=20170920-22:58:29.072|56=TRAX|10=043|8=FIXT.1.1|9=61|35=0|34=1110|49=RECEIVERAPA|52=20170920-22:59:00.082|56=TRAX|10=026|8=FIXT.1.1|9=61|35=0|34=1111|49=RECEIVERAPA|52=20170920-22:59:31.069|56=TRAX|10=036|8=FIXT.1.1|9=61|35=0|34=1112|49=RECEIVERAPA|52=20170920-23:00:02.069|56=TRAX|10=022|8=FIXT.1.1|9=61|35=5|34=1113|49=RECEIVERAPA|52=20170920-23:00:02.256|56=TRAX|10=026|8=FIXT.1.1|9=104|35=A|34=1|49=RECEIVERAPA|52=20170922-14:38:33.215|56=TRAX|98=0|108=30|95=11|96=1.0.0rc11.2|141=Y|1137=9|10=147|8=FIXT.1.1|9=58|35=0|34=2|49=RECEIVERAPA|52=20170922-14:39:03.219|56=TRAX|10=149|8=FIXT.1.1|9=58|35=0|34=3|49=RECEIVERAPA|52=20170922-14:39:34.217|56=TRAX|10=152|8=FIXT.1.1|9=58|35=0|34=4|49=RECEIVERAPA|52=20170922-14:40:04.594|56=TRAX|10=150|8=FIXT.1.1|9=58|35=0|34=5|49=RECEIVERAPA|52=20170922-14:40:34.608|56=TRAX|10=150|8=FIXT.1.1|9=58|35=0|34=6|49=RECEIVERAPA|52=20170922-14:41:05.212|56=TRAX|10=141|8=FIXT.1.1|9=58|35=0|34=7|49=RECEIVERAPA|52=20170922-14:41:35.220|56=TRAX|10=144|8=FIXT.1.1|9=58|35=0|34=8|49=RECEIVERAPA|52=20170922-14:42:05.222|56=TRAX|10=145|8=FIXT.1.1|9=58|35=0|34=9|49=RECEIVERAPA|52=20170922-14:42:36.219|56=TRAX|10=156|8=FIXT.1.1|9=59|35=0|34=10|49=RECEIVERAPA|52=20170922-14:43:06.220|56=TRAX|10=187|8=FIXT.1.1|9=59|35=0|34=11|49=RECEIVERAPA|52=20170922-14:43:36.221|56=TRAX|10=192|8=FIXT.1.1|9=59|35=0|34=12|49=RECEIVERAPA|52=20170922-14:44:06.221|56=TRAX|10=191|8=FIXT.1.1|9=59|35=0|34=13|49=RECEIVERAPA|52=20170922-14:44:37.217|56=TRAX|10=201|8=FIXT.1.1|9=59|35=0|34=14|49=RECEIVERAPA|52=20170922-14:45:07.217|56=TRAX|10=200|8=FIXT.1.1|9=59|35=0|34=15|49=RECEIVERAPA|52=20170922-14:45:37.221|56=TRAX|10=199|8=FIXT.1.1|9=59|35=0|34=16|49=RECEIVERAPA|52=20170922-14:46:08.218|56=TRAX|10=205|8=FIXT.1.1|9=59|35=0|34=17|49=RECEIVERAPA|52=20170922-14:46:38.224|56=TRAX|10=206|8=FIXT.1.1|9=59|35=0|34=18|49=RECEIVERAPA|52=20170922-14:47:09.225|56=TRAX|10=207|8=FIXT.1.1|9=59|35=0|34=19|49=RECEIVERAPA|52=20170922-14:47:40.223|56=TRAX|10=201|8=FIXT.1.1|9=59|35=0|34=20|49=RECEIVERAPA|52=20170922-14:48:10.224|56=TRAX|10=192|8=FIXT.1.1|9=59|35=0|34=21|49=RECEIVERAPA|52=20170922-14:48:40.226|56=TRAX|10=198|8=FIXT.1.1|9=59|35=0|34=22|49=RECEIVERAPA|52=20170922-14:49:11.227|56=TRAX|10=199|8=FIXT.1.1|9=59|35=0|34=23|49=RECEIVERAPA|52=20170922-14:49:42.221|56=TRAX|10=198|8=FIXT.1.1|9=59|35=0|34=24|49=RECEIVERAPA|52=20170922-14:50:12.223|56=TRAX|10=190|8=FIXT.1.1|9=59|35=0|34=25|49=RECEIVERAPA|52=20170922-14:50:43.225|56=TRAX|10=197|8=FIXT.1.1|9=59|35=0|34=26|49=RECEIVERAPA|52=20170922-14:51:14.202|56=TRAX|10=192|8=FIXT.1.1|9=59|35=0|34=27|49=RECEIVERAPA|52=20170922-14:51:44.225|56=TRAX|10=201|8=FIXT.1.1|9=59|35=0|34=28|49=RECEIVERAPA|52=20170922-14:52:15.226|56=TRAX|10=202|8=FIXT.1.1|9=59|35=0|34=29|49=RECEIVERAPA|52=20170922-14:52:46.223|56=TRAX|10=204|8=FIXT.1.1|9=59|35=0|34=30|49=RECEIVERAPA|52=20170922-14:53:16.228|56=TRAX|10=199|8=FIXT.1.1|9=59|35=0|34=31|49=RECEIVERAPA|52=20170922-14:53:46.231|56=TRAX|10=197|8=FIXT.1.1|9=59|35=0|34=32|49=RECEIVERAPA|52=20170922-14:54:17.227|56=TRAX|10=202|8=FIXT.1.1|9=59|35=0|34=33|49=RECEIVERAPA|52=20170922-14:54:47.232|56=TRAX|10=202|8=FIXT.1.1|9=59|35=0|34=34|49=RECEIVERAPA|52=20170922-14:55:18.225|56=TRAX|10=204|8=FIXT.1.1|9=59|35=0|34=35|49=RECEIVERAPA|52=20170922-14:55:48.227|56=TRAX|10=210|8=FIXT.1.1|9=59|35=0|34=36|49=RECEIVERAPA|52=20170922-14:56:19.228|56=TRAX|10=211|8=FIXT.1.1|9=59|35=0|34=37|49=RECEIVERAPA|52=20170922-14:56:50.228|56=TRAX|10=207|8=FIXT.1.1|9=59|35=0|34=38|49=RECEIVERAPA|52=20170922-14:57:21.234|56=TRAX|10=204|8=FIXT.1.1|9=59|35=0|34=39|49=RECEIVERAPA|52=20170922-14:57:52.228|56=TRAX|10=212|8=FIXT.1.1|9=59|35=0|34=40|49=RECEIVERAPA|52=20170922-14:58:22.234|56=TRAX|10=199|8=FIXT.1.1|9=59|35=0|34=41|49=RECEIVERAPA|52=20170922-14:58:53.232|56=TRAX|10=202|8=FIXT.1.1|9=59|35=0|34=42|49=RECEIVERAPA|52=20170922-14:59:23.234|56=TRAX|10=203|8=FIXT.1.1|9=59|35=0|34=43|49=RECEIVERAPA|52=20170922-14:59:54.230|56=TRAX|10=204|8=FIXT.1.1|9=59|35=0|34=44|49=RECEIVERAPA|52=20170922-15:00:24.236|56=TRAX|10=195|8=FIXT.1.1|9=59|35=0|34=45|49=RECEIVERAPA|52=20170922-15:00:55.229|56=TRAX|10=202|8=FIXT.1.1|9=59|35=0|34=46|49=RECEIVERAPA|52=20170922-15:01:25.235|56=TRAX|10=198|8=FIXT.1.1|9=59|35=0|34=47|49=RECEIVERAPA|52=20170922-15:01:56.237|56=TRAX|10=205|8=FIXT.1.1|9=59|35=0|34=48|49=RECEIVERAPA|52=20170922-15:02:27.237|56=TRAX|10=205|8=FIXT.1.1|9=59|35=0|34=49|49=RECEIVERAPA|52=20170922-15:02:58.232|56=TRAX|10=205|8=FIXT.1.1|9=59|35=0|34=50|49=RECEIVERAPA|52=20170922-15:03:28.233|56=TRAX|10=196|8=FIXT.1.1|9=59|35=0|34=51|49=RECEIVERAPA|52=20170922-15:03:58.235|56=TRAX|10=202|8=FIXT.1.1|9=59|35=0|34=52|49=RECEIVERAPA|52=20170922-15:04:29.240|56=TRAX|10=198|8=FIXT.1.1|9=59|35=0|34=53|49=RECEIVERAPA|52=20170922-15:05:00.240|56=TRAX|10=189|8=FIXT.1.1|9=59|35=0|34=54|49=RECEIVERAPA|52=20170922-15:05:31.239|56=TRAX|10=202|8=FIXT.1.1|9=59|35=0|34=55|49=RECEIVERAPA|52=20170922-15:06:01.240|56=TRAX|10=193|8=FIXT.1.1|9=59|35=0|34=56|49=RECEIVERAPA|52=20170922-15:06:31.241|56=TRAX|10=198|8=FIXT.1.1|9=59|35=0|34=57|49=RECEIVERAPA|52=20170922-15:07:02.242|56=TRAX|10=199|8=FIXT.1.1|9=59|35=0|34=58|49=RECEIVERAPA|52=20170922-15:07:33.231|56=TRAX|10=202|8=FIXT.1.1|9=59|35=0|34=59|49=RECEIVERAPA|52=20170922-15:08:03.238|56=TRAX|10=208|8=FIXT.1.1|9=59|35=0|34=60|49=RECEIVERAPA|52=20170922-15:08:34.235|56=TRAX|10=201|8=FIXT.1.1|9=59|35=0|34=61|49=RECEIVERAPA|52=20170922-15:09:04.239|56=TRAX|10=204|8=FIXT.1.1|9=59|35=0|34=62|49=RECEIVERAPA|52=20170922-15:09:34.241|56=TRAX|10=201|8=FIXT.1.1|9=59|35=0|34=63|49=RECEIVERAPA|52=20170922-15:10:04.241|56=TRAX|10=191|8=FIXT.1.1|9=59|35=0|34=64|49=RECEIVERAPA|52=20170922-15:10:34.243|56=TRAX|10=197|8=FIXT.1.1|9=59|35=0|34=65|49=RECEIVERAPA|52=20170922-15:11:05.243|56=TRAX|10=197|8=FIXT.1.1|9=59|35=0|34=66|49=RECEIVERAPA|52=20170922-15:11:36.237|56=TRAX|10=205|8=FIXT.1.1|9=59|35=0|34=67|49=RECEIVERAPA|52=20170922-15:12:06.246|56=TRAX|10=204|8=FIXT.1.1|9=59|35=0|34=68|49=RECEIVERAPA|52=20170922-15:12:36.247|56=TRAX|10=209|8=FIXT.1.1|9=59|35=0|34=69|49=RECEIVERAPA|52=20170922-15:13:07.247|56=TRAX|10=209|8=FIXT.1.1|9=59|35=0|34=70|49=RECEIVERAPA|52=20170922-15:13:38.244|56=TRAX|10=202|8=FIXT.1.1|9=59|35=0|34=71|49=RECEIVERAPA|52=20170922-15:14:09.246|56=TRAX|10=204|8=FIXT.1.1|9=59|35=0|34=72|49=RECEIVERAPA|52=20170922-15:14:40.246|56=TRAX|10=200|8=FIXT.1.1|9=59|35=0|34=73|49=RECEIVERAPA|52=20170922-15:15:11.245|56=TRAX|10=199|8=FIXT.1.1|9=59|35=0|34=74|49=RECEIVERAPA|52=20170922-15:15:41.249|56=TRAX|10=207|8=FIXT.1.1|9=59|35=0|34=75|49=RECEIVERAPA|52=20170922-15:16:12.242|56=TRAX|10=200|8=FIXT.1.1|9=59|35=0|34=76|49=RECEIVERAPA|52=20170922-15:16:42.244|56=TRAX|10=206|8=FIXT.1.1|9=59|35=0|34=77|49=RECEIVERAPA|52=20170922-15:17:12.244|56=TRAX|10=205|8=FIXT.1.1|9=59|35=0|34=78|49=RECEIVERAPA|52=20170922-15:17:42.247|56=TRAX|10=212|8=FIXT.1.1|9=59|35=0|34=79|49=RECEIVERAPA|52=20170922-15:18:13.240|56=TRAX|10=205|8=FIXT.1.1|9=59|35=0|34=80|49=RECEIVERAPA|52=20170922-15:18:43.248|56=TRAX|10=208|8=FIXT.1.1|9=59|35=0|34=81|49=RECEIVERAPA|52=20170922-15:19:14.244|56=TRAX|10=204|8=FIXT.1.1|9=59|35=0|34=82|49=RECEIVERAPA|52=20170922-15:19:44.247|56=TRAX|10=211|8=FIXT.1.1|9=59|35=0|34=83|49=RECEIVERAPA|52=20170922-15:20:14.250|56=TRAX|10=195|8=FIXT.1.1|9=59|35=0|34=84|49=RECEIVERAPA|52=20170922-15:20:44.254|56=TRAX|10=203|8=FIXT.1.1|9=59|35=0|34=85|49=RECEIVERAPA|52=20170922-15:21:15.251|56=TRAX|10=200|8=FIXT.1.1|9=59|35=0|34=86|49=RECEIVERAPA|52=20170922-15:21:45.253|56=TRAX|10=206|8=FIXT.1.1|9=59|35=0|34=87|49=RECEIVERAPA|52=20170922-15:22:15.253|56=TRAX|10=205|8=FIXT.1.1|9=59|35=0|34=88|49=RECEIVERAPA|52=20170922-15:22:46.254|56=TRAX|10=211|8=FIXT.1.1|9=59|35=0|34=89|49=RECEIVERAPA|52=20170922-15:23:16.256|56=TRAX|10=212|8=FIXT.1.1|9=59|35=0|34=90|49=RECEIVERAPA|52=20170922-15:23:47.254|56=TRAX|10=206|8=FIXT.1.1|9=59|35=0|34=91|49=RECEIVERAPA|52=20170922-15:24:17.257|56=TRAX|10=208|8=FIXT.1.1|9=59|35=0|34=92|49=RECEIVERAPA|52=20170922-15:24:48.249|5