8=FIXT.1.1|9=105|35=A|34=1|49=HEMA_RTS2728_MTF|52=20180817-11:47:53.905|56=TRAX|98=0|108=30|95=8|96=3.0.0rc3|141=Y|1137=9|10=075|8=FIXT.1.1|9=105|35=A|34=1|49=HEMA_RTS2728_MTF|52=20180817-11:48:40.902|56=TRAX|98=0|108=30|95=8|96=3.0.0rc3|141=Y|1137=9|10=069|