8=FIXT.1.1|9=102|35=A|34=1|49=QA3TESTID|52=20170713-08:43:18.082|56=TRAXQA3|98=0|108=30|95=9|96=1.0.0rc11|141=Y|1137=9|10=058|8=FIXT.1.1|9=438|35=AE|34=2|49=QA3TESTID|50=APA|57=APA|52=20170713-08:43:29.487|56=TRAXQA3|571=TradeReport1|487=0|325=Y|423=22|55=[N/A]|48=RIMADRVC1DR1|22=4|32=1000|31=299|60=20170404-11:20:13.370|552=1|54=1|29=1|1041=Trade002038|1390=2|22800=7|1934=0|1116=3|1117=815600C6AA0C557F7276|1118=N|1119=116|1117=XOFF|1118=G|1119=73|1117=815600C6AA0C557F7276|1118=N|1119=1|2388=0|15=GBP|120=GBP|1924=1|22600=250|22601=GBP|854=1|231=10|30=XOFF|22801=1|22802=ILQD|10=111|8=FIXT.1.1|9=59|35=0|34=3|49=QA3TESTID|52=20170713-08:44:00.066|56=TRAXQA3|10=193|8=FIXT.1.1|9=59|35=0|34=4|49=QA3TESTID|52=20170713-08:44:30.069|56=TRAXQA3|10=200|8=FIXT.1.1|9=59|35=0|34=5|49=QA3TESTID|52=20170713-08:45:00.354|56=TRAXQA3|10=196|8=FIXT.1.1|9=59|35=0|34=6|49=QA3TESTID|52=20170713-08:45:30.361|56=TRAXQA3|10=198|8=FIXT.1.1|9=438|35=AE|34=7|49=QA3TESTID|50=APA|57=APA|52=20170713-08:45:31.828|56=TRAXQA3|571=TradeReport1|487=0|325=Y|423=22|55=[N/A]|48=RIMADRVC1DR1|22=4|32=1000|31=299|60=20170404-11:20:13.370|552=1|54=1|29=1|1041=Trade002038|1390=2|22800=7|1934=0|1116=3|1117=81560073185855FCA651|1118=N|1119=116|1117=XOFF|1118=G|1119=73|1117=81560073185855FCA651|1118=N|1119=1|2388=0|15=GBP|120=GBP|1924=1|22600=250|22601=GBP|854=1|231=10|30=XOFF|22801=1|22802=ILQD|10=056|8=FIXT.1.1|9=59|35=0|34=8|49=QA3TESTID|52=20170713-08:46:02.071|56=TRAXQA3|10=198|8=FIXT.1.1|9=438|35=AE|34=9|49=QA3TESTID|50=APA|57=APA|52=20170713-08:46:30.114|56=TRAXQA3|571=TradeReport1|487=0|325=Y|423=22|55=[N/A]|48=GB0002648284|22=4|32=1000|31=299|60=20170404-11:20:13.370|552=1|54=1|29=1|1041=Trade002038|1390=2|22800=7|1934=0|1116=3|1117=81560073185855FCA651|1118=N|1119=116|1117=XOFF|1118=G|1119=73|1117=81560073185855FCA651|1118=N|1119=1|2388=0|15=GBP|120=GBP|1924=1|22600=250|22601=GBP|854=1|231=10|30=XOFF|22801=1|22802=ILQD|10=105|8=FIXT.1.1|9=60|35=0|34=10|49=QA3TESTID|52=20170713-08:47:00.350|56=TRAXQA3|10=230|8=FIXT.1.1|9=439|35=AE|34=11|49=QA3TESTID|50=APA|57=APA|52=20170713-08:47:11.034|56=TRAXQA3|571=TradeReport1|487=0|325=Y|423=22|55=[N/A]|48=RIMADRVINTR1|22=4|32=1000|31=299|60=20170404-11:20:13.370|552=1|54=1|29=1|1041=Trade002038|1390=2|22800=7|1934=0|1116=3|1117=81560073185855FCA651|1118=N|1119=116|1117=XOFF|1118=G|1119=73|1117=81560073185855FCA651|1118=N|1119=1|2388=0|15=GBP|120=GBP|1924=1|22600=250|22601=GBP|854=1|231=10|30=XOFF|22801=1|22802=ILQD|10=140|8=FIXT.1.1|9=60|35=0|34=12|49=QA3TESTID|52=20170713-08:47:41.067|56=TRAXQA3|10=242|8=FIXT.1.1|9=60|35=0|34=13|49=QA3TESTID|52=20170713-08:48:11.354|56=TRAXQA3|10=240|8=FIXT.1.1|9=60|35=0|34=14|49=QA3TESTID|52=20170713-08:48:42.065|56=TRAXQA3|10=244|8=FIXT.1.1|9=439|35=AE|34=15|49=QA3TESTID|50=APA|57=APA|52=20170713-08:48:44.549|56=TRAXQA3|571=TradeReport1|487=0|325=Y|423=22|55=[N/A]|48=SALTESTEQT01|22=4|32=1000|31=299|60=20170404-11:20:13.370|552=1|54=1|29=1|1041=Trade002038|1390=2|22800=7|1934=0|1116=3|1117=81560073185855FCA651|1118=N|1119=116|1117=XOFF|1118=G|1119=73|1117=81560073185855FCA651|1118=N|1119=1|2388=0|15=GBP|120=GBP|1924=1|22600=250|22601=GBP|854=1|231=10|30=XOFF|22801=1|22802=ILQD|10=138|8=FIXT.1.1|9=60|35=0|34=16|49=QA3TESTID|52=20170713-08:49:15.068|56=TRAXQA3|10=250|8=FIXT.1.1|9=439|35=AE|34=17|49=QA3TESTID|50=APA|57=APA|52=20170713-08:49:29.602|56=TRAXQA3|571=TradeReport1|487=0|325=Y|423=22|55=[N/A]|48=AUTOTESTEQT6|22=4|32=1000|31=299|60=20170404-11:20:13.370|552=1|54=1|29=1|1041=Trade002038|1390=2|22800=7|1934=0|1116=3|1117=81560073185855FCA651|1118=N|1119=116|1117=XOFF|1118=G|1119=73|1117=81560073185855FCA651|1118=N|1119=1|2388=0|15=GBP|120=GBP|1924=1|22600=250|22601=GBP|854=1|231=10|30=XOFF|22801=1|22802=ILQD|10=180|8=FIXT.1.1|9=440|35=AE|34=18|49=QA3TESTID|50=APA|57=APA|52=20170713-08:49:39.801|56=TRAXQA3|571=TradeReport1|487=0|325=Y|423=22|55=[N/A]|48=AUTOTESTEQT6|22=4|32=1000|31=299|60=20170404-11:20:13.370|552=1|54=1|29=1|1041=Trade0020381|1390=2|22800=7|1934=0|1116=3|1117=81560073185855FCA651|1118=N|1119=116|1117=XOFF|1118=G|1119=73|1117=81560073185855FCA651|1118=N|1119=1|2388=0|15=GBP|120=GBP|1924=1|22600=250|22601=GBP|854=1|231=10|30=XOFF|22801=1|22802=ILQD|10=224|8=FIXT.1.1|9=60|35=0|34=19|49=QA3TESTID|52=20170713-08:50:10.070|56=TRAXQA3|10=233|8=FIXT.1.1|9=60|35=0|34=20|49=QA3TESTID|52=20170713-08:50:40.348|56=TRAXQA3|10=236|8=FIXT.1.1|9=441|35=AE|34=21|49=QA3TESTID|50=APA|57=APA|52=20170713-08:50:46.542|56=TRAXQA3|571=TradeReport1|487=0|325=Y|423=22|55=[N/A]|48=AUTOTESTEQT6|22=4|32=1000|31=299|60=20170404-11:20:13.370|552=1|54=1|29=1|1041=Trade00203801|1390=2|22800=7|1934=0|1116=3|1117=81560073185855FCA651|1118=N|1119=116|1117=MAEL|1118=G|1119=73|1117=81560073185855FCA651|1118=N|1119=1|2388=0|15=GBP|120=GBP|1924=1|22600=250|22601=GBP|854=1|231=10|30=XOFF|22801=1|22802=ILQD|10=239|8=FIXT.1.1|9=60|35=0|34=22|49=QA3TESTID|52=20170713-08:51:17.065|56=TRAXQA3|10=239|8=FIXT.1.1|9=60|35=0|34=23|49=QA3TESTID|52=20170713-08:51:47.072|56=TRAXQA3|10=241|8=FIXT.1.1|9=442|35=AE|34=24|49=QA3TESTID|50=APA|57=APA|52=20170713-08:52:09.527|56=TRAXQA3|571=TradeReport1|487=0|325=Y|423=22|55=[N/A]|48=AUTOTESTEQT6|22=4|32=1000|31=299|60=20170404-11:20:13.370|552=1|54=1|29=1|1041=Trade00203801|1390=2|22800=21|1934=0|1116=3|1117=81560073185855FCA651|1118=N|1119=116|1117=MAEL|1118=G|1119=73|1117=81560073185855FCA651|1118=N|1119=1|2388=0|15=GBP|120=GBP|1924=1|22600=250|22601=GBP|854=1|231=10|30=XOFF|22801=1|22802=ILQD|10=035|8=FIXT.1.1|9=443|35=AE|34=25|49=QA3TESTID|50=APA|57=APA|52=20170713-08:52:19.726|56=TRAXQA3|571=TradeReport1|487=0|325=Y|423=22|55=[N/A]|48=AUTOTESTEQT6|22=4|32=1000|31=299|60=20170404-11:20:13.370|552=1|54=1|29=1|1041=Trade002038010|1390=2|22800=21|1934=0|1116=3|1117=81560073185855FCA651|1118=N|1119=116|1117=MAEL|1118=G|1119=73|1117=81560073185855FCA651|1118=N|1119=1|2388=0|15=GBP|120=GBP|1924=1|22600=250|22601=GBP|854=1|231=10|30=XOFF|22801=1|22802=ILQD|10=087|8=FIXT.1.1|9=442|35=AE|34=26|49=QA3TESTID|50=APA|57=APA|52=20170713-08:52:43.529|56=TRAXQA3|571=TradeReport1|487=0|325=Y|423=22|55=[N/A]|48=AUTOTESTEQT6|22=4|32=1000|31=299|60=20170404-11:20:13.370|552=1|54=1|29=1|1041=Trade002038011|1390=2|22800=8|1934=0|1116=3|1117=81560073185855FCA651|1118=N|1119=116|1117=MAEL|1118=G|1119=73|1117=81560073185855FCA651|1118=N|1119=1|2388=0|15=GBP|120=GBP|1924=1|22600=250|22601=GBP|854=1|231=10|30=XOFF|22801=1|22802=ILQD|10=043|8=FIXT.1.1|9=443|35=AE|34=27|49=QA3TESTID|50=APA|57=APA|52=20170713-08:53:07.302|56=TRAXQA3|571=TradeReport1|487=0|325=Y|423=22|55=[N/A]|48=AUTOTESTEQT6|22=4|32=1000|31=299|60=20170404-11:20:13.370|552=1|54=1|29=1|1041=Trade002038012|1390=2|22800=22|1934=0|1116=3|1117=81560073185855FCA651|1118=N|1119=116|1117=MAEL|1118=G|1119=73|1117=81560073185855FCA651|1118=N|1119=1|2388=0|15=GBP|120=GBP|1924=1|22600=250|22601=GBP|854=1|231=10|30=XOFF|22801=1|22802=ILQD|10=080|8=FIXT.1.1|9=60|35=0|34=28|49=QA3TESTID|52=20170713-08:53:38.070|56=TRAXQA3|10=246|8=FIXT.1.1|9=60|35=0|34=29|49=QA3TESTID|52=20170713-08:54:08.070|56=TRAXQA3|10=245|8=FIXT.1.1|9=60|35=0|34=30|49=QA3TESTID|52=20170713-08:54:39.073|56=TRAXQA3|10=244|8=FIXT.1.1|9=60|35=0|34=31|49=QA3TESTID|52=20170713-08:55:09.075|56=TRAXQA3|10=245|8=FIXT.1.1|9=60|35=0|34=32|49=QA3TESTID|52=20170713-08:55:40.072|56=TRAXQA3|10=238|8=FIXT.1.1|9=60|35=0|34=33|49=QA3TESTID|52=20170713-08:56:10.346|56=TRAXQA3|10=241|8=FIXT.1.1|9=60|35=0|34=34|49=QA3TESTID|52=20170713-08:56:40.354|56=TRAXQA3|10=244|8=FIXT.1.1|9=60|35=0|34=35|49=QA3TESTID|52=20170713-08:57:10.355|56=TRAXQA3|10=244|8=FIXT.1.1|9=60|35=0|34=36|49=QA3TESTID|52=20170713-08:57:41.049|56=TRAXQA3|10=249|8=FIXT.1.1|9=60|35=0|34=37|49=QA3TESTID|52=20170713-08:58:11.068|56=TRAXQA3|10=249|8=FIXT.1.1|9=60|35=0|34=38|49=QA3TESTID|52=20170713-08:58:41.072|56=TRAXQA3|10=248|8=FIXT.1.1|9=60|35=0|34=39|49=QA3TESTID|52=20170713-08:59:12.077|56=TRAXQA3|10=253|8=FIXT.1.1|9=60|35=0|34=40|49=QA3TESTID|52=20170713-08:59:43.073|56=TRAXQA3|10=245|8=FIXT.1.1|9=60|35=0|34=41|49=QA3TESTID|52=20170713-09:00:14.069|56=TRAXQA3|10=236|8=FIXT.1.1|9=60|35=0|34=42|49=QA3TESTID|52=20170713-09:00:44.075|56=TRAXQA3|10=237|8=FIXT.1.1|9=60|35=0|34=43|49=QA3TESTID|52=20170713-09:01:15.073|56=TRAXQA3|10=235|8=FIXT.1.1|9=60|35=0|34=44|49=QA3TESTID|52=20170713-09:01:45.076|56=TRAXQA3|10=242|8=FIXT.1.1|9=60|35=0|34=45|49=QA3TESTID|52=20170713-09:02:16.070|56=TRAXQA3|10=236|8=FIXT.1.1|9=78|35=5|34=46|49=QA3TESTID|52=20170713-09:02:31.078|56=TRAXQA3|58=user requested|10=092|8=FIXT.1.1|9=102|35=A|34=1|49=QA3TESTID|52=20170713-09:11:06.385|56=TRAXQA3|98=0|108=30|95=9|96=1.0.0rc11|141=Y|1137=9|10=057|8=FIXT.1.1|9=59|35=0|34=2|49=QA3TESTID|52=20170713-09:11:37.348|56=TRAXQA3|10=200|8=FIXT.1.1|9=59|35=0|34=3|49=QA3TESTID|52=20170713-09:12:07.350|56=TRAXQA3|10=192|8=FIXT.1.1|9=443|35=AE|34=4|49=QA3TESTID|50=APA|57=APA|52=20170713-09:12:07.380|56=TRAXQA3|571=TradeReport1|487=0|325=Y|423=22|55=[N/A]|48=AUTOTESTEQT6|22=4|32=1000|31=299|60=20170707-11:20:13.370|552=1|54=1|29=1|1041=Trade0020380121|1390=2|22800=22|1934=0|1116=3|1117=81560073185855FCA651|1118=N|1119=116|1117=MAEL|1118=G|1119=73|1117=81560073185855FCA651|1118=N|1119=1|2388=0|15=GBP|120=GBP|1924=1|22600=250|22601=GBP|854=1|231=10|30=XOFF|22801=1|22802=ILQD|10=084|8=FIXT.1.1|9=59|35=0|34=5|49=QA3TESTID|52=20170713-09:12:38.355|56=TRAXQA3|10=203|8=FIXT.1.1|9=59|35=0|34=6|49=QA3TESTID|52=20170713-09:13:09.358|56=TRAXQA3|10=206|8=FIXT.1.1|9=59|35=0|34=7|49=QA3TESTID|52=20170713-09:13:39.379|56=TRAXQA3|10=213|8=FIXT.1.1|9=59|35=0|34=8|49=QA3TESTID|52=20170713-09:14:09.388|56=TRAXQA3|10=212|8=FIXT.1.1|9=59|35=0|34=9|49=QA3TESTID|52=20170713-09:14:39.390|56=TRAXQA3|10=209|8=FIXT.1.1|9=60|35=0|34=10|49=QA3TESTID|52=20170713-09:15:10.359|56=TRAXQA3|10=236|8=FIXT.1.1|9=60|35=0|34=11|49=QA3TESTID|52=20170713-09:15:41.354|56=TRAXQA3|10=236|8=FIXT.1.1|9=60|35=0|34=12|49=QA3TESTID|52=20170713-09:16:11.359|56=TRAXQA3|10=240|8=FIXT.1.1|9=60|35=0|34=13|49=QA3TESTID|52=20170713-09:16:42.358|56=TRAXQA3|10=244|8=FIXT.1.1|9=60|35=0|34=14|49=QA3TESTID|52=20170713-09:17:13.342|56=TRAXQA3|10=237|8=FIXT.1.1|9=60|35=0|34=15|49=QA3TESTID|52=20170713-09:17:44.334|56=TRAXQA3|10=243|8=FIXT.1.1|9=60|35=0|34=16|49=QA3TESTID|52=20170713-09:18:14.361|56=TRAXQA3|10=242|8=FIXT.1.1|9=60|35=0|34=17|49=QA3TESTID|52=20170713-09:18:45.335|56=TRAXQA3|10=248|8=FIXT.1.1|9=60|35=0|34=18|49=QA3TESTID|52=20170713-09:19:15.352|56=TRAXQA3|10=246|8=FIXT.1.1|9=60|35=0|34=19|49=QA3TESTID|52=20170713-09:19:45.356|56=TRAXQA3|10=254|8=FIXT.1.1|9=60|35=0|34=20|49=QA3TESTID|52=20170713-09:20:15.359|56=TRAXQA3|10=238|8=FIXT.1.1|9=60|35=0|34=21|49=QA3TESTID|52=20170713-09:20:45.361|56=TRAXQA3|10=235|8=FIXT.1.1|9=60|35=0|34=22|49=QA3TESTID|52=20170713-09:21:16.362|56=TRAXQA3|10=236|8=FIXT.1.1|9=60|35=0|34=23|49=QA3TESTID|52=20170713-09:21:47.354|56=TRAXQA3|10=242|8=FIXT.1.1|9=60|35=0|34=24|49=QA3TESTID|52=20170713-09:22:17.358|56=TRAXQA3|10=245|8=FIXT.1.1|9=60|35=0|34=25|49=QA3TESTID|52=20170713-09:22:48.355|56=TRAXQA3|10=247|8=FIXT.1.1|9=60|35=0|34=26|49=QA3TESTID|52=20170713-09:23:18.355|56=TRAXQA3|10=246|8=FIXT.1.1|9=60|35=0|34=27|49=QA3TESTID|52=20170713-09:23:48.356|56=TRAXQA3|10=251|8=FIXT.1.1|9=60|35=0|34=28|49=QA3TESTID|52=20170713-09:24:18.363|56=TRAXQA3|10=248|8=FIXT.1.1|9=60|35=0|34=29|49=QA3TESTID|52=20170713-09:24:49.355|56=TRAXQA3|10=254|8=FIXT.1.1|9=60|35=0|34=30|49=QA3TESTID|52=20170713-09:25:19.363|56=TRAXQA3|10=243|8=FIXT.1.1|9=60|35=0|34=31|49=QA3TESTID|52=20170713-09:25:50.361|56=TRAXQA3|10=237|8=FIXT.1.1|9=407|35=i|34=32|49=QA3TESTID|50=APA|52=20170713-09:26:05.202|56=TRAXQA3|57=APA|117=RMQ1094_1|296=2|302=1|304=1|295=1|299=RQ1094_1|48=AUTOTESTEQT6|22=4|22680=10.45|22683=1|134=6000|62=20170717-08:59:59.000|60=20170713-04:00:00.000|15=EUR|22500=4|22503=100|302=2|304=1|295=1|299=RQ1094_2|48=QUOTEDERV001|22=4|22680=111.45|22683=1|134=6555|62=20170717-05:59:59.000|60=20170713-04:00:00.000|15=EUR|22500=4|22503=100|10=247|8=FIXT.1.1|9=60|35=0|34=33|49=QA3TESTID|52=20170713-09:26:35.363|56=TRAXQA3|10=245|8=FIXT.1.1|9=60|35=0|34=34|49=QA3TESTID|52=20170713-09:27:06.359|56=TRAXQA3|10=250|8=FIXT.1.1|9=60|35=0|34=35|49=QA3TESTID|52=20170713-09:27:36.364|56=TRAXQA3|10=250|8=FIXT.1.1|9=407|35=i|34=36|49=QA3TESTID|50=APA|52=20170713-09:27:48.708|56=TRAXQA3|57=APA|117=RMQ1094_1|296=2|302=1|304=1|295=1|299=RQ1094_1|48=AUTOTESTEQT6|22=4|22680=10.45|22683=1|134=6000|62=20170717-08:59:59.000|60=20170713-04:00:00.000|15=EUR|22500=4|22503=100|302=2|304=1|295=1|299=RQ1094_2|48=AUTOTESTEQT6|22=4|22680=111.45|22683=1|134=6555|62=20170717-05:59:59.000|60=20170713-04:00:00.000|15=EUR|22500=4|22503=100|10=087|8=FIXT.1.1|9=60|35=0|34=37|49=QA3TESTID|52=20170713-09:28:19.364|56=TRAXQA3|10=254|8=FIXT.1.1|9=60|35=0|34=38|49=QA3TESTID|52=20170713-09:28:49.365|56=TRAXQA3|10=003|8=FIXT.1.1|9=60|35=0|34=39|49=QA3TESTID|52=20170713-09:29:19.398|56=TRAXQA3|10=008|8=FIXT.1.1|9=60|35=0|34=40|49=QA3TESTID|52=20170713-09:29:50.363|56=TRAXQA3|10=243|8=FIXT.1.1|9=60|35=0|34=41|49=QA3TESTID|52=20170713-09:30:20.364|56=TRAXQA3|10=234|8=FIXT.1.1|9=60|35=0|34=42|49=QA3TESTID|52=20170713-09:30:51.367|56=TRAXQA3|10=242|8=FIXT.1.1|9=60|35=0|34=43|49=QA3TESTID|52=20170713-09:31:22.367|56=TRAXQA3|10=242|8=FIXT.1.1|9=60|35=0|34=44|49=QA3TESTID|52=20170713-09:31:53.360|56=TRAXQA3|10=240|8=FIXT.1.1|9=60|35=0|34=45|49=QA3TESTID|52=20170713-09:32:24.364|56=TRAXQA3|10=244|8=FIXT.1.1|9=60|35=0|34=46|49=QA3TESTID|52=20170713-09:32:54.364|56=TRAXQA3|10=248|8=FIXT.1.1|9=60|35=0|34=47|49=QA3TESTID|52=20170713-09:33:24.369|56=TRAXQA3|10=252|8=FIXT.1.1|9=60|35=0|34=48|49=QA3TESTID|52=20170713-09:33:55.368|56=TRAXQA3|10=000|8=FIXT.1.1|9=60|35=0|34=49|49=QA3TESTID|52=20170713-09:34:26.361|56=TRAXQA3|10=249|8=FIXT.1.1|9=60|35=0|34=50|49=QA3TESTID|52=20170713-09:34:56.370|56=TRAXQA3|10=244|8=FIXT.1.1|9=60|35=0|34=51|49=QA3TESTID|52=20170713-09:35:26.370|56=TRAXQA3|10=243|8=FIXT.1.1|9=60|35=0|34=52|49=QA3TESTID|52=20170713-09:35:57.367|56=TRAXQA3|10=254|8=FIXT.1.1|9=60|35=0|34=53|49=QA3TESTID|52=20170713-09:36:27.371|56=TRAXQA3|10=248|8=FIXT.1.1|9=60|35=0|34=54|49=QA3TESTID|52=20170713-09:36:58.365|56=TRAXQA3|10=000|8=FIXT.1.1|9=60|35=0|34=55|49=QA3TESTID|52=20170713-09:37:29.363|56=TRAXQA3|10=254|8=FIXT.1.1|9=60|35=0|34=56|49=QA3TESTID|52=20170713-09:37:59.368|56=TRAXQA3|10=007|8=FIXT.1.1|9=60|35=0|34=57|49=QA3TESTID|52=20170713-09:38:30.369|56=TRAXQA3|10=255|8=FIXT.1.1|9=60|35=0|34=58|49=QA3TESTID|52=20170713-09:39:01.362|56=TRAXQA3|10=248|8=FIXT.1.1|9=60|35=0|34=59|49=QA3TESTID|52=20170713-09:39:31.363|56=TRAXQA3|10=253|8=FIXT.1.1|9=60|35=0|34=60|49=QA3TESTID|52=20170713-09:40:01.366|56=TRAXQA3|10=237|8=FIXT.1.1|9=60|35=0|34=61|49=QA3TESTID|52=20170713-09:40:31.372|56=TRAXQA3|10=238|8=FIXT.1.1|9=60|35=0|34=62|49=QA3TESTID|52=20170713-09:41:02.372|56=TRAXQA3|10=238|8=FIXT.1.1|9=60|35=0|34=63|49=QA3TESTID|52=20170713-09:41:33.370|56=TRAXQA3|10=241|8=FIXT.1.1|9=60|35=0|34=64|49=QA3TESTID|52=20170713-09:42:04.373|56=TRAXQA3|10=244|8=FIXT.1.1|9=60|35=0|34=65|49=QA3TESTID|52=20170713-09:42:35.365|56=TRAXQA3|10=250|8=FIXT.1.1|9=60|35=0|34=66|49=QA3TESTID|52=20170713-09:43:05.368|56=TRAXQA3|10=252|8=FIXT.1.1|9=60|35=0|34=67|49=QA3TESTID|52=20170713-09:43:35.370|56=TRAXQA3|10=249|8=FIXT.1.1|9=60|35=0|34=68|49=QA3TESTID|52=20170713-09:44:06.373|56=TRAXQA3|10=252|8=FIXT.1.1|9=60|35=0|34=69|49=QA3TESTID|52=20170713-09:44:37.369|56=TRAXQA3|10=006|8=FIXT.1.1|9=60|35=0|34=70|49=QA3TESTID|52=20170713-09:45:07.374|56=TRAXQA3|10=248|8=FIXT.1.1|9=60|35=0|34=71|49=QA3TESTID|52=20170713-09:45:38.375|56=TRAXQA3|10=254|8=FIXT.1.1|9=60|35=0|34=72|49=QA3TESTID|52=20170713-09:46:09.376|56=TRAXQA3|10=255|8=FIXT.1.1|9=60|35=0|34=73|49=QA3TESTID|52=20170713-09:46:40.369|56=TRAXQA3|10=253|8=FIXT.1.1|9=60|35=0|34=74|49=QA3TESTID|52=20170713-09:47:10.373|56=TRAXQA3|10=247|8=FIXT.1.1|9=60|35=0|34=75|49=QA3TESTID|52=20170713-09:47:41.369|56=TRAXQA3|10=001|8=FIXT.1.1|9=60|35=0|34=76|49=QA3TESTID|52=20170713-09:48:11.374|56=TRAXQA3|10=252|8=FIXT.1.1|9=60|35=0|34=77|49=QA3TESTID|52=20170713-09:48:41.375|56=TRAXQA3|10=001|8=FIXT.1.1|9=60|35=0|34=78|49=QA3TESTID|52=20170713-09:49:12.369|56=TRAXQA3|10=004|8=FIXT.1.1|9=60|35=0|34=79|49=QA3TESTID|52=20170713-09:49:42.373|56=TRAXQA3|10=003|8=FIXT.1.1|9=60|35=0|34=80|49=QA3TESTID|52=20170713-09:50:12.378|56=TRAXQA3|10=245|8=FIXT.1.1|9=60|35=0|34=81|49=QA3TESTID|52=20170713-09:50:43.374|56=TRAXQA3|10=246|8=FIXT.1.1|9=60|35=0|34=82|49=QA3TESTID|52=20170713-09:51:13.376|56=TRAXQA3|10=247|8=FIXT.1.1|9=60|35=0|34=83|49=QA3TESTID|52=20170713-09:51:43.376|56=TRAXQA3|10=251|8=FIXT.1.1|9=60|35=0|34=84|49=QA3TESTID|52=20170713-09:52:13.376|56=TRAXQA3|10=250|8=FIXT.1.1|9=60|35=0|34=85|49=QA3TESTID|52=20170713-09:52:43.377|56=TRAXQA3|10=255|8=FIXT.1.1|9=60|35=0|34=86|49=QA3TESTID|52=20170713-09:53:13.378|56=TRAXQA3|10=255|8=FIXT.1.1|9=60|35=0|34=87|49=QA3TESTID|52=20170713-09:53:43.379|56=TRAXQA3|10=004|8=FIXT.1.1|9=60|35=0|34=88|49=QA3TESTID|52=20170713-09:54:14.379|56=TRAXQA3|10=004|8=FIXT.1.1|9=60|35=0|34=89|49=QA3TESTID|52=20170713-09:54:44.380|56=TRAXQA3|10=000|8=FIXT.1.1|9=60|35=0|34=90|49=QA3TESTID|52=20170713-09:55:14.381|56=TRAXQA3|10=247|8=FIXT.1.1|9=60|35=0|34=91|49=QA3TESTID|52=20170713-09:55:45.354|56=TRAXQA3|10=252|8=FIXT.1.1|9=60|35=0|34=92|49=QA3TESTID|52=20170713-09:56:15.378|56=TRAXQA3|10=001|8=FIXT.1.1|9=60|35=0|34=93|49=QA3TESTID|52=20170713-09:56:46.372|56=TRAXQA3|10=000|8=FIXT.1.1|9=60|35=0|34=94|49=QA3TESTID|52=20170713-09:57:16.380|56=TRAXQA3|10=254|8=FIXT.1.1|9=60|35=0|34=95|49=QA3TESTID|52=20170713-09:57:47.375|56=TRAXQA3|10=007|8=FIXT.1.1|9=60|35=0|34=96|49=QA3TESTID|52=20170713-09:58:17.378|56=TRAXQA3|10=009|8=FIXT.1.1|9=60|35=0|34=97|49=QA3TESTID|52=20170713-09:58:47.382|56=TRAXQA3|10=008|8=FIXT.1.1|9=60|35=0|34=98|49=QA3TESTID|52=20170713-09:59:18.381|56=TRAXQA3|10=007|8=FIXT.1.1|9=60|35=0|34=99|49=QA3TESTID|52=20170713-09:59:49.355|56=TRAXQA3|10=013|8=FIXT.1.1|9=61|35=0|34=100|49=QA3TESTID|52=20170713-10:00:19.379|56=TRAXQA3|10=026|8=FIXT.1.1|9=61|35=0|34=101|49=QA3TESTID|52=20170713-10:00:49.398|56=TRAXQA3|10=031|8=FIXT.1.1|9=61|35=0|34=102|49=QA3TESTID|52=20170713-10:01:19.425|56=TRAXQA3|10=021|8=FIXT.1.1|9=61|35=0|34=103|49=QA3TESTID|52=20170713-10:01:50.379|56=TRAXQA3|10=025|8=FIXT.1.1|9=61|35=0|34=104|49=QA3TESTID|52=20170713-10:02:20.383|56=TRAXQA3|10=019|8=FIXT.1.1|9=61|35=0|34=105|49=QA3TESTID|52=20170713-10:02:51.378|56=TRAXQA3|10=028|8=FIXT.1.1|9=61|35=0|34=106|49=QA3TESTID|52=20170713-10:03:21.384|56=TRAXQA3|10=024|8=FIXT.1.1|9=61|35=0|34=107|49=QA3TESTID|52=20170713-10:03:52.382|56=TRAXQA3|10=027|8=FIXT.1.1|9=61|35=0|34=108|49=QA3TESTID|52=20170713-10:04:23.377|56=TRAXQA3|10=031|8=FIXT.1.1|9=61|35=0|34=109|49=QA3TESTID|52=20170713-10:04:53.377|56=TRAXQA3|10=035|8=FIXT.1.1|9=61|35=0|34=110|49=QA3TESTID|52=20170713-10:05:23.378|56=TRAXQA3|10=026|8=FIXT.1.1|9=61|35=0|34=111|49=QA3TESTID|52=20170713-10:05:54.358|56=TRAXQA3|10=029|8=FIXT.1.1|9=61|35=0|34=112|49=QA3TESTID|52=20170713-10:06:25.357|56=TRAXQA3|10=028|8=FIXT.1.1|9=61|35=0|34=113|49=QA3TESTID|52=20170713-10:06:56.356|56=TRAXQA3|10=032|8=FIXT.1.1|9=61|35=0|34=114|49=QA3TESTID|52=20170713-10:07:27.354|56=TRAXQA3|10=030|8=FIXT.1.1|9=61|35=0|34=115|49=QA3TESTID|52=20170713-10:07:58.353|56=TRAXQA3|10=034|8=FIXT.1.1|9=61|35=0|34=116|49=QA3TESTID|52=20170713-10:08:29.352|56=TRAXQA3|10=033|8=FIXT.1.1|9=408|35=i|34=117|49=QA3TESTID|50=APA|52=20170713-10:08:49.048|56=TRAXQA3|57=APA|117=RMQ1094_1|296=2|302=1|304=1|295=1|299=RQ1094_1|48=AUTOTESTEQT6|22=4|22680=10.45|22683=1|134=6000|62=20170717-08:59:59.000|60=20170713-04:00:00.000|15=EUR|22500=4|22503=100|302=2|304=1|295=1|299=RQ1094_2|48=AUTOTESTEQT6|22=4|22680=111.45|22683=1|134=6555|62=20170717-05:59:59.000|60=20170713-04:00:00.000|15=EUR|22500=4|22503=100|10=125|8=FIXT.1.1|9=61|35=0|34=118|49=QA3TESTID|52=20170713-10:09:19.349|56=TRAXQA3|10=041|8=FIXT.1.1|9=61|35=0|34=119|49=QA3TESTID|52=20170713-10:09:49.374|56=TRAXQA3|10=043|8=FIXT.1.1|9=61|35=0|34=120|49=QA3TESTID|52=20170713-10:10:19.387|56=TRAXQA3|10=028|8=FIXT.1.1|9=61|35=0|34=121|49=QA3TESTID|52=20170713-10:10:50.367|56=TRAXQA3|10=022|8=FIXT.1.1|9=61|35=0|34=122|49=QA3TESTID|52=20170713-10:11:20.371|56=TRAXQA3|10=016|8=FIXT.1.1|9=61|35=0|34=123|49=QA3TESTID|52=20170713-10:11:50.376|56=TRAXQA3|10=025|8=FIXT.1.1|9=61|35=0|34=124|49=QA3TESTID|52=20170713-10:12:21.371|56=TRAXQA3|10=020|8=FIXT.1.1|9=61|35=0|34=125|49=QA3TESTID|52=20170713-10:12:51.375|56=TRAXQA3|10=028|8=FIXT.1.1|9=408|35=i|34=126|49=QA3TESTID|50=APA|52=20170713-10:13:01.052|56=TRAXQA3|57=APA|117=RMQ1094_1|296=2|302=1|304=1|295=1|299=RQ1094_1|48=AUTOTESTEQT6|22=4|22680=10.45|22683=1|134=6000|62=20170717-08:59:59.000|60=20170713-04:00:00.000|15=EUR|22500=4|22503=100|302=2|304=1|295=1|299=RQ1094_2|48=AUTOTESTEQT6|22=4|22680=111.45|22683=1|134=6555|62=20170717-05:59:59.000|60=20170713-04:00:00.000|15=EUR|22500=4|22503=100|10=104|8=FIXT.1.1|9=407|35=i|34=127|49=QA3TESTID|50=APA|52=20170713-10:13:09.843|56=TRAXQA3|57=APA|117=RMQ1094_1|296=2|302=1|304=1|295=1|299=RQ1094_1|48=AUTOTESTEQT6|22=4|22680=10.45|22683=1|134=6000|62=20170717-08:59:59.000|60=20170713-04:00:00.000|15=EUR|22500=4|22503=100|302=2|304=1|295=1|299=RQ1094_2|48=AUTOTESTEQT6|22=4|22680=111.45|22683=1|134=655|62=20170717-05:59:59.000|60=20170713-04:00:00.000|15=EUR|22500=4|22503=100|10=067|8=FIXT.1.1|9=406|35=i|34=128|49=QA3TESTID|50=APA|52=20170713-10:13:17.414|56=TRAXQA3|57=APA|117=RMQ1094_1|296=2|302=1|304=1|295=1|299=RQ1094_1|48=AUTOTESTEQT6|22=4|22680=10.45|22683=1|134=6000|62=20170717-08:59:59.000|60=20170713-04:00:00.000|15=EUR|22500=4|22503=100|302=2|304=1|295=1|299=RQ1094_2|48=AUTOTESTEQT6|22=4|22680=111.45|22683=1|134=65|62=20170717-05:59:59.000|60=20170713-04:00:00.000|15=EUR|22500=4|22503=100|10=007|8=FIXT.1.1|9=404|35=i|34=129|49=QA3TESTID|50=APA|52=20170713-10:13:40.140|56=TRAXQA3|57=APA|117=RMQ1094_1|296=2|302=1|304=1|295=1|299=RQ1094_1|48=AUTOTESTEQT6|22=4|22680=10.45|22683=1|134=60|62=20170717-08:59:59.000|60=20170713-04:00:00.000|15=EUR|22500=4|22503=100|302=2|304=1|295=1|299=RQ1094_2|48=AUTOTESTEQT6|22=4|22680=111.45|22683=1|134=65|62=20170717-05:59:59.000|60=20170713-04:00:00.000|15=EUR|22500=4|22503=100|10=158|8=FIXT.1.1|9=61|35=0|34=130|49=QA3TESTID|52=20170713-10:14:10.375|56=TRAXQA3|10=021|8=FIXT.1.1|9=402|35=i|34=131|49=QA3TESTID|50=APA|52=20170713-10:14:23.463|56=TRAXQA3|57=APA|117=RMQ1094_1|296=2|302=1|304=1|295=1|299=RQ1094_1|48=AUTOTESTEQT6|22=4|22680=10.45|22683=1|134=60|62=20170717-08:59:59.000|60=20170713-04:00:00.000|15=EUR|22500=4|22503=10|302=2|304=1|295=1|299=RQ1094_2|48=AUTOTESTEQT6|22=4|22680=111.45|22683=1|134=65|62=20170717-05:59:59.000|60=20170713-04:00:00.000|15=EUR|22500=4|22503=10|10=063|8=FIXT.1.1|9=61|35=0|34=132|49=QA3TESTID|52=20170713-10:14:54.368|56=TRAXQA3|10=033|8=FIXT.1.1|9=61|35=0|34=133|49=QA3TESTID|52=20170713-10:15:24.372|56=TRAXQA3|10=027|8=FIXT.1.1|9=400|35=i|34=134|49=QA3TESTID|50=APA|52=20170713-10:15:36.657|56=TRAXQA3|57=APA|117=RMQ1094_1|296=2|302=1|304=1|295=1|299=RQ1094_1|48=AUTOTESTEQT6|22=4|22680=10.45|22683=1|134=6|62=20170717-08:59:59.000|60=20170713-04:00:00.000|15=EUR|22500=4|22503=10|302=2|304=1|295=1|299=RQ1094_2|48=AUTOTESTEQT6|22=4|22680=111.45|22683=1|134=6|62=20170717-05:59:59.000|60=20170713-04:00:00.000|15=EUR|22500=4|22503=10|10=229|8=FIXT.1.1|9=61|35=0|34=135|49=QA3TESTID|52=20170713-10:16:07.378|56=TRAXQA3|10=037|8=FIXT.1.1|9=399|35=i|34=136|49=QA3TESTID|50=APA|52=20170713-10:16:31.329|56=TRAXQA3|57=APA|117=RMQ1094_1|296=2|302=1|304=1|295=1|299=RQ1094_1|48=AUTOTESTEQT6|22=4|22680=10.45|22683=1|134=6|62=20170717-08:59:59.000|60=20170713-04:00:00.000|15=EUR|22500=4|22503=10|302=2|304=1|295=1|299=RQ1094_2|48=AUTOTESTEQT6|22=4|22680=11.45|22683=1|134=6|62=20170717-05:59:59.000|60=20170713-04:00:00.000|15=EUR|22500=4|22503=10|10=191|8=FIXT.1.1|9=61|35=0|34=137|49=QA3TESTID|52=20170713-10:17:01.362|56=TRAXQA3|10=027|8=FIXT.1.1|9=61|35=0|34=138|49=QA3TESTID|52=20170713-10:17:31.371|56=TRAXQA3|10=031|8=FIXT.1.1|9=61|35=0|34=139|49=QA3TESTID|52=20170713-10:18:01.373|56=TRAXQA3|10=032|8=FIXT.1.1|9=61|35=0|34=140|49=QA3TESTID|52=20170713-10:18:31.374|56=TRAXQA3|10=028|8=FIXT.1.1|9=399|35=i|34=141|49=QA3TESTID|50=APA|52=20170713-10:18:38.858|56=TRAXQA3|57=APA|117=RMQ1094_1|296=2|302=1|304=1|295=1|299=RQ1094_1|48=AUTOTESTEQT6|22=4|22680=10.45|22683=1|134=6|62=20170717-08:59:59.000|60=20170713-04:00:00.000|15=EUR|22500=4|22503=10|302=2|304=1|295=1|299=RQ1094_2|48=AUTOTESTEQT6|22=4|22680=11.45|22683=1|134=6|62=20170717-05:59:59.000|60=20170713-04:00:00.000|15=EUR|22500=4|22503=10|10=203|8=FIXT.1.1|9=61|35=0|34=142|49=QA3TESTID|52=20170713-10:19:09.376|56=TRAXQA3|10=038|8=FIXT.1.1|9=61|35=0|34=143|49=QA3TESTID|52=20170713-10:19:39.378|56=TRAXQA3|10=044|8=FIXT.1.1|9=61|35=0|34=144|49=QA3TESTID|52=20170713-10:20:09.386|56=TRAXQA3|10=033|8=FIXT.1.1|9=61|35=0|34=145|49=QA3TESTID|52=20170713-10:20:39.391|56=TRAXQA3|10=033|8=FIXT.1.1|9=61|35=0|34=146|49=QA3TESTID|52=20170713-10:21:10.371|56=TRAXQA3|10=022|8=FIXT.1.1|9=61|35=0|34=147|49=QA3TESTID|52=20170713-10:21:40.373|56=TRAXQA3|10=028|8=FIXT.1.1|9=61|35=0|34=148|49=QA3TESTID|52=20170713-10:22:11.377|56=TRAXQA3|10=032|8=FIXT.1.1|9=61|35=0|34=149|49=QA3TESTID|52=20170713-10:22:42.375|56=TRAXQA3|10=035|8=FIXT.1.1|9=61|35=0|34=150|49=QA3TESTID|52=20170713-10:23:13.372|56=TRAXQA3|10=023|8=FIXT.1.1|9=61|35=0|34=151|49=QA3TESTID|52=20170713-10:23:43.373|56=TRAXQA3|10=028|8=FIXT.1.1|9=61|35=0|34=152|49=QA3TESTID|52=20170713-10:24:13.380|56=TRAXQA3|10=025|8=FIXT.1.1|9=61|35=0|34=153|49=QA3TESTID|52=20170713-10:24:43.381|56=TRAXQA3|10=030|8=FIXT.1.1|9=61|35=0|34=154|49=QA3TESTID|52=20170713-10:25:14.364|56=TRAXQA3|10=031|8=FIXT.1.1|9=61|35=0|34=155|49=QA3TESTID|52=20170713-10:25:44.375|56=TRAXQA3|10=037|8=FIXT.1.1|9=61|35=0|34=156|49=QA3TESTID|52=20170713-10:26:14.380|56=TRAXQA3|10=032|8=FIXT.1.1|9=61|35=0|34=157|49=QA3TESTID|52=20170713-10:26:45.356|56=TRAXQA3|10=040|8=FIXT.1.1|9=61|35=0|34=158|49=QA3TESTID|52=20170713-10:27:15.380|56=TRAXQA3|10=036|8=FIXT.1.1|9=61|35=0|34=159|49=QA3TESTID|52=20170713-10:27:45.382|56=TRAXQA3|10=042|8=FIXT.1.1|9=61|35=0|34=160|49=QA3TESTID|52=20170713-10:28:16.357|56=TRAXQA3|10=035|8=FIXT.1.1|9=61|35=0|34=161|49=QA3TESTID|52=20170713-10:28:46.383|56=TRAXQA3|10=038|8=FIXT.1.1|9=61|35=0|34=162|49=QA3TESTID|52=20170713-10:29:17.357|56=TRAXQA3|10=039|8=FIXT.1.1|9=61|35=0|34=163|49=QA3TESTID|52=20170713-10:29:47.382|56=TRAXQA3|10=041|8=FIXT.1.1|9=61|35=0|34=164|49=QA3TESTID|52=20170713-10:30:17.382|56=TRAXQA3|10=031|8=FIXT.1.1|9=61|35=0|34=165|49=QA3TESTID|52=20170713-10:30:48.377|56=TRAXQA3|10=040|8=FIXT.1.1|9=61|35=0|34=166|49=QA3TESTID|52=20170713-10:31:18.383|56=TRAXQA3|10=036|8=FIXT.1.1|9=61|35=0|34=167|49=QA3TESTID|52=20170713-10:31:49.382|56=TRAXQA3|10=040|8=FIXT.1.1|9=61|35=0|34=168|49=QA3TESTID|52=20170713-10:32:19.384|56=TRAXQA3|10=041|8=FIXT.1.1|9=61|35=0|34=169|49=QA3TESTID|52=20170713-10:32:50.385|56=TRAXQA3|10=038|8=FIXT.1.1|9=61|35=0|34=170|49=QA3TESTID|52=20170713-10:33:21.376|56=TRAXQA3|10=029|8=FIXT.1.1|9=61|35=0|34=171|49=QA3TESTID|52=20170713-10:33:51.378|56=TRAXQA3|10=035|8=FIXT.1.1|9=61|35=0|34=172|49=QA3TESTID|52=20170713-10:34:22.379|56=TRAXQA3|10=036|8=FIXT.1.1|9=61|35=0|34=173|49=QA3TESTID|52=20170713-10:34:53.382|56=TRAXQA3|10=035|8=FIXT.1.1|9=61|35=0|34=174|49=QA3TESTID|52=20170713-10:35:24.384|56=TRAXQA3|10=037|8=FIXT.1.1|9=61|35=0|34=175|49=QA3TESTID|52=20170713-10:35:55.359|56=TRAXQA3|10=044|8=FIXT.1.1|9=61|35=0|34=176|49=QA3TESTID|52=20170713-10:36:25.383|56=TRAXQA3|10=040|8=FIXT.1.1|9=61|35=0|34=177|49=QA3TESTID|52=20170713-10:36:56.382|56=TRAXQA3|10=044|8=FIXT.1.1|9=61|35=0|34=178|49=QA3TESTID|52=20170713-10:37:26.386|56=TRAXQA3|10=047|8=FIXT.1.1|9=61|35=0|34=179|49=QA3TESTID|52=20170713-10:37:57.383|56=TRAXQA3|10=049|8=FIXT.1.1|9=61|35=0|34=180|49=QA3TESTID|52=20170713-10:38:27.385|56=TRAXQA3|10=041|8=FIXT.1.1|9=61|35=0|34=181|49=QA3TESTID|52=20170713-10:38:58.360|56=TRAXQA3|10=039|8=FIXT.1.1|9=61|35=0|34=182|49=QA3TESTID|52=20170713-10:39:28.378|56=TRAXQA3|10=047|8=FIXT.1.1|9=61|35=0|34=183|49=QA3TESTID|52=20170713-10:39:58.385|56=TRAXQA3|10=049|8=FIXT.1.1|9=61|35=0|34=184|49=QA3TESTID|52=20170713-10:40:29.381|56=TRAXQA3|10=036|8=FIXT.1.1|9=61|35=0|34=185|49=QA3TESTID|52=20170713-10:41:00.379|56=TRAXQA3|10=034|8=FIXT.1.1|9=61|35=0|34=186|49=QA3TESTID|52=20170713-10:41:30.380|56=TRAXQA3|10=030|8=FIXT.1.1|9=61|35=0|34=187|49=QA3TESTID|52=20170713-10:42:00.380|56=TRAXQA3|10=029|8=FIXT.1.1|9=61|35=0|34=188|49=QA3TESTID|52=20170713-10:42:30.387|56=TRAXQA3|10=040|8=FIXT.1.1|9=61|35=0|34=189|49=QA3TESTID|52=20170713-10:43:01.382|56=TRAXQA3|10=035|8=FIXT.1.1|9=61|35=0|34=190|49=QA3TESTID|52=20170713-10:43:31.383|56=TRAXQA3|10=031|8=FIXT.1.1|9=61|35=0|34=191|49=QA3TESTID|52=20170713-10:44:01.388|56=TRAXQA3|10=035|8=FIXT.1.1|9=61|35=0|34=192|49=QA3TESTID|52=20170713-10:44:32.384|56=TRAXQA3|10=036|8=FIXT.1.1|9=61|35=0|34=193|49=QA3TESTID|52=20170713-10:45:02.386|56=TRAXQA3|10=037|8=FIXT.1.1|9=61|35=0|34=194|49=QA3TESTID|52=20170713-10:45:32.386|56=TRAXQA3|10=041|8=FIXT.1.1|9=61|35=0|34=195|49=QA3TESTID|52=20170713-10:46:03.389|56=TRAXQA3|10=044|8=FIXT.1.1|9=61|35=0|34=196|49=QA3TESTID|52=20170713-10:46:34.388|56=TRAXQA3|10=048|8=FIXT.1.1|9=61|35=0|34=197|49=QA3TESTID|52=20170713-10:47:05.392|56=TRAXQA3|10=043|8=FIXT.1.1|9=61|35=0|34=198|49=QA3TESTID|52=20170713-10:47:36.392|56=TRAXQA3|10=048|8=FIXT.1.1|9=61|35=0|34=199|49=QA3TESTID|52=20170713-10:48:07.389|56=TRAXQA3|10=054|8=FIXT.1.1|9=61|35=0|34=200|49=QA3TESTID|52=20170713-10:48:37.390|56=TRAXQA3|10=032|8=FIXT.1.1|9=61|35=0|34=201|49=QA3TESTID|52=20170713-10:49:08.380|56=TRAXQA3|10=031|8=FIXT.1.1|9=61|35=0|34=202|49=QA3TESTID|52=20170713-10:49:38.386|56=TRAXQA3|10=041|8=FIXT.1.1|9=466|35=AE|34=203|49=QA3TESTID|50=APA|57=APA|52=20170713-10:50:00.376|56=TRAXQA3|571=TradeReport1|487=1|325=Y|423=22|55=[N/A]|48=AUTOTESTEQT6|22=4|32=1000|1003=170713000020101|31=299|60=20170707-11:20:13.370|552=1|54=1|29=1|1041=Trade0020380122|1390=2|22800=22|1934=0|1116=3|1117=81560073185855FCA651|1118=N|1119=116|1117=MAEL|1118=G|1119=73|1117=81560073185855FCA651|1118=N|1119=1|2388=0|15=GBP|120=GBP|1924=1|22600=250|22601=GBP|854=1|231=10|30=XOFF|22801=1|22802=ILQD|10=157|8=FIXT.1.1|9=61|35=0|34=204|49=QA3TESTID|52=20170713-10:50:30.392|56=TRAXQA3|10=024|8=FIXT.1.1|9=61|35=0|34=205|49=QA3TESTID|52=20170713-10:51:00.393|56=TRAXQA3|10=024|8=FIXT.1.1|9=61|35=0|34=206|49=QA3TESTID|52=20170713-10:51:31.391|56=TRAXQA3|10=027|8=FIXT.1.1|9=61|35=0|34=207|49=QA3TESTID|52=20170713-10:52:01.391|56=TRAXQA3|10=026|8=FIXT.1.1|9=61|35=0|34=208|49=QA3TESTID|52=20170713-10:52:32.391|56=TRAXQA3|10=031|8=FIXT.1.1|9=61|35=0|34=209|49=QA3TESTID|52=20170713-10:53:02.392|56=TRAXQA3|10=031|8=FIXT.1.1|9=61|35=0|34=210|49=QA3TESTID|52=20170713-10:53:32.393|56=TRAXQA3|10=027|8=FIXT.1.1|9=61|35=0|34=211|49=QA3TESTID|52=20170713-10:54:03.385|56=TRAXQA3|10=028|8=FIXT.1.1|9=61|35=0|34=212|49=QA3TESTID|52=20170713-10:54:33.393|56=TRAXQA3|10=031|8=FIXT.1.1|9=61|35=0|34=213|49=QA3TESTID|52=20170713-10:55:04.390|56=TRAXQA3|10=028|8=FIXT.1.1|9=61|35=0|34=214|49=QA3TESTID|52=20170713-10:55:35.392|56=TRAXQA3|10=035|8=FIXT.1.1|9=61|35=0|34=215|49=QA3TESTID|52=20170713-10:56:06.386|56=TRAXQA3|10=038|8=FIXT.1.1|9=61|35=0|34=216|49=QA3TESTID|52=20170713-10:56:36.395|56=TRAXQA3|10=042|8=FIXT.1.1|9=61|35=0|34=217|49=QA3TESTID|52=20170713-10:57:07.391|56=TRAXQA3|10=038|8=FIXT.1.1|9=61|35=0|34=218|49=QA3TESTID|52=20170713-10:57:37.396|56=TRAXQA3|10=047|8=FIXT.1.1|9=61|35=0|34=219|49=QA3TESTID|52=20170713-10:58:08.390|56=TRAXQA3|10=041|8=FIXT.1.1|9=61|35=0|34=220|49=QA3TESTID|52=20170713-10:58:39.387|56=TRAXQA3|10=043|8=FIXT.1.1|9=61|35=0|34=221|49=QA3TESTID|52=20170713-10:59:09.389|56=TRAXQA3|10=044|8=FIXT.1.1|9=61|35=0|34=222|49=QA3TESTID|52=20170713-10:59:39.391|56=TRAXQA3|10=041|8=FIXT.1.1|9=61|35=0|34=223|49=QA3TESTID|52=20170713-11:00:09.393|56=TRAXQA3|10=028|8=FIXT.1.1|9=61|35=0|34=224|49=QA3TESTID|52=20170713-11:00:39.394|56=TRAXQA3|10=033|8=FIXT.1.1|9=61|35=0|34=225|49=QA3TESTID|52=20170713-11:01:10.394|56=TRAXQA3|10=024|8=FIXT.1.1|9=61|35=0|34=226|49=QA3TESTID|52=20170713-11:01:41.398|56=TRAXQA3|10=033|8=FIXT.1.1|9=61|35=0|34=227|49=QA3TESTID|52=20170713-11:02:12.391|56=TRAXQA3|10=026|8=FIXT.1.1|9=61|35=0|34=228|49=QA3TESTID|52=20170713-11:02:43.397|56=TRAXQA3|10=037|8=FIXT.1.1|9=445|35=AE|34=229|49=QA3TESTID|50=APA|57=APA|52=20170713-11:02:50.562|56=TRAXQA3|571=TradeReport1|487=0|325=Y|423=22|55=[N/A]|48=AUTOTESTEQT6|22=4|32=1000|31=299|60=20170713-11:20:13.370|552=1|54=1|29=1|1041=Trade0020380122|1390=2|22800=22|1934=0|1116=3|1117=81560073185855FCA651|1118=N|1119=116|1117=MAEL|1118=G|1119=73|1117=81560073185855FCA651|1118=N|1119=1|2388=0|15=GBP|120=GBP|1924=1|22600=250|22601=GBP|854=1|231=10|30=XOFF|22801=1|22802=ILQD|10=181|8=FIXT.1.1|9=445|35=AE|34=230|49=QA3TESTID|50=APA|57=APA|52=20170713-11:03:05.981|56=TRAXQA3|571=TradeReport1|487=0|325=Y|423=22|55=[N/A]|48=AUTOTESTEQT6|22=4|32=1000|31=299|60=20170712-11:20:13.370|552=1|54=1|29=1|1041=Trade0020380123|1390=2|22800=22|1934=0|1116=3|1117=81560073185855FCA651|1118=N|1119=116|1117=MAEL|1118=G|1119=73|1117=81560073185855FCA651|1118=N|1119=1|2388=0|15=GBP|120=GBP|1924=1|22600=250|22601=GBP|854=1|231=10|30=XOFF|22801=1|22802=ILQD|10=179|8=FIXT.1.1|9=61|35=0|34=231|49=QA3TESTID|52=20170713-11:03:36.389|56=TRAXQA3|10=035|8=FIXT.1.1|9=61|35=0|34=232|49=QA3TESTID|52=20170713-11:04:06.391|56=TRAXQA3|10=027|8=FIXT.1.1|9=61|35=0|34=233|49=QA3TESTID|52=20170713-11:04:36.391|56=TRAXQA3|10=031|8=FIXT.1.1|9=445|35=AE|34=234|49=QA3TESTID|50=APA|57=APA|52=20170713-11:04:40.049|56=TRAXQA3|571=TradeReport1|487=0|325=Y|423=22|55=[N/A]|48=AUTOTESTEQT6|22=4|32=1000|31=299|60=20170712-11:20:13.370|552=1|54=1|29=1|1041=Trade0020380124|1390=2|22800=24|1934=0|1116=3|1117=81560073185855FCA651|1118=N|1119=116|1117=MAEL|1118=G|1119=73|1117=81560073185855FCA651|1118=N|1119=1|2388=0|15=GBP|120=GBP|1924=1|22600=250|22601=GBP|854=1|231=10|30=XOFF|22801=1|22802=ILQD|10=181|8=FIXT.1.1|9=61|35=0|34=235|49=QA3TESTID|52=20170713-11:05:10.399|56=TRAXQA3|10=034|8=FIXT.1.1|9=61|35=0|34=236|49=QA3TESTID|52=20170713-11:05:40.399|56=TRAXQA3|10=038|8=FIXT.1.1|9=61|35=0|34=237|49=QA3TESTID|52=20170713-11:06:11.391|56=TRAXQA3|10=030|8=FIXT.1.1|9=61|35=0|34=238|49=QA3TESTID|52=20170713-11:06:41.397|56=TRAXQA3|10=040|8=FIXT.1.1|9=61|35=0|34=239|49=QA3TESTID|52=20170713-11:07:12.372|56=TRAXQA3|10=033|8=FIXT.1.1|9=61|35=0|34=240|49=QA3TESTID|52=20170713-11:07:43.371|56=TRAXQA3|10=028|8=FIXT.1.1|9=61|35=0|34=241|49=QA3TESTID|52=20170713-11:08:14.370|56=TRAXQA3|10=027|8=FIXT.1.1|9=61|35=0|34=242|49=QA3TESTID|52=20170713-11:08:45.368|56=TRAXQA3|10=039|8=FIXT.1.1|9=445|35=AE|34=243|49=QA3TESTID|50=APA|57=APA|52=20170713-11:09:15.094|56=TRAXQA3|571=TradeReport1|487=0|325=Y|423=22|55=[N/A]|48=AUTOTESTEQT6|22=4|32=1000|31=299|60=20170712-11:20:13.370|552=1|54=1|29=1|1041=Trade0020380125|1390=2|22800=25|1934=0|1116=3|1117=81560073185855FCA651|1118=N|1119=116|1117=MAEL|1118=G|1119=73|1117=81560073185855FCA651|1118=N|1119=1|2388=0|15=GBP|120=GBP|1924=1|22600=250|22601=GBP|854=1|231=10|30=XOFF|22801=1|22802=ILQD|10=190|8=FIXT.1.1|9=61|35=0|34=244|49=QA3TESTID|52=20170713-11:09:45.391|56=TRAXQA3|10=038|8=FIXT.1.1|9=61|35=0|34=245|49=QA3TESTID|52=20170713-11:10:15.395|56=TRAXQA3|10=032|8=FIXT.1.1|9=61|35=0|34=246|49=QA3TESTID|52=20170713-11:10:46.387|56=TRAXQA3|10=038|8=FIXT.1.1|9=61|35=0|34=247|49=QA3TESTID|52=20170713-11:11:16.392|56=TRAXQA3|10=033|8=FIXT.1.1|9=61|35=0|34=248|49=QA3TESTID|52=20170713-11:11:46.395|56=TRAXQA3|10=040|8=FIXT.1.1|9=61|35=0|34=249|49=QA3TESTID|52=20170713-11:12:16.397|56=TRAXQA3|10=041|8=FIXT.1.1|9=466|35=AE|34=250|49=QA3TESTID|50=APA|57=APA|52=20170713-11:12:31.360|56=TRAXQA3|571=TradeReport1|487=1|325=Y|423=22|55=[N/A]|48=AUTOTESTEQT6|22=4|32=1000|1003=170713000020106|31=299|60=20170712-11:20:13.370|552=1|54=1|29=1|1041=Trade0020380126|1390=2|22800=25|1934=0|1116=3|1117=81560073185855FCA651|1118=N|1119=116|1117=MAEL|1118=G|1119=73|1117=81560073185855FCA651|1118=N|1119=1|2388=0|15=GBP|120=GBP|1924=1|22600=250|22601=GBP|854=1|231=10|30=XOFF|22801=1|22802=ILQD|10=163|8=FIXT.1.1|9=61|35=0|34=251|49=QA3TESTID|52=20170713-11:13:01.388|56=TRAXQA3|10=029|8=FIXT.1.1|9=61|35=0|34=252|49=QA3TESTID|52=20170713-11:13:31.388|56=TRAXQA3|10=033|8=FIXT.1.1|9=61|35=0|34=253|49=QA3TESTID|52=20170713-11:14:01.390|56=TRAXQA3|10=025|8=FIXT.1.1|9=61|35=0|34=254|49=QA3TESTID|52=20170713-11:14:31.395|56=TRAXQA3|10=034|8=FIXT.1.1|9=61|35=0|34=255|49=QA3TESTID|52=20170713-11:15:02.393|56=TRAXQA3|10=032|8=FIXT.1.1|9=61|35=0|34=256|49=QA3TESTID|52=20170713-11:15:32.398|56=TRAXQA3|10=041|8=FIXT.1.1|9=61|35=0|34=257|49=QA3TESTID|52=20170713-11:16:03.396|56=TRAXQA3|10=039|8=FIXT.1.1|9=61|35=0|34=258|49=QA3TESTID|52=20170713-11:16:34.393|56=TRAXQA3|10=041|8=FIXT.1.1|9=61|35=0|34=259|49=QA3TESTID|52=20170713-11:17:04.399|56=TRAXQA3|10=046|8=FIXT.1.1|9=61|35=0|34=260|49=QA3TESTID|52=20170713-11:17:35.396|56=TRAXQA3|10=039|8=FIXT.1.1|9=61|35=0|34=261|49=QA3TESTID|52=20170713-11:18:06.399|56=TRAXQA3|10=042|8=FIXT.1.1|9=61|35=0|34=262|49=QA3TESTID|52=20170713-11:18:37.391|56=TRAXQA3|10=039|8=FIXT.1.1|9=61|35=0|34=263|49=QA3TESTID|52=20170713-11:19:07.393|56=TRAXQA3|10=040|8=FIXT.1.1|9=61|35=0|34=264|49=QA3TESTID|52=20170713-11:19:37.399|56=TRAXQA3|10=050|8=FIXT.1.1|9=61|35=0|34=265|49=QA3TESTID|52=20170713-11:20:08.396|56=TRAXQA3|10=038|8=FIXT.1.1|9=61|35=0|34=266|49=QA3TESTID|52=20170713-11:20:39.394|56=TRAXQA3|10=041|8=FIXT.1.1|9=61|35=0|34=267|49=QA3TESTID|52=20170713-11:21:09.401|56=TRAXQA3|10=029|8=FIXT.1.1|9=61|35=0|34=268|49=QA3TESTID|52=20170713-11:21:40.400|56=TRAXQA3|10=024|8=FIXT.1.1|9=61|35=0|34=269|49=QA3TESTID|52=20170713-11:22:11.392|56=TRAXQA3|10=034|8=FIXT.1.1|9=61|35=0|34=270|49=QA3TESTID|52=20170713-11:22:41.395|56=TRAXQA3|10=032|8=FIXT.1.1|9=61|35=0|34=271|49=QA3TESTID|52=20170713-11:23:11.395|56=TRAXQA3|10=031|8=FIXT.1.1|9=445|35=AE|34=272|49=QA3TESTID|50=APA|57=APA|52=20170713-11:23:30.175|56=TRAXQA3|571=TradeReport1|487=0|325=Y|423=22|55=[N/A]|48=AUTOTESTEQT6|22=4|32=1000|31=299|60=20170712-11:20:13.370|552=1|54=1|29=1|1041=Trade0020380127|1390=2|22800=25|1934=0|1116=3|1117=81560073185855FCA651|1118=N|1119=116|1117=MAEL|1118=G|1119=73|1117=81560073185855FCA651|1118=N|1119=1|2388=0|15=GBP|120=GBP|1924=1|22600=250|22601=GBP|854=1|231=10|30=XOFF|22801=1|22802=ILQD|10=187|8=FIXT.1.1|9=445|35=AE|34=273|49=QA3TESTID|50=APA|57=APA|52=20170713-11:23:44.130|56=TRAXQA3|571=TradeReport1|487=0|325=Y|423=22|55=[N/A]|48=AUTOTESTEQT6|22=4|32=1000|31=299|60=20170712-11:20:13.370|552=1|54=1|29=1|1041=Trade0020380128|1390=2|22800=24|1934=0|1116=3|1117=81560073185855FCA651|1118=N|1119=116|1117=MAEL|1118=G|1119=73|1117=81560073185855FCA651|1118=N|1119=1|2388=0|15=GBP|120=GBP|1924=1|22600=250|22601=GBP|854=1|231=10|30=XOFF|22801=1|22802=ILQD|10=184|8=FIXT.1.1|9=61|35=0|34=274|49=QA3TESTID|52=20170713-11:24:14.398|56=TRAXQA3|10=041|8=FIXT.1.1|9=61|35=0|34=275|49=QA3TESTID|52=20170713-11:24:45.391|56=TRAXQA3|10=039|8=FIXT.1.1|9=61|35=0|34=276|49=QA3TESTID|52=20170713-11:25:15.394|56=TRAXQA3|10=041|8=FIXT.1.1|9=61|35=0|34=277|49=QA3TESTID|52=20170713-11:25:45.401|56=TRAXQA3|10=034|8=FIXT.1.1|9=61|35=0|34=278|49=QA3TESTID|52=20170713-11:26:15.401|56=TRAXQA3|10=033|8=FIXT.1.1|9=61|35=0|34=279|49=QA3TESTID|52=20170713-11:26:45.437|56=TRAXQA3|10=046|8=FIXT.1.1|9=61|35=0|34=280|49=QA3TESTID|52=20170713-11:27:16.397|56=TRAXQA3|10=042|8=FIXT.1.1|9=61|35=0|34=281|49=QA3TESTID|52=20170713-11:27:46.401|56=TRAXQA3|10=032|8=FIXT.1.1|9=61|35=0|34=282|49=QA3TESTID|52=20170713-11:28:17.396|56=TRAXQA3|10=045|8=FIXT.1.1|9=61|35=0|34=283|49=QA3TESTID|52=20170713-11:28:48.397|56=TRAXQA3|10=051|8=FIXT.1.1|9=61|35=0|34=284|49=QA3TESTID|52=20170713-11:29:18.401|56=TRAXQA3|10=036|8=FIXT.1.1|9=61|35=0|34=285|49=QA3TESTID|52=20170713-11:29:49.404|56=TRAXQA3|10=044|8=FIXT.1.1|9=61|35=0|34=286|49=QA3TESTID|52=20170713-11:30:20.401|56=TRAXQA3|10=023|8=FIXT.1.1|9=61|35=0|34=287|49=QA3TESTID|52=20170713-11:30:50.404|56=TRAXQA3|10=030|8=FIXT.1.1|9=61|35=0|34=288|49=QA3TESTID|52=20170713-11:31:21.398|56=TRAXQA3|10=042|8=FIXT.1.1|9=61|35=0|34=289|49=QA3TESTID|52=20170713-11:31:51.406|56=TRAXQA3|10=036|8=FIXT.1.1|9=61|35=0|34=290|49=QA3TESTID|52=20170713-11:32:22.405|56=TRAXQA3|10=026|8=FIXT.1.1|9=61|35=0|34=291|49=QA3TESTID|52=20170713-11:32:52.407|56=TRAXQA3|10=032|8=FIXT.1.1|9=61|35=0|34=292|49=QA3TESTID|52=20170713-11:33:23.399|56=TRAXQA3|10=042|8=FIXT.1.1|9=61|35=0|34=293|49=QA3TESTID|52=20170713-11:33:53.399|56=TRAXQA3|10=046|8=FIXT.1.1|9=61|35=0|34=294|49=QA3TESTID|52=20170713-11:34:23.406|56=TRAXQA3|10=034|8=FIXT.1.1|9=61|35=0|34=295|49=QA3TESTID|52=20170713-11:34:54.400|56=TRAXQA3|10=033|8=FIXT.1.1|9=61|35=0|34=296|49=QA3TESTID|52=20170713-11:35:25.402|56=TRAXQA3|10=035|8=FIXT.1.1|9=61|35=0|34=297|49=QA3TESTID|52=20170713-11:35:55.407|56=TRAXQA3|10=044|8=FIXT.1.1|9=61|35=0|34=298|49=QA3TESTID|52=20170713-11:36:26.400|56=TRAXQA3|10=037|8=FIXT.1.1|9=61|35=0|34=299|49=QA3TESTID|52=20170713-11:36:56.407|56=TRAXQA3|10=048|8=FIXT.1.1|9=61|35=0|34=300|49=QA3TESTID|52=20170713-11:37:27.401|56=TRAXQA3|10=024|8=FIXT.1.1|9=61|35=0|34=301|49=QA3TESTID|52=20170713-11:37:58.404|56=TRAXQA3|10=032|8=FIXT.1.1|9=61|35=0|34=302|49=QA3TESTID|52=20170713-11:38:29.405|56=TRAXQA3|10=033|8=FIXT.1.1|9=61|35=0|34=303|49=QA3TESTID|52=20170713-11:38:59.405|56=TRAXQA3|10=037|8=FIXT.1.1|9=445|35=AE|34=304|49=QA3TESTID|50=APA|57=APA|52=20170713-11:39:01.398|56=TRAXQA3|571=TradeReport1|487=0|325=Y|423=22|55=[N/A]|48=AUTOTESTEQT6|22=4|32=1000|31=299|60=20170712-11:20:13.370|552=1|54=1|29=1|1041=Trade0020380129|1390=2|22800=22|1934=0|1116=3|1117=81560073185855FCA651|1118=N|1119=116|1117=MAEL|1118=G|1119=73|1117=81560073185855FCA651|1118=N|1119=1|2388=0|15=GBP|120=GBP|1924=1|22600=250|22601=GBP|854=1|231=10|30=XOFF|22801=1|22802=ILQD|10=194|8=FIXT.1.1|9=61|35=0|34=305|49=QA3TESTID|52=20170713-11:39:31.401|56=TRAXQA3|10=026|8=FIXT.1.1|9=61|35=0|34=306|49=QA3TESTID|52=20170713-11:40:02.397|56=TRAXQA3|10=031|8=FIXT.1.1|9=61|35=0|34=307|49=QA3TESTID|52=20170713-11:40:32.407|56=TRAXQA3|10=027|8=FIXT.1.1|9=61|35=0|34=308|49=QA3TESTID|52=20170713-11:41:02.408|56=TRAXQA3|10=027|8=FIXT.1.1|9=61|35=0|34=309|49=QA3TESTID|52=20170713-11:41:32.411|56=TRAXQA3|10=025|8=FIXT.1.1|9=61|35=0|34=310|49=QA3TESTID|52=20170713-11:42:03.409|56=TRAXQA3|10=023|8=FIXT.1.1|9=61|35=0|34=311|49=QA3TESTID|52=20170713-11:42:34.404|56=TRAXQA3|10=023|8=FIXT.1.1|9=61|35=0|34=312|49=QA3TESTID|52=20170713-11:43:05.406|56=TRAXQA3|10=025|8=FIXT.1.1|9=61|35=0|34=313|49=QA3TESTID|52=20170713-11:43:36.409|56=TRAXQA3|10=033|8=FIXT.1.1|9=61|35=0|34=314|49=QA3TESTID|52=20170713-11:44:07.410|56=TRAXQA3|10=025|8=FIXT.1.1|9=61|35=0|34=315|49=QA3TESTID|52=20170713-11:44:38.402|56=TRAXQA3|10=031|8=FIXT.1.1|9=61|35=0|34=316|49=QA3TESTID|52=20170713-11:45:08.410|56=TRAXQA3|10=029|8=FIXT.1.1|9=61|35=0|34=317|49=QA3TESTID|52=20170713-11:45:39.404|56=TRAXQA3|10=037|8=FIXT.1.1|9=61|35=0|34=318|49=QA3TESTID|52=20170713-11:46:09.408|56=TRAXQA3|10=040|8=FIXT.1.1|9=445|35=AE|34=319|49=QA3TESTID|50=APA|57=APA|52=20170713-11:46:13.925|56=TRAXQA3|571=TradeReport1|487=0|325=Y|423=22|55=[N/A]|48=AUTOTESTEQT6|22=4|32=1000|31=299|60=20170712-11:20:13.370|552=1|54=1|29=1|1041=Trade0020380130|1390=2|22800=22|1934=0|1116=3|1117=81560073185855FCA651|1118=N|1119=116|1117=MAEL|1118=G|1119=73|1117=81560073185855FCA651|1118=N|1119=1|2388=0|15=GBP|120=GBP|1924=1|22600=250|22601=GBP|854=1|231=10|30=XOFF|22801=1|22802=ILQD|10=189|8=FIXT.1.1|9=61|35=0|34=320|49=QA3TESTID|52=20170713-11:46:44.390|56=TRAXQA3|10=032|8=FIXT.1.1|9=61|35=0|34=321|49=QA3TESTID|52=20170713-11:47:14.403|56=TRAXQA3|10=026|8=FIXT.1.1|9=61|35=0|34=322|49=QA3TESTID|52=20170713-11:47:44.411|56=TRAXQA3|10=029|8=FIXT.1.1|9=61|35=0|34=323|49=QA3TESTID|52=20170713-11:48:15.385|56=TRAXQA3|10=039|8=FIXT.1.1|9=61|35=0|34=324|49=QA3TESTID|52=20170713-11:48:46.384|56=TRAXQA3|10=043|8=FIXT.1.1|9=61|35=0|34=325|49=QA3TESTID|52=20170713-11:49:17.383|56=TRAXQA3|10=042|8=FIXT.1.1|9=61|35=0|34=326|49=QA3TESTID|52=20170713-11:49:47.400|56=TRAXQA3|10=036|8=FIXT.1.1|9=61|35=0|34=327|49=QA3TESTID|52=20170713-11:50:17.407|56=TRAXQA3|10=033|8=FIXT.1.1|9=61|35=0|34=328|49=QA3TESTID|52=20170713-11:50:47.408|56=TRAXQA3|10=038|8=FIXT.1.1|9=61|35=0|34=329|49=QA3TESTID|52=20170713-11:51:18.403|56=TRAXQA3|10=033|8=FIXT.1.1|9=61|35=0|34=330|49=QA3TESTID|52=20170713-11:51:49.407|56=TRAXQA3|10=033|8=FIXT.1.1|9=61|35=0|34=331|49=QA3TESTID|52=20170713-11:52:20.409|56=TRAXQA3|10=026|8=FIXT.1.1|9=61|35=0|34=332|49=QA3TESTID|52=20170713-11:52:51.409|56=TRAXQA3|10=031|8=FIXT.1.1|9=61|35=0|34=333|49=QA3TESTID|52=20170713-11:53:21.410|56=TRAXQA3|10=022|8=FIXT.1.1|9=447|35=AE|34=334|49=QA3TESTID|50=APA|57=APA|52=20170713-11:53:23.358|56=TRAXQA3|571=TradeReport1|487=0|325=Y|423=22|55=[N/A]|48=AUTOTESTEQT6|22=4|32=10.55|31=10|60=20170707-11:20:13.370|552=1|54=1|29=1|1041=Trade002038012331|1390=2|22800=22|1934=0|1116=3|1117=81560073185855FCA651|1118=N|1119=116|1117=MAEL|1118=G|1119=73|1117=81560073185855FCA651|1118=N|1119=1|2388=0|15=GBP|120=GBP|1924=1|22600=250|22601=GBP|854=1|231=10|30=XOFF|22801=1|22802=ILQD|10=026|8=FIXT.1.1|9=61|35=0|34=335|49=QA3TESTID|52=20170713-11:53:53.403|56=TRAXQA3|10=031|8=FIXT.1.1|9=61|35=0|34=336|49=QA3TESTID|52=20170713-11:54:23.406|56=TRAXQA3|10=033|8=FIXT.1.1|9=61|35=0|34=337|49=QA3TESTID|52=20170713-11:54:53.409|56=TRAXQA3|10=040|8=FIXT.1.1|9=61|35=0|34=338|49=QA3TESTID|52=20170713-11:55:23.411|56=TRAXQA3|10=032|8=FIXT.1.1|9=61|35=0|34=339|49=QA3TESTID|52=20170713-11:55:54.391|56=TRAXQA3|10=044|8=FIXT.1.1|9=443|35=AE|34=340|49=QA3TESTID|50=APA|57=APA|52=20170713-11:56:09.609|56=TRAXQA3|571=TradeRept556|487=0|325=Y|423=22|55=[N/A]|48=AUTOTESTEQT6|22=4|32=8001|31=10.5|60=20170710-11:10:13.370|552=1|54=1|29=2|1041=APA-web004_DeferralType2_01|1934=0|1116=3|1117=2138001YRXK8OT1GR195|1118=N|1119=116|1117=XOFF|1118=G|1119=73|1117=2138001YRXK8OT1GR195|1118=N|1119=1|2388=0|15=GBP|120=GBP|1924=1|22600=2500|22601=GBP|854=1|231=10|30=XOFF|22801=1|22802=ACTX|10=063|8=FIXT.1.1|9=61|35=0|34=341|49=QA3TESTID|52=20170713-11:56:40.406|56=TRAXQA3|10=030|8=FIXT.1.1|9=443|35=AE|34=342|49=QA3TESTID|50=APA|57=APA|52=20170713-11:56:40.892|56=TRAXQA3|571=TradeRept556|487=0|325=Y|423=22|55=[N/A]|48=AUTOTESTEQT6|22=4|32=8001|31=10.5|60=20170710-11:10:13.370|552=1|54=1|29=2|1041=APA-web004_DeferralType2_02|1934=0|1116=3|1117=81560073185855FCA651|1118=N|1119=116|1117=XOFF|1118=G|1119=73|1117=81560073185855FCA651|1118=N|1119=1|2388=0|15=GBP|120=GBP|1924=1|22600=2500|22601=GBP|854=1|231=10|30=XOFF|22801=1|22802=ACTX|10=231|8=FIXT.1.1|9=61|35=0|34=343|49=QA3TESTID|52=20170713-11:57:11.412|56=TRAXQA3|10=028|8=FIXT.1.1|9=61|35=0|34=344|49=QA3TESTID|52=20170713-11:57:42.389|56=TRAXQA3|10=046|8=FIXT.1.1|9=61|35=0|34=345|49=QA3TESTID|52=20170713-11:58:12.393|56=TRAXQA3|10=040|8=FIXT.1.1|9=61|35=0|34=346|49=QA3TESTID|52=20170713-11:58:42.410|56=TRAXQA3|10=034|8=FIXT.1.1|9=61|35=0|34=347|49=QA3TESTID|52=20170713-11:59:13.405|56=TRAXQA3|10=038|8=FIXT.1.1|9=61|35=0|34=348|49=QA3TESTID|52=20170713-11:59:43.405|56=TRAXQA3|10=042|8=FIXT.1.1|9=61|35=0|34=349|49=QA3TESTID|52=20170713-12:00:13.414|56=TRAXQA3|10=027|8=FIXT.1.1|9=61|35=0|34=350|49=QA3TESTID|52=20170713-12:00:44.410|56=TRAXQA3|10=019|8=FIXT.1.1|9=61|35=0|34=351|49=QA3TESTID|52=20170713-12:01:15.407|56=TRAXQA3|10=025|8=FIXT.1.1|9=61|35=0|34=352|49=QA3TESTID|52=20170713-12:01:45.408|56=TRAXQA3|10=030|8=FIXT.1.1|9=61|35=0|34=353|49=QA3TESTID|52=20170713-12:02:15.413|56=TRAXQA3|10=025|8=FIXT.1.1|9=61|35=0|34=354|49=QA3TESTID|52=20170713-12:02:46.413|56=TRAXQA3|10=030|8=FIXT.1.1|9=61|35=0|34=355|49=QA3TESTID|52=20170713-12:03:17.411|56=TRAXQA3|10=028|8=FIXT.1.1|9=61|35=0|34=356|49=QA3TESTID|52=20170713-12:03:47.415|56=TRAXQA3|10=036|8=FIXT.1.1|9=61|35=0|34=357|49=QA3TESTID|52=20170713-12:04:18.415|56=TRAXQA3|10=036|8=FIXT.1.1|9=61|35=0|34=358|49=QA3TESTID|52=20170713-12:04:49.389|56=TRAXQA3|10=051|8=FIXT.1.1|9=61|35=0|34=359|49=QA3TESTID|52=20170713-12:05:19.416|56=TRAXQA3|10=041|8=FIXT.1.1|9=61|35=0|34=360|49=QA3TESTID|52=20170713-12:05:50.408|56=TRAXQA3|10=029|8=FIXT.1.1|9=61|35=0|34=361|49=QA3TESTID|52=20170713-12:06:20.412|56=TRAXQA3|10=023|8=FIXT.1.1|9=61|35=0|34=362|49=QA3TESTID|52=20170713-12:06:51.414|56=TRAXQA3|10=030|8=FIXT.1.1|9=61|35=0|34=363|49=QA3TESTID|52=20170713-12:07:22.411|56=TRAXQA3|10=027|8=FIXT.1.1|9=61|35=0|34=364|49=QA3TESTID|52=20170713-12:07:52.416|56=TRAXQA3|10=036|8=FIXT.1.1|9=61|35=0|34=365|49=QA3TESTID|52=20170713-12:08:23.413|56=TRAXQA3|10=033|8=FIXT.1.1|9=61|35=0|34=366|49=QA3TESTID|52=20170713-12:08:53.414|56=TRAXQA3|10=038|8=FIXT.1.1|9=61|35=0|34=367|49=QA3TESTID|52=20170713-12:09:23.419|56=TRAXQA3|10=042|8=FIXT.1.1|9=61|35=0|34=368|49=QA3TESTID|52=20170713-12:09:54.417|56=TRAXQA3|10=045|8=FIXT.1.1|9=61|35=0|34=369|49=QA3TESTID|52=20170713-12:10:25.418|56=TRAXQA3|10=037|8=FIXT.1.1|9=61|35=0|34=370|49=QA3TESTID|52=20170713-12:10:55.418|56=TRAXQA3|10=032|8=FIXT.1.1|9=61|35=0|34=371|49=QA3TESTID|52=20170713-12:11:26.413|56=TRAXQA3|10=027|8=FIXT.1.1|9=61|35=0|34=372|49=QA3TESTID|52=20170713-12:11:56.416|56=TRAXQA3|10=034|8=FIXT.1.1|9=61|35=0|34=373|49=QA3TESTID|52=20170713-12:12:26.420|56=TRAXQA3|10=028|8=FIXT.1.1|9=61|35=0|34=374|49=QA3TESTID|52=20170713-12:12:57.418|56=TRAXQA3|10=040|8=FIXT.1.1|9=61|35=0|34=375|49=QA3TESTID|52=20170713-12:13:27.421|56=TRAXQA3|10=033|8=FIXT.1.1|9=61|35=0|34=376|49=QA3TESTID|52=20170713-12:13:58.420|56=TRAXQA3|10=037|8=FIXT.1.1|9=61|35=0|34=377|49=QA3TESTID|52=20170713-12:14:28.421|56=TRAXQA3|10=037|8=FIXT.1.1|9=61|35=0|34=378|49=QA3TESTID|52=20170713-12:14:59.421|56=TRAXQA3|10=042|8=FIXT.1.1|9=61|35=0|34=379|49=QA3TESTID|52=20170713-12:15:30.404|56=TRAXQA3|10=034|8=FIXT.1.1|9=61|35=0|34=380|49=QA3TESTID|52=20170713-12:16:00.421|56=TRAXQA3|10=023|8=FIXT.1.1|9=61|35=0|34=381|49=QA3TESTID|52=20170713-12:16:31.421|56=TRAXQA3|10=028|8=FIXT.1.1|9=61|35=0|34=382|49=QA3TESTID|52=20170713-12:17:02.419|56=TRAXQA3|10=035|8=FIXT.1.1|9=61|35=0|34=383|49=QA3TESTID|52=20170713-12:17:33.417|56=TRAXQA3|10=038|8=FIXT.1.1|9=61|35=0|34=384|49=QA3TESTID|52=20170713-12:18:03.419|56=TRAXQA3|10=039|8=FIXT.1.1|9=61|35=0|34=385|49=QA3TESTID|52=20170713-12:18:34.418|56=TRAXQA3|10=043|8=FIXT.1.1|9=61|35=0|34=386|49=QA3TESTID|52=20170713-12:19:04.419|56=TRAXQA3|10=043|8=FIXT.1.1|9=61|35=0|34=387|49=QA3TESTID|52=20170713-12:19:34.419|56=TRAXQA3|10=047|8=FIXT.1.1|9=61|35=0|34=388|49=QA3TESTID|52=20170713-12:20:04.421|56=TRAXQA3|10=030|8=FIXT.1.1|9=61|35=0|34=389|49=QA3TESTID|52=20170713-12:20:35.424|56=TRAXQA3|10=038|8=FIXT.1.1|9=61|35=0|34=390|49=QA3TESTID|52=20170713-12:21:06.418|56=TRAXQA3|10=032|8=FIXT.1.1|9=61|35=0|34=391|49=QA3TESTID|52=20170713-12:21:36.423|56=TRAXQA3|10=032|8=FIXT.1.1|9=61|35=0|34=392|49=QA3TESTID|52=20170713-12:22:07.425|56=TRAXQA3|10=034|8=FIXT.1.1|9=61|35=0|34=393|49=QA3TESTID|52=20170713-12:22:38.423|56=TRAXQA3|10=037|8=FIXT.1.1|9=61|35=0|34=394|49=QA3TESTID|52=20170713-12:23:09.416|56=TRAXQA3|10=039|8=FIXT.1.1|9=61|35=0|34=395|49=QA3TESTID|52=20170713-12:23:39.417|56=TRAXQA3|10=044|8=FIXT.1.1|9=61|35=0|34=396|49=QA3TESTID|52=20170713-12:24:09.420|56=TRAXQA3|10=037|8=FIXT.1.1|9=61|35=0|34=397|49=QA3TESTID|52=20170713-12:24:39.424|56=TRAXQA3|10=045|8=FIXT.1.1|9=61|35=0|34=398|49=QA3TESTID|52=20170713-12:25:09.425|56=TRAXQA3|10=045|8=FIXT.1.1|9=61|35=0|34=399|49=QA3TESTID|52=20170713-12:25:40.419|56=TRAXQA3|10=044|8=FIXT.1.1|9=61|35=0|34=400|49=QA3TESTID|52=20170713-12:26:10.422|56=TRAXQA3|10=019|8=FIXT.1.1|9=61|35=0|34=401|49=QA3TESTID|52=20170713-12:26:41.401|56=TRAXQA3|10=021|8=FIXT.1.1|9=61|35=0|34=402|49=QA3TESTID|52=20170713-12:27:11.426|56=TRAXQA3|10=027|8=FIXT.1.1|9=61|35=0|34=403|49=QA3TESTID|52=20170713-12:27:42.420|56=TRAXQA3|10=026|8=FIXT.1.1|9=61|35=0|34=404|49=QA3TESTID|52=20170713-12:28:12.423|56=TRAXQA3|10=028|8=FIXT.1.1|9=61|35=0|34=405|49=QA3TESTID|52=20170713-12:28:43.422|56=TRAXQA3|10=032|8=FIXT.1.1|9=61|35=0|34=406|49=QA3TESTID|52=20170713-12:29:14.425|56=TRAXQA3|10=035|8=FIXT.1.1|9=61|35=0|34=407|49=QA3TESTID|52=20170713-12:29:45.426|56=TRAXQA3|10=041|8=FIXT.1.1|9=61|35=0|34=408|49=QA3TESTID|52=20170713-12:30:15.426|56=TRAXQA3|10=031|8=FIXT.1.1|9=61|35=0|34=409|49=QA3TESTID|52=20170713-12:30:45.428|56=TRAXQA3|10=037|8=FIXT.1.1|9=61|35=0|34=410|49=QA3TESTID|52=20170713-12:31:16.428|56=TRAXQA3|10=028|8=FIXT.1.1|9=61|35=0|34=411|49=QA3TESTID|52=20170713-12:31:47.430|56=TRAXQA3|10=026|8=FIXT.1.1|9=61|35=0|34=412|49=QA3TESTID|52=20170713-12:32:18.410|56=TRAXQA3|10=024|8=FIXT.1.1|9=61|35=0|34=413|49=QA3TESTID|52=20170713-12:32:49.404|56=TRAXQA3|10=032|8=FIXT.1.1|9=61|35=0|34=414|49=QA3TESTID|52=20170713-12:33:19.429|56=TRAXQA3|10=038|8=FIXT.1.1|9=61|35=0|34=415|49=QA3TESTID|52=20170713-12:33:50.429|56=TRAXQA3|10=034|8=FIXT.1.1|9=61|35=0|34=416|49=QA3TESTID|52=20170713-12:34:21.423|56=TRAXQA3|10=028|8=FIXT.1.1|9=61|35=0|34=417|49=QA3TESTID|52=20170713-12:34:52.422|56=TRAXQA3|10=032|8=FIXT.1.1|9=61|35=0|34=418|49=QA3TESTID|52=20170713-12:35:22.424|56=TRAXQA3|10=033|8=FIXT.1.1|9=61|35=0|34=419|49=QA3TESTID|52=20170713-12:35:52.425|56=TRAXQA3|10=038|8=FIXT.1.1|9=445|35=AE|34=420|49=QA3TESTID|50=APA|57=APA|52=20170713-12:36:04.870|56=TRAXQA3|571=TradeRept556|487=0|325=Y|423=22|55=[N/A]|48=SALTESTCURR2|22=4|32=8001|31=10.5|60=20170710-11:10:13.370|552=1|54=1|29=2|1041=APA-web004_DeferralType2_0101|1934=0|1116=3|1117=81560073185855FCA651|1118=N|1119=116|1117=XOFF|1118=G|1119=73|1117=81560073185855FCA651|1118=N|1119=1|2388=0|15=GBP|120=GBP|1924=1|22600=2500|22601=GBP|854=1|231=10|30=XOFF|22801=1|22802=ACTX|10=054|8=FIXT.1.1|9=445|35=AE|34=421|49=QA3TESTID|50=APA|57=APA|52=20170713-12:36:30.381|56=TRAXQA3|571=TradeRept556|487=0|325=Y|423=22|55=[N/A]|48=AUTOTESTEQT6|22=4|32=8001|31=10.5|60=20170710-11:10:13.370|552=1|54=1|29=2|1041=APA-web004_DeferralType2_0102|1934=0|1116=3|1117=81560073185855FCA651|1118=N|1119=116|1117=XOFF|1118=G|1119=73|1117=81560073185855FCA651|1118=N|1119=1|2388=0|15=GBP|120=GBP|1924=1|22600=2500|22601=GBP|854=1|231=10|30=XOFF|22801=1|22802=ACTX|10=063|8=FIXT.1.1|9=61|35=0|34=422|49=QA3TESTID|52=20170713-12:37:00.428|56=TRAXQA3|10=030|8=FIXT.1.1|9=61|35=0|34=423|49=QA3TESTID|52=20170713-12:37:30.430|56=TRAXQA3|10=027|8=FIXT.1.1|9=445|35=AE|34=424|49=QA3TESTID|50=APA|57=APA|52=20170713-12:37:57.214|56=TRAXQA3|571=TradeRept556|487=0|325=Y|423=22|55=[N/A]|48=AUTOTESTEQT6|22=4|32=8001|31=10.5|60=20170710-11:10:13.370|552=1|54=1|29=2|1041=APA-web004_DeferralType2_0103|1934=0|1116=3|1117=81560073185855FCA651|1118=N|1119=116|1117=MAEL|1118=G|1119=73|1117=81560073185855FCA651|1118=N|1119=1|2388=0|15=GBP|120=GBP|1924=1|22600=2500|22601=GBP|854=1|231=10|30=XOFF|22801=1|22802=ACTX|10=052|8=FIXT.1.1|9=61|35=0|34=425|49=QA3TESTID|52=20170713-12:38:27.431|56=TRAXQA3|10=037|8=FIXT.1.1|9=61|35=0|34=426|49=QA3TESTID|52=20170713-12:38:57.431|56=TRAXQA3|10=041|8=FIXT.1.1|9=61|35=0|34=427|49=QA3TESTID|52=20170713-12:39:28.415|56=TRAXQA3|10=043|8=FIXT.1.1|9=445|35=AE|34=428|49=QA3TESTID|50=APA|57=APA|52=20170713-12:39:45.916|56=TRAXQA3|571=TradeRept556|487=0|325=Y|423=22|55=[N/A]|48=AUTOTESTEQT6|22=4|32=8001|31=10.5|60=20170710-11:10:13.370|552=1|54=1|29=2|1041=APA-web004_DeferralType2_0104|1934=0|1116=3|1117=81560073185855FCA651|1118=N|1119=116|1117=MAEL|1118=G|1119=73|1117=81560073185855FCA651|1118=N|1119=1|2388=0|15=GBP|120=GBP|1924=1|22600=2500|22601=GBP|854=1|231=10|30=XOFF|22801=1|22802=ACTX|10=065|8=FIXT.1.1|9=445|35=AE|34=429|49=QA3TESTID|50=APA|57=APA|52=20170713-12:39:51.008|56=TRAXQA3|571=TradeRept556|487=0|325=Y|423=22|55=[N/A]|48=AUTOTESTEQT6|22=4|32=8001|31=10.5|60=20170710-11:10:13.370|552=1|54=1|29=2|1041=APA-web004_DeferralType2_0105|1934=0|1116=3|1117=81560073185855FCA651|1118=N|1119=116|1117=MAEL|1118=G|1119=73|1117=81560073185855FCA651|1118=N|1119=1|2388=0|15=GBP|120=GBP|1924=1|22600=2500|22601=GBP|854=1|231=10|30=XOFF|22801=1|22802=ACTX|10=056|8=FIXT.1.1|9=445|35=AE|34=430|49=QA3TESTID|50=APA|57=APA|52=20170713-12:39:54.245|56=TRAXQA3|571=TradeRept556|487=0|325=Y|423=22|55=[N/A]|48=AUTOTESTEQT6|22=4|32=8001|31=10.5|60=20170710-11:10:13.370|552=1|54=1|29=2|1041=APA-web004_DeferralType2_0106|1934=0|1116=3|1117=81560073185855FCA651|1118=N|1119=116|1117=MAEL|1118=G|1119=73|1117=81560073185855FCA651|1118=N|1119=1|2388=0|15=GBP|120=GBP|1924=1|22600=2500|22601=GBP|854=1|231=10|30=XOFF|22801=1|22802=ACTX|10=055|8=FIXT.1.1|9=445|35=AE|34=431|49=QA3TESTID|50=APA|57=APA|52=20170713-12:40:00.522|56=TRAXQA3|571=TradeRept556|487=0|325=Y|423=22|55=[N/A]|48=AUTOTESTEQT6|22=4|32=8001|31=10.5|60=20170710-11:10:13.370|552=1|54=1|29=2|1041=APA-web004_DeferralType2_0107|1934=0|1116=3|1117=81560073185855FCA651|1118=N|1119=116|1117=MAEL|1118=G|1119=73|1117=81560073185855FCA651|1118=N|1119=1|2388=0|15=GBP|120=GBP|1924=1|22600=2500|22601=GBP|854=1|231=10|30=XOFF|22801=1|22802=ACTX|10=038|8=FIXT.1.1|9=61|35=0|34=432|49=QA3TESTID|52=20170713-12:40:31.395|56=TRAXQA3|10=032|8=FIXT.1.1|9=61|35=0|34=433|49=QA3TESTID|52=20170713-12:41:01.418|56=TRAXQA3|10=027|8=FIXT.1.1|9=61|35=0|34=434|49=QA3TESTID|52=20170713-12:41:32.407|56=TRAXQA3|10=030|8=FIXT.1.1|9=61|35=0|34=435|49=QA3TESTID|52=20170713-12:42:02.431|56=TRAXQA3|10=026|8=FIXT.1.1|9=448|35=AE|34=436|49=QA3TESTID|50=APA|57=APA|52=20170713-12:42:05.247|56=TRAXQA3|571=TradeReport1|487=0|325=Y|423=22|55=[N/A]|48=AUTOTESTEQT6|22=4|32=1000|31=299|60=20170707-11:20:13.370|552=1|54=1|29=1|1041=Trade0020380121341|1390=2|22800=22|1934=0|1116=3|1117=81560073185855FCA651|1118=N|1119=116|1117=XOFF|1118=G|1119=73|1117=81560073185855FCA651|1118=N|1119=1|2388=0|15=GBP|120=GBP|1924=1|22600=250|22601=GBP|854=1|231=10|30=XOFF|22801=1|22802=ILQD|10=107|8=FIXT.1.1|9=61|35=0|34=437|49=QA3TESTID|52=20170713-12:42:35.430|56=TRAXQA3|10=033|8=FIXT.1.1|9=61|35=0|34=438|49=QA3TESTID|52=20170713-12:43:06.378|56=TRAXQA3|10=044|8=FIXT.1.1|9=61|35=0|34=439|49=QA3TESTID|52=20170713-12:43:36.403|56=TRAXQA3|10=037|8=FIXT.1.1|9=61|35=0|34=440|49=QA3TESTID|52=20170713-12:44:06.432|56=TRAXQA3|10=029|8=FIXT.1.1|9=61|35=0|34=441|49=QA3TESTID|52=20170713-12:44:37.427|56=TRAXQA3|10=038|8=FIXT.1.1|9=61|35=0|34=442|49=QA3TESTID|52=20170713-12:45:07.427|56=TRAXQA3|10=037|8=FIXT.1.1|9=61|35=0|34=443|49=QA3TESTID|52=20170713-12:45:37.430|56=TRAXQA3|10=035|8=FIXT.1.1|9=61|35=0|34=444|49=QA3TESTID|52=20170713-12:46:08.429|56=TRAXQA3|10=043|8=FIXT.1.1|9=61|35=0|34=445|49=QA3TESTID|52=20170713-12:46:38.431|56=TRAXQA3|10=040|8=FIXT.1.1|9=61|35=0|34=446|49=QA3TESTID|52=20170713-12:47:09.408|56=TRAXQA3|10=044|8=FIXT.1.1|9=61|35=0|34=447|49=QA3TESTID|52=20170713-12:47:39.431|56=TRAXQA3|10=044|8=FIXT.1.1|9=61|35=0|34=448|49=QA3TESTID|52=20170713-12:48:10.432|56=TRAXQA3|10=036|8=FIXT.1.1|9=61|35=0|34=449|49=QA3TESTID|52=20170713-12:48:41.428|56=TRAXQA3|10=046|8=FIXT.1.1|9=61|35=0|34=450|49=QA3TESTID|52=20170713-12:49:12.426|56=TRAXQA3|10=035|8=FIXT.1.1|9=61|35=0|34=451|49=QA3TESTID|52=20170713-12:49:42.430|56=TRAXQA3|10=034|8=FIXT.1.1|9=61|35=0|34=452|49=QA3TESTID|52=20170713-12:50:13.431|56=TRAXQA3|10=026|8=FIXT.1.1|9=61|35=0|34=453|49=QA3TESTID|52=20170713-12:50:43.432|56=TRAXQA3|10=031|8=FIXT.1.1|9=61|35=0|34=454|49=QA3TESTID|52=20170713-12:51:14.407|56=TRAXQA3|10=033|8=FIXT.1.1|9=61|35=0|34=455|49=QA3TESTID|52=20170713-12:51:44.428|56=TRAXQA3|10=040|8=FIXT.1.1|9=61|35=0|34=456|49=QA3TESTID|52=20170713-12:52:14.430|56=TRAXQA3|10=032|8=FIXT.1.1|9=61|35=0|34=457|49=QA3TESTID|52=20170713-12:52:45.427|56=TRAXQA3|10=043|8=FIXT.1.1|9=61|35=0|34=458|49=QA3TESTID|52=20170713-12:53:15.432|56=TRAXQA3|10=038|8=FIXT.1.1|9=61|35=0|34=459|49=QA3TESTID|52=20170713-12:53:46.428|56=TRAXQA3|10=048|8=FIXT.1.1|9=61|35=0|34=460|49=QA3TESTID|52=20170713-12:54:17.428|56=TRAXQA3|10=039|8=FIXT.1.1|9=61|35=0|34=461|49=QA3TESTID|52=20170713-12:54:48.429|56=TRAXQA3|10=045|8=FIXT.1.1|9=61|35=0|34=462|49=QA3TESTID|52=20170713-12:55:18.432|56=TRAXQA3|10=038|8=FIXT.1.1|9=446|35=AE|34=463|49=QA3TESTID|50=APA|57=APA|52=20170713-12:55:37.336|56=TRAXQA3|571=TradeReport1|487=0|325=Y|423=22|55=[N/A]|48=AUTOTESTEQT6|22=4|32=18|31=299|60=20170707-11:20:13.370|552=1|54=1|29=1|1041=Trade0020380121342|1390=2|22800=22|1934=0|1116=3|1117=81560073185855FCA651|1118=N|1119=116|1117=XOFF|1118=G|1119=73|1117=81560073185855FCA651|1118=N|1119=1|2388=0|15=GBP|120=GBP|1924=1|22600=250|22601=GBP|854=1|231=10|30=XOFF|22801=1|22802=ILQD|10=026|8=FIXT.1.1|9=61|35=0|34=464|49=QA3TESTID|52=20170713-12:56:07.434|56=TRAXQA3|10=041|8=FIXT.1.1|9=61|35=0|34=465|49=QA3TESTID|52=20170713-12:56:38.405|56=TRAXQA3|10=044|8=FIXT.1.1|9=61|35=0|34=466|49=QA3TESTID|52=20170713-12:57:08.431|56=TRAXQA3|10=042|8=FIXT.1.1|9=61|35=0|34=467|49=QA3TESTID|52=20170713-12:57:38.437|56=TRAXQA3|10=052|8=FIXT.1.1|9=61|35=0|34=468|49=QA3TESTID|52=20170713-12:58:09.436|56=TRAXQA3|10=051|8=FIXT.1.1|9=61|35=0|34=469|49=QA3TESTID|52=20170713-12:58:40.432|56=TRAXQA3|10=043|8=FIXT.1.1|9=61|35=0|34=470|49=QA3TESTID|52=20170713-12:59:11.434|56=TRAXQA3|10=036|8=FIXT.1.1|9=61|35=0|34=471|49=QA3TESTID|52=20170713-12:59:42.437|56=TRAXQA3|10=044|8=FIXT.1.1|9=469|35=AE|34=472|49=QA3TESTID|50=APA|57=APA|52=20170713-12:59:50.137|56=TRAXQA3|571=TradeReport1|487=2|325=Y|423=22|55=[N/A]|48=AUTOTESTEQT6|22=4|32=28|31=299|60=20170707-11:20:13.370|552=1|54=1|29=1|1041=Trade002038012134201|1003=170713000020123|1390=2|22800=22|1934=0|1116=3|1117=81560073185855FCA651|1118=N|1119=116|1117=XOFF|1118=G|1119=73|1117=81560073185855FCA651|1118=N|1119=1|2388=0|15=GBP|120=GBP|1924=1|22600=250|22601=GBP|854=1|231=10|30=XOFF|22801=1|22802=ILQD|10=110|8=FIXT.1.1|9=61|35=0|34=473|49=QA3TESTID|52=20170713-13:00:20.432|56=TRAXQA3|10=024|8=FIXT.1.1|9=61|35=0|34=474|49=QA3TESTID|52=20170713-13:00:50.436|56=TRAXQA3|10=032|8=FIXT.1.1|9=61|35=0|34=475|49=QA3TESTID|52=20170713-13:01:21.434|56=TRAXQA3|10=030|8=FIXT.1.1|9=61|35=0|34=476|49=QA3TESTID|52=20170713-13:01:52.388|56=TRAXQA3|10=043|8=FIXT.1.1|9=61|35=0|34=477|49=QA3TESTID|52=20170713-13:02:22.419|56=TRAXQA3|10=037|8=FIXT.1.1|9=61|35=0|34=478|49=QA3TESTID|52=20170713-13:02:52.433|56=TRAXQA3|10=037|8=FIXT.1.1|9=61|35=0|34=479|49=QA3TESTID|52=20170713-13:03:22.439|56=TRAXQA3|10=042|8=FIXT.1.1|9=61|35=0|34=480|49=QA3TESTID|52=20170713-13:03:53.413|56=TRAXQA3|10=030|8=FIXT.1.1|9=61|35=0|34=481|49=QA3TESTID|52=20170713-13:04:23.433|56=TRAXQA3|10=031|8=FIXT.1.1|9=61|35=0|34=482|49=QA3TESTID|52=20170713-13:04:54.433|56=TRAXQA3|10=036|8=FIXT.1.1|9=61|35=0|34=483|49=QA3TESTID|52=20170713-13:05:25.435|56=TRAXQA3|10=038|8=FIXT.1.1|9=61|35=0|34=484|49=QA3TESTID|52=20170713-13:05:55.440|56=TRAXQA3|10=038|8=FIXT.1.1|9=61|35=0|34=485|49=QA3TESTID|52=20170713-13:06:26.436|56=TRAXQA3|10=043|8=FIXT.1.1|9=61|35=0|34=486|49=QA3TESTID|52=20170713-13:06:57.433|56=TRAXQA3|10=045|8=FIXT.1.1|9=61|35=0|34=487|49=QA3TESTID|52=20170713-13:07:27.434|56=TRAXQA3|10=045|8=FIXT.1.1|9=61|35=0|34=488|49=QA3TESTID|52=20170713-13:07:58.432|56=TRAXQA3|10=048|8=FIXT.1.1|9=61|35=0|34=489|49=QA3TESTID|52=20170713-13:08:28.433|56=TRAXQA3|10=048|8=FIXT.1.1|9=61|35=0|34=490|49=QA3TESTID|52=20170713-13:08:58.435|56=TRAXQA3|10=045|8=FIXT.1.1|9=61|35=0|34=491|49=QA3TESTID|52=20170713-13:09:29.435|56=TRAXQA3|10=045|8=FIXT.1.1|9=61|35=0|34=492|49=QA3TESTID|52=20170713-13:09:59.436|56=TRAXQA3|10=050|8=FIXT.1.1|9=61|35=0|34=493|49=QA3TESTID|52=20170713-13:10:29.439|56=TRAXQA3|10=043|8=FIXT.1.1|9=61|35=0|34=494|49=QA3TESTID|52=20170713-13:10:59.439|56=TRAXQA3|10=047|8=FIXT.1.1|9=61|35=0|34=495|49=QA3TESTID|52=20170713-13:11:29.441|56=TRAXQA3|10=039|8=FIXT.1.1|9=61|35=0|34=496|49=QA3TESTID|52=20170713-13:12:00.439|56=TRAXQA3|10=037|8=FIXT.1.1|9=61|35=0|34=497|49=QA3TESTID|52=20170713-13:12:30.439|56=TRAXQA3|10=041|8=FIXT.1.1|9=61|35=0|34=498|49=QA3TESTID|52=20170713-13:13:00.440|56=TRAXQA3|10=032|8=FIXT.1.1|9=61|35=0|34=499|49=QA3TESTID|52=20170713-13:13:31.436|56=TRAXQA3|10=042|8=FIXT.1.1|9=61|35=0|34=500|49=QA3TESTID|52=20170713-13:14:02.416|56=TRAXQA3|10=022|8=FIXT.1.1|9=61|35=0|34=501|49=QA3TESTID|52=20170713-13:14:32.437|56=TRAXQA3|10=029|8=FIXT.1.1|9=61|35=0|34=502|49=QA3TESTID|52=20170713-13:15:02.439|56=TRAXQA3|10=030|8=FIXT.1.1|9=61|35=0|34=503|49=QA3TESTID|52=20170713-13:15:32.443|56=TRAXQA3|10=029|8=FIXT.1.1|9=61|35=0|34=504|49=QA3TESTID|52=20170713-13:16:03.416|56=TRAXQA3|10=029|8=FIXT.1.1|9=61|35=0|34=505|49=QA3TESTID|52=20170713-13:16:33.435|56=TRAXQA3|10=034|8=FIXT.1.1|9=61|35=0|34=506|49=QA3TESTID|52=20170713-13:17:03.440|56=TRAXQA3|10=029|8=FIXT.1.1|9=61|35=0|34=507|49=QA3TESTID|52=20170713-13:17:34.436|56=TRAXQA3|10=039|8=FIXT.1.1|9=61|35=0|34=508|49=QA3TESTID|52=20170713-13:18:05.443|56=TRAXQA3|10=037|8=FIXT.1.1|9=61|35=0|34=509|49=QA3TESTID|52=20170713-13:18:36.443|56=TRAXQA3|10=042|8=FIXT.1.1|9=61|35=0|34=510|49=QA3TESTID|52=20170713-13:19:07.435|56=TRAXQA3|10=034|8=FIXT.1.1|9=61|35=0|34=511|49=QA3TESTID|52=20170713-13:19:37.440|56=TRAXQA3|10=034|8=FIXT.1.1|9=61|35=0|34=512|49=QA3TESTID|52=20170713-13:20:08.437|56=TRAXQA3|10=031|8=FIXT.1.1|9=61|35=0|34=513|49=QA3TESTID|52=20170713-13:20:38.437|56=TRAXQA3|10=035|8=FIXT.1.1|9=61|35=0|34=514|49=QA3TESTID|52=20170713-13:21:08.438|56=TRAXQA3|10=035|8=FIXT.1.1|9=61|35=0|34=515|49=QA3TESTID|52=20170713-13:21:39.440|56=TRAXQA3|10=033|8=FIXT.1.1|9=61|35=0|34=516|49=QA3TESTID|52=20170713-13:22:09.444|56=TRAXQA3|10=036|8=FIXT.1.1|9=61|35=0|34=517|49=QA3TESTID|52=20170713-13:22:40.445|56=TRAXQA3|10=033|8=FIXT.1.1|9=61|35=0|34=518|49=QA3TESTID|52=20170713-13:23:11.442|56=TRAXQA3|10=030|8=FIXT.1.1|9=61|35=0|34=519|49=QA3TESTID|52=20170713-13:23:41.443|56=TRAXQA3|10=035|8=FIXT.1.1|9=61|35=0|34=520|49=QA3TESTID|52=20170713-13:24:11.444|56=TRAXQA3|10=026|8=FIXT.1.1|9=61|35=0|34=521|49=QA3TESTID|52=20170713-13:24:41.446|56=TRAXQA3|10=032|8=FIXT.1.1|9=61|35=0|34=522|49=QA3TESTID|52=20170713-13:25:12.443|56=TRAXQA3|10=029|8=FIXT.1.1|9=61|35=0|34=523|49=QA3TESTID|52=20170713-13:25:42.447|56=TRAXQA3|10=037|8=FIXT.1.1|9=61|35=0|34=524|49=QA3TESTID|52=20170713-13:26:13.441|56=TRAXQA3|10=031|8=FIXT.1.1|9=61|35=0|34=525|49=QA3TESTID|52=20170713-13:26:43.446|56=TRAXQA3|10=040|8=FIXT.1.1|9=61|35=0|34=526|49=QA3TESTID|52=20170713-13:27:14.442|56=TRAXQA3|10=036|8=FIXT.1.1|9=61|35=0|34=527|49=QA3TESTID|52=20170713-13:27:45.439|56=TRAXQA3|10=047|8=FIXT.1.1|9=61|35=0|34=528|49=QA3TESTID|52=20170713-13:28:15.449|56=TRAXQA3|10=047|8=FIXT.1.1|9=61|35=0|34=529|49=QA3TESTID|52=20170713-13:28:46.441|56=TRAXQA3|10=044|8=FIXT.1.1|9=61|35=0|34=530|49=QA3TESTID|52=20170713-13:29:16.449|56=TRAXQA3|10=042|8=FIXT.1.1|9=61|35=0|34=531|49=QA3TESTID|52=20170713-13:29:46.449|56=TRAXQA3|10=046|8=FIXT.1.1|9=61|35=0|34=532|49=QA3TESTID|52=20170713-13:30:16.450|56=TRAXQA3|10=028|8=FIXT.1.1|9=61|35=0|34=533|49=QA3TESTID|52=20170713-13:30:47.448|56=TRAXQA3|10=040|8=FIXT.1.1|9=61|35=0|34=534|49=QA3TESTID|52=20170713-13:31:18.444|56=TRAXQA3|10=036|8=FIXT.1.1|9=61|35=0|34=535|49=QA3TESTID|52=20170713-13:31:48.446|56=TRAXQA3|10=042|8=FIXT.1.1|9=61|35=0|34=536|49=QA3TESTID|52=20170713-13:32:19.441|56=TRAXQA3|10=037|8=FIXT.1.1|9=61|35=0|34=537|49=QA3TESTID|52=20170713-13:32:49.448|56=TRAXQA3|10=048|8=FIXT.1.1|9=61|35=0|34=538|49=QA3TESTID|52=20170713-13:33:20.443|56=TRAXQA3|10=034|8=FIXT.1.1|9=61|35=0|34=539|49=QA3TESTID|52=20170713-13:33:50.450|56=TRAXQA3|10=036|8=FIXT.1.1|9=61|35=0|34=540|49=QA3TESTID|52=20170713-13:34:21.446|56=TRAXQA3|10=032|8=FIXT.1.1|9=61|35=0|34=541|49=QA3TESTID|52=20170713-13:34:51.446|56=TRAXQA3|10=036|8=FIXT.1.1|9=61|35=0|34=542|49=QA3TESTID|52=20170713-13:35:21.452|56=TRAXQA3|10=032|8=FIXT.1.1|9=61|35=0|34=543|49=QA3TESTID|52=20170713-13:35:52.416|56=TRAXQA3|10=037|8=FIXT.1.1|9=61|35=0|34=544|49=QA3TESTID|52=20170713-13:36:22.448|56=TRAXQA3|10=041|8=FIXT.1.1|9=61|35=0|34=545|49=QA3TESTID|52=20170713-13:36:52.450|56=TRAXQA3|10=038|8=FIXT.1.1|9=61|35=0|34=546|49=QA3TESTID|52=20170713-13:37:23.450|56=TRAXQA3|10=038|8=FIXT.1.1|9=61|35=0|34=547|49=QA3TESTID|52=20170713-13:37:54.453|56=TRAXQA3|10=046|8=FIXT.1.1|9=61|35=0|34=548|49=QA3TESTID|52=20170713-13:38:24.453|56=TRAXQA3|10=045|8=FIXT.1.1|9=61|35=0|34=549|49=QA3TESTID|52=20170713-13:38:54.454|56=TRAXQA3|10=050|8=FIXT.1.1|9=61|35=0|34=550|49=QA3TESTID|52=20170713-13:39:25.453|56=TRAXQA3|10=040|8=FIXT.1.1|9=61|35=0|34=551|49=QA3TESTID|52=20170713-13:39:56.432|56=TRAXQA3|10=042|8=FIXT.1.1|9=61|35=0|34=552|49=QA3TESTID|52=20170713-13:40:26.452|56=TRAXQA3|10=034|8=FIXT.1.1|9=61|35=0|34=553|49=QA3TESTID|52=20170713-13:40:56.454|56=TRAXQA3|10=040|8=FIXT.1.1|9=61|35=0|34=554|49=QA3TESTID|52=20170713-13:41:27.451|56=TRAXQA3|10=037|8=FIXT.1.1|9=61|35=0|34=555|49=QA3TESTID|52=20170713-13:41:57.452|56=TRAXQA3|10=042|8=FIXT.1.1|9=61|35=0|34=556|49=QA3TESTID|52=20170713-13:42:28.455|56=TRAXQA3|10=045|8=FIXT.1.1|9=61|35=0|34=557|49=QA3TESTID|52=20170713-13:42:58.455|56=TRAXQA3|10=049|8=FIXT.1.1|9=61|35=0|34=558|49=QA3TESTID|52=20170713-13:43:29.452|56=TRAXQA3|10=046|8=FIXT.1.1|9=61|35=0|34=559|49=QA3TESTID|52=20170713-13:43:59.456|56=TRAXQA3|10=054|8=FIXT.1.1|9=61|35=0|34=560|49=QA3TESTID|52=20170713-13:44:30.456|56=TRAXQA3|10=036|8=FIXT.1.1|9=61|35=0|34=561|49=QA3TESTID|52=20170713-13:45:01.454|56=TRAXQA3|10=034|8=FIXT.1.1|9=61|35=0|34=562|49=QA3TESTID|52=20170713-13:45:32.449|56=TRAXQA3|10=043|8=FIXT.1.1|9=61|35=0|34=563|49=QA3TESTID|52=20170713-13:46:02.457|56=TRAXQA3|10=041|8=FIXT.1.1|9=61|35=0|34=564|49=QA3TESTID|52=20170713-13:46:33.454|56=TRAXQA3|10=043|8=FIXT.1.1|9=61|35=0|34=565|49=QA3TESTID|52=20170713-13:47:03.454|56=TRAXQA3|10=042|8=FIXT.1.1|9=61|35=0|34=566|49=QA3TESTID|52=20170713-13:47:33.456|56=TRAXQA3|10=048|8=FIXT.1.1|9=61|35=0|34=567|49=QA3TESTID|52=20170713-13:48:03.457|56=TRAXQA3|10=048|8=FIXT.1.1|9=61|35=0|34=568|49=QA3TESTID|52=20170713-13:48:34.452|56=TRAXQA3|10=048|8=FIXT.1.1|9=61|35=0|34=569|49=QA3TESTID|52=20170713-13:49:04.458|56=TRAXQA3|10=053|8=FIXT.1.1|9=61|35=0|34=570|49=QA3TESTID|52=20170713-13:49:35.456|56=TRAXQA3|10=047|8=FIXT.1.1|9=61|35=0|34=571|49=QA3TESTID|52=20170713-13:50:06.458|56=TRAXQA3|10=040|8=FIXT.1.1|9=61|35=0|34=572|49=QA3TESTID|52=20170713-13:50:36.458|56=TRAXQA3|10=044|8=FIXT.1.1|9=61|35=0|34=573|49=QA3TESTID|52=20170713-13:51:07.460|56=TRAXQA3|10=037|8=FIXT.1.1|9=61|35=0|34=574|49=QA3TESTID|52=20170713-13:51:38.455|56=TRAXQA3|10=046|8=FIXT.1.1|9=61|35=0|34=575|49=QA3TESTID|52=20170713-13:52:09.452|56=TRAXQA3|10=043|8=FIXT.1.1|9=61|35=0|34=576|49=QA3TESTID|52=20170713-13:52:39.452|56=TRAXQA3|10=047|8=FIXT.1.1|9=61|35=0|34=577|49=QA3TESTID|52=20170713-13:53:09.452|56=TRAXQA3|10=046|8=FIXT.1.1|9=61|35=0|34=578|49=QA3TESTID|52=20170713-13:53:39.453|56=TRAXQA3|10=051|8=FIXT.1.1|9=61|35=0|34=579|49=QA3TESTID|52=20170713-13:54:09.457|56=TRAXQA3|10=054|8=FIXT.1.1|9=61|35=0|34=580|49=QA3TESTID|52=20170713-13:54:40.458|56=TRAXQA3|10=042|8=FIXT.1.1|9=61|35=0|34=581|49=QA3TESTID|52=20170713-13:55:10.459|56=TRAXQA3|10=042|8=FIXT.1.1|9=61|35=0|34=582|49=QA3TESTID|52=20170713-13:55:40.462|56=TRAXQA3|10=040|8=FIXT.1.1|9=61|35=0|34=583|49=QA3TESTID|52=20170713-13:56:10.462|56=TRAXQA3|10=039|8=FIXT.1.1|9=61|35=0|34=584|49=QA3TESTID|52=20170713-13:56:41.462|56=TRAXQA3|10=044|8=FIXT.1.1|9=61|35=0|34=585|49=QA3TESTID|52=20170713-13:57:12.455|56=TRAXQA3|10=046|8=FIXT.1.1|9=61|35=0|34=586|49=QA3TESTID|52=20170713-13:57:42.461|56=TRAXQA3|10=047|8=FIXT.1.1|9=61|35=0|34=587|49=QA3TESTID|52=20170713-13:58:12.461|56=TRAXQA3|10=046|8=FIXT.1.1|9=61|35=0|34=588|49=QA3TESTID|52=20170713-13:58:42.464|56=TRAXQA3|10=053|8=FIXT.1.1|9=61|35=0|34=589|49=QA3TESTID|52=20170713-13:59:13.460|56=TRAXQA3|10=049|8=FIXT.1.1|9=61|35=0|34=590|49=QA3TESTID|52=20170713-13:59:44.455|56=TRAXQA3|10=049|8=FIXT.1.1|9=61|35=0|34=591|49=QA3TESTID|52=20170713-14:00:14.460|56=TRAXQA3|10=030|8=FIXT.1.1|9=61|35=0|34=592|49=QA3TESTID|52=20170713-14:00:45.460|56=TRAXQA3|10=035|8=FIXT.1.1|9=61|35=0|34=593|49=QA3TESTID|52=20170713-14:01:15.463|56=TRAXQA3|10=037|8=FIXT.1.1|9=61|35=0|34=594|49=QA3TESTID|52=20170713-14:01:45.465|56=TRAXQA3|10=043|8=FIXT.1.1|9=61|35=0|34=595|49=QA3TESTID|52=20170713-14:02:16.465|56=TRAXQA3|10=043|8=FIXT.1.1|9=61|35=0|34=596|49=QA3TESTID|52=20170713-14:02:47.461|56=TRAXQA3|10=044|8=FIXT.1.1|9=61|35=0|34=597|49=QA3TESTID|52=20170713-14:03:17.466|56=TRAXQA3|10=048|8=FIXT.1.1|9=61|35=0|34=598|49=QA3TESTID|52=20170713-14:03:48.458|56=TRAXQA3|10=054|8=FIXT.1.1|9=61|35=0|34=599|49=QA3TESTID|52=20170713-14:04:18.461|56=TRAXQA3|10=047|8=FIXT.1.1|9=61|35=0|34=600|49=QA3TESTID|52=20170713-14:04:49.467|56=TRAXQA3|10=040|8=FIXT.1.1|9=61|35=0|34=601|49=QA3TESTID|52=20170713-14:05:20.458|56=TRAXQA3|10=031|8=FIXT.1.1|9=61|35=0|34=602|49=QA3TESTID|52=20170713-14:05:50.464|56=TRAXQA3|10=032|8=FIXT.1.1|9=61|35=0|34=603|49=QA3TESTID|52=20170713-14:06:20.466|56=TRAXQA3|10=033|8=FIXT.1.1|9=61|35=0|34=604|49=QA3TESTID|52=20170713-14:06:50.468|56=TRAXQA3|10=039|8=FIXT.1.1|9=61|35=0|34=605|49=QA3TESTID|52=20170713-14:07:21.462|56=TRAXQA3|10=033|8=FIXT.1.1|9=61|35=0|34=606|49=QA3TESTID|52=20170713-14:07:52.418|56=TRAXQA3|10=039|8=FIXT.1.1|9=61|35=0|34=607|49=QA3TESTID|52=20170713-14:08:22.459|56=TRAXQA3|10=043|8=FIXT.1.1|9=61|35=0|34=608|49=QA3TESTID|52=20170713-14:08:52.464|56=TRAXQA3|10=043|8=FIXT.1.1|9=61|35=0|34=609|49=QA3TESTID|52=20170713-14:09:22.467|56=TRAXQA3|10=045|8=FIXT.1.1|9=61|35=0|34=610|49=QA3TESTID|52=20170713-14:09:53.465|56=TRAXQA3|10=039|8=FIXT.1.1|9=474|35=AE|34=611|49=QA3TESTID|50=APA|57=APA|52=20170713-14:10:01.869|56=TRAXQA3|571=TradeReport1|487=2|325=Y|423=22|55=[N/A]|48=AUTOTESTEQT6|22=4|32=28|31=299|60=20170707-11:20:13.370|552=1|54=1|29=1|1041=Trade00203801213420123451|1003=170713000020123|1390=2|22800=22|1934=0|1116=3|1117=81560073185855FCA651|1118=N|1119=116|1117=XOFF|1118=G|1119=73|1117=81560073185855FCA651|1118=N|1119=1|2388=0|15=GBP|120=GBP|1924=1|22600=250|22601=GBP|854=1|231=10|30=XOFF|22801=1|22802=ILQD|10=097|8=FIXT.1.1|9=61|35=0|34=612|49=QA3TESTID|52=20170713-14:10:32.467|56=TRAXQA3|10=032|8=FIXT.1.1|9=61|35=0|34=613|49=QA3TESTID|52=20170713-14:11:03.411|56=TRAXQA3|10=021|8=FIXT.1.1|9=61|35=0|34=614|49=QA3TESTID|52=20170713-14:11:33.464|56=TRAXQA3|10=033|8=FIXT.1.1|9=61|35=0|34=615|49=QA3TESTID|52=20170713-14:12:04.464|56=TRAXQA3|10=033|8=FIXT.1.1|9=61|35=0|34=616|49=QA3TESTID|52=20170713-14:12:34.471|56=TRAXQA3|10=035|8=FIXT.1.1|9=61|35=0|34=617|49=QA3TESTID|52=20170713-14:13:05.467|56=TRAXQA3|10=040|8=FIXT.1.1|9=61|35=0|34=618|49=QA3TESTID|52=20170713-14:13:35.472|56=TRAXQA3|10=040|8=FIXT.1.1|9=61|35=0|34=619|49=QA3TESTID|52=20170713-14:14:06.466|56=TRAXQA3|10=043|8=FIXT.1.1|9=61|35=0|34=620|49=QA3TESTID|52=20170713-14:14:36.467|56=TRAXQA3|10=039|8=FIXT.1.1|9=61|35=0|34=621|49=QA3TESTID|52=20170713-14:15:06.468|56=TRAXQA3|10=039|8=FIXT.1.1|9=61|35=0|34=622|49=QA3TESTID|52=20170713-14:15:37.465|56=TRAXQA3|10=041|8=FIXT.1.1|9=61|35=0|34=623|49=QA3TESTID|52=20170713-14:16:07.467|56=TRAXQA3|10=042|8=FIXT.1.1|9=61|35=0|34=624|49=QA3TESTID|52=20170713-14:16:37.473|56=TRAXQA3|10=043|8=FIXT.1.1|9=61|35=0|34=625|49=QA3TESTID|52=20170713-14:17:08.468|56=TRAXQA3|10=047|8=FIXT.1.1|9=61|35=0|34=626|49=QA3TESTID|52=20170713-14:17:39.465|56=TRAXQA3|10=049|8=FIXT.1.1|9=61|35=0|34=627|49=QA3TESTID|52=20170713-14:18:09.471|56=TRAXQA3|10=045|8=FIXT.1.1|9=61|35=0|34=628|49=QA3TESTID|52=20170713-14:18:40.456|56=TRAXQA3|10=044|8=FIXT.1.1|9=61|35=0|34=629|49=QA3TESTID|52=20170713-14:19:10.466|56=TRAXQA3|10=044|8=FIXT.1.1|9=61|35=0|34=630|49=QA3TESTID|52=20170713-14:19:40.471|56=TRAXQA3|10=035|8=FIXT.1.1|9=61|35=0|34=631|49=QA3TESTID|52=20170713-14:20:11.468|56=TRAXQA3|10=032|8=FIXT.1.1|9=61|35=0|34=632|49=QA3TESTID|52=20170713-14:20:41.472|56=TRAXQA3|10=031|8=FIXT.1.1|9=61|35=0|34=633|49=QA3TESTID|52=20170713-14:21:12.467|56=TRAXQA3|10=035|8=FIXT.1.1|9=61|35=0|34=634|49=QA3TESTID|52=20170713-14:21:42.468|56=TRAXQA3|10=040|8=FIXT.1.1|9=61|35=0|34=635|49=QA3TESTID|52=20170713-14:22:12.474|56=TRAXQA3|10=036|8=FIXT.1.1|9=61|35=0|34=636|49=QA3TESTID|52=20170713-14:22:43.469|56=TRAXQA3|10=045|8=FIXT.1.1|9=61|35=0|34=637|49=QA3TESTID|52=20170713-14:23:14.468|56=TRAXQA3|10=044|8=FIXT.1.1|9=61|35=0|34=638|49=QA3TESTID|52=20170713-14:23:44.473|56=TRAXQA3|10=044|8=FIXT.1.1|9=61|35=0|34=639|49=QA3TESTID|52=20170713-14:24:14.473|56=TRAXQA3|10=043|8=FIXT.1.1|9=61|35=0|34=640|49=QA3TESTID|52=20170713-14:24:45.451|56=TRAXQA3|10=035|8=FIXT.1.1|9=61|35=0|34=641|49=QA3TESTID|52=20170713-14:25:15.478|56=TRAXQA3|10=043|8=FIXT.1.1|9=61|35=0|34=642|49=QA3TESTID|52=20170713-14:25:46.473|56=TRAXQA3|10=043|8=FIXT.1.1|9=61|35=0|34=643|49=QA3TESTID|52=20170713-14:26:16.474|56=TRAXQA3|10=043|8=FIXT.1.1|9=61|35=0|34=644|49=QA3TESTID|52=20170713-14:26:46.477|56=TRAXQA3|10=050|8=FIXT.1.1|9=61|35=0|34=645|49=QA3TESTID|52=20170713-14:27:16.477|56=TRAXQA3|10=049|8=FIXT.1.1|9=61|35=0|34=646|49=QA3TESTID|52=20170713-14:27:47.453|56=TRAXQA3|10=048|8=FIXT.1.1|9=61|35=0|34=647|49=QA3TESTID|52=20170713-14:28:18.452|56=TRAXQA3|10=047|8=FIXT.1.1|9=61|35=0|34=648|49=QA3TESTID|52=20170713-14:28:48.474|56=TRAXQA3|10=055|8=FIXT.1.1|9=61|35=0|34=649|49=QA3TESTID|52=20170713-14:29:19.473|56=TRAXQA3|10=054|8=FIXT.1.1|9=61|35=0|34=650|49=QA3TESTID|52=20170713-14:29:49.474|56=TRAXQA3|10=050|8=FIXT.1.1|9=61|35=0|34=651|49=QA3TESTID|52=20170713-14:30:19.478|56=TRAXQA3|10=044|8=FIXT.1.1|9=61|35=0|34=652|49=QA3TESTID|52=20170713-14:30:50.476|56=TRAXQA3|10=038|8=FIXT.1.1|9=61|35=0|34=653|49=QA3TESTID|52=20170713-14:31:20.481|56=TRAXQA3|10=033|8=FIXT.1.1|9=61|35=0|34=654|49=QA3TESTID|52=20170713-14:31:51.476|56=TRAXQA3|10=042|8=FIXT.1.1|9=61|35=0|34=655|49=QA3TESTID|52=20170713-14:32:21.477|56=TRAXQA3|10=042|8=FIXT.1.1|9=61|35=0|34=656|49=QA3TESTID|52=20170713-14:32:52.475|56=TRAXQA3|10=045|8=FIXT.1.1|9=61|35=0|34=657|49=QA3TESTID|52=20170713-14:33:22.481|56=TRAXQA3|10=041|8=FIXT.1.1|9=61|35=0|34=658|49=QA3TESTID|52=20170713-14:33:53.476|56=TRAXQA3|10=050|8=FIXT.1.1|9=61|35=0|34=659|49=QA3TESTID|52=20170713-14:34:23.479|56=TRAXQA3|10=052|8=FIXT.1.1|9=61|35=0|34=660|49=QA3TESTID|52=20170713-14:34:53.480|56=TRAXQA3|10=039|8=FIXT.1.1|9=61|35=0|34=661|49=QA3TESTID|52=20170713-14:35:23.480|56=TRAXQA3|10=038|8=FIXT.1.1|9=61|35=0|34=662|49=QA3TESTID|52=20170713-14:35:54.474|56=TRAXQA3|10=046|8=FIXT.1.1|9=61|35=0|34=663|49=QA3TESTID|52=20170713-14:36:25.473|56=TRAXQA3|10=045|8=FIXT.1.1|9=61|35=0|34=664|49=QA3TESTID|52=20170713-14:36:55.476|56=TRAXQA3|10=052|8=FIXT.1.1|9=61|35=0|34=665|49=QA3TESTID|52=20170713-14:37:26.478|56=TRAXQA3|10=054|8=FIXT.1.1|9=61|35=0|34=666|49=QA3TESTID|52=20170713-14:37:56.480|56=TRAXQA3|10=051|8=FIXT.1.1|9=61|35=0|34=667|49=QA3TESTID|52=20170713-14:38:26.481|56=TRAXQA3|10=051|8=FIXT.1.1|9=61|35=0|34=668|49=QA3TESTID|52=20170713-14:38:57.477|56=TRAXQA3|10=061|8=FIXT.1.1|9=61|35=0|34=669|49=QA3TESTID|52=20170713-14:39:27.480|56=TRAXQA3|10=054|8=FIXT.1.1|9=61|35=0|34=670|49=QA3TESTID|52=20170713-14:39:57.481|56=TRAXQA3|10=050|8=FIXT.1.1|9=61|35=0|34=671|49=QA3TESTID|52=20170713-14:40:28.480|56=TRAXQA3|10=040|8=FIXT.1.1|9=61|35=0|34=672|49=QA3TESTID|52=20170713-14:40:59.478|56=TRAXQA3|10=052|8=FIXT.1.1|9=61|35=0|34=673|49=QA3TESTID|52=20170713-14:41:29.484|56=TRAXQA3|10=048|8=FIXT.1.1|9=61|35=0|34=674|49=QA3TESTID|52=20170713-14:42:00.478|56=TRAXQA3|10=042|8=FIXT.1.1|9=61|35=0|34=675|49=QA3TESTID|52=20170713-14:42:30.483|56=TRAXQA3|10=042|8=FIXT.1.1|9=61|35=0|34=676|49=QA3TESTID|52=20170713-14:43:01.478|56=TRAXQA3|10=046|8=FIXT.1.1|9=61|35=0|34=677|49=QA3TESTID|52=20170713-14:43:31.480|56=TRAXQA3|10=043|8=FIXT.1.1|9=61|35=0|34=678|49=QA3TESTID|52=20170713-14:44:01.485|56=TRAXQA3|10=047|8=FIXT.1.1|9=61|35=0|34=679|49=QA3TESTID|52=20170713-14:44:32.466|56=TRAXQA3|10=051|8=FIXT.1.1|9=61|35=0|34=680|49=QA3TESTID|52=20170713-14:45:02.485|56=TRAXQA3|10=042|8=FIXT.1.1|9=61|35=0|34=681|49=QA3TESTID|52=20170713-14:45:33.415|56=TRAXQA3|10=040|8=FIXT.1.1|9=61|35=0|34=682|49=QA3TESTID|52=20170713-14:46:03.478|56=TRAXQA3|10=048|8=FIXT.1.1|9=61|35=0|34=683|49=QA3TESTID|52=20170713-14:46:33.487|56=TRAXQA3|10=052|8=FIXT.1.1|9=61|35=0|34=684|49=QA3TESTID|52=20170713-14:47:04.486|56=TRAXQA3|10=051|8=FIXT.1.1|9=61|35=0|34=685|49=QA3TESTID|52=20170713-14:47:35.479|56=TRAXQA3|10=058|8=FIXT.1.1|9=61|35=0|34=686|49=QA3TESTID|52=20170713-14:48:05.488|56=TRAXQA3|10=057|8=FIXT.1.1|9=61|35=0|34=687|49=QA3TESTID|52=20170713-14:48:36.485|56=TRAXQA3|10=059|8=FIXT.1.1|9=61|35=0|34=688|49=QA3TESTID|52=20170713-14:49:07.461|56=TRAXQA3|10=053|8=FIXT.1.1|9=61|35=0|34=689|49=QA3TESTID|52=20170713-14:49:37.480|56=TRAXQA3|10=058|8=FIXT.1.1|9=61|35=0|34=690|49=QA3TESTID|52=20170713-14:50:08.465|56=TRAXQA3|10=043|8=FIXT.1.1|9=61|35=0|34=691|49=QA3TESTID|52=20170713-14:50:38.480|56=TRAXQA3|10=044|8=FIXT.1.1|9=61|35=0|34=692|49=QA3TESTID|52=20170713-14:51:09.483|56=TRAXQA3|10=047|8=FIXT.1.1|9=61|35=0|34=693|49=QA3TESTID|52=20170713-14:51:40.481|56=TRAXQA3|10=041|8=FIXT.1.1|9=61|35=0|34=694|49=QA3TESTID|52=20170713-14:52:10.488|56=TRAXQA3|10=047|8=FIXT.1.1|9=61|35=0|34=695|49=QA3TESTID|52=20170713-14:52:40.488|56=TRAXQA3|10=051|8=FIXT.1.1|9=61|35=0|34=696|49=QA3TESTID|52=20170713-14:53:10.488|56=TRAXQA3|10=050|8=FIXT.1.1|9=61|35=0|34=697|49=QA3TESTID|52=20170713-14:53:40.489|56=TRAXQA3|10=055|8=FIXT.1.1|9=61|35=0|34=698|49=QA3TESTID|52=20170713-14:54:11.486|56=TRAXQA3|10=052|8=FIXT.1.1|9=445|35=AE|34=699|49=QA3TESTID|50=APA|57=APA|52=20170713-14:54:29.144|56=TRAXQA3|571=TradeReport1|487=0|325=Y|423=22|55=[N/A]|48=RIMADRVC1DR1|22=4|32=1000|31=299|60=20170404-11:20:13.370|552=1|54=1|29=1|1041=Trade002034_0001|1390=2|22800=7|1934=0|1116=3|1117=81560073185855FCA651|1118=N|1119=116|1117=XOFF|1118=G|1119=73|1117=81560073185855FCA651|1118=N|1119=1|2388=0|15=GBP|120=GBP|1924=1|22600=250|22601=GBP|854=1|231=10|30=XOFF|22801=1|22802=ILQD|10=190|8=FIXT.1.1|9=61|35=0|34=700|49=QA3TESTID|52=20170713-14:54:59.433|56=TRAXQA3|10=040|8=FIXT.1.1|9=61|35=0|34=701|49=QA3TESTID|52=20170713-14:55:29.464|56=TRAXQA3|10=043|8=FIXT.1.1|9=61|35=0|34=702|49=QA3TESTID|52=20170713-14:55:59.489|56=TRAXQA3|10=054|8=FIXT.1.1|9=61|35=0|34=703|49=QA3TESTID|52=20170713-14:56:29.489|56=TRAXQA3|10=053|8=FIXT.1.1|9=61|35=0|34=704|49=QA3TESTID|52=20170713-14:57:00.485|56=TRAXQA3|10=040|8=FIXT.1.1|9=61|35=0|34=705|49=QA3TESTID|52=20170713-14:57:31.491|56=TRAXQA3|10=042|8=FIXT.1.1|9=61|35=0|34=706|49=QA3TESTID|52=20170713-14:58:02.481|56=TRAXQA3|10=041|8=FIXT.1.1|9=61|35=0|34=707|49=QA3TESTID|52=20170713-14:58:32.488|56=TRAXQA3|10=052|8=FIXT.1.1|9=61|35=0|34=708|49=QA3TESTID|52=20170713-14:59:03.460|56=TRAXQA3|10=042|8=FIXT.1.1|9=61|35=0|34=709|49=QA3TESTID|52=20170713-14:59:33.461|56=TRAXQA3|10=047|8=FIXT.1.1|9=61|35=0|34=710|49=QA3TESTID|52=20170713-15:00:03.469|56=TRAXQA3|10=031|8=FIXT.1.1|9=61|35=0|34=711|49=QA3TESTID|52=20170713-15:00:34.460|56=TRAXQA3|10=027|8=FIXT.1.1|9=61|35=0|34=712|49=QA3TESTID|52=20170713-15:01:05.458|56=TRAXQA3|10=034|8=FIXT.1.1|9=445|35=AE|34=713|49=QA3TESTID|50=APA|57=APA|52=20170713-15:01:13.748|56=TRAXQA3|571=TradeReport1|487=0|325=Y|423=22|55=[N/A]|48=RIMADRVC1DR1|22=4|32=1000|31=299|60=20170404-11:20:13.370|552=1|54=1|29=1|1041=Trade002034_0001|1390=2|22800=7|1934=0|1116=3|1117=81560073185855FCA651|1118=N|1119=116|1117=XOFF|1118=G|1119=73|1117=81560073185855FCA651|1118=N|1119=1|2388=0|15=GBP|120=GBP|1924=1|22600=250|22601=GBP|854=1|231=10|30=XOFF|22801=1|22802=ILQD|10=173|8=FIXT.1.1|9=61|35=0|34=714|49=QA3TESTID|52=20170713-15:01:44.397|56=TRAXQA3|10=041|8=FIXT.1.1|9=61|35=0|34=715|49=QA3TESTID|52=20170713-15:02:14.439|56=TRAXQA3|10=037|8=FIXT.1.1|9=61|35=0|34=716|49=QA3TESTID|52=20170713-15:02:45.434|56=TRAXQA3|10=037|8=FIXT.1.1|9=61|35=0|34=717|49=QA3TESTID|52=20170713-15:03:16.403|56=TRAXQA3|10=033|8=FIXT.1.1|9=61|35=0|34=718|49=QA3TESTID|52=20170713-15:03:46.423|56=TRAXQA3|10=039|8=FIXT.1.1|9=61|35=0|34=719|49=QA3TESTID|52=20170713-15:04:17.418|56=TRAXQA3|10=043|8=FIXT.1.1|9=61|35=0|34=720|49=QA3TESTID|52=20170713-15:04:48.408|56=TRAXQA3|10=038|8=FIXT.1.1|9=61|35=0|34=721|49=QA3TESTID|52=20170713-15:05:18.411|56=TRAXQA3|10=031|8=FIXT.1.1|9=440|35=AE|34=722|49=QA3TESTID|50=APA|57=APA|52=20170713-15:05:35.967|56=TRAXQA3|571=TradeReport1|487=0|325=Y|423=22|55=[N/A]|48=RIMADRVC1DR1|22=4|32=1000|31=299|60=20170404-11:20:13.370|552=1|54=1|29=1|1041=Trade002034|1390=2|22800=7|1934=0|1116=3|1117=1K5LZHJ5JD3MJDCQOD47|1118=N|1119=116|1117=XOFF|1118=G|1119=73|1117=1K5LZHJ5JD3MJDCQOD47|1118=N|1119=1|2388=0|15=GBP|120=GBP|1924=1|22600=250|22601=GBP|854=1|231=10|30=XOFF|22801=1|22802=ILQD|10=163|8=FIXT.1.1|9=61|35=0|34=723|49=QA3TESTID|52=20170713-15:06:06.331|56=TRAXQA3|10=032|8=FIXT.1.1|9=61|35=0|34=724|49=QA3TESTID|52=20170713-15:06:36.373|56=TRAXQA3|10=042|8=FIXT.1.1|9=61|35=0|34=725|49=QA3TESTID|52=20170713-15:07:06.400|56=TRAXQA3|10=032|8=FIXT.1.1|9=440|35=AE|34=726|49=QA3TESTID|50=APA|57=APA|52=20170713-15:07:06.580|56=TRAXQA3|571=TradeReport1|487=0|325=Y|423=22|55=[N/A]|48=RIMADRVC1DR1|22=4|32=1000|31=299|60=20170404-11:20:13.370|552=1|54=1|29=1|1041=Trade002034|1390=2|22800=7|1934=0|1116=3|1117=1K5LZHJ5JD3MJDCQOD47|1118=N|1119=116|1117=XOFF|1118=G|1119=73|1117=1K5LZHJ5JD3MJDCQOD47|1118=N|1119=1|2388=0|15=GBP|120=GBP|1924=1|22600=250|22601=GBP|854=1|231=10|30=XOFF|22801=1|22802=ILQD|10=158|8=FIXT.1.1|9=61|35=0|34=727|49=QA3TESTID|52=20170713-15:07:37.327|56=TRAXQA3|10=046|8=FIXT.1.1|9=61|35=0|34=728|49=QA3TESTID|52=20170713-15:08:07.328|56=TRAXQA3|10=046|8=FIXT.1.1|9=61|35=0|34=729|49=QA3TESTID|52=20170713-15:08:37.392|56=TRAXQA3|10=051|8=FIXT.1.1|9=61|35=0|34=730|49=QA3TESTID|52=20170713-15:09:07.399|56=TRAXQA3|10=048|8=FIXT.1.1|9=440|35=AE|34=731|49=QA3TESTID|50=APA|57=APA|52=20170713-15:09:10.435|56=TRAXQA3|571=TradeReport1|487=0|325=Y|423=22|55=[N/A]|48=RIMADRVC1DR1|22=4|32=1000|31=299|60=20170404-11:20:13.370|552=1|54=1|29=1|1041=Trade002034|1390=2|22800=7|1934=0|1116=3|1117=81560073185855FCA651|1118=N|1119=116|1117=XOFF|1118=G|1119=73|1117=81560073185855FCA651|1118=N|1119=1|2388=0|15=GBP|120=GBP|1924=1|22600=250|22601=GBP|854=1|231=10|30=XOFF|22801=1|22802=ILQD|10=134|8=FIXT.1.1|9=445|35=AE|34=732|49=QA3TESTID|50=APA|57=APA|52=20170713-15:09:30.501|56=TRAXQA3|571=TradeReport1|487=0|325=Y|423=22|55=[N/A]|48=AUTOTESTEQT6|22=4|32=1000|31=299|60=20170707-11:20:13.370|552=1|54=1|29=1|1041=Trade0020380121|1390=2|22800=22|1934=0|1116=3|1117=81560073185855FCA651|1118=N|1119=116|1117=MAEL|1118=G|1119=73|1117=81560073185855FCA651|1118=N|1119=1|2388=0|15=GBP|120=GBP|1924=1|22600=250|22601=GBP|854=1|231=10|30=XOFF|22801=1|22802=ILQD|10=184|8=FIXT.1.1|9=61|35=0|34=733|49=QA3TESTID|52=20170713-15:10:01.391|56=TRAXQA3|10=029|8=FIXT.1.1|9=446|35=AE|34=734|49=QA3TESTID|50=APA|57=APA|52=20170713-15:10:17.410|56=TRAXQA3|571=TradeReport1|487=0|325=Y|423=22|55=[N/A]|48=AUTOTESTEQT6|22=4|32=10000|31=299|60=20170707-11:20:13.370|552=1|54=1|29=1|1041=Trade0020380121|1390=2|22800=22|1934=0|1116=3|1117=81560073185855FCA651|1118=N|1119=116|1117=MAEL|1118=G|1119=73|1117=81560073185855FCA651|1118=N|1119=1|2388=0|15=GBP|120=GBP|1924=1|22600=250|22601=GBP|854=1|231=10|30=XOFF|22801=1|22802=ILQD|10=231|8=FIXT.1.1|9=445|35=AE|34=735|49=QA3TESTID|50=APA|57=APA|52=20170713-15:10:27.074|56=TRAXQA3|571=TradeReport1|487=0|325=Y|423=22|55=[N/A]|48=AUTOTESTEQT6|22=4|32=10000|31=299|60=20170707-11:20:13.370|552=1|54=1|29=1|1041=Trade0020380121|1390=2|22800=7|1934=0|1116=3|1117=81560073185855FCA651|1118=N|1119=116|1117=MAEL|1118=G|1119=73|1117=81560073185855FCA651|1118=N|1119=1|2388=0|15=GBP|120=GBP|1924=1|22600=250|22601=GBP|854=1|231=10|30=XOFF|22801=1|22802=ILQD|10=193|8=FIXT.1.1|9=446|35=AE|34=736|49=QA3TESTID|50=APA|57=APA|52=20170713-15:10:36.532|56=TRAXQA3|571=TradeReport1|487=0|325=Y|423=22|55=[N/A]|48=AUTOTESTEQT6|22=4|32=10000|31=299|60=20170707-11:20:13.370|552=1|54=1|29=1|1041=Trade00203801210|1390=2|22800=7|1934=0|1116=3|1117=81560073185855FCA651|1118=N|1119=116|1117=MAEL|1118=G|1119=73|1117=81560073185855FCA651|1118=N|1119=1|2388=0|15=GBP|120=GBP|1924=1|22600=250|22601=GBP|854=1|231=10|30=XOFF|22801=1|22802=ILQD|10=242|8=FIXT.1.1|9=61|35=0|34=737|49=QA3TESTID|52=20170713-15:11:07.316|56=TRAXQA3|10=037|8=FIXT.1.1|9=61|35=0|34=738|49=QA3TESTID|52=20170713-15:11:37.394|56=TRAXQA3|10=047|8=FIXT.1.1|9=61|35=0|34=739|49=QA3TESTID|52=20170713-15:12:08.387|56=TRAXQA3|10=049|8=FIXT.1.1|9=446|35=AE|34=740|49=QA3TESTID|50=APA|57=APA|52=20170713-15:12:16.931|56=TRAXQA3|571=TradeReport1|487=0|325=Y|423=22|55=[N/A]|48=AUTOTESTEQT6|22=4|32=10000|31=299|60=20170707-11:20:13.370|552=1|54=1|29=1|1041=Trade00203801210|1390=2|22800=7|1934=0|1116=3|1117=81560073185855FCA651|1118=N|1119=116|1117=MAEL|1118=G|1119=73|1117=81560073185855FCA651|1118=N|1119=1|2388=0|15=GBP|120=GBP|1924=1|22600=250|22601=GBP|854=1|231=10|30=XOFF|22801=1|22802=ILQD|10=240|8=FIXT.1.1|9=447|35=AE|34=741|49=QA3TESTID|50=APA|57=APA|52=20170713-15:12:24.490|56=TRAXQA3|571=TradeReport1|487=0|325=Y|423=22|55=[N/A]|48=AUTOTESTEQT6|22=4|32=10000|31=299|60=20170707-11:20:13.370|552=1|54=1|29=1|1041=Trade002038012101|1390=2|22800=7|1934=0|1116=3|1117=81560073185855FCA651|1118=N|1119=116|1117=MAEL|1118=G|1119=73|1117=81560073185855FCA651|1118=N|1119=1|2388=0|15=GBP|120=GBP|1924=1|22600=250|22601=GBP|854=1|231=10|30=XOFF|22801=1|22802=ILQD|10=034|8=FIXT.1.1|9=61|35=0|34=742|49=QA3TESTID|52=20170713-15:12:55.325|56=TRAXQA3|10=037|8=FIXT.1.1|9=61|35=0|34=743|49=QA3TESTID|52=20170713-15:13:25.393|56=TRAXQA3|10=041|8=FIXT.1.1|9=61|35=0|34=744|49=QA3TESTID|52=20170713-15:13:56.385|56=TRAXQA3|10=047|8=FIXT.1.1|9=61|35=0|34=745|49=QA3TESTID|52=20170713-15:14:26.385|56=TRAXQA3|10=046|8=FIXT.1.1|9=447|35=AE|34=746|49=QA3TESTID|50=APA|57=APA|52=20170713-15:14:44.490|56=TRAXQA3|571=TradeReport1|487=0|325=Y|423=22|55=[N/A]|48=AUTOTESTEQT6|22=4|32=10000|31=299|60=20170707-11:20:13.370|552=1|54=1|29=1|1041=Trade002038012101|1390=2|22800=7|1934=0|1116=3|1117=81560073185855FCA651|1118=N|1119=116|1117=MAEL|1118=G|1119=73|1117=81560073185855FCA651|1118=N|1119=1|2388=0|15=GBP|120=GBP|1924=1|22600=250|22601=GBP|854=1|231=10|30=XOFF|22801=1|22802=ILQD|10=043|8=FIXT.1.1|9=447|35=AE|34=747|49=QA3TESTID|50=APA|57=APA|52=20170713-15:14:53.451|56=TRAXQA3|571=TradeReport1|487=0|325=Y|423=22|55=[N/A]|48=AUTOTESTEQT6|22=4|32=10000|31=299|60=20170707-11:20:13.370|552=1|54=1|29=1|1041=Trade002038012102|1390=2|22800=7|1934=0|1116=3|1117=81560073185855FCA651|1118=N|1119=116|1117=MAEL|1118=G|1119=73|1117=81560073185855FCA651|1118=N|1119=1|2388=0|15=GBP|120=GBP|1924=1|22600=250|22601=GBP|854=1|231=10|30=XOFF|22801=1|22802=ILQD|10=042|8=FIXT.1.1|9=447|35=AE|34=748|49=QA3TESTID|50=APA|57=APA|52=20170713-15:15:20.269|56=TRAXQA3|571=TradeReport1|487=0|325=Y|423=22|55=[N/A]|48=AUTOTESTEQT6|22=4|32=10000|31=299|60=20170707-11:20:13.370|552=1|54=1|29=1|1041=Trade002038012102|1390=2|22800=6|1934=0|1116=3|1117=81560073185855FCA651|1118=N|1119=116|1117=MAEL|1118=G|1119=73|1117=81560073185855FCA651|1118=N|1119=1|2388=0|15=GBP|120=GBP|1924=1|22600=250|22601=GBP|854=1|231=10|30=XOFF|22801=1|22802=ILQD|10=044|8=FIXT.1.1|9=447|35=AE|34=749|49=QA3TESTID|50=APA|57=APA|52=20170713-15:15:27.628|56=TRAXQA3|571=TradeReport1|487=0|325=Y|423=22|55=[N/A]|48=AUTOTESTEQT6|22=4|32=10000|31=299|60=20170707-11:20:13.370|552=1|54=1|29=1|1041=Trade002038012103|1390=2|22800=6|1934=0|1116=3|1117=81560073185855FCA651|1118=N|1119=116|1117=MAEL|1118=G|1119=73|1117=81560073185855FCA651|1118=N|1119=1|2388=0|15=GBP|120=GBP|1924=1|22600=250|22601=GBP|854=1|231=10|30=XOFF|22801=1|22802=ILQD|10=052|8=FIXT.1.1|9=61|35=0|34=750|49=QA3TESTID|52=20170713-15:15:58.319|56=TRAXQA3|10=045|8=FIXT.1.1|9=447|35=AE|34=751|49=QA3TESTID|50=APA|57=APA|52=20170713-15:16:09.397|56=TRAXQA3|571=TradeReport1|487=0|325=Y|423=22|55=[N/A]|48=AUTOTESTEQT6|22=4|32=10000|31=299|60=20170707-11:20:13.370|552=1|54=1|29=1|1041=Trade002038012104|1390=2|22800=6|1934=0|1116=3|1117=81560073185855FCA651|1118=N|1119=116|1117=MAEL|1118=G|1119=73|1117=81560073185855FCA651|1118=N|1119=1|2388=0|15=GBP|120=GBP|1924=1|22600=250|22601=GBP|854=1|231=10|30=XOFF|22801=1|22802=ILQD|10=050|8=FIXT.1.1|9=447|35=AE|34=752|49=QA3TESTID|50=APA|57=APA|52=20170713-15:16:39.698|56=TRAXQA3|571=TradeReport1|487=0|325=Y|423=22|55=[N/A]|48=AUTOTESTEQT6|22=4|32=10000|31=299|60=20170707-11:20:13.370|552=1|54=1|29=1|1041=Trade002038012105|1390=2|22800=7|1934=0|1116=3|1117=81560073185855FCA651|1118=N|1119=116|1117=MAEL|1118=G|1119=73|1117=81560073185855FCA651|1118=N|1119=1|2388=0|15=GBP|120=GBP|1924=1|22600=250|22601=GBP|854=1|231=10|30=XOFF|22801=1|22802=ILQD|10=060|8=FIXT.1.1|9=61|35=0|34=753|49=QA3TESTID|52=20170713-15:17:10.314|56=TRAXQA3|10=033|8=FIXT.1.1|9=61|35=0|34=754|49=QA3TESTID|52=20170713-15:17:40.316|56=TRAXQA3|10=039|8=FIXT.1.1|9=61|35=0|34=755|49=QA3TESTID|52=20170713-15:18:10.319|56=TRAXQA3|10=041|8=FIXT.1.1|9=61|35=0|34=756|49=QA3TESTID|52=20170713-15:18:40.366|56=TRAXQA3|10=047|8=FIXT.1.1|9=61|35=0|34=757|49=QA3TESTID|52=20170713-15:19:10.389|56=TRAXQA3|10=051|8=FIXT.1.1|9=61|35=0|34=758|49=QA3TESTID|52=20170713-15:19:41.386|56=TRAXQA3|10=053|8=FIXT.1.1|9=447|35=AE|34=759|49=QA3TESTID|50=APA|57=APA|52=20170713-15:19:46.762|56=TRAXQA3|571=TradeReport1|487=0|325=Y|423=22|55=[N/A]|48=AUTOTESTEQT6|22=4|32=10000|31=299|60=20170707-11:20:13.370|552=1|54=1|29=1|1041=Trade002038012106|1390=2|22800=7|1934=0|1116=3|1117=81560073185855FCA651|1118=N|1119=116|1117=MAEL|1118=G|1119=73|1117=81560073185855FCA651|1118=N|1119=1|2388=0|15=GBP|120=GBP|1924=1|22600=250|22601=GBP|854=1|231=10|30=XOFF|22801=1|22802=ILQD|10=061|8=FIXT.1.1|9=61|35=0|34=760|49=QA3TESTID|52=20170713-15:20:17.318|56=TRAXQA3|10=036|8=FIXT.1.1|9=447|35=AE|34=761|49=QA3TESTID|50=APA|57=APA|52=20170713-15:20:41.522|56=TRAXQA3|571=TradeReport1|487=0|325=Y|423=22|55=[N/A]|48=AUTOTESTEQT6|22=4|32=10000|31=299|60=20170503-11:20:13.370|552=1|54=1|29=1|1041=Trade002038012107|1390=2|22800=7|1934=0|1116=3|1117=81560073185855FCA651|1118=N|1119=116|1117=MAEL|1118=G|1119=73|1117=81560073185855FCA651|1118=N|1119=1|2388=0|15=GBP|120=GBP|1924=1|22600=250|22601=GBP|854=1|231=10|30=XOFF|22801=1|22802=ILQD|10=030|8=FIXT.1.1|9=61|35=0|34=762|49=QA3TESTID|52=20170713-15:21:12.309|56=TRAXQA3|10=034|8=FIXT.1.1|9=447|35=AE|34=763|49=QA3TESTID|50=APA|57=APA|52=20170713-15:21:27.823|56=TRAXQA3|571=TradeReport1|487=0|325=Y|423=22|55=[N/A]|48=AUTOTESTEQT6|22=4|32=10000|31=299|60=20170513-11:20:13.370|552=1|54=1|29=1|1041=Trade002038012108|1390=2|22800=7|1934=0|1116=3|1117=81560073185855FCA651|1118=N|1119=116|1117=MAEL|1118=G|1119=73|1117=81560073185855FCA651|1118=N|1119=1|2388=0|15=GBP|120=GBP|1924=1|22600=250|22601=GBP|854=1|231=10|30=XOFF|22801=1|22802=ILQD|10=043|8=FIXT.1.1|9=447|35=AE|34=764|49=QA3TESTID|50=APA|57=APA|52=20170713-15:21:54.121|56=TRAXQA3|571=TradeReport1|487=0|325=Y|423=22|55=[N/A]|48=AUTOTESTEQT6|22=4|32=10000|31=299|60=20170511-11:20:13.370|552=1|54=1|29=1|1041=Trade002038012109|1390=2|22800=7|1934=0|1116=3|1117=81560073185855FCA651|1118=N|1119=116|1117=MAEL|1118=G|1119=73|1117=81560073185855FCA651|1118=N|1119=1|2388=0|15=GBP|120=GBP|1924=1|22600=250|22601=GBP|854=1|231=10|30=XOFF|22801=1|22802=ILQD|10=034|8=FIXT.1.1|9=447|35=AE|34=765|49=QA3TESTID|50=APA|57=APA|52=20170713-15:22:03.163|56=TRAXQA3|571=TradeReport1|487=0|325=Y|423=22|55=[N/A]|48=AUTOTESTEQT6|22=4|32=10000|31=299|60=20170511-11:20:13.370|552=1|54=1|29=1|1041=Trade002038012110|1390=2|22800=7|1934=0|1116=3|1117=81560073185855FCA651|1118=N|1119=116|1117=MAEL|1118=G|1119=73|1117=81560073185855FCA651|1118=N|1119=1|2388=0|15=GBP|120=GBP|1924=1|22600=250|22601=GBP|854=1|231=10|30=XOFF|22801=1|22802=ILQD|10=028|8=FIXT.1.1|9=61|35=0|34=766|49=QA3TESTID|52=20170713-15:22:33.297|56=TRAXQA3|10=048|8=FIXT.1.1|9=61|35=0|34=767|49=QA3TESTID|52=20170713-15:23:03.322|56=TRAXQA3|10=036|8=FIXT.1.1|9=61|35=0|34=768|49=QA3TESTID|52=20170713-15:23:33.389|56=TRAXQA3|10=053|8=FIXT.1.1|9=61|35=0|34=769|49=QA3TESTID|52=20170713-15:24:04.387|56=TRAXQA3|10=051|8=FIXT.1.1|9=61|35=0|34=770|49=QA3TESTID|52=20170713-15:24:35.366|56=TRAXQA3|10=044|8=FIXT.1.1|9=61|35=0|34=771|49=QA3TESTID|52=20170713-15:25:06.364|56=TRAXQA3|10=042|8=FIXT.1.1|9=447|35=AE|34=772|49=QA3TESTID|50=APA|57=APA|52=20170713-15:25:24.576|56=TRAXQA3|571=TradeReport1|487=0|325=Y|423=22|55=[N/A]|48=AUTOTESTEQT6|22=4|32=10000|31=299|60=20160511-11:20:13.370|552=1|54=1|29=1|1041=Trade002038012111|1390=2|22800=7|1934=0|1116=3|1117=81560073185855FCA651|1118=N|1119=116|1117=MAEL|1118=G|1119=73|1117=81560073185855FCA651|1118=N|1119=1|2388=0|15=GBP|120=GBP|1924=1|22600=250|22601=GBP|854=1|231=10|30=XOFF|22801=1|22802=ILQD|10=040|8=FIXT.1.1|9=447|35=AE|34=773|49=QA3TESTID|50=APA|57=APA|52=20170713-15:25:28.936|56=TRAXQA3|571=TradeReport1|487=0|325=Y|423=22|55=[N/A]|48=AUTOTESTEQT6|22=4|32=10000|31=299|60=20160511-11:20:13.370|552=1|54=1|29=1|1041=Trade002038012112|1390=2|22800=7|1934=0|1116=3|1117=81560073185855FCA651|1118=N|1119=116|1117=MAEL|1118=G|1119=73|1117=81560073185855FCA651|1118=N|1119=1|2388=0|15=GBP|120=GBP|1924=1|22600=250|22601=GBP|854=1|231=10|30=XOFF|22801=1|22802=ILQD|10=046|8=FIXT.1.1|9=447|35=AE|34=774|49=QA3TESTID|50=APA|57=APA|52=20170713-15:25:33.703|56=TRAXQA3|571=TradeReport1|487=0|325=Y|423=22|55=[N/A]|48=AUTOTESTEQT6|22=4|32=10000|31=299|60=20160511-11:20:13.370|552=1|54=1|29=1|1041=Trade002038012113|1390=2|22800=7|1934=0|1116=3|1117=81560073185855FCA651|1118=N|1119=116|1117=MAEL|1118=G|1119=73|1117=81560073185855FCA651|1118=N|1119=1|2388=0|15=GBP|120=GBP|1924=1|22600=250|22601=GBP|854=1|231=10|30=XOFF|22801=1|22802=ILQD|10=036|8=FIXT.1.1|9=61|35=0|34=775|49=QA3TESTID|52=20170713-15:26:04.342|56=TRAXQA3|10=041|8=FIXT.1.1|9=61|35=0|34=776|49=QA3TESTID|52=20170713-15:26:34.362|56=TRAXQA3|10=047|8=FIXT.1.1|9=61|35=0|34=777|49=QA3TESTID|52=20170713-15:27:04.380|56=TRAXQA3|10=046|8=FIXT.1.1|9=61|35=0|34=778|49=QA3TESTID|52=20170713-15:27:34.389|56=TRAXQA3|10=059|8=FIXT.1.1|9=447|35=AE|34=779|49=QA3TESTID|50=APA|57=APA|52=20170713-15:27:35.736|56=TRAXQA3|571=TradeReport1|487=0|325=Y|423=22|55=[N/A]|48=AUTOTESTEQT6|22=4|32=10000|31=299|60=20170101-11:20:13.370|552=1|54=1|29=1|1041=Trade002038012114|1390=2|22800=7|1934=0|1116=3|1117=81560073185855FCA651|1118=N|1119=116|1117=MAEL|1118=G|1119=73|1117=81560073185855FCA651|1118=N|1119=1|2388=0|15=GBP|120=GBP|1924=1|22600=250|22601=GBP|854=1|231=10|30=XOFF|22801=1|22802=ILQD|10=048|8=FIXT.1.1|9=447|35=AE|34=780|49=QA3TESTID|50=APA|57=APA|52=20170713-15:27:48.438|56=TRAXQA3|571=TradeReport1|487=0|325=Y|423=22|55=[N/A]|48=AUTOTESTEQT6|22=4|32=10000|31=299|60=20170101-11:20:13.370|552=1|54=1|29=1|1041=Trade002038012115|1390=2|22800=7|1934=0|1116=3|1117=81560073185855FCA651|1118=N|1119=116|1117=MAEL|1118=G|1119=73|1117=81560073185855FCA651|1118=N|1119=1|2388=0|15=GBP|120=GBP|1924=1|22600=250|22601=GBP|854=1|231=10|30=XOFF|22801=1|22802=ILQD|10=044|8=FIXT.1.1|9=447|35=AE|34=781|49=QA3TESTID|50=APA|57=APA|52=20170713-15:27:52.452|56=TRAXQA3|571=TradeReport1|487=0|325=Y|423=22|55=[N/A]|48=AUTOTESTEQT6|22=4|32=10000|31=299|60=20170101-11:20:13.370|552=1|54=1|29=1|1041=Trade002038012116|1390=2|22800=7|1934=0|1116=3|1117=81560073185855FCA651|1118=N|1119=116|1117=MAEL|1118=G|1119=73|1117=81560073185855FCA651|1118=N|1119=1|2388=0|15=GBP|120=GBP|1924=1|22600=250|22601=GBP|854=1|231=10|30=XOFF|22801=1|22802=ILQD|10=037|8=FIXT.1.1|9=61|35=0|34=782|49=QA3TESTID|52=20170713-15:28:23.308|56=TRAXQA3|10=044|8=FIXT.1.1|9=61|35=0|34=783|49=QA3TESTID|52=20170713-15:28:53.361|56=TRAXQA3|10=047|8=FIXT.1.1|9=61|35=0|34=784|49=QA3TESTID|52=20170713-15:29:23.382|56=TRAXQA3|10=049|8=FIXT.1.1|9=61|35=0|34=785|49=QA3TESTID|52=20170713-15:29:53.385|56=TRAXQA3|10=056|8=FIXT.1.1|9=61|35=0|34=786|49=QA3TESTID|52=20170713-15:30:24.360|56=TRAXQA3|10=040|8=FIXT.1.1|9=61|35=0|34=787|49=QA3TESTID|52=20170713-15:30:54.386|56=TRAXQA3|10=052|8=FIXT.1.1|9=61|35=0|34=788|49=QA3TESTID|52=20170713-15:31:25.384|56=TRAXQA3|10=050|8=FIXT.1.1|9=61|35=0|34=789|49=QA3TESTID|52=20170713-15:31:56.359|56=TRAXQA3|10=057|8=FIXT.1.1|9=61|35=0|34=790|49=QA3TESTID|52=20170713-15:32:26.381|56=TRAXQA3|10=042|8=FIXT.1.1|9=61|35=0|34=791|49=QA3TESTID|52=20170713-15:32:57.383|56=TRAXQA3|10=049|8=FIXT.1.1|9=61|35=0|34=792|49=QA3TESTID|52=20170713-15:33:28.381|56=TRAXQA3|10=047|8=FIXT.1.1|9=61|35=0|34=793|49=QA3TESTID|52=20170713-15:33:58.993|56=TRAXQA3|10=060|8=FIXT.1.1|9=61|35=0|34=794|49=QA3TESTID|52=20170713-15:34:29.306|56=TRAXQA3|10=048|8=FIXT.1.1|9=61|35=0|34=795|49=QA3TESTID|52=20170713-15:34:59.358|56=TRAXQA3|10=059|8=FIXT.1.1|9=61|35=0|34=796|49=QA3TESTID|52=20170713-15:35:29.377|56=TRAXQA3|10=059|8=FIXT.1.1|9=61|35=0|34=797|49=QA3TESTID|52=20170713-15:35:59.377|56=TRAXQA3|10=063|8=FIXT.1.1|9=61|35=0|34=798|49=QA3TESTID|52=20170713-15:36:30.383|56=TRAXQA3|10=051|8=FIXT.1.1|9=61|35=0|34=799|49=QA3TESTID|52=20170713-15:37:01.357|56=TRAXQA3|10=052|8=FIXT.1.1|9=61|35=0|34=800|49=QA3TESTID|52=20170713-15:37:31.379|56=TRAXQA3|10=042|8=FIXT.1.1|9=61|35=0|34=801|49=QA3TESTID|52=20170713-15:38:01.379|56=TRAXQA3|10=041|8=FIXT.1.1|9=61|3