8=FIXT.1.1|9=103|35=A|34=1|49=APAQA2_Verion5|52=20180329-15:35:34.976|56=TRAX|98=0|108=30|95=8|96=2.0.0rc4|141=Y|1137=9|10=096|8=FIXT.1.1|9=103|35=A|34=1|49=APAQA2_Verion5|52=20180329-15:59:54.570|56=TRAX|98=0|108=30|95=8|96=2.0.0rc4|141=Y|1137=9|10=094|8=FIXT.1.1|9=103|35=A|34=1|49=APAQA2_Verion5|52=20180329-15:59:59.533|56=TRAX|98=0|108=30|95=8|96=2.0.0rc4|141=Y|1137=9|10=098|8=FIXT.1.1|9=103|35=A|34=1|49=APAQA2_Verion5|52=20180403-08:13:06.803|56=TRAX|98=0|108=30|95=8|96=2.0.0rc4|141=Y|1137=9|10=075|8=FIXT.1.1|9=61|35=0|34=2|49=APAQA2_Verion5|52=20180403-08:13:37.754|56=TRAX|10=006|8=FIXT.1.1|9=61|35=0|34=3|49=APAQA2_Verion5|52=20180403-08:14:07.775|56=TRAX|10=008|8=FIXT.1.1|9=61|35=0|34=4|49=APAQA2_Verion5|52=20180403-08:14:37.779|56=TRAX|10=016|8=FIXT.1.1|9=61|35=0|34=5|49=APAQA2_Verion5|52=20180403-08:15:08.772|56=TRAX|10=009|8=FIXT.1.1|9=61|35=0|34=6|49=APAQA2_Verion5|52=20180403-08:15:39.780|56=TRAX|10=013|8=FIXT.1.1|9=61|35=0|34=7|49=APAQA2_Verion5|52=20180403-08:16:09.994|56=TRAX|10=019|8=FIXT.1.1|9=61|35=0|34=8|49=APAQA2_Verion5|52=20180403-08:16:40.769|56=TRAX|10=015|8=FIXT.1.1|9=61|35=0|34=9|49=APAQA2_Verion5|52=20180403-08:17:10.779|56=TRAX|10=015|8=FIXT.1.1|9=62|35=0|34=10|49=APAQA2_Verion5|52=20180403-08:17:41.774|56=TRAX|10=055|8=FIXT.1.1|9=62|35=0|34=11|49=APAQA2_Verion5|52=20180403-08:18:12.771|56=TRAX|10=052|8=FIXT.1.1|9=62|35=0|34=12|49=APAQA2_Verion5|52=20180403-08:18:42.776|56=TRAX|10=061|8=FIXT.1.1|9=62|35=0|34=13|49=APAQA2_Verion5|52=20180403-08:19:12.782|56=TRAX|10=057|8=FIXT.1.1|9=62|35=0|34=14|49=APAQA2_Verion5|52=20180403-08:19:42.783|56=TRAX|10=062|8=FIXT.1.1|9=62|35=0|34=15|49=APAQA2_Verion5|52=20180403-08:20:13.780|56=TRAX|10=050|8=FIXT.1.1|9=62|35=0|34=16|49=APAQA2_Verion5|52=20180403-08:20:43.783|56=TRAX|10=057|8=FIXT.1.1|9=62|35=0|34=17|49=APAQA2_Verion5|52=20180403-08:21:14.778|56=TRAX|10=061|8=FIXT.1.1|9=62|35=0|34=18|49=APAQA2_Verion5|52=20180403-08:21:45.739|56=TRAX|10=063|8=FIXT.1.1|9=62|35=0|34=19|49=APAQA2_Verion5|52=20180403-08:22:15.777|56=TRAX|10=064|8=FIXT.1.1|9=62|35=0|34=20|49=APAQA2_Verion5|52=20180403-08:22:45.778|56=TRAX|10=060|8=FIXT.1.1|9=62|35=0|34=21|49=APAQA2_Verion5|52=20180403-08:23:16.783|56=TRAX|10=056|8=FIXT.1.1|9=62|35=0|34=22|49=APAQA2_Verion5|52=20180403-08:23:47.778|56=TRAX|10=065|8=FIXT.1.1|9=62|35=0|34=23|49=APAQA2_Verion5|52=20180403-08:24:18.769|56=TRAX|10=065|8=FIXT.1.1|9=62|35=0|34=24|49=APAQA2_Verion5|52=20180403-08:24:48.776|56=TRAX|10=067|8=FIXT.1.1|9=62|35=0|34=25|49=APAQA2_Verion5|52=20180403-08:25:18.784|56=TRAX|10=065|8=FIXT.1.1|9=62|35=0|34=26|49=APAQA2_Verion5|52=20180403-08:25:49.779|56=TRAX|10=074|8=FIXT.1.1|9=62|35=0|34=27|49=APAQA2_Verion5|52=20180403-08:26:20.774|56=TRAX|10=060|8=FIXT.1.1|9=62|35=0|34=28|49=APAQA2_Verion5|52=20180403-08:26:50.784|56=TRAX|10=065|8=FIXT.1.1|9=62|35=0|34=29|49=APAQA2_Verion5|52=20180403-08:27:20.786|56=TRAX|10=066|8=FIXT.1.1|9=62|35=0|34=30|49=APAQA2_Verion5|52=20180403-08:27:51.783|56=TRAX|10=059|8=FIXT.1.1|9=62|35=0|34=31|49=APAQA2_Verion5|52=20180403-08:28:22.785|56=TRAX|10=061|8=FIXT.1.1|9=62|35=0|34=32|49=APAQA2_Verion5|52=20180403-08:28:53.741|56=TRAX|10=058|8=FIXT.1.1|9=62|35=0|34=33|49=APAQA2_Verion5|52=20180403-08:29:23.780|56=TRAX|10=060|8=FIXT.1.1|9=62|35=0|34=34|49=APAQA2_Verion5|52=20180403-08:29:53.780|56=TRAX|10=064|8=FIXT.1.1|9=62|35=0|34=35|49=APAQA2_Verion5|52=20180403-08:30:24.779|56=TRAX|10=063|8=FIXT.1.1|9=62|35=0|34=36|49=APAQA2_Verion5|52=20180403-08:30:54.785|56=TRAX|10=064|8=FIXT.1.1|9=62|35=0|34=37|49=APAQA2_Verion5|52=20180403-08:31:25.777|56=TRAX|10=065|8=FIXT.1.1|9=62|35=0|34=38|49=APAQA2_Verion5|52=20180403-08:31:55.782|56=TRAX|10=065|8=FIXT.1.1|9=62|35=0|34=39|49=APAQA2_Verion5|52=20180403-08:32:26.778|56=TRAX|10=070|8=FIXT.1.1|9=62|35=0|34=40|49=APAQA2_Verion5|52=20180403-08:32:57.746|56=TRAX|10=061|8=FIXT.1.1|9=62|35=0|34=41|49=APAQA2_Verion5|52=20180403-08:33:27.786|56=TRAX|10=064|8=FIXT.1.1|9=62|35=0|34=42|49=APAQA2_Verion5|52=20180403-08:33:58.779|56=TRAX|10=071|8=FIXT.1.1|9=62|35=0|34=43|49=APAQA2_Verion5|52=20180403-08:34:28.786|56=TRAX|10=068|8=FIXT.1.1|9=62|35=0|34=44|49=APAQA2_Verion5|52=20180403-08:34:59.786|56=TRAX|10=073|8=FIXT.1.1|9=62|35=0|34=45|49=APAQA2_Verion5|52=20180403-08:35:30.782|56=TRAX|10=060|8=FIXT.1.1|9=62|35=0|34=46|49=APAQA2_Verion5|52=20180403-08:36:00.783|56=TRAX|10=060|8=FIXT.1.1|9=62|35=0|34=47|49=APAQA2_Verion5|52=20180403-08:36:31.775|56=TRAX|10=066|8=FIXT.1.1|9=62|35=0|34=48|49=APAQA2_Verion5|52=20180403-08:37:02.775|56=TRAX|10=066|8=FIXT.1.1|9=62|35=0|34=49|49=APAQA2_Verion5|52=20180403-08:37:32.782|56=TRAX|10=068|8=FIXT.1.1|9=62|35=0|34=50|49=APAQA2_Verion5|52=20180403-08:38:03.783|56=TRAX|10=060|8=FIXT.1.1|9=62|35=0|34=51|49=APAQA2_Verion5|52=20180403-08:38:34.778|56=TRAX|10=069|8=FIXT.1.1|9=62|35=0|34=52|49=APAQA2_Verion5|52=20180403-08:39:04.778|56=TRAX|10=068|8=FIXT.1.1|9=62|35=0|34=53|49=APAQA2_Verion5|52=20180403-08:39:34.782|56=TRAX|10=067|8=FIXT.1.1|9=62|35=0|34=54|49=APAQA2_Verion5|52=20180403-08:40:04.787|56=TRAX|10=062|8=FIXT.1.1|9=62|35=0|34=55|49=APAQA2_Verion5|52=20180403-08:40:34.788|56=TRAX|10=067|8=FIXT.1.1|9=62|35=0|34=56|49=APAQA2_Verion5|52=20180403-08:41:05.790|56=TRAX|10=060|8=FIXT.1.1|9=62|35=0|34=57|49=APAQA2_Verion5|52=20180403-08:41:36.781|56=TRAX|10=065|8=FIXT.1.1|9=62|35=0|34=58|49=APAQA2_Verion5|52=20180403-08:42:06.784|56=TRAX|10=067|8=FIXT.1.1|9=62|35=0|34=59|49=APAQA2_Verion5|52=20180403-08:42:36.786|56=TRAX|10=073|8=FIXT.1.1|9=62|35=0|34=60|49=APAQA2_Verion5|52=20180403-08:43:07.778|56=TRAX|10=065|8=FIXT.1.1|9=62|35=0|34=61|49=APAQA2_Verion5|52=20180403-08:43:38.790|56=TRAX|10=064|8=FIXT.1.1|9=62|35=0|34=62|49=APAQA2_Verion5|52=20180403-08:44:09.782|56=TRAX|10=065|8=FIXT.1.1|9=62|35=0|34=63|49=APAQA2_Verion5|52=20180403-08:44:39.787|56=TRAX|10=074|8=FIXT.1.1|9=62|35=0|34=64|49=APAQA2_Verion5|52=20180403-08:45:10.019|56=TRAX|10=053|8=FIXT.1.1|9=62|35=0|34=65|49=APAQA2_Verion5|52=20180403-08:45:40.788|56=TRAX|10=070|8=FIXT.1.1|9=62|35=0|34=66|49=APAQA2_Verion5|52=20180403-08:46:11.788|56=TRAX|10=070|8=FIXT.1.1|9=62|35=0|34=67|49=APAQA2_Verion5|52=20180403-08:46:42.782|56=TRAX|10=069|8=FIXT.1.1|9=62|35=0|34=68|49=APAQA2_Verion5|52=20180403-08:47:12.784|56=TRAX|10=070|8=FIXT.1.1|9=62|35=0|34=69|49=APAQA2_Verion5|52=20180403-08:47:42.793|56=TRAX|10=074|8=FIXT.1.1|9=62|35=0|34=70|49=APAQA2_Verion5|52=20180403-08:48:13.781|56=TRAX|10=062|8=FIXT.1.1|9=62|35=0|34=71|49=APAQA2_Verion5|52=20180403-08:48:43.783|56=TRAX|10=068|8=FIXT.1.1|9=62|35=0|34=72|49=APAQA2_Verion5|52=20180403-08:49:13.786|56=TRAX|10=070|8=FIXT.1.1|9=62|35=0|34=73|49=APAQA2_Verion5|52=20180403-08:49:43.786|56=TRAX|10=074|8=FIXT.1.1|9=62|35=0|34=74|49=APAQA2_Verion5|52=20180403-08:50:14.793|56=TRAX|10=063|8=FIXT.1.1|9=62|35=0|34=75|49=APAQA2_Verion5|52=20180403-08:50:45.787|56=TRAX|10=071|8=FIXT.1.1|9=62|35=0|34=76|49=APAQA2_Verion5|52=20180403-08:51:16.768|56=TRAX|10=070|8=FIXT.1.1|9=62|35=0|34=77|49=APAQA2_Verion5|52=20180403-08:51:46.790|56=TRAX|10=069|8=FIXT.1.1|9=62|35=0|34=78|49=APAQA2_Verion5|52=20180403-08:52:17.782|56=TRAX|10=070|8=FIXT.1.1|9=62|35=0|34=79|49=APAQA2_Verion5|52=20180403-08:52:47.788|56=TRAX|10=080|8=FIXT.1.1|9=62|35=0|34=80|49=APAQA2_Verion5|52=20180403-08:53:17.788|56=TRAX|10=070|8=FIXT.1.1|9=62|35=0|34=81|49=APAQA2_Verion5|52=20180403-08:53:48.796|56=TRAX|10=074|8=FIXT.1.1|9=71|35=1|34=82|49=APAQA2_Verion5|52=20180403-08:53:56.794|56=TRAX|112=TEST|10=091|8=FIXT.1.1|9=62|35=0|34=83|49=APAQA2_Verion5|52=20180403-08:54:26.796|56=TRAX|10=073|8=FIXT.1.1|9=62|35=0|34=84|49=APAQA2_Verion5|52=20180403-08:54:57.784|56=TRAX|10=075|8=FIXT.1.1|9=62|35=0|34=85|49=APAQA2_Verion5|52=20180403-08:55:27.794|56=TRAX|10=075|8=FIXT.1.1|9=62|35=0|34=86|49=APAQA2_Verion5|52=20180403-08:55:58.776|56=TRAX|10=080|8=FIXT.1.1|9=62|35=0|34=87|49=APAQA2_Verion5|52=20180403-08:56:28.790|56=TRAX|10=075|8=FIXT.1.1|9=62|35=0|34=88|49=APAQA2_Verion5|52=20180403-08:56:59.785|56=TRAX|10=084|8=FIXT.1.1|9=62|35=0|34=89|49=APAQA2_Verion5|52=20180403-08:57:29.793|56=TRAX|10=082|8=FIXT.1.1|9=62|35=0|34=90|49=APAQA2_Verion5|52=20180403-08:57:59.793|56=TRAX|10=077|8=FIXT.1.1|9=62|35=0|34=91|49=APAQA2_Verion5|52=20180403-08:58:30.788|56=TRAX|10=072|8=FIXT.1.1|9=62|35=0|34=92|49=APAQA2_Verion5|52=20180403-08:59:01.785|56=TRAX|10=069|8=FIXT.1.1|9=62|35=0|34=93|49=APAQA2_Verion5|52=20180403-08:59:31.797|56=TRAX|10=076|8=FIXT.1.1|9=62|35=0|34=94|49=APAQA2_Verion5|52=20180403-09:00:01.797|56=TRAX|10=061|8=FIXT.1.1|9=62|35=0|34=95|49=APAQA2_Verion5|52=20180403-09:00:31.799|56=TRAX|10=067|8=FIXT.1.1|9=62|35=0|34=96|49=APAQA2_Verion5|52=20180403-09:01:02.790|56=TRAX|10=058|8=FIXT.1.1|9=62|35=0|34=97|49=APAQA2_Verion5|52=20180403-09:01:32.794|56=TRAX|10=066|8=FIXT.1.1|9=62|35=0|34=98|49=APAQA2_Verion5|52=20180403-09:02:03.799|56=TRAX|10=071|8=FIXT.1.1|9=62|35=0|34=99|49=APAQA2_Verion5|52=20180403-09:02:33.800|56=TRAX|10=058|8=FIXT.1.1|9=63|35=0|34=100|49=APAQA2_Verion5|52=20180403-09:03:04.796|56=TRAX|10=103|8=FIXT.1.1|9=63|35=0|34=101|49=APAQA2_Verion5|52=20180403-09:03:34.796|56=TRAX|10=107|8=FIXT.1.1|9=63|35=0|34=102|49=APAQA2_Verion5|52=20180403-09:04:05.786|56=TRAX|10=106|8=FIXT.1.1|9=63|35=0|34=103|49=APAQA2_Verion5|52=20180403-09:04:35.791|56=TRAX|10=106|8=FIXT.1.1|9=63|35=0|34=104|49=APAQA2_Verion5|52=20180403-09:05:05.792|56=TRAX|10=106|8=FIXT.1.1|9=63|35=0|34=105|49=APAQA2_Verion5|52=20180403-09:05:36.788|56=TRAX|10=116|8=FIXT.1.1|9=63|35=0|34=106|49=APAQA2_Verion5|52=20180403-09:06:06.791|56=TRAX|10=109|8=FIXT.1.1|9=63|35=0|34=107|49=APAQA2_Verion5|52=20180403-09:06:36.798|56=TRAX|10=120|8=FIXT.1.1|9=63|35=0|34=108|49=APAQA2_Verion5|52=20180403-09:07:06.798|56=TRAX|10=119|8=FIXT.1.1|9=63|35=0|34=109|49=APAQA2_Verion5|52=20180403-09:07:37.789|56=TRAX|10=124|8=FIXT.1.1|9=63|35=0|34=110|49=APAQA2_Verion5|52=20180403-09:08:07.801|56=TRAX|10=099|8=FIXT.1.1|9=63|35=0|34=111|49=APAQA2_Verion5|52=20180403-09:08:38.793|56=TRAX|10=114|8=FIXT.1.1|9=63|35=0|34=112|49=APAQA2_Verion5|52=20180403-09:09:08.795|56=TRAX|10=115|8=FIXT.1.1|9=63|35=0|34=113|49=APAQA2_Verion5|52=20180403-09:09:39.789|56=TRAX|10=123|8=FIXT.1.1|9=63|35=0|34=114|49=APAQA2_Verion5|52=20180403-09:10:09.794|56=TRAX|10=109|8=FIXT.1.1|9=63|35=0|34=115|49=APAQA2_Verion5|52=20180403-09:10:39.801|56=TRAX|10=102|8=FIXT.1.1|9=63|35=0|34=116|49=APAQA2_Verion5|52=20180403-09:11:10.794|56=TRAX|10=104|8=FIXT.1.1|9=63|35=0|34=117|49=APAQA2_Verion5|52=20180403-09:11:40.803|56=TRAX|10=099|8=FIXT.1.1|9=63|35=0|34=118|49=APAQA2_Verion5|52=20180403-09:12:11.793|56=TRAX|10=107|8=FIXT.1.1|9=63|35=0|34=119|49=APAQA2_Verion5|52=20180403-09:12:41.804|56=TRAX|10=104|8=FIXT.1.1|9=63|35=0|34=120|49=APAQA2_Verion5|52=20180403-09:13:12.797|56=TRAX|10=106|8=FIXT.1.1|9=63|35=0|34=121|49=APAQA2_Verion5|52=20180403-09:13:43.794|56=TRAX|10=108|8=FIXT.1.1|9=63|35=0|34=122|49=APAQA2_Verion5|52=20180403-09:14:13.796|56=TRAX|10=109|8=FIXT.1.1|9=63|35=0|34=123|49=APAQA2_Verion5|52=20180403-09:14:43.804|56=TRAX|10=103|8=FIXT.1.1|9=63|35=0|34=124|49=APAQA2_Verion5|52=20180403-09:15:14.799|56=TRAX|10=116|8=FIXT.1.1|9=63|35=0|34=125|49=APAQA2_Verion5|52=20180403-09:15:45.799|56=TRAX|10=121|8=FIXT.1.1|9=63|35=0|34=126|49=APAQA2_Verion5|52=20180403-09:16:16.802|56=TRAX|10=106|8=FIXT.1.1|9=63|35=0|34=127|49=APAQA2_Verion5|52=20180403-09:16:47.799|56=TRAX|10=126|8=FIXT.1.1|9=63|35=0|34=128|49=APAQA2_Verion5|52=20180403-09:17:18.013|56=TRAX|10=105|8=FIXT.1.1|9=63|35=0|34=129|49=APAQA2_Verion5|52=20180403-09:17:48.062|56=TRAX|10=113|8=FIXT.1.1|9=63|35=0|34=130|49=APAQA2_Verion5|52=20180403-09:18:18.802|56=TRAX|10=105|8=FIXT.1.1|9=63|35=0|34=131|49=APAQA2_Verion5|52=20180403-09:18:49.794|56=TRAX|10=120|8=FIXT.1.1|9=63|35=0|34=132|49=APAQA2_Verion5|52=20180403-09:19:20.801|56=TRAX|10=100|8=FIXT.1.1|9=63|35=0|34=133|49=APAQA2_Verion5|52=20180403-09:19:50.807|56=TRAX|10=110|8=FIXT.1.1|9=63|35=0|34=134|49=APAQA2_Verion5|52=20180403-09:20:21.807|56=TRAX|10=101|8=FIXT.1.1|9=63|35=0|34=135|49=APAQA2_Verion5|52=20180403-09:20:52.794|56=TRAX|10=111|8=FIXT.1.1|9=63|35=0|34=136|49=APAQA2_Verion5|52=20180403-09:21:22.805|56=TRAX|10=103|8=FIXT.1.1|9=63|35=0|34=137|49=APAQA2_Verion5|52=20180403-09:21:53.795|56=TRAX|10=116|8=FIXT.1.1|9=63|35=0|34=138|49=APAQA2_Verion5|52=20180403-09:22:23.801|56=TRAX|10=103|8=FIXT.1.1|9=63|35=0|34=139|49=APAQA2_Verion5|52=20180403-09:22:54.800|56=TRAX|10=107|8=FIXT.1.1|9=63|35=0|34=140|49=APAQA2_Verion5|52=20180403-09:23:24.805|56=TRAX|10=102|8=FIXT.1.1|9=63|35=0|34=141|49=APAQA2_Verion5|52=20180403-09:23:55.796|56=TRAX|10=116|8=FIXT.1.1|9=63|35=0|34=142|49=APAQA2_Verion5|52=20180403-09:24:25.796|56=TRAX|10=115|8=FIXT.1.1|9=63|35=0|34=143|49=APAQA2_Verion5|52=20180403-09:24:56.809|56=TRAX|10=115|8=FIXT.1.1|9=63|35=0|34=144|49=APAQA2_Verion5|52=20180403-09:25:26.810|56=TRAX|10=106|8=FIXT.1.1|9=63|35=0|34=145|49=APAQA2_Verion5|52=20180403-09:25:57.807|56=TRAX|10=117|8=FIXT.1.1|9=63|35=0|34=146|49=APAQA2_Verion5|52=20180403-09:26:28.805|56=TRAX|10=115|8=FIXT.1.1|9=63|35=0|34=147|49=APAQA2_Verion5|52=20180403-09:26:58.810|56=TRAX|10=115|8=FIXT.1.1|9=63|35=0|34=148|49=APAQA2_Verion5|52=20180403-09:27:29.798|56=TRAX|10=130|8=FIXT.1.1|9=63|35=0|34=149|49=APAQA2_Verion5|52=20180403-09:27:59.798|56=TRAX|10=134|8=FIXT.1.1|9=63|35=0|34=150|49=APAQA2_Verion5|52=20180403-09:28:30.811|56=TRAX|10=102|8=FIXT.1.1|9=63|35=0|34=151|49=APAQA2_Verion5|52=20180403-09:29:01.810|56=TRAX|10=101|8=FIXT.1.1|9=63|35=0|34=152|49=APAQA2_Verion5|52=20180403-09:29:32.806|56=TRAX|10=111|8=FIXT.1.1|9=63|35=0|34=153|49=APAQA2_Verion5|52=20180403-09:30:02.806|56=TRAX|10=101|8=FIXT.1.1|9=63|35=0|34=154|49=APAQA2_Verion5|52=20180403-09:30:33.799|56=TRAX|10=117|8=FIXT.1.1|9=63|35=0|34=155|49=APAQA2_Verion5|52=20180403-09:31:03.812|56=TRAX|10=102|8=FIXT.1.1|9=63|35=0|34=156|49=APAQA2_Verion5|52=20180403-09:31:34.802|56=TRAX|10=106|8=FIXT.1.1|9=63|35=0|34=157|49=APAQA2_Verion5|52=20180403-09:32:04.802|56=TRAX|10=105|8=FIXT.1.1|9=63|35=0|34=158|49=APAQA2_Verion5|52=20180403-09:32:35.799|56=TRAX|10=125|8=FIXT.1.1|9=63|35=0|34=159|49=APAQA2_Verion5|52=20180403-09:33:05.800|56=TRAX|10=107|8=FIXT.1.1|9=63|35=0|34=160|49=APAQA2_Verion5|52=20180403-09:33:35.813|56=TRAX|10=106|8=FIXT.1.1|9=63|35=0|34=161|49=APAQA2_Verion5|52=20180403-09:34:05.814|56=TRAX|10=106|8=FIXT.1.1|9=63|35=0|34=162|49=APAQA2_Verion5|52=20180403-09:34:36.805|56=TRAX|10=111|8=FIXT.1.1|9=63|35=0|34=163|49=APAQA2_Verion5|52=20180403-09:35:06.812|56=TRAX|10=108|8=FIXT.1.1|9=63|35=0|34=164|49=APAQA2_Verion5|52=20180403-09:35:37.810|56=TRAX|10=111|8=FIXT.1.1|9=63|35=0|34=165|49=APAQA2_Verion5|52=20180403-09:36:07.810|56=TRAX|10=110|8=FIXT.1.1|9=63|35=0|34=166|49=APAQA2_Verion5|52=20180403-09:36:38.810|56=TRAX|10=115|8=FIXT.1.1|9=63|35=0|34=167|49=APAQA2_Verion5|52=20180403-09:37:09.806|56=TRAX|10=120|8=FIXT.1.1|9=63|35=0|34=168|49=APAQA2_Verion5|52=20180403-09:37:39.806|56=TRAX|10=124|8=FIXT.1.1|9=63|35=0|34=169|49=APAQA2_Verion5|52=20180403-09:38:09.814|56=TRAX|10=122|8=FIXT.1.1|9=63|35=0|34=170|49=APAQA2_Verion5|52=20180403-09:38:40.770|56=TRAX|10=110|8=FIXT.1.1|9=63|35=0|34=171|49=APAQA2_Verion5|52=20180403-09:39:10.799|56=TRAX|10=120|8=FIXT.1.1|9=63|35=0|34=172|49=APAQA2_Verion5|52=20180403-09:39:40.804|56=TRAX|10=111|8=FIXT.1.1|9=63|35=0|34=173|49=APAQA2_Verion5|52=20180403-09:40:10.804|56=TRAX|10=101|8=FIXT.1.1|9=63|35=0|34=174|49=APAQA2_Verion5|52=20180403-09:40:40.812|56=TRAX|10=104|8=FIXT.1.1|9=63|35=0|34=175|49=APAQA2_Verion5|52=20180403-09:41:11.779|56=TRAX|10=116|8=FIXT.1.1|9=63|35=0|34=176|49=APAQA2_Verion5|52=20180403-09:41:41.781|56=TRAX|10=113|8=FIXT.1.1|9=63|35=0|34=177|49=APAQA2_Verion5|52=20180403-09:42:11.798|56=TRAX|10=120|8=FIXT.1.1|9=63|35=0|34=178|49=APAQA2_Verion5|52=20180403-09:42:42.767|56=TRAX|10=121|8=FIXT.1.1|9=63|35=0|34=179|49=APAQA2_Verion5|52=20180403-09:43:13.766|56=TRAX|10=120|8=FIXT.1.1|9=63|35=0|34=180|49=APAQA2_Verion5|52=20180403-09:43:44.765|56=TRAX|10=115|8=FIXT.1.1|9=63|35=0|34=181|49=APAQA2_Verion5|52=20180403-09:44:15.764|56=TRAX|10=114|8=FIXT.1.1|9=63|35=0|34=182|49=APAQA2_Verion5|52=20180403-09:44:46.762|56=TRAX|10=117|8=FIXT.1.1|9=63|35=0|34=183|49=APAQA2_Verion5|52=20180403-09:45:17.761|56=TRAX|10=116|8=FIXT.1.1|9=63|35=0|34=184|49=APAQA2_Verion5|52=20180403-09:45:48.168|56=TRAX|10=122|8=FIXT.1.1|9=63|35=0|34=185|49=APAQA2_Verion5|52=20180403-09:46:18.804|56=TRAX|10=118|8=FIXT.1.1|9=63|35=0|34=186|49=APAQA2_Verion5|52=20180403-09:46:49.802|56=TRAX|10=121|8=FIXT.1.1|9=63|35=0|34=187|49=APAQA2_Verion5|52=20180403-09:47:19.803|56=TRAX|10=121|8=FIXT.1.1|9=63|35=0|34=188|49=APAQA2_Verion5|52=20180403-09:47:49.803|56=TRAX|10=125|8=FIXT.1.1|9=63|35=0|34=189|49=APAQA2_Verion5|52=20180403-09:48:19.805|56=TRAX|10=126|8=FIXT.1.1|9=63|35=0|34=190|49=APAQA2_Verion5|52=20180403-09:48:50.790|56=TRAX|10=116|8=FIXT.1.1|9=63|35=0|34=191|49=APAQA2_Verion5|52=20180403-09:49:21.759|56=TRAX|10=121|8=FIXT.1.1|9=63|35=0|34=192|49=APAQA2_Verion5|52=20180403-09:49:52.758|56=TRAX|10=125|8=FIXT.1.1|9=63|35=0|34=193|49=APAQA2_Verion5|52=20180403-09:50:23.757|56=TRAX|10=115|8=FIXT.1.1|9=63|35=0|34=194|49=APAQA2_Verion5|52=20180403-09:50:54.756|56=TRAX|10=119|8=FIXT.1.1|9=63|35=0|34=195|49=APAQA2_Verion5|52=20180403-09:51:25.754|56=TRAX|10=117|8=FIXT.1.1|9=63|35=0|34=196|49=APAQA2_Verion5|52=20180403-09:51:56.768|56=TRAX|10=127|8=FIXT.1.1|9=63|35=0|34=197|49=APAQA2_Verion5|52=20180403-09:52:26.795|56=TRAX|10=126|8=FIXT.1.1|9=63|35=0|34=198|49=APAQA2_Verion5|52=20180403-09:52:57.754|56=TRAX|10=126|8=FIXT.1.1|9=63|35=0|34=199|49=APAQA2_Verion5|52=20180403-09:53:28.752|56=TRAX|10=124|8=FIXT.1.1|9=63|35=0|34=200|49=APAQA2_Verion5|52=20180403-09:53:58.752|56=TRAX|10=110|8=FIXT.1.1|9=63|35=0|34=201|49=APAQA2_Verion5|52=20180403-09:54:29.750|56=TRAX|10=108|8=FIXT.1.1|9=63|35=0|34=202|49=APAQA2_Verion5|52=20180403-09:55:00.748|56=TRAX|10=106|8=FIXT.1.1|9=63|35=0|34=203|49=APAQA2_Verion5|52=20180403-09:55:31.747|56=TRAX|10=110|8=FIXT.1.1|9=63|35=0|34=204|49=APAQA2_Verion5|52=20180403-09:56:02.746|56=TRAX|10=109|8=FIXT.1.1|9=63|35=0|34=205|49=APAQA2_Verion5|52=20180403-09:56:32.789|56=TRAX|10=120|8=FIXT.1.1|9=63|35=0|34=206|49=APAQA2_Verion5|52=20180403-09:57:03.744|56=TRAX|10=111|8=FIXT.1.1|9=63|35=0|34=207|49=APAQA2_Verion5|52=20180403-09:57:34.743|56=TRAX|10=115|8=FIXT.1.1|9=63|35=0|34=208|49=APAQA2_Verion5|52=20180403-09:58:05.742|56=TRAX|10=114|8=FIXT.1.1|9=63|35=0|34=209|49=APAQA2_Verion5|52=20180403-09:58:36.740|56=TRAX|10=117|8=FIXT.1.1|9=63|35=0|34=210|49=APAQA2_Verion5|52=20180403-09:59:07.739|56=TRAX|10=116|8=FIXT.1.1|9=63|35=0|34=211|49=APAQA2_Verion5|52=20180403-09:59:38.738|56=TRAX|10=120|8=FIXT.1.1|9=63|35=0|34=212|49=APAQA2_Verion5|52=20180403-10:00:09.738|56=TRAX|10=097|8=FIXT.1.1|9=63|35=0|34=213|49=APAQA2_Verion5|52=20180403-10:00:39.776|56=TRAX|10=103|8=FIXT.1.1|9=63|35=0|34=214|49=APAQA2_Verion5|52=20180403-10:01:10.769|56=TRAX|10=096|8=FIXT.1.1|9=63|35=0|34=215|49=APAQA2_Verion5|52=20180403-10:01:40.779|56=TRAX|10=101|8=FIXT.1.1|9=63|35=0|34=216|49=APAQA2_Verion5|52=20180403-10:02:11.770|56=TRAX|10=092|8=FIXT.1.1|9=63|35=0|34=217|49=APAQA2_Verion5|52=20180403-10:02:41.781|56=TRAX|10=098|8=FIXT.1.1|9=63|35=0|34=218|49=APAQA2_Verion5|52=20180403-10:03:11.781|56=TRAX|10=097|8=FIXT.1.1|9=63|35=0|34=219|49=APAQA2_Verion5|52=20180403-10:03:42.773|56=TRAX|10=103|8=FIXT.1.1|9=63|35=0|34=220|49=APAQA2_Verion5|52=20180403-10:04:12.783|56=TRAX|10=094|8=FIXT.1.1|9=63|35=0|34=221|49=APAQA2_Verion5|52=20180403-10:04:43.773|56=TRAX|10=098|8=FIXT.1.1|9=63|35=0|34=222|49=APAQA2_Verion5|52=20180403-10:05:13.780|56=TRAX|10=095|8=FIXT.1.1|9=63|35=0|34=223|49=APAQA2_Verion5|52=20180403-10:05:44.773|56=TRAX|10=102|8=FIXT.1.1|9=63|35=0|34=224|49=APAQA2_Verion5|52=20180403-10:06:15.775|56=TRAX|10=104|8=FIXT.1.1|9=63|35=0|34=225|49=APAQA2_Verion5|52=20180403-10:06:46.780|56=TRAX|10=105|8=FIXT.1.1|9=63|35=0|34=226|49=APAQA2_Verion5|52=20180403-10:07:17.773|56=TRAX|10=107|8=FIXT.1.1|9=63|35=0|34=227|49=APAQA2_Verion5|52=20180403-10:07:47.778|56=TRAX|10=116|8=FIXT.1.1|9=63|35=0|34=228|49=APAQA2_Verion5|52=20180403-10:08:17.937|56=TRAX|10=112|8=FIXT.1.1|9=63|35=0|34=229|49=APAQA2_Verion5|52=20180403-10:08:47.998|56=TRAX|10=123|8=FIXT.1.1|9=63|35=0|34=230|49=APAQA2_Verion5|52=20180403-10:09:18.775|56=TRAX|10=107|8=FIXT.1.1|9=63|35=0|34=231|49=APAQA2_Verion5|52=20180403-10:09:48.776|56=TRAX|10=112|8=FIXT.1.1|9=63|35=0|34=232|49=APAQA2_Verion5|52=20180403-10:10:18.780|56=TRAX|10=097|8=FIXT.1.1|9=63|35=0|34=233|49=APAQA2_Verion5|52=20180403-10:10:49.740|56=TRAX|10=098|8=FIXT.1.1|9=63|35=0|34=234|49=APAQA2_Verion5|52=20180403-10:11:20.738|56=TRAX|10=096|8=FIXT.1.1|9=63|35=0|34=235|49=APAQA2_Verion5|52=20180403-10:11:50.739|56=TRAX|10=101|8=FIXT.1.1|9=63|35=0|34=236|49=APAQA2_Verion5|52=20180403-10:12:20.757|56=TRAX|10=100|8=FIXT.1.1|9=63|35=0|34=237|49=APAQA2_Verion5|52=20180403-10:12:50.775|56=TRAX|10=104|8=FIXT.1.1|9=63|35=0|34=238|49=APAQA2_Verion5|52=20180403-10:13:21.764|56=TRAX|10=102|8=FIXT.1.1|9=63|35=0|34=239|49=APAQA2_Verion5|52=20180403-10:13:52.763|56=TRAX|10=106|8=FIXT.1.1|9=103|35=A|34=1|49=APAQA2_Verion5|52=20180404-09:19:42.723|56=TRAX|98=0|108=30|95=8|96=2.0.0rc4|141=Y|1137=9|10=084|8=FIXT.1.1|9=61|35=0|34=2|49=APAQA2_Verion5|52=20180404-09:20:12.727|56=TRAX|10=255|8=FIXT.1.1|9=61|35=0|34=3|49=APAQA2_Verion5|52=20180404-09:20:43.731|56=TRAX|10=255|8=FIXT.1.1|9=61|35=0|34=4|49=APAQA2_Verion5|52=20180404-09:21:13.731|56=TRAX|10=254|8=FIXT.1.1|9=61|35=0|34=5|49=APAQA2_Verion5|52=20180404-09:21:44.730|56=TRAX|10=002|8=FIXT.1.1|9=61|35=0|34=6|49=APAQA2_Verion5|52=20180404-09:22:15.724|56=TRAX|10=005|8=FIXT.1.1|9=275|35=i|34=7|49=APAQA2_Verion5|50=APA|52=20180404-09:22:22.411|56=TRAX|57=APA|117=133617100601|296=1|302=1|304=1|295=1|299=APRIL18|48=DE000A2AAP11|22=4|22680=10.45|22683=1|134=10000|60=20171108-00:59:59.000|15=EUR|22500=4|22501=REC0012137|22503=100|22505=XXX|22701=Y|22504=ACEX|10=109|8=FIXT.1.1|9=61|35=0|34=8|49=APAQA2_Verion5|52=20180404-09:22:52.705|56=TRAX|10=007|8=FIXT.1.1|9=275|35=i|34=9|49=APAQA2_Verion5|50=APA|52=20180404-09:22:57.129|56=TRAX|57=APA|117=133617100601|296=1|302=1|304=1|295=1|299=APRIL18|48=DE000A2AAP11|22=4|22680=10.45|22683=1|134=10000|60=20171108-00:59:59.000|15=EUR|22500=4|22501=REC0012137|22503=100|22505=XXX|22701=Y|22504=ACEX|10=125|8=FIXT.1.1|9=276|35=i|34=10|49=APAQA2_Verion5|50=APA|52=20180404-09:23:12.870|56=TRAX|57=APA|117=133617100601|296=1|302=1|304=1|295=1|299=APRIL18|48=DE000A2AAP11|22=4|22680=10.45|22683=1|134=10000|60=20171108-00:59:59.000|15=EUR|22500=4|22501=REC0012137|22503=100|22701=Y|22504=ACEX|22505=XXX|10=161|8=FIXT.1.1|9=71|35=0|34=11|49=APAQA2_Verion5|52=20180404-09:23:37.989|56=TRAX|112=TEST|10=086|8=FIXT.1.1|9=276|35=i|34=12|49=APAQA2_Verion5|50=APA|52=20180404-09:23:46.645|56=TRAX|57=APA|117=133617100601|296=1|302=1|304=1|295=1|299=APRIL18|48=DE000A2AAP11|22=4|22680=10.45|22683=1|134=10000|60=20171108-00:59:59.000|15=EUR|22505=XXX|22500=4|22501=REC0012137|22503=100|22701=Y|22504=ACEX|10=170|8=FIXT.1.1|9=276|35=i|34=13|49=APAQA2_Verion5|50=APA|52=20180404-09:24:03.916|56=TRAX|57=APA|117=133617100601|296=1|302=1|304=1|295=1|299=APRIL18|48=DE000A2AAP11|22=4|22680=10.45|22683=1|134=10000|60=20171108-00:59:59.000|15=EUR|22505=XXX|22500=4|22501=REC0012137|22503=100|22701=Y|22504=XOFF|10=184|8=FIXT.1.1|9=62|35=0|34=14|49=APAQA2_Verion5|52=20180404-09:24:34.722|56=TRAX|10=054|8=FIXT.1.1|9=62|35=0|34=15|49=APAQA2_Verion5|52=20180404-09:25:04.975|56=TRAX|10=063|8=FIXT.1.1|9=276|35=i|34=16|49=APAQA2_Verion5|50=APA|52=20180404-09:25:12.920|56=TRAX|57=APA|117=133617100601|296=1|302=1|304=1|295=1|299=APRIL18|48=DE000A2AAP11|22=4|22680=10.45|22683=1|134=10000|60=20171108-00:59:59.000|15=EUR|22505=XXX|22500=4|22501=REC0012137|22503=100|22701=Y|22504=XOFF|10=183|8=FIXT.1.1|9=62|35=0|34=17|49=APAQA2_Verion5|52=20180404-09:25:43.726|56=TRAX|10=062|8=FIXT.1.1|9=62|35=0|34=18|49=APAQA2_Verion5|52=20180404-09:26:14.377|56=TRAX|10=064|8=FIXT.1.1|9=62|35=0|34=19|49=APAQA2_Verion5|52=20180404-09:26:44.727|56=TRAX|10=067|8=FIXT.1.1|9=62|35=0|34=20|49=APAQA2_Verion5|52=20180404-09:27:14.727|56=TRAX|10=057|8=FIXT.1.1|9=62|35=0|34=21|49=APAQA2_Verion5|52=20180404-09:27:44.733|56=TRAX|10=058|8=FIXT.1.1|9=62|35=0|34=22|49=APAQA2_Verion5|52=20180404-09:28:14.736|56=TRAX|10=060|8=FIXT.1.1|9=62|35=0|34=23|49=APAQA2_Verion5|52=20180404-09:28:45.721|56=TRAX|10=059|8=FIXT.1.1|9=62|35=0|34=24|49=APAQA2_Verion5|52=20180404-09:29:15.731|56=TRAX|10=059|8=FIXT.1.1|9=62|35=0|34=25|49=APAQA2_Verion5|52=20180404-09:29:46.728|56=TRAX|10=070|8=FIXT.1.1|9=62|35=0|34=26|49=APAQA2_Verion5|52=20180404-09:30:16.734|56=TRAX|10=057|8=FIXT.1.1|9=62|35=0|34=27|49=APAQA2_Verion5|52=20180404-09:30:46.735|56=TRAX|10=062|8=FIXT.1.1|9=62|35=0|34=28|49=APAQA2_Verion5|52=20180404-09:31:16.735|56=TRAX|10=061|8=FIXT.1.1|9=62|35=0|34=29|49=APAQA2_Verion5|52=20180404-09:31:46.737|56=TRAX|10=067|8=FIXT.1.1|9=62|35=0|34=30|49=APAQA2_Verion5|52=20180404-09:32:17.723|56=TRAX|10=053|8=FIXT.1.1|9=62|35=0|34=31|49=APAQA2_Verion5|52=20180404-09:32:47.723|56=TRAX|10=057|8=FIXT.1.1|9=62|35=0|34=32|49=APAQA2_Verion5|52=20180404-09:33:17.732|56=TRAX|10=056|8=FIXT.1.1|9=62|35=0|34=33|49=APAQA2_Verion5|52=20180404-09:33:48.726|56=TRAX|10=064|8=FIXT.1.1|9=62|35=0|34=34|49=APAQA2_Verion5|52=20180404-09:34:18.738|56=TRAX|10=066|8=FIXT.1.1|9=62|35=0|34=35|49=APAQA2_Verion5|52=20180404-09:34:48.739|56=TRAX|10=071|8=FIXT.1.1|9=62|35=0|34=36|49=APAQA2_Verion5|52=20180404-09:35:19.725|56=TRAX|10=066|8=FIXT.1.1|9=62|35=0|34=37|49=APAQA2_Verion5|52=20180404-09:35:49.729|56=TRAX|10=074|8=FIXT.1.1|9=62|35=0|34=38|49=APAQA2_Verion5|52=20180404-09:36:19.737|56=TRAX|10=072|8=FIXT.1.1|9=62|35=0|34=39|49=APAQA2_Verion5|52=20180404-09:36:50.726|56=TRAX|10=066|8=FIXT.1.1|9=62|35=0|34=40|49=APAQA2_Verion5|52=20180404-09:37:20.728|56=TRAX|10=058|8=FIXT.1.1|9=62|35=0|34=41|49=APAQA2_Verion5|52=20180404-09:37:51.714|56=TRAX|10=058|8=FIXT.1.1|9=62|35=0|34=42|49=APAQA2_Verion5|52=20180404-09:38:22.706|56=TRAX|10=059|8=FIXT.1.1|9=62|35=0|34=43|49=APAQA2_Verion5|52=20180404-09:38:52.706|56=TRAX|10=063|8=FIXT.1.1|9=62|35=0|34=44|49=APAQA2_Verion5|52=20180404-09:39:23.701|56=TRAX|10=058|8=FIXT.1.1|9=62|35=0|34=45|49=APAQA2_Verion5|52=20180404-09:39:54.699|56=TRAX|10=079|8=FIXT.1.1|9=62|35=0|34=46|49=APAQA2_Verion5|52=20180404-09:40:24.700|56=TRAX|10=052|8=FIXT.1.1|9=62|35=0|34=47|49=APAQA2_Verion5|52=20180404-09:40:55.682|56=TRAX|10=066|8=FIXT.1.1|9=62|35=0|34=48|49=APAQA2_Verion5|52=20180404-09:41:25.688|56=TRAX|10=071|8=FIXT.1.1|9=62|35=0|34=49|49=APAQA2_Verion5|52=20180404-09:41:56.674|56=TRAX|10=071|8=FIXT.1.1|9=62|35=0|34=50|49=APAQA2_Verion5|52=20180404-09:42:26.685|56=TRAX|10=063|8=FIXT.1.1|9=62|35=0|34=51|49=APAQA2_Verion5|52=20180404-09:42:57.670|56=TRAX|10=062|8=FIXT.1.1|9=62|35=0|34=52|49=APAQA2_Verion5|52=20180404-09:43:27.674|56=TRAX|10=065|8=FIXT.1.1|9=62|35=0|34=53|49=APAQA2_Verion5|52=20180404-09:43:57.676|56=TRAX|10=071|8=FIXT.1.1|9=62|35=0|34=54|49=APAQA2_Verion5|52=20180404-09:44:27.678|56=TRAX|10=072|8=FIXT.1.1|9=62|35=0|34=55|49=APAQA2_Verion5|52=20180404-09:44:58.675|56=TRAX|10=074|8=FIXT.1.1|9=62|35=0|34=56|49=APAQA2_Verion5|52=20180404-09:45:29.673|56=TRAX|10=072|8=FIXT.1.1|9=62|35=0|34=57|49=APAQA2_Verion5|52=20180404-09:46:00.662|56=TRAX|10=061|8=FIXT.1.1|9=62|35=0|34=58|49=APAQA2_Verion5|52=20180404-09:46:30.670|56=TRAX|10=064|8=FIXT.1.1|9=62|35=0|34=59|49=APAQA2_Verion5|52=20180404-09:47:00.670|56=TRAX|10=063|8=FIXT.1.1|9=276|35=i|34=60|49=APAQA2_Verion5|50=APA|52=20180404-09:47:23.463|56=TRAX|57=APA|117=133617100601|296=1|302=1|304=1|295=1|299=APRIL18|48=DE000A2AAP11|22=4|22680=10.45|22683=1|134=10000|60=20171108-00:59:59.000|15=EUR|22505=XXX|22500=4|22501=REC0012137|22503=100|22701=Y|22504=XOFF|10=190|8=FIXT.1.1|9=62|35=0|34=61|49=APAQA2_Verion5|52=20180404-09:47:53.669|56=TRAX|10=072|8=FIXT.1.1|9=62|35=0|34=62|49=APAQA2_Verion5|52=20180404-09:48:24.657|56=TRAX|10=069|8=FIXT.1.1|9=62|35=0|34=63|49=APAQA2_Verion5|52=20180404-09:48:54.670|56=TRAX|10=068|8=FIXT.1.1|9=62|35=0|34=64|49=APAQA2_Verion5|52=20180404-09:49:25.658|56=TRAX|10=074|8=FIXT.1.1|9=62|35=0|34=65|49=APAQA2_Verion5|52=20180404-09:49:55.670|56=TRAX|10=072|8=FIXT.1.1|9=62|35=0|34=66|49=APAQA2_Verion5|52=20180404-09:50:25.972|56=TRAX|10=067|8=FIXT.1.1|9=62|35=0|34=67|49=APAQA2_Verion5|52=20180404-09:50:56.657|56=TRAX|10=072|8=FIXT.1.1|9=62|35=0|34=68|49=APAQA2_Verion5|52=20180404-09:51:26.662|56=TRAX|10=067|8=FIXT.1.1|9=62|35=0|34=69|49=APAQA2_Verion5|52=20180404-09:51:56.664|56=TRAX|10=073|8=FIXT.1.1|9=62|35=0|34=70|49=APAQA2_Verion5|52=20180404-09:52:26.664|56=TRAX|10=063|8=FIXT.1.1|9=62|35=0|34=71|49=APAQA2_Verion5|52=20180404-09:52:57.668|56=TRAX|10=072|8=FIXT.1.1|9=62|35=0|34=72|49=APAQA2_Verion5|52=20180404-09:53:28.660|56=TRAX|10=064|8=FIXT.1.1|9=62|35=0|34=73|49=APAQA2_Verion5|52=20180404-09:53:58.669|56=TRAX|10=077|8=FIXT.1.1|9=62|35=0|34=74|49=APAQA2_Verion5|52=20180404-09:54:28.669|56=TRAX|10=076|8=FIXT.1.1|9=62|35=0|34=75|49=APAQA2_Verion5|52=20180404-09:54:59.663|56=TRAX|10=075|8=FIXT.1.1|9=62|35=0|34=76|49=APAQA2_Verion5|52=20180404-09:55:29.665|56=TRAX|10=076|8=FIXT.1.1|9=62|35=0|34=77|49=APAQA2_Verion5|52=20180404-09:55:59.670|56=TRAX|10=076|8=FIXT.1.1|9=62|35=0|34=78|49=APAQA2_Verion5|52=20180404-09:56:30.660|56=TRAX|10=066|8=FIXT.1.1|9=62|35=0|34=79|49=APAQA2_Verion5|52=20180404-09:57:00.663|56=TRAX|10=068|8=FIXT.1.1|9=62|35=0|34=80|49=APAQA2_Verion5|52=20180404-09:57:30.671|56=TRAX|10=062|8=FIXT.1.1|9=62|35=0|34=81|49=APAQA2_Verion5|52=20180404-09:58:00.671|56=TRAX|10=061|8=FIXT.1.1|9=62|35=0|34=82|49=APAQA2_Verion5|52=20180404-09:58:31.668|56=TRAX|10=072|8=FIXT.1.1|9=62|35=0|34=83|49=APAQA2_Verion5|52=20180404-09:59:01.668|56=TRAX|10=071|8=FIXT.1.1|9=62|35=0|34=84|49=APAQA2_Verion5|52=20180404-09:59:32.663|56=TRAX|10=071|8=FIXT.1.1|9=62|35=0|34=85|49=APAQA2_Verion5|52=20180404-10:00:03.659|56=TRAX|10=053|8=FIXT.1.1|9=62|35=0|34=86|49=APAQA2_Verion5|52=20180404-10:00:33.668|56=TRAX|10=057|8=FIXT.1.1|9=62|35=0|34=87|49=APAQA2_Verion5|52=20180404-10:01:03.668|56=TRAX|10=056|8=FIXT.1.1|9=62|35=0|34=88|49=APAQA2_Verion5|52=20180404-10:01:34.668|56=TRAX|10=061|8=FIXT.1.1|9=62|35=0|34=89|49=APAQA2_Verion5|52=20180404-10:02:04.669|56=TRAX|10=061|8=FIXT.1.1|9=62|35=0|34=90|49=APAQA2_Verion5|52=20180404-10:02:34.670|56=TRAX|10=048|8=FIXT.1.1|9=62|35=0|34=91|49=APAQA2_Verion5|52=20180404-10:03:05.665|56=TRAX|10=052|8=FIXT.1.1|9=62|35=0|34=92|49=APAQA2_Verion5|52=20180404-10:03:35.670|56=TRAX|10=052|8=FIXT.1.1|9=62|35=0|34=93|49=APAQA2_Verion5|52=20180404-10:04:06.664|56=TRAX|10=055|8=FIXT.1.1|9=62|35=0|34=94|49=APAQA2_Verion5|52=20180404-10:04:37.669|56=TRAX|10=065|8=FIXT.1.1|9=62|35=0|34=95|49=APAQA2_Verion5|52=20180404-10:05:08.631|56=TRAX|10=054|8=FIXT.1.1|9=62|35=0|34=96|49=APAQA2_Verion5|52=20180404-10:05:38.666|56=TRAX|10=066|8=FIXT.1.1|9=62|35=0|34=97|49=APAQA2_Verion5|52=20180404-10:06:08.668|56=TRAX|10=067|8=FIXT.1.1|9=62|35=0|34=98|49=APAQA2_Verion5|52=20180404-10:06:39.667|56=TRAX|10=071|8=FIXT.1.1|9=62|35=0|34=99|49=APAQA2_Verion5|52=20180404-10:07:10.656|56=TRAX|10=060|8=FIXT.1.1|9=63|35=0|34=100|49=APAQA2_Verion5|52=20180404-10:07:41.630|56=TRAX|10=088|8=FIXT.1.1|9=63|35=0|34=101|49=APAQA2_Verion5|52=20180404-10:08:11.657|56=TRAX|10=096|8=FIXT.1.1|9=63|35=0|34=102|49=APAQA2_Verion5|52=20180404-10:08:42.629|56=TRAX|10=100|8=FIXT.1.1|9=63|35=0|34=103|49=APAQA2_Verion5|52=20180404-10:09:12.653|56=TRAX|10=096|8=FIXT.1.1|9=63|35=0|34=104|49=APAQA2_Verion5|52=20180404-10:09:43.655|56=TRAX|10=103|8=FIXT.1.1|9=63|35=0|34=105|49=APAQA2_Verion5|52=20180404-10:10:14.628|56=TRAX|10=094|8=FIXT.1.1|9=63|35=0|34=106|49=APAQA2_Verion5|52=20180404-10:10:44.645|56=TRAX|10=097|8=FIXT.1.1|9=63|35=0|34=107|49=APAQA2_Verion5|52=20180404-10:11:14.648|56=TRAX|10=099|8=FIXT.1.1|9=63|35=0|34=108|49=APAQA2_Verion5|52=20180404-10:11:44.655|56=TRAX|10=101|8=FIXT.1.1|9=63|35=0|34=109|49=APAQA2_Verion5|52=20180404-10:12:15.628|56=TRAX|10=101|8=FIXT.1.1|9=63|35=0|34=110|49=APAQA2_Verion5|52=20180404-10:12:45.654|56=TRAX|10=095|8=FIXT.1.1|9=63|35=0|34=111|49=APAQA2_Verion5|52=20180404-10:13:15.654|56=TRAX|10=094|8=FIXT.1.1|9=63|35=0|34=112|49=APAQA2_Verion5|52=20180404-10:13:46.647|56=TRAX|10=101|8=FIXT.1.1|9=63|35=0|34=113|49=APAQA2_Verion5|52=20180404-10:14:16.652|56=TRAX|10=096|8=FIXT.1.1|9=63|35=0|34=114|49=APAQA2_Verion5|52=20180404-10:14:47.637|56=TRAX|10=104|8=FIXT.1.1|9=63|35=0|34=115|49=APAQA2_Verion5|52=20180404-10:15:18.627|56=TRAX|10=103|8=FIXT.1.1|9=63|35=0|34=116|49=APAQA2_Verion5|52=20180404-10:15:48.651|56=TRAX|10=104|8=FIXT.1.1|9=63|35=0|34=117|49=APAQA2_Verion5|52=20180404-10:16:19.652|56=TRAX|10=105|8=FIXT.1.1|9=63|35=0|34=118|49=APAQA2_Verion5|52=20180404-10:16:49.652|56=TRAX|10=109|8=FIXT.1.1|9=81|35=5|34=119|49=APAQA2_Verion5|52=20180404-10:16:55.627|56=TRAX|58=user requested|10=206|8=FIXT.1.1|9=103|35=A|34=1|49=APAQA2_Verion5|52=20180404-10:18:18.026|56=TRAX|98=0|108=30|95=8|96=2.0.0rc4|141=Y|1137=9|10=074|8=FIXT.1.1|9=61|35=0|34=2|49=APAQA2_Verion5|52=20180404-10:18:48.031|56=TRAX|10=251|8=FIXT.1.1|9=61|35=0|34=3|49=APAQA2_Verion5|52=20180404-10:19:18.916|56=TRAX|10=006|8=FIXT.1.1|9=61|35=0|34=4|49=APAQA2_Verion5|52=20180404-10:19:49.030|56=TRAX|10=254|8=FIXT.1.1|9=61|35=0|34=5|49=APAQA2_Verion5|52=20180404-10:20:20.031|56=TRAX|10=237|8=FIXT.1.1|9=61|35=0|34=6|49=APAQA2_Verion5|52=20180404-10:20:51.034|56=TRAX|10=245|8=FIXT.1.1|9=61|35=0|34=7|49=APAQA2_Verion5|52=20180404-10:21:22.029|56=TRAX|10=249|8=FIXT.1.1|9=61|35=0|34=8|49=APAQA2_Verion5|52=20180404-10:21:53.036|56=TRAX|10=252|8=FIXT.1.1|9=61|35=0|34=9|49=APAQA2_Verion5|52=20180404-10:22:24.032|56=TRAX|10=248|8=FIXT.1.1|9=62|35=0|34=10|49=APAQA2_Verion5|52=20180404-10:22:54.033|56=TRAX|10=037|8=FIXT.1.1|9=62|35=0|34=11|49=APAQA2_Verion5|52=20180404-10:23:24.036|56=TRAX|10=039|8=FIXT.1.1|9=270|35=i|34=12|49=APAQA2_Verion5|50=APA|52=20180404-10:23:39.843|56=TRAX|57=APA|117=133617100601|296=1|302=1|304=1|295=1|299=NOVEIGHT016|48=RIMADRVC1DR1|22=4|22680=10.45|22683=1|134=10000|60=20171108-00:59:59.000|15=EUR|22500=4|22501=REC0012137|22503=100|22701=Y|22504=ACEX|10=004|8=FIXT.1.1|9=62|35=0|34=13|49=APAQA2_Verion5|52=20180404-10:24:10.031|56=TRAX|10=032|8=FIXT.1.1|9=270|35=i|34=14|49=APAQA2_Verion5|50=APA|52=20180404-10:24:10.281|56=TRAX|57=APA|117=133617100601|296=1|302=1|304=1|295=1|299=NOVEIGHT016|48=DE000A2AAP11|22=4|22680=10.45|22683=1|134=10000|60=20171108-00:59:59.000|15=EUR|22500=4|22501=REC0012137|22503=100|22701=Y|22504=ACEX|10=104|8=FIXT.1.1|9=270|35=i|34=15|49=APAQA2_Verion5|50=APA|52=20180404-10:24:26.945|56=TRAX|57=APA|117=133617100601|296=1|302=1|304=1|295=1|299=NOVEIGHT016|48=DE000A2AAP11|22=4|22680=10.45|22683=1|134=10000|60=20171108-00:59:59.000|15=EUR|22500=4|22501=REC0012137|22503=100|22701=Y|22504=XOFF|10=137|8=FIXT.1.1|9=62|35=0|34=16|49=APAQA2_Verion5|52=20180404-10:24:57.034|56=TRAX|10=049|8=FIXT.1.1|9=62|35=0|34=17|49=APAQA2_Verion5|52=20180404-10:25:27.933|56=TRAX|10=056|8=FIXT.1.1|9=62|35=0|34=18|49=APAQA2_Verion5|52=20180404-10:25:58.011|56=TRAX|10=048|8=FIXT.1.1|9=62|35=0|34=19|49=APAQA2_Verion5|52=20180404-10:26:28.030|56=TRAX|10=048|8=FIXT.1.1|9=62|35=0|34=20|49=APAQA2_Verion5|52=20180404-10:26:58.034|56=TRAX|10=047|8=FIXT.1.1|9=270|35=i|34=21|49=APAQA2_Verion5|50=APA|52=20180404-10:27:15.086|56=TRAX|57=APA|117=133617100601|296=1|302=1|304=1|295=1|299=NOVEIGHT016|48=DE000A2AAP11|22=4|22680=10.45|22683=1|134=10000|60=20171108-00:59:59.000|15=EUR|22500=4|22501=REC0012137|22503=100|22701=Y|22504=XXXX|10=176|8=FIXT.1.1|9=62|35=0|34=22|49=APAQA2_Verion5|52=20180404-10:27:45.949|56=TRAX|10=061|8=FIXT.1.1|9=62|35=0|34=23|49=APAQA2_Verion5|52=20180404-10:28:16.051|56=TRAX|10=045|8=FIXT.1.1|9=62|35=0|34=24|49=APAQA2_Verion5|52=20180404-10:28:47.047|56=TRAX|10=055|8=FIXT.1.1|9=62|35=0|34=25|49=APAQA2_Verion5|52=20180404-10:29:17.047|56=TRAX|10=054|8=FIXT.1.1|9=62|35=0|34=26|49=APAQA2_Verion5|52=20180404-10:29:48.044|56=TRAX|10=056|8=FIXT.1.1|9=62|35=0|34=27|49=APAQA2_Verion5|52=20180404-10:30:18.054|56=TRAX|10=047|8=FIXT.1.1|9=62|35=0|34=28|49=APAQA2_Verion5|52=20180404-10:30:49.046|56=TRAX|10=053|8=FIXT.1.1|9=62|35=0|34=29|49=APAQA2_Verion5|52=20180404-10:31:19.049|56=TRAX|10=055|8=FIXT.1.1|9=62|35=0|34=30|49=APAQA2_Verion5|52=20180404-10:31:50.041|56=TRAX|10=034|8=FIXT.1.1|9=62|35=0|34=31|49=APAQA2_Verion5|52=20180404-10:32:20.041|56=TRAX|10=033|8=FIXT.1.1|9=62|35=0|34=32|49=APAQA2_Verion5|52=20180404-10:32:50.044|56=TRAX|10=040|8=FIXT.1.1|9=62|35=0|34=33|49=APAQA2_Verion5|52=20180404-10:33:20.049|56=TRAX|10=044|8=FIXT.1.1|9=415|35=AE|34=34|49=APAQA2_Verion5|50=APA|57=APA|52=20180404-10:33:25.579|56=TRAX|571=TradeReport1|487=0|325=Y|423=22|55=[N/A]|48=ETCNETCTEST1|22=4|32=86909|31=849890|60=20180313-00:20:13.370|552=1|54=1|29=5|1041=PPB-1582_001|996=Bbl|997=H|1147=100088434|1934=0|1116=2|1117=05B6OC1W7N8NJQRIYS63|1118=N|1119=116|1117=05B6OC1W7N8NJQRIYS63|1118=N|1119=1|15=EUR|120=GBP|1924=1|22600=550000000|22601=EUR|854=1|231=10|30=KBLM|10=246|8=FIXT.1.1|9=415|35=AE|34=35|49=APAQA2_Verion5|50=APA|57=APA|52=20180404-10:33:44.260|56=TRAX|571=TradeReport1|487=0|325=Y|423=22|55=[N/A]|48=DE000A2AAP11|22=4|32=86909|31=849890|60=20180313-00:20:13.370|552=1|54=1|29=5|1041=PPB-1582_002|996=Bbl|997=H|1147=100088434|1934=0|1116=2|1117=05B6OC1W7N8NJQRIYS63|1118=N|1119=116|1117=05B6OC1W7N8NJQRIYS63|1118=N|1119=1|15=EUR|120=GBP|1924=1|22600=550000000|22601=EUR|854=1|231=10|30=KBLM|10=053|8=FIXT.1.1|9=417|35=AE|34=36|49=APAQA2_Verion5|50=APA|57=APA|52=20180404-10:34:01.886|56=TRAX|571=TradeReport1|487=0|325=Y|423=22|55=[N/A]|48=DE000A2AAP11|22=4|32=869.09|31=8498.90|60=20180313-00:20:13.370|552=1|54=1|29=5|1041=PPB-1582_003|996=Bbl|997=H|1147=100088434|1934=0|1116=2|1117=05B6OC1W7N8NJQRIYS63|1118=N|1119=116|1117=05B6OC1W7N8NJQRIYS63|1118=N|1119=1|15=EUR|120=GBP|1924=1|22600=550000000|22601=EUR|854=1|231=10|30=KBLM|10=157|8=FIXT.1.1|9=413|35=AE|34=37|49=APAQA2_Verion5|50=APA|57=APA|52=20180404-10:34:15.779|56=TRAX|571=TradeReport1|487=0|325=Y|423=22|55=[N/A]|48=DE000A2AAP11|22=4|32=869.09|31=8498.90|60=20180313-00:20:13.370|552=1|54=1|29=5|1041=PPB-1582_004|996=Bbl|997=H|1147=100088434|1934=0|1116=2|1117=05B6OC1W7N8NJQRIYS63|1118=N|1119=116|1117=05B6OC1W7N8NJQRIYS63|1118=N|1119=1|15=EUR|120=GBP|1924=1|22600=55000|22601=EUR|854=1|231=10|30=KBLM|10=225|8=FIXT.1.1|9=62|35=0|34=38|49=APAQA2_Verion5|52=20180404-10:34:46.056|56=TRAX|10=056|8=FIXT.1.1|9=62|35=0|34=39|49=APAQA2_Verion5|52=20180404-10:35:17.012|56=TRAX|10=048|8=FIXT.1.1|9=62|35=0|34=40|49=APAQA2_Verion5|52=20180404-10:35:47.047|56=TRAX|10=051|8=FIXT.1.1|9=62|35=0|34=41|49=APAQA2_Verion5|52=20180404-10:36:17.049|56=TRAX|10=052|8=FIXT.1.1|9=62|35=0|34=42|49=APAQA2_Verion5|52=20180404-10:36:48.053|56=TRAX|10=052|8=FIXT.1.1|9=413|35=AE|34=43|49=APAQA2_Verion5|50=APA|57=APA|52=20180404-10:36:57.701|56=TRAX|571=TradeReport1|487=0|325=Y|423=22|55=[N/A]|48=DE000A2AAP11|22=4|32=869.09|31=8498.90|60=20180313-00:20:13.370|552=1|54=1|29=5|1041=PPB-1582_005|996=Bbl|997=H|1147=100088434|1934=0|1116=2|1117=05B6OC1W7N8NJQRIYS63|1118=N|1119=116|1117=05B6OC1W7N8NJQRIYS63|1118=N|1119=1|15=EUR|120=GBP|1924=1|22600=55000|22601=EUR|854=1|231=10|30=KBLM|10=216|8=FIXT.1.1|9=62|35=5|34=44|49=APAQA2_Verion5|52=20180404-10:37:13.054|56=TRAX|10=053|8=FIXT.1.1|9=103|35=A|34=1|49=APAQA2_Verion5|52=20180404-10:37:14.055|56=TRAX|98=0|108=30|95=8|96=2.0.0rc4|141=Y|1137=9|10=073|8=FIXT.1.1|9=412|35=AE|34=2|49=APAQA2_Verion5|50=APA|57=APA|52=20180404-10:37:26.599|56=TRAX|571=TradeReport1|487=0|325=Y|423=22|55=[N/A]|48=DE000A2AAP11|22=4|32=869.09|31=8498.90|60=20180313-00:20:13.370|552=1|54=1|29=5|1041=PPB-1582_006|996=Bbl|997=H|1147=100088434|1934=0|1116=2|1117=05B6OC1W7N8NJQRIYS63|1118=N|1119=116|1117=05B6OC1W7N8NJQRIYS63|1118=N|1119=1|15=EUR|120=GBP|1924=1|22600=55000|22601=EUR|854=1|231=10|30=KBLM|10=175|8=FIXT.1.1|9=61|35=0|34=3|49=APAQA2_Verion5|52=20180404-10:37:57.056|56=TRAX|10=004|8=FIXT.1.1|9=412|35=AE|34=4|49=APAQA2_Verion5|50=APA|57=APA|52=20180404-10:38:19.859|56=TRAX|571=TradeReport1|487=0|325=Y|423=22|55=[N/A]|48=DE000A2AAP11|22=4|32=869.09|31=8498.90|60=20180313-00:20:13.370|552=1|54=1|29=5|1041=PPB-1582_006|996=Bbl|997=H|1147=100088434|1934=0|1116=2|1117=05B6OC1W7N8NJQRIYS63|1118=N|1119=116|1117=05B6OC1W7N8NJQRIYS63|1118=N|1119=1|15=EUR|120=GBP|1924=1|22600=55000|22601=EUR|854=1|231=10|30=KBLM|10=179|8=FIXT.1.1|9=412|35=AE|34=5|49=APAQA2_Verion5|50=APA|57=APA|52=20180404-10:38:29.326|56=TRAX|571=TradeReport1|487=0|325=Y|423=22|55=[N/A]|48=DE000A2AAP11|22=4|32=869.09|31=8498.90|60=20180313-00:20:13.370|552=1|54=1|29=5|1041=PPB-1582_007|996=Bbl|997=H|1147=100088434|1934=0|1116=2|1117=05B6OC1W7N8NJQRIYS63|1118=N|1119=116|1117=05B6OC1W7N8NJQRIYS63|1118=N|1119=1|15=EUR|120=GBP|1924=1|22600=55000|22601=EUR|854=1|231=10|30=KBLM|10=171|8=FIXT.1.1|9=79|35=5|34=6|49=APAQA2_Verion5|52=20180404-10:38:46.014|56=TRAX|58=user requested|10=106|8=FIXT.1.1|9=103|35=A|34=1|49=APAQA2_Verion5|52=20180404-10:39:05.282|56=TRAX|98=0|108=30|95=8|96=2.0.0rc4|141=Y|1137=9|10=077|8=FIXT.1.1|9=412|35=AE|34=2|49=APAQA2_Verion5|50=APA|57=APA|52=20180404-10:39:15.985|56=TRAX|571=TradeReport1|487=0|325=Y|423=22|55=[N/A]|48=DE000A2AAP11|22=4|32=869.09|31=8498.90|60=20180313-00:20:13.370|552=1|54=1|29=5|1041=PPB-1582_008|996=Bbl|997=H|1147=100088434|1934=0|1116=2|1117=05B6OC1W7N8NJQRIYS63|1118=N|1119=116|1117=05B6OC1W7N8NJQRIYS63|1118=N|1119=1|15=EUR|120=GBP|1924=1|22600=55000|22601=EUR|854=1|231=10|30=KBLM|10=176|8=FIXT.1.1|9=61|35=0|34=3|49=APAQA2_Verion5|52=20180404-10:39:46.265|56=TRAX|10=006|8=FIXT.1.1|9=61|35=0|34=4|49=APAQA2_Verion5|52=20180404-10:40:16.275|56=TRAX|10=253|8=FIXT.1.1|9=61|35=0|34=5|49=APAQA2_Verion5|52=20180404-10:40:46.919|56=TRAX|10=006|8=FIXT.1.1|9=61|35=0|34=6|49=APAQA2_Verion5|52=20180404-10:41:16.990|56=TRAX|10=004|8=FIXT.1.1|9=61|35=0|34=7|49=APAQA2_Verion5|52=20180404-10:41:47.236|56=TRAX|10=002|8=FIXT.1.1|9=79|35=5|34=8|49=APAQA2_Verion5|52=20180404-10:41:56.236|56=TRAX|58=user requested|10=109|8=FIXT.1.1|9=103|35=A|34=1|49=APAQA2_Verion5|52=20180404-10:42:49.274|56=TRAX|98=0|108=30|95=8|96=2.0.0rc4|141=Y|1137=9|10=080|8=FIXT.1.1|9=412|35=AE|34=2|49=APAQA2_Verion5|50=APA|57=APA|52=20180404-10:42:57.926|56=TRAX|571=TradeReport1|487=0|325=Y|423=22|55=[N/A]|48=DE000A2AAP11|22=4|32=869.09|31=8498.90|60=20180313-00:20:13.370|552=1|54=1|29=5|1041=PPB-1582_009|996=Bbl|997=H|1147=100088434|1934=0|1116=2|1117=05B6OC1W7N8NJQRIYS63|1118=N|1119=116|1117=05B6OC1W7N8NJQRIYS63|1118=N|1119=1|15=EUR|120=GBP|1924=1|22600=55000|22601=EUR|854=1|231=10|30=KBLM|10=172|8=FIXT.1.1|9=61|35=0|34=3|49=APAQA2_Verion5|52=20180404-10:43:28.268|56=TRAX|10=004|8=FIXT.1.1|9=61|35=0|34=4|49=APAQA2_Verion5|52=20180404-10:43:58.271|56=TRAX|10=002|8=FIXT.1.1|9=61|35=0|34=5|49=APAQA2_Verion5|52=20180404-10:44:29.263|56=TRAX|10=003|8=FIXT.1.1|9=412|35=AE|34=6|49=APAQA2_Verion5|50=APA|57=APA|52=20180404-10:44:51.940|56=TRAX|571=TradeReport1|487=0|325=Y|423=22|55=[N/A]|48=DE000A2AAP11|22=4|32=869.09|31=8498.90|60=20180313-00:20:13.370|552=1|54=1|29=5|1041=PPB-1582_009|996=Bbl|997=H|1147=100088434|1934=0|1116=2|1117=05B6OC1W7N8NJQRIYS63|1118=N|1119=116|1117=05B6OC1W7N8NJQRIYS63|1118=N|1119=1|15=EUR|120=GBP|1924=1|22600=55000|22601=EUR|854=1|231=10|30=KBLM|10=168|8=FIXT.1.1|9=412|35=AE|34=7|49=APAQA2_Verion5|50=APA|57=APA|52=20180404-10:44:58.804|56=TRAX|571=TradeReport1|487=0|325=Y|423=22|55=[N/A]|48=DE000A2AAP11|22=4|32=869.09|31=8498.90|60=20180313-00:20:13.370|552=1|54=1|29=5|1041=PPB-1582_010|996=Bbl|997=H|1147=100088434|1934=0|1116=2|1117=05B6OC1W7N8NJQRIYS63|1118=N|1119=116|1117=05B6OC1W7N8NJQRIYS63|1118=N|1119=1|15=EUR|120=GBP|1924=1|22600=55000|22601=EUR|854=1|231=10|30=KBLM|10=167|8=FIXT.1.1|9=61|35=0|34=8|49=APAQA2_Verion5|52=20180404-10:45:29.271|56=TRAX|10=006|8=FIXT.1.1|9=61|35=0|34=9|49=APAQA2_Verion5|52=20180404-10:45:59.937|56=TRAX|10=019|8=FIXT.1.1|9=62|35=0|34=10|49=APAQA2_Verion5|52=20180404-10:46:30.265|56=TRAX|10=044|8=FIXT.1.1|9=62|35=0|34=11|49=APAQA2_Verion5|52=20180404-10:47:01.261|56=TRAX|10=040|8=FIXT.1.1|9=62|35=0|34=12|49=APAQA2_Verion5|52=20180404-10:47:31.267|56=TRAX|10=050|8=FIXT.1.1|9=62|35=0|34=13|49=APAQA2_Verion5|52=20180404-10:48:01.270|56=TRAX|10=043|8=FIXT.1.1|9=62|35=0|34=14|49=APAQA2_Verion5|52=20180404-10:48:32.261|56=TRAX|10=048|8=FIXT.1.1|9=62|35=0|34=15|49=APAQA2_Verion5|52=20180404-10:49:02.272|56=TRAX|10=049|8=FIXT.1.1|9=62|35=0|34=16|49=APAQA2_Verion5|52=20180404-10:49:32.272|56=TRAX|10=053|8=FIXT.1.1|9=62|35=0|34=17|49=APAQA2_Verion5|52=20180404-10:50:03.262|56=TRAX|10=043|8=FIXT.1.1|9=62|35=0|34=18|49=APAQA2_Verion5|52=20180404-10:50:33.263|56=TRAX|10=048|8=FIXT.1.1|9=62|35=0|34=19|49=APAQA2_Verion5|52=20180404-10:51:04.261|56=TRAX|10=046|8=FIXT.1.1|9=62|35=0|34=20|49=APAQA2_Verion5|52=20180404-10:51:34.265|56=TRAX|10=045|8=FIXT.1.1|9=62|35=0|34=21|49=APAQA2_Verion5|52=20180404-10:52:04.270|56=TRAX|10=040|8=FIXT.1.1|9=62|35=0|34=22|49=APAQA2_Verion5|52=20180404-10:52:35.261|56=TRAX|10=045|8=FIXT.1.1|9=62|35=0|34=23|49=APAQA2_Verion5|52=20180404-10:53:05.274|56=TRAX|10=048|8=FIXT.1.1|9=62|35=0|34=24|49=APAQA2_Verion5|52=20180404-10:53:36.266|56=TRAX|10=054|8=FIXT.1.1|9=62|35=0|34=25|49=APAQA2_Verion5|52=20180404-10:54:06.266|56=TRAX|10=053|8=FIXT.1.1|9=62|35=0|34=26|49=APAQA2_Verion5|52=20180404-10:54:37.251|56=TRAX|10=052|8=FIXT.1.1|9=62|35=0|34=27|49=APAQA2_Verion5|52=20180404-10:55:07.267|56=TRAX|10=058|8=FIXT.1.1|9=62|35=0|34=28|49=APAQA2_Verion5|52=20180404-10:55:38.231|56=TRAX|10=054|8=FIXT.1.1|9=62|35=0|34=29|49=APAQA2_Verion5|52=20180404-10:56:08.268|56=TRAX|10=063|8=FIXT.1.1|9=62|35=0|34=30|49=APAQA2_Verion5|52=20180404-10:56:38.270|56=TRAX|10=051|8=FIXT.1.1|9=62|35=0|34=31|49=APAQA2_Verion5|52=20180404-10:57:08.274|56=TRAX|10=054|8=FIXT.1.1|9=62|35=0|34=32|49=APAQA2_Verion5|52=20180404-10:57:39.262|56=TRAX|10=056|8=FIXT.1.1|9=62|35=0|34=33|49=APAQA2_Verion5|52=20180404-10:58:10.259|56=TRAX|10=053|8=FIXT.1.1|9=62|35=0|34=34|49=APAQA2_Verion5|52=20180404-10:58:40.269|56=TRAX|10=058|8=FIXT.1.1|9=62|35=0|34=35|49=APAQA2_Verion5|52=20180404-10:59:10.270|56=TRAX|10=049|8=FIXT.1.1|9=62|35=0|34=36|49=APAQA2_Verion5|52=20180404-10:59:41.270|56=TRAX|10=054|8=FIXT.1.1|9=62|35=0|34=37|49=APAQA2_Verion5|52=20180404-11:00:12.266|56=TRAX|10=045|8=FIXT.1.1|9=62|35=0|34=38|49=APAQA2_Verion5|52=20180404-11:00:42.271|56=TRAX|10=045|8=FIXT.1.1|9=62|35=0|34=39|49=APAQA2_Verion5|52=20180404-11:01:12.273|56=TRAX|10=046|8=FIXT.1.1|9=62|35=0|34=40|49=APAQA2_Verion5|52=20180404-11:01:43.260|56=TRAX|10=038|8=FIXT.1.1|9=62|35=0|34=41|49=APAQA2_Verion5|52=20180404-11:02:13.271|56=TRAX|10=039|8=FIXT.1.1|9=62|35=0|34=42|49=APAQA2_Verion5|52=20180404-11:02:44.274|56=TRAX|10=047|8=FIXT.1.1|9=62|35=0|34=43|49=APAQA2_Verion5|52=20180404-11:03:15.233|56=TRAX|10=042|8=FIXT.1.1|9=62|35=0|34=44|49=APAQA2_Verion5|52=20180404-11:03:46.231|56=TRAX|10=045|8=FIXT.1.1|9=62|35=0|34=45|49=APAQA2_Verion5|52=20180404-11:04:16.262|56=TRAX|10=048|8=FIXT.1.1|9=62|35=0|34=46|49=APAQA2_Verion5|52=20180404-11:04:46.267|56=TRAX|10=057|8=FIXT.1.1|9=62|35=0|34=47|49=APAQA2_Verion5|52=20180404-11:05:16.275|56=TRAX|10=055|8=FIXT.1.1|9=62|35=0|34=48|49=APAQA2_Verion5|52=20180404-11:05:47.274|56=TRAX|10=059|8=FIXT.1.1|9=62|35=0|34=49|49=APAQA2_Verion5|52=20180404-11:06:17.274|56=TRAX|10=058|8=FIXT.1.1|9=62|35=0|34=50|49=APAQA2_Verion5|52=20180404-11:06:48.268|56=TRAX|10=057|8=FIXT.1.1|9=62|35=0|34=51|49=APAQA2_Verion5|52=20180404-11:07:19.264|56=TRAX|10=053|8=FIXT.1.1|9=62|35=0|34=52|49=APAQA2_Verion5|52=20180404-11:07:49.277|56=TRAX|10=061|8=FIXT.1.1|9=62|35=0|34=53|49=APAQA2_Verion5|52=20180404-11:08:20.276|56=TRAX|10=051|8=FIXT.1.1|9=62|35=0|34=54|49=APAQA2_Verion5|52=20180404-11:08:50.276|56=TRAX|10=055|8=FIXT.1.1|9=62|35=0|34=55|49=APAQA2_Verion5|52=20180404-11:09:20.278|56=TRAX|10=056|8=FIXT.1.1|9=62|35=0|34=56|49=APAQA2_Verion5|52=20180404-11:09:51.244|56=TRAX|10=054|8=FIXT.1.1|9=62|35=0|34=57|49=APAQA2_Verion5|52=20180404-11:10:21.276|56=TRAX|10=049|8=FIXT.1.1|9=62|35=0|34=58|49=APAQA2_Verion5|52=20180404-11:10:52.257|56=TRAX|10=053|8=FIXT.1.1|9=62|35=0|34=59|49=APAQA2_Verion5|52=20180404-11:11:22.269|56=TRAX|10=055|8=FIXT.1.1|9=62|35=0|34=60|49=APAQA2_Verion5|52=20180404-11:11:52.278|56=TRAX|10=050|8=FIXT.1.1|9=62|35=0|34=61|49=APAQA2_Verion5|52=20180404-11:12:23.259|56=TRAX|10=049|8=FIXT.1.1|9=62|35=0|34=62|49=APAQA2_Verion5|52=20180404-11:12:53.263|56=TRAX|10=048|8=FIXT.1.1|9=62|35=0|34=63|49=APAQA2_Verion5|52=20180404-11:13:23.276|56=TRAX|10=051|8=FIXT.1.1|9=62|35=0|34=64|49=APAQA2_Verion5|52=20180404-11:13:54.260|56=TRAX|10=049|8=FIXT.1.1|9=62|35=0|34=65|49=APAQA2_Verion5|52=20180404-11:14:24.265|56=TRAX|10=053|8=FIXT.1.1|9=62|35=0|34=66|49=APAQA2_Verion5|52=20180404-11:14:54.270|56=TRAX|10=053|8=FIXT.1.1|9=62|35=0|34=67|49=APAQA2_Verion5|52=20180404-11:15:25.272|56=TRAX|10=055|8=FIXT.1.1|9=62|35=0|34=68|49=APAQA2_Verion5|52=20180404-11:15:55.276|56=TRAX|10=063|8=FIXT.1.1|9=62|35=0|34=69|49=APAQA2_Verion5|52=20180404-11:16:26.273|56=TRAX|10=060|8=FIXT.1.1|9=62|35=0|34=70|49=APAQA2_Verion5|52=20180404-11:16:56.273|56=TRAX|10=055|8=FIXT.1.1|9=80|35=5|34=71|49=APAQA2_Verion5|52=20180404-11:17:02.270|56=TRAX|58=user requested|10=142|8=FIXT.1.1|9=103|35=A|34=1|49=APAQA2_Verion5|52=20180404-11:22:48.280|56=TRAX|98=0|108=30|95=8|96=2.0.0rc4|141=Y|1137=9|10=075|8=FIXT.1.1|9=413|35=AE|34=2|49=APAQA2_Verion5|50=APA|57=APA|52=20180404-11:23:07.890|56=TRAX|571=TradeReport1|487=0|325=Y|423=22|55=[N/A]|48=DE000A2AAP11|22=4|32=869.09|31=8498.90|60=20180313-00:20:13.370|552=1|54=1|29=5|1041=PPB-1582_033|996=Bbl|997=H|1147=100088434|1934=0|1116=2|1117=05B6OC1W7N8NJQRIYS63|1118=N|1119=116|1117=05B6OC1W7N8NJQRIYS63|1118=N|1119=17|15=EUR|120=GBP|1924=1|22600=55000|22601=EUR|854=1|231=10|30=KBLM|10=220|8=FIXT.1.1|9=61|35=0|34=3|49=APAQA2_Verion5|52=20180404-11:23:38.283|56=TRAX|10=001|8=FIXT.1.1|9=453|35=AE|34=4|49=APAQA2_Verion5|50=APA|57=APA|52=20180404-11:23:44.063|56=TRAX|571=TradeReport1|487=0|325=Y|423=22|55=[N/A]|48=DE000A2AAP11|22=4|32=869.09|31=8498.90|60=20180313-00:20:13.370|552=1|54=1|29=5|1041=PPB-1582_034|996=Bbl|997=H|1147=100088434|1934=0|1116=2|1117=05B6OC1W7N8NJQRIYS63|1118=N|1119=116|1117=05B6OC1W7N8NJQRIYS63|1118=N|1119=17|1117=05B6OC1W7N8NJQRIYS63|1118=N|1119=1|15=EUR|120=GBP|1924=1|22600=55000|22601=EUR|854=1|231=10|30=KBLM|10=196|8=FIXT.1.1|9=61|35=0|34=5|49=APAQA2_Verion5|52=20180404-11:24:14.265|56=TRAX|10=254|8=FIXT.1.1|9=61|35=0|34=6|49=APAQA2_Verion5|52=20180404-11:24:44.277|56=TRAX|10=005|8=FIXT.1.1|9=70|35=2|34=7|49=APAQA2_Verion5|52=20180404-11:24:44.449|56=TRAX|7=5|16=0|10=136|8=FIXT.1.1|9=371|35=AE|34=8|49=APAQA2_Verion5|50=APA|57=APA|52=20180404-11:25:14.281|56=TRAX|571=TradeReport1|487=0|325=Y|423=22|55=[N/A]|48=DE000A2AAP11|22=4|32=869.09|31=8498.90|60=20180313-00:20:13.370|552=1|54=1|29=5|1041=PPB-1582_034|996=Bbl|997=H|1147=100088434|1934=0|1116=1|1117=05B6OC1W7N8NJQRIYS63|1118=N|1119=17|15=EUR|120=GBP|1924=1|22600=55000|22601=EUR|854=1|231=10|30=KBLM|10=145|8=FIXT.1.1|9=79|35=5|34=9|49=APAQA2_Verion5|52=20180404-11:25:23.248|56=TRAX|58=user requested|10=110|8=FIXT.1.1|9=103|35=A|34=1|49=APAQA2_Verion5|52=20180404-11:25:35.088|56=TRAX|98=0|108=30|95=8|96=2.0.0rc4|141=Y|1137=9|10=080|8=FIXT.1.1|9=371|35=AE|34=2|49=APAQA2_Verion5|50=APA|57=APA|52=20180404-11:25:46.844|56=TRAX|571=TradeReport1|487=0|325=Y|423=22|55=[N/A]|48=DE000A2AAP11|22=4|32=869.09|31=8498.90|60=20180313-00:20:13.370|552=1|54=1|29=5|1041=PPB-1582_035|996=Bbl|997=H|1147=100088434|1934=0|1116=1|1117=05B6OC1W7N8NJQRIYS63|1118=N|1119=17|15=EUR|120=GBP|1924=1|22600=55000|22601=EUR|854=1|231=10|30=KBLM|10=150|8=FIXT.1.1|9=61|35=0|34=3|49=APAQA2_Verion5|52=20180404-11:26:17.083|56=TRAX|10=255|8=FIXT.1.1|9=453|35=AE|34=4|49=APAQA2_Verion5|50=APA|57=APA|52=20180404-11:26:23.001|56=TRAX|571=TradeReport1|487=0|325=Y|423=22|55=[N/A]|48=DE000A2AAP11|22=4|32=869.09|31=8498.90|60=20180313-00:20:13.370|552=1|54=1|29=5|1041=PPB-1582_036|996=Bbl|997=H|1147=100088434|1934=0|1116=3|1117=05B6OC1W7N8NJQRIYS63|1118=N|1119=17|1117=05B6OC1W7N8NJQRIYS63|1118=N|1119=1|1117=05B6OC1W7N8NJQRIYS63|1118=N|1119=116|15=EUR|120=GBP|1924=1|22600=55000|22601=EUR|854=1|231=10|30=KBLM|10=190|8=FIXT.1.1|9=61|35=0|34=5|49=APAQA2_Verion5|52=20180404-11:26:53.076|56=TRAX|10=003|8=FIXT.1.1|9=61|35=0|34=6|49=APAQA2_Verion5|52=20180404-11:27:23.081|56=TRAX|10=254|8=FIXT.1.1|9=61|35=0|34=7|49=APAQA2_Verion5|52=20180404-11:27:53.093|56=TRAX|10=005|8=FIXT.1.1|9=61|35=0|34=8|49=APAQA2_Verion5|52=20180404-11:28:23.093|56=TRAX|10=004|8=FIXT.1.1|9=61|35=0|34=9|49=APAQA2_Verion5|52=20180404-11:28:54.086|56=TRAX|10=011|8=FIXT.1.1|9=62|35=0|34=10|49=APAQA2_Verion5|52=20180404-11:29:24.094|56=TRAX|10=049|8=FIXT.1.1|9=62|35=0|34=11|49=APAQA2_Verion5|52=20180404-11:29:54.097|56=TRAX|10=056|8=FIXT.1.1|9=62|35=0|34=12|49=APAQA2_Verion5|52=20180404-11:30:25.087|56=TRAX|10=046|8=FIXT.1.1|9=62|35=0|34=13|49=APAQA2_Verion5|52=20180404-11:30:56.034|56=TRAX|10=043|8=FIXT.1.1|9=62|35=0|34=14|49=APAQA2_Verion5|52=20180404-11:31:26.052|56=TRAX|10=042|8=FIXT.1.1|9=62|35=0|34=15|49=APAQA2_Verion5|52=20180404-11:31:56.052|56=TRAX|10=046|8=FIXT.1.1|9=62|35=0|34=16|49=APAQA2_Verion5|52=20180404-11:32:26.095|56=TRAX|10=052|8=FIXT.1.1|9=62|35=0|34=17|49=APAQA2_Verion5|52=20180404-11:32:57.091|56=TRAX|10=053|8=FIXT.1.1|9=307|35=AE|34=18|49=APAQA2_Verion5|50=APA|57=APA|52=20180404-11:33:25.409|56=TRAX|571=TradeReport1|487=0|325=Y|423=22|55=[N/A]|48=DE000A2AAP11|22=4|32=869.09|31=8498.90|60=20180313-00:20:13.370|552=1|54=1|29=5|1041=PPB-1582_037|996=Bbl|997=H|1147=100088434|1934=0|1116=3|1117=05B6OC1W7N8NJQRIYS63|1118=N|1119=17|10=237|8=FIXT.1.1|9=71|35=0|34=19|49=APAQA2_Verion5|52=20180404-11:33:43.068|56=TRAX|112=TEST|10=073|8=FIXT.1.1|9=307|35=AE|34=20|49=APAQA2_Verion5|50=APA|57=APA|52=20180404-11:33:43.677|56=TRAX|571=TradeReport1|487=0|325=Y|423=22|55=[N/A]|48=DE000A2AAP11|22=4|32=869.09|31=8498.90|60=20180313-00:20:13.370|552=1|54=1|29=5|1041=PPB-1582_038|996=Bbl|997=H|1147=100088434|1934=0|1116=3|1117=05B6OC1W7N8NJQRIYS63|1118=N|1119=17|10=238|8=FIXT.1.1|9=62|35=0|34=21|49=APAQA2_Verion5|52=20180404-11:34:14.036|56=TRAX|10=042|8=FIXT.1.1|9=464|35=AE|34=22|49=APAQA2_Verion5|50=APA|57=APA|52=20180404-11:34:33.771|56=TRAX|571=TradeReport1|487=0|325=Y|423=22|55=[N/A]|48=DE000A2AAP11|22=4|32=869.09|31=8498.90|60=20180313-00:20:13.370|552=1|54=1|29=5|1041=PPB-1582_041|996=Bbl|997=H|1147=100088434|1934=0|1116=3|1117=05B6OC1W7N8NJQRIYS63|1118=N|1119=17|1117=05B6OC1W7N8NJQRIYS63|1118=N|1119=1|1117=05B6OC1W7N8NJQRIYS63|1118=N|1119=116|15=EUR|120=GBP|1924=1|22505=USD|22600=55000|22601=EUR|854=1|231=10|30=KBLM|10=034|8=FIXT.1.1|9=454|35=AE|34=23|49=APAQA2_Verion5|50=APA|57=APA|52=20180404-11:34:44.119|56=TRAX|571=TradeReport1|487=0|325=Y|423=22|55=[N/A]|48=DE000A2AAP11|22=4|32=869.09|31=8498.90|60=20180313-00:20:13.370|552=1|54=1|29=5|1041=PPB-1582_042|996=Bbl|997=H|1147=100088434|1934=0|1116=3|1117=05B6OC1W7N8NJQRIYS63|1118=N|1119=17|1117=05B6OC1W7N8NJQRIYS63|1118=N|1119=1|1117=05B6OC1W7N8NJQRIYS63|1118=N|1119=116|15=EUR|120=GBP|1924=1|22600=55000|22601=EUR|854=1|231=10|30=KBLM|10=249|8=FIXT.1.1|9=62|35=0|34=24|49=APAQA2_Verion5|52=20180404-11:35:15.086|56=TRAX|10=052|8=FIXT.1.1|9=62|35=0|34=25|49=APAQA2_Verion5|52=20180404-11:35:46.091|56=TRAX|10=053|8=FIXT.1.1|9=62|35=0|34=26|49=APAQA2_Verion5|52=20180404-11:36:17.034|56=TRAX|10=050|8=FIXT.1.1|9=62|35=0|34=27|49=APAQA2_Verion5|52=20180404-11:36:47.050|56=TRAX|10=052|8=FIXT.1.1|9=464|35=AE|34=28|49=APAQA2_Verion5|50=APA|57=APA|52=20180404-11:37:03.076|56=TRAX|571=TradeReport1|487=0|325=Y|423=22|55=[N/A]|48=DE000A2AAP11|22=4|32=869.09|31=8498.90|60=20180313-00:20:13.370|22505=USD|552=1|54=1|29=5|1041=PPB-1582_042|996=Bbl|997=H|1147=100088434|1934=0|1116=3|1117=05B6OC1W7N8NJQRIYS63|1118=N|1119=17|1117=05B6OC1W7N8NJQRIYS63|1118=N|1119=1|1117=05B6OC1W7N8NJQRIYS63|1118=N|1119=116|15=EUR|120=GBP|1924=1|22600=55000|22601=EUR|854=1|231=10|30=KBLM|10=039|8=FIXT.1.1|9=464|35=AE|34=29|49=APAQA2_Verion5|50=APA|57=APA|52=20180404-11:37:18.352|56=TRAX|571=TradeReport1|487=0|325=Y|423=22|55=[N/A]|48=DE000A2AAP11|22=4|32=869.09|31=8498.90|60=20180313-00:20:13.370|552=1|54=1|29=5|1041=PPB-1582_042|22505=USD|996=Bbl|997=H|1147=100088434|1934=0|1116=3|1117=05B6OC1W7N8NJQRIYS63|1118=N|1119=17|1117=05B6OC1W7N8NJQRIYS63|1118=N|1119=1|1117=05B6OC1W7N8NJQRIYS63|1118=N|1119=116|15=EUR|120=GBP|1924=1|22600=55000|22601=EUR|854=1|231=10|30=KBLM|10=043|8=FIXT.1.1|9=464|35=AE|34=30|49=APAQA2_Verion5|50=APA|57=APA|52=20180404-11:37:29.345|56=TRAX|571=TradeReport1|487=0|325=Y|423=22|55=[N/A]|48=DE000A2AAP11|22=4|32=869.09|31=8498.90|60=20180313-00:20:13.370|552=1|54=1|29=5|1041=PPB-1582_042|996=Bbl|997=H|1147=100088434|1934=0|22505=USD|1116=3|1117=05B6OC1W7N8NJQRIYS63|1118=N|1119=17|1117=05B6OC1W7N8NJQRIYS63|1118=N|1119=1|1117=05B6OC1W7N8NJQRIYS63|1118=N|1119=116|15=EUR|120=GBP|1924=1|22600=55000|22601=EUR|854=1|231=10|30=KBLM|10=039|8=FIXT.1.1|9=71|35=0|34=31|49=APAQA2_Verion5|52=20180404-11:37:33.050|56=TRAX|112=TEST|10=061|8=FIXT.1.1|9=464|35=AE|34=32|49=APAQA2_Verion5|50=APA|57=APA|52=20180404-11:37:42.180|56=TRAX|571=TradeReport1|487=0|325=Y|423=22|55=[N/A]|48=DE000A2AAP11|22=4|32=869.09|31=8498.90|60=20180313-00:20:13.370|552=1|54=1|29=5|1041=PPB-1582_042|996=Bbl|997=H|1147=100088434|1934=0|1116=3|1117=05B6OC1W7N8NJQRIYS63|1118=N|1119=17|1117=05B6OC1W7N8NJQRIYS63|1118=N|1119=1|1117=05B6OC1W7N8NJQRIYS63|1118=N|1119=116|15=EUR|120=GBP|1924=1|22600=55000|22601=EUR|854=1|231=10|30=KBLM|22505=USD|10=033|8=FIXT.1.1|9=464|35=AE|34=33|49=APAQA2_Verion5|50=APA|57=APA|52=20180404-11:38:00.095|56=TRAX|571=TradeReport1|487=0|325=Y|423=22|55=[N/A]|48=DE000A2AAP11|22=4|32=869.09|31=8498.90|60=20180313-00:20:13.370|552=1|54=1|29=5|1041=PPB-1582_042|996=Bbl|997=H|1147=100088434|1934=0|1116=3|1117=05B6OC1W7N8NJQRIYS63|1118=N|1119=17|1117=05B6OC1W7N8NJQRIYS63|1118=N|1119=1|1117=05B6OC1W7N8NJQRIYS63|1118=N|1119=116|15=EUR|120=GBP|1924=1|22600=55000|22601=EUR|854=1|231=10|22505=USD|30=KBLM|10=034|8=FIXT.1.1|9=464|35=AE|34=34|49=APAQA2_Verion5|50=APA|57=APA|52=20180404-11:38:13.573|56=TRAX|571=TradeReport1|487=0|325=Y|423=22|55=[N/A]|48=DE000A2AAP11|22=4|32=869.09|31=8498.90|60=20180313-00:20:13.370|552=1|54=1|29=5|1041=PPB-1582_042|996=Bbl|997=H|1147=100088434|1934=0|1116=3|1117=05B6OC1W7N8NJQRIYS63|1118=N|1119=17|1117=05B6OC1W7N8NJQRIYS63|1118=N|1119=1|1117=05B6OC1W7N8NJQRIYS63|1118=N|1119=116|22505=USD|15=EUR|120=GBP|1924=1|22600=55000|22601=EUR|854=1|231=10|30=KBLM|10=040|8=FIXT.1.1|9=71|35=0|34=35|49=APAQA2_Verion5|52=20180404-11:38:19.054|56=TRAX|112=TEST|10=074|8=FIXT.1.1|9=464|35=AE|34=36|49=APAQA2_Verion5|50=APA|57=APA|52=20180404-11:38:21.548|56=TRAX|571=TradeReport1|487=0|325=Y|423=22|55=[N/A]|48=DE000A2AAP11|22=4|32=869.09|31=8498.90|60=20180313-00:20:13.370|552=1|54=1|29=5|1041=PPB-1582_042|996=Bbl|997=H|1147=100088434|1934=0|1116=3|1117=05B6OC1W7N8NJQRIYS63|1118=N|1119=17|1117=05B6OC1W7N8NJQRIYS63|1118=N|1119=1|1117=05B6OC1W7N8NJQRIYS63|1118=N|1119=116|15=EUR|22505=USD|120=GBP|1924=1|22600=55000|22601=EUR|854=1|231=10|30=KBLM|10=043|8=FIXT.1.1|9=464|35=AE|34=37|49=APAQA2_Verion5|50=APA|57=APA|52=20180404-11:38:32.388|56=TRAX|571=TradeReport1|487=0|325=Y|423=22|55=[N/A]|48=DE000A2AAP11|22=4|32=869.09|31=8498.90|60=20180313-00:20:13.370|552=1|54=1|29=5|22505=USD|1041=PPB-1582_042|996=Bbl|997=H|1147=100088434|1934=0|1116=3|1117=05B6OC1W7N8NJQRIYS63|1118=N|1119=17|1117=05B6OC1W7N8NJQRIYS63|1118=N|1119=1|1117=05B6OC1W7N8NJQRIYS63|1118=N|1119=116|15=EUR|120=GBP|1924=1|22600=55000|22601=EUR|854=1|231=10|30=KBLM|10=048|8=FIXT.1.1|9=464|35=AE|34=38|49=APAQA2_Verion5|50=APA|57=APA|52=20180404-11:38:41.551|56=TRAX|571=TradeReport1|487=0|325=Y|423=22|55=[N/A]|48=DE000A2AAP11|22505=USD|22=4|32=869.09|31=8498.90|60=20180313-00:20:13.370|552=1|54=1|29=5|1041=PPB-1582_042|996=Bbl|997=H|1147=100088434|1934=0|1116=3|1117=05B6OC1W7N8NJQRIYS63|1118=N|1119=17|1117=05B6OC1W7N8NJQRIYS63|1118=N|1119=1|1117=05B6OC1W7N8NJQRIYS63|1118=N|1119=116|15=EUR|120=GBP|1924=1|22600=55000|22601=EUR|854=1|231=10|30=KBLM|10=041|8=FIXT.1.1|9=71|35=0|34=39|49=APAQA2_Verion5|52=20180404-11:39:05.056|56=TRAX|112=TEST|10=076|8=FIXT.1.1|9=464|35=AE|34=40|49=APAQA2_Verion5|50=APA|57=APA|52=20180404-11:39:20.563|56=TRAX|571=TradeReport1|487=0|325=Y|423=22|55=[N/A]|48=DE000A2AAP11|22=4|22505=USD|32=869.09|31=8498.90|60=20180313-00:20:13.370|552=1|54=1|29=5|1041=PPB-1582_042|996=Bbl|997=H|1147=100088434|1934=0|1116=3|1117=05B6OC1W7N8NJQRIYS63|1118=N|1119=17|1117=05B6OC1W7N8NJQRIYS63|1118=N|1119=1|1117=05B6OC1W7N8NJQRIYS63|1118=N|1119=116|15=EUR|120=GBP|1924=1|22600=55000|22601=EUR|854=1|231=10|30=KBLM|10=035|8=FIXT.1.1|9=464|35=AE|34=41|49=APAQA2_Verion5|50=APA|57=APA|52=20180404-11:39:35.148|56=TRAX|571=TradeReport1|487=0|325=Y|423=22|55=[N/A]|48=DE000A2AAP11|22=4|32=869.09|22505=USD|31=8498.90|60=20180313-00:20:13.370|552=1|54=1|29=5|1041=PPB-1582_042|996=Bbl|997=H|1147=100088434|1934=0|1116=3|1117=05B6OC1W7N8NJQRIYS63|1118=N|1119=17|1117=05B6OC1W7N8NJQRIYS63|1118=N|1119=1|1117=05B6OC1W7N8NJQRIYS63|1118=N|1119=116|15=EUR|120=GBP|1924=1|22600=55000|22601=EUR|854=1|231=10|30=KBLM|10=041|8=FIXT.1.1|9=464|35=AE|34=42|49=APAQA2_Verion5|50=APA|57=APA|52=20180404-11:39:42.801|56=TRAX|571=TradeReport1|487=0|325=Y|423=22|55=[N/A]|48=DE000A2AAP11|22=4|32=869.09|31=8498.90|22505=USD|60=20180313-00:20:13.370|552=1|54=1|29=5|1041=PPB-1582_042|996=Bbl|997=H|1147=100088434|1934=0|1116=3|1117=05B6OC1W7N8NJQRIYS63|1118=N|1119=17|1117=05B6OC1W7N8NJQRIYS63|1118=N|1119=1|1117=05B6OC1W7N8NJQRIYS63|1118=N|1119=116|15=EUR|120=GBP|1924=1|22600=55000|22601=EUR|854=1|231=10|30=KBLM|10=036|8=FIXT.1.1|9=71|35=0|34=43|49=APAQA2_Verion5|52=20180404-11:39:51.037|56=TRAX|112=TEST|10=071|8=FIXT.1.1|9=464|35=AE|34=44|49=APAQA2_Verion5|50=APA|57=APA|52=20180404-11:39:59.456|56=TRAX|571=TradeReport1|487=0|325=Y|423=22|55=[N/A]|48=DE000A2AAP11|22=4|32=869.09|31=8498.90|60=20180313-00:20:13.370|22505=USD|552=1|54=1|29=5|1041=PPB-1582_042|996=Bbl|997=H|1147=100088434|1934=0|1116=3|1117=05B6OC1W7N8NJQRIYS63|1118=N|1119=17|1117=05B6OC1W7N8NJQRIYS63|1118=N|1119=1|1117=05B6OC1W7N8NJQRIYS63|1118=N|1119=116|15=EUR|120=GBP|1924=1|22600=55000|22601=EUR|854=1|231=10|30=KBLM|10=052|8=FIXT.1.1|9=464|35=AE|34=45|49=APAQA2_Verion5|50=APA|57=APA|52=20180404-11:40:08.182|56=TRAX|571=TradeReport1|487=0|325=Y|423=22|55=[N/A]|48=DE000A2AAP11|22=4|32=869.09|31=8498.90|60=20180313-00:20:13.370|552=1|22505=USD|54=1|29=5|1041=PPB-1582_042|996=Bbl|997=H|1147=100088434|1934=0|1116=3|1117=05B6OC1W7N8NJQRIYS63|1118=N|1119=17|1117=05B6OC1W7N8NJQRIYS63|1118=N|1119=1|1117=05B6OC1W7N8NJQRIYS63|1118=N|1119=116|15=EUR|120=GBP|1924=1|22600=55000|22601=EUR|854=1|231=10|30=KBLM|10=035|8=FIXT.1.1|9=464|35=AE|34=46|49=APAQA2_Verion5|50=APA|57=APA|52=20180404-11:40:20.752|56=TRAX|571=TradeReport1|487=0|325=Y|423=22|55=[N/A]|48=DE000A2AAP11|22=4|32=869.09|31=8498.90|60=20180313-00:20:13.370|552=1|54=1|22505=USD|29=5|1041=PPB-1582_042|996=Bbl|997=H|1147=100088434|1934=0|1116=3|1117=05B6OC1W7N8NJQRIYS63|1118=N|1119=17|1117=05B6OC1W7N8NJQRIYS63|1118=N|1119=1|1117=05B6OC1W7N8NJQRIYS63|1118=N|1119=116|15=EUR|120=GBP|1924=1|22600=55000|22601=EUR|854=1|231=10|30=KBLM|10=033|8=FIXT.1.1|9=464|35=AE|34=47|49=APAQA2_Verion5|50=APA|57=APA|52=20180404-11:40:29.990|56=TRAX|571=TradeReport1|487=0|325=Y|423=22|55=[N/A]|48=DE000A2AAP11|22=4|32=869.09|31=8498.90|60=20180313-00:20:13.370|552=1|54=1|29=5|22505=USD|1041=PPB-1582_042|996=Bbl|997=H|1147=100088434|1934=0|1116=3|1117=05B6OC1W7N8NJQRIYS63|1118=N|1119=17|1117=05B6OC1W7N8NJQRIYS63|1118=N|1119=1|1117=05B6OC1W7N8NJQRIYS63|1118=N|1119=116|15=EUR|120=GBP|1924=1|22600=55000|22601=EUR|854=1|231=10|30=KBLM|10=047|8=FIXT.1.1|9=71|35=0|34=48|49=APAQA2_Verion5|52=20180404-11:40:37.045|56=TRAX|112=TEST|10=071|8=FIXT.1.1|9=464|35=AE|34=49|49=APAQA2_Verion5|50=APA|57=APA|52=20180404-11:40:41.791|56=TRAX|571=TradeReport1|487=0|325=Y|423=22|55=[N/A]|48=DE000A2AAP11|22=4|32=869.09|31=8498.90|60=20180313-00:20:13.370|552=1|54=1|29=5|1041=PPB-1582_042|22505=USD|996=Bbl|997=H|1147=100088434|1934=0|1116=3|1117=05B6OC1W7N8NJQRIYS63|1118=N|1119=17|1117=05B6OC1W7N8NJQRIYS63|1118=N|1119=1|1117=05B6OC1W7N8NJQRIYS63|1118=N|1119=116|15=EUR|120=GBP|1924=1|22600=55000|22601=EUR|854=1|231=10|30=KBLM|10=042|8=FIXT.1.1|9=464|35=AE|34=50|49=APAQA2_Verion5|50=APA|57=APA|52=20180404-11:40:52.709|56=TRAX|571=TradeReport1|487=0|325=Y|423=22|55=[N/A]|48=DE000A2AAP11|22=4|32=869.09|31=8498.90|60=20180313-00:20:13.370|552=1|54=1|29=5|1041=PPB-1582_042|996=Bbl|22505=USD|997=H|1147=100088434|1934=0|1116=3|1117=05B6OC1W7N8NJQRIYS63|1118=N|1119=17|1117=05B6OC1W7N8NJQRIYS63|1118=N|1119=1|1117=05B6OC1W7N8NJQRIYS63|1118=N|1119=116|15=EUR|120=GBP|1924=1|22600=55000|22601=EUR|854=1|231=10|30=KBLM|10=035|8=FIXT.1.1|9=464|35=AE|34=51|49=APAQA2_Verion5|50=APA|57=APA|52=20180404-11:41:03.868|56=TRAX|571=TradeReport1|487=0|325=Y|423=22|55=[N/A]|48=DE000A2AAP11|22=4|32=869.09|31=8498.90|60=20180313-00:20:13.370|552=1|54=1|29=5|1041=PPB-1582_042|996=Bbl|997=H|22505=USD|1147=100088434|1934=0|1116=3|1117=05B6OC1W7N8NJQRIYS63|1118=N|1119=17|1117=05B6OC1W7N8NJQRIYS63|1118=N|1119=1|1117=05B6OC1W7N8NJQRIYS63|1118=N|1119=116|15=EUR|120=GBP|1924=1|22600=55000|22601=EUR|854=1|231=10|30=KBLM|10=039|8=FIXT.1.1|9=464|35=AE|34=52|49=APAQA2_Verion5|50=APA|57=APA|52=20180404-11:41:12.925|56=TRAX|571=TradeReport1|487=0|325=Y|423=22|55=[N/A]|48=DE000A2AAP11|22=4|32=869.09|31=8498.90|60=20180313-00:20:13.370|552=1|54=1|29=5|1041=PPB-1582_042|996=Bbl|997=H|1147=100088434|22505=USD|1934=0|1116=3|1117=05B6OC1W7N8NJQRIYS63|1118=N|1119=17|1117=05B6OC1W7N8NJQRIYS63|1118=N|1119=1|1117=05B6OC1W7N8NJQRIYS63|1118=N|1119=116|15=EUR|120=GBP|1924=1|22600=55000|22601=EUR|854=1|231=10|30=KBLM|10=034|8=FIXT.1.1|9=71|35=0|34=53|49=APAQA2_Verion5|52=20180404-11:41:23.029|56=TRAX|112=TEST|10=065|8=FIXT.1.1|9=464|35=AE|34=54|49=APAQA2_Verion5|50=APA|57=APA|52=20180404-11:41:23.078|56=TRAX|571=TradeReport1|487=0|325=Y|423=22|55=[N/A]|48=DE000A2AAP11|22=4|32=869.09|31=8498.90|60=20180313-00:20:13.370|552=1|54=1|29=5|1041=PPB-1582_042|996=Bbl|997=H|1147=100088434|1934=0|22505=USD|1116=3|1117=05B6OC1W7N8NJQRIYS63|1118=N|1119=17|1117=05B6OC1W7N8NJQRIYS63|1118=N|1119=1|1117=05B6OC1W7N8NJQRIYS63|1118=N|1119=116|15=EUR|120=GBP|1924=1|22600=55000|22601=EUR|854=1|231=10|30=KBLM|10=037|8=FIXT.1.1|9=317|35=AE|34=55|49=APAQA2_Verion5|50=APA|57=APA|52=20180404-11:41:35.285|56=TRAX|571=TradeReport1|487=0|325=Y|423=22|55=[N/A]|48=DE000A2AAP11|22=4|32=869.09|31=8498.90|60=20180313-00:20:13.370|552=1|54=1|29=5|1041=PPB-1582_042|996=Bbl|997=H|1147=100088434|1934=0|1116=3|22505=USD|1117=05B6OC1W7N8NJQRIYS63|1118=N|1119=17|10=021|8=FIXT.1.1|9=464|35=AE|34=56|49=APAQA2_Verion5|50=APA|57=APA|52=20180404-11:41:50.141|56=TRAX|571=TradeReport1|487=0|325=Y|423=22|55=[N/A]|48=DE000A2AAP11|22=4|32=869.09|31=8498.90|60=20180313-00:20:13.370|552=1|54=1|29=5|1041=PPB-1582_042|996=Bbl|997=H|1147=100088434|1934=0|1116=3|1117=05B6OC1W7N8NJQRIYS63|1118=N|1119=17|1117=05B6OC1W7N8NJQRIYS63|1118=N|1119=1|1117=05B6OC1W7N8NJQRIYS63|1118=N|1119=116|15=EUR|120=GBP|22505=USD|1924=1|22600=55000|22601=EUR|854=1|231=10|30=KBLM|10=030|8=FIXT.1.1|9=464|35=AE|34=57|49=APAQA2_Verion5|50=APA|57=APA|52=20180404-11:41:56.665|56=TRAX|571=TradeReport1|487=0|325=Y|423=22|55=[N/A]|48=DE000A2AAP11|22=4|32=869.09|31=8498.90|60=20180313-00:20:13.370|552=1|54=1|29=5|1041=PPB-1582_042|996=Bbl|997=H|1147=100088434|1934=0|1116=3|1117=05B6OC1W7N8NJQRIYS63|1118=N|1119=17|1117=05B6OC1W7N8NJQRIYS63|1118=N|1119=1|1117=05B6OC1W7N8NJQRIYS63|1118=N|1119=116|15=EUR|120=GBP|1924=1|22505=USD|22600=55000|22601=EUR|854=1|231=10|30=KBLM|10=048|8=FIXT.1.1|9=464|35=AE|34=58|49=APAQA2_Verion5|50=APA|57=APA|52=20180404-11:42:05.280|56=TRAX|571=TradeReport1|487=0|325=Y|423=22|55=[N/A]|48=DE000A2AAP11|22=4|32=869.09|31=8498.90|60=20180313-00:20:13.370|552=1|54=1|29=5|1041=PPB-1582_042|996=Bbl|997=H|1147=100088434|1934=0|1116=3|1117=05B6OC1W7N8NJQRIYS63|1118=N|1119=17|1117=05B6OC1W7N8NJQRIYS63|1118=N|1119=1|1117=05B6OC1W7N8NJQRIYS63|1118=N|1119=116|15=EUR|120=GBP|1924=1|22600=55000|22505=USD|22601=EUR|854=1|231=10|30=KBLM|10=037|8=FIXT.1.1|9=71|35=0|34=59|49=APAQA2_Verion5|52=20180404-11:42:09.216|56=TRAX|112=TEST|10=074|8=FIXT.1.1|9=464|35=AE|34=60|49=APAQA2_Verion5|50=APA|57=APA|52=20180404-11:42:13.858|56=TRAX|571=TradeReport1|487=0|325=Y|423=22|55=[N/A]|48=DE000A2AAP11|22=4|32=869.09|31=8498.90|60=20180313-00:20:13.370|552=1|54=1|29=5|1041=PPB-1582_042|996=Bbl|997=H|1147=100088434|1934=0|1116=3|1117=05B6OC1W7N8NJQRIYS63|1118=N|1119=17|1117=05B6OC1W7N8NJQRIYS63|1118=N|1119=1|1117=05B6OC1W7N8NJQRIYS63|1118=N|1119=116|15=EUR|120=GBP|1924=1|22600=55000|22601=EUR|22505=USD|854=1|231=10|30=KBLM|10=040|8=FIXT.1.1|9=464|35=AE|34=61|49=APAQA2_Verion5|50=APA|57=APA|52=20180404-11:42:40.807|56=TRAX|571=TradeReport1|487=0|325=Y|423=22|55=[N/A]|48=DE000A2AAP11|22=4|32=869.09|31=8498.90|60=20180313-00:20:13.370|552=1|54=1|29=5|1041=PPB-1582_042|996=Bbl|997=H|1147=100088434|1934=0|1116=3|1117=05B6OC1W7N8NJQRIYS63|1118=N|1119=17|1117=05B6OC1W7N8NJQRIYS63|1118=N|1119=1|1117=05B6OC1W7N8NJQRIYS63|1118=N|1119=116|15=EUR|120=GBP|1924=1|22600=55000|22601=EUR|22505=USD|854=1|231=10|30=KBLM|10=035|8=FIXT.1.1|9=71|35=0|34=62|49=APAQA2_Verion5|52=20180404-11:42:55.039|56=TRAX|112=TEST|10=072|8=FIXT.1.1|9=62|35=0|34=63|49=APAQA2_Verion5|52=20180404-11:43:25.051|56=TRAX|10=047|8=FIXT.1.1|9=62|35=0|34=64|49=APAQA2_Verion5|52=20180404-11:43:55.099|56=TRAX|10=063|8=FIXT.1.1|9=62|35=0|34=65|49=APAQA2_Verion5|52=20180404-11:44:26.086|56=TRAX|10=059|8=FIXT.1.1|9=62|35=0|34=66|49=APAQA2_Verion5|52=20180404-11:44:56.093|56=TRAX|10=061|8=FIXT.1.1|9=62|35=0|34=67|49=APAQA2_Verion5|52=20180404-11:45:27.089|56=TRAX|10=066|8=FIXT.1.1|9=62|35=0|34=68|49=APAQA2_Verion5|52=20180404-11:45:57.097|56=TRAX|10=069|8=FIXT.1.1|9=62|35=0|34=69|49=APAQA2_Verion5|52=20180404-11:46:28.091|56=TRAX|10=063|8=FIXT.1.1|9=62|35=0|34=70|49=APAQA2_Verion5|52=20180404-11:46:58.094|56=TRAX|10=061|8=FIXT.1.1|9=62|35=0|34=71|49=APAQA2_Verion5|52=20180404-11:47:28.099|56=TRAX|10=065|8=FIXT.1.1|9=62|35=0|34=72|49=APAQA2_Verion5|52=20180404-11:47:59.078|56=TRAX|10=067|8=FIXT.1.1|9=62|35=0|34=73|49=APAQA2_Verion5|52=20180404-11:48:29.088|56=TRAX|10=067|8=FIXT.1.1|9=62|35=0|34=74|49=APAQA2_Verion5|52=20180404-11:48:59.100|56=TRAX|10=056|8=FIXT.1.1|9=62|35=0|34=75|49=APAQA2_Verion5|52=20180404-11:49:30.094|56=TRAX|10=059|8=FIXT.1.1|9=62|35=0|34=76|49=APAQA2_Verion5|52=20180404-11:50:01.060|56=TRAX|10=043|8=FIXT.1.1|9=62|35=0|34=77|49=APAQA2_Verion5|52=20180404-11:50:31.090|56=TRAX|10=050|8=FIXT.1.1|9=62|35=0|34=78|49=APAQA2_Verion5|52=20180404-11:51:01.095|56=TRAX|10=054|8=FIXT.1.1|9=62|35=0|34=79|49=APAQA2_Verion5|52=20180404-11:51:32.099|56=TRAX|10=063|8=FIXT.1.1|9=62|35=0|34=80|49=APAQA2_Verion5|52=20180404-11:52:03.101|56=TRAX|10=038|8=FIXT.1.1|9=62|35=0|34=81|49=APAQA2_Verion5|52=20180404-11:52:34.096|56=TRAX|10=056|8=FIXT.1.1|9=62|35=0|34=82|49=APAQA2_Verion5|52=20180404-11:53:05.094|56=TRAX|10=054|8=FIXT.1.1|9=62|35=0|34=83|49=APAQA2_Verion5|52=20180404-11:53:35.094|56=TRAX|10=058|8=FIXT.1.1|9=62|35=0|34=84|49=APAQA2_Verion5|52=20180404-11:54:06.098|56=TRAX|10=062|8=FIXT.1.1|9=62|35=0|34=85|49=APAQA2_Verion5|52=20180404-11:54:37.091|56=TRAX|10=060|8=FIXT.1.1|9=62|35=0|34=86|49=APAQA2_Verion5|52=20180404-11:55:07.095|56=TRAX|10=063|8=FIXT.1.1|9=62|35=0|34=87|49=APAQA2_Verion5|52=20180404-11:55:38.091|56=TRAX|10=064|8=FIXT.1.1|9=62|35=0|34=88|49=APAQA2_Verion5|52=20180404-11:56:09.090|56=TRAX|10=063|8=FIXT.1.1|9=62|35=0|34=89|49=APAQA2_Verion5|52=20180404-11:56:40.085|56=TRAX|10=063|8=FIXT.1.1|9=62|35=0|34=90|49=APAQA2_Verion5|52=20180404-11:57:10.086|56=TRAX|10=054|8=FIXT.1.1|9=62|35=0|34=91|49=APAQA2_Verion5|52=20180404-11:57:41.082|56=TRAX|10=055|8=FIXT.1.1|9=62|35=0|34=92|49=APAQA2_Verion5|52=20180404-11:58:12.072|56=TRAX|10=054|8=FIXT.1.1|9=62|35=0|34=93|49=APAQA2_Verion5|52=20180404-11:58:42.072|56=TRAX|10=058|8=FIXT.1.1|9=62|35=0|34=94|49=APAQA2_Verion5|52=20180404-11:59:12.081|56=TRAX|10=057|8=FIXT.1.1|9=62|35=0|34=95|49=APAQA2_Verion5|52=20180404-11:59:43.076|56=TRAX|10=066|8=FIXT.1.1|9=62|35=0|34=96|49=APAQA2_Verion5|52=20180404-12:00:14.072|56=TRAX|10=048|8=FIXT.1.1|9=62|35=0|34=97|49=APAQA2_Verion5|52=20180404-12:00:44.078|56=TRAX|10=058|8=FIXT.1.1|9=62|35=0|34=98|49=APAQA2_Verion5|52=20180404-12:01:14.079|56=TRAX|10=058|8=FIXT.1.1|9=62|35=0|34=99|49=APAQA2_Verion5|52=20180404-12:01:45.073|56=TRAX|10=057|8=FIXT.1.1|9=63|35=0|34=100|49=APAQA2_Verion5|52=20180404-12:02:15.081|56=TRAX|10=086|8=FIXT.1.1|9=63|35=0|34=101|49=APAQA2_Verion5|52=20180404-12:02:46.080|56=TRAX|10=090|8=FIXT.1.1|9=63|35=0|34=102|49=APAQA2_Verion5|52=20180404-12:03:16.080|56=TRAX|10=089|8=FIXT.1.1|9=63|35=0|34=103|49=APAQA2_Verion5|52=20180404-12:03:47.079|56=TRAX|10=102|8=FIXT.1.1|9=63|35=0|34=104|49=APAQA2_Verion5|52=20180404-12:04:18.079|56=TRAX|10=102|8=FIXT.1.1|9=63|35=0|34=105|49=APAQA2_Verion5|52=20180404-12:04:49.081|56=TRAX|10=100|8=FIXT.1.1|9=63|35=0|34=106|49=APAQA2_Verion5|52=20180404-12:05:20.077|56=TRAX|10=096|8=FIXT.1.1|9=63|35=0|34=107|49=APAQA2_Verion5|52=20180404-12:05:50.080|56=TRAX|10=094|8=FIXT.1.1|9=63|35=0|34=108|49=APAQA2_Verion5|52=20180404-12:06:21.072|56=TRAX|10=095|8=FIXT.1.1|9=63|35=0|34=109|49=APAQA2_Verion5|52=20180404-12:06:51.074|56=TRAX|10=101|8=FIXT.1.1|9=63|35=0|34=110|49=APAQA2_Verion5|52=20180404-12:07:21.081|56=TRAX|10=089|8=FIXT.1.1|9=63|35=0|34=111|49=APAQA2_Verion5|52=20180404-12:07:52.082|56=TRAX|10=095|8=FIXT.1.1|9=63|35=0|34=112|49=APAQA2_Verion5|52=20180404-12:08:23.070|56=TRAX|10=092|8=FIXT.1.1|9=63|35=0|34=113|49=APAQA2_Verion5|52=20180404-12:08:53.074|56=TRAX|10=100|8=FIXT.1.1|9=63|35=0|34=114|49=APAQA2_Verion5|52=20180404-12:09:24.078|56=TRAX|10=104|8=FIXT.1.1|9=63|35=0|34=115|49=APAQA2_Verion5|52=20180404-12:09:55.055|56=TRAX|10=104|8=FIXT.1.1|9=63|35=0|34=116|49=APAQA2_Verion5|52=20180404-12:10:25.077|56=TRAX|10=098|8=FIXT.1.1|9=63|35=0|34=117|49=APAQA2_Verion5|52=20180404-12:10:55.081|56=TRAX|10=097|8=FIXT.1.1|9=63|35=0|34=118|49=APAQA2_Verion5|52=20180404-12:11:26.079|56=TRAX|10=104|8=FIXT.1.1|9=63|35=0|34=119|49=APAQA2_Verion5|52=20180404-12:11:57.071|56=TRAX|10=101|8=FIXT.1.1|9=63|35=0|34=120|49=APAQA2_Verion5|52=20180404-12:12:27.084|56=TRAX|10=095|8=FIXT.1.1|9=63|35=0|34=121|49=APAQA2_Verion5|52=20180404-12:12:58.079|56=TRAX|10=104|8=FIXT.1.1|9=63|35=0|34=122|49=APAQA2_Verion5|52=20180404-12:13:28.083|56=TRAX|10=098|8=FIXT.1.1|9=63|35=0|34=123|49=APAQA2_Verion5|52=20180404-12:13:59.072|56=TRAX|10=101|8=FIXT.1.1|9=63|35=0|34=124|49=APAQA2_Verion5|52=20180404-12:14:30.084|56=TRAX|10=095|8=FIXT.1.1|9=63|35=0|34=125|49=APAQA2_Verion5|52=20180404-12:15:01.074|56=TRAX|10=094|8=FIXT.1.1|9=63|35=0|34=126|49=APAQA2_Verion5|52=20180404-12:15:31.083|56=TRAX|10=098|8=FIXT.1.1|9=63|35=0|34=127|49=APAQA2_Verion5|52=20180404-12:16:02.073|56=TRAX|10=097|8=FIXT.1.1|9=63|35=0|34=128|49=APAQA2_Verion5|52=20180404-12:16:33.073|56=TRAX|10=102|8=FIXT.1.1|9=63|35=0|34=129|49=APAQA2_Verion5|52=20180404-12:17:03.074|56=TRAX|10=102|8=FIXT.1.1|9=63|35=0|34=130|49=APAQA2_Verion5|52=20180404-12:17:33.083|56=TRAX|10=097|8=FIXT.1.1|9=63|35=0|34=131|49=APAQA2_Verion5|52=20180404-12:18:04.078|56=TRAX|10=101|8=FIXT.1.1|9=63|35=0|34=132|49=APAQA2_Verion5|52=20180404-12:18:35.075|56=TRAX|10=103|8=FIXT.1.1|9=63|35=0|34=133|49=APAQA2_Verion5|52=20180404-12:19:05.084|56=TRAX|10=102|8=FIXT.1.1|9=63|35=0|34=134|49=APAQA2_Verion5|52=20180404-12:19:36.078|56=TRAX|10=110|8=FIXT.1.1|9=63|35=0|34=135|49=APAQA2_Verion5|52=20180404-12:20:06.080|56=TRAX|10=093|8=FIXT.1.1|9=63|35=0|34=136|49=APAQA2_Verion5|52=20180404-12:20:36.086|56=TRAX|10=103|8=FIXT.1.1|9=63|35=0|34=137|49=APAQA2_Verion5|52=20180404-12:21:07.082|56=TRAX|10=099|8=FIXT.1.1|9=63|35=0|34=138|49=APAQA2_Verion5|52=20180404-12:21:37.087|56=TRAX|10=108|8=FIXT.1.1|9=63|35=0|34=139|49=APAQA2_Verion5|52=20180404-12:22:08.085|56=TRAX|10=106|8=FIXT.1.1|9=63|35=0|34=140|49=APAQA2_Verion5|52=20180404-12:22:39.083|56=TRAX|10=100|8=FIXT.1.1|9=63|35=0|34=141|49=APAQA2_Verion5|52=20180404-12:23:10.082|56=TRAX|10=090|8=FIXT.1.1|9=63|35=0|34=142|49=APAQA2_Verion5|52=20180404-12:23:40.087|56=TRAX|10=099|8=FIXT.1.1|9=63|35=0|34=143|49=APAQA2_Verion5|52=20180404-12:24:11.084|56=TRAX|10=096|8=FIXT.1.1|9=63|35=0|34=144|49=APAQA2_Verion5|52=20180404-12:24:42.082|56=TRAX|10=099|8=FIXT.1.1|9=63|35=0|34=145|49=APAQA2_Verion5|52=20180404-12:25:13.080|56=TRAX|10=097|8=FIXT.1.1|9=63|35=0|34=146|49=APAQA2_Verion5|52=20180404-12:25:43.087|56=TRAX|10=108|8=FIXT.1.1|9=63|35=0|34=147|49=APAQA2_Verion5|52=20180404-12:26:14.046|56=TRAX|10=103|8=FIXT.1.1|9=63|35=0|34=148|49=APAQA2_Verion5|52=20180404-12:26:45.045|56=TRAX|10=107|8=FIXT.1.1|9=63|35=0|34=149|49=APAQA2_Verion5|52=20180404-12:27:16.043|56=TRAX|10=105|8=FIXT.1.1|9=63|35=0|34=150|49=APAQA2_Verion5|52=20180404-12:27:46.072|56=TRAX|10=102|8=FIXT.1.1|9=63|35=0|34=151|49=APAQA2_Verion5|52=20180404-12:28:16.078|56=TRAX|10=107|8=FIXT.1.1|9=63|35=0|34=152|49=APAQA2_Verion5|52=20180404-12:28:47.080|56=TRAX|10=105|8=FIXT.1.1|9=63|35=0|34=153|49=APAQA2_Verion5|52=20180404-12:29:18.074|56=TRAX|10=108|8=FIXT.1.1|9=63|35=0|34=154|49=APAQA2_Verion5|52=20180404-12:29:49.083|56=TRAX|10=113|8=FIXT.1.1|9=63|35=0|34=155|49=APAQA2_Verion5|52=20180404-12:30:20.086|56=TRAX|10=098|8=FIXT.1.1|9=63|35=0|34=156|49=APAQA2_Verion5|52=20180404-12:30:51.073|56=TRAX|10=099|8=FIXT.1.1|9=63|35=0|34=157|49=APAQA2_Verion5|52=20180404-12:31:21.080|56=TRAX|10=096|8=FIXT.1.1|9=63|35=0|34=158|49=APAQA2_Verion5|52=20180404-12:31:51.084|56=TRAX|10=104|8=FIXT.1.1|9=63|35=0|34=159|49=APAQA2_Verion5|52=20180404-12:32:22.087|56=TRAX|10=107|8=FIXT.1.1|9=63|35=0|34=160|49=APAQA2_Verion5|52=20180404-12:32:53.085|56=TRAX|10=101|8=FIXT.1.1|9=63|35=0|34=161|49=APAQA2_Verion5|52=20180404-12:33:23.085|56=TRAX|10=100|8=FIXT.1.1|9=63|35=0|34=162|49=APAQA2_Verion5|52=20180404-12:33:53.085|56=TRAX|10=104|8=FIXT.1.1|9=63|35=0|34=163|49=APAQA2_Verion5|52=20180404-12:34:24.076|56=TRAX|10=104|8=FIXT.1.1|9=63|35=0|34=164|49=APAQA2_Verion5|52=20180404-12:34:54.090|56=TRAX|10=104|8=FIXT.1.1|9=63|35=0|34=165|49=APAQA2_Verion5|52=20180404-12:35:24.090|56=TRAX|10=103|8=FIXT.1.1|9=63|35=0|34=166|49=APAQA2_Verion5|52=20180404-12:35:55.020|56=TRAX|10=101|8=FIXT.1.1|9=63|35=0|34=167|49=APAQA2_Verion5|52=20180404-12:36:25.088|56=TRAX|10=114|8=FIXT.1.1|9=63|35=0|34=168|49=APAQA2_Verion5|52=20180404-12:36:56.088|56=TRAX|10=119|8=FIXT.1.1|9=63|35=0|34=169|49=APAQA2_Verion5|52=20180404-12:37:27.078|56=TRAX|10=118|8=FIXT.1.1|9=63|35=0|34=170|49=APAQA2_Verion5|52=20180404-12:37:57.080|56=TRAX|10=106|8=FIXT.1.1|9=63|35=0|34=171|49=APAQA2_Verion5|52=20180404-12:38:28.047|56=TRAX|10=109|8=FIXT.1.1|9=63|35=0|34=172|49=APAQA2_Verion5|52=20180404-12:38:58.081|56=TRAX|10=111|8=FIXT.1.1|9=63|35=0|34=173|49=APAQA2_Verion5|52=20180404-12:39:28.086|56=TRAX|10=115|8=FIXT.1.1|9=63|35=0|34=174|49=APAQA2_Verion5|52=20180404-12:39:59.092|56=TRAX|10=117|8=FIXT.1.1|9=63|35=0|34=175|49=APAQA2_Verion5|52=20180404-12:40:30.078|56=TRAX|10=103|8=FIXT.1.1|9=63|35=0|34=176|49=APAQA2_Verion5|52=20180404-12:41:00.092|56=TRAX|10=098|8=FIXT.1.1|9=63|35=0|34=177|49=APAQA2_Verion5|52=20180404-12:41:31.089|56=TRAX|10=109|8=FIXT.1.1|9=63|35=0|34=178|49=APAQA2_Verion5|52=20180404-12:42:01.089|56=TRAX|10=108|8=FIXT.1.1|9=63|35=0|34=179|49=APAQA2_Verion5|52=20180404-12:42:32.092|56=TRAX|10=107|8=FIXT.1.1|9=63|35=0|34=180|49=APAQA2_Verion5|52=20180404-12:43:03.069|56=TRAX|10=102|8=FIXT.1.1|9=63|35=0|34=181|49=APAQA2_Verion5|52=20180404-12:43:34.089|56=TRAX|10=109|8=FIXT.1.1|9=63|35=0|34=182|49=APAQA2_Verion5|52=20180404-12:44:04.092|56=TRAX|10=102|8=FIXT.1.1|9=63|35=0|34=183|49=APAQA2_Verion5|52=20180404-12:44:35.090|56=TRAX|10=105|8=FIXT.1.1|9=63|35=0|34=184|49=APAQA2_Verion5|52=20180404-12:45:06.094|56=TRAX|10=109|8=FIXT.1.1|9=63|35=0|34=185|49=APAQA2_Verion5|52=20180404-12:45:37.093|56=TRAX|10=113|8=FIXT.1.1|9=63|35=0|34=186|49=APAQA2_Verion5|52=20180404-12:46:08.085|56=TRAX|10=114|8=FIXT.1.1|9=63|35=0|34=187|49=APAQA2_Verion5|52=20180404-12:46:39.080|56=TRAX|10=114|8=FIXT.1.1|9=63|35=0|34=188|49=APAQA2_Verion5|52=20180404-12:47:09.080|56=TRAX|10=113|8=FIXT.1.1|9=63|35=0|34=189|49=APAQA2_Verion5|52=20180404-12:47:40.082|56=TRAX|10=111|8=FIXT.1.1|9=63|35=0|34=190|49=APAQA2_Verion5|52=20180404-12:48:10.091|56=TRAX|10=101|8=FIXT.1.1|9=63|35=0|34=191|49=APAQA2_Verion5|52=20180404-12:48:40.092|56=TRAX|10=106|8=FIXT.1.1|9=63|35=0|34=192|49=APAQA2_Verion5|52=20180404-12:49:11.086|56=TRAX|10=109|8=FIXT.1.1|9=63|35=0|34=193|49=APAQA2_Verion5|52=20180404-12:49:41.092|56=TRAX|10=110|8=FIXT.1.1|9=63|35=0|34=194|49=APAQA2_Verion5|52=20180404-12:50:12.082|56=TRAX|10=100|8=FIXT.1.1|9=63|35=0|34=195|49=APAQA2_Verion5|52=20180404-12:50:42.089|56=TRAX|10=111|8=FIXT.1.1|9=63|35=0|34=196|49=APAQA2_Verion5|52=20180404-12:51:13.052|56=TRAX|10=101|8=FIXT.1.1|9=63|35=0|34=197|49=APAQA2_Verion5|52=20180404-12:51:43.086|56=TRAX|10=112|8=FIXT.1.1|9=63|35=0|34=198|49=APAQA2_Verion5|52=20180404-12:52:14.091|56=TRAX|10=108|8=FIXT.1.1|9=63|35=0|34=199|49=APAQA2_Verion5|52=20180404-12:52:44.095|56=TRAX|10=116|8=FIXT.1.1|9=81|35=5|34=200|49=APAQA2_Verion5|52=20180404-12:53:09.082|56=TRAX|58=user requested|10=194|8=FIXT.1.1|9=103|35=A|34=1|49=APAQA2_Verion5|52=20180404-12:53:29.229|56=TRAX|98=0|108=30|95=8|96=2.0.0rc4|141=Y|1137=9|10=082|8=FIXT.1.1|9=463|35=AE|34=2|49=APAQA2_Verion5|50=APA|57=APA|52=20180404-12:53:43.390|56=TRAX|571=TradeReport1|487=0|325=Y|423=22|55=[N/A]|48=DE000A2AAP11|22=4|32=869.09|31=8498.90|60=20180313-00:20:13.370|552=1|54=1|29=5|1041=PPB-1582_043|996=Bbl|997=H|1147=100088434|1934=0|1116=3|1117=05B6OC1W7N8NJQRIYS63|1118=N|1119=17|1117=05B6OC1W7N8NJQRIYS63|1118=N|1119=1|1117=05B6OC1W7N8NJQRIYS63|1118=N|1119=116|15=EUR|120=GBP|1924=1|22600=55000|22601=EUR|22505=USD|854=1|231=10|30=KBLM|10=241|8=FIXT.1.1|9=61|35=0|34=3|49=APAQA2_Verion5|52=20180404-12:54:14.020|56=TRAX|10=245|8=FIXT.1.1|9=61|35=0|34=4|49=APAQA2_Verion5|52=20180404-12:54:44.205|56=TRAX|10=254|8=FIXT.1.1|9=463|35=AE|34=5|49=APAQA2_Verion5|50=APA|57=APA|52=20180404-12:54:54.003|56=TRAX|571=TradeReport1|487=0|325=Y|423=22|55=[N/A]|48=DE000A2AAP11|22=4|32=869.09|31=8498.90|60=20180313-00:20:13.370|552=1|54=1|29=5|1041=PPB-1582_043|996=Bbl|997=H|1147=100088434|1934=0|1116=3|1117=05B6OC1W7N8NJQRIYS63|1118=N|1119=17|1117=05B6OC1W7N8NJQRIYS63|1118=N|1119=1|1117=05B6OC1W7N8NJQRIYS63|1118=N|1119=116|22505=USD|15=EUR|120=GBP|1924=1|22600=55000|22601=EUR|854=1|231=10|30=KBLM|10=238|8=FIXT.1.1|9=61|35=0|34=6|49=APAQA2_Verion5|52=20180404-12:55:24.193|56=TRAX|10=005|8=FIXT.1.1|9=61|35=0|34=7|49=APAQA2_Verion5|52=20180404-12:55:55.063|56=TRAX|10=006|8=FIXT.1.1|9=306|35=AE|34=8|49=APAQA2_Verion5|50=APA|57=APA|52=20180404-12:56:22.511|56=TRAX|571=TradeReport1|487=0|325=Y|423=22|55=[N/A]|48=DE000A2AAP11|22=4|32=869.09|31=8498.90|60=20180313-00:20:13.370|552=1|54=1|29=5|1041=PPB-1582_043|996=Bbl|997=H|1147=100088434|1934=0|1116=3|1117=05B6OC1W7N8NJQRIYS63|1118=N|1119=17|10=181|8=FIXT.1.1|9=70|35=0|34=9|49=APAQA2_Verion5|52=20180404-12:56:41.047|56=TRAX|112=TEST|10=024|8=FIXT.1.1|9=307|35=AE|34=10|49=APAQA2_Verion5|50=APA|57=APA|52=20180404-12:56:42.386|56=TRAX|571=TradeReport1|487=0|325=Y|423=22|55=[N/A]|48=DE000A2AAP11|22=4|32=869.09|31=8498.90|60=20180313-00:20:13.370|552=1|54=1|29=5|1041=PPB-1582_043|996=Bbl|997=H|1147=100088434|1934=0|1116=3|1117=05B6OC1W7N8NJQRIYS63|1118=N|1119=17|10=235|8=FIXT.1.1|9=62|35=0|34=11|49=APAQA2_Verion5|52=20180404-12:57:13.026|56=TRAX|10=045|8=FIXT.1.1|9=62|35=0|34=12|49=APAQA2_Verion5|52=20180404-12:57:43.102|56=TRAX|10=044|8=FIXT.1.1|9=62|35=0|34=13|49=APAQA2_Verion5|52=20180404-12:58:13.204|56=TRAX|10=046|8=FIXT.1.1|9=62|35=0|34=14|49=APAQA2_Verion5|52=20180404-12:58:44.186|56=TRAX|10=060|8=FIXT.1.1|9=62|35=0|34=15|49=APAQA2_Verion5|52=20180404-12:59:14.199|56=TRAX|10=063|8=FIXT.1.1|9=62|35=0|34=16|49=APAQA2_Verion5|52=20180404-12:59:45.163|56=TRAX|10=059|8=FIXT.1.1|9=62|35=0|34=17|49=APAQA2_Verion5|52=20180404-13:00:15.179|56=TRAX|10=051|8=FIXT.1.1|9=62|35=0|34=18|49=APAQA2_Verion5|52=20180404-13:00:45.193|56=TRAX|10=051|8=FIXT.1.1|9=62|35=0|34=19|49=APAQA2_Verion5|52=20180404-13:01:15.198|56=TRAX|10=055|8=FIXT.1.1|9=62|35=0|34=20|49=APAQA2_Verion5|52=20180404-13:01:46.201|56=TRAX|10=036|8=FIXT.1.1|9=62|35=0|34=21|49=APAQA2_Verion5|52=20180404-13:02:17.164|56=TRAX|10=044|8=FIXT.1.1|9=62|35=0|34=22|49=APAQA2_Verion5|52=20180404-13:02:47.167|56=TRAX|10=051|8=FIXT.1.1|9=62|35=0|34=23|49=APAQA2_Verion5|52=20180404-13:03:18.163|56=TRAX|10=047|8=FIXT.1.1|9=62|35=0|34=24|49=APAQA2_Verion5|52=20180404-13:03:48.193|56=TRAX|10=054|8=FIXT.1.1|9=62|35=0|34=25|49=APAQA2_Verion5|52=20180404-13:04:18.194|56=TRAX|10=054|8=FIXT.1.1|9=62|35=0|34=26|49=APAQA2_Verion5|52=20180404-13:04:48.194|56=TRAX|10=058|8=FIXT.1.1|9=62|35=0|34=27|49=APAQA2_Verion5|52=20180404-13:05:19.164|56=TRAX|10=055|8=FIXT.1.1|9=62|35=0|34=28|49=APAQA2_Verion5|52=20180404-13:05:49.205|56=TRAX|10=055|8=FIXT.1.1|9=62|35=0|34=29|49=APAQA2_Verion5|52=20180404-13:06:20.206|56=TRAX|10=047|8=FIXT.1.1|9=62|35=0|34=30|49=APAQA2_Verion5|52=20180404-13:06:51.206|56=TRAX|10=043|8=FIXT.1.1|9=62|35=0|34=31|49=APAQA2_Verion5|52=20180404-13:07:22.023|56=TRAX|10=040|8=FIXT.1.1|9=62|35=0|34=32|49=APAQA2_Verion5|52=20180404-13:07:52.205|56=TRAX|10=046|8=FIXT.1.1|9=62|35=0|34=33|49=APAQA2_Verion5|52=20180404-13:08:22.205|56=TRAX|10=045|8=FIXT.1.1|9=62|35=0|34=34|49=APAQA2_Verion5|52=20180404-13:08:52.206|56=TRAX|10=050|8=FIXT.1.1|9=62|35=0|34=35|49=APAQA2_Verion5|52=20180404-13:09:23.204|56=TRAX|10=048|8=FIXT.1.1|9=62|35=0|34=36|49=APAQA2_Verion5|52=20180404-13:09:54.194|56=TRAX|10=061|8=FIXT.1.1|9=280|35=i|34=37|49=APAQA2_Verion5|50=APA|52=20180404-13:09:58.315|56=TRAX|57=APA|117=133617100601|296=1|302=1|304=1|295=1|299=NOVEIGHT016|48=DE000A2AAP11|22=4|22680=10.45|22683=1|134=10000|60=20171108-00:59:59.000|15=EUR|22500=4|22501=REC0012137|22503=100|22505=USD|22701=Y|22504=ACEX|10=166|8=FIXT.1.1|9=62|35=0|34=38|49=APAQA2_Verion5|52=20180404-13:10:29.049|56=TRAX|10=056|8=FIXT.1.1|9=62|35=0|34=39|49=APAQA2_Verion5|52=20180404-13:10:59.201|56=TRAX|10=050|8=FIXT.1.1|9=62|35=0|34=40|49=APAQA2_Verion5|52=20180404-13:11:29.205|56=TRAX|10=044|8=FIXT.1.1|9=62|35=0|34=41|49=APAQA2_Verion5|52=20180404-13:11:59.208|56=TRAX|10=051|8=FIXT.1.1|9=62|35=0|34=42|49=APAQA2_Verion5|52=20180404-13:12:30.199|56=TRAX|10=051|8=FIXT.1.1|9=62|35=0|34=43|49=APAQA2_Verion5|52=20180404-13:13:01.199|56=TRAX|10=051|8=FIXT.1.1|9=62|35=0|34=44|49=APAQA2_Verion5|52=20180404-13:13:31.206|56=TRAX|10=044|8=FIXT.1.1|9=62|35=0|34=45|49=APAQA2_Verion5|52=20180404-13:14:01.206|56=TRAX|10=043|8=FIXT.1.1|9=62|35=0|34=46|49=APAQA2_Verion5|52=20180404-13:14:31.206|56=TRAX|10=047|8=FIXT.1.1|9=62|35=0|34=47|49=APAQA2_Verion5|52=20180404-13:15:02.206|56=TRAX|10=047|8=FIXT.1.1|9=62|35=0|34=48|49=APAQA2_Verion5|52=20180404-13:15:33.196|56=TRAX|10=060|8=FIXT.1.1|9=62|35=0|34=49|49=APAQA2_Verion5|52=20180404-13:16:03.196|56=TRAX|10=059|8=FIXT.1.1|9=62|35=0|34=50|49=APAQA2_Verion5|52=20180404-13:16:33.198|56=TRAX|10=056|8=FIXT.1.1|9=62|35=0|34=51|49=APAQA2_Verion5|52=20180404-13:17:04.167|56=TRAX|10=052|8=FIXT.1.1|9=62|35=0|34=52|49=APAQA2_Verion5|52=20180404-13:17:34.207|56=TRAX|10=051|8=FIXT.1.1|9=62|35=0|34=53|49=APAQA2_Verion5|52=20180404-13:18:05.204|56=TRAX|10=048|8=FIXT.1.1|9=62|35=0|34=54|49=APAQA2_Verion5|52=20180404-13:18:36.197|56=TRAX|10=064|8=FIXT.1.1|9=62|35=0|34=55|49=APAQA2_Verion5|52=20180404-13:19:06.204|56=TRAX|10=052|8=FIXT.1.1|9=62|35=0|34=56|49=APAQA2_Verion5|52=20180404-13:19:36.206|56=TRAX|10=058|8=FIXT.1.1|9=62|35=0|34=57|49=APAQA2_Verion5|52=20180404-13:20:07.208|56=TRAX|10=051|8=FIXT.1.1|9=62|35=0|34=58|49=APAQA2_Verion5|52=20180404-13:20:38.207|56=TRAX|10=055|8=FIXT.1.1|9=62|35=0|34=59|49=APAQA2_Verion5|52=20180404-13:21:09.167|56=TRAX|10=060|8=FIXT.1.1|9=62|35=0|34=60|49=APAQA2_Verion5|52=20180404-13:21:39.200|56=TRAX|10=043|8=FIXT.1.1|9=62|35=0|34=61|49=APAQA2_Verion5|52=20180404-13:22:09.206|56=TRAX|10=048|8=FIXT.1.1|9=62|35=0|34=62|49=APAQA2_Verion5|52=20180404-13:22:40.202|56=TRAX|10=040|8=FIXT.1.1|9=62|35=0|34=63|49=APAQA2_Verion5|52=20180404-13:23:10.208|56=TRAX|10=045|8=FIXT.1.1|9=62|35=0|34=64|49=APAQA2_Verion5|52=20180404-13:23:40.209|56=TRAX|10=050|8=FIXT.1.1|9=62|35=0|34=65|49=APAQA2_Verion5|52=20180404-13:24:10.209|56=TRAX|10=049|8=FIXT.1.1|9=62|35=0|34=66|49=APAQA2_Verion5|52=20180404-13:24:40.211|56=TRAX|10=046|8=FIXT.1.1|9=62|35=0|34=67|49=APAQA2_Verion5|52=20180404-13:25:11.205|56=TRAX|10=049|8=FIXT.1.1|9=62|35=0|34=68|49=APAQA2_Verion5|52=20180404-13:25:41.213|56=TRAX|10=052|8=FIXT.1.1|9=62|35=0|34=69|49=APAQA2_Verion5|52=20180404-13:26:12.199|56=TRAX|10=065|8=FIXT.1.1|9=62|35=0|34=70|49=APAQA2_Verion5|52=20180404-13:26:42.199|56=TRAX|10=060|8=FIXT.1.1|9=62|35=0|34=71|49=APAQA2_Verion5|52=20180404-13:27:12.199|56=TRAX|10=059|8=FIXT.1.1|9=62|35=0|34=72|49=APAQA2_Verion5|52=20180404-13:27:42.203|56=TRAX|10=049|8=FIXT.1.1|9=62|35=0|34=73|49=APAQA2_Verion5|52=20180404-13:28:13.210|56=TRAX|10=047|8=FIXT.1.1|9=62|35=0|34=74|49=APAQA2_Verion5|52=20180404-13:28:43.212|56=TRAX|10=053|8=FIXT.1.1|9=62|35=0|34=75|49=APAQA2_Verion5|52=20180404-13:29:14.170|56=TRAX|10=056|8=FIXT.1.1|9=62|35=0|34=76|49=APAQA2_Verion5|52=20180404-13:29:44.199|56=TRAX|10=071|8=FIXT.1.1|9=62|35=0|34=77|49=APAQA2_Verion5|52=20180404-13:30:15.181|56=TRAX|10=053|8=FIXT.1.1|9=62|35=0|34=78|49=APAQA2_Verion5|52=20180404-13:30:45.211|56=TRAX|10=051|8=FIXT.1.1|9=62|35=0|34=79|49=APAQA2_Verion5|52=20180404-13:31:16.203|56=TRAX|10=052|8=FIXT.1.1|9=62|35=0|34=80|49=APAQA2_Verion5|52=20180404-13:31:47.213|56=TRAX|10=049|8=FIXT.1.1|9=62|35=0|34=81|49=APAQA2_Verion5|52=20180404-13:32:18.199|56=TRAX|10=062|8=FIXT.1.1|9=413|35=AE|34=82|49=APAQA2_Verion5|50=APA|57=APA|52=20180404-13:32:34.727|56=TRAX|571=TradeReport1|487=0|325=Y|423=22|55=[N/A]|48=DE000A2AAP11|22=4|32=869.09|31=8498.90|60=20180313-00:20:13.370|552=1|54=1|29=5|1041=PPB-1582_051|996=Bbl|997=H|1147=100088434|1934=0|1116=2|1117=05B6OC1W7N8NJQRIYS63|1118=N|1119=116|1117=05B6OC1W7N8NJQRIYS63|1118=N|1119=1|15=EUR|120=GBP|1924=1|22600=55000|22601=EUR|854=1|231=10|30=KBLM|10=222|8=FIXT.1.1|9=62|35=0|34=83|49=APAQA2_Verion5|52=20180404-13:33:05.184|56=TRAX|10=055|8=FIXT.1.1|9=62|35=0|34=84|49=APAQA2_Verion5|52=20180404-13:33:35.210|56=TRAX|10=049|8=FIXT.1.1|9=62|35=0|34=85|49=APAQA2_Verion5|52=20180404-13:34:06.200|56=TRAX|10=048|8=FIXT.1.1|9=62|35=0|34=86|49=APAQA2_Verion5|52=20180404-13:34:36.200|56=TRAX|10=052|8=FIXT.1.1|9=62|35=0|34=87|49=APAQA2_Verion5|52=20180404-13:35:06.204|56=TRAX|10=055|8=FIXT.1.1|9=62|35=0|34=88|49=APAQA2_Verion5|52=20180404-13:35:37.215|56=TRAX|10=062|8=FIXT.1.1|9=62|35=0|34=89|49=APAQA2_Verion5|52=20180404-13:36:08.210|56=TRAX|10=057|8=FIXT.1.1|9=62|35=0|34=90|49=APAQA2_Verion5|52=20180404-13:36:39.210|56=TRAX|10=053|8=FIXT.1.1|9=62|35=0|34=91|49=APAQA2_Verion5|52=20180404-13:37:09.212|56=TRAX|10=054|8=FIXT.1.1|9=62|35=0|34=92|49=APAQA2_Verion5|52=20180404-13:37:40.057|56=TRAX|10=057|8=FIXT.1.1|9=62|35=0|34=93|49=APAQA2_Verion5|52=20180404-13:38:10.205|56=TRAX|10=051|8=FIXT.1.1|9=62|35=0|34=94|49=APAQA2_Verion5|52=20180404-13:38:41.195|56=TRAX|10=064|8=FIXT.1.1|9=62|35=0|34=95|49=APAQA2_Verion5|52=20180404-13:39:11.195|56=TRAX|10=063|8=FIXT.1.1|9=62|35=0|34=96|49=APAQA2_Verion5|52=20180404-13:39:41.195|56=TRAX|10=067|8=FIXT.1.1|9=62|35=0|34=97|49=APAQA2_Verion5|52=20180404-13:40:12.195|56=TRAX|10=058|8=FIXT.1.1|9=62|35=0|34=98|49=APAQA2_Verion5|52=20180404-13:40:43.197|56=TRAX|10=065|8=FIXT.1.1|9=62|35=0|34=99|49=APAQA2_Verion5|52=20180404-13:41:13.198|56=TRAX|10=065|8=FIXT.1.1|9=63|35=0|34=100|49=APAQA2_Verion5|52=20180404-13:41:44.193|56=TRAX|10=096|8=FIXT.1.1|9=63|35=0|34=101|49=APAQA2_Verion5|52=20180404-13:42:14.193|56=TRAX|10=095|8=FIXT.1.1|9=63|35=0|34=102|49=APAQA2_Verion5|52=20180404-13:42:44.197|56=TRAX|10=103|8=FIXT.1.1|9=63|35=0|34=103|49=APAQA2_Verion5|52=20180404-13:43:15.192|56=TRAX|10=098|8=FIXT.1.1|9=63|35=0|34=104|49=APAQA2_Verion5|52=20180404-13:43:45.192|56=TRAX|10=102|8=FIXT.1.1|9=63|35=0|34=105|49=APAQA2_Verion5|52=20180404-13:44:15.192|56=TRAX|10=101|8=FIXT.1.1|9=63|35=0|34=106|49=APAQA2_Verion5|52=20180404-13:44:45.197|56=TRAX|10=110|8=FIXT.1.1|9=63|35=0|34=107|49=APAQA2_Verion5|52=20180404-13:45:15.197|56=TRAX|10=109|8=FIXT.1.1|9=63|35=0|34=108|49=APAQA2_Verion5|52=20180404-13:45:46.174|56=TRAX|10=109|8=FIXT.1.1|9=63|35=0|34=109|49=APAQA2_Verion5|52=20180404-13:46:16.198|56=TRAX|10=114|8=FIXT.1.1|9=63|35=0|34=110|49=APAQA2_Verion5|52=20180404-13:46:47.173|56=TRAX|10=103|8=FIXT.1.1|9=63|35=0|34=111|49=APAQA2_Verion5|52=20180404-13:47:17.199|56=TRAX|10=110|8=FIXT.1.1|9=63|35=0|34=112|49=APAQA2_Verion5|52=20180404-13:47:48.191|56=TRAX|10=107|8=FIXT.1.1|9=63|35=0|34=113|49=APAQA2_Verion5|52=20180404-13:48:18.192|56=TRAX|10=107|8=FIXT.1.1|9=63|35=0|34=114|49=APAQA2_Verion5|52=20180404-13:48:48.193|56=TRAX|10=112|8=FIXT.1.1|9=63|35=0|34=115|49=APAQA2_Verion5|52=20180404-13:49:18.195|56=TRAX|10=113|8=FIXT.1.1|9=63|35=0|34=116|49=APAQA2_Verion5|52=20180404-13:49:48.201|56=TRAX|10=105|8=FIXT.1.1|9=63|35=0|34=117|49=APAQA2_Verion5|52=20180404-13:50:19.173|56=TRAX|10=104|8=FIXT.1.1|9=63|35=0|34=118|49=APAQA2_Verion5|52=20180404-13:50:50.171|56=TRAX|10=098|8=FIXT.1.1|9=63|35=0|34=119|49=APAQA2_Verion5|52=20180404-13:51:20.194|56=TRAX|10=102|8=FIXT.1.1|9=63|35=0|34=120|49=APAQA2_Verion5|52=20180404-13:51:51.170|56=TRAX|10=092|8=FIXT.1.1|9=63|35=0|34=121|49=APAQA2_Verion5|52=20180404-13:52:22.169|56=TRAX|10=100|8=FIXT.1.1|9=63|35=0|34=122|49=APAQA2_Verion5|52=20180404-13:52:52.187|56=TRAX|10=104|8=FIXT.1.1|9=63|35=0|34=123|49=APAQA2_Verion5|52=20180404-13:53:22.195|56=TRAX|10=102|8=FIXT.1.1|9=63|35=0|34=124|49=APAQA2_Verion5|52=20180404-13:53:53.192|56=TRAX|10=104|8=FIXT.1.1|9=63|35=0|34=125|49=APAQA2_Verion5|52=20180404-13:54:24.199|56=TRAX|10=111|8=FIXT.1.1|9=63|35=0|34=126|49=APAQA2_Verion5|52=20180404-13:54:54.212|56=TRAX|10=101|8=FIXT.1.1|9=422|35=AE|34=127|49=APAQA2_Verion5|50=APA|57=APA|52=20180404-13:55:10.344|56=TRAX|571=TradeReport1|487=0|325=Y|423=22|55=[N/A]|48=DE000A2AAP11|22=4|32=869.09|31=8498.90|60=20180313-00:20:13.370|552=1|54=1|29=5|1041=PPB-1582_052|996=Bbl|997=H|1147=100088434|1934=0|1116=2|1117=05B6OC1W7N8NJQRIYS63|1118=N|1119=116|1117=05B6OC1W7N8NJQRIYS63|1118=N|1119=1|15=EUR|120=GBP|1924=1|22600=55000|22601=EUR|22809=Y|854=1|231=10|30=KBLM|10=165|8=FIXT.1.1|9=72|35=0|34=128|49=APAQA2_Verion5|52=20180404-13:55:40.072|56=TRAX|112=TEST|10=121|8=FIXT.1.1|9=63|35=0|34=129|49=APAQA2_Verion5|52=20180404-13:56:10.168|56=TRAX|10=108|8=FIXT.1.1|9=63|35=0|34=130|49=APAQA2_Verion5|52=20180404-13:56:40.206|56=TRAX|10=096|8=FIXT.1.1|9=63|35=0|34=131|49=APAQA2_Verion5|52=20180404-13:57:10.208|56=TRAX|10=097|8=FIXT.1.1|9=63|35=0|34=132|49=APAQA2_Verion5|52=20180404-13:57:40.211|56=TRAX|10=095|8=FIXT.1.1|9=63|35=0|34=133|49=APAQA2_Verion5|52=20180404-13:58:11.205|56=TRAX|10=098|8=FIXT.1.1|9=422|35=AE|34=134|49=APAQA2_Verion5|50=APA|57=APA|52=20180404-13:58:12.121|56=TRAX|571=TradeReport1|487=0|325=Y|423=22|55=[N/A]|48=DE000A2AAP11|22=4|32=869.09|31=8498.90|60=20180313-00:20:13.370|552=1|54=1|29=5|1041=PPB-1582_052|996=Bbl|997=H|1147=100088434|1934=0|1116=2|1117=05B6OC1W7N8NJQRIYS63|1118=N|1119=116|1117=05B6OC1W7N8NJQRIYS63|1118=N|1119=1|15=EUR|120=GBP|1924=1|22600=55000|22601=EUR|22809=Y|854=1|231=10|30=KBLM|10=161|8=FIXT.1.1|9=414|35=AE|34=135|49=APAQA2_Verion5|50=APA|57=APA|52=20180404-13:58:24.183|56=TRAX|571=TradeReport1|487=0|325=Y|423=22|55=[N/A]|48=DE000A2AAP11|22=4|32=869.09|31=8498.90|60=20180313-00:20:13.370|552=1|54=1|29=5|1041=PPB-1582_052|996=Bbl|997=H|1147=100088434|1934=0|1116=2|1117=05B6OC1W7N8NJQRIYS63|1118=N|1119=116|1117=05B6OC1W7N8NJQRIYS63|1118=N|1119=1|15=EUR|120=GBP|1924=1|22600=55000|22601=EUR|854=1|231=10|30=KBLM|10=018|8=FIXT.1.1|9=63|35=0|34=136|49=APAQA2_Verion5|52=20180404-13:58:54.199|56=TRAX|10=120|8=FIXT.1.1|9=63|35=0|34=137|49=APAQA2_Verion5|52=20180404-13:59:24.204|56=TRAX|10=106|8=FIXT.1.1|9=455|35=AE|34=138|49=APAQA2_Verion5|50=APA|57=APA|52=20180404-13:59:48.872|56=TRAX|571=TradeReport1|487=0|325=Y|423=22|55=[N/A]|48=DE000A2AAP11|22=4|32=869.09|31=8498.90|60=20180313-00:20:13.370|552=1|54=1|29=5|1041=PPB-1582_052|996=Bbl|997=H|1147=100088434|1934=0|1116=3|1117=05B6OC1W7N8NJQRIYS63|1118=N|1119=116|1117=05B6OC1W7N8NJQRIYS63|1118=N|1119=1|1117=05B6OC1W7N8NJQRIYS63|1118=N|1119=17|15=EUR|120=GBP|1924=1|22600=55000|22601=EUR|854=1|231=10|30=KBLM|10=069|8=FIXT.1.1|9=455|35=AE|34=139|49=APAQA2_Verion5|50=APA|57=APA|52=20180404-13:59:59.649|56=TRAX|571=TradeReport1|487=0|325=Y|423=22|55=[N/A]|48=DE000A2AAP11|22=4|32=869.09|31=8498.90|60=20180313-00:20:13.370|552=1|54=1|29=5|1041=PPB-1582_053|996=Bbl|997=H|1147=100088434|1934=0|1116=3|1117=05B6OC1W7N8NJQRIYS63|1118=N|1119=116|1117=05B6OC1W7N8NJQRIYS63|1118=N|1119=1|1117=05B6OC1W7N8NJQRIYS63|1118=N|1119=17|15=EUR|120=GBP|1924=1|22600=55000|22601=EUR|854=1|231=10|30=KBLM|10=075|8=FIXT.1.1|9=63|35=0|34=140|49=APAQA2_Verion5|52=20180404-14:00:30.199|56=TRAX|10=097|8=FIXT.1.1|9=63|35=0|34=141|49=APAQA2_Verion5|52=20180404-14:01:00.205|56=TRAX|10=084|8=FIXT.1.1|9=63|35=0|34=142|49=APAQA2_Verion5|52=20180404-14:01:30.205|56=TRAX|10=088|8=FIXT.1.1|9=63|35=0|34=143|49=APAQA2_Verion5|52=20180404-14:02:01.204|56=TRAX|10=087|8=FIXT.1.1|9=63|35=0|34=144|49=APAQA2_Verion5|52=20180404-14:02:31.211|56=TRAX|10=089|8=FIXT.1.1|9=63|35=0|34=145|49=APAQA2_Verion5|52=20180404-14:03:02.212|56=TRAX|10=090|8=FIXT.1.1|9=63|35=0|34=146|49=APAQA2_Verion5|52=20180404-14:03:32.212|56=TRAX|10=094|8=FIXT.1.1|9=63|35=0|34=147|49=APAQA2_Verion5|52=20180404-14:04:02.212|56=TRAX|10=093|8=FIXT.1.1|9=63|35=0|34=148|49=APAQA2_Verion5|52=20180404-14:04:33.061|56=TRAX|10=100|8=FIXT.1.1|9=63|35=0|34=149|49=APAQA2_Verion5|52=20180404-14:05:03.061|56=TRAX|10=099|8=FIXT.1.1|9=63|35=0|34=150|49=APAQA2_Verion5|52=20180404-14:05:33.064|56=TRAX|10=097|8=FIXT.1.1|9=63|35=0|34=151|49=APAQA2_Verion5|52=20180404-14:06:03.085|56=TRAX|10=099|8=FIXT.1.1|9=455|35=AE|34=152|49=APAQA2_Verion5|50=APA|57=APA|52=20180404-14:06:10.746|56=TRAX|571=TradeReport1|487=0|325=Y|423=22|55=[N/A]|48=DE000A2AAP11|22=4|32=869.09|31=8498.90|60=20180313-00:20:13.370|552=1|54=1|29=5|1041=PPB-1582_054|996=Bbl|997=H|1147=100088434|1934=0|1116=3|1117=05B6OC1W7N8NJQRIYS63|1118=N|1119=116|1117=05B6OC1W7N8NJQRIYS63|1118=N|1119=1|1117=4PQUHN3JPFGFNF3BB653|1118=N|1119=17|15=EUR|120=GBP|1924=1|22600=55000|22601=EUR|854=1|231=10|30=KBLM|10=045|8=FIXT.1.1|9=63|35=0|34=153|49=APAQA2_Verion5|52=20180404-14:06:41.213|56=TRAX|10=096|8=FIXT.1.1|9=63|35=0|34=154|49=APAQA2_Verion5|52=20180404-14:07:12.204|56=TRAX|10=096|8=FIXT.1.1|9=63|35=0|34=155|49=APAQA2_Verion5|52=20180404-14:07:42.206|56=TRAX|10=102|8=FIXT.1.1|9=63|35=0|34=156|49=APAQA2_Verion5|52=20180404-14:08:13.214|56=TRAX|10=101|8=FIXT.1.1|9=63|35=0|34=157|49=APAQA2_Verion5|52=20180404-14:08:44.151|56=TRAX|10=106|8=FIXT.1.1|9=63|35=0|34=158|49=APAQA2_Verion5|52=20180404-14:09:14.216|56=TRAX|10=107|8=FIXT.1.1|9=63|35=0|34=159|49=APAQA2_Verion5|52=20180404-14:09:45.208|56=TRAX|10=113|8=FIXT.1.1|9=63|35=0|34=160|49=APAQA2_Verion5|52=20180404-14:10:15.216|56=TRAX|10=093|8=FIXT.1.1|9=63|35=0|34=161|49=APAQA2_Verion5|52=20180404-14:10:45.216|56=TRAX|10=097|8=FIXT.1.1|9=63|35=0|34=162|49=APAQA2_Verion5|52=20180404-14:11:16.207|56=TRAX|10=097|8=FIXT.1.1|9=63|35=0|34=163|49=APAQA2_Verion5|52=20180404-14:11:47.212|56=TRAX|10=098|8=FIXT.1.1|9=63|35=0|34=164|49=APAQA2_Verion5|52=20180404-14:12:18.215|56=TRAX|10=101|8=FIXT.1.1|9=63|35=0|34=165|49=APAQA2_Verion5|52=20180404-14:12:49.214|56=TRAX|10=105|8=FIXT.1.1|9=63|35=0|34=166|49=APAQA2_Verion5|52=20180404-14:13:19.216|56=TRAX|10=106|8=FIXT.1.1|9=63|35=0|34=167|49=APAQA2_Verion5|52=20180404-14:13:49.216|56=TRAX|10=110|8=FIXT.1.1|9=63|35=0|34=168|49=APAQA2_Verion5|52=20180404-14:14:20.206|56=TRAX|10=100|8=FIXT.1.1|9=63|35=0|34=169|49=APAQA2_Verion5|52=20180404-14:14:50.210|56=TRAX|10=099|8=FIXT.1.1|9=63|35=0|34=170|49=APAQA2_Verion5|52=20180404-14:15:20.210|56=TRAX|10=089|8=FIXT.1.1|9=63|35=0|34=171|49=APAQA2_Verion5|52=20180404-14:15:50.216|56=TRAX|10=099|8=FIXT.1.1|9=63|35=0|34=172|49=APAQA2_Verion5|52=20180404-14:16:21.206|56=TRAX|10=098|8=FIXT.1.1|9=63|35=0|34=173|49=APAQA2_Verion5|52=20180404-14:16:51.206|56=TRAX|10=102|8=FIXT.1.1|9=63|35=0|34=174|49=APAQA2_Verion5|52=20180404-14:17:21.213|56=TRAX|10=099|8=FIXT.1.1|9=63|35=0|34=175|49=APAQA2_Verion5|52=20180404-14:17:52.217|56=TRAX|10=108|8=FIXT.1.1|9=63|35=0|34=176|49=APAQA2_Verion5|52=20180404-14:18:23.218|56=TRAX|10=109|8=FIXT.1.1|9=63|35=0|34=177|49=APAQA2_Verion5|52=20180404-14:18:53.218|56=TRAX|10=113|8=FIXT.1.1|9=63|35=0|34=178|49=APAQA2_Verion5|52=201804