8=FIX.4.4|9=333|35=D|34=24|49=MMABAXUK|52=20181130-09:04:32.554|56=MA|11=JBMM181129-F01|21=1|453=1|448=MMABAXUK|447=C|452=11|55=XS1334778021|48=XS1334778021|22=4|54=2|60=20181129-15:01:19.113|38=100000|40=2|44=90|15=USD|59=6|126=20181207-21:59:00.000|10=179|
8=FIX.4.4|9=333|35=D|34=24|49=MMABAXUK|52=20181130-09:04:32.554|56=MA|11=JBMM181129-F02|21=1|453=1|448=MMABAXUK|447=C|452=11|55=XS1334778021|48=XS1334778021|22=4|54=2|60=20181129-15:01:19.113|38=200000|40=2|44=90|15=USD|59=6|126=20181207-21:59:00.000|10=179|
8=FIX.4.4|9=333|35=D|34=24|49=MMABAXUK|52=20181130-09:04:32.554|56=MA|11=JBMM181129-F03|21=1|453=1|448=MMABAXUK|447=C|452=11|55=XS1334778021|48=XS1334778021|22=4|54=2|60=20181129-15:01:19.113|38=300000|40=2|44=90|15=USD|59=6|126=20181207-21:59:00.000|10=179|
8=FIX.4.4|9=333|35=D|34=24|49=MMABAXUK|52=20181130-09:04:32.554|56=MA|11=JBMM181129-F04|21=1|453=1|448=MMABAXUK|447=C|452=11|55=XS1334778021|48=XS1334778021|22=4|54=2|60=20181129-15:01:19.113|38=400000|40=2|44=90|15=USD|59=6|126=20181207-21:59:00.000|10=179|
8=FIX.4.4|9=333|35=D|34=24|49=MMABAXUK|52=20181130-09:04:32.554|56=MA|11=JBMM181129-F05|21=1|453=1|448=MMABAXUK|447=C|452=11|55=XS1334778021|48=XS1334778021|22=4|54=2|60=20181129-15:01:19.113|38=500000|40=2|44=90|15=USD|59=6|126=20181207-21:59:00.000|10=179|
8=FIX.4.4|9=333|35=D|34=24|49=MMABAXUK|52=20181130-09:04:32.554|56=MA|11=JBMM181129-F06|21=1|453=1|448=MMABAXUK|447=C|452=11|55=XS1334778021|48=XS1334778021|22=4|54=2|60=20181129-15:01:19.113|38=600000|40=2|44=90|15=USD|59=6|126=20181207-21:59:00.000|10=179|
8=FIX.4.4|9=333|35=D|34=24|49=MMABAXUK|52=20181130-09:04:32.554|56=MA|11=JBMM181129-F07|21=1|453=1|448=MMABAXUK|447=C|452=11|55=XS1334778021|48=XS1334778021|22=4|54=2|60=20181129-15:01:19.113|38=700000|40=2|44=90|15=USD|59=6|126=20181207-21:59:00.000|10=179|
8=FIX.4.4|9=333|35=D|34=24|49=MMABAXUK|52=20181130-09:04:32.554|56=MA|11=JBMM181129-F08|21=1|453=1|448=MMABAXUK|447=C|452=11|55=XS1334778021|48=XS1334778021|22=4|54=2|60=20181129-15:01:19.113|38=800000|40=2|44=90|15=USD|59=6|126=20181207-21:59:00.000|10=179|
8=FIX.4.4|9=333|35=D|34=24|49=MMABAXUK|52=20181130-09:04:32.554|56=MA|11=JBMM181129-F09|21=1|453=1|448=MMABAXUK|447=C|452=11|55=XS1334778021|48=XS1334778021|22=4|54=2|60=20181129-15:01:19.113|38=900000|40=2|44=90|15=USD|59=6|126=20181207-21:59:00.000|10=179|
8=FIX.4.4|9=333|35=D|34=24|49=MMABAXUK|52=20181130-09:04:32.554|56=MA|11=JBMM181129-F10|21=1|453=1|448=MMABAXUK|447=C|452=11|55=XS1334778021|48=XS1334778021|22=4|54=2|60=20181129-15:01:19.113|38=1000000|40=2|44=90|15=USD|59=6|126=20181207-21:59:00.000|10=179|
