8=FIX.4.2|9=306|35=E|34=201|49=JBFIXHUBPRD|52=20190411-11:29:39.174|56=MA|66=MMAD-FIX42-ListID-210519-001|394=2|68=2|73=2|11=FIX42-List-ClOrdID01-001|67=1|55=US124661AA71|54=1|60=20190411-11:01:26.602|38=1000000|40=2|59=0|11=FIX42-List-ClOrdID02-001|67=2|55=US842400FC28|54=1|60=20190411-11:01:26.602|38=2000000|40=2|59=0|10=213|