8=FIX.4.2|9=82|35=A|34=1|49=ACCEPT|52=20180925-12:13:50.750|56=INIT|98=0|108=30|95=8|96=3.0.0rc4|10=110|8=FIX.4.2|9=53|35=0|34=2|49=ACCEPT|52=20180925-12:14:21.469|56=INIT|10=192|8=FIX.4.2|9=53|35=0|34=3|49=ACCEPT|52=20180925-12:14:51.473|56=INIT|10=191|8=FIX.4.2|9=53|35=0|34=4|49=ACCEPT|52=20180925-12:15:21.711|56=INIT|10=185|8=FIX.4.2|9=349|35=8|49=ACCEPT|56=INIT|34=5|52=20180925-12:15:25.486|37=5822107|11=JBZ1808061810142552|109=STP Test Client|17=5822107-kn5lj|20=0|150=0|39=0|22=4|48=USP79171AE79|55=FIXED|54=1|64=20180817|38=870000|151=870000|32=0|31=0|75=20180815|381=0|14=0|6=0.0|15=USD|120=USD|60=20180815-12:04:32|223=7.45|106=PROVINCE OF CORDOBA|107=CORDO  7.450  9/1/24 (URegS)|10=047|8=FIX.4.2|9=53|35=0|34=6|49=ACCEPT|52=20180925-12:15:56.472|56=INIT|10=199|8=FIX.4.2|9=53|35=0|34=7|49=ACCEPT|52=20180925-12:16:27.475|56=INIT|10=202|8=FIX.4.2|9=62|35=2|34=8|49=ACCEPT|52=20180925-12:16:37.699|56=INIT|7=7|16=0|10=087|8=FIX.4.2|9=53|35=0|34=9|49=ACCEPT|52=20180925-12:17:07.710|56=INIT|10=195|8=FIX.4.2|9=54|35=0|34=10|49=ACCEPT|52=20180925-12:17:38.472|56=INIT|10=245|8=FIX.4.2|9=63|35=1|34=11|49=ACCEPT|52=20180925-12:17:53.473|56=INIT|112=TEST|10=007|8=FIX.4.2|9=54|35=0|34=12|49=ACCEPT|52=20180925-12:18:23.695|56=INIT|10=249|8=FIX.4.2|9=54|35=0|34=13|49=ACCEPT|52=20180925-12:18:53.698|56=INIT|10=000|8=FIX.4.2|9=54|35=0|34=14|49=ACCEPT|52=20180925-12:19:23.701|56=INIT|10=240|8=FIX.4.2|9=54|35=0|34=15|49=ACCEPT|52=20180925-12:19:53.708|56=INIT|10=251|8=FIX.4.2|9=54|35=0|34=16|49=ACCEPT|52=20180925-12:20:24.461|56=INIT|10=238|8=FIX.4.2|9=54|35=0|34=17|49=ACCEPT|52=20180925-12:20:54.464|56=INIT|10=245|8=FIX.4.2|9=54|35=0|34=18|49=ACCEPT|52=20180925-12:21:24.465|56=INIT|10=245|8=FIX.4.2|9=54|35=0|34=19|49=ACCEPT|52=20180925-12:21:54.698|56=INIT|10=001|8=FIX.4.2|9=54|35=0|34=20|49=ACCEPT|52=20180925-12:22:25.463|56=INIT|10=238|8=FIX.4.2|9=54|35=0|34=21|49=ACCEPT|52=20180925-12:22:55.694|56=INIT|10=248|8=FIX.4.2|9=54|35=0|34=22|49=ACCEPT|52=20180925-12:23:26.459|56=INIT|10=247|8=FIX.4.2|9=54|35=0|34=23|49=ACCEPT|52=20180925-12:23:56.468|56=INIT|10=251|8=FIX.4.2|9=54|35=5|34=24|49=ACCEPT|52=20180925-12:24:07.706|56=INIT|10=249|8=FIX.4.2|9=83|35=A|34=25|49=ACCEPT|52=20180925-12:24:29.701|56=INIT|98=0|108=30|95=8|96=3.0.0rc4|10=169|8=FIX.4.2|9=63|35=2|34=26|49=ACCEPT|52=20180925-12:24:29.701|56=INIT|7=8|16=0|10=121|8=FIX.4.2|9=54|35=5|34=27|49=ACCEPT|52=20180925-12:24:52.467|56=INIT|10=000|8=FIX.4.2|9=82|35=A|34=1|49=ACCEPT|52=20180925-12:25:02.697|56=INIT|98=0|108=30|95=8|96=3.0.0rc4|10=120|8=FIX.4.2|9=53|35=5|34=2|49=ACCEPT|52=20180925-12:25:02.697|56=INIT|10=201|8=FIX.4.2|9=53|35=5|34=3|49=ACCEPT|52=20180925-12:25:02.697|56=INIT|10=202|8=FIX.4.2|9=82|35=A|34=4|49=ACCEPT|52=20180925-12:25:24.705|56=INIT|98=0|108=30|95=8|96=3.0.0rc4|10=117|8=FIX.4.2|9=53|35=0|34=5|49=ACCEPT|52=20180925-12:25:54.707|56=INIT|10=198|8=FIX.4.2|9=53|35=0|34=6|49=ACCEPT|52=20180925-12:26:25.465|56=INIT|10=199|8=FIX.4.2|9=53|35=0|34=7|49=ACCEPT|52=20180925-12:26:56.461|56=INIT|10=200|8=FIX.4.2|9=53|35=0|34=8|49=ACCEPT|52=20180925-12:27:27.456|56=INIT|10=204|8=FIX.4.2|9=62|35=2|34=9|49=ACCEPT|52=20180925-12:27:56.694|56=INIT|7=9|16=0|10=088|8=FIX.4.2|9=54|35=0|34=10|49=ACCEPT|52=20180925-12:28:26.697|56=INIT|10=253|8=FIX.4.2|9=54|35=0|34=11|49=ACCEPT|52=20180925-12:28:56.702|56=INIT|10=244|8=FIX.4.2|9=54|35=0|34=12|49=ACCEPT|52=20180925-12:29:26.707|56=INIT|10=248|8=FIX.4.2|9=54|35=5|34=13|49=ACCEPT|52=20180925-12:29:31.706|56=INIT|10=249|8=FIX.4.2|9=83|35=A|34=14|49=ACCEPT|52=20180925-12:30:52.590|56=INIT|98=0|108=30|95=8|96=3.0.0rc4|10=166|8=FIX.4.2|9=64|35=2|34=15|49=ACCEPT|52=20180925-12:30:52.590|56=INIT|7=10|16=0|10=160|8=FIX.4.2|9=54|35=0|34=16|49=ACCEPT|52=20180925-12:31:22.817|56=INIT|10=243|8=FIX.4.2|9=54|35=0|34=17|49=ACCEPT|52=20180925-12:31:52.829|56=INIT|10=250|8=FIX.4.2|9=64|35=2|34=18|49=ACCEPT|52=20180925-12:31:56.589|56=INIT|7=18|16=0|10=184|8=FIX.4.2|9=54|35=0|34=19|49=ACCEPT|52=20180925-12:32:26.594|56=INIT|10=253|8=FIX.4.2|9=54|35=0|34=20|49=ACCEPT|52=20180925-12:32:56.825|56=INIT|10=245|8=FIX.4.2|9=54|35=0|34=21|49=ACCEPT|52=20180925-12:33:27.823|56=INIT|10=243|8=FIX.4.2|9=54|35=0|34=22|49=ACCEPT|52=20180925-12:33:57.825|56=INIT|10=249|8=FIX.4.2|9=54|35=0|34=23|49=ACCEPT|52=20180925-12:34:28.822|56=INIT|10=246|8=FIX.4.2|9=54|35=0|34=24|49=ACCEPT|52=20180925-12:34:58.828|56=INIT|10=000|8=FIX.4.2|9=121|35=3|34=25|49=ACCEPT|52=20180925-12:35:17.335|56=INIT|45=30|371=157|372=8|373=2|58=Tag not defined for this message type|10=016|8=FIX.4.2|9=105|35=3|34=26|49=ACCEPT|52=20180925-12:35:17.335|56=INIT|45=19|372=0|373=10|58=SendingTime accuracy problem|10=252|8=FIX.4.2|9=54|35=5|34=27|49=ACCEPT|52=20180925-12:35:17.335|56=INIT|10=253|8=FIX.4.2|9=105|35=3|34=28|49=ACCEPT|52=20180925-12:35:17.335|56=INIT|45=20|372=0|373=10|58=SendingTime accuracy problem|10=246|8=FIX.4.2|9=54|35=5|34=29|49=ACCEPT|52=20180925-12:35:17.335|56=INIT|10=255|8=FIX.4.2|9=82|35=A|34=1|49=ACCEPT|52=20180925-12:37:49.584|56=INIT|98=0|108=30|95=8|96=3.0.0rc4|10=129|8=FIX.4.2|9=119|35=3|34=2|49=ACCEPT|52=20180925-12:38:06.758|56=INIT|45=2|371=157|372=8|373=2|58=Tag not defined for this message type|10=187|8=FIX.4.2|9=62|35=1|34=3|49=ACCEPT|52=20180925-12:38:34.818|56=INIT|112=TEST|10=220|8=FIX.4.2|9=119|35=3|34=4|49=ACCEPT|52=20180925-12:38:45.881|56=INIT|45=4|371=157|372=8|373=2|58=Tag not defined for this message type|10=191|8=FIX.4.2|9=53|35=0|34=5|49=ACCEPT|52=20180925-12:39:16.586|56=INIT|10=206|8=FIX.4.2|9=53|35=0|34=6|49=ACCEPT|52=20180925-12:39:46.592|56=INIT|10=207|8=FIX.4.2|9=53|35=0|34=7|49=ACCEPT|52=20180925-12:40:16.824|56=INIT|10=195|8=FIX.4.2|9=53|35=0|34=8|49=ACCEPT|52=20180925-12:40:47.585|56=INIT|10=204|8=FIX.4.2|9=53|35=0|34=9|49=ACCEPT|52=20180925-12:41:17.815|56=INIT|10=199|8=FIX.4.2|9=63|35=2|34=10|49=ACCEPT|52=20180925-12:41:18.585|56=INIT|7=9|16=0|10=122|8=FIX.4.2|9=54|35=0|34=11|49=ACCEPT|52=20180925-12:41:48.592|56=INIT|10=247|8=FIX.4.2|9=54|35=0|34=12|49=ACCEPT|52=20180925-12:42:18.814|56=INIT|10=243|8=FIX.4.2|9=54|35=0|34=13|49=ACCEPT|52=20180925-12:42:48.827|56=INIT|10=251|8=FIX.4.2|9=54|35=0|34=14|49=ACCEPT|52=20180925-12:43:19.818|56=INIT|10=251|8=FIX.4.2|9=54|35=0|34=15|49=ACCEPT|52=20180925-12:43:50.816|56=INIT|10=245|8=FIX.4.2|9=54|35=0|34=16|49=ACCEPT|52=20180925-12:44:20.822|56=INIT|10=241|8=FIX.4.2|9=54|35=0|34=17|49=ACCEPT|52=20180925-12:44:51.817|56=INIT|10=250|8=FIX.4.2|9=54|35=0|34=18|49=ACCEPT|52=20180925-12:45:21.822|56=INIT|10=245|8=FIX.4.2|9=54|35=0|34=19|49=ACCEPT|52=20180925-12:45:52.815|56=INIT|10=252|8=FIX.4.2|9=54|35=0|34=20|49=ACCEPT|52=20180925-12:46:23.813|56=INIT|10=241|8=FIX.4.2|9=54|35=0|34=21|49=ACCEPT|52=20180925-12:46:53.824|56=INIT|10=247|8=FIX.4.2|9=54|35=0|34=22|49=ACCEPT|52=20180925-12:47:23.825|56=INIT|10=247|8=FIX.4.2|9=54|35=0|34=23|49=ACCEPT|52=20180925-12:47:54.817|56=INIT|10=253|8=FIX.4.2|9=54|35=0|34=24|49=ACCEPT|52=20180925-12:48:24.821|56=INIT|10=247|8=FIX.4.2|9=54|35=0|34=25|49=ACCEPT|52=20180925-12:48:55.814|56=INIT|10=254|8=FIX.4.2|9=54|35=0|34=26|49=ACCEPT|52=20180925-12:49:25.824|56=INIT|10=254|8=FIX.4.2|9=54|35=0|34=27|49=ACCEPT|52=20180925-12:49:56.814|56=INIT|10=002|8=FIX.4.2|9=54|35=0|34=28|49=ACCEPT|52=20180925-12:50:26.823|56=INIT|10=248|8=FIX.4.2|9=54|35=0|34=29|49=ACCEPT|52=20180925-12:50:57.815|56=INIT|10=254|8=FIX.4.2|9=54|35=0|34=30|49=ACCEPT|52=20180925-12:51:27.815|56=INIT|10=244|8=FIX.4.2|9=54|35=0|34=31|49=ACCEPT|52=20180925-12:51:57.819|56=INIT|10=252|8=FIX.4.2|9=54|35=0|34=32|49=ACCEPT|52=20180925-12:52:28.809|56=INIT|10=251|8=FIX.4.2|9=54|35=0|34=33|49=ACCEPT|52=20180925-12:52:58.813|56=INIT|10=250|8=FIX.4.2|9=54|35=0|34=34|49=ACCEPT|52=20180925-12:53:28.816|56=INIT|10=252|8=FIX.4.2|9=54|35=0|34=35|49=ACCEPT|52=20180925-12:53:58.819|56=INIT|10=003|8=FIX.4.2|9=54|35=0|34=36|49=ACCEPT|52=20180925-12:54:28.823|56=INIT|10=253|8=FIX.4.2|9=54|35=0|34=37|49=ACCEPT|52=20180925-12:54:59.810|56=INIT|10=254|8=FIX.4.2|9=54|35=0|34=38|49=ACCEPT|52=20180925-12:55:29.813|56=INIT|10=000|8=FIX.4.2|9=54|35=0|34=39|49=ACCEPT|52=20180925-12:55:59.816|56=INIT|10=007|8=FIX.4.2|9=54|35=0|34=40|49=ACCEPT|52=20180925-12:56:29.819|56=INIT|10=000|8=FIX.4.2|9=54|35=0|34=41|49=ACCEPT|52=20180925-12:57:00.806|56=INIT|10=243|8=FIX.4.2|9=54|35=0|34=42|49=ACCEPT|52=20180925-12:57:30.809|56=INIT|10=250|8=FIX.4.2|9=54|35=0|34=43|49=ACCEPT|52=20180925-12:58:00.812|56=INIT|10=243|8=FIX.4.2|9=54|35=0|34=44|49=ACCEPT|52=20180925-12:58:30.815|56=INIT|10=250|8=FIX.4.2|9=54|35=0|34=45|49=ACCEPT|52=20180925-12:59:00.818|56=INIT|10=252|8=FIX.4.2|9=54|35=0|34=46|49=ACCEPT|52=20180925-12:59:31.806|56=INIT|10=254|8=FIX.4.2|9=54|35=0|34=47|49=ACCEPT|52=20180925-13:00:01.809|56=INIT|10=242|8=FIX.4.2|9=54|35=0|34=48|49=ACCEPT|52=20180925-13:00:31.812|56=INIT|10=240|8=FIX.4.2|9=54|35=0|34=49|49=ACCEPT|52=20180925-13:01:01.815|56=INIT|10=242|8=FIX.4.2|9=54|35=0|34=50|49=ACCEPT|52=20180925-13:01:31.818|56=INIT|10=240|8=FIX.4.2|9=54|35=0|34=51|49=ACCEPT|52=20180925-13:02:02.806|56=INIT|10=237|8=FIX.4.2|9=54|35=0|34=52|49=ACCEPT|52=20180925-13:02:32.809|56=INIT|10=244|8=FIX.4.2|9=54|35=0|34=53|49=ACCEPT|52=20180925-13:03:02.812|56=INIT|10=237|8=FIX.4.2|9=54|35=0|34=54|49=ACCEPT|52=20180925-13:03:32.815|56=INIT|10=244|8=FIX.4.2|9=54|35=0|34=55|49=ACCEPT|52=20180925-13:04:03.803|56=INIT|10=241|8=FIX.4.2|9=54|35=0|34=56|49=ACCEPT|52=20180925-13:04:33.806|56=INIT|10=248|8=FIX.4.2|9=54|35=0|34=57|49=ACCEPT|52=20180925-13:05:03.810|56=INIT|10=242|8=FIX.4.2|9=54|35=0|34=58|49=ACCEPT|52=20180925-13:05:33.812|56=INIT|10=248|8=FIX.4.2|9=54|35=0|34=59|49=ACCEPT|52=20180925-13:06:03.816|56=INIT|10=251|8=FIX.4.2|9=54|35=0|34=60|49=ACCEPT|52=20180925-13:06:34.803|56=INIT|10=243|8=FIX.4.2|9=54|35=0|34=61|49=ACCEPT|52=20180925-13:07:04.806|56=INIT|10=245|8=FIX.4.2|9=54|35=0|34=62|49=ACCEPT|52=20180925-13:07:34.810|56=INIT|10=244|8=FIX.4.2|9=54|35=0|34=63|49=ACCEPT|52=20180925-13:08:04.812|56=INIT|10=245|8=FIX.4.2|9=54|35=0|34=64|49=ACCEPT|52=20180925-13:08:34.816|56=INIT|10=253|8=FIX.4.2|9=54|35=0|34=65|49=ACCEPT|52=20180925-13:09:05.803|56=INIT|10=249|8=FIX.4.2|9=54|35=0|34=66|49=ACCEPT|52=20180925-13:09:35.806|56=INIT|10=000|8=FIX.4.2|9=54|35=0|34=67|49=ACCEPT|52=20180925-13:10:05.809|56=INIT|10=249|8=FIX.4.2|9=54|35=0|34=68|49=ACCEPT|52=20180925-13:10:35.813|56=INIT|10=248|8=FIX.4.2|9=54|35=0|34=69|49=ACCEPT|52=20180925-13:11:05.816|56=INIT|10=250|8=FIX.4.2|9=54|35=0|34=70|49=ACCEPT|52=20180925-13:11:36.803|56=INIT|10=242|8=FIX.4.2|9=54|35=0|34=71|49=ACCEPT|52=20180925-13:12:06.807|56=INIT|10=245|8=FIX.4.2|9=54|35=0|34=72|49=ACCEPT|52=20180925-13:12:36.810|56=INIT|10=243|8=FIX.4.2|9=54|35=0|34=73|49=ACCEPT|52=20180925-13:13:06.812|56=INIT|10=244|8=FIX.4.2|9=54|35=0|34=74|49=ACCEPT|52=20180925-13:13:37.800|56=INIT|10=246|8=FIX.4.2|9=54|35=0|34=75|49=ACCEPT|52=20180925-13:14:07.803|56=INIT|10=248|8=FIX.4.2|9=54|35=0|34=76|49=ACCEPT|52=20180925-13:14:37.806|56=INIT|10=255|8=FIX.4.2|9=54|35=0|34=77|49=ACCEPT|52=20180925-13:15:07.810|56=INIT|10=249|8=FIX.4.2|9=54|35=0|34=78|49=ACCEPT|52=20180925-13:15:37.813|56=INIT|10=000|8=FIX.4.2|9=54|35=0|34=79|49=ACCEPT|52=20180925-13:16:08.801|56=INIT|10=253|8=FIX.4.2|9=54|35=0|34=80|49=ACCEPT|52=20180925-13:16:38.803|56=INIT|10=250|8=FIX.4.2|9=54|35=0|34=81|49=ACCEPT|52=20180925-13:17:08.806|56=INIT|10=252|8=FIX.4.2|9=54|35=0|34=82|49=ACCEPT|52=20180925-13:17:38.810|56=INIT|10=251|8=FIX.4.2|9=54|35=0|34=83|49=ACCEPT|52=20180925-13:18:08.812|56=INIT|10=252|8=FIX.4.2|9=54|35=0|34=84|49=ACCEPT|52=20180925-13:18:39.800|56=INIT|10=254|8=FIX.4.2|9=54|35=0|34=85|49=ACCEPT|52=20180925-13:19:09.804|56=INIT|10=001|8=FIX.4.2|9=54|35=0|34=86|49=ACCEPT|52=20180925-13:19:39.807|56=INIT|10=008|8=FIX.4.2|9=54|35=0|34=87|49=ACCEPT|52=20180925-13:20:09.809|56=INIT|10=000|8=FIX.4.2|9=54|35=0|34=88|49=ACCEPT|52=20180925-13:20:39.813|56=INIT|10=255|8=FIX.4.2|9=54|35=0|34=89|49=ACCEPT|52=20180925-13:21:10.800|56=INIT|10=242|8=FIX.4.2|9=54|35=0|34=90|49=ACCEPT|52=20180925-13:21:40.803|56=INIT|10=240|8=FIX.4.2|9=54|35=0|34=91|49=ACCEPT|52=20180925-13:22:10.806|56=INIT|10=242|8=FIX.4.2|9=54|35=0|34=92|49=ACCEPT|52=20180925-13:22:40.809|56=INIT|10=249|8=FIX.4.2|9=54|35=0|34=93|49=ACCEPT|52=20180925-13:23:10.812|56=INIT|10=242|8=FIX.4.2|9=54|35=0|34=94|49=ACCEPT|52=20180925-13:23:41.799|56=INIT|10=005|8=FIX.4.2|9=54|35=0|34=95|49=ACCEPT|52=20180925-13:24:11.803|56=INIT|10=246|8=FIX.4.2|9=54|35=0|34=96|49=ACCEPT|52=20180925-13:24:41.806|56=INIT|10=253|8=FIX.4.2|9=54|35=0|34=97|49=ACCEPT|52=20180925-13:25:11.808|56=INIT|10=254|8=FIX.4.2|9=54|35=0|34=98|49=ACCEPT|52=20180925-13:25:42.796|56=INIT|10=009|8=FIX.4.2|9=54|35=0|34=99|49=ACCEPT|52=20180925-13:26:12.800|56=INIT|10=250|8=FIX.4.2|9=55|35=0|34=100|49=ACCEPT|52=20180925-13:26:42.802|56=INIT|10=031|8=FIX.4.2|9=55|35=0|34=101|49=ACCEPT|52=20180925-13:27:12.805|56=INIT|10=033|8=FIX.4.2|9=55|35=0|34=102|49=ACCEPT|52=20180925-13:27:42.809|56=INIT|10=041|8=FIX.4.2|9=55|35=0|34=103|49=ACCEPT|52=20180925-13:28:13.796|56=INIT|10=046|8=FIX.4.2|9=55|35=0|34=104|49=ACCEPT|52=20180925-13:28:43.799|56=INIT|10=053|8=FIX.4.2|9=55|35=0|34=105|49=ACCEPT|52=20180925-13:29:13.802|56=INIT|10=037|8=FIX.4.2|9=55|35=0|34=106|49=ACCEPT|52=20180925-13:29:43.805|56=INIT|10=044|8=FIX.4.2|9=55|35=0|34=107|49=ACCEPT|52=20180925-13:30:13.809|56=INIT|10=038|8=FIX.4.2|9=55|35=0|34=108|49=ACCEPT|52=20180925-13:30:44.796|56=INIT|10=048|8=FIX.4.2|9=55|35=0|34=109|49=ACCEPT|52=20180925-13:31:14.800|56=INIT|10=033|8=FIX.4.2|9=55|35=0|34=110|49=ACCEPT|52=20180925-13:31:44.803|56=INIT|10=031|8=FIX.4.2|9=55|35=0|34=111|49=ACCEPT|52=20180925-13:32:14.805|56=INIT|10=032|8=FIX.4.2|9=55|35=0|34=112|49=ACCEPT|52=20180925-13:32:45.793|56=INIT|10=043|8=FIX.4.2|9=55|35=0|34=113|49=ACCEPT|52=20180925-13:33:15.796|56=INIT|10=045|8=FIX.4.2|9=55|35=0|34=114|49=ACCEPT|52=20180925-13:33:45.799|56=INIT|10=052|8=FIX.4.2|9=55|35=0|34=115|49=ACCEPT|52=20180925-13:34:15.802|56=INIT|10=036|8=FIX.4.2|9=55|35=0|34=116|49=ACCEPT|52=20180925-13:34:45.805|56=INIT|10=043|8=FIX.4.2|9=55|35=0|34=117|49=ACCEPT|52=20180925-13:35:16.792|56=INIT|10=048|8=FIX.4.2|9=55|35=0|34=118|49=ACCEPT|52=20180925-13:35:46.796|56=INIT|10=056|8=FIX.4.2|9=55|35=0|34=119|49=ACCEPT|52=20180925-13:36:16.799|56=INIT|10=058|8=FIX.4.2|9=55|35=0|34=120|49=ACCEPT|52=20180925-13:36:46.802|56=INIT|10=038|8=FIX.4.2|9=55|35=0|34=121|49=ACCEPT|52=20180925-13:37:16.804|56=INIT|10=039|8=FIX.4.2|9=55|35=0|34=122|49=ACCEPT|52=20180925-13:37:47.792|56=INIT|10=050|8=FIX.4.2|9=55|35=0|34=123|49=ACCEPT|52=20180925-13:38:17.796|56=INIT|10=053|8=FIX.4.2|9=55|35=0|34=124|49=ACCEPT|52=20180925-13:38:47.799|56=INIT|10=060|8=FIX.4.2|9=55|35=0|34=125|49=ACCEPT|52=20180925-13:39:17.802|56=INIT|10=044|8=FIX.4.2|9=55|35=0|34=126|49=ACCEPT|52=20180925-13:39:47.805|56=INIT|10=051|8=FIX.4.2|9=55|35=0|34=127|49=ACCEPT|52=20180925-13:40:18.792|56=INIT|10=047|8=FIX.4.2|9=55|35=0|34=128|49=ACCEPT|52=20180925-13:40:48.796|56=INIT|10=055|8=FIX.4.2|9=55|35=0|34=129|49=ACCEPT|52=20180925-13:41:18.799|56=INIT|10=057|8=FIX.4.2|9=55|35=0|34=130|49=ACCEPT|52=20180925-13:41:48.802|56=INIT|10=037|8=FIX.4.2|9=55|35=0|34=131|49=ACCEPT|52=20180925-13:42:19.790|56=INIT|10=043|8=FIX.4.2|9=55|35=0|34=132|49=ACCEPT|52=20180925-13:42:49.793|56=INIT|10=050|8=FIX.4.2|9=55|35=0|34=133|49=ACCEPT|52=20180925-13:43:19.796|56=INIT|10=052|8=FIX.4.2|9=55|35=0|34=134|49=ACCEPT|52=20180925-13:43:49.799|56=INIT|10=059|8=FIX.4.2|9=55|35=0|34=135|49=ACCEPT|52=20180925-13:44:19.802|56=INIT|10=043|8=FIX.4.2|9=55|35=0|34=136|49=ACCEPT|52=20180925-13:44:50.790|56=INIT|10=045|8=FIX.4.2|9=55|35=0|34=137|49=ACCEPT|52=20180925-13:45:20.793|56=INIT|10=047|8=FIX.4.2|9=55|35=0|34=138|49=ACCEPT|52=20180925-13:45:50.796|56=INIT|10=054|8=FIX.4.2|9=55|35=0|34=139|49=ACCEPT|52=20180925-13:46:20.799|56=INIT|10=056|8=FIX.4.2|9=55|35=0|34=140|49=ACCEPT|52=20180925-13:46:50.802|56=INIT|10=036|8=FIX.4.2|9=55|35=0|34=141|49=ACCEPT|52=20180925-13:47:21.790|56=INIT|10=042|8=FIX.4.2|9=55|35=0|34=142|49=ACCEPT|52=20180925-13:47:51.793|56=INIT|10=049|8=FIX.4.2|9=55|35=0|34=143|49=ACCEPT|52=20180925-13:48:21.795|56=INIT|10=050|8=FIX.4.2|9=55|35=0|34=144|49=ACCEPT|52=20180925-13:48:51.798|56=INIT|10=057|8=FIX.4.2|9=55|35=0|34=145|49=ACCEPT|52=20180925-13:49:21.801|56=INIT|10=041|8=FIX.4.2|9=55|35=0|34=146|49=ACCEPT|52=20180925-13:49:52.788|56=INIT|10=060|8=FIX.4.2|9=55|35=0|34=147|49=ACCEPT|52=20180925-13:50:22.791|56=INIT|10=044|8=FIX.4.2|9=55|35=0|34=148|49=ACCEPT|52=20180925-13:50:52.795|56=INIT|10=052|8=FIX.4.2|9=55|35=0|34=149|49=ACCEPT|52=20180925-13:51:22.798|56=INIT|10=054|8=FIX.4.2|9=55|35=0|34=150|49=ACCEPT|52=20180925-13:51:53.786|56=INIT|10=047|8=FIX.4.2|9=55|35=0|34=151|49=ACCEPT|52=20180925-13:52:23.789|56=INIT|10=049|8=FIX.4.2|9=55|35=0|34=152|49=ACCEPT|52=20180925-13:52:53.792|56=INIT|10=047|8=FIX.4.2|9=55|35=0|34=153|49=ACCEPT|52=20180925-13:53:23.794|56=INIT|10=048|8=FIX.4.2|9=55|35=0|34=154|49=ACCEPT|52=20180925-13:53:53.797|56=INIT|10=055|8=FIX.4.2|9=55|35=0|34=155|49=ACCEPT|52=20180925-13:54:24.785|56=INIT|10=052|8=FIX.4.2|9=55|35=0|34=156|49=ACCEPT|52=20180925-13:54:54.788|56=INIT|10=059|8=FIX.4.2|9=55|35=0|34=157|49=ACCEPT|52=20180925-13:55:24.791|56=INIT|10=052|8=FIX.4.2|9=55|35=0|34=158|49=ACCEPT|52=20180925-13:55:54.794|56=INIT|10=059|8=FIX.4.2|9=55|35=0|34=159|49=ACCEPT|52=20180925-13:56:24.797|56=INIT|10=061|8=FIX.4.2|9=55|35=0|34=160|49=ACCEPT|52=20180925-13:56:55.784|56=INIT|10=053|8=FIX.4.2|9=55|35=0|34=161|49=ACCEPT|52=20180925-13:57:25.787|56=INIT|10=055|8=FIX.4.2|9=55|35=0|34=162|49=ACCEPT|52=20180925-13:57:55.790|56=INIT|10=053|8=FIX.4.2|9=55|35=0|34=163|49=ACCEPT|52=20180925-13:58:25.794|56=INIT|10=056|8=FIX.4.2|9=55|35=0|34=164|49=ACCEPT|52=20180925-13:58:55.797|56=INIT|10=063|8=FIX.4.2|9=55|35=0|34=165|49=ACCEPT|52=20180925-13:59:26.784|56=INIT|10=059|8=FIX.4.2|9=55|35=0|34=166|49=ACCEPT|52=20180925-13:59:56.787|56=INIT|10=066|8=FIX.4.2|9=55|35=0|34=167|49=ACCEPT|52=20180925-14:00:26.790|56=INIT|10=045|8=FIX.4.2|9=55|35=0|34=168|49=ACCEPT|52=20180925-14:00:56.793|56=INIT|10=052|8=FIX.4.2|9=55|35=0|34=169|49=ACCEPT|52=20180925-14:01:26.796|56=INIT|10=054|8=FIX.4.2|9=55|35=0|34=170|49=ACCEPT|52=20180925-14:01:57.783|56=INIT|10=046|8=FIX.4.2|9=55|35=0|34=171|49=ACCEPT|52=20180925-14:02:27.787|56=INIT|10=049|8=FIX.4.2|9=55|35=0|34=172|49=ACCEPT|52=20180925-14:02:57.790|56=INIT|10=047|8=FIX.4.2|9=55|35=0|34=173|49=ACCEPT|52=20180925-14:03:27.793|56=INIT|10=049|8=FIX.4.2|9=55|35=0|34=174|49=ACCEPT|52=20180925-14:03:58.780|56=INIT|10=050|8=FIX.4.2|9=55|35=0|34=175|49=ACCEPT|52=20180925-14:04:28.783|56=INIT|10=052|8=FIX.4.2|9=55|35=0|34=176|49=ACCEPT|52=20180925-14:04:58.786|56=INIT|10=059|8=FIX.4.2|9=55|35=0|34=177|49=ACCEPT|52=20180925-14:05:28.789|56=INIT|10=061|8=FIX.4.2|9=55|35=0|34=178|49=ACCEPT|52=20180925-14:05:58.792|56=INIT|10=059|8=FIX.4.2|9=55|35=0|34=179|49=ACCEPT|52=20180925-14:06:29.780|56=INIT|10=056|8=FIX.4.2|9=55|35=0|34=180|49=ACCEPT|52=20180925-14:06:59.782|56=INIT|10=053|8=FIX.4.2|9=55|35=0|34=181|49=ACCEPT|52=20180925-14:07:29.786|56=INIT|10=056|8=FIX.4.2|9=55|35=0|34=182|49=ACCEPT|52=20180925-14:07:59.788|56=INIT|10=062|8=FIX.4.2|9=55|35=0|34=183|49=ACCEPT|52=20180925-14:08:29.791|56=INIT|10=055|8=FIX.4.2|9=55|35=0|34=184|49=ACCEPT|52=20180925-14:09:00.779|56=INIT|10=052|8=FIX.4.2|9=55|35=0|34=185|49=ACCEPT|52=20180925-14:09:30.782|56=INIT|10=050|8=FIX.4.2|9=55|35=0|34=186|49=ACCEPT|52=20180925-14:10:00.785|56=INIT|10=043|8=FIX.4.2|9=55|35=0|34=187|49=ACCEPT|52=20180925-14:10:30.788|56=INIT|10=050|8=FIX.4.2|9=55|35=0|34=188|49=ACCEPT|52=20180925-14:11:00.792|56=INIT|10=044|8=FIX.4.2|9=55|35=0|34=189|49=ACCEPT|52=20180925-14:11:31.779|56=INIT|10=054|8=FIX.4.2|9=55|35=0|34=190|49=ACCEPT|52=20180925-14:12:01.783|56=INIT|10=039|8=FIX.4.2|9=55|35=0|34=191|49=ACCEPT|52=20180925-14:12:31.786|56=INIT|10=046|8=FIX.4.2|9=53|35=0|34=1|49=ACCEPT|52=20180925-14:13:02.776|56=INIT|10=192|8=FIX.4.2|9=53|35=0|34=2|49=ACCEPT|52=20180925-14:13:32.776|56=INIT|10=196|8=FIX.4.2|9=53|35=0|34=3|49=ACCEPT|52=20180925-14:14:02.783|56=INIT|10=193|8=FIX.4.2|9=53|35=0|34=4|49=ACCEPT|52=20180925-14:14:32.786|56=INIT|10=200|8=FIX.4.2|9=53|35=0|34=5|49=ACCEPT|52=20180925-14:15:02.789|56=INIT|10=202|8=FIX.4.2|9=53|35=0|34=6|49=ACCEPT|52=20180925-14:15:33.777|56=INIT|10=204|8=FIX.4.2|9=53|35=0|34=7|49=ACCEPT|52=20180925-14:16:03.780|56=INIT|10=197|8=FIX.4.2|9=104|35=3|34=8|49=ACCEPT|52=20180925-14:16:32.548|56=INIT|45=10|372=0|373=10|58=SendingTime accuracy problem|10=198|8=FIX.4.2|9=53|35=5|34=9|49=ACCEPT|52=20180925-14:16:32.548|56=INIT|10=208|8=FIX.4.2|9=105|35=3|34=10|49=ACCEPT|52=20180925-14:16:32.548|56=INIT|45=11|372=0|373=10|58=SendingTime accuracy problem|10=241|8=FIX.4.2|9=54|35=5|34=11|49=ACCEPT|52=20180925-14:16:32.548|56=INIT|10=250|8=FIX.4.2|9=82|35=A|34=1|49=ACCEPT|52=20180925-14:22:54.551|56=INIT|98=0|108=30|95=8|96=3.0.0rc4|10=115|8=FIX.4.2|9=53|35=0|34=2|49=ACCEPT|52=20180925-14:23:24.772|56=INIT|10=194|8=FIX.4.2|9=53|35=0|34=3|49=ACCEPT|52=20180925-14:23:54.772|56=INIT|10=198|8=FIX.4.2|9=53|35=0|34=4|49=ACCEPT|52=20180925-14:24:24.784|56=INIT|10=200|8=FIX.4.2|9=53|35=0|34=5|49=ACCEPT|52=20180925-14:24:55.544|56=INIT|10=199|8=FIX.4.2|9=53|35=0|34=6|49=ACCEPT|52=20180925-14:25:25.772|56=INIT|10=201|8=FIX.4.2|9=53|35=0|34=7|49=ACCEPT|52=20180925-14:25:56.539|56=INIT|10=207|8=FIX.4.2|9=53|35=0|34=8|49=ACCEPT|52=20180925-14:26:26.773|56=INIT|10=206|8=FIX.4.2|9=53|35=0|34=9|49=ACCEPT|52=20180925-14:26:57.538|56=INIT|10=210|8=FIX.4.2|9=54|35=0|34=10|49=ACCEPT|52=20180925-14:27:27.538|56=INIT|10=249|8=FIX.4.2|9=54|35=0|34=11|49=ACCEPT|52=20180925-14:27:57.540|56=INIT|10=246|8=FIX.4.2|9=54|35=0|34=12|49=ACCEPT|52=20180925-14:28:27.771|56=INIT|10=251|8=FIX.4.2|9=54|35=0|34=13|49=ACCEPT|52=20180925-14:28:57.771|56=INIT|10=255|8=FIX.4.2|9=54|35=0|34=14|49=ACCEPT|52=20180925-14:29:27.771|56=INIT|10=254|8=FIX.4.2|9=54|35=0|34=15|49=ACCEPT|52=20180925-14:29:57.771|56=INIT|10=002|8=FIX.4.2|9=54|35=5|34=16|49=ACCEPT|52=20180925-14:30:02.537|56=INIT|10=246|8=FIX.4.2|9=83|35=A|34=17|49=ACCEPT|52=20180925-14:30:13.113|56=INIT|98=0|108=30|95=8|96=3.0.0rc4|10=159|8=FIX.4.2|9=54|35=0|34=18|49=ACCEPT|52=20180925-14:30:43.879|56=INIT|10=001|8=FIX.4.2|9=54|35=0|34=19|49=ACCEPT|52=20180925-14:31:13.880|56=INIT|10=248|8=FIX.4.2|9=54|35=0|34=20|49=ACCEPT|52=20180925-14:31:44.879|56=INIT|10=252|8=FIX.4.2|9=54|35=0|34=21|49=ACCEPT|52=20180925-14:32:14.879|56=INIT|10=251|8=FIX.4.2|9=54|35=0|34=22|49=ACCEPT|52=20180925-14:32:44.880|56=INIT|10=247|8=FIX.4.2|9=54|35=0|34=23|49=ACCEPT|52=20180925-14:33:14.891|56=INIT|10=248|8=FIX.4.2|9=54|35=0|34=24|49=ACCEPT|52=20180925-14:33:45.887|56=INIT|10=002|8=FIX.4.2|9=54|35=0|34=25|49=ACCEPT|52=20180925-14:34:15.890|56=INIT|10=251|8=FIX.4.2|9=54|35=0|34=26|49=ACCEPT|52=20180925-14:34:46.889|56=INIT|10=008|8=FIX.4.2|9=54|35=0|34=27|49=ACCEPT|52=20180925-14:35:16.889|56=INIT|10=007|8=FIX.4.2|9=54|35=0|34=28|49=ACCEPT|52=20180925-14:35:46.890|56=INIT|10=003|8=FIX.4.2|9=54|35=0|34=29|49=ACCEPT|52=20180925-14:36:17.886|56=INIT|10=008|8=FIX.4.2|9=54|35=0|34=30|49=ACCEPT|52=20180925-14:36:47.886|56=INIT|10=003|8=FIX.4.2|9=54|35=0|34=31|49=ACCEPT|52=20180925-14:37:18.885|56=INIT|10=002|8=FIX.4.2|9=54|35=0|34=32|49=ACCEPT|52=20180925-14:37:48.885|56=INIT|10=006|8=FIX.4.2|9=54|35=0|34=33|49=ACCEPT|52=20180925-14:38:19.877|56=INIT|10=007|8=FIX.4.2|9=54|35=0|34=34|49=ACCEPT|52=20180925-14:38:49.887|56=INIT|10=012|8=FIX.4.2|9=54|35=0|34=35|49=ACCEPT|52=20180925-14:39:20.881|56=INIT|10=253|8=FIX.4.2|9=54|35=0|34=36|49=ACCEPT|52=20180925-14:39:50.889|56=INIT|10=009|8=FIX.4.2|9=54|35=0|34=37|49=ACCEPT|52=20180925-14:40:21.884|56=INIT|10=251|8=FIX.4.2|9=54|35=0|34=38|49=ACCEPT|52=20180925-14:40:52.876|56=INIT|10=001|8=FIX.4.2|9=54|35=0|34=39|49=ACCEPT|52=20180925-14:41:23.875|56=INIT|10=000|8=FIX.4.2|9=54|35=0|34=40|49=ACCEPT|52=20180925-14:41:53.875|56=INIT|10=251|8=FIX.4.2|9=54|35=0|34=41|49=ACCEPT|52=20180925-14:42:23.875|56=INIT|10=250|8=FIX.4.2|9=54|35=0|34=42|49=ACCEPT|52=20180925-14:42:54.874|56=INIT|10=254|8=FIX.4.2|9=54|35=0|34=43|49=ACCEPT|52=20180925-14:43:24.874|56=INIT|10=253|8=FIX.4.2|9=54|35=0|34=44|49=ACCEPT|52=20180925-14:43:55.874|56=INIT|10=002|8=FIX.4.2|9=54|35=0|34=45|49=ACCEPT|52=20180925-14:44:26.873|56=INIT|10=001|8=FIX.4.2|9=54|35=0|34=46|49=ACCEPT|52=20180925-14:44:56.873|56=INIT|10=005|8=FIX.4.2|9=54|35=0|34=47|49=ACCEPT|52=20180925-14:45:26.873|56=INIT|10=004|8=FIX.4.2|9=54|35=0|34=48|49=ACCEPT|52=20180925-14:45:56.873|56=INIT|10=008|8=FIX.4.2|9=54|35=0|34=49|49=ACCEPT|52=20180925-14:46:27.873|56=INIT|10=008|8=FIX.4.2|9=54|35=0|34=50|49=ACCEPT|52=20180925-14:46:57.873|56=INIT|10=003|8=FIX.4.2|9=54|35=0|34=51|49=ACCEPT|52=20180925-14:47:28.872|56=INIT|10=002|8=FIX.4.2|9=54|35=0|34=52|49=ACCEPT|52=20180925-14:47:58.873|56=INIT|10=007|8=FIX.4.2|9=54|35=0|34=53|49=ACCEPT|52=20180925-14:48:29.872|56=INIT|10=006|8=FIX.4.2|9=54|35=0|34=54|49=ACCEPT|52=20180925-14:49:00.872|56=INIT|10=253|8=FIX.4.2|9=54|35=0|34=55|49=ACCEPT|52=20180925-14:49:30.872|56=INIT|10=001|8=FIX.4.2|9=54|35=0|34=56|49=ACCEPT|52=20180925-14:50:01.870|56=INIT|10=246|8=FIX.4.2|9=54|35=0|34=57|49=ACCEPT|52=20180925-14:50:31.871|56=INIT|10=251|8=FIX.4.2|9=54|35=0|34=58|49=ACCEPT|52=20180925-14:51:02.871|56=INIT|10=251|8=FIX.4.2|9=54|35=0|34=59|49=ACCEPT|52=20180925-14:51:33.870|56=INIT|10=255|8=FIX.4.2|9=54|35=0|34=60|49=ACCEPT|52=20180925-14:52:04.870|56=INIT|10=246|8=FIX.4.2|9=54|35=0|34=61|49=ACCEPT|52=20180925-14:52:34.870|56=INIT|10=250|8=FIX.4.2|9=54|35=0|34=62|49=ACCEPT|52=20180925-14:53:05.868|56=INIT|10=001|8=FIX.4.2|9=54|35=0|34=63|49=ACCEPT|52=20180925-14:53:35.870|56=INIT|10=254|8=FIX.4.2|9=54|35=0|34=64|49=ACCEPT|52=20180925-14:54:06.868|56=INIT|10=005|8=FIX.4.2|9=54|35=0|34=65|49=ACCEPT|52=20180925-14:54:37.868|56=INIT|10=010|8=FIX.4.2|9=54|35=0|34=66|49=ACCEPT|52=20180925-14:55:08.868|56=INIT|10=010|8=FIX.4.2|9=54|35=0|34=67|49=ACCEPT|52=20180925-14:55:38.868|56=INIT|10=014|8=FIX.4.2|9=54|35=0|34=68|49=ACCEPT|52=20180925-14:56:09.868|56=INIT|10=014|8=FIX.4.2|9=54|35=0|34=69|49=ACCEPT|52=20180925-14:56:40.867|56=INIT|10=009|8=FIX.4.2|9=54|35=0|34=70|49=ACCEPT|52=20180925-14:57:11.866|56=INIT|10=255|8=FIX.4.2|9=54|35=0|34=71|49=ACCEPT|52=20180925-14:57:41.866|56=INIT|10=003|8=FIX.4.2|9=54|35=0|34=72|49=ACCEPT|52=20180925-14:58:11.868|56=INIT|10=004|8=FIX.4.2|9=54|35=0|34=73|49=ACCEPT|52=20180925-14:58:41.868|56=INIT|10=008|8=FIX.4.2|9=54|35=0|34=74|49=ACCEPT|52=20180925-14:59:12.866|56=INIT|10=006|8=FIX.4.2|9=54|35=0|34=75|49=ACCEPT|52=20180925-14:59:43.867|56=INIT|10=012|8=FIX.4.2|9=54|35=0|34=76|49=ACCEPT|52=20180925-15:00:14.866|56=INIT|10=253|8=FIX.4.2|9=54|35=0|34=77|49=ACCEPT|52=20180925-15:00:44.866|56=INIT|10=001|8=FIX.4.2|9=54|35=0|34=78|49=ACCEPT|52=20180925-15:01:14.866|56=INIT|10=000|8=FIX.4.2|9=54|35=0|34=79|49=ACCEPT|52=20180925-15:01:45.866|56=INIT|10=005|8=FIX.4.2|9=54|35=0|34=80|49=ACCEPT|52=20180925-15:02:16.865|56=INIT|10=251|8=FIX.4.2|9=54|35=0|34=81|49=ACCEPT|52=20180925-15:02:46.865|56=INIT|10=255|8=FIX.4.2|9=54|35=0|34=82|49=ACCEPT|52=20180925-15:03:16.865|56=INIT|10=254|8=FIX.4.2|9=54|35=0|34=83|49=ACCEPT|52=20180925-15:03:47.864|56=INIT|10=002|8=FIX.4.2|9=54|35=0|34=84|49=ACCEPT|52=20180925-15:04:17.865|56=INIT|10=002|8=FIX.4.2|9=54|35=5|34=85|49=ACCEPT|52=20180925-15:04:35.865|56=INIT|10=008|8=FIX.4.2|9=83|35=A|34=86|49=ACCEPT|52=20180925-15:07:46.784|56=INIT|98=0|108=30|95=8|96=3.0.0rc4|10=190|8=FIX.4.2|9=64|35=2|34=87|49=ACCEPT|52=20180925-15:07:46.791|56=INIT|7=87|16=0|10=196|8=FIX.4.2|9=1883|35=8|49=ACCEPT|56=INIT|34=88|52=20180925-15:08:12.742|37=5822107|17=One-USD_AGN-1662852-0-0-kpt1r|20=0|9690=153|9691=SBSIUS33|9692=B|9694=75.010|9693=1|9695=100000|9697=Done|7761=1|9691=ABO1MPID|9692=C|9694=97.000|9693=1|9695=250000|9697=Covered|7761=2|9691=WPACBIC|9692=B|9694=101.100|9693=1|9695=250000|9697=Missed|7761=3|9691=LAZA|9692=C|9694=104.400|9693=1|9695=250000|9696=Dealer response !! QuoteUpdate|9697=Missed|7761=4|9691=AASIUS33|9692=B|9694=106.900|9693=1|9695=250000|9696=Dealer response !! QuoteUpdate|9697=Missed|7761=5|9691=GMSG|9692=C|9694=108.700|9693=1|9695=250000|9696=Dealer response !! QuoteUpdate|9697=Missed|7761=6|9691=GUCPUSM1|9692=B|9694=114.500|9693=1|9695=250000|9696=Dealer response !! QuoteUpdate|9697=Missed|7761=7|9691=RBAIUS41XXX|9692=B|9694=115.500|9693=1|9695=250000|9696=Dealer response !! QuoteUpdate|9697=Missed|7761=8|9691=NITE|9692=B|9694=120.100|9693=1|9695=250000|9696=Dealer response !! QuoteUpdate|9697=Missed|7761=9|9691=ANZBUS33|9692=B|9696=Please Contact your ANZ Salesperson 1.|9697=Passed|7761=10|9691=CRLYUS33|9692=B|9697=Passed|7761=11|9691=CTBAAU2SFXD|9692=B|9696=None in TList|9697=Passed|7761=12|9691=RDOSUS31|9692=B|9697=Passed|7761=13|9691=GOLDUS33|9692=B|9697=Timed Out|7761=14|9691=FISA|9692=C|9697=Timed Out |7761=152|9691=ZKBKCHZZ80A|9692=B|9697=Timed Out|7761=153|109=STP Test Client, Inc.|76=SBSIUS33|11=JBZ1808061810142557|19=5822107-kn5lj|150=1|39=1|64=20180817|54=1|32=100000|31=75.010|151=770000|14=100000|6=75.010|9805=1076.723|9806=1153.787|5645=1077.612|9804=1077.612|5961=Price|75=20180815|60=20180815-12:06:36.284|381=75010.00|38=32|6655=250000|55=FIXED|22=4|48=USP79171AE79|200=202409|205=1|223=7.45|106=PROVINCE OF CORDOBA|6620=20170301|6659=20170301|107=CORDO  7.450  9/1/24 (URegS)|6608=13.657|6637=20240901|6611=3435.28|6612=78445.28|6609=MISC|6606=atrianine@marketxess.com|15=USD|120=USD|9947=citiustrade|10=228|8=FIX.4.2|9=63|35=0|34=89|49=ACCEPT|52=20180925-15:08:32.754|56=INIT|112=TEST|10=023|8=FIX.4.2|9=1883|35=8|49=ACCEPT|56=INIT|34=90|52=20180925-15:08:46.734|37=5822107|17=One-USD_AGN-1662852-0-0-kpt1r|20=0|9690=16|9691=SBSIUS33|9692=B|9694=75.010|9693=1|9695=100000|9697=Done|7761=1|9691=ABO1MPID|9692=C|9694=97.000|9693=1|9695=250000|9697=Covered|7761=2|9691=WPACBIC|9692=B|9694=101.100|9693=1|9695=250000|9697=Missed|7761=3|9691=LAZA|9692=C|9694=104.400|9693=1|9695=250000|9696=Dealer response !! QuoteUpdate|9697=Missed|7761=4|9691=AASIUS33|9692=B|9694=106.900|9693=1|9695=250000|9696=Dealer response !! QuoteUpdate|9697=Missed|7761=5|9691=GMSG|9692=C|9694=108.700|9693=1|9695=250000|9696=Dealer response !! QuoteUpdate|9697=Missed|7761=6|9691=GUCPUSM1|9692=B|9694=114.500|9693=1|9695=250000|9696=Dealer response !! QuoteUpdate|9697=Missed|7761=7|9691=RBAIUS41XXX|9692=B|9694=115.500|9693=1|9695=250000|9696=Dealer response !! QuoteUpdate|9697=Missed|7761=8|9691=NITE|9692=B|9694=120.100|9693=1|9695=250000|9696=Dealer response !! QuoteUpdate|9697=Missed|7761=9|9691=ANZBUS33|9692=B|9696=Please Contact your ANZ Salesperson 1.|9697=Passed|7761=10|9691=CRLYUS33|9692=B|9697=Passed|7761=11|9691=CTBAAU2SFXD|9692=B|9696=None in TList|9697=Passed|7761=12|9691=RDOSUS31|9692=B|9697=Passed|7761=13|9691=GOLDUS33|9692=B|9697=Timed Out|7761=14|9691=FISA|9692=C|9697=Timed Out |7761=152|9691=ZKBKCHZZ80A|9692=B|9697=Timed Out|7761=153|109=STP Test Client, Inc.|76=SBSIUS33|11=JBZ1808061810142557|19=5822107-kn5lj|150=1|39=1|64=20180817|54=1|32=100000|31=75.010|151=770000|14=100000|6=75.010|9805=1076.723|9806=1153.787|5645=1077.612|9804=1077.612|5961=Price|75=20180815|60=20180815-12:06:36.284|381=75010.00|38=32|6655=250000|55=FIXED|22=4|48=USP79171AE79|200=202409|205=1|223=7.45|106=PROVINCE OF CORDOBA|6620=20170301|6659=20170301|107=CORDO  7.450  9/1/24 (URegS)|6608=13.657|6637=20240901|6611=3435.28|6612=78445.28|6609=MISC|6606=atrianine@marketxess.com|15=USD|120=USD|9947=citiustrade|10=229|8=FIX.4.2|9=64|35=2|34=91|49=ACCEPT|52=20180925-15:09:03.753|56=INIT|7=91|16=0|10=179|8=FIX.4.2|9=54|35=0|34=92|49=ACCEPT|52=20180925-15:09:34.130|56=INIT|10=246|8=FIX.4.2|9=54|35=0|34=93|49=ACCEPT|52=20180925-15:10:04.129|56=INIT|10=244|8=FIX.4.2|9=54|35=0|34=94|49=ACCEPT|52=20180925-15:10:34.129|56=INIT|10=248|8=FIX.4.2|9=54|35=0|34=95|49=ACCEPT|52=20180925-15:11:05.129|56=INIT|10=248|8=FIX.4.2|9=54|35=0|34=96|49=ACCEPT|52=20180925-15:11:36.129|56=INIT|10=253|8=FIX.4.2|9=54|35=0|34=97|49=ACCEPT|52=20180925-15:12:07.129|56=INIT|10=253|8=FIX.4.2|9=54|35=0|34=98|49=ACCEPT|52=20180925-15:12:38.127|56=INIT|10=000|8=FIX.4.2|9=54|35=0|34=99|49=ACCEPT|52=20180925-15:13:08.128|56=INIT|10=000|8=FIX.4.2|9=55|35=0|34=100|49=ACCEPT|52=20180925-15:13:39.128|56=INIT|10=036|8=FIX.4.2|9=55|35=0|34=101|49=ACCEPT|52=20180925-15:14:10.127|56=INIT|10=026|8=FIX.4.2|9=55|35=0|34=102|49=ACCEPT|52=20180925-15:14:40.127|56=INIT|10=030|8=FIX.4.2|9=55|35=0|34=103|49=ACCEPT|52=20180925-15:15:10.127|56=INIT|10=029|8=FIX.4.2|9=55|35=0|34=104|49=ACCEPT|52=20180925-15:15:41.126|56=INIT|10=033|8=FIX.4.2|9=55|35=5|34=105|49=ACCEPT|52=20180925-15:15:46.753|56=INIT|10=050|8=FIX.4.2|9=84|35=A|34=106|49=ACCEPT|52=20180925-15:16:36.889|56=INIT|98=0|108=30|95=8|96=3.0.0rc4|10=237|8=FIX.4.2|9=55|35=0|34=107|49=ACCEPT|52=20180925-15:17:07.636|56=INIT|10=046|8=FIX.4.2|9=55|35=0|34=108|49=ACCEPT|52=20180925-15:17:38.635|56=INIT|10=050|8=FIX.4.2|9=55|35=5|34=109|49=ACCEPT|52=20180925-15:17:44.864|56=INIT|10=057|8=FIX.4.2|9=84|35=A|34=110|49=ACCEPT|52=20180925-15:17:50.334|56=INIT|98=0|108=30|95=8|96=3.0.0rc4|10=214|8=FIX.4.2|9=55|35=0|34=111|49=ACCEPT|52=20180925-15:18:20.635|56=INIT|10=036|8=FIX.4.2|9=55|35=0|34=112|49=ACCEPT|52=20180925-15:18:50.636|56=INIT|10=041|8=FIX.4.2|9=55|35=0|34=113|49=ACCEPT|52=20180925-15:19:21.635|56=INIT|10=040|8=FIX.4.2|9=55|35=0|34=114|49=ACCEPT|52=20180925-15:19:52.636|56=INIT|10=046|8=FIX.4.2|9=55|35=5|34=115|49=ACCEPT|52=20180925-15:20:16.331|56=INIT|10=036|8=FIX.4.2|9=84|35=A|34=116|49=ACCEPT|52=20180925-15:20:25.698|56=INIT|98=0|108=30|95=8|96=3.0.0rc4|10=229|8=FIX.4.2|9=55|35=0|34=117|49=ACCEPT|52=20180925-15:20:55.945|56=INIT|10=047|8=FIX.4.2|9=73|35=5|34=118|49=ACCEPT|52=20180925-15:21:13.945|56=INIT|58=user requested|10=140|8=FIX.4.2|9=84|35=A|34=119|49=ACCEPT|52=20180925-15:21:30.003|56=INIT|98=0|108=30|95=8|96=3.0.0rc4|10=209|8=FIX.4.2|9=55|35=0|34=120|49=ACCEPT|52=20180925-15:22:00.124|56=INIT|10=022|8=FIX.4.2|9=55|35=0|34=121|49=ACCEPT|52=20180925-15:22:31.123|56=INIT|10=026|8=FIX.4.2|9=55|35=0|34=122|49=ACCEPT|52=20180925-15:23:01.123|56=INIT|10=025|8=FIX.4.2|9=55|35=0|34=123|49=ACCEPT|52=20180925-15:23:32.122|56=INIT|10=029|8=FIX.4.2|9=55|35=0|34=124|49=ACCEPT|52=20180925-15:24:02.123|56=INIT|10=029|8=FIX.4.2|9=55|35=0|34=125|49=ACCEPT|52=20180925-15:24:33.122|56=INIT|10=033|8=FIX.4.2|9=55|35=0|34=126|49=ACCEPT|52=20180925-15:25:03.122|56=INIT|10=032|8=FIX.4.2|9=55|35=0|34=127|49=ACCEPT|52=20180925-15:25:34.122|56=INIT|10=037|8=FIX.4.2|9=55|35=0|34=128|49=ACCEPT|52=20180925-15:26:04.122|56=INIT|10=036|8=FIX.4.2|9=55|35=0|34=129|49=ACCEPT|52=20180925-15:26:34.122|56=INIT|10=040|8=FIX.4.2|9=55|35=0|34=130|49=ACCEPT|52=20180925-15:27:05.121|56=INIT|10=030|8=FIX.4.2|9=55|35=0|34=131|49=ACCEPT|52=20180925-15:27:35.121|56=INIT|10=034|8=FIX.4.2|9=55|35=0|34=132|49=ACCEPT|52=20180925-15:28:06.121|56=INIT|10=034|8=FIX.4.2|9=55|35=0|34=133|49=ACCEPT|52=20180925-15:28:36.121|56=INIT|10=038|8=FIX.4.2|9=55|35=0|34=134|49=ACCEPT|52=20180925-15:29:06.121|56=INIT|10=037|8=FIX.4.2|9=55|35=0|34=135|49=ACCEPT|52=20180925-15:29:37.120|56=INIT|10=041|8=FIX.4.2|9=55|35=0|34=136|49=ACCEPT|52=20180925-15:30:08.121|56=INIT|10=033|8=FIX.4.2|9=55|35=0|34=137|49=ACCEPT|52=20180925-15:30:39.120|56=INIT|10=037|8=FIX.4.2|9=55|35=0|34=138|49=ACCEPT|52=20180925-15:31:09.120|56=INIT|10=036|8=FIX.4.2|9=55|35=0|34=139|49=ACCEPT|52=20180925-15:31:40.120|56=INIT|10=032|8=FIX.4.2|9=55|35=0|34=140|49=ACCEPT|52=20180925-15:32:11.119|56=INIT|10=031|8=FIX.4.2|9=55|35=0|34=141|49=ACCEPT|52=20180925-15:32:41.120|56=INIT|10=027|8=FIX.4.2|9=55|35=0|34=142|49=ACCEPT|52=20180925-15:33:12.119|56=INIT|10=035|8=FIX.4.2|9=55|35=0|34=143|49=ACCEPT|52=20180925-15:33:42.119|56=INIT|10=039|8=FIX.4.2|9=55|35=0|34=144|49=ACCEPT|52=20180925-15:34:12.119|56=INIT|10=038|8=FIX.4.2|9=55|35=0|34=145|49=ACCEPT|52=20180925-15:34:42.119|56=INIT|10=042|8=FIX.4.2|9=55|35=0|34=146|49=ACCEPT|52=20180925-15:35:12.119|56=INIT|10=041|8=FIX.4.2|9=55|35=0|34=147|49=ACCEPT|52=20180925-15:35:43.118|56=INIT|10=045|8=FIX.4.2|9=55|35=0|34=148|49=ACCEPT|52=20180925-15:36:13.118|56=INIT|10=044|8=FIX.4.2|9=55|35=0|34=149|49=ACCEPT|52=20180925-15:36:44.118|56=INIT|10=049|8=FIX.4.2|9=55|35=0|34=150|49=ACCEPT|52=20180925-15:37:15.118|56=INIT|10=040|8=FIX.4.2|9=55|35=0|34=151|49=ACCEPT|52=20180925-15:37:46.117|56=INIT|10=044|8=FIX.4.2|9=55|35=0|34=152|49=ACCEPT|52=20180925-15:38:16.117|56=INIT|10=043|8=FIX.4.2|9=55|35=0|34=153|49=ACCEPT|52=20180925-15:38:46.117|56=INIT|10=047|8=FIX.4.2|9=55|35=0|34=154|49=ACCEPT|52=20180925-15:39:16.117|56=INIT|10=046|8=FIX.4.2|9=55|35=0|34=155|49=ACCEPT|52=20180925-15:39:46.118|56=INIT|10=051|8=FIX.4.2|9=55|35=0|34=156|49=ACCEPT|52=20180925-15:40:17.118|56=INIT|10=042|8=FIX.4.2|9=55|35=0|34=157|49=ACCEPT|52=20180925-15:40:48.117|56=INIT|10=046|8=FIX.4.2|9=55|35=0|34=158|49=ACCEPT|52=20180925-15:41:19.117|56=INIT|10=046|8=FIX.4.2|9=55|35=0|34=159|49=ACCEPT|52=20180925-15:41:50.116|56=INIT|10=041|8=FIX.4.2|9=55|35=0|34=160|49=ACCEPT|52=20180925-15:42:20.116|56=INIT|10=031|8=FIX.4.2|9=55|35=0|34=161|49=ACCEPT|52=20180925-15:42:51.116|56=INIT|10=036|8=FIX.4.2|9=55|35=0|34=162|49=ACCEPT|52=20180925-15:43:22.115|56=INIT|10=035|8=FIX.4.2|9=55|35=0|34=163|49=ACCEPT|52=20180925-15:43:53.115|56=INIT|10=040|8=FIX.4.2|9=55|35=5|34=164|49=ACCEPT|52=20180925-15:44:10.993|56=INIT|10=054|8=FIX.4.2|9=84|35=A|34=165|49=ACCEPT|52=20180925-15:44:23.563|56=INIT|98=0|108=30|95=8|96=3.0.0rc4|10=228|8=FIX.4.2|9=55|35=0|34=166|49=ACCEPT|52=20180925-15:44:53.649|56=INIT|10=056|8=FIX.4.2|9=55|35=0|34=167|49=ACCEPT|52=20180925-15:45:23.650|56=INIT|10=047|8=FIX.4.2|9=55|35=0|34=168|49=ACCEPT|52=20180925-15:45:54.649|56=INIT|10=060|8=FIX.4.2|9=55|35=0|34=169|49=ACCEPT|52=20180925-15:46:25.649|56=INIT|10=060|8=FIX.4.2|9=55|35=0|34=170|49=ACCEPT|52=20180925-15:46:56.648|56=INIT|10=055|8=FIX.4.2|9=55|35=0|34=171|49=ACCEPT|52=20180925-15:47:26.649|56=INIT|10=055|8=FIX.4.2|9=55|35=0|34=172|49=ACCEPT|52=20180925-15:47:57.649|56=INIT|10=060|8=FIX.4.2|9=55|35=0|34=173|49=ACCEPT|52=20180925-15:48:28.649|56=INIT|10=060|8=FIX.4.2|9=55|35=0|34=174|49=ACCEPT|52=20180925-15:48:59.647|56=INIT|10=063|8=FIX.4.2|9=55|35=0|34=175|49=ACCEPT|52=20180925-15:49:30.648|56=INIT|10=055|8=FIX.4.2|9=55|35=0|34=176|49=ACCEPT|52=20180925-15:50:00.648|56=INIT|10=045|8=FIX.4.2|9=55|35=0|34=177|49=ACCEPT|52=20180925-15:50:31.647|56=INIT|10=049|8=FIX.4.2|9=55|35=0|34=178|49=ACCEPT|52=20180925-15:51:01.647|56=INIT|10=048|8=FIX.4.2|9=55|35=0|34=179|49=ACCEPT|52=20180925-15:51:32.646|56=INIT|10=052|8=FIX.4.2|9=55|35=0|34=180|49=ACCEPT|52=20180925-15:52:03.646|56=INIT|10=043|8=FIX.4.2|9=55|35=0|34=181|49=ACCEPT|52=20180925-15:52:34.645|56=INIT|10=047|8=FIX.4.2|9=55|35=0|34=182|49=ACCEPT|52=20180925-15:53:05.644|56=INIT|10=046|8=FIX.4.2|9=55|35=0|34=183|49=ACCEPT|52=20180925-15:53:35.644|56=INIT|10=050|8=FIX.4.2|9=1884|35=8|49=ACCEPT|56=INIT|34=184|52=20180925-15:54:03.220|37=5822107|17=One-USD_AGN-1662852-0-0-kpt1r|20=0|9690=16|9691=SBSIUS33|9692=B|9694=75.010|9693=1|9695=100000|9697=Done|7761=1|9691=ABO1MPID|9692=C|9694=97.000|9693=1|9695=250000|9697=Covered|7761=2|9691=WPACBIC|9692=B|9694=101.100|9693=1|9695=250000|9697=Missed|7761=3|9691=LAZA|9692=C|9694=104.400|9693=1|9695=250000|9696=Dealer response !! QuoteUpdate|9697=Missed|7761=4|9691=AASIUS33|9692=B|9694=106.900|9693=1|9695=250000|9696=Dealer response !! QuoteUpdate|9697=Missed|7761=5|9691=GMSG|9692=C|9694=108.700|9693=1|9695=250000|9696=Dealer response !! QuoteUpdate|9697=Missed|7761=6|9691=GUCPUSM1|9692=B|9694=114.500|9693=1|9695=250000|9696=Dealer response !! QuoteUpdate|9697=Missed|7761=7|9691=RBAIUS41XXX|9692=B|9694=115.500|9693=1|9695=250000|9696=Dealer response !! QuoteUpdate|9697=Missed|7761=8|9691=NITE|9692=B|9694=120.100|9693=1|9695=250000|9696=Dealer response !! QuoteUpdate|9697=Missed|7761=9|9691=ANZBUS33|9692=B|9696=Please Contact your ANZ Salesperson 1.|9697=Passed|7761=10|9691=CRLYUS33|9692=B|9697=Passed|7761=11|9691=CTBAAU2SFXD|9692=B|9696=None in TList|9697=Passed|7761=12|9691=RDOSUS31|9692=B|9697=Passed|7761=13|9691=GOLDUS33|9692=B|9697=Timed Out|7761=14|9691=FISA|9692=C|9697=Timed Out |7761=152|9691=ZKBKCHZZ80A|9692=B|9697=Timed Out|7761=153|109=STP Test Client, Inc.|76=SBSIUS33|11=JBZ1808061810142557|19=5822107-kn5lj|150=1|39=1|64=20180817|54=1|32=100000|31=75.010|151=770000|14=100000|6=75.010|9805=1076.723|9806=1153.787|5645=1077.612|9804=1077.612|5961=Price|75=20180815|60=20180815-12:06:36.284|381=75010.00|38=32|6655=250000|55=FIXED|22=4|48=USP79171AE79|200=202409|205=1|223=7.45|106=PROVINCE OF CORDOBA|6620=20170301|6659=20170301|107=CORDO  7.450  9/1/24 (URegS)|6608=13.657|6637=20240901|6611=3435.28|6612=78445.28|6609=MISC|6606=atrianine@marketxess.com|15=USD|120=USD|9947=citiustrade|10=010|8=FIX.4.2|9=55|35=0|34=185|49=ACCEPT|52=20180925-15:54:33.644|56=INIT|10=051|8=FIX.4.2|9=55|35=0|34=186|49=ACCEPT|52=20180925-15:55:04.643|56=INIT|10=050|8=FIX.4.2|9=55|35=0|34=187|49=ACCEPT|52=20180925-15:55:34.643|56=INIT|10=054|8=FIX.4.2|9=55|35=0|34=188|49=ACCEPT|52=20180925-15:56:04.643|56=INIT|10=053|8=FIX.4.2|9=55|35=0|34=189|49=ACCEPT|52=20180925-15:56:34.644|56=INIT|10=058|8=FIX.4.2|9=55|35=0|34=190|49=ACCEPT|52=20180925-15:57:05.643|56=INIT|10=048|8=FIX.4.2|9=55|35=0|34=191|49=ACCEPT|52=20180925-15:57:35.643|56=INIT|10=052|8=FIX.4.2|9=55|35=0|34=192|49=ACCEPT|52=20180925-15:58:05.643|56=INIT|10=051|8=FIX.4.2|9=55|35=0|34=193|49=ACCEPT|52=20180925-15:58:35.643|56=INIT|10=055|8=FIX.4.2|9=55|35=0|34=194|49=ACCEPT|52=20180925-15:59:06.642|56=INIT|10=054|8=FIX.4.2|9=55|35=0|34=195|49=ACCEPT|52=20180925-15:59:36.642|56=INIT|10=058|8=FIX.4.2|9=55|35=0|34=196|49=ACCEPT|52=20180925-16:00:06.642|56=INIT|10=043|8=FIX.4.2|9=55|35=0|34=197|49=ACCEPT|52=20180925-16:00:37.642|56=INIT|10=048|8=FIX.4.2|9=55|35=0|34=198|49=ACCEPT|52=20180925-16:01:08.641|56=INIT|10=047|8=FIX.4.2|9=55|35=0|34=199|49=ACCEPT|52=20180925-16:01:38.642|56=INIT|10=052|8=FIX.4.2|9=55|35=0|34=200|49=ACCEPT|52=20180925-16:02:08.642|56=INIT|10=033|8=FIX.4.2|9=55|35=0|34=201|49=ACCEPT|52=20180925-16:02:39.641|56=INIT|10=037|8=FIX.4.2|9=55|35=0|34=202|49=ACCEPT|52=20180925-16:03:09.641|56=INIT|10=036|8=FIX.4.2|9=55|35=0|34=203|49=ACCEPT|52=20180925-16:03:40.641|56=INIT|10=032|8=FIX.4.2|9=55|35=0|34=204|49=ACCEPT|52=20180925-16:04:11.640|56=INIT|10=031|8=FIX.4.2|9=55|35=0|34=205|49=ACCEPT|52=20180925-16:04:41.640|56=INIT|10=035|8=FIX.4.2|9=55|35=0|34=206|49=ACCEPT|52=20180925-16:05:12.640|56=INIT|10=035|8=FIX.4.2|9=55|35=0|34=207|49=ACCEPT|52=20180925-16:05:42.640|56=INIT|10=039|8=FIX.4.2|9=55|35=0|34=208|49=ACCEPT|52=20180925-16:06:12.640|56=INIT|10=038|8=FIX.4.2|9=55|35=0|34=209|49=ACCEPT|52=20180925-16:06:42.640|56=INIT|10=042|8=FIX.4.2|9=55|35=0|34=210|49=ACCEPT|52=20180925-16:07:13.639|56=INIT|10=041|8=FIX.4.2|9=55|35=0|34=211|49=ACCEPT|52=20180925-16:07:43.639|56=INIT|10=045|8=FIX.4.2|9=55|35=0|34=212|49=ACCEPT|52=20180925-16:08:13.639|56=INIT|10=044|8=FIX.4.2|9=55|35=0|34=213|49=ACCEPT|52=20180925-16:08:44.639|56=INIT|10=049|8=FIX.4.2|9=55|35=0|34=214|49=ACCEPT|52=20180925-16:09:15.638|56=INIT|10=048|8=FIX.4.2|9=55|35=0|34=215|49=ACCEPT|52=20180925-16:09:45.638|56=INIT|10=052|8=FIX.4.2|9=55|35=0|34=216|49=ACCEPT|52=20180925-16:10:15.639|56=INIT|10=043|8=FIX.4.2|9=55|35=0|34=217|49=ACCEPT|52=20180925-16:10:46.637|56=INIT|10=046|8=FIX.4.2|9=55|35=0|34=218|49=ACCEPT|52=20180925-16:11:16.638|56=INIT|10=046|8=FIX.4.2|9=55|35=0|34=219|49=ACCEPT|52=20180925-16:11:46.638|56=INIT|10=050|8=FIX.4.2|9=55|35=0|34=220|49=ACCEPT|52=20180925-16:12:17.637|56=INIT|10=040|8=FIX.4.2|9=55|35=0|34=221|49=ACCEPT|52=20180925-16:12:47.637|56=INIT|10=044|8=FIX.4.2|9=55|35=0|34=222|49=ACCEPT|52=20180925-16:13:17.637|56=INIT|10=043|8=FIX.4.2|9=55|35=0|34=223|49=ACCEPT|52=20180925-16:13:47.637|56=INIT|10=047|8=FIX.4.2|9=55|35=0|34=224|49=ACCEPT|52=20180925-16:14:18.638|56=INIT|10=048|8=FIX.4.2|9=55|35=0|34=225|49=ACCEPT|52=20180925-16:14:49.636|56=INIT|10=051|8=FIX.4.2|9=55|35=0|34=226|49=ACCEPT|52=20180925-16:15:19.637|56=INIT|10=051|8=FIX.4.2|9=55|35=0|34=227|49=ACCEPT|52=20180925-16:15:49.638|56=INIT|10=056|8=FIX.4.2|9=55|35=0|34=228|49=ACCEPT|52=20180925-16:16:20.636|56=INIT|10=045|8=FIX.4.2|9=55|35=0|34=229|49=ACCEPT|52=20180925-16:16:51.635|56=INIT|10=049|8=FIX.4.2|9=55|35=0|34=230|49=ACCEPT|52=20180925-16:17:21.635|56=INIT|10=039|8=FIX.4.2|9=55|35=0|34=231|49=ACCEPT|52=20180925-16:17:51.635|56=INIT|10=043|8=FIX.4.2|9=55|35=0|34=232|49=ACCEPT|52=20180925-16:18:21.635|56=INIT|10=042|8=FIX.4.2|9=55|35=0|34=233|49=ACCEPT|52=20180925-16:18:51.635|56=INIT|10=046|8=FIX.4.2|9=55|35=0|34=234|49=ACCEPT|52=20180925-16:19:21.635|56=INIT|10=045|8=FIX.4.2|9=55|35=0|34=235|49=ACCEPT|52=20180925-16:19:51.635|56=INIT|10=049|8=FIX.4.2|9=55|35=0|34=236|49=ACCEPT|52=20180925-16:20:22.634|56=INIT|10=039|8=FIX.4.2|9=55|35=0|34=237|49=ACCEPT|52=20180925-16:20:52.635|56=INIT|10=044|8=FIX.4.2|9=55|35=0|34=238|49=ACCEPT|52=20180925-16:21:23.634|56=INIT|10=043|8=FIX.4.2|9=55|35=0|34=239|49=ACCEPT|52=20180925-16:21:53.634|56=INIT|10=047|8=FIX.4.2|9=55|35=0|34=240|49=ACCEPT|52=20180925-16:22:23.634|56=INIT|10=037|8=FIX.4.2|9=55|35=0|34=241|49=ACCEPT|52=20180925-16:22:53.634|56=INIT|10=041|8=FIX.4.2|9=55|35=0|34=242|49=ACCEPT|52=20180925-16:23:23.634|56=INIT|10=040|8=FIX.4.2|9=55|35=0|34=243|49=ACCEPT|52=20180925-16:23:54.633|56=INIT|10=044|8=FIX.4.2|9=55|35=0|34=244|49=ACCEPT|52=20180925-16:24:24.633|56=INIT|10=043|8=FIX.4.2|9=55|35=0|34=245|49=ACCEPT|52=20180925-16:24:54.633|56=INIT|10=047|8=FIX.4.2|9=55|35=0|34=246|49=ACCEPT|52=20180925-16:25:24.633|56=INIT|10=046|8=FIX.4.2|9=55|35=0|34=247|49=ACCEPT|52=20180925-16:25:55.632|56=INIT|10=050|8=FIX.4.2|9=55|35=0|34=248|49=ACCEPT|52=20180925-16:26:25.632|56=INIT|10=049|8=FIX.4.2|9=55|35=0|34=249|49=ACCEPT|52=20180925-16:26:55.632|56=INIT|10=053|8=FIX.4.2|9=55|35=0|34=250|49=ACCEPT|52=20180925-16:27:25.632|56=INIT|10=043|8=FIX.4.2|9=55|35=0|34=251|49=ACCEPT|52=20180925-16:27:55.632|56=INIT|10=047|8=FIX.4.2|9=55|35=0|34=252|49=ACCEPT|52=20180925-16:28:26.631|56=INIT|10=046|8=FIX.4.2|9=55|35=0|34=253|49=ACCEPT|52=20180925-16:28:56.631|56=INIT|10=050|8=FIX.4.2|9=55|35=0|34=254|49=ACCEPT|52=20180925-16:29:26.631|56=INIT|10=049|8=FIX.4.2|9=55|35=0|34=255|49=ACCEPT|52=20180925-16:29:57.631|56=INIT|10=054|8=FIX.4.2|9=55|35=0|34=256|49=ACCEPT|52=20180925-16:30:27.631|56=INIT|10=044|8=FIX.4.2|9=55|35=0|34=257|49=ACCEPT|52=20180925-16:30:58.631|56=INIT|10=049|8=FIX.4.2|9=55|35=0|34=258|49=ACCEPT|52=20180925-16:31:29.630|56=INIT|10=048|8=FIX.4.2|9=55|35=0|34=259|49=ACCEPT|52=20180925-16:31:59.630|56=INIT|10=052|8=FIX.4.2|9=55|35=0|34=260|49=ACCEPT|52=20180925-16:32:29.631|56=INIT|10=043|8=FIX.4.2|9=55|35=0|34=261|49=ACCEPT|52=20180925-16:33:00.630|56=INIT|10=033|8=FIX.4.2|9=55|35=0|34=262|49=ACCEPT|52=20180925-16:33:31.630|56=INIT|10=038|8=FIX.4.2|9=55|35=0|34=263|49=ACCEPT|52=20180925-16:34:02.631|56=INIT|10=039|8=FIX.4.2|9=55|35=0|34=264|49=ACCEPT|52=20180925-16:34:33.629|56=INIT|10=051|8=FIX.4.2|9=55|35=0|34=265|49=ACCEPT|52=20180925-16:35:03.629|56=INIT|10=050|8=FIX.4.2|9=55|35=0|34=266|49=ACCEPT|52=20180925-16:35:33.629|56=INIT|10=054|8=FIX.4.2|9=55|35=0|34=267|49=ACCEPT|52=20180925-16:36:04.629|56=INIT|10=054|8=FIX.4.2|9=55|35=0|34=268|49=ACCEPT|52=20180925-16:36:35.628|56=INIT|10=058|8=FIX.4.2|9=55|35=0|34=269|49=ACCEPT|52=20180925-16:37:05.628|56=INIT|10=057|8=FIX.4.2|9=55|35=0|34=270|49=ACCEPT|52=20180925-16:37:35.628|56=INIT|10=052|8=FIX.4.2|9=55|35=0|34=271|49=ACCEPT|52=20180925-16:38:06.628|56=INIT|10=052|8=FIX.4.2|9=55|35=0|34=272|49=ACCEPT|52=20180925-16:38:37.628|56=INIT|10=057|8=FIX.4.2|9=55|35=0|34=273|49=ACCEPT|52=20180925-16:39:07.629|56=INIT|10=057|8=FIX.4.2|9=55|35=0|34=274|49=ACCEPT|52=20180925-16:39:38.627|56=INIT|10=060|8=FIX.4.2|9=55|35=0|34=275|49=ACCEPT|52=20180925-16:40:08.627|56=INIT|10=050|8=FIX.4.2|9=55|35=0|34=276|49=ACCEPT|52=20180925-16:40:38.627|56=INIT|10=054|8=FIX.4.2|9=55|35=0|34=277|49=ACCEPT|52=20180925-16:41:09.627|56=INIT|10=054|8=FIX.4.2|9=55|35=0|34=278|49=ACCEPT|52=20180925-16:41:39.628|56=INIT|10=059|8=FIX.4.2|9=55|35=0|34=279|49=ACCEPT|52=20180925-16:42:10.626|56=INIT|10=048|8=FIX.4.2|9=55|35=0|34=280|49=ACCEPT|52=20180925-16:42:40.626|56=INIT|10=043|8=FIX.4.2|9=55|35=0|34=281|49=ACCEPT|52=20180925-16:43:10.626|56=INIT|10=042|8=FIX.4.2|9=55|35=0|34=282|49=ACCEPT|52=20180925-16:43:40.626|56=INIT|10=046|8=FIX.4.2|9=55|35=0|34=283|49=ACCEPT|52=20180925-16:44:10.626|56=INIT|10=045|8=FIX.4.2|9=55|35=0|34=284|49=ACCEPT|52=20180925-16:44:41.626|56=INIT|10=050|8=FIX.4.2|9=55|35=0|34=285|49=ACCEPT|52=20180925-16:45:12.626|56=INIT|10=050|8=FIX.4.2|9=55|35=0|34=286|49=ACCEPT|52=20180925-16:45:43.625|56=INIT|10=054|8=FIX.4.2|9=55|35=0|34=287|49=ACCEPT|52=20180925-16:46:14.625|56=INIT|10=054|8=FIX.4.2|9=55|35=0|34=288|49=ACCEPT|52=20180925-16:46:45.624|56=INIT|10=058|8=FIX.4.2|9=55|35=0|34=289|49=ACCEPT|52=20180925-16:47:15.624|56=INIT|10=057|8=FIX.4.2|9=55|35=0|34=290|49=ACCEPT|52=20180925-16:47:45.624|56=INIT|10=052|8=FIX.4.2|9=55|35=0|34=291|49=ACCEPT|52=20180925-16:48:15.624|56=INIT|10=051|8=FIX.4.2|9=55|35=0|34=292|49=ACCEPT|52=20180925-16:48:46.625|56=INIT|10=057|8=FIX.4.2|9=55|35=0|34=293|49=ACCEPT|52=20180925-16:49:17.623|56=INIT|10=055|8=FIX.4.2|9=55|35=0|34=294|49=ACCEPT|52=20180925-16:49:48.623|56=INIT|10=060|8=FIX.4.2|9=55|35=0|34=295|49=ACCEPT|52=20180925-16:50:19.623|56=INIT|10=051|8=FIX.4.2|9=55|35=0|34=296|49=ACCEPT|52=20180925-16:50:50.622|56=INIT|10=046|8=FIX.4.2|9=55|35=0|34=297|49=ACCEPT|52=20180925-16:51:20.622|56=INIT|10=045|8=FIX.4.2|9=55|35=0|34=298|49=ACCEPT|52=20180925-16:51:51.622|56=INIT|10=050|8=FIX.4.2|9=55|35=0|34=299|49=ACCEPT|52=20180925-16:52:22.621|56=INIT|10=049|8=FIX.4.2|9=55|35=0|34=300|49=ACCEPT|52=20180925-16:52:52.621|56=INIT|10=035|8=FIX.4.2|9=55|35=0|34=301|49=ACCEPT|52=20180925-16:53:23.622|56=INIT|10=036|8=FIX.4.2|9=55|35=0|34=302|49=ACCEPT|52=20180925-16:53:54.621|56=INIT|10=040|8=FIX.4.2|9=55|35=0|34=303|49=ACCEPT|52=20180925-16:54:25.620|56=INIT|10=039|8=FIX.4.2|9=55|35=0|34=304|49=ACCEPT|52=20180925-16:54:55.620|56=INIT|10=043|8=FIX.4.2|9=55|35=0|34=305|49=ACCEPT|52=20180925-16:55:25.620|56=INIT|10=042|8=FIX.4.2|9=55|35=0|34=306|49=ACCEPT|52=20180925-16:55:56.619|56=INIT|10=055|8=FIX.4.2|9=55|35=0|34=307|49=ACCEPT|52=20180925-16:56:26.619|56=INIT|10=054|8=FIX.4.2|9=55|35=0|34=308|49=ACCEPT|52=20180925-16:56:56.619|56=INIT|10=058|8=FIX.4.2|9=55|35=0|34=309|49=ACCEPT|52=20180925-16:57:26.619|56=INIT|10=057|8=FIX.4.2|9=55|35=0|34=310|49=ACCEPT|52=20180925-16:57:57.618|56=INIT|10=052|8=FIX.4.2|9=55|35=0|34=311|49=ACCEPT|52=20180925-16:58:27.619|56=INIT|10=052|8=FIX.4.2|9=55|35=0|34=312|49=ACCEPT|52=20180925-16:58:58.619|56=INIT|10=057|8=FIX.4.2|9=55|35=0|34=313|49=ACCEPT|52=20180925-16:59:29.618|56=INIT|10=056|8=FIX.4.2|9=55|35=0|34=314|49=ACCEPT|52=20180925-16:59:59.618|56=INIT|10=060|8=FIX.4.2|9=55|35=0|34=315|49=ACCEPT|52=20180925-17:00:29.618|56=INIT|10=045|8=FIX.4.2|9=55|35=0|34=316|49=ACCEPT|52=20180925-17:00:59.619|56=INIT|10=050|8=FIX.4.2|9=55|35=0|34=317|49=ACCEPT|52=20180925-17:01:30.618|56=INIT|10=040|8=FIX.4.2|9=55|35=0|34=318|49=ACCEPT|52=20180925-17:02:01.617|56=INIT|10=039|8=FIX.4.2|9=55|35=0|34=319|49=ACCEPT|52=20180925-17:02:31.619|56=INIT|10=045|8=FIX.4.2|9=55|35=0|34=320|49=ACCEPT|52=20180925-17:03:02.617|56=INIT|10=034|8=FIX.4.2|9=55|35=0|34=321|49=ACCEPT|52=20180925-17:03:32.618|56=INIT|10=039|8=FIX.4.2|9=64|35=1|34=322|49=ACCEPT|52=20180925-17:03:35.616|56=INIT|112=TEST|10=060|8=FIX.4.2|9=84|35=A|34=323|49=ACCEPT|52=20180926-08:01:13.193|56=INIT|98=0|108=30|95=8|96=3.0.0rc4|10=218|8=FIX.4.2|9=55|35=0|34=324|49=ACCEPT|52=20180926-08:01:43.268|56=INIT|10=044|8=FIX.4.2|9=55|35=0|34=325|49=ACCEPT|52=20180926-08:02:13.268|56=INIT|10=043|8=FIX.4.2|9=55|35=0|34=326|49=ACCEPT|52=20180926-08:02:44.267|56=INIT|10=047|8=FIX.4.2|9=55|35=0|34=327|49=ACCEPT|52=20180926-08:03:14.267|56=INIT|10=046|8=FIX.4.2|9=55|35=0|34=328|49=ACCEPT|52=20180926-08:03:44.267|56=INIT|10=050|8=FIX.4.2|9=55|35=0|34=329|49=ACCEPT|52=20180926-08:04:14.267|56=INIT|10=049|8=FIX.4.2|9=55|35=0|34=330|49=ACCEPT|52=20180926-08:04:44.267|56=INIT|10=044|8=FIX.4.2|9=55|35=0|34=331|49=ACCEPT|52=20180926-08:05:15.267|56=INIT|10=044|8=FIX.4.2|9=55|35=0|34=332|49=ACCEPT|52=20180926-08:05:46.150|56=INIT|10=040|8=FIX.4.2|9=55|35=0|34=333|49=ACCEPT|52=20180926-08:06:16.267|56=INIT|10=048|8=FIX.4.2|9=55|35=0|34=334|49=ACCEPT|52=20180926-08:06:47.148|56=INIT|10=051|8=FIX.4.2|9=55|35=0|34=335|49=ACCEPT|52=20180926-08:07:17.265|56=INIT|10=050|8=FIX.4.2|9=55|35=0|34=336|49=ACCEPT|52=20180926-08:07:47.265|56=INIT|10=054|8=FIX.4.2|9=55|35=0|34=337|49=ACCEPT|52=20180926-08:08:17.265|56=INIT|10=053|8=FIX.4.2|9=55|35=0|34=338|49=ACCEPT|52=20180926-08:08:47.265|56=INIT|10=057|8=FIX.4.2|9=55|35=0|34=339|49=ACCEPT|52=20180926-08:09:18.265|56=INIT|10=057|8=FIX.4.2|9=55|35=0|34=340|49=ACCEPT|52=20180926-08:09:49.265|56=INIT|10=053|8=FIX.4.2|9=55|35=0|34=341|49=ACCEPT|52=20180926-08:10:20.264|56=INIT|10=034|8=FIX.4.2|9=55|35=0|34=342|49=ACCEPT|52=20180926-08:10:50.264|56=INIT|10=038|8=FIX.4.2|9=55|35=0|34=343|49=ACCEPT|52=20180926-08:11:20.264|56=INIT|10=037|8=FIX.4.2|9=55|35=0|34=344|49=ACCEPT|52=20180926-08:11:50.264|56=INIT|10=041|8=FIX.4.2|9=55|35=0|34=345|49=ACCEPT|52=20180926-08:12:21.143|56=INIT|10=037|8=FIX.4.2|9=55|35=0|34=346|49=ACCEPT|52=20180926-08:12:51.263|56=INIT|10=044|8=FIX.4.2|9=55|35=0|34=347|49=ACCEPT|52=20180926-08:13:21.263|56=INIT|10=043|8=FIX.4.2|9=55|35=0|34=348|49=ACCEPT|52=20180926-08:13:51.263|56=INIT|10=047|8=FIX.4.2|9=55|35=0|34=349|49=ACCEPT|52=20180926-08:14:22.142|56=INIT|10=043|8=FIX.4.2|9=55|35=0|34=350|49=ACCEPT|52=20180926-08:14:52.142|56=INIT|10=038|8=FIX.4.2|9=55|35=0|34=351|49=ACCEPT|52=20180926-08:15:22.262|56=INIT|10=040|8=FIX.4.2|9=55|35=0|34=352|49=ACCEPT|52=20180926-08:15:52.262|56=INIT|10=044|8=FIX.4.2|9=55|35=0|34=353|49=ACCEPT|52=20180926-08:16:22.262|56=INIT|10=043|8=FIX.4.2|9=55|35=0|34=354|49=ACCEPT|52=20180926-08:16:52.262|56=INIT|10=047|8=FIX.4.2|9=55|35=0|34=355|49=ACCEPT|52=20180926-08:17:23.141|56=INIT|10=043|8=FIX.4.2|9=55|35=0|34=356|49=ACCEPT|52=20180926-08:17:53.261|56=INIT|10=050|8=FIX.4.2|9=55|35=0|34=357|49=ACCEPT|52=20180926-08:18:23.261|56=INIT|10=049|8=FIX.4.2|9=55|35=0|34=358|49=ACCEPT|52=20180926-08:18:53.262|56=INIT|10=054|8=FIX.4.2|9=55|35=0|34=359|49=ACCEPT|52=20180926-08:19:24.141|56=INIT|10=050|8=FIX.4.2|9=55|35=0|34=360|49=ACCEPT|52=20180926-08:19:54.143|56=INIT|10=047|8=FIX.4.2|9=55|35=0|34=361|49=ACCEPT|52=20180926-08:20:24.260|56=INIT|10=037|8=FIX.4.2|9=55|35=0|34=362|49=ACCEPT|52=20180926-08:20:54.260|56=INIT|10=041|8=FIX.4.2|9=55|35=0|34=363|49=ACCEPT|52=20180926-08:21:24.260|56=INIT|10=040|8=FIX.4.2|9=55|35=0|34=364|49=ACCEPT|52=20180926-08:21:54.260|56=INIT|10=044|8=FIX.4.2|9=55|35=0|34=365|49=ACCEPT|52=20180926-08:22:24.260|56=INIT|10=043|8=FIX.4.2|9=55|35=0|34=366|49=ACCEPT|52=20180926-08:22:54.260|56=INIT|10=047|8=FIX.4.2|9=55|35=0|34=367|49=ACCEPT|52=20180926-08:23:24.260|56=INIT|10=046|8=FIX.4.2|9=55|35=0|34=368|49=ACCEPT|52=20180926-08:23:55.259|56=INIT|10=059|8=FIX.4.2|9=55|35=0|34=369|49=ACCEPT|52=20180926-08:24:25.259|56=INIT|10=058|8=FIX.4.2|9=55|35=0|34=370|49=ACCEPT|52=20180926-08:24:55.259|56=INIT|10=053|8=FIX.4.2|9=55|35=0|34=371|49=ACCEPT|52=20180926-08:25:26.259|56=INIT|10=053|8=FIX.4.2|9=55|35=0|34=372|49=ACCEPT|52=20180926-08:25:56.259|56=INIT|10=057|8=FIX.4.2|9=55|35=0|34=373|49=ACCEPT|52=20180926-08:26:26.260|56=INIT|10=048|8=FIX.4.2|9=55|35=0|34=374|49=ACCEPT|52=20180926-08:26:57.258|56=INIT|10=060|8=FIX.4.2|9=55|35=0|34=375|49=ACCEPT|52=20180926-08:27:27.259|56=INIT|10=060|8=FIX.4.2|9=55|35=0|34=376|49=ACCEPT|52=20180926-08:27:58.258|56=INIT|10=064|8=FIX.4.2|9=55|35=0|34=377|49=ACCEPT|52=20180926-08:28:28.259|56=INIT|10=064|8=FIX.4.2|9=55|35=0|34=378|49=ACCEPT|52=20180926-08:28:59.259|56=INIT|10=069|8=FIX.4.2|9=55|35=0|34=379|49=ACCEPT|52=20180926-08:29:30.259|56=INIT|10=060|8=FIX.4.2|9=55|35=0|34=380|49=ACCEPT|52=20180926-08:30:01.260|56=INIT|10=034|8=FIX.4.2|9=55|35=0|34=381|49=ACCEPT|52=20180926-08:30:32.260|56=INIT|10=039|8=FIX.4.2|9=55|35=0|34=382|49=ACCEPT|52=20180926-08:31:03.259|56=INIT|10=047|8=FIX.4.2|9=55|35=0|34=383|49=ACCEPT|52=20180926-08:31:33.259|56=INIT|10=051|8=FIX.4.2|9=55|35=0|34=384|49=ACCEPT|52=20180926-08:32:04.258|56=INIT|10=050|8=FIX.4.2|9=55|35=0|34=385|49=ACCEPT|52=20180926-08:32:34.258|56=INIT|10=054|8=FIX.4.2|9=55|35=0|34=386|49=ACCEPT|52=20180926-08:33:04.258|56=INIT|10=053|8=FIX.4.2|9=55|35=0|34=387|49=ACCEPT|52=20180926-08:33:34.258|56=INIT|10=057|8=FIX.4.2|9=55|35=0|34=388|49=ACCEPT|52=20180926-08:34:05.258|56=INIT|10=057|8=FIX.4.2|9=55|35=0|34=389|49=ACCEPT|52=20180926-08:34:36.257|56=INIT|10=061|8=FIX.4.2|9=55|35=0|34=390|49=ACCEPT|52=20180926-08:35:06.258|56=INIT|10=052|8=FIX.4.2|9=55|35=0|34=391|49=ACCEPT|52=20180926-08:35:37.256|56=INIT|10=055|8=FIX.4.2|9=55|35=0|34=392|49=ACCEPT|52=20180926-08:36:07.257|56=INIT|10=055|8=FIX.4.2|9=55|35=0|34=393|49=ACCEPT|52=20180926-08:36:37.257|56=INIT|10=059|8=FIX.4.2|9=55|35=0|34=394|49=ACCEPT|52=20180926-08:37:07.257|56=INIT|10=058|8=FIX.4.2|9=55|35=0|34=395|49=ACCEPT|52=20180926-08:37:38.256|56=INIT|10=062|8=FIX.4.2|9=55|35=0|34=396|49=ACCEPT|52=20180926-08:38:08.256|56=INIT|10=061|8=FIX.4.2|9=55|35=0|34=397|49=ACCEPT|52=20180926-08:38:38.256|56=INIT|10=065|8=FIX.4.2|9=55|35=0|34=398|49=ACCEPT|52=20180926-08:39:08.256|56=INIT|10=064|8=FIX.4.2|9=55|35=0|34=399|49=ACCEPT|52=20180926-08:39:38.256|56=INIT|10=068|8=FIX.4.2|9=55|35=0|34=400|49=ACCEPT|52=20180926-08:40:08.256|56=INIT|10=040|8=FIX.4.2|9=55|35=0|34=401|49=ACCEPT|52=20180926-08:40:39.255|56=INIT|10=044|8=FIX.4.2|9=55|35=0|34=402|49=ACCEPT|52=20180926-08:41:09.255|56=INIT|10=043|8=FIX.4.2|9=55|35=0|34=403|49=ACCEPT|52=20180926-08:41:40.255|56=INIT|10=039|8=FIX.4.2|9=55|35=0|34=404|49=ACCEPT|52=20180926-08:42:10.255|56=INIT|10=038|8=FIX.4.2|9=55|35=0|34=405|49=ACCEPT|52=20180926-08:42:40.255|56=INIT|10=042|8=FIX.4.2|9=55|35=0|34=406|49=ACCEPT|52=20180926-08:43:11.254|56=INIT|10=041|8=FIX.4.2|9=55|35=0|34=407|49=ACCEPT|52=20180926-08:43:41.254|56=INIT|10=045|8=FIX.4.2|9=55|35=0|34=408|49=ACCEPT|52=20180926-08:44:11.255|56=INIT|10=045|8=FIX.4.2|9=55|35=0|34=409|49=ACCEPT|52=20180926-08:44:42.253|56=INIT|10=048|8=FIX.4.2|9=55|35=0|34=410|49=ACCEPT|52=20180926-08:45:12.254|56=INIT|10=039|8=FIX.4.2|9=55|35=0|34=411|49=ACCEPT|52=20180926-08:45:43.253|56=INIT|10=043|8=FIX.4.2|9=55|35=0|34=412|49=ACCEPT|52=20180926-08:46:13.254|56=INIT|10=043|8=FIX.4.2|9=55|35=0|34=413|49=ACCEPT|52=20180926-08:46:43.254|56=INIT|10=047|8=FIX.4.2|9=55|35=0|34=414|49=ACCEPT|52=20180926-08:47:14.252|56=INIT|10=045|8=FIX.4.2|9=55|35=0|34=415|49=ACCEPT|52=20180926-08:47:44.253|56=INIT|10=050|8=FIX.4.2|9=55|35=0|34=416|49=ACCEPT|52=20180926-08:48:15.253|56=INIT|10=050|8=FIX.4.2|9=55|35=0|34=417|49=ACCEPT|52=20180926-08:48:46.252|56=INIT|10=054|8=FIX.4.2|9=55|35=0|34=418|49=ACCEPT|52=20180926-08:49:17.133|56=INIT|10=052|8=FIX.4.2|9=55|35=0|34=419|49=ACCEPT|52=20180926-08:49:47.253|56=INIT|10=059|8=FIX.4.2|9=55|35=0|34=420|49=ACCEPT|52=20180926-08:50:18.133|56=INIT|10=038|8=FIX.4.2|9=55|35=0|34=421|49=ACCEPT|52=20180926-08:50:48.251|56=INIT|10=043|8=FIX.4.2|9=55|35=0|34=422|49=ACCEPT|52=20180926-08:51:18.252|56=INIT|10=043|8=FIX.4.2|9=55|35=0|34=423|49=ACCEPT|52=20180926-08:51:49.131|56=INIT|10=044|8=FIX.4.2|9=55|35=0|34=424|49=ACCEPT|52=20180926-08:52:19.132|56=INIT|10=044|8=FIX.4.2|9=55|35=0|34=425|49=ACCEPT|52=20180926-08:52:49.251|56=INIT|10=050|8=FIX.4.2|9=55|35=0|34=426|49=ACCEPT|52=20180926-08:53:20.131|56=INIT|10=038|8=FIX.4.2|9=55|35=0|34=427|49=ACCEPT|52=20180926-08:53:50.132|56=INIT|10=043|8=FIX.4.2|9=55|35=0|34=428|49=ACCEPT|52=20180926-08:54:20.251|56=INIT|10=044|8=FIX.4.2|9=55|35=0|34=429|49=ACCEPT|52=20180926-08:54:50.251|56=INIT|10=048|8=FIX.4.2|9=55|35=0|34=430|49=ACCEPT|52=20180926-08:55:20.263|56=INIT|10=041|8=FIX.4.2|9=55|35=0|34=431|49=ACCEPT|52=20180926-08:55:51.128|56=INIT|10=046|8=FIX.4.2|9=55|35=0|34=432|49=ACCEPT|52=20180926-08:56:21.133|56=INIT|10=041|8=FIX.4.2|9=55|35=0|34=433|49=ACCEPT|52=20180926-08:56:51.249|56=INIT|10=053|8=FIX.4.2|9=55|35=0|34=434|49=ACCEPT|52=20180926-08:57:21.250|56=INIT|10=044|8=FIX.4.2|9=55|35=0|34=435|49=ACCEPT|52=20180926-08:57:51.255|56=INIT|10=053|8=FIX.4.2|9=55|35=0|34=436|49=ACCEPT|52=20180926-08:58:22.128|56=INIT|10=052|8=FIX.4.2|9=55|35=0|34=437|49=ACCEPT|52=20180926-08:58:52.129|56=INIT|10=057|8=FIX.4.2|9=55|35=0|34=438|49=ACCEPT|52=20180926-08:59:22.249|56=INIT|10=059|8=FIX.4.2|9=55|35=0|34=439|49=ACCEPT|52=20180926-08:59:52.255|56=INIT|10=060|8=FIX.4.2|9=55|35=0|34=440|49=ACCEPT|52=20180926-09:00:22.257|56=INIT|10=038|8=FIX.4.2|9=55|35=0|34=441|49=ACCEPT|52=20180926-09:00:53.138|56=INIT|10=041|8=FIX.4.2|9=55|35=0|34=442|49=ACCEPT|52=20180926-09:01:23.248|56=INIT|10=042|8=FIX.4.2|9=55|35=0|34=443|49=ACCEPT|52=20180926-09:01:53.257|56=INIT|10=046|8=FIX.4.2|9=55|35=0|34=444|49=ACCEPT|52=20180926-09:02:24.127|56=INIT|10=042|8=FIX.4.2|9=55|35=0|34=445|49=ACCEPT|52=20180926-09:02:54.129|56=INIT|10=048|8=FIX.4.2|9=55|35=0|34=446|49=ACCEPT|52=20180926-09:03:24.137|56=INIT|10=046|8=FIX.4.2|9=73|35=5|34=447|49=ACCEPT|52=20180926-09:03:36.250|56=INIT|58=user requested|10=143|8=FIX.4.2|9=84|35=A|34=448|49=ACCEPT|52=20180926-09:07:23.682|56=INIT|98=0|108=30|95=8|96=3.0.0rc4|10=237|8=FIX.4.2|9=55|35=0|34=449|49=ACCEPT|52=20180926-09:07:54.036|56=INIT|10=054|8=FIX.4.2|9=55|35=0|34=450|49=ACCEPT|52=20180926-09:08:24.654|56=INIT|10=050|8=FIX.4.2|9=55|35=0|34=451|49=ACCEPT|52=20180926-09:08:55.028|56=INIT|10=050|8=FIX.4.2|9=55|35=0|34=452|49=ACCEPT|52=20180926-09:09:25.034|56=INIT|10=046|8=FIX.4.2|9=55|35=0|34=453|49=ACCEPT|52=20180926-09:09:55.648|56=INIT|10=061|8=FIX.4.2|9=55|35=0|34=454|49=ACCEPT|52=20180926-09:10:25.657|56=INIT|10=051|8=FIX.4.2|9=55|35=0|34=455|49=ACCEPT|52=20180926-09:10:56.039|56=INIT|10=050|8=FIX.4.2|9=55|35=0|34=456|49=ACCEPT|52=20180926-09:11:26.645|56=INIT|10=052|8=FIX.4.2|9=55|35=0|34=457|49=ACCEPT|52=20180926-09:11:56.656|56=INIT|10=058|8=FIX.4.2|9=55|35=0|34=458|49=ACCEPT|52=20180926-09:12:26.658|56=INIT|10=059|8=FIX.4.2|9=55|35=0|34=459|49=ACCEPT|52=20180926-09:12:56.658|56=INIT|10=063|8=FIX.4.2|9=55|35=0|34=460|49=ACCEPT|52=20180926-09:13:27.033|56=INIT|10=041|8=FIX.4.2|9=55|35=0|34=461|49=ACCEPT|52=20180926-09:13:57.656|56=INIT|10=056|8=FIX.4.2|9=55|35=0|34=462|49=ACCEPT|52=20180926-09:14:28.028|56=INIT|10=049|8=FIX.4.2|9=55|35=0|34=463|49=ACCEPT|52=20180926-09:14:58.039|56=INIT|10=055|8=FIX.4.2|9=55|35=0|34=464|49=ACCEPT|52=20180926-09:15:28.643|56=INIT|10=055|8=FIX.4.2|9=55|35=0|34=465|49=ACCEPT|52=20180926-09:15:58.651|56=INIT|10=058|8=FIX.4.2|9=55|35=0|34=466|49=ACCEPT|52=20180926-09:16:29.033|56=INIT|10=052|8=FIX.4.2|9=55|35=0|34=467|49=ACCEPT|52=20180926-09:16:59.039|56=INIT|10=062|8=FIX.4.2|9=55|35=0|34=468|49=ACCEPT|52=20180926-09:17:29.656|56=INIT|10=066|8=FIX.4.2|9=55|35=0|34=469|49=ACCEPT|52=20180926-09:17:59.656|56=INIT|10=070|8=FIX.4.2|9=55|35=0|34=470|49=ACCEPT|52=20180926-09:18:30.033|56=INIT|10=041|8=FIX.4.2|9=55|35=0|34=471|49=ACCEPT|52=20180926-09:19:00.034|56=INIT|10=041|8=FIX.4.2|9=55|35=0|34=472|49=ACCEPT|52=20180926-09:19:30.035|56=INIT|10=046|8=FIX.4.2|9=55|35=0|34=473|49=ACCEPT|52=20180926-09:20:00.642|56=INIT|10=040|8=FIX.4.2|9=55|35=0|34=474|49=ACCEPT|52=20180926-09:20:30.650|56=INIT|10=043|8=FIX.4.2|9=55|35=0|34=475|49=ACCEPT|52=20180926-09:21:01.031|56=INIT|10=036|8=FIX.4.2|9=55|35=0|34=476|49=ACCEPT|52=20180926-09:21:31.654|56=INIT|10=051|8=FIX.4.2|9=55|35=0|34=477|49=ACCEPT|52=20180926-09:22:02.026|56=INIT|10=044|8=FIX.4.2|9=55|35=0|34=478|49=ACCEPT|52=20180926-09:22:32.026|56=INIT|10=048|8=FIX.4.2|9=55|35=0|34=479|49=ACCEPT|52=20180926-09:23:02.028|56=INIT|10=049|8=FIX.4.2|9=55|35=0|34=480|49=ACCEPT|52=20180926-09:23:32.647|56=INIT|10=051|8=FIX.4.2|9=55|35=0|34=481|49=ACCEPT|52=20180926-09:24:03.031|56=INIT|10=038|8=FIX.4.2|9=55|35=0|34=482|49=ACCEPT|52=20180926-09:24:33.639|56=INIT|10=056|8=FIX.4.2|9=55|35=0|34=483|49=ACCEPT|52=20180926-09:25:03.646|56=INIT|10=053|8=FIX.4.2|9=55|35=0|34=484|49=ACCEPT|52=20180926-09:25:34.036|56=INIT|10=051|8=FIX.4.2|9=55|35=0|34=485|49=ACCEPT|52=20180926-09:26:04.652|56=INIT|10=054|8=FIX.4.2|9=55|35=0|34=486|49=ACCEPT|52=20180926-09:26:34.652|56=INIT|10=058|8=FIX.4.2|9=55|35=0|34=487|49=ACCEPT|52=20180926-09:27:05.025|56=INIT|10=052|8=FIX.4.2|9=55|35=0|34=488|49=ACCEPT|52=20180926-09:27:35.646|56=INIT|10=065|8=FIX.4.2|9=55|35=0|34=489|49=ACCEPT|52=20180926-09:28:06.035|56=INIT|10=057|8=FIX.4.2|9=55|35=0|34=490|49=ACCEPT|52=20180926-09:28:36.035|56=INIT|10=052|8=FIX.4.2|9=55|35=0|34=491|49=ACCEPT|52=20180926-09:29:06.647|56=INIT|10=060|8=FIX.4.2|9=55|35=0|34=492|49=ACCEPT|52=20180926-09:29:36.650|56=INIT|10=058|8=FIX.4.2|9=55|35=0|34=493|49=ACCEPT|52=20180926-09:30:06.651|56=INIT|10=049|8=FIX.4.2|9=55|35=0|34=494|49=ACCEPT|52=20180926-09:30:37.026|56=INIT|10=050|8=FIX.4.2|9=55|35=0|34=495|49=ACCEPT|52=20180926-09:31:07.026|56=INIT|10=049|8=FIX.4.2|9=55|35=0|34=496|49=ACCEPT|52=20180926-09:31:37.650|56=INIT|10=056|8=FIX.4.2|9=55|35=0|34=497|49=ACCEPT|52=20180926-09:32:08.024|56=INIT|10=051|8=FIX.4.2|9=55|35=0|34=498|49=ACCEPT|52=20180926-09:32:38.645|56=INIT|10=064|8=FIX.4.2|9=55|35=0|34=499|49=ACCEPT|52=20180926-09:33:08.647|56=INIT|10=065|8=FIX.4.2|9=55|35=0|34=500|49=ACCEPT|52=20180926-09:33:38.650|56=INIT|10=045|8=FIX.4.2|9=55|35=0|34=501|49=ACCEPT|52=20180926-09:34:09.027|56=INIT|10=043|8=FIX.4.2|9=55|35=0|34=502|49=ACCEPT|52=20180926-09:34:39.647|56=INIT|10=055|8=FIX.4.2|9=55|35=0|34=503|49=ACCEPT|52=20180926-09:35:09.648|56=INIT|10=055|8=FIX.4.2|9=55|35=0|34=504|49=ACCEPT|52=20180926-09:35:39.648|56=INIT|10=059|8=FIX.4.2|9=55|35=0|34=505|49=ACCEPT|52=20180926-09:36:09.648|56=INIT|10=058|8=FIX.4.2|9=55|35=0|34=506|49=ACCEPT|52=20180926-09:36:39.649|56=INIT|10=063|8=FIX.4.2|9=55|35=0|34=507|49=ACCEPT|52=20180926-09:37:10.030|56=INIT|10=038|8=FIX.4.2|9=55|35=0|34=508|49=ACCEPT|52=20180926-09:37:40.644|56=INIT|10=053|8=FIX.4.2|9=55|35=0|34=509|49=ACCEPT|52=20180926-09:38:11.032|56=INIT|10=044|8=FIX.4.2|9=55|35=0|34=510|49=ACCEPT|52=20180926-09:38:41.636|56=INIT|10=049|8=FIX.4.2|9=55|35=0|34=511|49=ACCEPT|52=20180926-09:39:11.642|56=INIT|10=045|8=FIX.4.2|9=55|35=0|34=512|49=ACCEPT|52=20180926-09:39:41.643|56=INIT|10=050|8=FIX.4.2|9=55|35=0|34=513|49=ACCEPT|52=20180926-09:40:11.644|56=INIT|10=041|8=FIX.4.2|9=55|35=0|34=514|49=ACCEPT|52=20180926-09:40:42.017|56=INIT|10=040|8=FIX.4.2|9=55|35=0|34=515|49=ACCEPT|52=20180926-09:41:12.026|56=INIT|10=039|8=FIX.4.2|9=55|35=0|34=516|49=ACCEPT|52=20180926-09:41:42.027|56=INIT|10=044|8=FIX.4.2|9=55|35=0|34=517|49=ACCEPT|52=20180926-09:42:12.646|56=INIT|10=050|8=FIX.4.2|9=55|35=0|34=518|49=ACCEPT|52=20180926-09:42:43.025|56=INIT|10=046|8=FIX.4.2|9=55|35=0|34=519|49=ACCEPT|52=20180926-09:43:13.643|56=INIT|10=051|8=FIX.4.2|9=55|35=0|34=520|49=ACCEPT|52=20180926-09:43:44.026|56=INIT|10=042|8=FIX.4.2|9=55|35=0|34=521|49=ACCEPT|52=20180926-09:44:14.030|56=INIT|10=036|8=FIX.4.2|9=55|35=0|34=522|49=ACCEPT|52=20180926-09:44:44.639|56=INIT|10=055|8=FIX.4.2|9=55|35=0|34=523|49=ACCEPT|52=20180926-09:45:15.027|56=INIT|10=046|8=FIX.4.2|9=55|35=0|34=524|49=ACCEPT|52=20180926-09:45:45.645|56=INIT|10=056|8=FIX.4.2|9=55|35=0|34=525|49=ACCEPT|52=20180926-09:46:16.023|56=INIT|10=046|8=FIX.4.2|9=55|35=0|34=526|49=ACCEPT|52=20180926-09:46:46.645|56=INIT|10=060|8=FIX.4.2|9=55|35=0|34=527|49=ACCEPT|52=20180926-09:47:17.018|56=INIT|10=054|8=FIX.4.2|9=55|35=0|34=528|49=ACCEPT|52=20180926-09:47:47.019|56=INIT|10=059|8=FIX.4.2|9=55|35=0|34=529|49=ACCEPT|52=20180926-09:48:17.642|56=INIT|10=060|8=FIX.4.2|9=55|35=0|34=530|49=ACCEPT|52=20180926-09:48:48.029|56=INIT|10=055|8=FIX.4.2|9=55|35=0|34=531|49=ACCEPT|52=20180926-09:49:18.631|56=INIT|10=053|8=FIX.4.2|9=55|35=0|34=532|49=ACCEPT|52=20180926-09:49:48.640|56=INIT|10=057|8=FIX.4.2|9=55|35=0|34=533|49=ACCEPT|52=20180926-09:50:19.013|56=INIT|10=042|8=FIX.4.2|9=55|35=0|34=534|49=ACCEPT|52=20180926-09:50:49.015|56=INIT|10=048|8=FIX.4.2|9=55|35=0|34=535|49=ACCEPT|52=20180926-09:51:19.015|56=INIT|10=047|8=FIX.4.2|9=55|35=0|34=536|49=ACCEPT|52=20180926-09:51:49.637|56=INIT|10=061|8=FIX.4.2|9=55|35=0|34=537|49=ACCEPT|52=20180926-09:52:20.022|56=INIT|10=040|8=FIX.4.2|9=55|35=0|34=538|49=ACCEPT|52=20180926-09:52:50.024|56=INIT|10=046|8=FIX.4.2|9=55|35=0|34=539|49=ACCEPT|52=20180926-09:53:20.632|56=INIT|10=050|8=FIX.4.2|9=55|35=0|34=540|49=ACCEPT|52=20180926-09:53:51.018|56=INIT|10=044|8=FIX.4.2|9=55|35=0|34=541|49=ACCEPT|52=20180926-09:54:21.637|56=INIT|10=050|8=FIX.4.2|9=55|35=0|34=542|49=ACCEPT|52=20180926-09:54:51.641|56=INIT|10=049|8=FIX.4.2|9=55|35=0|34=543|49=ACCEPT|52=20180926-09:55:22.020|56=INIT|10=040|8=FIX.4.2|9=55|35=0|34=544|49=ACCEPT|52=20180926-09:55:52.641|56=INIT|10=053|8=FIX.4.2|9=55|35=0|34=545|49=ACCEPT|52=20180926-09:56:23.010|56=INIT|10=043|8=FIX.4.2|9=55|35=0|34=546|49=ACCEPT|52=20180926-09:56:53.014|56=INIT|10=051|8=FIX.4.2|9=55|35=0|34=547|49=ACCEPT|52=20180926-09:57:23.638|56=INIT|10=062|8=FIX.4.2|9=55|35=0|34=548|49=ACCEPT|52=20180926-09:57:54.018|56=INIT|10=059|8=FIX.4.2|9=55|35=0|34=549|49=ACCEPT|52=20180926-09:58:24.630|56=INIT|10=058|8=FIX.4.2|9=55|35=0|34=550|49=ACCEPT|52=20180926-09:58:54.641|56=INIT|10=055|8=FIX.4.2|9=55|35=0|34=551|49=ACCEPT|52=20180926-09:59:25.009|56=INIT|10=053|8=FIX.4.2|9=55|35=0|34=552|49=ACCEPT|52=20180926-09:59:55.015|56=INIT|10=054|8=FIX.4.2|9=55|35=0|34=553|49=ACCEPT|52=20180926-10:00:25.020|56=INIT|10=026|8=FIX.4.2|9=55|35=0|34=554|49=ACCEPT|52=20180926-10:00:55.636|56=INIT|10=043|8=FIX.4.2|9=55|35=0|34=555|49=ACCEPT|52=20180926-10:01:25.638|56=INIT|10=044|8=FIX.4.2|9=55|35=0|34=556|49=ACCEPT|52=20180926-10:01:56.017|56=INIT|10=040|8=FIX.4.2|9=55|35=0|34=557|49=ACCEPT|52=20180926-10:02:26.628|56=INIT|10=047|8=FIX.4.2|9=55|35=0|34=558|49=ACCEPT|52=20180926-10:02:56.634|56=INIT|10=048|8=FIX.4.2|9=55|35=0|34=559|49=ACCEPT|52=20180926-10:03:26.637|56=INIT|10=050|8=FIX.4.2|9=55|35=0|34=560|49=ACCEPT|52=20180926-10:03:57.021|56=INIT|10=033|8=FIX.4.2|9=55|35=0|34=561|49=ACCEPT|52=20180926-10:04:27.021|56=INIT|10=032|8=FIX.4.2|9=55|35=0|34=562|49=ACCEPT|52=20180926-10:04:58.008|56=INIT|10=042|8=FIX.4.2|9=124|35=3|34=563|49=ACCEPT|52=20180926-10:05:14.485|56=INIT|45=572|371=5961|372=8|373=2|58=Tag not defined for this message type|10=188|8=FIX.4.2|9=64|35=1|34=564|49=ACCEPT|52=20180926-10:05:34.019|56=INIT|112=TEST|10=060|8=FIX.4.2|9=55|35=0|34=565|49=ACCEPT|52=20180926-10:06:04.638|56=INIT|10=047|8=FIX.4.2|9=55|35=0|34=566|49=ACCEPT|52=20180926-10:06:35.011|56=INIT|10=037|8=FIX.4.2|9=124|35=3|34=567|49=ACCEPT|52=20180926-10:06:51.226|56=INIT|45=576|371=5961|372=8|373=2|58=Tag not defined for this message type|10=191|8=FIX.4.2|9=64|35=1|34=568|49=ACCEPT|52=20180926-10:07:21.007|56=INIT|112=TEST|10=059|8=FIX.4.2|9=55|35=0|34=569|49=ACCEPT|52=20180926-10:07:51.016|56=INIT|10=044|8=FIX.4.2|9=55|35=0|34=570|49=ACCEPT|52=20180926-10:08:21.623|56=INIT|10=038|8=FIX.4.2|9=55|35=0|34=571|49=ACCEPT|52=20180926-10:08:51.635|56=INIT|10=045|8=FIX.4.2|9=55|35=0|34=572|49=ACCEPT|52=20180926-10:09:22.020|56=INIT|10=033|8=FIX.4.2|9=55|35=0|34=573|49=ACCEPT|52=20180926-10:09:52.623|56=INIT|10=046|8=FIX.4.2|9=55|35=0|34=574|49=ACCEPT|52=20180926-10:10:22.632|56=INIT|10=036|8=FIX.4.2|9=55|35=0|34=575|49=ACCEPT|52=20180926-10:10:53.017|56=INIT|10=038|8=FIX.4.2|9=55|35=0|34=576|49=ACCEPT|52=20180926-10:11:23.621|56=INIT|10=038|8=FIX.4.2|9=55|35=0|34=577|49=ACCEPT|52=20180926-10:11:53.622|56=INIT|10=043|8=FIX.4.2|9=55|35=0|34=578|49=ACCEPT|52=20180926-10:12:23.623|56=INIT|10=043|8=FIX.4.2|9=55|35=0|34=579|49=ACCEPT|52=20180926-10:12:53.623|56=INIT|10=047|8=FIX.4.2|9=55|35=0|34=580|49=ACCEPT|52=20180926-10:13:24.012|56=INIT|10=030|8=FIX.4.2|9=55|35=0|34=581|49=ACCEPT|52=20180926-10:13:54.016|56=INIT|10=038|8=FIX.4.2|9=55|35=0|34=582|49=ACCEPT|52=20180926-10:14:24.624|56=INIT|10=042|8=FIX.4.2|9=55|35=0|34=583|49=ACCEPT|52=20180926-10:14:55.011|56=INIT|10=037|8=FIX.4.2|9=55|35=0|34=584|49=ACCEPT|52=20180926-10:15:25.632|56=INIT|10=045|8=FIX.4.2|9=55|35=0|34=585|49=ACCEPT|52=20180926-10:15:56.017|56=INIT|10=047|8=FIX.4.2|9=55|35=0|34=586|49=ACCEPT|52=20180926-10:16:26.623|56=INIT|10=049|8=FIX.4.2|9=55|35=0|34=587|49=ACCEPT|52=20180926-10:16:56.625|56=INIT|10=055|8=FIX.4.2|9=55|35=0|34=588|49=ACCEPT|52=20180926-10:17:26.625|56=INIT|10=054|8=FIX.4.2|9=55|35=0|34=589|49=ACCEPT|52=20180926-10:17:57.011|56=INIT|10=048|8=FIX.4.2|9=55|35=0|34=590|49=ACCEPT|52=20180926-10:18:27.017|56=INIT|10=044|8=FIX.4.2|9=55|35=0|34=591|49=ACCEPT|52=20180926-10:18:58.003|56=INIT|10=044|8=FIX.4.2|9=64|35=1|34=592|49=ACCEPT|52=20180926-10:19:13.015|56=INIT|112=TEST|10=059|8=FIX.4.2|9=84|35=A|34=593|49=ACCEPT|52=20180926-15:26:46.457|56=INIT|98=0|108=30|95=8|96=3.0.0rc4|10=241|8=FIX.4.2|9=106|35=3|34=594|49=ACCEPT|52=20180926-15:27:07.310|56=INIT|45=602|371=22205|372=D|373=0|58=Invalid tag number|10=018|8=FIX.4.2|9=64|35=1|34=595|49=ACCEPT|52=20180926-15:27:31.897|56=INIT|112=TEST|10=084|8=FIX.4.2|9=55|35=0|34=596|49=ACCEPT|52=20180926-15:28:02.452|56=INIT|10=052|8=FIX.4.2|9=55|35=0|34=597|49=ACCEPT|52=20180926-15:28:32.889|56=INIT|10=070|8=FIX.4.2|9=55|35=0|34=598|49=ACCEPT|52=20180926-15:29:03.447|56=INIT|10=060|8=FIX.4.2|9=55|35=0|34=599|49=ACCEPT|52=20180926-15:29:33.458|56=INIT|10=066|8=FIX.4.2|9=55|35=0|34=600|49=ACCEPT|52=20180926-15:30:03.458|56=INIT|10=038|8=FIX.4.2|9=55|35=0|34=601|49=ACCEPT|52=20180926-15:30:33.890|56=INIT|10=042|8=FIX.4.2|9=55|35=0|34=602|49=ACCEPT|52=20180926-15:31:03.892|56=INIT|10=043|8=FIX.4.2|9=55|35=0|34=603|49=ACCEPT|52=20180926-15:31:33.896|56=INIT|10=051|8=FIX.4.2|9=55|35=0|34=604|49=ACCEPT|52=20180926-15:32:04.455|56=INIT|10=042|8=FIX.4.2|9=55|35=0|34=605|49=ACCEPT|52=20180926-15:32:34.888|56=INIT|10=056|8=FIX.4.2|9=55|35=0|34=606|49=ACCEPT|52=20180926-15:33:04.894|56=INIT|10=052|8=FIX.4.2|9=55|35=0|34=607|49=ACCEPT|52=20180926-15:33:34.895|56=INIT|10=057|8=FIX.4.2|9=55|35=0|34=608|49=ACCEPT|52=20180926-15:34:05.457|56=INIT|10=051|8=FIX.4.2|9=55|35=0|34=609|49=ACCEPT|52=20180926-15:34:35.885|56=INIT|10=060|8=FIX.4.2|9=55|35=0|34=610|49=ACCEPT|52=20180926-15:35:05.894|56=INIT|10=050|8=FIX.4.2|9=55|35=0|34=611|49=ACCEPT|52=20180926-15:35:35.897|56=INIT|10=057|8=FIX.4.2|9=55|35=0|34=612|49=ACCEPT|52=20180926-15:36:06.443|56=INIT|10=044|8=FIX.4.2|9=55|35=0|34=613|49=ACCEPT|52=20180926-15:36:36.896|56=INIT|10=060|8=FIX.4.2|9=55|35=0|34=614|49=ACCEPT|52=20180926-15:37:07.458|56=INIT|10=054|8=FIX.4.2|9=55|35=0|34=615|49=ACCEPT|52=20180926-15:37:37.458|56=INIT|10=058|8=FIX.4.2|9=55|35=0|34=616|49=ACCEPT|52=20180926-15:38:07.895|56=INIT|10=062|8=FIX.4.2|9=55|35=0|34=617|49=ACCEPT|52=20180926-15:38:38.456|56=INIT|10=060|8=FIX.4.2|9=55|35=0|34=618|49=ACCEPT|52=20180926-15:39:08.892|56=INIT|10=063|8=FIX.4.2|9=55|35=0|34=619|49=ACCEPT|52=20180926-15:39:39.451|56=INIT|10=059|8=FIX.4.2|9=55|35=0|34=620|49=ACCEPT|52=20180926-15:40:09.883|56=INIT|10=049|8=FIX.4.2|9=55|35=0|34=621|49=ACCEPT|52=20180926-15:40:40.444|56=INIT|10=038|8=FIX.4.2|9=55|35=0|34=622|49=ACCEPT|52=20180926-15:41:10.454|56=INIT|10=038|8=FIX.4.2|9=55|35=0|34=623|49=ACCEPT|52=20180926-15:41:40.885|56=INIT|10=050|8=FIX.4.2|9=55|35=0|34=624|49=ACCEPT|52=20180926-15:42:10.893|56=INIT|10=048|8=FIX.4.2|9=55|35=0|34=625|49=ACCEPT|52=20180926-15:42:41.445|56=INIT|10=046|8=FIX.4.2|9=55|35=0|34=626|49=ACCEPT|52=20180926-15:43:11.451|56=INIT|10=042|8=FIX.4.2|9=55|35=0|34=627|49=ACCEPT|52=20180926-15:43:41.455|56=INIT|10=050|8=FIX.4.2|9=55|35=0|34=628|49=ACCEPT|52=20180926-15:44:11.880|56=INIT|10=051|8=FIX.4.2|9=55|35=0|34=629|49=ACCEPT|52=20180926-15:44:41.882|56=INIT|10=057|8=FIX.4.2|9=55|35=0|34=630|49=ACCEPT|52=20180926-15:45:11.884|56=INIT|10=049|8=FIX.4.2|9=55|35=0|34=631|49=ACCEPT|52=20180926-15:45:41.888|56=INIT|10=057|8=FIX.4.2|9=55|35=0|34=632|49=ACCEPT|52=20180926-15:46:12.447|56=INIT|10=048|8=FIX.4.2|9=55|35=0|34=633|49=ACCEPT|52=20180926-15:46:42.452|56=INIT|10=048|8=FIX.4.2|9=55|35=0|34=634|49=ACCEPT|52=20180926-15:47:12.882|56=INIT|10=054|8=FIX.4.2|9=55|35=0|34=635|49=ACCEPT|52=20180926-15:47:42.890|56=INIT|10=057|8=FIX.4.2|9=55|35=0|34=636|49=ACCEPT|52=20180926-15:48:13.450|56=INIT|10=049|8=FIX.4.2|9=55|35=0|34=637|49=ACCEPT|52=20180926-15:48:43.879|56=INIT|10=068|8=FIX.4.2|9=55|35=0|34=638|49=ACCEPT|52=20180926-15:49:13.886|56=INIT|10=065|8=FIX.4.2|9=55|35=0|34=639|49=ACCEPT|52=20180926-15:49:44.442|56=INIT|10=058|8=FIX.4.2|9=55|35=0|34=640|49=ACCEPT|52=20180926-15:50:14.451|56=INIT|10=039|8=FIX.4.2|9=55|35=0|34=641|49=ACCEPT|52=20180926-15:50:44.876|56=INIT|10=054|8=FIX.4.2|9=1896|35=8|49=ACCEPT|56=INIT|34=642|52=20180926-15:51:04.010|9690=153|9691=SBSIUS33|9692=B|9694=75.010|9693=1|9695=100000|9697=Done|7761=1|9691=ABO1MPID|9692=C|9694=97.000|9693=1|9695=250000|9697=Covered|7761=2|9691=WPACBIC|9692=B|9694=101.100|9693=1|9695=250000|9697=Missed|7761=3|9691=LAZA|9692=C|9694=104.400|9693=1|9695=250000|9696=Dealer response !! QuoteUpdate|9697=Missed|7761=4|9691=AASIUS33|9692=B|9694=106.900|9693=1|9695=250000|9696=Dealer response !! QuoteUpdate|9697=Missed|7761=5|9691=GMSG|9692=C|9694=108.700|9693=1|9695=250000|9696=Dealer response !! QuoteUpdate|9697=Missed|7761=6|9691=GUCPUSM1|9692=B|9694=114.500|9693=1|9695=250000|9696=Dealer response !! QuoteUpdate|9697=Missed|7761=7|9691=RBAIUS41XXX|9692=B|9694=115.500|9693=1|9695=250000|9696=Dealer response !! QuoteUpdate|9697=Missed|7761=8|9691=NITE|9692=B|9694=120.100|9693=1|9695=250000|9696=Dealer response !! QuoteUpdate|9697=Missed|7761=9|9691=ANZBUS33|9692=B|9696=Please Contact your ANZ Salesperson 1.|9697=Passed|7761=10|9691=CRLYUS33|9692=B|9697=Passed|7761=11|9691=CTBAAU2SFXD|9692=B|9696=None in TList|9697=Passed|7761=12|9691=RDOSUS31|9692=B|9697=Passed|7761=13|9691=GOLDUS33|9692=B|9697=Timed Out|7761=14|9691=FISA|9692=C|9697=Timed Out |7761=152|9691=ZKBKCHZZ80A|9692=B|9697=Timed Out|7761=153|109=STP Test Client, Inc.|76=SBSIUS33|17=One-USD_AGN-1662852-0-0-kpt1r|37=5822107|11=JBZ1808061810142557|19=5822107-kn5lj|20=0|150=1|39=1|64=20180817|54=1|32=100000|31=75.010|151=770000|14=100000|6=75.010|9805=1076.723|9806=1153.787|5645=1077.612|9804=1077.612|5961=Price|75=20180815|60=20180815-12:06:36.284|381=75010.00|38=870000|6655=250000|55=FIXED|22=4|48=USP79171AE79|200=202409|205=1|223=7.45|106=PROVINCE OF CORDOBA|6620=20170301|6659=20170301|107=CORDO  7.450  9/1/24 (URegS)|6608=13.657|6637=20240901|6611=3435.28|6612=78445.28|6609=MISC|6606=atrianine@marketxess.com|15=USD|120=USD|9947=citiustrade|157=166|10=074|8=FIX.4.2|9=64|35=0|34=643|49=ACCEPT|52=20180926-15:51:30.447|56=INIT|112=TEST|10=064|8=FIX.4.2|9=1896|35=8|49=ACCEPT|56=INIT|34=644|52=20180926-15:51:36.420|9690=16|9691=SBSIUS33|9692=B|9694=75.010|9693=1|9695=100000|9697=Done|7761=1|9691=ABO1MPID|9692=C|9694=97.000|9693=1|9695=250000|9697=Covered|7761=2|9691=WPACBIC|9692=B|9694=101.100|9693=1|9695=250000|9697=Missed|7761=3|9691=LAZA|9692=C|9694=104.400|9693=1|9695=250000|9696=Dealer response !! QuoteUpdate|9697=Missed|7761=4|9691=AASIUS33|9692=B|9694=106.900|9693=1|9695=250000|9696=Dealer response !! QuoteUpdate|9697=Missed|7761=5|9691=GMSG|9692=C|9694=108.700|9693=1|9695=250000|9696=Dealer response !! QuoteUpdate|9697=Missed|7761=6|9691=GUCPUSM1|9692=B|9694=114.500|9693=1|9695=250000|9696=Dealer response !! QuoteUpdate|9697=Missed|7761=7|9691=RBAIUS41XXX|9692=B|9694=115.500|9693=1|9695=250000|9696=Dealer response !! QuoteUpdate|9697=Missed|7761=8|9691=NITE|9692=B|9694=120.100|9693=1|9695=250000|9696=Dealer response !! QuoteUpdate|9697=Missed|7761=9|9691=ANZBUS33|9692=B|9696=Please Contact your ANZ Salesperson 1.|9697=Passed|7761=10|9691=CRLYUS33|9692=B|9697=Passed|7761=11|9691=CTBAAU2SFXD|9692=B|9696=None in TList|9697=Passed|7761=12|9691=RDOSUS31|9692=B|9697=Passed|7761=13|9691=GOLDUS33|9692=B|9697=Timed Out|7761=14|9691=FISA|9692=C|9697=Timed Out |7761=152|9691=ZKBKCHZZ80A|9692=B|9697=Timed Out|7761=153|109=STP Test Client, Inc.|76=SBSIUS33|17=One-USD_AGN-1662852-0-0-kpt1r|37=5822107|11=JBZ1808061810142557|19=5822107-kn5lj|20=0|150=1|39=1|64=20180817|54=1|32=100000|31=75.010|151=770000|14=100000|6=75.010|9805=1076.723|9806=1153.787|5645=1077.612|9804=1077.612|5961=Price|75=20180815|60=20180815-12:06:36.284|381=75010.00|38=870000|6655=250000|55=FIXED|22=4|48=USP79171AE79|200=202409|205=1|223=7.45|106=PROVINCE OF CORDOBA|6620=20170301|6659=20170301|107=CORDO  7.450  9/1/24 (URegS)|6608=13.657|6637=20240901|6611=3435.28|6612=78445.28|6609=MISC|6606=atrianine@marketxess.com|15=USD|120=USD|9947=citiustrade|157=166|10=086|8=FIX.4.2|9=66|35=2|34=645|49=ACCEPT|52=20180926-15:52:01.445|56=INIT|7=652|16=0|10=024|8=FIX.4.2|9=55|35=0|34=646|49=ACCEPT|52=20180926-15:52:31.451|56=INIT|10=046|8=FIX.4.2|9=55|35=0|34=647|49=ACCEPT|52=20180926-15:53:01.891|56=INIT|10=053|8=FIX.4.2|9=55|35=0|34=648|49=ACCEPT|52=20180926-15:53:32.448|56=INIT|10=056|8=FIX.4.2|9=1896|35=8|49=ACCEPT|56=INIT|34=649|52=20180926-15:53:32.685|9690=16|9691=SBSIUS33|9692=B|9694=75.010|9693=1|9695=100000|9697=Done|7761=1|9691=ABO1MPID|9692=C|9694=97.000|9693=1|9695=250000|9697=Covered|7761=2|9691=WPACBIC|9692=B|9694=101.100|9693=1|9695=250000|9697=Missed|7761=3|9691=LAZA|9692=C|9694=104.400|9693=1|9695=250000|9696=Dealer response !! QuoteUpdate|9697=Missed|7761=4|9691=AASIUS33|9692=B|9694=106.900|9693=1|9695=250000|9696=Dealer response !! QuoteUpdate|9697=Missed|7761=5|9691=GMSG|9692=C|9694=108.700|9693=1|9695=250000|9696=Dealer response !! QuoteUpdate|9697=Missed|7761=6|9691=GUCPUSM1|9692=B|9694=114.500|9693=1|9695=250000|9696=Dealer response !! QuoteUpdate|9697=Missed|7761=7|9691=RBAIUS41XXX|9692=B|9694=115.500|9693=1|9695=250000|9696=Dealer response !! QuoteUpdate|9697=Missed|7761=8|9691=NITE|9692=B|9694=120.100|9693=1|9695=250000|9696=Dealer response !! QuoteUpdate|9697=Missed|7761=9|9691=ANZBUS33|9692=B|9696=Please Contact your ANZ Salesperson 1.|9697=Passed|7761=10|9691=CRLYUS33|9692=B|9697=Passed|7761=11|9691=CTBAAU2SFXD|9692=B|9696=None in TList|9697=Passed|7761=12|9691=RDOSUS31|9692=B|9697=Passed|7761=13|9691=GOLDUS33|9692=B|9697=Timed Out|7761=14|9691=FISA|9692=C|9697=Timed Out |7761=152|9691=ZKBKCHZZ80A|9692=B|9697=Timed Out|7761=153|109=STP Test Client, Inc.|76=SBSIUS33|17=One-USD_AGN-1662852-0-0-kpt1r|37=5822107|11=JBZ1808061810142557|19=5822107-kn5lj|20=0|150=1|39=1|64=20180817|54=1|32=100000|31=75.010|151=770000|14=100000|6=75.010|9805=1076.723|9806=1153.787|5645=1077.612|9804=1077.612|5961=Price|75=20180815|60=20180815-12:06:36.284|381=75010.00|38=870000|6655=250000|55=FIXED|22=4|48=USP79171AE79|200=202409|205=1|223=7.45|106=PROVINCE OF CORDOBA|6620=20170301|6659=20170301|107=CORDO  7.450  9/1/24 (URegS)|6608=13.657|6637=20240901|6611=3435.28|6612=78445.28|6609=MISC|6606=atrianine@marketxess.com|15=USD|120=USD|9947=citiustrade|157=166|10=102|8=FIX.4.2|9=55|35=0|34=650|49=ACCEPT|52=20180926-15:54:02.879|56=INIT|10=055|8=FIX.4.2|9=55|35=0|34=651|49=ACCEPT|52=20180926-15:54:32.887|56=INIT|10=058|8=FIX.4.2|9=53|35=0|34=1|49=ACCEPT|52=20180926-15:55:03.446|56=INIT|10=195|8=FIX.4.2|9=120|35=3|34=2|49=ACCEPT|52=20180926-15:55:12.108|56=INIT|45=2|371=5961|372=8|373=2|58=Tag not defined for this message type|10=224|8=FIX.4.2|9=53|35=0|34=3|49=ACCEPT|52=20180926-15:55:42.442|56=INIT|10=196|8=FIX.4.2|9=53|35=0|34=4|49=ACCEPT|52=20180926-15:56:12.450|56=INIT|10=194|8=FIX.4.2|9=53|35=0|34=5|49=ACCEPT|52=20180926-15:56:42.879|56=INIT|10=213|8=FIX.4.2|9=53|35=0|34=6|49=ACCEPT|52=20180926-15:57:13.440|56=INIT|10=197|8=FIX.4.2|9=53|35=0|34=7|49=ACCEPT|52=20180926-15:57:43.450|56=INIT|10=202|8=FIX.4.2|9=53|35=0|34=8|49=ACCEPT|52=20180926-15:58:13.897|56=INIT|10=216|8=FIX.4.2|9=53|35=0|34=9|49=ACCEPT|52=20180926-15:58:44.437|56=INIT|10=211|8=FIX.4.2|9=54|35=0|34=10|49=ACCEPT|52=20180926-15:59:14.447|56=INIT|10=251|8=FIX.4.2|9=54|35=0|34=11|49=ACCEPT|52=20180926-15:59:44.881|56=INIT|10=001|8=FIX.4.2|9=54|35=0|34=12|49=ACCEPT|52=20180926-16:00:15.442|56=INIT|10=236|8=FIX.4.2|9=54|35=0|34=13|49=ACCEPT|52=20180926-16:00:45.446|56=INIT|10=244|8=FIX.4.2|9=54|35=0|34=14|49=ACCEPT|52=20180926-16:01:15.875|56=INIT|10=249|8=FIX.4.2|9=54|35=0|34=15|49=ACCEPT|52=20180926-16:01:45.884|56=INIT|10=253|8=FIX.4.2|9=54|35=0|34=16|49=ACCEPT|52=20180926-16:02:15.887|56=INIT|10=255|8=FIX.4.2|9=54|35=0|34=17|49=ACCEPT|52=20180926-16:02:46.437|56=INIT|10=251|8=FIX.4.2|9=54|35=0|34=18|49=ACCEPT|52=20180926-16:03:16.874|56=INIT|10=255|8=FIX.4.2|9=54|35=0|34=19|49=ACCEPT|52=20180926-16:03:46.877|56=INIT|10=006|8=FIX.4.2|9=54|35=0|34=20|49=ACCEPT|52=20180926-16:04:17.439|56=INIT|10=247|8=FIX.4.2|9=54|35=0|34=21|49=ACCEPT|52=20180926-16:04:47.876|56=INIT|10=000|8=FIX.4.2|9=54|35=0|34=22|49=ACCEPT|52=20180926-16:05:17.885|56=INIT|10=255|8=FIX.4.2|9=54|35=0|34=23|49=ACCEPT|52=20180926-16:05:48.436|56=INIT|10=252|8=FIX.4.2|9=54|35=0|34=24|49=ACCEPT|52=20180926-16:06:18.438|56=INIT|10=253|8=FIX.4.2|9=54|35=0|34=25|49=ACCEPT|52=20180926-16:06:48.446|56=INIT|10=000|8=FIX.4.2|9=54|35=0|34=26|49=ACCEPT|52=20180926-16:07:18.881|56=INIT|10=002|8=FIX.4.2|9=54|35=0|34=27|49=ACCEPT|52=20180926-16:07:49.442|56=INIT|10=000|8=FIX.4.2|9=54|35=0|34=28|49=ACCEPT|52=20180926-16:08:19.445|56=INIT|10=002|8=FIX.4.2|9=54|35=0|34=29|49=ACCEPT|52=20180926-16:08:49.446|56=INIT|10=007|8=FIX.4.2|9=54|35=0|34=30|49=ACCEPT|52=20180926-16:09:19.872|56=INIT|10=000|8=FIX.4.2|9=54|35=0|34=31|49=ACCEPT|52=20180926-16:09:49.885|56=INIT|10=008|8=FIX.4.2|9=54|35=0|34=32|49=ACCEPT|52=20180926-16:10:20.439|56=INIT|10=241|8=FIX.4.2|9=54|35=0|34=33|49=ACCEPT|52=20180926-16:10:50.871|56=INIT|10=245|8=FIX.4.2|9=54|35=0|34=34|49=ACCEPT|52=20180926-16:11:20.884|56=INIT|10=248|8=FIX.4.2|9=54|35=0|34=35|49=ACCEPT|52=20180926-16:11:51.432|56=INIT|10=242|8=FIX.4.2|9=54|35=0|34=36|49=ACCEPT|52=20180926-16:12:21.439|56=INIT|10=248|8=FIX.4.2|9=54|35=0|34=37|49=ACCEPT|52=20180926-16:12:51.874|56=INIT|10=255|8=FIX.4.2|9=54|35=0|34=38|49=ACCEPT|52=20180926-16:13:21.879|56=INIT|10=003|8=FIX.4.2|9=54|35=0|34=39|49=ACCEPT|52=20180926-16:13:52.434|56=INIT|10=251|8=FIX.4.2|9=54|35=0|34=40|49=ACCEPT|52=20180926-16:14:22.882|56=INIT|10=248|8=FIX.4.2|9=54|35=0|34=41|49=ACCEPT|52=20180926-16:14:53.439|56=INIT|10=251|8=FIX.4.2|9=54|35=0|34=42|49=ACCEPT|52=20180926-16:15:23.874|56=INIT|10=253|8=FIX.4.2|9=54|35=0|34=43|49=ACCEPT|52=20180926-16:15:54.431|56=INIT|10=247|8=FIX.4.2|9=54|35=0|34=44|49=ACCEPT|52=20180926-16:16:24.431|56=INIT|10=246|8=FIX.4.2|9=54|35=0|34=45|49=ACCEPT|52=20180926-16:16:54.881|56=INIT|10=003|8=FIX.4.2|9=54|35=0|34=46|49=ACCEPT|52=20180926-16:17:25.435|56=INIT|10=254|8=FIX.4.2|9=54|35=0|34=47|49=ACCEPT|52=20180926-16:17:55.439|56=INIT|10=006|8=FIX.4.2|9=54|35=0|34=48|49=ACCEPT|52=20180926-16:18:25.442|56=INIT|10=255|8=FIX.4.2|9=54|35=0|34=49|49=ACCEPT|52=20180926-16:18:55.881|56=INIT|10=010|8=FIX.4.2|9=54|35=0|34=50|49=ACCEPT|52=20180926-16:19:26.442|56=INIT|10=250|8=FIX.4.2|9=54|35=0|34=51|49=ACCEPT|52=20180926-16:19:56.866|56=INIT|10=008|8=FIX.4.2|9=54|35=0|34=52|49=ACCEPT|52=20180926-16:20:26.877|56=INIT|10=000|8=FIX.4.2|9=54|35=0|34=53|49=ACCEPT|52=20180926-16:20:57.432|56=INIT|10=248|8=FIX.4.2|9=54|35=0|34=54|49=ACCEPT|52=20180926-16:21:27.439|56=INIT|10=254|8=FIX.4.2|9=54|35=0|34=55|49=ACCEPT|52=20180926-16:21:57.868|56=INIT|10=008|8=FIX.4.2|9=54|35=0|34=56|49=ACCEPT|52=20180926-16:22:28.428|56=INIT|10=000|8=FIX.4.2|9=54|35=0|34=57|49=ACCEPT|52=20180926-16:22:58.437|56=INIT|10=004|8=FIX.4.2|9=54|35=0|34=58|49=ACCEPT|52=20180926-16:23:28.872|56=INIT|10=006|8=FIX.4.2|9=54|35=0|34=59|49=ACCEPT|52=20180926-16:23:59.428|56=INIT|10=008|8=FIX.4.2|9=54|35=0|34=60|49=ACCEPT|52=20180926-16:24:29.879|56=INIT|10=008|8=FIX.4.2|9=54|35=0|34=61|49=ACCEPT|52=20180926-16:25:00.434|56=INIT|10=242|8=FIX.4.2|9=54|35=0|34=62|49=ACCEPT|52=20180926-16:25:30.870|56=INIT|10=250|8=FIX.4.2|9=54|35=0|34=63|49=ACCEPT|52=20180926-16:26:00.875|56=INIT|10=254|8=FIX.4.2|9=54|35=0|34=64|49=ACCEPT|52=20180926-16:26:31.434|56=INIT|10=250|8=FIX.4.2|9=54|35=0|34=65|49=ACCEPT|52=20180926-16:27:01.870|56=INIT|10=253|8=FIX.4.2|9=54|35=0|34=66|49=ACCEPT|52=20180926-16:27:32.426|56=INIT|10=255|8=FIX.4.2|9=54|35=0|34=67|49=ACCEPT|52=20180926-16:28:02.435|56=INIT|10=254|8=FIX.4.2|9=54|35=0|34=68|49=ACCEPT|52=20180926-16:28:32.438|56=INIT|10=005|8=FIX.4.2|9=54|35=0|34=69|49=ACCEPT|52=20180926-16:29:02.873|56=INIT|10=007|8=FIX.4.2|9=54|35=0|34=70|49=ACCEPT|52=20180926-16:29:33.434|56=INIT|10=252|8=FIX.4.2|9=54|35=0|34=71|49=ACCEPT|52=20180926-16:30:03.863|56=INIT|10=248|8=FIX.4.2|9=54|35=0|34=72|49=ACCEPT|52=20180926-16:30:33.865|56=INIT|10=254|8=FIX.4.2|9=54|35=0|34=73|49=ACCEPT|52=20180926-16:31:03.871|56=INIT|10=250|8=FIX.4.2|9=54|35=0|34=74|49=ACCEPT|52=20180926-16:31:34.431|56=INIT|10=247|8=FIX.4.2|9=54|35=0|34=75|49=ACCEPT|52=20180926-16:32:04.867|56=INIT|10=003|8=FIX.4.2|9=54|35=0|34=76|49=ACCEPT|52=20180926-16:32:35.428|56=INIT|10=001|8=FIX.4.2|9=54|35=0|34=77|49=ACCEPT|52=20180926-16:33:05.863|56=INIT|10=003|8=FIX.4.2|9=54|35=0|34=78|49=ACCEPT|52=20180926-16:33:35.869|56=INIT|10=013|8=FIX.4.2|9=54|35=0|34=79|49=ACCEPT|52=20180926-16:34:06.427|56=INIT|10=003|8=FIX.4.2|9=54|35=0|34=80|49=ACCEPT|52=20180926-16:34:36.428|56=INIT|10=255|8=FIX.4.2|9=54|35=0|34=81|49=ACCEPT|52=20180926-16:35:06.432|56=INIT|10=249|8=FIX.4.2|9=54|35=0|34=82|49=ACCEPT|52=20180926-16:35:36.434|56=INIT|10=255|8=FIX.4.2|9=54|35=0|34=83|49=ACCEPT|52=20180926-16:36:06.434|56=INIT|10=254|8=FIX.4.2|9=54|35=0|34=84|49=ACCEPT|52=20180926-16:36:36.875|56=INIT|10=011|8=FIX.4.2|9=54|35=0|34=85|49=ACCEPT|52=20180926-16:37:07.428|56=INIT|10=005|8=FIX.4.2|9=54|35=0|34=86|49=ACCEPT|52=20180926-16:37:37.860|56=INIT|10=009|8=FIX.4.2|9=54|35=0|34=87|49=ACCEPT|52=20180926-16:38:07.867|56=INIT|10=015|8=FIX.4.2|9=54|35=0|34=88|49=ACCEPT|52=20180926-16:38:37.868|56=INIT|10=020|8=FIX.4.2|9=54|35=0|34=89|49=ACCEPT|52=20180926-16:39:07.872|56=INIT|10=014|8=FIX.4.2|9=54|35=0|34=90|49=ACCEPT|52=20180926-16:39:38.425|56=INIT|10=004|8=FIX.4.2|9=54|35=0|34=91|49=ACCEPT|52=20180926-16:40:08.860|56=INIT|10=253|8=FIX.4.2|9=54|35=0|34=92|49=ACCEPT|52=20180926-16:40:39.422|56=INIT|10=252|8=FIX.4.2|9=54|35=0|34=93|49=ACCEPT|52=20180926-16:41:09.434|56=INIT|10=254|8=FIX.4.2|9=54|35=0|34=94|49=ACCEPT|52=20180926-16:41:39.865|56=INIT|10=010|8=FIX.4.2|9=54|35=0|34=95|49=ACCEPT|52=20180926-16:42:10.422|56=INIT|10=246|8=FIX.4.2|9=54|35=0|34=96|49=ACCEPT|52=20180926-16:42:40.429|56=INIT|10=001|8=FIX.4.2|9=54|35=0|34=97|49=ACCEPT|52=20180926-16:43:10.431|56=INIT|10=249|8=FIX.4.2|9=54|35=0|34=98|49=ACCEPT|52=20180926-16:43:40.861|56=INIT|10=004|8=FIX.4.2|9=54|35=0|34=99|49=ACCEPT|52=20180926-16:44:10.864|56=INIT|10=006|8=FIX.4.2|9=55|35=0|34=100|49=ACCEPT|52=20180926-16:44:40.869|56=INIT|10=046|8=FIX.4.2|9=55|35=0|34=101|49=ACCEPT|52=20180926-16:45:11.429|56=INIT|10=038|8=FIX.4.2|9=55|35=0|34=102|49=ACCEPT|52=20180926-16:45:41.865|56=INIT|10=046|8=FIX.4.2|9=55|35=0|34=103|49=ACCEPT|52=20180926-16:46:12.420|56=INIT|10=033|8=FIX.4.2|9=55|35=0|34=104|49=ACCEPT|52=20180926-16:46:42.857|56=INIT|10=051|8=FIX.4.2|9=55|35=0|34=105|49=ACCEPT|52=20180926-16:47:12.867|56=INIT|10=051|8=FIX.4.2|9=55|35=0|34=106|49=ACCEPT|52=20180926-16:47:43.424|56=INIT|10=045|8=FIX.4.2|9=55|35=0|34=107|49=ACCEPT|52=20180926-16:48:13.428|56=INIT|10=048|8=FIX.4.2|9=55|35=0|34=108|49=ACCEPT|52=20180926-16:48:43.859|56=INIT|10=060|8=FIX.4.2|9=55|35=0|34=109|49=ACCEPT|52=20180926-16:49:13.860|56=INIT|10=051|8=FIX.4.2|9=55|35=0|34=110|49=ACCEPT|52=20180926-16:49:44.421|56=INIT|10=040|8=FIX.4.2|9=55|35=0|34=111|49=ACCEPT|52=20180926-16:50:14.423|56=INIT|10=032|8=FIX.4.2|9=55|35=0|34=112|49=ACCEPT|52=20180926-16:50:44.430|56=INIT|10=034|8=FIX.4.2|9=55|35=0|34=113|49=ACCEPT|52=20180926-16:51:14.862|56=INIT|10=042|8=FIX.4.2|9=55|35=0|34=114|49=ACCEPT|52=20180926-16:51:44.865|56=INIT|10=049|8=FIX.4.2|9=55|35=0|34=115|49=ACCEPT|52=20180926-16:52:14.867|56=INIT|10=050|8=FIX.4.2|9=55|35=0|34=116|49=ACCEPT|52=20180926-16:52:44.868|56=INIT|10=055|8=FIX.4.2|9=55|35=0|34=117|49=ACCEPT|52=20180926-16:53:15.416|56=INIT|10=044|8=FIX.4.2|9=55|35=0|34=118|49=ACCEPT|52=20180926-16:53:45.424|56=INIT|10=047|8=FIX.4.2|9=55|35=0|34=119|49=ACCEPT|52=20180926-16:54:15.426|56=INIT|10=048|8=FIX.4.2|9=55|35=0|34=120|49=ACCEPT|52=20180926-16:54:45.428|56=INIT|10=045|8=FIX.4.2|9=55|35=0|34=121|49=ACCEPT|52=20180926-16:55:15.429|56=INIT|10=045|8=FIX.4.2|9=55|35=0|34=122|49=ACCEPT|52=20180926-16:55:45.864|56=INIT|10=052|8=FIX.4.2|9=55|35=0|34=123|49=ACCEPT|52=20180926-16:56:16.417|56=INIT|10=046|8=FIX.4.2|9=55|35=0|34=124|49=ACCEPT|52=20180926-16:56:46.419|56=INIT|10=052|8=FIX.4.2|9=55|35=0|34=125|49=ACCEPT|52=20180926-16:57:16.854|56=INIT|10=054|8=FIX.4.2|9=55|35=0|34=126|49=ACCEPT|52=20180926-16:57:46.863|56=INIT|10=058|8=FIX.4.2|9=55|35=0|34=127|49=ACCEPT|52=20180926-16:58:17.424|56=INIT|10=051|8=FIX.4.2|9=55|35=0|34=128|49=ACCEPT|52=20180926-16:58:47.855|56=INIT|10=063|8=FIX.4.2|9=55|35=0|34=129|49=ACCEPT|52=20180926-16:59:18.427|56=INIT|10=058|8=FIX.4.2|9=55|35=0|34=130|49=ACCEPT|52=20180926-16:59:48.856|56=INIT|10=059|8=FIX.4.2|9=55|35=0|34=131|49=ACCEPT|52=20180926-17:00:19.418|56=INIT|10=039|8=FIX.4.2|9=55|35=0|34=132|49=ACCEPT|52=20180926-17:00:49.853|56=INIT|10=046|8=FIX.4.2|9=55|35=0|34=133|49=ACCEPT|52=20180926-17:01:19.853|56=INIT|10=045|8=FIX.4.2|9=55|35=0|34=134|49=ACCEPT|52=20180926-17:01:49.853|56=INIT|10=049|8=FIX.4.2|9=55|35=0|34=135|49=ACCEPT|52=20180926-17:02:20.413|56=INIT|10=032|8=FIX.4.2|9=55|35=0|34=136|49=ACCEPT|52=20180926-17:02:50.415|56=INIT|10=038|8=FIX.4.2|9=55|35=0|34=137|49=ACCEPT|52=20180926-17:03:20.851|56=INIT|10=041|8=FIX.4.2|9=55|35=0|34=138|49=ACCEPT|52=20180926-17:03:50.864|56=INIT|10=049|8=FIX.4.2|9=55|35=0|34=139|49=ACCEPT|52=20180926-17:04:21.419|56=INIT|10=045|8=FIX.4.2|9=55|35=0|34=140|49=ACCEPT|52=20180926-17:04:51.850|56=INIT|10=039|8=FIX.4.2|9=55|35=0|34=141|49=ACCEPT|52=20180926-17:05:21.852|56=INIT|10=040|8=FIX.4.2|9=55|35=0|34=142|49=ACCEPT|52=20180926-17:05:51.854|56=INIT|10=046|8=FIX.4.2|9=55|35=0|34=143|49=ACCEPT|52=20180926-17:06:22.416|56=INIT|10=040|8=FIX.4.2|9=55|35=0|34=144|49=ACCEPT|52=20180926-17:06:52.851|56=INIT|10=047|8=FIX.4.2|9=55|35=0|34=145|49=ACCEPT|52=20180926-17:07:22.851|56=INIT|10=046|8=FIX.4.2|9=55|35=0|34=146|49=ACCEPT|52=20180926-17:07:52.862|56=INIT|10=052|8=FIX.4.2|9=55|35=0|34=147|49=ACCEPT|52=20180926-17:08:23.422|56=INIT|10=044|8=FIX.4.2|9=55|35=0|34=148|49=ACCEPT|52=20180926-17:08:53.422|56=INIT|10=048|8=FIX.4.2|9=55|35=0|34=149|49=ACCEPT|52=20180926-17:09:23.853|56=INIT|10=055|8=FIX.4.2|9=55|35=0|34=150|49=ACCEPT|52=20180926-17:09:53.855|56=INIT|10=052|8=FIX.4.2|9=55|35=0|34=151|49=ACCEPT|52=20180926-17:10:23.856|56=INIT|10=043|8=FIX.4.2|9=55|35=0|34=152|49=ACCEPT|52=20180926-17:10:53.861|56=INIT|10=043|8=FIX.4.2|9=55|35=0|34=153|49=ACCEPT|52=20180926-17:11:23.861|56=INIT|10=042|8=FIX.4.2|9=55|35=0|34=154|49=ACCEPT|52=20180926-17:11:54.418|56=INIT|10=045|8=FIX.4.2|9=55|35=0|34=155|49=ACCEPT|52=20180926-17:12:24.853|56=INIT|10=047|8=FIX.4.2|9=55|35=0|34=156|49=ACCEPT|52=20180926-17:12:55.412|56=INIT|10=043|8=FIX.4.2|9=55|35=0|34=157|49=ACCEPT|52=20180926-17:13:25.419|56=INIT|10=049|8=FIX.4.2|9=55|35=0|34=158|49=ACCEPT|52=20180926-17:13:55.850|56=INIT|10=052|8=FIX.4.2|9=55|35=0|34=159|49=ACCEPT|52=20180926-17:14:25.859|56=INIT|10=060|8=FIX.4.2|9=55|35=0|34=160|49=ACCEPT|52=20180926-17:14:55.861|56=INIT|10=048|8=FIX.4.2|9=55|35=0|34=161|49=ACCEPT|52=20180926-17:15:25.861|56=INIT|10=047|8=FIX.4.2|9=55|35=0|34=162|49=ACCEPT|52=20180926-17:15:56.414|56=INIT|10=046|8=FIX.4.2|9=55|35=0|34=163|49=ACCEPT|52=20180926-17:16:26.421|56=INIT|10=043|8=FIX.4.2|9=55|35=0|34=164|49=ACCEPT|52=20180926-17:16:56.853|56=INIT|10=056|8=FIX.4.2|9=55|35=0|34=165|49=ACCEPT|52=20180926-17:17:27.414|56=INIT|10=049|8=FIX.4.2|9=55|35=0|34=166|49=ACCEPT|52=20180926-17:17:57.845|56=INIT|10=061|8=FIX.4.2|9=55|35=0|34=167|49=ACCEPT|52=20180926-17:18:27.858|56=INIT|10=064|8=FIX.4.2|9=55|35=0|34=168|49=ACCEPT|52=20180926-17:18:58.415|56=INIT|10=058|8=FIX.4.2|9=55|35=0|34=169|49=ACCEPT|52=20180926-17:19:28.845|56=INIT|10=064|8=FIX.4.2|9=55|35=0|34=170|49=ACCEPT|52=20180926-17:19:58.858|56=INIT|10=063|8=FIX.4.2|9=55|35=0|34=171|49=ACCEPT|52=20180926-17:20:29.417|56=INIT|10=045|8=FIX.4.2|9=55|35=0|34=172|49=ACCEPT|52=20180926-17:20:59.854|56=INIT|10=054|8=FIX.4.2|9=55|35=0|34=173|49=ACCEPT|52=20180926-17:21:30.412|56=INIT|10=035|8=FIX.4.2|9=55|35=0|34=174|49=ACCEPT|52=20180926-17:22:00.413|56=INIT|10=035|8=FIX.4.2|9=55|35=0|34=175|49=ACCEPT|52=20180926-17:22:30.414|56=INIT|10=040|8=FIX.4.2|9=55|35=0|34=176|49=ACCEPT|52=20180926-17:23:00.418|56=INIT|10=043|8=FIX.4.2|9=55|35=0|34=177|49=ACCEPT|52=20180926-17:23:30.850|56=INIT|10=047|8=FIX.4.2|9=55|35=0|34=178|49=ACCEPT|52=20180926-17:24:00.856|56=INIT|10=052|8=FIX.4.2|9=55|35=0|34=179|49=ACCEPT|52=20180926-17:24:31.410|56=INIT|10=043|8=FIX.4.2|9=55|35=0|34=180|49=ACCEPT|52=20180926-17:25:01.844|56=INIT|10=044|8=FIX.4.2|9=55|35=0|34=181|49=ACCEPT|52=20180926-17:25:31.857|56=INIT|10=052|8=FIX.4.2|9=55|35=0|34=182|49=ACCEPT|52=20180926-17:26:02.418|56=INIT|10=045|8=FIX.4.2|9=55|35=0|34=183|49=ACCEPT|52=20180926-17:26:32.842|56=INIT|10=050|8=FIX.4.2|9=55|35=0|34=184|49=ACCEPT|52=20180926-17:27:02.846|56=INIT|10=053|8=FIX.4.2|9=55|35=0|34=185|49=ACCEPT|52=20180926-17:27:32.846|56=INIT|10=057|8=FIX.4.2|9=55|35=0|34=186|49=ACCEPT|52=20180926-17:28:02.853|56=INIT|10=054|8=FIX.4.2|9=55|35=0|34=187|49=ACCEPT|52=20180926-17:28:33.406|56=INIT|10=053|8=FIX.4.2|9=55|35=0|34=188|49=ACCEPT|52=20180926-17:29:03.416|56=INIT|10=053|8=FIX.4.2|9=55|35=0|34=189|49=ACCEPT|52=20180926-17:29:33.842|56=INIT|10=060|8=FIX.4.2|9=55|35=0|34=190|49=ACCEPT|52=20180926-17:30:03.853|56=INIT|10=043|8=FIX.4.2|9=55|35=0|34=191|49=ACCEPT|52=20180926-17:30:34.406|56=INIT|10=042|8=FIX.4.2|9=55|35=0|34=192|49=ACCEPT|52=20180926-17:31:04.414|56=INIT|10=040|8=FIX.4.2|9=55|35=0|34=193|49=ACCEPT|52=20180926-17:31:34.415|56=INIT|10=045|8=FIX.4.2|9=55|35=0|34=194|49=ACCEPT|52=20180926-17:32:04.843|56=INIT|10=049|8=FIX.4.2|9=55|35=0|34=195|49=ACCEPT|52=20180926-17:32:34.845|56=INIT|10=055|8=FIX.4.2|9=55|35=0|34=196|49=ACCEPT|52=20180926-17:33:05.406|56=INIT|10=048|8=FIX.4.2|9=55|35=0|34=197|49=ACCEPT|52=20180926-17:33:35.407|56=INIT|10=053|8=FIX.4.2|9=55|35=0|34=198|49=ACCEPT|52=20180926-17:34:05.409|56=INIT|10=054|8=FIX.4.2|9=55|35=0|34=199|49=ACCEPT|52=20180926-17:34:35.414|56=INIT|10=054|8=FIX.4.2|9=55|35=0|34=200|49=ACCEPT|52=20180926-17:35:05.840|56=INIT|10=038|8=FIX.4.2|9=55|35=0|34=201|49=ACCEPT|52=20180926-17:35:35.851|56=INIT|10=044|8=FIX.4.2|9=55|35=0|34=202|49=ACCEPT|52=20180926-17:36:06.404|56=INIT|10=038|8=FIX.4.2|9=55|35=0|34=203|49=ACCEPT|52=20180926-17:36:36.853|56=INIT|10=050|8=FIX.4.2|9=55|35=0|34=204|49=ACCEPT|52=20180926-17:37:07.412|56=INIT|10=041|8=FIX.4.2|9=55|35=0|34=205|49=ACCEPT|52=20180926-17:37:37.845|56=INIT|10=055|8=FIX.4.2|9=55|35=0|34=206|49=ACCEPT|52=20180926-17:38:07.852|56=INIT|10=052|8=FIX.4.2|9=55|35=0|34=207|49=ACCEPT|52=20180926-17:38:38.405|56=INIT|10=051|8=FIX.4.2|9=55|35=0|34=208|49=ACCEPT|52=20180926-17:39:08.840|56=INIT|10=053|8=FIX.4.2|9=55|35=0|34=209|49=ACCEPT|52=20180926-17:39:38.847|56=INIT|10=064|8=FIX.4.2|9=55|35=0|34=210|49=ACCEPT|52=20180926-17:40:08.852|56=INIT|10=041|8=FIX.4.2|9=55|35=0|34=211|49=ACCEPT|52=20180926-17:40:39.402|56=INIT|10=037|8=FIX.4.2|9=55|35=0|34=212|49=ACCEPT|52=20180926-17:41:09.412|56=INIT|10=037|8=FIX.4.2|9=55|35=0|34=213|49=ACCEPT|52=20180926-17:41:39.850|56=INIT|10=047|8=FIX.4.2|9=55|35=0|34=214|49=ACCEPT|52=20180926-17:42:10.399|56=INIT|10=046|8=FIX.4.2|9=55|35=0|34=215|49=ACCEPT|52=20180926-17:42:40.399|56=INIT|10=050|8=FIX.4.2|9=55|35=0|34=216|49=ACCEPT|52=20180926-17:43:10.403|56=INIT|10=035|8=FIX.4.2|9=55|35=0|34=217|49=ACCEPT|52=20180926-17:43:40.410|56=INIT|10=037|8=FIX.4.2|9=55|35=0|34=218|49=ACCEPT|52=20180926-17:44:10.836|56=INIT|10=048|8=FIX.4.2|9=55|35=0|34=219|49=ACCEPT|52=20180926-17:44:40.841|56=INIT|10=048|8=FIX.4.2|9=55|35=0|34=220|49=ACCEPT|52=20180926-17:45:11.398|56=INIT|10=046|8=FIX.4.2|9=55|35=0|34=221|49=ACCEPT|52=20180926-17:45:41.399|56=INIT|10=051|8=FIX.4.2|9=55|35=0|34=222|49=ACCEPT|52=20180926-17:46:11.403|56=INIT|10=036|8=FIX.4.2|9=55|35=0|34=223|49=ACCEPT|52=20180926-17:46:41.407|56=INIT|10=044|8=FIX.4.2|9=55|35=0|34=224|49=ACCEPT|52=20180926-17:47:11.840|56=INIT|10=044|8=FIX.4.2|9=55|35=0|34=225|49=ACCEPT|52=20180926-17:47:42.400|56=INIT|10=041|8=FIX.4.2|9=55|35=0|34=226|49=ACCEPT|52=20180926-17:48:12.406|56=INIT|10=046|8=FIX.4.2|9=55|35=0|34=227|49=ACCEPT|52=20180926-17:48:42.407|56=INIT|10=051|8=FIX.4.2|9=55|35=0|34=228|49=ACCEPT|52=20180926-17:49:12.843|56=INIT|10=054|8=FIX.4.2|9=55|35=0|34=229|49=ACCEPT|52=20180926-17:49:43.405|56=INIT|10=053|8=FIX.4.2|9=55|35=0|34=230|49=ACCEPT|52=20180926-17:50:13.840|56=INIT|10=037|8=FIX.4.2|9=55|35=0|34=231|